{
  "_format": "hh-sol-artifact-1",
  "contractName": "EvolutionTracker",
  "sourceName": "contracts/layer3/temporal/EvolutionTracker.sol",
  "abi": [
    {
      "inputs": [],
      "stateMutability": "nonpayable",
      "type": "constructor"
    },
    {
      "inputs": [
        {
          "internalType": "address",
          "name": "owner",
          "type": "address"
        }
      ],
      "name": "OwnableInvalidOwner",
      "type": "error"
    },
    {
      "inputs": [
        {
          "internalType": "address",
          "name": "account",
          "type": "address"
        }
      ],
      "name": "OwnableUnauthorizedAccount",
      "type": "error"
    },
    {
      "anonymous": false,
      "inputs": [
        {
          "indexed": true,
          "internalType": "uint256",
          "name": "entityId",
          "type": "uint256"
        },
        {
          "indexed": false,
          "internalType": "string",
          "name": "milestone",
          "type": "string"
        }
      ],
      "name": "MilestoneReached",
      "type": "event"
    },
    {
      "anonymous": false,
      "inputs": [
        {
          "indexed": true,
          "internalType": "uint256",
          "name": "entityId",
          "type": "uint256"
        },
        {
          "indexed": false,
          "internalType": "string",
          "name": "trait",
          "type": "string"
        }
      ],
      "name": "MutationOccurred",
      "type": "event"
    },
    {
      "anonymous": false,
      "inputs": [
        {
          "indexed": true,
          "internalType": "address",
          "name": "previousOwner",
          "type": "address"
        },
        {
          "indexed": true,
          "internalType": "address",
          "name": "newOwner",
          "type": "address"
        }
      ],
      "name": "OwnershipTransferred",
      "type": "event"
    },
    {
      "inputs": [
        {
          "internalType": "uint256",
          "name": "",
          "type": "uint256"
        },
        {
          "internalType": "uint256",
          "name": "",
          "type": "uint256"
        }
      ],
      "name": "entityMilestones",
      "outputs": [
        {
          "internalType": "uint256",
          "name": "id",
          "type": "uint256"
        },
        {
          "internalType": "string",
          "name": "name",
          "type": "string"
        },
        {
          "internalType": "uint256",
          "name": "timestamp",
          "type": "uint256"
        },
        {
          "internalType": "uint256",
          "name": "significance",
          "type": "uint256"
        }
      ],
      "stateMutability": "view",
      "type": "function"
    },
    {
      "inputs": [
        {
          "internalType": "uint256",
          "name": "",
          "type": "uint256"
        },
        {
          "internalType": "uint256",
          "name": "",
          "type": "uint256"
        }
      ],
      "name": "entityMutations",
      "outputs": [
        {
          "internalType": "uint256",
          "name": "id",
          "type": "uint256"
        },
        {
          "internalType": "string",
          "name": "traitName",
          "type": "string"
        },
        {
          "internalType": "string",
          "name": "oldValue",
          "type": "string"
        },
        {
          "internalType": "string",
          "name": "newValue",
          "type": "string"
        },
        {
          "internalType": "uint256",
          "name": "timestamp",
          "type": "uint256"
        }
      ],
      "stateMutability": "view",
      "type": "function"
    },
    {
      "inputs": [
        {
          "internalType": "uint256",
          "name": "",
          "type": "uint256"
        }
      ],
      "name": "evolutions",
      "outputs": [
        {
          "internalType": "uint256",
          "name": "entityId",
          "type": "uint256"
        },
        {
          "internalType": "uint256",
          "name": "generation",
          "type": "uint256"
        },
        {
          "internalType": "uint256",
          "name": "mutationCount",
          "type": "uint256"
        },
        {
          "internalType": "uint256",
          "name": "milestoneCount",
          "type": "uint256"
        },
        {
          "internalType": "uint256",
          "name": "evolutionScore",
          "type": "uint256"
        }
      ],
      "stateMutability": "view",
      "type": "function"
    },
    {
      "inputs": [
        {
          "internalType": "uint256",
          "name": "entityId",
          "type": "uint256"
        }
      ],
      "name": "getEvolutionPath",
      "outputs": [
        {
          "components": [
            {
              "internalType": "uint256",
              "name": "id",
              "type": "uint256"
            },
            {
              "internalType": "string",
              "name": "name",
              "type": "string"
            },
            {
              "internalType": "uint256",
              "name": "timestamp",
              "type": "uint256"
            },
            {
              "internalType": "uint256",
              "name": "significance",
              "type": "uint256"
            }
          ],
          "internalType": "struct EvolutionTracker.Milestone[]",
          "name": "",
          "type": "tuple[]"
        },
        {
          "components": [
            {
              "internalType": "uint256",
              "name": "id",
              "type": "uint256"
            },
            {
              "internalType": "string",
              "name": "traitName",
              "type": "string"
            },
            {
              "internalType": "string",
              "name": "oldValue",
              "type": "string"
            },
            {
              "internalType": "string",
              "name": "newValue",
              "type": "string"
            },
            {
              "internalType": "uint256",
              "name": "timestamp",
              "type": "uint256"
            }
          ],
          "internalType": "struct EvolutionTracker.Mutation[]",
          "name": "",
          "type": "tuple[]"
        }
      ],
      "stateMutability": "view",
      "type": "function"
    },
    {
      "inputs": [],
      "name": "owner",
      "outputs": [
        {
          "internalType": "address",
          "name": "",
          "type": "address"
        }
      ],
      "stateMutability": "view",
      "type": "function"
    },
    {
      "inputs": [
        {
          "internalType": "uint256",
          "name": "entityId",
          "type": "uint256"
        },
        {
          "internalType": "string",
          "name": "traitName",
          "type": "string"
        },
        {
          "internalType": "string",
          "name": "oldValue",
          "type": "string"
        },
        {
          "internalType": "string",
          "name": "newValue",
          "type": "string"
        }
      ],
      "name": "recordMutation",
      "outputs": [],
      "stateMutability": "nonpayable",
      "type": "function"
    },
    {
      "inputs": [],
      "name": "renounceOwnership",
      "outputs": [],
      "stateMutability": "nonpayable",
      "type": "function"
    },
    {
      "inputs": [
        {
          "internalType": "uint256",
          "name": "entityId",
          "type": "uint256"
        },
        {
          "internalType": "string",
          "name": "name",
          "type": "string"
        },
        {
          "internalType": "uint256",
          "name": "significance",
          "type": "uint256"
        }
      ],
      "name": "trackMilestone",
      "outputs": [],
      "stateMutability": "nonpayable",
      "type": "function"
    },
    {
      "inputs": [
        {
          "internalType": "address",
          "name": "newOwner",
          "type": "address"
        }
      ],
      "name": "transferOwnership",
      "outputs": [],
      "stateMutability": "nonpayable",
      "type": "function"
    }
  ],
  "bytecode": "0x6080806040523461007a5733156100645760008054336001600160a01b03198216811783556040519290916001600160a01b0316907f8be0079c531659141344cd1fd0a4f28419497f9722a3daafe3b4186f6b6457e09080a361108d90816100808239f35b631e4fbdf760e01b815260006004820152602490fd5b600080fdfe6080604052600436101561001257600080fd5b60003560e01c80635d64d78a14610b0757806362ce1f2714610a93578063715018a614610a155780637554b826146105135780638da5cb5b146104df578063939df44014610247578063d11a461f146101ef578063d7118830146101495763f2fde38b1461007f57600080fd5b346101445760206003193601126101445760043573ffffffffffffffffffffffffffffffffffffffff808216809203610144576100ba610fdf565b811561011357600054827fffffffffffffffffffffffff0000000000000000000000000000000000000000821617600055167f8be0079c531659141344cd1fd0a4f28419497f9722a3daafe3b4186f6b6457e0600080a3005b60246040517f1e4fbdf700000000000000000000000000000000000000000000000000000000815260006004820152fd5b600080fd5b346101445761015736610e0a565b90600052600360205260406000209081548110156101445761017891610fc3565b50805461018760018301610ebe565b916101e561019760028301610ebe565b916101d760046101a960038401610ebe565b920154936101c9604051978897885260a0602089015260a0880190610f83565b908682036040880152610f83565b908482036060860152610f83565b9060808301520390f35b3461014457602060031936011261014457600435600052600160205260a06040600020805490600181015490600281015460046003830154920154926040519485526020850152604084015260608301526080820152f35b34610144576020806003193601126101445760043560005260028082526040600020916003918282526040600020918454916102828361103f565b926102906040519485610d90565b8084528284018097600052836000206000915b83831061048e57505050508354906102ba8261103f565b956102c86040519788610d90565b82875283870191829660005284600020916000935b85851061042b57505050505050604051936040850192604086525180935260609283860190848160051b88010197916000905b8282106103ba5750505050848603828601525190818652808601818360051b88010194936000975b8489106103455787870388f35b909192939495848082601f1985600195030187528951908151815261039e61038e61037c8585015160a08088870152850190610f83565b60408501518482036040860152610f83565b888401518382038a850152610f83565b9160808091015191015298019401980197919094939294610338565b90919295988580827fffffffffffffffffffffffffffffffffffffffffffffffffffffffffffffffa08c60019503018552895190815181528d8061040a8585015160808088870152850190610f83565b93604081015160408501520151910152980192019201909291989598610310565b60058760019260409d9a9d5161044081610d74565b8754815261044f858901610ebe565b8382015261045e878901610ebe565b604082015261046e868901610ebe565b6060820152600488015460808201528152019401940193929996996102dd565b60048660019260409c999c9b979b516104a681610d58565b855481526104b5858701610ebe565b838201528c86015460408201528886015460608201528152019201920191909895989793976102a3565b3461014457600060031936011261014457602073ffffffffffffffffffffffffffffffffffffffff60005416604051908152f35b346101445760806003193601126101445760243567ffffffffffffffff811161014457610544903690600401610db3565b60443567ffffffffffffffff811161014457610564903690600401610db3565b9060643567ffffffffffffffff811161014457610585903690600401610db3565b90600435600052600360205260406000208054604051936105a585610d74565b81855260208501958487526040860152606085015242608085015268010000000000000000811015610835576105e091600182018155610fc3565b9390936109e657825184555192835167ffffffffffffffff81116108355761060b6001830154610e6b565b601f811161099f575b506020601f8211600114610930578192939495600092610925575b50506000198260011b9260031b1c19161760018201555b604083015192835167ffffffffffffffff81116108355761066a6002840154610e6b565b601f81116108de575b506020601f821160011461086f578192939495600092610864575b50506000198260011b9260031b1c19161760028301555b606081015180519067ffffffffffffffff8211610835576106c96003850154610e6b565b601f81116107ea575b50602090601f83116001146107775791806004949260809460009261076c575b50506000198260011b9260031b1c19161760038501555b01519101556004356000526001602052600260406000200161072b8154611030565b90557fdeba1604a8d4f738d34d5b5a15684b331916a94b76c122e2947e5637e51a6a826040516020815280610767600435946020830190610f83565b0390a2005b0151905087806106f2565b90601f198316916003860160005260206000209260005b8181106107d2575092600192859260809660049896106107b9575b505050811b016003850155610709565b015160001960f88460031b161c191690558780806107a9565b9293602060018192878601518155019501930161078e565b600385016000526020600020601f840160051c8101916020851061082b575b601f0160051c01905b81811061081f57506106d2565b60008155600101610812565b9091508190610809565b7f4e487b7100000000000000000000000000000000000000000000000000000000600052604160045260246000fd5b01519050858061068e565b6002840160005260206000209060005b601f19841681106108c6575060019394959683601f198116106108ad575b505050811b0160028301556106a5565b015160001960f88460031b161c1916905585808061089d565b9091602060018192858b01518155019301910161087f565b600284016000526020600020601f830160051c81016020841061091e575b601f830160051c82018110610912575050610673565b600081556001016108fc565b50806108fc565b01519050858061062f565b6001830160005260206000209060005b601f1984168110610987575060019394959683601f1981161061096e575b505050811b016001820155610646565b015160001960f88460031b161c1916905585808061095e565b9091602060018192858b015181550193019101610940565b600183016000526020600020601f830160051c8101602084106109df575b601f830160051c820181106109d3575050610614565b600081556001016109bd565b50806109bd565b7f4e487b7100000000000000000000000000000000000000000000000000000000600052600060045260246000fd5b3461014457600060031936011261014457610a2e610fdf565b600073ffffffffffffffffffffffffffffffffffffffff81547fffffffffffffffffffffffff000000000000000000000000000000000000000081168355167f8be0079c531659141344cd1fd0a4f28419497f9722a3daafe3b4186f6b6457e08280a3005b3461014457610aa136610e0a565b906000526002602052604060002090815481101561014457610ac291610e20565b508054610ad160018301610ebe565b9160036002820154910154610af86040519485948552608060208601526080850190610f83565b91604084015260608301520390f35b346101445760606003193601126101445760043567ffffffffffffffff60243581811161014457610b3c903690600401610db3565b604435918360005260209060028252604060002090815460405191610b6083610d58565b818352848301868152604084019142835260608501938985526801000000000000000081101561083557610b9b906001978882018155610e20565b9590956109e6575185558585019151805191821161083557610bbd8354610e6b565b601f8111610d0f575b508790601f8311600114610ca7576003959493929160009183610c9c575b505060001982891b92871b1c19161790555b51600284015551910155846000528082526003604060002001610c198154611030565b90558460005281526004604060002001928354908101809111610c6d577f984459aa4ee69adbfb1e87ff1f2d2e14f6a22a8dd539a2ffbff5fad379352c129355610767604051928284938452830190610f83565b7f4e487b7100000000000000000000000000000000000000000000000000000000600052601160045260246000fd5b015190508c80610be4565b949392918791601f19821690846000528a6000209160005b8c828210610cf9575050978360039910610ce1575b505050811b019055610bf6565b015160001960f8848a1b161c191690558c8080610cd4565b838b015185558c96909401939283019201610cbf565b8360005288600020601f840160051c8101918a8510610d4e575b601f0160051c019088905b828110610d42575050610bc6565b60008155018890610d34565b9091508190610d29565b6080810190811067ffffffffffffffff82111761083557604052565b60a0810190811067ffffffffffffffff82111761083557604052565b90601f601f19910116810190811067ffffffffffffffff82111761083557604052565b81601f820112156101445780359067ffffffffffffffff82116108355760405192610de86020601f19601f8601160185610d90565b8284526020838301011161014457816000926020809301838601378301015290565b6003196040910112610144576004359060243590565b8054821015610e3c5760005260206000209060021b0190600090565b7f4e487b7100000000000000000000000000000000000000000000000000000000600052603260045260246000fd5b90600182811c92168015610eb4575b6020831014610e8557565b7f4e487b7100000000000000000000000000000000000000000000000000000000600052602260045260246000fd5b91607f1691610e7a565b9060405191826000825492610ed284610e6b565b908184526001948581169081600014610f415750600114610efe575b5050610efc92500383610d90565b565b9093915060005260209081600020936000915b818310610f29575050610efc93508201013880610eee565b85548884018501529485019487945091830191610f11565b9050610efc9550602093507fffffffffffffffffffffffffffffffffffffffffffffffffffffffffffffff0091501682840152151560051b8201013880610eee565b919082519283825260005b848110610faf575050601f19601f8460006020809697860101520116010190565b602081830181015184830182015201610f8e565b8054821015610e3c576000526005602060002091020190600090565b73ffffffffffffffffffffffffffffffffffffffff60005416330361100057565b60246040517f118cdaa7000000000000000000000000000000000000000000000000000000008152336004820152fd5b6000198114610c6d5760010190565b67ffffffffffffffff81116108355760051b6020019056fea2646970667358221220117c3d467e47d6c9004a3d74dcf88b1fbdcc203b9b1acf9caaeeefc181f6311264736f6c63430008140033",
  "linkReferences": {},
  "deployedLinkReferences": {}
}