{
  "_format": "hh-sol-artifact-1",
  "contractName": "MediaRights",
  "sourceName": "contracts/layer4/rights/MediaRights.sol",
  "abi": [
    {
      "inputs": [],
      "stateMutability": "nonpayable",
      "type": "constructor"
    },
    {
      "inputs": [
        {
          "internalType": "address",
          "name": "owner",
          "type": "address"
        }
      ],
      "name": "OwnableInvalidOwner",
      "type": "error"
    },
    {
      "inputs": [
        {
          "internalType": "address",
          "name": "account",
          "type": "address"
        }
      ],
      "name": "OwnableUnauthorizedAccount",
      "type": "error"
    },
    {
      "anonymous": false,
      "inputs": [
        {
          "indexed": true,
          "internalType": "uint256",
          "name": "licenseId",
          "type": "uint256"
        },
        {
          "indexed": true,
          "internalType": "uint256",
          "name": "bundleId",
          "type": "uint256"
        },
        {
          "indexed": true,
          "internalType": "address",
          "name": "licensee",
          "type": "address"
        }
      ],
      "name": "LicenseGranted",
      "type": "event"
    },
    {
      "anonymous": false,
      "inputs": [
        {
          "indexed": true,
          "internalType": "uint256",
          "name": "licenseId",
          "type": "uint256"
        }
      ],
      "name": "LicenseRevoked",
      "type": "event"
    },
    {
      "anonymous": false,
      "inputs": [
        {
          "indexed": true,
          "internalType": "address",
          "name": "previousOwner",
          "type": "address"
        },
        {
          "indexed": true,
          "internalType": "address",
          "name": "newOwner",
          "type": "address"
        }
      ],
      "name": "OwnershipTransferred",
      "type": "event"
    },
    {
      "anonymous": false,
      "inputs": [
        {
          "indexed": true,
          "internalType": "uint256",
          "name": "bundleId",
          "type": "uint256"
        },
        {
          "indexed": true,
          "internalType": "uint256",
          "name": "assetId",
          "type": "uint256"
        },
        {
          "indexed": false,
          "internalType": "enum MediaRights.RightType",
          "name": "rightType",
          "type": "uint8"
        }
      ],
      "name": "RightsCreated",
      "type": "event"
    },
    {
      "anonymous": false,
      "inputs": [
        {
          "indexed": true,
          "internalType": "uint256",
          "name": "bundleId",
          "type": "uint256"
        },
        {
          "indexed": true,
          "internalType": "address",
          "name": "from",
          "type": "address"
        },
        {
          "indexed": true,
          "internalType": "address",
          "name": "to",
          "type": "address"
        }
      ],
      "name": "RightsTransferred",
      "type": "event"
    },
    {
      "inputs": [
        {
          "internalType": "uint256",
          "name": "",
          "type": "uint256"
        },
        {
          "internalType": "uint256",
          "name": "",
          "type": "uint256"
        }
      ],
      "name": "assetLicenses",
      "outputs": [
        {
          "internalType": "uint256",
          "name": "",
          "type": "uint256"
        }
      ],
      "stateMutability": "view",
      "type": "function"
    },
    {
      "inputs": [
        {
          "internalType": "uint256",
          "name": "",
          "type": "uint256"
        },
        {
          "internalType": "uint256",
          "name": "",
          "type": "uint256"
        }
      ],
      "name": "assetRights",
      "outputs": [
        {
          "internalType": "uint256",
          "name": "",
          "type": "uint256"
        }
      ],
      "stateMutability": "view",
      "type": "function"
    },
    {
      "inputs": [],
      "name": "bundleCount",
      "outputs": [
        {
          "internalType": "uint256",
          "name": "",
          "type": "uint256"
        }
      ],
      "stateMutability": "view",
      "type": "function"
    },
    {
      "inputs": [
        {
          "internalType": "uint256",
          "name": "mediaAssetId",
          "type": "uint256"
        },
        {
          "internalType": "enum MediaRights.RightType",
          "name": "rightType",
          "type": "uint8"
        },
        {
          "internalType": "uint256",
          "name": "percentage",
          "type": "uint256"
        },
        {
          "internalType": "string[]",
          "name": "territories",
          "type": "string[]"
        },
        {
          "internalType": "uint256",
          "name": "duration",
          "type": "uint256"
        },
        {
          "internalType": "bool",
          "name": "exclusive",
          "type": "bool"
        },
        {
          "internalType": "bool",
          "name": "transferable",
          "type": "bool"
        },
        {
          "internalType": "bool",
          "name": "sublicensable",
          "type": "bool"
        }
      ],
      "name": "createRightsBundle",
      "outputs": [
        {
          "internalType": "uint256",
          "name": "",
          "type": "uint256"
        }
      ],
      "stateMutability": "nonpayable",
      "type": "function"
    },
    {
      "inputs": [
        {
          "internalType": "uint256",
          "name": "assetId",
          "type": "uint256"
        }
      ],
      "name": "getAssetRights",
      "outputs": [
        {
          "internalType": "uint256[]",
          "name": "",
          "type": "uint256[]"
        }
      ],
      "stateMutability": "view",
      "type": "function"
    },
    {
      "inputs": [
        {
          "internalType": "uint256",
          "name": "licenseId",
          "type": "uint256"
        }
      ],
      "name": "getLicense",
      "outputs": [
        {
          "components": [
            {
              "internalType": "uint256",
              "name": "licenseId",
              "type": "uint256"
            },
            {
              "internalType": "uint256",
              "name": "bundleId",
              "type": "uint256"
            },
            {
              "internalType": "address",
              "name": "licensee",
              "type": "address"
            },
            {
              "internalType": "uint256",
              "name": "fee",
              "type": "uint256"
            },
            {
              "internalType": "uint256",
              "name": "startDate",
              "type": "uint256"
            },
            {
              "internalType": "uint256",
              "name": "endDate",
              "type": "uint256"
            },
            {
              "internalType": "string[]",
              "name": "allowedUses",
              "type": "string[]"
            },
            {
              "internalType": "bool",
              "name": "active",
              "type": "bool"
            }
          ],
          "internalType": "struct MediaRights.License",
          "name": "",
          "type": "tuple"
        }
      ],
      "stateMutability": "view",
      "type": "function"
    },
    {
      "inputs": [
        {
          "internalType": "uint256",
          "name": "bundleId",
          "type": "uint256"
        }
      ],
      "name": "getRightsBundle",
      "outputs": [
        {
          "components": [
            {
              "internalType": "uint256",
              "name": "bundleId",
              "type": "uint256"
            },
            {
              "internalType": "uint256",
              "name": "mediaAssetId",
              "type": "uint256"
            },
            {
              "internalType": "enum MediaRights.RightType",
              "name": "rightType",
              "type": "uint8"
            },
            {
              "internalType": "address",
              "name": "owner",
              "type": "address"
            },
            {
              "internalType": "uint256",
              "name": "percentage",
              "type": "uint256"
            },
            {
              "internalType": "string[]",
              "name": "territories",
              "type": "string[]"
            },
            {
              "internalType": "uint256",
              "name": "startDate",
              "type": "uint256"
            },
            {
              "internalType": "uint256",
              "name": "endDate",
              "type": "uint256"
            },
            {
              "internalType": "bool",
              "name": "exclusive",
              "type": "bool"
            },
            {
              "internalType": "bool",
              "name": "transferable",
              "type": "bool"
            },
            {
              "internalType": "bool",
              "name": "sublicensable",
              "type": "bool"
            }
          ],
          "internalType": "struct MediaRights.RightsBundle",
          "name": "",
          "type": "tuple"
        }
      ],
      "stateMutability": "view",
      "type": "function"
    },
    {
      "inputs": [
        {
          "internalType": "uint256",
          "name": "bundleId",
          "type": "uint256"
        },
        {
          "internalType": "address",
          "name": "licensee",
          "type": "address"
        },
        {
          "internalType": "uint256",
          "name": "fee",
          "type": "uint256"
        },
        {
          "internalType": "uint256",
          "name": "duration",
          "type": "uint256"
        },
        {
          "internalType": "string[]",
          "name": "allowedUses",
          "type": "string[]"
        }
      ],
      "name": "grantLicense",
      "outputs": [
        {
          "internalType": "uint256",
          "name": "",
          "type": "uint256"
        }
      ],
      "stateMutability": "payable",
      "type": "function"
    },
    {
      "inputs": [
        {
          "internalType": "uint256",
          "name": "licenseId",
          "type": "uint256"
        }
      ],
      "name": "isLicenseValid",
      "outputs": [
        {
          "internalType": "bool",
          "name": "",
          "type": "bool"
        }
      ],
      "stateMutability": "view",
      "type": "function"
    },
    {
      "inputs": [],
      "name": "licenseCount",
      "outputs": [
        {
          "internalType": "uint256",
          "name": "",
          "type": "uint256"
        }
      ],
      "stateMutability": "view",
      "type": "function"
    },
    {
      "inputs": [
        {
          "internalType": "uint256",
          "name": "",
          "type": "uint256"
        }
      ],
      "name": "licenses",
      "outputs": [
        {
          "internalType": "uint256",
          "name": "licenseId",
          "type": "uint256"
        },
        {
          "internalType": "uint256",
          "name": "bundleId",
          "type": "uint256"
        },
        {
          "internalType": "address",
          "name": "licensee",
          "type": "address"
        },
        {
          "internalType": "uint256",
          "name": "fee",
          "type": "uint256"
        },
        {
          "internalType": "uint256",
          "name": "startDate",
          "type": "uint256"
        },
        {
          "internalType": "uint256",
          "name": "endDate",
          "type": "uint256"
        },
        {
          "internalType": "bool",
          "name": "active",
          "type": "bool"
        }
      ],
      "stateMutability": "view",
      "type": "function"
    },
    {
      "inputs": [],
      "name": "owner",
      "outputs": [
        {
          "internalType": "address",
          "name": "",
          "type": "address"
        }
      ],
      "stateMutability": "view",
      "type": "function"
    },
    {
      "inputs": [
        {
          "internalType": "address",
          "name": "",
          "type": "address"
        },
        {
          "internalType": "uint256",
          "name": "",
          "type": "uint256"
        }
      ],
      "name": "ownerRights",
      "outputs": [
        {
          "internalType": "uint256",
          "name": "",
          "type": "uint256"
        }
      ],
      "stateMutability": "view",
      "type": "function"
    },
    {
      "inputs": [],
      "name": "renounceOwnership",
      "outputs": [],
      "stateMutability": "nonpayable",
      "type": "function"
    },
    {
      "inputs": [
        {
          "internalType": "uint256",
          "name": "licenseId",
          "type": "uint256"
        }
      ],
      "name": "revokeLicense",
      "outputs": [],
      "stateMutability": "nonpayable",
      "type": "function"
    },
    {
      "inputs": [
        {
          "internalType": "uint256",
          "name": "",
          "type": "uint256"
        }
      ],
      "name": "rightsBundles",
      "outputs": [
        {
          "internalType": "uint256",
          "name": "bundleId",
          "type": "uint256"
        },
        {
          "internalType": "uint256",
          "name": "mediaAssetId",
          "type": "uint256"
        },
        {
          "internalType": "enum MediaRights.RightType",
          "name": "rightType",
          "type": "uint8"
        },
        {
          "internalType": "address",
          "name": "owner",
          "type": "address"
        },
        {
          "internalType": "uint256",
          "name": "percentage",
          "type": "uint256"
        },
        {
          "internalType": "uint256",
          "name": "startDate",
          "type": "uint256"
        },
        {
          "internalType": "uint256",
          "name": "endDate",
          "type": "uint256"
        },
        {
          "internalType": "bool",
          "name": "exclusive",
          "type": "bool"
        },
        {
          "internalType": "bool",
          "name": "transferable",
          "type": "bool"
        },
        {
          "internalType": "bool",
          "name": "sublicensable",
          "type": "bool"
        }
      ],
      "stateMutability": "view",
      "type": "function"
    },
    {
      "inputs": [
        {
          "internalType": "address",
          "name": "newOwner",
          "type": "address"
        }
      ],
      "name": "transferOwnership",
      "outputs": [],
      "stateMutability": "nonpayable",
      "type": "function"
    },
    {
      "inputs": [
        {
          "internalType": "uint256",
          "name": "bundleId",
          "type": "uint256"
        },
        {
          "internalType": "address",
          "name": "newOwner",
          "type": "address"
        }
      ],
      "name": "transferRights",
      "outputs": [],
      "stateMutability": "nonpayable",
      "type": "function"
    }
  ],
  "bytecode": "0x608060405234801561001057600080fd5b50338061003757604051631e4fbdf760e01b81526000600482015260240160405180910390fd5b61004081610046565b50610096565b600080546001600160a01b038381166001600160a01b0319831681178455604051919092169283917f8be0079c531659141344cd1fd0a4f28419497f9722a3daafe3b4186f6b6457e09190a35050565b61194f806100a56000396000f3fe6080604052600436106101095760003560e01c80638da5cb5b11610095578063cc03ac7311610064578063cc03ac731461036e578063d2e36866146103fd578063d5c191511461041d578063ebb0bb7a14610433578063f2fde38b1461045357600080fd5b80638da5cb5b146102c95780639f7fc6d3146102f1578063a98e893414610321578063b2dd12121461034157600080fd5b806333790845116100dc57806333790845146101a8578063439d4b5c146102525780634ea078e314610274578063715018a61461029457806372ba21e3146102a957600080fd5b80631752e4511461010e57806320165506146101445780632fbccc271461016557806331d75ec51461017b575b600080fd5b34801561011a57600080fd5b5061012e6101293660046111c1565b610473565b60405161013b9190611294565b60405180910390f35b6101576101523660046114a8565b610636565b60405190815260200161013b565b34801561017157600080fd5b5061015760075481565b34801561018757600080fd5b5061019b6101963660046111c1565b6108e3565b60405161013b9190611513565b3480156101b457600080fd5b5061020d6101c33660046111c1565b600260208190526000918252604090912080546001820154928201546003830154600484015460058501546007909501549395946001600160a01b03909316939192909160ff1687565b6040805197885260208801969096526001600160a01b03909416948601949094526060850191909152608084015260a0830191909152151560c082015260e00161013b565b34801561025e57600080fd5b5061027261026d3660046111c1565b610945565b005b34801561028057600080fd5b5061015761028f366004611567565b610a39565b3480156102a057600080fd5b50610272610c6f565b3480156102b557600080fd5b506101576102c436600461160a565b610c83565b3480156102d557600080fd5b506000546040516001600160a01b03909116815260200161013b565b3480156102fd57600080fd5b5061031161030c3660046111c1565b610cb4565b604051901515815260200161013b565b34801561032d57600080fd5b5061027261033c366004611634565b610ce1565b34801561034d57600080fd5b5061036161035c3660046111c1565b610e0d565b60405161013b9190611660565b34801561037a57600080fd5b506103e76103893660046111c1565b60016020819052600091825260409091208054918101546002820154600383015460058401546006850154600790950154939460ff808516956001600160a01b0361010096879004169581831692908204811691620100009004168a565b60405161013b9a999897969594939291906116d9565b34801561040957600080fd5b5061015761041836600461173d565b610fa6565b34801561042957600080fd5b5061015760065481565b34801561043f57600080fd5b5061015761044e36600461173d565b610fc2565b34801561045f57600080fd5b5061027261046e36600461175f565b610fde565b61047b611099565b6000828152600160208181526040928390208351610160810185528154815292810154918301919091526002810154919290919083019060ff1660098111156104c6576104c66111da565b60098111156104d7576104d76111da565b81526020016002820160019054906101000a90046001600160a01b03166001600160a01b03166001600160a01b031681526020016003820154815260200160048201805480602002602001604051908101604052809291908181526020016000905b828210156105e55783829060005260206000200180546105589061177a565b80601f01602080910402602001604051908101604052809291908181526020018280546105849061177a565b80156105d15780601f106105a6576101008083540402835291602001916105d1565b820191906000526020600020905b8154815290600101906020018083116105b457829003601f168201915b505050505081526020019060010190610539565b50505090825250600582015460208201526006820154604082015260079091015460ff8082161515606084015261010082048116151560808401526201000090910416151560a09091015292915050565b6000858152600160205260408120600281015461010090046001600160a01b0316331461069d5760405162461bcd60e51b815260206004820152601060248201526f2737ba103934b3b43a399037bbb732b960811b60448201526064015b60405180910390fd5b600781015462010000900460ff166106eb5760405162461bcd60e51b81526020600482015260116024820152704e6f74207375626c6963656e7361626c6560781b6044820152606401610694565b843410156107325760405162461bcd60e51b8152602060048201526014602482015273125b9cdd59999a58da595b9d081c185e5b595b9d60621b6044820152606401610694565b60078054906000610742836117ca565b919050555060006007549050604051806101000160405280828152602001898152602001886001600160a01b03168152602001878152602001428152602001864261078d91906117e3565b815260208082018790526001604092830181905260008581526002808452908490208551815585840151928101929092559284015192810180546001600160a01b0319166001600160a01b0390941693909317909255606083015160038301556080830151600483015560a0830151600583015560c083015180516108189260068501920190611104565b5060e091909101516007909101805460ff19169115159190911790556001828101546000908152600460209081526040808320805494850181558352908220909201839055600284015491516101009092046001600160a01b0316916108fc3480159190910292909190818181858888f1935050505015801561089f573d6000803e3d6000fd5b50866001600160a01b031688827fc3488548591b23e36ab69f351a6ccd625e3cb6926a57eb53648c54563b8d752060405160405180910390a4979650505050505050565b60008181526003602090815260409182902080548351818402810184019094528084526060939283018282801561093957602002820191906000526020600020905b815481526020019060010190808311610925575b50505050509050919050565b600081815260026020818152604080842060018082015486529092529092209081015461010090046001600160a01b031633146109b75760405162461bcd60e51b815260206004820152601060248201526f2737ba103934b3b43a399037bbb732b960811b6044820152606401610694565b600782015460ff166109fd5760405162461bcd60e51b815260206004820152600f60248201526e105b1c9958591e481c995d9bdad959608a1b6044820152606401610694565b60078201805460ff1916905560405183907ff8ecc300d4504a2b49692052f138b7e697df679cf0580522720ce405bd01be5590600090a2505050565b6006805460009182610a4a836117ca565b909155505060065460008615610a6957610a6487426117e3565b610a6c565b60005b90506040518061016001604052808381526020018c81526020018b6009811115610a9857610a986111da565b8152602001336001600160a01b031681526020018a81526020018981526020014281526020018281526020018715158152602001861515815260200185151581525060016000848152602001908152602001600020600082015181600001556020820151816001015560408201518160020160006101000a81548160ff02191690836009811115610b2b57610b2b6111da565b021790555060608201516002820180546001600160a01b0390921661010002610100600160a81b03199092169190911790556080820151600382015560a08201518051610b82916004840191602090910190611104565b5060c082015160058083019190915560e083015160068301556101008084015160079093018054610120860151610140909601511515620100000262ff00001996151590930261ff00199515159590951661ffff1990911617939093179390931692909217905560008c8152600360209081526040808320805460018181018355918552838520018790553384529382528083208054948501815583529120909101839055518b9083907f823792ab320e2b914a1db6a2f477334fedce5bd497a2c06e528c6b4a1b91150590610c59908e906117fc565b60405180910390a3509998505050505050505050565b610c7761101c565b610c816000611049565b565b60056020528160005260406000208181548110610c9f57600080fd5b90600052602060002001600091509150505481565b6000818152600260205260408120600781015460ff168015610cda575080600501544211155b9392505050565b6000828152600160205260409020600281015461010090046001600160a01b03163314610d3c5760405162461bcd60e51b81526020600482015260096024820152682737ba1037bbb732b960b91b6044820152606401610694565b6007810154610100900460ff16610d885760405162461bcd60e51b815260206004820152601060248201526f4e6f74207472616e7366657261626c6560801b6044820152606401610694565b6002810180546001600160a01b03848116610100818102610100600160a81b031985161790945560008181526005602090815260408083208054600181018255908452918320909101899055519490930491909116929091839187917f965375124fed6b8c101736599c5e83d1e452ece8b2cc183b71de348d915eeb0891a450505050565b610e60604051806101000160405280600081526020016000815260200160006001600160a01b03168152602001600081526020016000815260200160008152602001606081526020016000151581525090565b600082815260026020818152604080842081516101008101835281548152600182015481850152938101546001600160a01b0316848301526003810154606085015260048101546080850152600581015460a08501526006810180548351818602810186019094528084529495919460c08701949192909184015b82821015610f87578382906000526020600020018054610efa9061177a565b80601f0160208091040260200160405190810160405280929190818152602001828054610f269061177a565b8015610f735780601f10610f4857610100808354040283529160200191610f73565b820191906000526020600020905b815481529060010190602001808311610f5657829003601f168201915b505050505081526020019060010190610edb565b505050908252506007919091015460ff16151560209091015292915050565b60046020528160005260406000208181548110610c9f57600080fd5b60036020528160005260406000208181548110610c9f57600080fd5b610fe661101c565b6001600160a01b03811661101057604051631e4fbdf760e01b815260006004820152602401610694565b61101981611049565b50565b6000546001600160a01b03163314610c815760405163118cdaa760e01b8152336004820152602401610694565b600080546001600160a01b038381166001600160a01b0319831681178455604051919092169283917f8be0079c531659141344cd1fd0a4f28419497f9722a3daafe3b4186f6b6457e09190a35050565b6040518061016001604052806000815260200160008152602001600060098111156110c6576110c66111da565b8152600060208201819052604082018190526060808301526080820181905260a0820181905260c0820181905260e082018190526101009091015290565b82805482825590600052602060002090810192821561114a579160200282015b8281111561114a578251829061113a9082611859565b5091602001919060010190611124565b5061115692915061115a565b5090565b8082111561115657600061116e8282611177565b5060010161115a565b5080546111839061177a565b6000825580601f10611193575050565b601f01602090049060005260206000209081019061101991905b8082111561115657600081556001016111ad565b6000602082840312156111d357600080fd5b5035919050565b634e487b7160e01b600052602160045260246000fd5b600a811061120e57634e487b7160e01b600052602160045260246000fd5b9052565b6000815180845260208085019450848260051b86018286016000805b86811015611286578484038a5282518051808652835b8181101561125f578281018901518782018a01528801611244565b5085810188018490529a87019a601f01601f1916909401860193509185019160010161122e565b509198975050505050505050565b602081528151602082015260208201516040820152600060408301516112bd60608401826111f0565b5060608301516001600160a01b038116608084015250608083015160a083015260a08301516101608060c08501526112f9610180850183611212565b915060c085015160e085015260e08501516101008181870152808701519150506101206113298187018315159052565b860151905061014061133e8682018315159052565b90950151151593019290925250919050565b80356001600160a01b038116811461136757600080fd5b919050565b634e487b7160e01b600052604160045260246000fd5b604051601f8201601f1916810167ffffffffffffffff811182821017156113ab576113ab61136c565b604052919050565b6000601f83818401126113c557600080fd5b8235602067ffffffffffffffff808311156113e2576113e261136c565b8260051b6113f1838201611382565b938452868101830193838101908986111561140b57600080fd5b84890192505b8583101561149b578235848111156114295760008081fd5b8901603f81018b1361143b5760008081fd5b858101356040868211156114515761145161136c565b611462828b01601f19168901611382565b8281528d828486010111156114775760008081fd5b828285018a8301376000928101890192909252508352509184019190840190611411565b9998505050505050505050565b600080600080600060a086880312156114c057600080fd5b853594506114d060208701611350565b93506040860135925060608601359150608086013567ffffffffffffffff8111156114fa57600080fd5b611506888289016113b3565b9150509295509295909350565b6020808252825182820181905260009190848201906040850190845b8181101561154b5783518352928401929184019160010161152f565b50909695505050505050565b8035801515811461136757600080fd5b600080600080600080600080610100898b03121561158457600080fd5b883597506020890135600a811061159a57600080fd5b965060408901359550606089013567ffffffffffffffff8111156115bd57600080fd5b6115c98b828c016113b3565b955050608089013593506115df60a08a01611557565b92506115ed60c08a01611557565b91506115fb60e08a01611557565b90509295985092959890939650565b6000806040838503121561161d57600080fd5b61162683611350565b946020939093013593505050565b6000806040838503121561164757600080fd5b8235915061165760208401611350565b90509250929050565b60208152815160208201526020820151604082015260018060a01b03604083015116606082015260608201516080820152608082015160a082015260a082015160c0820152600060c08301516101008060e08501526116c3610120850183611212565b60e0959095015115159301929092525090919050565b8a8152602081018a905261014081016116f5604083018b6111f0565b6001600160a01b03989098166060820152608081019690965260a086019490945260c0850192909252151560e084015215156101008301521515610120909101529392505050565b6000806040838503121561175057600080fd5b50508035926020909101359150565b60006020828403121561177157600080fd5b610cda82611350565b600181811c9082168061178e57607f821691505b6020821081036117ae57634e487b7160e01b600052602260045260246000fd5b50919050565b634e487b7160e01b600052601160045260246000fd5b6000600182016117dc576117dc6117b4565b5060010190565b808201808211156117f6576117f66117b4565b92915050565b602081016117f682846111f0565b601f82111561185457600081815260208120601f850160051c810160208610156118315750805b601f850160051c820191505b818110156118505782815560010161183d565b5050505b505050565b815167ffffffffffffffff8111156118735761187361136c565b61188781611881845461177a565b8461180a565b602080601f8311600181146118bc57600084156118a45750858301515b600019600386901b1c1916600185901b178555611850565b600085815260208120601f198616915b828110156118eb578886015182559484019460019091019084016118cc565b50858210156119095787850151600019600388901b60f8161c191681555b5050505050600190811b0190555056fea26469706673582212209a07f9887f824fa2edf00811c7b1a5186e0ac9b84a69e98813cf6b1176ce16c364736f6c63430008140033",
  "linkReferences": {},
  "deployedLinkReferences": {}
}