{
  "_format": "hh-sol-artifact-1",
  "contractName": "MediaRights",
  "sourceName": "contracts/layer4/rights/MediaRights.sol",
  "abi": [
    {
      "inputs": [],
      "stateMutability": "nonpayable",
      "type": "constructor"
    },
    {
      "inputs": [
        {
          "internalType": "address",
          "name": "owner",
          "type": "address"
        }
      ],
      "name": "OwnableInvalidOwner",
      "type": "error"
    },
    {
      "inputs": [
        {
          "internalType": "address",
          "name": "account",
          "type": "address"
        }
      ],
      "name": "OwnableUnauthorizedAccount",
      "type": "error"
    },
    {
      "anonymous": false,
      "inputs": [
        {
          "indexed": true,
          "internalType": "uint256",
          "name": "licenseId",
          "type": "uint256"
        },
        {
          "indexed": true,
          "internalType": "uint256",
          "name": "bundleId",
          "type": "uint256"
        },
        {
          "indexed": true,
          "internalType": "address",
          "name": "licensee",
          "type": "address"
        }
      ],
      "name": "LicenseGranted",
      "type": "event"
    },
    {
      "anonymous": false,
      "inputs": [
        {
          "indexed": true,
          "internalType": "uint256",
          "name": "licenseId",
          "type": "uint256"
        }
      ],
      "name": "LicenseRevoked",
      "type": "event"
    },
    {
      "anonymous": false,
      "inputs": [
        {
          "indexed": true,
          "internalType": "address",
          "name": "previousOwner",
          "type": "address"
        },
        {
          "indexed": true,
          "internalType": "address",
          "name": "newOwner",
          "type": "address"
        }
      ],
      "name": "OwnershipTransferred",
      "type": "event"
    },
    {
      "anonymous": false,
      "inputs": [
        {
          "indexed": true,
          "internalType": "uint256",
          "name": "bundleId",
          "type": "uint256"
        },
        {
          "indexed": true,
          "internalType": "uint256",
          "name": "assetId",
          "type": "uint256"
        },
        {
          "indexed": false,
          "internalType": "enum MediaRights.RightType",
          "name": "rightType",
          "type": "uint8"
        }
      ],
      "name": "RightsCreated",
      "type": "event"
    },
    {
      "anonymous": false,
      "inputs": [
        {
          "indexed": true,
          "internalType": "uint256",
          "name": "bundleId",
          "type": "uint256"
        },
        {
          "indexed": true,
          "internalType": "address",
          "name": "from",
          "type": "address"
        },
        {
          "indexed": true,
          "internalType": "address",
          "name": "to",
          "type": "address"
        }
      ],
      "name": "RightsTransferred",
      "type": "event"
    },
    {
      "inputs": [
        {
          "internalType": "uint256",
          "name": "",
          "type": "uint256"
        },
        {
          "internalType": "uint256",
          "name": "",
          "type": "uint256"
        }
      ],
      "name": "assetLicenses",
      "outputs": [
        {
          "internalType": "uint256",
          "name": "",
          "type": "uint256"
        }
      ],
      "stateMutability": "view",
      "type": "function"
    },
    {
      "inputs": [
        {
          "internalType": "uint256",
          "name": "",
          "type": "uint256"
        },
        {
          "internalType": "uint256",
          "name": "",
          "type": "uint256"
        }
      ],
      "name": "assetRights",
      "outputs": [
        {
          "internalType": "uint256",
          "name": "",
          "type": "uint256"
        }
      ],
      "stateMutability": "view",
      "type": "function"
    },
    {
      "inputs": [],
      "name": "bundleCount",
      "outputs": [
        {
          "internalType": "uint256",
          "name": "",
          "type": "uint256"
        }
      ],
      "stateMutability": "view",
      "type": "function"
    },
    {
      "inputs": [
        {
          "internalType": "uint256",
          "name": "mediaAssetId",
          "type": "uint256"
        },
        {
          "internalType": "enum MediaRights.RightType",
          "name": "rightType",
          "type": "uint8"
        },
        {
          "internalType": "uint256",
          "name": "percentage",
          "type": "uint256"
        },
        {
          "internalType": "string[]",
          "name": "territories",
          "type": "string[]"
        },
        {
          "internalType": "uint256",
          "name": "duration",
          "type": "uint256"
        },
        {
          "internalType": "bool",
          "name": "exclusive",
          "type": "bool"
        },
        {
          "internalType": "bool",
          "name": "transferable",
          "type": "bool"
        },
        {
          "internalType": "bool",
          "name": "sublicensable",
          "type": "bool"
        }
      ],
      "name": "createRightsBundle",
      "outputs": [
        {
          "internalType": "uint256",
          "name": "",
          "type": "uint256"
        }
      ],
      "stateMutability": "nonpayable",
      "type": "function"
    },
    {
      "inputs": [
        {
          "internalType": "uint256",
          "name": "assetId",
          "type": "uint256"
        }
      ],
      "name": "getAssetRights",
      "outputs": [
        {
          "internalType": "uint256[]",
          "name": "",
          "type": "uint256[]"
        }
      ],
      "stateMutability": "view",
      "type": "function"
    },
    {
      "inputs": [
        {
          "internalType": "uint256",
          "name": "licenseId",
          "type": "uint256"
        }
      ],
      "name": "getLicense",
      "outputs": [
        {
          "components": [
            {
              "internalType": "uint256",
              "name": "licenseId",
              "type": "uint256"
            },
            {
              "internalType": "uint256",
              "name": "bundleId",
              "type": "uint256"
            },
            {
              "internalType": "address",
              "name": "licensee",
              "type": "address"
            },
            {
              "internalType": "uint256",
              "name": "fee",
              "type": "uint256"
            },
            {
              "internalType": "uint256",
              "name": "startDate",
              "type": "uint256"
            },
            {
              "internalType": "uint256",
              "name": "endDate",
              "type": "uint256"
            },
            {
              "internalType": "string[]",
              "name": "allowedUses",
              "type": "string[]"
            },
            {
              "internalType": "bool",
              "name": "active",
              "type": "bool"
            }
          ],
          "internalType": "struct MediaRights.License",
          "name": "",
          "type": "tuple"
        }
      ],
      "stateMutability": "view",
      "type": "function"
    },
    {
      "inputs": [
        {
          "internalType": "uint256",
          "name": "bundleId",
          "type": "uint256"
        }
      ],
      "name": "getRightsBundle",
      "outputs": [
        {
          "components": [
            {
              "internalType": "uint256",
              "name": "bundleId",
              "type": "uint256"
            },
            {
              "internalType": "uint256",
              "name": "mediaAssetId",
              "type": "uint256"
            },
            {
              "internalType": "enum MediaRights.RightType",
              "name": "rightType",
              "type": "uint8"
            },
            {
              "internalType": "address",
              "name": "owner",
              "type": "address"
            },
            {
              "internalType": "uint256",
              "name": "percentage",
              "type": "uint256"
            },
            {
              "internalType": "string[]",
              "name": "territories",
              "type": "string[]"
            },
            {
              "internalType": "uint256",
              "name": "startDate",
              "type": "uint256"
            },
            {
              "internalType": "uint256",
              "name": "endDate",
              "type": "uint256"
            },
            {
              "internalType": "bool",
              "name": "exclusive",
              "type": "bool"
            },
            {
              "internalType": "bool",
              "name": "transferable",
              "type": "bool"
            },
            {
              "internalType": "bool",
              "name": "sublicensable",
              "type": "bool"
            }
          ],
          "internalType": "struct MediaRights.RightsBundle",
          "name": "",
          "type": "tuple"
        }
      ],
      "stateMutability": "view",
      "type": "function"
    },
    {
      "inputs": [
        {
          "internalType": "uint256",
          "name": "bundleId",
          "type": "uint256"
        },
        {
          "internalType": "address",
          "name": "licensee",
          "type": "address"
        },
        {
          "internalType": "uint256",
          "name": "fee",
          "type": "uint256"
        },
        {
          "internalType": "uint256",
          "name": "duration",
          "type": "uint256"
        },
        {
          "internalType": "string[]",
          "name": "allowedUses",
          "type": "string[]"
        }
      ],
      "name": "grantLicense",
      "outputs": [
        {
          "internalType": "uint256",
          "name": "",
          "type": "uint256"
        }
      ],
      "stateMutability": "payable",
      "type": "function"
    },
    {
      "inputs": [
        {
          "internalType": "uint256",
          "name": "licenseId",
          "type": "uint256"
        }
      ],
      "name": "isLicenseValid",
      "outputs": [
        {
          "internalType": "bool",
          "name": "",
          "type": "bool"
        }
      ],
      "stateMutability": "view",
      "type": "function"
    },
    {
      "inputs": [],
      "name": "licenseCount",
      "outputs": [
        {
          "internalType": "uint256",
          "name": "",
          "type": "uint256"
        }
      ],
      "stateMutability": "view",
      "type": "function"
    },
    {
      "inputs": [
        {
          "internalType": "uint256",
          "name": "",
          "type": "uint256"
        }
      ],
      "name": "licenses",
      "outputs": [
        {
          "internalType": "uint256",
          "name": "licenseId",
          "type": "uint256"
        },
        {
          "internalType": "uint256",
          "name": "bundleId",
          "type": "uint256"
        },
        {
          "internalType": "address",
          "name": "licensee",
          "type": "address"
        },
        {
          "internalType": "uint256",
          "name": "fee",
          "type": "uint256"
        },
        {
          "internalType": "uint256",
          "name": "startDate",
          "type": "uint256"
        },
        {
          "internalType": "uint256",
          "name": "endDate",
          "type": "uint256"
        },
        {
          "internalType": "bool",
          "name": "active",
          "type": "bool"
        }
      ],
      "stateMutability": "view",
      "type": "function"
    },
    {
      "inputs": [],
      "name": "owner",
      "outputs": [
        {
          "internalType": "address",
          "name": "",
          "type": "address"
        }
      ],
      "stateMutability": "view",
      "type": "function"
    },
    {
      "inputs": [
        {
          "internalType": "address",
          "name": "",
          "type": "address"
        },
        {
          "internalType": "uint256",
          "name": "",
          "type": "uint256"
        }
      ],
      "name": "ownerRights",
      "outputs": [
        {
          "internalType": "uint256",
          "name": "",
          "type": "uint256"
        }
      ],
      "stateMutability": "view",
      "type": "function"
    },
    {
      "inputs": [],
      "name": "renounceOwnership",
      "outputs": [],
      "stateMutability": "nonpayable",
      "type": "function"
    },
    {
      "inputs": [
        {
          "internalType": "uint256",
          "name": "licenseId",
          "type": "uint256"
        }
      ],
      "name": "revokeLicense",
      "outputs": [],
      "stateMutability": "nonpayable",
      "type": "function"
    },
    {
      "inputs": [
        {
          "internalType": "uint256",
          "name": "",
          "type": "uint256"
        }
      ],
      "name": "rightsBundles",
      "outputs": [
        {
          "internalType": "uint256",
          "name": "bundleId",
          "type": "uint256"
        },
        {
          "internalType": "uint256",
          "name": "mediaAssetId",
          "type": "uint256"
        },
        {
          "internalType": "enum MediaRights.RightType",
          "name": "rightType",
          "type": "uint8"
        },
        {
          "internalType": "address",
          "name": "owner",
          "type": "address"
        },
        {
          "internalType": "uint256",
          "name": "percentage",
          "type": "uint256"
        },
        {
          "internalType": "uint256",
          "name": "startDate",
          "type": "uint256"
        },
        {
          "internalType": "uint256",
          "name": "endDate",
          "type": "uint256"
        },
        {
          "internalType": "bool",
          "name": "exclusive",
          "type": "bool"
        },
        {
          "internalType": "bool",
          "name": "transferable",
          "type": "bool"
        },
        {
          "internalType": "bool",
          "name": "sublicensable",
          "type": "bool"
        }
      ],
      "stateMutability": "view",
      "type": "function"
    },
    {
      "inputs": [
        {
          "internalType": "address",
          "name": "newOwner",
          "type": "address"
        }
      ],
      "name": "transferOwnership",
      "outputs": [],
      "stateMutability": "nonpayable",
      "type": "function"
    },
    {
      "inputs": [
        {
          "internalType": "uint256",
          "name": "bundleId",
          "type": "uint256"
        },
        {
          "internalType": "address",
          "name": "newOwner",
          "type": "address"
        }
      ],
      "name": "transferRights",
      "outputs": [],
      "stateMutability": "nonpayable",
      "type": "function"
    }
  ],
  "bytecode": "0x6080806040523461007a5733156100645760008054336001600160a01b03198216811783556040519290916001600160a01b0316907f8be0079c531659141344cd1fd0a4f28419497f9722a3daafe3b4186f6b6457e09080a3611ad290816100808239f35b631e4fbdf760e01b815260006004820152602490fd5b600080fdfe608080604052600436101561001357600080fd5b60003560e01c9081631752e4511461138b575080632016550614610e925780632fbccc2714610e7457806331d75ec514610dce5780633379084514610d46578063439d4b5c14610c345780634ea078e314610730578063715018a6146106b257806372ba21e31461065d5780638da5cb5b146106295780639f7fc6d3146105dd578063a98e89341461043a578063b2dd121214610302578063cc03ac731461024b578063d2e368661461020c578063d5c19151146101ee578063ebb0bb7a146101ae5763f2fde38b146100e557600080fd5b346101a95760206003193601126101a9576100fe61160a565b6101066117f1565b73ffffffffffffffffffffffffffffffffffffffff80911690811561017857600054827fffffffffffffffffffffffff0000000000000000000000000000000000000000821617600055167f8be0079c531659141344cd1fd0a4f28419497f9722a3daafe3b4186f6b6457e0600080a3005b60246040517f1e4fbdf700000000000000000000000000000000000000000000000000000000815260006004820152fd5b600080fd5b346101a9576101bc366117db565b906000526003602052604060002080548210156101a9576020916101df91611794565b90549060031b1c604051908152f35b346101a95760006003193601126101a9576020600654604051908152f35b346101a95761021a366117db565b906000526004602052604060002080548210156101a95760209161023d91611794565b90546040519160031b1c8152f35b346101a95760206003193601126101a9576004356000526001602052610140604060002060ff8154916001810154906002810154600382015473ffffffffffffffffffffffffffffffffffffffff600584015492600760068601549501549560405198895260208901526102c460408901888316611552565b60081c166060870152608086015260a085015260c0840152818116151560e0840152818160081c16151561010084015260101c161515610120820152f35b346101a9576020806003193601126101a957600060e06040516103248161164a565b82815282848201528260408201528260608201528260808201528260a0820152606060c08201520152600435600052600281526040600020604051906103698261164a565b8054825260018101549083830191825273ffffffffffffffffffffffffffffffffffffffff8060028301541690604085019182526003830154606086019081526004840154916080870192835260058501549360a0880194855260ff60076103d3600689016119a1565b9760c08b019889520154169660e089019715158852604051998a99818b5251908a0152516040890152511660608701525160808601525160a08501525160c08401525161042e610100918260e086015261012085019061155f565b91511515908301520390f35b346101a95760406003193601126101a9576004356104566115e7565b816000526001602052604060002090600282019073ffffffffffffffffffffffffffffffffffffffff9182815460081c169333850361057f576007015460081c60ff16156105215780547fffffffffffffffffffffff0000000000000000000000000000000000000000ff16600883901b74ffffffffffffffffffffffffffffffffffffffff001617905516918260005260056020526104fa816040600020611903565b7f965375124fed6b8c101736599c5e83d1e452ece8b2cc183b71de348d915eeb08600080a4005b60646040517f08c379a000000000000000000000000000000000000000000000000000000000815260206004820152601060248201527f4e6f74207472616e7366657261626c65000000000000000000000000000000006044820152fd5b60646040517f08c379a000000000000000000000000000000000000000000000000000000000815260206004820152600960248201527f4e6f74206f776e657200000000000000000000000000000000000000000000006044820152fd5b346101a95760206003193601126101a95760043560005260026020526020604060002060ff600782015416908161061a575b506040519015158152f35b6005915001544211158261060f565b346101a95760006003193601126101a957602073ffffffffffffffffffffffffffffffffffffffff60005416604051908152f35b346101a95760406003193601126101a95761067661160a565b73ffffffffffffffffffffffffffffffffffffffff60243591166000526005602052604060002080548210156101a95760209161023d91611794565b346101a95760006003193601126101a9576106cb6117f1565b600073ffffffffffffffffffffffffffffffffffffffff81547fffffffffffffffffffffffff000000000000000000000000000000000000000081168355167f8be0079c531659141344cd1fd0a4f28419497f9722a3daafe3b4186f6b6457e08280a3005b346101a9576101006003193601126101a957600a60243510156101a95760643567ffffffffffffffff81116101a95761076d9036906004016116a2565b60a43580151581036101a95760c43580151581036101a95760e4359081151582036101a95761079d600654611842565b92836006556084358015600014610c25575060005b604051956107bf8761162d565b85875260043560208801526107d96024356040890161188d565b336060880152604435608088015260a08701524260c087015260e0860152151561010085015215156101208401521515610140830152806000526001602052604060002091805183556020810151600184015560028301604082015190600a821015610bf6576108ce9160ff7fffffffffffffffffffffffffffffffffffffffffffffffffffffffffffffff00835416911617815573ffffffffffffffffffffffffffffffffffffffff6060840151167fffffffffffffffffffffff0000000000000000000000000000000000000000ff74ffffffffffffffffffffffffffffffffffffffff0083549260081b169116179055565b6080810151600384015560a0810151805190680100000000000000008211610b4e576004850154826004870155808310610b7d575b5060200190600485016000526020600020916000905b828210610a30576020868660078a60c0830151600582015560e0830151600682015501906109796101008201511515839060ff7fffffffffffffffffffffffffffffffffffffffffffffffffffffffffffffff0083541691151516179055565b6101208101511515907fffffffffffffffffffffffffffffffffffffffffffffffffffffffffff0000ff61ff0062ff00006101408654940151151560101b169360081b16911617179055600435600052600382526109db816040600020611903565b33600052600582526109f1816040600020611903565b604051610a0081602435611552565b817f823792ab320e2b914a1db6a2f477334fedce5bd497a2c06e528c6b4a1b9115058460043593a3604051908152f35b805180519067ffffffffffffffff8211610b4e57610a4e8654611899565b90601f91828111610b14575b506020918311600114610aa4579282600194936020938695600092610a99575b505060001982861b9260031b1c19161787555b01940191019092610919565b015190508c80610a7a565b908660005260206000209160005b601f1985168110610afc5750836020936001969387969383601f1989961610610ae3575b505050811b018755610a8d565b015160001960f88460031b161c191690558c8080610ad6565b91926020600181928685015181550194019201610ab2565b610b3f90886000526020600020600585808801821c83019360208910610b45575b01901c01906118ec565b8a610a5a565b93508293610b35565b7f4e487b7100000000000000000000000000000000000000000000000000000000600052604160045260246000fd5b600486016000526020600020908382015b8183018110610b9e575050610903565b80610bab60019254611899565b80610bb8575b5001610b8e565b601f908181118414610bd1575050600081555b89610bb1565b610bed60009284845260208420920160051c82018583016118ec565b81835555610bcb565b7f4e487b7100000000000000000000000000000000000000000000000000000000600052602160045260246000fd5b610c2f9042611880565b6107b2565b346101a95760206003193601126101a9576004358060005260026020526007604060002060018101546000526001602052610c9173ffffffffffffffffffffffffffffffffffffffff60026040600020015460081c16331461193c565b01805460ff811615610ce8577fffffffffffffffffffffffffffffffffffffffffffffffffffffffffffffff001690557ff8ecc300d4504a2b49692052f138b7e697df679cf0580522720ce405bd01be55600080a2005b60646040517f08c379a000000000000000000000000000000000000000000000000000000000815260206004820152600f60248201527f416c7265616479207265766f6b656400000000000000000000000000000000006044820152fd5b346101a95760206003193601126101a957600435600052600260205260e0604060002080549060018101549073ffffffffffffffffffffffffffffffffffffffff600282015416600382015460048301549160ff600760058601549501541694604051968752602087015260408601526060850152608084015260a0830152151560c0820152f35b346101a9576020806003193601126101a95760043560005260038152604060002060405190818382549182815201908192600052846000209060005b86828210610e60578686610e2082880383611667565b604051928392818401908285525180915260408401929160005b828110610e4957505050500390f35b835185528695509381019392810192600101610e3a565b835485529093019260019283019201610e0a565b346101a95760006003193601126101a9576020600754604051908152f35b60a06003193601126101a957610ea66115e7565b60843567ffffffffffffffff81116101a957610ec69036906004016116a2565b9060043560005260016020526040600020610f00600282015473ffffffffffffffffffffffffffffffffffffffff339160081c161461193c565b60ff600782015460101c161561132d5760443534106112cf57610f24600754611842565b9283600755610f3560643542611880565b9060405190610f438261164a565b8582526004356020830152604082019273ffffffffffffffffffffffffffffffffffffffff86168452606083016044358152608084019042825260a0850192835260c08501938452600160e0860152886000526002602052604060002095855187556020860151600188015573ffffffffffffffffffffffffffffffffffffffff600288019151167fffffffffffffffffffffffff000000000000000000000000000000000000000082541617905551600386015551600485015551600584015551805190680100000000000000008211610b4e576006840154826006860155808310611256575b5060200190600684016000526020600020916000905b8282106111385750505050600073ffffffffffffffffffffffffffffffffffffffff600282956110a88496600760e087980151151591019060ff7fffffffffffffffffffffffffffffffffffffffffffffffffffffffffffffff0083541691151516179055565b6001810154845260046020526110c18960408620611903565b015460081c168190341561112e575b3491f1156111225760209173ffffffffffffffffffffffffffffffffffffffff6040519216600435827fc3488548591b23e36ab69f351a6ccd625e3cb6926a57eb53648c54563b8d7520600080a48152f35b6040513d6000823e3d90fd5b6108fc91506110d0565b805180519067ffffffffffffffff8211610b4e576111568654611899565b90601f9182811161121c575b5060209183116001146111ac5792826001949360209386956000926111a1575b505060001982861b9260031b1c19161787555b01940191019092611041565b015190508e80611182565b908660005260206000209160005b601f19851681106112045750836020936001969387969383601f19899616106111eb575b505050811b018755611195565b015160001960f88460031b161c191690558e80806111de565b919260206001819286850151815501940192016111ba565b611247908860005260206000208480870160051c8201926020881061124d575b0160051c01906118ec565b8c611162565b9250819261123c565b600685016000526020600020908382015b818301811061127757505061102b565b8061128460019254611899565b80611291575b5001611267565b601f9081811184146112aa575050600081555b8b61128a565b6112c660009284845260208420920160051c82018583016118ec565b818355556112a4565b60646040517f08c379a000000000000000000000000000000000000000000000000000000000815260206004820152601460248201527f496e73756666696369656e74207061796d656e740000000000000000000000006044820152fd5b60646040517f08c379a000000000000000000000000000000000000000000000000000000000815260206004820152601160248201527f4e6f74207375626c6963656e7361626c650000000000000000000000000000006044820152fd5b346101a95760206003193601126101a957610140816113ab60009361162d565b828152826020820152826040820152826060820152826080820152606060a08201528260c08201528260e0820152826101008201528261012082015201526004356000526001602052604060002060ff60076040519261140a8461162d565b805484526001810154602085015273ffffffffffffffffffffffffffffffffffffffff60028201546114418582166040880161188d565b60081c16606085015260038101546080850152611460600482016119a1565b60a0850152600581015460c0850152600681015460e085015201548181161515610100840152818160081c16151561012084015260101c16151561014082015260405180916020825280516020830152602081015160408301526114cc60408201516060840190611552565b73ffffffffffffffffffffffffffffffffffffffff6060820151166080830152608081015160a083015260a0810151610140611516610160928360c087015261018086019061155f565b9260c081015160e086015260e0810151610100860152610100810151151561012086015261012081015115158286015201511515908301520390f35b90600a821015610bf65752565b9081518082526020809201908192808260051b8401950193600080915b84831061158d575050505050505090565b909192939495968181038752848851805190818452855b8281106115d35750508083018201859052601f01601f191690910181019781019601949392600101919061157c565b8181018401518582018501528893016115a4565b6024359073ffffffffffffffffffffffffffffffffffffffff821682036101a957565b6004359073ffffffffffffffffffffffffffffffffffffffff821682036101a957565b610160810190811067ffffffffffffffff821117610b4e57604052565b610100810190811067ffffffffffffffff821117610b4e57604052565b90601f601f19910116810190811067ffffffffffffffff821117610b4e57604052565b67ffffffffffffffff8111610b4e5760051b60200190565b90601f8181840112156101a9578235926116bb8461168a565b936040926116cb84519687611667565b818652602094858088019360051b850101948186116101a957868501935b8685106116fb57505050505050505090565b67ffffffffffffffff9085358281116101a95787019084603f830112156101a9578982013592831161176657835161173b8b601f19898701160182611667565b838152858585850101116101a95760008b8581968883970183860137830101528152019401936116e9565b602460007f4e487b710000000000000000000000000000000000000000000000000000000081526041600452fd5b80548210156117ac5760005260206000200190600090565b7f4e487b7100000000000000000000000000000000000000000000000000000000600052603260045260246000fd5b60031960409101126101a9576004359060243590565b73ffffffffffffffffffffffffffffffffffffffff60005416330361181257565b60246040517f118cdaa7000000000000000000000000000000000000000000000000000000008152336004820152fd5b60001981146118515760010190565b7f4e487b7100000000000000000000000000000000000000000000000000000000600052601160045260246000fd5b9190820180921161185157565b600a821015610bf65752565b90600182811c921680156118e2575b60208310146118b357565b7f4e487b7100000000000000000000000000000000000000000000000000000000600052602260045260246000fd5b91607f16916118a8565b8181106118f7575050565b600081556001016118ec565b805468010000000000000000811015610b4e5761192591600182018155611794565b600019829392549160031b92831b921b1916179055565b1561194357565b60646040517f08c379a000000000000000000000000000000000000000000000000000000000815260206004820152601060248201527f4e6f7420726967687473206f776e6572000000000000000000000000000000006044820152fd5b908154916119ae8361168a565b926040916119be83519586611667565b81855260009081526020808220938291908188015b8584106119e35750505050505050565b81518386928954926119f484611899565b808252600194808616908115611a625750600114611a2a575b50611a1c816001960382611667565b8152019701930192956119d3565b8b8a52838a20955089905b808210611a4b5750810183019450611a1c611a0d565b865483830186015295850195889490910190611a35565b7fffffffffffffffffffffffffffffffffffffffffffffffffffffffffffffff00168584015250151560051b810183019450611a1c611a0d56fea2646970667358221220e1a6bc1197016dc281e1c168b2a2bd663c6fe75b40281bed76579e645d48c34d64736f6c63430008140033",
  "linkReferences": {},
  "deployedLinkReferences": {}
}