{
  "_format": "hh-sol-artifact-1",
  "contractName": "CrossWorldIdentity",
  "sourceName": "contracts/layer3/identity/CrossWorldIdentity.sol",
  "abi": [
    {
      "inputs": [],
      "stateMutability": "nonpayable",
      "type": "constructor"
    },
    {
      "inputs": [
        {
          "internalType": "address",
          "name": "owner",
          "type": "address"
        }
      ],
      "name": "OwnableInvalidOwner",
      "type": "error"
    },
    {
      "inputs": [
        {
          "internalType": "address",
          "name": "account",
          "type": "address"
        }
      ],
      "name": "OwnableUnauthorizedAccount",
      "type": "error"
    },
    {
      "anonymous": false,
      "inputs": [
        {
          "indexed": true,
          "internalType": "uint256",
          "name": "identityId",
          "type": "uint256"
        },
        {
          "indexed": true,
          "internalType": "uint256",
          "name": "worldId",
          "type": "uint256"
        }
      ],
      "name": "IdentityLinked",
      "type": "event"
    },
    {
      "anonymous": false,
      "inputs": [
        {
          "indexed": true,
          "internalType": "uint256",
          "name": "identityId",
          "type": "uint256"
        }
      ],
      "name": "IdentityVerified",
      "type": "event"
    },
    {
      "anonymous": false,
      "inputs": [
        {
          "indexed": true,
          "internalType": "address",
          "name": "previousOwner",
          "type": "address"
        },
        {
          "indexed": true,
          "internalType": "address",
          "name": "newOwner",
          "type": "address"
        }
      ],
      "name": "OwnershipTransferred",
      "type": "event"
    },
    {
      "anonymous": false,
      "inputs": [
        {
          "indexed": true,
          "internalType": "uint256",
          "name": "identityId",
          "type": "uint256"
        },
        {
          "indexed": false,
          "internalType": "uint256",
          "name": "fromWorld",
          "type": "uint256"
        },
        {
          "indexed": false,
          "internalType": "uint256",
          "name": "toWorld",
          "type": "uint256"
        }
      ],
      "name": "ReputationTransferred",
      "type": "event"
    },
    {
      "inputs": [
        {
          "internalType": "uint256",
          "name": "identityId",
          "type": "uint256"
        },
        {
          "internalType": "address",
          "name": "owner",
          "type": "address"
        }
      ],
      "name": "createUniversalIdentity",
      "outputs": [],
      "stateMutability": "nonpayable",
      "type": "function"
    },
    {
      "inputs": [
        {
          "internalType": "uint256",
          "name": "identityId",
          "type": "uint256"
        }
      ],
      "name": "getUniversalProfile",
      "outputs": [
        {
          "components": [
            {
              "internalType": "uint256",
              "name": "identityId",
              "type": "uint256"
            },
            {
              "internalType": "address",
              "name": "owner",
              "type": "address"
            },
            {
              "internalType": "uint256[]",
              "name": "linkedWorlds",
              "type": "uint256[]"
            },
            {
              "internalType": "uint256",
              "name": "totalReputation",
              "type": "uint256"
            },
            {
              "internalType": "uint256",
              "name": "totalAchievements",
              "type": "uint256"
            },
            {
              "internalType": "bytes32",
              "name": "identityHash",
              "type": "bytes32"
            },
            {
              "internalType": "bool",
              "name": "isVerified",
              "type": "bool"
            },
            {
              "internalType": "uint256",
              "name": "createdAt",
              "type": "uint256"
            }
          ],
          "internalType": "struct CrossWorldIdentity.UniversalIdentity",
          "name": "",
          "type": "tuple"
        }
      ],
      "stateMutability": "view",
      "type": "function"
    },
    {
      "inputs": [
        {
          "internalType": "uint256",
          "name": "identityId",
          "type": "uint256"
        },
        {
          "internalType": "uint256",
          "name": "worldId",
          "type": "uint256"
        },
        {
          "internalType": "uint256",
          "name": "entityId",
          "type": "uint256"
        },
        {
          "internalType": "uint256",
          "name": "reputation",
          "type": "uint256"
        }
      ],
      "name": "linkWorld",
      "outputs": [],
      "stateMutability": "nonpayable",
      "type": "function"
    },
    {
      "inputs": [],
      "name": "owner",
      "outputs": [
        {
          "internalType": "address",
          "name": "",
          "type": "address"
        }
      ],
      "stateMutability": "view",
      "type": "function"
    },
    {
      "inputs": [],
      "name": "renounceOwnership",
      "outputs": [],
      "stateMutability": "nonpayable",
      "type": "function"
    },
    {
      "inputs": [
        {
          "internalType": "address",
          "name": "newOwner",
          "type": "address"
        }
      ],
      "name": "transferOwnership",
      "outputs": [],
      "stateMutability": "nonpayable",
      "type": "function"
    },
    {
      "inputs": [
        {
          "internalType": "uint256",
          "name": "identityId",
          "type": "uint256"
        },
        {
          "internalType": "uint256",
          "name": "fromWorldId",
          "type": "uint256"
        },
        {
          "internalType": "uint256",
          "name": "toWorldId",
          "type": "uint256"
        },
        {
          "internalType": "uint256",
          "name": "amount",
          "type": "uint256"
        }
      ],
      "name": "transferReputation",
      "outputs": [],
      "stateMutability": "nonpayable",
      "type": "function"
    },
    {
      "inputs": [
        {
          "internalType": "uint256",
          "name": "",
          "type": "uint256"
        }
      ],
      "name": "universalIdentities",
      "outputs": [
        {
          "internalType": "uint256",
          "name": "identityId",
          "type": "uint256"
        },
        {
          "internalType": "address",
          "name": "owner",
          "type": "address"
        },
        {
          "internalType": "uint256",
          "name": "totalReputation",
          "type": "uint256"
        },
        {
          "internalType": "uint256",
          "name": "totalAchievements",
          "type": "uint256"
        },
        {
          "internalType": "bytes32",
          "name": "identityHash",
          "type": "bytes32"
        },
        {
          "internalType": "bool",
          "name": "isVerified",
          "type": "bool"
        },
        {
          "internalType": "uint256",
          "name": "createdAt",
          "type": "uint256"
        }
      ],
      "stateMutability": "view",
      "type": "function"
    },
    {
      "inputs": [
        {
          "internalType": "bytes32",
          "name": "",
          "type": "bytes32"
        }
      ],
      "name": "verifiedIdentities",
      "outputs": [
        {
          "internalType": "bool",
          "name": "",
          "type": "bool"
        }
      ],
      "stateMutability": "view",
      "type": "function"
    },
    {
      "inputs": [
        {
          "internalType": "uint256",
          "name": "identityId",
          "type": "uint256"
        }
      ],
      "name": "verifyIdentity",
      "outputs": [],
      "stateMutability": "nonpayable",
      "type": "function"
    },
    {
      "inputs": [
        {
          "internalType": "uint256",
          "name": "",
          "type": "uint256"
        },
        {
          "internalType": "uint256",
          "name": "",
          "type": "uint256"
        }
      ],
      "name": "worldLinks",
      "outputs": [
        {
          "internalType": "uint256",
          "name": "worldId",
          "type": "uint256"
        },
        {
          "internalType": "uint256",
          "name": "entityId",
          "type": "uint256"
        },
        {
          "internalType": "uint256",
          "name": "reputation",
          "type": "uint256"
        },
        {
          "internalType": "uint256",
          "name": "achievements",
          "type": "uint256"
        },
        {
          "internalType": "bool",
          "name": "isActive",
          "type": "bool"
        },
        {
          "internalType": "uint256",
          "name": "linkedAt",
          "type": "uint256"
        }
      ],
      "stateMutability": "view",
      "type": "function"
    }
  ],
  "bytecode": "0x608060405234801561001057600080fd5b50338061003757604051631e4fbdf760e01b81526000600482015260240160405180910390fd5b61004081610046565b50610096565b600080546001600160a01b038381166001600160a01b0319831681178455604051919092169283917f8be0079c531659141344cd1fd0a4f28419497f9722a3daafe3b4186f6b6457e09190a35050565b610aa8806100a56000396000f3fe608060405234801561001057600080fd5b50600436106100a95760003560e01c8063babb55c511610071578063babb55c5146101b7578063bb45beaa146101ca578063e193c362146101dd578063ec1aaa1c146101f0578063f2fde38b14610210578063fc87c3471461022357600080fd5b80633cec374c146100ae578063715018a61461014c57806373f54d4a146101565780638da5cb5b14610169578063a88e50f414610184575b600080fd5b6101086100bc3660046108a7565b600160208190526000918252604090912080549181015460038201546004830154600584015460068501546007909501546001600160a01b039094169492939192909160ff9091169087565b604080519788526001600160a01b0390961660208801529486019390935260608501919091526080840152151560a083015260c082015260e0015b60405180910390f35b6101546102a2565b005b6101546101643660046108c0565b6102b6565b6000546040516001600160a01b039091168152602001610143565b6101a76101923660046108a7565b60036020526000908152604090205460ff1681565b6040519015158152602001610143565b6101546101c53660046108a7565b610386565b6101546101d83660046108c0565b610403565b6101546101eb36600461090e565b61050e565b6102036101fe3660046108a7565b61066f565b604051610143919061093a565b61015461021e3660046109ec565b610787565b610273610231366004610a0e565b600260208181526000938452604080852090915291835291208054600182015492820154600383015460048401546005909401549294939192909160ff169086565b6040805196875260208701959095529385019290925260608401521515608083015260a082015260c001610143565b6102aa6107ca565b6102b460006107f7565b565b6000848152600160208190526040909120908101546001600160a01b031633146102df57600080fd5b600085815260026020818152604080842088855290915280832086845292209082015484111561030e57600080fd5b838260020160008282546103229190610a46565b925050819055508381600201600082825461033d9190610a5f565b9091555050604080518781526020810187905288917f3b5ae1510f25b8f60f882304ba5c656b64d82096edfbcd2df36ed455d9eb2746910160405180910390a250505050505050565b60008181526001602052604090206002810154600311156103a657600080fd5b600681018054600160ff19918216811790925560058301546000908152600360205260408082208054909316909317909155905183917f6a89b5921df9fa29bf2a70d124ca8ab8f3eb71fdf721459c9b6ac91171a0871491a25050565b6000848152600160208190526040909120908101546001600160a01b0316331461042c57600080fd5b6040805160c08101825285815260208082018681528284018681526000606085018181526001608087018181524260a089019081528e855260028089528a86208f87528952998520985189559551888301559351878901559051600380880191909155925160048701805460ff191691151591909117905592516005909501949094559385018054918201815583529082200186905590820180548492906104d5908490610a5f565b9091555050604051849086907fdf0a29d9c069f04972c944496a371ccfe5a99c5f0353f8c9ad15110bd64dabb890600090a35050505050565b6000828152600160205260409020541561052757600080fd5b60408051610100810182528381526001600160a01b03831660208201529081016000604051908082528060200260200182016040528015610572578160200160208202803683370190505b508152602001600081526020016000815260200183836040516020016105b492919091825260601b6bffffffffffffffffffffffff1916602082015260340190565b60408051808303601f190181529181528151602092830120835260008383018190524293820193909352858352600180835292819020845181558483015193810180546001600160a01b0319166001600160a01b039095169490941790935583015180516106289260028501920190610847565b50606082015160038201556080820151600482015560a0820151600582015560c082015160068201805460ff191691151591909117905560e0909101516007909101555050565b6106c56040518061010001604052806000815260200160006001600160a01b0316815260200160608152602001600081526020016000815260200160008019168152602001600015158152602001600081525090565b60008281526001602081815260409283902083516101008101855281548152928101546001600160a01b0316838301526002810180548551818502810185018752818152949592949286019383018282801561074057602002820191906000526020600020905b81548152602001906001019080831161072c575b5050509183525050600382015460208201526004820154604082015260058201546060820152600682015460ff161515608082015260079091015460a09091015292915050565b61078f6107ca565b6001600160a01b0381166107be57604051631e4fbdf760e01b8152600060048201526024015b60405180910390fd5b6107c7816107f7565b50565b6000546001600160a01b031633146102b45760405163118cdaa760e01b81523360048201526024016107b5565b600080546001600160a01b038381166001600160a01b0319831681178455604051919092169283917f8be0079c531659141344cd1fd0a4f28419497f9722a3daafe3b4186f6b6457e09190a35050565b828054828255906000526020600020908101928215610882579160200282015b82811115610882578251825591602001919060010190610867565b5061088e929150610892565b5090565b5b8082111561088e5760008155600101610893565b6000602082840312156108b957600080fd5b5035919050565b600080600080608085870312156108d657600080fd5b5050823594602084013594506040840135936060013592509050565b80356001600160a01b038116811461090957600080fd5b919050565b6000806040838503121561092157600080fd5b82359150610931602084016108f2565b90509250929050565b6020808252825182820152828101516001600160a01b031660408084019190915283015161010060608401819052815161012085018190526000939283019184916101408701905b808410156109a25784518252938501936001939093019290850190610982565b5060608801516080880152608088015160a088015260a088015160c088015260c088015194506109d660e088018615159052565b60e0979097015195019490945250929392505050565b6000602082840312156109fe57600080fd5b610a07826108f2565b9392505050565b60008060408385031215610a2157600080fd5b50508035926020909101359150565b634e487b7160e01b600052601160045260246000fd5b81810381811115610a5957610a59610a30565b92915050565b80820180821115610a5957610a59610a3056fea2646970667358221220cc89032340652da35334c8e6257630470bc769ca9884302545625f8232fed7e564736f6c63430008140033",
  "linkReferences": {},
  "deployedLinkReferences": {}
}