{
  "_format": "hh-sol-artifact-1",
  "contractName": "RevenueDistribution",
  "sourceName": "contracts/economy/RevenueDistribution.sol",
  "abi": [
    {
      "inputs": [],
      "stateMutability": "nonpayable",
      "type": "constructor"
    },
    {
      "inputs": [],
      "name": "AccessControlBadConfirmation",
      "type": "error"
    },
    {
      "inputs": [
        {
          "internalType": "address",
          "name": "account",
          "type": "address"
        },
        {
          "internalType": "bytes32",
          "name": "neededRole",
          "type": "bytes32"
        }
      ],
      "name": "AccessControlUnauthorizedAccount",
      "type": "error"
    },
    {
      "inputs": [],
      "name": "ReentrancyGuardReentrantCall",
      "type": "error"
    },
    {
      "anonymous": false,
      "inputs": [
        {
          "indexed": false,
          "internalType": "uint256",
          "name": "stakers",
          "type": "uint256"
        },
        {
          "indexed": false,
          "internalType": "uint256",
          "name": "treasury",
          "type": "uint256"
        },
        {
          "indexed": false,
          "internalType": "uint256",
          "name": "creators",
          "type": "uint256"
        },
        {
          "indexed": false,
          "internalType": "uint256",
          "name": "burn",
          "type": "uint256"
        }
      ],
      "name": "AllocationUpdated",
      "type": "event"
    },
    {
      "anonymous": false,
      "inputs": [
        {
          "indexed": false,
          "internalType": "uint256",
          "name": "amount",
          "type": "uint256"
        },
        {
          "indexed": false,
          "internalType": "uint256",
          "name": "timestamp",
          "type": "uint256"
        }
      ],
      "name": "RevenueDistributed",
      "type": "event"
    },
    {
      "anonymous": false,
      "inputs": [
        {
          "indexed": true,
          "internalType": "address",
          "name": "from",
          "type": "address"
        },
        {
          "indexed": false,
          "internalType": "uint256",
          "name": "amount",
          "type": "uint256"
        }
      ],
      "name": "RevenueReceived",
      "type": "event"
    },
    {
      "anonymous": false,
      "inputs": [
        {
          "indexed": true,
          "internalType": "bytes32",
          "name": "role",
          "type": "bytes32"
        },
        {
          "indexed": true,
          "internalType": "bytes32",
          "name": "previousAdminRole",
          "type": "bytes32"
        },
        {
          "indexed": true,
          "internalType": "bytes32",
          "name": "newAdminRole",
          "type": "bytes32"
        }
      ],
      "name": "RoleAdminChanged",
      "type": "event"
    },
    {
      "anonymous": false,
      "inputs": [
        {
          "indexed": true,
          "internalType": "bytes32",
          "name": "role",
          "type": "bytes32"
        },
        {
          "indexed": true,
          "internalType": "address",
          "name": "account",
          "type": "address"
        },
        {
          "indexed": true,
          "internalType": "address",
          "name": "sender",
          "type": "address"
        }
      ],
      "name": "RoleGranted",
      "type": "event"
    },
    {
      "anonymous": false,
      "inputs": [
        {
          "indexed": true,
          "internalType": "bytes32",
          "name": "role",
          "type": "bytes32"
        },
        {
          "indexed": true,
          "internalType": "address",
          "name": "account",
          "type": "address"
        },
        {
          "indexed": true,
          "internalType": "address",
          "name": "sender",
          "type": "address"
        }
      ],
      "name": "RoleRevoked",
      "type": "event"
    },
    {
      "anonymous": false,
      "inputs": [
        {
          "indexed": true,
          "internalType": "address",
          "name": "recipient",
          "type": "address"
        },
        {
          "indexed": false,
          "internalType": "uint256",
          "name": "amount",
          "type": "uint256"
        }
      ],
      "name": "ShareClaimed",
      "type": "event"
    },
    {
      "inputs": [],
      "name": "BASIS_POINTS",
      "outputs": [
        {
          "internalType": "uint256",
          "name": "",
          "type": "uint256"
        }
      ],
      "stateMutability": "view",
      "type": "function"
    },
    {
      "inputs": [],
      "name": "DEFAULT_ADMIN_ROLE",
      "outputs": [
        {
          "internalType": "bytes32",
          "name": "",
          "type": "bytes32"
        }
      ],
      "stateMutability": "view",
      "type": "function"
    },
    {
      "inputs": [],
      "name": "DISTRIBUTOR_ROLE",
      "outputs": [
        {
          "internalType": "bytes32",
          "name": "",
          "type": "bytes32"
        }
      ],
      "stateMutability": "view",
      "type": "function"
    },
    {
      "inputs": [
        {
          "internalType": "address",
          "name": "recipient",
          "type": "address"
        },
        {
          "internalType": "uint256",
          "name": "percentage",
          "type": "uint256"
        }
      ],
      "name": "addRecipient",
      "outputs": [],
      "stateMutability": "nonpayable",
      "type": "function"
    },
    {
      "inputs": [],
      "name": "burnShare",
      "outputs": [
        {
          "internalType": "uint256",
          "name": "",
          "type": "uint256"
        }
      ],
      "stateMutability": "view",
      "type": "function"
    },
    {
      "inputs": [],
      "name": "creatorShare",
      "outputs": [
        {
          "internalType": "uint256",
          "name": "",
          "type": "uint256"
        }
      ],
      "stateMutability": "view",
      "type": "function"
    },
    {
      "inputs": [],
      "name": "distributeRevenue",
      "outputs": [],
      "stateMutability": "nonpayable",
      "type": "function"
    },
    {
      "inputs": [],
      "name": "getBalance",
      "outputs": [
        {
          "internalType": "uint256",
          "name": "",
          "type": "uint256"
        }
      ],
      "stateMutability": "view",
      "type": "function"
    },
    {
      "inputs": [
        {
          "internalType": "address",
          "name": "recipient",
          "type": "address"
        }
      ],
      "name": "getRecipientShare",
      "outputs": [
        {
          "components": [
            {
              "internalType": "address",
              "name": "recipient",
              "type": "address"
            },
            {
              "internalType": "uint256",
              "name": "percentage",
              "type": "uint256"
            },
            {
              "internalType": "uint256",
              "name": "totalReceived",
              "type": "uint256"
            },
            {
              "internalType": "uint256",
              "name": "lastClaim",
              "type": "uint256"
            }
          ],
          "internalType": "struct RevenueDistribution.RevenueShare",
          "name": "",
          "type": "tuple"
        }
      ],
      "stateMutability": "view",
      "type": "function"
    },
    {
      "inputs": [
        {
          "internalType": "bytes32",
          "name": "role",
          "type": "bytes32"
        }
      ],
      "name": "getRoleAdmin",
      "outputs": [
        {
          "internalType": "bytes32",
          "name": "",
          "type": "bytes32"
        }
      ],
      "stateMutability": "view",
      "type": "function"
    },
    {
      "inputs": [
        {
          "internalType": "bytes32",
          "name": "role",
          "type": "bytes32"
        },
        {
          "internalType": "address",
          "name": "account",
          "type": "address"
        }
      ],
      "name": "grantRole",
      "outputs": [],
      "stateMutability": "nonpayable",
      "type": "function"
    },
    {
      "inputs": [
        {
          "internalType": "bytes32",
          "name": "role",
          "type": "bytes32"
        },
        {
          "internalType": "address",
          "name": "account",
          "type": "address"
        }
      ],
      "name": "hasRole",
      "outputs": [
        {
          "internalType": "bool",
          "name": "",
          "type": "bool"
        }
      ],
      "stateMutability": "view",
      "type": "function"
    },
    {
      "inputs": [
        {
          "internalType": "uint256",
          "name": "",
          "type": "uint256"
        }
      ],
      "name": "recipients",
      "outputs": [
        {
          "internalType": "address",
          "name": "",
          "type": "address"
        }
      ],
      "stateMutability": "view",
      "type": "function"
    },
    {
      "inputs": [
        {
          "internalType": "bytes32",
          "name": "role",
          "type": "bytes32"
        },
        {
          "internalType": "address",
          "name": "callerConfirmation",
          "type": "address"
        }
      ],
      "name": "renounceRole",
      "outputs": [],
      "stateMutability": "nonpayable",
      "type": "function"
    },
    {
      "inputs": [
        {
          "internalType": "bytes32",
          "name": "role",
          "type": "bytes32"
        },
        {
          "internalType": "address",
          "name": "account",
          "type": "address"
        }
      ],
      "name": "revokeRole",
      "outputs": [],
      "stateMutability": "nonpayable",
      "type": "function"
    },
    {
      "inputs": [
        {
          "internalType": "address",
          "name": "",
          "type": "address"
        }
      ],
      "name": "shares",
      "outputs": [
        {
          "internalType": "address",
          "name": "recipient",
          "type": "address"
        },
        {
          "internalType": "uint256",
          "name": "percentage",
          "type": "uint256"
        },
        {
          "internalType": "uint256",
          "name": "totalReceived",
          "type": "uint256"
        },
        {
          "internalType": "uint256",
          "name": "lastClaim",
          "type": "uint256"
        }
      ],
      "stateMutability": "view",
      "type": "function"
    },
    {
      "inputs": [],
      "name": "stakersShare",
      "outputs": [
        {
          "internalType": "uint256",
          "name": "",
          "type": "uint256"
        }
      ],
      "stateMutability": "view",
      "type": "function"
    },
    {
      "inputs": [
        {
          "internalType": "bytes4",
          "name": "interfaceId",
          "type": "bytes4"
        }
      ],
      "name": "supportsInterface",
      "outputs": [
        {
          "internalType": "bool",
          "name": "",
          "type": "bool"
        }
      ],
      "stateMutability": "view",
      "type": "function"
    },
    {
      "inputs": [],
      "name": "totalDistributed",
      "outputs": [
        {
          "internalType": "uint256",
          "name": "",
          "type": "uint256"
        }
      ],
      "stateMutability": "view",
      "type": "function"
    },
    {
      "inputs": [],
      "name": "treasuryShare",
      "outputs": [
        {
          "internalType": "uint256",
          "name": "",
          "type": "uint256"
        }
      ],
      "stateMutability": "view",
      "type": "function"
    },
    {
      "inputs": [
        {
          "internalType": "uint256",
          "name": "_stakersShare",
          "type": "uint256"
        },
        {
          "internalType": "uint256",
          "name": "_treasuryShare",
          "type": "uint256"
        },
        {
          "internalType": "uint256",
          "name": "_creatorShare",
          "type": "uint256"
        },
        {
          "internalType": "uint256",
          "name": "_burnShare",
          "type": "uint256"
        }
      ],
      "name": "updateAllocation",
      "outputs": [],
      "stateMutability": "nonpayable",
      "type": "function"
    },
    {
      "stateMutability": "payable",
      "type": "receive"
    }
  ],
  "bytecode": "0x6080604052346100485760018055610fa0600555610bb86006556107d06007556103e860085561002e3361004d565b50610038336100cb565b50604051610e96908161016c8239f35b600080fd5b6001600160a01b031660008181527fad3228b676f7d3cd4284a5443f17f1962b36e491b30a40b2405849e597ba5fb5602052604081205490919060ff166100c757818052816020526040822081835260205260408220600160ff1982541617905533916000805160206110028339815191528180a4600190565b5090565b6001600160a01b031660008181527f37775adb12013835ce20d78b1c52193dd1da3dc792bc1ec9a2d7427221516c8a60205260408120549091907ffbd454f36a7e1a388bd6fc3ab10d434aa4578f811acbbcf33afb1c697486313c9060ff1661016657808352826020526040832082845260205260408320600160ff19825416179055600080516020611002833981519152339380a4600190565b50509056fe608060409080825260048036101561004b575b5050361561001f57600080fd5b513481527f10221063d064b7f08df50a7b688426682343e6067582ebc0802467b91b9ac74160203392a2005b600091823560e01c90816301ffc9a714610a905750806305bf0a5414610a7157806312065fe014610a5657806315011d8914610a37578063248a9ca314610a0c578063251c6ab3146109ed5780632d07953a146107515780632f2ff15d1461072857806336568abe146106bc578063746f1701146106155780637796ff37146105f657806391d14854146105a3578063a217fddf14610588578063b79dd1c214610495578063ce7c2ac21461042b578063d1bc76a1146103d8578063d547741f1461039a578063e1f1c4a71461037d578063efca2eed1461035e578063f0bd87cc1461031f5763f79822430361001257823461031b578060031936011261031b57610154610b57565b9161015d610be0565b73ffffffffffffffffffffffffffffffffffffffff8093169182156102be57828552600260205260018186200154610261576003610199610e11565b9184835260208301602435815281840190888252876060860193428552888b5260026020528a209551167fffffffffffffffffffffffff000000000000000000000000000000000000000086541617855551600185015551600284015551910155600354906801000000000000000082101561023557508060016102209201600355610b7a565b909283549160031b92831b921b191617905580f35b8460416024927f4e487b7100000000000000000000000000000000000000000000000000000000835252fd5b90602060649251917f08c379a0000000000000000000000000000000000000000000000000000000008352820152600e60248201527f416c7265616479206578697374730000000000000000000000000000000000006044820152fd5b90602060649251917f08c379a0000000000000000000000000000000000000000000000000000000008352820152600f60248201527f496e76616c6964206164647265737300000000000000000000000000000000006044820152fd5b8280fd5b82843461035a578160031936011261035a57602090517ffbd454f36a7e1a388bd6fc3ab10d434aa4578f811acbbcf33afb1c697486313c8152f35b5080fd5b5082903461031b578260031936011261031b5760209250549051908152f35b82843461035a578160031936011261035a57602090516127108152f35b50823461031b578060031936011261031b576103d491356103cf60016103be610b2f565b938387528660205286200154610c51565b610d21565b5080f35b5082903461031b57602060031936011261031b573591600354831015610428575073ffffffffffffffffffffffffffffffffffffffff610419602093610b7a565b90549060031b1c169051908152f35b80fd5b82843461035a57602060031936011261035a57908160809273ffffffffffffffffffffffffffffffffffffffff9283610462610b57565b16815260026020522091825416916001810154916003600283015492015492815194855260208501528301526060820152f35b503461035a57608060031936011261035a5780359060243560443590606435926104bd610be0565b6127106104d7856104d2866104d2878b610e04565b610e04565b0361052b5750918391866080947f2aee75084665eb680a4dd0db9edb242c0c4d7ded1aa2c77572e6616fa8c6e28596600555806006558260075583600855815194855260208501528301526060820152a180f35b60649060208851917f08c379a0000000000000000000000000000000000000000000000000000000008352820152600f60248201527f4d75737420746f74616c203130302500000000000000000000000000000000006044820152fd5b82843461035a578160031936011261035a5751908152602090f35b5082903461031b578160031936011261031b578160209360ff926105c5610b2f565b9035825281865273ffffffffffffffffffffffffffffffffffffffff83832091168252855220541690519015158152f35b82843461035a578160031936011261035a576020906006549051908152f35b82843461035a57602060031936011261035a5760809181610634610b57565b91806060610640610e11565b8281528260208201528285820152015273ffffffffffffffffffffffffffffffffffffffff809316815260026020522091610679610e11565b9183541692838352600181015460208401908152606060036002840154938587019485520154940193845282519485525160208501525190830152516060820152f35b50913461035a578060031936011261035a576106d6610b2f565b903373ffffffffffffffffffffffffffffffffffffffff83160361070057506103d4919235610d21565b8390517f6697b232000000000000000000000000000000000000000000000000000000008152fd5b50823461031b578060031936011261031b576103d4913561074c60016103be610b2f565b610c77565b50913461035a578160031936011261035a577ffbd454f36a7e1a388bd6fc3ab10d434aa4578f811acbbcf33afb1c697486313c90818352602091838352818420338552835260ff8285205416156109b7575060026001928184541461098f5781845547918215610933576107c760055484610dc2565b506107d460065484610dc2565b506107e160075484610dc2565b506107ee60085484610dc2565b5085855b61083a575b505085610828837ff2838e4b541f90d41a1076a560d75e948f7d1008e72118a655568626a30b451f96979854610e04565b905582519182524290820152a1805580f35b6003805482101561092d5773ffffffffffffffffffffffffffffffffffffffff889161086584610b7a565b9054911b1c16808252838552838783208981015490816108e0575b50505050507fffffffffffffffffffffffffffffffffffffffffffffffffffffffffffffffff81146108b4578501856107f2565b60248760118a7f4e487b7100000000000000000000000000000000000000000000000000000000835252fd5b849384936127106108f286958d610dc2565b049201610900838254610e04565b9055828215610924575bf11561091a578638838180610880565b84513d88823e3d90fd5b506108fc61090a565b506107f7565b606487838651917f08c379a0000000000000000000000000000000000000000000000000000000008352820152601860248201527f4e6f20726576656e756520746f206469737472696275746500000000000000006044820152fd5b8583517f3ee5aeb5000000000000000000000000000000000000000000000000000000008152fd5b849060449251917fe2517d3f00000000000000000000000000000000000000000000000000000000835233908301526024820152fd5b82843461035a578160031936011261035a576020906007549051908152f35b5082903461031b57602060031936011261031b57816020936001923581528085522001549051908152f35b82843461035a578160031936011261035a576020906005549051908152f35b82843461035a578160031936011261035a5751478152602090f35b82843461035a578160031936011261035a576020906008549051908152f35b9190503461031b57602060031936011261031b57357fffffffff00000000000000000000000000000000000000000000000000000000811680910361031b57602092507f7965db0b000000000000000000000000000000000000000000000000000000008114908115610b05575b5015158152f35b7f01ffc9a70000000000000000000000000000000000000000000000000000000091501483610afe565b6024359073ffffffffffffffffffffffffffffffffffffffff82168203610b5257565b600080fd5b6004359073ffffffffffffffffffffffffffffffffffffffff82168203610b5257565b600354811015610bb15760036000527fc2575a0e9e593c00f959f8c92f12db2869c3395a3b0502d05e2516446f71f85b0190600090565b7f4e487b7100000000000000000000000000000000000000000000000000000000600052603260045260246000fd5b3360009081527fad3228b676f7d3cd4284a5443f17f1962b36e491b30a40b2405849e597ba5fb5602052604081205460ff1615610c1a5750565b604490604051907fe2517d3f0000000000000000000000000000000000000000000000000000000082523360048301526024820152fd5b80600052600060205260406000203360005260205260ff6040600020541615610c1a5750565b906000918083528260205273ffffffffffffffffffffffffffffffffffffffff6040842092169182845260205260ff60408420541615600014610d1c5780835282602052604083208284526020526040832060017fffffffffffffffffffffffffffffffffffffffffffffffffffffffffffffff008254161790557f2f8788117e7eff1d82e926ec794901d17c78024a50270940304540a733656f0d339380a4600190565b505090565b906000918083528260205273ffffffffffffffffffffffffffffffffffffffff6040842092169182845260205260ff604084205416600014610d1c578083528260205260408320828452602052604083207fffffffffffffffffffffffffffffffffffffffffffffffffffffffffffffff0081541690557ff6391f5c32d9c69d2a47ea670b442974b53935d1edc7fd64eb21e047a839171b339380a4600190565b81810292918115918404141715610dd557565b7f4e487b7100000000000000000000000000000000000000000000000000000000600052601160045260246000fd5b91908201809211610dd557565b604051906080820182811067ffffffffffffffff821117610e3157604052565b7f4e487b7100000000000000000000000000000000000000000000000000000000600052604160045260246000fdfea26469706673582212208f35ad9d9099c1c2359ec1aa55da143c5d97aedb435a35411ddc187d1ed5918664736f6c634300081400332f8788117e7eff1d82e926ec794901d17c78024a50270940304540a733656f0d",
  "linkReferences": {},
  "deployedLinkReferences": {}
}