{
  "_format": "hh-sol-artifact-1",
  "contractName": "HealthMonitor",
  "sourceName": "contracts/layer7/stability/HealthMonitor.sol",
  "abi": [
    {
      "inputs": [],
      "stateMutability": "nonpayable",
      "type": "constructor"
    },
    {
      "inputs": [],
      "name": "AccessControlBadConfirmation",
      "type": "error"
    },
    {
      "inputs": [
        {
          "internalType": "address",
          "name": "account",
          "type": "address"
        },
        {
          "internalType": "bytes32",
          "name": "neededRole",
          "type": "bytes32"
        }
      ],
      "name": "AccessControlUnauthorizedAccount",
      "type": "error"
    },
    {
      "anonymous": false,
      "inputs": [
        {
          "indexed": false,
          "internalType": "bytes32",
          "name": "errorHash",
          "type": "bytes32"
        },
        {
          "indexed": false,
          "internalType": "string",
          "name": "description",
          "type": "string"
        }
      ],
      "name": "ErrorRecorded",
      "type": "event"
    },
    {
      "anonymous": false,
      "inputs": [
        {
          "indexed": false,
          "internalType": "enum HealthMonitor.HealthStatus",
          "name": "oldStatus",
          "type": "uint8"
        },
        {
          "indexed": false,
          "internalType": "enum HealthMonitor.HealthStatus",
          "name": "newStatus",
          "type": "uint8"
        },
        {
          "indexed": false,
          "internalType": "uint256",
          "name": "healthScore",
          "type": "uint256"
        }
      ],
      "name": "HealthStatusChanged",
      "type": "event"
    },
    {
      "anonymous": false,
      "inputs": [
        {
          "indexed": true,
          "internalType": "bytes32",
          "name": "role",
          "type": "bytes32"
        },
        {
          "indexed": true,
          "internalType": "bytes32",
          "name": "previousAdminRole",
          "type": "bytes32"
        },
        {
          "indexed": true,
          "internalType": "bytes32",
          "name": "newAdminRole",
          "type": "bytes32"
        }
      ],
      "name": "RoleAdminChanged",
      "type": "event"
    },
    {
      "anonymous": false,
      "inputs": [
        {
          "indexed": true,
          "internalType": "bytes32",
          "name": "role",
          "type": "bytes32"
        },
        {
          "indexed": true,
          "internalType": "address",
          "name": "account",
          "type": "address"
        },
        {
          "indexed": true,
          "internalType": "address",
          "name": "sender",
          "type": "address"
        }
      ],
      "name": "RoleGranted",
      "type": "event"
    },
    {
      "anonymous": false,
      "inputs": [
        {
          "indexed": true,
          "internalType": "bytes32",
          "name": "role",
          "type": "bytes32"
        },
        {
          "indexed": true,
          "internalType": "address",
          "name": "account",
          "type": "address"
        },
        {
          "indexed": true,
          "internalType": "address",
          "name": "sender",
          "type": "address"
        }
      ],
      "name": "RoleRevoked",
      "type": "event"
    },
    {
      "anonymous": false,
      "inputs": [
        {
          "indexed": false,
          "internalType": "string",
          "name": "warning",
          "type": "string"
        }
      ],
      "name": "WarningIssued",
      "type": "event"
    },
    {
      "inputs": [],
      "name": "DEFAULT_ADMIN_ROLE",
      "outputs": [
        {
          "internalType": "bytes32",
          "name": "",
          "type": "bytes32"
        }
      ],
      "stateMutability": "view",
      "type": "function"
    },
    {
      "inputs": [],
      "name": "HEALTH_CHECK_INTERVAL",
      "outputs": [
        {
          "internalType": "uint256",
          "name": "",
          "type": "uint256"
        }
      ],
      "stateMutability": "view",
      "type": "function"
    },
    {
      "inputs": [],
      "name": "HISTORY_RETENTION",
      "outputs": [
        {
          "internalType": "uint256",
          "name": "",
          "type": "uint256"
        }
      ],
      "stateMutability": "view",
      "type": "function"
    },
    {
      "inputs": [],
      "name": "MONITOR_ROLE",
      "outputs": [
        {
          "internalType": "bytes32",
          "name": "",
          "type": "bytes32"
        }
      ],
      "stateMutability": "view",
      "type": "function"
    },
    {
      "inputs": [],
      "name": "clearWarnings",
      "outputs": [],
      "stateMutability": "nonpayable",
      "type": "function"
    },
    {
      "inputs": [
        {
          "internalType": "bytes32",
          "name": "",
          "type": "bytes32"
        }
      ],
      "name": "errorCounts",
      "outputs": [
        {
          "internalType": "uint256",
          "name": "",
          "type": "uint256"
        }
      ],
      "stateMutability": "view",
      "type": "function"
    },
    {
      "inputs": [],
      "name": "forceHealthCheck",
      "outputs": [],
      "stateMutability": "nonpayable",
      "type": "function"
    },
    {
      "inputs": [
        {
          "internalType": "bytes32",
          "name": "role",
          "type": "bytes32"
        }
      ],
      "name": "getRoleAdmin",
      "outputs": [
        {
          "internalType": "bytes32",
          "name": "",
          "type": "bytes32"
        }
      ],
      "stateMutability": "view",
      "type": "function"
    },
    {
      "inputs": [],
      "name": "getSystemHealth",
      "outputs": [
        {
          "internalType": "enum HealthMonitor.HealthStatus",
          "name": "status",
          "type": "uint8"
        },
        {
          "internalType": "uint256",
          "name": "healthScore",
          "type": "uint256"
        },
        {
          "internalType": "uint256",
          "name": "successRate",
          "type": "uint256"
        },
        {
          "internalType": "uint256",
          "name": "errorCount",
          "type": "uint256"
        }
      ],
      "stateMutability": "view",
      "type": "function"
    },
    {
      "inputs": [
        {
          "internalType": "bytes32",
          "name": "role",
          "type": "bytes32"
        },
        {
          "internalType": "address",
          "name": "account",
          "type": "address"
        }
      ],
      "name": "grantRole",
      "outputs": [],
      "stateMutability": "nonpayable",
      "type": "function"
    },
    {
      "inputs": [
        {
          "internalType": "bytes32",
          "name": "role",
          "type": "bytes32"
        },
        {
          "internalType": "address",
          "name": "account",
          "type": "address"
        }
      ],
      "name": "hasRole",
      "outputs": [
        {
          "internalType": "bool",
          "name": "",
          "type": "bool"
        }
      ],
      "stateMutability": "view",
      "type": "function"
    },
    {
      "inputs": [
        {
          "internalType": "uint256",
          "name": "",
          "type": "uint256"
        }
      ],
      "name": "historicalMetrics",
      "outputs": [
        {
          "internalType": "uint256",
          "name": "totalTransactions",
          "type": "uint256"
        },
        {
          "internalType": "uint256",
          "name": "successfulTransactions",
          "type": "uint256"
        },
        {
          "internalType": "uint256",
          "name": "failedTransactions",
          "type": "uint256"
        },
        {
          "internalType": "uint256",
          "name": "totalGasUsed",
          "type": "uint256"
        },
        {
          "internalType": "uint256",
          "name": "averageGasPerTx",
          "type": "uint256"
        },
        {
          "internalType": "uint256",
          "name": "errorCount",
          "type": "uint256"
        },
        {
          "internalType": "uint256",
          "name": "lastUpdateTime",
          "type": "uint256"
        }
      ],
      "stateMutability": "view",
      "type": "function"
    },
    {
      "inputs": [],
      "name": "metrics",
      "outputs": [
        {
          "internalType": "uint256",
          "name": "totalTransactions",
          "type": "uint256"
        },
        {
          "internalType": "uint256",
          "name": "successfulTransactions",
          "type": "uint256"
        },
        {
          "internalType": "uint256",
          "name": "failedTransactions",
          "type": "uint256"
        },
        {
          "internalType": "uint256",
          "name": "totalGasUsed",
          "type": "uint256"
        },
        {
          "internalType": "uint256",
          "name": "averageGasPerTx",
          "type": "uint256"
        },
        {
          "internalType": "uint256",
          "name": "errorCount",
          "type": "uint256"
        },
        {
          "internalType": "uint256",
          "name": "lastUpdateTime",
          "type": "uint256"
        }
      ],
      "stateMutability": "view",
      "type": "function"
    },
    {
      "inputs": [
        {
          "internalType": "bytes32",
          "name": "errorHash",
          "type": "bytes32"
        },
        {
          "internalType": "string",
          "name": "description",
          "type": "string"
        }
      ],
      "name": "recordError",
      "outputs": [],
      "stateMutability": "nonpayable",
      "type": "function"
    },
    {
      "inputs": [
        {
          "internalType": "bool",
          "name": "success",
          "type": "bool"
        },
        {
          "internalType": "uint256",
          "name": "gasUsed",
          "type": "uint256"
        }
      ],
      "name": "recordTransaction",
      "outputs": [],
      "stateMutability": "nonpayable",
      "type": "function"
    },
    {
      "inputs": [
        {
          "internalType": "bytes32",
          "name": "role",
          "type": "bytes32"
        },
        {
          "internalType": "address",
          "name": "callerConfirmation",
          "type": "address"
        }
      ],
      "name": "renounceRole",
      "outputs": [],
      "stateMutability": "nonpayable",
      "type": "function"
    },
    {
      "inputs": [
        {
          "internalType": "bytes32",
          "name": "role",
          "type": "bytes32"
        },
        {
          "internalType": "address",
          "name": "account",
          "type": "address"
        }
      ],
      "name": "revokeRole",
      "outputs": [],
      "stateMutability": "nonpayable",
      "type": "function"
    },
    {
      "inputs": [
        {
          "internalType": "bytes4",
          "name": "interfaceId",
          "type": "bytes4"
        }
      ],
      "name": "supportsInterface",
      "outputs": [
        {
          "internalType": "bool",
          "name": "",
          "type": "bool"
        }
      ],
      "stateMutability": "view",
      "type": "function"
    },
    {
      "inputs": [],
      "name": "systemHealth",
      "outputs": [
        {
          "internalType": "enum HealthMonitor.HealthStatus",
          "name": "status",
          "type": "uint8"
        },
        {
          "internalType": "uint256",
          "name": "healthScore",
          "type": "uint256"
        },
        {
          "internalType": "uint256",
          "name": "lastCheckTime",
          "type": "uint256"
        }
      ],
      "stateMutability": "view",
      "type": "function"
    }
  ],
  "bytecode": "0x60806040523461003b5761001233610040565b5061001c336100be565b5060ff196008541660085560646009556040516112c4908161015f8239f35b600080fd5b6001600160a01b031660008181527fad3228b676f7d3cd4284a5443f17f1962b36e491b30a40b2405849e597ba5fb5602052604081205490919060ff166100ba57818052816020526040822081835260205260408220600160ff1982541617905533916000805160206114238339815191528180a4600190565b5090565b6001600160a01b031660008181527f2e8e7f02b5c3a57bcb31230b2de6217022337af22f70b9798cd08f9e32c8baba60205260408120549091907f8227712ef8ad39d0f26f06731ef0df8665eb7ada7f41b1ee089adf3c238862a29060ff1661015957808352826020526040832082845260205260408320600160ff19825416179055600080516020611423833981519152339380a4600190565b50509056fe608060408181526004918236101561001657600080fd5b600092833560e01c91826301ffc9a71461087e57508163161c5228146108655781631c7f0d531461082b578163248a9ca314610801578163288c83fc146107e45781632f2ff15d146107c657816331433d721461079e57816331a6be8c1461070f57816336568abe146106ae5781634d9b47e2146106735781635db4fcd9146104e857816367fd8d1d146104765781636b8a7c861461045857816391d1485414610412578163a04748f6146103b4578163a217fddf14610399578163b13c5c39146101fc578163c2d8f10e1461012d575063d547741f146100f657600080fd5b346101295760016101259161012061010d3661093f565b9390928387528660205286200154610a7d565b610b4d565b5080f35b5080fd5b919050346101f85760031936011261012957803580151581036101f8576101526109ea565b61015d600154610bee565b600155815460243581018091116101e5578255156101d257610180600254610bee565b6002555b610192815460015490610c31565b60055542600755600a549061012c82018092116101bf57504210156101b45780f35b6101bc610cb7565b80f35b826011602492634e487b7160e01b835252fd5b6101dd600354610bee565b600355610184565b602484601185634e487b7160e01b835252fd5b8280fd5b9050346101f857826003193601126101f857828052602091838352808420338552835260ff818520541615610363575050600b5482600b55806102d7575b50600c549082600c558161024c578280f35b600c83527fdf6966c971051c3d54ec59162606531493a51404a002842f56009d7e5cf4a8c7918201915b82811061028257508280f35b808461029060019354610fed565b8061029e575b505001610276565b601f80821185146102b557505081555b8438610296565b6102ce90848452868420920160051c8201858301611027565b818355556102ae565b600b83527f0175b7a638427703f0dbe7bb9bbf987a2551717b34e79f33b5b1008d1fa01db9908101905b81811061030e575061023a565b808461031c60019354610fed565b8061032a575b505001610301565b601f808211851461034157505081555b8438610322565b61035a90848452878420920160051c8201858301611027565b8183555561033a565b908360449251917fe2517d3f00000000000000000000000000000000000000000000000000000000835233908301526024820152fd5b50503461012957816003193601126101295751908152602090f35b82843461040f578060031936011261040f575060015460025460035493546005546006546007549551948552602085019390935260408401959095526060830152608082019390935260a081019290925260c082015260e090f35b80fd5b5050346101295760ff816020936104283661093f565b90825281865273ffffffffffffffffffffffffffffffffffffffff83832091168252855220541690519015158152f35b5050346101295781600319360112610129576020905162093a808152f35b82843461040f57602060031936011261040f5782358152600e602090815290829020805460018201546002830154600384015496840154600585015460069095015496519384529483019190915260408201526060810194909452608084019190915260a083015260c082015260e090f35b9050346101f857816003193601126101f8578035916024359267ffffffffffffffff9283851161066f573660238601121561066f578481013593841161065c575081519085602095610561877fffffffffffffffffffffffffffffffffffffffffffffffffffffffffffffffe0601f89011601856109a9565b8584528684019536602482840101116101f8578060248993018837840101526105886109ea565b610593600654610bee565b600655808652600d85528286206105aa8154610bee565b90557f47fa5a95f465eb451fb2872d086e2d652dcae3b1548b1ccceae7322fd15841c983518281528487820152806105e486820186610c74565b0390a18552600d8452600a82862054116105fc578480f35b610654937f48696768206672657175656e6379206572726f723a20000000000000000000009361063f60369361064f955196879485015251809285850190610c51565b81010360168101845201826109a9565b61103e565b388080808480f35b856041602492634e487b7160e01b835252fd5b8580fd5b505034610129578160031936011261012957602090517f8227712ef8ad39d0f26f06731ef0df8665eb7ada7f41b1ee089adf3c238862a28152f35b838334610129576106be3661093f565b913373ffffffffffffffffffffffffffffffffffffffff8416036106e757509061012591610b4d565b8490517f6697b232000000000000000000000000000000000000000000000000000000008152fd5b8383346101295781600319360112610129576001548281610759575b6080848460ff6008541691600954916006549261074a8251809661091c565b60208501528301526060820152f35b909192506002549060648202918083046064149015171561078b5750608093509061078391610c31565b90838061072b565b80601186634e487b7160e01b6024945252fd5b9050346101f85760206003193601126101f8576020928291358152600d845220549051908152f35b505034610129576001610125916107df61010d3661093f565b610aa3565b5050346101295781600319360112610129576020905161012c8152f35b9050346101f85760206003193601126101f857816020936001923581528085522001549051908152f35b50503461012957816003193601126101295760609060ff600854169060095490600a549161085b8251809561091c565b6020840152820152f35b833461040f578060031936011261040f576101b46109ea565b8491346101f85760206003193601126101f857357fffffffff0000000000000000000000000000000000000000000000000000000081168091036101f857602092507f7965db0b0000000000000000000000000000000000000000000000000000000081149081156108f2575b5015158152f35b7f01ffc9a700000000000000000000000000000000000000000000000000000000915014836108eb565b9060048210156109295752565b634e487b7160e01b600052602160045260246000fd5b6003196040910112610972576004359060243573ffffffffffffffffffffffffffffffffffffffff811681036109725790565b600080fd5b6040810190811067ffffffffffffffff82111761099357604052565b634e487b7160e01b600052604160045260246000fd5b90601f7fffffffffffffffffffffffffffffffffffffffffffffffffffffffffffffffe0910116810190811067ffffffffffffffff82111761099357604052565b3360009081527f2e8e7f02b5c3a57bcb31230b2de6217022337af22f70b9798cd08f9e32c8baba60205260409020547f8227712ef8ad39d0f26f06731ef0df8665eb7ada7f41b1ee089adf3c238862a29060ff1615610a465750565b604490604051907fe2517d3f0000000000000000000000000000000000000000000000000000000082523360048301526024820152fd5b80600052600060205260406000203360005260205260ff6040600020541615610a465750565b906000918083528260205273ffffffffffffffffffffffffffffffffffffffff6040842092169182845260205260ff60408420541615600014610b485780835282602052604083208284526020526040832060017fffffffffffffffffffffffffffffffffffffffffffffffffffffffffffffff008254161790557f2f8788117e7eff1d82e926ec794901d17c78024a50270940304540a733656f0d339380a4600190565b505090565b906000918083528260205273ffffffffffffffffffffffffffffffffffffffff6040842092169182845260205260ff604084205416600014610b48578083528260205260408320828452602052604083207fffffffffffffffffffffffffffffffffffffffffffffffffffffffffffffff0081541690557ff6391f5c32d9c69d2a47ea670b442974b53935d1edc7fd64eb21e047a839171b339380a4600190565b7fffffffffffffffffffffffffffffffffffffffffffffffffffffffffffffffff8114610c1b5760010190565b634e487b7160e01b600052601160045260246000fd5b8115610c3b570490565b634e487b7160e01b600052601260045260246000fd5b60005b838110610c645750506000910152565b8181015183820152602001610c54565b907fffffffffffffffffffffffffffffffffffffffffffffffffffffffffffffffe0601f602093610cb081518092818752878088019101610c51565b0116010190565b606460015480610f09575b50606460065411610e9c575b6207a12060055411610e2f575b6008549060ff821660508210610e07576000905b60049384831015610df2577fffffffffffffffffffffffffffffffffffffffffffffffffffffffffffffff0060ff84169116176008558260095542600a5583811015610ddd57818103610d90575b50505042600052600e60205260406000209060018203610d5b575050565b600154825560025460018301556003546002830155805460038301556005549082015560065460058201556006600754910155565b7fa38ec93c2791a952ff9aa478a88a1bf3c019b01664ab12a24e8bd8c99db3403e92610dcf606093610dc5604051809561091c565b602084019061091c565b6040820152a1388080610d3d565b602184634e487b7160e01b6000525260246000fd5b602185634e487b7160e01b6000525260246000fd5b60328210610e1757600190610cef565b60148210610e2757600290610cef565b600390610cef565b7ffffffffffffffffffffffffffffffffffffffffffffffffffffffffffffffff68101908111610c1b57610e97604051610e6881610977565b601c81527f4869676820617665726167652067617320636f6e73756d7074696f6e00000000602082015261103e565b610cdb565b7fffffffffffffffffffffffffffffffffffffffffffffffffffffffffffffffe28101908111610c1b57610f04604051610ed581610977565b601d81527f48696768206572726f72206672657175656e6379206465746563746564000000602082015261103e565b610cce565b6002549082820291808304841490151715610c1b57610f2791610c31565b6032811015610f9f57507fffffffffffffffffffffffffffffffffffffffffffffffffffffffffffffffd88101908111610c1b57610f99604051610f6a81610977565b602081527f437269746963616c3a205375636365737320726174652062656c6f7720353025602082015261103e565b38610cc2565b60501115610f9957506050610fe8604051610fb981610977565b601f81527f5761726e696e673a205375636365737320726174652062656c6f772038302500602082015261103e565b610f99565b90600182811c9216801561101d575b602083101461100757565b634e487b7160e01b600052602260045260246000fd5b91607f1691610ffc565b818110611032575050565b60008155600101611027565b90600b54916801000000000000000083101561099357600180840180600b5584101561127857600093600b85527f0175b7a638427703f0dbe7bb9bbf987a2551717b34e79f33b5b1008d1fa01db9019082519467ffffffffffffffff8611611264576110aa8354610fed565b601f8111611229575b50602090601f8711600114611169579186807fd43ea7bcacb30abeb2b189c502cfca638e36f3b06f9716461e85d1df9042a6919798936111399796959261113e575b507fffffffffffffffffffffffffffffffffffffffffffffffffffffffffffffffff91921b9260031b1c19161790555b604051918291602083526020830190610c74565b0390a1565b86015191507fffffffffffffffffffffffffffffffffffffffffffffffffffffffffffffffff6110f5565b907fffffffffffffffffffffffffffffffffffffffffffffffffffffffffffffffe08716848352818320925b81811061121357509187917fd43ea7bcacb30abeb2b189c502cfca638e36f3b06f9716461e85d1df9042a691979861113997969594106111dc575b5050811b019055611125565b8501517fffffffffffffffffffffffffffffffffffffffffffffffffffffffffffffffff60f88460031b161c1916905538806111d0565b8683015184559284019260209283019201611195565b6112549084835260208320601f890160051c81019160208a1061125a575b601f0160051c0190611027565b386110b3565b9091508190611247565b80634e487b7160e01b602492526041600452fd5b634e487b7160e01b600052603260045260246000fdfea264697066735822122065dd704932bb0ae11ef894afd3b8eca1276b3c3f2852b583c32202e57fa90d0264736f6c634300081400332f8788117e7eff1d82e926ec794901d17c78024a50270940304540a733656f0d",
  "linkReferences": {},
  "deployedLinkReferences": {}
}