{
  "_format": "hh-sol-artifact-1",
  "contractName": "VenueMarketplace",
  "sourceName": "contracts/layer5/VenueMarketplace.sol",
  "abi": [
    {
      "inputs": [
        {
          "internalType": "address",
          "name": "_treasury",
          "type": "address"
        }
      ],
      "stateMutability": "nonpayable",
      "type": "constructor"
    },
    {
      "inputs": [],
      "name": "AccessControlBadConfirmation",
      "type": "error"
    },
    {
      "inputs": [
        {
          "internalType": "address",
          "name": "account",
          "type": "address"
        },
        {
          "internalType": "bytes32",
          "name": "neededRole",
          "type": "bytes32"
        }
      ],
      "name": "AccessControlUnauthorizedAccount",
      "type": "error"
    },
    {
      "inputs": [],
      "name": "ReentrancyGuardReentrantCall",
      "type": "error"
    },
    {
      "anonymous": false,
      "inputs": [
        {
          "indexed": true,
          "internalType": "uint256",
          "name": "listingId",
          "type": "uint256"
        },
        {
          "indexed": true,
          "internalType": "address",
          "name": "bidder",
          "type": "address"
        },
        {
          "indexed": false,
          "internalType": "uint256",
          "name": "amount",
          "type": "uint256"
        }
      ],
      "name": "AuctionBid",
      "type": "event"
    },
    {
      "anonymous": false,
      "inputs": [
        {
          "indexed": true,
          "internalType": "uint256",
          "name": "listingId",
          "type": "uint256"
        },
        {
          "indexed": true,
          "internalType": "address",
          "name": "winner",
          "type": "address"
        },
        {
          "indexed": false,
          "internalType": "uint256",
          "name": "amount",
          "type": "uint256"
        }
      ],
      "name": "AuctionSettled",
      "type": "event"
    },
    {
      "anonymous": false,
      "inputs": [
        {
          "indexed": true,
          "internalType": "uint256",
          "name": "listingId",
          "type": "uint256"
        },
        {
          "indexed": true,
          "internalType": "address",
          "name": "seller",
          "type": "address"
        },
        {
          "indexed": false,
          "internalType": "address",
          "name": "nftContract",
          "type": "address"
        },
        {
          "indexed": false,
          "internalType": "uint256",
          "name": "tokenId",
          "type": "uint256"
        },
        {
          "indexed": false,
          "internalType": "enum VenueMarketplace.ListingType",
          "name": "t",
          "type": "uint8"
        },
        {
          "indexed": false,
          "internalType": "uint256",
          "name": "price",
          "type": "uint256"
        }
      ],
      "name": "Listed",
      "type": "event"
    },
    {
      "anonymous": false,
      "inputs": [
        {
          "indexed": true,
          "internalType": "uint256",
          "name": "listingId",
          "type": "uint256"
        }
      ],
      "name": "ListingCancelled",
      "type": "event"
    },
    {
      "anonymous": false,
      "inputs": [
        {
          "indexed": true,
          "internalType": "bytes32",
          "name": "role",
          "type": "bytes32"
        },
        {
          "indexed": true,
          "internalType": "bytes32",
          "name": "previousAdminRole",
          "type": "bytes32"
        },
        {
          "indexed": true,
          "internalType": "bytes32",
          "name": "newAdminRole",
          "type": "bytes32"
        }
      ],
      "name": "RoleAdminChanged",
      "type": "event"
    },
    {
      "anonymous": false,
      "inputs": [
        {
          "indexed": true,
          "internalType": "bytes32",
          "name": "role",
          "type": "bytes32"
        },
        {
          "indexed": true,
          "internalType": "address",
          "name": "account",
          "type": "address"
        },
        {
          "indexed": true,
          "internalType": "address",
          "name": "sender",
          "type": "address"
        }
      ],
      "name": "RoleGranted",
      "type": "event"
    },
    {
      "anonymous": false,
      "inputs": [
        {
          "indexed": true,
          "internalType": "bytes32",
          "name": "role",
          "type": "bytes32"
        },
        {
          "indexed": true,
          "internalType": "address",
          "name": "account",
          "type": "address"
        },
        {
          "indexed": true,
          "internalType": "address",
          "name": "sender",
          "type": "address"
        }
      ],
      "name": "RoleRevoked",
      "type": "event"
    },
    {
      "anonymous": false,
      "inputs": [
        {
          "indexed": true,
          "internalType": "uint256",
          "name": "listingId",
          "type": "uint256"
        },
        {
          "indexed": true,
          "internalType": "address",
          "name": "buyer",
          "type": "address"
        },
        {
          "indexed": false,
          "internalType": "uint256",
          "name": "price",
          "type": "uint256"
        }
      ],
      "name": "Sold",
      "type": "event"
    },
    {
      "inputs": [],
      "name": "DEFAULT_ADMIN_ROLE",
      "outputs": [
        {
          "internalType": "bytes32",
          "name": "",
          "type": "bytes32"
        }
      ],
      "stateMutability": "view",
      "type": "function"
    },
    {
      "inputs": [],
      "name": "OPERATOR_ROLE",
      "outputs": [
        {
          "internalType": "bytes32",
          "name": "",
          "type": "bytes32"
        }
      ],
      "stateMutability": "view",
      "type": "function"
    },
    {
      "inputs": [
        {
          "internalType": "uint256",
          "name": "listingId",
          "type": "uint256"
        }
      ],
      "name": "bidAuction",
      "outputs": [],
      "stateMutability": "payable",
      "type": "function"
    },
    {
      "inputs": [
        {
          "internalType": "uint256",
          "name": "listingId",
          "type": "uint256"
        }
      ],
      "name": "buyNow",
      "outputs": [],
      "stateMutability": "payable",
      "type": "function"
    },
    {
      "inputs": [
        {
          "internalType": "address",
          "name": "",
          "type": "address"
        },
        {
          "internalType": "uint256",
          "name": "",
          "type": "uint256"
        }
      ],
      "name": "buyerPurchases",
      "outputs": [
        {
          "internalType": "uint256",
          "name": "",
          "type": "uint256"
        }
      ],
      "stateMutability": "view",
      "type": "function"
    },
    {
      "inputs": [
        {
          "internalType": "uint256",
          "name": "listingId",
          "type": "uint256"
        }
      ],
      "name": "cancelListing",
      "outputs": [],
      "stateMutability": "nonpayable",
      "type": "function"
    },
    {
      "inputs": [
        {
          "internalType": "uint256",
          "name": "id",
          "type": "uint256"
        }
      ],
      "name": "getListingOffers",
      "outputs": [
        {
          "components": [
            {
              "internalType": "address",
              "name": "offerer",
              "type": "address"
            },
            {
              "internalType": "uint256",
              "name": "amount",
              "type": "uint256"
            },
            {
              "internalType": "uint256",
              "name": "timestamp",
              "type": "uint256"
            },
            {
              "internalType": "bool",
              "name": "accepted",
              "type": "bool"
            }
          ],
          "internalType": "struct VenueMarketplace.Offer[]",
          "name": "",
          "type": "tuple[]"
        }
      ],
      "stateMutability": "view",
      "type": "function"
    },
    {
      "inputs": [
        {
          "internalType": "bytes32",
          "name": "role",
          "type": "bytes32"
        }
      ],
      "name": "getRoleAdmin",
      "outputs": [
        {
          "internalType": "bytes32",
          "name": "",
          "type": "bytes32"
        }
      ],
      "stateMutability": "view",
      "type": "function"
    },
    {
      "inputs": [
        {
          "internalType": "address",
          "name": "s",
          "type": "address"
        }
      ],
      "name": "getSellerListings",
      "outputs": [
        {
          "internalType": "uint256[]",
          "name": "",
          "type": "uint256[]"
        }
      ],
      "stateMutability": "view",
      "type": "function"
    },
    {
      "inputs": [
        {
          "internalType": "bytes32",
          "name": "role",
          "type": "bytes32"
        },
        {
          "internalType": "address",
          "name": "account",
          "type": "address"
        }
      ],
      "name": "grantRole",
      "outputs": [],
      "stateMutability": "nonpayable",
      "type": "function"
    },
    {
      "inputs": [
        {
          "internalType": "bytes32",
          "name": "role",
          "type": "bytes32"
        },
        {
          "internalType": "address",
          "name": "account",
          "type": "address"
        }
      ],
      "name": "hasRole",
      "outputs": [
        {
          "internalType": "bool",
          "name": "",
          "type": "bool"
        }
      ],
      "stateMutability": "view",
      "type": "function"
    },
    {
      "inputs": [
        {
          "internalType": "address",
          "name": "nftContract",
          "type": "address"
        },
        {
          "internalType": "uint256",
          "name": "tokenId",
          "type": "uint256"
        },
        {
          "internalType": "uint256",
          "name": "startingBid",
          "type": "uint256"
        },
        {
          "internalType": "uint256",
          "name": "duration",
          "type": "uint256"
        }
      ],
      "name": "listForAuction",
      "outputs": [
        {
          "internalType": "uint256",
          "name": "",
          "type": "uint256"
        }
      ],
      "stateMutability": "nonpayable",
      "type": "function"
    },
    {
      "inputs": [
        {
          "internalType": "address",
          "name": "nftContract",
          "type": "address"
        },
        {
          "internalType": "uint256",
          "name": "tokenId",
          "type": "uint256"
        },
        {
          "internalType": "uint256",
          "name": "price",
          "type": "uint256"
        },
        {
          "internalType": "uint256",
          "name": "duration",
          "type": "uint256"
        }
      ],
      "name": "listForSale",
      "outputs": [
        {
          "internalType": "uint256",
          "name": "",
          "type": "uint256"
        }
      ],
      "stateMutability": "nonpayable",
      "type": "function"
    },
    {
      "inputs": [
        {
          "internalType": "uint256",
          "name": "",
          "type": "uint256"
        },
        {
          "internalType": "uint256",
          "name": "",
          "type": "uint256"
        }
      ],
      "name": "listingOffers",
      "outputs": [
        {
          "internalType": "address",
          "name": "offerer",
          "type": "address"
        },
        {
          "internalType": "uint256",
          "name": "amount",
          "type": "uint256"
        },
        {
          "internalType": "uint256",
          "name": "timestamp",
          "type": "uint256"
        },
        {
          "internalType": "bool",
          "name": "accepted",
          "type": "bool"
        }
      ],
      "stateMutability": "view",
      "type": "function"
    },
    {
      "inputs": [
        {
          "internalType": "uint256",
          "name": "",
          "type": "uint256"
        }
      ],
      "name": "listings",
      "outputs": [
        {
          "internalType": "uint256",
          "name": "listingId",
          "type": "uint256"
        },
        {
          "internalType": "address",
          "name": "nftContract",
          "type": "address"
        },
        {
          "internalType": "uint256",
          "name": "tokenId",
          "type": "uint256"
        },
        {
          "internalType": "address",
          "name": "seller",
          "type": "address"
        },
        {
          "internalType": "enum VenueMarketplace.ListingType",
          "name": "listingType",
          "type": "uint8"
        },
        {
          "internalType": "enum VenueMarketplace.ListingStatus",
          "name": "status",
          "type": "uint8"
        },
        {
          "internalType": "uint256",
          "name": "price",
          "type": "uint256"
        },
        {
          "internalType": "uint256",
          "name": "rentalDuration",
          "type": "uint256"
        },
        {
          "internalType": "uint256",
          "name": "auctionEndTime",
          "type": "uint256"
        },
        {
          "internalType": "uint256",
          "name": "highestBid",
          "type": "uint256"
        },
        {
          "internalType": "address",
          "name": "highestBidder",
          "type": "address"
        },
        {
          "internalType": "uint256",
          "name": "createdAt",
          "type": "uint256"
        },
        {
          "internalType": "uint256",
          "name": "expiresAt",
          "type": "uint256"
        }
      ],
      "stateMutability": "view",
      "type": "function"
    },
    {
      "inputs": [
        {
          "internalType": "address",
          "name": "",
          "type": "address"
        },
        {
          "internalType": "uint256",
          "name": "",
          "type": "uint256"
        }
      ],
      "name": "originalCreator",
      "outputs": [
        {
          "internalType": "address",
          "name": "",
          "type": "address"
        }
      ],
      "stateMutability": "view",
      "type": "function"
    },
    {
      "inputs": [
        {
          "internalType": "address",
          "name": "",
          "type": "address"
        }
      ],
      "name": "pendingWithdrawals",
      "outputs": [
        {
          "internalType": "uint256",
          "name": "",
          "type": "uint256"
        }
      ],
      "stateMutability": "view",
      "type": "function"
    },
    {
      "inputs": [],
      "name": "platformFeePercent",
      "outputs": [
        {
          "internalType": "uint256",
          "name": "",
          "type": "uint256"
        }
      ],
      "stateMutability": "view",
      "type": "function"
    },
    {
      "inputs": [
        {
          "internalType": "bytes32",
          "name": "role",
          "type": "bytes32"
        },
        {
          "internalType": "address",
          "name": "callerConfirmation",
          "type": "address"
        }
      ],
      "name": "renounceRole",
      "outputs": [],
      "stateMutability": "nonpayable",
      "type": "function"
    },
    {
      "inputs": [
        {
          "internalType": "bytes32",
          "name": "role",
          "type": "bytes32"
        },
        {
          "internalType": "address",
          "name": "account",
          "type": "address"
        }
      ],
      "name": "revokeRole",
      "outputs": [],
      "stateMutability": "nonpayable",
      "type": "function"
    },
    {
      "inputs": [],
      "name": "royaltyPercent",
      "outputs": [
        {
          "internalType": "uint256",
          "name": "",
          "type": "uint256"
        }
      ],
      "stateMutability": "view",
      "type": "function"
    },
    {
      "inputs": [
        {
          "internalType": "address",
          "name": "",
          "type": "address"
        },
        {
          "internalType": "uint256",
          "name": "",
          "type": "uint256"
        }
      ],
      "name": "sellerListings",
      "outputs": [
        {
          "internalType": "uint256",
          "name": "",
          "type": "uint256"
        }
      ],
      "stateMutability": "view",
      "type": "function"
    },
    {
      "inputs": [
        {
          "internalType": "uint256",
          "name": "f",
          "type": "uint256"
        }
      ],
      "name": "setPlatformFee",
      "outputs": [],
      "stateMutability": "nonpayable",
      "type": "function"
    },
    {
      "inputs": [
        {
          "internalType": "uint256",
          "name": "listingId",
          "type": "uint256"
        }
      ],
      "name": "settleAuction",
      "outputs": [],
      "stateMutability": "nonpayable",
      "type": "function"
    },
    {
      "inputs": [
        {
          "internalType": "bytes4",
          "name": "interfaceId",
          "type": "bytes4"
        }
      ],
      "name": "supportsInterface",
      "outputs": [
        {
          "internalType": "bool",
          "name": "",
          "type": "bool"
        }
      ],
      "stateMutability": "view",
      "type": "function"
    },
    {
      "inputs": [],
      "name": "totalListings",
      "outputs": [
        {
          "internalType": "uint256",
          "name": "",
          "type": "uint256"
        }
      ],
      "stateMutability": "view",
      "type": "function"
    },
    {
      "inputs": [],
      "name": "totalVolume",
      "outputs": [
        {
          "internalType": "uint256",
          "name": "",
          "type": "uint256"
        }
      ],
      "stateMutability": "view",
      "type": "function"
    },
    {
      "inputs": [],
      "name": "treasury",
      "outputs": [
        {
          "internalType": "address",
          "name": "",
          "type": "address"
        }
      ],
      "stateMutability": "view",
      "type": "function"
    },
    {
      "inputs": [],
      "name": "withdrawPending",
      "outputs": [],
      "stateMutability": "nonpayable",
      "type": "function"
    }
  ],
  "bytecode": "0x608034620000a057601f6200281f38819003918201601f19168301916001600160401b03831184841017620000a557808492602094604052833981010312620000a057516001600160a01b03811690819003620000a0576001805560fa60095560c8600a55600b80546001600160a01b0319169190911790556200008333620000bb565b506200008f336200013b565b506040516126219081620001de8239f35b600080fd5b634e487b7160e01b600052604160045260246000fd5b6001600160a01b031660008181527fad3228b676f7d3cd4284a5443f17f1962b36e491b30a40b2405849e597ba5fb5602052604081205490919060ff166200013757818052816020526040822081835260205260408220600160ff198254161790553391600080516020620027ff8339815191528180a4600190565b5090565b6001600160a01b031660008181527fee57cd81e84075558e8fcc182a1f4393f91fc97f963a136e66b7f949a62f319f60205260408120549091907f97667070c54ef182b0f5858b034beac1b6f3089aa2d3188bb1e8929f4fa9b9299060ff16620001d857808352826020526040832082845260205260408320600160ff19825416179055600080516020620027ff833981519152339380a4600190565b50509056fe608080604052600436101561001357600080fd5b600090813560e01c90816301ffc9a71461203257508063054564f014611fdd57806308a0f32f14611c4157806312e8e2c314611b5057806320e33db814611acc578063248a9ca314611aa05780632e993611146116555780632f2ff15d14611618578063305a67a81461136a57806334b7bfef1461130757806336568abe1461129a5780634ccd77bf14610ec15780635f42da0914610e065780635f81a57c14610de857806361d027b314610db457806364a7d7c714610b8c5780637edbceb114610ad45780638c639a8514610ab657806391d1485414610a5d5780639b7b44f614610a0b5780639f67756d146109ed578063a217fddf146109d1578063b8a633771461053a578063c78b616c1461051c578063d547741f146104db578063de74e57b14610387578063f3f4370314610342578063f5b541a6146103075763fbb1e4971461016057600080fd5b34610304576020908160031936011261030457600435815260048252604081209182549067ffffffffffffffff8083116102d75791849192604051916101ab858260051b0184612378565b80835284830191829487528587209287905b8382106102385750505050506040519280840191818552518092526040840192945b8281106101ec5784840385f35b8551805173ffffffffffffffffffffffffffffffffffffffff168552808301518584015260408082015190860152606090810151151590850152948101946080909301926001016101df565b604098979596985160808101818110858211176102a857600192600492899260405273ffffffffffffffffffffffffffffffffffffffff895416815284890154838201526002890154604082015260ff60038a0154161515606082015281520195019101909397959496976101bd565b7f4e487b7100000000000000000000000000000000000000000000000000000000600052604160045260246000fd5b6024847f4e487b710000000000000000000000000000000000000000000000000000000081526041600452fd5b80fd5b503461030457806003193601126103045760206040517f97667070c54ef182b0f5858b034beac1b6f3089aa2d3188bb1e8929f4fa9b9298152f35b503461030457602060031936011261030457604060209173ffffffffffffffffffffffffffffffffffffffff6103766120d2565b168152600783522054604051908152f35b503461030457602060031936011261030457600435815260036020526040812080549073ffffffffffffffffffffffffffffffffffffffff600182015416906002810154600382015460ff8160a01c1660ff8260a81c16600485015460058601549160068701549373ffffffffffffffffffffffffffffffffffffffff6007890154968160088b01541698600a60098c01549b01549b60206040519e8f908152015260408d01521660608b015260038110156104ac5760808a0152600481101561047f576101a0995060a089015260c088015260e0870152610100860152610120850152610140840152610160830152610180820152f35b60248a7f4e487b710000000000000000000000000000000000000000000000000000000081526021600452fd5b7f4e487b7100000000000000000000000000000000000000000000000000000000600052602160045260246000fd5b5034610304576040600319360112610304576105186004356104fb6120fa565b9080845283602052610513600160408620015461219f565b6122a6565b5080f35b50346103045780600319360112610304576020600c54604051908152f35b50346103045761054936612164565b929181156109735773ffffffffffffffffffffffffffffffffffffffff83163b15610964576040517f23b872dd00000000000000000000000000000000000000000000000000000000815233600482015230602482015260448101829052859081816064818373ffffffffffffffffffffffffffffffffffffffff8a165af1801561096857610950575b50506105ee6105e36002546123b9565b948560025542612415565b94604051956105fc8761235b565b858752602087019073ffffffffffffffffffffffffffffffffffffffff861682528360408901523360608901528260808901528260a08901528460c08901528260e089015282610100890152826101208901528261014089015242610160890152610180880152858252600360205273ffffffffffffffffffffffffffffffffffffffff60408320918851835551167fffffffffffffffffffffffff00000000000000000000000000000000000000006001830154161760018201556040870151600282015573ffffffffffffffffffffffffffffffffffffffff606088015116600382015490608089015160038110156109235774ff00000000000000000000000000000000000000007fffffffffffffffffffffff0000000000000000000000000000000000000000009160a01b1692161717600382015560a087015160048110156108f657610180602098610759600a9360038601612422565b60c0810151600485015560e08101516005850155610100810151600685015561012081015160078501556008840173ffffffffffffffffffffffffffffffffffffffff610140830151167fffffffffffffffffffffffff000000000000000000000000000000000000000082541617905561016081015160098501550151910155338152600586526107ee8560408320612472565b6107f9600c546123b9565b600c5573ffffffffffffffffffffffffffffffffffffffff841681526008865260408120828252865273ffffffffffffffffffffffffffffffffffffffff6040822054161561089f575b5073ffffffffffffffffffffffffffffffffffffffff6040519316835284830152600060408301526060820152817f152b52f7aaf42d10541c1bb75f88cb052ed447fe36342a4679e4e5f7c31e0e6e60803393a3604051908152f35b60409073ffffffffffffffffffffffffffffffffffffffff8516815260088752818120838252875220337fffffffffffffffffffffffff000000000000000000000000000000000000000082541617905538610843565b6024837f4e487b710000000000000000000000000000000000000000000000000000000081526021600452fd5b6024857f4e487b710000000000000000000000000000000000000000000000000000000081526021600452fd5b61095990612347565b6109645784386105d3565b8480fd5b6040513d84823e3d90fd5b60646040517f08c379a000000000000000000000000000000000000000000000000000000000815260206004820152600960248201527f5072696365203e203000000000000000000000000000000000000000000000006044820152fd5b5034610304578060031936011261030457602090604051908152f35b50346103045780600319360112610304576020600a54604051908152f35b503461030457604060031936011261030457602090604073ffffffffffffffffffffffffffffffffffffffff9182610a416120d2565b1681526008845281812060243582528452205416604051908152f35b50346103045760406003193601126103045773ffffffffffffffffffffffffffffffffffffffff6040610a8e6120fa565b92600435815280602052209116600052602052602060ff604060002054166040519015158152f35b50346103045780600319360112610304576020600954604051908152f35b5034610304578060031936011261030457610aed612590565b338152600760205260408120548015610b2e57818080809333825260076020528160408120553382f115610b22576001805580f35b604051903d90823e3d90fd5b60646040517f08c379a000000000000000000000000000000000000000000000000000000000815260206004820152600760248201527f4e6f7468696e67000000000000000000000000000000000000000000000000006044820152fd5b50602080600319360112610db057600435610ba5612590565b8083526003825260408320600381015460ff8160a81c166004811015610d8357159081610d69575b5015610d0b576006810154421080610cfe575b80610cf0575b15610c9257600881019073ffffffffffffffffffffffffffffffffffffffff82541680610c6f575b50600734910155337fffffffffffffffffffffffff00000000000000000000000000000000000000008254161790557fb8d756f2d1da4663767eb4d559780ace84f2f65a421a60ddcb47e8b2e5d2fd26604051923484523393a36001805580f35b600782015490865260078552610c8a60408720918254612415565b905538610c0e565b606483604051907f08c379a00000000000000000000000000000000000000000000000000000000082526004820152600b60248201527f42696420746f6f206c6f770000000000000000000000000000000000000000006044820152fd5b506004810154341015610be6565b5060078101543411610be0565b606483604051907f08c379a00000000000000000000000000000000000000000000000000000000082526004820152600b60248201527f4e6f742061756374696f6e0000000000000000000000000000000000000000006044820152fd5b60ff915060a01c1660038110156109235760021438610bcd565b6024867f4e487b710000000000000000000000000000000000000000000000000000000081526021600452fd5b5080fd5b5034610304578060031936011261030457602073ffffffffffffffffffffffffffffffffffffffff600b5416604051908152f35b50346103045780600319360112610304576020600d54604051908152f35b503461030457602080600319360112610db05773ffffffffffffffffffffffffffffffffffffffff610e366120d2565b168252600581526040822060405192838383549182815201908193835284832090835b818110610ead5750505084610e6f910385612378565b60405193838594850191818652518092526040850193925b828110610e9657505050500390f35b835185528695509381019392810192600101610e87565b825484529286019260019283019201610e59565b503461030457610ed036612164565b92918115158061128e575b156112305773ffffffffffffffffffffffffffffffffffffffff83163b15610964576040517f23b872dd00000000000000000000000000000000000000000000000000000000815233600482015230602482015260448101829052859081816064818373ffffffffffffffffffffffffffffffffffffffff8a165af180156109685761121c575b5050610f6f6002546123b9565b9384600255610f88610f818242612415565b9142612415565b60405190610f958261235b565b86825273ffffffffffffffffffffffffffffffffffffffff861660208301526040820192848452336060840152600260808401528860a08401528560c08401528860e084015261010083015287610120830152876101408301524261016083015261018082015285875260036020526040872091815183556001830173ffffffffffffffffffffffffffffffffffffffff6020840151167fffffffffffffffffffffffff000000000000000000000000000000000000000082541617905551600283015573ffffffffffffffffffffffffffffffffffffffff6060820151166003830154906080830151600381101561047f5774ff00000000000000000000000000000000000000007fffffffffffffffffffffff0000000000000000000000000000000000000000009160a01b1692161717600383015560a081015160048110156111ef5760209783600a6101808a956110f860409660036111869a01612422565b60c0810151600485015560e08101516005850155610100810151600685015561012081015160078501556008840173ffffffffffffffffffffffffffffffffffffffff610140830151167fffffffffffffffffffffffff0000000000000000000000000000000000000000825416179055610160810151600985015501519101553381526005895220612472565b611191600c546123b9565b600c5573ffffffffffffffffffffffffffffffffffffffff6040519316835284830152600260408301526060820152817f152b52f7aaf42d10541c1bb75f88cb052ed447fe36342a4679e4e5f7c31e0e6e60803393a3604051908152f35b6024887f4e487b710000000000000000000000000000000000000000000000000000000081526021600452fd5b61122590612347565b610964578438610f62565b60646040517f08c379a000000000000000000000000000000000000000000000000000000000815260206004820152600e60248201527f496e76616c696420706172616d730000000000000000000000000000000000006044820152fd5b50610e10841015610edb565b5034610304576040600319360112610304576112b46120fa565b3373ffffffffffffffffffffffffffffffffffffffff8216036112dd57610518906004356122a6565b60046040517f6697b232000000000000000000000000000000000000000000000000000000008152fd5b5034610304576040600319360112610304576113216120d2565b73ffffffffffffffffffffffffffffffffffffffff1681526006602052604081208054602435929083101561030457602061135c848461211d565b90546040519160031b1c8152f35b503461030457602080600319360112610db05760043590611389612590565b8183526003815260408320906003820180549073ffffffffffffffffffffffffffffffffffffffff918281169333851480156115d9575b1561157b5760ff8260a81c16600481101561154e571580611540575b156114e257509160029175020000000000000000000000000000000000000000007fffffffffffffffffffff00ffffffffffffffffffffffffffffffffffffffffff8997969516179055600184015416920154823b156114de576040517f23b872dd00000000000000000000000000000000000000000000000000000000815230600482015273ffffffffffffffffffffffffffffffffffffffff92909216602483015260448201529082908290606490829084905af18015610968576114ca575b50807f411aee90354c51b1b04cd563fcab2617142a9d50da19232d888547c8a1b7fd8a91a26001805580f35b6114d390612347565b610db057813861149e565b8380fd5b606490604051907f08c379a00000000000000000000000000000000000000000000000000000000082526004820152600d60248201527f43616e6e6f742063616e63656c000000000000000000000000000000000000006044820152fd5b5083600887015416156113dc565b6024897f4e487b710000000000000000000000000000000000000000000000000000000081526021600452fd5b606490604051907f08c379a00000000000000000000000000000000000000000000000000000000082526004820152600e60248201527f4e6f7420617574686f72697a65640000000000000000000000000000000000006044820152fd5b507f97667070c54ef182b0f5858b034beac1b6f3089aa2d3188bb1e8929f4fa9b92988528781526040882033600052815260ff604060002054166113c0565b5034610304576040600319360112610304576105186004356116386120fa565b9080845283602052611650600160408620015461219f565b6121fc565b503461030457602080600319360112610db057600435611673612590565b8083526003825260408320916003830190815460ff8160a01c166003811015611a655760021480611a92575b80611a4e575b156119f057857fffffffffffffffffffff00ffffffffffffffffffffffffffffffffffffffffff821691750100000000000000000000000000000000000000000083178555600887019473ffffffffffffffffffffffffffffffffffffffff938487541615156000146119345750505060078601956117278754600d54612415565b600d558654600482015561173a816124c9565b60c08101906117538251612710918291600954906125cb565b0486888401511686526008885260408620604084015187528852866040872054169182151580611924575b1561191c576117918551600a54906125cb565b04915b86808080858c600b5416828215611913575bf1156119085786938891841580156118d0575b5050849591936117d7869594869560606117dc9501511694516125de565b6125de565b908282156118c7575bf1156118ba578260018201541690600284875416910154823b156114de576040517f23b872dd00000000000000000000000000000000000000000000000000000000815230600482015273ffffffffffffffffffffffffffffffffffffffff92909216602483015260448201529082908290606490829084905af18015610968576118a2575b50507fc9f72b276a388619c6d185d146697036241880c36654b1a3ffdad07c24038d999254169354604051908152a35b6001805580f35b6118ab90612347565b6118b657853861186b565b8580fd5b50604051903d90823e3d90fd5b506108fc6117e5565b86935095858193959792829383906118ff575bf1156118f4579186869338806117b9565b6040513d87823e3d90fd5b506108fc6118e3565b6040513d88823e3d90fd5b506108fc6117a6565b508591611794565b508760608501511683141561177e565b750200000000000000000000000000000000000000000017905560018701546002909701549196929550935091508316803b15610964576040517f23b872dd0000000000000000000000000000000000000000000000000000000081523060048201529390921673ffffffffffffffffffffffffffffffffffffffff1660248401526044830152829082908183816064810103925af18015610968576119dc575b505061189b565b6119e590612347565b6103045780386119d5565b606482604051907f08c379a00000000000000000000000000000000000000000000000000000000082526004820152600d60248201527f43616e6e6f7420736574746c65000000000000000000000000000000000000006044820152fd5b5060ff8160a81c166004811015611a6557156116a5565b6024877f4e487b710000000000000000000000000000000000000000000000000000000081526021600452fd5b50600685015442101561169f565b503461030457602060031936011261030457600160406020926004358152808452200154604051908152f35b50346103045760406003193601126103045760243560043582526004602052604082208054821015611b4c578260209160809452209060021b0173ffffffffffffffffffffffffffffffffffffffff8154169060018101549060ff6003600283015492015416916040519384526020840152604083015215156060820152f35b8280fd5b5034610304576020600319360112610304573360009081527fad3228b676f7d3cd4284a5443f17f1962b36e491b30a40b2405849e597ba5fb560205260409020546004359060ff1615611c0a576103e88111611bac5760095580f35b60646040517f08c379a000000000000000000000000000000000000000000000000000000000815260206004820152600760248201527f4d617820313025000000000000000000000000000000000000000000000000006044820152fd5b60446040517fe2517d3f00000000000000000000000000000000000000000000000000000000815233600482015260006024820152fd5b50602080600319360112610db057600435611c5a612590565b80835260038252604083206003810190815460ff8160a81c166004811015611a65571580611fc6575b15611f685760048201928354918234101580611f5a575b15611efc577fffffffffffffffffffff00ffffffffffffffffffffffffffffffffffffffffff167501000000000000000000000000000000000000000000179055600d54869291611cea91612415565b600d55611d0f611cf9826124c9565b60c08101908151612710938491600954906125cb565b049273ffffffffffffffffffffffffffffffffffffffff93848a84015116875260088a5260408720604084015188528a52846040882054169182151580611eec575b15611ee457611d648551600a54906125cb565b04915b87808080858a600b5416828215611edb575bf115611ed0578793869184158015611ea3575b5050849591936117d786959486956060611daa9501511694516125de565b90828215611e9a575bf11561096857600290600183015416910154813b15611b4c576040517f23b872dd000000000000000000000000000000000000000000000000000000008152306004820152336024820152604481019190915291908290606490829084905af180156118f457611e67575b507f66f5cd880edf48cdde6c966e5da0784fcc4c5e85572b8b3b62c4357798d447d79033855260068452611e558360408720612472565b54926040519384523393a36001805580f35b93611e937f66f5cd880edf48cdde6c966e5da0784fcc4c5e85572b8b3b62c4357798d447d79295612347565b9390611e1e565b506108fc611db3565b8693509585819395979282938390611ec7575bf11561190857918487933880611d8c565b506108fc611eb6565b6040513d89823e3d90fd5b506108fc611d79565b508691611d67565b5085606085015116831415611d51565b606487604051907f08c379a00000000000000000000000000000000000000000000000000000000082526004820152600760248201527f496e76616c6964000000000000000000000000000000000000000000000000006044820152fd5b50600a840154421115611c9a565b606485604051907f08c379a00000000000000000000000000000000000000000000000000000000082526004820152600c60248201527f4e6f7420666f722073616c6500000000000000000000000000000000000000006044820152fd5b5060ff8160a01c166003811015611a655715611c83565b503461030457604060031936011261030457611ff76120d2565b73ffffffffffffffffffffffffffffffffffffffff1681526005602052604081208054602435929083101561030457602061135c848461211d565b905034610db0576020600319360112610db0576004357fffffffff000000000000000000000000000000000000000000000000000000008116809103611b4c57602092507f7965db0b0000000000000000000000000000000000000000000000000000000081149081156120a8575b5015158152f35b7f01ffc9a700000000000000000000000000000000000000000000000000000000915014386120a1565b6004359073ffffffffffffffffffffffffffffffffffffffff821682036120f557565b600080fd5b6024359073ffffffffffffffffffffffffffffffffffffffff821682036120f557565b80548210156121355760005260206000200190600090565b7f4e487b7100000000000000000000000000000000000000000000000000000000600052603260045260246000fd5b60031960809101126120f55760043573ffffffffffffffffffffffffffffffffffffffff811681036120f55790602435906044359060643590565b80600052600060205260406000203360005260205260ff60406000205416156121c55750565b604490604051907fe2517d3f0000000000000000000000000000000000000000000000000000000082523360048301526024820152fd5b906000918083528260205273ffffffffffffffffffffffffffffffffffffffff6040842092169182845260205260ff604084205416156000146122a15780835282602052604083208284526020526040832060017fffffffffffffffffffffffffffffffffffffffffffffffffffffffffffffff008254161790557f2f8788117e7eff1d82e926ec794901d17c78024a50270940304540a733656f0d339380a4600190565b505090565b906000918083528260205273ffffffffffffffffffffffffffffffffffffffff6040842092169182845260205260ff6040842054166000146122a1578083528260205260408320828452602052604083207fffffffffffffffffffffffffffffffffffffffffffffffffffffffffffffff0081541690557ff6391f5c32d9c69d2a47ea670b442974b53935d1edc7fd64eb21e047a839171b339380a4600190565b67ffffffffffffffff81116102a857604052565b6101a0810190811067ffffffffffffffff8211176102a857604052565b90601f7fffffffffffffffffffffffffffffffffffffffffffffffffffffffffffffffe0910116810190811067ffffffffffffffff8211176102a857604052565b7fffffffffffffffffffffffffffffffffffffffffffffffffffffffffffffffff81146123e65760010190565b7f4e487b7100000000000000000000000000000000000000000000000000000000600052601160045260246000fd5b919082018092116123e657565b9060048110156104ac577fffffffffffffffffffff00ffffffffffffffffffffffffffffffffffffffffff75ff00000000000000000000000000000000000000000083549260a81b169116179055565b8054680100000000000000008110156102a8576124949160018201815561211d565b7fffffffffffffffffffffffffffffffffffffffffffffffffffffffffffffffff829392549160031b92831b921b1916179055565b906040516124d68161235b565b80928054825273ffffffffffffffffffffffffffffffffffffffff90816001820154166020840152600281015460408401526003810154828116606085015260ff8160a01c169060038210156104ac5760ff91608086015260a81c169060048210156104ac5761018092600a9260a0860152600482015460c0860152600582015460e08601526006820154610100860152600782015461012086015260088201541661014085015260098101546101608501520154910152565b6002600154146125a1576002600155565b60046040517f3ee5aeb5000000000000000000000000000000000000000000000000000000008152fd5b818102929181159184041417156123e657565b919082039182116123e65756fea2646970667358221220359c5301443a4c73a555f2b1824c836b3cf92bc266bac86b095a8260bc0bf7f464736f6c634300081400332f8788117e7eff1d82e926ec794901d17c78024a50270940304540a733656f0d",
  "linkReferences": {},
  "deployedLinkReferences": {}
}