{
  "_format": "hh-sol-artifact-1",
  "contractName": "ModuleRegistry",
  "sourceName": "contracts/layer6/tools/ModuleRegistry.sol",
  "abi": [
    {
      "inputs": [],
      "stateMutability": "nonpayable",
      "type": "constructor"
    },
    {
      "inputs": [],
      "name": "AccessControlBadConfirmation",
      "type": "error"
    },
    {
      "inputs": [
        {
          "internalType": "address",
          "name": "account",
          "type": "address"
        },
        {
          "internalType": "bytes32",
          "name": "neededRole",
          "type": "bytes32"
        }
      ],
      "name": "AccessControlUnauthorizedAccount",
      "type": "error"
    },
    {
      "anonymous": false,
      "inputs": [
        {
          "indexed": true,
          "internalType": "uint256",
          "name": "moduleId",
          "type": "uint256"
        },
        {
          "indexed": true,
          "internalType": "address",
          "name": "author",
          "type": "address"
        },
        {
          "indexed": false,
          "internalType": "string",
          "name": "name",
          "type": "string"
        },
        {
          "indexed": false,
          "internalType": "enum ModuleRegistry.ModuleType",
          "name": "moduleType",
          "type": "uint8"
        }
      ],
      "name": "ModuleRegistered",
      "type": "event"
    },
    {
      "anonymous": false,
      "inputs": [
        {
          "indexed": true,
          "internalType": "uint256",
          "name": "moduleId",
          "type": "uint256"
        },
        {
          "indexed": false,
          "internalType": "enum ModuleRegistry.ModuleStatus",
          "name": "newStatus",
          "type": "uint8"
        }
      ],
      "name": "ModuleStatusChanged",
      "type": "event"
    },
    {
      "anonymous": false,
      "inputs": [
        {
          "indexed": true,
          "internalType": "uint256",
          "name": "moduleId",
          "type": "uint256"
        },
        {
          "indexed": false,
          "internalType": "string",
          "name": "newVersion",
          "type": "string"
        }
      ],
      "name": "ModuleUpdated",
      "type": "event"
    },
    {
      "anonymous": false,
      "inputs": [
        {
          "indexed": true,
          "internalType": "bytes32",
          "name": "role",
          "type": "bytes32"
        },
        {
          "indexed": true,
          "internalType": "bytes32",
          "name": "previousAdminRole",
          "type": "bytes32"
        },
        {
          "indexed": true,
          "internalType": "bytes32",
          "name": "newAdminRole",
          "type": "bytes32"
        }
      ],
      "name": "RoleAdminChanged",
      "type": "event"
    },
    {
      "anonymous": false,
      "inputs": [
        {
          "indexed": true,
          "internalType": "bytes32",
          "name": "role",
          "type": "bytes32"
        },
        {
          "indexed": true,
          "internalType": "address",
          "name": "account",
          "type": "address"
        },
        {
          "indexed": true,
          "internalType": "address",
          "name": "sender",
          "type": "address"
        }
      ],
      "name": "RoleGranted",
      "type": "event"
    },
    {
      "anonymous": false,
      "inputs": [
        {
          "indexed": true,
          "internalType": "bytes32",
          "name": "role",
          "type": "bytes32"
        },
        {
          "indexed": true,
          "internalType": "address",
          "name": "account",
          "type": "address"
        },
        {
          "indexed": true,
          "internalType": "address",
          "name": "sender",
          "type": "address"
        }
      ],
      "name": "RoleRevoked",
      "type": "event"
    },
    {
      "inputs": [],
      "name": "DEFAULT_ADMIN_ROLE",
      "outputs": [
        {
          "internalType": "bytes32",
          "name": "",
          "type": "bytes32"
        }
      ],
      "stateMutability": "view",
      "type": "function"
    },
    {
      "inputs": [],
      "name": "REGISTRAR_ROLE",
      "outputs": [
        {
          "internalType": "bytes32",
          "name": "",
          "type": "bytes32"
        }
      ],
      "stateMutability": "view",
      "type": "function"
    },
    {
      "inputs": [],
      "name": "activeModules",
      "outputs": [
        {
          "internalType": "uint256",
          "name": "",
          "type": "uint256"
        }
      ],
      "stateMutability": "view",
      "type": "function"
    },
    {
      "inputs": [
        {
          "internalType": "address",
          "name": "",
          "type": "address"
        },
        {
          "internalType": "uint256",
          "name": "",
          "type": "uint256"
        }
      ],
      "name": "authorModules",
      "outputs": [
        {
          "internalType": "uint256",
          "name": "",
          "type": "uint256"
        }
      ],
      "stateMutability": "view",
      "type": "function"
    },
    {
      "inputs": [
        {
          "internalType": "address",
          "name": "author",
          "type": "address"
        }
      ],
      "name": "getAuthorModules",
      "outputs": [
        {
          "internalType": "uint256[]",
          "name": "",
          "type": "uint256[]"
        }
      ],
      "stateMutability": "view",
      "type": "function"
    },
    {
      "inputs": [
        {
          "internalType": "uint256",
          "name": "moduleId",
          "type": "uint256"
        }
      ],
      "name": "getModuleDependencies",
      "outputs": [
        {
          "internalType": "string[]",
          "name": "",
          "type": "string[]"
        }
      ],
      "stateMutability": "view",
      "type": "function"
    },
    {
      "inputs": [
        {
          "internalType": "uint256",
          "name": "moduleId",
          "type": "uint256"
        }
      ],
      "name": "getModuleTags",
      "outputs": [
        {
          "internalType": "string[]",
          "name": "",
          "type": "string[]"
        }
      ],
      "stateMutability": "view",
      "type": "function"
    },
    {
      "inputs": [
        {
          "internalType": "enum ModuleRegistry.ModuleType",
          "name": "t",
          "type": "uint8"
        }
      ],
      "name": "getModulesByType",
      "outputs": [
        {
          "internalType": "uint256[]",
          "name": "",
          "type": "uint256[]"
        }
      ],
      "stateMutability": "view",
      "type": "function"
    },
    {
      "inputs": [
        {
          "internalType": "bytes32",
          "name": "role",
          "type": "bytes32"
        }
      ],
      "name": "getRoleAdmin",
      "outputs": [
        {
          "internalType": "bytes32",
          "name": "",
          "type": "bytes32"
        }
      ],
      "stateMutability": "view",
      "type": "function"
    },
    {
      "inputs": [
        {
          "internalType": "bytes32",
          "name": "role",
          "type": "bytes32"
        },
        {
          "internalType": "address",
          "name": "account",
          "type": "address"
        }
      ],
      "name": "grantRole",
      "outputs": [],
      "stateMutability": "nonpayable",
      "type": "function"
    },
    {
      "inputs": [
        {
          "internalType": "bytes32",
          "name": "role",
          "type": "bytes32"
        },
        {
          "internalType": "address",
          "name": "account",
          "type": "address"
        }
      ],
      "name": "hasRole",
      "outputs": [
        {
          "internalType": "bool",
          "name": "",
          "type": "bool"
        }
      ],
      "stateMutability": "view",
      "type": "function"
    },
    {
      "inputs": [
        {
          "internalType": "string",
          "name": "",
          "type": "string"
        }
      ],
      "name": "moduleByName",
      "outputs": [
        {
          "internalType": "uint256",
          "name": "",
          "type": "uint256"
        }
      ],
      "stateMutability": "view",
      "type": "function"
    },
    {
      "inputs": [
        {
          "internalType": "uint256",
          "name": "",
          "type": "uint256"
        },
        {
          "internalType": "uint256",
          "name": "",
          "type": "uint256"
        }
      ],
      "name": "moduleDependencies",
      "outputs": [
        {
          "internalType": "string",
          "name": "",
          "type": "string"
        }
      ],
      "stateMutability": "view",
      "type": "function"
    },
    {
      "inputs": [
        {
          "internalType": "uint256",
          "name": "",
          "type": "uint256"
        },
        {
          "internalType": "uint256",
          "name": "",
          "type": "uint256"
        }
      ],
      "name": "moduleTags",
      "outputs": [
        {
          "internalType": "string",
          "name": "",
          "type": "string"
        }
      ],
      "stateMutability": "view",
      "type": "function"
    },
    {
      "inputs": [
        {
          "internalType": "uint256",
          "name": "",
          "type": "uint256"
        }
      ],
      "name": "modules",
      "outputs": [
        {
          "internalType": "uint256",
          "name": "moduleId",
          "type": "uint256"
        },
        {
          "internalType": "string",
          "name": "name",
          "type": "string"
        },
        {
          "internalType": "string",
          "name": "description",
          "type": "string"
        },
        {
          "internalType": "address",
          "name": "author",
          "type": "address"
        },
        {
          "internalType": "enum ModuleRegistry.ModuleType",
          "name": "moduleType",
          "type": "uint8"
        },
        {
          "internalType": "enum ModuleRegistry.ModuleStatus",
          "name": "status",
          "type": "uint8"
        },
        {
          "internalType": "string",
          "name": "version",
          "type": "string"
        },
        {
          "internalType": "string",
          "name": "interfaceHash",
          "type": "string"
        },
        {
          "internalType": "string",
          "name": "implementationURI",
          "type": "string"
        },
        {
          "internalType": "uint256",
          "name": "registeredAt",
          "type": "uint256"
        },
        {
          "internalType": "uint256",
          "name": "updatedAt",
          "type": "uint256"
        },
        {
          "internalType": "bool",
          "name": "isCompatible",
          "type": "bool"
        },
        {
          "internalType": "uint256",
          "name": "usageCount",
          "type": "uint256"
        }
      ],
      "stateMutability": "view",
      "type": "function"
    },
    {
      "inputs": [
        {
          "internalType": "string",
          "name": "",
          "type": "string"
        },
        {
          "internalType": "uint256",
          "name": "",
          "type": "uint256"
        }
      ],
      "name": "modulesByTag",
      "outputs": [
        {
          "internalType": "uint256",
          "name": "",
          "type": "uint256"
        }
      ],
      "stateMutability": "view",
      "type": "function"
    },
    {
      "inputs": [
        {
          "internalType": "enum ModuleRegistry.ModuleType",
          "name": "",
          "type": "uint8"
        },
        {
          "internalType": "uint256",
          "name": "",
          "type": "uint256"
        }
      ],
      "name": "modulesByType",
      "outputs": [
        {
          "internalType": "uint256",
          "name": "",
          "type": "uint256"
        }
      ],
      "stateMutability": "view",
      "type": "function"
    },
    {
      "inputs": [
        {
          "internalType": "uint256",
          "name": "moduleId",
          "type": "uint256"
        }
      ],
      "name": "recordUsage",
      "outputs": [],
      "stateMutability": "nonpayable",
      "type": "function"
    },
    {
      "inputs": [
        {
          "internalType": "string",
          "name": "name",
          "type": "string"
        },
        {
          "internalType": "string",
          "name": "description",
          "type": "string"
        },
        {
          "internalType": "enum ModuleRegistry.ModuleType",
          "name": "moduleType",
          "type": "uint8"
        },
        {
          "internalType": "string",
          "name": "version",
          "type": "string"
        },
        {
          "internalType": "string[]",
          "name": "tags",
          "type": "string[]"
        },
        {
          "internalType": "string",
          "name": "interfaceHash",
          "type": "string"
        },
        {
          "internalType": "string",
          "name": "implementationURI",
          "type": "string"
        },
        {
          "internalType": "string[]",
          "name": "dependencies",
          "type": "string[]"
        }
      ],
      "name": "registerModule",
      "outputs": [
        {
          "internalType": "uint256",
          "name": "",
          "type": "uint256"
        }
      ],
      "stateMutability": "nonpayable",
      "type": "function"
    },
    {
      "inputs": [
        {
          "internalType": "bytes32",
          "name": "role",
          "type": "bytes32"
        },
        {
          "internalType": "address",
          "name": "callerConfirmation",
          "type": "address"
        }
      ],
      "name": "renounceRole",
      "outputs": [],
      "stateMutability": "nonpayable",
      "type": "function"
    },
    {
      "inputs": [
        {
          "internalType": "bytes32",
          "name": "role",
          "type": "bytes32"
        },
        {
          "internalType": "address",
          "name": "account",
          "type": "address"
        }
      ],
      "name": "revokeRole",
      "outputs": [],
      "stateMutability": "nonpayable",
      "type": "function"
    },
    {
      "inputs": [
        {
          "internalType": "uint256",
          "name": "moduleId",
          "type": "uint256"
        },
        {
          "internalType": "enum ModuleRegistry.ModuleStatus",
          "name": "status",
          "type": "uint8"
        }
      ],
      "name": "setStatus",
      "outputs": [],
      "stateMutability": "nonpayable",
      "type": "function"
    },
    {
      "inputs": [
        {
          "internalType": "bytes4",
          "name": "i",
          "type": "bytes4"
        }
      ],
      "name": "supportsInterface",
      "outputs": [
        {
          "internalType": "bool",
          "name": "",
          "type": "bool"
        }
      ],
      "stateMutability": "view",
      "type": "function"
    },
    {
      "inputs": [],
      "name": "totalModules",
      "outputs": [
        {
          "internalType": "uint256",
          "name": "",
          "type": "uint256"
        }
      ],
      "stateMutability": "view",
      "type": "function"
    },
    {
      "inputs": [
        {
          "internalType": "uint256",
          "name": "moduleId",
          "type": "uint256"
        },
        {
          "internalType": "string",
          "name": "newVersion",
          "type": "string"
        },
        {
          "internalType": "string",
          "name": "newURI",
          "type": "string"
        }
      ],
      "name": "updateModule",
      "outputs": [],
      "stateMutability": "nonpayable",
      "type": "function"
    }
  ],
  "bytecode": "0x6080604052346200003257620000153362000037565b506200002133620000b7565b5060405161233690816200015a8239f35b600080fd5b6001600160a01b031660008181527fad3228b676f7d3cd4284a5443f17f1962b36e491b30a40b2405849e597ba5fb5602052604081205490919060ff16620000b357818052816020526040822081835260205260408220600160ff198254161790553391600080516020620024908339815191528180a4600190565b5090565b6001600160a01b031660008181527f01ddc098da42acdf4176da08ec75800bc0fb2bce2be978b2037bcb0ae696651960205260408120549091907fedcc084d3dcd65a1f7f23c65c46722faca6953d28e43150a467cf43e5c3092389060ff166200015457808352826020526040832082845260205260408320600160ff1982541617905560008051602062002490833981519152339380a4600190565b50509056fe608080604052600436101561001357600080fd5b60003560e01c90816301ffc9a714611bfe575080630a90ea7f14611b835780631a3346e814611846578063209fee3514611810578063211aa5c114611795578063248a9ca3146117665780632f2ff15d14611727578063320e27951461166557806336568abe146115f957806338e36522146115bb5780633c30fd281461081057806378bbd701146107f25780637b4d981e146107d457806381b2248a1461068b57806391d148541461063057806399021a0f146105e0578063a217fddf146105c4578063ac90b42214610554578063ae926efc146104ff578063cb7812a6146104a2578063d547741f14610461578063d84bfecb146103e7578063d896dd6414610207578063f446f32a146101725763f68e95531461013257600080fd5b3461016d57600060031936011261016d5760206040517fedcc084d3dcd65a1f7f23c65c46722faca6953d28e43150a467cf43e5c3092388152f35b600080fd5b3461016d5760208060031936011261016d5773ffffffffffffffffffffffffffffffffffffffff6101a1611fb6565b1660005260058152604060002090604051908181845491828152019360005281600020916000905b8282106101f0576101ec856101e081890382611d64565b604051918291826120a5565b0390f35b8354865294850194600193840193909101906101c9565b3461016d57604060031936011261016d5760043560243560048110158061016d573360009081527fad3228b676f7d3cd4284a5443f17f1962b36e491b30a40b2405849e597ba5fb5602052604090205460ff16156103b05782600052600260205260ff60036040600020015460a81c16600481101561032e5760011480806103a1575b61035d575b1590816102fe575b507f56abede5b6d2bbf7ed6d9aaae9f510964961d387f55a1c5b2ad43bca9a330952916020916102eb575b83600052600282526102db816003604060002001612277565b6102e86040518092612098565ba2005b6102f6600a54612251565b600a556102c2565b905061032e57600181147f56abede5b6d2bbf7ed6d9aaae9f510964961d387f55a1c5b2ad43bca9a330952610297565b7f4e487b7100000000000000000000000000000000000000000000000000000000600052602160045260246000fd5b600a5480156103725760001901600a5561028f565b7f4e487b7100000000000000000000000000000000000000000000000000000000600052601160045260246000fd5b5060009150600183141561028a565b60446040517fe2517d3f00000000000000000000000000000000000000000000000000000000815233600482015260006024820152fd5b3461016d57604060031936011261016d5760043567ffffffffffffffff811161016d57610418903690600401611d87565b6104346020602435928160405193828580945193849201611c9c565b81016008815203019020805482101561016d5760209161045391611df4565b90546040519160031b1c8152f35b3461016d57604060031936011261016d576104a0600435610480611f93565b9080600052600060205261049b6001604060002001546120e0565b6121b0565b005b3461016d57602060031936011261016d5760043567ffffffffffffffff811161016d576104ec60206104d981933690600401611d87565b8160405193828580945193849201611c9c565b8101600681520301902054604051908152f35b3461016d57604060031936011261016d57610518611fb6565b73ffffffffffffffffffffffffffffffffffffffff602435911660005260056020526040600020805482101561016d5760209161045391611df4565b3461016d5760208060031936011261016d57600435600681101561016d5761057b90611fd9565b90604051908181845491828152019360005281600020916000905b8282106105ad576101ec856101e081890382611d64565b835486529485019460019384019390910190610596565b3461016d57600060031936011261016d57602060405160008152f35b3461016d576105ee36611dde565b906000526003602052604060002090815481101561016d5761061661061c916101ec93611df4565b90611f53565b604051918291602083526020830190611cbf565b3461016d57604060031936011261016d57610649611f93565b600435600052600060205273ffffffffffffffffffffffffffffffffffffffff60406000209116600052602052602060ff604060002054166040519015158152f35b3461016d57602060031936011261016d57600435600052600260205260406000208054600182016106bb90611e8e565b916106c860028201611e8e565b6003820154916106da60048201611e8e565b926106e760058301611e8e565b6106f360068401611e8e565b90600784015495600885015493600986015460ff1695600a0154966040519a8b9a8b526101a08060208d01528b0161072a91611cbf565b8a810360408c015261073b91611cbf565b73ffffffffffffffffffffffffffffffffffffffff821660608b01529061076c60808b0160ff60a084901c1661208b565b60a08a019060a81c60ff169061078191612098565b88810360c08a015261079291611cbf565b87810360e08901526107a391611cbf565b8681036101008801526107b591611cbf565b9361012086015261014085015215156101608401526101808301520390f35b3461016d57600060031936011261016d576020600a54604051908152f35b3461016d57600060031936011261016d576020600954604051908152f35b3461016d5761010060031936011261016d5760043567ffffffffffffffff811161016d57610842903690600401611d87565b60243567ffffffffffffffff811161016d57610862903690600401611d87565b6006604435101561016d5760643567ffffffffffffffff811161016d5761088d903690600401611d87565b9060843567ffffffffffffffff811161016d576108ae90369060040161200a565b9060a43567ffffffffffffffff811161016d576108cf903690600401611d87565b9060c43567ffffffffffffffff811161016d576108f0903690600401611d87565b60e43567ffffffffffffffff811161016d5761091090369060040161200a565b9286511561155d576040516020818161092f8b83815193849201611c9c565b81016006815203019020546114ff57610949600154612251565b958660015560405193846101a081011067ffffffffffffffff6101a087011117610f53576101a0850160405287855288602086015260408501523360608501526044356080850152600160a085015260c084015260e083015261010082015242610120820152426101408201526001610160820152600061018082015283600052600260205260406000209080518255602081015180519067ffffffffffffffff8211610f535781906109ff6001860154611e3b565b601f81116114ca575b50602090601f83116001146114585760009261144d575b50506000198260011b9260031b1c19161760018301555b604081015180519067ffffffffffffffff8211610f53578190610a5c6002860154611e3b565b601f8111611418575b50602090601f83116001146113a65760009261139b575b50506000198260011b9260031b1c19161760028301555b6003820173ffffffffffffffffffffffffffffffffffffffff6060830151168154906080840151600681101561032e5774ff00000000000000000000000000000000000000007fffffffffffffffffffffff0000000000000000000000000000000000000000009160a01b1692161717815560a0820151600481101561032e57610b1c91612277565b60c081015180519067ffffffffffffffff8211610f53578190610b426004860154611e3b565b601f8111611366575b50602090601f83116001146112f4576000926112e9575b50506000198260011b9260031b1c19161760048301555b60e081015180519067ffffffffffffffff8211610f53578190610b9f6005860154611e3b565b601f81116112b4575b50602090601f831160011461124257600092611237575b50506000198260011b9260031b1c19161760058301555b61010081015180519067ffffffffffffffff8211610f5357610bfb6006850154611e3b565b601f8111611202575b50602090601f831160011461118c579180600a949261018094600092611181575b50506000198260011b9260031b1c19161760068501555b6101208101516007850155610140810151600885015560098401610160820151151560ff7fffffffffffffffffffffffffffffffffffffffffffffffffffffffffffffff008354169116179055015191015582600052600360205260406000208251680100000000000000008111610f5357815481835580821061110c575b5060208401916000526020600020916000905b828210610ff75750505050826000526004602052604060002090805190680100000000000000008211610f53578254828455808310610f82575b50602001916000526020600020916000905b828210610e335750505050816040516020818651610d3b8183858b01611c9c565b8101600681520301902055336000526005602052610d5d8260406000206122c7565b610d7182610d6c604435611fd9565b6122c7565b60005b8151811015610dbf5780610db584610da6602080610dba9660051b880101518160405193828580945193849201611c9c565b810160088152030190206122c7565b612251565b610d74565b60208385610dce600954612251565b600955610ddc600a54612251565b600a55817fb00c0f4582087f6df9847bf7f85ba6536370a64b10e00d3ad8addc27650f40ec610e1660405193604085526040850190611cbf565b92610e2586820160443561208b565b8033940390a3604051908152f35b805180519067ffffffffffffffff8211610f5357610e518654611e3b565b601f8111610f16575b50602090601f8311600114610ea6579282600194936020938695600092610e9b575b505060001982861b9260031b1c19161787555b01940191019092610d1a565b015190508c80610e7c565b908660005260206000209160005b601f1985168110610efe5750836020936001969387969383601f1989961610610ee5575b505050811b018755610e8f565b015160001960f88460031b161c191690558c8080610ed8565b91926020600181928685015181550194019201610eb4565b610f4390876000526020600020601f850160051c81019160208610610f49575b601f0160051c0190612260565b89610e5a565b9091508190610f36565b7f4e487b7100000000000000000000000000000000000000000000000000000000600052604160045260246000fd5b836000526020600020908382015b8183018110610fa0575050610d08565b80610fad60019254611e3b565b80610fba575b5001610f90565b601f81118314610fd05750600081555b8a610fb3565b600090828252610fee601f60208420920160051c8201858301612260565b81835555610fca565b805180519067ffffffffffffffff8211610f53576110158654611e3b565b601f81116110da575b50602090601f831160011461106a57928260019493602093869560009261105f575b505060001982861b9260031b1c19161787555b01940191019092610cce565b015190508d80611040565b908660005260206000209160005b601f19851681106110c25750836020936001969387969383601f19899616106110a9575b505050811b018755611053565b015160001960f88460031b161c191690558d808061109c565b91926020600181928685015181550194019201611078565b61110690876000526020600020601f850160051c81019160208610610f4957601f0160051c0190612260565b8a61101e565b826000526020600020908282015b818301811061112a575050610cbb565b8061113760019254611e3b565b80611144575b500161111a565b601f8111831461115a5750600081555b8a61113d565b600090828252611178601f60208420920160051c8201858301612260565b81835555611154565b015190508a80610c25565b906006850160005260206000209160005b601f19851681106111ea575092600a94926001926101809583601f198116106111d1575b505050811b016006850155610c3c565b015160001960f88460031b161c191690558a80806111c1565b9192602060018192868501518155019401920161119d565b61123190600686016000526020600020601f850160051c81019160208610610f4957601f0160051c0190612260565b88610c04565b015190508880610bbf565b9250600585016000526020600020906000935b601f1984168510611299576001945083601f19811610611280575b505050811b016005830155610bd6565b015160001960f88460031b161c19169055888080611270565b81810151835560209485019460019093019290910190611255565b6112e390600587016000526020600020601f850160051c81019160208610610f4957601f0160051c0190612260565b89610ba8565b015190508880610b62565b9250600485016000526020600020906000935b601f198416851061134b576001945083601f19811610611332575b505050811b016004830155610b79565b015160001960f88460031b161c19169055888080611322565b81810151835560209485019460019093019290910190611307565b61139590600487016000526020600020601f850160051c81019160208610610f4957601f0160051c0190612260565b89610b4b565b015190508880610a7c565b9250600285016000526020600020906000935b601f19841685106113fd576001945083601f198116106113e4575b505050811b016002830155610a93565b015160001960f88460031b161c191690558880806113d4565b818101518355602094850194600190930192909101906113b9565b61144790600287016000526020600020601f850160051c81019160208610610f4957601f0160051c0190612260565b89610a65565b015190508880610a1f565b9250600185016000526020600020906000935b601f19841685106114af576001945083601f19811610611496575b505050811b016001830155610a36565b015160001960f88460031b161c19169055888080611486565b8181015183556020948501946001909301929091019061146b565b6114f990600187016000526020600020601f850160051c81019160208610610f4957601f0160051c0190612260565b89610a08565b60646040517f08c379a000000000000000000000000000000000000000000000000000000000815260206004820152600a60248201527f4e616d652074616b656e000000000000000000000000000000000000000000006044820152fd5b60646040517f08c379a000000000000000000000000000000000000000000000000000000000815260206004820152600d60248201527f4e616d65207265717569726564000000000000000000000000000000000000006044820152fd5b3461016d57604060031936011261016d57600435600681101561016d576115e460243591611fd9565b805482101561016d5760209161045391611df4565b3461016d57604060031936011261016d57611612611f93565b3373ffffffffffffffffffffffffffffffffffffffff82160361163b576104a0906004356121b0565b60046040517f6697b232000000000000000000000000000000000000000000000000000000008152fd5b3461016d57602060031936011261016d573360009081527f01ddc098da42acdf4176da08ec75800bc0fb2bce2be978b2037bcb0ae696651960205260409020547fedcc084d3dcd65a1f7f23c65c46722faca6953d28e43150a467cf43e5c3092389060ff16156116f0576004356000526002602052600a6040600020016116ec8154612251565b9055005b604490604051907fe2517d3f0000000000000000000000000000000000000000000000000000000082523360048301526024820152fd5b3461016d57604060031936011261016d576104a0600435611746611f93565b908060005260006020526117616001604060002001546120e0565b612106565b3461016d57602060031936011261016d5760043560005260006020526020600160406000200154604051908152f35b3461016d5760208060031936011261016d5760043560005260038152604060002080546117c181611ff2565b916117cf6040519384611d64565b8183526000908152838120938084015b8383106117f457604051806101ec8782611ce4565b600182819261180289611e8e565b8152019601920191946117df565b3461016d5761181e36611dde565b906000526004602052604060002090815481101561016d5761061661061c916101ec93611df4565b3461016d57606060031936011261016d5767ffffffffffffffff60043560243582811161016d5761187b903690600401611d87565b60443583811161016d57611893903690600401611d87565b826000526020906002825273ffffffffffffffffffffffffffffffffffffffff600360406000200154163303611b255783600052600282526004604060002001835190868211610f53576118e78154611e3b565b91601f92838111611af7575b508085848211600114611a9657600091611a8b575b506000198260011b9260031b1c19161790555b84600052600283526006604060002001918051968711610f535761193f8354611e3b565b828111611a53575b50839187116001146119cb579580917f36c2dbe01a5435f82b23730dcf4cb90fb6919acda3f5f6edf936c50b03e2fe9f96976000926119c0575b50506000198260011b9260031b1c19161790555b8360005260028152426008604060002001556119bb604051928284938452830190611cbf565b0390a2005b015190508780611981565b90601f1987169183600052846000209260005b818110611a3c57509160019391897f36c2dbe01a5435f82b23730dcf4cb90fb6919acda3f5f6edf936c50b03e2fe9f999a9410611a23575b505050811b019055611995565b015160001960f88460031b161c19169055878080611a16565b9293866001819287860151815501950193016119de565b611a7c90846000528560002084808b0160051c820192888c10611a82575b0160051c0190612260565b87611947565b92508192611a71565b905086015189611908565b600084815287812092601f1916905b88828210611ae15750509083600194939210611ac8575b5050811b01905561191b565b88015160001960f88460031b161c191690558980611abc565b600184958293958d015181550194019201611aa5565b611b1f9083600052866000208580850160051c820192898610611a82570160051c0190612260565b886118f3565b606482604051907f08c379a00000000000000000000000000000000000000000000000000000000082526004820152600a60248201527f4e6f7420617574686f72000000000000000000000000000000000000000000006044820152fd5b3461016d5760208060031936011261016d576004356000526004815260406000208054611baf81611ff2565b91611bbd6040519384611d64565b8183526000908152838120938084015b838310611be257604051806101ec8782611ce4565b6001828192611bf089611e8e565b815201960192019194611bcd565b3461016d57602060031936011261016d57600435907fffffffff00000000000000000000000000000000000000000000000000000000821680920361016d57817f7965db0b0000000000000000000000000000000000000000000000000000000060209314908115611c72575b5015158152f35b7f01ffc9a70000000000000000000000000000000000000000000000000000000091501483611c6b565b60005b838110611caf5750506000910152565b8181015183820152602001611c9f565b90601f19601f602093611cdd81518092818752878088019101611c9c565b0116010190565b602080820190808352835180925260408301928160408460051b8301019501936000915b848310611d185750505050505090565b9091929394958480611d54837fffffffffffffffffffffffffffffffffffffffffffffffffffffffffffffffc086600196030187528a51611cbf565b9801930193019194939290611d08565b90601f601f19910116810190811067ffffffffffffffff821117610f5357604052565b81601f8201121561016d5780359067ffffffffffffffff8211610f535760405192611dbc6020601f19601f8601160185611d64565b8284526020838301011161016d57816000926020809301838601378301015290565b600319604091011261016d576004359060243590565b8054821015611e0c5760005260206000200190600090565b7f4e487b7100000000000000000000000000000000000000000000000000000000600052603260045260246000fd5b90600182811c92168015611e84575b6020831014611e5557565b7f4e487b7100000000000000000000000000000000000000000000000000000000600052602260045260246000fd5b91607f1691611e4a565b9060405191826000825492611ea284611e3b565b908184526001948581169081600014611f115750600114611ece575b5050611ecc92500383611d64565b565b9093915060005260209081600020936000915b818310611ef9575050611ecc93508201013880611ebe565b85548884018501529485019487945091830191611ee1565b9050611ecc9550602093507fffffffffffffffffffffffffffffffffffffffffffffffffffffffffffffff0091501682840152151560051b8201013880611ebe565b90611f6457611f6190611e8e565b90565b7f4e487b7100000000000000000000000000000000000000000000000000000000600052600060045260246000fd5b6024359073ffffffffffffffffffffffffffffffffffffffff8216820361016d57565b6004359073ffffffffffffffffffffffffffffffffffffffff8216820361016d57565b600681101561032e576000526007602052604060002090565b67ffffffffffffffff8111610f535760051b60200190565b9080601f8301121561016d5781359061202282611ff2565b926120306040519485611d64565b828452602092838086019160051b8301019280841161016d57848301915b84831061205e5750505050505090565b823567ffffffffffffffff811161016d57869161208084848094890101611d87565b81520192019161204e565b90600682101561032e5752565b90600482101561032e5752565b6020908160408183019282815285518094520193019160005b8281106120cc575050505090565b8351855293810193928101926001016120be565b80600052600060205260406000203360005260205260ff60406000205416156116f05750565b906000918083528260205273ffffffffffffffffffffffffffffffffffffffff6040842092169182845260205260ff604084205416156000146121ab5780835282602052604083208284526020526040832060017fffffffffffffffffffffffffffffffffffffffffffffffffffffffffffffff008254161790557f2f8788117e7eff1d82e926ec794901d17c78024a50270940304540a733656f0d339380a4600190565b505090565b906000918083528260205273ffffffffffffffffffffffffffffffffffffffff6040842092169182845260205260ff6040842054166000146121ab578083528260205260408320828452602052604083207fffffffffffffffffffffffffffffffffffffffffffffffffffffffffffffff0081541690557ff6391f5c32d9c69d2a47ea670b442974b53935d1edc7fd64eb21e047a839171b339380a4600190565b60001981146103725760010190565b81811061226b575050565b60008155600101612260565b90600481101561032e577fffffffffffffffffffff00ffffffffffffffffffffffffffffffffffffffffff75ff00000000000000000000000000000000000000000083549260a81b169116179055565b805468010000000000000000811015610f53576122e991600182018155611df4565b600019829392549160031b92831b921b191617905556fea2646970667358221220c37c5640af18b1597666d1bcea4e1c45494b58116f278e1f0526849ad713339664736f6c634300081400332f8788117e7eff1d82e926ec794901d17c78024a50270940304540a733656f0d",
  "linkReferences": {},
  "deployedLinkReferences": {}
}