{
  "_format": "hh-sol-artifact-1",
  "contractName": "AuctionHouse",
  "sourceName": "contracts/layer6/marketplace/AuctionHouse.sol",
  "abi": [
    {
      "inputs": [
        {
          "internalType": "address",
          "name": "_treasury",
          "type": "address"
        }
      ],
      "stateMutability": "nonpayable",
      "type": "constructor"
    },
    {
      "inputs": [],
      "name": "AccessControlBadConfirmation",
      "type": "error"
    },
    {
      "inputs": [
        {
          "internalType": "address",
          "name": "account",
          "type": "address"
        },
        {
          "internalType": "bytes32",
          "name": "neededRole",
          "type": "bytes32"
        }
      ],
      "name": "AccessControlUnauthorizedAccount",
      "type": "error"
    },
    {
      "inputs": [],
      "name": "ReentrancyGuardReentrantCall",
      "type": "error"
    },
    {
      "anonymous": false,
      "inputs": [
        {
          "indexed": true,
          "internalType": "uint256",
          "name": "auctionId",
          "type": "uint256"
        }
      ],
      "name": "AuctionCancelled",
      "type": "event"
    },
    {
      "anonymous": false,
      "inputs": [
        {
          "indexed": true,
          "internalType": "uint256",
          "name": "auctionId",
          "type": "uint256"
        },
        {
          "indexed": true,
          "internalType": "address",
          "name": "seller",
          "type": "address"
        },
        {
          "indexed": false,
          "internalType": "enum AuctionHouse.AuctionType",
          "name": "auctionType",
          "type": "uint8"
        },
        {
          "indexed": false,
          "internalType": "uint256",
          "name": "startPrice",
          "type": "uint256"
        },
        {
          "indexed": false,
          "internalType": "uint256",
          "name": "endTime",
          "type": "uint256"
        }
      ],
      "name": "AuctionCreated",
      "type": "event"
    },
    {
      "anonymous": false,
      "inputs": [
        {
          "indexed": true,
          "internalType": "uint256",
          "name": "auctionId",
          "type": "uint256"
        },
        {
          "indexed": true,
          "internalType": "address",
          "name": "winner",
          "type": "address"
        },
        {
          "indexed": false,
          "internalType": "uint256",
          "name": "finalPrice",
          "type": "uint256"
        }
      ],
      "name": "AuctionSettled",
      "type": "event"
    },
    {
      "anonymous": false,
      "inputs": [
        {
          "indexed": true,
          "internalType": "uint256",
          "name": "auctionId",
          "type": "uint256"
        },
        {
          "indexed": true,
          "internalType": "address",
          "name": "bidder",
          "type": "address"
        },
        {
          "indexed": false,
          "internalType": "uint256",
          "name": "amount",
          "type": "uint256"
        }
      ],
      "name": "BidPlaced",
      "type": "event"
    },
    {
      "anonymous": false,
      "inputs": [
        {
          "indexed": true,
          "internalType": "uint256",
          "name": "auctionId",
          "type": "uint256"
        },
        {
          "indexed": true,
          "internalType": "address",
          "name": "buyer",
          "type": "address"
        },
        {
          "indexed": false,
          "internalType": "uint256",
          "name": "price",
          "type": "uint256"
        }
      ],
      "name": "DutchPurchase",
      "type": "event"
    },
    {
      "anonymous": false,
      "inputs": [
        {
          "indexed": true,
          "internalType": "bytes32",
          "name": "role",
          "type": "bytes32"
        },
        {
          "indexed": true,
          "internalType": "bytes32",
          "name": "previousAdminRole",
          "type": "bytes32"
        },
        {
          "indexed": true,
          "internalType": "bytes32",
          "name": "newAdminRole",
          "type": "bytes32"
        }
      ],
      "name": "RoleAdminChanged",
      "type": "event"
    },
    {
      "anonymous": false,
      "inputs": [
        {
          "indexed": true,
          "internalType": "bytes32",
          "name": "role",
          "type": "bytes32"
        },
        {
          "indexed": true,
          "internalType": "address",
          "name": "account",
          "type": "address"
        },
        {
          "indexed": true,
          "internalType": "address",
          "name": "sender",
          "type": "address"
        }
      ],
      "name": "RoleGranted",
      "type": "event"
    },
    {
      "anonymous": false,
      "inputs": [
        {
          "indexed": true,
          "internalType": "bytes32",
          "name": "role",
          "type": "bytes32"
        },
        {
          "indexed": true,
          "internalType": "address",
          "name": "account",
          "type": "address"
        },
        {
          "indexed": true,
          "internalType": "address",
          "name": "sender",
          "type": "address"
        }
      ],
      "name": "RoleRevoked",
      "type": "event"
    },
    {
      "inputs": [],
      "name": "DEFAULT_ADMIN_ROLE",
      "outputs": [
        {
          "internalType": "bytes32",
          "name": "",
          "type": "bytes32"
        }
      ],
      "stateMutability": "view",
      "type": "function"
    },
    {
      "inputs": [],
      "name": "OPERATOR_ROLE",
      "outputs": [
        {
          "internalType": "bytes32",
          "name": "",
          "type": "bytes32"
        }
      ],
      "stateMutability": "view",
      "type": "function"
    },
    {
      "inputs": [
        {
          "internalType": "uint256",
          "name": "",
          "type": "uint256"
        }
      ],
      "name": "auctions",
      "outputs": [
        {
          "internalType": "uint256",
          "name": "auctionId",
          "type": "uint256"
        },
        {
          "internalType": "address",
          "name": "seller",
          "type": "address"
        },
        {
          "internalType": "address",
          "name": "nftContract",
          "type": "address"
        },
        {
          "internalType": "uint256",
          "name": "tokenId",
          "type": "uint256"
        },
        {
          "internalType": "uint256",
          "name": "amount",
          "type": "uint256"
        },
        {
          "internalType": "enum AuctionHouse.TokenType",
          "name": "tokenType",
          "type": "uint8"
        },
        {
          "internalType": "enum AuctionHouse.AuctionType",
          "name": "auctionType",
          "type": "uint8"
        },
        {
          "internalType": "uint256",
          "name": "startPrice",
          "type": "uint256"
        },
        {
          "internalType": "uint256",
          "name": "reservePrice",
          "type": "uint256"
        },
        {
          "internalType": "uint256",
          "name": "currentBid",
          "type": "uint256"
        },
        {
          "internalType": "address",
          "name": "currentBidder",
          "type": "address"
        },
        {
          "internalType": "uint256",
          "name": "startTime",
          "type": "uint256"
        },
        {
          "internalType": "uint256",
          "name": "endTime",
          "type": "uint256"
        },
        {
          "internalType": "uint256",
          "name": "minBidIncrement",
          "type": "uint256"
        },
        {
          "internalType": "enum AuctionHouse.AuctionStatus",
          "name": "status",
          "type": "uint8"
        },
        {
          "internalType": "uint256",
          "name": "dutchEndPrice",
          "type": "uint256"
        },
        {
          "internalType": "uint256",
          "name": "totalBids",
          "type": "uint256"
        }
      ],
      "stateMutability": "view",
      "type": "function"
    },
    {
      "inputs": [
        {
          "internalType": "uint256",
          "name": "",
          "type": "uint256"
        },
        {
          "internalType": "uint256",
          "name": "",
          "type": "uint256"
        }
      ],
      "name": "bidHistory",
      "outputs": [
        {
          "internalType": "address",
          "name": "bidder",
          "type": "address"
        },
        {
          "internalType": "uint256",
          "name": "amount",
          "type": "uint256"
        },
        {
          "internalType": "uint256",
          "name": "timestamp",
          "type": "uint256"
        }
      ],
      "stateMutability": "view",
      "type": "function"
    },
    {
      "inputs": [
        {
          "internalType": "uint256",
          "name": "auctionId",
          "type": "uint256"
        }
      ],
      "name": "buyDutch",
      "outputs": [],
      "stateMutability": "payable",
      "type": "function"
    },
    {
      "inputs": [
        {
          "internalType": "uint256",
          "name": "auctionId",
          "type": "uint256"
        }
      ],
      "name": "cancelAuction",
      "outputs": [],
      "stateMutability": "nonpayable",
      "type": "function"
    },
    {
      "inputs": [
        {
          "internalType": "address",
          "name": "nftContract",
          "type": "address"
        },
        {
          "internalType": "uint256",
          "name": "tokenId",
          "type": "uint256"
        },
        {
          "internalType": "uint256",
          "name": "amount",
          "type": "uint256"
        },
        {
          "internalType": "enum AuctionHouse.TokenType",
          "name": "tokenType",
          "type": "uint8"
        },
        {
          "internalType": "uint256",
          "name": "startPrice",
          "type": "uint256"
        },
        {
          "internalType": "uint256",
          "name": "endPrice",
          "type": "uint256"
        },
        {
          "internalType": "uint256",
          "name": "duration",
          "type": "uint256"
        }
      ],
      "name": "createDutchAuction",
      "outputs": [
        {
          "internalType": "uint256",
          "name": "",
          "type": "uint256"
        }
      ],
      "stateMutability": "nonpayable",
      "type": "function"
    },
    {
      "inputs": [
        {
          "internalType": "address",
          "name": "nftContract",
          "type": "address"
        },
        {
          "internalType": "uint256",
          "name": "tokenId",
          "type": "uint256"
        },
        {
          "internalType": "uint256",
          "name": "amount",
          "type": "uint256"
        },
        {
          "internalType": "enum AuctionHouse.TokenType",
          "name": "tokenType",
          "type": "uint8"
        },
        {
          "internalType": "uint256",
          "name": "startPrice",
          "type": "uint256"
        },
        {
          "internalType": "uint256",
          "name": "reservePrice",
          "type": "uint256"
        },
        {
          "internalType": "uint256",
          "name": "duration",
          "type": "uint256"
        },
        {
          "internalType": "uint256",
          "name": "minBidIncrement",
          "type": "uint256"
        }
      ],
      "name": "createEnglishAuction",
      "outputs": [
        {
          "internalType": "uint256",
          "name": "",
          "type": "uint256"
        }
      ],
      "stateMutability": "nonpayable",
      "type": "function"
    },
    {
      "inputs": [
        {
          "internalType": "uint256",
          "name": "auctionId",
          "type": "uint256"
        }
      ],
      "name": "getBidHistory",
      "outputs": [
        {
          "components": [
            {
              "internalType": "address",
              "name": "bidder",
              "type": "address"
            },
            {
              "internalType": "uint256",
              "name": "amount",
              "type": "uint256"
            },
            {
              "internalType": "uint256",
              "name": "timestamp",
              "type": "uint256"
            }
          ],
          "internalType": "struct AuctionHouse.Bid[]",
          "name": "",
          "type": "tuple[]"
        }
      ],
      "stateMutability": "view",
      "type": "function"
    },
    {
      "inputs": [
        {
          "internalType": "uint256",
          "name": "auctionId",
          "type": "uint256"
        }
      ],
      "name": "getDutchPrice",
      "outputs": [
        {
          "internalType": "uint256",
          "name": "",
          "type": "uint256"
        }
      ],
      "stateMutability": "view",
      "type": "function"
    },
    {
      "inputs": [
        {
          "internalType": "bytes32",
          "name": "role",
          "type": "bytes32"
        }
      ],
      "name": "getRoleAdmin",
      "outputs": [
        {
          "internalType": "bytes32",
          "name": "",
          "type": "bytes32"
        }
      ],
      "stateMutability": "view",
      "type": "function"
    },
    {
      "inputs": [
        {
          "internalType": "address",
          "name": "user",
          "type": "address"
        }
      ],
      "name": "getUserAuctions",
      "outputs": [
        {
          "internalType": "uint256[]",
          "name": "",
          "type": "uint256[]"
        }
      ],
      "stateMutability": "view",
      "type": "function"
    },
    {
      "inputs": [
        {
          "internalType": "bytes32",
          "name": "role",
          "type": "bytes32"
        },
        {
          "internalType": "address",
          "name": "account",
          "type": "address"
        }
      ],
      "name": "grantRole",
      "outputs": [],
      "stateMutability": "nonpayable",
      "type": "function"
    },
    {
      "inputs": [
        {
          "internalType": "bytes32",
          "name": "role",
          "type": "bytes32"
        },
        {
          "internalType": "address",
          "name": "account",
          "type": "address"
        }
      ],
      "name": "hasRole",
      "outputs": [
        {
          "internalType": "bool",
          "name": "",
          "type": "bool"
        }
      ],
      "stateMutability": "view",
      "type": "function"
    },
    {
      "inputs": [
        {
          "internalType": "address",
          "name": "",
          "type": "address"
        }
      ],
      "name": "pendingReturns",
      "outputs": [
        {
          "internalType": "uint256",
          "name": "",
          "type": "uint256"
        }
      ],
      "stateMutability": "view",
      "type": "function"
    },
    {
      "inputs": [
        {
          "internalType": "uint256",
          "name": "auctionId",
          "type": "uint256"
        }
      ],
      "name": "placeBid",
      "outputs": [],
      "stateMutability": "payable",
      "type": "function"
    },
    {
      "inputs": [],
      "name": "platformFeeBps",
      "outputs": [
        {
          "internalType": "uint256",
          "name": "",
          "type": "uint256"
        }
      ],
      "stateMutability": "view",
      "type": "function"
    },
    {
      "inputs": [
        {
          "internalType": "bytes32",
          "name": "role",
          "type": "bytes32"
        },
        {
          "internalType": "address",
          "name": "callerConfirmation",
          "type": "address"
        }
      ],
      "name": "renounceRole",
      "outputs": [],
      "stateMutability": "nonpayable",
      "type": "function"
    },
    {
      "inputs": [
        {
          "internalType": "bytes32",
          "name": "role",
          "type": "bytes32"
        },
        {
          "internalType": "address",
          "name": "account",
          "type": "address"
        }
      ],
      "name": "revokeRole",
      "outputs": [],
      "stateMutability": "nonpayable",
      "type": "function"
    },
    {
      "inputs": [
        {
          "internalType": "uint256",
          "name": "bps",
          "type": "uint256"
        }
      ],
      "name": "setPlatformFee",
      "outputs": [],
      "stateMutability": "nonpayable",
      "type": "function"
    },
    {
      "inputs": [
        {
          "internalType": "uint256",
          "name": "auctionId",
          "type": "uint256"
        }
      ],
      "name": "settleAuction",
      "outputs": [],
      "stateMutability": "nonpayable",
      "type": "function"
    },
    {
      "inputs": [
        {
          "internalType": "bytes4",
          "name": "i",
          "type": "bytes4"
        }
      ],
      "name": "supportsInterface",
      "outputs": [
        {
          "internalType": "bool",
          "name": "",
          "type": "bool"
        }
      ],
      "stateMutability": "view",
      "type": "function"
    },
    {
      "inputs": [],
      "name": "totalAuctionVolume",
      "outputs": [
        {
          "internalType": "uint256",
          "name": "",
          "type": "uint256"
        }
      ],
      "stateMutability": "view",
      "type": "function"
    },
    {
      "inputs": [],
      "name": "totalAuctions",
      "outputs": [
        {
          "internalType": "uint256",
          "name": "",
          "type": "uint256"
        }
      ],
      "stateMutability": "view",
      "type": "function"
    },
    {
      "inputs": [],
      "name": "treasury",
      "outputs": [
        {
          "internalType": "address",
          "name": "",
          "type": "address"
        }
      ],
      "stateMutability": "view",
      "type": "function"
    },
    {
      "inputs": [
        {
          "internalType": "address",
          "name": "",
          "type": "address"
        },
        {
          "internalType": "uint256",
          "name": "",
          "type": "uint256"
        }
      ],
      "name": "userAuctions",
      "outputs": [
        {
          "internalType": "uint256",
          "name": "",
          "type": "uint256"
        }
      ],
      "stateMutability": "view",
      "type": "function"
    },
    {
      "inputs": [],
      "name": "withdraw",
      "outputs": [],
      "stateMutability": "nonpayable",
      "type": "function"
    }
  ],
  "bytecode": "0x6080346200009b57601f6200266138819003918201601f19168301916001600160401b03831184841017620000a0578084926020946040528339810103126200009b57516001600160a01b038116908190036200009b576001805560fa600855600780546001600160a01b0319169190911790556200007e33620000b6565b506200008a3362000136565b506040516124689081620001d98239f35b600080fd5b634e487b7160e01b600052604160045260246000fd5b6001600160a01b031660008181527fad3228b676f7d3cd4284a5443f17f1962b36e491b30a40b2405849e597ba5fb5602052604081205490919060ff166200013257818052816020526040822081835260205260408220600160ff198254161790553391600080516020620026418339815191528180a4600190565b5090565b6001600160a01b031660008181527fee57cd81e84075558e8fcc182a1f4393f91fc97f963a136e66b7f949a62f319f60205260408120549091907f97667070c54ef182b0f5858b034beac1b6f3089aa2d3188bb1e8929f4fa9b9299060ff16620001d357808352826020526040832082845260205260408320600160ff1982541617905560008051602062002641833981519152339380a4600190565b50509056fe608080604052600436101561001357600080fd5b60003560e01c90816301ffc9a7146119fc5750806312e8e2c31461196b57806316002f4a1461194d57806322dcd13e1461192f578063248a9ca31461190057806326b387bb146118b95780632e993611146116185780632f2ff15d146115d957806336568abe1461156d5780633ccfd60b146114d9578063571a26a0146113b457806361ab546e1461134457806361d027b3146113105780636b8082a7146112f257806391d148541461129757806396b5a755146110ec5780639979ef4514610da7578063a217fddf14610d8b578063b4fbe80a14610d28578063bdc3fb7b146109fe578063c0738dce146108be578063d20604091461061a578063d3a8c4ec146105f4578063d547741f146105b3578063d6a4856714610249578063f5b541a61461020e5763ff3ad0b41461014857600080fd5b34610209576020806003193601126102095773ffffffffffffffffffffffffffffffffffffffff610177611a9a565b1660005260068152604060002060405190818382549182815201908192600052846000209060005b868282106101f55786866101b582880383611d8b565b604051928392818401908285525180915260408401929160005b8281106101de57505050500390f35b8351855286955093810193928101926001016101cf565b83548552909301926001928301920161019f565b600080fd5b346102095760006003193601126102095760206040517f97667070c54ef182b0f5858b034beac1b6f3089aa2d3188bb1e8929f4fa9b9298152f35b346102095760e060031936011261020957610262611a9a565b600260643510156102095760a43560843511806105a8575b8061059a575b61028990611cb9565b61029b6064356044356024358461205b565b6102a6600254611d04565b8060025560c4356102b78142611d31565b73ffffffffffffffffffffffffffffffffffffffff604051946102d986611d5a565b84865233602087015216604085015260243560608501526044356080850152610303606435611ae0565b60643560a0850152600160c085015260843560e085015260a435610100850152600061012085015260006101408501524261016085015261018084015260006101a084015260006101c084015260a4356101e08401526000610200840152816000526003602052604060002090835182556001820173ffffffffffffffffffffffffffffffffffffffff602086015116907fffffffffffffffffffffffff000000000000000000000000000000000000000091828254161790556002830173ffffffffffffffffffffffffffffffffffffffff6040870151168282541617905560608501516003840155608085015160048401556005830160a086015161040981611ae0565b61041281611ae0565b81547fffffffffffffffffffffffffffffffffffffffffffffffffffffffffffff000060ff61ff0060c08b015161044881611ae0565b61045181611ae0565b60081b16931691161717905560e0850151600684015561010085015160078401556101208501516008840155600983019073ffffffffffffffffffffffffffffffffffffffff6101408701511690825416179055610160840151600a830155610180840151600b8301556101a0840151600c8301556101c084015191600383101561056b57600f6102006020966104ee61052896600d8601611dcc565b6101e0810151600e85015501519101553360005260068452610514836040600020611de5565b61051f600a54611d04565b600a5542611d31565b6040519060018252608435848301526040820152817f51d97c5ca64df02d37f14124a3232223147a3558c81c70986b7269b52872937e60603393a3604051908152f35b7f4e487b7100000000000000000000000000000000000000000000000000000000600052602160045260246000fd5b50610e1060c4351015610280565b5060a435151561027a565b34610209576040600319360112610209576105f26004356105d2611abd565b908060005260006020526105ed600160406000200154611b4d565b611c36565b005b34610209576020600319360112610209576020610612600435611e97565b604051908152f35b60208060031936011261020957600435610632611e49565b8060005260038252604060002091600d83019283549360ff8516600381101561056b5715806108a1575b1561085d57600b82015442116108195761067584611e97565b948534106107d55760ff196001911617905560098101337fffffffffffffffffffffffff000000000000000000000000000000000000000082541617905583600882015573ffffffffffffffffffffffffffffffffffffffff906106f682600283015416600383015490600484015460ff6005860154169033933093612308565b61271061070560085487611e84565b049060008080808587600754168282156107cc575bf1156107ae5760008093926107388294600184950154169189611e3c565b908282156107c3575bf1156107ae5782341161078f575b7f4f8de9c0eb4e1222d09e1ddd07df7936c50edfb5ed56dc6f486ab4220c8457399061077d84600954611d31565b6009556040519384523393a360018055005b600080808061079e8734611e3c565b8181156107ba575b3390f161074f575b6040513d6000823e3d90fd5b506108fc6107a6565b506108fc610741565b506108fc61071a565b6064846040519062461bcd60e51b82526004820152601460248201527f496e73756666696369656e74207061796d656e740000000000000000000000006044820152fd5b6064836040519062461bcd60e51b82526004820152600760248201527f45787069726564000000000000000000000000000000000000000000000000006044820152fd5b6064836040519062461bcd60e51b82526004820152600760248201527f496e76616c6964000000000000000000000000000000000000000000000000006044820152fd5b50600160ff600584015460081c166108b881611ae0565b1461065c565b34610209576020806003193601126102095760043560005260048152604060002090815467ffffffffffffffff81116109cf5760405190610904838260051b0183611d8b565b8082528282018094600052836000206000915b8383106109835760408051878152865181890181905289928201908960005b8281106109435784840385f35b8551805173ffffffffffffffffffffffffffffffffffffffff16855280830151858401526040908101519085015294810194606090930192600101610936565b60038660019260405161099581611d3e565b73ffffffffffffffffffffffffffffffffffffffff8654168152848601548382015260028601546040820152815201920192019190610917565b7f4e487b7100000000000000000000000000000000000000000000000000000000600052604160045260246000fd5b346102095761010060031936011261020957610a18611a9a565b6002606435101561020957608435151580610d1a575b610a3790611cb9565b610a496064356044356024358461205b565b610a54600254611d04565b80600255610a6460c43542611d31565b73ffffffffffffffffffffffffffffffffffffffff60405193610a8685611d5a565b83855233602086015216604084015260243560608401526044356080840152610ab0606435611ae0565b60643560a0840152600060c084015260843560e084015260a435610100840152600061012084015260006101408401524261016084015261018083015260e4356101a083015260006101c083015260006101e083015260006102008301528060005260036020526040600020825181556001810173ffffffffffffffffffffffffffffffffffffffff602085015116907fffffffffffffffffffffffff000000000000000000000000000000000000000091828254161790556002820173ffffffffffffffffffffffffffffffffffffffff6040860151168282541617905560608401516003830155608084015160048301556005820160a0850151610bb581611ae0565b610bbe81611ae0565b81547fffffffffffffffffffffffffffffffffffffffffffffffffffffffffffff000060ff61ff0060c08a0151610bf481611ae0565b610bfd81611ae0565b60081b16931691161717905560e0840151600683015561010084015160078301556101208401516008830155600982019073ffffffffffffffffffffffffffffffffffffffff6101408601511690825416179055610160830151600a820155610180830151600b8201556101a0830151600c8201556101c083015192600384101561056b57610200600f91610c97602096600d8601611dcc565b6101e0810151600e85015501519101553360005260068252610cbd816040600020611de5565b610cc8600a54611d04565b600a55610cd760c43542611d31565b6040519060008252608435848301526040820152817f51d97c5ca64df02d37f14124a3232223147a3558c81c70986b7269b52872937e60603393a3604051908152f35b50610e1060c4351015610a2e565b3461020957604060031936011261020957610d41611a9a565b73ffffffffffffffffffffffffffffffffffffffff602435911660005260066020526040600020805482101561020957602091610d7d91611b35565b90546040519160031b1c8152f35b3461020957600060031936011261020957602060405160008152f35b60208060031936011261020957600435610dbf611e49565b8060005260038252604060002060ff600d82015416600381101561056b576110a85760ff600582015460081c16610df581611ae0565b61106457600b810190815442101561102057600881018054918261100d5760068101545b3410610fc957806009600f92019273ffffffffffffffffffffffffffffffffffffffff948585541680610fa9575b50503490557fffffffffffffffffffffffff000000000000000000000000000000000000000092338482541617905501610e818154611d04565b90558360005260048552604060002060405191610e9d83611d3e565b3383528683019034825260408401924284528054680100000000000000008110156109cf57610ed191600182018155611aea565b959095610f7a576002945116908554161784555160018401555191015580549061012c80610eff4285611e3c565b10610f39575b5050507f0e54eff26401bf69b81b26f60bd85ef47f5d85275c1d268d84f68d6897431c47604051923484523393a360018055005b8201809211610f4b5755828080610f05565b7f4e487b7100000000000000000000000000000000000000000000000000000000600052601160045260246000fd5b7f4e487b7100000000000000000000000000000000000000000000000000000000600052600060045260246000fd5b60005260058952610fc06040600020918254611d31565b90558880610e47565b6064866040519062461bcd60e51b82526004820152600b60248201527f42696420746f6f206c6f770000000000000000000000000000000000000000006044820152fd5b61101b600c82015484611d31565b610e19565b6064846040519062461bcd60e51b82526004820152600560248201527f456e6465640000000000000000000000000000000000000000000000000000006044820152fd5b6064836040519062461bcd60e51b82526004820152600c60248201527f55736520627579447574636800000000000000000000000000000000000000006044820152fd5b6064836040519062461bcd60e51b82526004820152600a60248201527f4e6f7420616374697665000000000000000000000000000000000000000000006044820152fd5b346102095760208060031936011261020957600435611109611e49565b8060005260038252604060002073ffffffffffffffffffffffffffffffffffffffff9081600182015416913383148015611255575b1561121157600d820180549560ff8716600381101561056b571580611203575b156111bf5750600260ff196111949697161790556002820154169060038101549060ff6005600483015492015416913093612308565b7f2809c7e17bf978fbc7194c0a694b638c4215e9140cacc6c38ca36010b45697df600080a260018055005b6064906040519062461bcd60e51b82526004820152600860248201527f48617320626964730000000000000000000000000000000000000000000000006044820152fd5b50826009850154161561115e565b6064856040519062461bcd60e51b82526004820152600e60248201527f4e6f7420617574686f72697a65640000000000000000000000000000000000006044820152fd5b507f97667070c54ef182b0f5858b034beac1b6f3089aa2d3188bb1e8929f4fa9b92960005260008552604060002033600052855260ff6040600020541661113e565b34610209576040600319360112610209576112b0611abd565b600435600052600060205273ffffffffffffffffffffffffffffffffffffffff60406000209116600052602052602060ff604060002054166040519015158152f35b34610209576000600319360112610209576020600954604051908152f35b3461020957600060031936011261020957602073ffffffffffffffffffffffffffffffffffffffff60075416604051908152f35b34610209576040600319360112610209576024356004356000526004602052604060002080548210156102095760609161137d91611aea565b5073ffffffffffffffffffffffffffffffffffffffff81541690600260018201549101549060405192835260208301526040820152f35b34610209576020600319360112610209576004356000526003602052604060002080549073ffffffffffffffffffffffffffffffffffffffff9182600183015416918360028201541693600382015490600483015490600584015490600685015490600786015460088701549160098801541692600a88015494600b89015496600c8a015498600d8b015460ff169d600e8c01549b600f01549c6040519e8f91825260208201526040015260608d015260808c015260ff811661147681611ae0565b60a08c015260081c60ff1661148a81611ae0565b60c08b015260e08a01526101008901526101208801526101408701526101608601526101808501526101a0840152600384101561056b57610220936101c08401526101e0830152610200820152f35b34610209576000600319360112610209576114f2611e49565b33600052600560205260406000205480156115295760008080809333825260056020528160408120553382f1156107ae5760018055005b606460405162461bcd60e51b815260206004820152601360248201527f4e6f7468696e6720746f207769746864726177000000000000000000000000006044820152fd5b3461020957604060031936011261020957611586611abd565b3373ffffffffffffffffffffffffffffffffffffffff8216036115af576105f290600435611c36565b60046040517f6697b232000000000000000000000000000000000000000000000000000000008152fd5b34610209576040600319360112610209576105f26004356115f8611abd565b90806000526000602052611613600160406000200154611b4d565b611baa565b346102095760208060031936011261020957600435611635611e49565b80600052600382526040600020600d8101805460ff8116600381101561056b57158061189e575b1561185a57600b83015442106118165760ff1960019116179055600981019273ffffffffffffffffffffffffffffffffffffffff80855416151580611804575b156117785760088301946127106116b7875460085490611e84565b04600080808084876007541682821561176f575bf1156107ae576000808080936116e98760018b015416918c54611e3c565b90828215611766575bf1156107ae57611744848360027fc9f72b276a388619c6d185d146697036241880c36654b1a3ffdad07c24038d999701541660038201549160ff60056004830154920154169086865416933093612308565b6117518654600954611d31565b60095554169354604051908152a35b60018055005b506108fc6116f2565b506108fc6116cb565b9092936117a882600285015416600385015490600486015460ff6005880154169086600189015416933093612308565b541691826117de575b5050507f2809c7e17bf978fbc7194c0a694b638c4215e9140cacc6c38ca36010b45697df600080a2611760565b6008600592015492600052526117fa6040600020918254611d31565b90558180806117b1565b5060088301546007840154111561169c565b6064856040519062461bcd60e51b82526004820152600960248201527f4e6f7420656e64656400000000000000000000000000000000000000000000006044820152fd5b6064856040519062461bcd60e51b82526004820152600d60248201527f43616e6e6f7420736574746c65000000000000000000000000000000000000006044820152fd5b5060ff600584015460081c166118b381611ae0565b1561165c565b346102095760206003193601126102095773ffffffffffffffffffffffffffffffffffffffff6118e7611a9a565b1660005260056020526020604060002054604051908152f35b346102095760206003193601126102095760043560005260006020526020600160406000200154604051908152f35b34610209576000600319360112610209576020600854604051908152f35b34610209576000600319360112610209576020600a54604051908152f35b34610209576020600319360112610209573360009081527fad3228b676f7d3cd4284a5443f17f1962b36e491b30a40b2405849e597ba5fb560205260409020546004359060ff16156119c5576103e8811161020957600855005b60446040517fe2517d3f00000000000000000000000000000000000000000000000000000000815233600482015260006024820152fd5b3461020957602060031936011261020957600435907fffffffff00000000000000000000000000000000000000000000000000000000821680920361020957817f7965db0b0000000000000000000000000000000000000000000000000000000060209314908115611a70575b5015158152f35b7f01ffc9a70000000000000000000000000000000000000000000000000000000091501483611a69565b6004359073ffffffffffffffffffffffffffffffffffffffff8216820361020957565b6024359073ffffffffffffffffffffffffffffffffffffffff8216820361020957565b6002111561056b57565b8054821015611b06576000526003602060002091020190600090565b7f4e487b7100000000000000000000000000000000000000000000000000000000600052603260045260246000fd5b8054821015611b065760005260206000200190600090565b80600052600060205260406000203360005260205260ff6040600020541615611b735750565b604490604051907fe2517d3f0000000000000000000000000000000000000000000000000000000082523360048301526024820152fd5b906000918083528260205273ffffffffffffffffffffffffffffffffffffffff6040842092169182845260205260ff60408420541615600014611c3157808352826020526040832082845260205260408320600160ff198254161790557f2f8788117e7eff1d82e926ec794901d17c78024a50270940304540a733656f0d339380a4600190565b505090565b906000918083528260205273ffffffffffffffffffffffffffffffffffffffff6040842092169182845260205260ff604084205416600014611c315780835282602052604083208284526020526040832060ff1981541690557ff6391f5c32d9c69d2a47ea670b442974b53935d1edc7fd64eb21e047a839171b339380a4600190565b15611cc057565b606460405162461bcd60e51b815260206004820152600e60248201527f496e76616c696420706172616d730000000000000000000000000000000000006044820152fd5b7fffffffffffffffffffffffffffffffffffffffffffffffffffffffffffffffff8114610f4b5760010190565b91908201809211610f4b57565b6060810190811067ffffffffffffffff8211176109cf57604052565b610220810190811067ffffffffffffffff8211176109cf57604052565b67ffffffffffffffff81116109cf57604052565b90601f7fffffffffffffffffffffffffffffffffffffffffffffffffffffffffffffffe0910116810190811067ffffffffffffffff8211176109cf57604052565b90600381101561056b5760ff60ff198354169116179055565b8054680100000000000000008110156109cf57611e0791600182018155611b35565b7fffffffffffffffffffffffffffffffffffffffffffffffffffffffffffffffff829392549160031b92831b921b1916179055565b91908203918211610f4b57565b600260015414611e5a576002600155565b60046040517f3ee5aeb5000000000000000000000000000000000000000000000000000000008152fd5b81810292918115918404141715610f4b57565b90600091825260036020526040822060405190611eb382611d5a565b8054825273ffffffffffffffffffffffffffffffffffffffff91826001830154166020820152826002830154166040820152600382015460608201526004820154608082015260ff6005830154818116611f0c81611ae0565b60a084015260081c16611f1e81611ae0565b60c082015260068201549260e0820193845260078301546101008301526008830154610120830152600983015416610140820152600a8201546101608201908152600b830154916101808101928352600c8401546101a082015260ff600d85015416600381101561202e576101c0820152600e84015490610200600f6101e083019684885201549101528251421015612026575090611fdd611fd283611fc8611fe2955142611e3c565b9351905190611e3c565b938551905190611e3c565b611e84565b8115611ff957611ff6939450049051611e3c565b90565b6024857f4e487b710000000000000000000000000000000000000000000000000000000081526012600452fd5b955050505050565b6024887f4e487b710000000000000000000000000000000000000000000000000000000081526021600452fd5b91909261206781611ae0565b6121c1575073ffffffffffffffffffffffffffffffffffffffff809116906040517f6352211e000000000000000000000000000000000000000000000000000000008152836004820152602081602481865afa9081156107ae57600091612180575b503391160361213c57803b15610209576040517f23b872dd00000000000000000000000000000000000000000000000000000000815233600482015230602482015260448101929092526000908290818381606481015b03925af180156107ae576121315750565b61213a90611d77565b565b606460405162461bcd60e51b815260206004820152600960248201527f4e6f74206f776e657200000000000000000000000000000000000000000000006044820152fd5b6020813d82116121b9575b8161219860209383611d8b565b810103126121b557519082821682036121b25750386120c9565b80fd5b5080fd5b3d915061218b565b919073ffffffffffffffffffffffffffffffffffffffff16916040517efdd58e000000000000000000000000000000000000000000000000000000008152336004820152826024820152602081604481875afa80156107ae5782916000916122d4575b501061229057823b15610209576040517ff242432a0000000000000000000000000000000000000000000000000000000081523360048201523060248201526044810192909252606482015260a06084820152600060a482018190529091829081838160c48101612120565b606460405162461bcd60e51b815260206004820152600760248201527f42616c616e6365000000000000000000000000000000000000000000000000006044820152fd5b91506020823d8211612300575b816122ee60209383611d8b565b810103126121b2575081905138612224565b3d91506122e1565b91909261231481611ae0565b612398575073ffffffffffffffffffffffffffffffffffffffff16803b15610209576040517f42842e0e00000000000000000000000000000000000000000000000000000000815273ffffffffffffffffffffffffffffffffffffffff93841660048201529390921660248401526044830152600090829081838160648101612120565b939073ffffffffffffffffffffffffffffffffffffffff1690813b156102095760008094612120604051978896879586947ff242432a00000000000000000000000000000000000000000000000000000000865260048601929060c0949273ffffffffffffffffffffffffffffffffffffffff80921685521660208401526040830152606082015260a06080820152600060a0820152019056fea2646970667358221220b9ebe9ca2e67c1225808b421b0437a851de7b412b6da2fef071d718d82e63fcc64736f6c634300081400332f8788117e7eff1d82e926ec794901d17c78024a50270940304540a733656f0d",
  "linkReferences": {},
  "deployedLinkReferences": {}
}