{
  "_format": "hh-sol-artifact-1",
  "contractName": "OptionsExchange",
  "sourceName": "contracts/layer3/risk/OptionsExchange.sol",
  "abi": [
    {
      "inputs": [],
      "stateMutability": "nonpayable",
      "type": "constructor"
    },
    {
      "inputs": [
        {
          "internalType": "address",
          "name": "owner",
          "type": "address"
        }
      ],
      "name": "OwnableInvalidOwner",
      "type": "error"
    },
    {
      "inputs": [
        {
          "internalType": "address",
          "name": "account",
          "type": "address"
        }
      ],
      "name": "OwnableUnauthorizedAccount",
      "type": "error"
    },
    {
      "inputs": [],
      "name": "ReentrancyGuardReentrantCall",
      "type": "error"
    },
    {
      "anonymous": false,
      "inputs": [
        {
          "indexed": true,
          "internalType": "uint256",
          "name": "optionId",
          "type": "uint256"
        },
        {
          "indexed": false,
          "internalType": "uint256",
          "name": "profit",
          "type": "uint256"
        }
      ],
      "name": "OptionExercised",
      "type": "event"
    },
    {
      "anonymous": false,
      "inputs": [
        {
          "indexed": true,
          "internalType": "uint256",
          "name": "optionId",
          "type": "uint256"
        }
      ],
      "name": "OptionExpired",
      "type": "event"
    },
    {
      "anonymous": false,
      "inputs": [
        {
          "indexed": true,
          "internalType": "uint256",
          "name": "optionId",
          "type": "uint256"
        },
        {
          "indexed": true,
          "internalType": "address",
          "name": "buyer",
          "type": "address"
        }
      ],
      "name": "OptionPurchased",
      "type": "event"
    },
    {
      "anonymous": false,
      "inputs": [
        {
          "indexed": true,
          "internalType": "uint256",
          "name": "optionId",
          "type": "uint256"
        },
        {
          "indexed": true,
          "internalType": "address",
          "name": "writer",
          "type": "address"
        },
        {
          "indexed": false,
          "internalType": "uint256",
          "name": "strikePrice",
          "type": "uint256"
        },
        {
          "indexed": false,
          "internalType": "uint256",
          "name": "premium",
          "type": "uint256"
        }
      ],
      "name": "OptionWritten",
      "type": "event"
    },
    {
      "anonymous": false,
      "inputs": [
        {
          "indexed": true,
          "internalType": "address",
          "name": "previousOwner",
          "type": "address"
        },
        {
          "indexed": true,
          "internalType": "address",
          "name": "newOwner",
          "type": "address"
        }
      ],
      "name": "OwnershipTransferred",
      "type": "event"
    },
    {
      "inputs": [
        {
          "internalType": "uint256",
          "name": "optionId",
          "type": "uint256"
        }
      ],
      "name": "buyOption",
      "outputs": [],
      "stateMutability": "payable",
      "type": "function"
    },
    {
      "inputs": [
        {
          "internalType": "uint256",
          "name": "optionId",
          "type": "uint256"
        },
        {
          "internalType": "uint256",
          "name": "currentPrice",
          "type": "uint256"
        }
      ],
      "name": "exerciseOption",
      "outputs": [],
      "stateMutability": "nonpayable",
      "type": "function"
    },
    {
      "inputs": [
        {
          "internalType": "uint256",
          "name": "optionId",
          "type": "uint256"
        }
      ],
      "name": "expireOption",
      "outputs": [],
      "stateMutability": "nonpayable",
      "type": "function"
    },
    {
      "inputs": [],
      "name": "optionCount",
      "outputs": [
        {
          "internalType": "uint256",
          "name": "",
          "type": "uint256"
        }
      ],
      "stateMutability": "view",
      "type": "function"
    },
    {
      "inputs": [
        {
          "internalType": "uint256",
          "name": "",
          "type": "uint256"
        }
      ],
      "name": "options",
      "outputs": [
        {
          "internalType": "uint256",
          "name": "id",
          "type": "uint256"
        },
        {
          "internalType": "address",
          "name": "writer",
          "type": "address"
        },
        {
          "internalType": "address",
          "name": "holder",
          "type": "address"
        },
        {
          "internalType": "uint256",
          "name": "underlyingAsset",
          "type": "uint256"
        },
        {
          "internalType": "uint256",
          "name": "strikePrice",
          "type": "uint256"
        },
        {
          "internalType": "uint256",
          "name": "premium",
          "type": "uint256"
        },
        {
          "internalType": "uint256",
          "name": "expiry",
          "type": "uint256"
        },
        {
          "internalType": "bool",
          "name": "isCall",
          "type": "bool"
        },
        {
          "internalType": "bool",
          "name": "isExercised",
          "type": "bool"
        },
        {
          "internalType": "bool",
          "name": "isActive",
          "type": "bool"
        }
      ],
      "stateMutability": "view",
      "type": "function"
    },
    {
      "inputs": [],
      "name": "owner",
      "outputs": [
        {
          "internalType": "address",
          "name": "",
          "type": "address"
        }
      ],
      "stateMutability": "view",
      "type": "function"
    },
    {
      "inputs": [],
      "name": "renounceOwnership",
      "outputs": [],
      "stateMutability": "nonpayable",
      "type": "function"
    },
    {
      "inputs": [],
      "name": "tradingVolume",
      "outputs": [
        {
          "internalType": "uint256",
          "name": "",
          "type": "uint256"
        }
      ],
      "stateMutability": "view",
      "type": "function"
    },
    {
      "inputs": [
        {
          "internalType": "address",
          "name": "newOwner",
          "type": "address"
        }
      ],
      "name": "transferOwnership",
      "outputs": [],
      "stateMutability": "nonpayable",
      "type": "function"
    },
    {
      "inputs": [
        {
          "internalType": "uint256",
          "name": "underlyingAsset",
          "type": "uint256"
        },
        {
          "internalType": "uint256",
          "name": "strikePrice",
          "type": "uint256"
        },
        {
          "internalType": "uint256",
          "name": "premium",
          "type": "uint256"
        },
        {
          "internalType": "uint256",
          "name": "duration",
          "type": "uint256"
        },
        {
          "internalType": "bool",
          "name": "isCall",
          "type": "bool"
        }
      ],
      "name": "writeOption",
      "outputs": [
        {
          "internalType": "uint256",
          "name": "",
          "type": "uint256"
        }
      ],
      "stateMutability": "payable",
      "type": "function"
    }
  ],
  "bytecode": "0x6080806040523461007e5733156100685760008054336001600160a01b03198216811783556040519290916001600160a01b0316907f8be0079c531659141344cd1fd0a4f28419497f9722a3daafe3b4186f6b6457e09080a3600180556109cd90816100848239f35b631e4fbdf760e01b815260006004820152602490fd5b600080fdfe6040608081526004908136101561001557600080fd5b600091823560e01c806302f126e8146107a4578063305422cd14610787578063409e2205146106d9578063715018a61461065b5780637c9c6712146104fb5780638d93b0d0146102cb5780638da5cb5b14610298578063e32fe90b14610279578063f2fde38b146101af5763fba225b91461008f57600080fd5b60206003193601126101ab578035916100a661094f565b82845260026020528381812060ff600782015460101c1680610189575b8061017b575b1561017757818073ffffffffffffffffffffffffffffffffffffffff6001846002849601337fffffffffffffffffffffffff00000000000000000000000000000000000000008254161790550154168190341561016d575b3491f1156101645750610135348254610913565b905533907f81c1e95ec07d921c5f34b6f1ef0e82236cc024c81775b0020e9f0821ea6ac0a88380a36001805580f35b513d84823e3d90fd5b6108fc9150610121565b5080fd5b5060058101543410156100c9565b5073ffffffffffffffffffffffffffffffffffffffff600282015416156100c3565b8280fd5b5090346101ab5760206003193601126101ab5781359173ffffffffffffffffffffffffffffffffffffffff91828416809403610275576101ed6108c2565b83156102465750508254827fffffffffffffffffffffffff00000000000000000000000000000000000000008216178455167f8be0079c531659141344cd1fd0a4f28419497f9722a3daafe3b4186f6b6457e08380a380f35b908460249251917f1e4fbdf7000000000000000000000000000000000000000000000000000000008352820152fd5b8480fd5b5050346101775781600319360112610177576020906003549051908152f35b50503461017757816003193601126101775773ffffffffffffffffffffffffffffffffffffffff60209254169051908152f35b50919060a06003193601126101775760243560443592608435908115158092036104f8578234106104f8576003547fffffffffffffffffffffffffffffffffffffffffffffffffffffffffffffffff81146104cc576001018060035561033360643542610913565b855190610140820182811067ffffffffffffffff8211176104a057908860209a600794938a528584528b84013381528a850188815260608601908335825260808701928c845260a0880195865260c0880196875260e088019b8c528d61010089019b808d526101208a019b60018d5281526020600290522097518855600188019073ffffffffffffffffffffffffffffffffffffffff80915116917fffffffffffffffffffffffff00000000000000000000000000000000000000009283825416179055600289019251169082541617905551600386015551908401555160058301555160068201550192511515917fffffffffffffffffffffffffffffffffffffffffffffffffffffffffff00000060ff62ff000061ff0087549451151560081b169451151560101b1694169116171717905560035492825191825284820152827f08741b9876c6272a0a12c9729441c7ee1b7811cf3fde80a33a629717abb6f784833393a351908152f35b60248560418c7f4e487b7100000000000000000000000000000000000000000000000000000000835252fd5b6024826011897f4e487b7100000000000000000000000000000000000000000000000000000000835252fd5b80fd5b50346101ab57816003193601126101ab57803591836024359261051c61094f565b84825260026020528282209373ffffffffffffffffffffffffffffffffffffffff600286015416903382148061064a575b8061063d575b156105f1578392600787019687549460ff8616808091610631575b156105f557505001546105809161098a565b945b85156105f157858493928493926101007fffffffffffffffffffffffffffffffffffffffffffffffffffffffffff0000ff86951617905582f115610164577f709a635a5462396a92927c659d5d8a7f96393228713769a8f62818093d8296c49160209151908152a26001805580f35b8380fd5b9893929190981580610625575b61060f575b505050610582565b61061c939850015461098a565b94388080610607565b50818101548310610602565b5083830154851161056e565b5060068601544210610553565b5060ff600787015460101c1661054d565b83346104f857806003193601126104f8576106746108c2565b8073ffffffffffffffffffffffffffffffffffffffff81547fffffffffffffffffffffffff000000000000000000000000000000000000000081168355167f8be0079c531659141344cd1fd0a4f28419497f9722a3daafe3b4186f6b6457e08280a380f35b50346101ab5760206003193601126101ab5780826101409460ff9335815260026020522080549373ffffffffffffffffffffffffffffffffffffffff928360018401541693600284015416906003840154908401549160058501549360076006870154960154968151998a5260208a01528801526060870152608086015260a085015260c0840152818116151560e0840152818160081c16151561010084015260101c161515610120820152f35b50346101ab57826003193601126101ab5760209250549051908152f35b5090346101ab5760206003193601126101ab578282359283825260026020528282206006810154421015806108b1575b156101ab5760ff600782018054907fffffffffffffffffffffffffffffffffffffffffffffffffffffffffff00ffff8216905560081c16158061088f575b610841575b50507f04d03607ff2d12a2aef0938dbebbfbb423182f741164e646928a49a5a728f9c6915080a280f35b8281819373ffffffffffffffffffffffffffffffffffffffff6001849501541691015490828215610886575bf11561087b57828180610817565b51913d9150823e3d90fd5b506108fc61086d565b5073ffffffffffffffffffffffffffffffffffffffff60028201541615610812565b5060ff600782015460101c166107d4565b73ffffffffffffffffffffffffffffffffffffffff6000541633036108e357565b60246040517f118cdaa7000000000000000000000000000000000000000000000000000000008152336004820152fd5b9190820180921161092057565b7f4e487b7100000000000000000000000000000000000000000000000000000000600052601160045260246000fd5b600260015414610960576002600155565b60046040517f3ee5aeb5000000000000000000000000000000000000000000000000000000008152fd5b919082039182116109205756fea264697066735822122065e73d8dbed2db4de7a04c8dd335f7badfceacf801e81bcda860a806dafbd67164736f6c63430008140033",
  "linkReferences": {},
  "deployedLinkReferences": {}
}