{
  "_format": "hh-sol-artifact-1",
  "contractName": "CircuitBreaker",
  "sourceName": "contracts/layer7/stability/CircuitBreaker.sol",
  "abi": [
    {
      "inputs": [],
      "stateMutability": "nonpayable",
      "type": "constructor"
    },
    {
      "inputs": [],
      "name": "AccessControlBadConfirmation",
      "type": "error"
    },
    {
      "inputs": [
        {
          "internalType": "address",
          "name": "account",
          "type": "address"
        },
        {
          "internalType": "bytes32",
          "name": "neededRole",
          "type": "bytes32"
        }
      ],
      "name": "AccessControlUnauthorizedAccount",
      "type": "error"
    },
    {
      "anonymous": false,
      "inputs": [
        {
          "indexed": false,
          "internalType": "enum CircuitBreaker.TripReason",
          "name": "reason",
          "type": "uint8"
        },
        {
          "indexed": false,
          "internalType": "uint256",
          "name": "value",
          "type": "uint256"
        },
        {
          "indexed": false,
          "internalType": "uint256",
          "name": "threshold",
          "type": "uint256"
        }
      ],
      "name": "AnomalyDetected",
      "type": "event"
    },
    {
      "anonymous": false,
      "inputs": [
        {
          "indexed": false,
          "internalType": "uint256",
          "name": "timestamp",
          "type": "uint256"
        }
      ],
      "name": "CircuitReset",
      "type": "event"
    },
    {
      "anonymous": false,
      "inputs": [
        {
          "indexed": false,
          "internalType": "enum CircuitBreaker.TripReason",
          "name": "reason",
          "type": "uint8"
        },
        {
          "indexed": false,
          "internalType": "uint256",
          "name": "timestamp",
          "type": "uint256"
        }
      ],
      "name": "CircuitTripped",
      "type": "event"
    },
    {
      "anonymous": false,
      "inputs": [
        {
          "indexed": true,
          "internalType": "bytes32",
          "name": "role",
          "type": "bytes32"
        },
        {
          "indexed": true,
          "internalType": "bytes32",
          "name": "previousAdminRole",
          "type": "bytes32"
        },
        {
          "indexed": true,
          "internalType": "bytes32",
          "name": "newAdminRole",
          "type": "bytes32"
        }
      ],
      "name": "RoleAdminChanged",
      "type": "event"
    },
    {
      "anonymous": false,
      "inputs": [
        {
          "indexed": true,
          "internalType": "bytes32",
          "name": "role",
          "type": "bytes32"
        },
        {
          "indexed": true,
          "internalType": "address",
          "name": "account",
          "type": "address"
        },
        {
          "indexed": true,
          "internalType": "address",
          "name": "sender",
          "type": "address"
        }
      ],
      "name": "RoleGranted",
      "type": "event"
    },
    {
      "anonymous": false,
      "inputs": [
        {
          "indexed": true,
          "internalType": "bytes32",
          "name": "role",
          "type": "bytes32"
        },
        {
          "indexed": true,
          "internalType": "address",
          "name": "account",
          "type": "address"
        },
        {
          "indexed": true,
          "internalType": "address",
          "name": "sender",
          "type": "address"
        }
      ],
      "name": "RoleRevoked",
      "type": "event"
    },
    {
      "anonymous": false,
      "inputs": [
        {
          "indexed": false,
          "internalType": "string",
          "name": "parameter",
          "type": "string"
        },
        {
          "indexed": false,
          "internalType": "uint256",
          "name": "newValue",
          "type": "uint256"
        }
      ],
      "name": "ThresholdUpdated",
      "type": "event"
    },
    {
      "inputs": [],
      "name": "BREAKER_ROLE",
      "outputs": [
        {
          "internalType": "bytes32",
          "name": "",
          "type": "bytes32"
        }
      ],
      "stateMutability": "view",
      "type": "function"
    },
    {
      "inputs": [],
      "name": "DEFAULT_ADMIN_ROLE",
      "outputs": [
        {
          "internalType": "bytes32",
          "name": "",
          "type": "bytes32"
        }
      ],
      "stateMutability": "view",
      "type": "function"
    },
    {
      "inputs": [],
      "name": "DEFAULT_COOLDOWN",
      "outputs": [
        {
          "internalType": "uint256",
          "name": "",
          "type": "uint256"
        }
      ],
      "stateMutability": "view",
      "type": "function"
    },
    {
      "inputs": [
        {
          "internalType": "uint256",
          "name": "",
          "type": "uint256"
        }
      ],
      "name": "blockMetrics",
      "outputs": [
        {
          "internalType": "uint256",
          "name": "blockNumber",
          "type": "uint256"
        },
        {
          "internalType": "uint256",
          "name": "transactionCount",
          "type": "uint256"
        },
        {
          "internalType": "uint256",
          "name": "totalValue",
          "type": "uint256"
        },
        {
          "internalType": "uint256",
          "name": "failureCount",
          "type": "uint256"
        },
        {
          "internalType": "int256",
          "name": "maxReputationDelta",
          "type": "int256"
        }
      ],
      "stateMutability": "view",
      "type": "function"
    },
    {
      "inputs": [],
      "name": "breakerState",
      "outputs": [
        {
          "internalType": "bool",
          "name": "isTripped",
          "type": "bool"
        },
        {
          "internalType": "uint256",
          "name": "trippedAt",
          "type": "uint256"
        },
        {
          "internalType": "enum CircuitBreaker.TripReason",
          "name": "reason",
          "type": "uint8"
        },
        {
          "internalType": "uint256",
          "name": "cooldownPeriod",
          "type": "uint256"
        },
        {
          "internalType": "uint256",
          "name": "tripCount",
          "type": "uint256"
        }
      ],
      "stateMutability": "view",
      "type": "function"
    },
    {
      "inputs": [],
      "name": "currentBlock",
      "outputs": [
        {
          "internalType": "uint256",
          "name": "",
          "type": "uint256"
        }
      ],
      "stateMutability": "view",
      "type": "function"
    },
    {
      "inputs": [],
      "name": "getCurrentMetrics",
      "outputs": [
        {
          "components": [
            {
              "internalType": "uint256",
              "name": "blockNumber",
              "type": "uint256"
            },
            {
              "internalType": "uint256",
              "name": "transactionCount",
              "type": "uint256"
            },
            {
              "internalType": "uint256",
              "name": "totalValue",
              "type": "uint256"
            },
            {
              "internalType": "uint256",
              "name": "failureCount",
              "type": "uint256"
            },
            {
              "internalType": "int256",
              "name": "maxReputationDelta",
              "type": "int256"
            }
          ],
          "internalType": "struct CircuitBreaker.Metric",
          "name": "",
          "type": "tuple"
        }
      ],
      "stateMutability": "view",
      "type": "function"
    },
    {
      "inputs": [
        {
          "internalType": "bytes32",
          "name": "role",
          "type": "bytes32"
        }
      ],
      "name": "getRoleAdmin",
      "outputs": [
        {
          "internalType": "bytes32",
          "name": "",
          "type": "bytes32"
        }
      ],
      "stateMutability": "view",
      "type": "function"
    },
    {
      "inputs": [
        {
          "internalType": "bytes32",
          "name": "role",
          "type": "bytes32"
        },
        {
          "internalType": "address",
          "name": "account",
          "type": "address"
        }
      ],
      "name": "grantRole",
      "outputs": [],
      "stateMutability": "nonpayable",
      "type": "function"
    },
    {
      "inputs": [
        {
          "internalType": "bytes32",
          "name": "role",
          "type": "bytes32"
        },
        {
          "internalType": "address",
          "name": "account",
          "type": "address"
        }
      ],
      "name": "hasRole",
      "outputs": [
        {
          "internalType": "bool",
          "name": "",
          "type": "bool"
        }
      ],
      "stateMutability": "view",
      "type": "function"
    },
    {
      "inputs": [],
      "name": "isOperational",
      "outputs": [
        {
          "internalType": "bool",
          "name": "",
          "type": "bool"
        }
      ],
      "stateMutability": "view",
      "type": "function"
    },
    {
      "inputs": [
        {
          "internalType": "uint256",
          "name": "value",
          "type": "uint256"
        },
        {
          "internalType": "bool",
          "name": "success",
          "type": "bool"
        },
        {
          "internalType": "int256",
          "name": "reputationChange",
          "type": "int256"
        }
      ],
      "name": "recordTransaction",
      "outputs": [],
      "stateMutability": "nonpayable",
      "type": "function"
    },
    {
      "inputs": [
        {
          "internalType": "bytes32",
          "name": "role",
          "type": "bytes32"
        },
        {
          "internalType": "address",
          "name": "callerConfirmation",
          "type": "address"
        }
      ],
      "name": "renounceRole",
      "outputs": [],
      "stateMutability": "nonpayable",
      "type": "function"
    },
    {
      "inputs": [],
      "name": "resetCircuit",
      "outputs": [],
      "stateMutability": "nonpayable",
      "type": "function"
    },
    {
      "inputs": [
        {
          "internalType": "bytes32",
          "name": "role",
          "type": "bytes32"
        },
        {
          "internalType": "address",
          "name": "account",
          "type": "address"
        }
      ],
      "name": "revokeRole",
      "outputs": [],
      "stateMutability": "nonpayable",
      "type": "function"
    },
    {
      "inputs": [
        {
          "internalType": "bytes4",
          "name": "interfaceId",
          "type": "bytes4"
        }
      ],
      "name": "supportsInterface",
      "outputs": [
        {
          "internalType": "bool",
          "name": "",
          "type": "bool"
        }
      ],
      "stateMutability": "view",
      "type": "function"
    },
    {
      "inputs": [],
      "name": "thresholds",
      "outputs": [
        {
          "internalType": "uint256",
          "name": "maxTransactionsPerBlock",
          "type": "uint256"
        },
        {
          "internalType": "uint256",
          "name": "maxValuePerBlock",
          "type": "uint256"
        },
        {
          "internalType": "uint256",
          "name": "maxReputationChange",
          "type": "uint256"
        },
        {
          "internalType": "uint256",
          "name": "maxFailureRate",
          "type": "uint256"
        },
        {
          "internalType": "bool",
          "name": "enabled",
          "type": "bool"
        }
      ],
      "stateMutability": "view",
      "type": "function"
    },
    {
      "inputs": [
        {
          "internalType": "string",
          "name": "reason",
          "type": "string"
        }
      ],
      "name": "tripCircuit",
      "outputs": [],
      "stateMutability": "nonpayable",
      "type": "function"
    },
    {
      "inputs": [
        {
          "internalType": "uint256",
          "name": "maxTxPerBlock",
          "type": "uint256"
        },
        {
          "internalType": "uint256",
          "name": "maxValuePerBlock",
          "type": "uint256"
        },
        {
          "internalType": "uint256",
          "name": "maxRepChange",
          "type": "uint256"
        },
        {
          "internalType": "uint256",
          "name": "maxFailRate",
          "type": "uint256"
        }
      ],
      "name": "updateThresholds",
      "outputs": [],
      "stateMutability": "nonpayable",
      "type": "function"
    }
  ],
  "bytecode": "0x6080604052346100ad57610012336100b2565b5061001c33610130565b5060405160a081016001600160401b03811182821017610097576040526103e8808252683635c9adc5dea000008060208401526101f49182604085015260016080611388958660608201520152600155600255600355600455600160ff196005541617600555610e10600955604051610f3490816101d18239f35b634e487b7160e01b600052604160045260246000fd5b600080fd5b6001600160a01b031660008181527fad3228b676f7d3cd4284a5443f17f1962b36e491b30a40b2405849e597ba5fb5602052604081205490919060ff1661012c57818052816020526040822081835260205260408220600160ff1982541617905533916000805160206111058339815191528180a4600190565b5090565b6001600160a01b031660008181527f8b0ecc39c4146d5b38fa940f56524470fd7ea9601ae6f143edaff0af17f39af660205260408120549091907fa42ba706c23e2ffe6797a85f1a62e5943c6267a62c42aa92111d41ba35dcc88c9060ff166101cb57808352826020526040832082845260205260408320600160ff19825416179055600080516020611105833981519152339380a4600190565b50509056fe60806040908082526004908136101561001757600080fd5b600092833560e01c91826301ffc9a71461078b5750816308ada6b914610750578163248a9ca3146107255781632f2ff15d1461070757816336568abe146106a55781637637b1f11461054a578163763f6206146104c8578163827059ff146104ab57816388a7113e1461047757816391d14854146104315781639bfdc29f146102fc578163a217fddf146102e1578163cd905dff146102be578163cda43b3a14610277578163d547741f14610242578163e12ed13c14610223578163e2b4a705146101d1578163e80a0f4614610136575063f01ec4fa146100f757600080fd5b346101325760606003193601126101325760243590811515820361012e5761012b916101216108b1565b6044359135610b49565b80f35b8280fd5b5080fd5b90503461012e578260031936011261012e57808360a0946080610157610862565b82815282602082015282858201528260608201520152438152600b6020522061017e610862565b918154938484526001830154602085019081526080600285015492848701938452600386015495606088019687520154950194855282519586525160208601525190840152516060830152516080820152f35b90503461012e57602060031936011261012e578060a09383358152600b602052208054926001820154926002830154916003840154930154938151958652602086015284015260608301526080820152f35b839034610132578160031936011261013257602090600c549051908152f35b8390346101325760016102739161026e61025b3661082a565b939092838752866020528620015461097e565b610a30565b5080f35b9190503461012e578260031936011261012e5760a09250600154916002549160035490549160ff600554169381519586526020860152840152606083015215156080820152f35b83903461013257816003193601126101325760209060ff60065416159051908152f35b83903461013257816003193601126101325751908152602090f35b9190503461012e578260031936011261012e57610317610944565b6006549060ff8216156103d45761033360075460095490610b0f565b421061037757507fd7a99ecfaaeec4892877faba83d931cf158a6beb416e290071859c44c62e45e59160209160ff198091166006556008541660085551428152a180f35b60649060208451917f08c379a0000000000000000000000000000000000000000000000000000000008352820152601060248201527f436f6f6c646f776e206e6f74206d6574000000000000000000000000000000006044820152fd5b60649060208451917f08c379a0000000000000000000000000000000000000000000000000000000008352820152600b60248201527f4e6f7420747269707065640000000000000000000000000000000000000000006044820152fd5b8390346101325760ff816020936104473661082a565b90825281865273ffffffffffffffffffffffffffffffffffffffff83832091168252855220541690519015158152f35b50503461013257608060031936011261013257610492610944565b8035600155602435600255604435600355606435905580f35b83903461013257816003193601126101325760209051610e108152f35b8391503461013257816003193601126101325760ff60065416916007549160ff600854169060095492600a5494825196151587526020870152600683101561051e575060a0955084015260608301526080820152f35b806021887f4e487b71000000000000000000000000000000000000000000000000000000006024945252fd5b839150346101325760206003193601126101325767ffffffffffffffff9083358281116106a157366023820112156106a15780850135838111610675578251937fffffffffffffffffffffffffffffffffffffffffffffffffffffffffffffffe0603f81601f850116011685019085821090821117610649578352808452849190368282016024011161012e577ff96dd628298c155addbeae384bd115e84358030e92f42ac059a639c8168813a994816024602094018483013701015261060f6108b1565b600560ff196001816006541617600655426007556008541617600855610636600a54610ab3565b600a55805160058152426020820152a180f35b6024866041897f4e487b7100000000000000000000000000000000000000000000000000000000835252fd5b6024856041887f4e487b7100000000000000000000000000000000000000000000000000000000835252fd5b8380fd5b83915034610132576106b63661082a565b913373ffffffffffffffffffffffffffffffffffffffff8416036106df57509061027391610a30565b8490517f6697b232000000000000000000000000000000000000000000000000000000008152fd5b8390346101325760016102739161072061025b3661082a565b6109a4565b9190503461012e57602060031936011261012e57816020936001923581528085522001549051908152f35b839034610132578160031936011261013257602090517fa42ba706c23e2ffe6797a85f1a62e5943c6267a62c42aa92111d41ba35dcc88c8152f35b8490843461012e57602060031936011261012e57357fffffffff00000000000000000000000000000000000000000000000000000000811680910361012e57602092507f7965db0b000000000000000000000000000000000000000000000000000000008114908115610800575b5015158152f35b7f01ffc9a700000000000000000000000000000000000000000000000000000000915014836107f9565b600319604091011261085d576004359060243573ffffffffffffffffffffffffffffffffffffffff8116810361085d5790565b600080fd5b6040519060a0820182811067ffffffffffffffff82111761088257604052565b7f4e487b7100000000000000000000000000000000000000000000000000000000600052604160045260246000fd5b3360009081527f8b0ecc39c4146d5b38fa940f56524470fd7ea9601ae6f143edaff0af17f39af660205260409020547fa42ba706c23e2ffe6797a85f1a62e5943c6267a62c42aa92111d41ba35dcc88c9060ff161561090d5750565b604490604051907fe2517d3f0000000000000000000000000000000000000000000000000000000082523360048301526024820152fd5b3360009081527fad3228b676f7d3cd4284a5443f17f1962b36e491b30a40b2405849e597ba5fb5602052604081205460ff161561090d5750565b80600052600060205260406000203360005260205260ff604060002054161561090d5750565b906000918083528260205273ffffffffffffffffffffffffffffffffffffffff6040842092169182845260205260ff60408420541615600014610a2b57808352826020526040832082845260205260408320600160ff198254161790557f2f8788117e7eff1d82e926ec794901d17c78024a50270940304540a733656f0d339380a4600190565b505090565b906000918083528260205273ffffffffffffffffffffffffffffffffffffffff6040842092169182845260205260ff604084205416600014610a2b5780835282602052604083208284526020526040832060ff1981541690557ff6391f5c32d9c69d2a47ea670b442974b53935d1edc7fd64eb21e047a839171b339380a4600190565b7fffffffffffffffffffffffffffffffffffffffffffffffffffffffffffffffff8114610ae05760010190565b7f4e487b7100000000000000000000000000000000000000000000000000000000600052601160045260246000fd5b91908201809211610ae057565b7f80000000000000000000000000000000000000000000000000000000000000008114610ae05760000390565b909160ff60065416610bf857610bb09243600052600b602052604060002092835415610bf0575b60018401610b7e8154610ab3565b9055610b8f60028501918254610b0f565b905515610bdb575b60048201908154808213600014610bb257509055610bfd565b565b610bbb90610b1c565b8112610bc9575b5050610bfd565b610bd290610b1c565b90553880610bc2565b60038201610be98154610ab3565b9055610b97565b438455610b70565b505050565b60ff6005541615610efb5760019081810180548354809111610e69575060028201805490600254809211610dd05750505480158015610ce3575b5050600401908154600354809111610c4e57505050565b7f0c2725d694c3f9247ad3b1ee8a43b78049c8c0354392e9ea1c471ae80f7d3f1a92600460609360ff1990816006541617600655426007556008541617600855610c99600a54610ab3565b600a557ff96dd628298c155addbeae384bd115e84358030e92f42ac059a639c8168813a96040805160048152426020820152a15490604051916004835260208301526040820152a1565b60038301549061271091828102928184041490151715610ae057610da1570460045480821115610c37576060925060037f0c2725d694c3f9247ad3b1ee8a43b78049c8c0354392e9ea1c471ae80f7d3f1a9460ff1990816006541617600655426007556008541617600855610d59600a54610ab3565b600a557ff96dd628298c155addbeae384bd115e84358030e92f42ac059a639c8168813a96040805160038152426020820152a1604051916003835260208301526040820152a1565b7f4e487b7100000000000000000000000000000000000000000000000000000000600052601260045260246000fd5b9091506060925060027f0c2725d694c3f9247ad3b1ee8a43b78049c8c0354392e9ea1c471ae80f7d3f1a9460ff1990816006541617600655426007556008541617600855610e1f600a54610ab3565b600a557ff96dd628298c155addbeae384bd115e84358030e92f42ac059a639c8168813a96040805160028152426020820152a15490604051916002835260208301526040820152a1565b6060925083917f0c2725d694c3f9247ad3b1ee8a43b78049c8c0354392e9ea1c471ae80f7d3f1a9460ff1981816006541617600655426007556008541617600855610eb5600a54610ab3565b600a557ff96dd628298c155addbeae384bd115e84358030e92f42ac059a639c8168813a960408051858152426020820152a15460405192835260208301526040820152a1565b5056fea26469706673582212202f72470a097549fcca852c8a7a216564a3f4241e360ee36136b3ebdc98348e2564736f6c634300081400332f8788117e7eff1d82e926ec794901d17c78024a50270940304540a733656f0d",
  "linkReferences": {},
  "deployedLinkReferences": {}
}