{
  "_format": "hh-sol-artifact-1",
  "contractName": "ReputationExchange",
  "sourceName": "contracts/layer6/reputation/ReputationExchange.sol",
  "abi": [
    {
      "inputs": [
        {
          "internalType": "address",
          "name": "_treasury",
          "type": "address"
        }
      ],
      "stateMutability": "nonpayable",
      "type": "constructor"
    },
    {
      "inputs": [],
      "name": "AccessControlBadConfirmation",
      "type": "error"
    },
    {
      "inputs": [
        {
          "internalType": "address",
          "name": "account",
          "type": "address"
        },
        {
          "internalType": "bytes32",
          "name": "neededRole",
          "type": "bytes32"
        }
      ],
      "name": "AccessControlUnauthorizedAccount",
      "type": "error"
    },
    {
      "inputs": [],
      "name": "ReentrancyGuardReentrantCall",
      "type": "error"
    },
    {
      "anonymous": false,
      "inputs": [
        {
          "indexed": true,
          "internalType": "uint256",
          "name": "listingId",
          "type": "uint256"
        },
        {
          "indexed": true,
          "internalType": "address",
          "name": "owner",
          "type": "address"
        },
        {
          "indexed": false,
          "internalType": "uint256",
          "name": "score",
          "type": "uint256"
        }
      ],
      "name": "ReputationListed",
      "type": "event"
    },
    {
      "anonymous": false,
      "inputs": [
        {
          "indexed": true,
          "internalType": "uint256",
          "name": "rentalId",
          "type": "uint256"
        },
        {
          "indexed": true,
          "internalType": "address",
          "name": "renter",
          "type": "address"
        },
        {
          "indexed": false,
          "internalType": "uint256",
          "name": "days_",
          "type": "uint256"
        }
      ],
      "name": "ReputationRented",
      "type": "event"
    },
    {
      "anonymous": false,
      "inputs": [
        {
          "indexed": true,
          "internalType": "uint256",
          "name": "listingId",
          "type": "uint256"
        },
        {
          "indexed": true,
          "internalType": "address",
          "name": "buyer",
          "type": "address"
        },
        {
          "indexed": false,
          "internalType": "uint256",
          "name": "price",
          "type": "uint256"
        }
      ],
      "name": "ReputationSold",
      "type": "event"
    },
    {
      "anonymous": false,
      "inputs": [
        {
          "indexed": true,
          "internalType": "bytes32",
          "name": "role",
          "type": "bytes32"
        },
        {
          "indexed": true,
          "internalType": "bytes32",
          "name": "previousAdminRole",
          "type": "bytes32"
        },
        {
          "indexed": true,
          "internalType": "bytes32",
          "name": "newAdminRole",
          "type": "bytes32"
        }
      ],
      "name": "RoleAdminChanged",
      "type": "event"
    },
    {
      "anonymous": false,
      "inputs": [
        {
          "indexed": true,
          "internalType": "bytes32",
          "name": "role",
          "type": "bytes32"
        },
        {
          "indexed": true,
          "internalType": "address",
          "name": "account",
          "type": "address"
        },
        {
          "indexed": true,
          "internalType": "address",
          "name": "sender",
          "type": "address"
        }
      ],
      "name": "RoleGranted",
      "type": "event"
    },
    {
      "anonymous": false,
      "inputs": [
        {
          "indexed": true,
          "internalType": "bytes32",
          "name": "role",
          "type": "bytes32"
        },
        {
          "indexed": true,
          "internalType": "address",
          "name": "account",
          "type": "address"
        },
        {
          "indexed": true,
          "internalType": "address",
          "name": "sender",
          "type": "address"
        }
      ],
      "name": "RoleRevoked",
      "type": "event"
    },
    {
      "inputs": [],
      "name": "DEFAULT_ADMIN_ROLE",
      "outputs": [
        {
          "internalType": "bytes32",
          "name": "",
          "type": "bytes32"
        }
      ],
      "stateMutability": "view",
      "type": "function"
    },
    {
      "inputs": [],
      "name": "ORACLE_ROLE",
      "outputs": [
        {
          "internalType": "bytes32",
          "name": "",
          "type": "bytes32"
        }
      ],
      "stateMutability": "view",
      "type": "function"
    },
    {
      "inputs": [
        {
          "internalType": "uint256",
          "name": "listingId",
          "type": "uint256"
        }
      ],
      "name": "buyReputation",
      "outputs": [],
      "stateMutability": "payable",
      "type": "function"
    },
    {
      "inputs": [
        {
          "internalType": "address",
          "name": "owner",
          "type": "address"
        }
      ],
      "name": "getOwnerListings",
      "outputs": [
        {
          "internalType": "uint256[]",
          "name": "",
          "type": "uint256[]"
        }
      ],
      "stateMutability": "view",
      "type": "function"
    },
    {
      "inputs": [
        {
          "internalType": "address",
          "name": "renter",
          "type": "address"
        }
      ],
      "name": "getRenterHistory",
      "outputs": [
        {
          "internalType": "uint256[]",
          "name": "",
          "type": "uint256[]"
        }
      ],
      "stateMutability": "view",
      "type": "function"
    },
    {
      "inputs": [
        {
          "internalType": "bytes32",
          "name": "role",
          "type": "bytes32"
        }
      ],
      "name": "getRoleAdmin",
      "outputs": [
        {
          "internalType": "bytes32",
          "name": "",
          "type": "bytes32"
        }
      ],
      "stateMutability": "view",
      "type": "function"
    },
    {
      "inputs": [
        {
          "internalType": "bytes32",
          "name": "role",
          "type": "bytes32"
        },
        {
          "internalType": "address",
          "name": "account",
          "type": "address"
        }
      ],
      "name": "grantRole",
      "outputs": [],
      "stateMutability": "nonpayable",
      "type": "function"
    },
    {
      "inputs": [
        {
          "internalType": "bytes32",
          "name": "role",
          "type": "bytes32"
        },
        {
          "internalType": "address",
          "name": "account",
          "type": "address"
        }
      ],
      "name": "hasRole",
      "outputs": [
        {
          "internalType": "bool",
          "name": "",
          "type": "bool"
        }
      ],
      "stateMutability": "view",
      "type": "function"
    },
    {
      "inputs": [
        {
          "internalType": "uint256",
          "name": "rentalPricePerDay",
          "type": "uint256"
        },
        {
          "internalType": "uint256",
          "name": "salePrice",
          "type": "uint256"
        },
        {
          "internalType": "bool",
          "name": "isForRent",
          "type": "bool"
        },
        {
          "internalType": "bool",
          "name": "isForSale",
          "type": "bool"
        }
      ],
      "name": "listReputation",
      "outputs": [
        {
          "internalType": "uint256",
          "name": "",
          "type": "uint256"
        }
      ],
      "stateMutability": "nonpayable",
      "type": "function"
    },
    {
      "inputs": [
        {
          "internalType": "uint256",
          "name": "",
          "type": "uint256"
        }
      ],
      "name": "listings",
      "outputs": [
        {
          "internalType": "uint256",
          "name": "listingId",
          "type": "uint256"
        },
        {
          "internalType": "address",
          "name": "owner",
          "type": "address"
        },
        {
          "internalType": "enum ReputationExchange.ReputationType",
          "name": "repType",
          "type": "uint8"
        },
        {
          "internalType": "uint256",
          "name": "reputationScore",
          "type": "uint256"
        },
        {
          "internalType": "uint256",
          "name": "rentalPricePerDay",
          "type": "uint256"
        },
        {
          "internalType": "uint256",
          "name": "salePrice",
          "type": "uint256"
        },
        {
          "internalType": "bool",
          "name": "isForRent",
          "type": "bool"
        },
        {
          "internalType": "bool",
          "name": "isForSale",
          "type": "bool"
        },
        {
          "internalType": "bool",
          "name": "isActive",
          "type": "bool"
        },
        {
          "internalType": "uint256",
          "name": "listedAt",
          "type": "uint256"
        },
        {
          "internalType": "uint256",
          "name": "totalRentals",
          "type": "uint256"
        }
      ],
      "stateMutability": "view",
      "type": "function"
    },
    {
      "inputs": [
        {
          "internalType": "address",
          "name": "",
          "type": "address"
        },
        {
          "internalType": "uint256",
          "name": "",
          "type": "uint256"
        }
      ],
      "name": "ownerListings",
      "outputs": [
        {
          "internalType": "uint256",
          "name": "",
          "type": "uint256"
        }
      ],
      "stateMutability": "view",
      "type": "function"
    },
    {
      "inputs": [],
      "name": "platformFeeBps",
      "outputs": [
        {
          "internalType": "uint256",
          "name": "",
          "type": "uint256"
        }
      ],
      "stateMutability": "view",
      "type": "function"
    },
    {
      "inputs": [
        {
          "internalType": "bytes32",
          "name": "role",
          "type": "bytes32"
        },
        {
          "internalType": "address",
          "name": "callerConfirmation",
          "type": "address"
        }
      ],
      "name": "renounceRole",
      "outputs": [],
      "stateMutability": "nonpayable",
      "type": "function"
    },
    {
      "inputs": [
        {
          "internalType": "uint256",
          "name": "listingId",
          "type": "uint256"
        },
        {
          "internalType": "uint256",
          "name": "days_",
          "type": "uint256"
        }
      ],
      "name": "rentReputation",
      "outputs": [],
      "stateMutability": "payable",
      "type": "function"
    },
    {
      "inputs": [
        {
          "internalType": "uint256",
          "name": "",
          "type": "uint256"
        }
      ],
      "name": "rentals",
      "outputs": [
        {
          "internalType": "uint256",
          "name": "rentalId",
          "type": "uint256"
        },
        {
          "internalType": "uint256",
          "name": "listingId",
          "type": "uint256"
        },
        {
          "internalType": "address",
          "name": "renter",
          "type": "address"
        },
        {
          "internalType": "uint256",
          "name": "startTime",
          "type": "uint256"
        },
        {
          "internalType": "uint256",
          "name": "endTime",
          "type": "uint256"
        },
        {
          "internalType": "uint256",
          "name": "totalPaid",
          "type": "uint256"
        },
        {
          "internalType": "bool",
          "name": "isActive",
          "type": "bool"
        }
      ],
      "stateMutability": "view",
      "type": "function"
    },
    {
      "inputs": [
        {
          "internalType": "address",
          "name": "",
          "type": "address"
        },
        {
          "internalType": "uint256",
          "name": "",
          "type": "uint256"
        }
      ],
      "name": "renterHistory",
      "outputs": [
        {
          "internalType": "uint256",
          "name": "",
          "type": "uint256"
        }
      ],
      "stateMutability": "view",
      "type": "function"
    },
    {
      "inputs": [
        {
          "internalType": "address",
          "name": "",
          "type": "address"
        }
      ],
      "name": "reputationScores",
      "outputs": [
        {
          "internalType": "uint256",
          "name": "",
          "type": "uint256"
        }
      ],
      "stateMutability": "view",
      "type": "function"
    },
    {
      "inputs": [
        {
          "internalType": "address",
          "name": "",
          "type": "address"
        }
      ],
      "name": "reputationTypes",
      "outputs": [
        {
          "internalType": "enum ReputationExchange.ReputationType",
          "name": "",
          "type": "uint8"
        }
      ],
      "stateMutability": "view",
      "type": "function"
    },
    {
      "inputs": [
        {
          "internalType": "bytes32",
          "name": "role",
          "type": "bytes32"
        },
        {
          "internalType": "address",
          "name": "account",
          "type": "address"
        }
      ],
      "name": "revokeRole",
      "outputs": [],
      "stateMutability": "nonpayable",
      "type": "function"
    },
    {
      "inputs": [
        {
          "internalType": "address",
          "name": "user",
          "type": "address"
        },
        {
          "internalType": "uint256",
          "name": "score",
          "type": "uint256"
        },
        {
          "internalType": "enum ReputationExchange.ReputationType",
          "name": "repType",
          "type": "uint8"
        }
      ],
      "name": "setReputation",
      "outputs": [],
      "stateMutability": "nonpayable",
      "type": "function"
    },
    {
      "inputs": [
        {
          "internalType": "bytes4",
          "name": "i",
          "type": "bytes4"
        }
      ],
      "name": "supportsInterface",
      "outputs": [
        {
          "internalType": "bool",
          "name": "",
          "type": "bool"
        }
      ],
      "stateMutability": "view",
      "type": "function"
    },
    {
      "inputs": [],
      "name": "treasury",
      "outputs": [
        {
          "internalType": "address",
          "name": "",
          "type": "address"
        }
      ],
      "stateMutability": "view",
      "type": "function"
    }
  ],
  "bytecode": "0x6080346200009c57601f620017cb38819003918201601f19168301916001600160401b03831184841017620000a1578084926020946040528339810103126200009c57516001600160a01b038116908190036200009c576001805561012c600b55600a80546001600160a01b0319169190911790556200007f33620000b7565b506200008b3362000137565b506040516115d19081620001da8239f35b600080fd5b634e487b7160e01b600052604160045260246000fd5b6001600160a01b031660008181527fad3228b676f7d3cd4284a5443f17f1962b36e491b30a40b2405849e597ba5fb5602052604081205490919060ff166200013357818052816020526040822081835260205260408220600160ff198254161790553391600080516020620017ab8339815191528180a4600190565b5090565b6001600160a01b031660008181527fa629f6981c2f6895a67dc766e8e03ff72d04a413d0d8773a3ca56e9e474032c160205260408120549091907f68e79a7bf1e0bc45d0a330c573bc367f9cf464fd326078812f301165fbda4ef19060ff16620001d457808352826020526040832082845260205260408320600160ff19825416179055600080516020620017ab833981519152339380a4600190565b50509056fe608060408181526004918236101561001657600080fd5b600092833560e01c91826301ffc9a7146110325750816307e2cea514610ff75781630a646f1814610fa957816322dcd13e14610f8a578163233a019514610eb5578163248a9ca314610e8b5781632f2ff15d14610e6157816333630f7814610b3157816336568abe14610ac5578163567c572b1461071457816361d027b3146106df5781638d57b1451461068a57816391d148541461063857816397ce99df146105b757816399124a6514610551578163a217fddf14610536578163af94a1d1146104b4578163c252551b146102ed578163d547741f146102ae578163de74e57b146101ef57508063e2624d441461015d5763fe0438b21461011757600080fd5b34610159576020600319360112610159578060209273ffffffffffffffffffffffffffffffffffffffff6101496110d0565b1681526002845220549051908152f35b5080fd5b503461015957602090816003193601126101eb5773ffffffffffffffffffffffffffffffffffffffff61018e6110d0565b168352600682528083209281518093808654928381520195835280832092905b8282106101d4576101d086866101c6828b0383611414565b519182918261119e565b0390f35b8354875295860195600193840193909101906101ae565b8280fd5b919050346101eb5760206003193601126101eb57806101609383358152836020522060ff8154936001830154906002840154906003850154908501549161026e60058701549486600760068a01549901549980519b8c5273ffffffffffffffffffffffffffffffffffffffff831660208d01528b019160a01c1661111b565b6060880152608087015260a0860152818116151560c0860152818160081c16151560e086015260101c161515610100840152610120830152610140820152f35b919050346101eb57806003193601126101eb576102e991356102e460016102d36110f8565b9383875286602052862001546111d9565b6112e0565b5080f35b9050602090816003193601126104b057803591610308611560565b8285528181528385206005810180549360ff8560101c16806104a3575b1561044757916001917fffffffffffffffffffffffffffffffffffffffffffffffffffffffffff00ffff899483019661036188543410156114ee565b169055600281015433845260028552878420550161038c60ff825460a01c1660038552878420611381565b61271061039b600b54346114db565b049073ffffffffffffffffffffffffffffffffffffffff838080808685600a541682821561043e575bf1156104345783926103dd849392849354169134611553565b9082821561042b575bf11561041e577f231c66bdc904c2385dced6531dd528dbb719a2975ea208e78f4022f02ceb9b68915493519384523393a36001805580f35b50505051903d90823e3d90fd5b506108fc6103e6565b87513d85823e3d90fd5b506108fc6103c4565b606490848851917f08c379a0000000000000000000000000000000000000000000000000000000008352820152600c60248201527f4e6f7420666f722073616c6500000000000000000000000000000000000000006044820152fd5b5060ff8560081c16610325565b8380fd5b9050346101eb5760206003193601126101eb578160e0938235815260056020522080549260018201549273ffffffffffffffffffffffffffffffffffffffff6002840154166003840154918401549260ff600660058701549601541695815197885260208801528601526060850152608084015260a0830152151560c0820152f35b50503461015957816003193601126101595751908152602090f35b50503461015957806003193601126101595761056b6110d0565b73ffffffffffffffffffffffffffffffffffffffff1682526006602052808220805460243593908410156105b457506020926105a691611157565b91905490519160031b1c8152f35b80fd5b50503461015957602090816003193601126101eb5773ffffffffffffffffffffffffffffffffffffffff6105e96110d0565b168352600782528083209281518093808654928381520195835280832092905b828210610621576101d086866101c6828b0383611414565b835487529586019560019384019390910190610609565b9050346101eb57816003193601126101eb578160209360ff926106596110f8565b9035825281865273ffffffffffffffffffffffffffffffffffffffff83832091168252855220541690519015158152f35b5050346101595780600319360112610159576106a46110d0565b73ffffffffffffffffffffffffffffffffffffffff1682526007602052808220805460243593908410156105b457506020926105a691611157565b50503461015957816003193601126101595760209073ffffffffffffffffffffffffffffffffffffffff600a54169051908152f35b919050346101eb5760806003193601126101eb576044359283159283158086036101eb576064359485151595868103610ac157338552602097600289528686205415610a655791610a5d575b5015610a01576107716008546113b8565b94856008553384526003875260ff858520541692600288528585205493865194610160860186811067ffffffffffffffff8211176109d557885288865289860133815260058310156109a957928a8a938896938a98968c8901928352606089019182526080890192853584528560a08b0195602435875260c08c019a8b5260e08c019889526101008c01998d8d60018d52610120019d8e429052610140019e8f5252528d8d209b518c5560018c01915173ffffffffffffffffffffffffffffffffffffffff1682549151600581101561097d57918f9e9d9c9a98969492917fffffffffffffffffffffff00000000000000000000000000000000000000000074ff000000000000000000000000000000000000000060079e9c9a98969460a01b169216171790555160028b01555160038a015551908801556108e56005880193511515849060ff7fffffffffffffffffffffffffffffffffffffffffffffffffffffffffffffff0083541691151516179055565b511515907fffffffffffffffffffffffffffffffffffffffffffffffffffffffffff0000ff61ff0062ff000085549351151560101b169360081b16911617179055516006840155519101553381526006855261094384838320611484565b3381526002855220548151908152827f7f2da7303595e186213e689c7ce1a1767ecc258232f59813a6c0ac5578ce4f52853393a351908152f35b60248f60218a7f4e487b7100000000000000000000000000000000000000000000000000000000835252fd5b6024886021867f4e487b7100000000000000000000000000000000000000000000000000000000835252fd5b6024886041867f4e487b7100000000000000000000000000000000000000000000000000000000835252fd5b606482878651917f08c379a0000000000000000000000000000000000000000000000000000000008352820152601a60248201527f4d757374206c69737420666f722072656e74206f722073616c650000000000006044820152fd5b905038610760565b6064858a8951917f08c379a0000000000000000000000000000000000000000000000000000000008352820152600d60248201527f4e6f2072657075746174696f6e000000000000000000000000000000000000006044820152fd5b8480fd5b838334610159578060031936011261015957610adf6110f8565b903373ffffffffffffffffffffffffffffffffffffffff831603610b0957506102e99192356112e0565b8390517f6697b232000000000000000000000000000000000000000000000000000000008152fd5b9050816003193601126101eb57803560243592610b4c611560565b81855260209183835281862090600582015460ff8160101c169081610e56575b5015610df957610b8b610b838760038501546114db565b3410156114ee565b610b966009546113b8565b948560095562015180808802908882041488151715610dcd57420190814211610da15784519160e0830183811067ffffffffffffffff821117610d75578a89610caf9482989796946006948b528286528b86019788528b8b870198338a526005606089019242845260808a0194855260a08a019634885260c08b019860018a5252528c8c20975188555160018801556002870173ffffffffffffffffffffffffffffffffffffffff809a51167fffffffffffffffffffffffff0000000000000000000000000000000000000000825416179055516003870155519085015551600584015551151591019060ff7fffffffffffffffffffffffffffffffffffffffffffffffffffffffffffffff0083541691151516179055565b33835260078552610cc286858520611484565b60078201610cd081546113b8565b9055612710610ce1600b54346114db565b0491838080808686600a5416828215610d6c575bf115610d62578392610d108493600185940154169134611553565b90828215610d59575bf115610d5057907f18111eb5fc07bcee85cb68a714e298867730bc67fa991644f55c9405fc51361091519384523393a36001805580f35b513d85823e3d90fd5b506108fc610d19565b84513d85823e3d90fd5b506108fc610cf5565b60248b6041857f4e487b7100000000000000000000000000000000000000000000000000000000835252fd5b8860116024927f4e487b7100000000000000000000000000000000000000000000000000000000835252fd5b6024896011847f4e487b7100000000000000000000000000000000000000000000000000000000835252fd5b50506064935051917f08c379a0000000000000000000000000000000000000000000000000000000008352820152600c60248201527f4e6f7420666f722072656e7400000000000000000000000000000000000000006044820152fd5b60ff91501638610b6c565b919050346101eb57806003193601126101eb576102e99135610e8660016102d36110f8565b611236565b9050346101eb5760206003193601126101eb57816020936001923581528085522001549051908152f35b8391503461015957606060031936011261015957610ed16110d0565b926044359160058310156104b0577f68e79a7bf1e0bc45d0a330c573bc367f9cf464fd326078812f301165fbda4ef18085528460205282852033865260205260ff838620541615610f5657505073ffffffffffffffffffffffffffffffffffffffff610f53939416845260026020526024358185205560036020528320611381565b80f35b60449251917fe2517d3f00000000000000000000000000000000000000000000000000000000835233908301526024820152fd5b505034610159578160031936011261015957602090600b549051908152f35b50503461015957602060031936011261015957610ff560ff8260209473ffffffffffffffffffffffffffffffffffffffff610fe26110d0565b168152600386522054169151809261111b565bf35b505034610159578160031936011261015957602090517f68e79a7bf1e0bc45d0a330c573bc367f9cf464fd326078812f301165fbda4ef18152f35b8491346101eb5760206003193601126101eb57357fffffffff0000000000000000000000000000000000000000000000000000000081168091036101eb57602092507f7965db0b0000000000000000000000000000000000000000000000000000000081149081156110a6575b5015158152f35b7f01ffc9a7000000000000000000000000000000000000000000000000000000009150148361109f565b6004359073ffffffffffffffffffffffffffffffffffffffff821682036110f357565b600080fd5b6024359073ffffffffffffffffffffffffffffffffffffffff821682036110f357565b9060058210156111285752565b7f4e487b7100000000000000000000000000000000000000000000000000000000600052602160045260246000fd5b805482101561116f5760005260206000200190600090565b7f4e487b7100000000000000000000000000000000000000000000000000000000600052603260045260246000fd5b6020908160408183019282815285518094520193019160005b8281106111c5575050505090565b8351855293810193928101926001016111b7565b80600052600060205260406000203360005260205260ff60406000205416156111ff5750565b604490604051907fe2517d3f0000000000000000000000000000000000000000000000000000000082523360048301526024820152fd5b906000918083528260205273ffffffffffffffffffffffffffffffffffffffff6040842092169182845260205260ff604084205416156000146112db5780835282602052604083208284526020526040832060017fffffffffffffffffffffffffffffffffffffffffffffffffffffffffffffff008254161790557f2f8788117e7eff1d82e926ec794901d17c78024a50270940304540a733656f0d339380a4600190565b505090565b906000918083528260205273ffffffffffffffffffffffffffffffffffffffff6040842092169182845260205260ff6040842054166000146112db578083528260205260408320828452602052604083207fffffffffffffffffffffffffffffffffffffffffffffffffffffffffffffff0081541690557ff6391f5c32d9c69d2a47ea670b442974b53935d1edc7fd64eb21e047a839171b339380a4600190565b9060058110156111285760ff7fffffffffffffffffffffffffffffffffffffffffffffffffffffffffffffff008354169116179055565b7fffffffffffffffffffffffffffffffffffffffffffffffffffffffffffffffff81146113e55760010190565b7f4e487b7100000000000000000000000000000000000000000000000000000000600052601160045260246000fd5b90601f7fffffffffffffffffffffffffffffffffffffffffffffffffffffffffffffffe0910116810190811067ffffffffffffffff82111761145557604052565b7f4e487b7100000000000000000000000000000000000000000000000000000000600052604160045260246000fd5b805468010000000000000000811015611455576114a691600182018155611157565b7fffffffffffffffffffffffffffffffffffffffffffffffffffffffffffffffff829392549160031b92831b921b1916179055565b818102929181159184041417156113e557565b156114f557565b60646040517f08c379a000000000000000000000000000000000000000000000000000000000815260206004820152601460248201527f496e73756666696369656e74207061796d656e740000000000000000000000006044820152fd5b919082039182116113e557565b600260015414611571576002600155565b60046040517f3ee5aeb5000000000000000000000000000000000000000000000000000000008152fdfea26469706673582212200ebd66b7043085f03725c0dd0bc28bbb202f0e3a20fc187960320f31b185f95864736f6c634300081400332f8788117e7eff1d82e926ec794901d17c78024a50270940304540a733656f0d",
  "linkReferences": {},
  "deployedLinkReferences": {}
}