{
  "_format": "hh-sol-artifact-1",
  "contractName": "SeatingNFT",
  "sourceName": "contracts/layer5/SeatingNFT.sol",
  "abi": [
    {
      "inputs": [
        {
          "internalType": "address",
          "name": "_treasury",
          "type": "address"
        }
      ],
      "stateMutability": "nonpayable",
      "type": "constructor"
    },
    {
      "inputs": [],
      "name": "AccessControlBadConfirmation",
      "type": "error"
    },
    {
      "inputs": [
        {
          "internalType": "address",
          "name": "account",
          "type": "address"
        },
        {
          "internalType": "bytes32",
          "name": "neededRole",
          "type": "bytes32"
        }
      ],
      "name": "AccessControlUnauthorizedAccount",
      "type": "error"
    },
    {
      "inputs": [
        {
          "internalType": "address",
          "name": "sender",
          "type": "address"
        },
        {
          "internalType": "uint256",
          "name": "tokenId",
          "type": "uint256"
        },
        {
          "internalType": "address",
          "name": "owner",
          "type": "address"
        }
      ],
      "name": "ERC721IncorrectOwner",
      "type": "error"
    },
    {
      "inputs": [
        {
          "internalType": "address",
          "name": "operator",
          "type": "address"
        },
        {
          "internalType": "uint256",
          "name": "tokenId",
          "type": "uint256"
        }
      ],
      "name": "ERC721InsufficientApproval",
      "type": "error"
    },
    {
      "inputs": [
        {
          "internalType": "address",
          "name": "approver",
          "type": "address"
        }
      ],
      "name": "ERC721InvalidApprover",
      "type": "error"
    },
    {
      "inputs": [
        {
          "internalType": "address",
          "name": "operator",
          "type": "address"
        }
      ],
      "name": "ERC721InvalidOperator",
      "type": "error"
    },
    {
      "inputs": [
        {
          "internalType": "address",
          "name": "owner",
          "type": "address"
        }
      ],
      "name": "ERC721InvalidOwner",
      "type": "error"
    },
    {
      "inputs": [
        {
          "internalType": "address",
          "name": "receiver",
          "type": "address"
        }
      ],
      "name": "ERC721InvalidReceiver",
      "type": "error"
    },
    {
      "inputs": [
        {
          "internalType": "address",
          "name": "sender",
          "type": "address"
        }
      ],
      "name": "ERC721InvalidSender",
      "type": "error"
    },
    {
      "inputs": [
        {
          "internalType": "uint256",
          "name": "tokenId",
          "type": "uint256"
        }
      ],
      "name": "ERC721NonexistentToken",
      "type": "error"
    },
    {
      "inputs": [],
      "name": "ReentrancyGuardReentrantCall",
      "type": "error"
    },
    {
      "anonymous": false,
      "inputs": [
        {
          "indexed": true,
          "internalType": "address",
          "name": "owner",
          "type": "address"
        },
        {
          "indexed": true,
          "internalType": "address",
          "name": "approved",
          "type": "address"
        },
        {
          "indexed": true,
          "internalType": "uint256",
          "name": "tokenId",
          "type": "uint256"
        }
      ],
      "name": "Approval",
      "type": "event"
    },
    {
      "anonymous": false,
      "inputs": [
        {
          "indexed": true,
          "internalType": "address",
          "name": "owner",
          "type": "address"
        },
        {
          "indexed": true,
          "internalType": "address",
          "name": "operator",
          "type": "address"
        },
        {
          "indexed": false,
          "internalType": "bool",
          "name": "approved",
          "type": "bool"
        }
      ],
      "name": "ApprovalForAll",
      "type": "event"
    },
    {
      "anonymous": false,
      "inputs": [
        {
          "indexed": false,
          "internalType": "uint256",
          "name": "_fromTokenId",
          "type": "uint256"
        },
        {
          "indexed": false,
          "internalType": "uint256",
          "name": "_toTokenId",
          "type": "uint256"
        }
      ],
      "name": "BatchMetadataUpdate",
      "type": "event"
    },
    {
      "anonymous": false,
      "inputs": [
        {
          "indexed": false,
          "internalType": "uint256",
          "name": "_tokenId",
          "type": "uint256"
        }
      ],
      "name": "MetadataUpdate",
      "type": "event"
    },
    {
      "anonymous": false,
      "inputs": [
        {
          "indexed": true,
          "internalType": "bytes32",
          "name": "role",
          "type": "bytes32"
        },
        {
          "indexed": true,
          "internalType": "bytes32",
          "name": "previousAdminRole",
          "type": "bytes32"
        },
        {
          "indexed": true,
          "internalType": "bytes32",
          "name": "newAdminRole",
          "type": "bytes32"
        }
      ],
      "name": "RoleAdminChanged",
      "type": "event"
    },
    {
      "anonymous": false,
      "inputs": [
        {
          "indexed": true,
          "internalType": "bytes32",
          "name": "role",
          "type": "bytes32"
        },
        {
          "indexed": true,
          "internalType": "address",
          "name": "account",
          "type": "address"
        },
        {
          "indexed": true,
          "internalType": "address",
          "name": "sender",
          "type": "address"
        }
      ],
      "name": "RoleGranted",
      "type": "event"
    },
    {
      "anonymous": false,
      "inputs": [
        {
          "indexed": true,
          "internalType": "bytes32",
          "name": "role",
          "type": "bytes32"
        },
        {
          "indexed": true,
          "internalType": "address",
          "name": "account",
          "type": "address"
        },
        {
          "indexed": true,
          "internalType": "address",
          "name": "sender",
          "type": "address"
        }
      ],
      "name": "RoleRevoked",
      "type": "event"
    },
    {
      "anonymous": false,
      "inputs": [
        {
          "indexed": true,
          "internalType": "uint256",
          "name": "seatId",
          "type": "uint256"
        },
        {
          "indexed": true,
          "internalType": "uint256",
          "name": "stadiumId",
          "type": "uint256"
        },
        {
          "indexed": true,
          "internalType": "address",
          "name": "owner",
          "type": "address"
        },
        {
          "indexed": false,
          "internalType": "enum SeatingNFT.SeatTier",
          "name": "tier",
          "type": "uint8"
        }
      ],
      "name": "SeatMinted",
      "type": "event"
    },
    {
      "anonymous": false,
      "inputs": [
        {
          "indexed": true,
          "internalType": "uint256",
          "name": "seatId",
          "type": "uint256"
        },
        {
          "indexed": true,
          "internalType": "address",
          "name": "renter",
          "type": "address"
        },
        {
          "indexed": false,
          "internalType": "uint256",
          "name": "eventId",
          "type": "uint256"
        }
      ],
      "name": "SeatRented",
      "type": "event"
    },
    {
      "anonymous": false,
      "inputs": [
        {
          "indexed": true,
          "internalType": "uint256",
          "name": "seatId",
          "type": "uint256"
        },
        {
          "indexed": false,
          "internalType": "enum SeatingNFT.SeatTier",
          "name": "oldTier",
          "type": "uint8"
        },
        {
          "indexed": false,
          "internalType": "enum SeatingNFT.SeatTier",
          "name": "newTier",
          "type": "uint8"
        }
      ],
      "name": "SeatUpgraded",
      "type": "event"
    },
    {
      "anonymous": false,
      "inputs": [
        {
          "indexed": true,
          "internalType": "address",
          "name": "from",
          "type": "address"
        },
        {
          "indexed": true,
          "internalType": "address",
          "name": "to",
          "type": "address"
        },
        {
          "indexed": true,
          "internalType": "uint256",
          "name": "tokenId",
          "type": "uint256"
        }
      ],
      "name": "Transfer",
      "type": "event"
    },
    {
      "inputs": [],
      "name": "DEFAULT_ADMIN_ROLE",
      "outputs": [
        {
          "internalType": "bytes32",
          "name": "",
          "type": "bytes32"
        }
      ],
      "stateMutability": "view",
      "type": "function"
    },
    {
      "inputs": [],
      "name": "MINTER_ROLE",
      "outputs": [
        {
          "internalType": "bytes32",
          "name": "",
          "type": "bytes32"
        }
      ],
      "stateMutability": "view",
      "type": "function"
    },
    {
      "inputs": [
        {
          "internalType": "address",
          "name": "to",
          "type": "address"
        },
        {
          "internalType": "uint256",
          "name": "tokenId",
          "type": "uint256"
        }
      ],
      "name": "approve",
      "outputs": [],
      "stateMutability": "nonpayable",
      "type": "function"
    },
    {
      "inputs": [
        {
          "internalType": "address",
          "name": "owner",
          "type": "address"
        }
      ],
      "name": "balanceOf",
      "outputs": [
        {
          "internalType": "uint256",
          "name": "",
          "type": "uint256"
        }
      ],
      "stateMutability": "view",
      "type": "function"
    },
    {
      "inputs": [
        {
          "internalType": "uint256",
          "name": "tokenId",
          "type": "uint256"
        }
      ],
      "name": "getApproved",
      "outputs": [
        {
          "internalType": "address",
          "name": "",
          "type": "address"
        }
      ],
      "stateMutability": "view",
      "type": "function"
    },
    {
      "inputs": [
        {
          "internalType": "address",
          "name": "owner",
          "type": "address"
        }
      ],
      "name": "getOwnerSeats",
      "outputs": [
        {
          "internalType": "uint256[]",
          "name": "",
          "type": "uint256[]"
        }
      ],
      "stateMutability": "view",
      "type": "function"
    },
    {
      "inputs": [
        {
          "internalType": "bytes32",
          "name": "role",
          "type": "bytes32"
        }
      ],
      "name": "getRoleAdmin",
      "outputs": [
        {
          "internalType": "bytes32",
          "name": "",
          "type": "bytes32"
        }
      ],
      "stateMutability": "view",
      "type": "function"
    },
    {
      "inputs": [
        {
          "internalType": "uint256",
          "name": "stadiumId",
          "type": "uint256"
        }
      ],
      "name": "getStadiumSeats",
      "outputs": [
        {
          "internalType": "uint256[]",
          "name": "",
          "type": "uint256[]"
        }
      ],
      "stateMutability": "view",
      "type": "function"
    },
    {
      "inputs": [
        {
          "internalType": "bytes32",
          "name": "role",
          "type": "bytes32"
        },
        {
          "internalType": "address",
          "name": "account",
          "type": "address"
        }
      ],
      "name": "grantRole",
      "outputs": [],
      "stateMutability": "nonpayable",
      "type": "function"
    },
    {
      "inputs": [
        {
          "internalType": "bytes32",
          "name": "role",
          "type": "bytes32"
        },
        {
          "internalType": "address",
          "name": "account",
          "type": "address"
        }
      ],
      "name": "hasRole",
      "outputs": [
        {
          "internalType": "bool",
          "name": "",
          "type": "bool"
        }
      ],
      "stateMutability": "view",
      "type": "function"
    },
    {
      "inputs": [
        {
          "internalType": "address",
          "name": "owner",
          "type": "address"
        },
        {
          "internalType": "address",
          "name": "operator",
          "type": "address"
        }
      ],
      "name": "isApprovedForAll",
      "outputs": [
        {
          "internalType": "bool",
          "name": "",
          "type": "bool"
        }
      ],
      "stateMutability": "view",
      "type": "function"
    },
    {
      "inputs": [
        {
          "internalType": "uint256",
          "name": "seatId",
          "type": "uint256"
        },
        {
          "internalType": "uint256",
          "name": "rentalPrice",
          "type": "uint256"
        }
      ],
      "name": "listSeatForRental",
      "outputs": [],
      "stateMutability": "nonpayable",
      "type": "function"
    },
    {
      "inputs": [
        {
          "internalType": "uint256",
          "name": "stadiumId",
          "type": "uint256"
        },
        {
          "internalType": "uint256",
          "name": "row",
          "type": "uint256"
        },
        {
          "internalType": "uint256",
          "name": "seatNumber",
          "type": "uint256"
        },
        {
          "internalType": "enum SeatingNFT.SeatTier",
          "name": "tier",
          "type": "uint8"
        },
        {
          "internalType": "enum SeatingNFT.SeatType",
          "name": "seatType",
          "type": "uint8"
        },
        {
          "internalType": "uint256",
          "name": "pricePerEvent",
          "type": "uint256"
        },
        {
          "internalType": "uint256",
          "name": "seasonDuration",
          "type": "uint256"
        },
        {
          "internalType": "string",
          "name": "tokenURI_",
          "type": "string"
        }
      ],
      "name": "mintSeat",
      "outputs": [
        {
          "internalType": "uint256",
          "name": "",
          "type": "uint256"
        }
      ],
      "stateMutability": "payable",
      "type": "function"
    },
    {
      "inputs": [],
      "name": "name",
      "outputs": [
        {
          "internalType": "string",
          "name": "",
          "type": "string"
        }
      ],
      "stateMutability": "view",
      "type": "function"
    },
    {
      "inputs": [
        {
          "internalType": "uint256",
          "name": "tokenId",
          "type": "uint256"
        }
      ],
      "name": "ownerOf",
      "outputs": [
        {
          "internalType": "address",
          "name": "",
          "type": "address"
        }
      ],
      "stateMutability": "view",
      "type": "function"
    },
    {
      "inputs": [
        {
          "internalType": "address",
          "name": "",
          "type": "address"
        },
        {
          "internalType": "uint256",
          "name": "",
          "type": "uint256"
        }
      ],
      "name": "ownerSeats",
      "outputs": [
        {
          "internalType": "uint256",
          "name": "",
          "type": "uint256"
        }
      ],
      "stateMutability": "view",
      "type": "function"
    },
    {
      "inputs": [],
      "name": "protocolFeePercent",
      "outputs": [
        {
          "internalType": "uint256",
          "name": "",
          "type": "uint256"
        }
      ],
      "stateMutability": "view",
      "type": "function"
    },
    {
      "inputs": [
        {
          "internalType": "bytes32",
          "name": "role",
          "type": "bytes32"
        },
        {
          "internalType": "address",
          "name": "callerConfirmation",
          "type": "address"
        }
      ],
      "name": "renounceRole",
      "outputs": [],
      "stateMutability": "nonpayable",
      "type": "function"
    },
    {
      "inputs": [
        {
          "internalType": "uint256",
          "name": "seatId",
          "type": "uint256"
        },
        {
          "internalType": "uint256",
          "name": "eventId",
          "type": "uint256"
        }
      ],
      "name": "rentSeat",
      "outputs": [],
      "stateMutability": "payable",
      "type": "function"
    },
    {
      "inputs": [
        {
          "internalType": "bytes32",
          "name": "role",
          "type": "bytes32"
        },
        {
          "internalType": "address",
          "name": "account",
          "type": "address"
        }
      ],
      "name": "revokeRole",
      "outputs": [],
      "stateMutability": "nonpayable",
      "type": "function"
    },
    {
      "inputs": [
        {
          "internalType": "address",
          "name": "from",
          "type": "address"
        },
        {
          "internalType": "address",
          "name": "to",
          "type": "address"
        },
        {
          "internalType": "uint256",
          "name": "tokenId",
          "type": "uint256"
        }
      ],
      "name": "safeTransferFrom",
      "outputs": [],
      "stateMutability": "nonpayable",
      "type": "function"
    },
    {
      "inputs": [
        {
          "internalType": "address",
          "name": "from",
          "type": "address"
        },
        {
          "internalType": "address",
          "name": "to",
          "type": "address"
        },
        {
          "internalType": "uint256",
          "name": "tokenId",
          "type": "uint256"
        },
        {
          "internalType": "bytes",
          "name": "data",
          "type": "bytes"
        }
      ],
      "name": "safeTransferFrom",
      "outputs": [],
      "stateMutability": "nonpayable",
      "type": "function"
    },
    {
      "inputs": [
        {
          "internalType": "uint256",
          "name": "",
          "type": "uint256"
        },
        {
          "internalType": "uint256",
          "name": "",
          "type": "uint256"
        }
      ],
      "name": "seatAttended",
      "outputs": [
        {
          "internalType": "bool",
          "name": "",
          "type": "bool"
        }
      ],
      "stateMutability": "view",
      "type": "function"
    },
    {
      "inputs": [
        {
          "internalType": "uint256",
          "name": "",
          "type": "uint256"
        }
      ],
      "name": "seatPerks",
      "outputs": [
        {
          "internalType": "bool",
          "name": "exclusiveRewards",
          "type": "bool"
        },
        {
          "internalType": "bool",
          "name": "earlyTicketAccess",
          "type": "bool"
        },
        {
          "internalType": "bool",
          "name": "merchandiseDiscount",
          "type": "bool"
        },
        {
          "internalType": "bool",
          "name": "meetAndGreetAccess",
          "type": "bool"
        },
        {
          "internalType": "uint256",
          "name": "votingWeight",
          "type": "uint256"
        }
      ],
      "stateMutability": "view",
      "type": "function"
    },
    {
      "inputs": [
        {
          "internalType": "uint256",
          "name": "",
          "type": "uint256"
        }
      ],
      "name": "seatRenter",
      "outputs": [
        {
          "internalType": "address",
          "name": "",
          "type": "address"
        }
      ],
      "stateMutability": "view",
      "type": "function"
    },
    {
      "inputs": [
        {
          "internalType": "uint256",
          "name": "",
          "type": "uint256"
        }
      ],
      "name": "seats",
      "outputs": [
        {
          "internalType": "uint256",
          "name": "seatId",
          "type": "uint256"
        },
        {
          "internalType": "uint256",
          "name": "stadiumId",
          "type": "uint256"
        },
        {
          "internalType": "uint256",
          "name": "row",
          "type": "uint256"
        },
        {
          "internalType": "uint256",
          "name": "seatNumber",
          "type": "uint256"
        },
        {
          "internalType": "enum SeatingNFT.SeatTier",
          "name": "tier",
          "type": "uint8"
        },
        {
          "internalType": "enum SeatingNFT.SeatType",
          "name": "seatType",
          "type": "uint8"
        },
        {
          "internalType": "uint256",
          "name": "pricePerEvent",
          "type": "uint256"
        },
        {
          "internalType": "bool",
          "name": "isPermanent",
          "type": "bool"
        },
        {
          "internalType": "uint256",
          "name": "eventsAttended",
          "type": "uint256"
        },
        {
          "internalType": "uint256",
          "name": "totalSpent",
          "type": "uint256"
        },
        {
          "internalType": "uint256",
          "name": "seasonExpiry",
          "type": "uint256"
        },
        {
          "internalType": "bool",
          "name": "isListed",
          "type": "bool"
        },
        {
          "internalType": "uint256",
          "name": "rentalPrice",
          "type": "uint256"
        }
      ],
      "stateMutability": "view",
      "type": "function"
    },
    {
      "inputs": [
        {
          "internalType": "address",
          "name": "operator",
          "type": "address"
        },
        {
          "internalType": "bool",
          "name": "approved",
          "type": "bool"
        }
      ],
      "name": "setApprovalForAll",
      "outputs": [],
      "stateMutability": "nonpayable",
      "type": "function"
    },
    {
      "inputs": [
        {
          "internalType": "enum SeatingNFT.SeatTier",
          "name": "tier",
          "type": "uint8"
        },
        {
          "internalType": "uint256",
          "name": "price",
          "type": "uint256"
        }
      ],
      "name": "setTierPrice",
      "outputs": [],
      "stateMutability": "nonpayable",
      "type": "function"
    },
    {
      "inputs": [
        {
          "internalType": "uint256",
          "name": "",
          "type": "uint256"
        },
        {
          "internalType": "uint256",
          "name": "",
          "type": "uint256"
        }
      ],
      "name": "stadiumSeats",
      "outputs": [
        {
          "internalType": "uint256",
          "name": "",
          "type": "uint256"
        }
      ],
      "stateMutability": "view",
      "type": "function"
    },
    {
      "inputs": [
        {
          "internalType": "bytes4",
          "name": "interfaceId",
          "type": "bytes4"
        }
      ],
      "name": "supportsInterface",
      "outputs": [
        {
          "internalType": "bool",
          "name": "",
          "type": "bool"
        }
      ],
      "stateMutability": "view",
      "type": "function"
    },
    {
      "inputs": [],
      "name": "symbol",
      "outputs": [
        {
          "internalType": "string",
          "name": "",
          "type": "string"
        }
      ],
      "stateMutability": "view",
      "type": "function"
    },
    {
      "inputs": [
        {
          "internalType": "enum SeatingNFT.SeatTier",
          "name": "",
          "type": "uint8"
        }
      ],
      "name": "tierMintPrice",
      "outputs": [
        {
          "internalType": "uint256",
          "name": "",
          "type": "uint256"
        }
      ],
      "stateMutability": "view",
      "type": "function"
    },
    {
      "inputs": [
        {
          "internalType": "uint256",
          "name": "tokenId",
          "type": "uint256"
        }
      ],
      "name": "tokenURI",
      "outputs": [
        {
          "internalType": "string",
          "name": "",
          "type": "string"
        }
      ],
      "stateMutability": "view",
      "type": "function"
    },
    {
      "inputs": [
        {
          "internalType": "address",
          "name": "from",
          "type": "address"
        },
        {
          "internalType": "address",
          "name": "to",
          "type": "address"
        },
        {
          "internalType": "uint256",
          "name": "tokenId",
          "type": "uint256"
        }
      ],
      "name": "transferFrom",
      "outputs": [],
      "stateMutability": "nonpayable",
      "type": "function"
    },
    {
      "inputs": [],
      "name": "treasury",
      "outputs": [
        {
          "internalType": "address",
          "name": "",
          "type": "address"
        }
      ],
      "stateMutability": "view",
      "type": "function"
    }
  ],
  "bytecode": "0x608034620003de57601f1990601f62002b8938819003828101851684019392916001600160401b039182861185871017620003c85780859260409788528339602094859181010312620003de57516001600160a01b0381169390849003620003de576200006b620003e3565b91600883526713d0538814d9585d60c21b828401526200008a620003e3565b93600785526613d05394d1505560ca1b83860152835194828611620003c8576000958654956001968781811c91168015620003bd575b87821014620003a95790818584931162000356575b508690858311600114620002f5578992620002e9575b5050600019600383901b1c191690861b1786555b8051928311620002d55784548581811c91168015620002ca575b85821014620002b65782811162000272575b508798869897985084928411600114620001fe57509180674563918244f400009892601095948892620001f2575b5050600019600383901b1c191690851b1784555b8360085560fa60125560018060a01b03196011541617601155620001913362000403565b506200019d3362000484565b5083805252662386f26fc1000083832055815266b1a2bc2ec5000082822055600281526702c68af0bb1400008282205560038152670de0b6b3a764000082822055600481522055516126419081620005288239f35b01519050388062000159565b85875284872098939291908316875b81811062000259575098869284926010979695674563918244f400009c106200023f575b505050811b0184556200016d565b015160001960f88460031b161c1916905538808062000231565b828401518b55998701998b99509286019286016200020d565b8587528487208380860160051c820192878710620002ac575b0160051c01905b818110620002a157506200012b565b878155860162000292565b925081926200028b565b634e487b7160e01b87526022600452602487fd5b90607f169062000119565b634e487b7160e01b86526041600452602486fd5b015190503880620000eb565b908c899416918a8052888b20928b5b8a8282106200033f575050841162000325575b505050811b018655620000ff565b015160001960f88460031b161c1916905538808062000317565b8385015186558c9790950194938401930162000304565b9091508880528689208580850160051c8201928986106200039f575b918a91869594930160051c01915b82811062000390575050620000d5565b8b81558594508a910162000380565b9250819262000372565b634e487b7160e01b89526022600452602489fd5b90607f1690620000c0565b634e487b7160e01b600052604160045260246000fd5b600080fd5b60408051919082016001600160401b03811183821017620003c857604052565b6001600160a01b031660008181527f6d5257204ebe7d88fd91ae87941cb2dd9d8062b64ae5a2bd2d28ec40b9fbf6df602052604081205490919060ff16620004805781805260076020526040822081835260205260408220600160ff19825416179055339160008051602062002b698339815191528180a4600190565b5090565b6001600160a01b031660008181527fa4bfd7afe708e2e87e7f0e2ad9b4d545417e0f795f57b5c5ab5d799c565a04f460205260408120549091907f9f2df0fed2c77648de5860a4cc508cd0818c85b8b8a1ab4ceeef8d981c8956a69060ff16620005225780835260076020526040832082845260205260408320600160ff1982541617905560008051602062002b69833981519152339380a4600190565b50509056fe608080604052600436101561001357600080fd5b60003560e01c90816301ffc9a714611a3f57508063026e0ba714611a0e5780630532b0fe1461195657806306fdde03146118b35780630755e2e414611882578063081812fc14611836578063095ea7b3146116f657806317e897f6146116be57806323b872dd146116a7578063248a9ca3146116785780632f2ff15d1461163957806336568abe146115cd5780633b33c702146114f857806342842e0e146114ca578063475cb5e6146114675780634a5c6f8c146113cd57806361d027b3146113995780636352211e1461135d57806370a08231146112df57806391d148541461128457806395d89b41146111a55780639be910a214610f04578063a217fddf14610ee8578063a22cb46514610e14578063b88d4fde14610da8578063c477f31f14610d66578063c8234ed214610ce1578063c87b56dd14610bf2578063d1fe803a14610b78578063d49c111214610b15578063d539139314610ada578063d547741f14610a99578063d6e6eb9f14610a7b578063e985e9c514610a175763ef1af703146101a057600080fd5b6101006003193601126108e857600560643510156108e857600360843510156108e85760e43567ffffffffffffffff81116108e857366023820112156108e8576101f4903690602481600401359101611d90565b6101fc6124ce565b61021361020a606435611b74565b5434101561240e565b61021e600954612473565b80600955608435156000146109da5760005b604051906101a0820182811067ffffffffffffffff82111761073257604052828252600435602083015260243560408301526044356060830152606435608083015260843560a083015260a43560c08301526084351560e0830152600061010083015260006101208301526101408201526000610160820152600061018082015281600052600a602052604060002081518155602082015160018201556040820151600282015560608201516003820155608082015160058110156109ab57600482015460a08401519360038510156109ab57600b92610180927fffffffffffffffffffffffffffffffffffffffffffffffffffffffffffff000060ff61ff00809960081b16931691161717600485015560c0810151600585015561036b60e08201511515600686019060ff60ff1983541691151516179055565b6101008101516007850155610120810151600885015561014081015160098501556103ad6101608201511515600a86019060ff60ff1983541691151516179055565b0151910155600160806103c1606435612509565b84600052600b6020526040600020936103ea82511515869060ff60ff1983541691151516179055565b602082015115159085547fffffffffffffffffffffffffffffffffffffffffffffffffffffffff000000ff62ff00006040860151151560101b169263ff0000006060870151151560181b169460081b16911617171784550151910155600435600052600d60205261045f816040600020612482565b33600052600e602052610476816040600020612482565b60405161048281611cf9565b60008152331561097a5781600052600260205273ffffffffffffffffffffffffffffffffffffffff908160406000205416838115159182610926575b3360005260036020526040600020600181540190558160005260026020526040600020337fffffffffffffffffffffffff000000000000000000000000000000000000000082541617905533907fddf252ad1be2c89b69c2b068fc378daa952ba7f163c4a11628f55a4df523b3ef600080a46108f557333b610761575b508160005260066020526040600020835167ffffffffffffffff8111610732576105658254611f72565b601f81116106ea575b50602094601f821160011461065c5792600094959282869593869586958692610651575b50506000198260011b9260031b1c19161790555b7ff8e1a15aba9398e019f0b49df1a4fde98ee17ae345cb5f6b5e2c27f5033e8ce76020604051888152a1601154166127106105e3601254346124bb565b0490828215610648575bf11561063c5760209060405161060581606435611cd0565b3390827f3ac5df134e7bd49d4bb007f250e49c7748271d8814bf096b9407c0eb1a08edf38560043593a46001600855604051908152f35b6040513d6000823e3d90fd5b506108fc6105ed565b015190503880610592565b947fffffffffffffffffffffffffffffffffffffffffffffffffffffffffffffffe08216958360005260206000209660005b8181106106d2575083600097988897948897948897600195106106b9575b505050811b0190556105a6565b015160001960f88460031b161c191690553880806106ac565b8383015189556001909801976020938401930161068e565b826000526020600020601f830160051c81019160208410610728575b601f0160051c01905b81811061071c575061056e565b6000815560010161070f565b9091508190610706565b7f4e487b7100000000000000000000000000000000000000000000000000000000600052604160045260246000fd5b604051602081806107b47f150b7a02000000000000000000000000000000000000000000000000000000009586835233600484015260006024840152886044840152608060648401526084830190611ba3565b03816000335af160009181610893575b50610836573d1561082f573d6107d981611d56565b906107e76040519283611d15565b81523d6000602083013e5b8051908161082a5760246040517f64a0ae92000000000000000000000000000000000000000000000000000000008152336004820152fd5b602001fd5b60606107f2565b7fffffffff000000000000000000000000000000000000000000000000000000001603610863573861053b565b60246040517f64a0ae92000000000000000000000000000000000000000000000000000000008152336004820152fd5b9091506020813d6020116108ed575b816108af60209383611d15565b810103126108e857517fffffffff00000000000000000000000000000000000000000000000000000000811681036108e85790386107c4565b600080fd5b3d91506108a2565b60246040517f73c6ac6e00000000000000000000000000000000000000000000000000000000815260006004820152fd5b61095f82600052600460205260406000207fffffffffffffffffffffffff00000000000000000000000000000000000000008154169055565b806000526003602052604060002060001981540190556104be565b60246040517f64a0ae9200000000000000000000000000000000000000000000000000000000815260006004820152fd5b7f4e487b7100000000000000000000000000000000000000000000000000000000600052602160045260246000fd5b60c435420180421115610230575b7f4e487b7100000000000000000000000000000000000000000000000000000000600052601160045260246000fd5b346108e85760406003193601126108e857610a30611c48565b610a38611c6b565b9073ffffffffffffffffffffffffffffffffffffffff809116600052600560205260406000209116600052602052602060ff604060002054166040519015158152f35b346108e85760006003193601126108e8576020601254604051908152f35b346108e85760406003193601126108e857610ad8600435610ab8611c6b565b90806000526007602052610ad3600160406000200154611e02565b611eed565b005b346108e85760006003193601126108e85760206040517f9f2df0fed2c77648de5860a4cc508cd0818c85b8b8a1ab4ceeef8d981c8956a68152f35b346108e85760406003193601126108e857610b2e611c48565b73ffffffffffffffffffffffffffffffffffffffff6024359116600052600e602052604060002080548210156108e857602091610b6a91611c01565b90546040519160031b1c8152f35b346108e8576020806003193601126108e857600435600052600d8152604060002090604051908181845491828152019360005281600020916000905b828210610bdb57610bd785610bcb81890382611d15565b60405191829182611dc7565b0390f35b835486529485019460019384019390910190610bb4565b346108e8576020806003193601126108e857600435610c10816121d8565b5060005260068152604060002090604051918260008254610c3081611f72565b93848452600191868382169182600014610cbe575050600114610c7f575b5050610c5c92500383611d15565b6000604051610c6a81611cf9565b52610bd7604051928284938452830190611ba3565b85925060005281600020906000915b858310610ca6575050610c5c93508201018580610c4e565b80548389018501528794508693909201918101610c8e565b91509350610c5c95925060ff1991501682840152151560051b8201018580610c4e565b346108e8576020806003193601126108e85773ffffffffffffffffffffffffffffffffffffffff610d10611c48565b16600052600e8152604060002090604051908181845491828152019360005281600020916000905b828210610d4f57610bd785610bcb81890382611d15565b835486529485019460019384019390910190610d38565b346108e85760206003193601126108e857600435600052600f602052602073ffffffffffffffffffffffffffffffffffffffff60406000205416604051908152f35b346108e85760806003193601126108e857610dc1611c48565b610dc9611c6b565b906044356064359267ffffffffffffffff84116108e857366023850112156108e857610e02610ad8943690602481600401359101611d90565b92610e0e838383611fc5565b33612239565b346108e85760406003193601126108e857610e2d611c48565b60243590811515908183036108e85773ffffffffffffffffffffffffffffffffffffffff16918215610eb757610e899033600052600560205260406000208460005260205260406000209060ff60ff1983541691151516179055565b6040519081527f17307eab39ab6107e8899845ad3d59bd9653f200f220920489ca2b5937696c3160203392a3005b602483604051907f5b08ba180000000000000000000000000000000000000000000000000000000082526004820152fd5b346108e85760006003193601126108e857602060405160008152f35b610f0d36611b8d565b90610f166124ce565b806000526020600a8152604060002060ff600a820154161561114757610f42600b82015434101561240e565b82600052600f825273ffffffffffffffffffffffffffffffffffffffff9081604060002054166110e95783600052600c8352604060002085600052835260ff6040600020541661108b5760079084600052600f84526040600020337fffffffffffffffffffffffff0000000000000000000000000000000000000000825416179055600c845260406000208660005284526040600020600160ff1982541617905501610fee8154612473565b9055612710610fff601254346124bb565b04906000808080858560115416828215611082575bf11561063c57611023846121d8565b16813403903482116109e85760009283928392839283903414611079575bf11561063c577f14ac4ede44d0cf3df3b87ff0cf4a9dc2b0f5100c5ad611a50440c9b33040a495906040519384523393a36001600855005b506108fc611041565b506108fc611014565b606483604051907f08c379a00000000000000000000000000000000000000000000000000000000082526004820152600c60248201527f416c7265616479207573656400000000000000000000000000000000000000006044820152fd5b606483604051907f08c379a00000000000000000000000000000000000000000000000000000000082526004820152600e60248201527f416c72656164792072656e7465640000000000000000000000000000000000006044820152fd5b606482604051907f08c379a00000000000000000000000000000000000000000000000000000000082526004820152600c60248201527f4e6f7420666f722072656e7400000000000000000000000000000000000000006044820152fd5b346108e85760006003193601126108e857604051600060018054906111c982611f72565b8085529181811690811561125d5750600114611204575b610bd7846111f081860382611d15565b604051918291602083526020830190611ba3565b600081815292507fb10e2d527612073b26eecdfd717e6a320cf44b4afac2b0732d9fcbe2b7fa0cf65b8284106112455750505081016020016111f0826111e0565b8054602085870181019190915290930192810161122d565b60ff191660208087019190915292151560051b850190920192506111f091508390506111e0565b346108e85760406003193601126108e85761129d611c6b565b600435600052600760205273ffffffffffffffffffffffffffffffffffffffff60406000209116600052602052602060ff604060002054166040519015158152f35b346108e85760206003193601126108e85773ffffffffffffffffffffffffffffffffffffffff61130d611c48565b16801561132c5760005260036020526020604060002054604051908152f35b60246040517f89c62b6400000000000000000000000000000000000000000000000000000000815260006004820152fd5b346108e85760206003193601126108e857602061137b6004356121d8565b73ffffffffffffffffffffffffffffffffffffffff60405191168152f35b346108e85760006003193601126108e857602073ffffffffffffffffffffffffffffffffffffffff60115416604051908152f35b346108e85760406003193601126108e85760043560058110156108e8573360009081527f6d5257204ebe7d88fd91ae87941cb2dd9d8062b64ae5a2bd2d28ec40b9fbf6df602052604090205460ff16156114305761142d60243591611b74565b55005b60446040517fe2517d3f00000000000000000000000000000000000000000000000000000000815233600482015260006024820152fd5b346108e85760206003193601126108e857600435600052600b60205260a060406000206001815491015460ff6040519281811615158452818160081c1615156020850152818160101c161515604085015260181c16151560608301526080820152f35b346108e857610ad86114db36611c8e565b90604051926114e984611cf9565b60008452610e0e838383611fc5565b346108e85760206003193601126108e857600435600052600a60205260406000208054600182015460028301549260038101549360048201549460ff8660081c1695600584015460ff6006860154169061158d600787015493600888015495600989015497600b60ff600a8c0154169a01549a6040519c8d5260208d015260408c015260608b015260ff60808b019116611cd0565b60038910156109ab576101a09860a089015260c0880152151560e08701526101008601526101208501526101408401521515610160830152610180820152f35b346108e85760406003193601126108e8576115e6611c6b565b3373ffffffffffffffffffffffffffffffffffffffff82160361160f57610ad890600435611eed565b60046040517f6697b232000000000000000000000000000000000000000000000000000000008152fd5b346108e85760406003193601126108e857610ad8600435611658611c6b565b90806000526007602052611673600160406000200154611e02565b611e5f565b346108e85760206003193601126108e85760043560005260076020526020600160406000200154604051908152f35b346108e857610ad86116b836611c8e565b91611fc5565b346108e8576116cc36611b8d565b90600052600c602052604060002090600052602052602060ff604060002054166040519015158152f35b346108e85760406003193601126108e85761170f611c48565b60243561171b816121d8565b33151580611816575b806117db575b6117ab57819073ffffffffffffffffffffffffffffffffffffffff809416938491167f8c5be1e5ebec7d5bd14f71427d1e84f3dd0314c0f7b2291e5b200ac8c7c3b925600080a460005260046020526040600020907fffffffffffffffffffffffff0000000000000000000000000000000000000000825416179055600080f35b60246040517fa9fbf51f000000000000000000000000000000000000000000000000000000008152336004820152fd5b5073ffffffffffffffffffffffffffffffffffffffff8116600052600560205260406000203360005260205260ff604060002054161561172a565b503373ffffffffffffffffffffffffffffffffffffffff82161415611724565b346108e85760206003193601126108e857600435611853816121d8565b506000526004602052602073ffffffffffffffffffffffffffffffffffffffff60406000205416604051908152f35b346108e85761189036611b8d565b90600052600d602052604060002080548210156108e857602091610b6a91611c01565b346108e85760006003193601126108e857604051600080546118d481611f72565b8084529060019081811690811561125d57506001146118fd57610bd7846111f081860382611d15565b600080805292507f290decd9548b62a8d60345a988386fc84ba6bc95484008f6362f93160ef3e5635b82841061193e5750505081016020016111f0826111e0565b80546020858701810191909152909301928101611926565b346108e85761196436611b8d565b9061196e816121d8565b73ffffffffffffffffffffffffffffffffffffffff339116036119b057600052600a602052600b6040600020600a8101600160ff198254161790550155600080f35b60646040517f08c379a000000000000000000000000000000000000000000000000000000000815260206004820152600960248201527f4e6f74206f776e657200000000000000000000000000000000000000000000006044820152fd5b346108e85760206003193601126108e85760043560058110156108e857611a36602091611b74565b54604051908152f35b346108e85760206003193601126108e857600435907fffffffff0000000000000000000000000000000000000000000000000000000082168092036108e857817f7965db0b0000000000000000000000000000000000000000000000000000000060209314908115611ab3575b5015158152f35b7f4906490600000000000000000000000000000000000000000000000000000000811491508115611ae6575b5083611aac565b7f80ac58cd00000000000000000000000000000000000000000000000000000000811491508115611b4a575b8115611b20575b5083611adf565b7f01ffc9a70000000000000000000000000000000000000000000000000000000091501483611b19565b7f5b5e139f0000000000000000000000000000000000000000000000000000000081149150611b12565b60058110156109ab576000526010602052604060002090565b60031960409101126108e8576004359060243590565b919082519283825260005b848110611bed5750507fffffffffffffffffffffffffffffffffffffffffffffffffffffffffffffffe0601f8460006020809697860101520116010190565b602081830181015184830182015201611bae565b8054821015611c195760005260206000200190600090565b7f4e487b7100000000000000000000000000000000000000000000000000000000600052603260045260246000fd5b6004359073ffffffffffffffffffffffffffffffffffffffff821682036108e857565b6024359073ffffffffffffffffffffffffffffffffffffffff821682036108e857565b60031960609101126108e85773ffffffffffffffffffffffffffffffffffffffff9060043582811681036108e8579160243590811681036108e8579060443590565b9060058210156109ab5752565b60a0810190811067ffffffffffffffff82111761073257604052565b6020810190811067ffffffffffffffff82111761073257604052565b90601f7fffffffffffffffffffffffffffffffffffffffffffffffffffffffffffffffe0910116810190811067ffffffffffffffff82111761073257604052565b67ffffffffffffffff811161073257601f017fffffffffffffffffffffffffffffffffffffffffffffffffffffffffffffffe01660200190565b929192611d9c82611d56565b91611daa6040519384611d15565b8294818452818301116108e8578281602093846000960137010152565b6020908160408183019282815285518094520193019160005b828110611dee575050505090565b835185529381019392810192600101611de0565b80600052600760205260406000203360005260205260ff6040600020541615611e285750565b604490604051907fe2517d3f0000000000000000000000000000000000000000000000000000000082523360048301526024820152fd5b90600091808352600760205273ffffffffffffffffffffffffffffffffffffffff6040842092169182845260205260ff60408420541615600014611ee85780835260076020526040832082845260205260408320600160ff198254161790557f2f8788117e7eff1d82e926ec794901d17c78024a50270940304540a733656f0d339380a4600190565b505090565b90600091808352600760205273ffffffffffffffffffffffffffffffffffffffff6040842092169182845260205260ff604084205416600014611ee8578083526007602052604083208284526020526040832060ff1981541690557ff6391f5c32d9c69d2a47ea670b442974b53935d1edc7fd64eb21e047a839171b339380a4600190565b90600182811c92168015611fbb575b6020831014611f8c57565b7f4e487b7100000000000000000000000000000000000000000000000000000000600052602260045260246000fd5b91607f1691611f81565b909173ffffffffffffffffffffffffffffffffffffffff80931692831561097a57600092828452826020956002875260409684888820541696879133151580612110575b509060027fddf252ad1be2c89b69c2b068fc378daa952ba7f163c4a11628f55a4df523b3ef92846120c0575b858352600381528b83206001815401905586835252898120847fffffffffffffffffffffffff000000000000000000000000000000000000000082541617905580a416928383036120865750505050565b6064945051927f64283d7b000000000000000000000000000000000000000000000000000000008452600484015260248301526044820152fd5b6120f987600052600460205260406000207fffffffffffffffffffffffff00000000000000000000000000000000000000008154169055565b848352600381528b83206000198154019055612035565b91939450915080612197575b1561212c57859291879138612009565b8786886121625760249151907f7e2732890000000000000000000000000000000000000000000000000000000082526004820152fd5b60449151907f177e802f0000000000000000000000000000000000000000000000000000000082523360048301526024820152fd5b5033871480156121bc575b8061211c575085825260048152338589842054161461211c565b5086825260058152878220338352815260ff88832054166121a2565b80600052600260205273ffffffffffffffffffffffffffffffffffffffff60406000205416908115612208575090565b602490604051907f7e2732890000000000000000000000000000000000000000000000000000000082526004820152fd5b90939192833b61224b575b5050505050565b73ffffffffffffffffffffffffffffffffffffffff95929394958095169460405196817f150b7a020000000000000000000000000000000000000000000000000000000094858a52166004890152166024870152604486015260806064860152846122bc6020946084830190611ba3565b039483816000978189895af18691816123b2575b50612349575050503d600014612340573d6122ea81611d56565b906122f86040519283611d15565b81528093823d92013e5b8251928361233b57602483604051907f64a0ae920000000000000000000000000000000000000000000000000000000082526004820152fd5b019050fd5b60609250612302565b9092507fffffffff00000000000000000000000000000000000000000000000000000000919450160361238157503880808080612244565b602490604051907f64a0ae920000000000000000000000000000000000000000000000000000000082526004820152fd5b9091508481813d8311612407575b6123ca8183611d15565b8101031261240357517fffffffff00000000000000000000000000000000000000000000000000000000811681036124035790386122d0565b8680fd5b503d6123c0565b1561241557565b60646040517f08c379a000000000000000000000000000000000000000000000000000000000815260206004820152601460248201527f496e73756666696369656e74207061796d656e740000000000000000000000006044820152fd5b60001981146109e85760010190565b805468010000000000000000811015610732576124a491600182018155611c01565b600019829392549160031b92831b921b1916179055565b818102929181159184041417156109e857565b6002600854146124df576002600855565b60046040517f3ee5aeb5000000000000000000000000000000000000000000000000000000008152fd5b6040805161251681611cdd565b60008082526020938185840152818484015260609082828501528260808095015260058110156125de5780156125cc576001928382146125a75760028214612594575060031461258357818481601996519761257189611cdd565b81895288015286015284015282015290565b818481600a96519761257189611cdd565b9290508481600596519761257189611cdd565b929050848360029651976125ba89611cdd565b83895288015286015284015282015290565b50818481600196519761257189611cdd565b6024837f4e487b710000000000000000000000000000000000000000000000000000000081526021600452fdfea2646970667358221220b07cd1b0038ce0a5d3e631adb5554009e1f36b6a49f672bbfd4aad3048283d3a64736f6c634300081400332f8788117e7eff1d82e926ec794901d17c78024a50270940304540a733656f0d",
  "linkReferences": {},
  "deployedLinkReferences": {}
}