{
  "_format": "hh-sol-artifact-1",
  "contractName": "TransparencyRegistry",
  "sourceName": "contracts/layer7/auditing/TransparencyRegistry.sol",
  "abi": [
    {
      "anonymous": false,
      "inputs": [
        {
          "indexed": true,
          "internalType": "uint256",
          "name": "recordId",
          "type": "uint256"
        },
        {
          "indexed": false,
          "internalType": "enum TransparencyRegistry.RecordType",
          "name": "recordType",
          "type": "uint8"
        },
        {
          "indexed": true,
          "internalType": "uint256",
          "name": "entityId",
          "type": "uint256"
        }
      ],
      "name": "RecordCreated",
      "type": "event"
    },
    {
      "anonymous": false,
      "inputs": [
        {
          "indexed": true,
          "internalType": "uint256",
          "name": "recordId",
          "type": "uint256"
        }
      ],
      "name": "RecordMadePublic",
      "type": "event"
    },
    {
      "inputs": [
        {
          "internalType": "uint256",
          "name": "entityId",
          "type": "uint256"
        },
        {
          "internalType": "enum TransparencyRegistry.RecordType",
          "name": "recordType",
          "type": "uint8"
        },
        {
          "internalType": "bytes32",
          "name": "dataHash",
          "type": "bytes32"
        },
        {
          "internalType": "string",
          "name": "description",
          "type": "string"
        },
        {
          "internalType": "bool",
          "name": "isPublic",
          "type": "bool"
        }
      ],
      "name": "createRecord",
      "outputs": [
        {
          "internalType": "uint256",
          "name": "",
          "type": "uint256"
        }
      ],
      "stateMutability": "nonpayable",
      "type": "function"
    },
    {
      "inputs": [
        {
          "internalType": "uint256",
          "name": "",
          "type": "uint256"
        },
        {
          "internalType": "uint256",
          "name": "",
          "type": "uint256"
        }
      ],
      "name": "entityRecords",
      "outputs": [
        {
          "internalType": "uint256",
          "name": "",
          "type": "uint256"
        }
      ],
      "stateMutability": "view",
      "type": "function"
    },
    {
      "inputs": [
        {
          "internalType": "uint256",
          "name": "entityId",
          "type": "uint256"
        },
        {
          "internalType": "uint256",
          "name": "fromTimestamp",
          "type": "uint256"
        },
        {
          "internalType": "uint256",
          "name": "toTimestamp",
          "type": "uint256"
        }
      ],
      "name": "generateComplianceReport",
      "outputs": [
        {
          "internalType": "uint256",
          "name": "totalRecords",
          "type": "uint256"
        },
        {
          "internalType": "uint256",
          "name": "securityRecords",
          "type": "uint256"
        },
        {
          "internalType": "uint256",
          "name": "complianceRecords",
          "type": "uint256"
        }
      ],
      "stateMutability": "view",
      "type": "function"
    },
    {
      "inputs": [
        {
          "internalType": "uint256",
          "name": "entityId",
          "type": "uint256"
        }
      ],
      "name": "getEntityRecords",
      "outputs": [
        {
          "internalType": "uint256[]",
          "name": "",
          "type": "uint256[]"
        }
      ],
      "stateMutability": "view",
      "type": "function"
    },
    {
      "inputs": [
        {
          "internalType": "enum TransparencyRegistry.RecordType",
          "name": "recordType",
          "type": "uint8"
        }
      ],
      "name": "getRecordsByType",
      "outputs": [
        {
          "internalType": "uint256[]",
          "name": "",
          "type": "uint256[]"
        }
      ],
      "stateMutability": "view",
      "type": "function"
    },
    {
      "inputs": [
        {
          "internalType": "uint256",
          "name": "recordId",
          "type": "uint256"
        }
      ],
      "name": "makePublic",
      "outputs": [],
      "stateMutability": "nonpayable",
      "type": "function"
    },
    {
      "inputs": [],
      "name": "recordCount",
      "outputs": [
        {
          "internalType": "uint256",
          "name": "",
          "type": "uint256"
        }
      ],
      "stateMutability": "view",
      "type": "function"
    },
    {
      "inputs": [
        {
          "internalType": "uint256",
          "name": "",
          "type": "uint256"
        }
      ],
      "name": "records",
      "outputs": [
        {
          "internalType": "uint256",
          "name": "recordId",
          "type": "uint256"
        },
        {
          "internalType": "uint256",
          "name": "entityId",
          "type": "uint256"
        },
        {
          "internalType": "enum TransparencyRegistry.RecordType",
          "name": "recordType",
          "type": "uint8"
        },
        {
          "internalType": "bytes32",
          "name": "dataHash",
          "type": "bytes32"
        },
        {
          "internalType": "uint256",
          "name": "timestamp",
          "type": "uint256"
        },
        {
          "internalType": "address",
          "name": "reporter",
          "type": "address"
        },
        {
          "internalType": "string",
          "name": "description",
          "type": "string"
        },
        {
          "internalType": "bool",
          "name": "isPublic",
          "type": "bool"
        }
      ],
      "stateMutability": "view",
      "type": "function"
    },
    {
      "inputs": [
        {
          "internalType": "enum TransparencyRegistry.RecordType",
          "name": "",
          "type": "uint8"
        },
        {
          "internalType": "uint256",
          "name": "",
          "type": "uint256"
        }
      ],
      "name": "recordsByType",
      "outputs": [
        {
          "internalType": "uint256",
          "name": "",
          "type": "uint256"
        }
      ],
      "stateMutability": "view",
      "type": "function"
    }
  ],
  "bytecode": "0x6080806040523461001657610d46908161001c8239f35b600080fdfe6080806040526004908136101561001557600080fd5b60003560e01c90816304fa79b814610a5d57508063344610671461088657806362d1ce76146103c957806370f4616d146102d25780638bbfa55c146102955780638e0b37771461016d578063900407bc1461014f578063dc574a4d146101085763f8ed51a81461008457600080fd5b34610103576020908160031936011261010357356006811015610103576100aa90610bfd565b90604051908181845491828152019360005281600020916000905b8282106100ec576100e8856100dc81890382610b51565b60405191829182610ac3565b0390f35b8354865294850194600193840193909101906100c5565b600080fd5b50346101035760406003193601126101035760243590356000526002602052604060002080548210156101035760209161014191610c16565b90546040519160031b1c8152f35b34610103576000600319360112610103576020600354604051908152f35b5034610103576060600319360112610103578035600090815260026020818152604083208054602495859485949360443590893590875b8681106101c15760608b8b8b8b6040519384528301526040820152f35b6101cb8183610c16565b90549060031b1c600052600088526040600020868101548585821015918261028a575b5050610204575b506101ff90610c5d565b6101a4565b9a8561021160ff92610c5d565b9c015416600681101561025d57868114610249575b600514610234575b386101f5565b986102416101ff91610c5d565b99905061022e565b98610255600591610c5d565b999050610226565b8c6021887f4e487b7100000000000000000000000000000000000000000000000000000000600052526000fd5b1115905085386101ee565b503461010357604060031936011261010357356006811015610103576102bd60243591610bfd565b80548210156101035760209161014191610c16565b50346101035760206003193601126101035780359081600052600060205260406000209073ffffffffffffffffffffffffffffffffffffffff600583015416330361036b575060070160017fffffffffffffffffffffffffffffffffffffffffffffffffffffffffffffff008254161790557f980494681dacf3a6452d4aa5486a42921e6d1d65c21b718a9d0732106f36ef23600080a2005b6064906020604051917f08c379a0000000000000000000000000000000000000000000000000000000008352820152600c60248201527f4e6f74207265706f7274657200000000000000000000000000000000000000006044820152fd5b50346101035760a06003193601126101035760246006813510156101035767ffffffffffffffff9060643582811161010357366023820112156101035780840135838111610859576040519161044760207fffffffffffffffffffffffffffffffffffffffffffffffffffffffffffffffe0601f8501160184610b51565b818352368483830101116101035781600092856020930183860137830101526084358015158091036101035761047e600354610c5d565b93846003556040519261010084018481108382111761082c576040528584526020840192873584526040850186358152606086016044358152608087019142835260a088019333855260c0890195865260e08901528960005260006020526040600020968851885551600188015560028701905160068110156107ff5760ff7fffffffffffffffffffffffffffffffffffffffffffffffffffffffffffffff008354169116179055516003860155518885015573ffffffffffffffffffffffffffffffffffffffff600585019151167fffffffffffffffffffffffff00000000000000000000000000000000000000008254161790555180519182116107d25761058b6006840154610afe565b601f8111610787575b5091859391602097938890601f8311600114610693577f449ad96e39fc0bf6f9c857db236fb7783c32b22f729c27ca11630b5fa16ea5b59593838b969460e094600794600092610688575b50507fffffffffffffffffffffffffffffffffffffffffffffffffffffffffffffffff8260011b9260031b1c19161760068201555b01910151151560ff7fffffffffffffffffffffffffffffffffffffffffffffffffffffffffffffff008354169116179055610658846106538735610bfd565b610cb9565b80356000526002825261066f846040600020610cb9565b61067d604051809635610bc1565b3593a3604051908152f35b0151905038806105df565b9060068401600052896000209160005b7fffffffffffffffffffffffffffffffffffffffffffffffffffffffffffffffe08516811061076d57509360018460e0946007947f449ad96e39fc0bf6f9c857db236fb7783c32b22f729c27ca11630b5fa16ea5b59a988f9a987fffffffffffffffffffffffffffffffffffffffffffffffffffffffffffffffe0811610610736575b505050811b016006820155610614565b01517fffffffffffffffffffffffffffffffffffffffffffffffffffffffffffffffff60f88460031b161c19169055388080610726565b8183015184558a9850600190930192918b01918b016106a3565b600684016000526020600020601f840160051c810191602085106107c8575b601f0160051c01905b8181106107bc5750610594565b600081556001016107af565b90915081906107a6565b846041887f4e487b7100000000000000000000000000000000000000000000000000000000600052526000fd5b8960218d7f4e487b7100000000000000000000000000000000000000000000000000000000600052526000fd5b856041897f4e487b7100000000000000000000000000000000000000000000000000000000600052526000fd5b826041867f4e487b7100000000000000000000000000000000000000000000000000000000600052526000fd5b50346101035760209081600319360112610103578035600052600082526040600020805492600191828101549360ff600283015416906003830154908301549173ffffffffffffffffffffffffffffffffffffffff60058501541693600681016040519788916000918154916108fb83610afe565b928386528b8382169182600014610a195750506001146109d5575b5050506109509261093660ff936007939d9b9a999897969c9d038a610b51565b01541697604051998a988952868901526040880190610bc1565b6060860152608085015260a0840152610100918260c08501528051809385015260005b8381106109bd57505050601f7fffffffffffffffffffffffffffffffffffffffffffffffffffffffffffffffe091610120946000868387010152151560e085015201168101030190f35b81810183015187820161012001528694508201610973565b8a935060009291925282600020916000925b8284106109ff575050508201018261093660ff610916565b849295829585835492010152019101909289928b946109e7565b7fffffffffffffffffffffffffffffffffffffffffffffffffffffffffffffff00168188015293151560051b86019093019350859250610936915060ff9050610916565b905034610103576020918260031936011261010357356000526002825260406000209182548083528183019360005281600020916000905b828210610aac576100e8856100dc81890382610b51565b835486529485019460019384019390910190610a95565b6020908160408183019282815285518094520193019160005b828110610aea575050505090565b835185529381019392810192600101610adc565b90600182811c92168015610b47575b6020831014610b1857565b7f4e487b7100000000000000000000000000000000000000000000000000000000600052602260045260246000fd5b91607f1691610b0d565b90601f7fffffffffffffffffffffffffffffffffffffffffffffffffffffffffffffffe0910116810190811067ffffffffffffffff821117610b9257604052565b7f4e487b7100000000000000000000000000000000000000000000000000000000600052604160045260246000fd5b906006821015610bce5752565b7f4e487b7100000000000000000000000000000000000000000000000000000000600052602160045260246000fd5b6006811015610bce576000526001602052604060002090565b8054821015610c2e5760005260206000200190600090565b7f4e487b7100000000000000000000000000000000000000000000000000000000600052603260045260246000fd5b7fffffffffffffffffffffffffffffffffffffffffffffffffffffffffffffffff8114610c8a5760010190565b7f4e487b7100000000000000000000000000000000000000000000000000000000600052601160045260246000fd5b805468010000000000000000811015610b9257610cdb91600182018155610c16565b7fffffffffffffffffffffffffffffffffffffffffffffffffffffffffffffffff829392549160031b92831b921b191617905556fea2646970667358221220025994b984f2013fed1a7d4ceb018649f265d76f6f77b832872a360fc7821f7464736f6c63430008140033",
  "linkReferences": {},
  "deployedLinkReferences": {}
}