{
  "_format": "hh-sol-artifact-1",
  "contractName": "DecentralizedIdentity",
  "sourceName": "contracts/identity/DecentralizedIdentity.sol",
  "abi": [
    {
      "inputs": [],
      "stateMutability": "nonpayable",
      "type": "constructor"
    },
    {
      "inputs": [
        {
          "internalType": "address",
          "name": "owner",
          "type": "address"
        }
      ],
      "name": "OwnableInvalidOwner",
      "type": "error"
    },
    {
      "inputs": [
        {
          "internalType": "address",
          "name": "account",
          "type": "address"
        }
      ],
      "name": "OwnableUnauthorizedAccount",
      "type": "error"
    },
    {
      "anonymous": false,
      "inputs": [
        {
          "indexed": true,
          "internalType": "string",
          "name": "did",
          "type": "string"
        },
        {
          "indexed": true,
          "internalType": "address",
          "name": "oldController",
          "type": "address"
        },
        {
          "indexed": true,
          "internalType": "address",
          "name": "newController",
          "type": "address"
        }
      ],
      "name": "ControllerChanged",
      "type": "event"
    },
    {
      "anonymous": false,
      "inputs": [
        {
          "indexed": true,
          "internalType": "string",
          "name": "did",
          "type": "string"
        },
        {
          "indexed": true,
          "internalType": "address",
          "name": "controller",
          "type": "address"
        },
        {
          "indexed": true,
          "internalType": "uint256",
          "name": "entityId",
          "type": "uint256"
        }
      ],
      "name": "DIDCreated",
      "type": "event"
    },
    {
      "anonymous": false,
      "inputs": [
        {
          "indexed": true,
          "internalType": "string",
          "name": "did",
          "type": "string"
        }
      ],
      "name": "DIDDeactivated",
      "type": "event"
    },
    {
      "anonymous": false,
      "inputs": [
        {
          "indexed": true,
          "internalType": "string",
          "name": "did",
          "type": "string"
        },
        {
          "indexed": true,
          "internalType": "address",
          "name": "controller",
          "type": "address"
        }
      ],
      "name": "DIDUpdated",
      "type": "event"
    },
    {
      "anonymous": false,
      "inputs": [
        {
          "indexed": true,
          "internalType": "address",
          "name": "previousOwner",
          "type": "address"
        },
        {
          "indexed": true,
          "internalType": "address",
          "name": "newOwner",
          "type": "address"
        }
      ],
      "name": "OwnershipTransferred",
      "type": "event"
    },
    {
      "inputs": [
        {
          "internalType": "address",
          "name": "",
          "type": "address"
        }
      ],
      "name": "addressToDID",
      "outputs": [
        {
          "internalType": "string",
          "name": "",
          "type": "string"
        }
      ],
      "stateMutability": "view",
      "type": "function"
    },
    {
      "inputs": [
        {
          "internalType": "uint256",
          "name": "entityId",
          "type": "uint256"
        },
        {
          "internalType": "address",
          "name": "controller",
          "type": "address"
        },
        {
          "internalType": "string",
          "name": "metadata",
          "type": "string"
        }
      ],
      "name": "createDID",
      "outputs": [
        {
          "internalType": "string",
          "name": "",
          "type": "string"
        }
      ],
      "stateMutability": "nonpayable",
      "type": "function"
    },
    {
      "inputs": [
        {
          "internalType": "string",
          "name": "did",
          "type": "string"
        }
      ],
      "name": "deactivateDID",
      "outputs": [],
      "stateMutability": "nonpayable",
      "type": "function"
    },
    {
      "inputs": [
        {
          "internalType": "string",
          "name": "",
          "type": "string"
        }
      ],
      "name": "dids",
      "outputs": [
        {
          "internalType": "string",
          "name": "identifier",
          "type": "string"
        },
        {
          "internalType": "address",
          "name": "controller",
          "type": "address"
        },
        {
          "internalType": "uint256",
          "name": "entityId",
          "type": "uint256"
        },
        {
          "internalType": "bool",
          "name": "active",
          "type": "bool"
        },
        {
          "internalType": "uint256",
          "name": "createdAt",
          "type": "uint256"
        },
        {
          "internalType": "uint256",
          "name": "updatedAt",
          "type": "uint256"
        },
        {
          "internalType": "string",
          "name": "metadata",
          "type": "string"
        }
      ],
      "stateMutability": "view",
      "type": "function"
    },
    {
      "inputs": [
        {
          "internalType": "uint256",
          "name": "",
          "type": "uint256"
        }
      ],
      "name": "entityToDID",
      "outputs": [
        {
          "internalType": "string",
          "name": "",
          "type": "string"
        }
      ],
      "stateMutability": "view",
      "type": "function"
    },
    {
      "inputs": [
        {
          "internalType": "string",
          "name": "did",
          "type": "string"
        }
      ],
      "name": "getDID",
      "outputs": [
        {
          "components": [
            {
              "internalType": "string",
              "name": "identifier",
              "type": "string"
            },
            {
              "internalType": "address",
              "name": "controller",
              "type": "address"
            },
            {
              "internalType": "uint256",
              "name": "entityId",
              "type": "uint256"
            },
            {
              "internalType": "bool",
              "name": "active",
              "type": "bool"
            },
            {
              "internalType": "uint256",
              "name": "createdAt",
              "type": "uint256"
            },
            {
              "internalType": "uint256",
              "name": "updatedAt",
              "type": "uint256"
            },
            {
              "internalType": "string",
              "name": "metadata",
              "type": "string"
            }
          ],
          "internalType": "struct DecentralizedIdentity.DID",
          "name": "",
          "type": "tuple"
        }
      ],
      "stateMutability": "view",
      "type": "function"
    },
    {
      "inputs": [
        {
          "internalType": "address",
          "name": "addr",
          "type": "address"
        }
      ],
      "name": "getDIDByAddress",
      "outputs": [
        {
          "internalType": "string",
          "name": "",
          "type": "string"
        }
      ],
      "stateMutability": "view",
      "type": "function"
    },
    {
      "inputs": [
        {
          "internalType": "uint256",
          "name": "entityId",
          "type": "uint256"
        }
      ],
      "name": "getDIDByEntity",
      "outputs": [
        {
          "internalType": "string",
          "name": "",
          "type": "string"
        }
      ],
      "stateMutability": "view",
      "type": "function"
    },
    {
      "inputs": [
        {
          "internalType": "string",
          "name": "did",
          "type": "string"
        }
      ],
      "name": "isActiveDID",
      "outputs": [
        {
          "internalType": "bool",
          "name": "",
          "type": "bool"
        }
      ],
      "stateMutability": "view",
      "type": "function"
    },
    {
      "inputs": [],
      "name": "owner",
      "outputs": [
        {
          "internalType": "address",
          "name": "",
          "type": "address"
        }
      ],
      "stateMutability": "view",
      "type": "function"
    },
    {
      "inputs": [],
      "name": "renounceOwnership",
      "outputs": [],
      "stateMutability": "nonpayable",
      "type": "function"
    },
    {
      "inputs": [],
      "name": "totalDIDs",
      "outputs": [
        {
          "internalType": "uint256",
          "name": "",
          "type": "uint256"
        }
      ],
      "stateMutability": "view",
      "type": "function"
    },
    {
      "inputs": [
        {
          "internalType": "string",
          "name": "did",
          "type": "string"
        },
        {
          "internalType": "address",
          "name": "newController",
          "type": "address"
        }
      ],
      "name": "transferControl",
      "outputs": [],
      "stateMutability": "nonpayable",
      "type": "function"
    },
    {
      "inputs": [
        {
          "internalType": "address",
          "name": "newOwner",
          "type": "address"
        }
      ],
      "name": "transferOwnership",
      "outputs": [],
      "stateMutability": "nonpayable",
      "type": "function"
    },
    {
      "inputs": [
        {
          "internalType": "string",
          "name": "did",
          "type": "string"
        },
        {
          "internalType": "string",
          "name": "newMetadata",
          "type": "string"
        }
      ],
      "name": "updateDIDMetadata",
      "outputs": [],
      "stateMutability": "nonpayable",
      "type": "function"
    }
  ],
  "bytecode": "0x6080806040523461007a5733156100645760008054336001600160a01b03198216811783556040519290916001600160a01b0316907f8be0079c531659141344cd1fd0a4f28419497f9722a3daafe3b4186f6b6457e09080a361191b90816100808239f35b631e4fbdf760e01b815260006004820152602490fd5b600080fdfe6080604052600436101561001257600080fd5b60003560e01c8063011ed8a5146111995780633b253b23146111c557806352c53b53146111995780635d66b80e1461117b578063715018a6146110fd5780638da5cb5b146110c95780638de20ae614610a1657806395f9250d146100c1578063d020a0fb146107ec578063e078389814610686578063e6bc28d41461031d578063f2582731146102cb578063f2fde38b14610207578063f44ab516146101255763f789c0a1146100c157600080fd5b346101205760206003193601126101205773ffffffffffffffffffffffffffffffffffffffff6100ef6115f7565b16600052600260205261011c610108604060002061150f565b6040519182916020835260208301906113f5565b0390f35b600080fd5b346101205760206003193601126101205760043567ffffffffffffffff811161012057610171602061015e6101de933690600401611475565b81604051938285809451938492016113d2565b8101600181520301902061011c6101878261150f565b9173ffffffffffffffffffffffffffffffffffffffff6001820154169060028101549060ff6003820154166004820154906101c960066005850154940161150f565b9360405198899860e08a5260e08a01906113f5565b956020890152604088015215156060870152608086015260a085015283820360c08501526113f5565b34610120576020600319360112610120576102206115f7565b61022861161a565b73ffffffffffffffffffffffffffffffffffffffff80911690811561029a57600054827fffffffffffffffffffffffff0000000000000000000000000000000000000000821617600055167f8be0079c531659141344cd1fd0a4f28419497f9722a3daafe3b4186f6b6457e0600080a3005b60246040517f1e4fbdf700000000000000000000000000000000000000000000000000000000815260006004820152fd5b346101205760206003193601126101205760043567ffffffffffffffff81116101205760ff6003610306602061015e81953690600401611475565b810160018152030190200154166040519015158152f35b346101205760406003193601126101205767ffffffffffffffff6004358181116101205761034f903690600401611475565b6103576115d4565b604051918051916020948594858401946103728183886113d2565b8101926103a8600194858152858473ffffffffffffffffffffffffffffffffffffffff9a8b9687940301902001541633146116e0565b6103d460ff60036040518b81806103c38d8d519283916113d2565b81018a815203019020015416611745565b1694851561062857600561045991846040518a81806103f78c8c519283916113d2565b81018481520301902001541695846040518a8189516104178183886113d2565b81018481520301902001887fffffffffffffffffffffffff000000000000000000000000000000000000000082541617905560405192839187519283916113d2565b820191848352888142940301902001558360005260028652604060002061048081546114bc565b90816105ec575b5050846000526002865260406000209183519182116105bd576104aa83546114bc565b601f8111610582575b5086601f831160011461051b575081806104e796979860009261050e575b5060001991921b9260031b1c19161790556116c0565b7f333c7ce2d5cd4370855fad53aeeca01cdaa3ba1e62e0fc431ae79b5180eee67c600080a4005b86015191506000196104d1565b601f1983929316978460005281600020916000905b8a821061056b575050826104e797989910610552575b5050811b0190556116c0565b85015160001960f88460031b161c191690558780610546565b808684958294958b01518155019401920190610530565b6105ad908460005288600020601f850160051c8101918a86106105b3575b601f0160051c019061166b565b876104b3565b90915081906105a0565b7f4e487b7100000000000000000000000000000000000000000000000000000000600052604160045260246000fd5b81601f600093116001146106045750555b8680610487565b908083918252610621601f8b8420940160051c840187850161166b565b55556105fd565b606487604051907f08c379a00000000000000000000000000000000000000000000000000000000082526004820152600f60248201527f496e76616c6964206164647265737300000000000000000000000000000000006044820152fd5b3461012057602080600319360112610120576004359067ffffffffffffffff82116101205761011c61070b826106c260e0953690600401611475565b606060c06040516106d28161141a565b8281526000858201526000604082015260008382015260006080820152600060a0820152015281604051938285809451938492016113d2565b81016001815203019020604051926107228461141a565b61072b8261150f565b845273ffffffffffffffffffffffffffffffffffffffff91826001820154169282860193845260028201546040870190815260ff60038401541690606088019115158252600484015492608089019384526107b8610797600660058801549760a08d019889520161150f565b9660c08b019788526040519b8c9b828d5251918c01526101008b01906113f5565b965116604089015251606088015251151560808701525160a08601525160c085015251601f198483030160e08501526113f5565b346101205760406003193601126101205767ffffffffffffffff6004358181116101205761081e903690600401611475565b9060243581811161012057610837903690600401611475565b906040519183519060209261088373ffffffffffffffffffffffffffffffffffffffff858801946108698189886113d2565b87018787600199838b8095520301902001541633146116e0565b6108ad60ff600360405187818b5161089c81838c6113d2565b81018b815203019020015416611745565b6006604051858189516108c181838a6113d2565b810189815203019020019180519182116105bd576108df83546114bc565b601f81116109e6575b508490601f8311600114610977579180600596949261092d969460009261096c575b505060001982891b9260031b1c19161790555b60405192839187519283916113d2565b820193845281429403019020015561094533916116c0565b7f98621024ee36e5e9a403d9a69047f1e4010f6e4a0f1c08e94f0269c0ab98ef5e600080a3005b01519050898061090a565b8291601f198894169185600052876000209260005b8181106109cf57509161092d979593918560059a989694106109b6575b505050811b01905561091d565b015160001960f88460031b161c191690558980806109a9565b8284015185558a969094019392890192890161098c565b610a10908460005286600020601f850160051c8101918886106105b357601f0160051c019061166b565b876108e8565b3461012057606060031936011261012057610a2f6115d4565b60443567ffffffffffffffff811161012057610a4f903690600401611475565b906004356000526003602052610a696040600020546114bc565b61106b57610a786004356117aa565b91610b2d602060405194610ad1602f87848101937f6469643a6f616e3a656e746974793a00000000000000000000000000000000008552610ac1815180928886860191016113d2565b810103600f810189520187611436565b60405193610ade8561141a565b86855273ffffffffffffffffffffffffffffffffffffffff8616838601526004356040860152600160608601524260808601524260a086015260c08501526040518093819288519283916113d2565b8101600181520301902090805180519067ffffffffffffffff82116105bd57610b5684546114bc565b601f8111611039575b50602090601f8311600114610fcc5760c093929160009183610fc1575b50506000198260011b9260031b1c19161783555b6001830173ffffffffffffffffffffffffffffffffffffffff6020830151167fffffffffffffffffffffffff000000000000000000000000000000000000000082541617905560408101516002840155600383016060820151151560ff7fffffffffffffffffffffffffffffffffffffffffffffffffffffffffffffff0083541691161790556080810151600484015560a08101516005840155015180519067ffffffffffffffff82116105bd57610c4b60068401546114bc565b601f8111610f8c575b50602090601f8311600114610f1c576006929160009183610f11575b50506000198260011b9260031b1c1916179101555b73ffffffffffffffffffffffffffffffffffffffff811660005260026020526040600020825167ffffffffffffffff81116105bd57610cc482546114bc565b601f8111610edf575b50806020601f8211600114610e7857600091610e6d575b506000198260011b9260031b1c19161790555b600435600052600360205260406000209180519267ffffffffffffffff84116105bd57610d2481546114bc565b601f8111610e3b575b50602093601f8111600114610dd6578091929394600091610dcb575b506000198260011b9260031b1c19161790555b610d67600454611682565b60045561011c610d76826116c0565b9160405193849373ffffffffffffffffffffffffffffffffffffffff6004359216907f0ca2a140a2ab1c58e52c642fef7712ca8a3354e6b20e1ea65f1d17529c56cc23600080a46020835260208301906113f5565b905083015185610d49565b601f198116948260005260206000209060005b878110610e2357508260019495969710610e0a575b5050811b019055610d5c565b85015160001960f88460031b161c191690558580610dfe565b90916020600181928589015181550193019101610de9565b610e6790826000526020600020601f870160051c810191602088106105b357601f0160051c019061166b565b84610d2d565b905084015185610ce4565b91508260005260206000206000925b601f1983168410610ec7576001935082601f19811610610eae575b5050811b019055610cf7565b86015160001960f88460031b161c191690558580610ea2565b86810151825560209384019360019092019101610e87565b610f0b90836000526020600020601f840160051c810191602085106105b357601f0160051c019061166b565b84610ccd565b015190508680610c70565b906006840160005260206000209160005b601f1985168110610f74575091839160019383601f196006971610610f5b575b505050811b01910155610c85565b015160001960f88460031b161c19169055868080610f4d565b91926020600181928685015181550194019201610f2d565b610fbb90600685016000526020600020601f850160051c810191602086106105b357601f0160051c019061166b565b85610c54565b015190508780610b7c565b908460005260206000209160005b601f1985168110611021575091839160019383601f1960c098971610611008575b505050811b018355610b90565b015160001960f88460031b161c19169055878080610ffb565b91926020600181928685015181550194019201610fda565b61106590856000526020600020601f850160051c810191602086106105b357601f0160051c019061166b565b86610b5f565b60646040517f08c379a000000000000000000000000000000000000000000000000000000000815260206004820152601d60248201527f44494420616c72656164792065786973747320666f7220656e746974790000006044820152fd5b3461012057600060031936011261012057602073ffffffffffffffffffffffffffffffffffffffff60005416604051908152f35b346101205760006003193601126101205761111661161a565b600073ffffffffffffffffffffffffffffffffffffffff81547fffffffffffffffffffffffff000000000000000000000000000000000000000081168355167f8be0079c531659141344cd1fd0a4f28419497f9722a3daafe3b4186f6b6457e08280a3005b34610120576000600319360112610120576020600454604051908152f35b3461012057602060031936011261012057600435600052600360205261011c610108604060002061150f565b34610120576020806003193601126101205760043567ffffffffffffffff8111610120576111f7903690600401611475565b6040518151908383019161120c8183856113d2565b8101600181526001828673ffffffffffffffffffffffffffffffffffffffff9485940301902001541633149081156113c4575b50156113665760ff60036040518581865161125b8183896113d2565b8101600181520301902001541615611308579160056112cc6112e19460036040518581885161128b8183886113d2565b81016001815203019020017fffffffffffffffffffffffffffffffffffffffffffffffffffffffffffffff00815416905560405191829186519283916113d2565b810192600184528142940301902001556116c0565b7f4360f12f602ccecefb32480e5314d0d3f57d38db8f52c76d8fdf4c39596c1c28600080a2005b606483604051907f08c379a00000000000000000000000000000000000000000000000000000000082526004820152601060248201527f416c726561647920696e616374697665000000000000000000000000000000006044820152fd5b606483604051907f08c379a00000000000000000000000000000000000000000000000000000000082526004820152600e60248201527f4e6f7420617574686f72697a65640000000000000000000000000000000000006044820152fd5b90506000541633148461123f565b60005b8381106113e55750506000910152565b81810151838201526020016113d5565b90601f19601f602093611413815180928187528780880191016113d2565b0116010190565b60e0810190811067ffffffffffffffff8211176105bd57604052565b90601f601f19910116810190811067ffffffffffffffff8211176105bd57604052565b67ffffffffffffffff81116105bd57601f01601f191660200190565b81601f820112156101205780359061148c82611459565b9261149a6040519485611436565b8284526020838301011161012057816000926020809301838601378301015290565b90600182811c92168015611505575b60208310146114d657565b7f4e487b7100000000000000000000000000000000000000000000000000000000600052602260045260246000fd5b91607f16916114cb565b9060405191826000825492611523846114bc565b908184526001948581169081600014611592575060011461154f575b505061154d92500383611436565b565b9093915060005260209081600020936000915b81831061157a57505061154d9350820101388061153f565b85548884018501529485019487945091830191611562565b905061154d9550602093507fffffffffffffffffffffffffffffffffffffffffffffffffffffffffffffff0091501682840152151560051b820101388061153f565b6024359073ffffffffffffffffffffffffffffffffffffffff8216820361012057565b6004359073ffffffffffffffffffffffffffffffffffffffff8216820361012057565b73ffffffffffffffffffffffffffffffffffffffff60005416330361163b57565b60246040517f118cdaa7000000000000000000000000000000000000000000000000000000008152336004820152fd5b818110611676575050565b6000815560010161166b565b60001981146116915760010190565b7f4e487b7100000000000000000000000000000000000000000000000000000000600052601160045260246000fd5b6116d8906020604051928284809451938492016113d2565b810103902090565b156116e757565b60646040517f08c379a000000000000000000000000000000000000000000000000000000000815260206004820152600e60248201527f4e6f7420636f6e74726f6c6c65720000000000000000000000000000000000006044820152fd5b1561174c57565b60646040517f08c379a000000000000000000000000000000000000000000000000000000000815260206004820152600c60248201527f44494420696e61637469766500000000000000000000000000000000000000006044820152fd5b801561189a5780816000925b61188457506117c482611459565b916117d26040519384611436565b808352601f196117e182611459565b01908260209236848701375b6117f75750505090565b6000198101908111611691578092600a91603083830681018091116116915786518210156118555760f81b7fff000000000000000000000000000000000000000000000000000000000000001660001a9086018401530491826117ed565b7f4e487b7100000000000000000000000000000000000000000000000000000000600052603260045260246000fd5b9091611891600a91611682565b929104806117b6565b506040516040810181811067ffffffffffffffff8211176105bd57604052600181527f300000000000000000000000000000000000000000000000000000000000000060208201529056fea2646970667358221220e3146e58afea9e6c3f1d71d1a5533e36a315aa44ae589a71659f3cde1278d4ae64736f6c63430008140033",
  "linkReferences": {},
  "deployedLinkReferences": {}
}