{
  "_format": "hh-sol-artifact-1",
  "contractName": "WorldPhysics",
  "sourceName": "contracts/layer3/reality/WorldPhysics.sol",
  "abi": [
    {
      "inputs": [],
      "stateMutability": "nonpayable",
      "type": "constructor"
    },
    {
      "inputs": [
        {
          "internalType": "address",
          "name": "sender",
          "type": "address"
        },
        {
          "internalType": "uint256",
          "name": "tokenId",
          "type": "uint256"
        },
        {
          "internalType": "address",
          "name": "owner",
          "type": "address"
        }
      ],
      "name": "ERC721IncorrectOwner",
      "type": "error"
    },
    {
      "inputs": [
        {
          "internalType": "address",
          "name": "operator",
          "type": "address"
        },
        {
          "internalType": "uint256",
          "name": "tokenId",
          "type": "uint256"
        }
      ],
      "name": "ERC721InsufficientApproval",
      "type": "error"
    },
    {
      "inputs": [
        {
          "internalType": "address",
          "name": "approver",
          "type": "address"
        }
      ],
      "name": "ERC721InvalidApprover",
      "type": "error"
    },
    {
      "inputs": [
        {
          "internalType": "address",
          "name": "operator",
          "type": "address"
        }
      ],
      "name": "ERC721InvalidOperator",
      "type": "error"
    },
    {
      "inputs": [
        {
          "internalType": "address",
          "name": "owner",
          "type": "address"
        }
      ],
      "name": "ERC721InvalidOwner",
      "type": "error"
    },
    {
      "inputs": [
        {
          "internalType": "address",
          "name": "receiver",
          "type": "address"
        }
      ],
      "name": "ERC721InvalidReceiver",
      "type": "error"
    },
    {
      "inputs": [
        {
          "internalType": "address",
          "name": "sender",
          "type": "address"
        }
      ],
      "name": "ERC721InvalidSender",
      "type": "error"
    },
    {
      "inputs": [
        {
          "internalType": "uint256",
          "name": "tokenId",
          "type": "uint256"
        }
      ],
      "name": "ERC721NonexistentToken",
      "type": "error"
    },
    {
      "inputs": [
        {
          "internalType": "address",
          "name": "owner",
          "type": "address"
        }
      ],
      "name": "OwnableInvalidOwner",
      "type": "error"
    },
    {
      "inputs": [
        {
          "internalType": "address",
          "name": "account",
          "type": "address"
        }
      ],
      "name": "OwnableUnauthorizedAccount",
      "type": "error"
    },
    {
      "anonymous": false,
      "inputs": [
        {
          "indexed": true,
          "internalType": "address",
          "name": "owner",
          "type": "address"
        },
        {
          "indexed": true,
          "internalType": "address",
          "name": "approved",
          "type": "address"
        },
        {
          "indexed": true,
          "internalType": "uint256",
          "name": "tokenId",
          "type": "uint256"
        }
      ],
      "name": "Approval",
      "type": "event"
    },
    {
      "anonymous": false,
      "inputs": [
        {
          "indexed": true,
          "internalType": "address",
          "name": "owner",
          "type": "address"
        },
        {
          "indexed": true,
          "internalType": "address",
          "name": "operator",
          "type": "address"
        },
        {
          "indexed": false,
          "internalType": "bool",
          "name": "approved",
          "type": "bool"
        }
      ],
      "name": "ApprovalForAll",
      "type": "event"
    },
    {
      "anonymous": false,
      "inputs": [
        {
          "indexed": true,
          "internalType": "address",
          "name": "previousOwner",
          "type": "address"
        },
        {
          "indexed": true,
          "internalType": "address",
          "name": "newOwner",
          "type": "address"
        }
      ],
      "name": "OwnershipTransferred",
      "type": "event"
    },
    {
      "anonymous": false,
      "inputs": [
        {
          "indexed": true,
          "internalType": "uint256",
          "name": "moduleId",
          "type": "uint256"
        }
      ],
      "name": "ParametersUpdated",
      "type": "event"
    },
    {
      "anonymous": false,
      "inputs": [
        {
          "indexed": true,
          "internalType": "uint256",
          "name": "worldId",
          "type": "uint256"
        },
        {
          "indexed": true,
          "internalType": "uint256",
          "name": "moduleId",
          "type": "uint256"
        }
      ],
      "name": "PhysicsAttached",
      "type": "event"
    },
    {
      "anonymous": false,
      "inputs": [
        {
          "indexed": true,
          "internalType": "uint256",
          "name": "worldId",
          "type": "uint256"
        },
        {
          "indexed": true,
          "internalType": "uint256",
          "name": "moduleId",
          "type": "uint256"
        }
      ],
      "name": "PhysicsDetached",
      "type": "event"
    },
    {
      "anonymous": false,
      "inputs": [
        {
          "indexed": true,
          "internalType": "uint256",
          "name": "moduleId",
          "type": "uint256"
        },
        {
          "indexed": false,
          "internalType": "string",
          "name": "name",
          "type": "string"
        },
        {
          "indexed": false,
          "internalType": "enum WorldPhysics.PhysicsType",
          "name": "physicsType",
          "type": "uint8"
        },
        {
          "indexed": false,
          "internalType": "address",
          "name": "creator",
          "type": "address"
        }
      ],
      "name": "PhysicsModuleCreated",
      "type": "event"
    },
    {
      "anonymous": false,
      "inputs": [
        {
          "indexed": true,
          "internalType": "address",
          "name": "from",
          "type": "address"
        },
        {
          "indexed": true,
          "internalType": "address",
          "name": "to",
          "type": "address"
        },
        {
          "indexed": true,
          "internalType": "uint256",
          "name": "tokenId",
          "type": "uint256"
        }
      ],
      "name": "Transfer",
      "type": "event"
    },
    {
      "inputs": [
        {
          "internalType": "address",
          "name": "to",
          "type": "address"
        },
        {
          "internalType": "uint256",
          "name": "tokenId",
          "type": "uint256"
        }
      ],
      "name": "approve",
      "outputs": [],
      "stateMutability": "nonpayable",
      "type": "function"
    },
    {
      "inputs": [
        {
          "internalType": "uint256",
          "name": "worldId",
          "type": "uint256"
        },
        {
          "internalType": "uint256",
          "name": "moduleId",
          "type": "uint256"
        }
      ],
      "name": "attachToWorld",
      "outputs": [],
      "stateMutability": "nonpayable",
      "type": "function"
    },
    {
      "inputs": [
        {
          "internalType": "address",
          "name": "owner",
          "type": "address"
        }
      ],
      "name": "balanceOf",
      "outputs": [
        {
          "internalType": "uint256",
          "name": "",
          "type": "uint256"
        }
      ],
      "stateMutability": "view",
      "type": "function"
    },
    {
      "inputs": [
        {
          "internalType": "string",
          "name": "name",
          "type": "string"
        },
        {
          "internalType": "enum WorldPhysics.PhysicsType",
          "name": "physicsType",
          "type": "uint8"
        },
        {
          "components": [
            {
              "internalType": "int256",
              "name": "gravityStrength",
              "type": "int256"
            },
            {
              "internalType": "uint256",
              "name": "energyDrainRate",
              "type": "uint256"
            },
            {
              "internalType": "uint256",
              "name": "timeFlowRate",
              "type": "uint256"
            },
            {
              "internalType": "uint256",
              "name": "causalityStrength",
              "type": "uint256"
            },
            {
              "internalType": "uint256",
              "name": "entropyRate",
              "type": "uint256"
            },
            {
              "internalType": "uint256",
              "name": "quantumFluctuation",
              "type": "uint256"
            }
          ],
          "internalType": "struct WorldPhysics.PhysicsParameters",
          "name": "params",
          "type": "tuple"
        }
      ],
      "name": "createPhysicsModule",
      "outputs": [
        {
          "internalType": "uint256",
          "name": "",
          "type": "uint256"
        }
      ],
      "stateMutability": "nonpayable",
      "type": "function"
    },
    {
      "inputs": [
        {
          "internalType": "address",
          "name": "",
          "type": "address"
        },
        {
          "internalType": "uint256",
          "name": "",
          "type": "uint256"
        }
      ],
      "name": "creatorModules",
      "outputs": [
        {
          "internalType": "uint256",
          "name": "",
          "type": "uint256"
        }
      ],
      "stateMutability": "view",
      "type": "function"
    },
    {
      "inputs": [
        {
          "internalType": "uint256",
          "name": "worldId",
          "type": "uint256"
        },
        {
          "internalType": "uint256",
          "name": "moduleId",
          "type": "uint256"
        }
      ],
      "name": "detachFromWorld",
      "outputs": [],
      "stateMutability": "nonpayable",
      "type": "function"
    },
    {
      "inputs": [
        {
          "internalType": "uint256",
          "name": "tokenId",
          "type": "uint256"
        }
      ],
      "name": "getApproved",
      "outputs": [
        {
          "internalType": "address",
          "name": "",
          "type": "address"
        }
      ],
      "stateMutability": "view",
      "type": "function"
    },
    {
      "inputs": [
        {
          "internalType": "address",
          "name": "creator",
          "type": "address"
        }
      ],
      "name": "getCreatorModules",
      "outputs": [
        {
          "internalType": "uint256[]",
          "name": "",
          "type": "uint256[]"
        }
      ],
      "stateMutability": "view",
      "type": "function"
    },
    {
      "inputs": [
        {
          "internalType": "uint256",
          "name": "moduleId",
          "type": "uint256"
        }
      ],
      "name": "getParameters",
      "outputs": [
        {
          "components": [
            {
              "internalType": "int256",
              "name": "gravityStrength",
              "type": "int256"
            },
            {
              "internalType": "uint256",
              "name": "energyDrainRate",
              "type": "uint256"
            },
            {
              "internalType": "uint256",
              "name": "timeFlowRate",
              "type": "uint256"
            },
            {
              "internalType": "uint256",
              "name": "causalityStrength",
              "type": "uint256"
            },
            {
              "internalType": "uint256",
              "name": "entropyRate",
              "type": "uint256"
            },
            {
              "internalType": "uint256",
              "name": "quantumFluctuation",
              "type": "uint256"
            }
          ],
          "internalType": "struct WorldPhysics.PhysicsParameters",
          "name": "",
          "type": "tuple"
        }
      ],
      "stateMutability": "view",
      "type": "function"
    },
    {
      "inputs": [
        {
          "internalType": "uint256",
          "name": "worldId",
          "type": "uint256"
        }
      ],
      "name": "getWorldPhysics",
      "outputs": [
        {
          "internalType": "uint256[]",
          "name": "",
          "type": "uint256[]"
        }
      ],
      "stateMutability": "view",
      "type": "function"
    },
    {
      "inputs": [
        {
          "internalType": "address",
          "name": "owner",
          "type": "address"
        },
        {
          "internalType": "address",
          "name": "operator",
          "type": "address"
        }
      ],
      "name": "isApprovedForAll",
      "outputs": [
        {
          "internalType": "bool",
          "name": "",
          "type": "bool"
        }
      ],
      "stateMutability": "view",
      "type": "function"
    },
    {
      "inputs": [
        {
          "internalType": "uint256",
          "name": "",
          "type": "uint256"
        }
      ],
      "name": "moduleParameters",
      "outputs": [
        {
          "internalType": "int256",
          "name": "gravityStrength",
          "type": "int256"
        },
        {
          "internalType": "uint256",
          "name": "energyDrainRate",
          "type": "uint256"
        },
        {
          "internalType": "uint256",
          "name": "timeFlowRate",
          "type": "uint256"
        },
        {
          "internalType": "uint256",
          "name": "causalityStrength",
          "type": "uint256"
        },
        {
          "internalType": "uint256",
          "name": "entropyRate",
          "type": "uint256"
        },
        {
          "internalType": "uint256",
          "name": "quantumFluctuation",
          "type": "uint256"
        }
      ],
      "stateMutability": "view",
      "type": "function"
    },
    {
      "inputs": [],
      "name": "name",
      "outputs": [
        {
          "internalType": "string",
          "name": "",
          "type": "string"
        }
      ],
      "stateMutability": "view",
      "type": "function"
    },
    {
      "inputs": [],
      "name": "owner",
      "outputs": [
        {
          "internalType": "address",
          "name": "",
          "type": "address"
        }
      ],
      "stateMutability": "view",
      "type": "function"
    },
    {
      "inputs": [
        {
          "internalType": "uint256",
          "name": "tokenId",
          "type": "uint256"
        }
      ],
      "name": "ownerOf",
      "outputs": [
        {
          "internalType": "address",
          "name": "",
          "type": "address"
        }
      ],
      "stateMutability": "view",
      "type": "function"
    },
    {
      "inputs": [
        {
          "internalType": "uint256",
          "name": "",
          "type": "uint256"
        }
      ],
      "name": "physicsModules",
      "outputs": [
        {
          "internalType": "uint256",
          "name": "id",
          "type": "uint256"
        },
        {
          "internalType": "string",
          "name": "name",
          "type": "string"
        },
        {
          "internalType": "enum WorldPhysics.PhysicsType",
          "name": "physicsType",
          "type": "uint8"
        },
        {
          "internalType": "address",
          "name": "creator",
          "type": "address"
        },
        {
          "internalType": "uint256",
          "name": "createdAt",
          "type": "uint256"
        },
        {
          "internalType": "bool",
          "name": "isActive",
          "type": "bool"
        },
        {
          "internalType": "uint256",
          "name": "usageCount",
          "type": "uint256"
        },
        {
          "internalType": "bytes32",
          "name": "parametersHash",
          "type": "bytes32"
        }
      ],
      "stateMutability": "view",
      "type": "function"
    },
    {
      "inputs": [],
      "name": "renounceOwnership",
      "outputs": [],
      "stateMutability": "nonpayable",
      "type": "function"
    },
    {
      "inputs": [
        {
          "internalType": "address",
          "name": "from",
          "type": "address"
        },
        {
          "internalType": "address",
          "name": "to",
          "type": "address"
        },
        {
          "internalType": "uint256",
          "name": "tokenId",
          "type": "uint256"
        }
      ],
      "name": "safeTransferFrom",
      "outputs": [],
      "stateMutability": "nonpayable",
      "type": "function"
    },
    {
      "inputs": [
        {
          "internalType": "address",
          "name": "from",
          "type": "address"
        },
        {
          "internalType": "address",
          "name": "to",
          "type": "address"
        },
        {
          "internalType": "uint256",
          "name": "tokenId",
          "type": "uint256"
        },
        {
          "internalType": "bytes",
          "name": "data",
          "type": "bytes"
        }
      ],
      "name": "safeTransferFrom",
      "outputs": [],
      "stateMutability": "nonpayable",
      "type": "function"
    },
    {
      "inputs": [
        {
          "internalType": "address",
          "name": "operator",
          "type": "address"
        },
        {
          "internalType": "bool",
          "name": "approved",
          "type": "bool"
        }
      ],
      "name": "setApprovalForAll",
      "outputs": [],
      "stateMutability": "nonpayable",
      "type": "function"
    },
    {
      "inputs": [
        {
          "internalType": "bytes4",
          "name": "interfaceId",
          "type": "bytes4"
        }
      ],
      "name": "supportsInterface",
      "outputs": [
        {
          "internalType": "bool",
          "name": "",
          "type": "bool"
        }
      ],
      "stateMutability": "view",
      "type": "function"
    },
    {
      "inputs": [],
      "name": "symbol",
      "outputs": [
        {
          "internalType": "string",
          "name": "",
          "type": "string"
        }
      ],
      "stateMutability": "view",
      "type": "function"
    },
    {
      "inputs": [
        {
          "internalType": "uint256",
          "name": "tokenId",
          "type": "uint256"
        }
      ],
      "name": "tokenURI",
      "outputs": [
        {
          "internalType": "string",
          "name": "",
          "type": "string"
        }
      ],
      "stateMutability": "view",
      "type": "function"
    },
    {
      "inputs": [
        {
          "internalType": "address",
          "name": "from",
          "type": "address"
        },
        {
          "internalType": "address",
          "name": "to",
          "type": "address"
        },
        {
          "internalType": "uint256",
          "name": "tokenId",
          "type": "uint256"
        }
      ],
      "name": "transferFrom",
      "outputs": [],
      "stateMutability": "nonpayable",
      "type": "function"
    },
    {
      "inputs": [
        {
          "internalType": "address",
          "name": "newOwner",
          "type": "address"
        }
      ],
      "name": "transferOwnership",
      "outputs": [],
      "stateMutability": "nonpayable",
      "type": "function"
    },
    {
      "inputs": [
        {
          "internalType": "uint256",
          "name": "moduleId",
          "type": "uint256"
        },
        {
          "components": [
            {
              "internalType": "int256",
              "name": "gravityStrength",
              "type": "int256"
            },
            {
              "internalType": "uint256",
              "name": "energyDrainRate",
              "type": "uint256"
            },
            {
              "internalType": "uint256",
              "name": "timeFlowRate",
              "type": "uint256"
            },
            {
              "internalType": "uint256",
              "name": "causalityStrength",
              "type": "uint256"
            },
            {
              "internalType": "uint256",
              "name": "entropyRate",
              "type": "uint256"
            },
            {
              "internalType": "uint256",
              "name": "quantumFluctuation",
              "type": "uint256"
            }
          ],
          "internalType": "struct WorldPhysics.PhysicsParameters",
          "name": "newParams",
          "type": "tuple"
        }
      ],
      "name": "updateParameters",
      "outputs": [],
      "stateMutability": "nonpayable",
      "type": "function"
    },
    {
      "inputs": [
        {
          "internalType": "uint256",
          "name": "",
          "type": "uint256"
        },
        {
          "internalType": "uint256",
          "name": "",
          "type": "uint256"
        }
      ],
      "name": "worldPhysics",
      "outputs": [
        {
          "internalType": "uint256",
          "name": "",
          "type": "uint256"
        }
      ],
      "stateMutability": "view",
      "type": "function"
    }
  ],
  "bytecode": "0x6080346200037f576001600160401b03906040818101838111838210176200036957815260118252602091704f414e20576f726c64205068797369637360781b838201528151938285018581108282111762000369578352600585526404f414e57560dc1b84860152815181811162000369576000948554916001948584811c941680156200035e575b838510146200034a578190601f94858111620002f7575b5083908583116001146200029357899262000287575b5050600019600383901b1c191690851b1786555b8651928311620002735783548481811c9116801562000268575b8282101462000254578281116200020c575b5080918311600114620001a557508495829394959262000199575b5050600019600383901b1c191690821b1790555b3315620001815760068054336001600160a01b03198216811790925591519290916001600160a01b0316907f8be0079c531659141344cd1fd0a4f28419497f9722a3daafe3b4186f6b6457e09080a36121a99081620003858239f35b51631e4fbdf760e01b81526004810191909152602490fd5b01519050388062000111565b90601f198316968487528287209287905b898210620001f4575050838596979810620001da575b505050811b01905562000125565b015160001960f88460031b161c19169055388080620001cc565b808785968294968601518155019501930190620001b6565b8487528187208380860160051c8201928487106200024a575b0160051c019085905b8281106200023e575050620000f6565b8881550185906200022e565b9250819262000225565b634e487b7160e01b87526022600452602487fd5b90607f1690620000e4565b634e487b7160e01b86526041600452602486fd5b015190503880620000b6565b898052848a208894509190601f1984168b5b87828210620002e05750508411620002c6575b505050811b018655620000ca565b015160001960f88460031b161c19169055388080620002b8565b8385015186558b97909501949384019301620002a5565b9091508880528389208580850160051c82019286861062000340575b918991869594930160051c01915b82811062000331575050620000a0565b8b815585945089910162000321565b9250819262000313565b634e487b7160e01b88526022600452602488fd5b93607f169362000089565b634e487b7160e01b600052604160045260246000fd5b600080fdfe608080604052600436101561001357600080fd5b60003560e01c90816301ffc9a7146119635750806306fdde03146118c0578063081812fc14611874578063095ea7b31461173457806323b872dd1461171d5780633a5e957c146116ba57806342842e0e1461168c57806348a2933214611607578063633fca921461149e5780636352211e146114625780636de8c4151461131f57806370a08231146112a1578063715018a6146112215780637284ca10146111f057806374443d59146110875780637870708014610ec15780638da5cb5b14610e8d57806395d89b4114610d90578063a22cb46514610c9e578063b88d4fde14610c30578063b945e9271461047d578063bef44d8b1461041a578063c6ceb96b14610342578063c87b56dd146102ef578063e795888914610275578063e985e9c5146102115763f2fde38b1461014857600080fd5b3461020c57602060031936011261020c57610161611a72565b610169611ca0565b73ffffffffffffffffffffffffffffffffffffffff8091169081156101db57600654827fffffffffffffffffffffffff0000000000000000000000000000000000000000821617600655167f8be0079c531659141344cd1fd0a4f28419497f9722a3daafe3b4186f6b6457e0600080a3005b60246040517f1e4fbdf700000000000000000000000000000000000000000000000000000000815260006004820152fd5b600080fd5b3461020c57604060031936011261020c5761022a611a72565b610232611a95565b9073ffffffffffffffffffffffffffffffffffffffff809116600052600560205260406000209116600052602052602060ff604060002054166040519015158152f35b3461020c5760208060031936011261020c57600435600052600a8152604060002090604051908181845491828152019360005281600020916000905b8282106102d8576102d4856102c881890382611c1d565b60405191829182611afa565b0390f35b8354865294850194600193840193909101906102b1565b3461020c57602060031936011261020c5761030b600435611f04565b50600060405161031a81611c01565b526102d460405161032a81611c01565b60008152604051918291602083526020830190611a32565b3461020c57602060031936011261020c57600060a060405161036381611be5565b828152826020820152826040820152826060820152826080820152015260043560005260096020526102d460406000206005604051916103a283611be5565b8054835260018101546020840152600281015460408401526003810154606084015260048101546080840152015460a08201526040519182918291909160a08060c083019480518452602081015160208501526040810151604085015260608101516060850152608081015160808501520151910152565b3461020c57604060031936011261020c57610433611a72565b73ffffffffffffffffffffffffffffffffffffffff6024359116600052600b6020526040600020805482101561020c5760209161046f91611b4b565b90546040519160031b1c8152f35b3461020c5761010060031936011261020c5760043567ffffffffffffffff811161020c573660238201121561020c576104c0903690602481600401359101611c69565b6006602435101561020c5760c07fffffffffffffffffffffffffffffffffffffffffffffffffffffffffffffffbc36011261020c576040519061050282611be5565b60443582526064356020830152608435604083015260a435606083015260c435608083015260e43560a083015261053a60075461213a565b908160075560405161054b81611c01565b600081523315610bff5782600052600260205273ffffffffffffffffffffffffffffffffffffffff60406000205416838115159182610bab575b3360005260036020526040600020600181540190558160005260026020526040600020337fffffffffffffffffffffffff000000000000000000000000000000000000000082541617905533907fddf252ad1be2c89b69c2b068fc378daa952ba7f163c4a11628f55a4df523b3ef600080a4610b7a57333b6109c8575b50604051602081019061066081610652878591909160a08060c083019480518452602081015160208501526040810151604085015260608101516060850152608081015160808501520151910152565b03601f198101835282611c1d565b51902090604051908161010081011067ffffffffffffffff6101008401111761099957610100820160405283825260208201928184526024356040840152336060840152426080840152600160a0840152600060c084015260e0830152836000526008602052604060002092825184555180519067ffffffffffffffff82116109995781906106f26001870154611b92565b601f8111610946575b50602090601f83116001146108d4576000926108c9575b50506000198260011b9260031b1c19161760018401555b604082015190600682101561089a5760209584600660e07f28321285637be4b123b1045df92de3319b71e0971c78eaf5eacf893dbd7aa5619661087b9660028b9a019081547fffffffffffffffffffffff00000000000000000000000000000000000000000060ff74ffffffffffffffffffffffffffffffffffffffff00606087015160081b1693169116171790556080810151600385015561080060a08201511515600486019060ff7fffffffffffffffffffffffffffffffffffffffffffffffffffffffffffffff0083541691151516179055565b60c0810151600585015501519101558460005260098752600560a060406000209280518455898101516001850155604081015160028501556060810151600385015560808101516004850155015191015533600052600b8652610867846040600020612149565b604051918291606083526060830190611a32565b610889878301602435611c40565b3360408301520390a2604051908152f35b7f4e487b7100000000000000000000000000000000000000000000000000000000600052602160045260246000fd5b015190508780610712565b9250600186016000526020600020906000935b601f198416851061092b576001945083601f19811610610912575b505050811b016001840155610729565b015160001960f88460031b161c19169055878080610902565b818101518355602094850194600190930192909101906108e7565b909150600186016000526020600020601f840160051c810160208510610992575b90849392915b601f830160051c820181106109835750506106fb565b6000815585945060010161096d565b5080610967565b7f4e487b7100000000000000000000000000000000000000000000000000000000600052604160045260246000fd5b6020610a1c91604051809381927f150b7a0200000000000000000000000000000000000000000000000000000000835233600484015260006024840152876044840152608060648401526084830190611a32565b03816000335af160009181610b1d575b50610a9e573d15610a97573d610a4181611c4d565b90610a4f6040519283611c1d565b81523d6000602083013e5b80519081610a925760246040517f64a0ae92000000000000000000000000000000000000000000000000000000008152336004820152fd5b602001fd5b6060610a5a565b7fffffffff000000000000000000000000000000000000000000000000000000007f150b7a0200000000000000000000000000000000000000000000000000000000911603610aed5783610602565b60246040517f64a0ae92000000000000000000000000000000000000000000000000000000008152336004820152fd5b9091506020813d602011610b72575b81610b3960209383611c1d565b8101031261020c57517fffffffff000000000000000000000000000000000000000000000000000000008116810361020c579085610a2c565b3d9150610b2c565b60246040517f73c6ac6e00000000000000000000000000000000000000000000000000000000815260006004820152fd5b610be482600052600460205260406000207fffffffffffffffffffffffff00000000000000000000000000000000000000008154169055565b80600052600360205260406000206000198154019055610585565b60246040517f64a0ae9200000000000000000000000000000000000000000000000000000000815260006004820152fd5b3461020c57608060031936011261020c57610c49611a72565b610c51611a95565b906044356064359267ffffffffffffffff841161020c573660238501121561020c57610c8a610c9c943690602481600401359101611c69565b92610c96838383611cf1565b33611f65565b005b3461020c57604060031936011261020c57610cb7611a72565b602435908115159081830361020c5773ffffffffffffffffffffffffffffffffffffffff16918215610d5f57610d319033600052600560205260406000208460005260205260406000209060ff7fffffffffffffffffffffffffffffffffffffffffffffffffffffffffffffff0083541691151516179055565b6040519081527f17307eab39ab6107e8899845ad3d59bd9653f200f220920489ca2b5937696c3160203392a3005b602483604051907f5b08ba180000000000000000000000000000000000000000000000000000000082526004820152fd5b3461020c57600060031936011261020c5760405160006001805490610db482611b92565b80855291818116908115610e485750600114610def575b6102d484610ddb81860382611c1d565b604051918291602083526020830190611a32565b600081815292507fb10e2d527612073b26eecdfd717e6a320cf44b4afac2b0732d9fcbe2b7fa0cf65b828410610e30575050508101602001610ddb82610dcb565b80546020858701810191909152909301928101610e18565b7fffffffffffffffffffffffffffffffffffffffffffffffffffffffffffffff001660208087019190915292151560051b85019092019250610ddb9150839050610dcb565b3461020c57600060031936011261020c57602073ffffffffffffffffffffffffffffffffffffffff60065416604051908152f35b3461020c5760e060031936011261020c5760043560c07fffffffffffffffffffffffffffffffffffffffffffffffffffffffffffffffdc36011261020c57604051610f0b81611be5565b60243581526020908181016044358152604082016064358152606083016084358152608084019060a435825260a085019260c4358452876000526002875273ffffffffffffffffffffffffffffffffffffffff604060002054163303611029579160089594939160059389600052600989526040600020958751875551600187015551600286015551600385015551600484015551910155604051610ff081610652868201948591909160a08060c083019480518452602081015160208501526040810151604085015260608101516060850152608081015160808501520151910152565b5190209183600052526006604060002001557f78a481a9bf05238fc2e4b0fbe31376a20f5e458b448f89fb9305ab9be8c4651e600080a2005b606487604051907f08c379a00000000000000000000000000000000000000000000000000000000082526004820152600960248201527f4e6f74206f776e657200000000000000000000000000000000000000000000006044820152fd5b3461020c5760208060031936011261020c576004356000526008815260406000208054906001838183016040519283916000918154916110c683611b92565b808652928281169081156111ae575060011461116f575b5050506110ec92500382611c1d565b600282015491600381015460ff6004830154169073ffffffffffffffffffffffffffffffffffffffff61113b6006600586015495015495604051998a998a5261010080918b0152890190611a32565b9561114c6040890160ff8316611c40565b60081c1660608701526080860152151560a085015260c084015260e08301520390f35b600090815285812095935091905b8183106111965750889450508201016110ec88806110dd565b8554878401850152948501948694509183019161117d565b9150506110ec9593507fffffffffffffffffffffffffffffffffffffffffffffffffffffffffffffff0091501682840152151560051b820101869288806110dd565b3461020c576111fe36611b35565b90600052600a6020526040600020805482101561020c5760209161046f91611b4b565b3461020c57600060031936011261020c5761123a611ca0565b600073ffffffffffffffffffffffffffffffffffffffff6006547fffffffffffffffffffffffff00000000000000000000000000000000000000008116600655167f8be0079c531659141344cd1fd0a4f28419497f9722a3daafe3b4186f6b6457e08280a3005b3461020c57602060031936011261020c5773ffffffffffffffffffffffffffffffffffffffff6112cf611a72565b1680156112ee5760005260036020526020604060002054604051908152f35b60246040517f89c62b6400000000000000000000000000000000000000000000000000000000815260006004820152fd5b3461020c5761132d36611b35565b9080600052600a60205260406000209060005b825480821015610c9c5784906113568386611b4b565b929054600393841b1c1461137457505061136f9061213a565b611340565b600019949291939491828201918211611433576113a46113976113bc9386611b4b565b905490871b1c9185611b4b565b90919060001983549160031b92831b921b1916179055565b81548015611404578101926113d18484611b4b565b81939154921b1b19169055557f0a9a93123d84136c3ad20e2ee7523e19227c96fe51aaf528f361e9c550d9f8a5600080a3005b7f4e487b7100000000000000000000000000000000000000000000000000000000600052603160045260246000fd5b7f4e487b7100000000000000000000000000000000000000000000000000000000600052601160045260246000fd5b3461020c57602060031936011261020c576020611480600435611f04565b73ffffffffffffffffffffffffffffffffffffffff60405191168152f35b3461020c576114ac36611b35565b908160005260206002815273ffffffffffffffffffffffffffffffffffffffff6040600020541633036115a957826000526008815260ff600460406000200154161561154b5760089082600052600a815261150b846040600020612149565b83600052526005604060002001611522815461213a565b90557f6e8d9da0bbfb4af1d0f518770290086d740b249d8ad818546d2f62e40c0a5c59600080a3005b606490604051907f08c379a00000000000000000000000000000000000000000000000000000000082526004820152600f60248201527f4d6f64756c6520696e61637469766500000000000000000000000000000000006044820152fd5b606490604051907f08c379a00000000000000000000000000000000000000000000000000000000082526004820152601060248201527f4e6f74206d6f64756c65206f776e6572000000000000000000000000000000006044820152fd5b3461020c5760208060031936011261020c5773ffffffffffffffffffffffffffffffffffffffff611636611a72565b16600052600b8152604060002090604051908181845491828152019360005281600020916000905b828210611675576102d4856102c881890382611c1d565b83548652948501946001938401939091019061165e565b3461020c57610c9c61169d36611ab8565b90604051926116ab84611c01565b60008452610c96838383611cf1565b3461020c57602060031936011261020c57600435600052600960205260c0604060002080549060018101549060028101546003820154906005600484015493015493604051958652602086015260408501526060840152608083015260a0820152f35b3461020c57610c9c61172e36611ab8565b91611cf1565b3461020c57604060031936011261020c5761174d611a72565b60243561175981611f04565b33151580611854575b80611819575b6117e957819073ffffffffffffffffffffffffffffffffffffffff809416938491167f8c5be1e5ebec7d5bd14f71427d1e84f3dd0314c0f7b2291e5b200ac8c7c3b925600080a460005260046020526040600020907fffffffffffffffffffffffff0000000000000000000000000000000000000000825416179055600080f35b60246040517fa9fbf51f000000000000000000000000000000000000000000000000000000008152336004820152fd5b5073ffffffffffffffffffffffffffffffffffffffff8116600052600560205260406000203360005260205260ff6040600020541615611768565b503373ffffffffffffffffffffffffffffffffffffffff82161415611762565b3461020c57602060031936011261020c5760043561189181611f04565b506000526004602052602073ffffffffffffffffffffffffffffffffffffffff60406000205416604051908152f35b3461020c57600060031936011261020c57604051600080546118e181611b92565b80845290600190818116908115610e48575060011461190a576102d484610ddb81860382611c1d565b600080805292507f290decd9548b62a8d60345a988386fc84ba6bc95484008f6362f93160ef3e5635b82841061194b575050508101602001610ddb82610dcb565b80546020858701810191909152909301928101611933565b3461020c57602060031936011261020c57600435907fffffffff00000000000000000000000000000000000000000000000000000000821680920361020c57817f80ac58cd0000000000000000000000000000000000000000000000000000000060209314908115611a08575b81156119de575b5015158152f35b7f01ffc9a700000000000000000000000000000000000000000000000000000000915014836119d7565b7f5b5e139f00000000000000000000000000000000000000000000000000000000811491506119d0565b919082519283825260005b848110611a5e575050601f19601f8460006020809697860101520116010190565b602081830181015184830182015201611a3d565b6004359073ffffffffffffffffffffffffffffffffffffffff8216820361020c57565b6024359073ffffffffffffffffffffffffffffffffffffffff8216820361020c57565b600319606091011261020c5773ffffffffffffffffffffffffffffffffffffffff90600435828116810361020c5791602435908116810361020c579060443590565b6020908160408183019282815285518094520193019160005b828110611b21575050505090565b835185529381019392810192600101611b13565b600319604091011261020c576004359060243590565b8054821015611b635760005260206000200190600090565b7f4e487b7100000000000000000000000000000000000000000000000000000000600052603260045260246000fd5b90600182811c92168015611bdb575b6020831014611bac57565b7f4e487b7100000000000000000000000000000000000000000000000000000000600052602260045260246000fd5b91607f1691611ba1565b60c0810190811067ffffffffffffffff82111761099957604052565b6020810190811067ffffffffffffffff82111761099957604052565b90601f601f19910116810190811067ffffffffffffffff82111761099957604052565b90600682101561089a5752565b67ffffffffffffffff811161099957601f01601f191660200190565b929192611c7582611c4d565b91611c836040519384611c1d565b82948184528183011161020c578281602093846000960137010152565b73ffffffffffffffffffffffffffffffffffffffff600654163303611cc157565b60246040517f118cdaa7000000000000000000000000000000000000000000000000000000008152336004820152fd5b909173ffffffffffffffffffffffffffffffffffffffff809316928315610bff57600092828452826020956002875260409684888820541696879133151580611e3c575b509060027fddf252ad1be2c89b69c2b068fc378daa952ba7f163c4a11628f55a4df523b3ef9284611dec575b858352600381528b83206001815401905586835252898120847fffffffffffffffffffffffff000000000000000000000000000000000000000082541617905580a41692838303611db25750505050565b6064945051927f64283d7b000000000000000000000000000000000000000000000000000000008452600484015260248301526044820152fd5b611e2587600052600460205260406000207fffffffffffffffffffffffff00000000000000000000000000000000000000008154169055565b848352600381528b83206000198154019055611d61565b91939450915080611ec3575b15611e5857859291879138611d35565b878688611e8e5760249151907f7e2732890000000000000000000000000000000000000000000000000000000082526004820152fd5b60449151907f177e802f0000000000000000000000000000000000000000000000000000000082523360048301526024820152fd5b503387148015611ee8575b80611e485750858252600481523385898420541614611e48565b5086825260058152878220338352815260ff8883205416611ece565b80600052600260205273ffffffffffffffffffffffffffffffffffffffff60406000205416908115611f34575090565b602490604051907f7e2732890000000000000000000000000000000000000000000000000000000082526004820152fd5b90939192833b611f77575b5050505050565b73ffffffffffffffffffffffffffffffffffffffff95929394958095169460405196817f150b7a020000000000000000000000000000000000000000000000000000000094858a5216600489015216602487015260448601526080606486015284611fe86020946084830190611a32565b039483816000978189895af18691816120de575b50612075575050503d60001461206c573d61201681611c4d565b906120246040519283611c1d565b81528093823d92013e5b8251928361206757602483604051907f64a0ae920000000000000000000000000000000000000000000000000000000082526004820152fd5b019050fd5b6060925061202e565b9092507fffffffff0000000000000000000000000000000000000000000000000000000091945016036120ad57503880808080611f70565b602490604051907f64a0ae920000000000000000000000000000000000000000000000000000000082526004820152fd5b9091508481813d8311612133575b6120f68183611c1d565b8101031261212f57517fffffffff000000000000000000000000000000000000000000000000000000008116810361212f579038611ffc565b8680fd5b503d6120ec565b60001981146114335760010190565b908154916801000000000000000083101561099957826113a491600161217195018155611b4b565b56fea2646970667358221220524e07aa47ed7e0df3f82c8d3910278ad215d6e464ee1c986dd9ed95d25cb35564736f6c63430008140033",
  "linkReferences": {},
  "deployedLinkReferences": {}
}