{
  "_format": "hh-sol-artifact-1",
  "contractName": "WorldPhysics",
  "sourceName": "contracts/layer3/reality/WorldPhysics.sol",
  "abi": [
    {
      "inputs": [],
      "stateMutability": "nonpayable",
      "type": "constructor"
    },
    {
      "inputs": [
        {
          "internalType": "address",
          "name": "sender",
          "type": "address"
        },
        {
          "internalType": "uint256",
          "name": "tokenId",
          "type": "uint256"
        },
        {
          "internalType": "address",
          "name": "owner",
          "type": "address"
        }
      ],
      "name": "ERC721IncorrectOwner",
      "type": "error"
    },
    {
      "inputs": [
        {
          "internalType": "address",
          "name": "operator",
          "type": "address"
        },
        {
          "internalType": "uint256",
          "name": "tokenId",
          "type": "uint256"
        }
      ],
      "name": "ERC721InsufficientApproval",
      "type": "error"
    },
    {
      "inputs": [
        {
          "internalType": "address",
          "name": "approver",
          "type": "address"
        }
      ],
      "name": "ERC721InvalidApprover",
      "type": "error"
    },
    {
      "inputs": [
        {
          "internalType": "address",
          "name": "operator",
          "type": "address"
        }
      ],
      "name": "ERC721InvalidOperator",
      "type": "error"
    },
    {
      "inputs": [
        {
          "internalType": "address",
          "name": "owner",
          "type": "address"
        }
      ],
      "name": "ERC721InvalidOwner",
      "type": "error"
    },
    {
      "inputs": [
        {
          "internalType": "address",
          "name": "receiver",
          "type": "address"
        }
      ],
      "name": "ERC721InvalidReceiver",
      "type": "error"
    },
    {
      "inputs": [
        {
          "internalType": "address",
          "name": "sender",
          "type": "address"
        }
      ],
      "name": "ERC721InvalidSender",
      "type": "error"
    },
    {
      "inputs": [
        {
          "internalType": "uint256",
          "name": "tokenId",
          "type": "uint256"
        }
      ],
      "name": "ERC721NonexistentToken",
      "type": "error"
    },
    {
      "inputs": [
        {
          "internalType": "address",
          "name": "owner",
          "type": "address"
        }
      ],
      "name": "OwnableInvalidOwner",
      "type": "error"
    },
    {
      "inputs": [
        {
          "internalType": "address",
          "name": "account",
          "type": "address"
        }
      ],
      "name": "OwnableUnauthorizedAccount",
      "type": "error"
    },
    {
      "anonymous": false,
      "inputs": [
        {
          "indexed": true,
          "internalType": "address",
          "name": "owner",
          "type": "address"
        },
        {
          "indexed": true,
          "internalType": "address",
          "name": "approved",
          "type": "address"
        },
        {
          "indexed": true,
          "internalType": "uint256",
          "name": "tokenId",
          "type": "uint256"
        }
      ],
      "name": "Approval",
      "type": "event"
    },
    {
      "anonymous": false,
      "inputs": [
        {
          "indexed": true,
          "internalType": "address",
          "name": "owner",
          "type": "address"
        },
        {
          "indexed": true,
          "internalType": "address",
          "name": "operator",
          "type": "address"
        },
        {
          "indexed": false,
          "internalType": "bool",
          "name": "approved",
          "type": "bool"
        }
      ],
      "name": "ApprovalForAll",
      "type": "event"
    },
    {
      "anonymous": false,
      "inputs": [
        {
          "indexed": true,
          "internalType": "address",
          "name": "previousOwner",
          "type": "address"
        },
        {
          "indexed": true,
          "internalType": "address",
          "name": "newOwner",
          "type": "address"
        }
      ],
      "name": "OwnershipTransferred",
      "type": "event"
    },
    {
      "anonymous": false,
      "inputs": [
        {
          "indexed": true,
          "internalType": "uint256",
          "name": "moduleId",
          "type": "uint256"
        }
      ],
      "name": "ParametersUpdated",
      "type": "event"
    },
    {
      "anonymous": false,
      "inputs": [
        {
          "indexed": true,
          "internalType": "uint256",
          "name": "worldId",
          "type": "uint256"
        },
        {
          "indexed": true,
          "internalType": "uint256",
          "name": "moduleId",
          "type": "uint256"
        }
      ],
      "name": "PhysicsAttached",
      "type": "event"
    },
    {
      "anonymous": false,
      "inputs": [
        {
          "indexed": true,
          "internalType": "uint256",
          "name": "worldId",
          "type": "uint256"
        },
        {
          "indexed": true,
          "internalType": "uint256",
          "name": "moduleId",
          "type": "uint256"
        }
      ],
      "name": "PhysicsDetached",
      "type": "event"
    },
    {
      "anonymous": false,
      "inputs": [
        {
          "indexed": true,
          "internalType": "uint256",
          "name": "moduleId",
          "type": "uint256"
        },
        {
          "indexed": false,
          "internalType": "string",
          "name": "name",
          "type": "string"
        },
        {
          "indexed": false,
          "internalType": "enum WorldPhysics.PhysicsType",
          "name": "physicsType",
          "type": "uint8"
        },
        {
          "indexed": false,
          "internalType": "address",
          "name": "creator",
          "type": "address"
        }
      ],
      "name": "PhysicsModuleCreated",
      "type": "event"
    },
    {
      "anonymous": false,
      "inputs": [
        {
          "indexed": true,
          "internalType": "address",
          "name": "from",
          "type": "address"
        },
        {
          "indexed": true,
          "internalType": "address",
          "name": "to",
          "type": "address"
        },
        {
          "indexed": true,
          "internalType": "uint256",
          "name": "tokenId",
          "type": "uint256"
        }
      ],
      "name": "Transfer",
      "type": "event"
    },
    {
      "inputs": [
        {
          "internalType": "address",
          "name": "to",
          "type": "address"
        },
        {
          "internalType": "uint256",
          "name": "tokenId",
          "type": "uint256"
        }
      ],
      "name": "approve",
      "outputs": [],
      "stateMutability": "nonpayable",
      "type": "function"
    },
    {
      "inputs": [
        {
          "internalType": "uint256",
          "name": "worldId",
          "type": "uint256"
        },
        {
          "internalType": "uint256",
          "name": "moduleId",
          "type": "uint256"
        }
      ],
      "name": "attachToWorld",
      "outputs": [],
      "stateMutability": "nonpayable",
      "type": "function"
    },
    {
      "inputs": [
        {
          "internalType": "address",
          "name": "owner",
          "type": "address"
        }
      ],
      "name": "balanceOf",
      "outputs": [
        {
          "internalType": "uint256",
          "name": "",
          "type": "uint256"
        }
      ],
      "stateMutability": "view",
      "type": "function"
    },
    {
      "inputs": [
        {
          "internalType": "string",
          "name": "name",
          "type": "string"
        },
        {
          "internalType": "enum WorldPhysics.PhysicsType",
          "name": "physicsType",
          "type": "uint8"
        },
        {
          "components": [
            {
              "internalType": "int256",
              "name": "gravityStrength",
              "type": "int256"
            },
            {
              "internalType": "uint256",
              "name": "energyDrainRate",
              "type": "uint256"
            },
            {
              "internalType": "uint256",
              "name": "timeFlowRate",
              "type": "uint256"
            },
            {
              "internalType": "uint256",
              "name": "causalityStrength",
              "type": "uint256"
            },
            {
              "internalType": "uint256",
              "name": "entropyRate",
              "type": "uint256"
            },
            {
              "internalType": "uint256",
              "name": "quantumFluctuation",
              "type": "uint256"
            }
          ],
          "internalType": "struct WorldPhysics.PhysicsParameters",
          "name": "params",
          "type": "tuple"
        }
      ],
      "name": "createPhysicsModule",
      "outputs": [
        {
          "internalType": "uint256",
          "name": "",
          "type": "uint256"
        }
      ],
      "stateMutability": "nonpayable",
      "type": "function"
    },
    {
      "inputs": [
        {
          "internalType": "address",
          "name": "",
          "type": "address"
        },
        {
          "internalType": "uint256",
          "name": "",
          "type": "uint256"
        }
      ],
      "name": "creatorModules",
      "outputs": [
        {
          "internalType": "uint256",
          "name": "",
          "type": "uint256"
        }
      ],
      "stateMutability": "view",
      "type": "function"
    },
    {
      "inputs": [
        {
          "internalType": "uint256",
          "name": "worldId",
          "type": "uint256"
        },
        {
          "internalType": "uint256",
          "name": "moduleId",
          "type": "uint256"
        }
      ],
      "name": "detachFromWorld",
      "outputs": [],
      "stateMutability": "nonpayable",
      "type": "function"
    },
    {
      "inputs": [
        {
          "internalType": "uint256",
          "name": "tokenId",
          "type": "uint256"
        }
      ],
      "name": "getApproved",
      "outputs": [
        {
          "internalType": "address",
          "name": "",
          "type": "address"
        }
      ],
      "stateMutability": "view",
      "type": "function"
    },
    {
      "inputs": [
        {
          "internalType": "address",
          "name": "creator",
          "type": "address"
        }
      ],
      "name": "getCreatorModules",
      "outputs": [
        {
          "internalType": "uint256[]",
          "name": "",
          "type": "uint256[]"
        }
      ],
      "stateMutability": "view",
      "type": "function"
    },
    {
      "inputs": [
        {
          "internalType": "uint256",
          "name": "moduleId",
          "type": "uint256"
        }
      ],
      "name": "getParameters",
      "outputs": [
        {
          "components": [
            {
              "internalType": "int256",
              "name": "gravityStrength",
              "type": "int256"
            },
            {
              "internalType": "uint256",
              "name": "energyDrainRate",
              "type": "uint256"
            },
            {
              "internalType": "uint256",
              "name": "timeFlowRate",
              "type": "uint256"
            },
            {
              "internalType": "uint256",
              "name": "causalityStrength",
              "type": "uint256"
            },
            {
              "internalType": "uint256",
              "name": "entropyRate",
              "type": "uint256"
            },
            {
              "internalType": "uint256",
              "name": "quantumFluctuation",
              "type": "uint256"
            }
          ],
          "internalType": "struct WorldPhysics.PhysicsParameters",
          "name": "",
          "type": "tuple"
        }
      ],
      "stateMutability": "view",
      "type": "function"
    },
    {
      "inputs": [
        {
          "internalType": "uint256",
          "name": "worldId",
          "type": "uint256"
        }
      ],
      "name": "getWorldPhysics",
      "outputs": [
        {
          "internalType": "uint256[]",
          "name": "",
          "type": "uint256[]"
        }
      ],
      "stateMutability": "view",
      "type": "function"
    },
    {
      "inputs": [
        {
          "internalType": "address",
          "name": "owner",
          "type": "address"
        },
        {
          "internalType": "address",
          "name": "operator",
          "type": "address"
        }
      ],
      "name": "isApprovedForAll",
      "outputs": [
        {
          "internalType": "bool",
          "name": "",
          "type": "bool"
        }
      ],
      "stateMutability": "view",
      "type": "function"
    },
    {
      "inputs": [
        {
          "internalType": "uint256",
          "name": "",
          "type": "uint256"
        }
      ],
      "name": "moduleParameters",
      "outputs": [
        {
          "internalType": "int256",
          "name": "gravityStrength",
          "type": "int256"
        },
        {
          "internalType": "uint256",
          "name": "energyDrainRate",
          "type": "uint256"
        },
        {
          "internalType": "uint256",
          "name": "timeFlowRate",
          "type": "uint256"
        },
        {
          "internalType": "uint256",
          "name": "causalityStrength",
          "type": "uint256"
        },
        {
          "internalType": "uint256",
          "name": "entropyRate",
          "type": "uint256"
        },
        {
          "internalType": "uint256",
          "name": "quantumFluctuation",
          "type": "uint256"
        }
      ],
      "stateMutability": "view",
      "type": "function"
    },
    {
      "inputs": [],
      "name": "name",
      "outputs": [
        {
          "internalType": "string",
          "name": "",
          "type": "string"
        }
      ],
      "stateMutability": "view",
      "type": "function"
    },
    {
      "inputs": [],
      "name": "owner",
      "outputs": [
        {
          "internalType": "address",
          "name": "",
          "type": "address"
        }
      ],
      "stateMutability": "view",
      "type": "function"
    },
    {
      "inputs": [
        {
          "internalType": "uint256",
          "name": "tokenId",
          "type": "uint256"
        }
      ],
      "name": "ownerOf",
      "outputs": [
        {
          "internalType": "address",
          "name": "",
          "type": "address"
        }
      ],
      "stateMutability": "view",
      "type": "function"
    },
    {
      "inputs": [
        {
          "internalType": "uint256",
          "name": "",
          "type": "uint256"
        }
      ],
      "name": "physicsModules",
      "outputs": [
        {
          "internalType": "uint256",
          "name": "id",
          "type": "uint256"
        },
        {
          "internalType": "string",
          "name": "name",
          "type": "string"
        },
        {
          "internalType": "enum WorldPhysics.PhysicsType",
          "name": "physicsType",
          "type": "uint8"
        },
        {
          "internalType": "address",
          "name": "creator",
          "type": "address"
        },
        {
          "internalType": "uint256",
          "name": "createdAt",
          "type": "uint256"
        },
        {
          "internalType": "bool",
          "name": "isActive",
          "type": "bool"
        },
        {
          "internalType": "uint256",
          "name": "usageCount",
          "type": "uint256"
        },
        {
          "internalType": "bytes32",
          "name": "parametersHash",
          "type": "bytes32"
        }
      ],
      "stateMutability": "view",
      "type": "function"
    },
    {
      "inputs": [],
      "name": "renounceOwnership",
      "outputs": [],
      "stateMutability": "nonpayable",
      "type": "function"
    },
    {
      "inputs": [
        {
          "internalType": "address",
          "name": "from",
          "type": "address"
        },
        {
          "internalType": "address",
          "name": "to",
          "type": "address"
        },
        {
          "internalType": "uint256",
          "name": "tokenId",
          "type": "uint256"
        }
      ],
      "name": "safeTransferFrom",
      "outputs": [],
      "stateMutability": "nonpayable",
      "type": "function"
    },
    {
      "inputs": [
        {
          "internalType": "address",
          "name": "from",
          "type": "address"
        },
        {
          "internalType": "address",
          "name": "to",
          "type": "address"
        },
        {
          "internalType": "uint256",
          "name": "tokenId",
          "type": "uint256"
        },
        {
          "internalType": "bytes",
          "name": "data",
          "type": "bytes"
        }
      ],
      "name": "safeTransferFrom",
      "outputs": [],
      "stateMutability": "nonpayable",
      "type": "function"
    },
    {
      "inputs": [
        {
          "internalType": "address",
          "name": "operator",
          "type": "address"
        },
        {
          "internalType": "bool",
          "name": "approved",
          "type": "bool"
        }
      ],
      "name": "setApprovalForAll",
      "outputs": [],
      "stateMutability": "nonpayable",
      "type": "function"
    },
    {
      "inputs": [
        {
          "internalType": "bytes4",
          "name": "interfaceId",
          "type": "bytes4"
        }
      ],
      "name": "supportsInterface",
      "outputs": [
        {
          "internalType": "bool",
          "name": "",
          "type": "bool"
        }
      ],
      "stateMutability": "view",
      "type": "function"
    },
    {
      "inputs": [],
      "name": "symbol",
      "outputs": [
        {
          "internalType": "string",
          "name": "",
          "type": "string"
        }
      ],
      "stateMutability": "view",
      "type": "function"
    },
    {
      "inputs": [
        {
          "internalType": "uint256",
          "name": "tokenId",
          "type": "uint256"
        }
      ],
      "name": "tokenURI",
      "outputs": [
        {
          "internalType": "string",
          "name": "",
          "type": "string"
        }
      ],
      "stateMutability": "view",
      "type": "function"
    },
    {
      "inputs": [
        {
          "internalType": "address",
          "name": "from",
          "type": "address"
        },
        {
          "internalType": "address",
          "name": "to",
          "type": "address"
        },
        {
          "internalType": "uint256",
          "name": "tokenId",
          "type": "uint256"
        }
      ],
      "name": "transferFrom",
      "outputs": [],
      "stateMutability": "nonpayable",
      "type": "function"
    },
    {
      "inputs": [
        {
          "internalType": "address",
          "name": "newOwner",
          "type": "address"
        }
      ],
      "name": "transferOwnership",
      "outputs": [],
      "stateMutability": "nonpayable",
      "type": "function"
    },
    {
      "inputs": [
        {
          "internalType": "uint256",
          "name": "moduleId",
          "type": "uint256"
        },
        {
          "components": [
            {
              "internalType": "int256",
              "name": "gravityStrength",
              "type": "int256"
            },
            {
              "internalType": "uint256",
              "name": "energyDrainRate",
              "type": "uint256"
            },
            {
              "internalType": "uint256",
              "name": "timeFlowRate",
              "type": "uint256"
            },
            {
              "internalType": "uint256",
              "name": "causalityStrength",
              "type": "uint256"
            },
            {
              "internalType": "uint256",
              "name": "entropyRate",
              "type": "uint256"
            },
            {
              "internalType": "uint256",
              "name": "quantumFluctuation",
              "type": "uint256"
            }
          ],
          "internalType": "struct WorldPhysics.PhysicsParameters",
          "name": "newParams",
          "type": "tuple"
        }
      ],
      "name": "updateParameters",
      "outputs": [],
      "stateMutability": "nonpayable",
      "type": "function"
    },
    {
      "inputs": [
        {
          "internalType": "uint256",
          "name": "",
          "type": "uint256"
        },
        {
          "internalType": "uint256",
          "name": "",
          "type": "uint256"
        }
      ],
      "name": "worldPhysics",
      "outputs": [
        {
          "internalType": "uint256",
          "name": "",
          "type": "uint256"
        }
      ],
      "stateMutability": "view",
      "type": "function"
    }
  ],
  "bytecode": "0x60806040523480156200001157600080fd5b5033604051806040016040528060118152602001704f414e20576f726c64205068797369637360781b8152506040518060400160405280600581526020016404f414e57560dc1b81525081600090816200006c9190620001b6565b5060016200007b8282620001b6565b5050506001600160a01b038116620000ad57604051631e4fbdf760e01b81526000600482015260240160405180910390fd5b620000b881620000bf565b5062000282565b600680546001600160a01b038381166001600160a01b0319831681179093556040519116919082907f8be0079c531659141344cd1fd0a4f28419497f9722a3daafe3b4186f6b6457e090600090a35050565b634e487b7160e01b600052604160045260246000fd5b600181811c908216806200013c57607f821691505b6020821081036200015d57634e487b7160e01b600052602260045260246000fd5b50919050565b601f821115620001b157600081815260208120601f850160051c810160208610156200018c5750805b601f850160051c820191505b81811015620001ad5782815560010162000198565b5050505b505050565b81516001600160401b03811115620001d257620001d262000111565b620001ea81620001e3845462000127565b8462000163565b602080601f831160018114620002225760008415620002095750858301515b600019600386901b1c1916600185901b178555620001ad565b600085815260208120601f198616915b82811015620002535788860151825594840194600190910190840162000232565b5085821015620002725787850151600019600388901b60f8161c191681555b5050505050600190811b01905550565b611e9a80620002926000396000f3fe608060405234801561001057600080fd5b50600436106101a95760003560e01c80637284ca10116100f9578063b945e92711610097578063c87b56dd11610071578063c87b56dd14610415578063e795888914610428578063e985e9c51461043b578063f2fde38b1461044e57600080fd5b8063b945e927146103cf578063bef44d8b146103e2578063c6ceb96b146103f557600080fd5b80638da5cb5b116100d35780638da5cb5b1461039057806395d89b41146103a1578063a22cb465146103a9578063b88d4fde146103bc57600080fd5b80637284ca101461034357806374443d5914610356578063787070801461037d57600080fd5b806342842e0e116101665780636352211e116101405780636352211e146102f45780636de8c4151461030757806370a082311461031a578063715018a61461033b57600080fd5b806342842e0e146102ae57806348a29332146102c1578063633fca92146102e157600080fd5b806301ffc9a7146101ae57806306fdde03146101d6578063081812fc146101eb578063095ea7b31461021657806323b872dd1461022b5780633a5e957c1461023e575b600080fd5b6101c16101bc3660046116ee565b610461565b60405190151581526020015b60405180910390f35b6101de6104b3565b6040516101cd919061175b565b6101fe6101f936600461176e565b610545565b6040516001600160a01b0390911681526020016101cd565b6102296102243660046117a3565b61056e565b005b6102296102393660046117cd565b61057d565b61028161024c36600461176e565b600960205260009081526040902080546001820154600283015460038401546004850154600590950154939492939192909186565b604080519687526020870195909552938501929092526060840152608083015260a082015260c0016101cd565b6102296102bc3660046117cd565b61060d565b6102d46102cf366004611809565b61062d565b6040516101cd9190611824565b6102296102ef366004611868565b610699565b6101fe61030236600461176e565b6107b7565b610229610315366004611868565b6107c2565b61032d610328366004611809565b6108b4565b6040519081526020016101cd565b6102296108fc565b61032d610351366004611868565b610910565b61036961036436600461176e565b610941565b6040516101cd9897969594939291906118c2565b61022961038b3660046119af565b610a1d565b6006546001600160a01b03166101fe565b6101de610b1a565b6102296103b73660046119dc565b610b29565b6102296103ca366004611a8e565b610b34565b61032d6103dd366004611b0a565b610b4c565b61032d6103f03660046117a3565b610d8f565b61040861040336600461176e565b610dab565b6040516101cd9190611b84565b6101de61042336600461176e565b610e3d565b6102d461043636600461176e565b610eb2565b6101c1610449366004611bc8565b610f12565b61022961045c366004611809565b610f40565b60006001600160e01b031982166380ac58cd60e01b148061049257506001600160e01b03198216635b5e139f60e01b145b806104ad57506301ffc9a760e01b6001600160e01b03198316145b92915050565b6060600080546104c290611bf2565b80601f01602080910402602001604051908101604052809291908181526020018280546104ee90611bf2565b801561053b5780601f106105105761010080835404028352916020019161053b565b820191906000526020600020905b81548152906001019060200180831161051e57829003601f168201915b5050505050905090565b600061055082610f7e565b506000828152600460205260409020546001600160a01b03166104ad565b610579828233610fb7565b5050565b6001600160a01b0382166105ac57604051633250574960e11b8152600060048201526024015b60405180910390fd5b60006105b9838333610fc4565b9050836001600160a01b0316816001600160a01b031614610607576040516364283d7b60e01b81526001600160a01b03808616600483015260248201849052821660448201526064016105a3565b50505050565b61062883838360405180602001604052806000815250610b34565b505050565b6001600160a01b0381166000908152600b602090815260409182902080548351818402810184019094528084526060939283018282801561068d57602002820191906000526020600020905b815481526020019060010190808311610679575b50505050509050919050565b6000818152600260205260409020546001600160a01b031633146106f25760405162461bcd60e51b815260206004820152601060248201526f2737ba1036b7b23ab6329037bbb732b960811b60448201526064016105a3565b60008181526008602052604090206004015460ff166107455760405162461bcd60e51b815260206004820152600f60248201526e4d6f64756c6520696e61637469766560881b60448201526064016105a3565b6000828152600a602090815260408083208054600181018255908452828420018490558383526008909152812060050180549161078183611c42565b9091555050604051819083907f6e8d9da0bbfb4af1d0f518770290086d740b249d8ad818546d2f62e40c0a5c5990600090a35050565b60006104ad82610f7e565b6000828152600a60205260408120905b815481101561060757828282815481106107ee576107ee611c5b565b9060005260206000200154036108a2578154829061080e90600190611c71565b8154811061081e5761081e611c5b565b906000526020600020015482828154811061083b5761083b611c5b565b90600052602060002001819055508180548061085957610859611c84565b6001900381819060005260206000200160009055905582847f0a9a93123d84136c3ad20e2ee7523e19227c96fe51aaf528f361e9c550d9f8a560405160405180910390a3610607565b806108ac81611c42565b9150506107d2565b60006001600160a01b0382166108e0576040516322718ad960e21b8152600060048201526024016105a3565b506001600160a01b031660009081526003602052604090205490565b6109046110bd565b61090e60006110ea565b565b600a602052816000526040600020818154811061092c57600080fd5b90600052602060002001600091509150505481565b6008602052600090815260409020805460018201805491929161096390611bf2565b80601f016020809104026020016040519081016040528092919081815260200182805461098f90611bf2565b80156109dc5780601f106109b1576101008083540402835291602001916109dc565b820191906000526020600020905b8154815290600101906020018083116109bf57829003601f168201915b505050506002830154600384015460048501546005860154600690960154949560ff808516966101009095046001600160a01b031695509293929091169188565b6000828152600260205260409020546001600160a01b03163314610a6f5760405162461bcd60e51b81526020600482015260096024820152682737ba1037bbb732b960b91b60448201526064016105a3565b60008281526009602090815260409182902083518155818401516001820155828401516002820155606084015160038201556080840151600482015560a08401516005909101559051610ac491839101611b84565b60408051601f198184030181528282528051602091820120600086815260089092529181206006019190915583917f78a481a9bf05238fc2e4b0fbe31376a20f5e458b448f89fb9305ab9be8c4651e9190a25050565b6060600180546104c290611bf2565b61057933838361113c565b610b3f84848461057d565b61060733858585856111db565b6007805460009182610b5d83611c42565b9091555050600754610b6f3382611306565b600083604051602001610b829190611b84565b604051602081830303815290604052805190602001209050604051806101000160405280838152602001878152602001866005811115610bc457610bc461188a565b8152336020808301919091524260408084019190915260016060840181905260006080850181905260a090940186905286845260088352922083518155908301519091820190610c149082611ce0565b50604082015160028201805460ff19166001836005811115610c3857610c3861188a565b021790555060608201518160020160016101000a8154816001600160a01b0302191690836001600160a01b031602179055506080820151816003015560a08201518160040160006101000a81548160ff02191690831515021790555060c0820151816005015560e082015181600601559050508360096000848152602001908152602001600020600082015181600001556020820151816001015560408201518160020155606082015181600301556080820151816004015560a08201518160050155905050600b6000336001600160a01b03166001600160a01b03168152602001908152602001600020829080600181540180825580915050600190039060005260206000200160009091909190915055817f28321285637be4b123b1045df92de3319b71e0971c78eaf5eacf893dbd7aa561878733604051610d7e93929190611da0565b60405180910390a250949350505050565b600b602052816000526040600020818154811061092c57600080fd5b610de46040518060c001604052806000815260200160008152602001600081526020016000815260200160008152602001600081525090565b50600090815260096020908152604091829020825160c08101845281548152600182015492810192909252600281015492820192909252600382015460608201526004820154608082015260059091015460a082015290565b6060610e4882610f7e565b506000610e6060408051602081019091526000815290565b90506000815111610e805760405180602001604052806000815250610eab565b80610e8a84611320565b604051602001610e9b929190611ddb565b6040516020818303038152906040525b9392505050565b6000818152600a602090815260409182902080548351818402810184019094528084526060939283018282801561068d57602002820191906000526020600020908154815260200190600101908083116106795750505050509050919050565b6001600160a01b03918216600090815260056020908152604080832093909416825291909152205460ff1690565b610f486110bd565b6001600160a01b038116610f7257604051631e4fbdf760e01b8152600060048201526024016105a3565b610f7b816110ea565b50565b6000818152600260205260408120546001600160a01b0316806104ad57604051637e27328960e01b8152600481018490526024016105a3565b61062883838360016113b3565b6000828152600260205260408120546001600160a01b0390811690831615610ff157610ff18184866114b9565b6001600160a01b0381161561102f5761100e6000856000806113b3565b6001600160a01b038116600090815260036020526040902080546000190190555b6001600160a01b0385161561105e576001600160a01b0385166000908152600360205260409020805460010190555b60008481526002602052604080822080546001600160a01b0319166001600160a01b0389811691821790925591518793918516917fddf252ad1be2c89b69c2b068fc378daa952ba7f163c4a11628f55a4df523b3ef91a4949350505050565b6006546001600160a01b0316331461090e5760405163118cdaa760e01b81523360048201526024016105a3565b600680546001600160a01b038381166001600160a01b0319831681179093556040519116919082907f8be0079c531659141344cd1fd0a4f28419497f9722a3daafe3b4186f6b6457e090600090a35050565b6001600160a01b03821661116e57604051630b61174360e31b81526001600160a01b03831660048201526024016105a3565b6001600160a01b03838116600081815260056020908152604080832094871680845294825291829020805460ff191686151590811790915591519182527f17307eab39ab6107e8899845ad3d59bd9653f200f220920489ca2b5937696c31910160405180910390a3505050565b6001600160a01b0383163b156112ff57604051630a85bd0160e11b81526001600160a01b0384169063150b7a029061121d908890889087908790600401611e0a565b6020604051808303816000875af1925050508015611258575060408051601f3d908101601f1916820190925261125591810190611e47565b60015b6112c1573d808015611286576040519150601f19603f3d011682016040523d82523d6000602084013e61128b565b606091505b5080516000036112b957604051633250574960e11b81526001600160a01b03851660048201526024016105a3565b805160208201fd5b6001600160e01b03198116630a85bd0160e11b146112fd57604051633250574960e11b81526001600160a01b03851660048201526024016105a3565b505b5050505050565b61057982826040518060200160405280600081525061151d565b6060600061132d83611535565b600101905060008167ffffffffffffffff81111561134d5761134d61191f565b6040519080825280601f01601f191660200182016040528015611377576020820181803683370190505b5090508181016020015b600019016f181899199a1a9b1b9c1cb0b131b232b360811b600a86061a8153600a850494508461138157509392505050565b80806113c757506001600160a01b03821615155b156114895760006113d784610f7e565b90506001600160a01b038316158015906114035750826001600160a01b0316816001600160a01b031614155b801561141657506114148184610f12565b155b1561143f5760405163a9fbf51f60e01b81526001600160a01b03841660048201526024016105a3565b81156114875783856001600160a01b0316826001600160a01b03167f8c5be1e5ebec7d5bd14f71427d1e84f3dd0314c0f7b2291e5b200ac8c7c3b92560405160405180910390a45b505b5050600090815260046020526040902080546001600160a01b0319166001600160a01b0392909216919091179055565b6114c483838361160d565b610628576001600160a01b0383166114f257604051637e27328960e01b8152600481018290526024016105a3565b60405163177e802f60e01b81526001600160a01b0383166004820152602481018290526044016105a3565b6115278383611673565b6106283360008585856111db565b60008072184f03e93ff9f4daa797ed6e38ed64bf6a1f0160401b83106115745772184f03e93ff9f4daa797ed6e38ed64bf6a1f0160401b830492506040015b6d04ee2d6d415b85acef810000000083106115a0576d04ee2d6d415b85acef8100000000830492506020015b662386f26fc1000083106115be57662386f26fc10000830492506010015b6305f5e10083106115d6576305f5e100830492506008015b61271083106115ea57612710830492506004015b606483106115fc576064830492506002015b600a83106104ad5760010192915050565b60006001600160a01b0383161580159061166b5750826001600160a01b0316846001600160a01b0316148061164757506116478484610f12565b8061166b57506000828152600460205260409020546001600160a01b038481169116145b949350505050565b6001600160a01b03821661169d57604051633250574960e11b8152600060048201526024016105a3565b60006116ab83836000610fc4565b90506001600160a01b03811615610628576040516339e3563760e11b8152600060048201526024016105a3565b6001600160e01b031981168114610f7b57600080fd5b60006020828403121561170057600080fd5b8135610eab816116d8565b60005b8381101561172657818101518382015260200161170e565b50506000910152565b6000815180845261174781602086016020860161170b565b601f01601f19169290920160200192915050565b602081526000610eab602083018461172f565b60006020828403121561178057600080fd5b5035919050565b80356001600160a01b038116811461179e57600080fd5b919050565b600080604083850312156117b657600080fd5b6117bf83611787565b946020939093013593505050565b6000806000606084860312156117e257600080fd5b6117eb84611787565b92506117f960208501611787565b9150604084013590509250925092565b60006020828403121561181b57600080fd5b610eab82611787565b6020808252825182820181905260009190848201906040850190845b8181101561185c57835183529284019291840191600101611840565b50909695505050505050565b6000806040838503121561187b57600080fd5b50508035926020909101359150565b634e487b7160e01b600052602160045260246000fd5b600681106118be57634e487b7160e01b600052602160045260246000fd5b9052565b60006101008a83528060208401526118dc8184018b61172f565b9150506118ec60408301896118a0565b6001600160a01b03969096166060820152608081019490945291151560a084015260c083015260e0909101529392505050565b634e487b7160e01b600052604160045260246000fd5b600060c0828403121561194757600080fd5b60405160c0810181811067ffffffffffffffff8211171561196a5761196a61191f565b8060405250809150823581526020830135602082015260408301356040820152606083013560608201526080830135608082015260a083013560a08201525092915050565b60008060e083850312156119c257600080fd5b823591506119d38460208501611935565b90509250929050565b600080604083850312156119ef57600080fd5b6119f883611787565b915060208301358015158114611a0d57600080fd5b809150509250929050565b600067ffffffffffffffff80841115611a3357611a3361191f565b604051601f8501601f19908116603f01168101908282118183101715611a5b57611a5b61191f565b81604052809350858152868686011115611a7457600080fd5b858560208301376000602087830101525050509392505050565b60008060008060808587031215611aa457600080fd5b611aad85611787565b9350611abb60208601611787565b925060408501359150606085013567ffffffffffffffff811115611ade57600080fd5b8501601f81018713611aef57600080fd5b611afe87823560208401611a18565b91505092959194509250565b60008060006101008486031215611b2057600080fd5b833567ffffffffffffffff811115611b3757600080fd5b8401601f81018613611b4857600080fd5b611b5786823560208401611a18565b935050602084013560068110611b6c57600080fd5b9150611b7b8560408601611935565b90509250925092565b600060c082019050825182526020830151602083015260408301516040830152606083015160608301526080830151608083015260a083015160a083015292915050565b60008060408385031215611bdb57600080fd5b611be483611787565b91506119d360208401611787565b600181811c90821680611c0657607f821691505b602082108103611c2657634e487b7160e01b600052602260045260246000fd5b50919050565b634e487b7160e01b600052601160045260246000fd5b600060018201611c5457611c54611c2c565b5060010190565b634e487b7160e01b600052603260045260246000fd5b818103818111156104ad576104ad611c2c565b634e487b7160e01b600052603160045260246000fd5b601f82111561062857600081815260208120601f850160051c81016020861015611cc15750805b601f850160051c820191505b818110156112fd57828155600101611ccd565b815167ffffffffffffffff811115611cfa57611cfa61191f565b611d0e81611d088454611bf2565b84611c9a565b602080601f831160018114611d435760008415611d2b5750858301515b600019600386901b1c1916600185901b1785556112fd565b600085815260208120601f198616915b82811015611d7257888601518255948401946001909101908401611d53565b5085821015611d905787850151600019600388901b60f8161c191681555b5050505050600190811b01905550565b606081526000611db3606083018661172f565b9050611dc260208301856118a0565b6001600160a01b03929092166040919091015292915050565b60008351611ded81846020880161170b565b835190830190611e0181836020880161170b565b01949350505050565b6001600160a01b0385811682528416602082015260408101839052608060608201819052600090611e3d9083018461172f565b9695505050505050565b600060208284031215611e5957600080fd5b8151610eab816116d856fea264697066735822122066bb99710ae4408d5d99cea82c70cb9482fe3aec248c32bfc167d8430f727a5464736f6c63430008140033",
  "linkReferences": {},
  "deployedLinkReferences": {}
}