{
  "_format": "hh-sol-artifact-1",
  "contractName": "UniversalStats",
  "sourceName": "contracts/layer5/UniversalStats.sol",
  "abi": [
    {
      "inputs": [],
      "stateMutability": "nonpayable",
      "type": "constructor"
    },
    {
      "inputs": [],
      "name": "AccessControlBadConfirmation",
      "type": "error"
    },
    {
      "inputs": [
        {
          "internalType": "address",
          "name": "account",
          "type": "address"
        },
        {
          "internalType": "bytes32",
          "name": "neededRole",
          "type": "bytes32"
        }
      ],
      "name": "AccessControlUnauthorizedAccount",
      "type": "error"
    },
    {
      "anonymous": false,
      "inputs": [
        {
          "indexed": true,
          "internalType": "uint256",
          "name": "athleteId",
          "type": "uint256"
        },
        {
          "indexed": false,
          "internalType": "uint256",
          "name": "totalSports",
          "type": "uint256"
        }
      ],
      "name": "CrossSportRecordUpdated",
      "type": "event"
    },
    {
      "anonymous": false,
      "inputs": [
        {
          "indexed": true,
          "internalType": "bytes32",
          "name": "role",
          "type": "bytes32"
        },
        {
          "indexed": true,
          "internalType": "bytes32",
          "name": "previousAdminRole",
          "type": "bytes32"
        },
        {
          "indexed": true,
          "internalType": "bytes32",
          "name": "newAdminRole",
          "type": "bytes32"
        }
      ],
      "name": "RoleAdminChanged",
      "type": "event"
    },
    {
      "anonymous": false,
      "inputs": [
        {
          "indexed": true,
          "internalType": "bytes32",
          "name": "role",
          "type": "bytes32"
        },
        {
          "indexed": true,
          "internalType": "address",
          "name": "account",
          "type": "address"
        },
        {
          "indexed": true,
          "internalType": "address",
          "name": "sender",
          "type": "address"
        }
      ],
      "name": "RoleGranted",
      "type": "event"
    },
    {
      "anonymous": false,
      "inputs": [
        {
          "indexed": true,
          "internalType": "bytes32",
          "name": "role",
          "type": "bytes32"
        },
        {
          "indexed": true,
          "internalType": "address",
          "name": "account",
          "type": "address"
        },
        {
          "indexed": true,
          "internalType": "address",
          "name": "sender",
          "type": "address"
        }
      ],
      "name": "RoleRevoked",
      "type": "event"
    },
    {
      "anonymous": false,
      "inputs": [
        {
          "indexed": true,
          "internalType": "uint256",
          "name": "athleteId",
          "type": "uint256"
        },
        {
          "indexed": false,
          "internalType": "uint256",
          "name": "newRating",
          "type": "uint256"
        }
      ],
      "name": "UniversalRatingUpdated",
      "type": "event"
    },
    {
      "inputs": [],
      "name": "DEFAULT_ADMIN_ROLE",
      "outputs": [
        {
          "internalType": "bytes32",
          "name": "",
          "type": "bytes32"
        }
      ],
      "stateMutability": "view",
      "type": "function"
    },
    {
      "inputs": [],
      "name": "STATS_RECORDER",
      "outputs": [
        {
          "internalType": "bytes32",
          "name": "",
          "type": "bytes32"
        }
      ],
      "stateMutability": "view",
      "type": "function"
    },
    {
      "inputs": [
        {
          "internalType": "uint256",
          "name": "",
          "type": "uint256"
        }
      ],
      "name": "crossSportRecords",
      "outputs": [
        {
          "internalType": "uint256",
          "name": "athleteId",
          "type": "uint256"
        },
        {
          "internalType": "uint256",
          "name": "bestSport",
          "type": "uint256"
        },
        {
          "internalType": "uint256",
          "name": "bestSportRating",
          "type": "uint256"
        },
        {
          "internalType": "uint256",
          "name": "totalGamesPlayed",
          "type": "uint256"
        },
        {
          "internalType": "uint256",
          "name": "crossSportWinRate",
          "type": "uint256"
        }
      ],
      "stateMutability": "view",
      "type": "function"
    },
    {
      "inputs": [
        {
          "internalType": "uint256",
          "name": "athleteId",
          "type": "uint256"
        }
      ],
      "name": "getCrossSportRecord",
      "outputs": [
        {
          "components": [
            {
              "internalType": "uint256",
              "name": "athleteId",
              "type": "uint256"
            },
            {
              "internalType": "uint8[]",
              "name": "sportsCompeted",
              "type": "uint8[]"
            },
            {
              "internalType": "uint256[]",
              "name": "sportsRatings",
              "type": "uint256[]"
            },
            {
              "internalType": "uint256",
              "name": "bestSport",
              "type": "uint256"
            },
            {
              "internalType": "uint256",
              "name": "bestSportRating",
              "type": "uint256"
            },
            {
              "internalType": "uint256",
              "name": "totalGamesPlayed",
              "type": "uint256"
            },
            {
              "internalType": "uint256",
              "name": "crossSportWinRate",
              "type": "uint256"
            }
          ],
          "internalType": "struct UniversalStats.CrossSportRecord",
          "name": "",
          "type": "tuple"
        }
      ],
      "stateMutability": "view",
      "type": "function"
    },
    {
      "inputs": [
        {
          "internalType": "uint256",
          "name": "athleteId",
          "type": "uint256"
        }
      ],
      "name": "getRatingHistory",
      "outputs": [
        {
          "internalType": "uint256[]",
          "name": "",
          "type": "uint256[]"
        }
      ],
      "stateMutability": "view",
      "type": "function"
    },
    {
      "inputs": [
        {
          "internalType": "bytes32",
          "name": "role",
          "type": "bytes32"
        }
      ],
      "name": "getRoleAdmin",
      "outputs": [
        {
          "internalType": "bytes32",
          "name": "",
          "type": "bytes32"
        }
      ],
      "stateMutability": "view",
      "type": "function"
    },
    {
      "inputs": [
        {
          "internalType": "uint256",
          "name": "athleteId",
          "type": "uint256"
        }
      ],
      "name": "getUniversalMetric",
      "outputs": [
        {
          "components": [
            {
              "internalType": "uint256",
              "name": "athleteId",
              "type": "uint256"
            },
            {
              "internalType": "uint256",
              "name": "overallRating",
              "type": "uint256"
            },
            {
              "internalType": "uint256",
              "name": "athleticism",
              "type": "uint256"
            },
            {
              "internalType": "uint256",
              "name": "technicalMastery",
              "type": "uint256"
            },
            {
              "internalType": "uint256",
              "name": "mentalStrength",
              "type": "uint256"
            },
            {
              "internalType": "uint256",
              "name": "competitiveness",
              "type": "uint256"
            },
            {
              "internalType": "uint256",
              "name": "consistency",
              "type": "uint256"
            },
            {
              "internalType": "uint256",
              "name": "peakPerformance",
              "type": "uint256"
            },
            {
              "internalType": "uint256",
              "name": "valueScore",
              "type": "uint256"
            },
            {
              "internalType": "uint256",
              "name": "lastUpdated",
              "type": "uint256"
            }
          ],
          "internalType": "struct UniversalStats.UniversalMetric",
          "name": "",
          "type": "tuple"
        }
      ],
      "stateMutability": "view",
      "type": "function"
    },
    {
      "inputs": [
        {
          "internalType": "bytes32",
          "name": "role",
          "type": "bytes32"
        },
        {
          "internalType": "address",
          "name": "account",
          "type": "address"
        }
      ],
      "name": "grantRole",
      "outputs": [],
      "stateMutability": "nonpayable",
      "type": "function"
    },
    {
      "inputs": [
        {
          "internalType": "bytes32",
          "name": "role",
          "type": "bytes32"
        },
        {
          "internalType": "address",
          "name": "account",
          "type": "address"
        }
      ],
      "name": "hasRole",
      "outputs": [
        {
          "internalType": "bool",
          "name": "",
          "type": "bool"
        }
      ],
      "stateMutability": "view",
      "type": "function"
    },
    {
      "inputs": [
        {
          "internalType": "uint256",
          "name": "",
          "type": "uint256"
        },
        {
          "internalType": "uint256",
          "name": "",
          "type": "uint256"
        }
      ],
      "name": "ratingHistory",
      "outputs": [
        {
          "internalType": "uint256",
          "name": "",
          "type": "uint256"
        }
      ],
      "stateMutability": "view",
      "type": "function"
    },
    {
      "inputs": [
        {
          "internalType": "bytes32",
          "name": "role",
          "type": "bytes32"
        },
        {
          "internalType": "address",
          "name": "callerConfirmation",
          "type": "address"
        }
      ],
      "name": "renounceRole",
      "outputs": [],
      "stateMutability": "nonpayable",
      "type": "function"
    },
    {
      "inputs": [
        {
          "internalType": "bytes32",
          "name": "role",
          "type": "bytes32"
        },
        {
          "internalType": "address",
          "name": "account",
          "type": "address"
        }
      ],
      "name": "revokeRole",
      "outputs": [],
      "stateMutability": "nonpayable",
      "type": "function"
    },
    {
      "inputs": [
        {
          "internalType": "bytes4",
          "name": "interfaceId",
          "type": "bytes4"
        }
      ],
      "name": "supportsInterface",
      "outputs": [
        {
          "internalType": "bool",
          "name": "",
          "type": "bool"
        }
      ],
      "stateMutability": "view",
      "type": "function"
    },
    {
      "inputs": [
        {
          "internalType": "uint256",
          "name": "",
          "type": "uint256"
        }
      ],
      "name": "universalMetrics",
      "outputs": [
        {
          "internalType": "uint256",
          "name": "athleteId",
          "type": "uint256"
        },
        {
          "internalType": "uint256",
          "name": "overallRating",
          "type": "uint256"
        },
        {
          "internalType": "uint256",
          "name": "athleticism",
          "type": "uint256"
        },
        {
          "internalType": "uint256",
          "name": "technicalMastery",
          "type": "uint256"
        },
        {
          "internalType": "uint256",
          "name": "mentalStrength",
          "type": "uint256"
        },
        {
          "internalType": "uint256",
          "name": "competitiveness",
          "type": "uint256"
        },
        {
          "internalType": "uint256",
          "name": "consistency",
          "type": "uint256"
        },
        {
          "internalType": "uint256",
          "name": "peakPerformance",
          "type": "uint256"
        },
        {
          "internalType": "uint256",
          "name": "valueScore",
          "type": "uint256"
        },
        {
          "internalType": "uint256",
          "name": "lastUpdated",
          "type": "uint256"
        }
      ],
      "stateMutability": "view",
      "type": "function"
    },
    {
      "inputs": [
        {
          "internalType": "uint256",
          "name": "athleteId",
          "type": "uint256"
        },
        {
          "internalType": "uint8[]",
          "name": "sports",
          "type": "uint8[]"
        },
        {
          "internalType": "uint256[]",
          "name": "ratings",
          "type": "uint256[]"
        },
        {
          "internalType": "uint256",
          "name": "totalGames",
          "type": "uint256"
        },
        {
          "internalType": "uint256",
          "name": "totalWins",
          "type": "uint256"
        }
      ],
      "name": "updateCrossSportRecord",
      "outputs": [],
      "stateMutability": "nonpayable",
      "type": "function"
    },
    {
      "inputs": [
        {
          "internalType": "uint256",
          "name": "athleteId",
          "type": "uint256"
        },
        {
          "internalType": "uint256",
          "name": "athleticism",
          "type": "uint256"
        },
        {
          "internalType": "uint256",
          "name": "technicalMastery",
          "type": "uint256"
        },
        {
          "internalType": "uint256",
          "name": "mentalStrength",
          "type": "uint256"
        },
        {
          "internalType": "uint256",
          "name": "competitiveness",
          "type": "uint256"
        },
        {
          "internalType": "uint256",
          "name": "consistency",
          "type": "uint256"
        },
        {
          "internalType": "uint256",
          "name": "peakPerformance",
          "type": "uint256"
        },
        {
          "internalType": "uint256",
          "name": "valueScore",
          "type": "uint256"
        }
      ],
      "name": "updateUniversalMetrics",
      "outputs": [],
      "stateMutability": "nonpayable",
      "type": "function"
    }
  ],
  "bytecode": "0x60806040523461002d5761001233610032565b5061001c336100b1565b506040516118b59081620001538239f35b600080fd5b6001600160a01b031660008181527fad3228b676f7d3cd4284a5443f17f1962b36e491b30a40b2405849e597ba5fb5602052604081205490919060ff166100ad57818052816020526040822081835260205260408220600160ff19825416179055339160008051602062001a088339815191528180a4600190565b5090565b6001600160a01b031660008181527f400b2a22e827d234d9ebec05d75c963f9b56c8d80e0c9b0ff698a937005bf2a660205260408120549091907f351c4916193da3d316af1f5f31f8c7df4e39fac6c37ae6f9ae2770380770d93c9060ff1661014d57808352826020526040832082845260205260408320600160ff1982541617905560008051602062001a08833981519152339380a4600190565b50509056fe608080604052600436101561001357600080fd5b60003560e01c90816301ffc9a71461144857508063248a9ca3146114195780632f2ff15d146113e857806336568abe1461138a57806341ef277e146112fa57806343b66a5e146111c55780634e51a0d71461118a5780635578992d14610f165780636262117e146109b45780636628cea8146109485780637d1663c41461090057806386f1d4e6146101c957806391d148541461017b578063a217fddf1461015f578063abc46b6b146101075763d547741f146100cf57600080fd5b34610102576101006100e0366114e6565b908060005260006020526100fb600160406000200154611685565b611755565b005b600080fd5b3461010257602060031936011261010257600435600052600260205260a06040600020805490600381015490600481015460066005830154920154926040519485526020850152604084015260608301526080820152f35b3461010257600060031936011261010257602060405160008152f35b3461010257610189366114e6565b90600052600060205273ffffffffffffffffffffffffffffffffffffffff60406000209116600052602052602060ff604060002054166040519015158152f35b3461010257602060031936011261010257600060c06040516101ea81611536565b82815260606020820152606060408201528260608201528260808201528260a082015201526004356000526002602052604060002060405161022b81611536565b81548152604051918260206001830154948581520193600183016000526020600020906000915b81601f84011061075e579561036f92849260069798549181811061074a575b818110610733575b81811061071c575b818110610705575b8181106106ef575b8181106106d8575b8181106106c1575b8181106106aa575b818110610693575b81811061067c575b818110610665575b81811061064e575b818110610637575b818110610620575b818110610609575b8181106105f2575b8181106105db575b8181106105c4575b8181106105ad575b818110610596575b81811061057f575b818110610568575b818110610551575b81811061053a575b818110610523575b81811061050c575b8181106104f5575b8181106104de575b8181106104c7575b8181106104b0575b818110610499575b1061048b575b500382611552565b60208401526103806002820161182e565b60408401526003810154606084015260048101546080840152600581015460a0840152015460c08201526040516020815261010081018251602083015260208301519060e0604084015281518091526020610120840192019060005b818110610472575050506040830151907fffffffffffffffffffffffffffffffffffffffffffffffffffffffffffffffe08382030160608401526020808351928381520192019060005b81811061045c5750505060c0836060849501516080850152608081015160a085015260a081015182850152015160e08301520390f35b8251845260209384019390920191600101610426565b825160ff168452602093840193909201916001016103dc565b60f81c815260200187610367565b92602060019160ff8560f01c168152019301610361565b92602060019160ff8560e81c168152019301610359565b92602060019160ff8560e01c168152019301610351565b92602060019160ff8560d81c168152019301610349565b92602060019160ff8560d01c168152019301610341565b92602060019160ff8560c81c168152019301610339565b92602060019160ff8560c01c168152019301610331565b92602060019160ff8560b81c168152019301610329565b92602060019160ff8560b01c168152019301610321565b92602060019160ff8560a81c168152019301610319565b92602060019160ff8560a01c168152019301610311565b92602060019160ff8560981c168152019301610309565b92602060019160ff8560901c168152019301610301565b92602060019160ff8560881c1681520193016102f9565b92602060019160ff8560801c1681520193016102f1565b92602060019160ff8560781c1681520193016102e9565b92602060019160ff8560701c1681520193016102e1565b92602060019160ff8560681c1681520193016102d9565b92602060019160ff8560601c1681520193016102d1565b92602060019160ff8560581c1681520193016102c9565b92602060019160ff8560501c1681520193016102c1565b92602060019160ff8560481c1681520193016102b9565b92602060019160ff8560401c1681520193016102b1565b92602060019160ff8560381c1681520193016102a9565b92602060019160ff8560301c1681520193016102a1565b92602060019160ff8560281c168152019301610299565b92602060019160ff85831c168152019301610291565b92602060019160ff8560181c168152019301610289565b92602060019160ff8560101c168152019301610281565b92602060019160ff8560081c168152019301610279565b92602060019160ff85168152019301610271565b956001610400602092895460ff8116825260ff8160081c168583015260ff8160101c16604083015260ff8160181c16606083015260ff81861c16608083015260ff8160281c1660a083015260ff8160301c1660c083015260ff8160381c1660e083015260ff8160401c1661010083015260ff8160481c1661012083015260ff8160501c1661014083015260ff8160581c1661016083015260ff8160601c1661018083015260ff8160681c166101a083015260ff8160701c166101c083015260ff8160781c166101e083015260ff8160801c1661020083015260ff8160881c1661022083015260ff8160901c1661024083015260ff8160981c1661026083015260ff8160a01c1661028083015260ff8160a81c166102a083015260ff8160b01c166102c083015260ff8160b81c166102e083015260ff8160c01c1661030083015260ff8160c81c1661032083015260ff8160d01c1661034083015260ff8160d81c1661036083015260ff8160e01c1661038083015260ff8160e81c166103a083015260ff8160f01c166103c083015260f81c6103e0820152019701920191610252565b346101025760406003193601126101025760243560043560005260036020526040600020805482101561010257602091610939916115ab565b90549060031b1c604051908152f35b34610102576020806003193601126101025760043560005260038152610971604060002061182e565b906040519181839283018184528251809152816040850193019160005b82811061099d57505050500390f35b83518552869550938101939281019260010161098e565b346101025760a06003193601126101025760243567ffffffffffffffff811161010257366023820112156101025780600401356109f081611593565b916109fe6040519384611552565b8183526024602084019260051b8201019036821161010257602401915b818310610efc576044358467ffffffffffffffff8211610102573660238301121561010257816004013591610a4f83611593565b92610a5d6040519485611552565b8084526024602085019160051b8301019136831161010257602401905b828210610eec5750505060843591610a906115f2565b8151815103610e8e5760008060005b8451811015610b3c5782610ab38286611803565b5111610b18575b7fffffffffffffffffffffffffffffffffffffffffffffffffffffffffffffffff8114610ae957600101610a9f565b7f4e487b7100000000000000000000000000000000000000000000000000000000600052601160045260246000fd5b809250610b26915083611803565b519060ff610b348286611803565b511690610aba565b5090846064351580610e845761271091828102928184041490151715610ae957610e55576064359004915b60405193610b7485611536565b600435855285602086015260408501526060840152608083015260643560a083015260c08201526004356000526002602052604060002090805182556020810151805167ffffffffffffffff8111610d0e57680100000000000000008111610d0e57602060018501928354838555808410610deb575b50019160005260206000209060005b8160051c8110610dab57507fffffffffffffffffffffffffffffffffffffffffffffffffffffffffffffffe081168103610d3d575b5050506002820160408201519081519167ffffffffffffffff8311610d0e57680100000000000000008311610d0e576020908254848455808510610cf1575b500190600052602060002060005b838110610cdd578686600660c088606081015160038501556080810151600485015560a081015160058501550151910155516040519081527f48cada1bee321f19226fcbc7f1ec16f9e96a4c5975e540c31c49b5edd58b621f602060043592a2005b600190602084519401938184015501610c7b565b610d08908460005285846000209182019101611817565b87610c6d565b7f4e487b7100000000000000000000000000000000000000000000000000000000600052604160045260246000fd5b60009260005b7fffffffffffffffffffffffffffffffffffffffffffffffffffffffffffffffe0831683038110610d7d57505060051c0155838080610c2e565b90936020610da26001928460ff895116919060ff809160031b9316831b921b19161790565b95019101610d43565b6000805b60208110610dc4575083820155600101610bf9565b855190959160019160209160ff60038a901b81811b199092169216901b1792019501610daf565b610e17908560005283600020601f80870160051c82019281881680610e1d575b500160051c0190611817565b87610bea565b7fffffffffffffffffffffffffffffffffffffffffffffffffffffffffffffffff90818601918254918a0360031b1c1690558c610e0b565b7f4e487b7100000000000000000000000000000000000000000000000000000000600052601260045260246000fd5b5050600091610b67565b60646040517f08c379a000000000000000000000000000000000000000000000000000000000815260206004820152601160248201527f4d69736d617463686564206172726179730000000000000000000000000000006044820152fd5b8135815260209182019101610a7a565b823560ff8116810361010257815260209283019201610a1b565b346101025761010080600319360112610102576004359060248035604435606435916084359460a435610f476115f2565b601983028381046019148415171561115c5760198502908582046019148615171561112e5790610f76916117f6565b60148602908682046014148715171561112e5790610f93916117f6565b600f880290888204600f148915171561112e5790610fb0916117f6565b600f820290828204600f148315171561112e57610fd5600996959493926064926117f6565b049760405196610fe488611519565b8a885260208801958a875260408901958652606089019081526080890191825260a0890192835260c0890193845260e089019460c435865289019560e43587526101208a01974289528d600052600160205260406000209a518b555160018b01555160028a01555160038901555160048801555160058701555160068601555160078501555160088401555191015560036020526040600020805491680100000000000000008310156111015750916110c6827f9f3a357f6b42c09a597903f1d172f612b68821af81a1f0ed38a17db722c5d8089460016020950181556115ab565b81549060031b907fffffffffffffffffffffffffffffffffffffffffffffffffffffffffffffffff84831b921b1916179055604051908152a2005b7f4e487b710000000000000000000000000000000000000000000000000000000060005260416004526000fd5b877f4e487b710000000000000000000000000000000000000000000000000000000060005260116004526000fd5b867f4e487b710000000000000000000000000000000000000000000000000000000060005260116004526000fd5b346101025760006003193601126101025760206040517f351c4916193da3d316af1f5f31f8c7df4e39fac6c37ae6f9ae2770380770d93c8152f35b34610102576020600319360112610102576101406040516111e581611519565b6000815260006020820152600060408201526000606082015260006080820152600060a0820152600060c0820152600060e08201526101009060008282015260006101208092015260043560005260016020526040600020916040519061124b82611519565b83549384835260018101546020840190815260028201546040850190815260038301546060860190815260048401546080870190815260058501549160a0880192835260068601549360c0890194855260078701549560e08a019687528a600960088a0154998b8d019a8b5201549a01998a526040519b8c525160208c01525160408b01525160608a01525160808901525160a08801525160c08701525160e086015251908401525190820152f35b3461010257602060031936011261010257600435600052600160205261014060406000208054906001810154906002810154600382015460048301546005840154906006850154926007860154946009600888015497015497604051998a5260208a015260408901526060880152608087015260a086015260c085015260e0840152610100830152610120820152f35b3461010257611398366114e6565b3373ffffffffffffffffffffffffffffffffffffffff8216036113be5761010091611755565b60046040517f6697b232000000000000000000000000000000000000000000000000000000008152fd5b34610102576101006113f9366114e6565b90806000526000602052611414600160406000200154611685565b6116ab565b346101025760206003193601126101025760043560005260006020526020600160406000200154604051908152f35b3461010257602060031936011261010257600435907fffffffff00000000000000000000000000000000000000000000000000000000821680920361010257817f7965db0b00000000000000000000000000000000000000000000000000000000602093149081156114bc575b5015158152f35b7f01ffc9a700000000000000000000000000000000000000000000000000000000915014836114b5565b6003196040910112610102576004359060243573ffffffffffffffffffffffffffffffffffffffff811681036101025790565b610140810190811067ffffffffffffffff821117610d0e57604052565b60e0810190811067ffffffffffffffff821117610d0e57604052565b90601f7fffffffffffffffffffffffffffffffffffffffffffffffffffffffffffffffe0910116810190811067ffffffffffffffff821117610d0e57604052565b67ffffffffffffffff8111610d0e5760051b60200190565b80548210156115c35760005260206000200190600090565b7f4e487b7100000000000000000000000000000000000000000000000000000000600052603260045260246000fd5b3360009081527f400b2a22e827d234d9ebec05d75c963f9b56c8d80e0c9b0ff698a937005bf2a660205260409020547f351c4916193da3d316af1f5f31f8c7df4e39fac6c37ae6f9ae2770380770d93c9060ff161561164e5750565b604490604051907fe2517d3f0000000000000000000000000000000000000000000000000000000082523360048301526024820152fd5b80600052600060205260406000203360005260205260ff604060002054161561164e5750565b906000918083528260205273ffffffffffffffffffffffffffffffffffffffff6040842092169182845260205260ff604084205416156000146117505780835282602052604083208284526020526040832060017fffffffffffffffffffffffffffffffffffffffffffffffffffffffffffffff008254161790557f2f8788117e7eff1d82e926ec794901d17c78024a50270940304540a733656f0d339380a4600190565b505090565b906000918083528260205273ffffffffffffffffffffffffffffffffffffffff6040842092169182845260205260ff604084205416600014611750578083528260205260408320828452602052604083207fffffffffffffffffffffffffffffffffffffffffffffffffffffffffffffff0081541690557ff6391f5c32d9c69d2a47ea670b442974b53935d1edc7fd64eb21e047a839171b339380a4600190565b91908201809211610ae957565b80518210156115c35760209160051b010190565b818110611822575050565b60008155600101611817565b9060405191828154918282526020928383019160005283600020936000905b8282106118655750505061186392500383611552565b565b85548452600195860195889550938101939091019061184d56fea26469706673582212202c6cf5c27fe71460c1cbb16a7b8ed08970d3caa4b6d69f155c46a1b290dcdc9b64736f6c634300081400332f8788117e7eff1d82e926ec794901d17c78024a50270940304540a733656f0d",
  "linkReferences": {},
  "deployedLinkReferences": {}
}