{
  "_format": "hh-sol-artifact-1",
  "contractName": "ToolMarketplace",
  "sourceName": "contracts/marketplace/ToolMarketplace.sol",
  "abi": [
    {
      "inputs": [],
      "stateMutability": "nonpayable",
      "type": "constructor"
    },
    {
      "inputs": [
        {
          "internalType": "address",
          "name": "owner",
          "type": "address"
        }
      ],
      "name": "OwnableInvalidOwner",
      "type": "error"
    },
    {
      "inputs": [
        {
          "internalType": "address",
          "name": "account",
          "type": "address"
        }
      ],
      "name": "OwnableUnauthorizedAccount",
      "type": "error"
    },
    {
      "inputs": [],
      "name": "ReentrancyGuardReentrantCall",
      "type": "error"
    },
    {
      "anonymous": false,
      "inputs": [
        {
          "indexed": true,
          "internalType": "address",
          "name": "previousOwner",
          "type": "address"
        },
        {
          "indexed": true,
          "internalType": "address",
          "name": "newOwner",
          "type": "address"
        }
      ],
      "name": "OwnershipTransferred",
      "type": "event"
    },
    {
      "anonymous": false,
      "inputs": [
        {
          "indexed": true,
          "internalType": "uint256",
          "name": "toolId",
          "type": "uint256"
        },
        {
          "indexed": false,
          "internalType": "string",
          "name": "name",
          "type": "string"
        },
        {
          "indexed": true,
          "internalType": "address",
          "name": "creator",
          "type": "address"
        },
        {
          "indexed": false,
          "internalType": "uint256",
          "name": "price",
          "type": "uint256"
        }
      ],
      "name": "ToolCreated",
      "type": "event"
    },
    {
      "anonymous": false,
      "inputs": [
        {
          "indexed": true,
          "internalType": "uint256",
          "name": "toolId",
          "type": "uint256"
        }
      ],
      "name": "ToolDeactivated",
      "type": "event"
    },
    {
      "anonymous": false,
      "inputs": [
        {
          "indexed": true,
          "internalType": "uint256",
          "name": "listingId",
          "type": "uint256"
        },
        {
          "indexed": true,
          "internalType": "uint256",
          "name": "toolId",
          "type": "uint256"
        },
        {
          "indexed": true,
          "internalType": "address",
          "name": "seller",
          "type": "address"
        },
        {
          "indexed": false,
          "internalType": "uint256",
          "name": "price",
          "type": "uint256"
        }
      ],
      "name": "ToolListed",
      "type": "event"
    },
    {
      "anonymous": false,
      "inputs": [
        {
          "indexed": true,
          "internalType": "uint256",
          "name": "listingId",
          "type": "uint256"
        },
        {
          "indexed": true,
          "internalType": "uint256",
          "name": "toolId",
          "type": "uint256"
        },
        {
          "indexed": true,
          "internalType": "address",
          "name": "buyer",
          "type": "address"
        },
        {
          "indexed": false,
          "internalType": "uint256",
          "name": "price",
          "type": "uint256"
        }
      ],
      "name": "ToolSold",
      "type": "event"
    },
    {
      "inputs": [],
      "name": "FEE_DENOMINATOR",
      "outputs": [
        {
          "internalType": "uint256",
          "name": "",
          "type": "uint256"
        }
      ],
      "stateMutability": "view",
      "type": "function"
    },
    {
      "inputs": [
        {
          "internalType": "uint256",
          "name": "listingId",
          "type": "uint256"
        }
      ],
      "name": "buyTool",
      "outputs": [],
      "stateMutability": "payable",
      "type": "function"
    },
    {
      "inputs": [
        {
          "internalType": "string",
          "name": "name",
          "type": "string"
        },
        {
          "internalType": "string",
          "name": "description",
          "type": "string"
        },
        {
          "internalType": "uint256",
          "name": "price",
          "type": "uint256"
        }
      ],
      "name": "createTool",
      "outputs": [
        {
          "internalType": "uint256",
          "name": "",
          "type": "uint256"
        }
      ],
      "stateMutability": "nonpayable",
      "type": "function"
    },
    {
      "inputs": [
        {
          "internalType": "uint256",
          "name": "listingId",
          "type": "uint256"
        }
      ],
      "name": "getListing",
      "outputs": [
        {
          "components": [
            {
              "internalType": "uint256",
              "name": "toolId",
              "type": "uint256"
            },
            {
              "internalType": "address",
              "name": "seller",
              "type": "address"
            },
            {
              "internalType": "uint256",
              "name": "price",
              "type": "uint256"
            },
            {
              "internalType": "bool",
              "name": "active",
              "type": "bool"
            }
          ],
          "internalType": "struct ToolMarketplace.Listing",
          "name": "",
          "type": "tuple"
        }
      ],
      "stateMutability": "view",
      "type": "function"
    },
    {
      "inputs": [
        {
          "internalType": "uint256",
          "name": "toolId",
          "type": "uint256"
        }
      ],
      "name": "getTool",
      "outputs": [
        {
          "components": [
            {
              "internalType": "string",
              "name": "name",
              "type": "string"
            },
            {
              "internalType": "string",
              "name": "description",
              "type": "string"
            },
            {
              "internalType": "address",
              "name": "creator",
              "type": "address"
            },
            {
              "internalType": "uint256",
              "name": "price",
              "type": "uint256"
            },
            {
              "internalType": "bool",
              "name": "active",
              "type": "bool"
            },
            {
              "internalType": "uint256",
              "name": "totalSales",
              "type": "uint256"
            },
            {
              "internalType": "uint256",
              "name": "createdAt",
              "type": "uint256"
            }
          ],
          "internalType": "struct ToolMarketplace.Tool",
          "name": "",
          "type": "tuple"
        }
      ],
      "stateMutability": "view",
      "type": "function"
    },
    {
      "inputs": [
        {
          "internalType": "address",
          "name": "owner",
          "type": "address"
        },
        {
          "internalType": "uint256",
          "name": "toolId",
          "type": "uint256"
        }
      ],
      "name": "hasTool",
      "outputs": [
        {
          "internalType": "bool",
          "name": "",
          "type": "bool"
        }
      ],
      "stateMutability": "view",
      "type": "function"
    },
    {
      "inputs": [
        {
          "internalType": "uint256",
          "name": "toolId",
          "type": "uint256"
        },
        {
          "internalType": "uint256",
          "name": "price",
          "type": "uint256"
        }
      ],
      "name": "listTool",
      "outputs": [
        {
          "internalType": "uint256",
          "name": "",
          "type": "uint256"
        }
      ],
      "stateMutability": "nonpayable",
      "type": "function"
    },
    {
      "inputs": [
        {
          "internalType": "uint256",
          "name": "",
          "type": "uint256"
        }
      ],
      "name": "listings",
      "outputs": [
        {
          "internalType": "uint256",
          "name": "toolId",
          "type": "uint256"
        },
        {
          "internalType": "address",
          "name": "seller",
          "type": "address"
        },
        {
          "internalType": "uint256",
          "name": "price",
          "type": "uint256"
        },
        {
          "internalType": "bool",
          "name": "active",
          "type": "bool"
        }
      ],
      "stateMutability": "view",
      "type": "function"
    },
    {
      "inputs": [],
      "name": "owner",
      "outputs": [
        {
          "internalType": "address",
          "name": "",
          "type": "address"
        }
      ],
      "stateMutability": "view",
      "type": "function"
    },
    {
      "inputs": [
        {
          "internalType": "address",
          "name": "",
          "type": "address"
        },
        {
          "internalType": "uint256",
          "name": "",
          "type": "uint256"
        }
      ],
      "name": "ownership",
      "outputs": [
        {
          "internalType": "bool",
          "name": "",
          "type": "bool"
        }
      ],
      "stateMutability": "view",
      "type": "function"
    },
    {
      "inputs": [],
      "name": "platformFee",
      "outputs": [
        {
          "internalType": "uint256",
          "name": "",
          "type": "uint256"
        }
      ],
      "stateMutability": "view",
      "type": "function"
    },
    {
      "inputs": [],
      "name": "renounceOwnership",
      "outputs": [],
      "stateMutability": "nonpayable",
      "type": "function"
    },
    {
      "inputs": [
        {
          "internalType": "uint256",
          "name": "",
          "type": "uint256"
        }
      ],
      "name": "tools",
      "outputs": [
        {
          "internalType": "string",
          "name": "name",
          "type": "string"
        },
        {
          "internalType": "string",
          "name": "description",
          "type": "string"
        },
        {
          "internalType": "address",
          "name": "creator",
          "type": "address"
        },
        {
          "internalType": "uint256",
          "name": "price",
          "type": "uint256"
        },
        {
          "internalType": "bool",
          "name": "active",
          "type": "bool"
        },
        {
          "internalType": "uint256",
          "name": "totalSales",
          "type": "uint256"
        },
        {
          "internalType": "uint256",
          "name": "createdAt",
          "type": "uint256"
        }
      ],
      "stateMutability": "view",
      "type": "function"
    },
    {
      "inputs": [
        {
          "internalType": "address",
          "name": "newOwner",
          "type": "address"
        }
      ],
      "name": "transferOwnership",
      "outputs": [],
      "stateMutability": "nonpayable",
      "type": "function"
    },
    {
      "inputs": [],
      "name": "withdrawFees",
      "outputs": [],
      "stateMutability": "nonpayable",
      "type": "function"
    }
  ],
  "bytecode": "0x60806040526001600555600160065560fa60075534801561001f57600080fd5b50338061004657604051631e4fbdf760e01b81526000600482015260240160405180910390fd5b61004f81610059565b50600180556100a9565b600080546001600160a01b038381166001600160a01b0319831681178455604051919092169283917f8be0079c531659141344cd1fd0a4f28419497f9722a3daafe3b4186f6b6457e09190a35050565b611299806100b86000396000f3fe6080604052600436106100e85760003560e01c8063bc60c31d1161008a578063de74e57b11610059578063de74e57b14610304578063e92d90fa1461037e578063ee9bfc8c146103d4578063f2fde38b1461040f57600080fd5b8063bc60c31d1461026e578063d285af53146102a1578063d7186b79146102ce578063d73792a9146102ee57600080fd5b80634c77e1cb116100c65780634c77e1cb146101fe578063715018a61461021157806384fe0977146102265780638da5cb5b1461024657600080fd5b8063107a274a146100ed57806326232a2e146101c3578063476343ee146101e7575b600080fd5b3480156100f957600080fd5b5061017c610108366004610da8565b6040805160808101825260008082526020820181905291810182905260608101919091525060009081526003602081815260409283902083516080810185528154815260018201546001600160a01b03169281019290925260028101549382019390935291015460ff161515606082015290565b6040516101ba9190815181526020808301516001600160a01b0316908201526040808301519082015260609182015115159181019190915260800190565b60405180910390f35b3480156101cf57600080fd5b506101d960075481565b6040519081526020016101ba565b3480156101f357600080fd5b506101fc61042f565b005b6101fc61020c366004610da8565b610474565b34801561021d57600080fd5b506101fc6106c8565b34801561023257600080fd5b506101d9610241366004610e64565b6106dc565b34801561025257600080fd5b506000546040516001600160a01b0390911681526020016101ba565b34801561027a57600080fd5b5061028e610289366004610da8565b610829565b6040516101ba9796959493929190610f17565b3480156102ad57600080fd5b506102c16102bc366004610da8565b610981565b6040516101ba9190610f70565b3480156102da57600080fd5b506101d96102e9366004610ff3565b610b4f565b3480156102fa57600080fd5b506101d961271081565b34801561031057600080fd5b5061035461031f366004610da8565b6003602081905260009182526040909120805460018201546002830154929093015490926001600160a01b0316919060ff1684565b604080519485526001600160a01b03909316602085015291830152151560608201526080016101ba565b34801561038a57600080fd5b506103c4610399366004611031565b6001600160a01b03919091166000908152600460209081526040808320938352929052205460ff1690565b60405190151581526020016101ba565b3480156103e057600080fd5b506103c46103ef366004611031565b600460209081526000928352604080842090915290825290205460ff1681565b34801561041b57600080fd5b506101fc61042a36600461105b565b610cc6565b610437610d01565b600080546040516001600160a01b03909116914780156108fc02929091818181858888f19350505050158015610471573d6000803e3d6000fd5b50565b61047c610d2e565b60008181526003602081905260409091209081015460ff166104d85760405162461bcd60e51b815260206004820152601060248201526f4c697374696e6720696e61637469766560801b60448201526064015b60405180910390fd5b80600201543410156105235760405162461bcd60e51b8152602060048201526014602482015273125b9cdd59999a58da595b9d081c185e5b595b9d60621b60448201526064016104cf565b80546000908152600260205260409020600481015460ff166105775760405162461bcd60e51b815260206004820152600d60248201526c546f6f6c20696e61637469766560981b60448201526064016104cf565b6000612710600754846002015461058e9190611093565b61059891906110aa565b905060008184600201546105ac91906110cc565b60018501546040519192506001600160a01b03169082156108fc029083906000818181858888f193505050501580156105e9573d6000803e3d6000fd5b50336000908152600460209081526040808320875484529091528120805460ff1916600117905560058401805491610620836110df565b909155505060038401805460ff19169055600284015434111561067c57600284015433906108fc9061065290346110cc565b6040518115909202916000818181858888f1935050505015801561067a573d6000803e3d6000fd5b505b8354600285015460405190815233919087907f02935701904fe1b59145226aeba546c7de39f9f731d5cb347232d6f81cb4191b9060200160405180910390a45050505061047160018055565b6106d0610d01565b6106da6000610d58565b565b60058054600091829190826106f0836110df565b909155506040805160e081018252878152602080820188905233828401526060820187905260016080830152600060a083018190524260c084015284815260029091529190912081519293509091819061074a9082611181565b506020820151600182019061075f9082611181565b506040828101516002830180546001600160a01b039092166001600160a01b03199092169190911790556060830151600383015560808301516004808401805492151560ff1993841617905560a0850151600585015560c09094015160069093019290925533600081815260209485528281208682529094529281902080549092166001179091555182907f16f6835b349c525397cc01057219d4cd0b7c22659a3845dc56b20f61c49428f2906108199089908890611241565b60405180910390a3949350505050565b600260205260009081526040902080548190610844906110f8565b80601f0160208091040260200160405190810160405280929190818152602001828054610870906110f8565b80156108bd5780601f10610892576101008083540402835291602001916108bd565b820191906000526020600020905b8154815290600101906020018083116108a057829003601f168201915b5050505050908060010180546108d2906110f8565b80601f01602080910402602001604051908101604052809291908181526020018280546108fe906110f8565b801561094b5780601f106109205761010080835404028352916020019161094b565b820191906000526020600020905b81548152906001019060200180831161092e57829003601f168201915b505050600284015460038501546004860154600587015460069097015495966001600160a01b039093169591945060ff16925087565b6109cc6040518060e00160405280606081526020016060815260200160006001600160a01b031681526020016000815260200160001515815260200160008152602001600081525090565b60008281526002602052604090819020815160e081019092528054829082906109f4906110f8565b80601f0160208091040260200160405190810160405280929190818152602001828054610a20906110f8565b8015610a6d5780601f10610a4257610100808354040283529160200191610a6d565b820191906000526020600020905b815481529060010190602001808311610a5057829003601f168201915b50505050508152602001600182018054610a86906110f8565b80601f0160208091040260200160405190810160405280929190818152602001828054610ab2906110f8565b8015610aff5780601f10610ad457610100808354040283529160200191610aff565b820191906000526020600020905b815481529060010190602001808311610ae257829003601f168201915b505050918352505060028201546001600160a01b0316602082015260038201546040820152600482015460ff16151560608201526005820154608082015260069091015460a09091015292915050565b33600090815260046020908152604080832085845290915281205460ff16610baa5760405162461bcd60e51b815260206004820152600e60248201526d2737ba103a37b7b61037bbb732b960911b60448201526064016104cf565b60008381526002602052604090206004015460ff16610bfb5760405162461bcd60e51b815260206004820152600d60248201526c546f6f6c20696e61637469766560981b60448201526064016104cf565b6006805460009182610c0c836110df565b9091555060408051608081018252868152336020808301828152838501898152600160608601818152600089815260038087529089902097518855935191870180546001600160a01b0319166001600160a01b039093169290921790915590516002860155519301805460ff19169315159390931790925591518681529293509091869184917f7bad7bf0871ebfcdf934c1acc07343b65911c1add551681f546f1a0bfc783a03910160405180910390a490505b92915050565b610cce610d01565b6001600160a01b038116610cf857604051631e4fbdf760e01b8152600060048201526024016104cf565b61047181610d58565b6000546001600160a01b031633146106da5760405163118cdaa760e01b81523360048201526024016104cf565b600260015403610d5157604051633ee5aeb560e01b815260040160405180910390fd5b6002600155565b600080546001600160a01b038381166001600160a01b0319831681178455604051919092169283917f8be0079c531659141344cd1fd0a4f28419497f9722a3daafe3b4186f6b6457e09190a35050565b600060208284031215610dba57600080fd5b5035919050565b634e487b7160e01b600052604160045260246000fd5b600082601f830112610de857600080fd5b813567ffffffffffffffff80821115610e0357610e03610dc1565b604051601f8301601f19908116603f01168101908282118183101715610e2b57610e2b610dc1565b81604052838152866020858801011115610e4457600080fd5b836020870160208301376000602085830101528094505050505092915050565b600080600060608486031215610e7957600080fd5b833567ffffffffffffffff80821115610e9157600080fd5b610e9d87838801610dd7565b94506020860135915080821115610eb357600080fd5b50610ec086828701610dd7565b925050604084013590509250925092565b6000815180845260005b81811015610ef757602081850181015186830182015201610edb565b506000602082860101526020601f19601f83011685010191505092915050565b60e081526000610f2a60e083018a610ed1565b8281036020840152610f3c818a610ed1565b6001600160a01b0398909816604084015250506060810194909452911515608084015260a083015260c09091015292915050565b602081526000825160e06020840152610f8d610100840182610ed1565b90506020840151601f19848303016040850152610faa8282610ed1565b91505060018060a01b036040850151166060840152606084015160808401526080840151151560a084015260a084015160c084015260c084015160e08401528091505092915050565b6000806040838503121561100657600080fd5b50508035926020909101359150565b80356001600160a01b038116811461102c57600080fd5b919050565b6000806040838503121561104457600080fd5b61104d83611015565b946020939093013593505050565b60006020828403121561106d57600080fd5b61107682611015565b9392505050565b634e487b7160e01b600052601160045260246000fd5b8082028115828204841417610cc057610cc061107d565b6000826110c757634e487b7160e01b600052601260045260246000fd5b500490565b81810381811115610cc057610cc061107d565b6000600182016110f1576110f161107d565b5060010190565b600181811c9082168061110c57607f821691505b60208210810361112c57634e487b7160e01b600052602260045260246000fd5b50919050565b601f82111561117c57600081815260208120601f850160051c810160208610156111595750805b601f850160051c820191505b8181101561117857828155600101611165565b5050505b505050565b815167ffffffffffffffff81111561119b5761119b610dc1565b6111af816111a984546110f8565b84611132565b602080601f8311600181146111e457600084156111cc5750858301515b600019600386901b1c1916600185901b178555611178565b600085815260208120601f198616915b82811015611213578886015182559484019460019091019084016111f4565b50858210156112315787850151600019600388901b60f8161c191681555b5050505050600190811b01905550565b6040815260006112546040830185610ed1565b9050826020830152939250505056fea2646970667358221220f36a88d49cfb0dee4715e4e310a4e199f07d80ba9ab7358df51263bfa02162d164736f6c63430008140033",
  "linkReferences": {},
  "deployedLinkReferences": {}
}