{
  "_format": "hh-sol-artifact-1",
  "contractName": "EntitySpawning",
  "sourceName": "contracts/core/EntitySpawning.sol",
  "abi": [
    {
      "inputs": [],
      "stateMutability": "nonpayable",
      "type": "constructor"
    },
    {
      "inputs": [
        {
          "internalType": "address",
          "name": "owner",
          "type": "address"
        }
      ],
      "name": "OwnableInvalidOwner",
      "type": "error"
    },
    {
      "inputs": [
        {
          "internalType": "address",
          "name": "account",
          "type": "address"
        }
      ],
      "name": "OwnableUnauthorizedAccount",
      "type": "error"
    },
    {
      "anonymous": false,
      "inputs": [
        {
          "indexed": true,
          "internalType": "uint256",
          "name": "parentId",
          "type": "uint256"
        },
        {
          "indexed": true,
          "internalType": "uint256",
          "name": "childId",
          "type": "uint256"
        },
        {
          "indexed": false,
          "internalType": "uint256",
          "name": "generation",
          "type": "uint256"
        },
        {
          "indexed": true,
          "internalType": "address",
          "name": "spawner",
          "type": "address"
        }
      ],
      "name": "EntitySpawned",
      "type": "event"
    },
    {
      "anonymous": false,
      "inputs": [
        {
          "indexed": true,
          "internalType": "address",
          "name": "previousOwner",
          "type": "address"
        },
        {
          "indexed": true,
          "internalType": "address",
          "name": "newOwner",
          "type": "address"
        }
      ],
      "name": "OwnershipTransferred",
      "type": "event"
    },
    {
      "anonymous": false,
      "inputs": [
        {
          "indexed": false,
          "internalType": "uint256",
          "name": "tier",
          "type": "uint256"
        },
        {
          "indexed": false,
          "internalType": "uint256",
          "name": "energyCost",
          "type": "uint256"
        },
        {
          "indexed": false,
          "internalType": "int256",
          "name": "minReputation",
          "type": "int256"
        }
      ],
      "name": "SpawnTierConfigured",
      "type": "event"
    },
    {
      "inputs": [],
      "name": "BASE_COOLDOWN",
      "outputs": [
        {
          "internalType": "uint256",
          "name": "",
          "type": "uint256"
        }
      ],
      "stateMutability": "view",
      "type": "function"
    },
    {
      "inputs": [],
      "name": "BASE_ENERGY_COST",
      "outputs": [
        {
          "internalType": "uint256",
          "name": "",
          "type": "uint256"
        }
      ],
      "stateMutability": "view",
      "type": "function"
    },
    {
      "inputs": [
        {
          "internalType": "uint256",
          "name": "parentId",
          "type": "uint256"
        },
        {
          "internalType": "uint256",
          "name": "generation",
          "type": "uint256"
        },
        {
          "internalType": "int256",
          "name": "reputation",
          "type": "int256"
        },
        {
          "internalType": "uint256",
          "name": "energy",
          "type": "uint256"
        }
      ],
      "name": "canSpawn",
      "outputs": [
        {
          "internalType": "bool",
          "name": "",
          "type": "bool"
        },
        {
          "internalType": "string",
          "name": "",
          "type": "string"
        }
      ],
      "stateMutability": "view",
      "type": "function"
    },
    {
      "inputs": [
        {
          "internalType": "uint256",
          "name": "tier",
          "type": "uint256"
        },
        {
          "internalType": "uint256",
          "name": "energyCost",
          "type": "uint256"
        },
        {
          "internalType": "uint256",
          "name": "cooldownBlocks",
          "type": "uint256"
        },
        {
          "internalType": "int256",
          "name": "minReputation",
          "type": "int256"
        },
        {
          "internalType": "bool",
          "name": "requiresParent",
          "type": "bool"
        }
      ],
      "name": "configureSpawnTier",
      "outputs": [],
      "stateMutability": "nonpayable",
      "type": "function"
    },
    {
      "inputs": [
        {
          "internalType": "uint256",
          "name": "generation",
          "type": "uint256"
        }
      ],
      "name": "getSpawnCost",
      "outputs": [
        {
          "internalType": "uint256",
          "name": "",
          "type": "uint256"
        }
      ],
      "stateMutability": "view",
      "type": "function"
    },
    {
      "inputs": [
        {
          "internalType": "uint256",
          "name": "parentId",
          "type": "uint256"
        }
      ],
      "name": "getSpawnHistory",
      "outputs": [
        {
          "components": [
            {
              "internalType": "uint256",
              "name": "parentId",
              "type": "uint256"
            },
            {
              "internalType": "uint256",
              "name": "childId",
              "type": "uint256"
            },
            {
              "internalType": "address",
              "name": "spawner",
              "type": "address"
            },
            {
              "internalType": "uint256",
              "name": "spawnedAt",
              "type": "uint256"
            },
            {
              "internalType": "uint256",
              "name": "generation",
              "type": "uint256"
            }
          ],
          "internalType": "struct EntitySpawning.SpawnRecord[]",
          "name": "",
          "type": "tuple[]"
        }
      ],
      "stateMutability": "view",
      "type": "function"
    },
    {
      "inputs": [
        {
          "internalType": "uint256",
          "name": "generation",
          "type": "uint256"
        }
      ],
      "name": "getSpawnRequirements",
      "outputs": [
        {
          "components": [
            {
              "internalType": "uint256",
              "name": "energyCost",
              "type": "uint256"
            },
            {
              "internalType": "uint256",
              "name": "cooldownBlocks",
              "type": "uint256"
            },
            {
              "internalType": "int256",
              "name": "minReputationRequired",
              "type": "int256"
            },
            {
              "internalType": "bool",
              "name": "requiresParent",
              "type": "bool"
            },
            {
              "internalType": "bool",
              "name": "enabled",
              "type": "bool"
            }
          ],
          "internalType": "struct EntitySpawning.SpawnConfig",
          "name": "",
          "type": "tuple"
        }
      ],
      "stateMutability": "view",
      "type": "function"
    },
    {
      "inputs": [
        {
          "internalType": "uint256",
          "name": "",
          "type": "uint256"
        }
      ],
      "name": "lastSpawnBlock",
      "outputs": [
        {
          "internalType": "uint256",
          "name": "",
          "type": "uint256"
        }
      ],
      "stateMutability": "view",
      "type": "function"
    },
    {
      "inputs": [],
      "name": "owner",
      "outputs": [
        {
          "internalType": "address",
          "name": "",
          "type": "address"
        }
      ],
      "stateMutability": "view",
      "type": "function"
    },
    {
      "inputs": [
        {
          "internalType": "uint256",
          "name": "parentId",
          "type": "uint256"
        },
        {
          "internalType": "uint256",
          "name": "childId",
          "type": "uint256"
        },
        {
          "internalType": "address",
          "name": "spawner",
          "type": "address"
        },
        {
          "internalType": "uint256",
          "name": "generation",
          "type": "uint256"
        }
      ],
      "name": "recordSpawn",
      "outputs": [],
      "stateMutability": "nonpayable",
      "type": "function"
    },
    {
      "inputs": [],
      "name": "renounceOwnership",
      "outputs": [],
      "stateMutability": "nonpayable",
      "type": "function"
    },
    {
      "inputs": [
        {
          "internalType": "uint256",
          "name": "",
          "type": "uint256"
        },
        {
          "internalType": "uint256",
          "name": "",
          "type": "uint256"
        }
      ],
      "name": "spawnHistory",
      "outputs": [
        {
          "internalType": "uint256",
          "name": "parentId",
          "type": "uint256"
        },
        {
          "internalType": "uint256",
          "name": "childId",
          "type": "uint256"
        },
        {
          "internalType": "address",
          "name": "spawner",
          "type": "address"
        },
        {
          "internalType": "uint256",
          "name": "spawnedAt",
          "type": "uint256"
        },
        {
          "internalType": "uint256",
          "name": "generation",
          "type": "uint256"
        }
      ],
      "stateMutability": "view",
      "type": "function"
    },
    {
      "inputs": [
        {
          "internalType": "uint256",
          "name": "",
          "type": "uint256"
        }
      ],
      "name": "spawnTiers",
      "outputs": [
        {
          "internalType": "uint256",
          "name": "energyCost",
          "type": "uint256"
        },
        {
          "internalType": "uint256",
          "name": "cooldownBlocks",
          "type": "uint256"
        },
        {
          "internalType": "int256",
          "name": "minReputationRequired",
          "type": "int256"
        },
        {
          "internalType": "bool",
          "name": "requiresParent",
          "type": "bool"
        },
        {
          "internalType": "bool",
          "name": "enabled",
          "type": "bool"
        }
      ],
      "stateMutability": "view",
      "type": "function"
    },
    {
      "inputs": [],
      "name": "totalSpawns",
      "outputs": [
        {
          "internalType": "uint256",
          "name": "",
          "type": "uint256"
        }
      ],
      "stateMutability": "view",
      "type": "function"
    },
    {
      "inputs": [
        {
          "internalType": "address",
          "name": "newOwner",
          "type": "address"
        }
      ],
      "name": "transferOwnership",
      "outputs": [],
      "stateMutability": "nonpayable",
      "type": "function"
    }
  ],
  "bytecode": "0x6080604090808252346101a557331561018f575060008054336001600160a01b0319821681178355906001600160a01b03167f8be0079c531659141344cd1fd0a4f28419497f9722a3daafe3b4186f6b6457e08380a361005d6101aa565b6014815260208082016064815260ff6003868501928684528160608701968888526080810195600193848852848b528489528b8b2092518355518483015551600282015501955115159580549661ff009788965115158661ffff1998899260081b1693169116171790556100cf6101aa565b601e815285810160968152838a830192600a84526060810193858552608082019386855260028d52868b528d8d2092518355518683015551600282015501915115159086868a85549351151560081b16931691161717905561012f6101aa565b90602882528582019060c8825289830191601983528a606085019a838c5283608087019a818c52888352522093518455519083015551600282015501945115159385549351151560081b16931691161717905551610cf790816101e08239f35b631e4fbdf760e01b815260006004820152602490fd5b600080fd5b6040519060a082016001600160401b038111838210176101c957604052565b634e487b7160e01b600052604160045260246000fdfe6040608081526004908136101561001557600080fd5b600091823560e01c90816303f3fc5a146109095781634b555a3c146108875781634c17cdee1461086b578163685077fa146106a75781636f9add9f14610689578163715018a6146106085781637b245a1e146105ac57816383c5868c1461058457816389187ace1461055c5781638da5cb5b14610529578163999270fa146104385781639f612e861461025f578163b0f67bf5146101b5578163f2fde38b146100e6575063f7185cfb146100c857600080fd5b346100e257816003193601126100e2576020905160648152f35b5080fd5b919050346101b15760206003193601126101b15781359173ffffffffffffffffffffffffffffffffffffffff918284168094036101ad576101256109ef565b831561017e5750508254827fffffffffffffffffffffffff00000000000000000000000000000000000000008216178455167f8be0079c531659141344cd1fd0a4f28419497f9722a3daafe3b4186f6b6457e08380a380f35b908460249251917f1e4fbdf7000000000000000000000000000000000000000000000000000000008352820152fd5b8480fd5b8280fd5b9050346101b15760206003193601126101b15782829160a09460806101d8610a40565b828152826020820152828682015282606082015201523581526001602052206101ff610a40565b81549283825260018301549260208301938452600360028201549183850192835201549360ff6080606086019582881615158752019560081c16151585528251958652516020860152519084015251151560608301525115156080820152f35b9050346101b15760806003193601126101b1578035602435916044359373ffffffffffffffffffffffffffffffffffffffff91828616809603610434576064359284885260026020528288206102b3610a40565b918683526020830190888252858401908a8252606085019242845260808601948986528054906801000000000000000082101561040857906102fa916001820181556109a4565b9690966103dd5790879594939291518755516001870155600286019151167fffffffffffffffffffffffff0000000000000000000000000000000000000000825416179055516003840155519101558387526003602052438288205580547fffffffffffffffffffffffffffffffffffffffffffffffffffffffffffffffff81146103b1576001019055519081527f46ed25f71c8144a3fd2767bdafd33dfc92d487d85d18c35cb643a7a0f7fa497f90602090a480f35b6024886011847f4e487b7100000000000000000000000000000000000000000000000000000000835252fd5b60248e808a7f4e487b7100000000000000000000000000000000000000000000000000000000825252fd5b60248f60418b7f4e487b7100000000000000000000000000000000000000000000000000000000835252fd5b8680fd5b9050346101b15760a06003193601126101b15735906024359160643560843592831515809403610525577fc259c06d85fe3820d7cee0ab683bab3dd352c5111d770f2db60db66cbd75ccba9460609461048f6109ef565b610497610a40565b828152600360208201916044358352858101878152898201948552608082019360018552898d526001602052878d20925183555160018301555160028201550191511515907fffffffffffffffffffffffffffffffffffffffffffffffffffffffffffff000060ff61ff0085549351151560081b16931691161717905581519384526020840152820152a180f35b8580fd5b5050346100e257816003193601126100e25773ffffffffffffffffffffffffffffffffffffffff60209254169051908152f35b9050346101b15760206003193601126101b15760209282913581526003845220549051908152f35b9050346101b15760206003193601126101b15760209282913581526001845220549051908152f35b9050346101b15760206003193601126101b1578160a09360ff92358152600160205220918254926001810154916003600283015492015492815195865260208601528401528181161515606084015260081c1615156080820152f35b83346106865780600319360112610686576106216109ef565b8073ffffffffffffffffffffffffffffffffffffffff81547fffffffffffffffffffffffff000000000000000000000000000000000000000081168355167f8be0079c531659141344cd1fd0a4f28419497f9722a3daafe3b4186f6b6457e08280a380f35b80fd5b9050346101b157826003193601126101b15760209250549051908152f35b839150346100e2576020806003193601126101b157813583526002908181528484209283549067ffffffffffffffff9081831161083f5787519460059284841b603f017fffffffffffffffffffffffffffffffffffffffffffffffffffffffffffffffe0168701908111878210176108135789989695989291925283855287850191829787528887209187935b8b8786106107b15780518c81528951818e01819052818301908d908f8e5b82811061075f5785850386f35b83518051865280830151868401528781015173ffffffffffffffffffffffffffffffffffffffff1688870152606080820151908701526080908101519086015260a09094019392810192600101610752565b8b60019288926107c39e9b9c9e610a40565b9088548252858901548483015273ffffffffffffffffffffffffffffffffffffffff888a015416908201526003880154606082015285880154608082015281520194019401939299979699610734565b6024896041857f4e487b7100000000000000000000000000000000000000000000000000000000835252fd5b8660416024927f4e487b7100000000000000000000000000000000000000000000000000000000835252fd5b5050346100e257816003193601126100e2576020905160148152f35b919050346101b157806003193601126101b15760243592823581526002602052818120908154851015610686575060a0936108c1916109a4565b5080549260018201549273ffffffffffffffffffffffffffffffffffffffff600284015416916003840154930154938151958652602086015284015260608301526080820152f35b9050346101b15760806003193601126101b1576109329060643590604435906024359035610aaf565b92825193849215158352602090848285015280518095850152825b85811061098d57505050601f837fffffffffffffffffffffffffffffffffffffffffffffffffffffffffffffffe092606080968601015201168101030190f35b81810183015187820160600152869450820161094d565b80548210156109c0576000526005602060002091020190600090565b7f4e487b7100000000000000000000000000000000000000000000000000000000600052603260045260246000fd5b73ffffffffffffffffffffffffffffffffffffffff600054163303610a1057565b60246040517f118cdaa7000000000000000000000000000000000000000000000000000000008152336004820152fd5b6040519060a0820182811067ffffffffffffffff821117610a6057604052565b7f4e487b7100000000000000000000000000000000000000000000000000000000600052604160045260246000fd5b604051906040820182811067ffffffffffffffff821117610a6057604052565b9392939190916000928352602094600186526040842092610ace610a40565b9084548252600185015494888301958652600360028201549160408501928352015460ff60608501918181161515835260081c161580156080860152610c855751151580610c7d575b610c4d575113610c14575111610bdd57825260038452604082205490518101809111610bb0574310610b7b57506001917f43616e20737061776e0000000000000000000000000000000000000000000000610b70610a8f565b916009835282015290565b917f436f6f6c646f776e206163746976650000000000000000000000000000000000610ba5610a8f565b91600f835282015290565b6024827f4e487b710000000000000000000000000000000000000000000000000000000081526011600452fd5b5050917f496e73756666696369656e7420656e6572677900000000000000000000000000610c09610a8f565b916013835282015290565b50505050917f496e73756666696369656e742072657075746174696f6e000000000000000000610c42610a8f565b916017835282015290565b505050505050917f506172656e742072657175697265640000000000000000000000000000000000610ba5610a8f565b508415610b17565b50505050505050917f537061776e2074696572206e6f7420656e61626c656400000000000000000000610cb6610a8f565b91601683528201529056fea26469706673582212201795f5201c08be1ef07234f8d243936eabeef4b581826991f6966a2a2e6df01264736f6c63430008140033",
  "linkReferences": {},
  "deployedLinkReferences": {}
}