{
  "_format": "hh-sol-artifact-1",
  "contractName": "CreatorStaking",
  "sourceName": "contracts/layer6/creators/CreatorStaking.sol",
  "abi": [
    {
      "inputs": [
        {
          "internalType": "address",
          "name": "_treasury",
          "type": "address"
        }
      ],
      "stateMutability": "nonpayable",
      "type": "constructor"
    },
    {
      "inputs": [],
      "name": "AccessControlBadConfirmation",
      "type": "error"
    },
    {
      "inputs": [
        {
          "internalType": "address",
          "name": "account",
          "type": "address"
        },
        {
          "internalType": "bytes32",
          "name": "neededRole",
          "type": "bytes32"
        }
      ],
      "name": "AccessControlUnauthorizedAccount",
      "type": "error"
    },
    {
      "inputs": [],
      "name": "ReentrancyGuardReentrantCall",
      "type": "error"
    },
    {
      "anonymous": false,
      "inputs": [
        {
          "indexed": true,
          "internalType": "address",
          "name": "creator",
          "type": "address"
        },
        {
          "indexed": false,
          "internalType": "uint256",
          "name": "amount",
          "type": "uint256"
        }
      ],
      "name": "RewardClaimed",
      "type": "event"
    },
    {
      "anonymous": false,
      "inputs": [
        {
          "indexed": false,
          "internalType": "uint256",
          "name": "amount",
          "type": "uint256"
        }
      ],
      "name": "RewardPoolFunded",
      "type": "event"
    },
    {
      "anonymous": false,
      "inputs": [
        {
          "indexed": true,
          "internalType": "bytes32",
          "name": "role",
          "type": "bytes32"
        },
        {
          "indexed": true,
          "internalType": "bytes32",
          "name": "previousAdminRole",
          "type": "bytes32"
        },
        {
          "indexed": true,
          "internalType": "bytes32",
          "name": "newAdminRole",
          "type": "bytes32"
        }
      ],
      "name": "RoleAdminChanged",
      "type": "event"
    },
    {
      "anonymous": false,
      "inputs": [
        {
          "indexed": true,
          "internalType": "bytes32",
          "name": "role",
          "type": "bytes32"
        },
        {
          "indexed": true,
          "internalType": "address",
          "name": "account",
          "type": "address"
        },
        {
          "indexed": true,
          "internalType": "address",
          "name": "sender",
          "type": "address"
        }
      ],
      "name": "RoleGranted",
      "type": "event"
    },
    {
      "anonymous": false,
      "inputs": [
        {
          "indexed": true,
          "internalType": "bytes32",
          "name": "role",
          "type": "bytes32"
        },
        {
          "indexed": true,
          "internalType": "address",
          "name": "account",
          "type": "address"
        },
        {
          "indexed": true,
          "internalType": "address",
          "name": "sender",
          "type": "address"
        }
      ],
      "name": "RoleRevoked",
      "type": "event"
    },
    {
      "anonymous": false,
      "inputs": [
        {
          "indexed": true,
          "internalType": "address",
          "name": "creator",
          "type": "address"
        },
        {
          "indexed": false,
          "internalType": "uint256",
          "name": "amount",
          "type": "uint256"
        },
        {
          "indexed": false,
          "internalType": "string",
          "name": "reason",
          "type": "string"
        }
      ],
      "name": "Slashed",
      "type": "event"
    },
    {
      "anonymous": false,
      "inputs": [
        {
          "indexed": true,
          "internalType": "address",
          "name": "creator",
          "type": "address"
        },
        {
          "indexed": false,
          "internalType": "uint256",
          "name": "amount",
          "type": "uint256"
        },
        {
          "indexed": false,
          "internalType": "enum CreatorStaking.StakeTier",
          "name": "tier",
          "type": "uint8"
        }
      ],
      "name": "Staked",
      "type": "event"
    },
    {
      "anonymous": false,
      "inputs": [
        {
          "indexed": true,
          "internalType": "address",
          "name": "creator",
          "type": "address"
        },
        {
          "indexed": false,
          "internalType": "uint256",
          "name": "amount",
          "type": "uint256"
        }
      ],
      "name": "Unstaked",
      "type": "event"
    },
    {
      "inputs": [],
      "name": "DEFAULT_ADMIN_ROLE",
      "outputs": [
        {
          "internalType": "bytes32",
          "name": "",
          "type": "bytes32"
        }
      ],
      "stateMutability": "view",
      "type": "function"
    },
    {
      "inputs": [],
      "name": "SLASH_ROLE",
      "outputs": [
        {
          "internalType": "bytes32",
          "name": "",
          "type": "bytes32"
        }
      ],
      "stateMutability": "view",
      "type": "function"
    },
    {
      "inputs": [],
      "name": "claimRewards",
      "outputs": [],
      "stateMutability": "nonpayable",
      "type": "function"
    },
    {
      "inputs": [],
      "name": "fundRewardPool",
      "outputs": [],
      "stateMutability": "payable",
      "type": "function"
    },
    {
      "inputs": [
        {
          "internalType": "address",
          "name": "creator",
          "type": "address"
        }
      ],
      "name": "getPendingReward",
      "outputs": [
        {
          "internalType": "uint256",
          "name": "",
          "type": "uint256"
        }
      ],
      "stateMutability": "view",
      "type": "function"
    },
    {
      "inputs": [
        {
          "internalType": "bytes32",
          "name": "role",
          "type": "bytes32"
        }
      ],
      "name": "getRoleAdmin",
      "outputs": [
        {
          "internalType": "bytes32",
          "name": "",
          "type": "bytes32"
        }
      ],
      "stateMutability": "view",
      "type": "function"
    },
    {
      "inputs": [
        {
          "internalType": "address",
          "name": "creator",
          "type": "address"
        }
      ],
      "name": "getStakeTier",
      "outputs": [
        {
          "internalType": "enum CreatorStaking.StakeTier",
          "name": "",
          "type": "uint8"
        }
      ],
      "stateMutability": "view",
      "type": "function"
    },
    {
      "inputs": [
        {
          "internalType": "bytes32",
          "name": "role",
          "type": "bytes32"
        },
        {
          "internalType": "address",
          "name": "account",
          "type": "address"
        }
      ],
      "name": "grantRole",
      "outputs": [],
      "stateMutability": "nonpayable",
      "type": "function"
    },
    {
      "inputs": [
        {
          "internalType": "bytes32",
          "name": "role",
          "type": "bytes32"
        },
        {
          "internalType": "address",
          "name": "account",
          "type": "address"
        }
      ],
      "name": "hasRole",
      "outputs": [
        {
          "internalType": "bool",
          "name": "",
          "type": "bool"
        }
      ],
      "stateMutability": "view",
      "type": "function"
    },
    {
      "inputs": [
        {
          "internalType": "address",
          "name": "",
          "type": "address"
        }
      ],
      "name": "isStaker",
      "outputs": [
        {
          "internalType": "bool",
          "name": "",
          "type": "bool"
        }
      ],
      "stateMutability": "view",
      "type": "function"
    },
    {
      "inputs": [
        {
          "internalType": "bytes32",
          "name": "role",
          "type": "bytes32"
        },
        {
          "internalType": "address",
          "name": "callerConfirmation",
          "type": "address"
        }
      ],
      "name": "renounceRole",
      "outputs": [],
      "stateMutability": "nonpayable",
      "type": "function"
    },
    {
      "inputs": [
        {
          "internalType": "bytes32",
          "name": "role",
          "type": "bytes32"
        },
        {
          "internalType": "address",
          "name": "account",
          "type": "address"
        }
      ],
      "name": "revokeRole",
      "outputs": [],
      "stateMutability": "nonpayable",
      "type": "function"
    },
    {
      "inputs": [],
      "name": "rewardRateBps",
      "outputs": [
        {
          "internalType": "uint256",
          "name": "",
          "type": "uint256"
        }
      ],
      "stateMutability": "view",
      "type": "function"
    },
    {
      "inputs": [
        {
          "internalType": "address",
          "name": "creator",
          "type": "address"
        },
        {
          "internalType": "uint256",
          "name": "bps",
          "type": "uint256"
        },
        {
          "internalType": "string",
          "name": "reason",
          "type": "string"
        }
      ],
      "name": "slash",
      "outputs": [],
      "stateMutability": "nonpayable",
      "type": "function"
    },
    {
      "inputs": [
        {
          "internalType": "enum CreatorStaking.StakeTier",
          "name": "tier",
          "type": "uint8"
        }
      ],
      "name": "stake",
      "outputs": [],
      "stateMutability": "payable",
      "type": "function"
    },
    {
      "inputs": [
        {
          "internalType": "uint256",
          "name": "",
          "type": "uint256"
        }
      ],
      "name": "stakers",
      "outputs": [
        {
          "internalType": "address",
          "name": "",
          "type": "address"
        }
      ],
      "stateMutability": "view",
      "type": "function"
    },
    {
      "inputs": [
        {
          "internalType": "address",
          "name": "",
          "type": "address"
        }
      ],
      "name": "stakes",
      "outputs": [
        {
          "internalType": "uint256",
          "name": "amount",
          "type": "uint256"
        },
        {
          "internalType": "uint256",
          "name": "stakedAt",
          "type": "uint256"
        },
        {
          "internalType": "uint256",
          "name": "lockUntil",
          "type": "uint256"
        },
        {
          "internalType": "enum CreatorStaking.StakeTier",
          "name": "tier",
          "type": "uint8"
        },
        {
          "internalType": "uint256",
          "name": "rewardsEarned",
          "type": "uint256"
        },
        {
          "internalType": "uint256",
          "name": "lastRewardAt",
          "type": "uint256"
        },
        {
          "internalType": "uint256",
          "name": "slashCount",
          "type": "uint256"
        },
        {
          "internalType": "bool",
          "name": "isActive",
          "type": "bool"
        }
      ],
      "stateMutability": "view",
      "type": "function"
    },
    {
      "inputs": [
        {
          "internalType": "bytes4",
          "name": "i",
          "type": "bytes4"
        }
      ],
      "name": "supportsInterface",
      "outputs": [
        {
          "internalType": "bool",
          "name": "",
          "type": "bool"
        }
      ],
      "stateMutability": "view",
      "type": "function"
    },
    {
      "inputs": [
        {
          "internalType": "enum CreatorStaking.StakeTier",
          "name": "",
          "type": "uint8"
        }
      ],
      "name": "tierLockDuration",
      "outputs": [
        {
          "internalType": "uint256",
          "name": "",
          "type": "uint256"
        }
      ],
      "stateMutability": "view",
      "type": "function"
    },
    {
      "inputs": [
        {
          "internalType": "enum CreatorStaking.StakeTier",
          "name": "",
          "type": "uint8"
        }
      ],
      "name": "tierMinStake",
      "outputs": [
        {
          "internalType": "uint256",
          "name": "",
          "type": "uint256"
        }
      ],
      "stateMutability": "view",
      "type": "function"
    },
    {
      "inputs": [
        {
          "internalType": "enum CreatorStaking.StakeTier",
          "name": "",
          "type": "uint8"
        }
      ],
      "name": "tierRewardMultiplier",
      "outputs": [
        {
          "internalType": "uint256",
          "name": "",
          "type": "uint256"
        }
      ],
      "stateMutability": "view",
      "type": "function"
    },
    {
      "inputs": [],
      "name": "totalStaked",
      "outputs": [
        {
          "internalType": "uint256",
          "name": "",
          "type": "uint256"
        }
      ],
      "stateMutability": "view",
      "type": "function"
    },
    {
      "inputs": [],
      "name": "treasury",
      "outputs": [
        {
          "internalType": "address",
          "name": "",
          "type": "address"
        }
      ],
      "stateMutability": "view",
      "type": "function"
    },
    {
      "inputs": [],
      "name": "unstake",
      "outputs": [],
      "stateMutability": "nonpayable",
      "type": "function"
    }
  ],
  "bytecode": "0x6080346200014957601f6200174238819003918201601f191683019291906001600160401b038411838510176200014e5781602092849260409687528339810103126200014957516001600160a01b038116908190036200014957600180556064600a55600880546001600160a01b031916919091179055620000823362000164565b506200008e33620001e4565b5062ed4e00816000600181526003602052662386f26fc10000828220556002815267016345785d8a00008282205560038152670de0b6b3a76400008282205560048152678ac7230489e8000082822055600181526004602052606482822055600281526096828220556003815260c8828220556004815261012c8282205560018152600560205262093a80828220556002815262278d0082822055600381526276a700828220556004815220555161149b9081620002878239f35b600080fd5b634e487b7160e01b600052604160045260246000fd5b6001600160a01b031660008181527fad3228b676f7d3cd4284a5443f17f1962b36e491b30a40b2405849e597ba5fb5602052604081205490919060ff16620001e057818052816020526040822081835260205260408220600160ff198254161790553391600080516020620017228339815191528180a4600190565b5090565b6001600160a01b031660008181527f5fb28137d0779f7799a029e4a9b87ea1e0ef51ffd4cb42e2c468b21caff02b6d60205260408120549091907fc2249d6ed7774be61bf09b44f36d3b7dbd4329534ca71cf40ab0d422decb29949060ff166200028157808352826020526040832082845260205260408320600160ff1982541617905560008051602062001722833981519152339380a4600190565b50509056fe6080604081815260048036101561001557600080fd5b600092833560e01c90816301ffc9a714610e6d5750806316934fc414610dce5780632082833914610d95578063248a9ca314610d6c5780632def662014610c1c5780632f2ff15d14610bf357806336568abe14610b86578063372500ab14610a8257806349a0486c14610a165780634df9d6ba146109bd578063604f2177146106ec57806361d027b3146106b75780636428a9881461068e578063678b3ee2146103495780636f1e85331461030057806373face86146102e1578063817b1cd2146102c25780638e03bfce1461029957806391d1485414610248578063a217fddf1461022d578063a7d17f1e146101ee578063bd5b0584146101bd578063d547741f1461017f5763fd5e6dd11461012b57600080fd5b3461017b57602060031936011261017b573591600654831015610178575073ffffffffffffffffffffffffffffffffffffffff610169602093610fde565b92905490519260031b1c168152f35b80fd5b8280fd5b50903461017b578060031936011261017b576101b991356101b460016101a3610f34565b938387528660205286200154611044565b61114b565b5080f35b503461017b57602060031936011261017b573591600583101561017857506101e6602092610fc5565b549051908152f35b505034610229578160031936011261022957602090517fc2249d6ed7774be61bf09b44f36d3b7dbd4329534ca71cf40ab0d422decb29948152f35b5080fd5b50503461022957816003193601126102295751908152602090f35b503461017b578160031936011261017b578160209360ff92610268610f34565b9035825281865273ffffffffffffffffffffffffffffffffffffffff83832091168252855220541690519015158152f35b503461017b57602060031936011261017b573591600583101561017857506101e6602092610f93565b5050346102295781600319360112610229576020906009549051908152f35b505034610229578160031936011261022957602090600a549051908152f35b5050346102295760206003193601126102295760ff8160209373ffffffffffffffffffffffffffffffffffffffff610336610f0c565b1681526007855220541690519015158152f35b50903461017b5760608060031936011261068a57610365610f0c565b60249283359360443567ffffffffffffffff938482116106865736602383011215610686578188013585811161065b578451927fffffffffffffffffffffffffffffffffffffffffffffffffffffffffffffffe09687603f81601f8601160116850190858210908211176106305786528184528a90368382018701116102295782869360209788930183880137850101527fc2249d6ed7774be61bf09b44f36d3b7dbd4329534ca71cf40ab0d422decb2994808b528a8552858b20338c52855260ff868c205416156105fd575061043a611228565b73ffffffffffffffffffffffffffffffffffffffff80921698898b5260028552858b2060ff600782015416806105f1575b15610596578061048d612710610485600694549d8e6112d5565b04809c6112c8565b815501918254917fffffffffffffffffffffffffffffffffffffffffffffffffffffffffffffffff831461056c5750508a8981948294600184950190556104d6826009546112c8565b60095560085416828215610563575bf115610559578251958652828287015280518093870152875b83811061054657505050928291601f858884967f7e947095ed288d8885423bdaef4015b7420ffa9b84d62ef67c402e8bc36a8ea9988601015201168101030190a26001805580f35b81810183015187820187015282016104fe565b82513d89823e3d90fd5b506108fc6104e5565b60118d917f4e487b7100000000000000000000000000000000000000000000000000000000835252fd5b506007606492868851937f08c379a00000000000000000000000000000000000000000000000000000000085528401528201527f496e76616c6964000000000000000000000000000000000000000000000000006044820152fd5b506113888a111561046b565b85517fe2517d3f00000000000000000000000000000000000000000000000000000000815233818c015291820152604490fd5b858c60418d7f4e487b7100000000000000000000000000000000000000000000000000000000835252fd5b838a60418b7f4e487b7100000000000000000000000000000000000000000000000000000000835252fd5b8880fd5b8380fd5b503461017b57602060031936011261017b573591600583101561017857506101e6602092610fac565b50503461022957816003193601126102295760209073ffffffffffffffffffffffffffffffffffffffff600854169051908152f35b5091906020908160031936011261017b578335600581101561068a57610710611228565b80156109615761071f81610f93565b543410610905573384526007835260ff828520541615610829575b6108009083949560027f8acf475137e0cd74ca7f611d16b1e6383ec9a9c71a8e5b85967781b9c7214d1195526001848820916003600784019384549260ff841661080a575b5061078b3482546111ec565b815542848201554260058201556107ab6107a487610fac565b54426111ec565b600282015501907fffffffffffffffffffffffffffffffffffffffffffffffffffffffffffffff00918281541660ff8716179055161790556107ef346009546111ec565b600955825194348652850190610f57565b3392a26001805580f35b610821610816336112e8565b9183019182546111ec565b90553861077f565b600654680100000000000000008110156108d957907f8acf475137e0cd74ca7f611d16b1e6383ec9a9c71a8e5b85967781b9c7214d119394956108758360016108009501600655610fde565b81549060031b9073ffffffffffffffffffffffffffffffffffffffff33831b921b19161790553387526007865283872060017fffffffffffffffffffffffffffffffffffffffffffffffffffffffffffffff0082541617905595949350905061073a565b6024856041887f4e487b7100000000000000000000000000000000000000000000000000000000835252fd5b606485848451917f08c379a0000000000000000000000000000000000000000000000000000000008352820152601260248201527f496e73756666696369656e74207374616b6500000000000000000000000000006044820152fd5b606485848451917f08c379a0000000000000000000000000000000000000000000000000000000008352820152600c60248201527f496e76616c6964207469657200000000000000000000000000000000000000006044820152fd5b503461017b57602060031936011261017b57602092610a0f91836109df610f0c565b9273ffffffffffffffffffffffffffffffffffffffff6109fe856112e8565b9416815260028752200154906111ec565b9051908152f35b50503461022957602060031936011261022957610a7860209273ffffffffffffffffffffffffffffffffffffffff610a4c610f0c565b168152600284528281209060ff600783015416600014610a7a57506003015460ff16915b518092610f57565bf35b905091610a70565b50903461017b578260031936011261017b57610a9c611228565b3383526002602052808320610ab760ff600783015416611263565b610ac0336112e8565b610acf848301918254906111ec565b938415610b29575084905560054291015582808080853382f115610b1e57519081527f106f923f993c2149d49b4255ff723acafa1f2d94393f561d3eda32ae348f724160203392a26001805580f35b51913d9150823e3d90fd5b60649060208551917f08c379a0000000000000000000000000000000000000000000000000000000008352820152600a60248201527f4e6f2072657761726473000000000000000000000000000000000000000000006044820152fd5b50919034610229578060031936011261022957610ba1610f34565b903373ffffffffffffffffffffffffffffffffffffffff831603610bcb57506101b991923561114b565b8390517f6697b232000000000000000000000000000000000000000000000000000000008152fd5b50903461017b578060031936011261017b576101b99135610c1760016101a3610f34565b6110a1565b50903461017b578260031936011261017b57610c36611228565b33835260026020528083206007810190610c5360ff835416611263565b60028101544210610d0f5790848092610c6b336112e8565b92610c91610c88835498840195610c8387548b6111ec565b6111ec565b976009546112c8565b6009557fffffffffffffffffffffffffffffffffffffffffffffffffffffffffffffff00815416905555558280838015610d05575b8280929181923390f115610b1e57519081527f0f5bb82176feb1b5e747e28471aa92156a04d9f3ab9f45f28e2d704232b93f7560203392a26001805580f35b6108fc9150610cc6565b60648460208551917f08c379a0000000000000000000000000000000000000000000000000000000008352820152600c60248201527f5374696c6c206c6f636b656400000000000000000000000000000000000000006044820152fd5b503461017b57602060031936011261017b57816020936001923581528085522001549051908152f35b5050816003193601126102295760207fb1d234dd8081b3e00565c8b359ca6fa117fc7b024f75d85b6830b190bef5c76b9151348152a180f35b503461017b57602060031936011261017b57816101009373ffffffffffffffffffffffffffffffffffffffff610e02610f0c565b168152600260205220805492600182015492610e5560028401549160ff600386015416908501549260058601549460ff6007600689015498015416978151998a5260208a01528801526060870190610f57565b608085015260a084015260c0830152151560e0820152f35b9250503461017b57602060031936011261017b57357fffffffff00000000000000000000000000000000000000000000000000000000811680910361017b57602092507f7965db0b000000000000000000000000000000000000000000000000000000008114908115610ee2575b5015158152f35b7f01ffc9a70000000000000000000000000000000000000000000000000000000091501438610edb565b6004359073ffffffffffffffffffffffffffffffffffffffff82168203610f2f57565b600080fd5b6024359073ffffffffffffffffffffffffffffffffffffffff82168203610f2f57565b906005821015610f645752565b7f4e487b7100000000000000000000000000000000000000000000000000000000600052602160045260246000fd5b6005811015610f64576000526003602052604060002090565b6005811015610f64576000526005602052604060002090565b6005811015610f64576000526004602052604060002090565b6006548110156110155760066000527ff652222313e28459528d920b65115c16c04f3efc82aaedc97be59f3f377c0d3f0190600090565b7f4e487b7100000000000000000000000000000000000000000000000000000000600052603260045260246000fd5b80600052600060205260406000203360005260205260ff604060002054161561106a5750565b604490604051907fe2517d3f0000000000000000000000000000000000000000000000000000000082523360048301526024820152fd5b906000918083528260205273ffffffffffffffffffffffffffffffffffffffff6040842092169182845260205260ff604084205416156000146111465780835282602052604083208284526020526040832060017fffffffffffffffffffffffffffffffffffffffffffffffffffffffffffffff008254161790557f2f8788117e7eff1d82e926ec794901d17c78024a50270940304540a733656f0d339380a4600190565b505090565b906000918083528260205273ffffffffffffffffffffffffffffffffffffffff6040842092169182845260205260ff604084205416600014611146578083528260205260408320828452602052604083207fffffffffffffffffffffffffffffffffffffffffffffffffffffffffffffff0081541690557ff6391f5c32d9c69d2a47ea670b442974b53935d1edc7fd64eb21e047a839171b339380a4600190565b919082018092116111f957565b7f4e487b7100000000000000000000000000000000000000000000000000000000600052601160045260246000fd5b600260015414611239576002600155565b60046040517f3ee5aeb5000000000000000000000000000000000000000000000000000000008152fd5b1561126a57565b60646040517f08c379a000000000000000000000000000000000000000000000000000000000815260206004820152600b60248201527f4e6f74207374616b696e670000000000000000000000000000000000000000006044820152fd5b919082039182116111f957565b818102929181159184041417156111f957565b73ffffffffffffffffffffffffffffffffffffffff6000911681526002602052604081209060405190610100820182811067ffffffffffffffff8211176114385760405282548252600183015460208301526002830154604083015260ff600384015416926060830193600581101561140b5784526004810154608084015260ff60076005830154928360a0870152600681015460c087015201541615801560e08501526114045761139a90426112c8565b92519060058210156113d75750916113ce6113d3926113ce6113c2651cae8c13e00096610fc5565b549151600a54906112d5565b6112d5565b0490565b807f4e487b7100000000000000000000000000000000000000000000000000000000602492526021600452fd5b5091505090565b6024837f4e487b710000000000000000000000000000000000000000000000000000000081526021600452fd5b6024827f4e487b710000000000000000000000000000000000000000000000000000000081526041600452fdfea264697066735822122047b1aa3095fca6620f0ef90d051e9d4c2bb4343173d96dd73414959c3fa5d3c664736f6c634300081400332f8788117e7eff1d82e926ec794901d17c78024a50270940304540a733656f0d",
  "linkReferences": {},
  "deployedLinkReferences": {}
}