{
  "_format": "hh-sol-artifact-1",
  "contractName": "TrustOracle",
  "sourceName": "contracts/layer7/trust/TrustOracle.sol",
  "abi": [
    {
      "inputs": [],
      "stateMutability": "nonpayable",
      "type": "constructor"
    },
    {
      "inputs": [],
      "name": "AccessControlBadConfirmation",
      "type": "error"
    },
    {
      "inputs": [
        {
          "internalType": "address",
          "name": "account",
          "type": "address"
        },
        {
          "internalType": "bytes32",
          "name": "neededRole",
          "type": "bytes32"
        }
      ],
      "name": "AccessControlUnauthorizedAccount",
      "type": "error"
    },
    {
      "inputs": [],
      "name": "ReentrancyGuardReentrantCall",
      "type": "error"
    },
    {
      "anonymous": false,
      "inputs": [
        {
          "indexed": true,
          "internalType": "uint256",
          "name": "claimId",
          "type": "uint256"
        },
        {
          "indexed": true,
          "internalType": "address",
          "name": "subject",
          "type": "address"
        },
        {
          "indexed": false,
          "internalType": "string",
          "name": "reason",
          "type": "string"
        }
      ],
      "name": "ClaimRejected",
      "type": "event"
    },
    {
      "anonymous": false,
      "inputs": [
        {
          "indexed": true,
          "internalType": "uint256",
          "name": "claimId",
          "type": "uint256"
        },
        {
          "indexed": true,
          "internalType": "address",
          "name": "subject",
          "type": "address"
        },
        {
          "indexed": false,
          "internalType": "enum TrustOracle.ClaimType",
          "name": "claimType",
          "type": "uint8"
        }
      ],
      "name": "ClaimSubmitted",
      "type": "event"
    },
    {
      "anonymous": false,
      "inputs": [
        {
          "indexed": true,
          "internalType": "uint256",
          "name": "claimId",
          "type": "uint256"
        },
        {
          "indexed": true,
          "internalType": "address",
          "name": "subject",
          "type": "address"
        },
        {
          "indexed": false,
          "internalType": "uint256",
          "name": "score",
          "type": "uint256"
        }
      ],
      "name": "ClaimVerified",
      "type": "event"
    },
    {
      "anonymous": false,
      "inputs": [
        {
          "indexed": true,
          "internalType": "bytes32",
          "name": "role",
          "type": "bytes32"
        },
        {
          "indexed": true,
          "internalType": "bytes32",
          "name": "previousAdminRole",
          "type": "bytes32"
        },
        {
          "indexed": true,
          "internalType": "bytes32",
          "name": "newAdminRole",
          "type": "bytes32"
        }
      ],
      "name": "RoleAdminChanged",
      "type": "event"
    },
    {
      "anonymous": false,
      "inputs": [
        {
          "indexed": true,
          "internalType": "bytes32",
          "name": "role",
          "type": "bytes32"
        },
        {
          "indexed": true,
          "internalType": "address",
          "name": "account",
          "type": "address"
        },
        {
          "indexed": true,
          "internalType": "address",
          "name": "sender",
          "type": "address"
        }
      ],
      "name": "RoleGranted",
      "type": "event"
    },
    {
      "anonymous": false,
      "inputs": [
        {
          "indexed": true,
          "internalType": "bytes32",
          "name": "role",
          "type": "bytes32"
        },
        {
          "indexed": true,
          "internalType": "address",
          "name": "account",
          "type": "address"
        },
        {
          "indexed": true,
          "internalType": "address",
          "name": "sender",
          "type": "address"
        }
      ],
      "name": "RoleRevoked",
      "type": "event"
    },
    {
      "anonymous": false,
      "inputs": [
        {
          "indexed": true,
          "internalType": "address",
          "name": "subject",
          "type": "address"
        },
        {
          "indexed": false,
          "internalType": "uint256",
          "name": "newScore",
          "type": "uint256"
        }
      ],
      "name": "TrustScoreUpdated",
      "type": "event"
    },
    {
      "anonymous": false,
      "inputs": [
        {
          "indexed": true,
          "internalType": "uint256",
          "name": "claimId",
          "type": "uint256"
        },
        {
          "indexed": true,
          "internalType": "address",
          "name": "validator",
          "type": "address"
        },
        {
          "indexed": false,
          "internalType": "bool",
          "name": "approved",
          "type": "bool"
        }
      ],
      "name": "ValidatorVoted",
      "type": "event"
    },
    {
      "inputs": [],
      "name": "CLAIM_TTL",
      "outputs": [
        {
          "internalType": "uint256",
          "name": "",
          "type": "uint256"
        }
      ],
      "stateMutability": "view",
      "type": "function"
    },
    {
      "inputs": [],
      "name": "DEFAULT_ADMIN_ROLE",
      "outputs": [
        {
          "internalType": "bytes32",
          "name": "",
          "type": "bytes32"
        }
      ],
      "stateMutability": "view",
      "type": "function"
    },
    {
      "inputs": [],
      "name": "MAX_SCORE",
      "outputs": [
        {
          "internalType": "uint256",
          "name": "",
          "type": "uint256"
        }
      ],
      "stateMutability": "view",
      "type": "function"
    },
    {
      "inputs": [],
      "name": "MIN_VALIDATORS",
      "outputs": [
        {
          "internalType": "uint256",
          "name": "",
          "type": "uint256"
        }
      ],
      "stateMutability": "view",
      "type": "function"
    },
    {
      "inputs": [],
      "name": "ORACLE_ROLE",
      "outputs": [
        {
          "internalType": "bytes32",
          "name": "",
          "type": "bytes32"
        }
      ],
      "stateMutability": "view",
      "type": "function"
    },
    {
      "inputs": [],
      "name": "VALIDATOR_ROLE",
      "outputs": [
        {
          "internalType": "bytes32",
          "name": "",
          "type": "bytes32"
        }
      ],
      "stateMutability": "view",
      "type": "function"
    },
    {
      "inputs": [
        {
          "internalType": "uint256",
          "name": "",
          "type": "uint256"
        }
      ],
      "name": "approvalCount",
      "outputs": [
        {
          "internalType": "uint256",
          "name": "",
          "type": "uint256"
        }
      ],
      "stateMutability": "view",
      "type": "function"
    },
    {
      "inputs": [],
      "name": "claimCounter",
      "outputs": [
        {
          "internalType": "uint256",
          "name": "",
          "type": "uint256"
        }
      ],
      "stateMutability": "view",
      "type": "function"
    },
    {
      "inputs": [
        {
          "internalType": "uint256",
          "name": "",
          "type": "uint256"
        },
        {
          "internalType": "address",
          "name": "",
          "type": "address"
        }
      ],
      "name": "claimVotes",
      "outputs": [
        {
          "internalType": "bool",
          "name": "",
          "type": "bool"
        }
      ],
      "stateMutability": "view",
      "type": "function"
    },
    {
      "inputs": [
        {
          "internalType": "uint256",
          "name": "",
          "type": "uint256"
        }
      ],
      "name": "claims",
      "outputs": [
        {
          "internalType": "uint256",
          "name": "id",
          "type": "uint256"
        },
        {
          "internalType": "address",
          "name": "subject",
          "type": "address"
        },
        {
          "internalType": "enum TrustOracle.ClaimType",
          "name": "claimType",
          "type": "uint8"
        },
        {
          "internalType": "bytes32",
          "name": "dataHash",
          "type": "bytes32"
        },
        {
          "internalType": "uint256",
          "name": "score",
          "type": "uint256"
        },
        {
          "internalType": "uint256",
          "name": "issuedAt",
          "type": "uint256"
        },
        {
          "internalType": "uint256",
          "name": "expiresAt",
          "type": "uint256"
        },
        {
          "internalType": "enum TrustOracle.ClaimStatus",
          "name": "status",
          "type": "uint8"
        },
        {
          "internalType": "address",
          "name": "issuer",
          "type": "address"
        },
        {
          "internalType": "string",
          "name": "metadataURI",
          "type": "string"
        }
      ],
      "stateMutability": "view",
      "type": "function"
    },
    {
      "inputs": [
        {
          "internalType": "bytes32",
          "name": "role",
          "type": "bytes32"
        }
      ],
      "name": "getRoleAdmin",
      "outputs": [
        {
          "internalType": "bytes32",
          "name": "",
          "type": "bytes32"
        }
      ],
      "stateMutability": "view",
      "type": "function"
    },
    {
      "inputs": [
        {
          "internalType": "address",
          "name": "subject",
          "type": "address"
        }
      ],
      "name": "getSubjectClaims",
      "outputs": [
        {
          "internalType": "uint256[]",
          "name": "",
          "type": "uint256[]"
        }
      ],
      "stateMutability": "view",
      "type": "function"
    },
    {
      "inputs": [
        {
          "internalType": "address",
          "name": "subject",
          "type": "address"
        }
      ],
      "name": "getTrustScore",
      "outputs": [
        {
          "internalType": "uint256",
          "name": "",
          "type": "uint256"
        }
      ],
      "stateMutability": "view",
      "type": "function"
    },
    {
      "inputs": [
        {
          "internalType": "bytes32",
          "name": "role",
          "type": "bytes32"
        },
        {
          "internalType": "address",
          "name": "account",
          "type": "address"
        }
      ],
      "name": "grantRole",
      "outputs": [],
      "stateMutability": "nonpayable",
      "type": "function"
    },
    {
      "inputs": [
        {
          "internalType": "bytes32",
          "name": "role",
          "type": "bytes32"
        },
        {
          "internalType": "address",
          "name": "account",
          "type": "address"
        }
      ],
      "name": "hasRole",
      "outputs": [
        {
          "internalType": "bool",
          "name": "",
          "type": "bool"
        }
      ],
      "stateMutability": "view",
      "type": "function"
    },
    {
      "inputs": [
        {
          "internalType": "uint256",
          "name": "claimId",
          "type": "uint256"
        }
      ],
      "name": "isClaimValid",
      "outputs": [
        {
          "internalType": "bool",
          "name": "",
          "type": "bool"
        }
      ],
      "stateMutability": "view",
      "type": "function"
    },
    {
      "inputs": [
        {
          "internalType": "address",
          "name": "",
          "type": "address"
        }
      ],
      "name": "profiles",
      "outputs": [
        {
          "internalType": "uint256",
          "name": "overallScore",
          "type": "uint256"
        },
        {
          "internalType": "uint256",
          "name": "totalClaims",
          "type": "uint256"
        },
        {
          "internalType": "uint256",
          "name": "verifiedClaims",
          "type": "uint256"
        },
        {
          "internalType": "uint256",
          "name": "lastUpdated",
          "type": "uint256"
        },
        {
          "internalType": "bool",
          "name": "isActive",
          "type": "bool"
        }
      ],
      "stateMutability": "view",
      "type": "function"
    },
    {
      "inputs": [
        {
          "internalType": "uint256",
          "name": "",
          "type": "uint256"
        }
      ],
      "name": "rejectionCount",
      "outputs": [
        {
          "internalType": "uint256",
          "name": "",
          "type": "uint256"
        }
      ],
      "stateMutability": "view",
      "type": "function"
    },
    {
      "inputs": [
        {
          "internalType": "bytes32",
          "name": "role",
          "type": "bytes32"
        },
        {
          "internalType": "address",
          "name": "callerConfirmation",
          "type": "address"
        }
      ],
      "name": "renounceRole",
      "outputs": [],
      "stateMutability": "nonpayable",
      "type": "function"
    },
    {
      "inputs": [
        {
          "internalType": "bytes32",
          "name": "role",
          "type": "bytes32"
        },
        {
          "internalType": "address",
          "name": "account",
          "type": "address"
        }
      ],
      "name": "revokeRole",
      "outputs": [],
      "stateMutability": "nonpayable",
      "type": "function"
    },
    {
      "inputs": [
        {
          "internalType": "address",
          "name": "",
          "type": "address"
        },
        {
          "internalType": "uint256",
          "name": "",
          "type": "uint256"
        }
      ],
      "name": "subjectClaims",
      "outputs": [
        {
          "internalType": "uint256",
          "name": "",
          "type": "uint256"
        }
      ],
      "stateMutability": "view",
      "type": "function"
    },
    {
      "inputs": [
        {
          "internalType": "address",
          "name": "subject",
          "type": "address"
        },
        {
          "internalType": "enum TrustOracle.ClaimType",
          "name": "claimType",
          "type": "uint8"
        },
        {
          "internalType": "bytes32",
          "name": "dataHash",
          "type": "bytes32"
        },
        {
          "internalType": "string",
          "name": "metadataURI",
          "type": "string"
        }
      ],
      "name": "submitClaim",
      "outputs": [
        {
          "internalType": "uint256",
          "name": "claimId",
          "type": "uint256"
        }
      ],
      "stateMutability": "nonpayable",
      "type": "function"
    },
    {
      "inputs": [
        {
          "internalType": "bytes4",
          "name": "interfaceId",
          "type": "bytes4"
        }
      ],
      "name": "supportsInterface",
      "outputs": [
        {
          "internalType": "bool",
          "name": "",
          "type": "bool"
        }
      ],
      "stateMutability": "view",
      "type": "function"
    },
    {
      "inputs": [
        {
          "internalType": "uint256",
          "name": "claimId",
          "type": "uint256"
        },
        {
          "internalType": "uint256",
          "name": "score",
          "type": "uint256"
        }
      ],
      "name": "verifyClaim",
      "outputs": [],
      "stateMutability": "nonpayable",
      "type": "function"
    },
    {
      "inputs": [
        {
          "internalType": "uint256",
          "name": "claimId",
          "type": "uint256"
        },
        {
          "internalType": "bool",
          "name": "approve",
          "type": "bool"
        },
        {
          "internalType": "uint256",
          "name": "score",
          "type": "uint256"
        }
      ],
      "name": "voteClaim",
      "outputs": [],
      "stateMutability": "nonpayable",
      "type": "function"
    }
  ],
  "bytecode": "0x608060405234620000425760018055620000193362000047565b506200002533620000c7565b50620000313362000169565b506040516118fb9081620002078239f35b600080fd5b6001600160a01b031660008181527fad3228b676f7d3cd4284a5443f17f1962b36e491b30a40b2405849e597ba5fb5602052604081205490919060ff16620000c357818052816020526040822081835260205260408220600160ff19825416179055339160008051602062001b028339815191528180a4600190565b5090565b6001600160a01b031660008181527fa629f6981c2f6895a67dc766e8e03ff72d04a413d0d8773a3ca56e9e474032c160205260408120549091907f68e79a7bf1e0bc45d0a330c573bc367f9cf464fd326078812f301165fbda4ef19060ff166200016457808352826020526040832082845260205260408320600160ff1982541617905560008051602062001b02833981519152339380a4600190565b505090565b6001600160a01b031660008181527f5111aeae4aa79889928e72f88b5872109754de9d419ea9a4e3df5fba21d4d46f60205260408120549091907f21702c8af46127c7fa207f89d0b0a8441bb32959a0ac7df790e9ab1a25c989269060ff166200016457808352826020526040832082845260205260408320600160ff1982541617905560008051602062001b02833981519152339380a460019056fe608080604052600436101561001357600080fd5b60003560e01c90816301ffc9a7146112355750806307e2cea5146111fa578063248a9ca3146111cb578063248dc4eb146111ac57806327ff62231461118f5780632f2ff15d1461115057806336568abe146110e457806340ad01ea146110b85780634efa8f171461109a5780635e09eea1146110535780635ed1f9631461103757806376b5868e14610fd357806391d1485414610f7857806396ca806c14610b925780639fa1178214610b37578063a217fddf14610b1b578063a4b9b15c146105c5578063a888c2cd14610404578063b55c37e7146103a1578063bbe1562714610329578063c49baebe146102ee578063d547741f146102ad578063d7395795146101ec578063d74a9662146101c05763ef5700e71461013257600080fd5b346101bb5760206003193601126101bb576004356000526003602052604060002060ff60068201541690600482101561018c57600160209214908161017d575b506040519015158152f35b60059150015442111538610172565b7f4e487b7100000000000000000000000000000000000000000000000000000000600052602160045260246000fd5b600080fd5b346101bb5760206003193601126101bb5760043560005260086020526020604060002054604051908152f35b346101bb576020806003193601126101bb5773ffffffffffffffffffffffffffffffffffffffff61021b6112f6565b1660005260058152604060002060405190818382549182815201908192600052846000209060005b868282106102995786866102598288038361136c565b604051928392818401908285525180915260408401929160005b82811061028257505050500390f35b835185528695509381019392810192600101610273565b835485529093019260019283019201610243565b346101bb5760406003193601126101bb576102ec6004356102cc6112d3565b908060005260006020526102e7600160406000200154611494565b611546565b005b346101bb5760006003193601126101bb5760206040517f21702c8af46127c7fa207f89d0b0a8441bb32959a0ac7df790e9ab1a25c989268152f35b346101bb5760206003193601126101bb5773ffffffffffffffffffffffffffffffffffffffff6103576112f6565b16600052600460205260a06040600020805490600181015490600281015460ff60046003840154930154169260405194855260208501526040840152606083015215156080820152f35b346101bb5760406003193601126101bb576103ba6112f6565b73ffffffffffffffffffffffffffffffffffffffff60243591166000526005602052604060002080548210156101bb576020916103f6916113ba565b90546040519160031b1c8152f35b346101bb5760206003193601126101bb5760043560005260036020526040600020805490600181015460028201549160038101546004820154600583015491600760068501549401956040519687600082549261046084611319565b80845293600181169081156105a3575060011461055d575b506104859250038861136c565b6040519788526104bc73ffffffffffffffffffffffffffffffffffffffff9687811660208b015260ff60408b019160a01c166113ad565b6060880152608087015260a086015260c0850152600460ff8216101561018c5760ff811660e085015260081c1661010083015261014090816101208401528051809284015260005b828110610546575050817fffffffffffffffffffffffffffffffffffffffffffffffffffffffffffffffe0601f61016093600085828601015201168101030190f35b806020809284010151610160828701015201610504565b90506000929192526020600020906000915b818310610588575050906020610485928201018b610478565b8060209294838560019454920101520191019091899261056f565b6020935061048595925060ff1991501682840152151560051b8201018b610478565b346101bb5760806003193601126101bb576105de6112f6565b600560243510156101bb5767ffffffffffffffff606435116101bb573660236064350112156101bb5767ffffffffffffffff60643560040135116101bb57366024606435600401356064350101116101bb57610638611401565b6106436002546115c9565b806002556301e1338042014211610aec57604051610140810181811067ffffffffffffffff8211176109bd5760405281815273ffffffffffffffffffffffffffffffffffffffff8316602082015260243560408201526044356060820152600060808201524260a08201526301e13380420160c0820152600060e08201523361010082015260405161070360207fffffffffffffffffffffffffffffffffffffffffffffffffffffffffffffffe0601f606435600401350116018261136c565b606435600481013580835290602401602083013760006020606435600401358301015261012082015281600052600360205260406000209080518255600182019073ffffffffffffffffffffffffffffffffffffffff602082015116918054604083015193600585101561018c5774ff0000000000000000000000000000000000000000947fffffffffffffffffffffff00000000000000000000000000000000000000000095869160a01b16921617179055606081015160028401556080810151600384015560a0810151600484015560c081015160058401556006830160e0820151600481101561018c576101209382549060ff74ffffffffffffffffffffffffffffffffffffffff0061010087015160081b169316911617179055015180519067ffffffffffffffff82116109bd576108426007840154611319565b601f8111610aa1575b50602090601f83116001146109f75760079291600091836109ec575b50507fffffffffffffffffffffffffffffffffffffffffffffffffffffffffffffffff8260011b9260031b1c1916179101555b73ffffffffffffffffffffffffffffffffffffffff82166000526005602052604060002091825492680100000000000000008410156109bd57836108e59160016020960181556113ba565b81549060031b907fffffffffffffffffffffffffffffffffffffffffffffffffffffffffffffffff85831b921b191617905573ffffffffffffffffffffffffffffffffffffffff8116600052600483526001604060002060048101805460ff8116156109ae575b50500161095981546115c9565b9055817fabf390bf3f2c2630ef84aabf5026fd2c7c01e9f3f327dcac6b37c25c2c9acc538473ffffffffffffffffffffffffffffffffffffffff604051946109a3866024356113ad565b1693a3604051908152f35b60ff191683179055858061094c565b7f4e487b7100000000000000000000000000000000000000000000000000000000600052604160045260246000fd5b015190508680610867565b907fffffffffffffffffffffffffffffffffffffffffffffffffffffffffffffffe08316916007850160005260206000209260005b818110610a8957509160019391856007969410610a52575b505050811b0191015561089a565b01517fffffffffffffffffffffffffffffffffffffffffffffffffffffffffffffffff60f88460031b161c19169055868080610a44565b92936020600181928786015181550195019301610a2c565b600784016000526020600020601f840160051c81019160208510610ae2575b601f0160051c01905b818110610ad6575061084b565b60008155600101610ac9565b9091508190610ac0565b7f4e487b7100000000000000000000000000000000000000000000000000000000600052601160045260246000fd5b346101bb5760006003193601126101bb57602060405160008152f35b346101bb5760406003193601126101bb57610b506112d3565b600435600052600660205273ffffffffffffffffffffffffffffffffffffffff60406000209116600052602052602060ff604060002054166040519015158152f35b346101bb5760606003193601126101bb576004356024908135801515928382036101bb573360009081527f5111aeae4aa79889928e72f88b5872109754de9d419ea9a4e3df5fba21d4d46f60209081526040909120549094604435917f21702c8af46127c7fa207f89d0b0a8441bb32959a0ac7df790e9ab1a25c989269060ff1615610f4257508460005260038652604060002092600684019260ff8454166004811015610f1457610c449015611603565b8660005260068852604060002033600052885260ff60406000205416610eb757610c726103e8821115611668565b8660005260068852604060002033600052885260406000209560ff1996600188825416179055600014610e975786600052600788526040600020610cb681546115c9565b90556003850191825490610ce1610ccd84846115f6565b8a60005260078c52604060002054906116cd565b610dcb575050905b555b604051908152847fb1f4a7f77d3ab8b276fa1450930160021a1e4f80c9a77878fabe0dba8caad30b873393a36000848152600786526040902054600211610d39575050506102ec9150611706565b6008855260026040600020541015610d4d57005b60016060928260027f4682ef87b3db3f66192d1dc1efd5d2a314cdd9c61e14219f671c03e6f507823a9673ffffffffffffffffffffffffffffffffffffffff95541617905501541693601d604051918083528201527f56616c696461746f7220636f6e73656e7375733a2072656a65637465640000006040820152a3005b8860005260078a52604060002054917fffffffffffffffffffffffffffffffffffffffffffffffffffffffffffffffff8301928311610e6957828102928184041490151715610e3c5750610e3691610e22916115f6565b8760005260078952604060002054906116cd565b90610ce9565b7f4e487b710000000000000000000000000000000000000000000000000000000060005260116004526000fd5b507f4e487b710000000000000000000000000000000000000000000000000000000060005260116004526000fd5b505084600052600886526040600020610eb081546115c9565b9055610ceb565b606488600d84604051927f08c379a000000000000000000000000000000000000000000000000000000000845260048401528201527f416c726561647920766f746564000000000000000000000000000000000000006044820152fd5b827f4e487b710000000000000000000000000000000000000000000000000000000060005260216004526000fd5b83604491604051917fe2517d3f000000000000000000000000000000000000000000000000000000008352336004840152820152fd5b346101bb5760406003193601126101bb57610f916112d3565b600435600052600060205273ffffffffffffffffffffffffffffffffffffffff60406000209116600052602052602060ff604060002054166040519015158152f35b346101bb5760406003193601126101bb57602435600435610ff2611401565b6110006103e8831115611668565b80600052600360205260406000209160ff600684015416600481101561018c576102ec9361103060039215611603565b0155611706565b346101bb5760006003193601126101bb57602060405160028152f35b346101bb5760206003193601126101bb5773ffffffffffffffffffffffffffffffffffffffff6110816112f6565b1660005260046020526020604060002054604051908152f35b346101bb5760006003193601126101bb576020600254604051908152f35b346101bb5760206003193601126101bb5760043560005260076020526020604060002054604051908152f35b346101bb5760406003193601126101bb576110fd6112d3565b3373ffffffffffffffffffffffffffffffffffffffff821603611126576102ec90600435611546565b60046040517f6697b232000000000000000000000000000000000000000000000000000000008152fd5b346101bb5760406003193601126101bb576102ec60043561116f6112d3565b9080600052600060205261118a600160406000200154611494565b6114ba565b346101bb5760006003193601126101bb5760206040516103e88152f35b346101bb5760006003193601126101bb5760206040516301e133808152f35b346101bb5760206003193601126101bb5760043560005260006020526020600160406000200154604051908152f35b346101bb5760006003193601126101bb5760206040517f68e79a7bf1e0bc45d0a330c573bc367f9cf464fd326078812f301165fbda4ef18152f35b346101bb5760206003193601126101bb57600435907fffffffff0000000000000000000000000000000000000000000000000000000082168092036101bb57817f7965db0b00000000000000000000000000000000000000000000000000000000602093149081156112a9575b5015158152f35b7f01ffc9a700000000000000000000000000000000000000000000000000000000915014836112a2565b6024359073ffffffffffffffffffffffffffffffffffffffff821682036101bb57565b6004359073ffffffffffffffffffffffffffffffffffffffff821682036101bb57565b90600182811c92168015611362575b602083101461133357565b7f4e487b7100000000000000000000000000000000000000000000000000000000600052602260045260246000fd5b91607f1691611328565b90601f7fffffffffffffffffffffffffffffffffffffffffffffffffffffffffffffffe0910116810190811067ffffffffffffffff8211176109bd57604052565b90600582101561018c5752565b80548210156113d25760005260206000200190600090565b7f4e487b7100000000000000000000000000000000000000000000000000000000600052603260045260246000fd5b3360009081527fa629f6981c2f6895a67dc766e8e03ff72d04a413d0d8773a3ca56e9e474032c160205260409020547f68e79a7bf1e0bc45d0a330c573bc367f9cf464fd326078812f301165fbda4ef19060ff161561145d5750565b604490604051907fe2517d3f0000000000000000000000000000000000000000000000000000000082523360048301526024820152fd5b80600052600060205260406000203360005260205260ff604060002054161561145d5750565b906000918083528260205273ffffffffffffffffffffffffffffffffffffffff6040842092169182845260205260ff6040842054161560001461154157808352826020526040832082845260205260408320600160ff198254161790557f2f8788117e7eff1d82e926ec794901d17c78024a50270940304540a733656f0d339380a4600190565b505090565b906000918083528260205273ffffffffffffffffffffffffffffffffffffffff6040842092169182845260205260ff6040842054166000146115415780835282602052604083208284526020526040832060ff1981541690557ff6391f5c32d9c69d2a47ea670b442974b53935d1edc7fd64eb21e047a839171b339380a4600190565b7fffffffffffffffffffffffffffffffffffffffffffffffffffffffffffffffff8114610aec5760010190565b91908201809211610aec57565b1561160a57565b60646040517f08c379a000000000000000000000000000000000000000000000000000000000815260206004820152601160248201527f436c61696d206e6f742070656e64696e670000000000000000000000000000006044820152fd5b1561166f57565b60646040517f08c379a000000000000000000000000000000000000000000000000000000000815260206004820152601160248201527f53636f72652065786365656473206d61780000000000000000000000000000006044820152fd5b81156116d7570490565b7f4e487b7100000000000000000000000000000000000000000000000000000000600052601260045260246000fd5b906000918083526003906020828152604080862093600696878601976001988960ff198254161790558887019073ffffffffffffffffffffffffffffffffffffffff9283835416815260049a8b885260028783200161176581546115c9565b905584845416928383528c89528783209c600591828b52898520908593869587938054945b85811061181d57505050505050509b8289927f8ffa8909dc108fbf712690d3b7a58d50d7b10eea9bfe29cb50b22ee30b8d9b199b9c9d9e7f16bf5e9c27e8fb3837dca08521258eaf9f8e21bb809d3dd7a1a4a00093c99a449550811515600014611815576117f892506116cd565b905b81815587429101558751908152a254169501549051908152a3565b5050906117fa565b8f8f908f9061182c84866113ba565b905490831b1c8d52528a2060ff86820154168881101561189957908f9185148061188c575b611866575b5050611861906115c9565b61178a565b611861929a996118829261187c920154906115f6565b986115c9565b9890508d38611856565b5085810154421115611851565b60248c60218b7f4e487b7100000000000000000000000000000000000000000000000000000000835252fdfea26469706673582212209e42041144b8ebe07c42aa1ffda919351a20448a8782e68447d4cef7136b883364736f6c634300081400332f8788117e7eff1d82e926ec794901d17c78024a50270940304540a733656f0d",
  "linkReferences": {},
  "deployedLinkReferences": {}
}