{
  "_format": "hh-sol-artifact-1",
  "contractName": "ConsensusChecker",
  "sourceName": "contracts/layer7/trust/ConsensusChecker.sol",
  "abi": [
    {
      "inputs": [
        {
          "internalType": "uint256",
          "name": "_requiredSigs",
          "type": "uint256"
        }
      ],
      "stateMutability": "nonpayable",
      "type": "constructor"
    },
    {
      "inputs": [],
      "name": "AccessControlBadConfirmation",
      "type": "error"
    },
    {
      "inputs": [
        {
          "internalType": "address",
          "name": "account",
          "type": "address"
        },
        {
          "internalType": "bytes32",
          "name": "neededRole",
          "type": "bytes32"
        }
      ],
      "name": "AccessControlUnauthorizedAccount",
      "type": "error"
    },
    {
      "inputs": [],
      "name": "ReentrancyGuardReentrantCall",
      "type": "error"
    },
    {
      "anonymous": false,
      "inputs": [
        {
          "indexed": true,
          "internalType": "uint256",
          "name": "proposalId",
          "type": "uint256"
        },
        {
          "indexed": false,
          "internalType": "uint256",
          "name": "approvals",
          "type": "uint256"
        }
      ],
      "name": "ProposalApproved",
      "type": "event"
    },
    {
      "anonymous": false,
      "inputs": [
        {
          "indexed": true,
          "internalType": "uint256",
          "name": "proposalId",
          "type": "uint256"
        },
        {
          "indexed": false,
          "internalType": "enum ConsensusChecker.ProposalType",
          "name": "proposalType",
          "type": "uint8"
        },
        {
          "indexed": false,
          "internalType": "address",
          "name": "target",
          "type": "address"
        }
      ],
      "name": "ProposalCreated",
      "type": "event"
    },
    {
      "anonymous": false,
      "inputs": [
        {
          "indexed": true,
          "internalType": "uint256",
          "name": "proposalId",
          "type": "uint256"
        },
        {
          "indexed": false,
          "internalType": "address",
          "name": "target",
          "type": "address"
        },
        {
          "indexed": false,
          "internalType": "bool",
          "name": "success",
          "type": "bool"
        }
      ],
      "name": "ProposalExecuted",
      "type": "event"
    },
    {
      "anonymous": false,
      "inputs": [
        {
          "indexed": true,
          "internalType": "uint256",
          "name": "proposalId",
          "type": "uint256"
        }
      ],
      "name": "ProposalExpired",
      "type": "event"
    },
    {
      "anonymous": false,
      "inputs": [
        {
          "indexed": true,
          "internalType": "uint256",
          "name": "proposalId",
          "type": "uint256"
        },
        {
          "indexed": false,
          "internalType": "uint256",
          "name": "rejections",
          "type": "uint256"
        }
      ],
      "name": "ProposalRejected",
      "type": "event"
    },
    {
      "anonymous": false,
      "inputs": [
        {
          "indexed": true,
          "internalType": "bytes32",
          "name": "role",
          "type": "bytes32"
        },
        {
          "indexed": true,
          "internalType": "bytes32",
          "name": "previousAdminRole",
          "type": "bytes32"
        },
        {
          "indexed": true,
          "internalType": "bytes32",
          "name": "newAdminRole",
          "type": "bytes32"
        }
      ],
      "name": "RoleAdminChanged",
      "type": "event"
    },
    {
      "anonymous": false,
      "inputs": [
        {
          "indexed": true,
          "internalType": "bytes32",
          "name": "role",
          "type": "bytes32"
        },
        {
          "indexed": true,
          "internalType": "address",
          "name": "account",
          "type": "address"
        },
        {
          "indexed": true,
          "internalType": "address",
          "name": "sender",
          "type": "address"
        }
      ],
      "name": "RoleGranted",
      "type": "event"
    },
    {
      "anonymous": false,
      "inputs": [
        {
          "indexed": true,
          "internalType": "bytes32",
          "name": "role",
          "type": "bytes32"
        },
        {
          "indexed": true,
          "internalType": "address",
          "name": "account",
          "type": "address"
        },
        {
          "indexed": true,
          "internalType": "address",
          "name": "sender",
          "type": "address"
        }
      ],
      "name": "RoleRevoked",
      "type": "event"
    },
    {
      "anonymous": false,
      "inputs": [
        {
          "indexed": true,
          "internalType": "uint256",
          "name": "proposalId",
          "type": "uint256"
        },
        {
          "indexed": true,
          "internalType": "address",
          "name": "signer",
          "type": "address"
        },
        {
          "indexed": false,
          "internalType": "bool",
          "name": "approved",
          "type": "bool"
        }
      ],
      "name": "VoteCast",
      "type": "event"
    },
    {
      "inputs": [],
      "name": "DEFAULT_ADMIN_ROLE",
      "outputs": [
        {
          "internalType": "bytes32",
          "name": "",
          "type": "bytes32"
        }
      ],
      "stateMutability": "view",
      "type": "function"
    },
    {
      "inputs": [],
      "name": "PROPOSER_ROLE",
      "outputs": [
        {
          "internalType": "bytes32",
          "name": "",
          "type": "bytes32"
        }
      ],
      "stateMutability": "view",
      "type": "function"
    },
    {
      "inputs": [],
      "name": "SIGNER_ROLE",
      "outputs": [
        {
          "internalType": "bytes32",
          "name": "",
          "type": "bytes32"
        }
      ],
      "stateMutability": "view",
      "type": "function"
    },
    {
      "inputs": [
        {
          "internalType": "uint256",
          "name": "",
          "type": "uint256"
        }
      ],
      "name": "approvedAt",
      "outputs": [
        {
          "internalType": "uint256",
          "name": "",
          "type": "uint256"
        }
      ],
      "stateMutability": "view",
      "type": "function"
    },
    {
      "inputs": [
        {
          "internalType": "uint256",
          "name": "proposalId",
          "type": "uint256"
        },
        {
          "internalType": "bool",
          "name": "approve",
          "type": "bool"
        }
      ],
      "name": "castVote",
      "outputs": [],
      "stateMutability": "nonpayable",
      "type": "function"
    },
    {
      "inputs": [
        {
          "internalType": "enum ConsensusChecker.ProposalType",
          "name": "proposalType",
          "type": "uint8"
        },
        {
          "internalType": "address",
          "name": "target",
          "type": "address"
        },
        {
          "internalType": "bytes",
          "name": "callData",
          "type": "bytes"
        },
        {
          "internalType": "bytes32",
          "name": "descriptionHash",
          "type": "bytes32"
        }
      ],
      "name": "createProposal",
      "outputs": [
        {
          "internalType": "uint256",
          "name": "proposalId",
          "type": "uint256"
        }
      ],
      "stateMutability": "nonpayable",
      "type": "function"
    },
    {
      "inputs": [],
      "name": "defaultRequiredSigs",
      "outputs": [
        {
          "internalType": "uint256",
          "name": "",
          "type": "uint256"
        }
      ],
      "stateMutability": "view",
      "type": "function"
    },
    {
      "inputs": [],
      "name": "defaultTimeout",
      "outputs": [
        {
          "internalType": "uint256",
          "name": "",
          "type": "uint256"
        }
      ],
      "stateMutability": "view",
      "type": "function"
    },
    {
      "inputs": [
        {
          "internalType": "uint256",
          "name": "proposalId",
          "type": "uint256"
        }
      ],
      "name": "executeProposal",
      "outputs": [],
      "stateMutability": "nonpayable",
      "type": "function"
    },
    {
      "inputs": [],
      "name": "executionDelay",
      "outputs": [
        {
          "internalType": "uint256",
          "name": "",
          "type": "uint256"
        }
      ],
      "stateMutability": "view",
      "type": "function"
    },
    {
      "inputs": [
        {
          "internalType": "bytes32",
          "name": "role",
          "type": "bytes32"
        }
      ],
      "name": "getRoleAdmin",
      "outputs": [
        {
          "internalType": "bytes32",
          "name": "",
          "type": "bytes32"
        }
      ],
      "stateMutability": "view",
      "type": "function"
    },
    {
      "inputs": [
        {
          "internalType": "address",
          "name": "signer",
          "type": "address"
        }
      ],
      "name": "getSignerHistory",
      "outputs": [
        {
          "internalType": "uint256[]",
          "name": "",
          "type": "uint256[]"
        }
      ],
      "stateMutability": "view",
      "type": "function"
    },
    {
      "inputs": [
        {
          "internalType": "bytes32",
          "name": "role",
          "type": "bytes32"
        },
        {
          "internalType": "address",
          "name": "account",
          "type": "address"
        }
      ],
      "name": "grantRole",
      "outputs": [],
      "stateMutability": "nonpayable",
      "type": "function"
    },
    {
      "inputs": [
        {
          "internalType": "uint256",
          "name": "proposalId",
          "type": "uint256"
        }
      ],
      "name": "hasConsensus",
      "outputs": [
        {
          "internalType": "bool",
          "name": "",
          "type": "bool"
        }
      ],
      "stateMutability": "view",
      "type": "function"
    },
    {
      "inputs": [
        {
          "internalType": "bytes32",
          "name": "role",
          "type": "bytes32"
        },
        {
          "internalType": "address",
          "name": "account",
          "type": "address"
        }
      ],
      "name": "hasRole",
      "outputs": [
        {
          "internalType": "bool",
          "name": "",
          "type": "bool"
        }
      ],
      "stateMutability": "view",
      "type": "function"
    },
    {
      "inputs": [
        {
          "internalType": "uint256",
          "name": "",
          "type": "uint256"
        },
        {
          "internalType": "address",
          "name": "",
          "type": "address"
        }
      ],
      "name": "hasVoted",
      "outputs": [
        {
          "internalType": "bool",
          "name": "",
          "type": "bool"
        }
      ],
      "stateMutability": "view",
      "type": "function"
    },
    {
      "inputs": [
        {
          "internalType": "uint256",
          "name": "proposalId",
          "type": "uint256"
        }
      ],
      "name": "markExpired",
      "outputs": [],
      "stateMutability": "nonpayable",
      "type": "function"
    },
    {
      "inputs": [],
      "name": "proposalCounter",
      "outputs": [
        {
          "internalType": "uint256",
          "name": "",
          "type": "uint256"
        }
      ],
      "stateMutability": "view",
      "type": "function"
    },
    {
      "inputs": [
        {
          "internalType": "uint256",
          "name": "",
          "type": "uint256"
        }
      ],
      "name": "proposals",
      "outputs": [
        {
          "internalType": "uint256",
          "name": "id",
          "type": "uint256"
        },
        {
          "internalType": "enum ConsensusChecker.ProposalType",
          "name": "proposalType",
          "type": "uint8"
        },
        {
          "internalType": "address",
          "name": "target",
          "type": "address"
        },
        {
          "internalType": "bytes",
          "name": "callData",
          "type": "bytes"
        },
        {
          "internalType": "bytes32",
          "name": "descriptionHash",
          "type": "bytes32"
        },
        {
          "internalType": "uint256",
          "name": "createdAt",
          "type": "uint256"
        },
        {
          "internalType": "uint256",
          "name": "expiresAt",
          "type": "uint256"
        },
        {
          "internalType": "uint256",
          "name": "requiredSignatures",
          "type": "uint256"
        },
        {
          "internalType": "uint256",
          "name": "approvals",
          "type": "uint256"
        },
        {
          "internalType": "uint256",
          "name": "rejections",
          "type": "uint256"
        },
        {
          "internalType": "enum ConsensusChecker.ProposalStatus",
          "name": "status",
          "type": "uint8"
        },
        {
          "internalType": "address",
          "name": "proposer",
          "type": "address"
        },
        {
          "internalType": "bool",
          "name": "executed",
          "type": "bool"
        }
      ],
      "stateMutability": "view",
      "type": "function"
    },
    {
      "inputs": [
        {
          "internalType": "bytes32",
          "name": "role",
          "type": "bytes32"
        },
        {
          "internalType": "address",
          "name": "callerConfirmation",
          "type": "address"
        }
      ],
      "name": "renounceRole",
      "outputs": [],
      "stateMutability": "nonpayable",
      "type": "function"
    },
    {
      "inputs": [
        {
          "internalType": "bytes32",
          "name": "role",
          "type": "bytes32"
        },
        {
          "internalType": "address",
          "name": "account",
          "type": "address"
        }
      ],
      "name": "revokeRole",
      "outputs": [],
      "stateMutability": "nonpayable",
      "type": "function"
    },
    {
      "inputs": [
        {
          "internalType": "uint256",
          "name": "newDelay",
          "type": "uint256"
        }
      ],
      "name": "setExecutionDelay",
      "outputs": [],
      "stateMutability": "nonpayable",
      "type": "function"
    },
    {
      "inputs": [
        {
          "internalType": "enum ConsensusChecker.ProposalType",
          "name": "proposalType",
          "type": "uint8"
        },
        {
          "internalType": "uint256",
          "name": "requiredSignatures",
          "type": "uint256"
        },
        {
          "internalType": "uint256",
          "name": "timeoutDuration",
          "type": "uint256"
        }
      ],
      "name": "setTypeConfig",
      "outputs": [],
      "stateMutability": "nonpayable",
      "type": "function"
    },
    {
      "inputs": [
        {
          "internalType": "address",
          "name": "",
          "type": "address"
        },
        {
          "internalType": "uint256",
          "name": "",
          "type": "uint256"
        }
      ],
      "name": "signerHistory",
      "outputs": [
        {
          "internalType": "uint256",
          "name": "",
          "type": "uint256"
        }
      ],
      "stateMutability": "view",
      "type": "function"
    },
    {
      "inputs": [
        {
          "internalType": "bytes4",
          "name": "interfaceId",
          "type": "bytes4"
        }
      ],
      "name": "supportsInterface",
      "outputs": [
        {
          "internalType": "bool",
          "name": "",
          "type": "bool"
        }
      ],
      "stateMutability": "view",
      "type": "function"
    },
    {
      "inputs": [
        {
          "internalType": "enum ConsensusChecker.ProposalType",
          "name": "",
          "type": "uint8"
        }
      ],
      "name": "typeConfigs",
      "outputs": [
        {
          "internalType": "uint256",
          "name": "requiredSignatures",
          "type": "uint256"
        },
        {
          "internalType": "uint256",
          "name": "timeoutDuration",
          "type": "uint256"
        },
        {
          "internalType": "uint256",
          "name": "executionDelay",
          "type": "uint256"
        }
      ],
      "stateMutability": "view",
      "type": "function"
    },
    {
      "inputs": [
        {
          "internalType": "uint256",
          "name": "",
          "type": "uint256"
        },
        {
          "internalType": "address",
          "name": "",
          "type": "address"
        }
      ],
      "name": "voteChoice",
      "outputs": [
        {
          "internalType": "bool",
          "name": "",
          "type": "bool"
        }
      ],
      "stateMutability": "view",
      "type": "function"
    }
  ],
  "bytecode": "0x608034620000d057601f62001e8638819003918201601f19168301916001600160401b03831184841017620000d557808492602094604052833981010312620000d05751600180556003805562093a80600455620151806005556001811062000099576200006d33620000eb565b5062000079336200016b565b5062000085336200020d565b50600355604051611bbb9081620002ab8239f35b60405162461bcd60e51b815260206004820152600f60248201526e4d696e2031207369676e617475726560881b6044820152606490fd5b600080fd5b634e487b7160e01b600052604160045260246000fd5b6001600160a01b031660008181527fad3228b676f7d3cd4284a5443f17f1962b36e491b30a40b2405849e597ba5fb5602052604081205490919060ff166200016757818052816020526040822081835260205260408220600160ff19825416179055339160008051602062001e668339815191528180a4600190565b5090565b6001600160a01b031660008181527f059f08e7d7ba1c82eddc57afae67f80df851baf38a099607a779825038c3ce5b60205260408120549091907fe2f4eaae4a9751e85a3e4a7b9587827a877f29914755229b07a7b2da98285f709060ff166200020857808352826020526040832082845260205260408320600160ff1982541617905560008051602062001e66833981519152339380a4600190565b505090565b6001600160a01b031660008181527f3412d5605ac6cd444957cedb533e5dacad6378b4bc819ebe3652188a665066d560205260408120549091907fb09aa5aeb3702cfd50b6b62bc4532604938f21248a27a1d5ca736082b6819cc19060ff166200020857808352826020526040832082845260205260408320600160ff1982541617905560008051602062001e66833981519152339380a460019056fe608080604052600436101561001357600080fd5b60003560e01c908163013cf08b1461162b5750806301ffc9a71461158a57806305d00bb61461152757806309f3f566146115095780630c0512e9146114eb5780630d61b5191461117b5780630ecc855514610bb157806315373e3d1461079a578063248a9ca31461076b5780632e56a5a1146106aa5780632f2ff15d1461066b57806336568abe146105ff5780633947c5b0146105c8578063438596321461056d5780635404dd7c1461054157806377fd00c5146103e05780638b257989146103c25780638f61f4f51461038757806391d148541461032c578063a1ebf35d146102f1578063a1ee0394146102a9578063a217fddf1461028d578063b784508514610228578063d547741f146101e7578063e4917d9f146101c6578063eb30e053146101a85763fb4688551461014857600080fd5b346101a35760406003193601126101a3576101616118f0565b600435600052600860205273ffffffffffffffffffffffffffffffffffffffff60406000209116600052602052602060ff604060002054166040519015158152f35b600080fd5b346101a35760006003193601126101a3576020600354604051908152f35b346101a35760206003193601126101a3576101df611973565b600435600555005b346101a35760406003193601126101a3576102266004356102066118f0565b908060005260006020526102216001604060002001546119ad565b611a5f565b005b346101a35760606003193601126101a35760043560068110156101a35761024d611973565b60026005546040519261025f84611863565b602435845261027d602085019160443583526040860193845261195a565b9351845551600184015551910155005b346101a35760006003193601126101a357602060405160008152f35b346101a35760206003193601126101a35760043560068110156101a3576102d160609161195a565b805490600260018201549101549060405192835260208301526040820152f35b346101a35760006003193601126101a35760206040517fe2f4eaae4a9751e85a3e4a7b9587827a877f29914755229b07a7b2da98285f708152f35b346101a35760406003193601126101a3576103456118f0565b600435600052600060205273ffffffffffffffffffffffffffffffffffffffff60406000209116600052602052602060ff604060002054166040519015158152f35b346101a35760006003193601126101a35760206040517fb09aa5aeb3702cfd50b6b62bc4532604938f21248a27a1d5ca736082b6819cc18152f35b346101a35760006003193601126101a3576020600554604051908152f35b346101a35760206003193601126101a3576004358060005260066020526040600020600981019081549060ff82166005811015610512576104b457600501544211156104565760ff191660031790557f88e53c486703527139dfc8d97a1e559d9bd93d3f9d52cda4e06564111e7a2643600080a2005b60646040517f08c379a000000000000000000000000000000000000000000000000000000000815260206004820152600f60248201527f4e6f7420657870697265642079657400000000000000000000000000000000006044820152fd5b60646040517f08c379a000000000000000000000000000000000000000000000000000000000815260206004820152600a60248201527f4e6f7420616374697665000000000000000000000000000000000000000000006044820152fd5b7f4e487b7100000000000000000000000000000000000000000000000000000000600052602160045260246000fd5b346101a35760206003193601126101a35760043560005260096020526020604060002054604051908152f35b346101a35760406003193601126101a3576105866118f0565b600435600052600760205273ffffffffffffffffffffffffffffffffffffffff60406000209116600052602052602060ff604060002054166040519015158152f35b346101a35760206003193601126101a357600435600052600660205260206040600020600660078201549101541115604051908152f35b346101a35760406003193601126101a3576106186118f0565b3373ffffffffffffffffffffffffffffffffffffffff8216036106415761022690600435611a5f565b60046040517f6697b232000000000000000000000000000000000000000000000000000000008152fd5b346101a35760406003193601126101a35761022660043561068a6118f0565b908060005260006020526106a56001604060002001546119ad565b6119d3565b346101a3576020806003193601126101a35773ffffffffffffffffffffffffffffffffffffffff6106d96118cd565b16600052600b8152604060002060405190818382549182815201908192600052846000209060005b868282106107575786866107178288038361187f565b604051928392818401908285525180915260408401929160005b82811061074057505050500390f35b835185528695509381019392810192600101610731565b835485529093019260019283019201610701565b346101a35760206003193601126101a35760043560005260006020526020600160406000200154604051908152f35b346101a35760406003193601126101a357600435602480358015158082036101a3573360009081527f059f08e7d7ba1c82eddc57afae67f80df851baf38a099607a779825038c3ce5b60209081526040909120549092907fe2f4eaae4a9751e85a3e4a7b9587827a877f29914755229b07a7b2da98285f709060ff1615610b7b57508460005260068352604060002091600983019160ff8354166005811015610b4d57610af05760058401544211610a93578660005260078552604060002033600052855260ff60406000205416610a36578660005260078552604060002033600052855260406000209560ff19966001888254161790558760005260088652604060002033600052865260406000208781541660ff8516179055600b8652604060002080549168010000000000000000831015610a095750906108e391600182018155611913565b81549060031b907fffffffffffffffffffffffffffffffffffffffffffffffffffffffffffffffff8a831b921b19161790556000146109f4576007830161092a8154611ae2565b90555b604051908152857fe71fcdac32df1877c1700e7bda2a03157e20993363a28fc35ac495cefc76e4d4853393a3600782018054600684015491939082116109b257505060017fc6a4fd4a703d2a2fe3167ce7f6d62bf96458b7e55042cfaa85d5c7ef3ac56eea9482541617905583600052600982524260406000205554604051908152a2005b6008015492508210156109c157005b60027ffa74c17c82b1d1960368a621d45c9afe55e65c87a2c9fe612ac7e36c382b3f7894825416179055604051908152a2005b60088301610a028154611ae2565b905561092d565b7f4e487b710000000000000000000000000000000000000000000000000000000060005260416004526000fd5b606485600d88604051927f08c379a000000000000000000000000000000000000000000000000000000000845260048401528201527f416c726561647920766f746564000000000000000000000000000000000000006044820152fd5b606485601088604051927f08c379a000000000000000000000000000000000000000000000000000000000845260048401528201527f50726f706f73616c2065787069726564000000000000000000000000000000006044820152fd5b606485601388604051927f08c379a000000000000000000000000000000000000000000000000000000000845260048401528201527f50726f706f73616c206e6f7420616374697665000000000000000000000000006044820152fd5b867f4e487b710000000000000000000000000000000000000000000000000000000060005260216004526000fd5b84604491604051917fe2517d3f000000000000000000000000000000000000000000000000000000008352336004840152820152fd5b346101a35760806003193601126101a357600660043510156101a357610bd56118f0565b67ffffffffffffffff604435116101a3573660236044350112156101a35767ffffffffffffffff60443560040135116101a357366024604435600401356044350101116101a3573360009081527f3412d5605ac6cd444957cedb533e5dacad6378b4bc819ebe3652188a665066d560205260409020547fb09aa5aeb3702cfd50b6b62bc4532604938f21248a27a1d5ca736082b6819cc19060ff16156111445750610c81600254611ae2565b80600255610c9060043561195a565b604051610c9c81611863565b81549081815260406002600185015494856020850152015491015280151560001461113a57905b801561112e57610cd4905b42611b3e565b90604051916101a0830183811067ffffffffffffffff8211176110ff57604052838352600435602084015273ffffffffffffffffffffffffffffffffffffffff85166040840152610d2a60443560040135611b4b565b610d37604051918261187f565b6044356004810135808352906024016020830137600060206044356004013583010152606084015260643560808401524260a084015260c083015260e08201526000610100820152600061012082015260006101408201523361016082015260006101808201528160005260066020526040600020815181556020820151600681101561051257600182018054604085015174ffffffffffffffffffffffffffffffffffffffff0060089190911b1660ff939093167fffffffffffffffffffffff00000000000000000000000000000000000000000090911617919091179055606082015180519067ffffffffffffffff82116110ff57610e3b6002840154611810565b601f81116110b8575b50602090601f831160011461100b57600993929160009183611000575b50507fffffffffffffffffffffffffffffffffffffffffffffffffffffffffffffffff8260011b9260031b1c19161760028201555b6080830151600382015560a0830151600482015560c0830151600582015560e0830151600682015561010083015160078201556101208301516008820155019061014081015190600582101561051257602094836101806040937f3263432a41f78a4701cc9465f62411ed717ade32290c084135a3dd6b29f4bf289560ff60ff198a9954169116178355610f8673ffffffffffffffffffffffffffffffffffffffff6101608301511684907fffffffffffffffffffffff0000000000000000000000000000000000000000ff74ffffffffffffffffffffffffffffffffffffffff0083549260081b169116179055565b015115157fffffffffffffffffffff00ffffffffffffffffffffffffffffffffffffffffff75ff00000000000000000000000000000000000000000083549260a81b16911617905573ffffffffffffffffffffffffffffffffffffffff825191610ff2836004356118c0565b1686820152a2604051908152f35b015190508780610e61565b907fffffffffffffffffffffffffffffffffffffffffffffffffffffffffffffffe08316916002850160005260206000209260005b8181106110a05750916001939185600997969410611069575b505050811b016002820155610e96565b01517fffffffffffffffffffffffffffffffffffffffffffffffffffffffffffffffff60f88460031b161c19169055878080611059565b92936020600181928786015181550195019301611040565b600284016000526020600020601f840160051c8101602085106110f8575b601f830160051c820181106110ec575050610e44565b600081556001016110d6565b50806110d6565b7f4e487b7100000000000000000000000000000000000000000000000000000000600052604160045260246000fd5b50610cd4600454610cce565b5060035490610cc3565b604490604051907fe2517d3f0000000000000000000000000000000000000000000000000000000082523360048301526024820152fd5b346101a3576020806003193601126101a3576004359060019160028354146114c15760028355806000526006825260406000209060098201805460ff811660058110156105125786036114635760ff8160a81c166114055782600052600985526111ed60406000205460055490611b3e565b42106113a7577fffffffffffffffffffff00ffffffffffffffffffffffffffffffffffffffff0016750100000000000000000000000000000000000000000417905581840180546040516002909401805492949260009161124d82611810565b9189811690811561138f5750600114611356575b50509160008060409383827f4fce71a6eb6a89b3e4c71722f870a263627cbfddc3a603c307803d89ad39e7cb9773ffffffffffffffffffffffffffffffffffffffff968791039360081c165af1943d15611351573d6112bf81611b4b565b906112cc8551928361187f565b81526000883d92013e5b5460081c169381519485521593841586820152a26112f357508055005b606490604051907f08c379a00000000000000000000000000000000000000000000000000000000082526004820152601060248201527f457865637574696f6e206661696c6564000000000000000000000000000000006044820152fd5b6112d6565b9091506000528560002086886000925b84841061137d575050509083019050600080611261565b80548488015201910190888891611366565b60ff1916865250508015150283019050600080611261565b606485604051907f08c379a00000000000000000000000000000000000000000000000000000000082526004820152601760248201527f457865637574696f6e2064656c6179206e6f74206d65740000000000000000006044820152fd5b606485604051907f08c379a00000000000000000000000000000000000000000000000000000000082526004820152601060248201527f416c7265616479206578656375746564000000000000000000000000000000006044820152fd5b606485604051907f08c379a00000000000000000000000000000000000000000000000000000000082526004820152601560248201527f50726f706f73616c206e6f7420617070726f76656400000000000000000000006044820152fd5b60046040517f3ee5aeb5000000000000000000000000000000000000000000000000000000008152fd5b346101a35760006003193601126101a3576020600254604051908152f35b346101a35760006003193601126101a3576020600454604051908152f35b346101a35760406003193601126101a3576115406118cd565b73ffffffffffffffffffffffffffffffffffffffff6024359116600052600b602052604060002080548210156101a35760209161157c91611913565b90546040519160031b1c8152f35b346101a35760206003193601126101a3576004357fffffffff0000000000000000000000000000000000000000000000000000000081168091036101a357807f7965db0b0000000000000000000000000000000000000000000000000000000060209214908115611601575b506040519015158152f35b7f01ffc9a700000000000000000000000000000000000000000000000000000000915014826115f6565b346101a357602090816003193601126101a357600435600052600682526040600020908154926001808401549083600286019160009083549361166d85611810565b948585528783821691826000146117ed5750506001146117ae575b50506116969250038461187f565b6003840154936004810154600582015460068301549060078401549260096008860154950154966040519a8b526116d2818c0160ff89166118c0565b73ffffffffffffffffffffffffffffffffffffffff809760081c1660408c01526101a0988960608d01528051809a8d015260005b8a8110611799575050506101c09860008a8a8d01015260808b015260a08a015260c089015260e088015261010087015261012086015260ff82169260058410156105125760ff7fffffffffffffffffffffffffffffffffffffffffffffffffffffffffffffffe093601f9388966101408801528160081c1661016087015260a81c16151561018085015201168101030190f35b8181018301518d82016101c001528201611706565b86925060005281600020906000915b8583106117d557505061169693508201018880611688565b8054838a0185015288945087939092019181016117bd565b9150935061169695925060ff1991501682840152151560051b8201018880611688565b90600182811c92168015611859575b602083101461182a57565b7f4e487b7100000000000000000000000000000000000000000000000000000000600052602260045260246000fd5b91607f169161181f565b6060810190811067ffffffffffffffff8211176110ff57604052565b90601f7fffffffffffffffffffffffffffffffffffffffffffffffffffffffffffffffe0910116810190811067ffffffffffffffff8211176110ff57604052565b9060068210156105125752565b6004359073ffffffffffffffffffffffffffffffffffffffff821682036101a357565b6024359073ffffffffffffffffffffffffffffffffffffffff821682036101a357565b805482101561192b5760005260206000200190600090565b7f4e487b7100000000000000000000000000000000000000000000000000000000600052603260045260246000fd5b600681101561051257600052600a602052604060002090565b3360009081527fad3228b676f7d3cd4284a5443f17f1962b36e491b30a40b2405849e597ba5fb5602052604081205460ff16156111445750565b80600052600060205260406000203360005260205260ff60406000205416156111445750565b906000918083528260205273ffffffffffffffffffffffffffffffffffffffff6040842092169182845260205260ff60408420541615600014611a5a57808352826020526040832082845260205260408320600160ff198254161790557f2f8788117e7eff1d82e926ec794901d17c78024a50270940304540a733656f0d339380a4600190565b505090565b906000918083528260205273ffffffffffffffffffffffffffffffffffffffff6040842092169182845260205260ff604084205416600014611a5a5780835282602052604083208284526020526040832060ff1981541690557ff6391f5c32d9c69d2a47ea670b442974b53935d1edc7fd64eb21e047a839171b339380a4600190565b7fffffffffffffffffffffffffffffffffffffffffffffffffffffffffffffffff8114611b0f5760010190565b7f4e487b7100000000000000000000000000000000000000000000000000000000600052601160045260246000fd5b91908201809211611b0f57565b67ffffffffffffffff81116110ff57601f017fffffffffffffffffffffffffffffffffffffffffffffffffffffffffffffffe0166020019056fea2646970667358221220c87fcaa0b509bddd7a71b33fbbe62abb9e14353521605f752e1be1d294537aca64736f6c634300081400332f8788117e7eff1d82e926ec794901d17c78024a50270940304540a733656f0d",
  "linkReferences": {},
  "deployedLinkReferences": {}
}