{
  "_format": "hh-sol-artifact-1",
  "contractName": "DutchAuction",
  "sourceName": "contracts/layer6/pricing/DutchAuction.sol",
  "abi": [
    {
      "inputs": [
        {
          "internalType": "address",
          "name": "_treasury",
          "type": "address"
        }
      ],
      "stateMutability": "nonpayable",
      "type": "constructor"
    },
    {
      "inputs": [],
      "name": "AccessControlBadConfirmation",
      "type": "error"
    },
    {
      "inputs": [
        {
          "internalType": "address",
          "name": "account",
          "type": "address"
        },
        {
          "internalType": "bytes32",
          "name": "neededRole",
          "type": "bytes32"
        }
      ],
      "name": "AccessControlUnauthorizedAccount",
      "type": "error"
    },
    {
      "inputs": [],
      "name": "ReentrancyGuardReentrantCall",
      "type": "error"
    },
    {
      "anonymous": false,
      "inputs": [
        {
          "indexed": true,
          "internalType": "uint256",
          "name": "auctionId",
          "type": "uint256"
        }
      ],
      "name": "AuctionExpired",
      "type": "event"
    },
    {
      "anonymous": false,
      "inputs": [
        {
          "indexed": true,
          "internalType": "uint256",
          "name": "auctionId",
          "type": "uint256"
        },
        {
          "indexed": true,
          "internalType": "address",
          "name": "seller",
          "type": "address"
        },
        {
          "indexed": false,
          "internalType": "uint256",
          "name": "startPrice",
          "type": "uint256"
        },
        {
          "indexed": false,
          "internalType": "uint256",
          "name": "endPrice",
          "type": "uint256"
        },
        {
          "indexed": false,
          "internalType": "uint256",
          "name": "endTime",
          "type": "uint256"
        }
      ],
      "name": "AuctionStarted",
      "type": "event"
    },
    {
      "anonymous": false,
      "inputs": [
        {
          "indexed": true,
          "internalType": "uint256",
          "name": "auctionId",
          "type": "uint256"
        },
        {
          "indexed": true,
          "internalType": "address",
          "name": "winner",
          "type": "address"
        },
        {
          "indexed": false,
          "internalType": "uint256",
          "name": "price",
          "type": "uint256"
        }
      ],
      "name": "AuctionWon",
      "type": "event"
    },
    {
      "anonymous": false,
      "inputs": [
        {
          "indexed": true,
          "internalType": "bytes32",
          "name": "role",
          "type": "bytes32"
        },
        {
          "indexed": true,
          "internalType": "bytes32",
          "name": "previousAdminRole",
          "type": "bytes32"
        },
        {
          "indexed": true,
          "internalType": "bytes32",
          "name": "newAdminRole",
          "type": "bytes32"
        }
      ],
      "name": "RoleAdminChanged",
      "type": "event"
    },
    {
      "anonymous": false,
      "inputs": [
        {
          "indexed": true,
          "internalType": "bytes32",
          "name": "role",
          "type": "bytes32"
        },
        {
          "indexed": true,
          "internalType": "address",
          "name": "account",
          "type": "address"
        },
        {
          "indexed": true,
          "internalType": "address",
          "name": "sender",
          "type": "address"
        }
      ],
      "name": "RoleGranted",
      "type": "event"
    },
    {
      "anonymous": false,
      "inputs": [
        {
          "indexed": true,
          "internalType": "bytes32",
          "name": "role",
          "type": "bytes32"
        },
        {
          "indexed": true,
          "internalType": "address",
          "name": "account",
          "type": "address"
        },
        {
          "indexed": true,
          "internalType": "address",
          "name": "sender",
          "type": "address"
        }
      ],
      "name": "RoleRevoked",
      "type": "event"
    },
    {
      "inputs": [],
      "name": "DEFAULT_ADMIN_ROLE",
      "outputs": [
        {
          "internalType": "bytes32",
          "name": "",
          "type": "bytes32"
        }
      ],
      "stateMutability": "view",
      "type": "function"
    },
    {
      "inputs": [],
      "name": "OPERATOR_ROLE",
      "outputs": [
        {
          "internalType": "bytes32",
          "name": "",
          "type": "bytes32"
        }
      ],
      "stateMutability": "view",
      "type": "function"
    },
    {
      "inputs": [
        {
          "internalType": "uint256",
          "name": "",
          "type": "uint256"
        }
      ],
      "name": "auctions",
      "outputs": [
        {
          "internalType": "uint256",
          "name": "auctionId",
          "type": "uint256"
        },
        {
          "internalType": "address",
          "name": "seller",
          "type": "address"
        },
        {
          "internalType": "address",
          "name": "nftContract",
          "type": "address"
        },
        {
          "internalType": "uint256",
          "name": "tokenId",
          "type": "uint256"
        },
        {
          "internalType": "uint256",
          "name": "startPrice",
          "type": "uint256"
        },
        {
          "internalType": "uint256",
          "name": "endPrice",
          "type": "uint256"
        },
        {
          "internalType": "uint256",
          "name": "startTime",
          "type": "uint256"
        },
        {
          "internalType": "uint256",
          "name": "endTime",
          "type": "uint256"
        },
        {
          "internalType": "uint256",
          "name": "priceDropInterval",
          "type": "uint256"
        },
        {
          "internalType": "uint256",
          "name": "priceDropAmount",
          "type": "uint256"
        },
        {
          "internalType": "bool",
          "name": "settled",
          "type": "bool"
        },
        {
          "internalType": "address",
          "name": "winner",
          "type": "address"
        },
        {
          "internalType": "uint256",
          "name": "finalPrice",
          "type": "uint256"
        }
      ],
      "stateMutability": "view",
      "type": "function"
    },
    {
      "inputs": [
        {
          "internalType": "uint256",
          "name": "auctionId",
          "type": "uint256"
        }
      ],
      "name": "buy",
      "outputs": [],
      "stateMutability": "payable",
      "type": "function"
    },
    {
      "inputs": [
        {
          "internalType": "uint256",
          "name": "auctionId",
          "type": "uint256"
        }
      ],
      "name": "getCurrentPrice",
      "outputs": [
        {
          "internalType": "uint256",
          "name": "",
          "type": "uint256"
        }
      ],
      "stateMutability": "view",
      "type": "function"
    },
    {
      "inputs": [
        {
          "internalType": "bytes32",
          "name": "role",
          "type": "bytes32"
        }
      ],
      "name": "getRoleAdmin",
      "outputs": [
        {
          "internalType": "bytes32",
          "name": "",
          "type": "bytes32"
        }
      ],
      "stateMutability": "view",
      "type": "function"
    },
    {
      "inputs": [
        {
          "internalType": "address",
          "name": "seller",
          "type": "address"
        }
      ],
      "name": "getSellerAuctions",
      "outputs": [
        {
          "internalType": "uint256[]",
          "name": "",
          "type": "uint256[]"
        }
      ],
      "stateMutability": "view",
      "type": "function"
    },
    {
      "inputs": [
        {
          "internalType": "bytes32",
          "name": "role",
          "type": "bytes32"
        },
        {
          "internalType": "address",
          "name": "account",
          "type": "address"
        }
      ],
      "name": "grantRole",
      "outputs": [],
      "stateMutability": "nonpayable",
      "type": "function"
    },
    {
      "inputs": [
        {
          "internalType": "bytes32",
          "name": "role",
          "type": "bytes32"
        },
        {
          "internalType": "address",
          "name": "account",
          "type": "address"
        }
      ],
      "name": "hasRole",
      "outputs": [
        {
          "internalType": "bool",
          "name": "",
          "type": "bool"
        }
      ],
      "stateMutability": "view",
      "type": "function"
    },
    {
      "inputs": [],
      "name": "platformFeeBps",
      "outputs": [
        {
          "internalType": "uint256",
          "name": "",
          "type": "uint256"
        }
      ],
      "stateMutability": "view",
      "type": "function"
    },
    {
      "inputs": [
        {
          "internalType": "uint256",
          "name": "auctionId",
          "type": "uint256"
        }
      ],
      "name": "reclaim",
      "outputs": [],
      "stateMutability": "nonpayable",
      "type": "function"
    },
    {
      "inputs": [
        {
          "internalType": "bytes32",
          "name": "role",
          "type": "bytes32"
        },
        {
          "internalType": "address",
          "name": "callerConfirmation",
          "type": "address"
        }
      ],
      "name": "renounceRole",
      "outputs": [],
      "stateMutability": "nonpayable",
      "type": "function"
    },
    {
      "inputs": [
        {
          "internalType": "bytes32",
          "name": "role",
          "type": "bytes32"
        },
        {
          "internalType": "address",
          "name": "account",
          "type": "address"
        }
      ],
      "name": "revokeRole",
      "outputs": [],
      "stateMutability": "nonpayable",
      "type": "function"
    },
    {
      "inputs": [
        {
          "internalType": "address",
          "name": "",
          "type": "address"
        },
        {
          "internalType": "uint256",
          "name": "",
          "type": "uint256"
        }
      ],
      "name": "sellerAuctions",
      "outputs": [
        {
          "internalType": "uint256",
          "name": "",
          "type": "uint256"
        }
      ],
      "stateMutability": "view",
      "type": "function"
    },
    {
      "inputs": [
        {
          "internalType": "uint256",
          "name": "bps",
          "type": "uint256"
        }
      ],
      "name": "setPlatformFee",
      "outputs": [],
      "stateMutability": "nonpayable",
      "type": "function"
    },
    {
      "inputs": [
        {
          "internalType": "address",
          "name": "nftContract",
          "type": "address"
        },
        {
          "internalType": "uint256",
          "name": "tokenId",
          "type": "uint256"
        },
        {
          "internalType": "uint256",
          "name": "startPrice",
          "type": "uint256"
        },
        {
          "internalType": "uint256",
          "name": "endPrice",
          "type": "uint256"
        },
        {
          "internalType": "uint256",
          "name": "duration",
          "type": "uint256"
        },
        {
          "internalType": "uint256",
          "name": "dropInterval",
          "type": "uint256"
        },
        {
          "internalType": "uint256",
          "name": "dropAmount",
          "type": "uint256"
        }
      ],
      "name": "startAuction",
      "outputs": [
        {
          "internalType": "uint256",
          "name": "",
          "type": "uint256"
        }
      ],
      "stateMutability": "nonpayable",
      "type": "function"
    },
    {
      "inputs": [
        {
          "internalType": "bytes4",
          "name": "i",
          "type": "bytes4"
        }
      ],
      "name": "supportsInterface",
      "outputs": [
        {
          "internalType": "bool",
          "name": "",
          "type": "bool"
        }
      ],
      "stateMutability": "view",
      "type": "function"
    },
    {
      "inputs": [],
      "name": "totalAuctions",
      "outputs": [
        {
          "internalType": "uint256",
          "name": "",
          "type": "uint256"
        }
      ],
      "stateMutability": "view",
      "type": "function"
    },
    {
      "inputs": [],
      "name": "totalVolume",
      "outputs": [
        {
          "internalType": "uint256",
          "name": "",
          "type": "uint256"
        }
      ],
      "stateMutability": "view",
      "type": "function"
    },
    {
      "inputs": [],
      "name": "treasury",
      "outputs": [
        {
          "internalType": "address",
          "name": "",
          "type": "address"
        }
      ],
      "stateMutability": "view",
      "type": "function"
    }
  ],
  "bytecode": "0x6080346200009b57601f620017f238819003918201601f19168301916001600160401b03831184841017620000a0578084926020946040528339810103126200009b57516001600160a01b038116908190036200009b576001805560fa600655600580546001600160a01b0319169190911790556200007e33620000b6565b506200008a3362000136565b506040516115f99081620001d98239f35b600080fd5b634e487b7160e01b600052604160045260246000fd5b6001600160a01b031660008181527fad3228b676f7d3cd4284a5443f17f1962b36e491b30a40b2405849e597ba5fb5602052604081205490919060ff166200013257818052816020526040822081835260205260408220600160ff198254161790553391600080516020620017d28339815191528180a4600190565b5090565b6001600160a01b031660008181527fee57cd81e84075558e8fcc182a1f4393f91fc97f963a136e66b7f949a62f319f60205260408120549091907f97667070c54ef182b0f5858b034beac1b6f3089aa2d3188bb1e8929f4fa9b9299060ff16620001d357808352826020526040832082845260205260408320600160ff19825416179055600080516020620017d2833981519152339380a4600190565b50509056fe608080604052600436101561001357600080fd5b600090813560e01c90816301ffc9a71461103f5750806312e8e2c314610fc657806316002f4a14610fa857806322dcd13e14610f8a578063248a9ca314610f5e5780632dabbeed14610d4d5780632f2ff15d14610d1057806336568abe14610ca35780635036b0bc14610c40578063571a26a014610b715780635f81a57c14610b5357806361d027b314610b1f57806369ce5d87146109f657806391d148541461099d578063a217fddf14610981578063bc027ba51461048e578063c55d0f5614610467578063d547741f14610426578063d96a094a1461013a5763f5b541a6146100fd57600080fd5b3461013757806003193601126101375760206040517f97667070c54ef182b0f5858b034beac1b6f3089aa2d3188bb1e8929f4fa9b9298152f35b80fd5b50602060031936011261013757600435610152611438565b80825260036020526040822090600a820180549261017360ff8516156113b3565b600781015442116103c85761018783611473565b9384341061036a577fffffffffffffffffffffff000000000000000000000000000000000000000000163360081b74ffffffffffffffffffffffffffffffffffffffff001617600117909155839083600b82015573ffffffffffffffffffffffffffffffffffffffff9081600282015416600382015490803b15610366576040517f42842e0e000000000000000000000000000000000000000000000000000000008152306004820152336024820152604481019290925284908290606490829084905af190811561035b578491610343575b505061271061026b60065487611418565b04918380808086856005541682821561033a575bf11561032f57839261029b84939260018594015416918861142b565b90828215610326575bf115610312578134116102f4575b6102be826008546113a6565b6008556040519182527f52746d7aec8ff88ae2ea99721a954665b176448184751f576b56019cf259344c60203393a36001805580f35b82808080610302863461142b565b81811561031d575b3390f16102b2575b6040513d84823e3d90fd5b506108fc61030a565b506108fc6102a4565b6040513d85823e3d90fd5b506108fc61027f565b61034c90611319565b61035757823861025a565b8280fd5b6040513d86823e3d90fd5b8480fd5b60646040517f08c379a000000000000000000000000000000000000000000000000000000000815260206004820152601460248201527f496e73756666696369656e74207061796d656e740000000000000000000000006044820152fd5b60646040517f08c379a000000000000000000000000000000000000000000000000000000000815260206004820152600f60248201527f41756374696f6e206578706972656400000000000000000000000000000000006044820152fd5b5034610137576040600319360112610137576104636004356104466110df565b908084528360205261045e6001604086200154611171565b611278565b5080f35b5034610137576020600319360112610137576020610486600435611473565b604051908152f35b50346101375760e0600319360112610137576104a8611107565b602435906064356044351180610976575b1561091857610e10608435106108ba5760a4351561085c5773ffffffffffffffffffffffffffffffffffffffff81163b15610357576040517f23b872dd00000000000000000000000000000000000000000000000000000000815233600482015230602482015260448101839052839081816064818373ffffffffffffffffffffffffffffffffffffffff88165af1801561031257610848575b505061056060025461134a565b9182600255610571608435426113a6565b9073ffffffffffffffffffffffffffffffffffffffff604051936105948561132d565b8585523360208601521660408401526060830152604435608083015260643560a08301524260c083015260e082015260a43561010082015260c4356101208201528261014082015282610160820152826101808201528183526003602052600b6101806040852092805184556001840173ffffffffffffffffffffffffffffffffffffffff602083015116907fffffffffffffffffffffffff00000000000000000000000000000000000000009182825416179055600285019073ffffffffffffffffffffffffffffffffffffffff60408401511690825416179055606081015160038501556080810151600485015560a0810151600585015560c0810151600685015560e0810151600785015561010081015160088501556101208101516009850155610753600a8501610140830151151560ff7fffffffffffffffffffffffffffffffffffffffffffffffffffffffffffffff00835416911617815573ffffffffffffffffffffffffffffffffffffffff610160840151167fffffffffffffffffffffff0000000000000000000000000000000000000000ff74ffffffffffffffffffffffffffffffffffffffff0083549260081b169116179055565b01519101553382526004602052604082208054926801000000000000000084101561081b57508261078b91600160209501815561112a565b81549060031b907fffffffffffffffffffffffffffffffffffffffffffffffffffffffffffffffff84831b921b19161790556107c860075461134a565b6007556107d7608435426113a6565b604051906044358252606435848301526040820152817f891c95c01123dab4c2e9f5730be4341f0389880525f5d7c2a645a77555c27ff760603393a3604051908152f35b807f4e487b7100000000000000000000000000000000000000000000000000000000602492526041600452fd5b61085190611319565b610357578238610553565b60646040517f08c379a000000000000000000000000000000000000000000000000000000000815260206004820152601160248201527f44726f7020696e74657276616c203e20300000000000000000000000000000006044820152fd5b60646040517f08c379a000000000000000000000000000000000000000000000000000000000815260206004820152601360248201527f4d696e203120686f7572206475726174696f6e000000000000000000000000006044820152fd5b60646040517f08c379a000000000000000000000000000000000000000000000000000000000815260206004820152600e60248201527f496e76616c6964207072696365730000000000000000000000000000000000006044820152fd5b5060643515156104b9565b5034610137578060031936011261013757602090604051908152f35b50346101375760406003193601126101375773ffffffffffffffffffffffffffffffffffffffff60406109ce6110df565b92600435815280602052209116600052602052602060ff604060002054166040519015158152f35b503461013757602080600319360112610b1b5773ffffffffffffffffffffffffffffffffffffffff610a26611107565b168252600481526040822090604051908180928285549182815201908195875283872090875b85828210610b04575050505003601f017fffffffffffffffffffffffffffffffffffffffffffffffffffffffffffffffe01682019367ffffffffffffffff851183861017610ad55790918493928460405280850191818652518092526040850193925b828110610abe57505050500390f35b835185528695509381019392810192600101610aaf565b7f4e487b7100000000000000000000000000000000000000000000000000000000600052604160045260246000fd5b835485528795509093019260019283019201610a4c565b5080fd5b5034610137578060031936011261013757602073ffffffffffffffffffffffffffffffffffffffff60055416604051908152f35b50346101375780600319360112610137576020600854604051908152f35b50346101375760206003193601126101375760406101a091600435815260036020522080549073ffffffffffffffffffffffffffffffffffffffff806001830154169181600282015416600382015460048301546005840154600685015490600786015492600887015494600988015496600b600a8a01549901549a6040519c8d5260208d015260408c015260608b015260808a015260a089015260c088015260e087015261010086015261012085015260ff8116151561014085015260081c16610160830152610180820152f35b503461013757604060031936011261013757610c5a611107565b73ffffffffffffffffffffffffffffffffffffffff16815260046020526040812080546024359290831015610137576020610c95848461112a565b90546040519160031b1c8152f35b503461013757604060031936011261013757610cbd6110df565b3373ffffffffffffffffffffffffffffffffffffffff821603610ce65761046390600435611278565b60046040517f6697b232000000000000000000000000000000000000000000000000000000008152fd5b503461013757604060031936011261013757610463600435610d306110df565b9080845283602052610d486001604086200154611171565b6111ce565b50346101375760206003193601126101375760043590610d6b611438565b81815260036020526040812073ffffffffffffffffffffffffffffffffffffffff908160018201541691338303610f0057600a820190815491610db160ff8416156113b3565b6007840154421115610ea25760017fffffffffffffffffffffffffffffffffffffffffffffffffffffffffffffff006003941617905560028301541691015491813b15610e9e576040517f42842e0e00000000000000000000000000000000000000000000000000000000815230600482015273ffffffffffffffffffffffffffffffffffffffff919091166024820152604481019290925282908290606490829084905af1801561031257610e8f575b50907fb5e6cbc8a13a6bedcfd3d4a24613565c9c6d87e4d62d6e92135b8729cd3891618280a26001805580f35b610e9890611319565b38610e62565b8380fd5b60646040517f08c379a000000000000000000000000000000000000000000000000000000000815260206004820152600f60248201527f4e6f7420657870697265642079657400000000000000000000000000000000006044820152fd5b60646040517f08c379a000000000000000000000000000000000000000000000000000000000815260206004820152600a60248201527f4e6f742073656c6c6572000000000000000000000000000000000000000000006044820152fd5b503461013757602060031936011261013757600160406020926004358152808452200154604051908152f35b50346101375780600319360112610137576020600654604051908152f35b50346101375780600319360112610137576020600754604051908152f35b503461013757602060031936011261013757600435818052816020526040822033835260205260ff60408320541615611008576103e88111610b1b5760065580f35b604482604051907fe2517d3f0000000000000000000000000000000000000000000000000000000082523360048301526024820152fd5b905034610b1b576020600319360112610b1b576004357fffffffff00000000000000000000000000000000000000000000000000000000811680910361035757602092507f7965db0b0000000000000000000000000000000000000000000000000000000081149081156110b5575b5015158152f35b7f01ffc9a700000000000000000000000000000000000000000000000000000000915014386110ae565b6024359073ffffffffffffffffffffffffffffffffffffffff8216820361110257565b600080fd5b6004359073ffffffffffffffffffffffffffffffffffffffff8216820361110257565b80548210156111425760005260206000200190600090565b7f4e487b7100000000000000000000000000000000000000000000000000000000600052603260045260246000fd5b80600052600060205260406000203360005260205260ff60406000205416156111975750565b604490604051907fe2517d3f0000000000000000000000000000000000000000000000000000000082523360048301526024820152fd5b906000918083528260205273ffffffffffffffffffffffffffffffffffffffff6040842092169182845260205260ff604084205416156000146112735780835282602052604083208284526020526040832060017fffffffffffffffffffffffffffffffffffffffffffffffffffffffffffffff008254161790557f2f8788117e7eff1d82e926ec794901d17c78024a50270940304540a733656f0d339380a4600190565b505090565b906000918083528260205273ffffffffffffffffffffffffffffffffffffffff6040842092169182845260205260ff604084205416600014611273578083528260205260408320828452602052604083207fffffffffffffffffffffffffffffffffffffffffffffffffffffffffffffff0081541690557ff6391f5c32d9c69d2a47ea670b442974b53935d1edc7fd64eb21e047a839171b339380a4600190565b67ffffffffffffffff8111610ad557604052565b6101a0810190811067ffffffffffffffff821117610ad557604052565b7fffffffffffffffffffffffffffffffffffffffffffffffffffffffffffffffff81146113775760010190565b7f4e487b7100000000000000000000000000000000000000000000000000000000600052601160045260246000fd5b9190820180921161137757565b156113ba57565b60646040517f08c379a000000000000000000000000000000000000000000000000000000000815260206004820152600f60248201527f416c726561647920736574746c656400000000000000000000000000000000006044820152fd5b8181029291811591840414171561137757565b9190820391821161137757565b600260015414611449576002600155565b60046040517f3ee5aeb5000000000000000000000000000000000000000000000000000000008152fd5b600052600360205260406000206040519061148d8261132d565b8054825273ffffffffffffffffffffffffffffffffffffffff806001830154166020840152806002830154166040840152600382015460608401526004820154916080840192835260058101549360a08101948086526006830154918260c08201526007840154908160e0820152610180600b60088701549661010084019788526009810154986101208501998a52600a82015460ff8116151561014087015260081c1661016085015201549101524210156115ba575061154e904261142b565b9051801561158b5761156292519104611418565b9061156e8351836113a6565b90518091101561158557611582925061142b565b90565b50505190565b7f4e487b7100000000000000000000000000000000000000000000000000000000600052601260045260246000fd5b9450505050509056fea2646970667358221220e5ab0b024104891b2d5b046c4ff9daf4a76f1e68d99231263664e0ae37f397e464736f6c634300081400332f8788117e7eff1d82e926ec794901d17c78024a50270940304540a733656f0d",
  "linkReferences": {},
  "deployedLinkReferences": {}
}