{
  "_format": "hh-sol-artifact-1",
  "contractName": "SpatialMatches",
  "sourceName": "contracts/layer5/SpatialMatches.sol",
  "abi": [
    {
      "inputs": [],
      "stateMutability": "nonpayable",
      "type": "constructor"
    },
    {
      "inputs": [],
      "name": "AccessControlBadConfirmation",
      "type": "error"
    },
    {
      "inputs": [
        {
          "internalType": "address",
          "name": "account",
          "type": "address"
        },
        {
          "internalType": "bytes32",
          "name": "neededRole",
          "type": "bytes32"
        }
      ],
      "name": "AccessControlUnauthorizedAccount",
      "type": "error"
    },
    {
      "anonymous": false,
      "inputs": [
        {
          "indexed": true,
          "internalType": "bytes32",
          "name": "role",
          "type": "bytes32"
        },
        {
          "indexed": true,
          "internalType": "bytes32",
          "name": "previousAdminRole",
          "type": "bytes32"
        },
        {
          "indexed": true,
          "internalType": "bytes32",
          "name": "newAdminRole",
          "type": "bytes32"
        }
      ],
      "name": "RoleAdminChanged",
      "type": "event"
    },
    {
      "anonymous": false,
      "inputs": [
        {
          "indexed": true,
          "internalType": "bytes32",
          "name": "role",
          "type": "bytes32"
        },
        {
          "indexed": true,
          "internalType": "address",
          "name": "account",
          "type": "address"
        },
        {
          "indexed": true,
          "internalType": "address",
          "name": "sender",
          "type": "address"
        }
      ],
      "name": "RoleGranted",
      "type": "event"
    },
    {
      "anonymous": false,
      "inputs": [
        {
          "indexed": true,
          "internalType": "bytes32",
          "name": "role",
          "type": "bytes32"
        },
        {
          "indexed": true,
          "internalType": "address",
          "name": "account",
          "type": "address"
        },
        {
          "indexed": true,
          "internalType": "address",
          "name": "sender",
          "type": "address"
        }
      ],
      "name": "RoleRevoked",
      "type": "event"
    },
    {
      "anonymous": false,
      "inputs": [
        {
          "indexed": true,
          "internalType": "uint256",
          "name": "spatialMatchId",
          "type": "uint256"
        },
        {
          "indexed": false,
          "internalType": "uint256",
          "name": "spectators",
          "type": "uint256"
        }
      ],
      "name": "SpatialMatchEnded",
      "type": "event"
    },
    {
      "anonymous": false,
      "inputs": [
        {
          "indexed": true,
          "internalType": "uint256",
          "name": "spatialMatchId",
          "type": "uint256"
        },
        {
          "indexed": false,
          "internalType": "uint256",
          "name": "matchId",
          "type": "uint256"
        },
        {
          "indexed": false,
          "internalType": "uint256",
          "name": "zoneId",
          "type": "uint256"
        }
      ],
      "name": "SpatialMatchStarted",
      "type": "event"
    },
    {
      "anonymous": false,
      "inputs": [
        {
          "indexed": true,
          "internalType": "uint256",
          "name": "zoneId",
          "type": "uint256"
        },
        {
          "indexed": false,
          "internalType": "address",
          "name": "spectator",
          "type": "address"
        }
      ],
      "name": "SpectatorEntered",
      "type": "event"
    },
    {
      "anonymous": false,
      "inputs": [
        {
          "indexed": true,
          "internalType": "uint256",
          "name": "zoneId",
          "type": "uint256"
        },
        {
          "indexed": false,
          "internalType": "string",
          "name": "name",
          "type": "string"
        },
        {
          "indexed": false,
          "internalType": "uint256",
          "name": "venueId",
          "type": "uint256"
        }
      ],
      "name": "ZoneCreated",
      "type": "event"
    },
    {
      "inputs": [],
      "name": "DEFAULT_ADMIN_ROLE",
      "outputs": [
        {
          "internalType": "bytes32",
          "name": "",
          "type": "bytes32"
        }
      ],
      "stateMutability": "view",
      "type": "function"
    },
    {
      "inputs": [],
      "name": "SPATIAL_MANAGER",
      "outputs": [
        {
          "internalType": "bytes32",
          "name": "",
          "type": "bytes32"
        }
      ],
      "stateMutability": "view",
      "type": "function"
    },
    {
      "inputs": [
        {
          "internalType": "string",
          "name": "name",
          "type": "string"
        },
        {
          "internalType": "int256",
          "name": "minX",
          "type": "int256"
        },
        {
          "internalType": "int256",
          "name": "maxX",
          "type": "int256"
        },
        {
          "internalType": "int256",
          "name": "minY",
          "type": "int256"
        },
        {
          "internalType": "int256",
          "name": "maxY",
          "type": "int256"
        },
        {
          "internalType": "int256",
          "name": "minZ",
          "type": "int256"
        },
        {
          "internalType": "int256",
          "name": "maxZ",
          "type": "int256"
        },
        {
          "internalType": "uint256",
          "name": "venueId",
          "type": "uint256"
        },
        {
          "internalType": "uint256",
          "name": "maxCapacity",
          "type": "uint256"
        }
      ],
      "name": "createZone",
      "outputs": [
        {
          "internalType": "uint256",
          "name": "",
          "type": "uint256"
        }
      ],
      "stateMutability": "nonpayable",
      "type": "function"
    },
    {
      "inputs": [
        {
          "internalType": "uint256",
          "name": "spatialMatchId",
          "type": "uint256"
        },
        {
          "internalType": "string",
          "name": "replayURI",
          "type": "string"
        }
      ],
      "name": "endSpatialMatch",
      "outputs": [],
      "stateMutability": "nonpayable",
      "type": "function"
    },
    {
      "inputs": [
        {
          "internalType": "uint256",
          "name": "zoneId",
          "type": "uint256"
        }
      ],
      "name": "enterZone",
      "outputs": [],
      "stateMutability": "nonpayable",
      "type": "function"
    },
    {
      "inputs": [
        {
          "internalType": "bytes32",
          "name": "role",
          "type": "bytes32"
        }
      ],
      "name": "getRoleAdmin",
      "outputs": [
        {
          "internalType": "bytes32",
          "name": "",
          "type": "bytes32"
        }
      ],
      "stateMutability": "view",
      "type": "function"
    },
    {
      "inputs": [
        {
          "internalType": "uint256",
          "name": "venueId",
          "type": "uint256"
        }
      ],
      "name": "getVenueZones",
      "outputs": [
        {
          "internalType": "uint256[]",
          "name": "",
          "type": "uint256[]"
        }
      ],
      "stateMutability": "view",
      "type": "function"
    },
    {
      "inputs": [
        {
          "internalType": "bytes32",
          "name": "role",
          "type": "bytes32"
        },
        {
          "internalType": "address",
          "name": "account",
          "type": "address"
        }
      ],
      "name": "grantRole",
      "outputs": [],
      "stateMutability": "nonpayable",
      "type": "function"
    },
    {
      "inputs": [
        {
          "internalType": "bytes32",
          "name": "role",
          "type": "bytes32"
        },
        {
          "internalType": "address",
          "name": "account",
          "type": "address"
        }
      ],
      "name": "hasRole",
      "outputs": [
        {
          "internalType": "bool",
          "name": "",
          "type": "bool"
        }
      ],
      "stateMutability": "view",
      "type": "function"
    },
    {
      "inputs": [
        {
          "internalType": "uint256",
          "name": "",
          "type": "uint256"
        },
        {
          "internalType": "uint256",
          "name": "",
          "type": "uint256"
        }
      ],
      "name": "matchSpatialData",
      "outputs": [
        {
          "internalType": "uint256",
          "name": "",
          "type": "uint256"
        }
      ],
      "stateMutability": "view",
      "type": "function"
    },
    {
      "inputs": [
        {
          "internalType": "bytes32",
          "name": "role",
          "type": "bytes32"
        },
        {
          "internalType": "address",
          "name": "callerConfirmation",
          "type": "address"
        }
      ],
      "name": "renounceRole",
      "outputs": [],
      "stateMutability": "nonpayable",
      "type": "function"
    },
    {
      "inputs": [
        {
          "internalType": "bytes32",
          "name": "role",
          "type": "bytes32"
        },
        {
          "internalType": "address",
          "name": "account",
          "type": "address"
        }
      ],
      "name": "revokeRole",
      "outputs": [],
      "stateMutability": "nonpayable",
      "type": "function"
    },
    {
      "inputs": [
        {
          "internalType": "uint256",
          "name": "",
          "type": "uint256"
        }
      ],
      "name": "spatialMatches",
      "outputs": [
        {
          "internalType": "uint256",
          "name": "spatialMatchId",
          "type": "uint256"
        },
        {
          "internalType": "uint256",
          "name": "matchId",
          "type": "uint256"
        },
        {
          "internalType": "uint256",
          "name": "zoneId",
          "type": "uint256"
        },
        {
          "internalType": "uint256",
          "name": "startTime",
          "type": "uint256"
        },
        {
          "internalType": "uint256",
          "name": "endTime",
          "type": "uint256"
        },
        {
          "internalType": "uint256",
          "name": "spectatorCount",
          "type": "uint256"
        },
        {
          "internalType": "bool",
          "name": "isLive",
          "type": "bool"
        },
        {
          "internalType": "string",
          "name": "physicsConfigURI",
          "type": "string"
        },
        {
          "internalType": "string",
          "name": "replayDataURI",
          "type": "string"
        }
      ],
      "stateMutability": "view",
      "type": "function"
    },
    {
      "inputs": [
        {
          "internalType": "uint256",
          "name": "matchId",
          "type": "uint256"
        },
        {
          "internalType": "uint256",
          "name": "zoneId",
          "type": "uint256"
        },
        {
          "internalType": "string",
          "name": "physicsConfigURI",
          "type": "string"
        }
      ],
      "name": "startSpatialMatch",
      "outputs": [
        {
          "internalType": "uint256",
          "name": "",
          "type": "uint256"
        }
      ],
      "stateMutability": "nonpayable",
      "type": "function"
    },
    {
      "inputs": [
        {
          "internalType": "bytes4",
          "name": "interfaceId",
          "type": "bytes4"
        }
      ],
      "name": "supportsInterface",
      "outputs": [
        {
          "internalType": "bool",
          "name": "",
          "type": "bool"
        }
      ],
      "stateMutability": "view",
      "type": "function"
    },
    {
      "inputs": [
        {
          "internalType": "uint256",
          "name": "",
          "type": "uint256"
        },
        {
          "internalType": "uint256",
          "name": "",
          "type": "uint256"
        }
      ],
      "name": "venueZones",
      "outputs": [
        {
          "internalType": "uint256",
          "name": "",
          "type": "uint256"
        }
      ],
      "stateMutability": "view",
      "type": "function"
    },
    {
      "inputs": [
        {
          "internalType": "uint256",
          "name": "",
          "type": "uint256"
        }
      ],
      "name": "zones",
      "outputs": [
        {
          "internalType": "uint256",
          "name": "zoneId",
          "type": "uint256"
        },
        {
          "internalType": "string",
          "name": "name",
          "type": "string"
        },
        {
          "internalType": "int256",
          "name": "minX",
          "type": "int256"
        },
        {
          "internalType": "int256",
          "name": "maxX",
          "type": "int256"
        },
        {
          "internalType": "int256",
          "name": "minY",
          "type": "int256"
        },
        {
          "internalType": "int256",
          "name": "maxY",
          "type": "int256"
        },
        {
          "internalType": "int256",
          "name": "minZ",
          "type": "int256"
        },
        {
          "internalType": "int256",
          "name": "maxZ",
          "type": "int256"
        },
        {
          "internalType": "uint256",
          "name": "venueId",
          "type": "uint256"
        },
        {
          "internalType": "bool",
          "name": "isMatchActive",
          "type": "bool"
        },
        {
          "internalType": "uint256",
          "name": "activeMatchId",
          "type": "uint256"
        },
        {
          "internalType": "uint256",
          "name": "maxCapacity",
          "type": "uint256"
        },
        {
          "internalType": "uint256",
          "name": "currentOccupancy",
          "type": "uint256"
        }
      ],
      "stateMutability": "view",
      "type": "function"
    }
  ],
  "bytecode": "0x60806040523461002c5761001233610031565b5061001c336100af565b5060405161151090816101508239f35b600080fd5b6001600160a01b031660008181527fad3228b676f7d3cd4284a5443f17f1962b36e491b30a40b2405849e597ba5fb5602052604081205490919060ff166100ab57818052816020526040822081835260205260408220600160ff1982541617905533916000805160206116608339815191528180a4600190565b5090565b6001600160a01b031660008181527f99429deb1444e3586c09655a0e13cfd1a425b185e29ce969f8354a0f7f4712bb60205260408120549091907f55d32f1a3ebfc14b5eadec57c5718e9a3f71ec2c59ad21cde31c5dc68c27a0d29060ff1661014a57808352826020526040832082845260205260408320600160ff19825416179055600080516020611660833981519152339380a4600190565b50509056fe608080604052600436101561001357600080fd5b60003560e01c90816301ffc9a714610ff2575080631333963214610f2257806322ab9e8714610e25578063248a9ca314610df65780632f2ff15d14610dc557806336568abe14610d675780633c1f613814610b255780633d5bf31a14610a725780635e37d36014610a375780635f92fc381461099157806391d148541461094357806392c779f514610501578063a217fddf146104e5578063a8007acf14610191578063d2b630e514610151578063d547741f1461011e5763d6d4eb50146100da57600080fd5b34610119576100e836611277565b906000526004602052604060002080548210156101195760209161010b9161128d565b90546040519160031b1c8152f35b600080fd5b346101195761014f61012f366111ed565b9080600052600060205261014a600160406000200154611367565b611419565b005b346101195761015f36611277565b90600052600360205260406000208054821015610119576020916101829161128d565b90549060031b1c604051908152f35b34610119576101206003193601126101195760043567ffffffffffffffff8111610119576101c3903690600401611220565b6101cb6112d4565b6101d660055461149c565b806005556040516101a0810181811067ffffffffffffffff8211176103ee5760405281815282602082015260243560408201526044356060820152606435608082015260843560a082015260a43560c082015260c43560e082015260e4356101008201526000610120820152600061014082015261010435610160820152600061018082015281600052600160205260406000209080518255602081015180519067ffffffffffffffff82116103ee576102936001850154611090565b601f811161049e575b50602090601f8311600114610428579180600c94926101809460009261041d575b50506000198260011b9260031b1c19161760018501555b60408101516002850155606081015160038501556080810151600485015560a0810151600585015560c0810151600685015560e08101516007850155610100810151600885015561033c6101208201511515600986019060ff60ff1983541691151516179055565b610140810151600a850155610160810151600b850155015191015560e4356000526003602052604060002091825492680100000000000000008410156103ee576103dc83926103b4867f8e1f045e2e3a29387314b841f1a40f145521981a0278123c018aeeaf9cd917f294600160209901815561128d565b81549060031b9060001987831b921b19161790556040519182916040835260408301906111ad565b60e435878301520390a2604051908152f35b7f4e487b7100000000000000000000000000000000000000000000000000000000600052604160045260246000fd5b0151905088806102bd565b906001850160005260206000209160005b601f1985168110610486575092600c94926001926101809583601f1981161061046d575b505050811b0160018501556102d4565b015160001960f88460031b161c1916905588808061045d565b91926020600181928685015181550194019201610439565b600185016000526020600020601f840160051c8101602085106104de575b601f830160051c820181106104d257505061029c565b600081556001016104bc565b50806104bc565b3461011957600060031936011261011957602060405160008152f35b346101195760606003193601126101195760443567ffffffffffffffff811161011957610532903690600401611220565b61053a6112d4565b602435600052600160205260ff600960406000200154166108e55761056060065461149c565b8060065560405191610120830183811067ffffffffffffffff8211176103ee576040528183526004356020840152602435604084015242606084015260006080840152600060a0840152600160c084015260e083015260405180602081011067ffffffffffffffff6020830111176103ee5760208101604052600081526101008301528060005260026020526040600020825181556020830151600182015560408301516002820155606083015160038201556080830151600482015560a0830151600582015561064760c08401511515600683019060ff60ff1983541691151516179055565b60e083015180519067ffffffffffffffff82116103ee5761066b6007840154611090565b601f811161089e575b50602090601f8311600114610828579180610100949260089460009261081d575b50506000198260011b9260031b1c19161760078201555b019201519081519267ffffffffffffffff84116103ee576106cd8154611090565b93601f85116107d5575b602094508493601f8211600114610772579381929394600092610767575b50506000198260011b9260031b1c19161790555b6024356000526001825280600a604060002060098101600160ff198254161790550155807f010b06089192b860898962248dbf616888e792c43761222185ba9c260fb86aad60408051600435815260243586820152a2604051908152f35b0151905085806106f5565b601f1982169483600052866000209160005b8781106107be5750836001959697106107a5575b505050811b019055610709565b015160001960f88460031b161c19169055858080610798565b919288600181928685015181550194019201610784565b816000526020600020601f820160051c81019560208310610813575b601f0160051c01945b85811061080757506106d7565b600081556001016107fa565b90955085906107f1565b015190508780610695565b906007840160005260206000209160005b601f1985168110610886575092610100949260019260089583601f1981161061086d575b505050811b0160078201556106ac565b015160001960f88460031b161c1916905587808061085d565b91926020600181928685015181550194019201610839565b600784016000526020600020601f840160051c8101602085106108de575b601f830160051c820181106108d2575050610674565b600081556001016108bc565b50806108bc565b60646040517f08c379a000000000000000000000000000000000000000000000000000000000815260206004820152601d60248201527f5a6f6e6520616c72656164792068617320616374697665206d617463680000006044820152fd5b3461011957610951366111ed565b90600052600060205273ffffffffffffffffffffffffffffffffffffffff60406000209116600052602052602060ff604060002054166040519015158152f35b34610119576020806003193601126101195760043560005260038152604060002060405190818382549182815201908192600052846000209060005b86828210610a235786866109e3828803836110e3565b604051928392818401908285525180915260408401929160005b828110610a0c57505050500390f35b8351855286955093810193928101926001016109fd565b8354855290930192600192830192016109cd565b346101195760006003193601126101195760206040517f55d32f1a3ebfc14b5eadec57c5718e9a3f71ec2c59ad21cde31c5dc68c27a0d28152f35b3461011957602060031936011261011957600435600052600260205260406000208054610b21600183015492610b126002820154916003810154600482015460058301549060ff60068501541692610ad86008610ad160078801611106565b9601611106565b966040519a8b9a8b5260208b015260408a01526060890152608088015260a0870152151560c08601526101208060e08701528501906111ad565b908382036101008501526111ad565b0390f35b346101195760406003193601126101195767ffffffffffffffff60043560243582811161011957610b5a903690600401611220565b91610b636112d4565b8160005260209060028252604060002090600682019081549160ff831615610d095760ff1992831690554260048401558551600884019181116103ee57610baa8254611090565b601f8111610cc3575b5084601f8211600114610c375790806005959493927fcf4837d57a07be8b1fa13582e11476e2efdc8a19300e62c796b60cec81540c619899600092610c2c575b50506000198260011b9260031b1c19161790555b60028201546000526001845260096040600020019081541690550154604051908152a2005b015190508980610bf3565b601f1982169783600052866000209860005b818110610cac57509860019284926005989796957fcf4837d57a07be8b1fa13582e11476e2efdc8a19300e62c796b60cec81540c619b9c10610c93575b505050811b019055610c07565b015160001960f88460031b161c19169055898080610c86565b838301518b556001909a0199928801928801610c49565b8260005285600020601f830160051c810191878410610cff575b601f0160051c01905b818110610cf35750610bb3565b60008155600101610ce6565b9091508190610cdd565b606485604051907f08c379a00000000000000000000000000000000000000000000000000000000082526004820152600860248201527f4e6f74206c6976650000000000000000000000000000000000000000000000006044820152fd5b3461011957610d75366111ed565b3373ffffffffffffffffffffffffffffffffffffffff821603610d9b5761014f91611419565b60046040517f6697b232000000000000000000000000000000000000000000000000000000008152fd5b346101195761014f610dd6366111ed565b90806000526000602052610df1600160406000200154611367565b61138d565b346101195760206003193601126101195760043560005260006020526020600160406000200154604051908152f35b34610119576020600319360112610119576004358060005260016020526040600020600c81018054600b830154811015610ec457610e629061149c565b905560ff600982015416610e9e575b507f8b3cbb53212b4355e33772c9c8d3b87bf98e475cdf1890a05d3f2e40a9a210926020604051338152a2005b600a015460005260026020526005604060002001610ebc815461149c565b905581610e71565b60646040517f08c379a000000000000000000000000000000000000000000000000000000000815260206004820152601060248201527f5a6f6e65206174206361706163697479000000000000000000000000000000006044820152fd5b3461011957602060031936011261011957600435600052600160205260406000208054610f5160018301611106565b91600281015490600381015490600481015460058201546006830154600784015460088501549160ff60098701541693600a87015495600c600b89015498015498610faf6040519d8e9d8e528d6101a09081602082015201906111ad565b9a60408d015260608c015260808b015260a08a015260c089015260e088015261010087015215156101208601526101408501526101608401526101808301520390f35b3461011957602060031936011261011957600435907fffffffff00000000000000000000000000000000000000000000000000000000821680920361011957817f7965db0b0000000000000000000000000000000000000000000000000000000060209314908115611066575b5015158152f35b7f01ffc9a7000000000000000000000000000000000000000000000000000000009150148361105f565b90600182811c921680156110d9575b60208310146110aa57565b7f4e487b7100000000000000000000000000000000000000000000000000000000600052602260045260246000fd5b91607f169161109f565b90601f601f19910116810190811067ffffffffffffffff8211176103ee57604052565b906040519182600082549261111a84611090565b9081845260019485811690816000146111895750600114611146575b5050611144925003836110e3565b565b9093915060005260209081600020936000915b81831061117157505061114493508201013880611136565b85548884018501529485019487945091830191611159565b905061114495506020935060ff1991501682840152151560051b8201013880611136565b919082519283825260005b8481106111d9575050601f19601f8460006020809697860101520116010190565b6020818301810151848301820152016111b8565b6003196040910112610119576004359060243573ffffffffffffffffffffffffffffffffffffffff811681036101195790565b81601f820112156101195780359067ffffffffffffffff82116103ee57604051926112556020601f19601f86011601856110e3565b8284526020838301011161011957816000926020809301838601378301015290565b6003196040910112610119576004359060243590565b80548210156112a55760005260206000200190600090565b7f4e487b7100000000000000000000000000000000000000000000000000000000600052603260045260246000fd5b3360009081527f99429deb1444e3586c09655a0e13cfd1a425b185e29ce969f8354a0f7f4712bb60205260409020547f55d32f1a3ebfc14b5eadec57c5718e9a3f71ec2c59ad21cde31c5dc68c27a0d29060ff16156113305750565b604490604051907fe2517d3f0000000000000000000000000000000000000000000000000000000082523360048301526024820152fd5b80600052600060205260406000203360005260205260ff60406000205416156113305750565b906000918083528260205273ffffffffffffffffffffffffffffffffffffffff6040842092169182845260205260ff6040842054161560001461141457808352826020526040832082845260205260408320600160ff198254161790557f2f8788117e7eff1d82e926ec794901d17c78024a50270940304540a733656f0d339380a4600190565b505090565b906000918083528260205273ffffffffffffffffffffffffffffffffffffffff6040842092169182845260205260ff6040842054166000146114145780835282602052604083208284526020526040832060ff1981541690557ff6391f5c32d9c69d2a47ea670b442974b53935d1edc7fd64eb21e047a839171b339380a4600190565b60001981146114ab5760010190565b7f4e487b7100000000000000000000000000000000000000000000000000000000600052601160045260246000fdfea2646970667358221220b882874427fc61fbe43dca8ee19bf89535398f01fba374050c7d57a4a357f20864736f6c634300081400332f8788117e7eff1d82e926ec794901d17c78024a50270940304540a733656f0d",
  "linkReferences": {},
  "deployedLinkReferences": {}
}