{
  "_format": "hh-sol-artifact-1",
  "contractName": "ActionLogger",
  "sourceName": "contracts/layer7/auditing/ActionLogger.sol",
  "abi": [
    {
      "anonymous": false,
      "inputs": [
        {
          "indexed": true,
          "internalType": "uint256",
          "name": "logId",
          "type": "uint256"
        },
        {
          "indexed": true,
          "internalType": "uint256",
          "name": "entityId",
          "type": "uint256"
        },
        {
          "indexed": true,
          "internalType": "bytes32",
          "name": "actionHash",
          "type": "bytes32"
        },
        {
          "indexed": false,
          "internalType": "bool",
          "name": "success",
          "type": "bool"
        }
      ],
      "name": "ActionLogged",
      "type": "event"
    },
    {
      "inputs": [
        {
          "internalType": "bytes32",
          "name": "",
          "type": "bytes32"
        },
        {
          "internalType": "uint256",
          "name": "",
          "type": "uint256"
        }
      ],
      "name": "actionTypeLogs",
      "outputs": [
        {
          "internalType": "uint256",
          "name": "",
          "type": "uint256"
        }
      ],
      "stateMutability": "view",
      "type": "function"
    },
    {
      "inputs": [
        {
          "internalType": "uint256",
          "name": "",
          "type": "uint256"
        },
        {
          "internalType": "uint256",
          "name": "",
          "type": "uint256"
        }
      ],
      "name": "entityLogs",
      "outputs": [
        {
          "internalType": "uint256",
          "name": "",
          "type": "uint256"
        }
      ],
      "stateMutability": "view",
      "type": "function"
    },
    {
      "inputs": [
        {
          "internalType": "address",
          "name": "",
          "type": "address"
        },
        {
          "internalType": "uint256",
          "name": "",
          "type": "uint256"
        }
      ],
      "name": "executorLogs",
      "outputs": [
        {
          "internalType": "uint256",
          "name": "",
          "type": "uint256"
        }
      ],
      "stateMutability": "view",
      "type": "function"
    },
    {
      "inputs": [
        {
          "internalType": "uint256",
          "name": "entityId",
          "type": "uint256"
        }
      ],
      "name": "getActionStats",
      "outputs": [
        {
          "internalType": "uint256",
          "name": "totalActions",
          "type": "uint256"
        },
        {
          "internalType": "uint256",
          "name": "successfulActions",
          "type": "uint256"
        },
        {
          "internalType": "uint256",
          "name": "failedActions",
          "type": "uint256"
        },
        {
          "internalType": "uint256",
          "name": "totalGasConsumed",
          "type": "uint256"
        }
      ],
      "stateMutability": "view",
      "type": "function"
    },
    {
      "inputs": [
        {
          "internalType": "bytes32",
          "name": "actionHash",
          "type": "bytes32"
        }
      ],
      "name": "getActionTypeLogs",
      "outputs": [
        {
          "internalType": "uint256[]",
          "name": "",
          "type": "uint256[]"
        }
      ],
      "stateMutability": "view",
      "type": "function"
    },
    {
      "inputs": [
        {
          "internalType": "uint256",
          "name": "entityId",
          "type": "uint256"
        }
      ],
      "name": "getEntityHistory",
      "outputs": [
        {
          "internalType": "uint256[]",
          "name": "",
          "type": "uint256[]"
        }
      ],
      "stateMutability": "view",
      "type": "function"
    },
    {
      "inputs": [
        {
          "internalType": "address",
          "name": "executor",
          "type": "address"
        }
      ],
      "name": "getExecutorHistory",
      "outputs": [
        {
          "internalType": "uint256[]",
          "name": "",
          "type": "uint256[]"
        }
      ],
      "stateMutability": "view",
      "type": "function"
    },
    {
      "inputs": [
        {
          "internalType": "uint256",
          "name": "entityId",
          "type": "uint256"
        },
        {
          "internalType": "bytes32",
          "name": "actionHash",
          "type": "bytes32"
        },
        {
          "internalType": "address",
          "name": "executor",
          "type": "address"
        },
        {
          "internalType": "uint256",
          "name": "gasUsed",
          "type": "uint256"
        },
        {
          "internalType": "bool",
          "name": "success",
          "type": "bool"
        },
        {
          "internalType": "bytes32",
          "name": "resultHash",
          "type": "bytes32"
        },
        {
          "internalType": "bytes",
          "name": "metadata",
          "type": "bytes"
        }
      ],
      "name": "logAction",
      "outputs": [
        {
          "internalType": "uint256",
          "name": "",
          "type": "uint256"
        }
      ],
      "stateMutability": "nonpayable",
      "type": "function"
    },
    {
      "inputs": [],
      "name": "logCount",
      "outputs": [
        {
          "internalType": "uint256",
          "name": "",
          "type": "uint256"
        }
      ],
      "stateMutability": "view",
      "type": "function"
    },
    {
      "inputs": [
        {
          "internalType": "uint256",
          "name": "",
          "type": "uint256"
        }
      ],
      "name": "logs",
      "outputs": [
        {
          "internalType": "uint256",
          "name": "logId",
          "type": "uint256"
        },
        {
          "internalType": "uint256",
          "name": "entityId",
          "type": "uint256"
        },
        {
          "internalType": "bytes32",
          "name": "actionHash",
          "type": "bytes32"
        },
        {
          "internalType": "address",
          "name": "executor",
          "type": "address"
        },
        {
          "internalType": "uint256",
          "name": "timestamp",
          "type": "uint256"
        },
        {
          "internalType": "uint256",
          "name": "gasUsed",
          "type": "uint256"
        },
        {
          "internalType": "bool",
          "name": "success",
          "type": "bool"
        },
        {
          "internalType": "bytes32",
          "name": "resultHash",
          "type": "bytes32"
        },
        {
          "internalType": "bytes",
          "name": "metadata",
          "type": "bytes"
        }
      ],
      "stateMutability": "view",
      "type": "function"
    },
    {
      "inputs": [],
      "name": "totalGasLogged",
      "outputs": [
        {
          "internalType": "uint256",
          "name": "",
          "type": "uint256"
        }
      ],
      "stateMutability": "view",
      "type": "function"
    },
    {
      "inputs": [
        {
          "internalType": "uint256",
          "name": "logId",
          "type": "uint256"
        },
        {
          "internalType": "uint256",
          "name": "entityId",
          "type": "uint256"
        },
        {
          "internalType": "bytes32",
          "name": "actionHash",
          "type": "bytes32"
        },
        {
          "internalType": "bytes32",
          "name": "resultHash",
          "type": "bytes32"
        }
      ],
      "name": "verifyAction",
      "outputs": [
        {
          "internalType": "bool",
          "name": "",
          "type": "bool"
        }
      ],
      "stateMutability": "view",
      "type": "function"
    }
  ],
  "bytecode": "0x6080806040523461001657610cc1908161001c8239f35b600080fdfe608080604052600436101561001357600080fd5b60003560e01c908163036a14df14610a5b57508063196a28e3146105cd57806332724f1314610585578063387643041461054c57806339950630146104c757806347b6e0ad146104a95780634a88a8b0146104465780635744c045146103cc578063a503898f146103ae578063af38d14c1461034a578063e79899bd1461018c5763e919363e146100a357600080fd5b34610187576020806003193601126101875760043560005260018152604060002080549060009060009060005b84811061012b575050808303908382116100fc5760809460405194855284015260408301526060820152f35b7f4e487b7100000000000000000000000000000000000000000000000000000000600052601160045260246000fd5b6101358183610b60565b90549060031b1c6000526000865260ff600661015b604060002096600588015490610c7e565b95015416610172575b61016d90610bfa565b6100d0565b9161017f61016d91610bfa565b929050610164565b600080fd5b34610187576020806003193601126101875760043560005260008152604060002080549160019182810154600282015473ffffffffffffffffffffffffffffffffffffffff60038401541660048401549060058501549260ff60068701541694600860078801549701604051809a60009083549361020985610ba7565b948585528d83821691826000146103095750506001146102c9575b50506102329250038a610b1f565b604051998a52878a015260408901526060880152608087015260a0860152151560c085015260e084015261012091826101008501528051809385015260005b8381106102b457505050817fffffffffffffffffffffffffffffffffffffffffffffffffffffffffffffffe0601f61014093600085828601015201168101030190f35b81810183015185820161014001528201610271565b8c925060005281600020906000915b8583106102f057505061023293508201018d80610224565b819484848396959654920101520191018c928c926102d8565b915093506102329592507fffffffffffffffffffffffffffffffffffffffffffffffffffffffffffffff0091501682840152151560051b8201018d80610224565b3461018757608060031936011261018757600435600052600060205260206040600020602435600182015414908161039e575b8161038e575b506040519015158152f35b6007015460643514905082610383565b600281015460443514915061037d565b34610187576000600319360112610187576020600454604051908152f35b34610187576020806003193601126101875760043560005260038152604060002090604051908181845491828152019360005281600020916000905b82821061042f5761042b8561041f81890382610b1f565b60405191829182610ac1565b0390f35b835486529485019460019384019390910190610408565b346101875760406003193601126101875761045f610afc565b73ffffffffffffffffffffffffffffffffffffffff60243591166000526002602052604060002080548210156101875760209161049b91610b60565b90546040519160031b1c8152f35b34610187576000600319360112610187576020600554604051908152f35b34610187576020806003193601126101875773ffffffffffffffffffffffffffffffffffffffff6104f6610afc565b1660005260028152604060002090604051908181845491828152019360005281600020916000905b8282106105355761042b8561041f81890382610b1f565b83548652948501946001938401939091019061051e565b34610187576040600319360112610187576024356004356000526001602052604060002080548210156101875760209161049b91610b60565b3461018757604060031936011261018757602435600435600052600360205260406000208054821015610187576020916105be91610b60565b90549060031b1c604051908152f35b346101875760e06003193601126101875760443573ffffffffffffffffffffffffffffffffffffffff81168103610187576084359081151582036101875760c4359167ffffffffffffffff8311610187573660238401121561018757826004013567ffffffffffffffff8111610a2c576040519361067360207fffffffffffffffffffffffffffffffffffffffffffffffffffffffffffffffe0601f8501160186610b1f565b81855236602483830101116101875781600092602460209301838801378501015261069f600454610bfa565b918260045560405193610120850185811067ffffffffffffffff821117610a2c576040528385526004356020860152602435604086015273ffffffffffffffffffffffffffffffffffffffff8216606086015242608086015260a08501606435815260c08601841515815260e087019160a43583526101008801938452866000526000602052608060406000209880518a55602081015160018b0155604081015160028b015560038a0173ffffffffffffffffffffffffffffffffffffffff6060830151167fffffffffffffffffffffffff000000000000000000000000000000000000000082541617905501516004890155516005880155600687019051151560ff7fffffffffffffffffffffffffffffffffffffffffffffffffffffffffffffff0083541691161790555160078601555193845167ffffffffffffffff8111610a2c576107f16008830154610ba7565b95601f87116109e1575b602096508690601f831160011461090257918060089273ffffffffffffffffffffffffffffffffffffffff9695946000926108f7575b50507fffffffffffffffffffffffffffffffffffffffffffffffffffffffffffffffff8260011b9260031b1c1916179101555b6004356000526001855261087c846040600020610c27565b1660005260028352610892826040600020610c27565b602435600052600383526108aa826040600020610c27565b6108b8606435600554610c7e565b600555604051901515815260243590827f7489769904b290d8766c0b43013801506b09e24f3ee45b1f0e399b1f815a445c8560043593a4604051908152f35b015190508980610831565b9060088401600052876000209160005b7fffffffffffffffffffffffffffffffffffffffffffffffffffffffffffffffe0851681106109ca57509260089260019273ffffffffffffffffffffffffffffffffffffffff979695837fffffffffffffffffffffffffffffffffffffffffffffffffffffffffffffffe0811610610993575b505050811b01910155610864565b01517fffffffffffffffffffffffffffffffffffffffffffffffffffffffffffffffff60f88460031b161c19169055898080610985565b919289600181928685015181550194019201610912565b600883016000526020600020601f830160051c81019760208410610a22575b601f0160051c01965b878110610a1657506107fb565b60008155600101610a09565b9097508790610a00565b7f4e487b7100000000000000000000000000000000000000000000000000000000600052604160045260246000fd5b3461018757602090816003193601126101875760043560005260019182815260406000209283548084528284019460005282600020926000905b828210610aac5761042b8661041f818a0382610b1f565b84548752958601959383019390830190610a95565b6020908160408183019282815285518094520193019160005b828110610ae8575050505090565b835185529381019392810192600101610ada565b6004359073ffffffffffffffffffffffffffffffffffffffff8216820361018757565b90601f7fffffffffffffffffffffffffffffffffffffffffffffffffffffffffffffffe0910116810190811067ffffffffffffffff821117610a2c57604052565b8054821015610b785760005260206000200190600090565b7f4e487b7100000000000000000000000000000000000000000000000000000000600052603260045260246000fd5b90600182811c92168015610bf0575b6020831014610bc157565b7f4e487b7100000000000000000000000000000000000000000000000000000000600052602260045260246000fd5b91607f1691610bb6565b7fffffffffffffffffffffffffffffffffffffffffffffffffffffffffffffffff81146100fc5760010190565b805468010000000000000000811015610a2c57610c4991600182018155610b60565b7fffffffffffffffffffffffffffffffffffffffffffffffffffffffffffffffff829392549160031b92831b921b1916179055565b919082018092116100fc5756fea26469706673582212201ee66fc585d2ea9c4dcb92545cfec890925049d8b4eee69a45b7945988680eaa64736f6c63430008140033",
  "linkReferences": {},
  "deployedLinkReferences": {}
}