{
  "_format": "hh-sol-artifact-1",
  "contractName": "PredictionMarkets",
  "sourceName": "contracts/layer5/PredictionMarkets.sol",
  "abi": [
    {
      "inputs": [
        {
          "internalType": "address",
          "name": "_treasury",
          "type": "address"
        }
      ],
      "stateMutability": "nonpayable",
      "type": "constructor"
    },
    {
      "inputs": [],
      "name": "AccessControlBadConfirmation",
      "type": "error"
    },
    {
      "inputs": [
        {
          "internalType": "address",
          "name": "account",
          "type": "address"
        },
        {
          "internalType": "bytes32",
          "name": "neededRole",
          "type": "bytes32"
        }
      ],
      "name": "AccessControlUnauthorizedAccount",
      "type": "error"
    },
    {
      "inputs": [],
      "name": "ReentrancyGuardReentrantCall",
      "type": "error"
    },
    {
      "anonymous": false,
      "inputs": [
        {
          "indexed": true,
          "internalType": "uint256",
          "name": "betId",
          "type": "uint256"
        },
        {
          "indexed": true,
          "internalType": "uint256",
          "name": "marketId",
          "type": "uint256"
        },
        {
          "indexed": true,
          "internalType": "address",
          "name": "bettor",
          "type": "address"
        },
        {
          "indexed": false,
          "internalType": "uint256",
          "name": "outcomeId",
          "type": "uint256"
        },
        {
          "indexed": false,
          "internalType": "uint256",
          "name": "amount",
          "type": "uint256"
        }
      ],
      "name": "BetPlaced",
      "type": "event"
    },
    {
      "anonymous": false,
      "inputs": [
        {
          "indexed": true,
          "internalType": "uint256",
          "name": "marketId",
          "type": "uint256"
        }
      ],
      "name": "MarketCancelled",
      "type": "event"
    },
    {
      "anonymous": false,
      "inputs": [
        {
          "indexed": true,
          "internalType": "uint256",
          "name": "marketId",
          "type": "uint256"
        },
        {
          "indexed": true,
          "internalType": "uint256",
          "name": "matchId",
          "type": "uint256"
        },
        {
          "indexed": false,
          "internalType": "enum PredictionMarkets.MarketType",
          "name": "marketType",
          "type": "uint8"
        }
      ],
      "name": "MarketCreated",
      "type": "event"
    },
    {
      "anonymous": false,
      "inputs": [
        {
          "indexed": true,
          "internalType": "uint256",
          "name": "marketId",
          "type": "uint256"
        }
      ],
      "name": "MarketLocked",
      "type": "event"
    },
    {
      "anonymous": false,
      "inputs": [
        {
          "indexed": true,
          "internalType": "uint256",
          "name": "marketId",
          "type": "uint256"
        },
        {
          "indexed": false,
          "internalType": "uint256",
          "name": "winningOutcome",
          "type": "uint256"
        }
      ],
      "name": "MarketSettled",
      "type": "event"
    },
    {
      "anonymous": false,
      "inputs": [
        {
          "indexed": true,
          "internalType": "uint256",
          "name": "betId",
          "type": "uint256"
        },
        {
          "indexed": true,
          "internalType": "address",
          "name": "bettor",
          "type": "address"
        },
        {
          "indexed": false,
          "internalType": "uint256",
          "name": "amount",
          "type": "uint256"
        }
      ],
      "name": "PayoutClaimed",
      "type": "event"
    },
    {
      "anonymous": false,
      "inputs": [
        {
          "indexed": true,
          "internalType": "bytes32",
          "name": "role",
          "type": "bytes32"
        },
        {
          "indexed": true,
          "internalType": "bytes32",
          "name": "previousAdminRole",
          "type": "bytes32"
        },
        {
          "indexed": true,
          "internalType": "bytes32",
          "name": "newAdminRole",
          "type": "bytes32"
        }
      ],
      "name": "RoleAdminChanged",
      "type": "event"
    },
    {
      "anonymous": false,
      "inputs": [
        {
          "indexed": true,
          "internalType": "bytes32",
          "name": "role",
          "type": "bytes32"
        },
        {
          "indexed": true,
          "internalType": "address",
          "name": "account",
          "type": "address"
        },
        {
          "indexed": true,
          "internalType": "address",
          "name": "sender",
          "type": "address"
        }
      ],
      "name": "RoleGranted",
      "type": "event"
    },
    {
      "anonymous": false,
      "inputs": [
        {
          "indexed": true,
          "internalType": "bytes32",
          "name": "role",
          "type": "bytes32"
        },
        {
          "indexed": true,
          "internalType": "address",
          "name": "account",
          "type": "address"
        },
        {
          "indexed": true,
          "internalType": "address",
          "name": "sender",
          "type": "address"
        }
      ],
      "name": "RoleRevoked",
      "type": "event"
    },
    {
      "inputs": [],
      "name": "DEFAULT_ADMIN_ROLE",
      "outputs": [
        {
          "internalType": "bytes32",
          "name": "",
          "type": "bytes32"
        }
      ],
      "stateMutability": "view",
      "type": "function"
    },
    {
      "inputs": [],
      "name": "SETTLER_ROLE",
      "outputs": [
        {
          "internalType": "bytes32",
          "name": "",
          "type": "bytes32"
        }
      ],
      "stateMutability": "view",
      "type": "function"
    },
    {
      "inputs": [
        {
          "internalType": "uint256",
          "name": "",
          "type": "uint256"
        }
      ],
      "name": "bets",
      "outputs": [
        {
          "internalType": "address",
          "name": "bettor",
          "type": "address"
        },
        {
          "internalType": "uint256",
          "name": "marketId",
          "type": "uint256"
        },
        {
          "internalType": "uint256",
          "name": "outcomeId",
          "type": "uint256"
        },
        {
          "internalType": "uint256",
          "name": "amount",
          "type": "uint256"
        },
        {
          "internalType": "uint256",
          "name": "timestamp",
          "type": "uint256"
        },
        {
          "internalType": "bool",
          "name": "claimed",
          "type": "bool"
        },
        {
          "internalType": "uint256",
          "name": "potentialPayout",
          "type": "uint256"
        }
      ],
      "stateMutability": "view",
      "type": "function"
    },
    {
      "inputs": [
        {
          "internalType": "uint256",
          "name": "marketId",
          "type": "uint256"
        }
      ],
      "name": "cancelMarket",
      "outputs": [],
      "stateMutability": "nonpayable",
      "type": "function"
    },
    {
      "inputs": [
        {
          "internalType": "uint256",
          "name": "betId",
          "type": "uint256"
        }
      ],
      "name": "claimPayout",
      "outputs": [],
      "stateMutability": "nonpayable",
      "type": "function"
    },
    {
      "inputs": [
        {
          "internalType": "uint256",
          "name": "matchId",
          "type": "uint256"
        },
        {
          "internalType": "enum PredictionMarkets.MarketType",
          "name": "marketType",
          "type": "uint8"
        },
        {
          "internalType": "uint256",
          "name": "closeTime",
          "type": "uint256"
        },
        {
          "internalType": "string[]",
          "name": "outcomeDescriptions",
          "type": "string[]"
        }
      ],
      "name": "createMarket",
      "outputs": [
        {
          "internalType": "uint256",
          "name": "",
          "type": "uint256"
        }
      ],
      "stateMutability": "nonpayable",
      "type": "function"
    },
    {
      "inputs": [
        {
          "internalType": "uint256",
          "name": "marketId",
          "type": "uint256"
        }
      ],
      "name": "getMarketBets",
      "outputs": [
        {
          "internalType": "uint256[]",
          "name": "",
          "type": "uint256[]"
        }
      ],
      "stateMutability": "view",
      "type": "function"
    },
    {
      "inputs": [
        {
          "internalType": "uint256",
          "name": "marketId",
          "type": "uint256"
        }
      ],
      "name": "getMarketOutcomes",
      "outputs": [
        {
          "components": [
            {
              "internalType": "uint256",
              "name": "outcomeId",
              "type": "uint256"
            },
            {
              "internalType": "string",
              "name": "description",
              "type": "string"
            },
            {
              "internalType": "uint256",
              "name": "totalStaked",
              "type": "uint256"
            },
            {
              "internalType": "uint256",
              "name": "odds",
              "type": "uint256"
            }
          ],
          "internalType": "struct PredictionMarkets.Outcome[]",
          "name": "",
          "type": "tuple[]"
        }
      ],
      "stateMutability": "view",
      "type": "function"
    },
    {
      "inputs": [
        {
          "internalType": "bytes32",
          "name": "role",
          "type": "bytes32"
        }
      ],
      "name": "getRoleAdmin",
      "outputs": [
        {
          "internalType": "bytes32",
          "name": "",
          "type": "bytes32"
        }
      ],
      "stateMutability": "view",
      "type": "function"
    },
    {
      "inputs": [
        {
          "internalType": "address",
          "name": "user",
          "type": "address"
        }
      ],
      "name": "getUserBets",
      "outputs": [
        {
          "internalType": "uint256[]",
          "name": "",
          "type": "uint256[]"
        }
      ],
      "stateMutability": "view",
      "type": "function"
    },
    {
      "inputs": [
        {
          "internalType": "bytes32",
          "name": "role",
          "type": "bytes32"
        },
        {
          "internalType": "address",
          "name": "account",
          "type": "address"
        }
      ],
      "name": "grantRole",
      "outputs": [],
      "stateMutability": "nonpayable",
      "type": "function"
    },
    {
      "inputs": [
        {
          "internalType": "bytes32",
          "name": "role",
          "type": "bytes32"
        },
        {
          "internalType": "address",
          "name": "account",
          "type": "address"
        }
      ],
      "name": "hasRole",
      "outputs": [
        {
          "internalType": "bool",
          "name": "",
          "type": "bool"
        }
      ],
      "stateMutability": "view",
      "type": "function"
    },
    {
      "inputs": [
        {
          "internalType": "uint256",
          "name": "marketId",
          "type": "uint256"
        }
      ],
      "name": "lockMarket",
      "outputs": [],
      "stateMutability": "nonpayable",
      "type": "function"
    },
    {
      "inputs": [
        {
          "internalType": "uint256",
          "name": "",
          "type": "uint256"
        },
        {
          "internalType": "uint256",
          "name": "",
          "type": "uint256"
        }
      ],
      "name": "marketBets",
      "outputs": [
        {
          "internalType": "uint256",
          "name": "",
          "type": "uint256"
        }
      ],
      "stateMutability": "view",
      "type": "function"
    },
    {
      "inputs": [
        {
          "internalType": "uint256",
          "name": "",
          "type": "uint256"
        },
        {
          "internalType": "uint256",
          "name": "",
          "type": "uint256"
        }
      ],
      "name": "marketOutcomes",
      "outputs": [
        {
          "internalType": "uint256",
          "name": "outcomeId",
          "type": "uint256"
        },
        {
          "internalType": "string",
          "name": "description",
          "type": "string"
        },
        {
          "internalType": "uint256",
          "name": "totalStaked",
          "type": "uint256"
        },
        {
          "internalType": "uint256",
          "name": "odds",
          "type": "uint256"
        }
      ],
      "stateMutability": "view",
      "type": "function"
    },
    {
      "inputs": [
        {
          "internalType": "uint256",
          "name": "",
          "type": "uint256"
        }
      ],
      "name": "markets",
      "outputs": [
        {
          "internalType": "uint256",
          "name": "marketId",
          "type": "uint256"
        },
        {
          "internalType": "uint256",
          "name": "matchId",
          "type": "uint256"
        },
        {
          "internalType": "enum PredictionMarkets.MarketType",
          "name": "marketType",
          "type": "uint8"
        },
        {
          "internalType": "enum PredictionMarkets.MarketStatus",
          "name": "status",
          "type": "uint8"
        },
        {
          "internalType": "uint256",
          "name": "totalStaked",
          "type": "uint256"
        },
        {
          "internalType": "uint256",
          "name": "openTime",
          "type": "uint256"
        },
        {
          "internalType": "uint256",
          "name": "closeTime",
          "type": "uint256"
        },
        {
          "internalType": "uint256",
          "name": "settledOutcome",
          "type": "uint256"
        },
        {
          "internalType": "bool",
          "name": "settled",
          "type": "bool"
        },
        {
          "internalType": "address",
          "name": "creator",
          "type": "address"
        }
      ],
      "stateMutability": "view",
      "type": "function"
    },
    {
      "inputs": [
        {
          "internalType": "uint256",
          "name": "",
          "type": "uint256"
        },
        {
          "internalType": "uint256",
          "name": "",
          "type": "uint256"
        }
      ],
      "name": "outcomeStakes",
      "outputs": [
        {
          "internalType": "uint256",
          "name": "",
          "type": "uint256"
        }
      ],
      "stateMutability": "view",
      "type": "function"
    },
    {
      "inputs": [
        {
          "internalType": "uint256",
          "name": "marketId",
          "type": "uint256"
        },
        {
          "internalType": "uint256",
          "name": "outcomeId",
          "type": "uint256"
        }
      ],
      "name": "placeBet",
      "outputs": [],
      "stateMutability": "payable",
      "type": "function"
    },
    {
      "inputs": [],
      "name": "platformFeePercent",
      "outputs": [
        {
          "internalType": "uint256",
          "name": "",
          "type": "uint256"
        }
      ],
      "stateMutability": "view",
      "type": "function"
    },
    {
      "inputs": [
        {
          "internalType": "bytes32",
          "name": "role",
          "type": "bytes32"
        },
        {
          "internalType": "address",
          "name": "callerConfirmation",
          "type": "address"
        }
      ],
      "name": "renounceRole",
      "outputs": [],
      "stateMutability": "nonpayable",
      "type": "function"
    },
    {
      "inputs": [
        {
          "internalType": "bytes32",
          "name": "role",
          "type": "bytes32"
        },
        {
          "internalType": "address",
          "name": "account",
          "type": "address"
        }
      ],
      "name": "revokeRole",
      "outputs": [],
      "stateMutability": "nonpayable",
      "type": "function"
    },
    {
      "inputs": [
        {
          "internalType": "uint256",
          "name": "marketId",
          "type": "uint256"
        },
        {
          "internalType": "uint256",
          "name": "winningOutcomeId",
          "type": "uint256"
        }
      ],
      "name": "settleMarket",
      "outputs": [],
      "stateMutability": "nonpayable",
      "type": "function"
    },
    {
      "inputs": [
        {
          "internalType": "bytes4",
          "name": "interfaceId",
          "type": "bytes4"
        }
      ],
      "name": "supportsInterface",
      "outputs": [
        {
          "internalType": "bool",
          "name": "",
          "type": "bool"
        }
      ],
      "stateMutability": "view",
      "type": "function"
    },
    {
      "inputs": [],
      "name": "totalMarketsCreated",
      "outputs": [
        {
          "internalType": "uint256",
          "name": "",
          "type": "uint256"
        }
      ],
      "stateMutability": "view",
      "type": "function"
    },
    {
      "inputs": [],
      "name": "totalVolumeStaked",
      "outputs": [
        {
          "internalType": "uint256",
          "name": "",
          "type": "uint256"
        }
      ],
      "stateMutability": "view",
      "type": "function"
    },
    {
      "inputs": [],
      "name": "treasury",
      "outputs": [
        {
          "internalType": "address",
          "name": "",
          "type": "address"
        }
      ],
      "stateMutability": "view",
      "type": "function"
    },
    {
      "inputs": [
        {
          "internalType": "address",
          "name": "",
          "type": "address"
        },
        {
          "internalType": "uint256",
          "name": "",
          "type": "uint256"
        }
      ],
      "name": "userBets",
      "outputs": [
        {
          "internalType": "uint256",
          "name": "",
          "type": "uint256"
        }
      ],
      "stateMutability": "view",
      "type": "function"
    }
  ],
  "bytecode": "0x6080346200009c57601f620023de38819003918201601f19168301916001600160401b03831184841017620000a1578084926020946040528339810103126200009c57516001600160a01b038116908190036200009c57600180556101f4600d55600c80546001600160a01b0319169190911790556200007f33620000b7565b506200008b3362000137565b506040516121e49081620001da8239f35b600080fd5b634e487b7160e01b600052604160045260246000fd5b6001600160a01b031660008181527fad3228b676f7d3cd4284a5443f17f1962b36e491b30a40b2405849e597ba5fb5602052604081205490919060ff166200013357818052816020526040822081835260205260408220600160ff198254161790553391600080516020620023be8339815191528180a4600190565b5090565b6001600160a01b031660008181527fa5c179faa98d86951875f38e98a405912d7f90d5dfc4d9d9c0ab0ae0d8aa85a060205260408120549091907f6666bf5bfee463d10a7fc50448047f8a53b7762d7e28fbc5c643182785f3fd3f9060ff16620001d457808352826020526040832082845260205260408320600160ff19825416179055600080516020620023be833981519152339380a4600190565b50509056fe608080604052600436101561001357600080fd5b60003560e01c90816301ffc9a7146118ba5750806312a3bf0e1461177257806322af00fa146116ea578063248a9ca3146116bb57806327b3d42a1461169d5780632d56657d146116185780632f2ff15d146115d957806336568abe1461156d5780633adadc0a146114f35780634afe62b51461120657806361d027b3146111d25780637445e85c146111975780637ba1d70c146111645780637c16cd9e14610f865780638068aa6814610f315780638a69614e14610cb75780638c639a8514610c9957806391d1485414610c3e578063a217fddf14610c22578063b1283e7714610b60578063b402f1f514610aec578063c9d1e6ee14610a43578063d547741f14610a02578063e19f9fd5146109e4578063ef2b774014610369578063f2e550211461032a5763fcaad80d1461014857600080fd5b346103255761015636611a37565b61015e611c2c565b81600052602060048152604060002060028101805460ff8160081c1660048110156102f65760010361029857600361271093610217936102007fffffffffffffffffffffffffffffffffffffffffffffffffffffffffffff00ff61020e958b60005260058a526101d46040600020548c10611ed3565b1617905586600682015560078101600160ff1982541617905501548660005260098552604060002086600052855260406000205490611fd7565b600d5490611fe4565b048015801561024e575b50507fba34900c7cce6a82ec9a8d8e4a39e6132bfafff823a282529d047f44628caeba91604051908152a2005b6000808093819373ffffffffffffffffffffffffffffffffffffffff600c541690839061028f575bf115610283573880610221565b6040513d6000823e3d90fd5b506108fc610276565b606484604051907f08c379a00000000000000000000000000000000000000000000000000000000082526004820152601160248201527f4d61726b6574206e6f74206c6f636b65640000000000000000000000000000006044820152fd5b7f4e487b7100000000000000000000000000000000000000000000000000000000600052602160045260246000fd5b600080fd5b346103255761033836611a37565b906000526007602052604060002080548210156103255760209161035b91611a4d565b90546040519160031b1c8152f35b3461032557608060031936011261032557600560243510156103255760643567ffffffffffffffff811161032557366023820112156103255780600401356103b081611c14565b916103be6040519384611b2c565b8183526024602084019260051b820101903682116103255760248101925b82841061094b578460028151106108ed576044354281111561088f57610403600254611df4565b908160025560405190610140820182811067ffffffffffffffff8211176107b257604052828252602082016004358152604083016024358152606084019260008452600060808601524260a086015260c0850152600060e085015260006101008501523361012085015284600052600460205260406000209184518355516001830155519060058210156102f657600281015492519160048310156102f657610120937fffffffffffffffffffffffffffffffffffffffffffffffffffffffffffff000060ff61ff0060079660089b9a9b1b1693169116171760028201556080840151600382015560a0840151600482015560c0840151600582015560e0840151600682015501916105296101008201511515849060ff60ff1983541691151516179055565b01517fffffffffffffffffffffff0000000000000000000000000000000000000000ff74ffffffffffffffffffffffffffffffffffffffff0083549260081b1691161790556000915b815183101561083f578060005260056020526040600020926105948184611e50565b51835194851561081057604051956105ab87611b10565b83875260208701928352600060408801526127100460608701528054680100000000000000008110156107b2576105e791600182018155611aa1565b9190916107e157855182555194855167ffffffffffffffff81116107b2576106126001840154611abd565b601f811161076b575b506020601f821160011461069957918160609260039461068798999a60009261068e575b50507fffffffffffffffffffffffffffffffffffffffffffffffffffffffffffffffff8260011b92861b1c19161760018501555b604081015160028501550151910155611df4565b9190610572565b015190508a8061063f565b6001840160005260206000209760005b7fffffffffffffffffffffffffffffffffffffffffffffffffffffffffffffffe08416811061075357508261068797989960039593600193837fffffffffffffffffffffffffffffffffffffffffffffffffffffffffffffffe0606098161061071d575b505050811b016001850155610673565b01517fffffffffffffffffffffffffffffffffffffffffffffffffffffffffffffffff60f884891b161c191690558a808061070d565b828201518a55600190990198602092830192016106a9565b600184016000526020600020601f830160051c8101602084106107ab575b601f830160051c8201811061079f57505061061b565b60008155600101610789565b5080610789565b7f4e487b7100000000000000000000000000000000000000000000000000000000600052604160045260246000fd5b7f4e487b7100000000000000000000000000000000000000000000000000000000600052600060045260246000fd5b7f4e487b7100000000000000000000000000000000000000000000000000000000600052601260045260246000fd5b60209061084d600a54611df4565b600a5560405161085f81602435611a94565b817f5d87a6da653d1547cee9290e31dcbcaa6b2e2540f5c827baca15c84d4178830e8460043593a3604051908152f35b60646040517f08c379a000000000000000000000000000000000000000000000000000000000815260206004820152601960248201527f436c6f73652074696d65206d75737420626520667574757265000000000000006044820152fd5b60646040517f08c379a000000000000000000000000000000000000000000000000000000000815260206004820152601860248201527f4e656564206174206c656173742032206f7574636f6d657300000000000000006044820152fd5b833567ffffffffffffffff811161032557820190366043830112156103255760248201359067ffffffffffffffff82116107b2576040516109b460207fffffffffffffffffffffffffffffffffffffffffffffffffffffffffffffffe0601f8601160182611b2c565b828152604493368585830101116103255760208481969582966000940183860137830101528152019301926103dc565b34610325576000600319360112610325576020600b54604051908152f35b3461032557604060031936011261032557610a41600435610a216119d9565b90806000526000602052610a3c600160406000200154611cbf565b611d71565b005b3461032557602060031936011261032557600435610a5f611c2c565b80600052600460205260ff60026040600020015460081c1660048110156102f657610a8a9015611e6e565b80600052600460205260026040600020016101007fffffffffffffffffffffffffffffffffffffffffffffffffffffffffffff00ff8254161790557f2d597ad63f8c5090e993389fdab0249476d2f29bcbc52e99da3236a4370f11ba600080a2005b3461032557610afa36611a37565b906000526005602052604060002090815481101561032557610b1b91611aa1565b508054610b2a60018301611b6d565b9160036002820154910154610b516040519485948552608060208601526080850190611958565b91604084015260608301520390f35b346103255760206003193601126103255760043560005260046020526040600020805460018201549160028101549260ff8460081c16916003810154946004820154610bce6005840154926007600686015495015495604051988952602089015260ff604089019116611a94565b60048510156102f6576101409673ffffffffffffffffffffffffffffffffffffffff956060880152608087015260a086015260c085015260e084015260ff8116151561010084015260081c16610120820152f35b3461032557600060031936011261032557602060405160008152f35b3461032557604060031936011261032557610c576119d9565b600435600052600060205273ffffffffffffffffffffffffffffffffffffffff60406000209116600052602052602060ff604060002054166040519015158152f35b34610325576000600319360112610325576020600d54604051908152f35b346103255760208060031936011261032557600435610cd4611f9c565b8060005260068252604060002073ffffffffffffffffffffffffffffffffffffffff8154163303610ed3576005810180549060ff8216610e7557600183019081546000526004865260406000209260ff60078501541615610e175760028501936006855491015414600014610e035750916003610da99284600160ff19610dae98975416179055549154930154906000526004865260036040600020015492600987526040600020906000528652610da360406000205493612710610d9c61020e8784611fd7565b0490611fd7565b90611fe4565b611e64565b918260008115610dfa575b600080809381933390f115610283577fe97cee5a4c0549d3fdc81e322b718ddf0aeb3418ec87dce4f9a7fb28d117c312906040519384523393a35b60018055005b506108fc610db9565b60ff1916600117905550610df49350505050565b606487604051907f08c379a00000000000000000000000000000000000000000000000000000000082526004820152601260248201527f4d61726b6574206e6f7420736574746c656400000000000000000000000000006044820152fd5b606485604051907f08c379a00000000000000000000000000000000000000000000000000000000082526004820152600f60248201527f416c726561647920636c61696d656400000000000000000000000000000000006044820152fd5b606483604051907f08c379a00000000000000000000000000000000000000000000000000000000082526004820152600c60248201527f4e6f7420796f75722062657400000000000000000000000000000000000000006044820152fd5b3461032557604060031936011261032557610f4a6119b6565b73ffffffffffffffffffffffffffffffffffffffff60243591166000526008602052604060002080548210156103255760209161035b91611a4d565b34610325576020806003193601126103255760043590610fa4611c2c565b610fac611f9c565b816000526004815260406000209060ff9182600782015416611106576002016103007fffffffffffffffffffffffffffffffffffffffffffffffffffffffffffff00ff82541617905582600052600781526040600020604051808284829454938481520190600052846000209260005b868282106110f05750505061103392500382611b2c565b60005b81518110156110c4576110498183611e50565b5160005260068352604060002060058101805486811615611076575b50505061107190611df4565b611036565b600080938193600160ff19849516179055600373ffffffffffffffffffffffffffffffffffffffff825416910154908282156110bb575bf11561028357858080611065565b506108fc6110ad565b847f2ca440fb7fca85d7f55d395a4abd94817330b83a62f3502efbb4770144e4ca97600080a260018055005b855484526001958601958795509301920161101c565b606482604051907f08c379a00000000000000000000000000000000000000000000000000000000082526004820152600f60248201527f416c726561647920736574746c656400000000000000000000000000000000006044820152fd5b346103255761117236611a37565b9060005260096020526040600020906000526020526020604060002054604051908152f35b346103255760006003193601126103255760206040517f6666bf5bfee463d10a7fc50448047f8a53b7762d7e28fbc5c643182785f3fd3f8152f35b3461032557600060031936011261032557602073ffffffffffffffffffffffffffffffffffffffff600c5416604051908152f35b61120f36611a37565b90611218611f9c565b80600052602060048152604060002060ff600282015460081c1660048110156102f6576112459015611e6e565b60058101544210156114955734156114375760039083600052600583526112726040600020548610611ed3565b0161127e348254611f38565b905581600052600581526002611298846040600020611aa1565b50016112a5348254611f38565b90558160005260098152604060002083600052815260406000206112ca348254611f38565b90556112d834600b54611f38565b600b556112e482611ff7565b6112ef3484846120cc565b906112fb600354611df4565b91826003556040519060e082019082821067ffffffffffffffff8311176107b2576006916040523383526113d08484018781526040850189815260608601348152608087019142835260a08801936000855260c089019687528a600052878a5273ffffffffffffffffffffffffffffffffffffffff60406000209951167fffffffffffffffffffffffff00000000000000000000000000000000000000008a5416178955516001890155516002880155516003870155516004860155511515600585019060ff60ff1983541691151516179055565b5191015582600052600781526113ea826040600020611f45565b3360005260088152611400826040600020611f45565b60405193845234908401527f9ab6b286d532c308925cb0664fe6228b8fe0d5137820cc28dc0ec44f7a3959e360403394a460018055005b606482604051907f08c379a00000000000000000000000000000000000000000000000000000000082526004820152600f60248201527f426574206d757374206265203e203000000000000000000000000000000000006044820152fd5b606482604051907f08c379a00000000000000000000000000000000000000000000000000000000082526004820152600e60248201527f42657474696e6720636c6f7365640000000000000000000000000000000000006044820152fd5b34610325576020806003193601126103255760043560005260078152604060002090604051908181845491828152019360005281600020916000905b828210611556576115528561154681890382611b2c565b604051918291826119fc565b0390f35b83548652948501946001938401939091019061152f565b34610325576040600319360112610325576115866119d9565b3373ffffffffffffffffffffffffffffffffffffffff8216036115af57610a4190600435611d71565b60046040517f6697b232000000000000000000000000000000000000000000000000000000008152fd5b3461032557604060031936011261032557610a416004356115f86119d9565b90806000526000602052611613600160406000200154611cbf565b611ce5565b34610325576020806003193601126103255773ffffffffffffffffffffffffffffffffffffffff6116476119b6565b1660005260088152604060002090604051908181845491828152019360005281600020916000905b828210611686576115528561154681890382611b2c565b83548652948501946001938401939091019061166f565b34610325576000600319360112610325576020600a54604051908152f35b346103255760206003193601126103255760043560005260006020526020600160406000200154604051908152f35b3461032557602060031936011261032557600435600052600660205260e0604060002073ffffffffffffffffffffffffffffffffffffffff8154169060018101549060028101546003820154600483015491600660ff600586015416940154946040519687526020870152604086015260608501526080840152151560a083015260c0820152f35b346103255760208060031936011261032557600435600052600581526040600020908154916117a083611c14565b926117ae6040519485611b2c565b8084528284018092600052836000206000915b83831061186d5750505050604051918083019381845251809452604083019360408160051b85010192916000955b8287106117fc5785850386f35b909192938280827fffffffffffffffffffffffffffffffffffffffffffffffffffffffffffffffc08960019503018552875190815181526118498383015160808086850152830190611958565b916040810151604083015260608091015191015296019201960195929190926117ef565b60048660019260409998995161188281611b10565b85548152611891858701611b6d565b8382015260028601546040820152600386015460608201528152019201920191909594956117c1565b3461032557602060031936011261032557600435907fffffffff00000000000000000000000000000000000000000000000000000000821680920361032557817f7965db0b000000000000000000000000000000000000000000000000000000006020931490811561192e575b5015158152f35b7f01ffc9a70000000000000000000000000000000000000000000000000000000091501483611927565b919082519283825260005b8481106119a25750507fffffffffffffffffffffffffffffffffffffffffffffffffffffffffffffffe0601f8460006020809697860101520116010190565b602081830181015184830182015201611963565b6004359073ffffffffffffffffffffffffffffffffffffffff8216820361032557565b6024359073ffffffffffffffffffffffffffffffffffffffff8216820361032557565b6020908160408183019282815285518094520193019160005b828110611a23575050505090565b835185529381019392810192600101611a15565b6003196040910112610325576004359060243590565b8054821015611a655760005260206000200190600090565b7f4e487b7100000000000000000000000000000000000000000000000000000000600052603260045260246000fd5b9060058210156102f65752565b8054821015611a655760005260206000209060021b0190600090565b90600182811c92168015611b06575b6020831014611ad757565b7f4e487b7100000000000000000000000000000000000000000000000000000000600052602260045260246000fd5b91607f1691611acc565b6080810190811067ffffffffffffffff8211176107b257604052565b90601f7fffffffffffffffffffffffffffffffffffffffffffffffffffffffffffffffe0910116810190811067ffffffffffffffff8211176107b257604052565b9060405191826000825492611b8184611abd565b908184526001948581169081600014611bf05750600114611bad575b5050611bab92500383611b2c565b565b9093915060005260209081600020936000915b818310611bd8575050611bab93508201013880611b9d565b85548884018501529485019487945091830191611bc0565b9050611bab95506020935060ff1991501682840152151560051b8201013880611b9d565b67ffffffffffffffff81116107b25760051b60200190565b3360009081527fa5c179faa98d86951875f38e98a405912d7f90d5dfc4d9d9c0ab0ae0d8aa85a060205260409020547f6666bf5bfee463d10a7fc50448047f8a53b7762d7e28fbc5c643182785f3fd3f9060ff1615611c885750565b604490604051907fe2517d3f0000000000000000000000000000000000000000000000000000000082523360048301526024820152fd5b80600052600060205260406000203360005260205260ff6040600020541615611c885750565b906000918083528260205273ffffffffffffffffffffffffffffffffffffffff6040842092169182845260205260ff60408420541615600014611d6c57808352826020526040832082845260205260408320600160ff198254161790557f2f8788117e7eff1d82e926ec794901d17c78024a50270940304540a733656f0d339380a4600190565b505090565b906000918083528260205273ffffffffffffffffffffffffffffffffffffffff6040842092169182845260205260ff604084205416600014611d6c5780835282602052604083208284526020526040832060ff1981541690557ff6391f5c32d9c69d2a47ea670b442974b53935d1edc7fd64eb21e047a839171b339380a4600190565b7fffffffffffffffffffffffffffffffffffffffffffffffffffffffffffffffff8114611e215760010190565b7f4e487b7100000000000000000000000000000000000000000000000000000000600052601160045260246000fd5b8051821015611a655760209160051b010190565b8115610810570490565b15611e7557565b60646040517f08c379a000000000000000000000000000000000000000000000000000000000815260206004820152600f60248201527f4d61726b6574206e6f74206f70656e00000000000000000000000000000000006044820152fd5b15611eda57565b60646040517f08c379a000000000000000000000000000000000000000000000000000000000815260206004820152600f60248201527f496e76616c6964206f7574636f6d6500000000000000000000000000000000006044820152fd5b91908201809211611e2157565b8054680100000000000000008110156107b257611f6791600182018155611a4d565b7fffffffffffffffffffffffffffffffffffffffffffffffffffffffffffffffff829392549160031b92831b921b1916179055565b600260015414611fad576002600155565b60046040517f3ee5aeb5000000000000000000000000000000000000000000000000000000008152fd5b91908203918211611e2157565b81810292918115918404141715611e2157565b9060009182526004806020526003806040852001549182156120c55760056020526040852092855b84548110156120bc576120328186611aa1565b5060029081015461205c575061205790875b8561204f8389611aa1565b500155611df4565b61201f565b6120668287611aa1565b50015461271090818102918183041490151715612090579061208b8361205793611e64565b612044565b6024886011867f4e487b7100000000000000000000000000000000000000000000000000000000835252fd5b50505050509050565b5050509050565b90929160009382855260096020526040852090855260205260408420549182156121655784526004602052604084206003015461210891611fe4565b61251c90818102918183041490151715612138576127108083029283040361213857612135929350611e64565b90565b6024847f4e487b710000000000000000000000000000000000000000000000000000000081526011600452fd5b50809293915060011b9180830460021490151715612181575090565b807f4e487b7100000000000000000000000000000000000000000000000000000000602492526011600452fdfea26469706673582212206b8db307780250547facee7406daae997ab6c0e0e6ce9aa247de9572c0b4f11464736f6c634300081400332f8788117e7eff1d82e926ec794901d17c78024a50270940304540a733656f0d",
  "linkReferences": {},
  "deployedLinkReferences": {}
}