{
  "_format": "hh-sol-artifact-1",
  "contractName": "PropNFT",
  "sourceName": "contracts/layer4/media/PropNFT.sol",
  "abi": [
    {
      "inputs": [],
      "stateMutability": "nonpayable",
      "type": "constructor"
    },
    {
      "inputs": [
        {
          "internalType": "address",
          "name": "sender",
          "type": "address"
        },
        {
          "internalType": "uint256",
          "name": "tokenId",
          "type": "uint256"
        },
        {
          "internalType": "address",
          "name": "owner",
          "type": "address"
        }
      ],
      "name": "ERC721IncorrectOwner",
      "type": "error"
    },
    {
      "inputs": [
        {
          "internalType": "address",
          "name": "operator",
          "type": "address"
        },
        {
          "internalType": "uint256",
          "name": "tokenId",
          "type": "uint256"
        }
      ],
      "name": "ERC721InsufficientApproval",
      "type": "error"
    },
    {
      "inputs": [
        {
          "internalType": "address",
          "name": "approver",
          "type": "address"
        }
      ],
      "name": "ERC721InvalidApprover",
      "type": "error"
    },
    {
      "inputs": [
        {
          "internalType": "address",
          "name": "operator",
          "type": "address"
        }
      ],
      "name": "ERC721InvalidOperator",
      "type": "error"
    },
    {
      "inputs": [
        {
          "internalType": "address",
          "name": "owner",
          "type": "address"
        }
      ],
      "name": "ERC721InvalidOwner",
      "type": "error"
    },
    {
      "inputs": [
        {
          "internalType": "address",
          "name": "receiver",
          "type": "address"
        }
      ],
      "name": "ERC721InvalidReceiver",
      "type": "error"
    },
    {
      "inputs": [
        {
          "internalType": "address",
          "name": "sender",
          "type": "address"
        }
      ],
      "name": "ERC721InvalidSender",
      "type": "error"
    },
    {
      "inputs": [
        {
          "internalType": "uint256",
          "name": "tokenId",
          "type": "uint256"
        }
      ],
      "name": "ERC721NonexistentToken",
      "type": "error"
    },
    {
      "inputs": [
        {
          "internalType": "address",
          "name": "owner",
          "type": "address"
        }
      ],
      "name": "OwnableInvalidOwner",
      "type": "error"
    },
    {
      "inputs": [
        {
          "internalType": "address",
          "name": "account",
          "type": "address"
        }
      ],
      "name": "OwnableUnauthorizedAccount",
      "type": "error"
    },
    {
      "anonymous": false,
      "inputs": [
        {
          "indexed": true,
          "internalType": "address",
          "name": "owner",
          "type": "address"
        },
        {
          "indexed": true,
          "internalType": "address",
          "name": "approved",
          "type": "address"
        },
        {
          "indexed": true,
          "internalType": "uint256",
          "name": "tokenId",
          "type": "uint256"
        }
      ],
      "name": "Approval",
      "type": "event"
    },
    {
      "anonymous": false,
      "inputs": [
        {
          "indexed": true,
          "internalType": "address",
          "name": "owner",
          "type": "address"
        },
        {
          "indexed": true,
          "internalType": "address",
          "name": "operator",
          "type": "address"
        },
        {
          "indexed": false,
          "internalType": "bool",
          "name": "approved",
          "type": "bool"
        }
      ],
      "name": "ApprovalForAll",
      "type": "event"
    },
    {
      "anonymous": false,
      "inputs": [
        {
          "indexed": true,
          "internalType": "address",
          "name": "previousOwner",
          "type": "address"
        },
        {
          "indexed": true,
          "internalType": "address",
          "name": "newOwner",
          "type": "address"
        }
      ],
      "name": "OwnershipTransferred",
      "type": "event"
    },
    {
      "anonymous": false,
      "inputs": [
        {
          "indexed": true,
          "internalType": "uint256",
          "name": "propId",
          "type": "uint256"
        },
        {
          "indexed": false,
          "internalType": "string",
          "name": "name",
          "type": "string"
        },
        {
          "indexed": true,
          "internalType": "address",
          "name": "creator",
          "type": "address"
        }
      ],
      "name": "PropMinted",
      "type": "event"
    },
    {
      "anonymous": false,
      "inputs": [
        {
          "indexed": true,
          "internalType": "uint256",
          "name": "propId",
          "type": "uint256"
        },
        {
          "indexed": true,
          "internalType": "address",
          "name": "buyer",
          "type": "address"
        },
        {
          "indexed": false,
          "internalType": "uint256",
          "name": "price",
          "type": "uint256"
        }
      ],
      "name": "PropPurchased",
      "type": "event"
    },
    {
      "anonymous": false,
      "inputs": [
        {
          "indexed": true,
          "internalType": "uint256",
          "name": "propId",
          "type": "uint256"
        },
        {
          "indexed": true,
          "internalType": "address",
          "name": "renter",
          "type": "address"
        },
        {
          "indexed": false,
          "internalType": "uint256",
          "name": "duration",
          "type": "uint256"
        }
      ],
      "name": "PropRented",
      "type": "event"
    },
    {
      "anonymous": false,
      "inputs": [
        {
          "indexed": true,
          "internalType": "address",
          "name": "from",
          "type": "address"
        },
        {
          "indexed": true,
          "internalType": "address",
          "name": "to",
          "type": "address"
        },
        {
          "indexed": true,
          "internalType": "uint256",
          "name": "tokenId",
          "type": "uint256"
        }
      ],
      "name": "Transfer",
      "type": "event"
    },
    {
      "inputs": [
        {
          "internalType": "address",
          "name": "to",
          "type": "address"
        },
        {
          "internalType": "uint256",
          "name": "tokenId",
          "type": "uint256"
        }
      ],
      "name": "approve",
      "outputs": [],
      "stateMutability": "nonpayable",
      "type": "function"
    },
    {
      "inputs": [
        {
          "internalType": "address",
          "name": "owner",
          "type": "address"
        }
      ],
      "name": "balanceOf",
      "outputs": [
        {
          "internalType": "uint256",
          "name": "",
          "type": "uint256"
        }
      ],
      "stateMutability": "view",
      "type": "function"
    },
    {
      "inputs": [
        {
          "internalType": "uint256",
          "name": "",
          "type": "uint256"
        },
        {
          "internalType": "address",
          "name": "",
          "type": "address"
        }
      ],
      "name": "currentRentals",
      "outputs": [
        {
          "internalType": "bool",
          "name": "",
          "type": "bool"
        }
      ],
      "stateMutability": "view",
      "type": "function"
    },
    {
      "inputs": [
        {
          "internalType": "uint256",
          "name": "tokenId",
          "type": "uint256"
        }
      ],
      "name": "getApproved",
      "outputs": [
        {
          "internalType": "address",
          "name": "",
          "type": "address"
        }
      ],
      "stateMutability": "view",
      "type": "function"
    },
    {
      "inputs": [
        {
          "internalType": "uint256",
          "name": "propId",
          "type": "uint256"
        }
      ],
      "name": "getProp",
      "outputs": [
        {
          "components": [
            {
              "internalType": "uint256",
              "name": "propId",
              "type": "uint256"
            },
            {
              "internalType": "string",
              "name": "name",
              "type": "string"
            },
            {
              "internalType": "string",
              "name": "ipfsHash",
              "type": "string"
            },
            {
              "internalType": "enum PropNFT.PropCategory",
              "name": "category",
              "type": "uint8"
            },
            {
              "internalType": "uint256",
              "name": "rentalPricePerDay",
              "type": "uint256"
            },
            {
              "internalType": "uint256",
              "name": "purchasePrice",
              "type": "uint256"
            },
            {
              "internalType": "address",
              "name": "creator",
              "type": "address"
            },
            {
              "internalType": "uint256",
              "name": "timesRented",
              "type": "uint256"
            },
            {
              "internalType": "bool",
              "name": "exclusiveLicense",
              "type": "bool"
            }
          ],
          "internalType": "struct PropNFT.Prop",
          "name": "",
          "type": "tuple"
        }
      ],
      "stateMutability": "view",
      "type": "function"
    },
    {
      "inputs": [
        {
          "internalType": "address",
          "name": "owner",
          "type": "address"
        },
        {
          "internalType": "address",
          "name": "operator",
          "type": "address"
        }
      ],
      "name": "isApprovedForAll",
      "outputs": [
        {
          "internalType": "bool",
          "name": "",
          "type": "bool"
        }
      ],
      "stateMutability": "view",
      "type": "function"
    },
    {
      "inputs": [
        {
          "internalType": "string",
          "name": "name",
          "type": "string"
        },
        {
          "internalType": "string",
          "name": "ipfsHash",
          "type": "string"
        },
        {
          "internalType": "enum PropNFT.PropCategory",
          "name": "category",
          "type": "uint8"
        },
        {
          "internalType": "uint256",
          "name": "rentalPrice",
          "type": "uint256"
        },
        {
          "internalType": "uint256",
          "name": "purchasePrice",
          "type": "uint256"
        },
        {
          "internalType": "bool",
          "name": "exclusiveLicense",
          "type": "bool"
        }
      ],
      "name": "mintProp",
      "outputs": [
        {
          "internalType": "uint256",
          "name": "",
          "type": "uint256"
        }
      ],
      "stateMutability": "nonpayable",
      "type": "function"
    },
    {
      "inputs": [],
      "name": "name",
      "outputs": [
        {
          "internalType": "string",
          "name": "",
          "type": "string"
        }
      ],
      "stateMutability": "view",
      "type": "function"
    },
    {
      "inputs": [],
      "name": "owner",
      "outputs": [
        {
          "internalType": "address",
          "name": "",
          "type": "address"
        }
      ],
      "stateMutability": "view",
      "type": "function"
    },
    {
      "inputs": [
        {
          "internalType": "uint256",
          "name": "tokenId",
          "type": "uint256"
        }
      ],
      "name": "ownerOf",
      "outputs": [
        {
          "internalType": "address",
          "name": "",
          "type": "address"
        }
      ],
      "stateMutability": "view",
      "type": "function"
    },
    {
      "inputs": [
        {
          "internalType": "uint256",
          "name": "",
          "type": "uint256"
        }
      ],
      "name": "props",
      "outputs": [
        {
          "internalType": "uint256",
          "name": "propId",
          "type": "uint256"
        },
        {
          "internalType": "string",
          "name": "name",
          "type": "string"
        },
        {
          "internalType": "string",
          "name": "ipfsHash",
          "type": "string"
        },
        {
          "internalType": "enum PropNFT.PropCategory",
          "name": "category",
          "type": "uint8"
        },
        {
          "internalType": "uint256",
          "name": "rentalPricePerDay",
          "type": "uint256"
        },
        {
          "internalType": "uint256",
          "name": "purchasePrice",
          "type": "uint256"
        },
        {
          "internalType": "address",
          "name": "creator",
          "type": "address"
        },
        {
          "internalType": "uint256",
          "name": "timesRented",
          "type": "uint256"
        },
        {
          "internalType": "bool",
          "name": "exclusiveLicense",
          "type": "bool"
        }
      ],
      "stateMutability": "view",
      "type": "function"
    },
    {
      "inputs": [
        {
          "internalType": "uint256",
          "name": "propId",
          "type": "uint256"
        }
      ],
      "name": "purchaseProp",
      "outputs": [],
      "stateMutability": "payable",
      "type": "function"
    },
    {
      "inputs": [],
      "name": "renounceOwnership",
      "outputs": [],
      "stateMutability": "nonpayable",
      "type": "function"
    },
    {
      "inputs": [
        {
          "internalType": "uint256",
          "name": "propId",
          "type": "uint256"
        },
        {
          "internalType": "uint256",
          "name": "durationDays",
          "type": "uint256"
        }
      ],
      "name": "rentProp",
      "outputs": [],
      "stateMutability": "payable",
      "type": "function"
    },
    {
      "inputs": [
        {
          "internalType": "uint256",
          "name": "",
          "type": "uint256"
        },
        {
          "internalType": "uint256",
          "name": "",
          "type": "uint256"
        }
      ],
      "name": "rentalHistory",
      "outputs": [
        {
          "internalType": "uint256",
          "name": "propId",
          "type": "uint256"
        },
        {
          "internalType": "address",
          "name": "renter",
          "type": "address"
        },
        {
          "internalType": "uint256",
          "name": "startTime",
          "type": "uint256"
        },
        {
          "internalType": "uint256",
          "name": "endTime",
          "type": "uint256"
        },
        {
          "internalType": "bool",
          "name": "active",
          "type": "bool"
        }
      ],
      "stateMutability": "view",
      "type": "function"
    },
    {
      "inputs": [
        {
          "internalType": "address",
          "name": "from",
          "type": "address"
        },
        {
          "internalType": "address",
          "name": "to",
          "type": "address"
        },
        {
          "internalType": "uint256",
          "name": "tokenId",
          "type": "uint256"
        }
      ],
      "name": "safeTransferFrom",
      "outputs": [],
      "stateMutability": "nonpayable",
      "type": "function"
    },
    {
      "inputs": [
        {
          "internalType": "address",
          "name": "from",
          "type": "address"
        },
        {
          "internalType": "address",
          "name": "to",
          "type": "address"
        },
        {
          "internalType": "uint256",
          "name": "tokenId",
          "type": "uint256"
        },
        {
          "internalType": "bytes",
          "name": "data",
          "type": "bytes"
        }
      ],
      "name": "safeTransferFrom",
      "outputs": [],
      "stateMutability": "nonpayable",
      "type": "function"
    },
    {
      "inputs": [
        {
          "internalType": "address",
          "name": "operator",
          "type": "address"
        },
        {
          "internalType": "bool",
          "name": "approved",
          "type": "bool"
        }
      ],
      "name": "setApprovalForAll",
      "outputs": [],
      "stateMutability": "nonpayable",
      "type": "function"
    },
    {
      "inputs": [
        {
          "internalType": "bytes4",
          "name": "interfaceId",
          "type": "bytes4"
        }
      ],
      "name": "supportsInterface",
      "outputs": [
        {
          "internalType": "bool",
          "name": "",
          "type": "bool"
        }
      ],
      "stateMutability": "view",
      "type": "function"
    },
    {
      "inputs": [],
      "name": "symbol",
      "outputs": [
        {
          "internalType": "string",
          "name": "",
          "type": "string"
        }
      ],
      "stateMutability": "view",
      "type": "function"
    },
    {
      "inputs": [
        {
          "internalType": "uint256",
          "name": "tokenId",
          "type": "uint256"
        }
      ],
      "name": "tokenURI",
      "outputs": [
        {
          "internalType": "string",
          "name": "",
          "type": "string"
        }
      ],
      "stateMutability": "view",
      "type": "function"
    },
    {
      "inputs": [
        {
          "internalType": "address",
          "name": "from",
          "type": "address"
        },
        {
          "internalType": "address",
          "name": "to",
          "type": "address"
        },
        {
          "internalType": "uint256",
          "name": "tokenId",
          "type": "uint256"
        }
      ],
      "name": "transferFrom",
      "outputs": [],
      "stateMutability": "nonpayable",
      "type": "function"
    },
    {
      "inputs": [
        {
          "internalType": "address",
          "name": "newOwner",
          "type": "address"
        }
      ],
      "name": "transferOwnership",
      "outputs": [],
      "stateMutability": "nonpayable",
      "type": "function"
    }
  ],
  "bytecode": "0x608034620003975760406001600160401b038282018181118482101762000381578252600883526020926704f414e2050726f760c41b84820152825191838301838110828211176200038157845260049283815263050524f560e41b868201528251908282116200036c576000968754926001958685811c9516801562000361575b838610146200034e578190601f95868111620002fb575b50839086831160011462000297578b926200028b575b5050600019600383901b1c191690861b1788555b8151938411620002785784548581811c911680156200026d575b828210146200025a57908184869594931162000203575b50809284116001146200019b575087926200018f575b5050600019600383901b1c191690821b1790555b33156200017a575060068054336001600160a01b03198216811790925591519290916001600160a01b0316907f8be0079c531659141344cd1fd0a4f28419497f9722a3daafe3b4186f6b6457e09080a361211e90816200039d8239f35b826024925191631e4fbdf760e01b8352820152fd5b01519050388062000109565b9190859450601f198416858a52838a20938a905b828210620001e95750508411620001cf575b505050811b0190556200011d565b015160001960f88460031b161c19169055388080620001c1565b8484015186558897909501949384019390810190620001af565b90919293508589528189208480870160051c82019284881062000250575b9187968992969594930160051c01915b82811062000241575050620000f3565b8b815587965088910162000231565b9250819262000221565b634e487b7160e01b895260228752602489fd5b90607f1690620000dc565b634e487b7160e01b885260418652602488fd5b015190503880620000ae565b8b8052848c208994509190601f1984168d5b87828210620002e45750508411620002ca575b505050811b018855620000c2565b015160001960f88460031b161c19169055388080620002bc565b8385015186558c97909501949384019301620002a9565b9091508a8052838b208680850160051c82019286861062000344575b918a91869594930160051c01915b8281106200033557505062000098565b8d81558594508a910162000325565b9250819262000317565b634e487b7160e01b8a526022885260248afd5b94607f169462000081565b604185634e487b7160e01b6000525260246000fd5b634e487b7160e01b600052604160045260246000fd5b600080fdfe608080604052600436101561001357600080fd5b60003560e01c90816301ffc9a7146116825750806306fdde03146115df578063081812fc14611593578063095ea7b31461145357806323b872dd1461143c578063270400f4146112f357806342842e0e146112c557806351dd9cbb1461126a5780635c7f657014610fc15780636352211e14610f8557806370a0823114610f07578063715018a614610e875780638a4f151314610e055780638da5cb5b14610dd15780638e9ec37214610c4b57806395d89b4114610b6c578063a22cb46514610a98578063b88d4fde14610a2a578063c87b56dd146109d3578063e985e9c51461096f578063f2fde38b146108ab578063f63eba54146101f75763fda54c161461011c57600080fd5b346101f25760206003193601126101f25760043560005260086020526040600020805461014b600183016119a7565b91610158600282016119a7565b60ff600383015416916004810154600582015473ffffffffffffffffffffffffffffffffffffffff600684015416916101d26101c760ff6008600788015497015416966101b96040519b8c9b8c5260208c61012091829101528c0190611751565b908a820360408c0152611751565b96606089019061187a565b608087015260a086015260c085015260e084015215156101008301520390f35b600080fd5b346101f25760c06003193601126101f25760043567ffffffffffffffff81116101f257610228903690600401611936565b60243567ffffffffffffffff81116101f257610248903690600401611936565b90600960443510156101f25760a4359081151582036101f25761026c600754611ffc565b918260075560405161027d816118a4565b60008152331561087a5773ffffffffffffffffffffffffffffffffffffffff6102a68533611cc9565b1661084957333b6106b0575b50604051936102c085611887565b83855282602086015260408501526102dd6044356060860161200b565b606435608085015260843560a08501523360c0850152600060e0850152151561010084015281600052600860205260406000209280518455602081015180519067ffffffffffffffff82116105b457819061033b6001880154611954565b601f811161065d575b50602090601f83116001146105ee576000926105e3575b50506000198260011b9260031b1c19161760018501555b604081015180519067ffffffffffffffff82116105b45781906103986002880154611954565b601f8111610561575b50602090601f83116001146104f4576000926104e9575b50506000198260011b9260031b1c19161760028501555b6060810151936003810160098610156104ba57610100610478938260209860ff60ff19600896541691161790556080810151600485015560a081015160058501556006840173ffffffffffffffffffffffffffffffffffffffff60c0830151167fffffffffffffffffffffffff000000000000000000000000000000000000000082541617905560e081015160078501550151151591019060ff60ff1983541691151516179055565b817f9f6fb0a2ccba8e8218645bbe7b244293718b14a071ba8110d4b539c0db878660604051858152806104af339588830190611751565b0390a3604051908152f35b7f4e487b7100000000000000000000000000000000000000000000000000000000600052602160045260246000fd5b0151905086806103b8565b91601f1916916002880160005260206000209260005b8181106105495750908460019594939210610530575b505050811b0160028501556103cf565b015160001960f88460031b161c19169055868080610520565b9293602060018192878601518155019501930161050a565b909150600287016000526020600020601f840160051c8101602085106105ad575b90849392915b601f830160051c8201811061059e5750506103a1565b60008155859450600101610588565b5080610582565b7f4e487b7100000000000000000000000000000000000000000000000000000000600052604160045260246000fd5b01519050868061035b565b9150600187016000526020600020916000601f198516905b818110610645575090846001959493921061062c575b505050811b016001850155610372565b015160001960f88460031b161c1916905586808061061c565b92936020600181928786015181550195019301610606565b909150600187016000526020600020601f840160051c8101602085106106a9575b90849392915b601f830160051c8201811061069a575050610344565b60008155859450600101610684565b508061067e565b9061070b949392916040517f150b7a020000000000000000000000000000000000000000000000000000000091828252336004830152600060248301528560448301526080606483015281806020998a936084830190611751565b03816000335af1600091816107f1575b5061078d57863d15610785573d90610732826118e3565b9161074060405193846118c0565b82523d60008284013e5b815191826107825760246040517f64a0ae92000000000000000000000000000000000000000000000000000000008152336004820152fd5b01fd5b60609061074a565b7fffffffff000000000000000000000000000000000000000000000000000000009192939495965016036107c157846102b2565b60246040517f64a0ae92000000000000000000000000000000000000000000000000000000008152336004820152fd5b9091508781813d8311610842575b61080981836118c0565b810103126101f257517fffffffff00000000000000000000000000000000000000000000000000000000811681036101f257908861071b565b503d6107ff565b60246040517f73c6ac6e00000000000000000000000000000000000000000000000000000000815260006004820152fd5b60246040517f64a0ae9200000000000000000000000000000000000000000000000000000000815260006004820152fd5b346101f25760206003193601126101f2576108c4611791565b6108cc611a4e565b73ffffffffffffffffffffffffffffffffffffffff80911690811561093e57600654827fffffffffffffffffffffffff0000000000000000000000000000000000000000821617600655167f8be0079c531659141344cd1fd0a4f28419497f9722a3daafe3b4186f6b6457e0600080a3005b60246040517f1e4fbdf700000000000000000000000000000000000000000000000000000000815260006004820152fd5b346101f25760406003193601126101f257610988611791565b6109906117b4565b9073ffffffffffffffffffffffffffffffffffffffff809116600052600560205260406000209116600052602052602060ff604060002054166040519015158152f35b346101f25760206003193601126101f2576109ef600435611dc6565b5060006040516109fe816118a4565b52610a26604051610a0e816118a4565b60008152604051918291602083526020830190611751565b0390f35b346101f25760806003193601126101f257610a43611791565b610a4b6117b4565b906044356064359267ffffffffffffffff84116101f257366023850112156101f257610a84610a969436906024816004013591016118ff565b92610a90838383611a9f565b33611e27565b005b346101f25760406003193601126101f257610ab1611791565b60243590811515908183036101f25773ffffffffffffffffffffffffffffffffffffffff16918215610b3b57610b0d9033600052600560205260406000208460005260205260406000209060ff60ff1983541691151516179055565b6040519081527f17307eab39ab6107e8899845ad3d59bd9653f200f220920489ca2b5937696c3160203392a3005b602483604051907f5b08ba180000000000000000000000000000000000000000000000000000000082526004820152fd5b346101f25760006003193601126101f25760405160006001805490610b9082611954565b80855291818116908115610c245750600114610bcb575b610a2684610bb7818603826118c0565b604051918291602083526020830190611751565b600081815292507fb10e2d527612073b26eecdfd717e6a320cf44b4afac2b0732d9fcbe2b7fa0cf65b828410610c0c575050508101602001610bb782610ba7565b80546020858701810191909152909301928101610bf4565b60ff191660208087019190915292151560051b85019092019250610bb79150839050610ba7565b346101f2576020806003193601126101f25760405190610c6a82611887565b60008252606081830152606060408301526000606083015260006080830152600060a0830152600060c0830152600060e083015260006101008093015260043560005260088152604060002060405191610cc383611887565b81548352610cd3600183016119a7565b93818401948552610ce6600284016119a7565b90604085019182528460ff60038601541694610d0660608301968761200b565b60048101549060808301918252600581015460a0840190815273ffffffffffffffffffffffffffffffffffffffff92610dae610da260ff6008876006880154169660c08a0197885260e060078201549a01998a5201541698888d019915158a52610d8f6040519e8f9e8f9d8e9181835251910152516101406101209d8e60408201520190611751565b90518d8203601f190160608f0152611751565b995160808c019061187a565b5160a08a01525160c0890152511660e08701525190850152511515908301520390f35b346101f25760006003193601126101f257602073ffffffffffffffffffffffffffffffffffffffff60065416604051908152f35b346101f257610e1336611819565b906000526009602052604060002080548210156101f25760a091610e369161182f565b5080549073ffffffffffffffffffffffffffffffffffffffff60018201541690600281015460ff60046003840154930154169260405194855260208501526040840152606083015215156080820152f35b346101f25760006003193601126101f257610ea0611a4e565b600073ffffffffffffffffffffffffffffffffffffffff6006547fffffffffffffffffffffffff00000000000000000000000000000000000000008116600655167f8be0079c531659141344cd1fd0a4f28419497f9722a3daafe3b4186f6b6457e08280a3005b346101f25760206003193601126101f25773ffffffffffffffffffffffffffffffffffffffff610f35611791565b168015610f545760005260036020526020604060002054604051908152f35b60246040517f89c62b6400000000000000000000000000000000000000000000000000000000815260006004820152fd5b346101f25760206003193601126101f2576020610fa3600435611dc6565b73ffffffffffffffffffffffffffffffffffffffff60405191168152f35b610fca36611819565b908060005260206008815260406000206004810154848102908082048614901517156111cf57610ffc90341015612017565b60ff6008820154166111fe575b620151808085029085820414851517156111cf574201908142116111cf57836000526009835260406000206040519060a0820182811067ffffffffffffffff8211176105b4576040528582528482013381526040830194428652606084019081526080840192600184528054680100000000000000008110156105b4576110959160018201815561182f565b9590956111a05761111a6000979660048998966006958a99988a995185556001850173ffffffffffffffffffffffffffffffffffffffff809a51167fffffffffffffffffffffffff000000000000000000000000000000000000000082541617905551600285015551600384015551151591019060ff60ff1983541691151516179055565b888452600a885260408420338552885260408420600160ff19825416179055600781016111478154611ffc565b905501541681903415611196575b3491f11561118a577ff547489c5b476849d2493b8c2120429a4dd0d06b2a33caa03a3ef643319ccd71906040519384523393a3005b6040513d6000823e3d90fd5b6108fc9150611155565b7f4e487b7100000000000000000000000000000000000000000000000000000000600052600060045260246000fd5b7f4e487b7100000000000000000000000000000000000000000000000000000000600052601160045260246000fd5b6112078361207c565b1561100957606482604051907f08c379a00000000000000000000000000000000000000000000000000000000082526004820152601a60248201527f416c72656164792072656e74656420286578636c7573697665290000000000006044820152fd5b346101f25760406003193601126101f2576112836117b4565b600435600052600a60205273ffffffffffffffffffffffffffffffffffffffff60406000209116600052602052602060ff604060002054166040519015158152f35b346101f257610a966112d6366117d7565b90604051926112e4846118a4565b60008452610a90838383611a9f565b60206003193601126101f25760043580600052600860205261131f600560406000200154341015612017565b61132881611dc6565b331561087a576113388233611cc9565b73ffffffffffffffffffffffffffffffffffffffff908082168061138757602485604051907f7e2732890000000000000000000000000000000000000000000000000000000082526004820152fd5b828416036113e3575060008080938193829034156113d9575b34921690f11561118a57604051903482527f9a44f5fb0ad7719886edce3df660f583099a9b1639338741c0f34f2e400f9c9e60203393a3005b6108fc91506113a0565b6040517f64283d7b00000000000000000000000000000000000000000000000000000000815273ffffffffffffffffffffffffffffffffffffffff93841660048201526024810194909452909116604483015250606490fd5b346101f257610a9661144d366117d7565b91611a9f565b346101f25760406003193601126101f25761146c611791565b60243561147881611dc6565b33151580611573575b80611538575b61150857819073ffffffffffffffffffffffffffffffffffffffff809416938491167f8c5be1e5ebec7d5bd14f71427d1e84f3dd0314c0f7b2291e5b200ac8c7c3b925600080a460005260046020526040600020907fffffffffffffffffffffffff0000000000000000000000000000000000000000825416179055600080f35b60246040517fa9fbf51f000000000000000000000000000000000000000000000000000000008152336004820152fd5b5073ffffffffffffffffffffffffffffffffffffffff8116600052600560205260406000203360005260205260ff6040600020541615611487565b503373ffffffffffffffffffffffffffffffffffffffff82161415611481565b346101f25760206003193601126101f2576004356115b081611dc6565b506000526004602052602073ffffffffffffffffffffffffffffffffffffffff60406000205416604051908152f35b346101f25760006003193601126101f2576040516000805461160081611954565b80845290600190818116908115610c24575060011461162957610a2684610bb7818603826118c0565b600080805292507f290decd9548b62a8d60345a988386fc84ba6bc95484008f6362f93160ef3e5635b82841061166a575050508101602001610bb782610ba7565b80546020858701810191909152909301928101611652565b346101f25760206003193601126101f257600435907fffffffff0000000000000000000000000000000000000000000000000000000082168092036101f257817f80ac58cd0000000000000000000000000000000000000000000000000000000060209314908115611727575b81156116fd575b5015158152f35b7f01ffc9a700000000000000000000000000000000000000000000000000000000915014836116f6565b7f5b5e139f00000000000000000000000000000000000000000000000000000000811491506116ef565b919082519283825260005b84811061177d575050601f19601f8460006020809697860101520116010190565b60208183018101518483018201520161175c565b6004359073ffffffffffffffffffffffffffffffffffffffff821682036101f257565b6024359073ffffffffffffffffffffffffffffffffffffffff821682036101f257565b60031960609101126101f25773ffffffffffffffffffffffffffffffffffffffff9060043582811681036101f2579160243590811681036101f2579060443590565b60031960409101126101f2576004359060243590565b805482101561184b576000526005602060002091020190600090565b7f4e487b7100000000000000000000000000000000000000000000000000000000600052603260045260246000fd5b9060098210156104ba5752565b610120810190811067ffffffffffffffff8211176105b457604052565b6020810190811067ffffffffffffffff8211176105b457604052565b90601f601f19910116810190811067ffffffffffffffff8211176105b457604052565b67ffffffffffffffff81116105b457601f01601f191660200190565b92919261190b826118e3565b9161191960405193846118c0565b8294818452818301116101f2578281602093846000960137010152565b9080601f830112156101f257816020611951933591016118ff565b90565b90600182811c9216801561199d575b602083101461196e57565b7f4e487b7100000000000000000000000000000000000000000000000000000000600052602260045260246000fd5b91607f1691611963565b90604051918260008254926119bb84611954565b908184526001948581169081600014611a2a57506001146119e7575b50506119e5925003836118c0565b565b9093915060005260209081600020936000915b818310611a125750506119e5935082010138806119d7565b855488840185015294850194879450918301916119fa565b90506119e595506020935060ff1991501682840152151560051b82010138806119d7565b73ffffffffffffffffffffffffffffffffffffffff600654163303611a6f57565b60246040517f118cdaa7000000000000000000000000000000000000000000000000000000008152336004820152fd5b9073ffffffffffffffffffffffffffffffffffffffff809116801561087a57600091848352846020926002845260409383858720541695869133151580611c01575b509060027fddf252ad1be2c89b69c2b068fc378daa952ba7f163c4a11628f55a4df523b3ef9284611bb1575b858352600381528883206001815401905586835252868120847fffffffffffffffffffffffff000000000000000000000000000000000000000082541617905580a483168203611b5d5750505050565b517f64283d7b00000000000000000000000000000000000000000000000000000000815273ffffffffffffffffffffffffffffffffffffffff92831660048201526024810193909352166044820152606490fd5b611bea87600052600460205260406000207fffffffffffffffffffffffff00000000000000000000000000000000000000008154169055565b848352600381528883206000198154019055611b0d565b91939450915080611c88575b15611c1d57879291869138611ae1565b848887611c535760249151907f7e2732890000000000000000000000000000000000000000000000000000000082526004820152fd5b60449151907f177e802f0000000000000000000000000000000000000000000000000000000082523360048301526024820152fd5b503386148015611cad575b80611c0d5750878252600481523384868420541614611c0d565b5085825260058152848220338352815260ff8583205416611c93565b906000818152600260205273ffffffffffffffffffffffffffffffffffffffff927fddf252ad1be2c89b69c2b068fc378daa952ba7f163c4a11628f55a4df523b3ef8460408420541694859283611d74575b169283611d5c575b848152600260205260408120847fffffffffffffffffffffffff000000000000000000000000000000000000000082541617905580a490565b83815260036020526040812060018154019055611d23565b611dad86600052600460205260406000207fffffffffffffffffffffffff00000000000000000000000000000000000000008154169055565b8385526003602052604085206000198154019055611d1b565b80600052600260205273ffffffffffffffffffffffffffffffffffffffff60406000205416908115611df6575090565b602490604051907f7e2732890000000000000000000000000000000000000000000000000000000082526004820152fd5b90939192833b611e39575b5050505050565b73ffffffffffffffffffffffffffffffffffffffff95929394958095169460405196817f150b7a020000000000000000000000000000000000000000000000000000000094858a5216600489015216602487015260448601526080606486015284611eaa6020946084830190611751565b039483816000978189895af1869181611fa0575b50611f37575050503d600014611f2e573d611ed8816118e3565b90611ee660405192836118c0565b81528093823d92013e5b82519283611f2957602483604051907f64a0ae920000000000000000000000000000000000000000000000000000000082526004820152fd5b019050fd5b60609250611ef0565b9092507fffffffff000000000000000000000000000000000000000000000000000000009194501603611f6f57503880808080611e32565b602490604051907f64a0ae920000000000000000000000000000000000000000000000000000000082526004820152fd5b9091508481813d8311611ff5575b611fb881836118c0565b81010312611ff157517fffffffff0000000000000000000000000000000000000000000000000000000081168103611ff1579038611ebe565b8680fd5b503d611fae565b60001981146111cf5760010190565b60098210156104ba5752565b1561201e57565b60646040517f08c379a000000000000000000000000000000000000000000000000000000000815260206004820152601460248201527f496e73756666696369656e74207061796d656e740000000000000000000000006044820152fd5b600052600960205260406000206000908054915b82811061209f57505050600090565b60ff60046120ad838561182f565b50015416806120d1575b6120c9576120c490611ffc565b612090565b505050600190565b5060036120de828461182f565b50015442106120b756fea2646970667358221220d46fec0cbbd871b7809fd93c7202ceea59d1ce969d66ad85048abbbd3d0464f064736f6c63430008140033",
  "linkReferences": {},
  "deployedLinkReferences": {}
}