{
  "_format": "hh-sol-artifact-1",
  "contractName": "PropNFT",
  "sourceName": "contracts/layer4/media/PropNFT.sol",
  "abi": [
    {
      "inputs": [],
      "stateMutability": "nonpayable",
      "type": "constructor"
    },
    {
      "inputs": [
        {
          "internalType": "address",
          "name": "sender",
          "type": "address"
        },
        {
          "internalType": "uint256",
          "name": "tokenId",
          "type": "uint256"
        },
        {
          "internalType": "address",
          "name": "owner",
          "type": "address"
        }
      ],
      "name": "ERC721IncorrectOwner",
      "type": "error"
    },
    {
      "inputs": [
        {
          "internalType": "address",
          "name": "operator",
          "type": "address"
        },
        {
          "internalType": "uint256",
          "name": "tokenId",
          "type": "uint256"
        }
      ],
      "name": "ERC721InsufficientApproval",
      "type": "error"
    },
    {
      "inputs": [
        {
          "internalType": "address",
          "name": "approver",
          "type": "address"
        }
      ],
      "name": "ERC721InvalidApprover",
      "type": "error"
    },
    {
      "inputs": [
        {
          "internalType": "address",
          "name": "operator",
          "type": "address"
        }
      ],
      "name": "ERC721InvalidOperator",
      "type": "error"
    },
    {
      "inputs": [
        {
          "internalType": "address",
          "name": "owner",
          "type": "address"
        }
      ],
      "name": "ERC721InvalidOwner",
      "type": "error"
    },
    {
      "inputs": [
        {
          "internalType": "address",
          "name": "receiver",
          "type": "address"
        }
      ],
      "name": "ERC721InvalidReceiver",
      "type": "error"
    },
    {
      "inputs": [
        {
          "internalType": "address",
          "name": "sender",
          "type": "address"
        }
      ],
      "name": "ERC721InvalidSender",
      "type": "error"
    },
    {
      "inputs": [
        {
          "internalType": "uint256",
          "name": "tokenId",
          "type": "uint256"
        }
      ],
      "name": "ERC721NonexistentToken",
      "type": "error"
    },
    {
      "inputs": [
        {
          "internalType": "address",
          "name": "owner",
          "type": "address"
        }
      ],
      "name": "OwnableInvalidOwner",
      "type": "error"
    },
    {
      "inputs": [
        {
          "internalType": "address",
          "name": "account",
          "type": "address"
        }
      ],
      "name": "OwnableUnauthorizedAccount",
      "type": "error"
    },
    {
      "anonymous": false,
      "inputs": [
        {
          "indexed": true,
          "internalType": "address",
          "name": "owner",
          "type": "address"
        },
        {
          "indexed": true,
          "internalType": "address",
          "name": "approved",
          "type": "address"
        },
        {
          "indexed": true,
          "internalType": "uint256",
          "name": "tokenId",
          "type": "uint256"
        }
      ],
      "name": "Approval",
      "type": "event"
    },
    {
      "anonymous": false,
      "inputs": [
        {
          "indexed": true,
          "internalType": "address",
          "name": "owner",
          "type": "address"
        },
        {
          "indexed": true,
          "internalType": "address",
          "name": "operator",
          "type": "address"
        },
        {
          "indexed": false,
          "internalType": "bool",
          "name": "approved",
          "type": "bool"
        }
      ],
      "name": "ApprovalForAll",
      "type": "event"
    },
    {
      "anonymous": false,
      "inputs": [
        {
          "indexed": true,
          "internalType": "address",
          "name": "previousOwner",
          "type": "address"
        },
        {
          "indexed": true,
          "internalType": "address",
          "name": "newOwner",
          "type": "address"
        }
      ],
      "name": "OwnershipTransferred",
      "type": "event"
    },
    {
      "anonymous": false,
      "inputs": [
        {
          "indexed": true,
          "internalType": "uint256",
          "name": "propId",
          "type": "uint256"
        },
        {
          "indexed": false,
          "internalType": "string",
          "name": "name",
          "type": "string"
        },
        {
          "indexed": true,
          "internalType": "address",
          "name": "creator",
          "type": "address"
        }
      ],
      "name": "PropMinted",
      "type": "event"
    },
    {
      "anonymous": false,
      "inputs": [
        {
          "indexed": true,
          "internalType": "uint256",
          "name": "propId",
          "type": "uint256"
        },
        {
          "indexed": true,
          "internalType": "address",
          "name": "buyer",
          "type": "address"
        },
        {
          "indexed": false,
          "internalType": "uint256",
          "name": "price",
          "type": "uint256"
        }
      ],
      "name": "PropPurchased",
      "type": "event"
    },
    {
      "anonymous": false,
      "inputs": [
        {
          "indexed": true,
          "internalType": "uint256",
          "name": "propId",
          "type": "uint256"
        },
        {
          "indexed": true,
          "internalType": "address",
          "name": "renter",
          "type": "address"
        },
        {
          "indexed": false,
          "internalType": "uint256",
          "name": "duration",
          "type": "uint256"
        }
      ],
      "name": "PropRented",
      "type": "event"
    },
    {
      "anonymous": false,
      "inputs": [
        {
          "indexed": true,
          "internalType": "address",
          "name": "from",
          "type": "address"
        },
        {
          "indexed": true,
          "internalType": "address",
          "name": "to",
          "type": "address"
        },
        {
          "indexed": true,
          "internalType": "uint256",
          "name": "tokenId",
          "type": "uint256"
        }
      ],
      "name": "Transfer",
      "type": "event"
    },
    {
      "inputs": [
        {
          "internalType": "address",
          "name": "to",
          "type": "address"
        },
        {
          "internalType": "uint256",
          "name": "tokenId",
          "type": "uint256"
        }
      ],
      "name": "approve",
      "outputs": [],
      "stateMutability": "nonpayable",
      "type": "function"
    },
    {
      "inputs": [
        {
          "internalType": "address",
          "name": "owner",
          "type": "address"
        }
      ],
      "name": "balanceOf",
      "outputs": [
        {
          "internalType": "uint256",
          "name": "",
          "type": "uint256"
        }
      ],
      "stateMutability": "view",
      "type": "function"
    },
    {
      "inputs": [
        {
          "internalType": "uint256",
          "name": "",
          "type": "uint256"
        },
        {
          "internalType": "address",
          "name": "",
          "type": "address"
        }
      ],
      "name": "currentRentals",
      "outputs": [
        {
          "internalType": "bool",
          "name": "",
          "type": "bool"
        }
      ],
      "stateMutability": "view",
      "type": "function"
    },
    {
      "inputs": [
        {
          "internalType": "uint256",
          "name": "tokenId",
          "type": "uint256"
        }
      ],
      "name": "getApproved",
      "outputs": [
        {
          "internalType": "address",
          "name": "",
          "type": "address"
        }
      ],
      "stateMutability": "view",
      "type": "function"
    },
    {
      "inputs": [
        {
          "internalType": "uint256",
          "name": "propId",
          "type": "uint256"
        }
      ],
      "name": "getProp",
      "outputs": [
        {
          "components": [
            {
              "internalType": "uint256",
              "name": "propId",
              "type": "uint256"
            },
            {
              "internalType": "string",
              "name": "name",
              "type": "string"
            },
            {
              "internalType": "string",
              "name": "ipfsHash",
              "type": "string"
            },
            {
              "internalType": "enum PropNFT.PropCategory",
              "name": "category",
              "type": "uint8"
            },
            {
              "internalType": "uint256",
              "name": "rentalPricePerDay",
              "type": "uint256"
            },
            {
              "internalType": "uint256",
              "name": "purchasePrice",
              "type": "uint256"
            },
            {
              "internalType": "address",
              "name": "creator",
              "type": "address"
            },
            {
              "internalType": "uint256",
              "name": "timesRented",
              "type": "uint256"
            },
            {
              "internalType": "bool",
              "name": "exclusiveLicense",
              "type": "bool"
            }
          ],
          "internalType": "struct PropNFT.Prop",
          "name": "",
          "type": "tuple"
        }
      ],
      "stateMutability": "view",
      "type": "function"
    },
    {
      "inputs": [
        {
          "internalType": "address",
          "name": "owner",
          "type": "address"
        },
        {
          "internalType": "address",
          "name": "operator",
          "type": "address"
        }
      ],
      "name": "isApprovedForAll",
      "outputs": [
        {
          "internalType": "bool",
          "name": "",
          "type": "bool"
        }
      ],
      "stateMutability": "view",
      "type": "function"
    },
    {
      "inputs": [
        {
          "internalType": "string",
          "name": "name",
          "type": "string"
        },
        {
          "internalType": "string",
          "name": "ipfsHash",
          "type": "string"
        },
        {
          "internalType": "enum PropNFT.PropCategory",
          "name": "category",
          "type": "uint8"
        },
        {
          "internalType": "uint256",
          "name": "rentalPrice",
          "type": "uint256"
        },
        {
          "internalType": "uint256",
          "name": "purchasePrice",
          "type": "uint256"
        },
        {
          "internalType": "bool",
          "name": "exclusiveLicense",
          "type": "bool"
        }
      ],
      "name": "mintProp",
      "outputs": [
        {
          "internalType": "uint256",
          "name": "",
          "type": "uint256"
        }
      ],
      "stateMutability": "nonpayable",
      "type": "function"
    },
    {
      "inputs": [],
      "name": "name",
      "outputs": [
        {
          "internalType": "string",
          "name": "",
          "type": "string"
        }
      ],
      "stateMutability": "view",
      "type": "function"
    },
    {
      "inputs": [],
      "name": "owner",
      "outputs": [
        {
          "internalType": "address",
          "name": "",
          "type": "address"
        }
      ],
      "stateMutability": "view",
      "type": "function"
    },
    {
      "inputs": [
        {
          "internalType": "uint256",
          "name": "tokenId",
          "type": "uint256"
        }
      ],
      "name": "ownerOf",
      "outputs": [
        {
          "internalType": "address",
          "name": "",
          "type": "address"
        }
      ],
      "stateMutability": "view",
      "type": "function"
    },
    {
      "inputs": [
        {
          "internalType": "uint256",
          "name": "",
          "type": "uint256"
        }
      ],
      "name": "props",
      "outputs": [
        {
          "internalType": "uint256",
          "name": "propId",
          "type": "uint256"
        },
        {
          "internalType": "string",
          "name": "name",
          "type": "string"
        },
        {
          "internalType": "string",
          "name": "ipfsHash",
          "type": "string"
        },
        {
          "internalType": "enum PropNFT.PropCategory",
          "name": "category",
          "type": "uint8"
        },
        {
          "internalType": "uint256",
          "name": "rentalPricePerDay",
          "type": "uint256"
        },
        {
          "internalType": "uint256",
          "name": "purchasePrice",
          "type": "uint256"
        },
        {
          "internalType": "address",
          "name": "creator",
          "type": "address"
        },
        {
          "internalType": "uint256",
          "name": "timesRented",
          "type": "uint256"
        },
        {
          "internalType": "bool",
          "name": "exclusiveLicense",
          "type": "bool"
        }
      ],
      "stateMutability": "view",
      "type": "function"
    },
    {
      "inputs": [
        {
          "internalType": "uint256",
          "name": "propId",
          "type": "uint256"
        }
      ],
      "name": "purchaseProp",
      "outputs": [],
      "stateMutability": "payable",
      "type": "function"
    },
    {
      "inputs": [],
      "name": "renounceOwnership",
      "outputs": [],
      "stateMutability": "nonpayable",
      "type": "function"
    },
    {
      "inputs": [
        {
          "internalType": "uint256",
          "name": "propId",
          "type": "uint256"
        },
        {
          "internalType": "uint256",
          "name": "durationDays",
          "type": "uint256"
        }
      ],
      "name": "rentProp",
      "outputs": [],
      "stateMutability": "payable",
      "type": "function"
    },
    {
      "inputs": [
        {
          "internalType": "uint256",
          "name": "",
          "type": "uint256"
        },
        {
          "internalType": "uint256",
          "name": "",
          "type": "uint256"
        }
      ],
      "name": "rentalHistory",
      "outputs": [
        {
          "internalType": "uint256",
          "name": "propId",
          "type": "uint256"
        },
        {
          "internalType": "address",
          "name": "renter",
          "type": "address"
        },
        {
          "internalType": "uint256",
          "name": "startTime",
          "type": "uint256"
        },
        {
          "internalType": "uint256",
          "name": "endTime",
          "type": "uint256"
        },
        {
          "internalType": "bool",
          "name": "active",
          "type": "bool"
        }
      ],
      "stateMutability": "view",
      "type": "function"
    },
    {
      "inputs": [
        {
          "internalType": "address",
          "name": "from",
          "type": "address"
        },
        {
          "internalType": "address",
          "name": "to",
          "type": "address"
        },
        {
          "internalType": "uint256",
          "name": "tokenId",
          "type": "uint256"
        }
      ],
      "name": "safeTransferFrom",
      "outputs": [],
      "stateMutability": "nonpayable",
      "type": "function"
    },
    {
      "inputs": [
        {
          "internalType": "address",
          "name": "from",
          "type": "address"
        },
        {
          "internalType": "address",
          "name": "to",
          "type": "address"
        },
        {
          "internalType": "uint256",
          "name": "tokenId",
          "type": "uint256"
        },
        {
          "internalType": "bytes",
          "name": "data",
          "type": "bytes"
        }
      ],
      "name": "safeTransferFrom",
      "outputs": [],
      "stateMutability": "nonpayable",
      "type": "function"
    },
    {
      "inputs": [
        {
          "internalType": "address",
          "name": "operator",
          "type": "address"
        },
        {
          "internalType": "bool",
          "name": "approved",
          "type": "bool"
        }
      ],
      "name": "setApprovalForAll",
      "outputs": [],
      "stateMutability": "nonpayable",
      "type": "function"
    },
    {
      "inputs": [
        {
          "internalType": "bytes4",
          "name": "interfaceId",
          "type": "bytes4"
        }
      ],
      "name": "supportsInterface",
      "outputs": [
        {
          "internalType": "bool",
          "name": "",
          "type": "bool"
        }
      ],
      "stateMutability": "view",
      "type": "function"
    },
    {
      "inputs": [],
      "name": "symbol",
      "outputs": [
        {
          "internalType": "string",
          "name": "",
          "type": "string"
        }
      ],
      "stateMutability": "view",
      "type": "function"
    },
    {
      "inputs": [
        {
          "internalType": "uint256",
          "name": "tokenId",
          "type": "uint256"
        }
      ],
      "name": "tokenURI",
      "outputs": [
        {
          "internalType": "string",
          "name": "",
          "type": "string"
        }
      ],
      "stateMutability": "view",
      "type": "function"
    },
    {
      "inputs": [
        {
          "internalType": "address",
          "name": "from",
          "type": "address"
        },
        {
          "internalType": "address",
          "name": "to",
          "type": "address"
        },
        {
          "internalType": "uint256",
          "name": "tokenId",
          "type": "uint256"
        }
      ],
      "name": "transferFrom",
      "outputs": [],
      "stateMutability": "nonpayable",
      "type": "function"
    },
    {
      "inputs": [
        {
          "internalType": "address",
          "name": "newOwner",
          "type": "address"
        }
      ],
      "name": "transferOwnership",
      "outputs": [],
      "stateMutability": "nonpayable",
      "type": "function"
    }
  ],
  "bytecode": "0x60806040523480156200001157600080fd5b50336040518060400160405280600881526020016704f414e2050726f760c41b81525060405180604001604052806004815260200163050524f560e41b8152508160009081620000629190620001ac565b506001620000718282620001ac565b5050506001600160a01b038116620000a357604051631e4fbdf760e01b81526000600482015260240160405180910390fd5b620000ae81620000b5565b5062000278565b600680546001600160a01b038381166001600160a01b0319831681179093556040519116919082907f8be0079c531659141344cd1fd0a4f28419497f9722a3daafe3b4186f6b6457e090600090a35050565b634e487b7160e01b600052604160045260246000fd5b600181811c908216806200013257607f821691505b6020821081036200015357634e487b7160e01b600052602260045260246000fd5b50919050565b601f821115620001a757600081815260208120601f850160051c81016020861015620001825750805b601f850160051c820191505b81811015620001a3578281556001016200018e565b5050505b505050565b81516001600160401b03811115620001c857620001c862000107565b620001e081620001d984546200011d565b8462000159565b602080601f831160018114620002185760008415620001ff5750858301515b600019600386901b1c1916600185901b178555620001a3565b600085815260208120601f198616915b82811015620002495788860151825594840194600190910190840162000228565b5085821015620002685787850151600019600388901b60f8161c191681555b5050505050600190811b01905550565b61209b80620002886000396000f3fe6080604052600436106101405760003560e01c8063715018a6116100b6578063b88d4fde1161006f578063b88d4fde146103cc578063c87b56dd146103ec578063e985e9c51461040c578063f2fde38b1461042c578063f63eba541461044c578063fda54c161461046c57600080fd5b8063715018a6146102e55780638a4f1513146102fa5780638da5cb5b1461034c5780638e9ec3721461036a57806395d89b4114610397578063a22cb465146103ac57600080fd5b8063270400f411610108578063270400f41461021657806342842e0e1461022957806351dd9cbb146102495780635c7f6570146102845780636352211e1461029757806370a08231146102b757600080fd5b806301ffc9a71461014557806306fdde031461017a578063081812fc1461019c578063095ea7b3146101d457806323b872dd146101f6575b600080fd5b34801561015157600080fd5b50610165610160366004611926565b6104a1565b60405190151581526020015b60405180910390f35b34801561018657600080fd5b5061018f6104f3565b6040516101719190611993565b3480156101a857600080fd5b506101bc6101b73660046119a6565b610585565b6040516001600160a01b039091168152602001610171565b3480156101e057600080fd5b506101f46101ef3660046119db565b6105ae565b005b34801561020257600080fd5b506101f4610211366004611a05565b6105bd565b6101f46102243660046119a6565b61064d565b34801561023557600080fd5b506101f4610244366004611a05565b610731565b34801561025557600080fd5b50610165610264366004611a41565b600a60209081526000928352604080842090915290825290205460ff1681565b6101f4610292366004611a6d565b610751565b3480156102a357600080fd5b506101bc6102b23660046119a6565b61097a565b3480156102c357600080fd5b506102d76102d2366004611a8f565b610985565b604051908152602001610171565b3480156102f157600080fd5b506101f46109cd565b34801561030657600080fd5b5061031a610315366004611a6d565b6109e1565b604080519586526001600160a01b0390941660208601529284019190915260608301521515608082015260a001610171565b34801561035857600080fd5b506006546001600160a01b03166101bc565b34801561037657600080fd5b5061038a6103853660046119a6565b610a3c565b6040516101719190611ae2565b3480156103a357600080fd5b5061018f610c0a565b3480156103b857600080fd5b506101f46103c7366004611b9f565b610c19565b3480156103d857600080fd5b506101f46103e7366004611c55565b610c24565b3480156103f857600080fd5b5061018f6104073660046119a6565b610c3c565b34801561041857600080fd5b50610165610427366004611cd1565b610cb1565b34801561043857600080fd5b506101f4610447366004611a8f565b610cdf565b34801561045857600080fd5b506102d7610467366004611d1b565b610d1d565b34801561047857600080fd5b5061048c6104873660046119a6565b610ea2565b60405161017199989796959493929190611db8565b60006001600160e01b031982166380ac58cd60e01b14806104d257506001600160e01b03198216635b5e139f60e01b145b806104ed57506301ffc9a760e01b6001600160e01b03198316145b92915050565b60606000805461050290611e2d565b80601f016020809104026020016040519081016040528092919081815260200182805461052e90611e2d565b801561057b5780601f106105505761010080835404028352916020019161057b565b820191906000526020600020905b81548152906001019060200180831161055e57829003601f168201915b5050505050905090565b60006105908261100b565b506000828152600460205260409020546001600160a01b03166104ed565b6105b9828233611044565b5050565b6001600160a01b0382166105ec57604051633250574960e11b8152600060048201526024015b60405180910390fd5b60006105f9838333611051565b9050836001600160a01b0316816001600160a01b031614610647576040516364283d7b60e01b81526001600160a01b03808616600483015260248201849052821660448201526064016105e3565b50505050565b600081815260086020526040902060058101543410156106a65760405162461bcd60e51b8152602060048201526014602482015273125b9cdd59999a58da595b9d081c185e5b595b9d60621b60448201526064016105e3565b60006106b18361097a565b90506106be81338561114a565b6040516001600160a01b038216903480156108fc02916000818181858888f193505050501580156106f3573d6000803e3d6000fd5b50604051348152339084907f9a44f5fb0ad7719886edce3df660f583099a9b1639338741c0f34f2e400f9c9e906020015b60405180910390a3505050565b61074c83838360405180602001604052806000815250610c24565b505050565b6000828152600860205260409020600481015461076f908390611e7d565b3410156107b55760405162461bcd60e51b8152602060048201526014602482015273125b9cdd59999a58da595b9d081c185e5b595b9d60621b60448201526064016105e3565b600881015460ff1615610818576107cb836111fa565b156108185760405162461bcd60e51b815260206004820152601a60248201527f416c72656164792072656e74656420286578636c75736976652900000000000060448201526064016105e3565b60006108278362015180611e7d565b6108319042611e94565b6000858152600960209081526040808320815160a08101835289815233818501818152428386019081526060840189815260016080860181815287548083018955978b52898b2096516005909802909601968755925186840180546001600160a01b03929092166001600160a01b03199092169190911790559051600286015551600385015591516004909301805493151560ff199485161790558a8652600a855283862090865290935290832080549091169091179055600784018054929350906108fc83611ea7565b909155505060068201546040516001600160a01b03909116903480156108fc02916000818181858888f1935050505015801561093c573d6000803e3d6000fd5b50604051838152339085907ff547489c5b476849d2493b8c2120429a4dd0d06b2a33caa03a3ef643319ccd719060200160405180910390a350505050565b60006104ed8261100b565b60006001600160a01b0382166109b1576040516322718ad960e21b8152600060048201526024016105e3565b506001600160a01b031660009081526003602052604090205490565b6109d5611295565b6109df60006112c2565b565b600960205281600052604060002081815481106109fd57600080fd5b6000918252602090912060059091020180546001820154600283015460038401546004909401549295506001600160a01b039091169350919060ff1685565b610a446118a8565b600860008381526020019081526020016000206040518061012001604052908160008201548152602001600182018054610a7d90611e2d565b80601f0160208091040260200160405190810160405280929190818152602001828054610aa990611e2d565b8015610af65780601f10610acb57610100808354040283529160200191610af6565b820191906000526020600020905b815481529060010190602001808311610ad957829003601f168201915b50505050508152602001600282018054610b0f90611e2d565b80601f0160208091040260200160405190810160405280929190818152602001828054610b3b90611e2d565b8015610b885780601f10610b5d57610100808354040283529160200191610b88565b820191906000526020600020905b815481529060010190602001808311610b6b57829003601f168201915b5050509183525050600382015460209091019060ff166008811115610baf57610baf611aaa565b6008811115610bc057610bc0611aaa565b8152600482015460208201526005820154604082015260068201546001600160a01b031660608201526007820154608082015260089091015460ff16151560a09091015292915050565b60606001805461050290611e2d565b6105b9338383611314565b610c2f8484846105bd565b61064733858585856113ab565b6060610c478261100b565b506000610c5f60408051602081019091526000815290565b90506000815111610c7f5760405180602001604052806000815250610caa565b80610c89846114d6565b604051602001610c9a929190611ec0565b6040516020818303038152906040525b9392505050565b6001600160a01b03918216600090815260056020908152604080832093909416825291909152205460ff1690565b610ce7611295565b6001600160a01b038116610d1157604051631e4fbdf760e01b8152600060048201526024016105e3565b610d1a816112c2565b50565b6007805460009182610d2e83611ea7565b9091555050600754610d403382611569565b604051806101200160405280828152602001898152602001888152602001876008811115610d7057610d70611aaa565b81526020808201889052604080830188905233606084015260006080840181905287151560a0909401939093528483526008825290912082518155908201516001820190610dbe9082611f35565b5060408201516002820190610dd39082611f35565b50606082015160038201805460ff19166001836008811115610df757610df7611aaa565b02179055506080820151600482015560a0820151600582015560c08201516006820180546001600160a01b0319166001600160a01b0390921691909117905560e08201516007820155610100909101516008909101805460ff1916911515919091179055604051339082907f9f6fb0a2ccba8e8218645bbe7b244293718b14a071ba8110d4b539c0db87866090610e8f908c90611993565b60405180910390a3979650505050505050565b60086020526000908152604090208054600182018054919291610ec490611e2d565b80601f0160208091040260200160405190810160405280929190818152602001828054610ef090611e2d565b8015610f3d5780601f10610f1257610100808354040283529160200191610f3d565b820191906000526020600020905b815481529060010190602001808311610f2057829003601f168201915b505050505090806002018054610f5290611e2d565b80601f0160208091040260200160405190810160405280929190818152602001828054610f7e90611e2d565b8015610fcb5780601f10610fa057610100808354040283529160200191610fcb565b820191906000526020600020905b815481529060010190602001808311610fae57829003601f168201915b50505060038401546004850154600586015460068701546007880154600890980154969760ff948516979396509194506001600160a01b03169290911689565b6000818152600260205260408120546001600160a01b0316806104ed57604051637e27328960e01b8152600481018490526024016105e3565b61074c8383836001611583565b6000828152600260205260408120546001600160a01b039081169083161561107e5761107e818486611689565b6001600160a01b038116156110bc5761109b600085600080611583565b6001600160a01b038116600090815260036020526040902080546000190190555b6001600160a01b038516156110eb576001600160a01b0385166000908152600360205260409020805460010190555b60008481526002602052604080822080546001600160a01b0319166001600160a01b0389811691821790925591518793918516917fddf252ad1be2c89b69c2b068fc378daa952ba7f163c4a11628f55a4df523b3ef91a4949350505050565b6001600160a01b03821661117457604051633250574960e11b8152600060048201526024016105e3565b600061118283836000611051565b90506001600160a01b0381166111ae57604051637e27328960e01b8152600481018390526024016105e3565b836001600160a01b0316816001600160a01b031614610647576040516364283d7b60e01b81526001600160a01b03808616600483015260248201849052821660448201526064016105e3565b6000818152600960205260408120815b815481101561128b5781818154811061122557611225611ff5565b600091825260209091206004600590920201015460ff16801561126a575081818154811061125557611255611ff5565b90600052602060002090600502016003015442105b15611279575060019392505050565b8061128381611ea7565b91505061120a565b5060009392505050565b6006546001600160a01b031633146109df5760405163118cdaa760e01b81523360048201526024016105e3565b600680546001600160a01b038381166001600160a01b0319831681179093556040519116919082907f8be0079c531659141344cd1fd0a4f28419497f9722a3daafe3b4186f6b6457e090600090a35050565b6001600160a01b03821661134657604051630b61174360e31b81526001600160a01b03831660048201526024016105e3565b6001600160a01b03838116600081815260056020908152604080832094871680845294825291829020805460ff191686151590811790915591519182527f17307eab39ab6107e8899845ad3d59bd9653f200f220920489ca2b5937696c319101610724565b6001600160a01b0383163b156114cf57604051630a85bd0160e11b81526001600160a01b0384169063150b7a02906113ed90889088908790879060040161200b565b6020604051808303816000875af1925050508015611428575060408051601f3d908101601f1916820190925261142591810190612048565b60015b611491573d808015611456576040519150601f19603f3d011682016040523d82523d6000602084013e61145b565b606091505b50805160000361148957604051633250574960e11b81526001600160a01b03851660048201526024016105e3565b805160208201fd5b6001600160e01b03198116630a85bd0160e11b146114cd57604051633250574960e11b81526001600160a01b03851660048201526024016105e3565b505b5050505050565b606060006114e3836116ed565b600101905060008167ffffffffffffffff81111561150357611503611bc9565b6040519080825280601f01601f19166020018201604052801561152d576020820181803683370190505b5090508181016020015b600019016f181899199a1a9b1b9c1cb0b131b232b360811b600a86061a8153600a850494508461153757509392505050565b6105b98282604051806020016040528060008152506117c5565b808061159757506001600160a01b03821615155b156116595760006115a78461100b565b90506001600160a01b038316158015906115d35750826001600160a01b0316816001600160a01b031614155b80156115e657506115e48184610cb1565b155b1561160f5760405163a9fbf51f60e01b81526001600160a01b03841660048201526024016105e3565b81156116575783856001600160a01b0316826001600160a01b03167f8c5be1e5ebec7d5bd14f71427d1e84f3dd0314c0f7b2291e5b200ac8c7c3b92560405160405180910390a45b505b5050600090815260046020526040902080546001600160a01b0319166001600160a01b0392909216919091179055565b6116948383836117dd565b61074c576001600160a01b0383166116c257604051637e27328960e01b8152600481018290526024016105e3565b60405163177e802f60e01b81526001600160a01b0383166004820152602481018290526044016105e3565b60008072184f03e93ff9f4daa797ed6e38ed64bf6a1f0160401b831061172c5772184f03e93ff9f4daa797ed6e38ed64bf6a1f0160401b830492506040015b6d04ee2d6d415b85acef81000000008310611758576d04ee2d6d415b85acef8100000000830492506020015b662386f26fc10000831061177657662386f26fc10000830492506010015b6305f5e100831061178e576305f5e100830492506008015b61271083106117a257612710830492506004015b606483106117b4576064830492506002015b600a83106104ed5760010192915050565b6117cf8383611843565b61074c3360008585856113ab565b60006001600160a01b0383161580159061183b5750826001600160a01b0316846001600160a01b0316148061181757506118178484610cb1565b8061183b57506000828152600460205260409020546001600160a01b038481169116145b949350505050565b6001600160a01b03821661186d57604051633250574960e11b8152600060048201526024016105e3565b600061187b83836000611051565b90506001600160a01b0381161561074c576040516339e3563760e11b8152600060048201526024016105e3565b604051806101200160405280600081526020016060815260200160608152602001600060088111156118dc576118dc611aaa565b8152602001600081526020016000815260200160006001600160a01b03168152602001600081526020016000151581525090565b6001600160e01b031981168114610d1a57600080fd5b60006020828403121561193857600080fd5b8135610caa81611910565b60005b8381101561195e578181015183820152602001611946565b50506000910152565b6000815180845261197f816020860160208601611943565b601f01601f19169290920160200192915050565b602081526000610caa6020830184611967565b6000602082840312156119b857600080fd5b5035919050565b80356001600160a01b03811681146119d657600080fd5b919050565b600080604083850312156119ee57600080fd5b6119f7836119bf565b946020939093013593505050565b600080600060608486031215611a1a57600080fd5b611a23846119bf565b9250611a31602085016119bf565b9150604084013590509250925092565b60008060408385031215611a5457600080fd5b82359150611a64602084016119bf565b90509250929050565b60008060408385031215611a8057600080fd5b50508035926020909101359150565b600060208284031215611aa157600080fd5b610caa826119bf565b634e487b7160e01b600052602160045260246000fd5b60098110611ade57634e487b7160e01b600052602160045260246000fd5b9052565b602081528151602082015260006020830151610120806040850152611b0b610140850183611967565b91506040850151601f19858403016060860152611b288382611967565b9250506060850151611b3d6080860182611ac0565b50608085015160a085015260a085015160c085015260c0850151611b6c60e08601826001600160a01b03169052565b5060e0850151610100858101919091529094015115159390920192909252919050565b803580151581146119d657600080fd5b60008060408385031215611bb257600080fd5b611bbb836119bf565b9150611a6460208401611b8f565b634e487b7160e01b600052604160045260246000fd5b600067ffffffffffffffff80841115611bfa57611bfa611bc9565b604051601f8501601f19908116603f01168101908282118183101715611c2257611c22611bc9565b81604052809350858152868686011115611c3b57600080fd5b858560208301376000602087830101525050509392505050565b60008060008060808587031215611c6b57600080fd5b611c74856119bf565b9350611c82602086016119bf565b925060408501359150606085013567ffffffffffffffff811115611ca557600080fd5b8501601f81018713611cb657600080fd5b611cc587823560208401611bdf565b91505092959194509250565b60008060408385031215611ce457600080fd5b611ced836119bf565b9150611a64602084016119bf565b600082601f830112611d0c57600080fd5b610caa83833560208501611bdf565b60008060008060008060c08789031215611d3457600080fd5b863567ffffffffffffffff80821115611d4c57600080fd5b611d588a838b01611cfb565b97506020890135915080821115611d6e57600080fd5b50611d7b89828a01611cfb565b955050604087013560098110611d9057600080fd5b93506060870135925060808701359150611dac60a08801611b8f565b90509295509295509295565b60006101208b8352806020840152611dd28184018c611967565b90508281036040840152611de6818b611967565b915050611df66060830189611ac0565b608082019690965260a08101949094526001600160a01b039290921660c084015260e0830152151561010090910152949350505050565b600181811c90821680611e4157607f821691505b602082108103611e6157634e487b7160e01b600052602260045260246000fd5b50919050565b634e487b7160e01b600052601160045260246000fd5b80820281158282048414176104ed576104ed611e67565b808201808211156104ed576104ed611e67565b600060018201611eb957611eb9611e67565b5060010190565b60008351611ed2818460208801611943565b835190830190611ee6818360208801611943565b01949350505050565b601f82111561074c57600081815260208120601f850160051c81016020861015611f165750805b601f850160051c820191505b818110156114cd57828155600101611f22565b815167ffffffffffffffff811115611f4f57611f4f611bc9565b611f6381611f5d8454611e2d565b84611eef565b602080601f831160018114611f985760008415611f805750858301515b600019600386901b1c1916600185901b1785556114cd565b600085815260208120601f198616915b82811015611fc757888601518255948401946001909101908401611fa8565b5085821015611fe55787850151600019600388901b60f8161c191681555b5050505050600190811b01905550565b634e487b7160e01b600052603260045260246000fd5b6001600160a01b038581168252841660208201526040810183905260806060820181905260009061203e90830184611967565b9695505050505050565b60006020828403121561205a57600080fd5b8151610caa8161191056fea2646970667358221220055333ecfaecd73c78de7522c73ac7b7537eb01826f465d945c08e3df218544d64736f6c63430008140033",
  "linkReferences": {},
  "deployedLinkReferences": {}
}