{
  "_format": "hh-sol-artifact-1",
  "contractName": "MovieNFT",
  "sourceName": "contracts/layer4/media/MovieNFT.sol",
  "abi": [
    {
      "inputs": [],
      "stateMutability": "nonpayable",
      "type": "constructor"
    },
    {
      "inputs": [
        {
          "internalType": "address",
          "name": "sender",
          "type": "address"
        },
        {
          "internalType": "uint256",
          "name": "tokenId",
          "type": "uint256"
        },
        {
          "internalType": "address",
          "name": "owner",
          "type": "address"
        }
      ],
      "name": "ERC721IncorrectOwner",
      "type": "error"
    },
    {
      "inputs": [
        {
          "internalType": "address",
          "name": "operator",
          "type": "address"
        },
        {
          "internalType": "uint256",
          "name": "tokenId",
          "type": "uint256"
        }
      ],
      "name": "ERC721InsufficientApproval",
      "type": "error"
    },
    {
      "inputs": [
        {
          "internalType": "address",
          "name": "approver",
          "type": "address"
        }
      ],
      "name": "ERC721InvalidApprover",
      "type": "error"
    },
    {
      "inputs": [
        {
          "internalType": "address",
          "name": "operator",
          "type": "address"
        }
      ],
      "name": "ERC721InvalidOperator",
      "type": "error"
    },
    {
      "inputs": [
        {
          "internalType": "address",
          "name": "owner",
          "type": "address"
        }
      ],
      "name": "ERC721InvalidOwner",
      "type": "error"
    },
    {
      "inputs": [
        {
          "internalType": "address",
          "name": "receiver",
          "type": "address"
        }
      ],
      "name": "ERC721InvalidReceiver",
      "type": "error"
    },
    {
      "inputs": [
        {
          "internalType": "address",
          "name": "sender",
          "type": "address"
        }
      ],
      "name": "ERC721InvalidSender",
      "type": "error"
    },
    {
      "inputs": [
        {
          "internalType": "uint256",
          "name": "tokenId",
          "type": "uint256"
        }
      ],
      "name": "ERC721NonexistentToken",
      "type": "error"
    },
    {
      "inputs": [
        {
          "internalType": "address",
          "name": "owner",
          "type": "address"
        }
      ],
      "name": "OwnableInvalidOwner",
      "type": "error"
    },
    {
      "inputs": [
        {
          "internalType": "address",
          "name": "account",
          "type": "address"
        }
      ],
      "name": "OwnableUnauthorizedAccount",
      "type": "error"
    },
    {
      "anonymous": false,
      "inputs": [
        {
          "indexed": true,
          "internalType": "address",
          "name": "owner",
          "type": "address"
        },
        {
          "indexed": true,
          "internalType": "address",
          "name": "approved",
          "type": "address"
        },
        {
          "indexed": true,
          "internalType": "uint256",
          "name": "tokenId",
          "type": "uint256"
        }
      ],
      "name": "Approval",
      "type": "event"
    },
    {
      "anonymous": false,
      "inputs": [
        {
          "indexed": true,
          "internalType": "address",
          "name": "owner",
          "type": "address"
        },
        {
          "indexed": true,
          "internalType": "address",
          "name": "operator",
          "type": "address"
        },
        {
          "indexed": false,
          "internalType": "bool",
          "name": "approved",
          "type": "bool"
        }
      ],
      "name": "ApprovalForAll",
      "type": "event"
    },
    {
      "anonymous": false,
      "inputs": [
        {
          "indexed": true,
          "internalType": "uint256",
          "name": "movieId",
          "type": "uint256"
        },
        {
          "indexed": false,
          "internalType": "string",
          "name": "title",
          "type": "string"
        },
        {
          "indexed": true,
          "internalType": "address",
          "name": "director",
          "type": "address"
        }
      ],
      "name": "MovieMinted",
      "type": "event"
    },
    {
      "anonymous": false,
      "inputs": [
        {
          "indexed": true,
          "internalType": "uint256",
          "name": "movieId",
          "type": "uint256"
        },
        {
          "indexed": false,
          "internalType": "uint256",
          "name": "releaseDate",
          "type": "uint256"
        }
      ],
      "name": "MoviePublished",
      "type": "event"
    },
    {
      "anonymous": false,
      "inputs": [
        {
          "indexed": true,
          "internalType": "address",
          "name": "previousOwner",
          "type": "address"
        },
        {
          "indexed": true,
          "internalType": "address",
          "name": "newOwner",
          "type": "address"
        }
      ],
      "name": "OwnershipTransferred",
      "type": "event"
    },
    {
      "anonymous": false,
      "inputs": [
        {
          "indexed": true,
          "internalType": "uint256",
          "name": "movieId",
          "type": "uint256"
        },
        {
          "indexed": false,
          "internalType": "uint256",
          "name": "amount",
          "type": "uint256"
        }
      ],
      "name": "RevenueDistributed",
      "type": "event"
    },
    {
      "anonymous": false,
      "inputs": [
        {
          "indexed": true,
          "internalType": "uint256",
          "name": "movieId",
          "type": "uint256"
        },
        {
          "indexed": false,
          "internalType": "uint256",
          "name": "sceneId",
          "type": "uint256"
        }
      ],
      "name": "SceneAdded",
      "type": "event"
    },
    {
      "anonymous": false,
      "inputs": [
        {
          "indexed": true,
          "internalType": "address",
          "name": "from",
          "type": "address"
        },
        {
          "indexed": true,
          "internalType": "address",
          "name": "to",
          "type": "address"
        },
        {
          "indexed": true,
          "internalType": "uint256",
          "name": "tokenId",
          "type": "uint256"
        }
      ],
      "name": "Transfer",
      "type": "event"
    },
    {
      "inputs": [
        {
          "internalType": "uint256",
          "name": "movieId",
          "type": "uint256"
        },
        {
          "internalType": "uint256",
          "name": "sceneId",
          "type": "uint256"
        }
      ],
      "name": "addScene",
      "outputs": [],
      "stateMutability": "nonpayable",
      "type": "function"
    },
    {
      "inputs": [
        {
          "internalType": "address",
          "name": "to",
          "type": "address"
        },
        {
          "internalType": "uint256",
          "name": "tokenId",
          "type": "uint256"
        }
      ],
      "name": "approve",
      "outputs": [],
      "stateMutability": "nonpayable",
      "type": "function"
    },
    {
      "inputs": [
        {
          "internalType": "address",
          "name": "owner",
          "type": "address"
        }
      ],
      "name": "balanceOf",
      "outputs": [
        {
          "internalType": "uint256",
          "name": "",
          "type": "uint256"
        }
      ],
      "stateMutability": "view",
      "type": "function"
    },
    {
      "inputs": [
        {
          "internalType": "uint256",
          "name": "movieId",
          "type": "uint256"
        }
      ],
      "name": "distributeRevenue",
      "outputs": [],
      "stateMutability": "payable",
      "type": "function"
    },
    {
      "inputs": [
        {
          "internalType": "uint256",
          "name": "tokenId",
          "type": "uint256"
        }
      ],
      "name": "getApproved",
      "outputs": [
        {
          "internalType": "address",
          "name": "",
          "type": "address"
        }
      ],
      "stateMutability": "view",
      "type": "function"
    },
    {
      "inputs": [
        {
          "internalType": "uint256",
          "name": "movieId",
          "type": "uint256"
        }
      ],
      "name": "getMovie",
      "outputs": [
        {
          "components": [
            {
              "internalType": "uint256",
              "name": "movieId",
              "type": "uint256"
            },
            {
              "internalType": "string",
              "name": "title",
              "type": "string"
            },
            {
              "internalType": "string",
              "name": "ipfsHash",
              "type": "string"
            },
            {
              "internalType": "address",
              "name": "director",
              "type": "address"
            },
            {
              "internalType": "uint256[]",
              "name": "sceneIds",
              "type": "uint256[]"
            },
            {
              "internalType": "uint256[]",
              "name": "actorIds",
              "type": "uint256[]"
            },
            {
              "internalType": "uint256",
              "name": "productionCost",
              "type": "uint256"
            },
            {
              "internalType": "uint256",
              "name": "totalRevenue",
              "type": "uint256"
            },
            {
              "internalType": "uint256",
              "name": "releaseDate",
              "type": "uint256"
            },
            {
              "internalType": "enum MovieNFT.Genre",
              "name": "genre",
              "type": "uint8"
            },
            {
              "internalType": "enum MovieNFT.Rating",
              "name": "rating",
              "type": "uint8"
            },
            {
              "internalType": "bool",
              "name": "isPublished",
              "type": "bool"
            }
          ],
          "internalType": "struct MovieNFT.Movie",
          "name": "",
          "type": "tuple"
        }
      ],
      "stateMutability": "view",
      "type": "function"
    },
    {
      "inputs": [
        {
          "internalType": "uint256",
          "name": "movieId",
          "type": "uint256"
        }
      ],
      "name": "getRevenueShares",
      "outputs": [
        {
          "internalType": "address[]",
          "name": "",
          "type": "address[]"
        },
        {
          "internalType": "uint256[]",
          "name": "",
          "type": "uint256[]"
        }
      ],
      "stateMutability": "view",
      "type": "function"
    },
    {
      "inputs": [
        {
          "internalType": "address",
          "name": "owner",
          "type": "address"
        },
        {
          "internalType": "address",
          "name": "operator",
          "type": "address"
        }
      ],
      "name": "isApprovedForAll",
      "outputs": [
        {
          "internalType": "bool",
          "name": "",
          "type": "bool"
        }
      ],
      "stateMutability": "view",
      "type": "function"
    },
    {
      "inputs": [
        {
          "internalType": "string",
          "name": "title",
          "type": "string"
        },
        {
          "internalType": "string",
          "name": "ipfsHash",
          "type": "string"
        },
        {
          "internalType": "address",
          "name": "director",
          "type": "address"
        },
        {
          "internalType": "enum MovieNFT.Genre",
          "name": "genre",
          "type": "uint8"
        }
      ],
      "name": "mintMovie",
      "outputs": [
        {
          "internalType": "uint256",
          "name": "",
          "type": "uint256"
        }
      ],
      "stateMutability": "nonpayable",
      "type": "function"
    },
    {
      "inputs": [
        {
          "internalType": "uint256",
          "name": "",
          "type": "uint256"
        }
      ],
      "name": "movies",
      "outputs": [
        {
          "internalType": "uint256",
          "name": "movieId",
          "type": "uint256"
        },
        {
          "internalType": "string",
          "name": "title",
          "type": "string"
        },
        {
          "internalType": "string",
          "name": "ipfsHash",
          "type": "string"
        },
        {
          "internalType": "address",
          "name": "director",
          "type": "address"
        },
        {
          "internalType": "uint256",
          "name": "productionCost",
          "type": "uint256"
        },
        {
          "internalType": "uint256",
          "name": "totalRevenue",
          "type": "uint256"
        },
        {
          "internalType": "uint256",
          "name": "releaseDate",
          "type": "uint256"
        },
        {
          "internalType": "enum MovieNFT.Genre",
          "name": "genre",
          "type": "uint8"
        },
        {
          "internalType": "enum MovieNFT.Rating",
          "name": "rating",
          "type": "uint8"
        },
        {
          "internalType": "bool",
          "name": "isPublished",
          "type": "bool"
        }
      ],
      "stateMutability": "view",
      "type": "function"
    },
    {
      "inputs": [],
      "name": "name",
      "outputs": [
        {
          "internalType": "string",
          "name": "",
          "type": "string"
        }
      ],
      "stateMutability": "view",
      "type": "function"
    },
    {
      "inputs": [],
      "name": "owner",
      "outputs": [
        {
          "internalType": "address",
          "name": "",
          "type": "address"
        }
      ],
      "stateMutability": "view",
      "type": "function"
    },
    {
      "inputs": [
        {
          "internalType": "uint256",
          "name": "tokenId",
          "type": "uint256"
        }
      ],
      "name": "ownerOf",
      "outputs": [
        {
          "internalType": "address",
          "name": "",
          "type": "address"
        }
      ],
      "stateMutability": "view",
      "type": "function"
    },
    {
      "inputs": [
        {
          "internalType": "uint256",
          "name": "movieId",
          "type": "uint256"
        }
      ],
      "name": "publishMovie",
      "outputs": [],
      "stateMutability": "nonpayable",
      "type": "function"
    },
    {
      "inputs": [],
      "name": "renounceOwnership",
      "outputs": [],
      "stateMutability": "nonpayable",
      "type": "function"
    },
    {
      "inputs": [
        {
          "internalType": "address",
          "name": "from",
          "type": "address"
        },
        {
          "internalType": "address",
          "name": "to",
          "type": "address"
        },
        {
          "internalType": "uint256",
          "name": "tokenId",
          "type": "uint256"
        }
      ],
      "name": "safeTransferFrom",
      "outputs": [],
      "stateMutability": "nonpayable",
      "type": "function"
    },
    {
      "inputs": [
        {
          "internalType": "address",
          "name": "from",
          "type": "address"
        },
        {
          "internalType": "address",
          "name": "to",
          "type": "address"
        },
        {
          "internalType": "uint256",
          "name": "tokenId",
          "type": "uint256"
        },
        {
          "internalType": "bytes",
          "name": "data",
          "type": "bytes"
        }
      ],
      "name": "safeTransferFrom",
      "outputs": [],
      "stateMutability": "nonpayable",
      "type": "function"
    },
    {
      "inputs": [
        {
          "internalType": "address",
          "name": "operator",
          "type": "address"
        },
        {
          "internalType": "bool",
          "name": "approved",
          "type": "bool"
        }
      ],
      "name": "setApprovalForAll",
      "outputs": [],
      "stateMutability": "nonpayable",
      "type": "function"
    },
    {
      "inputs": [
        {
          "internalType": "uint256",
          "name": "movieId",
          "type": "uint256"
        },
        {
          "internalType": "address[]",
          "name": "recipients",
          "type": "address[]"
        },
        {
          "internalType": "uint256[]",
          "name": "shares",
          "type": "uint256[]"
        }
      ],
      "name": "setRevenueShares",
      "outputs": [],
      "stateMutability": "nonpayable",
      "type": "function"
    },
    {
      "inputs": [
        {
          "internalType": "bytes4",
          "name": "interfaceId",
          "type": "bytes4"
        }
      ],
      "name": "supportsInterface",
      "outputs": [
        {
          "internalType": "bool",
          "name": "",
          "type": "bool"
        }
      ],
      "stateMutability": "view",
      "type": "function"
    },
    {
      "inputs": [],
      "name": "symbol",
      "outputs": [
        {
          "internalType": "string",
          "name": "",
          "type": "string"
        }
      ],
      "stateMutability": "view",
      "type": "function"
    },
    {
      "inputs": [
        {
          "internalType": "uint256",
          "name": "tokenId",
          "type": "uint256"
        }
      ],
      "name": "tokenURI",
      "outputs": [
        {
          "internalType": "string",
          "name": "",
          "type": "string"
        }
      ],
      "stateMutability": "view",
      "type": "function"
    },
    {
      "inputs": [
        {
          "internalType": "address",
          "name": "from",
          "type": "address"
        },
        {
          "internalType": "address",
          "name": "to",
          "type": "address"
        },
        {
          "internalType": "uint256",
          "name": "tokenId",
          "type": "uint256"
        }
      ],
      "name": "transferFrom",
      "outputs": [],
      "stateMutability": "nonpayable",
      "type": "function"
    },
    {
      "inputs": [
        {
          "internalType": "address",
          "name": "newOwner",
          "type": "address"
        }
      ],
      "name": "transferOwnership",
      "outputs": [],
      "stateMutability": "nonpayable",
      "type": "function"
    }
  ],
  "bytecode": "0x60806040523480156200001157600080fd5b5033604051806040016040528060098152602001684f414e204d6f76696560b81b815250604051806040016040528060058152602001644d4f56494560d81b8152508160009081620000649190620001ae565b506001620000738282620001ae565b5050506001600160a01b038116620000a557604051631e4fbdf760e01b81526000600482015260240160405180910390fd5b620000b081620000b7565b506200027a565b600680546001600160a01b038381166001600160a01b0319831681179093556040519116919082907f8be0079c531659141344cd1fd0a4f28419497f9722a3daafe3b4186f6b6457e090600090a35050565b634e487b7160e01b600052604160045260246000fd5b600181811c908216806200013457607f821691505b6020821081036200015557634e487b7160e01b600052602260045260246000fd5b50919050565b601f821115620001a957600081815260208120601f850160051c81016020861015620001845750805b601f850160051c820191505b81811015620001a55782815560010162000190565b5050505b505050565b81516001600160401b03811115620001ca57620001ca62000109565b620001e281620001db84546200011f565b846200015b565b602080601f8311600181146200021a5760008415620002015750858301515b600019600386901b1c1916600185901b178555620001a5565b600085815260208120601f198616915b828110156200024b578886015182559484019460019091019084016200022a565b50858210156200026a5787850151600019600388901b60f8161c191681555b5050505050600190811b01905550565b612698806200028a6000396000f3fe60806040526004361061014b5760003560e01c80636352211e116100b6578063adb968411161006f578063adb96841146103db578063b88d4fde146103fb578063c5319fa61461041b578063c87b56dd1461043b578063e985e9c51461045b578063f2fde38b1461047b57600080fd5b80636352211e1461033357806370a0823114610353578063715018a6146103735780638da5cb5b1461038857806395d89b41146103a6578063a22cb465146103bb57600080fd5b806323b872dd1161010857806323b872dd1461025c5780632ebda8531461027c57806336d6ddde146102aa578063404ebf6c146102ca57806342842e0e1461030057806359fde1e01461032057600080fd5b806301ffc9a71461015057806306fdde0314610185578063081812fc146101a7578063095ea7b3146101df57806315d590a614610201578063179ffe761461022f575b600080fd5b34801561015c57600080fd5b5061017061016b366004611c7e565b61049b565b60405190151581526020015b60405180910390f35b34801561019157600080fd5b5061019a6104ed565b60405161017c9190611ceb565b3480156101b357600080fd5b506101c76101c2366004611cfe565b61057f565b6040516001600160a01b03909116815260200161017c565b3480156101eb57600080fd5b506101ff6101fa366004611d33565b6105a8565b005b34801561020d57600080fd5b5061022161021c366004611cfe565b6105b7565b60405161017c929190611d5d565b34801561023b57600080fd5b5061024f61024a366004611cfe565b610686565b60405161017c9190611e56565b34801561026857600080fd5b506101ff610277366004611f59565b610941565b34801561028857600080fd5b5061029c610297366004612054565b6109d1565b60405190815260200161017c565b3480156102b657600080fd5b506101ff6102c536600461216e565b610c03565b3480156102d657600080fd5b506102ea6102e5366004611cfe565b610d66565b60405161017c9a99989796959493929190612239565b34801561030c57600080fd5b506101ff61031b366004611f59565b610ed8565b6101ff61032e366004611cfe565b610ef8565b34801561033f57600080fd5b506101c761034e366004611cfe565b611068565b34801561035f57600080fd5b5061029c61036e3660046122bd565b611073565b34801561037f57600080fd5b506101ff6110bb565b34801561039457600080fd5b506006546001600160a01b03166101c7565b3480156103b257600080fd5b5061019a6110cf565b3480156103c757600080fd5b506101ff6103d63660046122d8565b6110de565b3480156103e757600080fd5b506101ff6103f6366004612314565b6110e9565b34801561040757600080fd5b506101ff610416366004612336565b6111c1565b34801561042757600080fd5b506101ff610436366004611cfe565b6111d9565b34801561044757600080fd5b5061019a610456366004611cfe565b6112fd565b34801561046757600080fd5b506101706104763660046123b2565b611372565b34801561048757600080fd5b506101ff6104963660046122bd565b6113a0565b60006001600160e01b031982166380ac58cd60e01b14806104cc57506001600160e01b03198216635b5e139f60e01b145b806104e757506301ffc9a760e01b6001600160e01b03198316145b92915050565b6060600080546104fc906123e5565b80601f0160208091040260200160405190810160405280929190818152602001828054610528906123e5565b80156105755780601f1061054a57610100808354040283529160200191610575565b820191906000526020600020905b81548152906001019060200180831161055857829003601f168201915b5050505050905090565b600061058a826113de565b506000828152600460205260409020546001600160a01b03166104e7565b6105b3828233611417565b5050565b60008181526009602090815260409182902080548351818402810184019094528084526060938493839260018401929184919083018282801561062357602002820191906000526020600020905b81546001600160a01b03168152600190910190602001808311610605575b505050505091508080548060200260200160405190810160405280929190818152602001828054801561067557602002820191906000526020600020905b815481526020019060010190808311610661575b505050505090509250925050915091565b61068e611b38565b6008600083815260200190815260200160002060405180610180016040529081600082015481526020016001820180546106c7906123e5565b80601f01602080910402602001604051908101604052809291908181526020018280546106f3906123e5565b80156107405780601f1061071557610100808354040283529160200191610740565b820191906000526020600020905b81548152906001019060200180831161072357829003601f168201915b50505050508152602001600282018054610759906123e5565b80601f0160208091040260200160405190810160405280929190818152602001828054610785906123e5565b80156107d25780601f106107a7576101008083540402835291602001916107d2565b820191906000526020600020905b8154815290600101906020018083116107b557829003601f168201915b505050918352505060038201546001600160a01b0316602080830191909152600483018054604080518285028101850182528281529401939283018282801561083a57602002820191906000526020600020905b815481526020019060010190808311610826575b505050505081526020016005820180548060200260200160405190810160405280929190818152602001828054801561089257602002820191906000526020600020905b81548152602001906001019080831161087e575b505050918352505060068201546020820152600780830154604083015260088301546060830152600983015460809092019160ff16908111156108d7576108d7611e1c565b60078111156108e8576108e8611e1c565b81526020016009820160019054906101000a900460ff16600481111561091057610910611e1c565b600481111561092157610921611e1c565b81526009919091015462010000900460ff16151560209091015292915050565b6001600160a01b03821661097057604051633250574960e11b8152600060048201526024015b60405180910390fd5b600061097d838333611424565b9050836001600160a01b0316816001600160a01b0316146109cb576040516364283d7b60e01b81526001600160a01b0380861660048301526024820184905282166044820152606401610967565b50505050565b60078054600091826109e283612435565b90915550506007546109f4338261151d565b604080516101808101825282815260208082018990528183018890526001600160a01b03871660608301528251600080825281830185526080840191909152835181815291820190935260a082015260c0810182905260e081018290526101008101919091526101208101846007811115610a7157610a71611e1c565b81526020016002815260006020918201819052838152600882526040902082518155908201516001820190610aa69082612494565b5060408201516002820190610abb9082612494565b5060608201516003820180546001600160a01b0319166001600160a01b0390921691909117905560808201518051610afd916004840191602090910190611bb3565b5060a08201518051610b19916005840191602090910190611bb3565b5060c0820151816006015560e0820151816007015561010082015181600801556101208201518160090160006101000a81548160ff02191690836007811115610b6457610b64611e1c565b021790555061014082015160098201805461ff001916610100836004811115610b8f57610b8f611e1c565b02179055506101608201518160090160026101000a81548160ff021916908315150217905550905050836001600160a01b0316817fffa9bb327e74d6760a729ba4cbc34710eeeb80047949819ae9ce66dfcd2b68ab88604051610bf29190611ceb565b60405180910390a395945050505050565b33610c0d84611068565b6001600160a01b031614610c335760405162461bcd60e51b815260040161096790612554565b8051825114610c765760405162461bcd60e51b815260206004820152600f60248201526e098cadccee8d040dad2e6dac2e8c6d608b1b6044820152606401610967565b6000805b8251811015610cbc57828181518110610c9557610c95612577565b602002602001015182610ca8919061258d565b915080610cb481612435565b915050610c7a565b508061271014610d0e5760405162461bcd60e51b815260206004820152601760248201527f536861726573206d7573742073756d20746f20313030250000000000000000006044820152606401610967565b6040805180820182528481526020808201859052600087815260098252929092208151805192939192610d449284920190611bfe565b506020828101518051610d5d9260018501920190611bb3565b50505050505050565b60086020526000908152604090208054600182018054919291610d88906123e5565b80601f0160208091040260200160405190810160405280929190818152602001828054610db4906123e5565b8015610e015780601f10610dd657610100808354040283529160200191610e01565b820191906000526020600020905b815481529060010190602001808311610de457829003601f168201915b505050505090806002018054610e16906123e5565b80601f0160208091040260200160405190810160405280929190818152602001828054610e42906123e5565b8015610e8f5780601f10610e6457610100808354040283529160200191610e8f565b820191906000526020600020905b815481529060010190602001808311610e7257829003601f168201915b505050600384015460068501546007860154600887015460099097015495966001600160a01b0390931695919450925060ff80821691610100810482169162010000909104168a565b610ef3838383604051806020016040528060008152506111c1565b505050565b6000818152600860205260409020600981015462010000900460ff16610f505760405162461bcd60e51b815260206004820152600d60248201526c139bdd081c1d589b1a5cda1959609a1b6044820152606401610967565b34816007016000828254610f64919061258d565b90915550506000828152600960205260408120905b8154811015611028576000612710836001018381548110610f9c57610f9c612577565b906000526020600020015434610fb291906125a0565b610fbc91906125b7565b9050826000018281548110610fd357610fd3612577565b60009182526020822001546040516001600160a01b039091169183156108fc02918491818181858888f19350505050158015611013573d6000803e3d6000fd5b5050808061102090612435565b915050610f79565b50827ff2838e4b541f90d41a1076a560d75e948f7d1008e72118a655568626a30b451f3460405161105b91815260200190565b60405180910390a2505050565b60006104e7826113de565b60006001600160a01b03821661109f576040516322718ad960e21b815260006004820152602401610967565b506001600160a01b031660009081526003602052604090205490565b6110c3611537565b6110cd6000611564565b565b6060600180546104fc906123e5565b6105b33383836115b6565b336110f383611068565b6001600160a01b0316146111195760405162461bcd60e51b815260040161096790612554565b6000828152600860205260409020600981015462010000900460ff16156111765760405162461bcd60e51b8152602060048201526011602482015270105b1c9958591e481c1d589b1a5cda1959607a1b6044820152606401610967565b60048101805460018101825560009182526020918290200183905560405183815284917f06ce9f7a1cb6a656e2a708efc9dde46b7651e24e5ea48be21ce738a8d8fa09a3910161105b565b6111cc848484610941565b6109cb3385858585611655565b336111e382611068565b6001600160a01b0316146112095760405162461bcd60e51b815260040161096790612554565b6000818152600860205260409020600981015462010000900460ff16156112665760405162461bcd60e51b8152602060048201526011602482015270105b1c9958591e481c1d589b1a5cda1959607a1b6044820152606401610967565b60048101546112a35760405162461bcd60e51b81526020600482015260096024820152684e6f207363656e657360b81b6044820152606401610967565b60098101805462ff0000191662010000179055426008820181905560405183917f42b55d48958a203b1e9df229c321fe3db95f644ad80e12d83521e9d35e3fc231916112f191815260200190565b60405180910390a25050565b6060611308826113de565b50600061132060408051602081019091526000815290565b90506000815111611340576040518060200160405280600081525061136b565b8061134a84611780565b60405160200161135b9291906125d9565b6040516020818303038152906040525b9392505050565b6001600160a01b03918216600090815260056020908152604080832093909416825291909152205460ff1690565b6113a8611537565b6001600160a01b0381166113d257604051631e4fbdf760e01b815260006004820152602401610967565b6113db81611564565b50565b6000818152600260205260408120546001600160a01b0316806104e757604051637e27328960e01b815260048101849052602401610967565b610ef38383836001611813565b6000828152600260205260408120546001600160a01b039081169083161561145157611451818486611919565b6001600160a01b0381161561148f5761146e600085600080611813565b6001600160a01b038116600090815260036020526040902080546000190190555b6001600160a01b038516156114be576001600160a01b0385166000908152600360205260409020805460010190555b60008481526002602052604080822080546001600160a01b0319166001600160a01b0389811691821790925591518793918516917fddf252ad1be2c89b69c2b068fc378daa952ba7f163c4a11628f55a4df523b3ef91a4949350505050565b6105b382826040518060200160405280600081525061197d565b6006546001600160a01b031633146110cd5760405163118cdaa760e01b8152336004820152602401610967565b600680546001600160a01b038381166001600160a01b0319831681179093556040519116919082907f8be0079c531659141344cd1fd0a4f28419497f9722a3daafe3b4186f6b6457e090600090a35050565b6001600160a01b0382166115e857604051630b61174360e31b81526001600160a01b0383166004820152602401610967565b6001600160a01b03838116600081815260056020908152604080832094871680845294825291829020805460ff191686151590811790915591519182527f17307eab39ab6107e8899845ad3d59bd9653f200f220920489ca2b5937696c31910160405180910390a3505050565b6001600160a01b0383163b1561177957604051630a85bd0160e11b81526001600160a01b0384169063150b7a0290611697908890889087908790600401612608565b6020604051808303816000875af19250505080156116d2575060408051601f3d908101601f191682019092526116cf91810190612645565b60015b61173b573d808015611700576040519150601f19603f3d011682016040523d82523d6000602084013e611705565b606091505b50805160000361173357604051633250574960e11b81526001600160a01b0385166004820152602401610967565b805160208201fd5b6001600160e01b03198116630a85bd0160e11b1461177757604051633250574960e11b81526001600160a01b0385166004820152602401610967565b505b5050505050565b6060600061178d83611995565b600101905060008167ffffffffffffffff8111156117ad576117ad611f95565b6040519080825280601f01601f1916602001820160405280156117d7576020820181803683370190505b5090508181016020015b600019016f181899199a1a9b1b9c1cb0b131b232b360811b600a86061a8153600a85049450846117e157509392505050565b808061182757506001600160a01b03821615155b156118e9576000611837846113de565b90506001600160a01b038316158015906118635750826001600160a01b0316816001600160a01b031614155b801561187657506118748184611372565b155b1561189f5760405163a9fbf51f60e01b81526001600160a01b0384166004820152602401610967565b81156118e75783856001600160a01b0316826001600160a01b03167f8c5be1e5ebec7d5bd14f71427d1e84f3dd0314c0f7b2291e5b200ac8c7c3b92560405160405180910390a45b505b5050600090815260046020526040902080546001600160a01b0319166001600160a01b0392909216919091179055565b611924838383611a6d565b610ef3576001600160a01b03831661195257604051637e27328960e01b815260048101829052602401610967565b60405163177e802f60e01b81526001600160a01b038316600482015260248101829052604401610967565b6119878383611ad3565b610ef3336000858585611655565b60008072184f03e93ff9f4daa797ed6e38ed64bf6a1f0160401b83106119d45772184f03e93ff9f4daa797ed6e38ed64bf6a1f0160401b830492506040015b6d04ee2d6d415b85acef81000000008310611a00576d04ee2d6d415b85acef8100000000830492506020015b662386f26fc100008310611a1e57662386f26fc10000830492506010015b6305f5e1008310611a36576305f5e100830492506008015b6127108310611a4a57612710830492506004015b60648310611a5c576064830492506002015b600a83106104e75760010192915050565b60006001600160a01b03831615801590611acb5750826001600160a01b0316846001600160a01b03161480611aa75750611aa78484611372565b80611acb57506000828152600460205260409020546001600160a01b038481169116145b949350505050565b6001600160a01b038216611afd57604051633250574960e11b815260006004820152602401610967565b6000611b0b83836000611424565b90506001600160a01b03811615610ef3576040516339e3563760e11b815260006004820152602401610967565b60405180610180016040528060008152602001606081526020016060815260200160006001600160a01b03168152602001606081526020016060815260200160008152602001600081526020016000815260200160006007811115611b9f57611b9f611e1c565b815260200160008152600060209091015290565b828054828255906000526020600020908101928215611bee579160200282015b82811115611bee578251825591602001919060010190611bd3565b50611bfa929150611c53565b5090565b828054828255906000526020600020908101928215611bee579160200282015b82811115611bee57825182546001600160a01b0319166001600160a01b03909116178255602090920191600190910190611c1e565b5b80821115611bfa5760008155600101611c54565b6001600160e01b0319811681146113db57600080fd5b600060208284031215611c9057600080fd5b813561136b81611c68565b60005b83811015611cb6578181015183820152602001611c9e565b50506000910152565b60008151808452611cd7816020860160208601611c9b565b601f01601f19169290920160200192915050565b60208152600061136b6020830184611cbf565b600060208284031215611d1057600080fd5b5035919050565b80356001600160a01b0381168114611d2e57600080fd5b919050565b60008060408385031215611d4657600080fd5b611d4f83611d17565b946020939093013593505050565b604080825283519082018190526000906020906060840190828701845b82811015611d9f5781516001600160a01b031684529284019290840190600101611d7a565b5050508381038285015284518082528583019183019060005b81811015611dd457835183529284019291840191600101611db8565b5090979650505050505050565b600081518084526020808501945080840160005b83811015611e1157815187529582019590820190600101611df5565b509495945050505050565b634e487b7160e01b600052602160045260246000fd5b60088110611e4257611e42611e1c565b9052565b60058110611e4257611e42611e1c565b602081528151602082015260006020830151610180806040850152611e7f6101a0850183611cbf565b91506040850151601f1980868503016060870152611e9d8483611cbf565b935060608701519150611ebb60808701836001600160a01b03169052565b60808701519150808685030160a0870152611ed68483611de1565b935060a08701519150808685030160c087015250611ef48382611de1565b92505060c085015160e085015260e0850151610100818187015280870151915050610120818187015280870151915050610140611f3381870183611e32565b8601519050610160611f4786820183611e46565b90950151151593019290925250919050565b600080600060608486031215611f6e57600080fd5b611f7784611d17565b9250611f8560208501611d17565b9150604084013590509250925092565b634e487b7160e01b600052604160045260246000fd5b604051601f8201601f1916810167ffffffffffffffff81118282101715611fd457611fd4611f95565b604052919050565b600067ffffffffffffffff831115611ff657611ff6611f95565b612009601f8401601f1916602001611fab565b905082815283838301111561201d57600080fd5b828260208301376000602084830101529392505050565b600082601f83011261204557600080fd5b61136b83833560208501611fdc565b6000806000806080858703121561206a57600080fd5b843567ffffffffffffffff8082111561208257600080fd5b61208e88838901612034565b955060208701359150808211156120a457600080fd5b506120b187828801612034565b9350506120c060408601611d17565b91506060850135600881106120d457600080fd5b939692955090935050565b600067ffffffffffffffff8211156120f9576120f9611f95565b5060051b60200190565b600082601f83011261211457600080fd5b81356020612129612124836120df565b611fab565b82815260059290921b8401810191818101908684111561214857600080fd5b8286015b84811015612163578035835291830191830161214c565b509695505050505050565b60008060006060848603121561218357600080fd5b8335925060208085013567ffffffffffffffff808211156121a357600080fd5b818701915087601f8301126121b757600080fd5b81356121c5612124826120df565b81815260059190911b8301840190848101908a8311156121e457600080fd5b938501935b82851015612209576121fa85611d17565b825293850193908501906121e9565b96505050604087013592508083111561222157600080fd5b505061222f86828701612103565b9150509250925092565b60006101408c83528060208401526122538184018d611cbf565b90508281036040840152612267818c611cbf565b91505060018060a01b03891660608301528760808301528660a08301528560c083015261229760e0830186611e32565b6122a5610100830185611e46565b8215156101208301529b9a5050505050505050505050565b6000602082840312156122cf57600080fd5b61136b82611d17565b600080604083850312156122eb57600080fd5b6122f483611d17565b91506020830135801515811461230957600080fd5b809150509250929050565b6000806040838503121561232757600080fd5b50508035926020909101359150565b6000806000806080858703121561234c57600080fd5b61235585611d17565b935061236360208601611d17565b925060408501359150606085013567ffffffffffffffff81111561238657600080fd5b8501601f8101871361239757600080fd5b6123a687823560208401611fdc565b91505092959194509250565b600080604083850312156123c557600080fd5b6123ce83611d17565b91506123dc60208401611d17565b90509250929050565b600181811c908216806123f957607f821691505b60208210810361241957634e487b7160e01b600052602260045260246000fd5b50919050565b634e487b7160e01b600052601160045260246000fd5b6000600182016124475761244761241f565b5060010190565b601f821115610ef357600081815260208120601f850160051c810160208610156124755750805b601f850160051c820191505b8181101561177757828155600101612481565b815167ffffffffffffffff8111156124ae576124ae611f95565b6124c2816124bc84546123e5565b8461244e565b602080601f8311600181146124f757600084156124df5750858301515b600019600386901b1c1916600185901b178555611777565b600085815260208120601f198616915b8281101561252657888601518255948401946001909101908401612507565b50858210156125445787850151600019600388901b60f8161c191681555b5050505050600190811b01905550565b6020808252600990820152682737ba1037bbb732b960b91b604082015260600190565b634e487b7160e01b600052603260045260246000fd5b808201808211156104e7576104e761241f565b80820281158282048414176104e7576104e761241f565b6000826125d457634e487b7160e01b600052601260045260246000fd5b500490565b600083516125eb818460208801611c9b565b8351908301906125ff818360208801611c9b565b01949350505050565b6001600160a01b038581168252841660208201526040810183905260806060820181905260009061263b90830184611cbf565b9695505050505050565b60006020828403121561265757600080fd5b815161136b81611c6856fea264697066735822122088220359bc99298dbe5776eddeef6c5bf0c24d0a98f3d972b4a6eafbc0f91de664736f6c63430008140033",
  "linkReferences": {},
  "deployedLinkReferences": {}
}