{
  "_format": "hh-sol-artifact-1",
  "contractName": "MovieNFT",
  "sourceName": "contracts/layer4/media/MovieNFT.sol",
  "abi": [
    {
      "inputs": [],
      "stateMutability": "nonpayable",
      "type": "constructor"
    },
    {
      "inputs": [
        {
          "internalType": "address",
          "name": "sender",
          "type": "address"
        },
        {
          "internalType": "uint256",
          "name": "tokenId",
          "type": "uint256"
        },
        {
          "internalType": "address",
          "name": "owner",
          "type": "address"
        }
      ],
      "name": "ERC721IncorrectOwner",
      "type": "error"
    },
    {
      "inputs": [
        {
          "internalType": "address",
          "name": "operator",
          "type": "address"
        },
        {
          "internalType": "uint256",
          "name": "tokenId",
          "type": "uint256"
        }
      ],
      "name": "ERC721InsufficientApproval",
      "type": "error"
    },
    {
      "inputs": [
        {
          "internalType": "address",
          "name": "approver",
          "type": "address"
        }
      ],
      "name": "ERC721InvalidApprover",
      "type": "error"
    },
    {
      "inputs": [
        {
          "internalType": "address",
          "name": "operator",
          "type": "address"
        }
      ],
      "name": "ERC721InvalidOperator",
      "type": "error"
    },
    {
      "inputs": [
        {
          "internalType": "address",
          "name": "owner",
          "type": "address"
        }
      ],
      "name": "ERC721InvalidOwner",
      "type": "error"
    },
    {
      "inputs": [
        {
          "internalType": "address",
          "name": "receiver",
          "type": "address"
        }
      ],
      "name": "ERC721InvalidReceiver",
      "type": "error"
    },
    {
      "inputs": [
        {
          "internalType": "address",
          "name": "sender",
          "type": "address"
        }
      ],
      "name": "ERC721InvalidSender",
      "type": "error"
    },
    {
      "inputs": [
        {
          "internalType": "uint256",
          "name": "tokenId",
          "type": "uint256"
        }
      ],
      "name": "ERC721NonexistentToken",
      "type": "error"
    },
    {
      "inputs": [
        {
          "internalType": "address",
          "name": "owner",
          "type": "address"
        }
      ],
      "name": "OwnableInvalidOwner",
      "type": "error"
    },
    {
      "inputs": [
        {
          "internalType": "address",
          "name": "account",
          "type": "address"
        }
      ],
      "name": "OwnableUnauthorizedAccount",
      "type": "error"
    },
    {
      "anonymous": false,
      "inputs": [
        {
          "indexed": true,
          "internalType": "address",
          "name": "owner",
          "type": "address"
        },
        {
          "indexed": true,
          "internalType": "address",
          "name": "approved",
          "type": "address"
        },
        {
          "indexed": true,
          "internalType": "uint256",
          "name": "tokenId",
          "type": "uint256"
        }
      ],
      "name": "Approval",
      "type": "event"
    },
    {
      "anonymous": false,
      "inputs": [
        {
          "indexed": true,
          "internalType": "address",
          "name": "owner",
          "type": "address"
        },
        {
          "indexed": true,
          "internalType": "address",
          "name": "operator",
          "type": "address"
        },
        {
          "indexed": false,
          "internalType": "bool",
          "name": "approved",
          "type": "bool"
        }
      ],
      "name": "ApprovalForAll",
      "type": "event"
    },
    {
      "anonymous": false,
      "inputs": [
        {
          "indexed": true,
          "internalType": "uint256",
          "name": "movieId",
          "type": "uint256"
        },
        {
          "indexed": false,
          "internalType": "string",
          "name": "title",
          "type": "string"
        },
        {
          "indexed": true,
          "internalType": "address",
          "name": "director",
          "type": "address"
        }
      ],
      "name": "MovieMinted",
      "type": "event"
    },
    {
      "anonymous": false,
      "inputs": [
        {
          "indexed": true,
          "internalType": "uint256",
          "name": "movieId",
          "type": "uint256"
        },
        {
          "indexed": false,
          "internalType": "uint256",
          "name": "releaseDate",
          "type": "uint256"
        }
      ],
      "name": "MoviePublished",
      "type": "event"
    },
    {
      "anonymous": false,
      "inputs": [
        {
          "indexed": true,
          "internalType": "address",
          "name": "previousOwner",
          "type": "address"
        },
        {
          "indexed": true,
          "internalType": "address",
          "name": "newOwner",
          "type": "address"
        }
      ],
      "name": "OwnershipTransferred",
      "type": "event"
    },
    {
      "anonymous": false,
      "inputs": [
        {
          "indexed": true,
          "internalType": "uint256",
          "name": "movieId",
          "type": "uint256"
        },
        {
          "indexed": false,
          "internalType": "uint256",
          "name": "amount",
          "type": "uint256"
        }
      ],
      "name": "RevenueDistributed",
      "type": "event"
    },
    {
      "anonymous": false,
      "inputs": [
        {
          "indexed": true,
          "internalType": "uint256",
          "name": "movieId",
          "type": "uint256"
        },
        {
          "indexed": false,
          "internalType": "uint256",
          "name": "sceneId",
          "type": "uint256"
        }
      ],
      "name": "SceneAdded",
      "type": "event"
    },
    {
      "anonymous": false,
      "inputs": [
        {
          "indexed": true,
          "internalType": "address",
          "name": "from",
          "type": "address"
        },
        {
          "indexed": true,
          "internalType": "address",
          "name": "to",
          "type": "address"
        },
        {
          "indexed": true,
          "internalType": "uint256",
          "name": "tokenId",
          "type": "uint256"
        }
      ],
      "name": "Transfer",
      "type": "event"
    },
    {
      "inputs": [
        {
          "internalType": "uint256",
          "name": "movieId",
          "type": "uint256"
        },
        {
          "internalType": "uint256",
          "name": "sceneId",
          "type": "uint256"
        }
      ],
      "name": "addScene",
      "outputs": [],
      "stateMutability": "nonpayable",
      "type": "function"
    },
    {
      "inputs": [
        {
          "internalType": "address",
          "name": "to",
          "type": "address"
        },
        {
          "internalType": "uint256",
          "name": "tokenId",
          "type": "uint256"
        }
      ],
      "name": "approve",
      "outputs": [],
      "stateMutability": "nonpayable",
      "type": "function"
    },
    {
      "inputs": [
        {
          "internalType": "address",
          "name": "owner",
          "type": "address"
        }
      ],
      "name": "balanceOf",
      "outputs": [
        {
          "internalType": "uint256",
          "name": "",
          "type": "uint256"
        }
      ],
      "stateMutability": "view",
      "type": "function"
    },
    {
      "inputs": [
        {
          "internalType": "uint256",
          "name": "movieId",
          "type": "uint256"
        }
      ],
      "name": "distributeRevenue",
      "outputs": [],
      "stateMutability": "payable",
      "type": "function"
    },
    {
      "inputs": [
        {
          "internalType": "uint256",
          "name": "tokenId",
          "type": "uint256"
        }
      ],
      "name": "getApproved",
      "outputs": [
        {
          "internalType": "address",
          "name": "",
          "type": "address"
        }
      ],
      "stateMutability": "view",
      "type": "function"
    },
    {
      "inputs": [
        {
          "internalType": "uint256",
          "name": "movieId",
          "type": "uint256"
        }
      ],
      "name": "getMovie",
      "outputs": [
        {
          "components": [
            {
              "internalType": "uint256",
              "name": "movieId",
              "type": "uint256"
            },
            {
              "internalType": "string",
              "name": "title",
              "type": "string"
            },
            {
              "internalType": "string",
              "name": "ipfsHash",
              "type": "string"
            },
            {
              "internalType": "address",
              "name": "director",
              "type": "address"
            },
            {
              "internalType": "uint256[]",
              "name": "sceneIds",
              "type": "uint256[]"
            },
            {
              "internalType": "uint256[]",
              "name": "actorIds",
              "type": "uint256[]"
            },
            {
              "internalType": "uint256",
              "name": "productionCost",
              "type": "uint256"
            },
            {
              "internalType": "uint256",
              "name": "totalRevenue",
              "type": "uint256"
            },
            {
              "internalType": "uint256",
              "name": "releaseDate",
              "type": "uint256"
            },
            {
              "internalType": "enum MovieNFT.Genre",
              "name": "genre",
              "type": "uint8"
            },
            {
              "internalType": "enum MovieNFT.Rating",
              "name": "rating",
              "type": "uint8"
            },
            {
              "internalType": "bool",
              "name": "isPublished",
              "type": "bool"
            }
          ],
          "internalType": "struct MovieNFT.Movie",
          "name": "",
          "type": "tuple"
        }
      ],
      "stateMutability": "view",
      "type": "function"
    },
    {
      "inputs": [
        {
          "internalType": "uint256",
          "name": "movieId",
          "type": "uint256"
        }
      ],
      "name": "getRevenueShares",
      "outputs": [
        {
          "internalType": "address[]",
          "name": "",
          "type": "address[]"
        },
        {
          "internalType": "uint256[]",
          "name": "",
          "type": "uint256[]"
        }
      ],
      "stateMutability": "view",
      "type": "function"
    },
    {
      "inputs": [
        {
          "internalType": "address",
          "name": "owner",
          "type": "address"
        },
        {
          "internalType": "address",
          "name": "operator",
          "type": "address"
        }
      ],
      "name": "isApprovedForAll",
      "outputs": [
        {
          "internalType": "bool",
          "name": "",
          "type": "bool"
        }
      ],
      "stateMutability": "view",
      "type": "function"
    },
    {
      "inputs": [
        {
          "internalType": "string",
          "name": "title",
          "type": "string"
        },
        {
          "internalType": "string",
          "name": "ipfsHash",
          "type": "string"
        },
        {
          "internalType": "address",
          "name": "director",
          "type": "address"
        },
        {
          "internalType": "enum MovieNFT.Genre",
          "name": "genre",
          "type": "uint8"
        }
      ],
      "name": "mintMovie",
      "outputs": [
        {
          "internalType": "uint256",
          "name": "",
          "type": "uint256"
        }
      ],
      "stateMutability": "nonpayable",
      "type": "function"
    },
    {
      "inputs": [
        {
          "internalType": "uint256",
          "name": "",
          "type": "uint256"
        }
      ],
      "name": "movies",
      "outputs": [
        {
          "internalType": "uint256",
          "name": "movieId",
          "type": "uint256"
        },
        {
          "internalType": "string",
          "name": "title",
          "type": "string"
        },
        {
          "internalType": "string",
          "name": "ipfsHash",
          "type": "string"
        },
        {
          "internalType": "address",
          "name": "director",
          "type": "address"
        },
        {
          "internalType": "uint256",
          "name": "productionCost",
          "type": "uint256"
        },
        {
          "internalType": "uint256",
          "name": "totalRevenue",
          "type": "uint256"
        },
        {
          "internalType": "uint256",
          "name": "releaseDate",
          "type": "uint256"
        },
        {
          "internalType": "enum MovieNFT.Genre",
          "name": "genre",
          "type": "uint8"
        },
        {
          "internalType": "enum MovieNFT.Rating",
          "name": "rating",
          "type": "uint8"
        },
        {
          "internalType": "bool",
          "name": "isPublished",
          "type": "bool"
        }
      ],
      "stateMutability": "view",
      "type": "function"
    },
    {
      "inputs": [],
      "name": "name",
      "outputs": [
        {
          "internalType": "string",
          "name": "",
          "type": "string"
        }
      ],
      "stateMutability": "view",
      "type": "function"
    },
    {
      "inputs": [],
      "name": "owner",
      "outputs": [
        {
          "internalType": "address",
          "name": "",
          "type": "address"
        }
      ],
      "stateMutability": "view",
      "type": "function"
    },
    {
      "inputs": [
        {
          "internalType": "uint256",
          "name": "tokenId",
          "type": "uint256"
        }
      ],
      "name": "ownerOf",
      "outputs": [
        {
          "internalType": "address",
          "name": "",
          "type": "address"
        }
      ],
      "stateMutability": "view",
      "type": "function"
    },
    {
      "inputs": [
        {
          "internalType": "uint256",
          "name": "movieId",
          "type": "uint256"
        }
      ],
      "name": "publishMovie",
      "outputs": [],
      "stateMutability": "nonpayable",
      "type": "function"
    },
    {
      "inputs": [],
      "name": "renounceOwnership",
      "outputs": [],
      "stateMutability": "nonpayable",
      "type": "function"
    },
    {
      "inputs": [
        {
          "internalType": "address",
          "name": "from",
          "type": "address"
        },
        {
          "internalType": "address",
          "name": "to",
          "type": "address"
        },
        {
          "internalType": "uint256",
          "name": "tokenId",
          "type": "uint256"
        }
      ],
      "name": "safeTransferFrom",
      "outputs": [],
      "stateMutability": "nonpayable",
      "type": "function"
    },
    {
      "inputs": [
        {
          "internalType": "address",
          "name": "from",
          "type": "address"
        },
        {
          "internalType": "address",
          "name": "to",
          "type": "address"
        },
        {
          "internalType": "uint256",
          "name": "tokenId",
          "type": "uint256"
        },
        {
          "internalType": "bytes",
          "name": "data",
          "type": "bytes"
        }
      ],
      "name": "safeTransferFrom",
      "outputs": [],
      "stateMutability": "nonpayable",
      "type": "function"
    },
    {
      "inputs": [
        {
          "internalType": "address",
          "name": "operator",
          "type": "address"
        },
        {
          "internalType": "bool",
          "name": "approved",
          "type": "bool"
        }
      ],
      "name": "setApprovalForAll",
      "outputs": [],
      "stateMutability": "nonpayable",
      "type": "function"
    },
    {
      "inputs": [
        {
          "internalType": "uint256",
          "name": "movieId",
          "type": "uint256"
        },
        {
          "internalType": "address[]",
          "name": "recipients",
          "type": "address[]"
        },
        {
          "internalType": "uint256[]",
          "name": "shares",
          "type": "uint256[]"
        }
      ],
      "name": "setRevenueShares",
      "outputs": [],
      "stateMutability": "nonpayable",
      "type": "function"
    },
    {
      "inputs": [
        {
          "internalType": "bytes4",
          "name": "interfaceId",
          "type": "bytes4"
        }
      ],
      "name": "supportsInterface",
      "outputs": [
        {
          "internalType": "bool",
          "name": "",
          "type": "bool"
        }
      ],
      "stateMutability": "view",
      "type": "function"
    },
    {
      "inputs": [],
      "name": "symbol",
      "outputs": [
        {
          "internalType": "string",
          "name": "",
          "type": "string"
        }
      ],
      "stateMutability": "view",
      "type": "function"
    },
    {
      "inputs": [
        {
          "internalType": "uint256",
          "name": "tokenId",
          "type": "uint256"
        }
      ],
      "name": "tokenURI",
      "outputs": [
        {
          "internalType": "string",
          "name": "",
          "type": "string"
        }
      ],
      "stateMutability": "view",
      "type": "function"
    },
    {
      "inputs": [
        {
          "internalType": "address",
          "name": "from",
          "type": "address"
        },
        {
          "internalType": "address",
          "name": "to",
          "type": "address"
        },
        {
          "internalType": "uint256",
          "name": "tokenId",
          "type": "uint256"
        }
      ],
      "name": "transferFrom",
      "outputs": [],
      "stateMutability": "nonpayable",
      "type": "function"
    },
    {
      "inputs": [
        {
          "internalType": "address",
          "name": "newOwner",
          "type": "address"
        }
      ],
      "name": "transferOwnership",
      "outputs": [],
      "stateMutability": "nonpayable",
      "type": "function"
    }
  ],
  "bytecode": "0x60803462000377576001600160401b03906040818101838111838210176200036157815260098252602091684f414e204d6f76696560b81b83820152815193828501858110828211176200036157835260058552644d4f56494560d81b84860152815181811162000361576000948554916001948584811c9416801562000356575b8385101462000342578190601f94858111620002ef575b5083908583116001146200028b5789926200027f575b5050600019600383901b1c191690851b1786555b86519283116200026b5783548481811c9116801562000260575b828210146200024c5782811162000204575b50809183116001146200019d57508495829394959262000191575b5050600019600383901b1c191690821b1790555b3315620001795760068054336001600160a01b03198216811790925591519290916001600160a01b0316907f8be0079c531659141344cd1fd0a4f28419497f9722a3daafe3b4186f6b6457e09080a361279c90816200037d8239f35b51631e4fbdf760e01b81526004810191909152602490fd5b01519050388062000109565b90601f198316968487528287209287905b898210620001ec575050838596979810620001d2575b505050811b0190556200011d565b015160001960f88460031b161c19169055388080620001c4565b808785968294968601518155019501930190620001ae565b8487528187208380860160051c82019284871062000242575b0160051c019085905b82811062000236575050620000ee565b88815501859062000226565b925081926200021d565b634e487b7160e01b87526022600452602487fd5b90607f1690620000dc565b634e487b7160e01b86526041600452602486fd5b015190503880620000ae565b898052848a208894509190601f1984168b5b87828210620002d85750508411620002be575b505050811b018655620000c2565b015160001960f88460031b161c19169055388080620002b0565b8385015186558b979095019493840193016200029d565b9091508880528389208580850160051c82019286861062000338575b918991869594930160051c01915b8281106200032957505062000098565b8b815585945089910162000319565b925081926200030b565b634e487b7160e01b88526022600452602488fd5b93607f169362000081565b634e487b7160e01b600052604160045260246000fd5b600080fdfe608080604052600436101561001357600080fd5b60003560e01c90816301ffc9a714611d285750806306fdde0314611c85578063081812fc14611c39578063095ea7b314611af957806315d590a6146119ea578063179ffe76146117ae57806323b872dd146117975780632ebda85314610eef57806336d6ddde14610b2a578063404ebf6c14610a4657806342842e0e14610a1857806359fde1e01461086d5780636352211e1461083157806370a08231146107b3578063715018a6146107335780638da5cb5b146106ff57806395d89b4114610602578063a22cb4651461051a578063adb968411461043e578063b88d4fde146103d0578063c5319fa6146102ab578063c87b56dd14610254578063e985e9c5146101f05763f2fde38b1461012757600080fd5b346101eb5760206003193601126101eb57610140611e37565b61014861210a565b73ffffffffffffffffffffffffffffffffffffffff8091169081156101ba57600654827fffffffffffffffffffffffff0000000000000000000000000000000000000000821617600655167f8be0079c531659141344cd1fd0a4f28419497f9722a3daafe3b4186f6b6457e0600080a3005b60246040517f1e4fbdf700000000000000000000000000000000000000000000000000000000815260006004820152fd5b600080fd5b346101eb5760406003193601126101eb57610209611e37565b610211611e5a565b9073ffffffffffffffffffffffffffffffffffffffff809116600052600560205260406000209116600052602052602060ff604060002054166040519015158152f35b346101eb5760206003193601126101eb5761027060043561236e565b50600060405161027f81611f2a565b526102a760405161028f81611f2a565b60008152604051918291602083526020830190611df7565b0390f35b346101eb5760206003193601126101eb576004356102e86102cb8261236e565b73ffffffffffffffffffffffffffffffffffffffff1633146125f9565b806000526008602052604060002060098101805461030c60ff8260101c161561265e565b600483015415610372577fffffffffffffffffffffffffffffffffffffffffffffffffffffffffff00ffff6201000091161790556008429101557f42b55d48958a203b1e9df229c321fe3db95f644ad80e12d83521e9d35e3fc2316020604051428152a2005b60646040517f08c379a000000000000000000000000000000000000000000000000000000000815260206004820152600960248201527f4e6f207363656e657300000000000000000000000000000000000000000000006044820152fd5b346101eb5760806003193601126101eb576103e9611e37565b6103f1611e5a565b906044356064359267ffffffffffffffff84116101eb57366023850112156101eb5761042a61043c943690602481600401359101611f85565b9261043683838361215b565b336123cf565b005b346101eb5760406003193601126101eb576004356024356104616102cb8361236e565b8160005260086020526004604060002061048560ff600983015460101c161561265e565b0190815490680100000000000000008210156104eb576104ce827f06ce9f7a1cb6a656e2a708efc9dde46b7651e24e5ea48be21ce738a8d8fa09a39460016020950181556126c3565b81549060031b9060001984831b921b1916179055604051908152a2005b7f4e487b7100000000000000000000000000000000000000000000000000000000600052604160045260246000fd5b346101eb5760406003193601126101eb57610533611e37565b602435908115158092036101eb5773ffffffffffffffffffffffffffffffffffffffff169081156105d15733600052600560205260406000208260005260205260406000207fffffffffffffffffffffffffffffffffffffffffffffffffffffffffffffff0081541660ff83161790556040519081527f17307eab39ab6107e8899845ad3d59bd9653f200f220920489ca2b5937696c3160203392a3005b602482604051907f5b08ba180000000000000000000000000000000000000000000000000000000082526004820152fd5b346101eb5760006003193601126101eb576040516000600180549061062682611ff2565b808552918181169081156106ba5750600114610661575b6102a78461064d81860382611f46565b604051918291602083526020830190611df7565b600081815292507fb10e2d527612073b26eecdfd717e6a320cf44b4afac2b0732d9fcbe2b7fa0cf65b8284106106a257505050810160200161064d8261063d565b8054602085870181019190915290930192810161068a565b7fffffffffffffffffffffffffffffffffffffffffffffffffffffffffffffff001660208087019190915292151560051b8501909201925061064d915083905061063d565b346101eb5760006003193601126101eb57602073ffffffffffffffffffffffffffffffffffffffff60065416604051908152f35b346101eb5760006003193601126101eb5761074c61210a565b600073ffffffffffffffffffffffffffffffffffffffff6006547fffffffffffffffffffffffff00000000000000000000000000000000000000008116600655167f8be0079c531659141344cd1fd0a4f28419497f9722a3daafe3b4186f6b6457e08280a3005b346101eb5760206003193601126101eb5773ffffffffffffffffffffffffffffffffffffffff6107e1611e37565b1680156108005760005260036020526020604060002054604051908152f35b60246040517f89c62b6400000000000000000000000000000000000000000000000000000000815260006004820152fd5b346101eb5760206003193601126101eb57602061084f60043561236e565b73ffffffffffffffffffffffffffffffffffffffff60405191168152f35b60206003193601126101eb57600435806000526008602052604060002060ff600982015460101c16156109ba576007016108a834825461270a565b9055806000526009602052604060002060006001918291828201903415935b6108f9575b857ff2838e4b541f90d41a1076a560d75e948f7d1008e72118a655568626a30b451f6020604051348152a2005b82548110156109b55761090c81836126c3565b9054600391821b1c803402903482041486171561098657600080809373ffffffffffffffffffffffffffffffffffffffff6127108395049161094e888b6126c3565b9054911b1c1682821561097d575bf1156109715761096b906125a4565b846108c7565b6040513d6000823e3d90fd5b506108fc61095c565b7f4e487b7100000000000000000000000000000000000000000000000000000000600052601160045260246000fd5b6108cc565b60646040517f08c379a000000000000000000000000000000000000000000000000000000000815260206004820152600d60248201527f4e6f74207075626c6973686564000000000000000000000000000000000000006044820152fd5b346101eb5761043c610a2936611ecb565b9060405192610a3784611f2a565b6000845261043683838361215b565b346101eb5760206003193601126101eb57600435600052600860205260406000208054610a7560018301612045565b9160ff610a8460028301612045565b73ffffffffffffffffffffffffffffffffffffffff600384015416926006810154600782015490610ae36009600885015494015494610ad56040519a8b9a8b526101408060208d01528b0190611df7565b9089820360408b0152611df7565b956060880152608087015260a086015260c0850152610b0760e08501838316611eb1565b610b1a6101008501838360081c16611ebe565b60101c1615156101208301520390f35b346101eb5760606003193601126101eb5767ffffffffffffffff600435602480358381116101eb57366023820112156101eb578060040135610b6b81611fda565b610b786040519182611f46565b81815260209283820185600594851b830101913683116101eb578601905b828210610ec357505050604435958087116101eb57366023880112156101eb57866004013596610bc588611fda565b97610bd3604051998a611f46565b80895286868a0191861b830101913683116101eb5787879101915b838310610eb35750505050610c028661236e565b610c2573ffffffffffffffffffffffffffffffffffffffff9182339116146125f9565b8251885103610e5657600095865b8951881015610c5d57610c51610c5791888a891b8d0101519061270a565b976125a4565b96610c33565b918691896127108c9503610df957604051966040880188811088821117610d9d576040528752838701948552600052600983526040600020955191825190868211610dcb576801000000000000000093848311610d9d578590610cc5848b54818d558c6125d6565b019088600052856000209060005b848110610d8957505050505060018096019351918251958611610d5b578511610d2e57508190610d08858554818755866125d6565b01916000528060002060005b848110610d1d57005b835182820155928201928501610d14565b7f4e487b710000000000000000000000000000000000000000000000000000000060005260416004526000fd5b507f4e487b710000000000000000000000000000000000000000000000000000000060005260416004526000fd5b835182168382015592870192600101610cd3565b837f4e487b710000000000000000000000000000000000000000000000000000000060005260416004526000fd5b827f4e487b710000000000000000000000000000000000000000000000000000000060005260416004526000fd5b606484601784604051927f08c379a000000000000000000000000000000000000000000000000000000000845260048401528201527f536861726573206d7573742073756d20746f20313030250000000000000000006044820152fd5b606485600f88604051927f08c379a000000000000000000000000000000000000000000000000000000000845260048401528201527f4c656e677468206d69736d6174636800000000000000000000000000000000006044820152fd5b8235815291810191879101610bee565b813573ffffffffffffffffffffffffffffffffffffffff811681036101eb578152908501908501610b96565b346101eb5760806003193601126101eb5760043567ffffffffffffffff81116101eb57610f20903690600401611fbc565b60243567ffffffffffffffff81116101eb57610f40903690600401611fbc565b6044359173ffffffffffffffffffffffffffffffffffffffff831683036101eb57600860643510156101eb57610f776007546125a4565b9182600755604051610f8881611f2a565b6000815233156117665783600052600260205273ffffffffffffffffffffffffffffffffffffffff60406000205416848115159182611712575b3360005260036020526040600020600181540190558160005260026020526040600020337fffffffffffffffffffffffff000000000000000000000000000000000000000082541617905533907fddf252ad1be2c89b69c2b068fc378daa952ba7f163c4a11628f55a4df523b3ef600080a46116e157333b61152f575b5060405161104c81611f2a565b600081526040519061105d82611f2a565b600082526040519261106e84611f0d565b858452846020850152604084015273ffffffffffffffffffffffffffffffffffffffff86166060840152608083015260a0820152600060c0820152600060e082015260006101008201526110c860643561012083016125b3565b60026101408201526000610160820152826000526008602052604060002081518155602082015180519067ffffffffffffffff82116104eb5781906111106001850154611ff2565b601f81116114fa575b50602090601f83116001146114885760009261147d575b50506000198260011b9260031b1c19161760018201555b6040820151805167ffffffffffffffff81116104eb5780600284019261116d8454611ff2565b601f8111611440575b50602090601f83116001146113dc576000926113d1575b50506000198260011b9260031b1c19161790555b6003810173ffffffffffffffffffffffffffffffffffffffff6060840151167fffffffffffffffffffffffff0000000000000000000000000000000000000000825416179055608082015180519067ffffffffffffffff82116104eb576801000000000000000082116104eb5760206004840191611224848454818655856125d6565b0190600052602060002060005b8381106113bd575050505060a082015180519067ffffffffffffffff82116104eb576801000000000000000082116104eb5760206005840191611279848454818655856125d6565b0190600052602060002060005b8381106113a9575050505060099060c0830151600682015560e083015160078201556101008301516008820155019061012081015194600886101561137a5782549061014083015193600585101561137a57602097879561ff0073ffffffffffffffffffffffffffffffffffffffff957fffffffffffffffffffffffffffffffffffffffffffffffffffffffffff00000060ff62ff00006101607fffa9bb327e74d6760a729ba4cbc34710eeeb80047949819ae9ce66dfcd2b68ab9b0151151560101b1695169116179160081b161717905561136f604051928392898452169588830190611df7565b0390a3604051908152f35b7f4e487b7100000000000000000000000000000000000000000000000000000000600052602160045260246000fd5b600190602084519401938184015501611286565b600190602084519401938184015501611231565b01519050888061118d565b60008581526020812093601f1916905b818110611428575090846001959493921061140f575b505050811b0190556111a1565b015160001960f88460031b161c19169055888080611402565b929360206001819287860151815501950193016113ec565b61146d90856000526020600020601f850160051c81019160208610611473575b601f0160051c01906125bf565b89611176565b9091508190611460565b015190508780611130565b9250600184016000526020600020906000935b601f19841685106114df576001945083601f198116106114c6575b505050811b016001820155611147565b015160001960f88460031b161c191690558780806114b6565b8181015183556020948501946001909301929091019061149b565b61152990600186016000526020600020601f850160051c8101916020861061147357601f0160051c01906125bf565b88611119565b602061158391604051809381927f150b7a0200000000000000000000000000000000000000000000000000000000835233600484015260006024840152886044840152608060648401526084830190611df7565b03816000335af160009181611684575b50611605573d156115fe573d6115a881611f69565b906115b66040519283611f46565b81523d6000602083013e5b805190816115f95760246040517f64a0ae92000000000000000000000000000000000000000000000000000000008152336004820152fd5b602001fd5b60606115c1565b7fffffffff000000000000000000000000000000000000000000000000000000007f150b7a0200000000000000000000000000000000000000000000000000000000911603611654578461103f565b60246040517f64a0ae92000000000000000000000000000000000000000000000000000000008152336004820152fd5b9091506020813d6020116116d9575b816116a060209383611f46565b810103126101eb57517fffffffff00000000000000000000000000000000000000000000000000000000811681036101eb579086611593565b3d9150611693565b60246040517f73c6ac6e00000000000000000000000000000000000000000000000000000000815260006004820152fd5b61174b82600052600460205260406000207fffffffffffffffffffffffff00000000000000000000000000000000000000008154169055565b80600052600360205260406000206000198154019055610fc2565b60246040517f64a0ae9200000000000000000000000000000000000000000000000000000000815260006004820152fd5b346101eb5761043c6117a836611ecb565b9161215b565b346101eb5760206003193601126101eb5760006101606040516117d081611f0d565b828152606060208201526060604082015282606082015260606080820152606060a08201528260c08201528260e082015282610100820152826101208201528261014082015201526004356000526008602052604060002060096040519161183783611f0d565b8054835261184760018201612045565b602084015261185860028201612045565b604084015273ffffffffffffffffffffffffffffffffffffffff600382015416606084015261188960048201612717565b608084015261189a60058201612717565b60a0840152600681015460c0840152600781015460e0840152600881015461010084015201546118d160ff821661012084016125b3565b600560ff8260081c16101561137a578060ff809260081c1661014084015260101c1615156101608201526040518091602082528051602083015261016061199461192c602084015161018060408701526101a0860190611df7565b61197f61194b604086015192601f1993848983030160608a0152611df7565b73ffffffffffffffffffffffffffffffffffffffff60608701511660808801526080860151838883030160a0890152611e7d565b9060a0850151908683030160c0870152611e7d565b9160c081015160e085015260e08101516101008501526101008101516101208501526119ca610120820151610140860190611eb1565b6119dc61014082015183860190611ebe565b015115156101808301520390f35b346101eb576020806003193601126101eb57600435600052600981526040600020906040519182918082549485815201809483600052826000209060005b818110611acf5750505083611a3e910384611f46565b611a4b6001809301612717565b93604051936040850190604086525180915260608501919060005b818110611aa6575050508381038285015281808651928381520195019160005b828110611a935785870386f35b8351875295810195928101928401611a86565b825173ffffffffffffffffffffffffffffffffffffffff16845292840192918401918501611a66565b825473ffffffffffffffffffffffffffffffffffffffff1684529284019260019283019201611a28565b346101eb5760406003193601126101eb57611b12611e37565b602435611b1e8161236e565b33151580611c19575b80611bde575b611bae57819073ffffffffffffffffffffffffffffffffffffffff809416938491167f8c5be1e5ebec7d5bd14f71427d1e84f3dd0314c0f7b2291e5b200ac8c7c3b925600080a460005260046020526040600020907fffffffffffffffffffffffff0000000000000000000000000000000000000000825416179055600080f35b60246040517fa9fbf51f000000000000000000000000000000000000000000000000000000008152336004820152fd5b5073ffffffffffffffffffffffffffffffffffffffff8116600052600560205260406000203360005260205260ff6040600020541615611b2d565b503373ffffffffffffffffffffffffffffffffffffffff82161415611b27565b346101eb5760206003193601126101eb57600435611c568161236e565b506000526004602052602073ffffffffffffffffffffffffffffffffffffffff60406000205416604051908152f35b346101eb5760006003193601126101eb5760405160008054611ca681611ff2565b808452906001908181169081156106ba5750600114611ccf576102a78461064d81860382611f46565b600080805292507f290decd9548b62a8d60345a988386fc84ba6bc95484008f6362f93160ef3e5635b828410611d1057505050810160200161064d8261063d565b80546020858701810191909152909301928101611cf8565b346101eb5760206003193601126101eb57600435907fffffffff0000000000000000000000000000000000000000000000000000000082168092036101eb57817f80ac58cd0000000000000000000000000000000000000000000000000000000060209314908115611dcd575b8115611da3575b5015158152f35b7f01ffc9a70000000000000000000000000000000000000000000000000000000091501483611d9c565b7f5b5e139f0000000000000000000000000000000000000000000000000000000081149150611d95565b919082519283825260005b848110611e23575050601f19601f8460006020809697860101520116010190565b602081830181015184830182015201611e02565b6004359073ffffffffffffffffffffffffffffffffffffffff821682036101eb57565b6024359073ffffffffffffffffffffffffffffffffffffffff821682036101eb57565b90815180825260208080930193019160005b828110611e9d575050505090565b835185529381019392810192600101611e8f565b90600882101561137a5752565b90600582101561137a5752565b60031960609101126101eb5773ffffffffffffffffffffffffffffffffffffffff9060043582811681036101eb579160243590811681036101eb579060443590565b610180810190811067ffffffffffffffff8211176104eb57604052565b6020810190811067ffffffffffffffff8211176104eb57604052565b90601f601f19910116810190811067ffffffffffffffff8211176104eb57604052565b67ffffffffffffffff81116104eb57601f01601f191660200190565b929192611f9182611f69565b91611f9f6040519384611f46565b8294818452818301116101eb578281602093846000960137010152565b9080601f830112156101eb57816020611fd793359101611f85565b90565b67ffffffffffffffff81116104eb5760051b60200190565b90600182811c9216801561203b575b602083101461200c57565b7f4e487b7100000000000000000000000000000000000000000000000000000000600052602260045260246000fd5b91607f1691612001565b906040519182600082549261205984611ff2565b9081845260019485811690816000146120c85750600114612085575b505061208392500383611f46565b565b9093915060005260209081600020936000915b8183106120b057505061208393508201013880612075565b85548884018501529485019487945091830191612098565b90506120839550602093507fffffffffffffffffffffffffffffffffffffffffffffffffffffffffffffff0091501682840152151560051b8201013880612075565b73ffffffffffffffffffffffffffffffffffffffff60065416330361212b57565b60246040517f118cdaa7000000000000000000000000000000000000000000000000000000008152336004820152fd5b909173ffffffffffffffffffffffffffffffffffffffff809316928315611766576000928284528260209560028752604096848888205416968791331515806122a6575b509060027fddf252ad1be2c89b69c2b068fc378daa952ba7f163c4a11628f55a4df523b3ef9284612256575b858352600381528b83206001815401905586835252898120847fffffffffffffffffffffffff000000000000000000000000000000000000000082541617905580a4169283830361221c5750505050565b6064945051927f64283d7b000000000000000000000000000000000000000000000000000000008452600484015260248301526044820152fd5b61228f87600052600460205260406000207fffffffffffffffffffffffff00000000000000000000000000000000000000008154169055565b848352600381528b832060001981540190556121cb565b9193945091508061232d575b156122c25785929187913861219f565b8786886122f85760249151907f7e2732890000000000000000000000000000000000000000000000000000000082526004820152fd5b60449151907f177e802f0000000000000000000000000000000000000000000000000000000082523360048301526024820152fd5b503387148015612352575b806122b257508582526004815233858984205416146122b2565b5086825260058152878220338352815260ff8883205416612338565b80600052600260205273ffffffffffffffffffffffffffffffffffffffff6040600020541690811561239e575090565b602490604051907f7e2732890000000000000000000000000000000000000000000000000000000082526004820152fd5b90939192833b6123e1575b5050505050565b73ffffffffffffffffffffffffffffffffffffffff95929394958095169460405196817f150b7a020000000000000000000000000000000000000000000000000000000094858a52166004890152166024870152604486015260806064860152846124526020946084830190611df7565b039483816000978189895af1869181612548575b506124df575050503d6000146124d6573d61248081611f69565b9061248e6040519283611f46565b81528093823d92013e5b825192836124d157602483604051907f64a0ae920000000000000000000000000000000000000000000000000000000082526004820152fd5b019050fd5b60609250612498565b9092507fffffffff000000000000000000000000000000000000000000000000000000009194501603612517575038808080806123da565b602490604051907f64a0ae920000000000000000000000000000000000000000000000000000000082526004820152fd5b9091508481813d831161259d575b6125608183611f46565b8101031261259957517fffffffff0000000000000000000000000000000000000000000000000000000081168103612599579038612466565b8680fd5b503d612556565b60001981146109865760010190565b600882101561137a5752565b8181106125ca575050565b600081556001016125bf565b918181106125e357505050565b61208392600052602060002091820191016125bf565b1561260057565b60646040517f08c379a000000000000000000000000000000000000000000000000000000000815260206004820152600960248201527f4e6f74206f776e657200000000000000000000000000000000000000000000006044820152fd5b1561266557565b60646040517f08c379a000000000000000000000000000000000000000000000000000000000815260206004820152601160248201527f416c7265616479207075626c69736865640000000000000000000000000000006044820152fd5b80548210156126db5760005260206000200190600090565b7f4e487b7100000000000000000000000000000000000000000000000000000000600052603260045260246000fd5b9190820180921161098657565b9060405191828154918282526020928383019160005283600020936000905b82821061274c5750505061208392500383611f46565b85548452600195860195889550938101939091019061273656fea264697066735822122080cc9916f19d600f63ed383d786f9d017a20a5d78a559d6355a738337104754264736f6c63430008140033",
  "linkReferences": {},
  "deployedLinkReferences": {}
}