{
  "_format": "hh-sol-artifact-1",
  "contractName": "AthletePortability",
  "sourceName": "contracts/layer5/AthletePortability.sol",
  "abi": [
    {
      "inputs": [],
      "stateMutability": "nonpayable",
      "type": "constructor"
    },
    {
      "inputs": [],
      "name": "AccessControlBadConfirmation",
      "type": "error"
    },
    {
      "inputs": [
        {
          "internalType": "address",
          "name": "account",
          "type": "address"
        },
        {
          "internalType": "bytes32",
          "name": "neededRole",
          "type": "bytes32"
        }
      ],
      "name": "AccessControlUnauthorizedAccount",
      "type": "error"
    },
    {
      "anonymous": false,
      "inputs": [
        {
          "indexed": true,
          "internalType": "uint256",
          "name": "athleteId",
          "type": "uint256"
        },
        {
          "indexed": false,
          "internalType": "enum AthletePortability.SportType",
          "name": "sport",
          "type": "uint8"
        },
        {
          "indexed": false,
          "internalType": "uint256",
          "name": "level",
          "type": "uint256"
        }
      ],
      "name": "LicenceGranted",
      "type": "event"
    },
    {
      "anonymous": false,
      "inputs": [
        {
          "indexed": true,
          "internalType": "uint256",
          "name": "athleteId",
          "type": "uint256"
        },
        {
          "indexed": false,
          "internalType": "enum AthletePortability.SportType",
          "name": "sport",
          "type": "uint8"
        }
      ],
      "name": "PenaltyExpired",
      "type": "event"
    },
    {
      "anonymous": false,
      "inputs": [
        {
          "indexed": true,
          "internalType": "bytes32",
          "name": "role",
          "type": "bytes32"
        },
        {
          "indexed": true,
          "internalType": "bytes32",
          "name": "previousAdminRole",
          "type": "bytes32"
        },
        {
          "indexed": true,
          "internalType": "bytes32",
          "name": "newAdminRole",
          "type": "bytes32"
        }
      ],
      "name": "RoleAdminChanged",
      "type": "event"
    },
    {
      "anonymous": false,
      "inputs": [
        {
          "indexed": true,
          "internalType": "bytes32",
          "name": "role",
          "type": "bytes32"
        },
        {
          "indexed": true,
          "internalType": "address",
          "name": "account",
          "type": "address"
        },
        {
          "indexed": true,
          "internalType": "address",
          "name": "sender",
          "type": "address"
        }
      ],
      "name": "RoleGranted",
      "type": "event"
    },
    {
      "anonymous": false,
      "inputs": [
        {
          "indexed": true,
          "internalType": "bytes32",
          "name": "role",
          "type": "bytes32"
        },
        {
          "indexed": true,
          "internalType": "address",
          "name": "account",
          "type": "address"
        },
        {
          "indexed": true,
          "internalType": "address",
          "name": "sender",
          "type": "address"
        }
      ],
      "name": "RoleRevoked",
      "type": "event"
    },
    {
      "anonymous": false,
      "inputs": [
        {
          "indexed": true,
          "internalType": "uint256",
          "name": "athleteId",
          "type": "uint256"
        },
        {
          "indexed": false,
          "internalType": "enum AthletePortability.SportType",
          "name": "fromSport",
          "type": "uint8"
        },
        {
          "indexed": false,
          "internalType": "enum AthletePortability.SportType",
          "name": "toSport",
          "type": "uint8"
        },
        {
          "indexed": false,
          "internalType": "uint256",
          "name": "penalty",
          "type": "uint256"
        }
      ],
      "name": "SportSwitched",
      "type": "event"
    },
    {
      "inputs": [],
      "name": "DEFAULT_ADMIN_ROLE",
      "outputs": [
        {
          "internalType": "bytes32",
          "name": "",
          "type": "bytes32"
        }
      ],
      "stateMutability": "view",
      "type": "function"
    },
    {
      "inputs": [],
      "name": "PORTABILITY_MANAGER",
      "outputs": [
        {
          "internalType": "bytes32",
          "name": "",
          "type": "bytes32"
        }
      ],
      "stateMutability": "view",
      "type": "function"
    },
    {
      "inputs": [
        {
          "internalType": "uint256",
          "name": "",
          "type": "uint256"
        },
        {
          "internalType": "uint256",
          "name": "",
          "type": "uint256"
        }
      ],
      "name": "athleteTransfers",
      "outputs": [
        {
          "internalType": "uint256",
          "name": "transferId",
          "type": "uint256"
        },
        {
          "internalType": "uint256",
          "name": "athleteId",
          "type": "uint256"
        },
        {
          "internalType": "enum AthletePortability.SportType",
          "name": "fromSport",
          "type": "uint8"
        },
        {
          "internalType": "enum AthletePortability.SportType",
          "name": "toSport",
          "type": "uint8"
        },
        {
          "internalType": "uint256",
          "name": "timestamp",
          "type": "uint256"
        },
        {
          "internalType": "uint256",
          "name": "statPenalty",
          "type": "uint256"
        },
        {
          "internalType": "uint256",
          "name": "penaltyExpiresAt",
          "type": "uint256"
        },
        {
          "internalType": "bool",
          "name": "completed",
          "type": "bool"
        }
      ],
      "stateMutability": "view",
      "type": "function"
    },
    {
      "inputs": [
        {
          "internalType": "uint256",
          "name": "",
          "type": "uint256"
        }
      ],
      "name": "currentSport",
      "outputs": [
        {
          "internalType": "uint8",
          "name": "",
          "type": "uint8"
        }
      ],
      "stateMutability": "view",
      "type": "function"
    },
    {
      "inputs": [
        {
          "internalType": "uint256",
          "name": "athleteId",
          "type": "uint256"
        }
      ],
      "name": "getAthleteTransfers",
      "outputs": [
        {
          "components": [
            {
              "internalType": "uint256",
              "name": "transferId",
              "type": "uint256"
            },
            {
              "internalType": "uint256",
              "name": "athleteId",
              "type": "uint256"
            },
            {
              "internalType": "enum AthletePortability.SportType",
              "name": "fromSport",
              "type": "uint8"
            },
            {
              "internalType": "enum AthletePortability.SportType",
              "name": "toSport",
              "type": "uint8"
            },
            {
              "internalType": "uint256",
              "name": "timestamp",
              "type": "uint256"
            },
            {
              "internalType": "uint256",
              "name": "statPenalty",
              "type": "uint256"
            },
            {
              "internalType": "uint256",
              "name": "penaltyExpiresAt",
              "type": "uint256"
            },
            {
              "internalType": "bool",
              "name": "completed",
              "type": "bool"
            }
          ],
          "internalType": "struct AthletePortability.SportTransfer[]",
          "name": "",
          "type": "tuple[]"
        }
      ],
      "stateMutability": "view",
      "type": "function"
    },
    {
      "inputs": [
        {
          "internalType": "uint256",
          "name": "athleteId",
          "type": "uint256"
        }
      ],
      "name": "getCurrentPenalty",
      "outputs": [
        {
          "internalType": "uint256",
          "name": "penalty",
          "type": "uint256"
        },
        {
          "internalType": "uint256",
          "name": "expiresAt",
          "type": "uint256"
        }
      ],
      "stateMutability": "view",
      "type": "function"
    },
    {
      "inputs": [
        {
          "internalType": "bytes32",
          "name": "role",
          "type": "bytes32"
        }
      ],
      "name": "getRoleAdmin",
      "outputs": [
        {
          "internalType": "bytes32",
          "name": "",
          "type": "bytes32"
        }
      ],
      "stateMutability": "view",
      "type": "function"
    },
    {
      "inputs": [
        {
          "internalType": "uint256",
          "name": "athleteId",
          "type": "uint256"
        },
        {
          "internalType": "enum AthletePortability.SportType",
          "name": "sport",
          "type": "uint8"
        },
        {
          "internalType": "uint256",
          "name": "level",
          "type": "uint256"
        }
      ],
      "name": "grantLicence",
      "outputs": [],
      "stateMutability": "nonpayable",
      "type": "function"
    },
    {
      "inputs": [
        {
          "internalType": "bytes32",
          "name": "role",
          "type": "bytes32"
        },
        {
          "internalType": "address",
          "name": "account",
          "type": "address"
        }
      ],
      "name": "grantRole",
      "outputs": [],
      "stateMutability": "nonpayable",
      "type": "function"
    },
    {
      "inputs": [
        {
          "internalType": "bytes32",
          "name": "role",
          "type": "bytes32"
        },
        {
          "internalType": "address",
          "name": "account",
          "type": "address"
        }
      ],
      "name": "hasRole",
      "outputs": [
        {
          "internalType": "bool",
          "name": "",
          "type": "bool"
        }
      ],
      "stateMutability": "view",
      "type": "function"
    },
    {
      "inputs": [
        {
          "internalType": "uint256",
          "name": "",
          "type": "uint256"
        },
        {
          "internalType": "uint8",
          "name": "",
          "type": "uint8"
        }
      ],
      "name": "licences",
      "outputs": [
        {
          "internalType": "uint256",
          "name": "athleteId",
          "type": "uint256"
        },
        {
          "internalType": "enum AthletePortability.SportType",
          "name": "sport",
          "type": "uint8"
        },
        {
          "internalType": "uint256",
          "name": "licenceLevel",
          "type": "uint256"
        },
        {
          "internalType": "uint256",
          "name": "grantedAt",
          "type": "uint256"
        },
        {
          "internalType": "bool",
          "name": "isActive",
          "type": "bool"
        }
      ],
      "stateMutability": "view",
      "type": "function"
    },
    {
      "inputs": [
        {
          "internalType": "bytes32",
          "name": "role",
          "type": "bytes32"
        },
        {
          "internalType": "address",
          "name": "callerConfirmation",
          "type": "address"
        }
      ],
      "name": "renounceRole",
      "outputs": [],
      "stateMutability": "nonpayable",
      "type": "function"
    },
    {
      "inputs": [
        {
          "internalType": "bytes32",
          "name": "role",
          "type": "bytes32"
        },
        {
          "internalType": "address",
          "name": "account",
          "type": "address"
        }
      ],
      "name": "revokeRole",
      "outputs": [],
      "stateMutability": "nonpayable",
      "type": "function"
    },
    {
      "inputs": [
        {
          "internalType": "bytes4",
          "name": "interfaceId",
          "type": "bytes4"
        }
      ],
      "name": "supportsInterface",
      "outputs": [
        {
          "internalType": "bool",
          "name": "",
          "type": "bool"
        }
      ],
      "stateMutability": "view",
      "type": "function"
    },
    {
      "inputs": [
        {
          "internalType": "uint256",
          "name": "athleteId",
          "type": "uint256"
        },
        {
          "internalType": "enum AthletePortability.SportType",
          "name": "newSport",
          "type": "uint8"
        }
      ],
      "name": "switchPrimarySport",
      "outputs": [],
      "stateMutability": "nonpayable",
      "type": "function"
    },
    {
      "inputs": [
        {
          "internalType": "uint8",
          "name": "",
          "type": "uint8"
        },
        {
          "internalType": "uint8",
          "name": "",
          "type": "uint8"
        }
      ],
      "name": "translations",
      "outputs": [
        {
          "internalType": "enum AthletePortability.SportType",
          "name": "fromSport",
          "type": "uint8"
        },
        {
          "internalType": "enum AthletePortability.SportType",
          "name": "toSport",
          "type": "uint8"
        },
        {
          "internalType": "uint256",
          "name": "strengthCarryover",
          "type": "uint256"
        },
        {
          "internalType": "uint256",
          "name": "speedCarryover",
          "type": "uint256"
        },
        {
          "internalType": "uint256",
          "name": "enduranceCarryover",
          "type": "uint256"
        },
        {
          "internalType": "uint256",
          "name": "techniqueCarryover",
          "type": "uint256"
        },
        {
          "internalType": "uint256",
          "name": "learningCurveDays",
          "type": "uint256"
        }
      ],
      "stateMutability": "view",
      "type": "function"
    }
  ],
  "bytecode": "0x608060405234620002cb57620000153362000306565b50620000213362000386565b506200002c620002d0565b6000808252600160208084018281526123286040860152611f4060608601819052612134608087015260a0860152601e60c0860152919092527f17ef568e3e12ab5b9c7254a8d58478811de00f9e6eb34345acd53bf8fd09d3ec90915281517f560c5c35d362ebe12852e61b5bb1957021175ee6b552ac19e7c3fb4e272bed3f926008821015620002b55783549251916008831015620002b55760059360ff61ff0060c09560081b1692169061ffff19161717845560408101516001850155606081015160028501556080810151600385015560a08101516004850155015191015562000118620002d0565b60018152600060208083018281526121346040850181905260608501526123286080850152611d4c60a0850152600e60c08501529180527fabd6e7cb50984ff9c2f3e18a2660c3353dadf4e3291deeb275dae2cd1e44fe05905281517fa854ba23287a95c22b66b66e4f07bb2441b3fd4ecec9d0720a55aaffc00a6db4926008821015620002b55783549251916008831015620002b55760059360ff61ff0060c09560081b1692169061ffff19161717845560408101516001850155606081015160028501556080810151600385015560a08101516004850155015191015562000201620002d0565b60008152602081016007815260408201612328815260608301611b58815260808401612134815260a0850191611388835260c0860193603c855260008052600460205260406000206007600052602052604060002096516008811015620002b55787549651966008881015620002b55760ff61ff0060059960081b1692169061ffff191617178755516001870155516002860155516003850155516004840155519101556040516110d49081620004298239f35b634e487b7160e01b600052602160045260246000fd5b600080fd5b6040519060e082016001600160401b03811183821017620002f057604052565b634e487b7160e01b600052604160045260246000fd5b6001600160a01b031660008181527fad3228b676f7d3cd4284a5443f17f1962b36e491b30a40b2405849e597ba5fb5602052604081205490919060ff166200038257818052816020526040822081835260205260408220600160ff198254161790553391600080516020620014fd8339815191528180a4600190565b5090565b6001600160a01b031660008181527f3ab155c7e906c5a878ee8f5850624dc4c5412fb709b84692484c3bcb57e9b26060205260408120549091907f91602b04ce832573db1f253c8a0d4607f61c87a7de6b48ace8bc99aa6b32a2f69060ff166200042357808352826020526040832082845260205260408320600160ff19825416179055600080516020620014fd833981519152339380a4600190565b50509056fe608060408181526004918236101561001657600080fd5b60009260e08435811c92836301ffc9a714610a49575082630f6b65ae14610a0d578263248a9ca3146109e25782632f2ff15d146109c357826336568abe146109615782634588fc34146108eb57826360e3e183146108bb5782636ec6b9261461082357826372d85fcf146107f8578263902320221461066857826391d1485414610621578263a217fddf14610605578263ad57c0101461055f578263d2ababa61461023d57508163d37a45761461010e575063d547741f146100d757600080fd5b3461010a576001610106916101016100ee36610ae8565b9390928387528660205286200154610c18565b610cca565b5080f35b5080fd5b83833461010a57606060031936011261010a5782359060243560088110156102395760443561013b610b85565b825160a0810181811067ffffffffffffffff821117610226578452848152602081016101678482610e0b565b8482018381526060830190428252608084019260018452888a526003602052878a2060ff88168b52602052878a209451855551600881101561021357918493916101db7f28f2c696b32c12cffcf5db1bb690f450958c1ba2c0e10f4e661bcedae2cf99769a9b9c9460016101fe9801610e17565b51600285015551600384015551151591019060ff60ff1983541691151516179055565b61020a83518093610b30565b6020820152a280f35b60248a60218d634e487b7160e01b835252fd5b60248760418a634e487b7160e01b835252fd5b8380fd5b90915034610239578260031936011261023957813592602480359060088083101561055b5761026a610b85565b8688526020916005835260ff858a205416968288101561054a5761028e8589610e30565b96888b52818552868b209360ff871694858d528652878c209360c06102b1610da7565b6102cf60ff88546102c482821685610e0b565b861c168a8301610e0b565b6005600197888101548d84015260028101546060840152600381015460808401528781015460a08401520154918291015280156000146105235750624f1a00945b80547fffffffffffffffffffffffffffffffffffffffffffffffffffffffffffffffff8114610511578e9695938c938f8f93948d918f808f9b9884019d8e855583815260028d52209b429061036491610d4d565b9a61036d610d70565b9d8e528d019182528c01956103829087610e0b565b60608c01926103919084610e0b565b60808c019642885260a08d0198895260c08d019a8b528c019a828c52805490680100000000000000008210156104f957906103d0918482018155610b53565b9c909c6104e357518c5551908b015560028a019351838110156104ce576103f79085610e17565b5190828210156104ba5750825461ff009190921b167fffffffffffffffffffffffffffffffffffffffffffffffffffffffffffff00ff9091161790555160038601555190840155516005830155516006909101805460ff191691151560ff169190911790557f61c3caad78ff513bcef12a89a62da195560bc8b5001b25debe9757dce6c989d4956060959094909390926104b392898b5260058252848b209060ff198254161790556104ab84518097610b30565b850190610b30565b820152a280f35b9150508f602186634e487b7160e01b835252fd5b505090508f602186634e487b7160e01b835252fd5b5050505090508f8086634e487b7160e01b825252fd5b505050505090508f604186634e487b7160e01b835252fd5b828f601188634e487b7160e01b835252fd5b62015180808202918204036105385794610310565b508c601185634e487b7160e01b835252fd5b60218a91634e487b7160e01b835252fd5b8780fd5b9150346102395782600319360112610239576024359381358152600260205283812090815486101561060257506101009461059991610b53565b508054936001820154926105eb60028401546105db6003860154938601549460ff60066005890154980154169781519a8b5260208b0152890160ff8316610b30565b60ff606089019160081c16610b30565b608086015260a085015260c0840152151590820152f35b80fd5b5050503461010a578160031936011261010a5751908152602090f35b5050503461010a5760ff8160209361063836610ae8565b90825281865273ffffffffffffffffffffffffffffffffffffffff83832091168252855220541690519015158152f35b915083346106025760208060031936011261010a57823582526002918282528581209384549067ffffffffffffffff82116107e557600594939294906106b18484841b01610dc7565b9483865284860192839888528588209288945b8c8c888810610764578c8c8c8c85519481860192828752518093528686019493905b8382106106f35786860387f35b90919293948361010060019284895180518352848101518584015261071f8d8083015190850190610b30565b61073160608083015190850190610b30565b6080818101519084015260a0808201519084015260c08082015190840152015115158582015201960194939201906106e6565b98600192600792829c9d9b61079e6107ab61077d610d70565b938c548552888d0154878601528b8d015460ff938492838316908801610e0b565b60081c1660608501610e0b565b60038b01546080840152878b015460a0840152888b015460c084015260068b015416151590820152815201950195019493989796986106c4565b826041602492634e487b7160e01b835252fd5b8382863461060257602060031936011261060257506108179035610f2b565b82519182526020820152f35b90838534610602578160031936011261060257823560ff811680910361010a5790829161084e610b20565b9082528460205260ff838320911682526020522080549260018201546002830154906005600385015493850154940154946108a28151976108928960ff8316610b30565b60ff60208a019160081c16610b30565b8601526060850152608084015260a083015260c0820152f35b509050346108e75760206003193601126108e7578160209360ff92358152600585522054169051908152f35b8280fd5b848285346108e757806003193601126108e7578060a09361090a610b20565b84358252600360205260ff838320911682526020522080549260ff6001830154169261095060ff6002850154936003860154950154169482519687526020870190610b30565b840152606083015215156080820152f35b5083833461010a5761097236610ae8565b913373ffffffffffffffffffffffffffffffffffffffff84160361099b57509061010691610cca565b8490517f6697b232000000000000000000000000000000000000000000000000000000008152fd5b5050503461010a576001610106916109dd6100ee36610ae8565b610c3e565b509050346108e75760206003193601126108e757816020936001923581528085522001549051908152f35b5050503461010a578160031936011261010a57602090517f91602b04ce832573db1f253c8a0d4607f61c87a7de6b48ace8bc99aa6b32a2f68152f35b859083346108e75760206003193601126108e757357fffffffff0000000000000000000000000000000000000000000000000000000081168091036108e757602092507f7965db0b000000000000000000000000000000000000000000000000000000008114908115610abe575b5015158152f35b7f01ffc9a70000000000000000000000000000000000000000000000000000000091501483610ab7565b6003196040910112610b1b576004359060243573ffffffffffffffffffffffffffffffffffffffff81168103610b1b5790565b600080fd5b6024359060ff82168203610b1b57565b906008821015610b3d5752565b634e487b7160e01b600052602160045260246000fd5b8054821015610b6f576000526007602060002091020190600090565b634e487b7160e01b600052603260045260246000fd5b3360009081527f3ab155c7e906c5a878ee8f5850624dc4c5412fb709b84692484c3bcb57e9b26060205260409020547f91602b04ce832573db1f253c8a0d4607f61c87a7de6b48ace8bc99aa6b32a2f69060ff1615610be15750565b604490604051907fe2517d3f0000000000000000000000000000000000000000000000000000000082523360048301526024820152fd5b80600052600060205260406000203360005260205260ff6040600020541615610be15750565b906000918083528260205273ffffffffffffffffffffffffffffffffffffffff6040842092169182845260205260ff60408420541615600014610cc557808352826020526040832082845260205260408320600160ff198254161790557f2f8788117e7eff1d82e926ec794901d17c78024a50270940304540a733656f0d339380a4600190565b505090565b906000918083528260205273ffffffffffffffffffffffffffffffffffffffff6040842092169182845260205260ff604084205416600014610cc55780835282602052604083208284526020526040832060ff1981541690557ff6391f5c32d9c69d2a47ea670b442974b53935d1edc7fd64eb21e047a839171b339380a4600190565b91908201809211610d5a57565b634e487b7160e01b600052601160045260246000fd5b60405190610100820182811067ffffffffffffffff821117610d9157604052565b634e487b7160e01b600052604160045260246000fd5b6040519060e0820182811067ffffffffffffffff821117610d9157604052565b907fffffffffffffffffffffffffffffffffffffffffffffffffffffffffffffffe0601f604051930116820182811067ffffffffffffffff821117610d9157604052565b6008821015610b3d5752565b906008811015610b3d5760ff60ff198354169116179055565b906008821015610b3d5760ff600092168252600460205260408220906008811015610f175760ff16825260205260408120610e69610da7565b90610e8a60ff8254610e7d82821686610e0b565b60081c1660208401610e0b565b6001810154918260408201526002820154908160608201526003830154906080810191825260c0600560048601549560a0840196875201549101528315610f0c57610edb610edb92610ee395610d4d565b905190610d4d565b60021c90612710918203918211610ef8575090565b80634e487b7160e01b602492526011600452fd5b5050505050610bb890565b602483634e487b7160e01b81526021600452fd5b906000918252600260209080825260408085209081549067ffffffffffffffff821161108a5791600592610f628684861b01610dc7565b9483865286860192895286892091878a945b86861061101057505050505050508151908115611008577fffffffffffffffffffffffffffffffffffffffffffffffffffffffffffffffff8201918211610ff4578251821015610fe0571b01015160c08101519283421015610fd9575060a001519190565b9250508190565b602486634e487b7160e01b81526032600452fd5b602486634e487b7160e01b81526011600452fd5b505050508190565b60019160079161101e610d70565b8754815284880154838201528688015461105060ff82611043828095168b8701610e0b565b60081c1660608401610e0b565b60038901546080830152600489015460a08301528b89015460c0830152600689015416151560e08201528152019401940193928890610f74565b602487634e487b7160e01b81526041600452fdfea2646970667358221220b199c4d005dd06faf823a36880f0c14180415a3bdb892d1472d2cd277609fe5164736f6c634300081400332f8788117e7eff1d82e926ec794901d17c78024a50270940304540a733656f0d",
  "linkReferences": {},
  "deployedLinkReferences": {}
}