{
  "_format": "hh-sol-artifact-1",
  "contractName": "StrategyRegistry",
  "sourceName": "contracts/layer3/intelligence/StrategyRegistry.sol",
  "abi": [
    {
      "inputs": [],
      "stateMutability": "nonpayable",
      "type": "constructor"
    },
    {
      "inputs": [
        {
          "internalType": "address",
          "name": "owner",
          "type": "address"
        }
      ],
      "name": "OwnableInvalidOwner",
      "type": "error"
    },
    {
      "inputs": [
        {
          "internalType": "address",
          "name": "account",
          "type": "address"
        }
      ],
      "name": "OwnableUnauthorizedAccount",
      "type": "error"
    },
    {
      "anonymous": false,
      "inputs": [
        {
          "indexed": true,
          "internalType": "address",
          "name": "previousOwner",
          "type": "address"
        },
        {
          "indexed": true,
          "internalType": "address",
          "name": "newOwner",
          "type": "address"
        }
      ],
      "name": "OwnershipTransferred",
      "type": "event"
    },
    {
      "anonymous": false,
      "inputs": [
        {
          "indexed": true,
          "internalType": "uint256",
          "name": "strategyId",
          "type": "uint256"
        },
        {
          "indexed": false,
          "internalType": "bool",
          "name": "success",
          "type": "bool"
        },
        {
          "indexed": false,
          "internalType": "uint256",
          "name": "performance",
          "type": "uint256"
        }
      ],
      "name": "StrategyExecuted",
      "type": "event"
    },
    {
      "anonymous": false,
      "inputs": [
        {
          "indexed": true,
          "internalType": "uint256",
          "name": "strategyId",
          "type": "uint256"
        },
        {
          "indexed": true,
          "internalType": "uint256",
          "name": "behaviorId",
          "type": "uint256"
        }
      ],
      "name": "StrategyRegistered",
      "type": "event"
    },
    {
      "inputs": [
        {
          "internalType": "uint256",
          "name": "",
          "type": "uint256"
        },
        {
          "internalType": "uint256",
          "name": "",
          "type": "uint256"
        }
      ],
      "name": "behaviorStrategies",
      "outputs": [
        {
          "internalType": "uint256",
          "name": "",
          "type": "uint256"
        }
      ],
      "stateMutability": "view",
      "type": "function"
    },
    {
      "inputs": [],
      "name": "owner",
      "outputs": [
        {
          "internalType": "address",
          "name": "",
          "type": "address"
        }
      ],
      "stateMutability": "view",
      "type": "function"
    },
    {
      "inputs": [
        {
          "internalType": "uint256",
          "name": "strategyId",
          "type": "uint256"
        },
        {
          "internalType": "bool",
          "name": "success",
          "type": "bool"
        },
        {
          "internalType": "uint256",
          "name": "performance",
          "type": "uint256"
        }
      ],
      "name": "recordExecution",
      "outputs": [],
      "stateMutability": "nonpayable",
      "type": "function"
    },
    {
      "inputs": [
        {
          "internalType": "uint256",
          "name": "behaviorId",
          "type": "uint256"
        },
        {
          "internalType": "string",
          "name": "name",
          "type": "string"
        }
      ],
      "name": "registerStrategy",
      "outputs": [
        {
          "internalType": "uint256",
          "name": "",
          "type": "uint256"
        }
      ],
      "stateMutability": "nonpayable",
      "type": "function"
    },
    {
      "inputs": [],
      "name": "renounceOwnership",
      "outputs": [],
      "stateMutability": "nonpayable",
      "type": "function"
    },
    {
      "inputs": [
        {
          "internalType": "uint256",
          "name": "",
          "type": "uint256"
        }
      ],
      "name": "strategies",
      "outputs": [
        {
          "internalType": "uint256",
          "name": "id",
          "type": "uint256"
        },
        {
          "internalType": "uint256",
          "name": "behaviorId",
          "type": "uint256"
        },
        {
          "internalType": "string",
          "name": "name",
          "type": "string"
        },
        {
          "internalType": "uint256",
          "name": "totalUses",
          "type": "uint256"
        },
        {
          "internalType": "uint256",
          "name": "successCount",
          "type": "uint256"
        },
        {
          "internalType": "uint256",
          "name": "avgPerformance",
          "type": "uint256"
        },
        {
          "internalType": "bool",
          "name": "isActive",
          "type": "bool"
        }
      ],
      "stateMutability": "view",
      "type": "function"
    },
    {
      "inputs": [],
      "name": "strategyCount",
      "outputs": [
        {
          "internalType": "uint256",
          "name": "",
          "type": "uint256"
        }
      ],
      "stateMutability": "view",
      "type": "function"
    },
    {
      "inputs": [
        {
          "internalType": "address",
          "name": "newOwner",
          "type": "address"
        }
      ],
      "name": "transferOwnership",
      "outputs": [],
      "stateMutability": "nonpayable",
      "type": "function"
    }
  ],
  "bytecode": "0x608060405234801561001057600080fd5b50338061003757604051631e4fbdf760e01b81526000600482015260240160405180910390fd5b61004081610046565b50610096565b600080546001600160a01b038381166001600160a01b0319831681178455604051919092169283917f8be0079c531659141344cd1fd0a4f28419497f9722a3daafe3b4186f6b6457e09190a35050565b6108fd806100a56000396000f3fe608060405234801561001057600080fd5b50600436106100885760003560e01c80638da5cb5b1161005b5780638da5cb5b146100d9578063a6a3d154146100f4578063d574ea3d14610107578063f2fde38b1461012d57600080fd5b8063029f10021461008d57806322068b44146100b357806344f9203d146100bc578063715018a6146100d1575b600080fd5b6100a061009b366004610508565b610140565b6040519081526020015b60405180910390f35b6100a060035481565b6100cf6100ca3660046105c3565b610267565b005b6100cf610325565b6000546040516001600160a01b0390911681526020016100aa565b6100a0610102366004610600565b610339565b61011a610115366004610622565b61036a565b6040516100aa979695949392919061063b565b6100cf61013b3660046106c0565b610432565b600380546000918261015183610706565b91905055506040518060e00160405280600354815260200184815260200183815260200160008152602001600081526020016000815260200160011515815250600160006003548152602001908152602001600020600082015181600001556020820151816001015560408201518160020190816101cf91906107a8565b5060608201516003828101919091556080830151600483015560a0830151600583015560c0909201516006909101805460ff19169115159190911790556000848152600260209081526040808320845481546001810183559185529284200191909155915491518592917f42ac43160b322667eee0517399cdb4399ad5923620a7a7f0db028593cafc1b0d91a3506003545b92915050565b6000838152600160205260408120600381018054919261028683610706565b919050555082156102a9576004810180549060006102a383610706565b91905055505b6003810154826102ba600183610868565b83600501546102c9919061087b565b6102d39190610892565b6102dd91906108a5565b60058201556040805184151581526020810184905285917f4a25f0d227db93989edc4c4da80cec4a816775830c9fada2a2fde7eb12409aa9910160405180910390a250505050565b61032d610475565b61033760006104a2565b565b6002602052816000526040600020818154811061035557600080fd5b90600052602060002001600091509150505481565b60016020819052600091825260409091208054918101546002820180549192916103939061071f565b80601f01602080910402602001604051908101604052809291908181526020018280546103bf9061071f565b801561040c5780601f106103e15761010080835404028352916020019161040c565b820191906000526020600020905b8154815290600101906020018083116103ef57829003601f168201915b505050506003830154600484015460058501546006909501549394919390925060ff1687565b61043a610475565b6001600160a01b03811661046957604051631e4fbdf760e01b8152600060048201526024015b60405180910390fd5b610472816104a2565b50565b6000546001600160a01b031633146103375760405163118cdaa760e01b8152336004820152602401610460565b600080546001600160a01b038381166001600160a01b0319831681178455604051919092169283917f8be0079c531659141344cd1fd0a4f28419497f9722a3daafe3b4186f6b6457e09190a35050565b634e487b7160e01b600052604160045260246000fd5b6000806040838503121561051b57600080fd5b82359150602083013567ffffffffffffffff8082111561053a57600080fd5b818501915085601f83011261054e57600080fd5b813581811115610560576105606104f2565b604051601f8201601f19908116603f01168101908382118183101715610588576105886104f2565b816040528281528860208487010111156105a157600080fd5b8260208601602083013760006020848301015280955050505050509250929050565b6000806000606084860312156105d857600080fd5b83359250602084013580151581146105ef57600080fd5b929592945050506040919091013590565b6000806040838503121561061357600080fd5b50508035926020909101359150565b60006020828403121561063457600080fd5b5035919050565b87815260006020888184015260e0604084015287518060e085015260005b818110156106765789810183015185820161010001528201610659565b506101009150600082828601015281601f19601f830116850101925050508560608301528460808301528360a08301526106b460c083018415159052565b98975050505050505050565b6000602082840312156106d257600080fd5b81356001600160a01b03811681146106e957600080fd5b9392505050565b634e487b7160e01b600052601160045260246000fd5b600060018201610718576107186106f0565b5060010190565b600181811c9082168061073357607f821691505b60208210810361075357634e487b7160e01b600052602260045260246000fd5b50919050565b601f8211156107a357600081815260208120601f850160051c810160208610156107805750805b601f850160051c820191505b8181101561079f5782815560010161078c565b5050505b505050565b815167ffffffffffffffff8111156107c2576107c26104f2565b6107d6816107d0845461071f565b84610759565b602080601f83116001811461080b57600084156107f35750858301515b600019600386901b1c1916600185901b17855561079f565b600085815260208120601f198616915b8281101561083a5788860151825594840194600190910190840161081b565b50858210156108585787850151600019600388901b60f8161c191681555b5050505050600190811b01905550565b81810381811115610261576102616106f0565b8082028115828204841417610261576102616106f0565b80820180821115610261576102616106f0565b6000826108c257634e487b7160e01b600052601260045260246000fd5b50049056fea26469706673582212205c275d093c38fc9939f95078ffc434d228deed68062905855a7f93f9f51755bb64736f6c63430008140033",
  "linkReferences": {},
  "deployedLinkReferences": {}
}