{
  "_format": "hh-sol-artifact-1",
  "contractName": "StrategyRegistry",
  "sourceName": "contracts/layer3/intelligence/StrategyRegistry.sol",
  "abi": [
    {
      "inputs": [],
      "stateMutability": "nonpayable",
      "type": "constructor"
    },
    {
      "inputs": [
        {
          "internalType": "address",
          "name": "owner",
          "type": "address"
        }
      ],
      "name": "OwnableInvalidOwner",
      "type": "error"
    },
    {
      "inputs": [
        {
          "internalType": "address",
          "name": "account",
          "type": "address"
        }
      ],
      "name": "OwnableUnauthorizedAccount",
      "type": "error"
    },
    {
      "anonymous": false,
      "inputs": [
        {
          "indexed": true,
          "internalType": "address",
          "name": "previousOwner",
          "type": "address"
        },
        {
          "indexed": true,
          "internalType": "address",
          "name": "newOwner",
          "type": "address"
        }
      ],
      "name": "OwnershipTransferred",
      "type": "event"
    },
    {
      "anonymous": false,
      "inputs": [
        {
          "indexed": true,
          "internalType": "uint256",
          "name": "strategyId",
          "type": "uint256"
        },
        {
          "indexed": false,
          "internalType": "bool",
          "name": "success",
          "type": "bool"
        },
        {
          "indexed": false,
          "internalType": "uint256",
          "name": "performance",
          "type": "uint256"
        }
      ],
      "name": "StrategyExecuted",
      "type": "event"
    },
    {
      "anonymous": false,
      "inputs": [
        {
          "indexed": true,
          "internalType": "uint256",
          "name": "strategyId",
          "type": "uint256"
        },
        {
          "indexed": true,
          "internalType": "uint256",
          "name": "behaviorId",
          "type": "uint256"
        }
      ],
      "name": "StrategyRegistered",
      "type": "event"
    },
    {
      "inputs": [
        {
          "internalType": "uint256",
          "name": "",
          "type": "uint256"
        },
        {
          "internalType": "uint256",
          "name": "",
          "type": "uint256"
        }
      ],
      "name": "behaviorStrategies",
      "outputs": [
        {
          "internalType": "uint256",
          "name": "",
          "type": "uint256"
        }
      ],
      "stateMutability": "view",
      "type": "function"
    },
    {
      "inputs": [],
      "name": "owner",
      "outputs": [
        {
          "internalType": "address",
          "name": "",
          "type": "address"
        }
      ],
      "stateMutability": "view",
      "type": "function"
    },
    {
      "inputs": [
        {
          "internalType": "uint256",
          "name": "strategyId",
          "type": "uint256"
        },
        {
          "internalType": "bool",
          "name": "success",
          "type": "bool"
        },
        {
          "internalType": "uint256",
          "name": "performance",
          "type": "uint256"
        }
      ],
      "name": "recordExecution",
      "outputs": [],
      "stateMutability": "nonpayable",
      "type": "function"
    },
    {
      "inputs": [
        {
          "internalType": "uint256",
          "name": "behaviorId",
          "type": "uint256"
        },
        {
          "internalType": "string",
          "name": "name",
          "type": "string"
        }
      ],
      "name": "registerStrategy",
      "outputs": [
        {
          "internalType": "uint256",
          "name": "",
          "type": "uint256"
        }
      ],
      "stateMutability": "nonpayable",
      "type": "function"
    },
    {
      "inputs": [],
      "name": "renounceOwnership",
      "outputs": [],
      "stateMutability": "nonpayable",
      "type": "function"
    },
    {
      "inputs": [
        {
          "internalType": "uint256",
          "name": "",
          "type": "uint256"
        }
      ],
      "name": "strategies",
      "outputs": [
        {
          "internalType": "uint256",
          "name": "id",
          "type": "uint256"
        },
        {
          "internalType": "uint256",
          "name": "behaviorId",
          "type": "uint256"
        },
        {
          "internalType": "string",
          "name": "name",
          "type": "string"
        },
        {
          "internalType": "uint256",
          "name": "totalUses",
          "type": "uint256"
        },
        {
          "internalType": "uint256",
          "name": "successCount",
          "type": "uint256"
        },
        {
          "internalType": "uint256",
          "name": "avgPerformance",
          "type": "uint256"
        },
        {
          "internalType": "bool",
          "name": "isActive",
          "type": "bool"
        }
      ],
      "stateMutability": "view",
      "type": "function"
    },
    {
      "inputs": [],
      "name": "strategyCount",
      "outputs": [
        {
          "internalType": "uint256",
          "name": "",
          "type": "uint256"
        }
      ],
      "stateMutability": "view",
      "type": "function"
    },
    {
      "inputs": [
        {
          "internalType": "address",
          "name": "newOwner",
          "type": "address"
        }
      ],
      "name": "transferOwnership",
      "outputs": [],
      "stateMutability": "nonpayable",
      "type": "function"
    }
  ],
  "bytecode": "0x6080806040523461007a5733156100645760008054336001600160a01b03198216811783556040519290916001600160a01b0316907f8be0079c531659141344cd1fd0a4f28419497f9722a3daafe3b4186f6b6457e09080a3610b6490816100808239f35b631e4fbdf760e01b815260006004820152602490fd5b600080fdfe6080806040526004908136101561001557600080fd5b60003560e01c908163029f10021461056e5750806322068b441461055057806344f9203d146103dc578063715018a61461035e5780638da5cb5b1461032a578063a6a3d154146102e3578063d574ea3d146101455763f2fde38b1461007957600080fd5b346101405760206003193601126101405780359073ffffffffffffffffffffffffffffffffffffffff90818316809303610140576100b5610a81565b821561010f5750600054827fffffffffffffffffffffffff0000000000000000000000000000000000000000821617600055167f8be0079c531659141344cd1fd0a4f28419497f9722a3daafe3b4186f6b6457e0600080a3005b6024906000604051917f1e4fbdf7000000000000000000000000000000000000000000000000000000008352820152fd5b600080fd5b503461014057602090816003193601126101405780356000526001808352604060002092835493828101549160028201604051809560009083549361018985610a2e565b948585528683821691826000146102a2575050600114610263575b50506101b99250979594979392930384610977565b60038101549481015460ff60066005840154930154169260405197889687528187015260e060408701528451948560e088015260005b86811061024b57505050917fffffffffffffffffffffffffffffffffffffffffffffffffffffffffffffffe09391601f9361010097600089868a0101526060880152608087015260a0860152151560c085015201168101030190f35b8181018301518a8201610100015289975082016101ef565b85925060005281600020906000915b85831061028a5750506101b9935082010138806101a4565b8054838b018501528994508693909201918101610272565b915093506101b99592507fffffffffffffffffffffffffffffffffffffffffffffffffffffffffffffff0091501682840152151560051b82010138806101a4565b50346101405760406003193601126101405760243590356000526002602052604060002080548210156101405760209161031c916109e7565b90546040519160031b1c8152f35b3461014057600060031936011261014057602073ffffffffffffffffffffffffffffffffffffffff60005416604051908152f35b3461014057600060031936011261014057610377610a81565b600073ffffffffffffffffffffffffffffffffffffffff81547fffffffffffffffffffffffff000000000000000000000000000000000000000081168355167f8be0079c531659141344cd1fd0a4f28419497f9722a3daafe3b4186f6b6457e08280a3005b5034610140576060600319360112610140578035906024358015159182820361014057604435918460005260016020526005604060002060038101926104228454610ad2565b80945561053c575b01918254907fffffffffffffffffffffffffffffffffffffffffffffffffffffffffffffffff83019183831161050e578281029281840414901517156104e0578482018092116104e05782156104b257500490556040805192835260208301919091527f4a25f0d227db93989edc4c4da80cec4a816775830c9fada2a2fde7eb12409aa991a2005b6012907f4e487b71000000000000000000000000000000000000000000000000000000006000525260246000fd5b6011907f4e487b71000000000000000000000000000000000000000000000000000000006000525260246000fd5b6011827f4e487b71000000000000000000000000000000000000000000000000000000006000525260246000fd5b8381016105498154610ad2565b905561042a565b34610140576000600319360112610140576020600354604051908152f35b9050346101405760406003193601126101405767ffffffffffffffff602435818111610140573660238201121561014057808401359082821161091b576105dd60207fffffffffffffffffffffffffffffffffffffffffffffffffffffffffffffffe0601f8501160185610977565b818452366024838301011161014057816000926024602093018387013784010152610609600354610ad2565b90816003556040519260e084018481108382111761094957604052828452602084019285358452604085019182526000606086015260006080860152600060a0860152600160c086015260005260016020526040600020928451845551600184015551805191821161091b576106826002840154610a2e565b601f81116108d4575b50602090601f831160011461080557918060c094926006946000926107fa575b50507fffffffffffffffffffffffffffffffffffffffffffffffffffffffffffffffff8260011b9260031b1c19161760028201555b6060840151600382015560808401518582015560a0840151600582015501910151151560ff7fffffffffffffffffffffffffffffffffffffffffffffffffffffffffffffff00835416911617905580356000526002602052604060002090600354825492680100000000000000008410156107cc57836107679160016020960181556109e7565b7fffffffffffffffffffffffffffffffffffffffffffffffffffffffffffffffff829392549160031b92831b921b19161790556003546040519135817f42ac43160b322667eee0517399cdb4399ad5923620a7a7f0db028593cafc1b0d600080a38152f35b6041837f4e487b71000000000000000000000000000000000000000000000000000000006000525260246000fd5b0151905038806106ab565b906002840160005260206000209160005b7fffffffffffffffffffffffffffffffffffffffffffffffffffffffffffffffe0851681106108bc57509260c09492600192600695837fffffffffffffffffffffffffffffffffffffffffffffffffffffffffffffffe0811610610885575b505050811b0160028201556106e0565b01517fffffffffffffffffffffffffffffffffffffffffffffffffffffffffffffffff60f88460031b161c19169055388080610875565b91926020600181928685015181550194019201610816565b600284016000526020600020601f840160051c810160208510610914575b601f830160051c8201811061090857505061068b565b600081556001016108f2565b50806108f2565b6041857f4e487b71000000000000000000000000000000000000000000000000000000006000525260246000fd5b6041867f4e487b71000000000000000000000000000000000000000000000000000000006000525260246000fd5b90601f7fffffffffffffffffffffffffffffffffffffffffffffffffffffffffffffffe0910116810190811067ffffffffffffffff8211176109b857604052565b7f4e487b7100000000000000000000000000000000000000000000000000000000600052604160045260246000fd5b80548210156109ff5760005260206000200190600090565b7f4e487b7100000000000000000000000000000000000000000000000000000000600052603260045260246000fd5b90600182811c92168015610a77575b6020831014610a4857565b7f4e487b7100000000000000000000000000000000000000000000000000000000600052602260045260246000fd5b91607f1691610a3d565b73ffffffffffffffffffffffffffffffffffffffff600054163303610aa257565b60246040517f118cdaa7000000000000000000000000000000000000000000000000000000008152336004820152fd5b7fffffffffffffffffffffffffffffffffffffffffffffffffffffffffffffffff8114610aff5760010190565b7f4e487b7100000000000000000000000000000000000000000000000000000000600052601160045260246000fdfea264697066735822122012a9cb1346e09d67195e03c28f69245b1213a28391dbf0cd6ffc438a304321b364736f6c63430008140033",
  "linkReferences": {},
  "deployedLinkReferences": {}
}