{
  "_format": "hh-sol-artifact-1",
  "contractName": "OANLiquidityPool",
  "sourceName": "contracts/liquidity/OANLiquidityPool.sol",
  "abi": [
    {
      "inputs": [],
      "stateMutability": "nonpayable",
      "type": "constructor"
    },
    {
      "inputs": [
        {
          "internalType": "address",
          "name": "owner",
          "type": "address"
        }
      ],
      "name": "OwnableInvalidOwner",
      "type": "error"
    },
    {
      "inputs": [
        {
          "internalType": "address",
          "name": "account",
          "type": "address"
        }
      ],
      "name": "OwnableUnauthorizedAccount",
      "type": "error"
    },
    {
      "inputs": [],
      "name": "ReentrancyGuardReentrantCall",
      "type": "error"
    },
    {
      "anonymous": false,
      "inputs": [
        {
          "indexed": true,
          "internalType": "address",
          "name": "provider",
          "type": "address"
        },
        {
          "indexed": false,
          "internalType": "uint256",
          "name": "ethAmount",
          "type": "uint256"
        },
        {
          "indexed": false,
          "internalType": "uint256",
          "name": "tokenAmount",
          "type": "uint256"
        },
        {
          "indexed": false,
          "internalType": "uint256",
          "name": "shares",
          "type": "uint256"
        }
      ],
      "name": "LiquidityAdded",
      "type": "event"
    },
    {
      "anonymous": false,
      "inputs": [
        {
          "indexed": true,
          "internalType": "address",
          "name": "provider",
          "type": "address"
        },
        {
          "indexed": false,
          "internalType": "uint256",
          "name": "ethAmount",
          "type": "uint256"
        },
        {
          "indexed": false,
          "internalType": "uint256",
          "name": "tokenAmount",
          "type": "uint256"
        }
      ],
      "name": "LiquidityRemoved",
      "type": "event"
    },
    {
      "anonymous": false,
      "inputs": [
        {
          "indexed": true,
          "internalType": "address",
          "name": "previousOwner",
          "type": "address"
        },
        {
          "indexed": true,
          "internalType": "address",
          "name": "newOwner",
          "type": "address"
        }
      ],
      "name": "OwnershipTransferred",
      "type": "event"
    },
    {
      "anonymous": false,
      "inputs": [
        {
          "indexed": true,
          "internalType": "address",
          "name": "user",
          "type": "address"
        },
        {
          "indexed": false,
          "internalType": "uint256",
          "name": "amountIn",
          "type": "uint256"
        },
        {
          "indexed": false,
          "internalType": "uint256",
          "name": "amountOut",
          "type": "uint256"
        },
        {
          "indexed": false,
          "internalType": "bool",
          "name": "ethToToken",
          "type": "bool"
        }
      ],
      "name": "Swap",
      "type": "event"
    },
    {
      "inputs": [],
      "name": "FEE_DENOMINATOR",
      "outputs": [
        {
          "internalType": "uint256",
          "name": "",
          "type": "uint256"
        }
      ],
      "stateMutability": "view",
      "type": "function"
    },
    {
      "inputs": [
        {
          "internalType": "uint256",
          "name": "tokenAmount",
          "type": "uint256"
        }
      ],
      "name": "addLiquidity",
      "outputs": [],
      "stateMutability": "payable",
      "type": "function"
    },
    {
      "inputs": [
        {
          "internalType": "uint256",
          "name": "tokenAmount",
          "type": "uint256"
        }
      ],
      "name": "getEthForTokens",
      "outputs": [
        {
          "internalType": "uint256",
          "name": "",
          "type": "uint256"
        }
      ],
      "stateMutability": "view",
      "type": "function"
    },
    {
      "inputs": [],
      "name": "getPoolStats",
      "outputs": [
        {
          "internalType": "uint256",
          "name": "eth",
          "type": "uint256"
        },
        {
          "internalType": "uint256",
          "name": "tokens",
          "type": "uint256"
        },
        {
          "internalType": "uint256",
          "name": "shares",
          "type": "uint256"
        },
        {
          "internalType": "uint256",
          "name": "providers",
          "type": "uint256"
        }
      ],
      "stateMutability": "view",
      "type": "function"
    },
    {
      "inputs": [
        {
          "internalType": "uint256",
          "name": "ethAmount",
          "type": "uint256"
        }
      ],
      "name": "getTokensForEth",
      "outputs": [
        {
          "internalType": "uint256",
          "name": "",
          "type": "uint256"
        }
      ],
      "stateMutability": "view",
      "type": "function"
    },
    {
      "inputs": [],
      "name": "owner",
      "outputs": [
        {
          "internalType": "address",
          "name": "",
          "type": "address"
        }
      ],
      "stateMutability": "view",
      "type": "function"
    },
    {
      "inputs": [
        {
          "internalType": "address",
          "name": "",
          "type": "address"
        }
      ],
      "name": "providers",
      "outputs": [
        {
          "internalType": "uint256",
          "name": "ethAmount",
          "type": "uint256"
        },
        {
          "internalType": "uint256",
          "name": "tokenAmount",
          "type": "uint256"
        },
        {
          "internalType": "uint256",
          "name": "shares",
          "type": "uint256"
        },
        {
          "internalType": "uint256",
          "name": "depositedAt",
          "type": "uint256"
        }
      ],
      "stateMutability": "view",
      "type": "function"
    },
    {
      "inputs": [
        {
          "internalType": "uint256",
          "name": "shares",
          "type": "uint256"
        }
      ],
      "name": "removeLiquidity",
      "outputs": [],
      "stateMutability": "nonpayable",
      "type": "function"
    },
    {
      "inputs": [],
      "name": "renounceOwnership",
      "outputs": [],
      "stateMutability": "nonpayable",
      "type": "function"
    },
    {
      "inputs": [],
      "name": "swapEthForTokens",
      "outputs": [],
      "stateMutability": "payable",
      "type": "function"
    },
    {
      "inputs": [],
      "name": "swapFee",
      "outputs": [
        {
          "internalType": "uint256",
          "name": "",
          "type": "uint256"
        }
      ],
      "stateMutability": "view",
      "type": "function"
    },
    {
      "inputs": [],
      "name": "totalEth",
      "outputs": [
        {
          "internalType": "uint256",
          "name": "",
          "type": "uint256"
        }
      ],
      "stateMutability": "view",
      "type": "function"
    },
    {
      "inputs": [],
      "name": "totalProviders",
      "outputs": [
        {
          "internalType": "uint256",
          "name": "",
          "type": "uint256"
        }
      ],
      "stateMutability": "view",
      "type": "function"
    },
    {
      "inputs": [],
      "name": "totalShares",
      "outputs": [
        {
          "internalType": "uint256",
          "name": "",
          "type": "uint256"
        }
      ],
      "stateMutability": "view",
      "type": "function"
    },
    {
      "inputs": [],
      "name": "totalTokens",
      "outputs": [
        {
          "internalType": "uint256",
          "name": "",
          "type": "uint256"
        }
      ],
      "stateMutability": "view",
      "type": "function"
    },
    {
      "inputs": [
        {
          "internalType": "address",
          "name": "newOwner",
          "type": "address"
        }
      ],
      "name": "transferOwnership",
      "outputs": [],
      "stateMutability": "nonpayable",
      "type": "function"
    },
    {
      "stateMutability": "payable",
      "type": "receive"
    }
  ],
  "bytecode": "0x6080806040523461008357331561006d5760008054336001600160a01b03198216811783556040519290916001600160a01b0316907f8be0079c531659141344cd1fd0a4f28419497f9722a3daafe3b4186f6b6457e09080a360018055601e600755610acf90816100898239f35b631e4fbdf760e01b815260006004820152602490fd5b600080fdfe6080604081815260049081361015610022575b505050361561002057600080fd5b005b600092833560e01c9081630787bc271461082a575080633a98ef391461080b5780633c3c9c23146107ec57806351c6590a146105f157806354cf2aeb146105d25780636cd64ccb146105b2578063715018a6146105345780637e1c0c09146105165780638da5cb5b146104e357806396616b1f146104c45780639c8f9f23146102ce578063b14e055e14610233578063bbb85188146101f2578063d73792a9146101d1578063dfe100d4146101a75763f2fde38b0361001257346101a35760206003193601126101a35781359173ffffffffffffffffffffffffffffffffffffffff9182841680940361019f5761011761089c565b83156101705750508254827fffffffffffffffffffffffff00000000000000000000000000000000000000008216178455167f8be0079c531659141344cd1fd0a4f28419497f9722a3daafe3b4186f6b6457e08380a380f35b908460249251917f1e4fbdf7000000000000000000000000000000000000000000000000000000008352820152fd5b8480fd5b8280fd5b5082346101ce5760206003193601126101ce57506101c760209235610a22565b9051908152f35b80fd5b8382346101ee57816003193601126101ee57602090516127108152f35b5080fd5b5091346101ce57806003193601126101ce575060035490546005546006549351928352602083019190915260408201526060810191909152608090f35b0390f35b50826003193601126101a35760019061024a6109da565b6102553415156108ed565b61027661027161271061026a60075434610952565b0434610a15565b610a22565b92610283346003546109cd565b600355610291848254610a15565b905580519234845260208401528201527fcc65e4d9060ece2ecf63011ac580550b04c8daeba63fac4dfe8669353cd8885960603392a26001805580f35b5090346101a357602091826003193601126104c0578135916102ee6109da565b82156104655733855260029081855283828488200154106104095761038961031860035486610952565b9461033a6103296005548098610994565b96610335855484610952565b610994565b9333895280885280868a2001610351838254610a15565b9055338952808852858920610367888254610a15565b9055338952875260018589200161037f858254610a15565b9055600554610a15565b60055561039884600354610a15565b6003556103a6828254610a15565b905584808480156103ff575b8280929181923390f1156103f5577f96cd817c6329656790ef8fba7675405193677d39619571282f5e21f3a98cd059929382519485528401523392a26001805580f35b81513d86823e3d90fd5b6108fc91506103b2565b606490858451917f08c379a0000000000000000000000000000000000000000000000000000000008352820152601360248201527f496e73756666696369656e7420736861726573000000000000000000000000006044820152fd5b8360649251917f08c379a0000000000000000000000000000000000000000000000000000000008352820152600e60248201527f496e76616c6964207368617265730000000000000000000000000000000000006044820152fd5b8380fd5b8382346101ee57816003193601126101ee576020906006549051908152f35b8382346101ee57816003193601126101ee5773ffffffffffffffffffffffffffffffffffffffff60209254169051908152f35b5090346101a357826003193601126101a35760209250549051908152f35b83346101ce57806003193601126101ce5761054d61089c565b8073ffffffffffffffffffffffffffffffffffffffff81547fffffffffffffffffffffffff000000000000000000000000000000000000000081168355167f8be0079c531659141344cd1fd0a4f28419497f9722a3daafe3b4186f6b6457e08280a380f35b5082346101ce5760206003193601126101ce57506101c760209235610a65565b8382346101ee57816003193601126101ee576020906007549051908152f35b5090602091826003193601126104c057813561060b6109da565b6106163415156108ed565b8015610790576005548061074e575034925b33865283600280875284882061063f3482546109cd565b90553388528087526001858920016106588582546109cd565b905533885280875280858920016106708382546109cd565b90553388528087528488204260038201550154146106ed575b610695346003546109cd565b6003556106a38282546109cd565b90556106b1836005546109cd565b6005558151933485528401528201527f64b83944e79c3ce8d4c297411de637c3e102d064677aac0c163976ebdcd6f50e60603392a26001805580f35b6006547fffffffffffffffffffffffffffffffffffffffffffffffffffffffffffffffff811461072257600101600655610689565b6024876011847f4e487b7100000000000000000000000000000000000000000000000000000000835252fd5b61077961077161076a6107618434610952565b60035490610994565b9284610952565b855490610994565b8082101561078957505b92610628565b9050610783565b509160649251917f08c379a0000000000000000000000000000000000000000000000000000000008352820152601060248201527f4d7573742073656e6420746f6b656e73000000000000000000000000000000006044820152fd5b8382346101ee57816003193601126101ee576020906003549051908152f35b8382346101ee57816003193601126101ee576020906005549051908152f35b929050346104c05760206003193601126104c0573573ffffffffffffffffffffffffffffffffffffffff81168091036104c057908361022f9284955260026020522080549060018101546003600283015492015492859094939260609260808301968352602083015260408201520152565b73ffffffffffffffffffffffffffffffffffffffff6000541633036108bd57565b60246040517f118cdaa7000000000000000000000000000000000000000000000000000000008152336004820152fd5b156108f457565b60646040517f08c379a000000000000000000000000000000000000000000000000000000000815260206004820152600d60248201527f4d7573742073656e6420455448000000000000000000000000000000000000006044820152fd5b8181029291811591840414171561096557565b7f4e487b7100000000000000000000000000000000000000000000000000000000600052601160045260246000fd5b811561099e570490565b7f4e487b7100000000000000000000000000000000000000000000000000000000600052601260045260246000fd5b9190820180921161096557565b6002600154146109eb576002600155565b60046040517f3ee5aeb5000000000000000000000000000000000000000000000000000000008152fd5b9190820391821161096557565b60035480158015610a5b575b610a5457610a4b610a5192610a4560045482610952565b926109cd565b90610994565b90565b5050600090565b5060045415610a2e565b6003549081158015610a8f575b610a5457610a4b610a86610a519383610952565b916004546109cd565b5060045415610a7256fea2646970667358221220222d8d0d6666e377fc5c4bcbe6f4a40ce7c6251edae206fbcc0d961354b2a24e64736f6c63430008140033",
  "linkReferences": {},
  "deployedLinkReferences": {}
}