{
  "_format": "hh-sol-artifact-1",
  "contractName": "TrustDynamics",
  "sourceName": "contracts/layer3/psychology/TrustDynamics.sol",
  "abi": [
    {
      "inputs": [],
      "stateMutability": "nonpayable",
      "type": "constructor"
    },
    {
      "inputs": [
        {
          "internalType": "address",
          "name": "owner",
          "type": "address"
        }
      ],
      "name": "OwnableInvalidOwner",
      "type": "error"
    },
    {
      "inputs": [
        {
          "internalType": "address",
          "name": "account",
          "type": "address"
        }
      ],
      "name": "OwnableUnauthorizedAccount",
      "type": "error"
    },
    {
      "anonymous": false,
      "inputs": [
        {
          "indexed": true,
          "internalType": "uint256",
          "name": "betrayer",
          "type": "uint256"
        },
        {
          "indexed": true,
          "internalType": "uint256",
          "name": "victim",
          "type": "uint256"
        },
        {
          "indexed": false,
          "internalType": "uint256",
          "name": "severity",
          "type": "uint256"
        }
      ],
      "name": "Betrayal",
      "type": "event"
    },
    {
      "anonymous": false,
      "inputs": [
        {
          "indexed": true,
          "internalType": "address",
          "name": "previousOwner",
          "type": "address"
        },
        {
          "indexed": true,
          "internalType": "address",
          "name": "newOwner",
          "type": "address"
        }
      ],
      "name": "OwnershipTransferred",
      "type": "event"
    },
    {
      "anonymous": false,
      "inputs": [
        {
          "indexed": true,
          "internalType": "uint256",
          "name": "entity1",
          "type": "uint256"
        },
        {
          "indexed": true,
          "internalType": "uint256",
          "name": "entity2",
          "type": "uint256"
        },
        {
          "indexed": false,
          "internalType": "uint256",
          "name": "newTrustScore",
          "type": "uint256"
        }
      ],
      "name": "TrustBuilt",
      "type": "event"
    },
    {
      "anonymous": false,
      "inputs": [
        {
          "indexed": true,
          "internalType": "uint256",
          "name": "entity1",
          "type": "uint256"
        },
        {
          "indexed": true,
          "internalType": "uint256",
          "name": "entity2",
          "type": "uint256"
        }
      ],
      "name": "TrustRestored",
      "type": "event"
    },
    {
      "inputs": [
        {
          "internalType": "uint256",
          "name": "entity1",
          "type": "uint256"
        },
        {
          "internalType": "uint256",
          "name": "entity2",
          "type": "uint256"
        },
        {
          "internalType": "uint256",
          "name": "interactionQuality",
          "type": "uint256"
        }
      ],
      "name": "buildTrust",
      "outputs": [],
      "stateMutability": "nonpayable",
      "type": "function"
    },
    {
      "inputs": [
        {
          "internalType": "uint256",
          "name": "entityId",
          "type": "uint256"
        }
      ],
      "name": "getTrustNetwork",
      "outputs": [
        {
          "internalType": "uint256[]",
          "name": "",
          "type": "uint256[]"
        }
      ],
      "stateMutability": "view",
      "type": "function"
    },
    {
      "inputs": [
        {
          "internalType": "uint256",
          "name": "entity1",
          "type": "uint256"
        },
        {
          "internalType": "uint256",
          "name": "entity2",
          "type": "uint256"
        }
      ],
      "name": "getTrustScore",
      "outputs": [
        {
          "internalType": "uint256",
          "name": "",
          "type": "uint256"
        }
      ],
      "stateMutability": "view",
      "type": "function"
    },
    {
      "inputs": [],
      "name": "owner",
      "outputs": [
        {
          "internalType": "address",
          "name": "",
          "type": "address"
        }
      ],
      "stateMutability": "view",
      "type": "function"
    },
    {
      "inputs": [
        {
          "internalType": "uint256",
          "name": "betrayer",
          "type": "uint256"
        },
        {
          "internalType": "uint256",
          "name": "victim",
          "type": "uint256"
        },
        {
          "internalType": "uint256",
          "name": "severity",
          "type": "uint256"
        }
      ],
      "name": "recordBetrayal",
      "outputs": [],
      "stateMutability": "nonpayable",
      "type": "function"
    },
    {
      "inputs": [],
      "name": "renounceOwnership",
      "outputs": [],
      "stateMutability": "nonpayable",
      "type": "function"
    },
    {
      "inputs": [
        {
          "internalType": "address",
          "name": "newOwner",
          "type": "address"
        }
      ],
      "name": "transferOwnership",
      "outputs": [],
      "stateMutability": "nonpayable",
      "type": "function"
    },
    {
      "inputs": [
        {
          "internalType": "uint256",
          "name": "",
          "type": "uint256"
        }
      ],
      "name": "trustNetworks",
      "outputs": [
        {
          "internalType": "uint256",
          "name": "entityId",
          "type": "uint256"
        },
        {
          "internalType": "uint256",
          "name": "totalTrustedEntities",
          "type": "uint256"
        },
        {
          "internalType": "uint256",
          "name": "totalTrustScore",
          "type": "uint256"
        },
        {
          "internalType": "uint256",
          "name": "averageTrust",
          "type": "uint256"
        }
      ],
      "stateMutability": "view",
      "type": "function"
    },
    {
      "inputs": [
        {
          "internalType": "uint256",
          "name": "",
          "type": "uint256"
        },
        {
          "internalType": "uint256",
          "name": "",
          "type": "uint256"
        }
      ],
      "name": "trustRelationships",
      "outputs": [
        {
          "internalType": "uint256",
          "name": "trustScore",
          "type": "uint256"
        },
        {
          "internalType": "uint256",
          "name": "interactions",
          "type": "uint256"
        },
        {
          "internalType": "uint256",
          "name": "positiveInteractions",
          "type": "uint256"
        },
        {
          "internalType": "uint256",
          "name": "betrayals",
          "type": "uint256"
        },
        {
          "internalType": "uint256",
          "name": "lastInteraction",
          "type": "uint256"
        },
        {
          "internalType": "bool",
          "name": "isActive",
          "type": "bool"
        }
      ],
      "stateMutability": "view",
      "type": "function"
    },
    {
      "inputs": [
        {
          "internalType": "uint256",
          "name": "",
          "type": "uint256"
        },
        {
          "internalType": "uint256",
          "name": "",
          "type": "uint256"
        }
      ],
      "name": "trustedEntities",
      "outputs": [
        {
          "internalType": "uint256",
          "name": "",
          "type": "uint256"
        }
      ],
      "stateMutability": "view",
      "type": "function"
    }
  ],
  "bytecode": "0x6080806040523461007a5733156100645760008054336001600160a01b03198216811783556040519290916001600160a01b0316907f8be0079c531659141344cd1fd0a4f28419497f9722a3daafe3b4186f6b6457e09080a361093990816100808239f35b631e4fbdf760e01b815260006004820152602490fd5b600080fdfe608060408181526004908136101561001657600080fd5b600092833560e01c908163219680ab1461065f575080632660e03a146105d45780633bd472bc146104d057806343d569d1146102e9578063715018a61461026b578063739342b9146102275780638ab55300146101fb5780638da5cb5b146101c4578063b5265aa61461015e5763f2fde38b1461009257600080fd5b3461015a57602060031936011261015a5781359173ffffffffffffffffffffffffffffffffffffffff91828416809403610156576100ce610725565b83156101275750508254827fffffffffffffffffffffffff00000000000000000000000000000000000000008216178455167f8be0079c531659141344cd1fd0a4f28419497f9722a3daafe3b4186f6b6457e08380a380f35b908460249251917f1e4fbdf7000000000000000000000000000000000000000000000000000000008352820152fd5b8480fd5b8280fd5b503461015a578060c093610171366106c8565b90825260016020528282209082526020522080549260018201549260028301549060ff600560038601549486015495015416948151968752602087015285015260608401526080830152151560a0820152f35b8382346101f757816003193601126101f75773ffffffffffffffffffffffffffffffffffffffff60209254169051908152f35b5080fd5b8382346101f7578060209261020f366106c8565b90825260018552828220908252845220549051908152f35b8382346101f757610237366106c8565b929081526003602052818120908154841015610268575060209261025a916106de565b90549060031b1c9051908152f35b80fd5b8334610268578060031936011261026857610284610725565b8073ffffffffffffffffffffffffffffffffffffffff81547fffffffffffffffffffffffff000000000000000000000000000000000000000081168355167f8be0079c531659141344cd1fd0a4f28419497f9722a3daafe3b4186f6b6457e08280a380f35b508290346101f7576102fa366106a9565b90828594939452603260209260018452848720838852845284872090600182016103248154610776565b9055828111156104a55761034e600a606492600285016103448154610776565b90550483546107df565b8083551161049c575b42888201556005810160017fffffffffffffffffffffffffffffffffffffffffffffffffffffffffffffff008254161790555482867f9e059b299570bc58fbe98e69e9a88752d5891ec9830074ebf278d08830e5f601868851858152a31180610482575b6103cd575b846103ca856107ec565b80f35b8385526003825282852080549068010000000000000000821015610456576103ca96975091610407826002946001809897950181556106de565b7fffffffffffffffffffffffffffffffffffffffffffffffffffffffffffffffff829392549160031b92831b921b19161790558487525284200161044b8154610776565b9055829184806103c0565b60248760418a7f4e487b7100000000000000000000000000000000000000000000000000000000835252fd5b5083855260038252610496818487206108c1565b156103bb565b60648155610357565b600a825491048091116000146104c7576104c09082546107d2565b8155610357565b50868155610357565b508290346101f75760208060031936011261015a578335835260038152818320928251928380948487549182815201908197855285852090855b878282106105bd575050505003601f017fffffffffffffffffffffffffffffffffffffffffffffffffffffffffffffffe01684019567ffffffffffffffff871185881017610591575085815282865292518583018190528594938501939290915b82811061057a57505050500390f35b83518552869550938101939281019260010161056b565b8260416024927f4e487b7100000000000000000000000000000000000000000000000000000000835252fd5b83548552899550909301926001928301920161050a565b8382346101f7577faec1f137b2c4d2e9125716270ee14a4480ac95b301b5f0dee4fbc26b1abce7cb6103ca91602061060b366106a9565b81959293919485895260018352808920858a528352808920600381016106318154610776565b90558983825411600014610658575061064b8382546107d2565b90555b51908152a36107ec565b905561064e565b929050346106a55760206003193601126106a557608093829135815260026020522080549160018201546003600284015493015493855260208501528301526060820152f35b8380fd5b60031960609101126106c357600435906024359060443590565b600080fd5b60031960409101126106c3576004359060243590565b80548210156106f65760005260206000200190600090565b7f4e487b7100000000000000000000000000000000000000000000000000000000600052603260045260246000fd5b73ffffffffffffffffffffffffffffffffffffffff60005416330361074657565b60246040517f118cdaa7000000000000000000000000000000000000000000000000000000008152336004820152fd5b7fffffffffffffffffffffffffffffffffffffffffffffffffffffffffffffffff81146107a35760010190565b7f4e487b7100000000000000000000000000000000000000000000000000000000600052601160045260246000fd5b919082039182116107a357565b919082018092116107a357565b6000908082526020916002835260409182822093829583965b838552600380845286862054891015610856576108509161084a9160018652888820908087526108378c8b8b206106de565b9054911b1c8852855287872054906107df565b97610776565b96610805565b50939492600392919750846002880155855252822054918215801561087d575b5050505050565b610894575090600391049101553880808080610876565b807f4e487b7100000000000000000000000000000000000000000000000000000000602492526012600452fd5b9060005b82548110156108fb57816108d982856106de565b90549060031b1c146108f3576108ee90610776565b6108c5565b505050600190565b50505060009056fea264697066735822122039c493a89aecf92e51bc56412e309c0522a98b8432b7be2afe5df9c2eab2cabd64736f6c63430008140033",
  "linkReferences": {},
  "deployedLinkReferences": {}
}