{
  "_format": "hh-sol-artifact-1",
  "contractName": "ResaleRoyalties",
  "sourceName": "contracts/layer4/rights/ResaleRoyalties.sol",
  "abi": [
    {
      "inputs": [],
      "stateMutability": "nonpayable",
      "type": "constructor"
    },
    {
      "inputs": [
        {
          "internalType": "address",
          "name": "owner",
          "type": "address"
        }
      ],
      "name": "OwnableInvalidOwner",
      "type": "error"
    },
    {
      "inputs": [
        {
          "internalType": "address",
          "name": "account",
          "type": "address"
        }
      ],
      "name": "OwnableUnauthorizedAccount",
      "type": "error"
    },
    {
      "inputs": [],
      "name": "ReentrancyGuardReentrantCall",
      "type": "error"
    },
    {
      "anonymous": false,
      "inputs": [
        {
          "indexed": true,
          "internalType": "address",
          "name": "previousOwner",
          "type": "address"
        },
        {
          "indexed": true,
          "internalType": "address",
          "name": "newOwner",
          "type": "address"
        }
      ],
      "name": "OwnershipTransferred",
      "type": "event"
    },
    {
      "inputs": [],
      "name": "MAX_ROYALTY_BPS",
      "outputs": [
        {
          "internalType": "uint256",
          "name": "",
          "type": "uint256"
        }
      ],
      "stateMutability": "view",
      "type": "function"
    },
    {
      "inputs": [
        {
          "internalType": "address",
          "name": "marketplace",
          "type": "address"
        },
        {
          "internalType": "bool",
          "name": "approved",
          "type": "bool"
        }
      ],
      "name": "approveMarketplace",
      "outputs": [],
      "stateMutability": "nonpayable",
      "type": "function"
    },
    {
      "inputs": [
        {
          "internalType": "address",
          "name": "",
          "type": "address"
        }
      ],
      "name": "approvedMarketplaces",
      "outputs": [
        {
          "internalType": "bool",
          "name": "",
          "type": "bool"
        }
      ],
      "stateMutability": "view",
      "type": "function"
    },
    {
      "inputs": [
        {
          "internalType": "uint256",
          "name": "assetId",
          "type": "uint256"
        },
        {
          "internalType": "uint256",
          "name": "royaltyBps",
          "type": "uint256"
        }
      ],
      "name": "configureRoyalty",
      "outputs": [],
      "stateMutability": "nonpayable",
      "type": "function"
    },
    {
      "inputs": [
        {
          "internalType": "address",
          "name": "",
          "type": "address"
        }
      ],
      "name": "creatorEarnings",
      "outputs": [
        {
          "internalType": "uint256",
          "name": "",
          "type": "uint256"
        }
      ],
      "stateMutability": "view",
      "type": "function"
    },
    {
      "inputs": [
        {
          "internalType": "address",
          "name": "creator",
          "type": "address"
        }
      ],
      "name": "getCreatorEarnings",
      "outputs": [
        {
          "internalType": "uint256",
          "name": "",
          "type": "uint256"
        }
      ],
      "stateMutability": "view",
      "type": "function"
    },
    {
      "inputs": [
        {
          "internalType": "uint256",
          "name": "assetId",
          "type": "uint256"
        }
      ],
      "name": "getRoyaltyConfig",
      "outputs": [
        {
          "internalType": "address",
          "name": "creator",
          "type": "address"
        },
        {
          "internalType": "uint256",
          "name": "royaltyBps",
          "type": "uint256"
        },
        {
          "internalType": "uint256",
          "name": "totalRoyaltiesCollected",
          "type": "uint256"
        },
        {
          "internalType": "uint256",
          "name": "totalSales",
          "type": "uint256"
        }
      ],
      "stateMutability": "view",
      "type": "function"
    },
    {
      "inputs": [],
      "name": "owner",
      "outputs": [
        {
          "internalType": "address",
          "name": "",
          "type": "address"
        }
      ],
      "stateMutability": "view",
      "type": "function"
    },
    {
      "inputs": [
        {
          "internalType": "uint256",
          "name": "assetId",
          "type": "uint256"
        },
        {
          "internalType": "address",
          "name": "seller",
          "type": "address"
        },
        {
          "internalType": "address",
          "name": "buyer",
          "type": "address"
        },
        {
          "internalType": "uint256",
          "name": "price",
          "type": "uint256"
        }
      ],
      "name": "recordSale",
      "outputs": [
        {
          "internalType": "uint256",
          "name": "",
          "type": "uint256"
        }
      ],
      "stateMutability": "payable",
      "type": "function"
    },
    {
      "inputs": [],
      "name": "renounceOwnership",
      "outputs": [],
      "stateMutability": "nonpayable",
      "type": "function"
    },
    {
      "inputs": [
        {
          "internalType": "uint256",
          "name": "",
          "type": "uint256"
        }
      ],
      "name": "royaltyConfigs",
      "outputs": [
        {
          "internalType": "uint256",
          "name": "assetId",
          "type": "uint256"
        },
        {
          "internalType": "address",
          "name": "creator",
          "type": "address"
        },
        {
          "internalType": "uint256",
          "name": "royaltyBps",
          "type": "uint256"
        },
        {
          "internalType": "uint256",
          "name": "totalRoyaltiesCollected",
          "type": "uint256"
        },
        {
          "internalType": "uint256",
          "name": "totalSales",
          "type": "uint256"
        }
      ],
      "stateMutability": "view",
      "type": "function"
    },
    {
      "inputs": [],
      "name": "saleCount",
      "outputs": [
        {
          "internalType": "uint256",
          "name": "",
          "type": "uint256"
        }
      ],
      "stateMutability": "view",
      "type": "function"
    },
    {
      "inputs": [
        {
          "internalType": "uint256",
          "name": "",
          "type": "uint256"
        },
        {
          "internalType": "uint256",
          "name": "",
          "type": "uint256"
        }
      ],
      "name": "salesHistory",
      "outputs": [
        {
          "internalType": "uint256",
          "name": "saleId",
          "type": "uint256"
        },
        {
          "internalType": "uint256",
          "name": "assetId",
          "type": "uint256"
        },
        {
          "internalType": "address",
          "name": "seller",
          "type": "address"
        },
        {
          "internalType": "address",
          "name": "buyer",
          "type": "address"
        },
        {
          "internalType": "uint256",
          "name": "price",
          "type": "uint256"
        },
        {
          "internalType": "uint256",
          "name": "royaltyPaid",
          "type": "uint256"
        },
        {
          "internalType": "uint256",
          "name": "timestamp",
          "type": "uint256"
        }
      ],
      "stateMutability": "view",
      "type": "function"
    },
    {
      "inputs": [
        {
          "internalType": "address",
          "name": "newOwner",
          "type": "address"
        }
      ],
      "name": "transferOwnership",
      "outputs": [],
      "stateMutability": "nonpayable",
      "type": "function"
    }
  ],
  "bytecode": "0x608060405234801561001057600080fd5b506001600055338061003c57604051631e4fbdf760e01b81526000600482015260240160405180910390fd5b6100458161004b565b5061009d565b600180546001600160a01b038381166001600160a01b0319831681179093556040519116919082907f8be0079c531659141344cd1fd0a4f28419497f9722a3daafe3b4186f6b6457e090600090a35050565b610c84806100ac6000396000f3fe6080604052600436106100dd5760003560e01c806398d74c531161007f578063bb4dc10a11610059578063bb4dc10a146102ed578063de4bb1df1461030d578063f2fde38b146103af578063fa3c30a8146103cf57600080fd5b806398d74c5314610263578063a1e89aec146102c4578063a9814fcb146102da57600080fd5b806365be94c0116100bb57806365be94c01461016d578063715018a6146101f0578063804396af146102055780638da5cb5b1461023b57600080fd5b80633dca40e6146100e2578063543a9eb91461010b57806360aae7111461014b575b600080fd5b3480156100ee57600080fd5b506100f86103e881565b6040519081526020015b60405180910390f35b34801561011757600080fd5b5061013b610126366004610add565b60056020526000908152604090205460ff1681565b6040519015158152602001610102565b34801561015757600080fd5b5061016b610166366004610aff565b6103fc565b005b34801561017957600080fd5b506101c0610188366004610b21565b60026020819052600091825260409091208054600182015492820154600383015460049093015491936001600160a01b031692909185565b604080519586526001600160a01b039094166020860152928401919091526060830152608082015260a001610102565b3480156101fc57600080fd5b5061016b61051b565b34801561021157600080fd5b506100f8610220366004610add565b6001600160a01b031660009081526004602052604090205490565b34801561024757600080fd5b506001546040516001600160a01b039091168152602001610102565b34801561026f57600080fd5b5061028361027e366004610aff565b61052f565b6040805197885260208801969096526001600160a01b0394851695870195909552929091166060850152608084015260a083015260c082015260e001610102565b3480156102d057600080fd5b506100f860065481565b6100f86102e8366004610b3a565b610594565b3480156102f957600080fd5b5061016b610308366004610b7e565b6109a7565b34801561031957600080fd5b50610385610328366004610b21565b600090815260026020818152604092839020835160a0810185528154815260018201546001600160a01b03169281018390529281015493830184905260038101546060840181905260049091015460809093018390529093909190565b604080516001600160a01b0390951685526020850193909352918301526060820152608001610102565b3480156103bb57600080fd5b5061016b6103ca366004610add565b6109da565b3480156103db57600080fd5b506100f86103ea366004610add565b60046020526000908152604090205481565b6000828152600260205260409020600101546001600160a01b03161561045e5760405162461bcd60e51b8152602060048201526012602482015271105b1c9958591e4818dbdb999a59dd5c995960721b60448201526064015b60405180910390fd5b6103e88111156104a35760405162461bcd60e51b815260206004820152601060248201526f0a4def2c2d8e8f240e8dede40d0d2ced60831b6044820152606401610455565b6040805160a081018252838152336020808301918252828401948552600060608401818152608085018281529782526002928390529490209251835590516001830180546001600160a01b0319166001600160a01b039092169190911790559251928101929092555160038201559051600490910155565b610523610a18565b61052d6000610a45565b565b6003602052816000526040600020818154811061054b57600080fd5b600091825260209091206007909102018054600182015460028301546003840154600485015460058601546006909601549497509295506001600160a01b039182169491169287565b600061059e610a97565b3360009081526005602052604090205460ff166105fd5760405162461bcd60e51b815260206004820152601860248201527f556e617574686f72697a6564206d61726b6574706c61636500000000000000006044820152606401610455565b8134146106405760405162461bcd60e51b8152602060048201526011602482015270125b98dbdc9c9958dd081c185e5b595b9d607a1b6044820152606401610455565b600085815260026020526040902060018101546001600160a01b03166106995760405162461bcd60e51b815260206004820152600e60248201526d139bdd0818dbdb999a59dd5c995960921b6044820152606401610455565b60006127108260020154856106ae9190610bd0565b6106b89190610bed565b905060006106c68286610c0f565b6006805491925060006106d883610c22565b919050555060006006549050600360008a81526020019081526020016000206040518060e001604052808381526020018b81526020018a6001600160a01b03168152602001896001600160a01b03168152602001888152602001858152602001428152509080600181540180825580915050600190039060005260206000209060070201600090919091909150600082015181600001556020820151816001015560408201518160020160006101000a8154816001600160a01b0302191690836001600160a01b0316021790555060608201518160030160006101000a8154816001600160a01b0302191690836001600160a01b031602179055506080820151816004015560a0820151816005015560c082015181600601555050828460030160008282546108079190610c3b565b909155505060048401805490600061081e83610c22565b909155505060018401546001600160a01b03166000908152600460205260408120805485929061084f908490610c3b565b909155505060018401546040516000916001600160a01b03169085908381818185875af1925050503d80600081146108a3576040519150601f19603f3d011682016040523d82523d6000602084013e6108a8565b606091505b50509050806108f25760405162461bcd60e51b8152602060048201526016602482015275149bde585b1d1e481c185e5b595b9d0819985a5b195960521b6044820152606401610455565b6000896001600160a01b03168460405160006040518083038185875af1925050503d806000811461093f576040519150601f19603f3d011682016040523d82523d6000602084013e610944565b606091505b505090508061098d5760405162461bcd60e51b815260206004820152601560248201527414d95b1b195c881c185e5b595b9d0819985a5b1959605a1b6044820152606401610455565b509094505050505061099f6001600055565b949350505050565b6109af610a18565b6001600160a01b03919091166000908152600560205260409020805460ff1916911515919091179055565b6109e2610a18565b6001600160a01b038116610a0c57604051631e4fbdf760e01b815260006004820152602401610455565b610a1581610a45565b50565b6001546001600160a01b0316331461052d5760405163118cdaa760e01b8152336004820152602401610455565b600180546001600160a01b038381166001600160a01b0319831681179093556040519116919082907f8be0079c531659141344cd1fd0a4f28419497f9722a3daafe3b4186f6b6457e090600090a35050565b600260005403610aba57604051633ee5aeb560e01b815260040160405180910390fd5b6002600055565b80356001600160a01b0381168114610ad857600080fd5b919050565b600060208284031215610aef57600080fd5b610af882610ac1565b9392505050565b60008060408385031215610b1257600080fd5b50508035926020909101359150565b600060208284031215610b3357600080fd5b5035919050565b60008060008060808587031215610b5057600080fd5b84359350610b6060208601610ac1565b9250610b6e60408601610ac1565b9396929550929360600135925050565b60008060408385031215610b9157600080fd5b610b9a83610ac1565b915060208301358015158114610baf57600080fd5b809150509250929050565b634e487b7160e01b600052601160045260246000fd5b8082028115828204841417610be757610be7610bba565b92915050565b600082610c0a57634e487b7160e01b600052601260045260246000fd5b500490565b81810381811115610be757610be7610bba565b600060018201610c3457610c34610bba565b5060010190565b80820180821115610be757610be7610bba56fea264697066735822122068de87f97996e42168ea2e0310e6cbcf50b03e88e828f6c458802d24e3101f4464736f6c63430008140033",
  "linkReferences": {},
  "deployedLinkReferences": {}
}