{
  "_format": "hh-sol-artifact-1",
  "contractName": "ResaleRoyalties",
  "sourceName": "contracts/layer4/rights/ResaleRoyalties.sol",
  "abi": [
    {
      "inputs": [],
      "stateMutability": "nonpayable",
      "type": "constructor"
    },
    {
      "inputs": [
        {
          "internalType": "address",
          "name": "owner",
          "type": "address"
        }
      ],
      "name": "OwnableInvalidOwner",
      "type": "error"
    },
    {
      "inputs": [
        {
          "internalType": "address",
          "name": "account",
          "type": "address"
        }
      ],
      "name": "OwnableUnauthorizedAccount",
      "type": "error"
    },
    {
      "inputs": [],
      "name": "ReentrancyGuardReentrantCall",
      "type": "error"
    },
    {
      "anonymous": false,
      "inputs": [
        {
          "indexed": true,
          "internalType": "address",
          "name": "previousOwner",
          "type": "address"
        },
        {
          "indexed": true,
          "internalType": "address",
          "name": "newOwner",
          "type": "address"
        }
      ],
      "name": "OwnershipTransferred",
      "type": "event"
    },
    {
      "inputs": [],
      "name": "MAX_ROYALTY_BPS",
      "outputs": [
        {
          "internalType": "uint256",
          "name": "",
          "type": "uint256"
        }
      ],
      "stateMutability": "view",
      "type": "function"
    },
    {
      "inputs": [
        {
          "internalType": "address",
          "name": "marketplace",
          "type": "address"
        },
        {
          "internalType": "bool",
          "name": "approved",
          "type": "bool"
        }
      ],
      "name": "approveMarketplace",
      "outputs": [],
      "stateMutability": "nonpayable",
      "type": "function"
    },
    {
      "inputs": [
        {
          "internalType": "address",
          "name": "",
          "type": "address"
        }
      ],
      "name": "approvedMarketplaces",
      "outputs": [
        {
          "internalType": "bool",
          "name": "",
          "type": "bool"
        }
      ],
      "stateMutability": "view",
      "type": "function"
    },
    {
      "inputs": [
        {
          "internalType": "uint256",
          "name": "assetId",
          "type": "uint256"
        },
        {
          "internalType": "uint256",
          "name": "royaltyBps",
          "type": "uint256"
        }
      ],
      "name": "configureRoyalty",
      "outputs": [],
      "stateMutability": "nonpayable",
      "type": "function"
    },
    {
      "inputs": [
        {
          "internalType": "address",
          "name": "",
          "type": "address"
        }
      ],
      "name": "creatorEarnings",
      "outputs": [
        {
          "internalType": "uint256",
          "name": "",
          "type": "uint256"
        }
      ],
      "stateMutability": "view",
      "type": "function"
    },
    {
      "inputs": [
        {
          "internalType": "address",
          "name": "creator",
          "type": "address"
        }
      ],
      "name": "getCreatorEarnings",
      "outputs": [
        {
          "internalType": "uint256",
          "name": "",
          "type": "uint256"
        }
      ],
      "stateMutability": "view",
      "type": "function"
    },
    {
      "inputs": [
        {
          "internalType": "uint256",
          "name": "assetId",
          "type": "uint256"
        }
      ],
      "name": "getRoyaltyConfig",
      "outputs": [
        {
          "internalType": "address",
          "name": "creator",
          "type": "address"
        },
        {
          "internalType": "uint256",
          "name": "royaltyBps",
          "type": "uint256"
        },
        {
          "internalType": "uint256",
          "name": "totalRoyaltiesCollected",
          "type": "uint256"
        },
        {
          "internalType": "uint256",
          "name": "totalSales",
          "type": "uint256"
        }
      ],
      "stateMutability": "view",
      "type": "function"
    },
    {
      "inputs": [],
      "name": "owner",
      "outputs": [
        {
          "internalType": "address",
          "name": "",
          "type": "address"
        }
      ],
      "stateMutability": "view",
      "type": "function"
    },
    {
      "inputs": [
        {
          "internalType": "uint256",
          "name": "assetId",
          "type": "uint256"
        },
        {
          "internalType": "address",
          "name": "seller",
          "type": "address"
        },
        {
          "internalType": "address",
          "name": "buyer",
          "type": "address"
        },
        {
          "internalType": "uint256",
          "name": "price",
          "type": "uint256"
        }
      ],
      "name": "recordSale",
      "outputs": [
        {
          "internalType": "uint256",
          "name": "",
          "type": "uint256"
        }
      ],
      "stateMutability": "payable",
      "type": "function"
    },
    {
      "inputs": [],
      "name": "renounceOwnership",
      "outputs": [],
      "stateMutability": "nonpayable",
      "type": "function"
    },
    {
      "inputs": [
        {
          "internalType": "uint256",
          "name": "",
          "type": "uint256"
        }
      ],
      "name": "royaltyConfigs",
      "outputs": [
        {
          "internalType": "uint256",
          "name": "assetId",
          "type": "uint256"
        },
        {
          "internalType": "address",
          "name": "creator",
          "type": "address"
        },
        {
          "internalType": "uint256",
          "name": "royaltyBps",
          "type": "uint256"
        },
        {
          "internalType": "uint256",
          "name": "totalRoyaltiesCollected",
          "type": "uint256"
        },
        {
          "internalType": "uint256",
          "name": "totalSales",
          "type": "uint256"
        }
      ],
      "stateMutability": "view",
      "type": "function"
    },
    {
      "inputs": [],
      "name": "saleCount",
      "outputs": [
        {
          "internalType": "uint256",
          "name": "",
          "type": "uint256"
        }
      ],
      "stateMutability": "view",
      "type": "function"
    },
    {
      "inputs": [
        {
          "internalType": "uint256",
          "name": "",
          "type": "uint256"
        },
        {
          "internalType": "uint256",
          "name": "",
          "type": "uint256"
        }
      ],
      "name": "salesHistory",
      "outputs": [
        {
          "internalType": "uint256",
          "name": "saleId",
          "type": "uint256"
        },
        {
          "internalType": "uint256",
          "name": "assetId",
          "type": "uint256"
        },
        {
          "internalType": "address",
          "name": "seller",
          "type": "address"
        },
        {
          "internalType": "address",
          "name": "buyer",
          "type": "address"
        },
        {
          "internalType": "uint256",
          "name": "price",
          "type": "uint256"
        },
        {
          "internalType": "uint256",
          "name": "royaltyPaid",
          "type": "uint256"
        },
        {
          "internalType": "uint256",
          "name": "timestamp",
          "type": "uint256"
        }
      ],
      "stateMutability": "view",
      "type": "function"
    },
    {
      "inputs": [
        {
          "internalType": "address",
          "name": "newOwner",
          "type": "address"
        }
      ],
      "name": "transferOwnership",
      "outputs": [],
      "stateMutability": "nonpayable",
      "type": "function"
    }
  ],
  "bytecode": "0x6080806040523461007f57600160005533156100695760018054336001600160a01b03198216811790925560405191906001600160a01b03167f8be0079c531659141344cd1fd0a4f28419497f9722a3daafe3b4186f6b6457e0600080a3610df190816100858239f35b631e4fbdf760e01b815260006004820152602490fd5b600080fdfe608080604052600436101561001357600080fd5b60003560e01c9081633dca40e614610c0857508063543a9eb914610bbc57806360aae71114610a3757806365be94c0146109c9578063715018a614610949578063804396af146100b95780638da5cb5b1461091557806398d74c5314610880578063a1e89aec14610862578063a9814fcb146102d8578063bb4dc10a14610254578063de4bb1df146101c9578063f2fde38b146101055763fa3c30a8146100b957600080fd5b346101005760206003193601126101005773ffffffffffffffffffffffffffffffffffffffff6100e7610c23565b1660005260046020526020604060002054604051908152f35b600080fd5b346101005760206003193601126101005761011e610c23565b610126610ca7565b73ffffffffffffffffffffffffffffffffffffffff80911690811561019857600154827fffffffffffffffffffffffff0000000000000000000000000000000000000000821617600155167f8be0079c531659141344cd1fd0a4f28419497f9722a3daafe3b4186f6b6457e0600080a3005b60246040517f1e4fbdf700000000000000000000000000000000000000000000000000000000815260006004820152fd5b3461010057602060031936011261010057600435600052600260205260806040600020816101f5610cf8565b918054835273ffffffffffffffffffffffffffffffffffffffff60018201541692836020820152600282015490816040820152600460038401549384606084015201549384910152604051938452602084015260408301526060820152f35b346101005760406003193601126101005761026d610c23565b602435908115158092036101005773ffffffffffffffffffffffffffffffffffffffff90610299610ca7565b16600052600560205260406000209060ff7fffffffffffffffffffffffffffffffffffffffffffffffffffffffffffffff008354169116179055600080f35b60806003193601126101005760243573ffffffffffffffffffffffffffffffffffffffff81168103610100576044359073ffffffffffffffffffffffffffffffffffffffff821682036101005760026000541461083857600260005533600052600560205260ff60406000205416156107da57606435340361077c57600435600052600260205260406000209173ffffffffffffffffffffffffffffffffffffffff6001840154161561071e576002830154606435808202929181159184041417156106ef5760643561271083048103116106ef576103b8600654610d18565b938460065560043560005260036020526040600020604051928360e081011067ffffffffffffffff60e0860111176106c05773ffffffffffffffffffffffffffffffffffffffff9060e08501604052878552600435602086015281871660408601521660608401526064356080840152612710840460a08401524260c08401528054680100000000000000008110156106c05761045a91600182018155610c5c565b610691576000809392819392600660c0858596518455602081015160018501556002840173ffffffffffffffffffffffffffffffffffffffff604083015116907fffffffffffffffffffffffff00000000000000000000000000000000000000009182825416179055600385019073ffffffffffffffffffffffffffffffffffffffff606084015116908254161790556080810151600485015560a0810151600585015501519101556003810161051661271088048254610d45565b9055600481016105268154610d18565b905573ffffffffffffffffffffffffffffffffffffffff600182015416825260046020526040822061055d61271088048254610d45565b905573ffffffffffffffffffffffffffffffffffffffff60016127108804920154165af1610589610d52565b501561063357600080809373ffffffffffffffffffffffffffffffffffffffff6127108395046064350391165af16105bf610d52565b50156105d5576020906001600055604051908152f35b60646040517f08c379a000000000000000000000000000000000000000000000000000000000815260206004820152601560248201527f53656c6c6572207061796d656e74206661696c656400000000000000000000006044820152fd5b60646040517f08c379a000000000000000000000000000000000000000000000000000000000815260206004820152601660248201527f526f79616c7479207061796d656e74206661696c6564000000000000000000006044820152fd5b7f4e487b7100000000000000000000000000000000000000000000000000000000600052600060045260246000fd5b7f4e487b7100000000000000000000000000000000000000000000000000000000600052604160045260246000fd5b7f4e487b7100000000000000000000000000000000000000000000000000000000600052601160045260246000fd5b60646040517f08c379a000000000000000000000000000000000000000000000000000000000815260206004820152600e60248201527f4e6f7420636f6e666967757265640000000000000000000000000000000000006044820152fd5b60646040517f08c379a000000000000000000000000000000000000000000000000000000000815260206004820152601160248201527f496e636f7272656374207061796d656e740000000000000000000000000000006044820152fd5b60646040517f08c379a000000000000000000000000000000000000000000000000000000000815260206004820152601860248201527f556e617574686f72697a6564206d61726b6574706c61636500000000000000006044820152fd5b60046040517f3ee5aeb5000000000000000000000000000000000000000000000000000000008152fd5b34610100576000600319360112610100576020600654604051908152f35b346101005761088e36610c46565b906000526003602052604060002080548210156101005760e0916108b191610c5c565b5080549060018101549073ffffffffffffffffffffffffffffffffffffffff80600283015416906003830154166004830154916006600585015494015494604051968752602087015260408601526060850152608084015260a083015260c0820152f35b3461010057600060031936011261010057602073ffffffffffffffffffffffffffffffffffffffff60015416604051908152f35b3461010057600060031936011261010057610962610ca7565b600073ffffffffffffffffffffffffffffffffffffffff6001547fffffffffffffffffffffffff00000000000000000000000000000000000000008116600155167f8be0079c531659141344cd1fd0a4f28419497f9722a3daafe3b4186f6b6457e08280a3005b3461010057602060031936011261010057600435600052600260205260a0604060002080549073ffffffffffffffffffffffffffffffffffffffff60018201541690600281015460046003830154920154926040519485526020850152604084015260608301526080820152f35b3461010057610a4536610c46565b9080600052600260205273ffffffffffffffffffffffffffffffffffffffff908160016040600020015416610b5e576103e88311610b0057600491610a88610cf8565b9382855260208501338152604086019182526060860192600084526080870194600086526000526002602052604060002096518755600187019151167fffffffffffffffffffffffff000000000000000000000000000000000000000082541617905551600285015551600384015551910155600080f35b60646040517f08c379a000000000000000000000000000000000000000000000000000000000815260206004820152601060248201527f526f79616c747920746f6f2068696768000000000000000000000000000000006044820152fd5b60646040517f08c379a000000000000000000000000000000000000000000000000000000000815260206004820152601260248201527f416c726561647920636f6e6669677572656400000000000000000000000000006044820152fd5b346101005760206003193601126101005773ffffffffffffffffffffffffffffffffffffffff610bea610c23565b166000526005602052602060ff604060002054166040519015158152f35b3461010057600060031936011261010057806103e860209252f35b6004359073ffffffffffffffffffffffffffffffffffffffff8216820361010057565b6003196040910112610100576004359060243590565b8054821015610c78576000526007602060002091020190600090565b7f4e487b7100000000000000000000000000000000000000000000000000000000600052603260045260246000fd5b73ffffffffffffffffffffffffffffffffffffffff600154163303610cc857565b60246040517f118cdaa7000000000000000000000000000000000000000000000000000000008152336004820152fd5b6040519060a0820182811067ffffffffffffffff8211176106c057604052565b7fffffffffffffffffffffffffffffffffffffffffffffffffffffffffffffffff81146106ef5760010190565b919082018092116106ef57565b3d15610db65767ffffffffffffffff903d8281116106c057604051927fffffffffffffffffffffffffffffffffffffffffffffffffffffffffffffffe0603f81601f8501160116840190848210908211176106c05760405282523d6000602084013e565b60609056fea2646970667358221220d02282a249b16022b68c666df4ba94e9311751b16e6613dd47d2330d951ba61464736f6c63430008140033",
  "linkReferences": {},
  "deployedLinkReferences": {}
}