{
  "_format": "hh-sol-artifact-1",
  "contractName": "AvatarAthletes",
  "sourceName": "contracts/layer5/AvatarAthletes.sol",
  "abi": [
    {
      "inputs": [
        {
          "internalType": "address",
          "name": "_treasury",
          "type": "address"
        }
      ],
      "stateMutability": "nonpayable",
      "type": "constructor"
    },
    {
      "inputs": [],
      "name": "AccessControlBadConfirmation",
      "type": "error"
    },
    {
      "inputs": [
        {
          "internalType": "address",
          "name": "account",
          "type": "address"
        },
        {
          "internalType": "bytes32",
          "name": "neededRole",
          "type": "bytes32"
        }
      ],
      "name": "AccessControlUnauthorizedAccount",
      "type": "error"
    },
    {
      "inputs": [],
      "name": "ReentrancyGuardReentrantCall",
      "type": "error"
    },
    {
      "anonymous": false,
      "inputs": [
        {
          "indexed": true,
          "internalType": "uint256",
          "name": "athleteId",
          "type": "uint256"
        },
        {
          "indexed": false,
          "internalType": "string",
          "name": "modelURI",
          "type": "string"
        }
      ],
      "name": "AvatarCreated",
      "type": "event"
    },
    {
      "anonymous": false,
      "inputs": [
        {
          "indexed": true,
          "internalType": "uint256",
          "name": "athleteId",
          "type": "uint256"
        },
        {
          "indexed": false,
          "internalType": "int256",
          "name": "x",
          "type": "int256"
        },
        {
          "indexed": false,
          "internalType": "int256",
          "name": "y",
          "type": "int256"
        },
        {
          "indexed": false,
          "internalType": "int256",
          "name": "z",
          "type": "int256"
        },
        {
          "indexed": false,
          "internalType": "uint256",
          "name": "venueId",
          "type": "uint256"
        }
      ],
      "name": "AvatarMoved",
      "type": "event"
    },
    {
      "anonymous": false,
      "inputs": [
        {
          "indexed": true,
          "internalType": "uint256",
          "name": "athleteId",
          "type": "uint256"
        },
        {
          "indexed": false,
          "internalType": "string",
          "name": "emote",
          "type": "string"
        }
      ],
      "name": "EmoteUnlocked",
      "type": "event"
    },
    {
      "anonymous": false,
      "inputs": [
        {
          "indexed": true,
          "internalType": "bytes32",
          "name": "role",
          "type": "bytes32"
        },
        {
          "indexed": true,
          "internalType": "bytes32",
          "name": "previousAdminRole",
          "type": "bytes32"
        },
        {
          "indexed": true,
          "internalType": "bytes32",
          "name": "newAdminRole",
          "type": "bytes32"
        }
      ],
      "name": "RoleAdminChanged",
      "type": "event"
    },
    {
      "anonymous": false,
      "inputs": [
        {
          "indexed": true,
          "internalType": "bytes32",
          "name": "role",
          "type": "bytes32"
        },
        {
          "indexed": true,
          "internalType": "address",
          "name": "account",
          "type": "address"
        },
        {
          "indexed": true,
          "internalType": "address",
          "name": "sender",
          "type": "address"
        }
      ],
      "name": "RoleGranted",
      "type": "event"
    },
    {
      "anonymous": false,
      "inputs": [
        {
          "indexed": true,
          "internalType": "bytes32",
          "name": "role",
          "type": "bytes32"
        },
        {
          "indexed": true,
          "internalType": "address",
          "name": "account",
          "type": "address"
        },
        {
          "indexed": true,
          "internalType": "address",
          "name": "sender",
          "type": "address"
        }
      ],
      "name": "RoleRevoked",
      "type": "event"
    },
    {
      "anonymous": false,
      "inputs": [
        {
          "indexed": true,
          "internalType": "uint256",
          "name": "athleteId",
          "type": "uint256"
        },
        {
          "indexed": false,
          "internalType": "uint256",
          "name": "wearableId",
          "type": "uint256"
        },
        {
          "indexed": false,
          "internalType": "uint8",
          "name": "slot",
          "type": "uint8"
        }
      ],
      "name": "WearableEquipped",
      "type": "event"
    },
    {
      "anonymous": false,
      "inputs": [
        {
          "indexed": true,
          "internalType": "uint256",
          "name": "athleteId",
          "type": "uint256"
        },
        {
          "indexed": false,
          "internalType": "uint256",
          "name": "wearableId",
          "type": "uint256"
        }
      ],
      "name": "WearablePurchased",
      "type": "event"
    },
    {
      "inputs": [],
      "name": "AVATAR_MANAGER",
      "outputs": [
        {
          "internalType": "bytes32",
          "name": "",
          "type": "bytes32"
        }
      ],
      "stateMutability": "view",
      "type": "function"
    },
    {
      "inputs": [],
      "name": "DEFAULT_ADMIN_ROLE",
      "outputs": [
        {
          "internalType": "bytes32",
          "name": "",
          "type": "bytes32"
        }
      ],
      "stateMutability": "view",
      "type": "function"
    },
    {
      "inputs": [
        {
          "internalType": "uint256",
          "name": "",
          "type": "uint256"
        },
        {
          "internalType": "uint256",
          "name": "",
          "type": "uint256"
        }
      ],
      "name": "athleteWardobe",
      "outputs": [
        {
          "internalType": "uint256",
          "name": "",
          "type": "uint256"
        }
      ],
      "stateMutability": "view",
      "type": "function"
    },
    {
      "inputs": [
        {
          "internalType": "uint256",
          "name": "",
          "type": "uint256"
        }
      ],
      "name": "avatars",
      "outputs": [
        {
          "internalType": "uint256",
          "name": "athleteId",
          "type": "uint256"
        },
        {
          "internalType": "string",
          "name": "modelURI",
          "type": "string"
        },
        {
          "internalType": "string",
          "name": "animationSetURI",
          "type": "string"
        },
        {
          "components": [
            {
              "internalType": "uint256",
              "name": "glovesId",
              "type": "uint256"
            },
            {
              "internalType": "uint256",
              "name": "shortsId",
              "type": "uint256"
            },
            {
              "internalType": "uint256",
              "name": "shoesId",
              "type": "uint256"
            },
            {
              "internalType": "uint256",
              "name": "accessoryId",
              "type": "uint256"
            },
            {
              "internalType": "uint256",
              "name": "beltId",
              "type": "uint256"
            }
          ],
          "internalType": "struct AvatarAthletes.WearableSet",
          "name": "equipment",
          "type": "tuple"
        },
        {
          "components": [
            {
              "internalType": "int256",
              "name": "x",
              "type": "int256"
            },
            {
              "internalType": "int256",
              "name": "y",
              "type": "int256"
            },
            {
              "internalType": "int256",
              "name": "z",
              "type": "int256"
            }
          ],
          "internalType": "struct AvatarAthletes.Vector3",
          "name": "position",
          "type": "tuple"
        },
        {
          "internalType": "uint256",
          "name": "currentVenueId",
          "type": "uint256"
        },
        {
          "internalType": "bool",
          "name": "isOnline",
          "type": "bool"
        },
        {
          "internalType": "uint256",
          "name": "lastActivity",
          "type": "uint256"
        },
        {
          "internalType": "uint256",
          "name": "customizationLevel",
          "type": "uint256"
        }
      ],
      "stateMutability": "view",
      "type": "function"
    },
    {
      "inputs": [
        {
          "internalType": "uint256",
          "name": "athleteId",
          "type": "uint256"
        },
        {
          "internalType": "string",
          "name": "modelURI",
          "type": "string"
        },
        {
          "internalType": "string",
          "name": "animationSetURI",
          "type": "string"
        }
      ],
      "name": "createAvatar",
      "outputs": [],
      "stateMutability": "nonpayable",
      "type": "function"
    },
    {
      "inputs": [
        {
          "internalType": "string",
          "name": "name",
          "type": "string"
        },
        {
          "internalType": "string",
          "name": "itemURI",
          "type": "string"
        },
        {
          "internalType": "uint8",
          "name": "slot",
          "type": "uint8"
        },
        {
          "internalType": "uint256",
          "name": "price",
          "type": "uint256"
        },
        {
          "internalType": "bool",
          "name": "isExclusive",
          "type": "bool"
        },
        {
          "internalType": "uint256",
          "name": "exclusiveAthleteId",
          "type": "uint256"
        }
      ],
      "name": "createWearable",
      "outputs": [
        {
          "internalType": "uint256",
          "name": "",
          "type": "uint256"
        }
      ],
      "stateMutability": "nonpayable",
      "type": "function"
    },
    {
      "inputs": [
        {
          "internalType": "uint256",
          "name": "athleteId",
          "type": "uint256"
        },
        {
          "internalType": "uint256",
          "name": "wearableId",
          "type": "uint256"
        }
      ],
      "name": "equipWearable",
      "outputs": [],
      "stateMutability": "nonpayable",
      "type": "function"
    },
    {
      "inputs": [
        {
          "internalType": "uint256",
          "name": "athleteId",
          "type": "uint256"
        }
      ],
      "name": "getAthletesWardrobe",
      "outputs": [
        {
          "internalType": "uint256[]",
          "name": "",
          "type": "uint256[]"
        }
      ],
      "stateMutability": "view",
      "type": "function"
    },
    {
      "inputs": [
        {
          "internalType": "bytes32",
          "name": "role",
          "type": "bytes32"
        }
      ],
      "name": "getRoleAdmin",
      "outputs": [
        {
          "internalType": "bytes32",
          "name": "",
          "type": "bytes32"
        }
      ],
      "stateMutability": "view",
      "type": "function"
    },
    {
      "inputs": [
        {
          "internalType": "uint256",
          "name": "venueId",
          "type": "uint256"
        }
      ],
      "name": "getVenueOccupants",
      "outputs": [
        {
          "internalType": "uint256[]",
          "name": "",
          "type": "uint256[]"
        }
      ],
      "stateMutability": "view",
      "type": "function"
    },
    {
      "inputs": [
        {
          "internalType": "bytes32",
          "name": "role",
          "type": "bytes32"
        },
        {
          "internalType": "address",
          "name": "account",
          "type": "address"
        }
      ],
      "name": "grantRole",
      "outputs": [],
      "stateMutability": "nonpayable",
      "type": "function"
    },
    {
      "inputs": [
        {
          "internalType": "bytes32",
          "name": "role",
          "type": "bytes32"
        },
        {
          "internalType": "address",
          "name": "account",
          "type": "address"
        }
      ],
      "name": "hasRole",
      "outputs": [
        {
          "internalType": "bool",
          "name": "",
          "type": "bool"
        }
      ],
      "stateMutability": "view",
      "type": "function"
    },
    {
      "inputs": [
        {
          "internalType": "uint256",
          "name": "athleteId",
          "type": "uint256"
        },
        {
          "internalType": "int256",
          "name": "x",
          "type": "int256"
        },
        {
          "internalType": "int256",
          "name": "y",
          "type": "int256"
        },
        {
          "internalType": "int256",
          "name": "z",
          "type": "int256"
        },
        {
          "internalType": "uint256",
          "name": "venueId",
          "type": "uint256"
        }
      ],
      "name": "moveAvatar",
      "outputs": [],
      "stateMutability": "nonpayable",
      "type": "function"
    },
    {
      "inputs": [],
      "name": "platformFeePercent",
      "outputs": [
        {
          "internalType": "uint256",
          "name": "",
          "type": "uint256"
        }
      ],
      "stateMutability": "view",
      "type": "function"
    },
    {
      "inputs": [
        {
          "internalType": "uint256",
          "name": "athleteId",
          "type": "uint256"
        },
        {
          "internalType": "uint256",
          "name": "wearableId",
          "type": "uint256"
        }
      ],
      "name": "purchaseWearable",
      "outputs": [],
      "stateMutability": "payable",
      "type": "function"
    },
    {
      "inputs": [
        {
          "internalType": "bytes32",
          "name": "role",
          "type": "bytes32"
        },
        {
          "internalType": "address",
          "name": "callerConfirmation",
          "type": "address"
        }
      ],
      "name": "renounceRole",
      "outputs": [],
      "stateMutability": "nonpayable",
      "type": "function"
    },
    {
      "inputs": [
        {
          "internalType": "bytes32",
          "name": "role",
          "type": "bytes32"
        },
        {
          "internalType": "address",
          "name": "account",
          "type": "address"
        }
      ],
      "name": "revokeRole",
      "outputs": [],
      "stateMutability": "nonpayable",
      "type": "function"
    },
    {
      "inputs": [
        {
          "internalType": "bytes4",
          "name": "interfaceId",
          "type": "bytes4"
        }
      ],
      "name": "supportsInterface",
      "outputs": [
        {
          "internalType": "bool",
          "name": "",
          "type": "bool"
        }
      ],
      "stateMutability": "view",
      "type": "function"
    },
    {
      "inputs": [],
      "name": "treasury",
      "outputs": [
        {
          "internalType": "address",
          "name": "",
          "type": "address"
        }
      ],
      "stateMutability": "view",
      "type": "function"
    },
    {
      "inputs": [
        {
          "internalType": "uint256",
          "name": "",
          "type": "uint256"
        },
        {
          "internalType": "uint256",
          "name": "",
          "type": "uint256"
        }
      ],
      "name": "venueOccupants",
      "outputs": [
        {
          "internalType": "uint256",
          "name": "",
          "type": "uint256"
        }
      ],
      "stateMutability": "view",
      "type": "function"
    },
    {
      "inputs": [
        {
          "internalType": "uint256",
          "name": "",
          "type": "uint256"
        }
      ],
      "name": "wearables",
      "outputs": [
        {
          "internalType": "uint256",
          "name": "itemId",
          "type": "uint256"
        },
        {
          "internalType": "string",
          "name": "name",
          "type": "string"
        },
        {
          "internalType": "string",
          "name": "itemURI",
          "type": "string"
        },
        {
          "internalType": "uint8",
          "name": "slot",
          "type": "uint8"
        },
        {
          "internalType": "uint256",
          "name": "price",
          "type": "uint256"
        },
        {
          "internalType": "bool",
          "name": "isExclusive",
          "type": "bool"
        },
        {
          "internalType": "uint256",
          "name": "athleteId",
          "type": "uint256"
        }
      ],
      "stateMutability": "view",
      "type": "function"
    }
  ],
  "bytecode": "0x6080346200009b57601f62001efd38819003918201601f19168301916001600160401b03831184841017620000a0578084926020946040528339810103126200009b57516001600160a01b038116908190036200009b576001805560fa600855600780546001600160a01b0319169190911790556200007e33620000b6565b506200008a3362000136565b50604051611d049081620001d98239f35b600080fd5b634e487b7160e01b600052604160045260246000fd5b6001600160a01b031660008181527fad3228b676f7d3cd4284a5443f17f1962b36e491b30a40b2405849e597ba5fb5602052604081205490919060ff166200013257818052816020526040822081835260205260408220600160ff19825416179055339160008051602062001edd8339815191528180a4600190565b5090565b6001600160a01b031660008181527fc36fb5665f309611e4e4108900746cd3c01c72949870090040a2e70fe561ca4e60205260408120549091907f53182c30c74574fcc1d13b11f4bd0dfb38f3cc5e616ee40cb608956e084193789060ff16620001d357808352826020526040832082845260205260408320600160ff1982541617905560008051602062001edd833981519152339380a4600190565b50509056fe608080604052600436101561001357600080fd5b60003560e01c90816301ffc9a7146116ba57508063248a9ca31461168b5780632f2ff15d1461165a578063344129e5146113ec57806336568abe1461138e57806336c656511461135357806361d027b31461131f57806362ced1821461105457806368ae6794146109e55780637406702c1461068457806382d1b42114610653578063834d5fac1461050657806387fea8f01461049c5780638c639a851461047e57806391d1485414610430578063a217fddf14610414578063b416cfd714610374578063c2cceacb146101f7578063d547741f146101c4578063f02e8bb7146101855763fafd83991461010657600080fd5b34610180576020806003193601126101805760043560005260048152604060002090604051908181845491828152019360005281600020916000905b8282106101695761016585610159818903826117f5565b604051918291826119f0565b0390f35b835486529485019460019384019390910190610142565b600080fd5b34610180576101933661178b565b90600052600560205260406000208054821015610180576020916101b69161186f565b90546040519160031b1c8152f35b34610180576101f56101d536611758565b908060005260006020526101f0600160406000200154611abe565b611b70565b005b34610180576102053661178b565b806000526003602052604060002060405161021f816117bd565b8154815261022f60018301611909565b602082015261024060028301611909565b604082015260c0600660ff60038501541693606084019485526004810154608085015260ff600582015416151560a085015201549101526102818284611c41565b15610316577fbb7896c5aa02b78353b24f351d2fe9d28d7d18878ce540e4b320517e465ada50916040918460005260026020528160ff846000209251169182156000146102da57600301555b82519182526020820152a2005b600183036102eb57600401556102cd565b600283036102fc57600501556102cd565b6003830361030d57600601556102cd565b600701556102cd565b60646040517f08c379a000000000000000000000000000000000000000000000000000000000815260206004820152601760248201527f446f6e2774206f776e2074686973207765617261626c650000000000000000006044820152fd5b34610180576020600319360112610180576004356000526003602052604060002080546103a360018301611909565b916103b060028201611909565b60ff6003830154169160048101546103f9600660ff600585015416930154936103eb604051988998895260e060208a015260e08901906119b0565b9087820360408901526119b0565b9360608601526080850152151560a084015260c08301520390f35b3461018057600060031936011261018057602060405160008152f35b346101805761043e36611758565b90600052600060205273ffffffffffffffffffffffffffffffffffffffff60406000209116600052602052602060ff604060002054166040519015158152f35b34610180576000600319360112610180576020600854604051908152f35b34610180576020806003193601126101805760043560005260058152604060002090604051908181845491828152019360005281600020916000905b8282106104ef5761016585610159818903826117f5565b8354865294850194600193840193909101906104d8565b346101805760206003193601126101805760043560005260026020526040600020805461053560018301611909565b9161054260028201611909565b6040519161054f836117d9565b600381015483526004810154602084015260058101546040840152600681015460608401526007810154608084015260405161058a816117a1565b6008820154815260098201546020820152600a8201546040820152600b820154604060ff600c850154169260806105ef600f600d880154970154976105e285519c8d9c8d5260208d6101e091829101528d01906119b0565b908b8203868d01526119b0565b97805160608b01526020810151828b01528381015160a08b0152606081015160c08b0152015160e089015280516101008901526020810151610120890152015161014087015261016086015215156101808501526101a08401526101c08301520390f35b34610180576106613661178b565b90600052600460205260406000208054821015610180576020916101b69161186f565b346101805760c06003193601126101805760043567ffffffffffffffff8111610180576106b5903690600401611818565b60243567ffffffffffffffff8111610180576106d5903690600401611818565b906044359060ff821680920361018057608435801515809103610180576106fa611a2b565b610705600654611c32565b928360065560405194610717866117bd565b8486526020860193845260408601526060850152606435608085015260a084015260a43560c0840152816000526003602052604060002090835182555192835167ffffffffffffffff811161090b578061077460018501546118b6565b95601f968781116109b2575b506020908783116001146109455760009261093a575b50506000198260011b9260031b1c19161760018301555b6002820160408201519485519067ffffffffffffffff821161090b576020966107d684546118b6565b8281116108d3575b508791831160011461086757918060c094926006969460009261085c575b50506000198260011b9260031b1c19161790555b6003840160ff60608301511660ff198254161790556080810151600485015561084f60a08201511515600586019060ff60ff1983541691151516179055565b0151910155604051908152f35b0151905089806107fc565b90601f1983169184600052886000209260005b8181106108bc57509260019285926006989660c09896106108a3575b505050811b019055610810565b015160001960f88460031b161c19169055898080610896565b92938a60018192878601518155019501930161087a565b6108fc9085600052896000208480870160051c8201928c8810610902575b0160051c0190611bf3565b886107de565b925081926108f1565b7f4e487b7100000000000000000000000000000000000000000000000000000000600052604160045260246000fd5b015190508680610796565b91601f1916916001860160005260206000209260005b81811061099a5750908460019594939210610981575b505050811b0160018301556107ad565b015160001960f88460031b161c19169055868080610971565b9293602060018192878601518155019501930161095b565b6109df906001870160005260206000208980860160051c82019260208710610902570160051c0190611bf3565b87610780565b346101805760606003193601126101805760243567ffffffffffffffff811161018057610a16903690600401611818565b60443567ffffffffffffffff811161018057610a36903690600401611818565b906004356000526002602052604060002054610ff65760405190610a59826117d9565b6000825260006020830152600060408301526000606083015260006080830152604051610a85816117a1565b600081526000602082015260006040820152604051906020820182811067ffffffffffffffff82111761090b576040526000825260405193610140850185811067ffffffffffffffff82111761090b5760405260043585526020850195848752604086015260608501526080840152600060a0840152600060c08401524260e084015261010083015260006101208301526004356000526002602052604060002092825184555192835167ffffffffffffffff811161090b57610b4b60018301546118b6565b601f8111610fc1575b506020601f8211600114610f52578192939495600092610f47575b50506000198260011b9260031b1c19161760018201555b604083015192835167ffffffffffffffff811161090b57610baa60028401546118b6565b601f8111610f12575b506020601f8211600114610ea3578192939495600092610e98575b50506000198260011b9260031b1c19161760028301555b6080606082015180516003850155602081015160048501556040810151600585015560608101516006850155015160078301556040608082015180516008850155602081015160098501550151600a83015560a0810151600b830155610c6160c08201511515600c84019060ff60ff1983541691151516179055565b60e0810151600d83015561010081015180519068010000000000000000821161090b57600e84015482600e860155808310610e20575b5060200190600e84016000526020600020916000905b828210610d00578686600f6101208801519101557f4ee597e8fb7bf6bc2e6f2920b84086adf419e11ffda58a859c1de901ad41424a6040516020815280610cfb6004359460208301906119b0565b0390a2005b805180519067ffffffffffffffff821161090b57610d1e86546118b6565b601f8111610de3575b50602090601f8311600114610d73579282600194936020938695600092610d68575b505060001982861b9260031b1c19161787555b01940191019092610cad565b015190508c80610d49565b908660005260206000209160005b601f1985168110610dcb5750836020936001969387969383601f1989961610610db2575b505050811b018755610d5c565b015160001960f88460031b161c191690558c8080610da5565b91926020600181928685015181550194019201610d81565b610e1090876000526020600020601f850160051c81019160208610610e16575b601f0160051c0190611bf3565b89610d27565b9091508190610e03565b600e85016000526020600020908382015b8183018110610e41575050610c97565b80610e4e600192546118b6565b80610e5b575b5001610e31565b601f81118314610e715750600081555b89610e54565b600090828252610e8f601f60208420920160051c8201858301611bf3565b81835555610e6b565b015190508580610bce565b6002840160005260206000209060005b601f1984168110610efa575060019394959683601f19811610610ee1575b505050811b016002830155610be5565b015160001960f88460031b161c19169055858080610ed1565b9091602060018192858b015181550193019101610eb3565b610f4190600285016000526020600020601f840160051c81019160208510610e1657601f0160051c0190611bf3565b85610bb3565b015190508580610b6f565b6001830160005260206000209060005b601f1984168110610fa9575060019394959683601f19811610610f90575b505050811b016001820155610b86565b015160001960f88460031b161c19169055858080610f80565b9091602060018192858b015181550193019101610f62565b610ff090600184016000526020600020601f840160051c81019160208510610e1657601f0160051c0190611bf3565b85610b54565b60646040517f08c379a000000000000000000000000000000000000000000000000000000000815260206004820152601560248201527f41766174617220616c72656164792065786973747300000000000000000000006044820152fd5b61105d3661178b565b6002600154146112f557600260015580600052602060038152604060002060405190611088826117bd565b8054825261109860018201611909565b838301526110a860028201611909565b604083015260ff60038201541660608301526004810154608083019080825260c0600660ff6005860154169460a087019515158652015494019384521561129757513410611239578490511591821561122e575b5050156111d0578260005260048152611119826040600020611c0a565b6008548034029034820414341517156111a1576000808061271081940473ffffffffffffffffffffffffffffffffffffffff60075416828215611198575bf11561118c577f36a96ec0d569a9692289f5c7ffe4b17014af2689ebbd2a96bcb30a220893d93f91604051908152a260018055005b6040513d6000823e3d90fd5b506108fc611157565b7f4e487b7100000000000000000000000000000000000000000000000000000000600052601160045260246000fd5b606490604051907f08c379a00000000000000000000000000000000000000000000000000000000082526004820152601d60248201527f4578636c757369766520746f207370656369666963206174686c6574650000006044820152fd5b5114905083856110fc565b606483604051907f08c379a00000000000000000000000000000000000000000000000000000000082526004820152601460248201527f496e73756666696369656e74207061796d656e740000000000000000000000006044820152fd5b606484604051907f08c379a00000000000000000000000000000000000000000000000000000000082526004820152601260248201527f5765617261626c65206e6f7420666f756e6400000000000000000000000000006044820152fd5b60046040517f3ee5aeb5000000000000000000000000000000000000000000000000000000008152fd5b3461018057600060031936011261018057602073ffffffffffffffffffffffffffffffffffffffff60075416604051908152f35b346101805760006003193601126101805760206040517f53182c30c74574fcc1d13b11f4bd0dfb38f3cc5e616ee40cb608956e084193788152f35b346101805761139c36611758565b3373ffffffffffffffffffffffffffffffffffffffff8216036113c2576101f591611b70565b60046040517f6697b232000000000000000000000000000000000000000000000000000000008152fd5b346101805760a06003193601126101805760043560248035608435606435604435611415611a2b565b8560005260026020526040600020600b81018054806114d7575b507f8dc65f75f73aa9a3acac8ca0d0b7fc148ddbe93def7cd0f7afedc7cb3fcee44d9650908484939260809796956040805161146a816117a1565b898152866020820152015286600884015583600984015584600a84015555600c8101600160ff19825416179055600d42910155826114bb575b604051938452602084015260408301526060820152a2005b8260005260056020526114d2876040600020611c0a565b6114a3565b600052600560205287604060002060005b8154808210156116255783906114fe838561186f565b929054600393841b1c1461151c57505061151790611c32565b6114e8565b9293509394959697989990600019928381019081116115f7579061155361154661156b938761186f565b905490881b1c918661186f565b90919060001983549160031b92831b921b1916179055565b82549081156115ca57509288969491928360809a947f8dc65f75f73aa9a3acac8ca0d0b7fc148ddbe93def7cd0f7afedc7cb3fcee44d9c9a989601926115b1848461186f565b81939154921b1b19169055555b9192939495965061142f565b7f4e487b710000000000000000000000000000000000000000000000000000000060005260316004526000fd5b827f4e487b710000000000000000000000000000000000000000000000000000000060005260116004526000fd5b505050507f8dc65f75f73aa9a3acac8ca0d0b7fc148ddbe93def7cd0f7afedc7cb3fcee44d96509084608096959493926115be565b34610180576101f561166b36611758565b90806000526000602052611686600160406000200154611abe565b611ae4565b346101805760206003193601126101805760043560005260006020526020600160406000200154604051908152f35b3461018057602060031936011261018057600435907fffffffff00000000000000000000000000000000000000000000000000000000821680920361018057817f7965db0b000000000000000000000000000000000000000000000000000000006020931490811561172e575b5015158152f35b7f01ffc9a70000000000000000000000000000000000000000000000000000000091501483611727565b6003196040910112610180576004359060243573ffffffffffffffffffffffffffffffffffffffff811681036101805790565b6003196040910112610180576004359060243590565b6060810190811067ffffffffffffffff82111761090b57604052565b60e0810190811067ffffffffffffffff82111761090b57604052565b60a0810190811067ffffffffffffffff82111761090b57604052565b90601f601f19910116810190811067ffffffffffffffff82111761090b57604052565b81601f820112156101805780359067ffffffffffffffff821161090b576040519261184d6020601f19601f86011601856117f5565b8284526020838301011161018057816000926020809301838601378301015290565b80548210156118875760005260206000200190600090565b7f4e487b7100000000000000000000000000000000000000000000000000000000600052603260045260246000fd5b90600182811c921680156118ff575b60208310146118d057565b7f4e487b7100000000000000000000000000000000000000000000000000000000600052602260045260246000fd5b91607f16916118c5565b906040519182600082549261191d846118b6565b90818452600194858116908160001461198c5750600114611949575b5050611947925003836117f5565b565b9093915060005260209081600020936000915b81831061197457505061194793508201013880611939565b8554888401850152948501948794509183019161195c565b905061194795506020935060ff1991501682840152151560051b8201013880611939565b919082519283825260005b8481106119dc575050601f19601f8460006020809697860101520116010190565b6020818301810151848301820152016119bb565b6020908160408183019282815285518094520193019160005b828110611a17575050505090565b835185529381019392810192600101611a09565b3360009081527fc36fb5665f309611e4e4108900746cd3c01c72949870090040a2e70fe561ca4e60205260409020547f53182c30c74574fcc1d13b11f4bd0dfb38f3cc5e616ee40cb608956e084193789060ff1615611a875750565b604490604051907fe2517d3f0000000000000000000000000000000000000000000000000000000082523360048301526024820152fd5b80600052600060205260406000203360005260205260ff6040600020541615611a875750565b906000918083528260205273ffffffffffffffffffffffffffffffffffffffff6040842092169182845260205260ff60408420541615600014611b6b57808352826020526040832082845260205260408320600160ff198254161790557f2f8788117e7eff1d82e926ec794901d17c78024a50270940304540a733656f0d339380a4600190565b505090565b906000918083528260205273ffffffffffffffffffffffffffffffffffffffff6040842092169182845260205260ff604084205416600014611b6b5780835282602052604083208284526020526040832060ff1981541690557ff6391f5c32d9c69d2a47ea670b442974b53935d1edc7fd64eb21e047a839171b339380a4600190565b818110611bfe575050565b60008155600101611bf3565b908154916801000000000000000083101561090b57826115539160016119479501815561186f565b60001981146111a15760010190565b90600091825260206004815260408320604051808284829454938481520190875284872092875b86828210611cb857505050611c7f925003826117f5565b835b8151811015611cb15783838260051b8401015114611ca757611ca290611c32565b611c81565b5050505050600190565b5050505090565b8554845260019586019587955093019201611c6856fea26469706673582212202e699bc435bbbbe26f9e3febc9862349cd4a4a2ba3cee227d7bda53468cac4a264736f6c634300081400332f8788117e7eff1d82e926ec794901d17c78024a50270940304540a733656f0d",
  "linkReferences": {},
  "deployedLinkReferences": {}
}