{
  "_format": "hh-sol-artifact-1",
  "contractName": "TemporalEntities",
  "sourceName": "contracts/layer3/temporal/TemporalEntities.sol",
  "abi": [
    {
      "inputs": [],
      "stateMutability": "nonpayable",
      "type": "constructor"
    },
    {
      "inputs": [
        {
          "internalType": "address",
          "name": "owner",
          "type": "address"
        }
      ],
      "name": "OwnableInvalidOwner",
      "type": "error"
    },
    {
      "inputs": [
        {
          "internalType": "address",
          "name": "account",
          "type": "address"
        }
      ],
      "name": "OwnableUnauthorizedAccount",
      "type": "error"
    },
    {
      "anonymous": false,
      "inputs": [
        {
          "indexed": true,
          "internalType": "uint256",
          "name": "entityId",
          "type": "uint256"
        },
        {
          "indexed": false,
          "internalType": "uint256",
          "name": "newAge",
          "type": "uint256"
        },
        {
          "indexed": false,
          "internalType": "enum TemporalEntities.LifeStage",
          "name": "newStage",
          "type": "uint8"
        }
      ],
      "name": "EntityAged",
      "type": "event"
    },
    {
      "anonymous": false,
      "inputs": [
        {
          "indexed": true,
          "internalType": "uint256",
          "name": "entityId",
          "type": "uint256"
        },
        {
          "indexed": false,
          "internalType": "uint256",
          "name": "birthTime",
          "type": "uint256"
        },
        {
          "indexed": false,
          "internalType": "uint256",
          "name": "lifeExpectancy",
          "type": "uint256"
        }
      ],
      "name": "EntityCreated",
      "type": "event"
    },
    {
      "anonymous": false,
      "inputs": [
        {
          "indexed": true,
          "internalType": "uint256",
          "name": "entityId",
          "type": "uint256"
        },
        {
          "indexed": false,
          "internalType": "uint256",
          "name": "deathTime",
          "type": "uint256"
        },
        {
          "indexed": false,
          "internalType": "uint256",
          "name": "finalAge",
          "type": "uint256"
        }
      ],
      "name": "EntityDied",
      "type": "event"
    },
    {
      "anonymous": false,
      "inputs": [
        {
          "indexed": true,
          "internalType": "address",
          "name": "previousOwner",
          "type": "address"
        },
        {
          "indexed": true,
          "internalType": "address",
          "name": "newOwner",
          "type": "address"
        }
      ],
      "name": "OwnershipTransferred",
      "type": "event"
    },
    {
      "anonymous": false,
      "inputs": [
        {
          "indexed": true,
          "internalType": "uint256",
          "name": "entityId",
          "type": "uint256"
        },
        {
          "indexed": false,
          "internalType": "int256",
          "name": "oldRep",
          "type": "int256"
        },
        {
          "indexed": false,
          "internalType": "int256",
          "name": "newRep",
          "type": "int256"
        }
      ],
      "name": "ReputationDecayed",
      "type": "event"
    },
    {
      "anonymous": false,
      "inputs": [
        {
          "indexed": true,
          "internalType": "uint256",
          "name": "entityId",
          "type": "uint256"
        },
        {
          "indexed": false,
          "internalType": "string",
          "name": "skill",
          "type": "string"
        },
        {
          "indexed": false,
          "internalType": "uint256",
          "name": "oldLevel",
          "type": "uint256"
        },
        {
          "indexed": false,
          "internalType": "uint256",
          "name": "newLevel",
          "type": "uint256"
        }
      ],
      "name": "SkillDecayed",
      "type": "event"
    },
    {
      "inputs": [],
      "name": "BASIS_POINTS",
      "outputs": [
        {
          "internalType": "uint256",
          "name": "",
          "type": "uint256"
        }
      ],
      "stateMutability": "view",
      "type": "function"
    },
    {
      "inputs": [],
      "name": "DEFAULT_HALF_LIFE",
      "outputs": [
        {
          "internalType": "uint256",
          "name": "",
          "type": "uint256"
        }
      ],
      "stateMutability": "view",
      "type": "function"
    },
    {
      "inputs": [],
      "name": "DEFAULT_LIFE_EXPECTANCY",
      "outputs": [
        {
          "internalType": "uint256",
          "name": "",
          "type": "uint256"
        }
      ],
      "stateMutability": "view",
      "type": "function"
    },
    {
      "inputs": [
        {
          "internalType": "uint256",
          "name": "entityId",
          "type": "uint256"
        }
      ],
      "name": "applyReputationDecay",
      "outputs": [],
      "stateMutability": "nonpayable",
      "type": "function"
    },
    {
      "inputs": [
        {
          "internalType": "uint256",
          "name": "entityId",
          "type": "uint256"
        },
        {
          "internalType": "string",
          "name": "skillName",
          "type": "string"
        }
      ],
      "name": "applySkillDecay",
      "outputs": [],
      "stateMutability": "nonpayable",
      "type": "function"
    },
    {
      "inputs": [
        {
          "internalType": "uint256",
          "name": "entityId",
          "type": "uint256"
        },
        {
          "internalType": "uint256",
          "name": "startingAge",
          "type": "uint256"
        },
        {
          "internalType": "uint256",
          "name": "lifeExpectancy",
          "type": "uint256"
        }
      ],
      "name": "createTemporalEntity",
      "outputs": [
        {
          "internalType": "bool",
          "name": "",
          "type": "bool"
        }
      ],
      "stateMutability": "nonpayable",
      "type": "function"
    },
    {
      "inputs": [
        {
          "internalType": "uint256",
          "name": "",
          "type": "uint256"
        }
      ],
      "name": "entities",
      "outputs": [
        {
          "internalType": "uint256",
          "name": "entityId",
          "type": "uint256"
        },
        {
          "internalType": "uint256",
          "name": "birthTime",
          "type": "uint256"
        },
        {
          "internalType": "uint256",
          "name": "lastUpdate",
          "type": "uint256"
        },
        {
          "internalType": "uint256",
          "name": "age",
          "type": "uint256"
        },
        {
          "internalType": "enum TemporalEntities.LifeStage",
          "name": "lifeStage",
          "type": "uint8"
        },
        {
          "internalType": "uint256",
          "name": "lifeExpectancy",
          "type": "uint256"
        },
        {
          "internalType": "bool",
          "name": "isActive",
          "type": "bool"
        },
        {
          "internalType": "uint256",
          "name": "deathTime",
          "type": "uint256"
        }
      ],
      "stateMutability": "view",
      "type": "function"
    },
    {
      "inputs": [
        {
          "internalType": "uint256",
          "name": "",
          "type": "uint256"
        }
      ],
      "name": "entityReputation",
      "outputs": [
        {
          "internalType": "int256",
          "name": "baseReputation",
          "type": "int256"
        },
        {
          "internalType": "uint256",
          "name": "lastDecayTime",
          "type": "uint256"
        },
        {
          "internalType": "uint256",
          "name": "halfLifePeriod",
          "type": "uint256"
        }
      ],
      "stateMutability": "view",
      "type": "function"
    },
    {
      "inputs": [
        {
          "internalType": "uint256",
          "name": "",
          "type": "uint256"
        },
        {
          "internalType": "string",
          "name": "",
          "type": "string"
        }
      ],
      "name": "entitySkills",
      "outputs": [
        {
          "internalType": "uint256",
          "name": "level",
          "type": "uint256"
        },
        {
          "internalType": "uint256",
          "name": "lastUsed",
          "type": "uint256"
        },
        {
          "internalType": "uint256",
          "name": "decayRate",
          "type": "uint256"
        },
        {
          "internalType": "uint256",
          "name": "maxLevel",
          "type": "uint256"
        }
      ],
      "stateMutability": "view",
      "type": "function"
    },
    {
      "inputs": [
        {
          "internalType": "uint256",
          "name": "entityId",
          "type": "uint256"
        }
      ],
      "name": "getAgeInYears",
      "outputs": [
        {
          "internalType": "uint256",
          "name": "",
          "type": "uint256"
        }
      ],
      "stateMutability": "view",
      "type": "function"
    },
    {
      "inputs": [
        {
          "internalType": "uint256",
          "name": "entityId",
          "type": "uint256"
        }
      ],
      "name": "getCurrentReputation",
      "outputs": [
        {
          "internalType": "int256",
          "name": "",
          "type": "int256"
        }
      ],
      "stateMutability": "view",
      "type": "function"
    },
    {
      "inputs": [
        {
          "internalType": "uint256",
          "name": "entityId",
          "type": "uint256"
        },
        {
          "internalType": "string",
          "name": "skillName",
          "type": "string"
        }
      ],
      "name": "getSkillLevel",
      "outputs": [
        {
          "internalType": "uint256",
          "name": "",
          "type": "uint256"
        }
      ],
      "stateMutability": "view",
      "type": "function"
    },
    {
      "inputs": [
        {
          "internalType": "uint256",
          "name": "entityId",
          "type": "uint256"
        }
      ],
      "name": "isAlive",
      "outputs": [
        {
          "internalType": "bool",
          "name": "",
          "type": "bool"
        }
      ],
      "stateMutability": "view",
      "type": "function"
    },
    {
      "inputs": [
        {
          "internalType": "uint256",
          "name": "entityId",
          "type": "uint256"
        }
      ],
      "name": "markDeceased",
      "outputs": [],
      "stateMutability": "nonpayable",
      "type": "function"
    },
    {
      "inputs": [],
      "name": "owner",
      "outputs": [
        {
          "internalType": "address",
          "name": "",
          "type": "address"
        }
      ],
      "stateMutability": "view",
      "type": "function"
    },
    {
      "inputs": [],
      "name": "renounceOwnership",
      "outputs": [],
      "stateMutability": "nonpayable",
      "type": "function"
    },
    {
      "inputs": [
        {
          "internalType": "uint256",
          "name": "entityId",
          "type": "uint256"
        },
        {
          "internalType": "string",
          "name": "skillName",
          "type": "string"
        },
        {
          "internalType": "uint256",
          "name": "level",
          "type": "uint256"
        },
        {
          "internalType": "uint256",
          "name": "decayRate",
          "type": "uint256"
        }
      ],
      "name": "setSkill",
      "outputs": [],
      "stateMutability": "nonpayable",
      "type": "function"
    },
    {
      "inputs": [
        {
          "internalType": "address",
          "name": "newOwner",
          "type": "address"
        }
      ],
      "name": "transferOwnership",
      "outputs": [],
      "stateMutability": "nonpayable",
      "type": "function"
    },
    {
      "inputs": [
        {
          "internalType": "uint256",
          "name": "entityId",
          "type": "uint256"
        }
      ],
      "name": "updateAge",
      "outputs": [],
      "stateMutability": "nonpayable",
      "type": "function"
    },
    {
      "inputs": [
        {
          "internalType": "uint256",
          "name": "entityId",
          "type": "uint256"
        },
        {
          "internalType": "int256",
          "name": "newReputation",
          "type": "int256"
        }
      ],
      "name": "updateReputation",
      "outputs": [],
      "stateMutability": "nonpayable",
      "type": "function"
    },
    {
      "inputs": [
        {
          "internalType": "uint256",
          "name": "entityId",
          "type": "uint256"
        },
        {
          "internalType": "string",
          "name": "skillName",
          "type": "string"
        }
      ],
      "name": "useSkill",
      "outputs": [],
      "stateMutability": "nonpayable",
      "type": "function"
    }
  ],
  "bytecode": "0x6080806040523461007a5733156100645760008054336001600160a01b03198216811783556040519290916001600160a01b0316907f8be0079c531659141344cd1fd0a4f28419497f9722a3daafe3b4186f6b6457e09080a361105a90816100808239f35b631e4fbdf760e01b815260006004820152602490fd5b600080fdfe608060408181526004908136101561001657600080fd5b600092833560e01c90816307cee4d214610c4b575080631591affd14610add57806315d39c7314610a1557806316fcdc20146109f657806318a4195c146109ab5780632e0ff4491461098e5780633b4dd6231461096f578063464c401d1461094557806362e1586d146109015780636331883b1461087d578063715018a6146107fc5780637d625c07146106885780638da5cb5b146106555780639d82676e14610601578063aed2246b146105d9578063b9948d341461059b578063d1979aaa1461048d578063d84b23611461045d578063dc897d6b146101f8578063e1f1c4a7146101d75763f2fde38b1461010b57600080fd5b346101d35760206003193601126101d35781359173ffffffffffffffffffffffffffffffffffffffff918284168094036101cf57610147610d8f565b83156101a05750508254827fffffffffffffffffffffffff00000000000000000000000000000000000000008216178455167f8be0079c531659141344cd1fd0a4f28419497f9722a3daafe3b4186f6b6457e08380a380f35b908460249251917f1e4fbdf7000000000000000000000000000000000000000000000000000000008352820152fd5b8480fd5b8280fd5b8382346101f457816003193601126101f457602090516127108152f35b5080fd5b508290346101f45760606003193601126101f45782356024938435936044359183825260019560209787895260ff60068886200154166104025761023c8242610de0565b946102478184610fab565b9080156103f7575b88519161010083019467ffffffffffffffff95848110878211176103e5578b528984528c84018981528b85019042825260608601928352608086019360058110156103d357918f8f90928f8f97958e9997958491885260a08c0198895260c08c0199828b5260e08d019b808d5252528d209851895551908801555160028701555160038601555160058110156103c157906102f06007949392898701610e03565b516005850155600684019051151560ff7fffffffffffffffffffffffffffffffffffffffffffffffffffffffffffffff008354169116179055519101558651926060840192848410908411176103b05750508580937fd0105dbed574920770e7621e1c1045436a5609c01f5c9ce9f8fc4a73b323523c9593600593835281815260028b8083014281526003868501926301e1338084528c87525285852093518455518c84015551910155888a52200154825191825287820152a251908152f35b60418591634e487b7160e01b835252fd5b858960218a634e487b7160e01b835252fd5b878b60218c634e487b7160e01b835252fd5b858960418a634e487b7160e01b835252fd5b50639660180061024f565b8260156064928b8a51937f08c379a00000000000000000000000000000000000000000000000000000000085528401528201527f456e7469747920616c72656164792065786973747300000000000000000000006044820152fd5b5090346101d35760206003193601126101d35760068260209460ff93358152600186522001541690519015158152f35b508290346101f45760206003193601126101f457823590818352600360205280832060018101906104bf825442610de0565b91821580156104cc578680f35b8254936127109182820291820483141715610575576104f36104f891600286015490610e9f565b611003565b808502907f8000000000000000000000000000000000000000000000000000000000000000811489871216610588578582051485151715610575577f64855d8e26c5d5c83bb8c7d5a1b7a1d8d87ab2b1b7746674a6b7373ba5e62915969798500580925542905582519182526020820152a2808280808080808680f35b60248860118b634e487b7160e01b835252fd5b60248960118c634e487b7160e01b835252fd5b5090346101d35760206003193601126101d3576060928291358152600360205220805491600260018301549201549181519384526020840152820152f35b5090346101d35760206003193601126101d35760209282913581526003845220549051908152f35b8382346101f45760206106349161061736610d16565b919085526002835282818620915194838680955193849201610d49565b82019081520301902061064c60038201541515610e3a565b60014291015580f35b8382346101f457816003193601126101f45773ffffffffffffffffffffffffffffffffffffffff60209254169051908152f35b508290346101f45760206003193601126101f457823590818352600160205280832060ff6006820154161561079f5760038101908154926106cd600183015442610de0565b9384845542600284015560ff8884016106f96106f3600584845416970198895490610fab565b82610e03565b541692600581101561078c57600584101561078c579083929187941490811591610780575b50610740575b5050505490541115610734575080f35b61073d90610ebf565b80f35b7fc2c2189b8006b2171b8efa3cb28a3a781a8b3c130d22781c0a54b85965cb7a349161077785549183519283526020830190610d6c565ba2828580610724565b9050845414158861071e565b60248860218b634e487b7160e01b835252fd5b60648560208451917f08c379a0000000000000000000000000000000000000000000000000000000008352820152601160248201527f456e74697479206e6f74206163746976650000000000000000000000000000006044820152fd5b833461087a578060031936011261087a57610815610d8f565b8073ffffffffffffffffffffffffffffffffffffffff81547fffffffffffffffffffffffff000000000000000000000000000000000000000081168355167f8be0079c531659141344cd1fd0a4f28419497f9722a3daafe3b4186f6b6457e08280a380f35b80fd5b5090346101d35760206003193601126101d3578161010093823581526001602052208054926108ee60018301549360028401549060ff6003860154918601541691600586015494600760ff600689015416970154978151998a5260208a015288015260608701526080860190610d6c565b60a0840152151560c083015260e0820152f35b8382346101f457610934602080938361091936610d16565b92908152600284522082855194838680955193849201610d49565b820190815203019020549051908152f35b5090346101d357816003193601126101d35735825260036020528120602435815560014291015580f35b8382346101f457816003193601126101f457602090516301e133808152f35b5050346101f45760206003193601126101f45761073d9035610ebf565b8382346101f4576109c460206080938361091936610d16565b820190815203019020908154916001810154916003600283015492015492815194855260208501528301526060820152f35b8382346101f457816003193601126101f4576020905163966018008152f35b508290346101f45760806003193601126101f45767ffffffffffffffff90602435828111610ad957610a4a9036908601610c7a565b9060443591815193608085019085821090821117610ac65791610aa6602088936003969584528588528188019342855280890195606435875260608a01978852358a526002835282818b20915194838680955193849201610d49565b820190815203019020945185555160018501555160028401555191015580f35b602486604189634e487b7160e01b835252fd5b8380fd5b50346101d357610aec36610d16565b919092838552600260205281852091805160208186519582880196610b1281848a610d49565b820190815203019020610b2a60038201541515610e3a565b62015180610b3c600183015442610de0565b0460078111610b49578780f35b8154937ffffffffffffffffffffffffffffffffffffffffffffffffffffffffffffffff98201918211610c3857600283015491828102928184041490151715610c385750610c0c946080947f9454f944d7ed7c3c04ee5817fae213bee10ed8861821df04ebd51ada0f495f3297947fffffffffffffffffffffffffffffffffffffffffffffffffffffffffffffffe094612710601f9504838111600014610c2757508b81555b54918151988997606089525180958160608b01528a8a0190610d49565b602087015285015201168101030190a2388080808080808780f35b610c319084610de0565b8155610bef565b886011602492634e487b7160e01b835252fd5b92905034610ad9576020600319360112610ad9576301e133809160209460039235815260018652200154048152f35b81601f82011215610cfb5780359067ffffffffffffffff92838311610d0057604051937fffffffffffffffffffffffffffffffffffffffffffffffffffffffffffffffe0603f81601f870116011685019085821090821117610d005760405282845260208383010111610cfb57816000926020809301838601378301015290565b600080fd5b634e487b7160e01b600052604160045260246000fd5b906040600319830112610cfb57600435916024359067ffffffffffffffff8211610cfb57610d4691600401610c7a565b90565b60005b838110610d5c5750506000910152565b8181015183820152602001610d4c565b906005821015610d795752565b634e487b7160e01b600052602160045260246000fd5b73ffffffffffffffffffffffffffffffffffffffff600054163303610db057565b60246040517f118cdaa7000000000000000000000000000000000000000000000000000000008152336004820152fd5b91908203918211610ded57565b634e487b7160e01b600052601160045260246000fd5b906005811015610d795760ff7fffffffffffffffffffffffffffffffffffffffffffffffffffffffffffffff008354169116179055565b15610e4157565b60646040517f08c379a000000000000000000000000000000000000000000000000000000000815260206004820152600f60248201527f536b696c6c206e6f7420666f756e6400000000000000000000000000000000006044820152fd5b8115610ea9570490565b634e487b7160e01b600052601260045260246000fd5b80600052600160205260406000206006810180549060ff821615610f4d577fc538d56e601c05ef4c34d7b9eacdcd56b80279702a3cd51df33b897719173ee2926040926003927fffffffffffffffffffffffffffffffffffffffffffffffffffffffffffffff00809216905560048083019182541617905542600782015501548151904282526020820152a2565b60646040517f08c379a000000000000000000000000000000000000000000000000000000000815260206004820152601060248201527f416c7265616479206465636561736564000000000000000000000000000000006044820152fd5b90606482029180830460641490151715610ded57610fc891610e9f565b601e8110610ffd5760328110610ff757604b8110610ff157606411610fec57600490565b600390565b50600290565b50600190565b50600090565b6127109081811161101d5760011c8103908111610ded5790565b505060009056fea26469706673582212202d6cb1772367a60d327bae6a76193c47a4562ab5edab787c8b8721c926610abb64736f6c63430008140033",
  "linkReferences": {},
  "deployedLinkReferences": {}
}