{
  "_format": "hh-sol-artifact-1",
  "contractName": "DerivativeMarkets",
  "sourceName": "contracts/layer3/risk/DerivativeMarkets.sol",
  "abi": [
    {
      "inputs": [],
      "stateMutability": "nonpayable",
      "type": "constructor"
    },
    {
      "inputs": [
        {
          "internalType": "address",
          "name": "owner",
          "type": "address"
        }
      ],
      "name": "OwnableInvalidOwner",
      "type": "error"
    },
    {
      "inputs": [
        {
          "internalType": "address",
          "name": "account",
          "type": "address"
        }
      ],
      "name": "OwnableUnauthorizedAccount",
      "type": "error"
    },
    {
      "inputs": [],
      "name": "ReentrancyGuardReentrantCall",
      "type": "error"
    },
    {
      "anonymous": false,
      "inputs": [
        {
          "indexed": true,
          "internalType": "uint256",
          "name": "derivativeId",
          "type": "uint256"
        },
        {
          "indexed": false,
          "internalType": "enum DerivativeMarkets.DerivativeType",
          "name": "derivativeType",
          "type": "uint8"
        },
        {
          "indexed": false,
          "internalType": "uint256",
          "name": "strikePrice",
          "type": "uint256"
        },
        {
          "indexed": false,
          "internalType": "uint256",
          "name": "expiry",
          "type": "uint256"
        }
      ],
      "name": "DerivativeCreated",
      "type": "event"
    },
    {
      "anonymous": false,
      "inputs": [
        {
          "indexed": true,
          "internalType": "uint256",
          "name": "derivativeId",
          "type": "uint256"
        },
        {
          "indexed": true,
          "internalType": "address",
          "name": "buyer",
          "type": "address"
        },
        {
          "indexed": false,
          "internalType": "uint256",
          "name": "premium",
          "type": "uint256"
        }
      ],
      "name": "DerivativePurchased",
      "type": "event"
    },
    {
      "anonymous": false,
      "inputs": [
        {
          "indexed": true,
          "internalType": "uint256",
          "name": "derivativeId",
          "type": "uint256"
        },
        {
          "indexed": false,
          "internalType": "uint256",
          "name": "settlementValue",
          "type": "uint256"
        }
      ],
      "name": "DerivativeSettled",
      "type": "event"
    },
    {
      "anonymous": false,
      "inputs": [
        {
          "indexed": true,
          "internalType": "address",
          "name": "previousOwner",
          "type": "address"
        },
        {
          "indexed": true,
          "internalType": "address",
          "name": "newOwner",
          "type": "address"
        }
      ],
      "name": "OwnershipTransferred",
      "type": "event"
    },
    {
      "inputs": [
        {
          "internalType": "uint256",
          "name": "derivativeId",
          "type": "uint256"
        }
      ],
      "name": "buyDerivative",
      "outputs": [],
      "stateMutability": "payable",
      "type": "function"
    },
    {
      "inputs": [
        {
          "internalType": "enum DerivativeMarkets.DerivativeType",
          "name": "derivativeType",
          "type": "uint8"
        },
        {
          "internalType": "enum DerivativeMarkets.UnderlyingAsset",
          "name": "underlying",
          "type": "uint8"
        },
        {
          "internalType": "uint256",
          "name": "underlyingId",
          "type": "uint256"
        },
        {
          "internalType": "uint256",
          "name": "strikePrice",
          "type": "uint256"
        },
        {
          "internalType": "uint256",
          "name": "premium",
          "type": "uint256"
        },
        {
          "internalType": "uint256",
          "name": "duration",
          "type": "uint256"
        }
      ],
      "name": "createDerivative",
      "outputs": [
        {
          "internalType": "uint256",
          "name": "",
          "type": "uint256"
        }
      ],
      "stateMutability": "nonpayable",
      "type": "function"
    },
    {
      "inputs": [],
      "name": "derivativeCount",
      "outputs": [
        {
          "internalType": "uint256",
          "name": "",
          "type": "uint256"
        }
      ],
      "stateMutability": "view",
      "type": "function"
    },
    {
      "inputs": [
        {
          "internalType": "uint256",
          "name": "",
          "type": "uint256"
        }
      ],
      "name": "derivatives",
      "outputs": [
        {
          "internalType": "uint256",
          "name": "id",
          "type": "uint256"
        },
        {
          "internalType": "enum DerivativeMarkets.DerivativeType",
          "name": "derivativeType",
          "type": "uint8"
        },
        {
          "internalType": "enum DerivativeMarkets.UnderlyingAsset",
          "name": "underlying",
          "type": "uint8"
        },
        {
          "internalType": "uint256",
          "name": "underlyingId",
          "type": "uint256"
        },
        {
          "internalType": "uint256",
          "name": "strikePrice",
          "type": "uint256"
        },
        {
          "internalType": "uint256",
          "name": "premium",
          "type": "uint256"
        },
        {
          "internalType": "uint256",
          "name": "expiry",
          "type": "uint256"
        },
        {
          "internalType": "address",
          "name": "creator",
          "type": "address"
        },
        {
          "internalType": "address",
          "name": "buyer",
          "type": "address"
        },
        {
          "internalType": "bool",
          "name": "isSettled",
          "type": "bool"
        },
        {
          "internalType": "uint256",
          "name": "settlementValue",
          "type": "uint256"
        }
      ],
      "stateMutability": "view",
      "type": "function"
    },
    {
      "inputs": [
        {
          "internalType": "uint256",
          "name": "derivativeId",
          "type": "uint256"
        }
      ],
      "name": "getDerivative",
      "outputs": [
        {
          "components": [
            {
              "internalType": "uint256",
              "name": "id",
              "type": "uint256"
            },
            {
              "internalType": "enum DerivativeMarkets.DerivativeType",
              "name": "derivativeType",
              "type": "uint8"
            },
            {
              "internalType": "enum DerivativeMarkets.UnderlyingAsset",
              "name": "underlying",
              "type": "uint8"
            },
            {
              "internalType": "uint256",
              "name": "underlyingId",
              "type": "uint256"
            },
            {
              "internalType": "uint256",
              "name": "strikePrice",
              "type": "uint256"
            },
            {
              "internalType": "uint256",
              "name": "premium",
              "type": "uint256"
            },
            {
              "internalType": "uint256",
              "name": "expiry",
              "type": "uint256"
            },
            {
              "internalType": "address",
              "name": "creator",
              "type": "address"
            },
            {
              "internalType": "address",
              "name": "buyer",
              "type": "address"
            },
            {
              "internalType": "bool",
              "name": "isSettled",
              "type": "bool"
            },
            {
              "internalType": "uint256",
              "name": "settlementValue",
              "type": "uint256"
            }
          ],
          "internalType": "struct DerivativeMarkets.Derivative",
          "name": "",
          "type": "tuple"
        }
      ],
      "stateMutability": "view",
      "type": "function"
    },
    {
      "inputs": [],
      "name": "owner",
      "outputs": [
        {
          "internalType": "address",
          "name": "",
          "type": "address"
        }
      ],
      "stateMutability": "view",
      "type": "function"
    },
    {
      "inputs": [],
      "name": "renounceOwnership",
      "outputs": [],
      "stateMutability": "nonpayable",
      "type": "function"
    },
    {
      "inputs": [
        {
          "internalType": "uint256",
          "name": "derivativeId",
          "type": "uint256"
        },
        {
          "internalType": "uint256",
          "name": "currentValue",
          "type": "uint256"
        }
      ],
      "name": "settleDerivative",
      "outputs": [],
      "stateMutability": "nonpayable",
      "type": "function"
    },
    {
      "inputs": [],
      "name": "totalVolume",
      "outputs": [
        {
          "internalType": "uint256",
          "name": "",
          "type": "uint256"
        }
      ],
      "stateMutability": "view",
      "type": "function"
    },
    {
      "inputs": [
        {
          "internalType": "address",
          "name": "newOwner",
          "type": "address"
        }
      ],
      "name": "transferOwnership",
      "outputs": [],
      "stateMutability": "nonpayable",
      "type": "function"
    }
  ],
  "bytecode": "0x6080806040523461007e5733156100685760008054336001600160a01b03198216811783556040519290916001600160a01b0316907f8be0079c531659141344cd1fd0a4f28419497f9722a3daafe3b4186f6b6457e09080a360018055610ba590816100848239f35b631e4fbdf760e01b815260006004820152602490fd5b600080fdfe608060405260048036101561001357600080fd5b600090813560e01c8063330840c0146107c45780635f81a57c146107a7578063715018a6146107295780638da5cb5b146106f6578063968ae463146105445780639743eae614610371578063c0046e39146102a5578063cde8f85114610284578063f2fde38b146101bb5763f920d9f71461008d57600080fd5b60206003193601126101b75780359060026001541461018f57600260015581835260026020528260408120600781019081549173ffffffffffffffffffffffffffffffffffffffff8084161580610182575b1561017e577fffffffffffffffffffffffff000000000000000000000000000000000000000090931633179055600601548291829182918291163415610174575b3491f11561016957610133348254610ad6565b9055604051903482527f925a1cc74fbec1a99997efe055daee2b9ffab0c0df03211dd43a6946f172805d60203393a36001805580f35b6040513d84823e3d90fd5b6108fc9150610120565b8480fd5b50858301543410156100df565b6040517f3ee5aeb5000000000000000000000000000000000000000000000000000000008152fd5b5080fd5b50346101b75760206003193601126101b75780359073ffffffffffffffffffffffffffffffffffffffff90818316809303610280576101f8610a85565b821561025057508254827fffffffffffffffffffffffff00000000000000000000000000000000000000008216178455167f8be0079c531659141344cd1fd0a4f28419497f9722a3daafe3b4186f6b6457e08380a380f35b60249084604051917f1e4fbdf7000000000000000000000000000000000000000000000000000000008352820152fd5b8380fd5b82346102a257806003193601126102a2576020600354604051908152f35b80fd5b50346101b75760206003193601126101b757604061016092823581526002602052209060ff825492600181015492828085169460081c1660028301549160038401549084015460058501549173ffffffffffffffffffffffffffffffffffffffff94856006880154169460086007890154980154996040519b8c5261032981610a4c565b60208c015261033781610a4c565b60408b015260608a0152608089015260a088015260c087015260e0860152811661010085015260a01c161515610120830152610140820152f35b50346101b75760206003193601126101b757600860408361016094610140610397610b12565b82815282602082015282858201528260608201528260808201528260a08201528260c08201528260e082015282610100820152826101208201520152833581526002602052206103e5610b12565b928154845260ff60018301548181166103fd81610a4c565b6020870152841c1661040e81610a4c565b6040850152600282015460608501526003820154608085015281015460a0840152600581015460c084015273ffffffffffffffffffffffffffffffffffffffff60068201541660e084015260ff600782015473ffffffffffffffffffffffffffffffffffffffff811661010086015260a01c1615156101208401520154610140820152610140604051918051835260208101516104aa81610a4c565b602084015260408101516104bd81610a4c565b6040840152606081015160608401526080810151608084015260a081015160a084015260c081015160c084015273ffffffffffffffffffffffffffffffffffffffff60e08201511660e084015273ffffffffffffffffffffffffffffffffffffffff6101008201511661010084015261012081015115156101208401520151610140820152f35b50346101b75760406003193601126101b7573560243581835260026020528260408120916005830154421015806106e4575b156101b7578160ff60018501541661058d81610a4c565b8015806106d7575b1561069157505060038301546105aa91610b62565b915b8260086007830192835493740100000000000000000000000000000000000000007fffffffffffffffffffffff00ffffffffffffffffffffffffffffffffffffffff86161790550155821590811580610672575b610636575b50505060207f033a31e3af947f5f190b08b3d6793a24a3390b599110b40535e7fa9437a14a7691604051908152a280f35b8284819382938391610668575b73ffffffffffffffffffffffffffffffffffffffff1690f11561016957823880610605565b6108fc9150610643565b5073ffffffffffffffffffffffffffffffffffffffff81161515610600565b806106a160019296949396610a4c565b14806106ca575b6106b3575b506105ac565b81935060036106c3920154610b62565b91386106ad565b50600382015481106106a8565b5060038501548311610595565b5060ff600784015460a01c1615610576565b82346102a257806003193601126102a25773ffffffffffffffffffffffffffffffffffffffff6020915416604051908152f35b82346102a257806003193601126102a257610742610a85565b8073ffffffffffffffffffffffffffffffffffffffff81547fffffffffffffffffffffffff000000000000000000000000000000000000000081168355167f8be0079c531659141344cd1fd0a4f28419497f9722a3daafe3b4186f6b6457e08280a380f35b50346101b757816003193601126101b75760209054604051908152f35b5090346102a25760c06003193601126102a2578135828110156101b75760243591838310156102a2576064359060a435936003547fffffffffffffffffffffffffffffffffffffffffffffffffffffffffffffffff8114610a205792602096600884806060966109fe9a999660017f0acea5ca655e1d55043c1530ca7bf1ffcc14187ce6b3b749311938d065603acc9a0195866003556108648c42610ad6565b9061086d610b12565b978893818552602085016108808d610a4c565b8c8152604086019161089181610a4c565b82528d860190604435825260808701928d845260408960a08a0196608435885260c08b01998a5261014060e08c019b338d5261010081019e8f5261012081019d8e52019d8e528152602060029052209c518d5560018d019151906108f482610a4c565b6108fd82610a4c565b7fffffffffffffffffffffffffffffffffffffffffffffffffffffffffffff000060ff61ff008554935161093081610a4c565b61093981610a4c565b60081b1693169116171790555160028b01555160038a015551908801555160058701556006860173ffffffffffffffffffffffffffffffffffffffff809251167fffffffffffffffffffffffff0000000000000000000000000000000000000000825416179055600786019251167fffffffffffffffffffffff00000000000000000000000000000000000000000074ff000000000000000000000000000000000000000084549351151560a01b169216171790555191015560035495869542610ad6565b9060405192610a0c81610a4c565b8352878301526040820152a2604051908152f35b6024836011897f4e487b7100000000000000000000000000000000000000000000000000000000835252fd5b60041115610a5657565b7f4e487b7100000000000000000000000000000000000000000000000000000000600052602160045260246000fd5b73ffffffffffffffffffffffffffffffffffffffff600054163303610aa657565b60246040517f118cdaa7000000000000000000000000000000000000000000000000000000008152336004820152fd5b91908201809211610ae357565b7f4e487b7100000000000000000000000000000000000000000000000000000000600052601160045260246000fd5b60405190610160820182811067ffffffffffffffff821117610b3357604052565b7f4e487b7100000000000000000000000000000000000000000000000000000000600052604160045260246000fd5b91908203918211610ae35756fea26469706673582212204dec78207f82c68579f36dc3bb44dfb284d01f3d8db255fb4fc76de96c95819564736f6c63430008140033",
  "linkReferences": {},
  "deployedLinkReferences": {}
}