{
  "_format": "hh-sol-artifact-1",
  "contractName": "BehaviorAuditor",
  "sourceName": "contracts/layer7/auditing/BehaviorAuditor.sol",
  "abi": [
    {
      "inputs": [],
      "stateMutability": "nonpayable",
      "type": "constructor"
    },
    {
      "inputs": [],
      "name": "AccessControlBadConfirmation",
      "type": "error"
    },
    {
      "inputs": [
        {
          "internalType": "address",
          "name": "account",
          "type": "address"
        },
        {
          "internalType": "bytes32",
          "name": "neededRole",
          "type": "bytes32"
        }
      ],
      "name": "AccessControlUnauthorizedAccount",
      "type": "error"
    },
    {
      "anonymous": false,
      "inputs": [
        {
          "indexed": true,
          "internalType": "uint256",
          "name": "entityId",
          "type": "uint256"
        },
        {
          "indexed": true,
          "internalType": "bytes32",
          "name": "ruleId",
          "type": "bytes32"
        },
        {
          "indexed": false,
          "internalType": "uint256",
          "name": "severity",
          "type": "uint256"
        }
      ],
      "name": "AnomalyDetected",
      "type": "event"
    },
    {
      "anonymous": false,
      "inputs": [
        {
          "indexed": true,
          "internalType": "uint256",
          "name": "entityId",
          "type": "uint256"
        },
        {
          "indexed": false,
          "internalType": "uint256",
          "name": "riskScore",
          "type": "uint256"
        }
      ],
      "name": "AuditCompleted",
      "type": "event"
    },
    {
      "anonymous": false,
      "inputs": [
        {
          "indexed": true,
          "internalType": "uint256",
          "name": "entityId",
          "type": "uint256"
        },
        {
          "indexed": false,
          "internalType": "uint256",
          "name": "riskScore",
          "type": "uint256"
        }
      ],
      "name": "EntityFlagged",
      "type": "event"
    },
    {
      "anonymous": false,
      "inputs": [
        {
          "indexed": true,
          "internalType": "bytes32",
          "name": "role",
          "type": "bytes32"
        },
        {
          "indexed": true,
          "internalType": "bytes32",
          "name": "previousAdminRole",
          "type": "bytes32"
        },
        {
          "indexed": true,
          "internalType": "bytes32",
          "name": "newAdminRole",
          "type": "bytes32"
        }
      ],
      "name": "RoleAdminChanged",
      "type": "event"
    },
    {
      "anonymous": false,
      "inputs": [
        {
          "indexed": true,
          "internalType": "bytes32",
          "name": "role",
          "type": "bytes32"
        },
        {
          "indexed": true,
          "internalType": "address",
          "name": "account",
          "type": "address"
        },
        {
          "indexed": true,
          "internalType": "address",
          "name": "sender",
          "type": "address"
        }
      ],
      "name": "RoleGranted",
      "type": "event"
    },
    {
      "anonymous": false,
      "inputs": [
        {
          "indexed": true,
          "internalType": "bytes32",
          "name": "role",
          "type": "bytes32"
        },
        {
          "indexed": true,
          "internalType": "address",
          "name": "account",
          "type": "address"
        },
        {
          "indexed": true,
          "internalType": "address",
          "name": "sender",
          "type": "address"
        }
      ],
      "name": "RoleRevoked",
      "type": "event"
    },
    {
      "inputs": [],
      "name": "AUDITOR_ROLE",
      "outputs": [
        {
          "internalType": "bytes32",
          "name": "",
          "type": "bytes32"
        }
      ],
      "stateMutability": "view",
      "type": "function"
    },
    {
      "inputs": [],
      "name": "DEFAULT_ADMIN_ROLE",
      "outputs": [
        {
          "internalType": "bytes32",
          "name": "",
          "type": "bytes32"
        }
      ],
      "stateMutability": "view",
      "type": "function"
    },
    {
      "inputs": [],
      "name": "HIGH_RISK_THRESHOLD",
      "outputs": [
        {
          "internalType": "uint256",
          "name": "",
          "type": "uint256"
        }
      ],
      "stateMutability": "view",
      "type": "function"
    },
    {
      "inputs": [],
      "name": "auditCount",
      "outputs": [
        {
          "internalType": "uint256",
          "name": "",
          "type": "uint256"
        }
      ],
      "stateMutability": "view",
      "type": "function"
    },
    {
      "inputs": [
        {
          "internalType": "uint256",
          "name": "entityId",
          "type": "uint256"
        },
        {
          "internalType": "uint256",
          "name": "recentActions",
          "type": "uint256"
        },
        {
          "internalType": "uint256",
          "name": "recentFailures",
          "type": "uint256"
        },
        {
          "internalType": "int256",
          "name": "reputationDelta",
          "type": "int256"
        }
      ],
      "name": "auditEntity",
      "outputs": [
        {
          "internalType": "uint256",
          "name": "riskScore",
          "type": "uint256"
        }
      ],
      "stateMutability": "nonpayable",
      "type": "function"
    },
    {
      "inputs": [
        {
          "internalType": "uint256",
          "name": "entityId",
          "type": "uint256"
        }
      ],
      "name": "clearFlag",
      "outputs": [],
      "stateMutability": "nonpayable",
      "type": "function"
    },
    {
      "inputs": [
        {
          "internalType": "bytes32",
          "name": "ruleId",
          "type": "bytes32"
        },
        {
          "internalType": "string",
          "name": "description",
          "type": "string"
        },
        {
          "internalType": "uint256",
          "name": "threshold",
          "type": "uint256"
        },
        {
          "internalType": "uint256",
          "name": "severity",
          "type": "uint256"
        }
      ],
      "name": "createRule",
      "outputs": [],
      "stateMutability": "nonpayable",
      "type": "function"
    },
    {
      "inputs": [
        {
          "internalType": "uint256",
          "name": "",
          "type": "uint256"
        },
        {
          "internalType": "uint256",
          "name": "",
          "type": "uint256"
        }
      ],
      "name": "entityAnomalies",
      "outputs": [
        {
          "internalType": "bytes32",
          "name": "",
          "type": "bytes32"
        }
      ],
      "stateMutability": "view",
      "type": "function"
    },
    {
      "inputs": [
        {
          "internalType": "uint256",
          "name": "entityId",
          "type": "uint256"
        }
      ],
      "name": "getRiskProfile",
      "outputs": [
        {
          "internalType": "uint256",
          "name": "riskScore",
          "type": "uint256"
        },
        {
          "internalType": "bool",
          "name": "flagged",
          "type": "bool"
        },
        {
          "internalType": "uint256",
          "name": "suspiciousActions",
          "type": "uint256"
        },
        {
          "internalType": "uint256",
          "name": "totalActions",
          "type": "uint256"
        }
      ],
      "stateMutability": "view",
      "type": "function"
    },
    {
      "inputs": [
        {
          "internalType": "bytes32",
          "name": "role",
          "type": "bytes32"
        }
      ],
      "name": "getRoleAdmin",
      "outputs": [
        {
          "internalType": "bytes32",
          "name": "",
          "type": "bytes32"
        }
      ],
      "stateMutability": "view",
      "type": "function"
    },
    {
      "inputs": [
        {
          "internalType": "bytes32",
          "name": "role",
          "type": "bytes32"
        },
        {
          "internalType": "address",
          "name": "account",
          "type": "address"
        }
      ],
      "name": "grantRole",
      "outputs": [],
      "stateMutability": "nonpayable",
      "type": "function"
    },
    {
      "inputs": [
        {
          "internalType": "bytes32",
          "name": "role",
          "type": "bytes32"
        },
        {
          "internalType": "address",
          "name": "account",
          "type": "address"
        }
      ],
      "name": "hasRole",
      "outputs": [
        {
          "internalType": "bool",
          "name": "",
          "type": "bool"
        }
      ],
      "stateMutability": "view",
      "type": "function"
    },
    {
      "inputs": [
        {
          "internalType": "uint256",
          "name": "",
          "type": "uint256"
        }
      ],
      "name": "profiles",
      "outputs": [
        {
          "internalType": "uint256",
          "name": "entityId",
          "type": "uint256"
        },
        {
          "internalType": "uint256",
          "name": "totalActions",
          "type": "uint256"
        },
        {
          "internalType": "uint256",
          "name": "suspiciousActions",
          "type": "uint256"
        },
        {
          "internalType": "uint256",
          "name": "lastAuditTime",
          "type": "uint256"
        },
        {
          "internalType": "uint256",
          "name": "riskScore",
          "type": "uint256"
        },
        {
          "internalType": "bool",
          "name": "flaggedForReview",
          "type": "bool"
        }
      ],
      "stateMutability": "view",
      "type": "function"
    },
    {
      "inputs": [
        {
          "internalType": "bytes32",
          "name": "role",
          "type": "bytes32"
        },
        {
          "internalType": "address",
          "name": "callerConfirmation",
          "type": "address"
        }
      ],
      "name": "renounceRole",
      "outputs": [],
      "stateMutability": "nonpayable",
      "type": "function"
    },
    {
      "inputs": [
        {
          "internalType": "bytes32",
          "name": "role",
          "type": "bytes32"
        },
        {
          "internalType": "address",
          "name": "account",
          "type": "address"
        }
      ],
      "name": "revokeRole",
      "outputs": [],
      "stateMutability": "nonpayable",
      "type": "function"
    },
    {
      "inputs": [
        {
          "internalType": "bytes32",
          "name": "",
          "type": "bytes32"
        }
      ],
      "name": "rules",
      "outputs": [
        {
          "internalType": "bytes32",
          "name": "ruleId",
          "type": "bytes32"
        },
        {
          "internalType": "string",
          "name": "description",
          "type": "string"
        },
        {
          "internalType": "uint256",
          "name": "threshold",
          "type": "uint256"
        },
        {
          "internalType": "uint256",
          "name": "severity",
          "type": "uint256"
        },
        {
          "internalType": "bool",
          "name": "isActive",
          "type": "bool"
        }
      ],
      "stateMutability": "view",
      "type": "function"
    },
    {
      "inputs": [
        {
          "internalType": "bytes4",
          "name": "interfaceId",
          "type": "bytes4"
        }
      ],
      "name": "supportsInterface",
      "outputs": [
        {
          "internalType": "bool",
          "name": "",
          "type": "bool"
        }
      ],
      "stateMutability": "view",
      "type": "function"
    }
  ],
  "bytecode": "0x6080604052346200068457620000153362000689565b50620000213362000709565b506200002c620007ab565b7f2f21ec1a442da980e68c425c6bf3206964aa032076ed4d1489fc47442ba2e25280825260408051919082016001600160401b03811183821017620004f257604052601982527f416374696f6e206661696c7572652072617465203e20353025000000000000006020830152602083019182526032604084015260066060840152600160808401526000526002602052604060002090825182555180519060018060401b038211620004f2576001830154600181811c9116801562000679575b6020821014620004d157601f811162000629575b50602090601f8311600114620005c65793826004936080936200016997600092620003fb575b50508160011b916000199060031b1c19161760018501555b60408101516002850155606081015160038501550151151591019060ff801983541691151516179055565b62000173620007ab565b7fb8cd9118f33136b56989b531f952a15e460dcb1b7719049fc3233e237b270500808252620001a1620007cb565b90602782527f52657075746174696f6e206368616e6765203e2031303020696e2073686f7274602083015266081c195c9a5bd960ca1b6040830152602083019182526064604084015260086060840152600160808401526000526002602052604060002090825182555180519060018060401b038211620004f2576001830154600181811c91168015620005bb575b6020821014620004d157601f81116200056b575b50602090601f831160011462000508579382600493608093620002ab97600092620003fb5750508160011b916000199060031b1c191617600185015560408101516002850155606081015160038501550151151591019060ff801983541691151516179055565b620002b5620007ab565b7f73dbc7a09f3730e73569aa9712b473429246b4ef91dac354cab3500cb6d8c305808252620002e3620007cb565b90602582527f4d6f7265207468616e2031303020616374696f6e7320696e2061756469742070602083015264195c9a5bd960da1b6040830152602083019182526064604084015260076060840152600160808401526000526002602052604060002090825182555180519060018060401b038211620004f2576001830154600181811c91168015620004e7575b6020821014620004d157601f811162000485575b50602090601f831160011462000407579382600493608093620003eb97600092620003fb5750508160011b916000199060031b1c191617600185015560408101516002850155606081015160038501550151151591019060ff801983541691151516179055565b604051610f859081620007ec8239f35b01519050388062000126565b906001840160005260206000209160005b601f19851681106200046c575083608093620003eb9793600193600497601f1981161062000452575b505050811b0160018501556200013e565b015160001960f88460031b161c1916905538808062000441565b9192602060018192868501518155019401920162000418565b600184016000526020600020601f840160051c810160208510620004c9575b601f830160051c82018110620004bc57505062000384565b60008155600101620004a4565b5080620004a4565b634e487b7160e01b600052602260045260246000fd5b90607f169062000370565b634e487b7160e01b600052604160045260246000fd5b906001840160005260206000209160005b601f198516811062000552575083608093620002ab9793600193600497601f198116106200045257505050811b0160018501556200013e565b9192602060018192868501518155019401920162000519565b600184016000526020600020601f840160051c81019160208510620005b0575b601f0160051c01905b818110620005a3575062000244565b6000815560010162000594565b90915081906200058b565b90607f169062000230565b906001840160005260206000209160005b601f198516811062000610575083608093620001699793600193600497601f198116106200045257505050811b0160018501556200013e565b91926020600181928685015181550194019201620005d7565b600184016000526020600020601f840160051c810191602085106200066e575b601f0160051c01905b81811062000661575062000100565b6000815560010162000652565b909150819062000649565b90607f1690620000ec565b600080fd5b6001600160a01b031660008181527fad3228b676f7d3cd4284a5443f17f1962b36e491b30a40b2405849e597ba5fb5602052604081205490919060ff166200070557818052816020526040822081835260205260408220600160ff198254161790553391600080516020620017718339815191528180a4600190565b5090565b6001600160a01b031660008181527f0d2d6a5d08cb5d871289c0a3ca855d9da72909a111c24cce2d5c2b34a20daa5460205260408120549091907f59a1c48e5837ad7a7f3dcedcbe129bf3249ec4fbf651fd4f5e2600ead39fe2f59060ff16620007a657808352826020526040832082845260205260408320600160ff1982541617905560008051602062001771833981519152339380a4600190565b505090565b6040519060a082016001600160401b03811183821017620004f257604052565b60405190606082016001600160401b03811183821017620004f25760405256fe6080604081815260048036101561001557600080fd5b600092833560e01c90816301ffc9a714610bcc575080630be2e19214610baf578063216b857714610a4d578063248a9ca314610a245780632f2ff15d14610a0657806336568abe146109a45780636a308bd3146105985780636e1d616e1461055d57838163739471ca146105215750806391d14854146104db5780639dcbd55c146104bf5780639ec39e2f1461046f578063a217fddf14610454578063c36fe3d6146103f2578063d4e80a47146103a9578063d547741f146103705763d6a10242146100e057600080fd5b346103565760806003193601126103565780356024803567ffffffffffffffff80821161036c573660238301121561036c578185013581811161035a57865191886020947fffffffffffffffffffffffffffffffffffffffffffffffffffffffffffffffe0936101578786601f8401160187610ca5565b808652368882840101116103565780888893018388013785010152888052888452878920338a52845260ff888a205416156103215787519560a087018781108382111761030f57895280875284870193845288870194604435865260608801966064358852608089019a600193848d528d52600283528c209851895582890195519081519485116102fe57506101ed8654610c6b565b601f81116102b6575b5081601f8511600114610254575083945090839293918c93610247575b505060001991921b9260031b1c19161790555b516002830155516003820155019051151560ff60ff19835416911617905580f35b0151915060001938610213565b84908d949682169088865280862095905b8883831061029c5750505010610283575b505050811b019055610226565b015160001960f88460031b161c19169055388080610276565b858701518855909601959485019487935090810190610265565b868d52828d20601f860160051c8101918487106102f4575b601f0160051c019084908e5b8382106102e9575050506101f6565b81550184908e6102da565b90915081906102ce565b8c60418c634e487b7160e01b835252fd5b868b60418b634e487b7160e01b835252fd5b6044878a878b51927fe2517d3f0000000000000000000000000000000000000000000000000000000084523390840152820152fd5b8280fd5b8388604188634e487b7160e01b835252fd5b8680fd5b5050346103a55760016103a19161039c61038936610cfc565b9390928387528660205286200154610df5565b610ea7565b5080f35b5080fd5b5091346103ef57816003193601126103ef576024359235815260036020528181209081548410156103ef57506020926103e191610d34565b90549060031b1c9051908152f35b80fd5b509034610356576020600319360112610356578060c0938335815260016020522080549260018201549260028301549060ff600560038601549486015495015416948151968752602087015285015260608401526080830152151560a0820152f35b5050346103a557816003193601126103a55751908152602090f35b509034610356576020600319360112610356578060809383358152600160205220918201549160ff6005820154169160016002830154920154928151948552151560208501528301526060820152f35b5050346103a557816003193601126103a5576020905160468152f35b5050346103a55760ff816020936104f136610cfc565b90825281865273ffffffffffffffffffffffffffffffffffffffff83832091168252855220541690519015158152f35b929050346105595760206003193601126105595761053d610d62565b81358352600160205282206005810160ff198154169055015580f35b5050fd5b5050346103a557816003193601126103a557602090517f59a1c48e5837ad7a7f3dcedcbe129bf3249ec4fbf651fd4f5e2600ead39fe2f58152f35b509034610356576080600319360112610356576044359180359060643560248035906105c2610d62565b848852600192602098848a528781209387855585850180549082820180921161099257556003924284870155829a82158015610886575b50506064811390811561085c575b5061077c575b6064106106a0575b50505085838201556046861015610663575b50506106338154610f2a565b90557fdc1e6407cb902c85f8825fe5afb1b7619ebc9320cdb38adc1dcc6d573d1a29b8848351858152a251908152f35b6005019060ff19825416179055817fcb9d36f2671cb6123943306615012db547670d4ae1293376da25ecbe95cdb418868551878152a23880610627565b9091976019810180911161076a5797868252828a52878220805491680100000000000000008310156107595750916106e082600294888c95018155610d34565b8154951b7f73dbc7a09f3730e73569aa9712b473429246b4ef91dac354cab3500cb6d8c3059560001987831b921b1916179055878152858b5220016107258154610f2a565b9055847fceff052d95d37ee9dace195ab0f71f0d2b699840e6bbed8c8fb74f1e86b5fed189885160078152a3388080610615565b83604189634e487b7160e01b835252fd5b8882601188634e487b7160e01b835252fd5b98601e810180911161084a5798878252828b528882208054906801000000000000000082101561083857897fceff052d95d37ee9dace195ab0f71f0d2b699840e6bbed8c8fb74f1e86b5fed18e60026107df8f9596606498978e82018155610d34565b95908054968b1b7fb8cd9118f33136b56989b531f952a15e460dcb1b7719049fc3233e237b2705009760001989831b921b19161790558489528c83528820016108288154610f2a565b90558d5160088152a3905061060d565b858460418b634e487b7160e01b835252fd5b8382601189634e487b7160e01b835252fd5b7fffffffffffffffffffffffffffffffffffffffffffffffffffffffffffffff9c91501238610607565b6064820291808304606414901517156109805761096e578260329104116108af575b38806105f9565b888352838c52898320805460149c50906801000000000000000082101561095c577fceff052d95d37ee9dace195ab0f71f0d2b699840e6bbed8c8fb74f1e86b5fed18e60026109058f958f958e82018155610d34565b95908054968b1b7f2f21ec1a442da980e68c425c6bf3206964aa032076ed4d1489fc47442ba2e2529760001989831b921b19161790558489528c835288200161094e8154610f2a565b90558d5160068152a36108a8565b868560418c634e487b7160e01b835252fd5b858460128b634e487b7160e01b835252fd5b868560118c634e487b7160e01b835252fd5b858460118b634e487b7160e01b835252fd5b509190346103a5576109b536610cfc565b913373ffffffffffffffffffffffffffffffffffffffff8416036109de5750906103a191610ea7565b8490517f6697b232000000000000000000000000000000000000000000000000000000008152fd5b5050346103a55760016103a191610a1f61038936610cfc565b610e1b565b503461035657602060031936011261035657816020936001923581528085522001549051908152f35b508290346103a5576020908160031936011261035657803583526002825283832090815494600194858401825180978390835493610a8a85610c6b565b948585528a8382169182600014610b8c575050600114610b4f575b5050610abb925098969895949392950387610ca5565b60ff600284015492600385015494015416938151978896875260a0818801528751978860a0890152825b898110610b38575050509286927fffffffffffffffffffffffffffffffffffffffffffffffffffffffffffffffe09592601f9560c0809a8a01015287015260608601521515608085015201168101030190f35b8181018301518b820160c001528a98508201610ae5565b89925085528185209085915b858310610b73575050610abb93508201018a80610aa5565b8194848483969596549201015201910189928992610b5b565b91509350610abb95925060ff1991501682840152151560051b8201018a80610aa5565b503461035657826003193601126103565760209250549051908152f35b9250503461035657602060031936011261035657357fffffffff00000000000000000000000000000000000000000000000000000000811680910361035657602092507f7965db0b000000000000000000000000000000000000000000000000000000008114908115610c41575b5015158152f35b7f01ffc9a70000000000000000000000000000000000000000000000000000000091501438610c3a565b90600182811c92168015610c9b575b6020831014610c8557565b634e487b7160e01b600052602260045260246000fd5b91607f1691610c7a565b90601f7fffffffffffffffffffffffffffffffffffffffffffffffffffffffffffffffe0910116810190811067ffffffffffffffff821117610ce657604052565b634e487b7160e01b600052604160045260246000fd5b6003196040910112610d2f576004359060243573ffffffffffffffffffffffffffffffffffffffff81168103610d2f5790565b600080fd5b8054821015610d4c5760005260206000200190600090565b634e487b7160e01b600052603260045260246000fd5b3360009081527f0d2d6a5d08cb5d871289c0a3ca855d9da72909a111c24cce2d5c2b34a20daa5460205260409020547f59a1c48e5837ad7a7f3dcedcbe129bf3249ec4fbf651fd4f5e2600ead39fe2f59060ff1615610dbe5750565b604490604051907fe2517d3f0000000000000000000000000000000000000000000000000000000082523360048301526024820152fd5b80600052600060205260406000203360005260205260ff6040600020541615610dbe5750565b906000918083528260205273ffffffffffffffffffffffffffffffffffffffff6040842092169182845260205260ff60408420541615600014610ea257808352826020526040832082845260205260408320600160ff198254161790557f2f8788117e7eff1d82e926ec794901d17c78024a50270940304540a733656f0d339380a4600190565b505090565b906000918083528260205273ffffffffffffffffffffffffffffffffffffffff6040842092169182845260205260ff604084205416600014610ea25780835282602052604083208284526020526040832060ff1981541690557ff6391f5c32d9c69d2a47ea670b442974b53935d1edc7fd64eb21e047a839171b339380a4600190565b6000198114610f395760010190565b634e487b7160e01b600052601160045260246000fdfea26469706673582212206b91ba9ce598435e2a19ea12f018f4752643694c3234a91fbddae1a22ac2f8fe64736f6c634300081400332f8788117e7eff1d82e926ec794901d17c78024a50270940304540a733656f0d",
  "linkReferences": {},
  "deployedLinkReferences": {}
}