{
  "_format": "hh-sol-artifact-1",
  "contractName": "PriceOracles",
  "sourceName": "contracts/layer6/pricing/PriceOracles.sol",
  "abi": [
    {
      "inputs": [],
      "stateMutability": "nonpayable",
      "type": "constructor"
    },
    {
      "inputs": [],
      "name": "AccessControlBadConfirmation",
      "type": "error"
    },
    {
      "inputs": [
        {
          "internalType": "address",
          "name": "account",
          "type": "address"
        },
        {
          "internalType": "bytes32",
          "name": "neededRole",
          "type": "bytes32"
        }
      ],
      "name": "AccessControlUnauthorizedAccount",
      "type": "error"
    },
    {
      "anonymous": false,
      "inputs": [
        {
          "indexed": true,
          "internalType": "uint256",
          "name": "feedId",
          "type": "uint256"
        },
        {
          "indexed": false,
          "internalType": "string",
          "name": "assetId",
          "type": "string"
        },
        {
          "indexed": false,
          "internalType": "uint256",
          "name": "initialPrice",
          "type": "uint256"
        }
      ],
      "name": "FeedCreated",
      "type": "event"
    },
    {
      "anonymous": false,
      "inputs": [
        {
          "indexed": true,
          "internalType": "uint256",
          "name": "feedId",
          "type": "uint256"
        }
      ],
      "name": "FeedDeactivated",
      "type": "event"
    },
    {
      "anonymous": false,
      "inputs": [
        {
          "indexed": true,
          "internalType": "uint256",
          "name": "feedId",
          "type": "uint256"
        },
        {
          "indexed": false,
          "internalType": "string",
          "name": "assetId",
          "type": "string"
        },
        {
          "indexed": false,
          "internalType": "uint256",
          "name": "oldPrice",
          "type": "uint256"
        },
        {
          "indexed": false,
          "internalType": "uint256",
          "name": "newPrice",
          "type": "uint256"
        }
      ],
      "name": "PriceUpdated",
      "type": "event"
    },
    {
      "anonymous": false,
      "inputs": [
        {
          "indexed": true,
          "internalType": "bytes32",
          "name": "role",
          "type": "bytes32"
        },
        {
          "indexed": true,
          "internalType": "bytes32",
          "name": "previousAdminRole",
          "type": "bytes32"
        },
        {
          "indexed": true,
          "internalType": "bytes32",
          "name": "newAdminRole",
          "type": "bytes32"
        }
      ],
      "name": "RoleAdminChanged",
      "type": "event"
    },
    {
      "anonymous": false,
      "inputs": [
        {
          "indexed": true,
          "internalType": "bytes32",
          "name": "role",
          "type": "bytes32"
        },
        {
          "indexed": true,
          "internalType": "address",
          "name": "account",
          "type": "address"
        },
        {
          "indexed": true,
          "internalType": "address",
          "name": "sender",
          "type": "address"
        }
      ],
      "name": "RoleGranted",
      "type": "event"
    },
    {
      "anonymous": false,
      "inputs": [
        {
          "indexed": true,
          "internalType": "bytes32",
          "name": "role",
          "type": "bytes32"
        },
        {
          "indexed": true,
          "internalType": "address",
          "name": "account",
          "type": "address"
        },
        {
          "indexed": true,
          "internalType": "address",
          "name": "sender",
          "type": "address"
        }
      ],
      "name": "RoleRevoked",
      "type": "event"
    },
    {
      "inputs": [],
      "name": "DEFAULT_ADMIN_ROLE",
      "outputs": [
        {
          "internalType": "bytes32",
          "name": "",
          "type": "bytes32"
        }
      ],
      "stateMutability": "view",
      "type": "function"
    },
    {
      "inputs": [],
      "name": "ORACLE_ROLE",
      "outputs": [
        {
          "internalType": "bytes32",
          "name": "",
          "type": "bytes32"
        }
      ],
      "stateMutability": "view",
      "type": "function"
    },
    {
      "inputs": [
        {
          "internalType": "string",
          "name": "",
          "type": "string"
        }
      ],
      "name": "assetToFeed",
      "outputs": [
        {
          "internalType": "uint256",
          "name": "",
          "type": "uint256"
        }
      ],
      "stateMutability": "view",
      "type": "function"
    },
    {
      "inputs": [
        {
          "internalType": "string",
          "name": "assetId",
          "type": "string"
        },
        {
          "internalType": "uint256",
          "name": "initialPrice",
          "type": "uint256"
        }
      ],
      "name": "createFeed",
      "outputs": [
        {
          "internalType": "uint256",
          "name": "",
          "type": "uint256"
        }
      ],
      "stateMutability": "nonpayable",
      "type": "function"
    },
    {
      "inputs": [
        {
          "internalType": "uint256",
          "name": "feedId",
          "type": "uint256"
        }
      ],
      "name": "deactivateFeed",
      "outputs": [],
      "stateMutability": "nonpayable",
      "type": "function"
    },
    {
      "inputs": [
        {
          "internalType": "uint256",
          "name": "",
          "type": "uint256"
        }
      ],
      "name": "feeds",
      "outputs": [
        {
          "internalType": "uint256",
          "name": "feedId",
          "type": "uint256"
        },
        {
          "internalType": "string",
          "name": "assetId",
          "type": "string"
        },
        {
          "internalType": "uint256",
          "name": "currentPrice",
          "type": "uint256"
        },
        {
          "internalType": "uint256",
          "name": "previousPrice",
          "type": "uint256"
        },
        {
          "internalType": "uint256",
          "name": "high24h",
          "type": "uint256"
        },
        {
          "internalType": "uint256",
          "name": "low24h",
          "type": "uint256"
        },
        {
          "internalType": "uint256",
          "name": "volume24h",
          "type": "uint256"
        },
        {
          "internalType": "uint256",
          "name": "lastUpdated",
          "type": "uint256"
        },
        {
          "internalType": "uint256",
          "name": "updateCount",
          "type": "uint256"
        },
        {
          "internalType": "address",
          "name": "lastUpdater",
          "type": "address"
        },
        {
          "internalType": "bool",
          "name": "isActive",
          "type": "bool"
        },
        {
          "internalType": "uint256",
          "name": "confidence",
          "type": "uint256"
        }
      ],
      "stateMutability": "view",
      "type": "function"
    },
    {
      "inputs": [
        {
          "internalType": "string",
          "name": "assetId",
          "type": "string"
        }
      ],
      "name": "getPrice",
      "outputs": [
        {
          "internalType": "uint256",
          "name": "price",
          "type": "uint256"
        },
        {
          "internalType": "uint256",
          "name": "timestamp",
          "type": "uint256"
        },
        {
          "internalType": "bool",
          "name": "isStale",
          "type": "bool"
        }
      ],
      "stateMutability": "view",
      "type": "function"
    },
    {
      "inputs": [
        {
          "internalType": "uint256",
          "name": "feedId",
          "type": "uint256"
        }
      ],
      "name": "getPriceChange",
      "outputs": [
        {
          "internalType": "int256",
          "name": "changePercent",
          "type": "int256"
        }
      ],
      "stateMutability": "view",
      "type": "function"
    },
    {
      "inputs": [
        {
          "internalType": "uint256",
          "name": "feedId",
          "type": "uint256"
        }
      ],
      "name": "getPriceHistory",
      "outputs": [
        {
          "components": [
            {
              "internalType": "uint256",
              "name": "price",
              "type": "uint256"
            },
            {
              "internalType": "uint256",
              "name": "timestamp",
              "type": "uint256"
            },
            {
              "internalType": "address",
              "name": "reporter",
              "type": "address"
            }
          ],
          "internalType": "struct PriceOracles.PricePoint[]",
          "name": "",
          "type": "tuple[]"
        }
      ],
      "stateMutability": "view",
      "type": "function"
    },
    {
      "inputs": [
        {
          "internalType": "bytes32",
          "name": "role",
          "type": "bytes32"
        }
      ],
      "name": "getRoleAdmin",
      "outputs": [
        {
          "internalType": "bytes32",
          "name": "",
          "type": "bytes32"
        }
      ],
      "stateMutability": "view",
      "type": "function"
    },
    {
      "inputs": [
        {
          "internalType": "bytes32",
          "name": "role",
          "type": "bytes32"
        },
        {
          "internalType": "address",
          "name": "account",
          "type": "address"
        }
      ],
      "name": "grantRole",
      "outputs": [],
      "stateMutability": "nonpayable",
      "type": "function"
    },
    {
      "inputs": [
        {
          "internalType": "bytes32",
          "name": "role",
          "type": "bytes32"
        },
        {
          "internalType": "address",
          "name": "account",
          "type": "address"
        }
      ],
      "name": "hasRole",
      "outputs": [
        {
          "internalType": "bool",
          "name": "",
          "type": "bool"
        }
      ],
      "stateMutability": "view",
      "type": "function"
    },
    {
      "inputs": [],
      "name": "maxHistoryLength",
      "outputs": [
        {
          "internalType": "uint256",
          "name": "",
          "type": "uint256"
        }
      ],
      "stateMutability": "view",
      "type": "function"
    },
    {
      "inputs": [
        {
          "internalType": "uint256",
          "name": "",
          "type": "uint256"
        },
        {
          "internalType": "uint256",
          "name": "",
          "type": "uint256"
        }
      ],
      "name": "priceHistory",
      "outputs": [
        {
          "internalType": "uint256",
          "name": "price",
          "type": "uint256"
        },
        {
          "internalType": "uint256",
          "name": "timestamp",
          "type": "uint256"
        },
        {
          "internalType": "address",
          "name": "reporter",
          "type": "address"
        }
      ],
      "stateMutability": "view",
      "type": "function"
    },
    {
      "inputs": [
        {
          "internalType": "bytes32",
          "name": "role",
          "type": "bytes32"
        },
        {
          "internalType": "address",
          "name": "callerConfirmation",
          "type": "address"
        }
      ],
      "name": "renounceRole",
      "outputs": [],
      "stateMutability": "nonpayable",
      "type": "function"
    },
    {
      "inputs": [
        {
          "internalType": "bytes32",
          "name": "role",
          "type": "bytes32"
        },
        {
          "internalType": "address",
          "name": "account",
          "type": "address"
        }
      ],
      "name": "revokeRole",
      "outputs": [],
      "stateMutability": "nonpayable",
      "type": "function"
    },
    {
      "inputs": [
        {
          "internalType": "uint256",
          "name": "threshold",
          "type": "uint256"
        }
      ],
      "name": "setStalePriceThreshold",
      "outputs": [],
      "stateMutability": "nonpayable",
      "type": "function"
    },
    {
      "inputs": [],
      "name": "stalePriceThreshold",
      "outputs": [
        {
          "internalType": "uint256",
          "name": "",
          "type": "uint256"
        }
      ],
      "stateMutability": "view",
      "type": "function"
    },
    {
      "inputs": [
        {
          "internalType": "bytes4",
          "name": "i",
          "type": "bytes4"
        }
      ],
      "name": "supportsInterface",
      "outputs": [
        {
          "internalType": "bool",
          "name": "",
          "type": "bool"
        }
      ],
      "stateMutability": "view",
      "type": "function"
    },
    {
      "inputs": [],
      "name": "totalFeeds",
      "outputs": [
        {
          "internalType": "uint256",
          "name": "",
          "type": "uint256"
        }
      ],
      "stateMutability": "view",
      "type": "function"
    },
    {
      "inputs": [
        {
          "internalType": "uint256",
          "name": "feedId",
          "type": "uint256"
        },
        {
          "internalType": "uint256",
          "name": "newPrice",
          "type": "uint256"
        },
        {
          "internalType": "uint256",
          "name": "volume",
          "type": "uint256"
        }
      ],
      "name": "updatePrice",
      "outputs": [],
      "stateMutability": "nonpayable",
      "type": "function"
    }
  ],
  "bytecode": "0x608060405234610038576064600555610e1060065561001d3361003d565b50610027336100bc565b5060405161191590816200015e8239f35b600080fd5b6001600160a01b031660008181527fad3228b676f7d3cd4284a5443f17f1962b36e491b30a40b2405849e597ba5fb5602052604081205490919060ff166100b857818052816020526040822081835260205260408220600160ff19825416179055339160008051602062001a738339815191528180a4600190565b5090565b6001600160a01b031660008181527fa629f6981c2f6895a67dc766e8e03ff72d04a413d0d8773a3ca56e9e474032c160205260408120549091907f68e79a7bf1e0bc45d0a330c573bc367f9cf464fd326078812f301165fbda4ef19060ff1661015857808352826020526040832082845260205260408320600160ff1982541617905560008051602062001a73833981519152339380a4600190565b50509056fe608080604052600436101561001357600080fd5b60003560e01c90816301ffc9a71461112a5750806307e2cea5146110ef57806308cb2210146110d15780630f43612914610c06578063248a9ca314610bd75780632599af3414610bb65780632f2ff15d14610b8557806336568abe14610b2757806339cbe9e514610b095780633b0b037a14610ae3578063410eb0eb1461069f578063482f20a61461062f5780634a5479f314610555578063524f3889146103c45780635f0b20661461034a57806391d14854146102fc578063a217fddf146102e0578063d547741f146102ad578063d6a3614f1461028f578063e1f9c6f2146102325763fd1a98a51461010657600080fd5b3461022d5760208060031936011261022d5760043560005260048152604060002090815467ffffffffffffffff8111610217576040519061014c838260051b0183611234565b8082528282018094600052836000206000915b8383106101cb5760408051878152865181890181905289928201908960005b82811061018b5784840385f35b855180518552808301518584015260409081015173ffffffffffffffffffffffffffffffffffffffff16908501529481019460609093019260010161017e565b6003866001926040516101dd816111fb565b85548152848601548382015273ffffffffffffffffffffffffffffffffffffffff600287015416604082015281520192019201919061015f565b634e487b7160e01b600052604160045260246000fd5b600080fd5b3461022d57602060031936011261022d5760043567ffffffffffffffff811161022d5761027c602061026981933690600401611275565b816040519382858094519384920161141b565b8101600381520301902054604051908152f35b3461022d57600060031936011261022d576020600754604051908152f35b3461022d576102de6102be366111c8565b908060005260006020526102d96001604060002001546114f2565b6115c2565b005b3461022d57600060031936011261022d57602060405160008152f35b3461022d5761030a366111c8565b90600052600060205273ffffffffffffffffffffffffffffffffffffffff60406000209116600052602052602060ff604060002054166040519015158152f35b3461022d57602060031936011261022d57600435610366611481565b80600052600260205260096040600020017fffffffffffffffffffffff00ffffffffffffffffffffffffffffffffffffffff81541690557f96dde1928068ce73da8289fcf1c3d2f8fd1cddf43992eee2c6769fe2aa1c2e86600080a2005b3461022d5760208060031936011261022d5760043567ffffffffffffffff811161022d57816102696103fa923690600401611275565b810160038152030190205480156104f757600052600281526040600020906040519061042582611217565b8254825261043560018401611356565b818301526002830154918260408201526003840154606082015260048401546080820152600584015460a0820152600684015460c0820152610160600a6007860154958660e0850152600881015461010085015260ff600982015473ffffffffffffffffffffffffffffffffffffffff811661012087015260a01c1615156101408501520154910152824203924284116104e15760609360065410916040519384528301526040820152f35b634e487b7160e01b600052601160045260246000fd5b606482604051907f08c379a00000000000000000000000000000000000000000000000000000000082526004820152601160248201527f4e6f206665656420666f722061737365740000000000000000000000000000006044820152fd5b3461022d57602060031936011261022d5760043560005260026020526040600020805461058460018301611356565b9160028101549060ff600382015491600481015460058201546006830154600784015491600885015493600a6009870154960154976105d76040519c8d9c8d5260208d61018091829101528d019061143e565b9960408c015260608b015260808a015260a089015260c088015260e087015261010086015273ffffffffffffffffffffffffffffffffffffffff811661012086015260a01c1615156101408401526101608301520390f35b3461022d57604060031936011261022d5760243560043560005260046020526040600020805482101561022d57606091610668916112ea565b5080549073ffffffffffffffffffffffffffffffffffffffff60026001830154920154169060405192835260208301526040820152f35b3461022d57604060031936011261022d5760043567ffffffffffffffff811161022d576106d0903690600401611275565b6106d8611481565b60405160208183516106ed818385880161141b565b8101600381520301902054610a85576107096024351515611663565b6107146001546116c8565b8060015560405161072481611217565b818152602081019083825260243560408201526024356060820152602435608082015260243560a0820152600060c08201524260e082015260006101008201523361012082015260016101408201526064610160820152826000526002602052604060002091815183555180519067ffffffffffffffff8211610217576107ae600185015461131c565b601f8111610a3e575b5091849391602096938790601f8311600114610965577f24626a763056c15f91aea57344041dfd0089f86484071952917f2a18456fffb49593836109489694600a946101609460009261095a575b50506000198260011b9260031b1c19161760018501555b60408101516002850155606081015160038501556080810151600485015560a0810151600585015560c0810151600685015560e0810151600785015561010081015160088501556009840173ffffffffffffffffffffffffffffffffffffffff610120830151168154907fffffffffffffffffffffff00000000000000000000000000000000000000000074ff0000000000000000000000000000000000000000610140860151151560a01b16921617179055015191015583604051878184516108e9818385890161141b565b81016003815203019020556108ff6007546116c8565b600755836000526004865261093460406000206040519061091f826111fb565b602435825242898301523360408301526116d7565b60405191829160408352604083019061143e565b602435878301520390a2604051908152f35b015190508c80610805565b9060018501600052886000209160005b7fffffffffffffffffffffffffffffffffffffffffffffffffffffffffffffffe085168110610a24575093600184600a94610160947f24626a763056c15f91aea57344041dfd0089f86484071952917f2a18456fffb49a98837fffffffffffffffffffffffffffffffffffffffffffffffffffffffffffffffe06109489c9a1610610a0b575b505050811b01600185015561081c565b015160001960f88460031b161c191690558c80806109fb565b818301518455899850600190930192918a01918a01610975565b600185016000526020600020601f840160051c810160208510610a7e575b601f830160051c82018110610a725750506107b7565b60008155600101610a5c565b5080610a5c565b60646040517f08c379a000000000000000000000000000000000000000000000000000000000815260206004820152601360248201527f4665656420616c726561647920657869737473000000000000000000000000006044820152fd5b3461022d57602060031936011261022d576020610b01600435611769565b604051908152f35b3461022d57600060031936011261022d576020600554604051908152f35b3461022d57610b35366111c8565b3373ffffffffffffffffffffffffffffffffffffffff821603610b5b576102de916115c2565b60046040517f6697b232000000000000000000000000000000000000000000000000000000008152fd5b3461022d576102de610b96366111c8565b90806000526000602052610bb16001604060002001546114f2565b611518565b3461022d57602060031936011261022d57610bcf611481565b600435600655005b3461022d57602060031936011261022d5760043560005260006020526020600160406000200154604051908152f35b3461022d57606060031936011261022d573360009081527fa629f6981c2f6895a67dc766e8e03ff72d04a413d0d8773a3ca56e9e474032c16020908152604090912054602491600435918335907f68e79a7bf1e0bc45d0a330c573bc367f9cf464fd326078812f301165fbda4ef19060ff161561109b575082600052600291828152604060002094600986019384549060ff8260a01c161561103e57610cad851515611663565b808801958587549760038b01988955558560048a0180548211611036575b5060058a018054821061102e575b505060068901805490604435820180921161101957554260078a015560088901610d0381546116c8565b90557fffffffffffffffffffffffff0000000000000000000000000000000000000000928333911617905586600052600484526040600020546005541115610ea8575b5050508360005260048152610d79604060002060405190610d66826111fb565b84825242848301523360408301526116d7565b60018095019254906040519360608552600096815491610d988361131c565b928360608901528281169081600014610e425750600114610de9575b877f186d4b233703ccf41406ec12771a5f7dfa8ffacda0970fc70308954f6bb6f57688808c8a8a8a84015260408301520390a2005b6000908152838120939850925b828410610e2e57505050830160800194817f186d4b233703ccf41406ec12771a5f7dfa8ffacda0970fc70308954f6bb6f57685610db4565b805487850160800152928801928101610df6565b7fffffffffffffffffffffffffffffffffffffffffffffffffffffffffffffff001660808981019190915293151560051b880190930198508492507f186d4b233703ccf41406ec12771a5f7dfa8ffacda0970fc70308954f6bb6f5769150869050610db4565b91969093959460005b8660005260048552604060002054600019810190811161100457811015610f8f578660005260048552604060002090600191828201808311610f7a57610ef6916112ea565b508860005260048752610f0d8260406000206112ea565b610f655786610f2794838303610f2c575b505050506116c8565b610eb1565b73ffffffffffffffffffffffffffffffffffffffff9282918554825580860154908201550192015416888254161790558a808681610f1e565b8b634e487b7160e01b60005260006004526000fd5b8b634e487b7160e01b60005260116004526000fd5b50949593509590856000526004835260406000209081548015610fef576000190192610fbb84846112ea565b919091610fdb575090816000809355826001820155015555858080610d46565b634e487b7160e01b60005260006004526000fd5b83634e487b7160e01b60005260316004526000fd5b89634e487b7160e01b60005260116004526000fd5b85634e487b7160e01b60005260116004526000fd5b55858a610cd9565b55858a610ccb565b606484600d85604051927f08c379a000000000000000000000000000000000000000000000000000000000845260048401528201527f4665656420696e616374697665000000000000000000000000000000000000006044820152fd5b84604491604051917fe2517d3f000000000000000000000000000000000000000000000000000000008352336004840152820152fd5b3461022d57600060031936011261022d576020600654604051908152f35b3461022d57600060031936011261022d5760206040517f68e79a7bf1e0bc45d0a330c573bc367f9cf464fd326078812f301165fbda4ef18152f35b3461022d57602060031936011261022d57600435907fffffffff00000000000000000000000000000000000000000000000000000000821680920361022d57817f7965db0b000000000000000000000000000000000000000000000000000000006020931490811561119e575b5015158152f35b7f01ffc9a70000000000000000000000000000000000000000000000000000000091501483611197565b600319604091011261022d576004359060243573ffffffffffffffffffffffffffffffffffffffff8116810361022d5790565b6060810190811067ffffffffffffffff82111761021757604052565b610180810190811067ffffffffffffffff82111761021757604052565b90601f7fffffffffffffffffffffffffffffffffffffffffffffffffffffffffffffffe0910116810190811067ffffffffffffffff82111761021757604052565b81601f8201121561022d5780359067ffffffffffffffff821161021757604051926112c860207fffffffffffffffffffffffffffffffffffffffffffffffffffffffffffffffe0601f8601160185611234565b8284526020838301011161022d57816000926020809301838601378301015290565b8054821015611306576000526003602060002091020190600090565b634e487b7160e01b600052603260045260246000fd5b90600182811c9216801561134c575b602083101461133657565b634e487b7160e01b600052602260045260246000fd5b91607f169161132b565b906040519182600082549261136a8461131c565b9081845260019485811690816000146113d95750600114611396575b505061139492500383611234565b565b9093915060005260209081600020936000915b8183106113c157505061139493508201013880611386565b855488840185015294850194879450918301916113a9565b90506113949550602093507fffffffffffffffffffffffffffffffffffffffffffffffffffffffffffffff0091501682840152151560051b8201013880611386565b60005b83811061142e5750506000910152565b818101518382015260200161141e565b907fffffffffffffffffffffffffffffffffffffffffffffffffffffffffffffffe0601f60209361147a8151809281875287808801910161141b565b0116010190565b3360009081527fad3228b676f7d3cd4284a5443f17f1962b36e491b30a40b2405849e597ba5fb5602052604081205460ff16156114bb5750565b604490604051907fe2517d3f0000000000000000000000000000000000000000000000000000000082523360048301526024820152fd5b80600052600060205260406000203360005260205260ff60406000205416156114bb5750565b906000918083528260205273ffffffffffffffffffffffffffffffffffffffff6040842092169182845260205260ff604084205416156000146115bd5780835282602052604083208284526020526040832060017fffffffffffffffffffffffffffffffffffffffffffffffffffffffffffffff008254161790557f2f8788117e7eff1d82e926ec794901d17c78024a50270940304540a733656f0d339380a4600190565b505090565b906000918083528260205273ffffffffffffffffffffffffffffffffffffffff6040842092169182845260205260ff6040842054166000146115bd578083528260205260408320828452602052604083207fffffffffffffffffffffffffffffffffffffffffffffffffffffffffffffff0081541690557ff6391f5c32d9c69d2a47ea670b442974b53935d1edc7fd64eb21e047a839171b339380a4600190565b1561166a57565b60646040517f08c379a000000000000000000000000000000000000000000000000000000000815260206004820152601160248201527f5072696365206d757374206265203e20300000000000000000000000000000006044820152fd5b60001981146104e15760010190565b805468010000000000000000811015610217576116f9916001820181556112ea565b611753576040600273ffffffffffffffffffffffffffffffffffffffff92845181556020850151600182015501920151167fffffffffffffffffffffffff0000000000000000000000000000000000000000825416179055565b634e487b7160e01b600052600060045260246000fd5b60009081526002602052604081206040519061178482611217565b8054825261179460018201611356565b60208301526002810154806040840152600382015492610160600a606083019486865260048101546080850152600581015460a0850152600681015460c0850152600781015460e0850152600881015461010085015260ff600982015473ffffffffffffffffffffffffffffffffffffffff811661012087015260a01c161515610140850152015491015282156118d95782810392848112828512811690838613901516176118c55761271080850294850514911417156118b1575191821561189d5760001983147f800000000000000000000000000000000000000000000000000000000000000083141661188957500590565b80634e487b7160e01b602492526011600452fd5b80634e487b7160e01b602492526012600452fd5b602483634e487b7160e01b81526011600452fd5b602485634e487b7160e01b81526011600452fd5b5050509056fea264697066735822122098c0ee62ada1ad330696abfef3b53a7d2c1cfa38f7f0ef047c758bc0f26403c864736f6c634300081400332f8788117e7eff1d82e926ec794901d17c78024a50270940304540a733656f0d",
  "linkReferences": {},
  "deployedLinkReferences": {}
}