{
  "_format": "hh-sol-artifact-1",
  "contractName": "AthleteNFT",
  "sourceName": "contracts/layer5/AthleteNFT.sol",
  "abi": [
    {
      "inputs": [
        {
          "internalType": "address",
          "name": "_treasury",
          "type": "address"
        }
      ],
      "stateMutability": "nonpayable",
      "type": "constructor"
    },
    {
      "inputs": [],
      "name": "AccessControlBadConfirmation",
      "type": "error"
    },
    {
      "inputs": [
        {
          "internalType": "address",
          "name": "account",
          "type": "address"
        },
        {
          "internalType": "bytes32",
          "name": "neededRole",
          "type": "bytes32"
        }
      ],
      "name": "AccessControlUnauthorizedAccount",
      "type": "error"
    },
    {
      "inputs": [
        {
          "internalType": "address",
          "name": "sender",
          "type": "address"
        },
        {
          "internalType": "uint256",
          "name": "tokenId",
          "type": "uint256"
        },
        {
          "internalType": "address",
          "name": "owner",
          "type": "address"
        }
      ],
      "name": "ERC721IncorrectOwner",
      "type": "error"
    },
    {
      "inputs": [
        {
          "internalType": "address",
          "name": "operator",
          "type": "address"
        },
        {
          "internalType": "uint256",
          "name": "tokenId",
          "type": "uint256"
        }
      ],
      "name": "ERC721InsufficientApproval",
      "type": "error"
    },
    {
      "inputs": [
        {
          "internalType": "address",
          "name": "approver",
          "type": "address"
        }
      ],
      "name": "ERC721InvalidApprover",
      "type": "error"
    },
    {
      "inputs": [
        {
          "internalType": "address",
          "name": "operator",
          "type": "address"
        }
      ],
      "name": "ERC721InvalidOperator",
      "type": "error"
    },
    {
      "inputs": [
        {
          "internalType": "address",
          "name": "owner",
          "type": "address"
        }
      ],
      "name": "ERC721InvalidOwner",
      "type": "error"
    },
    {
      "inputs": [
        {
          "internalType": "address",
          "name": "receiver",
          "type": "address"
        }
      ],
      "name": "ERC721InvalidReceiver",
      "type": "error"
    },
    {
      "inputs": [
        {
          "internalType": "address",
          "name": "sender",
          "type": "address"
        }
      ],
      "name": "ERC721InvalidSender",
      "type": "error"
    },
    {
      "inputs": [
        {
          "internalType": "uint256",
          "name": "tokenId",
          "type": "uint256"
        }
      ],
      "name": "ERC721NonexistentToken",
      "type": "error"
    },
    {
      "inputs": [],
      "name": "ReentrancyGuardReentrantCall",
      "type": "error"
    },
    {
      "anonymous": false,
      "inputs": [
        {
          "indexed": true,
          "internalType": "address",
          "name": "owner",
          "type": "address"
        },
        {
          "indexed": true,
          "internalType": "address",
          "name": "approved",
          "type": "address"
        },
        {
          "indexed": true,
          "internalType": "uint256",
          "name": "tokenId",
          "type": "uint256"
        }
      ],
      "name": "Approval",
      "type": "event"
    },
    {
      "anonymous": false,
      "inputs": [
        {
          "indexed": true,
          "internalType": "address",
          "name": "owner",
          "type": "address"
        },
        {
          "indexed": true,
          "internalType": "address",
          "name": "operator",
          "type": "address"
        },
        {
          "indexed": false,
          "internalType": "bool",
          "name": "approved",
          "type": "bool"
        }
      ],
      "name": "ApprovalForAll",
      "type": "event"
    },
    {
      "anonymous": false,
      "inputs": [
        {
          "indexed": true,
          "internalType": "uint256",
          "name": "athleteId",
          "type": "uint256"
        },
        {
          "indexed": true,
          "internalType": "address",
          "name": "owner",
          "type": "address"
        },
        {
          "indexed": false,
          "internalType": "string",
          "name": "name",
          "type": "string"
        },
        {
          "indexed": false,
          "internalType": "enum AthleteNFT.SportType",
          "name": "sport",
          "type": "uint8"
        }
      ],
      "name": "AthleteMinted",
      "type": "event"
    },
    {
      "anonymous": false,
      "inputs": [
        {
          "indexed": true,
          "internalType": "uint256",
          "name": "athleteId",
          "type": "uint256"
        },
        {
          "indexed": false,
          "internalType": "uint256",
          "name": "totalFights",
          "type": "uint256"
        },
        {
          "indexed": false,
          "internalType": "uint256",
          "name": "careerEarnings",
          "type": "uint256"
        }
      ],
      "name": "AthleteRetired",
      "type": "event"
    },
    {
      "anonymous": false,
      "inputs": [
        {
          "indexed": true,
          "internalType": "uint256",
          "name": "athleteId",
          "type": "uint256"
        },
        {
          "indexed": false,
          "internalType": "string",
          "name": "stat",
          "type": "string"
        },
        {
          "indexed": false,
          "internalType": "uint256",
          "name": "oldValue",
          "type": "uint256"
        },
        {
          "indexed": false,
          "internalType": "uint256",
          "name": "newValue",
          "type": "uint256"
        }
      ],
      "name": "AthleteStatImproved",
      "type": "event"
    },
    {
      "anonymous": false,
      "inputs": [
        {
          "indexed": false,
          "internalType": "uint256",
          "name": "_fromTokenId",
          "type": "uint256"
        },
        {
          "indexed": false,
          "internalType": "uint256",
          "name": "_toTokenId",
          "type": "uint256"
        }
      ],
      "name": "BatchMetadataUpdate",
      "type": "event"
    },
    {
      "anonymous": false,
      "inputs": [
        {
          "indexed": true,
          "internalType": "uint256",
          "name": "athleteId",
          "type": "uint256"
        },
        {
          "indexed": true,
          "internalType": "uint256",
          "name": "matchId",
          "type": "uint256"
        },
        {
          "indexed": false,
          "internalType": "bool",
          "name": "won",
          "type": "bool"
        }
      ],
      "name": "MatchRecorded",
      "type": "event"
    },
    {
      "anonymous": false,
      "inputs": [
        {
          "indexed": false,
          "internalType": "uint256",
          "name": "_tokenId",
          "type": "uint256"
        }
      ],
      "name": "MetadataUpdate",
      "type": "event"
    },
    {
      "anonymous": false,
      "inputs": [
        {
          "indexed": true,
          "internalType": "bytes32",
          "name": "role",
          "type": "bytes32"
        },
        {
          "indexed": true,
          "internalType": "bytes32",
          "name": "previousAdminRole",
          "type": "bytes32"
        },
        {
          "indexed": true,
          "internalType": "bytes32",
          "name": "newAdminRole",
          "type": "bytes32"
        }
      ],
      "name": "RoleAdminChanged",
      "type": "event"
    },
    {
      "anonymous": false,
      "inputs": [
        {
          "indexed": true,
          "internalType": "bytes32",
          "name": "role",
          "type": "bytes32"
        },
        {
          "indexed": true,
          "internalType": "address",
          "name": "account",
          "type": "address"
        },
        {
          "indexed": true,
          "internalType": "address",
          "name": "sender",
          "type": "address"
        }
      ],
      "name": "RoleGranted",
      "type": "event"
    },
    {
      "anonymous": false,
      "inputs": [
        {
          "indexed": true,
          "internalType": "bytes32",
          "name": "role",
          "type": "bytes32"
        },
        {
          "indexed": true,
          "internalType": "address",
          "name": "account",
          "type": "address"
        },
        {
          "indexed": true,
          "internalType": "address",
          "name": "sender",
          "type": "address"
        }
      ],
      "name": "RoleRevoked",
      "type": "event"
    },
    {
      "anonymous": false,
      "inputs": [
        {
          "indexed": true,
          "internalType": "address",
          "name": "from",
          "type": "address"
        },
        {
          "indexed": true,
          "internalType": "address",
          "name": "to",
          "type": "address"
        },
        {
          "indexed": true,
          "internalType": "uint256",
          "name": "tokenId",
          "type": "uint256"
        }
      ],
      "name": "Transfer",
      "type": "event"
    },
    {
      "inputs": [],
      "name": "DEFAULT_ADMIN_ROLE",
      "outputs": [
        {
          "internalType": "bytes32",
          "name": "",
          "type": "bytes32"
        }
      ],
      "stateMutability": "view",
      "type": "function"
    },
    {
      "inputs": [],
      "name": "MINTER_ROLE",
      "outputs": [
        {
          "internalType": "bytes32",
          "name": "",
          "type": "bytes32"
        }
      ],
      "stateMutability": "view",
      "type": "function"
    },
    {
      "inputs": [],
      "name": "TRAINER_ROLE",
      "outputs": [
        {
          "internalType": "bytes32",
          "name": "",
          "type": "bytes32"
        }
      ],
      "stateMutability": "view",
      "type": "function"
    },
    {
      "inputs": [
        {
          "internalType": "address",
          "name": "to",
          "type": "address"
        },
        {
          "internalType": "uint256",
          "name": "tokenId",
          "type": "uint256"
        }
      ],
      "name": "approve",
      "outputs": [],
      "stateMutability": "nonpayable",
      "type": "function"
    },
    {
      "inputs": [
        {
          "internalType": "uint256",
          "name": "",
          "type": "uint256"
        }
      ],
      "name": "athletes",
      "outputs": [
        {
          "internalType": "uint256",
          "name": "athleteId",
          "type": "uint256"
        },
        {
          "internalType": "uint256",
          "name": "entityId",
          "type": "uint256"
        },
        {
          "internalType": "string",
          "name": "name",
          "type": "string"
        },
        {
          "internalType": "string",
          "name": "nickname",
          "type": "string"
        },
        {
          "internalType": "enum AthleteNFT.SportType",
          "name": "primarySport",
          "type": "uint8"
        },
        {
          "internalType": "enum AthleteNFT.WeightClass",
          "name": "weightClass",
          "type": "uint8"
        },
        {
          "components": [
            {
              "internalType": "uint256",
              "name": "strength",
              "type": "uint256"
            },
            {
              "internalType": "uint256",
              "name": "speed",
              "type": "uint256"
            },
            {
              "internalType": "uint256",
              "name": "endurance",
              "type": "uint256"
            },
            {
              "internalType": "uint256",
              "name": "technique",
              "type": "uint256"
            },
            {
              "internalType": "uint256",
              "name": "intelligence",
              "type": "uint256"
            },
            {
              "internalType": "uint256",
              "name": "charisma",
              "type": "uint256"
            },
            {
              "internalType": "uint256",
              "name": "defense",
              "type": "uint256"
            },
            {
              "internalType": "uint256",
              "name": "aggression",
              "type": "uint256"
            }
          ],
          "internalType": "struct AthleteNFT.AthleteStats",
          "name": "stats",
          "type": "tuple"
        },
        {
          "internalType": "enum AthleteNFT.AthleteStatus",
          "name": "status",
          "type": "uint8"
        },
        {
          "internalType": "uint256",
          "name": "totalFights",
          "type": "uint256"
        },
        {
          "internalType": "uint256",
          "name": "wins",
          "type": "uint256"
        },
        {
          "internalType": "uint256",
          "name": "losses",
          "type": "uint256"
        },
        {
          "internalType": "uint256",
          "name": "draws",
          "type": "uint256"
        },
        {
          "internalType": "uint256",
          "name": "knockouts",
          "type": "uint256"
        },
        {
          "internalType": "uint256",
          "name": "careerEarnings",
          "type": "uint256"
        },
        {
          "internalType": "uint256",
          "name": "retirementAge",
          "type": "uint256"
        },
        {
          "internalType": "uint256",
          "name": "createdAt",
          "type": "uint256"
        },
        {
          "internalType": "uint256",
          "name": "lastTrainedAt",
          "type": "uint256"
        },
        {
          "internalType": "bool",
          "name": "isActive",
          "type": "bool"
        }
      ],
      "stateMutability": "view",
      "type": "function"
    },
    {
      "inputs": [
        {
          "internalType": "address",
          "name": "owner",
          "type": "address"
        }
      ],
      "name": "balanceOf",
      "outputs": [
        {
          "internalType": "uint256",
          "name": "",
          "type": "uint256"
        }
      ],
      "stateMutability": "view",
      "type": "function"
    },
    {
      "inputs": [
        {
          "internalType": "uint256",
          "name": "",
          "type": "uint256"
        }
      ],
      "name": "entityLinked",
      "outputs": [
        {
          "internalType": "bool",
          "name": "",
          "type": "bool"
        }
      ],
      "stateMutability": "view",
      "type": "function"
    },
    {
      "inputs": [
        {
          "internalType": "uint256",
          "name": "tokenId",
          "type": "uint256"
        }
      ],
      "name": "getApproved",
      "outputs": [
        {
          "internalType": "address",
          "name": "",
          "type": "address"
        }
      ],
      "stateMutability": "view",
      "type": "function"
    },
    {
      "inputs": [
        {
          "internalType": "uint256",
          "name": "athleteId",
          "type": "uint256"
        }
      ],
      "name": "getAthleteStats",
      "outputs": [
        {
          "components": [
            {
              "internalType": "uint256",
              "name": "strength",
              "type": "uint256"
            },
            {
              "internalType": "uint256",
              "name": "speed",
              "type": "uint256"
            },
            {
              "internalType": "uint256",
              "name": "endurance",
              "type": "uint256"
            },
            {
              "internalType": "uint256",
              "name": "technique",
              "type": "uint256"
            },
            {
              "internalType": "uint256",
              "name": "intelligence",
              "type": "uint256"
            },
            {
              "internalType": "uint256",
              "name": "charisma",
              "type": "uint256"
            },
            {
              "internalType": "uint256",
              "name": "defense",
              "type": "uint256"
            },
            {
              "internalType": "uint256",
              "name": "aggression",
              "type": "uint256"
            }
          ],
          "internalType": "struct AthleteNFT.AthleteStats",
          "name": "",
          "type": "tuple"
        }
      ],
      "stateMutability": "view",
      "type": "function"
    },
    {
      "inputs": [
        {
          "internalType": "uint256",
          "name": "athleteId",
          "type": "uint256"
        }
      ],
      "name": "getMatchHistory",
      "outputs": [
        {
          "internalType": "uint256[]",
          "name": "",
          "type": "uint256[]"
        }
      ],
      "stateMutability": "view",
      "type": "function"
    },
    {
      "inputs": [
        {
          "internalType": "uint256",
          "name": "athleteId",
          "type": "uint256"
        }
      ],
      "name": "getOverallRating",
      "outputs": [
        {
          "internalType": "uint256",
          "name": "",
          "type": "uint256"
        }
      ],
      "stateMutability": "view",
      "type": "function"
    },
    {
      "inputs": [
        {
          "internalType": "address",
          "name": "owner",
          "type": "address"
        }
      ],
      "name": "getOwnerAthletes",
      "outputs": [
        {
          "internalType": "uint256[]",
          "name": "",
          "type": "uint256[]"
        }
      ],
      "stateMutability": "view",
      "type": "function"
    },
    {
      "inputs": [
        {
          "internalType": "bytes32",
          "name": "role",
          "type": "bytes32"
        }
      ],
      "name": "getRoleAdmin",
      "outputs": [
        {
          "internalType": "bytes32",
          "name": "",
          "type": "bytes32"
        }
      ],
      "stateMutability": "view",
      "type": "function"
    },
    {
      "inputs": [
        {
          "internalType": "bytes32",
          "name": "role",
          "type": "bytes32"
        },
        {
          "internalType": "address",
          "name": "account",
          "type": "address"
        }
      ],
      "name": "grantRole",
      "outputs": [],
      "stateMutability": "nonpayable",
      "type": "function"
    },
    {
      "inputs": [
        {
          "internalType": "bytes32",
          "name": "role",
          "type": "bytes32"
        },
        {
          "internalType": "address",
          "name": "account",
          "type": "address"
        }
      ],
      "name": "hasRole",
      "outputs": [
        {
          "internalType": "bool",
          "name": "",
          "type": "bool"
        }
      ],
      "stateMutability": "view",
      "type": "function"
    },
    {
      "inputs": [
        {
          "internalType": "address",
          "name": "owner",
          "type": "address"
        },
        {
          "internalType": "address",
          "name": "operator",
          "type": "address"
        }
      ],
      "name": "isApprovedForAll",
      "outputs": [
        {
          "internalType": "bool",
          "name": "",
          "type": "bool"
        }
      ],
      "stateMutability": "view",
      "type": "function"
    },
    {
      "inputs": [
        {
          "internalType": "uint256",
          "name": "",
          "type": "uint256"
        },
        {
          "internalType": "uint256",
          "name": "",
          "type": "uint256"
        }
      ],
      "name": "matchHistory",
      "outputs": [
        {
          "internalType": "uint256",
          "name": "",
          "type": "uint256"
        }
      ],
      "stateMutability": "view",
      "type": "function"
    },
    {
      "inputs": [
        {
          "internalType": "uint256",
          "name": "entityId",
          "type": "uint256"
        },
        {
          "internalType": "string",
          "name": "name",
          "type": "string"
        },
        {
          "internalType": "string",
          "name": "nickname",
          "type": "string"
        },
        {
          "internalType": "enum AthleteNFT.SportType",
          "name": "primarySport",
          "type": "uint8"
        },
        {
          "internalType": "enum AthleteNFT.WeightClass",
          "name": "weightClass",
          "type": "uint8"
        },
        {
          "components": [
            {
              "internalType": "uint256",
              "name": "strength",
              "type": "uint256"
            },
            {
              "internalType": "uint256",
              "name": "speed",
              "type": "uint256"
            },
            {
              "internalType": "uint256",
              "name": "endurance",
              "type": "uint256"
            },
            {
              "internalType": "uint256",
              "name": "technique",
              "type": "uint256"
            },
            {
              "internalType": "uint256",
              "name": "intelligence",
              "type": "uint256"
            },
            {
              "internalType": "uint256",
              "name": "charisma",
              "type": "uint256"
            },
            {
              "internalType": "uint256",
              "name": "defense",
              "type": "uint256"
            },
            {
              "internalType": "uint256",
              "name": "aggression",
              "type": "uint256"
            }
          ],
          "internalType": "struct AthleteNFT.AthleteStats",
          "name": "initialStats",
          "type": "tuple"
        },
        {
          "internalType": "uint256",
          "name": "careerLengthDays",
          "type": "uint256"
        },
        {
          "internalType": "string",
          "name": "tokenURI_",
          "type": "string"
        }
      ],
      "name": "mintAthlete",
      "outputs": [
        {
          "internalType": "uint256",
          "name": "",
          "type": "uint256"
        }
      ],
      "stateMutability": "payable",
      "type": "function"
    },
    {
      "inputs": [],
      "name": "mintPrice",
      "outputs": [
        {
          "internalType": "uint256",
          "name": "",
          "type": "uint256"
        }
      ],
      "stateMutability": "view",
      "type": "function"
    },
    {
      "inputs": [],
      "name": "name",
      "outputs": [
        {
          "internalType": "string",
          "name": "",
          "type": "string"
        }
      ],
      "stateMutability": "view",
      "type": "function"
    },
    {
      "inputs": [
        {
          "internalType": "address",
          "name": "",
          "type": "address"
        },
        {
          "internalType": "uint256",
          "name": "",
          "type": "uint256"
        }
      ],
      "name": "ownerAthletes",
      "outputs": [
        {
          "internalType": "uint256",
          "name": "",
          "type": "uint256"
        }
      ],
      "stateMutability": "view",
      "type": "function"
    },
    {
      "inputs": [
        {
          "internalType": "uint256",
          "name": "tokenId",
          "type": "uint256"
        }
      ],
      "name": "ownerOf",
      "outputs": [
        {
          "internalType": "address",
          "name": "",
          "type": "address"
        }
      ],
      "stateMutability": "view",
      "type": "function"
    },
    {
      "inputs": [],
      "name": "protocolFeePercent",
      "outputs": [
        {
          "internalType": "uint256",
          "name": "",
          "type": "uint256"
        }
      ],
      "stateMutability": "view",
      "type": "function"
    },
    {
      "inputs": [
        {
          "internalType": "uint256",
          "name": "athleteId",
          "type": "uint256"
        },
        {
          "internalType": "uint256",
          "name": "matchId",
          "type": "uint256"
        },
        {
          "internalType": "bool",
          "name": "won",
          "type": "bool"
        },
        {
          "internalType": "bool",
          "name": "knockout",
          "type": "bool"
        },
        {
          "internalType": "uint256",
          "name": "earnings",
          "type": "uint256"
        }
      ],
      "name": "recordMatchResult",
      "outputs": [],
      "stateMutability": "nonpayable",
      "type": "function"
    },
    {
      "inputs": [
        {
          "internalType": "bytes32",
          "name": "role",
          "type": "bytes32"
        },
        {
          "internalType": "address",
          "name": "callerConfirmation",
          "type": "address"
        }
      ],
      "name": "renounceRole",
      "outputs": [],
      "stateMutability": "nonpayable",
      "type": "function"
    },
    {
      "inputs": [
        {
          "internalType": "uint256",
          "name": "athleteId",
          "type": "uint256"
        }
      ],
      "name": "retireAthlete",
      "outputs": [],
      "stateMutability": "nonpayable",
      "type": "function"
    },
    {
      "inputs": [
        {
          "internalType": "bytes32",
          "name": "role",
          "type": "bytes32"
        },
        {
          "internalType": "address",
          "name": "account",
          "type": "address"
        }
      ],
      "name": "revokeRole",
      "outputs": [],
      "stateMutability": "nonpayable",
      "type": "function"
    },
    {
      "inputs": [
        {
          "internalType": "address",
          "name": "from",
          "type": "address"
        },
        {
          "internalType": "address",
          "name": "to",
          "type": "address"
        },
        {
          "internalType": "uint256",
          "name": "tokenId",
          "type": "uint256"
        }
      ],
      "name": "safeTransferFrom",
      "outputs": [],
      "stateMutability": "nonpayable",
      "type": "function"
    },
    {
      "inputs": [
        {
          "internalType": "address",
          "name": "from",
          "type": "address"
        },
        {
          "internalType": "address",
          "name": "to",
          "type": "address"
        },
        {
          "internalType": "uint256",
          "name": "tokenId",
          "type": "uint256"
        },
        {
          "internalType": "bytes",
          "name": "data",
          "type": "bytes"
        }
      ],
      "name": "safeTransferFrom",
      "outputs": [],
      "stateMutability": "nonpayable",
      "type": "function"
    },
    {
      "inputs": [
        {
          "internalType": "address",
          "name": "operator",
          "type": "address"
        },
        {
          "internalType": "bool",
          "name": "approved",
          "type": "bool"
        }
      ],
      "name": "setApprovalForAll",
      "outputs": [],
      "stateMutability": "nonpayable",
      "type": "function"
    },
    {
      "inputs": [
        {
          "internalType": "uint256",
          "name": "p",
          "type": "uint256"
        }
      ],
      "name": "setMintPrice",
      "outputs": [],
      "stateMutability": "nonpayable",
      "type": "function"
    },
    {
      "inputs": [
        {
          "internalType": "bytes4",
          "name": "interfaceId",
          "type": "bytes4"
        }
      ],
      "name": "supportsInterface",
      "outputs": [
        {
          "internalType": "bool",
          "name": "",
          "type": "bool"
        }
      ],
      "stateMutability": "view",
      "type": "function"
    },
    {
      "inputs": [],
      "name": "symbol",
      "outputs": [
        {
          "internalType": "string",
          "name": "",
          "type": "string"
        }
      ],
      "stateMutability": "view",
      "type": "function"
    },
    {
      "inputs": [
        {
          "internalType": "uint256",
          "name": "tokenId",
          "type": "uint256"
        }
      ],
      "name": "tokenURI",
      "outputs": [
        {
          "internalType": "string",
          "name": "",
          "type": "string"
        }
      ],
      "stateMutability": "view",
      "type": "function"
    },
    {
      "inputs": [],
      "name": "totalAthletes",
      "outputs": [
        {
          "internalType": "uint256",
          "name": "",
          "type": "uint256"
        }
      ],
      "stateMutability": "view",
      "type": "function"
    },
    {
      "inputs": [
        {
          "internalType": "uint256",
          "name": "athleteId",
          "type": "uint256"
        },
        {
          "internalType": "uint8",
          "name": "statIndex",
          "type": "uint8"
        }
      ],
      "name": "trainAthlete",
      "outputs": [],
      "stateMutability": "payable",
      "type": "function"
    },
    {
      "inputs": [],
      "name": "trainingCost",
      "outputs": [
        {
          "internalType": "uint256",
          "name": "",
          "type": "uint256"
        }
      ],
      "stateMutability": "view",
      "type": "function"
    },
    {
      "inputs": [
        {
          "internalType": "uint256",
          "name": "",
          "type": "uint256"
        },
        {
          "internalType": "uint256",
          "name": "",
          "type": "uint256"
        }
      ],
      "name": "trainingHistory",
      "outputs": [
        {
          "internalType": "uint256",
          "name": "timestamp",
          "type": "uint256"
        },
        {
          "internalType": "string",
          "name": "statImproved",
          "type": "string"
        },
        {
          "internalType": "uint256",
          "name": "improvement",
          "type": "uint256"
        },
        {
          "internalType": "uint256",
          "name": "cost",
          "type": "uint256"
        }
      ],
      "stateMutability": "view",
      "type": "function"
    },
    {
      "inputs": [
        {
          "internalType": "address",
          "name": "from",
          "type": "address"
        },
        {
          "internalType": "address",
          "name": "to",
          "type": "address"
        },
        {
          "internalType": "uint256",
          "name": "tokenId",
          "type": "uint256"
        }
      ],
      "name": "transferFrom",
      "outputs": [],
      "stateMutability": "nonpayable",
      "type": "function"
    },
    {
      "inputs": [],
      "name": "treasury",
      "outputs": [
        {
          "internalType": "address",
          "name": "",
          "type": "address"
        }
      ],
      "stateMutability": "view",
      "type": "function"
    }
  ],
  "bytecode": "0x6080346200039e57601f601f196001600160401b03620036c438819003848101841686018381118782101762000388578692829160405283396020958691810103126200039e57516001600160a01b03811693908490036200039e5762000065620003a3565b92600b84526a4f414e204174686c65746560a81b8685015262000087620003a3565b90600682526509e829c82a8960d31b8783015284519084821162000388576000918254966001978881811c911680156200037d575b8b821014620003695790818784931162000316575b508a90878311600114620002b3578592620002a7575b5050600019600383901b1c191690871b1782555b8251948511620002935785548681811c9116801562000288575b8982101462000274578481116200022c575b5087938511600114620001c75750839495965092620001bb575b5050600019600383901b1c191690821b1781555b60085566b1a2bc2ec50000600f5566038d7ea4c6800060105560fa601255601180546001600160a01b0319169190911790556200019233620003c3565b506200019e3362000444565b50620001aa33620004e7565b5060405161311e9081620005868239f35b01519050388062000141565b8493929193169685845280842093905b888210620002145750508385969710620001fa575b505050811b01815562000155565b015160001960f88460031b161c19169055388080620001ec565b808785968294968601518155019501930190620001d7565b8683528883208580880160051c8201928b89106200026a575b0160051c019087905b8281106200025e57505062000127565b8481550187906200024e565b9250819262000245565b634e487b7160e01b83526022600452602483fd5b90607f169062000115565b634e487b7160e01b82526041600452602482fd5b015190503880620000e7565b90848a9416918680528c8720928d88905b828210620002fe5750508411620002e4575b505050811b018255620000fb565b015160001960f88460031b161c19169055388080620002d6565b8385015186558d979095019493840193018e620002c4565b9091508480528a85208780850160051c8201928d86106200035f575b918b91869594930160051c01915b82811062000350575050620000d1565b8781558594508b910162000340565b9250819262000332565b634e487b7160e01b85526022600452602485fd5b90607f1690620000bc565b634e487b7160e01b600052604160045260246000fd5b600080fd5b60408051919082016001600160401b038111838210176200038857604052565b6001600160a01b031660008181527f6d5257204ebe7d88fd91ae87941cb2dd9d8062b64ae5a2bd2d28ec40b9fbf6df602052604081205490919060ff16620004405781805260076020526040822081835260205260408220600160ff198254161790553391600080516020620036a48339815191528180a4600190565b5090565b6001600160a01b031660008181527fa4bfd7afe708e2e87e7f0e2ad9b4d545417e0f795f57b5c5ab5d799c565a04f460205260408120549091907f9f2df0fed2c77648de5860a4cc508cd0818c85b8b8a1ab4ceeef8d981c8956a69060ff16620004e25780835260076020526040832082845260205260408320600160ff19825416179055600080516020620036a4833981519152339380a4600190565b505090565b6001600160a01b031660008181527f33604e150ef20b667d0ebce4eb482b715b0fddf3e31071ebeacc52a8e5df738360205260408120549091907f123c69cc12368838cca6d46b7505bec842d9e85a26aff07e23aa57ad59dac6ba9060ff16620004e25780835260076020526040832082845260205260408320600160ff19825416179055600080516020620036a4833981519152339380a460019056fe60e080604052600436101561001357600080fd5b60003560e01c90816301ffc9a7146125de5750806306fdde031461253b578063081812fc146124ef578063095ea7b3146123af5780631996d8a51461228a5780632090524314611ca557806323b872dd14611c8e578063248a9ca314611c5f57806327a8431614611ba25780632f2ff15d14611b6357806336568abe14611af757806336f5396d14611aa257806342842e0e14611a745780634c42c0d614611a005780634ce8cd4c1461199657806352d9dff0146118fa57806361d027b3146118c65780636352211e1461188a5780636817c76c1461186c5780636b59f7ff1461184e578063701a19fd1461183057806370a08231146117b2578063794fff1d14611781578063809e55d7146116f05780638769a6f3146116b157806391d148541461165657806395d89b4114611577578063a217fddf1461155b578063a22cb46514611487578063a61b93cc1461144c578063b88d4fde146113e0578063c87b56dd14611383578063cd50df39146106d1578063d294811f1461055c578063d539139314610521578063d547741f146104e0578063d6e6eb9f146104c2578063e985e9c51461045e578063edef8b83146102635763f4a0a528146101d757600080fd5b3461025e57602060031936011261025e573360009081527f6d5257204ebe7d88fd91ae87941cb2dd9d8062b64ae5a2bd2d28ec40b9fbf6df602052604090205460ff161561022757600435600f55005b60446040517fe2517d3f00000000000000000000000000000000000000000000000000000000815233600482015260006024820152fd5b600080fd5b3461025e57602060031936011261025e57600435600052600a6020526040600020805460805260018101546002820161029b9061291f565b916102a86003820161291f565b600482015493906102bb60058401612a72565b600d84015460ff1660a052600e840154600f850154601086015460118701549160128801549360138901549560148a01549760158b01549960168c01549b6017015460ff169c6040518060c052608051905260c051602001526103208060c0516040015260c0510161032c91612713565b60c051808203906060015261034091612713565b9b60ff811661034e81612acc565b60c0516080015260081c60ff1661036481612acc565b60c05160a0015260c05160c0016103c09160e08091805184526020810151602085015260408101516040850152606081015160608501526080810151608085015260a081015160a085015260c081015160c08501520151910152565b60a051600581101561042f576101c060c05101526101e060c051015261020060c051015261022060c051015261024060c051015261026060c051015261028060c05101526102a060c05101526102c060c05101526102e060c0510152151561030060c051015260c05180910390f35b7f4e487b7100000000000000000000000000000000000000000000000000000000600052602160045260246000fd5b3461025e57604060031936011261025e57610477612753565b61047f612776565b9073ffffffffffffffffffffffffffffffffffffffff809116600052600560205260406000209116600052602052602060ff604060002054166040519015158152f35b3461025e57600060031936011261025e576020601254604051908152f35b3461025e57604060031936011261025e5761051f6004356104ff612776565b9080600052600760205261051a600160406000200154612ad6565b612b8a565b005b3461025e57600060031936011261025e5760206040517f9f2df0fed2c77648de5860a4cc508cd0818c85b8b8a1ab4ceeef8d981c8956a68152f35b3461025e5760a060031936011261025e576024356004356044358015159081810361025e57606435801515810361025e573360009081527f33604e150ef20b667d0ebce4eb482b715b0fddf3e31071ebeacc52a8e5df738360205260409020547f123c69cc12368838cca6d46b7505bec842d9e85a26aff07e23aa57ad59dac6ba9060ff161561069a57509160136020927fa6deadb5ef9604aa3d503111aa3b0a9f46afc1a3509b52c0703b1f62c978bcea9486600052600a8552604060002091600e830161062b8154613058565b905587600052600c8652610643896040600020613074565b1561068b57600f82016106568154613058565b9055610676575b0161066b6084358254613067565b9055604051908152a3005b601281016106848154613058565b905561065d565b50601081016106848154613058565b604490604051907fe2517d3f0000000000000000000000000000000000000000000000000000000082523360048301526024820152fd5b6101e060031936011261025e5760243567ffffffffffffffff811161025e576106fe903690600401612a54565b60443567ffffffffffffffff811161025e5761071e903690600401612a54565b906008606435101561025e576008608435101561025e576101007fffffffffffffffffffffffffffffffffffffffffffffffffffffffffffffff5c36011261025e5760405161076c816128a7565b60a435815260c435602082015260e43560408201526101043560608201526101243560808201526101443560a08201526101643560c08201526101843560e08201526101c43567ffffffffffffffff811161025e576107cf903690600401612a54565b926107d86130ad565b600f54341061132557600435600052600d60205260ff604060002054166112c7578251156112695761080b600954613058565b918260095562015180806101a43502906101a4358204146101a435151715610d71576108379042613067565b90604051928361024081011067ffffffffffffffff61024086011117610e5557610240840160405284845260043560208501528560408501526060840152610880606435612acc565b6064356080840152610893608435612acc565b60843560a084015260c0830152600060e08301526000610100830152600061012083015260006101408301526000610160830152600061018083015260006101a08301526101c0820152426101e082015242610200820152600161022082015281600052600a6020526040600020908051825560208101516001830155604081015180519067ffffffffffffffff8211610e555781906109366002860154612854565b601f8111611216575b50602090601f83116001146111a457600092611199575b50506000198260011b9260031b1c19161760028301555b606081015180519067ffffffffffffffff8211610e555781906109936003860154612854565b601f8111611146575b50602090601f83116001146110d4576000926110c9575b50506000198260011b9260031b1c19161760038301555b6004820160808201516109dc81612acc565b6109e581612acc565b81547fffffffffffffffffffffffffffffffffffffffffffffffffffffffffffff000060ff61ff0060a0870151610a1b81612acc565b610a2481612acc565b60081b16931691161717905560e060c0820151805160058501556020810151600685015560408101516007850155606081015160088501556080810151600985015560a0810151600a85015560c0810151600b8501550151600c83015560e081015191600583101561042f576017610220610b2793600d840160ff199660ff888354169116179055610100810151600e850155610120810151600f8501556101408101516010850155610160810151601185015561018081015160128501556101a081015160138501556101c081015160148501556101e0810151601585015561020081015160168501550151151591019060ff60ff1983541691151516179055565b600435600052600d602052600160406000209182541617905533600052600e602052610b57816040600020613074565b610b62601354613058565b601355604051610b71816128e0565b6000815233156110985781600052600260205273ffffffffffffffffffffffffffffffffffffffff60406000205416828115159182611044575b3360005260036020526040600020600181540190558160005260026020526040600020337fffffffffffffffffffffffff000000000000000000000000000000000000000082541617905533907fddf252ad1be2c89b69c2b068fc378daa952ba7f163c4a11628f55a4df523b3ef600080a461101357333b610e84575b508060005260066020526040600020835167ffffffffffffffff8111610e5557610c528254612854565b601f8111610e11575b50602094601f8211600114610dab57948192939495600092610da0575b50506000198260011b9260031b1c19161790555b7ff8e1a15aba9398e019f0b49df1a4fde98ee17ae345cb5f6b5e2c27f5033e8ce76020604051838152a173ffffffffffffffffffffffffffffffffffffffff60115416601254803402903482041434151715610d7157600080809361271082940490828215610d68575bf115610d5c57602091817f804b031194d0679a10928b01d5ae6b53e74038cbc74cc97852f4f17e1f04f4c1610d3660405193604085526040850190612713565b92610d42606435612acc565b606435868201528033940390a36001600855604051908152f35b6040513d6000823e3d90fd5b506108fc610cf6565b7f4e487b7100000000000000000000000000000000000000000000000000000000600052601160045260246000fd5b015190508580610c78565b601f198216958360005260206000209160005b888110610df957508360019596979810610de0575b505050811b019055610c8c565b015160001960f88460031b161c19169055858080610dd3565b91926020600181928685015181550194019201610dbe565b826000526020600020601f830160051c810160208410610e4e575b601f830160051c82018110610e42575050610c5b565b60008155600101610e2c565b5080610e2c565b7f4e487b7100000000000000000000000000000000000000000000000000000000600052604160045260246000fd5b60405160208180610ed77f150b7a02000000000000000000000000000000000000000000000000000000009586835233600484015260006024840152876044840152608060648401526084830190612713565b03816000335af160009181610fb6575b50610f59573d15610f52573d610efc81612a01565b90610f0a60405192836128fc565b81523d6000602083013e5b80519081610f4d5760246040517f64a0ae92000000000000000000000000000000000000000000000000000000008152336004820152fd5b602001fd5b6060610f15565b7fffffffff000000000000000000000000000000000000000000000000000000001603610f865783610c28565b60246040517f64a0ae92000000000000000000000000000000000000000000000000000000008152336004820152fd5b9091506020813d60201161100b575b81610fd2602093836128fc565b8101031261025e57517fffffffff000000000000000000000000000000000000000000000000000000008116810361025e579086610ee7565b3d9150610fc5565b60246040517f73c6ac6e00000000000000000000000000000000000000000000000000000000815260006004820152fd5b61107d82600052600460205260406000207fffffffffffffffffffffffff00000000000000000000000000000000000000008154169055565b80600052600360205260406000206000198154019055610bab565b60246040517f64a0ae9200000000000000000000000000000000000000000000000000000000815260006004820152fd5b0151905087806109b3565b9250600385016000526020600020906000935b601f198416851061112b576001945083601f19811610611112575b505050811b0160038301556109ca565b015160001960f88460031b161c19169055878080611102565b818101518355602094850194600190930192909101906110e7565b909150600385016000526020600020601f840160051c810160208510611192575b90849392915b601f830160051c8201811061118357505061099c565b6000815585945060010161116d565b5080611167565b015190508780610956565b9250600285016000526020600020906000935b601f19841685106111fb576001945083601f198116106111e2575b505050811b01600283015561096d565b015160001960f88460031b161c191690558780806111d2565b818101518355602094850194600190930192909101906111b7565b909150600285016000526020600020601f840160051c810160208510611262575b90849392915b601f830160051c8201811061125357505061093f565b6000815585945060010161123d565b5080611237565b60646040517f08c379a000000000000000000000000000000000000000000000000000000000815260206004820152600d60248201527f4e616d65207265717569726564000000000000000000000000000000000000006044820152fd5b60646040517f08c379a000000000000000000000000000000000000000000000000000000000815260206004820152601560248201527f456e7469747920616c7265616479206c696e6b656400000000000000000000006044820152fd5b60646040517f08c379a000000000000000000000000000000000000000000000000000000000815260206004820152601460248201527f496e73756666696369656e74207061796d656e740000000000000000000000006044820152fd5b3461025e57602060031936011261025e576004356113a081612e22565b5060005260066020526113dc6113b9604060002061291f565b60006040516113c7816128e0565b52604051918291602083526020830190612713565b0390f35b3461025e57608060031936011261025e576113f9612753565b611401612776565b906044356064359267ffffffffffffffff841161025e573660238501121561025e5761143a61051f943690602481600401359101612a1d565b92611446838383612c0f565b33612e83565b3461025e57600060031936011261025e5760206040517f123c69cc12368838cca6d46b7505bec842d9e85a26aff07e23aa57ad59dac6ba8152f35b3461025e57604060031936011261025e576114a0612753565b602435908115159081830361025e5773ffffffffffffffffffffffffffffffffffffffff1691821561152a576114fc9033600052600560205260406000208460005260205260406000209060ff60ff1983541691151516179055565b6040519081527f17307eab39ab6107e8899845ad3d59bd9653f200f220920489ca2b5937696c3160203392a3005b602483604051907f5b08ba180000000000000000000000000000000000000000000000000000000082526004820152fd5b3461025e57600060031936011261025e57602060405160008152f35b3461025e57600060031936011261025e576040516000600180549061159b82612854565b8085529181811690811561162f57506001146115d6575b6113dc846115c2818603826128fc565b604051918291602083526020830190612713565b600081815292507fb10e2d527612073b26eecdfd717e6a320cf44b4afac2b0732d9fcbe2b7fa0cf65b8284106116175750505081016020016115c2826115b2565b805460208587018101919091529093019281016115ff565b60ff191660208087019190915292151560051b850190920192506115c291508390506115b2565b3461025e57604060031936011261025e5761166f612776565b600435600052600760205273ffffffffffffffffffffffffffffffffffffffff60406000209116600052602052602060ff604060002054166040519015158152f35b3461025e576116bf36612822565b90600052600c6020526040600020805482101561025e576020916116e2916127db565b90546040519160031b1c8152f35b3461025e5760208060031936011261025e5773ffffffffffffffffffffffffffffffffffffffff61171f612753565b16600052600e8152604060002090604051908181845491828152019360005281600020916000905b82821061176a576113dc8561175e818903826128fc565b604051918291826129c6565b835486529485019460019384019390910190611747565b3461025e57602060031936011261025e57600435600052600d602052602060ff604060002054166040519015158152f35b3461025e57602060031936011261025e5773ffffffffffffffffffffffffffffffffffffffff6117e0612753565b1680156117ff5760005260036020526020604060002054604051908152f35b60246040517f89c62b6400000000000000000000000000000000000000000000000000000000815260006004820152fd5b3461025e57600060031936011261025e576020601054604051908152f35b3461025e57600060031936011261025e576020601354604051908152f35b3461025e57600060031936011261025e576020600f54604051908152f35b3461025e57602060031936011261025e5760206118a8600435612e22565b73ffffffffffffffffffffffffffffffffffffffff60405191168152f35b3461025e57600060031936011261025e57602073ffffffffffffffffffffffffffffffffffffffff60115416604051908152f35b3461025e57602060031936011261025e57600435600052600a602052602061198b61192b6005604060002001612a72565b60e061198261197761196c61196161195661194b87518a89015190613067565b604088015190613067565b606087015190613067565b608086015190613067565b60a085015190613067565b60c084015190613067565b91015190613067565b60031c604051908152f35b3461025e5760208060031936011261025e57600435600052600c8152604060002090604051908181845491828152019360005281600020916000905b8282106119e9576113dc8561175e818903826128fc565b8354865294850194600193840193909101906119d2565b3461025e57611a0e36612822565b90600052600b602052604060002090815481101561025e57611a2f91612838565b508054611a3e6001830161291f565b9160036002820154910154611a656040519485948552608060208601526080850190612713565b91604084015260608301520390f35b3461025e5761051f611a8536612799565b9060405192611a93846128e0565b60008452611446838383612c0f565b3461025e57604060031936011261025e57611abb612753565b73ffffffffffffffffffffffffffffffffffffffff6024359116600052600e6020526040600020805482101561025e576020916116e2916127db565b3461025e57604060031936011261025e57611b10612776565b3373ffffffffffffffffffffffffffffffffffffffff821603611b395761051f90600435612b8a565b60046040517f6697b232000000000000000000000000000000000000000000000000000000008152fd5b3461025e57604060031936011261025e5761051f600435611b82612776565b90806000526007602052611b9d600160406000200154612ad6565b612afc565b3461025e57602060031936011261025e57600060e0604051611bc3816128a7565b8281528260208201528260408201528260608201528260808201528260a08201528260c08201520152600435600052600a602052610100611c0a6005604060002001612a72565b611c5d604051809260e08091805184526020810151602085015260408101516040850152606081015160608501526080810151608085015260a081015160a085015260c081015160c08501520151910152565bf35b3461025e57602060031936011261025e5760043560005260076020526020600160406000200154604051908152f35b3461025e5761051f611c9f36612799565b91612c0f565b604060031936011261025e5760243560ff811680910361025e57611cc76130ad565b611cd2600435612e22565b73ffffffffffffffffffffffffffffffffffffffff1633148061227e575b1561222057600435600052600a602052604060002060ff60178201541680612206575b156121a85760058101600342069260018401809411610d715780611ffd5750611d3e81549384613067565b6064811015611ff35780915b5590604051611d58816128c4565b600881527f737472656e6774680000000000000000000000000000000000000000000000006020820152905b601642910155600435600052600b602052604060002083830390838211610d7157604051906080820182811067ffffffffffffffff821117610e555760405242825260208201928484526040830152346060830152805468010000000000000000811015610e5557611dfb91600182018155612838565b929092611fc457815183555180519067ffffffffffffffff8211610e5557611e266001850154612854565b601f8111611f7d575b50602090601f8311600114611f0957918060039492606094600092611efe575b50506000198260011b92861b1c19161760018501555b604081015160028501550151910155600080808073ffffffffffffffffffffffffffffffffffffffff6011541681903415611ef4575b3491f115610d5c577f9e5871d2b1ae377534104537caa908344957ad5ebf3ce9146254d57f305ac56391611eda60405192606084526060840190612713565b936020830152604082015280600435930390a26001600855005b6108fc9150611e9b565b015190508980611e4f565b906001850160005260206000209160005b601f1985168110611f655750926003949260019260609583601f19811610611f4d575b505050811b016001850155611e65565b015160001960f884891b161c19169055898080611f3d565b91926020600181928685015181550194019201611f1a565b600185016000526020600020601f840160051c810160208510611fbd575b601f830160051c82018110611fb1575050611e2f565b60008155600101611f9b565b5080611f9b565b7f4e487b7100000000000000000000000000000000000000000000000000000000600052600060045260246000fd5b5060648091611d4a565b90506001810361206c57506006810161201881549384613067565b60648110156120625780915b5590604051612032816128c4565b600581527f7370656564000000000000000000000000000000000000000000000000000000602082015290611d84565b5060648091612024565b600281036120d957506007810161208581549384613067565b60648110156120cf5780915b559060405161209f816128c4565b600981527f656e647572616e63650000000000000000000000000000000000000000000000602082015290611d84565b5060648091612091565b60030361214457600881016120f081549384613067565b606481101561213a5780915b559060405161210a816128c4565b600981527f746563686e697175650000000000000000000000000000000000000000000000602082015290611d84565b50606480916120fc565b600a810161215481549384613067565b606481101561219e5780915b559060405161216e816128c4565b600881527f6368617269736d61000000000000000000000000000000000000000000000000602082015290611d84565b5060648091612160565b60646040517f08c379a000000000000000000000000000000000000000000000000000000000815260206004820152600c60248201527f43616e6e6f7420747261696e00000000000000000000000000000000000000006044820152fd5b506016810154610e108101809111610d7157421015611d13565b60646040517f08c379a000000000000000000000000000000000000000000000000000000000815260206004820152600760248201527f496e76616c6964000000000000000000000000000000000000000000000000006044820152fd5b50601054341015611cf0565b3461025e5760208060031936011261025e57600435906122a982612e22565b73ffffffffffffffffffffffffffffffffffffffff163314801561238d575b1561232f5760407f7a113100882b1112dec2afa666e8ff5b3b18ad58ec85c1b2274e6e9382c3c0089183600052600a815281600020906017820160ff19908181541690556001600d8401918254161790556013600e830154920154908351928352820152a2005b606490604051907f08c379a00000000000000000000000000000000000000000000000000000000082526004820152600e60248201527f4e6f7420617574686f72697a65640000000000000000000000000000000000006044820152fd5b506000805260078152604060002033600052815260ff604060002054166122c8565b3461025e57604060031936011261025e576123c8612753565b6024356123d481612e22565b331515806124cf575b80612494575b61246457819073ffffffffffffffffffffffffffffffffffffffff809416938491167f8c5be1e5ebec7d5bd14f71427d1e84f3dd0314c0f7b2291e5b200ac8c7c3b925600080a460005260046020526040600020907fffffffffffffffffffffffff0000000000000000000000000000000000000000825416179055600080f35b60246040517fa9fbf51f000000000000000000000000000000000000000000000000000000008152336004820152fd5b5073ffffffffffffffffffffffffffffffffffffffff8116600052600560205260406000203360005260205260ff60406000205416156123e3565b503373ffffffffffffffffffffffffffffffffffffffff821614156123dd565b3461025e57602060031936011261025e5760043561250c81612e22565b506000526004602052602073ffffffffffffffffffffffffffffffffffffffff60406000205416604051908152f35b3461025e57600060031936011261025e576040516000805461255c81612854565b8084529060019081811690811561162f5750600114612585576113dc846115c2818603826128fc565b600080805292507f290decd9548b62a8d60345a988386fc84ba6bc95484008f6362f93160ef3e5635b8284106125c65750505081016020016115c2826115b2565b805460208587018101919091529093019281016125ae565b3461025e57602060031936011261025e57600435907fffffffff00000000000000000000000000000000000000000000000000000000821680920361025e57817f7965db0b0000000000000000000000000000000000000000000000000000000060209314908115612652575b5015158152f35b7f4906490600000000000000000000000000000000000000000000000000000000811491508115612685575b508361264b565b7f80ac58cd000000000000000000000000000000000000000000000000000000008114915081156126e9575b81156126bf575b508361267e565b7f01ffc9a700000000000000000000000000000000000000000000000000000000915014836126b8565b7f5b5e139f00000000000000000000000000000000000000000000000000000000811491506126b1565b919082519283825260005b84811061273f575050601f19601f8460006020809697860101520116010190565b60208183018101518483018201520161271e565b6004359073ffffffffffffffffffffffffffffffffffffffff8216820361025e57565b6024359073ffffffffffffffffffffffffffffffffffffffff8216820361025e57565b600319606091011261025e5773ffffffffffffffffffffffffffffffffffffffff90600435828116810361025e5791602435908116810361025e579060443590565b80548210156127f35760005260206000200190600090565b7f4e487b7100000000000000000000000000000000000000000000000000000000600052603260045260246000fd5b600319604091011261025e576004359060243590565b80548210156127f35760005260206000209060021b0190600090565b90600182811c9216801561289d575b602083101461286e57565b7f4e487b7100000000000000000000000000000000000000000000000000000000600052602260045260246000fd5b91607f1691612863565b610100810190811067ffffffffffffffff821117610e5557604052565b6040810190811067ffffffffffffffff821117610e5557604052565b6020810190811067ffffffffffffffff821117610e5557604052565b90601f601f19910116810190811067ffffffffffffffff821117610e5557604052565b906040519182600082549261293384612854565b9081845260019485811690816000146129a2575060011461295f575b505061295d925003836128fc565b565b9093915060005260209081600020936000915b81831061298a57505061295d9350820101388061294f565b85548884018501529485019487945091830191612972565b905061295d95506020935060ff1991501682840152151560051b820101388061294f565b6020908160408183019282815285518094520193019160005b8281106129ed575050505090565b8351855293810193928101926001016129df565b67ffffffffffffffff8111610e5557601f01601f191660200190565b929192612a2982612a01565b91612a3760405193846128fc565b82948184528183011161025e578281602093846000960137010152565b9080601f8301121561025e57816020612a6f93359101612a1d565b90565b90604051612a7f816128a7565b60e0600782948054845260018101546020850152600281015460408501526003810154606085015260048101546080850152600581015460a0850152600681015460c08501520154910152565b6008111561042f57565b80600052600760205260406000203360005260205260ff604060002054161561069a5750565b90600091808352600760205273ffffffffffffffffffffffffffffffffffffffff6040842092169182845260205260ff60408420541615600014612b855780835260076020526040832082845260205260408320600160ff198254161790557f2f8788117e7eff1d82e926ec794901d17c78024a50270940304540a733656f0d339380a4600190565b505090565b90600091808352600760205273ffffffffffffffffffffffffffffffffffffffff6040842092169182845260205260ff604084205416600014612b85578083526007602052604083208284526020526040832060ff1981541690557ff6391f5c32d9c69d2a47ea670b442974b53935d1edc7fd64eb21e047a839171b339380a4600190565b909173ffffffffffffffffffffffffffffffffffffffff80931692831561109857600092828452826020956002875260409684888820541696879133151580612d5a575b509060027fddf252ad1be2c89b69c2b068fc378daa952ba7f163c4a11628f55a4df523b3ef9284612d0a575b858352600381528b83206001815401905586835252898120847fffffffffffffffffffffffff000000000000000000000000000000000000000082541617905580a41692838303612cd05750505050565b6064945051927f64283d7b000000000000000000000000000000000000000000000000000000008452600484015260248301526044820152fd5b612d4387600052600460205260406000207fffffffffffffffffffffffff00000000000000000000000000000000000000008154169055565b848352600381528b83206000198154019055612c7f565b91939450915080612de1575b15612d7657859291879138612c53565b878688612dac5760249151907f7e2732890000000000000000000000000000000000000000000000000000000082526004820152fd5b60449151907f177e802f0000000000000000000000000000000000000000000000000000000082523360048301526024820152fd5b503387148015612e06575b80612d665750858252600481523385898420541614612d66565b5086825260058152878220338352815260ff8883205416612dec565b80600052600260205273ffffffffffffffffffffffffffffffffffffffff60406000205416908115612e52575090565b602490604051907f7e2732890000000000000000000000000000000000000000000000000000000082526004820152fd5b90939192833b612e95575b5050505050565b73ffffffffffffffffffffffffffffffffffffffff95929394958095169460405196817f150b7a020000000000000000000000000000000000000000000000000000000094858a5216600489015216602487015260448601526080606486015284612f066020946084830190612713565b039483816000978189895af1869181612ffc575b50612f93575050503d600014612f8a573d612f3481612a01565b90612f4260405192836128fc565b81528093823d92013e5b82519283612f8557602483604051907f64a0ae920000000000000000000000000000000000000000000000000000000082526004820152fd5b019050fd5b60609250612f4c565b9092507fffffffff000000000000000000000000000000000000000000000000000000009194501603612fcb57503880808080612e8e565b602490604051907f64a0ae920000000000000000000000000000000000000000000000000000000082526004820152fd5b9091508481813d8311613051575b61301481836128fc565b8101031261304d57517fffffffff000000000000000000000000000000000000000000000000000000008116810361304d579038612f1a565b8680fd5b503d61300a565b6000198114610d715760010190565b91908201809211610d7157565b805468010000000000000000811015610e5557613096916001820181556127db565b600019829392549160031b92831b921b1916179055565b6002600854146130be576002600855565b60046040517f3ee5aeb5000000000000000000000000000000000000000000000000000000008152fdfea2646970667358221220cfa2ebc68a7f01d028b7a47cb360a3ef0990bdf37f1ac5a76d376bfa0f410c7c64736f6c634300081400332f8788117e7eff1d82e926ec794901d17c78024a50270940304540a733656f0d",
  "linkReferences": {},
  "deployedLinkReferences": {}
}