{
  "_format": "hh-sol-artifact-1",
  "contractName": "FractionalOwnership",
  "sourceName": "contracts/layer6/trading/FractionalOwnership.sol",
  "abi": [
    {
      "inputs": [
        {
          "internalType": "address",
          "name": "_treasury",
          "type": "address"
        }
      ],
      "stateMutability": "nonpayable",
      "type": "constructor"
    },
    {
      "inputs": [],
      "name": "AccessControlBadConfirmation",
      "type": "error"
    },
    {
      "inputs": [
        {
          "internalType": "address",
          "name": "account",
          "type": "address"
        },
        {
          "internalType": "bytes32",
          "name": "neededRole",
          "type": "bytes32"
        }
      ],
      "name": "AccessControlUnauthorizedAccount",
      "type": "error"
    },
    {
      "inputs": [],
      "name": "ReentrancyGuardReentrantCall",
      "type": "error"
    },
    {
      "anonymous": false,
      "inputs": [
        {
          "indexed": true,
          "internalType": "uint256",
          "name": "vaultId",
          "type": "uint256"
        },
        {
          "indexed": true,
          "internalType": "address",
          "name": "buyer",
          "type": "address"
        },
        {
          "indexed": false,
          "internalType": "uint256",
          "name": "price",
          "type": "uint256"
        }
      ],
      "name": "BuyoutCompleted",
      "type": "event"
    },
    {
      "anonymous": false,
      "inputs": [
        {
          "indexed": true,
          "internalType": "uint256",
          "name": "vaultId",
          "type": "uint256"
        },
        {
          "indexed": true,
          "internalType": "address",
          "name": "initiator",
          "type": "address"
        },
        {
          "indexed": false,
          "internalType": "uint256",
          "name": "price",
          "type": "uint256"
        }
      ],
      "name": "BuyoutInitiated",
      "type": "event"
    },
    {
      "anonymous": false,
      "inputs": [
        {
          "indexed": true,
          "internalType": "bytes32",
          "name": "role",
          "type": "bytes32"
        },
        {
          "indexed": true,
          "internalType": "bytes32",
          "name": "previousAdminRole",
          "type": "bytes32"
        },
        {
          "indexed": true,
          "internalType": "bytes32",
          "name": "newAdminRole",
          "type": "bytes32"
        }
      ],
      "name": "RoleAdminChanged",
      "type": "event"
    },
    {
      "anonymous": false,
      "inputs": [
        {
          "indexed": true,
          "internalType": "bytes32",
          "name": "role",
          "type": "bytes32"
        },
        {
          "indexed": true,
          "internalType": "address",
          "name": "account",
          "type": "address"
        },
        {
          "indexed": true,
          "internalType": "address",
          "name": "sender",
          "type": "address"
        }
      ],
      "name": "RoleGranted",
      "type": "event"
    },
    {
      "anonymous": false,
      "inputs": [
        {
          "indexed": true,
          "internalType": "bytes32",
          "name": "role",
          "type": "bytes32"
        },
        {
          "indexed": true,
          "internalType": "address",
          "name": "account",
          "type": "address"
        },
        {
          "indexed": true,
          "internalType": "address",
          "name": "sender",
          "type": "address"
        }
      ],
      "name": "RoleRevoked",
      "type": "event"
    },
    {
      "anonymous": false,
      "inputs": [
        {
          "indexed": true,
          "internalType": "uint256",
          "name": "vaultId",
          "type": "uint256"
        },
        {
          "indexed": true,
          "internalType": "address",
          "name": "redeemer",
          "type": "address"
        },
        {
          "indexed": false,
          "internalType": "uint256",
          "name": "shares",
          "type": "uint256"
        },
        {
          "indexed": false,
          "internalType": "uint256",
          "name": "payout",
          "type": "uint256"
        }
      ],
      "name": "SharesRedeemed",
      "type": "event"
    },
    {
      "anonymous": false,
      "inputs": [
        {
          "indexed": true,
          "internalType": "uint256",
          "name": "vaultId",
          "type": "uint256"
        },
        {
          "indexed": true,
          "internalType": "address",
          "name": "nftContract",
          "type": "address"
        },
        {
          "indexed": false,
          "internalType": "uint256",
          "name": "tokenId",
          "type": "uint256"
        },
        {
          "indexed": false,
          "internalType": "uint256",
          "name": "totalShares",
          "type": "uint256"
        },
        {
          "indexed": false,
          "internalType": "address",
          "name": "tokenAddress",
          "type": "address"
        }
      ],
      "name": "VaultCreated",
      "type": "event"
    },
    {
      "inputs": [],
      "name": "CURATOR_ROLE",
      "outputs": [
        {
          "internalType": "bytes32",
          "name": "",
          "type": "bytes32"
        }
      ],
      "stateMutability": "view",
      "type": "function"
    },
    {
      "inputs": [],
      "name": "DEFAULT_ADMIN_ROLE",
      "outputs": [
        {
          "internalType": "bytes32",
          "name": "",
          "type": "bytes32"
        }
      ],
      "stateMutability": "view",
      "type": "function"
    },
    {
      "inputs": [
        {
          "internalType": "uint256",
          "name": "vaultId",
          "type": "uint256"
        }
      ],
      "name": "completeBuyout",
      "outputs": [],
      "stateMutability": "nonpayable",
      "type": "function"
    },
    {
      "inputs": [
        {
          "internalType": "address",
          "name": "",
          "type": "address"
        },
        {
          "internalType": "uint256",
          "name": "",
          "type": "uint256"
        }
      ],
      "name": "curatorVaults",
      "outputs": [
        {
          "internalType": "uint256",
          "name": "",
          "type": "uint256"
        }
      ],
      "stateMutability": "view",
      "type": "function"
    },
    {
      "inputs": [
        {
          "internalType": "address",
          "name": "nftContract",
          "type": "address"
        },
        {
          "internalType": "uint256",
          "name": "tokenId",
          "type": "uint256"
        },
        {
          "internalType": "uint256",
          "name": "totalShares",
          "type": "uint256"
        },
        {
          "internalType": "uint256",
          "name": "initialSharePrice",
          "type": "uint256"
        },
        {
          "internalType": "uint256",
          "name": "reservePrice",
          "type": "uint256"
        },
        {
          "internalType": "string",
          "name": "name",
          "type": "string"
        },
        {
          "internalType": "string",
          "name": "symbol",
          "type": "string"
        }
      ],
      "name": "fractionalize",
      "outputs": [
        {
          "internalType": "uint256",
          "name": "",
          "type": "uint256"
        }
      ],
      "stateMutability": "nonpayable",
      "type": "function"
    },
    {
      "inputs": [
        {
          "internalType": "address",
          "name": "curator",
          "type": "address"
        }
      ],
      "name": "getCuratorVaults",
      "outputs": [
        {
          "internalType": "uint256[]",
          "name": "",
          "type": "uint256[]"
        }
      ],
      "stateMutability": "view",
      "type": "function"
    },
    {
      "inputs": [
        {
          "internalType": "bytes32",
          "name": "role",
          "type": "bytes32"
        }
      ],
      "name": "getRoleAdmin",
      "outputs": [
        {
          "internalType": "bytes32",
          "name": "",
          "type": "bytes32"
        }
      ],
      "stateMutability": "view",
      "type": "function"
    },
    {
      "inputs": [
        {
          "internalType": "bytes32",
          "name": "role",
          "type": "bytes32"
        },
        {
          "internalType": "address",
          "name": "account",
          "type": "address"
        }
      ],
      "name": "grantRole",
      "outputs": [],
      "stateMutability": "nonpayable",
      "type": "function"
    },
    {
      "inputs": [
        {
          "internalType": "bytes32",
          "name": "role",
          "type": "bytes32"
        },
        {
          "internalType": "address",
          "name": "account",
          "type": "address"
        }
      ],
      "name": "hasRole",
      "outputs": [
        {
          "internalType": "bool",
          "name": "",
          "type": "bool"
        }
      ],
      "stateMutability": "view",
      "type": "function"
    },
    {
      "inputs": [
        {
          "internalType": "uint256",
          "name": "vaultId",
          "type": "uint256"
        }
      ],
      "name": "initiateBuyout",
      "outputs": [],
      "stateMutability": "payable",
      "type": "function"
    },
    {
      "inputs": [],
      "name": "platformFeeBps",
      "outputs": [
        {
          "internalType": "uint256",
          "name": "",
          "type": "uint256"
        }
      ],
      "stateMutability": "view",
      "type": "function"
    },
    {
      "inputs": [
        {
          "internalType": "uint256",
          "name": "vaultId",
          "type": "uint256"
        },
        {
          "internalType": "uint256",
          "name": "shareAmount",
          "type": "uint256"
        }
      ],
      "name": "redeemShares",
      "outputs": [],
      "stateMutability": "nonpayable",
      "type": "function"
    },
    {
      "inputs": [
        {
          "internalType": "bytes32",
          "name": "role",
          "type": "bytes32"
        },
        {
          "internalType": "address",
          "name": "callerConfirmation",
          "type": "address"
        }
      ],
      "name": "renounceRole",
      "outputs": [],
      "stateMutability": "nonpayable",
      "type": "function"
    },
    {
      "inputs": [
        {
          "internalType": "bytes32",
          "name": "role",
          "type": "bytes32"
        },
        {
          "internalType": "address",
          "name": "account",
          "type": "address"
        }
      ],
      "name": "revokeRole",
      "outputs": [],
      "stateMutability": "nonpayable",
      "type": "function"
    },
    {
      "inputs": [
        {
          "internalType": "bytes4",
          "name": "i",
          "type": "bytes4"
        }
      ],
      "name": "supportsInterface",
      "outputs": [
        {
          "internalType": "bool",
          "name": "",
          "type": "bool"
        }
      ],
      "stateMutability": "view",
      "type": "function"
    },
    {
      "inputs": [
        {
          "internalType": "address",
          "name": "",
          "type": "address"
        }
      ],
      "name": "tokenToVault",
      "outputs": [
        {
          "internalType": "uint256",
          "name": "",
          "type": "uint256"
        }
      ],
      "stateMutability": "view",
      "type": "function"
    },
    {
      "inputs": [],
      "name": "treasury",
      "outputs": [
        {
          "internalType": "address",
          "name": "",
          "type": "address"
        }
      ],
      "stateMutability": "view",
      "type": "function"
    },
    {
      "inputs": [
        {
          "internalType": "uint256",
          "name": "",
          "type": "uint256"
        }
      ],
      "name": "vaultTokens",
      "outputs": [
        {
          "internalType": "address",
          "name": "",
          "type": "address"
        }
      ],
      "stateMutability": "view",
      "type": "function"
    },
    {
      "inputs": [
        {
          "internalType": "uint256",
          "name": "",
          "type": "uint256"
        }
      ],
      "name": "vaults",
      "outputs": [
        {
          "internalType": "uint256",
          "name": "vaultId",
          "type": "uint256"
        },
        {
          "internalType": "address",
          "name": "nftContract",
          "type": "address"
        },
        {
          "internalType": "uint256",
          "name": "tokenId",
          "type": "uint256"
        },
        {
          "internalType": "address",
          "name": "curator",
          "type": "address"
        },
        {
          "internalType": "uint256",
          "name": "totalShares",
          "type": "uint256"
        },
        {
          "internalType": "uint256",
          "name": "sharePrice",
          "type": "uint256"
        },
        {
          "internalType": "uint256",
          "name": "reservePrice",
          "type": "uint256"
        },
        {
          "internalType": "bool",
          "name": "isActive",
          "type": "bool"
        },
        {
          "internalType": "bool",
          "name": "buyoutActive",
          "type": "bool"
        },
        {
          "internalType": "address",
          "name": "buyoutInitiator",
          "type": "address"
        },
        {
          "internalType": "uint256",
          "name": "buyoutPrice",
          "type": "uint256"
        },
        {
          "internalType": "uint256",
          "name": "buyoutDeadline",
          "type": "uint256"
        },
        {
          "internalType": "uint256",
          "name": "createdAt",
          "type": "uint256"
        },
        {
          "internalType": "string",
          "name": "name",
          "type": "string"
        },
        {
          "internalType": "string",
          "name": "symbol",
          "type": "string"
        }
      ],
      "stateMutability": "view",
      "type": "function"
    }
  ],
  "bytecode": "0x6080346200009b57601f62002ef738819003918201601f19168301916001600160401b03831184841017620000a0578084926020946040528339810103126200009b57516001600160a01b038116908190036200009b576001805560c8600855600780546001600160a01b0319169190911790556200007e33620000b6565b506200008a3362000136565b50604051612cfe9081620001d98239f35b600080fd5b634e487b7160e01b600052604160045260246000fd5b6001600160a01b031660008181527fad3228b676f7d3cd4284a5443f17f1962b36e491b30a40b2405849e597ba5fb5602052604081205490919060ff166200013257818052816020526040822081835260205260408220600160ff19825416179055339160008051602062002ed78339815191528180a4600190565b5090565b6001600160a01b031660008181527ff484c8d36633aa70eae8ee4883885db3af58778e0f4e89a6e23f032f4a70897160205260408120549091907f850d585eb7f024ccee5e68e55f2c26cc72e1e6ee456acf62135757a5eb9d4a109060ff16620001d357808352826020526040832082845260205260408320600160ff1982541617905560008051602062002ed7833981519152339380a4600190565b50509056fe60808060405260043610156200001457600080fd5b600090813560e01c90816301ffc9a71462001847575080630c7e172514620017fe5780631f6a111514620014d357806322dcd13e14620014b3578063248a9ca314620014855780632f2ff15d146200144057806336568abe14620013cc5780634a2cfb54146200138f57806361d027b314620013595780637136f5e214620011825780638324317c14620010bd5780638c64ea4a1462000f9b57806391d148541462000f3e578063a217fddf1462000f20578063bdc9d3011462000eb6578063d547741f1462000e6d578063efe060d31462000e2b578063f36aa3f51462000bb15763fb5d2da3146200010657600080fd5b3462000bae5760e060031936011262000bae5762000123620018ec565b9060a43567ffffffffffffffff811162000a26576200014790369060040162001b23565b9060c43567ffffffffffffffff811162000a26576200016b90369060040162001b23565b6040517f6352211e000000000000000000000000000000000000000000000000000000008152602435600482015260208160248173ffffffffffffffffffffffffffffffffffffffff89165afa908115620009a957839162000b54575b5073ffffffffffffffffffffffffffffffffffffffff3391160362000af657606460443510158062000ae6575b1562000a88576084351562000a2a5773ffffffffffffffffffffffffffffffffffffffff84163b1562000a26576040517f23b872dd0000000000000000000000000000000000000000000000000000000081523360048201523060248083019190915235604482015282816064818373ffffffffffffffffffffffffffffffffffffffff8a165af18015620009a95790839162000a0e575b5050600254926000198414620009e1576001840160025560405180610f1f81011067ffffffffffffffff610f1f83011117620009b457610f1f62001daa823960a0610f1f8201528062000303620002ec60a0610f1f8401018562001a99565b610f1f830181036020610f1f850101528562001a99565b6044356040610f1f84010152336060610f1f84010152600187016080610f1f84010152039084f0918215620009a95760405191826101e081011067ffffffffffffffff6101e0850111176200097a576101e0830160405260018601835273ffffffffffffffffffffffffffffffffffffffff871660208401526024356040840152336060840152604435608084015260643560a084015260843560c0840152600160e084015284610100840152846101208401528461014084015284610160840152426101808401526101a08301526101c0820152600184018352600360205260408320908051825573ffffffffffffffffffffffffffffffffffffffff6020820151167fffffffffffffffffffffffff0000000000000000000000000000000000000000600184015416176001830155604081015160028301556003820173ffffffffffffffffffffffffffffffffffffffff6060830151167fffffffffffffffffffffffff00000000000000000000000000000000000000008254161790556080810151600483015560a0810151600583015560c081015160068301556200054f6007830160e0830151151581547fffffffffffffffffffffffffffffffffffffffffffffffffffffffffffff000060ff61ff00610100880151151560081b16931691161717815573ffffffffffffffffffffffffffffffffffffffff610120840151167fffffffffffffffffffff0000000000000000000000000000000000000000ffff75ffffffffffffffffffffffffffffffffffffffff000083549260101b169116179055565b61014081015160088301556101608101516009830155610180810151600a8301556101a081015180519067ffffffffffffffff82116200094d5762000598600b85015462001939565b601f811162000903575b50602090601f83116001146200088d576101c093929187918362000881575b50506000198260011b9260031b1c191617600b8401555b015180519067ffffffffffffffff82116200085457620005fc600c84015462001939565b601f81116200080a575b50602090601f831160011462000781579180600c9273ffffffffffffffffffffffffffffffffffffffff969594889262000775575b50506000198260011b9260031b1c1916179101555b1690600183018152600460205260408120827fffffffffffffffffffffffff000000000000000000000000000000000000000082541617905581815260056020526001830160408220553381526006602052604081208054916801000000000000000083101562000748575093620006e682602096600173ffffffffffffffffffffffffffffffffffffffff9501815562001adb565b81549060031b9060001960018801831b921b191617905560405192602435845260443586850152604084015216907f46d55bf84e56a7caff8d4d261c76dc40d81b7b91e3f063366ad93c0adcb2df3860606001850192a3600160405191018152f35b807f4e487b7100000000000000000000000000000000000000000000000000000000602492526041600452fd5b0151905038806200063b565b90600c840186526020862091865b601f1985168110620007f1575092600c9260019273ffffffffffffffffffffffffffffffffffffffff97969583601f19811610620007d7575b505050811b0191015562000650565b015160001960f88460031b161c19169055388080620007c8565b919260206001819286850151815501940192016200078f565b600c8401865260208620601f840160051c8101602085106200084c575b601f830160051c820181106200083f57505062000606565b6000815560010162000827565b508062000827565b6024857f4e487b710000000000000000000000000000000000000000000000000000000081526041600452fd5b015190503880620005c1565b90600b850187526020872091875b601f1985168110620008ea575091839160019383601f196101c098971610620008d0575b505050811b01600b840155620005d8565b015160001960f88460031b161c19169055388080620008bf565b919260206001819286850151815501940192016200089b565b600b8501875260208720601f840160051c81016020851062000945575b601f830160051c8201811062000938575050620005a2565b6000815560010162000920565b508062000920565b6024867f4e487b710000000000000000000000000000000000000000000000000000000081526041600452fd5b7f4e487b7100000000000000000000000000000000000000000000000000000000600052604160045260246000fd5b6040513d85823e3d90fd5b6024847f4e487b710000000000000000000000000000000000000000000000000000000081526041600452fd5b6024837f4e487b710000000000000000000000000000000000000000000000000000000081526011600452fd5b62000a19906200198f565b62000a265781386200028d565b5080fd5b60646040517f08c379a000000000000000000000000000000000000000000000000000000000815260206004820152601660248201527f52657365727665207072696365207265717569726564000000000000000000006044820152fd5b60646040517f08c379a000000000000000000000000000000000000000000000000000000000815260206004820152600d60248201527f3130302d314d20736861726573000000000000000000000000000000000000006044820152fd5b50620f42406044351115620001f5565b60646040517f08c379a000000000000000000000000000000000000000000000000000000000815260206004820152600960248201527f4e6f74206f776e657200000000000000000000000000000000000000000000006044820152fd5b90506020813d60201162000ba5575b8162000b7260209383620019a4565b8101031262000ba1575173ffffffffffffffffffffffffffffffffffffffff8116810362000ba15738620001c8565b8280fd5b3d915062000b63565b80fd5b503462000bae57602060031936011262000bae5760043562000bd262001d2a565b80825260036020526040822090600782019182549060ff8260081c161562000dcd576009810154421062000d6f577fffffffffffffffffffffffffffffffffffffffffffffffffffffffffffff0000821684558473ffffffffffffffffffffffffffffffffffffffff9283600184015416906002840154823b1562000d6b576040517f42842e0e00000000000000000000000000000000000000000000000000000000815230600482015260109290921c861673ffffffffffffffffffffffffffffffffffffffff166024830152604482015290829082908183816064810103925af1801562000d605762000d44575b5050600801928480808061271062000cdf89546008549062001d66565b04866007541682821562000d3a575bf11562000d2f577f6216101534779c30cb51d5b3301eaa0fa4c738face70e70b0a604f67f8d93d0b916020915460101c169354604051908152a36001805580f35b6040513d86823e3d90fd5b506108fc62000cee565b62000d4f906200198f565b62000d5c57843862000cc2565b8480fd5b6040513d84823e3d90fd5b8380fd5b60646040517f08c379a000000000000000000000000000000000000000000000000000000000815260206004820152601660248201527f4275796f757420706572696f64206e6f74206f766572000000000000000000006044820152fd5b60646040517f08c379a000000000000000000000000000000000000000000000000000000000815260206004820152601060248201527f4e6f20616374697665206275796f7574000000000000000000000000000000006044820152fd5b503462000bae57602060031936011262000bae5773ffffffffffffffffffffffffffffffffffffffff6040602092600435815260048452205416604051908152f35b503462000bae57604060031936011262000bae5762000eb260043562000e9262001915565b908084528360205262000eac600160408620015462001b7f565b62001c88565b5080f35b503462000bae57604060031936011262000bae5762000ed4620018ec565b73ffffffffffffffffffffffffffffffffffffffff1681526006602052604081208054602435929083101562000bae57602062000f12848462001adb565b90546040519160031b1c8152f35b503462000bae578060031936011262000bae57602090604051908152f35b503462000bae57604060031936011262000bae5773ffffffffffffffffffffffffffffffffffffffff604062000f7362001915565b92600435815280602052209116600052602052602060ff604060002054166040519015158152f35b503462000bae57602060031936011262000bae576004358152600360205260409020805473ffffffffffffffffffffffffffffffffffffffff806001840154169260028101549180600383015416906004830154906005840154906006850154600786015490600887015493600988015495600a89015497600b8a016200102290620019c8565b99600c016200103190620019c8565b9a6040519d8e809e81526020015260408d015260608c015260808b015260a08a015260c089015260ff8116151560e08901528060081c60ff16151561010089015260101c166101208701526101408601526101608501526101808401526101e0806101a08501528301620010a59162001a99565b8281036101c0840152620010b99162001a99565b0390f35b503462000bae5760208060031936011262000a265773ffffffffffffffffffffffffffffffffffffffff620010f1620018ec565b168252600681526040822060405192838383549182815201908193835284832090835b8181106200116d57505050846200112d910385620019a4565b60405193838594850191818652518092526040850193925b8281106200115557505050500390f35b83518552869550938101939281019260010162001145565b82548452928601926001928301920162001114565b50602060031936011262000bae576004356200119d62001d2a565b8082526003602052604082206007810180549060ff8216806200134a575b15620012ec57600683015434106200128e577fffffffffffffffffffff000000000000000000000000000000000000000000ff9091163360101b75ffffffffffffffffffffffffffffffffffffffff000016176101001790553460088201556203f480420190814211620012615760090155604051903482527fd607df85a36bf5d43946b758a3ed335debb4cf09b92dbca3957452a787b58bd860203393a36001805580f35b6024847f4e487b710000000000000000000000000000000000000000000000000000000081526011600452fd5b60646040517f08c379a000000000000000000000000000000000000000000000000000000000815260206004820152601360248201527f42656c6f772072657365727665207072696365000000000000000000000000006044820152fd5b60646040517f08c379a000000000000000000000000000000000000000000000000000000000815260206004820152601360248201527f496e76616c6964207661756c74207374617465000000000000000000000000006044820152fd5b5060ff8260081c1615620011bb565b503462000bae578060031936011262000bae57602073ffffffffffffffffffffffffffffffffffffffff60075416604051908152f35b503462000bae578060031936011262000bae5760206040517f850d585eb7f024ccee5e68e55f2c26cc72e1e6ee456acf62135757a5eb9d4a108152f35b503462000bae57604060031936011262000bae57620013ea62001915565b3373ffffffffffffffffffffffffffffffffffffffff821603620014165762000eb29060043562001c88565b60046040517f6697b232000000000000000000000000000000000000000000000000000000008152fd5b503462000bae57604060031936011262000bae5762000eb26004356200146562001915565b90808452836020526200147f600160408620015462001b7f565b62001bdd565b503462000bae57602060031936011262000bae57600160406020926004358152808452200154604051908152f35b503462000bae578060031936011262000bae576020600854604051908152f35b503462000bae57604060031936011262000bae57600435602490813591620014fa62001d2a565b818452602090600382526040852060ff6007820154161580620017f0575b1562001793578386526004835273ffffffffffffffffffffffffffffffffffffffff6040872054166040517f70a0823100000000000000000000000000000000000000000000000000000000815233600482015284818581855afa80156200178857879189916200174d575b5010620016f0578087913b1562000a265781906044604051809481937f79cc67900000000000000000000000000000000000000000000000000000000083523360048401528b898401525af18015620016e557620016cf575b506008810154612710620015f46008548362001d66565b048103908111620016a3576200160d8660049262001d66565b910154918215620016765750049084808380156200166b575b8280929181923390f11562000d2f576040519384528301527f693faff7f0019974c7e4470b52030262ebd85d7f2bb9373e1c9eb677f4cabc9760403393a36001805580f35b6108fc915062001626565b7f4e487b710000000000000000000000000000000000000000000000000000000060005260126004526000fd5b82877f4e487b710000000000000000000000000000000000000000000000000000000081526011600452fd5b620016dd909691966200198f565b9438620015dd565b6040513d89823e3d90fd5b606484601385604051927f08c379a000000000000000000000000000000000000000000000000000000000845260048401528201527f496e73756666696369656e7420736861726573000000000000000000000000006044820152fd5b809250868092503d831162001780575b620017698183620019a4565b810103126200177c578690513862001584565b8780fd5b503d6200175d565b6040513d8a823e3d90fd5b606483601384604051927f08c379a000000000000000000000000000000000000000000000000000000000845260048401528201527f4275796f7574206e6f7420636f6d706c657465000000000000000000000000006044820152fd5b506008810154151562001518565b503462000bae57602060031936011262000bae57604060209173ffffffffffffffffffffffffffffffffffffffff62001836620018ec565b168152600583522054604051908152f35b90503462000a2657602060031936011262000a26576004357fffffffff00000000000000000000000000000000000000000000000000000000811680910362000ba157602092507f7965db0b000000000000000000000000000000000000000000000000000000008114908115620018c1575b5015158152f35b7f01ffc9a70000000000000000000000000000000000000000000000000000000091501438620018ba565b6004359073ffffffffffffffffffffffffffffffffffffffff821682036200191057565b600080fd5b6024359073ffffffffffffffffffffffffffffffffffffffff821682036200191057565b90600182811c9216801562001984575b60208310146200195557565b7f4e487b7100000000000000000000000000000000000000000000000000000000600052602260045260246000fd5b91607f169162001949565b67ffffffffffffffff81116200097a57604052565b90601f601f19910116810190811067ffffffffffffffff8211176200097a57604052565b9060405191826000825492620019de8462001939565b90818452600194858116908160001462001a55575060011462001a0e575b505062001a0c92500383620019a4565b565b9093915060005260209081600020936000915b81831062001a3c57505062001a0c93508201013880620019fc565b8554888401850152948501948794509183019162001a21565b905062001a0c9550602093507fffffffffffffffffffffffffffffffffffffffffffffffffffffffffffffff0091501682840152151560051b8201013880620019fc565b919082519283825260005b84811062001ac6575050601f19601f8460006020809697860101520116010190565b60208183018101518483018201520162001aa4565b805482101562001af45760005260206000200190600090565b7f4e487b7100000000000000000000000000000000000000000000000000000000600052603260045260246000fd5b81601f82011215620019105780359067ffffffffffffffff82116200097a576040519262001b5c6020601f19601f8601160185620019a4565b828452602083830101116200191057816000926020809301838601378301015290565b80600052600060205260406000203360005260205260ff604060002054161562001ba65750565b604490604051907fe2517d3f0000000000000000000000000000000000000000000000000000000082523360048301526024820152fd5b906000918083528260205273ffffffffffffffffffffffffffffffffffffffff6040842092169182845260205260ff6040842054161560001462001c835780835282602052604083208284526020526040832060017fffffffffffffffffffffffffffffffffffffffffffffffffffffffffffffff008254161790557f2f8788117e7eff1d82e926ec794901d17c78024a50270940304540a733656f0d339380a4600190565b505090565b906000918083528260205273ffffffffffffffffffffffffffffffffffffffff6040842092169182845260205260ff60408420541660001462001c83578083528260205260408320828452602052604083207fffffffffffffffffffffffffffffffffffffffffffffffffffffffffffffff0081541690557ff6391f5c32d9c69d2a47ea670b442974b53935d1edc7fd64eb21e047a839171b339380a4600190565b60026001541462001d3c576002600155565b60046040517f3ee5aeb5000000000000000000000000000000000000000000000000000000008152fd5b8181029291811591840414171562001d7a57565b7f4e487b7100000000000000000000000000000000000000000000000000000000600052601160045260246000fdfe604060c0815234620003da5762000f1f803803806200001e81620003df565b928339810160a082820312620003da5781516001600160401b0390818111620003da57826200004f91850162000405565b906020928385015190828211620003da576200006d91860162000405565b90858501519260608601519560018060a01b038716809703620003da5760800151918151818111620002da576003908154906001948583811c93168015620003cf575b8a841014620003b9578190601f9384811162000363575b508a90848311600114620002fc57600092620002f0575b505060001982851b1c191690851b1782555b8551928311620002da5760049586548581811c91168015620002cf575b8a821014620002ba578281116200026f575b50889184116001146200020457938394918492600095620001f8575b50501b92600019911b1c19161782555b3360805260a0528315620001e15760025490828201809211620001cc575060025560008381528083528481208054830190558451918252917fddf252ad1be2c89b69c2b068fc378daa952ba7f163c4a11628f55a4df523b3ef91a351610aa7908162000478823960805181818160d40152610337015260a051816105040152f35b601190634e487b7160e01b6000525260246000fd5b602490600086519163ec442f0560e01b8352820152fd5b0151935038806200013b565b9190601f1984169287600052848a6000209460005b8c898383106200025757505050106200023c575b50505050811b0182556200014b565b01519060f884600019921b161c19169055388080806200022d565b86860151895590970196948501948893500162000219565b87600052896000208380870160051c8201928c8810620002b0575b0160051c019086905b828110620002a35750506200011f565b6000815501869062000293565b925081926200028a565b602288634e487b7160e01b6000525260246000fd5b90607f16906200010d565b634e487b7160e01b600052604160045260246000fd5b015190503880620000de565b60008681528c8120899550929190601f198516908e5b8282106200034b575050841162000332575b505050811b018255620000f0565b015160001983871b60f8161c1916905538808062000324565b8385015186558b979095019493840193018e62000312565b909150846000528a6000208480850160051c8201928d8610620003af575b918991869594930160051c01915b8281106200039f575050620000c7565b600081558594508991016200038f565b9250819262000381565b634e487b7160e01b600052602260045260246000fd5b92607f1692620000b0565b600080fd5b6040519190601f01601f191682016001600160401b03811183821017620002da57604052565b919080601f84011215620003da5782516001600160401b038111620002da576020906200043b601f8201601f19168301620003df565b92818452828287010111620003da5760005b8181106200046357508260009394955001015290565b85810183015184820184015282016200044d56fe608060408181526004918236101561001657600080fd5b600092833560e01c91826306fdde03146107b957508163095ea7b3146106ce57816318160ddd146106af57816323b872dd14610543578163313ce5671461052757816333194c0a146104ec57816370a08231146104a957816379cc6790146102ff57816395d89b411461018157508063a9059cbb14610151578063dd62ed3e146100fc5763fbfa77cf146100a957600080fd5b346100f857816003193601126100f8576020905173ffffffffffffffffffffffffffffffffffffffff7f0000000000000000000000000000000000000000000000000000000000000000168152f35b5080fd5b50346100f857806003193601126100f857806020926101196108e5565b61012161090d565b73ffffffffffffffffffffffffffffffffffffffff91821683526001865283832091168252845220549051908152f35b50346100f857806003193601126100f85760209061017a6101706108e5565b6024359033610930565b5160018152f35b8383346100f857816003193601126100f857805190828454600181811c908083169283156102f5575b60209384841081146102c957838852879594939291811561028c575060011461022e575b50505003601f01601f191682019267ffffffffffffffff84118385101761020257508291826101fe92528261089d565b0390f35b806041867f4e487b71000000000000000000000000000000000000000000000000000000006024945252fd5b8888529193925086917f8a35acfbc15ff81a39ae7d344fd709f28e8600b4aa8c65c6b64bfe7fe36bd19b5b8284106102765750505090601f1992601f928201019181936101ce565b8054888501870152879450928501928101610259565b7fffffffffffffffffffffffffffffffffffffffffffffffffffffffffffffff0016848701525050151560051b830101905081601f601f196101ce565b60248960228c7f4e487b7100000000000000000000000000000000000000000000000000000000835252fd5b91607f16916101aa565b839150346100f857826003193601126100f85761031a6108e5565b906024359073ffffffffffffffffffffffffffffffffffffffff807f000000000000000000000000000000000000000000000000000000000000000016330361044c57831692831561041d578385528460205285852054918383106103be5750508184957fddf252ad1be2c89b69c2b068fc378daa952ba7f163c4a11628f55a4df523b3ef936020938688528785520381872055816002540360025551908152a380f35b610419848489519485947fe450d38c000000000000000000000000000000000000000000000000000000008652850160409194939273ffffffffffffffffffffffffffffffffffffffff606083019616825260208201520152565b0390fd5b602482868851917f96c6fd1e000000000000000000000000000000000000000000000000000000008352820152fd5b60648260208851917f08c379a0000000000000000000000000000000000000000000000000000000008352820152601360248201527f4f6e6c79207661756c742063616e206275726e000000000000000000000000006044820152fd5b5050346100f85760206003193601126100f8578060209273ffffffffffffffffffffffffffffffffffffffff6104dd6108e5565b16815280845220549051908152f35b5050346100f857816003193601126100f857602090517f00000000000000000000000000000000000000000000000000000000000000008152f35b5050346100f857816003193601126100f8576020905160128152f35b905082346106ac5760606003193601126106ac5761055f6108e5565b61056761090d565b916044359373ffffffffffffffffffffffffffffffffffffffff8316808352600160205286832033845260205286832054917fffffffffffffffffffffffffffffffffffffffffffffffffffffffffffffffff83106105cf575b60208861017a898989610930565b8683106106675781156106385733156106095750825260016020908152868320338452815291869020908590039055829061017a876105c1565b602490848951917f94280d62000000000000000000000000000000000000000000000000000000008352820152fd5b602490848951917fe602df05000000000000000000000000000000000000000000000000000000008352820152fd5b87517ffb8f41b2000000000000000000000000000000000000000000000000000000008152339181019182526020820193909352604081018790528291506060010390fd5b80fd5b5050346100f857816003193601126100f8576020906002549051908152f35b9050346107b557816003193601126107b5576106e86108e5565b6024359033156107865773ffffffffffffffffffffffffffffffffffffffff1691821561075757508083602095338152600187528181208582528752205582519081527f8c5be1e5ebec7d5bd14f71427d1e84f3dd0314c0f7b2291e5b200ac8c7c3b925843392a35160018152f35b602490858551917f94280d62000000000000000000000000000000000000000000000000000000008352820152fd5b602483868651917fe602df05000000000000000000000000000000000000000000000000000000008352820152fd5b8280fd5b849084346107b557826003193601126107b55782600354600181811c90808316928315610893575b60209384841081146102c957838852879594939291811561028c57506001146108345750505003601f01601f191682019267ffffffffffffffff84118385101761020257508291826101fe92528261089d565b600388529193925086917fc2575a0e9e593c00f959f8c92f12db2869c3395a3b0502d05e2516446f71f85b5b82841061087d5750505090601f1992601f928201019181936101ce565b8054888501870152879450928501928101610860565b91607f16916107e1565b60208082528251818301819052939260005b8581106108d157505050601f19601f8460006040809697860101520116010190565b8181018301518482016040015282016108af565b6004359073ffffffffffffffffffffffffffffffffffffffff8216820361090857565b600080fd5b6024359073ffffffffffffffffffffffffffffffffffffffff8216820361090857565b9173ffffffffffffffffffffffffffffffffffffffff808416928315610a405716928315610a0f57600090838252816020526040822054908382106109b7575091604082827fddf252ad1be2c89b69c2b068fc378daa952ba7f163c4a11628f55a4df523b3ef958760209652828652038282205586815220818154019055604051908152a3565b6040517fe450d38c00000000000000000000000000000000000000000000000000000000815273ffffffffffffffffffffffffffffffffffffffff919091166004820152602481019190915260448101839052606490fd5b60246040517fec442f0500000000000000000000000000000000000000000000000000000000815260006004820152fd5b60246040517f96c6fd1e00000000000000000000000000000000000000000000000000000000815260006004820152fdfea2646970667358221220ecd4aa04fbfd7fea755803617c76955edd7b2298cff0a5e0fb5ab50f63f9bc1864736f6c63430008140033a26469706673582212201520c5cee7580db13381a9b83dddd3baf2ef9c31dfec3f5655428bc9c7edaf3264736f6c634300081400332f8788117e7eff1d82e926ec794901d17c78024a50270940304540a733656f0d",
  "linkReferences": {},
  "deployedLinkReferences": {}
}