{
  "_format": "hh-sol-artifact-1",
  "contractName": "FractionalToken",
  "sourceName": "contracts/layer6/trading/FractionalOwnership.sol",
  "abi": [
    {
      "inputs": [
        {
          "internalType": "string",
          "name": "name",
          "type": "string"
        },
        {
          "internalType": "string",
          "name": "symbol",
          "type": "string"
        },
        {
          "internalType": "uint256",
          "name": "supply",
          "type": "uint256"
        },
        {
          "internalType": "address",
          "name": "owner",
          "type": "address"
        },
        {
          "internalType": "uint256",
          "name": "_vaultId",
          "type": "uint256"
        }
      ],
      "stateMutability": "nonpayable",
      "type": "constructor"
    },
    {
      "inputs": [
        {
          "internalType": "address",
          "name": "spender",
          "type": "address"
        },
        {
          "internalType": "uint256",
          "name": "allowance",
          "type": "uint256"
        },
        {
          "internalType": "uint256",
          "name": "needed",
          "type": "uint256"
        }
      ],
      "name": "ERC20InsufficientAllowance",
      "type": "error"
    },
    {
      "inputs": [
        {
          "internalType": "address",
          "name": "sender",
          "type": "address"
        },
        {
          "internalType": "uint256",
          "name": "balance",
          "type": "uint256"
        },
        {
          "internalType": "uint256",
          "name": "needed",
          "type": "uint256"
        }
      ],
      "name": "ERC20InsufficientBalance",
      "type": "error"
    },
    {
      "inputs": [
        {
          "internalType": "address",
          "name": "approver",
          "type": "address"
        }
      ],
      "name": "ERC20InvalidApprover",
      "type": "error"
    },
    {
      "inputs": [
        {
          "internalType": "address",
          "name": "receiver",
          "type": "address"
        }
      ],
      "name": "ERC20InvalidReceiver",
      "type": "error"
    },
    {
      "inputs": [
        {
          "internalType": "address",
          "name": "sender",
          "type": "address"
        }
      ],
      "name": "ERC20InvalidSender",
      "type": "error"
    },
    {
      "inputs": [
        {
          "internalType": "address",
          "name": "spender",
          "type": "address"
        }
      ],
      "name": "ERC20InvalidSpender",
      "type": "error"
    },
    {
      "anonymous": false,
      "inputs": [
        {
          "indexed": true,
          "internalType": "address",
          "name": "owner",
          "type": "address"
        },
        {
          "indexed": true,
          "internalType": "address",
          "name": "spender",
          "type": "address"
        },
        {
          "indexed": false,
          "internalType": "uint256",
          "name": "value",
          "type": "uint256"
        }
      ],
      "name": "Approval",
      "type": "event"
    },
    {
      "anonymous": false,
      "inputs": [
        {
          "indexed": true,
          "internalType": "address",
          "name": "from",
          "type": "address"
        },
        {
          "indexed": true,
          "internalType": "address",
          "name": "to",
          "type": "address"
        },
        {
          "indexed": false,
          "internalType": "uint256",
          "name": "value",
          "type": "uint256"
        }
      ],
      "name": "Transfer",
      "type": "event"
    },
    {
      "inputs": [
        {
          "internalType": "address",
          "name": "owner",
          "type": "address"
        },
        {
          "internalType": "address",
          "name": "spender",
          "type": "address"
        }
      ],
      "name": "allowance",
      "outputs": [
        {
          "internalType": "uint256",
          "name": "",
          "type": "uint256"
        }
      ],
      "stateMutability": "view",
      "type": "function"
    },
    {
      "inputs": [
        {
          "internalType": "address",
          "name": "spender",
          "type": "address"
        },
        {
          "internalType": "uint256",
          "name": "value",
          "type": "uint256"
        }
      ],
      "name": "approve",
      "outputs": [
        {
          "internalType": "bool",
          "name": "",
          "type": "bool"
        }
      ],
      "stateMutability": "nonpayable",
      "type": "function"
    },
    {
      "inputs": [
        {
          "internalType": "address",
          "name": "account",
          "type": "address"
        }
      ],
      "name": "balanceOf",
      "outputs": [
        {
          "internalType": "uint256",
          "name": "",
          "type": "uint256"
        }
      ],
      "stateMutability": "view",
      "type": "function"
    },
    {
      "inputs": [
        {
          "internalType": "address",
          "name": "account",
          "type": "address"
        },
        {
          "internalType": "uint256",
          "name": "amount",
          "type": "uint256"
        }
      ],
      "name": "burnFrom",
      "outputs": [],
      "stateMutability": "nonpayable",
      "type": "function"
    },
    {
      "inputs": [],
      "name": "decimals",
      "outputs": [
        {
          "internalType": "uint8",
          "name": "",
          "type": "uint8"
        }
      ],
      "stateMutability": "view",
      "type": "function"
    },
    {
      "inputs": [],
      "name": "name",
      "outputs": [
        {
          "internalType": "string",
          "name": "",
          "type": "string"
        }
      ],
      "stateMutability": "view",
      "type": "function"
    },
    {
      "inputs": [],
      "name": "symbol",
      "outputs": [
        {
          "internalType": "string",
          "name": "",
          "type": "string"
        }
      ],
      "stateMutability": "view",
      "type": "function"
    },
    {
      "inputs": [],
      "name": "totalSupply",
      "outputs": [
        {
          "internalType": "uint256",
          "name": "",
          "type": "uint256"
        }
      ],
      "stateMutability": "view",
      "type": "function"
    },
    {
      "inputs": [
        {
          "internalType": "address",
          "name": "to",
          "type": "address"
        },
        {
          "internalType": "uint256",
          "name": "value",
          "type": "uint256"
        }
      ],
      "name": "transfer",
      "outputs": [
        {
          "internalType": "bool",
          "name": "",
          "type": "bool"
        }
      ],
      "stateMutability": "nonpayable",
      "type": "function"
    },
    {
      "inputs": [
        {
          "internalType": "address",
          "name": "from",
          "type": "address"
        },
        {
          "internalType": "address",
          "name": "to",
          "type": "address"
        },
        {
          "internalType": "uint256",
          "name": "value",
          "type": "uint256"
        }
      ],
      "name": "transferFrom",
      "outputs": [
        {
          "internalType": "bool",
          "name": "",
          "type": "bool"
        }
      ],
      "stateMutability": "nonpayable",
      "type": "function"
    },
    {
      "inputs": [],
      "name": "vault",
      "outputs": [
        {
          "internalType": "address",
          "name": "",
          "type": "address"
        }
      ],
      "stateMutability": "view",
      "type": "function"
    },
    {
      "inputs": [],
      "name": "vaultId",
      "outputs": [
        {
          "internalType": "uint256",
          "name": "",
          "type": "uint256"
        }
      ],
      "stateMutability": "view",
      "type": "function"
    }
  ],
  "bytecode": "0x604060c0815234620003da5762000f1f803803806200001e81620003df565b928339810160a082820312620003da5781516001600160401b0390818111620003da57826200004f91850162000405565b906020928385015190828211620003da576200006d91860162000405565b90858501519260608601519560018060a01b038716809703620003da5760800151918151818111620002da576003908154906001948583811c93168015620003cf575b8a841014620003b9578190601f9384811162000363575b508a90848311600114620002fc57600092620002f0575b505060001982851b1c191690851b1782555b8551928311620002da5760049586548581811c91168015620002cf575b8a821014620002ba578281116200026f575b50889184116001146200020457938394918492600095620001f8575b50501b92600019911b1c19161782555b3360805260a0528315620001e15760025490828201809211620001cc575060025560008381528083528481208054830190558451918252917fddf252ad1be2c89b69c2b068fc378daa952ba7f163c4a11628f55a4df523b3ef91a351610aa7908162000478823960805181818160d40152610337015260a051816105040152f35b601190634e487b7160e01b6000525260246000fd5b602490600086519163ec442f0560e01b8352820152fd5b0151935038806200013b565b9190601f1984169287600052848a6000209460005b8c898383106200025757505050106200023c575b50505050811b0182556200014b565b01519060f884600019921b161c19169055388080806200022d565b86860151895590970196948501948893500162000219565b87600052896000208380870160051c8201928c8810620002b0575b0160051c019086905b828110620002a35750506200011f565b6000815501869062000293565b925081926200028a565b602288634e487b7160e01b6000525260246000fd5b90607f16906200010d565b634e487b7160e01b600052604160045260246000fd5b015190503880620000de565b60008681528c8120899550929190601f198516908e5b8282106200034b575050841162000332575b505050811b018255620000f0565b015160001983871b60f8161c1916905538808062000324565b8385015186558b979095019493840193018e62000312565b909150846000528a6000208480850160051c8201928d8610620003af575b918991869594930160051c01915b8281106200039f575050620000c7565b600081558594508991016200038f565b9250819262000381565b634e487b7160e01b600052602260045260246000fd5b92607f1692620000b0565b600080fd5b6040519190601f01601f191682016001600160401b03811183821017620002da57604052565b919080601f84011215620003da5782516001600160401b038111620002da576020906200043b601f8201601f19168301620003df565b92818452828287010111620003da5760005b8181106200046357508260009394955001015290565b85810183015184820184015282016200044d56fe608060408181526004918236101561001657600080fd5b600092833560e01c91826306fdde03146107b957508163095ea7b3146106ce57816318160ddd146106af57816323b872dd14610543578163313ce5671461052757816333194c0a146104ec57816370a08231146104a957816379cc6790146102ff57816395d89b411461018157508063a9059cbb14610151578063dd62ed3e146100fc5763fbfa77cf146100a957600080fd5b346100f857816003193601126100f8576020905173ffffffffffffffffffffffffffffffffffffffff7f0000000000000000000000000000000000000000000000000000000000000000168152f35b5080fd5b50346100f857806003193601126100f857806020926101196108e5565b61012161090d565b73ffffffffffffffffffffffffffffffffffffffff91821683526001865283832091168252845220549051908152f35b50346100f857806003193601126100f85760209061017a6101706108e5565b6024359033610930565b5160018152f35b8383346100f857816003193601126100f857805190828454600181811c908083169283156102f5575b60209384841081146102c957838852879594939291811561028c575060011461022e575b50505003601f01601f191682019267ffffffffffffffff84118385101761020257508291826101fe92528261089d565b0390f35b806041867f4e487b71000000000000000000000000000000000000000000000000000000006024945252fd5b8888529193925086917f8a35acfbc15ff81a39ae7d344fd709f28e8600b4aa8c65c6b64bfe7fe36bd19b5b8284106102765750505090601f1992601f928201019181936101ce565b8054888501870152879450928501928101610259565b7fffffffffffffffffffffffffffffffffffffffffffffffffffffffffffffff0016848701525050151560051b830101905081601f601f196101ce565b60248960228c7f4e487b7100000000000000000000000000000000000000000000000000000000835252fd5b91607f16916101aa565b839150346100f857826003193601126100f85761031a6108e5565b906024359073ffffffffffffffffffffffffffffffffffffffff807f000000000000000000000000000000000000000000000000000000000000000016330361044c57831692831561041d578385528460205285852054918383106103be5750508184957fddf252ad1be2c89b69c2b068fc378daa952ba7f163c4a11628f55a4df523b3ef936020938688528785520381872055816002540360025551908152a380f35b610419848489519485947fe450d38c000000000000000000000000000000000000000000000000000000008652850160409194939273ffffffffffffffffffffffffffffffffffffffff606083019616825260208201520152565b0390fd5b602482868851917f96c6fd1e000000000000000000000000000000000000000000000000000000008352820152fd5b60648260208851917f08c379a0000000000000000000000000000000000000000000000000000000008352820152601360248201527f4f6e6c79207661756c742063616e206275726e000000000000000000000000006044820152fd5b5050346100f85760206003193601126100f8578060209273ffffffffffffffffffffffffffffffffffffffff6104dd6108e5565b16815280845220549051908152f35b5050346100f857816003193601126100f857602090517f00000000000000000000000000000000000000000000000000000000000000008152f35b5050346100f857816003193601126100f8576020905160128152f35b905082346106ac5760606003193601126106ac5761055f6108e5565b61056761090d565b916044359373ffffffffffffffffffffffffffffffffffffffff8316808352600160205286832033845260205286832054917fffffffffffffffffffffffffffffffffffffffffffffffffffffffffffffffff83106105cf575b60208861017a898989610930565b8683106106675781156106385733156106095750825260016020908152868320338452815291869020908590039055829061017a876105c1565b602490848951917f94280d62000000000000000000000000000000000000000000000000000000008352820152fd5b602490848951917fe602df05000000000000000000000000000000000000000000000000000000008352820152fd5b87517ffb8f41b2000000000000000000000000000000000000000000000000000000008152339181019182526020820193909352604081018790528291506060010390fd5b80fd5b5050346100f857816003193601126100f8576020906002549051908152f35b9050346107b557816003193601126107b5576106e86108e5565b6024359033156107865773ffffffffffffffffffffffffffffffffffffffff1691821561075757508083602095338152600187528181208582528752205582519081527f8c5be1e5ebec7d5bd14f71427d1e84f3dd0314c0f7b2291e5b200ac8c7c3b925843392a35160018152f35b602490858551917f94280d62000000000000000000000000000000000000000000000000000000008352820152fd5b602483868651917fe602df05000000000000000000000000000000000000000000000000000000008352820152fd5b8280fd5b849084346107b557826003193601126107b55782600354600181811c90808316928315610893575b60209384841081146102c957838852879594939291811561028c57506001146108345750505003601f01601f191682019267ffffffffffffffff84118385101761020257508291826101fe92528261089d565b600388529193925086917fc2575a0e9e593c00f959f8c92f12db2869c3395a3b0502d05e2516446f71f85b5b82841061087d5750505090601f1992601f928201019181936101ce565b8054888501870152879450928501928101610860565b91607f16916107e1565b60208082528251818301819052939260005b8581106108d157505050601f19601f8460006040809697860101520116010190565b8181018301518482016040015282016108af565b6004359073ffffffffffffffffffffffffffffffffffffffff8216820361090857565b600080fd5b6024359073ffffffffffffffffffffffffffffffffffffffff8216820361090857565b9173ffffffffffffffffffffffffffffffffffffffff808416928315610a405716928315610a0f57600090838252816020526040822054908382106109b7575091604082827fddf252ad1be2c89b69c2b068fc378daa952ba7f163c4a11628f55a4df523b3ef958760209652828652038282205586815220818154019055604051908152a3565b6040517fe450d38c00000000000000000000000000000000000000000000000000000000815273ffffffffffffffffffffffffffffffffffffffff919091166004820152602481019190915260448101839052606490fd5b60246040517fec442f0500000000000000000000000000000000000000000000000000000000815260006004820152fd5b60246040517f96c6fd1e00000000000000000000000000000000000000000000000000000000815260006004820152fdfea2646970667358221220ecd4aa04fbfd7fea755803617c76955edd7b2298cff0a5e0fb5ab50f63f9bc1864736f6c63430008140033",
  "linkReferences": {},
  "deployedLinkReferences": {}
}