{
  "_format": "hh-sol-artifact-1",
  "contractName": "RealityMarketplace",
  "sourceName": "contracts/layer3/reality/RealityMarketplace.sol",
  "abi": [
    {
      "inputs": [],
      "stateMutability": "nonpayable",
      "type": "constructor"
    },
    {
      "inputs": [
        {
          "internalType": "address",
          "name": "owner",
          "type": "address"
        }
      ],
      "name": "OwnableInvalidOwner",
      "type": "error"
    },
    {
      "inputs": [
        {
          "internalType": "address",
          "name": "account",
          "type": "address"
        }
      ],
      "name": "OwnableUnauthorizedAccount",
      "type": "error"
    },
    {
      "inputs": [],
      "name": "ReentrancyGuardReentrantCall",
      "type": "error"
    },
    {
      "anonymous": false,
      "inputs": [
        {
          "indexed": true,
          "internalType": "uint256",
          "name": "moduleId",
          "type": "uint256"
        },
        {
          "indexed": false,
          "internalType": "address",
          "name": "licensee",
          "type": "address"
        },
        {
          "indexed": false,
          "internalType": "uint256",
          "name": "duration",
          "type": "uint256"
        }
      ],
      "name": "ModuleLicensed",
      "type": "event"
    },
    {
      "anonymous": false,
      "inputs": [
        {
          "indexed": true,
          "internalType": "uint256",
          "name": "listingId",
          "type": "uint256"
        },
        {
          "indexed": false,
          "internalType": "uint256",
          "name": "moduleId",
          "type": "uint256"
        },
        {
          "indexed": false,
          "internalType": "uint256",
          "name": "price",
          "type": "uint256"
        }
      ],
      "name": "ModuleListed",
      "type": "event"
    },
    {
      "anonymous": false,
      "inputs": [
        {
          "indexed": true,
          "internalType": "uint256",
          "name": "listingId",
          "type": "uint256"
        },
        {
          "indexed": false,
          "internalType": "address",
          "name": "buyer",
          "type": "address"
        },
        {
          "indexed": false,
          "internalType": "uint256",
          "name": "price",
          "type": "uint256"
        }
      ],
      "name": "ModuleSold",
      "type": "event"
    },
    {
      "anonymous": false,
      "inputs": [
        {
          "indexed": true,
          "internalType": "address",
          "name": "previousOwner",
          "type": "address"
        },
        {
          "indexed": true,
          "internalType": "address",
          "name": "newOwner",
          "type": "address"
        }
      ],
      "name": "OwnershipTransferred",
      "type": "event"
    },
    {
      "inputs": [],
      "name": "FEE_DENOMINATOR",
      "outputs": [
        {
          "internalType": "uint256",
          "name": "",
          "type": "uint256"
        }
      ],
      "stateMutability": "view",
      "type": "function"
    },
    {
      "inputs": [
        {
          "internalType": "uint256",
          "name": "listingId",
          "type": "uint256"
        }
      ],
      "name": "buyModule",
      "outputs": [],
      "stateMutability": "payable",
      "type": "function"
    },
    {
      "inputs": [
        {
          "internalType": "uint256",
          "name": "moduleId",
          "type": "uint256"
        },
        {
          "internalType": "address",
          "name": "user",
          "type": "address"
        }
      ],
      "name": "hasLicense",
      "outputs": [
        {
          "internalType": "bool",
          "name": "",
          "type": "bool"
        }
      ],
      "stateMutability": "view",
      "type": "function"
    },
    {
      "inputs": [
        {
          "internalType": "uint256",
          "name": "moduleId",
          "type": "uint256"
        },
        {
          "internalType": "uint256",
          "name": "duration",
          "type": "uint256"
        }
      ],
      "name": "licenseModule",
      "outputs": [],
      "stateMutability": "payable",
      "type": "function"
    },
    {
      "inputs": [
        {
          "internalType": "uint256",
          "name": "moduleId",
          "type": "uint256"
        },
        {
          "internalType": "uint256",
          "name": "price",
          "type": "uint256"
        },
        {
          "internalType": "string",
          "name": "moduleType",
          "type": "string"
        }
      ],
      "name": "listModule",
      "outputs": [],
      "stateMutability": "nonpayable",
      "type": "function"
    },
    {
      "inputs": [],
      "name": "listingCount",
      "outputs": [
        {
          "internalType": "uint256",
          "name": "",
          "type": "uint256"
        }
      ],
      "stateMutability": "view",
      "type": "function"
    },
    {
      "inputs": [
        {
          "internalType": "uint256",
          "name": "",
          "type": "uint256"
        }
      ],
      "name": "listings",
      "outputs": [
        {
          "internalType": "uint256",
          "name": "moduleId",
          "type": "uint256"
        },
        {
          "internalType": "address",
          "name": "seller",
          "type": "address"
        },
        {
          "internalType": "uint256",
          "name": "price",
          "type": "uint256"
        },
        {
          "internalType": "bool",
          "name": "isActive",
          "type": "bool"
        },
        {
          "internalType": "string",
          "name": "moduleType",
          "type": "string"
        },
        {
          "internalType": "uint256",
          "name": "listedAt",
          "type": "uint256"
        }
      ],
      "stateMutability": "view",
      "type": "function"
    },
    {
      "inputs": [
        {
          "internalType": "uint256",
          "name": "",
          "type": "uint256"
        },
        {
          "internalType": "uint256",
          "name": "",
          "type": "uint256"
        }
      ],
      "name": "moduleLicenses",
      "outputs": [
        {
          "internalType": "uint256",
          "name": "moduleId",
          "type": "uint256"
        },
        {
          "internalType": "address",
          "name": "licensee",
          "type": "address"
        },
        {
          "internalType": "uint256",
          "name": "expiresAt",
          "type": "uint256"
        },
        {
          "internalType": "uint256",
          "name": "paidAmount",
          "type": "uint256"
        }
      ],
      "stateMutability": "view",
      "type": "function"
    },
    {
      "inputs": [],
      "name": "owner",
      "outputs": [
        {
          "internalType": "address",
          "name": "",
          "type": "address"
        }
      ],
      "stateMutability": "view",
      "type": "function"
    },
    {
      "inputs": [],
      "name": "platformFee",
      "outputs": [
        {
          "internalType": "uint256",
          "name": "",
          "type": "uint256"
        }
      ],
      "stateMutability": "view",
      "type": "function"
    },
    {
      "inputs": [],
      "name": "renounceOwnership",
      "outputs": [],
      "stateMutability": "nonpayable",
      "type": "function"
    },
    {
      "inputs": [
        {
          "internalType": "address",
          "name": "newOwner",
          "type": "address"
        }
      ],
      "name": "transferOwnership",
      "outputs": [],
      "stateMutability": "nonpayable",
      "type": "function"
    }
  ],
  "bytecode": "0x6080806040523461008357331561006d5760008054336001600160a01b03198216811783556040519290916001600160a01b0316907f8be0079c531659141344cd1fd0a4f28419497f9722a3daafe3b4186f6b6457e09080a36001805560fa600555610e1990816100898239f35b631e4fbdf760e01b815260006004820152602490fd5b600080fdfe608060408181526004908136101561001657600080fd5b60009260e08435811c91826322152283146107995750816326232a2e1461077a578163449b19301461063d5781634b997fa2146105f2578163715018a6146105745781638da5cb5b14610541578163a9b07c2614610522578163c351e2df146104af578163cf0dc4671461033e578163d73792a914610321578163de74e57b14610176575063f2fde38b146100aa57600080fd5b346101725760206003193601126101725781359173ffffffffffffffffffffffffffffffffffffffff9182841680940361016e576100e6610c05565b831561013f5750508254827fffffffffffffffffffffffff00000000000000000000000000000000000000008216178455167f8be0079c531659141344cd1fd0a4f28419497f9722a3daafe3b4186f6b6457e08380a380f35b908460249251917f1e4fbdf7000000000000000000000000000000000000000000000000000000008352820152fd5b8480fd5b8280fd5b918491503461031d576020918260031936011261031a5784358152600283528181209283549560019473ffffffffffffffffffffffffffffffffffffffff86820154169460028201549160ff600382015416938101825198899188918154916101de83610bcb565b928386528a83821691826000146102d5575050600114610296575b50505060059291610215919c9a999c9897969594980389610b3d565b0154948051998a988952848901528701521515606086015260c060808601528351938460c0870152825b8581106102805750505083830185015260a0830152601f017fffffffffffffffffffffffffffffffffffffffffffffffffffffffffffffffe0168101030190f35b818101830151898201890152889650820161023f565b8a52888a208993508a9291905b8284106102bb575050508201018161021560056101f9565b849295829585835492010152019101909288928c946102a3565b7fffffffffffffffffffffffffffffffffffffffffffffffffffffffffffffff001687820152931515600590811b870190940194508593610215935091506101f99050565b80fd5b5080fd5b84833461031d578160031936011261031d57602090516127108152f35b5050602060031936011261017257813591600260015414610488576002600155828452600260205281842090600382019060ff8254168061047a575b15610476576002830192835460055480820290828204148215171561046357600161271073ffffffffffffffffffffffffffffffffffffffff920493015416918082039382851161045057508893849384938493849114610447575bf11561043d5780547fffffffffffffffffffffffffffffffffffffffffffffffffffffffffffffff0016905554905133815260208101919091527f8280d2d78a3976a079175d823eb6effd821d3b1e3e888cb1b8cd87224d41d9f290604090a26001805580f35b82513d86823e3d90fd5b506108fc6103d6565b896011602492634e487b7160e01b835252fd5b602489601186634e487b7160e01b835252fd5b8580fd5b50600283015434101561037a565b90517f3ee5aeb5000000000000000000000000000000000000000000000000000000008152fd5b84833461031d576104bf36610b7e565b92908152600360205281812090815484101561031a57506080926104e291610b99565b509081549173ffffffffffffffffffffffffffffffffffffffff600182015416916003600283015492015492815194855260208501528301526060820152f35b5050903461017257826003193601126101725760209250549051908152f35b84833461031d578160031936011261031d5773ffffffffffffffffffffffffffffffffffffffff60209254169051908152f35b843461031a578060031936011261031a5761058d610c05565b8073ffffffffffffffffffffffffffffffffffffffff81547fffffffffffffffffffffffff000000000000000000000000000000000000000081168355167f8be0079c531659141344cd1fd0a4f28419497f9722a3daafe3b4186f6b6457e08280a380f35b505090346101725781600319360112610172576024359273ffffffffffffffffffffffffffffffffffffffff8416840361031a57506020926106349135610cad565b90519015158152f35b505061064836610b7e565b919092341561016e578242018042116107675782519061066782610b0b565b85825260208201338152848301918252606083019234845287895260036020528589208054906801000000000000000082101561075457906106ae91600182018155610b99565b9590956107425750518455516001840180547fffffffffffffffffffffffff00000000000000000000000000000000000000001673ffffffffffffffffffffffffffffffffffffffff909216919091179055516002830155516003909101555133815260208101919091527fd0e794b25b6e62a425fa3a2ac686f69958e5b4d556762695783ea733d62ac16f90604090a280f35b8980602492634e487b7160e01b825252fd5b60248b604189634e487b7160e01b835252fd5b602486601184634e487b7160e01b835252fd5b84833461031d578160031936011261031d576020906005549051908152f35b858591853461017257606060031936011261017257833560249485359060443567ffffffffffffffff808211610b075736602383011215610b07578183013596818811610af5576020977fffffffffffffffffffffffffffffffffffffffffffffffffffffffffffffffe0936108168a86601f8501160184610b3d565b818352368c8383010111610af157818b928d8c9301838601378301015261083d8454610c56565b9182855587519360c0850185811083821117610adf57908a918a528886528b8287013381528b8801908a82528c60608a0193600260019788875260808d019a8b5260a08d019b428d52835252209851895573ffffffffffffffffffffffffffffffffffffffff858a019151167fffffffffffffffffffffffff0000000000000000000000000000000000000000825416179055516002880155600387019051151560ff7fffffffffffffffffffffffffffffffffffffffffffffffffffffffffffffff00835416911617905586860193519c8d51938411610ace57506109238454610bcb565b601f8111610a86575b508a90601f84116001146109dd57509082806005969594938e9f7f3b42518972ed386ac7a6f6e3c3fdd6598b530f4e1c7dbd7248081221845785609e9f936109b2575b50507fffffffffffffffffffffffffffffffffffffffffffffffffffffffffffffffff91921b9260031b1c19161790555b5191015554948351928352820152a280f35b015191507fffffffffffffffffffffffffffffffffffffffffffffffffffffffffffffffff3861096f565b839293169c848d528b8d209d8d5b818110610a6b5750917f3b42518972ed386ac7a6f6e3c3fdd6598b530f4e1c7dbd7248081221845785609c9d9e91846005989796959410610a34575b505050811b0190556109a0565b01517fffffffffffffffffffffffffffffffffffffffffffffffffffffffffffffffff60f88460031b161c191690558d8080610a27565b919e8f868f928684930151815501940192019e91929e6109eb565b848d528b8d20601f850160051c8101918d8610610ac4575b601f0160051c019083908e5b838210610ab95750505061092c565b81550183908e610aaa565b9091508190610a9e565b8c604189634e487b7160e01b835252fd5b8c8c604189634e487b7160e01b835252fd5b8a80fd5b8989604186634e487b7160e01b835252fd5b8780fd5b6080810190811067ffffffffffffffff821117610b2757604052565b634e487b7160e01b600052604160045260246000fd5b90601f7fffffffffffffffffffffffffffffffffffffffffffffffffffffffffffffffe0910116810190811067ffffffffffffffff821117610b2757604052565b6003196040910112610b94576004359060243590565b600080fd5b8054821015610bb55760005260206000209060021b0190600090565b634e487b7160e01b600052603260045260246000fd5b90600182811c92168015610bfb575b6020831014610be557565b634e487b7160e01b600052602260045260246000fd5b91607f1691610bda565b73ffffffffffffffffffffffffffffffffffffffff600054163303610c2657565b60246040517f118cdaa7000000000000000000000000000000000000000000000000000000008152336004820152fd5b7fffffffffffffffffffffffffffffffffffffffffffffffffffffffffffffffff8114610c835760010190565b634e487b7160e01b600052601160045260246000fd5b8051821015610bb55760209160051b010190565b9060009182526003906020908282526040918285209384549067ffffffffffffffff8211610dcf5794845195610ce8848460051b0188610b3d565b8287529087528287208791848089015b858510610d7a57505050505050845b8451811015610d725773ffffffffffffffffffffffffffffffffffffffff8083610d318489610c99565b510151169084161480610d5c575b610d5157610d4c90610c56565b610d07565b505050505050600190565b5083610d688287610c99565b5101514210610d3f565b505050505090565b6001916004918a51610d8b81610b0b565b8654815273ffffffffffffffffffffffffffffffffffffffff85880154168382015260028701548c8201528587015460608201528152019301930192918590610cf8565b602487634e487b7160e01b81526041600452fdfea26469706673582212207d40cbba4482e7d63bf101c1318fe16df0a479ecaabc9b0c354042107605227d64736f6c63430008140033",
  "linkReferences": {},
  "deployedLinkReferences": {}
}