{
  "_format": "hh-sol-artifact-1",
  "contractName": "RealityMarketplace",
  "sourceName": "contracts/layer3/reality/RealityMarketplace.sol",
  "abi": [
    {
      "inputs": [],
      "stateMutability": "nonpayable",
      "type": "constructor"
    },
    {
      "inputs": [
        {
          "internalType": "address",
          "name": "owner",
          "type": "address"
        }
      ],
      "name": "OwnableInvalidOwner",
      "type": "error"
    },
    {
      "inputs": [
        {
          "internalType": "address",
          "name": "account",
          "type": "address"
        }
      ],
      "name": "OwnableUnauthorizedAccount",
      "type": "error"
    },
    {
      "inputs": [],
      "name": "ReentrancyGuardReentrantCall",
      "type": "error"
    },
    {
      "anonymous": false,
      "inputs": [
        {
          "indexed": true,
          "internalType": "uint256",
          "name": "moduleId",
          "type": "uint256"
        },
        {
          "indexed": false,
          "internalType": "address",
          "name": "licensee",
          "type": "address"
        },
        {
          "indexed": false,
          "internalType": "uint256",
          "name": "duration",
          "type": "uint256"
        }
      ],
      "name": "ModuleLicensed",
      "type": "event"
    },
    {
      "anonymous": false,
      "inputs": [
        {
          "indexed": true,
          "internalType": "uint256",
          "name": "listingId",
          "type": "uint256"
        },
        {
          "indexed": false,
          "internalType": "uint256",
          "name": "moduleId",
          "type": "uint256"
        },
        {
          "indexed": false,
          "internalType": "uint256",
          "name": "price",
          "type": "uint256"
        }
      ],
      "name": "ModuleListed",
      "type": "event"
    },
    {
      "anonymous": false,
      "inputs": [
        {
          "indexed": true,
          "internalType": "uint256",
          "name": "listingId",
          "type": "uint256"
        },
        {
          "indexed": false,
          "internalType": "address",
          "name": "buyer",
          "type": "address"
        },
        {
          "indexed": false,
          "internalType": "uint256",
          "name": "price",
          "type": "uint256"
        }
      ],
      "name": "ModuleSold",
      "type": "event"
    },
    {
      "anonymous": false,
      "inputs": [
        {
          "indexed": true,
          "internalType": "address",
          "name": "previousOwner",
          "type": "address"
        },
        {
          "indexed": true,
          "internalType": "address",
          "name": "newOwner",
          "type": "address"
        }
      ],
      "name": "OwnershipTransferred",
      "type": "event"
    },
    {
      "inputs": [],
      "name": "FEE_DENOMINATOR",
      "outputs": [
        {
          "internalType": "uint256",
          "name": "",
          "type": "uint256"
        }
      ],
      "stateMutability": "view",
      "type": "function"
    },
    {
      "inputs": [
        {
          "internalType": "uint256",
          "name": "listingId",
          "type": "uint256"
        }
      ],
      "name": "buyModule",
      "outputs": [],
      "stateMutability": "payable",
      "type": "function"
    },
    {
      "inputs": [
        {
          "internalType": "uint256",
          "name": "moduleId",
          "type": "uint256"
        },
        {
          "internalType": "address",
          "name": "user",
          "type": "address"
        }
      ],
      "name": "hasLicense",
      "outputs": [
        {
          "internalType": "bool",
          "name": "",
          "type": "bool"
        }
      ],
      "stateMutability": "view",
      "type": "function"
    },
    {
      "inputs": [
        {
          "internalType": "uint256",
          "name": "moduleId",
          "type": "uint256"
        },
        {
          "internalType": "uint256",
          "name": "duration",
          "type": "uint256"
        }
      ],
      "name": "licenseModule",
      "outputs": [],
      "stateMutability": "payable",
      "type": "function"
    },
    {
      "inputs": [
        {
          "internalType": "uint256",
          "name": "moduleId",
          "type": "uint256"
        },
        {
          "internalType": "uint256",
          "name": "price",
          "type": "uint256"
        },
        {
          "internalType": "string",
          "name": "moduleType",
          "type": "string"
        }
      ],
      "name": "listModule",
      "outputs": [],
      "stateMutability": "nonpayable",
      "type": "function"
    },
    {
      "inputs": [],
      "name": "listingCount",
      "outputs": [
        {
          "internalType": "uint256",
          "name": "",
          "type": "uint256"
        }
      ],
      "stateMutability": "view",
      "type": "function"
    },
    {
      "inputs": [
        {
          "internalType": "uint256",
          "name": "",
          "type": "uint256"
        }
      ],
      "name": "listings",
      "outputs": [
        {
          "internalType": "uint256",
          "name": "moduleId",
          "type": "uint256"
        },
        {
          "internalType": "address",
          "name": "seller",
          "type": "address"
        },
        {
          "internalType": "uint256",
          "name": "price",
          "type": "uint256"
        },
        {
          "internalType": "bool",
          "name": "isActive",
          "type": "bool"
        },
        {
          "internalType": "string",
          "name": "moduleType",
          "type": "string"
        },
        {
          "internalType": "uint256",
          "name": "listedAt",
          "type": "uint256"
        }
      ],
      "stateMutability": "view",
      "type": "function"
    },
    {
      "inputs": [
        {
          "internalType": "uint256",
          "name": "",
          "type": "uint256"
        },
        {
          "internalType": "uint256",
          "name": "",
          "type": "uint256"
        }
      ],
      "name": "moduleLicenses",
      "outputs": [
        {
          "internalType": "uint256",
          "name": "moduleId",
          "type": "uint256"
        },
        {
          "internalType": "address",
          "name": "licensee",
          "type": "address"
        },
        {
          "internalType": "uint256",
          "name": "expiresAt",
          "type": "uint256"
        },
        {
          "internalType": "uint256",
          "name": "paidAmount",
          "type": "uint256"
        }
      ],
      "stateMutability": "view",
      "type": "function"
    },
    {
      "inputs": [],
      "name": "owner",
      "outputs": [
        {
          "internalType": "address",
          "name": "",
          "type": "address"
        }
      ],
      "stateMutability": "view",
      "type": "function"
    },
    {
      "inputs": [],
      "name": "platformFee",
      "outputs": [
        {
          "internalType": "uint256",
          "name": "",
          "type": "uint256"
        }
      ],
      "stateMutability": "view",
      "type": "function"
    },
    {
      "inputs": [],
      "name": "renounceOwnership",
      "outputs": [],
      "stateMutability": "nonpayable",
      "type": "function"
    },
    {
      "inputs": [
        {
          "internalType": "address",
          "name": "newOwner",
          "type": "address"
        }
      ],
      "name": "transferOwnership",
      "outputs": [],
      "stateMutability": "nonpayable",
      "type": "function"
    }
  ],
  "bytecode": "0x608060405260fa60055534801561001557600080fd5b50338061003c57604051631e4fbdf760e01b81526000600482015260240160405180910390fd5b6100458161004f565b506001805561009f565b600080546001600160a01b038381166001600160a01b0319831681178455604051919092169283917f8be0079c531659141344cd1fd0a4f28419497f9722a3daafe3b4186f6b6457e09190a35050565b610c7e806100ae6000396000f3fe6080604052600436106100a75760003560e01c8063a9b07c2611610064578063a9b07c2614610177578063c351e2df1461018d578063cf0dc467146101d5578063d73792a9146101e8578063de74e57b146101fe578063f2fde38b1461023057600080fd5b806322152283146100ac57806326232a2e146100ce578063449b1930146100f75780634b997fa21461010a578063715018a61461013a5780638da5cb5b1461014f575b600080fd5b3480156100b857600080fd5b506100cc6100c7366004610876565b610250565b005b3480156100da57600080fd5b506100e460055481565b6040519081526020015b60405180910390f35b6100cc61010536600461093a565b610351565b34801561011657600080fd5b5061012a610125366004610978565b610425565b60405190151581526020016100ee565b34801561014657600080fd5b506100cc610546565b34801561015b57600080fd5b506000546040516001600160a01b0390911681526020016100ee565b34801561018357600080fd5b506100e460045481565b34801561019957600080fd5b506101ad6101a836600461093a565b61055a565b604080519485526001600160a01b0390931660208501529183015260608201526080016100ee565b6100cc6101e33660046109a4565b6105a9565b3480156101f457600080fd5b506100e461271081565b34801561020a57600080fd5b5061021e6102193660046109a4565b6106ab565b6040516100ee969594939291906109bd565b34801561023c57600080fd5b506100cc61024b366004610a39565b610779565b6004805490600061026083610a71565b90915550506040805160c081018252848152336020808301918252828401868152600160608501818152608086018881524260a08801526004805460009081526002968790529890982087518155955192860180546001600160a01b0319166001600160a01b03909416939093179092559151928401929092555160038301805460ff19169115159190911790555191929091908201906103019082610b13565b5060a0919091015160059091015560045460408051858152602081018590527f3b42518972ed386ac7a6f6e3c3fdd6598b530f4e1c7dbd72480812218457856091015b60405180910390a2505050565b6000341161035e57600080fd5b6040805160808101825283815233602082015260009181016103808442610bd3565b8152346020918201526000858152600380835260408083208054600180820183559185529385902086516004909502019384558585015190840180546001600160a01b0319166001600160a01b0390921691909117905584810151600284015560608501519290910191909155805133815291820185905291925084917fd0e794b25b6e62a425fa3a2ac686f69958e5b4d556762695783ea733d62ac16f9101610344565b600082815260036020908152604080832080548251818502810185019093528083528493849084015b828210156104ab5760008481526020908190206040805160808101825260048602909201805483526001808201546001600160a01b031684860152600282015492840192909252600301546060830152908352909201910161044e565b50505050905060005b815181101561053957836001600160a01b03168282815181106104d9576104d9610be6565b6020026020010151602001516001600160a01b031614801561051757504282828151811061050957610509610be6565b602002602001015160400151115b1561052757600192505050610540565b8061053181610a71565b9150506104b4565b5060009150505b92915050565b61054e6107b9565b61055860006107e6565b565b6003602052816000526040600020818154811061057657600080fd5b600091825260209091206004909102018054600182015460028301546003909301549194506001600160a01b0316925084565b6105b1610836565b6000818152600260205260409020600381015460ff1680156105d7575080600201543410155b6105e057600080fd5b600061271060055483600201546105f79190610bfc565b6106019190610c13565b600183015460028401549192506001600160a01b0316906108fc90610627908490610c35565b6040518115909202916000818181858888f1935050505015801561064f573d6000803e3d6000fd5b5060038201805460ff19169055600282015460408051338152602081019290925284917f8280d2d78a3976a079175d823eb6effd821d3b1e3e888cb1b8cd87224d41d9f2910160405180910390a250506106a860018055565b50565b60026020819052600091825260409091208054600182015492820154600383015460048401805493956001600160a01b031694929360ff90921692916106f090610a8a565b80601f016020809104026020016040519081016040528092919081815260200182805461071c90610a8a565b80156107695780601f1061073e57610100808354040283529160200191610769565b820191906000526020600020905b81548152906001019060200180831161074c57829003601f168201915b5050505050908060050154905086565b6107816107b9565b6001600160a01b0381166107b057604051631e4fbdf760e01b8152600060048201526024015b60405180910390fd5b6106a8816107e6565b6000546001600160a01b031633146105585760405163118cdaa760e01b81523360048201526024016107a7565b600080546001600160a01b038381166001600160a01b0319831681178455604051919092169283917f8be0079c531659141344cd1fd0a4f28419497f9722a3daafe3b4186f6b6457e09190a35050565b60026001540361085957604051633ee5aeb560e01b815260040160405180910390fd5b6002600155565b634e487b7160e01b600052604160045260246000fd5b60008060006060848603121561088b57600080fd5b8335925060208401359150604084013567ffffffffffffffff808211156108b157600080fd5b818601915086601f8301126108c557600080fd5b8135818111156108d7576108d7610860565b604051601f8201601f19908116603f011681019083821181831017156108ff576108ff610860565b8160405282815289602084870101111561091857600080fd5b8260208601602083013760006020848301015280955050505050509250925092565b6000806040838503121561094d57600080fd5b50508035926020909101359150565b80356001600160a01b038116811461097357600080fd5b919050565b6000806040838503121561098b57600080fd5b8235915061099b6020840161095c565b90509250929050565b6000602082840312156109b657600080fd5b5035919050565b8681526000602060018060a01b03881681840152866040840152851515606084015260c0608084015284518060c085015260005b81811015610a0d5786810183015185820160e0015282016109f1565b50600060e0828601015260e0601f19601f830116850101925050508260a0830152979650505050505050565b600060208284031215610a4b57600080fd5b610a548261095c565b9392505050565b634e487b7160e01b600052601160045260246000fd5b600060018201610a8357610a83610a5b565b5060010190565b600181811c90821680610a9e57607f821691505b602082108103610abe57634e487b7160e01b600052602260045260246000fd5b50919050565b601f821115610b0e57600081815260208120601f850160051c81016020861015610aeb5750805b601f850160051c820191505b81811015610b0a57828155600101610af7565b5050505b505050565b815167ffffffffffffffff811115610b2d57610b2d610860565b610b4181610b3b8454610a8a565b84610ac4565b602080601f831160018114610b765760008415610b5e5750858301515b600019600386901b1c1916600185901b178555610b0a565b600085815260208120601f198616915b82811015610ba557888601518255948401946001909101908401610b86565b5085821015610bc35787850151600019600388901b60f8161c191681555b5050505050600190811b01905550565b8082018082111561054057610540610a5b565b634e487b7160e01b600052603260045260246000fd5b808202811582820484141761054057610540610a5b565b600082610c3057634e487b7160e01b600052601260045260246000fd5b500490565b8181038181111561054057610540610a5b56fea264697066735822122016aa09e48b046c82d4bdd49e85a4cc4920b6a64ba3d272fb934e77d999d312ed64736f6c63430008140033",
  "linkReferences": {},
  "deployedLinkReferences": {}
}