{
  "_format": "hh-sol-artifact-1",
  "contractName": "TrainingGrounds",
  "sourceName": "contracts/layer5/TrainingGrounds.sol",
  "abi": [
    {
      "inputs": [
        {
          "internalType": "address",
          "name": "_treasury",
          "type": "address"
        }
      ],
      "stateMutability": "nonpayable",
      "type": "constructor"
    },
    {
      "inputs": [],
      "name": "AccessControlBadConfirmation",
      "type": "error"
    },
    {
      "inputs": [
        {
          "internalType": "address",
          "name": "account",
          "type": "address"
        },
        {
          "internalType": "bytes32",
          "name": "neededRole",
          "type": "bytes32"
        }
      ],
      "name": "AccessControlUnauthorizedAccount",
      "type": "error"
    },
    {
      "inputs": [],
      "name": "ReentrancyGuardReentrantCall",
      "type": "error"
    },
    {
      "anonymous": false,
      "inputs": [
        {
          "indexed": true,
          "internalType": "uint256",
          "name": "groundId",
          "type": "uint256"
        },
        {
          "indexed": false,
          "internalType": "string",
          "name": "name",
          "type": "string"
        },
        {
          "indexed": false,
          "internalType": "enum TrainingGrounds.TrainingType",
          "name": "trainingType",
          "type": "uint8"
        }
      ],
      "name": "GroundCreated",
      "type": "event"
    },
    {
      "anonymous": false,
      "inputs": [
        {
          "indexed": true,
          "internalType": "bytes32",
          "name": "role",
          "type": "bytes32"
        },
        {
          "indexed": true,
          "internalType": "bytes32",
          "name": "previousAdminRole",
          "type": "bytes32"
        },
        {
          "indexed": true,
          "internalType": "bytes32",
          "name": "newAdminRole",
          "type": "bytes32"
        }
      ],
      "name": "RoleAdminChanged",
      "type": "event"
    },
    {
      "anonymous": false,
      "inputs": [
        {
          "indexed": true,
          "internalType": "bytes32",
          "name": "role",
          "type": "bytes32"
        },
        {
          "indexed": true,
          "internalType": "address",
          "name": "account",
          "type": "address"
        },
        {
          "indexed": true,
          "internalType": "address",
          "name": "sender",
          "type": "address"
        }
      ],
      "name": "RoleGranted",
      "type": "event"
    },
    {
      "anonymous": false,
      "inputs": [
        {
          "indexed": true,
          "internalType": "bytes32",
          "name": "role",
          "type": "bytes32"
        },
        {
          "indexed": true,
          "internalType": "address",
          "name": "account",
          "type": "address"
        },
        {
          "indexed": true,
          "internalType": "address",
          "name": "sender",
          "type": "address"
        }
      ],
      "name": "RoleRevoked",
      "type": "event"
    },
    {
      "anonymous": false,
      "inputs": [
        {
          "indexed": true,
          "internalType": "uint256",
          "name": "groundId",
          "type": "uint256"
        },
        {
          "indexed": false,
          "internalType": "uint256",
          "name": "challenger",
          "type": "uint256"
        },
        {
          "indexed": false,
          "internalType": "uint256",
          "name": "opponent",
          "type": "uint256"
        }
      ],
      "name": "SparringAccepted",
      "type": "event"
    },
    {
      "anonymous": false,
      "inputs": [
        {
          "indexed": true,
          "internalType": "uint256",
          "name": "groundId",
          "type": "uint256"
        },
        {
          "indexed": false,
          "internalType": "uint256",
          "name": "challenger",
          "type": "uint256"
        },
        {
          "indexed": false,
          "internalType": "uint256",
          "name": "opponent",
          "type": "uint256"
        }
      ],
      "name": "SparringRequested",
      "type": "event"
    },
    {
      "anonymous": false,
      "inputs": [
        {
          "indexed": true,
          "internalType": "uint256",
          "name": "sessionId",
          "type": "uint256"
        },
        {
          "indexed": true,
          "internalType": "uint256",
          "name": "athleteId",
          "type": "uint256"
        }
      ],
      "name": "TrainingCompleted",
      "type": "event"
    },
    {
      "anonymous": false,
      "inputs": [
        {
          "indexed": true,
          "internalType": "uint256",
          "name": "sessionId",
          "type": "uint256"
        },
        {
          "indexed": true,
          "internalType": "uint256",
          "name": "athleteId",
          "type": "uint256"
        },
        {
          "indexed": false,
          "internalType": "uint256",
          "name": "groundId",
          "type": "uint256"
        }
      ],
      "name": "TrainingStarted",
      "type": "event"
    },
    {
      "inputs": [],
      "name": "DEFAULT_ADMIN_ROLE",
      "outputs": [
        {
          "internalType": "bytes32",
          "name": "",
          "type": "bytes32"
        }
      ],
      "stateMutability": "view",
      "type": "function"
    },
    {
      "inputs": [],
      "name": "TRAINER_ROLE",
      "outputs": [
        {
          "internalType": "bytes32",
          "name": "",
          "type": "bytes32"
        }
      ],
      "stateMutability": "view",
      "type": "function"
    },
    {
      "inputs": [
        {
          "internalType": "uint256",
          "name": "groundId",
          "type": "uint256"
        },
        {
          "internalType": "uint256",
          "name": "requestIndex",
          "type": "uint256"
        }
      ],
      "name": "acceptSparring",
      "outputs": [],
      "stateMutability": "nonpayable",
      "type": "function"
    },
    {
      "inputs": [
        {
          "internalType": "uint256",
          "name": "",
          "type": "uint256"
        }
      ],
      "name": "athleteInTraining",
      "outputs": [
        {
          "internalType": "bool",
          "name": "",
          "type": "bool"
        }
      ],
      "stateMutability": "view",
      "type": "function"
    },
    {
      "inputs": [
        {
          "internalType": "uint256",
          "name": "",
          "type": "uint256"
        },
        {
          "internalType": "uint256",
          "name": "",
          "type": "uint256"
        }
      ],
      "name": "athleteSessions",
      "outputs": [
        {
          "internalType": "uint256",
          "name": "sessionId",
          "type": "uint256"
        },
        {
          "internalType": "uint256",
          "name": "groundId",
          "type": "uint256"
        },
        {
          "internalType": "uint256",
          "name": "athleteId",
          "type": "uint256"
        },
        {
          "internalType": "uint256",
          "name": "startTime",
          "type": "uint256"
        },
        {
          "internalType": "uint256",
          "name": "endTime",
          "type": "uint256"
        },
        {
          "internalType": "enum TrainingGrounds.TrainingType",
          "name": "trainingType",
          "type": "uint8"
        },
        {
          "internalType": "uint256",
          "name": "statGained",
          "type": "uint256"
        },
        {
          "internalType": "bool",
          "name": "completed",
          "type": "bool"
        }
      ],
      "stateMutability": "view",
      "type": "function"
    },
    {
      "inputs": [
        {
          "internalType": "uint256",
          "name": "athleteId",
          "type": "uint256"
        },
        {
          "internalType": "uint256",
          "name": "sessionIndex",
          "type": "uint256"
        }
      ],
      "name": "completeTraining",
      "outputs": [],
      "stateMutability": "nonpayable",
      "type": "function"
    },
    {
      "inputs": [
        {
          "internalType": "string",
          "name": "name",
          "type": "string"
        },
        {
          "internalType": "uint256",
          "name": "venueId",
          "type": "uint256"
        },
        {
          "internalType": "enum TrainingGrounds.TrainingType",
          "name": "trainingType",
          "type": "uint8"
        },
        {
          "internalType": "uint256",
          "name": "maxConcurrent",
          "type": "uint256"
        },
        {
          "internalType": "uint256",
          "name": "hourlyFee",
          "type": "uint256"
        },
        {
          "internalType": "bool",
          "name": "isPublic",
          "type": "bool"
        }
      ],
      "name": "createTrainingGround",
      "outputs": [
        {
          "internalType": "uint256",
          "name": "",
          "type": "uint256"
        }
      ],
      "stateMutability": "nonpayable",
      "type": "function"
    },
    {
      "inputs": [
        {
          "internalType": "uint256",
          "name": "athleteId",
          "type": "uint256"
        }
      ],
      "name": "getAthleteSessions",
      "outputs": [
        {
          "components": [
            {
              "internalType": "uint256",
              "name": "sessionId",
              "type": "uint256"
            },
            {
              "internalType": "uint256",
              "name": "groundId",
              "type": "uint256"
            },
            {
              "internalType": "uint256",
              "name": "athleteId",
              "type": "uint256"
            },
            {
              "internalType": "uint256",
              "name": "startTime",
              "type": "uint256"
            },
            {
              "internalType": "uint256",
              "name": "endTime",
              "type": "uint256"
            },
            {
              "internalType": "enum TrainingGrounds.TrainingType",
              "name": "trainingType",
              "type": "uint8"
            },
            {
              "internalType": "uint256",
              "name": "statGained",
              "type": "uint256"
            },
            {
              "internalType": "bool",
              "name": "completed",
              "type": "bool"
            }
          ],
          "internalType": "struct TrainingGrounds.TrainingSession[]",
          "name": "",
          "type": "tuple[]"
        }
      ],
      "stateMutability": "view",
      "type": "function"
    },
    {
      "inputs": [
        {
          "internalType": "bytes32",
          "name": "role",
          "type": "bytes32"
        }
      ],
      "name": "getRoleAdmin",
      "outputs": [
        {
          "internalType": "bytes32",
          "name": "",
          "type": "bytes32"
        }
      ],
      "stateMutability": "view",
      "type": "function"
    },
    {
      "inputs": [
        {
          "internalType": "uint256",
          "name": "venueId",
          "type": "uint256"
        }
      ],
      "name": "getVenueGrounds",
      "outputs": [
        {
          "internalType": "uint256[]",
          "name": "",
          "type": "uint256[]"
        }
      ],
      "stateMutability": "view",
      "type": "function"
    },
    {
      "inputs": [
        {
          "internalType": "bytes32",
          "name": "role",
          "type": "bytes32"
        },
        {
          "internalType": "address",
          "name": "account",
          "type": "address"
        }
      ],
      "name": "grantRole",
      "outputs": [],
      "stateMutability": "nonpayable",
      "type": "function"
    },
    {
      "inputs": [
        {
          "internalType": "uint256",
          "name": "",
          "type": "uint256"
        }
      ],
      "name": "grounds",
      "outputs": [
        {
          "internalType": "uint256",
          "name": "groundId",
          "type": "uint256"
        },
        {
          "internalType": "string",
          "name": "name",
          "type": "string"
        },
        {
          "internalType": "uint256",
          "name": "venueId",
          "type": "uint256"
        },
        {
          "internalType": "enum TrainingGrounds.TrainingType",
          "name": "trainingType",
          "type": "uint8"
        },
        {
          "internalType": "uint256",
          "name": "maxConcurrentAthletes",
          "type": "uint256"
        },
        {
          "internalType": "uint256",
          "name": "currentAthletes",
          "type": "uint256"
        },
        {
          "internalType": "uint256",
          "name": "hourlyFee",
          "type": "uint256"
        },
        {
          "internalType": "bool",
          "name": "isPublic",
          "type": "bool"
        },
        {
          "internalType": "address",
          "name": "owner",
          "type": "address"
        },
        {
          "internalType": "uint256",
          "name": "totalSessions",
          "type": "uint256"
        }
      ],
      "stateMutability": "view",
      "type": "function"
    },
    {
      "inputs": [
        {
          "internalType": "bytes32",
          "name": "role",
          "type": "bytes32"
        },
        {
          "internalType": "address",
          "name": "account",
          "type": "address"
        }
      ],
      "name": "hasRole",
      "outputs": [
        {
          "internalType": "bool",
          "name": "",
          "type": "bool"
        }
      ],
      "stateMutability": "view",
      "type": "function"
    },
    {
      "inputs": [],
      "name": "platformFeePercent",
      "outputs": [
        {
          "internalType": "uint256",
          "name": "",
          "type": "uint256"
        }
      ],
      "stateMutability": "view",
      "type": "function"
    },
    {
      "inputs": [
        {
          "internalType": "bytes32",
          "name": "role",
          "type": "bytes32"
        },
        {
          "internalType": "address",
          "name": "callerConfirmation",
          "type": "address"
        }
      ],
      "name": "renounceRole",
      "outputs": [],
      "stateMutability": "nonpayable",
      "type": "function"
    },
    {
      "inputs": [
        {
          "internalType": "uint256",
          "name": "groundId",
          "type": "uint256"
        },
        {
          "internalType": "uint256",
          "name": "challengerAthleteId",
          "type": "uint256"
        },
        {
          "internalType": "uint256",
          "name": "opponentAthleteId",
          "type": "uint256"
        }
      ],
      "name": "requestSparring",
      "outputs": [],
      "stateMutability": "nonpayable",
      "type": "function"
    },
    {
      "inputs": [
        {
          "internalType": "bytes32",
          "name": "role",
          "type": "bytes32"
        },
        {
          "internalType": "address",
          "name": "account",
          "type": "address"
        }
      ],
      "name": "revokeRole",
      "outputs": [],
      "stateMutability": "nonpayable",
      "type": "function"
    },
    {
      "inputs": [
        {
          "internalType": "uint256",
          "name": "",
          "type": "uint256"
        },
        {
          "internalType": "uint256",
          "name": "",
          "type": "uint256"
        }
      ],
      "name": "sparringRequests",
      "outputs": [
        {
          "internalType": "uint256",
          "name": "challenger",
          "type": "uint256"
        },
        {
          "internalType": "uint256",
          "name": "opponent",
          "type": "uint256"
        },
        {
          "internalType": "uint256",
          "name": "groundId",
          "type": "uint256"
        },
        {
          "internalType": "uint256",
          "name": "requestTime",
          "type": "uint256"
        },
        {
          "internalType": "bool",
          "name": "accepted",
          "type": "bool"
        },
        {
          "internalType": "bool",
          "name": "completed",
          "type": "bool"
        }
      ],
      "stateMutability": "view",
      "type": "function"
    },
    {
      "inputs": [
        {
          "internalType": "uint256",
          "name": "groundId",
          "type": "uint256"
        },
        {
          "internalType": "uint256",
          "name": "athleteId",
          "type": "uint256"
        },
        {
          "internalType": "uint256",
          "name": "durationHours",
          "type": "uint256"
        }
      ],
      "name": "startTraining",
      "outputs": [],
      "stateMutability": "payable",
      "type": "function"
    },
    {
      "inputs": [
        {
          "internalType": "bytes4",
          "name": "interfaceId",
          "type": "bytes4"
        }
      ],
      "name": "supportsInterface",
      "outputs": [
        {
          "internalType": "bool",
          "name": "",
          "type": "bool"
        }
      ],
      "stateMutability": "view",
      "type": "function"
    },
    {
      "inputs": [],
      "name": "treasury",
      "outputs": [
        {
          "internalType": "address",
          "name": "",
          "type": "address"
        }
      ],
      "stateMutability": "view",
      "type": "function"
    },
    {
      "inputs": [
        {
          "internalType": "uint256",
          "name": "",
          "type": "uint256"
        },
        {
          "internalType": "uint256",
          "name": "",
          "type": "uint256"
        }
      ],
      "name": "venueGrounds",
      "outputs": [
        {
          "internalType": "uint256",
          "name": "",
          "type": "uint256"
        }
      ],
      "stateMutability": "view",
      "type": "function"
    }
  ],
  "bytecode": "0x6080346200009b57601f62001aea38819003918201601f19168301916001600160401b03831184841017620000a0578084926020946040528339810103126200009b57516001600160a01b038116908190036200009b576001805560fa600a55600980546001600160a01b0319169190911790556200007e33620000b6565b506200008a3362000136565b506040516118f19081620001d98239f35b600080fd5b634e487b7160e01b600052604160045260246000fd5b6001600160a01b031660008181527fad3228b676f7d3cd4284a5443f17f1962b36e491b30a40b2405849e597ba5fb5602052604081205490919060ff166200013257818052816020526040822081835260205260408220600160ff19825416179055339160008051602062001aca8339815191528180a4600190565b5090565b6001600160a01b031660008181527faeee753554bde601620602f742db4d4c6fc64a5d5977392821a4adfbbd35cd5c60205260408120549091907f123c69cc12368838cca6d46b7505bec842d9e85a26aff07e23aa57ad59dac6ba9060ff16620001d357808352826020526040832082845260205260408320600160ff1982541617905560008051602062001aca833981519152339380a4600190565b50509056fe608080604052600436101561001357600080fd5b60e0600035811c91826301ffc9a714611485575081630d7e5e9314611446578163248a9ca3146114175781632d0c120e146113aa5781632f2ff15d146113795781633444016a1461120d57816336568abe146111af578163533dae751461101e57816361d027b314610fea5781638440a6f614610f515781638c639a8514610f335781638d5004b514610f0257816391d1485414610eb45781639781de7a14610e0e578163984a67d814610ce7578163a217fddf14610ccb578163a61b93cc14610c90578163c3eeb469146108aa578163c678814b14610660578163d547741f1461062d578163e6e18f2e14610191575063f078a13b1461011357600080fd5b3461018c5761012136611523565b9060005260076020526040600020805482101561018c5760c09161014491611705565b5060ff815491600181015490600281015460046003830154920154926040519586526020860152604085015260608401528181161515608084015260081c16151560a0820152f35b600080fd5b3461018c5760c060031936011261018c576004359067ffffffffffffffff9081831161018c573660238401121561018c5782600401358281116104a5576040519361020460207fffffffffffffffffffffffffffffffffffffffffffffffffffffffffffffffe0601f8501160186611630565b818552366024838301011161018c578160009260246020930183880137850101526006604435101561018c5760a4359081151580920361018c57610249600254611856565b9283600255604051906101408201828110828211176104a5576040528482526020820193868552602435604084015261028760443560608501611883565b6064356080840152600060a084015260843560c084015283830152336101008301526000610120830152846000526004602052604060002093825185555180519182116104a55781906102dd60018701546115c0565b601f81116105da575b50602090601f831160011461050e57600092610503575b50507fffffffffffffffffffffffffffffffffffffffffffffffffffffffffffffffff8260011b9260031b1c19161760018401555b6040810151600284015560608101519060068210156104d45760089261035e610120936003870161188f565b6080820151600486015560a0820151600586015560c0820151600686015561039c60078601918301511515829060ff60ff1983541691151516179055565b6101008201517fffffffffffffffffffffff0000000000000000000000000000000000000000ff74ffffffffffffffffffffffffffffffffffffffff00835492871b16911617905501519101556024356000526006602052604060002091825492680100000000000000008410156104a55761048c8392610446867fe05fd50ca3b2d73c392caddadd148e0fcb674ca9cd1009c709adb245da26f665946001602099018155611539565b81549060031b907fffffffffffffffffffffffffffffffffffffffffffffffffffffffffffffffff87831b921b1916179055604051918291604083526040830190611671565b61049a8783016044356115b3565b0390a2604051908152f35b7f4e487b7100000000000000000000000000000000000000000000000000000000600052604160045260246000fd5b7f4e487b7100000000000000000000000000000000000000000000000000000000600052602160045260246000fd5b0151905087806102fd565b9250600186016000526020600020906000935b7fffffffffffffffffffffffffffffffffffffffffffffffffffffffffffffffe0841685106105bf5760019450837fffffffffffffffffffffffffffffffffffffffffffffffffffffffffffffffe0811610610588575b505050811b016001840155610332565b01517fffffffffffffffffffffffffffffffffffffffffffffffffffffffffffffffff60f88460031b161c19169055878080610578565b81810151835560209485019460019093019290910190610521565b909150600186016000526020600020601f840160051c810160208510610626575b90849392915b601f830160051c820181106106175750506102e6565b60008155859450600101610601565b50806105fb565b3461018c5761065e61063e36611580565b90806000526000602052610659600160406000200154611721565b6117d3565b005b3461018c5761066e36611523565b3360009081527faeee753554bde601620602f742db4d4c6fc64a5d5977392821a4adfbbd35cd5c60209081526040909120549091907f123c69cc12368838cca6d46b7505bec842d9e85a26aff07e23aa57ad59dac6ba9060ff161561087357506106e490836000526005835260406000206116cf565b50906007820180549060ff821661081557600484015442106107b7579060049291600160ff1980931617905584600052600882526040600020908154169055600183015460005252600560406000200180548015610788577fffffffffffffffffffffffffffffffffffffffffffffffffffffffffffffffff019055547f7d7f99e494b0020904e51fbfd75f1a8b0cdfcce8f6f7a1e6fb5e54fe7e896354600080a3005b7f4e487b7100000000000000000000000000000000000000000000000000000000600052601160045260246000fd5b606483604051907f08c379a00000000000000000000000000000000000000000000000000000000082526004820152601560248201527f547261696e696e67206e6f7420646f6e652079657400000000000000000000006044820152fd5b606483604051907f08c379a00000000000000000000000000000000000000000000000000000000082526004820152601160248201527f416c726561647920636f6d706c657465640000000000000000000000000000006044820152fd5b604490604051907fe2517d3f0000000000000000000000000000000000000000000000000000000082523360048301526024820152fd5b6108b3366116eb565b60026001949392945414610c665760026001558160005260046020526040600020906005820180546004840154811015610c085786600052600860205260ff60406000205416610baa5761090b8360068601546118a8565b3410610b4c5761091a90611856565b90556008820161092a8154611856565b90558460005260086020526040600020600160ff19825416179055610950600354611856565b9384600355856000526005602052604060002091610e109081810291818304149015171561078857420191824211610788576109bd60ff6003860154166040519461099a86611613565b888652876020870152896040870152426060870152608086015260a08501611883565b600060c08401526000828401528054680100000000000000008110156104a5576109ec916001820181556116cf565b919091610b1d57825182556020830151600183015560408301516002830155606083015160038301556080830151600483015560a08301519060068210156104d457610a6393610a416007936005860161188f565b60c081015160068501550151151591019060ff60ff1983541691151516179055565b612710610a72600a54346118a8565b049073ffffffffffffffffffffffffffffffffffffffff906000808080868660095416828215610b14575bf115610aff576007015460081c16813403903482116107885760009283928392839283903414610b0b575bf115610aff5760207f1ec33602afef38dd401d03630f0a99444fae8d2cca4f187b3368262dc152df8091604051908152a360018055005b6040513d6000823e3d90fd5b506108fc610ac8565b506108fc610a9d565b7f4e487b7100000000000000000000000000000000000000000000000000000000600052600060045260246000fd5b60646040517f08c379a000000000000000000000000000000000000000000000000000000000815260206004820152601060248201527f496e73756666696369656e7420666565000000000000000000000000000000006044820152fd5b60646040517f08c379a000000000000000000000000000000000000000000000000000000000815260206004820152601060248201527f416c726561647920747261696e696e67000000000000000000000000000000006044820152fd5b60646040517f08c379a000000000000000000000000000000000000000000000000000000000815260206004820152600b60248201527f47726f756e642066756c6c0000000000000000000000000000000000000000006044820152fd5b60046040517f3ee5aeb5000000000000000000000000000000000000000000000000000000008152fd5b3461018c57600060031936011261018c5760206040517f123c69cc12368838cca6d46b7505bec842d9e85a26aff07e23aa57ad59dac6ba8152f35b3461018c57600060031936011261018c57602060405160008152f35b3461018c57610cf5366116eb565b908260005260076020526040600020906040519260c0840184811067ffffffffffffffff8211176104a55760405281845260208401938185526040810193868552606082019542875260808301926000845260a0810192600084528054680100000000000000008110156104a557610d7291600182018155611705565b610b1d577f9afe5e88efd9aa56cd8ebcb6cb6d62b558f380270724c5c2af5c58969e045c9f98604098610dcf946004945184555160018401555160028301555160038201550192511515839060ff60ff1983541691151516179055565b5181547fffffffffffffffffffffffffffffffffffffffffffffffffffffffffffff00ff1690151560081b61ff001617905582519182526020820152a2005b3461018c5760208060031936011261018c5760043560005260068152604060002060405190818382549182815201908192600052846000209060005b86828210610ea0578686610e6082880383611630565b604051928392818401908285525180915260408401929160005b828110610e8957505050500390f35b835185528695509381019392810192600101610e7a565b835485529093019260019283019201610e4a565b3461018c57610ec236611580565b90600052600060205273ffffffffffffffffffffffffffffffffffffffff60406000209116600052602052602060ff604060002054166040519015158152f35b3461018c57602060031936011261018c576004356000526008602052602060ff604060002054166040519015158152f35b3461018c57600060031936011261018c576020600a54604051908152f35b3461018c57610f5f36611523565b919060005260056020526040600020805483101561018c5761010092610f84916116cf565b5090815491600181015490610fdd6002820154600383015460048401549060ff6005860154169260ff600760068801549701541696604051998a5260208a015260408901526060880152608087015260a08601906115b3565b60c0840152151590820152f35b3461018c57600060031936011261018c57602073ffffffffffffffffffffffffffffffffffffffff60095416604051908152f35b3461018c576020908160031936011261018c576004356000526004825260406000209082825492600180820190604051938492600092815491611060836115c0565b8087529282811690811561117b5750600114611123575b5050505073ffffffffffffffffffffffffffffffffffffffff929161109d910384611630565b60028101549360ff60038301541660048301546005840154906110f66006860154936110e660086007890154980154996040519d8e9d8e528d61014091829101528d0190611671565b9960408c015260608b01906115b3565b608089015260a088015260c087015260ff821615159086015260081c166101008401526101208301520390f35b60009081528381209695945091905b8183106111635750939450919250908201018661109d73ffffffffffffffffffffffffffffffffffffffff8a611077565b86548884018501529586019587945091830191611132565b60ff191685880152505050151560051b83010190508661109d73ffffffffffffffffffffffffffffffffffffffff8a611077565b3461018c576111bd36611580565b3373ffffffffffffffffffffffffffffffffffffffff8216036111e35761065e916117d3565b60046040517f6697b232000000000000000000000000000000000000000000000000000000008152fd5b3461018c5760208060031936011261018c576004356000526005808252604060002090815467ffffffffffffffff81116104a557604051939161125482821b840186611630565b81855260009384528284208386019491855b8484106112ff57505050505060405192818401908285525180915260408401929160005b8281106112975785850386f35b90919293826101006001928988518051835284810151858401526040810151604084015260608082015190840152608080820151908401526112e160a080830151908501906115b3565b60c08181015190840152015115158a8201520195019392910161128a565b60088660019260409a989a5161131481611613565b86548152848701548382015260028701546040820152600387015460608201526004870154608082015260ff61135281888a01541660a08401611883565b600688015460c083015260078801541615158d820152815201930193019291969496611266565b3461018c5761065e61138a36611580565b908060005260006020526113a5600160406000200154611721565b611747565b3461018c576113f37f99059f4f181fffee1166405cea6c982c143a93add6c7e3d0b3bc1e2feebd5d0160406113de36611523565b81600095929552600760205282600020611705565b5060048101600160ff198254161790556001815491015482519182526020820152a2005b3461018c57602060031936011261018c5760043560005260006020526020600160406000200154604051908152f35b3461018c5761145436611523565b9060005260066020526040600020805482101561018c5760209161147791611539565b90546040519160031b1c8152f35b3461018c57602060031936011261018c57600435907fffffffff00000000000000000000000000000000000000000000000000000000821680920361018c57817f7965db0b00000000000000000000000000000000000000000000000000000000602093149081156114f9575b5015158152f35b7f01ffc9a700000000000000000000000000000000000000000000000000000000915014836114f2565b600319604091011261018c576004359060243590565b80548210156115515760005260206000200190600090565b7f4e487b7100000000000000000000000000000000000000000000000000000000600052603260045260246000fd5b600319604091011261018c576004359060243573ffffffffffffffffffffffffffffffffffffffff8116810361018c5790565b9060068210156104d45752565b90600182811c92168015611609575b60208310146115da57565b7f4e487b7100000000000000000000000000000000000000000000000000000000600052602260045260246000fd5b91607f16916115cf565b610100810190811067ffffffffffffffff8211176104a557604052565b90601f7fffffffffffffffffffffffffffffffffffffffffffffffffffffffffffffffe0910116810190811067ffffffffffffffff8211176104a557604052565b919082519283825260005b8481106116bb5750507fffffffffffffffffffffffffffffffffffffffffffffffffffffffffffffffe0601f8460006020809697860101520116010190565b60208183018101518483018201520161167c565b80548210156115515760005260206000209060031b0190600090565b600319606091011261018c57600435906024359060443590565b8054821015611551576000526005602060002091020190600090565b80600052600060205260406000203360005260205260ff60406000205416156108735750565b906000918083528260205273ffffffffffffffffffffffffffffffffffffffff6040842092169182845260205260ff604084205416156000146117ce57808352826020526040832082845260205260408320600160ff198254161790557f2f8788117e7eff1d82e926ec794901d17c78024a50270940304540a733656f0d339380a4600190565b505090565b906000918083528260205273ffffffffffffffffffffffffffffffffffffffff6040842092169182845260205260ff6040842054166000146117ce5780835282602052604083208284526020526040832060ff1981541690557ff6391f5c32d9c69d2a47ea670b442974b53935d1edc7fd64eb21e047a839171b339380a4600190565b7fffffffffffffffffffffffffffffffffffffffffffffffffffffffffffffffff81146107885760010190565b60068210156104d45752565b9060068110156104d45760ff60ff198354169116179055565b818102929181159184041417156107885756fea2646970667358221220b8146d67034da7e2984cea9433a351c8245b4b68c9d412b3bc0c28d4191ac00364736f6c634300081400332f8788117e7eff1d82e926ec794901d17c78024a50270940304540a733656f0d",
  "linkReferences": {},
  "deployedLinkReferences": {}
}