{
  "_format": "hh-sol-artifact-1",
  "contractName": "EmotionalState",
  "sourceName": "contracts/layer3/psychology/EmotionalState.sol",
  "abi": [
    {
      "inputs": [],
      "stateMutability": "nonpayable",
      "type": "constructor"
    },
    {
      "inputs": [
        {
          "internalType": "address",
          "name": "owner",
          "type": "address"
        }
      ],
      "name": "OwnableInvalidOwner",
      "type": "error"
    },
    {
      "inputs": [
        {
          "internalType": "address",
          "name": "account",
          "type": "address"
        }
      ],
      "name": "OwnableUnauthorizedAccount",
      "type": "error"
    },
    {
      "anonymous": false,
      "inputs": [
        {
          "indexed": true,
          "internalType": "uint256",
          "name": "entityId",
          "type": "uint256"
        },
        {
          "indexed": false,
          "internalType": "enum EmotionalState.Emotion",
          "name": "emotion",
          "type": "uint8"
        },
        {
          "indexed": false,
          "internalType": "uint256",
          "name": "oldValue",
          "type": "uint256"
        },
        {
          "indexed": false,
          "internalType": "uint256",
          "name": "newValue",
          "type": "uint256"
        }
      ],
      "name": "EmotionUpdated",
      "type": "event"
    },
    {
      "anonymous": false,
      "inputs": [
        {
          "indexed": true,
          "internalType": "uint256",
          "name": "entityId",
          "type": "uint256"
        },
        {
          "indexed": false,
          "internalType": "enum EmotionalState.ResponseType",
          "name": "response",
          "type": "uint8"
        }
      ],
      "name": "EmotionalResponseTriggered",
      "type": "event"
    },
    {
      "anonymous": false,
      "inputs": [
        {
          "indexed": true,
          "internalType": "address",
          "name": "previousOwner",
          "type": "address"
        },
        {
          "indexed": true,
          "internalType": "address",
          "name": "newOwner",
          "type": "address"
        }
      ],
      "name": "OwnershipTransferred",
      "type": "event"
    },
    {
      "anonymous": false,
      "inputs": [
        {
          "indexed": true,
          "internalType": "uint256",
          "name": "entityId",
          "type": "uint256"
        },
        {
          "indexed": false,
          "internalType": "enum EmotionalState.Emotion",
          "name": "emotion",
          "type": "uint8"
        },
        {
          "indexed": false,
          "internalType": "uint256",
          "name": "value",
          "type": "uint256"
        }
      ],
      "name": "ThresholdTriggered",
      "type": "event"
    },
    {
      "inputs": [
        {
          "internalType": "uint256",
          "name": "",
          "type": "uint256"
        },
        {
          "internalType": "enum EmotionalState.Emotion",
          "name": "",
          "type": "uint8"
        }
      ],
      "name": "emotionThresholds",
      "outputs": [
        {
          "internalType": "uint256",
          "name": "",
          "type": "uint256"
        }
      ],
      "stateMutability": "view",
      "type": "function"
    },
    {
      "inputs": [
        {
          "internalType": "uint256",
          "name": "",
          "type": "uint256"
        },
        {
          "internalType": "uint256",
          "name": "",
          "type": "uint256"
        }
      ],
      "name": "emotionalHistory",
      "outputs": [
        {
          "internalType": "uint256",
          "name": "triggerId",
          "type": "uint256"
        },
        {
          "internalType": "enum EmotionalState.Emotion",
          "name": "emotion",
          "type": "uint8"
        },
        {
          "internalType": "int256",
          "name": "intensity",
          "type": "int256"
        },
        {
          "internalType": "uint256",
          "name": "timestamp",
          "type": "uint256"
        },
        {
          "internalType": "bytes32",
          "name": "causeHash",
          "type": "bytes32"
        }
      ],
      "stateMutability": "view",
      "type": "function"
    },
    {
      "inputs": [
        {
          "internalType": "uint256",
          "name": "",
          "type": "uint256"
        }
      ],
      "name": "emotionalProfiles",
      "outputs": [
        {
          "internalType": "uint256",
          "name": "volatility",
          "type": "uint256"
        },
        {
          "internalType": "uint256",
          "name": "resilience",
          "type": "uint256"
        },
        {
          "internalType": "uint256",
          "name": "empathy",
          "type": "uint256"
        }
      ],
      "stateMutability": "view",
      "type": "function"
    },
    {
      "inputs": [
        {
          "internalType": "uint256",
          "name": "",
          "type": "uint256"
        }
      ],
      "name": "entityEmotions",
      "outputs": [
        {
          "internalType": "uint256",
          "name": "entityId",
          "type": "uint256"
        },
        {
          "internalType": "uint256",
          "name": "fear",
          "type": "uint256"
        },
        {
          "internalType": "uint256",
          "name": "greed",
          "type": "uint256"
        },
        {
          "internalType": "uint256",
          "name": "trust",
          "type": "uint256"
        },
        {
          "internalType": "uint256",
          "name": "anger",
          "type": "uint256"
        },
        {
          "internalType": "uint256",
          "name": "joy",
          "type": "uint256"
        },
        {
          "internalType": "uint256",
          "name": "sadness",
          "type": "uint256"
        },
        {
          "internalType": "uint256",
          "name": "confidence",
          "type": "uint256"
        },
        {
          "internalType": "uint256",
          "name": "stress",
          "type": "uint256"
        },
        {
          "internalType": "uint256",
          "name": "lastUpdate",
          "type": "uint256"
        }
      ],
      "stateMutability": "view",
      "type": "function"
    },
    {
      "inputs": [
        {
          "internalType": "uint256",
          "name": "entityId",
          "type": "uint256"
        }
      ],
      "name": "getEmotions",
      "outputs": [
        {
          "components": [
            {
              "internalType": "uint256",
              "name": "entityId",
              "type": "uint256"
            },
            {
              "internalType": "uint256",
              "name": "fear",
              "type": "uint256"
            },
            {
              "internalType": "uint256",
              "name": "greed",
              "type": "uint256"
            },
            {
              "internalType": "uint256",
              "name": "trust",
              "type": "uint256"
            },
            {
              "internalType": "uint256",
              "name": "anger",
              "type": "uint256"
            },
            {
              "internalType": "uint256",
              "name": "joy",
              "type": "uint256"
            },
            {
              "internalType": "uint256",
              "name": "sadness",
              "type": "uint256"
            },
            {
              "internalType": "uint256",
              "name": "confidence",
              "type": "uint256"
            },
            {
              "internalType": "uint256",
              "name": "stress",
              "type": "uint256"
            },
            {
              "internalType": "uint256",
              "name": "lastUpdate",
              "type": "uint256"
            }
          ],
          "internalType": "struct EmotionalState.EntityEmotions",
          "name": "",
          "type": "tuple"
        }
      ],
      "stateMutability": "view",
      "type": "function"
    },
    {
      "inputs": [
        {
          "internalType": "uint256",
          "name": "entityId",
          "type": "uint256"
        }
      ],
      "name": "initializeEmotions",
      "outputs": [],
      "stateMutability": "nonpayable",
      "type": "function"
    },
    {
      "inputs": [],
      "name": "owner",
      "outputs": [
        {
          "internalType": "address",
          "name": "",
          "type": "address"
        }
      ],
      "stateMutability": "view",
      "type": "function"
    },
    {
      "inputs": [],
      "name": "renounceOwnership",
      "outputs": [],
      "stateMutability": "nonpayable",
      "type": "function"
    },
    {
      "inputs": [
        {
          "internalType": "address",
          "name": "newOwner",
          "type": "address"
        }
      ],
      "name": "transferOwnership",
      "outputs": [],
      "stateMutability": "nonpayable",
      "type": "function"
    },
    {
      "inputs": [
        {
          "internalType": "uint256",
          "name": "entityId",
          "type": "uint256"
        },
        {
          "internalType": "enum EmotionalState.Emotion",
          "name": "emotion",
          "type": "uint8"
        },
        {
          "internalType": "int256",
          "name": "delta",
          "type": "int256"
        }
      ],
      "name": "updateEmotionValue",
      "outputs": [],
      "stateMutability": "nonpayable",
      "type": "function"
    },
    {
      "inputs": [
        {
          "internalType": "uint256",
          "name": "entityId",
          "type": "uint256"
        },
        {
          "internalType": "int256",
          "name": "delta",
          "type": "int256"
        }
      ],
      "name": "updateFear",
      "outputs": [],
      "stateMutability": "nonpayable",
      "type": "function"
    },
    {
      "inputs": [
        {
          "internalType": "uint256",
          "name": "entityId",
          "type": "uint256"
        },
        {
          "internalType": "int256",
          "name": "delta",
          "type": "int256"
        }
      ],
      "name": "updateTrust",
      "outputs": [],
      "stateMutability": "nonpayable",
      "type": "function"
    }
  ],
  "bytecode": "0x608060405234801561001057600080fd5b50338061003757604051631e4fbdf760e01b81526000600482015260240160405180910390fd5b61004081610046565b50610096565b600080546001600160a01b038381166001600160a01b0319831681178455604051919092169283917f8be0079c531659141344cd1fd0a4f28419497f9722a3daafe3b4186f6b6457e09190a35050565b610d55806100a56000396000f3fe608060405234801561001057600080fd5b50600436106100b45760003560e01c8063914e454511610071578063914e4545146102675780639b134a91146102b0578063a9bfd40a146102c3578063d7a7702f146102e7578063eaf6d926146102fa578063f2fde38b1461030d57600080fd5b80630c3160e9146100b957806342844ab81461016a57806369ab3624146101a3578063715018a61461022f5780638192e856146102395780638da5cb5b1461024c575b600080fd5b61011b6100c7366004610b58565b6001602052806000526040600020600091509050806000015490806001015490806002015490806003015490806004015490806005015490806006015490806007015490806008015490806009015490508a565b604080519a8b5260208b0199909952978901969096526060880194909452608087019290925260a086015260c085015260e0840152610100830152610120820152610140015b60405180910390f35b610195610178366004610b85565b600460209081526000928352604080842090915290825290205481565b604051908152602001610161565b6101b66101b1366004610b58565b610320565b6040516101619190600061014082019050825182526020830151602083015260408301516040830152606083015160608301526080830151608083015260a083015160a083015260c083015160c083015260e083015160e083015261010080840151818401525061012080840151818401525092915050565b6102376103f9565b005b610237610247366004610b58565b61040d565b6000546040516001600160a01b039091168152602001610161565b610295610275366004610b58565b600260208190526000918252604090912080546001820154919092015483565b60408051938452602084019290925290820152606001610161565b6102376102be366004610bb1565b610528565b6102d66102d1366004610bb1565b610538565b604051610161959493929190610c07565b6102376102f5366004610c39565b61058a565b610237610308366004610bb1565b610772565b61023761031b366004610c6e565b61077e565b610376604051806101400160405280600081526020016000815260200160008152602001600081526020016000815260200160008152602001600081526020016000815260200160008152602001600081525090565b506000908152600160208181526040928390208351610140810185528154815292810154918301919091526002810154928201929092526003820154606082015260048201546080820152600582015460a0820152600682015460c0820152600782015460e0820152600882015461010082015260099091015461012082015290565b6104016107c1565b61040b60006107ee565b565b6000818152600160205260409020600901541561042957600080fd5b604080516101408101825282815260006020808301828152838501838152603260608087018281526080880187815260a0890184815260c08a0189815260e08b018681526101008c018b8152426101208e019081528f8d526001808d528f8e209e518f559a518e8c015598516002808f019190915595516003808f019190915594516004808f0191909155935160058e0155915160068d01555160078c01555160088b0155945160099099019890985588519182018952828252818601838152828a0193845299875280865288872091518255985193810193909355519190960155938452828120818052909352818320605090819055908352912055565b6105348260028361058a565b5050565b6003602052816000526040600020818154811061055457600080fd5b60009182526020909120600590910201805460018201546002830154600384015460049094015492955060ff9091169350919085565b600083815260016020526040902060098101546105a657600080fd5b60006105b2828561083e565b905060006105c08483610c9e565b905060008112156105cf575060005b60648113156105dc575060645b6105e7838683610969565b426009840155600086815260036020908152604091829020825160a08101909352805483529190810187600781111561062257610622610bd3565b81526020808201889052426040830152600060609092018290528354600181810186559483529181902083516005909302019182558201518184018054939492939192909160ff19169083600781111561067e5761067e610bd3565b02179055506040820151816002015560608201518160030155608082015181600401555050857f1d56a97a914fb6ac5acd5c16a67aaa5d37205364a52b10eb3d66da627be19da48684846040516106d793929190610cd4565b60405180910390a260008681526004602052604081209086600781111561070057610700610bd3565b600781111561071157610711610bd3565b815260200190815260200160002054811061076a57857fbc6e8f30f6a1ea05b48dd2125e3d39db18a6eac21b9e606729f850c53185e57e8683604051610758929190610cf5565b60405180910390a261076a8686610a92565b505050505050565b6105348260008361058a565b6107866107c1565b6001600160a01b0381166107b557604051631e4fbdf760e01b8152600060048201526024015b60405180910390fd5b6107be816107ee565b50565b6000546001600160a01b0316331461040b5760405163118cdaa760e01b81523360048201526024016107ac565b600080546001600160a01b038381166001600160a01b0319831681178455604051919092169283917f8be0079c531659141344cd1fd0a4f28419497f9722a3daafe3b4186f6b6457e09190a35050565b60008082600781111561085357610853610bd3565b0361086357506001820154610963565b600182600781111561087757610877610bd3565b0361088757506002820154610963565b600282600781111561089b5761089b610bd3565b036108ab57506003820154610963565b60038260078111156108bf576108bf610bd3565b036108cf57506004820154610963565b60048260078111156108e3576108e3610bd3565b036108f357506005820154610963565b600582600781111561090757610907610bd3565b0361091757506006820154610963565b600682600781111561092b5761092b610bd3565b0361093b57506007820154610963565b600782600781111561094f5761094f610bd3565b0361095f57506008820154610963565b5060005b92915050565b600082600781111561097d5761097d610bd3565b0361098e5760018301819055505050565b60018260078111156109a2576109a2610bd3565b036109b35760028301819055505050565b60028260078111156109c7576109c7610bd3565b036109d85760038301819055505050565b60038260078111156109ec576109ec610bd3565b036109fd5760048301819055505050565b6004826007811115610a1157610a11610bd3565b03610a225760058301819055505050565b6005826007811115610a3657610a36610bd3565b03610a475760068301819055505050565b6006826007811115610a5b57610a5b610bd3565b03610a6c5760078301819055505050565b6007826007811115610a8057610a80610bd3565b03610a8d57600883018190555b505050565b600080826007811115610aa757610aa7610bd3565b03610ab457506000610b1b565b6003826007811115610ac857610ac8610bd3565b03610ad557506001610b1b565b6002826007811115610ae957610ae9610bd3565b03610af657506002610b1b565b6004826007811115610b0a57610b0a610bd3565b03610b1757506004610b1b565b5060035b827f836e3ee87ab32e8aac0c04aff757e5491748356eb451486106b8e08e55073fc682604051610b4b9190610d0c565b60405180910390a2505050565b600060208284031215610b6a57600080fd5b5035919050565b803560088110610b8057600080fd5b919050565b60008060408385031215610b9857600080fd5b82359150610ba860208401610b71565b90509250929050565b60008060408385031215610bc457600080fd5b50508035926020909101359150565b634e487b7160e01b600052602160045260246000fd5b600881106107be57634e487b7160e01b600052602160045260246000fd5b85815260a08101610c1786610be9565b8560208301528460408301528360608301528260808301529695505050505050565b600080600060608486031215610c4e57600080fd5b83359250610c5e60208501610b71565b9150604084013590509250925092565b600060208284031215610c8057600080fd5b81356001600160a01b0381168114610c9757600080fd5b9392505050565b8082018281126000831280158216821582161715610ccc57634e487b7160e01b600052601160045260246000fd5b505092915050565b60608101610ce185610be9565b938152602081019290925260409091015290565b60408101610d0284610be9565b9281526020015290565b60208101610d1983610be9565b9190529056fea264697066735822122060ba0fbf9275220b7881cee0dfbccca794766d91f4c13a968709e26ac51a573b64736f6c63430008140033",
  "linkReferences": {},
  "deployedLinkReferences": {}
}