{
  "_format": "hh-sol-artifact-1",
  "contractName": "AIToolMarketplace",
  "sourceName": "contracts/layer6/tools/AIToolMarketplace.sol",
  "abi": [
    {
      "inputs": [
        {
          "internalType": "address",
          "name": "_treasury",
          "type": "address"
        }
      ],
      "stateMutability": "nonpayable",
      "type": "constructor"
    },
    {
      "inputs": [],
      "name": "AccessControlBadConfirmation",
      "type": "error"
    },
    {
      "inputs": [
        {
          "internalType": "address",
          "name": "account",
          "type": "address"
        },
        {
          "internalType": "bytes32",
          "name": "neededRole",
          "type": "bytes32"
        }
      ],
      "name": "AccessControlUnauthorizedAccount",
      "type": "error"
    },
    {
      "inputs": [],
      "name": "ReentrancyGuardReentrantCall",
      "type": "error"
    },
    {
      "anonymous": false,
      "inputs": [
        {
          "indexed": true,
          "internalType": "bytes32",
          "name": "role",
          "type": "bytes32"
        },
        {
          "indexed": true,
          "internalType": "bytes32",
          "name": "previousAdminRole",
          "type": "bytes32"
        },
        {
          "indexed": true,
          "internalType": "bytes32",
          "name": "newAdminRole",
          "type": "bytes32"
        }
      ],
      "name": "RoleAdminChanged",
      "type": "event"
    },
    {
      "anonymous": false,
      "inputs": [
        {
          "indexed": true,
          "internalType": "bytes32",
          "name": "role",
          "type": "bytes32"
        },
        {
          "indexed": true,
          "internalType": "address",
          "name": "account",
          "type": "address"
        },
        {
          "indexed": true,
          "internalType": "address",
          "name": "sender",
          "type": "address"
        }
      ],
      "name": "RoleGranted",
      "type": "event"
    },
    {
      "anonymous": false,
      "inputs": [
        {
          "indexed": true,
          "internalType": "bytes32",
          "name": "role",
          "type": "bytes32"
        },
        {
          "indexed": true,
          "internalType": "address",
          "name": "account",
          "type": "address"
        },
        {
          "indexed": true,
          "internalType": "address",
          "name": "sender",
          "type": "address"
        }
      ],
      "name": "RoleRevoked",
      "type": "event"
    },
    {
      "anonymous": false,
      "inputs": [
        {
          "indexed": true,
          "internalType": "uint256",
          "name": "toolId",
          "type": "uint256"
        }
      ],
      "name": "ToolDeactivated",
      "type": "event"
    },
    {
      "anonymous": false,
      "inputs": [
        {
          "indexed": true,
          "internalType": "uint256",
          "name": "toolId",
          "type": "uint256"
        },
        {
          "indexed": true,
          "internalType": "address",
          "name": "creator",
          "type": "address"
        },
        {
          "indexed": false,
          "internalType": "string",
          "name": "name",
          "type": "string"
        },
        {
          "indexed": false,
          "internalType": "enum AIToolMarketplace.ToolCategory",
          "name": "category",
          "type": "uint8"
        },
        {
          "indexed": false,
          "internalType": "uint256",
          "name": "price",
          "type": "uint256"
        }
      ],
      "name": "ToolListed",
      "type": "event"
    },
    {
      "anonymous": false,
      "inputs": [
        {
          "indexed": true,
          "internalType": "uint256",
          "name": "purchaseId",
          "type": "uint256"
        },
        {
          "indexed": true,
          "internalType": "uint256",
          "name": "toolId",
          "type": "uint256"
        },
        {
          "indexed": true,
          "internalType": "address",
          "name": "buyer",
          "type": "address"
        },
        {
          "indexed": false,
          "internalType": "uint256",
          "name": "price",
          "type": "uint256"
        }
      ],
      "name": "ToolPurchased",
      "type": "event"
    },
    {
      "anonymous": false,
      "inputs": [
        {
          "indexed": true,
          "internalType": "uint256",
          "name": "toolId",
          "type": "uint256"
        },
        {
          "indexed": true,
          "internalType": "address",
          "name": "rater",
          "type": "address"
        },
        {
          "indexed": false,
          "internalType": "uint256",
          "name": "rating",
          "type": "uint256"
        }
      ],
      "name": "ToolRated",
      "type": "event"
    },
    {
      "anonymous": false,
      "inputs": [
        {
          "indexed": true,
          "internalType": "uint256",
          "name": "toolId",
          "type": "uint256"
        }
      ],
      "name": "ToolVerified",
      "type": "event"
    },
    {
      "inputs": [],
      "name": "CURATOR_ROLE",
      "outputs": [
        {
          "internalType": "bytes32",
          "name": "",
          "type": "bytes32"
        }
      ],
      "stateMutability": "view",
      "type": "function"
    },
    {
      "inputs": [],
      "name": "DEFAULT_ADMIN_ROLE",
      "outputs": [
        {
          "internalType": "bytes32",
          "name": "",
          "type": "bytes32"
        }
      ],
      "stateMutability": "view",
      "type": "function"
    },
    {
      "inputs": [
        {
          "internalType": "address",
          "name": "",
          "type": "address"
        },
        {
          "internalType": "uint256",
          "name": "",
          "type": "uint256"
        }
      ],
      "name": "buyerPurchases",
      "outputs": [
        {
          "internalType": "uint256",
          "name": "",
          "type": "uint256"
        }
      ],
      "stateMutability": "view",
      "type": "function"
    },
    {
      "inputs": [
        {
          "internalType": "address",
          "name": "",
          "type": "address"
        },
        {
          "internalType": "uint256",
          "name": "",
          "type": "uint256"
        }
      ],
      "name": "creatorTools",
      "outputs": [
        {
          "internalType": "uint256",
          "name": "",
          "type": "uint256"
        }
      ],
      "stateMutability": "view",
      "type": "function"
    },
    {
      "inputs": [
        {
          "internalType": "uint256",
          "name": "toolId",
          "type": "uint256"
        }
      ],
      "name": "deactivateTool",
      "outputs": [],
      "stateMutability": "nonpayable",
      "type": "function"
    },
    {
      "inputs": [
        {
          "internalType": "address",
          "name": "buyer",
          "type": "address"
        }
      ],
      "name": "getBuyerPurchases",
      "outputs": [
        {
          "internalType": "uint256[]",
          "name": "",
          "type": "uint256[]"
        }
      ],
      "stateMutability": "view",
      "type": "function"
    },
    {
      "inputs": [
        {
          "internalType": "address",
          "name": "creator",
          "type": "address"
        }
      ],
      "name": "getCreatorTools",
      "outputs": [
        {
          "internalType": "uint256[]",
          "name": "",
          "type": "uint256[]"
        }
      ],
      "stateMutability": "view",
      "type": "function"
    },
    {
      "inputs": [
        {
          "internalType": "bytes32",
          "name": "role",
          "type": "bytes32"
        }
      ],
      "name": "getRoleAdmin",
      "outputs": [
        {
          "internalType": "bytes32",
          "name": "",
          "type": "bytes32"
        }
      ],
      "stateMutability": "view",
      "type": "function"
    },
    {
      "inputs": [
        {
          "internalType": "bytes32",
          "name": "role",
          "type": "bytes32"
        },
        {
          "internalType": "address",
          "name": "account",
          "type": "address"
        }
      ],
      "name": "grantRole",
      "outputs": [],
      "stateMutability": "nonpayable",
      "type": "function"
    },
    {
      "inputs": [
        {
          "internalType": "address",
          "name": "user",
          "type": "address"
        },
        {
          "internalType": "uint256",
          "name": "toolId",
          "type": "uint256"
        }
      ],
      "name": "hasAccess",
      "outputs": [
        {
          "internalType": "bool",
          "name": "",
          "type": "bool"
        }
      ],
      "stateMutability": "view",
      "type": "function"
    },
    {
      "inputs": [
        {
          "internalType": "address",
          "name": "",
          "type": "address"
        },
        {
          "internalType": "uint256",
          "name": "",
          "type": "uint256"
        }
      ],
      "name": "hasRated",
      "outputs": [
        {
          "internalType": "bool",
          "name": "",
          "type": "bool"
        }
      ],
      "stateMutability": "view",
      "type": "function"
    },
    {
      "inputs": [
        {
          "internalType": "bytes32",
          "name": "role",
          "type": "bytes32"
        },
        {
          "internalType": "address",
          "name": "account",
          "type": "address"
        }
      ],
      "name": "hasRole",
      "outputs": [
        {
          "internalType": "bool",
          "name": "",
          "type": "bool"
        }
      ],
      "stateMutability": "view",
      "type": "function"
    },
    {
      "inputs": [
        {
          "internalType": "string",
          "name": "name",
          "type": "string"
        },
        {
          "internalType": "string",
          "name": "description",
          "type": "string"
        },
        {
          "internalType": "enum AIToolMarketplace.ToolCategory",
          "name": "category",
          "type": "uint8"
        },
        {
          "internalType": "enum AIToolMarketplace.LicenseType",
          "name": "licenseType",
          "type": "uint8"
        },
        {
          "internalType": "uint256",
          "name": "price",
          "type": "uint256"
        },
        {
          "internalType": "uint256",
          "name": "subscriptionPrice",
          "type": "uint256"
        },
        {
          "internalType": "string",
          "name": "metadataURI",
          "type": "string"
        },
        {
          "internalType": "string",
          "name": "version",
          "type": "string"
        }
      ],
      "name": "listTool",
      "outputs": [
        {
          "internalType": "uint256",
          "name": "",
          "type": "uint256"
        }
      ],
      "stateMutability": "nonpayable",
      "type": "function"
    },
    {
      "inputs": [],
      "name": "platformFeeBps",
      "outputs": [
        {
          "internalType": "uint256",
          "name": "",
          "type": "uint256"
        }
      ],
      "stateMutability": "view",
      "type": "function"
    },
    {
      "inputs": [
        {
          "internalType": "uint256",
          "name": "toolId",
          "type": "uint256"
        },
        {
          "internalType": "enum AIToolMarketplace.LicenseType",
          "name": "licenseType",
          "type": "uint8"
        }
      ],
      "name": "purchaseTool",
      "outputs": [
        {
          "internalType": "uint256",
          "name": "",
          "type": "uint256"
        }
      ],
      "stateMutability": "payable",
      "type": "function"
    },
    {
      "inputs": [
        {
          "internalType": "uint256",
          "name": "",
          "type": "uint256"
        }
      ],
      "name": "purchases",
      "outputs": [
        {
          "internalType": "uint256",
          "name": "purchaseId",
          "type": "uint256"
        },
        {
          "internalType": "uint256",
          "name": "toolId",
          "type": "uint256"
        },
        {
          "internalType": "address",
          "name": "buyer",
          "type": "address"
        },
        {
          "internalType": "uint256",
          "name": "price",
          "type": "uint256"
        },
        {
          "internalType": "enum AIToolMarketplace.LicenseType",
          "name": "licenseType",
          "type": "uint8"
        },
        {
          "internalType": "uint256",
          "name": "timestamp",
          "type": "uint256"
        },
        {
          "internalType": "uint256",
          "name": "expiresAt",
          "type": "uint256"
        },
        {
          "internalType": "bool",
          "name": "isActive",
          "type": "bool"
        }
      ],
      "stateMutability": "view",
      "type": "function"
    },
    {
      "inputs": [
        {
          "internalType": "uint256",
          "name": "toolId",
          "type": "uint256"
        },
        {
          "internalType": "uint256",
          "name": "rating",
          "type": "uint256"
        }
      ],
      "name": "rateTool",
      "outputs": [],
      "stateMutability": "nonpayable",
      "type": "function"
    },
    {
      "inputs": [
        {
          "internalType": "bytes32",
          "name": "role",
          "type": "bytes32"
        },
        {
          "internalType": "address",
          "name": "callerConfirmation",
          "type": "address"
        }
      ],
      "name": "renounceRole",
      "outputs": [],
      "stateMutability": "nonpayable",
      "type": "function"
    },
    {
      "inputs": [
        {
          "internalType": "bytes32",
          "name": "role",
          "type": "bytes32"
        },
        {
          "internalType": "address",
          "name": "account",
          "type": "address"
        }
      ],
      "name": "revokeRole",
      "outputs": [],
      "stateMutability": "nonpayable",
      "type": "function"
    },
    {
      "inputs": [
        {
          "internalType": "bytes4",
          "name": "i",
          "type": "bytes4"
        }
      ],
      "name": "supportsInterface",
      "outputs": [
        {
          "internalType": "bool",
          "name": "",
          "type": "bool"
        }
      ],
      "stateMutability": "view",
      "type": "function"
    },
    {
      "inputs": [
        {
          "internalType": "uint256",
          "name": "",
          "type": "uint256"
        }
      ],
      "name": "tools",
      "outputs": [
        {
          "internalType": "uint256",
          "name": "toolId",
          "type": "uint256"
        },
        {
          "internalType": "string",
          "name": "name",
          "type": "string"
        },
        {
          "internalType": "string",
          "name": "description",
          "type": "string"
        },
        {
          "internalType": "address",
          "name": "creator",
          "type": "address"
        },
        {
          "internalType": "enum AIToolMarketplace.ToolCategory",
          "name": "category",
          "type": "uint8"
        },
        {
          "internalType": "enum AIToolMarketplace.LicenseType",
          "name": "licenseType",
          "type": "uint8"
        },
        {
          "internalType": "uint256",
          "name": "price",
          "type": "uint256"
        },
        {
          "internalType": "uint256",
          "name": "subscriptionPrice",
          "type": "uint256"
        },
        {
          "internalType": "uint256",
          "name": "totalSales",
          "type": "uint256"
        },
        {
          "internalType": "uint256",
          "name": "totalRevenue",
          "type": "uint256"
        },
        {
          "internalType": "uint256",
          "name": "rating",
          "type": "uint256"
        },
        {
          "internalType": "uint256",
          "name": "ratingCount",
          "type": "uint256"
        },
        {
          "internalType": "bool",
          "name": "isActive",
          "type": "bool"
        },
        {
          "internalType": "bool",
          "name": "isVerified",
          "type": "bool"
        },
        {
          "internalType": "string",
          "name": "metadataURI",
          "type": "string"
        },
        {
          "internalType": "uint256",
          "name": "createdAt",
          "type": "uint256"
        },
        {
          "internalType": "string",
          "name": "version",
          "type": "string"
        }
      ],
      "stateMutability": "view",
      "type": "function"
    },
    {
      "inputs": [],
      "name": "totalTools",
      "outputs": [
        {
          "internalType": "uint256",
          "name": "",
          "type": "uint256"
        }
      ],
      "stateMutability": "view",
      "type": "function"
    },
    {
      "inputs": [],
      "name": "totalVolume",
      "outputs": [
        {
          "internalType": "uint256",
          "name": "",
          "type": "uint256"
        }
      ],
      "stateMutability": "view",
      "type": "function"
    },
    {
      "inputs": [],
      "name": "treasury",
      "outputs": [
        {
          "internalType": "address",
          "name": "",
          "type": "address"
        }
      ],
      "stateMutability": "view",
      "type": "function"
    },
    {
      "inputs": [
        {
          "internalType": "address",
          "name": "",
          "type": "address"
        },
        {
          "internalType": "uint256",
          "name": "",
          "type": "uint256"
        }
      ],
      "name": "userLicense",
      "outputs": [
        {
          "internalType": "uint256",
          "name": "",
          "type": "uint256"
        }
      ],
      "stateMutability": "view",
      "type": "function"
    },
    {
      "inputs": [
        {
          "internalType": "uint256",
          "name": "toolId",
          "type": "uint256"
        }
      ],
      "name": "verifyTool",
      "outputs": [],
      "stateMutability": "nonpayable",
      "type": "function"
    }
  ],
  "bytecode": "0x6080346200009c57601f620022c838819003918201601f19168301916001600160401b03831184841017620000a1578084926020946040528339810103126200009c57516001600160a01b038116908190036200009c57600180556101f4600b55600a80546001600160a01b0319169190911790556200007f33620000b7565b506200008b3362000137565b506040516120ce9081620001da8239f35b600080fd5b634e487b7160e01b600052604160045260246000fd5b6001600160a01b031660008181527fad3228b676f7d3cd4284a5443f17f1962b36e491b30a40b2405849e597ba5fb5602052604081205490919060ff166200013357818052816020526040822081835260205260408220600160ff198254161790553391600080516020620022a88339815191528180a4600190565b5090565b6001600160a01b031660008181527ff484c8d36633aa70eae8ee4883885db3af58778e0f4e89a6e23f032f4a70897160205260408120549091907f850d585eb7f024ccee5e68e55f2c26cc72e1e6ee456acf62135757a5eb9d4a109060ff16620001d457808352826020526040832082845260205260408320600160ff19825416179055600080516020620022a8833981519152339380a4600190565b50509056fe608080604052600436101561001357600080fd5b60003560e01c90816301ffc9a714611a695750806320d794861461193f57806322dcd13e14611921578063248a9ca3146118f25780632f2ff15d146118b357806334b7bfef1461185e57806336568abe146117f25780634a2cfb54146117b757806350240311146112fd5780635f81a57c146112df57806361d027b3146112ab5780636b650871146110165780638392fe3114610f77578063846cdf7f146106e357806385a343931461065e57806388c87e71146105cd5780638d56627a1461057857806391d148541461051d57806394fa567e146104155780639ca82358146103f7578063a217fddf146103db578063bc60c31d14610271578063c6530e4114610240578063d25468b3146101e6578063d547741f146101a55763e093f7971461013d57600080fd5b346101a05760406003193601126101a057610156611b2a565b73ffffffffffffffffffffffffffffffffffffffff60243591166000526006602052604060002080548210156101a05760209161019291611b4d565b90546040519160031b1c8152f35b600080fd5b346101a05760406003193601126101a0576101e46004356101c4611b07565b908060005260006020526101df600160406000200154611dba565b611e6c565b005b346101a05760406003193601126101a05773ffffffffffffffffffffffffffffffffffffffff610214611b2a565b1660005260096020526040600020602435600052602052602060ff604060002054166040519015158152f35b346101a05760406003193601126101a057602061026761025e611b2a565b60243590611f92565b6040519015158152f35b346101a05760206003193601126101a057600435600052600460205260406000208054600182016102a190611cc6565b916102ae60028201611cc6565b906003810154600482015490600583015460068401546007850154600886015490600987015492600a88015494600b89016102e890611cc6565b97600c8a015499600d016102fb90611cc6565b9a6040519d8e9d8e528d610220908160208201520161031991611d6d565b8d810360408f015261032a91611d6d565b73ffffffffffffffffffffffffffffffffffffffff891660608e01529761035b60808e0160ff60a084901c16611dad565b60a08d019060a81c60ff169061037091611b94565b60c08c015260e08b01526101008a015261012089015261014088015261016087015260ff8116151561018087015260081c60ff1615156101a08601528481036101c08601526103be91611d6d565b906101e08401528281036102008401526103d791611d6d565b0390f35b346101a05760006003193601126101a057602060405160008152f35b346101a05760006003193601126101a0576020600c54604051908152f35b346101a05760206003193601126101a0573360009081527ff484c8d36633aa70eae8ee4883885db3af58778e0f4e89a6e23f032f4a7089716020526040902054600435907f850d585eb7f024ccee5e68e55f2c26cc72e1e6ee456acf62135757a5eb9d4a109060ff16156104e65750806000526004602052600a6040600020016101007fffffffffffffffffffffffffffffffffffffffffffffffffffffffffffff00ff8254161790557f032ba48a65d000664bd547b3b5404321b06e6160d7a8070c7bd8c3c7e96c7dbd600080a2005b604490604051907fe2517d3f0000000000000000000000000000000000000000000000000000000082523360048301526024820152fd5b346101a05760406003193601126101a057610536611b07565b600435600052600060205273ffffffffffffffffffffffffffffffffffffffff60406000209116600052602052602060ff604060002054166040519015158152f35b346101a05760406003193601126101a05773ffffffffffffffffffffffffffffffffffffffff6105a6611b2a565b16600052600860205260406000206024356000526020526020604060002054604051908152f35b346101a0576020806003193601126101a05773ffffffffffffffffffffffffffffffffffffffff6105fc611b2a565b1660005260068152604060002090604051908181845491828152019360005281600020916000905b828210610647576103d78561063b81890382611bbe565b60405191829182611c38565b835486529485019460019384019390910190610624565b346101a0576020806003193601126101a05773ffffffffffffffffffffffffffffffffffffffff61068d611b2a565b1660005260078152604060002090604051908181845491828152019360005281600020916000905b8282106106cc576103d78561063b81890382611bbe565b8354865294850194600193840193909101906106b5565b346101a0576101006003193601126101a05760043567ffffffffffffffff81116101a057610715903690600401611be1565b60243567ffffffffffffffff81116101a057610735903690600401611be1565b90600860443510156101a057600460643510156101a05760c43567ffffffffffffffff81116101a05761076c903690600401611be1565b9060e43567ffffffffffffffff81116101a05761078d903690600401611be1565b8151151580610f6c575b15610f0e576107a7600254611eef565b928360025560405194610220860186811067ffffffffffffffff821117610c4a57604052848652836020870152604086015233606086015260443560808601526107f660643560a08701611f2d565b60843560c086015260a43560e08601526000610100860152600061012086015260006101408601526000610160860152600161018086015260006101a08601526101c0850152426101e0850152610200840152816000526004602052604060002083518155602084015180519067ffffffffffffffff8211610c4a5781906108816001850154611c73565b601f8111610ebb575b50602090601f8311600114610e4957600092610e3e575b50506000198260011b9260031b1c19161760018201555b604084015180519067ffffffffffffffff8211610c4a5781906108de6002850154611c73565b601f8111610deb575b50602090601f8311600114610d7957600092610d6e575b50506000198260011b9260031b1c19161760028201555b73ffffffffffffffffffffffffffffffffffffffff60608501511660038201546080860151916008831015610d3f5760a08701516004811015610d3f5774ff000000000000000000000000000000000000000075ff0000000000000000000000000000000000000000007fffffffffffffffffffff000000000000000000000000000000000000000000009260a81b169460a01b169216171717600382015560c0840151600482015560e084015160058201556101008401516006820155610120840151600782015561014084015160088201556101608401516009820155600a8101610a166101808601511515829060ff60ff1983541691151516179055565b6101a085015181547fffffffffffffffffffffffffffffffffffffffffffffffffffffffffffff00ff1690151560081b61ff00161790556101c084015180519067ffffffffffffffff8211610c4a57610a72600b840154611c73565b601f8111610cf8575b50602090601f8311600114610c845791806102009492600d94600092610c79575b50506000198260011b9260031b1c191617600b8201555b6101e0860151600c8201550193015192835167ffffffffffffffff8111610c4a57610ade8254611c73565b601f8111610c02575b50806020958690601f8311600114610ba057600092610b95575b50506000198260011b9260031b1c19161790555b3360005260068352610b2b826040600020611f39565b610b36600c54611eef565b600c55817f6dbe176c55bf29b5688a9fc46435258169af905e10c76df90ee1fdd8ab7721d0610b7060405193606085526060850190611d6d565b92610b7f868201604435611dad565b60843560408201528033940390a3604051908152f35b015190508680610b01565b600085815288812093601f1916905b818110610beb5750908460019594939210610bd2575b505050811b019055610b15565b015160001960f88460031b161c19169055868080610bc5565b929389600181928786015181550195019301610baf565b826000526020600020601f830160051c81019160208410610c40575b601f0160051c01905b818110610c345750610ae7565b60008155600101610c27565b9091508190610c1e565b7f4e487b7100000000000000000000000000000000000000000000000000000000600052604160045260246000fd5b015190508880610a9c565b90601f19831691600b850160005260206000209260005b818110610ce05750926001928592600d96610200989610610cc7575b505050811b01600b820155610ab3565b015160001960f88460031b161c19169055888080610cb7565b92936020600181928786015181550195019301610c9b565b600b84016000526020600020601f840160051c810160208510610d38575b601f830160051c82018110610d2c575050610a7b565b60008155600101610d16565b5080610d16565b7f4e487b7100000000000000000000000000000000000000000000000000000000600052602160045260246000fd5b0151905086806108fe565b9250600284016000526020600020906000935b601f1984168510610dd0576001945083601f19811610610db7575b505050811b016002820155610915565b015160001960f88460031b161c19169055868080610da7565b81810151835560209485019460019093019290910190610d8c565b909150600284016000526020600020601f840160051c810160208510610e37575b90849392915b601f830160051c82018110610e285750506108e7565b60008155859450600101610e12565b5080610e0c565b0151905086806108a1565b9250600184016000526020600020906000935b601f1984168510610ea0576001945083601f19811610610e87575b505050811b0160018201556108b8565b015160001960f88460031b161c19169055868080610e77565b81810151835560209485019460019093019290910190610e5c565b909150600184016000526020600020601f840160051c810160208510610f07575b90849392915b601f830160051c82018110610ef857505061088a565b60008155859450600101610ee2565b5080610edc565b60646040517f08c379a000000000000000000000000000000000000000000000000000000000815260206004820152600e60248201527f496e76616c696420706172616d730000000000000000000000000000000000006044820152fd5b506084351515610797565b346101a05760206003193601126101a0576004356000526005602052610100604060002080549060018101549073ffffffffffffffffffffffffffffffffffffffff600282015416611003600383015460ff6004850154169060058501549360ff6007600688015497015416966040519889526020890152604088015260608701526080860190611b94565b60a084015260c0830152151560e0820152f35b346101a05760406003193601126101a0576004356024908135903360005260206008815260406000208260005281526040600020541561124e573360005260098152604060002082600052815260ff604060002054166111f1576001831015806111e6575b1561118957336000526009815260406000208260005281526040600020600160ff19825416179055600481526040600020600860098201916110bd8354611eef565b80935501908154600019820182811161115b576110d991611f7f565b606486028681046064148715171561115b576110f491611f72565b811561112d577fdfc1683b95736b3be4e1eab6ae960ebc7be89081320339ee8a1f9c7236665820949596500490556040519384523393a3005b867f4e487b710000000000000000000000000000000000000000000000000000000060005260126004526000fd5b877f4e487b710000000000000000000000000000000000000000000000000000000060005260116004526000fd5b606490600a85604051927f08c379a000000000000000000000000000000000000000000000000000000000845260048401528201527f526174696e6720312d35000000000000000000000000000000000000000000006044820152fd5b50600583111561107b565b606490600d85604051927f08c379a000000000000000000000000000000000000000000000000000000000845260048401528201527f416c7265616479207261746564000000000000000000000000000000000000006044820152fd5b606490601585604051927f08c379a000000000000000000000000000000000000000000000000000000000845260048401528201527f4d757374206f776e20746f6f6c20746f207261746500000000000000000000006044820152fd5b346101a05760006003193601126101a057602073ffffffffffffffffffffffffffffffffffffffff600a5416604051908152f35b346101a05760006003193601126101a0576020600d54604051908152f35b60406003193601126101a05760246004813510156101a05760026001541461178d576002600155600435600052600460205260406000209060ff600a830154161561172f5773ffffffffffffffffffffffffffffffffffffffff60038301541633146116d157803560011480156116c75760058301545b341061166957156116615762278d00420180421161163357915b611399600354611eef565b9283600355604051906113ab82611ba1565b84825260208201906004358252604083013381526060840134815260808501906113d6883583611f2d565b60a086019242845260c0870194855260e0870195600187528a600052600560205260406000209751885551600188015573ffffffffffffffffffffffffffffffffffffffff600288019151167fffffffffffffffffffffffff0000000000000000000000000000000000000000825416179055516003860155600485019051600481101561160557918161149996959360ff60ff19600797955416911617905551600585015551600684015551151591019060ff60ff1983541691151516179055565b3360005260076020526114b0836040600020611f39565b336000526008602052604060002060043560005260205282604060002055600681016114dc8154611eef565b9055600781016114ed348254611f72565b90556127106114fe600b5434611f7f565b049060008080808573ffffffffffffffffffffffffffffffffffffffff600a54168282156115fc575bf1156115ba57600373ffffffffffffffffffffffffffffffffffffffff9101541690803403923484116115cf57506000809381938293839034146115c6575bf1156115ba5760209061157b34600d54611f72565b600d556040513481523390827fae422581e91cddfb08fb576e145889e8f6067a98caf6a2dfa825bc8350c2de0b8560043593a460018055604051908152f35b6040513d6000823e3d90fd5b506108fc611566565b7f4e487b710000000000000000000000000000000000000000000000000000000060005260116004526000fd5b506108fc611527565b877f4e487b710000000000000000000000000000000000000000000000000000000060005260216004526000fd5b507f4e487b710000000000000000000000000000000000000000000000000000000060005260116004526000fd5b60009161138e565b6064826014604051917f08c379a0000000000000000000000000000000000000000000000000000000008352602060048401528201527f496e73756666696369656e74207061796d656e740000000000000000000000006044820152fd5b6004830154611374565b6064906013604051917f08c379a0000000000000000000000000000000000000000000000000000000008352602060048401528201527f43616e6e6f7420627579206f776e20746f6f6c000000000000000000000000006044820152fd5b606490600f604051917f08c379a0000000000000000000000000000000000000000000000000000000008352602060048401528201527f546f6f6c206e6f742061637469766500000000000000000000000000000000006044820152fd5b60046040517f3ee5aeb5000000000000000000000000000000000000000000000000000000008152fd5b346101a05760006003193601126101a05760206040517f850d585eb7f024ccee5e68e55f2c26cc72e1e6ee456acf62135757a5eb9d4a108152f35b346101a05760406003193601126101a05761180b611b07565b3373ffffffffffffffffffffffffffffffffffffffff821603611834576101e490600435611e6c565b60046040517f6697b232000000000000000000000000000000000000000000000000000000008152fd5b346101a05760406003193601126101a057611877611b2a565b73ffffffffffffffffffffffffffffffffffffffff60243591166000526007602052604060002080548210156101a05760209161019291611b4d565b346101a05760406003193601126101a0576101e46004356118d2611b07565b908060005260006020526118ed600160406000200154611dba565b611de0565b346101a05760206003193601126101a05760043560005260006020526020600160406000200154604051908152f35b346101a05760006003193601126101a0576020600b54604051908152f35b346101a0576020806003193601126101a05760043590816000526004815273ffffffffffffffffffffffffffffffffffffffff6003604060002001541633148015611a27575b156119c9576004908260005252600a60406000200160ff1981541690557f257b92b724be28ce09ffa25ac4d738fcb12d7d3d5f6731c33ec597040c7600ce600080a2005b606490604051907f08c379a00000000000000000000000000000000000000000000000000000000082526004820152600e60248201527f4e6f7420617574686f72697a65640000000000000000000000000000000000006044820152fd5b507f850d585eb7f024ccee5e68e55f2c26cc72e1e6ee456acf62135757a5eb9d4a1060005260008152604060002033600052815260ff60406000205416611985565b346101a05760206003193601126101a057600435907fffffffff0000000000000000000000000000000000000000000000000000000082168092036101a057817f7965db0b0000000000000000000000000000000000000000000000000000000060209314908115611add575b5015158152f35b7f01ffc9a70000000000000000000000000000000000000000000000000000000091501483611ad6565b6024359073ffffffffffffffffffffffffffffffffffffffff821682036101a057565b6004359073ffffffffffffffffffffffffffffffffffffffff821682036101a057565b8054821015611b655760005260206000200190600090565b7f4e487b7100000000000000000000000000000000000000000000000000000000600052603260045260246000fd5b906004821015610d3f5752565b610100810190811067ffffffffffffffff821117610c4a57604052565b90601f601f19910116810190811067ffffffffffffffff821117610c4a57604052565b81601f820112156101a05780359067ffffffffffffffff8211610c4a5760405192611c166020601f19601f8601160185611bbe565b828452602083830101116101a057816000926020809301838601378301015290565b6020908160408183019282815285518094520193019160005b828110611c5f575050505090565b835185529381019392810192600101611c51565b90600182811c92168015611cbc575b6020831014611c8d57565b7f4e487b7100000000000000000000000000000000000000000000000000000000600052602260045260246000fd5b91607f1691611c82565b9060405191826000825492611cda84611c73565b908184526001948581169081600014611d495750600114611d06575b5050611d0492500383611bbe565b565b9093915060005260209081600020936000915b818310611d31575050611d0493508201013880611cf6565b85548884018501529485019487945091830191611d19565b9050611d0495506020935060ff1991501682840152151560051b8201013880611cf6565b919082519283825260005b848110611d99575050601f19601f8460006020809697860101520116010190565b602081830181015184830182015201611d78565b906008821015610d3f5752565b80600052600060205260406000203360005260205260ff60406000205416156104e65750565b906000918083528260205273ffffffffffffffffffffffffffffffffffffffff6040842092169182845260205260ff60408420541615600014611e6757808352826020526040832082845260205260408320600160ff198254161790557f2f8788117e7eff1d82e926ec794901d17c78024a50270940304540a733656f0d339380a4600190565b505090565b906000918083528260205273ffffffffffffffffffffffffffffffffffffffff6040842092169182845260205260ff604084205416600014611e675780835282602052604083208284526020526040832060ff1981541690557ff6391f5c32d9c69d2a47ea670b442974b53935d1edc7fd64eb21e047a839171b339380a4600190565b6000198114611efe5760010190565b7f4e487b7100000000000000000000000000000000000000000000000000000000600052601160045260246000fd5b6004821015610d3f5752565b805468010000000000000000811015610c4a57611f5b91600182018155611b4d565b600019829392549160031b92831b921b1916179055565b91908201809211611efe57565b81810292918115918404141715611efe57565b73ffffffffffffffffffffffffffffffffffffffff9182600092168252600860205260408220908252602052604081205480156120925781526005602052604081209060405192611fe284611ba1565b825484526001830154602085015260028301541660408401526003820154606084015260ff60048301541661201b608085019182611f2d565b600583015460a085015260e060ff600760068601549560c088019687520154169401931515845251906004821015612065575060011461205c575051151590565b90505142111590565b807f4e487b7100000000000000000000000000000000000000000000000000000000602492526021600452fd5b5090509056fea2646970667358221220c8fac63ab2e52e839a7e9a63c0074630f58c686c5e4813b3512b36d954cd8dc364736f6c634300081400332f8788117e7eff1d82e926ec794901d17c78024a50270940304540a733656f0d",
  "linkReferences": {},
  "deployedLinkReferences": {}
}