{
  "_format": "hh-sol-artifact-1",
  "contractName": "IdentityVerifier",
  "sourceName": "contracts/layer7/trust/IdentityVerifier.sol",
  "abi": [
    {
      "inputs": [],
      "stateMutability": "nonpayable",
      "type": "constructor"
    },
    {
      "inputs": [],
      "name": "AccessControlBadConfirmation",
      "type": "error"
    },
    {
      "inputs": [
        {
          "internalType": "address",
          "name": "account",
          "type": "address"
        },
        {
          "internalType": "bytes32",
          "name": "neededRole",
          "type": "bytes32"
        }
      ],
      "name": "AccessControlUnauthorizedAccount",
      "type": "error"
    },
    {
      "inputs": [],
      "name": "ReentrancyGuardReentrantCall",
      "type": "error"
    },
    {
      "anonymous": false,
      "inputs": [
        {
          "indexed": true,
          "internalType": "address",
          "name": "subject",
          "type": "address"
        },
        {
          "indexed": false,
          "internalType": "enum IdentityVerifier.VerificationLevel",
          "name": "level",
          "type": "uint8"
        }
      ],
      "name": "IdentityVerified",
      "type": "event"
    },
    {
      "anonymous": false,
      "inputs": [
        {
          "indexed": true,
          "internalType": "uint256",
          "name": "proofId",
          "type": "uint256"
        },
        {
          "indexed": true,
          "internalType": "address",
          "name": "subject",
          "type": "address"
        },
        {
          "indexed": false,
          "internalType": "enum IdentityVerifier.VerificationLevel",
          "name": "level",
          "type": "uint8"
        }
      ],
      "name": "ProofIssued",
      "type": "event"
    },
    {
      "anonymous": false,
      "inputs": [
        {
          "indexed": true,
          "internalType": "uint256",
          "name": "proofId",
          "type": "uint256"
        },
        {
          "indexed": true,
          "internalType": "address",
          "name": "subject",
          "type": "address"
        },
        {
          "indexed": false,
          "internalType": "string",
          "name": "reason",
          "type": "string"
        }
      ],
      "name": "ProofRevoked",
      "type": "event"
    },
    {
      "anonymous": false,
      "inputs": [
        {
          "indexed": true,
          "internalType": "bytes32",
          "name": "role",
          "type": "bytes32"
        },
        {
          "indexed": true,
          "internalType": "bytes32",
          "name": "previousAdminRole",
          "type": "bytes32"
        },
        {
          "indexed": true,
          "internalType": "bytes32",
          "name": "newAdminRole",
          "type": "bytes32"
        }
      ],
      "name": "RoleAdminChanged",
      "type": "event"
    },
    {
      "anonymous": false,
      "inputs": [
        {
          "indexed": true,
          "internalType": "bytes32",
          "name": "role",
          "type": "bytes32"
        },
        {
          "indexed": true,
          "internalType": "address",
          "name": "account",
          "type": "address"
        },
        {
          "indexed": true,
          "internalType": "address",
          "name": "sender",
          "type": "address"
        }
      ],
      "name": "RoleGranted",
      "type": "event"
    },
    {
      "anonymous": false,
      "inputs": [
        {
          "indexed": true,
          "internalType": "bytes32",
          "name": "role",
          "type": "bytes32"
        },
        {
          "indexed": true,
          "internalType": "address",
          "name": "account",
          "type": "address"
        },
        {
          "indexed": true,
          "internalType": "address",
          "name": "sender",
          "type": "address"
        }
      ],
      "name": "RoleRevoked",
      "type": "event"
    },
    {
      "anonymous": false,
      "inputs": [
        {
          "indexed": true,
          "internalType": "address",
          "name": "subject",
          "type": "address"
        }
      ],
      "name": "SubjectCleared",
      "type": "event"
    },
    {
      "anonymous": false,
      "inputs": [
        {
          "indexed": true,
          "internalType": "address",
          "name": "subject",
          "type": "address"
        }
      ],
      "name": "SubjectSanctioned",
      "type": "event"
    },
    {
      "inputs": [],
      "name": "DEFAULT_ADMIN_ROLE",
      "outputs": [
        {
          "internalType": "bytes32",
          "name": "",
          "type": "bytes32"
        }
      ],
      "stateMutability": "view",
      "type": "function"
    },
    {
      "inputs": [],
      "name": "KYC_PROVIDER_ROLE",
      "outputs": [
        {
          "internalType": "bytes32",
          "name": "",
          "type": "bytes32"
        }
      ],
      "stateMutability": "view",
      "type": "function"
    },
    {
      "inputs": [],
      "name": "PROOF_TTL",
      "outputs": [
        {
          "internalType": "uint256",
          "name": "",
          "type": "uint256"
        }
      ],
      "stateMutability": "view",
      "type": "function"
    },
    {
      "inputs": [],
      "name": "REVOKER_ROLE",
      "outputs": [
        {
          "internalType": "bytes32",
          "name": "",
          "type": "bytes32"
        }
      ],
      "stateMutability": "view",
      "type": "function"
    },
    {
      "inputs": [
        {
          "internalType": "address",
          "name": "subject",
          "type": "address"
        }
      ],
      "name": "clearSanction",
      "outputs": [],
      "stateMutability": "nonpayable",
      "type": "function"
    },
    {
      "inputs": [
        {
          "internalType": "address",
          "name": "subject",
          "type": "address"
        }
      ],
      "name": "getProofIds",
      "outputs": [
        {
          "internalType": "uint256[]",
          "name": "",
          "type": "uint256[]"
        }
      ],
      "stateMutability": "view",
      "type": "function"
    },
    {
      "inputs": [
        {
          "internalType": "bytes32",
          "name": "role",
          "type": "bytes32"
        }
      ],
      "name": "getRoleAdmin",
      "outputs": [
        {
          "internalType": "bytes32",
          "name": "",
          "type": "bytes32"
        }
      ],
      "stateMutability": "view",
      "type": "function"
    },
    {
      "inputs": [
        {
          "internalType": "address",
          "name": "subject",
          "type": "address"
        }
      ],
      "name": "getVerificationLevel",
      "outputs": [
        {
          "internalType": "enum IdentityVerifier.VerificationLevel",
          "name": "",
          "type": "uint8"
        }
      ],
      "stateMutability": "view",
      "type": "function"
    },
    {
      "inputs": [
        {
          "internalType": "bytes32",
          "name": "role",
          "type": "bytes32"
        },
        {
          "internalType": "address",
          "name": "account",
          "type": "address"
        }
      ],
      "name": "grantRole",
      "outputs": [],
      "stateMutability": "nonpayable",
      "type": "function"
    },
    {
      "inputs": [
        {
          "internalType": "bytes32",
          "name": "role",
          "type": "bytes32"
        },
        {
          "internalType": "address",
          "name": "account",
          "type": "address"
        }
      ],
      "name": "hasRole",
      "outputs": [
        {
          "internalType": "bool",
          "name": "",
          "type": "bool"
        }
      ],
      "stateMutability": "view",
      "type": "function"
    },
    {
      "inputs": [
        {
          "internalType": "uint256",
          "name": "proofId",
          "type": "uint256"
        }
      ],
      "name": "isProofValid",
      "outputs": [
        {
          "internalType": "bool",
          "name": "",
          "type": "bool"
        }
      ],
      "stateMutability": "view",
      "type": "function"
    },
    {
      "inputs": [
        {
          "internalType": "address",
          "name": "subject",
          "type": "address"
        },
        {
          "internalType": "enum IdentityVerifier.ProofType",
          "name": "proofType",
          "type": "uint8"
        },
        {
          "internalType": "enum IdentityVerifier.VerificationLevel",
          "name": "level",
          "type": "uint8"
        },
        {
          "internalType": "bytes32",
          "name": "proofHash",
          "type": "bytes32"
        },
        {
          "internalType": "string",
          "name": "jurisdiction",
          "type": "string"
        }
      ],
      "name": "issueProof",
      "outputs": [
        {
          "internalType": "uint256",
          "name": "proofId",
          "type": "uint256"
        }
      ],
      "stateMutability": "nonpayable",
      "type": "function"
    },
    {
      "inputs": [
        {
          "internalType": "address",
          "name": "subject",
          "type": "address"
        },
        {
          "internalType": "enum IdentityVerifier.VerificationLevel",
          "name": "required",
          "type": "uint8"
        }
      ],
      "name": "meetsLevel",
      "outputs": [
        {
          "internalType": "bool",
          "name": "",
          "type": "bool"
        }
      ],
      "stateMutability": "view",
      "type": "function"
    },
    {
      "inputs": [],
      "name": "proofCounter",
      "outputs": [
        {
          "internalType": "uint256",
          "name": "",
          "type": "uint256"
        }
      ],
      "stateMutability": "view",
      "type": "function"
    },
    {
      "inputs": [
        {
          "internalType": "uint256",
          "name": "",
          "type": "uint256"
        }
      ],
      "name": "proofs",
      "outputs": [
        {
          "internalType": "uint256",
          "name": "id",
          "type": "uint256"
        },
        {
          "internalType": "address",
          "name": "subject",
          "type": "address"
        },
        {
          "internalType": "enum IdentityVerifier.ProofType",
          "name": "proofType",
          "type": "uint8"
        },
        {
          "internalType": "enum IdentityVerifier.VerificationLevel",
          "name": "level",
          "type": "uint8"
        },
        {
          "internalType": "bytes32",
          "name": "proofHash",
          "type": "bytes32"
        },
        {
          "internalType": "uint256",
          "name": "issuedAt",
          "type": "uint256"
        },
        {
          "internalType": "uint256",
          "name": "expiresAt",
          "type": "uint256"
        },
        {
          "internalType": "bool",
          "name": "revoked",
          "type": "bool"
        },
        {
          "internalType": "address",
          "name": "provider",
          "type": "address"
        },
        {
          "internalType": "string",
          "name": "jurisdiction",
          "type": "string"
        }
      ],
      "stateMutability": "view",
      "type": "function"
    },
    {
      "inputs": [
        {
          "internalType": "address",
          "name": "",
          "type": "address"
        }
      ],
      "name": "records",
      "outputs": [
        {
          "internalType": "enum IdentityVerifier.VerificationLevel",
          "name": "highestLevel",
          "type": "uint8"
        },
        {
          "internalType": "bool",
          "name": "sanctioned",
          "type": "bool"
        },
        {
          "internalType": "bool",
          "name": "active",
          "type": "bool"
        },
        {
          "internalType": "uint256",
          "name": "lastVerified",
          "type": "uint256"
        }
      ],
      "stateMutability": "view",
      "type": "function"
    },
    {
      "inputs": [
        {
          "internalType": "bytes32",
          "name": "role",
          "type": "bytes32"
        },
        {
          "internalType": "address",
          "name": "callerConfirmation",
          "type": "address"
        }
      ],
      "name": "renounceRole",
      "outputs": [],
      "stateMutability": "nonpayable",
      "type": "function"
    },
    {
      "inputs": [
        {
          "internalType": "uint256",
          "name": "proofId",
          "type": "uint256"
        },
        {
          "internalType": "string",
          "name": "reason",
          "type": "string"
        }
      ],
      "name": "revokeProof",
      "outputs": [],
      "stateMutability": "nonpayable",
      "type": "function"
    },
    {
      "inputs": [
        {
          "internalType": "bytes32",
          "name": "role",
          "type": "bytes32"
        },
        {
          "internalType": "address",
          "name": "account",
          "type": "address"
        }
      ],
      "name": "revokeRole",
      "outputs": [],
      "stateMutability": "nonpayable",
      "type": "function"
    },
    {
      "inputs": [
        {
          "internalType": "address",
          "name": "subject",
          "type": "address"
        }
      ],
      "name": "sanctionSubject",
      "outputs": [],
      "stateMutability": "nonpayable",
      "type": "function"
    },
    {
      "inputs": [
        {
          "internalType": "address",
          "name": "",
          "type": "address"
        }
      ],
      "name": "sanctionedList",
      "outputs": [
        {
          "internalType": "bool",
          "name": "",
          "type": "bool"
        }
      ],
      "stateMutability": "view",
      "type": "function"
    },
    {
      "inputs": [
        {
          "internalType": "bytes4",
          "name": "interfaceId",
          "type": "bytes4"
        }
      ],
      "name": "supportsInterface",
      "outputs": [
        {
          "internalType": "bool",
          "name": "",
          "type": "bool"
        }
      ],
      "stateMutability": "view",
      "type": "function"
    },
    {
      "inputs": [
        {
          "internalType": "bytes32",
          "name": "",
          "type": "bytes32"
        }
      ],
      "name": "usedProofHashes",
      "outputs": [
        {
          "internalType": "bool",
          "name": "",
          "type": "bool"
        }
      ],
      "stateMutability": "view",
      "type": "function"
    }
  ],
  "bytecode": "0x608060405234620000425760018055620000193362000047565b506200002533620000c7565b50620000313362000169565b5060405161176b9081620002078239f35b600080fd5b6001600160a01b031660008181527fad3228b676f7d3cd4284a5443f17f1962b36e491b30a40b2405849e597ba5fb5602052604081205490919060ff16620000c357818052816020526040822081835260205260408220600160ff198254161790553391600080516020620019728339815191528180a4600190565b5090565b6001600160a01b031660008181527f1cc1b714a06a87312844cc068c3d4b37d3e95f55dbc93d124629a4fd3f5c1d6060205260408120549091907f6c4079fcac94e7142d8c209744c998efe53a188aadb7e55958f7ad3ea8a1d6529060ff166200016457808352826020526040832082845260205260408320600160ff1982541617905560008051602062001972833981519152339380a4600190565b505090565b6001600160a01b031660008181527ff38da9114e17e4ae38d3015ba64927782cafeac3f9d5b8d2f1e379f197d8f4f360205260408120549091907fce3f34913921da558f105cefb578d87278debbbd073a8d552b5de0d168deee309060ff166200016457808352826020526040832082845260205260408320600160ff1982541617905560008051602062001972833981519152339380a460019056fe608080604052600436101561001357600080fd5b60003560e01c90816301ffc9a71461122b5750806320e21535146111d8578063248a9ca3146111a95780632f2ff15d1461116a578063355b1389146110d457806336568abe14611068578063469e906714610fec5780636d9f437014610fce578063707dcd2514610f92578063775908d314610f455780637c4acabf14610f0a57806381bc856a146107a457806391d14854146107495780639ad74c021461072a5780639cd784c9146106975780639ddaf5aa146104d6578063a217fddf146104ba578063b4a1db89146103fc578063d547741f146103bb578063d87318b21461038a578063d9e1063d1461034f578063dc5d35a2146103035763f418868a1461011c57600080fd5b346102fe5760406003193601126102fe5760043560243567ffffffffffffffff81116102fe57610150903690600401611348565b3360009081527ff38da9114e17e4ae38d3015ba64927782cafeac3f9d5b8d2f1e379f197d8f4f360209081526040909120549293927fce3f34913921da558f105cefb578d87278debbbd073a8d552b5de0d168deee309060ff16156102c757508260005260038152604060002060058101805460ff811661026957601f858060016040967fdfe12e9b83295a29b1b8b866d73a42e883cf914a386c7a12de34d6e804647e629998968260ff197fffffffffffffffffffffffffffffffffffffffffffffffffffffffffffffffe098161790550173ffffffffffffffffffffffffffffffffffffffff9061024582825416611606565b541699865197868997885287015286860137600085828601015201168101030190a3005b606484604051907f08c379a00000000000000000000000000000000000000000000000000000000082526004820152600f60248201527f416c7265616479207265766f6b656400000000000000000000000000000000006044820152fd5b604490604051907fe2517d3f0000000000000000000000000000000000000000000000000000000082523360048301526024820152fd5b600080fd5b346102fe5760206003193601126102fe5773ffffffffffffffffffffffffffffffffffffffff6103316112c9565b166000526006602052602060ff604060002054166040519015158152f35b346102fe5760006003193601126102fe5760206040517f6c4079fcac94e7142d8c209744c998efe53a188aadb7e55958f7ad3ea8a1d6528152f35b346102fe5760206003193601126102fe576004356000526005602052602060ff604060002054166040519015158152f35b346102fe5760406003193601126102fe576103fa6004356103da6112ec565b908060005260006020526103f5600160406000200154611444565b6114f6565b005b346102fe576020806003193601126102fe5773ffffffffffffffffffffffffffffffffffffffff61042b6112c9565b1660005260048152600190816040600020019160405191828185549182815201908195600052826000209060005b8181106104a7575050508361046f9103846113c9565b60405192818401908285525180915260408401949160005b8281106104945785870386f35b8351875295810195928101928401610487565b8254845292840192918501918501610459565b346102fe5760006003193601126102fe57602060405160008152f35b346102fe576020806003193601126102fe57600435600052600381526040600020805491600180830154906002840154600385015460048601549160058701549360405180986006600091019283549361052f85611376565b948585528b8382169182600014610674575050600114610634575b5050610558925003886113c9565b60405197885260ff73ffffffffffffffffffffffffffffffffffffffff95868116888b0152818160a01c1661058c8161130f565b60408b015260a81c1661059e8161130f565b6060890152608088015260a087015260c086015260ff8116151560e086015260081c1661010084015261014091826101208501528051809385015260005b83811061061f57505050817fffffffffffffffffffffffffffffffffffffffffffffffffffffffffffffffe0601f61016093600085828601015201168101030190f35b818101830151858201610160015282016105dc565b8a925060005281600020906000915b85831061065b57505061055893508201018b8061054a565b819484848396959654920101520191018a928a92610643565b9150935061055895925060ff1991501682840152151560051b8201018b8061054a565b346102fe5760206003193601126102fe576106b06112c9565b6106b861140a565b61070373ffffffffffffffffffffffffffffffffffffffff821691826000526006602052604060002060ff199081815416905560046020526002604060002001908154169055611606565b7f045fbd46a546215bc00b8070dbb251cc170ae0b52a5ed4a188e0658136453d75600080a2005b346102fe5760006003193601126102fe5760206040516303c267008152f35b346102fe5760406003193601126102fe576107626112ec565b600435600052600060205273ffffffffffffffffffffffffffffffffffffffff60406000209116600052602052602060ff604060002054166040519015158152f35b346102fe5760a06003193601126102fe576107bd6112c9565b600560243510156102fe57600560443510156102fe5760843567ffffffffffffffff81116102fe576107f3903690600401611348565b3360009081527f1cc1b714a06a87312844cc068c3d4b37d3e95f55dbc93d124629a4fd3f5c1d6060205260409020547f6c4079fcac94e7142d8c209744c998efe53a188aadb7e55958f7ad3ea8a1d6529060ff16156102c7575073ffffffffffffffffffffffffffffffffffffffff8316600052600660205260ff60406000205416610eac57606435600052600560205260ff60406000205416610e4e5761089c600254611579565b918260025560643560005260056020526040600020600160ff198254161790556303c2670042014211610e1f57604051918261014081011067ffffffffffffffff61014085011117610cf457610140830160405283835273ffffffffffffffffffffffffffffffffffffffff8516602084015261091a60243561130f565b602435604084015261092d60443561130f565b604435606084015260643560808401524260a08401526303c26700420160c0840152600060e08401523361010084015267ffffffffffffffff8111610cf457604051916109a260207fffffffffffffffffffffffffffffffffffffffffffffffffffffffffffffffe0601f85011601846113c9565b81835236828201116102fe57816000926020928386013783010152610120820152816000526003602052610120604060002091805183556001830173ffffffffffffffffffffffffffffffffffffffff60208301511681549074ff0000000000000000000000000000000000000000604085015191610a208361130f565b610a298361130f565b7fffffffffffffffffffff0000000000000000000000000000000000000000000075ff0000000000000000000000000000000000000000006060880151610a6f8161130f565b610a788161130f565b60a81b169416179160a01b16171790556080810151600284015560a0810151600384015560c081015160048401556005830160e0820151151581547fffffffffffffffffffffff00000000000000000000000000000000000000000060ff74ffffffffffffffffffffffffffffffffffffffff0061010087015160081b169316911617179055015180519067ffffffffffffffff8211610cf457610b1f6006840154611376565b601f8111610dd8575b50602090601f8311600114610d2e576006929160009183610d23575b50507fffffffffffffffffffffffffffffffffffffffffffffffffffffffffffffffff8260011b9260031b1c1916179101555b73ffffffffffffffffffffffffffffffffffffffff82166000526004602052604060002091600183019283549068010000000000000000821015610cf45773ffffffffffffffffffffffffffffffffffffffff60ff60209692610c0285899560017f450a3cb970a0ab2ff673b28a252b908d3337fe1ba6e5ad80aecdb2c7a7ffaf09980181556115a6565b81549060031b907fffffffffffffffffffffffffffffffffffffffffffffffffffffffffffffffff8a831b921b1916179055600281016101007fffffffffffffffffffffffffffffffffffffffffffffffffffffffffffff00ff825416179055426003820155610c7360443561130f565b81815416610c808161130f565b826044351611610ce3575b604051610c9960443561130f565b6044358152877f79a956d5cfaaae8825eb204bfe343c023d24c3aea7fa5bcba756beb97a28e22186868a1693a354169360405194610cd68161130f565b85521692a2604051908152f35b610cef604435826115ed565b610c8b565b7f4e487b7100000000000000000000000000000000000000000000000000000000600052604160045260246000fd5b015190508680610b44565b907fffffffffffffffffffffffffffffffffffffffffffffffffffffffffffffffe08316916006850160005260206000209260005b818110610dc057509160019391856006969410610d89575b505050811b01910155610b77565b01517fffffffffffffffffffffffffffffffffffffffffffffffffffffffffffffffff60f88460031b161c19169055868080610d7b565b92936020600181928786015181550195019301610d63565b600684016000526020600020601f840160051c810160208510610e18575b601f830160051c82018110610e0c575050610b28565b60008155600101610df6565b5080610df6565b7f4e487b7100000000000000000000000000000000000000000000000000000000600052601160045260246000fd5b60646040517f08c379a000000000000000000000000000000000000000000000000000000000815260206004820152601760248201527f50726f6f66206861736820616c726561647920757365640000000000000000006044820152fd5b60646040517f08c379a000000000000000000000000000000000000000000000000000000000815260206004820152601560248201527f5375626a6563742069732073616e6374696f6e656400000000000000000000006044820152fd5b346102fe5760006003193601126102fe5760206040517fce3f34913921da558f105cefb578d87278debbbd073a8d552b5de0d168deee308152f35b346102fe5760206003193601126102fe5760043560005260036020526020604060002060ff600582015416159081610f83575b506040519015158152f35b60049150015442111582610f78565b346102fe5760406003193601126102fe57610fab6112c9565b6024359060058210156102fe57602091610fc4916116dc565b6040519015158152f35b346102fe5760006003193601126102fe576020600254604051908152f35b346102fe5760206003193601126102fe5773ffffffffffffffffffffffffffffffffffffffff61101a6112c9565b1660005260046020526080604060002060ff8154169060ff60036002830154920154916040519361104a8161130f565b84528181161515602085015260081c16151560408301526060820152f35b346102fe5760406003193601126102fe576110816112ec565b3373ffffffffffffffffffffffffffffffffffffffff8216036110aa576103fa906004356114f6565b60046040517f6697b232000000000000000000000000000000000000000000000000000000008152fd5b346102fe5760206003193601126102fe5773ffffffffffffffffffffffffffffffffffffffff6111026112c9565b61110a61140a565b16806000526006602052604060002060ff199060018282541617905560046020526040600020906002820160018282541617905581541690557f42b4e1c6b9e44895cc0f15c962402860b48a8a5dfdde72f6dc0d0f495b6a9dbc600080a2005b346102fe5760406003193601126102fe576103fa6004356111896112ec565b908060005260006020526111a4600160406000200154611444565b61146a565b346102fe5760206003193601126102fe5760043560005260006020526020600160406000200154604051908152f35b346102fe5760206003193601126102fe5773ffffffffffffffffffffffffffffffffffffffff6112066112c9565b166000526004602052602060ff60406000205416604051906112278161130f565b8152f35b346102fe5760206003193601126102fe57600435907fffffffff0000000000000000000000000000000000000000000000000000000082168092036102fe57817f7965db0b000000000000000000000000000000000000000000000000000000006020931490811561129f575b5015158152f35b7f01ffc9a70000000000000000000000000000000000000000000000000000000091501483611298565b6004359073ffffffffffffffffffffffffffffffffffffffff821682036102fe57565b6024359073ffffffffffffffffffffffffffffffffffffffff821682036102fe57565b6005111561131957565b7f4e487b7100000000000000000000000000000000000000000000000000000000600052602160045260246000fd5b9181601f840112156102fe5782359167ffffffffffffffff83116102fe57602083818601950101116102fe57565b90600182811c921680156113bf575b602083101461139057565b7f4e487b7100000000000000000000000000000000000000000000000000000000600052602260045260246000fd5b91607f1691611385565b90601f7fffffffffffffffffffffffffffffffffffffffffffffffffffffffffffffffe0910116810190811067ffffffffffffffff821117610cf457604052565b3360009081527fad3228b676f7d3cd4284a5443f17f1962b36e491b30a40b2405849e597ba5fb5602052604081205460ff16156102c75750565b80600052600060205260406000203360005260205260ff60406000205416156102c75750565b906000918083528260205273ffffffffffffffffffffffffffffffffffffffff6040842092169182845260205260ff604084205416156000146114f157808352826020526040832082845260205260408320600160ff198254161790557f2f8788117e7eff1d82e926ec794901d17c78024a50270940304540a733656f0d339380a4600190565b505090565b906000918083528260205273ffffffffffffffffffffffffffffffffffffffff6040842092169182845260205260ff6040842054166000146114f15780835282602052604083208284526020526040832060ff1981541690557ff6391f5c32d9c69d2a47ea670b442974b53935d1edc7fd64eb21e047a839171b339380a4600190565b7fffffffffffffffffffffffffffffffffffffffffffffffffffffffffffffffff8114610e1f5760010190565b80548210156115be5760005260206000200190600090565b7f4e487b7100000000000000000000000000000000000000000000000000000000600052603260045260246000fd5b906115f78161130f565b60ff60ff198354169116179055565b9073ffffffffffffffffffffffffffffffffffffffff600092168252600491602092808452604080832091838092600191828601988954955b86811061165a57505050505050506116589293506115ed565b565b611664818c6115a6565b9054600391821b1c845282528383208560ff918260058201541615806116cf575b61169b575b50505061169690611579565b61163f565b015460a81c8116906116ac8261130f565b6116b58b61130f565b8a1681116116c5575b858161168a565b98506116966116be565b5088810154421115611685565b73ffffffffffffffffffffffffffffffffffffffff16600052600660205260ff6040600020541661172f57600460205260ff8060406000205416916117208361130f565b6117298161130f565b16111590565b5060009056fea2646970667358221220c81a3a896d5d78e15fb6059d92168a651871216baf1d28fd45309daf053ee2ee64736f6c634300081400332f8788117e7eff1d82e926ec794901d17c78024a50270940304540a733656f0d",
  "linkReferences": {},
  "deployedLinkReferences": {}
}