{
  "_format": "hh-sol-artifact-1",
  "contractName": "PerformanceTracking",
  "sourceName": "contracts/layer4/talent/PerformanceTracking.sol",
  "abi": [
    {
      "anonymous": false,
      "inputs": [
        {
          "indexed": true,
          "internalType": "uint256",
          "name": "talentId",
          "type": "uint256"
        },
        {
          "indexed": false,
          "internalType": "string",
          "name": "awardName",
          "type": "string"
        }
      ],
      "name": "AwardReceived",
      "type": "event"
    },
    {
      "anonymous": false,
      "inputs": [
        {
          "indexed": true,
          "internalType": "uint256",
          "name": "performanceId",
          "type": "uint256"
        },
        {
          "indexed": true,
          "internalType": "uint256",
          "name": "talentId",
          "type": "uint256"
        },
        {
          "indexed": false,
          "internalType": "uint256",
          "name": "rating",
          "type": "uint256"
        }
      ],
      "name": "PerformanceRecorded",
      "type": "event"
    },
    {
      "inputs": [
        {
          "internalType": "uint256",
          "name": "talentId",
          "type": "uint256"
        },
        {
          "internalType": "string",
          "name": "awardName",
          "type": "string"
        }
      ],
      "name": "awardTalent",
      "outputs": [],
      "stateMutability": "nonpayable",
      "type": "function"
    },
    {
      "inputs": [
        {
          "internalType": "uint256",
          "name": "talentId",
          "type": "uint256"
        }
      ],
      "name": "calculateTalentScore",
      "outputs": [
        {
          "internalType": "uint256",
          "name": "",
          "type": "uint256"
        }
      ],
      "stateMutability": "view",
      "type": "function"
    },
    {
      "inputs": [
        {
          "internalType": "uint256",
          "name": "",
          "type": "uint256"
        }
      ],
      "name": "careerStats",
      "outputs": [
        {
          "internalType": "uint256",
          "name": "talentId",
          "type": "uint256"
        },
        {
          "internalType": "uint256",
          "name": "totalPerformances",
          "type": "uint256"
        },
        {
          "internalType": "uint256",
          "name": "averageRating",
          "type": "uint256"
        },
        {
          "internalType": "uint256",
          "name": "totalBoxOffice",
          "type": "uint256"
        },
        {
          "internalType": "uint256",
          "name": "peakRating",
          "type": "uint256"
        },
        {
          "internalType": "uint256",
          "name": "currentStreak",
          "type": "uint256"
        },
        {
          "internalType": "uint256",
          "name": "awards",
          "type": "uint256"
        }
      ],
      "stateMutability": "view",
      "type": "function"
    },
    {
      "inputs": [
        {
          "internalType": "uint256",
          "name": "talentId",
          "type": "uint256"
        }
      ],
      "name": "getCareerStats",
      "outputs": [
        {
          "components": [
            {
              "internalType": "uint256",
              "name": "talentId",
              "type": "uint256"
            },
            {
              "internalType": "uint256",
              "name": "totalPerformances",
              "type": "uint256"
            },
            {
              "internalType": "uint256",
              "name": "averageRating",
              "type": "uint256"
            },
            {
              "internalType": "uint256",
              "name": "totalBoxOffice",
              "type": "uint256"
            },
            {
              "internalType": "uint256",
              "name": "peakRating",
              "type": "uint256"
            },
            {
              "internalType": "uint256",
              "name": "currentStreak",
              "type": "uint256"
            },
            {
              "internalType": "uint256",
              "name": "awards",
              "type": "uint256"
            }
          ],
          "internalType": "struct PerformanceTracking.CareerStats",
          "name": "",
          "type": "tuple"
        }
      ],
      "stateMutability": "view",
      "type": "function"
    },
    {
      "inputs": [
        {
          "internalType": "uint256",
          "name": "performanceId",
          "type": "uint256"
        }
      ],
      "name": "getPerformance",
      "outputs": [
        {
          "components": [
            {
              "internalType": "uint256",
              "name": "performanceId",
              "type": "uint256"
            },
            {
              "internalType": "uint256",
              "name": "talentId",
              "type": "uint256"
            },
            {
              "internalType": "uint256",
              "name": "movieId",
              "type": "uint256"
            },
            {
              "internalType": "uint256",
              "name": "role",
              "type": "uint256"
            },
            {
              "internalType": "uint256",
              "name": "rating",
              "type": "uint256"
            },
            {
              "internalType": "uint256",
              "name": "boxOfficeContribution",
              "type": "uint256"
            },
            {
              "internalType": "uint256",
              "name": "criticalScore",
              "type": "uint256"
            },
            {
              "internalType": "uint256",
              "name": "audienceScore",
              "type": "uint256"
            },
            {
              "internalType": "uint256",
              "name": "timestamp",
              "type": "uint256"
            },
            {
              "internalType": "address",
              "name": "ratedBy",
              "type": "address"
            }
          ],
          "internalType": "struct PerformanceTracking.Performance",
          "name": "",
          "type": "tuple"
        }
      ],
      "stateMutability": "view",
      "type": "function"
    },
    {
      "inputs": [
        {
          "internalType": "uint256",
          "name": "talentId",
          "type": "uint256"
        }
      ],
      "name": "getTalentPerformances",
      "outputs": [
        {
          "internalType": "uint256[]",
          "name": "",
          "type": "uint256[]"
        }
      ],
      "stateMutability": "view",
      "type": "function"
    },
    {
      "inputs": [],
      "name": "performanceCount",
      "outputs": [
        {
          "internalType": "uint256",
          "name": "",
          "type": "uint256"
        }
      ],
      "stateMutability": "view",
      "type": "function"
    },
    {
      "inputs": [
        {
          "internalType": "uint256",
          "name": "",
          "type": "uint256"
        }
      ],
      "name": "performances",
      "outputs": [
        {
          "internalType": "uint256",
          "name": "performanceId",
          "type": "uint256"
        },
        {
          "internalType": "uint256",
          "name": "talentId",
          "type": "uint256"
        },
        {
          "internalType": "uint256",
          "name": "movieId",
          "type": "uint256"
        },
        {
          "internalType": "uint256",
          "name": "role",
          "type": "uint256"
        },
        {
          "internalType": "uint256",
          "name": "rating",
          "type": "uint256"
        },
        {
          "internalType": "uint256",
          "name": "boxOfficeContribution",
          "type": "uint256"
        },
        {
          "internalType": "uint256",
          "name": "criticalScore",
          "type": "uint256"
        },
        {
          "internalType": "uint256",
          "name": "audienceScore",
          "type": "uint256"
        },
        {
          "internalType": "uint256",
          "name": "timestamp",
          "type": "uint256"
        },
        {
          "internalType": "address",
          "name": "ratedBy",
          "type": "address"
        }
      ],
      "stateMutability": "view",
      "type": "function"
    },
    {
      "inputs": [
        {
          "internalType": "uint256",
          "name": "talentId",
          "type": "uint256"
        },
        {
          "internalType": "uint256",
          "name": "movieId",
          "type": "uint256"
        },
        {
          "internalType": "uint256",
          "name": "role",
          "type": "uint256"
        },
        {
          "internalType": "uint256",
          "name": "rating",
          "type": "uint256"
        },
        {
          "internalType": "uint256",
          "name": "boxOffice",
          "type": "uint256"
        },
        {
          "internalType": "uint256",
          "name": "criticalScore",
          "type": "uint256"
        },
        {
          "internalType": "uint256",
          "name": "audienceScore",
          "type": "uint256"
        }
      ],
      "name": "recordPerformance",
      "outputs": [
        {
          "internalType": "uint256",
          "name": "",
          "type": "uint256"
        }
      ],
      "stateMutability": "nonpayable",
      "type": "function"
    },
    {
      "inputs": [
        {
          "internalType": "uint256",
          "name": "",
          "type": "uint256"
        },
        {
          "internalType": "uint256",
          "name": "",
          "type": "uint256"
        }
      ],
      "name": "talentPerformances",
      "outputs": [
        {
          "internalType": "uint256",
          "name": "",
          "type": "uint256"
        }
      ],
      "stateMutability": "view",
      "type": "function"
    }
  ],
  "bytecode": "0x6080806040523461001657610bde908161001c8239f35b600080fdfe60806040908082526004908136101561001757600080fd5b60009060e08235811c9182631f606c3114610a335750816347625694146108f557816360e6faee1461088f5781639ce0760e146107bb578163aa13e16c14610661578163b93ce42414610515578163c2354e8014610224578163d03d2bbd146101dd578163dcbc3bb314610138575063f5ff636d1461009557600080fd5b3461013557602091826003193601126101315792919235815260028352818120908251808584549182815201908194845286842090845b81811061011d57505050816100e2910382610ab7565b83519485948186019282875251809352850193925b82811061010657505050500390f35b8351855286955093810193928101926001016100f7565b8254845292880192600192830192016100cc565b5080fd5b80fd5b90508284346101d95760206003193601126101d95780610140948335815280602052209081549360018301549360028401549060038501549085015460058601549160068701549360078801549673ffffffffffffffffffffffffffffffffffffffff600960088b01549a0154169981519b8c5260208c01528a01526060890152608088015260a087015260c0860152840152610100830152610120820152f35b8380fd5b83858434610135578160031936011261013557602435923581526002602052818120908154841015610135575060209261021691610af8565b91905490519160031b1c8152f35b92905034610131578260031936011261013157908184923591606435916084359060035461025190610b3f565b80978160035587519061026382610a4f565b82825260209a8b918284018a8152828501602435815260608601604435815260808701918c835260a08801938b855260c089019560a435875289019660c43588528d6101008b0199428b526101208c019c8d3390528252528d20985189555160018901555160028801555160038701555187860155516005850155516006840155516007830155516008820155600901905173ffffffffffffffffffffffffffffffffffffffff1681547fffffffffffffffffffffffff00000000000000000000000000000000000000001617905584835260028852858320805490680100000000000000008210156104e9579061036091600182018155610af8565b9080549160031b7fffffffffffffffffffffffffffffffffffffffffffffffffffffffffffffffff92838b831b921b1916179055858452600189528684209260018401906103ae8254610b3f565b8092556103c060038601918254610b9b565b905560028401918254908201908282116104bd5781810291818304149015171561049157866103ee91610b9b565b8115610465579580937f49486dbd6be152a280234d0b8b9e4800a401e0396357fe4600779c532118232296938c96938c9904905582018054821161045d575b50611b58116104545760059150016104458154610b3f565b90555b8551908152a351908152f35b60050155610448565b55823861042d565b6024866012867f4e487b7100000000000000000000000000000000000000000000000000000000835252fd5b6024866011867f4e487b7100000000000000000000000000000000000000000000000000000000835252fd5b6024876011877f4e487b7100000000000000000000000000000000000000000000000000000000835252fd5b6024856041857f4e487b7100000000000000000000000000000000000000000000000000000000835252fd5b8285853461062d578160031936011261062d578035916024359167ffffffffffffffff9081841161065d573660238501121561065d578381013591821161063157508151856020947fffffffffffffffffffffffffffffffffffffffffffffffffffffffffffffffe0936105908786601f8401160185610ab7565b808452366024828401011161062d578060248893018386013783010152848652600184526006838720016105c48154610b3f565b90558251938085528151918282870152875b83811061061a57505050928291601f858884967feade2a6b26a0be2b6e048be61a4c37d3aab166ea418e6af0350b7d906073bb9c988601015201168101030190a280f35b81810183015187820187015282016105d6565b8280fd5b8560416024927f4e487b7100000000000000000000000000000000000000000000000000000000835252fd5b8580fd5b8385843461013557602060031936011261013557823581526001602052818120600281015460288102908082046028149015171561078f576003820154601e810290808204601e1490151715610763576006830154926107d0938481029481860414901517156107375760050154936103e89485810295818704149015171561070b57602086610704876106ff886106ff896064808b049104610b9b565b610b9b565b9051908152f35b806011887f4e487b71000000000000000000000000000000000000000000000000000000006024945252fd5b6024856011897f4e487b7100000000000000000000000000000000000000000000000000000000835252fd5b6024846011887f4e487b7100000000000000000000000000000000000000000000000000000000835252fd5b6024836011877f4e487b7100000000000000000000000000000000000000000000000000000000835252fd5b838584346101355760206003193601126101355780829160c083516107df81610a9b565b82815282602082015282858201528260608201528260808201528260a082015201528335815260016020522081519161081783610a9b565b81549384845260018301549160208501928352600284015481860190815260038501549260608701938452850154936080870194855260c0600660058801549760a08a0198895201549701968752825197885251602088015251908601525160608501525160808401525160a08301525160c0820152f35b84848434610135576020600319360112610135578290823581526001602052208054926001820154926002830154600384015491840154926006600586015495015495815197885260208801528601526060850152608084015260a083015260c0820152f35b849391503461062d57602060031936011261062d5783519261091684610a4f565b80845280602085015280858501528060608501528060808501528060a08501528060c085015280828501528461010091808387015280610120809701528435815280602052209285519261096984610a4f565b84549182855260018601549760208601988952600287015491818701928352600388015490606088019182528801546080880190815260058901549160a0890192835260068a01549360c08a0194855260078b015495878b0196875260088c0154988a8c01998a528d73ffffffffffffffffffffffffffffffffffffffff6009819f0154169c019b8c5282519e8f91825251906020015251908d01525160608c01525160808b01525160a08a01525160c08901525190870152519085015251169082015261014090f35b8390346101315781600319360112610131576020906003548152f35b610140810190811067ffffffffffffffff821117610a6c57604052565b7f4e487b7100000000000000000000000000000000000000000000000000000000600052604160045260246000fd5b60e0810190811067ffffffffffffffff821117610a6c57604052565b90601f7fffffffffffffffffffffffffffffffffffffffffffffffffffffffffffffffe0910116810190811067ffffffffffffffff821117610a6c57604052565b8054821015610b105760005260206000200190600090565b7f4e487b7100000000000000000000000000000000000000000000000000000000600052603260045260246000fd5b7fffffffffffffffffffffffffffffffffffffffffffffffffffffffffffffffff8114610b6c5760010190565b7f4e487b7100000000000000000000000000000000000000000000000000000000600052601160045260246000fd5b91908201809211610b6c5756fea264697066735822122026649fb0dd5615c57f163c0ed5c39c72274725482f571d1fc446ea52ed14f25664736f6c63430008140033",
  "linkReferences": {},
  "deployedLinkReferences": {}
}