{
  "_format": "hh-sol-artifact-1",
  "contractName": "DisputeResolution",
  "sourceName": "contracts/layer7/insurance/DisputeResolution.sol",
  "abi": [
    {
      "inputs": [
        {
          "internalType": "address",
          "name": "_treasury",
          "type": "address"
        }
      ],
      "stateMutability": "nonpayable",
      "type": "constructor"
    },
    {
      "inputs": [],
      "name": "AccessControlBadConfirmation",
      "type": "error"
    },
    {
      "inputs": [
        {
          "internalType": "address",
          "name": "account",
          "type": "address"
        },
        {
          "internalType": "bytes32",
          "name": "neededRole",
          "type": "bytes32"
        }
      ],
      "name": "AccessControlUnauthorizedAccount",
      "type": "error"
    },
    {
      "inputs": [],
      "name": "ReentrancyGuardReentrantCall",
      "type": "error"
    },
    {
      "anonymous": false,
      "inputs": [
        {
          "indexed": true,
          "internalType": "uint256",
          "name": "disputeId",
          "type": "uint256"
        },
        {
          "indexed": true,
          "internalType": "address",
          "name": "appellant",
          "type": "address"
        }
      ],
      "name": "DisputeAppealed",
      "type": "event"
    },
    {
      "anonymous": false,
      "inputs": [
        {
          "indexed": true,
          "internalType": "uint256",
          "name": "disputeId",
          "type": "uint256"
        }
      ],
      "name": "DisputeClosed",
      "type": "event"
    },
    {
      "anonymous": false,
      "inputs": [
        {
          "indexed": true,
          "internalType": "uint256",
          "name": "disputeId",
          "type": "uint256"
        },
        {
          "indexed": true,
          "internalType": "address",
          "name": "plaintiff",
          "type": "address"
        },
        {
          "indexed": true,
          "internalType": "address",
          "name": "defendant",
          "type": "address"
        },
        {
          "indexed": false,
          "internalType": "enum DisputeResolution.DisputeType",
          "name": "disputeType",
          "type": "uint8"
        }
      ],
      "name": "DisputeFiled",
      "type": "event"
    },
    {
      "anonymous": false,
      "inputs": [
        {
          "indexed": true,
          "internalType": "uint256",
          "name": "disputeId",
          "type": "uint256"
        },
        {
          "indexed": false,
          "internalType": "enum DisputeResolution.Resolution",
          "name": "resolution",
          "type": "uint8"
        }
      ],
      "name": "DisputeResolved",
      "type": "event"
    },
    {
      "anonymous": false,
      "inputs": [
        {
          "indexed": true,
          "internalType": "uint256",
          "name": "disputeId",
          "type": "uint256"
        },
        {
          "indexed": true,
          "internalType": "address",
          "name": "defendant",
          "type": "address"
        }
      ],
      "name": "DisputeResponded",
      "type": "event"
    },
    {
      "anonymous": false,
      "inputs": [
        {
          "indexed": true,
          "internalType": "uint256",
          "name": "disputeId",
          "type": "uint256"
        },
        {
          "indexed": true,
          "internalType": "address",
          "name": "submitter",
          "type": "address"
        },
        {
          "indexed": false,
          "internalType": "bytes32",
          "name": "contentHash",
          "type": "bytes32"
        }
      ],
      "name": "EvidenceSubmitted",
      "type": "event"
    },
    {
      "anonymous": false,
      "inputs": [
        {
          "indexed": true,
          "internalType": "uint256",
          "name": "disputeId",
          "type": "uint256"
        },
        {
          "indexed": true,
          "internalType": "address",
          "name": "juror",
          "type": "address"
        },
        {
          "indexed": false,
          "internalType": "enum DisputeResolution.Resolution",
          "name": "vote",
          "type": "uint8"
        }
      ],
      "name": "JurorVoted",
      "type": "event"
    },
    {
      "anonymous": false,
      "inputs": [
        {
          "indexed": true,
          "internalType": "bytes32",
          "name": "role",
          "type": "bytes32"
        },
        {
          "indexed": true,
          "internalType": "bytes32",
          "name": "previousAdminRole",
          "type": "bytes32"
        },
        {
          "indexed": true,
          "internalType": "bytes32",
          "name": "newAdminRole",
          "type": "bytes32"
        }
      ],
      "name": "RoleAdminChanged",
      "type": "event"
    },
    {
      "anonymous": false,
      "inputs": [
        {
          "indexed": true,
          "internalType": "bytes32",
          "name": "role",
          "type": "bytes32"
        },
        {
          "indexed": true,
          "internalType": "address",
          "name": "account",
          "type": "address"
        },
        {
          "indexed": true,
          "internalType": "address",
          "name": "sender",
          "type": "address"
        }
      ],
      "name": "RoleGranted",
      "type": "event"
    },
    {
      "anonymous": false,
      "inputs": [
        {
          "indexed": true,
          "internalType": "bytes32",
          "name": "role",
          "type": "bytes32"
        },
        {
          "indexed": true,
          "internalType": "address",
          "name": "account",
          "type": "address"
        },
        {
          "indexed": true,
          "internalType": "address",
          "name": "sender",
          "type": "address"
        }
      ],
      "name": "RoleRevoked",
      "type": "event"
    },
    {
      "inputs": [],
      "name": "ARBITRATOR_ROLE",
      "outputs": [
        {
          "internalType": "bytes32",
          "name": "",
          "type": "bytes32"
        }
      ],
      "stateMutability": "view",
      "type": "function"
    },
    {
      "inputs": [],
      "name": "DEFAULT_ADMIN_ROLE",
      "outputs": [
        {
          "internalType": "bytes32",
          "name": "",
          "type": "bytes32"
        }
      ],
      "stateMutability": "view",
      "type": "function"
    },
    {
      "inputs": [],
      "name": "JUROR_ROLE",
      "outputs": [
        {
          "internalType": "bytes32",
          "name": "",
          "type": "bytes32"
        }
      ],
      "stateMutability": "view",
      "type": "function"
    },
    {
      "inputs": [
        {
          "internalType": "uint256",
          "name": "disputeId",
          "type": "uint256"
        }
      ],
      "name": "appealDispute",
      "outputs": [],
      "stateMutability": "payable",
      "type": "function"
    },
    {
      "inputs": [],
      "name": "appealWindow",
      "outputs": [
        {
          "internalType": "uint256",
          "name": "",
          "type": "uint256"
        }
      ],
      "stateMutability": "view",
      "type": "function"
    },
    {
      "inputs": [
        {
          "internalType": "uint256",
          "name": "disputeId",
          "type": "uint256"
        },
        {
          "internalType": "enum DisputeResolution.Resolution",
          "name": "vote",
          "type": "uint8"
        }
      ],
      "name": "castJurorVote",
      "outputs": [],
      "stateMutability": "nonpayable",
      "type": "function"
    },
    {
      "inputs": [
        {
          "internalType": "address",
          "name": "",
          "type": "address"
        },
        {
          "internalType": "uint256",
          "name": "",
          "type": "uint256"
        }
      ],
      "name": "defendantDisputes",
      "outputs": [
        {
          "internalType": "uint256",
          "name": "",
          "type": "uint256"
        }
      ],
      "stateMutability": "view",
      "type": "function"
    },
    {
      "inputs": [
        {
          "internalType": "uint256",
          "name": "",
          "type": "uint256"
        }
      ],
      "name": "defendantResponded",
      "outputs": [
        {
          "internalType": "bool",
          "name": "",
          "type": "bool"
        }
      ],
      "stateMutability": "view",
      "type": "function"
    },
    {
      "inputs": [],
      "name": "disputeCounter",
      "outputs": [
        {
          "internalType": "uint256",
          "name": "",
          "type": "uint256"
        }
      ],
      "stateMutability": "view",
      "type": "function"
    },
    {
      "inputs": [
        {
          "internalType": "uint256",
          "name": "",
          "type": "uint256"
        },
        {
          "internalType": "uint256",
          "name": "",
          "type": "uint256"
        }
      ],
      "name": "disputeEvidence",
      "outputs": [
        {
          "internalType": "uint256",
          "name": "disputeId",
          "type": "uint256"
        },
        {
          "internalType": "address",
          "name": "submitter",
          "type": "address"
        },
        {
          "internalType": "bytes32",
          "name": "contentHash",
          "type": "bytes32"
        },
        {
          "internalType": "uint256",
          "name": "submittedAt",
          "type": "uint256"
        },
        {
          "internalType": "bool",
          "name": "isPlaintiff",
          "type": "bool"
        }
      ],
      "stateMutability": "view",
      "type": "function"
    },
    {
      "inputs": [
        {
          "internalType": "uint256",
          "name": "",
          "type": "uint256"
        }
      ],
      "name": "disputes",
      "outputs": [
        {
          "internalType": "uint256",
          "name": "id",
          "type": "uint256"
        },
        {
          "internalType": "enum DisputeResolution.DisputeType",
          "name": "disputeType",
          "type": "uint8"
        },
        {
          "internalType": "address",
          "name": "plaintiff",
          "type": "address"
        },
        {
          "internalType": "address",
          "name": "defendant",
          "type": "address"
        },
        {
          "internalType": "uint256",
          "name": "stakeAmount",
          "type": "uint256"
        },
        {
          "internalType": "bytes32",
          "name": "evidenceHash",
          "type": "bytes32"
        },
        {
          "internalType": "string",
          "name": "description",
          "type": "string"
        },
        {
          "internalType": "enum DisputeResolution.DisputeStatus",
          "name": "status",
          "type": "uint8"
        },
        {
          "internalType": "enum DisputeResolution.Resolution",
          "name": "resolution",
          "type": "uint8"
        },
        {
          "internalType": "uint256",
          "name": "filedAt",
          "type": "uint256"
        },
        {
          "internalType": "uint256",
          "name": "responseDeadline",
          "type": "uint256"
        },
        {
          "internalType": "uint256",
          "name": "resolutionDeadline",
          "type": "uint256"
        },
        {
          "internalType": "uint256",
          "name": "plaintiffVotes",
          "type": "uint256"
        },
        {
          "internalType": "uint256",
          "name": "defendantVotes",
          "type": "uint256"
        },
        {
          "internalType": "bool",
          "name": "appealed",
          "type": "bool"
        }
      ],
      "stateMutability": "view",
      "type": "function"
    },
    {
      "inputs": [],
      "name": "evidenceCounter",
      "outputs": [
        {
          "internalType": "uint256",
          "name": "",
          "type": "uint256"
        }
      ],
      "stateMutability": "view",
      "type": "function"
    },
    {
      "inputs": [
        {
          "internalType": "address",
          "name": "defendant",
          "type": "address"
        },
        {
          "internalType": "enum DisputeResolution.DisputeType",
          "name": "disputeType",
          "type": "uint8"
        },
        {
          "internalType": "bytes32",
          "name": "evidenceHash",
          "type": "bytes32"
        },
        {
          "internalType": "string",
          "name": "description",
          "type": "string"
        }
      ],
      "name": "fileDispute",
      "outputs": [
        {
          "internalType": "uint256",
          "name": "disputeId",
          "type": "uint256"
        }
      ],
      "stateMutability": "payable",
      "type": "function"
    },
    {
      "inputs": [],
      "name": "filingFee",
      "outputs": [
        {
          "internalType": "uint256",
          "name": "",
          "type": "uint256"
        }
      ],
      "stateMutability": "view",
      "type": "function"
    },
    {
      "inputs": [
        {
          "internalType": "address",
          "name": "defendant",
          "type": "address"
        }
      ],
      "name": "getDefendantDisputes",
      "outputs": [
        {
          "internalType": "uint256[]",
          "name": "",
          "type": "uint256[]"
        }
      ],
      "stateMutability": "view",
      "type": "function"
    },
    {
      "inputs": [
        {
          "internalType": "uint256",
          "name": "disputeId",
          "type": "uint256"
        }
      ],
      "name": "getDisputeEvidence",
      "outputs": [
        {
          "components": [
            {
              "internalType": "uint256",
              "name": "disputeId",
              "type": "uint256"
            },
            {
              "internalType": "address",
              "name": "submitter",
              "type": "address"
            },
            {
              "internalType": "bytes32",
              "name": "contentHash",
              "type": "bytes32"
            },
            {
              "internalType": "uint256",
              "name": "submittedAt",
              "type": "uint256"
            },
            {
              "internalType": "bool",
              "name": "isPlaintiff",
              "type": "bool"
            }
          ],
          "internalType": "struct DisputeResolution.Evidence[]",
          "name": "",
          "type": "tuple[]"
        }
      ],
      "stateMutability": "view",
      "type": "function"
    },
    {
      "inputs": [
        {
          "internalType": "address",
          "name": "plaintiff",
          "type": "address"
        }
      ],
      "name": "getPlaintiffDisputes",
      "outputs": [
        {
          "internalType": "uint256[]",
          "name": "",
          "type": "uint256[]"
        }
      ],
      "stateMutability": "view",
      "type": "function"
    },
    {
      "inputs": [
        {
          "internalType": "bytes32",
          "name": "role",
          "type": "bytes32"
        }
      ],
      "name": "getRoleAdmin",
      "outputs": [
        {
          "internalType": "bytes32",
          "name": "",
          "type": "bytes32"
        }
      ],
      "stateMutability": "view",
      "type": "function"
    },
    {
      "inputs": [
        {
          "internalType": "bytes32",
          "name": "role",
          "type": "bytes32"
        },
        {
          "internalType": "address",
          "name": "account",
          "type": "address"
        }
      ],
      "name": "grantRole",
      "outputs": [],
      "stateMutability": "nonpayable",
      "type": "function"
    },
    {
      "inputs": [
        {
          "internalType": "bytes32",
          "name": "role",
          "type": "bytes32"
        },
        {
          "internalType": "address",
          "name": "account",
          "type": "address"
        }
      ],
      "name": "hasRole",
      "outputs": [
        {
          "internalType": "bool",
          "name": "",
          "type": "bool"
        }
      ],
      "stateMutability": "view",
      "type": "function"
    },
    {
      "inputs": [
        {
          "internalType": "uint256",
          "name": "",
          "type": "uint256"
        },
        {
          "internalType": "address",
          "name": "",
          "type": "address"
        }
      ],
      "name": "jurorVoted",
      "outputs": [
        {
          "internalType": "bool",
          "name": "",
          "type": "bool"
        }
      ],
      "stateMutability": "view",
      "type": "function"
    },
    {
      "inputs": [
        {
          "internalType": "uint256",
          "name": "",
          "type": "uint256"
        },
        {
          "internalType": "address",
          "name": "",
          "type": "address"
        }
      ],
      "name": "jurorVotes",
      "outputs": [
        {
          "internalType": "enum DisputeResolution.Resolution",
          "name": "",
          "type": "uint8"
        }
      ],
      "stateMutability": "view",
      "type": "function"
    },
    {
      "inputs": [],
      "name": "minJurors",
      "outputs": [
        {
          "internalType": "uint256",
          "name": "",
          "type": "uint256"
        }
      ],
      "stateMutability": "view",
      "type": "function"
    },
    {
      "inputs": [
        {
          "internalType": "address",
          "name": "",
          "type": "address"
        },
        {
          "internalType": "uint256",
          "name": "",
          "type": "uint256"
        }
      ],
      "name": "plaintiffDisputes",
      "outputs": [
        {
          "internalType": "uint256",
          "name": "",
          "type": "uint256"
        }
      ],
      "stateMutability": "view",
      "type": "function"
    },
    {
      "inputs": [
        {
          "internalType": "bytes32",
          "name": "role",
          "type": "bytes32"
        },
        {
          "internalType": "address",
          "name": "callerConfirmation",
          "type": "address"
        }
      ],
      "name": "renounceRole",
      "outputs": [],
      "stateMutability": "nonpayable",
      "type": "function"
    },
    {
      "inputs": [],
      "name": "resolutionWindow",
      "outputs": [
        {
          "internalType": "uint256",
          "name": "",
          "type": "uint256"
        }
      ],
      "stateMutability": "view",
      "type": "function"
    },
    {
      "inputs": [
        {
          "internalType": "uint256",
          "name": "disputeId",
          "type": "uint256"
        },
        {
          "internalType": "enum DisputeResolution.Resolution",
          "name": "resolution",
          "type": "uint8"
        }
      ],
      "name": "resolveDispute",
      "outputs": [],
      "stateMutability": "nonpayable",
      "type": "function"
    },
    {
      "inputs": [
        {
          "internalType": "uint256",
          "name": "disputeId",
          "type": "uint256"
        },
        {
          "internalType": "bytes32",
          "name": "responseHash",
          "type": "bytes32"
        }
      ],
      "name": "respondToDispute",
      "outputs": [],
      "stateMutability": "payable",
      "type": "function"
    },
    {
      "inputs": [],
      "name": "responseWindow",
      "outputs": [
        {
          "internalType": "uint256",
          "name": "",
          "type": "uint256"
        }
      ],
      "stateMutability": "view",
      "type": "function"
    },
    {
      "inputs": [
        {
          "internalType": "bytes32",
          "name": "role",
          "type": "bytes32"
        },
        {
          "internalType": "address",
          "name": "account",
          "type": "address"
        }
      ],
      "name": "revokeRole",
      "outputs": [],
      "stateMutability": "nonpayable",
      "type": "function"
    },
    {
      "inputs": [
        {
          "internalType": "uint256",
          "name": "newFee",
          "type": "uint256"
        }
      ],
      "name": "setFilingFee",
      "outputs": [],
      "stateMutability": "nonpayable",
      "type": "function"
    },
    {
      "inputs": [
        {
          "internalType": "uint256",
          "name": "disputeId",
          "type": "uint256"
        },
        {
          "internalType": "bytes32",
          "name": "contentHash",
          "type": "bytes32"
        }
      ],
      "name": "submitEvidence",
      "outputs": [],
      "stateMutability": "nonpayable",
      "type": "function"
    },
    {
      "inputs": [
        {
          "internalType": "bytes4",
          "name": "interfaceId",
          "type": "bytes4"
        }
      ],
      "name": "supportsInterface",
      "outputs": [
        {
          "internalType": "bool",
          "name": "",
          "type": "bool"
        }
      ],
      "stateMutability": "view",
      "type": "function"
    },
    {
      "inputs": [],
      "name": "treasury",
      "outputs": [
        {
          "internalType": "address",
          "name": "",
          "type": "address"
        }
      ],
      "stateMutability": "view",
      "type": "function"
    }
  ],
  "bytecode": "0x6080346200010657601f6200295838819003918201601f19168301916001600160401b038311848410176200010b578084926020946040528339810103126200010657516001600160a01b03811690819003620001065760018055662386f26fc100006004556203f48060055562093a806006556202a30060075560036008558015620000ce57600980546001600160a01b031916919091179055620000a53362000121565b50620000b133620001a1565b50620000bd3362000243565b506040516126579081620002e18239f35b60405162461bcd60e51b815260206004820152601060248201526f496e76616c696420747265617375727960801b6044820152606490fd5b600080fd5b634e487b7160e01b600052604160045260246000fd5b6001600160a01b031660008181527fad3228b676f7d3cd4284a5443f17f1962b36e491b30a40b2405849e597ba5fb5602052604081205490919060ff166200019d57818052816020526040822081835260205260408220600160ff198254161790553391600080516020620029388339815191528180a4600190565b5090565b6001600160a01b031660008181527f124a13b16867194fc8fe1b97be0d668b89ac2a8dd77d418cf4feefa89864a62660205260408120549091907f16ceee8289685dd2a02b9c8ae81d2df373176ce53519e6284e2a2950d6546ffa9060ff166200023e57808352826020526040832082845260205260408320600160ff1982541617905560008051602062002938833981519152339380a4600190565b505090565b6001600160a01b031660008181527f223e1ce70e47b991605772e29ac08af10f8c2517b3de2a66002768175f224ac760205260408120549091907f2ea44624af573c71d23003c0751808a79f405c6b5fddb794897688d59c07918b9060ff166200023e57808352826020526040832082845260205260408320600160ff1982541617905560008051602062002938833981519152339380a460019056fe608080604052600436101561001357600080fd5b60003560e01c90816301ffc9a71461210e575080630aa76d2a14611e99578063248a9ca314611e6a5780632639e20314611b8f5780632d5db63014611b055780632e22a06a14611a805780632f2ff15d14611a4157806336568abe146119d55780633a0ea704146119b75780633fd2938a1461199957806341db606c1461195e5780634d82c60114611729578063564a565d1461150357806360333a3e146114ae57806361d027b31461147a5780636561a679146113e557806366fc1ff2146113855780636abcd85d1461124557806373169cf814611227578063738578c61461120957806373cc5622146111d85780637d36f4d3146111ba578063912da4db14610f9a57806391d1485414610f3f57806399f0eed514610eb85780639cea078714610e7d578063a217fddf14610e61578063b87c111414610e43578063bc2f11c6146107ae578063d2aad9c41461074b578063d547741f1461070a578063e29223a8146106af578063e55e4211146101b85763eddada1c1461019557600080fd5b346101b35760006003193601126101b3576020600554604051908152f35b600080fd5b346101b3576101c6366121ac565b3360009081527f124a13b16867194fc8fe1b97be0d668b89ac2a8dd77d418cf4feefa89864a62660209081526040909120549192917f16ceee8289685dd2a02b9c8ae81d2df373176ce53519e6284e2a2950d6546ffa9060ff1615610678575061022e61258e565b81600052600a815260066040600020019060ff82541661024d8161235d565b60068114610634578061026160049261235d565b146105f05760058410156105c157831561057d5761027f84836124fb565b60ff199160048382541617905582600052600a815260406000209360038501928354956102b0600a88048098612614565b73ffffffffffffffffffffffffffffffffffffffff9060008080808c8660095416828215610574575bf11561037257600198858a03610387575060008080939281938c87015460081c1682821561037e575bf115610372576006809160007f2ffcfee146bc0d5ff304c6b65111a0d485af9456dc64eee7d66ebdcc90b223ea975b55019182541617905561036d6040518092867fec7096e1100e630f5d123eba317a75ef56a962fc7e1f0a1b24e3400e5626be5a600080a2612367565ba28055005b6040513d6000823e3d90fd5b506108fc610302565b600286036103e2575060008080939281936002870154168282156103d9575bf115610372576006809160007f2ffcfee146bc0d5ff304c6b65111a0d485af9456dc64eee7d66ebdcc90b223ea97610331565b506108fc6103a6565b600386036104625750818984015460081c1690891c90600080808085819581159687610459575bf11561037257600080939281939282936002880154169083906103d957f115610372576006809160007f2ffcfee146bc0d5ff304c6b65111a0d485af9456dc64eee7d66ebdcc90b223ea97610331565b506108fc610409565b9091818a1c91818b86015460081c169361047c82826124ee565b947ffffffffffffffffffffffffffffffffffffffffffffffffffffffffffffffffe83169585870460021486151715610545576000808f936104cc8983966104c58d8698612614565b901c6124ee565b9082821561053c575bf11561037257610501600095948d6104c588976104fc899897899860028e015416976124ee565b612614565b908282156103d957f115610372576006809160007f2ffcfee146bc0d5ff304c6b65111a0d485af9456dc64eee7d66ebdcc90b223ea97610331565b506108fc6104d5565b7f4e487b7100000000000000000000000000000000000000000000000000000000600052601160045260246000fd5b506108fc6102d9565b6064906040519062461bcd60e51b82526004820152601260248201527f496e76616c6964207265736f6c7574696f6e00000000000000000000000000006044820152fd5b7f4e487b7100000000000000000000000000000000000000000000000000000000600052602160045260246000fd5b6064906040519062461bcd60e51b82526004820152601060248201527f416c7265616479207265736f6c766564000000000000000000000000000000006044820152fd5b6064826040519062461bcd60e51b82526004820152600e60248201527f416c726561647920636c6f7365640000000000000000000000000000000000006044820152fd5b604490604051907fe2517d3f0000000000000000000000000000000000000000000000000000000082523360048301526024820152fd5b346101b35760406003193601126101b3576106c861224f565b600435600052600c60205273ffffffffffffffffffffffffffffffffffffffff60406000209116600052602052602060ff604060002054166040519015158152f35b346101b35760406003193601126101b35761074960043561072961224f565b9080600052600060205261074460016040600020015461238c565b61243e565b005b346101b35760406003193601126101b35761076461222c565b73ffffffffffffffffffffffffffffffffffffffff6024359116600052600e602052604060002080548210156101b3576020916107a091612374565b90546040519160031b1c8152f35b60806003193601126101b3576107c261222c565b600760243510156101b35767ffffffffffffffff606435116101b3573660236064350112156101b35767ffffffffffffffff60643560040135116101b357366024606435600401356064350101116101b35761081c61258e565b6004543410610dff573373ffffffffffffffffffffffffffffffffffffffff821614610dbb5773ffffffffffffffffffffffffffffffffffffffff811615610d77576108696002546124c1565b806002556005549161089161088861088185426124ee565b94426124ee565b600654906124ee565b604051936101e0850185811067ffffffffffffffff821117610d48576040528385526108be60243561235d565b602435602086015233604086015273ffffffffffffffffffffffffffffffffffffffff8316606086015234608086015260443560a086015260405161093160207fffffffffffffffffffffffffffffffffffffffffffffffffffffffffffffffe0601f606435600401350116018261231c565b606435600481013580835290602401602083013760006020606435600401358301015260c0860152600060e0860152600061010086015242610120860152610140850152610160840152600061018084015260006101a084015260006101c084015281600052600a602052604060002092805184556001840160208201516109b88161235d565b6109c18161235d565b81547fffffffffffffffffffffff00000000000000000000000000000000000000000060ff74ffffffffffffffffffffffffffffffffffffffff00604087015160081b1693169116171790556002840173ffffffffffffffffffffffffffffffffffffffff6060830151167fffffffffffffffffffffffff00000000000000000000000000000000000000008254161790556080810151600385015560a0810151600485015560c081015180519067ffffffffffffffff8211610d48578190610a8d60058801546122ad565b601f8111610cf5575b50602090601f8311600114610c2957600092610c1e575b50507fffffffffffffffffffffffffffffffffffffffffffffffffffffffffffffffff8260011b9260031b1c19161760058501555b600684019360e0820151610af58161235d565b610afe8161235d565b60ff60ff1987541691161785556101008201519460058610156105c1576101c0610b7f93610b30602098600c946124fb565b610120810151600785015561014081015160088501556101608101516009850155610180810151600a8501556101a0810151600b8501550151151591019060ff60ff1983541691151516179055565b33600052600e8352610b95826040600020612537565b73ffffffffffffffffffffffffffffffffffffffff8116600052600f8352610bc1826040600020612537565b73ffffffffffffffffffffffffffffffffffffffff60405191610be560243561235d565b60243583521690827fe580ebfe677ad2a5b18c20b8a7c8467f148bce8dba1d80d8b3cf7a813dd67162853393a460018055604051908152f35b015190508680610aad565b9250600587016000526020600020906000935b7fffffffffffffffffffffffffffffffffffffffffffffffffffffffffffffffe084168510610cda5760019450837fffffffffffffffffffffffffffffffffffffffffffffffffffffffffffffffe0811610610ca3575b505050811b016005850155610ae2565b01517fffffffffffffffffffffffffffffffffffffffffffffffffffffffffffffffff60f88460031b161c19169055868080610c93565b81810151835560209485019460019093019290910190610c3c565b909150600587016000526020600020601f840160051c810160208510610d41575b90849392915b601f830160051c82018110610d32575050610a96565b60008155859450600101610d1c565b5080610d16565b7f4e487b7100000000000000000000000000000000000000000000000000000000600052604160045260246000fd5b606460405162461bcd60e51b815260206004820152601160248201527f496e76616c696420646566656e64616e740000000000000000000000000000006044820152fd5b606460405162461bcd60e51b815260206004820152601760248201527f43616e6e6f74206469737075746520796f757273656c660000000000000000006044820152fd5b606460405162461bcd60e51b815260206004820152601760248201527f496e73756666696369656e742066696c696e67206665650000000000000000006044820152fd5b346101b35760006003193601126101b3576020600354604051908152f35b346101b35760006003193601126101b357602060405160008152f35b346101b35760006003193601126101b35760206040517f16ceee8289685dd2a02b9c8ae81d2df373176ce53519e6284e2a2950d6546ffa8152f35b346101b35760206003193601126101b3573360009081527fad3228b676f7d3cd4284a5443f17f1962b36e491b30a40b2405849e597ba5fb5602052604090205460ff1615610f0857600480359055005b60446040517fe2517d3f00000000000000000000000000000000000000000000000000000000815233600482015260006024820152fd5b346101b35760406003193601126101b357610f5861224f565b600435600052600060205273ffffffffffffffffffffffffffffffffffffffff60406000209116600052602052602060ff604060002054166040519015158152f35b346101b357610fa8366121cb565b9080600052600a602052604060002073ffffffffffffffffffffffffffffffffffffffff9060ff600683600184015460081c163314928380156111ab575b610fef906125c9565b015416610ffb8161235d565b8015908115611196575b8115611182575b501561113e5761101d6003546124c1565b60035582600052600b6020526040600020906040519061103c82612300565b848252602082019233845260408301878152606084019142835260808501938452805468010000000000000000811015610d485761107f916001820181556121e1565b95909561110f576110e196600495518755600187019151167fffffffffffffffffffffffff000000000000000000000000000000000000000082541617905551600285015551600384015551151591019060ff60ff1983541691151516179055565b6040519182527f99b1761a6da5d48dd6760d41fd0356d50d2bb2bc00576680c277c6c43456e82560203393a3005b7f4e487b7100000000000000000000000000000000000000000000000000000000600052600060045260246000fd5b606460405162461bcd60e51b815260206004820152601a60248201527f43616e6e6f74207375626d69742065766964656e6365206e6f770000000000006044820152fd5b6002915061118f8161235d565b148561100c565b90506111a18161235d565b6001811490611005565b50600281015485163314610fe6565b346101b35760006003193601126101b3576020600254604051908152f35b346101b35760206003193601126101b3576004356000526010602052602060ff604060002054166040519015158152f35b346101b35760006003193601126101b3576020600854604051908152f35b346101b35760006003193601126101b3576020600454604051908152f35b346101b3576020806003193601126101b357600435600052600b8152604060002090815467ffffffffffffffff8111610d485760405190600561128c8483831b018461231c565b8183528383018095600052846000206000915b84831061132157604080518881528751818a018190528a928201908a60005b8281106112cb5784840385f35b8551805185528083015173ffffffffffffffffffffffffffffffffffffffff168584015260408082015190860152606080820151908601526080908101511515908501529481019460a0909301926001016112be565b838760019260405161133281612300565b8554815273ffffffffffffffffffffffffffffffffffffffff858701541683820152600286015460408201526003860154606082015260ff6004870154161515608082015281520192019201919061129f565b346101b35760406003193601126101b35761139e61224f565b600435600052600d60205273ffffffffffffffffffffffffffffffffffffffff60406000209116600052602052602060ff604060002054166113e36040518092612367565bf35b346101b3576020806003193601126101b35773ffffffffffffffffffffffffffffffffffffffff61141461222c565b16600052600e8152604060002090604051908181845491828152019360005281600020916000905b8282106114635761145f856114538189038261231c565b60405191829182612272565b0390f35b83548652948501946001938401939091019061143c565b346101b35760006003193601126101b357602073ffffffffffffffffffffffffffffffffffffffff60095416604051908152f35b346101b35760406003193601126101b3576114c761222c565b73ffffffffffffffffffffffffffffffffffffffff6024359116600052600f602052604060002080548210156101b3576020916107a091612374565b346101b35760206003193601126101b357600435600052600a602052604060002080546001918281015473ffffffffffffffffffffffffffffffffffffffff6002830154169160038101549260048201549360058301604051809860009083549361156d856122ad565b8085529482811690811561170457506001146116c3575b50506115929250038861231c565b6006830154946007840154600885015491600986015493600a8701549573ffffffffffffffffffffffffffffffffffffffff60ff600c600b8b01549a015416996040519c8d528c602060ff8316916115e98361235d565b015260081c1660408c015260608b015260808a015260a08901526101e0968760c08a0152895180988a015260005b8881106116ac57509387938997937fffffffffffffffffffffffffffffffffffffffffffffffffffffffffffffffe0979361167d601f9860008c6102009e8f9101015260ff81166116678161235d565b60e08d015260ff6101008d019160081c16612367565b6101208a01526101408901526101608801526101808701526101a086015215156101c085015201168101030190f35b80602080928d010151610200828d01015201611617565b6000908152602081209092505b8483106116ea575061159293505081016020018a80611584565b908181946020858195549201015201910190918a926116d0565b90506020935061159295925060ff1991501682840152151560051b8201018a80611584565b6020806003193601126101b35760043561174161258e565b80600052600a8252604060002061178073ffffffffffffffffffffffffffffffffffffffff80600184015460081c16331490811561194e575b506125c9565b600681018054600460ff82166117958161235d565b0361190a57600c830180549560ff87166118c6576117c96117c06108886007880154600554906124ee565b600754906124ee565b4211611882576004548060011b908082046002149015171561054557341061183e57509460059160039596600160ff19809416179055161790550161180f3482546124ee565b905533907fb7d987c7b3077187f28b5a254b9e07864507b257e6b84721cab6faaf346481f0600080a360018055005b6064906040519062461bcd60e51b82526004820152601760248201527f496e73756666696369656e742061707065616c206665650000000000000000006044820152fd5b6064906040519062461bcd60e51b82526004820152601460248201527f41707065616c2077696e646f7720636c6f7365640000000000000000000000006044820152fd5b6064906040519062461bcd60e51b82526004820152601060248201527f416c72656164792061707065616c6564000000000000000000000000000000006044820152fd5b6064856040519062461bcd60e51b82526004820152600c60248201527f4e6f74207265736f6c76656400000000000000000000000000000000000000006044820152fd5b905060028301541633148561177a565b346101b35760006003193601126101b35760206040517f2ea44624af573c71d23003c0751808a79f405c6b5fddb794897688d59c07918b8152f35b346101b35760006003193601126101b3576020600754604051908152f35b346101b35760006003193601126101b3576020600654604051908152f35b346101b35760406003193601126101b3576119ee61224f565b3373ffffffffffffffffffffffffffffffffffffffff821603611a17576107499060043561243e565b60046040517f6697b232000000000000000000000000000000000000000000000000000000008152fd5b346101b35760406003193601126101b357610749600435611a6061224f565b90806000526000602052611a7b60016040600020015461238c565b6123b2565b346101b3576020806003193601126101b35773ffffffffffffffffffffffffffffffffffffffff611aaf61222c565b16600052600f8152604060002090604051908181845491828152019360005281600020916000905b828210611aee5761145f856114538189038261231c565b835486529485019460019384019390910190611ad7565b346101b35760406003193601126101b357602435600435600052600b602052604060002080548210156101b35760a091611b3e916121e1565b5080549073ffffffffffffffffffffffffffffffffffffffff60018201541690600281015460ff60046003840154930154169260405194855260208501526040840152606083015215156080820152f35b611b98366121cb565b90611ba161258e565b80600052602091600a835260406000209273ffffffffffffffffffffffffffffffffffffffff90816002860154163303611e2657600685019485549060ff8216611bea8161235d565b611de25760088101544211611d9e576003018054803410611d5a57611c109034906124ee565b90556001958660ff19809316179055846000526010825285604060002091825416179055611c3f6003546124c1565b60035583600052600b815260406000209060405192611c5d84612300565b8584528184019233845260408501948686526060810191428352608082019060008252805468010000000000000000811015610d4857611ca1918c820181556121e1565b93909361110f5789977f99b1761a6da5d48dd6760d41fd0356d50d2bb2bc00576680c277c6c43456e82597611d26966004955187558d87019151167fffffffffffffffffffffffff000000000000000000000000000000000000000082541617905551600285015551600384015551151591019060ff60ff1983541691151516179055565b6040519384523393a333907fddc9a9a8008fa92c53e75134063e7760abc133f51dd547e60786c14b1a59c9d8600080a38055005b6064846040519062461bcd60e51b82526004820152601a60248201527f4d757374206d6174636820706c61696e74696666207374616b650000000000006044820152fd5b6064836040519062461bcd60e51b82526004820152601860248201527f526573706f6e736520646561646c696e652070617373656400000000000000006044820152fd5b6064836040519062461bcd60e51b82526004820152601260248201527f4e6f7420696e2066696c656420737461746500000000000000000000000000006044820152fd5b6064906040519062461bcd60e51b82526004820152600d60248201527f4e6f7420646566656e64616e74000000000000000000000000000000000000006044820152fd5b346101b35760206003193601126101b35760043560005260006020526020600160406000200154604051908152f35b346101b357611ea7366121ac565b3360009081527f223e1ce70e47b991605772e29ac08af10f8c2517b3de2a66002768175f224ac760209081526040909120549192917f2ea44624af573c71d23003c0751808a79f405c6b5fddb794897688d59c07918b9060ff1615610678575081600052600a81526040600020600681019060ff825416611f278161235d565b600281149081156120fa575b50156120b65783600052600c8352604060002033600052835260ff604060002054166120725760058510156105c157841561202e579060037f60877000c5cc7a2df5967542ab62dae7b4ad854046c1d36d221388d377f2e893939285600052600c8452604060002033600052845260406000209060ff199160018382541617905586600052600d8552604060002033600052855260406000208281541660ff8a161790556001881460001461200a57600a01611fef81546124c1565b90555b8254161790556120056040518095612367565b3393a3005b60028814612019575b50611ff2565b600b0161202681546124c1565b905587612013565b6064836040519062461bcd60e51b82526004820152600c60248201527f496e76616c696420766f746500000000000000000000000000000000000000006044820152fd5b6064836040519062461bcd60e51b82526004820152600d60248201527f416c726561647920766f746564000000000000000000000000000000000000006044820152fd5b6064836040519062461bcd60e51b82526004820152601360248201527f4e6f7420696e20766f74696e67207068617365000000000000000000000000006044820152fd5b600391506121078161235d565b1486611f33565b346101b35760206003193601126101b357600435907fffffffff0000000000000000000000000000000000000000000000000000000082168092036101b357817f7965db0b0000000000000000000000000000000000000000000000000000000060209314908115612182575b5015158152f35b7f01ffc9a7000000000000000000000000000000000000000000000000000000009150148361217b565b60031960409101126101b3576004359060243560058110156101b35790565b60031960409101126101b3576004359060243590565b80548210156121fd576000526005602060002091020190600090565b7f4e487b7100000000000000000000000000000000000000000000000000000000600052603260045260246000fd5b6004359073ffffffffffffffffffffffffffffffffffffffff821682036101b357565b6024359073ffffffffffffffffffffffffffffffffffffffff821682036101b357565b6020908160408183019282815285518094520193019160005b828110612299575050505090565b83518552938101939281019260010161228b565b90600182811c921680156122f6575b60208310146122c757565b7f4e487b7100000000000000000000000000000000000000000000000000000000600052602260045260246000fd5b91607f16916122bc565b60a0810190811067ffffffffffffffff821117610d4857604052565b90601f7fffffffffffffffffffffffffffffffffffffffffffffffffffffffffffffffe0910116810190811067ffffffffffffffff821117610d4857604052565b600711156105c157565b9060058210156105c15752565b80548210156121fd5760005260206000200190600090565b80600052600060205260406000203360005260205260ff60406000205416156106785750565b906000918083528260205273ffffffffffffffffffffffffffffffffffffffff6040842092169182845260205260ff6040842054161560001461243957808352826020526040832082845260205260408320600160ff198254161790557f2f8788117e7eff1d82e926ec794901d17c78024a50270940304540a733656f0d339380a4600190565b505090565b906000918083528260205273ffffffffffffffffffffffffffffffffffffffff6040842092169182845260205260ff6040842054166000146124395780835282602052604083208284526020526040832060ff1981541690557ff6391f5c32d9c69d2a47ea670b442974b53935d1edc7fd64eb21e047a839171b339380a4600190565b7fffffffffffffffffffffffffffffffffffffffffffffffffffffffffffffffff81146105455760010190565b9190820180921161054557565b9060058110156105c1577fffffffffffffffffffffffffffffffffffffffffffffffffffffffffffff00ff61ff0083549260081b169116179055565b805468010000000000000000811015610d485761255991600182018155612374565b7fffffffffffffffffffffffffffffffffffffffffffffffffffffffffffffffff829392549160031b92831b921b1916179055565b60026001541461259f576002600155565b60046040517f3ee5aeb5000000000000000000000000000000000000000000000000000000008152fd5b156125d057565b606460405162461bcd60e51b815260206004820152601460248201527f4e6f7420706172747920746f20646973707574650000000000000000000000006044820152fd5b919082039182116105455756fea2646970667358221220078a7affd4f2cf18656fa54e6efc604d24049c7d07c8cab30e0f721560769a4f64736f6c634300081400332f8788117e7eff1d82e926ec794901d17c78024a50270940304540a733656f0d",
  "linkReferences": {},
  "deployedLinkReferences": {}
}