{
  "_format": "hh-sol-artifact-1",
  "contractName": "InsuranceProtocol",
  "sourceName": "contracts/layer3/risk/InsuranceProtocol.sol",
  "abi": [
    {
      "inputs": [],
      "stateMutability": "nonpayable",
      "type": "constructor"
    },
    {
      "inputs": [
        {
          "internalType": "address",
          "name": "owner",
          "type": "address"
        }
      ],
      "name": "OwnableInvalidOwner",
      "type": "error"
    },
    {
      "inputs": [
        {
          "internalType": "address",
          "name": "account",
          "type": "address"
        }
      ],
      "name": "OwnableUnauthorizedAccount",
      "type": "error"
    },
    {
      "inputs": [],
      "name": "ReentrancyGuardReentrantCall",
      "type": "error"
    },
    {
      "anonymous": false,
      "inputs": [
        {
          "indexed": true,
          "internalType": "uint256",
          "name": "policyId",
          "type": "uint256"
        },
        {
          "indexed": true,
          "internalType": "address",
          "name": "holder",
          "type": "address"
        }
      ],
      "name": "ClaimFiled",
      "type": "event"
    },
    {
      "anonymous": false,
      "inputs": [
        {
          "indexed": true,
          "internalType": "uint256",
          "name": "policyId",
          "type": "uint256"
        },
        {
          "indexed": false,
          "internalType": "uint256",
          "name": "amount",
          "type": "uint256"
        }
      ],
      "name": "ClaimPaid",
      "type": "event"
    },
    {
      "anonymous": false,
      "inputs": [
        {
          "indexed": true,
          "internalType": "address",
          "name": "previousOwner",
          "type": "address"
        },
        {
          "indexed": true,
          "internalType": "address",
          "name": "newOwner",
          "type": "address"
        }
      ],
      "name": "OwnershipTransferred",
      "type": "event"
    },
    {
      "anonymous": false,
      "inputs": [
        {
          "indexed": true,
          "internalType": "uint256",
          "name": "policyId",
          "type": "uint256"
        },
        {
          "indexed": true,
          "internalType": "address",
          "name": "holder",
          "type": "address"
        },
        {
          "indexed": false,
          "internalType": "uint256",
          "name": "coverage",
          "type": "uint256"
        },
        {
          "indexed": false,
          "internalType": "uint256",
          "name": "premium",
          "type": "uint256"
        }
      ],
      "name": "PolicyCreated",
      "type": "event"
    },
    {
      "anonymous": false,
      "inputs": [
        {
          "indexed": true,
          "internalType": "uint256",
          "name": "policyId",
          "type": "uint256"
        },
        {
          "indexed": false,
          "internalType": "uint256",
          "name": "amount",
          "type": "uint256"
        }
      ],
      "name": "PremiumPaid",
      "type": "event"
    },
    {
      "inputs": [
        {
          "internalType": "uint256",
          "name": "coverage",
          "type": "uint256"
        },
        {
          "internalType": "uint256",
          "name": "duration",
          "type": "uint256"
        }
      ],
      "name": "calculatePremium",
      "outputs": [
        {
          "internalType": "uint256",
          "name": "",
          "type": "uint256"
        }
      ],
      "stateMutability": "pure",
      "type": "function"
    },
    {
      "inputs": [
        {
          "internalType": "enum InsuranceProtocol.InsuranceType",
          "name": "policyType",
          "type": "uint8"
        },
        {
          "internalType": "uint256",
          "name": "insuredId",
          "type": "uint256"
        },
        {
          "internalType": "uint256",
          "name": "coverage",
          "type": "uint256"
        },
        {
          "internalType": "uint256",
          "name": "duration",
          "type": "uint256"
        }
      ],
      "name": "createPolicy",
      "outputs": [
        {
          "internalType": "uint256",
          "name": "",
          "type": "uint256"
        }
      ],
      "stateMutability": "payable",
      "type": "function"
    },
    {
      "inputs": [
        {
          "internalType": "uint256",
          "name": "policyId",
          "type": "uint256"
        }
      ],
      "name": "fileClaim",
      "outputs": [],
      "stateMutability": "nonpayable",
      "type": "function"
    },
    {
      "inputs": [
        {
          "internalType": "uint256",
          "name": "policyId",
          "type": "uint256"
        }
      ],
      "name": "getPolicy",
      "outputs": [
        {
          "components": [
            {
              "internalType": "uint256",
              "name": "id",
              "type": "uint256"
            },
            {
              "internalType": "enum InsuranceProtocol.InsuranceType",
              "name": "policyType",
              "type": "uint8"
            },
            {
              "internalType": "uint256",
              "name": "insuredId",
              "type": "uint256"
            },
            {
              "internalType": "address",
              "name": "holder",
              "type": "address"
            },
            {
              "internalType": "uint256",
              "name": "coverage",
              "type": "uint256"
            },
            {
              "internalType": "uint256",
              "name": "premium",
              "type": "uint256"
            },
            {
              "internalType": "uint256",
              "name": "duration",
              "type": "uint256"
            },
            {
              "internalType": "uint256",
              "name": "startTime",
              "type": "uint256"
            },
            {
              "internalType": "bool",
              "name": "isActive",
              "type": "bool"
            },
            {
              "internalType": "bool",
              "name": "claimed",
              "type": "bool"
            }
          ],
          "internalType": "struct InsuranceProtocol.Policy",
          "name": "",
          "type": "tuple"
        }
      ],
      "stateMutability": "view",
      "type": "function"
    },
    {
      "inputs": [],
      "name": "owner",
      "outputs": [
        {
          "internalType": "address",
          "name": "",
          "type": "address"
        }
      ],
      "stateMutability": "view",
      "type": "function"
    },
    {
      "inputs": [
        {
          "internalType": "uint256",
          "name": "",
          "type": "uint256"
        }
      ],
      "name": "policies",
      "outputs": [
        {
          "internalType": "uint256",
          "name": "id",
          "type": "uint256"
        },
        {
          "internalType": "enum InsuranceProtocol.InsuranceType",
          "name": "policyType",
          "type": "uint8"
        },
        {
          "internalType": "uint256",
          "name": "insuredId",
          "type": "uint256"
        },
        {
          "internalType": "address",
          "name": "holder",
          "type": "address"
        },
        {
          "internalType": "uint256",
          "name": "coverage",
          "type": "uint256"
        },
        {
          "internalType": "uint256",
          "name": "premium",
          "type": "uint256"
        },
        {
          "internalType": "uint256",
          "name": "duration",
          "type": "uint256"
        },
        {
          "internalType": "uint256",
          "name": "startTime",
          "type": "uint256"
        },
        {
          "internalType": "bool",
          "name": "isActive",
          "type": "bool"
        },
        {
          "internalType": "bool",
          "name": "claimed",
          "type": "bool"
        }
      ],
      "stateMutability": "view",
      "type": "function"
    },
    {
      "inputs": [],
      "name": "policyCount",
      "outputs": [
        {
          "internalType": "uint256",
          "name": "",
          "type": "uint256"
        }
      ],
      "stateMutability": "view",
      "type": "function"
    },
    {
      "inputs": [
        {
          "internalType": "uint256",
          "name": "policyId",
          "type": "uint256"
        },
        {
          "internalType": "bool",
          "name": "approved",
          "type": "bool"
        }
      ],
      "name": "processClaim",
      "outputs": [],
      "stateMutability": "nonpayable",
      "type": "function"
    },
    {
      "inputs": [],
      "name": "renounceOwnership",
      "outputs": [],
      "stateMutability": "nonpayable",
      "type": "function"
    },
    {
      "inputs": [],
      "name": "totalClaims",
      "outputs": [
        {
          "internalType": "uint256",
          "name": "",
          "type": "uint256"
        }
      ],
      "stateMutability": "view",
      "type": "function"
    },
    {
      "inputs": [],
      "name": "totalPremiums",
      "outputs": [
        {
          "internalType": "uint256",
          "name": "",
          "type": "uint256"
        }
      ],
      "stateMutability": "view",
      "type": "function"
    },
    {
      "inputs": [
        {
          "internalType": "address",
          "name": "newOwner",
          "type": "address"
        }
      ],
      "name": "transferOwnership",
      "outputs": [],
      "stateMutability": "nonpayable",
      "type": "function"
    }
  ],
  "bytecode": "0x608060405234801561001057600080fd5b50338061003757604051631e4fbdf760e01b81526000600482015260240160405180910390fd5b6100408161004a565b506001805561009a565b600080546001600160a01b038381166001600160a01b0319831681178455604051919092169283917f8be0079c531659141344cd1fd0a4f28419497f9722a3daafe3b4186f6b6457e09190a35050565b610b53806100a96000396000f3fe6080604052600436106100a65760003560e01c80638da5cb5b116100645780638da5cb5b1461016e578063976a398914610196578063d3e89483146101a9578063d61909f91461023f578063de54d4291461025f578063f2fde38b1461027557600080fd5b806212100c146100ab5780632b07fce3146100de57806335446def1461010b57806341c613831461012d5780635bda158414610143578063715018a614610159575b600080fd5b3480156100b757600080fd5b506100cb6100c6366004610898565b610295565b6040519081526020015b60405180910390f35b3480156100ea57600080fd5b506100fe6100f93660046108ba565b6102c5565b6040516100d5919061090b565b34801561011757600080fd5b5061012b61012636600461099c565b6103e4565b005b34801561013957600080fd5b506100cb60055481565b34801561014f57600080fd5b506100cb60045481565b34801561016557600080fd5b5061012b6104dd565b34801561017a57600080fd5b506000546040516001600160a01b0390911681526020016100d5565b6100cb6101a43660046109d1565b6104f1565b3480156101b557600080fd5b506102296101c43660046108ba565b6002602081905260009182526040909120805460018201549282015460038301546004840154600585015460068601546007870154600890970154959760ff9081169795966001600160a01b039095169593949293919280821691610100909104168a565b6040516100d59a99989796959493929190610a10565b34801561024b57600080fd5b5061012b61025a3660046108ba565b610700565b34801561026b57600080fd5b506100cb60035481565b34801561028157600080fd5b5061012b610290366004610a72565b6107ae565b6000600a6301e133806102a88486610ab8565b6102b29190610acf565b6102bc9190610acf565b90505b92915050565b6103296040805161014081019091526000808252602082019081526020016000815260200160006001600160a01b03168152602001600081526020016000815260200160008152602001600081526020016000151581526020016000151581525090565b60008281526002602090815260409182902082516101408101909352805483526001810154909183019060ff166003811115610367576103676108d3565b6003811115610378576103786108d3565b81526002820154602082015260038201546001600160a01b031660408201526004820154606082015260058201546080820152600682015460a0820152600782015460c082015260089091015460ff808216151560e08401526101009182900416151591015292915050565b6103ec6107f1565b6103f461081e565b60008281526002602052604090206008810154610100900460ff16801561041f5750600881015460ff165b61042857600080fd5b81156104c557600381015460048201546040516001600160a01b039092169181156108fc0291906000818181858888f1935050505015801561046e573d6000803e3d6000fd5b508060040154600560008282546104859190610af1565b9091555050600481015460405190815283907fb0727183796e52c5bb00a257c1eb36d8e94dbee5d6d87e259287e3372ae39ace9060200160405180910390a25b600801805460ff191690556104d960018055565b5050565b6104e56107f1565b6104ef6000610848565b565b6000806104fe8484610295565b90508034101561050d57600080fd5b6003805490600061051d83610b04565b91905055506040518061014001604052806003548152602001876003811115610548576105486108d3565b8152602001868152602001336001600160a01b03168152602001858152602001828152602001848152602001428152602001600115158152602001600015158152506002600060035481526020019081526020016000206000820151816000015560208201518160010160006101000a81548160ff021916908360038111156105d3576105d36108d3565b02179055506040820151600282015560608201516003820180546001600160a01b0319166001600160a01b03909216919091179055608082015160048083019190915560a0830151600583015560c0830151600683015560e0830151600783015561010080840151600890930180546101209095015161ffff1990951693151561ff00191693909317931515029290921790558054829190600090610679908490610af1565b909155505060035460408051868152602081018490523392917ff407f724dd5d2b7754fcbc405960f07c8da0a85e7f71948913fb2997e77bfc86910160405180910390a36003546040518281527f7d285524823001f1a9e0eec4efb8c6350708012b991049fd6dd9250f89c8b2589060200160405180910390a25050600354949350505050565b600081815260026020526040902060038101546001600160a01b03163314801561072e5750600881015460ff165b801561074457506008810154610100900460ff16155b61074d57600080fd5b806006015481600701546107619190610af1565b421061076c57600080fd5b60088101805461ff001916610100179055604051339083907f1a6aefc7361200a82a77fb744d9c1af223318a57ca88c881d9d4108afe8f3cec90600090a35050565b6107b66107f1565b6001600160a01b0381166107e557604051631e4fbdf760e01b8152600060048201526024015b60405180910390fd5b6107ee81610848565b50565b6000546001600160a01b031633146104ef5760405163118cdaa760e01b81523360048201526024016107dc565b60026001540361084157604051633ee5aeb560e01b815260040160405180910390fd5b6002600155565b600080546001600160a01b038381166001600160a01b0319831681178455604051919092169283917f8be0079c531659141344cd1fd0a4f28419497f9722a3daafe3b4186f6b6457e09190a35050565b600080604083850312156108ab57600080fd5b50508035926020909101359150565b6000602082840312156108cc57600080fd5b5035919050565b634e487b7160e01b600052602160045260246000fd5b6004811061090757634e487b7160e01b600052602160045260246000fd5b9052565b81518152602080830151610140830191610927908401826108e9565b5060408301516040830152606083015161094c60608401826001600160a01b03169052565b506080830151608083015260a083015160a083015260c083015160c083015260e083015160e0830152610100808401516109898285018215159052565b5050610120928301511515919092015290565b600080604083850312156109af57600080fd5b82359150602083013580151581146109c657600080fd5b809150509250929050565b600080600080608085870312156109e757600080fd5b8435600481106109f657600080fd5b966020860135965060408601359560600135945092505050565b8a81526101408101610a25602083018c6108e9565b60408201999099526001600160a01b03979097166060880152608087019590955260a086019390935260c085019190915260e0840152151561010083015215156101209091015292915050565b600060208284031215610a8457600080fd5b81356001600160a01b0381168114610a9b57600080fd5b9392505050565b634e487b7160e01b600052601160045260246000fd5b80820281158282048414176102bf576102bf610aa2565b600082610aec57634e487b7160e01b600052601260045260246000fd5b500490565b808201808211156102bf576102bf610aa2565b600060018201610b1657610b16610aa2565b506001019056fea26469706673582212205514231d25c1036de70e1aabb056e3058b9693f8104dc517fedaa83f8a68d87764736f6c63430008140033",
  "linkReferences": {},
  "deployedLinkReferences": {}
}