{
  "_format": "hh-sol-artifact-1",
  "contractName": "ReputationIdentity",
  "sourceName": "contracts/layer3/identity/ReputationIdentity.sol",
  "abi": [
    {
      "inputs": [],
      "stateMutability": "nonpayable",
      "type": "constructor"
    },
    {
      "inputs": [
        {
          "internalType": "address",
          "name": "owner",
          "type": "address"
        }
      ],
      "name": "OwnableInvalidOwner",
      "type": "error"
    },
    {
      "inputs": [
        {
          "internalType": "address",
          "name": "account",
          "type": "address"
        }
      ],
      "name": "OwnableUnauthorizedAccount",
      "type": "error"
    },
    {
      "anonymous": false,
      "inputs": [
        {
          "indexed": true,
          "internalType": "uint256",
          "name": "identityId",
          "type": "uint256"
        },
        {
          "indexed": true,
          "internalType": "uint256",
          "name": "worldId",
          "type": "uint256"
        },
        {
          "indexed": false,
          "internalType": "uint256",
          "name": "score",
          "type": "uint256"
        }
      ],
      "name": "ContextualReputationRecorded",
      "type": "event"
    },
    {
      "anonymous": false,
      "inputs": [
        {
          "indexed": true,
          "internalType": "address",
          "name": "previousOwner",
          "type": "address"
        },
        {
          "indexed": true,
          "internalType": "address",
          "name": "newOwner",
          "type": "address"
        }
      ],
      "name": "OwnershipTransferred",
      "type": "event"
    },
    {
      "anonymous": false,
      "inputs": [
        {
          "indexed": true,
          "internalType": "uint256",
          "name": "identityId",
          "type": "uint256"
        }
      ],
      "name": "ReputationInitialized",
      "type": "event"
    },
    {
      "anonymous": false,
      "inputs": [
        {
          "indexed": true,
          "internalType": "uint256",
          "name": "identityId",
          "type": "uint256"
        },
        {
          "indexed": false,
          "internalType": "uint256",
          "name": "dimension",
          "type": "uint256"
        },
        {
          "indexed": false,
          "internalType": "uint256",
          "name": "newScore",
          "type": "uint256"
        }
      ],
      "name": "ReputationUpdated",
      "type": "event"
    },
    {
      "inputs": [
        {
          "internalType": "uint256",
          "name": "identityId",
          "type": "uint256"
        }
      ],
      "name": "aggregateReputation",
      "outputs": [
        {
          "internalType": "uint256",
          "name": "",
          "type": "uint256"
        }
      ],
      "stateMutability": "view",
      "type": "function"
    },
    {
      "inputs": [
        {
          "internalType": "uint256",
          "name": "",
          "type": "uint256"
        },
        {
          "internalType": "uint256",
          "name": "",
          "type": "uint256"
        }
      ],
      "name": "contextualReps",
      "outputs": [
        {
          "internalType": "uint256",
          "name": "worldId",
          "type": "uint256"
        },
        {
          "internalType": "string",
          "name": "context",
          "type": "string"
        },
        {
          "internalType": "uint256",
          "name": "score",
          "type": "uint256"
        },
        {
          "internalType": "uint256",
          "name": "interactions",
          "type": "uint256"
        },
        {
          "internalType": "uint256",
          "name": "lastUpdate",
          "type": "uint256"
        }
      ],
      "stateMutability": "view",
      "type": "function"
    },
    {
      "inputs": [
        {
          "internalType": "uint256",
          "name": "identityId",
          "type": "uint256"
        }
      ],
      "name": "initializeReputation",
      "outputs": [],
      "stateMutability": "nonpayable",
      "type": "function"
    },
    {
      "inputs": [],
      "name": "owner",
      "outputs": [
        {
          "internalType": "address",
          "name": "",
          "type": "address"
        }
      ],
      "stateMutability": "view",
      "type": "function"
    },
    {
      "inputs": [
        {
          "internalType": "uint256",
          "name": "identityId",
          "type": "uint256"
        },
        {
          "internalType": "uint256",
          "name": "worldId",
          "type": "uint256"
        },
        {
          "internalType": "string",
          "name": "context",
          "type": "string"
        },
        {
          "internalType": "uint256",
          "name": "score",
          "type": "uint256"
        }
      ],
      "name": "recordContextualReputation",
      "outputs": [],
      "stateMutability": "nonpayable",
      "type": "function"
    },
    {
      "inputs": [],
      "name": "renounceOwnership",
      "outputs": [],
      "stateMutability": "nonpayable",
      "type": "function"
    },
    {
      "inputs": [
        {
          "internalType": "uint256",
          "name": "",
          "type": "uint256"
        }
      ],
      "name": "reputations",
      "outputs": [
        {
          "internalType": "uint256",
          "name": "identityId",
          "type": "uint256"
        },
        {
          "internalType": "uint256",
          "name": "trustworthiness",
          "type": "uint256"
        },
        {
          "internalType": "uint256",
          "name": "competence",
          "type": "uint256"
        },
        {
          "internalType": "uint256",
          "name": "reliability",
          "type": "uint256"
        },
        {
          "internalType": "uint256",
          "name": "benevolence",
          "type": "uint256"
        },
        {
          "internalType": "uint256",
          "name": "integrity",
          "type": "uint256"
        },
        {
          "internalType": "uint256",
          "name": "overallScore",
          "type": "uint256"
        },
        {
          "internalType": "uint256",
          "name": "lastUpdate",
          "type": "uint256"
        }
      ],
      "stateMutability": "view",
      "type": "function"
    },
    {
      "inputs": [
        {
          "internalType": "address",
          "name": "newOwner",
          "type": "address"
        }
      ],
      "name": "transferOwnership",
      "outputs": [],
      "stateMutability": "nonpayable",
      "type": "function"
    },
    {
      "inputs": [
        {
          "internalType": "uint256",
          "name": "identityId",
          "type": "uint256"
        },
        {
          "internalType": "uint256",
          "name": "trust",
          "type": "uint256"
        },
        {
          "internalType": "uint256",
          "name": "competence",
          "type": "uint256"
        },
        {
          "internalType": "uint256",
          "name": "reliability",
          "type": "uint256"
        },
        {
          "internalType": "uint256",
          "name": "benevolence",
          "type": "uint256"
        },
        {
          "internalType": "uint256",
          "name": "integrity",
          "type": "uint256"
        }
      ],
      "name": "updateReputation",
      "outputs": [],
      "stateMutability": "nonpayable",
      "type": "function"
    },
    {
      "inputs": [
        {
          "internalType": "uint256",
          "name": "",
          "type": "uint256"
        },
        {
          "internalType": "uint256",
          "name": "",
          "type": "uint256"
        }
      ],
      "name": "worldContexts",
      "outputs": [
        {
          "internalType": "uint256",
          "name": "",
          "type": "uint256"
        }
      ],
      "stateMutability": "view",
      "type": "function"
    }
  ],
  "bytecode": "0x608060405234801561001057600080fd5b50338061003757604051631e4fbdf760e01b81526000600482015260240160405180910390fd5b61004081610046565b50610096565b600080546001600160a01b038381166001600160a01b0319831681178455604051919092169283917f8be0079c531659141344cd1fd0a4f28419497f9722a3daafe3b4186f6b6457e09190a35050565b610b2d806100a56000396000f3fe608060405234801561001057600080fd5b506004361061009e5760003560e01c806372fa9b851161006657806372fa9b851461010c5780637ac8bdf41461019d5780638da5cb5b146101b0578063efbd3316146101cb578063f2fde38b146101ef57600080fd5b80630d889131146100a3578063102640cc146100b85780632b822a90146100cb5780636d1f242b146100f1578063715018a614610104575b600080fd5b6100b66100b136600461071c565b610202565b005b6100b66100c636600461074b565b6102cd565b6100de6100d936600461071c565b6103bf565b6040519081526020015b60405180910390f35b6100b66100ff366004610817565b610494565b6100b6610555565b61016261011a36600461071c565b60016020528060005260406000206000915090508060000154908060010154908060020154908060030154908060040154908060050154908060060154908060070154905088565b604080519889526020890197909752958701949094526060860192909252608085015260a084015260c083015260e0820152610100016100e8565b6100de6101ab36600461085a565b610569565b6000546040516001600160a01b0390911681526020016100e8565b6101de6101d936600461085a565b61059a565b6040516100e895949392919061087c565b6100b66101fd3660046108e7565b61065c565b6000818152600160205260409020541561021b57600080fd5b604080516101008101825282815260326020808301828152838501838152606085018481526080860185815260a0870186815260c088019687524260e0890190815260008b81526001978890528a812099518a5595519689019690965592516002880155905160038701555160048601555160058501559151600684015551600790920191909155905182917f42598236bbe4e4a30224435c009b25ce13c94d5507b5a7fd1cf549780aebde3b91a250565b600084815260026020908152604080832086845290915281206003810154909103610314576000858152600360209081526040822080546001810182559083529120018490555b8381556001810161032584826109a0565b506003810154610336906001610a76565b828260030154836002015461034b9190610a8f565b6103559190610a76565b61035f9190610aa6565b600282015560038101805490600061037683610ac8565b9091555050426004820155604051828152849086907fec1495b2162ac415fc7c9fff846d206a90475598423b8755e7e4e356e9a9f9c89060200160405180910390a35050505050565b600081815260016020908152604080832060068101546003909352908320549091908390801561048a5760005b8181101561045d5760008781526002602090815260408083206003909252822080549192918490811061042157610421610ae1565b9060005260206000200154815260200190815260200160002060020154836104499190610a76565b92508061045581610ac8565b9150506103ec565b506104688183610aa6565b915060026104768385610a76565b6104809190610aa6565b9695505050505050565b5090949350505050565b600086815260016020819052604090912090810186905560028101859055600381018490556004810183905560058082018390558284866104d5898b610a76565b6104df9190610a76565b6104e99190610a76565b6104f39190610a76565b6104fd9190610aa6565b6006820181905542600783015560405188917fd9f66501c000653403d74ddfa62a75c8dd44cc05d910ee81bf1d852262dd5fa1916105449160008252602082015260400190565b60405180910390a250505050505050565b61055d61069f565b61056760006106cc565b565b6003602052816000526040600020818154811061058557600080fd5b90600052602060002001600091509150505481565b6002602090815260009283526040808420909152908252902080546001820180549192916105c790610917565b80601f01602080910402602001604051908101604052809291908181526020018280546105f390610917565b80156106405780601f1061061557610100808354040283529160200191610640565b820191906000526020600020905b81548152906001019060200180831161062357829003601f168201915b5050505050908060020154908060030154908060040154905085565b61066461069f565b6001600160a01b03811661069357604051631e4fbdf760e01b8152600060048201526024015b60405180910390fd5b61069c816106cc565b50565b6000546001600160a01b031633146105675760405163118cdaa760e01b815233600482015260240161068a565b600080546001600160a01b038381166001600160a01b0319831681178455604051919092169283917f8be0079c531659141344cd1fd0a4f28419497f9722a3daafe3b4186f6b6457e09190a35050565b60006020828403121561072e57600080fd5b5035919050565b634e487b7160e01b600052604160045260246000fd5b6000806000806080858703121561076157600080fd5b8435935060208501359250604085013567ffffffffffffffff8082111561078757600080fd5b818701915087601f83011261079b57600080fd5b8135818111156107ad576107ad610735565b604051601f8201601f19908116603f011681019083821181831017156107d5576107d5610735565b816040528281528a60208487010111156107ee57600080fd5b826020860160208301376000928101602001929092525095989497509495606001359450505050565b60008060008060008060c0878903121561083057600080fd5b505084359660208601359650604086013595606081013595506080810135945060a0013592509050565b6000806040838503121561086d57600080fd5b50508035926020909101359150565b8581526000602060a08184015286518060a085015260005b818110156108b05788810183015185820160c001528201610894565b50600060c0828601015260c0601f19601f830116850101925050508460408301528360608301528260808301529695505050505050565b6000602082840312156108f957600080fd5b81356001600160a01b038116811461091057600080fd5b9392505050565b600181811c9082168061092b57607f821691505b60208210810361094b57634e487b7160e01b600052602260045260246000fd5b50919050565b601f82111561099b57600081815260208120601f850160051c810160208610156109785750805b601f850160051c820191505b8181101561099757828155600101610984565b5050505b505050565b815167ffffffffffffffff8111156109ba576109ba610735565b6109ce816109c88454610917565b84610951565b602080601f831160018114610a0357600084156109eb5750858301515b600019600386901b1c1916600185901b178555610997565b600085815260208120601f198616915b82811015610a3257888601518255948401946001909101908401610a13565b5085821015610a505787850151600019600388901b60f8161c191681555b5050505050600190811b01905550565b634e487b7160e01b600052601160045260246000fd5b80820180821115610a8957610a89610a60565b92915050565b8082028115828204841417610a8957610a89610a60565b600082610ac357634e487b7160e01b600052601260045260246000fd5b500490565b600060018201610ada57610ada610a60565b5060010190565b634e487b7160e01b600052603260045260246000fdfea26469706673582212203fd0f3293d340e71530a773bf42bdb6da40511a68d635a4169061d085aa3448664736f6c63430008140033",
  "linkReferences": {},
  "deployedLinkReferences": {}
}