{
  "_format": "hh-sol-artifact-1",
  "contractName": "RecoveryProtocol",
  "sourceName": "contracts/layer7/stability/RecoveryProtocol.sol",
  "abi": [
    {
      "inputs": [],
      "stateMutability": "nonpayable",
      "type": "constructor"
    },
    {
      "inputs": [],
      "name": "AccessControlBadConfirmation",
      "type": "error"
    },
    {
      "inputs": [
        {
          "internalType": "address",
          "name": "account",
          "type": "address"
        },
        {
          "internalType": "bytes32",
          "name": "neededRole",
          "type": "bytes32"
        }
      ],
      "name": "AccessControlUnauthorizedAccount",
      "type": "error"
    },
    {
      "anonymous": false,
      "inputs": [
        {
          "indexed": true,
          "internalType": "uint256",
          "name": "planId",
          "type": "uint256"
        }
      ],
      "name": "RecoveryCompleted",
      "type": "event"
    },
    {
      "anonymous": false,
      "inputs": [
        {
          "indexed": true,
          "internalType": "uint256",
          "name": "planId",
          "type": "uint256"
        },
        {
          "indexed": false,
          "internalType": "string",
          "name": "reason",
          "type": "string"
        }
      ],
      "name": "RecoveryFailed",
      "type": "event"
    },
    {
      "anonymous": false,
      "inputs": [
        {
          "indexed": true,
          "internalType": "uint256",
          "name": "planId",
          "type": "uint256"
        },
        {
          "indexed": false,
          "internalType": "enum RecoveryProtocol.RecoveryType",
          "name": "recoveryType",
          "type": "uint8"
        }
      ],
      "name": "RecoveryInitiated",
      "type": "event"
    },
    {
      "anonymous": false,
      "inputs": [
        {
          "indexed": true,
          "internalType": "bytes32",
          "name": "role",
          "type": "bytes32"
        },
        {
          "indexed": true,
          "internalType": "bytes32",
          "name": "previousAdminRole",
          "type": "bytes32"
        },
        {
          "indexed": true,
          "internalType": "bytes32",
          "name": "newAdminRole",
          "type": "bytes32"
        }
      ],
      "name": "RoleAdminChanged",
      "type": "event"
    },
    {
      "anonymous": false,
      "inputs": [
        {
          "indexed": true,
          "internalType": "bytes32",
          "name": "role",
          "type": "bytes32"
        },
        {
          "indexed": true,
          "internalType": "address",
          "name": "account",
          "type": "address"
        },
        {
          "indexed": true,
          "internalType": "address",
          "name": "sender",
          "type": "address"
        }
      ],
      "name": "RoleGranted",
      "type": "event"
    },
    {
      "anonymous": false,
      "inputs": [
        {
          "indexed": true,
          "internalType": "bytes32",
          "name": "role",
          "type": "bytes32"
        },
        {
          "indexed": true,
          "internalType": "address",
          "name": "account",
          "type": "address"
        },
        {
          "indexed": true,
          "internalType": "address",
          "name": "sender",
          "type": "address"
        }
      ],
      "name": "RoleRevoked",
      "type": "event"
    },
    {
      "anonymous": false,
      "inputs": [
        {
          "indexed": true,
          "internalType": "uint256",
          "name": "snapshotId",
          "type": "uint256"
        },
        {
          "indexed": false,
          "internalType": "uint256",
          "name": "blockNumber",
          "type": "uint256"
        }
      ],
      "name": "SnapshotCreated",
      "type": "event"
    },
    {
      "inputs": [],
      "name": "DEFAULT_ADMIN_ROLE",
      "outputs": [
        {
          "internalType": "bytes32",
          "name": "",
          "type": "bytes32"
        }
      ],
      "stateMutability": "view",
      "type": "function"
    },
    {
      "inputs": [],
      "name": "RECOVERY_ROLE",
      "outputs": [
        {
          "internalType": "bytes32",
          "name": "",
          "type": "bytes32"
        }
      ],
      "stateMutability": "view",
      "type": "function"
    },
    {
      "inputs": [],
      "name": "SNAPSHOT_INTERVAL",
      "outputs": [
        {
          "internalType": "uint256",
          "name": "",
          "type": "uint256"
        }
      ],
      "stateMutability": "view",
      "type": "function"
    },
    {
      "inputs": [
        {
          "internalType": "bytes32",
          "name": "stateRoot",
          "type": "bytes32"
        },
        {
          "internalType": "string",
          "name": "description",
          "type": "string"
        }
      ],
      "name": "createSnapshot",
      "outputs": [
        {
          "internalType": "uint256",
          "name": "",
          "type": "uint256"
        }
      ],
      "stateMutability": "nonpayable",
      "type": "function"
    },
    {
      "inputs": [
        {
          "internalType": "uint256",
          "name": "planId",
          "type": "uint256"
        }
      ],
      "name": "executeRecovery",
      "outputs": [],
      "stateMutability": "nonpayable",
      "type": "function"
    },
    {
      "inputs": [
        {
          "internalType": "uint256",
          "name": "planId",
          "type": "uint256"
        },
        {
          "internalType": "string",
          "name": "reason",
          "type": "string"
        }
      ],
      "name": "failRecovery",
      "outputs": [],
      "stateMutability": "nonpayable",
      "type": "function"
    },
    {
      "inputs": [],
      "name": "getLatestSnapshot",
      "outputs": [
        {
          "components": [
            {
              "internalType": "uint256",
              "name": "snapshotId",
              "type": "uint256"
            },
            {
              "internalType": "uint256",
              "name": "blockNumber",
              "type": "uint256"
            },
            {
              "internalType": "uint256",
              "name": "timestamp",
              "type": "uint256"
            },
            {
              "internalType": "bytes32",
              "name": "stateRoot",
              "type": "bytes32"
            },
            {
              "internalType": "string",
              "name": "description",
              "type": "string"
            },
            {
              "internalType": "bool",
              "name": "verified",
              "type": "bool"
            }
          ],
          "internalType": "struct RecoveryProtocol.Snapshot",
          "name": "",
          "type": "tuple"
        }
      ],
      "stateMutability": "view",
      "type": "function"
    },
    {
      "inputs": [
        {
          "internalType": "bytes32",
          "name": "role",
          "type": "bytes32"
        }
      ],
      "name": "getRoleAdmin",
      "outputs": [
        {
          "internalType": "bytes32",
          "name": "",
          "type": "bytes32"
        }
      ],
      "stateMutability": "view",
      "type": "function"
    },
    {
      "inputs": [
        {
          "internalType": "uint256",
          "name": "blockNumber",
          "type": "uint256"
        }
      ],
      "name": "getSnapshotByBlock",
      "outputs": [
        {
          "components": [
            {
              "internalType": "uint256",
              "name": "snapshotId",
              "type": "uint256"
            },
            {
              "internalType": "uint256",
              "name": "blockNumber",
              "type": "uint256"
            },
            {
              "internalType": "uint256",
              "name": "timestamp",
              "type": "uint256"
            },
            {
              "internalType": "bytes32",
              "name": "stateRoot",
              "type": "bytes32"
            },
            {
              "internalType": "string",
              "name": "description",
              "type": "string"
            },
            {
              "internalType": "bool",
              "name": "verified",
              "type": "bool"
            }
          ],
          "internalType": "struct RecoveryProtocol.Snapshot",
          "name": "",
          "type": "tuple"
        }
      ],
      "stateMutability": "view",
      "type": "function"
    },
    {
      "inputs": [
        {
          "internalType": "bytes32",
          "name": "role",
          "type": "bytes32"
        },
        {
          "internalType": "address",
          "name": "account",
          "type": "address"
        }
      ],
      "name": "grantRole",
      "outputs": [],
      "stateMutability": "nonpayable",
      "type": "function"
    },
    {
      "inputs": [
        {
          "internalType": "bytes32",
          "name": "role",
          "type": "bytes32"
        },
        {
          "internalType": "address",
          "name": "account",
          "type": "address"
        }
      ],
      "name": "hasRole",
      "outputs": [
        {
          "internalType": "bool",
          "name": "",
          "type": "bool"
        }
      ],
      "stateMutability": "view",
      "type": "function"
    },
    {
      "inputs": [
        {
          "internalType": "enum RecoveryProtocol.RecoveryType",
          "name": "recoveryType",
          "type": "uint8"
        },
        {
          "internalType": "uint256",
          "name": "targetSnapshot",
          "type": "uint256"
        },
        {
          "internalType": "string",
          "name": "notes",
          "type": "string"
        }
      ],
      "name": "initiateRecovery",
      "outputs": [
        {
          "internalType": "uint256",
          "name": "",
          "type": "uint256"
        }
      ],
      "stateMutability": "nonpayable",
      "type": "function"
    },
    {
      "inputs": [],
      "name": "lastSnapshotTime",
      "outputs": [
        {
          "internalType": "uint256",
          "name": "",
          "type": "uint256"
        }
      ],
      "stateMutability": "view",
      "type": "function"
    },
    {
      "inputs": [],
      "name": "recoveryPlanCount",
      "outputs": [
        {
          "internalType": "uint256",
          "name": "",
          "type": "uint256"
        }
      ],
      "stateMutability": "view",
      "type": "function"
    },
    {
      "inputs": [
        {
          "internalType": "uint256",
          "name": "",
          "type": "uint256"
        }
      ],
      "name": "recoveryPlans",
      "outputs": [
        {
          "internalType": "uint256",
          "name": "planId",
          "type": "uint256"
        },
        {
          "internalType": "enum RecoveryProtocol.RecoveryType",
          "name": "recoveryType",
          "type": "uint8"
        },
        {
          "internalType": "uint256",
          "name": "targetSnapshot",
          "type": "uint256"
        },
        {
          "internalType": "uint256",
          "name": "initiatedAt",
          "type": "uint256"
        },
        {
          "internalType": "address",
          "name": "initiatedBy",
          "type": "address"
        },
        {
          "internalType": "enum RecoveryProtocol.RecoveryStatus",
          "name": "status",
          "type": "uint8"
        },
        {
          "internalType": "string",
          "name": "notes",
          "type": "string"
        }
      ],
      "stateMutability": "view",
      "type": "function"
    },
    {
      "inputs": [
        {
          "internalType": "bytes32",
          "name": "role",
          "type": "bytes32"
        },
        {
          "internalType": "address",
          "name": "callerConfirmation",
          "type": "address"
        }
      ],
      "name": "renounceRole",
      "outputs": [],
      "stateMutability": "nonpayable",
      "type": "function"
    },
    {
      "inputs": [
        {
          "internalType": "bytes32",
          "name": "role",
          "type": "bytes32"
        },
        {
          "internalType": "address",
          "name": "account",
          "type": "address"
        }
      ],
      "name": "revokeRole",
      "outputs": [],
      "stateMutability": "nonpayable",
      "type": "function"
    },
    {
      "inputs": [],
      "name": "snapshotCount",
      "outputs": [
        {
          "internalType": "uint256",
          "name": "",
          "type": "uint256"
        }
      ],
      "stateMutability": "view",
      "type": "function"
    },
    {
      "inputs": [
        {
          "internalType": "uint256",
          "name": "",
          "type": "uint256"
        }
      ],
      "name": "snapshots",
      "outputs": [
        {
          "internalType": "uint256",
          "name": "snapshotId",
          "type": "uint256"
        },
        {
          "internalType": "uint256",
          "name": "blockNumber",
          "type": "uint256"
        },
        {
          "internalType": "uint256",
          "name": "timestamp",
          "type": "uint256"
        },
        {
          "internalType": "bytes32",
          "name": "stateRoot",
          "type": "bytes32"
        },
        {
          "internalType": "string",
          "name": "description",
          "type": "string"
        },
        {
          "internalType": "bool",
          "name": "verified",
          "type": "bool"
        }
      ],
      "stateMutability": "view",
      "type": "function"
    },
    {
      "inputs": [
        {
          "internalType": "bytes4",
          "name": "interfaceId",
          "type": "bytes4"
        }
      ],
      "name": "supportsInterface",
      "outputs": [
        {
          "internalType": "bool",
          "name": "",
          "type": "bool"
        }
      ],
      "stateMutability": "view",
      "type": "function"
    },
    {
      "inputs": [
        {
          "internalType": "uint256",
          "name": "snapshotId",
          "type": "uint256"
        }
      ],
      "name": "verifySnapshot",
      "outputs": [],
      "stateMutability": "nonpayable",
      "type": "function"
    }
  ],
  "bytecode": "0x60806040523461002c5761001233610031565b5061001c336100af565b506040516115fd90816101508239f35b600080fd5b6001600160a01b031660008181527fad3228b676f7d3cd4284a5443f17f1962b36e491b30a40b2405849e597ba5fb5602052604081205490919060ff166100ab57818052816020526040822081835260205260408220600160ff19825416179055339160008051602061174d8339815191528180a4600190565b5090565b6001600160a01b031660008181527ff5d6910bc70e1ece69b520193ad380ecb31507820a100769882d4a52a371eb5960205260408120549091907f0acf805600123ef007091da3b3ffb39474074c656c127aa68cb0ffec232a8ff89060ff1661014a57808352826020526040832082845260205260408320600160ff1982541617905560008051602061174d833981519152339380a4600190565b50509056fe608060408181526004918236101561001657600080fd5b600090813560e01c90816301ffc9a714610dd157508063098ab6a114610db2578063248a9ca314610d885780632f2ff15d14610d6a57806331993a1c14610d2f578063323ed22b14610a5457806336568abe146109f357806356570571146108ef57806364962849146108505780636d2beef1146108325780637d109132146104215780638a0aaa78146104035780638ae334701461035a57806391d14854146103145780639448765414610247578063a217fddf1461022c578063be74baf21461020d578063d518f243146101ef578063d547741f146101b6578063d6565a2d1461013c5763d7925e901461010b57600080fd5b34610139576020600319360112610139575061012a61013592356114c0565b90519182918261113a565b0390f35b80fd5b503461013957602060031936011261013957819083358152600160205220906101aa825492600181015494600282015460ff60056101806003860154948601610ffc565b9401541694805197889788526020880152860152606085015260c0608085015260c08401906110dc565b90151560a08301520390f35b5090346101eb5760016101e7916101e26101cf36610e70565b939092838752866020528620015461121c565b6112ce565b5080f35b5080fd5b5090346101eb57816003193601126101eb576101359061012a6113ce565b5090346101eb57816003193601126101eb576020906005549051908152f35b5090346101eb57816003193601126101eb5751908152602090f35b509190346103105780600319360112610310578135916024359067ffffffffffffffff821161030c577fe67a07358b3793baee195c9f39efe0334eed185248bdb66dcd99a7a7b783b5fe926102a26103069336908401610f34565b916102ab611189565b858752600260205281872001740300000000000000000000000000000000000000007fffffffffffffffffffffff00ffffffffffffffffffffffffffffffffffffffff825416179055519182916020835260208301906110dc565b0390a280f35b8480fd5b8280fd5b5090346101eb5760ff8160209361032a36610e70565b90825281865273ffffffffffffffffffffffffffffffffffffffff83832091168252855220541690519015158152f35b5034610139576020600319360112610139578161013591843581526002602052209182549273ffffffffffffffffffffffffffffffffffffffff60ff60018301541695600283015490600384015490840154916103c0600560ff8560a01c169601610ffc565b958051998a998a526103d1816110a3565b60208a015288015260608701521660808501526103ed816110a3565b60a084015260e060c084015260e08301906110dc565b50913461031057826003193601126103105760209250549051908152f35b50919034610310576060600319360112610310578135918083101561082e576024359267ffffffffffffffff60443581811161082a576104649036908501610f34565b90868052602096808852858120338252885260ff8682205416156107f45786815260019485895260ff600588842001541615610798576104a48154611351565b9788825587519060e082018281108682111761076c578a600593928d928c52818452828401906104d38b6110a3565b8a82528c850190815260608501914283526002608087019533875260a08801958b875260c089019d8e528b52528d8920955186558c86019051610515816110a3565b61051e816110a3565b60ff60ff19835416911617905551600285015551600384015573ffffffffffffffffffffffffffffffffffffffff8584019251167fffffffffffffffffffffff00000000000000000000000000000000000000000074ff000000000000000000000000000000000000000084549351610596816110a3565b61059f816110a3565b60a01b1692161717905501935190815193841161074057509183918895936105c88b9654610fa9565b601f81116106e2575b508591601f8411600114610642577f191fafeb56a1e75d81a88b1c442dead7f0e93ea658bff616044fe722584d94189798928492839293610635575b505060001991921b9260031b1c19161790555b84519061062c816110a3565b8152a251908152f35b015191506000193861060d565b909792917fffffffffffffffffffffffffffffffffffffffffffffffffffffffffffffffe0831698858352878320925b8a81106106ca5750837f191fafeb56a1e75d81a88b1c442dead7f0e93ea658bff616044fe722584d9418999a106106b1575b505050811b019055610620565b015160001960f88460031b161c191690553880806106a4565b8183015184558c995092850192918801918801610672565b918496508094919395975052898320601f850160051c8101918b8610610736575b91888b98969492601f8e9997950160051c01915b8281106107255750506105d1565b8481558c99508d98508a9101610717565b9091508190610703565b8260416024927f4e487b7100000000000000000000000000000000000000000000000000000000835252fd5b6024856041867f4e487b7100000000000000000000000000000000000000000000000000000000835252fd5b606490898851917f08c379a0000000000000000000000000000000000000000000000000000000008352820152601560248201527f536e617073686f74206e6f7420766572696669656400000000000000000000006044820152fd5b846044918751917fe2517d3f00000000000000000000000000000000000000000000000000000000835233908301526024820152fd5b8680fd5b8380fd5b5090346101eb57816003193601126101eb5760209051620151808152f35b5091346103105760206003193601126103105761086b611189565b80358352600160205281832091825415610892578360058401600160ff1982541617905580f35b90602060649251917f08c379a0000000000000000000000000000000000000000000000000000000008352820152601260248201527f536e617073686f74206e6f7420666f756e6400000000000000000000000000006044820152fd5b5091346103105760206003193601126103105780359161090d611189565b828452600260205281818520019182549160ff8360a01c1661092e816110a3565b6109965750507fffffffffffffffffffffff00ffffffffffffffffffffffffffffffffffffffff16740200000000000000000000000000000000000000001790557f9175e62f1fc84042b03abbfbd7f68f58a70f19d6734975c39ef25a7c68ede7f38280a280f35b90602060649251917f08c379a0000000000000000000000000000000000000000000000000000000008352820152600e60248201527f496e76616c6964207374617475730000000000000000000000000000000000006044820152fd5b5090346101eb57610a0336610e70565b913373ffffffffffffffffffffffffffffffffffffffff841603610a2c5750906101e7916112ce565b8490517f6697b232000000000000000000000000000000000000000000000000000000008152fd5b5082903461013957826003193601126101395767ffffffffffffffff9260243584811161031057610a889036908501610f34565b91610a91611189565b600554620151808101809111610d03574210610ca657610ab2600354611351565b9283600355825190610ac382610ea8565b8482526020968783014381528584019442865260608501893581526080860194855260a0860196828852898352600193848d528984209751885551848801555160028701555160038601558885019351988951938411610c7a5750610b288454610fa9565b601f8111610c34575b508990601f8411600114610bb457839160059798999a839293610ba7575b505060001991921b9260031b1c19161790555b019051151560ff60ff19835416911617905542600555817f0a5b69dda4109f3b3c9a78321d06fd4c59f56d886e9c6c8abaddd33d3d16c103848351438152a251908152f35b015191506000198c610b4f565b907fffffffffffffffffffffffffffffffffffffffffffffffffffffffffffffffe084939416998583528b8320925b8c8c8210610c2057505083600598999a9b10610c07575b505050811b019055610b62565b015160001960f88460031b161c19169055898080610bfa565b828401518555938601939283019201610be3565b8482528a8220601f850160051c8101918c8610610c70575b601f0160051c019083905b828110610c65575050610b31565b838155018390610c57565b9091508190610c4c565b9060416024927f4e487b7100000000000000000000000000000000000000000000000000000000835252fd5b60648460208451917f08c379a0000000000000000000000000000000000000000000000000000000008352820152601960248201527f536e617073686f7420696e74657276616c206e6f74206d6574000000000000006044820152fd5b6024826011877f4e487b7100000000000000000000000000000000000000000000000000000000835252fd5b5090346101eb57816003193601126101eb57602090517f0acf805600123ef007091da3b3ffb39474074c656c127aa68cb0ffec232a8ff88152f35b5090346101eb5760016101e791610d836101cf36610e70565b611242565b50913461031057602060031936011261031057816020936001923581528085522001549051908152f35b5090346101eb57816003193601126101eb576020906003549051908152f35b9050833461031057602060031936011261031057357fffffffff00000000000000000000000000000000000000000000000000000000811680910361031057602092507f7965db0b000000000000000000000000000000000000000000000000000000008114908115610e46575b5015158152f35b7f01ffc9a70000000000000000000000000000000000000000000000000000000091501483610e3f565b6003196040910112610ea3576004359060243573ffffffffffffffffffffffffffffffffffffffff81168103610ea35790565b600080fd5b60c0810190811067ffffffffffffffff821117610ec457604052565b7f4e487b7100000000000000000000000000000000000000000000000000000000600052604160045260246000fd5b90601f7fffffffffffffffffffffffffffffffffffffffffffffffffffffffffffffffe0910116810190811067ffffffffffffffff821117610ec457604052565b81601f82011215610ea35780359067ffffffffffffffff8211610ec45760405192610f8760207fffffffffffffffffffffffffffffffffffffffffffffffffffffffffffffffe0601f8601160185610ef3565b82845260208383010111610ea357816000926020809301838601378301015290565b90600182811c92168015610ff2575b6020831014610fc357565b7f4e487b7100000000000000000000000000000000000000000000000000000000600052602260045260246000fd5b91607f1691610fb8565b906040519182600082549261101084610fa9565b90818452600194858116908160001461107f575060011461103c575b505061103a92500383610ef3565b565b9093915060005260209081600020936000915b81831061106757505061103a9350820101388061102c565b8554888401850152948501948794509183019161104f565b905061103a95506020935060ff1991501682840152151560051b820101388061102c565b600411156110ad57565b7f4e487b7100000000000000000000000000000000000000000000000000000000600052602160045260246000fd5b919082519283825260005b8481106111265750507fffffffffffffffffffffffffffffffffffffffffffffffffffffffffffffffe0601f8460006020809697860101520116010190565b6020818301810151848301820152016110e7565b602081528151602082015260208201516040820152604082015160608201526060820151608082015260c060a061117e6080850151838386015260e08501906110dc565b930151151591015290565b3360009081527ff5d6910bc70e1ece69b520193ad380ecb31507820a100769882d4a52a371eb5960205260409020547f0acf805600123ef007091da3b3ffb39474074c656c127aa68cb0ffec232a8ff89060ff16156111e55750565b604490604051907fe2517d3f0000000000000000000000000000000000000000000000000000000082523360048301526024820152fd5b80600052600060205260406000203360005260205260ff60406000205416156111e55750565b906000918083528260205273ffffffffffffffffffffffffffffffffffffffff6040842092169182845260205260ff604084205416156000146112c957808352826020526040832082845260205260408320600160ff198254161790557f2f8788117e7eff1d82e926ec794901d17c78024a50270940304540a733656f0d339380a4600190565b505090565b906000918083528260205273ffffffffffffffffffffffffffffffffffffffff6040842092169182845260205260ff6040842054166000146112c95780835282602052604083208284526020526040832060ff1981541690557ff6391f5c32d9c69d2a47ea670b442974b53935d1edc7fd64eb21e047a839171b339380a4600190565b60001981146113605760010190565b7f4e487b7100000000000000000000000000000000000000000000000000000000600052601160045260246000fd5b6040519061139c82610ea8565b600060a083828152826020820152826040820152826060820152606060808201520152565b8015611360576000190190565b6113d661138f565b506003908154805b6114405760646040517f08c379a000000000000000000000000000000000000000000000000000000000815260206004820152601560248201527f4e6f20766572696669656420736e617073686f747300000000000000000000006044820152fd5b600081815260019060209082825260408091209060ff6005830154169283611476575050505050611470906113c1565b806113de565b6004939550906114b19496979181519761148f89610ea8565b8454895284015490880152600283015490870152810154606086015201610ffc565b6080830152151560a082015290565b906114c961138f565b506003908154805b6115335760646040517f08c379a000000000000000000000000000000000000000000000000000000000815260206004820152601b60248201527f4e6f20736e617073686f7420666f756e6420666f7220626c6f636b00000000006044820152fd5b6000818152600160209181835260408091209182015487811115806115b9575b61156a5750505050611564906113c1565b806114d1565b60ff959750600594508196929396519661158388610ea8565b8454885287015260028301549086015281015460608501526115a760048201610ffc565b6080850152015416151560a082015290565b5060ff60058401541661155356fea2646970667358221220ea8642d63b09a3f68f809952477c8671f05743f7644f479463d665aace715eab64736f6c634300081400332f8788117e7eff1d82e926ec794901d17c78024a50270940304540a733656f0d",
  "linkReferences": {},
  "deployedLinkReferences": {}
}