{
  "_format": "hh-sol-artifact-1",
  "contractName": "UniversalMarketplace",
  "sourceName": "contracts/layer6/marketplace/UniversalMarketplace.sol",
  "abi": [
    {
      "inputs": [
        {
          "internalType": "address",
          "name": "_reputationOracle",
          "type": "address"
        }
      ],
      "stateMutability": "nonpayable",
      "type": "constructor"
    },
    {
      "inputs": [
        {
          "internalType": "address",
          "name": "owner",
          "type": "address"
        }
      ],
      "name": "OwnableInvalidOwner",
      "type": "error"
    },
    {
      "inputs": [
        {
          "internalType": "address",
          "name": "account",
          "type": "address"
        }
      ],
      "name": "OwnableUnauthorizedAccount",
      "type": "error"
    },
    {
      "inputs": [],
      "name": "ReentrancyGuardReentrantCall",
      "type": "error"
    },
    {
      "anonymous": false,
      "inputs": [
        {
          "indexed": true,
          "internalType": "uint256",
          "name": "listingId",
          "type": "uint256"
        }
      ],
      "name": "Delisted",
      "type": "event"
    },
    {
      "anonymous": false,
      "inputs": [
        {
          "indexed": true,
          "internalType": "uint256",
          "name": "listingId",
          "type": "uint256"
        },
        {
          "indexed": true,
          "internalType": "address",
          "name": "seller",
          "type": "address"
        },
        {
          "indexed": false,
          "internalType": "address",
          "name": "nftContract",
          "type": "address"
        },
        {
          "indexed": false,
          "internalType": "uint256",
          "name": "tokenId",
          "type": "uint256"
        },
        {
          "indexed": false,
          "internalType": "uint256",
          "name": "price",
          "type": "uint256"
        }
      ],
      "name": "Listed",
      "type": "event"
    },
    {
      "anonymous": false,
      "inputs": [
        {
          "indexed": true,
          "internalType": "address",
          "name": "previousOwner",
          "type": "address"
        },
        {
          "indexed": true,
          "internalType": "address",
          "name": "newOwner",
          "type": "address"
        }
      ],
      "name": "OwnershipTransferred",
      "type": "event"
    },
    {
      "anonymous": false,
      "inputs": [
        {
          "indexed": true,
          "internalType": "uint256",
          "name": "listingId",
          "type": "uint256"
        },
        {
          "indexed": false,
          "internalType": "uint256",
          "name": "oldPrice",
          "type": "uint256"
        },
        {
          "indexed": false,
          "internalType": "uint256",
          "name": "newPrice",
          "type": "uint256"
        }
      ],
      "name": "PriceUpdated",
      "type": "event"
    },
    {
      "anonymous": false,
      "inputs": [
        {
          "indexed": true,
          "internalType": "uint256",
          "name": "saleId",
          "type": "uint256"
        },
        {
          "indexed": true,
          "internalType": "uint256",
          "name": "listingId",
          "type": "uint256"
        },
        {
          "indexed": true,
          "internalType": "address",
          "name": "buyer",
          "type": "address"
        },
        {
          "indexed": false,
          "internalType": "uint256",
          "name": "price",
          "type": "uint256"
        }
      ],
      "name": "Sold",
      "type": "event"
    },
    {
      "inputs": [],
      "name": "FEE_DENOMINATOR",
      "outputs": [
        {
          "internalType": "uint256",
          "name": "",
          "type": "uint256"
        }
      ],
      "stateMutability": "view",
      "type": "function"
    },
    {
      "inputs": [],
      "name": "basePlatformFee",
      "outputs": [
        {
          "internalType": "uint256",
          "name": "",
          "type": "uint256"
        }
      ],
      "stateMutability": "view",
      "type": "function"
    },
    {
      "inputs": [
        {
          "internalType": "uint256",
          "name": "listingId",
          "type": "uint256"
        }
      ],
      "name": "buyItem",
      "outputs": [],
      "stateMutability": "payable",
      "type": "function"
    },
    {
      "inputs": [
        {
          "internalType": "uint256",
          "name": "listingId",
          "type": "uint256"
        }
      ],
      "name": "cancelListing",
      "outputs": [],
      "stateMutability": "nonpayable",
      "type": "function"
    },
    {
      "inputs": [
        {
          "internalType": "address",
          "name": "",
          "type": "address"
        },
        {
          "internalType": "uint256",
          "name": "",
          "type": "uint256"
        }
      ],
      "name": "creatorRoyaltyBps",
      "outputs": [
        {
          "internalType": "uint256",
          "name": "",
          "type": "uint256"
        }
      ],
      "stateMutability": "view",
      "type": "function"
    },
    {
      "inputs": [
        {
          "internalType": "uint256",
          "name": "offset",
          "type": "uint256"
        },
        {
          "internalType": "uint256",
          "name": "limit",
          "type": "uint256"
        }
      ],
      "name": "getActiveListings",
      "outputs": [
        {
          "components": [
            {
              "internalType": "uint256",
              "name": "listingId",
              "type": "uint256"
            },
            {
              "internalType": "address",
              "name": "seller",
              "type": "address"
            },
            {
              "internalType": "address",
              "name": "nftContract",
              "type": "address"
            },
            {
              "internalType": "uint256",
              "name": "tokenId",
              "type": "uint256"
            },
            {
              "internalType": "uint256",
              "name": "amount",
              "type": "uint256"
            },
            {
              "internalType": "uint256",
              "name": "price",
              "type": "uint256"
            },
            {
              "internalType": "enum UniversalMarketplace.TokenType",
              "name": "tokenType",
              "type": "uint8"
            },
            {
              "internalType": "string",
              "name": "category",
              "type": "string"
            },
            {
              "internalType": "uint8",
              "name": "status",
              "type": "uint8"
            },
            {
              "internalType": "uint256",
              "name": "listedAt",
              "type": "uint256"
            },
            {
              "internalType": "uint256",
              "name": "expiresAt",
              "type": "uint256"
            }
          ],
          "internalType": "struct UniversalMarketplace.Listing[]",
          "name": "",
          "type": "tuple[]"
        }
      ],
      "stateMutability": "view",
      "type": "function"
    },
    {
      "inputs": [
        {
          "internalType": "address",
          "name": "user",
          "type": "address"
        }
      ],
      "name": "getUserListings",
      "outputs": [
        {
          "internalType": "uint256[]",
          "name": "",
          "type": "uint256[]"
        }
      ],
      "stateMutability": "view",
      "type": "function"
    },
    {
      "inputs": [
        {
          "internalType": "address",
          "name": "nftContract",
          "type": "address"
        },
        {
          "internalType": "uint256",
          "name": "tokenId",
          "type": "uint256"
        },
        {
          "internalType": "uint256",
          "name": "amount",
          "type": "uint256"
        },
        {
          "internalType": "uint256",
          "name": "price",
          "type": "uint256"
        },
        {
          "internalType": "enum UniversalMarketplace.TokenType",
          "name": "tokenType",
          "type": "uint8"
        },
        {
          "internalType": "uint256",
          "name": "duration",
          "type": "uint256"
        },
        {
          "internalType": "string",
          "name": "category",
          "type": "string"
        }
      ],
      "name": "listItem",
      "outputs": [
        {
          "internalType": "uint256",
          "name": "",
          "type": "uint256"
        }
      ],
      "stateMutability": "nonpayable",
      "type": "function"
    },
    {
      "inputs": [],
      "name": "listingCount",
      "outputs": [
        {
          "internalType": "uint256",
          "name": "",
          "type": "uint256"
        }
      ],
      "stateMutability": "view",
      "type": "function"
    },
    {
      "inputs": [
        {
          "internalType": "uint256",
          "name": "",
          "type": "uint256"
        }
      ],
      "name": "listings",
      "outputs": [
        {
          "internalType": "uint256",
          "name": "listingId",
          "type": "uint256"
        },
        {
          "internalType": "address",
          "name": "seller",
          "type": "address"
        },
        {
          "internalType": "address",
          "name": "nftContract",
          "type": "address"
        },
        {
          "internalType": "uint256",
          "name": "tokenId",
          "type": "uint256"
        },
        {
          "internalType": "uint256",
          "name": "amount",
          "type": "uint256"
        },
        {
          "internalType": "uint256",
          "name": "price",
          "type": "uint256"
        },
        {
          "internalType": "enum UniversalMarketplace.TokenType",
          "name": "tokenType",
          "type": "uint8"
        },
        {
          "internalType": "string",
          "name": "category",
          "type": "string"
        },
        {
          "internalType": "uint8",
          "name": "status",
          "type": "uint8"
        },
        {
          "internalType": "uint256",
          "name": "listedAt",
          "type": "uint256"
        },
        {
          "internalType": "uint256",
          "name": "expiresAt",
          "type": "uint256"
        }
      ],
      "stateMutability": "view",
      "type": "function"
    },
    {
      "inputs": [],
      "name": "owner",
      "outputs": [
        {
          "internalType": "address",
          "name": "",
          "type": "address"
        }
      ],
      "stateMutability": "view",
      "type": "function"
    },
    {
      "inputs": [],
      "name": "renounceOwnership",
      "outputs": [],
      "stateMutability": "nonpayable",
      "type": "function"
    },
    {
      "inputs": [],
      "name": "reputationOracle",
      "outputs": [
        {
          "internalType": "address",
          "name": "",
          "type": "address"
        }
      ],
      "stateMutability": "view",
      "type": "function"
    },
    {
      "inputs": [],
      "name": "saleCount",
      "outputs": [
        {
          "internalType": "uint256",
          "name": "",
          "type": "uint256"
        }
      ],
      "stateMutability": "view",
      "type": "function"
    },
    {
      "inputs": [
        {
          "internalType": "uint256",
          "name": "",
          "type": "uint256"
        }
      ],
      "name": "sales",
      "outputs": [
        {
          "internalType": "uint256",
          "name": "saleId",
          "type": "uint256"
        },
        {
          "internalType": "uint256",
          "name": "listingId",
          "type": "uint256"
        },
        {
          "internalType": "address",
          "name": "buyer",
          "type": "address"
        },
        {
          "internalType": "address",
          "name": "seller",
          "type": "address"
        },
        {
          "internalType": "uint256",
          "name": "price",
          "type": "uint256"
        },
        {
          "internalType": "uint256",
          "name": "timestamp",
          "type": "uint256"
        },
        {
          "internalType": "uint256",
          "name": "platformFee",
          "type": "uint256"
        },
        {
          "internalType": "uint256",
          "name": "creatorRoyalty",
          "type": "uint256"
        }
      ],
      "stateMutability": "view",
      "type": "function"
    },
    {
      "inputs": [
        {
          "internalType": "address",
          "name": "",
          "type": "address"
        }
      ],
      "name": "sellerVolume",
      "outputs": [
        {
          "internalType": "uint256",
          "name": "",
          "type": "uint256"
        }
      ],
      "stateMutability": "view",
      "type": "function"
    },
    {
      "inputs": [
        {
          "internalType": "address",
          "name": "nftContract",
          "type": "address"
        },
        {
          "internalType": "uint256",
          "name": "tokenId",
          "type": "uint256"
        },
        {
          "internalType": "uint256",
          "name": "royaltyBps",
          "type": "uint256"
        }
      ],
      "name": "setCreatorRoyalty",
      "outputs": [],
      "stateMutability": "nonpayable",
      "type": "function"
    },
    {
      "inputs": [],
      "name": "totalVolume",
      "outputs": [
        {
          "internalType": "uint256",
          "name": "",
          "type": "uint256"
        }
      ],
      "stateMutability": "view",
      "type": "function"
    },
    {
      "inputs": [
        {
          "internalType": "address",
          "name": "newOwner",
          "type": "address"
        }
      ],
      "name": "transferOwnership",
      "outputs": [],
      "stateMutability": "nonpayable",
      "type": "function"
    },
    {
      "inputs": [
        {
          "internalType": "uint256",
          "name": "listingId",
          "type": "uint256"
        },
        {
          "internalType": "uint256",
          "name": "newPrice",
          "type": "uint256"
        }
      ],
      "name": "updatePrice",
      "outputs": [],
      "stateMutability": "nonpayable",
      "type": "function"
    },
    {
      "inputs": [
        {
          "internalType": "address",
          "name": "",
          "type": "address"
        },
        {
          "internalType": "uint256",
          "name": "",
          "type": "uint256"
        }
      ],
      "name": "userListings",
      "outputs": [
        {
          "internalType": "uint256",
          "name": "",
          "type": "uint256"
        }
      ],
      "stateMutability": "view",
      "type": "function"
    }
  ],
  "bytecode": "0x6080346100d257601f6122ce38819003918201601f19168301916001600160401b038311848410176100d7578084926020946040528339810103126100d257516001600160a01b0390818116908190036100d257600160005533156100b95760018054336001600160a01b03198083168217909355604051949091167f8be0079c531659141344cd1fd0a4f28419497f9722a3daafe3b4186f6b6457e0600080a360fa600a55600b541617600b556121e090816100ee8239f35b604051631e4fbdf760e01b815260006004820152602490fd5b600080fd5b634e487b7160e01b600052604160045260246000fdfe608080604052600436101561001357600080fd5b600090813560e01c9081632f64acbb14611ae357508063305a67a814611a3d5780635f81a57c14611a1f578063715018a61461199f5780637c5d67051461195a57806382367b2d146118c257806386cfa7d31461185f5780638da5cb5b1461182b578063961645231461180d578063a1e89aec146117ef578063a6f03cbc14610ec4578063a9b07c2614610ea6578063b5f522f714610e15578063c128b23114610a6d578063c650505114610a1e578063d73792a914610a01578063de74e57b14610928578063e7fb74c7146102c3578063eb18a9d814610204578063f2fde38b1461013e5763fad844c11461010857600080fd5b3461013b578060031936011261013b57602073ffffffffffffffffffffffffffffffffffffffff600b5416604051908152f35b80fd5b503461013b57602060031936011261013b57610158611b99565b610160611e71565b73ffffffffffffffffffffffffffffffffffffffff8091169081156101d357600154827fffffffffffffffffffffffff0000000000000000000000000000000000000000821617600155167f8be0079c531659141344cd1fd0a4f28419497f9722a3daafe3b4186f6b6457e0600080a380f35b602483604051907f1e4fbdf70000000000000000000000000000000000000000000000000000000082526004820152fd5b503461013b576020806003193601126102bf5773ffffffffffffffffffffffffffffffffffffffff610234611b99565b168252600481526040822060405192838383549182815201908193835284832090835b8181106102ab575050508461026d910385611c7e565b60405193838594850191818652518092526040850193925b82811061029457505050500390f35b835185528695509381019392810192600101610285565b825484529286019260019283019201610257565b5080fd5b50602060031936011261013b5760028154146108fe57600281556004358152600260205260408120906008820180546102ff60ff821615612045565b600a84015442116108a0576005840191825491823410610842577fffffffffffffffffffffffffffffffffffffffffffffffffffffffffffffff00600191161790556001840190612710610355600a548361211c565b048091600287019061039a73ffffffffffffffffffffffffffffffffffffffff8354169161039561038d8260038d019586549061212f565b9687926120aa565b6120aa565b916103a6600854611fd0565b8060085573ffffffffffffffffffffffffffffffffffffffff875416908854604051928361010081011067ffffffffffffffff6101008601111761081557600792899289928e61010088016040528388526020880160043581526040808a019233845260608b0194855260808b0195865260a08b019642885260c08c0198895260e08c01998a5281526003602052209851895551600189015573ffffffffffffffffffffffffffffffffffffffff60028901915116907fffffffffffffffffffffffff0000000000000000000000000000000000000000918282541617905573ffffffffffffffffffffffffffffffffffffffff60038901925116908254161790555160048601555160058501555160068401555191015560ff60068a0154169860028a10156107e85788999896979815600014610714575073ffffffffffffffffffffffffffffffffffffffff9054169073ffffffffffffffffffffffffffffffffffffffff8754169054823b1561071057606487928360405195869485937f42842e0e000000000000000000000000000000000000000000000000000000008552600485015233602485015260448401525af19081156107055785916106ed575b50808080935b73ffffffffffffffffffffffffffffffffffffffff8954168282156106e4575bf1156106c757828080809373ffffffffffffffffffffffffffffffffffffffff600154168282156106db575bf11561067d578015908115610693575b50505073ffffffffffffffffffffffffffffffffffffffff8254915416835260056020526105fe6040842091825461202c565b905561060d815460095461202c565b600955818154803411610659575b5050600854905460405190815233917f8438a66ac04db2e2324d5927beca96c400ee09b811c5da2b153d4fa7412628e5602060043593a46001815580f35b81806106668193346120aa565b81811561068a575b3390f11561067d57813861061b565b50604051903d90823e3d90fd5b506108fc61066e565b82809291819273ffffffffffffffffffffffffffffffffffffffff8754169083906106d2575bf1156106c7578238806105cb565b6040513d84823e3d90fd5b506108fc6106b9565b506108fc6105bb565b506108fc61058f565b6106f690611c6a565b610701578338610569565b8380fd5b6040513d87823e3d90fd5b8680fd5b9073ffffffffffffffffffffffffffffffffffffffff909692939495965416600473ffffffffffffffffffffffffffffffffffffffff895416945492015493813b15610701578360c49260405196879586947ff242432a00000000000000000000000000000000000000000000000000000000865260048601523360248601526044850152606484015260a060848401528160a48401525af180156107dd576107c6575b50908580808080969561056f565b6107d4909691939296611c6a565b949091386107b8565b6040513d89823e3d90fd5b6024897f4e487b710000000000000000000000000000000000000000000000000000000081526021600452fd5b60248c7f4e487b710000000000000000000000000000000000000000000000000000000081526041600452fd5b60646040517f08c379a000000000000000000000000000000000000000000000000000000000815260206004820152601460248201527f496e73756666696369656e74207061796d656e740000000000000000000000006044820152fd5b60646040517f08c379a000000000000000000000000000000000000000000000000000000000815260206004820152600760248201527f45787069726564000000000000000000000000000000000000000000000000006044820152fd5b60046040517f3ee5aeb5000000000000000000000000000000000000000000000000000000008152fd5b503461013b57602060031936011261013b576040906004358152600260205220805473ffffffffffffffffffffffffffffffffffffffff9182600182015416926002820154166003820154916109ea60048201546109d9600584015460ff6006860154169061099960078701611dac565b9360ff60088801541698600a6009890154980154986040519c8d9c8d5260208d015260408c015260608b015260808a015260a089015260c0880190611cbf565b6101608060e0880152860190611cfb565b926101008501526101208401526101408301520390f35b503461013b578060031936011261013b5760206040516127108152f35b503461013b57604060031936011261013b57604060209173ffffffffffffffffffffffffffffffffffffffff610a52611b99565b16815260068352818120602435825283522054604051908152f35b503461013b57610a7c36611bc1565b9180916001926007948554945b85811115610dc1575080821015610db95750935b610aa68561217e565b92610ab46040519485611c7e565b8584527fffffffffffffffffffffffffffffffffffffffffffffffffffffffffffffffe0610ae18761217e565b01815b818110610d5d5750508092819660015b8781111580610d54575b15610c4457808452600260208181526040862060ff90600890828282015416159081610c35575b50610b3d575b50505050610b3890611fd0565b610af4565b868d9a959a10610c1d57610b389492610c139492600a928c8b5284835260408b209260405195610b6c87611c1e565b8454875273ffffffffffffffffffffffffffffffffffffffff9182600187015416908801528401541660408601526003830154606086015260048301546080860152600583015460a0860152610bcb8260068501541660c08701612039565b610bd68c8401611dac565b60e08601528201541661010084015260098101546101208401520154610140820152610c02828b612196565b52610c0d818a612196565b50611fd0565b9590388080610b2b565b505050509497610c2f610b3891611fd0565b98611fd0565b600a9150015442111538610b25565b60408051602080825289518183018190528793600582901b8401810192808d01929185015b828710610c765785850386f35b909192938280827fffffffffffffffffffffffffffffffffffffffffffffffffffffffffffffffc089600195030185528751908151815273ffffffffffffffffffffffffffffffffffffffff808484015116848301526040830151166040820152606080830151908201526080808301519082015260a08083015190820152610d0760c08084015190830190611cbf565b610d2060e08301516101608060e0850152830190611cfb565b9161010060ff8183015116908301526101208082015190830152610140809101519101529601920196019592919092610c69565b50818610610afe565b602090604051610d6c81611c1e565b848152828581830152856040830152606086818401528660808401528660a08401528660c084015260e0830152856101008301528561012083015285610140830152828901015201610ae4565b905093610a9d565b80855260026020526040852060ff600882015416159081610e06575b50610df1575b610dec90611fd0565b610a89565b91610dfe610dec91611fd0565b929050610de3565b600a9150015442111538610ddd565b503461013b57602060031936011261013b57604061010091600435815260036020522080549060018101549073ffffffffffffffffffffffffffffffffffffffff80600283015416906003830154166004830154906005840154926007600686015495015495604051978852602088015260408701526060860152608085015260a084015260c083015260e0820152f35b503461013b578060031936011261013b576020600754604051908152f35b503461013b5760e060031936011261013b57610ede611b99565b600260843510156102bf5760c4359067ffffffffffffffff82116117be57366023830112156117be5781600401359167ffffffffffffffff83116117c257839060405193610f5460207fffffffffffffffffffffffffffffffffffffffffffffffffffffffffffffffe0601f8401160186611c7e565b80855236602482840101116117be57806024602093018387013784010152610f7f6064351515611ec2565b608435611645576040517f6352211e000000000000000000000000000000000000000000000000000000008152602435600482015260208160248173ffffffffffffffffffffffffffffffffffffffff86165afa90811561158e578491611626575b5073ffffffffffffffffffffffffffffffffffffffff339116036115c8576040517fe985e9c500000000000000000000000000000000000000000000000000000000815233600482015230602482015260208160448173ffffffffffffffffffffffffffffffffffffffff86165afa90811561158e578491611599575b5080156114e0575b61106f90611f3f565b61107a600754611fd0565b918260075561108b60a4354261202c565b6040519161109883611c1e565b84835233602084015273ffffffffffffffffffffffffffffffffffffffff841660408401526024356060840152604435608084015260643560a08401526110e460843560c08501612039565b60e0830152846101008301524261012083015261014082015282845260026020526040842090805182556001820173ffffffffffffffffffffffffffffffffffffffff602083015116907fffffffffffffffffffffffff00000000000000000000000000000000000000009182825416179055600283019073ffffffffffffffffffffffffffffffffffffffff60408401511690825416179055606081015160038301556080810151600483015560a081015160058301556006820160c082015160028110156114b35760ff7fffffffffffffffffffffffffffffffffffffffffffffffffffffffffffffff00835416911617905560e081015180519067ffffffffffffffff8211611486576111fd6007850154611d59565b601f8111611442575b50602090601f8311600114611396579180600a9492610140948a9261138b575b50507fffffffffffffffffffffffffffffffffffffffffffffffffffffffffffffffff8260011b9260031b1c19161760078501555b6008840160ff610100830151167fffffffffffffffffffffffffffffffffffffffffffffffffffffffffffffff00825416179055610120810151600985015501519101553383526004602052604083208054936801000000000000000085101561135e5750836112d2916001602096018155611bd7565b81549060031b907fffffffffffffffffffffffffffffffffffffffffffffffffffffffffffffffff85831b921b191617905573ffffffffffffffffffffffffffffffffffffffff60405191168152602435838201526064356040820152817f723f73331eaee88eec7fc68ef60ab6ed15e4b90d0472b55eb92fa43910bab6dd60603393a3604051908152f35b807f4e487b7100000000000000000000000000000000000000000000000000000000602492526041600452fd5b015190503880611226565b6007850188526020882091907fffffffffffffffffffffffffffffffffffffffffffffffffffffffffffffffe08416895b81811061142a575092600192859261014096600a9896106113f3575b505050811b01600785015561125b565b01517fffffffffffffffffffffffffffffffffffffffffffffffffffffffffffffffff60f88460031b161c191690553880806113e3565b929360206001819287860151815501950193016113c7565b60078501885260208820601f840160051c81016020851061147f575b601f830160051c82018110611474575050611206565b89815560010161145e565b508061145e565b6024877f4e487b710000000000000000000000000000000000000000000000000000000081526041600452fd5b6024877f4e487b710000000000000000000000000000000000000000000000000000000081526021600452fd5b506040517f081812fc000000000000000000000000000000000000000000000000000000008152602435600482015260208160248173ffffffffffffffffffffffffffffffffffffffff86165afa801561158e5761106f91859161155f575b5073ffffffffffffffffffffffffffffffffffffffff1630149050611066565b611581915060203d602011611587575b6115798183611c7e565b810190611fa4565b3861153f565b503d61156f565b6040513d86823e3d90fd5b6115bb915060203d6020116115c1575b6115b38183611c7e565b810190611f27565b3861105e565b503d6115a9565b60646040517f08c379a000000000000000000000000000000000000000000000000000000000815260206004820152600960248201527f4e6f74206f776e657200000000000000000000000000000000000000000000006044820152fd5b61163f915060203d602011611587576115798183611c7e565b38610fe1565b6040517efdd58e000000000000000000000000000000000000000000000000000000008152336004820152602435602482015273ffffffffffffffffffffffffffffffffffffffff821690602081604481855afa908115610705578591611788575b506044351161172a576040517fe985e9c500000000000000000000000000000000000000000000000000000000815233600482015230602482015290602090829060449082905afa801561158e5761170691859161170b575b50611f3f565b61106f565b611724915060203d6020116115c1576115b38183611c7e565b38611700565b60646040517f08c379a000000000000000000000000000000000000000000000000000000000815260206004820152601460248201527f496e73756666696369656e742062616c616e63650000000000000000000000006044820152fd5b90506020813d6020116117b6575b816117a360209383611c7e565b810103126117b25751386116a7565b8480fd5b3d9150611796565b8280fd5b6024847f4e487b710000000000000000000000000000000000000000000000000000000081526041600452fd5b503461013b578060031936011261013b576020600854604051908152f35b503461013b578060031936011261013b576020600a54604051908152f35b503461013b578060031936011261013b57602073ffffffffffffffffffffffffffffffffffffffff60015416604051908152f35b503461013b57604060031936011261013b57611879611b99565b73ffffffffffffffffffffffffffffffffffffffff1681526004602052604081208054602435929083101561013b5760206118b48484611bd7565b90546040519160031b1c8152f35b503461013b5760407f15819dd2fd9f6418b142e798d08a18d0bf06ea368f4480b7b0d3f75bd966bc486118f436611bc1565b8185949294526002602052600582862061192973ffffffffffffffffffffffffffffffffffffffff60018301541633146120b7565b61193a60ff60088301541615612045565b611945831515611ec2565b0190808254925582519182526020820152a280f35b503461013b57602060031936011261013b57604060209173ffffffffffffffffffffffffffffffffffffffff61198e611b99565b168152600583522054604051908152f35b503461013b578060031936011261013b576119b8611e71565b8073ffffffffffffffffffffffffffffffffffffffff6001547fffffffffffffffffffffffff00000000000000000000000000000000000000008116600155167f8be0079c531659141344cd1fd0a4f28419497f9722a3daafe3b4186f6b6457e08280a380f35b503461013b578060031936011261013b576020600954604051908152f35b503461013b57602060031936011261013b576004358082526002602052600860408320611a8573ffffffffffffffffffffffffffffffffffffffff60018301541633146120b7565b0160027fffffffffffffffffffffffffffffffffffffffffffffffffffffffffffffff008254611ab860ff821615612045565b161790557fc40fdc946efe80191c467f60727c4abc08254a056035d467a4516a86005ab7638280a280f35b9050346102bf5760606003193601126102bf57611afe611b99565b604435916103e88311611b3d575073ffffffffffffffffffffffffffffffffffffffff1682526006602052604082206024358352602052604082205580f35b807f08c379a0000000000000000000000000000000000000000000000000000000006064925260206004820152600760248201527f4d617820313025000000000000000000000000000000000000000000000000006044820152fd5b6004359073ffffffffffffffffffffffffffffffffffffffff82168203611bbc57565b600080fd5b6003196040910112611bbc576004359060243590565b8054821015611bef5760005260206000200190600090565b7f4e487b7100000000000000000000000000000000000000000000000000000000600052603260045260246000fd5b610160810190811067ffffffffffffffff821117611c3b57604052565b7f4e487b7100000000000000000000000000000000000000000000000000000000600052604160045260246000fd5b67ffffffffffffffff8111611c3b57604052565b90601f7fffffffffffffffffffffffffffffffffffffffffffffffffffffffffffffffe0910116810190811067ffffffffffffffff821117611c3b57604052565b906002821015611ccc5752565b7f4e487b7100000000000000000000000000000000000000000000000000000000600052602160045260246000fd5b919082519283825260005b848110611d455750507fffffffffffffffffffffffffffffffffffffffffffffffffffffffffffffffe0601f8460006020809697860101520116010190565b602081830181015184830182015201611d06565b90600182811c92168015611da2575b6020831014611d7357565b7f4e487b7100000000000000000000000000000000000000000000000000000000600052602260045260246000fd5b91607f1691611d68565b9060405191826000825492611dc084611d59565b908184526001948581169081600014611e2f5750600114611dec575b5050611dea92500383611c7e565b565b9093915060005260209081600020936000915b818310611e17575050611dea93508201013880611ddc565b85548884018501529485019487945091830191611dff565b9050611dea9550602093507fffffffffffffffffffffffffffffffffffffffffffffffffffffffffffffff0091501682840152151560051b8201013880611ddc565b73ffffffffffffffffffffffffffffffffffffffff600154163303611e9257565b60246040517f118cdaa7000000000000000000000000000000000000000000000000000000008152336004820152fd5b15611ec957565b60646040517f08c379a000000000000000000000000000000000000000000000000000000000815260206004820152601160248201527f5072696365206d757374206265203e20300000000000000000000000000000006044820152fd5b90816020910312611bbc57518015158103611bbc5790565b15611f4657565b60646040517f08c379a000000000000000000000000000000000000000000000000000000000815260206004820152600c60248201527f4e6f7420617070726f76656400000000000000000000000000000000000000006044820152fd5b90816020910312611bbc575173ffffffffffffffffffffffffffffffffffffffff81168103611bbc5790565b7fffffffffffffffffffffffffffffffffffffffffffffffffffffffffffffffff8114611ffd5760010190565b7f4e487b7100000000000000000000000000000000000000000000000000000000600052601160045260246000fd5b91908201809211611ffd57565b6002821015611ccc5752565b1561204c57565b60646040517f08c379a000000000000000000000000000000000000000000000000000000000815260206004820152600a60248201527f4e6f7420616374697665000000000000000000000000000000000000000000006044820152fd5b91908203918211611ffd57565b156120be57565b60646040517f08c379a000000000000000000000000000000000000000000000000000000000815260206004820152600a60248201527f4e6f742073656c6c6572000000000000000000000000000000000000000000006044820152fd5b81810292918115918404141715611ffd57565b73ffffffffffffffffffffffffffffffffffffffff16600052600660205260406000209060005260205260406000205490811561217757612710916121739161211c565b0490565b5050600090565b67ffffffffffffffff8111611c3b5760051b60200190565b8051821015611bef5760209160051b01019056fea264697066735822122005a9292417094870ba524f484e1d48c1dc09ff1c377751f42af05447e345858664736f6c63430008140033",
  "linkReferences": {},
  "deployedLinkReferences": {}
}