{
  "_format": "hh-sol-artifact-1",
  "contractName": "BehaviorMarketplace",
  "sourceName": "contracts/layer3/intelligence/BehaviorMarketplace.sol",
  "abi": [
    {
      "inputs": [],
      "stateMutability": "nonpayable",
      "type": "constructor"
    },
    {
      "inputs": [
        {
          "internalType": "address",
          "name": "sender",
          "type": "address"
        },
        {
          "internalType": "uint256",
          "name": "tokenId",
          "type": "uint256"
        },
        {
          "internalType": "address",
          "name": "owner",
          "type": "address"
        }
      ],
      "name": "ERC721IncorrectOwner",
      "type": "error"
    },
    {
      "inputs": [
        {
          "internalType": "address",
          "name": "operator",
          "type": "address"
        },
        {
          "internalType": "uint256",
          "name": "tokenId",
          "type": "uint256"
        }
      ],
      "name": "ERC721InsufficientApproval",
      "type": "error"
    },
    {
      "inputs": [
        {
          "internalType": "address",
          "name": "approver",
          "type": "address"
        }
      ],
      "name": "ERC721InvalidApprover",
      "type": "error"
    },
    {
      "inputs": [
        {
          "internalType": "address",
          "name": "operator",
          "type": "address"
        }
      ],
      "name": "ERC721InvalidOperator",
      "type": "error"
    },
    {
      "inputs": [
        {
          "internalType": "address",
          "name": "owner",
          "type": "address"
        }
      ],
      "name": "ERC721InvalidOwner",
      "type": "error"
    },
    {
      "inputs": [
        {
          "internalType": "address",
          "name": "receiver",
          "type": "address"
        }
      ],
      "name": "ERC721InvalidReceiver",
      "type": "error"
    },
    {
      "inputs": [
        {
          "internalType": "address",
          "name": "sender",
          "type": "address"
        }
      ],
      "name": "ERC721InvalidSender",
      "type": "error"
    },
    {
      "inputs": [
        {
          "internalType": "uint256",
          "name": "tokenId",
          "type": "uint256"
        }
      ],
      "name": "ERC721NonexistentToken",
      "type": "error"
    },
    {
      "inputs": [
        {
          "internalType": "address",
          "name": "owner",
          "type": "address"
        }
      ],
      "name": "OwnableInvalidOwner",
      "type": "error"
    },
    {
      "inputs": [
        {
          "internalType": "address",
          "name": "account",
          "type": "address"
        }
      ],
      "name": "OwnableUnauthorizedAccount",
      "type": "error"
    },
    {
      "inputs": [],
      "name": "ReentrancyGuardReentrantCall",
      "type": "error"
    },
    {
      "anonymous": false,
      "inputs": [
        {
          "indexed": true,
          "internalType": "address",
          "name": "owner",
          "type": "address"
        },
        {
          "indexed": true,
          "internalType": "address",
          "name": "approved",
          "type": "address"
        },
        {
          "indexed": true,
          "internalType": "uint256",
          "name": "tokenId",
          "type": "uint256"
        }
      ],
      "name": "Approval",
      "type": "event"
    },
    {
      "anonymous": false,
      "inputs": [
        {
          "indexed": true,
          "internalType": "address",
          "name": "owner",
          "type": "address"
        },
        {
          "indexed": true,
          "internalType": "address",
          "name": "operator",
          "type": "address"
        },
        {
          "indexed": false,
          "internalType": "bool",
          "name": "approved",
          "type": "bool"
        }
      ],
      "name": "ApprovalForAll",
      "type": "event"
    },
    {
      "anonymous": false,
      "inputs": [
        {
          "indexed": true,
          "internalType": "uint256",
          "name": "behaviorId",
          "type": "uint256"
        },
        {
          "indexed": false,
          "internalType": "address",
          "name": "executor",
          "type": "address"
        },
        {
          "indexed": false,
          "internalType": "bool",
          "name": "success",
          "type": "bool"
        }
      ],
      "name": "BehaviorExecuted",
      "type": "event"
    },
    {
      "anonymous": false,
      "inputs": [
        {
          "indexed": true,
          "internalType": "uint256",
          "name": "behaviorId",
          "type": "uint256"
        },
        {
          "indexed": false,
          "internalType": "address",
          "name": "seller",
          "type": "address"
        },
        {
          "indexed": false,
          "internalType": "uint256",
          "name": "price",
          "type": "uint256"
        }
      ],
      "name": "BehaviorListed",
      "type": "event"
    },
    {
      "anonymous": false,
      "inputs": [
        {
          "indexed": true,
          "internalType": "uint256",
          "name": "behaviorId",
          "type": "uint256"
        },
        {
          "indexed": true,
          "internalType": "address",
          "name": "creator",
          "type": "address"
        },
        {
          "indexed": false,
          "internalType": "string",
          "name": "name",
          "type": "string"
        },
        {
          "indexed": false,
          "internalType": "enum BehaviorMarketplace.BehaviorType",
          "name": "behaviorType",
          "type": "uint8"
        },
        {
          "indexed": false,
          "internalType": "bytes32",
          "name": "codeHash",
          "type": "bytes32"
        },
        {
          "indexed": false,
          "internalType": "uint256",
          "name": "initialPrice",
          "type": "uint256"
        },
        {
          "indexed": false,
          "internalType": "uint256",
          "name": "royaltyBps",
          "type": "uint256"
        }
      ],
      "name": "BehaviorMinted",
      "type": "event"
    },
    {
      "anonymous": false,
      "inputs": [
        {
          "indexed": true,
          "internalType": "uint256",
          "name": "behaviorId",
          "type": "uint256"
        },
        {
          "indexed": true,
          "internalType": "address",
          "name": "seller",
          "type": "address"
        },
        {
          "indexed": true,
          "internalType": "address",
          "name": "buyer",
          "type": "address"
        },
        {
          "indexed": false,
          "internalType": "uint256",
          "name": "price",
          "type": "uint256"
        },
        {
          "indexed": false,
          "internalType": "uint256",
          "name": "royaltyPaid",
          "type": "uint256"
        }
      ],
      "name": "BehaviorSold",
      "type": "event"
    },
    {
      "anonymous": false,
      "inputs": [
        {
          "indexed": true,
          "internalType": "uint256",
          "name": "behaviorId",
          "type": "uint256"
        },
        {
          "indexed": false,
          "internalType": "bytes32",
          "name": "newCodeHash",
          "type": "bytes32"
        },
        {
          "indexed": false,
          "internalType": "uint256",
          "name": "newVersion",
          "type": "uint256"
        }
      ],
      "name": "BehaviorUpdated",
      "type": "event"
    },
    {
      "anonymous": false,
      "inputs": [
        {
          "indexed": true,
          "internalType": "uint256",
          "name": "behaviorId",
          "type": "uint256"
        },
        {
          "indexed": false,
          "internalType": "address",
          "name": "seller",
          "type": "address"
        }
      ],
      "name": "ListingCancelled",
      "type": "event"
    },
    {
      "anonymous": false,
      "inputs": [
        {
          "indexed": true,
          "internalType": "address",
          "name": "previousOwner",
          "type": "address"
        },
        {
          "indexed": true,
          "internalType": "address",
          "name": "newOwner",
          "type": "address"
        }
      ],
      "name": "OwnershipTransferred",
      "type": "event"
    },
    {
      "anonymous": false,
      "inputs": [
        {
          "indexed": false,
          "internalType": "uint256",
          "name": "oldFeeBps",
          "type": "uint256"
        },
        {
          "indexed": false,
          "internalType": "uint256",
          "name": "newFeeBps",
          "type": "uint256"
        }
      ],
      "name": "PlatformFeeUpdated",
      "type": "event"
    },
    {
      "anonymous": false,
      "inputs": [
        {
          "indexed": true,
          "internalType": "uint256",
          "name": "behaviorId",
          "type": "uint256"
        },
        {
          "indexed": false,
          "internalType": "address",
          "name": "creator",
          "type": "address"
        },
        {
          "indexed": false,
          "internalType": "uint256",
          "name": "amount",
          "type": "uint256"
        }
      ],
      "name": "RoyaltyPaid",
      "type": "event"
    },
    {
      "anonymous": false,
      "inputs": [
        {
          "indexed": true,
          "internalType": "address",
          "name": "from",
          "type": "address"
        },
        {
          "indexed": true,
          "internalType": "address",
          "name": "to",
          "type": "address"
        },
        {
          "indexed": true,
          "internalType": "uint256",
          "name": "tokenId",
          "type": "uint256"
        }
      ],
      "name": "Transfer",
      "type": "event"
    },
    {
      "inputs": [],
      "name": "FEE_DENOMINATOR",
      "outputs": [
        {
          "internalType": "uint256",
          "name": "",
          "type": "uint256"
        }
      ],
      "stateMutability": "view",
      "type": "function"
    },
    {
      "inputs": [],
      "name": "MAX_ROYALTY_BPS",
      "outputs": [
        {
          "internalType": "uint256",
          "name": "",
          "type": "uint256"
        }
      ],
      "stateMutability": "view",
      "type": "function"
    },
    {
      "inputs": [
        {
          "internalType": "address",
          "name": "to",
          "type": "address"
        },
        {
          "internalType": "uint256",
          "name": "tokenId",
          "type": "uint256"
        }
      ],
      "name": "approve",
      "outputs": [],
      "stateMutability": "nonpayable",
      "type": "function"
    },
    {
      "inputs": [
        {
          "internalType": "address",
          "name": "owner",
          "type": "address"
        }
      ],
      "name": "balanceOf",
      "outputs": [
        {
          "internalType": "uint256",
          "name": "",
          "type": "uint256"
        }
      ],
      "stateMutability": "view",
      "type": "function"
    },
    {
      "inputs": [
        {
          "internalType": "uint256",
          "name": "",
          "type": "uint256"
        }
      ],
      "name": "behaviorStats",
      "outputs": [
        {
          "internalType": "uint256",
          "name": "totalExecutions",
          "type": "uint256"
        },
        {
          "internalType": "uint256",
          "name": "successfulExecutions",
          "type": "uint256"
        },
        {
          "internalType": "uint256",
          "name": "totalRevenue",
          "type": "uint256"
        },
        {
          "internalType": "uint256",
          "name": "averagePerformance",
          "type": "uint256"
        },
        {
          "internalType": "uint256",
          "name": "lastUsed",
          "type": "uint256"
        }
      ],
      "stateMutability": "view",
      "type": "function"
    },
    {
      "inputs": [
        {
          "internalType": "uint256",
          "name": "",
          "type": "uint256"
        }
      ],
      "name": "behaviors",
      "outputs": [
        {
          "internalType": "uint256",
          "name": "id",
          "type": "uint256"
        },
        {
          "internalType": "string",
          "name": "name",
          "type": "string"
        },
        {
          "internalType": "enum BehaviorMarketplace.BehaviorType",
          "name": "behaviorType",
          "type": "uint8"
        },
        {
          "internalType": "address",
          "name": "creator",
          "type": "address"
        },
        {
          "internalType": "bytes32",
          "name": "codeHash",
          "type": "bytes32"
        },
        {
          "internalType": "uint256",
          "name": "price",
          "type": "uint256"
        },
        {
          "internalType": "uint256",
          "name": "usageCount",
          "type": "uint256"
        },
        {
          "internalType": "uint256",
          "name": "successRate",
          "type": "uint256"
        },
        {
          "internalType": "uint256",
          "name": "createdAt",
          "type": "uint256"
        },
        {
          "internalType": "uint256",
          "name": "version",
          "type": "uint256"
        },
        {
          "internalType": "bool",
          "name": "isListed",
          "type": "bool"
        },
        {
          "internalType": "uint256",
          "name": "royaltyBps",
          "type": "uint256"
        }
      ],
      "stateMutability": "view",
      "type": "function"
    },
    {
      "inputs": [
        {
          "internalType": "uint256",
          "name": "behaviorId",
          "type": "uint256"
        }
      ],
      "name": "buyBehavior",
      "outputs": [],
      "stateMutability": "payable",
      "type": "function"
    },
    {
      "inputs": [
        {
          "internalType": "uint256",
          "name": "behaviorId",
          "type": "uint256"
        }
      ],
      "name": "cancelListing",
      "outputs": [],
      "stateMutability": "nonpayable",
      "type": "function"
    },
    {
      "inputs": [
        {
          "internalType": "address",
          "name": "",
          "type": "address"
        },
        {
          "internalType": "uint256",
          "name": "",
          "type": "uint256"
        }
      ],
      "name": "creatorBehaviors",
      "outputs": [
        {
          "internalType": "uint256",
          "name": "",
          "type": "uint256"
        }
      ],
      "stateMutability": "view",
      "type": "function"
    },
    {
      "inputs": [
        {
          "internalType": "uint256",
          "name": "tokenId",
          "type": "uint256"
        }
      ],
      "name": "getApproved",
      "outputs": [
        {
          "internalType": "address",
          "name": "",
          "type": "address"
        }
      ],
      "stateMutability": "view",
      "type": "function"
    },
    {
      "inputs": [
        {
          "internalType": "uint256",
          "name": "behaviorId",
          "type": "uint256"
        }
      ],
      "name": "getBehavior",
      "outputs": [
        {
          "components": [
            {
              "internalType": "uint256",
              "name": "id",
              "type": "uint256"
            },
            {
              "internalType": "string",
              "name": "name",
              "type": "string"
            },
            {
              "internalType": "enum BehaviorMarketplace.BehaviorType",
              "name": "behaviorType",
              "type": "uint8"
            },
            {
              "internalType": "address",
              "name": "creator",
              "type": "address"
            },
            {
              "internalType": "bytes32",
              "name": "codeHash",
              "type": "bytes32"
            },
            {
              "internalType": "uint256",
              "name": "price",
              "type": "uint256"
            },
            {
              "internalType": "uint256",
              "name": "usageCount",
              "type": "uint256"
            },
            {
              "internalType": "uint256",
              "name": "successRate",
              "type": "uint256"
            },
            {
              "internalType": "uint256",
              "name": "createdAt",
              "type": "uint256"
            },
            {
              "internalType": "uint256",
              "name": "version",
              "type": "uint256"
            },
            {
              "internalType": "bool",
              "name": "isListed",
              "type": "bool"
            },
            {
              "internalType": "uint256",
              "name": "royaltyBps",
              "type": "uint256"
            }
          ],
          "internalType": "struct BehaviorMarketplace.Behavior",
          "name": "",
          "type": "tuple"
        }
      ],
      "stateMutability": "view",
      "type": "function"
    },
    {
      "inputs": [
        {
          "internalType": "uint256",
          "name": "behaviorId",
          "type": "uint256"
        }
      ],
      "name": "getBehaviorStats",
      "outputs": [
        {
          "components": [
            {
              "internalType": "uint256",
              "name": "totalExecutions",
              "type": "uint256"
            },
            {
              "internalType": "uint256",
              "name": "successfulExecutions",
              "type": "uint256"
            },
            {
              "internalType": "uint256",
              "name": "totalRevenue",
              "type": "uint256"
            },
            {
              "internalType": "uint256",
              "name": "averagePerformance",
              "type": "uint256"
            },
            {
              "internalType": "uint256",
              "name": "lastUsed",
              "type": "uint256"
            }
          ],
          "internalType": "struct BehaviorMarketplace.BehaviorStats",
          "name": "",
          "type": "tuple"
        }
      ],
      "stateMutability": "view",
      "type": "function"
    },
    {
      "inputs": [
        {
          "internalType": "address",
          "name": "creator",
          "type": "address"
        }
      ],
      "name": "getCreatorBehaviors",
      "outputs": [
        {
          "internalType": "uint256[]",
          "name": "",
          "type": "uint256[]"
        }
      ],
      "stateMutability": "view",
      "type": "function"
    },
    {
      "inputs": [],
      "name": "getListedBehaviors",
      "outputs": [
        {
          "internalType": "uint256[]",
          "name": "",
          "type": "uint256[]"
        }
      ],
      "stateMutability": "view",
      "type": "function"
    },
    {
      "inputs": [
        {
          "internalType": "uint256",
          "name": "behaviorId",
          "type": "uint256"
        },
        {
          "internalType": "address",
          "name": "user",
          "type": "address"
        }
      ],
      "name": "hasLicense",
      "outputs": [
        {
          "internalType": "bool",
          "name": "",
          "type": "bool"
        }
      ],
      "stateMutability": "view",
      "type": "function"
    },
    {
      "inputs": [
        {
          "internalType": "address",
          "name": "owner",
          "type": "address"
        },
        {
          "internalType": "address",
          "name": "operator",
          "type": "address"
        }
      ],
      "name": "isApprovedForAll",
      "outputs": [
        {
          "internalType": "bool",
          "name": "",
          "type": "bool"
        }
      ],
      "stateMutability": "view",
      "type": "function"
    },
    {
      "inputs": [
        {
          "internalType": "uint256",
          "name": "behaviorId",
          "type": "uint256"
        }
      ],
      "name": "licenseBehavior",
      "outputs": [],
      "stateMutability": "payable",
      "type": "function"
    },
    {
      "inputs": [
        {
          "internalType": "uint256",
          "name": "",
          "type": "uint256"
        },
        {
          "internalType": "uint256",
          "name": "",
          "type": "uint256"
        }
      ],
      "name": "licensees",
      "outputs": [
        {
          "internalType": "address",
          "name": "",
          "type": "address"
        }
      ],
      "stateMutability": "view",
      "type": "function"
    },
    {
      "inputs": [
        {
          "internalType": "uint256",
          "name": "behaviorId",
          "type": "uint256"
        },
        {
          "internalType": "uint256",
          "name": "price",
          "type": "uint256"
        }
      ],
      "name": "listBehavior",
      "outputs": [],
      "stateMutability": "nonpayable",
      "type": "function"
    },
    {
      "inputs": [
        {
          "internalType": "uint256",
          "name": "",
          "type": "uint256"
        }
      ],
      "name": "listings",
      "outputs": [
        {
          "internalType": "uint256",
          "name": "behaviorId",
          "type": "uint256"
        },
        {
          "internalType": "address",
          "name": "seller",
          "type": "address"
        },
        {
          "internalType": "uint256",
          "name": "price",
          "type": "uint256"
        },
        {
          "internalType": "bool",
          "name": "isActive",
          "type": "bool"
        },
        {
          "internalType": "uint256",
          "name": "listedAt",
          "type": "uint256"
        }
      ],
      "stateMutability": "view",
      "type": "function"
    },
    {
      "inputs": [
        {
          "internalType": "string",
          "name": "name",
          "type": "string"
        },
        {
          "internalType": "enum BehaviorMarketplace.BehaviorType",
          "name": "behaviorType",
          "type": "uint8"
        },
        {
          "internalType": "bytes32",
          "name": "codeHash",
          "type": "bytes32"
        },
        {
          "internalType": "uint256",
          "name": "price",
          "type": "uint256"
        },
        {
          "internalType": "uint256",
          "name": "royaltyBps",
          "type": "uint256"
        }
      ],
      "name": "mintBehavior",
      "outputs": [
        {
          "internalType": "uint256",
          "name": "",
          "type": "uint256"
        }
      ],
      "stateMutability": "nonpayable",
      "type": "function"
    },
    {
      "inputs": [],
      "name": "name",
      "outputs": [
        {
          "internalType": "string",
          "name": "",
          "type": "string"
        }
      ],
      "stateMutability": "view",
      "type": "function"
    },
    {
      "inputs": [],
      "name": "owner",
      "outputs": [
        {
          "internalType": "address",
          "name": "",
          "type": "address"
        }
      ],
      "stateMutability": "view",
      "type": "function"
    },
    {
      "inputs": [
        {
          "internalType": "uint256",
          "name": "tokenId",
          "type": "uint256"
        }
      ],
      "name": "ownerOf",
      "outputs": [
        {
          "internalType": "address",
          "name": "",
          "type": "address"
        }
      ],
      "stateMutability": "view",
      "type": "function"
    },
    {
      "inputs": [],
      "name": "platformFeeBps",
      "outputs": [
        {
          "internalType": "uint256",
          "name": "",
          "type": "uint256"
        }
      ],
      "stateMutability": "view",
      "type": "function"
    },
    {
      "inputs": [
        {
          "internalType": "uint256",
          "name": "behaviorId",
          "type": "uint256"
        },
        {
          "internalType": "bool",
          "name": "success",
          "type": "bool"
        }
      ],
      "name": "recordExecution",
      "outputs": [],
      "stateMutability": "nonpayable",
      "type": "function"
    },
    {
      "inputs": [],
      "name": "renounceOwnership",
      "outputs": [],
      "stateMutability": "nonpayable",
      "type": "function"
    },
    {
      "inputs": [
        {
          "internalType": "address",
          "name": "from",
          "type": "address"
        },
        {
          "internalType": "address",
          "name": "to",
          "type": "address"
        },
        {
          "internalType": "uint256",
          "name": "tokenId",
          "type": "uint256"
        }
      ],
      "name": "safeTransferFrom",
      "outputs": [],
      "stateMutability": "nonpayable",
      "type": "function"
    },
    {
      "inputs": [
        {
          "internalType": "address",
          "name": "from",
          "type": "address"
        },
        {
          "internalType": "address",
          "name": "to",
          "type": "address"
        },
        {
          "internalType": "uint256",
          "name": "tokenId",
          "type": "uint256"
        },
        {
          "internalType": "bytes",
          "name": "data",
          "type": "bytes"
        }
      ],
      "name": "safeTransferFrom",
      "outputs": [],
      "stateMutability": "nonpayable",
      "type": "function"
    },
    {
      "inputs": [
        {
          "internalType": "address",
          "name": "operator",
          "type": "address"
        },
        {
          "internalType": "bool",
          "name": "approved",
          "type": "bool"
        }
      ],
      "name": "setApprovalForAll",
      "outputs": [],
      "stateMutability": "nonpayable",
      "type": "function"
    },
    {
      "inputs": [
        {
          "internalType": "uint256",
          "name": "newFeeBps",
          "type": "uint256"
        }
      ],
      "name": "setPlatformFee",
      "outputs": [],
      "stateMutability": "nonpayable",
      "type": "function"
    },
    {
      "inputs": [
        {
          "internalType": "bytes4",
          "name": "interfaceId",
          "type": "bytes4"
        }
      ],
      "name": "supportsInterface",
      "outputs": [
        {
          "internalType": "bool",
          "name": "",
          "type": "bool"
        }
      ],
      "stateMutability": "view",
      "type": "function"
    },
    {
      "inputs": [],
      "name": "symbol",
      "outputs": [
        {
          "internalType": "string",
          "name": "",
          "type": "string"
        }
      ],
      "stateMutability": "view",
      "type": "function"
    },
    {
      "inputs": [
        {
          "internalType": "uint256",
          "name": "tokenId",
          "type": "uint256"
        }
      ],
      "name": "tokenURI",
      "outputs": [
        {
          "internalType": "string",
          "name": "",
          "type": "string"
        }
      ],
      "stateMutability": "view",
      "type": "function"
    },
    {
      "inputs": [
        {
          "internalType": "address",
          "name": "from",
          "type": "address"
        },
        {
          "internalType": "address",
          "name": "to",
          "type": "address"
        },
        {
          "internalType": "uint256",
          "name": "tokenId",
          "type": "uint256"
        }
      ],
      "name": "transferFrom",
      "outputs": [],
      "stateMutability": "nonpayable",
      "type": "function"
    },
    {
      "inputs": [
        {
          "internalType": "address",
          "name": "newOwner",
          "type": "address"
        }
      ],
      "name": "transferOwnership",
      "outputs": [],
      "stateMutability": "nonpayable",
      "type": "function"
    },
    {
      "inputs": [
        {
          "internalType": "uint256",
          "name": "behaviorId",
          "type": "uint256"
        },
        {
          "internalType": "bytes32",
          "name": "newCodeHash",
          "type": "bytes32"
        }
      ],
      "name": "updateBehavior",
      "outputs": [],
      "stateMutability": "nonpayable",
      "type": "function"
    },
    {
      "inputs": [],
      "name": "withdrawFees",
      "outputs": [],
      "stateMutability": "nonpayable",
      "type": "function"
    }
  ],
  "bytecode": "0x608060405260fa600e553480156200001657600080fd5b50336040518060400160405280600c81526020016b27a0a7102132b430bb34b7b960a11b8152506040518060400160405280600481526020016327a0a72160e11b81525081600090816200006b9190620001ba565b5060016200007a8282620001ba565b5050506001600160a01b038116620000ac57604051631e4fbdf760e01b81526000600482015260240160405180910390fd5b620000b781620000c3565b50600160075562000286565b600680546001600160a01b038381166001600160a01b0319831681179093556040519116919082907f8be0079c531659141344cd1fd0a4f28419497f9722a3daafe3b4186f6b6457e090600090a35050565b634e487b7160e01b600052604160045260246000fd5b600181811c908216806200014057607f821691505b6020821081036200016157634e487b7160e01b600052602260045260246000fd5b50919050565b601f821115620001b557600081815260208120601f850160051c81016020861015620001905750805b601f850160051c820191505b81811015620001b1578281556001016200019c565b5050505b505050565b81516001600160401b03811115620001d657620001d662000115565b620001ee81620001e784546200012b565b8462000167565b602080601f8311600181146200022657600084156200020d5750858301515b600019600386901b1c1916600185901b178555620001b1565b600085815260208120601f198616915b82811015620002575788860151825594840194600190910190840162000236565b5085821015620002765787850151600019600388901b60f8161c191681555b5050505050600190811b01905550565b61316b80620002966000396000f3fe6080604052600436106102245760003560e01c80636352211e116101235780639bb4a790116100ab578063de74e57b1161006f578063de74e57b146106db578063e985e9c514610764578063f2fde38b14610784578063f43d2051146107a4578063fe399991146107d157600080fd5b80639bb4a79014610650578063a22cb46514610665578063b88d4fde14610685578063c87b56dd146106a5578063d73792a9146106c557600080fd5b8063782ee686116100f2578063782ee686146105ca57806389f868b5146105ea5780638cda9cd81461060a5780638da5cb5b1461061d57806395d89b411461063b57600080fd5b80636352211e146105555780636e06bbe81461057557806370a0823114610595578063715018a6146105b557600080fd5b806320a8879b116101b15780633dca40e6116101755780633dca40e6146104d757806342842e0e146104ed578063476343ee1461050d5780634b997fa21461052257806353142c8a1461054257600080fd5b806320a8879b146103c957806322dcd13e1461043b57806323b872dd1461045f578063305a67a81461047f578063385429f41461049f57600080fd5b8063081812fc116101f8578063081812fc146102c2578063095ea7b3146102fa57806311266fa41461031a57806311b36c611461034757806312e8e2c3146103a957600080fd5b80621f9d191461022957806301ffc9a71461024b578063048efc281461028057806306fdde03146102a0575b600080fd5b34801561023557600080fd5b506102496102443660046128df565b6107f1565b005b34801561025757600080fd5b5061026b610266366004612917565b6108a7565b60405190151581526020015b60405180910390f35b34801561028c57600080fd5b5061024961029b3660046128df565b6108f9565b3480156102ac57600080fd5b506102b5610aaf565b6040516102779190612984565b3480156102ce57600080fd5b506102e26102dd366004612997565b610b41565b6040516001600160a01b039091168152602001610277565b34801561030657600080fd5b506102496103153660046129cc565b610b6a565b34801561032657600080fd5b5061033a6103353660046129f6565b610b79565b6040516102779190612a11565b34801561035357600080fd5b50610367610362366004612997565b610be5565b6040516102779190600060a082019050825182526020830151602083015260408301516040830152606083015160608301526080830151608083015292915050565b3480156103b557600080fd5b506102496103c4366004612997565b610c66565b3480156103d557600080fd5b506104136103e4366004612997565b600a60205260009081526040902080546001820154600283015460038401546004909401549293919290919085565b604080519586526020860194909452928401919091526060830152608082015260a001610277565b34801561044757600080fd5b50610451600e5481565b604051908152602001610277565b34801561046b57600080fd5b5061024961047a366004612a55565b610cf0565b34801561048b57600080fd5b5061024961049a366004612997565b610d7b565b3480156104ab57600080fd5b506104bf6104ba366004612997565b610e95565b6040516102779c9b9a99989796959493929190612ac9565b3480156104e357600080fd5b506104516103e881565b3480156104f957600080fd5b50610249610508366004612a55565b610f8c565b34801561051957600080fd5b50610249610fac565b34801561052e57600080fd5b5061026b61053d366004612b46565b6110a0565b610249610550366004612997565b611196565b34801561056157600080fd5b506102e2610570366004612997565b6116b6565b34801561058157600080fd5b50610249610590366004612b82565b6116c1565b3480156105a157600080fd5b506104516105b03660046129f6565b6117d4565b3480156105c157600080fd5b5061024961181c565b3480156105d657600080fd5b506104516105e5366004612ba5565b611830565b3480156105f657600080fd5b506104516106053660046129cc565b611b2f565b610249610618366004612997565b611b60565b34801561062957600080fd5b506006546001600160a01b03166102e2565b34801561064757600080fd5b506102b5611cd5565b34801561065c57600080fd5b5061033a611ce4565b34801561067157600080fd5b50610249610680366004612c46565b611d9d565b34801561069157600080fd5b506102496106a0366004612c86565b611da8565b3480156106b157600080fd5b506102b56106c0366004612997565b611dc0565b3480156106d157600080fd5b5061045161271081565b3480156106e757600080fd5b506107326106f6366004612997565b600b602052600090815260409020805460018201546002830154600384015460049094015492936001600160a01b0390921692909160ff169085565b604080519586526001600160a01b0390941660208601529284019190915215156060830152608082015260a001610277565b34801561077057600080fd5b5061026b61077f366004612d62565b611e35565b34801561079057600080fd5b5061024961079f3660046129f6565b611e63565b3480156107b057600080fd5b506107c46107bf366004612997565b611e9e565b6040516102779190612d8c565b3480156107dd57600080fd5b506102e26107ec3660046128df565b612073565b6000828152600260205260409020546001600160a01b031633146108305760405162461bcd60e51b815260040161082790612e50565b60405180910390fd5b600082815260096020526040812060038101839055600881018054919261085683612e89565b9190505550827f9bfd726de89a3245ac6c28b59597252ac9b5ea93d6cbaaa3463a633704a746ee83836008015460405161089a929190918252602082015260400190565b60405180910390a2505050565b60006001600160e01b031982166380ac58cd60e01b14806108d857506001600160e01b03198216635b5e139f60e01b145b806108f357506301ffc9a760e01b6001600160e01b03198316145b92915050565b6000828152600260205260409020546001600160a01b0316331461092f5760405162461bcd60e51b815260040161082790612e50565b600081116109785760405162461bcd60e51b81526020600482015260166024820152755072696365206d75737420626520706f73697469766560501b6044820152606401610827565b6000828152600960208190526040909120015460ff16156109cc5760405162461bcd60e51b815260206004820152600e60248201526d105b1c9958591e481b1a5cdd195960921b6044820152606401610827565b60008281526009602081815260408084209283018054600160ff1991821681179092556004948501879055825160a081018452888152338186018181528286018a81526060840186815242608086019081528d8c52600b8a529a88902094518555915195840180546001600160a01b0319166001600160a01b039097169690961790955593516002830155925160038201805490931690151517909155945194909301939093558251918252810183905283917f8aea9a96cfe1bfb4cf4c211968ed80bd0ac066db181c7d95bf8e4238e8426abe91015b60405180910390a25050565b606060008054610abe90612ea2565b80601f0160208091040260200160405190810160405280929190818152602001828054610aea90612ea2565b8015610b375780601f10610b0c57610100808354040283529160200191610b37565b820191906000526020600020905b815481529060010190602001808311610b1a57829003601f168201915b5050505050905090565b6000610b4c826120ab565b506000828152600460205260409020546001600160a01b03166108f3565b610b758282336120e4565b5050565b6001600160a01b0381166000908152600c6020908152604091829020805483518184028101840190945280845260609392830182828015610bd957602002820191906000526020600020905b815481526020019060010190808311610bc5575b50505050509050919050565b610c176040518060a0016040528060008152602001600081526020016000815260200160008152602001600081525090565b506000908152600a6020908152604091829020825160a0810184528154815260018201549281019290925260028101549282019290925260038201546060820152600490910154608082015290565b610c6e6120f1565b6103e8811115610caf5760405162461bcd60e51b815260206004820152600c60248201526b08ccaca40e8dede40d0d2ced60a31b6044820152606401610827565b600e5460408051918252602082018390527fd347e206f25a89b917fc9482f1a2d294d749baa4dc9bde7fb495ee11fe491643910160405180910390a1600e55565b6001600160a01b038216610d1a57604051633250574960e11b815260006004820152602401610827565b6000610d2783833361211e565b9050836001600160a01b0316816001600160a01b031614610d75576040516364283d7b60e01b81526001600160a01b0380861660048301526024820184905282166044820152606401610827565b50505050565b6000818152600b60205260409020600381015460ff16610dca5760405162461bcd60e51b815260206004820152600a602482015269139bdd081b1a5cdd195960b21b6044820152606401610827565b60018101546001600160a01b0316331480610dfe575033610df36006546001600160a01b031690565b6001600160a01b0316145b610e3b5760405162461bcd60e51b815260206004820152600e60248201526d139bdd08185d5d1a1bdc9a5e995960921b6044820152606401610827565b60038101805460ff1990811690915560008381526009602081815260409283902090910180549093169092555133815283917f8e25282255ab31897df2b0456bb993ac7f84d376861aefd84901d2d63a7428a29101610aa3565b60096020526000908152604090208054600182018054919291610eb790612ea2565b80601f0160208091040260200160405190810160405280929190818152602001828054610ee390612ea2565b8015610f305780601f10610f0557610100808354040283529160200191610f30565b820191906000526020600020905b815481529060010190602001808311610f1357829003601f168201915b50505050600283015460038401546004850154600586015460068701546007880154600889015460098a0154600a909a0154989960ff8089169a6101009099046001600160a01b0316995096979596949593949293919216908c565b610fa783838360405180602001604052806000815250611da8565b505050565b610fb46120f1565b4780610ff85760405162461bcd60e51b81526020600482015260136024820152724e6f206665657320746f20776974686472617760681b6044820152606401610827565b600061100c6006546001600160a01b031690565b6001600160a01b03168260405160006040518083038185875af1925050503d8060008114611056576040519150601f19603f3d011682016040523d82523d6000602084013e61105b565b606091505b5050905080610b755760405162461bcd60e51b815260206004820152601160248201527015da5d1a191c985dd85b0819985a5b1959607a1b6044820152606401610827565b6000828152600260205260408120546001600160a01b038381169116036110c9575060016108f3565b6000838152600d602090815260408083208054825181850281018501909352808352919290919083018282801561112957602002820191906000526020600020905b81546001600160a01b0316815260019091019060200180831161110b575b5050505050905060005b815181101561118b57836001600160a01b031682828151811061115857611158612edc565b60200260200101516001600160a01b031603611179576001925050506108f3565b8061118381612e89565b915050611133565b506000949350505050565b61119e612217565b6000818152600b60205260409020600381015460ff166112005760405162461bcd60e51b815260206004820152601860248201527f4e6f74206c6973746564206f722073616c6520656e64656400000000000000006044820152606401610827565b806002015434101561124b5760405162461bcd60e51b8152602060048201526014602482015273125b9cdd59999a58da595b9d081c185e5b595b9d60621b6044820152606401610827565b6000828152600960205260408120600e5460028401549192916127109161127191612ef2565b61127b9190612f09565b9050600061271083600a015485600201546112969190612ef2565b6112a09190612f09565b90506000818386600201546112b59190612f2b565b6112bf9190612f2b565b60018601549091506112db906001600160a01b03163388612241565b60018501546040516000916001600160a01b03169083908381818185875af1925050503d806000811461132a576040519150601f19603f3d011682016040523d82523d6000602084013e61132f565b606091505b50509050806113805760405162461bcd60e51b815260206004820152601860248201527f4661696c656420746f2073656e6420746f2073656c6c657200000000000000006044820152606401610827565b6000831180156113aa57506001860154600286015461010090046001600160a01b03908116911614155b156114a957600285015460405160009161010090046001600160a01b03169085908381818185875af1925050503d8060008114611403576040519150601f19603f3d011682016040523d82523d6000602084013e611408565b606091505b50509050806114595760405162461bcd60e51b815260206004820152601760248201527f526f79616c7479207472616e73666572206661696c65640000000000000000006044820152606401610827565b6002860154604080516101009092046001600160a01b031682526020820186905289917ff670029fc6f5302baba881b4ae845d1453acdf752b4c19ed81fe0fa6a686409b910160405180910390a2505b83156115655760006114c36006546001600160a01b031690565b6001600160a01b03168560405160006040518083038185875af1925050503d806000811461150d576040519150601f19603f3d011682016040523d82523d6000602084013e611512565b606091505b50509050806115635760405162461bcd60e51b815260206004820152601c60248201527f506c6174666f726d20666565207472616e73666572206661696c6564000000006044820152606401610827565b505b8560020154600a6000898152602001908152602001600020600201600082825461158f9190612f3e565b909155505060038601805460ff199081169091556009860180549091169055600286015434111561165257600286015460009033906115ce9034612f2b565b604051600081818185875af1925050503d806000811461160a576040519150601f19603f3d011682016040523d82523d6000602084013e61160f565b606091505b50509050806116505760405162461bcd60e51b815260206004820152600d60248201526c1499599d5b990819985a5b1959609a1b6044820152606401610827565b505b60018601546002870154604080519182526020820186905233926001600160a01b0316918a917fc379f91ea4a96c1ec9ef58c7152081c2b686ef331aed626c40aef08c00a8b720910160405180910390a45050505050506116b36001600755565b50565b60006108f3826120ab565b6000828152600260205260409020546001600160a01b031633146116f75760405162461bcd60e51b815260040161082790612e50565b6000828152600a602090815260408083206009909252822081549192909190839061172183612e89565b919050555082156117445760018201805490600061173e83612e89565b91905055505b815415611775578154600183015461175e90612710612ef2565b6117689190612f09565b6006820181905560038301555b60058101805490600061178783612e89565b909155505042600483015560408051338152841515602082015285917fb9680fc338a30f8f557536220af7f79f0b1ade5b70c026f3a6b761b484747e84910160405180910390a250505050565b60006001600160a01b038216611800576040516322718ad960e21b815260006004820152602401610827565b506001600160a01b031660009081526003602052604090205490565b6118246120f1565b61182e60006122f1565b565b6000856118765760405162461bcd60e51b81526020600482015260146024820152734e616d652063616e6e6f7420626520656d70747960601b6044820152606401610827565b6103e88211156118bb5760405162461bcd60e51b815260206004820152601060248201526f0a4def2c2d8e8f240e8dede40d0d2ced60831b6044820152606401610827565b600880549060006118cb83612e89565b90915550506008546118dd3382612343565b60405180610180016040528082815260200189898080601f01602080910402602001604051908101604052809392919081815260200183838082843760009201919091525050509082525060200187600381111561193d5761193d612a91565b81523360208083019190915260408083018990526060830188905260006080840181905261138860a08501524260c0850152600160e0850181905261010085018290526101209094018890528581526009835220835181559083015190918201906119a89082612f97565b50604082015160028201805460ff191660018360038111156119cc576119cc612a91565b021790555060608281015160028381018054610100600160a81b0319166101006001600160a01b03909416840217905560808086015160038087019190915560a08088015160048089019190915560c0890151600589015560e08901516006890155948801516007880155610120880151600888015561014088015160098801805460ff191691151591909117905561016090970151600a9687015560408051978801815260008089526020808a018281528a8401838152611388998c01998a52958b018381528c84529982528383209a518b555160018b8101919091559451958a01959095559551918801919091559451959092019490945533808352600c855283832080549283018155835293909120018390555182907ff9b7a25fa427a28956da41175d9534fe3ec453eb65c89edcd0b3b5502be8619790611b1c908c908c908c908c908c908c90613057565b60405180910390a3979650505050505050565b600c6020528160005260406000208181548110611b4b57600080fd5b90600052602060002001600091509150505481565b611b68612217565b60008181526009602052604090206004810154611b8790600a90612f09565b341015611bcc5760405162461bcd60e51b81526020600482015260136024820152724c6963656e73652066656520746f6f206c6f7760681b6044820152606401610827565b600281015460405160009161010090046001600160a01b03169034908381818185875af1925050503d8060008114611c20576040519150601f19603f3d011682016040523d82523d6000602084013e611c25565b606091505b5050905080611c765760405162461bcd60e51b815260206004820152601960248201527f5061796d656e7420746f2063726561746f72206661696c6564000000000000006044820152606401610827565b6000838152600d6020908152604080832080546001810182559084528284200180546001600160a01b03191633179055858352600a90915281206002018054349290611cc3908490612f3e565b90915550506001600755506116b39050565b606060018054610abe90612ea2565b6060600060085467ffffffffffffffff811115611d0357611d03612c70565b604051908082528060200260200182016040528015611d2c578160200160208202803683370190505b509050600060015b6008548111611d95576000818152600b602052604090206003015460ff1615611d835780838381518110611d6a57611d6a612edc565b602090810291909101015281611d7f81612e89565b9250505b80611d8d81612e89565b915050611d34565b508152919050565b610b7533838361235d565b611db3848484610cf0565b610d7533858585856123fc565b6060611dcb826120ab565b506000611de360408051602081019091526000815290565b90506000815111611e035760405180602001604052806000815250611e2e565b80611e0d84612527565b604051602001611e1e9291906130ac565b6040516020818303038152906040525b9392505050565b6001600160a01b03918216600090815260056020908152604080832093909416825291909152205460ff1690565b611e6b6120f1565b6001600160a01b038116611e9557604051631e4fbdf760e01b815260006004820152602401610827565b6116b3816122f1565b611f1060408051610180810182526000808252606060208301529091820190815260200160006001600160a01b03168152602001600080191681526020016000815260200160008152602001600081526020016000815260200160008152602001600015158152602001600081525090565b600960008381526020019081526020016000206040518061018001604052908160008201548152602001600182018054611f4990612ea2565b80601f0160208091040260200160405190810160405280929190818152602001828054611f7590612ea2565b8015611fc25780601f10611f9757610100808354040283529160200191611fc2565b820191906000526020600020905b815481529060010190602001808311611fa557829003601f168201915b5050509183525050600282015460209091019060ff166003811115611fe957611fe9612a91565b6003811115611ffa57611ffa612a91565b815260028201546001600160a01b0361010091829004166020830152600383015460408301526004830154606083015260058301546080830152600683015460a0830152600783015460c0830152600883015460e0830152600983015460ff16151590820152600a909101546101209091015292915050565b600d602052816000526040600020818154811061208f57600080fd5b6000918252602090912001546001600160a01b03169150829050565b6000818152600260205260408120546001600160a01b0316806108f357604051637e27328960e01b815260048101849052602401610827565b610fa783838360016125ba565b6006546001600160a01b0316331461182e5760405163118cdaa760e01b8152336004820152602401610827565b6000828152600260205260408120546001600160a01b039081169083161561214b5761214b8184866126c0565b6001600160a01b03811615612189576121686000856000806125ba565b6001600160a01b038116600090815260036020526040902080546000190190555b6001600160a01b038516156121b8576001600160a01b0385166000908152600360205260409020805460010190555b60008481526002602052604080822080546001600160a01b0319166001600160a01b0389811691821790925591518793918516917fddf252ad1be2c89b69c2b068fc378daa952ba7f163c4a11628f55a4df523b3ef91a4949350505050565b60026007540361223a57604051633ee5aeb560e01b815260040160405180910390fd5b6002600755565b6001600160a01b03821661226b57604051633250574960e11b815260006004820152602401610827565b60006122798383600061211e565b90506001600160a01b0381166122a557604051637e27328960e01b815260048101839052602401610827565b836001600160a01b0316816001600160a01b031614610d75576040516364283d7b60e01b81526001600160a01b0380861660048301526024820184905282166044820152606401610827565b600680546001600160a01b038381166001600160a01b0319831681179093556040519116919082907f8be0079c531659141344cd1fd0a4f28419497f9722a3daafe3b4186f6b6457e090600090a35050565b610b75828260405180602001604052806000815250612724565b6001600160a01b03821661238f57604051630b61174360e31b81526001600160a01b0383166004820152602401610827565b6001600160a01b03838116600081815260056020908152604080832094871680845294825291829020805460ff191686151590811790915591519182527f17307eab39ab6107e8899845ad3d59bd9653f200f220920489ca2b5937696c31910160405180910390a3505050565b6001600160a01b0383163b1561252057604051630a85bd0160e11b81526001600160a01b0384169063150b7a029061243e9088908890879087906004016130db565b6020604051808303816000875af1925050508015612479575060408051601f3d908101601f1916820190925261247691810190613118565b60015b6124e2573d8080156124a7576040519150601f19603f3d011682016040523d82523d6000602084013e6124ac565b606091505b5080516000036124da57604051633250574960e11b81526001600160a01b0385166004820152602401610827565b805160208201fd5b6001600160e01b03198116630a85bd0160e11b1461251e57604051633250574960e11b81526001600160a01b0385166004820152602401610827565b505b5050505050565b606060006125348361273c565b600101905060008167ffffffffffffffff81111561255457612554612c70565b6040519080825280601f01601f19166020018201604052801561257e576020820181803683370190505b5090508181016020015b600019016f181899199a1a9b1b9c1cb0b131b232b360811b600a86061a8153600a850494508461258857509392505050565b80806125ce57506001600160a01b03821615155b156126905760006125de846120ab565b90506001600160a01b0383161580159061260a5750826001600160a01b0316816001600160a01b031614155b801561261d575061261b8184611e35565b155b156126465760405163a9fbf51f60e01b81526001600160a01b0384166004820152602401610827565b811561268e5783856001600160a01b0316826001600160a01b03167f8c5be1e5ebec7d5bd14f71427d1e84f3dd0314c0f7b2291e5b200ac8c7c3b92560405160405180910390a45b505b5050600090815260046020526040902080546001600160a01b0319166001600160a01b0392909216919091179055565b6126cb838383612814565b610fa7576001600160a01b0383166126f957604051637e27328960e01b815260048101829052602401610827565b60405163177e802f60e01b81526001600160a01b038316600482015260248101829052604401610827565b61272e838361287a565b610fa73360008585856123fc565b60008072184f03e93ff9f4daa797ed6e38ed64bf6a1f0160401b831061277b5772184f03e93ff9f4daa797ed6e38ed64bf6a1f0160401b830492506040015b6d04ee2d6d415b85acef810000000083106127a7576d04ee2d6d415b85acef8100000000830492506020015b662386f26fc1000083106127c557662386f26fc10000830492506010015b6305f5e10083106127dd576305f5e100830492506008015b61271083106127f157612710830492506004015b60648310612803576064830492506002015b600a83106108f35760010192915050565b60006001600160a01b038316158015906128725750826001600160a01b0316846001600160a01b0316148061284e575061284e8484611e35565b8061287257506000828152600460205260409020546001600160a01b038481169116145b949350505050565b6001600160a01b0382166128a457604051633250574960e11b815260006004820152602401610827565b60006128b28383600061211e565b90506001600160a01b03811615610fa7576040516339e3563760e11b815260006004820152602401610827565b600080604083850312156128f257600080fd5b50508035926020909101359150565b6001600160e01b0319811681146116b357600080fd5b60006020828403121561292957600080fd5b8135611e2e81612901565b60005b8381101561294f578181015183820152602001612937565b50506000910152565b60008151808452612970816020860160208601612934565b601f01601f19169290920160200192915050565b602081526000611e2e6020830184612958565b6000602082840312156129a957600080fd5b5035919050565b80356001600160a01b03811681146129c757600080fd5b919050565b600080604083850312156129df57600080fd5b6129e8836129b0565b946020939093013593505050565b600060208284031215612a0857600080fd5b611e2e826129b0565b6020808252825182820181905260009190848201906040850190845b81811015612a4957835183529284019291840191600101612a2d565b50909695505050505050565b600080600060608486031215612a6a57600080fd5b612a73846129b0565b9250612a81602085016129b0565b9150604084013590509250925092565b634e487b7160e01b600052602160045260246000fd5b60048110612ac557634e487b7160e01b600052602160045260246000fd5b9052565b60006101808e8352806020840152612ae38184018f612958565b915050612af3604083018d612aa7565b6001600160a01b039a909a166060820152608081019890985260a088019690965260c087019490945260e08601929092526101008501526101208401521515610140830152610160909101529392505050565b60008060408385031215612b5957600080fd5b82359150612b69602084016129b0565b90509250929050565b803580151581146129c757600080fd5b60008060408385031215612b9557600080fd5b82359150612b6960208401612b72565b60008060008060008060a08789031215612bbe57600080fd5b863567ffffffffffffffff80821115612bd657600080fd5b818901915089601f830112612bea57600080fd5b813581811115612bf957600080fd5b8a6020828501011115612c0b57600080fd5b6020928301985096505087013560048110612c2557600080fd5b95989497509495604081013595506060810135946080909101359350915050565b60008060408385031215612c5957600080fd5b612c62836129b0565b9150612b6960208401612b72565b634e487b7160e01b600052604160045260246000fd5b60008060008060808587031215612c9c57600080fd5b612ca5856129b0565b9350612cb3602086016129b0565b925060408501359150606085013567ffffffffffffffff80821115612cd757600080fd5b818701915087601f830112612ceb57600080fd5b813581811115612cfd57612cfd612c70565b604051601f8201601f19908116603f01168101908382118183101715612d2557612d25612c70565b816040528281528a6020848701011115612d3e57600080fd5b82602086016020830137600060208483010152809550505050505092959194509250565b60008060408385031215612d7557600080fd5b612d7e836129b0565b9150612b69602084016129b0565b602081528151602082015260006020830151610180806040850152612db56101a0850183612958565b91506040850151612dc96060860182612aa7565b5060608501516001600160a01b038116608086015250608085015160a085015260a085015160c085015260c085015160e085015260e0850151610100818187015280870151915050610120818187015280870151915050610140818187015280870151915050610160612e3f8187018315159052565b959095015193019290925250919050565b6020808252600990820152682737ba1037bbb732b960b91b604082015260600190565b634e487b7160e01b600052601160045260246000fd5b600060018201612e9b57612e9b612e73565b5060010190565b600181811c90821680612eb657607f821691505b602082108103612ed657634e487b7160e01b600052602260045260246000fd5b50919050565b634e487b7160e01b600052603260045260246000fd5b80820281158282048414176108f3576108f3612e73565b600082612f2657634e487b7160e01b600052601260045260246000fd5b500490565b818103818111156108f3576108f3612e73565b808201808211156108f3576108f3612e73565b601f821115610fa757600081815260208120601f850160051c81016020861015612f785750805b601f850160051c820191505b8181101561251e57828155600101612f84565b815167ffffffffffffffff811115612fb157612fb1612c70565b612fc581612fbf8454612ea2565b84612f51565b602080601f831160018114612ffa5760008415612fe25750858301515b600019600386901b1c1916600185901b17855561251e565b600085815260208120601f198616915b828110156130295788860151825594840194600190910190840161300a565b50858210156130475787850151600019600388901b60f8161c191681555b5050505050600190811b01905550565b60a081528560a0820152858760c0830137600060c08783010152600060c0601f19601f890116830101905061308f6020830187612aa7565b846040830152836060830152826080830152979650505050505050565b600083516130be818460208801612934565b8351908301906130d2818360208801612934565b01949350505050565b6001600160a01b038581168252841660208201526040810183905260806060820181905260009061310e90830184612958565b9695505050505050565b60006020828403121561312a57600080fd5b8151611e2e8161290156fea26469706673582212201b6ec3f4c09aeab5f8976278770f1462747003df68be4392a554f0c414c100c464736f6c63430008140033",
  "linkReferences": {},
  "deployedLinkReferences": {}
}