{
  "_format": "hh-sol-artifact-1",
  "contractName": "BehaviorMarketplace",
  "sourceName": "contracts/layer3/intelligence/BehaviorMarketplace.sol",
  "abi": [
    {
      "inputs": [],
      "stateMutability": "nonpayable",
      "type": "constructor"
    },
    {
      "inputs": [
        {
          "internalType": "address",
          "name": "sender",
          "type": "address"
        },
        {
          "internalType": "uint256",
          "name": "tokenId",
          "type": "uint256"
        },
        {
          "internalType": "address",
          "name": "owner",
          "type": "address"
        }
      ],
      "name": "ERC721IncorrectOwner",
      "type": "error"
    },
    {
      "inputs": [
        {
          "internalType": "address",
          "name": "operator",
          "type": "address"
        },
        {
          "internalType": "uint256",
          "name": "tokenId",
          "type": "uint256"
        }
      ],
      "name": "ERC721InsufficientApproval",
      "type": "error"
    },
    {
      "inputs": [
        {
          "internalType": "address",
          "name": "approver",
          "type": "address"
        }
      ],
      "name": "ERC721InvalidApprover",
      "type": "error"
    },
    {
      "inputs": [
        {
          "internalType": "address",
          "name": "operator",
          "type": "address"
        }
      ],
      "name": "ERC721InvalidOperator",
      "type": "error"
    },
    {
      "inputs": [
        {
          "internalType": "address",
          "name": "owner",
          "type": "address"
        }
      ],
      "name": "ERC721InvalidOwner",
      "type": "error"
    },
    {
      "inputs": [
        {
          "internalType": "address",
          "name": "receiver",
          "type": "address"
        }
      ],
      "name": "ERC721InvalidReceiver",
      "type": "error"
    },
    {
      "inputs": [
        {
          "internalType": "address",
          "name": "sender",
          "type": "address"
        }
      ],
      "name": "ERC721InvalidSender",
      "type": "error"
    },
    {
      "inputs": [
        {
          "internalType": "uint256",
          "name": "tokenId",
          "type": "uint256"
        }
      ],
      "name": "ERC721NonexistentToken",
      "type": "error"
    },
    {
      "inputs": [
        {
          "internalType": "address",
          "name": "owner",
          "type": "address"
        }
      ],
      "name": "OwnableInvalidOwner",
      "type": "error"
    },
    {
      "inputs": [
        {
          "internalType": "address",
          "name": "account",
          "type": "address"
        }
      ],
      "name": "OwnableUnauthorizedAccount",
      "type": "error"
    },
    {
      "inputs": [],
      "name": "ReentrancyGuardReentrantCall",
      "type": "error"
    },
    {
      "anonymous": false,
      "inputs": [
        {
          "indexed": true,
          "internalType": "address",
          "name": "owner",
          "type": "address"
        },
        {
          "indexed": true,
          "internalType": "address",
          "name": "approved",
          "type": "address"
        },
        {
          "indexed": true,
          "internalType": "uint256",
          "name": "tokenId",
          "type": "uint256"
        }
      ],
      "name": "Approval",
      "type": "event"
    },
    {
      "anonymous": false,
      "inputs": [
        {
          "indexed": true,
          "internalType": "address",
          "name": "owner",
          "type": "address"
        },
        {
          "indexed": true,
          "internalType": "address",
          "name": "operator",
          "type": "address"
        },
        {
          "indexed": false,
          "internalType": "bool",
          "name": "approved",
          "type": "bool"
        }
      ],
      "name": "ApprovalForAll",
      "type": "event"
    },
    {
      "anonymous": false,
      "inputs": [
        {
          "indexed": true,
          "internalType": "uint256",
          "name": "behaviorId",
          "type": "uint256"
        },
        {
          "indexed": false,
          "internalType": "address",
          "name": "executor",
          "type": "address"
        },
        {
          "indexed": false,
          "internalType": "bool",
          "name": "success",
          "type": "bool"
        }
      ],
      "name": "BehaviorExecuted",
      "type": "event"
    },
    {
      "anonymous": false,
      "inputs": [
        {
          "indexed": true,
          "internalType": "uint256",
          "name": "behaviorId",
          "type": "uint256"
        },
        {
          "indexed": false,
          "internalType": "address",
          "name": "seller",
          "type": "address"
        },
        {
          "indexed": false,
          "internalType": "uint256",
          "name": "price",
          "type": "uint256"
        }
      ],
      "name": "BehaviorListed",
      "type": "event"
    },
    {
      "anonymous": false,
      "inputs": [
        {
          "indexed": true,
          "internalType": "uint256",
          "name": "behaviorId",
          "type": "uint256"
        },
        {
          "indexed": true,
          "internalType": "address",
          "name": "creator",
          "type": "address"
        },
        {
          "indexed": false,
          "internalType": "string",
          "name": "name",
          "type": "string"
        },
        {
          "indexed": false,
          "internalType": "enum BehaviorMarketplace.BehaviorType",
          "name": "behaviorType",
          "type": "uint8"
        },
        {
          "indexed": false,
          "internalType": "bytes32",
          "name": "codeHash",
          "type": "bytes32"
        },
        {
          "indexed": false,
          "internalType": "uint256",
          "name": "initialPrice",
          "type": "uint256"
        },
        {
          "indexed": false,
          "internalType": "uint256",
          "name": "royaltyBps",
          "type": "uint256"
        }
      ],
      "name": "BehaviorMinted",
      "type": "event"
    },
    {
      "anonymous": false,
      "inputs": [
        {
          "indexed": true,
          "internalType": "uint256",
          "name": "behaviorId",
          "type": "uint256"
        },
        {
          "indexed": true,
          "internalType": "address",
          "name": "seller",
          "type": "address"
        },
        {
          "indexed": true,
          "internalType": "address",
          "name": "buyer",
          "type": "address"
        },
        {
          "indexed": false,
          "internalType": "uint256",
          "name": "price",
          "type": "uint256"
        },
        {
          "indexed": false,
          "internalType": "uint256",
          "name": "royaltyPaid",
          "type": "uint256"
        }
      ],
      "name": "BehaviorSold",
      "type": "event"
    },
    {
      "anonymous": false,
      "inputs": [
        {
          "indexed": true,
          "internalType": "uint256",
          "name": "behaviorId",
          "type": "uint256"
        },
        {
          "indexed": false,
          "internalType": "bytes32",
          "name": "newCodeHash",
          "type": "bytes32"
        },
        {
          "indexed": false,
          "internalType": "uint256",
          "name": "newVersion",
          "type": "uint256"
        }
      ],
      "name": "BehaviorUpdated",
      "type": "event"
    },
    {
      "anonymous": false,
      "inputs": [
        {
          "indexed": true,
          "internalType": "uint256",
          "name": "behaviorId",
          "type": "uint256"
        },
        {
          "indexed": false,
          "internalType": "address",
          "name": "seller",
          "type": "address"
        }
      ],
      "name": "ListingCancelled",
      "type": "event"
    },
    {
      "anonymous": false,
      "inputs": [
        {
          "indexed": true,
          "internalType": "address",
          "name": "previousOwner",
          "type": "address"
        },
        {
          "indexed": true,
          "internalType": "address",
          "name": "newOwner",
          "type": "address"
        }
      ],
      "name": "OwnershipTransferred",
      "type": "event"
    },
    {
      "anonymous": false,
      "inputs": [
        {
          "indexed": false,
          "internalType": "uint256",
          "name": "oldFeeBps",
          "type": "uint256"
        },
        {
          "indexed": false,
          "internalType": "uint256",
          "name": "newFeeBps",
          "type": "uint256"
        }
      ],
      "name": "PlatformFeeUpdated",
      "type": "event"
    },
    {
      "anonymous": false,
      "inputs": [
        {
          "indexed": true,
          "internalType": "uint256",
          "name": "behaviorId",
          "type": "uint256"
        },
        {
          "indexed": false,
          "internalType": "address",
          "name": "creator",
          "type": "address"
        },
        {
          "indexed": false,
          "internalType": "uint256",
          "name": "amount",
          "type": "uint256"
        }
      ],
      "name": "RoyaltyPaid",
      "type": "event"
    },
    {
      "anonymous": false,
      "inputs": [
        {
          "indexed": true,
          "internalType": "address",
          "name": "from",
          "type": "address"
        },
        {
          "indexed": true,
          "internalType": "address",
          "name": "to",
          "type": "address"
        },
        {
          "indexed": true,
          "internalType": "uint256",
          "name": "tokenId",
          "type": "uint256"
        }
      ],
      "name": "Transfer",
      "type": "event"
    },
    {
      "inputs": [],
      "name": "FEE_DENOMINATOR",
      "outputs": [
        {
          "internalType": "uint256",
          "name": "",
          "type": "uint256"
        }
      ],
      "stateMutability": "view",
      "type": "function"
    },
    {
      "inputs": [],
      "name": "MAX_ROYALTY_BPS",
      "outputs": [
        {
          "internalType": "uint256",
          "name": "",
          "type": "uint256"
        }
      ],
      "stateMutability": "view",
      "type": "function"
    },
    {
      "inputs": [
        {
          "internalType": "address",
          "name": "to",
          "type": "address"
        },
        {
          "internalType": "uint256",
          "name": "tokenId",
          "type": "uint256"
        }
      ],
      "name": "approve",
      "outputs": [],
      "stateMutability": "nonpayable",
      "type": "function"
    },
    {
      "inputs": [
        {
          "internalType": "address",
          "name": "owner",
          "type": "address"
        }
      ],
      "name": "balanceOf",
      "outputs": [
        {
          "internalType": "uint256",
          "name": "",
          "type": "uint256"
        }
      ],
      "stateMutability": "view",
      "type": "function"
    },
    {
      "inputs": [
        {
          "internalType": "uint256",
          "name": "",
          "type": "uint256"
        }
      ],
      "name": "behaviorStats",
      "outputs": [
        {
          "internalType": "uint256",
          "name": "totalExecutions",
          "type": "uint256"
        },
        {
          "internalType": "uint256",
          "name": "successfulExecutions",
          "type": "uint256"
        },
        {
          "internalType": "uint256",
          "name": "totalRevenue",
          "type": "uint256"
        },
        {
          "internalType": "uint256",
          "name": "averagePerformance",
          "type": "uint256"
        },
        {
          "internalType": "uint256",
          "name": "lastUsed",
          "type": "uint256"
        }
      ],
      "stateMutability": "view",
      "type": "function"
    },
    {
      "inputs": [
        {
          "internalType": "uint256",
          "name": "",
          "type": "uint256"
        }
      ],
      "name": "behaviors",
      "outputs": [
        {
          "internalType": "uint256",
          "name": "id",
          "type": "uint256"
        },
        {
          "internalType": "string",
          "name": "name",
          "type": "string"
        },
        {
          "internalType": "enum BehaviorMarketplace.BehaviorType",
          "name": "behaviorType",
          "type": "uint8"
        },
        {
          "internalType": "address",
          "name": "creator",
          "type": "address"
        },
        {
          "internalType": "bytes32",
          "name": "codeHash",
          "type": "bytes32"
        },
        {
          "internalType": "uint256",
          "name": "price",
          "type": "uint256"
        },
        {
          "internalType": "uint256",
          "name": "usageCount",
          "type": "uint256"
        },
        {
          "internalType": "uint256",
          "name": "successRate",
          "type": "uint256"
        },
        {
          "internalType": "uint256",
          "name": "createdAt",
          "type": "uint256"
        },
        {
          "internalType": "uint256",
          "name": "version",
          "type": "uint256"
        },
        {
          "internalType": "bool",
          "name": "isListed",
          "type": "bool"
        },
        {
          "internalType": "uint256",
          "name": "royaltyBps",
          "type": "uint256"
        }
      ],
      "stateMutability": "view",
      "type": "function"
    },
    {
      "inputs": [
        {
          "internalType": "uint256",
          "name": "behaviorId",
          "type": "uint256"
        }
      ],
      "name": "buyBehavior",
      "outputs": [],
      "stateMutability": "payable",
      "type": "function"
    },
    {
      "inputs": [
        {
          "internalType": "uint256",
          "name": "behaviorId",
          "type": "uint256"
        }
      ],
      "name": "cancelListing",
      "outputs": [],
      "stateMutability": "nonpayable",
      "type": "function"
    },
    {
      "inputs": [
        {
          "internalType": "address",
          "name": "",
          "type": "address"
        },
        {
          "internalType": "uint256",
          "name": "",
          "type": "uint256"
        }
      ],
      "name": "creatorBehaviors",
      "outputs": [
        {
          "internalType": "uint256",
          "name": "",
          "type": "uint256"
        }
      ],
      "stateMutability": "view",
      "type": "function"
    },
    {
      "inputs": [
        {
          "internalType": "uint256",
          "name": "tokenId",
          "type": "uint256"
        }
      ],
      "name": "getApproved",
      "outputs": [
        {
          "internalType": "address",
          "name": "",
          "type": "address"
        }
      ],
      "stateMutability": "view",
      "type": "function"
    },
    {
      "inputs": [
        {
          "internalType": "uint256",
          "name": "behaviorId",
          "type": "uint256"
        }
      ],
      "name": "getBehavior",
      "outputs": [
        {
          "components": [
            {
              "internalType": "uint256",
              "name": "id",
              "type": "uint256"
            },
            {
              "internalType": "string",
              "name": "name",
              "type": "string"
            },
            {
              "internalType": "enum BehaviorMarketplace.BehaviorType",
              "name": "behaviorType",
              "type": "uint8"
            },
            {
              "internalType": "address",
              "name": "creator",
              "type": "address"
            },
            {
              "internalType": "bytes32",
              "name": "codeHash",
              "type": "bytes32"
            },
            {
              "internalType": "uint256",
              "name": "price",
              "type": "uint256"
            },
            {
              "internalType": "uint256",
              "name": "usageCount",
              "type": "uint256"
            },
            {
              "internalType": "uint256",
              "name": "successRate",
              "type": "uint256"
            },
            {
              "internalType": "uint256",
              "name": "createdAt",
              "type": "uint256"
            },
            {
              "internalType": "uint256",
              "name": "version",
              "type": "uint256"
            },
            {
              "internalType": "bool",
              "name": "isListed",
              "type": "bool"
            },
            {
              "internalType": "uint256",
              "name": "royaltyBps",
              "type": "uint256"
            }
          ],
          "internalType": "struct BehaviorMarketplace.Behavior",
          "name": "",
          "type": "tuple"
        }
      ],
      "stateMutability": "view",
      "type": "function"
    },
    {
      "inputs": [
        {
          "internalType": "uint256",
          "name": "behaviorId",
          "type": "uint256"
        }
      ],
      "name": "getBehaviorStats",
      "outputs": [
        {
          "components": [
            {
              "internalType": "uint256",
              "name": "totalExecutions",
              "type": "uint256"
            },
            {
              "internalType": "uint256",
              "name": "successfulExecutions",
              "type": "uint256"
            },
            {
              "internalType": "uint256",
              "name": "totalRevenue",
              "type": "uint256"
            },
            {
              "internalType": "uint256",
              "name": "averagePerformance",
              "type": "uint256"
            },
            {
              "internalType": "uint256",
              "name": "lastUsed",
              "type": "uint256"
            }
          ],
          "internalType": "struct BehaviorMarketplace.BehaviorStats",
          "name": "",
          "type": "tuple"
        }
      ],
      "stateMutability": "view",
      "type": "function"
    },
    {
      "inputs": [
        {
          "internalType": "address",
          "name": "creator",
          "type": "address"
        }
      ],
      "name": "getCreatorBehaviors",
      "outputs": [
        {
          "internalType": "uint256[]",
          "name": "",
          "type": "uint256[]"
        }
      ],
      "stateMutability": "view",
      "type": "function"
    },
    {
      "inputs": [],
      "name": "getListedBehaviors",
      "outputs": [
        {
          "internalType": "uint256[]",
          "name": "",
          "type": "uint256[]"
        }
      ],
      "stateMutability": "view",
      "type": "function"
    },
    {
      "inputs": [
        {
          "internalType": "uint256",
          "name": "behaviorId",
          "type": "uint256"
        },
        {
          "internalType": "address",
          "name": "user",
          "type": "address"
        }
      ],
      "name": "hasLicense",
      "outputs": [
        {
          "internalType": "bool",
          "name": "",
          "type": "bool"
        }
      ],
      "stateMutability": "view",
      "type": "function"
    },
    {
      "inputs": [
        {
          "internalType": "address",
          "name": "owner",
          "type": "address"
        },
        {
          "internalType": "address",
          "name": "operator",
          "type": "address"
        }
      ],
      "name": "isApprovedForAll",
      "outputs": [
        {
          "internalType": "bool",
          "name": "",
          "type": "bool"
        }
      ],
      "stateMutability": "view",
      "type": "function"
    },
    {
      "inputs": [
        {
          "internalType": "uint256",
          "name": "behaviorId",
          "type": "uint256"
        }
      ],
      "name": "licenseBehavior",
      "outputs": [],
      "stateMutability": "payable",
      "type": "function"
    },
    {
      "inputs": [
        {
          "internalType": "uint256",
          "name": "",
          "type": "uint256"
        },
        {
          "internalType": "uint256",
          "name": "",
          "type": "uint256"
        }
      ],
      "name": "licensees",
      "outputs": [
        {
          "internalType": "address",
          "name": "",
          "type": "address"
        }
      ],
      "stateMutability": "view",
      "type": "function"
    },
    {
      "inputs": [
        {
          "internalType": "uint256",
          "name": "behaviorId",
          "type": "uint256"
        },
        {
          "internalType": "uint256",
          "name": "price",
          "type": "uint256"
        }
      ],
      "name": "listBehavior",
      "outputs": [],
      "stateMutability": "nonpayable",
      "type": "function"
    },
    {
      "inputs": [
        {
          "internalType": "uint256",
          "name": "",
          "type": "uint256"
        }
      ],
      "name": "listings",
      "outputs": [
        {
          "internalType": "uint256",
          "name": "behaviorId",
          "type": "uint256"
        },
        {
          "internalType": "address",
          "name": "seller",
          "type": "address"
        },
        {
          "internalType": "uint256",
          "name": "price",
          "type": "uint256"
        },
        {
          "internalType": "bool",
          "name": "isActive",
          "type": "bool"
        },
        {
          "internalType": "uint256",
          "name": "listedAt",
          "type": "uint256"
        }
      ],
      "stateMutability": "view",
      "type": "function"
    },
    {
      "inputs": [
        {
          "internalType": "string",
          "name": "name",
          "type": "string"
        },
        {
          "internalType": "enum BehaviorMarketplace.BehaviorType",
          "name": "behaviorType",
          "type": "uint8"
        },
        {
          "internalType": "bytes32",
          "name": "codeHash",
          "type": "bytes32"
        },
        {
          "internalType": "uint256",
          "name": "price",
          "type": "uint256"
        },
        {
          "internalType": "uint256",
          "name": "royaltyBps",
          "type": "uint256"
        }
      ],
      "name": "mintBehavior",
      "outputs": [
        {
          "internalType": "uint256",
          "name": "",
          "type": "uint256"
        }
      ],
      "stateMutability": "nonpayable",
      "type": "function"
    },
    {
      "inputs": [],
      "name": "name",
      "outputs": [
        {
          "internalType": "string",
          "name": "",
          "type": "string"
        }
      ],
      "stateMutability": "view",
      "type": "function"
    },
    {
      "inputs": [],
      "name": "owner",
      "outputs": [
        {
          "internalType": "address",
          "name": "",
          "type": "address"
        }
      ],
      "stateMutability": "view",
      "type": "function"
    },
    {
      "inputs": [
        {
          "internalType": "uint256",
          "name": "tokenId",
          "type": "uint256"
        }
      ],
      "name": "ownerOf",
      "outputs": [
        {
          "internalType": "address",
          "name": "",
          "type": "address"
        }
      ],
      "stateMutability": "view",
      "type": "function"
    },
    {
      "inputs": [],
      "name": "platformFeeBps",
      "outputs": [
        {
          "internalType": "uint256",
          "name": "",
          "type": "uint256"
        }
      ],
      "stateMutability": "view",
      "type": "function"
    },
    {
      "inputs": [
        {
          "internalType": "uint256",
          "name": "behaviorId",
          "type": "uint256"
        },
        {
          "internalType": "bool",
          "name": "success",
          "type": "bool"
        }
      ],
      "name": "recordExecution",
      "outputs": [],
      "stateMutability": "nonpayable",
      "type": "function"
    },
    {
      "inputs": [],
      "name": "renounceOwnership",
      "outputs": [],
      "stateMutability": "nonpayable",
      "type": "function"
    },
    {
      "inputs": [
        {
          "internalType": "address",
          "name": "from",
          "type": "address"
        },
        {
          "internalType": "address",
          "name": "to",
          "type": "address"
        },
        {
          "internalType": "uint256",
          "name": "tokenId",
          "type": "uint256"
        }
      ],
      "name": "safeTransferFrom",
      "outputs": [],
      "stateMutability": "nonpayable",
      "type": "function"
    },
    {
      "inputs": [
        {
          "internalType": "address",
          "name": "from",
          "type": "address"
        },
        {
          "internalType": "address",
          "name": "to",
          "type": "address"
        },
        {
          "internalType": "uint256",
          "name": "tokenId",
          "type": "uint256"
        },
        {
          "internalType": "bytes",
          "name": "data",
          "type": "bytes"
        }
      ],
      "name": "safeTransferFrom",
      "outputs": [],
      "stateMutability": "nonpayable",
      "type": "function"
    },
    {
      "inputs": [
        {
          "internalType": "address",
          "name": "operator",
          "type": "address"
        },
        {
          "internalType": "bool",
          "name": "approved",
          "type": "bool"
        }
      ],
      "name": "setApprovalForAll",
      "outputs": [],
      "stateMutability": "nonpayable",
      "type": "function"
    },
    {
      "inputs": [
        {
          "internalType": "uint256",
          "name": "newFeeBps",
          "type": "uint256"
        }
      ],
      "name": "setPlatformFee",
      "outputs": [],
      "stateMutability": "nonpayable",
      "type": "function"
    },
    {
      "inputs": [
        {
          "internalType": "bytes4",
          "name": "interfaceId",
          "type": "bytes4"
        }
      ],
      "name": "supportsInterface",
      "outputs": [
        {
          "internalType": "bool",
          "name": "",
          "type": "bool"
        }
      ],
      "stateMutability": "view",
      "type": "function"
    },
    {
      "inputs": [],
      "name": "symbol",
      "outputs": [
        {
          "internalType": "string",
          "name": "",
          "type": "string"
        }
      ],
      "stateMutability": "view",
      "type": "function"
    },
    {
      "inputs": [
        {
          "internalType": "uint256",
          "name": "tokenId",
          "type": "uint256"
        }
      ],
      "name": "tokenURI",
      "outputs": [
        {
          "internalType": "string",
          "name": "",
          "type": "string"
        }
      ],
      "stateMutability": "view",
      "type": "function"
    },
    {
      "inputs": [
        {
          "internalType": "address",
          "name": "from",
          "type": "address"
        },
        {
          "internalType": "address",
          "name": "to",
          "type": "address"
        },
        {
          "internalType": "uint256",
          "name": "tokenId",
          "type": "uint256"
        }
      ],
      "name": "transferFrom",
      "outputs": [],
      "stateMutability": "nonpayable",
      "type": "function"
    },
    {
      "inputs": [
        {
          "internalType": "address",
          "name": "newOwner",
          "type": "address"
        }
      ],
      "name": "transferOwnership",
      "outputs": [],
      "stateMutability": "nonpayable",
      "type": "function"
    },
    {
      "inputs": [
        {
          "internalType": "uint256",
          "name": "behaviorId",
          "type": "uint256"
        },
        {
          "internalType": "bytes32",
          "name": "newCodeHash",
          "type": "bytes32"
        }
      ],
      "name": "updateBehavior",
      "outputs": [],
      "stateMutability": "nonpayable",
      "type": "function"
    },
    {
      "inputs": [],
      "name": "withdrawFees",
      "outputs": [],
      "stateMutability": "nonpayable",
      "type": "function"
    }
  ],
  "bytecode": "0x608034620003a4576001600160401b03906040818101838111838210176200038e578152600c82526020926b27a0a7102132b430bb34b7b960a11b84840152815190828201828110828211176200038e5783526004918281526327a0a72160e11b8682015284519082821162000379576000968754926001978885811c951680156200036e575b838610146200035b578190601f9586811162000308575b508390868311600114620002a4578b9262000298575b5050600019600383901b1c191690881b1788555b8151938411620002855786548781811c911680156200027a575b828210146200026757908184869594931162000210575b5080928411600114620001a8575087926200019c575b5050600019600383901b1c191690841b1783555b331562000187575060068054336001600160a01b03198216811790925591519390916001600160a01b0316907f8be0079c531659141344cd1fd0a4f28419497f9722a3daafe3b4186f6b6457e09080a360075560fa600e556132aa9081620003aa8239f35b836024925191631e4fbdf760e01b8352820152fd5b0151905038806200010e565b9190879450601f198416858a52838a20938a905b828210620001f65750508411620001dc575b505050811b01835562000122565b015160001960f88460031b161c19169055388080620001ce565b8484015186558a97909501949384019390810190620001bc565b90919293508789528189208480870160051c8201928488106200025d575b9187968b92969594930160051c01915b8281106200024e575050620000f8565b8b81558796508a91016200023e565b925081926200022e565b634e487b7160e01b895260228652602489fd5b90607f1690620000e1565b634e487b7160e01b885260418552602488fd5b015190503880620000b3565b8b8052848c208b94509190601f1984168d5b87828210620002f15750508411620002d7575b505050811b018855620000c7565b015160001960f88460031b161c19169055388080620002c9565b8385015186558e97909501949384019301620002b6565b9091508a8052838b208680850160051c82019286861062000351575b918c91869594930160051c01915b828110620003425750506200009d565b8d81558594508c910162000332565b9250819262000324565b634e487b7160e01b8a526022875260248afd5b94607f169462000086565b604184634e487b7160e01b6000525260246000fd5b634e487b7160e01b600052604160045260246000fd5b600080fdfe6080604052600436101561001257600080fd5b60003560e01c80621f9d191461027657806301ffc9a714610271578063048efc281461026c57806306fdde0314610267578063081812fc14610262578063095ea7b31461025d57806311266fa41461025857806311b36c611461025357806312e8e2c31461024e57806320a8879b1461024957806322dcd13e1461024457806323b872dd1461023f578063305a67a81461023a578063385429f4146102355780633dca40e61461023057806342842e0e1461022b578063476343ee146102265780634b997fa21461022157806353142c8a1461021c5780636352211e146102175780636e06bbe81461021257806370a082311461020d578063715018a614610208578063782ee6861461020357806389f868b5146101fe5780638cda9cd8146101f95780638da5cb5b146101f457806395d89b41146101ef5780639bb4a790146101ea578063a22cb465146101e5578063b88d4fde146101e0578063c87b56dd146101db578063d73792a9146101d6578063de74e57b146101d1578063e985e9c5146101cc578063f2fde38b146101c7578063f43d2051146101c25763fe399991146101bd57600080fd5b611dd5565b611d49565b611be6565b611b84565b611b1e565b611b01565b611aae565b611a48565b611908565b61185f565b6117ba565b611793565b611699565b611643565b61157b565b6114f8565b611487565b611380565b611342565b61104a565b61101a565b610f7c565b610f48565b610f2b565b610e9e565b610b0d565b610af6565b610aa3565b610a4b565b6109a9565b6108ef565b61086b565b6106f5565b61068a565b6105a7565b610403565b610331565b3461030257604060031936011261030257600435602435907f9bfd726de89a3245ac6c28b59597252ac9b5ea93d6cbaaa3463a633704a746ee604060009383855260026020526102d36001600160a01b0383872054163314612b5c565b83855260096020526008828620826003820155016102f18154612527565b80915582519182526020820152a280f35b600080fd5b7fffffffff0000000000000000000000000000000000000000000000000000000081160361030257565b346103025760206003193601126103025760207fffffffff0000000000000000000000000000000000000000000000000000000060043561037181610307565b167f80ac58cd0000000000000000000000000000000000000000000000000000000081149081156103d9575b81156103af575b506040519015158152f35b7f01ffc9a700000000000000000000000000000000000000000000000000000000915014386103a4565b7f5b5e139f000000000000000000000000000000000000000000000000000000008114915061039d565b34610302576040600319360112610302576004357f8aea9a96cfe1bfb4cf4c211968ed80bd0ac066db181c7d95bf8e4238e8426abe61054e602435610475610465610458866000526002602052604060002090565b546001600160a01b031690565b6001600160a01b03163314612b5c565b610480811515612ba7565b6104b06104ab6104a7600961049f886000526009602052604060002090565b015460ff1690565b1590565b612bf2565b6104d760096104c9866000526009602052604060002090565b01600160ff19825416179055565b8060046104ee866000526009602052604060002090565b01556105366104fb6119db565b8581523360208201528260408201526105176060820160019052565b42608082015261053186600052600b602052604060002090565b612c3d565b60408051338152602081019290925290918291820190565b0390a2005b919082519283825260005b84811061057f575050601f19601f8460006020809697860101520116010190565b60208183018101518483018201520161055e565b9060206105a4928181520190610553565b90565b346103025760008060031936011261068757604051908080546105c981610c41565b8085529160019180831690811561065d5750600114610603575b6105ff856105f381870382610d1d565b60405191829182610593565b0390f35b80809450527f290decd9548b62a8d60345a988386fc84ba6bc95484008f6362f93160ef3e5635b8284106106455750505081016020016105f3826105ff6105e3565b8054602085870181019190915290930192810161062a565b8695506105ff969350602092506105f394915060ff191682840152151560051b82010192936105e3565b80fd5b34610302576020600319360112610302576004356106a7816121d8565b50600052600460205260206001600160a01b0360406000205416604051908152f35b600435906001600160a01b038216820361030257565b602435906001600160a01b038216820361030257565b346103025760406003193601126103025761070e6106c9565b6024359061071b826121d8565b3315158061081d575b806107df575b6107ae57826107ac93610779926001600160a01b0380861691167f8c5be1e5ebec7d5bd14f71427d1e84f3dd0314c0f7b2291e5b200ac8c7c3b925600080a46000526004602052604060002090565b906001600160a01b03167fffffffffffffffffffffffff0000000000000000000000000000000000000000825416179055565b005b6040517fa9fbf51f000000000000000000000000000000000000000000000000000000008152336004820152602490fd5b506001600160a01b038116600052600560205260ff610815336040600020906001600160a01b0316600052602052604060002090565b54161561072a565b50336001600160a01b0382161415610724565b6020908160408183019282815285518094520193019160005b828110610857575050505090565b835185529381019392810192600101610849565b3461030257602080600319360112610302576001600160a01b0361088d6106c9565b16600052600c8152604060002090604051908181845491828152019360005281600020916000905b8282106108d8576105ff856108cc81890382610d1d565b60405191829182610830565b8354865294850194600193840193909101906108b5565b34610302576020600319360112610302576105ff6040806080815161091381610cc3565b6000918183809352826020820152828582015282606082015201526004358152600a6020522090600481519261094884610cc3565b80548452600181015460208501526002810154838501526003810154606085015201546080830152519182918291909160808060a0830194805184526020810151602085015260408101516040850152606081015160608501520151910152565b34610302576020600319360112610302576004356109c5611e27565b6103e88111610a0757600e5460408051918252602082018390527fd347e206f25a89b917fc9482f1a2d294d749baa4dc9bde7fb495ee11fe49164391a1600e55005b606460405162461bcd60e51b815260206004820152600c60248201527f46656520746f6f206869676800000000000000000000000000000000000000006044820152fd5b3461030257602060031936011261030257600435600052600a60205260a06040600020805490600181015490600281015460046003830154920154926040519485526020850152604084015260608301526080820152f35b34610302576000600319360112610302576020600e54604051908152f35b6003196060910112610302576001600160a01b0390600435828116810361030257916024359081168103610302579060443590565b34610302576107ac610b0736610ac1565b91611e6b565b346103025760206003193601126103025760043580600052600b60205260406000206003810160ff81541615610bfd57610b546001610b799301546001600160a01b031690565b6001600160a01b031633148015610bcf575b610b6f90612cb9565b60ff198154169055565b610b9d6009610b92836000526009602052604060002090565b0160ff198154169055565b6040513381527f8e25282255ab31897df2b0456bb993ac7f84d376861aefd84901d2d63a7428a290806020810161054e565b50610b6f33610bf5610be96006546001600160a01b031690565b6001600160a01b031690565b149050610b66565b606460405162461bcd60e51b815260206004820152600a60248201527f4e6f74206c6973746564000000000000000000000000000000000000000000006044820152fd5b90600182811c92168015610c8a575b6020831014610c5b57565b7f4e487b7100000000000000000000000000000000000000000000000000000000600052602260045260246000fd5b91607f1691610c50565b7f4e487b7100000000000000000000000000000000000000000000000000000000600052604160045260246000fd5b60a0810190811067ffffffffffffffff821117610cdf57604052565b610c94565b610180810190811067ffffffffffffffff821117610cdf57604052565b6020810190811067ffffffffffffffff821117610cdf57604052565b90601f601f19910116810190811067ffffffffffffffff821117610cdf57604052565b9060405191826000825492610d5484610c41565b908184526001948581169081600014610dc35750600114610d80575b5050610d7e92500383610d1d565b565b9093915060005260209081600020936000915b818310610dab575050610d7e93508201013880610d70565b85548884018501529485019487945091830191610d93565b9050610d7e95506020935060ff1991501682840152151560051b8201013880610d70565b60041115610df157565b7f4e487b7100000000000000000000000000000000000000000000000000000000600052602160045260246000fd5b906004821015610df15752565b9895929c9b9a97949193610e6c610e616101609c99966001600160a01b03948d5260208d61018091829101528d0190610553565b9e60408c0190610e20565b166060890152608088015260a087015260c086015260e085015261010084015261012083015215156101408201520152565b3461030257602060031936011261030257600435600052600960205260406000208054906105ff610ed160018301610d40565b91600281015490600381015460048201546005830154600684015490600785015492600886015494600a610f09600989015460ff1690565b970154976040519b8c9b60ff6001600160a01b038460081c169316918d610e2d565b346103025760006003193601126103025760206040516103e88152f35b34610302576107ac610f5936610ac1565b9060405192610f6784610d01565b60008452610f76838383611e6b565b336122cc565b346103025760008060031936011261068757610f96611e27565b478015610fd65781808080610fd394610fc3610be96001600160a01b03600654166001600160a01b031690565b5af1610fcd61229c565b50613229565b80f35b606460405162461bcd60e51b815260206004820152601360248201527f4e6f206665657320746f207769746864726177000000000000000000000000006044820152fd5b346103025760406003193601126103025760206110406110386106df565b600435613163565b6040519015158152f35b602060031936011261030257600435611061612fb6565b61107581600052600b602052604060002090565b906003820180546110869060ff1690565b61108f90612d04565b6002830191825491823410156110a490612d4f565b6110b8826000526009602052604060002090565b9482600e546110c79086612db1565b61271090049182600a8901546110dd9088612db1565b61271090049687916110ee91612dc4565b906110f891612dc4565b9060010190815461110f906001600160a01b031690565b833361111a92612f0a565b866000998a80808080968854611136906001600160a01b031690565b6001600160a01b03165af161114961229c565b5061115390612dd1565b8115157fc379f91ea4a96c1ec9ef58c7152081c2b686ef331aed626c40aef08c00a8b72097611211976111eb976111d19660099685610b929661130b575b61127c575b50905081611246575b50508b546111c560026111bc8d600052600a602052604060002090565b01918254612eb2565b905560ff198154169055565b86548881341161121e575b5050546001600160a01b031690565b945460408051918252602082019590955233956001600160a01b03169490918291820190565b0390a4610fd36001600755565b80808061122e61123f9534612dc4565b335af161123961229c565b50612ebf565b38886111dc565b80808061127594611265610be9610be96006546001600160a01b031690565b5af161126f61229c565b50612e67565b388d61119f565b6112e87ff670029fc6f5302baba881b4ae845d1453acdf752b4c19ed81fe0fa6a686409b926112d860028a0191808080876112c8610be9610be989546001600160a01b039060081c1690565b5af16112d261229c565b50612e1c565b5460081c6001600160a01b031690565b604080516001600160a01b039290921682526020820192909252a28a8e8d611196565b50600287015460081c6001600160a01b03166001600160a01b03611339610be98d546001600160a01b031690565b91161415611191565b346103025760206003193601126103025760206113606004356121d8565b6001600160a01b0360405191168152f35b60243590811515820361030257565b34610302576040600319360112610302576004357fb9680fc338a30f8f557536220af7f79f0b1ade5b70c026f3a6b761b484747e8461054e6113c0611371565b6113da610465610458866000526002602052604060002090565b6113ee84600052600a602052604060002090565b6005611404866000526009602052604060002090565b61140e8354612527565b84818555611472575b8061144b575b50016114298154612527565b9055426004919091015560408051338152911515602083015290918291820190565b6114619061145c6001860154612d9a565b612429565b80600683015560038401553861141d565b600184016114808154612527565b9055611417565b34610302576020600319360112610302576001600160a01b036114a86106c9565b1680156114c75760005260036020526020604060002054604051908152f35b60246040517f89c62b6400000000000000000000000000000000000000000000000000000000815260006004820152fd5b346103025760008060031936011261068757611512611e27565b806001600160a01b036006547fffffffffffffffffffffffff00000000000000000000000000000000000000008116600655167f8be0079c531659141344cd1fd0a4f28419497f9722a3daafe3b4186f6b6457e08280a380f35b60243590600482101561030257565b346103025760a06003193601126103025760043567ffffffffffffffff8082116103025736602383011215610302578160040135908111610302573660248284010111610302576105ff916115e7916115d261156c565b916084359260643592602460443593016127f5565b6040519081529081906020820190565b7f4e487b7100000000000000000000000000000000000000000000000000000000600052603260045260246000fd5b805482101561163e5760005260206000200190600090565b6115f7565b346103025760406003193601126103025761165c6106c9565b6001600160a01b036024359116600052600c602052604060002080548210156103025760209161168b91611626565b90546040519160031b1c8152f35b6020600319360112610302576004356116b0612fb6565b600090808252600960205260408220600a600482015404341061174f5760029161170984808080611737966116f9610be9610be98b349401546001600160a01b039060081c1690565b5af161170361229c565b50612ff1565b61172761172082600052600d602052604060002090565b339061303c565b600052600a602052604060002090565b01611743348254612eb2565b9055610fd36001600755565b606460405162461bcd60e51b815260206004820152601360248201527f4c6963656e73652066656520746f6f206c6f77000000000000000000000000006044820152fd5b346103025760006003193601126103025760206001600160a01b0360065416604051908152f35b346103025760008060031936011261068757604051908060018054916117df83610c41565b8086529282811690811561065d5750600114611805576105ff856105f381870382610d1d565b92508083527fb10e2d527612073b26eecdfd717e6a320cf44b4afac2b0732d9fcbe2b7fa0cf65b8284106118475750505081016020016105f3826105ff6105e3565b8054602085870181019190915290930192810161182c565b34610302576000806003193601126106875760085461187d81613137565b9060409061188d82519384610d1d565b808352601f1961189c82613137565b01906020913683860137849160015b828111156118c3578386528451806105ff8882610830565b808752600b825260ff60038689200154166118e7575b6118e290612527565b6118ab565b9261190081856118fa6118e2948a61314f565b52612527565b9390506118d9565b34610302576040600319360112610302576119216106c9565b611929611371565b6001600160a01b0382169182156119aa578161196861197a923360005260056020526040600020906001600160a01b0316600052602052604060002090565b9060ff60ff1983541691151516179055565b60405190151581527f17307eab39ab6107e8899845ad3d59bd9653f200f220920489ca2b5937696c3160203392a3005b602483604051907f5b08ba180000000000000000000000000000000000000000000000000000000082526004820152fd5b60405190610d7e82610cc3565b60405190610d7e82610ce4565b67ffffffffffffffff8111610cdf57601f01601f191660200190565b929192611a1d826119f5565b91611a2b6040519384610d1d565b829481845281830111610302578281602093846000960137010152565b3461030257608060031936011261030257611a616106c9565b611a696106df565b906044356064359267ffffffffffffffff8411610302573660238501121561030257611aa26107ac943690602481600401359101611a11565b92610f76838383611e6b565b3461030257602060031936011261030257611aca6004356121d8565b506000604051611ad981610d01565b526105ff604051611ae981610d01565b60008152604051918291602083526020830190610553565b346103025760006003193601126103025760206040516127108152f35b3461030257602060031936011261030257600435600052600b60205260a060406000208054906001600160a01b03600182015416906002810154600460ff6003840154169201549260405194855260208501526040840152151560608301526080820152f35b3461030257604060031936011261030257602060ff611bda611ba46106c9565b6001600160a01b03611bb46106df565b9116600052600584526040600020906001600160a01b0316600052602052604060002090565b54166040519015158152f35b3461030257602060031936011261030257611bff6106c9565b611c07611e27565b6001600160a01b03809116908115611c6c57600654827fffffffffffffffffffffffff0000000000000000000000000000000000000000821617600655167f8be0079c531659141344cd1fd0a4f28419497f9722a3daafe3b4186f6b6457e0600080a3005b60246040517f1e4fbdf700000000000000000000000000000000000000000000000000000000815260006004820152fd5b60208152815160208201526020820151611cc5610180918260408501526101a0840190610553565b92611cd860408201516060850190610e20565b60608101516001600160a01b03166080840152608081015160a084015260a081015160c084015260c081015160e084015260e081015161010090818501528101516101209081850152810151610140908185015281015190611d41610160928386019015159052565b015191015290565b34610302576020600319360112610302576105ff611dc960406101608151611d7081610ce4565b60009181838093526060602082015282858201528260608201528260808201528260a08201528260c08201528260e08201528261010082015282610120820152826101408201520152600435815260096020522061307d565b60405191829182611c9d565b3461030257604060031936011261030257602435600435600052600d602052604060002090815481101561030257611e176001600160a01b0391602093611626565b9190546040519260031b1c168152f35b6001600160a01b03600654163303611e3b57565b60246040517f118cdaa7000000000000000000000000000000000000000000000000000000008152336004820152fd5b906001600160a01b03908181169182156120735784600093818552600260205260409383858720541695869133151580611f8f575b5090611f057fddf252ad1be2c89b69c2b068fc378daa952ba7f163c4a11628f55a4df523b3ef9284611f5c575b611eea816001600160a01b03166000526003602052604060002090565b60018154019055610779876000526002602052604060002090565b80a483168203611f155750505050565b517f64283d7b0000000000000000000000000000000000000000000000000000000081526001600160a01b0392831660048201526024810193909352166044820152606490fd5b611f658761219c565b611f82856001600160a01b03166000526003602052604060002090565b6000198154019055611ecd565b9193945091508061201c575b15611fab57879291869138611ea0565b848887611fe45790517f7e2732890000000000000000000000000000000000000000000000000000000081526004810191909152602490fd5b90517f177e802f0000000000000000000000000000000000000000000000000000000081523360048201526024810191909152604490fd5b503386148015612042575b80611f9b575087825260046020523384868420541614611f9b565b50858252600560205260ff61206c33878520906001600160a01b0316600052602052604060002090565b5416612027565b60246040517f64a0ae9200000000000000000000000000000000000000000000000000000000815260006004820152fd5b908060005260026020526001600160a01b03916120e683604060002054169384612138575b8216918261210f575b610779846000526002602052604060002090565b827fddf252ad1be2c89b69c2b068fc378daa952ba7f163c4a11628f55a4df523b3ef600080a490565b61212c816001600160a01b03166000526003602052604060002090565b600181540190556120d2565b61214c846000526004602052604060002090565b7fffffffffffffffffffffffff0000000000000000000000000000000000000000815416905561218f856001600160a01b03166000526003602052604060002090565b60001981540190556120c9565b6121b0906000526004602052604060002090565b7fffffffffffffffffffffffff00000000000000000000000000000000000000008154169055565b8060005260026020526001600160a01b03604060002054169081156121fb575090565b602490604051907f7e2732890000000000000000000000000000000000000000000000000000000082526004820152fd5b9081602091031261030257516105a481610307565b6105a493926001600160a01b036080931682526000602083015260408201528160608201520190610553565b90926105a494936080936001600160a01b03809216845216602083015260408201528160608201520190610553565b3d156122c7573d906122ad826119f5565b916122bb6040519384610d1d565b82523d6000602084013e565b606090565b92939193843b6122de575b5050505050565b60209161231a60405194859384937f150b7a0200000000000000000000000000000000000000000000000000000000988986526004860161226d565b038160006001600160a01b0388165af1600091816123f9575b5061238b578261234161229c565b8051919082612384576040517f64a0ae920000000000000000000000000000000000000000000000000000000081526001600160a01b0383166004820152602490fd5b6020915001fd5b7fffffffff0000000000000000000000000000000000000000000000000000000016036123bd575038808080806122d7565b6040517f64a0ae920000000000000000000000000000000000000000000000000000000081526001600160a01b03919091166004820152602490fd5b61241b91925060203d8111612422575b6124138183610d1d565b81019061222c565b9038612333565b503d612409565b8115612433570490565b7f4e487b7100000000000000000000000000000000000000000000000000000000600052601260045260246000fd5b1561246957565b606460405162461bcd60e51b815260206004820152601460248201527f4e616d652063616e6e6f7420626520656d7074790000000000000000000000006044820152fd5b156124b457565b606460405162461bcd60e51b815260206004820152601060248201527f526f79616c747920746f6f2068696768000000000000000000000000000000006044820152fd5b7f4e487b7100000000000000000000000000000000000000000000000000000000600052601160045260246000fd5b60001981146125365760010190565b6124f8565b6004821015610df15752565b90601f811161255557505050565b600091825260208220906020601f850160051c83019410612591575b601f0160051c01915b82811061258657505050565b81815560010161257a565b9092508290612571565b919091825167ffffffffffffffff8111610cdf576125c3816125bd8454610c41565b84612547565b602080601f83116001146125fe5750819293946000926125f3575b50506000198260011b9260031b1c1916179055565b0151905038806125de565b90601f1983169561261485600052602060002090565b926000905b88821061265157505083600195969710612638575b505050811b019055565b015160001960f88460031b161c1916905538808061262e565b80600185968294968601518155019501930190612619565b906004811015610df15760ff60ff198354169116179055565b90610160600a918051845561269e60208201516001860161259b565b612707600285016126bc60408401516126b681610de7565b82612669565b606083015181547fffffffffffffffffffffff0000000000000000000000000000000000000000ff1660089190911b74ffffffffffffffffffffffffffffffffffffffff0016179055565b6080810151600385015560a0810151600485015560c0810151600585015560e081015160068501556101008101516007850155610120810151600885015561276c612756610140830151151590565b600986019060ff60ff1983541691151516179055565b0151910155565b805468010000000000000000811015610cdf5761279591600182018155611626565b600019829392549160031b92831b921b1916179055565b929695949160c0601f19601f836127e7946080999660a08a528160a08b0152858a0137600084828a0101520116850101976020850190610e20565b604083015260608201520152565b93949061297b7ff9b7a25fa427a28956da41175d9534fe3ec453eb65c89edcd0b3b5502be861979392612829831515612462565b6128376103e88211156124ad565b61284a612845600854612527565b600855565b60085497889661285a8833612981565b6129476128656119e8565b89815261287336888d611a11565b6020820152612885886040830161253b565b3360608201528260808201528360a082015260008060c08301526128e2611388928360e082015242610100820152600161012082015282610140820152876101608201526128dd8d6000526009602052604060002090565b612682565b6128ea6119db565b91818352816020840152816040840152606083015260808201526129188a600052600a602052604060002090565b906080600491805184556020810151600185015560408101516002850155606081015160038501550151910155565b61296d88612968336001600160a01b0316600052600c602052604060002090565b612773565b604051958695339a876127ac565b0390a390565b604091825161298f81610d01565b600081526001600160a01b0390818416918215612b2c576129b084866120a4565b16612afc57833b6129c2575050505050565b612a0560009260209287989697519485809481937f150b7a0200000000000000000000000000000000000000000000000000000000998a84523360048501612241565b03925af160009181612adc575b50612a6b57505050612a2261229c565b8051929083612a645781517f64a0ae920000000000000000000000000000000000000000000000000000000081526001600160a01b0384166004820152602490fd5b6020849101fd5b9193917fffffffff000000000000000000000000000000000000000000000000000000001603612aa157505038808080806122d7565b517f64a0ae920000000000000000000000000000000000000000000000000000000081526001600160a01b0391909116600482015260249150fd5b612af591925060203d8111612422576124138183610d1d565b9038612a12565b602485517f73c6ac6e00000000000000000000000000000000000000000000000000000000815260006004820152fd5b602486517f64a0ae9200000000000000000000000000000000000000000000000000000000815260006004820152fd5b15612b6357565b606460405162461bcd60e51b815260206004820152600960248201527f4e6f74206f776e657200000000000000000000000000000000000000000000006044820152fd5b15612bae57565b606460405162461bcd60e51b815260206004820152601660248201527f5072696365206d75737420626520706f736974697665000000000000000000006044820152fd5b15612bf957565b606460405162461bcd60e51b815260206004820152600e60248201527f416c7265616479206c69737465640000000000000000000000000000000000006044820152fd5b90608060049180518455612c8f6001600160a01b0360208301511660018601906001600160a01b03167fffffffffffffffffffffffff0000000000000000000000000000000000000000825416179055565b6040810151600285015561276c60608201511515600386019060ff60ff1983541691151516179055565b15612cc057565b606460405162461bcd60e51b815260206004820152600e60248201527f4e6f7420617574686f72697a65640000000000000000000000000000000000006044820152fd5b15612d0b57565b606460405162461bcd60e51b815260206004820152601860248201527f4e6f74206c6973746564206f722073616c6520656e64656400000000000000006044820152fd5b15612d5657565b606460405162461bcd60e51b815260206004820152601460248201527f496e73756666696369656e74207061796d656e740000000000000000000000006044820152fd5b906127109182810292818404149015171561253657565b8181029291811591840414171561253657565b9190820391821161253657565b15612dd857565b606460405162461bcd60e51b815260206004820152601860248201527f4661696c656420746f2073656e6420746f2073656c6c657200000000000000006044820152fd5b15612e2357565b606460405162461bcd60e51b815260206004820152601760248201527f526f79616c7479207472616e73666572206661696c65640000000000000000006044820152fd5b15612e6e57565b606460405162461bcd60e51b815260206004820152601c60248201527f506c6174666f726d20666565207472616e73666572206661696c6564000000006044820152fd5b9190820180921161253657565b15612ec657565b606460405162461bcd60e51b815260206004820152600d60248201527f526566756e64206661696c6564000000000000000000000000000000000000006044820152fd5b906001600160a01b0390818116156120735783612f26916120a4565b908082169081612f6157602485604051907f7e2732890000000000000000000000000000000000000000000000000000000082526004820152fd5b831603612f6d57505050565b6040517f64283d7b0000000000000000000000000000000000000000000000000000000081526001600160a01b0392831660048201526024810193909352166044820152606490fd5b600260075414612fc7576002600755565b60046040517f3ee5aeb5000000000000000000000000000000000000000000000000000000008152fd5b15612ff857565b606460405162461bcd60e51b815260206004820152601960248201527f5061796d656e7420746f2063726561746f72206661696c6564000000000000006044820152fd5b805468010000000000000000811015610cdf5761305e91600182018155611626565b819291549060031b916001600160a01b03809116831b921b1916179055565b90600a6130886119e8565b928054845261309960018201610d40565b60208501526130d46001600160a01b0360028301546130be60ff82166040890161253b565b60081c1660608601906001600160a01b03169052565b60038101546080850152600481015460a0850152600581015460c0850152600681015460e08501526007810154610100850152600881015461012085015261312d613123600983015460ff1690565b1515610140860152565b0154610160830152565b67ffffffffffffffff8111610cdf5760051b60200190565b805182101561163e5760209160051b010190565b9060009182526020600281526001600160a01b03808060408620541693168093146131fe5790600d815260408420916040519283849284835492838152019288528488209488915b83831061320d57505050506131c292500382610d1d565b825b815181101561320757826131eb610be96131de848661314f565b516001600160a01b031690565b146131fe576131f990612527565b6131c4565b50505050600190565b50505090565b86548116855260019687019688965094820194909201916131ab565b1561323057565b606460405162461bcd60e51b815260206004820152601160248201527f5769746864726177616c206661696c65640000000000000000000000000000006044820152fdfea2646970667358221220404ca98bc59ecd1976ea126aa1e29177e7efb3fdd8b6af784a93c0d9249c084a64736f6c63430008140033",
  "linkReferences": {},
  "deployedLinkReferences": {}
}