{
  "_format": "hh-sol-artifact-1",
  "contractName": "ViewingAccess",
  "sourceName": "contracts/layer4/rights/ViewingAccess.sol",
  "abi": [
    {
      "inputs": [],
      "name": "ReentrancyGuardReentrantCall",
      "type": "error"
    },
    {
      "anonymous": false,
      "inputs": [
        {
          "indexed": true,
          "internalType": "uint256",
          "name": "passId",
          "type": "uint256"
        },
        {
          "indexed": true,
          "internalType": "uint256",
          "name": "assetId",
          "type": "uint256"
        },
        {
          "indexed": true,
          "internalType": "address",
          "name": "viewer",
          "type": "address"
        },
        {
          "indexed": false,
          "internalType": "enum ViewingAccess.AccessType",
          "name": "accessType",
          "type": "uint8"
        }
      ],
      "name": "AccessGranted",
      "type": "event"
    },
    {
      "anonymous": false,
      "inputs": [
        {
          "indexed": true,
          "internalType": "uint256",
          "name": "passId",
          "type": "uint256"
        },
        {
          "indexed": true,
          "internalType": "uint256",
          "name": "assetId",
          "type": "uint256"
        }
      ],
      "name": "ContentViewed",
      "type": "event"
    },
    {
      "anonymous": false,
      "inputs": [
        {
          "indexed": true,
          "internalType": "uint256",
          "name": "assetId",
          "type": "uint256"
        },
        {
          "indexed": false,
          "internalType": "uint256",
          "name": "purchasePrice",
          "type": "uint256"
        },
        {
          "indexed": false,
          "internalType": "uint256",
          "name": "rental24h",
          "type": "uint256"
        }
      ],
      "name": "PricingUpdated",
      "type": "event"
    },
    {
      "inputs": [
        {
          "internalType": "uint256",
          "name": "",
          "type": "uint256"
        }
      ],
      "name": "accessPasses",
      "outputs": [
        {
          "internalType": "uint256",
          "name": "passId",
          "type": "uint256"
        },
        {
          "internalType": "uint256",
          "name": "mediaAssetId",
          "type": "uint256"
        },
        {
          "internalType": "address",
          "name": "viewer",
          "type": "address"
        },
        {
          "internalType": "enum ViewingAccess.AccessType",
          "name": "accessType",
          "type": "uint8"
        },
        {
          "internalType": "uint256",
          "name": "purchaseDate",
          "type": "uint256"
        },
        {
          "internalType": "uint256",
          "name": "expiryDate",
          "type": "uint256"
        },
        {
          "internalType": "uint256",
          "name": "viewCount",
          "type": "uint256"
        },
        {
          "internalType": "uint256",
          "name": "pricePaid",
          "type": "uint256"
        },
        {
          "internalType": "bool",
          "name": "active",
          "type": "bool"
        }
      ],
      "stateMutability": "view",
      "type": "function"
    },
    {
      "inputs": [
        {
          "internalType": "uint256",
          "name": "",
          "type": "uint256"
        }
      ],
      "name": "assetViewCount",
      "outputs": [
        {
          "internalType": "uint256",
          "name": "",
          "type": "uint256"
        }
      ],
      "stateMutability": "view",
      "type": "function"
    },
    {
      "inputs": [
        {
          "internalType": "uint256",
          "name": "passId",
          "type": "uint256"
        }
      ],
      "name": "getAccessPass",
      "outputs": [
        {
          "components": [
            {
              "internalType": "uint256",
              "name": "passId",
              "type": "uint256"
            },
            {
              "internalType": "uint256",
              "name": "mediaAssetId",
              "type": "uint256"
            },
            {
              "internalType": "address",
              "name": "viewer",
              "type": "address"
            },
            {
              "internalType": "enum ViewingAccess.AccessType",
              "name": "accessType",
              "type": "uint8"
            },
            {
              "internalType": "uint256",
              "name": "purchaseDate",
              "type": "uint256"
            },
            {
              "internalType": "uint256",
              "name": "expiryDate",
              "type": "uint256"
            },
            {
              "internalType": "uint256",
              "name": "viewCount",
              "type": "uint256"
            },
            {
              "internalType": "uint256",
              "name": "pricePaid",
              "type": "uint256"
            },
            {
              "internalType": "bool",
              "name": "active",
              "type": "bool"
            }
          ],
          "internalType": "struct ViewingAccess.AccessPass",
          "name": "",
          "type": "tuple"
        }
      ],
      "stateMutability": "view",
      "type": "function"
    },
    {
      "inputs": [
        {
          "internalType": "uint256",
          "name": "assetId",
          "type": "uint256"
        }
      ],
      "name": "getPricing",
      "outputs": [
        {
          "components": [
            {
              "internalType": "uint256",
              "name": "assetId",
              "type": "uint256"
            },
            {
              "internalType": "uint256",
              "name": "purchasePrice",
              "type": "uint256"
            },
            {
              "internalType": "uint256",
              "name": "rentalPrice24h",
              "type": "uint256"
            },
            {
              "internalType": "uint256",
              "name": "rentalPrice7d",
              "type": "uint256"
            },
            {
              "internalType": "uint256",
              "name": "subscriptionMonthly",
              "type": "uint256"
            },
            {
              "internalType": "bool",
              "name": "isPremium",
              "type": "bool"
            },
            {
              "internalType": "address",
              "name": "creator",
              "type": "address"
            }
          ],
          "internalType": "struct ViewingAccess.PricingModel",
          "name": "",
          "type": "tuple"
        }
      ],
      "stateMutability": "view",
      "type": "function"
    },
    {
      "inputs": [
        {
          "internalType": "address",
          "name": "viewer",
          "type": "address"
        },
        {
          "internalType": "uint256",
          "name": "assetId",
          "type": "uint256"
        }
      ],
      "name": "hasAccess",
      "outputs": [
        {
          "internalType": "bool",
          "name": "",
          "type": "bool"
        }
      ],
      "stateMutability": "view",
      "type": "function"
    },
    {
      "inputs": [],
      "name": "passCount",
      "outputs": [
        {
          "internalType": "uint256",
          "name": "",
          "type": "uint256"
        }
      ],
      "stateMutability": "view",
      "type": "function"
    },
    {
      "inputs": [
        {
          "internalType": "uint256",
          "name": "",
          "type": "uint256"
        }
      ],
      "name": "pricingModels",
      "outputs": [
        {
          "internalType": "uint256",
          "name": "assetId",
          "type": "uint256"
        },
        {
          "internalType": "uint256",
          "name": "purchasePrice",
          "type": "uint256"
        },
        {
          "internalType": "uint256",
          "name": "rentalPrice24h",
          "type": "uint256"
        },
        {
          "internalType": "uint256",
          "name": "rentalPrice7d",
          "type": "uint256"
        },
        {
          "internalType": "uint256",
          "name": "subscriptionMonthly",
          "type": "uint256"
        },
        {
          "internalType": "bool",
          "name": "isPremium",
          "type": "bool"
        },
        {
          "internalType": "address",
          "name": "creator",
          "type": "address"
        }
      ],
      "stateMutability": "view",
      "type": "function"
    },
    {
      "inputs": [
        {
          "internalType": "uint256",
          "name": "assetId",
          "type": "uint256"
        }
      ],
      "name": "purchaseAccess",
      "outputs": [
        {
          "internalType": "uint256",
          "name": "",
          "type": "uint256"
        }
      ],
      "stateMutability": "payable",
      "type": "function"
    },
    {
      "inputs": [
        {
          "internalType": "uint256",
          "name": "passId",
          "type": "uint256"
        },
        {
          "internalType": "uint256",
          "name": "assetId",
          "type": "uint256"
        }
      ],
      "name": "recordView",
      "outputs": [],
      "stateMutability": "nonpayable",
      "type": "function"
    },
    {
      "inputs": [
        {
          "internalType": "uint256",
          "name": "assetId",
          "type": "uint256"
        }
      ],
      "name": "rent24h",
      "outputs": [
        {
          "internalType": "uint256",
          "name": "",
          "type": "uint256"
        }
      ],
      "stateMutability": "payable",
      "type": "function"
    },
    {
      "inputs": [
        {
          "internalType": "uint256",
          "name": "assetId",
          "type": "uint256"
        }
      ],
      "name": "rent7d",
      "outputs": [
        {
          "internalType": "uint256",
          "name": "",
          "type": "uint256"
        }
      ],
      "stateMutability": "payable",
      "type": "function"
    },
    {
      "inputs": [
        {
          "internalType": "uint256",
          "name": "assetId",
          "type": "uint256"
        },
        {
          "internalType": "uint256",
          "name": "purchasePrice",
          "type": "uint256"
        },
        {
          "internalType": "uint256",
          "name": "rental24h",
          "type": "uint256"
        },
        {
          "internalType": "uint256",
          "name": "rental7d",
          "type": "uint256"
        },
        {
          "internalType": "uint256",
          "name": "subscriptionMonthly",
          "type": "uint256"
        },
        {
          "internalType": "bool",
          "name": "isPremium",
          "type": "bool"
        }
      ],
      "name": "setPricing",
      "outputs": [],
      "stateMutability": "nonpayable",
      "type": "function"
    },
    {
      "inputs": [
        {
          "internalType": "uint256",
          "name": "assetId",
          "type": "uint256"
        }
      ],
      "name": "subscribe",
      "outputs": [
        {
          "internalType": "uint256",
          "name": "",
          "type": "uint256"
        }
      ],
      "stateMutability": "payable",
      "type": "function"
    },
    {
      "inputs": [
        {
          "internalType": "address",
          "name": "",
          "type": "address"
        },
        {
          "internalType": "uint256",
          "name": "",
          "type": "uint256"
        }
      ],
      "name": "viewerPasses",
      "outputs": [
        {
          "internalType": "uint256",
          "name": "",
          "type": "uint256"
        }
      ],
      "stateMutability": "view",
      "type": "function"
    }
  ],
  "bytecode": "0x608060405234801561001057600080fd5b50600160005561139a806100256000396000f3fe6080604052600436106100dd5760003560e01c8063b190542c1161007f578063c6530e4111610059578063c6530e41146102e7578063cb7c04b314610317578063d38f039714610337578063da151855146103bb57600080fd5b8063b190542c14610236578063b91d0a2f14610258578063c12f1a421461026b57600080fd5b80635378ecd8116100bb5780635378ecd8146101485780637d0bd806146101ed5780638377dfd41461020d5780639243ff401461022357600080fd5b80630f574ba7146100e25780632994c97e146101085780632ad81f4a1461011b575b600080fd5b6100f56100f03660046110dc565b6103e8565b6040519081526020015b60405180910390f35b6100f56101163660046110dc565b610600565b34801561012757600080fd5b5061013b6101363660046110dc565b6107f7565b6040516100ff919061112d565b34801561015457600080fd5b506101ad6101633660046110dc565b6002602081905260009182526040909120805460018201549282015460038301546004840154600590940154929493919290919060ff81169061010090046001600160a01b031687565b6040805197885260208801969096529486019390935260608501919091526080840152151560a08301526001600160a01b031660c082015260e0016100ff565b3480156101f957600080fd5b506100f56102083660046111a3565b6108fc565b34801561021957600080fd5b506100f560055481565b6100f56102313660046110dc565b61092d565b34801561024257600080fd5b506102566102513660046111db565b610b22565b005b6100f56102663660046110dc565b610c0b565b34801561027757600080fd5b5061028b6102863660046110dc565b610dea565b6040516100ff9190815181526020808301519082015260408083015190820152606080830151908201526080808301519082015260a08083015115159082015260c0918201516001600160a01b03169181019190915260e00190565b3480156102f357600080fd5b506103076103023660046111a3565b610ea4565b60405190151581526020016100ff565b34801561032357600080fd5b50610256610332366004611235565b610f5c565b34801561034357600080fd5b506103a66103523660046110dc565b60016020819052600091825260409091208054918101546002820154600383015460048401546005850154600686015460079096015494956001600160a01b0385169560ff600160a01b9096048616951689565b6040516100ff99989796959493929190611257565b3480156103c757600080fd5b506100f56103d63660046110dc565b60046020526000908152604090205481565b60006103f26110b2565b6000828152600260205260409020600481015434101561042d5760405162461bcd60e51b8152600401610424906112b0565b60405180910390fd5b6005805490600061043d836112f4565b9091555050600554604080516101208101825282815260208101869052339181019190915260608101600381526020014281526020014262278d00610482919061130d565b815260006020808301829052346040808501919091526001606094850181905286845280835292819020855181559185015192820192909255908301516002820180546001600160a01b039092166001600160a01b031983168117825593850151929390916001600160a81b03191617600160a01b836004811115610509576105096110f5565b0217905550608082015160038083019190915560a0830151600483015560c083015160058084019190915560e08401516006840155610100938401516007909301805493151560ff19909416939093179092553360009081526020918252604080822080546001810182559083529282209092018590559185015490519290046001600160a01b0316913480156108fc0292909190818181858888f193505050501580156105bb573d6000803e3d6000fd5b50336001600160a01b0316848260008051602061134583398151915260036040516105e69190611320565b60405180910390a49150506105fb6001600055565b919050565b600061060a6110b2565b60008281526002602081905260409091209081015434101561063e5760405162461bcd60e51b8152600401610424906112b0565b6005805490600061064e836112f4565b9091555050600554604080516101208101825282815260208101869052339181019190915260608101600181526020014281526020014262015180610693919061130d565b815260006020808301829052346040808501919091526001606094850181905286845280835292819020855181559185015192820192909255908301516002820180546001600160a01b039092166001600160a01b031983168117825593850151929390916001600160a81b03191617600160a01b83600481111561071a5761071a6110f5565b0217905550608082015160038083019190915560a0830151600483015560c083015160058084019190915560e08401516006840155610100938401516007909301805493151560ff19909416939093179092553360009081526020918252604080822080546001810182559083529282209092018590559185015490519290046001600160a01b0316913480156108fc0292909190818181858888f193505050501580156107cc573d6000803e3d6000fd5b50336001600160a01b0316848260008051602061134583398151915260016040516105e69190611320565b61084860408051610120810182526000808252602082018190529181018290529060608201908152602001600081526020016000815260200160008152602001600081526020016000151581525090565b60008281526001602081815260409283902083516101208101855281548152928101549183019190915260028101546001600160a01b0381169383019390935290916060830190600160a01b900460ff1660048111156108aa576108aa6110f5565b60048111156108bb576108bb6110f5565b81526003820154602082015260048201546040820152600582015460608201526006820154608082015260079091015460ff16151560a09091015292915050565b6003602052816000526040600020818154811061091857600080fd5b90600052602060002001600091509150505481565b60006109376110b2565b600082815260026020526040902060038101543410156109695760405162461bcd60e51b8152600401610424906112b0565b60058054906000610979836112f4565b9091555050600554604080516101208101825282815260208101869052339181019190915260608101600281526020014281526020014262093a806109be919061130d565b815260006020808301829052346040808501919091526001606094850181905286845280835292819020855181559185015192820192909255908301516002820180546001600160a01b039092166001600160a01b031983168117825593850151929390916001600160a81b03191617600160a01b836004811115610a4557610a456110f5565b0217905550608082015160038083019190915560a0830151600483015560c083015160058084019190915560e08401516006840155610100938401516007909301805493151560ff19909416939093179092553360009081526020918252604080822080546001810182559083529282209092018590559185015490519290046001600160a01b0316913480156108fc0292909190818181858888f19350505050158015610af7573d6000803e3d6000fd5b50336001600160a01b0316848260008051602061134583398151915260026040516105e69190611320565b6040805160e0810182528781526020808201888152828401888152606084018881526080850188815287151560a087019081523360c0880190815260008f81526002808952908a902098518955955160018901559351948701949094559051600386015551600485015590516005909301805491516001600160a81b0319909216931515610100600160a81b031916939093176101006001600160a01b039092169190910217909155815187815290810186905287917f99371e56fed42b9b50cad466b891dcb915a5500ce3e8b231db1a5e812b313d85910160405180910390a2505050505050565b6000610c156110b2565b60008281526002602052604090206001810154341015610c475760405162461bcd60e51b8152600401610424906112b0565b60058054906000610c57836112f4565b9091555050600554604080516101208101825282815260208082018781523383850190815260006060850181815242608087015260a0860182905260c086018290523460e087015260016101008701819052888352948590529590208451815591519282019290925590516002820180546001600160a01b039092166001600160a01b03198316811782559451939492939290916001600160a81b03191617600160a01b836004811115610d0d57610d0d6110f5565b0217905550608082015160038083019190915560a0830151600483015560c083015160058084019190915560e08401516006840155610100938401516007909301805493151560ff19909416939093179092553360009081526020918252604080822080546001810182559083529282209092018590559185015490519290046001600160a01b0316913480156108fc0292909190818181858888f19350505050158015610dbf573d6000803e3d6000fd5b50336001600160a01b0316848260008051602061134583398151915260006040516105e69190611320565b610e356040518060e00160405280600081526020016000815260200160008152602001600081526020016000815260200160001515815260200160006001600160a01b031681525090565b50600090815260026020818152604092839020835160e08101855281548152600182015492810192909252918201549281019290925260038101546060830152600481015460808301526005015460ff8116151560a083015261010090046001600160a01b031660c082015290565b6001600160a01b0382166000908152600360205260408120815b8154811015610f4f57600060016000848481548110610edf57610edf61132e565b906000526020600020015481526020019081526020016000209050848160010154148015610f115750600781015460ff165b15610f3c5760048101541580610f2b575080600401544211155b15610f3c5760019350505050610f56565b5080610f47816112f4565b915050610ebe565b5060009150505b92915050565b600082815260016020526040902060028101546001600160a01b03163314610fb75760405162461bcd60e51b815260206004820152600e60248201526d2737ba103830b9b99037bbb732b960911b6044820152606401610424565b600781015460ff16610ffd5760405162461bcd60e51b815260206004820152600f60248201526e50617373206e6f742061637469766560881b6044820152606401610424565b60048101541561104a57806004015442111561104a5760405162461bcd60e51b815260206004820152600c60248201526b14185cdcc8195e1c1a5c995960a21b6044820152606401610424565b60058101805490600061105c836112f4565b9091555050600082815260046020526040812080549161107b836112f4565b9091555050604051829084907f2be850b11c2390a9b57a3d98ee648a9257c82cb1a561c59224414af8635bfa7d90600090a3505050565b6002600054036110d557604051633ee5aeb560e01b815260040160405180910390fd5b6002600055565b6000602082840312156110ee57600080fd5b5035919050565b634e487b7160e01b600052602160045260246000fd5b6005811061112957634e487b7160e01b600052602160045260246000fd5b9052565b81518152602080830151908201526040808301516001600160a01b0316908201526060808301516101208301916111669084018261110b565b506080830151608083015260a083015160a083015260c083015160c083015260e083015160e0830152610100808401511515818401525092915050565b600080604083850312156111b657600080fd5b82356001600160a01b03811681146111cd57600080fd5b946020939093013593505050565b60008060008060008060c087890312156111f457600080fd5b863595506020870135945060408701359350606087013592506080870135915060a0870135801515811461122757600080fd5b809150509295509295509295565b6000806040838503121561124857600080fd5b50508035926020909101359150565b898152602081018990526001600160a01b03881660408201526101208101611282606083018961110b565b608082019690965260a081019490945260c084019290925260e0830152151561010090910152949350505050565b602080825260149082015273125b9cdd59999a58da595b9d081c185e5b595b9d60621b604082015260600190565b634e487b7160e01b600052601160045260246000fd5b600060018201611306576113066112de565b5060010190565b80820180821115610f5657610f566112de565b60208101610f56828461110b565b634e487b7160e01b600052603260045260246000fdfed5422307db29d9fcf76206ee945905c864bf3bf5118ab875bc2c9523e59866e9a2646970667358221220f71d1159cb7fc6ec74313760908063913fb4a7af371700afa0a3265f8c5b4e3164736f6c63430008140033",
  "linkReferences": {},
  "deployedLinkReferences": {}
}