{
  "_format": "hh-sol-artifact-1",
  "contractName": "ViewingAccess",
  "sourceName": "contracts/layer4/rights/ViewingAccess.sol",
  "abi": [
    {
      "inputs": [],
      "name": "ReentrancyGuardReentrantCall",
      "type": "error"
    },
    {
      "anonymous": false,
      "inputs": [
        {
          "indexed": true,
          "internalType": "uint256",
          "name": "passId",
          "type": "uint256"
        },
        {
          "indexed": true,
          "internalType": "uint256",
          "name": "assetId",
          "type": "uint256"
        },
        {
          "indexed": true,
          "internalType": "address",
          "name": "viewer",
          "type": "address"
        },
        {
          "indexed": false,
          "internalType": "enum ViewingAccess.AccessType",
          "name": "accessType",
          "type": "uint8"
        }
      ],
      "name": "AccessGranted",
      "type": "event"
    },
    {
      "anonymous": false,
      "inputs": [
        {
          "indexed": true,
          "internalType": "uint256",
          "name": "passId",
          "type": "uint256"
        },
        {
          "indexed": true,
          "internalType": "uint256",
          "name": "assetId",
          "type": "uint256"
        }
      ],
      "name": "ContentViewed",
      "type": "event"
    },
    {
      "anonymous": false,
      "inputs": [
        {
          "indexed": true,
          "internalType": "uint256",
          "name": "assetId",
          "type": "uint256"
        },
        {
          "indexed": false,
          "internalType": "uint256",
          "name": "purchasePrice",
          "type": "uint256"
        },
        {
          "indexed": false,
          "internalType": "uint256",
          "name": "rental24h",
          "type": "uint256"
        }
      ],
      "name": "PricingUpdated",
      "type": "event"
    },
    {
      "inputs": [
        {
          "internalType": "uint256",
          "name": "",
          "type": "uint256"
        }
      ],
      "name": "accessPasses",
      "outputs": [
        {
          "internalType": "uint256",
          "name": "passId",
          "type": "uint256"
        },
        {
          "internalType": "uint256",
          "name": "mediaAssetId",
          "type": "uint256"
        },
        {
          "internalType": "address",
          "name": "viewer",
          "type": "address"
        },
        {
          "internalType": "enum ViewingAccess.AccessType",
          "name": "accessType",
          "type": "uint8"
        },
        {
          "internalType": "uint256",
          "name": "purchaseDate",
          "type": "uint256"
        },
        {
          "internalType": "uint256",
          "name": "expiryDate",
          "type": "uint256"
        },
        {
          "internalType": "uint256",
          "name": "viewCount",
          "type": "uint256"
        },
        {
          "internalType": "uint256",
          "name": "pricePaid",
          "type": "uint256"
        },
        {
          "internalType": "bool",
          "name": "active",
          "type": "bool"
        }
      ],
      "stateMutability": "view",
      "type": "function"
    },
    {
      "inputs": [
        {
          "internalType": "uint256",
          "name": "",
          "type": "uint256"
        }
      ],
      "name": "assetViewCount",
      "outputs": [
        {
          "internalType": "uint256",
          "name": "",
          "type": "uint256"
        }
      ],
      "stateMutability": "view",
      "type": "function"
    },
    {
      "inputs": [
        {
          "internalType": "uint256",
          "name": "passId",
          "type": "uint256"
        }
      ],
      "name": "getAccessPass",
      "outputs": [
        {
          "components": [
            {
              "internalType": "uint256",
              "name": "passId",
              "type": "uint256"
            },
            {
              "internalType": "uint256",
              "name": "mediaAssetId",
              "type": "uint256"
            },
            {
              "internalType": "address",
              "name": "viewer",
              "type": "address"
            },
            {
              "internalType": "enum ViewingAccess.AccessType",
              "name": "accessType",
              "type": "uint8"
            },
            {
              "internalType": "uint256",
              "name": "purchaseDate",
              "type": "uint256"
            },
            {
              "internalType": "uint256",
              "name": "expiryDate",
              "type": "uint256"
            },
            {
              "internalType": "uint256",
              "name": "viewCount",
              "type": "uint256"
            },
            {
              "internalType": "uint256",
              "name": "pricePaid",
              "type": "uint256"
            },
            {
              "internalType": "bool",
              "name": "active",
              "type": "bool"
            }
          ],
          "internalType": "struct ViewingAccess.AccessPass",
          "name": "",
          "type": "tuple"
        }
      ],
      "stateMutability": "view",
      "type": "function"
    },
    {
      "inputs": [
        {
          "internalType": "uint256",
          "name": "assetId",
          "type": "uint256"
        }
      ],
      "name": "getPricing",
      "outputs": [
        {
          "components": [
            {
              "internalType": "uint256",
              "name": "assetId",
              "type": "uint256"
            },
            {
              "internalType": "uint256",
              "name": "purchasePrice",
              "type": "uint256"
            },
            {
              "internalType": "uint256",
              "name": "rentalPrice24h",
              "type": "uint256"
            },
            {
              "internalType": "uint256",
              "name": "rentalPrice7d",
              "type": "uint256"
            },
            {
              "internalType": "uint256",
              "name": "subscriptionMonthly",
              "type": "uint256"
            },
            {
              "internalType": "bool",
              "name": "isPremium",
              "type": "bool"
            },
            {
              "internalType": "address",
              "name": "creator",
              "type": "address"
            }
          ],
          "internalType": "struct ViewingAccess.PricingModel",
          "name": "",
          "type": "tuple"
        }
      ],
      "stateMutability": "view",
      "type": "function"
    },
    {
      "inputs": [
        {
          "internalType": "address",
          "name": "viewer",
          "type": "address"
        },
        {
          "internalType": "uint256",
          "name": "assetId",
          "type": "uint256"
        }
      ],
      "name": "hasAccess",
      "outputs": [
        {
          "internalType": "bool",
          "name": "",
          "type": "bool"
        }
      ],
      "stateMutability": "view",
      "type": "function"
    },
    {
      "inputs": [],
      "name": "passCount",
      "outputs": [
        {
          "internalType": "uint256",
          "name": "",
          "type": "uint256"
        }
      ],
      "stateMutability": "view",
      "type": "function"
    },
    {
      "inputs": [
        {
          "internalType": "uint256",
          "name": "",
          "type": "uint256"
        }
      ],
      "name": "pricingModels",
      "outputs": [
        {
          "internalType": "uint256",
          "name": "assetId",
          "type": "uint256"
        },
        {
          "internalType": "uint256",
          "name": "purchasePrice",
          "type": "uint256"
        },
        {
          "internalType": "uint256",
          "name": "rentalPrice24h",
          "type": "uint256"
        },
        {
          "internalType": "uint256",
          "name": "rentalPrice7d",
          "type": "uint256"
        },
        {
          "internalType": "uint256",
          "name": "subscriptionMonthly",
          "type": "uint256"
        },
        {
          "internalType": "bool",
          "name": "isPremium",
          "type": "bool"
        },
        {
          "internalType": "address",
          "name": "creator",
          "type": "address"
        }
      ],
      "stateMutability": "view",
      "type": "function"
    },
    {
      "inputs": [
        {
          "internalType": "uint256",
          "name": "assetId",
          "type": "uint256"
        }
      ],
      "name": "purchaseAccess",
      "outputs": [
        {
          "internalType": "uint256",
          "name": "",
          "type": "uint256"
        }
      ],
      "stateMutability": "payable",
      "type": "function"
    },
    {
      "inputs": [
        {
          "internalType": "uint256",
          "name": "passId",
          "type": "uint256"
        },
        {
          "internalType": "uint256",
          "name": "assetId",
          "type": "uint256"
        }
      ],
      "name": "recordView",
      "outputs": [],
      "stateMutability": "nonpayable",
      "type": "function"
    },
    {
      "inputs": [
        {
          "internalType": "uint256",
          "name": "assetId",
          "type": "uint256"
        }
      ],
      "name": "rent24h",
      "outputs": [
        {
          "internalType": "uint256",
          "name": "",
          "type": "uint256"
        }
      ],
      "stateMutability": "payable",
      "type": "function"
    },
    {
      "inputs": [
        {
          "internalType": "uint256",
          "name": "assetId",
          "type": "uint256"
        }
      ],
      "name": "rent7d",
      "outputs": [
        {
          "internalType": "uint256",
          "name": "",
          "type": "uint256"
        }
      ],
      "stateMutability": "payable",
      "type": "function"
    },
    {
      "inputs": [
        {
          "internalType": "uint256",
          "name": "assetId",
          "type": "uint256"
        },
        {
          "internalType": "uint256",
          "name": "purchasePrice",
          "type": "uint256"
        },
        {
          "internalType": "uint256",
          "name": "rental24h",
          "type": "uint256"
        },
        {
          "internalType": "uint256",
          "name": "rental7d",
          "type": "uint256"
        },
        {
          "internalType": "uint256",
          "name": "subscriptionMonthly",
          "type": "uint256"
        },
        {
          "internalType": "bool",
          "name": "isPremium",
          "type": "bool"
        }
      ],
      "name": "setPricing",
      "outputs": [],
      "stateMutability": "nonpayable",
      "type": "function"
    },
    {
      "inputs": [
        {
          "internalType": "uint256",
          "name": "assetId",
          "type": "uint256"
        }
      ],
      "name": "subscribe",
      "outputs": [
        {
          "internalType": "uint256",
          "name": "",
          "type": "uint256"
        }
      ],
      "stateMutability": "payable",
      "type": "function"
    },
    {
      "inputs": [
        {
          "internalType": "address",
          "name": "",
          "type": "address"
        },
        {
          "internalType": "uint256",
          "name": "",
          "type": "uint256"
        }
      ],
      "name": "viewerPasses",
      "outputs": [
        {
          "internalType": "uint256",
          "name": "",
          "type": "uint256"
        }
      ],
      "stateMutability": "view",
      "type": "function"
    }
  ],
  "bytecode": "0x6080806040523461001b5760016000556113cf90816100218239f35b600080fdfe6040608081526004908136101561001557600080fd5b60009160e08335811c9081630f574ba714610e725781632994c97e14610c4b5781632ad81f4a14610adf5781635378ecd814610a5e5781637d0bd80614610a065781638377dfd4146109e65781639243ff40146107ca578163b190542c1461068c578163b91d0a2f14610474578163c12f1a4214610384578163c6530e411461035a578163cb7c04b31461018f578163d38f0397146100e7575063da151855146100be57600080fd5b346100e35760206003193601126100e357602092818392358252845220549051908152f35b8280fd5b90503461018b57602060031936011261018b578261012094833581526001602052209081549360018301549360028401549061016f6003860154918601549260058701549460ff600760068a0154990154169881519a8b5260208b015273ffffffffffffffffffffffffffffffffffffffff8216908a015260ff60608a019160a01c16611061565b608087015260a086015260c08501528301521515610100820152f35b8380fd5b505090346100e357806003193601126100e35781359060243592828552600160205281852073ffffffffffffffffffffffffffffffffffffffff60028201541633036102fd5760ff600782015416156102a0578181015480610237575b506005016101fa81546111f1565b9055838552602052832061020e81546111f1565b90557f2be850b11c2390a9b57a3d98ee648a9257c82cb1a561c59224414af8635bfa7d8380a380f35b421161024357386101ec565b50602060649251917f08c379a0000000000000000000000000000000000000000000000000000000008352820152600c60248201527f50617373206578706972656400000000000000000000000000000000000000006044820152fd5b50602060649251917f08c379a0000000000000000000000000000000000000000000000000000000008352820152600f60248201527f50617373206e6f742061637469766500000000000000000000000000000000006044820152fd5b50602060649251917f08c379a0000000000000000000000000000000000000000000000000000000008352820152600e60248201527f4e6f742070617373206f776e65720000000000000000000000000000000000006044820152fd5b50505034610380576020906103776103713661109d565b906112df565b90519015158152f35b5080fd5b828486346104715760206003193601126104715780829160c06103a561116c565b82815282602082015282858201528260608201528260808201528260a0820152015283358152600260205220916103da61116c565b83549384825260018101549260208301938452600282015494808401958652600560038401549260608601938452840154936080860194855201549560c060a086019560ff891615158752019573ffffffffffffffffffffffffffffffffffffffff809860081c1687528251988952516020890152519087015251606086015251608085015251151560a0840152511660c0820152f35b80fd5b9050828460209384600319360112610380578035906104916112a4565b818352600286528383206104ab600182015434101561118c565b6104b66005546111f1565b958660055584876104c561111c565b928184528a8401958787528b8a860197338952606087018681526080880191428352600160a08a019489865260c08b01978a89528b0198348a526101008c019a838c5252528d8d2098518955516001890155600288019073ffffffffffffffffffffffffffffffffffffffff809b511682549151600581101561066057968e9c9891966105e9968e9d98966007968f9e98968f9e977fffffffffffffffffffffff00000000000000000000000000000000000000000074ff000000000000000000000000000000000000000060059f60a01b169216171790555160038801555190860155518785015551600684015551151591019060ff7fffffffffffffffffffffffffffffffffffffffffffffffffffffffffffffff0083541691151516179055565b33845260038c526105fc8b8b862061124d565b015460081c1681903415610656575b3491f11561064a5790600191835190828252857fd5422307db29d9fcf76206ee945905c864bf3bf5118ab875bc2c9523e59866e9883394a45551908152f35b509051903d90823e3d90fd5b6108fc915061060b565b60248f6021897f4e487b7100000000000000000000000000000000000000000000000000000000835252fd5b5050346100e35760c06003193601126100e35780359160243560443560a4358015158091036107c6578561077460057f99371e56fed42b9b50cad466b891dcb915a5500ce3e8b231db1a5e812b313d85976106e561116c565b908482528b602083018981528a8401898152606085019160643583528c6080870194608435865260a088019b8c5260c088019a338c5281526002602052209551865551600186015551600285015551600384015551908201550192511515839060ff7fffffffffffffffffffffffffffffffffffffffffffffffffffffffffffffff0083541691151516179055565b517fffffffffffffffffffffff0000000000000000000000000000000000000000ff74ffffffffffffffffffffffffffffffffffffffff0083549260081b16911617905582519182526020820152a280f35b8680fd5b82848660209384600319360112610380578335906107e66112a4565b81835260028652838320610800600382015434101561118c565b61080b6005546111f1565b958660055562093a804201928342116109ba5787869161082961111c565b938285528b8501968888528c8b870198338a52606088019060028252600160808a019342855260a08b0195865260c08b01978a89528b0198348a526101008c019a838c5252528d8d2098518955516001890155600288019073ffffffffffffffffffffffffffffffffffffffff809b511682549151600581101561066057968e9c98919661094e968e9d98966007968f9e98968f9e977fffffffffffffffffffffff00000000000000000000000000000000000000000074ff000000000000000000000000000000000000000060059f60a01b169216171790555160038801555190860155518785015551600684015551151591019060ff7fffffffffffffffffffffffffffffffffffffffffffffffffffffffffffffff0083541691151516179055565b33845260038c526109618b8b862061124d565b015460081c16819034156109b0575b3491f11561064a579060019183519060028252857fd5422307db29d9fcf76206ee945905c864bf3bf5118ab875bc2c9523e59866e9883394a45551908152f35b6108fc9150610970565b6024866011847f4e487b7100000000000000000000000000000000000000000000000000000000835252fd5b505050346103805781600319360112610380576020906005549051908152f35b505050346103805773ffffffffffffffffffffffffffffffffffffffff91610a2d3661109d565b9316815260036020528181209081548410156104715750602092610a50916110d5565b90549060031b1c9051908152f35b8284863461047157602060031936011261047157908073ffffffffffffffffffffffffffffffffffffffff9284358152600260205220805493600182015492600283015490600560038501549385015494015494815197885260208801528601526060850152608084015260ff8116151560a084015260081c1660c0820152f35b84915083346100e35760206003193601126100e357610afc61111c565b9183835283602084015283828401528360608401528360808401528360a08401528360c084015283818401528361010080940152843584526001602052818420610b4461111c565b9281548452600182015495602085019687526002830154918086019260ff73ffffffffffffffffffffffffffffffffffffffff91828116865260a01c1660608801936005821015610c1f5750926101209a92610bff92899796958352600387015494608089019586528701549560a0890196875260ff600760058a01549960c08c019a8b528c60068201549c019b8c520154169a8c81019b15158c52602084519e8f92518352519101525116908b01525160608a0190611061565b5160808801525160a08701525160c0860152519084015251151590820152f35b8060218d7f4e487b71000000000000000000000000000000000000000000000000000000006024945252fd5b8491508360209283600319360112610471578435610c676112a4565b8082526002855282822093610c82600286015434101561118c565b610c8d6005546111f1565b948560055562015180420191824211610e46579784878798999a610caf61111c565b938285528c8501968888528d8b870198338a52606088019060019d8e80845260808b019442865260a08c0196875260c08c01988b8a528c0199348b526101008d019b838d5252528d2098518955518d890155600288019073ffffffffffffffffffffffffffffffffffffffff809b511682549151600581101561066057968e9c989196610dd3968e9d98966007968f9e98968f9e977fffffffffffffffffffffff00000000000000000000000000000000000000000074ff000000000000000000000000000000000000000060059f60a01b169216171790555160038801555190860155518785015551600684015551151591019060ff7fffffffffffffffffffffffffffffffffffffffffffffffffffffffffffffff0083541691151516179055565b33845260038d52610de68c8c862061124d565b015460081c1681903415610e3c575b3491f115610e3057835190838252857fd5422307db29d9fcf76206ee945905c864bf3bf5118ab875bc2c9523e59866e9883394a45551908152f35b508251903d90823e3d90fd5b6108fc9150610df5565b60248560118b7f4e487b7100000000000000000000000000000000000000000000000000000000835252fd5b8284866020938460031936011261038057833590610e8e6112a4565b81835260028652838320610ea78682015434101561118c565b610eb26005546111f1565b958660055562278d004201928342116109ba57878691610ed061111c565b938285528b8501968888528c8b870198338a52606088019060038252600160808a019342855260a08b0195865260c08b01978a89528b0198348a526101008c019a838c5252528d8d2098518955516001890155600288019073ffffffffffffffffffffffffffffffffffffffff809b511682549151600581101561066057968e9c989196610ff5968e9d98966007968f9e98968f9e977fffffffffffffffffffffff00000000000000000000000000000000000000000074ff000000000000000000000000000000000000000060059f60a01b169216171790555160038801555190860155518785015551600684015551151591019060ff7fffffffffffffffffffffffffffffffffffffffffffffffffffffffffffffff0083541691151516179055565b33845260038c526110088b8b862061124d565b015460081c1681903415611057575b3491f11561064a579060019183519060038252857fd5422307db29d9fcf76206ee945905c864bf3bf5118ab875bc2c9523e59866e9883394a45551908152f35b6108fc9150611017565b90600582101561106e5752565b7f4e487b7100000000000000000000000000000000000000000000000000000000600052602160045260246000fd5b60031960409101126110d05760043573ffffffffffffffffffffffffffffffffffffffff811681036110d0579060243590565b600080fd5b80548210156110ed5760005260206000200190600090565b7f4e487b7100000000000000000000000000000000000000000000000000000000600052603260045260246000fd5b60405190610120820182811067ffffffffffffffff82111761113d57604052565b7f4e487b7100000000000000000000000000000000000000000000000000000000600052604160045260246000fd5b6040519060e0820182811067ffffffffffffffff82111761113d57604052565b1561119357565b60646040517f08c379a000000000000000000000000000000000000000000000000000000000815260206004820152601460248201527f496e73756666696369656e74207061796d656e740000000000000000000000006044820152fd5b7fffffffffffffffffffffffffffffffffffffffffffffffffffffffffffffffff811461121e5760010190565b7f4e487b7100000000000000000000000000000000000000000000000000000000600052601160045260246000fd5b80546801000000000000000081101561113d5761126f916001820181556110d5565b7fffffffffffffffffffffffffffffffffffffffffffffffffffffffffffffffff829392549160031b92831b921b1916179055565b6002600054146112b5576002600055565b60046040517f3ee5aeb5000000000000000000000000000000000000000000000000000000008152fd5b73ffffffffffffffffffffffffffffffffffffffff16600090815260036020818152604080842080549495929390865b868110611320575050505050505090565b61132a81836110d5565b905490841b1c885260018087528489208682820154148061138b575b61135b575b5050611356906111f1565b61130f565b600401548015908115611380575b50611374578061134b565b97505050505050505090565b905042111538611369565b5060ff60078201541661134656fea2646970667358221220afea198542e38b569a880cea9514aec7c776cafd5b2eed96ab1a34f84c77952064736f6c63430008140033",
  "linkReferences": {},
  "deployedLinkReferences": {}
}