{
  "_format": "hh-sol-artifact-1",
  "contractName": "ReputationRecovery",
  "sourceName": "contracts/layer7/enforcement/ReputationRecovery.sol",
  "abi": [
    {
      "inputs": [],
      "stateMutability": "nonpayable",
      "type": "constructor"
    },
    {
      "inputs": [],
      "name": "AccessControlBadConfirmation",
      "type": "error"
    },
    {
      "inputs": [
        {
          "internalType": "address",
          "name": "account",
          "type": "address"
        },
        {
          "internalType": "bytes32",
          "name": "neededRole",
          "type": "bytes32"
        }
      ],
      "name": "AccessControlUnauthorizedAccount",
      "type": "error"
    },
    {
      "anonymous": false,
      "inputs": [
        {
          "indexed": true,
          "internalType": "uint256",
          "name": "planId",
          "type": "uint256"
        },
        {
          "indexed": false,
          "internalType": "uint256",
          "name": "milestoneId",
          "type": "uint256"
        },
        {
          "indexed": false,
          "internalType": "int256",
          "name": "reward",
          "type": "int256"
        }
      ],
      "name": "MilestoneCompleted",
      "type": "event"
    },
    {
      "anonymous": false,
      "inputs": [
        {
          "indexed": true,
          "internalType": "uint256",
          "name": "planId",
          "type": "uint256"
        },
        {
          "indexed": true,
          "internalType": "uint256",
          "name": "entityId",
          "type": "uint256"
        }
      ],
      "name": "RecoveryCompleted",
      "type": "event"
    },
    {
      "anonymous": false,
      "inputs": [
        {
          "indexed": true,
          "internalType": "uint256",
          "name": "planId",
          "type": "uint256"
        },
        {
          "indexed": false,
          "internalType": "string",
          "name": "reason",
          "type": "string"
        }
      ],
      "name": "RecoveryFailed",
      "type": "event"
    },
    {
      "anonymous": false,
      "inputs": [
        {
          "indexed": true,
          "internalType": "uint256",
          "name": "planId",
          "type": "uint256"
        },
        {
          "indexed": true,
          "internalType": "uint256",
          "name": "entityId",
          "type": "uint256"
        },
        {
          "indexed": false,
          "internalType": "enum ReputationRecovery.RecoveryType",
          "name": "recoveryType",
          "type": "uint8"
        }
      ],
      "name": "RecoveryPlanCreated",
      "type": "event"
    },
    {
      "anonymous": false,
      "inputs": [
        {
          "indexed": true,
          "internalType": "bytes32",
          "name": "role",
          "type": "bytes32"
        },
        {
          "indexed": true,
          "internalType": "bytes32",
          "name": "previousAdminRole",
          "type": "bytes32"
        },
        {
          "indexed": true,
          "internalType": "bytes32",
          "name": "newAdminRole",
          "type": "bytes32"
        }
      ],
      "name": "RoleAdminChanged",
      "type": "event"
    },
    {
      "anonymous": false,
      "inputs": [
        {
          "indexed": true,
          "internalType": "bytes32",
          "name": "role",
          "type": "bytes32"
        },
        {
          "indexed": true,
          "internalType": "address",
          "name": "account",
          "type": "address"
        },
        {
          "indexed": true,
          "internalType": "address",
          "name": "sender",
          "type": "address"
        }
      ],
      "name": "RoleGranted",
      "type": "event"
    },
    {
      "anonymous": false,
      "inputs": [
        {
          "indexed": true,
          "internalType": "bytes32",
          "name": "role",
          "type": "bytes32"
        },
        {
          "indexed": true,
          "internalType": "address",
          "name": "account",
          "type": "address"
        },
        {
          "indexed": true,
          "internalType": "address",
          "name": "sender",
          "type": "address"
        }
      ],
      "name": "RoleRevoked",
      "type": "event"
    },
    {
      "inputs": [],
      "name": "DEFAULT_ADMIN_ROLE",
      "outputs": [
        {
          "internalType": "bytes32",
          "name": "",
          "type": "bytes32"
        }
      ],
      "stateMutability": "view",
      "type": "function"
    },
    {
      "inputs": [],
      "name": "RECOVERY_MANAGER_ROLE",
      "outputs": [
        {
          "internalType": "bytes32",
          "name": "",
          "type": "bytes32"
        }
      ],
      "stateMutability": "view",
      "type": "function"
    },
    {
      "inputs": [
        {
          "internalType": "uint256",
          "name": "planId",
          "type": "uint256"
        },
        {
          "internalType": "string",
          "name": "description",
          "type": "string"
        },
        {
          "internalType": "int256",
          "name": "reputationReward",
          "type": "int256"
        },
        {
          "internalType": "uint256",
          "name": "deadline",
          "type": "uint256"
        }
      ],
      "name": "addMilestone",
      "outputs": [],
      "stateMutability": "nonpayable",
      "type": "function"
    },
    {
      "inputs": [
        {
          "internalType": "uint256",
          "name": "planId",
          "type": "uint256"
        },
        {
          "internalType": "uint256",
          "name": "milestoneId",
          "type": "uint256"
        }
      ],
      "name": "completeMilestone",
      "outputs": [
        {
          "internalType": "int256",
          "name": "",
          "type": "int256"
        }
      ],
      "stateMutability": "nonpayable",
      "type": "function"
    },
    {
      "inputs": [
        {
          "internalType": "uint256",
          "name": "entityId",
          "type": "uint256"
        },
        {
          "internalType": "enum ReputationRecovery.RecoveryType",
          "name": "recoveryType",
          "type": "uint8"
        },
        {
          "internalType": "int256",
          "name": "targetReputation",
          "type": "int256"
        },
        {
          "internalType": "uint256",
          "name": "duration",
          "type": "uint256"
        }
      ],
      "name": "createRecoveryPlan",
      "outputs": [
        {
          "internalType": "uint256",
          "name": "",
          "type": "uint256"
        }
      ],
      "stateMutability": "nonpayable",
      "type": "function"
    },
    {
      "inputs": [
        {
          "internalType": "uint256",
          "name": "",
          "type": "uint256"
        }
      ],
      "name": "entityActivePlan",
      "outputs": [
        {
          "internalType": "uint256",
          "name": "",
          "type": "uint256"
        }
      ],
      "stateMutability": "view",
      "type": "function"
    },
    {
      "inputs": [
        {
          "internalType": "uint256",
          "name": "planId",
          "type": "uint256"
        },
        {
          "internalType": "string",
          "name": "reason",
          "type": "string"
        }
      ],
      "name": "failRecovery",
      "outputs": [],
      "stateMutability": "nonpayable",
      "type": "function"
    },
    {
      "inputs": [
        {
          "internalType": "uint256",
          "name": "planId",
          "type": "uint256"
        }
      ],
      "name": "getPlanMilestones",
      "outputs": [
        {
          "components": [
            {
              "internalType": "uint256",
              "name": "milestoneId",
              "type": "uint256"
            },
            {
              "internalType": "string",
              "name": "description",
              "type": "string"
            },
            {
              "internalType": "int256",
              "name": "reputationReward",
              "type": "int256"
            },
            {
              "internalType": "uint256",
              "name": "deadline",
              "type": "uint256"
            },
            {
              "internalType": "bool",
              "name": "completed",
              "type": "bool"
            }
          ],
          "internalType": "struct ReputationRecovery.Milestone[]",
          "name": "",
          "type": "tuple[]"
        }
      ],
      "stateMutability": "view",
      "type": "function"
    },
    {
      "inputs": [
        {
          "internalType": "uint256",
          "name": "planId",
          "type": "uint256"
        }
      ],
      "name": "getRecoveryProgress",
      "outputs": [
        {
          "internalType": "uint256",
          "name": "milestonesCompleted",
          "type": "uint256"
        },
        {
          "internalType": "uint256",
          "name": "totalMilestones",
          "type": "uint256"
        },
        {
          "internalType": "uint256",
          "name": "timeRemaining",
          "type": "uint256"
        },
        {
          "internalType": "enum ReputationRecovery.RecoveryStatus",
          "name": "status",
          "type": "uint8"
        }
      ],
      "stateMutability": "view",
      "type": "function"
    },
    {
      "inputs": [
        {
          "internalType": "bytes32",
          "name": "role",
          "type": "bytes32"
        }
      ],
      "name": "getRoleAdmin",
      "outputs": [
        {
          "internalType": "bytes32",
          "name": "",
          "type": "bytes32"
        }
      ],
      "stateMutability": "view",
      "type": "function"
    },
    {
      "inputs": [
        {
          "internalType": "bytes32",
          "name": "role",
          "type": "bytes32"
        },
        {
          "internalType": "address",
          "name": "account",
          "type": "address"
        }
      ],
      "name": "grantRole",
      "outputs": [],
      "stateMutability": "nonpayable",
      "type": "function"
    },
    {
      "inputs": [
        {
          "internalType": "bytes32",
          "name": "role",
          "type": "bytes32"
        },
        {
          "internalType": "address",
          "name": "account",
          "type": "address"
        }
      ],
      "name": "hasRole",
      "outputs": [
        {
          "internalType": "bool",
          "name": "",
          "type": "bool"
        }
      ],
      "stateMutability": "view",
      "type": "function"
    },
    {
      "inputs": [],
      "name": "planCount",
      "outputs": [
        {
          "internalType": "uint256",
          "name": "",
          "type": "uint256"
        }
      ],
      "stateMutability": "view",
      "type": "function"
    },
    {
      "inputs": [
        {
          "internalType": "uint256",
          "name": "",
          "type": "uint256"
        },
        {
          "internalType": "uint256",
          "name": "",
          "type": "uint256"
        }
      ],
      "name": "planMilestones",
      "outputs": [
        {
          "internalType": "uint256",
          "name": "milestoneId",
          "type": "uint256"
        },
        {
          "internalType": "string",
          "name": "description",
          "type": "string"
        },
        {
          "internalType": "int256",
          "name": "reputationReward",
          "type": "int256"
        },
        {
          "internalType": "uint256",
          "name": "deadline",
          "type": "uint256"
        },
        {
          "internalType": "bool",
          "name": "completed",
          "type": "bool"
        }
      ],
      "stateMutability": "view",
      "type": "function"
    },
    {
      "inputs": [
        {
          "internalType": "uint256",
          "name": "",
          "type": "uint256"
        }
      ],
      "name": "recoveryPlans",
      "outputs": [
        {
          "internalType": "uint256",
          "name": "planId",
          "type": "uint256"
        },
        {
          "internalType": "uint256",
          "name": "entityId",
          "type": "uint256"
        },
        {
          "internalType": "enum ReputationRecovery.RecoveryType",
          "name": "recoveryType",
          "type": "uint8"
        },
        {
          "internalType": "int256",
          "name": "targetReputation",
          "type": "int256"
        },
        {
          "internalType": "uint256",
          "name": "duration",
          "type": "uint256"
        },
        {
          "internalType": "uint256",
          "name": "startTime",
          "type": "uint256"
        },
        {
          "internalType": "uint256",
          "name": "completionTime",
          "type": "uint256"
        },
        {
          "internalType": "enum ReputationRecovery.RecoveryStatus",
          "name": "status",
          "type": "uint8"
        },
        {
          "internalType": "uint256",
          "name": "milestonesCompleted",
          "type": "uint256"
        },
        {
          "internalType": "uint256",
          "name": "totalMilestones",
          "type": "uint256"
        }
      ],
      "stateMutability": "view",
      "type": "function"
    },
    {
      "inputs": [
        {
          "internalType": "bytes32",
          "name": "role",
          "type": "bytes32"
        },
        {
          "internalType": "address",
          "name": "callerConfirmation",
          "type": "address"
        }
      ],
      "name": "renounceRole",
      "outputs": [],
      "stateMutability": "nonpayable",
      "type": "function"
    },
    {
      "inputs": [
        {
          "internalType": "bytes32",
          "name": "role",
          "type": "bytes32"
        },
        {
          "internalType": "address",
          "name": "account",
          "type": "address"
        }
      ],
      "name": "revokeRole",
      "outputs": [],
      "stateMutability": "nonpayable",
      "type": "function"
    },
    {
      "inputs": [
        {
          "internalType": "bytes4",
          "name": "interfaceId",
          "type": "bytes4"
        }
      ],
      "name": "supportsInterface",
      "outputs": [
        {
          "internalType": "bool",
          "name": "",
          "type": "bool"
        }
      ],
      "stateMutability": "view",
      "type": "function"
    }
  ],
  "bytecode": "0x60806040523461002c5761001233610031565b5061001c336100af565b5060405161148290816101508239f35b600080fd5b6001600160a01b031660008181527fad3228b676f7d3cd4284a5443f17f1962b36e491b30a40b2405849e597ba5fb5602052604081205490919060ff166100ab57818052816020526040822081835260205260408220600160ff1982541617905533916000805160206115d28339815191528180a4600190565b5090565b6001600160a01b031660008181527f558b09cd8f35a44ff268ff82fe8f25dd96005346ee52facd43a3f948d402e05360205260408120549091907f926fb51ac9583c9ff853ed9f763f17034aa5e977d332565b8a7360cd393448b19060ff1661014a57808352826020526040832082845260205260408320600160ff198254161790556000805160206115d2833981519152339380a4600190565b50509056fe608060408181526004918236101561001657600080fd5b600090813560e01c90816301ffc9a714610dec575080630f4ce81c14610c4f578063248a9ca314610c255780632f2ff15d14610c0757806336568abe14610ba6578063382d39bb14610b885780635774204014610b4d57806387e4be1a1461084d5780638ae33470146107aa57806391d148541461076457806394487654146106af578063a217fddf14610694578063a68a53661461060f578063b1370f18146103f9578063d547741f146103c0578063e945c89314610394578063f326206b146101ac5763fe460b74146100ea57600080fd5b346101a95760206003193601126101a95782358152600160205281812090806005830154858401549061011d828261143f565b421061015a575b608086868660088201549260ff6007600985015494015416928151948552602085015283015261015381611022565b6060820152f35b61016592935061143f565b9042820391821161017d575060809350388080610124565b806011867f4e487b71000000000000000000000000000000000000000000000000000000006024945252fd5b80fd5b50346101a9576101bb3661105b565b91906101c56111b6565b808252602094600186528483206101ec60ff6007830154166101e681611022565b156113da565b828452600287526101ff85878620611071565b509082820180549360ff851661033857600384015442116102dc575090600991600160ff19809616179055847f76d6dd6056fcae7ad02ea207f22cc24f90ad750fe78fffef120395fa7f16be81896002600885019661025e885461137e565b80985501998a5482519182528d820152a2015414610282575b505050549051908152f35b60017ffea71fcf58c5cc83b5c8414de2b6f7806c939f8b884d13587ec8ab13b06b486b91838552818852868520908260078301918254161790554260068201550180548452600387528386812055549280a3388080610277565b6064908a8a51917f08c379a0000000000000000000000000000000000000000000000000000000008352820152600f60248201527f446561646c696e652070617373656400000000000000000000000000000000006044820152fd5b6064908a8a51917f08c379a0000000000000000000000000000000000000000000000000000000008352820152601160248201527f416c726561647920636f6d706c657465640000000000000000000000000000006044820152fd5b5091346103bc5760206003193601126103bc5760209282913581526003845220549051908152f35b8280fd5b5090346103f55760016103f1916103ec6103d936610ee9565b9390928387528660205286200154611249565b6112fb565b5080f35b5080fd5b509190346103bc5760806003193601126103bc5781356024358381101561060b576104226111b6565b81855260209460038652838120546105af5761043e855461137e565b94858155845190610140820182811067ffffffffffffffff82111761058357868484600982807f4eb4df3c32d6ef4394ace729f1a982f81169fc4fc7a7d75358bfe61a791955b0998f999b8f9c8d8f9b8d849d839d8d528385528185019081528c8501956104ab81611022565b86526060850190604435825260016080870193606435855260a08801964288528a61012060c08b019a828c5260e081019d8e5261010081019e8f52019d8e5252528d8d209b518c555160018c015560028b0195519561050987611022565b61051287611022565b60ff199660ff8883541691161790555160038b0155519089015551600588015551600687015560ff6007870192519161054a83611022565b61055383611022565b83541691161790555160088401555191015587815260038552205585519061057a81611022565b8152a351908152f35b6024846041847f4e487b7100000000000000000000000000000000000000000000000000000000835252fd5b606485878651917f08c379a0000000000000000000000000000000000000000000000000000000008352820152601760248201527f416c7265616479206861732061637469766520706c616e0000000000000000006044820152fd5b8480fd5b508290346101a9576106203661105b565b9190815260026020528381209081548310156101a957509061064191611071565b50918254916106526001850161110f565b9360ff600282015492600383015492015416916106808451968796875260a0602088015260a0870190610e8b565b938501526060840152151560808301520390f35b5090346103f557816003193601126103f55751908152602090f35b509190346103bc57806003193601126103bc578135916024359167ffffffffffffffff831161060b5761070961075e927fe67a07358b3793baee195c9f39efe0334eed185248bdb66dcd99a7a7b783b5fe94369101610fad565b906107126111b6565b8486526001602052600181872060078101600260ff19825461073a60ff82166101e681611022565b16179055015486526003602052858181205551918291602083526020830190610e8b565b0390a280f35b5090346103f55760ff8160209361077a36610ee9565b90825281865273ffffffffffffffffffffffffffffffffffffffff83832091168252855220541690519015158152f35b5091346103bc5760206003193601126103bc5781610140938235815260016020522080549260018201549260ff6002840154169060038401549084015460058501549160068601549360ff60078801541695600960088901549801549881519a8b5260208b015261081a82611022565b8901526060880152608087015260a086015260c085015261083a81611022565b60e0840152610100830152610120820152f35b5090346103f55760806003193601126103f5578235906024359367ffffffffffffffff9485811161060b576108859036908301610fad565b9161088e6111b6565b83855260016020818152828720956108b060ff6007890154166101e681611022565b875260028152828720948554928451946108c986610f21565b84865283860192835285019260443584526060860194606435865260808701988b8a5268010000000000000000821015610b21579061090c918482018155611071565b969096610af657518655818601925180519b8c11610aca578b61092f85546110bc565b601f8111610a82575b505081601f8d116001146109e157509a808093928c9d60099d936109b6575b50507fffffffffffffffffffffffffffffffffffffffffffffffffffffffffffffffff91921b9260031b1c19161790555b516002830155516003820155019051151560ff60ff198354169116179055016109b1815461137e565b905580f35b015191507fffffffffffffffffffffffffffffffffffffffffffffffffffffffffffffffff38610957565b9b918b917fffffffffffffffffffffffffffffffffffffffffffffffffffffffffffffffe08416809e87855280852094915b8210610a6a5750508360099d9e10610a33575b505050811b019055610988565b01517fffffffffffffffffffffffffffffffffffffffffffffffffffffffffffffffff60f88460031b161c19169055388080610a26565b8284015185559386019392830192908101908f610a13565b858d52838d209084601f840160051c83019310610ac0575b601f0160051c019084905b828110610ab557508d9150610938565b8d8155018490610aa5565b9091508190610a9a565b60248b60418a7f4e487b7100000000000000000000000000000000000000000000000000000000835252fd5b60248b808a7f4e487b7100000000000000000000000000000000000000000000000000000000825252fd5b60248c60418b7f4e487b7100000000000000000000000000000000000000000000000000000000835252fd5b5090346103f557816003193601126103f557602090517f926fb51ac9583c9ff853ed9f763f17034aa5e977d332565b8a7360cd393448b18152f35b5091346103bc57826003193601126103bc5760209250549051908152f35b5090346103f557610bb636610ee9565b913373ffffffffffffffffffffffffffffffffffffffff841603610bdf5750906103f1916112fb565b8490517f6697b232000000000000000000000000000000000000000000000000000000008152fd5b5090346103f55760016103f191610c206103d936610ee9565b61126f565b5091346103bc5760206003193601126103bc57816020936001923581528085522001549051908152f35b50346101a957602092836003193601126103f5578035825260029384815283832092835467ffffffffffffffff8111610dc0578596929193955192600596610c9b84848a1b0186610f6c565b82855283850191829787528487209187935b858510610d605750505050505085519481860192828752518093528683818801921b8701019493965b838810610ce35786860387f35b90919293948380827fffffffffffffffffffffffffffffffffffffffffffffffffffffffffffffffc08a6001950301865288519081518152610d318383015160a08086850152830190610e8b565b918681015187830152606080820151908301526080809101511515910152970193019701969093929193610cd6565b8a876001928e809e9f9c9a9b9c5190610d7882610f21565b88548252610d87868a0161110f565b8483015287890154908201526003880154606082015260ff8689015416151560808201528152019401940193929a999a97969597610cad565b6024826041867f4e487b7100000000000000000000000000000000000000000000000000000000835252fd5b905083346103bc5760206003193601126103bc57357fffffffff0000000000000000000000000000000000000000000000000000000081168091036103bc57602092507f7965db0b000000000000000000000000000000000000000000000000000000008114908115610e61575b5015158152f35b7f01ffc9a70000000000000000000000000000000000000000000000000000000091501483610e5a565b919082519283825260005b848110610ed55750507fffffffffffffffffffffffffffffffffffffffffffffffffffffffffffffffe0601f8460006020809697860101520116010190565b602081830181015184830182015201610e96565b6003196040910112610f1c576004359060243573ffffffffffffffffffffffffffffffffffffffff81168103610f1c5790565b600080fd5b60a0810190811067ffffffffffffffff821117610f3d57604052565b7f4e487b7100000000000000000000000000000000000000000000000000000000600052604160045260246000fd5b90601f7fffffffffffffffffffffffffffffffffffffffffffffffffffffffffffffffe0910116810190811067ffffffffffffffff821117610f3d57604052565b81601f82011215610f1c5780359067ffffffffffffffff8211610f3d576040519261100060207fffffffffffffffffffffffffffffffffffffffffffffffffffffffffffffffe0601f8601160185610f6c565b82845260208383010111610f1c57816000926020809301838601378301015290565b6004111561102c57565b7f4e487b7100000000000000000000000000000000000000000000000000000000600052602160045260246000fd5b6003196040910112610f1c576004359060243590565b805482101561108d576000526005602060002091020190600090565b7f4e487b7100000000000000000000000000000000000000000000000000000000600052603260045260246000fd5b90600182811c92168015611105575b60208310146110d657565b7f4e487b7100000000000000000000000000000000000000000000000000000000600052602260045260246000fd5b91607f16916110cb565b9060405191826000825492611123846110bc565b908184526001948581169081600014611192575060011461114f575b505061114d92500383610f6c565b565b9093915060005260209081600020936000915b81831061117a57505061114d9350820101388061113f565b85548884018501529485019487945091830191611162565b905061114d95506020935060ff1991501682840152151560051b820101388061113f565b3360009081527f558b09cd8f35a44ff268ff82fe8f25dd96005346ee52facd43a3f948d402e05360205260409020547f926fb51ac9583c9ff853ed9f763f17034aa5e977d332565b8a7360cd393448b19060ff16156112125750565b604490604051907fe2517d3f0000000000000000000000000000000000000000000000000000000082523360048301526024820152fd5b80600052600060205260406000203360005260205260ff60406000205416156112125750565b906000918083528260205273ffffffffffffffffffffffffffffffffffffffff6040842092169182845260205260ff604084205416156000146112f657808352826020526040832082845260205260408320600160ff198254161790557f2f8788117e7eff1d82e926ec794901d17c78024a50270940304540a733656f0d339380a4600190565b505090565b906000918083528260205273ffffffffffffffffffffffffffffffffffffffff6040842092169182845260205260ff6040842054166000146112f65780835282602052604083208284526020526040832060ff1981541690557ff6391f5c32d9c69d2a47ea670b442974b53935d1edc7fd64eb21e047a839171b339380a4600190565b7fffffffffffffffffffffffffffffffffffffffffffffffffffffffffffffffff81146113ab5760010190565b7f4e487b7100000000000000000000000000000000000000000000000000000000600052601160045260246000fd5b156113e157565b60646040517f08c379a000000000000000000000000000000000000000000000000000000000815260206004820152600f60248201527f506c616e206e6f742061637469766500000000000000000000000000000000006044820152fd5b919082018092116113ab5756fea2646970667358221220202c471cba24aa9ccf1f06d7fa96d1cd101963986f8c77e10c370b4c63790aa064736f6c634300081400332f8788117e7eff1d82e926ec794901d17c78024a50270940304540a733656f0d",
  "linkReferences": {},
  "deployedLinkReferences": {}
}