{
  "_format": "hh-sol-artifact-1",
  "contractName": "SportsBridge",
  "sourceName": "contracts/layer5/SportsBridge.sol",
  "abi": [
    {
      "inputs": [],
      "stateMutability": "nonpayable",
      "type": "constructor"
    },
    {
      "inputs": [],
      "name": "AccessControlBadConfirmation",
      "type": "error"
    },
    {
      "inputs": [
        {
          "internalType": "address",
          "name": "account",
          "type": "address"
        },
        {
          "internalType": "bytes32",
          "name": "neededRole",
          "type": "bytes32"
        }
      ],
      "name": "AccessControlUnauthorizedAccount",
      "type": "error"
    },
    {
      "anonymous": false,
      "inputs": [
        {
          "indexed": true,
          "internalType": "uint256",
          "name": "oanAthleteId",
          "type": "uint256"
        },
        {
          "indexed": false,
          "internalType": "string",
          "name": "realWorldName",
          "type": "string"
        }
      ],
      "name": "AthleteLinked",
      "type": "event"
    },
    {
      "anonymous": false,
      "inputs": [
        {
          "indexed": true,
          "internalType": "uint256",
          "name": "eventId",
          "type": "uint256"
        },
        {
          "indexed": false,
          "internalType": "address",
          "name": "disputer",
          "type": "address"
        }
      ],
      "name": "DataDisputed",
      "type": "event"
    },
    {
      "anonymous": false,
      "inputs": [
        {
          "indexed": true,
          "internalType": "uint256",
          "name": "eventId",
          "type": "uint256"
        }
      ],
      "name": "EventVerified",
      "type": "event"
    },
    {
      "anonymous": false,
      "inputs": [
        {
          "indexed": true,
          "internalType": "uint256",
          "name": "eventId",
          "type": "uint256"
        },
        {
          "indexed": false,
          "internalType": "address",
          "name": "oracle",
          "type": "address"
        }
      ],
      "name": "OracleReportSubmitted",
      "type": "event"
    },
    {
      "anonymous": false,
      "inputs": [
        {
          "indexed": true,
          "internalType": "uint256",
          "name": "eventId",
          "type": "uint256"
        },
        {
          "indexed": false,
          "internalType": "string",
          "name": "eventName",
          "type": "string"
        },
        {
          "indexed": false,
          "internalType": "string",
          "name": "sport",
          "type": "string"
        }
      ],
      "name": "RealWorldEventRecorded",
      "type": "event"
    },
    {
      "anonymous": false,
      "inputs": [
        {
          "indexed": true,
          "internalType": "bytes32",
          "name": "role",
          "type": "bytes32"
        },
        {
          "indexed": true,
          "internalType": "bytes32",
          "name": "previousAdminRole",
          "type": "bytes32"
        },
        {
          "indexed": true,
          "internalType": "bytes32",
          "name": "newAdminRole",
          "type": "bytes32"
        }
      ],
      "name": "RoleAdminChanged",
      "type": "event"
    },
    {
      "anonymous": false,
      "inputs": [
        {
          "indexed": true,
          "internalType": "bytes32",
          "name": "role",
          "type": "bytes32"
        },
        {
          "indexed": true,
          "internalType": "address",
          "name": "account",
          "type": "address"
        },
        {
          "indexed": true,
          "internalType": "address",
          "name": "sender",
          "type": "address"
        }
      ],
      "name": "RoleGranted",
      "type": "event"
    },
    {
      "anonymous": false,
      "inputs": [
        {
          "indexed": true,
          "internalType": "bytes32",
          "name": "role",
          "type": "bytes32"
        },
        {
          "indexed": true,
          "internalType": "address",
          "name": "account",
          "type": "address"
        },
        {
          "indexed": true,
          "internalType": "address",
          "name": "sender",
          "type": "address"
        }
      ],
      "name": "RoleRevoked",
      "type": "event"
    },
    {
      "inputs": [],
      "name": "DEFAULT_ADMIN_ROLE",
      "outputs": [
        {
          "internalType": "bytes32",
          "name": "",
          "type": "bytes32"
        }
      ],
      "stateMutability": "view",
      "type": "function"
    },
    {
      "inputs": [],
      "name": "ORACLE_ROLE",
      "outputs": [
        {
          "internalType": "bytes32",
          "name": "",
          "type": "bytes32"
        }
      ],
      "stateMutability": "view",
      "type": "function"
    },
    {
      "inputs": [
        {
          "internalType": "uint256",
          "name": "",
          "type": "uint256"
        }
      ],
      "name": "athleteLinks",
      "outputs": [
        {
          "internalType": "uint256",
          "name": "oanAthleteId",
          "type": "uint256"
        },
        {
          "internalType": "string",
          "name": "realWorldName",
          "type": "string"
        },
        {
          "internalType": "string",
          "name": "realWorldSport",
          "type": "string"
        },
        {
          "internalType": "string",
          "name": "externalId",
          "type": "string"
        },
        {
          "internalType": "bool",
          "name": "isVerified",
          "type": "bool"
        },
        {
          "internalType": "uint256",
          "name": "linkedAt",
          "type": "uint256"
        }
      ],
      "stateMutability": "view",
      "type": "function"
    },
    {
      "inputs": [
        {
          "internalType": "uint256",
          "name": "eventId",
          "type": "uint256"
        },
        {
          "internalType": "string",
          "name": "data",
          "type": "string"
        }
      ],
      "name": "confirmEvent",
      "outputs": [],
      "stateMutability": "nonpayable",
      "type": "function"
    },
    {
      "inputs": [
        {
          "internalType": "uint256",
          "name": "eventId",
          "type": "uint256"
        }
      ],
      "name": "disputeEvent",
      "outputs": [],
      "stateMutability": "nonpayable",
      "type": "function"
    },
    {
      "inputs": [
        {
          "internalType": "string",
          "name": "",
          "type": "string"
        }
      ],
      "name": "externalIdToOAN",
      "outputs": [
        {
          "internalType": "uint256",
          "name": "",
          "type": "uint256"
        }
      ],
      "stateMutability": "view",
      "type": "function"
    },
    {
      "inputs": [
        {
          "internalType": "string",
          "name": "externalId",
          "type": "string"
        }
      ],
      "name": "getAthleteByExternalId",
      "outputs": [
        {
          "internalType": "uint256",
          "name": "",
          "type": "uint256"
        }
      ],
      "stateMutability": "view",
      "type": "function"
    },
    {
      "inputs": [
        {
          "internalType": "uint256",
          "name": "oanMatchId",
          "type": "uint256"
        }
      ],
      "name": "getMatchEvents",
      "outputs": [
        {
          "internalType": "uint256[]",
          "name": "",
          "type": "uint256[]"
        }
      ],
      "stateMutability": "view",
      "type": "function"
    },
    {
      "inputs": [
        {
          "internalType": "uint256",
          "name": "eventId",
          "type": "uint256"
        }
      ],
      "name": "getOracleReports",
      "outputs": [
        {
          "components": [
            {
              "internalType": "address",
              "name": "oracle",
              "type": "address"
            },
            {
              "internalType": "uint256",
              "name": "eventId",
              "type": "uint256"
            },
            {
              "internalType": "string",
              "name": "data",
              "type": "string"
            },
            {
              "internalType": "uint256",
              "name": "timestamp",
              "type": "uint256"
            },
            {
              "internalType": "bool",
              "name": "disputed",
              "type": "bool"
            }
          ],
          "internalType": "struct SportsBridge.OracleReport[]",
          "name": "",
          "type": "tuple[]"
        }
      ],
      "stateMutability": "view",
      "type": "function"
    },
    {
      "inputs": [
        {
          "internalType": "bytes32",
          "name": "role",
          "type": "bytes32"
        }
      ],
      "name": "getRoleAdmin",
      "outputs": [
        {
          "internalType": "bytes32",
          "name": "",
          "type": "bytes32"
        }
      ],
      "stateMutability": "view",
      "type": "function"
    },
    {
      "inputs": [
        {
          "internalType": "bytes32",
          "name": "role",
          "type": "bytes32"
        },
        {
          "internalType": "address",
          "name": "account",
          "type": "address"
        }
      ],
      "name": "grantRole",
      "outputs": [],
      "stateMutability": "nonpayable",
      "type": "function"
    },
    {
      "inputs": [
        {
          "internalType": "bytes32",
          "name": "role",
          "type": "bytes32"
        },
        {
          "internalType": "address",
          "name": "account",
          "type": "address"
        }
      ],
      "name": "hasRole",
      "outputs": [
        {
          "internalType": "bool",
          "name": "",
          "type": "bool"
        }
      ],
      "stateMutability": "view",
      "type": "function"
    },
    {
      "inputs": [
        {
          "internalType": "uint256",
          "name": "oanAthleteId",
          "type": "uint256"
        },
        {
          "internalType": "string",
          "name": "realWorldName",
          "type": "string"
        },
        {
          "internalType": "string",
          "name": "realWorldSport",
          "type": "string"
        },
        {
          "internalType": "string",
          "name": "externalId",
          "type": "string"
        }
      ],
      "name": "linkRealWorldAthlete",
      "outputs": [],
      "stateMutability": "nonpayable",
      "type": "function"
    },
    {
      "inputs": [
        {
          "internalType": "uint256",
          "name": "",
          "type": "uint256"
        },
        {
          "internalType": "uint256",
          "name": "",
          "type": "uint256"
        }
      ],
      "name": "matchRealWorldEvents",
      "outputs": [
        {
          "internalType": "uint256",
          "name": "",
          "type": "uint256"
        }
      ],
      "stateMutability": "view",
      "type": "function"
    },
    {
      "inputs": [],
      "name": "minConfirmations",
      "outputs": [
        {
          "internalType": "uint256",
          "name": "",
          "type": "uint256"
        }
      ],
      "stateMutability": "view",
      "type": "function"
    },
    {
      "inputs": [
        {
          "internalType": "uint256",
          "name": "",
          "type": "uint256"
        },
        {
          "internalType": "uint256",
          "name": "",
          "type": "uint256"
        }
      ],
      "name": "oracleReports",
      "outputs": [
        {
          "internalType": "address",
          "name": "oracle",
          "type": "address"
        },
        {
          "internalType": "uint256",
          "name": "eventId",
          "type": "uint256"
        },
        {
          "internalType": "string",
          "name": "data",
          "type": "string"
        },
        {
          "internalType": "uint256",
          "name": "timestamp",
          "type": "uint256"
        },
        {
          "internalType": "bool",
          "name": "disputed",
          "type": "bool"
        }
      ],
      "stateMutability": "view",
      "type": "function"
    },
    {
      "inputs": [
        {
          "internalType": "uint256",
          "name": "",
          "type": "uint256"
        }
      ],
      "name": "realWorldEvents",
      "outputs": [
        {
          "internalType": "uint256",
          "name": "eventId",
          "type": "uint256"
        },
        {
          "internalType": "string",
          "name": "eventName",
          "type": "string"
        },
        {
          "internalType": "string",
          "name": "sport",
          "type": "string"
        },
        {
          "internalType": "uint256",
          "name": "timestamp",
          "type": "uint256"
        },
        {
          "internalType": "string",
          "name": "result",
          "type": "string"
        },
        {
          "internalType": "enum SportsBridge.DataSource",
          "name": "source",
          "type": "uint8"
        },
        {
          "internalType": "address",
          "name": "reporter",
          "type": "address"
        },
        {
          "internalType": "uint256",
          "name": "confirmations",
          "type": "uint256"
        },
        {
          "internalType": "bool",
          "name": "isVerified",
          "type": "bool"
        },
        {
          "internalType": "uint256",
          "name": "linkedOANMatchId",
          "type": "uint256"
        }
      ],
      "stateMutability": "view",
      "type": "function"
    },
    {
      "inputs": [
        {
          "internalType": "string",
          "name": "eventName",
          "type": "string"
        },
        {
          "internalType": "string",
          "name": "sport",
          "type": "string"
        },
        {
          "internalType": "string",
          "name": "result",
          "type": "string"
        },
        {
          "internalType": "enum SportsBridge.DataSource",
          "name": "source",
          "type": "uint8"
        },
        {
          "internalType": "uint256",
          "name": "linkedOANMatchId",
          "type": "uint256"
        }
      ],
      "name": "recordRealWorldEvent",
      "outputs": [
        {
          "internalType": "uint256",
          "name": "",
          "type": "uint256"
        }
      ],
      "stateMutability": "nonpayable",
      "type": "function"
    },
    {
      "inputs": [
        {
          "internalType": "bytes32",
          "name": "role",
          "type": "bytes32"
        },
        {
          "internalType": "address",
          "name": "callerConfirmation",
          "type": "address"
        }
      ],
      "name": "renounceRole",
      "outputs": [],
      "stateMutability": "nonpayable",
      "type": "function"
    },
    {
      "inputs": [
        {
          "internalType": "bytes32",
          "name": "role",
          "type": "bytes32"
        },
        {
          "internalType": "address",
          "name": "account",
          "type": "address"
        }
      ],
      "name": "revokeRole",
      "outputs": [],
      "stateMutability": "nonpayable",
      "type": "function"
    },
    {
      "inputs": [
        {
          "internalType": "bytes4",
          "name": "interfaceId",
          "type": "bytes4"
        }
      ],
      "name": "supportsInterface",
      "outputs": [
        {
          "internalType": "bool",
          "name": "",
          "type": "bool"
        }
      ],
      "stateMutability": "view",
      "type": "function"
    },
    {
      "inputs": [],
      "name": "totalEvents",
      "outputs": [
        {
          "internalType": "uint256",
          "name": "",
          "type": "uint256"
        }
      ],
      "stateMutability": "view",
      "type": "function"
    },
    {
      "inputs": [],
      "name": "totalLinkedAthletes",
      "outputs": [
        {
          "internalType": "uint256",
          "name": "",
          "type": "uint256"
        }
      ],
      "stateMutability": "view",
      "type": "function"
    },
    {
      "inputs": [
        {
          "internalType": "uint256",
          "name": "oanAthleteId",
          "type": "uint256"
        }
      ],
      "name": "verifyAthleteLink",
      "outputs": [],
      "stateMutability": "nonpayable",
      "type": "function"
    }
  ],
  "bytecode": "0x608060405234620000375760036007556200001a336200003c565b506200002633620000bc565b50604051611d8490816200015f8239f35b600080fd5b6001600160a01b031660008181527fad3228b676f7d3cd4284a5443f17f1962b36e491b30a40b2405849e597ba5fb5602052604081205490919060ff16620000b857818052816020526040822081835260205260408220600160ff19825416179055339160008051602062001ee38339815191528180a4600190565b5090565b6001600160a01b031660008181527fa629f6981c2f6895a67dc766e8e03ff72d04a413d0d8773a3ca56e9e474032c160205260408120549091907f68e79a7bf1e0bc45d0a330c573bc367f9cf464fd326078812f301165fbda4ef19060ff166200015957808352826020526040832082845260205260408320600160ff1982541617905560008051602062001ee3833981519152339380a4600190565b50509056fe608080604052600436101561001357600080fd5b60003560e01c90816301ffc9a7146118555750806306331b11146117bb57806307e2cea514611780578063248a9ca3146117515780632f2ff15d1461172057806336568abe146116c25780633cf604ba1461142957806342004cad14611528578063488908f314611486578063556358ad1461142957806361b12d52146113835780638dd3034814610e9357806391d1485414610e45578063a217fddf14610e29578063b183d6d114610d6e578063b2f62aee14610755578063ba87068614610737578063d4e5253a146106f8578063d547741f146106c5578063e7c4393e146106a7578063f5181fe71461057f578063f72a5b0b14610561578063f88b4603146101d15763fbbf47351461012757600080fd5b346101cc5760206003193601126101cc57600435600052600460205260406000208054610156600183016119e6565b91610163600282016119e6565b6101bb610172600384016119e6565b6101ad600560ff6004870154169501549361019f604051988998895260c060208a015260c0890190611ab0565b908782036040890152611ab0565b908582036060870152611ab0565b911515608084015260a08301520390f35b600080fd5b346101cc5760406003193601126101cc5767ffffffffffffffff6024358181116101cc57610203903690600401611b08565b61020b611b77565b600435600052600260205260406000209060ff60078301541661050357600435600052600360205260406000209060405190610246826119a7565b3382526020820192600435845260408301918252426060840152600060808401528054680100000000000000008110156104a55761028991600182018155611909565b9390936104d45773ffffffffffffffffffffffffffffffffffffffff8351167fffffffffffffffffffffffff0000000000000000000000000000000000000000855416178455516001840155519384519081116104a5576102ed6002840154611954565b601f811161045a575b506020601f82116001146103e457918160809260049461035297986000926103d9575b50506000198260011b9260031b1c19161760028501555b606081015160038501550151151591019060ff60ff1983541691151516179055565b600681016103608154611d3f565b809155600754111561039d575b6040513381527f0d1f01cfc7e399c4529e4dd783e1548c88d8882d6235baf1a26aa0ee570d36ff602060043592a2005b600701805460ff191660011790556004357f6bbda38313b27d1708cf8f0c14c6fafdb03c02cdfc859247e96c96e0558b5a79600080a28061036d565b015190508880610319565b601f198216956002850160005260206000209660005b8181106104425750926103529697600495936001938360809710610429575b505050811b016002850155610330565b015160001960f88460031b161c19169055888080610419565b838301518955600190980197602093840193016103fa565b600284016000526020600020601f830160051c8101916020841061049b575b601f0160051c01905b81811061048f57506102f6565b60008155600101610482565b9091508190610479565b7f4e487b7100000000000000000000000000000000000000000000000000000000600052604160045260246000fd5b7f4e487b7100000000000000000000000000000000000000000000000000000000600052600060045260246000fd5b60646040517f08c379a000000000000000000000000000000000000000000000000000000000815260206004820152601060248201527f416c7265616479207665726966696564000000000000000000000000000000006044820152fd5b346101cc5760006003193601126101cc576020600954604051908152f35b346101cc5760206003193601126101cc57600435600052600260205260406000208054906105af600182016119e6565b6105bb600283016119e6565b906003830154926105ce600482016119e6565b9261063160058301549560ff87169561061e600686015494610610600860ff60078a015416980154986040519c8d5260208d61014091829101528d0190611ab0565b908b820360408d0152611ab0565b9160608a015288820360808a0152611ab0565b93600481101561067857869573ffffffffffffffffffffffffffffffffffffffff9160a088015260081c1660c086015260e085015215156101008401526101208301520390f35b7f4e487b7100000000000000000000000000000000000000000000000000000000600052602160045260246000fd5b346101cc5760006003193601126101cc576020600754604051908152f35b346101cc576106f66106d636611ad5565b908060005260006020526106f1600160406000200154611c0a565b611cbc565b005b346101cc57610706366118f3565b906000526006602052604060002080548210156101cc5760209161072991611b5f565b90546040519160031b1c8152f35b346101cc5760006003193601126101cc576020600854604051908152f35b346101cc5760a06003193601126101cc5760043567ffffffffffffffff81116101cc57610786903690600401611b08565b60243567ffffffffffffffff81116101cc576107a6903690600401611b08565b60443567ffffffffffffffff81116101cc576107c6903690600401611b08565b90600460643510156101cc576107da611b77565b6107e5600154611d3f565b9182600155604051610140810181811067ffffffffffffffff8211176104a5576040528381526020810191858352836040830152426060830152608082015260643560a08201523360c0820152600160e08201526000610100820152608435610120820152836000526002602052604060002091815183555180519067ffffffffffffffff82116104a557819061087f6001860154611954565b601f8111610d1b575b50602090601f8311600114610ca957600092610c9e575b50506000198260011b9260031b1c19161760018301555b604081015180519067ffffffffffffffff82116104a55781906108dc6002860154611954565b601f8111610c4b575b50602090601f8311600114610bd957600092610bce575b50506000198260011b9260031b1c19161760028301555b60608101516003830155608081015180519067ffffffffffffffff82116104a55781906109436004860154611954565b601f8111610b7b575b50602090601f8311600114610b0957600092610afe575b50506000198260011b9260031b1c19161760048301555b60a081015160058301916004821015610678578261012092600894547fffffffffffffffffffffff00000000000000000000000000000000000000000060ff74ffffffffffffffffffffffffffffffffffffffff0060c0870151891b16931691161717905560e08101516006850155610a0a6101008201511515600786019060ff60ff1983541691151516179055565b0151910155608435610a7d575b7fd34521007b1ded14cc19d04563b27ed14b5b141b6e1062a4dbea9a0543e3378b610a65602094610a728594610a4e600854611d3f565b600855604051938493604085526040850190611ab0565b9083820389850152611ab0565b0390a2604051908152f35b6084356000526006602052604060002090815491680100000000000000008310156104a557602094610a727fd34521007b1ded14cc19d04563b27ed14b5b141b6e1062a4dbea9a0543e3378b93610ade86610a659560018a99018155611b5f565b81549060031b9060001989831b921b191617905594505094505050610a17565b015190508780610963565b9250600485016000526020600020906000935b601f1984168510610b60576001945083601f19811610610b47575b505050811b01600483015561097a565b015160001960f88460031b161c19169055878080610b37565b81810151835560209485019460019093019290910190610b1c565b909150600485016000526020600020601f840160051c810160208510610bc7575b90849392915b601f830160051c82018110610bb857505061094c565b60008155859450600101610ba2565b5080610b9c565b0151905087806108fc565b9250600285016000526020600020906000935b601f1984168510610c30576001945083601f19811610610c17575b505050811b016002830155610913565b015160001960f88460031b161c19169055878080610c07565b81810151835560209485019460019093019290910190610bec565b909150600285016000526020600020601f840160051c810160208510610c97575b90849392915b601f830160051c82018110610c885750506108e5565b60008155859450600101610c72565b5080610c6c565b01519050878061089f565b9250600185016000526020600020906000935b601f1984168510610d00576001945083601f19811610610ce7575b505050811b0160018301556108b6565b015160001960f88460031b161c19169055878080610cd7565b81810151835560209485019460019093019290910190610cbc565b909150600185016000526020600020601f840160051c810160208510610d67575b90849392915b601f830160051c82018110610d58575050610888565b60008155859450600101610d42565b5080610d3c565b346101cc5760206003193601126101cc57600435610d8a611b77565b806000526003602052604060002080549081610dce575b827ff13280452c2b4efd66109cfc97bb3669f688399233a54c1d5ca60315f78a89096020604051338152a2005b6000198201918211610dfa57600491610de691611909565b5001600160ff198254161790558180610da1565b7f4e487b7100000000000000000000000000000000000000000000000000000000600052601160045260246000fd5b346101cc5760006003193601126101cc57602060405160008152f35b346101cc57610e5336611ad5565b90600052600060205273ffffffffffffffffffffffffffffffffffffffff60406000209116600052602052602060ff604060002054166040519015158152f35b346101cc5760806003193601126101cc5760243567ffffffffffffffff81116101cc57610ec4903690600401611b08565b60443567ffffffffffffffff81116101cc57610ee4903690600401611b08565b60643567ffffffffffffffff81116101cc57610f04903690600401611b08565b90610f0d611b77565b60405160c0810181811067ffffffffffffffff8211176104a557604052600435815260208101918483526040820152826060820152600060808201524260a08201526004356000526004602052604060002091815183555180519067ffffffffffffffff82116104a5578190610f866001860154611954565b601f8111611330575b50602090601f83116001146112be576000926112b3575b50506000198260011b9260031b1c19161760018301555b604081015180519067ffffffffffffffff82116104a5578190610fe36002860154611954565b601f8111611260575b50602090601f83116001146111ee576000926111e3575b50506000198260011b9260031b1c19161760028301555b606081015180519067ffffffffffffffff82116104a55761103e6003850154611954565b601f8111611198575b50602090601f83116001146111235791806005949260a094600092611118575b50506000198260011b9260031b1c19161760038501555b61109e60808201511515600486019060ff60ff1983541691151516179055565b015191015560206110b86040519283815193849201611a8d565b810190600582526020816004359303019020556110d6600954611d3f565b6009557fc16feae3ad8627d4ed35858632c2f09d6d1802d89f2891b6a2f43f30784f2b7f6040516020815280611113600435946020830190611ab0565b0390a2005b015190508880611067565b906003850160005260206000209160005b601f19851681106111805750926005949260019260a09583601f19811610611167575b505050811b01600385015561107e565b015160001960f88460031b161c19169055888080611157565b91926020600181928685015181550194019201611134565b600385016000526020600020601f840160051c810191602085106111d9575b601f0160051c01905b8181106111cd5750611047565b600081556001016111c0565b90915081906111b7565b015190508680611003565b9250600285016000526020600020906000935b601f1984168510611245576001945083601f1981161061122c575b505050811b01600283015561101a565b015160001960f88460031b161c1916905586808061121c565b81810151835560209485019460019093019290910190611201565b909150600285016000526020600020601f840160051c8101602085106112ac575b90849392915b601f830160051c8201811061129d575050610fec565b60008155859450600101611287565b5080611281565b015190508680610fa6565b9250600185016000526020600020906000935b601f1984168510611315576001945083601f198116106112fc575b505050811b016001830155610fbd565b015160001960f88460031b161c191690558680806112ec565b818101518355602094850194600190930192909101906112d1565b909150600185016000526020600020601f840160051c81016020851061137c575b90849392915b601f830160051c8201811061136d575050610f8f565b60008155859450600101611357565b5080611351565b346101cc576020806003193601126101cc5760043560005260068152604060002060405190818382549182815201908192600052846000209060005b868282106114155786866113d5828803836119c3565b604051928392818401908285525180915260408401929160005b8281106113fe57505050500390f35b8351855286955093810193928101926001016113ef565b8354855290930192600192830192016113bf565b346101cc5760206003193601126101cc5760043567ffffffffffffffff81116101cc57611473602061146081933690600401611b08565b8160405193828580945193849201611a8d565b8101600581520301902054604051908152f35b346101cc5760206003193601126101cc573360009081527fad3228b676f7d3cd4284a5443f17f1962b36e491b30a40b2405849e597ba5fb5602052604090205460ff16156114f15760043560005260046020526004604060002001600160ff19825416179055600080f35b60446040517fe2517d3f00000000000000000000000000000000000000000000000000000000815233600482015260006024820152fd5b346101cc576020806003193601126101cc576004356000526003908181526040600020805467ffffffffffffffff81116104a55791604051926005946115728383881b01866119c3565b8185526000938452828420838601949187865b8585106116505750878787604051928184019082855251809152604081818601961b85010192916000955b8287106115bd5785850386f35b909192938280827fffffffffffffffffffffffffffffffffffffffffffffffffffffffffffffffc0896001950301855287519073ffffffffffffffffffffffffffffffffffffffff8251168152828201518382015261162a604083015160a0806040850152830190611ab0565b9160608082015190830152608080910151151591015296019201960195929190926115b0565b908660019260409a989a51611664816119a7565b73ffffffffffffffffffffffffffffffffffffffff87541681528487015483820152611692600288016119e6565b604082015285870154606082015260ff600488015416151560808201528152019301930192918890979597611585565b346101cc576116d036611ad5565b3373ffffffffffffffffffffffffffffffffffffffff8216036116f6576106f691611cbc565b60046040517f6697b232000000000000000000000000000000000000000000000000000000008152fd5b346101cc576106f661173136611ad5565b9080600052600060205261174c600160406000200154611c0a565b611c30565b346101cc5760206003193601126101cc5760043560005260006020526020600160406000200154604051908152f35b346101cc5760006003193601126101cc5760206040517f68e79a7bf1e0bc45d0a330c573bc367f9cf464fd326078812f301165fbda4ef18152f35b346101cc576117c9366118f3565b90600052600360205260406000209081548110156101cc576117ea91611909565b5073ffffffffffffffffffffffffffffffffffffffff815416600182015491611815600282016119e6565b61184460ff6004600385015494015416916040519586958652602086015260a0604086015260a0850190611ab0565b916060840152151560808301520390f35b346101cc5760206003193601126101cc57600435907fffffffff0000000000000000000000000000000000000000000000000000000082168092036101cc57817f7965db0b00000000000000000000000000000000000000000000000000000000602093149081156118c9575b5015158152f35b7f01ffc9a700000000000000000000000000000000000000000000000000000000915014836118c2565b60031960409101126101cc576004359060243590565b8054821015611925576000526005602060002091020190600090565b7f4e487b7100000000000000000000000000000000000000000000000000000000600052603260045260246000fd5b90600182811c9216801561199d575b602083101461196e57565b7f4e487b7100000000000000000000000000000000000000000000000000000000600052602260045260246000fd5b91607f1691611963565b60a0810190811067ffffffffffffffff8211176104a557604052565b90601f601f19910116810190811067ffffffffffffffff8211176104a557604052565b90604051918260008254926119fa84611954565b908184526001948581169081600014611a695750600114611a26575b5050611a24925003836119c3565b565b9093915060005260209081600020936000915b818310611a51575050611a2493508201013880611a16565b85548884018501529485019487945091830191611a39565b9050611a2495506020935060ff1991501682840152151560051b8201013880611a16565b60005b838110611aa05750506000910152565b8181015183820152602001611a90565b90601f19601f602093611ace81518092818752878088019101611a8d565b0116010190565b60031960409101126101cc576004359060243573ffffffffffffffffffffffffffffffffffffffff811681036101cc5790565b81601f820112156101cc5780359067ffffffffffffffff82116104a55760405192611b3d6020601f19601f86011601856119c3565b828452602083830101116101cc57816000926020809301838601378301015290565b80548210156119255760005260206000200190600090565b3360009081527fa629f6981c2f6895a67dc766e8e03ff72d04a413d0d8773a3ca56e9e474032c160205260409020547f68e79a7bf1e0bc45d0a330c573bc367f9cf464fd326078812f301165fbda4ef19060ff1615611bd35750565b604490604051907fe2517d3f0000000000000000000000000000000000000000000000000000000082523360048301526024820152fd5b80600052600060205260406000203360005260205260ff6040600020541615611bd35750565b906000918083528260205273ffffffffffffffffffffffffffffffffffffffff6040842092169182845260205260ff60408420541615600014611cb757808352826020526040832082845260205260408320600160ff198254161790557f2f8788117e7eff1d82e926ec794901d17c78024a50270940304540a733656f0d339380a4600190565b505090565b906000918083528260205273ffffffffffffffffffffffffffffffffffffffff6040842092169182845260205260ff604084205416600014611cb75780835282602052604083208284526020526040832060ff1981541690557ff6391f5c32d9c69d2a47ea670b442974b53935d1edc7fd64eb21e047a839171b339380a4600190565b6000198114610dfa576001019056fea264697066735822122099630d17c6ee8d4092fb900413122b3da2a6b261a24a327dd3e96b07b6a8f48664736f6c634300081400332f8788117e7eff1d82e926ec794901d17c78024a50270940304540a733656f0d",
  "linkReferences": {},
  "deployedLinkReferences": {}
}