{
  "_format": "hh-sol-artifact-1",
  "contractName": "ReputationStaking",
  "sourceName": "contracts/identity/ReputationStaking.sol",
  "abi": [
    {
      "inputs": [],
      "stateMutability": "nonpayable",
      "type": "constructor"
    },
    {
      "inputs": [
        {
          "internalType": "address",
          "name": "owner",
          "type": "address"
        }
      ],
      "name": "OwnableInvalidOwner",
      "type": "error"
    },
    {
      "inputs": [
        {
          "internalType": "address",
          "name": "account",
          "type": "address"
        }
      ],
      "name": "OwnableUnauthorizedAccount",
      "type": "error"
    },
    {
      "inputs": [],
      "name": "ReentrancyGuardReentrantCall",
      "type": "error"
    },
    {
      "anonymous": false,
      "inputs": [
        {
          "indexed": true,
          "internalType": "address",
          "name": "previousOwner",
          "type": "address"
        },
        {
          "indexed": true,
          "internalType": "address",
          "name": "newOwner",
          "type": "address"
        }
      ],
      "name": "OwnershipTransferred",
      "type": "event"
    },
    {
      "anonymous": false,
      "inputs": [
        {
          "indexed": true,
          "internalType": "address",
          "name": "staker",
          "type": "address"
        },
        {
          "indexed": false,
          "internalType": "int256",
          "name": "bonus",
          "type": "int256"
        }
      ],
      "name": "ReputationBonusApplied",
      "type": "event"
    },
    {
      "anonymous": false,
      "inputs": [
        {
          "indexed": true,
          "internalType": "address",
          "name": "staker",
          "type": "address"
        },
        {
          "indexed": false,
          "internalType": "uint256",
          "name": "amount",
          "type": "uint256"
        },
        {
          "indexed": false,
          "internalType": "uint256",
          "name": "tier",
          "type": "uint256"
        }
      ],
      "name": "Staked",
      "type": "event"
    },
    {
      "anonymous": false,
      "inputs": [
        {
          "indexed": true,
          "internalType": "uint256",
          "name": "tier",
          "type": "uint256"
        },
        {
          "indexed": false,
          "internalType": "uint256",
          "name": "minStake",
          "type": "uint256"
        },
        {
          "indexed": false,
          "internalType": "int256",
          "name": "multiplier",
          "type": "int256"
        }
      ],
      "name": "TierConfigured",
      "type": "event"
    },
    {
      "anonymous": false,
      "inputs": [
        {
          "indexed": true,
          "internalType": "address",
          "name": "staker",
          "type": "address"
        },
        {
          "indexed": false,
          "internalType": "uint256",
          "name": "amount",
          "type": "uint256"
        }
      ],
      "name": "Unstaked",
      "type": "event"
    },
    {
      "inputs": [],
      "name": "BASIS_POINTS",
      "outputs": [
        {
          "internalType": "uint256",
          "name": "",
          "type": "uint256"
        }
      ],
      "stateMutability": "view",
      "type": "function"
    },
    {
      "inputs": [
        {
          "internalType": "uint256",
          "name": "tier",
          "type": "uint256"
        },
        {
          "internalType": "uint256",
          "name": "minStake",
          "type": "uint256"
        },
        {
          "internalType": "uint256",
          "name": "lockDuration",
          "type": "uint256"
        },
        {
          "internalType": "int256",
          "name": "reputationMultiplier",
          "type": "int256"
        }
      ],
      "name": "configureTier",
      "outputs": [],
      "stateMutability": "nonpayable",
      "type": "function"
    },
    {
      "inputs": [
        {
          "internalType": "address",
          "name": "staker",
          "type": "address"
        }
      ],
      "name": "getReputationBonus",
      "outputs": [
        {
          "internalType": "int256",
          "name": "",
          "type": "int256"
        }
      ],
      "stateMutability": "view",
      "type": "function"
    },
    {
      "inputs": [
        {
          "internalType": "address",
          "name": "staker",
          "type": "address"
        }
      ],
      "name": "getStake",
      "outputs": [
        {
          "components": [
            {
              "internalType": "uint256",
              "name": "amount",
              "type": "uint256"
            },
            {
              "internalType": "uint256",
              "name": "stakedAt",
              "type": "uint256"
            },
            {
              "internalType": "uint256",
              "name": "lockedUntil",
              "type": "uint256"
            },
            {
              "internalType": "int256",
              "name": "reputationBonus",
              "type": "int256"
            },
            {
              "internalType": "bool",
              "name": "active",
              "type": "bool"
            }
          ],
          "internalType": "struct ReputationStaking.Stake",
          "name": "",
          "type": "tuple"
        }
      ],
      "stateMutability": "view",
      "type": "function"
    },
    {
      "inputs": [
        {
          "internalType": "uint256",
          "name": "amount",
          "type": "uint256"
        }
      ],
      "name": "getTierForAmount",
      "outputs": [
        {
          "internalType": "uint256",
          "name": "",
          "type": "uint256"
        }
      ],
      "stateMutability": "view",
      "type": "function"
    },
    {
      "inputs": [
        {
          "internalType": "address",
          "name": "staker",
          "type": "address"
        }
      ],
      "name": "isStakeLocked",
      "outputs": [
        {
          "internalType": "bool",
          "name": "",
          "type": "bool"
        }
      ],
      "stateMutability": "view",
      "type": "function"
    },
    {
      "inputs": [],
      "name": "owner",
      "outputs": [
        {
          "internalType": "address",
          "name": "",
          "type": "address"
        }
      ],
      "stateMutability": "view",
      "type": "function"
    },
    {
      "inputs": [],
      "name": "renounceOwnership",
      "outputs": [],
      "stateMutability": "nonpayable",
      "type": "function"
    },
    {
      "inputs": [
        {
          "internalType": "uint256",
          "name": "tier",
          "type": "uint256"
        }
      ],
      "name": "stake",
      "outputs": [],
      "stateMutability": "payable",
      "type": "function"
    },
    {
      "inputs": [
        {
          "internalType": "address",
          "name": "",
          "type": "address"
        }
      ],
      "name": "stakes",
      "outputs": [
        {
          "internalType": "uint256",
          "name": "amount",
          "type": "uint256"
        },
        {
          "internalType": "uint256",
          "name": "stakedAt",
          "type": "uint256"
        },
        {
          "internalType": "uint256",
          "name": "lockedUntil",
          "type": "uint256"
        },
        {
          "internalType": "int256",
          "name": "reputationBonus",
          "type": "int256"
        },
        {
          "internalType": "bool",
          "name": "active",
          "type": "bool"
        }
      ],
      "stateMutability": "view",
      "type": "function"
    },
    {
      "inputs": [
        {
          "internalType": "uint256",
          "name": "",
          "type": "uint256"
        }
      ],
      "name": "tiers",
      "outputs": [
        {
          "internalType": "uint256",
          "name": "minStake",
          "type": "uint256"
        },
        {
          "internalType": "uint256",
          "name": "lockDuration",
          "type": "uint256"
        },
        {
          "internalType": "int256",
          "name": "reputationMultiplier",
          "type": "int256"
        },
        {
          "internalType": "bool",
          "name": "enabled",
          "type": "bool"
        }
      ],
      "stateMutability": "view",
      "type": "function"
    },
    {
      "inputs": [],
      "name": "totalStaked",
      "outputs": [
        {
          "internalType": "uint256",
          "name": "",
          "type": "uint256"
        }
      ],
      "stateMutability": "view",
      "type": "function"
    },
    {
      "inputs": [],
      "name": "totalStakers",
      "outputs": [
        {
          "internalType": "uint256",
          "name": "",
          "type": "uint256"
        }
      ],
      "stateMutability": "view",
      "type": "function"
    },
    {
      "inputs": [
        {
          "internalType": "address",
          "name": "newOwner",
          "type": "address"
        }
      ],
      "name": "transferOwnership",
      "outputs": [],
      "stateMutability": "nonpayable",
      "type": "function"
    },
    {
      "inputs": [],
      "name": "unstake",
      "outputs": [],
      "stateMutability": "nonpayable",
      "type": "function"
    }
  ],
  "bytecode": "0x608060405234801561001057600080fd5b50338061003757604051631e4fbdf760e01b81526000600482015260240160405180910390fd5b6100408161038d565b5060018080556040805160808082018352670de0b6b3a7640000825262278d0060208084019182526101f484860190815260608086018881526000898152600380865297517fa15bc60c955c405d20d9149c709e2460f1c2d9a497496a7f46004d1772c3054c5594517fa15bc60c955c405d20d9149c709e2460f1c2d9a497496a7f46004d1772c3054d5591517fa15bc60c955c405d20d9149c709e2460f1c2d9a497496a7f46004d1772c3054e5590517fa15bc60c955c405d20d9149c709e2460f1c2d9a497496a7f46004d1772c3054f805491151560ff1992831617905586518086018852674563918244f400008152624f1a008185019081526103e8828a019081528285018b81526002885289875292517fc3a24b0501bd2c13a7e57f2db4369ec4c223447539fc0724a9d55ac4a06ebd4d5590517fc3a24b0501bd2c13a7e57f2db4369ec4c223447539fc0724a9d55ac4a06ebd4e55517fc3a24b0501bd2c13a7e57f2db4369ec4c223447539fc0724a9d55ac4a06ebd4f55517fc3a24b0501bd2c13a7e57f2db4369ec4c223447539fc0724a9d55ac4a06ebd50805491151591831691909117905586518086018852678ac7230489e8000081526276a7008185019081526107d0828a019081528285018b815289885289875292517fcbc4e5fb02c3d1de23a9f1e014b4d2ee5aeaea9505df5e855c9210bf472495af5590517fcbc4e5fb02c3d1de23a9f1e014b4d2ee5aeaea9505df5e855c9210bf472495b055517fcbc4e5fb02c3d1de23a9f1e014b4d2ee5aeaea9505df5e855c9210bf472495b155517fcbc4e5fb02c3d1de23a9f1e014b4d2ee5aeaea9505df5e855c9210bf472495b28054911515918316919091179055865194850187526802b5e3af16b1880000855262ed4e00858401908152611388978601978852918501978852600490935293905290517f83ec6a1f0257b830b5e016457c9cf1435391bf56cc98f369a58a54fe937724655590517f83ec6a1f0257b830b5e016457c9cf1435391bf56cc98f369a58a54fe937724665590517f83ec6a1f0257b830b5e016457c9cf1435391bf56cc98f369a58a54fe937724675590517f83ec6a1f0257b830b5e016457c9cf1435391bf56cc98f369a58a54fe937724688054911515919092161790556103dd565b600080546001600160a01b038381166001600160a01b0319831681178455604051919092169283917f8be0079c531659141344cd1fd0a4f28419497f9722a3daafe3b4186f6b6457e09190a35050565b610c13806103ec6000396000f3fe6080604052600436106100e85760003560e01c80637a7664601161008a5780638da5cb5b116100595780638da5cb5b1461032c578063a694fc3a14610354578063e1f1c4a714610367578063f2fde38b1461037d57600080fd5b80637a7664601461027c578063817b1cd2146102e057806386989038146102f65780638cca4e6e1461030c57600080fd5b80632def6620116100c65780632def662014610200578063335e91a1146102175780636c7a93be14610247578063715018a61461026757600080fd5b8063039af9eb146100ed5780631237739b1461015b57806316934fc414610189575b600080fd5b3480156100f957600080fd5b50610134610108366004610ab7565b600360208190526000918252604090912080546001820154600283015492909301549092919060ff1684565b60408051948552602085019390935291830152151560608201526080015b60405180910390f35b34801561016757600080fd5b5061017b610176366004610ab7565b61039d565b604051908152602001610152565b34801561019557600080fd5b506101d66101a4366004610ad0565b600260208190526000918252604090912080546001820154928201546003830154600490930154919392909160ff1685565b6040805195865260208601949094529284019190915260608301521515608082015260a001610152565b34801561020c57600080fd5b50610215610400565b005b34801561022357600080fd5b50610237610232366004610ad0565b61055e565b6040519015158152602001610152565b34801561025357600080fd5b50610215610262366004610b00565b6105ab565b34801561027357600080fd5b5061021561064a565b34801561028857600080fd5b5061029c610297366004610ad0565b61065c565b6040516101529190600060a0820190508251825260208301516020830152604083015160408301526060830151606083015260808301511515608083015292915050565b3480156102ec57600080fd5b5061017b60045481565b34801561030257600080fd5b5061017b60055481565b34801561031857600080fd5b5061017b610327366004610ad0565b6106ea565b34801561033857600080fd5b506000546040516001600160a01b039091168152602001610152565b610215610362366004610ab7565b610734565b34801561037357600080fd5b5061017b61271081565b34801561038957600080fd5b50610215610398366004610ad0565b6109d5565b600060045b600181106103f7576000818152600360208190526040909120015460ff1680156103da57506000818152600360205260409020548310155b156103e55792915050565b806103ef81610b48565b9150506103a2565b50600092915050565b610408610a10565b336000908152600260205260409020600481015460ff166104625760405162461bcd60e51b815260206004820152600f60248201526e4e6f20616374697665207374616b6560881b60448201526064015b60405180910390fd5b80600201544210156104ab5760405162461bcd60e51b815260206004820152601260248201527114dd185ad9481cdd1a5b1b081b1bd8dad95960721b6044820152606401610459565b80546004808301805460ff191690556000600384018190558154839291906104d4908490610b5f565b9091555050600580549060006104e983610b48565b9091555050604051339082156108fc029083906000818181858888f1935050505015801561051b573d6000803e3d6000fd5b5060405181815233907f0f5bb82176feb1b5e747e28471aa92156a04d9f3ab9f45f28e2d704232b93f759060200160405180910390a2505061055c60018055565b565b6001600160a01b03811660009081526002602052604081206004015460ff1661058957506000919050565b506001600160a01b031660009081526002602081905260409091200154421090565b6105b3610a3a565b60408051608081018252848152602080820185815282840185815260016060850181815260008b81526003808752908890209651875593519186019190915590516002850155519201805460ff191692151592909217909155815185815290810183905285917f236f4d6b84fd2f2c0b1e27e1fd2f0e31e5ff6e9b6907d5308fdbbcf44c75ab97910160405180910390a250505050565b610652610a3a565b61055c6000610a67565b6106906040518060a00160405280600081526020016000815260200160008152602001600081526020016000151581525090565b506001600160a01b0316600090815260026020818152604092839020835160a081018552815481526001820154928101929092529182015492810192909252600381015460608301526004015460ff161515608082015290565b6001600160a01b03811660009081526002602052604081206004015460ff1661071557506000919050565b506001600160a01b031660009081526002602052604090206003015490565b61073c610a10565b6000818152600360208190526040909120015460ff166107915760405162461bcd60e51b815260206004820152601060248201526f151a595c881b9bdd08195b98589b195960821b6044820152606401610459565b6000818152600360205260409020543410156107e45760405162461bcd60e51b8152602060048201526012602482015271496e73756666696369656e74207374616b6560701b6044820152606401610459565b3360009081526002602052604090206004015460ff16156108395760405162461bcd60e51b815260206004820152600f60248201526e416c7265616479207374616b696e6760881b6044820152606401610459565b6000818152600360208181526040928390208351608081018552815481526001820154818401908152600283015482870152919093015460ff1615156060840152835160a08101855234815242928101839052905192939092908301916108a09190610b78565b81526020016127108360400151346108b89190610b8b565b6108c29190610ba2565b815260016020918201819052336000908152600280845260408083208651815594860151938501939093559184015191830191909155606083015160038301556080909201516004918201805460ff1916911515919091179055805434929061092c908490610b78565b90915550506005805490600061094183610bc4565b9091555050604080513481526020810184905233917f1449c6dd7851abc30abf37f57715f492010519147cc2652fbc38202c18a6ee90910160405180910390a2336000818152600260209081526040918290206003015491519182527ff56bad187dfd1163de59b54c788e0b68004eea12dc82e20883ec8f4e0c0e85a2910160405180910390a2506109d260018055565b50565b6109dd610a3a565b6001600160a01b038116610a0757604051631e4fbdf760e01b815260006004820152602401610459565b6109d281610a67565b600260015403610a3357604051633ee5aeb560e01b815260040160405180910390fd5b6002600155565b6000546001600160a01b0316331461055c5760405163118cdaa760e01b8152336004820152602401610459565b600080546001600160a01b038381166001600160a01b0319831681178455604051919092169283917f8be0079c531659141344cd1fd0a4f28419497f9722a3daafe3b4186f6b6457e09190a35050565b600060208284031215610ac957600080fd5b5035919050565b600060208284031215610ae257600080fd5b81356001600160a01b0381168114610af957600080fd5b9392505050565b60008060008060808587031215610b1657600080fd5b5050823594602084013594506040840135936060013592509050565b634e487b7160e01b600052601160045260246000fd5b600081610b5757610b57610b32565b506000190190565b81810381811115610b7257610b72610b32565b92915050565b80820180821115610b7257610b72610b32565b8082028115828204841417610b7257610b72610b32565b600082610bbf57634e487b7160e01b600052601260045260246000fd5b500490565b600060018201610bd657610bd6610b32565b506001019056fea26469706673582212201f3a7e73bc8b5c64b99dc5e976fc6245d79b6d0f71e34300e7dd58c0fd4c86a464736f6c63430008140033",
  "linkReferences": {},
  "deployedLinkReferences": {}
}