{
  "_format": "hh-sol-artifact-1",
  "contractName": "InsuranceFund",
  "sourceName": "contracts/layer7/insurance/InsuranceFund.sol",
  "abi": [
    {
      "inputs": [
        {
          "internalType": "address",
          "name": "_treasury",
          "type": "address"
        }
      ],
      "stateMutability": "nonpayable",
      "type": "constructor"
    },
    {
      "inputs": [],
      "name": "AccessControlBadConfirmation",
      "type": "error"
    },
    {
      "inputs": [
        {
          "internalType": "address",
          "name": "account",
          "type": "address"
        },
        {
          "internalType": "bytes32",
          "name": "neededRole",
          "type": "bytes32"
        }
      ],
      "name": "AccessControlUnauthorizedAccount",
      "type": "error"
    },
    {
      "inputs": [],
      "name": "ReentrancyGuardReentrantCall",
      "type": "error"
    },
    {
      "anonymous": false,
      "inputs": [
        {
          "indexed": true,
          "internalType": "uint256",
          "name": "claimId",
          "type": "uint256"
        },
        {
          "indexed": false,
          "internalType": "uint256",
          "name": "approvedAmount",
          "type": "uint256"
        }
      ],
      "name": "ClaimApproved",
      "type": "event"
    },
    {
      "anonymous": false,
      "inputs": [
        {
          "indexed": true,
          "internalType": "uint256",
          "name": "claimId",
          "type": "uint256"
        },
        {
          "indexed": true,
          "internalType": "address",
          "name": "claimant",
          "type": "address"
        },
        {
          "indexed": false,
          "internalType": "uint256",
          "name": "amount",
          "type": "uint256"
        }
      ],
      "name": "ClaimPaid",
      "type": "event"
    },
    {
      "anonymous": false,
      "inputs": [
        {
          "indexed": true,
          "internalType": "uint256",
          "name": "claimId",
          "type": "uint256"
        },
        {
          "indexed": false,
          "internalType": "string",
          "name": "reason",
          "type": "string"
        }
      ],
      "name": "ClaimRejected",
      "type": "event"
    },
    {
      "anonymous": false,
      "inputs": [
        {
          "indexed": true,
          "internalType": "uint256",
          "name": "claimId",
          "type": "uint256"
        },
        {
          "indexed": true,
          "internalType": "uint256",
          "name": "policyId",
          "type": "uint256"
        },
        {
          "indexed": false,
          "internalType": "uint256",
          "name": "requestedAmount",
          "type": "uint256"
        }
      ],
      "name": "ClaimSubmitted",
      "type": "event"
    },
    {
      "anonymous": false,
      "inputs": [
        {
          "indexed": true,
          "internalType": "address",
          "name": "contributor",
          "type": "address"
        },
        {
          "indexed": false,
          "internalType": "uint256",
          "name": "amount",
          "type": "uint256"
        }
      ],
      "name": "FundDeposited",
      "type": "event"
    },
    {
      "anonymous": false,
      "inputs": [
        {
          "indexed": true,
          "internalType": "address",
          "name": "to",
          "type": "address"
        },
        {
          "indexed": false,
          "internalType": "uint256",
          "name": "amount",
          "type": "uint256"
        }
      ],
      "name": "FundWithdrawn",
      "type": "event"
    },
    {
      "anonymous": false,
      "inputs": [
        {
          "indexed": true,
          "internalType": "uint256",
          "name": "policyId",
          "type": "uint256"
        },
        {
          "indexed": true,
          "internalType": "address",
          "name": "holder",
          "type": "address"
        }
      ],
      "name": "PolicyExpired",
      "type": "event"
    },
    {
      "anonymous": false,
      "inputs": [
        {
          "indexed": true,
          "internalType": "uint256",
          "name": "policyId",
          "type": "uint256"
        },
        {
          "indexed": true,
          "internalType": "address",
          "name": "holder",
          "type": "address"
        },
        {
          "indexed": false,
          "internalType": "enum InsuranceFund.PolicyType",
          "name": "policyType",
          "type": "uint8"
        },
        {
          "indexed": false,
          "internalType": "uint256",
          "name": "coverage",
          "type": "uint256"
        }
      ],
      "name": "PolicyIssued",
      "type": "event"
    },
    {
      "anonymous": false,
      "inputs": [
        {
          "indexed": true,
          "internalType": "bytes32",
          "name": "role",
          "type": "bytes32"
        },
        {
          "indexed": true,
          "internalType": "bytes32",
          "name": "previousAdminRole",
          "type": "bytes32"
        },
        {
          "indexed": true,
          "internalType": "bytes32",
          "name": "newAdminRole",
          "type": "bytes32"
        }
      ],
      "name": "RoleAdminChanged",
      "type": "event"
    },
    {
      "anonymous": false,
      "inputs": [
        {
          "indexed": true,
          "internalType": "bytes32",
          "name": "role",
          "type": "bytes32"
        },
        {
          "indexed": true,
          "internalType": "address",
          "name": "account",
          "type": "address"
        },
        {
          "indexed": true,
          "internalType": "address",
          "name": "sender",
          "type": "address"
        }
      ],
      "name": "RoleGranted",
      "type": "event"
    },
    {
      "anonymous": false,
      "inputs": [
        {
          "indexed": true,
          "internalType": "bytes32",
          "name": "role",
          "type": "bytes32"
        },
        {
          "indexed": true,
          "internalType": "address",
          "name": "account",
          "type": "address"
        },
        {
          "indexed": true,
          "internalType": "address",
          "name": "sender",
          "type": "address"
        }
      ],
      "name": "RoleRevoked",
      "type": "event"
    },
    {
      "inputs": [],
      "name": "CLAIMS_ADMIN_ROLE",
      "outputs": [
        {
          "internalType": "bytes32",
          "name": "",
          "type": "bytes32"
        }
      ],
      "stateMutability": "view",
      "type": "function"
    },
    {
      "inputs": [],
      "name": "CONTRIBUTOR_ROLE",
      "outputs": [
        {
          "internalType": "bytes32",
          "name": "",
          "type": "bytes32"
        }
      ],
      "stateMutability": "view",
      "type": "function"
    },
    {
      "inputs": [],
      "name": "DEFAULT_ADMIN_ROLE",
      "outputs": [
        {
          "internalType": "bytes32",
          "name": "",
          "type": "bytes32"
        }
      ],
      "stateMutability": "view",
      "type": "function"
    },
    {
      "inputs": [
        {
          "internalType": "uint256",
          "name": "claimId",
          "type": "uint256"
        },
        {
          "internalType": "uint256",
          "name": "approvedAmount",
          "type": "uint256"
        }
      ],
      "name": "approveClaim",
      "outputs": [],
      "stateMutability": "nonpayable",
      "type": "function"
    },
    {
      "inputs": [],
      "name": "claimCounter",
      "outputs": [
        {
          "internalType": "uint256",
          "name": "",
          "type": "uint256"
        }
      ],
      "stateMutability": "view",
      "type": "function"
    },
    {
      "inputs": [
        {
          "internalType": "address",
          "name": "",
          "type": "address"
        },
        {
          "internalType": "uint256",
          "name": "",
          "type": "uint256"
        }
      ],
      "name": "claimantClaims",
      "outputs": [
        {
          "internalType": "uint256",
          "name": "",
          "type": "uint256"
        }
      ],
      "stateMutability": "view",
      "type": "function"
    },
    {
      "inputs": [
        {
          "internalType": "uint256",
          "name": "",
          "type": "uint256"
        }
      ],
      "name": "claims",
      "outputs": [
        {
          "internalType": "uint256",
          "name": "id",
          "type": "uint256"
        },
        {
          "internalType": "uint256",
          "name": "policyId",
          "type": "uint256"
        },
        {
          "internalType": "address",
          "name": "claimant",
          "type": "address"
        },
        {
          "internalType": "uint256",
          "name": "requestedAmount",
          "type": "uint256"
        },
        {
          "internalType": "uint256",
          "name": "approvedAmount",
          "type": "uint256"
        },
        {
          "internalType": "enum InsuranceFund.ClaimStatus",
          "name": "status",
          "type": "uint8"
        },
        {
          "internalType": "bytes32",
          "name": "evidenceHash",
          "type": "bytes32"
        },
        {
          "internalType": "uint256",
          "name": "submittedAt",
          "type": "uint256"
        },
        {
          "internalType": "string",
          "name": "description",
          "type": "string"
        }
      ],
      "stateMutability": "view",
      "type": "function"
    },
    {
      "inputs": [
        {
          "internalType": "uint256",
          "name": "amount",
          "type": "uint256"
        }
      ],
      "name": "emergencyWithdraw",
      "outputs": [],
      "stateMutability": "nonpayable",
      "type": "function"
    },
    {
      "inputs": [],
      "name": "fundPool",
      "outputs": [],
      "stateMutability": "payable",
      "type": "function"
    },
    {
      "inputs": [
        {
          "internalType": "address",
          "name": "claimant",
          "type": "address"
        }
      ],
      "name": "getClaimantClaims",
      "outputs": [
        {
          "internalType": "uint256[]",
          "name": "",
          "type": "uint256[]"
        }
      ],
      "stateMutability": "view",
      "type": "function"
    },
    {
      "inputs": [
        {
          "internalType": "address",
          "name": "holder",
          "type": "address"
        }
      ],
      "name": "getHolderPolicies",
      "outputs": [
        {
          "internalType": "uint256[]",
          "name": "",
          "type": "uint256[]"
        }
      ],
      "stateMutability": "view",
      "type": "function"
    },
    {
      "inputs": [],
      "name": "getPoolBalance",
      "outputs": [
        {
          "internalType": "uint256",
          "name": "",
          "type": "uint256"
        }
      ],
      "stateMutability": "view",
      "type": "function"
    },
    {
      "inputs": [
        {
          "internalType": "bytes32",
          "name": "role",
          "type": "bytes32"
        }
      ],
      "name": "getRoleAdmin",
      "outputs": [
        {
          "internalType": "bytes32",
          "name": "",
          "type": "bytes32"
        }
      ],
      "stateMutability": "view",
      "type": "function"
    },
    {
      "inputs": [
        {
          "internalType": "bytes32",
          "name": "role",
          "type": "bytes32"
        },
        {
          "internalType": "address",
          "name": "account",
          "type": "address"
        }
      ],
      "name": "grantRole",
      "outputs": [],
      "stateMutability": "nonpayable",
      "type": "function"
    },
    {
      "inputs": [
        {
          "internalType": "bytes32",
          "name": "role",
          "type": "bytes32"
        },
        {
          "internalType": "address",
          "name": "account",
          "type": "address"
        }
      ],
      "name": "hasRole",
      "outputs": [
        {
          "internalType": "bool",
          "name": "",
          "type": "bool"
        }
      ],
      "stateMutability": "view",
      "type": "function"
    },
    {
      "inputs": [
        {
          "internalType": "address",
          "name": "",
          "type": "address"
        },
        {
          "internalType": "uint256",
          "name": "",
          "type": "uint256"
        }
      ],
      "name": "holderPolicies",
      "outputs": [
        {
          "internalType": "uint256",
          "name": "",
          "type": "uint256"
        }
      ],
      "stateMutability": "view",
      "type": "function"
    },
    {
      "inputs": [
        {
          "internalType": "enum InsuranceFund.PolicyType",
          "name": "",
          "type": "uint8"
        }
      ],
      "name": "maxCoverageByType",
      "outputs": [
        {
          "internalType": "uint256",
          "name": "",
          "type": "uint256"
        }
      ],
      "stateMutability": "view",
      "type": "function"
    },
    {
      "inputs": [],
      "name": "maxPayoutRatio",
      "outputs": [
        {
          "internalType": "uint256",
          "name": "",
          "type": "uint256"
        }
      ],
      "stateMutability": "view",
      "type": "function"
    },
    {
      "inputs": [
        {
          "internalType": "uint256",
          "name": "",
          "type": "uint256"
        }
      ],
      "name": "policies",
      "outputs": [
        {
          "internalType": "uint256",
          "name": "id",
          "type": "uint256"
        },
        {
          "internalType": "address",
          "name": "holder",
          "type": "address"
        },
        {
          "internalType": "enum InsuranceFund.PolicyType",
          "name": "policyType",
          "type": "uint8"
        },
        {
          "internalType": "uint256",
          "name": "coverageAmount",
          "type": "uint256"
        },
        {
          "internalType": "uint256",
          "name": "premium",
          "type": "uint256"
        },
        {
          "internalType": "uint256",
          "name": "startedAt",
          "type": "uint256"
        },
        {
          "internalType": "uint256",
          "name": "expiresAt",
          "type": "uint256"
        },
        {
          "internalType": "bool",
          "name": "active",
          "type": "bool"
        }
      ],
      "stateMutability": "view",
      "type": "function"
    },
    {
      "inputs": [],
      "name": "policyCounter",
      "outputs": [
        {
          "internalType": "uint256",
          "name": "",
          "type": "uint256"
        }
      ],
      "stateMutability": "view",
      "type": "function"
    },
    {
      "inputs": [],
      "name": "poolStats",
      "outputs": [
        {
          "internalType": "uint256",
          "name": "totalPremiums",
          "type": "uint256"
        },
        {
          "internalType": "uint256",
          "name": "totalClaimed",
          "type": "uint256"
        },
        {
          "internalType": "uint256",
          "name": "totalReserve",
          "type": "uint256"
        },
        {
          "internalType": "uint256",
          "name": "activePolicies",
          "type": "uint256"
        }
      ],
      "stateMutability": "view",
      "type": "function"
    },
    {
      "inputs": [],
      "name": "premiumRate",
      "outputs": [
        {
          "internalType": "uint256",
          "name": "",
          "type": "uint256"
        }
      ],
      "stateMutability": "view",
      "type": "function"
    },
    {
      "inputs": [
        {
          "internalType": "enum InsuranceFund.PolicyType",
          "name": "policyType",
          "type": "uint8"
        },
        {
          "internalType": "uint256",
          "name": "coverageAmount",
          "type": "uint256"
        },
        {
          "internalType": "uint256",
          "name": "duration",
          "type": "uint256"
        }
      ],
      "name": "purchasePolicy",
      "outputs": [
        {
          "internalType": "uint256",
          "name": "policyId",
          "type": "uint256"
        }
      ],
      "stateMutability": "payable",
      "type": "function"
    },
    {
      "inputs": [
        {
          "internalType": "uint256",
          "name": "claimId",
          "type": "uint256"
        },
        {
          "internalType": "string",
          "name": "reason",
          "type": "string"
        }
      ],
      "name": "rejectClaim",
      "outputs": [],
      "stateMutability": "nonpayable",
      "type": "function"
    },
    {
      "inputs": [
        {
          "internalType": "bytes32",
          "name": "role",
          "type": "bytes32"
        },
        {
          "internalType": "address",
          "name": "callerConfirmation",
          "type": "address"
        }
      ],
      "name": "renounceRole",
      "outputs": [],
      "stateMutability": "nonpayable",
      "type": "function"
    },
    {
      "inputs": [],
      "name": "reserveRatio",
      "outputs": [
        {
          "internalType": "uint256",
          "name": "",
          "type": "uint256"
        }
      ],
      "stateMutability": "view",
      "type": "function"
    },
    {
      "inputs": [
        {
          "internalType": "bytes32",
          "name": "role",
          "type": "bytes32"
        },
        {
          "internalType": "address",
          "name": "account",
          "type": "address"
        }
      ],
      "name": "revokeRole",
      "outputs": [],
      "stateMutability": "nonpayable",
      "type": "function"
    },
    {
      "inputs": [
        {
          "internalType": "uint256",
          "name": "policyId",
          "type": "uint256"
        },
        {
          "internalType": "uint256",
          "name": "requestedAmount",
          "type": "uint256"
        },
        {
          "internalType": "bytes32",
          "name": "evidenceHash",
          "type": "bytes32"
        },
        {
          "internalType": "string",
          "name": "description",
          "type": "string"
        }
      ],
      "name": "submitClaim",
      "outputs": [
        {
          "internalType": "uint256",
          "name": "claimId",
          "type": "uint256"
        }
      ],
      "stateMutability": "nonpayable",
      "type": "function"
    },
    {
      "inputs": [
        {
          "internalType": "bytes4",
          "name": "interfaceId",
          "type": "bytes4"
        }
      ],
      "name": "supportsInterface",
      "outputs": [
        {
          "internalType": "bool",
          "name": "",
          "type": "bool"
        }
      ],
      "stateMutability": "view",
      "type": "function"
    },
    {
      "inputs": [],
      "name": "treasury",
      "outputs": [
        {
          "internalType": "address",
          "name": "",
          "type": "address"
        }
      ],
      "stateMutability": "view",
      "type": "function"
    }
  ],
  "bytecode": "0x6080346200015057601f6200208738819003918201601f191683019291906001600160401b03841183851017620001555781602092849260409687528339810103126200015057516001600160a01b0381169081900362000150576001805560c86004556050600555606460065580156200011957600780546001600160a01b03191691909117905562000093336200016b565b506200009f33620001eb565b50620000ab336200028d565b506801158e460913d00000816000808052601060205268056bc75e2d6310000082822055600181526802b5e3af16b188000082822055600281526801a055690d9db8000082822055600381526804563918244f4000008282205560048152205551611d3c90816200032b8239f35b815162461bcd60e51b815260206004820152601060248201526f496e76616c696420747265617375727960801b6044820152606490fd5b600080fd5b634e487b7160e01b600052604160045260246000fd5b6001600160a01b031660008181527fad3228b676f7d3cd4284a5443f17f1962b36e491b30a40b2405849e597ba5fb5602052604081205490919060ff16620001e757818052816020526040822081835260205260408220600160ff198254161790553391600080516020620020678339815191528180a4600190565b5090565b6001600160a01b031660008181527f928fe47407dc08a489891231abda5853cb29ea06bb2a884c241713160271450760205260408120549091907f49c0b5508d73c6d4a22618d3f0f1f5234731068acf90a1a3e32a424900595f0d9060ff166200028857808352826020526040832082845260205260408320600160ff1982541617905560008051602062002067833981519152339380a4600190565b505090565b6001600160a01b031660008181527f28e45274deb3d6d36958bbdbc096db64d6ae3abe997afccb9e0e247e78b0ea4f60205260408120549091907fe2889e7308860b3fe8df0daa86fccfea4d71e43776719a57be28cf90b6db81e99060ff166200028857808352826020526040832082845260205260408320600160ff1982541617905560008051602062002067833981519152339380a460019056fe608080604052600436101561001357600080fd5b60003560e01c90816301ffc9a71461172f575080630c7d5cd8146117115780631c6fcde8146116d357806322e957d3146112d4578063248a9ca3146112a55780632f2ff15d146112665780633577a5ad1461116e57806336568abe146111025780633c539c9c146110ad578063411f353c146110725780634efa8f17146110545780635312ea8e14610ee85780635d0040d314610eca57806361d027b314610e9657806370f37d2714610d595780637e0c9e9b1461083b5780637fbe658c146106b3578063857d0fda1461062e57806391d14854146105d357806395a4dfd214610570578063a217fddf14610554578063a888c2cd146103ad578063abd70aa214610391578063cd42b058146102fc578063d3e894831461025d578063d52c1bea1461023f578063d547741f146101fe578063eafb79e2146101c3578063f540a21f1461018c5763f7bdf4c61461016957600080fd5b34610187576000600319360112610187576020600554604051908152f35b600080fd5b34610187576000600319360112610187576080600854600954600a54600b5491604051938452602084015260408301526060820152f35b346101875760006003193601126101875760206040517fe2889e7308860b3fe8df0daa86fccfea4d71e43776719a57be28cf90b6db81e98152f35b346101875760406003193601126101875761023d60043561021d611806565b908060005260006020526102386001604060002001546119ec565b611a9e565b005b34610187576000600319360112610187576020600254604051908152f35b3461018757602060031936011261018757600435600052600c602052610100604060002080549060018101549060ff8260a01c16600282015460038301549060048401549273ffffffffffffffffffffffffffffffffffffffff60ff6006600588015497015416966040519889521660208801526102da816117cd565b60408701526060860152608085015260a084015260c0830152151560e0820152f35b34610187576020806003193601126101875773ffffffffffffffffffffffffffffffffffffffff61032b611829565b16600052600f8152604060002090604051908181845491828152019360005281600020916000905b82821061037a576103768561036a8189038261194f565b604051918291826118c1565b0390f35b835486529485019460019384019390910190610353565b3461018757600060031936011261018757602047604051908152f35b346101875760208060031936011261018757600435600052600d815260406000208054916001918281015473ffffffffffffffffffffffffffffffffffffffff600283015416600383015460048401549060ff60058601541692600686015494600860078801549701604051809a60009083549361042a856118fc565b948585528d83821691826000146105315750506001146104f1575b50506104539250038a61194f565b604051998a52878a0152604089015260608801526080870152610475816117cd565b60a086015260c085015260e084015261012091826101008501528051809385015260005b8381106104dc57505050817fffffffffffffffffffffffffffffffffffffffffffffffffffffffffffffffe0601f61014093600085828601015201168101030190f35b81810183015185820161014001528201610499565b8c925060005281600020906000915b85831061051857505061045393508201018d80610445565b819484848396959654920101520191018c928c92610500565b9150935061045395925060ff1991501682840152151560051b8201018d80610445565b3461018757600060031936011261018757602060405160008152f35b3461018757604060031936011261018757610589611829565b73ffffffffffffffffffffffffffffffffffffffff6024359116600052600e60205260406000208054821015610187576020916105c59161187a565b90546040519160031b1c8152f35b34610187576040600319360112610187576105ec611806565b600435600052600060205273ffffffffffffffffffffffffffffffffffffffff60406000209116600052602052602060ff604060002054166040519015158152f35b34610187576020806003193601126101875773ffffffffffffffffffffffffffffffffffffffff61065d611829565b16600052600e8152604060002090604051908181845491828152019360005281600020916000905b82821061069c576103768561036a8189038261194f565b835486529485019460019384019390910190610685565b34610187576040600319360112610187576024356004356106d2611990565b6106da611c01565b80600052600d6020526002604060002060058101600460ff1982549661071660ff8916610706816117cd565b8015908115610827575b50611ca1565b6001850154600052600c6020526107368660406000200154821115611c3c565b6064610747600a5460055490611b5d565b04908181111561081f5750965b8783860155867f638d892b8630b775fea5d7a52b209e8bfa1d90c32b57cd37208ac84d4bcd6dcb60206040518b8152a21617905561079484600a54611bf4565b600a556107a384600954611b21565b6009550173ffffffffffffffffffffffffffffffffffffffff9060008080808786865416828215610816575bf11561080a577faf3c8fdd75d667f71d36d7840b8ef9086c516c9b047ad6a83a5a66151342123a91602091541693604051908152a360018055005b6040513d6000823e3d90fd5b506108fc6107cf565b905096610754565b60019150610834816117cd565b148a610710565b346101875760806003193601126101875760643567ffffffffffffffff81116101875761086c90369060040161184c565b90610875611c01565b600435600052600c602052604060002073ffffffffffffffffffffffffffffffffffffffff6001820154163303610cfb5760ff60068201541615610c9d5760058101544211610c3f5760026108d09101546024351115611c3c565b6108db600354611b70565b908160035560405192610120840184811067ffffffffffffffff821117610c10576040528284526004356020850152336040850152602435606085015260006080850152600060a085015260443560c08501524260e085015267ffffffffffffffff8111610c10576040519161097960207fffffffffffffffffffffffffffffffffffffffffffffffffffffffffffffffe0601f850116018461194f565b81835236828201116101875781600092602092838601378301015261010083015280600052600d6020526101006008604060002084518155602085015160018201556002810173ffffffffffffffffffffffffffffffffffffffff6040870151167fffffffffffffffffffffffff000000000000000000000000000000000000000082541617905560608501516003820155608085015160048201556005810160a0860151610a27816117cd565b610a30816117cd565b60ff60ff19835416911617905560c0850151600682015560e08501516007820155019201519081519267ffffffffffffffff8411610c1057610a7281546118fc565b93601f8511610bc8575b602094508493601f8211600114610b29579381929394600092610b1e575b50507fffffffffffffffffffffffffffffffffffffffffffffffffffffffffffffffff8260011b9260031b1c19161790555b33600052600f8252610ae2816040600020611b9d565b6040516024358152817fcf394f7701f2b1dae6f328cbc70c1f155122b124431f95bbf4a483bba68545558460043593a360018055604051908152f35b015190508580610a9a565b7fffffffffffffffffffffffffffffffffffffffffffffffffffffffffffffffe082169483600052866000209160005b878110610bb1575083600195969710610b7a575b505050811b019055610acc565b01517fffffffffffffffffffffffffffffffffffffffffffffffffffffffffffffffff60f88460031b161c19169055858080610b6d565b919288600181928685015181550194019201610b59565b816000526020600020601f820160051c81019560208310610c06575b601f0160051c01945b858110610bfa5750610a7c565b60008155600101610bed565b9095508590610be4565b7f4e487b7100000000000000000000000000000000000000000000000000000000600052604160045260246000fd5b60646040517f08c379a000000000000000000000000000000000000000000000000000000000815260206004820152600e60248201527f506f6c69637920657870697265640000000000000000000000000000000000006044820152fd5b60646040517f08c379a000000000000000000000000000000000000000000000000000000000815260206004820152601160248201527f506f6c696379206e6f74206163746976650000000000000000000000000000006044820152fd5b60646040517f08c379a000000000000000000000000000000000000000000000000000000000815260206004820152601160248201527f4e6f7420706f6c69637920686f6c6465720000000000000000000000000000006044820152fd5b6000600319360112610187573360009081527f28e45274deb3d6d36958bbdbc096db64d6ae3abe997afccb9e0e247e78b0ea4f60205260409020547fe2889e7308860b3fe8df0daa86fccfea4d71e43776719a57be28cf90b6db81e99060ff1615610e5f573415610e0157610dd034600a54611b21565b600a556040513481527f0b82cbb3af68ef5b24abae8cd0df3ef2bec5d21454d813002af3ed648f60c88460203392a2005b60646040517f08c379a000000000000000000000000000000000000000000000000000000000815260206004820152600d60248201527f4e6f2076616c75652073656e74000000000000000000000000000000000000006044820152fd5b604490604051907fe2517d3f0000000000000000000000000000000000000000000000000000000082523360048301526024820152fd5b3461018757600060031936011261018757602073ffffffffffffffffffffffffffffffffffffffff60075416604051908152f35b34610187576000600319360112610187576020600654604051908152f35b34610187576020600319360112610187573360009081527fad3228b676f7d3cd4284a5443f17f1962b36e491b30a40b2405849e597ba5fb560205260409020546004359060ff161561101d57610f3c611c01565b478111610fbf57610f4f81600a54611bf4565b600a5573ffffffffffffffffffffffffffffffffffffffff6000808080858560075416828215610fb6575bf11561080a5760207fa692503bc54c9f1d1483729b6058a24987097ff492084b1a8adf8cae08e4fb43916007541692604051908152a260018055005b506108fc610f7a565b60646040517f08c379a000000000000000000000000000000000000000000000000000000000815260206004820152601460248201527f496e73756666696369656e742062616c616e63650000000000000000000000006044820152fd5b60446040517fe2517d3f00000000000000000000000000000000000000000000000000000000815233600482015260006024820152fd5b34610187576000600319360112610187576020600354604051908152f35b346101875760006003193601126101875760206040517f49c0b5508d73c6d4a22618d3f0f1f5234731068acf90a1a3e32a424900595f0d8152f35b34610187576040600319360112610187576110c6611829565b73ffffffffffffffffffffffffffffffffffffffff6024359116600052600f60205260406000208054821015610187576020916105c59161187a565b346101875760406003193601126101875761111b611806565b3373ffffffffffffffffffffffffffffffffffffffff8216036111445761023d90600435611a9e565b60046040517f6697b232000000000000000000000000000000000000000000000000000000008152fd5b346101875760406003193601126101875760043560243567ffffffffffffffff81116101875760406111c57f43cc3d080e025c67c26d62b18bd442511dc9c76c8aa3f48cc0e8f456173e61f192369060040161184c565b91906111cf611990565b84600052600d60205260058260002001600360ff19825461120560ff82166111f6816117cd565b80159081156112525750611ca1565b161790557fffffffffffffffffffffffffffffffffffffffffffffffffffffffffffffffe0601f8484519586946020865281602087015286860137600085828601015201168101030190a2005b6001915061125f816117cd565b148b610710565b346101875760406003193601126101875761023d600435611285611806565b908060005260006020526112a06001604060002001546119ec565b611a12565b346101875760206003193601126101875760043560005260006020526020600160406000200154604051908152f35b6060600319360112610187576004356005811015610187576024906044359082356112fd611c01565b611306826117cd565b816000526020936010855260406000205482116116765783156116195761271061133260065484611b5d565b04908134106115bc5782600a541061155f5761135d611352600254611b70565b958660025542611b21565b6040519161010083019083821067ffffffffffffffff831117611532575091600691879360405283825288808301338152604084019061139c8a6117cd565b89825260608501908982526080860192898452600c60a088019542875260c0890197885260e089019a60018c526000525260406000209651875573ffffffffffffffffffffffffffffffffffffffff600188019251167fffffffffffffffffffffff00000000000000000000000000000000000000000074ff000000000000000000000000000000000000000084549351611436816117cd565b61143f816117cd565b60a01b16921617179055516002850155516003840155516004830155516005820155019051151560ff60ff19835416911617905533600052600e8552611489846040600020611b9d565b61149581600854611b21565b6008556114a481600a54611b21565b600a556114b2600b54611b70565b600b55803411611504575b50604051916114cb816117cd565b825283820152817fd2feeef2a3a935bf9a09f96b958b3c5cb94f5658eb850fb848d391ce32f2beb060403393a360018055604051908152f35b60008080611513819434611bf4565b818115611529575b3390f11561080a57846114bd565b506108fc61151b565b7f4e487b710000000000000000000000000000000000000000000000000000000060005260416004526000fd5b856011606492604051927f08c379a000000000000000000000000000000000000000000000000000000000845260048401528201527f506f6f6c20696e73756666696369656e740000000000000000000000000000006044820152fd5b856014606492604051927f08c379a000000000000000000000000000000000000000000000000000000000845260048401528201527f496e73756666696369656e74207072656d69756d0000000000000000000000006044820152fd5b846010606492604051927f08c379a000000000000000000000000000000000000000000000000000000000845260048401528201527f496e76616c6964206475726174696f6e000000000000000000000000000000006044820152fd5b846014606492604051927f08c379a000000000000000000000000000000000000000000000000000000000845260048401528201527f436f7665726167652065786365656473206d61780000000000000000000000006044820152fd5b34610187576020600319360112610187576004356005811015610187576116f9816117cd565b60005260106020526020604060002054604051908152f35b34610187576000600319360112610187576020600454604051908152f35b3461018757602060031936011261018757600435907fffffffff00000000000000000000000000000000000000000000000000000000821680920361018757817f7965db0b00000000000000000000000000000000000000000000000000000000602093149081156117a3575b5015158152f35b7f01ffc9a7000000000000000000000000000000000000000000000000000000009150148361179c565b600511156117d757565b7f4e487b7100000000000000000000000000000000000000000000000000000000600052602160045260246000fd5b6024359073ffffffffffffffffffffffffffffffffffffffff8216820361018757565b6004359073ffffffffffffffffffffffffffffffffffffffff8216820361018757565b9181601f840112156101875782359167ffffffffffffffff8311610187576020838186019501011161018757565b80548210156118925760005260206000200190600090565b7f4e487b7100000000000000000000000000000000000000000000000000000000600052603260045260246000fd5b6020908160408183019282815285518094520193019160005b8281106118e8575050505090565b8351855293810193928101926001016118da565b90600182811c92168015611945575b602083101461191657565b7f4e487b7100000000000000000000000000000000000000000000000000000000600052602260045260246000fd5b91607f169161190b565b90601f7fffffffffffffffffffffffffffffffffffffffffffffffffffffffffffffffe0910116810190811067ffffffffffffffff821117610c1057604052565b3360009081527f928fe47407dc08a489891231abda5853cb29ea06bb2a884c241713160271450760205260409020547f49c0b5508d73c6d4a22618d3f0f1f5234731068acf90a1a3e32a424900595f0d9060ff1615610e5f5750565b80600052600060205260406000203360005260205260ff6040600020541615610e5f5750565b906000918083528260205273ffffffffffffffffffffffffffffffffffffffff6040842092169182845260205260ff60408420541615600014611a9957808352826020526040832082845260205260408320600160ff198254161790557f2f8788117e7eff1d82e926ec794901d17c78024a50270940304540a733656f0d339380a4600190565b505090565b906000918083528260205273ffffffffffffffffffffffffffffffffffffffff6040842092169182845260205260ff604084205416600014611a995780835282602052604083208284526020526040832060ff1981541690557ff6391f5c32d9c69d2a47ea670b442974b53935d1edc7fd64eb21e047a839171b339380a4600190565b91908201809211611b2e57565b7f4e487b7100000000000000000000000000000000000000000000000000000000600052601160045260246000fd5b81810292918115918404141715611b2e57565b7fffffffffffffffffffffffffffffffffffffffffffffffffffffffffffffffff8114611b2e5760010190565b805468010000000000000000811015610c1057611bbf9160018201815561187a565b7fffffffffffffffffffffffffffffffffffffffffffffffffffffffffffffffff829392549160031b92831b921b1916179055565b91908203918211611b2e57565b600260015414611c12576002600155565b60046040517f3ee5aeb5000000000000000000000000000000000000000000000000000000008152fd5b15611c4357565b60646040517f08c379a000000000000000000000000000000000000000000000000000000000815260206004820152601060248201527f4578636565647320636f766572616765000000000000000000000000000000006044820152fd5b15611ca857565b60646040517f08c379a000000000000000000000000000000000000000000000000000000000815260206004820152600e60248201527f4e6f742072657669657761626c650000000000000000000000000000000000006044820152fdfea264697066735822122016e5e66a52c252cf8206b0e7cc494a1b396ec5e040a9836d11c982348f64870864736f6c634300081400332f8788117e7eff1d82e926ec794901d17c78024a50270940304540a733656f0d",
  "linkReferences": {},
  "deployedLinkReferences": {}
}