{
  "_format": "hh-sol-artifact-1",
  "contractName": "PerformanceMetrics",
  "sourceName": "contracts/layer5/PerformanceMetrics.sol",
  "abi": [
    {
      "inputs": [],
      "stateMutability": "nonpayable",
      "type": "constructor"
    },
    {
      "inputs": [],
      "name": "AccessControlBadConfirmation",
      "type": "error"
    },
    {
      "inputs": [
        {
          "internalType": "address",
          "name": "account",
          "type": "address"
        },
        {
          "internalType": "bytes32",
          "name": "neededRole",
          "type": "bytes32"
        }
      ],
      "name": "AccessControlUnauthorizedAccount",
      "type": "error"
    },
    {
      "anonymous": false,
      "inputs": [
        {
          "indexed": true,
          "internalType": "uint256",
          "name": "athleteId",
          "type": "uint256"
        },
        {
          "indexed": false,
          "internalType": "uint256",
          "name": "newPerformanceScore",
          "type": "uint256"
        }
      ],
      "name": "CareerStatsUpdated",
      "type": "event"
    },
    {
      "anonymous": false,
      "inputs": [
        {
          "indexed": true,
          "internalType": "uint256",
          "name": "athleteId",
          "type": "uint256"
        },
        {
          "indexed": true,
          "internalType": "uint256",
          "name": "matchId",
          "type": "uint256"
        }
      ],
      "name": "MatchPerformanceRecorded",
      "type": "event"
    },
    {
      "anonymous": false,
      "inputs": [
        {
          "indexed": true,
          "internalType": "uint256",
          "name": "athleteId",
          "type": "uint256"
        },
        {
          "indexed": false,
          "internalType": "string",
          "name": "milestoneName",
          "type": "string"
        }
      ],
      "name": "MilestoneAchieved",
      "type": "event"
    },
    {
      "anonymous": false,
      "inputs": [
        {
          "indexed": true,
          "internalType": "uint256",
          "name": "athleteId",
          "type": "uint256"
        },
        {
          "indexed": false,
          "internalType": "uint8",
          "name": "sport",
          "type": "uint8"
        },
        {
          "indexed": false,
          "internalType": "uint256",
          "name": "newRank",
          "type": "uint256"
        }
      ],
      "name": "RankingUpdated",
      "type": "event"
    },
    {
      "anonymous": false,
      "inputs": [
        {
          "indexed": true,
          "internalType": "bytes32",
          "name": "role",
          "type": "bytes32"
        },
        {
          "indexed": true,
          "internalType": "bytes32",
          "name": "previousAdminRole",
          "type": "bytes32"
        },
        {
          "indexed": true,
          "internalType": "bytes32",
          "name": "newAdminRole",
          "type": "bytes32"
        }
      ],
      "name": "RoleAdminChanged",
      "type": "event"
    },
    {
      "anonymous": false,
      "inputs": [
        {
          "indexed": true,
          "internalType": "bytes32",
          "name": "role",
          "type": "bytes32"
        },
        {
          "indexed": true,
          "internalType": "address",
          "name": "account",
          "type": "address"
        },
        {
          "indexed": true,
          "internalType": "address",
          "name": "sender",
          "type": "address"
        }
      ],
      "name": "RoleGranted",
      "type": "event"
    },
    {
      "anonymous": false,
      "inputs": [
        {
          "indexed": true,
          "internalType": "bytes32",
          "name": "role",
          "type": "bytes32"
        },
        {
          "indexed": true,
          "internalType": "address",
          "name": "account",
          "type": "address"
        },
        {
          "indexed": true,
          "internalType": "address",
          "name": "sender",
          "type": "address"
        }
      ],
      "name": "RoleRevoked",
      "type": "event"
    },
    {
      "inputs": [],
      "name": "DEFAULT_ADMIN_ROLE",
      "outputs": [
        {
          "internalType": "bytes32",
          "name": "",
          "type": "bytes32"
        }
      ],
      "stateMutability": "view",
      "type": "function"
    },
    {
      "inputs": [],
      "name": "RECORDER_ROLE",
      "outputs": [
        {
          "internalType": "bytes32",
          "name": "",
          "type": "bytes32"
        }
      ],
      "stateMutability": "view",
      "type": "function"
    },
    {
      "inputs": [
        {
          "internalType": "uint256",
          "name": "",
          "type": "uint256"
        },
        {
          "internalType": "uint256",
          "name": "",
          "type": "uint256"
        }
      ],
      "name": "athleteMilestones",
      "outputs": [
        {
          "internalType": "string",
          "name": "name",
          "type": "string"
        },
        {
          "internalType": "string",
          "name": "description",
          "type": "string"
        },
        {
          "internalType": "uint256",
          "name": "achievedAt",
          "type": "uint256"
        },
        {
          "internalType": "uint256",
          "name": "matchId",
          "type": "uint256"
        }
      ],
      "stateMutability": "view",
      "type": "function"
    },
    {
      "inputs": [
        {
          "internalType": "uint8",
          "name": "",
          "type": "uint8"
        },
        {
          "internalType": "uint256",
          "name": "",
          "type": "uint256"
        }
      ],
      "name": "athleteRank",
      "outputs": [
        {
          "internalType": "uint256",
          "name": "",
          "type": "uint256"
        }
      ],
      "stateMutability": "view",
      "type": "function"
    },
    {
      "inputs": [
        {
          "internalType": "uint256",
          "name": "",
          "type": "uint256"
        }
      ],
      "name": "careerStats",
      "outputs": [
        {
          "internalType": "uint256",
          "name": "athleteId",
          "type": "uint256"
        },
        {
          "internalType": "uint256",
          "name": "totalMatches",
          "type": "uint256"
        },
        {
          "internalType": "uint256",
          "name": "wins",
          "type": "uint256"
        },
        {
          "internalType": "uint256",
          "name": "losses",
          "type": "uint256"
        },
        {
          "internalType": "uint256",
          "name": "draws",
          "type": "uint256"
        },
        {
          "internalType": "uint256",
          "name": "knockouts",
          "type": "uint256"
        },
        {
          "internalType": "uint256",
          "name": "submissions",
          "type": "uint256"
        },
        {
          "internalType": "uint256",
          "name": "decisions",
          "type": "uint256"
        },
        {
          "internalType": "uint256",
          "name": "totalRounds",
          "type": "uint256"
        },
        {
          "internalType": "uint256",
          "name": "avgRoundsPerFight",
          "type": "uint256"
        },
        {
          "internalType": "uint256",
          "name": "winStreak",
          "type": "uint256"
        },
        {
          "internalType": "uint256",
          "name": "lossStreak",
          "type": "uint256"
        },
        {
          "internalType": "uint256",
          "name": "longestWinStreak",
          "type": "uint256"
        },
        {
          "internalType": "uint256",
          "name": "totalFanVotes",
          "type": "uint256"
        },
        {
          "internalType": "uint256",
          "name": "performanceScore",
          "type": "uint256"
        },
        {
          "internalType": "uint256",
          "name": "lastUpdated",
          "type": "uint256"
        }
      ],
      "stateMutability": "view",
      "type": "function"
    },
    {
      "inputs": [
        {
          "internalType": "uint256",
          "name": "athleteId",
          "type": "uint256"
        },
        {
          "internalType": "uint8",
          "name": "sport",
          "type": "uint8"
        }
      ],
      "name": "getAthleteRank",
      "outputs": [
        {
          "internalType": "uint256",
          "name": "",
          "type": "uint256"
        }
      ],
      "stateMutability": "view",
      "type": "function"
    },
    {
      "inputs": [
        {
          "internalType": "uint256",
          "name": "athleteId",
          "type": "uint256"
        }
      ],
      "name": "getCareerStats",
      "outputs": [
        {
          "components": [
            {
              "internalType": "uint256",
              "name": "athleteId",
              "type": "uint256"
            },
            {
              "internalType": "uint256",
              "name": "totalMatches",
              "type": "uint256"
            },
            {
              "internalType": "uint256",
              "name": "wins",
              "type": "uint256"
            },
            {
              "internalType": "uint256",
              "name": "losses",
              "type": "uint256"
            },
            {
              "internalType": "uint256",
              "name": "draws",
              "type": "uint256"
            },
            {
              "internalType": "uint256",
              "name": "knockouts",
              "type": "uint256"
            },
            {
              "internalType": "uint256",
              "name": "submissions",
              "type": "uint256"
            },
            {
              "internalType": "uint256",
              "name": "decisions",
              "type": "uint256"
            },
            {
              "internalType": "uint256",
              "name": "totalRounds",
              "type": "uint256"
            },
            {
              "internalType": "uint256",
              "name": "avgRoundsPerFight",
              "type": "uint256"
            },
            {
              "internalType": "uint256",
              "name": "winStreak",
              "type": "uint256"
            },
            {
              "internalType": "uint256",
              "name": "lossStreak",
              "type": "uint256"
            },
            {
              "internalType": "uint256",
              "name": "longestWinStreak",
              "type": "uint256"
            },
            {
              "internalType": "uint256",
              "name": "totalFanVotes",
              "type": "uint256"
            },
            {
              "internalType": "uint256",
              "name": "performanceScore",
              "type": "uint256"
            },
            {
              "internalType": "uint256",
              "name": "lastUpdated",
              "type": "uint256"
            }
          ],
          "internalType": "struct PerformanceMetrics.CareerStats",
          "name": "",
          "type": "tuple"
        }
      ],
      "stateMutability": "view",
      "type": "function"
    },
    {
      "inputs": [
        {
          "internalType": "uint256",
          "name": "athleteId",
          "type": "uint256"
        }
      ],
      "name": "getMatchPerformances",
      "outputs": [
        {
          "components": [
            {
              "internalType": "uint256",
              "name": "matchId",
              "type": "uint256"
            },
            {
              "internalType": "uint256",
              "name": "athleteId",
              "type": "uint256"
            },
            {
              "internalType": "uint256",
              "name": "roundsWon",
              "type": "uint256"
            },
            {
              "internalType": "uint256",
              "name": "roundsLost",
              "type": "uint256"
            },
            {
              "internalType": "uint256",
              "name": "knockdownsLanded",
              "type": "uint256"
            },
            {
              "internalType": "uint256",
              "name": "knockdownsReceived",
              "type": "uint256"
            },
            {
              "internalType": "uint256",
              "name": "significantStrikes",
              "type": "uint256"
            },
            {
              "internalType": "uint256",
              "name": "accuracy",
              "type": "uint256"
            },
            {
              "internalType": "uint256",
              "name": "fightIQ",
              "type": "uint256"
            },
            {
              "internalType": "uint256",
              "name": "crowdRating",
              "type": "uint256"
            },
            {
              "internalType": "uint256",
              "name": "timestamp",
              "type": "uint256"
            }
          ],
          "internalType": "struct PerformanceMetrics.MatchPerformance[]",
          "name": "",
          "type": "tuple[]"
        }
      ],
      "stateMutability": "view",
      "type": "function"
    },
    {
      "inputs": [
        {
          "internalType": "uint256",
          "name": "athleteId",
          "type": "uint256"
        }
      ],
      "name": "getMilestones",
      "outputs": [
        {
          "components": [
            {
              "internalType": "string",
              "name": "name",
              "type": "string"
            },
            {
              "internalType": "string",
              "name": "description",
              "type": "string"
            },
            {
              "internalType": "uint256",
              "name": "achievedAt",
              "type": "uint256"
            },
            {
              "internalType": "uint256",
              "name": "matchId",
              "type": "uint256"
            }
          ],
          "internalType": "struct PerformanceMetrics.Milestone[]",
          "name": "",
          "type": "tuple[]"
        }
      ],
      "stateMutability": "view",
      "type": "function"
    },
    {
      "inputs": [
        {
          "internalType": "bytes32",
          "name": "role",
          "type": "bytes32"
        }
      ],
      "name": "getRoleAdmin",
      "outputs": [
        {
          "internalType": "bytes32",
          "name": "",
          "type": "bytes32"
        }
      ],
      "stateMutability": "view",
      "type": "function"
    },
    {
      "inputs": [
        {
          "internalType": "bytes32",
          "name": "role",
          "type": "bytes32"
        },
        {
          "internalType": "address",
          "name": "account",
          "type": "address"
        }
      ],
      "name": "grantRole",
      "outputs": [],
      "stateMutability": "nonpayable",
      "type": "function"
    },
    {
      "inputs": [
        {
          "internalType": "bytes32",
          "name": "role",
          "type": "bytes32"
        },
        {
          "internalType": "address",
          "name": "account",
          "type": "address"
        }
      ],
      "name": "hasRole",
      "outputs": [
        {
          "internalType": "bool",
          "name": "",
          "type": "bool"
        }
      ],
      "stateMutability": "view",
      "type": "function"
    },
    {
      "inputs": [
        {
          "internalType": "uint256",
          "name": "athleteId",
          "type": "uint256"
        }
      ],
      "name": "initializeAthlete",
      "outputs": [],
      "stateMutability": "nonpayable",
      "type": "function"
    },
    {
      "inputs": [
        {
          "internalType": "uint256",
          "name": "",
          "type": "uint256"
        },
        {
          "internalType": "uint256",
          "name": "",
          "type": "uint256"
        }
      ],
      "name": "matchPerformances",
      "outputs": [
        {
          "internalType": "uint256",
          "name": "matchId",
          "type": "uint256"
        },
        {
          "internalType": "uint256",
          "name": "athleteId",
          "type": "uint256"
        },
        {
          "internalType": "uint256",
          "name": "roundsWon",
          "type": "uint256"
        },
        {
          "internalType": "uint256",
          "name": "roundsLost",
          "type": "uint256"
        },
        {
          "internalType": "uint256",
          "name": "knockdownsLanded",
          "type": "uint256"
        },
        {
          "internalType": "uint256",
          "name": "knockdownsReceived",
          "type": "uint256"
        },
        {
          "internalType": "uint256",
          "name": "significantStrikes",
          "type": "uint256"
        },
        {
          "internalType": "uint256",
          "name": "accuracy",
          "type": "uint256"
        },
        {
          "internalType": "uint256",
          "name": "fightIQ",
          "type": "uint256"
        },
        {
          "internalType": "uint256",
          "name": "crowdRating",
          "type": "uint256"
        },
        {
          "internalType": "uint256",
          "name": "timestamp",
          "type": "uint256"
        }
      ],
      "stateMutability": "view",
      "type": "function"
    },
    {
      "inputs": [
        {
          "internalType": "uint256",
          "name": "",
          "type": "uint256"
        },
        {
          "internalType": "uint256",
          "name": "",
          "type": "uint256"
        }
      ],
      "name": "rankingHistory",
      "outputs": [
        {
          "internalType": "uint256",
          "name": "",
          "type": "uint256"
        }
      ],
      "stateMutability": "view",
      "type": "function"
    },
    {
      "inputs": [
        {
          "internalType": "uint256",
          "name": "athleteId",
          "type": "uint256"
        },
        {
          "internalType": "uint256",
          "name": "matchId",
          "type": "uint256"
        },
        {
          "internalType": "bool",
          "name": "won",
          "type": "bool"
        },
        {
          "internalType": "bool",
          "name": "knockout",
          "type": "bool"
        },
        {
          "internalType": "bool",
          "name": "submission",
          "type": "bool"
        },
        {
          "internalType": "uint256",
          "name": "roundsWon",
          "type": "uint256"
        },
        {
          "internalType": "uint256",
          "name": "roundsLost",
          "type": "uint256"
        },
        {
          "internalType": "uint256",
          "name": "knockdownsLanded",
          "type": "uint256"
        },
        {
          "internalType": "uint256",
          "name": "knockdownsReceived",
          "type": "uint256"
        },
        {
          "internalType": "uint256",
          "name": "significantStrikes",
          "type": "uint256"
        },
        {
          "internalType": "uint256",
          "name": "accuracy",
          "type": "uint256"
        },
        {
          "internalType": "uint256",
          "name": "crowdRating",
          "type": "uint256"
        }
      ],
      "name": "recordMatchPerformance",
      "outputs": [],
      "stateMutability": "nonpayable",
      "type": "function"
    },
    {
      "inputs": [
        {
          "internalType": "bytes32",
          "name": "role",
          "type": "bytes32"
        },
        {
          "internalType": "address",
          "name": "callerConfirmation",
          "type": "address"
        }
      ],
      "name": "renounceRole",
      "outputs": [],
      "stateMutability": "nonpayable",
      "type": "function"
    },
    {
      "inputs": [
        {
          "internalType": "bytes32",
          "name": "role",
          "type": "bytes32"
        },
        {
          "internalType": "address",
          "name": "account",
          "type": "address"
        }
      ],
      "name": "revokeRole",
      "outputs": [],
      "stateMutability": "nonpayable",
      "type": "function"
    },
    {
      "inputs": [
        {
          "internalType": "uint8",
          "name": "",
          "type": "uint8"
        },
        {
          "internalType": "uint256",
          "name": "",
          "type": "uint256"
        }
      ],
      "name": "sportRankings",
      "outputs": [
        {
          "internalType": "uint256",
          "name": "",
          "type": "uint256"
        }
      ],
      "stateMutability": "view",
      "type": "function"
    },
    {
      "inputs": [
        {
          "internalType": "bytes4",
          "name": "interfaceId",
          "type": "bytes4"
        }
      ],
      "name": "supportsInterface",
      "outputs": [
        {
          "internalType": "bool",
          "name": "",
          "type": "bool"
        }
      ],
      "stateMutability": "view",
      "type": "function"
    },
    {
      "inputs": [],
      "name": "totalAthletesTracked",
      "outputs": [
        {
          "internalType": "uint256",
          "name": "",
          "type": "uint256"
        }
      ],
      "stateMutability": "view",
      "type": "function"
    },
    {
      "inputs": [
        {
          "internalType": "uint256",
          "name": "athleteId",
          "type": "uint256"
        },
        {
          "internalType": "uint8",
          "name": "sport",
          "type": "uint8"
        },
        {
          "internalType": "uint256",
          "name": "rank",
          "type": "uint256"
        }
      ],
      "name": "updateRanking",
      "outputs": [],
      "stateMutability": "nonpayable",
      "type": "function"
    }
  ],
  "bytecode": "0x6080604052346200003257620000153362000037565b506200002133620000b7565b50604051611f4590816200015a8239f35b600080fd5b6001600160a01b031660008181527fad3228b676f7d3cd4284a5443f17f1962b36e491b30a40b2405849e597ba5fb5602052604081205490919060ff16620000b357818052816020526040822081835260205260408220600160ff1982541617905533916000805160206200209f8339815191528180a4600190565b5090565b6001600160a01b031660008181527fb1ac342c5dc0467d8d4c0f1a20a519fb4987a5277efab1f73a21e4b3b5256e4e60205260408120549091907ff996da754c790e95d5c7ca3330cfcad529487fe9d1d8edb7afc65076fdf9adb49060ff166200015457808352826020526040832082845260205260408320600160ff198254161790556000805160206200209f833981519152339380a4600190565b50509056fe61010080604052600436101561001457600080fd5b60003560e01c90816301ffc9a714611388575080630b5c858d1461120757806313337093146111e957806317b49845146111a75780631fde705514610abe578063248a9ca314610a8f5780632f2ff15d14610a5e57806336568abe14610a0057806342c549c01461089c5780634afc4fd61461086b57806360e6faee14610772578063667ab2d91461072257806385beb15b1461067c57806391d148541461062e57806393edebbf146105845780639ce0760e146104425780639e50a33614610358578063a217fddf1461033c578063bea8658114610301578063cebe19021461018c578063d547741f146101595763f8811fd41461011257600080fd5b346101545760406003193601126101545760ff61012d611436565b16600052600660205260406000206004356000526020526020604060002054604051908152f35b600080fd5b346101545761018a61016a36611446565b908060005260006020526101856001604060002001546117ba565b61188a565b005b34610154576020600319360112610154576101a5611727565b6004356000526001602052604060002054156101bd57005b6040516101c981611691565b600435815260006020820152600060408201526000606082015260006080820152600060a0820152600060c0820152600060e08201526000610100820152600061012082015260006101408201526000610160820152600061018082015260006101a08201526101f46101c0820152426101e08201526004356000526001602052600f6101e0604060002092805184556020810151600185015560408101516002850155606081015160038501556080810151600485015560a0810151600585015560c0810151600685015560e0810151600785015561010081015160088501556101208101516009850155610140810151600a850155610160810151600b850155610180810151600c8501556101a0810151600d8501556101c0810151600e85015501519101556102fc60075461192b565b600755005b346101545760006003193601126101545760206040517ff996da754c790e95d5c7ca3330cfcad529487fe9d1d8edb7afc65076fdf9adb48152f35b3461015457600060031936011261015457602060405160008152f35b3461015457606060031936011261015457600435610374611436565b60ff60443591610382611727565b169081600052600660205260406000208360005260205280604060002055600460205260406000209182549168010000000000000000831015610413576103f2837ff08efd4a358dd8f92286614a323ce4628d90dac0513d4b24225eae41c73380659560016040960181556114ed565b81549060031b9060001984831b921b191617905582519182526020820152a2005b7f4e487b7100000000000000000000000000000000000000000000000000000000600052604160045260246000fd5b346101545760206003193601126101545761020060405161046281611691565b6000815260006020820152600060408201526000606082015260006080820152600060a0820152600060c0820152600060e0820152600061010091818382015261012082818301526101408381840152610160848185015261018085818601526101a09186838701526101c09387858801526101e097888098015260043560005260016020526104f56040600020611980565b956040519987518b52602088015160208c0152604088015160408c0152606088015160608c0152608088015160808c015260a088015160a08c015260c088015160c08c015260e088015160e08c015280880151908b015280870151908a015280860151908901528085015190880152808401519087015280830151908601528082015190850152015190820152f35b3461015457610592366114d7565b9060005260026020526040600020805482101561015457610160916105b69161170b565b508054906001810154906002810154600382015460048301546005840154600685015491600786015493600887015495600a6009890154980154986040519a8b5260208b015260408a01526060890152608088015260a087015260c086015260e0850152610100840152610120830152610140820152f35b346101545761063c36611446565b90600052600060205273ffffffffffffffffffffffffffffffffffffffff60406000209116600052602052602060ff604060002054166040519015158152f35b346101545761068a366114d7565b9060005260036020526040600020805482101561015457610705916106ae91611534565b50604051906106c8826106c181846115a3565b03836116ca565b6040516106e3816106dc81600186016115a3565b03826116ca565b6107136003600284015493015491604051958695608087526080870190611479565b908582036020870152611479565b91604084015260608301520390f35b346101545760406003193601126101545761073b611426565b60ff602435911660005260056020526040600020805482101561015457602091610764916114ed565b90546040519160031b1c8152f35b34610154576020600319360112610154576004356000526001602052604060002080549080600181015460028201546003830154600484015460058501546006860154600787015490600888015492600989015494600a8a015496600b8b015498600c8c01549a600d8d01549c600e01549d600f01549e60405180608052526080516020015260805160400152608051606001526080516080015260805160a0015260805160c0015260805160e00152608051610100015260805161012001526080516101400152608051610160015260805161018001526080516101a001526080516101c001526080516101e0015260805161020090f35b3461015457610879366114d7565b9060005260046020526040600020805482101561015457602091610764916114ed565b346101545760208060031936011261015457600435600052600390818152604060002080546108ca81611ef7565b936108d860405195866116ca565b81855260009283528383208486019391845b84841061099d57604080518881528951818a01819052600092600582901b83018101918a918c9085015b8287106109215785850386f35b909192938280827fffffffffffffffffffffffffffffffffffffffffffffffffffffffffffffffc0896001950301855287519061097961096983516080808552840190611479565b8484015183820386850152611479565b91604081015160408301526060809101519101529601920196019592919092610914565b60048760019260409a999a516109b281611675565b6040516109c3816106dc818b6115a3565b81526040516109d8816106dc81898c016115a3565b83820152600287015460408201528587015460608201528152019301930192919695966108ea565b3461015457610a0e36611446565b3373ffffffffffffffffffffffffffffffffffffffff821603610a345761018a9161188a565b60046040517f6697b232000000000000000000000000000000000000000000000000000000008152fd5b346101545761018a610a6f36611446565b90806000526000602052610a8a6001604060002001546117ba565b6117e0565b346101545760206003193601126101545760043560005260006020526020600160406000200154604051908152f35b346101545761018060031936011261015457604435801515810361015457606435801580158203610154576084359081158015830361015457610aff611727565b60043560005260016020526040600020926001840194610b1f865461192b565b80965560a43596610b3260c4358961193a565b966008870190610b4389835461193a565b80925580611192575b5050156111625760028501610b61815461192b565b9055600a8501610b71815461192b565b8091556000600b870155600c86018054821161115a575b5050611145575b611130575b81611128575b50611113575b610bb1610bac82611980565b611a32565b600e82015542600f8201556101043591826110d1576064905b610144359160648304606481106000146110c857915b806110a657506032915b601e820291808304601e14901517156110775760288102908082046028149015171561107757610c199161193a565b601e820291808304601e149015171561107757606491610c389161193a565b04600435600052600260205260406000209160405194610c5786611658565b602435968787526004356020880152604087015260c435606087015260e435608087015260a08601526101243560c086015260e0850152610100840152610164356101208401524261014084015280546801000000000000000081101561041357610cc79160018201815561170b565b61104857600a61014084600e955184556020810151600185015560408101516002850155606081015160038501556080810151600485015560a0810151600585015560c0810151600685015560e0810151600785015561010081015160088501556101208101516009850155015191015560646020610d4583611980565b603260408201600a815114610fcc575b5114610f50575b600a60a082015114610ed4575b600a6101808201511015610e58575b015114610dda575b01546040519081527fe1027ba381d29cb5d1d049362217285923f3838dba1038d8e5862385b34f3269602060043592a26004357f464beea5102c7736938cff58655de8ae751063457a42245c43f627386d23607f600080a3005b610e53604051610de9816116ae565b600781527f43656e7475727900000000000000000000000000000000000000000000000000602082015260405190610e20826116ae565b601182527f3130302063617265657220666967687473000000000000000000000000000000602083015285600435611b1b565b610d80565b610ecf604051610e67816116ae565b600b81527f556e73746f707061626c650000000000000000000000000000000000000000008482015260405190610e9d826116ae565b601382527f31302066696768742077696e2073747265616b000000000000000000000000008583015288600435611b1b565b610d78565b610f4b604051610ee3816116ae565b600981527f4b4f2041727469737400000000000000000000000000000000000000000000008482015260405190610f19826116ae565b601382527f313020636172656572206b6e6f636b6f757473000000000000000000000000008583015288600435611b1b565b610d69565b610fc7604051610f5f816116ae565b600781527f35302057696e73000000000000000000000000000000000000000000000000008482015260405190610f95826116ae565b601782527f4163686965766564203530206361726565722077696e730000000000000000008583015288600435611b1b565b610d5c565b611043604051610fdb816116ae565b600781527f31302057696e73000000000000000000000000000000000000000000000000008682015260405190611011826116ae565b601782527f4163686965766564203130206361726565722077696e73000000000000000000878301528a600435611b1b565b610d55565b7f4e487b7100000000000000000000000000000000000000000000000000000000600052600060045260246000fd5b7f4e487b7100000000000000000000000000000000000000000000000000000000600052601160045260246000fd5b606487029087820460641488151715611077576110c291611947565b91610bea565b50606491610be0565b60e4356064810290808204606414901517156110775760018401808511611077576110fb91611947565b606481101561110b575b90610bca565b506064611105565b60078101611121815461192b565b9055610ba0565b905084610b9a565b6006830161113e815461192b565b9055610b94565b60058401611153815461192b565b9055610b8f565b558780610b88565b5050505060038101611174815461192b565b9055600b8101611184815461192b565b90556000600a820155610ba0565b61119b91611947565b60098701558880610b4c565b346101545760406003193601126101545760ff6111c2611426565b16600052600660205260406000206024356000526020526020604060002054604051908152f35b34610154576000600319360112610154576020600754604051908152f35b346101545760208060031936011261015457600435600052600290818152604060002091825461123681611ef7565b9161124460405193846116ca565b81835260009485528385208484019591865b84841061130057604080518881528751818a018190528a928201908a60005b8281106112825784840385f35b855180518552808301518584015260408082015190860152606080820151908601526080808201519086015260a0808201519086015260c0808201519086015260e080820151908601526101008082015190860152610120808201519086015261014090810151908501529481019461016090930192600101611275565b600b8760019260405161131281611658565b8654815284870154838201528587015460408201526003870154606082015260048701546080820152600587015460a0820152600687015460c0820152600787015460e082015260088701546101008201526009870154610120820152600a870154610140820152815201930193019291611256565b3461015457602060031936011261015457600435907fffffffff00000000000000000000000000000000000000000000000000000000821680920361015457817f7965db0b00000000000000000000000000000000000000000000000000000000602093149081156113fc575b5015158152f35b7f01ffc9a700000000000000000000000000000000000000000000000000000000915014836113f5565b6004359060ff8216820361015457565b6024359060ff8216820361015457565b6003196040910112610154576004359060243573ffffffffffffffffffffffffffffffffffffffff811681036101545790565b919082519283825260005b8481106114c35750507fffffffffffffffffffffffffffffffffffffffffffffffffffffffffffffffe0601f8460006020809697860101520116010190565b602081830181015184830182015201611484565b6003196040910112610154576004359060243590565b80548210156115055760005260206000200190600090565b7f4e487b7100000000000000000000000000000000000000000000000000000000600052603260045260246000fd5b80548210156115055760005260206000209060021b0190600090565b90600182811c92168015611599575b602083101461156a57565b7f4e487b7100000000000000000000000000000000000000000000000000000000600052602260045260246000fd5b91607f169161155f565b90600092918054916115b483611550565b91828252600193848116908160001461161657506001146115d6575b50505050565b90919394506000526020928360002092846000945b8386106116025750505050010190388080806115d0565b8054858701830152940193859082016115eb565b91505060209495507fffffffffffffffffffffffffffffffffffffffffffffffffffffffffffffff009193501683830152151560051b010190388080806115d0565b610160810190811067ffffffffffffffff82111761041357604052565b6080810190811067ffffffffffffffff82111761041357604052565b610200810190811067ffffffffffffffff82111761041357604052565b6040810190811067ffffffffffffffff82111761041357604052565b90601f7fffffffffffffffffffffffffffffffffffffffffffffffffffffffffffffffe0910116810190811067ffffffffffffffff82111761041357604052565b805482101561150557600052600b602060002091020190600090565b3360009081527fb1ac342c5dc0467d8d4c0f1a20a519fb4987a5277efab1f73a21e4b3b5256e4e60205260409020547ff996da754c790e95d5c7ca3330cfcad529487fe9d1d8edb7afc65076fdf9adb49060ff16156117835750565b604490604051907fe2517d3f0000000000000000000000000000000000000000000000000000000082523360048301526024820152fd5b80600052600060205260406000203360005260205260ff60406000205416156117835750565b906000918083528260205273ffffffffffffffffffffffffffffffffffffffff6040842092169182845260205260ff604084205416156000146118855780835282602052604083208284526020526040832060017fffffffffffffffffffffffffffffffffffffffffffffffffffffffffffffff008254161790557f2f8788117e7eff1d82e926ec794901d17c78024a50270940304540a733656f0d339380a4600190565b505090565b906000918083528260205273ffffffffffffffffffffffffffffffffffffffff6040842092169182845260205260ff604084205416600014611885578083528260205260408320828452602052604083207fffffffffffffffffffffffffffffffffffffffffffffffffffffffffffffff0081541690557ff6391f5c32d9c69d2a47ea670b442974b53935d1edc7fd64eb21e047a839171b339380a4600190565b60001981146110775760010190565b9190820180921161107757565b8115611951570490565b7f4e487b7100000000000000000000000000000000000000000000000000000000600052601260045260246000fd5b9060405161198d81611691565b6101e0600f82948054845260018101546020850152600281015460408501526003810154606085015260048101546080850152600581015460a0850152600681015460c0850152600781015460e085015260088101546101008501526009810154610120850152600a810154610140850152600b810154610160850152600c810154610180850152600d8101546101a0850152600e8101546101c08501520154910152565b60208101805115611b13576040820151906127109182810290808204841490151715611077578151611a6391611947565b815190929060009015611b0b5750611a8460a085015160c08601519061193a565b81810291818304149015171561107757611a9f915190611947565b603c820291808304603c14901517156110775760288102908082046028149015171561107757611ad46064916101409361193a565b0491015160328102908082046032149015171561107757600a611af7920461193a565b6103e880821015611b06575090565b905090565b915050611a9f565b50506101f490565b9291909260a05260c052600060e05260a05160e051526003602092818452604060e051209260e051908454915b828110611eae575060405194611b5d86611675565b60c051865286860191825260408601924284526060870194855268010000000000000000811015611d6557611b99906001928382018155611534565b969096611e7c57519081519167ffffffffffffffff92838111611d655780611bc18a54611550565b928b601f94858111611e25575b508c919050600185841114611da15760e05192611d96575b505060001982851b928a1b1c19161788555b81880193518051938411611d6557611c108554611550565b828111611d1c575b5089918411600114611c975760e05191849182611c8a575b505060001991921b92871b1c19161790555b516002840155519101557fe8270e8563bf49ea1ea922410f977b0f0850093bf60ef2af2b11c6d9727814ea60405182815280611c8560a05194820160c051611479565b0390a2565b0151915060001938611c30565b907fffffffffffffffffffffffffffffffffffffffffffffffffffffffffffffffe084939416918560e05152838b60e051209360e0515b8d88838310611d055750505010611ced575b505050811b019055611c42565b015160001960f8848a1b161c19169055388080611ce0565b868601518855909601959485019487935001611cce565b8560e051528a60e051208380870160051c8201928d8810611d5c575b0160051c019084905b828110611d4f575050611c18565b60e0518155018490611d41565b92508192611d38565b7f4e487b710000000000000000000000000000000000000000000000000000000060e051526041600452602460e051fd5b015190503880611be6565b908593508b60e051528c60e05120918d60e0517fffffffffffffffffffffffffffffffffffffffffffffffffffffffffffffffe08616915b828210611e0e5750508411611df6575b505050811b018855611bf8565b015160001960f8848d1b161c19169055388080611de9565b83850151865589979095019493840193018f611dd9565b909192508b60e05152848260e051209181860160051c8301938610611e73575b918791869594930160051c01915b828110611e6357508d9150611bce565b60e0518155859450879101611e53565b92508192611e45565b7f4e487b710000000000000000000000000000000000000000000000000000000060e0515260e051600452602460e051fd5b6106dc611ecb611ebe8389611534565b50604051928380926115a3565b87815191012060c051518860c051012014611eee57611ee99061192b565b611b48565b50505050505050565b67ffffffffffffffff81116104135760051b6020019056fea26469706673582212201cdcb330a5e0c95fcd754f14d61185f6f3cd0fc52767bb308fbdd9ec03be64dd64736f6c634300081400332f8788117e7eff1d82e926ec794901d17c78024a50270940304540a733656f0d",
  "linkReferences": {},
  "deployedLinkReferences": {}
}