{
  "_format": "hh-sol-artifact-1",
  "contractName": "EconomicLaws",
  "sourceName": "contracts/layer3/reality/EconomicLaws.sol",
  "abi": [
    {
      "inputs": [],
      "stateMutability": "nonpayable",
      "type": "constructor"
    },
    {
      "inputs": [
        {
          "internalType": "address",
          "name": "sender",
          "type": "address"
        },
        {
          "internalType": "uint256",
          "name": "tokenId",
          "type": "uint256"
        },
        {
          "internalType": "address",
          "name": "owner",
          "type": "address"
        }
      ],
      "name": "ERC721IncorrectOwner",
      "type": "error"
    },
    {
      "inputs": [
        {
          "internalType": "address",
          "name": "operator",
          "type": "address"
        },
        {
          "internalType": "uint256",
          "name": "tokenId",
          "type": "uint256"
        }
      ],
      "name": "ERC721InsufficientApproval",
      "type": "error"
    },
    {
      "inputs": [
        {
          "internalType": "address",
          "name": "approver",
          "type": "address"
        }
      ],
      "name": "ERC721InvalidApprover",
      "type": "error"
    },
    {
      "inputs": [
        {
          "internalType": "address",
          "name": "operator",
          "type": "address"
        }
      ],
      "name": "ERC721InvalidOperator",
      "type": "error"
    },
    {
      "inputs": [
        {
          "internalType": "address",
          "name": "owner",
          "type": "address"
        }
      ],
      "name": "ERC721InvalidOwner",
      "type": "error"
    },
    {
      "inputs": [
        {
          "internalType": "address",
          "name": "receiver",
          "type": "address"
        }
      ],
      "name": "ERC721InvalidReceiver",
      "type": "error"
    },
    {
      "inputs": [
        {
          "internalType": "address",
          "name": "sender",
          "type": "address"
        }
      ],
      "name": "ERC721InvalidSender",
      "type": "error"
    },
    {
      "inputs": [
        {
          "internalType": "uint256",
          "name": "tokenId",
          "type": "uint256"
        }
      ],
      "name": "ERC721NonexistentToken",
      "type": "error"
    },
    {
      "inputs": [
        {
          "internalType": "address",
          "name": "owner",
          "type": "address"
        }
      ],
      "name": "OwnableInvalidOwner",
      "type": "error"
    },
    {
      "inputs": [
        {
          "internalType": "address",
          "name": "account",
          "type": "address"
        }
      ],
      "name": "OwnableUnauthorizedAccount",
      "type": "error"
    },
    {
      "anonymous": false,
      "inputs": [
        {
          "indexed": true,
          "internalType": "address",
          "name": "owner",
          "type": "address"
        },
        {
          "indexed": true,
          "internalType": "address",
          "name": "approved",
          "type": "address"
        },
        {
          "indexed": true,
          "internalType": "uint256",
          "name": "tokenId",
          "type": "uint256"
        }
      ],
      "name": "Approval",
      "type": "event"
    },
    {
      "anonymous": false,
      "inputs": [
        {
          "indexed": true,
          "internalType": "address",
          "name": "owner",
          "type": "address"
        },
        {
          "indexed": true,
          "internalType": "address",
          "name": "operator",
          "type": "address"
        },
        {
          "indexed": false,
          "internalType": "bool",
          "name": "approved",
          "type": "bool"
        }
      ],
      "name": "ApprovalForAll",
      "type": "event"
    },
    {
      "anonymous": false,
      "inputs": [
        {
          "indexed": true,
          "internalType": "uint256",
          "name": "systemId",
          "type": "uint256"
        },
        {
          "indexed": false,
          "internalType": "string",
          "name": "name",
          "type": "string"
        },
        {
          "indexed": false,
          "internalType": "enum EconomicLaws.EconomyType",
          "name": "economyType",
          "type": "uint8"
        }
      ],
      "name": "EconomicSystemCreated",
      "type": "event"
    },
    {
      "anonymous": false,
      "inputs": [
        {
          "indexed": true,
          "internalType": "address",
          "name": "previousOwner",
          "type": "address"
        },
        {
          "indexed": true,
          "internalType": "address",
          "name": "newOwner",
          "type": "address"
        }
      ],
      "name": "OwnershipTransferred",
      "type": "event"
    },
    {
      "anonymous": false,
      "inputs": [
        {
          "indexed": true,
          "internalType": "uint256",
          "name": "worldId",
          "type": "uint256"
        },
        {
          "indexed": true,
          "internalType": "uint256",
          "name": "systemId",
          "type": "uint256"
        }
      ],
      "name": "SystemAttached",
      "type": "event"
    },
    {
      "anonymous": false,
      "inputs": [
        {
          "indexed": true,
          "internalType": "address",
          "name": "from",
          "type": "address"
        },
        {
          "indexed": true,
          "internalType": "address",
          "name": "to",
          "type": "address"
        },
        {
          "indexed": true,
          "internalType": "uint256",
          "name": "tokenId",
          "type": "uint256"
        }
      ],
      "name": "Transfer",
      "type": "event"
    },
    {
      "inputs": [
        {
          "internalType": "address",
          "name": "to",
          "type": "address"
        },
        {
          "internalType": "uint256",
          "name": "tokenId",
          "type": "uint256"
        }
      ],
      "name": "approve",
      "outputs": [],
      "stateMutability": "nonpayable",
      "type": "function"
    },
    {
      "inputs": [
        {
          "internalType": "uint256",
          "name": "worldId",
          "type": "uint256"
        },
        {
          "internalType": "uint256",
          "name": "systemId",
          "type": "uint256"
        }
      ],
      "name": "attachToWorld",
      "outputs": [],
      "stateMutability": "nonpayable",
      "type": "function"
    },
    {
      "inputs": [
        {
          "internalType": "address",
          "name": "owner",
          "type": "address"
        }
      ],
      "name": "balanceOf",
      "outputs": [
        {
          "internalType": "uint256",
          "name": "",
          "type": "uint256"
        }
      ],
      "stateMutability": "view",
      "type": "function"
    },
    {
      "inputs": [
        {
          "internalType": "string",
          "name": "name",
          "type": "string"
        },
        {
          "internalType": "enum EconomicLaws.EconomyType",
          "name": "economyType",
          "type": "uint8"
        },
        {
          "components": [
            {
              "internalType": "bool",
              "name": "infiniteResources",
              "type": "bool"
            },
            {
              "internalType": "uint256",
              "name": "inflationRate",
              "type": "uint256"
            },
            {
              "internalType": "uint256",
              "name": "taxRate",
              "type": "uint256"
            },
            {
              "internalType": "uint256",
              "name": "tradeFrequency",
              "type": "uint256"
            },
            {
              "internalType": "bool",
              "name": "priceControls",
              "type": "bool"
            },
            {
              "internalType": "bool",
              "name": "resourceDecay",
              "type": "bool"
            },
            {
              "internalType": "uint256",
              "name": "wealthDistribution",
              "type": "uint256"
            }
          ],
          "internalType": "struct EconomicLaws.EconomicRules",
          "name": "rules",
          "type": "tuple"
        }
      ],
      "name": "createEconomicSystem",
      "outputs": [
        {
          "internalType": "uint256",
          "name": "",
          "type": "uint256"
        }
      ],
      "stateMutability": "nonpayable",
      "type": "function"
    },
    {
      "inputs": [
        {
          "internalType": "uint256",
          "name": "",
          "type": "uint256"
        }
      ],
      "name": "economicSystems",
      "outputs": [
        {
          "internalType": "uint256",
          "name": "id",
          "type": "uint256"
        },
        {
          "internalType": "string",
          "name": "name",
          "type": "string"
        },
        {
          "internalType": "enum EconomicLaws.EconomyType",
          "name": "economyType",
          "type": "uint8"
        },
        {
          "internalType": "address",
          "name": "creator",
          "type": "address"
        },
        {
          "internalType": "uint256",
          "name": "createdAt",
          "type": "uint256"
        },
        {
          "internalType": "bool",
          "name": "isActive",
          "type": "bool"
        },
        {
          "internalType": "bytes32",
          "name": "rulesHash",
          "type": "bytes32"
        }
      ],
      "stateMutability": "view",
      "type": "function"
    },
    {
      "inputs": [
        {
          "internalType": "uint256",
          "name": "tokenId",
          "type": "uint256"
        }
      ],
      "name": "getApproved",
      "outputs": [
        {
          "internalType": "address",
          "name": "",
          "type": "address"
        }
      ],
      "stateMutability": "view",
      "type": "function"
    },
    {
      "inputs": [
        {
          "internalType": "uint256",
          "name": "systemId",
          "type": "uint256"
        }
      ],
      "name": "getRules",
      "outputs": [
        {
          "components": [
            {
              "internalType": "bool",
              "name": "infiniteResources",
              "type": "bool"
            },
            {
              "internalType": "uint256",
              "name": "inflationRate",
              "type": "uint256"
            },
            {
              "internalType": "uint256",
              "name": "taxRate",
              "type": "uint256"
            },
            {
              "internalType": "uint256",
              "name": "tradeFrequency",
              "type": "uint256"
            },
            {
              "internalType": "bool",
              "name": "priceControls",
              "type": "bool"
            },
            {
              "internalType": "bool",
              "name": "resourceDecay",
              "type": "bool"
            },
            {
              "internalType": "uint256",
              "name": "wealthDistribution",
              "type": "uint256"
            }
          ],
          "internalType": "struct EconomicLaws.EconomicRules",
          "name": "",
          "type": "tuple"
        }
      ],
      "stateMutability": "view",
      "type": "function"
    },
    {
      "inputs": [
        {
          "internalType": "address",
          "name": "owner",
          "type": "address"
        },
        {
          "internalType": "address",
          "name": "operator",
          "type": "address"
        }
      ],
      "name": "isApprovedForAll",
      "outputs": [
        {
          "internalType": "bool",
          "name": "",
          "type": "bool"
        }
      ],
      "stateMutability": "view",
      "type": "function"
    },
    {
      "inputs": [],
      "name": "name",
      "outputs": [
        {
          "internalType": "string",
          "name": "",
          "type": "string"
        }
      ],
      "stateMutability": "view",
      "type": "function"
    },
    {
      "inputs": [],
      "name": "owner",
      "outputs": [
        {
          "internalType": "address",
          "name": "",
          "type": "address"
        }
      ],
      "stateMutability": "view",
      "type": "function"
    },
    {
      "inputs": [
        {
          "internalType": "uint256",
          "name": "tokenId",
          "type": "uint256"
        }
      ],
      "name": "ownerOf",
      "outputs": [
        {
          "internalType": "address",
          "name": "",
          "type": "address"
        }
      ],
      "stateMutability": "view",
      "type": "function"
    },
    {
      "inputs": [],
      "name": "renounceOwnership",
      "outputs": [],
      "stateMutability": "nonpayable",
      "type": "function"
    },
    {
      "inputs": [
        {
          "internalType": "address",
          "name": "from",
          "type": "address"
        },
        {
          "internalType": "address",
          "name": "to",
          "type": "address"
        },
        {
          "internalType": "uint256",
          "name": "tokenId",
          "type": "uint256"
        }
      ],
      "name": "safeTransferFrom",
      "outputs": [],
      "stateMutability": "nonpayable",
      "type": "function"
    },
    {
      "inputs": [
        {
          "internalType": "address",
          "name": "from",
          "type": "address"
        },
        {
          "internalType": "address",
          "name": "to",
          "type": "address"
        },
        {
          "internalType": "uint256",
          "name": "tokenId",
          "type": "uint256"
        },
        {
          "internalType": "bytes",
          "name": "data",
          "type": "bytes"
        }
      ],
      "name": "safeTransferFrom",
      "outputs": [],
      "stateMutability": "nonpayable",
      "type": "function"
    },
    {
      "inputs": [
        {
          "internalType": "address",
          "name": "operator",
          "type": "address"
        },
        {
          "internalType": "bool",
          "name": "approved",
          "type": "bool"
        }
      ],
      "name": "setApprovalForAll",
      "outputs": [],
      "stateMutability": "nonpayable",
      "type": "function"
    },
    {
      "inputs": [
        {
          "internalType": "bytes4",
          "name": "interfaceId",
          "type": "bytes4"
        }
      ],
      "name": "supportsInterface",
      "outputs": [
        {
          "internalType": "bool",
          "name": "",
          "type": "bool"
        }
      ],
      "stateMutability": "view",
      "type": "function"
    },
    {
      "inputs": [],
      "name": "symbol",
      "outputs": [
        {
          "internalType": "string",
          "name": "",
          "type": "string"
        }
      ],
      "stateMutability": "view",
      "type": "function"
    },
    {
      "inputs": [
        {
          "internalType": "uint256",
          "name": "",
          "type": "uint256"
        }
      ],
      "name": "systemRules",
      "outputs": [
        {
          "internalType": "bool",
          "name": "infiniteResources",
          "type": "bool"
        },
        {
          "internalType": "uint256",
          "name": "inflationRate",
          "type": "uint256"
        },
        {
          "internalType": "uint256",
          "name": "taxRate",
          "type": "uint256"
        },
        {
          "internalType": "uint256",
          "name": "tradeFrequency",
          "type": "uint256"
        },
        {
          "internalType": "bool",
          "name": "priceControls",
          "type": "bool"
        },
        {
          "internalType": "bool",
          "name": "resourceDecay",
          "type": "bool"
        },
        {
          "internalType": "uint256",
          "name": "wealthDistribution",
          "type": "uint256"
        }
      ],
      "stateMutability": "view",
      "type": "function"
    },
    {
      "inputs": [
        {
          "internalType": "uint256",
          "name": "tokenId",
          "type": "uint256"
        }
      ],
      "name": "tokenURI",
      "outputs": [
        {
          "internalType": "string",
          "name": "",
          "type": "string"
        }
      ],
      "stateMutability": "view",
      "type": "function"
    },
    {
      "inputs": [
        {
          "internalType": "address",
          "name": "from",
          "type": "address"
        },
        {
          "internalType": "address",
          "name": "to",
          "type": "address"
        },
        {
          "internalType": "uint256",
          "name": "tokenId",
          "type": "uint256"
        }
      ],
      "name": "transferFrom",
      "outputs": [],
      "stateMutability": "nonpayable",
      "type": "function"
    },
    {
      "inputs": [
        {
          "internalType": "address",
          "name": "newOwner",
          "type": "address"
        }
      ],
      "name": "transferOwnership",
      "outputs": [],
      "stateMutability": "nonpayable",
      "type": "function"
    },
    {
      "inputs": [
        {
          "internalType": "uint256",
          "name": "",
          "type": "uint256"
        },
        {
          "internalType": "uint256",
          "name": "",
          "type": "uint256"
        }
      ],
      "name": "worldEconomics",
      "outputs": [
        {
          "internalType": "uint256",
          "name": "",
          "type": "uint256"
        }
      ],
      "stateMutability": "view",
      "type": "function"
    }
  ],
  "bytecode": "0x60806040523480156200001157600080fd5b50336040518060400160405280601081526020016f4f414e2045636f6e6f6d6963204c617760801b8152506040518060400160405280600581526020016413d053915360da1b81525081600090816200006b9190620001b5565b5060016200007a8282620001b5565b5050506001600160a01b038116620000ac57604051631e4fbdf760e01b81526000600482015260240160405180910390fd5b620000b781620000be565b5062000281565b600680546001600160a01b038381166001600160a01b0319831681179093556040519116919082907f8be0079c531659141344cd1fd0a4f28419497f9722a3daafe3b4186f6b6457e090600090a35050565b634e487b7160e01b600052604160045260246000fd5b600181811c908216806200013b57607f821691505b6020821081036200015c57634e487b7160e01b600052602260045260246000fd5b50919050565b601f821115620001b057600081815260208120601f850160051c810160208610156200018b5750805b601f850160051c820191505b81811015620001ac5782815560010162000197565b5050505b505050565b81516001600160401b03811115620001d157620001d162000110565b620001e981620001e2845462000126565b8462000162565b602080601f831160018114620002215760008415620002085750858301515b600019600386901b1c1916600185901b178555620001ac565b600085815260208120601f198616915b82811015620002525788860151825594840194600190910190840162000231565b5085821015620002715787850151600019600388901b60f8161c191681555b5050505050600190811b01905550565b61199980620002916000396000f3fe608060405234801561001057600080fd5b50600436106101425760003560e01c806380515fca116100b8578063a22cb4651161007c578063a22cb46514610338578063b88d4fde1461034b578063c87b56dd1461035e578063e985e9c514610371578063ea38b44c14610384578063f2fde38b1461039757600080fd5b806380515fca1461024c5780638da5cb5b146102725780638f7daf0f1461028357806395d89b41146102a3578063a0e529fe146102ab57600080fd5b806342842e0e1161010a57806342842e0e146101d7578063633fca92146101ea5780636352211e146101fd5780636edff4211461021057806370a0823114610231578063715018a61461024457600080fd5b806301ffc9a71461014757806306fdde031461016f578063081812fc14610184578063095ea7b3146101af57806323b872dd146101c4575b600080fd5b61015a610155366004611296565b6103aa565b60405190151581526020015b60405180910390f35b6101776103fc565b6040516101669190611303565b610197610192366004611316565b61048e565b6040516001600160a01b039091168152602001610166565b6101c26101bd36600461134b565b6104b7565b005b6101c26101d2366004611375565b6104c6565b6101c26101e5366004611375565b610556565b6101c26101f83660046113b1565b610576565b61019761020b366004611316565b6105eb565b61022361021e366004611498565b6105f6565b604051908152602001610166565b61022361023f36600461157b565b6107fa565b6101c2610842565b61025f61025a366004611316565b610856565b60405161016697969594939291906115ce565b6006546001600160a01b0316610197565b610296610291366004611316565b61092b565b6040516101669190611624565b6101776109e3565b6102fd6102b9366004611316565b60096020526000908152604090208054600182015460028301546003840154600485015460059095015460ff94851695939492939192828116926101009004169087565b604080519715158852602088019690965294860193909352606085019190915215156080840152151560a083015260c082015260e001610166565b6101c2610346366004611678565b6109f2565b6101c26103593660046116ab565b6109fd565b61017761036c366004611316565b610a15565b61015a61037f366004611727565b610a89565b6102236103923660046113b1565b610ab7565b6101c26103a536600461157b565b610ae8565b60006001600160e01b031982166380ac58cd60e01b14806103db57506001600160e01b03198216635b5e139f60e01b145b806103f657506301ffc9a760e01b6001600160e01b03198316145b92915050565b60606000805461040b90611751565b80601f016020809104026020016040519081016040528092919081815260200182805461043790611751565b80156104845780601f1061045957610100808354040283529160200191610484565b820191906000526020600020905b81548152906001019060200180831161046757829003601f168201915b5050505050905090565b600061049982610b26565b506000828152600460205260409020546001600160a01b03166103f6565b6104c2828233610b5f565b5050565b6001600160a01b0382166104f557604051633250574960e11b8152600060048201526024015b60405180910390fd5b6000610502838333610b6c565b9050836001600160a01b0316816001600160a01b031614610550576040516364283d7b60e01b81526001600160a01b03808616600483015260248201849052821660448201526064016104ec565b50505050565b610571838383604051806020016040528060008152506109fd565b505050565b6000818152600260205260409020546001600160a01b0316331461059957600080fd5b6000828152600a60209081526040808320805460018101825590845291832090910183905551829184917fb694d8524bcb62181b8e405ecfe8b372424ad404f3f09fdd752026448b1616169190a35050565b60006103f682610b26565b60078054600091826106078361178b565b90915550506007546106193382610c65565b6040518060e0016040528082815260200186815260200185600581111561064257610642611596565b8152602001336001600160a01b03168152602001428152602001600115158152602001846040516020016106769190611624565b60408051601f19818403018152918152815160209283012090925260008481526008825291909120825181559082015160018201906106b590826117f8565b50604082015160028201805460ff191660018360058111156106d9576106d9611596565b021790555060608281015160028381018054610100600160a81b0319166101006001600160a01b03909416840217905560808086015160038087019190915560a0808801516004808901805460ff1990811693151593909317905560c0998a01516005998a015560008b8152600960209081526040918290208f5181549095169415159490941784558e015160018401558d81015196830196909655968c015192810192909255918a01519481018054928b015161ffff1990931695151561ff00191695909517911515909302179092559286015192909101919091555181907fbefd263037420a866a922d6b0d3380ab7ea825fed25fe168ead03264cd546a9f906107e890889088906118b8565b60405180910390a290505b9392505050565b60006001600160a01b038216610826576040516322718ad960e21b8152600060048201526024016104ec565b506001600160a01b031660009081526003602052604090205490565b61084a610c7f565b6108546000610cac565b565b6008602052600090815260409020805460018201805491929161087890611751565b80601f01602080910402602001604051908101604052809291908181526020018280546108a490611751565b80156108f15780601f106108c6576101008083540402835291602001916108f1565b820191906000526020600020905b8154815290600101906020018083116108d457829003601f168201915b50505050600283015460038401546004850154600590950154939460ff808416956101009094046001600160a01b03169450919291169087565b6109716040518060e00160405280600015158152602001600081526020016000815260200160008152602001600015158152602001600015158152602001600081525090565b50600090815260096020908152604091829020825160e081018452815460ff90811615158252600183015493820193909352600282015493810193909352600381015460608401526004810154808316151560808501526101009004909116151560a08301526005015460c082015290565b60606001805461040b90611751565b6104c2338383610cfe565b610a088484846104c6565b6105503385858585610d9d565b6060610a2082610b26565b506000610a3860408051602081019091526000815290565b90506000815111610a5857604051806020016040528060008152506107f3565b80610a6284610ec8565b604051602001610a739291906118da565b6040516020818303038152906040529392505050565b6001600160a01b03918216600090815260056020908152604080832093909416825291909152205460ff1690565b600a6020528160005260406000208181548110610ad357600080fd5b90600052602060002001600091509150505481565b610af0610c7f565b6001600160a01b038116610b1a57604051631e4fbdf760e01b8152600060048201526024016104ec565b610b2381610cac565b50565b6000818152600260205260408120546001600160a01b0316806103f657604051637e27328960e01b8152600481018490526024016104ec565b6105718383836001610f5b565b6000828152600260205260408120546001600160a01b0390811690831615610b9957610b99818486611061565b6001600160a01b03811615610bd757610bb6600085600080610f5b565b6001600160a01b038116600090815260036020526040902080546000190190555b6001600160a01b03851615610c06576001600160a01b0385166000908152600360205260409020805460010190555b60008481526002602052604080822080546001600160a01b0319166001600160a01b0389811691821790925591518793918516917fddf252ad1be2c89b69c2b068fc378daa952ba7f163c4a11628f55a4df523b3ef91a4949350505050565b6104c28282604051806020016040528060008152506110c5565b6006546001600160a01b031633146108545760405163118cdaa760e01b81523360048201526024016104ec565b600680546001600160a01b038381166001600160a01b0319831681179093556040519116919082907f8be0079c531659141344cd1fd0a4f28419497f9722a3daafe3b4186f6b6457e090600090a35050565b6001600160a01b038216610d3057604051630b61174360e31b81526001600160a01b03831660048201526024016104ec565b6001600160a01b03838116600081815260056020908152604080832094871680845294825291829020805460ff191686151590811790915591519182527f17307eab39ab6107e8899845ad3d59bd9653f200f220920489ca2b5937696c31910160405180910390a3505050565b6001600160a01b0383163b15610ec157604051630a85bd0160e11b81526001600160a01b0384169063150b7a0290610ddf908890889087908790600401611909565b6020604051808303816000875af1925050508015610e1a575060408051601f3d908101601f19168201909252610e1791810190611946565b60015b610e83573d808015610e48576040519150601f19603f3d011682016040523d82523d6000602084013e610e4d565b606091505b508051600003610e7b57604051633250574960e11b81526001600160a01b03851660048201526024016104ec565b805160208201fd5b6001600160e01b03198116630a85bd0160e11b14610ebf57604051633250574960e11b81526001600160a01b03851660048201526024016104ec565b505b5050505050565b60606000610ed5836110dd565b600101905060008167ffffffffffffffff811115610ef557610ef56113d3565b6040519080825280601f01601f191660200182016040528015610f1f576020820181803683370190505b5090508181016020015b600019016f181899199a1a9b1b9c1cb0b131b232b360811b600a86061a8153600a8504945084610f2957509392505050565b8080610f6f57506001600160a01b03821615155b15611031576000610f7f84610b26565b90506001600160a01b03831615801590610fab5750826001600160a01b0316816001600160a01b031614155b8015610fbe5750610fbc8184610a89565b155b15610fe75760405163a9fbf51f60e01b81526001600160a01b03841660048201526024016104ec565b811561102f5783856001600160a01b0316826001600160a01b03167f8c5be1e5ebec7d5bd14f71427d1e84f3dd0314c0f7b2291e5b200ac8c7c3b92560405160405180910390a45b505b5050600090815260046020526040902080546001600160a01b0319166001600160a01b0392909216919091179055565b61106c8383836111b5565b610571576001600160a01b03831661109a57604051637e27328960e01b8152600481018290526024016104ec565b60405163177e802f60e01b81526001600160a01b0383166004820152602481018290526044016104ec565b6110cf838361121b565b610571336000858585610d9d565b60008072184f03e93ff9f4daa797ed6e38ed64bf6a1f0160401b831061111c5772184f03e93ff9f4daa797ed6e38ed64bf6a1f0160401b830492506040015b6d04ee2d6d415b85acef81000000008310611148576d04ee2d6d415b85acef8100000000830492506020015b662386f26fc10000831061116657662386f26fc10000830492506010015b6305f5e100831061117e576305f5e100830492506008015b612710831061119257612710830492506004015b606483106111a4576064830492506002015b600a83106103f65760010192915050565b60006001600160a01b038316158015906112135750826001600160a01b0316846001600160a01b031614806111ef57506111ef8484610a89565b8061121357506000828152600460205260409020546001600160a01b038481169116145b949350505050565b6001600160a01b03821661124557604051633250574960e11b8152600060048201526024016104ec565b600061125383836000610b6c565b90506001600160a01b03811615610571576040516339e3563760e11b8152600060048201526024016104ec565b6001600160e01b031981168114610b2357600080fd5b6000602082840312156112a857600080fd5b81356107f381611280565b60005b838110156112ce5781810151838201526020016112b6565b50506000910152565b600081518084526112ef8160208601602086016112b3565b601f01601f19169290920160200192915050565b6020815260006107f360208301846112d7565b60006020828403121561132857600080fd5b5035919050565b80356001600160a01b038116811461134657600080fd5b919050565b6000806040838503121561135e57600080fd5b6113678361132f565b946020939093013593505050565b60008060006060848603121561138a57600080fd5b6113938461132f565b92506113a16020850161132f565b9150604084013590509250925092565b600080604083850312156113c457600080fd5b50508035926020909101359150565b634e487b7160e01b600052604160045260246000fd5b60405160e0810167ffffffffffffffff8111828210171561140c5761140c6113d3565b60405290565b600067ffffffffffffffff8084111561142d5761142d6113d3565b604051601f8501601f19908116603f01168101908282118183101715611455576114556113d3565b8160405280935085815286868601111561146e57600080fd5b858560208301376000602087830101525050509392505050565b8035801515811461134657600080fd5b60008060008385036101208112156114af57600080fd5b843567ffffffffffffffff8111156114c657600080fd5b8501601f810187136114d757600080fd5b6114e687823560208401611412565b9450506020850135600681106114fb57600080fd5b925060e0603f198201121561150f57600080fd5b506115186113e9565b61152460408601611488565b8152606085013560208201526080850135604082015260a0850135606082015261155060c08601611488565b608082015261156160e08601611488565b60a0820152610100949094013560c0850152509093909250565b60006020828403121561158d57600080fd5b6107f38261132f565b634e487b7160e01b600052602160045260246000fd5b600681106115ca57634e487b7160e01b600052602160045260246000fd5b9052565b87815260e0602082015260006115e760e08301896112d7565b90506115f660408301886115ac565b6001600160a01b03959095166060820152608081019390935290151560a083015260c0909101529392505050565b600060e08201905082511515825260208301516020830152604083015160408301526060830151606083015260808301511515608083015260a0830151151560a083015260c083015160c083015292915050565b6000806040838503121561168b57600080fd5b6116948361132f565b91506116a260208401611488565b90509250929050565b600080600080608085870312156116c157600080fd5b6116ca8561132f565b93506116d86020860161132f565b925060408501359150606085013567ffffffffffffffff8111156116fb57600080fd5b8501601f8101871361170c57600080fd5b61171b87823560208401611412565b91505092959194509250565b6000806040838503121561173a57600080fd5b6117438361132f565b91506116a26020840161132f565b600181811c9082168061176557607f821691505b60208210810361178557634e487b7160e01b600052602260045260246000fd5b50919050565b6000600182016117ab57634e487b7160e01b600052601160045260246000fd5b5060010190565b601f82111561057157600081815260208120601f850160051c810160208610156117d95750805b601f850160051c820191505b81811015610ebf578281556001016117e5565b815167ffffffffffffffff811115611812576118126113d3565b611826816118208454611751565b846117b2565b602080601f83116001811461185b57600084156118435750858301515b600019600386901b1c1916600185901b178555610ebf565b600085815260208120601f198616915b8281101561188a5788860151825594840194600190910190840161186b565b50858210156118a85787850151600019600388901b60f8161c191681555b5050505050600190811b01905550565b6040815260006118cb60408301856112d7565b90506107f360208301846115ac565b600083516118ec8184602088016112b3565b8351908301906119008183602088016112b3565b01949350505050565b6001600160a01b038581168252841660208201526040810183905260806060820181905260009061193c908301846112d7565b9695505050505050565b60006020828403121561195857600080fd5b81516107f38161128056fea26469706673582212208db59104dadf3e4cfb570e49b1b270c84e078f2297269d2f3d7db76eb49503fc64736f6c63430008140033",
  "linkReferences": {},
  "deployedLinkReferences": {}
}