{
  "_format": "hh-sol-artifact-1",
  "contractName": "OANEntity",
  "sourceName": "contracts/core/OANEntity.sol",
  "abi": [
    {
      "inputs": [],
      "stateMutability": "nonpayable",
      "type": "constructor"
    },
    {
      "inputs": [],
      "name": "ERC721EnumerableForbiddenBatchMint",
      "type": "error"
    },
    {
      "inputs": [
        {
          "internalType": "address",
          "name": "sender",
          "type": "address"
        },
        {
          "internalType": "uint256",
          "name": "tokenId",
          "type": "uint256"
        },
        {
          "internalType": "address",
          "name": "owner",
          "type": "address"
        }
      ],
      "name": "ERC721IncorrectOwner",
      "type": "error"
    },
    {
      "inputs": [
        {
          "internalType": "address",
          "name": "operator",
          "type": "address"
        },
        {
          "internalType": "uint256",
          "name": "tokenId",
          "type": "uint256"
        }
      ],
      "name": "ERC721InsufficientApproval",
      "type": "error"
    },
    {
      "inputs": [
        {
          "internalType": "address",
          "name": "approver",
          "type": "address"
        }
      ],
      "name": "ERC721InvalidApprover",
      "type": "error"
    },
    {
      "inputs": [
        {
          "internalType": "address",
          "name": "operator",
          "type": "address"
        }
      ],
      "name": "ERC721InvalidOperator",
      "type": "error"
    },
    {
      "inputs": [
        {
          "internalType": "address",
          "name": "owner",
          "type": "address"
        }
      ],
      "name": "ERC721InvalidOwner",
      "type": "error"
    },
    {
      "inputs": [
        {
          "internalType": "address",
          "name": "receiver",
          "type": "address"
        }
      ],
      "name": "ERC721InvalidReceiver",
      "type": "error"
    },
    {
      "inputs": [
        {
          "internalType": "address",
          "name": "sender",
          "type": "address"
        }
      ],
      "name": "ERC721InvalidSender",
      "type": "error"
    },
    {
      "inputs": [
        {
          "internalType": "uint256",
          "name": "tokenId",
          "type": "uint256"
        }
      ],
      "name": "ERC721NonexistentToken",
      "type": "error"
    },
    {
      "inputs": [
        {
          "internalType": "address",
          "name": "owner",
          "type": "address"
        },
        {
          "internalType": "uint256",
          "name": "index",
          "type": "uint256"
        }
      ],
      "name": "ERC721OutOfBoundsIndex",
      "type": "error"
    },
    {
      "inputs": [
        {
          "internalType": "address",
          "name": "owner",
          "type": "address"
        }
      ],
      "name": "OwnableInvalidOwner",
      "type": "error"
    },
    {
      "inputs": [
        {
          "internalType": "address",
          "name": "account",
          "type": "address"
        }
      ],
      "name": "OwnableUnauthorizedAccount",
      "type": "error"
    },
    {
      "anonymous": false,
      "inputs": [
        {
          "indexed": true,
          "internalType": "address",
          "name": "owner",
          "type": "address"
        },
        {
          "indexed": true,
          "internalType": "address",
          "name": "approved",
          "type": "address"
        },
        {
          "indexed": true,
          "internalType": "uint256",
          "name": "tokenId",
          "type": "uint256"
        }
      ],
      "name": "Approval",
      "type": "event"
    },
    {
      "anonymous": false,
      "inputs": [
        {
          "indexed": true,
          "internalType": "address",
          "name": "owner",
          "type": "address"
        },
        {
          "indexed": true,
          "internalType": "address",
          "name": "operator",
          "type": "address"
        },
        {
          "indexed": false,
          "internalType": "bool",
          "name": "approved",
          "type": "bool"
        }
      ],
      "name": "ApprovalForAll",
      "type": "event"
    },
    {
      "anonymous": false,
      "inputs": [
        {
          "indexed": false,
          "internalType": "uint256",
          "name": "_fromTokenId",
          "type": "uint256"
        },
        {
          "indexed": false,
          "internalType": "uint256",
          "name": "_toTokenId",
          "type": "uint256"
        }
      ],
      "name": "BatchMetadataUpdate",
      "type": "event"
    },
    {
      "anonymous": false,
      "inputs": [
        {
          "indexed": true,
          "internalType": "uint256",
          "name": "tokenId",
          "type": "uint256"
        },
        {
          "indexed": false,
          "internalType": "string",
          "name": "name",
          "type": "string"
        },
        {
          "indexed": false,
          "internalType": "address",
          "name": "owner",
          "type": "address"
        }
      ],
      "name": "EntityMinted",
      "type": "event"
    },
    {
      "anonymous": false,
      "inputs": [
        {
          "indexed": true,
          "internalType": "uint256",
          "name": "parentId",
          "type": "uint256"
        },
        {
          "indexed": true,
          "internalType": "uint256",
          "name": "childId",
          "type": "uint256"
        }
      ],
      "name": "EntitySpawned",
      "type": "event"
    },
    {
      "anonymous": false,
      "inputs": [
        {
          "indexed": false,
          "internalType": "uint256",
          "name": "_tokenId",
          "type": "uint256"
        }
      ],
      "name": "MetadataUpdate",
      "type": "event"
    },
    {
      "anonymous": false,
      "inputs": [
        {
          "indexed": true,
          "internalType": "address",
          "name": "previousOwner",
          "type": "address"
        },
        {
          "indexed": true,
          "internalType": "address",
          "name": "newOwner",
          "type": "address"
        }
      ],
      "name": "OwnershipTransferred",
      "type": "event"
    },
    {
      "anonymous": false,
      "inputs": [
        {
          "indexed": true,
          "internalType": "address",
          "name": "from",
          "type": "address"
        },
        {
          "indexed": true,
          "internalType": "address",
          "name": "to",
          "type": "address"
        },
        {
          "indexed": true,
          "internalType": "uint256",
          "name": "tokenId",
          "type": "uint256"
        }
      ],
      "name": "Transfer",
      "type": "event"
    },
    {
      "inputs": [],
      "name": "SPAWN_COST",
      "outputs": [
        {
          "internalType": "uint256",
          "name": "",
          "type": "uint256"
        }
      ],
      "stateMutability": "view",
      "type": "function"
    },
    {
      "inputs": [
        {
          "internalType": "address",
          "name": "to",
          "type": "address"
        },
        {
          "internalType": "uint256",
          "name": "tokenId",
          "type": "uint256"
        }
      ],
      "name": "approve",
      "outputs": [],
      "stateMutability": "nonpayable",
      "type": "function"
    },
    {
      "inputs": [
        {
          "internalType": "address",
          "name": "owner",
          "type": "address"
        }
      ],
      "name": "balanceOf",
      "outputs": [
        {
          "internalType": "uint256",
          "name": "",
          "type": "uint256"
        }
      ],
      "stateMutability": "view",
      "type": "function"
    },
    {
      "inputs": [
        {
          "internalType": "uint256",
          "name": "",
          "type": "uint256"
        },
        {
          "internalType": "uint256",
          "name": "",
          "type": "uint256"
        }
      ],
      "name": "children",
      "outputs": [
        {
          "internalType": "uint256",
          "name": "",
          "type": "uint256"
        }
      ],
      "stateMutability": "view",
      "type": "function"
    },
    {
      "inputs": [
        {
          "internalType": "uint256",
          "name": "",
          "type": "uint256"
        }
      ],
      "name": "entities",
      "outputs": [
        {
          "internalType": "string",
          "name": "name",
          "type": "string"
        },
        {
          "internalType": "string",
          "name": "entityType",
          "type": "string"
        },
        {
          "internalType": "uint256",
          "name": "energy",
          "type": "uint256"
        },
        {
          "internalType": "int256",
          "name": "reputation",
          "type": "int256"
        },
        {
          "internalType": "uint256",
          "name": "parentTokenId",
          "type": "uint256"
        },
        {
          "internalType": "uint256",
          "name": "generation",
          "type": "uint256"
        },
        {
          "internalType": "uint256",
          "name": "spawnedAt",
          "type": "uint256"
        },
        {
          "internalType": "bytes32",
          "name": "dslHash",
          "type": "bytes32"
        },
        {
          "internalType": "bool",
          "name": "active",
          "type": "bool"
        }
      ],
      "stateMutability": "view",
      "type": "function"
    },
    {
      "inputs": [
        {
          "internalType": "uint256",
          "name": "tokenId",
          "type": "uint256"
        }
      ],
      "name": "getApproved",
      "outputs": [
        {
          "internalType": "address",
          "name": "",
          "type": "address"
        }
      ],
      "stateMutability": "view",
      "type": "function"
    },
    {
      "inputs": [
        {
          "internalType": "uint256",
          "name": "parentTokenId",
          "type": "uint256"
        }
      ],
      "name": "getChildren",
      "outputs": [
        {
          "internalType": "uint256[]",
          "name": "",
          "type": "uint256[]"
        }
      ],
      "stateMutability": "view",
      "type": "function"
    },
    {
      "inputs": [
        {
          "internalType": "uint256",
          "name": "tokenId",
          "type": "uint256"
        }
      ],
      "name": "getEntity",
      "outputs": [
        {
          "components": [
            {
              "internalType": "string",
              "name": "name",
              "type": "string"
            },
            {
              "internalType": "string",
              "name": "entityType",
              "type": "string"
            },
            {
              "internalType": "uint256",
              "name": "energy",
              "type": "uint256"
            },
            {
              "internalType": "int256",
              "name": "reputation",
              "type": "int256"
            },
            {
              "internalType": "uint256",
              "name": "parentTokenId",
              "type": "uint256"
            },
            {
              "internalType": "uint256",
              "name": "generation",
              "type": "uint256"
            },
            {
              "internalType": "uint256",
              "name": "spawnedAt",
              "type": "uint256"
            },
            {
              "internalType": "bytes32",
              "name": "dslHash",
              "type": "bytes32"
            },
            {
              "internalType": "bool",
              "name": "active",
              "type": "bool"
            }
          ],
          "internalType": "struct OANEntity.EntityData",
          "name": "",
          "type": "tuple"
        }
      ],
      "stateMutability": "view",
      "type": "function"
    },
    {
      "inputs": [
        {
          "internalType": "address",
          "name": "owner",
          "type": "address"
        },
        {
          "internalType": "address",
          "name": "operator",
          "type": "address"
        }
      ],
      "name": "isApprovedForAll",
      "outputs": [
        {
          "internalType": "bool",
          "name": "",
          "type": "bool"
        }
      ],
      "stateMutability": "view",
      "type": "function"
    },
    {
      "inputs": [
        {
          "internalType": "address",
          "name": "to",
          "type": "address"
        },
        {
          "internalType": "string",
          "name": "name",
          "type": "string"
        },
        {
          "internalType": "string",
          "name": "entityType",
          "type": "string"
        },
        {
          "internalType": "bytes32",
          "name": "dslHash",
          "type": "bytes32"
        },
        {
          "internalType": "string",
          "name": "metadataURI",
          "type": "string"
        }
      ],
      "name": "mintEntity",
      "outputs": [
        {
          "internalType": "uint256",
          "name": "",
          "type": "uint256"
        }
      ],
      "stateMutability": "nonpayable",
      "type": "function"
    },
    {
      "inputs": [],
      "name": "name",
      "outputs": [
        {
          "internalType": "string",
          "name": "",
          "type": "string"
        }
      ],
      "stateMutability": "view",
      "type": "function"
    },
    {
      "inputs": [],
      "name": "owner",
      "outputs": [
        {
          "internalType": "address",
          "name": "",
          "type": "address"
        }
      ],
      "stateMutability": "view",
      "type": "function"
    },
    {
      "inputs": [
        {
          "internalType": "uint256",
          "name": "tokenId",
          "type": "uint256"
        }
      ],
      "name": "ownerOf",
      "outputs": [
        {
          "internalType": "address",
          "name": "",
          "type": "address"
        }
      ],
      "stateMutability": "view",
      "type": "function"
    },
    {
      "inputs": [],
      "name": "renounceOwnership",
      "outputs": [],
      "stateMutability": "nonpayable",
      "type": "function"
    },
    {
      "inputs": [
        {
          "internalType": "address",
          "name": "from",
          "type": "address"
        },
        {
          "internalType": "address",
          "name": "to",
          "type": "address"
        },
        {
          "internalType": "uint256",
          "name": "tokenId",
          "type": "uint256"
        }
      ],
      "name": "safeTransferFrom",
      "outputs": [],
      "stateMutability": "nonpayable",
      "type": "function"
    },
    {
      "inputs": [
        {
          "internalType": "address",
          "name": "from",
          "type": "address"
        },
        {
          "internalType": "address",
          "name": "to",
          "type": "address"
        },
        {
          "internalType": "uint256",
          "name": "tokenId",
          "type": "uint256"
        },
        {
          "internalType": "bytes",
          "name": "data",
          "type": "bytes"
        }
      ],
      "name": "safeTransferFrom",
      "outputs": [],
      "stateMutability": "nonpayable",
      "type": "function"
    },
    {
      "inputs": [
        {
          "internalType": "address",
          "name": "operator",
          "type": "address"
        },
        {
          "internalType": "bool",
          "name": "approved",
          "type": "bool"
        }
      ],
      "name": "setApprovalForAll",
      "outputs": [],
      "stateMutability": "nonpayable",
      "type": "function"
    },
    {
      "inputs": [
        {
          "internalType": "uint256",
          "name": "parentTokenId",
          "type": "uint256"
        },
        {
          "internalType": "string",
          "name": "childName",
          "type": "string"
        },
        {
          "internalType": "string",
          "name": "childType",
          "type": "string"
        },
        {
          "internalType": "bytes32",
          "name": "childDslHash",
          "type": "bytes32"
        },
        {
          "internalType": "string",
          "name": "metadataURI",
          "type": "string"
        }
      ],
      "name": "spawnChild",
      "outputs": [
        {
          "internalType": "uint256",
          "name": "",
          "type": "uint256"
        }
      ],
      "stateMutability": "nonpayable",
      "type": "function"
    },
    {
      "inputs": [
        {
          "internalType": "bytes4",
          "name": "interfaceId",
          "type": "bytes4"
        }
      ],
      "name": "supportsInterface",
      "outputs": [
        {
          "internalType": "bool",
          "name": "",
          "type": "bool"
        }
      ],
      "stateMutability": "view",
      "type": "function"
    },
    {
      "inputs": [],
      "name": "symbol",
      "outputs": [
        {
          "internalType": "string",
          "name": "",
          "type": "string"
        }
      ],
      "stateMutability": "view",
      "type": "function"
    },
    {
      "inputs": [
        {
          "internalType": "uint256",
          "name": "index",
          "type": "uint256"
        }
      ],
      "name": "tokenByIndex",
      "outputs": [
        {
          "internalType": "uint256",
          "name": "",
          "type": "uint256"
        }
      ],
      "stateMutability": "view",
      "type": "function"
    },
    {
      "inputs": [
        {
          "internalType": "address",
          "name": "owner",
          "type": "address"
        },
        {
          "internalType": "uint256",
          "name": "index",
          "type": "uint256"
        }
      ],
      "name": "tokenOfOwnerByIndex",
      "outputs": [
        {
          "internalType": "uint256",
          "name": "",
          "type": "uint256"
        }
      ],
      "stateMutability": "view",
      "type": "function"
    },
    {
      "inputs": [
        {
          "internalType": "uint256",
          "name": "tokenId",
          "type": "uint256"
        }
      ],
      "name": "tokenURI",
      "outputs": [
        {
          "internalType": "string",
          "name": "",
          "type": "string"
        }
      ],
      "stateMutability": "view",
      "type": "function"
    },
    {
      "inputs": [],
      "name": "totalSupply",
      "outputs": [
        {
          "internalType": "uint256",
          "name": "",
          "type": "uint256"
        }
      ],
      "stateMutability": "view",
      "type": "function"
    },
    {
      "inputs": [
        {
          "internalType": "address",
          "name": "from",
          "type": "address"
        },
        {
          "internalType": "address",
          "name": "to",
          "type": "address"
        },
        {
          "internalType": "uint256",
          "name": "tokenId",
          "type": "uint256"
        }
      ],
      "name": "transferFrom",
      "outputs": [],
      "stateMutability": "nonpayable",
      "type": "function"
    },
    {
      "inputs": [
        {
          "internalType": "address",
          "name": "newOwner",
          "type": "address"
        }
      ],
      "name": "transferOwnership",
      "outputs": [],
      "stateMutability": "nonpayable",
      "type": "function"
    }
  ],
  "bytecode": "0x60806040523480156200001157600080fd5b50336040518060400160405280600a8152602001694f414e20456e7469747960b01b815250604051806040016040528060048152602001634f414e4560e01b8152508160009081620000649190620001ae565b506001620000738282620001ae565b5050506001600160a01b038116620000a557604051631e4fbdf760e01b81526000600482015260240160405180910390fd5b620000b081620000b7565b506200027a565b600b80546001600160a01b038381166001600160a01b0319831681179093556040519116919082907f8be0079c531659141344cd1fd0a4f28419497f9722a3daafe3b4186f6b6457e090600090a35050565b634e487b7160e01b600052604160045260246000fd5b600181811c908216806200013457607f821691505b6020821081036200015557634e487b7160e01b600052602260045260246000fd5b50919050565b601f821115620001a957600081815260208120601f850160051c81016020861015620001845750805b601f850160051c820191505b81811015620001a55782815560010162000190565b5050505b505050565b81516001600160401b03811115620001ca57620001ca62000109565b620001e281620001db84546200011f565b846200015b565b602080601f8311600181146200021a5760008415620002015750858301515b600019600386901b1c1916600185901b178555620001a5565b600085815260208120601f198616915b828110156200024b578886015182559484019460019091019084016200022a565b50858210156200026a5787850151600019600388901b60f8161c191681555b5050505050600190811b01905550565b61231c806200028a6000396000f3fe608060405234801561001057600080fd5b506004361061018e5760003560e01c806370a08231116100de578063b3a2784211610097578063c704c3f111610071578063c704c3f11461037c578063c87b56dd14610384578063e985e9c514610397578063f2fde38b146103aa57600080fd5b8063b3a2784214610336578063b88d4fde14610356578063b9a168791461036957600080fd5b806370a08231146102dc578063715018a6146102ef5780638a460e5b146102f75780638da5cb5b1461030a57806395d89b411461031b578063a22cb4651461032357600080fd5b80632f745c591161014b57806349ae8dc31161012557806349ae8dc31461026e5780634f6ccce71461028e5780636331883b146102a15780636352211e146102c957600080fd5b80632f745c5914610235578063327c1ce71461024857806342842e0e1461025b57600080fd5b806301ffc9a71461019357806306fdde03146101bb578063081812fc146101d0578063095ea7b3146101fb57806318160ddd1461021057806323b872dd14610222575b600080fd5b6101a66101a1366004611b66565b6103bd565b60405190151581526020015b60405180910390f35b6101c36103ce565b6040516101b29190611bd3565b6101e36101de366004611be6565b610460565b6040516001600160a01b0390911681526020016101b2565b61020e610209366004611c1b565b610489565b005b6008545b6040519081526020016101b2565b61020e610230366004611c45565b610498565b610214610243366004611c1b565b610528565b610214610256366004611d2d565b61058d565b61020e610269366004611c45565b6106ce565b61028161027c366004611be6565b6106ee565b6040516101b29190611dd0565b61021461029c366004611be6565b610750565b6102b46102af366004611be6565b6107a9565b6040516101b299989796959493929190611e14565b6101e36102d7366004611be6565b610904565b6102146102ea366004611e77565b61090f565b61020e610957565b610214610305366004611e92565b61096b565b600b546001600160a01b03166101e3565b6101c361099c565b61020e610331366004611eb4565b6109ab565b610349610344366004611be6565b6109b6565b6040516101b29190611ef0565b61020e610364366004611f8c565b610bf5565b610214610377366004612008565b610c0d565b610214601481565b6101c3610392366004611be6565b610eb8565b6101a66103a536600461203f565b610ec3565b61020e6103b8366004611e77565b610ef1565b60006103c882610f2f565b92915050565b6060600080546103dd90612072565b80601f016020809104026020016040519081016040528092919081815260200182805461040990612072565b80156104565780601f1061042b57610100808354040283529160200191610456565b820191906000526020600020905b81548152906001019060200180831161043957829003601f168201915b5050505050905090565b600061046b82610f54565b506000828152600460205260409020546001600160a01b03166103c8565b610494828233610f8d565b5050565b6001600160a01b0382166104c757604051633250574960e11b8152600060048201526024015b60405180910390fd5b60006104d4838333610f9a565b9050836001600160a01b0316816001600160a01b031614610522576040516364283d7b60e01b81526001600160a01b03808616600483015260248201849052821660448201526064016104be565b50505050565b60006105338361090f565b82106105645760405163295f44f760e21b81526001600160a01b0384166004820152602481018390526044016104be565b506001600160a01b03919091166000908152600660209081526040808320938352929052205490565b600c80546000918261059e836120c2565b9091555050600c546105b08782610faf565b6105ba8184610fc9565b6040805161012081018252878152602080820188905260648284015260006060830181905260808301819052600160a084018190524360c085015260e08401899052610100840152848152600d909152919091208151819061061c9082612121565b50602082015160018201906106319082612121565b506040828101516002830155606083015160038301556080830151600483015560a0830151600583015560c0830151600683015560e08301516007830155610100909201516008909101805460ff19169115159190911790555181907f617901933cfdb27797c712206f189671107ebe6eaa6bc009a401f5f10b119fd9906106bc9089908b906121e1565b60405180910390a29695505050505050565b6106e983838360405180602001604052806000815250610bf5565b505050565b6000818152600e602090815260409182902080548351818402810184019094528084526060939283018282801561074457602002820191906000526020600020905b815481526020019060010190808311610730575b50505050509050919050565b600061075b60085490565b82106107845760405163295f44f760e21b815260006004820152602481018390526044016104be565b600882815481106107975761079761220b565b90600052602060002001549050919050565b600d602052600090815260409020805481906107c490612072565b80601f01602080910402602001604051908101604052809291908181526020018280546107f090612072565b801561083d5780601f106108125761010080835404028352916020019161083d565b820191906000526020600020905b81548152906001019060200180831161082057829003601f168201915b50505050509080600101805461085290612072565b80601f016020809104026020016040519081016040528092919081815260200182805461087e90612072565b80156108cb5780601f106108a0576101008083540402835291602001916108cb565b820191906000526020600020905b8154815290600101906020018083116108ae57829003601f168201915b50505050600283015460038401546004850154600586015460068701546007880154600890980154969794969395509193909260ff1689565b60006103c882610f54565b60006001600160a01b03821661093b576040516322718ad960e21b8152600060048201526024016104be565b506001600160a01b031660009081526003602052604090205490565b61095f611019565b6109696000611046565b565b600e602052816000526040600020818154811061098757600080fd5b90600052602060002001600091509150505481565b6060600180546103dd90612072565b610494338383611098565b610a0a60405180610120016040528060608152602001606081526020016000815260200160008152602001600081526020016000815260200160008152602001600080191681526020016000151581525090565b6000828152600260205260409020546001600160a01b0316610a665760405162461bcd60e51b8152602060048201526015602482015274115b9d1a5d1e48191bd95cc81b9bdd08195e1a5cdd605a1b60448201526064016104be565b6000828152600d60205260409081902081516101208101909252805482908290610a8f90612072565b80601f0160208091040260200160405190810160405280929190818152602001828054610abb90612072565b8015610b085780601f10610add57610100808354040283529160200191610b08565b820191906000526020600020905b815481529060010190602001808311610aeb57829003601f168201915b50505050508152602001600182018054610b2190612072565b80601f0160208091040260200160405190810160405280929190818152602001828054610b4d90612072565b8015610b9a5780601f10610b6f57610100808354040283529160200191610b9a565b820191906000526020600020905b815481529060010190602001808311610b7d57829003601f168201915b505050918352505060028201546020820152600382015460408201526004820154606082015260058201546080820152600682015460a0820152600782015460c082015260089091015460ff16151560e09091015292915050565b610c00848484610498565b6105223385858585611137565b6000858152600260205260408120546001600160a01b0316610c695760405162461bcd60e51b815260206004820152601560248201527414185c995b9d08191bd95cc81b9bdd08195e1a5cdd605a1b60448201526064016104be565b33610c7387610904565b6001600160a01b031614610cbc5760405162461bcd60e51b815260206004820152601060248201526f2737ba103830b932b73a1037bbb732b960811b60448201526064016104be565b6000868152600d602052604090206002015460141115610d145760405162461bcd60e51b8152602060048201526013602482015272496e73756666696369656e7420656e6572677960681b60448201526064016104be565b600c8054906000610d24836120c2565b9091555050600c54610d363382610faf565b610d408184610fc9565b6040518061012001604052808781526020018681526020016032815260200160008152602001888152602001600d60008a8152602001908152602001600020600501546001610d8f9190612221565b815243602080830191909152604080830188905260016060909301929092526000848152600d9091522081518190610dc79082612121565b5060208201516001820190610ddc9082612121565b50604082810151600283810191909155606084015160038401556080840151600484015560a0840151600584015560c0840151600684015560e08401516007840155610100909301516008909201805460ff1916921515929092179091556000898152600d602052908120909101805460149290610e5b908490612234565b90915550506000878152600e60209081526040808320805460018101825590845291832090910183905551829189917f1d9a41dad0b3826381ae542ac997a34f27324984f63090967ea98f3a905c61809190a39695505050505050565b60606103c882611262565b6001600160a01b03918216600090815260056020908152604080832093909416825291909152205460ff1690565b610ef9611019565b6001600160a01b038116610f2357604051631e4fbdf760e01b8152600060048201526024016104be565b610f2c81611046565b50565b60006001600160e01b03198216632483248360e11b14806103c857506103c88261136b565b6000818152600260205260408120546001600160a01b0316806103c857604051637e27328960e01b8152600481018490526024016104be565b6106e98383836001611390565b6000610fa7848484611496565b949350505050565b610494828260405180602001604052806000815250611563565b6000828152600a60205260409020610fe18282612121565b506040518281527ff8e1a15aba9398e019f0b49df1a4fde98ee17ae345cb5f6b5e2c27f5033e8ce79060200160405180910390a15050565b600b546001600160a01b031633146109695760405163118cdaa760e01b81523360048201526024016104be565b600b80546001600160a01b038381166001600160a01b0319831681179093556040519116919082907f8be0079c531659141344cd1fd0a4f28419497f9722a3daafe3b4186f6b6457e090600090a35050565b6001600160a01b0382166110ca57604051630b61174360e31b81526001600160a01b03831660048201526024016104be565b6001600160a01b03838116600081815260056020908152604080832094871680845294825291829020805460ff191686151590811790915591519182527f17307eab39ab6107e8899845ad3d59bd9653f200f220920489ca2b5937696c31910160405180910390a3505050565b6001600160a01b0383163b1561125b57604051630a85bd0160e11b81526001600160a01b0384169063150b7a0290611179908890889087908790600401612247565b6020604051808303816000875af19250505080156111b4575060408051601f3d908101601f191682019092526111b191810190612284565b60015b61121d573d8080156111e2576040519150601f19603f3d011682016040523d82523d6000602084013e6111e7565b606091505b50805160000361121557604051633250574960e11b81526001600160a01b03851660048201526024016104be565b805160208201fd5b6001600160e01b03198116630a85bd0160e11b1461125957604051633250574960e11b81526001600160a01b03851660048201526024016104be565b505b5050505050565b606061126d82610f54565b506000828152600a60205260408120805461128790612072565b80601f01602080910402602001604051908101604052809291908181526020018280546112b390612072565b80156113005780601f106112d557610100808354040283529160200191611300565b820191906000526020600020905b8154815290600101906020018083116112e357829003601f168201915b50505050509050600061131e60408051602081019091526000815290565b90508051600003611330575092915050565b81511561136257808260405160200161134a9291906122a1565b60405160208183030381529060405292505050919050565b610fa78461157b565b60006001600160e01b0319821663780e9d6360e01b14806103c857506103c8826115f0565b80806113a457506001600160a01b03821615155b156114665760006113b484610f54565b90506001600160a01b038316158015906113e05750826001600160a01b0316816001600160a01b031614155b80156113f357506113f18184610ec3565b155b1561141c5760405163a9fbf51f60e01b81526001600160a01b03841660048201526024016104be565b81156114645783856001600160a01b0316826001600160a01b03167f8c5be1e5ebec7d5bd14f71427d1e84f3dd0314c0f7b2291e5b200ac8c7c3b92560405160405180910390a45b505b5050600090815260046020526040902080546001600160a01b0319166001600160a01b0392909216919091179055565b6000806114a4858585611640565b90506001600160a01b038116611501576114fc84600880546000838152600960205260408120829055600182018355919091527ff3f7a9fe364faab93b216da50a3214154f22a0a2b415b23a84c8169e8b636ee30155565b611524565b846001600160a01b0316816001600160a01b031614611524576115248185611739565b6001600160a01b0385166115405761153b846117ba565b610fa7565b846001600160a01b0316816001600160a01b031614610fa757610fa78585611869565b61156d83836118b9565b6106e9336000858585611137565b606061158682610f54565b50600061159e60408051602081019091526000815290565b905060008151116115be57604051806020016040528060008152506115e9565b806115c88461191e565b6040516020016115d99291906122a1565b6040516020818303038152906040525b9392505050565b60006001600160e01b031982166380ac58cd60e01b148061162157506001600160e01b03198216635b5e139f60e01b145b806103c857506301ffc9a760e01b6001600160e01b03198316146103c8565b6000828152600260205260408120546001600160a01b039081169083161561166d5761166d8184866119b1565b6001600160a01b038116156116ab5761168a600085600080611390565b6001600160a01b038116600090815260036020526040902080546000190190555b6001600160a01b038516156116da576001600160a01b0385166000908152600360205260409020805460010190555b60008481526002602052604080822080546001600160a01b0319166001600160a01b0389811691821790925591518793918516917fddf252ad1be2c89b69c2b068fc378daa952ba7f163c4a11628f55a4df523b3ef91a4949350505050565b60006117448361090f565b6000838152600760209081526040808320546001600160a01b038816845260069092529091209192509081831461179b57600083815260208281526040808320548584528184208190558352600790915290208290555b6000938452600760209081526040808620869055938552525081205550565b6008546000906117cc90600190612234565b600083815260096020526040812054600880549394509092849081106117f4576117f461220b565b9060005260206000200154905080600883815481106118155761181561220b565b600091825260208083209091019290925582815260099091526040808220849055858252812055600880548061184d5761184d6122d0565b6001900381819060005260206000200160009055905550505050565b600060016118768461090f565b6118809190612234565b6001600160a01b039093166000908152600660209081526040808320868452825280832085905593825260079052919091209190915550565b6001600160a01b0382166118e357604051633250574960e11b8152600060048201526024016104be565b60006118f183836000610f9a565b90506001600160a01b038116156106e9576040516339e3563760e11b8152600060048201526024016104be565b6060600061192b83611a15565b600101905060008167ffffffffffffffff81111561194b5761194b611c81565b6040519080825280601f01601f191660200182016040528015611975576020820181803683370190505b5090508181016020015b600019016f181899199a1a9b1b9c1cb0b131b232b360811b600a86061a8153600a850494508461197f57509392505050565b6119bc838383611aed565b6106e9576001600160a01b0383166119ea57604051637e27328960e01b8152600481018290526024016104be565b60405163177e802f60e01b81526001600160a01b0383166004820152602481018290526044016104be565b60008072184f03e93ff9f4daa797ed6e38ed64bf6a1f0160401b8310611a545772184f03e93ff9f4daa797ed6e38ed64bf6a1f0160401b830492506040015b6d04ee2d6d415b85acef81000000008310611a80576d04ee2d6d415b85acef8100000000830492506020015b662386f26fc100008310611a9e57662386f26fc10000830492506010015b6305f5e1008310611ab6576305f5e100830492506008015b6127108310611aca57612710830492506004015b60648310611adc576064830492506002015b600a83106103c85760010192915050565b60006001600160a01b03831615801590610fa75750826001600160a01b0316846001600160a01b03161480611b275750611b278484610ec3565b80610fa75750506000908152600460205260409020546001600160a01b03908116911614919050565b6001600160e01b031981168114610f2c57600080fd5b600060208284031215611b7857600080fd5b81356115e981611b50565b60005b83811015611b9e578181015183820152602001611b86565b50506000910152565b60008151808452611bbf816020860160208601611b83565b601f01601f19169290920160200192915050565b6020815260006115e96020830184611ba7565b600060208284031215611bf857600080fd5b5035919050565b80356001600160a01b0381168114611c1657600080fd5b919050565b60008060408385031215611c2e57600080fd5b611c3783611bff565b946020939093013593505050565b600080600060608486031215611c5a57600080fd5b611c6384611bff565b9250611c7160208501611bff565b9150604084013590509250925092565b634e487b7160e01b600052604160045260246000fd5b600067ffffffffffffffff80841115611cb257611cb2611c81565b604051601f8501601f19908116603f01168101908282118183101715611cda57611cda611c81565b81604052809350858152868686011115611cf357600080fd5b858560208301376000602087830101525050509392505050565b600082601f830112611d1e57600080fd5b6115e983833560208501611c97565b600080600080600060a08688031215611d4557600080fd5b611d4e86611bff565b9450602086013567ffffffffffffffff80821115611d6b57600080fd5b611d7789838a01611d0d565b95506040880135915080821115611d8d57600080fd5b611d9989838a01611d0d565b9450606088013593506080880135915080821115611db657600080fd5b50611dc388828901611d0d565b9150509295509295909350565b6020808252825182820181905260009190848201906040850190845b81811015611e0857835183529284019291840191600101611dec565b50909695505050505050565b6000610120808352611e288184018d611ba7565b90508281036020840152611e3c818c611ba7565b604084019a909a5250506060810196909652608086019490945260a085019290925260c084015260e083015215156101009091015292915050565b600060208284031215611e8957600080fd5b6115e982611bff565b60008060408385031215611ea557600080fd5b50508035926020909101359150565b60008060408385031215611ec757600080fd5b611ed083611bff565b915060208301358015158114611ee557600080fd5b809150509250929050565b6020815260008251610120806020850152611f0f610140850183611ba7565b91506020850151601f19858403016040860152611f2c8382611ba7565b9250506040850151606085015260608501516080850152608085015160a085015260a085015160c085015260c085015160e085015260e0850151610100818187015280870151915050611f828286018215159052565b5090949350505050565b60008060008060808587031215611fa257600080fd5b611fab85611bff565b9350611fb960208601611bff565b925060408501359150606085013567ffffffffffffffff811115611fdc57600080fd5b8501601f81018713611fed57600080fd5b611ffc87823560208401611c97565b91505092959194509250565b600080600080600060a0868803121561202057600080fd5b85359450602086013567ffffffffffffffff80821115611d6b57600080fd5b6000806040838503121561205257600080fd5b61205b83611bff565b915061206960208401611bff565b90509250929050565b600181811c9082168061208657607f821691505b6020821081036120a657634e487b7160e01b600052602260045260246000fd5b50919050565b634e487b7160e01b600052601160045260246000fd5b6000600182016120d4576120d46120ac565b5060010190565b601f8211156106e957600081815260208120601f850160051c810160208610156121025750805b601f850160051c820191505b818110156112595782815560010161210e565b815167ffffffffffffffff81111561213b5761213b611c81565b61214f816121498454612072565b846120db565b602080601f831160018114612184576000841561216c5750858301515b600019600386901b1c1916600185901b178555611259565b600085815260208120601f198616915b828110156121b357888601518255948401946001909101908401612194565b50858210156121d15787850151600019600388901b60f8161c191681555b5050505050600190811b01905550565b6040815260006121f46040830185611ba7565b905060018060a01b03831660208301529392505050565b634e487b7160e01b600052603260045260246000fd5b808201808211156103c8576103c86120ac565b818103818111156103c8576103c86120ac565b6001600160a01b038581168252841660208201526040810183905260806060820181905260009061227a90830184611ba7565b9695505050505050565b60006020828403121561229657600080fd5b81516115e981611b50565b600083516122b3818460208801611b83565b8351908301906122c7818360208801611b83565b01949350505050565b634e487b7160e01b600052603160045260246000fdfea26469706673582212209e3a75fc09e079819416c9d2885c2213c2d48b54e22ea849de17d99738d6279a64736f6c63430008140033",
  "linkReferences": {},
  "deployedLinkReferences": {}
}