{
  "_format": "hh-sol-artifact-1",
  "contractName": "OANEntity",
  "sourceName": "contracts/core/OANEntity.sol",
  "abi": [
    {
      "inputs": [],
      "stateMutability": "nonpayable",
      "type": "constructor"
    },
    {
      "inputs": [],
      "name": "ERC721EnumerableForbiddenBatchMint",
      "type": "error"
    },
    {
      "inputs": [
        {
          "internalType": "address",
          "name": "sender",
          "type": "address"
        },
        {
          "internalType": "uint256",
          "name": "tokenId",
          "type": "uint256"
        },
        {
          "internalType": "address",
          "name": "owner",
          "type": "address"
        }
      ],
      "name": "ERC721IncorrectOwner",
      "type": "error"
    },
    {
      "inputs": [
        {
          "internalType": "address",
          "name": "operator",
          "type": "address"
        },
        {
          "internalType": "uint256",
          "name": "tokenId",
          "type": "uint256"
        }
      ],
      "name": "ERC721InsufficientApproval",
      "type": "error"
    },
    {
      "inputs": [
        {
          "internalType": "address",
          "name": "approver",
          "type": "address"
        }
      ],
      "name": "ERC721InvalidApprover",
      "type": "error"
    },
    {
      "inputs": [
        {
          "internalType": "address",
          "name": "operator",
          "type": "address"
        }
      ],
      "name": "ERC721InvalidOperator",
      "type": "error"
    },
    {
      "inputs": [
        {
          "internalType": "address",
          "name": "owner",
          "type": "address"
        }
      ],
      "name": "ERC721InvalidOwner",
      "type": "error"
    },
    {
      "inputs": [
        {
          "internalType": "address",
          "name": "receiver",
          "type": "address"
        }
      ],
      "name": "ERC721InvalidReceiver",
      "type": "error"
    },
    {
      "inputs": [
        {
          "internalType": "address",
          "name": "sender",
          "type": "address"
        }
      ],
      "name": "ERC721InvalidSender",
      "type": "error"
    },
    {
      "inputs": [
        {
          "internalType": "uint256",
          "name": "tokenId",
          "type": "uint256"
        }
      ],
      "name": "ERC721NonexistentToken",
      "type": "error"
    },
    {
      "inputs": [
        {
          "internalType": "address",
          "name": "owner",
          "type": "address"
        },
        {
          "internalType": "uint256",
          "name": "index",
          "type": "uint256"
        }
      ],
      "name": "ERC721OutOfBoundsIndex",
      "type": "error"
    },
    {
      "inputs": [
        {
          "internalType": "address",
          "name": "owner",
          "type": "address"
        }
      ],
      "name": "OwnableInvalidOwner",
      "type": "error"
    },
    {
      "inputs": [
        {
          "internalType": "address",
          "name": "account",
          "type": "address"
        }
      ],
      "name": "OwnableUnauthorizedAccount",
      "type": "error"
    },
    {
      "anonymous": false,
      "inputs": [
        {
          "indexed": true,
          "internalType": "address",
          "name": "owner",
          "type": "address"
        },
        {
          "indexed": true,
          "internalType": "address",
          "name": "approved",
          "type": "address"
        },
        {
          "indexed": true,
          "internalType": "uint256",
          "name": "tokenId",
          "type": "uint256"
        }
      ],
      "name": "Approval",
      "type": "event"
    },
    {
      "anonymous": false,
      "inputs": [
        {
          "indexed": true,
          "internalType": "address",
          "name": "owner",
          "type": "address"
        },
        {
          "indexed": true,
          "internalType": "address",
          "name": "operator",
          "type": "address"
        },
        {
          "indexed": false,
          "internalType": "bool",
          "name": "approved",
          "type": "bool"
        }
      ],
      "name": "ApprovalForAll",
      "type": "event"
    },
    {
      "anonymous": false,
      "inputs": [
        {
          "indexed": false,
          "internalType": "uint256",
          "name": "_fromTokenId",
          "type": "uint256"
        },
        {
          "indexed": false,
          "internalType": "uint256",
          "name": "_toTokenId",
          "type": "uint256"
        }
      ],
      "name": "BatchMetadataUpdate",
      "type": "event"
    },
    {
      "anonymous": false,
      "inputs": [
        {
          "indexed": true,
          "internalType": "uint256",
          "name": "tokenId",
          "type": "uint256"
        },
        {
          "indexed": false,
          "internalType": "string",
          "name": "name",
          "type": "string"
        },
        {
          "indexed": false,
          "internalType": "address",
          "name": "owner",
          "type": "address"
        }
      ],
      "name": "EntityMinted",
      "type": "event"
    },
    {
      "anonymous": false,
      "inputs": [
        {
          "indexed": true,
          "internalType": "uint256",
          "name": "parentId",
          "type": "uint256"
        },
        {
          "indexed": true,
          "internalType": "uint256",
          "name": "childId",
          "type": "uint256"
        }
      ],
      "name": "EntitySpawned",
      "type": "event"
    },
    {
      "anonymous": false,
      "inputs": [
        {
          "indexed": false,
          "internalType": "uint256",
          "name": "_tokenId",
          "type": "uint256"
        }
      ],
      "name": "MetadataUpdate",
      "type": "event"
    },
    {
      "anonymous": false,
      "inputs": [
        {
          "indexed": true,
          "internalType": "address",
          "name": "previousOwner",
          "type": "address"
        },
        {
          "indexed": true,
          "internalType": "address",
          "name": "newOwner",
          "type": "address"
        }
      ],
      "name": "OwnershipTransferred",
      "type": "event"
    },
    {
      "anonymous": false,
      "inputs": [
        {
          "indexed": true,
          "internalType": "address",
          "name": "from",
          "type": "address"
        },
        {
          "indexed": true,
          "internalType": "address",
          "name": "to",
          "type": "address"
        },
        {
          "indexed": true,
          "internalType": "uint256",
          "name": "tokenId",
          "type": "uint256"
        }
      ],
      "name": "Transfer",
      "type": "event"
    },
    {
      "inputs": [],
      "name": "SPAWN_COST",
      "outputs": [
        {
          "internalType": "uint256",
          "name": "",
          "type": "uint256"
        }
      ],
      "stateMutability": "view",
      "type": "function"
    },
    {
      "inputs": [
        {
          "internalType": "address",
          "name": "to",
          "type": "address"
        },
        {
          "internalType": "uint256",
          "name": "tokenId",
          "type": "uint256"
        }
      ],
      "name": "approve",
      "outputs": [],
      "stateMutability": "nonpayable",
      "type": "function"
    },
    {
      "inputs": [
        {
          "internalType": "address",
          "name": "owner",
          "type": "address"
        }
      ],
      "name": "balanceOf",
      "outputs": [
        {
          "internalType": "uint256",
          "name": "",
          "type": "uint256"
        }
      ],
      "stateMutability": "view",
      "type": "function"
    },
    {
      "inputs": [
        {
          "internalType": "uint256",
          "name": "",
          "type": "uint256"
        },
        {
          "internalType": "uint256",
          "name": "",
          "type": "uint256"
        }
      ],
      "name": "children",
      "outputs": [
        {
          "internalType": "uint256",
          "name": "",
          "type": "uint256"
        }
      ],
      "stateMutability": "view",
      "type": "function"
    },
    {
      "inputs": [
        {
          "internalType": "uint256",
          "name": "",
          "type": "uint256"
        }
      ],
      "name": "entities",
      "outputs": [
        {
          "internalType": "string",
          "name": "name",
          "type": "string"
        },
        {
          "internalType": "string",
          "name": "entityType",
          "type": "string"
        },
        {
          "internalType": "uint256",
          "name": "energy",
          "type": "uint256"
        },
        {
          "internalType": "int256",
          "name": "reputation",
          "type": "int256"
        },
        {
          "internalType": "uint256",
          "name": "parentTokenId",
          "type": "uint256"
        },
        {
          "internalType": "uint256",
          "name": "generation",
          "type": "uint256"
        },
        {
          "internalType": "uint256",
          "name": "spawnedAt",
          "type": "uint256"
        },
        {
          "internalType": "bytes32",
          "name": "dslHash",
          "type": "bytes32"
        },
        {
          "internalType": "bool",
          "name": "active",
          "type": "bool"
        }
      ],
      "stateMutability": "view",
      "type": "function"
    },
    {
      "inputs": [
        {
          "internalType": "uint256",
          "name": "tokenId",
          "type": "uint256"
        }
      ],
      "name": "getApproved",
      "outputs": [
        {
          "internalType": "address",
          "name": "",
          "type": "address"
        }
      ],
      "stateMutability": "view",
      "type": "function"
    },
    {
      "inputs": [
        {
          "internalType": "uint256",
          "name": "parentTokenId",
          "type": "uint256"
        }
      ],
      "name": "getChildren",
      "outputs": [
        {
          "internalType": "uint256[]",
          "name": "",
          "type": "uint256[]"
        }
      ],
      "stateMutability": "view",
      "type": "function"
    },
    {
      "inputs": [
        {
          "internalType": "uint256",
          "name": "tokenId",
          "type": "uint256"
        }
      ],
      "name": "getEntity",
      "outputs": [
        {
          "components": [
            {
              "internalType": "string",
              "name": "name",
              "type": "string"
            },
            {
              "internalType": "string",
              "name": "entityType",
              "type": "string"
            },
            {
              "internalType": "uint256",
              "name": "energy",
              "type": "uint256"
            },
            {
              "internalType": "int256",
              "name": "reputation",
              "type": "int256"
            },
            {
              "internalType": "uint256",
              "name": "parentTokenId",
              "type": "uint256"
            },
            {
              "internalType": "uint256",
              "name": "generation",
              "type": "uint256"
            },
            {
              "internalType": "uint256",
              "name": "spawnedAt",
              "type": "uint256"
            },
            {
              "internalType": "bytes32",
              "name": "dslHash",
              "type": "bytes32"
            },
            {
              "internalType": "bool",
              "name": "active",
              "type": "bool"
            }
          ],
          "internalType": "struct OANEntity.EntityData",
          "name": "",
          "type": "tuple"
        }
      ],
      "stateMutability": "view",
      "type": "function"
    },
    {
      "inputs": [
        {
          "internalType": "address",
          "name": "owner",
          "type": "address"
        },
        {
          "internalType": "address",
          "name": "operator",
          "type": "address"
        }
      ],
      "name": "isApprovedForAll",
      "outputs": [
        {
          "internalType": "bool",
          "name": "",
          "type": "bool"
        }
      ],
      "stateMutability": "view",
      "type": "function"
    },
    {
      "inputs": [
        {
          "internalType": "address",
          "name": "to",
          "type": "address"
        },
        {
          "internalType": "string",
          "name": "name",
          "type": "string"
        },
        {
          "internalType": "string",
          "name": "entityType",
          "type": "string"
        },
        {
          "internalType": "bytes32",
          "name": "dslHash",
          "type": "bytes32"
        },
        {
          "internalType": "string",
          "name": "metadataURI",
          "type": "string"
        }
      ],
      "name": "mintEntity",
      "outputs": [
        {
          "internalType": "uint256",
          "name": "",
          "type": "uint256"
        }
      ],
      "stateMutability": "nonpayable",
      "type": "function"
    },
    {
      "inputs": [],
      "name": "name",
      "outputs": [
        {
          "internalType": "string",
          "name": "",
          "type": "string"
        }
      ],
      "stateMutability": "view",
      "type": "function"
    },
    {
      "inputs": [],
      "name": "owner",
      "outputs": [
        {
          "internalType": "address",
          "name": "",
          "type": "address"
        }
      ],
      "stateMutability": "view",
      "type": "function"
    },
    {
      "inputs": [
        {
          "internalType": "uint256",
          "name": "tokenId",
          "type": "uint256"
        }
      ],
      "name": "ownerOf",
      "outputs": [
        {
          "internalType": "address",
          "name": "",
          "type": "address"
        }
      ],
      "stateMutability": "view",
      "type": "function"
    },
    {
      "inputs": [],
      "name": "renounceOwnership",
      "outputs": [],
      "stateMutability": "nonpayable",
      "type": "function"
    },
    {
      "inputs": [
        {
          "internalType": "address",
          "name": "from",
          "type": "address"
        },
        {
          "internalType": "address",
          "name": "to",
          "type": "address"
        },
        {
          "internalType": "uint256",
          "name": "tokenId",
          "type": "uint256"
        }
      ],
      "name": "safeTransferFrom",
      "outputs": [],
      "stateMutability": "nonpayable",
      "type": "function"
    },
    {
      "inputs": [
        {
          "internalType": "address",
          "name": "from",
          "type": "address"
        },
        {
          "internalType": "address",
          "name": "to",
          "type": "address"
        },
        {
          "internalType": "uint256",
          "name": "tokenId",
          "type": "uint256"
        },
        {
          "internalType": "bytes",
          "name": "data",
          "type": "bytes"
        }
      ],
      "name": "safeTransferFrom",
      "outputs": [],
      "stateMutability": "nonpayable",
      "type": "function"
    },
    {
      "inputs": [
        {
          "internalType": "address",
          "name": "operator",
          "type": "address"
        },
        {
          "internalType": "bool",
          "name": "approved",
          "type": "bool"
        }
      ],
      "name": "setApprovalForAll",
      "outputs": [],
      "stateMutability": "nonpayable",
      "type": "function"
    },
    {
      "inputs": [
        {
          "internalType": "uint256",
          "name": "parentTokenId",
          "type": "uint256"
        },
        {
          "internalType": "string",
          "name": "childName",
          "type": "string"
        },
        {
          "internalType": "string",
          "name": "childType",
          "type": "string"
        },
        {
          "internalType": "bytes32",
          "name": "childDslHash",
          "type": "bytes32"
        },
        {
          "internalType": "string",
          "name": "metadataURI",
          "type": "string"
        }
      ],
      "name": "spawnChild",
      "outputs": [
        {
          "internalType": "uint256",
          "name": "",
          "type": "uint256"
        }
      ],
      "stateMutability": "nonpayable",
      "type": "function"
    },
    {
      "inputs": [
        {
          "internalType": "bytes4",
          "name": "interfaceId",
          "type": "bytes4"
        }
      ],
      "name": "supportsInterface",
      "outputs": [
        {
          "internalType": "bool",
          "name": "",
          "type": "bool"
        }
      ],
      "stateMutability": "view",
      "type": "function"
    },
    {
      "inputs": [],
      "name": "symbol",
      "outputs": [
        {
          "internalType": "string",
          "name": "",
          "type": "string"
        }
      ],
      "stateMutability": "view",
      "type": "function"
    },
    {
      "inputs": [
        {
          "internalType": "uint256",
          "name": "index",
          "type": "uint256"
        }
      ],
      "name": "tokenByIndex",
      "outputs": [
        {
          "internalType": "uint256",
          "name": "",
          "type": "uint256"
        }
      ],
      "stateMutability": "view",
      "type": "function"
    },
    {
      "inputs": [
        {
          "internalType": "address",
          "name": "owner",
          "type": "address"
        },
        {
          "internalType": "uint256",
          "name": "index",
          "type": "uint256"
        }
      ],
      "name": "tokenOfOwnerByIndex",
      "outputs": [
        {
          "internalType": "uint256",
          "name": "",
          "type": "uint256"
        }
      ],
      "stateMutability": "view",
      "type": "function"
    },
    {
      "inputs": [
        {
          "internalType": "uint256",
          "name": "tokenId",
          "type": "uint256"
        }
      ],
      "name": "tokenURI",
      "outputs": [
        {
          "internalType": "string",
          "name": "",
          "type": "string"
        }
      ],
      "stateMutability": "view",
      "type": "function"
    },
    {
      "inputs": [],
      "name": "totalSupply",
      "outputs": [
        {
          "internalType": "uint256",
          "name": "",
          "type": "uint256"
        }
      ],
      "stateMutability": "view",
      "type": "function"
    },
    {
      "inputs": [
        {
          "internalType": "address",
          "name": "from",
          "type": "address"
        },
        {
          "internalType": "address",
          "name": "to",
          "type": "address"
        },
        {
          "internalType": "uint256",
          "name": "tokenId",
          "type": "uint256"
        }
      ],
      "name": "transferFrom",
      "outputs": [],
      "stateMutability": "nonpayable",
      "type": "function"
    },
    {
      "inputs": [
        {
          "internalType": "address",
          "name": "newOwner",
          "type": "address"
        }
      ],
      "name": "transferOwnership",
      "outputs": [],
      "stateMutability": "nonpayable",
      "type": "function"
    }
  ],
  "bytecode": "0x608034620003995760406001600160401b038282018181118482101762000383578252600a8352602092694f414e20456e7469747960b01b848201528251918383018381108282111762000383578452600492838152634f414e4560e01b868201528251908282116200036e576000968754926001958685811c9516801562000363575b8386101462000350578190601f95868111620002fd575b50839086831160011462000299578b926200028d575b5050600019600383901b1c191690861b1788555b81519384116200027a5784548581811c911680156200026f575b828210146200025c57908184869594931162000205575b50809284116001146200019d5750879262000191575b5050600019600383901b1c191690821b1790555b33156200017c5750600b8054336001600160a01b03198216811790925591519290916001600160a01b0316907f8be0079c531659141344cd1fd0a4f28419497f9722a3daafe3b4186f6b6457e09080a36128a990816200039f8239f35b826024925191631e4fbdf760e01b8352820152fd5b0151905038806200010b565b9190859450601f198416858a52838a20938a905b828210620001eb5750508411620001d1575b505050811b0190556200011f565b015160001960f88460031b161c19169055388080620001c3565b8484015186558897909501949384019390810190620001b1565b90919293508589528189208480870160051c82019284881062000252575b9187968992969594930160051c01915b82811062000243575050620000f5565b8b815587965088910162000233565b9250819262000223565b634e487b7160e01b895260228752602489fd5b90607f1690620000de565b634e487b7160e01b885260418652602488fd5b015190503880620000b0565b8b8052848c208994509190601f1984168d5b87828210620002e65750508411620002cc575b505050811b018855620000c4565b015160001960f88460031b161c19169055388080620002be565b8385015186558c97909501949384019301620002ab565b9091508a8052838b208680850160051c82019286861062000346575b918a91869594930160051c01915b828110620003375750506200009a565b8d81558594508a910162000327565b9250819262000319565b634e487b7160e01b8a526022885260248afd5b94607f169462000083565b604185634e487b7160e01b6000525260246000fd5b634e487b7160e01b600052604160045260246000fd5b600080fdfe608080604052600436101561001357600080fd5b60003560e01c90816301ffc9a71461181a5750806306fdde0314611777578063081812fc1461172b578063095ea7b3146115eb57806318160ddd146115cd57806323b872dd146115b65780632f745c59146114fe578063327c1ce7146110c157806342842e0e1461109357806349ae8dc314610fed5780634f6ccce714610f8c5780636331883b14610ed85780636352211e14610e9c57806370a0823114610e71578063715018a614610df15780638a460e5b14610daa5780638da5cb5b14610d7657806395d89b4114610c79578063a22cb46514610b87578063b3a27842146109a6578063b88d4fde14610938578063b9a16879146102e3578063c704c3f1146102c7578063c87b56dd1461026a578063e985e9c5146102065763f2fde38b1461013d57600080fd5b346102015760206003193601126102015761015661198f565b61015e611c7a565b73ffffffffffffffffffffffffffffffffffffffff8091169081156101d057600b54827fffffffffffffffffffffffff0000000000000000000000000000000000000000821617600b55167f8be0079c531659141344cd1fd0a4f28419497f9722a3daafe3b4186f6b6457e0600080a3005b60246040517f1e4fbdf700000000000000000000000000000000000000000000000000000000815260006004820152fd5b600080fd5b346102015760406003193601126102015761021f61198f565b6102276119b2565b9073ffffffffffffffffffffffffffffffffffffffff809116600052600560205260406000209116600052602052602060ff604060002054166040519015158152f35b346102015760206003193601126102015760043561028781612066565b50600052600a6020526102c36102a06040600020611b37565b60006040516102ae81611a34565b5260405191829160208352602083019061194f565b0390f35b3461020157600060031936011261020157602060405160148152f35b346102015760a06003193601126102015760243567ffffffffffffffff811161020157610314903690600401611ac6565b60443567ffffffffffffffff811161020157610334903690600401611ac6565b9060843567ffffffffffffffff811161020157610355903690600401611ac6565b91600435600052600260205273ffffffffffffffffffffffffffffffffffffffff8060406000205416156108da5761038e600435612066565b3391160361087c57600435600052600d60205260146002604060002001541061081e576103d46103bf600c5461229c565b9384600c556103ce85336122ab565b846126bd565b600435600052600d602052600560406000200154906001820180921161066c576040519261040184611a17565b835260208301526032604083015260006060830152600435608083015260a08201524360c082015260643560e0820152600161010082015281600052600d602052604060002091815192835167ffffffffffffffff811161063d576104668254611ae4565b601f81116107da575b506020601f8211600114610771578192939495600092610766575b50506000198260011b9260031b1c19161781555b602083015192835167ffffffffffffffff811161063d576104c26001840154611ae4565b601f811161071f575b506020601f82116001146106a657918161010092600894610578979860009261069b575b50506000198260011b9260031b1c19161760018501555b60408101516002850155606081015160038501556080810151600485015560a0810151600585015560c0810151600685015560e081015160078501550151151591019060ff7fffffffffffffffffffffffffffffffffffffffffffffffffffffffffffffff0083541691151516179055565b600435600052600d60205260026040600020018054907fffffffffffffffffffffffffffffffffffffffffffffffffffffffffffffffec820191821161066c5755600435600052600e6020526040600020908154916801000000000000000083101561063d57816105f48461060c936001602097018155611c62565b90919060001983549160031b92831b921b1916179055565b60405190806004357f1d9a41dad0b3826381ae542ac997a34f27324984f63090967ea98f3a905c6180600080a38152f35b7f4e487b7100000000000000000000000000000000000000000000000000000000600052604160045260246000fd5b7f4e487b7100000000000000000000000000000000000000000000000000000000600052601160045260246000fd5b0151905088806104ef565b6001840160005260206000209560005b601f198416811061070757508261057896976008959360019383601f196101009816106106ee575b505050811b016001850155610506565b015160001960f88460031b161c191690558880806106de565b828201518855600190970196602092830192016106b6565b600184016000526020600020601f830160051c81016020841061075f575b601f830160051c820181106107535750506104cb565b6000815560010161073d565b508061073d565b01519050858061048a565b8260005260206000209060005b601f19841681106107c2575060019394959683601f198116106107a9575b505050811b01815561049e565b015160001960f88460031b161c1916905585808061079c565b9091602060018192858b01518155019301910161077e565b826000526020600020601f830160051c810160208410610817575b601f830160051c8201811061080b57505061046f565b600081556001016107f5565b50806107f5565b60646040517f08c379a000000000000000000000000000000000000000000000000000000000815260206004820152601360248201527f496e73756666696369656e7420656e65726779000000000000000000000000006044820152fd5b60646040517f08c379a000000000000000000000000000000000000000000000000000000000815260206004820152601060248201527f4e6f7420706172656e74206f776e6572000000000000000000000000000000006044820152fd5b60646040517f08c379a000000000000000000000000000000000000000000000000000000000815260206004820152601560248201527f506172656e7420646f6573206e6f7420657869737400000000000000000000006044820152fd5b346102015760806003193601126102015761095161198f565b6109596119b2565b906044356064359267ffffffffffffffff84116102015736602385011215610201576109926109a4943690602481600401359101611a8f565b9261099e838383611d29565b336120c7565b005b3461020157602080600319360112610201576040516004356109c782611a17565b60608252606083830152600060408301526000606083015260006080830152600060a0830152600060c0830152600060e0830152600061010080930152806000526002835273ffffffffffffffffffffffffffffffffffffffff6040600020541615610b29579161014092600052600d815260406000209060405192610a4c84611a17565b610a5583611b37565b8452610a6360018401611b37565b90828501918252846002850154946040820195865260038101546060830190815260048201546080840190815260058301549160a08501928352610afa60ff600860068701549660c0890197885260e06007820154990198895201541697878c019815158952610ae7604051809e819e8d83525191610120809e820152019061194f565b90518c8203601f190160408e015261194f565b985160608b01525160808a01525160a08901525160c08801525160e08701525190850152511515908301520390f35b606483604051907f08c379a00000000000000000000000000000000000000000000000000000000082526004820152601560248201527f456e7469747920646f6573206e6f7420657869737400000000000000000000006044820152fd5b3461020157604060031936011261020157610ba061198f565b60243590811515908183036102015773ffffffffffffffffffffffffffffffffffffffff16918215610c4857610c1a9033600052600560205260406000208460005260205260406000209060ff7fffffffffffffffffffffffffffffffffffffffffffffffffffffffffffffff0083541691151516179055565b6040519081527f17307eab39ab6107e8899845ad3d59bd9653f200f220920489ca2b5937696c3160203392a3005b602483604051907f5b08ba180000000000000000000000000000000000000000000000000000000082526004820152fd5b346102015760006003193601126102015760405160006001805490610c9d82611ae4565b80855291818116908115610d315750600114610cd8575b6102c384610cc481860382611a50565b60405191829160208352602083019061194f565b600081815292507fb10e2d527612073b26eecdfd717e6a320cf44b4afac2b0732d9fcbe2b7fa0cf65b828410610d19575050508101602001610cc482610cb4565b80546020858701810191909152909301928101610d01565b7fffffffffffffffffffffffffffffffffffffffffffffffffffffffffffffff001660208087019190915292151560051b85019092019250610cc49150839050610cb4565b3461020157600060031936011261020157602073ffffffffffffffffffffffffffffffffffffffff600b5416604051908152f35b3461020157604060031936011261020157602435600435600052600e6020526040600020805482101561020157602091610de391611c62565b90546040519160031b1c8152f35b3461020157600060031936011261020157610e0a611c7a565b600073ffffffffffffffffffffffffffffffffffffffff600b547fffffffffffffffffffffffff00000000000000000000000000000000000000008116600b55167f8be0079c531659141344cd1fd0a4f28419497f9722a3daafe3b4186f6b6457e08280a3005b34610201576020600319360112610201576020610e94610e8f61198f565b611ccb565b604051908152f35b34610201576020600319360112610201576020610eba600435612066565b73ffffffffffffffffffffffffffffffffffffffff60405191168152f35b3461020157602060031936011261020157600435600052600d602052610f536040600020610f0581611b37565b90610f1260018201611b37565b60028201549160038101546004820154600583015490600684015492610f6160ff6008600788015497015416966040519a8b9a610120808d528c019061194f565b908a820360208c015261194f565b9660408901526060880152608087015260a086015260c085015260e084015215156101008301520390f35b3461020157602060031936011261020157600435600854811015610fb557610de3602091611bfc565b604490604051907fa57d13dc000000000000000000000000000000000000000000000000000000008252600060048301526024820152fd5b346102015760208060031936011261020157600435600052600e8152604060002060405190818382549182815201908192600052846000209060005b8682821061107f57868661103f82880383611a50565b604051928392818401908285525180915260408401929160005b82811061106857505050500390f35b835185528695509381019392810192600101611059565b835485529093019260019283019201611029565b34610201576109a46110a4366119d5565b90604051926110b284611a34565b6000845261099e838383611d29565b346102015760a0600319360112610201576110da61198f565b60243567ffffffffffffffff8111610201576110fa903690600401611ac6565b9060443567ffffffffffffffff81116102015761111b903690600401611ac6565b9060843567ffffffffffffffff81116102015761113c903690600401611ac6565b9161115a61114b600c5461229c565b9384600c556103ce85856122ab565b6040519061116782611a17565b8482526020820152606460408201526000606082015260006080820152600160a08201524360c082015260643560e0820152600161010082015282600052600d602052604060002090805180519067ffffffffffffffff821161063d5781906111d08554611ae4565b601f81116114ae575b50602090601f831160011461144257600092611437575b50506000198260011b9260031b1c19161782555b602081015180519067ffffffffffffffff821161063d576112286001850154611ae4565b601f81116113f0575b509160209693918695938890601f83116001146113505761010061133496948461130b957f617901933cfdb27797c712206f189671107ebe6eaa6bc009a401f5f10b119fd99a98956008956000926113455750506000198260011b9260031b1c191617600185015560408101516002850155606081015160038501556080810151600485015560a0810151600585015560c0810151600685015560e081015160078501550151151591019060ff7fffffffffffffffffffffffffffffffffffffffffffffffffffffffffffffff0083541691151516179055565b73ffffffffffffffffffffffffffffffffffffffff60405193849360408552604085019061194f565b9116878301520390a2604051908152f35b015190508e806104ef565b9060018501600052896000209160005b601f19851681106113d6575061133496946001857f617901933cfdb27797c712206f189671107ebe6eaa6bc009a401f5f10b119fd99a98956008956101009583601f1961130b9b16106113bd57505050811b016001850155610506565b015160001960f88460031b161c191690558e80806106de565b8183015184558a9950600190930192918b01918b01611360565b600185016000526020600020601f840160051c810160208510611430575b601f830160051c82018110611424575050611231565b6000815560010161140e565b508061140e565b0151905087806111f0565b9250846000526020600020906000935b601f1984168510611493576001945083601f1981161061147a575b505050811b018255611204565b015160001960f88460031b161c1916905587808061146d565b81810151835560209485019460019093019290910190611452565b909150846000526020600020601f840160051c8101602085106114f7575b90849392915b601f830160051c820181106114e85750506111d9565b600081558594506001016114d2565b50806114cc565b346102015760406003193601126102015761151761198f565b6024359061152481611ccb565b8210156115655773ffffffffffffffffffffffffffffffffffffffff1660005260066020526040600020906000526020526020604060002054604051908152f35b6040517fa57d13dc00000000000000000000000000000000000000000000000000000000815273ffffffffffffffffffffffffffffffffffffffff9190911660048201526024810191909152604490fd5b34610201576109a46115c7366119d5565b91611d29565b34610201576000600319360112610201576020600854604051908152f35b346102015760406003193601126102015761160461198f565b60243561161081612066565b3315158061170b575b806116d0575b6116a057819073ffffffffffffffffffffffffffffffffffffffff809416938491167f8c5be1e5ebec7d5bd14f71427d1e84f3dd0314c0f7b2291e5b200ac8c7c3b925600080a460005260046020526040600020907fffffffffffffffffffffffff0000000000000000000000000000000000000000825416179055600080f35b60246040517fa9fbf51f000000000000000000000000000000000000000000000000000000008152336004820152fd5b5073ffffffffffffffffffffffffffffffffffffffff8116600052600560205260406000203360005260205260ff604060002054161561161f565b503373ffffffffffffffffffffffffffffffffffffffff82161415611619565b346102015760206003193601126102015760043561174881612066565b506000526004602052602073ffffffffffffffffffffffffffffffffffffffff60406000205416604051908152f35b34610201576000600319360112610201576040516000805461179881611ae4565b80845290600190818116908115610d3157506001146117c1576102c384610cc481860382611a50565b600080805292507f290decd9548b62a8d60345a988386fc84ba6bc95484008f6362f93160ef3e5635b828410611802575050508101602001610cc482610cb4565b805460208587018101919091529093019281016117ea565b3461020157602060031936011261020157600435907fffffffff00000000000000000000000000000000000000000000000000000000821680920361020157817f49064906000000000000000000000000000000000000000000000000000000006020931490811561188e575b5015158152f35b7f780e9d63000000000000000000000000000000000000000000000000000000008114915081156118c1575b5083611887565b7f80ac58cd00000000000000000000000000000000000000000000000000000000811491508115611925575b81156118fb575b50836118ba565b7f01ffc9a700000000000000000000000000000000000000000000000000000000915014836118f4565b7f5b5e139f00000000000000000000000000000000000000000000000000000000811491506118ed565b919082519283825260005b84811061197b575050601f19601f8460006020809697860101520116010190565b60208183018101518483018201520161195a565b6004359073ffffffffffffffffffffffffffffffffffffffff8216820361020157565b6024359073ffffffffffffffffffffffffffffffffffffffff8216820361020157565b60031960609101126102015773ffffffffffffffffffffffffffffffffffffffff90600435828116810361020157916024359081168103610201579060443590565b610120810190811067ffffffffffffffff82111761063d57604052565b6020810190811067ffffffffffffffff82111761063d57604052565b90601f601f19910116810190811067ffffffffffffffff82111761063d57604052565b67ffffffffffffffff811161063d57601f01601f191660200190565b929192611a9b82611a73565b91611aa96040519384611a50565b829481845281830111610201578281602093846000960137010152565b9080601f8301121561020157816020611ae193359101611a8f565b90565b90600182811c92168015611b2d575b6020831014611afe57565b7f4e487b7100000000000000000000000000000000000000000000000000000000600052602260045260246000fd5b91607f1691611af3565b9060405191826000825492611b4b84611ae4565b908184526001948581169081600014611bba5750600114611b77575b5050611b7592500383611a50565b565b9093915060005260209081600020936000915b818310611ba2575050611b7593508201013880611b67565b85548884018501529485019487945091830191611b8a565b9050611b759550602093507fffffffffffffffffffffffffffffffffffffffffffffffffffffffffffffff0091501682840152151560051b8201013880611b67565b600854811015611c335760086000527ff3f7a9fe364faab93b216da50a3214154f22a0a2b415b23a84c8169e8b636ee30190600090565b7f4e487b7100000000000000000000000000000000000000000000000000000000600052603260045260246000fd5b8054821015611c335760005260206000200190600090565b73ffffffffffffffffffffffffffffffffffffffff600b54163303611c9b57565b60246040517f118cdaa7000000000000000000000000000000000000000000000000000000008152336004820152fd5b73ffffffffffffffffffffffffffffffffffffffff168015611cf857600052600360205260406000205490565b60246040517f89c62b6400000000000000000000000000000000000000000000000000000000815260006004820152fd5b9173ffffffffffffffffffffffffffffffffffffffff80831693841561203557600094838652602095600287526040968488832054169633151580611f75575b5087158015611f25575b848452600383528984206001815401905587845260028352898420857fffffffffffffffffffffffff000000000000000000000000000000000000000082541617905587858a7fddf252ad1be2c89b69c2b068fc378daa952ba7f163c4a11628f55a4df523b3ef8780a415611eb9576008548784526009835289842055611df98761284b565b838803611e4e575b505050501692838303611e145750505050565b6064945051927f64283d7b000000000000000000000000000000000000000000000000000000008452600484015260248301526044820152fd5b611e5790611ccb565b926000198401938411611e8c5782916007918a9452600681528383208584528152878484205587835252205538808080611e01565b6024837f4e487b710000000000000000000000000000000000000000000000000000000081526011600452fd5b878414611df957611ec988611ccb565b878452600783528984205490898552600684528a852091818103611f03575b5088855260078452848b812055845282528289812055611df9565b8186528285528b862054818752808d8820558652600785528b86205538611ee8565b611f5e88600052600460205260406000207fffffffffffffffffffffffff00000000000000000000000000000000000000008154169055565b888452600383528984206000198154019055611d73565b80611ff4575b15611f865738611d69565b888789611fbc5760249151907f7e2732890000000000000000000000000000000000000000000000000000000082526004820152fd5b90517f177e802f0000000000000000000000000000000000000000000000000000000081523360048201526024810191909152604490fd5b503388148015612019575b80611f7b57508683526004825233868a8520541614611f7b565b5087835260058252888320338452825260ff8984205416611fff565b60246040517f64a0ae9200000000000000000000000000000000000000000000000000000000815260006004820152fd5b80600052600260205273ffffffffffffffffffffffffffffffffffffffff60406000205416908115612096575090565b602490604051907f7e2732890000000000000000000000000000000000000000000000000000000082526004820152fd5b90939192833b6120d9575b5050505050565b73ffffffffffffffffffffffffffffffffffffffff95929394958095169460405196817f150b7a020000000000000000000000000000000000000000000000000000000094858a521660048901521660248701526044860152608060648601528461214a602094608483019061194f565b039483816000978189895af1869181612240575b506121d7575050503d6000146121ce573d61217881611a73565b906121866040519283611a50565b81528093823d92013e5b825192836121c957602483604051907f64a0ae920000000000000000000000000000000000000000000000000000000082526004820152fd5b019050fd5b60609250612190565b9092507fffffffff00000000000000000000000000000000000000000000000000000000919450160361220f575038808080806120d2565b602490604051907f64a0ae920000000000000000000000000000000000000000000000000000000082526004820152fd5b9091508481813d8311612295575b6122588183611a50565b8101031261229157517fffffffff000000000000000000000000000000000000000000000000000000008116810361229157903861215e565b8680fd5b503d61224e565b600019811461066c5760010190565b604080516122b881611a34565b60009384825273ffffffffffffffffffffffffffffffffffffffff9182851694851561268d57828752868660209560028752878320541680158683837fddf252ad1be2c89b69c2b068fc378daa952ba7f163c4a11628f55a4df523b3ef8415978861263d575b83815260038d528d81206001815401905584815260028d528d8120847fffffffffffffffffffffffff000000000000000000000000000000000000000082541617905580a4156125d057600854868b5260098852888b205561237f8661284b565b0361256a575b61253a573b612397575b505050505050565b826123ee9185969798949551809381927f150b7a0200000000000000000000000000000000000000000000000000000000968784523360048501528c6024850152604484015260806064840152608483019061194f565b03818a8a5af18791816124de575b50612474575050503d60001461246b573d61241681611a73565b9061242384519283611a50565b81528094823d92013e5b83519384612465576024848451907f64a0ae920000000000000000000000000000000000000000000000000000000082526004820152fd5b84925001fd5b6060935061242d565b9092507fffffffff0000000000000000000000000000000000000000000000000000000091955016036124ae57505038808080808061238f565b6024925051907f64a0ae920000000000000000000000000000000000000000000000000000000082526004820152fd5b9091508481813d8311612533575b6124f68183611a50565b8101031261252f57517fffffffff000000000000000000000000000000000000000000000000000000008116810361252f5790386123fc565b8780fd5b503d6124ec565b6024878651907f73c6ac6e0000000000000000000000000000000000000000000000000000000082526004820152fd5b61257382611ccb565b60001981019081116125a35787895260068652868920818a52865284878a20558489526007865286892055612385565b6024897f4e487b710000000000000000000000000000000000000000000000000000000081526011600452fd5b80821461237f576125e081611ccb565b868b5260078852888b205490828c5260068952898c209181810361261a575b50878c52600789528b8a8120558b528752898881205561237f565b818d52828a528a8d2054818e528b8e208190558d5260078a528a8d2055386125ff565b61267685600052600460205260406000207fffffffffffffffffffffffff00000000000000000000000000000000000000008154169055565b82815260038d528d8120600019815401905561231e565b6024878651907f64a0ae920000000000000000000000000000000000000000000000000000000082526004820152fd5b919091600090808252602091600a8352604081209085519067ffffffffffffffff821161281e576126ee8354611ae4565b601f81116127db575b508490601f831160011461275757907ff8e1a15aba9398e019f0b49df1a4fde98ee17ae345cb5f6b5e2c27f5033e8ce796978361274c575b50506000198260011b9260031b1c19161790555b604051908152a1565b01519050388061272f565b9196601f198816848452868420935b8181106127c457509160019391897ff8e1a15aba9398e019f0b49df1a4fde98ee17ae345cb5f6b5e2c27f5033e8ce7999a94106127ab575b505050811b019055612743565b015160001960f88460031b161c1916905538808061279e565b929387600181928786015181550195019301612766565b838252858220601f840160051c810191878510612814575b601f0160051c01905b81811061280957506126f7565b8281556001016127fc565b90915081906127f3565b807f4e487b7100000000000000000000000000000000000000000000000000000000602492526041600452fd5b600854906801000000000000000082101561063d576105f4826001611b759401600855611bfc56fea264697066735822122041d87be1da0a6c5fc749ccad44dcdbe72c922934f962e4ca7f971722c5b3a59d64736f6c63430008140033",
  "linkReferences": {},
  "deployedLinkReferences": {}
}