{
  "_format": "hh-sol-artifact-1",
  "contractName": "SocialInfluence",
  "sourceName": "contracts/layer3/psychology/SocialInfluence.sol",
  "abi": [
    {
      "inputs": [],
      "stateMutability": "nonpayable",
      "type": "constructor"
    },
    {
      "inputs": [
        {
          "internalType": "address",
          "name": "owner",
          "type": "address"
        }
      ],
      "name": "OwnableInvalidOwner",
      "type": "error"
    },
    {
      "inputs": [
        {
          "internalType": "address",
          "name": "account",
          "type": "address"
        }
      ],
      "name": "OwnableUnauthorizedAccount",
      "type": "error"
    },
    {
      "anonymous": false,
      "inputs": [
        {
          "indexed": true,
          "internalType": "uint256",
          "name": "sourceId",
          "type": "uint256"
        },
        {
          "indexed": true,
          "internalType": "uint256",
          "name": "targetId",
          "type": "uint256"
        },
        {
          "indexed": false,
          "internalType": "uint256",
          "name": "strength",
          "type": "uint256"
        }
      ],
      "name": "InfluenceRecorded",
      "type": "event"
    },
    {
      "anonymous": false,
      "inputs": [
        {
          "indexed": true,
          "internalType": "uint256",
          "name": "entityId",
          "type": "uint256"
        },
        {
          "indexed": false,
          "internalType": "string",
          "name": "topic",
          "type": "string"
        },
        {
          "indexed": false,
          "internalType": "int256",
          "name": "oldStance",
          "type": "int256"
        },
        {
          "indexed": false,
          "internalType": "int256",
          "name": "newStance",
          "type": "int256"
        }
      ],
      "name": "OpinionChanged",
      "type": "event"
    },
    {
      "anonymous": false,
      "inputs": [
        {
          "indexed": true,
          "internalType": "uint256",
          "name": "sourceId",
          "type": "uint256"
        },
        {
          "indexed": false,
          "internalType": "string",
          "name": "topic",
          "type": "string"
        },
        {
          "indexed": false,
          "internalType": "uint256",
          "name": "affectedCount",
          "type": "uint256"
        }
      ],
      "name": "OpinionPropagated",
      "type": "event"
    },
    {
      "anonymous": false,
      "inputs": [
        {
          "indexed": true,
          "internalType": "address",
          "name": "previousOwner",
          "type": "address"
        },
        {
          "indexed": true,
          "internalType": "address",
          "name": "newOwner",
          "type": "address"
        }
      ],
      "name": "OwnershipTransferred",
      "type": "event"
    },
    {
      "inputs": [
        {
          "internalType": "uint256",
          "name": "followerId",
          "type": "uint256"
        },
        {
          "internalType": "uint256",
          "name": "targetId",
          "type": "uint256"
        }
      ],
      "name": "follow",
      "outputs": [],
      "stateMutability": "nonpayable",
      "type": "function"
    },
    {
      "inputs": [
        {
          "internalType": "uint256",
          "name": "",
          "type": "uint256"
        },
        {
          "internalType": "uint256",
          "name": "",
          "type": "uint256"
        }
      ],
      "name": "followers",
      "outputs": [
        {
          "internalType": "uint256",
          "name": "",
          "type": "uint256"
        }
      ],
      "stateMutability": "view",
      "type": "function"
    },
    {
      "inputs": [
        {
          "internalType": "uint256",
          "name": "",
          "type": "uint256"
        },
        {
          "internalType": "uint256",
          "name": "",
          "type": "uint256"
        }
      ],
      "name": "following",
      "outputs": [
        {
          "internalType": "uint256",
          "name": "",
          "type": "uint256"
        }
      ],
      "stateMutability": "view",
      "type": "function"
    },
    {
      "inputs": [
        {
          "internalType": "uint256",
          "name": "entityId",
          "type": "uint256"
        }
      ],
      "name": "getInfluenceScore",
      "outputs": [
        {
          "internalType": "uint256",
          "name": "",
          "type": "uint256"
        }
      ],
      "stateMutability": "view",
      "type": "function"
    },
    {
      "inputs": [
        {
          "internalType": "uint256",
          "name": "",
          "type": "uint256"
        },
        {
          "internalType": "uint256",
          "name": "",
          "type": "uint256"
        }
      ],
      "name": "influences",
      "outputs": [
        {
          "internalType": "uint256",
          "name": "sourceId",
          "type": "uint256"
        },
        {
          "internalType": "uint256",
          "name": "targetId",
          "type": "uint256"
        },
        {
          "internalType": "uint256",
          "name": "strength",
          "type": "uint256"
        },
        {
          "internalType": "string",
          "name": "influenceType",
          "type": "string"
        },
        {
          "internalType": "uint256",
          "name": "timestamp",
          "type": "uint256"
        }
      ],
      "stateMutability": "view",
      "type": "function"
    },
    {
      "inputs": [
        {
          "internalType": "uint256",
          "name": "",
          "type": "uint256"
        }
      ],
      "name": "networkEffects",
      "outputs": [
        {
          "internalType": "uint256",
          "name": "entityId",
          "type": "uint256"
        },
        {
          "internalType": "uint256",
          "name": "influenceScore",
          "type": "uint256"
        },
        {
          "internalType": "uint256",
          "name": "followerCount",
          "type": "uint256"
        },
        {
          "internalType": "uint256",
          "name": "totalInfluence",
          "type": "uint256"
        }
      ],
      "stateMutability": "view",
      "type": "function"
    },
    {
      "inputs": [
        {
          "internalType": "uint256",
          "name": "",
          "type": "uint256"
        },
        {
          "internalType": "string",
          "name": "",
          "type": "string"
        }
      ],
      "name": "opinions",
      "outputs": [
        {
          "internalType": "string",
          "name": "topic",
          "type": "string"
        },
        {
          "internalType": "int256",
          "name": "stance",
          "type": "int256"
        },
        {
          "internalType": "uint256",
          "name": "confidence",
          "type": "uint256"
        },
        {
          "internalType": "uint256",
          "name": "lastUpdate",
          "type": "uint256"
        }
      ],
      "stateMutability": "view",
      "type": "function"
    },
    {
      "inputs": [],
      "name": "owner",
      "outputs": [
        {
          "internalType": "address",
          "name": "",
          "type": "address"
        }
      ],
      "stateMutability": "view",
      "type": "function"
    },
    {
      "inputs": [
        {
          "internalType": "uint256",
          "name": "sourceId",
          "type": "uint256"
        },
        {
          "internalType": "string",
          "name": "topic",
          "type": "string"
        }
      ],
      "name": "propagateOpinion",
      "outputs": [],
      "stateMutability": "nonpayable",
      "type": "function"
    },
    {
      "inputs": [
        {
          "internalType": "uint256",
          "name": "sourceId",
          "type": "uint256"
        },
        {
          "internalType": "uint256",
          "name": "targetId",
          "type": "uint256"
        },
        {
          "internalType": "uint256",
          "name": "strength",
          "type": "uint256"
        },
        {
          "internalType": "string",
          "name": "influenceType",
          "type": "string"
        }
      ],
      "name": "recordInfluence",
      "outputs": [],
      "stateMutability": "nonpayable",
      "type": "function"
    },
    {
      "inputs": [],
      "name": "renounceOwnership",
      "outputs": [],
      "stateMutability": "nonpayable",
      "type": "function"
    },
    {
      "inputs": [
        {
          "internalType": "uint256",
          "name": "entityId",
          "type": "uint256"
        },
        {
          "internalType": "string",
          "name": "topic",
          "type": "string"
        },
        {
          "internalType": "int256",
          "name": "stance",
          "type": "int256"
        },
        {
          "internalType": "uint256",
          "name": "confidence",
          "type": "uint256"
        }
      ],
      "name": "setOpinion",
      "outputs": [],
      "stateMutability": "nonpayable",
      "type": "function"
    },
    {
      "inputs": [
        {
          "internalType": "address",
          "name": "newOwner",
          "type": "address"
        }
      ],
      "name": "transferOwnership",
      "outputs": [],
      "stateMutability": "nonpayable",
      "type": "function"
    }
  ],
  "bytecode": "0x6080806040523461007a5733156100645760008054336001600160a01b03198216811783556040519290916001600160a01b0316907f8be0079c531659141344cd1fd0a4f28419497f9722a3daafe3b4186f6b6457e09080a3610fdf90816100808239f35b631e4fbdf760e01b815260006004820152602490fd5b600080fdfe60406080815260048036101561001457600080fd5b600091823560e01c8063053acf8514610bb6578063715018a614610b3857806372bd81d714610af957806379a0fa3f146108d3578063821defc2146108825780638518cfff1461085757806389d3b30b146107d95780638b7869751461078f5780638da5cb5b1461075c5780638f182525146106eb578063da10585714610438578063eb464a401461017b5763f2fde38b146100af57600080fd5b346101775760206003193601126101775781359173ffffffffffffffffffffffffffffffffffffffff91828416809403610173576100eb610ee1565b83156101445750508254827fffffffffffffffffffffffff00000000000000000000000000000000000000008216178455167f8be0079c531659141344cd1fd0a4f28419497f9722a3daafe3b4186f6b6457e08380a380f35b908460249251917f1e4fbdf7000000000000000000000000000000000000000000000000000000008352820152fd5b8480fd5b8280fd5b5082346104355761018b36610d30565b9091828152600290602094828693845281832082519788809288516101b481858c019d8e610d63565b8201908152030190209280805b8882528a875284822080548210156103f1576101de828c92610c04565b9054600391821b1c908b8552600190818b528886208387528b528a888a88200154948d6032871161021f575b5050505050505061021a90610f32565b6101c1565b9082918b610241949b9697989b528c8a20908d51948593849251928391610d63565b82019081520301902090838201978854948c0154818102917f800000000000000000000000000000000000000000000000000000000000000081148a8312166103c157818305149015171561039357606480910580860190811289871290801582169115161761036457946103288f93958f93957fa8c163be76e69aee9bc9c3bb1a41d25432a0d4f61088b0222d621369a2079a0e97878f8f909961033d9a61021a9f9e9d058083551361035c575b90507fffffffffffffffffffffffffffffffffffffffffffffffffffffffffffffff9c9081815412610354575b505042910155610f32565b9954908c519485946060808752860190610e9e565b928401528b8301520390a2908c80808a8e8d61020a565b55388e61031d565b55388e6102f0565b50508f8760116024927f4e487b7100000000000000000000000000000000000000000000000000000000835252fd5b508f8760116024927f4e487b7100000000000000000000000000000000000000000000000000000000835252fd5b5050508f8760116024927f4e487b7100000000000000000000000000000000000000000000000000000000835252fd5b828a7f8ccbc0a59fb3254468c1fd88fe580b78947e8c9e0b1c00b1ea0b050c4884e7d68b898c8961042b8351948486958652850190610e9e565b918301520390a280f35b80fd5b508290346106e75760806003193601126106e7578235602435916044356064359167ffffffffffffffff928381116106e3576104779036908901610cbb565b9281519060a08201828110828211176106b757835285825260209485830191888352848401868152606085019283526080850193428552898c5260018952868c208b8d528952868c2095518655516001860155516002850155600384019151805191821161068b579082916104ee8d959454610d86565b601f8111610637575b508890601f83116001146105a6578c91908361059b575b50506000198260011b9260031b1c19161790555b519101558386526003835260038187200180549083820180921161056f577f858c0fa9792787fc171f7c20fde2cafa0a1c55c1190b47350662132974da2bf995969798505551908152a380f35b60248860118b7f4e487b7100000000000000000000000000000000000000000000000000000000835252fd5b015190508d8061050e565b838d52898d2091907fffffffffffffffffffffffffffffffffffffffffffffffffffffffffffffffe084168e5b8c8282106106115750509084600195949392106105f8575b505050811b019055610522565b015160001960f88460031b161c191690558d80806105eb565b919293959697985093600182918786015181550195019301908f979695949392916105d3565b909192809495508c52888c20601f840160051c8101918a8510610681575b90601f8f9796959493920160051c01905b81811061067357506104f7565b8d81558e9650600101610666565b9091508190610655565b60248b60418e7f4e487b7100000000000000000000000000000000000000000000000000000000835252fd5b60248960418c7f4e487b7100000000000000000000000000000000000000000000000000000000835252fd5b8680fd5b5080fd5b5082346104355781906106fd36610be9565b9082526001602052828220908252602052209061075282549260018101549460028201549061072e60038401610dd9565b9201549380519687968752602087015285015260a0606085015260a0840190610e9e565b9060808301520390f35b8382346106e757816003193601126106e75773ffffffffffffffffffffffffffffffffffffffff60209254169051908152f35b509034610177576020600319360112610177576080928291358152600360205220908154916001810154916003600283015492015492815194855260208501528301526060820152f35b8382346106e75761080e602061084593836107f336610d30565b92908152600284522082855194838680955193849201610d63565b82019081520301902061082081610dd9565b9160018201549160036002820154910154918051958695608087526080870190610e9e565b93602086015284015260608301520390f35b5090346101775760206003193601126101775781602093600192358152600385522001549051908152f35b50346101775760029161089436610be9565b918286526020526108a781848720610f70565b845260056020526108ba81838620610f70565b835260036020528220016108ce8154610f32565b905580f35b508290346106e75760806003193601126106e75767ffffffffffffffff90602435828111610af5576109089036908601610cbb565b8151926080840184811082821117610ac957835281845260209081850191604435835261095d8186880195606435875260608901974289528b358b526002835282818c20915194838680955193849201610d63565b8201908152030190209551978851928311610a9d575061097d8654610d86565b601f8111610a5a575b5080601f83116001146109d357508190879860039798926109c8575b50506000198260011b92871b1c19161785555b5160018501555160028401555191015580f35b0151905088806109a2565b91977fffffffffffffffffffffffffffffffffffffffffffffffffffffffffffffffe089168789528389209389905b828210610a4257505091600193918a6003999a9b9410610a2a575b505050811b0185556109b5565b015160001960f8848a1b161c19169055888080610a1d565b80600186978294978701518155019601940190610a02565b868852818820601f840160051c810191838510610a93575b601f0160051c01905b818110610a885750610986565b888155600101610a7b565b9091508190610a72565b8760416024927f4e487b7100000000000000000000000000000000000000000000000000000000835252fd5b6024866041897f4e487b7100000000000000000000000000000000000000000000000000000000835252fd5b8380fd5b50823461043557610b0936610be9565b939082526020528181209081548410156104355750602092610b2a91610c04565b91905490519160031b1c8152f35b8334610435578060031936011261043557610b51610ee1565b8073ffffffffffffffffffffffffffffffffffffffff81547fffffffffffffffffffffffff000000000000000000000000000000000000000081168355167f8be0079c531659141344cd1fd0a4f28419497f9722a3daafe3b4186f6b6457e08280a380f35b8382346106e757610bc636610be9565b9290815260056020528181209081548410156104355750602092610b2a91610c04565b6003196040910112610bff576004359060243590565b600080fd5b8054821015610c1c5760005260206000200190600090565b7f4e487b7100000000000000000000000000000000000000000000000000000000600052603260045260246000fd5b90601f7fffffffffffffffffffffffffffffffffffffffffffffffffffffffffffffffe0910116810190811067ffffffffffffffff821117610c8c57604052565b7f4e487b7100000000000000000000000000000000000000000000000000000000600052604160045260246000fd5b81601f82011215610bff5780359067ffffffffffffffff8211610c8c5760405192610d0e60207fffffffffffffffffffffffffffffffffffffffffffffffffffffffffffffffe0601f8601160185610c4b565b82845260208383010111610bff57816000926020809301838601378301015290565b906040600319830112610bff57600435916024359067ffffffffffffffff8211610bff57610d6091600401610cbb565b90565b60005b838110610d765750506000910152565b8181015183820152602001610d66565b90600182811c92168015610dcf575b6020831014610da057565b7f4e487b7100000000000000000000000000000000000000000000000000000000600052602260045260246000fd5b91607f1691610d95565b9060405191826000825492610ded84610d86565b908184526001948581169081600014610e5c5750600114610e19575b5050610e1792500383610c4b565b565b9093915060005260209081600020936000915b818310610e44575050610e1793508201013880610e09565b85548884018501529485019487945091830191610e2c565b9050610e179550602093507fffffffffffffffffffffffffffffffffffffffffffffffffffffffffffffff0091501682840152151560051b8201013880610e09565b907fffffffffffffffffffffffffffffffffffffffffffffffffffffffffffffffe0601f602093610eda81518092818752878088019101610d63565b0116010190565b73ffffffffffffffffffffffffffffffffffffffff600054163303610f0257565b60246040517f118cdaa7000000000000000000000000000000000000000000000000000000008152336004820152fd5b6000198114610f415760010190565b7f4e487b7100000000000000000000000000000000000000000000000000000000600052601160045260246000fd5b805468010000000000000000811015610c8c57610f9291600182018155610c04565b600019829392549160031b92831b921b191617905556fea2646970667358221220a607ada628a8513fddce7694a205b21e31d5d0f3820263674bbef7b8afb881bd64736f6c63430008140033",
  "linkReferences": {},
  "deployedLinkReferences": {}
}