{
  "_format": "hh-sol-artifact-1",
  "contractName": "SlashingMechanism",
  "sourceName": "contracts/layer7/enforcement/SlashingMechanism.sol",
  "abi": [
    {
      "inputs": [
        {
          "internalType": "address",
          "name": "_slashingPool",
          "type": "address"
        }
      ],
      "stateMutability": "nonpayable",
      "type": "constructor"
    },
    {
      "inputs": [],
      "name": "AccessControlBadConfirmation",
      "type": "error"
    },
    {
      "inputs": [
        {
          "internalType": "address",
          "name": "account",
          "type": "address"
        },
        {
          "internalType": "bytes32",
          "name": "neededRole",
          "type": "bytes32"
        }
      ],
      "name": "AccessControlUnauthorizedAccount",
      "type": "error"
    },
    {
      "inputs": [],
      "name": "ReentrancyGuardReentrantCall",
      "type": "error"
    },
    {
      "anonymous": false,
      "inputs": [
        {
          "indexed": true,
          "internalType": "bytes32",
          "name": "role",
          "type": "bytes32"
        },
        {
          "indexed": true,
          "internalType": "bytes32",
          "name": "previousAdminRole",
          "type": "bytes32"
        },
        {
          "indexed": true,
          "internalType": "bytes32",
          "name": "newAdminRole",
          "type": "bytes32"
        }
      ],
      "name": "RoleAdminChanged",
      "type": "event"
    },
    {
      "anonymous": false,
      "inputs": [
        {
          "indexed": true,
          "internalType": "bytes32",
          "name": "role",
          "type": "bytes32"
        },
        {
          "indexed": true,
          "internalType": "address",
          "name": "account",
          "type": "address"
        },
        {
          "indexed": true,
          "internalType": "address",
          "name": "sender",
          "type": "address"
        }
      ],
      "name": "RoleGranted",
      "type": "event"
    },
    {
      "anonymous": false,
      "inputs": [
        {
          "indexed": true,
          "internalType": "bytes32",
          "name": "role",
          "type": "bytes32"
        },
        {
          "indexed": true,
          "internalType": "address",
          "name": "account",
          "type": "address"
        },
        {
          "indexed": true,
          "internalType": "address",
          "name": "sender",
          "type": "address"
        }
      ],
      "name": "RoleRevoked",
      "type": "event"
    },
    {
      "anonymous": false,
      "inputs": [
        {
          "indexed": true,
          "internalType": "uint256",
          "name": "entityId",
          "type": "uint256"
        },
        {
          "indexed": false,
          "internalType": "uint256",
          "name": "amount",
          "type": "uint256"
        },
        {
          "indexed": true,
          "internalType": "enum SlashingMechanism.SlashReason",
          "name": "reason",
          "type": "uint8"
        },
        {
          "indexed": true,
          "internalType": "address",
          "name": "slasher",
          "type": "address"
        }
      ],
      "name": "Slashed",
      "type": "event"
    },
    {
      "anonymous": false,
      "inputs": [
        {
          "indexed": true,
          "internalType": "uint256",
          "name": "entityId",
          "type": "uint256"
        },
        {
          "indexed": false,
          "internalType": "uint256",
          "name": "amount",
          "type": "uint256"
        }
      ],
      "name": "StakeDeposited",
      "type": "event"
    },
    {
      "anonymous": false,
      "inputs": [
        {
          "indexed": true,
          "internalType": "uint256",
          "name": "entityId",
          "type": "uint256"
        },
        {
          "indexed": false,
          "internalType": "uint256",
          "name": "amount",
          "type": "uint256"
        }
      ],
      "name": "StakeWithdrawn",
      "type": "event"
    },
    {
      "inputs": [],
      "name": "DEFAULT_ADMIN_ROLE",
      "outputs": [
        {
          "internalType": "bytes32",
          "name": "",
          "type": "bytes32"
        }
      ],
      "stateMutability": "view",
      "type": "function"
    },
    {
      "inputs": [],
      "name": "SLASHER_ROLE",
      "outputs": [
        {
          "internalType": "bytes32",
          "name": "",
          "type": "bytes32"
        }
      ],
      "stateMutability": "view",
      "type": "function"
    },
    {
      "inputs": [
        {
          "internalType": "uint256",
          "name": "entityId",
          "type": "uint256"
        },
        {
          "internalType": "uint256",
          "name": "lockDuration",
          "type": "uint256"
        }
      ],
      "name": "depositStake",
      "outputs": [],
      "stateMutability": "payable",
      "type": "function"
    },
    {
      "inputs": [
        {
          "internalType": "bytes32",
          "name": "role",
          "type": "bytes32"
        }
      ],
      "name": "getRoleAdmin",
      "outputs": [
        {
          "internalType": "bytes32",
          "name": "",
          "type": "bytes32"
        }
      ],
      "stateMutability": "view",
      "type": "function"
    },
    {
      "inputs": [
        {
          "internalType": "uint256",
          "name": "entityId",
          "type": "uint256"
        }
      ],
      "name": "getSlashHistory",
      "outputs": [
        {
          "components": [
            {
              "internalType": "uint256",
              "name": "eventId",
              "type": "uint256"
            },
            {
              "internalType": "uint256",
              "name": "entityId",
              "type": "uint256"
            },
            {
              "internalType": "address",
              "name": "slashedAddress",
              "type": "address"
            },
            {
              "internalType": "uint256",
              "name": "amountSlashed",
              "type": "uint256"
            },
            {
              "internalType": "enum SlashingMechanism.SlashReason",
              "name": "reason",
              "type": "uint8"
            },
            {
              "internalType": "uint256",
              "name": "timestamp",
              "type": "uint256"
            },
            {
              "internalType": "address",
              "name": "slasher",
              "type": "address"
            }
          ],
          "internalType": "struct SlashingMechanism.SlashingEvent[]",
          "name": "",
          "type": "tuple[]"
        }
      ],
      "stateMutability": "view",
      "type": "function"
    },
    {
      "inputs": [
        {
          "internalType": "bytes32",
          "name": "role",
          "type": "bytes32"
        },
        {
          "internalType": "address",
          "name": "account",
          "type": "address"
        }
      ],
      "name": "grantRole",
      "outputs": [],
      "stateMutability": "nonpayable",
      "type": "function"
    },
    {
      "inputs": [
        {
          "internalType": "uint256",
          "name": "entityId",
          "type": "uint256"
        }
      ],
      "name": "hasBeenSlashed",
      "outputs": [
        {
          "internalType": "bool",
          "name": "",
          "type": "bool"
        }
      ],
      "stateMutability": "view",
      "type": "function"
    },
    {
      "inputs": [
        {
          "internalType": "bytes32",
          "name": "role",
          "type": "bytes32"
        },
        {
          "internalType": "address",
          "name": "account",
          "type": "address"
        }
      ],
      "name": "hasRole",
      "outputs": [
        {
          "internalType": "bool",
          "name": "",
          "type": "bool"
        }
      ],
      "stateMutability": "view",
      "type": "function"
    },
    {
      "inputs": [
        {
          "internalType": "bytes32",
          "name": "role",
          "type": "bytes32"
        },
        {
          "internalType": "address",
          "name": "callerConfirmation",
          "type": "address"
        }
      ],
      "name": "renounceRole",
      "outputs": [],
      "stateMutability": "nonpayable",
      "type": "function"
    },
    {
      "inputs": [
        {
          "internalType": "bytes32",
          "name": "role",
          "type": "bytes32"
        },
        {
          "internalType": "address",
          "name": "account",
          "type": "address"
        }
      ],
      "name": "revokeRole",
      "outputs": [],
      "stateMutability": "nonpayable",
      "type": "function"
    },
    {
      "inputs": [
        {
          "internalType": "uint256",
          "name": "entityId",
          "type": "uint256"
        },
        {
          "internalType": "enum SlashingMechanism.SlashReason",
          "name": "reason",
          "type": "uint8"
        },
        {
          "internalType": "string",
          "name": "evidence",
          "type": "string"
        }
      ],
      "name": "slash",
      "outputs": [
        {
          "internalType": "uint256",
          "name": "",
          "type": "uint256"
        }
      ],
      "stateMutability": "nonpayable",
      "type": "function"
    },
    {
      "inputs": [],
      "name": "slashEventCount",
      "outputs": [
        {
          "internalType": "uint256",
          "name": "",
          "type": "uint256"
        }
      ],
      "stateMutability": "view",
      "type": "function"
    },
    {
      "inputs": [
        {
          "internalType": "uint256",
          "name": "",
          "type": "uint256"
        },
        {
          "internalType": "uint256",
          "name": "",
          "type": "uint256"
        }
      ],
      "name": "slashHistory",
      "outputs": [
        {
          "internalType": "uint256",
          "name": "eventId",
          "type": "uint256"
        },
        {
          "internalType": "uint256",
          "name": "entityId",
          "type": "uint256"
        },
        {
          "internalType": "address",
          "name": "slashedAddress",
          "type": "address"
        },
        {
          "internalType": "uint256",
          "name": "amountSlashed",
          "type": "uint256"
        },
        {
          "internalType": "enum SlashingMechanism.SlashReason",
          "name": "reason",
          "type": "uint8"
        },
        {
          "internalType": "uint256",
          "name": "timestamp",
          "type": "uint256"
        },
        {
          "internalType": "address",
          "name": "slasher",
          "type": "address"
        }
      ],
      "stateMutability": "view",
      "type": "function"
    },
    {
      "inputs": [
        {
          "internalType": "enum SlashingMechanism.SlashReason",
          "name": "",
          "type": "uint8"
        }
      ],
      "name": "slashPercentages",
      "outputs": [
        {
          "internalType": "uint256",
          "name": "",
          "type": "uint256"
        }
      ],
      "stateMutability": "view",
      "type": "function"
    },
    {
      "inputs": [],
      "name": "slashingPool",
      "outputs": [
        {
          "internalType": "address",
          "name": "",
          "type": "address"
        }
      ],
      "stateMutability": "view",
      "type": "function"
    },
    {
      "inputs": [
        {
          "internalType": "uint256",
          "name": "",
          "type": "uint256"
        }
      ],
      "name": "stakes",
      "outputs": [
        {
          "internalType": "uint256",
          "name": "amount",
          "type": "uint256"
        },
        {
          "internalType": "uint256",
          "name": "lockedUntil",
          "type": "uint256"
        },
        {
          "internalType": "bool",
          "name": "slashed",
          "type": "bool"
        },
        {
          "internalType": "uint256",
          "name": "slashedAmount",
          "type": "uint256"
        }
      ],
      "stateMutability": "view",
      "type": "function"
    },
    {
      "inputs": [
        {
          "internalType": "bytes4",
          "name": "interfaceId",
          "type": "bytes4"
        }
      ],
      "name": "supportsInterface",
      "outputs": [
        {
          "internalType": "bool",
          "name": "",
          "type": "bool"
        }
      ],
      "stateMutability": "view",
      "type": "function"
    },
    {
      "inputs": [],
      "name": "totalSlashed",
      "outputs": [
        {
          "internalType": "uint256",
          "name": "",
          "type": "uint256"
        }
      ],
      "stateMutability": "view",
      "type": "function"
    },
    {
      "inputs": [
        {
          "internalType": "enum SlashingMechanism.SlashReason",
          "name": "reason",
          "type": "uint8"
        },
        {
          "internalType": "uint256",
          "name": "percentage",
          "type": "uint256"
        }
      ],
      "name": "updateSlashPercentage",
      "outputs": [],
      "stateMutability": "nonpayable",
      "type": "function"
    },
    {
      "inputs": [
        {
          "internalType": "uint256",
          "name": "entityId",
          "type": "uint256"
        }
      ],
      "name": "withdrawStake",
      "outputs": [],
      "stateMutability": "nonpayable",
      "type": "function"
    }
  ],
  "bytecode": "0x6080346100cc57601f6200150838819003918201601f191683019291906001600160401b038411838510176100d15781602092849260409687528339810103126100cc57516001600160a01b038116908190036100cc5760018055610063336100e7565b5061006d33610166565b5060018060a01b031960075416176007556005816000600181526004602052606482822055808052604b82822055600381526032828220556002815260198282205560048152600a828220558281522055516112e09081620002088239f35b600080fd5b634e487b7160e01b600052604160045260246000fd5b6001600160a01b031660008181527fad3228b676f7d3cd4284a5443f17f1962b36e491b30a40b2405849e597ba5fb5602052604081205490919060ff1661016257818052816020526040822081835260205260408220600160ff198254161790553391600080516020620014e88339815191528180a4600190565b5090565b6001600160a01b031660008181527fab95ee8443670cc2f20498fec769f3646c2375509362f6df15e28d91d339511860205260408120549091907f12b42e8a160f6064dc959c6f251e3af0750ad213dbecf573b4710d67d6c28e399060ff1661020257808352826020526040832082845260205260408320600160ff19825416179055600080516020620014e8833981519152339380a4600190565b50509056fe6080604081815260048036101561001557600080fd5b60009260e08435811c91826301ffc9a714610e5e5750816315210c9e14610d76578163248a9ca314610d4c57816325d5971f14610ba25781632f2ff15d14610b8357816336568abe14610b215781634d8504cb14610aef578163501eb95e146109305781635095af64146108f45781637b2c71e1146108d45781637ec59eef14610803578163885c9ebc146103115781638df0a5e6146102db57816391d1485414610294578163992cdc37146101f357508063a201bbdd146101d4578063a217fddf146101b9578063c9d36fe31461018b578063d547741f146101525763d5a44f861461010157600080fd5b3461014e57602060031936011261014e576080928291358152600260205220805491600182015491600360ff60028301541691015492825194855260208501521515908301526060820152f35b8280fd5b5050346101875760016101839161017e61016b36610efe565b939092838752866020528620015461107f565b611186565b5080f35b5080fd5b503461014e57602060031936011261014e5760028260209460ff933581528286522001541690519015158152f35b50503461018757816003193601126101875751908152602090f35b5050346101875781600319360112610187576020906005549051908152f35b939050346102915761020436610f8b565b91908152600360205283812090815483101561029157509061022591611034565b5061028581549360018301549373ffffffffffffffffffffffffffffffffffffffff91826002860154169060ff60038701549387015416936006600588015497015416968151988952602089015287015260608601526080850190610f7e565b60a083015260c0820152f35b80fd5b505050346101875760ff816020936102ab36610efe565b90825281865273ffffffffffffffffffffffffffffffffffffffff83832091168252855220541690519015158152f35b5050503461018757816003193601126101875760209073ffffffffffffffffffffffffffffffffffffffff600754169051908152f35b5050903461014e57606060031936011261014e5760248235813560068110156107ff576044359567ffffffffffffffff808811610187573660238901121561018757878701359081116107d457602097610391897fffffffffffffffffffffffffffffffffffffffffffffffffffffffffffffffe0601f85011601610ff0565b90828252368784830101116107d0579189918188869501848301370101527f12b42e8a160f6064dc959c6f251e3af0750ad213dbecf573b4710d67d6c28e39808252818852858220338352885260ff86832054161561079b57506103f3611263565b8281526002875284812095865494851561074057600288019586549060ff82166106e55761042086610f36565b5480820290828204036106ba576064900499600198897fffffffffffffffffffffffffffffffffffffffffffffffffffffffffffffff008095161790558a60038201558a82039182116106ba575561047a89600554611227565b6005556006547fffffffffffffffffffffffffffffffffffffffffffffffffffffffffffffffff811461068f5787018060065586855260038b52888520926104c0610fa1565b9182528b8201908882528a83019533875260608401948d865260808501926104e88b8561129e565b60a086019442865260c0870198338a5280549068010000000000000000821015610664578f8201815561051b9190611034565b97909761063a57518755518d870155600286019673ffffffffffffffffffffffffffffffffffffffff809a5116977fffffffffffffffffffffffff000000000000000000000000000000000000000098898254161790555160038701558286019351926006841015610610575050948760068f95968b9a9597888c9b9660ff8d9c8d9c54169116179055516005820155019251169082541617905560075416828215610607575bf1156105fc57508351918583527f8e0d020f279df1843cce9fb0e1063624da1f9d250a164bb9b8cc6be7b8a14c03873394a4805551908152f35b8451903d90823e3d90fd5b506108fc6105c2565b60218b917f4e487b7100000000000000000000000000000000000000000000000000000000835252fd5b828c80877f4e487b7100000000000000000000000000000000000000000000000000000000825252fd5b838d6041887f4e487b7100000000000000000000000000000000000000000000000000000000835252fd5b82856011867f4e487b7100000000000000000000000000000000000000000000000000000000835252fd5b83866011877f4e487b7100000000000000000000000000000000000000000000000000000000835252fd5b606484600f858e8d51937f08c379a00000000000000000000000000000000000000000000000000000000085528401528201527f416c726561647920736c617368656400000000000000000000000000000000006044820152fd5b9060116064928a8951937f08c379a00000000000000000000000000000000000000000000000000000000085528401528201527f4e6f207374616b6520746f20736c6173680000000000000000000000000000006044820152fd5b86604491868851927fe2517d3f0000000000000000000000000000000000000000000000000000000084523390840152820152fd5b8380fd5b84826041897f4e487b7100000000000000000000000000000000000000000000000000000000835252fd5b8580fd5b50509061080f36610f8b565b9092610819611263565b341561087757507fccb52a6d64de372476805d81d080c6f8d4d1bc9a7461111b98cb5250229635989160209184865260028352600161086883882092610860348554611227565b845542611227565b91015551348152a26001805580f35b60649060208451917f08c379a0000000000000000000000000000000000000000000000000000000008352820152601160248201527f4e6f207374616b652070726f76696465640000000000000000000000000000006044820152fd5b505050346101875781600319360112610187576020906006549051908152f35b50505034610187578160031936011261018757602090517f12b42e8a160f6064dc959c6f251e3af0750ad213dbecf573b4710d67d6c28e398152f35b9193905034610291576020908160031936011261029157843581526003928383528482209586549067ffffffffffffffff8211610ac35784878993889360059061097d8584841b01610ff0565b958387528587019283988b52868b20928b945b868610610a39575050505050505080519482860193838752518094528186019496915b8483106109c05786860387f35b909192939484836001928a5180518252838101518483015273ffffffffffffffffffffffffffffffffffffffff8087830151168784015260608083015190840152610a1360808084015190850190610f7e565b60a0808301519084015260c08092015116908201520198019301919096949392966109b3565b6007896001929c9e9a9b9c8a9e9a610a4f610fa1565b9089548252858a01548483015273ffffffffffffffffffffffffffffffffffffffff908160028c01541690830152888a01546060830152610a9960ff888c0154166080840161129e565b878a015460a083015260068a01541660c08201528152019501950194939b9998979b9a969a610990565b8360416024927f4e487b7100000000000000000000000000000000000000000000000000000000835252fd5b50503461014e57602060031936011261014e57359160068310156102915750610b19602092610f36565b549051908152f35b8285853461018757610b3236610efe565b913373ffffffffffffffffffffffffffffffffffffffff841603610b5b57509061018391611186565b8490517f6697b232000000000000000000000000000000000000000000000000000000008152fd5b5050503461018757600161018391610b9d61016b36610efe565b6110dc565b50503461014e576020806003193601126107d057813591610bc1611263565b828552600282528385208054918215610cf05760018201544210610c945760ff600283015416610c38575085905584808080843382f115610c2b577f3db0ca701d7c1106534c6003e5d65dae65a9cb891ad5bbb9be39c091df79d87e929351908152a26001805580f35b50505051903d90823e3d90fd5b606490848751917f08c379a0000000000000000000000000000000000000000000000000000000008352820152601d60248201527f43616e6e6f7420776974686472617720736c6173686564207374616b650000006044820152fd5b606490848751917f08c379a0000000000000000000000000000000000000000000000000000000008352820152600c60248201527f5374696c6c206c6f636b656400000000000000000000000000000000000000006044820152fd5b606490848751917f08c379a0000000000000000000000000000000000000000000000000000000008352820152600860248201527f4e6f207374616b650000000000000000000000000000000000000000000000006044820152fd5b50503461014e57602060031936011261014e57816020936001923581528085522001549051908152f35b50503461014e578160031936011261014e5780359060068210156107d057602435928480528460205280852033865260205260ff818620541615610e285760648411610dcb575050610dc790610f36565b5580f35b90602060649251917f08c379a0000000000000000000000000000000000000000000000000000000008352820152601260248201527f496e76616c69642070657263656e7461676500000000000000000000000000006044820152fd5b908460449251917fe2517d3f00000000000000000000000000000000000000000000000000000000835233908301526024820152fd5b935050503461014e57602060031936011261014e57357fffffffff00000000000000000000000000000000000000000000000000000000811680910361014e57602092507f7965db0b000000000000000000000000000000000000000000000000000000008114908115610ed4575b5015158152f35b7f01ffc9a70000000000000000000000000000000000000000000000000000000091501438610ecd565b6003196040910112610f31576004359060243573ffffffffffffffffffffffffffffffffffffffff81168103610f315790565b600080fd5b6006811015610f4f576000526004602052604060002090565b7f4e487b7100000000000000000000000000000000000000000000000000000000600052602160045260246000fd5b906006821015610f4f5752565b6003196040910112610f31576004359060243590565b6040519060e0820182811067ffffffffffffffff821117610fc157604052565b7f4e487b7100000000000000000000000000000000000000000000000000000000600052604160045260246000fd5b907fffffffffffffffffffffffffffffffffffffffffffffffffffffffffffffffe0601f604051930116820182811067ffffffffffffffff821117610fc157604052565b8054821015611050576000526007602060002091020190600090565b7f4e487b7100000000000000000000000000000000000000000000000000000000600052603260045260246000fd5b80600052600060205260406000203360005260205260ff60406000205416156110a55750565b604490604051907fe2517d3f0000000000000000000000000000000000000000000000000000000082523360048301526024820152fd5b906000918083528260205273ffffffffffffffffffffffffffffffffffffffff6040842092169182845260205260ff604084205416156000146111815780835282602052604083208284526020526040832060017fffffffffffffffffffffffffffffffffffffffffffffffffffffffffffffff008254161790557f2f8788117e7eff1d82e926ec794901d17c78024a50270940304540a733656f0d339380a4600190565b505090565b906000918083528260205273ffffffffffffffffffffffffffffffffffffffff6040842092169182845260205260ff604084205416600014611181578083528260205260408320828452602052604083207fffffffffffffffffffffffffffffffffffffffffffffffffffffffffffffff0081541690557ff6391f5c32d9c69d2a47ea670b442974b53935d1edc7fd64eb21e047a839171b339380a4600190565b9190820180921161123457565b7f4e487b7100000000000000000000000000000000000000000000000000000000600052601160045260246000fd5b600260015414611274576002600155565b60046040517f3ee5aeb5000000000000000000000000000000000000000000000000000000008152fd5b6006821015610f4f575256fea2646970667358221220f365f5d96b2225bbfd1d0690e38f2048f763650a2828e07d95746fbe88fae9a464736f6c634300081400332f8788117e7eff1d82e926ec794901d17c78024a50270940304540a733656f0d",
  "linkReferences": {},
  "deployedLinkReferences": {}
}