{
  "_format": "hh-sol-artifact-1",
  "contractName": "WorldComposer",
  "sourceName": "contracts/layer3/reality/WorldComposer.sol",
  "abi": [
    {
      "inputs": [],
      "stateMutability": "nonpayable",
      "type": "constructor"
    },
    {
      "inputs": [
        {
          "internalType": "address",
          "name": "sender",
          "type": "address"
        },
        {
          "internalType": "uint256",
          "name": "tokenId",
          "type": "uint256"
        },
        {
          "internalType": "address",
          "name": "owner",
          "type": "address"
        }
      ],
      "name": "ERC721IncorrectOwner",
      "type": "error"
    },
    {
      "inputs": [
        {
          "internalType": "address",
          "name": "operator",
          "type": "address"
        },
        {
          "internalType": "uint256",
          "name": "tokenId",
          "type": "uint256"
        }
      ],
      "name": "ERC721InsufficientApproval",
      "type": "error"
    },
    {
      "inputs": [
        {
          "internalType": "address",
          "name": "approver",
          "type": "address"
        }
      ],
      "name": "ERC721InvalidApprover",
      "type": "error"
    },
    {
      "inputs": [
        {
          "internalType": "address",
          "name": "operator",
          "type": "address"
        }
      ],
      "name": "ERC721InvalidOperator",
      "type": "error"
    },
    {
      "inputs": [
        {
          "internalType": "address",
          "name": "owner",
          "type": "address"
        }
      ],
      "name": "ERC721InvalidOwner",
      "type": "error"
    },
    {
      "inputs": [
        {
          "internalType": "address",
          "name": "receiver",
          "type": "address"
        }
      ],
      "name": "ERC721InvalidReceiver",
      "type": "error"
    },
    {
      "inputs": [
        {
          "internalType": "address",
          "name": "sender",
          "type": "address"
        }
      ],
      "name": "ERC721InvalidSender",
      "type": "error"
    },
    {
      "inputs": [
        {
          "internalType": "uint256",
          "name": "tokenId",
          "type": "uint256"
        }
      ],
      "name": "ERC721NonexistentToken",
      "type": "error"
    },
    {
      "inputs": [
        {
          "internalType": "address",
          "name": "owner",
          "type": "address"
        }
      ],
      "name": "OwnableInvalidOwner",
      "type": "error"
    },
    {
      "inputs": [
        {
          "internalType": "address",
          "name": "account",
          "type": "address"
        }
      ],
      "name": "OwnableUnauthorizedAccount",
      "type": "error"
    },
    {
      "anonymous": false,
      "inputs": [
        {
          "indexed": true,
          "internalType": "address",
          "name": "owner",
          "type": "address"
        },
        {
          "indexed": true,
          "internalType": "address",
          "name": "approved",
          "type": "address"
        },
        {
          "indexed": true,
          "internalType": "uint256",
          "name": "tokenId",
          "type": "uint256"
        }
      ],
      "name": "Approval",
      "type": "event"
    },
    {
      "anonymous": false,
      "inputs": [
        {
          "indexed": true,
          "internalType": "address",
          "name": "owner",
          "type": "address"
        },
        {
          "indexed": true,
          "internalType": "address",
          "name": "operator",
          "type": "address"
        },
        {
          "indexed": false,
          "internalType": "bool",
          "name": "approved",
          "type": "bool"
        }
      ],
      "name": "ApprovalForAll",
      "type": "event"
    },
    {
      "anonymous": false,
      "inputs": [
        {
          "indexed": true,
          "internalType": "uint256",
          "name": "worldId",
          "type": "uint256"
        },
        {
          "indexed": false,
          "internalType": "uint256",
          "name": "moduleId",
          "type": "uint256"
        },
        {
          "indexed": false,
          "internalType": "string",
          "name": "moduleType",
          "type": "string"
        }
      ],
      "name": "ModuleAdded",
      "type": "event"
    },
    {
      "anonymous": false,
      "inputs": [
        {
          "indexed": true,
          "internalType": "address",
          "name": "previousOwner",
          "type": "address"
        },
        {
          "indexed": true,
          "internalType": "address",
          "name": "newOwner",
          "type": "address"
        }
      ],
      "name": "OwnershipTransferred",
      "type": "event"
    },
    {
      "anonymous": false,
      "inputs": [
        {
          "indexed": true,
          "internalType": "address",
          "name": "from",
          "type": "address"
        },
        {
          "indexed": true,
          "internalType": "address",
          "name": "to",
          "type": "address"
        },
        {
          "indexed": true,
          "internalType": "uint256",
          "name": "tokenId",
          "type": "uint256"
        }
      ],
      "name": "Transfer",
      "type": "event"
    },
    {
      "anonymous": false,
      "inputs": [
        {
          "indexed": true,
          "internalType": "uint256",
          "name": "worldId",
          "type": "uint256"
        },
        {
          "indexed": false,
          "internalType": "string",
          "name": "name",
          "type": "string"
        },
        {
          "indexed": false,
          "internalType": "address",
          "name": "creator",
          "type": "address"
        }
      ],
      "name": "WorldComposed",
      "type": "event"
    },
    {
      "anonymous": false,
      "inputs": [
        {
          "indexed": true,
          "internalType": "uint256",
          "name": "worldId",
          "type": "uint256"
        },
        {
          "indexed": false,
          "internalType": "uint256",
          "name": "price",
          "type": "uint256"
        }
      ],
      "name": "WorldPublished",
      "type": "event"
    },
    {
      "inputs": [
        {
          "internalType": "uint256",
          "name": "worldId",
          "type": "uint256"
        },
        {
          "internalType": "uint256",
          "name": "systemId",
          "type": "uint256"
        }
      ],
      "name": "addEconomicSystem",
      "outputs": [],
      "stateMutability": "nonpayable",
      "type": "function"
    },
    {
      "inputs": [
        {
          "internalType": "uint256",
          "name": "worldId",
          "type": "uint256"
        },
        {
          "internalType": "uint256",
          "name": "moduleId",
          "type": "uint256"
        }
      ],
      "name": "addPhysicsModule",
      "outputs": [],
      "stateMutability": "nonpayable",
      "type": "function"
    },
    {
      "inputs": [
        {
          "internalType": "address",
          "name": "to",
          "type": "address"
        },
        {
          "internalType": "uint256",
          "name": "tokenId",
          "type": "uint256"
        }
      ],
      "name": "approve",
      "outputs": [],
      "stateMutability": "nonpayable",
      "type": "function"
    },
    {
      "inputs": [
        {
          "internalType": "address",
          "name": "owner",
          "type": "address"
        }
      ],
      "name": "balanceOf",
      "outputs": [
        {
          "internalType": "uint256",
          "name": "",
          "type": "uint256"
        }
      ],
      "stateMutability": "view",
      "type": "function"
    },
    {
      "inputs": [
        {
          "internalType": "string",
          "name": "name",
          "type": "string"
        },
        {
          "internalType": "uint256[]",
          "name": "physicsModules",
          "type": "uint256[]"
        },
        {
          "internalType": "uint256[]",
          "name": "economicSystems",
          "type": "uint256[]"
        }
      ],
      "name": "composeWorld",
      "outputs": [
        {
          "internalType": "uint256",
          "name": "",
          "type": "uint256"
        }
      ],
      "stateMutability": "nonpayable",
      "type": "function"
    },
    {
      "inputs": [
        {
          "internalType": "address",
          "name": "",
          "type": "address"
        },
        {
          "internalType": "uint256",
          "name": "",
          "type": "uint256"
        }
      ],
      "name": "creatorWorlds",
      "outputs": [
        {
          "internalType": "uint256",
          "name": "",
          "type": "uint256"
        }
      ],
      "stateMutability": "view",
      "type": "function"
    },
    {
      "inputs": [
        {
          "internalType": "uint256",
          "name": "tokenId",
          "type": "uint256"
        }
      ],
      "name": "getApproved",
      "outputs": [
        {
          "internalType": "address",
          "name": "",
          "type": "address"
        }
      ],
      "stateMutability": "view",
      "type": "function"
    },
    {
      "inputs": [
        {
          "internalType": "uint256",
          "name": "worldId",
          "type": "uint256"
        }
      ],
      "name": "getWorld",
      "outputs": [
        {
          "components": [
            {
              "internalType": "uint256",
              "name": "id",
              "type": "uint256"
            },
            {
              "internalType": "string",
              "name": "name",
              "type": "string"
            },
            {
              "internalType": "address",
              "name": "creator",
              "type": "address"
            },
            {
              "internalType": "uint256[]",
              "name": "physicsModules",
              "type": "uint256[]"
            },
            {
              "internalType": "uint256[]",
              "name": "economicSystems",
              "type": "uint256[]"
            },
            {
              "internalType": "uint256[]",
              "name": "psychologyModules",
              "type": "uint256[]"
            },
            {
              "internalType": "uint256",
              "name": "createdAt",
              "type": "uint256"
            },
            {
              "internalType": "bool",
              "name": "isPublished",
              "type": "bool"
            },
            {
              "internalType": "uint256",
              "name": "price",
              "type": "uint256"
            }
          ],
          "internalType": "struct WorldComposer.World",
          "name": "",
          "type": "tuple"
        }
      ],
      "stateMutability": "view",
      "type": "function"
    },
    {
      "inputs": [
        {
          "internalType": "address",
          "name": "owner",
          "type": "address"
        },
        {
          "internalType": "address",
          "name": "operator",
          "type": "address"
        }
      ],
      "name": "isApprovedForAll",
      "outputs": [
        {
          "internalType": "bool",
          "name": "",
          "type": "bool"
        }
      ],
      "stateMutability": "view",
      "type": "function"
    },
    {
      "inputs": [],
      "name": "name",
      "outputs": [
        {
          "internalType": "string",
          "name": "",
          "type": "string"
        }
      ],
      "stateMutability": "view",
      "type": "function"
    },
    {
      "inputs": [],
      "name": "owner",
      "outputs": [
        {
          "internalType": "address",
          "name": "",
          "type": "address"
        }
      ],
      "stateMutability": "view",
      "type": "function"
    },
    {
      "inputs": [
        {
          "internalType": "uint256",
          "name": "tokenId",
          "type": "uint256"
        }
      ],
      "name": "ownerOf",
      "outputs": [
        {
          "internalType": "address",
          "name": "",
          "type": "address"
        }
      ],
      "stateMutability": "view",
      "type": "function"
    },
    {
      "inputs": [
        {
          "internalType": "uint256",
          "name": "worldId",
          "type": "uint256"
        },
        {
          "internalType": "uint256",
          "name": "price",
          "type": "uint256"
        }
      ],
      "name": "publishWorld",
      "outputs": [],
      "stateMutability": "nonpayable",
      "type": "function"
    },
    {
      "inputs": [],
      "name": "renounceOwnership",
      "outputs": [],
      "stateMutability": "nonpayable",
      "type": "function"
    },
    {
      "inputs": [
        {
          "internalType": "address",
          "name": "from",
          "type": "address"
        },
        {
          "internalType": "address",
          "name": "to",
          "type": "address"
        },
        {
          "internalType": "uint256",
          "name": "tokenId",
          "type": "uint256"
        }
      ],
      "name": "safeTransferFrom",
      "outputs": [],
      "stateMutability": "nonpayable",
      "type": "function"
    },
    {
      "inputs": [
        {
          "internalType": "address",
          "name": "from",
          "type": "address"
        },
        {
          "internalType": "address",
          "name": "to",
          "type": "address"
        },
        {
          "internalType": "uint256",
          "name": "tokenId",
          "type": "uint256"
        },
        {
          "internalType": "bytes",
          "name": "data",
          "type": "bytes"
        }
      ],
      "name": "safeTransferFrom",
      "outputs": [],
      "stateMutability": "nonpayable",
      "type": "function"
    },
    {
      "inputs": [
        {
          "internalType": "address",
          "name": "operator",
          "type": "address"
        },
        {
          "internalType": "bool",
          "name": "approved",
          "type": "bool"
        }
      ],
      "name": "setApprovalForAll",
      "outputs": [],
      "stateMutability": "nonpayable",
      "type": "function"
    },
    {
      "inputs": [
        {
          "internalType": "bytes4",
          "name": "interfaceId",
          "type": "bytes4"
        }
      ],
      "name": "supportsInterface",
      "outputs": [
        {
          "internalType": "bool",
          "name": "",
          "type": "bool"
        }
      ],
      "stateMutability": "view",
      "type": "function"
    },
    {
      "inputs": [],
      "name": "symbol",
      "outputs": [
        {
          "internalType": "string",
          "name": "",
          "type": "string"
        }
      ],
      "stateMutability": "view",
      "type": "function"
    },
    {
      "inputs": [
        {
          "internalType": "uint256",
          "name": "tokenId",
          "type": "uint256"
        }
      ],
      "name": "tokenURI",
      "outputs": [
        {
          "internalType": "string",
          "name": "",
          "type": "string"
        }
      ],
      "stateMutability": "view",
      "type": "function"
    },
    {
      "inputs": [
        {
          "internalType": "address",
          "name": "from",
          "type": "address"
        },
        {
          "internalType": "address",
          "name": "to",
          "type": "address"
        },
        {
          "internalType": "uint256",
          "name": "tokenId",
          "type": "uint256"
        }
      ],
      "name": "transferFrom",
      "outputs": [],
      "stateMutability": "nonpayable",
      "type": "function"
    },
    {
      "inputs": [
        {
          "internalType": "address",
          "name": "newOwner",
          "type": "address"
        }
      ],
      "name": "transferOwnership",
      "outputs": [],
      "stateMutability": "nonpayable",
      "type": "function"
    },
    {
      "inputs": [
        {
          "internalType": "uint256",
          "name": "",
          "type": "uint256"
        }
      ],
      "name": "worlds",
      "outputs": [
        {
          "internalType": "uint256",
          "name": "id",
          "type": "uint256"
        },
        {
          "internalType": "string",
          "name": "name",
          "type": "string"
        },
        {
          "internalType": "address",
          "name": "creator",
          "type": "address"
        },
        {
          "internalType": "uint256",
          "name": "createdAt",
          "type": "uint256"
        },
        {
          "internalType": "bool",
          "name": "isPublished",
          "type": "bool"
        },
        {
          "internalType": "uint256",
          "name": "price",
          "type": "uint256"
        }
      ],
      "stateMutability": "view",
      "type": "function"
    }
  ],
  "bytecode": "0x60803462000380576001600160401b03906040818101838111838210176200036a578152601282526020917113d0538810dbdb5c1bdcd9590815dbdc9b1960721b83820152815193828501858110828211176200036a57835260058552644f414e435760d81b8486015281518181116200036a576000948554916001948584811c941680156200035f575b838510146200034b578190601f94858111620002f8575b5083908583116001146200029457899262000288575b5050600019600383901b1c191690851b1786555b8651928311620002745783548481811c9116801562000269575b8282101462000255578281116200020d575b5080918311600114620001a65750849582939495926200019a575b5050600019600383901b1c191690821b1790555b3315620001825760068054336001600160a01b03198216811790925591519290916001600160a01b0316907f8be0079c531659141344cd1fd0a4f28419497f9722a3daafe3b4186f6b6457e09080a3611f679081620003868239f35b51631e4fbdf760e01b81526004810191909152602490fd5b01519050388062000112565b90601f198316968487528287209287905b898210620001f5575050838596979810620001db575b505050811b01905562000126565b015160001960f88460031b161c19169055388080620001cd565b808785968294968601518155019501930190620001b7565b8487528187208380860160051c8201928487106200024b575b0160051c019085905b8281106200023f575050620000f7565b8881550185906200022f565b9250819262000226565b634e487b7160e01b87526022600452602487fd5b90607f1690620000e5565b634e487b7160e01b86526041600452602486fd5b015190503880620000b7565b898052848a208894509190601f1984168b5b87828210620002e15750508411620002c7575b505050811b018655620000cb565b015160001960f88460031b161c19169055388080620002b9565b8385015186558b97909501949384019301620002a6565b9091508880528389208580850160051c82019286861062000341575b918991869594930160051c01915b82811062000332575050620000a1565b8b815585945089910162000322565b9250819262000314565b634e487b7160e01b88526022600452602488fd5b93607f16936200008a565b634e487b7160e01b600052604160045260246000fd5b600080fdfe608080604052600436101561001357600080fd5b60003560e01c90816301ffc9a7146115a25750806306fdde03146114ff578063081812fc146114b3578063095ea7b31461137357806323b872dd1461135c5780633a1956ce146112c557806342842e0e146112975780635198618f146112345780636352211e146111f857806370a082311461117a578063715018a6146110fa5780638da5cb5b146110c657806391a9447d146110255780639477fa4d14610f7557806395d89b4114610e78578063a22cb46514610d86578063b88d4fde14610d18578063c87b56dd14610cc1578063cc08549314610b1f578063cd28fdca146102f9578063da55bbd014610249578063e985e9c5146101e55763f2fde38b1461011c57600080fd5b346101e05760206003193601126101e0576101356116b1565b61013d6119f8565b73ffffffffffffffffffffffffffffffffffffffff8091169081156101af57600654827fffffffffffffffffffffffff0000000000000000000000000000000000000000821617600655167f8be0079c531659141344cd1fd0a4f28419497f9722a3daafe3b4186f6b6457e0600080a3005b60246040517f1e4fbdf700000000000000000000000000000000000000000000000000000000815260006004820152fd5b600080fd5b346101e05760406003193601126101e0576101fe6116b1565b6102066116d4565b9073ffffffffffffffffffffffffffffffffffffffff809116600052600560205260406000209116600052602052602060ff604060002054166040519015158152f35b346101e057610257366118f4565b81600052600260205273ffffffffffffffffffffffffffffffffffffffff6040600020541633036101e05760807fc4f3ef40e8cf31adb37cfeddf4e080e505332c588893acb1c97e81c583bafd799160086020526102bc816004604060002001611ea9565b60405190815260406020820152600860408201527f65636f6e6f6d69630000000000000000000000000000000000000000000000006060820152a2005b346101e05760606003193601126101e05760043567ffffffffffffffff81116101e057366023820112156101e05761033b903690602481600401359101611926565b60243567ffffffffffffffff81116101e05761035b903690600401611991565b9060443567ffffffffffffffff81116101e05761037c903690600401611991565b90600754916000198314610af0576001830160075560405161039d816117a9565b600081523315610abf5760018401600052600260205273ffffffffffffffffffffffffffffffffffffffff604060002054168015159081610a68575b3360005260036020526040600020600181540190556001860160005260026020526040600020337fffffffffffffffffffffffff0000000000000000000000000000000000000000825416179055600186019033907fddf252ad1be2c89b69c2b068fc378daa952ba7f163c4a11628f55a4df523b3ef600080a4610a3757333b6108a5575b506040519061046c826117a9565b600082526040519461047d8661178c565b6001850186528360208701523360408701526060860152608085015260a08401524260c0840152600060e08401526000610100840152600182016000526008602052604060002083518155602084015180519067ffffffffffffffff82116107575781906104ee6001850154611739565b601f8111610865575b50602090601f83116001146107f3576000926107e8575b50506000198260011b9260031b1c19161760018201555b6002810173ffffffffffffffffffffffffffffffffffffffff6040860151167fffffffffffffffffffffffff0000000000000000000000000000000000000000825416179055606084015180519067ffffffffffffffff821161075757680100000000000000008211610757576020600384019182548484558085106107cb575b500190600052602060002060005b8381106107b75750505050608084015180519067ffffffffffffffff8211610757576801000000000000000082116107575760206004840191825484845580851061079a575b500190600052602060002060005b8381106107865750505050600581019360a081015180519067ffffffffffffffff82116107575768010000000000000000821161075757602090875483895580841061073a575b50019560005260206000209560005b82811061072657602087878760086101008960c081015160068501556106b860e08201511515600786019060ff7fffffffffffffffffffffffffffffffffffffffffffffffffffffffffffffff0083541691151516179055565b015191015533600052600983526106d6600183016040600020611ea9565b7fa4196632baf62a87b4bc6a84e95e877ff8a3b36061a174af0dd5ddc554cadd4c61070c60405192604084526040840190611671565b9133858201528060018501930390a2600160405191018152f35b60019060208351930192818a01550161065e565b610751908960005284846000209182019101611e92565b8861064f565b7f4e487b7100000000000000000000000000000000000000000000000000000000600052604160045260246000fd5b600190602084519401938184015501610608565b6107b1908460005285846000209182019101611e92565b886105fa565b6001906020845194019381840155016105b4565b6107e2908460005285846000209182019101611e92565b886105a6565b01519050868061050e565b9250600184016000526020600020906000935b601f198416851061084a576001945083601f19811610610831575b505050811b016001820155610525565b015160001960f88460031b161c19169055868080610821565b81810151835560209485019460019093019290910190610806565b61089590600186016000526020600020601f850160051c8101916020861061089b575b601f0160051c0190611e92565b876104f7565b9091508190610888565b604051602081806108fb7f150b7a0200000000000000000000000000000000000000000000000000000000958683523360048401526000602484015260018a016044840152608060648401526084830190611671565b03816000335af1600091816109da575b5061097d573d15610976573d6109208161190a565b9061092e60405192836117c5565b81523d6000602083013e5b805190816109715760246040517f64a0ae92000000000000000000000000000000000000000000000000000000008152336004820152fd5b602001fd5b6060610939565b7fffffffff0000000000000000000000000000000000000000000000000000000016036109aa578461045e565b60246040517f64a0ae92000000000000000000000000000000000000000000000000000000008152336004820152fd5b9091506020813d602011610a2f575b816109f6602093836117c5565b810103126101e057517fffffffff00000000000000000000000000000000000000000000000000000000811681036101e057908761090b565b3d91506109e9565b60246040517f73c6ac6e00000000000000000000000000000000000000000000000000000000815260006004820152fd5b610aa460018701600052600460205260406000207fffffffffffffffffffffffff00000000000000000000000000000000000000008154169055565b806000526003602052604060002060001981540190556103d9565b60246040517f64a0ae9200000000000000000000000000000000000000000000000000000000815260006004820152fd5b7f4e487b7100000000000000000000000000000000000000000000000000000000600052601160045260246000fd5b346101e0576020806003193601126101e05760405190610b3e8261178c565b6000825260608082840152604083016000905280808401528060808401528060a084015260c083016000905260e08301600090526101008093016000905260043560005260088252604060002060405190610b988261178c565b80548252610ba8600182016117e8565b9484830195865273ffffffffffffffffffffffffffffffffffffffff91826002820154166040850190815260038201610be090611ee2565b858701908152610bf260048401611ee2565b60808701908152610c0560058501611ee2565b9160a0880192835260068501549860c08901998a52600786015460ff169560e08a0196151587526008015497878a019889526040519c8c8e9d9b8e9c8d5251908c0152516101206040819c01526101408d01610c6091611671565b955116908b015251601f1993848b82030160808c0152610c7f9161195d565b905190838a82030160a08b0152610c959161195d565b9051918882030160c0890152610caa9161195d565b945160e08701525115159085015251908301520390f35b346101e05760206003193601126101e057610cdd600435611c5c565b506000604051610cec816117a9565b52610d14604051610cfc816117a9565b60008152604051918291602083526020830190611671565b0390f35b346101e05760806003193601126101e057610d316116b1565b610d396116d4565b906044356064359267ffffffffffffffff84116101e057366023850112156101e057610d72610d84943690602481600401359101611926565b92610d7e838383611a49565b33611cbd565b005b346101e05760406003193601126101e057610d9f6116b1565b60243590811515908183036101e05773ffffffffffffffffffffffffffffffffffffffff16918215610e4757610e199033600052600560205260406000208460005260205260406000209060ff7fffffffffffffffffffffffffffffffffffffffffffffffffffffffffffffff0083541691151516179055565b6040519081527f17307eab39ab6107e8899845ad3d59bd9653f200f220920489ca2b5937696c3160203392a3005b602483604051907f5b08ba180000000000000000000000000000000000000000000000000000000082526004820152fd5b346101e05760006003193601126101e05760405160006001805490610e9c82611739565b80855291818116908115610f305750600114610ed7575b610d1484610ec3818603826117c5565b604051918291602083526020830190611671565b600081815292507fb10e2d527612073b26eecdfd717e6a320cf44b4afac2b0732d9fcbe2b7fa0cf65b828410610f18575050508101602001610ec382610eb3565b80546020858701810191909152909301928101610f00565b7fffffffffffffffffffffffffffffffffffffffffffffffffffffffffffffff001660208087019190915292151560051b85019092019250610ec39150839050610eb3565b346101e057610f83366118f4565b81600052600260205273ffffffffffffffffffffffffffffffffffffffff6040600020541633036101e05760807fc4f3ef40e8cf31adb37cfeddf4e080e505332c588893acb1c97e81c583bafd79916008602052610fe8816003604060002001611ea9565b60405190815260406020820152600760408201527f70687973696373000000000000000000000000000000000000000000000000006060820152a2005b346101e057611033366118f4565b81600052600260205273ffffffffffffffffffffffffffffffffffffffff6040600020541633036101e05760207feb53f94cebc8de9f7343f27caaf6818bffe6b4497c05e01cb463e3689e9a9801916008825280600860406000206007810160017fffffffffffffffffffffffffffffffffffffffffffffffffffffffffffffff008254161790550155604051908152a2005b346101e05760006003193601126101e057602073ffffffffffffffffffffffffffffffffffffffff60065416604051908152f35b346101e05760006003193601126101e0576111136119f8565b600073ffffffffffffffffffffffffffffffffffffffff6006547fffffffffffffffffffffffff00000000000000000000000000000000000000008116600655167f8be0079c531659141344cd1fd0a4f28419497f9722a3daafe3b4186f6b6457e08280a3005b346101e05760206003193601126101e05773ffffffffffffffffffffffffffffffffffffffff6111a86116b1565b1680156111c75760005260036020526020604060002054604051908152f35b60246040517f89c62b6400000000000000000000000000000000000000000000000000000000815260006004820152fd5b346101e05760206003193601126101e0576020611216600435611c5c565b73ffffffffffffffffffffffffffffffffffffffff60405191168152f35b346101e05760406003193601126101e05761124d6116b1565b73ffffffffffffffffffffffffffffffffffffffff60243591166000526009602052604060002080548210156101e057602091611289916118ad565b90546040519160031b1c8152f35b346101e057610d846112a8366116f7565b90604051926112b6846117a9565b60008452610d7e838383611a49565b346101e05760206003193601126101e0576004356000526008602052604060002080546112f4600183016117e8565b9173ffffffffffffffffffffffffffffffffffffffff60028201541690600681015490600860ff60078301541691015491611341604051968796875260c0602088015260c0870190611671565b93604086015260608501521515608084015260a08301520390f35b346101e057610d8461136d366116f7565b91611a49565b346101e05760406003193601126101e05761138c6116b1565b60243561139881611c5c565b33151580611493575b80611458575b61142857819073ffffffffffffffffffffffffffffffffffffffff809416938491167f8c5be1e5ebec7d5bd14f71427d1e84f3dd0314c0f7b2291e5b200ac8c7c3b925600080a460005260046020526040600020907fffffffffffffffffffffffff0000000000000000000000000000000000000000825416179055600080f35b60246040517fa9fbf51f000000000000000000000000000000000000000000000000000000008152336004820152fd5b5073ffffffffffffffffffffffffffffffffffffffff8116600052600560205260406000203360005260205260ff60406000205416156113a7565b503373ffffffffffffffffffffffffffffffffffffffff821614156113a1565b346101e05760206003193601126101e0576004356114d081611c5c565b506000526004602052602073ffffffffffffffffffffffffffffffffffffffff60406000205416604051908152f35b346101e05760006003193601126101e0576040516000805461152081611739565b80845290600190818116908115610f30575060011461154957610d1484610ec3818603826117c5565b600080805292507f290decd9548b62a8d60345a988386fc84ba6bc95484008f6362f93160ef3e5635b82841061158a575050508101602001610ec382610eb3565b80546020858701810191909152909301928101611572565b346101e05760206003193601126101e057600435907fffffffff0000000000000000000000000000000000000000000000000000000082168092036101e057817f80ac58cd0000000000000000000000000000000000000000000000000000000060209314908115611647575b811561161d575b5015158152f35b7f01ffc9a70000000000000000000000000000000000000000000000000000000091501483611616565b7f5b5e139f000000000000000000000000000000000000000000000000000000008114915061160f565b919082519283825260005b84811061169d575050601f19601f8460006020809697860101520116010190565b60208183018101518483018201520161167c565b6004359073ffffffffffffffffffffffffffffffffffffffff821682036101e057565b6024359073ffffffffffffffffffffffffffffffffffffffff821682036101e057565b60031960609101126101e05773ffffffffffffffffffffffffffffffffffffffff9060043582811681036101e0579160243590811681036101e0579060443590565b90600182811c92168015611782575b602083101461175357565b7f4e487b7100000000000000000000000000000000000000000000000000000000600052602260045260246000fd5b91607f1691611748565b610120810190811067ffffffffffffffff82111761075757604052565b6020810190811067ffffffffffffffff82111761075757604052565b90601f601f19910116810190811067ffffffffffffffff82111761075757604052565b90604051918260008254926117fc84611739565b90818452600194858116908160001461186b5750600114611828575b5050611826925003836117c5565b565b9093915060005260209081600020936000915b81831061185357505061182693508201013880611818565b8554888401850152948501948794509183019161183b565b90506118269550602093507fffffffffffffffffffffffffffffffffffffffffffffffffffffffffffffff0091501682840152151560051b8201013880611818565b80548210156118c55760005260206000200190600090565b7f4e487b7100000000000000000000000000000000000000000000000000000000600052603260045260246000fd5b60031960409101126101e0576004359060243590565b67ffffffffffffffff811161075757601f01601f191660200190565b9291926119328261190a565b9161194060405193846117c5565b8294818452818301116101e0578281602093846000960137010152565b90815180825260208080930193019160005b82811061197d575050505090565b83518552938101939281019260010161196f565b9080601f830112156101e05781359067ffffffffffffffff8211610757578160051b604051936020936119c6858401876117c5565b855283808601928201019283116101e0578301905b8282106119e9575050505090565b813581529083019083016119db565b73ffffffffffffffffffffffffffffffffffffffff600654163303611a1957565b60246040517f118cdaa7000000000000000000000000000000000000000000000000000000008152336004820152fd5b909173ffffffffffffffffffffffffffffffffffffffff809316928315610abf57600092828452826020956002875260409684888820541696879133151580611b94575b509060027fddf252ad1be2c89b69c2b068fc378daa952ba7f163c4a11628f55a4df523b3ef9284611b44575b858352600381528b83206001815401905586835252898120847fffffffffffffffffffffffff000000000000000000000000000000000000000082541617905580a41692838303611b0a5750505050565b6064945051927f64283d7b000000000000000000000000000000000000000000000000000000008452600484015260248301526044820152fd5b611b7d87600052600460205260406000207fffffffffffffffffffffffff00000000000000000000000000000000000000008154169055565b848352600381528b83206000198154019055611ab9565b91939450915080611c1b575b15611bb057859291879138611a8d565b878688611be65760249151907f7e2732890000000000000000000000000000000000000000000000000000000082526004820152fd5b60449151907f177e802f0000000000000000000000000000000000000000000000000000000082523360048301526024820152fd5b503387148015611c40575b80611ba05750858252600481523385898420541614611ba0565b5086825260058152878220338352815260ff8883205416611c26565b80600052600260205273ffffffffffffffffffffffffffffffffffffffff60406000205416908115611c8c575090565b602490604051907f7e2732890000000000000000000000000000000000000000000000000000000082526004820152fd5b90939192833b611ccf575b5050505050565b73ffffffffffffffffffffffffffffffffffffffff95929394958095169460405196817f150b7a020000000000000000000000000000000000000000000000000000000094858a5216600489015216602487015260448601526080606486015284611d406020946084830190611671565b039483816000978189895af1869181611e36575b50611dcd575050503d600014611dc4573d611d6e8161190a565b90611d7c60405192836117c5565b81528093823d92013e5b82519283611dbf57602483604051907f64a0ae920000000000000000000000000000000000000000000000000000000082526004820152fd5b019050fd5b60609250611d86565b9092507fffffffff000000000000000000000000000000000000000000000000000000009194501603611e0557503880808080611cc8565b602490604051907f64a0ae920000000000000000000000000000000000000000000000000000000082526004820152fd5b9091508481813d8311611e8b575b611e4e81836117c5565b81010312611e8757517fffffffff0000000000000000000000000000000000000000000000000000000081168103611e87579038611d54565b8680fd5b503d611e44565b818110611e9d575050565b60008155600101611e92565b80546801000000000000000081101561075757611ecb916001820181556118ad565b600019829392549160031b92831b921b1916179055565b9060405191828154918282526020928383019160005283600020936000905b828210611f1757505050611826925003836117c5565b855484526001958601958895509381019390910190611f0156fea264697066735822122031d61526c806f7e1de5696a9453b7cae65efe3ce4c2eb56288bdb8a9ad24758764736f6c63430008140033",
  "linkReferences": {},
  "deployedLinkReferences": {}
}