{
  "_format": "hh-sol-artifact-1",
  "contractName": "CognitiveStyles",
  "sourceName": "contracts/layer3/intelligence/CognitiveStyles.sol",
  "abi": [
    {
      "inputs": [],
      "stateMutability": "nonpayable",
      "type": "constructor"
    },
    {
      "inputs": [
        {
          "internalType": "address",
          "name": "sender",
          "type": "address"
        },
        {
          "internalType": "uint256",
          "name": "tokenId",
          "type": "uint256"
        },
        {
          "internalType": "address",
          "name": "owner",
          "type": "address"
        }
      ],
      "name": "ERC721IncorrectOwner",
      "type": "error"
    },
    {
      "inputs": [
        {
          "internalType": "address",
          "name": "operator",
          "type": "address"
        },
        {
          "internalType": "uint256",
          "name": "tokenId",
          "type": "uint256"
        }
      ],
      "name": "ERC721InsufficientApproval",
      "type": "error"
    },
    {
      "inputs": [
        {
          "internalType": "address",
          "name": "approver",
          "type": "address"
        }
      ],
      "name": "ERC721InvalidApprover",
      "type": "error"
    },
    {
      "inputs": [
        {
          "internalType": "address",
          "name": "operator",
          "type": "address"
        }
      ],
      "name": "ERC721InvalidOperator",
      "type": "error"
    },
    {
      "inputs": [
        {
          "internalType": "address",
          "name": "owner",
          "type": "address"
        }
      ],
      "name": "ERC721InvalidOwner",
      "type": "error"
    },
    {
      "inputs": [
        {
          "internalType": "address",
          "name": "receiver",
          "type": "address"
        }
      ],
      "name": "ERC721InvalidReceiver",
      "type": "error"
    },
    {
      "inputs": [
        {
          "internalType": "address",
          "name": "sender",
          "type": "address"
        }
      ],
      "name": "ERC721InvalidSender",
      "type": "error"
    },
    {
      "inputs": [
        {
          "internalType": "uint256",
          "name": "tokenId",
          "type": "uint256"
        }
      ],
      "name": "ERC721NonexistentToken",
      "type": "error"
    },
    {
      "inputs": [
        {
          "internalType": "address",
          "name": "owner",
          "type": "address"
        }
      ],
      "name": "OwnableInvalidOwner",
      "type": "error"
    },
    {
      "inputs": [
        {
          "internalType": "address",
          "name": "account",
          "type": "address"
        }
      ],
      "name": "OwnableUnauthorizedAccount",
      "type": "error"
    },
    {
      "anonymous": false,
      "inputs": [
        {
          "indexed": true,
          "internalType": "address",
          "name": "owner",
          "type": "address"
        },
        {
          "indexed": true,
          "internalType": "address",
          "name": "approved",
          "type": "address"
        },
        {
          "indexed": true,
          "internalType": "uint256",
          "name": "tokenId",
          "type": "uint256"
        }
      ],
      "name": "Approval",
      "type": "event"
    },
    {
      "anonymous": false,
      "inputs": [
        {
          "indexed": true,
          "internalType": "address",
          "name": "owner",
          "type": "address"
        },
        {
          "indexed": true,
          "internalType": "address",
          "name": "operator",
          "type": "address"
        },
        {
          "indexed": false,
          "internalType": "bool",
          "name": "approved",
          "type": "bool"
        }
      ],
      "name": "ApprovalForAll",
      "type": "event"
    },
    {
      "anonymous": false,
      "inputs": [
        {
          "indexed": true,
          "internalType": "address",
          "name": "previousOwner",
          "type": "address"
        },
        {
          "indexed": true,
          "internalType": "address",
          "name": "newOwner",
          "type": "address"
        }
      ],
      "name": "OwnershipTransferred",
      "type": "event"
    },
    {
      "anonymous": false,
      "inputs": [
        {
          "indexed": true,
          "internalType": "uint256",
          "name": "styleId",
          "type": "uint256"
        },
        {
          "indexed": true,
          "internalType": "uint256",
          "name": "entityId",
          "type": "uint256"
        }
      ],
      "name": "StyleAttached",
      "type": "event"
    },
    {
      "anonymous": false,
      "inputs": [
        {
          "indexed": true,
          "internalType": "uint256",
          "name": "styleId",
          "type": "uint256"
        },
        {
          "indexed": false,
          "internalType": "string",
          "name": "name",
          "type": "string"
        },
        {
          "indexed": true,
          "internalType": "address",
          "name": "creator",
          "type": "address"
        }
      ],
      "name": "StyleMinted",
      "type": "event"
    },
    {
      "anonymous": false,
      "inputs": [
        {
          "indexed": true,
          "internalType": "address",
          "name": "from",
          "type": "address"
        },
        {
          "indexed": true,
          "internalType": "address",
          "name": "to",
          "type": "address"
        },
        {
          "indexed": true,
          "internalType": "uint256",
          "name": "tokenId",
          "type": "uint256"
        }
      ],
      "name": "Transfer",
      "type": "event"
    },
    {
      "inputs": [
        {
          "internalType": "address",
          "name": "to",
          "type": "address"
        },
        {
          "internalType": "uint256",
          "name": "tokenId",
          "type": "uint256"
        }
      ],
      "name": "approve",
      "outputs": [],
      "stateMutability": "nonpayable",
      "type": "function"
    },
    {
      "inputs": [
        {
          "internalType": "uint256",
          "name": "styleId",
          "type": "uint256"
        },
        {
          "internalType": "uint256",
          "name": "entityId",
          "type": "uint256"
        }
      ],
      "name": "attachToEntity",
      "outputs": [],
      "stateMutability": "nonpayable",
      "type": "function"
    },
    {
      "inputs": [
        {
          "internalType": "address",
          "name": "owner",
          "type": "address"
        }
      ],
      "name": "balanceOf",
      "outputs": [
        {
          "internalType": "uint256",
          "name": "",
          "type": "uint256"
        }
      ],
      "stateMutability": "view",
      "type": "function"
    },
    {
      "inputs": [
        {
          "internalType": "uint256",
          "name": "",
          "type": "uint256"
        }
      ],
      "name": "entityStyle",
      "outputs": [
        {
          "internalType": "uint256",
          "name": "",
          "type": "uint256"
        }
      ],
      "stateMutability": "view",
      "type": "function"
    },
    {
      "inputs": [
        {
          "internalType": "uint256",
          "name": "tokenId",
          "type": "uint256"
        }
      ],
      "name": "getApproved",
      "outputs": [
        {
          "internalType": "address",
          "name": "",
          "type": "address"
        }
      ],
      "stateMutability": "view",
      "type": "function"
    },
    {
      "inputs": [
        {
          "internalType": "uint256",
          "name": "styleId",
          "type": "uint256"
        }
      ],
      "name": "getStyle",
      "outputs": [
        {
          "components": [
            {
              "internalType": "uint256",
              "name": "id",
              "type": "uint256"
            },
            {
              "internalType": "string",
              "name": "name",
              "type": "string"
            },
            {
              "internalType": "address",
              "name": "creator",
              "type": "address"
            },
            {
              "internalType": "uint256",
              "name": "riskTolerance",
              "type": "uint256"
            },
            {
              "internalType": "uint256",
              "name": "adaptability",
              "type": "uint256"
            },
            {
              "internalType": "uint256",
              "name": "creativity",
              "type": "uint256"
            },
            {
              "internalType": "uint256",
              "name": "analyticalScore",
              "type": "uint256"
            },
            {
              "internalType": "uint256",
              "name": "emotionalIntelligence",
              "type": "uint256"
            },
            {
              "internalType": "bool",
              "name": "isAttached",
              "type": "bool"
            },
            {
              "internalType": "uint256",
              "name": "attachedTo",
              "type": "uint256"
            },
            {
              "internalType": "uint256",
              "name": "createdAt",
              "type": "uint256"
            }
          ],
          "internalType": "struct CognitiveStyles.CognitiveStyle",
          "name": "",
          "type": "tuple"
        }
      ],
      "stateMutability": "view",
      "type": "function"
    },
    {
      "inputs": [
        {
          "internalType": "address",
          "name": "owner",
          "type": "address"
        },
        {
          "internalType": "address",
          "name": "operator",
          "type": "address"
        }
      ],
      "name": "isApprovedForAll",
      "outputs": [
        {
          "internalType": "bool",
          "name": "",
          "type": "bool"
        }
      ],
      "stateMutability": "view",
      "type": "function"
    },
    {
      "inputs": [
        {
          "internalType": "string",
          "name": "name",
          "type": "string"
        },
        {
          "internalType": "uint256",
          "name": "risk",
          "type": "uint256"
        },
        {
          "internalType": "uint256",
          "name": "adapt",
          "type": "uint256"
        },
        {
          "internalType": "uint256",
          "name": "creative",
          "type": "uint256"
        },
        {
          "internalType": "uint256",
          "name": "analytical",
          "type": "uint256"
        },
        {
          "internalType": "uint256",
          "name": "emotional",
          "type": "uint256"
        }
      ],
      "name": "mintStyle",
      "outputs": [
        {
          "internalType": "uint256",
          "name": "",
          "type": "uint256"
        }
      ],
      "stateMutability": "nonpayable",
      "type": "function"
    },
    {
      "inputs": [],
      "name": "name",
      "outputs": [
        {
          "internalType": "string",
          "name": "",
          "type": "string"
        }
      ],
      "stateMutability": "view",
      "type": "function"
    },
    {
      "inputs": [],
      "name": "owner",
      "outputs": [
        {
          "internalType": "address",
          "name": "",
          "type": "address"
        }
      ],
      "stateMutability": "view",
      "type": "function"
    },
    {
      "inputs": [
        {
          "internalType": "uint256",
          "name": "tokenId",
          "type": "uint256"
        }
      ],
      "name": "ownerOf",
      "outputs": [
        {
          "internalType": "address",
          "name": "",
          "type": "address"
        }
      ],
      "stateMutability": "view",
      "type": "function"
    },
    {
      "inputs": [],
      "name": "renounceOwnership",
      "outputs": [],
      "stateMutability": "nonpayable",
      "type": "function"
    },
    {
      "inputs": [
        {
          "internalType": "address",
          "name": "from",
          "type": "address"
        },
        {
          "internalType": "address",
          "name": "to",
          "type": "address"
        },
        {
          "internalType": "uint256",
          "name": "tokenId",
          "type": "uint256"
        }
      ],
      "name": "safeTransferFrom",
      "outputs": [],
      "stateMutability": "nonpayable",
      "type": "function"
    },
    {
      "inputs": [
        {
          "internalType": "address",
          "name": "from",
          "type": "address"
        },
        {
          "internalType": "address",
          "name": "to",
          "type": "address"
        },
        {
          "internalType": "uint256",
          "name": "tokenId",
          "type": "uint256"
        },
        {
          "internalType": "bytes",
          "name": "data",
          "type": "bytes"
        }
      ],
      "name": "safeTransferFrom",
      "outputs": [],
      "stateMutability": "nonpayable",
      "type": "function"
    },
    {
      "inputs": [
        {
          "internalType": "address",
          "name": "operator",
          "type": "address"
        },
        {
          "internalType": "bool",
          "name": "approved",
          "type": "bool"
        }
      ],
      "name": "setApprovalForAll",
      "outputs": [],
      "stateMutability": "nonpayable",
      "type": "function"
    },
    {
      "inputs": [
        {
          "internalType": "uint256",
          "name": "",
          "type": "uint256"
        }
      ],
      "name": "styles",
      "outputs": [
        {
          "internalType": "uint256",
          "name": "id",
          "type": "uint256"
        },
        {
          "internalType": "string",
          "name": "name",
          "type": "string"
        },
        {
          "internalType": "address",
          "name": "creator",
          "type": "address"
        },
        {
          "internalType": "uint256",
          "name": "riskTolerance",
          "type": "uint256"
        },
        {
          "internalType": "uint256",
          "name": "adaptability",
          "type": "uint256"
        },
        {
          "internalType": "uint256",
          "name": "creativity",
          "type": "uint256"
        },
        {
          "internalType": "uint256",
          "name": "analyticalScore",
          "type": "uint256"
        },
        {
          "internalType": "uint256",
          "name": "emotionalIntelligence",
          "type": "uint256"
        },
        {
          "internalType": "bool",
          "name": "isAttached",
          "type": "bool"
        },
        {
          "internalType": "uint256",
          "name": "attachedTo",
          "type": "uint256"
        },
        {
          "internalType": "uint256",
          "name": "createdAt",
          "type": "uint256"
        }
      ],
      "stateMutability": "view",
      "type": "function"
    },
    {
      "inputs": [
        {
          "internalType": "bytes4",
          "name": "interfaceId",
          "type": "bytes4"
        }
      ],
      "name": "supportsInterface",
      "outputs": [
        {
          "internalType": "bool",
          "name": "",
          "type": "bool"
        }
      ],
      "stateMutability": "view",
      "type": "function"
    },
    {
      "inputs": [],
      "name": "symbol",
      "outputs": [
        {
          "internalType": "string",
          "name": "",
          "type": "string"
        }
      ],
      "stateMutability": "view",
      "type": "function"
    },
    {
      "inputs": [
        {
          "internalType": "uint256",
          "name": "tokenId",
          "type": "uint256"
        }
      ],
      "name": "tokenURI",
      "outputs": [
        {
          "internalType": "string",
          "name": "",
          "type": "string"
        }
      ],
      "stateMutability": "view",
      "type": "function"
    },
    {
      "inputs": [
        {
          "internalType": "address",
          "name": "from",
          "type": "address"
        },
        {
          "internalType": "address",
          "name": "to",
          "type": "address"
        },
        {
          "internalType": "uint256",
          "name": "tokenId",
          "type": "uint256"
        }
      ],
      "name": "transferFrom",
      "outputs": [],
      "stateMutability": "nonpayable",
      "type": "function"
    },
    {
      "inputs": [
        {
          "internalType": "address",
          "name": "newOwner",
          "type": "address"
        }
      ],
      "name": "transferOwnership",
      "outputs": [],
      "stateMutability": "nonpayable",
      "type": "function"
    }
  ],
  "bytecode": "0x608034620003ac5760406001600160401b038282018181118482101762000396578252601383526020927f4f414e20436f676e6974697665205374796c6500000000000000000000000000848201528251918383018381108282111762000396578452600492838152634f414e4360e01b8682015282519082821162000381576000968754926001958685811c9516801562000376575b8386101462000363578190601f9586811162000310575b508390868311600114620002ac578b92620002a0575b5050600019600383901b1c191690861b1788555b81519384116200028d5784548581811c9116801562000282575b828210146200026f57908184869594931162000218575b5080928411600114620001b057508792620001a4575b5050600019600383901b1c191690821b1790555b33156200018f575060068054336001600160a01b03198216811790925591519290916001600160a01b0316907f8be0079c531659141344cd1fd0a4f28419497f9722a3daafe3b4186f6b6457e09080a3611c029081620003b28239f35b826024925191631e4fbdf760e01b8352820152fd5b0151905038806200011e565b9190859450601f198416858a52838a20938a905b828210620001fe5750508411620001e4575b505050811b01905562000132565b015160001960f88460031b161c19169055388080620001d6565b8484015186558897909501949384019390810190620001c4565b90919293508589528189208480870160051c82019284881062000265575b9187968992969594930160051c01915b8281106200025657505062000108565b8b815587965088910162000246565b9250819262000236565b634e487b7160e01b895260228752602489fd5b90607f1690620000f1565b634e487b7160e01b885260418652602488fd5b015190503880620000c3565b8b8052848c208994509190601f1984168d5b87828210620002f95750508411620002df575b505050811b018855620000d7565b015160001960f88460031b161c19169055388080620002d1565b8385015186558c97909501949384019301620002be565b9091508a8052838b208680850160051c82019286861062000359575b918a91869594930160051c01915b8281106200034a575050620000ad565b8d81558594508a91016200033a565b925081926200032c565b634e487b7160e01b8a526022885260248afd5b94607f169462000096565b604185634e487b7160e01b6000525260246000fd5b634e487b7160e01b600052604160045260246000fd5b600080fdfe608080604052600436101561001357600080fd5b60003560e01c90816301ffc9a71461135c5750806306fdde03146112b9578063081812fc1461126d578063095ea7b31461112d57806314f73a2e146109fb57806323b872dd146109e45780632a682dce1461092e57806342842e0e14610900578063521b0320146108d45780635a3151aa146107255780636352211e146106e957806370a082311461066b578063715018a6146105eb5780638da5cb5b146105b757806395d89b41146104ba578063a22cb465146103c8578063b2c60dc9146102f8578063b88d4fde1461028a578063c87b56dd14610233578063e985e9c5146101cf5763f2fde38b1461010657600080fd5b346101ca5760206003193601126101ca5761011f611489565b610127611714565b73ffffffffffffffffffffffffffffffffffffffff80911690811561019957600654827fffffffffffffffffffffffff0000000000000000000000000000000000000000821617600655167f8be0079c531659141344cd1fd0a4f28419497f9722a3daafe3b4186f6b6457e0600080a3005b60246040517f1e4fbdf700000000000000000000000000000000000000000000000000000000815260006004820152fd5b600080fd5b346101ca5760406003193601126101ca576101e8611489565b6101f06114ac565b9073ffffffffffffffffffffffffffffffffffffffff809116600052600560205260406000209116600052602052602060ff604060002054166040519015158152f35b346101ca5760206003193601126101ca5761024f600435611996565b50600060405161025e816114ec565b5261028660405161026e816114ec565b6000815260405191829160208352602083019061142b565b0390f35b346101ca5760806003193601126101ca576102a3611489565b6102ab6114ac565b906044356064359267ffffffffffffffff84116101ca57366023850112156101ca576102e46102f6943690602481600401359101611583565b926102f0838383611765565b336119f7565b005b346101ca5760206003193601126101ca576004356000526008602052604060002080546103276001830161164f565b9173ffffffffffffffffffffffffffffffffffffffff6002820154169060038101549060048101546005820154600683015460078401549160ff60088601541693600a6009870154960154966103916040519b8c9b8c5260208c61016091829101528c019061142b565b9860408b015260608a0152608089015260a088015260c087015260e086015215156101008501526101208401526101408301520390f35b346101ca5760406003193601126101ca576103e1611489565b60243590811515908183036101ca5773ffffffffffffffffffffffffffffffffffffffff169182156104895761045b9033600052600560205260406000208460005260205260406000209060ff7fffffffffffffffffffffffffffffffffffffffffffffffffffffffffffffff0083541691151516179055565b6040519081527f17307eab39ab6107e8899845ad3d59bd9653f200f220920489ca2b5937696c3160203392a3005b602483604051907f5b08ba180000000000000000000000000000000000000000000000000000000082526004820152fd5b346101ca5760006003193601126101ca57604051600060018054906104de826115fc565b808552918181169081156105725750600114610519575b6102868461050581860382611508565b60405191829160208352602083019061142b565b600081815292507fb10e2d527612073b26eecdfd717e6a320cf44b4afac2b0732d9fcbe2b7fa0cf65b82841061055a575050508101602001610505826104f5565b80546020858701810191909152909301928101610542565b7fffffffffffffffffffffffffffffffffffffffffffffffffffffffffffffff001660208087019190915292151560051b8501909201925061050591508390506104f5565b346101ca5760006003193601126101ca57602073ffffffffffffffffffffffffffffffffffffffff60065416604051908152f35b346101ca5760006003193601126101ca57610604611714565b600073ffffffffffffffffffffffffffffffffffffffff6006547fffffffffffffffffffffffff00000000000000000000000000000000000000008116600655167f8be0079c531659141344cd1fd0a4f28419497f9722a3daafe3b4186f6b6457e08280a3005b346101ca5760206003193601126101ca5773ffffffffffffffffffffffffffffffffffffffff610699611489565b1680156106b85760005260036020526020604060002054604051908152f35b60246040517f89c62b6400000000000000000000000000000000000000000000000000000000815260006004820152fd5b346101ca5760206003193601126101ca576020610707600435611996565b73ffffffffffffffffffffffffffffffffffffffff60405191168152f35b346101ca5760206003193601126101ca576000610140604051610747816114cf565b828152606060208201528260408201528260608201528260808201528260a08201528260c08201528260e08201528261010082015282610120820152015260043560005260086020526040600020600a604051916107a4836114cf565b805483526107b46001820161164f565b602084015273ffffffffffffffffffffffffffffffffffffffff60028201541660408401526003810154606084015260048101546080840152600581015460a0840152600681015460c0840152600781015460e084015260ff6008820154161515610100840152600981015461012084015201546101408201526040518091602082528051602083015261014061085c6020830151610160604086015261018085019061142b565b9173ffffffffffffffffffffffffffffffffffffffff604082015116606085015260608101516080850152608081015160a085015260a081015160c085015260c081015160e085015260e081015161010085015261010081015115156101208501526101208101518285015201516101608301520390f35b346101ca5760206003193601126101ca5760043560005260096020526020604060002054604051908152f35b346101ca576102f6610911366115ba565b906040519261091f846114ec565b600084526102f0838383611765565b346101ca5760406003193601126101ca576004356024359080600052600260205273ffffffffffffffffffffffffffffffffffffffff6040600020541633036101ca57600860205281600960406000206008810160017fffffffffffffffffffffffffffffffffffffffffffffffffffffffffffffff008254161790550155816000526009602052806040600020557f093ad5f8295d450e621021fcb1d1cd7954e431694cc3d6e938b9c3106a36b3ff600080a3005b346101ca576102f66109f5366115ba565b91611765565b346101ca5760c06003193601126101ca5760043567ffffffffffffffff81116101ca57366023820112156101ca57610a3d903690602481600401359101611583565b6007547fffffffffffffffffffffffffffffffffffffffffffffffffffffffffffffffff81146110fe5760018101600755604051610a7a816114ec565b6000815233156110cd5760018201600052600260205273ffffffffffffffffffffffffffffffffffffffff604060002054168015159081611058575b3360005260036020526040600020600181540190556001840160005260026020526040600020337fffffffffffffffffffffffff0000000000000000000000000000000000000000825416179055600184019033907fddf252ad1be2c89b69c2b068fc378daa952ba7f163c4a11628f55a4df523b3ef600080a461102757333b610e95575b5060405191610b49836114cf565b6001820183528060208401523360408401526024356060840152604435608084015260643560a084015260843560c084015260a43560e08401526000610100840152600061012084015242610140840152600182016000526008602052604060002083518155602084015193845167ffffffffffffffff8111610e6657610bd360018401546115fc565b95601f8711610e1f575b602096508690601f8311600114610d51579180600a949261014094600092610d46575b50507fffffffffffffffffffffffffffffffffffffffffffffffffffffffffffffffff8260011b9260031b1c19161760018501555b6002840173ffffffffffffffffffffffffffffffffffffffff6040830151167fffffffffffffffffffffffff0000000000000000000000000000000000000000825416179055606081015160038501556080810151600485015560a0810151600585015560c0810151600685015560e08101516007850155610cec6101008201511515600886019060ff7fffffffffffffffffffffffffffffffffffffffffffffffffffffffffffffff0083541691151516179055565b61012081015160098501550151910155604051908382527f25033b5a09e635b186451d07d909158e437847ebaaa4468fc9294358cfeea51b339280610d3860018701948883019061142b565b0390a3600160405191018152f35b015190508980610c00565b9060018501600052876000209160005b7fffffffffffffffffffffffffffffffffffffffffffffffffffffffffffffffe085168110610e08575092600a949260019261014095837fffffffffffffffffffffffffffffffffffffffffffffffffffffffffffffffe0811610610dd1575b505050811b016001850155610c35565b01517fffffffffffffffffffffffffffffffffffffffffffffffffffffffffffffffff60f88460031b161c19169055898080610dc1565b919289600181928685015181550194019201610d61565b600184016000526020600020601f830160051c810160208410610e5f575b601f890160051c82018110610e53575050610bdd565b60008155600101610e3d565b5080610e3d565b7f4e487b7100000000000000000000000000000000000000000000000000000000600052604160045260246000fd5b60405160208180610eeb7f150b7a0200000000000000000000000000000000000000000000000000000000958683523360048401526000602484015260018801604484015260806064840152608483019061142b565b03816000335af160009181610fca575b50610f6d573d15610f66573d610f1081611549565b90610f1e6040519283611508565b81523d6000602083013e5b80519081610f615760246040517f64a0ae92000000000000000000000000000000000000000000000000000000008152336004820152fd5b602001fd5b6060610f29565b7fffffffff000000000000000000000000000000000000000000000000000000001603610f9a5782610b3b565b60246040517f64a0ae92000000000000000000000000000000000000000000000000000000008152336004820152fd5b9091506020813d60201161101f575b81610fe660209383611508565b810103126101ca57517fffffffff00000000000000000000000000000000000000000000000000000000811681036101ca579085610efb565b3d9150610fd9565b60246040517f73c6ac6e00000000000000000000000000000000000000000000000000000000815260006004820152fd5b61109460018501600052600460205260406000207fffffffffffffffffffffffff00000000000000000000000000000000000000008154169055565b80600052600360205260406000207fffffffffffffffffffffffffffffffffffffffffffffffffffffffffffffffff8154019055610ab6565b60246040517f64a0ae9200000000000000000000000000000000000000000000000000000000815260006004820152fd5b7f4e487b7100000000000000000000000000000000000000000000000000000000600052601160045260246000fd5b346101ca5760406003193601126101ca57611146611489565b60243561115281611996565b3315158061124d575b80611212575b6111e257819073ffffffffffffffffffffffffffffffffffffffff809416938491167f8c5be1e5ebec7d5bd14f71427d1e84f3dd0314c0f7b2291e5b200ac8c7c3b925600080a460005260046020526040600020907fffffffffffffffffffffffff0000000000000000000000000000000000000000825416179055600080f35b60246040517fa9fbf51f000000000000000000000000000000000000000000000000000000008152336004820152fd5b5073ffffffffffffffffffffffffffffffffffffffff8116600052600560205260406000203360005260205260ff6040600020541615611161565b503373ffffffffffffffffffffffffffffffffffffffff8216141561115b565b346101ca5760206003193601126101ca5760043561128a81611996565b506000526004602052602073ffffffffffffffffffffffffffffffffffffffff60406000205416604051908152f35b346101ca5760006003193601126101ca57604051600080546112da816115fc565b808452906001908181169081156105725750600114611303576102868461050581860382611508565b600080805292507f290decd9548b62a8d60345a988386fc84ba6bc95484008f6362f93160ef3e5635b828410611344575050508101602001610505826104f5565b8054602085870181019190915290930192810161132c565b346101ca5760206003193601126101ca57600435907fffffffff0000000000000000000000000000000000000000000000000000000082168092036101ca57817f80ac58cd0000000000000000000000000000000000000000000000000000000060209314908115611401575b81156113d7575b5015158152f35b7f01ffc9a700000000000000000000000000000000000000000000000000000000915014836113d0565b7f5b5e139f00000000000000000000000000000000000000000000000000000000811491506113c9565b919082519283825260005b8481106114755750507fffffffffffffffffffffffffffffffffffffffffffffffffffffffffffffffe0601f8460006020809697860101520116010190565b602081830181015184830182015201611436565b6004359073ffffffffffffffffffffffffffffffffffffffff821682036101ca57565b6024359073ffffffffffffffffffffffffffffffffffffffff821682036101ca57565b610160810190811067ffffffffffffffff821117610e6657604052565b6020810190811067ffffffffffffffff821117610e6657604052565b90601f7fffffffffffffffffffffffffffffffffffffffffffffffffffffffffffffffe0910116810190811067ffffffffffffffff821117610e6657604052565b67ffffffffffffffff8111610e6657601f017fffffffffffffffffffffffffffffffffffffffffffffffffffffffffffffffe01660200190565b92919261158f82611549565b9161159d6040519384611508565b8294818452818301116101ca578281602093846000960137010152565b60031960609101126101ca5773ffffffffffffffffffffffffffffffffffffffff9060043582811681036101ca579160243590811681036101ca579060443590565b90600182811c92168015611645575b602083101461161657565b7f4e487b7100000000000000000000000000000000000000000000000000000000600052602260045260246000fd5b91607f169161160b565b9060405191826000825492611663846115fc565b9081845260019485811690816000146116d2575060011461168f575b505061168d92500383611508565b565b9093915060005260209081600020936000915b8183106116ba57505061168d9350820101388061167f565b855488840185015294850194879450918301916116a2565b905061168d9550602093507fffffffffffffffffffffffffffffffffffffffffffffffffffffffffffffff0091501682840152151560051b820101388061167f565b73ffffffffffffffffffffffffffffffffffffffff60065416330361173557565b60246040517f118cdaa7000000000000000000000000000000000000000000000000000000008152336004820152fd5b909173ffffffffffffffffffffffffffffffffffffffff8093169283156110cd576000928284528260209560028752604096848888205416968791331515806118ce575b509060027fddf252ad1be2c89b69c2b068fc378daa952ba7f163c4a11628f55a4df523b3ef9284611860575b858352600381528b83206001815401905586835252898120847fffffffffffffffffffffffff000000000000000000000000000000000000000082541617905580a416928383036118265750505050565b6064945051927f64283d7b000000000000000000000000000000000000000000000000000000008452600484015260248301526044820152fd5b61189987600052600460205260406000207fffffffffffffffffffffffff00000000000000000000000000000000000000008154169055565b848352600381528b83207fffffffffffffffffffffffffffffffffffffffffffffffffffffffffffffffff81540190556117d5565b91939450915080611955575b156118ea578592918791386117a9565b8786886119205760249151907f7e2732890000000000000000000000000000000000000000000000000000000082526004820152fd5b60449151907f177e802f0000000000000000000000000000000000000000000000000000000082523360048301526024820152fd5b50338714801561197a575b806118da57508582526004815233858984205416146118da565b5086825260058152878220338352815260ff8883205416611960565b80600052600260205273ffffffffffffffffffffffffffffffffffffffff604060002054169081156119c6575090565b602490604051907f7e2732890000000000000000000000000000000000000000000000000000000082526004820152fd5b90939192833b611a09575b5050505050565b73ffffffffffffffffffffffffffffffffffffffff95929394958095169460405196817f150b7a020000000000000000000000000000000000000000000000000000000094858a5216600489015216602487015260448601526080606486015284611a7a602094608483019061142b565b039483816000978189895af1869181611b70575b50611b07575050503d600014611afe573d611aa881611549565b90611ab66040519283611508565b81528093823d92013e5b82519283611af957602483604051907f64a0ae920000000000000000000000000000000000000000000000000000000082526004820152fd5b019050fd5b60609250611ac0565b9092507fffffffff000000000000000000000000000000000000000000000000000000009194501603611b3f57503880808080611a02565b602490604051907f64a0ae920000000000000000000000000000000000000000000000000000000082526004820152fd5b9091508481813d8311611bc5575b611b888183611508565b81010312611bc157517fffffffff0000000000000000000000000000000000000000000000000000000081168103611bc1579038611a8e565b8680fd5b503d611b7e56fea26469706673582212201d268581f41e121f0751c8ffb5206c16a14033a3019078afc4b40782a252d39c64736f6c63430008140033",
  "linkReferences": {},
  "deployedLinkReferences": {}
}