{
  "_format": "hh-sol-artifact-1",
  "contractName": "CognitiveStyles",
  "sourceName": "contracts/layer3/intelligence/CognitiveStyles.sol",
  "abi": [
    {
      "inputs": [],
      "stateMutability": "nonpayable",
      "type": "constructor"
    },
    {
      "inputs": [
        {
          "internalType": "address",
          "name": "sender",
          "type": "address"
        },
        {
          "internalType": "uint256",
          "name": "tokenId",
          "type": "uint256"
        },
        {
          "internalType": "address",
          "name": "owner",
          "type": "address"
        }
      ],
      "name": "ERC721IncorrectOwner",
      "type": "error"
    },
    {
      "inputs": [
        {
          "internalType": "address",
          "name": "operator",
          "type": "address"
        },
        {
          "internalType": "uint256",
          "name": "tokenId",
          "type": "uint256"
        }
      ],
      "name": "ERC721InsufficientApproval",
      "type": "error"
    },
    {
      "inputs": [
        {
          "internalType": "address",
          "name": "approver",
          "type": "address"
        }
      ],
      "name": "ERC721InvalidApprover",
      "type": "error"
    },
    {
      "inputs": [
        {
          "internalType": "address",
          "name": "operator",
          "type": "address"
        }
      ],
      "name": "ERC721InvalidOperator",
      "type": "error"
    },
    {
      "inputs": [
        {
          "internalType": "address",
          "name": "owner",
          "type": "address"
        }
      ],
      "name": "ERC721InvalidOwner",
      "type": "error"
    },
    {
      "inputs": [
        {
          "internalType": "address",
          "name": "receiver",
          "type": "address"
        }
      ],
      "name": "ERC721InvalidReceiver",
      "type": "error"
    },
    {
      "inputs": [
        {
          "internalType": "address",
          "name": "sender",
          "type": "address"
        }
      ],
      "name": "ERC721InvalidSender",
      "type": "error"
    },
    {
      "inputs": [
        {
          "internalType": "uint256",
          "name": "tokenId",
          "type": "uint256"
        }
      ],
      "name": "ERC721NonexistentToken",
      "type": "error"
    },
    {
      "inputs": [
        {
          "internalType": "address",
          "name": "owner",
          "type": "address"
        }
      ],
      "name": "OwnableInvalidOwner",
      "type": "error"
    },
    {
      "inputs": [
        {
          "internalType": "address",
          "name": "account",
          "type": "address"
        }
      ],
      "name": "OwnableUnauthorizedAccount",
      "type": "error"
    },
    {
      "anonymous": false,
      "inputs": [
        {
          "indexed": true,
          "internalType": "address",
          "name": "owner",
          "type": "address"
        },
        {
          "indexed": true,
          "internalType": "address",
          "name": "approved",
          "type": "address"
        },
        {
          "indexed": true,
          "internalType": "uint256",
          "name": "tokenId",
          "type": "uint256"
        }
      ],
      "name": "Approval",
      "type": "event"
    },
    {
      "anonymous": false,
      "inputs": [
        {
          "indexed": true,
          "internalType": "address",
          "name": "owner",
          "type": "address"
        },
        {
          "indexed": true,
          "internalType": "address",
          "name": "operator",
          "type": "address"
        },
        {
          "indexed": false,
          "internalType": "bool",
          "name": "approved",
          "type": "bool"
        }
      ],
      "name": "ApprovalForAll",
      "type": "event"
    },
    {
      "anonymous": false,
      "inputs": [
        {
          "indexed": true,
          "internalType": "address",
          "name": "previousOwner",
          "type": "address"
        },
        {
          "indexed": true,
          "internalType": "address",
          "name": "newOwner",
          "type": "address"
        }
      ],
      "name": "OwnershipTransferred",
      "type": "event"
    },
    {
      "anonymous": false,
      "inputs": [
        {
          "indexed": true,
          "internalType": "uint256",
          "name": "styleId",
          "type": "uint256"
        },
        {
          "indexed": true,
          "internalType": "uint256",
          "name": "entityId",
          "type": "uint256"
        }
      ],
      "name": "StyleAttached",
      "type": "event"
    },
    {
      "anonymous": false,
      "inputs": [
        {
          "indexed": true,
          "internalType": "uint256",
          "name": "styleId",
          "type": "uint256"
        },
        {
          "indexed": false,
          "internalType": "string",
          "name": "name",
          "type": "string"
        },
        {
          "indexed": true,
          "internalType": "address",
          "name": "creator",
          "type": "address"
        }
      ],
      "name": "StyleMinted",
      "type": "event"
    },
    {
      "anonymous": false,
      "inputs": [
        {
          "indexed": true,
          "internalType": "address",
          "name": "from",
          "type": "address"
        },
        {
          "indexed": true,
          "internalType": "address",
          "name": "to",
          "type": "address"
        },
        {
          "indexed": true,
          "internalType": "uint256",
          "name": "tokenId",
          "type": "uint256"
        }
      ],
      "name": "Transfer",
      "type": "event"
    },
    {
      "inputs": [
        {
          "internalType": "address",
          "name": "to",
          "type": "address"
        },
        {
          "internalType": "uint256",
          "name": "tokenId",
          "type": "uint256"
        }
      ],
      "name": "approve",
      "outputs": [],
      "stateMutability": "nonpayable",
      "type": "function"
    },
    {
      "inputs": [
        {
          "internalType": "uint256",
          "name": "styleId",
          "type": "uint256"
        },
        {
          "internalType": "uint256",
          "name": "entityId",
          "type": "uint256"
        }
      ],
      "name": "attachToEntity",
      "outputs": [],
      "stateMutability": "nonpayable",
      "type": "function"
    },
    {
      "inputs": [
        {
          "internalType": "address",
          "name": "owner",
          "type": "address"
        }
      ],
      "name": "balanceOf",
      "outputs": [
        {
          "internalType": "uint256",
          "name": "",
          "type": "uint256"
        }
      ],
      "stateMutability": "view",
      "type": "function"
    },
    {
      "inputs": [
        {
          "internalType": "uint256",
          "name": "",
          "type": "uint256"
        }
      ],
      "name": "entityStyle",
      "outputs": [
        {
          "internalType": "uint256",
          "name": "",
          "type": "uint256"
        }
      ],
      "stateMutability": "view",
      "type": "function"
    },
    {
      "inputs": [
        {
          "internalType": "uint256",
          "name": "tokenId",
          "type": "uint256"
        }
      ],
      "name": "getApproved",
      "outputs": [
        {
          "internalType": "address",
          "name": "",
          "type": "address"
        }
      ],
      "stateMutability": "view",
      "type": "function"
    },
    {
      "inputs": [
        {
          "internalType": "uint256",
          "name": "styleId",
          "type": "uint256"
        }
      ],
      "name": "getStyle",
      "outputs": [
        {
          "components": [
            {
              "internalType": "uint256",
              "name": "id",
              "type": "uint256"
            },
            {
              "internalType": "string",
              "name": "name",
              "type": "string"
            },
            {
              "internalType": "address",
              "name": "creator",
              "type": "address"
            },
            {
              "internalType": "uint256",
              "name": "riskTolerance",
              "type": "uint256"
            },
            {
              "internalType": "uint256",
              "name": "adaptability",
              "type": "uint256"
            },
            {
              "internalType": "uint256",
              "name": "creativity",
              "type": "uint256"
            },
            {
              "internalType": "uint256",
              "name": "analyticalScore",
              "type": "uint256"
            },
            {
              "internalType": "uint256",
              "name": "emotionalIntelligence",
              "type": "uint256"
            },
            {
              "internalType": "bool",
              "name": "isAttached",
              "type": "bool"
            },
            {
              "internalType": "uint256",
              "name": "attachedTo",
              "type": "uint256"
            },
            {
              "internalType": "uint256",
              "name": "createdAt",
              "type": "uint256"
            }
          ],
          "internalType": "struct CognitiveStyles.CognitiveStyle",
          "name": "",
          "type": "tuple"
        }
      ],
      "stateMutability": "view",
      "type": "function"
    },
    {
      "inputs": [
        {
          "internalType": "address",
          "name": "owner",
          "type": "address"
        },
        {
          "internalType": "address",
          "name": "operator",
          "type": "address"
        }
      ],
      "name": "isApprovedForAll",
      "outputs": [
        {
          "internalType": "bool",
          "name": "",
          "type": "bool"
        }
      ],
      "stateMutability": "view",
      "type": "function"
    },
    {
      "inputs": [
        {
          "internalType": "string",
          "name": "name",
          "type": "string"
        },
        {
          "internalType": "uint256",
          "name": "risk",
          "type": "uint256"
        },
        {
          "internalType": "uint256",
          "name": "adapt",
          "type": "uint256"
        },
        {
          "internalType": "uint256",
          "name": "creative",
          "type": "uint256"
        },
        {
          "internalType": "uint256",
          "name": "analytical",
          "type": "uint256"
        },
        {
          "internalType": "uint256",
          "name": "emotional",
          "type": "uint256"
        }
      ],
      "name": "mintStyle",
      "outputs": [
        {
          "internalType": "uint256",
          "name": "",
          "type": "uint256"
        }
      ],
      "stateMutability": "nonpayable",
      "type": "function"
    },
    {
      "inputs": [],
      "name": "name",
      "outputs": [
        {
          "internalType": "string",
          "name": "",
          "type": "string"
        }
      ],
      "stateMutability": "view",
      "type": "function"
    },
    {
      "inputs": [],
      "name": "owner",
      "outputs": [
        {
          "internalType": "address",
          "name": "",
          "type": "address"
        }
      ],
      "stateMutability": "view",
      "type": "function"
    },
    {
      "inputs": [
        {
          "internalType": "uint256",
          "name": "tokenId",
          "type": "uint256"
        }
      ],
      "name": "ownerOf",
      "outputs": [
        {
          "internalType": "address",
          "name": "",
          "type": "address"
        }
      ],
      "stateMutability": "view",
      "type": "function"
    },
    {
      "inputs": [],
      "name": "renounceOwnership",
      "outputs": [],
      "stateMutability": "nonpayable",
      "type": "function"
    },
    {
      "inputs": [
        {
          "internalType": "address",
          "name": "from",
          "type": "address"
        },
        {
          "internalType": "address",
          "name": "to",
          "type": "address"
        },
        {
          "internalType": "uint256",
          "name": "tokenId",
          "type": "uint256"
        }
      ],
      "name": "safeTransferFrom",
      "outputs": [],
      "stateMutability": "nonpayable",
      "type": "function"
    },
    {
      "inputs": [
        {
          "internalType": "address",
          "name": "from",
          "type": "address"
        },
        {
          "internalType": "address",
          "name": "to",
          "type": "address"
        },
        {
          "internalType": "uint256",
          "name": "tokenId",
          "type": "uint256"
        },
        {
          "internalType": "bytes",
          "name": "data",
          "type": "bytes"
        }
      ],
      "name": "safeTransferFrom",
      "outputs": [],
      "stateMutability": "nonpayable",
      "type": "function"
    },
    {
      "inputs": [
        {
          "internalType": "address",
          "name": "operator",
          "type": "address"
        },
        {
          "internalType": "bool",
          "name": "approved",
          "type": "bool"
        }
      ],
      "name": "setApprovalForAll",
      "outputs": [],
      "stateMutability": "nonpayable",
      "type": "function"
    },
    {
      "inputs": [
        {
          "internalType": "uint256",
          "name": "",
          "type": "uint256"
        }
      ],
      "name": "styles",
      "outputs": [
        {
          "internalType": "uint256",
          "name": "id",
          "type": "uint256"
        },
        {
          "internalType": "string",
          "name": "name",
          "type": "string"
        },
        {
          "internalType": "address",
          "name": "creator",
          "type": "address"
        },
        {
          "internalType": "uint256",
          "name": "riskTolerance",
          "type": "uint256"
        },
        {
          "internalType": "uint256",
          "name": "adaptability",
          "type": "uint256"
        },
        {
          "internalType": "uint256",
          "name": "creativity",
          "type": "uint256"
        },
        {
          "internalType": "uint256",
          "name": "analyticalScore",
          "type": "uint256"
        },
        {
          "internalType": "uint256",
          "name": "emotionalIntelligence",
          "type": "uint256"
        },
        {
          "internalType": "bool",
          "name": "isAttached",
          "type": "bool"
        },
        {
          "internalType": "uint256",
          "name": "attachedTo",
          "type": "uint256"
        },
        {
          "internalType": "uint256",
          "name": "createdAt",
          "type": "uint256"
        }
      ],
      "stateMutability": "view",
      "type": "function"
    },
    {
      "inputs": [
        {
          "internalType": "bytes4",
          "name": "interfaceId",
          "type": "bytes4"
        }
      ],
      "name": "supportsInterface",
      "outputs": [
        {
          "internalType": "bool",
          "name": "",
          "type": "bool"
        }
      ],
      "stateMutability": "view",
      "type": "function"
    },
    {
      "inputs": [],
      "name": "symbol",
      "outputs": [
        {
          "internalType": "string",
          "name": "",
          "type": "string"
        }
      ],
      "stateMutability": "view",
      "type": "function"
    },
    {
      "inputs": [
        {
          "internalType": "uint256",
          "name": "tokenId",
          "type": "uint256"
        }
      ],
      "name": "tokenURI",
      "outputs": [
        {
          "internalType": "string",
          "name": "",
          "type": "string"
        }
      ],
      "stateMutability": "view",
      "type": "function"
    },
    {
      "inputs": [
        {
          "internalType": "address",
          "name": "from",
          "type": "address"
        },
        {
          "internalType": "address",
          "name": "to",
          "type": "address"
        },
        {
          "internalType": "uint256",
          "name": "tokenId",
          "type": "uint256"
        }
      ],
      "name": "transferFrom",
      "outputs": [],
      "stateMutability": "nonpayable",
      "type": "function"
    },
    {
      "inputs": [
        {
          "internalType": "address",
          "name": "newOwner",
          "type": "address"
        }
      ],
      "name": "transferOwnership",
      "outputs": [],
      "stateMutability": "nonpayable",
      "type": "function"
    }
  ],
  "bytecode": "0x60806040523480156200001157600080fd5b50336040518060400160405280601381526020017f4f414e20436f676e6974697665205374796c6500000000000000000000000000815250604051806040016040528060048152602001634f414e4360e01b8152508160009081620000779190620001c1565b506001620000868282620001c1565b5050506001600160a01b038116620000b857604051631e4fbdf760e01b81526000600482015260240160405180910390fd5b620000c381620000ca565b506200028d565b600680546001600160a01b038381166001600160a01b0319831681179093556040519116919082907f8be0079c531659141344cd1fd0a4f28419497f9722a3daafe3b4186f6b6457e090600090a35050565b634e487b7160e01b600052604160045260246000fd5b600181811c908216806200014757607f821691505b6020821081036200016857634e487b7160e01b600052602260045260246000fd5b50919050565b601f821115620001bc57600081815260208120601f850160051c81016020861015620001975750805b601f850160051c820191505b81811015620001b857828155600101620001a3565b5050505b505050565b81516001600160401b03811115620001dd57620001dd6200011c565b620001f581620001ee845462000132565b846200016e565b602080601f8311600181146200022d5760008415620002145750858301515b600019600386901b1c1916600185901b178555620001b8565b600085815260208120601f198616915b828110156200025e578886015182559484019460019091019084016200023d565b50858210156200027d5787850151600019600388901b60f8161c191681555b5050505050600190811b01905550565b6118d4806200029d6000396000f3fe608060405234801561001057600080fd5b50600436106101375760003560e01c80636352211e116100b8578063a22cb4651161007c578063a22cb4651461029a578063b2c60dc9146102ad578063b88d4fde146102d7578063c87b56dd146102ea578063e985e9c5146102fd578063f2fde38b1461031057600080fd5b80636352211e1461025357806370a0823114610266578063715018a6146102795780638da5cb5b1461028157806395d89b411461029257600080fd5b806323b872dd116100ff57806323b872dd146101da5780632a682dce146101ed57806342842e0e14610200578063521b0320146102135780635a3151aa1461023357600080fd5b806301ffc9a71461013c57806306fdde0314610164578063081812fc14610179578063095ea7b3146101a457806314f73a2e146101b9575b600080fd5b61014f61014a36600461124a565b610323565b60405190151581526020015b60405180910390f35b61016c610375565b60405161015b91906112b7565b61018c6101873660046112ca565b610407565b6040516001600160a01b03909116815260200161015b565b6101b76101b23660046112ff565b610430565b005b6101cc6101c73660046113b5565b61043f565b60405190815260200161015b565b6101b76101e836600461142e565b6105ac565b6101b76101fb36600461146a565b61063c565b6101b761020e36600461142e565b6106bf565b6101cc6102213660046112ca565b60096020526000908152604090205481565b6102466102413660046112ca565b6106df565b60405161015b919061148c565b61018c6102613660046112ca565b610873565b6101cc61027436600461153b565b61087e565b6101b76108c6565b6006546001600160a01b031661018c565b61016c6108da565b6101b76102a8366004611556565b6108e9565b6102c06102bb3660046112ca565b6108f4565b60405161015b9b9a99989796959493929190611592565b6101b76102e53660046115ff565b6109e1565b61016c6102f83660046112ca565b6109f9565b61014f61030b36600461167b565b610a6e565b6101b761031e36600461153b565b610a9c565b60006001600160e01b031982166380ac58cd60e01b148061035457506001600160e01b03198216635b5e139f60e01b145b8061036f57506301ffc9a760e01b6001600160e01b03198316145b92915050565b606060008054610384906116ae565b80601f01602080910402602001604051908101604052809291908181526020018280546103b0906116ae565b80156103fd5780601f106103d2576101008083540402835291602001916103fd565b820191906000526020600020905b8154815290600101906020018083116103e057829003601f168201915b5050505050905090565b600061041282610ada565b506000828152600460205260409020546001600160a01b031661036f565b61043b828233610b13565b5050565b6007805460009182610450836116e8565b90915550506007546104623382610b20565b604080516101608101825282815260208082018b81523383850152606083018b9052608083018a905260a0830189905260c0830188905260e0830187905260006101008401819052610120840181905242610140850152858152600890925292902081518155915190919060018201906104dc9082611755565b506040828101516002830180546001600160a01b0319166001600160a01b03909216919091179055606083015160038301556080830151600483015560a0830151600583015560c0830151600683015560e0830151600783015561010083015160088301805460ff1916911515919091179055610120830151600983015561014090920151600a9091015551339082907f25033b5a09e635b186451d07d909158e437847ebaaa4468fc9294358cfeea51b90610599908c906112b7565b60405180910390a3979650505050505050565b6001600160a01b0382166105db57604051633250574960e11b8152600060048201526024015b60405180910390fd5b60006105e8838333610b3a565b9050836001600160a01b0316816001600160a01b031614610636576040516364283d7b60e01b81526001600160a01b03808616600483015260248201849052821660448201526064016105d2565b50505050565b6000828152600260205260409020546001600160a01b0316331461065f57600080fd5b6000828152600860208181526040808420928301805460ff19166001179055600992830185905584845291905280822084905551829184917f093ad5f8295d450e621021fcb1d1cd7954e431694cc3d6e938b9c3106a36b3ff9190a35050565b6106da838383604051806020016040528060008152506109e1565b505050565b610747604051806101600160405280600081526020016060815260200160006001600160a01b03168152602001600081526020016000815260200160008152602001600081526020016000815260200160001515815260200160008152602001600081525090565b600860008381526020019081526020016000206040518061016001604052908160008201548152602001600182018054610780906116ae565b80601f01602080910402602001604051908101604052809291908181526020018280546107ac906116ae565b80156107f95780601f106107ce576101008083540402835291602001916107f9565b820191906000526020600020905b8154815290600101906020018083116107dc57829003601f168201915b505050918352505060028201546001600160a01b03166020820152600382015460408201526004820154606082015260058201546080820152600682015460a0820152600782015460c0820152600882015460ff16151560e08201526009820154610100820152600a909101546101209091015292915050565b600061036f82610ada565b60006001600160a01b0382166108aa576040516322718ad960e21b8152600060048201526024016105d2565b506001600160a01b031660009081526003602052604090205490565b6108ce610c33565b6108d86000610c60565b565b606060018054610384906116ae565b61043b338383610cb2565b60086020526000908152604090208054600182018054919291610916906116ae565b80601f0160208091040260200160405190810160405280929190818152602001828054610942906116ae565b801561098f5780601f106109645761010080835404028352916020019161098f565b820191906000526020600020905b81548152906001019060200180831161097257829003601f168201915b50505060028401546003850154600486015460058701546006880154600789015460088a015460098b0154600a909b0154999a6001600160a01b039097169995985093965091949093919260ff16918b565b6109ec8484846105ac565b6106363385858585610d51565b6060610a0482610ada565b506000610a1c60408051602081019091526000815290565b90506000815111610a3c5760405180602001604052806000815250610a67565b80610a4684610e7c565b604051602001610a57929190611815565b6040516020818303038152906040525b9392505050565b6001600160a01b03918216600090815260056020908152604080832093909416825291909152205460ff1690565b610aa4610c33565b6001600160a01b038116610ace57604051631e4fbdf760e01b8152600060048201526024016105d2565b610ad781610c60565b50565b6000818152600260205260408120546001600160a01b03168061036f57604051637e27328960e01b8152600481018490526024016105d2565b6106da8383836001610f0f565b61043b828260405180602001604052806000815250611015565b6000828152600260205260408120546001600160a01b0390811690831615610b6757610b6781848661102d565b6001600160a01b03811615610ba557610b84600085600080610f0f565b6001600160a01b038116600090815260036020526040902080546000190190555b6001600160a01b03851615610bd4576001600160a01b0385166000908152600360205260409020805460010190555b60008481526002602052604080822080546001600160a01b0319166001600160a01b0389811691821790925591518793918516917fddf252ad1be2c89b69c2b068fc378daa952ba7f163c4a11628f55a4df523b3ef91a4949350505050565b6006546001600160a01b031633146108d85760405163118cdaa760e01b81523360048201526024016105d2565b600680546001600160a01b038381166001600160a01b0319831681179093556040519116919082907f8be0079c531659141344cd1fd0a4f28419497f9722a3daafe3b4186f6b6457e090600090a35050565b6001600160a01b038216610ce457604051630b61174360e31b81526001600160a01b03831660048201526024016105d2565b6001600160a01b03838116600081815260056020908152604080832094871680845294825291829020805460ff191686151590811790915591519182527f17307eab39ab6107e8899845ad3d59bd9653f200f220920489ca2b5937696c31910160405180910390a3505050565b6001600160a01b0383163b15610e7557604051630a85bd0160e11b81526001600160a01b0384169063150b7a0290610d93908890889087908790600401611844565b6020604051808303816000875af1925050508015610dce575060408051601f3d908101601f19168201909252610dcb91810190611881565b60015b610e37573d808015610dfc576040519150601f19603f3d011682016040523d82523d6000602084013e610e01565b606091505b508051600003610e2f57604051633250574960e11b81526001600160a01b03851660048201526024016105d2565b805160208201fd5b6001600160e01b03198116630a85bd0160e11b14610e7357604051633250574960e11b81526001600160a01b03851660048201526024016105d2565b505b5050505050565b60606000610e8983611091565b600101905060008167ffffffffffffffff811115610ea957610ea9611329565b6040519080825280601f01601f191660200182016040528015610ed3576020820181803683370190505b5090508181016020015b600019016f181899199a1a9b1b9c1cb0b131b232b360811b600a86061a8153600a8504945084610edd57509392505050565b8080610f2357506001600160a01b03821615155b15610fe5576000610f3384610ada565b90506001600160a01b03831615801590610f5f5750826001600160a01b0316816001600160a01b031614155b8015610f725750610f708184610a6e565b155b15610f9b5760405163a9fbf51f60e01b81526001600160a01b03841660048201526024016105d2565b8115610fe35783856001600160a01b0316826001600160a01b03167f8c5be1e5ebec7d5bd14f71427d1e84f3dd0314c0f7b2291e5b200ac8c7c3b92560405160405180910390a45b505b5050600090815260046020526040902080546001600160a01b0319166001600160a01b0392909216919091179055565b61101f8383611169565b6106da336000858585610d51565b6110388383836111ce565b6106da576001600160a01b03831661106657604051637e27328960e01b8152600481018290526024016105d2565b60405163177e802f60e01b81526001600160a01b0383166004820152602481018290526044016105d2565b60008072184f03e93ff9f4daa797ed6e38ed64bf6a1f0160401b83106110d05772184f03e93ff9f4daa797ed6e38ed64bf6a1f0160401b830492506040015b6d04ee2d6d415b85acef810000000083106110fc576d04ee2d6d415b85acef8100000000830492506020015b662386f26fc10000831061111a57662386f26fc10000830492506010015b6305f5e1008310611132576305f5e100830492506008015b612710831061114657612710830492506004015b60648310611158576064830492506002015b600a831061036f5760010192915050565b6001600160a01b03821661119357604051633250574960e11b8152600060048201526024016105d2565b60006111a183836000610b3a565b90506001600160a01b038116156106da576040516339e3563760e11b8152600060048201526024016105d2565b60006001600160a01b0383161580159061122c5750826001600160a01b0316846001600160a01b0316148061120857506112088484610a6e565b8061122c57506000828152600460205260409020546001600160a01b038481169116145b949350505050565b6001600160e01b031981168114610ad757600080fd5b60006020828403121561125c57600080fd5b8135610a6781611234565b60005b8381101561128257818101518382015260200161126a565b50506000910152565b600081518084526112a3816020860160208601611267565b601f01601f19169290920160200192915050565b602081526000610a67602083018461128b565b6000602082840312156112dc57600080fd5b5035919050565b80356001600160a01b03811681146112fa57600080fd5b919050565b6000806040838503121561131257600080fd5b61131b836112e3565b946020939093013593505050565b634e487b7160e01b600052604160045260246000fd5b600067ffffffffffffffff8084111561135a5761135a611329565b604051601f8501601f19908116603f0116810190828211818310171561138257611382611329565b8160405280935085815286868601111561139b57600080fd5b858560208301376000602087830101525050509392505050565b60008060008060008060c087890312156113ce57600080fd5b863567ffffffffffffffff8111156113e557600080fd5b8701601f810189136113f657600080fd5b6114058982356020840161133f565b9960208901359950604089013598606081013598506080810135975060a0013595509350505050565b60008060006060848603121561144357600080fd5b61144c846112e3565b925061145a602085016112e3565b9150604084013590509250925092565b6000806040838503121561147d57600080fd5b50508035926020909101359150565b6020815281516020820152600060208301516101608060408501526114b561018085018361128b565b915060408501516114d160608601826001600160a01b03169052565b5060608501516080850152608085015160a085015260a085015160c085015260c085015160e085015260e085015161010081818701528087015191505061012061151e8187018315159052565b860151610140868101919091529095015193019290925250919050565b60006020828403121561154d57600080fd5b610a67826112e3565b6000806040838503121561156957600080fd5b611572836112e3565b91506020830135801515811461158757600080fd5b809150509250929050565b60006101608d83528060208401526115ac8184018e61128b565b6001600160a01b039c909c16604084015250506060810198909852608088019690965260a087019490945260c086019290925260e085015215156101008401526101208301526101409091015292915050565b6000806000806080858703121561161557600080fd5b61161e856112e3565b935061162c602086016112e3565b925060408501359150606085013567ffffffffffffffff81111561164f57600080fd5b8501601f8101871361166057600080fd5b61166f8782356020840161133f565b91505092959194509250565b6000806040838503121561168e57600080fd5b611697836112e3565b91506116a5602084016112e3565b90509250929050565b600181811c908216806116c257607f821691505b6020821081036116e257634e487b7160e01b600052602260045260246000fd5b50919050565b60006001820161170857634e487b7160e01b600052601160045260246000fd5b5060010190565b601f8211156106da57600081815260208120601f850160051c810160208610156117365750805b601f850160051c820191505b81811015610e7357828155600101611742565b815167ffffffffffffffff81111561176f5761176f611329565b6117838161177d84546116ae565b8461170f565b602080601f8311600181146117b857600084156117a05750858301515b600019600386901b1c1916600185901b178555610e73565b600085815260208120601f198616915b828110156117e7578886015182559484019460019091019084016117c8565b50858210156118055787850151600019600388901b60f8161c191681555b5050505050600190811b01905550565b60008351611827818460208801611267565b83519083019061183b818360208801611267565b01949350505050565b6001600160a01b03858116825284166020820152604081018390526080606082018190526000906118779083018461128b565b9695505050505050565b60006020828403121561189357600080fd5b8151610a678161123456fea26469706673582212201606c440b32ca4b49f37e14a7b4e45354b9558179328ae6afec119a5d48d1d9f64736f6c63430008140033",
  "linkReferences": {},
  "deployedLinkReferences": {}
}