{
  "_format": "hh-sol-artifact-1",
  "contractName": "ReputationGuardian",
  "sourceName": "contracts/layer7/enforcement/ReputationGuardian.sol",
  "abi": [
    {
      "inputs": [],
      "stateMutability": "nonpayable",
      "type": "constructor"
    },
    {
      "inputs": [],
      "name": "AccessControlBadConfirmation",
      "type": "error"
    },
    {
      "inputs": [
        {
          "internalType": "address",
          "name": "account",
          "type": "address"
        },
        {
          "internalType": "bytes32",
          "name": "neededRole",
          "type": "bytes32"
        }
      ],
      "name": "AccessControlUnauthorizedAccount",
      "type": "error"
    },
    {
      "anonymous": false,
      "inputs": [
        {
          "indexed": true,
          "internalType": "uint256",
          "name": "entityId",
          "type": "uint256"
        },
        {
          "indexed": false,
          "internalType": "int256",
          "name": "oldRep",
          "type": "int256"
        },
        {
          "indexed": false,
          "internalType": "int256",
          "name": "newRep",
          "type": "int256"
        }
      ],
      "name": "ReputationDecayed",
      "type": "event"
    },
    {
      "anonymous": false,
      "inputs": [
        {
          "indexed": true,
          "internalType": "uint256",
          "name": "entityId",
          "type": "uint256"
        },
        {
          "indexed": false,
          "internalType": "string",
          "name": "reason",
          "type": "string"
        }
      ],
      "name": "ReputationRestricted",
      "type": "event"
    },
    {
      "anonymous": false,
      "inputs": [
        {
          "indexed": true,
          "internalType": "uint256",
          "name": "entityId",
          "type": "uint256"
        }
      ],
      "name": "RestrictionLifted",
      "type": "event"
    },
    {
      "anonymous": false,
      "inputs": [
        {
          "indexed": true,
          "internalType": "bytes32",
          "name": "role",
          "type": "bytes32"
        },
        {
          "indexed": true,
          "internalType": "bytes32",
          "name": "previousAdminRole",
          "type": "bytes32"
        },
        {
          "indexed": true,
          "internalType": "bytes32",
          "name": "newAdminRole",
          "type": "bytes32"
        }
      ],
      "name": "RoleAdminChanged",
      "type": "event"
    },
    {
      "anonymous": false,
      "inputs": [
        {
          "indexed": true,
          "internalType": "bytes32",
          "name": "role",
          "type": "bytes32"
        },
        {
          "indexed": true,
          "internalType": "address",
          "name": "account",
          "type": "address"
        },
        {
          "indexed": true,
          "internalType": "address",
          "name": "sender",
          "type": "address"
        }
      ],
      "name": "RoleGranted",
      "type": "event"
    },
    {
      "anonymous": false,
      "inputs": [
        {
          "indexed": true,
          "internalType": "bytes32",
          "name": "role",
          "type": "bytes32"
        },
        {
          "indexed": true,
          "internalType": "address",
          "name": "account",
          "type": "address"
        },
        {
          "indexed": true,
          "internalType": "address",
          "name": "sender",
          "type": "address"
        }
      ],
      "name": "RoleRevoked",
      "type": "event"
    },
    {
      "anonymous": false,
      "inputs": [
        {
          "indexed": true,
          "internalType": "uint256",
          "name": "entityId",
          "type": "uint256"
        },
        {
          "indexed": false,
          "internalType": "enum ReputationGuardian.ViolationType",
          "name": "violationType",
          "type": "uint8"
        },
        {
          "indexed": false,
          "internalType": "int256",
          "name": "penalty",
          "type": "int256"
        }
      ],
      "name": "ViolationRecorded",
      "type": "event"
    },
    {
      "inputs": [],
      "name": "DEFAULT_ADMIN_ROLE",
      "outputs": [
        {
          "internalType": "bytes32",
          "name": "",
          "type": "bytes32"
        }
      ],
      "stateMutability": "view",
      "type": "function"
    },
    {
      "inputs": [],
      "name": "GUARDIAN_ROLE",
      "outputs": [
        {
          "internalType": "bytes32",
          "name": "",
          "type": "bytes32"
        }
      ],
      "stateMutability": "view",
      "type": "function"
    },
    {
      "inputs": [
        {
          "internalType": "uint256",
          "name": "entityId",
          "type": "uint256"
        }
      ],
      "name": "applyDecay",
      "outputs": [],
      "stateMutability": "nonpayable",
      "type": "function"
    },
    {
      "inputs": [
        {
          "internalType": "bytes32",
          "name": "role",
          "type": "bytes32"
        }
      ],
      "name": "getRoleAdmin",
      "outputs": [
        {
          "internalType": "bytes32",
          "name": "",
          "type": "bytes32"
        }
      ],
      "stateMutability": "view",
      "type": "function"
    },
    {
      "inputs": [
        {
          "internalType": "uint256",
          "name": "entityId",
          "type": "uint256"
        }
      ],
      "name": "getViolations",
      "outputs": [
        {
          "components": [
            {
              "internalType": "uint256",
              "name": "violationId",
              "type": "uint256"
            },
            {
              "internalType": "uint256",
              "name": "entityId",
              "type": "uint256"
            },
            {
              "internalType": "enum ReputationGuardian.ViolationType",
              "name": "violationType",
              "type": "uint8"
            },
            {
              "internalType": "int256",
              "name": "penaltyAmount",
              "type": "int256"
            },
            {
              "internalType": "uint256",
              "name": "timestamp",
              "type": "uint256"
            },
            {
              "internalType": "string",
              "name": "description",
              "type": "string"
            }
          ],
          "internalType": "struct ReputationGuardian.Violation[]",
          "name": "",
          "type": "tuple[]"
        }
      ],
      "stateMutability": "view",
      "type": "function"
    },
    {
      "inputs": [
        {
          "internalType": "bytes32",
          "name": "role",
          "type": "bytes32"
        },
        {
          "internalType": "address",
          "name": "account",
          "type": "address"
        }
      ],
      "name": "grantRole",
      "outputs": [],
      "stateMutability": "nonpayable",
      "type": "function"
    },
    {
      "inputs": [
        {
          "internalType": "bytes32",
          "name": "role",
          "type": "bytes32"
        },
        {
          "internalType": "address",
          "name": "account",
          "type": "address"
        }
      ],
      "name": "hasRole",
      "outputs": [
        {
          "internalType": "bool",
          "name": "",
          "type": "bool"
        }
      ],
      "stateMutability": "view",
      "type": "function"
    },
    {
      "inputs": [
        {
          "internalType": "uint256",
          "name": "entityId",
          "type": "uint256"
        }
      ],
      "name": "liftRestriction",
      "outputs": [],
      "stateMutability": "nonpayable",
      "type": "function"
    },
    {
      "inputs": [
        {
          "internalType": "uint256",
          "name": "entityId",
          "type": "uint256"
        },
        {
          "internalType": "int256",
          "name": "requiredReputation",
          "type": "int256"
        }
      ],
      "name": "meetsReputationRequirement",
      "outputs": [
        {
          "internalType": "bool",
          "name": "",
          "type": "bool"
        }
      ],
      "stateMutability": "view",
      "type": "function"
    },
    {
      "inputs": [
        {
          "internalType": "uint256",
          "name": "entityId",
          "type": "uint256"
        },
        {
          "internalType": "enum ReputationGuardian.ViolationType",
          "name": "violationType",
          "type": "uint8"
        },
        {
          "internalType": "string",
          "name": "description",
          "type": "string"
        }
      ],
      "name": "recordViolation",
      "outputs": [],
      "stateMutability": "nonpayable",
      "type": "function"
    },
    {
      "inputs": [
        {
          "internalType": "bytes32",
          "name": "role",
          "type": "bytes32"
        },
        {
          "internalType": "address",
          "name": "callerConfirmation",
          "type": "address"
        }
      ],
      "name": "renounceRole",
      "outputs": [],
      "stateMutability": "nonpayable",
      "type": "function"
    },
    {
      "inputs": [
        {
          "internalType": "uint256",
          "name": "",
          "type": "uint256"
        }
      ],
      "name": "reputationStatus",
      "outputs": [
        {
          "internalType": "int256",
          "name": "currentReputation",
          "type": "int256"
        },
        {
          "internalType": "int256",
          "name": "baseReputation",
          "type": "int256"
        },
        {
          "internalType": "uint256",
          "name": "lastDecayTime",
          "type": "uint256"
        },
        {
          "internalType": "uint256",
          "name": "violationCount",
          "type": "uint256"
        },
        {
          "internalType": "bool",
          "name": "isRestricted",
          "type": "bool"
        },
        {
          "internalType": "string",
          "name": "restrictionReason",
          "type": "string"
        }
      ],
      "stateMutability": "view",
      "type": "function"
    },
    {
      "inputs": [
        {
          "internalType": "uint256",
          "name": "entityId",
          "type": "uint256"
        },
        {
          "internalType": "string",
          "name": "reason",
          "type": "string"
        }
      ],
      "name": "restrictEntity",
      "outputs": [],
      "stateMutability": "nonpayable",
      "type": "function"
    },
    {
      "inputs": [
        {
          "internalType": "bytes32",
          "name": "role",
          "type": "bytes32"
        },
        {
          "internalType": "address",
          "name": "account",
          "type": "address"
        }
      ],
      "name": "revokeRole",
      "outputs": [],
      "stateMutability": "nonpayable",
      "type": "function"
    },
    {
      "inputs": [],
      "name": "rules",
      "outputs": [
        {
          "internalType": "int256",
          "name": "minimumReputation",
          "type": "int256"
        },
        {
          "internalType": "int256",
          "name": "maximumReputation",
          "type": "int256"
        },
        {
          "internalType": "uint256",
          "name": "decayRate",
          "type": "uint256"
        },
        {
          "internalType": "uint256",
          "name": "decayInterval",
          "type": "uint256"
        },
        {
          "internalType": "bool",
          "name": "decayEnabled",
          "type": "bool"
        },
        {
          "internalType": "uint256",
          "name": "penaltyMultiplier",
          "type": "uint256"
        }
      ],
      "stateMutability": "view",
      "type": "function"
    },
    {
      "inputs": [
        {
          "internalType": "bytes4",
          "name": "interfaceId",
          "type": "bytes4"
        }
      ],
      "name": "supportsInterface",
      "outputs": [
        {
          "internalType": "bool",
          "name": "",
          "type": "bool"
        }
      ],
      "stateMutability": "view",
      "type": "function"
    },
    {
      "inputs": [
        {
          "components": [
            {
              "internalType": "int256",
              "name": "minimumReputation",
              "type": "int256"
            },
            {
              "internalType": "int256",
              "name": "maximumReputation",
              "type": "int256"
            },
            {
              "internalType": "uint256",
              "name": "decayRate",
              "type": "uint256"
            },
            {
              "internalType": "uint256",
              "name": "decayInterval",
              "type": "uint256"
            },
            {
              "internalType": "bool",
              "name": "decayEnabled",
              "type": "bool"
            },
            {
              "internalType": "uint256",
              "name": "penaltyMultiplier",
              "type": "uint256"
            }
          ],
          "internalType": "struct ReputationGuardian.ReputationRules",
          "name": "newRules",
          "type": "tuple"
        }
      ],
      "name": "updateRules",
      "outputs": [],
      "stateMutability": "nonpayable",
      "type": "function"
    },
    {
      "inputs": [],
      "name": "violationCount",
      "outputs": [
        {
          "internalType": "uint256",
          "name": "",
          "type": "uint256"
        }
      ],
      "stateMutability": "view",
      "type": "function"
    },
    {
      "inputs": [
        {
          "internalType": "uint256",
          "name": "",
          "type": "uint256"
        },
        {
          "internalType": "uint256",
          "name": "",
          "type": "uint256"
        }
      ],
      "name": "violations",
      "outputs": [
        {
          "internalType": "uint256",
          "name": "violationId",
          "type": "uint256"
        },
        {
          "internalType": "uint256",
          "name": "entityId",
          "type": "uint256"
        },
        {
          "internalType": "enum ReputationGuardian.ViolationType",
          "name": "violationType",
          "type": "uint8"
        },
        {
          "internalType": "int256",
          "name": "penaltyAmount",
          "type": "int256"
        },
        {
          "internalType": "uint256",
          "name": "timestamp",
          "type": "uint256"
        },
        {
          "internalType": "string",
          "name": "description",
          "type": "string"
        }
      ],
      "stateMutability": "view",
      "type": "function"
    }
  ],
  "bytecode": "0x6080604052346100ad57610012336100b2565b5061001c33610130565b5060405160c081016001600160401b03811182821017610097576040526063198082526103e890816020840152600a6040840152600260a06201518094856060820152600160808201520152600155600255600a600355600455600160ff196005541617600555600260065560405161140d90816101d18239f35b634e487b7160e01b600052604160045260246000fd5b600080fd5b6001600160a01b031660008181527fad3228b676f7d3cd4284a5443f17f1962b36e491b30a40b2405849e597ba5fb5602052604081205490919060ff1661012c57818052816020526040822081835260205260408220600160ff1982541617905533916000805160206115de8339815191528180a4600190565b5090565b6001600160a01b031660008181527f8a40f0b47fdc2a0ce293b772acfc7508c8315a4d462786c1adc3a56f92ca2d0560205260408120549091907f55435dd261a4b9b3364963f7738a7a662ad9c84396d64be3365284bb7f0a50419060ff166101cb57808352826020526040832082845260205260408320600160ff198254161790556000805160206115de833981519152339380a4600190565b50509056fe6080604081815260048036101561001557600080fd5b600092833560e01c90816301ffc9a714610ad857508063183d1b2714610ab3578063248a9ca314610a8a57806324ea54f414610a4f5780632f2ff15d14610a3157806336568abe146109cf578063394468721461093f5780633f405505146105cf57806352388941146105b057806352f6747a1461056257806391d148541461051c578063a217fddf14610501578063af0c5ef214610360578063af8905411461031b578063afb5a63e146102a5578063c16e182f14610209578063c9983791146101c3578063d547741f1461018a5763dad65880146100f457600080fd5b34610186576020600319360112610186576005816000923593610115610ebe565b8486526007602052852090810160ff198154169055016101358154610d18565b601f8111610167575b50557fe116551a0bf1068c3ea074487fb3acce70a13a5f8d32427f0c6232aea11d41fd8280a280f35b8185526020852061018091601f0160051c8101906111b9565b3861013e565b8280fd5b5050346101bf5760016101bb916101b66101a336610b77565b9390928387528660205286200154610ef8565b610faa565b5080f35b5080fd5b509034610186576003193601126101bf576024359067ffffffffffffffff8211610186576101f76102069236908301610c22565b90610200610e2b565b3561126d565b80f35b5091346102a257816003193601126102a257602435908335815260086020528281209081548310156102a2575061029e9161024391610df9565b509182549260018101549461028360ff60028401541661026e60056003860154948601549501610d52565b94805198899889526020890152870190610c97565b6060850152608084015260c060a084015260c0830190610cba565b0390f35b80fd5b5091346102a25760206003193601126102a2578161029e91843581526007602052209182549260018101549460028201546102ee600560ff600386015494860154169401610d52565b9380519788978852602088015286015260608501521515608084015260c060a084015260c0830190610cba565b50903461018657806003193601126101865760ff816020948435815260078652209283015416159182610352575b50519015158152f35b546024351315915038610349565b5091346102a257602090816003193601126102a25783358152600882528281209182549167ffffffffffffffff83116104ee57919084959451916005956103ab8383891b0185610be1565b81845282840190819686528386209086925b84841061047e57505050505085519481860192828752518093528683818801921b8701019493965b8388106103f25786860387f35b9091929394838061046d837fffffffffffffffffffffffffffffffffffffffffffffffffffffffffffffffc08b6001960301875289518051825283810151848301526104448782015188840190610c97565b606080820151908301526080808201519083015260a0809101519160c080928201520190610cba565b9701930197019690939291936103e5565b6006866001928d6104d48e9f9e6104ba839e9c9d9e519361049e85610baf565b8a548552888b01548786015260ff60028c0154169085016111ad565b600389015460608401528789015460808401528801610d52565b60a0820152815201930193019291999899969594966103bd565b80604187634e487b7160e01b6024945252fd5b5050346101bf57816003193601126101bf5751908152602090f35b5050346101bf5760ff8160209361053236610b77565b90825281865273ffffffffffffffffffffffffffffffffffffffff83832091168252855220541690519015158152f35b503461018657826003193601126101865760c09250600154916002549160035490549060ff6005541692600654948151968752602087015285015260608401521515608083015260a0820152f35b5050346101bf57816003193601126101bf576020906009549051908152f35b509190346101bf5760606003193601126101bf578235602435600681101561093b5767ffffffffffffffff604435818111610937576106119036908801610c22565b9161061a610e2b565b61062560095461119e565b908160095561063f61063682611215565b6006549061102d565b86519261064b84610baf565b83526020948584019387855288810161066485826111ad565b60608201848152608083019142835260a084019485528a8d5260088a528b8d2097885468010000000000000000811015610923576106a99060019a8b82018155610df9565b95909561091057518555518885015560028401905160068110156108fb579060059493929160ff60ff198354169116179055516003830155518c8201550190518051908682116108e85791818a96959361070f8b96946107098554610d18565b856111d0565b89908d601f841160011461082857927f1c3cf2b0575aa424c014be2a22d1cd00b1cc3237c3143021815b5c418efbc1c1969492819260039b97959261081d575b5050600019828a1b928b1b1c19161790555b848c5260078952828c20958787019661077a885461119e565b809855610788838254611082565b9182825554809212610815575b50506107a383518093610c97565b88820152a210156107b2578480f35b835193848101918211858310176108025752601383527f4d756c7469706c652076696f6c6174696f6e7300000000000000000000000000908301529192506107f99161126d565b80388080808480f35b602486604189634e487b7160e01b835252fd5b553880610795565b01519050388061074f565b907fffffffffffffffffffffffffffffffffffffffffffffffffffffffffffffffe084939a97969594168483528c8320925b8d8282106108bd5750509160039a84927f1c3cf2b0575aa424c014be2a22d1cd00b1cc3237c3143021815b5c418efbc1c199989796958c95106108a5575b505050811b019055610761565b015160001960f8848e1b161c19169055388080610898565b9294979a9b969950949750918a82918786015181550195019301918c9794918e97949a99969361085a565b60248b60418e634e487b7160e01b835252fd5b505060248c60218f634e487b7160e01b835252fd5b8f8f80602492634e487b7160e01b825252fd5b8f8f6041602492634e487b7160e01b835252fd5b8580fd5b8380fd5b5090346101865760c06003193601126101865780519161095e83610baf565b803583526020830191602435835283016044358152606084019060643582526084359384151585036109cb576080860194855260a086019560a43587526109a3610ebe565b51600155516002555160035551905551151560ff60ff19600554169116176005555160065580f35b8680fd5b509190346101bf576109e036610b77565b913373ffffffffffffffffffffffffffffffffffffffff841603610a095750906101bb91610faa565b8490517f6697b232000000000000000000000000000000000000000000000000000000008152fd5b5050346101bf5760016101bb91610a4a6101a336610b77565b610f1e565b5050346101bf57816003193601126101bf57602090517f55435dd261a4b9b3364963f7738a7a662ad9c84396d64be3365284bb7f0a50418152f35b503461018657602060031936011261018657816020936001923581528085522001549051908152f35b8382346101bf5760206003193601126101bf5761020690610ad2610e2b565b3561109b565b9250503461018657602060031936011261018657357fffffffff00000000000000000000000000000000000000000000000000000000811680910361018657602092507f7965db0b000000000000000000000000000000000000000000000000000000008114908115610b4d575b5015158152f35b7f01ffc9a70000000000000000000000000000000000000000000000000000000091501438610b46565b6003196040910112610baa576004359060243573ffffffffffffffffffffffffffffffffffffffff81168103610baa5790565b600080fd5b60c0810190811067ffffffffffffffff821117610bcb57604052565b634e487b7160e01b600052604160045260246000fd5b90601f7fffffffffffffffffffffffffffffffffffffffffffffffffffffffffffffffe0910116810190811067ffffffffffffffff821117610bcb57604052565b81601f82011215610baa5780359067ffffffffffffffff8211610bcb5760405192610c7560207fffffffffffffffffffffffffffffffffffffffffffffffffffffffffffffffe0601f8601160185610be1565b82845260208383010111610baa57816000926020809301838601378301015290565b906006821015610ca45752565b634e487b7160e01b600052602160045260246000fd5b919082519283825260005b848110610d045750507fffffffffffffffffffffffffffffffffffffffffffffffffffffffffffffffe0601f8460006020809697860101520116010190565b602081830181015184830182015201610cc5565b90600182811c92168015610d48575b6020831014610d3257565b634e487b7160e01b600052602260045260246000fd5b91607f1691610d27565b9060405191826000825492610d6684610d18565b908184526001948581169081600014610dd55750600114610d92575b5050610d9092500383610be1565b565b9093915060005260209081600020936000915b818310610dbd575050610d9093508201013880610d82565b85548884018501529485019487945091830191610da5565b9050610d9095506020935060ff1991501682840152151560051b8201013880610d82565b8054821015610e15576000526006602060002091020190600090565b634e487b7160e01b600052603260045260246000fd5b3360009081527f8a40f0b47fdc2a0ce293b772acfc7508c8315a4d462786c1adc3a56f92ca2d0560205260409020547f55435dd261a4b9b3364963f7738a7a662ad9c84396d64be3365284bb7f0a50419060ff1615610e875750565b604490604051907fe2517d3f0000000000000000000000000000000000000000000000000000000082523360048301526024820152fd5b3360009081527fad3228b676f7d3cd4284a5443f17f1962b36e491b30a40b2405849e597ba5fb5602052604081205460ff1615610e875750565b80600052600060205260406000203360005260205260ff6040600020541615610e875750565b906000918083528260205273ffffffffffffffffffffffffffffffffffffffff6040842092169182845260205260ff60408420541615600014610fa557808352826020526040832082845260205260408320600160ff198254161790557f2f8788117e7eff1d82e926ec794901d17c78024a50270940304540a733656f0d339380a4600190565b505090565b906000918083528260205273ffffffffffffffffffffffffffffffffffffffff6040842092169182845260205260ff604084205416600014610fa55780835282602052604083208284526020526040832060ff1981541690557ff6391f5c32d9c69d2a47ea670b442974b53935d1edc7fd64eb21e047a839171b339380a4600190565b8181029291600082127f800000000000000000000000000000000000000000000000000000000000000082141661106c57818405149015171561106c57565b634e487b7160e01b600052601160045260246000fd5b8181039291600013801582851316918412161761106c57565b600081815260076020526040812060ff600554161561119957600281018054926004549081850180861161118557421061117d5783549442039042821161116957821561115557509161112d612710611126604096947f64855d8e26c5d5c83bb8c7d5a1b7a1d8d87ab2b1b7746674a6b7373ba5e629159896046111216003548861102d565b61102d565b0584611082565b9160015480841261114d575b5082905542905582519182526020820152a2565b925038611139565b80634e487b7160e01b602492526012600452fd5b80634e487b7160e01b602492526011600452fd5b505050505050565b602482634e487b7160e01b81526011600452fd5b505050565b600019811461106c5760010190565b6006821015610ca45752565b8181106111c4575050565b600081556001016111b9565b9190601f81116111df57505050565b610d90926000526020600020906020601f840160051c8301931061120b575b601f0160051c01906111b9565b90915081906111fe565b6006811015610ca45760038114611267578015611261576004811461125b576005811461125b57600281146112555760011461125057600a90565b601990565b50603290565b50606490565b50609690565b5060c890565b91909160009281845260206007815260408520600560048201916001928360ff19825416179055019083519067ffffffffffffffff82116113c3576112b6826107098554610d18565b8397601f831160011461132657827fedd56d8f81bcc3d073382258a50df39d5eb5393727df17b1b5daa702c3f1aac497989981611319575b5060001991921b9260031b1c19161790555b611314604051928284938452830190610cba565b0390a2565b87015191506000196112ee565b977fffffffffffffffffffffffffffffffffffffffffffffffffffffffffffffffe083929316848a52858a20995b8181106113ae575090827fedd56d8f81bcc3d073382258a50df39d5eb5393727df17b1b5daa702c3f1aac498999a9210611395575b5050811b019055611300565b86015160001960f88460031b161c191690553880611389565b878301518b5599840199918601918601611354565b602488634e487b7160e01b81526041600452fdfea2646970667358221220c970f7e5fdcef25b141d2accf8b65aa7702e118f5d871365c15f2631de2a93b464736f6c634300081400332f8788117e7eff1d82e926ec794901d17c78024a50270940304540a733656f0d",
  "linkReferences": {},
  "deployedLinkReferences": {}
}