{
  "_format": "hh-sol-artifact-1",
  "contractName": "CardMarketplace",
  "sourceName": "contracts/layer5/CardMarketplace.sol",
  "abi": [
    {
      "inputs": [
        {
          "internalType": "address",
          "name": "_treasury",
          "type": "address"
        }
      ],
      "stateMutability": "nonpayable",
      "type": "constructor"
    },
    {
      "inputs": [],
      "name": "AccessControlBadConfirmation",
      "type": "error"
    },
    {
      "inputs": [
        {
          "internalType": "address",
          "name": "account",
          "type": "address"
        },
        {
          "internalType": "bytes32",
          "name": "neededRole",
          "type": "bytes32"
        }
      ],
      "name": "AccessControlUnauthorizedAccount",
      "type": "error"
    },
    {
      "inputs": [],
      "name": "ReentrancyGuardReentrantCall",
      "type": "error"
    },
    {
      "anonymous": false,
      "inputs": [
        {
          "indexed": true,
          "internalType": "uint256",
          "name": "listingId",
          "type": "uint256"
        },
        {
          "indexed": true,
          "internalType": "address",
          "name": "seller",
          "type": "address"
        },
        {
          "indexed": false,
          "internalType": "address",
          "name": "nftContract",
          "type": "address"
        },
        {
          "indexed": false,
          "internalType": "uint256",
          "name": "tokenId",
          "type": "uint256"
        },
        {
          "indexed": false,
          "internalType": "uint256",
          "name": "price",
          "type": "uint256"
        }
      ],
      "name": "Listed",
      "type": "event"
    },
    {
      "anonymous": false,
      "inputs": [
        {
          "indexed": true,
          "internalType": "uint256",
          "name": "listingId",
          "type": "uint256"
        }
      ],
      "name": "ListingCancelled",
      "type": "event"
    },
    {
      "anonymous": false,
      "inputs": [
        {
          "indexed": true,
          "internalType": "uint256",
          "name": "listingId",
          "type": "uint256"
        },
        {
          "indexed": false,
          "internalType": "uint256",
          "name": "offerIndex",
          "type": "uint256"
        }
      ],
      "name": "OfferAccepted",
      "type": "event"
    },
    {
      "anonymous": false,
      "inputs": [
        {
          "indexed": true,
          "internalType": "uint256",
          "name": "listingId",
          "type": "uint256"
        },
        {
          "indexed": true,
          "internalType": "address",
          "name": "offerer",
          "type": "address"
        },
        {
          "indexed": false,
          "internalType": "uint256",
          "name": "amount",
          "type": "uint256"
        }
      ],
      "name": "OfferMade",
      "type": "event"
    },
    {
      "anonymous": false,
      "inputs": [
        {
          "indexed": true,
          "internalType": "bytes32",
          "name": "role",
          "type": "bytes32"
        },
        {
          "indexed": true,
          "internalType": "bytes32",
          "name": "previousAdminRole",
          "type": "bytes32"
        },
        {
          "indexed": true,
          "internalType": "bytes32",
          "name": "newAdminRole",
          "type": "bytes32"
        }
      ],
      "name": "RoleAdminChanged",
      "type": "event"
    },
    {
      "anonymous": false,
      "inputs": [
        {
          "indexed": true,
          "internalType": "bytes32",
          "name": "role",
          "type": "bytes32"
        },
        {
          "indexed": true,
          "internalType": "address",
          "name": "account",
          "type": "address"
        },
        {
          "indexed": true,
          "internalType": "address",
          "name": "sender",
          "type": "address"
        }
      ],
      "name": "RoleGranted",
      "type": "event"
    },
    {
      "anonymous": false,
      "inputs": [
        {
          "indexed": true,
          "internalType": "bytes32",
          "name": "role",
          "type": "bytes32"
        },
        {
          "indexed": true,
          "internalType": "address",
          "name": "account",
          "type": "address"
        },
        {
          "indexed": true,
          "internalType": "address",
          "name": "sender",
          "type": "address"
        }
      ],
      "name": "RoleRevoked",
      "type": "event"
    },
    {
      "anonymous": false,
      "inputs": [
        {
          "indexed": true,
          "internalType": "uint256",
          "name": "listingId",
          "type": "uint256"
        },
        {
          "indexed": true,
          "internalType": "address",
          "name": "buyer",
          "type": "address"
        },
        {
          "indexed": false,
          "internalType": "uint256",
          "name": "quantity",
          "type": "uint256"
        },
        {
          "indexed": false,
          "internalType": "uint256",
          "name": "totalPrice",
          "type": "uint256"
        }
      ],
      "name": "Sold",
      "type": "event"
    },
    {
      "inputs": [],
      "name": "DEFAULT_ADMIN_ROLE",
      "outputs": [
        {
          "internalType": "bytes32",
          "name": "",
          "type": "bytes32"
        }
      ],
      "stateMutability": "view",
      "type": "function"
    },
    {
      "inputs": [],
      "name": "OPERATOR_ROLE",
      "outputs": [
        {
          "internalType": "bytes32",
          "name": "",
          "type": "bytes32"
        }
      ],
      "stateMutability": "view",
      "type": "function"
    },
    {
      "inputs": [
        {
          "internalType": "uint256",
          "name": "listingId",
          "type": "uint256"
        },
        {
          "internalType": "uint256",
          "name": "offerIndex",
          "type": "uint256"
        }
      ],
      "name": "acceptOffer",
      "outputs": [],
      "stateMutability": "nonpayable",
      "type": "function"
    },
    {
      "inputs": [
        {
          "internalType": "uint256",
          "name": "listingId",
          "type": "uint256"
        },
        {
          "internalType": "uint256",
          "name": "quantity",
          "type": "uint256"
        }
      ],
      "name": "buy",
      "outputs": [],
      "stateMutability": "payable",
      "type": "function"
    },
    {
      "inputs": [
        {
          "internalType": "address",
          "name": "",
          "type": "address"
        },
        {
          "internalType": "uint256",
          "name": "",
          "type": "uint256"
        }
      ],
      "name": "buyerHistory",
      "outputs": [
        {
          "internalType": "uint256",
          "name": "",
          "type": "uint256"
        }
      ],
      "stateMutability": "view",
      "type": "function"
    },
    {
      "inputs": [
        {
          "internalType": "uint256",
          "name": "listingId",
          "type": "uint256"
        }
      ],
      "name": "cancelListing",
      "outputs": [],
      "stateMutability": "nonpayable",
      "type": "function"
    },
    {
      "inputs": [
        {
          "internalType": "address",
          "name": "",
          "type": "address"
        },
        {
          "internalType": "uint256",
          "name": "",
          "type": "uint256"
        }
      ],
      "name": "creatorOf",
      "outputs": [
        {
          "internalType": "address",
          "name": "",
          "type": "address"
        }
      ],
      "stateMutability": "view",
      "type": "function"
    },
    {
      "inputs": [],
      "name": "creatorRoyaltyPercent",
      "outputs": [
        {
          "internalType": "uint256",
          "name": "",
          "type": "uint256"
        }
      ],
      "stateMutability": "view",
      "type": "function"
    },
    {
      "inputs": [
        {
          "internalType": "address",
          "name": "buyer",
          "type": "address"
        }
      ],
      "name": "getBuyerHistory",
      "outputs": [
        {
          "internalType": "uint256[]",
          "name": "",
          "type": "uint256[]"
        }
      ],
      "stateMutability": "view",
      "type": "function"
    },
    {
      "inputs": [
        {
          "internalType": "uint256",
          "name": "listingId",
          "type": "uint256"
        }
      ],
      "name": "getListingOffers",
      "outputs": [
        {
          "components": [
            {
              "internalType": "address",
              "name": "offerer",
              "type": "address"
            },
            {
              "internalType": "uint256",
              "name": "amount",
              "type": "uint256"
            },
            {
              "internalType": "uint256",
              "name": "quantity",
              "type": "uint256"
            },
            {
              "internalType": "uint256",
              "name": "timestamp",
              "type": "uint256"
            },
            {
              "internalType": "bool",
              "name": "active",
              "type": "bool"
            }
          ],
          "internalType": "struct CardMarketplace.Offer[]",
          "name": "",
          "type": "tuple[]"
        }
      ],
      "stateMutability": "view",
      "type": "function"
    },
    {
      "inputs": [
        {
          "internalType": "bytes32",
          "name": "role",
          "type": "bytes32"
        }
      ],
      "name": "getRoleAdmin",
      "outputs": [
        {
          "internalType": "bytes32",
          "name": "",
          "type": "bytes32"
        }
      ],
      "stateMutability": "view",
      "type": "function"
    },
    {
      "inputs": [
        {
          "internalType": "address",
          "name": "seller",
          "type": "address"
        }
      ],
      "name": "getSellerListings",
      "outputs": [
        {
          "internalType": "uint256[]",
          "name": "",
          "type": "uint256[]"
        }
      ],
      "stateMutability": "view",
      "type": "function"
    },
    {
      "inputs": [
        {
          "internalType": "bytes32",
          "name": "role",
          "type": "bytes32"
        },
        {
          "internalType": "address",
          "name": "account",
          "type": "address"
        }
      ],
      "name": "grantRole",
      "outputs": [],
      "stateMutability": "nonpayable",
      "type": "function"
    },
    {
      "inputs": [
        {
          "internalType": "bytes32",
          "name": "role",
          "type": "bytes32"
        },
        {
          "internalType": "address",
          "name": "account",
          "type": "address"
        }
      ],
      "name": "hasRole",
      "outputs": [
        {
          "internalType": "bool",
          "name": "",
          "type": "bool"
        }
      ],
      "stateMutability": "view",
      "type": "function"
    },
    {
      "inputs": [
        {
          "internalType": "address",
          "name": "nftContract",
          "type": "address"
        },
        {
          "internalType": "uint256",
          "name": "tokenId",
          "type": "uint256"
        },
        {
          "internalType": "uint256",
          "name": "quantity",
          "type": "uint256"
        },
        {
          "internalType": "uint256",
          "name": "pricePerUnit",
          "type": "uint256"
        },
        {
          "internalType": "uint256",
          "name": "duration",
          "type": "uint256"
        },
        {
          "internalType": "string",
          "name": "category",
          "type": "string"
        }
      ],
      "name": "listERC1155",
      "outputs": [
        {
          "internalType": "uint256",
          "name": "",
          "type": "uint256"
        }
      ],
      "stateMutability": "nonpayable",
      "type": "function"
    },
    {
      "inputs": [
        {
          "internalType": "address",
          "name": "nftContract",
          "type": "address"
        },
        {
          "internalType": "uint256",
          "name": "tokenId",
          "type": "uint256"
        },
        {
          "internalType": "uint256",
          "name": "price",
          "type": "uint256"
        },
        {
          "internalType": "uint256",
          "name": "duration",
          "type": "uint256"
        },
        {
          "internalType": "string",
          "name": "category",
          "type": "string"
        }
      ],
      "name": "listERC721",
      "outputs": [
        {
          "internalType": "uint256",
          "name": "",
          "type": "uint256"
        }
      ],
      "stateMutability": "nonpayable",
      "type": "function"
    },
    {
      "inputs": [
        {
          "internalType": "uint256",
          "name": "",
          "type": "uint256"
        }
      ],
      "name": "listings",
      "outputs": [
        {
          "internalType": "uint256",
          "name": "listingId",
          "type": "uint256"
        },
        {
          "internalType": "address",
          "name": "nftContract",
          "type": "address"
        },
        {
          "internalType": "uint256",
          "name": "tokenId",
          "type": "uint256"
        },
        {
          "internalType": "uint256",
          "name": "quantity",
          "type": "uint256"
        },
        {
          "internalType": "enum CardMarketplace.TokenStandard",
          "name": "standard",
          "type": "uint8"
        },
        {
          "internalType": "address",
          "name": "seller",
          "type": "address"
        },
        {
          "internalType": "uint256",
          "name": "pricePerUnit",
          "type": "uint256"
        },
        {
          "internalType": "enum CardMarketplace.ListingStatus",
          "name": "status",
          "type": "uint8"
        },
        {
          "internalType": "uint256",
          "name": "createdAt",
          "type": "uint256"
        },
        {
          "internalType": "uint256",
          "name": "expiresAt",
          "type": "uint256"
        },
        {
          "internalType": "string",
          "name": "category",
          "type": "string"
        }
      ],
      "stateMutability": "view",
      "type": "function"
    },
    {
      "inputs": [
        {
          "internalType": "uint256",
          "name": "listingId",
          "type": "uint256"
        },
        {
          "internalType": "uint256",
          "name": "quantity",
          "type": "uint256"
        }
      ],
      "name": "makeOffer",
      "outputs": [],
      "stateMutability": "payable",
      "type": "function"
    },
    {
      "inputs": [
        {
          "internalType": "uint256",
          "name": "",
          "type": "uint256"
        },
        {
          "internalType": "uint256",
          "name": "",
          "type": "uint256"
        }
      ],
      "name": "offers",
      "outputs": [
        {
          "internalType": "address",
          "name": "offerer",
          "type": "address"
        },
        {
          "internalType": "uint256",
          "name": "amount",
          "type": "uint256"
        },
        {
          "internalType": "uint256",
          "name": "quantity",
          "type": "uint256"
        },
        {
          "internalType": "uint256",
          "name": "timestamp",
          "type": "uint256"
        },
        {
          "internalType": "bool",
          "name": "active",
          "type": "bool"
        }
      ],
      "stateMutability": "view",
      "type": "function"
    },
    {
      "inputs": [
        {
          "internalType": "address",
          "name": "",
          "type": "address"
        },
        {
          "internalType": "address",
          "name": "",
          "type": "address"
        },
        {
          "internalType": "uint256[]",
          "name": "",
          "type": "uint256[]"
        },
        {
          "internalType": "uint256[]",
          "name": "",
          "type": "uint256[]"
        },
        {
          "internalType": "bytes",
          "name": "",
          "type": "bytes"
        }
      ],
      "name": "onERC1155BatchReceived",
      "outputs": [
        {
          "internalType": "bytes4",
          "name": "",
          "type": "bytes4"
        }
      ],
      "stateMutability": "pure",
      "type": "function"
    },
    {
      "inputs": [
        {
          "internalType": "address",
          "name": "",
          "type": "address"
        },
        {
          "internalType": "address",
          "name": "",
          "type": "address"
        },
        {
          "internalType": "uint256",
          "name": "",
          "type": "uint256"
        },
        {
          "internalType": "uint256",
          "name": "",
          "type": "uint256"
        },
        {
          "internalType": "bytes",
          "name": "",
          "type": "bytes"
        }
      ],
      "name": "onERC1155Received",
      "outputs": [
        {
          "internalType": "bytes4",
          "name": "",
          "type": "bytes4"
        }
      ],
      "stateMutability": "pure",
      "type": "function"
    },
    {
      "inputs": [
        {
          "internalType": "address",
          "name": "",
          "type": "address"
        }
      ],
      "name": "pendingWithdrawals",
      "outputs": [
        {
          "internalType": "uint256",
          "name": "",
          "type": "uint256"
        }
      ],
      "stateMutability": "view",
      "type": "function"
    },
    {
      "inputs": [],
      "name": "platformFeePercent",
      "outputs": [
        {
          "internalType": "uint256",
          "name": "",
          "type": "uint256"
        }
      ],
      "stateMutability": "view",
      "type": "function"
    },
    {
      "inputs": [
        {
          "internalType": "bytes32",
          "name": "role",
          "type": "bytes32"
        },
        {
          "internalType": "address",
          "name": "callerConfirmation",
          "type": "address"
        }
      ],
      "name": "renounceRole",
      "outputs": [],
      "stateMutability": "nonpayable",
      "type": "function"
    },
    {
      "inputs": [
        {
          "internalType": "bytes32",
          "name": "role",
          "type": "bytes32"
        },
        {
          "internalType": "address",
          "name": "account",
          "type": "address"
        }
      ],
      "name": "revokeRole",
      "outputs": [],
      "stateMutability": "nonpayable",
      "type": "function"
    },
    {
      "inputs": [
        {
          "internalType": "address",
          "name": "",
          "type": "address"
        },
        {
          "internalType": "uint256",
          "name": "",
          "type": "uint256"
        }
      ],
      "name": "sellerListings",
      "outputs": [
        {
          "internalType": "uint256",
          "name": "",
          "type": "uint256"
        }
      ],
      "stateMutability": "view",
      "type": "function"
    },
    {
      "inputs": [
        {
          "internalType": "uint256",
          "name": "newFee",
          "type": "uint256"
        }
      ],
      "name": "setPlatformFee",
      "outputs": [],
      "stateMutability": "nonpayable",
      "type": "function"
    },
    {
      "inputs": [
        {
          "internalType": "bytes4",
          "name": "interfaceId",
          "type": "bytes4"
        }
      ],
      "name": "supportsInterface",
      "outputs": [
        {
          "internalType": "bool",
          "name": "",
          "type": "bool"
        }
      ],
      "stateMutability": "view",
      "type": "function"
    },
    {
      "inputs": [],
      "name": "totalListings",
      "outputs": [
        {
          "internalType": "uint256",
          "name": "",
          "type": "uint256"
        }
      ],
      "stateMutability": "view",
      "type": "function"
    },
    {
      "inputs": [],
      "name": "totalSales",
      "outputs": [
        {
          "internalType": "uint256",
          "name": "",
          "type": "uint256"
        }
      ],
      "stateMutability": "view",
      "type": "function"
    },
    {
      "inputs": [],
      "name": "totalVolume",
      "outputs": [
        {
          "internalType": "uint256",
          "name": "",
          "type": "uint256"
        }
      ],
      "stateMutability": "view",
      "type": "function"
    },
    {
      "inputs": [
        {
          "internalType": "address",
          "name": "",
          "type": "address"
        }
      ],
      "name": "totalVolumeBySeller",
      "outputs": [
        {
          "internalType": "uint256",
          "name": "",
          "type": "uint256"
        }
      ],
      "stateMutability": "view",
      "type": "function"
    },
    {
      "inputs": [],
      "name": "treasury",
      "outputs": [
        {
          "internalType": "address",
          "name": "",
          "type": "address"
        }
      ],
      "stateMutability": "view",
      "type": "function"
    },
    {
      "inputs": [],
      "name": "withdraw",
      "outputs": [],
      "stateMutability": "nonpayable",
      "type": "function"
    }
  ],
  "bytecode": "0x608034620000a057601f62002bfe38819003918201601f19168301916001600160401b03831184841017620000a557808492602094604052833981010312620000a057516001600160a01b03811690819003620000a0576001805560fa600d5560c8600e55600c80546001600160a01b0319169190911790556200008333620000bb565b506200008f336200013b565b50604051612a009081620001de8239f35b600080fd5b634e487b7160e01b600052604160045260246000fd5b6001600160a01b031660008181527fad3228b676f7d3cd4284a5443f17f1962b36e491b30a40b2405849e597ba5fb5602052604081205490919060ff166200013757818052816020526040822081835260205260408220600160ff19825416179055339160008051602062002bde8339815191528180a4600190565b5090565b6001600160a01b031660008181527fee57cd81e84075558e8fcc182a1f4393f91fc97f963a136e66b7f949a62f319f60205260408120549091907f97667070c54ef182b0f5858b034beac1b6f3089aa2d3188bb1e8929f4fa9b9299060ff16620001d857808352826020526040832082845260205260408320600160ff1982541617905560008051602062002bde833981519152339380a4600190565b50509056fe608080604052600436101561001357600080fd5b600090813560e01c90816301ffc9a71461218457508063054564f01461212f57806305b7cdd314611f8d57806312e8e2c314611ed0578063179ae7f2146119e8578063248a9ca3146119bc5780632748f891146119775780632f2ff15d1461193a578063305a67a8146116885780633144f8441461160857806336568abe1461159b5780633ccfd60b146114fd5780634d03a9a51461147a5780635f42da09146113ea5780635f81a57c146113cc57806361d027b3146113985780636605ff661461137a57806378a6bb3f14610ec957806381257bd514610b685780638c639a8514610b4a57806391d1485414610af15780639bb50f4614610a9f578063a217fddf14610a83578063a8a4a9f714610a65578063bc197c81146109c0578063c378e1101461095d578063c78b616c1461093f578063d547741f146108fe578063d6febde814610543578063de74e57b146103ef578063f23a6e611461037b578063f3f4370314610336578063f5b541a6146102fb5763fbb1e4971461019757600080fd5b346102f857602090816003193601126102f857600435815260048252604081209182549067ffffffffffffffff82116102e4579192906040519060056101e18583831b0184612316565b8183528483018094875285872087915b8483106102765750505050506040519280840191818552518092526040840192945b8281106102205784840385f35b8551805173ffffffffffffffffffffffffffffffffffffffff168552808301518584015260408082015190860152606080820151908601526080908101511515908501529481019460a090930192600101610213565b838860019260409b9a98999b5161028c816122b3565b73ffffffffffffffffffffffffffffffffffffffff86541681528486015483820152600286015460408201526003860154606082015260ff6004870154161515608082015281520192019201919097959496976101f1565b602483634e487b7160e01b81526041600452fd5b80fd5b50346102f857806003193601126102f85760206040517f97667070c54ef182b0f5858b034beac1b6f3089aa2d3188bb1e8929f4fa9b9298152f35b50346102f85760206003193601126102f857604060209173ffffffffffffffffffffffffffffffffffffffff61036a612224565b168152600783522054604051908152f35b50346102f85760a06003193601126102f857610395612224565b5061039e61224c565b5060843567ffffffffffffffff81116103eb576103bf903690600401612418565b505060206040517ff23a6e61000000000000000000000000000000000000000000000000000000008152f35b5080fd5b50346102f85760206003193601126102f85760043581526003602052604081209081549173ffffffffffffffffffffffffffffffffffffffff6001820154169060028101546003820154600483015460058401549060ff60068601541692600786015494610464600960088901549801612480565b976040519a8b5260208b015260408a0152606089015260ff8116600281101561052f57608089015260081c73ffffffffffffffffffffffffffffffffffffffff1660a088015260c0870152600381101561051b5760e0860152610100850152610120840152610160610140840181905281519084018190528391835b828110610502575050601f601f19916101809485828601015201168101030190f35b60208282018101516101808884010152869450016104e0565b602485634e487b7160e01b81526021600452fd5b602488634e487b7160e01b81526021600452fd5b5061054d3661229d565b9061055661284c565b8083526020600381526040842090600682019384549260ff8416600381101561052f57610583901561272d565b600881015442116108ba57600481019160ff83541660028110156108a6576108a057506001955b600382019485549586891161085c576105c7896005860154612778565b9687341061081857896105d99161278b565b80915515610808575b50506105f6846105f183612798565b612887565b60ff825416600281101561052f5787919061074857600273ffffffffffffffffffffffffffffffffffffffff60018301541691015490803b15610744576040517f23b872dd000000000000000000000000000000000000000000000000000000008152306004820152336024820152604481019290925282908290606490829084905af1801561073957610721575b505073ffffffffffffffffffffffffffffffffffffffff905b6106aa846009546126b8565b6009556106b8600b54612693565b600b555460081c16855260088152604085206106d58382546126b8565b9055338552600681526106eb83604087206126f4565b6040519384528301527fcd1c39d27a443bebce7f2cf1cb49519e7586ec24d1a7a7c9fcc00f57cd8efbfb60403393a36001805580f35b61072a906122e5565b610735578538610685565b8580fd5b6040513d84823e3d90fd5b8280fd5b600273ffffffffffffffffffffffffffffffffffffffff60018301541691015490803b15610744576040517ff242432a00000000000000000000000000000000000000000000000000000000815230600482015233602482015260448101929092526064820188905260a06084830152600060a48301528290829060c490829084905af18015610739576107f4575b505073ffffffffffffffffffffffffffffffffffffffff9061069e565b6107fd906122e5565b6107355785386107d7565b60ff1916600117905538806105e2565b6064876040519062461bcd60e51b82526004820152601460248201527f496e73756666696369656e74207061796d656e740000000000000000000000006044820152fd5b6064866040519062461bcd60e51b82526004820152601360248201527f4e6f7420656e6f756768207175616e74697479000000000000000000000000006044820152fd5b956105aa565b602489634e487b7160e01b81526021600452fd5b6064836040519062461bcd60e51b82526004820152600f60248201527f4c697374696e67206578706972656400000000000000000000000000000000006044820152fd5b50346102f85760406003193601126102f85761093b60043561091e61224c565b90808452836020526109366001604086200154612527565b612610565b5080f35b50346102f857806003193601126102f8576020600a54604051908152f35b50346102f85760406003193601126102f857610977612224565b73ffffffffffffffffffffffffffffffffffffffff168152600660205260408120805460243592908310156102f85760206109b2848461226f565b90546040519160031b1c8152f35b50346102f85760a06003193601126102f8576109da612224565b506109e361224c565b5067ffffffffffffffff60443581811161074457610a059036906004016123e7565b505060643581811161074457610a1f9036906004016123e7565b50506084359081116103eb57610a39903690600401612418565b505060206040517fbc197c81000000000000000000000000000000000000000000000000000000008152f35b50346102f857806003193601126102f8576020600e54604051908152f35b50346102f857806003193601126102f857602090604051908152f35b50346102f85760406003193601126102f857602090604073ffffffffffffffffffffffffffffffffffffffff9182610ad5612224565b168152600f845281812060243582528452205416604051908152f35b50346102f85760406003193601126102f85773ffffffffffffffffffffffffffffffffffffffff6040610b2261224c565b92600435815280602052209116600052602052602060ff604060002054166040519015158152f35b50346102f857806003193601126102f8576020600d54604051908152f35b50346102f857610b773661229d565b610b7f61284c565b818352600360205260408320600481019073ffffffffffffffffffffffffffffffffffffffff9081835460081c163303610e85576006810160ff815416600381101561052f57610bcf901561272d565b8587526004602052610be485604089206123cb565b5092600484019182549260ff841615610e415760ff19809416905560ff8654166002811015610e2d57610e22576001925b60038501610c2485825461278b565b80915515610e13575b505060ff6001850195610c4487546105f187612798565b541660028110156108a657889493929190610d36576002915080600184015416935416910154823b15610d32576040517f23b872dd00000000000000000000000000000000000000000000000000000000815230600482015273ffffffffffffffffffffffffffffffffffffffff92909216602483015260448201529082908290606490829084905af1801561073957610d1e575b50507f397f87b3946767b09967764d50032941de13a2606bcb39dfed61d7b1ed0192cc91610d0d6020925b546009546126b8565b600955604051908152a26001805580f35b610d27906122e5565b610d32578338610cd9565b8380fd5b8060029160018501541694541692015492803b15610e0f576040517ff242432a00000000000000000000000000000000000000000000000000000000815230600482015273ffffffffffffffffffffffffffffffffffffffff9390931660248401526044830193909352606482015260a06084820152600060a4820152908290829060c490829084905af1801561073957610dfb575b50507f397f87b3946767b09967764d50032941de13a2606bcb39dfed61d7b1ed0192cc91610d0d602092610d04565b610e04906122e5565b610d32578338610dcc565b8480fd5b81541660011790553880610c2d565b600285015492610c15565b60248a634e487b7160e01b81526021600452fd5b606460405162461bcd60e51b815260206004820152601060248201527f4f66666572206e6f7420616374697665000000000000000000000000000000006044820152fd5b606460405162461bcd60e51b815260206004820152600a60248201527f4e6f742073656c6c6572000000000000000000000000000000000000000000006044820152fd5b50346102f85760c06003193601126102f857610ee3612224565b9060a43567ffffffffffffffff81116103eb57610f04903690600401612339565b9160643515158061136f575b1561132b5773ffffffffffffffffffffffffffffffffffffffff81163b156103eb576040517ff242432a000000000000000000000000000000000000000000000000000000008152336004820152306024808301919091523560448083019190915235606482015260a06084820152600060a4820152828160c4818373ffffffffffffffffffffffffffffffffffffffff87165af180156113205790839161130c575b5050610fc0600254612693565b9182600255610fd1608435426126b8565b9360405194610fdf866122f9565b84865273ffffffffffffffffffffffffffffffffffffffff8416602087015260243560408701526044356060870152600160808701523360a087015260643560c08701528260e087015242610100870152610120860152610140850152828152600360205260408120845181556001810173ffffffffffffffffffffffffffffffffffffffff6020870151167fffffffffffffffffffffffff0000000000000000000000000000000000000000825416179055604085015160028201556060850151600382015560048101608086015160028110156112f85781547fffffffffffffffffffffff00000000000000000000000000000000000000000060ff74ffffffffffffffffffffffffffffffffffffffff0060a08b015160081b16931691161717905560c0850151600582015560e085015160038110156112e4578161112f600992600661014095016126c5565b610100870151600782015561012087015160088201550194015180519067ffffffffffffffff82116102e4576111658654612446565b601f811161129e575b509484916020968790601f83116001146112325791806040949287946111b59892611227575b50506000198260011b9260031b1c19161790555b33815260058752206126f4565b6111c0600a54612693565b600a556040805173ffffffffffffffffffffffffffffffffffffffff9092168252602435602083015260643590820152339082907f723f73331eaee88eec7fc68ef60ab6ed15e4b90d0472b55eb92fa43910bab6dd9080606081015b0390a3604051908152f35b015190503880611194565b8386528886209190601f198416875b81811061128457509260019285926111b59996604098961061126b575b505050811b0190556111a8565b015160001960f88460031b161c1916905538808061125e565b8284015185558a9750600190940193928b01928b01611241565b86845260208420601f840160051c810191602085106112da575b601f0160051c01905b8181106112ce575061116e565b600081556001016112c1565b90915081906112b8565b602483634e487b7160e01b81526021600452fd5b602484634e487b7160e01b81526021600452fd5b611315906122e5565b6103eb578138610fb3565b6040513d85823e3d90fd5b606460405162461bcd60e51b815260206004820152600e60248201527f496e76616c696420706172616d730000000000000000000000000000000000006044820152fd5b506044351515610f10565b50346102f857806003193601126102f8576020600b54604051908152f35b50346102f857806003193601126102f857602073ffffffffffffffffffffffffffffffffffffffff600c5416604051908152f35b50346102f857806003193601126102f8576020600954604051908152f35b50346102f8576020806003193601126103eb5773ffffffffffffffffffffffffffffffffffffffff61141a612224565b1682526005815260408220916040518092808554928381520194835280832092905b8282106114635761145f8561145381890382612316565b60405191829182612390565b0390f35b83548652948501946001938401939091019061143c565b50346102f8576114893661229d565b919081526004602052604081209081548310156102f85760a06114ac84846123cb565b5073ffffffffffffffffffffffffffffffffffffffff81541690600181015490600281015460ff60046003840154930154169260405194855260208501526040840152606083015215156080820152f35b50346102f857806003193601126102f85761151661284c565b33815260076020526040812054801561155757818080809333825260076020528160408120553382f11561154b576001805580f35b604051903d90823e3d90fd5b606460405162461bcd60e51b815260206004820152601360248201527f4e6f7468696e6720746f207769746864726177000000000000000000000000006044820152fd5b50346102f85760406003193601126102f8576115b561224c565b3373ffffffffffffffffffffffffffffffffffffffff8216036115de5761093b90600435612610565b60046040517f6697b232000000000000000000000000000000000000000000000000000000008152fd5b50346102f8576020806003193601126103eb5773ffffffffffffffffffffffffffffffffffffffff611638612224565b1682526006815260408220916040518092808554928381520194835280832092905b8282106116715761145f8561145381890382612316565b83548652948501946001938401939091019061165a565b50346102f85760206003193601126102f857600435906116a661284c565b818152600360205260408120916004830180549373ffffffffffffffffffffffffffffffffffffffff808660081c169533871480156118f9575b156118b55760068301805460ff811660038110156108a65760ff1960ff94939261170c6002931561272d565b16179055169560028710156118a1578596959495156000146117ed575080600291600184015416935460081c16910154823b15610d32576040517f23b872dd00000000000000000000000000000000000000000000000000000000815230600482015273ffffffffffffffffffffffffffffffffffffffff92909216602483015260448201529082908290606490829084905af18015610739576117d9575b50505b7f411aee90354c51b1b04cd563fcab2617142a9d50da19232d888547c8a1b7fd8a8280a26001805580f35b6117e2906122e5565b6103eb5781386117ab565b9192506001830154166003600284015493015490803b15610e0f576040517ff242432a00000000000000000000000000000000000000000000000000000000815230600482015273ffffffffffffffffffffffffffffffffffffffff9390931660248401526044830193909352606482015260a06084820152600060a4820152908290829060c490829084905af180156107395761188d575b50506117ae565b611896906122e5565b6103eb578138611886565b602486634e487b7160e01b81526021600452fd5b606460405162461bcd60e51b815260206004820152600e60248201527f4e6f7420617574686f72697a65640000000000000000000000000000000000006044820152fd5b507f97667070c54ef182b0f5858b034beac1b6f3089aa2d3188bb1e8929f4fa9b929865285602052604086203360005260205260ff604060002054166116e0565b50346102f85760406003193601126102f85761093b60043561195a61224c565b90808452836020526119726001604086200154612527565b612584565b50346102f85760206003193601126102f857604060209173ffffffffffffffffffffffffffffffffffffffff6119ab612224565b168152600883522054604051908152f35b50346102f85760206003193601126102f857600160406020926004358152808452200154604051908152f35b50346102f85760a06003193601126102f857611a02612224565b60843567ffffffffffffffff811161074457611a22903690600401612339565b9160443515611e8c5773ffffffffffffffffffffffffffffffffffffffff82163b156102f8576040517f23b872dd0000000000000000000000000000000000000000000000000000000081523360048201523060248083019190915235604482015281816064818373ffffffffffffffffffffffffffffffffffffffff88165af1801561073957611e7d575b5090611abb600254612693565b9182600255611acc606435426126b8565b9360405194611ada866122f9565b84865273ffffffffffffffffffffffffffffffffffffffff841660208701526024356040870152600160608701528260808701523360a087015260443560c08701528260e087015242610100870152610120860152610140850152828152600360205260408120938051855573ffffffffffffffffffffffffffffffffffffffff6020820151167fffffffffffffffffffffffff0000000000000000000000000000000000000000600187015416176001860155604081015160028601556060810151600386015560048501608082015160028110156112f85781547fffffffffffffffffffffff00000000000000000000000000000000000000000060ff74ffffffffffffffffffffffffffffffffffffffff0060a087015160081b16931691161717905560c0810151600586015560e081015160038110156112e45790611c2961014092600688016126c5565b61010081015160078701556101208101516008870155015193845167ffffffffffffffff81116102e457611c606009830154612446565b95601f8711611e34575b602096508690601f8311600114611dc95760099291859183611dbe575b50506000198260011b9260031b1c1916179101555b33815260058452611cb083604083206126f4565b611cbb600a54612693565b600a5573ffffffffffffffffffffffffffffffffffffffff82168152600f8452604081206024358252845273ffffffffffffffffffffffffffffffffffffffff60408220541615611d65575b506040805173ffffffffffffffffffffffffffffffffffffffff9092168252602435602083015260443590820152339082907f723f73331eaee88eec7fc68ef60ab6ed15e4b90d0472b55eb92fa43910bab6dd90806060810161121c565b60409073ffffffffffffffffffffffffffffffffffffffff83168152600f85528181206024358252855220337fffffffffffffffffffffffff000000000000000000000000000000000000000082541617905538611d07565b015190503880611c87565b9060098401855287852091855b601f1985168110611e1d575091839160019383601f196009971610611e04575b505050811b01910155611c9c565b015160001960f88460031b161c19169055388080611df6565b919289600181928685015181550194019201611dd6565b60098301845260208420601f830160051c81019760208410611e73575b601f0160051c01965b878110611e675750611c6a565b60008155600101611e5a565b9097508790611e51565b611e86906122e5565b38611aae565b606460405162461bcd60e51b815260206004820152601160248201527f5072696365206d757374206265203e20300000000000000000000000000000006044820152fd5b50346102f85760206003193601126102f857600435818052816020526040822033835260205260ff60408320541615611f56576103e88111611f1257600d5580f35b606460405162461bcd60e51b815260206004820152600760248201527f4d617820313025000000000000000000000000000000000000000000000000006044820152fd5b604482604051907fe2517d3f0000000000000000000000000000000000000000000000000000000082523360048301526024820152fd5b50611f973661229d565b9190808252600360205260ff60066040842001541660038110156112e457611fbf901561272d565b34156120eb5780825260046020526040822060405193611fde856122b3565b3385526020850190348252604086019081526060860190428252608087019360018552805490680100000000000000008210156120d75790612025916001820181556123cb565b9390936120c45773ffffffffffffffffffffffffffffffffffffffff60049596979851167fffffffffffffffffffffffff0000000000000000000000000000000000000000855416178455516001840155516002830155516003820155019051151560ff60ff198354169116179055604051903482527fbdf1e76c2ba2a5c85b93bf78678a4a3b06d63b18422612dac8d7d5249ed4671460203393a380f35b602487634e487b7160e01b815280600452fd5b602488634e487b7160e01b81526041600452fd5b606460405162461bcd60e51b815260206004820152601160248201527f4f66666572206d757374206265203e20300000000000000000000000000000006044820152fd5b50346102f85760406003193601126102f857612149612224565b73ffffffffffffffffffffffffffffffffffffffff168152600560205260408120805460243592908310156102f85760206109b2848461226f565b9050346103eb5760206003193601126103eb576004357fffffffff00000000000000000000000000000000000000000000000000000000811680910361074457602092507f7965db0b0000000000000000000000000000000000000000000000000000000081149081156121fa575b5015158152f35b7f01ffc9a700000000000000000000000000000000000000000000000000000000915014386121f3565b6004359073ffffffffffffffffffffffffffffffffffffffff8216820361224757565b600080fd5b6024359073ffffffffffffffffffffffffffffffffffffffff8216820361224757565b80548210156122875760005260206000200190600090565b634e487b7160e01b600052603260045260246000fd5b6003196040910112612247576004359060243590565b60a0810190811067ffffffffffffffff8211176122cf57604052565b634e487b7160e01b600052604160045260246000fd5b67ffffffffffffffff81116122cf57604052565b610160810190811067ffffffffffffffff8211176122cf57604052565b90601f601f19910116810190811067ffffffffffffffff8211176122cf57604052565b81601f820112156122475780359067ffffffffffffffff82116122cf576040519261236e6020601f19601f8601160185612316565b8284526020838301011161224757816000926020809301838601378301015290565b6020908160408183019282815285518094520193019160005b8281106123b7575050505090565b8351855293810193928101926001016123a9565b8054821015612287576000526005602060002091020190600090565b9181601f840112156122475782359167ffffffffffffffff8311612247576020808501948460051b01011161224757565b9181601f840112156122475782359167ffffffffffffffff8311612247576020838186019501011161224757565b90600182811c92168015612476575b602083101461246057565b634e487b7160e01b600052602260045260246000fd5b91607f1691612455565b906040519182600082549261249484612446565b90818452600194858116908160001461250357506001146124c0575b50506124be92500383612316565b565b9093915060005260209081600020936000915b8183106124eb5750506124be935082010138806124b0565b855488840185015294850194879450918301916124d3565b90506124be95506020935060ff1991501682840152151560051b82010138806124b0565b80600052600060205260406000203360005260205260ff604060002054161561254d5750565b604490604051907fe2517d3f0000000000000000000000000000000000000000000000000000000082523360048301526024820152fd5b906000918083528260205273ffffffffffffffffffffffffffffffffffffffff6040842092169182845260205260ff6040842054161560001461260b57808352826020526040832082845260205260408320600160ff198254161790557f2f8788117e7eff1d82e926ec794901d17c78024a50270940304540a733656f0d339380a4600190565b505090565b906000918083528260205273ffffffffffffffffffffffffffffffffffffffff6040842092169182845260205260ff60408420541660001461260b5780835282602052604083208284526020526040832060ff1981541690557ff6391f5c32d9c69d2a47ea670b442974b53935d1edc7fd64eb21e047a839171b339380a4600190565b60001981146126a25760010190565b634e487b7160e01b600052601160045260246000fd5b919082018092116126a257565b9060038110156126de5760ff60ff198354169116179055565b634e487b7160e01b600052602160045260246000fd5b8054680100000000000000008110156122cf576127169160018201815561226f565b600019829392549160031b92831b921b1916179055565b1561273457565b606460405162461bcd60e51b815260206004820152600a60248201527f4e6f7420616374697665000000000000000000000000000000000000000000006044820152fd5b818102929181159184041417156126a257565b919082039182116126a257565b906040516127a5816122f9565b80928054825273ffffffffffffffffffffffffffffffffffffffff8060018301541660208401526002820154604084015260038201546060840152600482015460ff811660028110156126de57608085015260081c1660a0830152600581015460c083015260ff6006820154169060038210156126de576009612847916101409360e08601526007810154610100860152600881015461012086015201612480565b910152565b60026001541461285d576002600155565b60046040517f3ee5aeb5000000000000000000000000000000000000000000000000000000008152fd5b906127109182612899600d5484612778565b049073ffffffffffffffffffffffffffffffffffffffff908282602083015116956000968752600f6020528680808061290d60409a8b83208c8a01518452602052898c8420541696871515806129ba575b156129ad57612908906128ff600e5484612778565b0498899261278b565b61278b565b9888600c54168282156129a4575bf11561299a57908693929181158015612962575b5050508293839260a08493015116828215612959575bf11561294f575050565b51903d90823e3d90fd5b506108fc612945565b939492938392839283928390612991575bf1156129845790849138808061292f565b50505051903d90823e3d90fd5b506108fc612973565b85513d88823e3d90fd5b506108fc61291b565b506129088398899261278b565b508a60a08b0151168814156128ea56fea2646970667358221220c4348a1ed147941bbae93bbb62435bf2930536c158a82f7d1103688ada8a0b8a64736f6c634300081400332f8788117e7eff1d82e926ec794901d17c78024a50270940304540a733656f0d",
  "linkReferences": {},
  "deployedLinkReferences": {}
}