{
  "_format": "hh-sol-artifact-1",
  "contractName": "LegacySystem",
  "sourceName": "contracts/layer3/temporal/LegacySystem.sol",
  "abi": [
    {
      "inputs": [],
      "stateMutability": "nonpayable",
      "type": "constructor"
    },
    {
      "inputs": [
        {
          "internalType": "address",
          "name": "owner",
          "type": "address"
        }
      ],
      "name": "OwnableInvalidOwner",
      "type": "error"
    },
    {
      "inputs": [
        {
          "internalType": "address",
          "name": "account",
          "type": "address"
        }
      ],
      "name": "OwnableUnauthorizedAccount",
      "type": "error"
    },
    {
      "anonymous": false,
      "inputs": [
        {
          "indexed": true,
          "internalType": "uint256",
          "name": "dynastyId",
          "type": "uint256"
        },
        {
          "indexed": true,
          "internalType": "uint256",
          "name": "founderId",
          "type": "uint256"
        }
      ],
      "name": "DynastyEstablished",
      "type": "event"
    },
    {
      "anonymous": false,
      "inputs": [
        {
          "indexed": true,
          "internalType": "uint256",
          "name": "parentId",
          "type": "uint256"
        },
        {
          "indexed": true,
          "internalType": "uint256",
          "name": "heirId",
          "type": "uint256"
        }
      ],
      "name": "HeirCreated",
      "type": "event"
    },
    {
      "anonymous": false,
      "inputs": [
        {
          "indexed": true,
          "internalType": "uint256",
          "name": "legacyId",
          "type": "uint256"
        },
        {
          "indexed": false,
          "internalType": "uint256",
          "name": "reputation",
          "type": "uint256"
        },
        {
          "indexed": false,
          "internalType": "uint256",
          "name": "wealth",
          "type": "uint256"
        }
      ],
      "name": "LegacyTransferred",
      "type": "event"
    },
    {
      "anonymous": false,
      "inputs": [
        {
          "indexed": true,
          "internalType": "address",
          "name": "previousOwner",
          "type": "address"
        },
        {
          "indexed": true,
          "internalType": "address",
          "name": "newOwner",
          "type": "address"
        }
      ],
      "name": "OwnershipTransferred",
      "type": "event"
    },
    {
      "inputs": [
        {
          "internalType": "uint256",
          "name": "parentId",
          "type": "uint256"
        },
        {
          "internalType": "uint256",
          "name": "heirId",
          "type": "uint256"
        },
        {
          "internalType": "uint256",
          "name": "inheritedReputation",
          "type": "uint256"
        },
        {
          "internalType": "uint256",
          "name": "inheritedWealth",
          "type": "uint256"
        }
      ],
      "name": "createHeir",
      "outputs": [
        {
          "internalType": "uint256",
          "name": "",
          "type": "uint256"
        }
      ],
      "stateMutability": "nonpayable",
      "type": "function"
    },
    {
      "inputs": [
        {
          "internalType": "uint256",
          "name": "",
          "type": "uint256"
        }
      ],
      "name": "dynasties",
      "outputs": [
        {
          "internalType": "uint256",
          "name": "founderId",
          "type": "uint256"
        },
        {
          "internalType": "uint256",
          "name": "totalHeirs",
          "type": "uint256"
        },
        {
          "internalType": "uint256",
          "name": "establishedAt",
          "type": "uint256"
        }
      ],
      "stateMutability": "view",
      "type": "function"
    },
    {
      "inputs": [],
      "name": "dynastyCount",
      "outputs": [
        {
          "internalType": "uint256",
          "name": "",
          "type": "uint256"
        }
      ],
      "stateMutability": "view",
      "type": "function"
    },
    {
      "inputs": [
        {
          "internalType": "uint256",
          "name": "",
          "type": "uint256"
        }
      ],
      "name": "entityToDynasty",
      "outputs": [
        {
          "internalType": "uint256",
          "name": "",
          "type": "uint256"
        }
      ],
      "stateMutability": "view",
      "type": "function"
    },
    {
      "inputs": [
        {
          "internalType": "uint256",
          "name": "",
          "type": "uint256"
        }
      ],
      "name": "entityToLegacy",
      "outputs": [
        {
          "internalType": "uint256",
          "name": "",
          "type": "uint256"
        }
      ],
      "stateMutability": "view",
      "type": "function"
    },
    {
      "inputs": [
        {
          "internalType": "uint256",
          "name": "founderId",
          "type": "uint256"
        }
      ],
      "name": "getDynastyTree",
      "outputs": [
        {
          "internalType": "uint256[]",
          "name": "",
          "type": "uint256[]"
        }
      ],
      "stateMutability": "view",
      "type": "function"
    },
    {
      "inputs": [
        {
          "internalType": "uint256",
          "name": "",
          "type": "uint256"
        }
      ],
      "name": "legacies",
      "outputs": [
        {
          "internalType": "uint256",
          "name": "parentId",
          "type": "uint256"
        },
        {
          "internalType": "uint256",
          "name": "heirId",
          "type": "uint256"
        },
        {
          "internalType": "uint256",
          "name": "inheritedReputation",
          "type": "uint256"
        },
        {
          "internalType": "uint256",
          "name": "inheritedWealth",
          "type": "uint256"
        },
        {
          "internalType": "uint256",
          "name": "transferTime",
          "type": "uint256"
        },
        {
          "internalType": "bool",
          "name": "isActive",
          "type": "bool"
        }
      ],
      "stateMutability": "view",
      "type": "function"
    },
    {
      "inputs": [],
      "name": "legacyCount",
      "outputs": [
        {
          "internalType": "uint256",
          "name": "",
          "type": "uint256"
        }
      ],
      "stateMutability": "view",
      "type": "function"
    },
    {
      "inputs": [],
      "name": "owner",
      "outputs": [
        {
          "internalType": "address",
          "name": "",
          "type": "address"
        }
      ],
      "stateMutability": "view",
      "type": "function"
    },
    {
      "inputs": [],
      "name": "renounceOwnership",
      "outputs": [],
      "stateMutability": "nonpayable",
      "type": "function"
    },
    {
      "inputs": [
        {
          "internalType": "uint256",
          "name": "legacyId",
          "type": "uint256"
        },
        {
          "internalType": "uint256",
          "name": "memoryId",
          "type": "uint256"
        }
      ],
      "name": "transferMemory",
      "outputs": [],
      "stateMutability": "nonpayable",
      "type": "function"
    },
    {
      "inputs": [
        {
          "internalType": "address",
          "name": "newOwner",
          "type": "address"
        }
      ],
      "name": "transferOwnership",
      "outputs": [],
      "stateMutability": "nonpayable",
      "type": "function"
    }
  ],
  "bytecode": "0x608060405234801561001057600080fd5b50338061003757604051631e4fbdf760e01b81526000600482015260240160405180910390fd5b61004081610046565b50610096565b600080546001600160a01b038381166001600160a01b0319831681178455604051919092169283917f8be0079c531659141344cd1fd0a4f28419497f9722a3daafe3b4186f6b6457e09190a35050565b6107f7806100a56000396000f3fe608060405234801561001057600080fd5b50600436106100b45760003560e01c8063715018a611610071578063715018a6146101c95780638da5cb5b146101d1578063a9fa3c91146101ec578063e81a5d69146101ff578063f2fde38b14610248578063f8042ba71461025b57600080fd5b80630bf115f6146100b95780632300c679146100ee578063403523871461010a57806358722d52146101135780636031b9d21461013357806367e7057a146101a9575b600080fd5b6100ec6100c73660046106a3565b6000918252600160208181526040842060040180549283018155845290922090910155565b005b6100f760065481565b6040519081526020015b60405180910390f35b6100f760055481565b6100f76101213660046106c5565b60046020526000908152604090205481565b61017a6101413660046106c5565b60016020819052600091825260409091208054918101546002820154600383015460058401546006909401549293919290919060ff1686565b6040805196875260208701959095529385019290925260608401526080830152151560a082015260c001610101565b6101bc6101b73660046106c5565b61027b565b60405161010191906106de565b6100ec6102ec565b6000546040516001600160a01b039091168152602001610101565b6100f76101fa366004610722565b610300565b61022d61020d3660046106c5565b600360208190526000918252604090912080546002820154919092015483565b60408051938452602084019290925290820152606001610101565b6100ec610256366004610754565b610583565b6100f76102693660046106c5565b60026020526000908152604090205481565b60008181526004602090815260408083205480845260038352928190206001018054825181850281018501909352808352606094938301828280156102df57602002820191906000526020600020905b8154815260200190600101908083116102cb575b5050505050915050919050565b6102f46105c6565b6102fe60006105f3565b565b600580546000918261031183610784565b91905055506040518060e00160405280868152602001858152602001848152602001838152602001600067ffffffffffffffff811115610353576103536107ab565b60405190808252806020026020018201604052801561037c578160200160208202803683370190505b5081524260208083019190915260016040928301819052600554600090815281835283902084518155848301519181019190915591830151600283015560608301516003830155608083015180516103da9260048501920190610643565b5060a082015160058281019190915560c0909201516006909101805460ff191691151591909117905554600085815260026020908152604080832093909355878252600490529081205490036104b2576006805490600061043a83610784565b90915550506006805460009081526003602081815260408084208a815542938101939093556001808401805491820181558552828520018a90559354898452600490915283832081905592519092889290917f1be73e0910ed6828287231dfb84eb4bb6fae7fe9269530ec1cdde041795ce3399190a3505b6000858152600460209081526040808320548084526003835290832060018082018054918201815585529284209092018790558083526002909101805491926104fa83610784565b909155505060008581526004602052604080822083905551869188917fbbe4f2777450c2217b123e51352632794715df139a1cc4eaf9eda0229f7b2b439190a360055460408051868152602081018690527fd85b4f7e4823efeaedce9bf29388299e24eb99d75bda8a6ab16f9cc5b3070144910160405180910390a25050600554949350505050565b61058b6105c6565b6001600160a01b0381166105ba57604051631e4fbdf760e01b8152600060048201526024015b60405180910390fd5b6105c3816105f3565b50565b6000546001600160a01b031633146102fe5760405163118cdaa760e01b81523360048201526024016105b1565b600080546001600160a01b038381166001600160a01b0319831681178455604051919092169283917f8be0079c531659141344cd1fd0a4f28419497f9722a3daafe3b4186f6b6457e09190a35050565b82805482825590600052602060002090810192821561067e579160200282015b8281111561067e578251825591602001919060010190610663565b5061068a92915061068e565b5090565b5b8082111561068a576000815560010161068f565b600080604083850312156106b657600080fd5b50508035926020909101359150565b6000602082840312156106d757600080fd5b5035919050565b6020808252825182820181905260009190848201906040850190845b81811015610716578351835292840192918401916001016106fa565b50909695505050505050565b6000806000806080858703121561073857600080fd5b5050823594602084013594506040840135936060013592509050565b60006020828403121561076657600080fd5b81356001600160a01b038116811461077d57600080fd5b9392505050565b6000600182016107a457634e487b7160e01b600052601160045260246000fd5b5060010190565b634e487b7160e01b600052604160045260246000fdfea26469706673582212207e478069c06cf7ff4199e038be7ee316f6102d9fd44b591265db0306d0b55f7e64736f6c63430008140033",
  "linkReferences": {},
  "deployedLinkReferences": {}
}