{
  "_format": "hh-sol-artifact-1",
  "contractName": "RentalMarket",
  "sourceName": "contracts/layer6/trading/RentalMarket.sol",
  "abi": [
    {
      "inputs": [
        {
          "internalType": "address",
          "name": "_treasury",
          "type": "address"
        }
      ],
      "stateMutability": "nonpayable",
      "type": "constructor"
    },
    {
      "inputs": [],
      "name": "AccessControlBadConfirmation",
      "type": "error"
    },
    {
      "inputs": [
        {
          "internalType": "address",
          "name": "account",
          "type": "address"
        },
        {
          "internalType": "bytes32",
          "name": "neededRole",
          "type": "bytes32"
        }
      ],
      "name": "AccessControlUnauthorizedAccount",
      "type": "error"
    },
    {
      "inputs": [],
      "name": "ReentrancyGuardReentrantCall",
      "type": "error"
    },
    {
      "anonymous": false,
      "inputs": [
        {
          "indexed": true,
          "internalType": "uint256",
          "name": "listingId",
          "type": "uint256"
        },
        {
          "indexed": true,
          "internalType": "address",
          "name": "owner",
          "type": "address"
        },
        {
          "indexed": false,
          "internalType": "address",
          "name": "nftContract",
          "type": "address"
        },
        {
          "indexed": false,
          "internalType": "uint256",
          "name": "tokenId",
          "type": "uint256"
        },
        {
          "indexed": false,
          "internalType": "uint256",
          "name": "pricePerDay",
          "type": "uint256"
        }
      ],
      "name": "Listed",
      "type": "event"
    },
    {
      "anonymous": false,
      "inputs": [
        {
          "indexed": true,
          "internalType": "uint256",
          "name": "listingId",
          "type": "uint256"
        }
      ],
      "name": "ListingWithdrawn",
      "type": "event"
    },
    {
      "anonymous": false,
      "inputs": [
        {
          "indexed": true,
          "internalType": "uint256",
          "name": "recordId",
          "type": "uint256"
        },
        {
          "indexed": true,
          "internalType": "uint256",
          "name": "listingId",
          "type": "uint256"
        },
        {
          "indexed": true,
          "internalType": "address",
          "name": "renter",
          "type": "address"
        },
        {
          "indexed": false,
          "internalType": "uint256",
          "name": "days_",
          "type": "uint256"
        }
      ],
      "name": "Rented",
      "type": "event"
    },
    {
      "anonymous": false,
      "inputs": [
        {
          "indexed": true,
          "internalType": "uint256",
          "name": "recordId",
          "type": "uint256"
        },
        {
          "indexed": false,
          "internalType": "bool",
          "name": "collateralRefunded",
          "type": "bool"
        }
      ],
      "name": "Returned",
      "type": "event"
    },
    {
      "anonymous": false,
      "inputs": [
        {
          "indexed": true,
          "internalType": "bytes32",
          "name": "role",
          "type": "bytes32"
        },
        {
          "indexed": true,
          "internalType": "bytes32",
          "name": "previousAdminRole",
          "type": "bytes32"
        },
        {
          "indexed": true,
          "internalType": "bytes32",
          "name": "newAdminRole",
          "type": "bytes32"
        }
      ],
      "name": "RoleAdminChanged",
      "type": "event"
    },
    {
      "anonymous": false,
      "inputs": [
        {
          "indexed": true,
          "internalType": "bytes32",
          "name": "role",
          "type": "bytes32"
        },
        {
          "indexed": true,
          "internalType": "address",
          "name": "account",
          "type": "address"
        },
        {
          "indexed": true,
          "internalType": "address",
          "name": "sender",
          "type": "address"
        }
      ],
      "name": "RoleGranted",
      "type": "event"
    },
    {
      "anonymous": false,
      "inputs": [
        {
          "indexed": true,
          "internalType": "bytes32",
          "name": "role",
          "type": "bytes32"
        },
        {
          "indexed": true,
          "internalType": "address",
          "name": "account",
          "type": "address"
        },
        {
          "indexed": true,
          "internalType": "address",
          "name": "sender",
          "type": "address"
        }
      ],
      "name": "RoleRevoked",
      "type": "event"
    },
    {
      "inputs": [],
      "name": "DEFAULT_ADMIN_ROLE",
      "outputs": [
        {
          "internalType": "bytes32",
          "name": "",
          "type": "bytes32"
        }
      ],
      "stateMutability": "view",
      "type": "function"
    },
    {
      "inputs": [],
      "name": "OPERATOR_ROLE",
      "outputs": [
        {
          "internalType": "bytes32",
          "name": "",
          "type": "bytes32"
        }
      ],
      "stateMutability": "view",
      "type": "function"
    },
    {
      "inputs": [
        {
          "internalType": "uint256",
          "name": "",
          "type": "uint256"
        }
      ],
      "name": "activeRental",
      "outputs": [
        {
          "internalType": "uint256",
          "name": "",
          "type": "uint256"
        }
      ],
      "stateMutability": "view",
      "type": "function"
    },
    {
      "inputs": [
        {
          "internalType": "address",
          "name": "owner",
          "type": "address"
        }
      ],
      "name": "getOwnerListings",
      "outputs": [
        {
          "internalType": "uint256[]",
          "name": "",
          "type": "uint256[]"
        }
      ],
      "stateMutability": "view",
      "type": "function"
    },
    {
      "inputs": [
        {
          "internalType": "address",
          "name": "renter",
          "type": "address"
        }
      ],
      "name": "getRenterHistory",
      "outputs": [
        {
          "internalType": "uint256[]",
          "name": "",
          "type": "uint256[]"
        }
      ],
      "stateMutability": "view",
      "type": "function"
    },
    {
      "inputs": [
        {
          "internalType": "bytes32",
          "name": "role",
          "type": "bytes32"
        }
      ],
      "name": "getRoleAdmin",
      "outputs": [
        {
          "internalType": "bytes32",
          "name": "",
          "type": "bytes32"
        }
      ],
      "stateMutability": "view",
      "type": "function"
    },
    {
      "inputs": [
        {
          "internalType": "bytes32",
          "name": "role",
          "type": "bytes32"
        },
        {
          "internalType": "address",
          "name": "account",
          "type": "address"
        }
      ],
      "name": "grantRole",
      "outputs": [],
      "stateMutability": "nonpayable",
      "type": "function"
    },
    {
      "inputs": [
        {
          "internalType": "bytes32",
          "name": "role",
          "type": "bytes32"
        },
        {
          "internalType": "address",
          "name": "account",
          "type": "address"
        }
      ],
      "name": "hasRole",
      "outputs": [
        {
          "internalType": "bool",
          "name": "",
          "type": "bool"
        }
      ],
      "stateMutability": "view",
      "type": "function"
    },
    {
      "inputs": [
        {
          "internalType": "address",
          "name": "nftContract",
          "type": "address"
        },
        {
          "internalType": "uint256",
          "name": "tokenId",
          "type": "uint256"
        },
        {
          "internalType": "uint256",
          "name": "pricePerDay",
          "type": "uint256"
        },
        {
          "internalType": "uint256",
          "name": "collateralRequired",
          "type": "uint256"
        },
        {
          "internalType": "uint256",
          "name": "minDuration",
          "type": "uint256"
        },
        {
          "internalType": "uint256",
          "name": "maxDuration",
          "type": "uint256"
        }
      ],
      "name": "listForRental",
      "outputs": [
        {
          "internalType": "uint256",
          "name": "",
          "type": "uint256"
        }
      ],
      "stateMutability": "nonpayable",
      "type": "function"
    },
    {
      "inputs": [
        {
          "internalType": "uint256",
          "name": "",
          "type": "uint256"
        }
      ],
      "name": "listings",
      "outputs": [
        {
          "internalType": "uint256",
          "name": "listingId",
          "type": "uint256"
        },
        {
          "internalType": "address",
          "name": "owner",
          "type": "address"
        },
        {
          "internalType": "address",
          "name": "nftContract",
          "type": "address"
        },
        {
          "internalType": "uint256",
          "name": "tokenId",
          "type": "uint256"
        },
        {
          "internalType": "uint256",
          "name": "pricePerDay",
          "type": "uint256"
        },
        {
          "internalType": "uint256",
          "name": "collateralRequired",
          "type": "uint256"
        },
        {
          "internalType": "uint256",
          "name": "minDuration",
          "type": "uint256"
        },
        {
          "internalType": "uint256",
          "name": "maxDuration",
          "type": "uint256"
        },
        {
          "internalType": "enum RentalMarket.RentalStatus",
          "name": "status",
          "type": "uint8"
        },
        {
          "internalType": "address",
          "name": "currentRenter",
          "type": "address"
        },
        {
          "internalType": "uint256",
          "name": "rentalStart",
          "type": "uint256"
        },
        {
          "internalType": "uint256",
          "name": "rentalEnd",
          "type": "uint256"
        },
        {
          "internalType": "uint256",
          "name": "totalRentals",
          "type": "uint256"
        },
        {
          "internalType": "uint256",
          "name": "totalEarned",
          "type": "uint256"
        }
      ],
      "stateMutability": "view",
      "type": "function"
    },
    {
      "inputs": [
        {
          "internalType": "address",
          "name": "",
          "type": "address"
        },
        {
          "internalType": "uint256",
          "name": "",
          "type": "uint256"
        }
      ],
      "name": "ownerListings",
      "outputs": [
        {
          "internalType": "uint256",
          "name": "",
          "type": "uint256"
        }
      ],
      "stateMutability": "view",
      "type": "function"
    },
    {
      "inputs": [],
      "name": "platformFeeBps",
      "outputs": [
        {
          "internalType": "uint256",
          "name": "",
          "type": "uint256"
        }
      ],
      "stateMutability": "view",
      "type": "function"
    },
    {
      "inputs": [
        {
          "internalType": "bytes32",
          "name": "role",
          "type": "bytes32"
        },
        {
          "internalType": "address",
          "name": "callerConfirmation",
          "type": "address"
        }
      ],
      "name": "renounceRole",
      "outputs": [],
      "stateMutability": "nonpayable",
      "type": "function"
    },
    {
      "inputs": [
        {
          "internalType": "uint256",
          "name": "listingId",
          "type": "uint256"
        },
        {
          "internalType": "uint256",
          "name": "days_",
          "type": "uint256"
        }
      ],
      "name": "rent",
      "outputs": [],
      "stateMutability": "payable",
      "type": "function"
    },
    {
      "inputs": [
        {
          "internalType": "uint256",
          "name": "",
          "type": "uint256"
        }
      ],
      "name": "rentalRecords",
      "outputs": [
        {
          "internalType": "uint256",
          "name": "recordId",
          "type": "uint256"
        },
        {
          "internalType": "uint256",
          "name": "listingId",
          "type": "uint256"
        },
        {
          "internalType": "address",
          "name": "renter",
          "type": "address"
        },
        {
          "internalType": "uint256",
          "name": "startTime",
          "type": "uint256"
        },
        {
          "internalType": "uint256",
          "name": "endTime",
          "type": "uint256"
        },
        {
          "internalType": "uint256",
          "name": "totalPaid",
          "type": "uint256"
        },
        {
          "internalType": "uint256",
          "name": "collateral",
          "type": "uint256"
        },
        {
          "internalType": "bool",
          "name": "returned",
          "type": "bool"
        },
        {
          "internalType": "bool",
          "name": "collateralRefunded",
          "type": "bool"
        }
      ],
      "stateMutability": "view",
      "type": "function"
    },
    {
      "inputs": [
        {
          "internalType": "address",
          "name": "",
          "type": "address"
        },
        {
          "internalType": "uint256",
          "name": "",
          "type": "uint256"
        }
      ],
      "name": "renterHistory",
      "outputs": [
        {
          "internalType": "uint256",
          "name": "",
          "type": "uint256"
        }
      ],
      "stateMutability": "view",
      "type": "function"
    },
    {
      "inputs": [
        {
          "internalType": "uint256",
          "name": "listingId",
          "type": "uint256"
        }
      ],
      "name": "returnNFT",
      "outputs": [],
      "stateMutability": "nonpayable",
      "type": "function"
    },
    {
      "inputs": [
        {
          "internalType": "bytes32",
          "name": "role",
          "type": "bytes32"
        },
        {
          "internalType": "address",
          "name": "account",
          "type": "address"
        }
      ],
      "name": "revokeRole",
      "outputs": [],
      "stateMutability": "nonpayable",
      "type": "function"
    },
    {
      "inputs": [
        {
          "internalType": "bytes4",
          "name": "i",
          "type": "bytes4"
        }
      ],
      "name": "supportsInterface",
      "outputs": [
        {
          "internalType": "bool",
          "name": "",
          "type": "bool"
        }
      ],
      "stateMutability": "view",
      "type": "function"
    },
    {
      "inputs": [],
      "name": "totalListings",
      "outputs": [
        {
          "internalType": "uint256",
          "name": "",
          "type": "uint256"
        }
      ],
      "stateMutability": "view",
      "type": "function"
    },
    {
      "inputs": [],
      "name": "totalVolume",
      "outputs": [
        {
          "internalType": "uint256",
          "name": "",
          "type": "uint256"
        }
      ],
      "stateMutability": "view",
      "type": "function"
    },
    {
      "inputs": [],
      "name": "treasury",
      "outputs": [
        {
          "internalType": "address",
          "name": "",
          "type": "address"
        }
      ],
      "stateMutability": "view",
      "type": "function"
    },
    {
      "inputs": [
        {
          "internalType": "uint256",
          "name": "listingId",
          "type": "uint256"
        }
      ],
      "name": "withdrawListing",
      "outputs": [],
      "stateMutability": "nonpayable",
      "type": "function"
    }
  ],
  "bytecode": "0x6080346200009c57601f62001d6d38819003918201601f19168301916001600160401b03831184841017620000a1578084926020946040528339810103126200009c57516001600160a01b038116908190036200009c576001805561012c600a55600980546001600160a01b0319169190911790556200007f33620000b7565b506200008b3362000137565b50604051611b739081620001da8239f35b600080fd5b634e487b7160e01b600052604160045260246000fd5b6001600160a01b031660008181527fad3228b676f7d3cd4284a5443f17f1962b36e491b30a40b2405849e597ba5fb5602052604081205490919060ff166200013357818052816020526040822081835260205260408220600160ff19825416179055339160008051602062001d4d8339815191528180a4600190565b5090565b6001600160a01b031660008181527fee57cd81e84075558e8fcc182a1f4393f91fc97f963a136e66b7f949a62f319f60205260408120549091907f97667070c54ef182b0f5858b034beac1b6f3089aa2d3188bb1e8929f4fa9b9299060ff16620001d457808352826020526040832082845260205260408320600160ff1982541617905560008051602062001d4d833981519152339380a4600190565b50509056fe608080604052600436101561001357600080fd5b600090813560e01c90816301ffc9a7146116535750806322dcd13e14611635578063248a9ca3146116095780632f2ff15d146115cc57806336568abe1461155f57806346b516ea146115355780635f81a57c1461151757806361715bb514610f8e57806361d027b314610f5a578063783a112b14610a645780638d57b14514610a0f57806391d14854146109b657806397ce99df1461093657806399124a65146108d3578063a217fddf146108b7578063aec6e273146106e6578063b0cd2aa01461042b578063c78b616c1461040d578063d547741f146103cc578063de74e57b14610290578063e2624d44146101fc578063f459831f1461015b5763f5b541a61461011e57600080fd5b3461015857806003193601126101585760206040517f97667070c54ef182b0f5858b034beac1b6f3089aa2d3188bb1e8929f4fa9b9298152f35b80fd5b503461015857602060031936011261015857604061012091600435815260056020522060ff81549160018101549073ffffffffffffffffffffffffffffffffffffffff60028201541660038201546004830154906005840154926007600686015495015495604051988952602089015260408801526060870152608086015260a085015260c0840152818116151560e084015260081c161515610100820152f35b50346101585760208060031936011261028c5773ffffffffffffffffffffffffffffffffffffffff61022c61171b565b1682526006815260408220916040518092808554928381520194835280832092905b82821061027557610271856102658189038261197c565b60405191829182611785565b0390f35b83548652948501946001938401939091019061024e565b5080fd5b503461015857602060031936011261015857600435815260046020526040812080549073ffffffffffffffffffffffffffffffffffffffff6001820154169073ffffffffffffffffffffffffffffffffffffffff60028201541660038201546004830154600584015496600685015460078601549060088701549960ff8b1694600989015496600a8a015498600c600b8c01549b01549b60206040519e8f908152015260408d015260608c015260808b015260a08a015260c089015260e0880152600482101561039f57506101c09673ffffffffffffffffffffffffffffffffffffffff9161010088015260081c166101208601526101408501526101608401526101808301526101a0820152f35b807f4e487b7100000000000000000000000000000000000000000000000000000000602492526021600452fd5b5034610158576040600319360112610158576104096004356103ec6116f3565b908084528360205261040460016040862001546117c0565b6118c7565b5080f35b50346101585780600319360112610158576020600b54604051908152f35b50346101585760208060031936011261028c57610446611b02565b6004358252600481526040822060088252604083205491828452600581526040842091600283019273ffffffffffffffffffffffffffffffffffffffff80855416331480156106d9575b1561067b576007820194855460ff811661061d57918894939160017fffffffffffffffffffffffffffffffffffffffffffffffffffffffffffffff00879516178855600885017fffffffffffffffffffffff0000000000000000000000000000000000000000008154169055600a850154421115978860001461059a5784955091600691836101007fffffffffffffffffffffffffffffffffffffffffffffffffffffffffffff00ff8897965416179055541691015490828215610591575bf115610586577fbe4f0c10718072a432b385e5a5704ad515ed09ac68671b382eda7570d6c3b345915b604051908152a26001805580f35b6040513d85823e3d90fd5b506108fc61054f565b50509180808060066001950196868854871c968792015416828215610614575bf1156105865783926105d58493928493600954169254611af5565b9082821561060b575bf115610586577fbe4f0c10718072a432b385e5a5704ad515ed09ac68671b382eda7570d6c3b34591610578565b506108fc6105de565b506108fc6105ba565b606486604051907f08c379a00000000000000000000000000000000000000000000000000000000082526004820152601060248201527f416c72656164792072657475726e6564000000000000000000000000000000006044820152fd5b606484604051907f08c379a00000000000000000000000000000000000000000000000000000000082526004820152601960248201527f4e6f742072656e746572206f72206e6f74206f766572647565000000000000006044820152fd5b50600a8301544211610490565b503461015857602060031936011261015857600435610703611b02565b80825260046020526040822073ffffffffffffffffffffffffffffffffffffffff906107368260018301541633146119bd565b600881019182549060ff8216600481101561088a5761082c57859360037fffffffffffffffffffffffffffffffffffffffffffffffffffffffffffffff0081941617905560028301541691015490803b15610828576040517f42842e0e000000000000000000000000000000000000000000000000000000008152306004820152336024820152604481019290925282908290606490829084905af1801561081d57610809575b50807f1a484e34f8f72a174c25b2ca2721257d9c128d6552732767fab3fe5c399b88a891a26001805580f35b61081290611968565b61028c5781386107dd565b6040513d84823e3d90fd5b8280fd5b60646040517f08c379a000000000000000000000000000000000000000000000000000000000815260206004820152601c60248201527f43616e6e6f74207769746864726177207768696c652072656e746564000000006044820152fd5b6024877f4e487b710000000000000000000000000000000000000000000000000000000081526021600452fd5b5034610158578060031936011261015857602090604051908152f35b5034610158576040600319360112610158576108ed61171b565b73ffffffffffffffffffffffffffffffffffffffff16815260066020526040812080546024359290831015610158576020610928848461173e565b90546040519160031b1c8152f35b50346101585760208060031936011261028c5773ffffffffffffffffffffffffffffffffffffffff61096661171b565b1682526007815260408220916040518092808554928381520194835280832092905b82821061099f57610271856102658189038261197c565b835486529485019460019384019390910190610988565b50346101585760406003193601126101585773ffffffffffffffffffffffffffffffffffffffff60406109e76116f3565b92600435815280602052209116600052602052602060ff604060002054166040519015158152f35b503461015857604060031936011261015857610a2961171b565b73ffffffffffffffffffffffffffffffffffffffff16815260076020526040812080546024359290831015610158576020610928848461173e565b50604060031936011261015857600435602490813591610a82611b02565b8184526020600481526040852091600883019283549160ff83166004811015610f2e57610ed157600682015487101580610ec3575b15610e6657610aca876004840154611ad5565b906005830195610adb875484611ae8565b94853410610e09577fffffffffffffffffffffff000000000000000000000000000000000000000000163360081b74ffffffffffffffffffffffffffffffffffffffff001617600117905542600984015562015180808902908982041489151715610ddd57610b4a9042611ae8565b95600a8401968755610b5d600354611a22565b9687600355549054906040519261012084019084821067ffffffffffffffff831117610db0575060078c979695948b94898b958d956040528584528684019788526040840197338952606085019042825260808601928352604060a08701948c865260c08801968752600560e089019b828d526101008a019b838d5283525220955186555160018601556002850173ffffffffffffffffffffffffffffffffffffffff809a51167fffffffffffffffffffffffff00000000000000000000000000000000000000008254161790555160038501555160048401555160058301555160068201550191511515907fffffffffffffffffffffffffffffffffffffffffffffffffffffffffffff000060ff61ff0085549351151560081b1693169116171790558785526008865286604086205533855260078652610ca28760408720611a7e565b612710610cb1600a5484611ad5565b049085808080858560095416828215610da7575bf115610d9c5785808093610ce182946001890154169187611af5565b90828215610d93575bf11561058657600c82600b610d1c9401610d048154611a22565b905501610d12828254611ae8565b9055600c54611ae8565b600c55803411610d5b575b50507f1618e7c74d89f3ce45ffc565badf4730759d36389478e24182e963f9e43d43cc906040519485523394a46001805580f35b8180610d68819334611af5565b818115610d8a575b3390f115610d7f578438610d27565b6040513d86823e3d90fd5b506108fc610d70565b506108fc610cea565b6040513d87823e3d90fd5b506108fc610cc5565b7f4e487b710000000000000000000000000000000000000000000000000000000060005260416004526000fd5b50887f4e487b710000000000000000000000000000000000000000000000000000000081526011600452fd5b606487601485604051927f08c379a000000000000000000000000000000000000000000000000000000000845260048401528201527f496e73756666696369656e74207061796d656e740000000000000000000000006044820152fd5b836015606492604051927f08c379a000000000000000000000000000000000000000000000000000000000845260048401528201527f4475726174696f6e206f7574206f662072616e676500000000000000000000006044820152fd5b506007820154871115610ab7565b83600d606492604051927f08c379a000000000000000000000000000000000000000000000000000000000845260048401528201527f4e6f7420617661696c61626c65000000000000000000000000000000000000006044820152fd5b50877f4e487b710000000000000000000000000000000000000000000000000000000081526021600452fd5b5034610158578060031936011261015857602073ffffffffffffffffffffffffffffffffffffffff60095416604051908152f35b50346101585760c060031936011261015857610fa861171b565b906040517f6352211e000000000000000000000000000000000000000000000000000000008152602435600482015260208160248173ffffffffffffffffffffffffffffffffffffffff87165afa801561081d5782906114c6575b611025915073ffffffffffffffffffffffffffffffffffffffff1633146119bd565b604435156114685760016084351061140a5760843560a435106113ac5773ffffffffffffffffffffffffffffffffffffffff82163b15610158576040517f23b872dd0000000000000000000000000000000000000000000000000000000081523360048201523060248083019190915235604482015281816064818373ffffffffffffffffffffffffffffffffffffffff88165af1801561081d5761139d575b50906110d2600254611a22565b90816002556040516101c0810181811067ffffffffffffffff82111761136e5760405282815233602082015273ffffffffffffffffffffffffffffffffffffffff821660408201526024356060820152604435608082015260643560a082015260843560c082015260a43560e08201528361010082015283610120820152836101408201528361016082015283610180820152836101a082015282845260046020526040842090805182556001820173ffffffffffffffffffffffffffffffffffffffff602083015116907fffffffffffffffffffffffff00000000000000000000000000000000000000009182825416179055600283019073ffffffffffffffffffffffffffffffffffffffff60408401511690825416179055606081015160038301556080810151600483015560a0810151600583015560c0810151600683015560e0810151600783015560088201610100820151600481101561088a579561130693600c6101a088956112d38660209c60ff7fffffffffffffffffffffffffffffffffffffffffffffffffffffffffffffff0060409a5416911617815573ffffffffffffffffffffffffffffffffffffffff610120840151167fffffffffffffffffffffff0000000000000000000000000000000000000000ff74ffffffffffffffffffffffffffffffffffffffff0083549260081b169116179055565b6101408101516009850155610160810151600a850155610180810151600b85015501519101553381526006875220611a7e565b611311600b54611a22565b600b5573ffffffffffffffffffffffffffffffffffffffff60405191168152602435838201526044356040820152817f723f73331eaee88eec7fc68ef60ab6ed15e4b90d0472b55eb92fa43910bab6dd60603393a3604051908152f35b7f4e487b7100000000000000000000000000000000000000000000000000000000600052604160045260246000fd5b6113a690611968565b386110c5565b60646040517f08c379a000000000000000000000000000000000000000000000000000000000815260206004820152600a60248201527f4d6178203e3d206d696e000000000000000000000000000000000000000000006044820152fd5b60646040517f08c379a000000000000000000000000000000000000000000000000000000000815260206004820152600960248201527f4d696e20312064617900000000000000000000000000000000000000000000006044820152fd5b60646040517f08c379a000000000000000000000000000000000000000000000000000000000815260206004820152601160248201527f5072696365206d757374206265203e20300000000000000000000000000000006044820152fd5b506020813d60201161150f575b816114e06020938361197c565b8101031261028c575173ffffffffffffffffffffffffffffffffffffffff8116810361028c5761102590611003565b3d91506114d3565b50346101585780600319360112610158576020600c54604051908152f35b50346101585760206003193601126101585760406020916004358152600883522054604051908152f35b5034610158576040600319360112610158576115796116f3565b3373ffffffffffffffffffffffffffffffffffffffff8216036115a257610409906004356118c7565b60046040517f6697b232000000000000000000000000000000000000000000000000000000008152fd5b5034610158576040600319360112610158576104096004356115ec6116f3565b908084528360205261160460016040862001546117c0565b61181d565b503461015857602060031936011261015857600160406020926004358152808452200154604051908152f35b50346101585780600319360112610158576020600a54604051908152f35b90503461028c57602060031936011261028c576004357fffffffff00000000000000000000000000000000000000000000000000000000811680910361082857602092507f7965db0b0000000000000000000000000000000000000000000000000000000081149081156116c9575b5015158152f35b7f01ffc9a700000000000000000000000000000000000000000000000000000000915014386116c2565b6024359073ffffffffffffffffffffffffffffffffffffffff8216820361171657565b600080fd5b6004359073ffffffffffffffffffffffffffffffffffffffff8216820361171657565b80548210156117565760005260206000200190600090565b7f4e487b7100000000000000000000000000000000000000000000000000000000600052603260045260246000fd5b6020908160408183019282815285518094520193019160005b8281106117ac575050505090565b83518552938101939281019260010161179e565b80600052600060205260406000203360005260205260ff60406000205416156117e65750565b604490604051907fe2517d3f0000000000000000000000000000000000000000000000000000000082523360048301526024820152fd5b906000918083528260205273ffffffffffffffffffffffffffffffffffffffff6040842092169182845260205260ff604084205416156000146118c25780835282602052604083208284526020526040832060017fffffffffffffffffffffffffffffffffffffffffffffffffffffffffffffff008254161790557f2f8788117e7eff1d82e926ec794901d17c78024a50270940304540a733656f0d339380a4600190565b505090565b906000918083528260205273ffffffffffffffffffffffffffffffffffffffff6040842092169182845260205260ff6040842054166000146118c2578083528260205260408320828452602052604083207fffffffffffffffffffffffffffffffffffffffffffffffffffffffffffffff0081541690557ff6391f5c32d9c69d2a47ea670b442974b53935d1edc7fd64eb21e047a839171b339380a4600190565b67ffffffffffffffff811161136e57604052565b90601f7fffffffffffffffffffffffffffffffffffffffffffffffffffffffffffffffe0910116810190811067ffffffffffffffff82111761136e57604052565b156119c457565b60646040517f08c379a000000000000000000000000000000000000000000000000000000000815260206004820152600960248201527f4e6f74206f776e657200000000000000000000000000000000000000000000006044820152fd5b7fffffffffffffffffffffffffffffffffffffffffffffffffffffffffffffffff8114611a4f5760010190565b7f4e487b7100000000000000000000000000000000000000000000000000000000600052601160045260246000fd5b80546801000000000000000081101561136e57611aa09160018201815561173e565b7fffffffffffffffffffffffffffffffffffffffffffffffffffffffffffffffff829392549160031b92831b921b1916179055565b81810292918115918404141715611a4f57565b91908201809211611a4f57565b91908203918211611a4f57565b600260015414611b13576002600155565b60046040517f3ee5aeb5000000000000000000000000000000000000000000000000000000008152fdfea264697066735822122091451b3bd32a9f71a9b080d2d785974a54c202a782aa605d482485ffad40dc3564736f6c634300081400332f8788117e7eff1d82e926ec794901d17c78024a50270940304540a733656f0d",
  "linkReferences": {},
  "deployedLinkReferences": {}
}