{
  "_format": "hh-sol-artifact-1",
  "contractName": "BlacklistRegistry",
  "sourceName": "contracts/layer7/enforcement/BlacklistRegistry.sol",
  "abi": [
    {
      "inputs": [],
      "stateMutability": "nonpayable",
      "type": "constructor"
    },
    {
      "inputs": [],
      "name": "AccessControlBadConfirmation",
      "type": "error"
    },
    {
      "inputs": [
        {
          "internalType": "address",
          "name": "account",
          "type": "address"
        },
        {
          "internalType": "bytes32",
          "name": "neededRole",
          "type": "bytes32"
        }
      ],
      "name": "AccessControlUnauthorizedAccount",
      "type": "error"
    },
    {
      "anonymous": false,
      "inputs": [
        {
          "indexed": true,
          "internalType": "uint256",
          "name": "appealId",
          "type": "uint256"
        },
        {
          "indexed": false,
          "internalType": "bool",
          "name": "approved",
          "type": "bool"
        }
      ],
      "name": "AppealResolved",
      "type": "event"
    },
    {
      "anonymous": false,
      "inputs": [
        {
          "indexed": true,
          "internalType": "uint256",
          "name": "appealId",
          "type": "uint256"
        },
        {
          "indexed": true,
          "internalType": "uint256",
          "name": "entityId",
          "type": "uint256"
        }
      ],
      "name": "AppealSubmitted",
      "type": "event"
    },
    {
      "anonymous": false,
      "inputs": [
        {
          "indexed": true,
          "internalType": "uint256",
          "name": "entityId",
          "type": "uint256"
        }
      ],
      "name": "BlacklistRemoved",
      "type": "event"
    },
    {
      "anonymous": false,
      "inputs": [
        {
          "indexed": true,
          "internalType": "uint256",
          "name": "entityId",
          "type": "uint256"
        },
        {
          "indexed": true,
          "internalType": "address",
          "name": "entityAddress",
          "type": "address"
        },
        {
          "indexed": false,
          "internalType": "enum BlacklistRegistry.BlacklistReason",
          "name": "reason",
          "type": "uint8"
        }
      ],
      "name": "EntityBlacklisted",
      "type": "event"
    },
    {
      "anonymous": false,
      "inputs": [
        {
          "indexed": true,
          "internalType": "bytes32",
          "name": "role",
          "type": "bytes32"
        },
        {
          "indexed": true,
          "internalType": "bytes32",
          "name": "previousAdminRole",
          "type": "bytes32"
        },
        {
          "indexed": true,
          "internalType": "bytes32",
          "name": "newAdminRole",
          "type": "bytes32"
        }
      ],
      "name": "RoleAdminChanged",
      "type": "event"
    },
    {
      "anonymous": false,
      "inputs": [
        {
          "indexed": true,
          "internalType": "bytes32",
          "name": "role",
          "type": "bytes32"
        },
        {
          "indexed": true,
          "internalType": "address",
          "name": "account",
          "type": "address"
        },
        {
          "indexed": true,
          "internalType": "address",
          "name": "sender",
          "type": "address"
        }
      ],
      "name": "RoleGranted",
      "type": "event"
    },
    {
      "anonymous": false,
      "inputs": [
        {
          "indexed": true,
          "internalType": "bytes32",
          "name": "role",
          "type": "bytes32"
        },
        {
          "indexed": true,
          "internalType": "address",
          "name": "account",
          "type": "address"
        },
        {
          "indexed": true,
          "internalType": "address",
          "name": "sender",
          "type": "address"
        }
      ],
      "name": "RoleRevoked",
      "type": "event"
    },
    {
      "inputs": [],
      "name": "APPEAL_THRESHOLD",
      "outputs": [
        {
          "internalType": "uint256",
          "name": "",
          "type": "uint256"
        }
      ],
      "stateMutability": "view",
      "type": "function"
    },
    {
      "inputs": [],
      "name": "BLACKLIST_MANAGER_ROLE",
      "outputs": [
        {
          "internalType": "bytes32",
          "name": "",
          "type": "bytes32"
        }
      ],
      "stateMutability": "view",
      "type": "function"
    },
    {
      "inputs": [],
      "name": "DEFAULT_ADMIN_ROLE",
      "outputs": [
        {
          "internalType": "bytes32",
          "name": "",
          "type": "bytes32"
        }
      ],
      "stateMutability": "view",
      "type": "function"
    },
    {
      "inputs": [
        {
          "internalType": "uint256",
          "name": "entityId",
          "type": "uint256"
        },
        {
          "internalType": "address",
          "name": "entityAddress",
          "type": "address"
        },
        {
          "internalType": "enum BlacklistRegistry.BlacklistReason",
          "name": "reason",
          "type": "uint8"
        },
        {
          "internalType": "string",
          "name": "evidence",
          "type": "string"
        },
        {
          "internalType": "bool",
          "name": "isPermanent",
          "type": "bool"
        },
        {
          "internalType": "uint256",
          "name": "duration",
          "type": "uint256"
        }
      ],
      "name": "addToBlacklist",
      "outputs": [],
      "stateMutability": "nonpayable",
      "type": "function"
    },
    {
      "inputs": [],
      "name": "appealCount",
      "outputs": [
        {
          "internalType": "uint256",
          "name": "",
          "type": "uint256"
        }
      ],
      "stateMutability": "view",
      "type": "function"
    },
    {
      "inputs": [
        {
          "internalType": "uint256",
          "name": "",
          "type": "uint256"
        },
        {
          "internalType": "address",
          "name": "",
          "type": "address"
        }
      ],
      "name": "appealVotes",
      "outputs": [
        {
          "internalType": "bool",
          "name": "",
          "type": "bool"
        }
      ],
      "stateMutability": "view",
      "type": "function"
    },
    {
      "inputs": [
        {
          "internalType": "uint256",
          "name": "",
          "type": "uint256"
        }
      ],
      "name": "appeals",
      "outputs": [
        {
          "internalType": "uint256",
          "name": "appealId",
          "type": "uint256"
        },
        {
          "internalType": "uint256",
          "name": "entityId",
          "type": "uint256"
        },
        {
          "internalType": "address",
          "name": "appellant",
          "type": "address"
        },
        {
          "internalType": "string",
          "name": "justification",
          "type": "string"
        },
        {
          "internalType": "uint256",
          "name": "submittedAt",
          "type": "uint256"
        },
        {
          "internalType": "enum BlacklistRegistry.AppealStatus",
          "name": "status",
          "type": "uint8"
        },
        {
          "internalType": "uint256",
          "name": "votesFor",
          "type": "uint256"
        },
        {
          "internalType": "uint256",
          "name": "votesAgainst",
          "type": "uint256"
        }
      ],
      "stateMutability": "view",
      "type": "function"
    },
    {
      "inputs": [
        {
          "internalType": "uint256",
          "name": "",
          "type": "uint256"
        }
      ],
      "name": "blacklist",
      "outputs": [
        {
          "internalType": "uint256",
          "name": "entityId",
          "type": "uint256"
        },
        {
          "internalType": "address",
          "name": "entityAddress",
          "type": "address"
        },
        {
          "internalType": "enum BlacklistRegistry.BlacklistReason",
          "name": "reason",
          "type": "uint8"
        },
        {
          "internalType": "uint256",
          "name": "timestamp",
          "type": "uint256"
        },
        {
          "internalType": "address",
          "name": "blacklistedBy",
          "type": "address"
        },
        {
          "internalType": "string",
          "name": "evidence",
          "type": "string"
        },
        {
          "internalType": "bool",
          "name": "isPermanent",
          "type": "bool"
        },
        {
          "internalType": "uint256",
          "name": "expiresAt",
          "type": "uint256"
        }
      ],
      "stateMutability": "view",
      "type": "function"
    },
    {
      "inputs": [],
      "name": "blacklistCount",
      "outputs": [
        {
          "internalType": "uint256",
          "name": "",
          "type": "uint256"
        }
      ],
      "stateMutability": "view",
      "type": "function"
    },
    {
      "inputs": [
        {
          "internalType": "address",
          "name": "entityAddress",
          "type": "address"
        }
      ],
      "name": "checkBlacklist",
      "outputs": [
        {
          "internalType": "bool",
          "name": "blacklisted",
          "type": "bool"
        },
        {
          "internalType": "enum BlacklistRegistry.BlacklistReason",
          "name": "reason",
          "type": "uint8"
        }
      ],
      "stateMutability": "view",
      "type": "function"
    },
    {
      "inputs": [],
      "name": "getBlacklistStats",
      "outputs": [
        {
          "internalType": "uint256",
          "name": "total",
          "type": "uint256"
        },
        {
          "internalType": "uint256",
          "name": "permanent",
          "type": "uint256"
        },
        {
          "internalType": "uint256",
          "name": "temporary",
          "type": "uint256"
        },
        {
          "internalType": "uint256",
          "name": "activeAppeals",
          "type": "uint256"
        }
      ],
      "stateMutability": "view",
      "type": "function"
    },
    {
      "inputs": [
        {
          "internalType": "bytes32",
          "name": "role",
          "type": "bytes32"
        }
      ],
      "name": "getRoleAdmin",
      "outputs": [
        {
          "internalType": "bytes32",
          "name": "",
          "type": "bytes32"
        }
      ],
      "stateMutability": "view",
      "type": "function"
    },
    {
      "inputs": [
        {
          "internalType": "bytes32",
          "name": "role",
          "type": "bytes32"
        },
        {
          "internalType": "address",
          "name": "account",
          "type": "address"
        }
      ],
      "name": "grantRole",
      "outputs": [],
      "stateMutability": "nonpayable",
      "type": "function"
    },
    {
      "inputs": [
        {
          "internalType": "bytes32",
          "name": "role",
          "type": "bytes32"
        },
        {
          "internalType": "address",
          "name": "account",
          "type": "address"
        }
      ],
      "name": "hasRole",
      "outputs": [
        {
          "internalType": "bool",
          "name": "",
          "type": "bool"
        }
      ],
      "stateMutability": "view",
      "type": "function"
    },
    {
      "inputs": [
        {
          "internalType": "address",
          "name": "",
          "type": "address"
        }
      ],
      "name": "isBlacklisted",
      "outputs": [
        {
          "internalType": "bool",
          "name": "",
          "type": "bool"
        }
      ],
      "stateMutability": "view",
      "type": "function"
    },
    {
      "inputs": [
        {
          "internalType": "uint256",
          "name": "blacklistId",
          "type": "uint256"
        }
      ],
      "name": "removeFromBlacklist",
      "outputs": [],
      "stateMutability": "nonpayable",
      "type": "function"
    },
    {
      "inputs": [
        {
          "internalType": "bytes32",
          "name": "role",
          "type": "bytes32"
        },
        {
          "internalType": "address",
          "name": "callerConfirmation",
          "type": "address"
        }
      ],
      "name": "renounceRole",
      "outputs": [],
      "stateMutability": "nonpayable",
      "type": "function"
    },
    {
      "inputs": [
        {
          "internalType": "bytes32",
          "name": "role",
          "type": "bytes32"
        },
        {
          "internalType": "address",
          "name": "account",
          "type": "address"
        }
      ],
      "name": "revokeRole",
      "outputs": [],
      "stateMutability": "nonpayable",
      "type": "function"
    },
    {
      "inputs": [
        {
          "internalType": "uint256",
          "name": "entityId",
          "type": "uint256"
        },
        {
          "internalType": "string",
          "name": "justification",
          "type": "string"
        }
      ],
      "name": "submitAppeal",
      "outputs": [
        {
          "internalType": "uint256",
          "name": "",
          "type": "uint256"
        }
      ],
      "stateMutability": "nonpayable",
      "type": "function"
    },
    {
      "inputs": [
        {
          "internalType": "bytes4",
          "name": "interfaceId",
          "type": "bytes4"
        }
      ],
      "name": "supportsInterface",
      "outputs": [
        {
          "internalType": "bool",
          "name": "",
          "type": "bool"
        }
      ],
      "stateMutability": "view",
      "type": "function"
    },
    {
      "inputs": [
        {
          "internalType": "uint256",
          "name": "appealId",
          "type": "uint256"
        },
        {
          "internalType": "bool",
          "name": "approve",
          "type": "bool"
        }
      ],
      "name": "voteOnAppeal",
      "outputs": [],
      "stateMutability": "nonpayable",
      "type": "function"
    }
  ],
  "bytecode": "0x60806040523461002d5761001233610032565b5061001c336100b1565b5060405161177c9081620001538239f35b600080fd5b6001600160a01b031660008181527fad3228b676f7d3cd4284a5443f17f1962b36e491b30a40b2405849e597ba5fb5602052604081205490919060ff166100ad57818052816020526040822081835260205260408220600160ff198254161790553391600080516020620018cf8339815191528180a4600190565b5090565b6001600160a01b031660008181527f77ee143005ee4d306026f84966aed6ca2870dbfd51d5df9909fea84498c30ff860205260408120549091907ff988e4fb62b8e14f4820fed03192306ddf4d7dbfa215595ba1c6ba4b76b369ee9060ff1661014d57808352826020526040832082845260205260408320600160ff19825416179055600080516020620018cf833981519152339380a4600190565b50509056fe608080604052600436101561001357600080fd5b60003560e01c90816301ffc9a71461116f575080630f2a0919146110b75780631373ff2b14610fdb578063188d164414610fbd578063248a9ca314610f8e5780632f2ff15d14610f4f57806336568abe14610ee35780633f6e3ca914610baf578063410b242414610b745780637f52479a14610b56578063916318b11461092757806391d14854146108cc578063989bc92414610481578063a217fddf14610465578063acff868714610381578063b2c2392514610326578063c2e4628b1461030a578063d547741f146102c9578063e6807ca91461028d578063f14b5bd6146101575763fe575a871461010657600080fd5b346101525760206003193601126101525773ffffffffffffffffffffffffffffffffffffffff6101346113f3565b166000526002602052602060ff604060002054166040519015158152f35b600080fd5b3461015257602080600319360112610152576000805260008152604060002033600052815260ff6040600020541615610256576004356000526001815260406000209073ffffffffffffffffffffffffffffffffffffffff60018301541680156101f8579060029160005252604060002060ff198154169055547f4913f366c106d7d48541e8c153818da1cc01adfccd1827cebc325c98d627d032600080a2005b606482604051907f08c379a00000000000000000000000000000000000000000000000000000000082526004820152600f60248201527f456e747279206e6f7420666f756e6400000000000000000000000000000000006044820152fd5b60446040517fe2517d3f00000000000000000000000000000000000000000000000000000000815233600482015260006024820152fd5b346101525760206003193601126101525760406102c76102b36102ae6113f3565b611680565b839291925192151583526020830190611365565bf35b34610152576040600319360112610152576103086004356102e86113d0565b9080600052600060205261030360016040600020015461151e565b6115d0565b005b3461015257600060031936011261015257602060405160038152f35b346101525760406003193601126101525761033f6113d0565b600435600052600460205273ffffffffffffffffffffffffffffffffffffffff60406000209116600052602052602060ff604060002054166040519015158152f35b34610152576020600319360112610152576004356000526003602052604060002080549060018101549073ffffffffffffffffffffffffffffffffffffffff600282015416916103d3600383016112be565b9161041260048201549360ff60058401541695600760068501549401549460405198895260208901526040880152610100806060890152870190611372565b926080860152600384101561043657849360a085015260c084015260e08301520390f35b7f4e487b7100000000000000000000000000000000000000000000000000000000600052602160045260246000fd5b3461015257600060031936011261015257602060405160008152f35b346101525760c06003193601126101525760043561049d6113d0565b6044359160068310156101525767ffffffffffffffff92606435848111610152576104cc903690600401611416565b906084359384151590818603610152576104e461148b565b73ffffffffffffffffffffffffffffffffffffffff80911695866000526020946002865260ff6040600020541661086e57610520600554611653565b918260055560001461082d576000985b6040519261053d84611260565b888452878401948a865260408501958887526060860190428252608087019333855260a0880196875260c08801998a5260e088019e8f52600052600197888c52604060002097518855838989019251168254915160068110156104365774ff00000000000000000000000000000000000000007fffffffffffffffffffffff0000000000000000000000000000000000000000009160a01b16921617179055516002860155600385019151167fffffffffffffffffffffffff000000000000000000000000000000000000000082541617905560048301915180519182116107fe57610629835461120d565b601f81116107b5575b508790601f83116001146106ef579180600694927ffc6f1e5702dd207f197e6b5bd0d6b5aa53cd492408ab9afd0bc83878274e4f449b9c9d946000926106e4575b50507fffffffffffffffffffffffffffffffffffffffffffffffffffffffffffffffff82881b9260031b1c19161790555b60058301945115159460ff199560ff8783541691161790555191015586600052600284526040600020918254161790556106e16040518092611365565ba3005b015190508d80610673565b907fffffffffffffffffffffffffffffffffffffffffffffffffffffffffffffffe083169184600052896000209260005b8181106107a0575092879285927ffc6f1e5702dd207f197e6b5bd0d6b5aa53cd492408ab9afd0bc83878274e4f449d9e9f966006989610610769575b505050811b0190556106a4565b01517fffffffffffffffffffffffffffffffffffffffffffffffffffffffffffffffff60f88460031b161c191690558d808061075c565b82840151855593880193928b01928b01610720565b8360005288600020601f840160051c8101918a85106107f4575b601f0160051c019086905b8281106107e8575050610632565b600081550186906107da565b90915081906107cf565b7f4e487b7100000000000000000000000000000000000000000000000000000000600052604160045260246000fd5b60a435420180421161083f5798610530565b7f4e487b7100000000000000000000000000000000000000000000000000000000600052601160045260246000fd5b606486604051907f08c379a00000000000000000000000000000000000000000000000000000000082526004820152601360248201527f416c726561647920626c61636b6c6973746564000000000000000000000000006044820152fd5b34610152576040600319360112610152576108e56113d0565b600435600052600060205273ffffffffffffffffffffffffffffffffffffffff60406000209116600052602052602060ff604060002054166040519015158152f35b346101525760406003193601126101525760043560243580151581036101525761094f61148b565b8160005260206003815260406000206005810160ff815416600381101561043657610af8578460005260048352604060002033600052835260ff60406000205416610a9a578460005260048352604060002033600052835260406000209360ff1994600186825416179055600014610a8557600682016109cf8154611653565b90555b6006820154600311610a4157600284928260017f89cd618842088e9ada48e481bba3a9320eba61a9329ef23ede5abd02837084a59773ffffffffffffffffffffffffffffffffffffffff95541617905501541660005260028252604060002090815416905560405160018152a2005b90600760039101541015610a5157005b60027f89cd618842088e9ada48e481bba3a9320eba61a9329ef23ede5abd02837084a59382541617905560405160008152a2005b60078201610a938154611653565b90556109d2565b606483604051907f08c379a00000000000000000000000000000000000000000000000000000000082526004820152600d60248201527f416c726561647920766f746564000000000000000000000000000000000000006044820152fd5b606483604051907f08c379a00000000000000000000000000000000000000000000000000000000082526004820152601260248201527f41707065616c206e6f742070656e64696e6700000000000000000000000000006044820152fd5b34610152576000600319360112610152576020600654604051908152f35b346101525760006003193601126101525760206040517ff988e4fb62b8e14f4820fed03192306ddf4d7dbfa215595ba1c6ba4b76b369ee8152f35b346101525760406003193601126101525767ffffffffffffffff60243581811161015257610be1903690600401611416565b33600052600260205260ff6040600020541615610e8557610c03600654611653565b8060065560405191610c1483611260565b818352602083019060043582526040840133815260608501918252426080860152600060a0860152600060c0860152600060e08601528360005260036020526040600020928551845551600184015573ffffffffffffffffffffffffffffffffffffffff600284019151167fffffffffffffffffffffffff0000000000000000000000000000000000000000825416179055519384519081116107fe57610cbe600383015461120d565b601f8111610e3e575b50602094601f8211600114610d9657948192939495600092610d8b575b50507fffffffffffffffffffffffffffffffffffffffffffffffffffffffffffffffff8260011b9260031b1c19161760038201555b608083015160048201556005810160a08401516003811015610436576020948260e09260ff60ff196007965416911617905560c08101516006850155015191015560405190600435817f70c90e17f71e855de670ec7989f628784e3f9cae4c05fc7815fd239e9a13b99a600080a38152f35b015190508580610ce4565b7fffffffffffffffffffffffffffffffffffffffffffffffffffffffffffffffe08216956003840160005260206000209160005b888110610e2657508360019596979810610def575b505050811b016003820155610d19565b01517fffffffffffffffffffffffffffffffffffffffffffffffffffffffffffffffff60f88460031b161c19169055858080610ddf565b91926020600181928685015181550194019201610dca565b600383016000526020600020601f830160051c810160208410610e7e575b601f830160051c82018110610e72575050610cc7565b60008155600101610e5c565b5080610e5c565b60646040517f08c379a000000000000000000000000000000000000000000000000000000000815260206004820152600f60248201527f4e6f7420626c61636b6c697374656400000000000000000000000000000000006044820152fd5b3461015257604060031936011261015257610efc6113d0565b3373ffffffffffffffffffffffffffffffffffffffff821603610f2557610308906004356115d0565b60046040517f6697b232000000000000000000000000000000000000000000000000000000008152fd5b3461015257604060031936011261015257610308600435610f6e6113d0565b90806000526000602052610f8960016040600020015461151e565b611544565b346101525760206003193601126101525760043560005260006020526020600160406000200154604051908152f35b34610152576000600319360112610152576020600554604051908152f35b346101525760006003193601126101525760058054600080806001805b858111156110715750600654905b8181111561102b57505060809450604051938452602084015260408301526060820152f35b8060005260038060205260ff88604060002001541690811015610436571561105c575b61105790611653565b611006565b9361106961105791611653565b94905061104e565b91826000528160205260ff8760406000200154166000146110a35761109861109e91611653565b92611653565b610ff8565b91926110b161109e91611653565b93611653565b346101525760206003193601126101525760043560005260016020526040600020805460018201549160028101549261115e73ffffffffffffffffffffffffffffffffffffffff9485600385015416611112600486016112be565b91611143600660ff60058901541697015495604051998a998a52811660208a015260ff60408a019160a01c16611365565b606087015260808601526101008060a0870152850190611372565b91151560c084015260e08301520390f35b3461015257602060031936011261015257600435907fffffffff00000000000000000000000000000000000000000000000000000000821680920361015257817f7965db0b00000000000000000000000000000000000000000000000000000000602093149081156111e3575b5015158152f35b7f01ffc9a700000000000000000000000000000000000000000000000000000000915014836111dc565b90600182811c92168015611256575b602083101461122757565b7f4e487b7100000000000000000000000000000000000000000000000000000000600052602260045260246000fd5b91607f169161121c565b610100810190811067ffffffffffffffff8211176107fe57604052565b90601f7fffffffffffffffffffffffffffffffffffffffffffffffffffffffffffffffe0910116810190811067ffffffffffffffff8211176107fe57604052565b90604051918260008254926112d28461120d565b90818452600194858116908160001461134157506001146112fe575b50506112fc9250038361127d565b565b9093915060005260209081600020936000915b8183106113295750506112fc935082010138806112ee565b85548884018501529485019487945091830191611311565b90506112fc95506020935060ff1991501682840152151560051b82010138806112ee565b9060068210156104365752565b919082519283825260005b8481106113bc5750507fffffffffffffffffffffffffffffffffffffffffffffffffffffffffffffffe0601f8460006020809697860101520116010190565b60208183018101518483018201520161137d565b6024359073ffffffffffffffffffffffffffffffffffffffff8216820361015257565b6004359073ffffffffffffffffffffffffffffffffffffffff8216820361015257565b81601f820112156101525780359067ffffffffffffffff82116107fe576040519261146960207fffffffffffffffffffffffffffffffffffffffffffffffffffffffffffffffe0601f860116018561127d565b8284526020838301011161015257816000926020809301838601378301015290565b3360009081527f77ee143005ee4d306026f84966aed6ca2870dbfd51d5df9909fea84498c30ff860205260409020547ff988e4fb62b8e14f4820fed03192306ddf4d7dbfa215595ba1c6ba4b76b369ee9060ff16156114e75750565b604490604051907fe2517d3f0000000000000000000000000000000000000000000000000000000082523360048301526024820152fd5b80600052600060205260406000203360005260205260ff60406000205416156114e75750565b906000918083528260205273ffffffffffffffffffffffffffffffffffffffff6040842092169182845260205260ff604084205416156000146115cb57808352826020526040832082845260205260408320600160ff198254161790557f2f8788117e7eff1d82e926ec794901d17c78024a50270940304540a733656f0d339380a4600190565b505090565b906000918083528260205273ffffffffffffffffffffffffffffffffffffffff6040842092169182845260205260ff6040842054166000146115cb5780835282602052604083208284526020526040832060ff1981541690557ff6391f5c32d9c69d2a47ea670b442974b53935d1edc7fd64eb21e047a839171b339380a4600190565b7fffffffffffffffffffffffffffffffffffffffffffffffffffffffffffffffff811461083f5760010190565b9073ffffffffffffffffffffffffffffffffffffffff809216916000928084526020906002825260ff906040928284882054161561173d576001936005918254955b868111156116d65750505050505050508190565b808a5260018252828a20600181015490868a8316146116ff5750506116fa90611653565b6116c2565b9698509996505050508491508201541615908161172e575b50611727575060019260a01c1690565b9250508190565b60069150015442101538611717565b5050505050819056fea2646970667358221220d6671d01120d333de843789defd5fa0287017933c599d6a398585c0d3d91780464736f6c634300081400332f8788117e7eff1d82e926ec794901d17c78024a50270940304540a733656f0d",
  "linkReferences": {},
  "deployedLinkReferences": {}
}