{
  "_format": "hh-sol-artifact-1",
  "contractName": "VenueRegistry",
  "sourceName": "contracts/layer5/VenueRegistry.sol",
  "abi": [
    {
      "inputs": [],
      "stateMutability": "nonpayable",
      "type": "constructor"
    },
    {
      "inputs": [],
      "name": "AccessControlBadConfirmation",
      "type": "error"
    },
    {
      "inputs": [
        {
          "internalType": "address",
          "name": "account",
          "type": "address"
        },
        {
          "internalType": "bytes32",
          "name": "neededRole",
          "type": "bytes32"
        }
      ],
      "name": "AccessControlUnauthorizedAccount",
      "type": "error"
    },
    {
      "inputs": [],
      "name": "ReentrancyGuardReentrantCall",
      "type": "error"
    },
    {
      "anonymous": false,
      "inputs": [
        {
          "indexed": true,
          "internalType": "bytes32",
          "name": "role",
          "type": "bytes32"
        },
        {
          "indexed": true,
          "internalType": "bytes32",
          "name": "previousAdminRole",
          "type": "bytes32"
        },
        {
          "indexed": true,
          "internalType": "bytes32",
          "name": "newAdminRole",
          "type": "bytes32"
        }
      ],
      "name": "RoleAdminChanged",
      "type": "event"
    },
    {
      "anonymous": false,
      "inputs": [
        {
          "indexed": true,
          "internalType": "bytes32",
          "name": "role",
          "type": "bytes32"
        },
        {
          "indexed": true,
          "internalType": "address",
          "name": "account",
          "type": "address"
        },
        {
          "indexed": true,
          "internalType": "address",
          "name": "sender",
          "type": "address"
        }
      ],
      "name": "RoleGranted",
      "type": "event"
    },
    {
      "anonymous": false,
      "inputs": [
        {
          "indexed": true,
          "internalType": "bytes32",
          "name": "role",
          "type": "bytes32"
        },
        {
          "indexed": true,
          "internalType": "address",
          "name": "account",
          "type": "address"
        },
        {
          "indexed": true,
          "internalType": "address",
          "name": "sender",
          "type": "address"
        }
      ],
      "name": "RoleRevoked",
      "type": "event"
    },
    {
      "anonymous": false,
      "inputs": [
        {
          "indexed": true,
          "internalType": "uint256",
          "name": "venueId",
          "type": "uint256"
        },
        {
          "indexed": true,
          "internalType": "address",
          "name": "rater",
          "type": "address"
        },
        {
          "indexed": false,
          "internalType": "uint256",
          "name": "rating",
          "type": "uint256"
        }
      ],
      "name": "VenueRated",
      "type": "event"
    },
    {
      "anonymous": false,
      "inputs": [
        {
          "indexed": true,
          "internalType": "uint256",
          "name": "venueId",
          "type": "uint256"
        },
        {
          "indexed": true,
          "internalType": "uint256",
          "name": "stadiumNFTId",
          "type": "uint256"
        },
        {
          "indexed": true,
          "internalType": "address",
          "name": "owner",
          "type": "address"
        },
        {
          "indexed": false,
          "internalType": "string",
          "name": "name",
          "type": "string"
        }
      ],
      "name": "VenueRegistered",
      "type": "event"
    },
    {
      "anonymous": false,
      "inputs": [
        {
          "indexed": true,
          "internalType": "uint256",
          "name": "venueId",
          "type": "uint256"
        },
        {
          "indexed": false,
          "internalType": "enum VenueRegistry.VenueStatus",
          "name": "oldStatus",
          "type": "uint8"
        },
        {
          "indexed": false,
          "internalType": "enum VenueRegistry.VenueStatus",
          "name": "newStatus",
          "type": "uint8"
        }
      ],
      "name": "VenueStatusChanged",
      "type": "event"
    },
    {
      "anonymous": false,
      "inputs": [
        {
          "indexed": true,
          "internalType": "uint256",
          "name": "venueId",
          "type": "uint256"
        }
      ],
      "name": "VenueVerified",
      "type": "event"
    },
    {
      "inputs": [],
      "name": "DEFAULT_ADMIN_ROLE",
      "outputs": [
        {
          "internalType": "bytes32",
          "name": "",
          "type": "bytes32"
        }
      ],
      "stateMutability": "view",
      "type": "function"
    },
    {
      "inputs": [],
      "name": "REGISTRAR_ROLE",
      "outputs": [
        {
          "internalType": "bytes32",
          "name": "",
          "type": "bytes32"
        }
      ],
      "stateMutability": "view",
      "type": "function"
    },
    {
      "inputs": [
        {
          "internalType": "bytes32",
          "name": "role",
          "type": "bytes32"
        }
      ],
      "name": "getRoleAdmin",
      "outputs": [
        {
          "internalType": "bytes32",
          "name": "",
          "type": "bytes32"
        }
      ],
      "stateMutability": "view",
      "type": "function"
    },
    {
      "inputs": [
        {
          "internalType": "uint256",
          "name": "venueId",
          "type": "uint256"
        }
      ],
      "name": "getVenueRatings",
      "outputs": [
        {
          "components": [
            {
              "internalType": "address",
              "name": "rater",
              "type": "address"
            },
            {
              "internalType": "uint256",
              "name": "rating",
              "type": "uint256"
            },
            {
              "internalType": "string",
              "name": "comment",
              "type": "string"
            },
            {
              "internalType": "uint256",
              "name": "timestamp",
              "type": "uint256"
            }
          ],
          "internalType": "struct VenueRegistry.VenueRating[]",
          "name": "",
          "type": "tuple[]"
        }
      ],
      "stateMutability": "view",
      "type": "function"
    },
    {
      "inputs": [
        {
          "internalType": "address",
          "name": "owner",
          "type": "address"
        }
      ],
      "name": "getVenuesByOwner",
      "outputs": [
        {
          "internalType": "uint256[]",
          "name": "",
          "type": "uint256[]"
        }
      ],
      "stateMutability": "view",
      "type": "function"
    },
    {
      "inputs": [
        {
          "internalType": "enum VenueRegistry.VenueType",
          "name": "t",
          "type": "uint8"
        }
      ],
      "name": "getVenuesByType",
      "outputs": [
        {
          "internalType": "uint256[]",
          "name": "",
          "type": "uint256[]"
        }
      ],
      "stateMutability": "view",
      "type": "function"
    },
    {
      "inputs": [
        {
          "internalType": "bytes32",
          "name": "role",
          "type": "bytes32"
        },
        {
          "internalType": "address",
          "name": "account",
          "type": "address"
        }
      ],
      "name": "grantRole",
      "outputs": [],
      "stateMutability": "nonpayable",
      "type": "function"
    },
    {
      "inputs": [
        {
          "internalType": "address",
          "name": "",
          "type": "address"
        },
        {
          "internalType": "uint256",
          "name": "",
          "type": "uint256"
        }
      ],
      "name": "hasRated",
      "outputs": [
        {
          "internalType": "bool",
          "name": "",
          "type": "bool"
        }
      ],
      "stateMutability": "view",
      "type": "function"
    },
    {
      "inputs": [
        {
          "internalType": "bytes32",
          "name": "role",
          "type": "bytes32"
        },
        {
          "internalType": "address",
          "name": "account",
          "type": "address"
        }
      ],
      "name": "hasRole",
      "outputs": [
        {
          "internalType": "bool",
          "name": "",
          "type": "bool"
        }
      ],
      "stateMutability": "view",
      "type": "function"
    },
    {
      "inputs": [
        {
          "internalType": "address",
          "name": "",
          "type": "address"
        },
        {
          "internalType": "uint256",
          "name": "",
          "type": "uint256"
        }
      ],
      "name": "ownerVenues",
      "outputs": [
        {
          "internalType": "uint256",
          "name": "",
          "type": "uint256"
        }
      ],
      "stateMutability": "view",
      "type": "function"
    },
    {
      "inputs": [
        {
          "internalType": "uint256",
          "name": "venueId",
          "type": "uint256"
        },
        {
          "internalType": "uint256",
          "name": "rating",
          "type": "uint256"
        },
        {
          "internalType": "string",
          "name": "comment",
          "type": "string"
        }
      ],
      "name": "rateVenue",
      "outputs": [],
      "stateMutability": "nonpayable",
      "type": "function"
    },
    {
      "inputs": [
        {
          "internalType": "uint256",
          "name": "venueId",
          "type": "uint256"
        }
      ],
      "name": "recordEvent",
      "outputs": [],
      "stateMutability": "nonpayable",
      "type": "function"
    },
    {
      "inputs": [
        {
          "internalType": "uint256",
          "name": "stadiumNFTId",
          "type": "uint256"
        },
        {
          "internalType": "string",
          "name": "name",
          "type": "string"
        },
        {
          "internalType": "string",
          "name": "description",
          "type": "string"
        },
        {
          "internalType": "enum VenueRegistry.VenueType",
          "name": "venueType",
          "type": "uint8"
        },
        {
          "internalType": "string",
          "name": "metadataURI",
          "type": "string"
        },
        {
          "internalType": "string[]",
          "name": "tags",
          "type": "string[]"
        }
      ],
      "name": "registerVenue",
      "outputs": [
        {
          "internalType": "uint256",
          "name": "",
          "type": "uint256"
        }
      ],
      "stateMutability": "nonpayable",
      "type": "function"
    },
    {
      "inputs": [
        {
          "internalType": "bytes32",
          "name": "role",
          "type": "bytes32"
        },
        {
          "internalType": "address",
          "name": "callerConfirmation",
          "type": "address"
        }
      ],
      "name": "renounceRole",
      "outputs": [],
      "stateMutability": "nonpayable",
      "type": "function"
    },
    {
      "inputs": [
        {
          "internalType": "bytes32",
          "name": "role",
          "type": "bytes32"
        },
        {
          "internalType": "address",
          "name": "account",
          "type": "address"
        }
      ],
      "name": "revokeRole",
      "outputs": [],
      "stateMutability": "nonpayable",
      "type": "function"
    },
    {
      "inputs": [
        {
          "internalType": "uint256",
          "name": "venueId",
          "type": "uint256"
        },
        {
          "internalType": "enum VenueRegistry.VenueStatus",
          "name": "status",
          "type": "uint8"
        }
      ],
      "name": "setVenueStatus",
      "outputs": [],
      "stateMutability": "nonpayable",
      "type": "function"
    },
    {
      "inputs": [
        {
          "internalType": "uint256",
          "name": "",
          "type": "uint256"
        }
      ],
      "name": "stadiumRegistered",
      "outputs": [
        {
          "internalType": "bool",
          "name": "",
          "type": "bool"
        }
      ],
      "stateMutability": "view",
      "type": "function"
    },
    {
      "inputs": [
        {
          "internalType": "bytes4",
          "name": "interfaceId",
          "type": "bytes4"
        }
      ],
      "name": "supportsInterface",
      "outputs": [
        {
          "internalType": "bool",
          "name": "",
          "type": "bool"
        }
      ],
      "stateMutability": "view",
      "type": "function"
    },
    {
      "inputs": [],
      "name": "totalVenues",
      "outputs": [
        {
          "internalType": "uint256",
          "name": "",
          "type": "uint256"
        }
      ],
      "stateMutability": "view",
      "type": "function"
    },
    {
      "inputs": [
        {
          "internalType": "uint256",
          "name": "",
          "type": "uint256"
        },
        {
          "internalType": "uint256",
          "name": "",
          "type": "uint256"
        }
      ],
      "name": "venueRatings",
      "outputs": [
        {
          "internalType": "address",
          "name": "rater",
          "type": "address"
        },
        {
          "internalType": "uint256",
          "name": "rating",
          "type": "uint256"
        },
        {
          "internalType": "string",
          "name": "comment",
          "type": "string"
        },
        {
          "internalType": "uint256",
          "name": "timestamp",
          "type": "uint256"
        }
      ],
      "stateMutability": "view",
      "type": "function"
    },
    {
      "inputs": [
        {
          "internalType": "uint256",
          "name": "",
          "type": "uint256"
        }
      ],
      "name": "venues",
      "outputs": [
        {
          "internalType": "uint256",
          "name": "venueId",
          "type": "uint256"
        },
        {
          "internalType": "uint256",
          "name": "stadiumNFTId",
          "type": "uint256"
        },
        {
          "internalType": "string",
          "name": "name",
          "type": "string"
        },
        {
          "internalType": "string",
          "name": "description",
          "type": "string"
        },
        {
          "internalType": "enum VenueRegistry.VenueType",
          "name": "venueType",
          "type": "uint8"
        },
        {
          "internalType": "enum VenueRegistry.VenueStatus",
          "name": "status",
          "type": "uint8"
        },
        {
          "internalType": "address",
          "name": "owner",
          "type": "address"
        },
        {
          "internalType": "uint256",
          "name": "registeredAt",
          "type": "uint256"
        },
        {
          "internalType": "uint256",
          "name": "totalEventsHosted",
          "type": "uint256"
        },
        {
          "internalType": "uint256",
          "name": "averageRating",
          "type": "uint256"
        },
        {
          "internalType": "uint256",
          "name": "totalRatings",
          "type": "uint256"
        },
        {
          "internalType": "bool",
          "name": "isVerified",
          "type": "bool"
        },
        {
          "internalType": "string",
          "name": "metadataURI",
          "type": "string"
        }
      ],
      "stateMutability": "view",
      "type": "function"
    },
    {
      "inputs": [
        {
          "internalType": "string",
          "name": "",
          "type": "string"
        },
        {
          "internalType": "uint256",
          "name": "",
          "type": "uint256"
        }
      ],
      "name": "venuesByTag",
      "outputs": [
        {
          "internalType": "uint256",
          "name": "",
          "type": "uint256"
        }
      ],
      "stateMutability": "view",
      "type": "function"
    },
    {
      "inputs": [
        {
          "internalType": "enum VenueRegistry.VenueType",
          "name": "",
          "type": "uint8"
        },
        {
          "internalType": "uint256",
          "name": "",
          "type": "uint256"
        }
      ],
      "name": "venuesByType",
      "outputs": [
        {
          "internalType": "uint256",
          "name": "",
          "type": "uint256"
        }
      ],
      "stateMutability": "view",
      "type": "function"
    },
    {
      "inputs": [],
      "name": "verifiedVenues",
      "outputs": [
        {
          "internalType": "uint256",
          "name": "",
          "type": "uint256"
        }
      ],
      "stateMutability": "view",
      "type": "function"
    },
    {
      "inputs": [
        {
          "internalType": "uint256",
          "name": "venueId",
          "type": "uint256"
        }
      ],
      "name": "verifyVenue",
      "outputs": [],
      "stateMutability": "nonpayable",
      "type": "function"
    }
  ],
  "bytecode": "0x60806040523462000036576001805562000019336200003b565b506200002533620000bb565b506040516120e290816200015e8239f35b600080fd5b6001600160a01b031660008181527fad3228b676f7d3cd4284a5443f17f1962b36e491b30a40b2405849e597ba5fb5602052604081205490919060ff16620000b757818052816020526040822081835260205260408220600160ff198254161790553391600080516020620022408339815191528180a4600190565b5090565b6001600160a01b031660008181527f01ddc098da42acdf4176da08ec75800bc0fb2bce2be978b2037bcb0ae696651960205260408120549091907fedcc084d3dcd65a1f7f23c65c46722faca6953d28e43150a467cf43e5c3092389060ff166200015857808352826020526040832082845260205260408320600160ff1982541617905560008051602062002240833981519152339380a4600190565b50509056fe608080604052600436101561001357600080fd5b60003560e01c90816301ffc9a714611b155750806302daf12f146119f4578063248a9ca3146119c55780632f2ff15d14611986578063329d9a241461196857806336568abe146118fc57806348e56e1514610f9f5780635fe50fce14610e2b5780636a4de90d14610dbf578063712a8f3514610da15780638302644c14610d6357806383191a5d14610c2757806391d1485414610bcc5780639e3ad9ce14610b475780639e52634a14610a13578063a217fddf146109f7578063a713e74714610476578063ab933fb5146103b4578063c76b917114610321578063d25468b3146102c7578063d30de42914610247578063d547741f14610206578063e0780260146101d5578063f1b05e9f146101725763f68e95531461013257600080fd5b3461016d57600060031936011261016d5760206040517fedcc084d3dcd65a1f7f23c65c46722faca6953d28e43150a467cf43e5c3092388152f35b600080fd5b3461016d57604060031936011261016d5761018b611d64565b73ffffffffffffffffffffffffffffffffffffffff602435911660005260066020526040600020805482101561016d576020916101c791611df6565b90546040519160031b1c8152f35b3461016d57602060031936011261016d576004356000526005602052602060ff604060002054166040519015158152f35b3461016d57604060031936011261016d57610245600435610225611d41565b90806000526000602052610240600160406000200154611ead565b611f5f565b005b3461016d5760208060031936011261016d57600435600781101561016d5761026e90611e3d565b90604051908181845491828152019360005281600020916000905b8282106102b0576102ac856102a081890382611c22565b60405191829182611e56565b0390f35b835486529485019460019384019390910190610289565b3461016d57604060031936011261016d5773ffffffffffffffffffffffffffffffffffffffff6102f5611d64565b1660005260096020526040600020602435600052602052602060ff604060002054166040519015158152f35b3461016d57604060031936011261016d576024356004356000526004602052604060002090815481101561016d5761035891611e91565b5073ffffffffffffffffffffffffffffffffffffffff8154166001820154916103aa600361038860028401611c45565b9201549160405194859485526020850152608060408501526080840190611d0f565b9060608301520390f35b3461016d57602060031936011261016d573360009081527f01ddc098da42acdf4176da08ec75800bc0fb2bce2be978b2037bcb0ae696651960205260409020547fedcc084d3dcd65a1f7f23c65c46722faca6953d28e43150a467cf43e5c3092389060ff161561043f576004356000526003602052600660406000200161043b8154611fe2565b9055005b604490604051907fe2517d3f0000000000000000000000000000000000000000000000000000000082523360048301526024820152fd5b3461016d57606060031936011261016d576024803560043567ffffffffffffffff60443581811161016d576104af903690600401611d87565b826000526003906020928284526040600020541561099a57600190818710158061098f575b15610932573360005260098552604060002086600052855260ff604060002054166108d5578560005283855273ffffffffffffffffffffffffffffffffffffffff92338460046040600020015460101c1614610878573360005260098652604060002087600052865260406000208360ff19825416179055600486526040600020916040519461056386611c06565b338652878601908a825260408701938452606087019442865280546801000000000000000081101561084a5761059d918882018155611e91565b97909761081c5751167fffffffffffffffffffffffff000000000000000000000000000000000000000087541617865551848601556002850191519384519182116107ee5786946105ee8454611bb3565b601f81116107b3575b508890601f841160011461075157600091849182610744575b505060001991921b92861b1c19161790555b519101558260005281526040600020600760088201916106428354611fe2565b80935501908154600019820190828211610716578181029181830414901517156106e85760648602868104606414871517156107165781018091116106e85781156106ba577fd97d046607cd679256843384b4e81ad4fa4c621b6193c78a6dda8238a2d32781949596500490556040519384523393a3005b867f4e487b710000000000000000000000000000000000000000000000000000000060005260126004526000fd5b867f4e487b710000000000000000000000000000000000000000000000000000000060005260116004526000fd5b877f4e487b710000000000000000000000000000000000000000000000000000000060005260116004526000fd5b015191506000198e610610565b90601f198493941691856000528a6000209260005b8c82821061079c5750508411610784575b505050811b019055610622565b015160001960f884891b161c191690558b8080610777565b8484015186558c9a50948701949384019301610766565b6107de90856000528a600020601f860160051c8101918c87106107e4575b601f0160051c0190612020565b8c6105f7565b90915081906107d1565b8a7f4e487b710000000000000000000000000000000000000000000000000000000060005260416004526000fd5b8c7f4e487b710000000000000000000000000000000000000000000000000000000060005260006004526000fd5b8d7f4e487b710000000000000000000000000000000000000000000000000000000060005260416004526000fd5b606486600e8b604051927f08c379a000000000000000000000000000000000000000000000000000000000845260048401528201527f4e6f2073656c662d726174696e670000000000000000000000000000000000006044820152fd5b606485600d8a604051927f08c379a000000000000000000000000000000000000000000000000000000000845260048401528201527f416c7265616479207261746564000000000000000000000000000000000000006044820152fd5b606485600a8a604051927f08c379a000000000000000000000000000000000000000000000000000000000845260048401528201527f526174696e6720312d35000000000000000000000000000000000000000000006044820152fd5b5060058711156104d4565b606484600989604051927f08c379a000000000000000000000000000000000000000000000000000000000845260048401528201527f4e6f7420666f756e6400000000000000000000000000000000000000000000006044820152fd5b3461016d57600060031936011261016d57602060405160008152f35b3461016d5760208060031936011261016d57600435906000805260008152604060002033600052815260ff6040600020541615610b1057816000526003815260ff60096040600020015416610ab25760039082600052526009604060002001600160ff19825416179055610a88600b54611fe2565b600b557f67b7cb2655d0eb49067b660563cb742910015adcf59c91b2346087213e5bb231600080a2005b606490604051907f08c379a00000000000000000000000000000000000000000000000000000000082526004820152601060248201527f416c7265616479207665726966696564000000000000000000000000000000006044820152fd5b60446040517fe2517d3f00000000000000000000000000000000000000000000000000000000815233600482015260006024820152fd5b3461016d5760208060031936011261016d5773ffffffffffffffffffffffffffffffffffffffff610b76611d64565b1660005260068152604060002090604051908181845491828152019360005281600020916000905b828210610bb5576102ac856102a081890382611c22565b835486529485019460019384019390910190610b9e565b3461016d57604060031936011261016d57610be5611d41565b600435600052600060205273ffffffffffffffffffffffffffffffffffffffff60406000209116600052602052602060ff604060002054166040519015158152f35b3461016d57604060031936011261016d57600435602435600481101561016d57816000526020906003825273ffffffffffffffffffffffffffffffffffffffff60046040600020015460101c1633148015610d41575b15610ce3577f9de37afdb1520dfbb352030200fa7bdb2aeef639f811701f3bb30a912b197d8991610ce060409285600052600383526004846000200192610ccc8260ff865460081c1695612037565b610cd885518095611d34565b830190611d34565ba2005b606482604051907f08c379a00000000000000000000000000000000000000000000000000000000082526004820152600e60248201527f4e6f7420617574686f72697a65640000000000000000000000000000000000006044820152fd5b506000805260008252604060002033600052825260ff60406000205416610c7d565b3461016d57604060031936011261016d57600435600781101561016d57610d8c60243591611e3d565b805482101561016d576020916101c791611df6565b3461016d57600060031936011261016d576020600b54604051908152f35b3461016d57604060031936011261016d5760043567ffffffffffffffff811161016d57610df0903690600401611d87565b610e0c6020602435928160405193828580945193849201611cec565b81016007815203019020805482101561016d576020916101c791611df6565b3461016d5760208060031936011261016d5760043560005260048152604060002090815491610e5983611dde565b92610e676040519485611c22565b8084528284018092600052836000206000915b838310610f3c5750505050604051918083019381845251809452604083019360408160051b85010192916000955b828710610eb55785850386f35b909192938280827fffffffffffffffffffffffffffffffffffffffffffffffffffffffffffffffc0896001950301855287519073ffffffffffffffffffffffffffffffffffffffff82511681528282015183820152610f2260408301516080806040850152830190611d0f565b916060809101519101529601920196019592919092610ea8565b600486600192604099989951610f5181611c06565b73ffffffffffffffffffffffffffffffffffffffff86541681528486015483820152610f7f60028701611c45565b604082015260038601546060820152815201920192019190959495610e7a565b3461016d5760c060031936011261016d5760243567ffffffffffffffff811161016d57610fd0903690600401611d87565b60443567ffffffffffffffff811161016d57610ff0903690600401611d87565b6007606435101561016d5760843567ffffffffffffffff811161016d5761101b903690600401611d87565b9060a4359067ffffffffffffffff821161016d573660238301121561016d57816004013561104881611dde565b926110566040519485611c22565b8184526024602085019260051b8201019036821161016d5760248101925b8284106118cc5750505050600435600052600560205260ff6040600020541661186e576110a2600254611fe2565b928360025560405191826101c081011067ffffffffffffffff6101c085011117611580576101c08301604052848352600435602084015285604084015260608301526064356080830152600060a08301523360c08301524260e08301526000610100830152600061012083015260006101408301526000610160830152610180820152816101a08201528260005260036020526040600020908051825560208101516001830155604081015180519067ffffffffffffffff821161158057819061116f6002860154611bb3565b601f8111611839575b50602090601f83116001146117c7576000926117bc575b50506000198260011b9260031b1c19161760028301555b606081015180519067ffffffffffffffff82116115805781906111cc6003860154611bb3565b601f8111611787575b50602090601f83116001146117155760009261170a575b50506000198260011b9260031b1c19161760038301555b608081015160078110156116db5760ff60ff19600485015416911617600483015560a081015160048110156116db5761123f9060048401612037565b60c08101517fffffffffffffffffffff0000000000000000000000000000000000000000ffff75ffffffffffffffffffffffffffffffffffffffff000060048501549260101b16911617600483015560e0810151600583015561010081015160068301556101208101516007830155610140810151600883015560098201610160820151151560ff60ff19835416911617905561018081015180519067ffffffffffffffff8211611580576112f7600a850154611bb3565b601f81116116a6575b50602090601f8311600114611632576101a093929160009183611627575b50506000198260011b9260031b1c191617600a8401555b015180519068010000000000000000821161158057600b83015482600b8501558083106115af575b506020600b910192016000526020600020916000905b82821061146b575050505060043560005260056020526040600020600160ff198254161790553360005260066020526113b0826040600020612073565b6113c4826113bf606435611e3d565b612073565b60005b81518110156114125780611408846113f960208061140d9660051b880101518160405193828580945193849201611cec565b81016007815203019020612073565b611fe2565b6113c7565b60208385611421600a54611fe2565b600a5560405190838252827f026115080985d971c0b60c7d943f316704cb50d500177219b1c70284339f27c23393806114606004359589830190611d0f565b0390a4604051908152f35b805180519067ffffffffffffffff8211611580576114898654611bb3565b601f811161154e575b50602090601f83116001146114de5792826001949360209386956000926114d3575b505060001982861b9260031b1c19161787555b01940191019092611373565b015190508c806114b4565b908660005260206000209160005b601f19851681106115365750836020936001969387969383601f198996161061151d575b505050811b0187556114c7565b015160001960f88460031b161c191690558c8080611510565b919260206001819286850151815501940192016114ec565b61157a90876000526020600020601f850160051c810191602086106107e457601f0160051c0190612020565b89611492565b7f4e487b7100000000000000000000000000000000000000000000000000000000600052604160045260246000fd5b600b84016000526020600020908382015b81830181106115d057505061135d565b806115dd60019254611bb3565b806115ea575b50016115c0565b601f811183146116005750600081555b8a6115e3565b60009082825261161e601f60208420920160051c8201858301612020565b818355556115fa565b01519050888061131e565b90600a850160005260206000209160005b601f198516811061168e575091839160019383601f196101a098971610611675575b505050811b01600a840155611335565b015160001960f88460031b161c19169055888080611665565b91926020600181928685015181550194019201611643565b6116d590600a86016000526020600020601f850160051c810191602086106107e457601f0160051c0190612020565b87611300565b7f4e487b7100000000000000000000000000000000000000000000000000000000600052602160045260246000fd5b0151905087806111ec565b9250600385016000526020600020906000935b601f198416851061176c576001945083601f19811610611753575b505050811b016003830155611203565b015160001960f88460031b161c19169055878080611743565b81810151835560209485019460019093019290910190611728565b6117b690600387016000526020600020601f850160051c810191602086106107e457601f0160051c0190612020565b886111d5565b01519050878061118f565b9250600285016000526020600020906000935b601f198416851061181e576001945083601f19811610611805575b505050811b0160028301556111a6565b015160001960f88460031b161c191690558780806117f5565b818101518355602094850194600190930192909101906117da565b61186890600287016000526020600020601f850160051c810191602086106107e457601f0160051c0190612020565b88611178565b60646040517f08c379a000000000000000000000000000000000000000000000000000000000815260206004820152601260248201527f416c7265616479207265676973746572656400000000000000000000000000006044820152fd5b833567ffffffffffffffff811161016d576020916118f1839260243691870101611d87565b815201930192611074565b3461016d57604060031936011261016d57611915611d41565b3373ffffffffffffffffffffffffffffffffffffffff82160361193e5761024590600435611f5f565b60046040517f6697b232000000000000000000000000000000000000000000000000000000008152fd5b3461016d57600060031936011261016d576020600a54604051908152f35b3461016d57604060031936011261016d576102456004356119a5611d41565b908060005260006020526119c0600160406000200154611ead565b611ed3565b3461016d57602060031936011261016d5760043560005260006020526020600160406000200154604051908152f35b3461016d57602060031936011261016d5760043560005260036020526040600020805490600181015490611a2a60028201611c45565b91611a3760038301611c45565b9060048301549260ff8416946005820154936006830154611aa2600785015492611a94600887015495611a74600a60ff60098b0154169901611c45565b9860206040519e8f908152015260408d6101a091829101528d0190611d0f565b908b820360608d0152611d0f565b9560078910156116db5773ffffffffffffffffffffffffffffffffffffffff6102ac988b9a60808c0152611adf60a08c0160ff8360081c16611d34565b60101c1660c08a015260e08901526101008801526101208701526101408601521515610160850152838203610180850152611d0f565b3461016d57602060031936011261016d57600435907fffffffff00000000000000000000000000000000000000000000000000000000821680920361016d57817f7965db0b0000000000000000000000000000000000000000000000000000000060209314908115611b89575b5015158152f35b7f01ffc9a70000000000000000000000000000000000000000000000000000000091501483611b82565b90600182811c92168015611bfc575b6020831014611bcd57565b7f4e487b7100000000000000000000000000000000000000000000000000000000600052602260045260246000fd5b91607f1691611bc2565b6080810190811067ffffffffffffffff82111761158057604052565b90601f601f19910116810190811067ffffffffffffffff82111761158057604052565b9060405191826000825492611c5984611bb3565b908184526001948581169081600014611cc85750600114611c85575b5050611c8392500383611c22565b565b9093915060005260209081600020936000915b818310611cb0575050611c8393508201013880611c75565b85548884018501529485019487945091830191611c98565b9050611c8395506020935060ff1991501682840152151560051b8201013880611c75565b60005b838110611cff5750506000910152565b8181015183820152602001611cef565b90601f19601f602093611d2d81518092818752878088019101611cec565b0116010190565b9060048210156116db5752565b6024359073ffffffffffffffffffffffffffffffffffffffff8216820361016d57565b6004359073ffffffffffffffffffffffffffffffffffffffff8216820361016d57565b81601f8201121561016d5780359067ffffffffffffffff82116115805760405192611dbc6020601f19601f8601160185611c22565b8284526020838301011161016d57816000926020809301838601378301015290565b67ffffffffffffffff81116115805760051b60200190565b8054821015611e0e5760005260206000200190600090565b7f4e487b7100000000000000000000000000000000000000000000000000000000600052603260045260246000fd5b60078110156116db576000526008602052604060002090565b6020908160408183019282815285518094520193019160005b828110611e7d575050505090565b835185529381019392810192600101611e6f565b8054821015611e0e5760005260206000209060021b0190600090565b80600052600060205260406000203360005260205260ff604060002054161561043f5750565b906000918083528260205273ffffffffffffffffffffffffffffffffffffffff6040842092169182845260205260ff60408420541615600014611f5a57808352826020526040832082845260205260408320600160ff198254161790557f2f8788117e7eff1d82e926ec794901d17c78024a50270940304540a733656f0d339380a4600190565b505090565b906000918083528260205273ffffffffffffffffffffffffffffffffffffffff6040842092169182845260205260ff604084205416600014611f5a5780835282602052604083208284526020526040832060ff1981541690557ff6391f5c32d9c69d2a47ea670b442974b53935d1edc7fd64eb21e047a839171b339380a4600190565b6000198114611ff15760010190565b7f4e487b7100000000000000000000000000000000000000000000000000000000600052601160045260246000fd5b81811061202b575050565b60008155600101612020565b9060048110156116db577fffffffffffffffffffffffffffffffffffffffffffffffffffffffffffff00ff61ff0083549260081b169116179055565b8054680100000000000000008110156115805761209591600182018155611df6565b600019829392549160031b92831b921b191617905556fea26469706673582212202388c13d2ba13e8b8d03b6cd6e070998cf224c4d7fcda9df69ad63ed4f6adf1164736f6c634300081400332f8788117e7eff1d82e926ec794901d17c78024a50270940304540a733656f0d",
  "linkReferences": {},
  "deployedLinkReferences": {}
}