{
  "_format": "hh-sol-artifact-1",
  "contractName": "MatchSimulator",
  "sourceName": "contracts/layer5/MatchSimulato.sol",
  "abi": [
    {
      "inputs": [
        {
          "internalType": "address",
          "name": "_treasury",
          "type": "address"
        },
        {
          "internalType": "address",
          "name": "_athleteContract",
          "type": "address"
        }
      ],
      "stateMutability": "nonpayable",
      "type": "constructor"
    },
    {
      "inputs": [],
      "name": "AccessControlBadConfirmation",
      "type": "error"
    },
    {
      "inputs": [
        {
          "internalType": "address",
          "name": "account",
          "type": "address"
        },
        {
          "internalType": "bytes32",
          "name": "neededRole",
          "type": "bytes32"
        }
      ],
      "name": "AccessControlUnauthorizedAccount",
      "type": "error"
    },
    {
      "inputs": [],
      "name": "ReentrancyGuardReentrantCall",
      "type": "error"
    },
    {
      "anonymous": false,
      "inputs": [
        {
          "indexed": true,
          "internalType": "uint256",
          "name": "matchId",
          "type": "uint256"
        },
        {
          "indexed": false,
          "internalType": "string",
          "name": "reason",
          "type": "string"
        }
      ],
      "name": "MatchCancelled",
      "type": "event"
    },
    {
      "anonymous": false,
      "inputs": [
        {
          "indexed": true,
          "internalType": "uint256",
          "name": "matchId",
          "type": "uint256"
        },
        {
          "indexed": false,
          "internalType": "uint256",
          "name": "winnerId",
          "type": "uint256"
        },
        {
          "indexed": false,
          "internalType": "enum MatchSimulator.FinishType",
          "name": "finishType",
          "type": "uint8"
        }
      ],
      "name": "MatchCompleted",
      "type": "event"
    },
    {
      "anonymous": false,
      "inputs": [
        {
          "indexed": true,
          "internalType": "uint256",
          "name": "matchId",
          "type": "uint256"
        },
        {
          "indexed": false,
          "internalType": "uint256",
          "name": "athlete1Id",
          "type": "uint256"
        },
        {
          "indexed": false,
          "internalType": "uint256",
          "name": "athlete2Id",
          "type": "uint256"
        },
        {
          "indexed": false,
          "internalType": "enum MatchSimulator.SportType",
          "name": "sport",
          "type": "uint8"
        }
      ],
      "name": "MatchScheduled",
      "type": "event"
    },
    {
      "anonymous": false,
      "inputs": [
        {
          "indexed": true,
          "internalType": "uint256",
          "name": "matchId",
          "type": "uint256"
        },
        {
          "indexed": false,
          "internalType": "uint256",
          "name": "startTime",
          "type": "uint256"
        }
      ],
      "name": "MatchStarted",
      "type": "event"
    },
    {
      "anonymous": false,
      "inputs": [
        {
          "indexed": true,
          "internalType": "bytes32",
          "name": "role",
          "type": "bytes32"
        },
        {
          "indexed": true,
          "internalType": "bytes32",
          "name": "previousAdminRole",
          "type": "bytes32"
        },
        {
          "indexed": true,
          "internalType": "bytes32",
          "name": "newAdminRole",
          "type": "bytes32"
        }
      ],
      "name": "RoleAdminChanged",
      "type": "event"
    },
    {
      "anonymous": false,
      "inputs": [
        {
          "indexed": true,
          "internalType": "bytes32",
          "name": "role",
          "type": "bytes32"
        },
        {
          "indexed": true,
          "internalType": "address",
          "name": "account",
          "type": "address"
        },
        {
          "indexed": true,
          "internalType": "address",
          "name": "sender",
          "type": "address"
        }
      ],
      "name": "RoleGranted",
      "type": "event"
    },
    {
      "anonymous": false,
      "inputs": [
        {
          "indexed": true,
          "internalType": "bytes32",
          "name": "role",
          "type": "bytes32"
        },
        {
          "indexed": true,
          "internalType": "address",
          "name": "account",
          "type": "address"
        },
        {
          "indexed": true,
          "internalType": "address",
          "name": "sender",
          "type": "address"
        }
      ],
      "name": "RoleRevoked",
      "type": "event"
    },
    {
      "anonymous": false,
      "inputs": [
        {
          "indexed": true,
          "internalType": "uint256",
          "name": "matchId",
          "type": "uint256"
        },
        {
          "indexed": false,
          "internalType": "uint256",
          "name": "round",
          "type": "uint256"
        },
        {
          "indexed": false,
          "internalType": "uint256",
          "name": "score1",
          "type": "uint256"
        },
        {
          "indexed": false,
          "internalType": "uint256",
          "name": "score2",
          "type": "uint256"
        }
      ],
      "name": "RoundCompleted",
      "type": "event"
    },
    {
      "inputs": [],
      "name": "DEFAULT_ADMIN_ROLE",
      "outputs": [
        {
          "internalType": "bytes32",
          "name": "",
          "type": "bytes32"
        }
      ],
      "stateMutability": "view",
      "type": "function"
    },
    {
      "inputs": [],
      "name": "SIMULATOR_ROLE",
      "outputs": [
        {
          "internalType": "bytes32",
          "name": "",
          "type": "bytes32"
        }
      ],
      "stateMutability": "view",
      "type": "function"
    },
    {
      "inputs": [],
      "name": "athleteContract",
      "outputs": [
        {
          "internalType": "address",
          "name": "",
          "type": "address"
        }
      ],
      "stateMutability": "view",
      "type": "function"
    },
    {
      "inputs": [
        {
          "internalType": "uint256",
          "name": "",
          "type": "uint256"
        },
        {
          "internalType": "uint256",
          "name": "",
          "type": "uint256"
        }
      ],
      "name": "athleteMatches",
      "outputs": [
        {
          "internalType": "uint256",
          "name": "",
          "type": "uint256"
        }
      ],
      "stateMutability": "view",
      "type": "function"
    },
    {
      "inputs": [
        {
          "internalType": "uint256",
          "name": "matchId",
          "type": "uint256"
        },
        {
          "internalType": "string",
          "name": "reason",
          "type": "string"
        }
      ],
      "name": "cancelMatch",
      "outputs": [],
      "stateMutability": "nonpayable",
      "type": "function"
    },
    {
      "inputs": [
        {
          "internalType": "uint256",
          "name": "athleteId",
          "type": "uint256"
        }
      ],
      "name": "getAthleteMatches",
      "outputs": [
        {
          "internalType": "uint256[]",
          "name": "",
          "type": "uint256[]"
        }
      ],
      "stateMutability": "view",
      "type": "function"
    },
    {
      "inputs": [
        {
          "internalType": "uint256",
          "name": "matchId",
          "type": "uint256"
        }
      ],
      "name": "getMatchEvents",
      "outputs": [
        {
          "components": [
            {
              "internalType": "uint256",
              "name": "round",
              "type": "uint256"
            },
            {
              "internalType": "string",
              "name": "eventType",
              "type": "string"
            },
            {
              "internalType": "uint256",
              "name": "athleteId",
              "type": "uint256"
            },
            {
              "internalType": "uint256",
              "name": "timestamp",
              "type": "uint256"
            }
          ],
          "internalType": "struct MatchSimulator.RoundEvent[]",
          "name": "",
          "type": "tuple[]"
        }
      ],
      "stateMutability": "view",
      "type": "function"
    },
    {
      "inputs": [
        {
          "internalType": "uint256",
          "name": "matchId",
          "type": "uint256"
        }
      ],
      "name": "getMatchOutcome",
      "outputs": [
        {
          "components": [
            {
              "internalType": "uint256",
              "name": "winnerId",
              "type": "uint256"
            },
            {
              "internalType": "uint256",
              "name": "loserId",
              "type": "uint256"
            },
            {
              "internalType": "enum MatchSimulator.FinishType",
              "name": "finishType",
              "type": "uint8"
            },
            {
              "internalType": "uint256",
              "name": "finishRound",
              "type": "uint256"
            },
            {
              "internalType": "uint256[]",
              "name": "roundScores1",
              "type": "uint256[]"
            },
            {
              "internalType": "uint256[]",
              "name": "roundScores2",
              "type": "uint256[]"
            },
            {
              "internalType": "uint256",
              "name": "viewerCount",
              "type": "uint256"
            },
            {
              "internalType": "uint256",
              "name": "totalBets",
              "type": "uint256"
            },
            {
              "internalType": "uint256",
              "name": "startTime",
              "type": "uint256"
            },
            {
              "internalType": "uint256",
              "name": "endTime",
              "type": "uint256"
            },
            {
              "internalType": "bool",
              "name": "isDraw",
              "type": "bool"
            }
          ],
          "internalType": "struct MatchSimulator.MatchOutcome",
          "name": "",
          "type": "tuple"
        }
      ],
      "stateMutability": "view",
      "type": "function"
    },
    {
      "inputs": [
        {
          "internalType": "bytes32",
          "name": "role",
          "type": "bytes32"
        }
      ],
      "name": "getRoleAdmin",
      "outputs": [
        {
          "internalType": "bytes32",
          "name": "",
          "type": "bytes32"
        }
      ],
      "stateMutability": "view",
      "type": "function"
    },
    {
      "inputs": [
        {
          "internalType": "uint256",
          "name": "matchId",
          "type": "uint256"
        }
      ],
      "name": "getRoundScores",
      "outputs": [
        {
          "internalType": "uint256[]",
          "name": "",
          "type": "uint256[]"
        },
        {
          "internalType": "uint256[]",
          "name": "",
          "type": "uint256[]"
        }
      ],
      "stateMutability": "view",
      "type": "function"
    },
    {
      "inputs": [
        {
          "internalType": "bytes32",
          "name": "role",
          "type": "bytes32"
        },
        {
          "internalType": "address",
          "name": "account",
          "type": "address"
        }
      ],
      "name": "grantRole",
      "outputs": [],
      "stateMutability": "nonpayable",
      "type": "function"
    },
    {
      "inputs": [
        {
          "internalType": "bytes32",
          "name": "role",
          "type": "bytes32"
        },
        {
          "internalType": "address",
          "name": "account",
          "type": "address"
        }
      ],
      "name": "hasRole",
      "outputs": [
        {
          "internalType": "bool",
          "name": "",
          "type": "bool"
        }
      ],
      "stateMutability": "view",
      "type": "function"
    },
    {
      "inputs": [
        {
          "internalType": "uint256",
          "name": "",
          "type": "uint256"
        },
        {
          "internalType": "uint256",
          "name": "",
          "type": "uint256"
        }
      ],
      "name": "matchEvents",
      "outputs": [
        {
          "internalType": "uint256",
          "name": "round",
          "type": "uint256"
        },
        {
          "internalType": "string",
          "name": "eventType",
          "type": "string"
        },
        {
          "internalType": "uint256",
          "name": "athleteId",
          "type": "uint256"
        },
        {
          "internalType": "uint256",
          "name": "timestamp",
          "type": "uint256"
        }
      ],
      "stateMutability": "view",
      "type": "function"
    },
    {
      "inputs": [
        {
          "internalType": "uint256",
          "name": "",
          "type": "uint256"
        }
      ],
      "name": "matchStatus",
      "outputs": [
        {
          "internalType": "enum MatchSimulator.MatchStatus",
          "name": "",
          "type": "uint8"
        }
      ],
      "stateMutability": "view",
      "type": "function"
    },
    {
      "inputs": [
        {
          "internalType": "uint256",
          "name": "",
          "type": "uint256"
        }
      ],
      "name": "matches",
      "outputs": [
        {
          "internalType": "uint256",
          "name": "matchId",
          "type": "uint256"
        },
        {
          "internalType": "uint256",
          "name": "athlete1Id",
          "type": "uint256"
        },
        {
          "internalType": "uint256",
          "name": "athlete2Id",
          "type": "uint256"
        },
        {
          "internalType": "uint256",
          "name": "stadiumId",
          "type": "uint256"
        },
        {
          "internalType": "enum MatchSimulator.SportType",
          "name": "sport",
          "type": "uint8"
        },
        {
          "internalType": "uint256",
          "name": "scheduledTime",
          "type": "uint256"
        },
        {
          "internalType": "uint256",
          "name": "prizePool",
          "type": "uint256"
        },
        {
          "internalType": "uint256",
          "name": "maxRounds",
          "type": "uint256"
        },
        {
          "internalType": "uint256",
          "name": "roundDurationSecs",
          "type": "uint256"
        },
        {
          "internalType": "bool",
          "name": "teamMatch",
          "type": "bool"
        },
        {
          "internalType": "uint256",
          "name": "team1Id",
          "type": "uint256"
        },
        {
          "internalType": "uint256",
          "name": "team2Id",
          "type": "uint256"
        }
      ],
      "stateMutability": "view",
      "type": "function"
    },
    {
      "inputs": [
        {
          "internalType": "uint256",
          "name": "",
          "type": "uint256"
        }
      ],
      "name": "outcomes",
      "outputs": [
        {
          "internalType": "uint256",
          "name": "winnerId",
          "type": "uint256"
        },
        {
          "internalType": "uint256",
          "name": "loserId",
          "type": "uint256"
        },
        {
          "internalType": "enum MatchSimulator.FinishType",
          "name": "finishType",
          "type": "uint8"
        },
        {
          "internalType": "uint256",
          "name": "finishRound",
          "type": "uint256"
        },
        {
          "internalType": "uint256",
          "name": "viewerCount",
          "type": "uint256"
        },
        {
          "internalType": "uint256",
          "name": "totalBets",
          "type": "uint256"
        },
        {
          "internalType": "uint256",
          "name": "startTime",
          "type": "uint256"
        },
        {
          "internalType": "uint256",
          "name": "endTime",
          "type": "uint256"
        },
        {
          "internalType": "bool",
          "name": "isDraw",
          "type": "bool"
        }
      ],
      "stateMutability": "view",
      "type": "function"
    },
    {
      "inputs": [],
      "name": "protocolFeePercent",
      "outputs": [
        {
          "internalType": "uint256",
          "name": "",
          "type": "uint256"
        }
      ],
      "stateMutability": "view",
      "type": "function"
    },
    {
      "inputs": [
        {
          "internalType": "bytes32",
          "name": "role",
          "type": "bytes32"
        },
        {
          "internalType": "address",
          "name": "callerConfirmation",
          "type": "address"
        }
      ],
      "name": "renounceRole",
      "outputs": [],
      "stateMutability": "nonpayable",
      "type": "function"
    },
    {
      "inputs": [
        {
          "internalType": "bytes32",
          "name": "role",
          "type": "bytes32"
        },
        {
          "internalType": "address",
          "name": "account",
          "type": "address"
        }
      ],
      "name": "revokeRole",
      "outputs": [],
      "stateMutability": "nonpayable",
      "type": "function"
    },
    {
      "inputs": [
        {
          "internalType": "uint256",
          "name": "athlete1Id",
          "type": "uint256"
        },
        {
          "internalType": "uint256",
          "name": "athlete2Id",
          "type": "uint256"
        },
        {
          "internalType": "uint256",
          "name": "stadiumId",
          "type": "uint256"
        },
        {
          "internalType": "enum MatchSimulator.SportType",
          "name": "sport",
          "type": "uint8"
        },
        {
          "internalType": "uint256",
          "name": "scheduledTime",
          "type": "uint256"
        },
        {
          "internalType": "uint256",
          "name": "maxRounds",
          "type": "uint256"
        },
        {
          "internalType": "uint256",
          "name": "roundDurationSecs",
          "type": "uint256"
        }
      ],
      "name": "scheduleMatch",
      "outputs": [
        {
          "internalType": "uint256",
          "name": "",
          "type": "uint256"
        }
      ],
      "stateMutability": "payable",
      "type": "function"
    },
    {
      "inputs": [
        {
          "internalType": "address",
          "name": "newContract",
          "type": "address"
        }
      ],
      "name": "setAthleteContract",
      "outputs": [],
      "stateMutability": "nonpayable",
      "type": "function"
    },
    {
      "inputs": [
        {
          "internalType": "uint256",
          "name": "newFee",
          "type": "uint256"
        }
      ],
      "name": "setProtocolFee",
      "outputs": [],
      "stateMutability": "nonpayable",
      "type": "function"
    },
    {
      "inputs": [
        {
          "internalType": "uint256",
          "name": "matchId",
          "type": "uint256"
        },
        {
          "internalType": "uint256",
          "name": "athlete1Strength",
          "type": "uint256"
        },
        {
          "internalType": "uint256",
          "name": "athlete1Speed",
          "type": "uint256"
        },
        {
          "internalType": "uint256",
          "name": "athlete1Endurance",
          "type": "uint256"
        },
        {
          "internalType": "uint256",
          "name": "athlete1Technique",
          "type": "uint256"
        },
        {
          "internalType": "uint256",
          "name": "athlete2Strength",
          "type": "uint256"
        },
        {
          "internalType": "uint256",
          "name": "athlete2Speed",
          "type": "uint256"
        },
        {
          "internalType": "uint256",
          "name": "athlete2Endurance",
          "type": "uint256"
        },
        {
          "internalType": "uint256",
          "name": "athlete2Technique",
          "type": "uint256"
        },
        {
          "internalType": "uint256",
          "name": "viewerCount",
          "type": "uint256"
        }
      ],
      "name": "simulateMatch",
      "outputs": [
        {
          "components": [
            {
              "internalType": "uint256",
              "name": "winnerId",
              "type": "uint256"
            },
            {
              "internalType": "uint256",
              "name": "loserId",
              "type": "uint256"
            },
            {
              "internalType": "enum MatchSimulator.FinishType",
              "name": "finishType",
              "type": "uint8"
            },
            {
              "internalType": "uint256",
              "name": "finishRound",
              "type": "uint256"
            },
            {
              "internalType": "uint256[]",
              "name": "roundScores1",
              "type": "uint256[]"
            },
            {
              "internalType": "uint256[]",
              "name": "roundScores2",
              "type": "uint256[]"
            },
            {
              "internalType": "uint256",
              "name": "viewerCount",
              "type": "uint256"
            },
            {
              "internalType": "uint256",
              "name": "totalBets",
              "type": "uint256"
            },
            {
              "internalType": "uint256",
              "name": "startTime",
              "type": "uint256"
            },
            {
              "internalType": "uint256",
              "name": "endTime",
              "type": "uint256"
            },
            {
              "internalType": "bool",
              "name": "isDraw",
              "type": "bool"
            }
          ],
          "internalType": "struct MatchSimulator.MatchOutcome",
          "name": "",
          "type": "tuple"
        }
      ],
      "stateMutability": "nonpayable",
      "type": "function"
    },
    {
      "inputs": [
        {
          "internalType": "bytes4",
          "name": "interfaceId",
          "type": "bytes4"
        }
      ],
      "name": "supportsInterface",
      "outputs": [
        {
          "internalType": "bool",
          "name": "",
          "type": "bool"
        }
      ],
      "stateMutability": "view",
      "type": "function"
    },
    {
      "inputs": [],
      "name": "totalCompletedMatches",
      "outputs": [
        {
          "internalType": "uint256",
          "name": "",
          "type": "uint256"
        }
      ],
      "stateMutability": "view",
      "type": "function"
    },
    {
      "inputs": [],
      "name": "totalMatches",
      "outputs": [
        {
          "internalType": "uint256",
          "name": "",
          "type": "uint256"
        }
      ],
      "stateMutability": "view",
      "type": "function"
    },
    {
      "inputs": [],
      "name": "treasury",
      "outputs": [
        {
          "internalType": "address",
          "name": "",
          "type": "address"
        }
      ],
      "stateMutability": "view",
      "type": "function"
    }
  ],
  "bytecode": "0x608034620000b857601f6200228938819003918201601f19168301916001600160401b03831184841017620000bd578084926040948552833981010312620000b8576200005a60206200005283620000d3565b9201620000d3565b600180556101f4600c55600b80546001600160a01b039384166001600160a01b031991821617909155600a80549290931691161790556200009b33620000e8565b50620000a73362000168565b5060405161205e90816200020b8239f35b600080fd5b634e487b7160e01b600052604160045260246000fd5b51906001600160a01b0382168203620000b857565b6001600160a01b031660008181527fad3228b676f7d3cd4284a5443f17f1962b36e491b30a40b2405849e597ba5fb5602052604081205490919060ff166200016457818052816020526040822081835260205260408220600160ff198254161790553391600080516020620022698339815191528180a4600190565b5090565b6001600160a01b031660008181527fe731eb583f53a6a1a0201c5ef76e4c4404771ee8b0afb4b9436604ff7360fc4360205260408120549091907f3f299e537abdc9319535a4bb7a7df949a8632ad2973b9c9030f9db6426cc9f029060ff166200020557808352826020526040832082845260205260408320600160ff1982541617905560008051602062002269833981519152339380a4600190565b50509056fe60a080604052600436101561001357600080fd5b60003560e01c90816301ffc9a714611886575080630719fce91461185257806323d386211461181a578063248a9ca3146117eb5780632a5b1451146117cd5780632cbb802d1461176c5780632f2ff15d1461172d57806336568abe146116c1578063414a82fe146116815780634768d4ef146115ca57806361b12d521461147157806361d027b31461143d57806374b37b2a14611100578063787dce3d146110785780637fb28e9d14611039578063853eb27a14610ffe57806391d1485414610fa3578063a217fddf14610f87578063a2f8adaa14610637578063aa079eb01461040c578063b7fa1184146103a4578063bd7c2c761461032e578063d547741f146102ed578063d6e6eb9f146102cf578063dc9abc53146101ff578063eed2a1471461016b5763f4997b871461014857600080fd5b34610166576000600319360112610166576020600954604051908152f35b600080fd5b34610166576020600319360112610166576004356000526003602052610120604060002080549060018101549060ff600282015416600382015460068301546007840154916101dc60088601549460ff600a60098901549801541697604051998a5260208a01526040890190611a43565b6060870152608086015260a085015260c084015260e08301521515610100820152f35b3461016657602060031936011261016657610218611edd565b5060043560005260036020526102cb604060002060ff600a6040519261023d84611b0e565b805484526001810154602085015261025e8360028301541660408601611fcd565b6003810154606085015261027460048201611fd9565b608085015261028560058201611fd9565b60a0850152600681015460c0850152600781015460e085015260088101546101008501526009810154610120850152015416151561014082015260405191829182611a50565b0390f35b34610166576000600319360112610166576020600c54604051908152f35b346101665760406003193601126101665761032c60043561030c611958565b90806000526000602052610327600160406000200154611d24565b611dd6565b005b346101665761033c366119e6565b906000526005602052604060002080548210156101665760005260206000209060021b01805461036e60018301611b6c565b91600360028201549101546103956040519485948552608060208601526080850190611988565b91604084015260608301520390f35b346101665760206003193601126101665760043573ffffffffffffffffffffffffffffffffffffffff8116809103610166576103de611c57565b7fffffffffffffffffffffffff0000000000000000000000000000000000000000600a541617600a55600080f35b3461016657604060031936011261016657600435602480359067ffffffffffffffff90818311610166573660238401121561016657826004013591821161060a5760405191602093610485857fffffffffffffffffffffffffffffffffffffffffffffffffffffffffffffffe0601f8501160185611b2b565b8184523683838301011161016657816000928487930183870137840101526104ab611cc8565b836000526004835260ff6040600020541660048110156105dc5761057f575082600052600482526040600020600360ff198254161790556002825260066040600020015480158015610535575b50507fbe9561483b1664685b575e72966584b8b66b253bd4f2e55e045e00db8fc134af91610530604051928284938452830190611988565b0390a2005b6000808093819373ffffffffffffffffffffffffffffffffffffffff600b5416908390610576575bf11561056a5783806104f8565b6040513d6000823e3d90fd5b506108fc61055d565b82600d606492604051927f08c379a000000000000000000000000000000000000000000000000000000000845260048401528201527f43616e6e6f742063616e63656c000000000000000000000000000000000000006044820152fd5b507f4e487b710000000000000000000000000000000000000000000000000000000060005260216004526000fd5b7f4e487b710000000000000000000000000000000000000000000000000000000060005260416004526000fd5b346101665761014060031936011261016657610651611edd565b5061065a611cc8565b600260015414610f5d57600260015560043560005260026020526040600020600460205260ff604060002054166004811015610bc357610eff5760058101544210610ea15760043560005260046020526040600020600160ff198254161790556040514281527fc21a199ff4f6a91b067a8a76292ba2e24c5202ddfbc8f5f5a68823666a51e6e9602060043592a2602435600381029080820460031490151715610e67576044358060011b9080820460021490151715610e675761071d91611f45565b6064358060011b9080820460021490151715610e675761073c91611f45565b600360843502906084358204600314608435151715610e6757600a9161076191611f45565b0460a43580600381020460031481151715610e675760c43590818060011b0460021482151715610e6757600361079b9260011b9102611f45565b60e4358060011b9080820460021490151715610e67576107ba91611f45565b6101043580600381020460031481151715610e6757600a9160036107df920290611f45565b0460405142602082015244604082015260043560608201526060815280608081011067ffffffffffffffff608083011117610b53579161084461083684608087960160405260208151910120926014840690611f45565b9260148360081c0690611f45565b9260078101549361085485611f6a565b9261085e86611f6a565b608052600090600092879660009860009260ff6004890154169060148101935b838610610c2e575b50505050505050818114600014610c10576000935b818303610bf2576000955b604051966108b388611b0e565b86885260208801526108c88860408901611fcd565b6060870152608086015260805160a08601526101243560c0860152600060e086015242610100860152426101208601521461014084015260043560005260036020526040600020835181556020840151600182015560408401516006811015610bc357600282019060ff60ff19835416911617905560608401516003820155608084015180519067ffffffffffffffff8211610b5357680100000000000000008211610b53576004830154826004850155808310610b96575b5060200160048301600052602060002060005b838110610b82575050505060a084015180519067ffffffffffffffff8211610b5357680100000000000000008211610b53576005830154826005850155808310610b26575b5060200160058301600052602060002060005b838110610b12575050505090610a4560069260c08601518482015560e0860151600782015561010086015160088201556101208601516009820155600a610140870151151591019060ff60ff1983541691151516179055565b60043560005260046020526040600020600260ff19825416179055610a6b600954611e59565b600955015480610ac6575b50610a8e6102cb936040519283526020830190611a43565b7f98defe3443549fe80583d8e73643e55b3d43cf76a376c9121ee9916f840ce9b1604060043592a26001805560405191829182611a50565b60008080612710610adb8295600c5490611f32565b0473ffffffffffffffffffffffffffffffffffffffff600b5416828215610b09575bf11561056a5783610a76565b506108fc610afd565b6001906020845194019381840155016109ec565b600584016000526020600020908382015b8183018110610b475750506109d9565b60008155600101610b37565b7f4e487b7100000000000000000000000000000000000000000000000000000000600052604160045260246000fd5b600190602084519401938184015501610994565b600484016000526020600020908382015b8183018110610bb7575050610981565b60008155600101610ba7565b7f4e487b7100000000000000000000000000000000000000000000000000000000600052602160045260246000fd5b82821115610c065760028401545b956108a6565b6001840154610c00565b81811115610c245760018301545b9361089b565b6002830154610c1e565b60409c969b9597989c518c60208201528860408201526040815280606081011067ffffffffffffffff606083011117610b535760608101604052602081519101209b60288d06605001605011610e6757612710610c9160288f0660500184611f32565b0460050180600511610e675760288e60041c06605001605011610e6757612710610cc58f60289060041c0660500186611f32565b046005019e8f600511610e67578f9b828f8d610ce091611fb9565b52828d8d60805190610cf191611fb9565b52610cfb91611f45565b9f610d0591611f45565b9a60018b018b11610e67576040519160018c018352602083015260408201527fc11785a43c087eea3de6695d00da52ff41c110373b5d46b985370ab10a1d6ecb606060043592a2858311610e675785821180610e96575b15610d8f5750505050505050506001809101941615600014610d885760015b9486808080808080610886565b6002610d7b565b9193959b6014829496989e9992018411610e675760148401851180610e59575b610e1e576008861015610bc357600186149081610e11575b81610e05575b50610de657610ddb90611e59565b94929095939161087e565b969b505050505050506001919450019260039486808080808080610886565b600f915006158e610dcd565b6050608435119150610dc7565b9b5096505050505050506001929550829150019260081c1615600014610e525760015b926001600086808080808080610886565b6002610e41565b50600a8160081c0615610daf565b7f4e487b7100000000000000000000000000000000000000000000000000000000600052601160045260246000fd5b50600a8d0615610d5c565b60646040517f08c379a000000000000000000000000000000000000000000000000000000000815260206004820152600960248201527f546f6f206561726c7900000000000000000000000000000000000000000000006044820152fd5b60646040517f08c379a000000000000000000000000000000000000000000000000000000000815260206004820152601360248201527f4d61746368206e6f74207363686564756c6564000000000000000000000000006044820152fd5b60046040517f3ee5aeb5000000000000000000000000000000000000000000000000000000008152fd5b3461016657600060031936011261016657602060405160008152f35b3461016657604060031936011261016657610fbc611958565b600435600052600060205273ffffffffffffffffffffffffffffffffffffffff60406000209116600052602052602060ff604060002054166040519015158152f35b346101665760006003193601126101665760206040517f3f299e537abdc9319535a4bb7a7df949a8632ad2973b9c9030f9db6426cc9f028152f35b3461016657611047366119e6565b906000526006602052604060002080548210156101665760209161106a916119fc565b90546040519160031b1c8152f35b3461016657602060031936011261016657600435611094611c57565b6103e881116110a257600c55005b60646040517f08c379a000000000000000000000000000000000000000000000000000000000815260206004820152600760248201527f4d617820313025000000000000000000000000000000000000000000000000006044820152fd5b60e0600319360112610166576008606435101561016657602435600435146113df5742608435111561138157600160a435101580611374575b1561131657611149600754611e59565b8060075560405190610180820182811067ffffffffffffffff821117610b5357604052808252600435602083015260243560408301526044356060830152606435608083015260843560a08301523460c083015260a43560e083015260c4356101008301526000610120830152600061014083015260006101608301528060005260026020526040600020825181556020830151600182015560408301516002820155606083015160038201556080830151906008821015610bc357600b6101606020956004840160ff199560ff87835416911617905560a0810151600585015560c0810151600685015560e08101516007850155610100810151600885015561126a6101208201511515600986019060ff60ff1983541691151516179055565b610140810151600a850155015191015581600052600483526040600020908154169055600435600052600682526112a5816040600020611e86565b602435600052600682526112bd816040600020611e86565b6112c8600854611e59565b600855807fc99d266e3022f5821fe21279eff9d60525af1f3e6ae7ce44a7f4f13e4c649204606060405160043581526024358682015261130d6040820160643561197b565ba2604051908152f35b60646040517f08c379a000000000000000000000000000000000000000000000000000000000815260206004820152600e60248201527f496e76616c696420726f756e64730000000000000000000000000000000000006044820152fd5b50600f60a4351115611139565b60646040517f08c379a000000000000000000000000000000000000000000000000000000000815260206004820152600e60248201527f4d757374206265206675747572650000000000000000000000000000000000006044820152fd5b60646040517f08c379a000000000000000000000000000000000000000000000000000000000815260206004820152601560248201527f43616e6e6f7420666967687420796f757273656c6600000000000000000000006044820152fd5b3461016657600060031936011261016657602073ffffffffffffffffffffffffffffffffffffffff600b5416604051908152f35b3461016657602080600319360112610166576004356000526005815260406000209081549161149f83611f52565b926114ad6040519485611b2b565b808452600091825282822083850192835b83821061156a5750505050604051918083019381845251809452604083019360408160051b85010192916000955b8287106114f95785850386f35b909192938280827fffffffffffffffffffffffffffffffffffffffffffffffffffffffffffffffc08960019503018552875190815181526115468383015160808086850152830190611988565b916040810151604083015260608091015191015296019201960195929190926114ec565b6040969596516080810181811067ffffffffffffffff821117610b53576001926004928a92604052865481526115a1858801611b6c565b8382015260028701546040820152600387015460608201528152019301910190919594956114be565b3461016657602060031936011261016657600435600052600260205261018060406000208054906001810154906002810154600382015460ff600484015416600584015460068501549061165660078701549360088801549560ff60098a01541697600b600a8b01549a01549a6040519c8d5260208d015260408c015260608b015260808a019061197b565b60a088015260c087015260e08601526101008501521515610120840152610140830152610160820152f35b346101665760206003193601126101665760043560005260066020526102cb6116ad6040600020611fd9565b604051918291602083526020830190611924565b34610166576040600319360112610166576116da611958565b3373ffffffffffffffffffffffffffffffffffffffff8216036117035761032c90600435611dd6565b60046040517f6697b232000000000000000000000000000000000000000000000000000000008152fd5b346101665760406003193601126101665761032c60043561174c611958565b90806000526000602052611767600160406000200154611d24565b611d4a565b346101665760206003193601126101665760043560005260036020526117bf60406000206102cb6117ab60056117a460048501611fd9565b9301611fd9565b604051938493604085526040850190611924565b908382036020850152611924565b34610166576000600319360112610166576020600854604051908152f35b346101665760206003193601126101665760043560005260006020526020600160406000200154604051908152f35b3461016657602060031936011261016657600435600052600460205260ff604060002054166040516004821015610bc3576020918152f35b3461016657600060031936011261016657602073ffffffffffffffffffffffffffffffffffffffff600a5416604051908152f35b3461016657602060031936011261016657600435907fffffffff00000000000000000000000000000000000000000000000000000000821680920361016657817f7965db0b00000000000000000000000000000000000000000000000000000000602093149081156118fa575b5015158152f35b7f01ffc9a700000000000000000000000000000000000000000000000000000000915014836118f3565b90815180825260208080930193019160005b828110611944575050505090565b835185529381019392810192600101611936565b6024359073ffffffffffffffffffffffffffffffffffffffff8216820361016657565b906008821015610bc35752565b919082519283825260005b8481106119d25750507fffffffffffffffffffffffffffffffffffffffffffffffffffffffffffffffe0601f8460006020809697860101520116010190565b602081830181015184830182015201611993565b6003196040910112610166576004359060243590565b8054821015611a145760005260206000200190600090565b7f4e487b7100000000000000000000000000000000000000000000000000000000600052603260045260246000fd5b906006821015610bc35752565b602081528151602082015260208201516040820152611a7760408301516060830190611a43565b606082015160808201526080820151611ad5611aa1610160928360a0860152610180850190611924565b60a08501517fffffffffffffffffffffffffffffffffffffffffffffffffffffffffffffffe08583030160c0860152611924565b9260c081015160e084015260e0810151610100908185015281015161012090818501528101519061014091828501520151151591015290565b610160810190811067ffffffffffffffff821117610b5357604052565b90601f7fffffffffffffffffffffffffffffffffffffffffffffffffffffffffffffffe0910116810190811067ffffffffffffffff821117610b5357604052565b90604051906000835490600182811c90808416968715611c4d575b6020948584108914611c205787988489979899529081600014611bfd5750600114611bbe575b505050611bbc92500383611b2b565b565b600090815285812095935091905b818310611be5575050611bbc9350820101388080611bad565b85548884018501529485019487945091830191611bcc565b915050611bbc95935060ff1991501682840152151560051b820101388080611bad565b6024857f4e487b710000000000000000000000000000000000000000000000000000000081526022600452fd5b91607f1691611b87565b3360009081527fad3228b676f7d3cd4284a5443f17f1962b36e491b30a40b2405849e597ba5fb5602052604081205460ff1615611c915750565b604490604051907fe2517d3f0000000000000000000000000000000000000000000000000000000082523360048301526024820152fd5b3360009081527fe731eb583f53a6a1a0201c5ef76e4c4404771ee8b0afb4b9436604ff7360fc4360205260409020547f3f299e537abdc9319535a4bb7a7df949a8632ad2973b9c9030f9db6426cc9f029060ff1615611c915750565b80600052600060205260406000203360005260205260ff6040600020541615611c915750565b906000918083528260205273ffffffffffffffffffffffffffffffffffffffff6040842092169182845260205260ff60408420541615600014611dd157808352826020526040832082845260205260408320600160ff198254161790557f2f8788117e7eff1d82e926ec794901d17c78024a50270940304540a733656f0d339380a4600190565b505090565b906000918083528260205273ffffffffffffffffffffffffffffffffffffffff6040842092169182845260205260ff604084205416600014611dd15780835282602052604083208284526020526040832060ff1981541690557ff6391f5c32d9c69d2a47ea670b442974b53935d1edc7fd64eb21e047a839171b339380a4600190565b7fffffffffffffffffffffffffffffffffffffffffffffffffffffffffffffffff8114610e675760010190565b805468010000000000000000811015610b5357611ea8916001820181556119fc565b7fffffffffffffffffffffffffffffffffffffffffffffffffffffffffffffffff829392549160031b92831b921b1916179055565b60405190611eea82611b0e565b8161014060009182815282602082015282604082015282606082015260606080820152606060a08201528260c08201528260e082015282610100820152826101208201520152565b81810292918115918404141715610e6757565b91908201809211610e6757565b67ffffffffffffffff8111610b535760051b60200190565b90611f7482611f52565b611f816040519182611b2b565b8281527fffffffffffffffffffffffffffffffffffffffffffffffffffffffffffffffe0611faf8294611f52565b0190602036910137565b8051821015611a145760209160051b010190565b6006821015610bc35752565b9060405191828154918282526020928383019160005283600020936000905b82821061200e57505050611bbc92500383611b2b565b855484526001958601958895509381019390910190611ff856fea26469706673582212201ce5bbbb921a3e1f97e5505f8bedd5108b8566abcbcab3370ceb36b68ec7f1a164736f6c634300081400332f8788117e7eff1d82e926ec794901d17c78024a50270940304540a733656f0d",
  "linkReferences": {},
  "deployedLinkReferences": {}
}