{
  "_format": "hh-sol-artifact-1",
  "contractName": "SecurityDeposits",
  "sourceName": "contracts/layer7/insurance/SecurityDeposits.sol",
  "abi": [
    {
      "inputs": [
        {
          "internalType": "address",
          "name": "_treasury",
          "type": "address"
        }
      ],
      "stateMutability": "nonpayable",
      "type": "constructor"
    },
    {
      "inputs": [],
      "name": "AccessControlBadConfirmation",
      "type": "error"
    },
    {
      "inputs": [
        {
          "internalType": "address",
          "name": "account",
          "type": "address"
        },
        {
          "internalType": "bytes32",
          "name": "neededRole",
          "type": "bytes32"
        }
      ],
      "name": "AccessControlUnauthorizedAccount",
      "type": "error"
    },
    {
      "inputs": [],
      "name": "ReentrancyGuardReentrantCall",
      "type": "error"
    },
    {
      "anonymous": false,
      "inputs": [
        {
          "indexed": true,
          "internalType": "uint256",
          "name": "depositId",
          "type": "uint256"
        },
        {
          "indexed": false,
          "internalType": "uint256",
          "name": "lockedUntil",
          "type": "uint256"
        }
      ],
      "name": "DepositLocked",
      "type": "event"
    },
    {
      "anonymous": false,
      "inputs": [
        {
          "indexed": true,
          "internalType": "uint256",
          "name": "depositId",
          "type": "uint256"
        },
        {
          "indexed": true,
          "internalType": "address",
          "name": "depositor",
          "type": "address"
        },
        {
          "indexed": false,
          "internalType": "uint256",
          "name": "amount",
          "type": "uint256"
        },
        {
          "indexed": false,
          "internalType": "string",
          "name": "purpose",
          "type": "string"
        }
      ],
      "name": "DepositMade",
      "type": "event"
    },
    {
      "anonymous": false,
      "inputs": [
        {
          "indexed": true,
          "internalType": "uint256",
          "name": "depositId",
          "type": "uint256"
        },
        {
          "indexed": true,
          "internalType": "address",
          "name": "depositor",
          "type": "address"
        },
        {
          "indexed": false,
          "internalType": "uint256",
          "name": "amount",
          "type": "uint256"
        }
      ],
      "name": "DepositReleased",
      "type": "event"
    },
    {
      "anonymous": false,
      "inputs": [
        {
          "indexed": true,
          "internalType": "uint256",
          "name": "depositId",
          "type": "uint256"
        },
        {
          "indexed": true,
          "internalType": "address",
          "name": "depositor",
          "type": "address"
        },
        {
          "indexed": false,
          "internalType": "uint256",
          "name": "amount",
          "type": "uint256"
        },
        {
          "indexed": false,
          "internalType": "string",
          "name": "reason",
          "type": "string"
        }
      ],
      "name": "DepositSlashed",
      "type": "event"
    },
    {
      "anonymous": false,
      "inputs": [
        {
          "indexed": false,
          "internalType": "string",
          "name": "purpose",
          "type": "string"
        },
        {
          "indexed": false,
          "internalType": "uint256",
          "name": "minAmount",
          "type": "uint256"
        },
        {
          "indexed": false,
          "internalType": "uint256",
          "name": "lockDuration",
          "type": "uint256"
        }
      ],
      "name": "RequirementSet",
      "type": "event"
    },
    {
      "anonymous": false,
      "inputs": [
        {
          "indexed": true,
          "internalType": "bytes32",
          "name": "role",
          "type": "bytes32"
        },
        {
          "indexed": true,
          "internalType": "bytes32",
          "name": "previousAdminRole",
          "type": "bytes32"
        },
        {
          "indexed": true,
          "internalType": "bytes32",
          "name": "newAdminRole",
          "type": "bytes32"
        }
      ],
      "name": "RoleAdminChanged",
      "type": "event"
    },
    {
      "anonymous": false,
      "inputs": [
        {
          "indexed": true,
          "internalType": "bytes32",
          "name": "role",
          "type": "bytes32"
        },
        {
          "indexed": true,
          "internalType": "address",
          "name": "account",
          "type": "address"
        },
        {
          "indexed": true,
          "internalType": "address",
          "name": "sender",
          "type": "address"
        }
      ],
      "name": "RoleGranted",
      "type": "event"
    },
    {
      "anonymous": false,
      "inputs": [
        {
          "indexed": true,
          "internalType": "bytes32",
          "name": "role",
          "type": "bytes32"
        },
        {
          "indexed": true,
          "internalType": "address",
          "name": "account",
          "type": "address"
        },
        {
          "indexed": true,
          "internalType": "address",
          "name": "sender",
          "type": "address"
        }
      ],
      "name": "RoleRevoked",
      "type": "event"
    },
    {
      "inputs": [],
      "name": "DEFAULT_ADMIN_ROLE",
      "outputs": [
        {
          "internalType": "bytes32",
          "name": "",
          "type": "bytes32"
        }
      ],
      "stateMutability": "view",
      "type": "function"
    },
    {
      "inputs": [],
      "name": "MANAGER_ROLE",
      "outputs": [
        {
          "internalType": "bytes32",
          "name": "",
          "type": "bytes32"
        }
      ],
      "stateMutability": "view",
      "type": "function"
    },
    {
      "inputs": [],
      "name": "SLASHER_ROLE",
      "outputs": [
        {
          "internalType": "bytes32",
          "name": "",
          "type": "bytes32"
        }
      ],
      "stateMutability": "view",
      "type": "function"
    },
    {
      "inputs": [
        {
          "internalType": "string",
          "name": "purpose",
          "type": "string"
        }
      ],
      "name": "deposit",
      "outputs": [
        {
          "internalType": "uint256",
          "name": "depositId",
          "type": "uint256"
        }
      ],
      "stateMutability": "payable",
      "type": "function"
    },
    {
      "inputs": [],
      "name": "depositCounter",
      "outputs": [
        {
          "internalType": "uint256",
          "name": "",
          "type": "uint256"
        }
      ],
      "stateMutability": "view",
      "type": "function"
    },
    {
      "inputs": [
        {
          "internalType": "address",
          "name": "",
          "type": "address"
        },
        {
          "internalType": "uint256",
          "name": "",
          "type": "uint256"
        }
      ],
      "name": "depositorIds",
      "outputs": [
        {
          "internalType": "uint256",
          "name": "",
          "type": "uint256"
        }
      ],
      "stateMutability": "view",
      "type": "function"
    },
    {
      "inputs": [
        {
          "internalType": "uint256",
          "name": "",
          "type": "uint256"
        }
      ],
      "name": "deposits",
      "outputs": [
        {
          "internalType": "uint256",
          "name": "id",
          "type": "uint256"
        },
        {
          "internalType": "address",
          "name": "depositor",
          "type": "address"
        },
        {
          "internalType": "uint256",
          "name": "amount",
          "type": "uint256"
        },
        {
          "internalType": "uint256",
          "name": "lockedUntil",
          "type": "uint256"
        },
        {
          "internalType": "enum SecurityDeposits.DepositStatus",
          "name": "status",
          "type": "uint8"
        },
        {
          "internalType": "uint256",
          "name": "depositedAt",
          "type": "uint256"
        },
        {
          "internalType": "string",
          "name": "purpose",
          "type": "string"
        }
      ],
      "stateMutability": "view",
      "type": "function"
    },
    {
      "inputs": [
        {
          "internalType": "address",
          "name": "depositor",
          "type": "address"
        }
      ],
      "name": "getBalance",
      "outputs": [
        {
          "internalType": "uint256",
          "name": "",
          "type": "uint256"
        }
      ],
      "stateMutability": "view",
      "type": "function"
    },
    {
      "inputs": [
        {
          "internalType": "address",
          "name": "depositor",
          "type": "address"
        }
      ],
      "name": "getDepositorIds",
      "outputs": [
        {
          "internalType": "uint256[]",
          "name": "",
          "type": "uint256[]"
        }
      ],
      "stateMutability": "view",
      "type": "function"
    },
    {
      "inputs": [
        {
          "internalType": "bytes32",
          "name": "role",
          "type": "bytes32"
        }
      ],
      "name": "getRoleAdmin",
      "outputs": [
        {
          "internalType": "bytes32",
          "name": "",
          "type": "bytes32"
        }
      ],
      "stateMutability": "view",
      "type": "function"
    },
    {
      "inputs": [
        {
          "internalType": "bytes32",
          "name": "role",
          "type": "bytes32"
        },
        {
          "internalType": "address",
          "name": "account",
          "type": "address"
        }
      ],
      "name": "grantRole",
      "outputs": [],
      "stateMutability": "nonpayable",
      "type": "function"
    },
    {
      "inputs": [
        {
          "internalType": "bytes32",
          "name": "role",
          "type": "bytes32"
        },
        {
          "internalType": "address",
          "name": "account",
          "type": "address"
        }
      ],
      "name": "hasRole",
      "outputs": [
        {
          "internalType": "bool",
          "name": "",
          "type": "bool"
        }
      ],
      "stateMutability": "view",
      "type": "function"
    },
    {
      "inputs": [
        {
          "internalType": "uint256",
          "name": "depositId",
          "type": "uint256"
        },
        {
          "internalType": "uint256",
          "name": "additionalTime",
          "type": "uint256"
        }
      ],
      "name": "lockDeposit",
      "outputs": [],
      "stateMutability": "nonpayable",
      "type": "function"
    },
    {
      "inputs": [
        {
          "internalType": "address",
          "name": "depositor",
          "type": "address"
        },
        {
          "internalType": "string",
          "name": "purpose",
          "type": "string"
        }
      ],
      "name": "meetsRequirement",
      "outputs": [
        {
          "internalType": "bool",
          "name": "",
          "type": "bool"
        }
      ],
      "stateMutability": "view",
      "type": "function"
    },
    {
      "inputs": [
        {
          "internalType": "uint256",
          "name": "depositId",
          "type": "uint256"
        }
      ],
      "name": "releaseDeposit",
      "outputs": [],
      "stateMutability": "nonpayable",
      "type": "function"
    },
    {
      "inputs": [
        {
          "internalType": "bytes32",
          "name": "role",
          "type": "bytes32"
        },
        {
          "internalType": "address",
          "name": "callerConfirmation",
          "type": "address"
        }
      ],
      "name": "renounceRole",
      "outputs": [],
      "stateMutability": "nonpayable",
      "type": "function"
    },
    {
      "inputs": [
        {
          "internalType": "string",
          "name": "",
          "type": "string"
        }
      ],
      "name": "requirements",
      "outputs": [
        {
          "internalType": "uint256",
          "name": "minAmount",
          "type": "uint256"
        },
        {
          "internalType": "uint256",
          "name": "lockDuration",
          "type": "uint256"
        },
        {
          "internalType": "bool",
          "name": "required",
          "type": "bool"
        }
      ],
      "stateMutability": "view",
      "type": "function"
    },
    {
      "inputs": [
        {
          "internalType": "bytes32",
          "name": "role",
          "type": "bytes32"
        },
        {
          "internalType": "address",
          "name": "account",
          "type": "address"
        }
      ],
      "name": "revokeRole",
      "outputs": [],
      "stateMutability": "nonpayable",
      "type": "function"
    },
    {
      "inputs": [
        {
          "internalType": "string",
          "name": "purpose",
          "type": "string"
        },
        {
          "internalType": "uint256",
          "name": "minAmount",
          "type": "uint256"
        },
        {
          "internalType": "uint256",
          "name": "lockDuration",
          "type": "uint256"
        },
        {
          "internalType": "bool",
          "name": "required",
          "type": "bool"
        }
      ],
      "name": "setRequirement",
      "outputs": [],
      "stateMutability": "nonpayable",
      "type": "function"
    },
    {
      "inputs": [
        {
          "internalType": "uint256",
          "name": "depositId",
          "type": "uint256"
        },
        {
          "internalType": "uint256",
          "name": "slashAmount",
          "type": "uint256"
        },
        {
          "internalType": "string",
          "name": "reason",
          "type": "string"
        }
      ],
      "name": "slashDeposit",
      "outputs": [],
      "stateMutability": "nonpayable",
      "type": "function"
    },
    {
      "inputs": [
        {
          "internalType": "bytes4",
          "name": "interfaceId",
          "type": "bytes4"
        }
      ],
      "name": "supportsInterface",
      "outputs": [
        {
          "internalType": "bool",
          "name": "",
          "type": "bool"
        }
      ],
      "stateMutability": "view",
      "type": "function"
    },
    {
      "inputs": [],
      "name": "totalDeposited",
      "outputs": [
        {
          "internalType": "uint256",
          "name": "",
          "type": "uint256"
        }
      ],
      "stateMutability": "view",
      "type": "function"
    },
    {
      "inputs": [
        {
          "internalType": "address",
          "name": "",
          "type": "address"
        }
      ],
      "name": "totalDepositorBalance",
      "outputs": [
        {
          "internalType": "uint256",
          "name": "",
          "type": "uint256"
        }
      ],
      "stateMutability": "view",
      "type": "function"
    },
    {
      "inputs": [],
      "name": "totalSlashed",
      "outputs": [
        {
          "internalType": "uint256",
          "name": "",
          "type": "uint256"
        }
      ],
      "stateMutability": "view",
      "type": "function"
    },
    {
      "inputs": [],
      "name": "treasury",
      "outputs": [
        {
          "internalType": "address",
          "name": "",
          "type": "address"
        }
      ],
      "stateMutability": "view",
      "type": "function"
    }
  ],
  "bytecode": "0x608034620000e157601f62001bc038819003918201601f19168301916001600160401b03831184841017620000e657808492602094604052833981010312620000e157516001600160a01b03811690819003620000e157600180558015620000a957600980546001600160a01b0319169190911790556200008033620000fc565b506200008c336200017c565b5062000098336200021e565b506040516118e49081620002bc8239f35b60405162461bcd60e51b815260206004820152601060248201526f496e76616c696420747265617375727960801b6044820152606490fd5b600080fd5b634e487b7160e01b600052604160045260246000fd5b6001600160a01b031660008181527fad3228b676f7d3cd4284a5443f17f1962b36e491b30a40b2405849e597ba5fb5602052604081205490919060ff166200017857818052816020526040822081835260205260408220600160ff19825416179055339160008051602062001ba08339815191528180a4600190565b5090565b6001600160a01b031660008181527fab95ee8443670cc2f20498fec769f3646c2375509362f6df15e28d91d339511860205260408120549091907f12b42e8a160f6064dc959c6f251e3af0750ad213dbecf573b4710d67d6c28e399060ff166200021957808352826020526040832082845260205260408320600160ff1982541617905560008051602062001ba0833981519152339380a4600190565b505090565b6001600160a01b031660008181527fe84508f2c7fa9c351146748b3025cb78b45df37d868e48c6a75102fecdeee64560205260408120549091907f241ecf16d79d0f8dbfb92cbc07fe17840425976cf0667f022fe9877caa831b089060ff166200021957808352826020526040832082845260205260408320600160ff1982541617905560008051602062001ba0833981519152339380a460019056fe608060408181526004918236101561001657600080fd5b600092833560e01c91826301ffc9a7146113e25750816306212a9414611328578163248a9ca3146112fe5781632f2ff15d146112d45781633295d1931461117e57816336568abe146111125781635095af64146110d757816361d027b3146110a257816374fdfe1f1461105157816391d1485414610fff578163a0f109c514610d75578163a201bbdd14610d57578163a217fddf14610d3c578163a26e1186146108c6578163af7789e61461083b578163b02c43d0146106b5578163b06fe3f314610404578163b33f2b7f1461039e578163d547741f1461035f578163e2b9442e146101f457508063ec87621c146101ba578063ecb3dc881461019c578063f0fbe73814610159578063f8b2cb4f146101595763ff50abdc1461013857600080fd5b346101555781600319360112610155576020906003549051908152f35b5080fd5b5034610155576020600319360112610155578060209273ffffffffffffffffffffffffffffffffffffffff61018c611480565b1681526007845220549051908152f35b50346101555781600319360112610155576020906002549051908152f35b5034610155578160031936011261015557602090517f241ecf16d79d0f8dbfb92cbc07fe17840425976cf0667f022fe9877caa831b088152f35b90503461035b578160031936011261035b578035917f241ecf16d79d0f8dbfb92cbc07fe17840425976cf0667f022fe9877caa831b088085528460205281852033865260205260ff828620541615610326575082845260056020528084208281019081549360ff851681811015610313576102b65750917f8c645a30f794de74ac16ddc70888cb75ace083d46e9dcae64003d538dca14f939391600160ff19600360209601946102a760243587546117ac565b8096551617905551908152a280f35b60649060208551917f08c379a0000000000000000000000000000000000000000000000000000000008352820152601260248201527f4465706f736974206e6f742061637469766500000000000000000000000000006044820152fd5b602488602184634e487b7160e01b835252fd5b6044929151917fe2517d3f00000000000000000000000000000000000000000000000000000000835233908301526024820152fd5b8280fd5b9190503461035b578060031936011261035b5761039a913561039560016103846114a8565b938387528660205286200154611640565b611729565b5080f35b5050346101555780600319360112610155576103b8611480565b73ffffffffffffffffffffffffffffffffffffffff16825260066020528082208054602435939084101561040157506020926103f391611612565b91905490519160031b1c8152f35b80fd5b90503461035b57606060031936011261035b5780359060243560443567ffffffffffffffff81116106b15761043c90369084016114cb565b7f12b42e8a160f6064dc959c6f251e3af0750ad213dbecf573b4710d67d6c28e399291838852602093888552878920338a52855260ff888a2054161561067b575061048561180e565b858852600584528688209185830160ff8154168781101561066857801590811561065d575b501561060157600284019384548087116105a557906104cb87600193611849565b8655019373ffffffffffffffffffffffffffffffffffffffff97888654168c52600788528a8c206104fd888254611849565b905561050b87600354611849565b6003556105198782546117ac565b90555415610594575b5088808080878a6009541682821561058b575bf115610581577fb77954a16e4ac3a6712eb98389d48e21e4b3b4266e73da0dfff10b5c674207d3956105779354169780805196879687528601528401916117cf565b0390a36001805580f35b87513d8a823e3d90fd5b506108fc610535565b600360ff1982541617905538610522565b606489898d51917f08c379a0000000000000000000000000000000000000000000000000000000008352820152601560248201527f536c6173682065786365656473206465706f73697400000000000000000000006044820152fd5b606487878b51917f08c379a0000000000000000000000000000000000000000000000000000000008352820152600d60248201527f4e6f7420736c61736861626c65000000000000000000000000000000000000006044820152fd5b6001915014386104aa565b60248b60218a634e487b7160e01b835252fd5b856044918951917fe2517d3f00000000000000000000000000000000000000000000000000000000835233908301526024820152fd5b8580fd5b90503461035b57602091826003193601126108375781358452600583528084209081549460019373ffffffffffffffffffffffffffffffffffffffff858501541692600285015460038601549160ff84880154169589600660058a015499019983519a8b9189918054610727816115d8565b808652958184169182156108145750506001146107d7575b505061074d9250038a6114f9565b81519a8b52898b01528901526060880152808310156107c457505084927fffffffffffffffffffffffffffffffffffffffffffffffffffffffffffffffe092601f92608086015260a085015260e060c08501526107bb815180928160e08801526101009788880191016115b5565b01168101030190f35b906021602492634e487b7160e01b835252fd5b8e92508a52818a20908a915b8583106107fb57505061074d9350820101388061073f565b819484848396959654920101520191018c928e926107e3565b9150935061074d95925060ff1991501682840152151560051b820101388061073f565b8380fd5b8284346104015760206003193601126104015782359067ffffffffffffffff821161040157366023830112156104015750602061088660609483602461089895369301359101611550565b818451938285809451938492016115b5565b810160088152030190209081549160ff60026001830154920154169082519384526020840152151590820152f35b83836020928360031936011261035b5767ffffffffffffffff928135848111610155576108f690369084016114cb565b916108ff61180e565b845183838237878185810160088152030190209560ff600288015416610cd7575b3415610c7b57600254947fffffffffffffffffffffffffffffffffffffffffffffffffffffffffffffffff91828714610c68576109696001808099019a8b6002550154426117ac565b88519060e0820182811084821117610c555791888d97969594928d948d528483528c8984013381528185019134835260608601938452608086019b8b8d528d60a088019642885236906109bb92611550565b9860c08801998a528c52600590528a20945185558d8501905173ffffffffffffffffffffffffffffffffffffffff1681547fffffffffffffffffffffffff000000000000000000000000000000000000000016179055516002840155519760039889840155858301905186811015610c425790600693929160ff60ff1983541691161790555160058201550191518051918211610c2f578c8291610a5f85546115d8565b601f8111610bd6575b5081601f8411600114610b5a57508792610b4f575b505084828b1b92881b1c19161790555b33835260068a5287832080549168010000000000000000831015610b3c5750610b31938a9693610ae5848c948c7f5fd0a251c2147d741b888f10b9195ed73f2df0324db6c18207a2d1056ceb7a2f9a97018155611612565b8192915490861b918a831b921b191617905533815260078c5220610b0a3482546117ac565b9055610b173482546117ac565b90558651918291348352888b8401523396898401916117cf565b0390a3805551908152f35b846041602492634e487b7160e01b835252fd5b015190508d80610a7d565b91907fffffffffffffffffffffffffffffffffffffffffffffffffffffffffffffffe08d9516868a52838a20938a905b828210610bbd5750508411610ba7575b505050811b019055610a8d565b01518660f8848b1b161c191690558d8080610b9a565b8484015186558f97909501949384019390810190610b8a565b858952828920919350601f850160051c8201928510610c25575b918f92859492601f8f920160051c01915b828110610c0f575050610a68565b8a91939550809294505501918e918c8594610c01565b9091508190610bf0565b602486604186634e487b7160e01b835252fd5b602489602189634e487b7160e01b835252fd5b602487604187634e487b7160e01b835252fd5b602484601184634e487b7160e01b835252fd5b606485898851917f08c379a0000000000000000000000000000000000000000000000000000000008352820152600d60248201527f4e6f2076616c75652073656e74000000000000000000000000000000000000006044820152fd5b865434101561092057606485898851917f08c379a0000000000000000000000000000000000000000000000000000000008352820152601560248201527f42656c6f77206d696e696d756d206465706f73697400000000000000000000006044820152fd5b50503461015557816003193601126101555751908152602090f35b90503461035b578260031936011261035b5760209250549051908152f35b90503461035b576020908160031936011261083757803591610d9561180e565b8285526005815283852091600183019273ffffffffffffffffffffffffffffffffffffffff9081855416903382148015610fc4575b15610f68578381019081549460ff861681811015610f55578015908115610f4a575b5015610eee5760038201544210610e9257509060028a920190600260ff198354971617905555875260078352858720610e26838254611849565b9055610e3482600354611849565b600355868080808585895416828215610e89575bf115610e7f577f27fd7b405d3b1cef830760908e4041d6c33a3e8fee51f248c99462d0d55508859354169451908152a36001805580f35b85513d88823e3d90fd5b506108fc610e48565b606490878b51917f08c379a0000000000000000000000000000000000000000000000000000000008352820152600c60248201527f5374696c6c206c6f636b656400000000000000000000000000000000000000006044820152fd5b606490878b51917f08c379a0000000000000000000000000000000000000000000000000000000008352820152600e60248201527f4e6f742072656c65617361626c650000000000000000000000000000000000006044820152fd5b600191501438610dec565b60248c602184634e487b7160e01b835252fd5b606484868a51917f08c379a0000000000000000000000000000000000000000000000000000000008352820152600e60248201527f4e6f7420617574686f72697a65640000000000000000000000000000000000006044820152fd5b507f241ecf16d79d0f8dbfb92cbc07fe17840425976cf0667f022fe9877caa831b088952888552878920338a52855260ff888a205416610dca565b90503461035b578160031936011261035b578160209360ff926110206114a8565b9035825281865273ffffffffffffffffffffffffffffffffffffffff83832091168252855220541690519015158152f35b90503461035b578160031936011261035b5761106b611480565b926024359067ffffffffffffffff8211610401575092611093611099926020953691016114cb565b91611856565b90519015158152f35b50503461015557816003193601126101555760209073ffffffffffffffffffffffffffffffffffffffff600954169051908152f35b505034610155578160031936011261015557602090517f12b42e8a160f6064dc959c6f251e3af0750ad213dbecf573b4710d67d6c28e398152f35b83833461015557806003193601126101555761112c6114a8565b903373ffffffffffffffffffffffffffffffffffffffff831603611156575061039a919235611729565b8390517f6697b232000000000000000000000000000000000000000000000000000000008152fd5b8383346101555760806003193601126101555767ffffffffffffffff908335828111610837576111b190369086016114cb565b9190926024359160443591606435908115158092036112d0578780528760205282882033895260205260ff83892054161561129a578251906060820190811182821017611287577fcf4cd283c7554dda53df4d47f8f304705801b0763e16a051aa64b0b20c9e59ae989950906002918452858152602081018581528482019384528451888a82376020818a8101600881520301902091518255516001820155019051151560ff60ff19835416911617905561127881519586956060875260608701916117cf565b9260208501528301520390a180f35b60248960418c634e487b7160e01b835252fd5b604489898551917fe2517d3f00000000000000000000000000000000000000000000000000000000835233908301526024820152fd5b8780fd5b9190503461035b578060031936011261035b5761039a91356112f960016103846114a8565b61169d565b90503461035b57602060031936011261035b57816020936001923581528085522001549051908152f35b828434610401576020908160031936011261040157829073ffffffffffffffffffffffffffffffffffffffff61135c611480565b16815260068352818120908251808584549182815201908194845286842090845b8181106113ce57505050816113939103826114f9565b83519485948186019282875251809352850193925b8281106113b757505050500390f35b8351855286955093810193928101926001016113a8565b82548452928801926001928301920161137d565b84913461035b57602060031936011261035b57357fffffffff00000000000000000000000000000000000000000000000000000000811680910361035b57602092507f7965db0b000000000000000000000000000000000000000000000000000000008114908115611456575b5015158152f35b7f01ffc9a7000000000000000000000000000000000000000000000000000000009150148361144f565b6004359073ffffffffffffffffffffffffffffffffffffffff821682036114a357565b600080fd5b6024359073ffffffffffffffffffffffffffffffffffffffff821682036114a357565b9181601f840112156114a35782359167ffffffffffffffff83116114a357602083818601950101116114a357565b90601f7fffffffffffffffffffffffffffffffffffffffffffffffffffffffffffffffe0910116810190811067ffffffffffffffff82111761153a57604052565b634e487b7160e01b600052604160045260246000fd5b92919267ffffffffffffffff821161153a576040519161159860207fffffffffffffffffffffffffffffffffffffffffffffffffffffffffffffffe0601f84011601846114f9565b8294818452818301116114a3578281602093846000960137010152565b60005b8381106115c85750506000910152565b81810151838201526020016115b8565b90600182811c92168015611608575b60208310146115f257565b634e487b7160e01b600052602260045260246000fd5b91607f16916115e7565b805482101561162a5760005260206000200190600090565b634e487b7160e01b600052603260045260246000fd5b80600052600060205260406000203360005260205260ff60406000205416156116665750565b604490604051907fe2517d3f0000000000000000000000000000000000000000000000000000000082523360048301526024820152fd5b906000918083528260205273ffffffffffffffffffffffffffffffffffffffff6040842092169182845260205260ff6040842054161560001461172457808352826020526040832082845260205260408320600160ff198254161790557f2f8788117e7eff1d82e926ec794901d17c78024a50270940304540a733656f0d339380a4600190565b505090565b906000918083528260205273ffffffffffffffffffffffffffffffffffffffff6040842092169182845260205260ff6040842054166000146117245780835282602052604083208284526020526040832060ff1981541690557ff6391f5c32d9c69d2a47ea670b442974b53935d1edc7fd64eb21e047a839171b339380a4600190565b919082018092116117b957565b634e487b7160e01b600052601160045260246000fd5b601f82602094937fffffffffffffffffffffffffffffffffffffffffffffffffffffffffffffffe0938186528686013760008582860101520116010190565b60026001541461181f576002600155565b60046040517f3ee5aeb5000000000000000000000000000000000000000000000000000000008152fd5b919082039182116117b957565b9190602090826040519384928337810160088152030190209060ff600283015416156118a75773ffffffffffffffffffffffffffffffffffffffff1660005260076020526040600020549054111590565b505060019056fea26469706673582212209430e8e0a6555ed8714c02eaa8114d368eb18ec0a7f06464d6afb89dbb911ff764736f6c634300081400332f8788117e7eff1d82e926ec794901d17c78024a50270940304540a733656f0d",
  "linkReferences": {},
  "deployedLinkReferences": {}
}