{
  "_format": "hh-sol-artifact-1",
  "contractName": "RiskProfiles",
  "sourceName": "contracts/layer3/risk/RiskProfiles.sol",
  "abi": [
    {
      "inputs": [],
      "stateMutability": "nonpayable",
      "type": "constructor"
    },
    {
      "inputs": [
        {
          "internalType": "address",
          "name": "owner",
          "type": "address"
        }
      ],
      "name": "OwnableInvalidOwner",
      "type": "error"
    },
    {
      "inputs": [
        {
          "internalType": "address",
          "name": "account",
          "type": "address"
        }
      ],
      "name": "OwnableUnauthorizedAccount",
      "type": "error"
    },
    {
      "anonymous": false,
      "inputs": [
        {
          "indexed": true,
          "internalType": "address",
          "name": "previousOwner",
          "type": "address"
        },
        {
          "indexed": true,
          "internalType": "address",
          "name": "newOwner",
          "type": "address"
        }
      ],
      "name": "OwnershipTransferred",
      "type": "event"
    },
    {
      "anonymous": false,
      "inputs": [
        {
          "indexed": true,
          "internalType": "uint256",
          "name": "entityId",
          "type": "uint256"
        },
        {
          "indexed": false,
          "internalType": "enum RiskProfiles.RiskRating",
          "name": "rating",
          "type": "uint8"
        }
      ],
      "name": "RiskProfileCreated",
      "type": "event"
    },
    {
      "anonymous": false,
      "inputs": [
        {
          "indexed": true,
          "internalType": "uint256",
          "name": "entityId",
          "type": "uint256"
        },
        {
          "indexed": false,
          "internalType": "enum RiskProfiles.RiskRating",
          "name": "oldRating",
          "type": "uint8"
        },
        {
          "indexed": false,
          "internalType": "enum RiskProfiles.RiskRating",
          "name": "newRating",
          "type": "uint8"
        }
      ],
      "name": "RiskRatingUpdated",
      "type": "event"
    },
    {
      "anonymous": false,
      "inputs": [
        {
          "indexed": true,
          "internalType": "uint256",
          "name": "entityId",
          "type": "uint256"
        },
        {
          "indexed": false,
          "internalType": "uint256",
          "name": "volatility",
          "type": "uint256"
        }
      ],
      "name": "VolatilityCalculated",
      "type": "event"
    },
    {
      "inputs": [
        {
          "internalType": "uint256",
          "name": "entityId",
          "type": "uint256"
        },
        {
          "internalType": "uint256",
          "name": "volatility",
          "type": "uint256"
        },
        {
          "internalType": "uint256",
          "name": "stabilityScore",
          "type": "uint256"
        },
        {
          "internalType": "enum RiskProfiles.RiskTolerance",
          "name": "tolerance",
          "type": "uint8"
        }
      ],
      "name": "createRiskProfile",
      "outputs": [
        {
          "internalType": "bool",
          "name": "",
          "type": "bool"
        }
      ],
      "stateMutability": "nonpayable",
      "type": "function"
    },
    {
      "inputs": [
        {
          "internalType": "uint256",
          "name": "worldId",
          "type": "uint256"
        },
        {
          "internalType": "uint256",
          "name": "dangerLevel",
          "type": "uint256"
        },
        {
          "internalType": "uint256",
          "name": "rewardPotential",
          "type": "uint256"
        },
        {
          "internalType": "uint256",
          "name": "economicStability",
          "type": "uint256"
        }
      ],
      "name": "createWorldRiskProfile",
      "outputs": [],
      "stateMutability": "nonpayable",
      "type": "function"
    },
    {
      "inputs": [
        {
          "internalType": "uint256",
          "name": "",
          "type": "uint256"
        }
      ],
      "name": "entityRiskProfiles",
      "outputs": [
        {
          "internalType": "uint256",
          "name": "entityId",
          "type": "uint256"
        },
        {
          "internalType": "enum RiskProfiles.RiskRating",
          "name": "riskRating",
          "type": "uint8"
        },
        {
          "internalType": "uint256",
          "name": "volatility",
          "type": "uint256"
        },
        {
          "internalType": "uint256",
          "name": "stabilityScore",
          "type": "uint256"
        },
        {
          "internalType": "uint256",
          "name": "failureProbability",
          "type": "uint256"
        },
        {
          "internalType": "uint256",
          "name": "historicalVariance",
          "type": "uint256"
        },
        {
          "internalType": "enum RiskProfiles.RiskTolerance",
          "name": "riskTolerance",
          "type": "uint8"
        },
        {
          "internalType": "uint256",
          "name": "lastAssessment",
          "type": "uint256"
        }
      ],
      "stateMutability": "view",
      "type": "function"
    },
    {
      "inputs": [
        {
          "internalType": "uint256",
          "name": "entityId",
          "type": "uint256"
        }
      ],
      "name": "getRiskProfile",
      "outputs": [
        {
          "components": [
            {
              "internalType": "uint256",
              "name": "entityId",
              "type": "uint256"
            },
            {
              "internalType": "enum RiskProfiles.RiskRating",
              "name": "riskRating",
              "type": "uint8"
            },
            {
              "internalType": "uint256",
              "name": "volatility",
              "type": "uint256"
            },
            {
              "internalType": "uint256",
              "name": "stabilityScore",
              "type": "uint256"
            },
            {
              "internalType": "uint256",
              "name": "failureProbability",
              "type": "uint256"
            },
            {
              "internalType": "uint256",
              "name": "historicalVariance",
              "type": "uint256"
            },
            {
              "internalType": "enum RiskProfiles.RiskTolerance",
              "name": "riskTolerance",
              "type": "uint8"
            },
            {
              "internalType": "uint256",
              "name": "lastAssessment",
              "type": "uint256"
            }
          ],
          "internalType": "struct RiskProfiles.EntityRiskProfile",
          "name": "",
          "type": "tuple"
        }
      ],
      "stateMutability": "view",
      "type": "function"
    },
    {
      "inputs": [
        {
          "internalType": "uint256",
          "name": "entityId",
          "type": "uint256"
        }
      ],
      "name": "getRiskScore",
      "outputs": [
        {
          "internalType": "uint256",
          "name": "",
          "type": "uint256"
        }
      ],
      "stateMutability": "view",
      "type": "function"
    },
    {
      "inputs": [],
      "name": "owner",
      "outputs": [
        {
          "internalType": "address",
          "name": "",
          "type": "address"
        }
      ],
      "stateMutability": "view",
      "type": "function"
    },
    {
      "inputs": [
        {
          "internalType": "uint256",
          "name": "",
          "type": "uint256"
        }
      ],
      "name": "performanceData",
      "outputs": [
        {
          "internalType": "uint256",
          "name": "totalAttempts",
          "type": "uint256"
        },
        {
          "internalType": "uint256",
          "name": "successfulAttempts",
          "type": "uint256"
        },
        {
          "internalType": "uint256",
          "name": "failedAttempts",
          "type": "uint256"
        },
        {
          "internalType": "int256",
          "name": "averageReturn",
          "type": "int256"
        },
        {
          "internalType": "uint256",
          "name": "maxDrawdown",
          "type": "uint256"
        }
      ],
      "stateMutability": "view",
      "type": "function"
    },
    {
      "inputs": [
        {
          "internalType": "uint256",
          "name": "entityId",
          "type": "uint256"
        },
        {
          "internalType": "bool",
          "name": "success",
          "type": "bool"
        },
        {
          "internalType": "int256",
          "name": "returnValue",
          "type": "int256"
        }
      ],
      "name": "recordPerformance",
      "outputs": [],
      "stateMutability": "nonpayable",
      "type": "function"
    },
    {
      "inputs": [],
      "name": "renounceOwnership",
      "outputs": [],
      "stateMutability": "nonpayable",
      "type": "function"
    },
    {
      "inputs": [
        {
          "internalType": "uint256",
          "name": "",
          "type": "uint256"
        },
        {
          "internalType": "uint256",
          "name": "",
          "type": "uint256"
        }
      ],
      "name": "riskHistory",
      "outputs": [
        {
          "internalType": "uint256",
          "name": "",
          "type": "uint256"
        }
      ],
      "stateMutability": "view",
      "type": "function"
    },
    {
      "inputs": [
        {
          "internalType": "address",
          "name": "newOwner",
          "type": "address"
        }
      ],
      "name": "transferOwnership",
      "outputs": [],
      "stateMutability": "nonpayable",
      "type": "function"
    },
    {
      "inputs": [
        {
          "internalType": "uint256",
          "name": "entityId",
          "type": "uint256"
        },
        {
          "internalType": "uint256",
          "name": "newVolatility",
          "type": "uint256"
        }
      ],
      "name": "updateRiskProfile",
      "outputs": [],
      "stateMutability": "nonpayable",
      "type": "function"
    },
    {
      "inputs": [
        {
          "internalType": "uint256",
          "name": "",
          "type": "uint256"
        }
      ],
      "name": "worldRiskProfiles",
      "outputs": [
        {
          "internalType": "uint256",
          "name": "worldId",
          "type": "uint256"
        },
        {
          "internalType": "uint256",
          "name": "dangerLevel",
          "type": "uint256"
        },
        {
          "internalType": "uint256",
          "name": "rewardPotential",
          "type": "uint256"
        },
        {
          "internalType": "uint256",
          "name": "economicStability",
          "type": "uint256"
        },
        {
          "internalType": "enum RiskProfiles.RiskRating",
          "name": "overallRisk",
          "type": "uint8"
        }
      ],
      "stateMutability": "view",
      "type": "function"
    }
  ],
  "bytecode": "0x608060405234801561001057600080fd5b50338061003757604051631e4fbdf760e01b81526000600482015260240160405180910390fd5b61004081610046565b50610096565b600080546001600160a01b038381166001600160a01b0319831681178455604051919092169283917f8be0079c531659141344cd1fd0a4f28419497f9722a3daafe3b4186f6b6457e09190a35050565b610eee806100a56000396000f3fe608060405234801561001057600080fd5b50600436106100cf5760003560e01c80639ec39e2f1161008c578063afda587411610066578063afda58741461028f578063c6b97b5a146102b0578063ea2d7aa2146102c3578063f2fde38b146102d657600080fd5b80639ec39e2f14610249578063a245066914610269578063a698b1e71461027c57600080fd5b80633694444a146100d457806354cadc801461014a57806357de33c2146101af578063715018a6146102015780638da5cb5b1461020b5780639644262014610226575b600080fd5b61012d6100e2366004610b44565b60016020819052600091825260409091208054918101546002820154600383015460048401546005850154600686015460079096015460ff9586169694959394929391929091169088565b604051610141989796959493929190610b97565b60405180910390f35b610187610158366004610b44565b600260208190526000918252604090912080546001820154928201546003830154600490930154919392909185565b604080519586526020860194909452928401919091526060830152608082015260a001610141565b6101f06101bd366004610b44565b60036020819052600091825260409091208054600182015460028301549383015460049093015491939092909160ff1685565b604051610141959493929190610be4565b6102096102e9565b005b6000546040516001600160a01b039091168152602001610141565b610239610234366004610c0e565b6102fd565b6040519015158152602001610141565b61025c610257366004610b44565b610471565b6040516101419190610c53565b610209610277366004610cb9565b610535565b61020961028a366004610cdb565b61068f565b6102a261029d366004610cb9565b610748565b604051908152602001610141565b6102a26102be366004610b44565b610779565b6102096102d1366004610d0d565b6107ad565b6102096102e4366004610d4a565b61085d565b6102f16108a0565b6102fb60006108cd565b565b6000848152600160205260408120600701541561031957600080fd5b6000610325858561091d565b905060405180610100016040528087815260200182600581111561034b5761034b610b5d565b815260200186815260200185815260200161036687876109a2565b81526020016000815260200184600281111561038457610384610b5d565b815242602091820152600088815260018083526040909120835181559183015182820180549192909160ff1916908360058111156103c4576103c4610b5d565b021790555060408201518160020155606082015181600301556080820151816004015560a0820151816005015560c08201518160060160006101000a81548160ff0219169083600281111561041b5761041b610b5d565b021790555060e08201518160070155905050857f52820dc9e3bf8df3aad2a7eaac189bc71f3ef0c6d6a8dfd5c52dfe41402cd0608260405161045d9190610d73565b60405180910390a250600195945050505050565b610479610aed565b6000828152600160208181526040928390208351610100810190945280548452918201549083019060ff1660058111156104b5576104b5610b5d565b60058111156104c6576104c6610b5d565b81526002828101546020830152600383015460408301526004830154606083015260058301546080830152600683015460a09092019160ff169081111561050f5761050f610b5d565b600281111561052057610520610b5d565b81526020016007820154815250509050919050565b6000828152600160205260409020600781015461055157600080fd5b600181015460028201839055600382015460ff9091169061057390849061091d565b60018084018054909160ff199091169083600581111561059557610595610b5d565b02179055506105a88383600301546109a2565b60048084019190915542600784015560008581526020918252604081208054600181810183559183529290912090910184905582015460ff1660058111156105f2576105f2610b5d565b81600581111561060457610604610b5d565b1461064f57600182015460405185917f9ee42ee805f2d2e4ad044600cab204b5582a4b1e5e933163a357ed8c059a412c9161064691859160ff90911690610d81565b60405180910390a25b837fe94a78154c4fa925bae6fbe9038c4d8ce7c935459ae5c270aa3a33ec031fc85c8460405161068191815260200190565b60405180910390a250505050565b600061069b84836109f7565b90506040518060a001604052808681526020018581526020018481526020018381526020018260058111156106d2576106d2610b5d565b815250600360008781526020019081526020016000206000820151816000015560208201518160010155604082015181600201556060820151816003015560808201518160040160006101000a81548160ff0219169083600581111561073a5761073a610b5d565b021790555050505050505050565b6004602052816000526040600020818154811061076457600080fd5b90600052602060002001600091509150505481565b60008181526001602052604081206003810154610797906064610db2565b81600201546107a69190610dc5565b9392505050565b60008381526002602052604081208054909182906107ca83610dd8565b919050555082156107f1576001810180549060006107e783610dd8565b9190505550610809565b60028101805490600061080383610dd8565b91905055505b805482610817600183610db2565b83600301546108269190610df1565b6108309190610e21565b61083a9190610e5f565b6003820155600061084a85610a54565b90506108568582610535565b5050505050565b6108656108a0565b6001600160a01b03811661089457604051631e4fbdf760e01b8152600060048201526024015b60405180910390fd5b61089d816108cd565b50565b6000546001600160a01b031633146102fb5760405163118cdaa760e01b815233600482015260240161088b565b600080546001600160a01b038381166001600160a01b0319831681178455604051919092169283917f8be0079c531659141344cd1fd0a4f28419497f9722a3daafe3b4186f6b6457e09190a35050565b60008061092b836064610db2565b6109359085610dc5565b9050602881101561094a57600091505061099c565b604681101561095d57600191505061099c565b606481101561097057600291505061099c565b608281101561098357600391505061099c565b60a081101561099657600491505061099c565b60059150505b92915050565b6000806109b0846032610e8d565b905060006109bf846064610db2565b6109ca906019610e8d565b905060006109d88284610dc5565b905061271081116109e957806109ed565b6127105b9695505050505050565b600080610a05836064610db2565b610a0f9085610dc5565b90506032811015610a2457600191505061099c565b6064811015610a3757600291505061099c565b6096811015610a4a57600391505061099c565b5060049392505050565b6000818152600260205260408120805460051115610a755750603292915050565b8054600182015460009190610a8b906064610e8d565b610a959190610ea4565b90506050811115610aaa575060149392505050565b603c811115610abd575060289392505050565b6028811115610ad05750603c9392505050565b6014811115610ae3575060509392505050565b50605f9392505050565b6040805161010081019091526000808252602082019081526020016000815260200160008152602001600081526020016000815260200160006002811115610b3757610b37610b5d565b8152602001600081525090565b600060208284031215610b5657600080fd5b5035919050565b634e487b7160e01b600052602160045260246000fd5b60068110610b8357610b83610b5d565b9052565b60038110610b8357610b83610b5d565b8881526101008101610bac602083018a610b73565b8760408301528660608301528560808301528460a0830152610bd160c0830185610b87565b8260e08301529998505050505050505050565b600060a0820190508682528560208301528460408301528360608301526109ed6080830184610b73565b60008060008060808587031215610c2457600080fd5b843593506020850135925060408501359150606085013560038110610c4857600080fd5b939692955090935050565b81518152602080830151610100830191610c6f90840182610b73565b5060408301516040830152606083015160608301526080830151608083015260a083015160a083015260c0830151610caa60c0840182610b87565b5060e092830151919092015290565b60008060408385031215610ccc57600080fd5b50508035926020909101359150565b60008060008060808587031215610cf157600080fd5b5050823594602084013594506040840135936060013592509050565b600080600060608486031215610d2257600080fd5b8335925060208401358015158114610d3957600080fd5b929592945050506040919091013590565b600060208284031215610d5c57600080fd5b81356001600160a01b03811681146107a657600080fd5b6020810161099c8284610b73565b60408101610d8f8285610b73565b6107a66020830184610b73565b634e487b7160e01b600052601160045260246000fd5b8181038181111561099c5761099c610d9c565b8082018082111561099c5761099c610d9c565b600060018201610dea57610dea610d9c565b5060010190565b80820260008212600160ff1b84141615610e0d57610e0d610d9c565b818105831482151761099c5761099c610d9c565b8082018281126000831280158216821582161715610e4157610e41610d9c565b505092915050565b634e487b7160e01b600052601260045260246000fd5b600082610e6e57610e6e610e49565b600160ff1b821460001984141615610e8857610e88610d9c565b500590565b808202811582820484141761099c5761099c610d9c565b600082610eb357610eb3610e49565b50049056fea26469706673582212207b1d154a42bfe22a7b9f2a79dc06ed2ed7b8cf64e172630bb9ba2739b49b653164736f6c63430008140033",
  "linkReferences": {},
  "deployedLinkReferences": {}
}