{
  "_format": "hh-sol-artifact-1",
  "contractName": "EmergencyShutdown",
  "sourceName": "contracts/layer7/execution/EmergencyShutdown.sol",
  "abi": [
    {
      "inputs": [],
      "stateMutability": "nonpayable",
      "type": "constructor"
    },
    {
      "inputs": [],
      "name": "AccessControlBadConfirmation",
      "type": "error"
    },
    {
      "inputs": [
        {
          "internalType": "address",
          "name": "account",
          "type": "address"
        },
        {
          "internalType": "bytes32",
          "name": "neededRole",
          "type": "bytes32"
        }
      ],
      "name": "AccessControlUnauthorizedAccount",
      "type": "error"
    },
    {
      "anonymous": false,
      "inputs": [
        {
          "indexed": true,
          "internalType": "address",
          "name": "contractAddr",
          "type": "address"
        },
        {
          "indexed": false,
          "internalType": "string",
          "name": "reason",
          "type": "string"
        }
      ],
      "name": "ContractPaused",
      "type": "event"
    },
    {
      "anonymous": false,
      "inputs": [
        {
          "indexed": false,
          "internalType": "string",
          "name": "reason",
          "type": "string"
        },
        {
          "indexed": true,
          "internalType": "address",
          "name": "by",
          "type": "address"
        }
      ],
      "name": "EmergencyPause",
      "type": "event"
    },
    {
      "anonymous": false,
      "inputs": [
        {
          "indexed": true,
          "internalType": "address",
          "name": "by",
          "type": "address"
        }
      ],
      "name": "EmergencyUnpause",
      "type": "event"
    },
    {
      "anonymous": false,
      "inputs": [
        {
          "indexed": true,
          "internalType": "address",
          "name": "token",
          "type": "address"
        },
        {
          "indexed": false,
          "internalType": "uint256",
          "name": "amount",
          "type": "uint256"
        },
        {
          "indexed": true,
          "internalType": "address",
          "name": "to",
          "type": "address"
        }
      ],
      "name": "FundsRecovered",
      "type": "event"
    },
    {
      "anonymous": false,
      "inputs": [
        {
          "indexed": true,
          "internalType": "uint256",
          "name": "layer",
          "type": "uint256"
        },
        {
          "indexed": false,
          "internalType": "string",
          "name": "reason",
          "type": "string"
        }
      ],
      "name": "LayerPaused",
      "type": "event"
    },
    {
      "anonymous": false,
      "inputs": [
        {
          "indexed": true,
          "internalType": "bytes32",
          "name": "role",
          "type": "bytes32"
        },
        {
          "indexed": true,
          "internalType": "bytes32",
          "name": "previousAdminRole",
          "type": "bytes32"
        },
        {
          "indexed": true,
          "internalType": "bytes32",
          "name": "newAdminRole",
          "type": "bytes32"
        }
      ],
      "name": "RoleAdminChanged",
      "type": "event"
    },
    {
      "anonymous": false,
      "inputs": [
        {
          "indexed": true,
          "internalType": "bytes32",
          "name": "role",
          "type": "bytes32"
        },
        {
          "indexed": true,
          "internalType": "address",
          "name": "account",
          "type": "address"
        },
        {
          "indexed": true,
          "internalType": "address",
          "name": "sender",
          "type": "address"
        }
      ],
      "name": "RoleGranted",
      "type": "event"
    },
    {
      "anonymous": false,
      "inputs": [
        {
          "indexed": true,
          "internalType": "bytes32",
          "name": "role",
          "type": "bytes32"
        },
        {
          "indexed": true,
          "internalType": "address",
          "name": "account",
          "type": "address"
        },
        {
          "indexed": true,
          "internalType": "address",
          "name": "sender",
          "type": "address"
        }
      ],
      "name": "RoleRevoked",
      "type": "event"
    },
    {
      "inputs": [],
      "name": "DEFAULT_ADMIN_ROLE",
      "outputs": [
        {
          "internalType": "bytes32",
          "name": "",
          "type": "bytes32"
        }
      ],
      "stateMutability": "view",
      "type": "function"
    },
    {
      "inputs": [],
      "name": "EMERGENCY_COOLDOWN",
      "outputs": [
        {
          "internalType": "uint256",
          "name": "",
          "type": "uint256"
        }
      ],
      "stateMutability": "view",
      "type": "function"
    },
    {
      "inputs": [],
      "name": "EMERGENCY_ROLE",
      "outputs": [
        {
          "internalType": "bytes32",
          "name": "",
          "type": "bytes32"
        }
      ],
      "stateMutability": "view",
      "type": "function"
    },
    {
      "inputs": [],
      "name": "GUARDIAN_ROLE",
      "outputs": [
        {
          "internalType": "bytes32",
          "name": "",
          "type": "bytes32"
        }
      ],
      "stateMutability": "view",
      "type": "function"
    },
    {
      "inputs": [
        {
          "internalType": "address",
          "name": "",
          "type": "address"
        }
      ],
      "name": "contractPauses",
      "outputs": [
        {
          "internalType": "bool",
          "name": "isPaused",
          "type": "bool"
        },
        {
          "internalType": "uint256",
          "name": "pausedAt",
          "type": "uint256"
        },
        {
          "internalType": "string",
          "name": "reason",
          "type": "string"
        },
        {
          "internalType": "address",
          "name": "pausedBy",
          "type": "address"
        }
      ],
      "stateMutability": "view",
      "type": "function"
    },
    {
      "inputs": [],
      "name": "emergencyCount",
      "outputs": [
        {
          "internalType": "uint256",
          "name": "",
          "type": "uint256"
        }
      ],
      "stateMutability": "view",
      "type": "function"
    },
    {
      "inputs": [
        {
          "internalType": "string",
          "name": "reason",
          "type": "string"
        }
      ],
      "name": "emergencyPause",
      "outputs": [],
      "stateMutability": "nonpayable",
      "type": "function"
    },
    {
      "inputs": [],
      "name": "emergencyState",
      "outputs": [
        {
          "internalType": "bool",
          "name": "globalPause",
          "type": "bool"
        },
        {
          "internalType": "bool",
          "name": "layer1Paused",
          "type": "bool"
        },
        {
          "internalType": "bool",
          "name": "layer2Paused",
          "type": "bool"
        },
        {
          "internalType": "bool",
          "name": "layer3Paused",
          "type": "bool"
        },
        {
          "internalType": "bool",
          "name": "layer4Paused",
          "type": "bool"
        },
        {
          "internalType": "bool",
          "name": "layer5Paused",
          "type": "bool"
        },
        {
          "internalType": "bool",
          "name": "layer6Paused",
          "type": "bool"
        },
        {
          "internalType": "uint256",
          "name": "pausedAt",
          "type": "uint256"
        },
        {
          "internalType": "string",
          "name": "reason",
          "type": "string"
        }
      ],
      "stateMutability": "view",
      "type": "function"
    },
    {
      "inputs": [],
      "name": "emergencyUnpause",
      "outputs": [],
      "stateMutability": "nonpayable",
      "type": "function"
    },
    {
      "inputs": [
        {
          "internalType": "bytes32",
          "name": "role",
          "type": "bytes32"
        }
      ],
      "name": "getRoleAdmin",
      "outputs": [
        {
          "internalType": "bytes32",
          "name": "",
          "type": "bytes32"
        }
      ],
      "stateMutability": "view",
      "type": "function"
    },
    {
      "inputs": [
        {
          "internalType": "bytes32",
          "name": "role",
          "type": "bytes32"
        },
        {
          "internalType": "address",
          "name": "account",
          "type": "address"
        }
      ],
      "name": "grantRole",
      "outputs": [],
      "stateMutability": "nonpayable",
      "type": "function"
    },
    {
      "inputs": [
        {
          "internalType": "bytes32",
          "name": "role",
          "type": "bytes32"
        },
        {
          "internalType": "address",
          "name": "account",
          "type": "address"
        }
      ],
      "name": "hasRole",
      "outputs": [
        {
          "internalType": "bool",
          "name": "",
          "type": "bool"
        }
      ],
      "stateMutability": "view",
      "type": "function"
    },
    {
      "inputs": [
        {
          "internalType": "address",
          "name": "contractAddr",
          "type": "address"
        }
      ],
      "name": "isContractOperational",
      "outputs": [
        {
          "internalType": "bool",
          "name": "",
          "type": "bool"
        }
      ],
      "stateMutability": "view",
      "type": "function"
    },
    {
      "inputs": [
        {
          "internalType": "uint256",
          "name": "layer",
          "type": "uint256"
        }
      ],
      "name": "isLayerOperational",
      "outputs": [
        {
          "internalType": "bool",
          "name": "",
          "type": "bool"
        }
      ],
      "stateMutability": "view",
      "type": "function"
    },
    {
      "inputs": [],
      "name": "isOperational",
      "outputs": [
        {
          "internalType": "bool",
          "name": "",
          "type": "bool"
        }
      ],
      "stateMutability": "view",
      "type": "function"
    },
    {
      "inputs": [],
      "name": "lastEmergencyTime",
      "outputs": [
        {
          "internalType": "uint256",
          "name": "",
          "type": "uint256"
        }
      ],
      "stateMutability": "view",
      "type": "function"
    },
    {
      "inputs": [
        {
          "internalType": "address",
          "name": "contractAddr",
          "type": "address"
        },
        {
          "internalType": "string",
          "name": "reason",
          "type": "string"
        }
      ],
      "name": "pauseContract",
      "outputs": [],
      "stateMutability": "nonpayable",
      "type": "function"
    },
    {
      "inputs": [
        {
          "internalType": "uint256",
          "name": "layer",
          "type": "uint256"
        },
        {
          "internalType": "string",
          "name": "reason",
          "type": "string"
        }
      ],
      "name": "pauseLayer",
      "outputs": [],
      "stateMutability": "nonpayable",
      "type": "function"
    },
    {
      "inputs": [
        {
          "internalType": "address",
          "name": "token",
          "type": "address"
        },
        {
          "internalType": "uint256",
          "name": "amount",
          "type": "uint256"
        },
        {
          "internalType": "address",
          "name": "to",
          "type": "address"
        }
      ],
      "name": "recoverFunds",
      "outputs": [],
      "stateMutability": "nonpayable",
      "type": "function"
    },
    {
      "inputs": [
        {
          "internalType": "bytes32",
          "name": "role",
          "type": "bytes32"
        },
        {
          "internalType": "address",
          "name": "callerConfirmation",
          "type": "address"
        }
      ],
      "name": "renounceRole",
      "outputs": [],
      "stateMutability": "nonpayable",
      "type": "function"
    },
    {
      "inputs": [
        {
          "internalType": "bytes32",
          "name": "role",
          "type": "bytes32"
        },
        {
          "internalType": "address",
          "name": "account",
          "type": "address"
        }
      ],
      "name": "revokeRole",
      "outputs": [],
      "stateMutability": "nonpayable",
      "type": "function"
    },
    {
      "inputs": [
        {
          "internalType": "bytes4",
          "name": "interfaceId",
          "type": "bytes4"
        }
      ],
      "name": "supportsInterface",
      "outputs": [
        {
          "internalType": "bool",
          "name": "",
          "type": "bool"
        }
      ],
      "stateMutability": "view",
      "type": "function"
    },
    {
      "inputs": [
        {
          "internalType": "address",
          "name": "contractAddr",
          "type": "address"
        }
      ],
      "name": "unpauseContract",
      "outputs": [],
      "stateMutability": "nonpayable",
      "type": "function"
    },
    {
      "inputs": [
        {
          "internalType": "uint256",
          "name": "layer",
          "type": "uint256"
        }
      ],
      "name": "unpauseLayer",
      "outputs": [],
      "stateMutability": "nonpayable",
      "type": "function"
    }
  ],
  "bytecode": "0x6080604052346200003e57620000153362000043565b506200002133620000c3565b506200002d3362000165565b506040516118aa9081620002038239f35b600080fd5b6001600160a01b031660008181527fad3228b676f7d3cd4284a5443f17f1962b36e491b30a40b2405849e597ba5fb5602052604081205490919060ff16620000bf57818052816020526040822081835260205260408220600160ff19825416179055339160008051602062001aad8339815191528180a4600190565b5090565b6001600160a01b031660008181527f3c1b1854ab1360abbb06c8d4c6b2672d4b8cedc5eff522ab19e51d5cb8fdbd4660205260408120549091907fbf233dd2aafeb4d50879c4aa5c81e96d92f6e6945c906a58f9f2d1c1631b4b269060ff166200016057808352826020526040832082845260205260408320600160ff1982541617905560008051602062001aad833981519152339380a4600190565b505090565b6001600160a01b031660008181527f8a40f0b47fdc2a0ce293b772acfc7508c8315a4d462786c1adc3a56f92ca2d0560205260408120549091907f55435dd261a4b9b3364963f7738a7a662ad9c84396d64be3365284bb7f0a50419060ff166200016057808352826020526040832082845260205260408320600160ff1982541617905560008051602062001aad833981519152339380a460019056fe60806040908082526004908136101561001757600080fd5b600091823560e01c91826301ffc9a71461129a575081631584b4641461127457816320df435914611239578163248a9ca31461120e57816324ea54f4146111d35781632f2ff15d146111a957816336568abe1461113d5781634a4e3bd514610f875781634c39756b14610dfc5781637b60948f14610ddd5781638fd5ca4514610cbf57816391d1485414610c6c5781639b5d096814610c4d578163a217fddf14610c32578163b4f1094d14610c15578163bd6219b514610bec578163c02285ea14610941578163c98ea8e8146107d5578163cd905dff146107ae578163cf5b4fd514610510578163d547741f146104d1578163d97b9bd514610485578163e81b84a914610284575063f8a338a51461012e57600080fd5b346102815780600319360112610281576001908154916002549084519280916003549161015a83611383565b8087529282811690811561025557506001146101fa575b50505090610185836101f6949303836113d6565b845194859460ff9182821615158752828260081c1615156020880152828260101c16151590870152818160181c1615156060870152818160201c1615156080870152818160281c16151560a087015260301c16151560c085015260e084015261012080610100850152830190611446565b0390f35b9250600383527fc2575a0e9e593c00f959f8c92f12db2869c3395a3b0502d05e2516446f71f85b5b82841061023d575050508201602001610185836101f6610171565b80546020858801810191909152909301928101610222565b879695506101f69793506020925061018594915060ff191682840152151560051b820101929394610171565b80fd5b905082346104815780600319360112610481578135916024359067ffffffffffffffff821161047d577ec98df3468e5c55f19ca4930494718865d15779f95493e1726b151f1ba9a3a4926102de61034293369084016114a4565b916102e76115ac565b6001908187101580610472575b6102fd90611754565b86820361034857506101007fffffffffffffffffffffffffffffffffffffffffffffffffffffffffffff00ff8254161790555b51918291602083526020830190611446565b0390a280f35b600287036103815750620100007fffffffffffffffffffffffffffffffffffffffffffffffffffffffffff00ffff825416179055610330565b600387036103bb575063010000007fffffffffffffffffffffffffffffffffffffffffffffffffffffffff00ffffff825416179055610330565b86036103f3576401000000007fffffffffffffffffffffffffffffffffffffffffffffffffffffff00ffffffff825416179055610330565b6005860361042e57650100000000007fffffffffffffffffffffffffffffffffffffffffffffffffffff00ffffffffff825416179055610330565b6006861461043d575b50610330565b66010000000000007fffffffffffffffffffffffffffffffffffffffffffffffffff00ffffffffffff82541617905586610437565b5060068711156102f4565b8480fd5b8280fd5b839150346104815760206003193601126104815773ffffffffffffffffffffffffffffffffffffffff6104b6611338565b6104be611519565b168352602052812060ff19815416905580f35b9050823461048157806003193601126104815761050c913561050760016104f6611360565b938387528660205286200154611608565b6116ba565b5080f35b8391503461048157602091826003193601126107aa5767ffffffffffffffff82358181116107a65761054590369085016114a4565b9261054e6115ac565b600191825460ff811661074a5760ff19168317835542600255845190811161071e5760039061057d8254611383565b601f81116106c7575b508087601f8211600114610630578991610625575b5060001982861b92841b1c19161790555b6005549060001982146105f9575001600555426006555182815233927ff4b97fafbee7bd9b858a01c8fbbbc61d75bf696272f429e694194fbfa64a19e99282916103429190830190611446565b8660116024927f4e487b7100000000000000000000000000000000000000000000000000000000835252fd5b90508601518961059b565b7fffffffffffffffffffffffffffffffffffffffffffffffffffffffffffffffe086931690848b527fc2575a0e9e593c00f959f8c92f12db2869c3395a3b0502d05e2516446f71f85b918b5b8b8282106106b15750508311610699575b5050811b0190556105ac565b88015160001960f884871b161c19169055898061068d565b838c01518555899690940193928301920161067c565b61070e90838a527fc2575a0e9e593c00f959f8c92f12db2869c3395a3b0502d05e2516446f71f85b601f840160051c8101918a8510610714575b601f0160051c019061173d565b88610586565b9091508190610701565b6024876041847f4e487b7100000000000000000000000000000000000000000000000000000000835252fd5b606483888751917f08c379a0000000000000000000000000000000000000000000000000000000008352820152600e60248201527f416c7265616479207061757365640000000000000000000000000000000000006044820152fd5b8580fd5b8380fd5b8284346107d157816003193601126107d15760209060ff60015416159051908152f35b5080fd5b9050346107d15760206003193601126107d15780356107f2611519565b6001918282101580610936575b61080890611754565b81830361083a5750507fffffffffffffffffffffffffffffffffffffffffffffffffffffffffffff00ff815416905580f35b6002820361086d5750507fffffffffffffffffffffffffffffffffffffffffffffffffffffffffff00ffff815416905580f35b600382036108a05750507fffffffffffffffffffffffffffffffffffffffffffffffffffffffff00ffffff815416905580f35b81036108d057507fffffffffffffffffffffffffffffffffffffffffffffffffffffff00ffffffff815416905580f35b6005810361090257507fffffffffffffffffffffffffffffffffffffffffffffffffffff00ffffffffff815416905580f35b60061461090d575080f35b7fffffffffffffffffffffffffffffffffffffffffffffffffff00ffffffffffff815416905580f35b5060068211156107ff565b8391503461048157816003193601126104815761095c611338565b67ffffffffffffffff926024358481116107a65761097d90369085016114a4565b926109866115ac565b8151926080840184811087821117610bc05783526001938481526020948582019742895285830191888352606084019533875273ffffffffffffffffffffffffffffffffffffffff8096169a8b8d52818a52888d209551151560ff60ff1988541691161786555182860155600285019351908151938411610b9457508b610a0d8554611383565b8a601f8211610b66575b50505088908c601f8511600114610abb579284807fa45b854309f0bbcd0b5fe966bcc16c83a563411377ca9b86644a9aff98723a139d9c9b999794600397946103429c9a9793610aae575b505060001991921b92861b1c19161790555b019151167fffffffffffffffffffffffff000000000000000000000000000000000000000082541617905551928284938452830190611446565b0151915060001938610a62565b91907fffffffffffffffffffffffffffffffffffffffffffffffffffffffffffffffe0859495168684528b8420935b818110610b515750926003959285926103429b99967fa45b854309f0bbcd0b5fe966bcc16c83a563411377ca9b86644a9aff98723a139f9e9d9b999610610b39575b505050811b019055610a74565b015160001960f884891b161c191690558e8080610b2c565b82840151855593860193928c01928c01610aea565b8287610b8c945220601f860160051c8101918c871061071457601f0160051c019061173d565b8b8d8a610a17565b8c60416024927f4e487b7100000000000000000000000000000000000000000000000000000000835252fd5b6024886041857f4e487b7100000000000000000000000000000000000000000000000000000000835252fd5b8383346102815760206003193601126102815750610c0c602092356117b9565b90519015158152f35b8284346107d157816003193601126107d15760209051610e108152f35b8284346107d157816003193601126107d15751908152602090f35b8284346107d157816003193601126107d1576020906006549051908152f35b839150346104815781600319360112610481578160209360ff92610c8e611360565b9035825281865273ffffffffffffffffffffffffffffffffffffffff83832091168252855220541690519015158152f35b8284346107d157602092836003193601126104815773ffffffffffffffffffffffffffffffffffffffff9081610cf3611338565b16845284528183209060ff825416926001918284015493600281018884519589835493610d1f85611383565b808a5294838116908115610db75750600114610d7a575b505050505090600360809392610d5386610d7098999a03876113d6565b015416948151978897151588528701528501526080840190611446565b9060608301520390f35b908094939b50528983205b828410610da457505050840190960195600388610d5386610d70610d36565b80548885018c0152928a01928101610d85565b60ff1916858b01525050505090151560051b8501019650600388610d5386610d70610d36565b8284346107d157816003193601126107d1576020906005549051908152f35b9050823461048157606060031936011261048157610e18611338565b73ffffffffffffffffffffffffffffffffffffffff604435818116946024359391869003610f83578680528660205284872033885260205260ff858820541615610f4d5760ff6001541615610ef05750169182610ec657848285828215610ebd575b839283928392f115610eb4577fdd41482ef6c9c36b18740b9be7cafc1cc79e149e9639aae568478f28ac5390b4916020915b51908152a380f35b513d85823e3d90fd5b506108fc610e7a565b7fdd41482ef6c9c36b18740b9be7cafc1cc79e149e9639aae568478f28ac5390b491602091610eac565b60649060208651917f08c379a0000000000000000000000000000000000000000000000000000000008352820152601960248201527f4d75737420626520696e20656d657267656e6379206d6f6465000000000000006044820152fd5b604490878651917fe2517d3f00000000000000000000000000000000000000000000000000000000835233908301526024820152fd5b8680fd5b90508234610481578260031936011261048157610fa2611519565b60019182549160ff8316156110e057600254610e1081018091116110b457421061105757505060ff1916815581600255610fdd600354611383565b601f8111611014575b826000600355337f306ca22c455fe433ebbf0542bbf947ea6a725495f9e1043db2a47e3c579403858280a280f35b601f7fc2575a0e9e593c00f959f8c92f12db2869c3395a3b0502d05e2516446f71f85b910160051c8101905b81811061104d5750610fe6565b8381558201611040565b90602060649251917f08c379a0000000000000000000000000000000000000000000000000000000008352820152601060248201527f436f6f6c646f776e206e6f74206d6574000000000000000000000000000000006044820152fd5b6024866011857f4e487b7100000000000000000000000000000000000000000000000000000000835252fd5b90602060649251917f08c379a0000000000000000000000000000000000000000000000000000000008352820152600a60248201527f4e6f7420706175736564000000000000000000000000000000000000000000006044820152fd5b8284346107d157806003193601126107d157611157611360565b903373ffffffffffffffffffffffffffffffffffffffff831603611181575061050c9192356116ba565b8390517f6697b232000000000000000000000000000000000000000000000000000000008152fd5b9050823461048157806003193601126104815761050c91356111ce60016104f6611360565b61162e565b8284346107d157816003193601126107d157602090517f55435dd261a4b9b3364963f7738a7a662ad9c84396d64be3365284bb7f0a50418152f35b8391503461048157602060031936011261048157816020936001923581528085522001549051908152f35b8284346107d157816003193601126107d157602090517fbf233dd2aafeb4d50879c4aa5c81e96d92f6e6945c906a58f9f2d1c1631b4b268152f35b8284346107d15760206003193601126107d157602090610c0c611295611338565b611839565b91503461048157602060031936011261048157357fffffffff00000000000000000000000000000000000000000000000000000000811680910361048157602092507f7965db0b00000000000000000000000000000000000000000000000000000000811490811561130e575b5015158152f35b7f01ffc9a70000000000000000000000000000000000000000000000000000000091501483611307565b6004359073ffffffffffffffffffffffffffffffffffffffff8216820361135b57565b600080fd5b6024359073ffffffffffffffffffffffffffffffffffffffff8216820361135b57565b90600182811c921680156113cc575b602083101461139d57565b7f4e487b7100000000000000000000000000000000000000000000000000000000600052602260045260246000fd5b91607f1691611392565b90601f7fffffffffffffffffffffffffffffffffffffffffffffffffffffffffffffffe0910116810190811067ffffffffffffffff82111761141757604052565b7f4e487b7100000000000000000000000000000000000000000000000000000000600052604160045260246000fd5b919082519283825260005b8481106114905750507fffffffffffffffffffffffffffffffffffffffffffffffffffffffffffffffe0601f8460006020809697860101520116010190565b602081830181015184830182015201611451565b81601f8201121561135b5780359067ffffffffffffffff821161141757604051926114f760207fffffffffffffffffffffffffffffffffffffffffffffffffffffffffffffffe0601f86011601856113d6565b8284526020838301011161135b57816000926020809301838601378301015290565b3360009081527f8a40f0b47fdc2a0ce293b772acfc7508c8315a4d462786c1adc3a56f92ca2d0560205260409020547f55435dd261a4b9b3364963f7738a7a662ad9c84396d64be3365284bb7f0a50419060ff16156115755750565b604490604051907fe2517d3f0000000000000000000000000000000000000000000000000000000082523360048301526024820152fd5b3360009081527f3c1b1854ab1360abbb06c8d4c6b2672d4b8cedc5eff522ab19e51d5cb8fdbd4660205260409020547fbf233dd2aafeb4d50879c4aa5c81e96d92f6e6945c906a58f9f2d1c1631b4b269060ff16156115755750565b80600052600060205260406000203360005260205260ff60406000205416156115755750565b906000918083528260205273ffffffffffffffffffffffffffffffffffffffff6040842092169182845260205260ff604084205416156000146116b557808352826020526040832082845260205260408320600160ff198254161790557f2f8788117e7eff1d82e926ec794901d17c78024a50270940304540a733656f0d339380a4600190565b505090565b906000918083528260205273ffffffffffffffffffffffffffffffffffffffff6040842092169182845260205260ff6040842054166000146116b55780835282602052604083208284526020526040832060ff1981541690557ff6391f5c32d9c69d2a47ea670b442974b53935d1edc7fd64eb21e047a839171b339380a4600190565b818110611748575050565b6000815560010161173d565b1561175b57565b60646040517f08c379a000000000000000000000000000000000000000000000000000000000815260206004820152600d60248201527f496e76616c6964206c61796572000000000000000000000000000000000000006044820152fd5b60015460ff918282166118315760018114611828576002811461181f5760038114611816576004811461180d5760058114611804576006146117fc575050600190565b60301c161590565b5060281c161590565b5060201c161590565b5060181c161590565b5060101c161590565b5060081c161590565b505050600090565b60ff6001541661186e5773ffffffffffffffffffffffffffffffffffffffff16600052600460205260ff604060002054161590565b5060009056fea26469706673582212201f7a482aca87edcfc0745f1ba1344b2bc2800d9724730145cd28adf65fa1a13564736f6c634300081400332f8788117e7eff1d82e926ec794901d17c78024a50270940304540a733656f0d",
  "linkReferences": {},
  "deployedLinkReferences": {}
}