{
  "_format": "hh-sol-artifact-1",
  "contractName": "TrustScoring",
  "sourceName": "contracts/layer6/reputation/TrustScoring.sol",
  "abi": [
    {
      "inputs": [],
      "stateMutability": "nonpayable",
      "type": "constructor"
    },
    {
      "inputs": [],
      "name": "AccessControlBadConfirmation",
      "type": "error"
    },
    {
      "inputs": [
        {
          "internalType": "address",
          "name": "account",
          "type": "address"
        },
        {
          "internalType": "bytes32",
          "name": "neededRole",
          "type": "bytes32"
        }
      ],
      "name": "AccessControlUnauthorizedAccount",
      "type": "error"
    },
    {
      "anonymous": false,
      "inputs": [
        {
          "indexed": true,
          "internalType": "address",
          "name": "user",
          "type": "address"
        },
        {
          "indexed": false,
          "internalType": "uint256",
          "name": "initialScore",
          "type": "uint256"
        }
      ],
      "name": "ProfileCreated",
      "type": "event"
    },
    {
      "anonymous": false,
      "inputs": [
        {
          "indexed": true,
          "internalType": "bytes32",
          "name": "role",
          "type": "bytes32"
        },
        {
          "indexed": true,
          "internalType": "bytes32",
          "name": "previousAdminRole",
          "type": "bytes32"
        },
        {
          "indexed": true,
          "internalType": "bytes32",
          "name": "newAdminRole",
          "type": "bytes32"
        }
      ],
      "name": "RoleAdminChanged",
      "type": "event"
    },
    {
      "anonymous": false,
      "inputs": [
        {
          "indexed": true,
          "internalType": "bytes32",
          "name": "role",
          "type": "bytes32"
        },
        {
          "indexed": true,
          "internalType": "address",
          "name": "account",
          "type": "address"
        },
        {
          "indexed": true,
          "internalType": "address",
          "name": "sender",
          "type": "address"
        }
      ],
      "name": "RoleGranted",
      "type": "event"
    },
    {
      "anonymous": false,
      "inputs": [
        {
          "indexed": true,
          "internalType": "bytes32",
          "name": "role",
          "type": "bytes32"
        },
        {
          "indexed": true,
          "internalType": "address",
          "name": "account",
          "type": "address"
        },
        {
          "indexed": true,
          "internalType": "address",
          "name": "sender",
          "type": "address"
        }
      ],
      "name": "RoleRevoked",
      "type": "event"
    },
    {
      "anonymous": false,
      "inputs": [
        {
          "indexed": true,
          "internalType": "address",
          "name": "user",
          "type": "address"
        },
        {
          "indexed": false,
          "internalType": "int256",
          "name": "delta",
          "type": "int256"
        },
        {
          "indexed": false,
          "internalType": "string",
          "name": "category",
          "type": "string"
        }
      ],
      "name": "ScoreUpdated",
      "type": "event"
    },
    {
      "anonymous": false,
      "inputs": [
        {
          "indexed": true,
          "internalType": "address",
          "name": "user",
          "type": "address"
        },
        {
          "indexed": false,
          "internalType": "string",
          "name": "reason",
          "type": "string"
        }
      ],
      "name": "UserBlacklisted",
      "type": "event"
    },
    {
      "inputs": [],
      "name": "DEFAULT_ADMIN_ROLE",
      "outputs": [
        {
          "internalType": "bytes32",
          "name": "",
          "type": "bytes32"
        }
      ],
      "stateMutability": "view",
      "type": "function"
    },
    {
      "inputs": [],
      "name": "SCORER_ROLE",
      "outputs": [
        {
          "internalType": "bytes32",
          "name": "",
          "type": "bytes32"
        }
      ],
      "stateMutability": "view",
      "type": "function"
    },
    {
      "inputs": [
        {
          "internalType": "address",
          "name": "user",
          "type": "address"
        },
        {
          "internalType": "string",
          "name": "reason",
          "type": "string"
        }
      ],
      "name": "blacklist",
      "outputs": [],
      "stateMutability": "nonpayable",
      "type": "function"
    },
    {
      "inputs": [
        {
          "internalType": "address",
          "name": "user",
          "type": "address"
        }
      ],
      "name": "createProfile",
      "outputs": [],
      "stateMutability": "nonpayable",
      "type": "function"
    },
    {
      "inputs": [
        {
          "internalType": "uint256",
          "name": "",
          "type": "uint256"
        }
      ],
      "name": "events",
      "outputs": [
        {
          "internalType": "uint256",
          "name": "eventId",
          "type": "uint256"
        },
        {
          "internalType": "address",
          "name": "subject",
          "type": "address"
        },
        {
          "internalType": "int256",
          "name": "scoreDelta",
          "type": "int256"
        },
        {
          "internalType": "string",
          "name": "category",
          "type": "string"
        },
        {
          "internalType": "string",
          "name": "reason",
          "type": "string"
        },
        {
          "internalType": "uint256",
          "name": "timestamp",
          "type": "uint256"
        },
        {
          "internalType": "address",
          "name": "reporter",
          "type": "address"
        }
      ],
      "stateMutability": "view",
      "type": "function"
    },
    {
      "inputs": [
        {
          "internalType": "bytes32",
          "name": "role",
          "type": "bytes32"
        }
      ],
      "name": "getRoleAdmin",
      "outputs": [
        {
          "internalType": "bytes32",
          "name": "",
          "type": "bytes32"
        }
      ],
      "stateMutability": "view",
      "type": "function"
    },
    {
      "inputs": [
        {
          "internalType": "address",
          "name": "user",
          "type": "address"
        }
      ],
      "name": "getTrustLevel",
      "outputs": [
        {
          "internalType": "string",
          "name": "",
          "type": "string"
        }
      ],
      "stateMutability": "view",
      "type": "function"
    },
    {
      "inputs": [
        {
          "internalType": "address",
          "name": "user",
          "type": "address"
        }
      ],
      "name": "getTrustScore",
      "outputs": [
        {
          "internalType": "uint256",
          "name": "",
          "type": "uint256"
        }
      ],
      "stateMutability": "view",
      "type": "function"
    },
    {
      "inputs": [
        {
          "internalType": "address",
          "name": "user",
          "type": "address"
        }
      ],
      "name": "getUserEvents",
      "outputs": [
        {
          "internalType": "uint256[]",
          "name": "",
          "type": "uint256[]"
        }
      ],
      "stateMutability": "view",
      "type": "function"
    },
    {
      "inputs": [
        {
          "internalType": "bytes32",
          "name": "role",
          "type": "bytes32"
        },
        {
          "internalType": "address",
          "name": "account",
          "type": "address"
        }
      ],
      "name": "grantRole",
      "outputs": [],
      "stateMutability": "nonpayable",
      "type": "function"
    },
    {
      "inputs": [
        {
          "internalType": "address",
          "name": "",
          "type": "address"
        }
      ],
      "name": "hasProfile",
      "outputs": [
        {
          "internalType": "bool",
          "name": "",
          "type": "bool"
        }
      ],
      "stateMutability": "view",
      "type": "function"
    },
    {
      "inputs": [
        {
          "internalType": "bytes32",
          "name": "role",
          "type": "bytes32"
        },
        {
          "internalType": "address",
          "name": "account",
          "type": "address"
        }
      ],
      "name": "hasRole",
      "outputs": [
        {
          "internalType": "bool",
          "name": "",
          "type": "bool"
        }
      ],
      "stateMutability": "view",
      "type": "function"
    },
    {
      "inputs": [
        {
          "internalType": "address",
          "name": "",
          "type": "address"
        }
      ],
      "name": "profiles",
      "outputs": [
        {
          "internalType": "uint256",
          "name": "overallScore",
          "type": "uint256"
        },
        {
          "internalType": "uint256",
          "name": "tradeScore",
          "type": "uint256"
        },
        {
          "internalType": "uint256",
          "name": "creatorScore",
          "type": "uint256"
        },
        {
          "internalType": "uint256",
          "name": "communityScore",
          "type": "uint256"
        },
        {
          "internalType": "uint256",
          "name": "athleteScore",
          "type": "uint256"
        },
        {
          "internalType": "uint256",
          "name": "totalTransactions",
          "type": "uint256"
        },
        {
          "internalType": "uint256",
          "name": "successfulTransactions",
          "type": "uint256"
        },
        {
          "internalType": "uint256",
          "name": "disputes",
          "type": "uint256"
        },
        {
          "internalType": "uint256",
          "name": "disputesLost",
          "type": "uint256"
        },
        {
          "internalType": "uint256",
          "name": "endorsementsReceived",
          "type": "uint256"
        },
        {
          "internalType": "uint256",
          "name": "lastUpdated",
          "type": "uint256"
        },
        {
          "internalType": "uint256",
          "name": "accountAge",
          "type": "uint256"
        },
        {
          "internalType": "bool",
          "name": "isBlacklisted",
          "type": "bool"
        },
        {
          "internalType": "string",
          "name": "trustLevel",
          "type": "string"
        }
      ],
      "stateMutability": "view",
      "type": "function"
    },
    {
      "inputs": [
        {
          "internalType": "address",
          "name": "user",
          "type": "address"
        },
        {
          "internalType": "bool",
          "name": "success",
          "type": "bool"
        },
        {
          "internalType": "bool",
          "name": "hadDispute",
          "type": "bool"
        },
        {
          "internalType": "bool",
          "name": "disputeLost",
          "type": "bool"
        }
      ],
      "name": "recordTransaction",
      "outputs": [],
      "stateMutability": "nonpayable",
      "type": "function"
    },
    {
      "inputs": [
        {
          "internalType": "bytes32",
          "name": "role",
          "type": "bytes32"
        },
        {
          "internalType": "address",
          "name": "callerConfirmation",
          "type": "address"
        }
      ],
      "name": "renounceRole",
      "outputs": [],
      "stateMutability": "nonpayable",
      "type": "function"
    },
    {
      "inputs": [
        {
          "internalType": "bytes32",
          "name": "role",
          "type": "bytes32"
        },
        {
          "internalType": "address",
          "name": "account",
          "type": "address"
        }
      ],
      "name": "revokeRole",
      "outputs": [],
      "stateMutability": "nonpayable",
      "type": "function"
    },
    {
      "inputs": [
        {
          "internalType": "bytes4",
          "name": "i",
          "type": "bytes4"
        }
      ],
      "name": "supportsInterface",
      "outputs": [
        {
          "internalType": "bool",
          "name": "",
          "type": "bool"
        }
      ],
      "stateMutability": "view",
      "type": "function"
    },
    {
      "inputs": [],
      "name": "totalProfiles",
      "outputs": [
        {
          "internalType": "uint256",
          "name": "",
          "type": "uint256"
        }
      ],
      "stateMutability": "view",
      "type": "function"
    },
    {
      "inputs": [
        {
          "internalType": "address",
          "name": "user",
          "type": "address"
        },
        {
          "internalType": "int256",
          "name": "delta",
          "type": "int256"
        },
        {
          "internalType": "string",
          "name": "category",
          "type": "string"
        },
        {
          "internalType": "string",
          "name": "reason",
          "type": "string"
        }
      ],
      "name": "updateScore",
      "outputs": [],
      "stateMutability": "nonpayable",
      "type": "function"
    },
    {
      "inputs": [
        {
          "internalType": "address",
          "name": "",
          "type": "address"
        },
        {
          "internalType": "uint256",
          "name": "",
          "type": "uint256"
        }
      ],
      "name": "userEvents",
      "outputs": [
        {
          "internalType": "uint256",
          "name": "",
          "type": "uint256"
        }
      ],
      "stateMutability": "view",
      "type": "function"
    }
  ],
  "bytecode": "0x6080604052346200003257620000153362000037565b506200002133620000b7565b50604051611b4390816200015a8239f35b600080fd5b6001600160a01b031660008181527fad3228b676f7d3cd4284a5443f17f1962b36e491b30a40b2405849e597ba5fb5602052604081205490919060ff16620000b357818052816020526040822081835260205260408220600160ff19825416179055339160008051602062001c9d8339815191528180a4600190565b5090565b6001600160a01b031660008181527f8ee9d8d0a7f7bb18428ece8ceaf9b54f8f381e4ec39fb83041a9a4d41598963660205260408120549091907f7f3f5c26f2e002e717c4feeca3fac851759df70cd9d703d83098f12a7ad024ca9060ff166200015457808352826020526040832082845260205260408320600160ff1982541617905560008051602062001c9d833981519152339380a4600190565b50509056fe608080604052600436101561001357600080fd5b60003560e01c90816301ffc9a71461137c575080630b791430146112ca578063171e5ba214611209578063248a9ca3146111da5780632f2ff15d1461119b57806336568abe1461112f5780633d0fc4b814610f7d5780635e09eea114610f365780636a4b783d14610ed8578063746a3d99146108bb57806391d1485414610860578063a217fddf14610844578063a4d6d49514610809578063a787c80b146107bd578063bbe15627146106c8578063bdfc989314610665578063d2adbe7914610647578063d547741f14610606578063ddf579ff146104ca5763f536c520146100fb57600080fd5b346104c55760206003193601126104c557610114611595565b61011c611679565b73ffffffffffffffffffffffffffffffffffffffff8116600052600560205260ff60406000205416610467576040516101c0810181811067ffffffffffffffff821117610438576040526101f481526101f460208201526101f460408201526101f460608201526101f46080820152600060a0820152600060c0820152600060e0820152600061010082015260006101208201524261014082015242610160820152600061018082015260405180604081011067ffffffffffffffff6040830111176104385760408101604052600781527f4e65757472616c0000000000000000000000000000000000000000000000000060208201526101a082015273ffffffffffffffffffffffffffffffffffffffff82166000526002602052604060002090805182556020810151906001918284015560408101516002840155606081015160038401556080810151600484015560a0810151600584015560c0810151600684015560e0810151600784015561010081015160088401556101208101516009840155610140810151600a840155610160810151600b8401556101a0600d600c8501946101808401511515957fffffffffffffffffffffffffffffffffffffffffffffffffffffffffffffff009660ff8883541691161790550191015180519067ffffffffffffffff82116104385781906103238261031d865461141a565b866118bc565b602090601f83116001146103d6576000926103cb575b505060001982851b9260031b1c19161790555b73ffffffffffffffffffffffffffffffffffffffff83166000526005602052604060002091825416179055610382600654611901565b6006557fcb939889322fed25104a5d8945bde5162563412a1fd718946cdcacb03088ea08602073ffffffffffffffffffffffffffffffffffffffff604051936101f485521692a2005b015190503880610339565b90601f19869416918560005260206000209260005b81811061042057508411610407575b505050811b01905561034c565b015160001960f88460031b161c191690553880806103fa565b828401518555889690940193602093840193016103eb565b7f4e487b7100000000000000000000000000000000000000000000000000000000600052604160045260246000fd5b60646040517f08c379a000000000000000000000000000000000000000000000000000000000815260206004820152600e60248201527f416c7265616479206578697374730000000000000000000000000000000000006044820152fd5b600080fd5b346104c55760406003193601126104c5576104e3611595565b60243567ffffffffffffffff81116104c5576105039036906004016115db565b3360009081527fad3228b676f7d3cd4284a5443f17f1962b36e491b30a40b2405849e597ba5fb5602052604090205490919060ff16156105cf576105ca73ffffffffffffffffffffffffffffffffffffffff7fcc1cf21b75158e751a071cc4770b92cde8bb2bc34f9187eedd0592b874a55669921692836000526002602052600060408120600c810160017fffffffffffffffffffffffffffffffffffffffffffffffffffffffffffffff0082541617905555604051918291602083526020830190611555565b0390a2005b60446040517fe2517d3f00000000000000000000000000000000000000000000000000000000815233600482015260006024820152fd5b346104c55760406003193601126104c5576106456004356106256115b8565b9080600052600060205261064060016040600020015461170c565b6117dc565b005b346104c55760006003193601126104c5576020600654604051908152f35b346104c55760406003193601126104c55761067e611595565b73ffffffffffffffffffffffffffffffffffffffff60243591166000526004602052604060002080548210156104c5576020916106ba91611632565b90546040519160031b1c8152f35b346104c55760206003193601126104c5576106e1611595565b73ffffffffffffffffffffffffffffffffffffffff1660005260026020526040600020805460018201549160028101549060038101546004820154600583015460068401546007850154600886015491600987015493600a88015495600b89015497600c8a015460ff1699600d0161075890611490565b9a6040519d8e809e81526020015260408d015260608c015260808b015260a08a015260c089015260e088015261010087015261012086015261014085015261016084015215156101808301526101c0806101a084015282016107b991611555565b0390f35b346104c55760206003193601126104c55773ffffffffffffffffffffffffffffffffffffffff6107eb611595565b166000526005602052602060ff604060002054166040519015158152f35b346104c55760006003193601126104c55760206040517f7f3f5c26f2e002e717c4feeca3fac851759df70cd9d703d83098f12a7ad024ca8152f35b346104c55760006003193601126104c557602060405160008152f35b346104c55760406003193601126104c5576108796115b8565b600435600052600060205273ffffffffffffffffffffffffffffffffffffffff60406000209116600052602052602060ff604060002054166040519015158152f35b346104c55760806003193601126104c5576108d4611595565b60443567ffffffffffffffff81116104c5576108f49036906004016115db565b9060643567ffffffffffffffff81116104c5576109159036906004016115db565b9061091e611679565b73ffffffffffffffffffffffffffffffffffffffff8116600052600560205260ff6040600020541615610e7a5773ffffffffffffffffffffffffffffffffffffffff8116600052600260205260406000209061097b600154611901565b92836001556040519060e0820182811067ffffffffffffffff82111761043857604052848252602082019073ffffffffffffffffffffffffffffffffffffffff84168252604083016024358152606084019188835260808501524260a08501523360c08501528660005260036020526040600020928451845573ffffffffffffffffffffffffffffffffffffffff600185019151167fffffffffffffffffffffffff00000000000000000000000000000000000000008254161790555160028301555180519067ffffffffffffffff8211610438578190610a6c82610a63600387015461141a565b600387016118bc565b602090601f8311600114610e0857600092610dfd575b50506000198260011b9260031b1c19161760038201555b608082015180519067ffffffffffffffff821161043857610aca82610ac1600486015461141a565b600486016118bc565b602090601f8311600114610d7357928260c09360069373ffffffffffffffffffffffffffffffffffffffff96600092610d68575b50506000198260011b9260031b1c19161760048201555b60a0850151600582015501920151167fffffffffffffffffffffffff000000000000000000000000000000000000000082541617905573ffffffffffffffffffffffffffffffffffffffff8116600052600460205260406000209182549068010000000000000000821015610438577f2fdda39acd598b448ee5e4f2de6ead0d6116ba1e9559d632fc4b240b2e53b48694610bce8373ffffffffffffffffffffffffffffffffffffffff966001610c5c96018155611632565b600019829392549160031b92831b921b1916179055600060243513600014610d395780546103e89081610c036024358361194a565b1115610d2657505b81555b42600a820155855160208701207ff0ab6bbf074217bd209077ef38d1fe65034d0327dbceeb5dc94a0d7050798c998103610c7d575060018101610c546024358254611957565b90555b6119a0565b6105ca60405192839260243584526040602085015216946040830190611555565b7f0d1f301a4d55e328cfe2f78743e489a98cedaf66d744b3ab1bb877ff82930b0b8103610cb6575060028101610c546024358254611957565b7f6697469966e6db36e8e7163442550033ec984b278e48453a9cf46343df642f538103610cef575060038101610c546024358254611957565b7f98631faadeb33e49b4bab0b4b1bfcfe4aa57340bcb81a6a128771cf118bf2d8403610c575760048101610c546024358254611957565b610d3491506024359061194a565b610c0b565b610d44602435611910565b81549080821115610d5f57610d589161193d565b8155610c0e565b50506000610d58565b015190508b80610afe565b906004840160005260206000209160005b601f1985168110610de557508360069373ffffffffffffffffffffffffffffffffffffffff969360019383601f1960c0991610610dcc575b505050811b016004820155610b15565b015160001960f88460031b161c191690558b8080610dbc565b91926020600181928685015181550194019201610d84565b015190508880610a82565b9250600384016000526020600020906000935b601f1984168510610e5f576001945083601f19811610610e46575b505050811b016003820155610a99565b015160001960f88460031b161c19169055888080610e36565b81810151835560209485019460019093019290910190610e1b565b60646040517f08c379a000000000000000000000000000000000000000000000000000000000815260206004820152600a60248201527f4e6f2070726f66696c65000000000000000000000000000000000000000000006044820152fd5b346104c55760206003193601126104c55773ffffffffffffffffffffffffffffffffffffffff610f06611595565b1660005260026020526107b9610f22600d604060002001611490565b604051918291602083526020830190611555565b346104c55760206003193601126104c55773ffffffffffffffffffffffffffffffffffffffff610f64611595565b1660005260026020526020604060002054604051908152f35b346104c55760806003193601126104c557610f96611595565b6024359081151582036104c55760443580151581036104c5576064359182151583036104c55773ffffffffffffffffffffffffffffffffffffffff90610fda611679565b16600052600260205260406000209260058401610ff78154611901565b9055156110ea576006830161100c8154611901565b905582546103e8808210156110e35750600281018091116110a8575b83555b611039575b610645826119a0565b600782016110478154611901565b9055611054575b81611030565b600881016110628154611901565b905580549060148211156110d7577fffffffffffffffffffffffffffffffffffffffffffffffffffffffffffffffec82019182116110a857610645915b8155905061104e565b7f4e487b7100000000000000000000000000000000000000000000000000000000600052601160045260246000fd5b6106459150600061109f565b9050611028565b82546005811115611127577ffffffffffffffffffffffffffffffffffffffffffffffffffffffffffffffffb81019081116110a8575b835561102b565b506000611120565b346104c55760406003193601126104c5576111486115b8565b3373ffffffffffffffffffffffffffffffffffffffff82160361117157610645906004356117dc565b60046040517f6697b232000000000000000000000000000000000000000000000000000000008152fd5b346104c55760406003193601126104c5576106456004356111ba6115b8565b908060005260006020526111d560016040600020015461170c565b611732565b346104c55760206003193601126104c55760043560005260006020526020600160406000200154604051908152f35b346104c5576020806003193601126104c55773ffffffffffffffffffffffffffffffffffffffff611238611595565b1660005260048152604060002060405190818382549182815201908192600052846000209060005b868282106112b65786866112768288038361146d565b604051928392818401908285525180915260408401929160005b82811061129f57505050500390f35b835185528695509381019392810192600101611290565b835485529093019260019283019201611260565b346104c55760206003193601126104c55760043560005260036020526040600020805473ffffffffffffffffffffffffffffffffffffffff91826001820154169261136d60028301549161135f61132360038601611490565b61132f60048701611490565b9260066005880154970154169460405198899889526020890152604088015260e0606088015260e0870190611555565b908582036080870152611555565b9160a084015260c08301520390f35b346104c55760206003193601126104c557600435907fffffffff0000000000000000000000000000000000000000000000000000000082168092036104c557817f7965db0b00000000000000000000000000000000000000000000000000000000602093149081156113f0575b5015158152f35b7f01ffc9a700000000000000000000000000000000000000000000000000000000915014836113e9565b90600182811c92168015611463575b602083101461143457565b7f4e487b7100000000000000000000000000000000000000000000000000000000600052602260045260246000fd5b91607f1691611429565b90601f601f19910116810190811067ffffffffffffffff82111761043857604052565b90604051918260008254926114a48461141a565b90818452600194858116908160001461151357506001146114d0575b50506114ce9250038361146d565b565b9093915060005260209081600020936000915b8183106114fb5750506114ce935082010138806114c0565b855488840185015294850194879450918301916114e3565b90506114ce9550602093507fffffffffffffffffffffffffffffffffffffffffffffffffffffffffffffff0091501682840152151560051b82010138806114c0565b919082519283825260005b848110611581575050601f19601f8460006020809697860101520116010190565b602081830181015184830182015201611560565b6004359073ffffffffffffffffffffffffffffffffffffffff821682036104c557565b6024359073ffffffffffffffffffffffffffffffffffffffff821682036104c557565b81601f820112156104c55780359067ffffffffffffffff821161043857604051926116106020601f19601f860116018561146d565b828452602083830101116104c557816000926020809301838601378301015290565b805482101561164a5760005260206000200190600090565b7f4e487b7100000000000000000000000000000000000000000000000000000000600052603260045260246000fd5b3360009081527f8ee9d8d0a7f7bb18428ece8ceaf9b54f8f381e4ec39fb83041a9a4d41598963660205260409020547f7f3f5c26f2e002e717c4feeca3fac851759df70cd9d703d83098f12a7ad024ca9060ff16156116d55750565b604490604051907fe2517d3f0000000000000000000000000000000000000000000000000000000082523360048301526024820152fd5b80600052600060205260406000203360005260205260ff60406000205416156116d55750565b906000918083528260205273ffffffffffffffffffffffffffffffffffffffff6040842092169182845260205260ff604084205416156000146117d75780835282602052604083208284526020526040832060017fffffffffffffffffffffffffffffffffffffffffffffffffffffffffffffff008254161790557f2f8788117e7eff1d82e926ec794901d17c78024a50270940304540a733656f0d339380a4600190565b505090565b906000918083528260205273ffffffffffffffffffffffffffffffffffffffff6040842092169182845260205260ff6040842054166000146117d7578083528260205260408320828452602052604083207fffffffffffffffffffffffffffffffffffffffffffffffffffffffffffffff0081541690557ff6391f5c32d9c69d2a47ea670b442974b53935d1edc7fd64eb21e047a839171b339380a4600190565b818110611888575050565b6000815560010161187d565b90601f81116118a1575050565b6114ce91600052601f6020600020910160051c81019061187d565b9190601f81116118cb57505050565b6114ce926000526020600020906020601f840160051c830193106118f7575b601f0160051c019061187d565b90915081906118ea565b60001981146110a85760010190565b7f800000000000000000000000000000000000000000000000000000000000000081146110a85760000390565b919082039182116110a857565b919082018092116110a857565b90600081131561197f5761196a9161194a565b6103e8908181111561197a575090565b905090565b61198890611910565b600091818111156117d75761199d925061193d565b90565b8054600d919061038481106119e95750016119c46119be825461141a565b82611894565b7f4c6567656e6461727900000000000000000000000000000000000000000000129055565b6102ee8110611a26575001611a016119be825461141a565b7f547275737465640000000000000000000000000000000000000000000000000e9055565b6102588110611a63575001611a3e6119be825461141a565b7f52656c6961626c650000000000000000000000000000000000000000000000109055565b6101908110611aa0575001611a7b6119be825461141a565b7f4e65757472616c0000000000000000000000000000000000000000000000000e9055565b60c811611ada5701611ab56119be825461141a565b7f43617574696f75730000000000000000000000000000000000000000000000109055565b01611ae86119be825461141a565b7f5269736b7900000000000000000000000000000000000000000000000000000a905556fea26469706673582212204c611125950e29bfd38f629422078e34fdf51e7f1b4bcd8e63df204452ad5e5f64736f6c634300081400332f8788117e7eff1d82e926ec794901d17c78024a50270940304540a733656f0d",
  "linkReferences": {},
  "deployedLinkReferences": {}
}