{
  "_format": "hh-sol-artifact-1",
  "contractName": "OANDAO",
  "sourceName": "contracts/dao/OANDAO.sol",
  "abi": [
    {
      "inputs": [],
      "stateMutability": "nonpayable",
      "type": "constructor"
    },
    {
      "inputs": [],
      "name": "AccessControlBadConfirmation",
      "type": "error"
    },
    {
      "inputs": [
        {
          "internalType": "address",
          "name": "account",
          "type": "address"
        },
        {
          "internalType": "bytes32",
          "name": "neededRole",
          "type": "bytes32"
        }
      ],
      "name": "AccessControlUnauthorizedAccount",
      "type": "error"
    },
    {
      "anonymous": false,
      "inputs": [
        {
          "indexed": false,
          "internalType": "string",
          "name": "component",
          "type": "string"
        },
        {
          "indexed": false,
          "internalType": "address",
          "name": "newAddress",
          "type": "address"
        }
      ],
      "name": "ComponentUpgraded",
      "type": "event"
    },
    {
      "anonymous": false,
      "inputs": [
        {
          "components": [
            {
              "internalType": "uint256",
              "name": "votingDelay",
              "type": "uint256"
            },
            {
              "internalType": "uint256",
              "name": "votingPeriod",
              "type": "uint256"
            },
            {
              "internalType": "uint256",
              "name": "proposalThreshold",
              "type": "uint256"
            },
            {
              "internalType": "uint256",
              "name": "quorumPercentage",
              "type": "uint256"
            },
            {
              "internalType": "uint256",
              "name": "timelockDelay",
              "type": "uint256"
            }
          ],
          "indexed": false,
          "internalType": "struct OANDAO.DAOConfig",
          "name": "newConfig",
          "type": "tuple"
        }
      ],
      "name": "ConfigUpdated",
      "type": "event"
    },
    {
      "anonymous": false,
      "inputs": [
        {
          "indexed": true,
          "internalType": "address",
          "name": "token",
          "type": "address"
        },
        {
          "indexed": true,
          "internalType": "address",
          "name": "treasury",
          "type": "address"
        },
        {
          "indexed": true,
          "internalType": "address",
          "name": "proposalSystem",
          "type": "address"
        }
      ],
      "name": "DAOInitialized",
      "type": "event"
    },
    {
      "anonymous": false,
      "inputs": [
        {
          "indexed": true,
          "internalType": "bytes32",
          "name": "role",
          "type": "bytes32"
        },
        {
          "indexed": true,
          "internalType": "bytes32",
          "name": "previousAdminRole",
          "type": "bytes32"
        },
        {
          "indexed": true,
          "internalType": "bytes32",
          "name": "newAdminRole",
          "type": "bytes32"
        }
      ],
      "name": "RoleAdminChanged",
      "type": "event"
    },
    {
      "anonymous": false,
      "inputs": [
        {
          "indexed": true,
          "internalType": "bytes32",
          "name": "role",
          "type": "bytes32"
        },
        {
          "indexed": true,
          "internalType": "address",
          "name": "account",
          "type": "address"
        },
        {
          "indexed": true,
          "internalType": "address",
          "name": "sender",
          "type": "address"
        }
      ],
      "name": "RoleGranted",
      "type": "event"
    },
    {
      "anonymous": false,
      "inputs": [
        {
          "indexed": true,
          "internalType": "bytes32",
          "name": "role",
          "type": "bytes32"
        },
        {
          "indexed": true,
          "internalType": "address",
          "name": "account",
          "type": "address"
        },
        {
          "indexed": true,
          "internalType": "address",
          "name": "sender",
          "type": "address"
        }
      ],
      "name": "RoleRevoked",
      "type": "event"
    },
    {
      "inputs": [],
      "name": "DEFAULT_ADMIN_ROLE",
      "outputs": [
        {
          "internalType": "bytes32",
          "name": "",
          "type": "bytes32"
        }
      ],
      "stateMutability": "view",
      "type": "function"
    },
    {
      "inputs": [],
      "name": "GOVERNOR_ROLE",
      "outputs": [
        {
          "internalType": "bytes32",
          "name": "",
          "type": "bytes32"
        }
      ],
      "stateMutability": "view",
      "type": "function"
    },
    {
      "inputs": [],
      "name": "GUARDIAN_ROLE",
      "outputs": [
        {
          "internalType": "bytes32",
          "name": "",
          "type": "bytes32"
        }
      ],
      "stateMutability": "view",
      "type": "function"
    },
    {
      "inputs": [],
      "name": "config",
      "outputs": [
        {
          "internalType": "uint256",
          "name": "votingDelay",
          "type": "uint256"
        },
        {
          "internalType": "uint256",
          "name": "votingPeriod",
          "type": "uint256"
        },
        {
          "internalType": "uint256",
          "name": "proposalThreshold",
          "type": "uint256"
        },
        {
          "internalType": "uint256",
          "name": "quorumPercentage",
          "type": "uint256"
        },
        {
          "internalType": "uint256",
          "name": "timelockDelay",
          "type": "uint256"
        }
      ],
      "stateMutability": "view",
      "type": "function"
    },
    {
      "inputs": [],
      "name": "getConfig",
      "outputs": [
        {
          "components": [
            {
              "internalType": "uint256",
              "name": "votingDelay",
              "type": "uint256"
            },
            {
              "internalType": "uint256",
              "name": "votingPeriod",
              "type": "uint256"
            },
            {
              "internalType": "uint256",
              "name": "proposalThreshold",
              "type": "uint256"
            },
            {
              "internalType": "uint256",
              "name": "quorumPercentage",
              "type": "uint256"
            },
            {
              "internalType": "uint256",
              "name": "timelockDelay",
              "type": "uint256"
            }
          ],
          "internalType": "struct OANDAO.DAOConfig",
          "name": "",
          "type": "tuple"
        }
      ],
      "stateMutability": "view",
      "type": "function"
    },
    {
      "inputs": [],
      "name": "getDAOAddresses",
      "outputs": [
        {
          "internalType": "address",
          "name": "token",
          "type": "address"
        },
        {
          "internalType": "address",
          "name": "treasury",
          "type": "address"
        },
        {
          "internalType": "address",
          "name": "proposalSystem",
          "type": "address"
        },
        {
          "internalType": "address",
          "name": "votingMechanism",
          "type": "address"
        }
      ],
      "stateMutability": "view",
      "type": "function"
    },
    {
      "inputs": [
        {
          "internalType": "bytes32",
          "name": "role",
          "type": "bytes32"
        }
      ],
      "name": "getRoleAdmin",
      "outputs": [
        {
          "internalType": "bytes32",
          "name": "",
          "type": "bytes32"
        }
      ],
      "stateMutability": "view",
      "type": "function"
    },
    {
      "inputs": [
        {
          "internalType": "bytes32",
          "name": "role",
          "type": "bytes32"
        },
        {
          "internalType": "address",
          "name": "account",
          "type": "address"
        }
      ],
      "name": "grantRole",
      "outputs": [],
      "stateMutability": "nonpayable",
      "type": "function"
    },
    {
      "inputs": [
        {
          "internalType": "bytes32",
          "name": "role",
          "type": "bytes32"
        },
        {
          "internalType": "address",
          "name": "account",
          "type": "address"
        }
      ],
      "name": "hasRole",
      "outputs": [
        {
          "internalType": "bool",
          "name": "",
          "type": "bool"
        }
      ],
      "stateMutability": "view",
      "type": "function"
    },
    {
      "inputs": [
        {
          "internalType": "address",
          "name": "_token",
          "type": "address"
        },
        {
          "internalType": "address",
          "name": "_treasury",
          "type": "address"
        },
        {
          "internalType": "address",
          "name": "_proposalSystem",
          "type": "address"
        },
        {
          "internalType": "address",
          "name": "_votingMechanism",
          "type": "address"
        }
      ],
      "name": "initialize",
      "outputs": [],
      "stateMutability": "nonpayable",
      "type": "function"
    },
    {
      "inputs": [],
      "name": "initialized",
      "outputs": [
        {
          "internalType": "bool",
          "name": "",
          "type": "bool"
        }
      ],
      "stateMutability": "view",
      "type": "function"
    },
    {
      "inputs": [],
      "name": "proposalSystemAddress",
      "outputs": [
        {
          "internalType": "address",
          "name": "",
          "type": "address"
        }
      ],
      "stateMutability": "view",
      "type": "function"
    },
    {
      "inputs": [
        {
          "internalType": "bytes32",
          "name": "role",
          "type": "bytes32"
        },
        {
          "internalType": "address",
          "name": "callerConfirmation",
          "type": "address"
        }
      ],
      "name": "renounceRole",
      "outputs": [],
      "stateMutability": "nonpayable",
      "type": "function"
    },
    {
      "inputs": [
        {
          "internalType": "bytes32",
          "name": "role",
          "type": "bytes32"
        },
        {
          "internalType": "address",
          "name": "account",
          "type": "address"
        }
      ],
      "name": "revokeRole",
      "outputs": [],
      "stateMutability": "nonpayable",
      "type": "function"
    },
    {
      "inputs": [
        {
          "internalType": "bytes4",
          "name": "interfaceId",
          "type": "bytes4"
        }
      ],
      "name": "supportsInterface",
      "outputs": [
        {
          "internalType": "bool",
          "name": "",
          "type": "bool"
        }
      ],
      "stateMutability": "view",
      "type": "function"
    },
    {
      "inputs": [],
      "name": "tokenAddress",
      "outputs": [
        {
          "internalType": "address",
          "name": "",
          "type": "address"
        }
      ],
      "stateMutability": "view",
      "type": "function"
    },
    {
      "inputs": [],
      "name": "treasuryAddress",
      "outputs": [
        {
          "internalType": "address",
          "name": "",
          "type": "address"
        }
      ],
      "stateMutability": "view",
      "type": "function"
    },
    {
      "inputs": [
        {
          "components": [
            {
              "internalType": "uint256",
              "name": "votingDelay",
              "type": "uint256"
            },
            {
              "internalType": "uint256",
              "name": "votingPeriod",
              "type": "uint256"
            },
            {
              "internalType": "uint256",
              "name": "proposalThreshold",
              "type": "uint256"
            },
            {
              "internalType": "uint256",
              "name": "quorumPercentage",
              "type": "uint256"
            },
            {
              "internalType": "uint256",
              "name": "timelockDelay",
              "type": "uint256"
            }
          ],
          "internalType": "struct OANDAO.DAOConfig",
          "name": "newConfig",
          "type": "tuple"
        }
      ],
      "name": "updateConfig",
      "outputs": [],
      "stateMutability": "nonpayable",
      "type": "function"
    },
    {
      "inputs": [
        {
          "internalType": "string",
          "name": "component",
          "type": "string"
        },
        {
          "internalType": "address",
          "name": "newAddress",
          "type": "address"
        }
      ],
      "name": "upgradeComponent",
      "outputs": [],
      "stateMutability": "nonpayable",
      "type": "function"
    },
    {
      "inputs": [],
      "name": "votingMechanismAddress",
      "outputs": [
        {
          "internalType": "address",
          "name": "",
          "type": "address"
        }
      ],
      "stateMutability": "view",
      "type": "function"
    }
  ],
  "bytecode": "0x6080604052346100b257610012336100b7565b5061001c33610136565b50610026336101d7565b5060405160a08101906001600160401b0382118183101761009c57608091604052620151808082526203f4809081602084015269152d02c7e14af680000092836040820152600460608201526202a300948591015260055560065560075560046008556009556040516110c99081620002748239f35b634e487b7160e01b600052604160045260246000fd5b600080fd5b6001600160a01b031660008181527fad3228b676f7d3cd4284a5443f17f1962b36e491b30a40b2405849e597ba5fb5602052604081205490919060ff1661013257818052816020526040822081835260205260408220600160ff1982541617905533916000805160206200133d8339815191528180a4600190565b5090565b6001600160a01b031660008181527f6f3b488caa0dc03e5f3d9fd6a25fa8755afcfd62ccffb6e436c696bfa6b866de60205260408120549091907f7935bd0ae54bc31f548c14dba4d37c5c64b3f8ca900cb468fb8abd54d5894f559060ff166101d257808352826020526040832082845260205260408320600160ff198254161790556000805160206200133d833981519152339380a4600190565b505090565b6001600160a01b031660008181527f8a40f0b47fdc2a0ce293b772acfc7508c8315a4d462786c1adc3a56f92ca2d0560205260408120549091907f55435dd261a4b9b3364963f7738a7a662ad9c84396d64be3365284bb7f0a50419060ff166101d257808352826020526040832082845260205260408320600160ff198254161790556000805160206200133d833981519152339380a460019056fe608060408181526004908136101561001657600080fd5b600092833560e01c90816301ffc9a714610d1f57508063158ef93e14610cf9578063248a9ca314610ccf57806324ea54f414610c945780632f2ff15d14610c6c57806336568abe14610bff57806355517f5614610ac657806368db91681461070157806379502c55146106c057806391d148541461066e5780639d76ea5814610639578063a217fddf1461061e578063c3f909d414610578578063c5f956af14610543578063ccc5749014610508578063d211bc3f146104b3578063d547741f14610476578063e0832c511461043f578063e66fa9ce146104065763f8c8765e1461010057600080fd5b3461040257608060031936011261040257813573ffffffffffffffffffffffffffffffffffffffff928382168092036103fe5761013b610dbe565b936044948535958287168097036103fa576064908135938085168095036103f657610164610e8e565b85549360ff8560a01c1661039b57871561034057169687156102e657881561028c57841561023257505050907fffffffffffffffffffffff0000000000000000000000000000000000000000007401000000000000000000000000000000000000000092877fffffffffffffffffffffffff00000000000000000000000000000000000000008781600154161760015588816002541617600255600354161760035516171790557f33f8d414ccd66921d3bcff3efae51422c9e1b7872c7b88172e24a572e927ea6d8480a480f35b859160207f496e76616c696420766f74696e67206d656368616e69736d00000000000000009251937f08c379a000000000000000000000000000000000000000000000000000000000855284015260186024840152820152fd5b859160207f496e76616c69642070726f706f73616c2073797374656d0000000000000000009251937f08c379a000000000000000000000000000000000000000000000000000000000855284015260176024840152820152fd5b859160207f496e76616c6964207472656173757279000000000000000000000000000000009251937f08c379a000000000000000000000000000000000000000000000000000000000855284015260106024840152820152fd5b83877f496e76616c696420746f6b656e000000000000000000000000000000000000008560208d51937f08c379a0000000000000000000000000000000000000000000000000000000008552840152600d6024840152820152fd5b83877f416c726561647920696e697469616c697a6564000000000000000000000000008560208d51937f08c379a000000000000000000000000000000000000000000000000000000000855284015260136024840152820152fd5b8980fd5b8780fd5b8480fd5b8280fd5b83823461043b578160031936011261043b5760209073ffffffffffffffffffffffffffffffffffffffff600354169051908152f35b5080fd5b5082346104735780600319360112610473575073ffffffffffffffffffffffffffffffffffffffff60209254169051908152f35b80fd5b50346104025780600319360112610402576104af91356104aa6001610499610dbe565b938387528660205286200154610eff565b610fcf565b5080f35b5090346104025782600319360112610402576080925073ffffffffffffffffffffffffffffffffffffffff90816001541692826002541692806003541692541692815194855260208501528301526060820152f35b83823461043b578160031936011261043b57602090517f7935bd0ae54bc31f548c14dba4d37c5c64b3f8ca900cb468fb8abd54d5894f558152f35b83823461043b578160031936011261043b5760209073ffffffffffffffffffffffffffffffffffffffff600254169051908152f35b83823461043b578160031936011261043b5761061a916080825161059b81610de6565b828152826020820152828482015282606082015201528051906105bd82610de6565b600554825260065460208301526007548183015260085460608301526009546080830152519182918291909160808060a0830194805184526020810151602085015260408101516040850152606081015160608501520151910152565b0390f35b83823461043b578160031936011261043b5751908152602090f35b83823461043b578160031936011261043b5760209073ffffffffffffffffffffffffffffffffffffffff600154169051908152f35b5090346104025781600319360112610402578160209360ff9261068f610dbe565b9035825281865273ffffffffffffffffffffffffffffffffffffffff83832091168252855220541690519015158152f35b83823461043b578160031936011261043b5760a090600554906006549060075460085491600954938151958652602086015284015260608301526080820152f35b5082903461043b578060031936011261043b57823567ffffffffffffffff808211610ac25736602383011215610ac25781850135908111610a96578251916020957fffffffffffffffffffffffffffffffffffffffffffffffffffffffffffffffe0926107758885601f8401160186610e4d565b8085528785019236602483830101116103fa5781889260248b930186378601015273ffffffffffffffffffffffffffffffffffffffff6107b3610dbe565b6107bb610e8e565b16908115610a3a578551888101906107e88a8289516107db81878b611070565b8101038084520182610e4d565b5190208651898101907f747265617375727900000000000000000000000000000000000000000000000082526008815261082181610e31565b51902081036108ac5750506060939291817f4c8f5e5da9dda272dd8ef93987ad0701c87d10134d76680938e247314774bff99798601f937fffffffffffffffffffffffff000000000000000000000000000000000000000060025416176002555b61089e885198899781895251948580928a015289890190611070565b85015201168101030190a180f35b8651898101907f70726f706f73616c53797374656d0000000000000000000000000000000000008252600e81526108e281610e31565b51902081036109475750506060939291817f4c8f5e5da9dda272dd8ef93987ad0701c87d10134d76680938e247314774bff99798601f937fffffffffffffffffffffffff00000000000000000000000000000000000000006003541617600355610882565b8651898101907f766f74696e674d656368616e69736d00000000000000000000000000000000008252600f815261097d81610e31565b519020036109de5791817f4c8f5e5da9dda272dd8ef93987ad0701c87d10134d76680938e247314774bff9979884601f947fffffffffffffffffffffffff000000000000000000000000000000000000000060609998975416179055610882565b606490888751917f08c379a0000000000000000000000000000000000000000000000000000000008352820152601160248201527f556e6b6e6f776e20636f6d706f6e656e740000000000000000000000000000006044820152fd5b606490888751917f08c379a0000000000000000000000000000000000000000000000000000000008352820152600f60248201527f496e76616c6964206164647265737300000000000000000000000000000000006044820152fd5b6024846041877f4e487b7100000000000000000000000000000000000000000000000000000000835252fd5b8380fd5b50346104025760a060031936011261040257805191610ae483610de6565b80358352602083016024358152828401604435815260608501916064358352608086019360843585527f7935bd0ae54bc31f548c14dba4d37c5c64b3f8ca900cb468fb8abd54d5894f5580895288602052868920338a5260205260ff878a20541615610bc957887f88258486e342f2cd0e19b64e0505c355505bea7d2e2bd3258aa5061fda88a268610bc38a8a8a8a8a8a855160055551600655516007555160085551600955519182918291909160808060a0830194805184526020810151602085015260408101516040850152606081015160608501520151910152565b0390a180f35b604492508651917fe2517d3f00000000000000000000000000000000000000000000000000000000835233908301526024820152fd5b5082903461043b578060031936011261043b57610c1a610dbe565b903373ffffffffffffffffffffffffffffffffffffffff831603610c4457506104af919235610fcf565b8390517f6697b232000000000000000000000000000000000000000000000000000000008152fd5b50346104025780600319360112610402576104af9135610c8f6001610499610dbe565b610f25565b83823461043b578160031936011261043b57602090517f55435dd261a4b9b3364963f7738a7a662ad9c84396d64be3365284bb7f0a50418152f35b50903461040257602060031936011261040257816020936001923581528085522001549051908152f35b5082346104735780600319360112610473575060ff6020925460a01c1690519015158152f35b8490843461040257602060031936011261040257357fffffffff00000000000000000000000000000000000000000000000000000000811680910361040257602092507f7965db0b000000000000000000000000000000000000000000000000000000008114908115610d94575b5015158152f35b7f01ffc9a70000000000000000000000000000000000000000000000000000000091501483610d8d565b6024359073ffffffffffffffffffffffffffffffffffffffff82168203610de157565b600080fd5b60a0810190811067ffffffffffffffff821117610e0257604052565b7f4e487b7100000000000000000000000000000000000000000000000000000000600052604160045260246000fd5b6040810190811067ffffffffffffffff821117610e0257604052565b90601f7fffffffffffffffffffffffffffffffffffffffffffffffffffffffffffffffe0910116810190811067ffffffffffffffff821117610e0257604052565b3360009081527fad3228b676f7d3cd4284a5443f17f1962b36e491b30a40b2405849e597ba5fb5602052604081205460ff1615610ec85750565b604490604051907fe2517d3f0000000000000000000000000000000000000000000000000000000082523360048301526024820152fd5b80600052600060205260406000203360005260205260ff6040600020541615610ec85750565b906000918083528260205273ffffffffffffffffffffffffffffffffffffffff6040842092169182845260205260ff60408420541615600014610fca5780835282602052604083208284526020526040832060017fffffffffffffffffffffffffffffffffffffffffffffffffffffffffffffff008254161790557f2f8788117e7eff1d82e926ec794901d17c78024a50270940304540a733656f0d339380a4600190565b505090565b906000918083528260205273ffffffffffffffffffffffffffffffffffffffff6040842092169182845260205260ff604084205416600014610fca578083528260205260408320828452602052604083207fffffffffffffffffffffffffffffffffffffffffffffffffffffffffffffff0081541690557ff6391f5c32d9c69d2a47ea670b442974b53935d1edc7fd64eb21e047a839171b339380a4600190565b60005b8381106110835750506000910152565b818101518382015260200161107356fea2646970667358221220d506d39bf9d7ad7acdc7037d729e4bb96ed683b6611190f2bcca737d5704574964736f6c634300081400332f8788117e7eff1d82e926ec794901d17c78024a50270940304540a733656f0d",
  "linkReferences": {},
  "deployedLinkReferences": {}
}