{
  "_format": "hh-sol-artifact-1",
  "contractName": "OANDAO",
  "sourceName": "contracts/dao/OANDAO.sol",
  "abi": [
    {
      "inputs": [],
      "stateMutability": "nonpayable",
      "type": "constructor"
    },
    {
      "inputs": [],
      "name": "AccessControlBadConfirmation",
      "type": "error"
    },
    {
      "inputs": [
        {
          "internalType": "address",
          "name": "account",
          "type": "address"
        },
        {
          "internalType": "bytes32",
          "name": "neededRole",
          "type": "bytes32"
        }
      ],
      "name": "AccessControlUnauthorizedAccount",
      "type": "error"
    },
    {
      "anonymous": false,
      "inputs": [
        {
          "indexed": false,
          "internalType": "string",
          "name": "component",
          "type": "string"
        },
        {
          "indexed": false,
          "internalType": "address",
          "name": "newAddress",
          "type": "address"
        }
      ],
      "name": "ComponentUpgraded",
      "type": "event"
    },
    {
      "anonymous": false,
      "inputs": [
        {
          "components": [
            {
              "internalType": "uint256",
              "name": "votingDelay",
              "type": "uint256"
            },
            {
              "internalType": "uint256",
              "name": "votingPeriod",
              "type": "uint256"
            },
            {
              "internalType": "uint256",
              "name": "proposalThreshold",
              "type": "uint256"
            },
            {
              "internalType": "uint256",
              "name": "quorumPercentage",
              "type": "uint256"
            },
            {
              "internalType": "uint256",
              "name": "timelockDelay",
              "type": "uint256"
            }
          ],
          "indexed": false,
          "internalType": "struct OANDAO.DAOConfig",
          "name": "newConfig",
          "type": "tuple"
        }
      ],
      "name": "ConfigUpdated",
      "type": "event"
    },
    {
      "anonymous": false,
      "inputs": [
        {
          "indexed": true,
          "internalType": "address",
          "name": "token",
          "type": "address"
        },
        {
          "indexed": true,
          "internalType": "address",
          "name": "treasury",
          "type": "address"
        },
        {
          "indexed": true,
          "internalType": "address",
          "name": "proposalSystem",
          "type": "address"
        }
      ],
      "name": "DAOInitialized",
      "type": "event"
    },
    {
      "anonymous": false,
      "inputs": [
        {
          "indexed": true,
          "internalType": "bytes32",
          "name": "role",
          "type": "bytes32"
        },
        {
          "indexed": true,
          "internalType": "bytes32",
          "name": "previousAdminRole",
          "type": "bytes32"
        },
        {
          "indexed": true,
          "internalType": "bytes32",
          "name": "newAdminRole",
          "type": "bytes32"
        }
      ],
      "name": "RoleAdminChanged",
      "type": "event"
    },
    {
      "anonymous": false,
      "inputs": [
        {
          "indexed": true,
          "internalType": "bytes32",
          "name": "role",
          "type": "bytes32"
        },
        {
          "indexed": true,
          "internalType": "address",
          "name": "account",
          "type": "address"
        },
        {
          "indexed": true,
          "internalType": "address",
          "name": "sender",
          "type": "address"
        }
      ],
      "name": "RoleGranted",
      "type": "event"
    },
    {
      "anonymous": false,
      "inputs": [
        {
          "indexed": true,
          "internalType": "bytes32",
          "name": "role",
          "type": "bytes32"
        },
        {
          "indexed": true,
          "internalType": "address",
          "name": "account",
          "type": "address"
        },
        {
          "indexed": true,
          "internalType": "address",
          "name": "sender",
          "type": "address"
        }
      ],
      "name": "RoleRevoked",
      "type": "event"
    },
    {
      "inputs": [],
      "name": "DEFAULT_ADMIN_ROLE",
      "outputs": [
        {
          "internalType": "bytes32",
          "name": "",
          "type": "bytes32"
        }
      ],
      "stateMutability": "view",
      "type": "function"
    },
    {
      "inputs": [],
      "name": "GOVERNOR_ROLE",
      "outputs": [
        {
          "internalType": "bytes32",
          "name": "",
          "type": "bytes32"
        }
      ],
      "stateMutability": "view",
      "type": "function"
    },
    {
      "inputs": [],
      "name": "GUARDIAN_ROLE",
      "outputs": [
        {
          "internalType": "bytes32",
          "name": "",
          "type": "bytes32"
        }
      ],
      "stateMutability": "view",
      "type": "function"
    },
    {
      "inputs": [],
      "name": "config",
      "outputs": [
        {
          "internalType": "uint256",
          "name": "votingDelay",
          "type": "uint256"
        },
        {
          "internalType": "uint256",
          "name": "votingPeriod",
          "type": "uint256"
        },
        {
          "internalType": "uint256",
          "name": "proposalThreshold",
          "type": "uint256"
        },
        {
          "internalType": "uint256",
          "name": "quorumPercentage",
          "type": "uint256"
        },
        {
          "internalType": "uint256",
          "name": "timelockDelay",
          "type": "uint256"
        }
      ],
      "stateMutability": "view",
      "type": "function"
    },
    {
      "inputs": [],
      "name": "getConfig",
      "outputs": [
        {
          "components": [
            {
              "internalType": "uint256",
              "name": "votingDelay",
              "type": "uint256"
            },
            {
              "internalType": "uint256",
              "name": "votingPeriod",
              "type": "uint256"
            },
            {
              "internalType": "uint256",
              "name": "proposalThreshold",
              "type": "uint256"
            },
            {
              "internalType": "uint256",
              "name": "quorumPercentage",
              "type": "uint256"
            },
            {
              "internalType": "uint256",
              "name": "timelockDelay",
              "type": "uint256"
            }
          ],
          "internalType": "struct OANDAO.DAOConfig",
          "name": "",
          "type": "tuple"
        }
      ],
      "stateMutability": "view",
      "type": "function"
    },
    {
      "inputs": [],
      "name": "getDAOAddresses",
      "outputs": [
        {
          "internalType": "address",
          "name": "token",
          "type": "address"
        },
        {
          "internalType": "address",
          "name": "treasury",
          "type": "address"
        },
        {
          "internalType": "address",
          "name": "proposalSystem",
          "type": "address"
        },
        {
          "internalType": "address",
          "name": "votingMechanism",
          "type": "address"
        }
      ],
      "stateMutability": "view",
      "type": "function"
    },
    {
      "inputs": [
        {
          "internalType": "bytes32",
          "name": "role",
          "type": "bytes32"
        }
      ],
      "name": "getRoleAdmin",
      "outputs": [
        {
          "internalType": "bytes32",
          "name": "",
          "type": "bytes32"
        }
      ],
      "stateMutability": "view",
      "type": "function"
    },
    {
      "inputs": [
        {
          "internalType": "bytes32",
          "name": "role",
          "type": "bytes32"
        },
        {
          "internalType": "address",
          "name": "account",
          "type": "address"
        }
      ],
      "name": "grantRole",
      "outputs": [],
      "stateMutability": "nonpayable",
      "type": "function"
    },
    {
      "inputs": [
        {
          "internalType": "bytes32",
          "name": "role",
          "type": "bytes32"
        },
        {
          "internalType": "address",
          "name": "account",
          "type": "address"
        }
      ],
      "name": "hasRole",
      "outputs": [
        {
          "internalType": "bool",
          "name": "",
          "type": "bool"
        }
      ],
      "stateMutability": "view",
      "type": "function"
    },
    {
      "inputs": [
        {
          "internalType": "address",
          "name": "_token",
          "type": "address"
        },
        {
          "internalType": "address",
          "name": "_treasury",
          "type": "address"
        },
        {
          "internalType": "address",
          "name": "_proposalSystem",
          "type": "address"
        },
        {
          "internalType": "address",
          "name": "_votingMechanism",
          "type": "address"
        }
      ],
      "name": "initialize",
      "outputs": [],
      "stateMutability": "nonpayable",
      "type": "function"
    },
    {
      "inputs": [],
      "name": "initialized",
      "outputs": [
        {
          "internalType": "bool",
          "name": "",
          "type": "bool"
        }
      ],
      "stateMutability": "view",
      "type": "function"
    },
    {
      "inputs": [],
      "name": "proposalSystemAddress",
      "outputs": [
        {
          "internalType": "address",
          "name": "",
          "type": "address"
        }
      ],
      "stateMutability": "view",
      "type": "function"
    },
    {
      "inputs": [
        {
          "internalType": "bytes32",
          "name": "role",
          "type": "bytes32"
        },
        {
          "internalType": "address",
          "name": "callerConfirmation",
          "type": "address"
        }
      ],
      "name": "renounceRole",
      "outputs": [],
      "stateMutability": "nonpayable",
      "type": "function"
    },
    {
      "inputs": [
        {
          "internalType": "bytes32",
          "name": "role",
          "type": "bytes32"
        },
        {
          "internalType": "address",
          "name": "account",
          "type": "address"
        }
      ],
      "name": "revokeRole",
      "outputs": [],
      "stateMutability": "nonpayable",
      "type": "function"
    },
    {
      "inputs": [
        {
          "internalType": "bytes4",
          "name": "interfaceId",
          "type": "bytes4"
        }
      ],
      "name": "supportsInterface",
      "outputs": [
        {
          "internalType": "bool",
          "name": "",
          "type": "bool"
        }
      ],
      "stateMutability": "view",
      "type": "function"
    },
    {
      "inputs": [],
      "name": "tokenAddress",
      "outputs": [
        {
          "internalType": "address",
          "name": "",
          "type": "address"
        }
      ],
      "stateMutability": "view",
      "type": "function"
    },
    {
      "inputs": [],
      "name": "treasuryAddress",
      "outputs": [
        {
          "internalType": "address",
          "name": "",
          "type": "address"
        }
      ],
      "stateMutability": "view",
      "type": "function"
    },
    {
      "inputs": [
        {
          "components": [
            {
              "internalType": "uint256",
              "name": "votingDelay",
              "type": "uint256"
            },
            {
              "internalType": "uint256",
              "name": "votingPeriod",
              "type": "uint256"
            },
            {
              "internalType": "uint256",
              "name": "proposalThreshold",
              "type": "uint256"
            },
            {
              "internalType": "uint256",
              "name": "quorumPercentage",
              "type": "uint256"
            },
            {
              "internalType": "uint256",
              "name": "timelockDelay",
              "type": "uint256"
            }
          ],
          "internalType": "struct OANDAO.DAOConfig",
          "name": "newConfig",
          "type": "tuple"
        }
      ],
      "name": "updateConfig",
      "outputs": [],
      "stateMutability": "nonpayable",
      "type": "function"
    },
    {
      "inputs": [
        {
          "internalType": "string",
          "name": "component",
          "type": "string"
        },
        {
          "internalType": "address",
          "name": "newAddress",
          "type": "address"
        }
      ],
      "name": "upgradeComponent",
      "outputs": [],
      "stateMutability": "nonpayable",
      "type": "function"
    },
    {
      "inputs": [],
      "name": "votingMechanismAddress",
      "outputs": [
        {
          "internalType": "address",
          "name": "",
          "type": "address"
        }
      ],
      "stateMutability": "view",
      "type": "function"
    }
  ],
  "bytecode": "0x608060405234801561001057600080fd5b5061001c6000336100d2565b506100477f7935bd0ae54bc31f548c14dba4d37c5c64b3f8ca900cb468fb8abd54d5894f55336100d2565b506100727f55435dd261a4b9b3364963f7738a7a662ad9c84396d64be3365284bb7f0a5041336100d2565b506040805160a081018252620151808082526203f4806020830181905269152d02c7e14af68000009383018490526004606084018190526202a300608090940184905260059290925560065560079290925560089190915560095561017e565b6000828152602081815260408083206001600160a01b038516845290915281205460ff16610174576000838152602081815260408083206001600160a01b03861684529091529020805460ff1916600117905561012c3390565b6001600160a01b0316826001600160a01b0316847f2f8788117e7eff1d82e926ec794901d17c78024a50270940304540a733656f0d60405160405180910390a4506001610178565b5060005b92915050565b610e188061018d6000396000f3fe608060405234801561001057600080fd5b506004361061012c5760003560e01c80639d76ea58116100ad578063d211bc3f11610071578063d211bc3f1461031f578063d547741f1461035f578063e0832c5114610372578063e66fa9ce14610385578063f8c8765e1461039857600080fd5b80639d76ea5814610268578063a217fddf14610293578063c3f909d41461029b578063c5f956af146102e5578063ccc57490146102f857600080fd5b806336568abe116100f457806336568abe146101da57806355517f56146101ed57806368db91681461020057806379502c551461021357806391d148541461025557600080fd5b806301ffc9a714610131578063158ef93e14610159578063248a9ca31461016d57806324ea54f41461019e5780632f2ff15d146101c5575b600080fd5b61014461013f366004610b1b565b6103ab565b60405190151581526020015b60405180910390f35b60045461014490600160a01b900460ff1681565b61019061017b366004610b4c565b60009081526020819052604090206001015490565b604051908152602001610150565b6101907f55435dd261a4b9b3364963f7738a7a662ad9c84396d64be3365284bb7f0a504181565b6101d86101d3366004610b81565b6103e2565b005b6101d86101e8366004610b81565b61040d565b6101d86101fb366004610bf4565b610445565b6101d861020e366004610c64565b6104f0565b60055460065460075460085460095461022d949392919085565b604080519586526020860194909452928401919091526060830152608082015260a001610150565b610144610263366004610b81565b6106fb565b60015461027b906001600160a01b031681565b6040516001600160a01b039091168152602001610150565b610190600081565b6102a3610724565b6040516101509190600060a082019050825182526020830151602083015260408301516040830152606083015160608301526080830151608083015292915050565b60025461027b906001600160a01b031681565b6101907f7935bd0ae54bc31f548c14dba4d37c5c64b3f8ca900cb468fb8abd54d5894f5581565b600154600254600354600454604080516001600160a01b039586168152938516602085015291841691830191909152919091166060820152608001610150565b6101d861036d366004610b81565b61078b565b60045461027b906001600160a01b031681565b60035461027b906001600160a01b031681565b6101d86103a6366004610d0a565b6107b0565b60006001600160e01b03198216637965db0b60e01b14806103dc57506301ffc9a760e01b6001600160e01b03198316145b92915050565b6000828152602081905260409020600101546103fd816109d4565b61040783836109e1565b50505050565b6001600160a01b03811633146104365760405163334bd91960e11b815260040160405180910390fd5b6104408282610a73565b505050565b7f7935bd0ae54bc31f548c14dba4d37c5c64b3f8ca900cb468fb8abd54d5894f5561046f816109d4565b815160058190556020808401805160065560408086018051600755606080880180516008556080808a0180516009558551988952955196880196909652915192860192909252519084015251908201527f88258486e342f2cd0e19b64e0505c355505bea7d2e2bd3258aa5061fda88a2689060a00160405180910390a15050565b60006104fb816109d4565b6001600160a01b0382166105485760405162461bcd60e51b815260206004820152600f60248201526e496e76616c6964206164647265737360881b60448201526064015b60405180910390fd5b60008360405160200161055b9190610d82565b6040516020818303038152906040528051906020012090506040516020016105919067747265617375727960c01b815260080190565b6040516020818303038152906040528051906020012081036105cd57600280546001600160a01b0319166001600160a01b0385161790556106bc565b6040516d70726f706f73616c53797374656d60901b6020820152602e0160405160208183030381529060405280519060200120810361062657600380546001600160a01b0319166001600160a01b0385161790556106bc565b6040516e766f74696e674d656368616e69736d60881b6020820152602f0160405160208183030381529060405280519060200120810361068057600480546001600160a01b0319166001600160a01b0385161790556106bc565b60405162461bcd60e51b8152602060048201526011602482015270155b9adb9bdddb8818dbdb5c1bdb995b9d607a1b604482015260640161053f565b7f4c8f5e5da9dda272dd8ef93987ad0701c87d10134d76680938e247314774bff984846040516106ed929190610d9e565b60405180910390a150505050565b6000918252602082815260408084206001600160a01b0393909316845291905290205460ff1690565b6107566040518060a0016040528060008152602001600081526020016000815260200160008152602001600081525090565b506040805160a08101825260055481526006546020820152600754918101919091526008546060820152600954608082015290565b6000828152602081905260409020600101546107a6816109d4565b6104078383610a73565b60006107bb816109d4565b600454600160a01b900460ff161561080b5760405162461bcd60e51b8152602060048201526013602482015272105b1c9958591e481a5b9a5d1a585b1a5e9959606a1b604482015260640161053f565b6001600160a01b0385166108515760405162461bcd60e51b815260206004820152600d60248201526c24b73b30b634b2103a37b5b2b760991b604482015260640161053f565b6001600160a01b03841661089a5760405162461bcd60e51b815260206004820152601060248201526f496e76616c696420747265617375727960801b604482015260640161053f565b6001600160a01b0383166108f05760405162461bcd60e51b815260206004820152601760248201527f496e76616c69642070726f706f73616c2073797374656d000000000000000000604482015260640161053f565b6001600160a01b0382166109465760405162461bcd60e51b815260206004820152601860248201527f496e76616c696420766f74696e67206d656368616e69736d0000000000000000604482015260640161053f565b600180546001600160a01b038088166001600160a01b0319928316811790935560028054888316908416811790915560038054888416941684179055600480546001600160a81b03191692871692909217600160a01b17909155604051919290917f33f8d414ccd66921d3bcff3efae51422c9e1b7872c7b88172e24a572e927ea6d90600090a45050505050565b6109de8133610ade565b50565b60006109ed83836106fb565b610a6b576000838152602081815260408083206001600160a01b03861684529091529020805460ff19166001179055610a233390565b6001600160a01b0316826001600160a01b0316847f2f8788117e7eff1d82e926ec794901d17c78024a50270940304540a733656f0d60405160405180910390a45060016103dc565b5060006103dc565b6000610a7f83836106fb565b15610a6b576000838152602081815260408083206001600160a01b0386168085529252808320805460ff1916905551339286917ff6391f5c32d9c69d2a47ea670b442974b53935d1edc7fd64eb21e047a839171b9190a45060016103dc565b610ae882826106fb565b610b175760405163e2517d3f60e01b81526001600160a01b03821660048201526024810183905260440161053f565b5050565b600060208284031215610b2d57600080fd5b81356001600160e01b031981168114610b4557600080fd5b9392505050565b600060208284031215610b5e57600080fd5b5035919050565b80356001600160a01b0381168114610b7c57600080fd5b919050565b60008060408385031215610b9457600080fd5b82359150610ba460208401610b65565b90509250929050565b634e487b7160e01b600052604160045260246000fd5b604051601f8201601f1916810167ffffffffffffffff81118282101715610bec57610bec610bad565b604052919050565b600060a08284031215610c0657600080fd5b60405160a0810181811067ffffffffffffffff82111715610c2957610c29610bad565b806040525082358152602083013560208201526040830135604082015260608301356060820152608083013560808201528091505092915050565b60008060408385031215610c7757600080fd5b823567ffffffffffffffff80821115610c8f57600080fd5b818501915085601f830112610ca357600080fd5b8135602082821115610cb757610cb7610bad565b610cc9601f8301601f19168201610bc3565b92508183528781838601011115610cdf57600080fd5b81818501828501376000818385010152829550610cfd818801610b65565b9450505050509250929050565b60008060008060808587031215610d2057600080fd5b610d2985610b65565b9350610d3760208601610b65565b9250610d4560408601610b65565b9150610d5360608601610b65565b905092959194509250565b60005b83811015610d79578181015183820152602001610d61565b50506000910152565b60008251610d94818460208701610d5e565b9190910192915050565b6040815260008351806040840152610dbd816060850160208801610d5e565b6001600160a01b0393909316602083015250601f91909101601f19160160600191905056fea26469706673582212204bb9c795f13cc3bd82ea87e8f1f40d99292f6051cbb37f9d12dfc99a4812c40364736f6c63430008140033",
  "linkReferences": {},
  "deployedLinkReferences": {}
}