{
  "_format": "hh-sol-artifact-1",
  "contractName": "FloorProtection",
  "sourceName": "contracts/layer6/pricing/FloorProtection.sol",
  "abi": [
    {
      "inputs": [],
      "stateMutability": "nonpayable",
      "type": "constructor"
    },
    {
      "inputs": [],
      "name": "AccessControlBadConfirmation",
      "type": "error"
    },
    {
      "inputs": [
        {
          "internalType": "address",
          "name": "account",
          "type": "address"
        },
        {
          "internalType": "bytes32",
          "name": "neededRole",
          "type": "bytes32"
        }
      ],
      "name": "AccessControlUnauthorizedAccount",
      "type": "error"
    },
    {
      "inputs": [],
      "name": "ReentrancyGuardReentrantCall",
      "type": "error"
    },
    {
      "anonymous": false,
      "inputs": [
        {
          "indexed": true,
          "internalType": "address",
          "name": "nftContract",
          "type": "address"
        },
        {
          "indexed": false,
          "internalType": "uint256",
          "name": "tokenId",
          "type": "uint256"
        },
        {
          "indexed": false,
          "internalType": "uint256",
          "name": "price",
          "type": "uint256"
        }
      ],
      "name": "BuybackTriggered",
      "type": "event"
    },
    {
      "anonymous": false,
      "inputs": [
        {
          "indexed": true,
          "internalType": "address",
          "name": "nftContract",
          "type": "address"
        },
        {
          "indexed": false,
          "internalType": "uint256",
          "name": "floorPrice",
          "type": "uint256"
        },
        {
          "indexed": false,
          "internalType": "uint256",
          "name": "triggerThreshold",
          "type": "uint256"
        }
      ],
      "name": "FloorConfigSet",
      "type": "event"
    },
    {
      "anonymous": false,
      "inputs": [
        {
          "indexed": true,
          "internalType": "address",
          "name": "nftContract",
          "type": "address"
        },
        {
          "indexed": false,
          "internalType": "uint256",
          "name": "oldFloor",
          "type": "uint256"
        },
        {
          "indexed": false,
          "internalType": "uint256",
          "name": "newFloor",
          "type": "uint256"
        }
      ],
      "name": "FloorUpdated",
      "type": "event"
    },
    {
      "anonymous": false,
      "inputs": [
        {
          "indexed": true,
          "internalType": "address",
          "name": "nftContract",
          "type": "address"
        },
        {
          "indexed": false,
          "internalType": "uint256",
          "name": "amount",
          "type": "uint256"
        }
      ],
      "name": "ReserveFunded",
      "type": "event"
    },
    {
      "anonymous": false,
      "inputs": [
        {
          "indexed": true,
          "internalType": "address",
          "name": "nftContract",
          "type": "address"
        },
        {
          "indexed": false,
          "internalType": "uint256",
          "name": "amount",
          "type": "uint256"
        }
      ],
      "name": "ReserveWithdrawn",
      "type": "event"
    },
    {
      "anonymous": false,
      "inputs": [
        {
          "indexed": true,
          "internalType": "bytes32",
          "name": "role",
          "type": "bytes32"
        },
        {
          "indexed": true,
          "internalType": "bytes32",
          "name": "previousAdminRole",
          "type": "bytes32"
        },
        {
          "indexed": true,
          "internalType": "bytes32",
          "name": "newAdminRole",
          "type": "bytes32"
        }
      ],
      "name": "RoleAdminChanged",
      "type": "event"
    },
    {
      "anonymous": false,
      "inputs": [
        {
          "indexed": true,
          "internalType": "bytes32",
          "name": "role",
          "type": "bytes32"
        },
        {
          "indexed": true,
          "internalType": "address",
          "name": "account",
          "type": "address"
        },
        {
          "indexed": true,
          "internalType": "address",
          "name": "sender",
          "type": "address"
        }
      ],
      "name": "RoleGranted",
      "type": "event"
    },
    {
      "anonymous": false,
      "inputs": [
        {
          "indexed": true,
          "internalType": "bytes32",
          "name": "role",
          "type": "bytes32"
        },
        {
          "indexed": true,
          "internalType": "address",
          "name": "account",
          "type": "address"
        },
        {
          "indexed": true,
          "internalType": "address",
          "name": "sender",
          "type": "address"
        }
      ],
      "name": "RoleRevoked",
      "type": "event"
    },
    {
      "inputs": [],
      "name": "DEFAULT_ADMIN_ROLE",
      "outputs": [
        {
          "internalType": "bytes32",
          "name": "",
          "type": "bytes32"
        }
      ],
      "stateMutability": "view",
      "type": "function"
    },
    {
      "inputs": [],
      "name": "GUARDIAN_ROLE",
      "outputs": [
        {
          "internalType": "bytes32",
          "name": "",
          "type": "bytes32"
        }
      ],
      "stateMutability": "view",
      "type": "function"
    },
    {
      "inputs": [
        {
          "internalType": "uint256",
          "name": "",
          "type": "uint256"
        }
      ],
      "name": "buybackEvents",
      "outputs": [
        {
          "internalType": "uint256",
          "name": "eventId",
          "type": "uint256"
        },
        {
          "internalType": "address",
          "name": "nftContract",
          "type": "address"
        },
        {
          "internalType": "uint256",
          "name": "tokenId",
          "type": "uint256"
        },
        {
          "internalType": "uint256",
          "name": "price",
          "type": "uint256"
        },
        {
          "internalType": "uint256",
          "name": "timestamp",
          "type": "uint256"
        }
      ],
      "stateMutability": "view",
      "type": "function"
    },
    {
      "inputs": [
        {
          "internalType": "address",
          "name": "",
          "type": "address"
        },
        {
          "internalType": "uint256",
          "name": "",
          "type": "uint256"
        }
      ],
      "name": "collectionEvents",
      "outputs": [
        {
          "internalType": "uint256",
          "name": "",
          "type": "uint256"
        }
      ],
      "stateMutability": "view",
      "type": "function"
    },
    {
      "inputs": [
        {
          "internalType": "address",
          "name": "",
          "type": "address"
        }
      ],
      "name": "floorConfigs",
      "outputs": [
        {
          "internalType": "address",
          "name": "nftContract",
          "type": "address"
        },
        {
          "internalType": "uint256",
          "name": "floorPrice",
          "type": "uint256"
        },
        {
          "internalType": "uint256",
          "name": "buybackReserve",
          "type": "uint256"
        },
        {
          "internalType": "uint256",
          "name": "triggerThreshold",
          "type": "uint256"
        },
        {
          "internalType": "bool",
          "name": "isActive",
          "type": "bool"
        },
        {
          "internalType": "uint256",
          "name": "totalBuybacks",
          "type": "uint256"
        },
        {
          "internalType": "uint256",
          "name": "totalSpent",
          "type": "uint256"
        },
        {
          "internalType": "uint256",
          "name": "lastBuybackAt",
          "type": "uint256"
        },
        {
          "internalType": "address",
          "name": "guardian",
          "type": "address"
        }
      ],
      "stateMutability": "view",
      "type": "function"
    },
    {
      "inputs": [
        {
          "internalType": "address",
          "name": "nftContract",
          "type": "address"
        }
      ],
      "name": "fundReserve",
      "outputs": [],
      "stateMutability": "payable",
      "type": "function"
    },
    {
      "inputs": [
        {
          "internalType": "address",
          "name": "nftContract",
          "type": "address"
        }
      ],
      "name": "getCollectionEvents",
      "outputs": [
        {
          "internalType": "uint256[]",
          "name": "",
          "type": "uint256[]"
        }
      ],
      "stateMutability": "view",
      "type": "function"
    },
    {
      "inputs": [],
      "name": "getProtectedCollections",
      "outputs": [
        {
          "internalType": "address[]",
          "name": "",
          "type": "address[]"
        }
      ],
      "stateMutability": "view",
      "type": "function"
    },
    {
      "inputs": [
        {
          "internalType": "bytes32",
          "name": "role",
          "type": "bytes32"
        }
      ],
      "name": "getRoleAdmin",
      "outputs": [
        {
          "internalType": "bytes32",
          "name": "",
          "type": "bytes32"
        }
      ],
      "stateMutability": "view",
      "type": "function"
    },
    {
      "inputs": [
        {
          "internalType": "bytes32",
          "name": "role",
          "type": "bytes32"
        },
        {
          "internalType": "address",
          "name": "account",
          "type": "address"
        }
      ],
      "name": "grantRole",
      "outputs": [],
      "stateMutability": "nonpayable",
      "type": "function"
    },
    {
      "inputs": [
        {
          "internalType": "bytes32",
          "name": "role",
          "type": "bytes32"
        },
        {
          "internalType": "address",
          "name": "account",
          "type": "address"
        }
      ],
      "name": "hasRole",
      "outputs": [
        {
          "internalType": "bool",
          "name": "",
          "type": "bool"
        }
      ],
      "stateMutability": "view",
      "type": "function"
    },
    {
      "inputs": [
        {
          "internalType": "address",
          "name": "",
          "type": "address"
        }
      ],
      "name": "isProtected",
      "outputs": [
        {
          "internalType": "bool",
          "name": "",
          "type": "bool"
        }
      ],
      "stateMutability": "view",
      "type": "function"
    },
    {
      "inputs": [
        {
          "internalType": "uint256",
          "name": "",
          "type": "uint256"
        }
      ],
      "name": "protectedCollections",
      "outputs": [
        {
          "internalType": "address",
          "name": "",
          "type": "address"
        }
      ],
      "stateMutability": "view",
      "type": "function"
    },
    {
      "inputs": [
        {
          "internalType": "bytes32",
          "name": "role",
          "type": "bytes32"
        },
        {
          "internalType": "address",
          "name": "callerConfirmation",
          "type": "address"
        }
      ],
      "name": "renounceRole",
      "outputs": [],
      "stateMutability": "nonpayable",
      "type": "function"
    },
    {
      "inputs": [
        {
          "internalType": "bytes32",
          "name": "role",
          "type": "bytes32"
        },
        {
          "internalType": "address",
          "name": "account",
          "type": "address"
        }
      ],
      "name": "revokeRole",
      "outputs": [],
      "stateMutability": "nonpayable",
      "type": "function"
    },
    {
      "inputs": [
        {
          "internalType": "address",
          "name": "nftContract",
          "type": "address"
        },
        {
          "internalType": "uint256",
          "name": "floorPrice",
          "type": "uint256"
        },
        {
          "internalType": "uint256",
          "name": "triggerThreshold",
          "type": "uint256"
        }
      ],
      "name": "setFloorConfig",
      "outputs": [],
      "stateMutability": "nonpayable",
      "type": "function"
    },
    {
      "inputs": [
        {
          "internalType": "address",
          "name": "nftContract",
          "type": "address"
        },
        {
          "internalType": "uint256",
          "name": "currentPrice",
          "type": "uint256"
        }
      ],
      "name": "shouldTriggerBuyback",
      "outputs": [
        {
          "internalType": "bool",
          "name": "",
          "type": "bool"
        }
      ],
      "stateMutability": "view",
      "type": "function"
    },
    {
      "inputs": [
        {
          "internalType": "bytes4",
          "name": "i",
          "type": "bytes4"
        }
      ],
      "name": "supportsInterface",
      "outputs": [
        {
          "internalType": "bool",
          "name": "",
          "type": "bool"
        }
      ],
      "stateMutability": "view",
      "type": "function"
    },
    {
      "inputs": [
        {
          "internalType": "address",
          "name": "nftContract",
          "type": "address"
        },
        {
          "internalType": "uint256",
          "name": "tokenId",
          "type": "uint256"
        },
        {
          "internalType": "uint256",
          "name": "salePrice",
          "type": "uint256"
        }
      ],
      "name": "triggerBuyback",
      "outputs": [],
      "stateMutability": "nonpayable",
      "type": "function"
    },
    {
      "inputs": [
        {
          "internalType": "address",
          "name": "nftContract",
          "type": "address"
        },
        {
          "internalType": "uint256",
          "name": "newFloor",
          "type": "uint256"
        }
      ],
      "name": "updateFloor",
      "outputs": [],
      "stateMutability": "nonpayable",
      "type": "function"
    },
    {
      "inputs": [
        {
          "internalType": "address",
          "name": "nftContract",
          "type": "address"
        },
        {
          "internalType": "uint256",
          "name": "amount",
          "type": "uint256"
        }
      ],
      "name": "withdrawReserve",
      "outputs": [],
      "stateMutability": "nonpayable",
      "type": "function"
    }
  ],
  "bytecode": "0x608060405234610030576001805561001633610035565b50610020336100b3565b506040516114d690816101548239f35b600080fd5b6001600160a01b031660008181527fad3228b676f7d3cd4284a5443f17f1962b36e491b30a40b2405849e597ba5fb5602052604081205490919060ff166100af57818052816020526040822081835260205260408220600160ff19825416179055339160008051602061162a8339815191528180a4600190565b5090565b6001600160a01b031660008181527f8a40f0b47fdc2a0ce293b772acfc7508c8315a4d462786c1adc3a56f92ca2d0560205260408120549091907f55435dd261a4b9b3364963f7738a7a662ad9c84396d64be3365284bb7f0a50419060ff1661014e57808352826020526040832082845260205260408320600160ff1982541617905560008051602061162a833981519152339380a4600190565b50509056fe60806040908082526004918236101561001757600080fd5b600091823560e01c90816301ffc9a714610e25575080630ad281b614610dd65780630b3de32314610d4b5780631ab7e5f114610c915780631c58ce1414610b82578063248a9ca314610b5857806324ea54f414610b1e5780632f2ff15d14610af457806336568abe14610a89578063549c8858146109e257806389f1264c146107bd57806391d148541461076b578063a217fddf14610751578063ac3861f6146106e9578063ae1a652c14610687578063b028f23414610656578063b5c7b1c714610574578063ce35de951461052c578063d547741f146104ed578063e7400b52146104045763f0ef92281461010c57600080fd5b346104005761011a36610f8d565b610125939293610fc4565b61012d61138b565b73ffffffffffffffffffffffffffffffffffffffff809416938486526020906003825284872060ff8982015416156103a4576127106101756001830154600384015490611269565b04841161034857600281016101978582546101928282101561127c565b6112e1565b9055600581016101a781546112ee565b9055600681016101b885825461122d565b90556007429101556101cb6002546112ee565b908160025585519060a0820182811067ffffffffffffffff82111761031c578a918a9189528484528584018a81528985019089825260608601928984528b6080880195428752898152878b522096518755600187019151167fffffffffffffffffffffffff00000000000000000000000000000000000000008254161790555160028501555160038401555191015585875260058252848720805490680100000000000000008210156102f0577fa44fae322c700e309dbf7d686056638b4a7feb2d5d9ec87dc8ea5a6aff817b3e97989950906102ad91600182018155610f2a565b7fffffffffffffffffffffffffffffffffffffffffffffffffffffffffffffffff829392549160031b92831b921b19161790558351928352820152a26001805580f35b60248960418c7f4e487b7100000000000000000000000000000000000000000000000000000000835252fd5b60248a60418d7f4e487b7100000000000000000000000000000000000000000000000000000000835252fd5b606489848851917f08c379a0000000000000000000000000000000000000000000000000000000008352820152601d60248201527f50726963652061626f76652074726967676572207468726573686f6c640000006044820152fd5b606489848851917f08c379a0000000000000000000000000000000000000000000000000000000008352820152601160248201527f436f6e666967206e6f74206163746976650000000000000000000000000000006044820152fd5b5080fd5b50829060206003193601126104e95773ffffffffffffffffffffffffffffffffffffffff610430610f42565b1691828452600760205260ff82852054161561048d575060207fb52b99b9e83551fcbd069b559cc3e823e2a1a3bad8ece46561ea77524394c850918385526003825260028186200161048334825461122d565b905551348152a280f35b602060649251917f08c379a0000000000000000000000000000000000000000000000000000000008352820152601a60248201527f4e6f7420612070726f74656374656420636f6c6c656374696f6e0000000000006044820152fd5b8280fd5b508290346104e957806003193601126104e95761052891356105236001610512610f6a565b938387528660205286200154611057565b611127565b5080f35b50346104005760206003193601126104005760ff8160209373ffffffffffffffffffffffffffffffffffffffff610561610f42565b1681526007855220541690519015158152f35b5090346106535780600319360112610653579080519182906006549182855260208095018093600684527ff652222313e28459528d920b65115c16c04f3efc82aaedc97be59f3f377c0d3f90845b81811061062957505050816105d891038261131b565b83519485948186019282875251809352850193925b8281106105fc57505050500390f35b835173ffffffffffffffffffffffffffffffffffffffff16855286955093810193928101926001016105ed565b825473ffffffffffffffffffffffffffffffffffffffff16845292880192600192830192016105c2565b80fd5b503461040057806003193601126104005760209061067e610675610f42565b602435906113c6565b90519015158152f35b50346104005780600319360112610400576106a0610f42565b73ffffffffffffffffffffffffffffffffffffffff16825260056020528082208054602435939084101561065357506020926106db91610f2a565b91905490519160031b1c8152f35b508290346104e95760206003193601126104e9578060a09383358152836020522080549273ffffffffffffffffffffffffffffffffffffffff600183015416926002830154916003840154930154938151958652602086015284015260608301526080820152f35b503461040057816003193601126104005751908152602090f35b5082346104e957816003193601126104e9578160209360ff9261078c610f6a565b9035825281865273ffffffffffffffffffffffffffffffffffffffff83832091168252855220541690519015158152f35b5034610400576107cc36610f8d565b6107d7939293610fc4565b6107e28215156111c8565b61251c81116109855773ffffffffffffffffffffffffffffffffffffffff80941693848652600760205260ff8487205416156108c1575b507f9d3555b713d92128308c3d91c1d28fbfb86760a932c67ef33eb6506589cb65c2939495600360205260088488207fffffffffffffffffffffffff0000000000000000000000000000000000000000928884835416178255856001830155846003830155810160017fffffffffffffffffffffffffffffffffffffffffffffffffffffffffffffff008254161790550190339082541617905582519182526020820152a280f35b60065468010000000000000000811015610959579061090a8260017f9d3555b713d92128308c3d91c1d28fbfb86760a932c67ef33eb6506589cb65c298999a9401600655610ec4565b819291549060031b9189831b921b1916179055858752600760205283872060017fffffffffffffffffffffffffffffffffffffffffffffffffffffffffffffff00825416179055959493610819565b60248760418a7f4e487b7100000000000000000000000000000000000000000000000000000000835252fd5b60648660208551917f08c379a0000000000000000000000000000000000000000000000000000000008352820152601160248201527f5468726573686f6c64206d6178203935250000000000000000000000000000006044820152fd5b5082346104e95760206003193601126104e957610120928273ffffffffffffffffffffffffffffffffffffffff9182610a19610f42565b16815260036020522090808254169360018301549360028401549060ff60038601549186015416916005860154936006870154956008600789015498015416978151998a5260208a015288015260608701521515608086015260a085015260c084015260e0830152610100820152f35b5034610400578060031936011261040057610aa2610f6a565b903373ffffffffffffffffffffffffffffffffffffffff831603610acc5750610528919235611127565b8390517f6697b232000000000000000000000000000000000000000000000000000000008152fd5b508290346104e957806003193601126104e9576105289135610b196001610512610f6a565b61107d565b5034610400578160031936011261040057602090517f55435dd261a4b9b3364963f7738a7a662ad9c84396d64be3365284bb7f0a50418152f35b5082346104e95760206003193601126104e957816020936001923581528085522001549051908152f35b5082346104e957816003193601126104e957610b9c610f42565b602435918480528460205283852033865260205260ff848620541615610c5b575073ffffffffffffffffffffffffffffffffffffffff90610bdb61138b565b16918284526003602052600281852001610bfd8382546101928282101561127c565b90558380838015610c51575b8280929181923390f115610c48577fcf3e2ed8c545de2d902ea60194df2faa514dad26e69937899d836f775b6973a89160209151908152a26001805580f35b513d84823e3d90fd5b6108fc9150610c09565b604490858551917fe2517d3f00000000000000000000000000000000000000000000000000000000835233908301526024820152fd5b509034610653576020908160031936011261065357829073ffffffffffffffffffffffffffffffffffffffff610cc5610f42565b16815260058352818120908251808584549182815201908194845286842090845b818110610d375750505081610cfc91038261131b565b83519485948186019282875251809352850193925b828110610d2057505050500390f35b835185528695509381019392810192600101610d11565b825484529288019260019283019201610ce6565b50346104005780600319360112610400577f16eb9a905f8c49ab56188618326b7dd7d7011d5d4aa9e85032995fd03ba65a11610d85610f42565b9173ffffffffffffffffffffffffffffffffffffffff60243593610da7610fc4565b610db28515156111c8565b1692838552600360205260018286200190808254925582519182526020820152a280f35b5082346104e95760206003193601126104e9573591600654831015610653575073ffffffffffffffffffffffffffffffffffffffff610e16602093610ec4565b92905490519260031b1c168152f35b839085346104e95760206003193601126104e957357fffffffff0000000000000000000000000000000000000000000000000000000081168091036104e957602092507f7965db0b000000000000000000000000000000000000000000000000000000008114908115610e9a575b5015158152f35b7f01ffc9a70000000000000000000000000000000000000000000000000000000091501483610e93565b600654811015610efb5760066000527ff652222313e28459528d920b65115c16c04f3efc82aaedc97be59f3f377c0d3f0190600090565b7f4e487b7100000000000000000000000000000000000000000000000000000000600052603260045260246000fd5b8054821015610efb5760005260206000200190600090565b6004359073ffffffffffffffffffffffffffffffffffffffff82168203610f6557565b600080fd5b6024359073ffffffffffffffffffffffffffffffffffffffff82168203610f6557565b6003196060910112610f655760043573ffffffffffffffffffffffffffffffffffffffff81168103610f6557906024359060443590565b3360009081527f8a40f0b47fdc2a0ce293b772acfc7508c8315a4d462786c1adc3a56f92ca2d0560205260409020547f55435dd261a4b9b3364963f7738a7a662ad9c84396d64be3365284bb7f0a50419060ff16156110205750565b604490604051907fe2517d3f0000000000000000000000000000000000000000000000000000000082523360048301526024820152fd5b80600052600060205260406000203360005260205260ff60406000205416156110205750565b906000918083528260205273ffffffffffffffffffffffffffffffffffffffff6040842092169182845260205260ff604084205416156000146111225780835282602052604083208284526020526040832060017fffffffffffffffffffffffffffffffffffffffffffffffffffffffffffffff008254161790557f2f8788117e7eff1d82e926ec794901d17c78024a50270940304540a733656f0d339380a4600190565b505090565b906000918083528260205273ffffffffffffffffffffffffffffffffffffffff6040842092169182845260205260ff604084205416600014611122578083528260205260408320828452602052604083207fffffffffffffffffffffffffffffffffffffffffffffffffffffffffffffff0081541690557ff6391f5c32d9c69d2a47ea670b442974b53935d1edc7fd64eb21e047a839171b339380a4600190565b156111cf57565b60646040517f08c379a000000000000000000000000000000000000000000000000000000000815260206004820152601160248201527f466c6f6f72206d757374206265203e20300000000000000000000000000000006044820152fd5b9190820180921161123a57565b7f4e487b7100000000000000000000000000000000000000000000000000000000600052601160045260246000fd5b8181029291811591840414171561123a57565b1561128357565b60646040517f08c379a000000000000000000000000000000000000000000000000000000000815260206004820152601460248201527f496e73756666696369656e7420726573657276650000000000000000000000006044820152fd5b9190820391821161123a57565b7fffffffffffffffffffffffffffffffffffffffffffffffffffffffffffffffff811461123a5760010190565b90601f7fffffffffffffffffffffffffffffffffffffffffffffffffffffffffffffffe0910116810190811067ffffffffffffffff82111761135c57604052565b7f4e487b7100000000000000000000000000000000000000000000000000000000600052604160045260246000fd5b60026001541461139c576002600155565b60046040517f3ee5aeb5000000000000000000000000000000000000000000000000000000008152fd5b73ffffffffffffffffffffffffffffffffffffffff809116600052600360205260406000209060405191610120830183811067ffffffffffffffff82111761135c5760405281815416835260018101549182602085015260028201549081604086015260038301549485606082015261010060ff60048601541615926008841596876080860152600581015460a0860152600681015460c0860152600781015460e086015201541691015291611497575b5061148f576127109161148991611269565b04101590565b505050600090565b9050153861147756fea2646970667358221220b75984fbff47b7fd94ff4ab4d27200dd0777cc91b827bef0335507522915a5df64736f6c634300081400332f8788117e7eff1d82e926ec794901d17c78024a50270940304540a733656f0d",
  "linkReferences": {},
  "deployedLinkReferences": {}
}