{
  "_format": "hh-sol-artifact-1",
  "contractName": "SportsCardNFT",
  "sourceName": "contracts/layer5/SportsCardNFT.sol",
  "abi": [
    {
      "inputs": [
        {
          "internalType": "address",
          "name": "_treasury",
          "type": "address"
        }
      ],
      "stateMutability": "nonpayable",
      "type": "constructor"
    },
    {
      "inputs": [],
      "name": "AccessControlBadConfirmation",
      "type": "error"
    },
    {
      "inputs": [
        {
          "internalType": "address",
          "name": "account",
          "type": "address"
        },
        {
          "internalType": "bytes32",
          "name": "neededRole",
          "type": "bytes32"
        }
      ],
      "name": "AccessControlUnauthorizedAccount",
      "type": "error"
    },
    {
      "inputs": [
        {
          "internalType": "address",
          "name": "sender",
          "type": "address"
        },
        {
          "internalType": "uint256",
          "name": "balance",
          "type": "uint256"
        },
        {
          "internalType": "uint256",
          "name": "needed",
          "type": "uint256"
        },
        {
          "internalType": "uint256",
          "name": "tokenId",
          "type": "uint256"
        }
      ],
      "name": "ERC1155InsufficientBalance",
      "type": "error"
    },
    {
      "inputs": [
        {
          "internalType": "address",
          "name": "approver",
          "type": "address"
        }
      ],
      "name": "ERC1155InvalidApprover",
      "type": "error"
    },
    {
      "inputs": [
        {
          "internalType": "uint256",
          "name": "idsLength",
          "type": "uint256"
        },
        {
          "internalType": "uint256",
          "name": "valuesLength",
          "type": "uint256"
        }
      ],
      "name": "ERC1155InvalidArrayLength",
      "type": "error"
    },
    {
      "inputs": [
        {
          "internalType": "address",
          "name": "operator",
          "type": "address"
        }
      ],
      "name": "ERC1155InvalidOperator",
      "type": "error"
    },
    {
      "inputs": [
        {
          "internalType": "address",
          "name": "receiver",
          "type": "address"
        }
      ],
      "name": "ERC1155InvalidReceiver",
      "type": "error"
    },
    {
      "inputs": [
        {
          "internalType": "address",
          "name": "sender",
          "type": "address"
        }
      ],
      "name": "ERC1155InvalidSender",
      "type": "error"
    },
    {
      "inputs": [
        {
          "internalType": "address",
          "name": "operator",
          "type": "address"
        },
        {
          "internalType": "address",
          "name": "owner",
          "type": "address"
        }
      ],
      "name": "ERC1155MissingApprovalForAll",
      "type": "error"
    },
    {
      "inputs": [],
      "name": "ReentrancyGuardReentrantCall",
      "type": "error"
    },
    {
      "anonymous": false,
      "inputs": [
        {
          "indexed": true,
          "internalType": "address",
          "name": "account",
          "type": "address"
        },
        {
          "indexed": true,
          "internalType": "address",
          "name": "operator",
          "type": "address"
        },
        {
          "indexed": false,
          "internalType": "bool",
          "name": "approved",
          "type": "bool"
        }
      ],
      "name": "ApprovalForAll",
      "type": "event"
    },
    {
      "anonymous": false,
      "inputs": [
        {
          "indexed": true,
          "internalType": "uint256",
          "name": "cardId",
          "type": "uint256"
        },
        {
          "indexed": true,
          "internalType": "uint256",
          "name": "athleteId",
          "type": "uint256"
        },
        {
          "indexed": false,
          "internalType": "enum SportsCardNFT.CardRarity",
          "name": "rarity",
          "type": "uint8"
        },
        {
          "indexed": false,
          "internalType": "uint256",
          "name": "maxSupply",
          "type": "uint256"
        }
      ],
      "name": "CardCreated",
      "type": "event"
    },
    {
      "anonymous": false,
      "inputs": [
        {
          "indexed": true,
          "internalType": "uint256",
          "name": "cardId",
          "type": "uint256"
        },
        {
          "indexed": true,
          "internalType": "address",
          "name": "to",
          "type": "address"
        },
        {
          "indexed": false,
          "internalType": "uint256",
          "name": "mintNumber",
          "type": "uint256"
        }
      ],
      "name": "CardMinted",
      "type": "event"
    },
    {
      "anonymous": false,
      "inputs": [
        {
          "indexed": true,
          "internalType": "uint256",
          "name": "cardId",
          "type": "uint256"
        }
      ],
      "name": "CardRetired",
      "type": "event"
    },
    {
      "anonymous": false,
      "inputs": [
        {
          "indexed": true,
          "internalType": "bytes32",
          "name": "role",
          "type": "bytes32"
        },
        {
          "indexed": true,
          "internalType": "bytes32",
          "name": "previousAdminRole",
          "type": "bytes32"
        },
        {
          "indexed": true,
          "internalType": "bytes32",
          "name": "newAdminRole",
          "type": "bytes32"
        }
      ],
      "name": "RoleAdminChanged",
      "type": "event"
    },
    {
      "anonymous": false,
      "inputs": [
        {
          "indexed": true,
          "internalType": "bytes32",
          "name": "role",
          "type": "bytes32"
        },
        {
          "indexed": true,
          "internalType": "address",
          "name": "account",
          "type": "address"
        },
        {
          "indexed": true,
          "internalType": "address",
          "name": "sender",
          "type": "address"
        }
      ],
      "name": "RoleGranted",
      "type": "event"
    },
    {
      "anonymous": false,
      "inputs": [
        {
          "indexed": true,
          "internalType": "bytes32",
          "name": "role",
          "type": "bytes32"
        },
        {
          "indexed": true,
          "internalType": "address",
          "name": "account",
          "type": "address"
        },
        {
          "indexed": true,
          "internalType": "address",
          "name": "sender",
          "type": "address"
        }
      ],
      "name": "RoleRevoked",
      "type": "event"
    },
    {
      "anonymous": false,
      "inputs": [
        {
          "indexed": false,
          "internalType": "uint256",
          "name": "newSeason",
          "type": "uint256"
        }
      ],
      "name": "SeasonAdvanced",
      "type": "event"
    },
    {
      "anonymous": false,
      "inputs": [
        {
          "indexed": true,
          "internalType": "address",
          "name": "operator",
          "type": "address"
        },
        {
          "indexed": true,
          "internalType": "address",
          "name": "from",
          "type": "address"
        },
        {
          "indexed": true,
          "internalType": "address",
          "name": "to",
          "type": "address"
        },
        {
          "indexed": false,
          "internalType": "uint256[]",
          "name": "ids",
          "type": "uint256[]"
        },
        {
          "indexed": false,
          "internalType": "uint256[]",
          "name": "values",
          "type": "uint256[]"
        }
      ],
      "name": "TransferBatch",
      "type": "event"
    },
    {
      "anonymous": false,
      "inputs": [
        {
          "indexed": true,
          "internalType": "address",
          "name": "operator",
          "type": "address"
        },
        {
          "indexed": true,
          "internalType": "address",
          "name": "from",
          "type": "address"
        },
        {
          "indexed": true,
          "internalType": "address",
          "name": "to",
          "type": "address"
        },
        {
          "indexed": false,
          "internalType": "uint256",
          "name": "id",
          "type": "uint256"
        },
        {
          "indexed": false,
          "internalType": "uint256",
          "name": "value",
          "type": "uint256"
        }
      ],
      "name": "TransferSingle",
      "type": "event"
    },
    {
      "anonymous": false,
      "inputs": [
        {
          "indexed": false,
          "internalType": "string",
          "name": "value",
          "type": "string"
        },
        {
          "indexed": true,
          "internalType": "uint256",
          "name": "id",
          "type": "uint256"
        }
      ],
      "name": "URI",
      "type": "event"
    },
    {
      "inputs": [],
      "name": "DEFAULT_ADMIN_ROLE",
      "outputs": [
        {
          "internalType": "bytes32",
          "name": "",
          "type": "bytes32"
        }
      ],
      "stateMutability": "view",
      "type": "function"
    },
    {
      "inputs": [],
      "name": "MINTER_ROLE",
      "outputs": [
        {
          "internalType": "bytes32",
          "name": "",
          "type": "bytes32"
        }
      ],
      "stateMutability": "view",
      "type": "function"
    },
    {
      "inputs": [],
      "name": "advanceSeason",
      "outputs": [],
      "stateMutability": "nonpayable",
      "type": "function"
    },
    {
      "inputs": [
        {
          "internalType": "uint256",
          "name": "",
          "type": "uint256"
        },
        {
          "internalType": "uint256",
          "name": "",
          "type": "uint256"
        }
      ],
      "name": "athleteCards",
      "outputs": [
        {
          "internalType": "uint256",
          "name": "",
          "type": "uint256"
        }
      ],
      "stateMutability": "view",
      "type": "function"
    },
    {
      "inputs": [
        {
          "internalType": "address",
          "name": "account",
          "type": "address"
        },
        {
          "internalType": "uint256",
          "name": "id",
          "type": "uint256"
        }
      ],
      "name": "balanceOf",
      "outputs": [
        {
          "internalType": "uint256",
          "name": "",
          "type": "uint256"
        }
      ],
      "stateMutability": "view",
      "type": "function"
    },
    {
      "inputs": [
        {
          "internalType": "address[]",
          "name": "accounts",
          "type": "address[]"
        },
        {
          "internalType": "uint256[]",
          "name": "ids",
          "type": "uint256[]"
        }
      ],
      "name": "balanceOfBatch",
      "outputs": [
        {
          "internalType": "uint256[]",
          "name": "",
          "type": "uint256[]"
        }
      ],
      "stateMutability": "view",
      "type": "function"
    },
    {
      "inputs": [
        {
          "internalType": "uint256",
          "name": "",
          "type": "uint256"
        },
        {
          "internalType": "address",
          "name": "",
          "type": "address"
        }
      ],
      "name": "cardMintNumber",
      "outputs": [
        {
          "internalType": "uint256",
          "name": "",
          "type": "uint256"
        }
      ],
      "stateMutability": "view",
      "type": "function"
    },
    {
      "inputs": [
        {
          "internalType": "uint256",
          "name": "",
          "type": "uint256"
        }
      ],
      "name": "cardMintPrice",
      "outputs": [
        {
          "internalType": "uint256",
          "name": "",
          "type": "uint256"
        }
      ],
      "stateMutability": "view",
      "type": "function"
    },
    {
      "inputs": [
        {
          "internalType": "uint256",
          "name": "",
          "type": "uint256"
        }
      ],
      "name": "cards",
      "outputs": [
        {
          "internalType": "uint256",
          "name": "cardId",
          "type": "uint256"
        },
        {
          "internalType": "uint256",
          "name": "athleteId",
          "type": "uint256"
        },
        {
          "internalType": "string",
          "name": "athleteName",
          "type": "string"
        },
        {
          "internalType": "enum SportsCardNFT.CardRarity",
          "name": "rarity",
          "type": "uint8"
        },
        {
          "internalType": "enum SportsCardNFT.CardType",
          "name": "cardType",
          "type": "uint8"
        },
        {
          "internalType": "uint256",
          "name": "season",
          "type": "uint256"
        },
        {
          "internalType": "uint256",
          "name": "totalMinted",
          "type": "uint256"
        },
        {
          "internalType": "uint256",
          "name": "currentMinted",
          "type": "uint256"
        },
        {
          "components": [
            {
              "internalType": "uint256",
              "name": "strength",
              "type": "uint256"
            },
            {
              "internalType": "uint256",
              "name": "speed",
              "type": "uint256"
            },
            {
              "internalType": "uint256",
              "name": "endurance",
              "type": "uint256"
            },
            {
              "internalType": "uint256",
              "name": "technique",
              "type": "uint256"
            },
            {
              "internalType": "uint256",
              "name": "wins",
              "type": "uint256"
            },
            {
              "internalType": "uint256",
              "name": "losses",
              "type": "uint256"
            },
            {
              "internalType": "uint256",
              "name": "knockouts",
              "type": "uint256"
            }
          ],
          "internalType": "struct SportsCardNFT.CardStats",
          "name": "snapshotStats",
          "type": "tuple"
        },
        {
          "internalType": "uint256",
          "name": "createdAt",
          "type": "uint256"
        },
        {
          "internalType": "bool",
          "name": "isActive",
          "type": "bool"
        },
        {
          "internalType": "string",
          "name": "metadataURI",
          "type": "string"
        }
      ],
      "stateMutability": "view",
      "type": "function"
    },
    {
      "inputs": [
        {
          "internalType": "uint256",
          "name": "athleteId",
          "type": "uint256"
        },
        {
          "internalType": "string",
          "name": "athleteName",
          "type": "string"
        },
        {
          "internalType": "enum SportsCardNFT.CardRarity",
          "name": "rarity",
          "type": "uint8"
        },
        {
          "internalType": "enum SportsCardNFT.CardType",
          "name": "cardType",
          "type": "uint8"
        },
        {
          "components": [
            {
              "internalType": "uint256",
              "name": "strength",
              "type": "uint256"
            },
            {
              "internalType": "uint256",
              "name": "speed",
              "type": "uint256"
            },
            {
              "internalType": "uint256",
              "name": "endurance",
              "type": "uint256"
            },
            {
              "internalType": "uint256",
              "name": "technique",
              "type": "uint256"
            },
            {
              "internalType": "uint256",
              "name": "wins",
              "type": "uint256"
            },
            {
              "internalType": "uint256",
              "name": "losses",
              "type": "uint256"
            },
            {
              "internalType": "uint256",
              "name": "knockouts",
              "type": "uint256"
            }
          ],
          "internalType": "struct SportsCardNFT.CardStats",
          "name": "snapshotStats",
          "type": "tuple"
        },
        {
          "internalType": "uint256",
          "name": "mintPrice_",
          "type": "uint256"
        },
        {
          "internalType": "string",
          "name": "metadataURI_",
          "type": "string"
        }
      ],
      "name": "createCard",
      "outputs": [
        {
          "internalType": "uint256",
          "name": "",
          "type": "uint256"
        }
      ],
      "stateMutability": "nonpayable",
      "type": "function"
    },
    {
      "inputs": [],
      "name": "currentSeason",
      "outputs": [
        {
          "internalType": "uint256",
          "name": "",
          "type": "uint256"
        }
      ],
      "stateMutability": "view",
      "type": "function"
    },
    {
      "inputs": [
        {
          "internalType": "uint256",
          "name": "athleteId",
          "type": "uint256"
        }
      ],
      "name": "getAthleteCards",
      "outputs": [
        {
          "internalType": "uint256[]",
          "name": "",
          "type": "uint256[]"
        }
      ],
      "stateMutability": "view",
      "type": "function"
    },
    {
      "inputs": [
        {
          "internalType": "uint256",
          "name": "cardId",
          "type": "uint256"
        },
        {
          "internalType": "address",
          "name": "owner",
          "type": "address"
        }
      ],
      "name": "getMintNumber",
      "outputs": [
        {
          "internalType": "uint256",
          "name": "",
          "type": "uint256"
        }
      ],
      "stateMutability": "view",
      "type": "function"
    },
    {
      "inputs": [
        {
          "internalType": "bytes32",
          "name": "role",
          "type": "bytes32"
        }
      ],
      "name": "getRoleAdmin",
      "outputs": [
        {
          "internalType": "bytes32",
          "name": "",
          "type": "bytes32"
        }
      ],
      "stateMutability": "view",
      "type": "function"
    },
    {
      "inputs": [
        {
          "internalType": "uint256",
          "name": "cardId",
          "type": "uint256"
        },
        {
          "internalType": "uint256",
          "name": "mintNumber",
          "type": "uint256"
        }
      ],
      "name": "getValueMultiplier",
      "outputs": [
        {
          "internalType": "uint256",
          "name": "",
          "type": "uint256"
        }
      ],
      "stateMutability": "view",
      "type": "function"
    },
    {
      "inputs": [
        {
          "internalType": "bytes32",
          "name": "role",
          "type": "bytes32"
        },
        {
          "internalType": "address",
          "name": "account",
          "type": "address"
        }
      ],
      "name": "grantRole",
      "outputs": [],
      "stateMutability": "nonpayable",
      "type": "function"
    },
    {
      "inputs": [
        {
          "internalType": "bytes32",
          "name": "role",
          "type": "bytes32"
        },
        {
          "internalType": "address",
          "name": "account",
          "type": "address"
        }
      ],
      "name": "hasRole",
      "outputs": [
        {
          "internalType": "bool",
          "name": "",
          "type": "bool"
        }
      ],
      "stateMutability": "view",
      "type": "function"
    },
    {
      "inputs": [
        {
          "internalType": "address",
          "name": "account",
          "type": "address"
        },
        {
          "internalType": "address",
          "name": "operator",
          "type": "address"
        }
      ],
      "name": "isApprovedForAll",
      "outputs": [
        {
          "internalType": "bool",
          "name": "",
          "type": "bool"
        }
      ],
      "stateMutability": "view",
      "type": "function"
    },
    {
      "inputs": [
        {
          "internalType": "enum SportsCardNFT.CardRarity",
          "name": "",
          "type": "uint8"
        }
      ],
      "name": "maxSupplyByRarity",
      "outputs": [
        {
          "internalType": "uint256",
          "name": "",
          "type": "uint256"
        }
      ],
      "stateMutability": "view",
      "type": "function"
    },
    {
      "inputs": [
        {
          "internalType": "uint256",
          "name": "cardId",
          "type": "uint256"
        },
        {
          "internalType": "uint256",
          "name": "quantity",
          "type": "uint256"
        }
      ],
      "name": "mintCard",
      "outputs": [],
      "stateMutability": "payable",
      "type": "function"
    },
    {
      "inputs": [
        {
          "internalType": "uint256",
          "name": "",
          "type": "uint256"
        },
        {
          "internalType": "uint256",
          "name": "",
          "type": "uint256"
        }
      ],
      "name": "mintNumberOwner",
      "outputs": [
        {
          "internalType": "address",
          "name": "",
          "type": "address"
        }
      ],
      "stateMutability": "view",
      "type": "function"
    },
    {
      "inputs": [],
      "name": "protocolFeePercent",
      "outputs": [
        {
          "internalType": "uint256",
          "name": "",
          "type": "uint256"
        }
      ],
      "stateMutability": "view",
      "type": "function"
    },
    {
      "inputs": [
        {
          "internalType": "bytes32",
          "name": "role",
          "type": "bytes32"
        },
        {
          "internalType": "address",
          "name": "callerConfirmation",
          "type": "address"
        }
      ],
      "name": "renounceRole",
      "outputs": [],
      "stateMutability": "nonpayable",
      "type": "function"
    },
    {
      "inputs": [
        {
          "internalType": "uint256",
          "name": "cardId",
          "type": "uint256"
        }
      ],
      "name": "retireCard",
      "outputs": [],
      "stateMutability": "nonpayable",
      "type": "function"
    },
    {
      "inputs": [
        {
          "internalType": "bytes32",
          "name": "role",
          "type": "bytes32"
        },
        {
          "internalType": "address",
          "name": "account",
          "type": "address"
        }
      ],
      "name": "revokeRole",
      "outputs": [],
      "stateMutability": "nonpayable",
      "type": "function"
    },
    {
      "inputs": [
        {
          "internalType": "address",
          "name": "from",
          "type": "address"
        },
        {
          "internalType": "address",
          "name": "to",
          "type": "address"
        },
        {
          "internalType": "uint256[]",
          "name": "ids",
          "type": "uint256[]"
        },
        {
          "internalType": "uint256[]",
          "name": "values",
          "type": "uint256[]"
        },
        {
          "internalType": "bytes",
          "name": "data",
          "type": "bytes"
        }
      ],
      "name": "safeBatchTransferFrom",
      "outputs": [],
      "stateMutability": "nonpayable",
      "type": "function"
    },
    {
      "inputs": [
        {
          "internalType": "address",
          "name": "from",
          "type": "address"
        },
        {
          "internalType": "address",
          "name": "to",
          "type": "address"
        },
        {
          "internalType": "uint256",
          "name": "id",
          "type": "uint256"
        },
        {
          "internalType": "uint256",
          "name": "value",
          "type": "uint256"
        },
        {
          "internalType": "bytes",
          "name": "data",
          "type": "bytes"
        }
      ],
      "name": "safeTransferFrom",
      "outputs": [],
      "stateMutability": "nonpayable",
      "type": "function"
    },
    {
      "inputs": [
        {
          "internalType": "address",
          "name": "operator",
          "type": "address"
        },
        {
          "internalType": "bool",
          "name": "approved",
          "type": "bool"
        }
      ],
      "name": "setApprovalForAll",
      "outputs": [],
      "stateMutability": "nonpayable",
      "type": "function"
    },
    {
      "inputs": [
        {
          "internalType": "enum SportsCardNFT.CardRarity",
          "name": "rarity",
          "type": "uint8"
        },
        {
          "internalType": "uint256",
          "name": "maxSupply",
          "type": "uint256"
        }
      ],
      "name": "setMaxSupplyForRarity",
      "outputs": [],
      "stateMutability": "nonpayable",
      "type": "function"
    },
    {
      "inputs": [
        {
          "internalType": "bytes4",
          "name": "interfaceId",
          "type": "bytes4"
        }
      ],
      "name": "supportsInterface",
      "outputs": [
        {
          "internalType": "bool",
          "name": "",
          "type": "bool"
        }
      ],
      "stateMutability": "view",
      "type": "function"
    },
    {
      "inputs": [],
      "name": "totalCardsCreated",
      "outputs": [
        {
          "internalType": "uint256",
          "name": "",
          "type": "uint256"
        }
      ],
      "stateMutability": "view",
      "type": "function"
    },
    {
      "inputs": [],
      "name": "treasury",
      "outputs": [
        {
          "internalType": "address",
          "name": "",
          "type": "address"
        }
      ],
      "stateMutability": "view",
      "type": "function"
    },
    {
      "inputs": [
        {
          "internalType": "uint256",
          "name": "cardId",
          "type": "uint256"
        }
      ],
      "name": "uri",
      "outputs": [
        {
          "internalType": "string",
          "name": "",
          "type": "string"
        }
      ],
      "stateMutability": "view",
      "type": "function"
    }
  ],
  "bytecode": "0x608034620001ab576001600160401b0390601f62002dd438819003918201601f191683019291908484118385101762000195578160209284926040968752833981010312620001ab57516001600160a01b0381169290839003620001ab578151906020820190811182821017620001955782526000809152600254926001938481811c911680156200018a575b60208210146200017657601f81116200012c575b5081848492600a946002558160045560fa600d5581600e5560018060a01b0319600c541617600c55620000d333620001b0565b50620000df3362000231565b50818052600b60205261271083832055815261138882822055600281526103e882822055600381526101f4828220556004815260648282205560058152205551612adf9081620002d58239f35b60028352601f0160051c7f405787fa12a823e0f2b7631cc41b3ba8828b3321ca811111fa75cd3aa3bb5ace908101905b8181106200016b5750620000a0565b83815585016200015c565b634e487b7160e01b83526022600452602483fd5b90607f16906200008c565b634e487b7160e01b600052604160045260246000fd5b600080fd5b6001600160a01b031660008181527f3617319a054d772f909f7c479a2cebe5066e836a939412e32403c99029b92eff602052604081205490919060ff166200022d5781805260036020526040822081835260205260408220600160ff19825416179055339160008051602062002db48339815191528180a4600190565b5090565b6001600160a01b031660008181527f5562e70da342db81569f3094d36be279beaca7ad8e08f434ea188e79d2bfe10c60205260408120549091907f9f2df0fed2c77648de5860a4cc508cd0818c85b8b8a1ab4ceeef8d981c8956a69060ff16620002cf5780835260036020526040832082845260205260408320600160ff1982541617905560008051602062002db4833981519152339380a4600190565b50509056fe6080604052600436101561001257600080fd5b60003560e01c80623f3aae14610220578062fdd58e1461021b57806301ffc9a7146102165780630e427f17146102115780630e89341c1461020c5780631eadd8ff14610207578063248a9ca3146102025780632eb2c2d6146101fd5780632f2ff15d146101f857806336568abe146101f35780634e1273f4146101ee57806354015274146101e957806356587b4c146101e457806361d027b3146101df5780638669a537146101da5780638dc10768146101d557806391d14854146101d057806393e65ad3146101cb578063a217fddf146101c6578063a22cb465146101c1578063a27aa6b9146101bc578063af70e2df1461018a578063bcb39621146101b7578063c7519de0146101b2578063d3bd30e8146101ad578063d5391393146101a8578063d547741f146101a3578063d6e6eb9f1461019e578063e45c873114610199578063e5841b1b14610194578063e985e9c51461018f578063e99c131b1461018a5763f242432a1461018557600080fd5b611647565b6113bb565b6115d7565b611599565b61153c565b61151e565b6114df565b6114a4565b61147b565b61142b565b61140d565b611351565b611260565b611244565b6111f0565b611190565b6110fd565b610e8a565b610e56565b610df9565b610d00565b610c3c565b610b88565b610b49565b61099e565b6107c6565b61077f565b6106ec565b610434565b61032f565b6102aa565b3461023e57600060031936011261023e576020600f54604051908152f35b600080fd5b6004359073ffffffffffffffffffffffffffffffffffffffff8216820361023e57565b6024359073ffffffffffffffffffffffffffffffffffffffff8216820361023e57565b359073ffffffffffffffffffffffffffffffffffffffff8216820361023e57565b3461023e57604060031936011261023e5760206102fc6102c8610243565b6024356000526000835260406000209073ffffffffffffffffffffffffffffffffffffffff16600052602052604060002090565b54604051908152f35b7fffffffff0000000000000000000000000000000000000000000000000000000081160361023e57565b3461023e57602060031936011261023e5760207fffffffff0000000000000000000000000000000000000000000000000000000060043561036f81610305565b167f7965db0b0000000000000000000000000000000000000000000000000000000081149081156103a6575b506040519015158152f35b7fd9b67a260000000000000000000000000000000000000000000000000000000081149150811561040a575b81156103e0575b503861039b565b7f01ffc9a700000000000000000000000000000000000000000000000000000000915014386103d9565b7f0e89341c00000000000000000000000000000000000000000000000000000000811491506103d2565b60408060031936011261023e5760043560243560026004541461066557600260045561046a826000526006602052604060002090565b61048061047b600f83015460ff1690565b6127c8565b61049f60068201916005610495858554611e98565b910154101561282d565b6104c86104c0836104ba86600052600a602052604060002090565b54612892565b3410156128a5565b60005b828110610568576104e684846104df611f6d565b913361290a565b60008080806105026104fa600d5434612892565b612710900490565b610540610527610527600c5473ffffffffffffffffffffffffffffffffffffffff1690565b73ffffffffffffffffffffffffffffffffffffffff1690565b82821561055f575bf11561055a576105586001600455565b005b611f61565b506108fc610548565b610660906105768354611b14565b808455806105b733610592896000526008602052604060002090565b9073ffffffffffffffffffffffffffffffffffffffff16600052602052604060002090565b55610623336105e3836105d48a6000526009602052604060002090565b90600052602052604060002090565b9073ffffffffffffffffffffffffffffffffffffffff167fffffffffffffffffffffffff0000000000000000000000000000000000000000825416179055565b857f5512ccc5417b7b25df15f8e42a5e8585c49487262769c781465944bebf993a6f8851806106583395829190602083019252565b0390a3611b14565b6104cb565b600483517f3ee5aeb5000000000000000000000000000000000000000000000000000000008152fd5b919082519283825260005b8481106106d85750507fffffffffffffffffffffffffffffffffffffffffffffffffffffffffffffffe0601f8460006020809697860101520116010190565b602081830181015184830182015201610699565b3461023e57602060031936011261023e57600435600052600660205261072f61071b6010604060002001610f09565b60405191829160208352602083019061068e565b0390f35b7f4e487b7100000000000000000000000000000000000000000000000000000000600052603260045260246000fd5b805482101561077a5760005260206000200190600090565b610733565b3461023e57604060031936011261023e5760243560043560005260076020526040600020805482101561023e576020916107b891610762565b90546040519160031b1c8152f35b3461023e57602060031936011261023e5760043560005260036020526020600160406000200154604051908152f35b7f4e487b7100000000000000000000000000000000000000000000000000000000600052604160045260246000fd5b60e0810190811067ffffffffffffffff82111761084057604052565b6107f5565b90601f7fffffffffffffffffffffffffffffffffffffffffffffffffffffffffffffffe0910116810190811067ffffffffffffffff82111761084057604052565b60405190610180820182811067ffffffffffffffff82111761084057604052565b67ffffffffffffffff81116108405760051b60200190565b81601f8201121561023e578035916108d6836108a7565b926108e46040519485610845565b808452602092838086019260051b82010192831161023e578301905b82821061090e575050505090565b81358152908301908301610900565b67ffffffffffffffff811161084057601f017fffffffffffffffffffffffffffffffffffffffffffffffffffffffffffffffe01660200190565b81601f8201121561023e5780359061096e8261091d565b9261097c6040519485610845565b8284526020838301011161023e57816000926020809301838601378301015290565b3461023e5760a060031936011261023e576109b7610243565b6109bf610266565b906044359167ffffffffffffffff9081841161023e576109e4600494369086016108bf565b9060643583811161023e576109fc90369087016108bf565b9260843590811161023e57610a149036908701610957565b9373ffffffffffffffffffffffffffffffffffffffff808216903382141580610b07575b610ab457831615610a835715610a52576105589550611c3b565b6024866000604051917f01a83514000000000000000000000000000000000000000000000000000000008352820152fd5b6024876000604051917f57f447ce000000000000000000000000000000000000000000000000000000008352820152fd5b604080517fe237d92200000000000000000000000000000000000000000000000000000000815233818b0190815273ffffffffffffffffffffffffffffffffffffffff8616602082015290918291010390fd5b5081600052600160205260ff610b413360406000209073ffffffffffffffffffffffffffffffffffffffff16600052602052604060002090565b541615610a38565b3461023e57604060031936011261023e57610558600435610b68610266565b90806000526003602052610b836001604060002001546118ec565b611925565b3461023e57604060031936011261023e57610ba1610266565b3373ffffffffffffffffffffffffffffffffffffffff821603610bca57610558906004356119ec565b60046040517f6697b232000000000000000000000000000000000000000000000000000000008152fd5b90815180825260208080930193019160005b828110610c14575050505090565b835185529381019392810192600101610c06565b906020610c39928181520190610bf4565b90565b3461023e57604060031936011261023e5760043567ffffffffffffffff80821161023e573660238301121561023e578160040135610c79816108a7565b92610c876040519485610845565b81845260209160248386019160051b8301019136831161023e57602401905b828210610cdf578560243586811161023e5761072f91610ccd610cd39236906004016108bf565b90611b5a565b60405191829182610c28565b838091610ceb84610289565b815201910190610ca6565b6006111561023e57565b3461023e576101a060031936011261023e5767ffffffffffffffff60243581811161023e57610d33903690600401610957565b90604435610d4081610cf6565b60643592610d4d84610cf6565b60e07fffffffffffffffffffffffffffffffffffffffffffffffffffffffffffffff7c36011261023e57604051610d8381610824565b608435815260a435602082015260c435604082015260e43560608201526101043560808201526101243560a08201526101443560c08201526101843593841161023e5761072f94610ddb610de9953690600401610957565b936101643593600435612354565b6040519081529081906020820190565b3461023e57602060031936011261023e57600435610e156117e7565b6000908082526006602052600f604083200160ff1981541690557f35d5ce5745e0c46bceaea6478c0b08564ff305be9791ac06a506ad2be7fc426b8280a280f35b3461023e57600060031936011261023e57602073ffffffffffffffffffffffffffffffffffffffff600c5416604051908152f35b3461023e57602060031936011261023e57600435600052600a6020526020604060002054604051908152f35b90600182811c92168015610eff575b6020831014610ed057565b7f4e487b7100000000000000000000000000000000000000000000000000000000600052602260045260246000fd5b91607f1691610ec5565b9060405191826000825492610f1d84610eb6565b908184526001948581169081600014610f8c5750600114610f49575b5050610f4792500383610845565b565b9093915060005260209081600020936000915b818310610f74575050610f4793508201013880610f39565b85548884018501529485019487945091830191610f5c565b9050610f4795506020935060ff1991501682840152151560051b8201013880610f39565b90604051610fbd81610824565b60c0600682948054845260018101546020850152600281015460408501526003810154606085015260048101546080850152600581015460a08501520154910152565b6006111561100a57565b7f4e487b7100000000000000000000000000000000000000000000000000000000600052602160045260246000fd5b98939a96919461106b6110ef999460c097610c399f9d99948d5260208d015260408c61024091829101528c019061068e565b9b61107581611000565b60608b015261108381611000565b60808a015260a08901528388015260e08701528051610100870152602081015161012087015260408101516101408701526060810151610160870152608081015161018087015260a08101516101a087015201516101c08501526101e084015261020083019015159052565b61022081840391015261068e565b3461023e57602060031936011261023e5760043560005260066020526040600020805461072f60018301549161113560028501610f09565b9360038101546004820154600583015460068401549061115760078601610fb0565b92600e860154946111786010611171600f8a015460ff1690565b9801610f09565b976040519b8c9b60ff808560081c169416928d611039565b3461023e57604060031936011261023e57602060ff6111e46111b0610266565b6004356000526003845260406000209073ffffffffffffffffffffffffffffffffffffffff16600052602052604060002090565b54166040519015158152f35b3461023e57600060031936011261023e5761120961187c565b7f1bc4f0cbad4ca22b6b6e7129c43be309c4649d3b725806919820cdd37e2f41126020611237600e54611b14565b80600e55604051908152a1005b3461023e57600060031936011261023e57602060405160008152f35b3461023e57604060031936011261023e57611279610243565b602435908115159081830361023e5773ffffffffffffffffffffffffffffffffffffffff8116928315611320576112e06112f29233600052600160205260406000209073ffffffffffffffffffffffffffffffffffffffff16600052602052604060002090565b9060ff60ff1983541691151516179055565b6040519081527f17307eab39ab6107e8899845ad3d59bd9653f200f220920489ca2b5937696c3160203392a3005b60246040517fced3e10000000000000000000000000000000000000000000000000000000000815260006004820152fd5b3461023e5760208060031936011261023e5760043560005260078152604060002090604051908181845491828152019360005281600020916000905b8282106113a45761072f85610cd381890382610845565b83548652948501946001938401939091019061138d565b3461023e57604060031936011261023e5760206102fc6113d9610266565b6004356000526008835260406000209073ffffffffffffffffffffffffffffffffffffffff16600052602052604060002090565b3461023e57600060031936011261023e576020600e54604051908152f35b3461023e57604060031936011261023e5760043560005260096020526040600020602435600052602052602073ffffffffffffffffffffffffffffffffffffffff60406000205416604051908152f35b3461023e57604060031936011261023e57602061149c602435600435612a5d565b604051908152f35b3461023e57600060031936011261023e5760206040517f9f2df0fed2c77648de5860a4cc508cd0818c85b8b8a1ab4ceeef8d981c8956a68152f35b3461023e57604060031936011261023e576105586004356114fe610266565b908060005260036020526115196001604060002001546118ec565b6119ec565b3461023e57600060031936011261023e576020600d54604051908152f35b3461023e57604060031936011261023e5760043561155981610cf6565b61156161187c565b61156a81611000565b600052600b602052602435604060002055600080f35b61158981611000565b600052600b602052604060002090565b3461023e57602060031936011261023e576004356115b681610cf6565b6115bf81611000565b600052600b6020526020604060002054604051908152f35b3461023e57604060031936011261023e57602060ff6111e46115f7610243565b73ffffffffffffffffffffffffffffffffffffffff611614610266565b91166000526001845260406000209073ffffffffffffffffffffffffffffffffffffffff16600052602052604060002090565b3461023e5760a060031936011261023e57611660610243565b611668610266565b60843567ffffffffffffffff811161023e57611688903690600401610957565b9073ffffffffffffffffffffffffffffffffffffffff8084169033821415806117a5575b6117585782161561172757156116f657610558926116ee6064356044359160405192600184526020840152604083019160018352606084015260808301604052565b929091611c3b565b60246040517f01a8351400000000000000000000000000000000000000000000000000000000815260006004820152fd5b60246040517f57f447ce00000000000000000000000000000000000000000000000000000000815260006004820152fd5b6040517fe237d92200000000000000000000000000000000000000000000000000000000815233600482015273ffffffffffffffffffffffffffffffffffffffff86166024820152604490fd5b5081600052600160205260ff6117df3360406000209073ffffffffffffffffffffffffffffffffffffffff16600052602052604060002090565b5416156116ac565b3360009081527f5562e70da342db81569f3094d36be279beaca7ad8e08f434ea188e79d2bfe10c602052604090207f9f2df0fed2c77648de5860a4cc508cd0818c85b8b8a1ab4ceeef8d981c8956a69060ff905b5416156118455750565b604490604051907fe2517d3f0000000000000000000000000000000000000000000000000000000082523360048301526024820152fd5b3360009081527f3617319a054d772f909f7c479a2cebe5066e836a939412e32403c99029b92eff602052604090205460ff16156118b557565b60446040517fe2517d3f00000000000000000000000000000000000000000000000000000000815233600482015260006024820152fd5b80600052600360205260ff61183b3360406000209073ffffffffffffffffffffffffffffffffffffffff16600052602052604060002090565b600090808252600360205260ff61195f84604085209073ffffffffffffffffffffffffffffffffffffffff16600052602052604060002090565b54166119e657808252600360205261199a83604084209073ffffffffffffffffffffffffffffffffffffffff16600052602052604060002090565b600160ff198254161790557f2f8788117e7eff1d82e926ec794901d17c78024a50270940304540a733656f0d73ffffffffffffffffffffffffffffffffffffffff3394169280a4600190565b50905090565b600090808252600360205260ff611a2684604085209073ffffffffffffffffffffffffffffffffffffffff16600052602052604060002090565b5416156119e6578082526003602052611a6283604084209073ffffffffffffffffffffffffffffffffffffffff16600052602052604060002090565b60ff1981541690557ff6391f5c32d9c69d2a47ea670b442974b53935d1edc7fd64eb21e047a839171b73ffffffffffffffffffffffffffffffffffffffff3394169280a4600190565b611ae191600052600060205260406000209073ffffffffffffffffffffffffffffffffffffffff16600052602052604060002090565b5490565b7f4e487b7100000000000000000000000000000000000000000000000000000000600052601160045260246000fd5b7fffffffffffffffffffffffffffffffffffffffffffffffffffffffffffffffff8114611b415760010190565b611ae5565b805182101561077a5760209160051b010190565b91909180518351808203611c005750508051907fffffffffffffffffffffffffffffffffffffffffffffffffffffffffffffffe0611bb0611b9a846108a7565b93611ba86040519586610845565b8085526108a7565b0190602091368385013760005b8151811015611bf85780611be3611bf39260051b85808287010151918a01015190611aab565b611bed8287611b46565b52611b14565b611bbd565b509193505050565b6040517f5b05999100000000000000000000000000000000000000000000000000000000815260048101919091526024810191909152604490fd5b949190918151845190818103611c0057505060005b8251811015611d7c578060051b90602080838601015192870101518573ffffffffffffffffffffffffffffffffffffffff93848b16611ccf575b611c9d948216611ca2575b505050611b14565b611c50565b611cc591610592611cbd926000526000602052604060002090565b918254611e98565b9055388581611c95565b9192939050611cec8a610592846000526000602052604060002090565b54838110611d1f5791879184611c9d96959403611d178d610592856000526000602052604060002090565b559450611c8a565b6040517f03dee4c500000000000000000000000000000000000000000000000000000000815273ffffffffffffffffffffffffffffffffffffffff8c16600482015260248101919091526044810184905260648101839052608490fd5b509491939290936001855114600014611e415760208581015183820151604080519283529282015273ffffffffffffffffffffffffffffffffffffffff838116929086169133917fc3d58168c5ae7397731d063d5bbf3d657854427343f4c083240f7aacaa2d0f6291a45b73ffffffffffffffffffffffffffffffffffffffff8116611e0a575b5050505050565b8451600103611e3057602080611e269601519201519233612145565b3880808080611e03565b611e3c94919233612304565b611e26565b60405173ffffffffffffffffffffffffffffffffffffffff90818316918516907f4a39dc06d4c0dbc64b70af90fd698a233a518aa5d07e595d983b8c0526c8f7fb339180611e90888c83611ea5565b0390a4611de7565b91908201809211611b4157565b9091611ebc610c3993604084526040840190610bf4565b916020818403910152610bf4565b9081602091031261023e5751610c3981610305565b909260a09273ffffffffffffffffffffffffffffffffffffffff610c3996951683526000602084015260408301526060820152816080820152019061068e565b9192610c3995949160a09473ffffffffffffffffffffffffffffffffffffffff809216855216602084015260408301526060820152816080820152019061068e565b6040513d6000823e3d90fd5b604051906020820182811067ffffffffffffffff8211176108405760405260008252565b3d15611fbc573d90611fa28261091d565b91611fb06040519384610845565b82523d6000602084013e565b606090565b9293919093843b611fd3575050505050565b60209161200f60405194859384937ff23a6e61000000000000000000000000000000000000000000000000000000009889865260048601611edf565b0381600073ffffffffffffffffffffffffffffffffffffffff88165af160009181612115575b5061209a5782612043611f91565b8051919082612093576040517f57f447ce00000000000000000000000000000000000000000000000000000000815273ffffffffffffffffffffffffffffffffffffffff83166004820152602490fd5b6020915001fd5b7fffffffff0000000000000000000000000000000000000000000000000000000016036120cc57503880808080611e03565b6040517f57f447ce00000000000000000000000000000000000000000000000000000000815273ffffffffffffffffffffffffffffffffffffffff919091166004820152602490fd5b61213791925060203d811161213e575b61212f8183610845565b810190611eca565b9038612035565b503d612125565b939290949194853b61215a575b505050505050565b61219660209360405195869485947ff23a6e6100000000000000000000000000000000000000000000000000000000998a875260048701611f1f565b0381600073ffffffffffffffffffffffffffffffffffffffff88165af1600091816121fd575b506121ca5782612043611f91565b7fffffffff0000000000000000000000000000000000000000000000000000000016036120cc5750388080808080612152565b61221691925060203d811161213e5761212f8183610845565b90386121bc565b9261225a610c39959373ffffffffffffffffffffffffffffffffffffffff612268941686526000602087015260a0604087015260a0860190610bf4565b908482036060860152610bf4565b91608081840391015261068e565b9390610c39959361225a916122689473ffffffffffffffffffffffffffffffffffffffff809216885216602087015260a0604087015260a0860190610bf4565b9293919093843b6122c8575050505050565b60209161200f60405194859384937fbc197c8100000000000000000000000000000000000000000000000000000000988986526004860161221d565b939290949194853b61231857505050505050565b61219660209360405195869485947fbc197c8100000000000000000000000000000000000000000000000000000000998a875260048701612276565b946124267fbd3a8ec5166e6ccbc757c2f59af6a1a32cd6d89d0468359f2442488ddc977b3d9493926123846117e7565b61238f600554611b14565b98899761239b89600555565b6123a486611580565b54966123da600e54916123b5610886565b958c87528d602088015260408701526123d18960608801612480565b60808601612480565b60a08401528660c0840152600060e084015261010083015242610120830152612407610140830160019052565b610160820152612421876000526006602052604060002090565b61265d565b61243a85600052600a602052604060002090565b5561245884612453876000526007602052604060002090565b612757565b61246b612466600f54611b14565b600f55565b61247a604051928392836127ae565b0390a390565b61248982611000565b52565b90601f811161249a57505050565b600091825260208220906020601f850160051c830194106124d6575b601f0160051c01915b8281106124cb57505050565b8181556001016124bf565b90925082906124b6565b919091825167ffffffffffffffff811161084057612508816125028454610eb6565b8461248c565b602080601f8311600114612561575081929394600092612556575b50507fffffffffffffffffffffffffffffffffffffffffffffffffffffffffffffffff8260011b9260031b1c1916179055565b015190503880612523565b907fffffffffffffffffffffffffffffffffffffffffffffffffffffffffffffffe083169561259585600052602060002090565b926000905b8882106125f0575050836001959697106125b9575b505050811b019055565b01517fffffffffffffffffffffffffffffffffffffffffffffffffffffffffffffffff60f88460031b161c191690553880806125af565b8060018596829496860151815501950193019061259a565b9061261281611000565b60ff60ff198354169116179055565b9061262b81611000565b7fffffffffffffffffffffffffffffffffffffffffffffffffffffffffffff00ff61ff0083549260081b169116179055565b6010610160610f479380518455602081015160018501556126856040820151600286016124e0565b6126b7600385016126a3606084015161269d81611000565b82612608565b6080830151906126b282611000565b612621565b60a081810151600486015560c080830151600587015560e083015160068701556101008301518051600788015560208101516008880155604081015160098801556060810151600a8801556080810151600b88015591820151600c8701550151600d850155610120810151600e85015561274e612738610140830151151590565b600f86019060ff60ff1983541691151516179055565b015191016124e0565b8054680100000000000000008110156108405761277991600182018155610762565b7fffffffffffffffffffffffffffffffffffffffffffffffffffffffffffffffff829392549160031b92831b921b1916179055565b60408101939291602091906127c281611000565b81520152565b156127cf57565b60646040517f08c379a000000000000000000000000000000000000000000000000000000000815260206004820152600f60248201527f43617264206e6f742061637469766500000000000000000000000000000000006044820152fd5b1561283457565b60646040517f08c379a000000000000000000000000000000000000000000000000000000000815260206004820152601260248201527f45786365656473206d617820737570706c7900000000000000000000000000006044820152fd5b81810292918115918404141715611b4157565b156128ac57565b60646040517f08c379a000000000000000000000000000000000000000000000000000000000815260206004820152601460248201527f496e73756666696369656e74207061796d656e740000000000000000000000006044820152fd5b9092919273ffffffffffffffffffffffffffffffffffffffff82169384156117275761295360405192600184526020840152604083019160018352606084015260808301604052565b928151845190818103611c0057505060005b82518110156129aa57806129a59160051b61299e611cbd87610592602080868b010151958c010151946000526000602052604060002090565b9055611b14565b612965565b509291936001825114600014612a215760208281015184820151604080519283529282015260009133917fc3d58168c5ae7397731d063d5bbf3d657854427343f4c083240f7aacaa2d0f629190a45b8051600103612a175790602080610f47959301519101519133611fc1565b610f4793336122b6565b60006040517f4a39dc06d4c0dbc64b70af90fd698a233a518aa5d07e595d983b8c0526c8f7fb339180612a55888883611ea5565b0390a46129f9565b6000526006602052600560406000200154908115612aa25780820390828211611b4157610384808302928304149083141715611b41570460640180606411611b415790565b505060649056fea264697066735822122022a00b4bbeccfdf5e1e0f37d50b316a1352db537aca279df9db58a008ab8dd7e64736f6c634300081400332f8788117e7eff1d82e926ec794901d17c78024a50270940304540a733656f0d",
  "linkReferences": {},
  "deployedLinkReferences": {}
}