{
  "_format": "hh-sol-artifact-1",
  "contractName": "OANToken",
  "sourceName": "contracts/token/OANToken.sol",
  "abi": [
    {
      "inputs": [],
      "stateMutability": "nonpayable",
      "type": "constructor"
    },
    {
      "inputs": [],
      "name": "CheckpointUnorderedInsertion",
      "type": "error"
    },
    {
      "inputs": [],
      "name": "ECDSAInvalidSignature",
      "type": "error"
    },
    {
      "inputs": [
        {
          "internalType": "uint256",
          "name": "length",
          "type": "uint256"
        }
      ],
      "name": "ECDSAInvalidSignatureLength",
      "type": "error"
    },
    {
      "inputs": [
        {
          "internalType": "bytes32",
          "name": "s",
          "type": "bytes32"
        }
      ],
      "name": "ECDSAInvalidSignatureS",
      "type": "error"
    },
    {
      "inputs": [
        {
          "internalType": "uint256",
          "name": "increasedSupply",
          "type": "uint256"
        },
        {
          "internalType": "uint256",
          "name": "cap",
          "type": "uint256"
        }
      ],
      "name": "ERC20ExceededSafeSupply",
      "type": "error"
    },
    {
      "inputs": [
        {
          "internalType": "address",
          "name": "spender",
          "type": "address"
        },
        {
          "internalType": "uint256",
          "name": "allowance",
          "type": "uint256"
        },
        {
          "internalType": "uint256",
          "name": "needed",
          "type": "uint256"
        }
      ],
      "name": "ERC20InsufficientAllowance",
      "type": "error"
    },
    {
      "inputs": [
        {
          "internalType": "address",
          "name": "sender",
          "type": "address"
        },
        {
          "internalType": "uint256",
          "name": "balance",
          "type": "uint256"
        },
        {
          "internalType": "uint256",
          "name": "needed",
          "type": "uint256"
        }
      ],
      "name": "ERC20InsufficientBalance",
      "type": "error"
    },
    {
      "inputs": [
        {
          "internalType": "address",
          "name": "approver",
          "type": "address"
        }
      ],
      "name": "ERC20InvalidApprover",
      "type": "error"
    },
    {
      "inputs": [
        {
          "internalType": "address",
          "name": "receiver",
          "type": "address"
        }
      ],
      "name": "ERC20InvalidReceiver",
      "type": "error"
    },
    {
      "inputs": [
        {
          "internalType": "address",
          "name": "sender",
          "type": "address"
        }
      ],
      "name": "ERC20InvalidSender",
      "type": "error"
    },
    {
      "inputs": [
        {
          "internalType": "address",
          "name": "spender",
          "type": "address"
        }
      ],
      "name": "ERC20InvalidSpender",
      "type": "error"
    },
    {
      "inputs": [
        {
          "internalType": "uint256",
          "name": "deadline",
          "type": "uint256"
        }
      ],
      "name": "ERC2612ExpiredSignature",
      "type": "error"
    },
    {
      "inputs": [
        {
          "internalType": "address",
          "name": "signer",
          "type": "address"
        },
        {
          "internalType": "address",
          "name": "owner",
          "type": "address"
        }
      ],
      "name": "ERC2612InvalidSigner",
      "type": "error"
    },
    {
      "inputs": [
        {
          "internalType": "uint256",
          "name": "timepoint",
          "type": "uint256"
        },
        {
          "internalType": "uint48",
          "name": "clock",
          "type": "uint48"
        }
      ],
      "name": "ERC5805FutureLookup",
      "type": "error"
    },
    {
      "inputs": [],
      "name": "ERC6372InconsistentClock",
      "type": "error"
    },
    {
      "inputs": [
        {
          "internalType": "address",
          "name": "account",
          "type": "address"
        },
        {
          "internalType": "uint256",
          "name": "currentNonce",
          "type": "uint256"
        }
      ],
      "name": "InvalidAccountNonce",
      "type": "error"
    },
    {
      "inputs": [],
      "name": "InvalidShortString",
      "type": "error"
    },
    {
      "inputs": [
        {
          "internalType": "address",
          "name": "owner",
          "type": "address"
        }
      ],
      "name": "OwnableInvalidOwner",
      "type": "error"
    },
    {
      "inputs": [
        {
          "internalType": "address",
          "name": "account",
          "type": "address"
        }
      ],
      "name": "OwnableUnauthorizedAccount",
      "type": "error"
    },
    {
      "inputs": [
        {
          "internalType": "uint8",
          "name": "bits",
          "type": "uint8"
        },
        {
          "internalType": "uint256",
          "name": "value",
          "type": "uint256"
        }
      ],
      "name": "SafeCastOverflowedUintDowncast",
      "type": "error"
    },
    {
      "inputs": [
        {
          "internalType": "string",
          "name": "str",
          "type": "string"
        }
      ],
      "name": "StringTooLong",
      "type": "error"
    },
    {
      "inputs": [
        {
          "internalType": "uint256",
          "name": "expiry",
          "type": "uint256"
        }
      ],
      "name": "VotesExpiredSignature",
      "type": "error"
    },
    {
      "anonymous": false,
      "inputs": [
        {
          "indexed": true,
          "internalType": "address",
          "name": "owner",
          "type": "address"
        },
        {
          "indexed": true,
          "internalType": "address",
          "name": "spender",
          "type": "address"
        },
        {
          "indexed": false,
          "internalType": "uint256",
          "name": "value",
          "type": "uint256"
        }
      ],
      "name": "Approval",
      "type": "event"
    },
    {
      "anonymous": false,
      "inputs": [
        {
          "indexed": true,
          "internalType": "address",
          "name": "delegator",
          "type": "address"
        },
        {
          "indexed": true,
          "internalType": "address",
          "name": "fromDelegate",
          "type": "address"
        },
        {
          "indexed": true,
          "internalType": "address",
          "name": "toDelegate",
          "type": "address"
        }
      ],
      "name": "DelegateChanged",
      "type": "event"
    },
    {
      "anonymous": false,
      "inputs": [
        {
          "indexed": true,
          "internalType": "address",
          "name": "delegate",
          "type": "address"
        },
        {
          "indexed": false,
          "internalType": "uint256",
          "name": "previousVotes",
          "type": "uint256"
        },
        {
          "indexed": false,
          "internalType": "uint256",
          "name": "newVotes",
          "type": "uint256"
        }
      ],
      "name": "DelegateVotesChanged",
      "type": "event"
    },
    {
      "anonymous": false,
      "inputs": [],
      "name": "EIP712DomainChanged",
      "type": "event"
    },
    {
      "anonymous": false,
      "inputs": [
        {
          "indexed": true,
          "internalType": "address",
          "name": "previousOwner",
          "type": "address"
        },
        {
          "indexed": true,
          "internalType": "address",
          "name": "newOwner",
          "type": "address"
        }
      ],
      "name": "OwnershipTransferred",
      "type": "event"
    },
    {
      "anonymous": false,
      "inputs": [
        {
          "indexed": true,
          "internalType": "address",
          "name": "to",
          "type": "address"
        },
        {
          "indexed": false,
          "internalType": "uint256",
          "name": "amount",
          "type": "uint256"
        }
      ],
      "name": "TokensMinted",
      "type": "event"
    },
    {
      "anonymous": false,
      "inputs": [
        {
          "indexed": true,
          "internalType": "address",
          "name": "from",
          "type": "address"
        },
        {
          "indexed": true,
          "internalType": "address",
          "name": "to",
          "type": "address"
        },
        {
          "indexed": false,
          "internalType": "uint256",
          "name": "value",
          "type": "uint256"
        }
      ],
      "name": "Transfer",
      "type": "event"
    },
    {
      "inputs": [],
      "name": "CLOCK_MODE",
      "outputs": [
        {
          "internalType": "string",
          "name": "",
          "type": "string"
        }
      ],
      "stateMutability": "view",
      "type": "function"
    },
    {
      "inputs": [],
      "name": "DOMAIN_SEPARATOR",
      "outputs": [
        {
          "internalType": "bytes32",
          "name": "",
          "type": "bytes32"
        }
      ],
      "stateMutability": "view",
      "type": "function"
    },
    {
      "inputs": [],
      "name": "INITIAL_SUPPLY",
      "outputs": [
        {
          "internalType": "uint256",
          "name": "",
          "type": "uint256"
        }
      ],
      "stateMutability": "view",
      "type": "function"
    },
    {
      "inputs": [],
      "name": "MAX_SUPPLY",
      "outputs": [
        {
          "internalType": "uint256",
          "name": "",
          "type": "uint256"
        }
      ],
      "stateMutability": "view",
      "type": "function"
    },
    {
      "inputs": [
        {
          "internalType": "address",
          "name": "owner",
          "type": "address"
        },
        {
          "internalType": "address",
          "name": "spender",
          "type": "address"
        }
      ],
      "name": "allowance",
      "outputs": [
        {
          "internalType": "uint256",
          "name": "",
          "type": "uint256"
        }
      ],
      "stateMutability": "view",
      "type": "function"
    },
    {
      "inputs": [
        {
          "internalType": "address",
          "name": "spender",
          "type": "address"
        },
        {
          "internalType": "uint256",
          "name": "value",
          "type": "uint256"
        }
      ],
      "name": "approve",
      "outputs": [
        {
          "internalType": "bool",
          "name": "",
          "type": "bool"
        }
      ],
      "stateMutability": "nonpayable",
      "type": "function"
    },
    {
      "inputs": [
        {
          "internalType": "address",
          "name": "account",
          "type": "address"
        }
      ],
      "name": "balanceOf",
      "outputs": [
        {
          "internalType": "uint256",
          "name": "",
          "type": "uint256"
        }
      ],
      "stateMutability": "view",
      "type": "function"
    },
    {
      "inputs": [
        {
          "internalType": "uint256",
          "name": "value",
          "type": "uint256"
        }
      ],
      "name": "burn",
      "outputs": [],
      "stateMutability": "nonpayable",
      "type": "function"
    },
    {
      "inputs": [
        {
          "internalType": "address",
          "name": "account",
          "type": "address"
        },
        {
          "internalType": "uint256",
          "name": "value",
          "type": "uint256"
        }
      ],
      "name": "burnFrom",
      "outputs": [],
      "stateMutability": "nonpayable",
      "type": "function"
    },
    {
      "inputs": [
        {
          "internalType": "address",
          "name": "account",
          "type": "address"
        },
        {
          "internalType": "uint32",
          "name": "pos",
          "type": "uint32"
        }
      ],
      "name": "checkpoints",
      "outputs": [
        {
          "components": [
            {
              "internalType": "uint48",
              "name": "_key",
              "type": "uint48"
            },
            {
              "internalType": "uint208",
              "name": "_value",
              "type": "uint208"
            }
          ],
          "internalType": "struct Checkpoints.Checkpoint208",
          "name": "",
          "type": "tuple"
        }
      ],
      "stateMutability": "view",
      "type": "function"
    },
    {
      "inputs": [],
      "name": "clock",
      "outputs": [
        {
          "internalType": "uint48",
          "name": "",
          "type": "uint48"
        }
      ],
      "stateMutability": "view",
      "type": "function"
    },
    {
      "inputs": [],
      "name": "decimals",
      "outputs": [
        {
          "internalType": "uint8",
          "name": "",
          "type": "uint8"
        }
      ],
      "stateMutability": "view",
      "type": "function"
    },
    {
      "inputs": [
        {
          "internalType": "address",
          "name": "delegatee",
          "type": "address"
        }
      ],
      "name": "delegate",
      "outputs": [],
      "stateMutability": "nonpayable",
      "type": "function"
    },
    {
      "inputs": [
        {
          "internalType": "address",
          "name": "delegatee",
          "type": "address"
        },
        {
          "internalType": "uint256",
          "name": "nonce",
          "type": "uint256"
        },
        {
          "internalType": "uint256",
          "name": "expiry",
          "type": "uint256"
        },
        {
          "internalType": "uint8",
          "name": "v",
          "type": "uint8"
        },
        {
          "internalType": "bytes32",
          "name": "r",
          "type": "bytes32"
        },
        {
          "internalType": "bytes32",
          "name": "s",
          "type": "bytes32"
        }
      ],
      "name": "delegateBySig",
      "outputs": [],
      "stateMutability": "nonpayable",
      "type": "function"
    },
    {
      "inputs": [
        {
          "internalType": "address",
          "name": "account",
          "type": "address"
        }
      ],
      "name": "delegates",
      "outputs": [
        {
          "internalType": "address",
          "name": "",
          "type": "address"
        }
      ],
      "stateMutability": "view",
      "type": "function"
    },
    {
      "inputs": [],
      "name": "eip712Domain",
      "outputs": [
        {
          "internalType": "bytes1",
          "name": "fields",
          "type": "bytes1"
        },
        {
          "internalType": "string",
          "name": "name",
          "type": "string"
        },
        {
          "internalType": "string",
          "name": "version",
          "type": "string"
        },
        {
          "internalType": "uint256",
          "name": "chainId",
          "type": "uint256"
        },
        {
          "internalType": "address",
          "name": "verifyingContract",
          "type": "address"
        },
        {
          "internalType": "bytes32",
          "name": "salt",
          "type": "bytes32"
        },
        {
          "internalType": "uint256[]",
          "name": "extensions",
          "type": "uint256[]"
        }
      ],
      "stateMutability": "view",
      "type": "function"
    },
    {
      "inputs": [
        {
          "internalType": "uint256",
          "name": "timepoint",
          "type": "uint256"
        }
      ],
      "name": "getPastTotalSupply",
      "outputs": [
        {
          "internalType": "uint256",
          "name": "",
          "type": "uint256"
        }
      ],
      "stateMutability": "view",
      "type": "function"
    },
    {
      "inputs": [
        {
          "internalType": "address",
          "name": "account",
          "type": "address"
        },
        {
          "internalType": "uint256",
          "name": "timepoint",
          "type": "uint256"
        }
      ],
      "name": "getPastVotes",
      "outputs": [
        {
          "internalType": "uint256",
          "name": "",
          "type": "uint256"
        }
      ],
      "stateMutability": "view",
      "type": "function"
    },
    {
      "inputs": [
        {
          "internalType": "address",
          "name": "account",
          "type": "address"
        }
      ],
      "name": "getVotes",
      "outputs": [
        {
          "internalType": "uint256",
          "name": "",
          "type": "uint256"
        }
      ],
      "stateMutability": "view",
      "type": "function"
    },
    {
      "inputs": [
        {
          "internalType": "address",
          "name": "to",
          "type": "address"
        },
        {
          "internalType": "uint256",
          "name": "amount",
          "type": "uint256"
        }
      ],
      "name": "mint",
      "outputs": [],
      "stateMutability": "nonpayable",
      "type": "function"
    },
    {
      "inputs": [],
      "name": "name",
      "outputs": [
        {
          "internalType": "string",
          "name": "",
          "type": "string"
        }
      ],
      "stateMutability": "view",
      "type": "function"
    },
    {
      "inputs": [
        {
          "internalType": "address",
          "name": "owner",
          "type": "address"
        }
      ],
      "name": "nonces",
      "outputs": [
        {
          "internalType": "uint256",
          "name": "",
          "type": "uint256"
        }
      ],
      "stateMutability": "view",
      "type": "function"
    },
    {
      "inputs": [
        {
          "internalType": "address",
          "name": "account",
          "type": "address"
        }
      ],
      "name": "numCheckpoints",
      "outputs": [
        {
          "internalType": "uint32",
          "name": "",
          "type": "uint32"
        }
      ],
      "stateMutability": "view",
      "type": "function"
    },
    {
      "inputs": [],
      "name": "owner",
      "outputs": [
        {
          "internalType": "address",
          "name": "",
          "type": "address"
        }
      ],
      "stateMutability": "view",
      "type": "function"
    },
    {
      "inputs": [
        {
          "internalType": "address",
          "name": "owner",
          "type": "address"
        },
        {
          "internalType": "address",
          "name": "spender",
          "type": "address"
        },
        {
          "internalType": "uint256",
          "name": "value",
          "type": "uint256"
        },
        {
          "internalType": "uint256",
          "name": "deadline",
          "type": "uint256"
        },
        {
          "internalType": "uint8",
          "name": "v",
          "type": "uint8"
        },
        {
          "internalType": "bytes32",
          "name": "r",
          "type": "bytes32"
        },
        {
          "internalType": "bytes32",
          "name": "s",
          "type": "bytes32"
        }
      ],
      "name": "permit",
      "outputs": [],
      "stateMutability": "nonpayable",
      "type": "function"
    },
    {
      "inputs": [],
      "name": "renounceOwnership",
      "outputs": [],
      "stateMutability": "nonpayable",
      "type": "function"
    },
    {
      "inputs": [],
      "name": "symbol",
      "outputs": [
        {
          "internalType": "string",
          "name": "",
          "type": "string"
        }
      ],
      "stateMutability": "view",
      "type": "function"
    },
    {
      "inputs": [],
      "name": "totalSupply",
      "outputs": [
        {
          "internalType": "uint256",
          "name": "",
          "type": "uint256"
        }
      ],
      "stateMutability": "view",
      "type": "function"
    },
    {
      "inputs": [
        {
          "internalType": "address",
          "name": "to",
          "type": "address"
        },
        {
          "internalType": "uint256",
          "name": "value",
          "type": "uint256"
        }
      ],
      "name": "transfer",
      "outputs": [
        {
          "internalType": "bool",
          "name": "",
          "type": "bool"
        }
      ],
      "stateMutability": "nonpayable",
      "type": "function"
    },
    {
      "inputs": [
        {
          "internalType": "address",
          "name": "from",
          "type": "address"
        },
        {
          "internalType": "address",
          "name": "to",
          "type": "address"
        },
        {
          "internalType": "uint256",
          "name": "value",
          "type": "uint256"
        }
      ],
      "name": "transferFrom",
      "outputs": [
        {
          "internalType": "bool",
          "name": "",
          "type": "bool"
        }
      ],
      "stateMutability": "nonpayable",
      "type": "function"
    },
    {
      "inputs": [
        {
          "internalType": "address",
          "name": "newOwner",
          "type": "address"
        }
      ],
      "name": "transferOwnership",
      "outputs": [],
      "stateMutability": "nonpayable",
      "type": "function"
    }
  ],
  "bytecode": "0x6101606040523462000223576200001562000295565b6200001f62000295565b906200002a6200026b565b916020926227a0a760e91b848201526200004362000280565b603160f81b858201908152835190939192916001600160401b0382116200021d576200007c8262000076600354620002d0565b6200030d565b8690601f83116001146200018d57620000b69392916000918362000181575b50508160011b916000199060031b1c19161760035562000471565b620000c183620006a4565b92610120938452620000d382620007b7565b94610140958652815191012060e052519020916101009283524660a052620000fa62000968565b6080523060c05233156200016857620001133362000564565b6200011e33620005ad565b604051916129f993846200101e853960805184611d31015260a05184611dec015260c05184611d02015260e05184611d8001525183611da60152518261097c015251816109a50152f35b604051631e4fbdf760e01b815260006004820152602490fd5b0151905038806200009b565b6003600052601f19831691907fc2575a0e9e593c00f959f8c92f12db2869c3395a3b0502d05e2516446f71f85b9260005b8a82821062000206575050916001939185620000b697969410620001ec575b505050811b0160035562000471565b015160001960f88460031b161c19169055388080620001dd565b6001859682939686015181550195019301620001be565b62000228565b600080fd5b634e487b7160e01b600052604160045260246000fd5b604081019081106001600160401b038211176200021d57604052565b6040519062000269826200023e565b565b604051906200027a826200023e565b60038252565b604051906200028f826200023e565b60018252565b60405190620002a4826200023e565b601882527f4f6273696469616e2041726361646961204e6574776f726b00000000000000006020830152565b90600182811c9216801562000302575b6020831014620002ec57565b634e487b7160e01b600052602260045260246000fd5b91607f1691620002e0565b601f81116200031a575050565b6000906003825260208220906020601f850160051c830194106200035b575b601f0160051c01915b8281106200034f57505050565b81815560010162000342565b909250829062000339565b601f811162000373575050565b6000906004825260208220906020601f850160051c83019410620003b4575b601f0160051c01915b828110620003a857505050565b8181556001016200039b565b909250829062000392565b601f8111620003cc575050565b6000906005825260208220906020601f850160051c830194106200040d575b601f0160051c01915b8281106200040157505050565b818155600101620003f4565b9092508290620003eb565b601f811162000425575050565b6000906006825260208220906020601f850160051c8301941062000466575b601f0160051c01915b8281106200045a57505050565b8181556001016200044d565b909250829062000444565b80519091906001600160401b0381116200021d576200049d8162000497600454620002d0565b62000366565b602080601f8311600114620004dc5750819293600092620004d0575b50508160011b916000199060031b1c191617600455565b015190503880620004b9565b6004600052601f198316949091907f8a35acfbc15ff81a39ae7d344fd709f28e8600b4aa8c65c6b64bfe7fe36bd19b926000905b8782106200054b57505083600195961062000531575b505050811b01600455565b015160001960f88460031b161c1916905538808062000526565b8060018596829496860151815501950193019062000510565b600b80546001600160a01b039283166001600160a01b0319821681179092559091167f8be0079c531659141344cd1fd0a4f28419497f9722a3daafe3b4186f6b6457e0600080a3565b6001600160a01b03811680156200068b576002546b033b2e3c9fd0803ce80000009081810180911162000685576002556001600160a01b038316600090815260208190526040902090815401905560007fddf252ad1be2c89b69c2b068fc378daa952ba7f163c4a11628f55a4df523b3ef604051806200063d81906b033b2e3c9fd0803ce8000000602083019252565b0390a36002546001600160d01b0381116200065e57506200026990620009d4565b604051630e58ae9360e11b815260048101919091526001600160d01b036024820152604490fd5b62000d17565b60405163ec442f0560e01b815260006004820152602490fd5b9081516020808210600014620006c557505090620006c290620008eb565b90565b6001600160401b0382116200021d57620006ec82620006e6600554620002d0565b620003bf565b80601f83116001146200072c575081929360009262000720575b50508160011b916000199060031b1c19161760055560ff90565b01519050388062000706565b6005600052601f198316949091907f036b6384b5eca791c62761152d0c79bb0604c104a5fb6f4eb0703f3154bb3db0926000905b8782106200079e57505083600195961062000784575b505050811b0160055560ff90565b015160001960f88460031b161c1916905538808062000776565b8060018596829496860151815501950193019062000760565b9081516020808210600014620007d557505090620006c290620008eb565b6001600160401b0382116200021d57620007fc82620007f6600654620002d0565b62000418565b80601f83116001146200083c575081929360009262000830575b50508160011b916000199060031b1c19161760065560ff90565b01519050388062000816565b6006600052601f198316949091907ff652222313e28459528d920b65115c16c04f3efc82aaedc97be59f3f377c0d3f926000905b878210620008ae57505083600195961062000894575b505050811b0160065560ff90565b015160001960f88460031b161c1916905538808062000886565b8060018596829496860151815501950193019062000870565b602081519101519060208110620008dc575090565b6000199060200360031b1b1690565b601f81511162000906576200090081620008c7565b90511790565b6040519063305a27a960e01b82528160208060048301528251908160248401526000935b8285106200094e575050604492506000838284010152601f80199101168101030190fd5b84810182015186860160440152938101938593506200092a565b60e051610100516040519060208201927f8b73c3c69bb8fe3d512ecc4cf759cc79239f7b179b0ffacaa9a75d522b39400f8452604083015260608201524660808201523060a082015260a0815260c0810181811060018060401b038211176200021d5760405251902090565b65ffffffffffff9081431162000aa657600a546000908062000a7457505062000a10620002699262000a07600062000fd4565b90431662000e0b565b50506001600160a01b0390811690811562000a62575b60086020527f5eff886ea0ce6ca488a3d6e336d6c0f75f46d19b42c06ce5ee98e42c96d256c75460009283526040909220548116911662000ac5565b62000a6c62000c24565b505062000a26565b90926000199382858101116200068557620002699462000a1093602083600a62000a0795522001015460301c62000fd4565b6040516306dfcc6560e41b815260306004820152436024820152604490fd5b6001600160a01b03808316929190811690818414158062000c1b575b62000aed575b50505050565b8162000b5b575b50508162000b05575b808062000ae7565b6001600160a01b0316600090815260096020526040902060008051602062003a378339815191529062000b389062000ca5565b604080516001600160d01b039384168152919092166020820152a2388062000afd565b6001600160a01b0316600090815260096020526040902065ffffffffffff80431162000aa65781546000908062000bdd57505062000bba9060008051602062003a378339815191529262000bb0600062000ff8565b9143169062000f07565b604080516001600160d01b039384168152919092166020820152a2388062000af4565b919092600019938385810111620006855760008051602062003a378339815191529462000bba946020838562000bb095522001015460301c62000ff8565b50600162000ae1565b65ffffffffffff80431162000aa657600a546000908062000c7757505060005b6001600160d01b039081166b033b2e3c9fd0803ce7ffffff1901908111620006855762000c7391431662000e0b565b9091565b6000199181838101116200068557600a90520160008051602062003a17833981519152015460301c62000c44565b65ffffffffffff9081431162000aa65780546000908062000cf55750506000905b6001600160d01b039182166b033b2e3c9fd0803ce800000001918211620006855762000c739243169062000f07565b60001991818381011162000685578084602092522001015460301c9062000cc6565b634e487b7160e01b600052601160045260246000fd5b6000198101919082116200068557565b600a5490680100000000000000008210156200021d576001820180600a5582101562000d9f57600a60005280516020919091015160301b65ffffffffffff191665ffffffffffff919091161760008051602062003a1783398151915290910155565b634e487b7160e01b600052603260045260246000fd5b908154680100000000000000008110156200021d576001810180845581101562000d9f5760009283526020928390208251929093015160301b65ffffffffffff191665ffffffffffff9290921691909117910155565b600a54919291801562000ed85762000e2762000e409162000d2d565b600a60005260008051602062003a178339815191520190565b9081549165ffffffffffff9081841691831680831162000ec65786920362000e885762000e8192509065ffffffffffff82549181199060301b169116179055565b60301c9190565b505062000ec09062000eab62000e9d6200025a565b65ffffffffffff9092168252565b6001600160d01b038516602082015262000d3d565b62000e81565b604051632520601d60e01b8152600490fd5b5062000f019062000eec62000e9d6200025a565b6001600160d01b038416602082015262000d3d565b60009190565b8054929392801562000faa5762000f2262000f2f9162000d2d565b8260005260206000200190565b9182549265ffffffffffff9182851692811680841162000ec65787930362000f71575062000e8192509065ffffffffffff82549181199060301b169116179055565b91505062000ec09162000f9562000f876200025a565b65ffffffffffff9093168352565b6001600160d01b038616602083015262000db5565b509062000f019162000fbf62000f876200025a565b6001600160d01b038516602083015262000db5565b6001600160d01b039081166b033b2e3c9fd0803ce800000001908111620006855790565b6001600160d01b039081166b033b2e3c9fd0803ce7ffffff190190811162000685579056fe6080604052600436101561001257600080fd5b60003560e01c806306fdde0314610207578063095ea7b31461020257806318160ddd146101fd57806323b872dd146101f85780632ff2e9dc146101f3578063313ce567146101ee57806332cb6b0c146101e95780633644e515146101e45780633a46b1a8146101df57806340c10f19146101da57806342966c68146101d55780634bf5d7e9146101d0578063587cde1e146101cb5780635c19a95c146101c65780636fcfff45146101c157806370a08231146101bc578063715018a6146101b757806379cc6790146101b25780637ecebe00146101ad57806384b0196e146101a85780638da5cb5b146101a35780638e539e8c1461019e57806391ddadf41461019957806395d89b41146101945780639ab24eb01461018f578063a9059cbb1461018a578063c3cda52014610185578063d505accf14610180578063dd62ed3e1461017b578063f1127ed8146101765763f2fde38b1461017157600080fd5b6110ac565b610fe1565b610f84565b610de7565b610d05565b610cbf565b610c62565b610bbb565b610b8f565b610a9c565b610a75565b610961565b610927565b6108f7565b610883565b61084b565b6107ca565b6107a8565b61076d565b6106c3565b6106a4565b6105c0565b6104c6565b6104a3565b61047c565b610460565b610439565b610401565b6103e3565b6103b2565b61027e565b919082519283825260005b8481106102565750507fffffffffffffffffffffffffffffffffffffffffffffffffffffffffffffffe0601f8460006020809697860101520116010190565b602081830181015184830182015201610217565b90602061027b92818152019061020c565b90565b346103815760008060031936011261037e5760405190806003546102a18161160f565b8085529160019180831690811561033657506001146102db575b6102d7856102cb8187038261124b565b6040519182918261026a565b0390f35b9250600383527fc2575a0e9e593c00f959f8c92f12db2869c3395a3b0502d05e2516446f71f85b5b82841061031e5750505081016020016102cb826102d76102bb565b80546020858701810191909152909301928101610303565b8695506102d7969350602092506102cb9491507fffffffffffffffffffffffffffffffffffffffffffffffffffffffffffffff001682840152151560051b82010192936102bb565b80fd5b600080fd5b600435906001600160a01b038216820361038157565b602435906001600160a01b038216820361038157565b34610381576040600319360112610381576103d86103ce610386565b60243590336117c9565b602060405160018152f35b34610381576000600319360112610381576020600254604051908152f35b34610381576060600319360112610381576103d861041d610386565b61042561039c565b604435916104348333836118af565b611662565b346103815760006003193601126103815760206040516b033b2e3c9fd0803ce80000008152f35b3461038157600060031936011261038157602060405160128152f35b346103815760006003193601126103815760206040516b06765c793fa10079d00000008152f35b346103815760006003193601126103815760206104be611cf8565b604051908152f35b34610381576040600319360112610381576001600160a01b036104e7610386565b1660009081526009602052604081209061050260243561129b565b91805482938160058111610566575b50906020946105209284612789565b8061054c5750505b79ffffffffffffffffffffffffffffffffffffffffffffffffffff60405191168152f35b916105588492936120e6565b92815220015460301c610528565b946105708661215a565b86039586116105bb576020956105209385875265ffffffffffff80838a8a20015416908516106000146105a95750915b91925094610511565b9291506105b590612113565b906105a0565b6115e0565b34610381576040600319360112610381576105d9610386565b602435906105e5611163565b6002548281018091116105bb576b06765c793fa10079d000000010610646576001600160a01b0381610638847f3f2c9d57c068687834f0de942a9babb9e5acab57d516d3480a3c16ee165a4273946127ea565b6040519384521691602090a2005b60646040517f08c379a000000000000000000000000000000000000000000000000000000000815260206004820152601360248201527f4d617820737570706c79206578636565646564000000000000000000000000006044820152fd5b34610381576020600319360112610381576106c1600435336119a3565b005b34610381576000600319360112610381576106dd4361209b565b65ffffffffffff806106ee4361209b565b16911603610743576102d7604051610705816111d6565b601d81527f6d6f64653d626c6f636b6e756d6265722666726f6d3d64656661756c74000000602082015260405191829160208352602083019061020c565b60046040517f6ff07140000000000000000000000000000000000000000000000000000000008152fd5b346103815760206003193601126103815760206001600160a01b0380610791610386565b166000526008825260406000205416604051908152f35b34610381576020600319360112610381576106c16107c4610386565b336112f5565b34610381576020600319360112610381576001600160a01b036107eb610386565b16600052600960205260406000205463ffffffff908181116108135760209160405191168152f35b604490604051907f6dfcc650000000000000000000000000000000000000000000000000000000008252602060048301526024820152fd5b346103815760206003193601126103815760206104be610869610386565b6001600160a01b0316600052600060205260406000205490565b346103815760008060031936011261037e5761089d611163565b806001600160a01b03600b547fffffffffffffffffffffffff00000000000000000000000000000000000000008116600b55167f8be0079c531659141344cd1fd0a4f28419497f9722a3daafe3b4186f6b6457e08280a380f35b34610381576040600319360112610381576106c1610913610386565b602435906109228233836118af565b6119a3565b34610381576020600319360112610381576001600160a01b03610948610386565b1660005260076020526020604060002054604051908152f35b346103815760008060031936011261037e57610a27906109a07f0000000000000000000000000000000000000000000000000000000000000000611e53565b6109c97f0000000000000000000000000000000000000000000000000000000000000000611f82565b91604051916109d7836111f7565b8183526040519485947f0f000000000000000000000000000000000000000000000000000000000000008652610a1960209360e08589015260e088019061020c565b90868203604088015261020c565b904660608601523060808601528260a086015284820360c08601528080855193848152019401925b828110610a5e57505050500390f35b835185528695509381019392810192600101610a4f565b346103815760006003193601126103815760206001600160a01b03600b5416604051908152f35b3461038157602060031936011261038157610ab860043561129b565b600a54906000829160058411610b22575b610ad3935061270e565b600081610ae857505060405160008152602090f35b600a610af56020936120e6565b91527fc65a7bb8d6351c1cf70c95a316cc6a92839c986682d98bc35f958f4883f9d2a8015460301c610528565b9192610b2d8161215a565b81039081116105bb57610ad393600a835265ffffffffffff80837fc65a7bb8d6351c1cf70c95a316cc6a92839c986682d98bc35f958f4883f9d2a801541690851610600014610b7d575091610ac9565b929150610b8990612113565b90610ac9565b34610381576000600319360112610381576020610bab4361209b565b65ffffffffffff60405191168152f35b346103815760008060031936011261037e576040519080600454610bde8161160f565b808552916001918083169081156103365750600114610c07576102d7856102cb8187038261124b565b9250600483527f8a35acfbc15ff81a39ae7d344fd709f28e8600b4aa8c65c6b64bfe7fe36bd19b5b828410610c4a5750505081016020016102cb826102d76102bb565b80546020858701810191909152909301928101610c2f565b34610381576020600319360112610381576001600160a01b03610c83610386565b166000526009602052602079ffffffffffffffffffffffffffffffffffffffffffffffffffff610cb66040600020612304565b16604051908152f35b34610381576040600319360112610381576103d8610cdb610386565b6024359033611662565b6064359060ff8216820361038157565b6084359060ff8216820361038157565b346103815760c060031936011261038157610d1e610386565b60443590602435610d2d610ce5565b834211610db657610daa6106c194610db1926040519060208201927fe48329057bfd03d55e49b547132e39cffd9c1820ad7b9d4c5307691425d15adf84526001600160a01b0388166040840152866060840152608083015260808252610d9282611213565b610da560a4359360843593519020611e12565b611b40565b9182611ace565b6112f5565b602484604051907f4683af0e0000000000000000000000000000000000000000000000000000000082526004820152fd5b346103815760e060031936011261038157610e00610386565b610e0861039c565b60443590606435610e17610cf5565b814211610f535790610eb4610ef392610ee0610e4f886001600160a01b03166000526007602052604060002080549060018201905590565b9360405193849160208301968a8a8d8a91959493909260a09360c08401977f6e71edae12b1b97f4d1f60370fef10105fa2faae0126114a169c64845d6126c985526001600160a01b038092166020860152166040840152606083015260808201520152565b037fffffffffffffffffffffffffffffffffffffffffffffffffffffffffffffffe0810184528361124b565b610da560c4359360a43593519020611e12565b6001600160a01b0380851690821603610f1057506106c1926117c9565b6040517f4b800e460000000000000000000000000000000000000000000000000000000081526001600160a01b0391821660048201529084166024820152604490fd5b602482604051907f627913020000000000000000000000000000000000000000000000000000000082526004820152fd5b34610381576040600319360112610381576020610fd8610fa2610386565b6001600160a01b03610fb261039c565b9116600052600183526040600020906001600160a01b0316600052602052604060002090565b54604051908152f35b3461038157604060031936011261038157610ffa610386565b6024359063ffffffff82168203610381576102d7916001600160a01b0361104992611023611ab5565b5061102c611ab5565b501660005260096020526040600020611043611ab5565b50612350565b5060405190611057826111d6565b5465ffffffffffff8116825260301c602082015260405191829182919091602079ffffffffffffffffffffffffffffffffffffffffffffffffffff81604084019565ffffffffffff8151168552015116910152565b34610381576020600319360112610381576110c5610386565b6110cd611163565b6001600160a01b0380911690811561113257600b54827fffffffffffffffffffffffff0000000000000000000000000000000000000000821617600b55167f8be0079c531659141344cd1fd0a4f28419497f9722a3daafe3b4186f6b6457e0600080a3005b60246040517f1e4fbdf700000000000000000000000000000000000000000000000000000000815260006004820152fd5b6001600160a01b03600b5416330361117757565b60246040517f118cdaa7000000000000000000000000000000000000000000000000000000008152336004820152fd5b7f4e487b7100000000000000000000000000000000000000000000000000000000600052604160045260246000fd5b6040810190811067ffffffffffffffff8211176111f257604052565b6111a7565b6020810190811067ffffffffffffffff8211176111f257604052565b60a0810190811067ffffffffffffffff8211176111f257604052565b60c0810190811067ffffffffffffffff8211176111f257604052565b90601f7fffffffffffffffffffffffffffffffffffffffffffffffffffffffffffffffe0910116810190811067ffffffffffffffff8211176111f257604052565b60405190611299826111d6565b565b65ffffffffffff6112ab4361209b565b16808210156112be575061027b9061209b565b60449250604051917fecd3f81e00000000000000000000000000000000000000000000000000000000835260048301526024820152fd5b6112999161138a6001600160a01b03927fffffffffffffffffffffffff0000000000000000000000000000000000000000848216948560005260086020526040600020958654968288169788938816948591161790557f3134e8a2e6d97e929a7e54011ea5485d7d196dd5f0ba4d4ef95803e8e3fc257f600080a46001600160a01b0316600052600060205260406000205490565b915b91906001600160a01b0392838216938116908482141580611505575b6113b4575b5050505050565b81611450575b5050826113c9575b80806113ad565b7fdec2bacdd2f05b59de34da9b523dff8be42e5e38e818c82fdb0bae774387a7249161141461140e61141a936001600160a01b03166000526009602052604060002090565b9161203c565b9061150e565b6040805179ffffffffffffffffffffffffffffffffffffffffffffffffffff9384168152919092166020820152a23880806113c2565b61146d906001600160a01b03166000526009602052604060002090565b6114768461203c565b61147f4361209b565b79ffffffffffffffffffffffffffffffffffffffffffffffffffff9182806114a686612304565b1691169003928284116105bb577fdec2bacdd2f05b59de34da9b523dff8be42e5e38e818c82fdb0bae774387a724936114fb926114e29261260e565b6040805192851683529316602082015291829190820190565b0390a238806113ba565b508315156113a8565b906115184361209b565b79ffffffffffffffffffffffffffffffffffffffffffffffffffff91828061153f86612304565b169116019182116105bb576115539261260e565b9091565b6115604361209b565b9079ffffffffffffffffffffffffffffffffffffffffffffffffffff90818061158761229c565b169116019081116105bb57611553916124b7565b6115a44361209b565b9079ffffffffffffffffffffffffffffffffffffffffffffffffffff9081806115cb61229c565b16911690039081116115e057611553916124b7565b7f4e487b7100000000000000000000000000000000000000000000000000000000600052601160045260246000fd5b90600182811c92168015611658575b602083101461162957565b7f4e487b7100000000000000000000000000000000000000000000000000000000600052602260045260246000fd5b91607f169161161e565b9291906001600160a01b039384811694851561179857821680156117675761169d826001600160a01b03166000526000602052604060002090565b549584871061171f57846112999697036116ca846001600160a01b03166000526000602052604060002090565b556116e8846001600160a01b03166000526000602052604060002090565b8054860190556040518581527fddf252ad1be2c89b69c2b068fc378daa952ba7f163c4a11628f55a4df523b3ef90602090a3612959565b6040517fe450d38c0000000000000000000000000000000000000000000000000000000081526001600160a01b03841660048201526024810188905260448101869052606490fd5b60246040517fec442f0500000000000000000000000000000000000000000000000000000000815260006004820152fd5b60246040517f96c6fd1e00000000000000000000000000000000000000000000000000000000815260006004820152fd5b906001600160a01b039182811692831561187e57821693841561184d57806118437f8c5be1e5ebec7d5bd14f71427d1e84f3dd0314c0f7b2291e5b200ac8c7c3b9259461182b6020956001600160a01b03166000526001602052604060002090565b906001600160a01b0316600052602052604060002090565b55604051908152a3565b60246040517f94280d6200000000000000000000000000000000000000000000000000000000815260006004820152fd5b60246040517fe602df0500000000000000000000000000000000000000000000000000000000815260006004820152fd5b91906001600160a01b03808416908160005260016020526118e7836040600020906001600160a01b0316600052602052604060002090565b54917fffffffffffffffffffffffffffffffffffffffffffffffffffffffffffffffff8310611919575b505050505050565b84831061195b571561187e5782161561184d5761194f9261182b9103936001600160a01b03166000526001602052604060002090565b55388080808080611911565b6040517ffb8f41b20000000000000000000000000000000000000000000000000000000081526001600160a01b03851660048201526024810184905260448101869052606490fd5b91906001600160a01b038084168015611798576119d3856001600160a01b03166000526000602052604060002090565b5494838610611a6b579060209291611a0585611299979803916001600160a01b03166000526000602052604060002090565b558360025403600255604051848152817fddf252ad1be2c89b69c2b068fc378daa952ba7f163c4a11628f55a4df523b3ef6000958693a3611a4d611a488561203c565b61159b565b5050825260086020526040818184205416928080522054169061138c565b6040517fe450d38c0000000000000000000000000000000000000000000000000000000081526001600160a01b039190911660048201526024810186905260448101849052606490fd5b60405190611ac2826111d6565b60006020838281520152565b90611af5826001600160a01b03166000526007602052604060002080549060018201905590565b809103611b00575050565b604492506001600160a01b03604051927f752d88c00000000000000000000000000000000000000000000000000000000084521660048301526024820152fd5b9161027b9391611b4f93611b58565b90929192611c21565b91907f7fffffffffffffffffffffffffffffff5d576e7357a4501ddfe92f46681b20a08411611bdc57926020929160ff608095604051948552168484015260408301526060820152600092839182805260015afa15611bd05780516001600160a01b03811615611bc757918190565b50809160019190565b604051903d90823e3d90fd5b50505060009160039190565b60041115611bf257565b7f4e487b7100000000000000000000000000000000000000000000000000000000600052602160045260246000fd5b611c2a81611be8565b80611c33575050565b611c3c81611be8565b60018103611c6e5760046040517ff645eedf000000000000000000000000000000000000000000000000000000008152fd5b611c7781611be8565b60028103611cb1576040517ffce698f700000000000000000000000000000000000000000000000000000000815260048101839052602490fd5b80611cbd600392611be8565b14611cc55750565b6040517fd78bce0c0000000000000000000000000000000000000000000000000000000081526004810191909152602490fd5b6001600160a01b037f000000000000000000000000000000000000000000000000000000000000000016301480611de9575b15611d53577f000000000000000000000000000000000000000000000000000000000000000090565b60405160208101907f8b73c3c69bb8fe3d512ecc4cf759cc79239f7b179b0ffacaa9a75d522b39400f82527f000000000000000000000000000000000000000000000000000000000000000060408201527f000000000000000000000000000000000000000000000000000000000000000060608201524660808201523060a082015260a08152611de38161122f565b51902090565b507f00000000000000000000000000000000000000000000000000000000000000004614611d2a565b604290611e1d611cf8565b90604051917f19010000000000000000000000000000000000000000000000000000000000008352600283015260228201522090565b60ff8114611ea95760ff811690601f8211611e7f5760405191611e75836111d6565b8252602082015290565b60046040517fb3512b0c000000000000000000000000000000000000000000000000000000008152fd5b50604051600554816000611ebc8361160f565b80835292600190818116908115611f425750600114611ee3575b5061027b9250038261124b565b6005600090815291507f036b6384b5eca791c62761152d0c79bb0604c104a5fb6f4eb0703f3154bb3db05b848310611f27575061027b935050810160200138611ed6565b81935090816020925483858901015201910190918492611f0e565b6020935061027b9592507fffffffffffffffffffffffffffffffffffffffffffffffffffffffffffffff0091501682840152151560051b82010138611ed6565b60ff8114611fa45760ff811690601f8211611e7f5760405191611e75836111d6565b50604051600654816000611fb78361160f565b80835292600190818116908115611f425750600114611fdd575061027b9250038261124b565b6006600090815291507ff652222313e28459528d920b65115c16c04f3efc82aaedc97be59f3f377c0d3f5b848310612021575061027b935050810160200138611ed6565b81935090816020925483858901015201910190918492612008565b79ffffffffffffffffffffffffffffffffffffffffffffffffffff90818111612063571690565b604490604051907f6dfcc65000000000000000000000000000000000000000000000000000000000825260d060048301526024820152fd5b65ffffffffffff908181116120ae571690565b604490604051907f6dfcc650000000000000000000000000000000000000000000000000000000008252603060048301526024820152fd5b907fffffffffffffffffffffffffffffffffffffffffffffffffffffffffffffffff82019182116105bb57565b90600182018092116105bb57565b811561212b570490565b7f4e487b7100000000000000000000000000000000000000000000000000000000600052601260045260246000fd5b600181111561027b57600181700100000000000000000000000000000000811015612285575b61222d61222361221961220f6122056121fb61223997600488680100000000000000006122349a1015612278575b64010000000081101561226b575b6201000081101561225e575b610100811015612252575b6010811015612246575b101561223e575b60030260011c6121f4818b612121565b0160011c90565b6121f4818a612121565b6121f48189612121565b6121f48188612121565b6121f48187612121565b6121f48186612121565b8093612121565b821190565b900390565b60011b6121e4565b811c9160021b916121dd565b60081c91811b916121d3565b60101c9160081b916121c8565b60201c9160101b916121bc565b60401c9160201b916121ae565b50680100000000000000009050608082901c612180565b600a54600090806122ae575050600090565b807fffffffffffffffffffffffffffffffffffffffffffffffffffffffffffffffff8101116105bb57600a7fc65a7bb8d6351c1cf70c95a316cc6a92839c986682d98bc35f958f4883f9d2a79252015460301c90565b80546000918161231657505050600090565b7fffffffffffffffffffffffffffffffffffffffffffffffffffffffffffffffff9282848101116105bb5760209181522001015460301c90565b80548210156123685760005260206000200190600090565b7f4e487b7100000000000000000000000000000000000000000000000000000000600052603260045260246000fd5b600a5490680100000000000000008210156111f2576001820180600a5582101561236857600a60005280516020919091015160301b7fffffffffffffffffffffffffffffffffffffffffffffffffffff0000000000001665ffffffffffff91909116177fc65a7bb8d6351c1cf70c95a316cc6a92839c986682d98bc35f958f4883f9d2a890910155565b8054680100000000000000008110156111f25761244391600182018155612350565b6124885781516020929092015160301b7fffffffffffffffffffffffffffffffffffffffffffffffffffff0000000000001665ffffffffffff92909216919091179055565b7f4e487b7100000000000000000000000000000000000000000000000000000000600052600060045260246000fd5b600a5491929180156125d1576124cf6124f9916120e6565b600a6000527fc65a7bb8d6351c1cf70c95a316cc6a92839c986682d98bc35f958f4883f9d2a80190565b9081549165ffffffffffff908184169183168083116125a75786920361255c5761255592509065ffffffffffff7fffffffffffffffffffffffffffffffffffffffffffffffffffff00000000000083549260301b169116179055565b60301c9190565b50506125a29061257b61256d61128c565b65ffffffffffff9092168252565b79ffffffffffffffffffffffffffffffffffffffffffffffffffff85166020820152612397565b612555565b60046040517f2520601d000000000000000000000000000000000000000000000000000000008152fd5b50612608906125e161256d61128c565b79ffffffffffffffffffffffffffffffffffffffffffffffffffff84166020820152612397565b60009190565b805492939280156126d657612625612632916120e6565b8260005260206000200190565b9182549265ffffffffffff918285169281168084116125a75787930361268f575061255592509065ffffffffffff7fffffffffffffffffffffffffffffffffffffffffffffffffffff00000000000083549260301b169116179055565b9150506125a2916126af6126a161128c565b65ffffffffffff9093168352565b79ffffffffffffffffffffffffffffffffffffffffffffffffffff86166020830152612421565b5090612608916126e76126a161128c565b79ffffffffffffffffffffffffffffffffffffffffffffffffffff85166020830152612421565b905b82811061271c57505090565b90918082169080831860011c82018092116105bb57600a60005265ffffffffffff80837fc65a7bb8d6351c1cf70c95a316cc6a92839c986682d98bc35f958f4883f9d2a8015416908516106000146127775750915b90612710565b92915061278390612113565b90612771565b91905b8382106127995750505090565b9091928083169080841860011c82018092116105bb5760008581526020902082015465ffffffffffff90811690841610156127d85750925b919061278c565b9392506127e490612113565b916127d1565b91906001600160a01b0383168015611767576002548281018091116105bb57600255612829846001600160a01b03166000526000602052604060002090565b8054830190556040518281526000907fddf252ad1be2c89b69c2b068fc378daa952ba7f163c4a11628f55a4df523b3ef90602090a36002549279ffffffffffffffffffffffffffffffffffffffffffffffffffff841161288e576112999293506128e0565b6040517f1cb15d260000000000000000000000000000000000000000000000000000000081526004810185905279ffffffffffffffffffffffffffffffffffffffffffffffffffff6024820152604490fd5b90611299916128f66128f18361203c565b611557565b50506001600160a01b03809116908115612946575b60086020527f5eff886ea0ce6ca488a3d6e336d6c0f75f46d19b42c06ce5ee98e42c96d256c75460009283526040909220548116911661138c565b612952611a488461203c565b505061290b565b9061129992916001600160a01b03808092169283156129b0575b1691821561299d575b6000526008602052806040600020541691600052604060002054169061138c565b6129a9611a488561203c565b505061297c565b6129bc6128f18661203c565b505061297356fea26469706673582212201a0a439ffda20f4be81a9775bfce03c2196215dc46c878b8bf7a58075ef0982064736f6c63430008140033c65a7bb8d6351c1cf70c95a316cc6a92839c986682d98bc35f958f4883f9d2a8dec2bacdd2f05b59de34da9b523dff8be42e5e38e818c82fdb0bae774387a724",
  "linkReferences": {},
  "deployedLinkReferences": {}
}