{
  "_format": "hh-sol-artifact-1",
  "contractName": "OANToken",
  "sourceName": "contracts/token/OANToken.sol",
  "abi": [
    {
      "inputs": [],
      "stateMutability": "nonpayable",
      "type": "constructor"
    },
    {
      "inputs": [],
      "name": "CheckpointUnorderedInsertion",
      "type": "error"
    },
    {
      "inputs": [],
      "name": "ECDSAInvalidSignature",
      "type": "error"
    },
    {
      "inputs": [
        {
          "internalType": "uint256",
          "name": "length",
          "type": "uint256"
        }
      ],
      "name": "ECDSAInvalidSignatureLength",
      "type": "error"
    },
    {
      "inputs": [
        {
          "internalType": "bytes32",
          "name": "s",
          "type": "bytes32"
        }
      ],
      "name": "ECDSAInvalidSignatureS",
      "type": "error"
    },
    {
      "inputs": [
        {
          "internalType": "uint256",
          "name": "increasedSupply",
          "type": "uint256"
        },
        {
          "internalType": "uint256",
          "name": "cap",
          "type": "uint256"
        }
      ],
      "name": "ERC20ExceededSafeSupply",
      "type": "error"
    },
    {
      "inputs": [
        {
          "internalType": "address",
          "name": "spender",
          "type": "address"
        },
        {
          "internalType": "uint256",
          "name": "allowance",
          "type": "uint256"
        },
        {
          "internalType": "uint256",
          "name": "needed",
          "type": "uint256"
        }
      ],
      "name": "ERC20InsufficientAllowance",
      "type": "error"
    },
    {
      "inputs": [
        {
          "internalType": "address",
          "name": "sender",
          "type": "address"
        },
        {
          "internalType": "uint256",
          "name": "balance",
          "type": "uint256"
        },
        {
          "internalType": "uint256",
          "name": "needed",
          "type": "uint256"
        }
      ],
      "name": "ERC20InsufficientBalance",
      "type": "error"
    },
    {
      "inputs": [
        {
          "internalType": "address",
          "name": "approver",
          "type": "address"
        }
      ],
      "name": "ERC20InvalidApprover",
      "type": "error"
    },
    {
      "inputs": [
        {
          "internalType": "address",
          "name": "receiver",
          "type": "address"
        }
      ],
      "name": "ERC20InvalidReceiver",
      "type": "error"
    },
    {
      "inputs": [
        {
          "internalType": "address",
          "name": "sender",
          "type": "address"
        }
      ],
      "name": "ERC20InvalidSender",
      "type": "error"
    },
    {
      "inputs": [
        {
          "internalType": "address",
          "name": "spender",
          "type": "address"
        }
      ],
      "name": "ERC20InvalidSpender",
      "type": "error"
    },
    {
      "inputs": [
        {
          "internalType": "uint256",
          "name": "deadline",
          "type": "uint256"
        }
      ],
      "name": "ERC2612ExpiredSignature",
      "type": "error"
    },
    {
      "inputs": [
        {
          "internalType": "address",
          "name": "signer",
          "type": "address"
        },
        {
          "internalType": "address",
          "name": "owner",
          "type": "address"
        }
      ],
      "name": "ERC2612InvalidSigner",
      "type": "error"
    },
    {
      "inputs": [
        {
          "internalType": "uint256",
          "name": "timepoint",
          "type": "uint256"
        },
        {
          "internalType": "uint48",
          "name": "clock",
          "type": "uint48"
        }
      ],
      "name": "ERC5805FutureLookup",
      "type": "error"
    },
    {
      "inputs": [],
      "name": "ERC6372InconsistentClock",
      "type": "error"
    },
    {
      "inputs": [
        {
          "internalType": "address",
          "name": "account",
          "type": "address"
        },
        {
          "internalType": "uint256",
          "name": "currentNonce",
          "type": "uint256"
        }
      ],
      "name": "InvalidAccountNonce",
      "type": "error"
    },
    {
      "inputs": [],
      "name": "InvalidShortString",
      "type": "error"
    },
    {
      "inputs": [
        {
          "internalType": "address",
          "name": "owner",
          "type": "address"
        }
      ],
      "name": "OwnableInvalidOwner",
      "type": "error"
    },
    {
      "inputs": [
        {
          "internalType": "address",
          "name": "account",
          "type": "address"
        }
      ],
      "name": "OwnableUnauthorizedAccount",
      "type": "error"
    },
    {
      "inputs": [
        {
          "internalType": "uint8",
          "name": "bits",
          "type": "uint8"
        },
        {
          "internalType": "uint256",
          "name": "value",
          "type": "uint256"
        }
      ],
      "name": "SafeCastOverflowedUintDowncast",
      "type": "error"
    },
    {
      "inputs": [
        {
          "internalType": "string",
          "name": "str",
          "type": "string"
        }
      ],
      "name": "StringTooLong",
      "type": "error"
    },
    {
      "inputs": [
        {
          "internalType": "uint256",
          "name": "expiry",
          "type": "uint256"
        }
      ],
      "name": "VotesExpiredSignature",
      "type": "error"
    },
    {
      "anonymous": false,
      "inputs": [
        {
          "indexed": true,
          "internalType": "address",
          "name": "owner",
          "type": "address"
        },
        {
          "indexed": true,
          "internalType": "address",
          "name": "spender",
          "type": "address"
        },
        {
          "indexed": false,
          "internalType": "uint256",
          "name": "value",
          "type": "uint256"
        }
      ],
      "name": "Approval",
      "type": "event"
    },
    {
      "anonymous": false,
      "inputs": [
        {
          "indexed": true,
          "internalType": "address",
          "name": "delegator",
          "type": "address"
        },
        {
          "indexed": true,
          "internalType": "address",
          "name": "fromDelegate",
          "type": "address"
        },
        {
          "indexed": true,
          "internalType": "address",
          "name": "toDelegate",
          "type": "address"
        }
      ],
      "name": "DelegateChanged",
      "type": "event"
    },
    {
      "anonymous": false,
      "inputs": [
        {
          "indexed": true,
          "internalType": "address",
          "name": "delegate",
          "type": "address"
        },
        {
          "indexed": false,
          "internalType": "uint256",
          "name": "previousVotes",
          "type": "uint256"
        },
        {
          "indexed": false,
          "internalType": "uint256",
          "name": "newVotes",
          "type": "uint256"
        }
      ],
      "name": "DelegateVotesChanged",
      "type": "event"
    },
    {
      "anonymous": false,
      "inputs": [],
      "name": "EIP712DomainChanged",
      "type": "event"
    },
    {
      "anonymous": false,
      "inputs": [
        {
          "indexed": true,
          "internalType": "address",
          "name": "previousOwner",
          "type": "address"
        },
        {
          "indexed": true,
          "internalType": "address",
          "name": "newOwner",
          "type": "address"
        }
      ],
      "name": "OwnershipTransferred",
      "type": "event"
    },
    {
      "anonymous": false,
      "inputs": [
        {
          "indexed": true,
          "internalType": "address",
          "name": "from",
          "type": "address"
        },
        {
          "indexed": true,
          "internalType": "address",
          "name": "to",
          "type": "address"
        },
        {
          "indexed": false,
          "internalType": "uint256",
          "name": "value",
          "type": "uint256"
        }
      ],
      "name": "Transfer",
      "type": "event"
    },
    {
      "inputs": [],
      "name": "CLOCK_MODE",
      "outputs": [
        {
          "internalType": "string",
          "name": "",
          "type": "string"
        }
      ],
      "stateMutability": "view",
      "type": "function"
    },
    {
      "inputs": [],
      "name": "DOMAIN_SEPARATOR",
      "outputs": [
        {
          "internalType": "bytes32",
          "name": "",
          "type": "bytes32"
        }
      ],
      "stateMutability": "view",
      "type": "function"
    },
    {
      "inputs": [],
      "name": "INITIAL_SUPPLY",
      "outputs": [
        {
          "internalType": "uint256",
          "name": "",
          "type": "uint256"
        }
      ],
      "stateMutability": "view",
      "type": "function"
    },
    {
      "inputs": [
        {
          "internalType": "address",
          "name": "owner",
          "type": "address"
        },
        {
          "internalType": "address",
          "name": "spender",
          "type": "address"
        }
      ],
      "name": "allowance",
      "outputs": [
        {
          "internalType": "uint256",
          "name": "",
          "type": "uint256"
        }
      ],
      "stateMutability": "view",
      "type": "function"
    },
    {
      "inputs": [
        {
          "internalType": "address",
          "name": "spender",
          "type": "address"
        },
        {
          "internalType": "uint256",
          "name": "value",
          "type": "uint256"
        }
      ],
      "name": "approve",
      "outputs": [
        {
          "internalType": "bool",
          "name": "",
          "type": "bool"
        }
      ],
      "stateMutability": "nonpayable",
      "type": "function"
    },
    {
      "inputs": [
        {
          "internalType": "address",
          "name": "account",
          "type": "address"
        }
      ],
      "name": "balanceOf",
      "outputs": [
        {
          "internalType": "uint256",
          "name": "",
          "type": "uint256"
        }
      ],
      "stateMutability": "view",
      "type": "function"
    },
    {
      "inputs": [
        {
          "internalType": "uint256",
          "name": "value",
          "type": "uint256"
        }
      ],
      "name": "burn",
      "outputs": [],
      "stateMutability": "nonpayable",
      "type": "function"
    },
    {
      "inputs": [
        {
          "internalType": "address",
          "name": "account",
          "type": "address"
        },
        {
          "internalType": "uint256",
          "name": "value",
          "type": "uint256"
        }
      ],
      "name": "burnFrom",
      "outputs": [],
      "stateMutability": "nonpayable",
      "type": "function"
    },
    {
      "inputs": [
        {
          "internalType": "address",
          "name": "account",
          "type": "address"
        },
        {
          "internalType": "uint32",
          "name": "pos",
          "type": "uint32"
        }
      ],
      "name": "checkpoints",
      "outputs": [
        {
          "components": [
            {
              "internalType": "uint48",
              "name": "_key",
              "type": "uint48"
            },
            {
              "internalType": "uint208",
              "name": "_value",
              "type": "uint208"
            }
          ],
          "internalType": "struct Checkpoints.Checkpoint208",
          "name": "",
          "type": "tuple"
        }
      ],
      "stateMutability": "view",
      "type": "function"
    },
    {
      "inputs": [],
      "name": "clock",
      "outputs": [
        {
          "internalType": "uint48",
          "name": "",
          "type": "uint48"
        }
      ],
      "stateMutability": "view",
      "type": "function"
    },
    {
      "inputs": [],
      "name": "decimals",
      "outputs": [
        {
          "internalType": "uint8",
          "name": "",
          "type": "uint8"
        }
      ],
      "stateMutability": "view",
      "type": "function"
    },
    {
      "inputs": [
        {
          "internalType": "address",
          "name": "delegatee",
          "type": "address"
        }
      ],
      "name": "delegate",
      "outputs": [],
      "stateMutability": "nonpayable",
      "type": "function"
    },
    {
      "inputs": [
        {
          "internalType": "address",
          "name": "delegatee",
          "type": "address"
        },
        {
          "internalType": "uint256",
          "name": "nonce",
          "type": "uint256"
        },
        {
          "internalType": "uint256",
          "name": "expiry",
          "type": "uint256"
        },
        {
          "internalType": "uint8",
          "name": "v",
          "type": "uint8"
        },
        {
          "internalType": "bytes32",
          "name": "r",
          "type": "bytes32"
        },
        {
          "internalType": "bytes32",
          "name": "s",
          "type": "bytes32"
        }
      ],
      "name": "delegateBySig",
      "outputs": [],
      "stateMutability": "nonpayable",
      "type": "function"
    },
    {
      "inputs": [
        {
          "internalType": "address",
          "name": "account",
          "type": "address"
        }
      ],
      "name": "delegates",
      "outputs": [
        {
          "internalType": "address",
          "name": "",
          "type": "address"
        }
      ],
      "stateMutability": "view",
      "type": "function"
    },
    {
      "inputs": [],
      "name": "eip712Domain",
      "outputs": [
        {
          "internalType": "bytes1",
          "name": "fields",
          "type": "bytes1"
        },
        {
          "internalType": "string",
          "name": "name",
          "type": "string"
        },
        {
          "internalType": "string",
          "name": "version",
          "type": "string"
        },
        {
          "internalType": "uint256",
          "name": "chainId",
          "type": "uint256"
        },
        {
          "internalType": "address",
          "name": "verifyingContract",
          "type": "address"
        },
        {
          "internalType": "bytes32",
          "name": "salt",
          "type": "bytes32"
        },
        {
          "internalType": "uint256[]",
          "name": "extensions",
          "type": "uint256[]"
        }
      ],
      "stateMutability": "view",
      "type": "function"
    },
    {
      "inputs": [
        {
          "internalType": "uint256",
          "name": "timepoint",
          "type": "uint256"
        }
      ],
      "name": "getPastTotalSupply",
      "outputs": [
        {
          "internalType": "uint256",
          "name": "",
          "type": "uint256"
        }
      ],
      "stateMutability": "view",
      "type": "function"
    },
    {
      "inputs": [
        {
          "internalType": "address",
          "name": "account",
          "type": "address"
        },
        {
          "internalType": "uint256",
          "name": "timepoint",
          "type": "uint256"
        }
      ],
      "name": "getPastVotes",
      "outputs": [
        {
          "internalType": "uint256",
          "name": "",
          "type": "uint256"
        }
      ],
      "stateMutability": "view",
      "type": "function"
    },
    {
      "inputs": [
        {
          "internalType": "address",
          "name": "account",
          "type": "address"
        }
      ],
      "name": "getVotes",
      "outputs": [
        {
          "internalType": "uint256",
          "name": "",
          "type": "uint256"
        }
      ],
      "stateMutability": "view",
      "type": "function"
    },
    {
      "inputs": [],
      "name": "name",
      "outputs": [
        {
          "internalType": "string",
          "name": "",
          "type": "string"
        }
      ],
      "stateMutability": "view",
      "type": "function"
    },
    {
      "inputs": [
        {
          "internalType": "address",
          "name": "owner",
          "type": "address"
        }
      ],
      "name": "nonces",
      "outputs": [
        {
          "internalType": "uint256",
          "name": "",
          "type": "uint256"
        }
      ],
      "stateMutability": "view",
      "type": "function"
    },
    {
      "inputs": [
        {
          "internalType": "address",
          "name": "account",
          "type": "address"
        }
      ],
      "name": "numCheckpoints",
      "outputs": [
        {
          "internalType": "uint32",
          "name": "",
          "type": "uint32"
        }
      ],
      "stateMutability": "view",
      "type": "function"
    },
    {
      "inputs": [],
      "name": "owner",
      "outputs": [
        {
          "internalType": "address",
          "name": "",
          "type": "address"
        }
      ],
      "stateMutability": "view",
      "type": "function"
    },
    {
      "inputs": [
        {
          "internalType": "address",
          "name": "owner",
          "type": "address"
        },
        {
          "internalType": "address",
          "name": "spender",
          "type": "address"
        },
        {
          "internalType": "uint256",
          "name": "value",
          "type": "uint256"
        },
        {
          "internalType": "uint256",
          "name": "deadline",
          "type": "uint256"
        },
        {
          "internalType": "uint8",
          "name": "v",
          "type": "uint8"
        },
        {
          "internalType": "bytes32",
          "name": "r",
          "type": "bytes32"
        },
        {
          "internalType": "bytes32",
          "name": "s",
          "type": "bytes32"
        }
      ],
      "name": "permit",
      "outputs": [],
      "stateMutability": "nonpayable",
      "type": "function"
    },
    {
      "inputs": [],
      "name": "renounceOwnership",
      "outputs": [],
      "stateMutability": "nonpayable",
      "type": "function"
    },
    {
      "inputs": [],
      "name": "symbol",
      "outputs": [
        {
          "internalType": "string",
          "name": "",
          "type": "string"
        }
      ],
      "stateMutability": "view",
      "type": "function"
    },
    {
      "inputs": [],
      "name": "totalSupply",
      "outputs": [
        {
          "internalType": "uint256",
          "name": "",
          "type": "uint256"
        }
      ],
      "stateMutability": "view",
      "type": "function"
    },
    {
      "inputs": [
        {
          "internalType": "address",
          "name": "to",
          "type": "address"
        },
        {
          "internalType": "uint256",
          "name": "value",
          "type": "uint256"
        }
      ],
      "name": "transfer",
      "outputs": [
        {
          "internalType": "bool",
          "name": "",
          "type": "bool"
        }
      ],
      "stateMutability": "nonpayable",
      "type": "function"
    },
    {
      "inputs": [
        {
          "internalType": "address",
          "name": "from",
          "type": "address"
        },
        {
          "internalType": "address",
          "name": "to",
          "type": "address"
        },
        {
          "internalType": "uint256",
          "name": "value",
          "type": "uint256"
        }
      ],
      "name": "transferFrom",
      "outputs": [
        {
          "internalType": "bool",
          "name": "",
          "type": "bool"
        }
      ],
      "stateMutability": "nonpayable",
      "type": "function"
    },
    {
      "inputs": [
        {
          "internalType": "address",
          "name": "newOwner",
          "type": "address"
        }
      ],
      "name": "transferOwnership",
      "outputs": [],
      "stateMutability": "nonpayable",
      "type": "function"
    }
  ],
  "bytecode": "0x6101606040523480156200001257600080fd5b50336040518060400160405280601881526020017f4f6273696469616e2041726361646961204e6574776f726b000000000000000081525080604051806040016040528060018152602001603160f81b8152506040518060400160405280601881526020017f4f6273696469616e2041726361646961204e6574776f726b00000000000000008152506040518060400160405280600381526020016227a0a760e91b8152508160039081620000c8919062000a04565b506004620000d7828262000a04565b50620000e991508390506005620001ec565b61012052620000fa816006620001ec565b61014052815160208084019190912060e052815190820120610100524660a0526200018860e05161010051604080517f8b73c3c69bb8fe3d512ecc4cf759cc79239f7b179b0ffacaa9a75d522b39400f60208201529081019290925260608201524660808201523060a082015260009060c00160405160208183030381529060405280519060200120905090565b60805250503060c052506001600160a01b038116620001c257604051631e4fbdf760e01b8152600060048201526024015b60405180910390fd5b620001cd8162000225565b50620001e6336b033b2e3c9fd0803ce800000062000277565b62000bd4565b60006020835110156200020c576200020483620002b5565b90506200021f565b8162000219848262000a04565b5060ff90505b92915050565b600b80546001600160a01b038381166001600160a01b0319831681179093556040519116919082907f8be0079c531659141344cd1fd0a4f28419497f9722a3daafe3b4186f6b6457e090600090a35050565b6001600160a01b038216620002a35760405163ec442f0560e01b815260006004820152602401620001b9565b620002b160008383620002f8565b5050565b600080829050601f81511115620002e3578260405163305a27a960e01b8152600401620001b9919062000ad0565b8051620002f08262000b20565b179392505050565b620003058383836200030a565b505050565b6200031783838362000379565b6001600160a01b0383166200036c5760006200033260025490565b90506001600160d01b03808211156200036957604051630e58ae9360e11b81526004810183905260248101829052604401620001b9565b50505b62000305838383620004ac565b6001600160a01b038316620003a85780600260008282546200039c919062000b5b565b909155506200041c9050565b6001600160a01b03831660009081526020819052604090205481811015620003fd5760405163391434e360e21b81526001600160a01b03851660048201526024810182905260448101839052606401620001b9565b6001600160a01b03841660009081526020819052604090209082900390555b6001600160a01b0382166200043a5760028054829003905562000459565b6001600160a01b03821660009081526020819052604090208054820190555b816001600160a01b0316836001600160a01b03167fddf252ad1be2c89b69c2b068fc378daa952ba7f163c4a11628f55a4df523b3ef836040516200049f91815260200190565b60405180910390a3505050565b6001600160a01b038316620004e157620004de600a620009a46200054460201b17620004d88462000559565b62000593565b50505b6001600160a01b03821662000510576200050d600a620009b0620005d060201b17620004d88462000559565b50505b6001600160a01b038381166000908152600860205260408082205485841683529120546200030592918216911683620005de565b600062000552828462000b71565b9392505050565b60006001600160d01b038211156200058f576040516306dfcc6560e41b815260d0600482015260248101839052604401620001b9565b5090565b600080620005c3620005a462000745565b620005ba620005b38862000756565b868860201c565b879190620007a5565b915091505b935093915050565b600062000552828462000b9b565b816001600160a01b0316836001600160a01b031614158015620006015750600081115b1562000305576001600160a01b03831615620006a4576001600160a01b0383166000908152600960209081526040822082916200064f9190620005d0901b620009b017620004d88662000559565b6001600160d01b031691506001600160d01b03169150846001600160a01b031660008051602062002bbe833981519152838360405162000699929190918252602082015260400190565b60405180910390a250505b6001600160a01b0382161562000305576001600160a01b038216600090815260096020908152604082208291620006ec919062000544901b620009a417620004d88662000559565b6001600160d01b031691506001600160d01b03169150836001600160a01b031660008051602062002bbe833981519152838360405162000736929190918252602082015260400190565b60405180910390a25050505050565b600062000751620007b5565b905090565b805460009080156200079c5762000782836200077460018462000bbe565b600091825260209091200190565b54660100000000000090046001600160d01b031662000552565b60009392505050565b600080620005c3858585620007c2565b600062000751436200092b565b825460009081908015620008cc576000620007e4876200077460018562000bbe565b805490915065ffffffffffff80821691660100000000000090046001600160d01b03169088168211156200082b57604051632520601d60e01b815260040160405180910390fd5b8765ffffffffffff168265ffffffffffff16036200086957825465ffffffffffff1666010000000000006001600160d01b03891602178355620008bd565b6040805180820190915265ffffffffffff808a1682526001600160d01b03808a1660208085019182528d54600181018f5560008f815291909120945191519092166601000000000000029216919091179101555b9450859350620005c892505050565b50506040805180820190915265ffffffffffff80851682526001600160d01b0380851660208085019182528854600181018a5560008a8152918220955192519093166601000000000000029190931617920191909155905081620005c8565b600065ffffffffffff8211156200058f576040516306dfcc6560e41b81526030600482015260248101839052604401620001b9565b634e487b7160e01b600052604160045260246000fd5b600181811c908216806200098b57607f821691505b602082108103620009ac57634e487b7160e01b600052602260045260246000fd5b50919050565b601f8211156200030557600081815260208120601f850160051c81016020861015620009db5750805b601f850160051c820191505b81811015620009fc57828155600101620009e7565b505050505050565b81516001600160401b0381111562000a205762000a2062000960565b62000a388162000a31845462000976565b84620009b2565b602080601f83116001811462000a70576000841562000a575750858301515b600019600386901b1c1916600185901b178555620009fc565b600085815260208120601f198616915b8281101562000aa15788860151825594840194600190910190840162000a80565b508582101562000ac05787850151600019600388901b60f8161c191681555b5050505050600190811b01905550565b600060208083528351808285015260005b8181101562000aff5785810183015185820160400152820162000ae1565b506000604082860101526040601f19601f8301168501019250505092915050565b80516020808301519190811015620009ac5760001960209190910360031b1b16919050565b634e487b7160e01b600052601160045260246000fd5b808201808211156200021f576200021f62000b45565b6001600160d01b0381811683821601908082111562000b945762000b9462000b45565b5092915050565b6001600160d01b0382811682821603908082111562000b945762000b9462000b45565b818103818111156200021f576200021f62000b45565b60805160a05160c05160e051610100516101205161014051611f8f62000c2f6000396000610e8201526000610e5501526000610b8601526000610b5e01526000610ab901526000610ae301526000610b0d0152611f8f6000f3fe608060405234801561001057600080fd5b50600436106101cf5760003560e01c8063715018a61161010457806395d89b41116100a2578063d505accf11610071578063d505accf14610409578063dd62ed3e1461041c578063f1127ed814610455578063f2fde38b1461049457600080fd5b806395d89b41146103c85780639ab24eb0146103d0578063a9059cbb146103e3578063c3cda520146103f657600080fd5b806384b0196e116100de57806384b0196e1461036a5780638da5cb5b146103855780638e539e8c1461039657806391ddadf4146103a957600080fd5b8063715018a61461033c57806379cc6790146103445780637ecebe001461035757600080fd5b80633a46b1a811610171578063587cde1e1161014b578063587cde1e146102945780635c19a95c146102d85780636fcfff45146102eb57806370a082311461031357600080fd5b80633a46b1a81461026457806342966c68146102775780634bf5d7e91461028c57600080fd5b806323b872dd116101ad57806323b872dd146102275780632ff2e9dc1461023a578063313ce5671461024d5780633644e5151461025c57600080fd5b806306fdde03146101d4578063095ea7b3146101f257806318160ddd14610215575b600080fd5b6101dc6104a7565b6040516101e99190611b93565b60405180910390f35b610205610200366004611bc2565b610539565b60405190151581526020016101e9565b6002545b6040519081526020016101e9565b610205610235366004611bec565b610553565b6102196b033b2e3c9fd0803ce800000081565b604051601281526020016101e9565b610219610577565b610219610272366004611bc2565b610586565b61028a610285366004611c28565b6105c2565b005b6101dc6105cf565b6102c06102a2366004611c41565b6001600160a01b039081166000908152600860205260409020541690565b6040516001600160a01b0390911681526020016101e9565b61028a6102e6366004611c41565b610647565b6102fe6102f9366004611c41565b610656565b60405163ffffffff90911681526020016101e9565b610219610321366004611c41565b6001600160a01b031660009081526020819052604090205490565b61028a610661565b61028a610352366004611bc2565b610675565b610219610365366004611c41565b61068a565b610372610695565b6040516101e99796959493929190611c5c565b600b546001600160a01b03166102c0565b6102196103a4366004611c28565b6106db565b6103b1610700565b60405165ffffffffffff90911681526020016101e9565b6101dc61070a565b6102196103de366004611c41565b610719565b6102056103f1366004611bc2565b61073a565b61028a610404366004611d03565b610748565b61028a610417366004611d5b565b61080a565b61021961042a366004611dc5565b6001600160a01b03918216600090815260016020908152604080832093909416825291909152205490565b610468610463366004611df8565b610944565b60408051825165ffffffffffff1681526020928301516001600160d01b031692810192909252016101e9565b61028a6104a2366004611c41565b610969565b6060600380546104b690611e38565b80601f01602080910402602001604051908101604052809291908181526020018280546104e290611e38565b801561052f5780601f106105045761010080835404028352916020019161052f565b820191906000526020600020905b81548152906001019060200180831161051257829003601f168201915b5050505050905090565b6000336105478185856109bc565b60019150505b92915050565b6000336105618582856109ce565b61056c858585610a4d565b506001949350505050565b6000610581610aac565b905090565b60006105b261059483610bd7565b6001600160a01b038516600090815260096020526040902090610c26565b6001600160d01b03169392505050565b6105cc3382610cdc565b50565b60606105d9610d12565b65ffffffffffff166105e9610700565b65ffffffffffff161461060f576040516301bfc1c560e61b815260040160405180910390fd5b5060408051808201909152601d81527f6d6f64653d626c6f636b6e756d6265722666726f6d3d64656661756c74000000602082015290565b336106528183610d1d565b5050565b600061054d82610d8f565b610669610db1565b6106736000610dde565b565b6106808233836109ce565b6106528282610cdc565b600061054d82610e30565b6000606080600080600060606106a9610e4e565b6106b1610e7b565b60408051600080825260208201909252600f60f81b9b939a50919850469750309650945092509050565b60006106f16106e983610bd7565b600a90610c26565b6001600160d01b031692915050565b6000610581610d12565b6060600480546104b690611e38565b6001600160a01b03811660009081526009602052604081206106f190610ea8565b600033610547818585610a4d565b8342111561077157604051632341d78760e11b8152600481018590526024015b60405180910390fd5b604080517fe48329057bfd03d55e49b547132e39cffd9c1820ad7b9d4c5307691425d15adf60208201526001600160a01b0388169181019190915260608101869052608081018590526000906107eb906107e39060a00160405160208183030381529060405280519060200120610ee1565b858585610f0e565b90506107f78187610f3c565b6108018188610d1d565b50505050505050565b8342111561082e5760405163313c898160e11b815260048101859052602401610768565b60007f6e71edae12b1b97f4d1f60370fef10105fa2faae0126114a169c64845d6126c988888861087b8c6001600160a01b0316600090815260076020526040902080546001810190915590565b6040805160208101969096526001600160a01b0394851690860152929091166060840152608083015260a082015260c0810186905260e00160405160208183030381529060405280519060200120905060006108d682610ee1565b905060006108e682878787610f0e565b9050896001600160a01b0316816001600160a01b03161461092d576040516325c0072360e11b81526001600160a01b0380831660048301528b166024820152604401610768565b6109388a8a8a6109bc565b50505050505050505050565b60408051808201909152600080825260208201526109628383610f8f565b9392505050565b610971610db1565b6001600160a01b03811661099b57604051631e4fbdf760e01b815260006004820152602401610768565b6105cc81610dde565b60006109628284611e88565b60006109628284611eaf565b6109c98383836001610fc5565b505050565b6001600160a01b03838116600090815260016020908152604080832093861683529290522054600019811015610a475781811015610a3857604051637dc7a0d960e11b81526001600160a01b03841660048201526024810182905260448101839052606401610768565b610a4784848484036000610fc5565b50505050565b6001600160a01b038316610a7757604051634b637e8f60e11b815260006004820152602401610768565b6001600160a01b038216610aa15760405163ec442f0560e01b815260006004820152602401610768565b6109c983838361109a565b6000306001600160a01b037f000000000000000000000000000000000000000000000000000000000000000016148015610b0557507f000000000000000000000000000000000000000000000000000000000000000046145b15610b2f57507f000000000000000000000000000000000000000000000000000000000000000090565b610581604080517f8b73c3c69bb8fe3d512ecc4cf759cc79239f7b179b0ffacaa9a75d522b39400f60208201527f0000000000000000000000000000000000000000000000000000000000000000918101919091527f000000000000000000000000000000000000000000000000000000000000000060608201524660808201523060a082015260009060c00160405160208183030381529060405280519060200120905090565b600080610be2610700565b90508065ffffffffffff168310610c1d57604051637669fc0f60e11b81526004810184905265ffffffffffff82166024820152604401610768565b610962836110a5565b815460009081816005811115610c85576000610c41846110dc565b610c4b9085611ecf565b60008881526020902090915081015465ffffffffffff9081169087161015610c7557809150610c83565b610c80816001611ee2565b92505b505b6000610c9387878585611235565b90508015610cce57610cb887610caa600184611ecf565b600091825260209091200190565b54600160301b90046001600160d01b0316610cd1565b60005b979650505050505050565b6001600160a01b038216610d0657604051634b637e8f60e11b815260006004820152602401610768565b6106528260008361109a565b6000610581436110a5565b6001600160a01b0382811660008181526008602052604080822080548686166001600160a01b0319821681179092559151919094169392849290917f3134e8a2e6d97e929a7e54011ea5485d7d196dd5f0ba4d4ef95803e8e3fc257f9190a46109c98183610d8a86611297565b6112b5565b6001600160a01b03811660009081526009602052604081205461054d90611421565b600b546001600160a01b031633146106735760405163118cdaa760e01b8152336004820152602401610768565b600b80546001600160a01b038381166001600160a01b0319831681179093556040519116919082907f8be0079c531659141344cd1fd0a4f28419497f9722a3daafe3b4186f6b6457e090600090a35050565b6001600160a01b03811660009081526007602052604081205461054d565b60606105817f00000000000000000000000000000000000000000000000000000000000000006005611452565b60606105817f00000000000000000000000000000000000000000000000000000000000000006006611452565b80546000908015610ed857610ec283610caa600184611ecf565b54600160301b90046001600160d01b0316610962565b60009392505050565b600061054d610eee610aac565b8360405161190160f01b8152600281019290925260228201526042902090565b600080600080610f20888888886114fd565b925092509250610f3082826115cc565b50909695505050505050565b6001600160a01b03821660009081526007602052604090208054600181019091558181146109c9576040516301d4b62360e61b81526001600160a01b038416600482015260248101829052604401610768565b60408051808201909152600080825260208201526001600160a01b03831660009081526009602052604090206109629083611685565b6001600160a01b038416610fef5760405163e602df0560e01b815260006004820152602401610768565b6001600160a01b03831661101957604051634a1406b160e11b815260006004820152602401610768565b6001600160a01b0380851660009081526001602090815260408083209387168352929052208290558015610a4757826001600160a01b0316846001600160a01b03167f8c5be1e5ebec7d5bd14f71427d1e84f3dd0314c0f7b2291e5b200ac8c7c3b9258460405161108c91815260200190565b60405180910390a350505050565b6109c98383836116f5565b600065ffffffffffff8211156110d8576040516306dfcc6560e41b81526030600482015260248101839052604401610768565b5090565b6000600182116110ea575090565b816001600160801b82106111035760809190911c9060401b5b68010000000000000000821061111e5760409190911c9060201b5b64010000000082106111355760209190911c9060101b5b62010000821061114a5760109190911c9060081b5b610100821061115e5760089190911c9060041b5b601082106111715760049190911c9060021b5b6004821061117d5760011b5b600302600190811c9081858161119557611195611ef5565b048201901c905060018185816111ad576111ad611ef5565b048201901c905060018185816111c5576111c5611ef5565b048201901c905060018185816111dd576111dd611ef5565b048201901c905060018185816111f5576111f5611ef5565b048201901c9050600181858161120d5761120d611ef5565b048201901c905061122c81858161122657611226611ef5565b04821190565b90039392505050565b60005b8183101561128f57600061124c848461175c565b60008781526020902090915065ffffffffffff86169082015465ffffffffffff16111561127b57809250611289565b611286816001611ee2565b93505b50611238565b509392505050565b6001600160a01b03811660009081526020819052604081205461054d565b816001600160a01b0316836001600160a01b0316141580156112d75750600081115b156109c9576001600160a01b0383161561137f576001600160a01b0383166000908152600960205260408120819061131a906109b061131586611777565b6117ab565b6001600160d01b031691506001600160d01b03169150846001600160a01b03167fdec2bacdd2f05b59de34da9b523dff8be42e5e38e818c82fdb0bae774387a7248383604051611374929190918252602082015260400190565b60405180910390a250505b6001600160a01b038216156109c9576001600160a01b038216600090815260096020526040812081906113b8906109a461131586611777565b6001600160d01b031691506001600160d01b03169150836001600160a01b03167fdec2bacdd2f05b59de34da9b523dff8be42e5e38e818c82fdb0bae774387a7248383604051611412929190918252602082015260400190565b60405180910390a25050505050565b600063ffffffff8211156110d8576040516306dfcc6560e41b81526020600482015260248101839052604401610768565b606060ff831461146c57611465836117e4565b905061054d565b81805461147890611e38565b80601f01602080910402602001604051908101604052809291908181526020018280546114a490611e38565b80156114f15780601f106114c6576101008083540402835291602001916114f1565b820191906000526020600020905b8154815290600101906020018083116114d457829003601f168201915b5050505050905061054d565b600080807f7fffffffffffffffffffffffffffffff5d576e7357a4501ddfe92f46681b20a084111561153857506000915060039050826115c2565b604080516000808252602082018084528a905260ff891692820192909252606081018790526080810186905260019060a0016020604051602081039080840390855afa15801561158c573d6000803e3d6000fd5b5050604051601f1901519150506001600160a01b0381166115b8575060009250600191508290506115c2565b9250600091508190505b9450945094915050565b60008260038111156115e0576115e0611f0b565b036115e9575050565b60018260038111156115fd576115fd611f0b565b0361161b5760405163f645eedf60e01b815260040160405180910390fd5b600282600381111561162f5761162f611f0b565b036116505760405163fce698f760e01b815260048101829052602401610768565b600382600381111561166457611664611f0b565b03610652576040516335e2f38360e21b815260048101829052602401610768565b6040805180820190915260008082526020820152826000018263ffffffff16815481106116b4576116b4611f21565b60009182526020918290206040805180820190915291015465ffffffffffff81168252600160301b90046001600160d01b0316918101919091529392505050565b611700838383611823565b6001600160a01b03831661175157600061171960025490565b90506001600160d01b038082111561174e57604051630e58ae9360e11b81526004810183905260248101829052604401610768565b50505b6109c983838361194d565b600061176b6002848418611f37565b61096290848416611ee2565b60006001600160d01b038211156110d8576040516306dfcc6560e41b815260d0600482015260248101839052604401610768565b6000806117d76117b9610700565b6117cf6117c588610ea8565b868863ffffffff16565b8791906119c3565b915091505b935093915050565b606060006117f1836119d1565b604080516020808252818301909252919250600091906020820181803683375050509182525060208101929092525090565b6001600160a01b03831661184e5780600260008282546118439190611ee2565b909155506118c09050565b6001600160a01b038316600090815260208190526040902054818110156118a15760405163391434e360e21b81526001600160a01b03851660048201526024810182905260448101839052606401610768565b6001600160a01b03841660009081526020819052604090209082900390555b6001600160a01b0382166118dc576002805482900390556118fb565b6001600160a01b03821660009081526020819052604090208054820190555b816001600160a01b0316836001600160a01b03167fddf252ad1be2c89b69c2b068fc378daa952ba7f163c4a11628f55a4df523b3ef8360405161194091815260200190565b60405180910390a3505050565b6001600160a01b03831661196f5761196c600a6109a461131584611777565b50505b6001600160a01b0382166119915761198e600a6109b061131584611777565b50505b6001600160a01b038381166000908152600860205260408082205485841683529120546109c9929182169116836112b5565b6000806117d78585856119f9565b600060ff8216601f81111561054d57604051632cd44ac360e21b815260040160405180910390fd5b825460009081908015611af2576000611a1787610caa600185611ecf565b805490915065ffffffffffff80821691600160301b90046001600160d01b0316908816821115611a5a57604051632520601d60e01b815260040160405180910390fd5b8765ffffffffffff168265ffffffffffff1603611a9357825465ffffffffffff16600160301b6001600160d01b03891602178355611ae4565b6040805180820190915265ffffffffffff808a1682526001600160d01b03808a1660208085019182528d54600181018f5560008f81529190912094519151909216600160301b029216919091179101555b94508593506117dc92505050565b50506040805180820190915265ffffffffffff80851682526001600160d01b0380851660208085019182528854600181018a5560008a815291822095519251909316600160301b0291909316179201919091559050816117dc565b6000815180845260005b81811015611b7357602081850181015186830182015201611b57565b506000602082860101526020601f19601f83011685010191505092915050565b6020815260006109626020830184611b4d565b80356001600160a01b0381168114611bbd57600080fd5b919050565b60008060408385031215611bd557600080fd5b611bde83611ba6565b946020939093013593505050565b600080600060608486031215611c0157600080fd5b611c0a84611ba6565b9250611c1860208501611ba6565b9150604084013590509250925092565b600060208284031215611c3a57600080fd5b5035919050565b600060208284031215611c5357600080fd5b61096282611ba6565b60ff60f81b881681526000602060e081840152611c7c60e084018a611b4d565b8381036040850152611c8e818a611b4d565b606085018990526001600160a01b038816608086015260a0850187905284810360c0860152855180825283870192509083019060005b81811015611ce057835183529284019291840191600101611cc4565b50909c9b505050505050505050505050565b803560ff81168114611bbd57600080fd5b60008060008060008060c08789031215611d1c57600080fd5b611d2587611ba6565b95506020870135945060408701359350611d4160608801611cf2565b92506080870135915060a087013590509295509295509295565b600080600080600080600060e0888a031215611d7657600080fd5b611d7f88611ba6565b9650611d8d60208901611ba6565b95506040880135945060608801359350611da960808901611cf2565b925060a0880135915060c0880135905092959891949750929550565b60008060408385031215611dd857600080fd5b611de183611ba6565b9150611def60208401611ba6565b90509250929050565b60008060408385031215611e0b57600080fd5b611e1483611ba6565b9150602083013563ffffffff81168114611e2d57600080fd5b809150509250929050565b600181811c90821680611e4c57607f821691505b602082108103611e6c57634e487b7160e01b600052602260045260246000fd5b50919050565b634e487b7160e01b600052601160045260246000fd5b6001600160d01b03818116838216019080821115611ea857611ea8611e72565b5092915050565b6001600160d01b03828116828216039080821115611ea857611ea8611e72565b8181038181111561054d5761054d611e72565b8082018082111561054d5761054d611e72565b634e487b7160e01b600052601260045260246000fd5b634e487b7160e01b600052602160045260246000fd5b634e487b7160e01b600052603260045260246000fd5b600082611f5457634e487b7160e01b600052601260045260246000fd5b50049056fea2646970667358221220750a281dc051b64c672d44125b37ad03fcec0108f777cb1a3b2743b34785b6e564736f6c63430008140033dec2bacdd2f05b59de34da9b523dff8be42e5e38e818c82fdb0bae774387a724",
  "linkReferences": {},
  "deployedLinkReferences": {}
}