{
  "_format": "hh-sol-artifact-1",
  "contractName": "OANToken",
  "sourceName": "contracts/token/OANToken.sol",
  "abi": [
    {
      "inputs": [],
      "stateMutability": "nonpayable",
      "type": "constructor"
    },
    {
      "inputs": [],
      "name": "CheckpointUnorderedInsertion",
      "type": "error"
    },
    {
      "inputs": [],
      "name": "ECDSAInvalidSignature",
      "type": "error"
    },
    {
      "inputs": [
        {
          "internalType": "uint256",
          "name": "length",
          "type": "uint256"
        }
      ],
      "name": "ECDSAInvalidSignatureLength",
      "type": "error"
    },
    {
      "inputs": [
        {
          "internalType": "bytes32",
          "name": "s",
          "type": "bytes32"
        }
      ],
      "name": "ECDSAInvalidSignatureS",
      "type": "error"
    },
    {
      "inputs": [
        {
          "internalType": "uint256",
          "name": "increasedSupply",
          "type": "uint256"
        },
        {
          "internalType": "uint256",
          "name": "cap",
          "type": "uint256"
        }
      ],
      "name": "ERC20ExceededSafeSupply",
      "type": "error"
    },
    {
      "inputs": [
        {
          "internalType": "address",
          "name": "spender",
          "type": "address"
        },
        {
          "internalType": "uint256",
          "name": "allowance",
          "type": "uint256"
        },
        {
          "internalType": "uint256",
          "name": "needed",
          "type": "uint256"
        }
      ],
      "name": "ERC20InsufficientAllowance",
      "type": "error"
    },
    {
      "inputs": [
        {
          "internalType": "address",
          "name": "sender",
          "type": "address"
        },
        {
          "internalType": "uint256",
          "name": "balance",
          "type": "uint256"
        },
        {
          "internalType": "uint256",
          "name": "needed",
          "type": "uint256"
        }
      ],
      "name": "ERC20InsufficientBalance",
      "type": "error"
    },
    {
      "inputs": [
        {
          "internalType": "address",
          "name": "approver",
          "type": "address"
        }
      ],
      "name": "ERC20InvalidApprover",
      "type": "error"
    },
    {
      "inputs": [
        {
          "internalType": "address",
          "name": "receiver",
          "type": "address"
        }
      ],
      "name": "ERC20InvalidReceiver",
      "type": "error"
    },
    {
      "inputs": [
        {
          "internalType": "address",
          "name": "sender",
          "type": "address"
        }
      ],
      "name": "ERC20InvalidSender",
      "type": "error"
    },
    {
      "inputs": [
        {
          "internalType": "address",
          "name": "spender",
          "type": "address"
        }
      ],
      "name": "ERC20InvalidSpender",
      "type": "error"
    },
    {
      "inputs": [
        {
          "internalType": "uint256",
          "name": "deadline",
          "type": "uint256"
        }
      ],
      "name": "ERC2612ExpiredSignature",
      "type": "error"
    },
    {
      "inputs": [
        {
          "internalType": "address",
          "name": "signer",
          "type": "address"
        },
        {
          "internalType": "address",
          "name": "owner",
          "type": "address"
        }
      ],
      "name": "ERC2612InvalidSigner",
      "type": "error"
    },
    {
      "inputs": [
        {
          "internalType": "uint256",
          "name": "timepoint",
          "type": "uint256"
        },
        {
          "internalType": "uint48",
          "name": "clock",
          "type": "uint48"
        }
      ],
      "name": "ERC5805FutureLookup",
      "type": "error"
    },
    {
      "inputs": [],
      "name": "ERC6372InconsistentClock",
      "type": "error"
    },
    {
      "inputs": [
        {
          "internalType": "address",
          "name": "account",
          "type": "address"
        },
        {
          "internalType": "uint256",
          "name": "currentNonce",
          "type": "uint256"
        }
      ],
      "name": "InvalidAccountNonce",
      "type": "error"
    },
    {
      "inputs": [],
      "name": "InvalidShortString",
      "type": "error"
    },
    {
      "inputs": [
        {
          "internalType": "address",
          "name": "owner",
          "type": "address"
        }
      ],
      "name": "OwnableInvalidOwner",
      "type": "error"
    },
    {
      "inputs": [
        {
          "internalType": "address",
          "name": "account",
          "type": "address"
        }
      ],
      "name": "OwnableUnauthorizedAccount",
      "type": "error"
    },
    {
      "inputs": [
        {
          "internalType": "uint8",
          "name": "bits",
          "type": "uint8"
        },
        {
          "internalType": "uint256",
          "name": "value",
          "type": "uint256"
        }
      ],
      "name": "SafeCastOverflowedUintDowncast",
      "type": "error"
    },
    {
      "inputs": [
        {
          "internalType": "string",
          "name": "str",
          "type": "string"
        }
      ],
      "name": "StringTooLong",
      "type": "error"
    },
    {
      "inputs": [
        {
          "internalType": "uint256",
          "name": "expiry",
          "type": "uint256"
        }
      ],
      "name": "VotesExpiredSignature",
      "type": "error"
    },
    {
      "anonymous": false,
      "inputs": [
        {
          "indexed": true,
          "internalType": "address",
          "name": "owner",
          "type": "address"
        },
        {
          "indexed": true,
          "internalType": "address",
          "name": "spender",
          "type": "address"
        },
        {
          "indexed": false,
          "internalType": "uint256",
          "name": "value",
          "type": "uint256"
        }
      ],
      "name": "Approval",
      "type": "event"
    },
    {
      "anonymous": false,
      "inputs": [
        {
          "indexed": true,
          "internalType": "address",
          "name": "delegator",
          "type": "address"
        },
        {
          "indexed": true,
          "internalType": "address",
          "name": "fromDelegate",
          "type": "address"
        },
        {
          "indexed": true,
          "internalType": "address",
          "name": "toDelegate",
          "type": "address"
        }
      ],
      "name": "DelegateChanged",
      "type": "event"
    },
    {
      "anonymous": false,
      "inputs": [
        {
          "indexed": true,
          "internalType": "address",
          "name": "delegate",
          "type": "address"
        },
        {
          "indexed": false,
          "internalType": "uint256",
          "name": "previousVotes",
          "type": "uint256"
        },
        {
          "indexed": false,
          "internalType": "uint256",
          "name": "newVotes",
          "type": "uint256"
        }
      ],
      "name": "DelegateVotesChanged",
      "type": "event"
    },
    {
      "anonymous": false,
      "inputs": [],
      "name": "EIP712DomainChanged",
      "type": "event"
    },
    {
      "anonymous": false,
      "inputs": [
        {
          "indexed": true,
          "internalType": "address",
          "name": "previousOwner",
          "type": "address"
        },
        {
          "indexed": true,
          "internalType": "address",
          "name": "newOwner",
          "type": "address"
        }
      ],
      "name": "OwnershipTransferred",
      "type": "event"
    },
    {
      "anonymous": false,
      "inputs": [
        {
          "indexed": true,
          "internalType": "address",
          "name": "to",
          "type": "address"
        },
        {
          "indexed": false,
          "internalType": "uint256",
          "name": "amount",
          "type": "uint256"
        }
      ],
      "name": "TokensMinted",
      "type": "event"
    },
    {
      "anonymous": false,
      "inputs": [
        {
          "indexed": true,
          "internalType": "address",
          "name": "from",
          "type": "address"
        },
        {
          "indexed": true,
          "internalType": "address",
          "name": "to",
          "type": "address"
        },
        {
          "indexed": false,
          "internalType": "uint256",
          "name": "value",
          "type": "uint256"
        }
      ],
      "name": "Transfer",
      "type": "event"
    },
    {
      "inputs": [],
      "name": "CLOCK_MODE",
      "outputs": [
        {
          "internalType": "string",
          "name": "",
          "type": "string"
        }
      ],
      "stateMutability": "view",
      "type": "function"
    },
    {
      "inputs": [],
      "name": "DOMAIN_SEPARATOR",
      "outputs": [
        {
          "internalType": "bytes32",
          "name": "",
          "type": "bytes32"
        }
      ],
      "stateMutability": "view",
      "type": "function"
    },
    {
      "inputs": [],
      "name": "INITIAL_SUPPLY",
      "outputs": [
        {
          "internalType": "uint256",
          "name": "",
          "type": "uint256"
        }
      ],
      "stateMutability": "view",
      "type": "function"
    },
    {
      "inputs": [],
      "name": "MAX_SUPPLY",
      "outputs": [
        {
          "internalType": "uint256",
          "name": "",
          "type": "uint256"
        }
      ],
      "stateMutability": "view",
      "type": "function"
    },
    {
      "inputs": [
        {
          "internalType": "address",
          "name": "owner",
          "type": "address"
        },
        {
          "internalType": "address",
          "name": "spender",
          "type": "address"
        }
      ],
      "name": "allowance",
      "outputs": [
        {
          "internalType": "uint256",
          "name": "",
          "type": "uint256"
        }
      ],
      "stateMutability": "view",
      "type": "function"
    },
    {
      "inputs": [
        {
          "internalType": "address",
          "name": "spender",
          "type": "address"
        },
        {
          "internalType": "uint256",
          "name": "value",
          "type": "uint256"
        }
      ],
      "name": "approve",
      "outputs": [
        {
          "internalType": "bool",
          "name": "",
          "type": "bool"
        }
      ],
      "stateMutability": "nonpayable",
      "type": "function"
    },
    {
      "inputs": [
        {
          "internalType": "address",
          "name": "account",
          "type": "address"
        }
      ],
      "name": "balanceOf",
      "outputs": [
        {
          "internalType": "uint256",
          "name": "",
          "type": "uint256"
        }
      ],
      "stateMutability": "view",
      "type": "function"
    },
    {
      "inputs": [
        {
          "internalType": "uint256",
          "name": "value",
          "type": "uint256"
        }
      ],
      "name": "burn",
      "outputs": [],
      "stateMutability": "nonpayable",
      "type": "function"
    },
    {
      "inputs": [
        {
          "internalType": "address",
          "name": "account",
          "type": "address"
        },
        {
          "internalType": "uint256",
          "name": "value",
          "type": "uint256"
        }
      ],
      "name": "burnFrom",
      "outputs": [],
      "stateMutability": "nonpayable",
      "type": "function"
    },
    {
      "inputs": [
        {
          "internalType": "address",
          "name": "account",
          "type": "address"
        },
        {
          "internalType": "uint32",
          "name": "pos",
          "type": "uint32"
        }
      ],
      "name": "checkpoints",
      "outputs": [
        {
          "components": [
            {
              "internalType": "uint48",
              "name": "_key",
              "type": "uint48"
            },
            {
              "internalType": "uint208",
              "name": "_value",
              "type": "uint208"
            }
          ],
          "internalType": "struct Checkpoints.Checkpoint208",
          "name": "",
          "type": "tuple"
        }
      ],
      "stateMutability": "view",
      "type": "function"
    },
    {
      "inputs": [],
      "name": "clock",
      "outputs": [
        {
          "internalType": "uint48",
          "name": "",
          "type": "uint48"
        }
      ],
      "stateMutability": "view",
      "type": "function"
    },
    {
      "inputs": [],
      "name": "decimals",
      "outputs": [
        {
          "internalType": "uint8",
          "name": "",
          "type": "uint8"
        }
      ],
      "stateMutability": "view",
      "type": "function"
    },
    {
      "inputs": [
        {
          "internalType": "address",
          "name": "delegatee",
          "type": "address"
        }
      ],
      "name": "delegate",
      "outputs": [],
      "stateMutability": "nonpayable",
      "type": "function"
    },
    {
      "inputs": [
        {
          "internalType": "address",
          "name": "delegatee",
          "type": "address"
        },
        {
          "internalType": "uint256",
          "name": "nonce",
          "type": "uint256"
        },
        {
          "internalType": "uint256",
          "name": "expiry",
          "type": "uint256"
        },
        {
          "internalType": "uint8",
          "name": "v",
          "type": "uint8"
        },
        {
          "internalType": "bytes32",
          "name": "r",
          "type": "bytes32"
        },
        {
          "internalType": "bytes32",
          "name": "s",
          "type": "bytes32"
        }
      ],
      "name": "delegateBySig",
      "outputs": [],
      "stateMutability": "nonpayable",
      "type": "function"
    },
    {
      "inputs": [
        {
          "internalType": "address",
          "name": "account",
          "type": "address"
        }
      ],
      "name": "delegates",
      "outputs": [
        {
          "internalType": "address",
          "name": "",
          "type": "address"
        }
      ],
      "stateMutability": "view",
      "type": "function"
    },
    {
      "inputs": [],
      "name": "eip712Domain",
      "outputs": [
        {
          "internalType": "bytes1",
          "name": "fields",
          "type": "bytes1"
        },
        {
          "internalType": "string",
          "name": "name",
          "type": "string"
        },
        {
          "internalType": "string",
          "name": "version",
          "type": "string"
        },
        {
          "internalType": "uint256",
          "name": "chainId",
          "type": "uint256"
        },
        {
          "internalType": "address",
          "name": "verifyingContract",
          "type": "address"
        },
        {
          "internalType": "bytes32",
          "name": "salt",
          "type": "bytes32"
        },
        {
          "internalType": "uint256[]",
          "name": "extensions",
          "type": "uint256[]"
        }
      ],
      "stateMutability": "view",
      "type": "function"
    },
    {
      "inputs": [
        {
          "internalType": "uint256",
          "name": "timepoint",
          "type": "uint256"
        }
      ],
      "name": "getPastTotalSupply",
      "outputs": [
        {
          "internalType": "uint256",
          "name": "",
          "type": "uint256"
        }
      ],
      "stateMutability": "view",
      "type": "function"
    },
    {
      "inputs": [
        {
          "internalType": "address",
          "name": "account",
          "type": "address"
        },
        {
          "internalType": "uint256",
          "name": "timepoint",
          "type": "uint256"
        }
      ],
      "name": "getPastVotes",
      "outputs": [
        {
          "internalType": "uint256",
          "name": "",
          "type": "uint256"
        }
      ],
      "stateMutability": "view",
      "type": "function"
    },
    {
      "inputs": [
        {
          "internalType": "address",
          "name": "account",
          "type": "address"
        }
      ],
      "name": "getVotes",
      "outputs": [
        {
          "internalType": "uint256",
          "name": "",
          "type": "uint256"
        }
      ],
      "stateMutability": "view",
      "type": "function"
    },
    {
      "inputs": [
        {
          "internalType": "address",
          "name": "to",
          "type": "address"
        },
        {
          "internalType": "uint256",
          "name": "amount",
          "type": "uint256"
        }
      ],
      "name": "mint",
      "outputs": [],
      "stateMutability": "nonpayable",
      "type": "function"
    },
    {
      "inputs": [],
      "name": "name",
      "outputs": [
        {
          "internalType": "string",
          "name": "",
          "type": "string"
        }
      ],
      "stateMutability": "view",
      "type": "function"
    },
    {
      "inputs": [
        {
          "internalType": "address",
          "name": "owner",
          "type": "address"
        }
      ],
      "name": "nonces",
      "outputs": [
        {
          "internalType": "uint256",
          "name": "",
          "type": "uint256"
        }
      ],
      "stateMutability": "view",
      "type": "function"
    },
    {
      "inputs": [
        {
          "internalType": "address",
          "name": "account",
          "type": "address"
        }
      ],
      "name": "numCheckpoints",
      "outputs": [
        {
          "internalType": "uint32",
          "name": "",
          "type": "uint32"
        }
      ],
      "stateMutability": "view",
      "type": "function"
    },
    {
      "inputs": [],
      "name": "owner",
      "outputs": [
        {
          "internalType": "address",
          "name": "",
          "type": "address"
        }
      ],
      "stateMutability": "view",
      "type": "function"
    },
    {
      "inputs": [
        {
          "internalType": "address",
          "name": "owner",
          "type": "address"
        },
        {
          "internalType": "address",
          "name": "spender",
          "type": "address"
        },
        {
          "internalType": "uint256",
          "name": "value",
          "type": "uint256"
        },
        {
          "internalType": "uint256",
          "name": "deadline",
          "type": "uint256"
        },
        {
          "internalType": "uint8",
          "name": "v",
          "type": "uint8"
        },
        {
          "internalType": "bytes32",
          "name": "r",
          "type": "bytes32"
        },
        {
          "internalType": "bytes32",
          "name": "s",
          "type": "bytes32"
        }
      ],
      "name": "permit",
      "outputs": [],
      "stateMutability": "nonpayable",
      "type": "function"
    },
    {
      "inputs": [],
      "name": "renounceOwnership",
      "outputs": [],
      "stateMutability": "nonpayable",
      "type": "function"
    },
    {
      "inputs": [],
      "name": "symbol",
      "outputs": [
        {
          "internalType": "string",
          "name": "",
          "type": "string"
        }
      ],
      "stateMutability": "view",
      "type": "function"
    },
    {
      "inputs": [],
      "name": "totalSupply",
      "outputs": [
        {
          "internalType": "uint256",
          "name": "",
          "type": "uint256"
        }
      ],
      "stateMutability": "view",
      "type": "function"
    },
    {
      "inputs": [
        {
          "internalType": "address",
          "name": "to",
          "type": "address"
        },
        {
          "internalType": "uint256",
          "name": "value",
          "type": "uint256"
        }
      ],
      "name": "transfer",
      "outputs": [
        {
          "internalType": "bool",
          "name": "",
          "type": "bool"
        }
      ],
      "stateMutability": "nonpayable",
      "type": "function"
    },
    {
      "inputs": [
        {
          "internalType": "address",
          "name": "from",
          "type": "address"
        },
        {
          "internalType": "address",
          "name": "to",
          "type": "address"
        },
        {
          "internalType": "uint256",
          "name": "value",
          "type": "uint256"
        }
      ],
      "name": "transferFrom",
      "outputs": [
        {
          "internalType": "bool",
          "name": "",
          "type": "bool"
        }
      ],
      "stateMutability": "nonpayable",
      "type": "function"
    },
    {
      "inputs": [
        {
          "internalType": "address",
          "name": "newOwner",
          "type": "address"
        }
      ],
      "name": "transferOwnership",
      "outputs": [],
      "stateMutability": "nonpayable",
      "type": "function"
    }
  ],
  "bytecode": "0x6101606040523480156200001257600080fd5b50336040518060400160405280601881526020017f4f6273696469616e2041726361646961204e6574776f726b000000000000000081525080604051806040016040528060018152602001603160f81b8152506040518060400160405280601881526020017f4f6273696469616e2041726361646961204e6574776f726b00000000000000008152506040518060400160405280600381526020016227a0a760e91b8152508160039081620000c8919062000a04565b506004620000d7828262000a04565b50620000e991508390506005620001ec565b61012052620000fa816006620001ec565b61014052815160208084019190912060e052815190820120610100524660a0526200018860e05161010051604080517f8b73c3c69bb8fe3d512ecc4cf759cc79239f7b179b0ffacaa9a75d522b39400f60208201529081019290925260608201524660808201523060a082015260009060c00160405160208183030381529060405280519060200120905090565b60805250503060c052506001600160a01b038116620001c257604051631e4fbdf760e01b8152600060048201526024015b60405180910390fd5b620001cd8162000225565b50620001e6336b033b2e3c9fd0803ce800000062000277565b62000bd4565b60006020835110156200020c576200020483620002b5565b90506200021f565b8162000219848262000a04565b5060ff90505b92915050565b600b80546001600160a01b038381166001600160a01b0319831681179093556040519116919082907f8be0079c531659141344cd1fd0a4f28419497f9722a3daafe3b4186f6b6457e090600090a35050565b6001600160a01b038216620002a35760405163ec442f0560e01b815260006004820152602401620001b9565b620002b160008383620002f8565b5050565b600080829050601f81511115620002e3578260405163305a27a960e01b8152600401620001b9919062000ad0565b8051620002f08262000b20565b179392505050565b620003058383836200030a565b505050565b6200031783838362000379565b6001600160a01b0383166200036c5760006200033260025490565b90506001600160d01b03808211156200036957604051630e58ae9360e11b81526004810183905260248101829052604401620001b9565b50505b62000305838383620004ac565b6001600160a01b038316620003a85780600260008282546200039c919062000b5b565b909155506200041c9050565b6001600160a01b03831660009081526020819052604090205481811015620003fd5760405163391434e360e21b81526001600160a01b03851660048201526024810182905260448101839052606401620001b9565b6001600160a01b03841660009081526020819052604090209082900390555b6001600160a01b0382166200043a5760028054829003905562000459565b6001600160a01b03821660009081526020819052604090208054820190555b816001600160a01b0316836001600160a01b03167fddf252ad1be2c89b69c2b068fc378daa952ba7f163c4a11628f55a4df523b3ef836040516200049f91815260200190565b60405180910390a3505050565b6001600160a01b038316620004e157620004de600a62000a9e6200054460201b17620004d88462000559565b62000593565b50505b6001600160a01b03821662000510576200050d600a62000aaa620005d060201b17620004d88462000559565b50505b6001600160a01b038381166000908152600860205260408082205485841683529120546200030592918216911683620005de565b600062000552828462000b71565b9392505050565b60006001600160d01b038211156200058f576040516306dfcc6560e41b815260d0600482015260248101839052604401620001b9565b5090565b600080620005c3620005a462000745565b620005ba620005b38862000756565b868860201c565b879190620007a5565b915091505b935093915050565b600062000552828462000b9b565b816001600160a01b0316836001600160a01b031614158015620006015750600081115b1562000305576001600160a01b03831615620006a4576001600160a01b0383166000908152600960209081526040822082916200064f9190620005d0901b62000aaa17620004d88662000559565b6001600160d01b031691506001600160d01b03169150846001600160a01b031660008051602062002cee833981519152838360405162000699929190918252602082015260400190565b60405180910390a250505b6001600160a01b0382161562000305576001600160a01b038216600090815260096020908152604082208291620006ec919062000544901b62000a9e17620004d88662000559565b6001600160d01b031691506001600160d01b03169150836001600160a01b031660008051602062002cee833981519152838360405162000736929190918252602082015260400190565b60405180910390a25050505050565b600062000751620007b5565b905090565b805460009080156200079c5762000782836200077460018462000bbe565b600091825260209091200190565b54660100000000000090046001600160d01b031662000552565b60009392505050565b600080620005c3858585620007c2565b600062000751436200092b565b825460009081908015620008cc576000620007e4876200077460018562000bbe565b805490915065ffffffffffff80821691660100000000000090046001600160d01b03169088168211156200082b57604051632520601d60e01b815260040160405180910390fd5b8765ffffffffffff168265ffffffffffff16036200086957825465ffffffffffff1666010000000000006001600160d01b03891602178355620008bd565b6040805180820190915265ffffffffffff808a1682526001600160d01b03808a1660208085019182528d54600181018f5560008f815291909120945191519092166601000000000000029216919091179101555b9450859350620005c892505050565b50506040805180820190915265ffffffffffff80851682526001600160d01b0380851660208085019182528854600181018a5560008a8152918220955192519093166601000000000000029190931617920191909155905081620005c8565b600065ffffffffffff8211156200058f576040516306dfcc6560e41b81526030600482015260248101839052604401620001b9565b634e487b7160e01b600052604160045260246000fd5b600181811c908216806200098b57607f821691505b602082108103620009ac57634e487b7160e01b600052602260045260246000fd5b50919050565b601f8211156200030557600081815260208120601f850160051c81016020861015620009db5750805b601f850160051c820191505b81811015620009fc57828155600101620009e7565b505050505050565b81516001600160401b0381111562000a205762000a2062000960565b62000a388162000a31845462000976565b84620009b2565b602080601f83116001811462000a70576000841562000a575750858301515b600019600386901b1c1916600185901b178555620009fc565b600085815260208120601f198616915b8281101562000aa15788860151825594840194600190910190840162000a80565b508582101562000ac05787850151600019600388901b60f8161c191681555b5050505050600190811b01905550565b600060208083528351808285015260005b8181101562000aff5785810183015185820160400152820162000ae1565b506000604082860101526040601f19601f8301168501019250505092915050565b80516020808301519190811015620009ac5760001960209190910360031b1b16919050565b634e487b7160e01b600052601160045260246000fd5b808201808211156200021f576200021f62000b45565b6001600160d01b0381811683821601908082111562000b945762000b9462000b45565b5092915050565b6001600160d01b0382811682821603908082111562000b945762000b9462000b45565b818103818111156200021f576200021f62000b45565b60805160a05160c05160e0516101005161012051610140516120bf62000c2f6000396000610fb201526000610f8501526000610c8001526000610c5801526000610bb301526000610bdd01526000610c0701526120bf6000f3fe608060405234801561001057600080fd5b50600436106101e55760003560e01c806370a082311161010f57806395d89b41116100a2578063d505accf11610071578063d505accf14610445578063dd62ed3e14610458578063f1127ed814610491578063f2fde38b146104d057600080fd5b806395d89b41146104045780639ab24eb01461040c578063a9059cbb1461041f578063c3cda5201461043257600080fd5b806384b0196e116100de57806384b0196e146103a65780638da5cb5b146103c15780638e539e8c146103d257806391ddadf4146103e557600080fd5b806370a082311461034f578063715018a61461037857806379cc6790146103805780637ecebe001461039357600080fd5b80633644e515116101875780634bf5d7e9116101565780634bf5d7e9146102c8578063587cde1e146102d05780635c19a95c146103145780636fcfff451461032757600080fd5b80633644e515146102855780633a46b1a81461028d57806340c10f19146102a057806342966c68146102b557600080fd5b806323b872dd116101c357806323b872dd1461023d5780632ff2e9dc14610250578063313ce5671461026357806332cb6b0c1461027257600080fd5b806306fdde03146101ea578063095ea7b31461020857806318160ddd1461022b575b600080fd5b6101f26104e3565b6040516101ff9190611cc3565b60405180910390f35b61021b610216366004611cf2565b610575565b60405190151581526020016101ff565b6002545b6040519081526020016101ff565b61021b61024b366004611d1c565b61058f565b61022f6b033b2e3c9fd0803ce800000081565b604051601281526020016101ff565b61022f6b06765c793fa10079d000000081565b61022f6105b3565b61022f61029b366004611cf2565b6105c2565b6102b36102ae366004611cf2565b6105fe565b005b6102b36102c3366004611d58565b6106c1565b6101f26106ce565b6102fc6102de366004611d71565b6001600160a01b039081166000908152600860205260409020541690565b6040516001600160a01b0390911681526020016101ff565b6102b3610322366004611d71565b610746565b61033a610335366004611d71565b610755565b60405163ffffffff90911681526020016101ff565b61022f61035d366004611d71565b6001600160a01b031660009081526020819052604090205490565b6102b3610760565b6102b361038e366004611cf2565b610774565b61022f6103a1366004611d71565b610789565b6103ae610794565b6040516101ff9796959493929190611d8c565b600b546001600160a01b03166102fc565b61022f6103e0366004611d58565b6107da565b6103ed6107ff565b60405165ffffffffffff90911681526020016101ff565b6101f2610809565b61022f61041a366004611d71565b610818565b61021b61042d366004611cf2565b610839565b6102b3610440366004611e33565b610847565b6102b3610453366004611e8b565b610904565b61022f610466366004611ef5565b6001600160a01b03918216600090815260016020908152604080832093909416825291909152205490565b6104a461049f366004611f28565b610a3e565b60408051825165ffffffffffff1681526020928301516001600160d01b031692810192909252016101ff565b6102b36104de366004611d71565b610a63565b6060600380546104f290611f68565b80601f016020809104026020016040519081016040528092919081815260200182805461051e90611f68565b801561056b5780601f106105405761010080835404028352916020019161056b565b820191906000526020600020905b81548152906001019060200180831161054e57829003601f168201915b5050505050905090565b600033610583818585610ab6565b60019150505b92915050565b60003361059d858285610ac8565b6105a8858585610b47565b506001949350505050565b60006105bd610ba6565b905090565b60006105ee6105d083610cd1565b6001600160a01b038516600090815260096020526040902090610d20565b6001600160d01b03169392505050565b610606610dd6565b6b06765c793fa10079d00000008161061d60025490565b6106279190611fb8565b11156106705760405162461bcd60e51b815260206004820152601360248201527213585e081cdd5c1c1b1e48195e18d959591959606a1b60448201526064015b60405180910390fd5b61067a8282610e03565b816001600160a01b03167f3f2c9d57c068687834f0de942a9babb9e5acab57d516d3480a3c16ee165a4273826040516106b591815260200190565b60405180910390a25050565b6106cb3382610e39565b50565b60606106d8610e6f565b65ffffffffffff166106e86107ff565b65ffffffffffff161461070e576040516301bfc1c560e61b815260040160405180910390fd5b5060408051808201909152601d81527f6d6f64653d626c6f636b6e756d6265722666726f6d3d64656661756c74000000602082015290565b336107518183610e7a565b5050565b600061058982610eec565b610768610dd6565b6107726000610f0e565b565b61077f823383610ac8565b6107518282610e39565b600061058982610f60565b6000606080600080600060606107a8610f7e565b6107b0610fab565b60408051600080825260208201909252600f60f81b9b939a50919850469750309650945092509050565b60006107f06107e883610cd1565b600a90610d20565b6001600160d01b031692915050565b60006105bd610e6f565b6060600480546104f290611f68565b6001600160a01b03811660009081526009602052604081206107f090610fd8565b600033610583818585610b47565b8342111561086b57604051632341d78760e11b815260048101859052602401610667565b604080517fe48329057bfd03d55e49b547132e39cffd9c1820ad7b9d4c5307691425d15adf60208201526001600160a01b0388169181019190915260608101869052608081018590526000906108e5906108dd9060a00160405160208183030381529060405280519060200120611011565b85858561103e565b90506108f1818761106c565b6108fb8188610e7a565b50505050505050565b834211156109285760405163313c898160e11b815260048101859052602401610667565b60007f6e71edae12b1b97f4d1f60370fef10105fa2faae0126114a169c64845d6126c98888886109758c6001600160a01b0316600090815260076020526040902080546001810190915590565b6040805160208101969096526001600160a01b0394851690860152929091166060840152608083015260a082015260c0810186905260e00160405160208183030381529060405280519060200120905060006109d082611011565b905060006109e08287878761103e565b9050896001600160a01b0316816001600160a01b031614610a27576040516325c0072360e11b81526001600160a01b0380831660048301528b166024820152604401610667565b610a328a8a8a610ab6565b50505050505050505050565b6040805180820190915260008082526020820152610a5c83836110bf565b9392505050565b610a6b610dd6565b6001600160a01b038116610a9557604051631e4fbdf760e01b815260006004820152602401610667565b6106cb81610f0e565b6000610a5c8284611fcb565b6000610a5c8284611ff2565b610ac383838360016110f5565b505050565b6001600160a01b03838116600090815260016020908152604080832093861683529290522054600019811015610b415781811015610b3257604051637dc7a0d960e11b81526001600160a01b03841660048201526024810182905260448101839052606401610667565b610b41848484840360006110f5565b50505050565b6001600160a01b038316610b7157604051634b637e8f60e11b815260006004820152602401610667565b6001600160a01b038216610b9b5760405163ec442f0560e01b815260006004820152602401610667565b610ac38383836111ca565b6000306001600160a01b037f000000000000000000000000000000000000000000000000000000000000000016148015610bff57507f000000000000000000000000000000000000000000000000000000000000000046145b15610c2957507f000000000000000000000000000000000000000000000000000000000000000090565b6105bd604080517f8b73c3c69bb8fe3d512ecc4cf759cc79239f7b179b0ffacaa9a75d522b39400f60208201527f0000000000000000000000000000000000000000000000000000000000000000918101919091527f000000000000000000000000000000000000000000000000000000000000000060608201524660808201523060a082015260009060c00160405160208183030381529060405280519060200120905090565b600080610cdc6107ff565b90508065ffffffffffff168310610d1757604051637669fc0f60e11b81526004810184905265ffffffffffff82166024820152604401610667565b610a5c836111d5565b815460009081816005811115610d7f576000610d3b8461120c565b610d459085612012565b60008881526020902090915081015465ffffffffffff9081169087161015610d6f57809150610d7d565b610d7a816001611fb8565b92505b505b6000610d8d87878585611365565b90508015610dc857610db287610da4600184612012565b600091825260209091200190565b54600160301b90046001600160d01b0316610dcb565b60005b979650505050505050565b600b546001600160a01b031633146107725760405163118cdaa760e01b8152336004820152602401610667565b6001600160a01b038216610e2d5760405163ec442f0560e01b815260006004820152602401610667565b610751600083836111ca565b6001600160a01b038216610e6357604051634b637e8f60e11b815260006004820152602401610667565b610751826000836111ca565b60006105bd436111d5565b6001600160a01b0382811660008181526008602052604080822080548686166001600160a01b0319821681179092559151919094169392849290917f3134e8a2e6d97e929a7e54011ea5485d7d196dd5f0ba4d4ef95803e8e3fc257f9190a4610ac38183610ee7866113c7565b6113e5565b6001600160a01b03811660009081526009602052604081205461058990611551565b600b80546001600160a01b038381166001600160a01b0319831681179093556040519116919082907f8be0079c531659141344cd1fd0a4f28419497f9722a3daafe3b4186f6b6457e090600090a35050565b6001600160a01b038116600090815260076020526040812054610589565b60606105bd7f00000000000000000000000000000000000000000000000000000000000000006005611582565b60606105bd7f00000000000000000000000000000000000000000000000000000000000000006006611582565b8054600090801561100857610ff283610da4600184612012565b54600160301b90046001600160d01b0316610a5c565b60009392505050565b600061058961101e610ba6565b8360405161190160f01b8152600281019290925260228201526042902090565b6000806000806110508888888861162d565b92509250925061106082826116fc565b50909695505050505050565b6001600160a01b0382166000908152600760205260409020805460018101909155818114610ac3576040516301d4b62360e61b81526001600160a01b038416600482015260248101829052604401610667565b60408051808201909152600080825260208201526001600160a01b0383166000908152600960205260409020610a5c90836117b5565b6001600160a01b03841661111f5760405163e602df0560e01b815260006004820152602401610667565b6001600160a01b03831661114957604051634a1406b160e11b815260006004820152602401610667565b6001600160a01b0380851660009081526001602090815260408083209387168352929052208290558015610b4157826001600160a01b0316846001600160a01b03167f8c5be1e5ebec7d5bd14f71427d1e84f3dd0314c0f7b2291e5b200ac8c7c3b925846040516111bc91815260200190565b60405180910390a350505050565b610ac3838383611825565b600065ffffffffffff821115611208576040516306dfcc6560e41b81526030600482015260248101839052604401610667565b5090565b60006001821161121a575090565b816001600160801b82106112335760809190911c9060401b5b68010000000000000000821061124e5760409190911c9060201b5b64010000000082106112655760209190911c9060101b5b62010000821061127a5760109190911c9060081b5b610100821061128e5760089190911c9060041b5b601082106112a15760049190911c9060021b5b600482106112ad5760011b5b600302600190811c908185816112c5576112c5612025565b048201901c905060018185816112dd576112dd612025565b048201901c905060018185816112f5576112f5612025565b048201901c9050600181858161130d5761130d612025565b048201901c9050600181858161132557611325612025565b048201901c9050600181858161133d5761133d612025565b048201901c905061135c81858161135657611356612025565b04821190565b90039392505050565b60005b818310156113bf57600061137c848461188c565b60008781526020902090915065ffffffffffff86169082015465ffffffffffff1611156113ab578092506113b9565b6113b6816001611fb8565b93505b50611368565b509392505050565b6001600160a01b038116600090815260208190526040812054610589565b816001600160a01b0316836001600160a01b0316141580156114075750600081115b15610ac3576001600160a01b038316156114af576001600160a01b0383166000908152600960205260408120819061144a90610aaa611445866118a7565b6118db565b6001600160d01b031691506001600160d01b03169150846001600160a01b03167fdec2bacdd2f05b59de34da9b523dff8be42e5e38e818c82fdb0bae774387a72483836040516114a4929190918252602082015260400190565b60405180910390a250505b6001600160a01b03821615610ac3576001600160a01b038216600090815260096020526040812081906114e890610a9e611445866118a7565b6001600160d01b031691506001600160d01b03169150836001600160a01b03167fdec2bacdd2f05b59de34da9b523dff8be42e5e38e818c82fdb0bae774387a7248383604051611542929190918252602082015260400190565b60405180910390a25050505050565b600063ffffffff821115611208576040516306dfcc6560e41b81526020600482015260248101839052604401610667565b606060ff831461159c5761159583611914565b9050610589565b8180546115a890611f68565b80601f01602080910402602001604051908101604052809291908181526020018280546115d490611f68565b80156116215780601f106115f657610100808354040283529160200191611621565b820191906000526020600020905b81548152906001019060200180831161160457829003601f168201915b50505050509050610589565b600080807f7fffffffffffffffffffffffffffffff5d576e7357a4501ddfe92f46681b20a084111561166857506000915060039050826116f2565b604080516000808252602082018084528a905260ff891692820192909252606081018790526080810186905260019060a0016020604051602081039080840390855afa1580156116bc573d6000803e3d6000fd5b5050604051601f1901519150506001600160a01b0381166116e8575060009250600191508290506116f2565b9250600091508190505b9450945094915050565b60008260038111156117105761171061203b565b03611719575050565b600182600381111561172d5761172d61203b565b0361174b5760405163f645eedf60e01b815260040160405180910390fd5b600282600381111561175f5761175f61203b565b036117805760405163fce698f760e01b815260048101829052602401610667565b60038260038111156117945761179461203b565b03610751576040516335e2f38360e21b815260048101829052602401610667565b6040805180820190915260008082526020820152826000018263ffffffff16815481106117e4576117e4612051565b60009182526020918290206040805180820190915291015465ffffffffffff81168252600160301b90046001600160d01b0316918101919091529392505050565b611830838383611953565b6001600160a01b03831661188157600061184960025490565b90506001600160d01b038082111561187e57604051630e58ae9360e11b81526004810183905260248101829052604401610667565b50505b610ac3838383611a7d565b600061189b6002848418612067565b610a5c90848416611fb8565b60006001600160d01b03821115611208576040516306dfcc6560e41b815260d0600482015260248101839052604401610667565b6000806119076118e96107ff565b6118ff6118f588610fd8565b868863ffffffff16565b879190611af3565b915091505b935093915050565b6060600061192183611b01565b604080516020808252818301909252919250600091906020820181803683375050509182525060208101929092525090565b6001600160a01b03831661197e5780600260008282546119739190611fb8565b909155506119f09050565b6001600160a01b038316600090815260208190526040902054818110156119d15760405163391434e360e21b81526001600160a01b03851660048201526024810182905260448101839052606401610667565b6001600160a01b03841660009081526020819052604090209082900390555b6001600160a01b038216611a0c57600280548290039055611a2b565b6001600160a01b03821660009081526020819052604090208054820190555b816001600160a01b0316836001600160a01b03167fddf252ad1be2c89b69c2b068fc378daa952ba7f163c4a11628f55a4df523b3ef83604051611a7091815260200190565b60405180910390a3505050565b6001600160a01b038316611a9f57611a9c600a610a9e611445846118a7565b50505b6001600160a01b038216611ac157611abe600a610aaa611445846118a7565b50505b6001600160a01b03838116600090815260086020526040808220548584168352912054610ac3929182169116836113e5565b600080611907858585611b29565b600060ff8216601f81111561058957604051632cd44ac360e21b815260040160405180910390fd5b825460009081908015611c22576000611b4787610da4600185612012565b805490915065ffffffffffff80821691600160301b90046001600160d01b0316908816821115611b8a57604051632520601d60e01b815260040160405180910390fd5b8765ffffffffffff168265ffffffffffff1603611bc357825465ffffffffffff16600160301b6001600160d01b03891602178355611c14565b6040805180820190915265ffffffffffff808a1682526001600160d01b03808a1660208085019182528d54600181018f5560008f81529190912094519151909216600160301b029216919091179101555b945085935061190c92505050565b50506040805180820190915265ffffffffffff80851682526001600160d01b0380851660208085019182528854600181018a5560008a815291822095519251909316600160301b02919093161792019190915590508161190c565b6000815180845260005b81811015611ca357602081850181015186830182015201611c87565b506000602082860101526020601f19601f83011685010191505092915050565b602081526000610a5c6020830184611c7d565b80356001600160a01b0381168114611ced57600080fd5b919050565b60008060408385031215611d0557600080fd5b611d0e83611cd6565b946020939093013593505050565b600080600060608486031215611d3157600080fd5b611d3a84611cd6565b9250611d4860208501611cd6565b9150604084013590509250925092565b600060208284031215611d6a57600080fd5b5035919050565b600060208284031215611d8357600080fd5b610a5c82611cd6565b60ff60f81b881681526000602060e081840152611dac60e084018a611c7d565b8381036040850152611dbe818a611c7d565b606085018990526001600160a01b038816608086015260a0850187905284810360c0860152855180825283870192509083019060005b81811015611e1057835183529284019291840191600101611df4565b50909c9b505050505050505050505050565b803560ff81168114611ced57600080fd5b60008060008060008060c08789031215611e4c57600080fd5b611e5587611cd6565b95506020870135945060408701359350611e7160608801611e22565b92506080870135915060a087013590509295509295509295565b600080600080600080600060e0888a031215611ea657600080fd5b611eaf88611cd6565b9650611ebd60208901611cd6565b95506040880135945060608801359350611ed960808901611e22565b925060a0880135915060c0880135905092959891949750929550565b60008060408385031215611f0857600080fd5b611f1183611cd6565b9150611f1f60208401611cd6565b90509250929050565b60008060408385031215611f3b57600080fd5b611f4483611cd6565b9150602083013563ffffffff81168114611f5d57600080fd5b809150509250929050565b600181811c90821680611f7c57607f821691505b602082108103611f9c57634e487b7160e01b600052602260045260246000fd5b50919050565b634e487b7160e01b600052601160045260246000fd5b8082018082111561058957610589611fa2565b6001600160d01b03818116838216019080821115611feb57611feb611fa2565b5092915050565b6001600160d01b03828116828216039080821115611feb57611feb611fa2565b8181038181111561058957610589611fa2565b634e487b7160e01b600052601260045260246000fd5b634e487b7160e01b600052602160045260246000fd5b634e487b7160e01b600052603260045260246000fd5b60008261208457634e487b7160e01b600052601260045260246000fd5b50049056fea264697066735822122051d5cd24fcd32b250a048c5a9d69f3ef824d70151d66306623d33dbe3bbf3f4564736f6c63430008140033dec2bacdd2f05b59de34da9b523dff8be42e5e38e818c82fdb0bae774387a724",
  "linkReferences": {},
  "deployedLinkReferences": {}
}