{
  "_format": "hh-sol-artifact-1",
  "contractName": "TokenEconomics",
  "sourceName": "contracts/economy/TokenEconomics.sol",
  "abi": [
    {
      "inputs": [],
      "stateMutability": "nonpayable",
      "type": "constructor"
    },
    {
      "inputs": [
        {
          "internalType": "address",
          "name": "owner",
          "type": "address"
        }
      ],
      "name": "OwnableInvalidOwner",
      "type": "error"
    },
    {
      "inputs": [
        {
          "internalType": "address",
          "name": "account",
          "type": "address"
        }
      ],
      "name": "OwnableUnauthorizedAccount",
      "type": "error"
    },
    {
      "anonymous": false,
      "inputs": [
        {
          "indexed": false,
          "internalType": "uint256",
          "name": "oldRate",
          "type": "uint256"
        },
        {
          "indexed": false,
          "internalType": "uint256",
          "name": "newRate",
          "type": "uint256"
        }
      ],
      "name": "EmissionRateUpdated",
      "type": "event"
    },
    {
      "anonymous": false,
      "inputs": [
        {
          "indexed": false,
          "internalType": "uint256",
          "name": "trading",
          "type": "uint256"
        },
        {
          "indexed": false,
          "internalType": "uint256",
          "name": "marketplace",
          "type": "uint256"
        },
        {
          "indexed": false,
          "internalType": "uint256",
          "name": "spawning",
          "type": "uint256"
        }
      ],
      "name": "FeesUpdated",
      "type": "event"
    },
    {
      "anonymous": false,
      "inputs": [
        {
          "indexed": true,
          "internalType": "uint256",
          "name": "incentiveId",
          "type": "uint256"
        },
        {
          "indexed": false,
          "internalType": "string",
          "name": "name",
          "type": "string"
        },
        {
          "indexed": false,
          "internalType": "uint256",
          "name": "rewardRate",
          "type": "uint256"
        }
      ],
      "name": "IncentiveCreated",
      "type": "event"
    },
    {
      "anonymous": false,
      "inputs": [
        {
          "indexed": false,
          "internalType": "uint256",
          "name": "circulating",
          "type": "uint256"
        },
        {
          "indexed": false,
          "internalType": "uint256",
          "name": "burned",
          "type": "uint256"
        },
        {
          "indexed": false,
          "internalType": "uint256",
          "name": "staked",
          "type": "uint256"
        }
      ],
      "name": "MetricsUpdated",
      "type": "event"
    },
    {
      "anonymous": false,
      "inputs": [
        {
          "indexed": true,
          "internalType": "address",
          "name": "previousOwner",
          "type": "address"
        },
        {
          "indexed": true,
          "internalType": "address",
          "name": "newOwner",
          "type": "address"
        }
      ],
      "name": "OwnershipTransferred",
      "type": "event"
    },
    {
      "anonymous": false,
      "inputs": [
        {
          "indexed": true,
          "internalType": "uint256",
          "name": "incentiveId",
          "type": "uint256"
        },
        {
          "indexed": true,
          "internalType": "address",
          "name": "recipient",
          "type": "address"
        },
        {
          "indexed": false,
          "internalType": "uint256",
          "name": "amount",
          "type": "uint256"
        }
      ],
      "name": "RewardDistributed",
      "type": "event"
    },
    {
      "inputs": [],
      "name": "FEE_DENOMINATOR",
      "outputs": [
        {
          "internalType": "uint256",
          "name": "",
          "type": "uint256"
        }
      ],
      "stateMutability": "view",
      "type": "function"
    },
    {
      "inputs": [],
      "name": "INITIAL_SUPPLY",
      "outputs": [
        {
          "internalType": "uint256",
          "name": "",
          "type": "uint256"
        }
      ],
      "stateMutability": "view",
      "type": "function"
    },
    {
      "inputs": [],
      "name": "MAX_SUPPLY",
      "outputs": [
        {
          "internalType": "uint256",
          "name": "",
          "type": "uint256"
        }
      ],
      "stateMutability": "view",
      "type": "function"
    },
    {
      "inputs": [],
      "name": "calculateEmission",
      "outputs": [
        {
          "internalType": "uint256",
          "name": "",
          "type": "uint256"
        }
      ],
      "stateMutability": "view",
      "type": "function"
    },
    {
      "inputs": [
        {
          "internalType": "uint256",
          "name": "incentiveId",
          "type": "uint256"
        },
        {
          "internalType": "address",
          "name": "recipient",
          "type": "address"
        }
      ],
      "name": "distributeReward",
      "outputs": [
        {
          "internalType": "uint256",
          "name": "",
          "type": "uint256"
        }
      ],
      "stateMutability": "nonpayable",
      "type": "function"
    },
    {
      "inputs": [],
      "name": "emissionRate",
      "outputs": [
        {
          "internalType": "uint256",
          "name": "",
          "type": "uint256"
        }
      ],
      "stateMutability": "view",
      "type": "function"
    },
    {
      "inputs": [
        {
          "internalType": "uint256",
          "name": "incentiveId",
          "type": "uint256"
        }
      ],
      "name": "getIncentive",
      "outputs": [
        {
          "components": [
            {
              "internalType": "string",
              "name": "name",
              "type": "string"
            },
            {
              "internalType": "uint256",
              "name": "rewardRate",
              "type": "uint256"
            },
            {
              "internalType": "uint256",
              "name": "maxRewards",
              "type": "uint256"
            },
            {
              "internalType": "uint256",
              "name": "distributed",
              "type": "uint256"
            },
            {
              "internalType": "bool",
              "name": "active",
              "type": "bool"
            }
          ],
          "internalType": "struct TokenEconomics.Incentive",
          "name": "",
          "type": "tuple"
        }
      ],
      "stateMutability": "view",
      "type": "function"
    },
    {
      "inputs": [],
      "name": "getMetrics",
      "outputs": [
        {
          "components": [
            {
              "internalType": "uint256",
              "name": "circulatingSupply",
              "type": "uint256"
            },
            {
              "internalType": "uint256",
              "name": "burnedAmount",
              "type": "uint256"
            },
            {
              "internalType": "uint256",
              "name": "stakedAmount",
              "type": "uint256"
            },
            {
              "internalType": "uint256",
              "name": "treasuryAmount",
              "type": "uint256"
            },
            {
              "internalType": "uint256",
              "name": "lastUpdate",
              "type": "uint256"
            }
          ],
          "internalType": "struct TokenEconomics.EconomicMetrics",
          "name": "",
          "type": "tuple"
        }
      ],
      "stateMutability": "view",
      "type": "function"
    },
    {
      "inputs": [],
      "name": "getTotalValueLocked",
      "outputs": [
        {
          "internalType": "uint256",
          "name": "",
          "type": "uint256"
        }
      ],
      "stateMutability": "view",
      "type": "function"
    },
    {
      "inputs": [],
      "name": "incentiveCount",
      "outputs": [
        {
          "internalType": "uint256",
          "name": "",
          "type": "uint256"
        }
      ],
      "stateMutability": "view",
      "type": "function"
    },
    {
      "inputs": [
        {
          "internalType": "uint256",
          "name": "",
          "type": "uint256"
        }
      ],
      "name": "incentives",
      "outputs": [
        {
          "internalType": "string",
          "name": "name",
          "type": "string"
        },
        {
          "internalType": "uint256",
          "name": "rewardRate",
          "type": "uint256"
        },
        {
          "internalType": "uint256",
          "name": "maxRewards",
          "type": "uint256"
        },
        {
          "internalType": "uint256",
          "name": "distributed",
          "type": "uint256"
        },
        {
          "internalType": "bool",
          "name": "active",
          "type": "bool"
        }
      ],
      "stateMutability": "view",
      "type": "function"
    },
    {
      "inputs": [],
      "name": "lastEmission",
      "outputs": [
        {
          "internalType": "uint256",
          "name": "",
          "type": "uint256"
        }
      ],
      "stateMutability": "view",
      "type": "function"
    },
    {
      "inputs": [],
      "name": "marketplaceFee",
      "outputs": [
        {
          "internalType": "uint256",
          "name": "",
          "type": "uint256"
        }
      ],
      "stateMutability": "view",
      "type": "function"
    },
    {
      "inputs": [],
      "name": "metrics",
      "outputs": [
        {
          "internalType": "uint256",
          "name": "circulatingSupply",
          "type": "uint256"
        },
        {
          "internalType": "uint256",
          "name": "burnedAmount",
          "type": "uint256"
        },
        {
          "internalType": "uint256",
          "name": "stakedAmount",
          "type": "uint256"
        },
        {
          "internalType": "uint256",
          "name": "treasuryAmount",
          "type": "uint256"
        },
        {
          "internalType": "uint256",
          "name": "lastUpdate",
          "type": "uint256"
        }
      ],
      "stateMutability": "view",
      "type": "function"
    },
    {
      "inputs": [],
      "name": "owner",
      "outputs": [
        {
          "internalType": "address",
          "name": "",
          "type": "address"
        }
      ],
      "stateMutability": "view",
      "type": "function"
    },
    {
      "inputs": [],
      "name": "renounceOwnership",
      "outputs": [],
      "stateMutability": "nonpayable",
      "type": "function"
    },
    {
      "inputs": [],
      "name": "spawningFee",
      "outputs": [
        {
          "internalType": "uint256",
          "name": "",
          "type": "uint256"
        }
      ],
      "stateMutability": "view",
      "type": "function"
    },
    {
      "inputs": [],
      "name": "tradingFee",
      "outputs": [
        {
          "internalType": "uint256",
          "name": "",
          "type": "uint256"
        }
      ],
      "stateMutability": "view",
      "type": "function"
    },
    {
      "inputs": [
        {
          "internalType": "address",
          "name": "newOwner",
          "type": "address"
        }
      ],
      "name": "transferOwnership",
      "outputs": [],
      "stateMutability": "nonpayable",
      "type": "function"
    },
    {
      "inputs": [
        {
          "internalType": "uint256",
          "name": "newRate",
          "type": "uint256"
        }
      ],
      "name": "updateEmissionRate",
      "outputs": [],
      "stateMutability": "nonpayable",
      "type": "function"
    },
    {
      "inputs": [
        {
          "internalType": "uint256",
          "name": "_tradingFee",
          "type": "uint256"
        },
        {
          "internalType": "uint256",
          "name": "_marketplaceFee",
          "type": "uint256"
        },
        {
          "internalType": "uint256",
          "name": "_spawningFee",
          "type": "uint256"
        }
      ],
      "name": "updateFees",
      "outputs": [],
      "stateMutability": "nonpayable",
      "type": "function"
    },
    {
      "inputs": [
        {
          "internalType": "uint256",
          "name": "circulating",
          "type": "uint256"
        },
        {
          "internalType": "uint256",
          "name": "burned",
          "type": "uint256"
        },
        {
          "internalType": "uint256",
          "name": "staked",
          "type": "uint256"
        },
        {
          "internalType": "uint256",
          "name": "treasury",
          "type": "uint256"
        }
      ],
      "name": "updateMetrics",
      "outputs": [],
      "stateMutability": "nonpayable",
      "type": "function"
    }
  ],
  "bytecode": "0x6080604052600560085560fa600a5560fa600b556064600c553480156200002557600080fd5b5033806200004d57604051631e4fbdf760e01b81526000600482015260240160405180910390fd5b6200005881620001d3565b506040805160a0810182526b033b2e3c9fd0803ce800000080825260006020808401829052838501829052606084018290524260809094018490526001929092556002819055600381905560045560058290556009919091558151808301909252600f82526e22b73a34ba3c9021b932b0ba34b7b760891b90820152620000f49068056bc75e2d6310000069d3c21bcecceda100000062000223565b5060408051808201909152600d81526c2a37b7b61021b932b0ba34b7b760991b602082015262000139906802b5e3af16b18800006969e10de76676d080000062000223565b5060408051808201909152600f81526e2434b3b4102932b83aba30ba34b7b760891b60208201526200018190680ad78ebc5ac62000006a01a784379d99db4200000062000223565b506040805180820190915260128152712634b8bab4b234ba3c90283937bb34b232b960711b6020820152620001cc90681b1ae4d6e2ef5000006a0422ca8b0a00a42500000062000223565b50620004f7565b600080546001600160a01b038381166001600160a01b0319831681178455604051919092169283917f8be0079c531659141344cd1fd0a4f28419497f9722a3daafe3b4186f6b6457e09190a35050565b6007805460009182919082620002398362000307565b909155506040805160a081018252878152602080820188905281830187905260006060830181905260016080840152848152600690915291909120815192935090918190620002899082620003d4565b50602082015160018201556040808301516002830155606083015160038301556080909201516004909101805460ff19169115159190911790555181907fd887c94422ccbeca3a70fddb8c34c7957bd854ed416fbbe60effdfb454a3d56590620002f79088908890620004a0565b60405180910390a2949350505050565b6000600182016200032857634e487b7160e01b600052601160045260246000fd5b5060010190565b634e487b7160e01b600052604160045260246000fd5b600181811c908216806200035a57607f821691505b6020821081036200037b57634e487b7160e01b600052602260045260246000fd5b50919050565b601f821115620003cf57600081815260208120601f850160051c81016020861015620003aa5750805b601f850160051c820191505b81811015620003cb57828155600101620003b6565b5050505b505050565b81516001600160401b03811115620003f057620003f06200032f565b620004088162000401845462000345565b8462000381565b602080601f831160018114620004405760008415620004275750858301515b600019600386901b1c1916600185901b178555620003cb565b600085815260208120601f198616915b82811015620004715788860151825594840194600190910190840162000450565b5085821015620004905787850151600019600388901b60f8161c191681555b5050505050600190811b01905550565b604081526000835180604084015260005b81811015620004d05760208187018101516060868401015201620004b1565b506000606082850101526060601f19601f8301168401019150508260208301529392505050565b610ca280620005076000396000f3fe608060405234801561001057600080fd5b50600436106101425760003560e01c80638da5cb5b116100b8578063b26025aa1161007c578063b26025aa146102a8578063ccfd6280146102b0578063d73792a9146102d0578063e121c102146102d9578063e7f8b5ef146102fd578063f2fde38b1461031057600080fd5b80638da5cb5b146102315780638dfdc0ca1461024c57806396afc45014610255578063a04748f61461025e578063aa8754e4146102a057600080fd5b80633e18a03f1161010a5780633e18a03f146101b157806343bcc29b146101ba57806356f43352146101cd5780636a166964146101d6578063715018a6146101df5780637606f781146101e757600080fd5b8063069def88146101475780630ba84cd21461016357806322429085146101785780632ff2e9dc1461018b57806332cb6b0c1461019e575b600080fd5b61015060075481565b6040519081526020015b60405180910390f35b6101766101713660046109e5565b610323565b005b6101766101863660046109fe565b6103b6565b6101506b033b2e3c9fd0803ce800000081565b6101506b204fce5e3e2502611000000081565b610150600c5481565b6101506101c8366004610a46565b610479565b610150600a5481565b610150600b5481565b6101766105ab565b6101ef6105bf565b60405161015a9190600060a082019050825182526020830151602083015260408301516040830152606083015160608301526080830151608083015292915050565b6000546040516001600160a01b03909116815260200161015a565b61015060095481565b61015060085481565b600154600254600354600454600554610278949392919085565b604080519586526020860194909452928401919091526060830152608082015260a00161015a565b610150610626565b6101506106e0565b6102c36102be3660046109e5565b6106f7565b60405161015a9190610ab8565b61015061271081565b6102ec6102e73660046109e5565b610809565b60405161015a959493929190610b0a565b61017661030b366004610b43565b6108c3565b61017661031e366004610b75565b61092a565b61032b610968565b600a8111156103715760405162461bcd60e51b815260206004820152600d60248201526c0a4c2e8ca40e8dede40d0d2ced609b1b60448201526064015b60405180910390fd5b600880549082905560408051828152602081018490527f144d30c57e277deb14c5d686b95cf61cfea257d9d551cef4288b2f7db418f87a910160405180910390a15050565b6103be610968565b6103e88311156103e05760405162461bcd60e51b815260040161036890610b97565b6103e88211156104025760405162461bcd60e51b815260040161036890610b97565b6101f48111156104245760405162461bcd60e51b815260040161036890610b97565b600a839055600b829055600c81905560408051848152602081018490529081018290527fcf8a1e1d5f09cf3c97dbb653cd9a4d7aace9292fbc1bb8211febf2d400febbdd9060600160405180910390a1505050565b6000610483610968565b6000838152600660205260409020600481015460ff166104da5760405162461bcd60e51b8152602060048201526012602482015271496e63656e7469766520696e61637469766560701b6044820152606401610368565b8060020154816001015482600301546104f39190610bd3565b11156105375760405162461bcd60e51b815260206004820152601360248201527213585e081c995dd85c991cc81c995858da1959606a1b6044820152606401610368565b806001015481600301600082825461054f9190610bd3565b92505081905550826001600160a01b0316847fab7542bafced3da2d8c881cb2dd1de859fac7c20d3650d2902ad389a64e08883836001015460405161059691815260200190565b60405180910390a36001015490505b92915050565b6105b3610968565b6105bd6000610995565b565b6105f16040518060a0016040528060008152602001600081526020016000815260200160008152602001600081525090565b506040805160a08101825260015481526002546020820152600354918101919091526004546060820152600554608082015290565b60006b204fce5e3e25026110000000600160000154106106465750600090565b6000600954426106569190610be6565b905060006106686301e1338083610bf9565b90508060000361067b5760009250505090565b60006064826008546001600001546106939190610c1b565b61069d9190610c1b565b6106a79190610bf9565b6001549091506000906106c6906b204fce5e3e25026110000000610be6565b90508082116106d557816106d7565b805b94505050505090565b6004546003546000916106f291610bd3565b905090565b61072b6040518060a00160405280606081526020016000815260200160008152602001600081526020016000151581525090565b60008281526006602052604090819020815160a0810190925280548290829061075390610c32565b80601f016020809104026020016040519081016040528092919081815260200182805461077f90610c32565b80156107cc5780601f106107a1576101008083540402835291602001916107cc565b820191906000526020600020905b8154815290600101906020018083116107af57829003601f168201915b505050918352505060018201546020820152600282015460408201526003820154606082015260049091015460ff16151560809091015292915050565b60066020526000908152604090208054819061082490610c32565b80601f016020809104026020016040519081016040528092919081815260200182805461085090610c32565b801561089d5780601f106108725761010080835404028352916020019161089d565b820191906000526020600020905b81548152906001019060200180831161088057829003601f168201915b505050506001830154600284015460038501546004909501549394919390925060ff1685565b6108cb610968565b60018490556002839055600382905560048190554260055560408051858152602081018590529081018390527f30b47c3a685e507da227a870550a387d376e03da27ad5b6a1d8c7517eb2d9b2f9060600160405180910390a150505050565b610932610968565b6001600160a01b03811661095c57604051631e4fbdf760e01b815260006004820152602401610368565b61096581610995565b50565b6000546001600160a01b031633146105bd5760405163118cdaa760e01b8152336004820152602401610368565b600080546001600160a01b038381166001600160a01b0319831681178455604051919092169283917f8be0079c531659141344cd1fd0a4f28419497f9722a3daafe3b4186f6b6457e09190a35050565b6000602082840312156109f757600080fd5b5035919050565b600080600060608486031215610a1357600080fd5b505081359360208301359350604090920135919050565b80356001600160a01b0381168114610a4157600080fd5b919050565b60008060408385031215610a5957600080fd5b82359150610a6960208401610a2a565b90509250929050565b6000815180845260005b81811015610a9857602081850181015186830182015201610a7c565b506000602082860101526020601f19601f83011685010191505092915050565b602081526000825160a06020840152610ad460c0840182610a72565b90506020840151604084015260408401516060840152606084015160808401526080840151151560a08401528091505092915050565b60a081526000610b1d60a0830188610a72565b905085602083015284604083015283606083015282151560808301529695505050505050565b60008060008060808587031215610b5957600080fd5b5050823594602084013594506040840135936060013592509050565b600060208284031215610b8757600080fd5b610b9082610a2a565b9392505050565b6020808252600c908201526b08ccaca40e8dede40d0d2ced60a31b604082015260600190565b634e487b7160e01b600052601160045260246000fd5b808201808211156105a5576105a5610bbd565b818103818111156105a5576105a5610bbd565b600082610c1657634e487b7160e01b600052601260045260246000fd5b500490565b80820281158282048414176105a5576105a5610bbd565b600181811c90821680610c4657607f821691505b602082108103610c6657634e487b7160e01b600052602260045260246000fd5b5091905056fea264697066735822122037deb18c8b94cb8b9ddd30dfb9d2dca058948e2355252ed910a3e8be02e06a7e64736f6c63430008140033",
  "linkReferences": {},
  "deployedLinkReferences": {}
}