{
  "_format": "hh-sol-artifact-1",
  "contractName": "AIDirectorNFT",
  "sourceName": "contracts/layer4/talent/AIDirectorNFT.sol",
  "abi": [
    {
      "inputs": [],
      "stateMutability": "nonpayable",
      "type": "constructor"
    },
    {
      "inputs": [
        {
          "internalType": "address",
          "name": "sender",
          "type": "address"
        },
        {
          "internalType": "uint256",
          "name": "tokenId",
          "type": "uint256"
        },
        {
          "internalType": "address",
          "name": "owner",
          "type": "address"
        }
      ],
      "name": "ERC721IncorrectOwner",
      "type": "error"
    },
    {
      "inputs": [
        {
          "internalType": "address",
          "name": "operator",
          "type": "address"
        },
        {
          "internalType": "uint256",
          "name": "tokenId",
          "type": "uint256"
        }
      ],
      "name": "ERC721InsufficientApproval",
      "type": "error"
    },
    {
      "inputs": [
        {
          "internalType": "address",
          "name": "approver",
          "type": "address"
        }
      ],
      "name": "ERC721InvalidApprover",
      "type": "error"
    },
    {
      "inputs": [
        {
          "internalType": "address",
          "name": "operator",
          "type": "address"
        }
      ],
      "name": "ERC721InvalidOperator",
      "type": "error"
    },
    {
      "inputs": [
        {
          "internalType": "address",
          "name": "owner",
          "type": "address"
        }
      ],
      "name": "ERC721InvalidOwner",
      "type": "error"
    },
    {
      "inputs": [
        {
          "internalType": "address",
          "name": "receiver",
          "type": "address"
        }
      ],
      "name": "ERC721InvalidReceiver",
      "type": "error"
    },
    {
      "inputs": [
        {
          "internalType": "address",
          "name": "sender",
          "type": "address"
        }
      ],
      "name": "ERC721InvalidSender",
      "type": "error"
    },
    {
      "inputs": [
        {
          "internalType": "uint256",
          "name": "tokenId",
          "type": "uint256"
        }
      ],
      "name": "ERC721NonexistentToken",
      "type": "error"
    },
    {
      "inputs": [
        {
          "internalType": "address",
          "name": "owner",
          "type": "address"
        }
      ],
      "name": "OwnableInvalidOwner",
      "type": "error"
    },
    {
      "inputs": [
        {
          "internalType": "address",
          "name": "account",
          "type": "address"
        }
      ],
      "name": "OwnableUnauthorizedAccount",
      "type": "error"
    },
    {
      "anonymous": false,
      "inputs": [
        {
          "indexed": true,
          "internalType": "address",
          "name": "owner",
          "type": "address"
        },
        {
          "indexed": true,
          "internalType": "address",
          "name": "approved",
          "type": "address"
        },
        {
          "indexed": true,
          "internalType": "uint256",
          "name": "tokenId",
          "type": "uint256"
        }
      ],
      "name": "Approval",
      "type": "event"
    },
    {
      "anonymous": false,
      "inputs": [
        {
          "indexed": true,
          "internalType": "address",
          "name": "owner",
          "type": "address"
        },
        {
          "indexed": true,
          "internalType": "address",
          "name": "operator",
          "type": "address"
        },
        {
          "indexed": false,
          "internalType": "bool",
          "name": "approved",
          "type": "bool"
        }
      ],
      "name": "ApprovalForAll",
      "type": "event"
    },
    {
      "anonymous": false,
      "inputs": [
        {
          "indexed": true,
          "internalType": "uint256",
          "name": "directorId",
          "type": "uint256"
        },
        {
          "indexed": true,
          "internalType": "uint256",
          "name": "movieId",
          "type": "uint256"
        },
        {
          "indexed": false,
          "internalType": "uint256",
          "name": "fee",
          "type": "uint256"
        }
      ],
      "name": "DirectorHired",
      "type": "event"
    },
    {
      "anonymous": false,
      "inputs": [
        {
          "indexed": true,
          "internalType": "uint256",
          "name": "directorId",
          "type": "uint256"
        },
        {
          "indexed": true,
          "internalType": "uint256",
          "name": "entityId",
          "type": "uint256"
        },
        {
          "indexed": false,
          "internalType": "string",
          "name": "name",
          "type": "string"
        }
      ],
      "name": "DirectorMinted",
      "type": "event"
    },
    {
      "anonymous": false,
      "inputs": [
        {
          "indexed": true,
          "internalType": "uint256",
          "name": "directorId",
          "type": "uint256"
        },
        {
          "indexed": true,
          "internalType": "uint256",
          "name": "movieId",
          "type": "uint256"
        },
        {
          "indexed": false,
          "internalType": "uint256",
          "name": "rating",
          "type": "uint256"
        }
      ],
      "name": "MovieCompleted",
      "type": "event"
    },
    {
      "anonymous": false,
      "inputs": [
        {
          "indexed": true,
          "internalType": "address",
          "name": "previousOwner",
          "type": "address"
        },
        {
          "indexed": true,
          "internalType": "address",
          "name": "newOwner",
          "type": "address"
        }
      ],
      "name": "OwnershipTransferred",
      "type": "event"
    },
    {
      "anonymous": false,
      "inputs": [
        {
          "indexed": true,
          "internalType": "address",
          "name": "from",
          "type": "address"
        },
        {
          "indexed": true,
          "internalType": "address",
          "name": "to",
          "type": "address"
        },
        {
          "indexed": true,
          "internalType": "uint256",
          "name": "tokenId",
          "type": "uint256"
        }
      ],
      "name": "Transfer",
      "type": "event"
    },
    {
      "inputs": [
        {
          "internalType": "address",
          "name": "to",
          "type": "address"
        },
        {
          "internalType": "uint256",
          "name": "tokenId",
          "type": "uint256"
        }
      ],
      "name": "approve",
      "outputs": [],
      "stateMutability": "nonpayable",
      "type": "function"
    },
    {
      "inputs": [
        {
          "internalType": "address",
          "name": "owner",
          "type": "address"
        }
      ],
      "name": "balanceOf",
      "outputs": [
        {
          "internalType": "uint256",
          "name": "",
          "type": "uint256"
        }
      ],
      "stateMutability": "view",
      "type": "function"
    },
    {
      "inputs": [
        {
          "internalType": "uint256",
          "name": "directorId",
          "type": "uint256"
        },
        {
          "internalType": "uint256",
          "name": "movieId",
          "type": "uint256"
        },
        {
          "internalType": "uint256",
          "name": "rating",
          "type": "uint256"
        },
        {
          "internalType": "uint256",
          "name": "boxOffice",
          "type": "uint256"
        },
        {
          "internalType": "uint256",
          "name": "budget",
          "type": "uint256"
        }
      ],
      "name": "completeMovie",
      "outputs": [],
      "stateMutability": "nonpayable",
      "type": "function"
    },
    {
      "inputs": [
        {
          "internalType": "uint256",
          "name": "",
          "type": "uint256"
        },
        {
          "internalType": "uint256",
          "name": "",
          "type": "uint256"
        }
      ],
      "name": "directorFilmography",
      "outputs": [
        {
          "internalType": "uint256",
          "name": "",
          "type": "uint256"
        }
      ],
      "stateMutability": "view",
      "type": "function"
    },
    {
      "inputs": [
        {
          "internalType": "uint256",
          "name": "",
          "type": "uint256"
        }
      ],
      "name": "directors",
      "outputs": [
        {
          "internalType": "uint256",
          "name": "directorId",
          "type": "uint256"
        },
        {
          "internalType": "uint256",
          "name": "entityId",
          "type": "uint256"
        },
        {
          "internalType": "string",
          "name": "name",
          "type": "string"
        },
        {
          "internalType": "enum AIDirectorNFT.DirectorStyle",
          "name": "style",
          "type": "uint8"
        },
        {
          "internalType": "uint256",
          "name": "visionScore",
          "type": "uint256"
        },
        {
          "internalType": "uint256",
          "name": "technicalScore",
          "type": "uint256"
        },
        {
          "internalType": "uint256",
          "name": "budgetEfficiency",
          "type": "uint256"
        },
        {
          "internalType": "uint256",
          "name": "totalMovies",
          "type": "uint256"
        },
        {
          "internalType": "uint256",
          "name": "averageRating",
          "type": "uint256"
        },
        {
          "internalType": "uint256",
          "name": "totalBoxOffice",
          "type": "uint256"
        },
        {
          "internalType": "uint256",
          "name": "baseRate",
          "type": "uint256"
        },
        {
          "internalType": "bool",
          "name": "available",
          "type": "bool"
        }
      ],
      "stateMutability": "view",
      "type": "function"
    },
    {
      "inputs": [
        {
          "internalType": "uint256",
          "name": "tokenId",
          "type": "uint256"
        }
      ],
      "name": "getApproved",
      "outputs": [
        {
          "internalType": "address",
          "name": "",
          "type": "address"
        }
      ],
      "stateMutability": "view",
      "type": "function"
    },
    {
      "inputs": [
        {
          "internalType": "uint256",
          "name": "directorId",
          "type": "uint256"
        }
      ],
      "name": "getDirector",
      "outputs": [
        {
          "components": [
            {
              "internalType": "uint256",
              "name": "directorId",
              "type": "uint256"
            },
            {
              "internalType": "uint256",
              "name": "entityId",
              "type": "uint256"
            },
            {
              "internalType": "string",
              "name": "name",
              "type": "string"
            },
            {
              "internalType": "enum AIDirectorNFT.DirectorStyle",
              "name": "style",
              "type": "uint8"
            },
            {
              "internalType": "uint256",
              "name": "visionScore",
              "type": "uint256"
            },
            {
              "internalType": "uint256",
              "name": "technicalScore",
              "type": "uint256"
            },
            {
              "internalType": "uint256",
              "name": "budgetEfficiency",
              "type": "uint256"
            },
            {
              "internalType": "uint256",
              "name": "totalMovies",
              "type": "uint256"
            },
            {
              "internalType": "uint256",
              "name": "averageRating",
              "type": "uint256"
            },
            {
              "internalType": "uint256",
              "name": "totalBoxOffice",
              "type": "uint256"
            },
            {
              "internalType": "uint256",
              "name": "baseRate",
              "type": "uint256"
            },
            {
              "internalType": "bool",
              "name": "available",
              "type": "bool"
            }
          ],
          "internalType": "struct AIDirectorNFT.AIDirector",
          "name": "",
          "type": "tuple"
        }
      ],
      "stateMutability": "view",
      "type": "function"
    },
    {
      "inputs": [
        {
          "internalType": "uint256",
          "name": "directorId",
          "type": "uint256"
        }
      ],
      "name": "getFilmography",
      "outputs": [
        {
          "internalType": "uint256[]",
          "name": "",
          "type": "uint256[]"
        }
      ],
      "stateMutability": "view",
      "type": "function"
    },
    {
      "inputs": [
        {
          "internalType": "uint256",
          "name": "directorId",
          "type": "uint256"
        },
        {
          "internalType": "uint256",
          "name": "movieId",
          "type": "uint256"
        }
      ],
      "name": "hireDirector",
      "outputs": [],
      "stateMutability": "payable",
      "type": "function"
    },
    {
      "inputs": [
        {
          "internalType": "address",
          "name": "owner",
          "type": "address"
        },
        {
          "internalType": "address",
          "name": "operator",
          "type": "address"
        }
      ],
      "name": "isApprovedForAll",
      "outputs": [
        {
          "internalType": "bool",
          "name": "",
          "type": "bool"
        }
      ],
      "stateMutability": "view",
      "type": "function"
    },
    {
      "inputs": [
        {
          "internalType": "uint256",
          "name": "entityId",
          "type": "uint256"
        },
        {
          "internalType": "string",
          "name": "name",
          "type": "string"
        },
        {
          "internalType": "enum AIDirectorNFT.DirectorStyle",
          "name": "style",
          "type": "uint8"
        },
        {
          "internalType": "uint256",
          "name": "baseRate",
          "type": "uint256"
        }
      ],
      "name": "mintDirector",
      "outputs": [
        {
          "internalType": "uint256",
          "name": "",
          "type": "uint256"
        }
      ],
      "stateMutability": "nonpayable",
      "type": "function"
    },
    {
      "inputs": [],
      "name": "name",
      "outputs": [
        {
          "internalType": "string",
          "name": "",
          "type": "string"
        }
      ],
      "stateMutability": "view",
      "type": "function"
    },
    {
      "inputs": [],
      "name": "owner",
      "outputs": [
        {
          "internalType": "address",
          "name": "",
          "type": "address"
        }
      ],
      "stateMutability": "view",
      "type": "function"
    },
    {
      "inputs": [
        {
          "internalType": "uint256",
          "name": "tokenId",
          "type": "uint256"
        }
      ],
      "name": "ownerOf",
      "outputs": [
        {
          "internalType": "address",
          "name": "",
          "type": "address"
        }
      ],
      "stateMutability": "view",
      "type": "function"
    },
    {
      "inputs": [],
      "name": "renounceOwnership",
      "outputs": [],
      "stateMutability": "nonpayable",
      "type": "function"
    },
    {
      "inputs": [
        {
          "internalType": "address",
          "name": "from",
          "type": "address"
        },
        {
          "internalType": "address",
          "name": "to",
          "type": "address"
        },
        {
          "internalType": "uint256",
          "name": "tokenId",
          "type": "uint256"
        }
      ],
      "name": "safeTransferFrom",
      "outputs": [],
      "stateMutability": "nonpayable",
      "type": "function"
    },
    {
      "inputs": [
        {
          "internalType": "address",
          "name": "from",
          "type": "address"
        },
        {
          "internalType": "address",
          "name": "to",
          "type": "address"
        },
        {
          "internalType": "uint256",
          "name": "tokenId",
          "type": "uint256"
        },
        {
          "internalType": "bytes",
          "name": "data",
          "type": "bytes"
        }
      ],
      "name": "safeTransferFrom",
      "outputs": [],
      "stateMutability": "nonpayable",
      "type": "function"
    },
    {
      "inputs": [
        {
          "internalType": "address",
          "name": "operator",
          "type": "address"
        },
        {
          "internalType": "bool",
          "name": "approved",
          "type": "bool"
        }
      ],
      "name": "setApprovalForAll",
      "outputs": [],
      "stateMutability": "nonpayable",
      "type": "function"
    },
    {
      "inputs": [
        {
          "internalType": "uint256",
          "name": "directorId",
          "type": "uint256"
        },
        {
          "internalType": "bool",
          "name": "available",
          "type": "bool"
        }
      ],
      "name": "setAvailability",
      "outputs": [],
      "stateMutability": "nonpayable",
      "type": "function"
    },
    {
      "inputs": [
        {
          "internalType": "bytes4",
          "name": "interfaceId",
          "type": "bytes4"
        }
      ],
      "name": "supportsInterface",
      "outputs": [
        {
          "internalType": "bool",
          "name": "",
          "type": "bool"
        }
      ],
      "stateMutability": "view",
      "type": "function"
    },
    {
      "inputs": [],
      "name": "symbol",
      "outputs": [
        {
          "internalType": "string",
          "name": "",
          "type": "string"
        }
      ],
      "stateMutability": "view",
      "type": "function"
    },
    {
      "inputs": [
        {
          "internalType": "uint256",
          "name": "tokenId",
          "type": "uint256"
        }
      ],
      "name": "tokenURI",
      "outputs": [
        {
          "internalType": "string",
          "name": "",
          "type": "string"
        }
      ],
      "stateMutability": "view",
      "type": "function"
    },
    {
      "inputs": [
        {
          "internalType": "address",
          "name": "from",
          "type": "address"
        },
        {
          "internalType": "address",
          "name": "to",
          "type": "address"
        },
        {
          "internalType": "uint256",
          "name": "tokenId",
          "type": "uint256"
        }
      ],
      "name": "transferFrom",
      "outputs": [],
      "stateMutability": "nonpayable",
      "type": "function"
    },
    {
      "inputs": [
        {
          "internalType": "address",
          "name": "newOwner",
          "type": "address"
        }
      ],
      "name": "transferOwnership",
      "outputs": [],
      "stateMutability": "nonpayable",
      "type": "function"
    },
    {
      "inputs": [
        {
          "internalType": "uint256",
          "name": "directorId",
          "type": "uint256"
        },
        {
          "internalType": "uint256",
          "name": "newRate",
          "type": "uint256"
        }
      ],
      "name": "updateBaseRate",
      "outputs": [],
      "stateMutability": "nonpayable",
      "type": "function"
    }
  ],
  "bytecode": "0x60806040523480156200001157600080fd5b50336040518060400160405280600f81526020016e27a0a71020a4902234b932b1ba37b960891b815250604051806040016040528060088152602001672224a922a1aa27a960c11b81525081600090816200006d9190620001b7565b5060016200007c8282620001b7565b5050506001600160a01b038116620000ae57604051631e4fbdf760e01b81526000600482015260240160405180910390fd5b620000b981620000c0565b5062000283565b600680546001600160a01b038381166001600160a01b0319831681179093556040519116919082907f8be0079c531659141344cd1fd0a4f28419497f9722a3daafe3b4186f6b6457e090600090a35050565b634e487b7160e01b600052604160045260246000fd5b600181811c908216806200013d57607f821691505b6020821081036200015e57634e487b7160e01b600052602260045260246000fd5b50919050565b601f821115620001b257600081815260208120601f850160051c810160208610156200018d5750805b601f850160051c820191505b81811015620001ae5782815560010162000199565b5050505b505050565b81516001600160401b03811115620001d357620001d362000112565b620001eb81620001e4845462000128565b8462000164565b602080601f8311600181146200022357600084156200020a5750858301515b600019600386901b1c1916600185901b178555620001ae565b600085815260208120601f198616915b82811015620002545788860151825594840194600190910190840162000233565b5085821015620002735787850151600019600388901b60f8161c191681555b5050505050600190811b01905550565b611fde80620002936000396000f3fe6080604052600436106101665760003560e01c80638da5cb5b116100d1578063c87b56dd1161008a578063e985e9c511610064578063e985e9c51461043f578063eb863f101461045f578063efa8154e1461047f578063f2fde38b146104b757600080fd5b8063c87b56dd146103d2578063e0231b81146103f2578063e30409d51461041f57600080fd5b80638da5cb5b1461031257806395d89b4114610330578063a22cb46514610345578063a865bf8014610365578063b88d4fde14610385578063c32da25f146103a557600080fd5b806323b872dd1161012357806323b872dd1461024f57806341680eab1461026f57806342842e0e1461028f5780636352211e146102af57806370a08231146102cf578063715018a6146102fd57600080fd5b806301ffc9a71461016b57806306fdde03146101a0578063081812fc146101c2578063095ea7b3146101fa578063111bf4cf1461021c5780631857c4c51461023c575b600080fd5b34801561017757600080fd5b5061018b6101863660046117fd565b6104d7565b60405190151581526020015b60405180910390f35b3480156101ac57600080fd5b506101b5610529565b604051610197919061186a565b3480156101ce57600080fd5b506101e26101dd36600461187d565b6105bb565b6040516001600160a01b039091168152602001610197565b34801561020657600080fd5b5061021a6102153660046118b2565b6105e4565b005b34801561022857600080fd5b5061021a6102373660046118dc565b6105f3565b61021a61024a3660046118dc565b610659565b34801561025b57600080fd5b5061021a61026a3660046118fe565b6107a2565b34801561027b57600080fd5b5061021a61028a36600461193a565b61082d565b34801561029b57600080fd5b5061021a6102aa3660046118fe565b610977565b3480156102bb57600080fd5b506101e26102ca36600461187d565b610997565b3480156102db57600080fd5b506102ef6102ea366004611975565b6109a2565b604051908152602001610197565b34801561030957600080fd5b5061021a6109ea565b34801561031e57600080fd5b506006546001600160a01b03166101e2565b34801561033c57600080fd5b506101b56109fe565b34801561035157600080fd5b5061021a6103603660046119a0565b610a0d565b34801561037157600080fd5b5061021a6103803660046119d3565b610a18565b34801561039157600080fd5b5061021a6103a0366004611a82565b610a87565b3480156103b157600080fd5b506103c56103c036600461187d565b610a9f565b6040516101979190611afe565b3480156103de57600080fd5b506101b56103ed36600461187d565b610b01565b3480156103fe57600080fd5b5061041261040d36600461187d565b610b76565b6040516101979190611b7a565b34801561042b57600080fd5b506102ef61043a3660046118dc565b610cd2565b34801561044b57600080fd5b5061018b61045a366004611c38565b610d03565b34801561046b57600080fd5b506102ef61047a366004611c62565b610d31565b34801561048b57600080fd5b5061049f61049a36600461187d565b610ed1565b6040516101979c9b9a99989796959493929190611cdb565b3480156104c357600080fd5b5061021a6104d2366004611975565b610fbc565b60006001600160e01b031982166380ac58cd60e01b148061050857506001600160e01b03198216635b5e139f60e01b145b8061052357506301ffc9a760e01b6001600160e01b03198316145b92915050565b60606000805461053890611d51565b80601f016020809104026020016040519081016040528092919081815260200182805461056490611d51565b80156105b15780601f10610586576101008083540402835291602001916105b1565b820191906000526020600020905b81548152906001019060200180831161059457829003601f168201915b5050505050905090565b60006105c682610ffa565b506000828152600460205260409020546001600160a01b0316610523565b6105ef828233611033565b5050565b336105fd83610997565b6001600160a01b0316146106445760405162461bcd60e51b81526020600482015260096024820152682737ba1037bbb732b960b91b60448201526064015b60405180910390fd5b600091825260086020526040909120600a0155565b6000828152600860205260409020600b81015460ff166106b45760405162461bcd60e51b81526020600482015260166024820152754469726563746f72206e6f7420617661696c61626c6560501b604482015260640161063b565b80600a01543410156106ff5760405162461bcd60e51b8152602060048201526014602482015273125b9cdd59999a58da595b9d081c185e5b595b9d60621b604482015260640161063b565b60008381526009602090815260408220805460018101825590835291200182905561072983610997565b6001600160a01b03166108fc349081150290604051600060405180830381858888f19350505050158015610761573d6000803e3d6000fd5b5081837fa19ff7f5941eb3ba7a2e406826c32e6a681669cc4d5ebd6f19b3404466cbf1a43460405161079591815260200190565b60405180910390a3505050565b6001600160a01b0382166107cc57604051633250574960e11b81526000600482015260240161063b565b60006107d9838333611040565b9050836001600160a01b0316816001600160a01b031614610827576040516364283d7b60e01b81526001600160a01b038086166004830152602482018490528216604482015260640161063b565b50505050565b6000858152600860205260408120600781018054919261084c83611da1565b9190505550828160090160008282546108659190611dba565b909155505060078101548461087b600183611dcd565b836008015461088a9190611de0565b6108949190611dba565b61089e9190611df7565b60088201558115610900576000826108b885612710611de0565b6108c29190611df7565b6007830154909150816108d6600183611dcd565b84600601546108e59190611de0565b6108ef9190611dba565b6108f99190611df7565b6006830155505b611b588411156109345761091981600401546064611139565b6004820155600581015461092e906032611139565b60058201555b84867f1dd306e895c963ec307b1fc346fcbc364623c1f4d9d07d4dc6368a1cae9a6c118660405161096791815260200190565b60405180910390a3505050505050565b61099283838360405180602001604052806000815250610a87565b505050565b600061052382610ffa565b60006001600160a01b0382166109ce576040516322718ad960e21b81526000600482015260240161063b565b506001600160a01b031660009081526003602052604090205490565b6109f2611163565b6109fc6000611190565b565b60606001805461053890611d51565b6105ef3383836111e2565b33610a2283610997565b6001600160a01b031614610a645760405162461bcd60e51b81526020600482015260096024820152682737ba1037bbb732b960b91b604482015260640161063b565b600091825260086020526040909120600b01805460ff1916911515919091179055565b610a928484846107a2565b6108273385858585611279565b600081815260096020908152604091829020805483518184028101840190945280845260609392830182828015610af557602002820191906000526020600020905b815481526020019060010190808311610ae1575b50505050509050919050565b6060610b0c82610ffa565b506000610b2460408051602081019091526000815290565b90506000815111610b445760405180602001604052806000815250610b6f565b80610b4e846113a4565b604051602001610b5f929190611e19565b6040516020818303038152906040525b9392505050565b610b7e611773565b60086000838152602001908152602001600020604051806101800160405290816000820154815260200160018201548152602001600282018054610bc190611d51565b80601f0160208091040260200160405190810160405280929190818152602001828054610bed90611d51565b8015610c3a5780601f10610c0f57610100808354040283529160200191610c3a565b820191906000526020600020905b815481529060010190602001808311610c1d57829003601f168201915b5050509183525050600382015460209091019060ff166006811115610c6157610c61611b42565b6006811115610c7257610c72611b42565b815260048201546020820152600582015460408201526006820154606082015260078201546080820152600882015460a0820152600982015460c0820152600a82015460e0820152600b9091015460ff1615156101009091015292915050565b60096020528160005260406000208181548110610cee57600080fd5b90600052602060002001600091509150505481565b6001600160a01b03918216600090815260056020908152604080832093909416825291909152205460ff1690565b6007805460009182610d4283611da1565b9091555050600754610d543382611437565b604051806101800160405280828152602001878152602001868152602001856006811115610d8457610d84611b42565b8152602001611388815260200161138881526020016113888152602001600081526020016000815260200160008152602001848152602001600115158152506008600083815260200190815260200160002060008201518160000155602082015181600101556040820151816002019081610dff9190611e8e565b50606082015160038201805460ff19166001836006811115610e2357610e23611b42565b02179055506080820151600482015560a0820151600582015560c0820151600682015560e0820151600782015561010082015160088201556101208201516009820155610140820151600a82015561016090910151600b909101805460ff1916911515919091179055604051869082907f1ac82634ef59e7d3fed7b2ea86a41cf486b3e3716694a642f6b356879b3800f690610ec090899061186a565b60405180910390a395945050505050565b60086020526000908152604090208054600182015460028301805492939192610ef990611d51565b80601f0160208091040260200160405190810160405280929190818152602001828054610f2590611d51565b8015610f725780601f10610f4757610100808354040283529160200191610f72565b820191906000526020600020905b815481529060010190602001808311610f5557829003601f168201915b50505060038401546004850154600586015460068701546007880154600889015460098a0154600a8b0154600b909b0154999a60ff9788169a96995094975092959194909391168c565b610fc4611163565b6001600160a01b038116610fee57604051631e4fbdf760e01b81526000600482015260240161063b565b610ff781611190565b50565b6000818152600260205260408120546001600160a01b03168061052357604051637e27328960e01b81526004810184905260240161063b565b6109928383836001611451565b6000828152600260205260408120546001600160a01b039081169083161561106d5761106d818486611557565b6001600160a01b038116156110ab5761108a600085600080611451565b6001600160a01b038116600090815260036020526040902080546000190190555b6001600160a01b038516156110da576001600160a01b0385166000908152600360205260409020805460010190555b60008481526002602052604080822080546001600160a01b0319166001600160a01b0389811691821790925591518793918516917fddf252ad1be2c89b69c2b068fc378daa952ba7f163c4a11628f55a4df523b3ef91a4949350505050565b6000806111468385611dba565b90506127108111611157578061115b565b6127105b949350505050565b6006546001600160a01b031633146109fc5760405163118cdaa760e01b815233600482015260240161063b565b600680546001600160a01b038381166001600160a01b0319831681179093556040519116919082907f8be0079c531659141344cd1fd0a4f28419497f9722a3daafe3b4186f6b6457e090600090a35050565b6001600160a01b03821661121457604051630b61174360e31b81526001600160a01b038316600482015260240161063b565b6001600160a01b03838116600081815260056020908152604080832094871680845294825291829020805460ff191686151590811790915591519182527f17307eab39ab6107e8899845ad3d59bd9653f200f220920489ca2b5937696c319101610795565b6001600160a01b0383163b1561139d57604051630a85bd0160e11b81526001600160a01b0384169063150b7a02906112bb908890889087908790600401611f4e565b6020604051808303816000875af19250505080156112f6575060408051601f3d908101601f191682019092526112f391810190611f8b565b60015b61135f573d808015611324576040519150601f19603f3d011682016040523d82523d6000602084013e611329565b606091505b50805160000361135757604051633250574960e11b81526001600160a01b038516600482015260240161063b565b805160208201fd5b6001600160e01b03198116630a85bd0160e11b1461139b57604051633250574960e11b81526001600160a01b038516600482015260240161063b565b505b5050505050565b606060006113b1836115bb565b600101905060008167ffffffffffffffff8111156113d1576113d16119f6565b6040519080825280601f01601f1916602001820160405280156113fb576020820181803683370190505b5090508181016020015b600019016f181899199a1a9b1b9c1cb0b131b232b360811b600a86061a8153600a850494508461140557509392505050565b6105ef828260405180602001604052806000815250611693565b808061146557506001600160a01b03821615155b1561152757600061147584610ffa565b90506001600160a01b038316158015906114a15750826001600160a01b0316816001600160a01b031614155b80156114b457506114b28184610d03565b155b156114dd5760405163a9fbf51f60e01b81526001600160a01b038416600482015260240161063b565b81156115255783856001600160a01b0316826001600160a01b03167f8c5be1e5ebec7d5bd14f71427d1e84f3dd0314c0f7b2291e5b200ac8c7c3b92560405160405180910390a45b505b5050600090815260046020526040902080546001600160a01b0319166001600160a01b0392909216919091179055565b6115628383836116ab565b610992576001600160a01b03831661159057604051637e27328960e01b81526004810182905260240161063b565b60405163177e802f60e01b81526001600160a01b03831660048201526024810182905260440161063b565b60008072184f03e93ff9f4daa797ed6e38ed64bf6a1f0160401b83106115fa5772184f03e93ff9f4daa797ed6e38ed64bf6a1f0160401b830492506040015b6d04ee2d6d415b85acef81000000008310611626576d04ee2d6d415b85acef8100000000830492506020015b662386f26fc10000831061164457662386f26fc10000830492506010015b6305f5e100831061165c576305f5e100830492506008015b612710831061167057612710830492506004015b60648310611682576064830492506002015b600a83106105235760010192915050565b61169d838361170e565b610992336000858585611279565b60006001600160a01b0383161580159061115b5750826001600160a01b0316846001600160a01b031614806116e557506116e58484610d03565b8061115b5750506000908152600460205260409020546001600160a01b03908116911614919050565b6001600160a01b03821661173857604051633250574960e11b81526000600482015260240161063b565b600061174683836000611040565b90506001600160a01b03811615610992576040516339e3563760e11b81526000600482015260240161063b565b604051806101800160405280600081526020016000815260200160608152602001600060068111156117a7576117a7611b42565b8152602001600081526020016000815260200160008152602001600081526020016000815260200160008152602001600081526020016000151581525090565b6001600160e01b031981168114610ff757600080fd5b60006020828403121561180f57600080fd5b8135610b6f816117e7565b60005b8381101561183557818101518382015260200161181d565b50506000910152565b6000815180845261185681602086016020860161181a565b601f01601f19169290920160200192915050565b602081526000610b6f602083018461183e565b60006020828403121561188f57600080fd5b5035919050565b80356001600160a01b03811681146118ad57600080fd5b919050565b600080604083850312156118c557600080fd5b6118ce83611896565b946020939093013593505050565b600080604083850312156118ef57600080fd5b50508035926020909101359150565b60008060006060848603121561191357600080fd5b61191c84611896565b925061192a60208501611896565b9150604084013590509250925092565b600080600080600060a0868803121561195257600080fd5b505083359560208501359550604085013594606081013594506080013592509050565b60006020828403121561198757600080fd5b610b6f82611896565b803580151581146118ad57600080fd5b600080604083850312156119b357600080fd5b6119bc83611896565b91506119ca60208401611990565b90509250929050565b600080604083850312156119e657600080fd5b823591506119ca60208401611990565b634e487b7160e01b600052604160045260246000fd5b600067ffffffffffffffff80841115611a2757611a276119f6565b604051601f8501601f19908116603f01168101908282118183101715611a4f57611a4f6119f6565b81604052809350858152868686011115611a6857600080fd5b858560208301376000602087830101525050509392505050565b60008060008060808587031215611a9857600080fd5b611aa185611896565b9350611aaf60208601611896565b925060408501359150606085013567ffffffffffffffff811115611ad257600080fd5b8501601f81018713611ae357600080fd5b611af287823560208401611a0c565b91505092959194509250565b6020808252825182820181905260009190848201906040850190845b81811015611b3657835183529284019291840191600101611b1a565b50909695505050505050565b634e487b7160e01b600052602160045260246000fd5b60078110611b7657634e487b7160e01b600052602160045260246000fd5b9052565b60208152815160208201526020820151604082015260006040830151610180806060850152611bad6101a085018361183e565b91506060850151611bc16080860182611b58565b50608085015160a085015260a085015160c085015260c085015160e085015260e0850151610100818187015280870151915050610120818187015280870151915050610140818187015280870151915050610160818187015280870151915050611c2e8286018215159052565b5090949350505050565b60008060408385031215611c4b57600080fd5b611c5483611896565b91506119ca60208401611896565b60008060008060808587031215611c7857600080fd5b84359350602085013567ffffffffffffffff811115611c9657600080fd5b8501601f81018713611ca757600080fd5b611cb687823560208401611a0c565b935050604085013560078110611ccb57600080fd5b9396929550929360600135925050565b60006101808e83528d6020840152806040840152611cfb8184018e61183e565b915050611d0b606083018c611b58565b608082019990995260a081019790975260c087019590955260e0860193909352610100850191909152610120840152610140830152151561016090910152949350505050565b600181811c90821680611d6557607f821691505b602082108103611d8557634e487b7160e01b600052602260045260246000fd5b50919050565b634e487b7160e01b600052601160045260246000fd5b600060018201611db357611db3611d8b565b5060010190565b8082018082111561052357610523611d8b565b8181038181111561052357610523611d8b565b808202811582820484141761052357610523611d8b565b600082611e1457634e487b7160e01b600052601260045260246000fd5b500490565b60008351611e2b81846020880161181a565b835190830190611e3f81836020880161181a565b01949350505050565b601f82111561099257600081815260208120601f850160051c81016020861015611e6f5750805b601f850160051c820191505b8181101561139b57828155600101611e7b565b815167ffffffffffffffff811115611ea857611ea86119f6565b611ebc81611eb68454611d51565b84611e48565b602080601f831160018114611ef15760008415611ed95750858301515b600019600386901b1c1916600185901b17855561139b565b600085815260208120601f198616915b82811015611f2057888601518255948401946001909101908401611f01565b5085821015611f3e5787850151600019600388901b60f8161c191681555b5050505050600190811b01905550565b6001600160a01b0385811682528416602082015260408101839052608060608201819052600090611f819083018461183e565b9695505050505050565b600060208284031215611f9d57600080fd5b8151610b6f816117e756fea2646970667358221220bd4defad1f32abb288c09175ca860cb70a0232b6da943a321aee3ae4fc38d3b364736f6c63430008140033",
  "linkReferences": {},
  "deployedLinkReferences": {}
}