{
  "_format": "hh-sol-artifact-1",
  "contractName": "BundleMarketplace",
  "sourceName": "contracts/layer6/marketplace/BundleMarketplace.sol",
  "abi": [
    {
      "inputs": [
        {
          "internalType": "address",
          "name": "_treasury",
          "type": "address"
        }
      ],
      "stateMutability": "nonpayable",
      "type": "constructor"
    },
    {
      "inputs": [],
      "name": "AccessControlBadConfirmation",
      "type": "error"
    },
    {
      "inputs": [
        {
          "internalType": "address",
          "name": "account",
          "type": "address"
        },
        {
          "internalType": "bytes32",
          "name": "neededRole",
          "type": "bytes32"
        }
      ],
      "name": "AccessControlUnauthorizedAccount",
      "type": "error"
    },
    {
      "inputs": [],
      "name": "ReentrancyGuardReentrantCall",
      "type": "error"
    },
    {
      "anonymous": false,
      "inputs": [
        {
          "indexed": true,
          "internalType": "uint256",
          "name": "bundleId",
          "type": "uint256"
        }
      ],
      "name": "BundleCancelled",
      "type": "event"
    },
    {
      "anonymous": false,
      "inputs": [
        {
          "indexed": true,
          "internalType": "uint256",
          "name": "bundleId",
          "type": "uint256"
        },
        {
          "indexed": true,
          "internalType": "address",
          "name": "seller",
          "type": "address"
        },
        {
          "indexed": false,
          "internalType": "uint256",
          "name": "price",
          "type": "uint256"
        },
        {
          "indexed": false,
          "internalType": "uint256",
          "name": "itemCount",
          "type": "uint256"
        }
      ],
      "name": "BundleCreated",
      "type": "event"
    },
    {
      "anonymous": false,
      "inputs": [
        {
          "indexed": true,
          "internalType": "uint256",
          "name": "bundleId",
          "type": "uint256"
        },
        {
          "indexed": true,
          "internalType": "address",
          "name": "buyer",
          "type": "address"
        },
        {
          "indexed": false,
          "internalType": "uint256",
          "name": "price",
          "type": "uint256"
        }
      ],
      "name": "BundleSold",
      "type": "event"
    },
    {
      "anonymous": false,
      "inputs": [
        {
          "indexed": true,
          "internalType": "bytes32",
          "name": "role",
          "type": "bytes32"
        },
        {
          "indexed": true,
          "internalType": "bytes32",
          "name": "previousAdminRole",
          "type": "bytes32"
        },
        {
          "indexed": true,
          "internalType": "bytes32",
          "name": "newAdminRole",
          "type": "bytes32"
        }
      ],
      "name": "RoleAdminChanged",
      "type": "event"
    },
    {
      "anonymous": false,
      "inputs": [
        {
          "indexed": true,
          "internalType": "bytes32",
          "name": "role",
          "type": "bytes32"
        },
        {
          "indexed": true,
          "internalType": "address",
          "name": "account",
          "type": "address"
        },
        {
          "indexed": true,
          "internalType": "address",
          "name": "sender",
          "type": "address"
        }
      ],
      "name": "RoleGranted",
      "type": "event"
    },
    {
      "anonymous": false,
      "inputs": [
        {
          "indexed": true,
          "internalType": "bytes32",
          "name": "role",
          "type": "bytes32"
        },
        {
          "indexed": true,
          "internalType": "address",
          "name": "account",
          "type": "address"
        },
        {
          "indexed": true,
          "internalType": "address",
          "name": "sender",
          "type": "address"
        }
      ],
      "name": "RoleRevoked",
      "type": "event"
    },
    {
      "inputs": [],
      "name": "DEFAULT_ADMIN_ROLE",
      "outputs": [
        {
          "internalType": "bytes32",
          "name": "",
          "type": "bytes32"
        }
      ],
      "stateMutability": "view",
      "type": "function"
    },
    {
      "inputs": [],
      "name": "OPERATOR_ROLE",
      "outputs": [
        {
          "internalType": "bytes32",
          "name": "",
          "type": "bytes32"
        }
      ],
      "stateMutability": "view",
      "type": "function"
    },
    {
      "inputs": [
        {
          "internalType": "uint256",
          "name": "",
          "type": "uint256"
        },
        {
          "internalType": "uint256",
          "name": "",
          "type": "uint256"
        }
      ],
      "name": "bundleItems",
      "outputs": [
        {
          "internalType": "address",
          "name": "nftContract",
          "type": "address"
        },
        {
          "internalType": "uint256",
          "name": "tokenId",
          "type": "uint256"
        },
        {
          "internalType": "uint256",
          "name": "amount",
          "type": "uint256"
        },
        {
          "internalType": "enum BundleMarketplace.TokenType",
          "name": "tokenType",
          "type": "uint8"
        }
      ],
      "stateMutability": "view",
      "type": "function"
    },
    {
      "inputs": [
        {
          "internalType": "uint256",
          "name": "",
          "type": "uint256"
        }
      ],
      "name": "bundles",
      "outputs": [
        {
          "internalType": "uint256",
          "name": "bundleId",
          "type": "uint256"
        },
        {
          "internalType": "address",
          "name": "seller",
          "type": "address"
        },
        {
          "internalType": "string",
          "name": "name",
          "type": "string"
        },
        {
          "internalType": "string",
          "name": "description",
          "type": "string"
        },
        {
          "internalType": "uint256",
          "name": "price",
          "type": "uint256"
        },
        {
          "internalType": "enum BundleMarketplace.BundleStatus",
          "name": "status",
          "type": "uint8"
        },
        {
          "internalType": "uint256",
          "name": "listedAt",
          "type": "uint256"
        },
        {
          "internalType": "uint256",
          "name": "expiresAt",
          "type": "uint256"
        },
        {
          "internalType": "uint256",
          "name": "discountBps",
          "type": "uint256"
        }
      ],
      "stateMutability": "view",
      "type": "function"
    },
    {
      "inputs": [
        {
          "internalType": "uint256",
          "name": "bundleId",
          "type": "uint256"
        }
      ],
      "name": "buyBundle",
      "outputs": [],
      "stateMutability": "payable",
      "type": "function"
    },
    {
      "inputs": [
        {
          "internalType": "address",
          "name": "",
          "type": "address"
        },
        {
          "internalType": "uint256",
          "name": "",
          "type": "uint256"
        }
      ],
      "name": "buyerBundles",
      "outputs": [
        {
          "internalType": "uint256",
          "name": "",
          "type": "uint256"
        }
      ],
      "stateMutability": "view",
      "type": "function"
    },
    {
      "inputs": [
        {
          "internalType": "uint256",
          "name": "bundleId",
          "type": "uint256"
        }
      ],
      "name": "cancelBundle",
      "outputs": [],
      "stateMutability": "nonpayable",
      "type": "function"
    },
    {
      "inputs": [
        {
          "internalType": "string",
          "name": "name",
          "type": "string"
        },
        {
          "internalType": "string",
          "name": "description",
          "type": "string"
        },
        {
          "components": [
            {
              "internalType": "address",
              "name": "nftContract",
              "type": "address"
            },
            {
              "internalType": "uint256",
              "name": "tokenId",
              "type": "uint256"
            },
            {
              "internalType": "uint256",
              "name": "amount",
              "type": "uint256"
            },
            {
              "internalType": "enum BundleMarketplace.TokenType",
              "name": "tokenType",
              "type": "uint8"
            }
          ],
          "internalType": "struct BundleMarketplace.BundleItem[]",
          "name": "items",
          "type": "tuple[]"
        },
        {
          "internalType": "uint256",
          "name": "price",
          "type": "uint256"
        },
        {
          "internalType": "uint256",
          "name": "duration",
          "type": "uint256"
        },
        {
          "internalType": "uint256",
          "name": "discountBps",
          "type": "uint256"
        }
      ],
      "name": "createBundle",
      "outputs": [
        {
          "internalType": "uint256",
          "name": "",
          "type": "uint256"
        }
      ],
      "stateMutability": "nonpayable",
      "type": "function"
    },
    {
      "inputs": [
        {
          "internalType": "uint256",
          "name": "bundleId",
          "type": "uint256"
        }
      ],
      "name": "getBundleItems",
      "outputs": [
        {
          "components": [
            {
              "internalType": "address",
              "name": "nftContract",
              "type": "address"
            },
            {
              "internalType": "uint256",
              "name": "tokenId",
              "type": "uint256"
            },
            {
              "internalType": "uint256",
              "name": "amount",
              "type": "uint256"
            },
            {
              "internalType": "enum BundleMarketplace.TokenType",
              "name": "tokenType",
              "type": "uint8"
            }
          ],
          "internalType": "struct BundleMarketplace.BundleItem[]",
          "name": "",
          "type": "tuple[]"
        }
      ],
      "stateMutability": "view",
      "type": "function"
    },
    {
      "inputs": [
        {
          "internalType": "bytes32",
          "name": "role",
          "type": "bytes32"
        }
      ],
      "name": "getRoleAdmin",
      "outputs": [
        {
          "internalType": "bytes32",
          "name": "",
          "type": "bytes32"
        }
      ],
      "stateMutability": "view",
      "type": "function"
    },
    {
      "inputs": [
        {
          "internalType": "address",
          "name": "seller",
          "type": "address"
        }
      ],
      "name": "getSellerBundles",
      "outputs": [
        {
          "internalType": "uint256[]",
          "name": "",
          "type": "uint256[]"
        }
      ],
      "stateMutability": "view",
      "type": "function"
    },
    {
      "inputs": [
        {
          "internalType": "bytes32",
          "name": "role",
          "type": "bytes32"
        },
        {
          "internalType": "address",
          "name": "account",
          "type": "address"
        }
      ],
      "name": "grantRole",
      "outputs": [],
      "stateMutability": "nonpayable",
      "type": "function"
    },
    {
      "inputs": [
        {
          "internalType": "bytes32",
          "name": "role",
          "type": "bytes32"
        },
        {
          "internalType": "address",
          "name": "account",
          "type": "address"
        }
      ],
      "name": "hasRole",
      "outputs": [
        {
          "internalType": "bool",
          "name": "",
          "type": "bool"
        }
      ],
      "stateMutability": "view",
      "type": "function"
    },
    {
      "inputs": [],
      "name": "platformFeeBps",
      "outputs": [
        {
          "internalType": "uint256",
          "name": "",
          "type": "uint256"
        }
      ],
      "stateMutability": "view",
      "type": "function"
    },
    {
      "inputs": [
        {
          "internalType": "bytes32",
          "name": "role",
          "type": "bytes32"
        },
        {
          "internalType": "address",
          "name": "callerConfirmation",
          "type": "address"
        }
      ],
      "name": "renounceRole",
      "outputs": [],
      "stateMutability": "nonpayable",
      "type": "function"
    },
    {
      "inputs": [
        {
          "internalType": "bytes32",
          "name": "role",
          "type": "bytes32"
        },
        {
          "internalType": "address",
          "name": "account",
          "type": "address"
        }
      ],
      "name": "revokeRole",
      "outputs": [],
      "stateMutability": "nonpayable",
      "type": "function"
    },
    {
      "inputs": [
        {
          "internalType": "address",
          "name": "",
          "type": "address"
        },
        {
          "internalType": "uint256",
          "name": "",
          "type": "uint256"
        }
      ],
      "name": "sellerBundles",
      "outputs": [
        {
          "internalType": "uint256",
          "name": "",
          "type": "uint256"
        }
      ],
      "stateMutability": "view",
      "type": "function"
    },
    {
      "inputs": [
        {
          "internalType": "uint256",
          "name": "bps",
          "type": "uint256"
        }
      ],
      "name": "setPlatformFee",
      "outputs": [],
      "stateMutability": "nonpayable",
      "type": "function"
    },
    {
      "inputs": [
        {
          "internalType": "bytes4",
          "name": "i",
          "type": "bytes4"
        }
      ],
      "name": "supportsInterface",
      "outputs": [
        {
          "internalType": "bool",
          "name": "",
          "type": "bool"
        }
      ],
      "stateMutability": "view",
      "type": "function"
    },
    {
      "inputs": [],
      "name": "totalBundleVolume",
      "outputs": [
        {
          "internalType": "uint256",
          "name": "",
          "type": "uint256"
        }
      ],
      "stateMutability": "view",
      "type": "function"
    },
    {
      "inputs": [],
      "name": "totalBundles",
      "outputs": [
        {
          "internalType": "uint256",
          "name": "",
          "type": "uint256"
        }
      ],
      "stateMutability": "view",
      "type": "function"
    },
    {
      "inputs": [],
      "name": "treasury",
      "outputs": [
        {
          "internalType": "address",
          "name": "",
          "type": "address"
        }
      ],
      "stateMutability": "view",
      "type": "function"
    }
  ],
  "bytecode": "0x6080346200009b57601f6200222338819003918201601f19168301916001600160401b03831184841017620000a0578084926020946040528339810103126200009b57516001600160a01b038116908190036200009b576001805560fa600855600780546001600160a01b0319169190911790556200007e33620000b6565b506200008a3362000136565b5060405161202a9081620001d98239f35b600080fd5b634e487b7160e01b600052604160045260246000fd5b6001600160a01b031660008181527fad3228b676f7d3cd4284a5443f17f1962b36e491b30a40b2405849e597ba5fb5602052604081205490919060ff166200013257818052816020526040822081835260205260408220600160ff198254161790553391600080516020620022038339815191528180a4600190565b5090565b6001600160a01b031660008181527fee57cd81e84075558e8fcc182a1f4393f91fc97f963a136e66b7f949a62f319f60205260408120549091907f97667070c54ef182b0f5858b034beac1b6f3089aa2d3188bb1e8929f4fa9b9299060ff16620001d357808352826020526040832082845260205260408320600160ff1982541617905560008051602062002203833981519152339380a4600190565b50509056fe608080604052600436101561001357600080fd5b60003560e01c90816301ffc9a714611a2257508063038a31c914610f3a57806310b9eedc14610e0557806312e8e2c314610d7457806322dcd13e14610d56578063248a9ca314610d275780632f2ff15d14610ce857806336568abe14610c7c5780634442a8bf14610bf657806361d027b314610bc257806363d2db5f14610ba45780637d96640514610b865780638b382b4e14610ac55780638d7a973414610a7057806391d1485414610a15578063a217fddf146109f9578063c6adc75914610710578063cf19384b1461063d578063d547741f146105fc578063dd9d82b4146101b4578063f5b541a6146101795763f5e079b91461011157600080fd5b346101745760406003193601126101745761012a611ba5565b73ffffffffffffffffffffffffffffffffffffffff60243591166000526006602052604060002080548210156101745760209161016691611c20565b90546040519160031b1c8152f35b600080fd5b346101745760006003193601126101745760206040517f97667070c54ef182b0f5858b034beac1b6f3089aa2d3188bb1e8929f4fa9b9298152f35b60208060031936011261017457600435906101cd611fb9565b81600052600391828252604060002092600584019384549160ff928381168281101561050c576101fd9015611f47565b6007830154421161059e576004830193845434106105405760ff19976001809981941617905585600052600487526040600020926000925b61038c575b5050505081546008549081810291818304149015171561035d57612710900473ffffffffffffffffffffffffffffffffffffffff916000808080858760075416828215610354575bf1156103365760008093926102a082948a8495015416918754611fac565b9082821561034b575bf115610336578054803411610311575b507f113c35375a55464f9bd7489dee03af633cfec3560ec17954039e540a7092149b9033600052600684526102f2836040600020611f0e565b6102ff8154600a54611eed565b600a5554926040519384523393a38055005b60008080610320819434611fac565b818115610342575b3390f11561033657846102b9565b6040513d6000823e3d90fd5b506108fc610328565b506108fc6102a9565b506108fc610282565b7f4e487b7100000000000000000000000000000000000000000000000000000000600052601160045260246000fd5b835483101561053b5781816103a18587611bd5565b500154166002908181101561050c57610466575073ffffffffffffffffffffffffffffffffffffffff6103d48486611bd5565b50541692896103e38287611bd5565b50015493803b15610174576040517f42842e0e00000000000000000000000000000000000000000000000000000000815230600482015233602482015260448101959095526000908590818381606481015b03925af1908115610336578a9461045192610457575b50611ede565b92610235565b61046090611adc565b8b61044b565b9273ffffffffffffffffffffffffffffffffffffffff6104868287611bd5565b505416938a6104958388611bd5565b500154906104a38388611bd5565b500154853b15610174576040517ff242432a0000000000000000000000000000000000000000000000000000000081523060048201523360248201526044810192909252606482015260a06084820152600060a482018190529094859081838160c48101610435565b7f4e487b7100000000000000000000000000000000000000000000000000000000600052602160045260246000fd5b61023a565b606487604051907f08c379a00000000000000000000000000000000000000000000000000000000082526004820152601460248201527f496e73756666696369656e74207061796d656e740000000000000000000000006044820152fd5b606486604051907f08c379a00000000000000000000000000000000000000000000000000000000082526004820152600760248201527f45787069726564000000000000000000000000000000000000000000000000006044820152fd5b346101745760406003193601126101745761063b60043561061b611b82565b90806000526000602052610636600160406000200154611d72565b611e5b565b005b34610174576020600319360112610174576004356000526003602052604060002080549073ffffffffffffffffffffffffffffffffffffffff60018201541661068860028301611c8b565b9061069560038401611c8b565b926004810154926106e660ff600584015416956106d860068501549360086007870154960154966040519a8b5260208b01526101208060408c01528a0190611d32565b9088820360608a0152611d32565b936080870152600385101561050c57859460a086015260c085015260e08401526101008301520390f35b34610174576020806003193601126101745760043561072d611fb9565b806000526003918281526040600020906001938483019273ffffffffffffffffffffffffffffffffffffffff9081855416331480156109b7575b15610959576005019283549060ff90818316908582101561050c57899660ff199461079460049415611f47565b60029586911617905588600052526040600020936000955b6107dc575b88887ffb1e81a398ab1151f909477fceda31896ba36e774040b4ec8ce044b230cf85b4600080a28055005b84548610156109545781816107f18888611bd5565b500154168381101561050c576108a6578361080c8787611bd5565b50541695848854168a61081f8389611bd5565b500154883b15610174576040517f42842e0e00000000000000000000000000000000000000000000000000000000815230600482015273ffffffffffffffffffffffffffffffffffffffff90921660248301526044820152966000908890818381606481015b03925af1908115610336578a976108a0926104575750611ede565b956107ac565b836108b18787611bd5565b50541695848854168a6108c48389611bd5565b50015497856108d3848a611bd5565b50015490803b15610174576040517ff242432a00000000000000000000000000000000000000000000000000000000815230600482015273ffffffffffffffffffffffffffffffffffffffff90931660248401526044830199909952606482015260a06084820152600060a482018190529097889081838160c48101610885565b6107b1565b606484604051907f08c379a00000000000000000000000000000000000000000000000000000000082526004820152600e60248201527f4e6f7420617574686f72697a65640000000000000000000000000000000000006044820152fd5b507f97667070c54ef182b0f5858b034beac1b6f3089aa2d3188bb1e8929f4fa9b92960005260008452604060002033600052845260ff60406000205416610767565b3461017457600060031936011261017457602060405160008152f35b3461017457604060031936011261017457610a2e611b82565b600435600052600060205273ffffffffffffffffffffffffffffffffffffffff60406000209116600052602052602060ff604060002054166040519015158152f35b3461017457604060031936011261017457610a89611ba5565b73ffffffffffffffffffffffffffffffffffffffff60243591166000526005602052604060002080548210156101745760209161016691611c20565b34610174576020806003193601126101745773ffffffffffffffffffffffffffffffffffffffff610af4611ba5565b1660005260058152604060002060405190818382549182815201908192600052846000209060005b86828210610b72578686610b3282880383611af0565b604051928392818401908285525180915260408401929160005b828110610b5b57505050500390f35b835185528695509381019392810192600101610b4c565b835485529093019260019283019201610b1c565b34610174576000600319360112610174576020600a54604051908152f35b34610174576000600319360112610174576020600954604051908152f35b3461017457600060031936011261017457602073ffffffffffffffffffffffffffffffffffffffff60075416604051908152f35b346101745760406003193601126101745760243560043560005260046020526040600020805482101561017457608091610c2f91611bd5565b50610c7a73ffffffffffffffffffffffffffffffffffffffff8254169160018101549060ff600360028301549201541691604051948552602085015260408401526060830190611bc8565bf35b3461017457604060031936011261017457610c95611b82565b3373ffffffffffffffffffffffffffffffffffffffff821603610cbe5761063b90600435611e5b565b60046040517f6697b232000000000000000000000000000000000000000000000000000000008152fd5b346101745760406003193601126101745761063b600435610d07611b82565b90806000526000602052610d22600160406000200154611d72565b611dcf565b346101745760206003193601126101745760043560005260006020526020600160406000200154604051908152f35b34610174576000600319360112610174576020600854604051908152f35b34610174576020600319360112610174573360009081527fad3228b676f7d3cd4284a5443f17f1962b36e491b30a40b2405849e597ba5fb560205260409020546004359060ff1615610dce576103e8811161017457600855005b60446040517fe2517d3f00000000000000000000000000000000000000000000000000000000815233600482015260006024820152fd5b346101745760208060031936011261017457600435600052600481526040600020908154610e3281611b6a565b90610e406040519283611af0565b808252600093845282842083830194855b838210610ed55760408051878152865181890181905289928201908960005b828110610e7d5784840385f35b909192826080600192610ec6895173ffffffffffffffffffffffffffffffffffffffff815116835284810151858401526040810151604084015260608091015190830190611bc8565b01960191019492919094610e70565b604051610ee181611ac0565b73ffffffffffffffffffffffffffffffffffffffff8454168152600184015487820152600280850154604083015260ff6003860154169081101561050c5760019282899260606004950152815201930191019091610e51565b346101745760c06003193601126101745760043567ffffffffffffffff811161017457610f6b903690600401611b13565b60243567ffffffffffffffff811161017457610f8b903690600401611b13565b6044359167ffffffffffffffff83116101745736602384011215610174578260040135610fb781611b6a565b93610fc56040519586611af0565b8185526024602086019260071b8201019036821161017457602401915b8183106119b1575050508251600281101590816119a5575b501561194757606435151580611939575b156118db5761101b600254611ede565b918260025561102c60843542611eed565b90604051928361012081011067ffffffffffffffff610120860111176116a7576101208401604052848452336020850152604084015260608301526064356080830152600060a08301524260c083015260e082015260a4356101008201528160005260036020526040600020908051825573ffffffffffffffffffffffffffffffffffffffff60208201511660018301907fffffffffffffffffffffffff0000000000000000000000000000000000000000825416179055604081015180519067ffffffffffffffff82116116a757819061110a6002860154611c38565b601f8111611888575b50602090601f83116001146118165760009261180b575b50506000198260011b9260031b1c19161760028301555b606081015180519067ffffffffffffffff82116116a75781906111676003860154611c38565b601f81116117b8575b50602090601f83116001146117465760009261173b575b50506000198260011b9260031b1c19161760038301555b6080810151600483015560a0810151600381101561050c5760089161010091600585019060ff60ff19835416911617905560c0810151600685015560e08101516007850155015191015560005b82518110156116d657816000526004602052604060002061120c8285611efa565b51908054680100000000000000008110156116a75761123091600182018155611bd5565b919091611678578073ffffffffffffffffffffffffffffffffffffffff60609251167fffffffffffffffffffffffff00000000000000000000000000000000000000008454161783556020810151600184015560408101516002840155015190600282101561050c576003019060ff60ff19835416911617905560606112b68285611efa565b510151600281101561050c576114b35773ffffffffffffffffffffffffffffffffffffffff6112e58285611efa565b5151166020806112f58487611efa565b5101516024604051809481937f6352211e00000000000000000000000000000000000000000000000000000000835260048301525afa90811561033657600091611464575b5073ffffffffffffffffffffffffffffffffffffffff339116036114065773ffffffffffffffffffffffffffffffffffffffff6113778285611efa565b5151169060206113878286611efa565b51015191803b15610174576040517f23b872dd00000000000000000000000000000000000000000000000000000000815233600482015230602482015260448101939093526000908390818381606481015b03925af1918215610336576113f2926113f75750611ede565b6111eb565b61140090611adc565b8461044b565b60646040517f08c379a000000000000000000000000000000000000000000000000000000000815260206004820152600960248201527f4e6f74206f776e657200000000000000000000000000000000000000000000006044820152fd5b90506020813d6020116114ab575b8161147f60209383611af0565b81010312610174575173ffffffffffffffffffffffffffffffffffffffff81168103610174578461133a565b3d9150611472565b73ffffffffffffffffffffffffffffffffffffffff6114d28285611efa565b5151166020806114e28487611efa565b5101516044604051809481937efdd58e00000000000000000000000000000000000000000000000000000000835233600484015260248301525afa90811561033657600091611646575b5060406115398386611efa565b510151116115e85773ffffffffffffffffffffffffffffffffffffffff6115608285611efa565b5151169060206115708286611efa565b510151604061157f8387611efa565b510151833b15610174576040517ff242432a0000000000000000000000000000000000000000000000000000000081523360048201523060248201526044810192909252606482015260a06084820152600060a482018190529092839081838160c481016113d9565b60646040517f08c379a000000000000000000000000000000000000000000000000000000000815260206004820152600760248201527f42616c616e6365000000000000000000000000000000000000000000000000006044820152fd5b90506020813d602011611670575b8161166160209383611af0565b8101031261017457518461152c565b3d9150611654565b7f4e487b7100000000000000000000000000000000000000000000000000000000600052600060045260246000fd5b7f4e487b7100000000000000000000000000000000000000000000000000000000600052604160045260246000fd5b5060209133600052600583526116f0826040600020611f0e565b6116fb600954611ede565b6009555160405190606435825283820152817fbacfec5860805f42abe081c81bac8dc591ea7e20b73985d9d672706c10e1082560403393a3604051908152f35b015190508680611187565b9250600385016000526020600020906000935b601f198416851061179d576001945083601f19811610611784575b505050811b01600383015561119e565b015160001960f88460031b161c19169055868080611774565b81810151835560209485019460019093019290910190611759565b909150600385016000526020600020601f840160051c810160208510611804575b90849392915b601f830160051c820181106117f5575050611170565b600081558594506001016117df565b50806117d9565b01519050868061112a565b9250600285016000526020600020906000935b601f198416851061186d576001945083601f19811610611854575b505050811b016002830155611141565b015160001960f88460031b161c19169055868080611844565b81810151835560209485019460019093019290910190611829565b909150600285016000526020600020601f840160051c8101602085106118d4575b90849392915b601f830160051c820181106118c5575050611113565b600081558594506001016118af565b50806118a9565b60646040517f08c379a000000000000000000000000000000000000000000000000000000000815260206004820152600e60248201527f496e76616c696420706172616d730000000000000000000000000000000000006044820152fd5b5061138860a435111561100b565b60646040517f08c379a000000000000000000000000000000000000000000000000000000000815260206004820152600a60248201527f322d3230206974656d73000000000000000000000000000000000000000000006044820152fd5b60149150111584610ffa565b60808336031261017457604051906119c882611ac0565b833573ffffffffffffffffffffffffffffffffffffffff8116810361017457825260208401356020830152604084013560408301526060840135906002821015610174578260209260606080950152815201920191610fe2565b3461017457602060031936011261017457600435907fffffffff00000000000000000000000000000000000000000000000000000000821680920361017457817f7965db0b0000000000000000000000000000000000000000000000000000000060209314908115611a96575b5015158152f35b7f01ffc9a70000000000000000000000000000000000000000000000000000000091501483611a8f565b6080810190811067ffffffffffffffff8211176116a757604052565b67ffffffffffffffff81116116a757604052565b90601f601f19910116810190811067ffffffffffffffff8211176116a757604052565b81601f820112156101745780359067ffffffffffffffff82116116a75760405192611b486020601f19601f8601160185611af0565b8284526020838301011161017457816000926020809301838601378301015290565b67ffffffffffffffff81116116a75760051b60200190565b6024359073ffffffffffffffffffffffffffffffffffffffff8216820361017457565b6004359073ffffffffffffffffffffffffffffffffffffffff8216820361017457565b90600282101561050c5752565b8054821015611bf15760005260206000209060021b0190600090565b7f4e487b7100000000000000000000000000000000000000000000000000000000600052603260045260246000fd5b8054821015611bf15760005260206000200190600090565b90600182811c92168015611c81575b6020831014611c5257565b7f4e487b7100000000000000000000000000000000000000000000000000000000600052602260045260246000fd5b91607f1691611c47565b9060405191826000825492611c9f84611c38565b908184526001948581169081600014611d0e5750600114611ccb575b5050611cc992500383611af0565b565b9093915060005260209081600020936000915b818310611cf6575050611cc993508201013880611cbb565b85548884018501529485019487945091830191611cde565b9050611cc995506020935060ff1991501682840152151560051b8201013880611cbb565b919082519283825260005b848110611d5e575050601f19601f8460006020809697860101520116010190565b602081830181015184830182015201611d3d565b80600052600060205260406000203360005260205260ff6040600020541615611d985750565b604490604051907fe2517d3f0000000000000000000000000000000000000000000000000000000082523360048301526024820152fd5b906000918083528260205273ffffffffffffffffffffffffffffffffffffffff6040842092169182845260205260ff60408420541615600014611e5657808352826020526040832082845260205260408320600160ff198254161790557f2f8788117e7eff1d82e926ec794901d17c78024a50270940304540a733656f0d339380a4600190565b505090565b906000918083528260205273ffffffffffffffffffffffffffffffffffffffff6040842092169182845260205260ff604084205416600014611e565780835282602052604083208284526020526040832060ff1981541690557ff6391f5c32d9c69d2a47ea670b442974b53935d1edc7fd64eb21e047a839171b339380a4600190565b600019811461035d5760010190565b9190820180921161035d57565b8051821015611bf15760209160051b010190565b8054680100000000000000008110156116a757611f3091600182018155611c20565b600019829392549160031b92831b921b1916179055565b15611f4e57565b60646040517f08c379a000000000000000000000000000000000000000000000000000000000815260206004820152600a60248201527f4e6f7420616374697665000000000000000000000000000000000000000000006044820152fd5b9190820391821161035d57565b600260015414611fca576002600155565b60046040517f3ee5aeb5000000000000000000000000000000000000000000000000000000008152fdfea2646970667358221220f2f656b49ccc6184987719cf9e76b0f73e175b13bf23dd5f3c58f49a012abe1c64736f6c634300081400332f8788117e7eff1d82e926ec794901d17c78024a50270940304540a733656f0d",
  "linkReferences": {},
  "deployedLinkReferences": {}
}