{
  "_format": "hh-sol-artifact-1",
  "contractName": "ReputationOracle",
  "sourceName": "contracts/oracles/ReputationOracle.sol",
  "abi": [
    {
      "inputs": [],
      "stateMutability": "nonpayable",
      "type": "constructor"
    },
    {
      "inputs": [],
      "name": "AccessControlBadConfirmation",
      "type": "error"
    },
    {
      "inputs": [
        {
          "internalType": "address",
          "name": "account",
          "type": "address"
        },
        {
          "internalType": "bytes32",
          "name": "neededRole",
          "type": "bytes32"
        }
      ],
      "name": "AccessControlUnauthorizedAccount",
      "type": "error"
    },
    {
      "anonymous": false,
      "inputs": [
        {
          "indexed": true,
          "internalType": "uint256",
          "name": "entityId",
          "type": "uint256"
        },
        {
          "indexed": false,
          "internalType": "bool",
          "name": "success",
          "type": "bool"
        }
      ],
      "name": "ActionRecorded",
      "type": "event"
    },
    {
      "anonymous": false,
      "inputs": [
        {
          "indexed": true,
          "internalType": "uint256",
          "name": "entityId",
          "type": "uint256"
        },
        {
          "indexed": false,
          "internalType": "int256",
          "name": "initialScore",
          "type": "int256"
        }
      ],
      "name": "ReputationInitialized",
      "type": "event"
    },
    {
      "anonymous": false,
      "inputs": [
        {
          "indexed": true,
          "internalType": "uint256",
          "name": "entityId",
          "type": "uint256"
        },
        {
          "indexed": false,
          "internalType": "int256",
          "name": "oldScore",
          "type": "int256"
        },
        {
          "indexed": false,
          "internalType": "int256",
          "name": "newScore",
          "type": "int256"
        }
      ],
      "name": "ReputationUpdated",
      "type": "event"
    },
    {
      "anonymous": false,
      "inputs": [
        {
          "indexed": true,
          "internalType": "bytes32",
          "name": "role",
          "type": "bytes32"
        },
        {
          "indexed": true,
          "internalType": "bytes32",
          "name": "previousAdminRole",
          "type": "bytes32"
        },
        {
          "indexed": true,
          "internalType": "bytes32",
          "name": "newAdminRole",
          "type": "bytes32"
        }
      ],
      "name": "RoleAdminChanged",
      "type": "event"
    },
    {
      "anonymous": false,
      "inputs": [
        {
          "indexed": true,
          "internalType": "bytes32",
          "name": "role",
          "type": "bytes32"
        },
        {
          "indexed": true,
          "internalType": "address",
          "name": "account",
          "type": "address"
        },
        {
          "indexed": true,
          "internalType": "address",
          "name": "sender",
          "type": "address"
        }
      ],
      "name": "RoleGranted",
      "type": "event"
    },
    {
      "anonymous": false,
      "inputs": [
        {
          "indexed": true,
          "internalType": "bytes32",
          "name": "role",
          "type": "bytes32"
        },
        {
          "indexed": true,
          "internalType": "address",
          "name": "account",
          "type": "address"
        },
        {
          "indexed": true,
          "internalType": "address",
          "name": "sender",
          "type": "address"
        }
      ],
      "name": "RoleRevoked",
      "type": "event"
    },
    {
      "inputs": [],
      "name": "DEFAULT_ADMIN_ROLE",
      "outputs": [
        {
          "internalType": "bytes32",
          "name": "",
          "type": "bytes32"
        }
      ],
      "stateMutability": "view",
      "type": "function"
    },
    {
      "inputs": [],
      "name": "MAX_REPUTATION",
      "outputs": [
        {
          "internalType": "int256",
          "name": "",
          "type": "int256"
        }
      ],
      "stateMutability": "view",
      "type": "function"
    },
    {
      "inputs": [],
      "name": "MIN_REPUTATION",
      "outputs": [
        {
          "internalType": "int256",
          "name": "",
          "type": "int256"
        }
      ],
      "stateMutability": "view",
      "type": "function"
    },
    {
      "inputs": [],
      "name": "ORACLE_ROLE",
      "outputs": [
        {
          "internalType": "bytes32",
          "name": "",
          "type": "bytes32"
        }
      ],
      "stateMutability": "view",
      "type": "function"
    },
    {
      "inputs": [],
      "name": "UPDATER_ROLE",
      "outputs": [
        {
          "internalType": "bytes32",
          "name": "",
          "type": "bytes32"
        }
      ],
      "stateMutability": "view",
      "type": "function"
    },
    {
      "inputs": [
        {
          "internalType": "uint256",
          "name": "entityId",
          "type": "uint256"
        }
      ],
      "name": "getReputationData",
      "outputs": [
        {
          "internalType": "int256",
          "name": "score",
          "type": "int256"
        },
        {
          "internalType": "uint256",
          "name": "totalActions",
          "type": "uint256"
        },
        {
          "internalType": "uint256",
          "name": "successfulActions",
          "type": "uint256"
        },
        {
          "internalType": "uint256",
          "name": "lastUpdate",
          "type": "uint256"
        }
      ],
      "stateMutability": "view",
      "type": "function"
    },
    {
      "inputs": [
        {
          "internalType": "bytes32",
          "name": "role",
          "type": "bytes32"
        }
      ],
      "name": "getRoleAdmin",
      "outputs": [
        {
          "internalType": "bytes32",
          "name": "",
          "type": "bytes32"
        }
      ],
      "stateMutability": "view",
      "type": "function"
    },
    {
      "inputs": [
        {
          "internalType": "uint256",
          "name": "entityId",
          "type": "uint256"
        }
      ],
      "name": "getScore",
      "outputs": [
        {
          "internalType": "int256",
          "name": "",
          "type": "int256"
        }
      ],
      "stateMutability": "view",
      "type": "function"
    },
    {
      "inputs": [
        {
          "internalType": "bytes32",
          "name": "role",
          "type": "bytes32"
        },
        {
          "internalType": "address",
          "name": "account",
          "type": "address"
        }
      ],
      "name": "grantRole",
      "outputs": [],
      "stateMutability": "nonpayable",
      "type": "function"
    },
    {
      "inputs": [
        {
          "internalType": "bytes32",
          "name": "role",
          "type": "bytes32"
        },
        {
          "internalType": "address",
          "name": "account",
          "type": "address"
        }
      ],
      "name": "hasRole",
      "outputs": [
        {
          "internalType": "bool",
          "name": "",
          "type": "bool"
        }
      ],
      "stateMutability": "view",
      "type": "function"
    },
    {
      "inputs": [
        {
          "internalType": "uint256",
          "name": "entityId",
          "type": "uint256"
        },
        {
          "internalType": "int256",
          "name": "initialScore",
          "type": "int256"
        }
      ],
      "name": "initializeReputation",
      "outputs": [],
      "stateMutability": "nonpayable",
      "type": "function"
    },
    {
      "inputs": [
        {
          "internalType": "uint256",
          "name": "entityId",
          "type": "uint256"
        }
      ],
      "name": "isInitialized",
      "outputs": [
        {
          "internalType": "bool",
          "name": "",
          "type": "bool"
        }
      ],
      "stateMutability": "view",
      "type": "function"
    },
    {
      "inputs": [
        {
          "internalType": "uint256",
          "name": "entityId",
          "type": "uint256"
        },
        {
          "internalType": "bool",
          "name": "success",
          "type": "bool"
        }
      ],
      "name": "recordAction",
      "outputs": [],
      "stateMutability": "nonpayable",
      "type": "function"
    },
    {
      "inputs": [
        {
          "internalType": "bytes32",
          "name": "role",
          "type": "bytes32"
        },
        {
          "internalType": "address",
          "name": "callerConfirmation",
          "type": "address"
        }
      ],
      "name": "renounceRole",
      "outputs": [],
      "stateMutability": "nonpayable",
      "type": "function"
    },
    {
      "inputs": [
        {
          "internalType": "uint256",
          "name": "",
          "type": "uint256"
        }
      ],
      "name": "reputation",
      "outputs": [
        {
          "internalType": "int256",
          "name": "score",
          "type": "int256"
        },
        {
          "internalType": "uint256",
          "name": "totalActions",
          "type": "uint256"
        },
        {
          "internalType": "uint256",
          "name": "successfulActions",
          "type": "uint256"
        },
        {
          "internalType": "uint256",
          "name": "lastUpdate",
          "type": "uint256"
        },
        {
          "internalType": "bool",
          "name": "initialized",
          "type": "bool"
        }
      ],
      "stateMutability": "view",
      "type": "function"
    },
    {
      "inputs": [
        {
          "internalType": "bytes32",
          "name": "role",
          "type": "bytes32"
        },
        {
          "internalType": "address",
          "name": "account",
          "type": "address"
        }
      ],
      "name": "revokeRole",
      "outputs": [],
      "stateMutability": "nonpayable",
      "type": "function"
    },
    {
      "inputs": [
        {
          "internalType": "bytes4",
          "name": "interfaceId",
          "type": "bytes4"
        }
      ],
      "name": "supportsInterface",
      "outputs": [
        {
          "internalType": "bool",
          "name": "",
          "type": "bool"
        }
      ],
      "stateMutability": "view",
      "type": "function"
    },
    {
      "inputs": [
        {
          "internalType": "uint256",
          "name": "entityId",
          "type": "uint256"
        },
        {
          "internalType": "int256",
          "name": "scoreChange",
          "type": "int256"
        }
      ],
      "name": "updateReputation",
      "outputs": [],
      "stateMutability": "nonpayable",
      "type": "function"
    }
  ],
  "bytecode": "0x608060405234610036576100123361003b565b5061001c336100b9565b5061002633610159565b50604051610bed90816101f58239f35b600080fd5b6001600160a01b031660008181527fad3228b676f7d3cd4284a5443f17f1962b36e491b30a40b2405849e597ba5fb5602052604081205490919060ff166100b557818052816020526040822081835260205260408220600160ff198254161790553391600080516020610de28339815191528180a4600190565b5090565b6001600160a01b031660008181527fa629f6981c2f6895a67dc766e8e03ff72d04a413d0d8773a3ca56e9e474032c160205260408120549091907f68e79a7bf1e0bc45d0a330c573bc367f9cf464fd326078812f301165fbda4ef19060ff1661015457808352826020526040832082845260205260408320600160ff19825416179055600080516020610de2833981519152339380a4600190565b505090565b6001600160a01b031660008181527f738678fe42df6a4211eb7628ac9b056229141839eb4f4ef4cc249f1d36e8c92160205260408120549091907f73e573f9566d61418a34d5de3ff49360f9c51fec37f7486551670290f6285dab9060ff1661015457808352826020526040832082845260205260408320600160ff19825416179055600080516020610de2833981519152339380a460019056fe6080604081815260048036101561001557600080fd5b600092833560e01c90816301ffc9a7146108055750806307e2cea5146107ca5780630e1af57b146107a3578063248a9ca31461077a5780632a31da8d146105795780632f2ff15d1461055b57806336568abe146104f9578063464c401d146103ea57806347e63380146103af57806356c708d51461035857806359c6d18b14610255578063697c60451461021a57806373650f1b146101d157806391d148541461018b578063a217fddf14610170578063d213c0f214610153578063d547741f1461011a5763d9a845d8146100e957600080fd5b3461011657602060031936011261011657808260209460ff93358152600186522001541690519015158152f35b8280fd5b50503461014f57600161014b91610146610133366108a4565b9390928387528660205286200154610985565b610a55565b5080f35b5080fd5b50503461014f578160031936011261014f57602090516103e88152f35b50503461014f578160031936011261014f5751908152602090f35b50503461014f5760ff816020936101a1366108a4565b90825281865273ffffffffffffffffffffffffffffffffffffffff83832091168252855220541690519015158152f35b5034610116576020600319360112610116576080928291358152600160205220908154916001810154916003600283015492015492815194855260208501528301526060820152f35b50503461014f578160031936011261014f57602090517fffffffffffffffffffffffffffffffffffffffffffffffffffffffffffffff9c8152f35b5091903461014f57610266366108dc565b90916102706108f2565b805160a0810181811067ffffffffffffffff82111761032c57917fd2461764d4517f3a8eadf02db82eb09f99b6d54b51c1fb4b091760cde7cbfa0693918760209483528382528482019188835283810189815260608201904282526080830194600186528a8c5260018952868c2093518455516001840155516002830155516003820155019051151560ff7fffffffffffffffffffffffffffffffffffffffffffffffffffffffffffffff00835416911617905551908152a280f35b6024866041897f4e487b7100000000000000000000000000000000000000000000000000000000835252fd5b509034610116576020600319360112610116578060a0938335815260016020522080549260018201549260ff6002840154926003850154940154169381519586526020860152840152606083015215156080820152f35b50503461014f578160031936011261014f57602090517f73e573f9566d61418a34d5de3ff49360f9c51fec37f7486551670290f6285dab8152f35b5091903461014f576103fb366108dc565b6104069291926108f2565b828452600160205261041f60ff86848720015416610af6565b82845260016020528184208054918083019081128684129080158216911516176104cd577f2d8978c01ec088adf9eaead7bd9c7271aa3098806d0fd7a5c7bae833b2a52b2c94959650806103e891828113600014610492575050905b81815560034291015582519182526020820152a280f35b909291507fffffffffffffffffffffffffffffffffffffffffffffffffffffffffffffff9c8091126104c5575b5061047b565b9150386104bf565b6024866011897f4e487b7100000000000000000000000000000000000000000000000000000000835252fd5b5091903461014f5761050a366108a4565b913373ffffffffffffffffffffffffffffffffffffffff84160361053357509061014b91610a55565b8490517f6697b232000000000000000000000000000000000000000000000000000000008152fd5b50503461014f57600161014b91610574610133366108a4565b6109ab565b503461011657816003193601126101165780359160243580151592838203610776576105a36108f2565b84865260016020526105bc60ff82858920015416610af6565b848652600160205282862091600183016105d68154610b5b565b9055156106b357600282016105eb8154610b5b565b9055815490600a820190600a8212888412908015821691151617610687575091857f2d8978c01ec088adf9eaead7bd9c7271aa3098806d0fd7a5c7bae833b2a52b2c8560209694867f1888f3727b68c2130549511d70dc045a2b5f2e577b5299467dee1f4fa00419a69997906103e880911361067f575b50808655825191825288820152a25b60034291015551908152a280f35b905038610662565b8760116024927f4e487b7100000000000000000000000000000000000000000000000000000000835252fd5b8154907ffffffffffffffffffffffffffffffffffffffffffffffffffffffffffffffffb820190828213600116610687575091857f2d8978c01ec088adf9eaead7bd9c7271aa3098806d0fd7a5c7bae833b2a52b2c8560209694867f1888f3727b68c2130549511d70dc045a2b5f2e577b5299467dee1f4fa00419a69997907fffffffffffffffffffffffffffffffffffffffffffffffffffffffffffffff9c80911261076e575b50808655825191825288820152a2610671565b90503861075b565b8580fd5b503461011657602060031936011261011657816020936001923581528085522001549051908152f35b50346101165760206003193601126101165760209282913581526001845220549051908152f35b50503461014f578160031936011261014f57602090517f68e79a7bf1e0bc45d0a330c573bc367f9cf464fd326078812f301165fbda4ef18152f35b9250503461011657602060031936011261011657357fffffffff00000000000000000000000000000000000000000000000000000000811680910361011657602092507f7965db0b00000000000000000000000000000000000000000000000000000000811490811561087a575b5015158152f35b7f01ffc9a70000000000000000000000000000000000000000000000000000000091501438610873565b60031960409101126108d7576004359060243573ffffffffffffffffffffffffffffffffffffffff811681036108d75790565b600080fd5b60031960409101126108d7576004359060243590565b3360009081527f738678fe42df6a4211eb7628ac9b056229141839eb4f4ef4cc249f1d36e8c92160205260409020547f73e573f9566d61418a34d5de3ff49360f9c51fec37f7486551670290f6285dab9060ff161561094e5750565b604490604051907fe2517d3f0000000000000000000000000000000000000000000000000000000082523360048301526024820152fd5b80600052600060205260406000203360005260205260ff604060002054161561094e5750565b906000918083528260205273ffffffffffffffffffffffffffffffffffffffff6040842092169182845260205260ff60408420541615600014610a505780835282602052604083208284526020526040832060017fffffffffffffffffffffffffffffffffffffffffffffffffffffffffffffff008254161790557f2f8788117e7eff1d82e926ec794901d17c78024a50270940304540a733656f0d339380a4600190565b505090565b906000918083528260205273ffffffffffffffffffffffffffffffffffffffff6040842092169182845260205260ff604084205416600014610a50578083528260205260408320828452602052604083207fffffffffffffffffffffffffffffffffffffffffffffffffffffffffffffff0081541690557ff6391f5c32d9c69d2a47ea670b442974b53935d1edc7fd64eb21e047a839171b339380a4600190565b15610afd57565b60646040517f08c379a000000000000000000000000000000000000000000000000000000000815260206004820152601a60248201527f52657075746174696f6e206e6f7420696e697469616c697a65640000000000006044820152fd5b7fffffffffffffffffffffffffffffffffffffffffffffffffffffffffffffffff8114610b885760010190565b7f4e487b7100000000000000000000000000000000000000000000000000000000600052601160045260246000fdfea26469706673582212202c6800d594835c80142ed4d10ee196f7cda0f7e3c678c2978064a7bcd1f6e4e164736f6c634300081400332f8788117e7eff1d82e926ec794901d17c78024a50270940304540a733656f0d",
  "linkReferences": {},
  "deployedLinkReferences": {}
}