{
  "_format": "hh-sol-artifact-1",
  "contractName": "ReputationOracle",
  "sourceName": "contracts/oracles/ReputationOracle.sol",
  "abi": [
    {
      "inputs": [],
      "stateMutability": "nonpayable",
      "type": "constructor"
    },
    {
      "inputs": [],
      "name": "AccessControlBadConfirmation",
      "type": "error"
    },
    {
      "inputs": [
        {
          "internalType": "address",
          "name": "account",
          "type": "address"
        },
        {
          "internalType": "bytes32",
          "name": "neededRole",
          "type": "bytes32"
        }
      ],
      "name": "AccessControlUnauthorizedAccount",
      "type": "error"
    },
    {
      "anonymous": false,
      "inputs": [
        {
          "indexed": true,
          "internalType": "uint256",
          "name": "entityId",
          "type": "uint256"
        },
        {
          "indexed": false,
          "internalType": "bool",
          "name": "success",
          "type": "bool"
        }
      ],
      "name": "ActionRecorded",
      "type": "event"
    },
    {
      "anonymous": false,
      "inputs": [
        {
          "indexed": true,
          "internalType": "uint256",
          "name": "entityId",
          "type": "uint256"
        },
        {
          "indexed": false,
          "internalType": "int256",
          "name": "oldScore",
          "type": "int256"
        },
        {
          "indexed": false,
          "internalType": "int256",
          "name": "newScore",
          "type": "int256"
        }
      ],
      "name": "ReputationUpdated",
      "type": "event"
    },
    {
      "anonymous": false,
      "inputs": [
        {
          "indexed": true,
          "internalType": "bytes32",
          "name": "role",
          "type": "bytes32"
        },
        {
          "indexed": true,
          "internalType": "bytes32",
          "name": "previousAdminRole",
          "type": "bytes32"
        },
        {
          "indexed": true,
          "internalType": "bytes32",
          "name": "newAdminRole",
          "type": "bytes32"
        }
      ],
      "name": "RoleAdminChanged",
      "type": "event"
    },
    {
      "anonymous": false,
      "inputs": [
        {
          "indexed": true,
          "internalType": "bytes32",
          "name": "role",
          "type": "bytes32"
        },
        {
          "indexed": true,
          "internalType": "address",
          "name": "account",
          "type": "address"
        },
        {
          "indexed": true,
          "internalType": "address",
          "name": "sender",
          "type": "address"
        }
      ],
      "name": "RoleGranted",
      "type": "event"
    },
    {
      "anonymous": false,
      "inputs": [
        {
          "indexed": true,
          "internalType": "bytes32",
          "name": "role",
          "type": "bytes32"
        },
        {
          "indexed": true,
          "internalType": "address",
          "name": "account",
          "type": "address"
        },
        {
          "indexed": true,
          "internalType": "address",
          "name": "sender",
          "type": "address"
        }
      ],
      "name": "RoleRevoked",
      "type": "event"
    },
    {
      "inputs": [],
      "name": "DEFAULT_ADMIN_ROLE",
      "outputs": [
        {
          "internalType": "bytes32",
          "name": "",
          "type": "bytes32"
        }
      ],
      "stateMutability": "view",
      "type": "function"
    },
    {
      "inputs": [],
      "name": "MAX_REPUTATION",
      "outputs": [
        {
          "internalType": "int256",
          "name": "",
          "type": "int256"
        }
      ],
      "stateMutability": "view",
      "type": "function"
    },
    {
      "inputs": [],
      "name": "MIN_REPUTATION",
      "outputs": [
        {
          "internalType": "int256",
          "name": "",
          "type": "int256"
        }
      ],
      "stateMutability": "view",
      "type": "function"
    },
    {
      "inputs": [],
      "name": "ORACLE_ROLE",
      "outputs": [
        {
          "internalType": "bytes32",
          "name": "",
          "type": "bytes32"
        }
      ],
      "stateMutability": "view",
      "type": "function"
    },
    {
      "inputs": [],
      "name": "UPDATER_ROLE",
      "outputs": [
        {
          "internalType": "bytes32",
          "name": "",
          "type": "bytes32"
        }
      ],
      "stateMutability": "view",
      "type": "function"
    },
    {
      "inputs": [
        {
          "internalType": "uint256",
          "name": "entityId",
          "type": "uint256"
        }
      ],
      "name": "getReputation",
      "outputs": [
        {
          "components": [
            {
              "internalType": "int256",
              "name": "score",
              "type": "int256"
            },
            {
              "internalType": "uint256",
              "name": "totalActions",
              "type": "uint256"
            },
            {
              "internalType": "uint256",
              "name": "successfulActions",
              "type": "uint256"
            },
            {
              "internalType": "uint256",
              "name": "lastUpdate",
              "type": "uint256"
            },
            {
              "internalType": "bool",
              "name": "initialized",
              "type": "bool"
            }
          ],
          "internalType": "struct ReputationOracle.ReputationData",
          "name": "",
          "type": "tuple"
        }
      ],
      "stateMutability": "view",
      "type": "function"
    },
    {
      "inputs": [
        {
          "internalType": "bytes32",
          "name": "role",
          "type": "bytes32"
        }
      ],
      "name": "getRoleAdmin",
      "outputs": [
        {
          "internalType": "bytes32",
          "name": "",
          "type": "bytes32"
        }
      ],
      "stateMutability": "view",
      "type": "function"
    },
    {
      "inputs": [
        {
          "internalType": "uint256",
          "name": "entityId",
          "type": "uint256"
        }
      ],
      "name": "getScore",
      "outputs": [
        {
          "internalType": "int256",
          "name": "",
          "type": "int256"
        }
      ],
      "stateMutability": "view",
      "type": "function"
    },
    {
      "inputs": [
        {
          "internalType": "uint256",
          "name": "entityId",
          "type": "uint256"
        }
      ],
      "name": "getSuccessRate",
      "outputs": [
        {
          "internalType": "uint256",
          "name": "",
          "type": "uint256"
        }
      ],
      "stateMutability": "view",
      "type": "function"
    },
    {
      "inputs": [
        {
          "internalType": "bytes32",
          "name": "role",
          "type": "bytes32"
        },
        {
          "internalType": "address",
          "name": "account",
          "type": "address"
        }
      ],
      "name": "grantRole",
      "outputs": [],
      "stateMutability": "nonpayable",
      "type": "function"
    },
    {
      "inputs": [
        {
          "internalType": "bytes32",
          "name": "role",
          "type": "bytes32"
        },
        {
          "internalType": "address",
          "name": "account",
          "type": "address"
        }
      ],
      "name": "hasRole",
      "outputs": [
        {
          "internalType": "bool",
          "name": "",
          "type": "bool"
        }
      ],
      "stateMutability": "view",
      "type": "function"
    },
    {
      "inputs": [
        {
          "internalType": "uint256",
          "name": "entityId",
          "type": "uint256"
        }
      ],
      "name": "initializeReputation",
      "outputs": [],
      "stateMutability": "nonpayable",
      "type": "function"
    },
    {
      "inputs": [
        {
          "internalType": "uint256",
          "name": "entityId",
          "type": "uint256"
        },
        {
          "internalType": "bool",
          "name": "success",
          "type": "bool"
        }
      ],
      "name": "recordAction",
      "outputs": [],
      "stateMutability": "nonpayable",
      "type": "function"
    },
    {
      "inputs": [
        {
          "internalType": "bytes32",
          "name": "role",
          "type": "bytes32"
        },
        {
          "internalType": "address",
          "name": "callerConfirmation",
          "type": "address"
        }
      ],
      "name": "renounceRole",
      "outputs": [],
      "stateMutability": "nonpayable",
      "type": "function"
    },
    {
      "inputs": [
        {
          "internalType": "uint256",
          "name": "",
          "type": "uint256"
        }
      ],
      "name": "reputation",
      "outputs": [
        {
          "internalType": "int256",
          "name": "score",
          "type": "int256"
        },
        {
          "internalType": "uint256",
          "name": "totalActions",
          "type": "uint256"
        },
        {
          "internalType": "uint256",
          "name": "successfulActions",
          "type": "uint256"
        },
        {
          "internalType": "uint256",
          "name": "lastUpdate",
          "type": "uint256"
        },
        {
          "internalType": "bool",
          "name": "initialized",
          "type": "bool"
        }
      ],
      "stateMutability": "view",
      "type": "function"
    },
    {
      "inputs": [
        {
          "internalType": "bytes32",
          "name": "role",
          "type": "bytes32"
        },
        {
          "internalType": "address",
          "name": "account",
          "type": "address"
        }
      ],
      "name": "revokeRole",
      "outputs": [],
      "stateMutability": "nonpayable",
      "type": "function"
    },
    {
      "inputs": [
        {
          "internalType": "bytes4",
          "name": "interfaceId",
          "type": "bytes4"
        }
      ],
      "name": "supportsInterface",
      "outputs": [
        {
          "internalType": "bool",
          "name": "",
          "type": "bool"
        }
      ],
      "stateMutability": "view",
      "type": "function"
    },
    {
      "inputs": [
        {
          "internalType": "uint256",
          "name": "entityId",
          "type": "uint256"
        },
        {
          "internalType": "int256",
          "name": "delta",
          "type": "int256"
        }
      ],
      "name": "updateReputation",
      "outputs": [],
      "stateMutability": "nonpayable",
      "type": "function"
    }
  ],
  "bytecode": "0x608060405234801561001057600080fd5b5061001c600033610078565b506100477f68e79a7bf1e0bc45d0a330c573bc367f9cf464fd326078812f301165fbda4ef133610078565b506100727f73e573f9566d61418a34d5de3ff49360f9c51fec37f7486551670290f6285dab33610078565b50610124565b6000828152602081815260408083206001600160a01b038516845290915281205460ff1661011a576000838152602081815260408083206001600160a01b03861684529091529020805460ff191660011790556100d23390565b6001600160a01b0316826001600160a01b0316847f2f8788117e7eff1d82e926ec794901d17c78024a50270940304540a733656f0d60405160405180910390a450600161011e565b5060005b92915050565b610afe806101336000396000f3fe608060405234801561001057600080fd5b50600436106101165760003560e01c806347e63380116100a25780638a650841116100715780638a6508411461030c57806391d148541461031f578063a217fddf14610332578063d213c0f21461033a578063d547741f1461034357600080fd5b806347e633801461021c57806356c708d514610243578063697c6045146102ac57806389370d8b146102b557600080fd5b8063248a9ca3116100e9578063248a9ca3146101ad5780632a31da8d146101d05780632f2ff15d146101e357806336568abe146101f6578063464c401d1461020957600080fd5b806301ffc9a71461011b57806307e2cea5146101435780630d889131146101785780630e1af57b1461018d575b600080fd5b61012e610129366004610966565b610356565b60405190151581526020015b60405180910390f35b61016a7f68e79a7bf1e0bc45d0a330c573bc367f9cf464fd326078812f301165fbda4ef181565b60405190815260200161013a565b61018b610186366004610997565b61038d565b005b61016a61019b366004610997565b60009081526001602052604090205490565b61016a6101bb366004610997565b60009081526020819052604090206001015490565b61018b6101de3660046109b0565b61047c565b61018b6101f13660046109e5565b610585565b61018b6102043660046109e5565b6105b0565b61018b610217366004610a16565b6105e8565b61016a7f73e573f9566d61418a34d5de3ff49360f9c51fec37f7486551670290f6285dab81565b610282610251366004610997565b6001602081905260009182526040909120805491810154600282015460038301546004909301549192909160ff1685565b6040805195865260208601949094529284019190915260608301521515608082015260a00161013a565b61016a60631981565b6102c86102c3366004610997565b6106fa565b60405161013a9190600060a0820190508251825260208301516020830152604083015160408301526060830151606083015260808301511515608083015292915050565b61016a61031a366004610997565b610781565b61012e61032d3660046109e5565b6107d1565b61016a600081565b61016a6103e881565b61018b6103513660046109e5565b6107fa565b60006001600160e01b03198216637965db0b60e01b148061038757506301ffc9a760e01b6001600160e01b03198316145b92915050565b7f68e79a7bf1e0bc45d0a330c573bc367f9cf464fd326078812f301165fbda4ef16103b78161081f565b60008281526001602052604090206004015460ff16156104145760405162461bcd60e51b8152602060048201526013602482015272105b1c9958591e481a5b9a5d1a585b1a5e9959606a1b60448201526064015b60405180910390fd5b506040805160a08101825260008082526020808301828152838501838152426060860190815260016080870181815298865293849052959093209351845551908301555160028201559051600382015590516004909101805460ff1916911515919091179055565b7f73e573f9566d61418a34d5de3ff49360f9c51fec37f7486551670290f6285dab6104a68161081f565b60008381526001602052604090206004015460ff166104f95760405162461bcd60e51b815260206004820152600f60248201526e139bdd081a5b9a5d1a585b1a5e9959608a1b604482015260640161040b565b600083815260016020819052604082200180549161051683610a4e565b9190505550811561054457600083815260016020526040812060020180549161053e83610a4e565b91905055505b827f1888f3727b68c2130549511d70dc045a2b5f2e577b5299467dee1f4fa00419a683604051610578911515815260200190565b60405180910390a2505050565b6000828152602081905260409020600101546105a08161081f565b6105aa838361082c565b50505050565b6001600160a01b03811633146105d95760405163334bd91960e11b815260040160405180910390fd5b6105e382826108be565b505050565b7f73e573f9566d61418a34d5de3ff49360f9c51fec37f7486551670290f6285dab6106128161081f565b60008381526001602052604090206004015460ff166106655760405162461bcd60e51b815260206004820152600f60248201526e139bdd081a5b9a5d1a585b1a5e9959608a1b604482015260640161040b565b6000838152600160205260408120549061067f8483610a67565b905060631981121561069057506063195b6103e881131561069f57506103e85b60008581526001602090815260409182902083815542600390910155815184815290810183905286917f2d8978c01ec088adf9eaead7bd9c7271aa3098806d0fd7a5c7bae833b2a52b2c910160405180910390a25050505050565b61072e6040518060a00160405280600081526020016000815260200160008152602001600081526020016000151581525090565b50600090815260016020818152604092839020835160a0810185528154815292810154918301919091526002810154928201929092526003820154606082015260049091015460ff161515608082015290565b60008181526001602081905260408220015481036107a157506000919050565b6000828152600160208190526040909120908101546002909101546107c7906064610a8f565b6103879190610aa6565b6000918252602082815260408084206001600160a01b0393909316845291905290205460ff1690565b6000828152602081905260409020600101546108158161081f565b6105aa83836108be565b6108298133610929565b50565b600061083883836107d1565b6108b6576000838152602081815260408083206001600160a01b03861684529091529020805460ff1916600117905561086e3390565b6001600160a01b0316826001600160a01b0316847f2f8788117e7eff1d82e926ec794901d17c78024a50270940304540a733656f0d60405160405180910390a4506001610387565b506000610387565b60006108ca83836107d1565b156108b6576000838152602081815260408083206001600160a01b0386168085529252808320805460ff1916905551339286917ff6391f5c32d9c69d2a47ea670b442974b53935d1edc7fd64eb21e047a839171b9190a4506001610387565b61093382826107d1565b6109625760405163e2517d3f60e01b81526001600160a01b03821660048201526024810183905260440161040b565b5050565b60006020828403121561097857600080fd5b81356001600160e01b03198116811461099057600080fd5b9392505050565b6000602082840312156109a957600080fd5b5035919050565b600080604083850312156109c357600080fd5b82359150602083013580151581146109da57600080fd5b809150509250929050565b600080604083850312156109f857600080fd5b8235915060208301356001600160a01b03811681146109da57600080fd5b60008060408385031215610a2957600080fd5b50508035926020909101359150565b634e487b7160e01b600052601160045260246000fd5b600060018201610a6057610a60610a38565b5060010190565b8082018281126000831280158216821582161715610a8757610a87610a38565b505092915050565b808202811582820484141761038757610387610a38565b600082610ac357634e487b7160e01b600052601260045260246000fd5b50049056fea2646970667358221220fba33827e9c7648bf159ee62f398709cacc6ea296ab086d013f842083a8ec0b964736f6c63430008140033",
  "linkReferences": {},
  "deployedLinkReferences": {}
}