{
  "_format": "hh-sol-artifact-1",
  "contractName": "SwapProtocol",
  "sourceName": "contracts/layer6/trading/SwapProtocol.sol",
  "abi": [
    {
      "inputs": [
        {
          "internalType": "address",
          "name": "_treasury",
          "type": "address"
        }
      ],
      "stateMutability": "nonpayable",
      "type": "constructor"
    },
    {
      "inputs": [],
      "name": "AccessControlBadConfirmation",
      "type": "error"
    },
    {
      "inputs": [
        {
          "internalType": "address",
          "name": "account",
          "type": "address"
        },
        {
          "internalType": "bytes32",
          "name": "neededRole",
          "type": "bytes32"
        }
      ],
      "name": "AccessControlUnauthorizedAccount",
      "type": "error"
    },
    {
      "inputs": [],
      "name": "ReentrancyGuardReentrantCall",
      "type": "error"
    },
    {
      "anonymous": false,
      "inputs": [
        {
          "indexed": true,
          "internalType": "bytes32",
          "name": "role",
          "type": "bytes32"
        },
        {
          "indexed": true,
          "internalType": "bytes32",
          "name": "previousAdminRole",
          "type": "bytes32"
        },
        {
          "indexed": true,
          "internalType": "bytes32",
          "name": "newAdminRole",
          "type": "bytes32"
        }
      ],
      "name": "RoleAdminChanged",
      "type": "event"
    },
    {
      "anonymous": false,
      "inputs": [
        {
          "indexed": true,
          "internalType": "bytes32",
          "name": "role",
          "type": "bytes32"
        },
        {
          "indexed": true,
          "internalType": "address",
          "name": "account",
          "type": "address"
        },
        {
          "indexed": true,
          "internalType": "address",
          "name": "sender",
          "type": "address"
        }
      ],
      "name": "RoleGranted",
      "type": "event"
    },
    {
      "anonymous": false,
      "inputs": [
        {
          "indexed": true,
          "internalType": "bytes32",
          "name": "role",
          "type": "bytes32"
        },
        {
          "indexed": true,
          "internalType": "address",
          "name": "account",
          "type": "address"
        },
        {
          "indexed": true,
          "internalType": "address",
          "name": "sender",
          "type": "address"
        }
      ],
      "name": "RoleRevoked",
      "type": "event"
    },
    {
      "anonymous": false,
      "inputs": [
        {
          "indexed": true,
          "internalType": "uint256",
          "name": "offerId",
          "type": "uint256"
        }
      ],
      "name": "SwapAccepted",
      "type": "event"
    },
    {
      "anonymous": false,
      "inputs": [
        {
          "indexed": true,
          "internalType": "uint256",
          "name": "offerId",
          "type": "uint256"
        }
      ],
      "name": "SwapCancelled",
      "type": "event"
    },
    {
      "anonymous": false,
      "inputs": [
        {
          "indexed": true,
          "internalType": "uint256",
          "name": "offerId",
          "type": "uint256"
        },
        {
          "indexed": true,
          "internalType": "address",
          "name": "offeror",
          "type": "address"
        },
        {
          "indexed": true,
          "internalType": "address",
          "name": "counterparty",
          "type": "address"
        }
      ],
      "name": "SwapOffered",
      "type": "event"
    },
    {
      "inputs": [],
      "name": "DEFAULT_ADMIN_ROLE",
      "outputs": [
        {
          "internalType": "bytes32",
          "name": "",
          "type": "bytes32"
        }
      ],
      "stateMutability": "view",
      "type": "function"
    },
    {
      "inputs": [],
      "name": "OPERATOR_ROLE",
      "outputs": [
        {
          "internalType": "bytes32",
          "name": "",
          "type": "bytes32"
        }
      ],
      "stateMutability": "view",
      "type": "function"
    },
    {
      "inputs": [
        {
          "internalType": "uint256",
          "name": "offerId",
          "type": "uint256"
        }
      ],
      "name": "acceptSwap",
      "outputs": [],
      "stateMutability": "nonpayable",
      "type": "function"
    },
    {
      "inputs": [
        {
          "internalType": "uint256",
          "name": "offerId",
          "type": "uint256"
        }
      ],
      "name": "cancelSwap",
      "outputs": [],
      "stateMutability": "nonpayable",
      "type": "function"
    },
    {
      "inputs": [
        {
          "internalType": "uint256",
          "name": "offerId",
          "type": "uint256"
        }
      ],
      "name": "getOfferItems",
      "outputs": [
        {
          "components": [
            {
              "internalType": "address",
              "name": "nftContract",
              "type": "address"
            },
            {
              "internalType": "uint256",
              "name": "tokenId",
              "type": "uint256"
            },
            {
              "internalType": "uint256",
              "name": "amount",
              "type": "uint256"
            },
            {
              "internalType": "enum SwapProtocol.TokenType",
              "name": "tokenType",
              "type": "uint8"
            }
          ],
          "internalType": "struct SwapProtocol.SwapItem[]",
          "name": "",
          "type": "tuple[]"
        },
        {
          "components": [
            {
              "internalType": "address",
              "name": "nftContract",
              "type": "address"
            },
            {
              "internalType": "uint256",
              "name": "tokenId",
              "type": "uint256"
            },
            {
              "internalType": "uint256",
              "name": "amount",
              "type": "uint256"
            },
            {
              "internalType": "enum SwapProtocol.TokenType",
              "name": "tokenType",
              "type": "uint8"
            }
          ],
          "internalType": "struct SwapProtocol.SwapItem[]",
          "name": "",
          "type": "tuple[]"
        }
      ],
      "stateMutability": "view",
      "type": "function"
    },
    {
      "inputs": [
        {
          "internalType": "address",
          "name": "user",
          "type": "address"
        }
      ],
      "name": "getReceivedOffers",
      "outputs": [
        {
          "internalType": "uint256[]",
          "name": "",
          "type": "uint256[]"
        }
      ],
      "stateMutability": "view",
      "type": "function"
    },
    {
      "inputs": [
        {
          "internalType": "bytes32",
          "name": "role",
          "type": "bytes32"
        }
      ],
      "name": "getRoleAdmin",
      "outputs": [
        {
          "internalType": "bytes32",
          "name": "",
          "type": "bytes32"
        }
      ],
      "stateMutability": "view",
      "type": "function"
    },
    {
      "inputs": [
        {
          "internalType": "address",
          "name": "user",
          "type": "address"
        }
      ],
      "name": "getUserOffers",
      "outputs": [
        {
          "internalType": "uint256[]",
          "name": "",
          "type": "uint256[]"
        }
      ],
      "stateMutability": "view",
      "type": "function"
    },
    {
      "inputs": [
        {
          "internalType": "bytes32",
          "name": "role",
          "type": "bytes32"
        },
        {
          "internalType": "address",
          "name": "account",
          "type": "address"
        }
      ],
      "name": "grantRole",
      "outputs": [],
      "stateMutability": "nonpayable",
      "type": "function"
    },
    {
      "inputs": [
        {
          "internalType": "bytes32",
          "name": "role",
          "type": "bytes32"
        },
        {
          "internalType": "address",
          "name": "account",
          "type": "address"
        }
      ],
      "name": "hasRole",
      "outputs": [
        {
          "internalType": "bool",
          "name": "",
          "type": "bool"
        }
      ],
      "stateMutability": "view",
      "type": "function"
    },
    {
      "inputs": [
        {
          "internalType": "uint256",
          "name": "",
          "type": "uint256"
        },
        {
          "internalType": "uint256",
          "name": "",
          "type": "uint256"
        }
      ],
      "name": "offerItems",
      "outputs": [
        {
          "internalType": "address",
          "name": "nftContract",
          "type": "address"
        },
        {
          "internalType": "uint256",
          "name": "tokenId",
          "type": "uint256"
        },
        {
          "internalType": "uint256",
          "name": "amount",
          "type": "uint256"
        },
        {
          "internalType": "enum SwapProtocol.TokenType",
          "name": "tokenType",
          "type": "uint8"
        }
      ],
      "stateMutability": "view",
      "type": "function"
    },
    {
      "inputs": [],
      "name": "platformFeeBps",
      "outputs": [
        {
          "internalType": "uint256",
          "name": "",
          "type": "uint256"
        }
      ],
      "stateMutability": "view",
      "type": "function"
    },
    {
      "inputs": [
        {
          "internalType": "address",
          "name": "counterparty",
          "type": "address"
        },
        {
          "components": [
            {
              "internalType": "address",
              "name": "nftContract",
              "type": "address"
            },
            {
              "internalType": "uint256",
              "name": "tokenId",
              "type": "uint256"
            },
            {
              "internalType": "uint256",
              "name": "amount",
              "type": "uint256"
            },
            {
              "internalType": "enum SwapProtocol.TokenType",
              "name": "tokenType",
              "type": "uint8"
            }
          ],
          "internalType": "struct SwapProtocol.SwapItem[]",
          "name": "_offerItems",
          "type": "tuple[]"
        },
        {
          "components": [
            {
              "internalType": "address",
              "name": "nftContract",
              "type": "address"
            },
            {
              "internalType": "uint256",
              "name": "tokenId",
              "type": "uint256"
            },
            {
              "internalType": "uint256",
              "name": "amount",
              "type": "uint256"
            },
            {
              "internalType": "enum SwapProtocol.TokenType",
              "name": "tokenType",
              "type": "uint8"
            }
          ],
          "internalType": "struct SwapProtocol.SwapItem[]",
          "name": "_wantItems",
          "type": "tuple[]"
        },
        {
          "internalType": "uint256",
          "name": "duration",
          "type": "uint256"
        },
        {
          "internalType": "string",
          "name": "message",
          "type": "string"
        }
      ],
      "name": "proposeSwap",
      "outputs": [
        {
          "internalType": "uint256",
          "name": "",
          "type": "uint256"
        }
      ],
      "stateMutability": "payable",
      "type": "function"
    },
    {
      "inputs": [
        {
          "internalType": "address",
          "name": "",
          "type": "address"
        },
        {
          "internalType": "uint256",
          "name": "",
          "type": "uint256"
        }
      ],
      "name": "receivedOffers",
      "outputs": [
        {
          "internalType": "uint256",
          "name": "",
          "type": "uint256"
        }
      ],
      "stateMutability": "view",
      "type": "function"
    },
    {
      "inputs": [
        {
          "internalType": "bytes32",
          "name": "role",
          "type": "bytes32"
        },
        {
          "internalType": "address",
          "name": "callerConfirmation",
          "type": "address"
        }
      ],
      "name": "renounceRole",
      "outputs": [],
      "stateMutability": "nonpayable",
      "type": "function"
    },
    {
      "inputs": [
        {
          "internalType": "bytes32",
          "name": "role",
          "type": "bytes32"
        },
        {
          "internalType": "address",
          "name": "account",
          "type": "address"
        }
      ],
      "name": "revokeRole",
      "outputs": [],
      "stateMutability": "nonpayable",
      "type": "function"
    },
    {
      "inputs": [
        {
          "internalType": "bytes4",
          "name": "i",
          "type": "bytes4"
        }
      ],
      "name": "supportsInterface",
      "outputs": [
        {
          "internalType": "bool",
          "name": "",
          "type": "bool"
        }
      ],
      "stateMutability": "view",
      "type": "function"
    },
    {
      "inputs": [
        {
          "internalType": "uint256",
          "name": "",
          "type": "uint256"
        }
      ],
      "name": "swapOffers",
      "outputs": [
        {
          "internalType": "uint256",
          "name": "offerId",
          "type": "uint256"
        },
        {
          "internalType": "address",
          "name": "offeror",
          "type": "address"
        },
        {
          "internalType": "address",
          "name": "counterparty",
          "type": "address"
        },
        {
          "internalType": "uint256",
          "name": "ethSupplement",
          "type": "uint256"
        },
        {
          "internalType": "enum SwapProtocol.SwapStatus",
          "name": "status",
          "type": "uint8"
        },
        {
          "internalType": "uint256",
          "name": "createdAt",
          "type": "uint256"
        },
        {
          "internalType": "uint256",
          "name": "expiresAt",
          "type": "uint256"
        },
        {
          "internalType": "string",
          "name": "message",
          "type": "string"
        }
      ],
      "stateMutability": "view",
      "type": "function"
    },
    {
      "inputs": [],
      "name": "totalSwaps",
      "outputs": [
        {
          "internalType": "uint256",
          "name": "",
          "type": "uint256"
        }
      ],
      "stateMutability": "view",
      "type": "function"
    },
    {
      "inputs": [],
      "name": "treasury",
      "outputs": [
        {
          "internalType": "address",
          "name": "",
          "type": "address"
        }
      ],
      "stateMutability": "view",
      "type": "function"
    },
    {
      "inputs": [
        {
          "internalType": "address",
          "name": "",
          "type": "address"
        },
        {
          "internalType": "uint256",
          "name": "",
          "type": "uint256"
        }
      ],
      "name": "userOffers",
      "outputs": [
        {
          "internalType": "uint256",
          "name": "",
          "type": "uint256"
        }
      ],
      "stateMutability": "view",
      "type": "function"
    },
    {
      "inputs": [
        {
          "internalType": "uint256",
          "name": "",
          "type": "uint256"
        },
        {
          "internalType": "uint256",
          "name": "",
          "type": "uint256"
        }
      ],
      "name": "wantItems",
      "outputs": [
        {
          "internalType": "address",
          "name": "nftContract",
          "type": "address"
        },
        {
          "internalType": "uint256",
          "name": "tokenId",
          "type": "uint256"
        },
        {
          "internalType": "uint256",
          "name": "amount",
          "type": "uint256"
        },
        {
          "internalType": "enum SwapProtocol.TokenType",
          "name": "tokenType",
          "type": "uint8"
        }
      ],
      "stateMutability": "view",
      "type": "function"
    }
  ],
  "bytecode": "0x6080346200009b57601f62001fa438819003918201601f19168301916001600160401b03831184841017620000a0578084926020946040528339810103126200009b57516001600160a01b038116908190036200009b57600180556064600955600880546001600160a01b0319169190911790556200007e33620000b6565b506200008a3362000136565b50604051611dab9081620001d98239f35b600080fd5b634e487b7160e01b600052604160045260246000fd5b6001600160a01b031660008181527fad3228b676f7d3cd4284a5443f17f1962b36e491b30a40b2405849e597ba5fb5602052604081205490919060ff166200013257818052816020526040822081835260205260408220600160ff19825416179055339160008051602062001f848339815191528180a4600190565b5090565b6001600160a01b031660008181527fee57cd81e84075558e8fcc182a1f4393f91fc97f963a136e66b7f949a62f319f60205260408120549091907f97667070c54ef182b0f5858b034beac1b6f3089aa2d3188bb1e8929f4fa9b9299060ff16620001d357808352826020526040832082845260205260408320600160ff1982541617905560008051602062001f84833981519152339380a4600190565b50509056fe608080604052600436101561001357600080fd5b60003560e01c90816301ffc9a7146112bb5750806312b4b180146112365780631bf3300414610f4057806322dcd13e14610f22578063248a9ca314610ef35780632f2ff15d14610eb457806336568abe14610e4857806347ee8bf81461084357806348ef42ad1461081457806354d6a2b71461064657806361d027b314610612578063661d2c2c1461058157806387edbb691461051657806391d14854146104bb57806395e4d5fd14610466578063a13f1c6214610298578063a217fddf1461027c578063ad7646ca14610213578063b4a800ce146101f5578063bd5fec6514610192578063d547741f146101515763f5b541a61461011157600080fd5b3461014c57600060031936011261014c5760206040517f97667070c54ef182b0f5858b034beac1b6f3089aa2d3188bb1e8929f4fa9b9298152f35b600080fd5b3461014c57604060031936011261014c5761019060043561017061137c565b9080600052600060205261018b6001604060002001546116da565b6117c3565b005b3461014c57604060031936011261014c576101ab611359565b73ffffffffffffffffffffffffffffffffffffffff602435911660005260066020526040600020805482101561014c576020916101e7916115f9565b90546040519160031b1c8152f35b3461014c57600060031936011261014c576020600a54604051908152f35b3461014c57602060031936011261014c57600435600052600460205261026a60406000206005602052610278610256610250604060002093611d1f565b92611d1f565b604051938493604085526040850190611664565b908382036020850152611664565b0390f35b3461014c57600060031936011261014c57602060405160008152f35b3461014c5760208060031936011261014c5760043560005260038152604060002080549173ffffffffffffffffffffffffffffffffffffffff9160019280848301541690600283015416600383015460ff60048501541691600585015493600760068701549601604051809960009083549361031385611611565b948585528c8382169182600014610443575050600114610403575b505061033c92500389611439565b604051988952868901526040880152606087015260048110156103d457608086015260a085015260c0840152610100918260e08501528051809385015260005b8381106103bf57505050817fffffffffffffffffffffffffffffffffffffffffffffffffffffffffffffffe0601f61012093600085828601015201168101030190f35b8181018301518582016101200152820161037c565b7f4e487b7100000000000000000000000000000000000000000000000000000000600052602160045260246000fd5b8b925060005281600020906000915b85831061042a57505061033c93508201018c8061032e565b819484848396959654920101520191018b928b92610412565b9150935061033c95925060ff1991501682840152151560051b8201018c8061032e565b3461014c57604060031936011261014c5761047f611359565b73ffffffffffffffffffffffffffffffffffffffff602435911660005260076020526040600020805482101561014c576020916101e7916115f9565b3461014c57604060031936011261014c576104d461137c565b600435600052600060205273ffffffffffffffffffffffffffffffffffffffff60406000209116600052602052602060ff604060002054166040519015158152f35b3461014c5761052436611551565b906000526005602052604060002090815481101561014c5761054591611567565b5073ffffffffffffffffffffffffffffffffffffffff81541661027860018301549260ff600360028301549201541690604051948594856115bf565b3461014c5760208060031936011261014c5773ffffffffffffffffffffffffffffffffffffffff6105b0611359565b1660005260068152604060002090604051908181845491828152019360005281600020916000905b8282106105fb57610278856105ef81890382611439565b6040519182918261139f565b8354865294850194600193840193909101906105d8565b3461014c57600060031936011261014c57602073ffffffffffffffffffffffffffffffffffffffff60085416604051908152f35b3461014c57602060031936011261014c57600435610662611a60565b80600052600360205260406000209060019182810173ffffffffffffffffffffffffffffffffffffffff9182825416331480156107ee575b156107905760048101805460ff811660048110156103d4576002916106c260ff1992156119a7565b16179055836000526004602052846040600020816000905b610753575b5050506003015491821591821561071c575b85857ff6b6b4f7a13f02512c1b3aa8dcc4a07d7775a6a4becbd439efcbd37c5408e67f600080a28055005b600093849384938493541690839061074a575bf11561073e57828080806106f1565b6040513d6000823e3d90fd5b506108fc61072f565b815481101561078b578061078061076d6107859385611567565b5061077b8989541691611a0c565b611be8565b611846565b826106da565b6106df565b60646040517f08c379a000000000000000000000000000000000000000000000000000000000815260206004820152600d60248201527f43616e6e6f742063616e63656c000000000000000000000000000000000000006044820152fd5b5060068101544211801561069a575060ff60048201541660048110156103d4571561069a565b3461014c5761082236611551565b906000526004602052604060002090815481101561014c5761054591611567565b60a060031936011261014c57610857611359565b602480359167ffffffffffffffff9283811161014c5761087b903690600401611492565b9060443584811161014c57610894903690600401611492565b9060843560643586821161014c573660238301121561014c578160040135878111610e1a57604051926108ef60207fffffffffffffffffffffffffffffffffffffffffffffffffffffffffffffffe0601f8501160185611439565b8184523688838301011161014c5781600092896020930183870137840101528451151580610e10575b15610db2573373ffffffffffffffffffffffffffffffffffffffff841614610d5457610e1081101580610d47575b15610ce95760005b85518110156109745761096f9061078033610969838a611873565b51611a9b565b61094e565b50848688610983600254611846565b94856002558560005260036020526040600020928684556001958685017fffffffffffffffffffffffff0000000000000000000000000000000000000000903382825416179055600286019073ffffffffffffffffffffffffffffffffffffffff8b16908254161790553460038601556004850160ff1981541690554260058601554201804211610cbb5760068501558151928311610c8e5750610a2a6007840154611611565b601f8111610c40575b50602090601f8311600114610b99576007929160009183610b8e575b50507fffffffffffffffffffffffffffffffffffffffffffffffffffffffffffffffff82871b9260031b1c1916179101555b816000815b610b5b575b50600091505b610b21575b602084843360005260068352610ab0816040600020611950565b73ffffffffffffffffffffffffffffffffffffffff821660005260078352610adc816040600020611950565b73ffffffffffffffffffffffffffffffffffffffff604051921633827ff01cfd4393b04da465d2a22f48b853f83891d92f6c1549bce977ae7b54924ecf600080a48152f35b8451811015610b5657610b50908360005260056020526107806040600020610b498389611873565b5190611887565b81610a91565b610a96565b8251811015610b8957610b83908560005260046020526107806040600020610b498387611873565b81610a86565b610a8b565b015190508980610a4f565b9185917fffffffffffffffffffffffffffffffffffffffffffffffffffffffffffffffe08216906007860160005260206000209160005b818110610c285750948360079610610bf1575b505050811b01910155610a81565b01517fffffffffffffffffffffffffffffffffffffffffffffffffffffffffffffffff60f88460031b161c19169055898080610be3565b82870151845589959093019260209283019201610bd0565b600784016000526020600020601f840160051c81019160208510610c84575b601f0160051c019086905b828110610c78575050610a33565b60008155018690610c6a565b9091508190610c5f565b7f4e487b710000000000000000000000000000000000000000000000000000000060005260416004526000fd5b507f4e487b710000000000000000000000000000000000000000000000000000000060005260116004526000fd5b6064866010604051917f08c379a0000000000000000000000000000000000000000000000000000000008352602060048401528201527f496e76616c6964206475726174696f6e000000000000000000000000000000006044820152fd5b5062278d00811115610946565b606486600c604051917f08c379a0000000000000000000000000000000000000000000000000000000008352602060048401528201527f4e6f2073656c662d7377617000000000000000000000000000000000000000006044820152fd5b6064866019604051917f08c379a0000000000000000000000000000000000000000000000000000000008352602060048401528201527f4d757374206f6666657220616e642077616e74206974656d73000000000000006044820152fd5b5083511515610918565b867f4e487b710000000000000000000000000000000000000000000000000000000060005260416004526000fd5b3461014c57604060031936011261014c57610e6161137c565b3373ffffffffffffffffffffffffffffffffffffffff821603610e8a57610190906004356117c3565b60046040517f6697b232000000000000000000000000000000000000000000000000000000008152fd5b3461014c57604060031936011261014c57610190600435610ed361137c565b90806000526000602052610eee6001604060002001546116da565b611737565b3461014c57602060031936011261014c5760043560005260006020526020600160406000200154604051908152f35b3461014c57600060031936011261014c576020600954604051908152f35b3461014c5760208060031936011261014c5760043590610f5e611a60565b816000526003815260406000209073ffffffffffffffffffffffffffffffffffffffff928360028401541633036111d857600483019360ff85541660048110156103d457610fac90156119a7565b6006840154421161117a57816000526005835260406000209360005b8554811015610ff75780610780610fe2610ff29389611567565b50610fed3391611a0c565b611a9b565b610fc8565b5085856004600196838860ff19819654161790558660005252816040600020816000905b61114a575b5050906000828501935b611117575b5050505060030180548015801561107a575b858561104e600a54611846565b600a557f7080e652b0056fb27597071d591828292afd96fd17bc428ff26dfcca4acc5230600080a28055005b6009548083029283041417156110df576000808061271081940480966008541682821561110e575bf11561073e5754818103908082116110df576000928392839283928391146110d6575b3390f11561073e5782808080611041565b506108fc6110c5565b7f4e487b7100000000000000000000000000000000000000000000000000000000600052601160045260246000fd5b506108fc6110a2565b8154811015611145578061078061113161113f9385611567565b5061077b8988541691611a0c565b8261102a565b61102f565b8154811015611175578061078061116461116f9385611567565b5061077b3391611a0c565b8261101b565b611020565b606483604051907f08c379a00000000000000000000000000000000000000000000000000000000082526004820152600d60248201527f4f666665722065787069726564000000000000000000000000000000000000006044820152fd5b606482604051907f08c379a00000000000000000000000000000000000000000000000000000000082526004820152601060248201527f4e6f7420636f756e7465727061727479000000000000000000000000000000006044820152fd5b3461014c5760208060031936011261014c5773ffffffffffffffffffffffffffffffffffffffff611265611359565b1660005260078152604060002090604051908181845491828152019360005281600020916000905b8282106112a457610278856105ef81890382611439565b83548652948501946001938401939091019061128d565b3461014c57602060031936011261014c57600435907fffffffff00000000000000000000000000000000000000000000000000000000821680920361014c57817f7965db0b000000000000000000000000000000000000000000000000000000006020931490811561132f575b5015158152f35b7f01ffc9a70000000000000000000000000000000000000000000000000000000091501483611328565b6004359073ffffffffffffffffffffffffffffffffffffffff8216820361014c57565b6024359073ffffffffffffffffffffffffffffffffffffffff8216820361014c57565b6020908160408183019282815285518094520193019160005b8281106113c6575050505090565b8351855293810193928101926001016113b8565b6080810190811067ffffffffffffffff8211176113f657604052565b7f4e487b7100000000000000000000000000000000000000000000000000000000600052604160045260246000fd5b67ffffffffffffffff81116113f657604052565b90601f7fffffffffffffffffffffffffffffffffffffffffffffffffffffffffffffffe0910116810190811067ffffffffffffffff8211176113f657604052565b67ffffffffffffffff81116113f65760051b60200190565b81601f8201121561014c578035906114a98261147a565b926040926114b984519586611439565b808552602091828087019260071b8501019381851161014c578301915b8483106114e65750505050505090565b60808383031261014c578551906114fc826113da565b833573ffffffffffffffffffffffffffffffffffffffff8116810361014c578252848401358583015286840135878301526060908185013592600284101561014c5760809387938201528152019201916114d6565b600319604091011261014c576004359060243590565b80548210156115835760005260206000209060021b0190600090565b7f4e487b7100000000000000000000000000000000000000000000000000000000600052603260045260246000fd5b9060028210156103d45752565b6115f79360609296959373ffffffffffffffffffffffffffffffffffffffff60808401981683526020830152604082015201906115b2565b565b80548210156115835760005260206000200190600090565b90600182811c9216801561165a575b602083101461162b57565b7f4e487b7100000000000000000000000000000000000000000000000000000000600052602260045260246000fd5b91607f1691611620565b90815180825260208080930193019160005b828110611684575050505090565b909192938260806001926116ce885173ffffffffffffffffffffffffffffffffffffffff8151168352848101518584015260408082015190840152606080910151908301906115b2565b01950193929101611676565b80600052600060205260406000203360005260205260ff60406000205416156117005750565b604490604051907fe2517d3f0000000000000000000000000000000000000000000000000000000082523360048301526024820152fd5b906000918083528260205273ffffffffffffffffffffffffffffffffffffffff6040842092169182845260205260ff604084205416156000146117be57808352826020526040832082845260205260408320600160ff198254161790557f2f8788117e7eff1d82e926ec794901d17c78024a50270940304540a733656f0d339380a4600190565b505090565b906000918083528260205273ffffffffffffffffffffffffffffffffffffffff6040842092169182845260205260ff6040842054166000146117be5780835282602052604083208284526020526040832060ff1981541690557ff6391f5c32d9c69d2a47ea670b442974b53935d1edc7fd64eb21e047a839171b339380a4600190565b7fffffffffffffffffffffffffffffffffffffffffffffffffffffffffffffffff81146110df5760010190565b80518210156115835760209160051b010190565b8054680100000000000000008110156113f6576118a991600182018155611567565b61192157600360609173ffffffffffffffffffffffffffffffffffffffff8451167fffffffffffffffffffffffff000000000000000000000000000000000000000082541617815560208401516001820155604084015160028201550191015160028110156103d45760ff60ff198354169116179055565b7f4e487b7100000000000000000000000000000000000000000000000000000000600052600060045260246000fd5b8054680100000000000000008110156113f657611972916001820181556115f9565b7fffffffffffffffffffffffffffffffffffffffffffffffffffffffffffffffff829392549160031b92831b921b1916179055565b156119ae57565b60646040517f08c379a000000000000000000000000000000000000000000000000000000000815260206004820152600b60248201527f4e6f742070656e64696e670000000000000000000000000000000000000000006044820152fd5b90604051611a19816113da565b60ff6003829473ffffffffffffffffffffffffffffffffffffffff815416845260018101546020850152600281015460408501520154169060028210156103d45760600152565b600260015414611a71576002600155565b60046040517f3ee5aeb5000000000000000000000000000000000000000000000000000000008152fd5b90606082015160028110156103d457611b4857602073ffffffffffffffffffffffffffffffffffffffff835116920151823b1561014c576040517f23b872dd00000000000000000000000000000000000000000000000000000000815273ffffffffffffffffffffffffffffffffffffffff90921660048301523060248301526044820152906000908290818381606481015b03925af1801561073e57611b3f5750565b6115f790611425565b73ffffffffffffffffffffffffffffffffffffffff8251166040602084015193015190803b1561014c576040517ff242432a00000000000000000000000000000000000000000000000000000000815273ffffffffffffffffffffffffffffffffffffffff90931660048401523060248401526044830193909352606482015260a06084820152600060a482018190529091829081838160c48101611b2e565b90606082015160028110156103d457611c7f57602073ffffffffffffffffffffffffffffffffffffffff835116920151823b1561014c576040517f42842e0e00000000000000000000000000000000000000000000000000000000815230600482015273ffffffffffffffffffffffffffffffffffffffff9092166024830152604482015290600090829081838160648101611b2e565b73ffffffffffffffffffffffffffffffffffffffff8251166040602084015193015190803b1561014c576040517ff242432a00000000000000000000000000000000000000000000000000000000815230600482015273ffffffffffffffffffffffffffffffffffffffff90931660248401526044830193909352606482015260a06084820152600060a482018190529091829081838160c48101611b2e565b908154611d2b8161147a565b92611d396040519485611439565b818452600090815260208082208186015b848410611d58575050505050565b600483600192611d6785611a0c565b815201920193019290611d4a56fea26469706673582212208791aec423c06ae0fab700ab314f48d85f9f73e2787d7764a2c2d071063c69f364736f6c634300081400332f8788117e7eff1d82e926ec794901d17c78024a50270940304540a733656f0d",
  "linkReferences": {},
  "deployedLinkReferences": {}
}