{
  "_format": "hh-sol-artifact-1",
  "contractName": "CognitiveFingerprint",
  "sourceName": "contracts/layer3/identity/CognitiveFingerprint.sol",
  "abi": [
    {
      "inputs": [],
      "stateMutability": "nonpayable",
      "type": "constructor"
    },
    {
      "inputs": [
        {
          "internalType": "address",
          "name": "owner",
          "type": "address"
        }
      ],
      "name": "OwnableInvalidOwner",
      "type": "error"
    },
    {
      "inputs": [
        {
          "internalType": "address",
          "name": "account",
          "type": "address"
        }
      ],
      "name": "OwnableUnauthorizedAccount",
      "type": "error"
    },
    {
      "anonymous": false,
      "inputs": [
        {
          "indexed": true,
          "internalType": "uint256",
          "name": "identityId",
          "type": "uint256"
        },
        {
          "indexed": false,
          "internalType": "bytes32",
          "name": "fingerprintHash",
          "type": "bytes32"
        }
      ],
      "name": "FingerprintGenerated",
      "type": "event"
    },
    {
      "anonymous": false,
      "inputs": [
        {
          "indexed": true,
          "internalType": "uint256",
          "name": "identityId",
          "type": "uint256"
        },
        {
          "indexed": false,
          "internalType": "bytes32",
          "name": "newHash",
          "type": "bytes32"
        }
      ],
      "name": "FingerprintUpdated",
      "type": "event"
    },
    {
      "anonymous": false,
      "inputs": [
        {
          "indexed": true,
          "internalType": "address",
          "name": "previousOwner",
          "type": "address"
        },
        {
          "indexed": true,
          "internalType": "address",
          "name": "newOwner",
          "type": "address"
        }
      ],
      "name": "OwnershipTransferred",
      "type": "event"
    },
    {
      "inputs": [
        {
          "internalType": "uint256",
          "name": "id1",
          "type": "uint256"
        },
        {
          "internalType": "uint256",
          "name": "id2",
          "type": "uint256"
        }
      ],
      "name": "compareFingerprints",
      "outputs": [
        {
          "internalType": "uint256",
          "name": "",
          "type": "uint256"
        }
      ],
      "stateMutability": "view",
      "type": "function"
    },
    {
      "inputs": [
        {
          "internalType": "uint256",
          "name": "",
          "type": "uint256"
        }
      ],
      "name": "fingerprints",
      "outputs": [
        {
          "internalType": "uint256",
          "name": "identityId",
          "type": "uint256"
        },
        {
          "internalType": "bytes32",
          "name": "fingerprintHash",
          "type": "bytes32"
        },
        {
          "internalType": "uint256",
          "name": "problemSolvingStyle",
          "type": "uint256"
        },
        {
          "internalType": "uint256",
          "name": "learningSpeed",
          "type": "uint256"
        },
        {
          "internalType": "uint256",
          "name": "adaptationRate",
          "type": "uint256"
        },
        {
          "internalType": "uint256",
          "name": "memoryRetention",
          "type": "uint256"
        },
        {
          "internalType": "uint256",
          "name": "patternRecognition",
          "type": "uint256"
        },
        {
          "internalType": "uint256",
          "name": "creativeThinking",
          "type": "uint256"
        },
        {
          "internalType": "uint256",
          "name": "logicalReasoning",
          "type": "uint256"
        },
        {
          "internalType": "uint256",
          "name": "lastUpdated",
          "type": "uint256"
        }
      ],
      "stateMutability": "view",
      "type": "function"
    },
    {
      "inputs": [
        {
          "internalType": "uint256",
          "name": "identityId",
          "type": "uint256"
        },
        {
          "internalType": "uint256",
          "name": "problemSolving",
          "type": "uint256"
        },
        {
          "internalType": "uint256",
          "name": "learning",
          "type": "uint256"
        },
        {
          "internalType": "uint256",
          "name": "adaptation",
          "type": "uint256"
        },
        {
          "internalType": "uint256",
          "name": "memoryRetention",
          "type": "uint256"
        },
        {
          "internalType": "uint256",
          "name": "pattern",
          "type": "uint256"
        },
        {
          "internalType": "uint256",
          "name": "creative",
          "type": "uint256"
        },
        {
          "internalType": "uint256",
          "name": "logical",
          "type": "uint256"
        }
      ],
      "name": "generateFingerprint",
      "outputs": [
        {
          "internalType": "bytes32",
          "name": "",
          "type": "bytes32"
        }
      ],
      "stateMutability": "nonpayable",
      "type": "function"
    },
    {
      "inputs": [
        {
          "internalType": "uint256",
          "name": "identityId",
          "type": "uint256"
        }
      ],
      "name": "getFingerprint",
      "outputs": [
        {
          "components": [
            {
              "internalType": "uint256",
              "name": "identityId",
              "type": "uint256"
            },
            {
              "internalType": "bytes32",
              "name": "fingerprintHash",
              "type": "bytes32"
            },
            {
              "internalType": "uint256",
              "name": "problemSolvingStyle",
              "type": "uint256"
            },
            {
              "internalType": "uint256",
              "name": "learningSpeed",
              "type": "uint256"
            },
            {
              "internalType": "uint256",
              "name": "adaptationRate",
              "type": "uint256"
            },
            {
              "internalType": "uint256",
              "name": "memoryRetention",
              "type": "uint256"
            },
            {
              "internalType": "uint256",
              "name": "patternRecognition",
              "type": "uint256"
            },
            {
              "internalType": "uint256",
              "name": "creativeThinking",
              "type": "uint256"
            },
            {
              "internalType": "uint256",
              "name": "logicalReasoning",
              "type": "uint256"
            },
            {
              "internalType": "uint256",
              "name": "lastUpdated",
              "type": "uint256"
            }
          ],
          "internalType": "struct CognitiveFingerprint.Fingerprint",
          "name": "",
          "type": "tuple"
        }
      ],
      "stateMutability": "view",
      "type": "function"
    },
    {
      "inputs": [
        {
          "internalType": "bytes32",
          "name": "",
          "type": "bytes32"
        }
      ],
      "name": "hashToIdentity",
      "outputs": [
        {
          "internalType": "uint256",
          "name": "",
          "type": "uint256"
        }
      ],
      "stateMutability": "view",
      "type": "function"
    },
    {
      "inputs": [
        {
          "internalType": "uint256",
          "name": "",
          "type": "uint256"
        }
      ],
      "name": "identityOwner",
      "outputs": [
        {
          "internalType": "address",
          "name": "",
          "type": "address"
        }
      ],
      "stateMutability": "view",
      "type": "function"
    },
    {
      "inputs": [],
      "name": "owner",
      "outputs": [
        {
          "internalType": "address",
          "name": "",
          "type": "address"
        }
      ],
      "stateMutability": "view",
      "type": "function"
    },
    {
      "inputs": [],
      "name": "renounceOwnership",
      "outputs": [],
      "stateMutability": "nonpayable",
      "type": "function"
    },
    {
      "inputs": [
        {
          "internalType": "address",
          "name": "newOwner",
          "type": "address"
        }
      ],
      "name": "transferOwnership",
      "outputs": [],
      "stateMutability": "nonpayable",
      "type": "function"
    }
  ],
  "bytecode": "0x608060405234801561001057600080fd5b50338061003757604051631e4fbdf760e01b81526000600482015260240160405180910390fd5b61004081610046565b50610096565b600080546001600160a01b038381166001600160a01b0319831681178455604051919092169283917f8be0079c531659141344cd1fd0a4f28419497f9722a3daafe3b4186f6b6457e09190a35050565b6108c0806100a56000396000f3fe608060405234801561001057600080fd5b50600436106100935760003560e01c8063715018a611610066578063715018a6146102485780638da5cb5b146102525780639b34fab714610263578063b5e388e714610276578063f2fde38b1461028957600080fd5b8063159a6475146100985780631fc73c691461012d5780633d3848701461015b57806344e051571461019c575b600080fd5b6100ab6100a636600461075c565b61029c565b6040516101249190600061014082019050825182526020830151602083015260408301516040830152606083015160608301526080830151608083015260a083015160a083015260c083015160c083015260e083015160e083015261010080840151818401525061012080840151818401525092915050565b60405180910390f35b61014d61013b36600461075c565b60026020526000908152604090205481565b604051908152602001610124565b61018461016936600461075c565b6003602052600090815260409020546001600160a01b031681565b6040516001600160a01b039091168152602001610124565b6101fe6101aa36600461075c565b6001602052806000526040600020600091509050806000015490806001015490806002015490806003015490806004015490806005015490806006015490806007015490806008015490806009015490508a565b604080519a8b5260208b0199909952978901969096526060880194909452608087019290925260a086015260c085015260e084015261010083015261012082015261014001610124565b610250610378565b005b6000546001600160a01b0316610184565b61014d610271366004610775565b61038c565b61014d610284366004610797565b610442565b6102506102973660046107ec565b610678565b6102f5604051806101400160405280600081526020016000801916815260200160008152602001600081526020016000815260200160008152602001600081526020016000815260200160008152602001600081525090565b506000908152600160208181526040928390208351610140810185528154815292810154918301919091526002810154928201929092526003820154606082015260048201546080820152600582015460a0820152600682015460c0820152600782015460e0820152600882015461010082015260099091015461012082015290565b6103806106b6565b61038a60006106e3565b565b6000828152600160205260408082208383529082206002808301549082015484916103b691610733565b6103c0908261082b565b90506103d483600301548360030154610733565b6103de908261082b565b90506103f283600401548360040154610733565b6103fc908261082b565b905061012c8110610413576000935050505061043c565b61012c61042182606461083e565b61042b9190610855565b610436906064610877565b93505050505b92915050565b6000888152600360205260408120546001600160a01b0316156104ac5760405162461bcd60e51b815260206004820152601860248201527f4964656e7469747920616c726561647920636c61696d6564000000000000000060448201526064015b60405180910390fd5b6040516bffffffffffffffffffffffff193360601b166020820152603481018a905260548101899052607481018890526094810187905260b4810186905260d4810185905260f481018490526101148101839052600090610134016040516020818303038152906040528051906020012090506040518061014001604052808b81526020018281526020018a815260200189815260200188815260200187815260200186815260200185815260200184815260200142815250600160008c8152602001908152602001600020600082015181600001556020820151816001015560408201518160020155606082015181600301556080820151816004015560a0820151816005015560c0820151816006015560e082015181600701556101008201518160080155610120820151816009015590505033600360008c815260200190815260200160002060006101000a8154816001600160a01b0302191690836001600160a01b03160217905550896002600083815260200190815260200160002081905550897f1b2a6b7c68353a4089378da89a7351d25e1ee5bffdd77116a2250fb5e91a7b568260405161066391815260200190565b60405180910390a29998505050505050505050565b6106806106b6565b6001600160a01b0381166106aa57604051631e4fbdf760e01b8152600060048201526024016104a3565b6106b3816106e3565b50565b6000546001600160a01b0316331461038a5760405163118cdaa760e01b81523360048201526024016104a3565b600080546001600160a01b038381166001600160a01b0319831681178455604051919092169283917f8be0079c531659141344cd1fd0a4f28419497f9722a3daafe3b4186f6b6457e09190a35050565b600081831161074b576107468383610877565b610755565b6107558284610877565b9392505050565b60006020828403121561076e57600080fd5b5035919050565b6000806040838503121561078857600080fd5b50508035926020909101359150565b600080600080600080600080610100898b0312156107b457600080fd5b505086359860208801359850604088013597606081013597506080810135965060a0810135955060c0810135945060e0013592509050565b6000602082840312156107fe57600080fd5b81356001600160a01b038116811461075557600080fd5b634e487b7160e01b600052601160045260246000fd5b8082018082111561043c5761043c610815565b808202811582820484141761043c5761043c610815565b60008261087257634e487b7160e01b600052601260045260246000fd5b500490565b8181038181111561043c5761043c61081556fea2646970667358221220f81cbc4a22790066b97261636cab59463fba6037bcfe1fe0e8449c5a26a40efe64736f6c63430008140033",
  "linkReferences": {},
  "deployedLinkReferences": {}
}