{
  "_format": "hh-sol-artifact-1",
  "contractName": "SceneNFT",
  "sourceName": "contracts/layer4/media/SceneNFT.sol",
  "abi": [
    {
      "inputs": [],
      "stateMutability": "nonpayable",
      "type": "constructor"
    },
    {
      "inputs": [
        {
          "internalType": "address",
          "name": "sender",
          "type": "address"
        },
        {
          "internalType": "uint256",
          "name": "tokenId",
          "type": "uint256"
        },
        {
          "internalType": "address",
          "name": "owner",
          "type": "address"
        }
      ],
      "name": "ERC721IncorrectOwner",
      "type": "error"
    },
    {
      "inputs": [
        {
          "internalType": "address",
          "name": "operator",
          "type": "address"
        },
        {
          "internalType": "uint256",
          "name": "tokenId",
          "type": "uint256"
        }
      ],
      "name": "ERC721InsufficientApproval",
      "type": "error"
    },
    {
      "inputs": [
        {
          "internalType": "address",
          "name": "approver",
          "type": "address"
        }
      ],
      "name": "ERC721InvalidApprover",
      "type": "error"
    },
    {
      "inputs": [
        {
          "internalType": "address",
          "name": "operator",
          "type": "address"
        }
      ],
      "name": "ERC721InvalidOperator",
      "type": "error"
    },
    {
      "inputs": [
        {
          "internalType": "address",
          "name": "owner",
          "type": "address"
        }
      ],
      "name": "ERC721InvalidOwner",
      "type": "error"
    },
    {
      "inputs": [
        {
          "internalType": "address",
          "name": "receiver",
          "type": "address"
        }
      ],
      "name": "ERC721InvalidReceiver",
      "type": "error"
    },
    {
      "inputs": [
        {
          "internalType": "address",
          "name": "sender",
          "type": "address"
        }
      ],
      "name": "ERC721InvalidSender",
      "type": "error"
    },
    {
      "inputs": [
        {
          "internalType": "uint256",
          "name": "tokenId",
          "type": "uint256"
        }
      ],
      "name": "ERC721NonexistentToken",
      "type": "error"
    },
    {
      "inputs": [
        {
          "internalType": "address",
          "name": "owner",
          "type": "address"
        }
      ],
      "name": "OwnableInvalidOwner",
      "type": "error"
    },
    {
      "inputs": [
        {
          "internalType": "address",
          "name": "account",
          "type": "address"
        }
      ],
      "name": "OwnableUnauthorizedAccount",
      "type": "error"
    },
    {
      "anonymous": false,
      "inputs": [
        {
          "indexed": true,
          "internalType": "address",
          "name": "owner",
          "type": "address"
        },
        {
          "indexed": true,
          "internalType": "address",
          "name": "approved",
          "type": "address"
        },
        {
          "indexed": true,
          "internalType": "uint256",
          "name": "tokenId",
          "type": "uint256"
        }
      ],
      "name": "Approval",
      "type": "event"
    },
    {
      "anonymous": false,
      "inputs": [
        {
          "indexed": true,
          "internalType": "address",
          "name": "owner",
          "type": "address"
        },
        {
          "indexed": true,
          "internalType": "address",
          "name": "operator",
          "type": "address"
        },
        {
          "indexed": false,
          "internalType": "bool",
          "name": "approved",
          "type": "bool"
        }
      ],
      "name": "ApprovalForAll",
      "type": "event"
    },
    {
      "anonymous": false,
      "inputs": [
        {
          "indexed": true,
          "internalType": "address",
          "name": "previousOwner",
          "type": "address"
        },
        {
          "indexed": true,
          "internalType": "address",
          "name": "newOwner",
          "type": "address"
        }
      ],
      "name": "OwnershipTransferred",
      "type": "event"
    },
    {
      "anonymous": false,
      "inputs": [
        {
          "indexed": true,
          "internalType": "uint256",
          "name": "sceneId",
          "type": "uint256"
        },
        {
          "indexed": true,
          "internalType": "address",
          "name": "licensee",
          "type": "address"
        },
        {
          "indexed": false,
          "internalType": "uint256",
          "name": "fee",
          "type": "uint256"
        }
      ],
      "name": "SceneLicensed",
      "type": "event"
    },
    {
      "anonymous": false,
      "inputs": [
        {
          "indexed": true,
          "internalType": "uint256",
          "name": "sceneId",
          "type": "uint256"
        },
        {
          "indexed": true,
          "internalType": "address",
          "name": "creator",
          "type": "address"
        }
      ],
      "name": "SceneMinted",
      "type": "event"
    },
    {
      "anonymous": false,
      "inputs": [
        {
          "indexed": true,
          "internalType": "address",
          "name": "from",
          "type": "address"
        },
        {
          "indexed": true,
          "internalType": "address",
          "name": "to",
          "type": "address"
        },
        {
          "indexed": true,
          "internalType": "uint256",
          "name": "tokenId",
          "type": "uint256"
        }
      ],
      "name": "Transfer",
      "type": "event"
    },
    {
      "inputs": [
        {
          "internalType": "uint256",
          "name": "sceneId",
          "type": "uint256"
        },
        {
          "internalType": "uint256",
          "name": "actorId",
          "type": "uint256"
        }
      ],
      "name": "addActor",
      "outputs": [],
      "stateMutability": "nonpayable",
      "type": "function"
    },
    {
      "inputs": [
        {
          "internalType": "uint256",
          "name": "sceneId",
          "type": "uint256"
        },
        {
          "internalType": "uint256",
          "name": "propId",
          "type": "uint256"
        }
      ],
      "name": "addProp",
      "outputs": [],
      "stateMutability": "nonpayable",
      "type": "function"
    },
    {
      "inputs": [
        {
          "internalType": "address",
          "name": "to",
          "type": "address"
        },
        {
          "internalType": "uint256",
          "name": "tokenId",
          "type": "uint256"
        }
      ],
      "name": "approve",
      "outputs": [],
      "stateMutability": "nonpayable",
      "type": "function"
    },
    {
      "inputs": [
        {
          "internalType": "address",
          "name": "owner",
          "type": "address"
        }
      ],
      "name": "balanceOf",
      "outputs": [
        {
          "internalType": "uint256",
          "name": "",
          "type": "uint256"
        }
      ],
      "stateMutability": "view",
      "type": "function"
    },
    {
      "inputs": [
        {
          "internalType": "uint256",
          "name": "tokenId",
          "type": "uint256"
        }
      ],
      "name": "getApproved",
      "outputs": [
        {
          "internalType": "address",
          "name": "",
          "type": "address"
        }
      ],
      "stateMutability": "view",
      "type": "function"
    },
    {
      "inputs": [
        {
          "internalType": "uint256",
          "name": "sceneId",
          "type": "uint256"
        }
      ],
      "name": "getScene",
      "outputs": [
        {
          "components": [
            {
              "internalType": "uint256",
              "name": "sceneId",
              "type": "uint256"
            },
            {
              "internalType": "string",
              "name": "description",
              "type": "string"
            },
            {
              "internalType": "string",
              "name": "ipfsHash",
              "type": "string"
            },
            {
              "internalType": "uint256",
              "name": "duration",
              "type": "uint256"
            },
            {
              "internalType": "uint256[]",
              "name": "actorIds",
              "type": "uint256[]"
            },
            {
              "internalType": "uint256[]",
              "name": "propIds",
              "type": "uint256[]"
            },
            {
              "internalType": "enum SceneNFT.SceneType",
              "name": "sceneType",
              "type": "uint8"
            },
            {
              "internalType": "uint256",
              "name": "productionCost",
              "type": "uint256"
            },
            {
              "internalType": "uint256",
              "name": "timesUsed",
              "type": "uint256"
            },
            {
              "internalType": "address",
              "name": "creator",
              "type": "address"
            }
          ],
          "internalType": "struct SceneNFT.Scene",
          "name": "",
          "type": "tuple"
        }
      ],
      "stateMutability": "view",
      "type": "function"
    },
    {
      "inputs": [
        {
          "internalType": "address",
          "name": "owner",
          "type": "address"
        },
        {
          "internalType": "address",
          "name": "operator",
          "type": "address"
        }
      ],
      "name": "isApprovedForAll",
      "outputs": [
        {
          "internalType": "bool",
          "name": "",
          "type": "bool"
        }
      ],
      "stateMutability": "view",
      "type": "function"
    },
    {
      "inputs": [
        {
          "internalType": "uint256",
          "name": "sceneId",
          "type": "uint256"
        }
      ],
      "name": "licenseScene",
      "outputs": [],
      "stateMutability": "payable",
      "type": "function"
    },
    {
      "inputs": [
        {
          "internalType": "string",
          "name": "description",
          "type": "string"
        },
        {
          "internalType": "string",
          "name": "ipfsHash",
          "type": "string"
        },
        {
          "internalType": "uint256",
          "name": "duration",
          "type": "uint256"
        },
        {
          "internalType": "enum SceneNFT.SceneType",
          "name": "sceneType",
          "type": "uint8"
        },
        {
          "internalType": "uint256",
          "name": "royaltyPerUse",
          "type": "uint256"
        }
      ],
      "name": "mintScene",
      "outputs": [
        {
          "internalType": "uint256",
          "name": "",
          "type": "uint256"
        }
      ],
      "stateMutability": "nonpayable",
      "type": "function"
    },
    {
      "inputs": [],
      "name": "name",
      "outputs": [
        {
          "internalType": "string",
          "name": "",
          "type": "string"
        }
      ],
      "stateMutability": "view",
      "type": "function"
    },
    {
      "inputs": [],
      "name": "owner",
      "outputs": [
        {
          "internalType": "address",
          "name": "",
          "type": "address"
        }
      ],
      "stateMutability": "view",
      "type": "function"
    },
    {
      "inputs": [
        {
          "internalType": "uint256",
          "name": "tokenId",
          "type": "uint256"
        }
      ],
      "name": "ownerOf",
      "outputs": [
        {
          "internalType": "address",
          "name": "",
          "type": "address"
        }
      ],
      "stateMutability": "view",
      "type": "function"
    },
    {
      "inputs": [],
      "name": "renounceOwnership",
      "outputs": [],
      "stateMutability": "nonpayable",
      "type": "function"
    },
    {
      "inputs": [
        {
          "internalType": "address",
          "name": "from",
          "type": "address"
        },
        {
          "internalType": "address",
          "name": "to",
          "type": "address"
        },
        {
          "internalType": "uint256",
          "name": "tokenId",
          "type": "uint256"
        }
      ],
      "name": "safeTransferFrom",
      "outputs": [],
      "stateMutability": "nonpayable",
      "type": "function"
    },
    {
      "inputs": [
        {
          "internalType": "address",
          "name": "from",
          "type": "address"
        },
        {
          "internalType": "address",
          "name": "to",
          "type": "address"
        },
        {
          "internalType": "uint256",
          "name": "tokenId",
          "type": "uint256"
        },
        {
          "internalType": "bytes",
          "name": "data",
          "type": "bytes"
        }
      ],
      "name": "safeTransferFrom",
      "outputs": [],
      "stateMutability": "nonpayable",
      "type": "function"
    },
    {
      "inputs": [
        {
          "internalType": "uint256",
          "name": "",
          "type": "uint256"
        }
      ],
      "name": "sceneRoyalties",
      "outputs": [
        {
          "internalType": "uint256",
          "name": "",
          "type": "uint256"
        }
      ],
      "stateMutability": "view",
      "type": "function"
    },
    {
      "inputs": [
        {
          "internalType": "uint256",
          "name": "",
          "type": "uint256"
        }
      ],
      "name": "scenes",
      "outputs": [
        {
          "internalType": "uint256",
          "name": "sceneId",
          "type": "uint256"
        },
        {
          "internalType": "string",
          "name": "description",
          "type": "string"
        },
        {
          "internalType": "string",
          "name": "ipfsHash",
          "type": "string"
        },
        {
          "internalType": "uint256",
          "name": "duration",
          "type": "uint256"
        },
        {
          "internalType": "enum SceneNFT.SceneType",
          "name": "sceneType",
          "type": "uint8"
        },
        {
          "internalType": "uint256",
          "name": "productionCost",
          "type": "uint256"
        },
        {
          "internalType": "uint256",
          "name": "timesUsed",
          "type": "uint256"
        },
        {
          "internalType": "address",
          "name": "creator",
          "type": "address"
        }
      ],
      "stateMutability": "view",
      "type": "function"
    },
    {
      "inputs": [
        {
          "internalType": "address",
          "name": "operator",
          "type": "address"
        },
        {
          "internalType": "bool",
          "name": "approved",
          "type": "bool"
        }
      ],
      "name": "setApprovalForAll",
      "outputs": [],
      "stateMutability": "nonpayable",
      "type": "function"
    },
    {
      "inputs": [
        {
          "internalType": "bytes4",
          "name": "interfaceId",
          "type": "bytes4"
        }
      ],
      "name": "supportsInterface",
      "outputs": [
        {
          "internalType": "bool",
          "name": "",
          "type": "bool"
        }
      ],
      "stateMutability": "view",
      "type": "function"
    },
    {
      "inputs": [],
      "name": "symbol",
      "outputs": [
        {
          "internalType": "string",
          "name": "",
          "type": "string"
        }
      ],
      "stateMutability": "view",
      "type": "function"
    },
    {
      "inputs": [
        {
          "internalType": "uint256",
          "name": "tokenId",
          "type": "uint256"
        }
      ],
      "name": "tokenURI",
      "outputs": [
        {
          "internalType": "string",
          "name": "",
          "type": "string"
        }
      ],
      "stateMutability": "view",
      "type": "function"
    },
    {
      "inputs": [
        {
          "internalType": "address",
          "name": "from",
          "type": "address"
        },
        {
          "internalType": "address",
          "name": "to",
          "type": "address"
        },
        {
          "internalType": "uint256",
          "name": "tokenId",
          "type": "uint256"
        }
      ],
      "name": "transferFrom",
      "outputs": [],
      "stateMutability": "nonpayable",
      "type": "function"
    },
    {
      "inputs": [
        {
          "internalType": "address",
          "name": "newOwner",
          "type": "address"
        }
      ],
      "name": "transferOwnership",
      "outputs": [],
      "stateMutability": "nonpayable",
      "type": "function"
    }
  ],
  "bytecode": "0x60803462000377576001600160401b03906040818101838111838210176200036157815260098252602091684f414e205363656e6560b81b83820152815193828501858110828211176200036157835260058552645343454e4560d81b84860152815181811162000361576000948554916001948584811c9416801562000356575b8385101462000342578190601f94858111620002ef575b5083908583116001146200028b5789926200027f575b5050600019600383901b1c191690851b1786555b86519283116200026b5783548481811c9116801562000260575b828210146200024c5782811162000204575b50809183116001146200019d57508495829394959262000191575b5050600019600383901b1c191690821b1790555b3315620001795760068054336001600160a01b03198216811790925591519290916001600160a01b0316907f8be0079c531659141344cd1fd0a4f28419497f9722a3daafe3b4186f6b6457e09080a3611fca90816200037d8239f35b51631e4fbdf760e01b81526004810191909152602490fd5b01519050388062000109565b90601f198316968487528287209287905b898210620001ec575050838596979810620001d2575b505050811b0190556200011d565b015160001960f88460031b161c19169055388080620001c4565b808785968294968601518155019501930190620001ae565b8487528187208380860160051c82019284871062000242575b0160051c019085905b82811062000236575050620000ee565b88815501859062000226565b925081926200021d565b634e487b7160e01b87526022600452602487fd5b90607f1690620000dc565b634e487b7160e01b86526041600452602486fd5b015190503880620000ae565b898052848a208894509190601f1984168b5b87828210620002d85750508411620002be575b505050811b018655620000c2565b015160001960f88460031b161c19169055388080620002b0565b8385015186558b979095019493840193016200029d565b9091508880528389208580850160051c82019286861062000338575b918991869594930160051c01915b8281106200032957505062000098565b8b815585945089910162000319565b925081926200030b565b634e487b7160e01b88526022600452602488fd5b93607f169362000081565b634e487b7160e01b600052604160045260246000fd5b600080fdfe608080604052600436101561001357600080fd5b60003560e01c90816301ffc9a7146115e45750806306fdde0314611541578063081812fc146114f5578063095ea7b3146113b557806322d7642e146111d457806323b872dd146111bd5780632a65ee0d1461097457806332c57cec146108b057806342842e0e146108825780636352211e1461084657806370a08231146107c8578063715018a614610748578063816d6180146107155780638da5cb5b146106e157806395d89b41146105e4578063a22cb465146104fc578063b88d4fde14610490578063c054a9c81461031e578063c87b56dd146102c7578063d894a5ed1461029b578063e44807fb14610249578063e985e9c5146101e55763f2fde38b1461011c57600080fd5b346101e05760206003193601126101e0576101356116f3565b61013d6119b7565b73ffffffffffffffffffffffffffffffffffffffff8091169081156101af57600654827fffffffffffffffffffffffff0000000000000000000000000000000000000000821617600655167f8be0079c531659141344cd1fd0a4f28419497f9722a3daafe3b4186f6b6457e0600080a3005b60246040517f1e4fbdf700000000000000000000000000000000000000000000000000000000815260006004820152fd5b600080fd5b346101e05760406003193601126101e0576101fe6116f3565b610206611716565b9073ffffffffffffffffffffffffffffffffffffffff809116600052600560205260406000209116600052602052602060ff604060002054166040519015158152f35b346101e05761029961025a366119a1565b9061028461026782611c1b565b73ffffffffffffffffffffffffffffffffffffffff163314611e83565b60005260086020526005604060002001611ee8565b005b346101e05760206003193601126101e05760043560005260096020526020604060002054604051908152f35b346101e05760206003193601126101e0576102e3600435611c1b565b5060006040516102f2816117d9565b5261031a604051610302816117d9565b600081526040519182916020835260208301906116b3565b0390f35b60206003193601126101e05760043580600052600860205260406000209060096020526040600020549182341061043257600080808573ffffffffffffffffffffffffffffffffffffffff600986600885980161037b8154611e51565b9055015416828215610429575bf1156103e5578134116103c4575b6040519182527f9c6e3b468dd7b41cab8855fbb0e2426a823d69fa833c1aa9da84063a9b878abd60203393a3005b8134033481116103fa57600080808093818734146103f1575b3390f1610396575b6040513d6000823e3d90fd5b506108fc6103dd565b7f4e487b7100000000000000000000000000000000000000000000000000000000600052601160045260246000fd5b506108fc610388565b60646040517f08c379a000000000000000000000000000000000000000000000000000000000815260206004820152601460248201527f496e73756666696369656e74207061796d656e740000000000000000000000006044820152fd5b346101e05760806003193601126101e0576104a96116f3565b6104b1611716565b906044356064359267ffffffffffffffff84116101e057366023850112156101e0576104ea610299943690602481600401359101611834565b926104f6838383611a08565b33611c7c565b346101e05760406003193601126101e0576105156116f3565b602435908115158092036101e05773ffffffffffffffffffffffffffffffffffffffff169081156105b35733600052600560205260406000208260005260205260406000207fffffffffffffffffffffffffffffffffffffffffffffffffffffffffffffff0081541660ff83161790556040519081527f17307eab39ab6107e8899845ad3d59bd9653f200f220920489ca2b5937696c3160203392a3005b602482604051907f5b08ba180000000000000000000000000000000000000000000000000000000082526004820152fd5b346101e05760006003193601126101e0576040516000600180549061060882611889565b8085529181811690811561069c5750600114610643575b61031a8461062f818603826117f5565b6040519182916020835260208301906116b3565b600081815292507fb10e2d527612073b26eecdfd717e6a320cf44b4afac2b0732d9fcbe2b7fa0cf65b82841061068457505050810160200161062f8261061f565b8054602085870181019190915290930192810161066c565b7fffffffffffffffffffffffffffffffffffffffffffffffffffffffffffffff001660208087019190915292151560051b8501909201925061062f915083905061061f565b346101e05760006003193601126101e057602073ffffffffffffffffffffffffffffffffffffffff60065416604051908152f35b346101e057610299610726366119a1565b9061073361026782611c1b565b60005260086020526004604060002001611ee8565b346101e05760006003193601126101e0576107616119b7565b600073ffffffffffffffffffffffffffffffffffffffff6006547fffffffffffffffffffffffff00000000000000000000000000000000000000008116600655167f8be0079c531659141344cd1fd0a4f28419497f9722a3daafe3b4186f6b6457e08280a3005b346101e05760206003193601126101e05773ffffffffffffffffffffffffffffffffffffffff6107f66116f3565b1680156108155760005260036020526020604060002054604051908152f35b60246040517f89c62b6400000000000000000000000000000000000000000000000000000000815260006004820152fd5b346101e05760206003193601126101e0576020610864600435611c1b565b73ffffffffffffffffffffffffffffffffffffffff60405191168152f35b346101e0576102996108933661177a565b90604051926108a1846117d9565b600084526104f6838383611a08565b346101e05760206003193601126101e0576004356000526008602052604060002080546108df600183016118dc565b916108ec600282016118dc565b60038201549160ff60068201541661096160078301549161095173ffffffffffffffffffffffffffffffffffffffff6009600887015496015416956109436040519a8b9a8b526101008060208d01528b01906116b3565b9089820360408b01526116b3565b956060880152608087019061176d565b60a085015260c084015260e08301520390f35b346101e05760a06003193601126101e05760043567ffffffffffffffff81116101e0576109a590369060040161186b565b60243567ffffffffffffffff81116101e0576109c590369060040161186b565b600760643510156101e0576109db600754611e51565b90816007556040516109ec816117d9565b60008152331561118c5782600052600260205273ffffffffffffffffffffffffffffffffffffffff6040600020541680611138575b3360005260036020526040600020600181540190558360005260026020526040600020337fffffffffffffffffffffffff00000000000000000000000000000000000000008254161790558333827fddf252ad1be2c89b69c2b068fc378daa952ba7f163c4a11628f55a4df523b3ef600080a461110757333b610f78575b50604051610aac816117d9565b6000815260405191610abd836117d9565b6000835260405194610ace866117bc565b848652602086015260408501526044356060850152608084015260a0830152610afc60643560c08401611e60565b600060e0830152600061010083015233610120830152806000526008602052604060002091805183556020810151805167ffffffffffffffff8111610dc957806001860192610b4b8454611889565b601f8111610f46575b50602090601f8311600114610ee057600092610ed5575b50506000198260011b9260031b1c19161790555b6040810151805167ffffffffffffffff8111610dc957806002860192610ba58454611889565b601f8111610e98575b50602090601f8311600114610e3457600092610e29575b50506000198260011b9260031b1c19161790555b60608101516003840155608081015180519067ffffffffffffffff8211610dc957680100000000000000008211610dc957602060048601918254848455808510610e0c575b500190600052602060002060005b838110610df8575050505060a081015180519067ffffffffffffffff8211610dc957680100000000000000008211610dc957602060058601918254848455808510610dac575b500190600052602060002060005b838110610d98575050505060c081015192600681016007851015610d6957600973ffffffffffffffffffffffffffffffffffffffff928260209760ff7fffffffffffffffffffffffffffffffffffffffffffffffffffffffffffffff00610120965416911617905560e08501516007820155610100850151600882015501920151167fffffffffffffffffffffffff000000000000000000000000000000000000000082541617905580600052600982526084356040600020556040519033817f81cfe108513b096b79bde811e0bf972424dd69717f026bc6fb0e7ea9373116a4600080a38152f35b7f4e487b7100000000000000000000000000000000000000000000000000000000600052602160045260246000fd5b600190602084519401938184015501610c80565b610dc3908460005285846000209182019101611e6c565b87610c72565b7f4e487b7100000000000000000000000000000000000000000000000000000000600052604160045260246000fd5b600190602084519401938184015501610c2c565b610e23908460005285846000209182019101611e6c565b87610c1e565b015190508680610bc5565b60008581526020812093601f1916905b818110610e805750908460019594939210610e67575b505050811b019055610bd9565b015160001960f88460031b161c19169055868080610e5a565b92936020600181928786015181550195019301610e44565b610ec590856000526020600020601f850160051c81019160208610610ecb575b601f0160051c0190611e6c565b87610bae565b9091508190610eb8565b015190508680610b6b565b6000858152602081209350601f198516905b818110610f2e5750908460019594939210610f15575b505050811b019055610b7f565b015160001960f88460031b161c19169055868080610f08565b92936020600181928786015181550195019301610ef2565b610f7290856000526020600020601f850160051c81019160208610610ecb57601f0160051c0190611e6c565b87610b54565b60405160208180610fcb7f150b7a020000000000000000000000000000000000000000000000000000000095868352336004840152600060248401528860448401526080606484015260848301906116b3565b03816000335af1600091816110aa575b5061104d573d15611046573d610ff081611818565b90610ffe60405192836117f5565b81523d6000602083013e5b805190816110415760246040517f64a0ae92000000000000000000000000000000000000000000000000000000008152336004820152fd5b602001fd5b6060611009565b7fffffffff00000000000000000000000000000000000000000000000000000000160361107a5783610a9f565b60246040517f64a0ae92000000000000000000000000000000000000000000000000000000008152336004820152fd5b9091506020813d6020116110ff575b816110c6602093836117f5565b810103126101e057517fffffffff00000000000000000000000000000000000000000000000000000000811681036101e0579086610fdb565b3d91506110b9565b60246040517f73c6ac6e00000000000000000000000000000000000000000000000000000000815260006004820152fd5b61117184600052600460205260406000207fffffffffffffffffffffffff00000000000000000000000000000000000000008154169055565b80600052600360205260406000206000198154019055610a21565b60246040517f64a0ae9200000000000000000000000000000000000000000000000000000000815260006004820152fd5b346101e0576102996111ce3661177a565b91611a08565b346101e05760206003193601126101e05760006101206040516111f6816117bc565b828152606060208201526060604082015282606082015260606080820152606060a08201528260c08201528260e08201528261010082015201526004356000526008602052604060002073ffffffffffffffffffffffffffffffffffffffff600960405192611264846117bc565b80548452611274600182016118dc565b6020850152611285600282016118dc565b6040850152600381015460608501526112a060048201611f45565b60808501526112b160058201611f45565b60a08501526112ca60ff60068301541660c08601611e60565b600781015460e0850152600881015461010085015201541661012082015260405180916020825280516020830152602081015173ffffffffffffffffffffffffffffffffffffffff610120611382611330610140948560408901526101608801906116b3565b61136d61134f604088015192601f1993848b83030160608c01526116b3565b606088015160808a01526080880151838a83030160a08b0152611739565b9060a0870151908883030160c0890152611739565b9361139560c082015160e088019061176d565b60e081015161010087015261010081015182870152015116908301520390f35b346101e05760406003193601126101e0576113ce6116f3565b6024356113da81611c1b565b331515806114d5575b8061149a575b61146a57819073ffffffffffffffffffffffffffffffffffffffff809416938491167f8c5be1e5ebec7d5bd14f71427d1e84f3dd0314c0f7b2291e5b200ac8c7c3b925600080a460005260046020526040600020907fffffffffffffffffffffffff0000000000000000000000000000000000000000825416179055600080f35b60246040517fa9fbf51f000000000000000000000000000000000000000000000000000000008152336004820152fd5b5073ffffffffffffffffffffffffffffffffffffffff8116600052600560205260406000203360005260205260ff60406000205416156113e9565b503373ffffffffffffffffffffffffffffffffffffffff821614156113e3565b346101e05760206003193601126101e05760043561151281611c1b565b506000526004602052602073ffffffffffffffffffffffffffffffffffffffff60406000205416604051908152f35b346101e05760006003193601126101e0576040516000805461156281611889565b8084529060019081811690811561069c575060011461158b5761031a8461062f818603826117f5565b600080805292507f290decd9548b62a8d60345a988386fc84ba6bc95484008f6362f93160ef3e5635b8284106115cc57505050810160200161062f8261061f565b805460208587018101919091529093019281016115b4565b346101e05760206003193601126101e057600435907fffffffff0000000000000000000000000000000000000000000000000000000082168092036101e057817f80ac58cd0000000000000000000000000000000000000000000000000000000060209314908115611689575b811561165f575b5015158152f35b7f01ffc9a70000000000000000000000000000000000000000000000000000000091501483611658565b7f5b5e139f0000000000000000000000000000000000000000000000000000000081149150611651565b919082519283825260005b8481106116df575050601f19601f8460006020809697860101520116010190565b6020818301810151848301820152016116be565b6004359073ffffffffffffffffffffffffffffffffffffffff821682036101e057565b6024359073ffffffffffffffffffffffffffffffffffffffff821682036101e057565b90815180825260208080930193019160005b828110611759575050505090565b83518552938101939281019260010161174b565b906007821015610d695752565b60031960609101126101e05773ffffffffffffffffffffffffffffffffffffffff9060043582811681036101e0579160243590811681036101e0579060443590565b610140810190811067ffffffffffffffff821117610dc957604052565b6020810190811067ffffffffffffffff821117610dc957604052565b90601f601f19910116810190811067ffffffffffffffff821117610dc957604052565b67ffffffffffffffff8111610dc957601f01601f191660200190565b92919261184082611818565b9161184e60405193846117f5565b8294818452818301116101e0578281602093846000960137010152565b9080601f830112156101e05781602061188693359101611834565b90565b90600182811c921680156118d2575b60208310146118a357565b7f4e487b7100000000000000000000000000000000000000000000000000000000600052602260045260246000fd5b91607f1691611898565b90604051918260008254926118f084611889565b90818452600194858116908160001461195f575060011461191c575b505061191a925003836117f5565b565b9093915060005260209081600020936000915b81831061194757505061191a9350820101388061190c565b8554888401850152948501948794509183019161192f565b905061191a9550602093507fffffffffffffffffffffffffffffffffffffffffffffffffffffffffffffff0091501682840152151560051b820101388061190c565b60031960409101126101e0576004359060243590565b73ffffffffffffffffffffffffffffffffffffffff6006541633036119d857565b60246040517f118cdaa7000000000000000000000000000000000000000000000000000000008152336004820152fd5b909173ffffffffffffffffffffffffffffffffffffffff80931692831561118c57600092828452826020956002875260409684888820541696879133151580611b53575b509060027fddf252ad1be2c89b69c2b068fc378daa952ba7f163c4a11628f55a4df523b3ef9284611b03575b858352600381528b83206001815401905586835252898120847fffffffffffffffffffffffff000000000000000000000000000000000000000082541617905580a41692838303611ac95750505050565b6064945051927f64283d7b000000000000000000000000000000000000000000000000000000008452600484015260248301526044820152fd5b611b3c87600052600460205260406000207fffffffffffffffffffffffff00000000000000000000000000000000000000008154169055565b848352600381528b83206000198154019055611a78565b91939450915080611bda575b15611b6f57859291879138611a4c565b878688611ba55760249151907f7e2732890000000000000000000000000000000000000000000000000000000082526004820152fd5b60449151907f177e802f0000000000000000000000000000000000000000000000000000000082523360048301526024820152fd5b503387148015611bff575b80611b5f5750858252600481523385898420541614611b5f565b5086825260058152878220338352815260ff8883205416611be5565b80600052600260205273ffffffffffffffffffffffffffffffffffffffff60406000205416908115611c4b575090565b602490604051907f7e2732890000000000000000000000000000000000000000000000000000000082526004820152fd5b90939192833b611c8e575b5050505050565b73ffffffffffffffffffffffffffffffffffffffff95929394958095169460405196817f150b7a020000000000000000000000000000000000000000000000000000000094858a5216600489015216602487015260448601526080606486015284611cff60209460848301906116b3565b039483816000978189895af1869181611df5575b50611d8c575050503d600014611d83573d611d2d81611818565b90611d3b60405192836117f5565b81528093823d92013e5b82519283611d7e57602483604051907f64a0ae920000000000000000000000000000000000000000000000000000000082526004820152fd5b019050fd5b60609250611d45565b9092507fffffffff000000000000000000000000000000000000000000000000000000009194501603611dc457503880808080611c87565b602490604051907f64a0ae920000000000000000000000000000000000000000000000000000000082526004820152fd5b9091508481813d8311611e4a575b611e0d81836117f5565b81010312611e4657517fffffffff0000000000000000000000000000000000000000000000000000000081168103611e46579038611d13565b8680fd5b503d611e03565b60001981146103fa5760010190565b6007821015610d695752565b818110611e77575050565b60008155600101611e6c565b15611e8a57565b60646040517f08c379a000000000000000000000000000000000000000000000000000000000815260206004820152600960248201527f4e6f74206f776e657200000000000000000000000000000000000000000000006044820152fd5b80549068010000000000000000821015610dc95760018201808255821015611f165760005260206000200155565b7f4e487b7100000000000000000000000000000000000000000000000000000000600052603260045260246000fd5b9060405191828154918282526020928383019160005283600020936000905b828210611f7a5750505061191a925003836117f5565b855484526001958601958895509381019390910190611f6456fea2646970667358221220f428b93edf392dbf79b10f6c49b4398c71a7c7250eeeaf86f33815bd49c98ba464736f6c63430008140033",
  "linkReferences": {},
  "deployedLinkReferences": {}
}