{
  "_format": "hh-sol-artifact-1",
  "contractName": "SceneNFT",
  "sourceName": "contracts/layer4/media/SceneNFT.sol",
  "abi": [
    {
      "inputs": [],
      "stateMutability": "nonpayable",
      "type": "constructor"
    },
    {
      "inputs": [
        {
          "internalType": "address",
          "name": "sender",
          "type": "address"
        },
        {
          "internalType": "uint256",
          "name": "tokenId",
          "type": "uint256"
        },
        {
          "internalType": "address",
          "name": "owner",
          "type": "address"
        }
      ],
      "name": "ERC721IncorrectOwner",
      "type": "error"
    },
    {
      "inputs": [
        {
          "internalType": "address",
          "name": "operator",
          "type": "address"
        },
        {
          "internalType": "uint256",
          "name": "tokenId",
          "type": "uint256"
        }
      ],
      "name": "ERC721InsufficientApproval",
      "type": "error"
    },
    {
      "inputs": [
        {
          "internalType": "address",
          "name": "approver",
          "type": "address"
        }
      ],
      "name": "ERC721InvalidApprover",
      "type": "error"
    },
    {
      "inputs": [
        {
          "internalType": "address",
          "name": "operator",
          "type": "address"
        }
      ],
      "name": "ERC721InvalidOperator",
      "type": "error"
    },
    {
      "inputs": [
        {
          "internalType": "address",
          "name": "owner",
          "type": "address"
        }
      ],
      "name": "ERC721InvalidOwner",
      "type": "error"
    },
    {
      "inputs": [
        {
          "internalType": "address",
          "name": "receiver",
          "type": "address"
        }
      ],
      "name": "ERC721InvalidReceiver",
      "type": "error"
    },
    {
      "inputs": [
        {
          "internalType": "address",
          "name": "sender",
          "type": "address"
        }
      ],
      "name": "ERC721InvalidSender",
      "type": "error"
    },
    {
      "inputs": [
        {
          "internalType": "uint256",
          "name": "tokenId",
          "type": "uint256"
        }
      ],
      "name": "ERC721NonexistentToken",
      "type": "error"
    },
    {
      "inputs": [
        {
          "internalType": "address",
          "name": "owner",
          "type": "address"
        }
      ],
      "name": "OwnableInvalidOwner",
      "type": "error"
    },
    {
      "inputs": [
        {
          "internalType": "address",
          "name": "account",
          "type": "address"
        }
      ],
      "name": "OwnableUnauthorizedAccount",
      "type": "error"
    },
    {
      "anonymous": false,
      "inputs": [
        {
          "indexed": true,
          "internalType": "address",
          "name": "owner",
          "type": "address"
        },
        {
          "indexed": true,
          "internalType": "address",
          "name": "approved",
          "type": "address"
        },
        {
          "indexed": true,
          "internalType": "uint256",
          "name": "tokenId",
          "type": "uint256"
        }
      ],
      "name": "Approval",
      "type": "event"
    },
    {
      "anonymous": false,
      "inputs": [
        {
          "indexed": true,
          "internalType": "address",
          "name": "owner",
          "type": "address"
        },
        {
          "indexed": true,
          "internalType": "address",
          "name": "operator",
          "type": "address"
        },
        {
          "indexed": false,
          "internalType": "bool",
          "name": "approved",
          "type": "bool"
        }
      ],
      "name": "ApprovalForAll",
      "type": "event"
    },
    {
      "anonymous": false,
      "inputs": [
        {
          "indexed": true,
          "internalType": "address",
          "name": "previousOwner",
          "type": "address"
        },
        {
          "indexed": true,
          "internalType": "address",
          "name": "newOwner",
          "type": "address"
        }
      ],
      "name": "OwnershipTransferred",
      "type": "event"
    },
    {
      "anonymous": false,
      "inputs": [
        {
          "indexed": true,
          "internalType": "uint256",
          "name": "sceneId",
          "type": "uint256"
        },
        {
          "indexed": true,
          "internalType": "address",
          "name": "licensee",
          "type": "address"
        },
        {
          "indexed": false,
          "internalType": "uint256",
          "name": "fee",
          "type": "uint256"
        }
      ],
      "name": "SceneLicensed",
      "type": "event"
    },
    {
      "anonymous": false,
      "inputs": [
        {
          "indexed": true,
          "internalType": "uint256",
          "name": "sceneId",
          "type": "uint256"
        },
        {
          "indexed": true,
          "internalType": "address",
          "name": "creator",
          "type": "address"
        }
      ],
      "name": "SceneMinted",
      "type": "event"
    },
    {
      "anonymous": false,
      "inputs": [
        {
          "indexed": true,
          "internalType": "address",
          "name": "from",
          "type": "address"
        },
        {
          "indexed": true,
          "internalType": "address",
          "name": "to",
          "type": "address"
        },
        {
          "indexed": true,
          "internalType": "uint256",
          "name": "tokenId",
          "type": "uint256"
        }
      ],
      "name": "Transfer",
      "type": "event"
    },
    {
      "inputs": [
        {
          "internalType": "uint256",
          "name": "sceneId",
          "type": "uint256"
        },
        {
          "internalType": "uint256",
          "name": "actorId",
          "type": "uint256"
        }
      ],
      "name": "addActor",
      "outputs": [],
      "stateMutability": "nonpayable",
      "type": "function"
    },
    {
      "inputs": [
        {
          "internalType": "uint256",
          "name": "sceneId",
          "type": "uint256"
        },
        {
          "internalType": "uint256",
          "name": "propId",
          "type": "uint256"
        }
      ],
      "name": "addProp",
      "outputs": [],
      "stateMutability": "nonpayable",
      "type": "function"
    },
    {
      "inputs": [
        {
          "internalType": "address",
          "name": "to",
          "type": "address"
        },
        {
          "internalType": "uint256",
          "name": "tokenId",
          "type": "uint256"
        }
      ],
      "name": "approve",
      "outputs": [],
      "stateMutability": "nonpayable",
      "type": "function"
    },
    {
      "inputs": [
        {
          "internalType": "address",
          "name": "owner",
          "type": "address"
        }
      ],
      "name": "balanceOf",
      "outputs": [
        {
          "internalType": "uint256",
          "name": "",
          "type": "uint256"
        }
      ],
      "stateMutability": "view",
      "type": "function"
    },
    {
      "inputs": [
        {
          "internalType": "uint256",
          "name": "tokenId",
          "type": "uint256"
        }
      ],
      "name": "getApproved",
      "outputs": [
        {
          "internalType": "address",
          "name": "",
          "type": "address"
        }
      ],
      "stateMutability": "view",
      "type": "function"
    },
    {
      "inputs": [
        {
          "internalType": "uint256",
          "name": "sceneId",
          "type": "uint256"
        }
      ],
      "name": "getScene",
      "outputs": [
        {
          "components": [
            {
              "internalType": "uint256",
              "name": "sceneId",
              "type": "uint256"
            },
            {
              "internalType": "string",
              "name": "description",
              "type": "string"
            },
            {
              "internalType": "string",
              "name": "ipfsHash",
              "type": "string"
            },
            {
              "internalType": "uint256",
              "name": "duration",
              "type": "uint256"
            },
            {
              "internalType": "uint256[]",
              "name": "actorIds",
              "type": "uint256[]"
            },
            {
              "internalType": "uint256[]",
              "name": "propIds",
              "type": "uint256[]"
            },
            {
              "internalType": "enum SceneNFT.SceneType",
              "name": "sceneType",
              "type": "uint8"
            },
            {
              "internalType": "uint256",
              "name": "productionCost",
              "type": "uint256"
            },
            {
              "internalType": "uint256",
              "name": "timesUsed",
              "type": "uint256"
            },
            {
              "internalType": "address",
              "name": "creator",
              "type": "address"
            }
          ],
          "internalType": "struct SceneNFT.Scene",
          "name": "",
          "type": "tuple"
        }
      ],
      "stateMutability": "view",
      "type": "function"
    },
    {
      "inputs": [
        {
          "internalType": "address",
          "name": "owner",
          "type": "address"
        },
        {
          "internalType": "address",
          "name": "operator",
          "type": "address"
        }
      ],
      "name": "isApprovedForAll",
      "outputs": [
        {
          "internalType": "bool",
          "name": "",
          "type": "bool"
        }
      ],
      "stateMutability": "view",
      "type": "function"
    },
    {
      "inputs": [
        {
          "internalType": "uint256",
          "name": "sceneId",
          "type": "uint256"
        }
      ],
      "name": "licenseScene",
      "outputs": [],
      "stateMutability": "payable",
      "type": "function"
    },
    {
      "inputs": [
        {
          "internalType": "string",
          "name": "description",
          "type": "string"
        },
        {
          "internalType": "string",
          "name": "ipfsHash",
          "type": "string"
        },
        {
          "internalType": "uint256",
          "name": "duration",
          "type": "uint256"
        },
        {
          "internalType": "enum SceneNFT.SceneType",
          "name": "sceneType",
          "type": "uint8"
        },
        {
          "internalType": "uint256",
          "name": "royaltyPerUse",
          "type": "uint256"
        }
      ],
      "name": "mintScene",
      "outputs": [
        {
          "internalType": "uint256",
          "name": "",
          "type": "uint256"
        }
      ],
      "stateMutability": "nonpayable",
      "type": "function"
    },
    {
      "inputs": [],
      "name": "name",
      "outputs": [
        {
          "internalType": "string",
          "name": "",
          "type": "string"
        }
      ],
      "stateMutability": "view",
      "type": "function"
    },
    {
      "inputs": [],
      "name": "owner",
      "outputs": [
        {
          "internalType": "address",
          "name": "",
          "type": "address"
        }
      ],
      "stateMutability": "view",
      "type": "function"
    },
    {
      "inputs": [
        {
          "internalType": "uint256",
          "name": "tokenId",
          "type": "uint256"
        }
      ],
      "name": "ownerOf",
      "outputs": [
        {
          "internalType": "address",
          "name": "",
          "type": "address"
        }
      ],
      "stateMutability": "view",
      "type": "function"
    },
    {
      "inputs": [],
      "name": "renounceOwnership",
      "outputs": [],
      "stateMutability": "nonpayable",
      "type": "function"
    },
    {
      "inputs": [
        {
          "internalType": "address",
          "name": "from",
          "type": "address"
        },
        {
          "internalType": "address",
          "name": "to",
          "type": "address"
        },
        {
          "internalType": "uint256",
          "name": "tokenId",
          "type": "uint256"
        }
      ],
      "name": "safeTransferFrom",
      "outputs": [],
      "stateMutability": "nonpayable",
      "type": "function"
    },
    {
      "inputs": [
        {
          "internalType": "address",
          "name": "from",
          "type": "address"
        },
        {
          "internalType": "address",
          "name": "to",
          "type": "address"
        },
        {
          "internalType": "uint256",
          "name": "tokenId",
          "type": "uint256"
        },
        {
          "internalType": "bytes",
          "name": "data",
          "type": "bytes"
        }
      ],
      "name": "safeTransferFrom",
      "outputs": [],
      "stateMutability": "nonpayable",
      "type": "function"
    },
    {
      "inputs": [
        {
          "internalType": "uint256",
          "name": "",
          "type": "uint256"
        }
      ],
      "name": "sceneRoyalties",
      "outputs": [
        {
          "internalType": "uint256",
          "name": "",
          "type": "uint256"
        }
      ],
      "stateMutability": "view",
      "type": "function"
    },
    {
      "inputs": [
        {
          "internalType": "uint256",
          "name": "",
          "type": "uint256"
        }
      ],
      "name": "scenes",
      "outputs": [
        {
          "internalType": "uint256",
          "name": "sceneId",
          "type": "uint256"
        },
        {
          "internalType": "string",
          "name": "description",
          "type": "string"
        },
        {
          "internalType": "string",
          "name": "ipfsHash",
          "type": "string"
        },
        {
          "internalType": "uint256",
          "name": "duration",
          "type": "uint256"
        },
        {
          "internalType": "enum SceneNFT.SceneType",
          "name": "sceneType",
          "type": "uint8"
        },
        {
          "internalType": "uint256",
          "name": "productionCost",
          "type": "uint256"
        },
        {
          "internalType": "uint256",
          "name": "timesUsed",
          "type": "uint256"
        },
        {
          "internalType": "address",
          "name": "creator",
          "type": "address"
        }
      ],
      "stateMutability": "view",
      "type": "function"
    },
    {
      "inputs": [
        {
          "internalType": "address",
          "name": "operator",
          "type": "address"
        },
        {
          "internalType": "bool",
          "name": "approved",
          "type": "bool"
        }
      ],
      "name": "setApprovalForAll",
      "outputs": [],
      "stateMutability": "nonpayable",
      "type": "function"
    },
    {
      "inputs": [
        {
          "internalType": "bytes4",
          "name": "interfaceId",
          "type": "bytes4"
        }
      ],
      "name": "supportsInterface",
      "outputs": [
        {
          "internalType": "bool",
          "name": "",
          "type": "bool"
        }
      ],
      "stateMutability": "view",
      "type": "function"
    },
    {
      "inputs": [],
      "name": "symbol",
      "outputs": [
        {
          "internalType": "string",
          "name": "",
          "type": "string"
        }
      ],
      "stateMutability": "view",
      "type": "function"
    },
    {
      "inputs": [
        {
          "internalType": "uint256",
          "name": "tokenId",
          "type": "uint256"
        }
      ],
      "name": "tokenURI",
      "outputs": [
        {
          "internalType": "string",
          "name": "",
          "type": "string"
        }
      ],
      "stateMutability": "view",
      "type": "function"
    },
    {
      "inputs": [
        {
          "internalType": "address",
          "name": "from",
          "type": "address"
        },
        {
          "internalType": "address",
          "name": "to",
          "type": "address"
        },
        {
          "internalType": "uint256",
          "name": "tokenId",
          "type": "uint256"
        }
      ],
      "name": "transferFrom",
      "outputs": [],
      "stateMutability": "nonpayable",
      "type": "function"
    },
    {
      "inputs": [
        {
          "internalType": "address",
          "name": "newOwner",
          "type": "address"
        }
      ],
      "name": "transferOwnership",
      "outputs": [],
      "stateMutability": "nonpayable",
      "type": "function"
    }
  ],
  "bytecode": "0x60806040523480156200001157600080fd5b5033604051806040016040528060098152602001684f414e205363656e6560b81b815250604051806040016040528060058152602001645343454e4560d81b8152508160009081620000649190620001ae565b506001620000738282620001ae565b5050506001600160a01b038116620000a557604051631e4fbdf760e01b81526000600482015260240160405180910390fd5b620000b081620000b7565b506200027a565b600680546001600160a01b038381166001600160a01b0319831681179093556040519116919082907f8be0079c531659141344cd1fd0a4f28419497f9722a3daafe3b4186f6b6457e090600090a35050565b634e487b7160e01b600052604160045260246000fd5b600181811c908216806200013457607f821691505b6020821081036200015557634e487b7160e01b600052602260045260246000fd5b50919050565b601f821115620001a957600081815260208120601f850160051c81016020861015620001845750805b601f850160051c820191505b81811015620001a55782815560010162000190565b5050505b505050565b81516001600160401b03811115620001ca57620001ca62000109565b620001e281620001db84546200011f565b846200015b565b602080601f8311600181146200021a5760008415620002015750858301515b600019600386901b1c1916600185901b178555620001a5565b600085815260208120601f198616915b828110156200024b578886015182559484019460019091019084016200022a565b50858210156200026a5787850151600019600388901b60f8161c191681555b5050505050600190811b01905550565b611f5c806200028a6000396000f3fe6080604052600436106101405760003560e01c8063715018a6116100b6578063c054a9c81161006f578063c054a9c8146103ad578063c87b56dd146103c0578063d894a5ed146103e0578063e44807fb1461040d578063e985e9c51461042d578063f2fde38b1461044d57600080fd5b8063715018a614610305578063816d61801461031a5780638da5cb5b1461033a57806395d89b4114610358578063a22cb4651461036d578063b88d4fde1461038d57600080fd5b806323b872dd1161010857806323b872dd146102235780632a65ee0d1461024357806332c57cec1461027157806342842e0e146102a55780636352211e146102c557806370a08231146102e557600080fd5b806301ffc9a71461014557806306fdde031461017a578063081812fc1461019c578063095ea7b3146101d457806322d7642e146101f6575b600080fd5b34801561015157600080fd5b506101656101603660046117e9565b61046d565b60405190151581526020015b60405180910390f35b34801561018657600080fd5b5061018f6104bf565b6040516101719190611856565b3480156101a857600080fd5b506101bc6101b7366004611869565b610551565b6040516001600160a01b039091168152602001610171565b3480156101e057600080fd5b506101f46101ef36600461189e565b61057a565b005b34801561020257600080fd5b50610216610211366004611869565b610589565b604051610171919061193b565b34801561022f57600080fd5b506101f461023e366004611a13565b6107f8565b34801561024f57600080fd5b5061026361025e366004611afb565b610888565b604051908152602001610171565b34801561027d57600080fd5b5061029161028c366004611869565b610aa5565b604051610171989796959493929190611b87565b3480156102b157600080fd5b506101f46102c0366004611a13565b610c04565b3480156102d157600080fd5b506101bc6102e0366004611869565b610c24565b3480156102f157600080fd5b50610263610300366004611bf3565b610c2f565b34801561031157600080fd5b506101f4610c77565b34801561032657600080fd5b506101f4610335366004611c0e565b610c8b565b34801561034657600080fd5b506006546001600160a01b03166101bc565b34801561036457600080fd5b5061018f610cfd565b34801561037957600080fd5b506101f4610388366004611c30565b610d0c565b34801561039957600080fd5b506101f46103a8366004611c6c565b610d17565b6101f46103bb366004611869565b610d2f565b3480156103cc57600080fd5b5061018f6103db366004611869565b610e61565b3480156103ec57600080fd5b506102636103fb366004611869565b60096020526000908152604090205481565b34801561041957600080fd5b506101f4610428366004611c0e565b610ed6565b34801561043957600080fd5b50610165610448366004611ce8565b610f48565b34801561045957600080fd5b506101f4610468366004611bf3565b610f76565b60006001600160e01b031982166380ac58cd60e01b148061049e57506001600160e01b03198216635b5e139f60e01b145b806104b957506301ffc9a760e01b6001600160e01b03198316145b92915050565b6060600080546104ce90611d1b565b80601f01602080910402602001604051908101604052809291908181526020018280546104fa90611d1b565b80156105475780601f1061051c57610100808354040283529160200191610547565b820191906000526020600020905b81548152906001019060200180831161052a57829003601f168201915b5050505050905090565b600061055c82610fb4565b506000828152600460205260409020546001600160a01b03166104b9565b610585828233610fed565b5050565b610591611706565b6008600083815260200190815260200160002060405180610140016040529081600082015481526020016001820180546105ca90611d1b565b80601f01602080910402602001604051908101604052809291908181526020018280546105f690611d1b565b80156106435780601f1061061857610100808354040283529160200191610643565b820191906000526020600020905b81548152906001019060200180831161062657829003601f168201915b5050505050815260200160028201805461065c90611d1b565b80601f016020809104026020016040519081016040528092919081815260200182805461068890611d1b565b80156106d55780601f106106aa576101008083540402835291602001916106d5565b820191906000526020600020905b8154815290600101906020018083116106b857829003601f168201915b50505050508152602001600382015481526020016004820180548060200260200160405190810160405280929190818152602001828054801561073757602002820191906000526020600020905b815481526020019060010190808311610723575b505050505081526020016005820180548060200260200160405190810160405280929190818152602001828054801561078f57602002820191906000526020600020905b81548152602001906001019080831161077b575b505050918352505060068281015460209092019160ff16908111156107b6576107b6611903565b60068111156107c7576107c7611903565b815260078201546020820152600882015460408201526009909101546001600160a01b031660609091015292915050565b6001600160a01b03821661082757604051633250574960e11b8152600060048201526024015b60405180910390fd5b6000610834838333610ffa565b9050836001600160a01b0316816001600160a01b031614610882576040516364283d7b60e01b81526001600160a01b038086166004830152602482018490528216604482015260640161081e565b50505050565b600780546000918261089983611d6b565b90915550506007546108ab33826110f3565b604051806101400160405280828152602001888152602001878152602001868152602001600067ffffffffffffffff8111156108e9576108e9611a4f565b604051908082528060200260200182016040528015610912578160200160208202803683370190505b5081526020016000604051908082528060200260200182016040528015610943578160200160208202803683370190505b50815260200185600681111561095b5761095b611903565b815260006020808301829052604080840183905233606090940193909352848252600881529190208251815590820151600182019061099a9082611dca565b50604082015160028201906109af9082611dca565b5060608201516003820155608082015180516109d5916004840191602090910190611773565b5060a082015180516109f1916005840191602090910190611773565b5060c08201518160060160006101000a81548160ff02191690836006811115610a1c57610a1c611903565b021790555060e08201516007820155610100820151600882015561012090910151600991820180546001600160a01b0319166001600160a01b039092169190911790556000828152602091909152604080822085905551339183917f81cfe108513b096b79bde811e0bf972424dd69717f026bc6fb0e7ea9373116a49190a39695505050505050565b60086020526000908152604090208054600182018054919291610ac790611d1b565b80601f0160208091040260200160405190810160405280929190818152602001828054610af390611d1b565b8015610b405780601f10610b1557610100808354040283529160200191610b40565b820191906000526020600020905b815481529060010190602001808311610b2357829003601f168201915b505050505090806002018054610b5590611d1b565b80601f0160208091040260200160405190810160405280929190818152602001828054610b8190611d1b565b8015610bce5780601f10610ba357610100808354040283529160200191610bce565b820191906000526020600020905b815481529060010190602001808311610bb157829003601f168201915b50505060038401546006850154600786015460088701546009909701549596929560ff909216945092506001600160a01b031688565b610c1f83838360405180602001604052806000815250610d17565b505050565b60006104b982610fb4565b60006001600160a01b038216610c5b576040516322718ad960e21b81526000600482015260240161081e565b506001600160a01b031660009081526003602052604090205490565b610c7f61110d565b610c89600061113a565b565b33610c9583610c24565b6001600160a01b031614610cd75760405162461bcd60e51b81526020600482015260096024820152682737ba1037bbb732b960b91b604482015260640161081e565b600091825260086020908152604083206004018054600181018255908452922090910155565b6060600180546104ce90611d1b565b61058533838361118c565b610d228484846107f8565b6108823385858585611223565b600081815260086020908152604080832060099092529091205434811115610d905760405162461bcd60e51b8152602060048201526014602482015273125b9cdd59999a58da595b9d081c185e5b595b9d60621b604482015260640161081e565b600882018054906000610da283611d6b565b909155505060098201546040516001600160a01b039091169082156108fc029083906000818181858888f19350505050158015610de3573d6000803e3d6000fd5b5080341115610e2457336108fc610dfa8334611e8a565b6040518115909202916000818181858888f19350505050158015610e22573d6000803e3d6000fd5b505b604051818152339084907f9c6e3b468dd7b41cab8855fbb0e2426a823d69fa833c1aa9da84063a9b878abd906020015b60405180910390a3505050565b6060610e6c82610fb4565b506000610e8460408051602081019091526000815290565b90506000815111610ea45760405180602001604052806000815250610ecf565b80610eae8461134e565b604051602001610ebf929190611e9d565b6040516020818303038152906040525b9392505050565b33610ee083610c24565b6001600160a01b031614610f225760405162461bcd60e51b81526020600482015260096024820152682737ba1037bbb732b960b91b604482015260640161081e565b600091825260086020908152604083206005018054600181018255908452922090910155565b6001600160a01b03918216600090815260056020908152604080832093909416825291909152205460ff1690565b610f7e61110d565b6001600160a01b038116610fa857604051631e4fbdf760e01b81526000600482015260240161081e565b610fb18161113a565b50565b6000818152600260205260408120546001600160a01b0316806104b957604051637e27328960e01b81526004810184905260240161081e565b610c1f83838360016113e1565b6000828152600260205260408120546001600160a01b0390811690831615611027576110278184866114e7565b6001600160a01b03811615611065576110446000856000806113e1565b6001600160a01b038116600090815260036020526040902080546000190190555b6001600160a01b03851615611094576001600160a01b0385166000908152600360205260409020805460010190555b60008481526002602052604080822080546001600160a01b0319166001600160a01b0389811691821790925591518793918516917fddf252ad1be2c89b69c2b068fc378daa952ba7f163c4a11628f55a4df523b3ef91a4949350505050565b61058582826040518060200160405280600081525061154b565b6006546001600160a01b03163314610c895760405163118cdaa760e01b815233600482015260240161081e565b600680546001600160a01b038381166001600160a01b0319831681179093556040519116919082907f8be0079c531659141344cd1fd0a4f28419497f9722a3daafe3b4186f6b6457e090600090a35050565b6001600160a01b0382166111be57604051630b61174360e31b81526001600160a01b038316600482015260240161081e565b6001600160a01b03838116600081815260056020908152604080832094871680845294825291829020805460ff191686151590811790915591519182527f17307eab39ab6107e8899845ad3d59bd9653f200f220920489ca2b5937696c319101610e54565b6001600160a01b0383163b1561134757604051630a85bd0160e11b81526001600160a01b0384169063150b7a0290611265908890889087908790600401611ecc565b6020604051808303816000875af19250505080156112a0575060408051601f3d908101601f1916820190925261129d91810190611f09565b60015b611309573d8080156112ce576040519150601f19603f3d011682016040523d82523d6000602084013e6112d3565b606091505b50805160000361130157604051633250574960e11b81526001600160a01b038516600482015260240161081e565b805160208201fd5b6001600160e01b03198116630a85bd0160e11b1461134557604051633250574960e11b81526001600160a01b038516600482015260240161081e565b505b5050505050565b6060600061135b83611563565b600101905060008167ffffffffffffffff81111561137b5761137b611a4f565b6040519080825280601f01601f1916602001820160405280156113a5576020820181803683370190505b5090508181016020015b600019016f181899199a1a9b1b9c1cb0b131b232b360811b600a86061a8153600a85049450846113af57509392505050565b80806113f557506001600160a01b03821615155b156114b757600061140584610fb4565b90506001600160a01b038316158015906114315750826001600160a01b0316816001600160a01b031614155b801561144457506114428184610f48565b155b1561146d5760405163a9fbf51f60e01b81526001600160a01b038416600482015260240161081e565b81156114b55783856001600160a01b0316826001600160a01b03167f8c5be1e5ebec7d5bd14f71427d1e84f3dd0314c0f7b2291e5b200ac8c7c3b92560405160405180910390a45b505b5050600090815260046020526040902080546001600160a01b0319166001600160a01b0392909216919091179055565b6114f283838361163b565b610c1f576001600160a01b03831661152057604051637e27328960e01b81526004810182905260240161081e565b60405163177e802f60e01b81526001600160a01b03831660048201526024810182905260440161081e565b61155583836116a1565b610c1f336000858585611223565b60008072184f03e93ff9f4daa797ed6e38ed64bf6a1f0160401b83106115a25772184f03e93ff9f4daa797ed6e38ed64bf6a1f0160401b830492506040015b6d04ee2d6d415b85acef810000000083106115ce576d04ee2d6d415b85acef8100000000830492506020015b662386f26fc1000083106115ec57662386f26fc10000830492506010015b6305f5e1008310611604576305f5e100830492506008015b612710831061161857612710830492506004015b6064831061162a576064830492506002015b600a83106104b95760010192915050565b60006001600160a01b038316158015906116995750826001600160a01b0316846001600160a01b0316148061167557506116758484610f48565b8061169957506000828152600460205260409020546001600160a01b038481169116145b949350505050565b6001600160a01b0382166116cb57604051633250574960e11b81526000600482015260240161081e565b60006116d983836000610ffa565b90506001600160a01b03811615610c1f576040516339e3563760e11b81526000600482015260240161081e565b6040518061014001604052806000815260200160608152602001606081526020016000815260200160608152602001606081526020016000600681111561174f5761174f611903565b8152602001600081526020016000815260200160006001600160a01b031681525090565b8280548282559060005260206000209081019282156117ae579160200282015b828111156117ae578251825591602001919060010190611793565b506117ba9291506117be565b5090565b5b808211156117ba57600081556001016117bf565b6001600160e01b031981168114610fb157600080fd5b6000602082840312156117fb57600080fd5b8135610ecf816117d3565b60005b83811015611821578181015183820152602001611809565b50506000910152565b60008151808452611842816020860160208601611806565b601f01601f19169290920160200192915050565b602081526000610ecf602083018461182a565b60006020828403121561187b57600080fd5b5035919050565b80356001600160a01b038116811461189957600080fd5b919050565b600080604083850312156118b157600080fd5b6118ba83611882565b946020939093013593505050565b600081518084526020808501945080840160005b838110156118f8578151875295820195908201906001016118dc565b509495945050505050565b634e487b7160e01b600052602160045260246000fd5b6007811061193757634e487b7160e01b600052602160045260246000fd5b9052565b60208152815160208201526000602083015161014080604085015261196461016085018361182a565b91506040850151601f1980868503016060870152611982848361182a565b93506060870151608087015260808701519150808685030160a08701526119a984836118c8565b935060a08701519150808685030160c0870152506119c783826118c8565b92505060c08501516119dc60e0860182611919565b5060e08501516101008581019190915285015161012080860191909152909401516001600160a01b03169390920192909252919050565b600080600060608486031215611a2857600080fd5b611a3184611882565b9250611a3f60208501611882565b9150604084013590509250925092565b634e487b7160e01b600052604160045260246000fd5b600067ffffffffffffffff80841115611a8057611a80611a4f565b604051601f8501601f19908116603f01168101908282118183101715611aa857611aa8611a4f565b81604052809350858152868686011115611ac157600080fd5b858560208301376000602087830101525050509392505050565b600082601f830112611aec57600080fd5b610ecf83833560208501611a65565b600080600080600060a08688031215611b1357600080fd5b853567ffffffffffffffff80821115611b2b57600080fd5b611b3789838a01611adb565b96506020880135915080821115611b4d57600080fd5b50611b5a88828901611adb565b94505060408601359250606086013560078110611b7657600080fd5b949793965091946080013592915050565b60006101008a8352806020840152611ba18184018b61182a565b90508281036040840152611bb5818a61182a565b915050866060830152611bcb6080830187611919565b60a082019490945260c08101929092526001600160a01b031660e09091015295945050505050565b600060208284031215611c0557600080fd5b610ecf82611882565b60008060408385031215611c2157600080fd5b50508035926020909101359150565b60008060408385031215611c4357600080fd5b611c4c83611882565b915060208301358015158114611c6157600080fd5b809150509250929050565b60008060008060808587031215611c8257600080fd5b611c8b85611882565b9350611c9960208601611882565b925060408501359150606085013567ffffffffffffffff811115611cbc57600080fd5b8501601f81018713611ccd57600080fd5b611cdc87823560208401611a65565b91505092959194509250565b60008060408385031215611cfb57600080fd5b611d0483611882565b9150611d1260208401611882565b90509250929050565b600181811c90821680611d2f57607f821691505b602082108103611d4f57634e487b7160e01b600052602260045260246000fd5b50919050565b634e487b7160e01b600052601160045260246000fd5b600060018201611d7d57611d7d611d55565b5060010190565b601f821115610c1f57600081815260208120601f850160051c81016020861015611dab5750805b601f850160051c820191505b8181101561134557828155600101611db7565b815167ffffffffffffffff811115611de457611de4611a4f565b611df881611df28454611d1b565b84611d84565b602080601f831160018114611e2d5760008415611e155750858301515b600019600386901b1c1916600185901b178555611345565b600085815260208120601f198616915b82811015611e5c57888601518255948401946001909101908401611e3d565b5085821015611e7a5787850151600019600388901b60f8161c191681555b5050505050600190811b01905550565b818103818111156104b9576104b9611d55565b60008351611eaf818460208801611806565b835190830190611ec3818360208801611806565b01949350505050565b6001600160a01b0385811682528416602082015260408101839052608060608201819052600090611eff9083018461182a565b9695505050505050565b600060208284031215611f1b57600080fd5b8151610ecf816117d356fea264697066735822122017ce43330785c78b197ad8ea794ec4e4aeb1a5042d3e25e19adf9ebf8008172a64736f6c63430008140033",
  "linkReferences": {},
  "deployedLinkReferences": {}
}