{
  "_format": "hh-sol-artifact-1",
  "contractName": "MemoryVault",
  "sourceName": "contracts/layer3/intelligence/MemoryVault.sol",
  "abi": [
    {
      "inputs": [],
      "stateMutability": "nonpayable",
      "type": "constructor"
    },
    {
      "inputs": [
        {
          "internalType": "address",
          "name": "sender",
          "type": "address"
        },
        {
          "internalType": "uint256",
          "name": "tokenId",
          "type": "uint256"
        },
        {
          "internalType": "address",
          "name": "owner",
          "type": "address"
        }
      ],
      "name": "ERC721IncorrectOwner",
      "type": "error"
    },
    {
      "inputs": [
        {
          "internalType": "address",
          "name": "operator",
          "type": "address"
        },
        {
          "internalType": "uint256",
          "name": "tokenId",
          "type": "uint256"
        }
      ],
      "name": "ERC721InsufficientApproval",
      "type": "error"
    },
    {
      "inputs": [
        {
          "internalType": "address",
          "name": "approver",
          "type": "address"
        }
      ],
      "name": "ERC721InvalidApprover",
      "type": "error"
    },
    {
      "inputs": [
        {
          "internalType": "address",
          "name": "operator",
          "type": "address"
        }
      ],
      "name": "ERC721InvalidOperator",
      "type": "error"
    },
    {
      "inputs": [
        {
          "internalType": "address",
          "name": "owner",
          "type": "address"
        }
      ],
      "name": "ERC721InvalidOwner",
      "type": "error"
    },
    {
      "inputs": [
        {
          "internalType": "address",
          "name": "receiver",
          "type": "address"
        }
      ],
      "name": "ERC721InvalidReceiver",
      "type": "error"
    },
    {
      "inputs": [
        {
          "internalType": "address",
          "name": "sender",
          "type": "address"
        }
      ],
      "name": "ERC721InvalidSender",
      "type": "error"
    },
    {
      "inputs": [
        {
          "internalType": "uint256",
          "name": "tokenId",
          "type": "uint256"
        }
      ],
      "name": "ERC721NonexistentToken",
      "type": "error"
    },
    {
      "inputs": [
        {
          "internalType": "address",
          "name": "owner",
          "type": "address"
        }
      ],
      "name": "OwnableInvalidOwner",
      "type": "error"
    },
    {
      "inputs": [
        {
          "internalType": "address",
          "name": "account",
          "type": "address"
        }
      ],
      "name": "OwnableUnauthorizedAccount",
      "type": "error"
    },
    {
      "anonymous": false,
      "inputs": [
        {
          "indexed": true,
          "internalType": "address",
          "name": "owner",
          "type": "address"
        },
        {
          "indexed": true,
          "internalType": "address",
          "name": "approved",
          "type": "address"
        },
        {
          "indexed": true,
          "internalType": "uint256",
          "name": "tokenId",
          "type": "uint256"
        }
      ],
      "name": "Approval",
      "type": "event"
    },
    {
      "anonymous": false,
      "inputs": [
        {
          "indexed": true,
          "internalType": "address",
          "name": "owner",
          "type": "address"
        },
        {
          "indexed": true,
          "internalType": "address",
          "name": "operator",
          "type": "address"
        },
        {
          "indexed": false,
          "internalType": "bool",
          "name": "approved",
          "type": "bool"
        }
      ],
      "name": "ApprovalForAll",
      "type": "event"
    },
    {
      "anonymous": false,
      "inputs": [
        {
          "indexed": true,
          "internalType": "uint256",
          "name": "vaultId",
          "type": "uint256"
        },
        {
          "indexed": false,
          "internalType": "uint256",
          "name": "memoryId",
          "type": "uint256"
        },
        {
          "indexed": false,
          "internalType": "enum MemoryVault.MemoryRarity",
          "name": "rarity",
          "type": "uint8"
        }
      ],
      "name": "MemoryStored",
      "type": "event"
    },
    {
      "anonymous": false,
      "inputs": [
        {
          "indexed": true,
          "internalType": "address",
          "name": "previousOwner",
          "type": "address"
        },
        {
          "indexed": true,
          "internalType": "address",
          "name": "newOwner",
          "type": "address"
        }
      ],
      "name": "OwnershipTransferred",
      "type": "event"
    },
    {
      "anonymous": false,
      "inputs": [
        {
          "indexed": true,
          "internalType": "address",
          "name": "from",
          "type": "address"
        },
        {
          "indexed": true,
          "internalType": "address",
          "name": "to",
          "type": "address"
        },
        {
          "indexed": true,
          "internalType": "uint256",
          "name": "tokenId",
          "type": "uint256"
        }
      ],
      "name": "Transfer",
      "type": "event"
    },
    {
      "anonymous": false,
      "inputs": [
        {
          "indexed": true,
          "internalType": "uint256",
          "name": "vaultId",
          "type": "uint256"
        },
        {
          "indexed": true,
          "internalType": "address",
          "name": "owner",
          "type": "address"
        },
        {
          "indexed": false,
          "internalType": "uint256",
          "name": "entityId",
          "type": "uint256"
        }
      ],
      "name": "VaultCreated",
      "type": "event"
    },
    {
      "inputs": [
        {
          "internalType": "address",
          "name": "to",
          "type": "address"
        },
        {
          "internalType": "uint256",
          "name": "tokenId",
          "type": "uint256"
        }
      ],
      "name": "approve",
      "outputs": [],
      "stateMutability": "nonpayable",
      "type": "function"
    },
    {
      "inputs": [
        {
          "internalType": "address",
          "name": "owner",
          "type": "address"
        }
      ],
      "name": "balanceOf",
      "outputs": [
        {
          "internalType": "uint256",
          "name": "",
          "type": "uint256"
        }
      ],
      "stateMutability": "view",
      "type": "function"
    },
    {
      "inputs": [
        {
          "internalType": "uint256",
          "name": "entityId",
          "type": "uint256"
        }
      ],
      "name": "createVault",
      "outputs": [
        {
          "internalType": "uint256",
          "name": "",
          "type": "uint256"
        }
      ],
      "stateMutability": "nonpayable",
      "type": "function"
    },
    {
      "inputs": [
        {
          "internalType": "uint256",
          "name": "",
          "type": "uint256"
        }
      ],
      "name": "entityToVault",
      "outputs": [
        {
          "internalType": "uint256",
          "name": "",
          "type": "uint256"
        }
      ],
      "stateMutability": "view",
      "type": "function"
    },
    {
      "inputs": [
        {
          "internalType": "uint256",
          "name": "tokenId",
          "type": "uint256"
        }
      ],
      "name": "getApproved",
      "outputs": [
        {
          "internalType": "address",
          "name": "",
          "type": "address"
        }
      ],
      "stateMutability": "view",
      "type": "function"
    },
    {
      "inputs": [
        {
          "internalType": "uint256",
          "name": "vaultId",
          "type": "uint256"
        }
      ],
      "name": "getMemories",
      "outputs": [
        {
          "components": [
            {
              "internalType": "uint256",
              "name": "id",
              "type": "uint256"
            },
            {
              "internalType": "uint256",
              "name": "vaultId",
              "type": "uint256"
            },
            {
              "internalType": "string",
              "name": "description",
              "type": "string"
            },
            {
              "internalType": "enum MemoryVault.MemoryRarity",
              "name": "rarity",
              "type": "uint8"
            },
            {
              "internalType": "uint256",
              "name": "timestamp",
              "type": "uint256"
            },
            {
              "internalType": "bytes32",
              "name": "dataHash",
              "type": "bytes32"
            },
            {
              "internalType": "bool",
              "name": "isTransferable",
              "type": "bool"
            }
          ],
          "internalType": "struct MemoryVault.Memory[]",
          "name": "",
          "type": "tuple[]"
        }
      ],
      "stateMutability": "view",
      "type": "function"
    },
    {
      "inputs": [
        {
          "internalType": "address",
          "name": "owner",
          "type": "address"
        },
        {
          "internalType": "address",
          "name": "operator",
          "type": "address"
        }
      ],
      "name": "isApprovedForAll",
      "outputs": [
        {
          "internalType": "bool",
          "name": "",
          "type": "bool"
        }
      ],
      "stateMutability": "view",
      "type": "function"
    },
    {
      "inputs": [],
      "name": "name",
      "outputs": [
        {
          "internalType": "string",
          "name": "",
          "type": "string"
        }
      ],
      "stateMutability": "view",
      "type": "function"
    },
    {
      "inputs": [],
      "name": "owner",
      "outputs": [
        {
          "internalType": "address",
          "name": "",
          "type": "address"
        }
      ],
      "stateMutability": "view",
      "type": "function"
    },
    {
      "inputs": [
        {
          "internalType": "uint256",
          "name": "tokenId",
          "type": "uint256"
        }
      ],
      "name": "ownerOf",
      "outputs": [
        {
          "internalType": "address",
          "name": "",
          "type": "address"
        }
      ],
      "stateMutability": "view",
      "type": "function"
    },
    {
      "inputs": [],
      "name": "renounceOwnership",
      "outputs": [],
      "stateMutability": "nonpayable",
      "type": "function"
    },
    {
      "inputs": [
        {
          "internalType": "address",
          "name": "from",
          "type": "address"
        },
        {
          "internalType": "address",
          "name": "to",
          "type": "address"
        },
        {
          "internalType": "uint256",
          "name": "tokenId",
          "type": "uint256"
        }
      ],
      "name": "safeTransferFrom",
      "outputs": [],
      "stateMutability": "nonpayable",
      "type": "function"
    },
    {
      "inputs": [
        {
          "internalType": "address",
          "name": "from",
          "type": "address"
        },
        {
          "internalType": "address",
          "name": "to",
          "type": "address"
        },
        {
          "internalType": "uint256",
          "name": "tokenId",
          "type": "uint256"
        },
        {
          "internalType": "bytes",
          "name": "data",
          "type": "bytes"
        }
      ],
      "name": "safeTransferFrom",
      "outputs": [],
      "stateMutability": "nonpayable",
      "type": "function"
    },
    {
      "inputs": [
        {
          "internalType": "address",
          "name": "operator",
          "type": "address"
        },
        {
          "internalType": "bool",
          "name": "approved",
          "type": "bool"
        }
      ],
      "name": "setApprovalForAll",
      "outputs": [],
      "stateMutability": "nonpayable",
      "type": "function"
    },
    {
      "inputs": [
        {
          "internalType": "uint256",
          "name": "vaultId",
          "type": "uint256"
        },
        {
          "internalType": "string",
          "name": "description",
          "type": "string"
        },
        {
          "internalType": "enum MemoryVault.MemoryRarity",
          "name": "rarity",
          "type": "uint8"
        },
        {
          "internalType": "bytes32",
          "name": "dataHash",
          "type": "bytes32"
        }
      ],
      "name": "storeMemory",
      "outputs": [],
      "stateMutability": "nonpayable",
      "type": "function"
    },
    {
      "inputs": [
        {
          "internalType": "bytes4",
          "name": "interfaceId",
          "type": "bytes4"
        }
      ],
      "name": "supportsInterface",
      "outputs": [
        {
          "internalType": "bool",
          "name": "",
          "type": "bool"
        }
      ],
      "stateMutability": "view",
      "type": "function"
    },
    {
      "inputs": [],
      "name": "symbol",
      "outputs": [
        {
          "internalType": "string",
          "name": "",
          "type": "string"
        }
      ],
      "stateMutability": "view",
      "type": "function"
    },
    {
      "inputs": [
        {
          "internalType": "uint256",
          "name": "tokenId",
          "type": "uint256"
        }
      ],
      "name": "tokenURI",
      "outputs": [
        {
          "internalType": "string",
          "name": "",
          "type": "string"
        }
      ],
      "stateMutability": "view",
      "type": "function"
    },
    {
      "inputs": [
        {
          "internalType": "address",
          "name": "from",
          "type": "address"
        },
        {
          "internalType": "address",
          "name": "to",
          "type": "address"
        },
        {
          "internalType": "uint256",
          "name": "tokenId",
          "type": "uint256"
        }
      ],
      "name": "transferFrom",
      "outputs": [],
      "stateMutability": "nonpayable",
      "type": "function"
    },
    {
      "inputs": [
        {
          "internalType": "address",
          "name": "newOwner",
          "type": "address"
        }
      ],
      "name": "transferOwnership",
      "outputs": [],
      "stateMutability": "nonpayable",
      "type": "function"
    },
    {
      "inputs": [
        {
          "internalType": "uint256",
          "name": "",
          "type": "uint256"
        },
        {
          "internalType": "uint256",
          "name": "",
          "type": "uint256"
        }
      ],
      "name": "vaultMemories",
      "outputs": [
        {
          "internalType": "uint256",
          "name": "id",
          "type": "uint256"
        },
        {
          "internalType": "uint256",
          "name": "vaultId",
          "type": "uint256"
        },
        {
          "internalType": "string",
          "name": "description",
          "type": "string"
        },
        {
          "internalType": "enum MemoryVault.MemoryRarity",
          "name": "rarity",
          "type": "uint8"
        },
        {
          "internalType": "uint256",
          "name": "timestamp",
          "type": "uint256"
        },
        {
          "internalType": "bytes32",
          "name": "dataHash",
          "type": "bytes32"
        },
        {
          "internalType": "bool",
          "name": "isTransferable",
          "type": "bool"
        }
      ],
      "stateMutability": "view",
      "type": "function"
    },
    {
      "inputs": [
        {
          "internalType": "uint256",
          "name": "",
          "type": "uint256"
        }
      ],
      "name": "vaults",
      "outputs": [
        {
          "internalType": "uint256",
          "name": "id",
          "type": "uint256"
        },
        {
          "internalType": "address",
          "name": "owner",
          "type": "address"
        },
        {
          "internalType": "uint256",
          "name": "entityId",
          "type": "uint256"
        },
        {
          "internalType": "uint256",
          "name": "memoryCount",
          "type": "uint256"
        },
        {
          "internalType": "uint256",
          "name": "createdAt",
          "type": "uint256"
        }
      ],
      "stateMutability": "view",
      "type": "function"
    }
  ],
  "bytecode": "0x60806040523480156200001157600080fd5b50336040518060400160405280601081526020016f13d0538813595b5bdc9e4815985d5b1d60821b815250604051806040016040528060048152602001634f414e4d60e01b81525081600090816200006a9190620001b4565b506001620000798282620001b4565b5050506001600160a01b038116620000ab57604051631e4fbdf760e01b81526000600482015260240160405180910390fd5b620000b681620000bd565b5062000280565b600680546001600160a01b038381166001600160a01b0319831681179093556040519116919082907f8be0079c531659141344cd1fd0a4f28419497f9722a3daafe3b4186f6b6457e090600090a35050565b634e487b7160e01b600052604160045260246000fd5b600181811c908216806200013a57607f821691505b6020821081036200015b57634e487b7160e01b600052602260045260246000fd5b50919050565b601f821115620001af57600081815260208120601f850160051c810160208610156200018a5750805b601f850160051c820191505b81811015620001ab5782815560010162000196565b5050505b505050565b81516001600160401b03811115620001d057620001d06200010f565b620001e881620001e1845462000125565b8462000161565b602080601f831160018114620002205760008415620002075750858301515b600019600386901b1c1916600185901b178555620001ab565b600085815260208120601f198616915b82811015620002515788860151825594840194600190910190840162000230565b5085821015620002705787850151600019600388901b60f8161c191681555b5050505050600190811b01905550565b611a6680620002906000396000f3fe608060405234801561001057600080fd5b50600436106101425760003560e01c8063715018a6116100b8578063a22cb4651161007c578063a22cb46514610322578063b88d4fde14610335578063c87b56dd14610348578063cfd80af51461035b578063e985e9c51461037b578063f2fde38b1461038e57600080fd5b8063715018a6146102775780638c64ea4a1461027f5780638da5cb5b146102f657806395d89b41146103075780639abbdf4b1461030f57600080fd5b806342842e0e1161010a57806342842e0e146101d757806346319cc1146101ea57806354b7a2fa146102185780636352211e1461023e578063683734901461025157806370a082311461026457600080fd5b806301ffc9a71461014757806306fdde031461016f578063081812fc14610184578063095ea7b3146101af57806323b872dd146101c4575b600080fd5b61015a6101553660046113ab565b6103a1565b60405190151581526020015b60405180910390f35b6101776103f3565b6040516101669190611418565b61019761019236600461142b565b610485565b6040516001600160a01b039091168152602001610166565b6101c26101bd366004611460565b6104ae565b005b6101c26101d236600461148a565b6104bd565b6101c26101e536600461148a565b61054d565b61020a6101f836600461142b565b600a6020526000908152604090205481565b604051908152602001610166565b61022b6102263660046114c6565b61056d565b6040516101669796959493929190611520565b61019761024c36600461142b565b61065b565b6101c261025f3660046115fa565b610666565b61020a610272366004611673565b610827565b6101c261086f565b6102c661028d36600461142b565b6008602052600090815260409020805460018201546002830154600384015460049094015492936001600160a01b039092169290919085565b604080519586526001600160a01b039094166020860152928401919091526060830152608082015260a001610166565b6006546001600160a01b0316610197565b610177610883565b61020a61031d36600461142b565b610892565b6101c261033036600461168e565b6109c4565b6101c26103433660046116ca565b6109cf565b61017761035636600461142b565b6109e7565b61036e61036936600461142b565b610a5c565b6040516101669190611746565b61015a6103893660046117f9565b610bcf565b6101c261039c366004611673565b610bfd565b60006001600160e01b031982166380ac58cd60e01b14806103d257506001600160e01b03198216635b5e139f60e01b145b806103ed57506301ffc9a760e01b6001600160e01b03198316145b92915050565b6060600080546104029061182c565b80601f016020809104026020016040519081016040528092919081815260200182805461042e9061182c565b801561047b5780601f106104505761010080835404028352916020019161047b565b820191906000526020600020905b81548152906001019060200180831161045e57829003601f168201915b5050505050905090565b600061049082610c3b565b506000828152600460205260409020546001600160a01b03166103ed565b6104b9828233610c74565b5050565b6001600160a01b0382166104ec57604051633250574960e11b8152600060048201526024015b60405180910390fd5b60006104f9838333610c81565b9050836001600160a01b0316816001600160a01b031614610547576040516364283d7b60e01b81526001600160a01b03808616600483015260248201849052821660448201526064016104e3565b50505050565b610568838383604051806020016040528060008152506109cf565b505050565b6009602052816000526040600020818154811061058957600080fd5b9060005260206000209060070201600091509150508060000154908060010154908060020180546105b99061182c565b80601f01602080910402602001604051908101604052809291908181526020018280546105e59061182c565b80156106325780601f1061060757610100808354040283529160200191610632565b820191906000526020600020905b81548152906001019060200180831161061557829003601f168201915b505050600384015460048501546005860154600690960154949560ff9283169591945092501687565b60006103ed82610c3b565b6000848152600260205260409020546001600160a01b031633146106be5760405162461bcd60e51b815260206004820152600f60248201526e2737ba103b30bab63a1037bbb732b960891b60448201526064016104e3565b600084815260096020908152604080832054815160e0810183528181529283018890529082018690529190606081018560038111156106ff576106ff6114e8565b81524260208083019190915260408083018790526001606090930183905260008a815260098352818120805480860182559082529083902085516007909202019081559184015192820192909255908201519192508291600282019061076590826118ac565b5060608201518160030160006101000a81548160ff02191690836003811115610790576107906114e8565b02179055506080820151600482015560a0820151600582015560c0909101516006909101805460ff191691151591909117905560008681526008602052604081206003018054916107e08361196c565b9190505550857f2ef00dc3a5fed255cce6ae7a143366699ac1d4d9ef5ffeffa27124b727c7558e8386604051610817929190611993565b60405180910390a2505050505050565b60006001600160a01b038216610853576040516322718ad960e21b8152600060048201526024016104e3565b506001600160a01b031660009081526003602052604090205490565b610877610d7a565b6108816000610da7565b565b6060600180546104029061182c565b6000818152600a6020526040812054156108e55760405162461bcd60e51b81526020600482015260146024820152735661756c7420616c72656164792065786973747360601b60448201526064016104e3565b600780549060006108f58361196c565b90915550506007546109073382610df9565b6040805160a0810182528281523360208083018281528385018881526000606086018181524260808801908152898352600886528883209751885593516001880180546001600160a01b0319166001600160a01b0390921691909117905591516002870155905160038601559051600490940193909355868352600a815291839020849055915185815283917f03df5debf149a655d99b46048402562ab27f668db5dc618f6c4dc92e3a6d1012910160405180910390a392915050565b6104b9338383610e13565b6109da8484846104bd565b6105473385858585610eb2565b60606109f282610c3b565b506000610a0a60408051602081019091526000815290565b90506000815111610a2a5760405180602001604052806000815250610a55565b80610a3484610fdd565b604051602001610a459291906119a7565b6040516020818303038152906040525b9392505050565b606060096000838152602001908152602001600020805480602002602001604051908101604052809291908181526020016000905b82821015610bc457838290600052602060002090600702016040518060e00160405290816000820154815260200160018201548152602001600282018054610ad89061182c565b80601f0160208091040260200160405190810160405280929190818152602001828054610b049061182c565b8015610b515780601f10610b2657610100808354040283529160200191610b51565b820191906000526020600020905b815481529060010190602001808311610b3457829003601f168201915b505050918352505060038281015460209092019160ff1690811115610b7857610b786114e8565b6003811115610b8957610b896114e8565b815260048201546020808301919091526005830154604083015260069092015460ff1615156060909101529082526001929092019101610a91565b505050509050919050565b6001600160a01b03918216600090815260056020908152604080832093909416825291909152205460ff1690565b610c05610d7a565b6001600160a01b038116610c2f57604051631e4fbdf760e01b8152600060048201526024016104e3565b610c3881610da7565b50565b6000818152600260205260408120546001600160a01b0316806103ed57604051637e27328960e01b8152600481018490526024016104e3565b6105688383836001611070565b6000828152600260205260408120546001600160a01b0390811690831615610cae57610cae818486611176565b6001600160a01b03811615610cec57610ccb600085600080611070565b6001600160a01b038116600090815260036020526040902080546000190190555b6001600160a01b03851615610d1b576001600160a01b0385166000908152600360205260409020805460010190555b60008481526002602052604080822080546001600160a01b0319166001600160a01b0389811691821790925591518793918516917fddf252ad1be2c89b69c2b068fc378daa952ba7f163c4a11628f55a4df523b3ef91a4949350505050565b6006546001600160a01b031633146108815760405163118cdaa760e01b81523360048201526024016104e3565b600680546001600160a01b038381166001600160a01b0319831681179093556040519116919082907f8be0079c531659141344cd1fd0a4f28419497f9722a3daafe3b4186f6b6457e090600090a35050565b6104b98282604051806020016040528060008152506111da565b6001600160a01b038216610e4557604051630b61174360e31b81526001600160a01b03831660048201526024016104e3565b6001600160a01b03838116600081815260056020908152604080832094871680845294825291829020805460ff191686151590811790915591519182527f17307eab39ab6107e8899845ad3d59bd9653f200f220920489ca2b5937696c31910160405180910390a3505050565b6001600160a01b0383163b15610fd657604051630a85bd0160e11b81526001600160a01b0384169063150b7a0290610ef49088908890879087906004016119d6565b6020604051808303816000875af1925050508015610f2f575060408051601f3d908101601f19168201909252610f2c91810190611a13565b60015b610f98573d808015610f5d576040519150601f19603f3d011682016040523d82523d6000602084013e610f62565b606091505b508051600003610f9057604051633250574960e11b81526001600160a01b03851660048201526024016104e3565b805160208201fd5b6001600160e01b03198116630a85bd0160e11b14610fd457604051633250574960e11b81526001600160a01b03851660048201526024016104e3565b505b5050505050565b60606000610fea836111f2565b600101905060008167ffffffffffffffff81111561100a5761100a61156e565b6040519080825280601f01601f191660200182016040528015611034576020820181803683370190505b5090508181016020015b600019016f181899199a1a9b1b9c1cb0b131b232b360811b600a86061a8153600a850494508461103e57509392505050565b808061108457506001600160a01b03821615155b1561114657600061109484610c3b565b90506001600160a01b038316158015906110c05750826001600160a01b0316816001600160a01b031614155b80156110d357506110d18184610bcf565b155b156110fc5760405163a9fbf51f60e01b81526001600160a01b03841660048201526024016104e3565b81156111445783856001600160a01b0316826001600160a01b03167f8c5be1e5ebec7d5bd14f71427d1e84f3dd0314c0f7b2291e5b200ac8c7c3b92560405160405180910390a45b505b5050600090815260046020526040902080546001600160a01b0319166001600160a01b0392909216919091179055565b6111818383836112ca565b610568576001600160a01b0383166111af57604051637e27328960e01b8152600481018290526024016104e3565b60405163177e802f60e01b81526001600160a01b0383166004820152602481018290526044016104e3565b6111e48383611330565b610568336000858585610eb2565b60008072184f03e93ff9f4daa797ed6e38ed64bf6a1f0160401b83106112315772184f03e93ff9f4daa797ed6e38ed64bf6a1f0160401b830492506040015b6d04ee2d6d415b85acef8100000000831061125d576d04ee2d6d415b85acef8100000000830492506020015b662386f26fc10000831061127b57662386f26fc10000830492506010015b6305f5e1008310611293576305f5e100830492506008015b61271083106112a757612710830492506004015b606483106112b9576064830492506002015b600a83106103ed5760010192915050565b60006001600160a01b038316158015906113285750826001600160a01b0316846001600160a01b0316148061130457506113048484610bcf565b8061132857506000828152600460205260409020546001600160a01b038481169116145b949350505050565b6001600160a01b03821661135a57604051633250574960e11b8152600060048201526024016104e3565b600061136883836000610c81565b90506001600160a01b03811615610568576040516339e3563760e11b8152600060048201526024016104e3565b6001600160e01b031981168114610c3857600080fd5b6000602082840312156113bd57600080fd5b8135610a5581611395565b60005b838110156113e35781810151838201526020016113cb565b50506000910152565b600081518084526114048160208601602086016113c8565b601f01601f19169290920160200192915050565b602081526000610a5560208301846113ec565b60006020828403121561143d57600080fd5b5035919050565b80356001600160a01b038116811461145b57600080fd5b919050565b6000806040838503121561147357600080fd5b61147c83611444565b946020939093013593505050565b60008060006060848603121561149f57600080fd5b6114a884611444565b92506114b660208501611444565b9150604084013590509250925092565b600080604083850312156114d957600080fd5b50508035926020909101359150565b634e487b7160e01b600052602160045260246000fd5b6004811061151c57634e487b7160e01b600052602160045260246000fd5b9052565b87815286602082015260e06040820152600061153f60e08301886113ec565b905061154e60608301876114fe565b8460808301528360a083015282151560c083015298975050505050505050565b634e487b7160e01b600052604160045260246000fd5b600067ffffffffffffffff8084111561159f5761159f61156e565b604051601f8501601f19908116603f011681019082821181831017156115c7576115c761156e565b816040528093508581528686860111156115e057600080fd5b858560208301376000602087830101525050509392505050565b6000806000806080858703121561161057600080fd5b84359350602085013567ffffffffffffffff81111561162e57600080fd5b8501601f8101871361163f57600080fd5b61164e87823560208401611584565b93505060408501356004811061166357600080fd5b9396929550929360600135925050565b60006020828403121561168557600080fd5b610a5582611444565b600080604083850312156116a157600080fd5b6116aa83611444565b9150602083013580151581146116bf57600080fd5b809150509250929050565b600080600080608085870312156116e057600080fd5b6116e985611444565b93506116f760208601611444565b925060408501359150606085013567ffffffffffffffff81111561171a57600080fd5b8501601f8101871361172b57600080fd5b61173a87823560208401611584565b91505092959194509250565b60006020808301818452808551808352604092508286019150828160051b87010184880160005b838110156117eb57603f19898403018552815160e08151855288820151898601528782015181898701526117a3828701826113ec565b9150506060808301516117b8828801826114fe565b50506080828101519086015260a0808301519086015260c09182015115159190940152938601939086019060010161176d565b509098975050505050505050565b6000806040838503121561180c57600080fd5b61181583611444565b915061182360208401611444565b90509250929050565b600181811c9082168061184057607f821691505b60208210810361186057634e487b7160e01b600052602260045260246000fd5b50919050565b601f82111561056857600081815260208120601f850160051c8101602086101561188d5750805b601f850160051c820191505b81811015610fd457828155600101611899565b815167ffffffffffffffff8111156118c6576118c661156e565b6118da816118d4845461182c565b84611866565b602080601f83116001811461190f57600084156118f75750858301515b600019600386901b1c1916600185901b178555610fd4565b600085815260208120601f198616915b8281101561193e5788860151825594840194600190910190840161191f565b508582101561195c5787850151600019600388901b60f8161c191681555b5050505050600190811b01905550565b60006001820161198c57634e487b7160e01b600052601160045260246000fd5b5060010190565b82815260408101610a5560208301846114fe565b600083516119b98184602088016113c8565b8351908301906119cd8183602088016113c8565b01949350505050565b6001600160a01b0385811682528416602082015260408101839052608060608201819052600090611a09908301846113ec565b9695505050505050565b600060208284031215611a2557600080fd5b8151610a558161139556fea2646970667358221220227ccca6765f19c09b08da381b19f9f26fd2c07c97fcadd2986c92aee47356ac64736f6c63430008140033",
  "linkReferences": {},
  "deployedLinkReferences": {}
}