{
  "_format": "hh-sol-artifact-1",
  "contractName": "MemoryVault",
  "sourceName": "contracts/layer3/intelligence/MemoryVault.sol",
  "abi": [
    {
      "inputs": [],
      "stateMutability": "nonpayable",
      "type": "constructor"
    },
    {
      "inputs": [
        {
          "internalType": "address",
          "name": "sender",
          "type": "address"
        },
        {
          "internalType": "uint256",
          "name": "tokenId",
          "type": "uint256"
        },
        {
          "internalType": "address",
          "name": "owner",
          "type": "address"
        }
      ],
      "name": "ERC721IncorrectOwner",
      "type": "error"
    },
    {
      "inputs": [
        {
          "internalType": "address",
          "name": "operator",
          "type": "address"
        },
        {
          "internalType": "uint256",
          "name": "tokenId",
          "type": "uint256"
        }
      ],
      "name": "ERC721InsufficientApproval",
      "type": "error"
    },
    {
      "inputs": [
        {
          "internalType": "address",
          "name": "approver",
          "type": "address"
        }
      ],
      "name": "ERC721InvalidApprover",
      "type": "error"
    },
    {
      "inputs": [
        {
          "internalType": "address",
          "name": "operator",
          "type": "address"
        }
      ],
      "name": "ERC721InvalidOperator",
      "type": "error"
    },
    {
      "inputs": [
        {
          "internalType": "address",
          "name": "owner",
          "type": "address"
        }
      ],
      "name": "ERC721InvalidOwner",
      "type": "error"
    },
    {
      "inputs": [
        {
          "internalType": "address",
          "name": "receiver",
          "type": "address"
        }
      ],
      "name": "ERC721InvalidReceiver",
      "type": "error"
    },
    {
      "inputs": [
        {
          "internalType": "address",
          "name": "sender",
          "type": "address"
        }
      ],
      "name": "ERC721InvalidSender",
      "type": "error"
    },
    {
      "inputs": [
        {
          "internalType": "uint256",
          "name": "tokenId",
          "type": "uint256"
        }
      ],
      "name": "ERC721NonexistentToken",
      "type": "error"
    },
    {
      "inputs": [
        {
          "internalType": "address",
          "name": "owner",
          "type": "address"
        }
      ],
      "name": "OwnableInvalidOwner",
      "type": "error"
    },
    {
      "inputs": [
        {
          "internalType": "address",
          "name": "account",
          "type": "address"
        }
      ],
      "name": "OwnableUnauthorizedAccount",
      "type": "error"
    },
    {
      "anonymous": false,
      "inputs": [
        {
          "indexed": true,
          "internalType": "address",
          "name": "owner",
          "type": "address"
        },
        {
          "indexed": true,
          "internalType": "address",
          "name": "approved",
          "type": "address"
        },
        {
          "indexed": true,
          "internalType": "uint256",
          "name": "tokenId",
          "type": "uint256"
        }
      ],
      "name": "Approval",
      "type": "event"
    },
    {
      "anonymous": false,
      "inputs": [
        {
          "indexed": true,
          "internalType": "address",
          "name": "owner",
          "type": "address"
        },
        {
          "indexed": true,
          "internalType": "address",
          "name": "operator",
          "type": "address"
        },
        {
          "indexed": false,
          "internalType": "bool",
          "name": "approved",
          "type": "bool"
        }
      ],
      "name": "ApprovalForAll",
      "type": "event"
    },
    {
      "anonymous": false,
      "inputs": [
        {
          "indexed": true,
          "internalType": "uint256",
          "name": "vaultId",
          "type": "uint256"
        },
        {
          "indexed": false,
          "internalType": "uint256",
          "name": "memoryId",
          "type": "uint256"
        },
        {
          "indexed": false,
          "internalType": "enum MemoryVault.MemoryRarity",
          "name": "rarity",
          "type": "uint8"
        }
      ],
      "name": "MemoryStored",
      "type": "event"
    },
    {
      "anonymous": false,
      "inputs": [
        {
          "indexed": true,
          "internalType": "address",
          "name": "previousOwner",
          "type": "address"
        },
        {
          "indexed": true,
          "internalType": "address",
          "name": "newOwner",
          "type": "address"
        }
      ],
      "name": "OwnershipTransferred",
      "type": "event"
    },
    {
      "anonymous": false,
      "inputs": [
        {
          "indexed": true,
          "internalType": "address",
          "name": "from",
          "type": "address"
        },
        {
          "indexed": true,
          "internalType": "address",
          "name": "to",
          "type": "address"
        },
        {
          "indexed": true,
          "internalType": "uint256",
          "name": "tokenId",
          "type": "uint256"
        }
      ],
      "name": "Transfer",
      "type": "event"
    },
    {
      "anonymous": false,
      "inputs": [
        {
          "indexed": true,
          "internalType": "uint256",
          "name": "vaultId",
          "type": "uint256"
        },
        {
          "indexed": true,
          "internalType": "address",
          "name": "owner",
          "type": "address"
        },
        {
          "indexed": false,
          "internalType": "uint256",
          "name": "entityId",
          "type": "uint256"
        }
      ],
      "name": "VaultCreated",
      "type": "event"
    },
    {
      "inputs": [
        {
          "internalType": "address",
          "name": "to",
          "type": "address"
        },
        {
          "internalType": "uint256",
          "name": "tokenId",
          "type": "uint256"
        }
      ],
      "name": "approve",
      "outputs": [],
      "stateMutability": "nonpayable",
      "type": "function"
    },
    {
      "inputs": [
        {
          "internalType": "address",
          "name": "owner",
          "type": "address"
        }
      ],
      "name": "balanceOf",
      "outputs": [
        {
          "internalType": "uint256",
          "name": "",
          "type": "uint256"
        }
      ],
      "stateMutability": "view",
      "type": "function"
    },
    {
      "inputs": [
        {
          "internalType": "uint256",
          "name": "entityId",
          "type": "uint256"
        }
      ],
      "name": "createVault",
      "outputs": [
        {
          "internalType": "uint256",
          "name": "",
          "type": "uint256"
        }
      ],
      "stateMutability": "nonpayable",
      "type": "function"
    },
    {
      "inputs": [
        {
          "internalType": "uint256",
          "name": "",
          "type": "uint256"
        }
      ],
      "name": "entityToVault",
      "outputs": [
        {
          "internalType": "uint256",
          "name": "",
          "type": "uint256"
        }
      ],
      "stateMutability": "view",
      "type": "function"
    },
    {
      "inputs": [
        {
          "internalType": "uint256",
          "name": "tokenId",
          "type": "uint256"
        }
      ],
      "name": "getApproved",
      "outputs": [
        {
          "internalType": "address",
          "name": "",
          "type": "address"
        }
      ],
      "stateMutability": "view",
      "type": "function"
    },
    {
      "inputs": [
        {
          "internalType": "uint256",
          "name": "vaultId",
          "type": "uint256"
        }
      ],
      "name": "getMemories",
      "outputs": [
        {
          "components": [
            {
              "internalType": "uint256",
              "name": "id",
              "type": "uint256"
            },
            {
              "internalType": "uint256",
              "name": "vaultId",
              "type": "uint256"
            },
            {
              "internalType": "string",
              "name": "description",
              "type": "string"
            },
            {
              "internalType": "enum MemoryVault.MemoryRarity",
              "name": "rarity",
              "type": "uint8"
            },
            {
              "internalType": "uint256",
              "name": "timestamp",
              "type": "uint256"
            },
            {
              "internalType": "bytes32",
              "name": "dataHash",
              "type": "bytes32"
            },
            {
              "internalType": "bool",
              "name": "isTransferable",
              "type": "bool"
            }
          ],
          "internalType": "struct MemoryVault.Memory[]",
          "name": "",
          "type": "tuple[]"
        }
      ],
      "stateMutability": "view",
      "type": "function"
    },
    {
      "inputs": [
        {
          "internalType": "address",
          "name": "owner",
          "type": "address"
        },
        {
          "internalType": "address",
          "name": "operator",
          "type": "address"
        }
      ],
      "name": "isApprovedForAll",
      "outputs": [
        {
          "internalType": "bool",
          "name": "",
          "type": "bool"
        }
      ],
      "stateMutability": "view",
      "type": "function"
    },
    {
      "inputs": [],
      "name": "name",
      "outputs": [
        {
          "internalType": "string",
          "name": "",
          "type": "string"
        }
      ],
      "stateMutability": "view",
      "type": "function"
    },
    {
      "inputs": [],
      "name": "owner",
      "outputs": [
        {
          "internalType": "address",
          "name": "",
          "type": "address"
        }
      ],
      "stateMutability": "view",
      "type": "function"
    },
    {
      "inputs": [
        {
          "internalType": "uint256",
          "name": "tokenId",
          "type": "uint256"
        }
      ],
      "name": "ownerOf",
      "outputs": [
        {
          "internalType": "address",
          "name": "",
          "type": "address"
        }
      ],
      "stateMutability": "view",
      "type": "function"
    },
    {
      "inputs": [],
      "name": "renounceOwnership",
      "outputs": [],
      "stateMutability": "nonpayable",
      "type": "function"
    },
    {
      "inputs": [
        {
          "internalType": "address",
          "name": "from",
          "type": "address"
        },
        {
          "internalType": "address",
          "name": "to",
          "type": "address"
        },
        {
          "internalType": "uint256",
          "name": "tokenId",
          "type": "uint256"
        }
      ],
      "name": "safeTransferFrom",
      "outputs": [],
      "stateMutability": "nonpayable",
      "type": "function"
    },
    {
      "inputs": [
        {
          "internalType": "address",
          "name": "from",
          "type": "address"
        },
        {
          "internalType": "address",
          "name": "to",
          "type": "address"
        },
        {
          "internalType": "uint256",
          "name": "tokenId",
          "type": "uint256"
        },
        {
          "internalType": "bytes",
          "name": "data",
          "type": "bytes"
        }
      ],
      "name": "safeTransferFrom",
      "outputs": [],
      "stateMutability": "nonpayable",
      "type": "function"
    },
    {
      "inputs": [
        {
          "internalType": "address",
          "name": "operator",
          "type": "address"
        },
        {
          "internalType": "bool",
          "name": "approved",
          "type": "bool"
        }
      ],
      "name": "setApprovalForAll",
      "outputs": [],
      "stateMutability": "nonpayable",
      "type": "function"
    },
    {
      "inputs": [
        {
          "internalType": "uint256",
          "name": "vaultId",
          "type": "uint256"
        },
        {
          "internalType": "string",
          "name": "description",
          "type": "string"
        },
        {
          "internalType": "enum MemoryVault.MemoryRarity",
          "name": "rarity",
          "type": "uint8"
        },
        {
          "internalType": "bytes32",
          "name": "dataHash",
          "type": "bytes32"
        }
      ],
      "name": "storeMemory",
      "outputs": [],
      "stateMutability": "nonpayable",
      "type": "function"
    },
    {
      "inputs": [
        {
          "internalType": "bytes4",
          "name": "interfaceId",
          "type": "bytes4"
        }
      ],
      "name": "supportsInterface",
      "outputs": [
        {
          "internalType": "bool",
          "name": "",
          "type": "bool"
        }
      ],
      "stateMutability": "view",
      "type": "function"
    },
    {
      "inputs": [],
      "name": "symbol",
      "outputs": [
        {
          "internalType": "string",
          "name": "",
          "type": "string"
        }
      ],
      "stateMutability": "view",
      "type": "function"
    },
    {
      "inputs": [
        {
          "internalType": "uint256",
          "name": "tokenId",
          "type": "uint256"
        }
      ],
      "name": "tokenURI",
      "outputs": [
        {
          "internalType": "string",
          "name": "",
          "type": "string"
        }
      ],
      "stateMutability": "view",
      "type": "function"
    },
    {
      "inputs": [
        {
          "internalType": "address",
          "name": "from",
          "type": "address"
        },
        {
          "internalType": "address",
          "name": "to",
          "type": "address"
        },
        {
          "internalType": "uint256",
          "name": "tokenId",
          "type": "uint256"
        }
      ],
      "name": "transferFrom",
      "outputs": [],
      "stateMutability": "nonpayable",
      "type": "function"
    },
    {
      "inputs": [
        {
          "internalType": "address",
          "name": "newOwner",
          "type": "address"
        }
      ],
      "name": "transferOwnership",
      "outputs": [],
      "stateMutability": "nonpayable",
      "type": "function"
    },
    {
      "inputs": [
        {
          "internalType": "uint256",
          "name": "",
          "type": "uint256"
        },
        {
          "internalType": "uint256",
          "name": "",
          "type": "uint256"
        }
      ],
      "name": "vaultMemories",
      "outputs": [
        {
          "internalType": "uint256",
          "name": "id",
          "type": "uint256"
        },
        {
          "internalType": "uint256",
          "name": "vaultId",
          "type": "uint256"
        },
        {
          "internalType": "string",
          "name": "description",
          "type": "string"
        },
        {
          "internalType": "enum MemoryVault.MemoryRarity",
          "name": "rarity",
          "type": "uint8"
        },
        {
          "internalType": "uint256",
          "name": "timestamp",
          "type": "uint256"
        },
        {
          "internalType": "bytes32",
          "name": "dataHash",
          "type": "bytes32"
        },
        {
          "internalType": "bool",
          "name": "isTransferable",
          "type": "bool"
        }
      ],
      "stateMutability": "view",
      "type": "function"
    },
    {
      "inputs": [
        {
          "internalType": "uint256",
          "name": "",
          "type": "uint256"
        }
      ],
      "name": "vaults",
      "outputs": [
        {
          "internalType": "uint256",
          "name": "id",
          "type": "uint256"
        },
        {
          "internalType": "address",
          "name": "owner",
          "type": "address"
        },
        {
          "internalType": "uint256",
          "name": "entityId",
          "type": "uint256"
        },
        {
          "internalType": "uint256",
          "name": "memoryCount",
          "type": "uint256"
        },
        {
          "internalType": "uint256",
          "name": "createdAt",
          "type": "uint256"
        }
      ],
      "stateMutability": "view",
      "type": "function"
    }
  ],
  "bytecode": "0x60806040523480156200001157600080fd5b50336040518060400160405280601081526020016f13d0538813595b5bdc9e4815985d5b1d60821b815250604051806040016040528060048152602001634f414e4d60e01b81525081600090816200006a9190620001b4565b506001620000798282620001b4565b5050506001600160a01b038116620000ab57604051631e4fbdf760e01b81526000600482015260240160405180910390fd5b620000b681620000bd565b5062000280565b600680546001600160a01b038381166001600160a01b0319831681179093556040519116919082907f8be0079c531659141344cd1fd0a4f28419497f9722a3daafe3b4186f6b6457e090600090a35050565b634e487b7160e01b600052604160045260246000fd5b600181811c908216806200013a57607f821691505b6020821081036200015b57634e487b7160e01b600052602260045260246000fd5b50919050565b601f821115620001af57600081815260208120601f850160051c810160208610156200018a5750805b601f850160051c820191505b81811015620001ab5782815560010162000196565b5050505b505050565b81516001600160401b03811115620001d057620001d06200010f565b620001e881620001e1845462000125565b8462000161565b602080601f831160018114620002205760008415620002075750858301515b600019600386901b1c1916600185901b178555620001ab565b600085815260208120601f198616915b82811015620002515788860151825594840194600190910190840162000230565b5085821015620002705787850151600019600388901b60f8161c191681555b5050505050600190811b01905550565b6119de80620002906000396000f3fe608060405234801561001057600080fd5b50600436106101425760003560e01c8063715018a6116100b8578063a22cb4651161007c578063a22cb46514610322578063b88d4fde14610335578063c87b56dd14610348578063cfd80af51461035b578063e985e9c51461037b578063f2fde38b1461038e57600080fd5b8063715018a6146102775780638c64ea4a1461027f5780638da5cb5b146102f657806395d89b41146103075780639abbdf4b1461030f57600080fd5b806342842e0e1161010a57806342842e0e146101d757806346319cc1146101ea57806354b7a2fa146102185780636352211e1461023e578063683734901461025157806370a082311461026457600080fd5b806301ffc9a71461014757806306fdde031461016f578063081812fc14610184578063095ea7b3146101af57806323b872dd146101c4575b600080fd5b61015a610155366004611323565b6103a1565b60405190151581526020015b60405180910390f35b6101776103f3565b6040516101669190611390565b6101976101923660046113a3565b610485565b6040516001600160a01b039091168152602001610166565b6101c26101bd3660046113d8565b6104ae565b005b6101c26101d2366004611402565b6104bd565b6101c26101e5366004611402565b61054d565b61020a6101f83660046113a3565b600a6020526000908152604090205481565b604051908152602001610166565b61022b61022636600461143e565b61056d565b6040516101669796959493929190611498565b61019761024c3660046113a3565b61065b565b6101c261025f366004611572565b610666565b61020a6102723660046115eb565b6107f1565b6101c2610839565b6102c661028d3660046113a3565b6008602052600090815260409020805460018201546002830154600384015460049094015492936001600160a01b039092169290919085565b604080519586526001600160a01b039094166020860152928401919091526060830152608082015260a001610166565b6006546001600160a01b0316610197565b61017761084d565b61020a61031d3660046113a3565b61085c565b6101c2610330366004611606565b61093c565b6101c2610343366004611642565b610947565b6101776103563660046113a3565b61095f565b61036e6103693660046113a3565b6109d4565b60405161016691906116be565b61015a610389366004611771565b610b47565b6101c261039c3660046115eb565b610b75565b60006001600160e01b031982166380ac58cd60e01b14806103d257506001600160e01b03198216635b5e139f60e01b145b806103ed57506301ffc9a760e01b6001600160e01b03198316145b92915050565b606060008054610402906117a4565b80601f016020809104026020016040519081016040528092919081815260200182805461042e906117a4565b801561047b5780601f106104505761010080835404028352916020019161047b565b820191906000526020600020905b81548152906001019060200180831161045e57829003601f168201915b5050505050905090565b600061049082610bb3565b506000828152600460205260409020546001600160a01b03166103ed565b6104b9828233610bec565b5050565b6001600160a01b0382166104ec57604051633250574960e11b8152600060048201526024015b60405180910390fd5b60006104f9838333610bf9565b9050836001600160a01b0316816001600160a01b031614610547576040516364283d7b60e01b81526001600160a01b03808616600483015260248201849052821660448201526064016104e3565b50505050565b61056883838360405180602001604052806000815250610947565b505050565b6009602052816000526040600020818154811061058957600080fd5b9060005260206000209060070201600091509150508060000154908060010154908060020180546105b9906117a4565b80601f01602080910402602001604051908101604052809291908181526020018280546105e5906117a4565b80156106325780601f1061060757610100808354040283529160200191610632565b820191906000526020600020905b81548152906001019060200180831161061557829003601f168201915b505050600384015460048501546005860154600690960154949560ff9283169591945092501687565b60006103ed82610bb3565b6000848152600260205260409020546001600160a01b0316331461068957600080fd5b6040805160e0810182526000868152600960209081528382205483528201879052918101859052606081018460038111156106c6576106c6611460565b815242602080830191909152604080830186905260016060909301839052600089815260098352818120805480860182559082529083902085516007909202019081559184015192820192909255908201519192508291600282019061072c9082611824565b5060608201518160030160006101000a81548160ff0219169083600381111561075757610757611460565b02179055506080820151600482015560a0820151600582015560c0909101516006909101805460ff191691151591909117905560008581526008602052604081206003018054916107a7836118e4565b9190505550847f2ef00dc3a5fed255cce6ae7a143366699ac1d4d9ef5ffeffa27124b727c7558e8260000151856040516107e292919061190b565b60405180910390a25050505050565b60006001600160a01b03821661081d576040516322718ad960e21b8152600060048201526024016104e3565b506001600160a01b031660009081526003602052604090205490565b610841610cf2565b61084b6000610d1f565b565b606060018054610402906117a4565b600780546000918261086d836118e4565b909155505060075461087f3382610d71565b6040805160a0810182528281523360208083018281528385018881526000606086018181524260808801908152898352600886528883209751885593516001880180546001600160a01b0319166001600160a01b0390921691909117905591516002870155905160038601559051600490940193909355868352600a815291839020849055915185815283917f03df5debf149a655d99b46048402562ab27f668db5dc618f6c4dc92e3a6d1012910160405180910390a392915050565b6104b9338383610d8b565b6109528484846104bd565b6105473385858585610e2a565b606061096a82610bb3565b50600061098260408051602081019091526000815290565b905060008151116109a257604051806020016040528060008152506109cd565b806109ac84610f55565b6040516020016109bd92919061191f565b6040516020818303038152906040525b9392505050565b606060096000838152602001908152602001600020805480602002602001604051908101604052809291908181526020016000905b82821015610b3c57838290600052602060002090600702016040518060e00160405290816000820154815260200160018201548152602001600282018054610a50906117a4565b80601f0160208091040260200160405190810160405280929190818152602001828054610a7c906117a4565b8015610ac95780601f10610a9e57610100808354040283529160200191610ac9565b820191906000526020600020905b815481529060010190602001808311610aac57829003601f168201915b505050918352505060038281015460209092019160ff1690811115610af057610af0611460565b6003811115610b0157610b01611460565b815260048201546020808301919091526005830154604083015260069092015460ff1615156060909101529082526001929092019101610a09565b505050509050919050565b6001600160a01b03918216600090815260056020908152604080832093909416825291909152205460ff1690565b610b7d610cf2565b6001600160a01b038116610ba757604051631e4fbdf760e01b8152600060048201526024016104e3565b610bb081610d1f565b50565b6000818152600260205260408120546001600160a01b0316806103ed57604051637e27328960e01b8152600481018490526024016104e3565b6105688383836001610fe8565b6000828152600260205260408120546001600160a01b0390811690831615610c2657610c268184866110ee565b6001600160a01b03811615610c6457610c43600085600080610fe8565b6001600160a01b038116600090815260036020526040902080546000190190555b6001600160a01b03851615610c93576001600160a01b0385166000908152600360205260409020805460010190555b60008481526002602052604080822080546001600160a01b0319166001600160a01b0389811691821790925591518793918516917fddf252ad1be2c89b69c2b068fc378daa952ba7f163c4a11628f55a4df523b3ef91a4949350505050565b6006546001600160a01b0316331461084b5760405163118cdaa760e01b81523360048201526024016104e3565b600680546001600160a01b038381166001600160a01b0319831681179093556040519116919082907f8be0079c531659141344cd1fd0a4f28419497f9722a3daafe3b4186f6b6457e090600090a35050565b6104b9828260405180602001604052806000815250611152565b6001600160a01b038216610dbd57604051630b61174360e31b81526001600160a01b03831660048201526024016104e3565b6001600160a01b03838116600081815260056020908152604080832094871680845294825291829020805460ff191686151590811790915591519182527f17307eab39ab6107e8899845ad3d59bd9653f200f220920489ca2b5937696c31910160405180910390a3505050565b6001600160a01b0383163b15610f4e57604051630a85bd0160e11b81526001600160a01b0384169063150b7a0290610e6c90889088908790879060040161194e565b6020604051808303816000875af1925050508015610ea7575060408051601f3d908101601f19168201909252610ea49181019061198b565b60015b610f10573d808015610ed5576040519150601f19603f3d011682016040523d82523d6000602084013e610eda565b606091505b508051600003610f0857604051633250574960e11b81526001600160a01b03851660048201526024016104e3565b805160208201fd5b6001600160e01b03198116630a85bd0160e11b14610f4c57604051633250574960e11b81526001600160a01b03851660048201526024016104e3565b505b5050505050565b60606000610f628361116a565b600101905060008167ffffffffffffffff811115610f8257610f826114e6565b6040519080825280601f01601f191660200182016040528015610fac576020820181803683370190505b5090508181016020015b600019016f181899199a1a9b1b9c1cb0b131b232b360811b600a86061a8153600a8504945084610fb657509392505050565b8080610ffc57506001600160a01b03821615155b156110be57600061100c84610bb3565b90506001600160a01b038316158015906110385750826001600160a01b0316816001600160a01b031614155b801561104b57506110498184610b47565b155b156110745760405163a9fbf51f60e01b81526001600160a01b03841660048201526024016104e3565b81156110bc5783856001600160a01b0316826001600160a01b03167f8c5be1e5ebec7d5bd14f71427d1e84f3dd0314c0f7b2291e5b200ac8c7c3b92560405160405180910390a45b505b5050600090815260046020526040902080546001600160a01b0319166001600160a01b0392909216919091179055565b6110f9838383611242565b610568576001600160a01b03831661112757604051637e27328960e01b8152600481018290526024016104e3565b60405163177e802f60e01b81526001600160a01b0383166004820152602481018290526044016104e3565b61115c83836112a8565b610568336000858585610e2a565b60008072184f03e93ff9f4daa797ed6e38ed64bf6a1f0160401b83106111a95772184f03e93ff9f4daa797ed6e38ed64bf6a1f0160401b830492506040015b6d04ee2d6d415b85acef810000000083106111d5576d04ee2d6d415b85acef8100000000830492506020015b662386f26fc1000083106111f357662386f26fc10000830492506010015b6305f5e100831061120b576305f5e100830492506008015b612710831061121f57612710830492506004015b60648310611231576064830492506002015b600a83106103ed5760010192915050565b60006001600160a01b038316158015906112a05750826001600160a01b0316846001600160a01b0316148061127c575061127c8484610b47565b806112a057506000828152600460205260409020546001600160a01b038481169116145b949350505050565b6001600160a01b0382166112d257604051633250574960e11b8152600060048201526024016104e3565b60006112e083836000610bf9565b90506001600160a01b03811615610568576040516339e3563760e11b8152600060048201526024016104e3565b6001600160e01b031981168114610bb057600080fd5b60006020828403121561133557600080fd5b81356109cd8161130d565b60005b8381101561135b578181015183820152602001611343565b50506000910152565b6000815180845261137c816020860160208601611340565b601f01601f19169290920160200192915050565b6020815260006109cd6020830184611364565b6000602082840312156113b557600080fd5b5035919050565b80356001600160a01b03811681146113d357600080fd5b919050565b600080604083850312156113eb57600080fd5b6113f4836113bc565b946020939093013593505050565b60008060006060848603121561141757600080fd5b611420846113bc565b925061142e602085016113bc565b9150604084013590509250925092565b6000806040838503121561145157600080fd5b50508035926020909101359150565b634e487b7160e01b600052602160045260246000fd5b6004811061149457634e487b7160e01b600052602160045260246000fd5b9052565b87815286602082015260e0604082015260006114b760e0830188611364565b90506114c66060830187611476565b8460808301528360a083015282151560c083015298975050505050505050565b634e487b7160e01b600052604160045260246000fd5b600067ffffffffffffffff80841115611517576115176114e6565b604051601f8501601f19908116603f0116810190828211818310171561153f5761153f6114e6565b8160405280935085815286868601111561155857600080fd5b858560208301376000602087830101525050509392505050565b6000806000806080858703121561158857600080fd5b84359350602085013567ffffffffffffffff8111156115a657600080fd5b8501601f810187136115b757600080fd5b6115c6878235602084016114fc565b9350506040850135600481106115db57600080fd5b9396929550929360600135925050565b6000602082840312156115fd57600080fd5b6109cd826113bc565b6000806040838503121561161957600080fd5b611622836113bc565b91506020830135801515811461163757600080fd5b809150509250929050565b6000806000806080858703121561165857600080fd5b611661856113bc565b935061166f602086016113bc565b925060408501359150606085013567ffffffffffffffff81111561169257600080fd5b8501601f810187136116a357600080fd5b6116b2878235602084016114fc565b91505092959194509250565b60006020808301818452808551808352604092508286019150828160051b87010184880160005b8381101561176357603f19898403018552815160e081518552888201518986015287820151818987015261171b82870182611364565b91505060608083015161173082880182611476565b50506080828101519086015260a0808301519086015260c0918201511515919094015293860193908601906001016116e5565b509098975050505050505050565b6000806040838503121561178457600080fd5b61178d836113bc565b915061179b602084016113bc565b90509250929050565b600181811c908216806117b857607f821691505b6020821081036117d857634e487b7160e01b600052602260045260246000fd5b50919050565b601f82111561056857600081815260208120601f850160051c810160208610156118055750805b601f850160051c820191505b81811015610f4c57828155600101611811565b815167ffffffffffffffff81111561183e5761183e6114e6565b6118528161184c84546117a4565b846117de565b602080601f831160018114611887576000841561186f5750858301515b600019600386901b1c1916600185901b178555610f4c565b600085815260208120601f198616915b828110156118b657888601518255948401946001909101908401611897565b50858210156118d45787850151600019600388901b60f8161c191681555b5050505050600190811b01905550565b60006001820161190457634e487b7160e01b600052601160045260246000fd5b5060010190565b828152604081016109cd6020830184611476565b60008351611931818460208801611340565b835190830190611945818360208801611340565b01949350505050565b6001600160a01b038581168252841660208201526040810183905260806060820181905260009061198190830184611364565b9695505050505050565b60006020828403121561199d57600080fd5b81516109cd8161130d56fea26469706673582212207dd66cd76bacb815f217b3132792681b040c86d1829d51271f7a896cd37de50c64736f6c63430008140033",
  "linkReferences": {},
  "deployedLinkReferences": {}
}