{
  "_format": "hh-sol-artifact-1",
  "contractName": "ManipulationResistance",
  "sourceName": "contracts/layer3/psychology/ManipulationResistance.sol",
  "abi": [
    {
      "inputs": [],
      "stateMutability": "nonpayable",
      "type": "constructor"
    },
    {
      "inputs": [
        {
          "internalType": "address",
          "name": "owner",
          "type": "address"
        }
      ],
      "name": "OwnableInvalidOwner",
      "type": "error"
    },
    {
      "inputs": [
        {
          "internalType": "address",
          "name": "account",
          "type": "address"
        }
      ],
      "name": "OwnableUnauthorizedAccount",
      "type": "error"
    },
    {
      "anonymous": false,
      "inputs": [
        {
          "indexed": true,
          "internalType": "uint256",
          "name": "targetId",
          "type": "uint256"
        },
        {
          "indexed": true,
          "internalType": "uint256",
          "name": "manipulatorId",
          "type": "uint256"
        }
      ],
      "name": "ManipulationDetected",
      "type": "event"
    },
    {
      "anonymous": false,
      "inputs": [
        {
          "indexed": true,
          "internalType": "uint256",
          "name": "targetId",
          "type": "uint256"
        },
        {
          "indexed": false,
          "internalType": "uint256",
          "name": "resistanceScore",
          "type": "uint256"
        }
      ],
      "name": "ManipulationResisted",
      "type": "event"
    },
    {
      "anonymous": false,
      "inputs": [
        {
          "indexed": true,
          "internalType": "uint256",
          "name": "targetId",
          "type": "uint256"
        },
        {
          "indexed": true,
          "internalType": "uint256",
          "name": "manipulatorId",
          "type": "uint256"
        }
      ],
      "name": "ManipulationSucceeded",
      "type": "event"
    },
    {
      "anonymous": false,
      "inputs": [
        {
          "indexed": true,
          "internalType": "address",
          "name": "previousOwner",
          "type": "address"
        },
        {
          "indexed": true,
          "internalType": "address",
          "name": "newOwner",
          "type": "address"
        }
      ],
      "name": "OwnershipTransferred",
      "type": "event"
    },
    {
      "inputs": [
        {
          "internalType": "uint256",
          "name": "manipulatorId",
          "type": "uint256"
        },
        {
          "internalType": "uint256",
          "name": "targetId",
          "type": "uint256"
        },
        {
          "internalType": "string",
          "name": "technique",
          "type": "string"
        },
        {
          "internalType": "uint256",
          "name": "manipulationPower",
          "type": "uint256"
        }
      ],
      "name": "attemptManipulation",
      "outputs": [
        {
          "internalType": "bool",
          "name": "",
          "type": "bool"
        }
      ],
      "stateMutability": "nonpayable",
      "type": "function"
    },
    {
      "inputs": [
        {
          "internalType": "uint256",
          "name": "entityId",
          "type": "uint256"
        }
      ],
      "name": "getResistanceScore",
      "outputs": [
        {
          "internalType": "uint256",
          "name": "",
          "type": "uint256"
        }
      ],
      "stateMutability": "view",
      "type": "function"
    },
    {
      "inputs": [
        {
          "internalType": "uint256",
          "name": "entityId",
          "type": "uint256"
        },
        {
          "internalType": "uint256",
          "name": "skepticism",
          "type": "uint256"
        },
        {
          "internalType": "uint256",
          "name": "criticalThinking",
          "type": "uint256"
        },
        {
          "internalType": "uint256",
          "name": "emotionalAwareness",
          "type": "uint256"
        }
      ],
      "name": "initializeResistance",
      "outputs": [],
      "stateMutability": "nonpayable",
      "type": "function"
    },
    {
      "inputs": [
        {
          "internalType": "uint256",
          "name": "",
          "type": "uint256"
        },
        {
          "internalType": "uint256",
          "name": "",
          "type": "uint256"
        }
      ],
      "name": "manipulationHistory",
      "outputs": [
        {
          "internalType": "uint256",
          "name": "attemptId",
          "type": "uint256"
        },
        {
          "internalType": "uint256",
          "name": "manipulatorId",
          "type": "uint256"
        },
        {
          "internalType": "uint256",
          "name": "targetId",
          "type": "uint256"
        },
        {
          "internalType": "string",
          "name": "technique",
          "type": "string"
        },
        {
          "internalType": "bool",
          "name": "detected",
          "type": "bool"
        },
        {
          "internalType": "bool",
          "name": "successful",
          "type": "bool"
        },
        {
          "internalType": "uint256",
          "name": "timestamp",
          "type": "uint256"
        }
      ],
      "stateMutability": "view",
      "type": "function"
    },
    {
      "inputs": [],
      "name": "owner",
      "outputs": [
        {
          "internalType": "address",
          "name": "",
          "type": "address"
        }
      ],
      "stateMutability": "view",
      "type": "function"
    },
    {
      "inputs": [],
      "name": "renounceOwnership",
      "outputs": [],
      "stateMutability": "nonpayable",
      "type": "function"
    },
    {
      "inputs": [
        {
          "internalType": "uint256",
          "name": "",
          "type": "uint256"
        }
      ],
      "name": "resistanceProfiles",
      "outputs": [
        {
          "internalType": "uint256",
          "name": "entityId",
          "type": "uint256"
        },
        {
          "internalType": "uint256",
          "name": "skepticism",
          "type": "uint256"
        },
        {
          "internalType": "uint256",
          "name": "criticalThinking",
          "type": "uint256"
        },
        {
          "internalType": "uint256",
          "name": "emotionalAwareness",
          "type": "uint256"
        },
        {
          "internalType": "uint256",
          "name": "experienceLevel",
          "type": "uint256"
        },
        {
          "internalType": "uint256",
          "name": "manipulationAttempts",
          "type": "uint256"
        },
        {
          "internalType": "uint256",
          "name": "successfulManipulations",
          "type": "uint256"
        }
      ],
      "stateMutability": "view",
      "type": "function"
    },
    {
      "inputs": [
        {
          "internalType": "address",
          "name": "newOwner",
          "type": "address"
        }
      ],
      "name": "transferOwnership",
      "outputs": [],
      "stateMutability": "nonpayable",
      "type": "function"
    }
  ],
  "bytecode": "0x6080806040523461007a5733156100645760008054336001600160a01b03198216811783556040519290916001600160a01b0316907f8be0079c531659141344cd1fd0a4f28419497f9722a3daafe3b4186f6b6457e09080a3610bb590816100808239f35b631e4fbdf760e01b815260006004820152602490fd5b600080fdfe608080604052600436101561001357600080fd5b60003560e01c908163125fe27c1461098f57508063715018a6146109115780638d5806221461087e5780638da5cb5b1461084a578063a91c254a146107ed578063cc90baa414610634578063eab48aed146101415763f2fde38b1461007757600080fd5b3461013c57602060031936011261013c5760043573ffffffffffffffffffffffffffffffffffffffff80821680920361013c576100b2610af4565b811561010b57600054827fffffffffffffffffffffffff0000000000000000000000000000000000000000821617600055167f8be0079c531659141344cd1fd0a4f28419497f9722a3daafe3b4186f6b6457e0600080a3005b60246040517f1e4fbdf700000000000000000000000000000000000000000000000000000000815260006004820152fd5b600080fd5b3461013c57608060031936011261013c5760443567ffffffffffffffff811161013c573660238201121561013c57806004013567ffffffffffffffff81116105cc57604051916101b960207fffffffffffffffffffffffffffffffffffffffffffffffffffffffffffffffe0601f8501160184610ab3565b818352366024838301011161013c57816000926024602093018386013783010152606435906024356000526001602052604060002091600583016101fd8154610b45565b905561022e6102236102186001860154600287015490610b72565b600386015490610b72565b600485015490610b72565b60021c908060011c821115928361062a575b6024356000526002602052604060002054906040519161025f83610a97565b82526004356020830152602435604083015260608201528160011c8311608082015283151560a08201524260c0820152602435600052600260205260406000208054680100000000000000008110156105cc576102c1916001820181556109f9565b9190916105fb57805182556020810151600183015560408101516002830155606081015180519067ffffffffffffffff82116105cc576103046003850154610a44565b601f8111610585575b50602090601f83116001146104d65791806005949260c0946000926104cb575b50507fffffffffffffffffffffffffffffffffffffffffffffffffffffffffffffffff8260011b9260031b1c19161760038501555b600484016080820151151581547fffffffffffffffffffffffffffffffffffffffffffffffffffffffffffff000060ff61ff0060a0870151151560081b169316911617179055015191015560011c811160001461047b57604051906004356024357fe8f63020b53cda2734cbf7385abe252bf9af65273ff1cdb4e2bb5e5762521b4a600080a36004840154936005850180951161044c5760648560209660048401551161043f575b5081527f8435e801fee0a325d8c3e2b58f738e0d87fef82ff119766cf4b153946538f2268360243592a25b6040519015158152f35b600460649101558461040a565b7f4e487b7100000000000000000000000000000000000000000000000000000000600052601160045260246000fd5b506020918161048b575b50610435565b6006016104988154610b45565b90556004356024357f7e651390720356a13bd844eeef9282e9774fe7a0d5debb1fd918619403de2c09600080a382610485565b015190508a8061032d565b907fffffffffffffffffffffffffffffffffffffffffffffffffffffffffffffffe08316916003860160005260206000209260005b81811061056d575092600192859260c0966005989610610536575b505050811b016003850155610362565b01517fffffffffffffffffffffffffffffffffffffffffffffffffffffffffffffffff60f88460031b161c191690558a8080610526565b9293602060018192878601518155019501930161050b565b600385016000526020600020601f840160051c8101602085106105c5575b601f830160051c820181106105b957505061030d565b600081556001016105a3565b50806105a3565b7f4e487b7100000000000000000000000000000000000000000000000000000000600052604160045260246000fd5b7f4e487b7100000000000000000000000000000000000000000000000000000000600052600060045260246000fd5b8282119350610240565b3461013c57604060031936011261013c5760243560043560005260209060028252604060002090815481101561013c5761066d916109f9565b508054916001908183015490600284015460038501604051809560009083549361069685610a44565b948585528783821691826000146107ac57505060011461076d575b50506106c69250979594979392930384610ab3565b6005600486015495015491604051968795865282860152604085015260e060608501528251928360e086015260005b848110610755575050507fffffffffffffffffffffffffffffffffffffffffffffffffffffffffffffffe091601f9160ff6101009660008885890101528181161515608088015260081c16151560a086015260c085015201168101030190f35b818101830151888201610100015287955082016106f5565b86925060005281600020906000915b8583106107945750506106c6935082010189806106b1565b8054838b01850152899450879390920191810161077c565b915093506106c69592507fffffffffffffffffffffffffffffffffffffffffffffffffffffffffffffff0091501682840152151560051b82010189806106b1565b3461013c57602060031936011261013c576004356000526001602052602061083f6040600020600461083661082b6001840154600285015490610b72565b600384015490610b72565b91015490610b72565b60021c604051908152f35b3461013c57600060031936011261013c57602073ffffffffffffffffffffffffffffffffffffffff60005416604051908152f35b3461013c57608060031936011261013c5760405160066004356108a083610a97565b80835260208301602435815260408401604435815260608501606435815260808601916000835260a08701936000855260c088019560008752600052600160205260406000209751885551600188015551600287015551600386015551600485015551600584015551910155600080f35b3461013c57600060031936011261013c5761092a610af4565b600073ffffffffffffffffffffffffffffffffffffffff81547fffffffffffffffffffffffff000000000000000000000000000000000000000081168355167f8be0079c531659141344cd1fd0a4f28419497f9722a3daafe3b4186f6b6457e08280a3005b3461013c57602060031936011261013c5760e090600435600052600160205260406000208054906001810154600282015460038301549060048401549260066005860154950154958752602087015260408601526060850152608084015260a083015260c0820152f35b8054821015610a15576000526006602060002091020190600090565b7f4e487b7100000000000000000000000000000000000000000000000000000000600052603260045260246000fd5b90600182811c92168015610a8d575b6020831014610a5e57565b7f4e487b7100000000000000000000000000000000000000000000000000000000600052602260045260246000fd5b91607f1691610a53565b60e0810190811067ffffffffffffffff8211176105cc57604052565b90601f7fffffffffffffffffffffffffffffffffffffffffffffffffffffffffffffffe0910116810190811067ffffffffffffffff8211176105cc57604052565b73ffffffffffffffffffffffffffffffffffffffff600054163303610b1557565b60246040517f118cdaa7000000000000000000000000000000000000000000000000000000008152336004820152fd5b7fffffffffffffffffffffffffffffffffffffffffffffffffffffffffffffffff811461044c5760010190565b9190820180921161044c5756fea26469706673582212206c207b16be3ee9c0f259583ca410cf01a67cf9f6c0b5787c569fe8279f5cc95d64736f6c63430008140033",
  "linkReferences": {},
  "deployedLinkReferences": {}
}