{
  "_format": "hh-sol-artifact-1",
  "contractName": "DAOTreasury",
  "sourceName": "contracts/dao/DAOTreasury.sol",
  "abi": [
    {
      "inputs": [],
      "stateMutability": "nonpayable",
      "type": "constructor"
    },
    {
      "inputs": [],
      "name": "AccessControlBadConfirmation",
      "type": "error"
    },
    {
      "inputs": [
        {
          "internalType": "address",
          "name": "account",
          "type": "address"
        },
        {
          "internalType": "bytes32",
          "name": "neededRole",
          "type": "bytes32"
        }
      ],
      "name": "AccessControlUnauthorizedAccount",
      "type": "error"
    },
    {
      "inputs": [],
      "name": "ReentrancyGuardReentrantCall",
      "type": "error"
    },
    {
      "anonymous": false,
      "inputs": [
        {
          "indexed": true,
          "internalType": "address",
          "name": "to",
          "type": "address"
        },
        {
          "indexed": false,
          "internalType": "uint256",
          "name": "amount",
          "type": "uint256"
        }
      ],
      "name": "EmergencyWithdrawal",
      "type": "event"
    },
    {
      "anonymous": false,
      "inputs": [
        {
          "indexed": true,
          "internalType": "address",
          "name": "from",
          "type": "address"
        },
        {
          "indexed": false,
          "internalType": "uint256",
          "name": "amount",
          "type": "uint256"
        }
      ],
      "name": "FundsReceived",
      "type": "event"
    },
    {
      "anonymous": false,
      "inputs": [
        {
          "indexed": true,
          "internalType": "uint256",
          "name": "paymentId",
          "type": "uint256"
        },
        {
          "indexed": true,
          "internalType": "address",
          "name": "recipient",
          "type": "address"
        },
        {
          "indexed": false,
          "internalType": "uint256",
          "name": "amount",
          "type": "uint256"
        }
      ],
      "name": "PaymentExecuted",
      "type": "event"
    },
    {
      "anonymous": false,
      "inputs": [
        {
          "indexed": true,
          "internalType": "bytes32",
          "name": "role",
          "type": "bytes32"
        },
        {
          "indexed": true,
          "internalType": "bytes32",
          "name": "previousAdminRole",
          "type": "bytes32"
        },
        {
          "indexed": true,
          "internalType": "bytes32",
          "name": "newAdminRole",
          "type": "bytes32"
        }
      ],
      "name": "RoleAdminChanged",
      "type": "event"
    },
    {
      "anonymous": false,
      "inputs": [
        {
          "indexed": true,
          "internalType": "bytes32",
          "name": "role",
          "type": "bytes32"
        },
        {
          "indexed": true,
          "internalType": "address",
          "name": "account",
          "type": "address"
        },
        {
          "indexed": true,
          "internalType": "address",
          "name": "sender",
          "type": "address"
        }
      ],
      "name": "RoleGranted",
      "type": "event"
    },
    {
      "anonymous": false,
      "inputs": [
        {
          "indexed": true,
          "internalType": "bytes32",
          "name": "role",
          "type": "bytes32"
        },
        {
          "indexed": true,
          "internalType": "address",
          "name": "account",
          "type": "address"
        },
        {
          "indexed": true,
          "internalType": "address",
          "name": "sender",
          "type": "address"
        }
      ],
      "name": "RoleRevoked",
      "type": "event"
    },
    {
      "anonymous": false,
      "inputs": [
        {
          "indexed": true,
          "internalType": "address",
          "name": "token",
          "type": "address"
        },
        {
          "indexed": true,
          "internalType": "address",
          "name": "to",
          "type": "address"
        },
        {
          "indexed": false,
          "internalType": "uint256",
          "name": "amount",
          "type": "uint256"
        }
      ],
      "name": "TokenWithdrawal",
      "type": "event"
    },
    {
      "anonymous": false,
      "inputs": [
        {
          "indexed": true,
          "internalType": "address",
          "name": "to",
          "type": "address"
        },
        {
          "indexed": false,
          "internalType": "uint256",
          "name": "amount",
          "type": "uint256"
        }
      ],
      "name": "Withdrawal",
      "type": "event"
    },
    {
      "inputs": [],
      "name": "DEFAULT_ADMIN_ROLE",
      "outputs": [
        {
          "internalType": "bytes32",
          "name": "",
          "type": "bytes32"
        }
      ],
      "stateMutability": "view",
      "type": "function"
    },
    {
      "inputs": [],
      "name": "EXECUTOR_ROLE",
      "outputs": [
        {
          "internalType": "bytes32",
          "name": "",
          "type": "bytes32"
        }
      ],
      "stateMutability": "view",
      "type": "function"
    },
    {
      "inputs": [],
      "name": "TREASURER_ROLE",
      "outputs": [
        {
          "internalType": "bytes32",
          "name": "",
          "type": "bytes32"
        }
      ],
      "stateMutability": "view",
      "type": "function"
    },
    {
      "inputs": [
        {
          "internalType": "address",
          "name": "to",
          "type": "address"
        },
        {
          "internalType": "uint256",
          "name": "amount",
          "type": "uint256"
        }
      ],
      "name": "emergencyWithdraw",
      "outputs": [],
      "stateMutability": "nonpayable",
      "type": "function"
    },
    {
      "inputs": [
        {
          "internalType": "address",
          "name": "recipient",
          "type": "address"
        },
        {
          "internalType": "uint256",
          "name": "amount",
          "type": "uint256"
        },
        {
          "internalType": "string",
          "name": "description",
          "type": "string"
        }
      ],
      "name": "executePayment",
      "outputs": [
        {
          "internalType": "uint256",
          "name": "",
          "type": "uint256"
        }
      ],
      "stateMutability": "nonpayable",
      "type": "function"
    },
    {
      "inputs": [],
      "name": "getBalance",
      "outputs": [
        {
          "internalType": "uint256",
          "name": "",
          "type": "uint256"
        }
      ],
      "stateMutability": "view",
      "type": "function"
    },
    {
      "inputs": [
        {
          "internalType": "uint256",
          "name": "paymentId",
          "type": "uint256"
        }
      ],
      "name": "getPayment",
      "outputs": [
        {
          "components": [
            {
              "internalType": "address",
              "name": "recipient",
              "type": "address"
            },
            {
              "internalType": "uint256",
              "name": "amount",
              "type": "uint256"
            },
            {
              "internalType": "string",
              "name": "description",
              "type": "string"
            },
            {
              "internalType": "uint256",
              "name": "executedAt",
              "type": "uint256"
            },
            {
              "internalType": "bool",
              "name": "completed",
              "type": "bool"
            }
          ],
          "internalType": "struct DAOTreasury.Payment",
          "name": "",
          "type": "tuple"
        }
      ],
      "stateMutability": "view",
      "type": "function"
    },
    {
      "inputs": [
        {
          "internalType": "bytes32",
          "name": "role",
          "type": "bytes32"
        }
      ],
      "name": "getRoleAdmin",
      "outputs": [
        {
          "internalType": "bytes32",
          "name": "",
          "type": "bytes32"
        }
      ],
      "stateMutability": "view",
      "type": "function"
    },
    {
      "inputs": [],
      "name": "getTreasuryStats",
      "outputs": [
        {
          "internalType": "uint256",
          "name": "balance",
          "type": "uint256"
        },
        {
          "internalType": "uint256",
          "name": "spent",
          "type": "uint256"
        },
        {
          "internalType": "uint256",
          "name": "received",
          "type": "uint256"
        },
        {
          "internalType": "uint256",
          "name": "paymentsCount",
          "type": "uint256"
        }
      ],
      "stateMutability": "view",
      "type": "function"
    },
    {
      "inputs": [
        {
          "internalType": "bytes32",
          "name": "role",
          "type": "bytes32"
        },
        {
          "internalType": "address",
          "name": "account",
          "type": "address"
        }
      ],
      "name": "grantRole",
      "outputs": [],
      "stateMutability": "nonpayable",
      "type": "function"
    },
    {
      "inputs": [
        {
          "internalType": "bytes32",
          "name": "role",
          "type": "bytes32"
        },
        {
          "internalType": "address",
          "name": "account",
          "type": "address"
        }
      ],
      "name": "hasRole",
      "outputs": [
        {
          "internalType": "bool",
          "name": "",
          "type": "bool"
        }
      ],
      "stateMutability": "view",
      "type": "function"
    },
    {
      "inputs": [],
      "name": "paymentCount",
      "outputs": [
        {
          "internalType": "uint256",
          "name": "",
          "type": "uint256"
        }
      ],
      "stateMutability": "view",
      "type": "function"
    },
    {
      "inputs": [
        {
          "internalType": "uint256",
          "name": "",
          "type": "uint256"
        }
      ],
      "name": "payments",
      "outputs": [
        {
          "internalType": "address",
          "name": "recipient",
          "type": "address"
        },
        {
          "internalType": "uint256",
          "name": "amount",
          "type": "uint256"
        },
        {
          "internalType": "string",
          "name": "description",
          "type": "string"
        },
        {
          "internalType": "uint256",
          "name": "executedAt",
          "type": "uint256"
        },
        {
          "internalType": "bool",
          "name": "completed",
          "type": "bool"
        }
      ],
      "stateMutability": "view",
      "type": "function"
    },
    {
      "inputs": [
        {
          "internalType": "bytes32",
          "name": "role",
          "type": "bytes32"
        },
        {
          "internalType": "address",
          "name": "callerConfirmation",
          "type": "address"
        }
      ],
      "name": "renounceRole",
      "outputs": [],
      "stateMutability": "nonpayable",
      "type": "function"
    },
    {
      "inputs": [
        {
          "internalType": "bytes32",
          "name": "role",
          "type": "bytes32"
        },
        {
          "internalType": "address",
          "name": "account",
          "type": "address"
        }
      ],
      "name": "revokeRole",
      "outputs": [],
      "stateMutability": "nonpayable",
      "type": "function"
    },
    {
      "inputs": [
        {
          "internalType": "bytes4",
          "name": "interfaceId",
          "type": "bytes4"
        }
      ],
      "name": "supportsInterface",
      "outputs": [
        {
          "internalType": "bool",
          "name": "",
          "type": "bool"
        }
      ],
      "stateMutability": "view",
      "type": "function"
    },
    {
      "inputs": [],
      "name": "totalReceived",
      "outputs": [
        {
          "internalType": "uint256",
          "name": "",
          "type": "uint256"
        }
      ],
      "stateMutability": "view",
      "type": "function"
    },
    {
      "inputs": [],
      "name": "totalSpent",
      "outputs": [
        {
          "internalType": "uint256",
          "name": "",
          "type": "uint256"
        }
      ],
      "stateMutability": "view",
      "type": "function"
    },
    {
      "inputs": [
        {
          "internalType": "address",
          "name": "to",
          "type": "address"
        },
        {
          "internalType": "uint256",
          "name": "amount",
          "type": "uint256"
        }
      ],
      "name": "withdraw",
      "outputs": [],
      "stateMutability": "nonpayable",
      "type": "function"
    },
    {
      "inputs": [
        {
          "internalType": "address",
          "name": "token",
          "type": "address"
        },
        {
          "internalType": "address",
          "name": "to",
          "type": "address"
        },
        {
          "internalType": "uint256",
          "name": "amount",
          "type": "uint256"
        }
      ],
      "name": "withdrawToken",
      "outputs": [],
      "stateMutability": "nonpayable",
      "type": "function"
    },
    {
      "stateMutability": "payable",
      "type": "receive"
    }
  ],
  "bytecode": "0x608060405234620000425760018055620000193362000047565b506200002533620000c7565b50620000313362000169565b5060405161147a9081620002078239f35b600080fd5b6001600160a01b031660008181527fad3228b676f7d3cd4284a5443f17f1962b36e491b30a40b2405849e597ba5fb5602052604081205490919060ff16620000c357818052816020526040822081835260205260408220600160ff198254161790553391600080516020620016818339815191528180a4600190565b5090565b6001600160a01b031660008181527fdae2aa361dfd1ca020a396615627d436107c35eff9fe7738a3512819782d706960205260408120549091907fd8aa0f3194971a2a116679f7c2090f6939c8d4e01a2a8d7e41d55e5351469e639060ff166200016457808352826020526040832082845260205260408320600160ff1982541617905560008051602062001681833981519152339380a4600190565b505090565b6001600160a01b031660008181527f991c3211066600fc98d95d017c66f2884b1fa3d4cabc2576d000f3cc80931bda60205260408120549091907f3496e2e73c4d42b75d702e60d9e48102720b8691234415963a5a857b86425d079060ff166200016457808352826020526040832082845260205260408320600160ff1982541617905560008051602062001681833981519152339380a460019056fe60806040526004361015610056575b361561001957600080fd5b61002534600554611268565b6005556040513481527f8e47b87b0ef542cdfa1659c551d88bad38aa7f452d2bbb349ab7530dfec8be8f60203392a2005b60003560e01c806301e3366714610d0757806301ffc9a714610c6657806307bd026514610c2b5780630937e68a14610c0d57806312065fe014610bf1578063248a9ca314610bc25780632f2ff15d14610b835780633280a83614610a9857806336568abe14610a2c57806387d81789146109a157806391d148541461094657806395ccea671461082e578063a217fddf14610812578063a3c2c462146107f4578063b185404f146102e1578063c8692e3f146102ac578063d547741f1461026b578063f0a3a97c14610230578063f3fef3a31461015a5763fb346eab0361000e5734610155576000600319360112610155576020600454604051908152f35b600080fd5b3461015557604060031936011261015557610173610e82565b73ffffffffffffffffffffffffffffffffffffffff6024359161019461109b565b61019c61133f565b16906101a982151561137a565b80156101b581156112da565b6101c1478311156113df565b6101cd82600454611268565b6004558183600092610226575b600092839283928392f11561021a5760207f7fcf532c15f0a6db0bd6d0e038bea71d30d808c7d98cb3bf7268a95bf5081b6591604051908152a260018055005b6040513d6000823e3d90fd5b6108fc92506101da565b346101555760006003193601126101555760206040517f3496e2e73c4d42b75d702e60d9e48102720b8691234415963a5a857b86425d078152f35b34610155576040600319360112610155576102aa60043561028a610ea5565b908060005260006020526102a56001604060002001546110f7565b6111c7565b005b346101555760006003193601126101555760804760045460055460035491604051938452602084015260408301526060820152f35b34610155576060600319360112610155576102fa610e82565b60443567ffffffffffffffff918282116101555736602383011215610155578160040135838111610701576040519261035b60207fffffffffffffffffffffffffffffffffffffffffffffffffffffffffffffffe0601f8501160185610f95565b8184523660248383010111610155578160009260246020930183870137840101523360009081527fdae2aa361dfd1ca020a396615627d436107c35eff9fe7738a3512819782d706960205260409020547fd8aa0f3194971a2a116679f7c2090f6939c8d4e01a2a8d7e41d55e5351469e639060ff16156107bd57506103de61133f565b73ffffffffffffffffffffffffffffffffffffffff926104018483161515611275565b61040e60243515156112da565b602435471061075f57600354927fffffffffffffffffffffffffffffffffffffffffffffffffffffffffffffffff841461073057600184016003556040519161045683610f79565b8584168352602083019160243583526040840190815242606085015260016080850152856000526002602052604060002092878551167fffffffffffffffffffffffff0000000000000000000000000000000000000000855416178455516001840155518051918211610701576104d06002840154610f26565b601f81116106ba575b50602090601f83116001146105eb579180608094926004946000926105e0575b50507fffffffffffffffffffffffffffffffffffffffffffffffffffffffffffffffff8260011b9260031b1c19161760028201555b6060840151600382015501910151151560ff7fffffffffffffffffffffffffffffffffffffffffffffffffffffffffffffff008354169116179055610577602435600454611268565b6004556000602435156105d7575b6000808080936024359088871690f11561021a57817f7f5bfe3018715b26a7067888a5c42912fbb3485170b8154ea9a448661f2f0de2602080956040519460243586521693a360018055604051908152f35b506108fc610585565b0151905089806104f9565b906002840160005260206000209160005b7fffffffffffffffffffffffffffffffffffffffffffffffffffffffffffffffe0851681106106a257509260809492600192600495837fffffffffffffffffffffffffffffffffffffffffffffffffffffffffffffffe081161061066b575b505050811b01600282015561052e565b01517fffffffffffffffffffffffffffffffffffffffffffffffffffffffffffffffff60f88460031b161c1916905589808061065b565b919260206001819286850151815501940192016105fc565b600284016000526020600020601f840160051c8101602085106106fa575b601f830160051c820181106106ee5750506104d9565b600081556001016106d8565b50806106d8565b7f4e487b7100000000000000000000000000000000000000000000000000000000600052604160045260246000fd5b7f4e487b7100000000000000000000000000000000000000000000000000000000600052601160045260246000fd5b60646040517f08c379a000000000000000000000000000000000000000000000000000000000815260206004820152601260248201527f496e73756666696369656e742066756e647300000000000000000000000000006044820152fd5b604490604051907fe2517d3f0000000000000000000000000000000000000000000000000000000082523360048301526024820152fd5b34610155576000600319360112610155576020600554604051908152f35b3461015557600060031936011261015557602060405160008152f35b3461015557604060031936011261015557610847610e82565b3360009081527fad3228b676f7d3cd4284a5443f17f1962b36e491b30a40b2405849e597ba5fb56020526040902054602435919060ff161561090f5773ffffffffffffffffffffffffffffffffffffffff906108a161133f565b16906108ae82151561137a565b6108ba478211156113df565b600081838115610905575b600092839283928392f11561021a5760207f23d6711a1d031134a36921253c75aa59e967d38e369ac625992824315e204f2091604051908152a260018055005b6108fc92506108c5565b60446040517fe2517d3f00000000000000000000000000000000000000000000000000000000815233600482015260006024820152fd5b346101555760406003193601126101555761095f610ea5565b600435600052600060205273ffffffffffffffffffffffffffffffffffffffff60406000209116600052602052602060ff604060002054166040519015158152f35b34610155576020600319360112610155576004356000526002602052604060002073ffffffffffffffffffffffffffffffffffffffff8154166001820154916109ec60028201610fd6565b610a1b60ff6004600385015494015416916040519586958652602086015260a0604086015260a0850190610ec8565b916060840152151560808301520390f35b3461015557604060031936011261015557610a45610ea5565b3373ffffffffffffffffffffffffffffffffffffffff821603610a6e576102aa906004356111c7565b60046040517f6697b232000000000000000000000000000000000000000000000000000000008152fd5b34610155576020806003193601126101555760006080604051610aba81610f79565b828152828482015260606040820152826060820152015260043560005260028152604060002060405190610aed82610f79565b73ffffffffffffffffffffffffffffffffffffffff92838254168352610b706001830154828501908152610b2360028501610fd6565b906040860191825260ff600460038701549660608901978852015416936080870194151585526040519788978289525116908701525160408601525160a0606086015260c0850190610ec8565b9151608084015251151560a08301520390f35b34610155576040600319360112610155576102aa600435610ba2610ea5565b90806000526000602052610bbd6001604060002001546110f7565b61111d565b346101555760206003193601126101555760043560005260006020526020600160406000200154604051908152f35b3461015557600060031936011261015557602047604051908152f35b34610155576000600319360112610155576020600354604051908152f35b346101555760006003193601126101555760206040517fd8aa0f3194971a2a116679f7c2090f6939c8d4e01a2a8d7e41d55e5351469e638152f35b34610155576020600319360112610155576004357fffffffff00000000000000000000000000000000000000000000000000000000811680910361015557807f7965db0b0000000000000000000000000000000000000000000000000000000060209214908115610cdd575b506040519015158152f35b7f01ffc9a70000000000000000000000000000000000000000000000000000000091501482610cd2565b3461015557606060031936011261015557610d20610e82565b610d28610ea5565b60443591610d3461109b565b610d3c61133f565b73ffffffffffffffffffffffffffffffffffffffff809116918215610e24571691610d68831515611275565b610d738115156112da565b6040517fa9059cbb0000000000000000000000000000000000000000000000000000000081528360048201528160248201526020816044816000875af1801561021a57610ded575b5060207f42856d0378dde02337bb59ae41747abc77ded8ebdbbc5cbdd1e53693b755493891604051908152a360018055005b6020813d8211610e1c575b81610e0560209383610f95565b810103126101555751801515036101555783610dbb565b3d9150610df8565b60646040517f08c379a000000000000000000000000000000000000000000000000000000000815260206004820152600d60248201527f496e76616c696420746f6b656e000000000000000000000000000000000000006044820152fd5b6004359073ffffffffffffffffffffffffffffffffffffffff8216820361015557565b6024359073ffffffffffffffffffffffffffffffffffffffff8216820361015557565b919082519283825260005b848110610f125750507fffffffffffffffffffffffffffffffffffffffffffffffffffffffffffffffe0601f8460006020809697860101520116010190565b602081830181015184830182015201610ed3565b90600182811c92168015610f6f575b6020831014610f4057565b7f4e487b7100000000000000000000000000000000000000000000000000000000600052602260045260246000fd5b91607f1691610f35565b60a0810190811067ffffffffffffffff82111761070157604052565b90601f7fffffffffffffffffffffffffffffffffffffffffffffffffffffffffffffffe0910116810190811067ffffffffffffffff82111761070157604052565b9060405191826000825492610fea84610f26565b9081845260019485811690816000146110595750600114611016575b505061101492500383610f95565b565b9093915060005260209081600020936000915b81831061104157505061101493508201013880611006565b85548884018501529485019487945091830191611029565b90506110149550602093507fffffffffffffffffffffffffffffffffffffffffffffffffffffffffffffff0091501682840152151560051b8201013880611006565b3360009081527f991c3211066600fc98d95d017c66f2884b1fa3d4cabc2576d000f3cc80931bda60205260409020547f3496e2e73c4d42b75d702e60d9e48102720b8691234415963a5a857b86425d079060ff16156107bd5750565b80600052600060205260406000203360005260205260ff60406000205416156107bd5750565b906000918083528260205273ffffffffffffffffffffffffffffffffffffffff6040842092169182845260205260ff604084205416156000146111c25780835282602052604083208284526020526040832060017fffffffffffffffffffffffffffffffffffffffffffffffffffffffffffffff008254161790557f2f8788117e7eff1d82e926ec794901d17c78024a50270940304540a733656f0d339380a4600190565b505090565b906000918083528260205273ffffffffffffffffffffffffffffffffffffffff6040842092169182845260205260ff6040842054166000146111c2578083528260205260408320828452602052604083207fffffffffffffffffffffffffffffffffffffffffffffffffffffffffffffff0081541690557ff6391f5c32d9c69d2a47ea670b442974b53935d1edc7fd64eb21e047a839171b339380a4600190565b9190820180921161073057565b1561127c57565b60646040517f08c379a000000000000000000000000000000000000000000000000000000000815260206004820152601160248201527f496e76616c696420726563697069656e740000000000000000000000000000006044820152fd5b156112e157565b60646040517f08c379a000000000000000000000000000000000000000000000000000000000815260206004820152600e60248201527f496e76616c696420616d6f756e740000000000000000000000000000000000006044820152fd5b600260015414611350576002600155565b60046040517f3ee5aeb5000000000000000000000000000000000000000000000000000000008152fd5b1561138157565b60646040517f08c379a000000000000000000000000000000000000000000000000000000000815260206004820152600f60248201527f496e76616c6964206164647265737300000000000000000000000000000000006044820152fd5b156113e657565b60646040517f08c379a000000000000000000000000000000000000000000000000000000000815260206004820152601460248201527f496e73756666696369656e742062616c616e63650000000000000000000000006044820152fdfea264697066735822122070155da0679fa568f61352c9229ea0be0e74c3dc4555423a13920a156a84d89964736f6c634300081400332f8788117e7eff1d82e926ec794901d17c78024a50270940304540a733656f0d",
  "linkReferences": {},
  "deployedLinkReferences": {}
}