{
  "_format": "hh-sol-artifact-1",
  "contractName": "DAOTreasury",
  "sourceName": "contracts/dao/DAOTreasury.sol",
  "abi": [
    {
      "inputs": [],
      "stateMutability": "nonpayable",
      "type": "constructor"
    },
    {
      "inputs": [],
      "name": "AccessControlBadConfirmation",
      "type": "error"
    },
    {
      "inputs": [
        {
          "internalType": "address",
          "name": "account",
          "type": "address"
        },
        {
          "internalType": "bytes32",
          "name": "neededRole",
          "type": "bytes32"
        }
      ],
      "name": "AccessControlUnauthorizedAccount",
      "type": "error"
    },
    {
      "inputs": [],
      "name": "ReentrancyGuardReentrantCall",
      "type": "error"
    },
    {
      "anonymous": false,
      "inputs": [
        {
          "indexed": true,
          "internalType": "address",
          "name": "to",
          "type": "address"
        },
        {
          "indexed": false,
          "internalType": "uint256",
          "name": "amount",
          "type": "uint256"
        }
      ],
      "name": "EmergencyWithdrawal",
      "type": "event"
    },
    {
      "anonymous": false,
      "inputs": [
        {
          "indexed": true,
          "internalType": "address",
          "name": "from",
          "type": "address"
        },
        {
          "indexed": false,
          "internalType": "uint256",
          "name": "amount",
          "type": "uint256"
        }
      ],
      "name": "FundsReceived",
      "type": "event"
    },
    {
      "anonymous": false,
      "inputs": [
        {
          "indexed": true,
          "internalType": "uint256",
          "name": "paymentId",
          "type": "uint256"
        },
        {
          "indexed": true,
          "internalType": "address",
          "name": "recipient",
          "type": "address"
        },
        {
          "indexed": false,
          "internalType": "uint256",
          "name": "amount",
          "type": "uint256"
        }
      ],
      "name": "PaymentExecuted",
      "type": "event"
    },
    {
      "anonymous": false,
      "inputs": [
        {
          "indexed": true,
          "internalType": "bytes32",
          "name": "role",
          "type": "bytes32"
        },
        {
          "indexed": true,
          "internalType": "bytes32",
          "name": "previousAdminRole",
          "type": "bytes32"
        },
        {
          "indexed": true,
          "internalType": "bytes32",
          "name": "newAdminRole",
          "type": "bytes32"
        }
      ],
      "name": "RoleAdminChanged",
      "type": "event"
    },
    {
      "anonymous": false,
      "inputs": [
        {
          "indexed": true,
          "internalType": "bytes32",
          "name": "role",
          "type": "bytes32"
        },
        {
          "indexed": true,
          "internalType": "address",
          "name": "account",
          "type": "address"
        },
        {
          "indexed": true,
          "internalType": "address",
          "name": "sender",
          "type": "address"
        }
      ],
      "name": "RoleGranted",
      "type": "event"
    },
    {
      "anonymous": false,
      "inputs": [
        {
          "indexed": true,
          "internalType": "bytes32",
          "name": "role",
          "type": "bytes32"
        },
        {
          "indexed": true,
          "internalType": "address",
          "name": "account",
          "type": "address"
        },
        {
          "indexed": true,
          "internalType": "address",
          "name": "sender",
          "type": "address"
        }
      ],
      "name": "RoleRevoked",
      "type": "event"
    },
    {
      "inputs": [],
      "name": "DEFAULT_ADMIN_ROLE",
      "outputs": [
        {
          "internalType": "bytes32",
          "name": "",
          "type": "bytes32"
        }
      ],
      "stateMutability": "view",
      "type": "function"
    },
    {
      "inputs": [],
      "name": "EXECUTOR_ROLE",
      "outputs": [
        {
          "internalType": "bytes32",
          "name": "",
          "type": "bytes32"
        }
      ],
      "stateMutability": "view",
      "type": "function"
    },
    {
      "inputs": [],
      "name": "TREASURER_ROLE",
      "outputs": [
        {
          "internalType": "bytes32",
          "name": "",
          "type": "bytes32"
        }
      ],
      "stateMutability": "view",
      "type": "function"
    },
    {
      "inputs": [
        {
          "internalType": "address",
          "name": "to",
          "type": "address"
        },
        {
          "internalType": "uint256",
          "name": "amount",
          "type": "uint256"
        }
      ],
      "name": "emergencyWithdraw",
      "outputs": [],
      "stateMutability": "nonpayable",
      "type": "function"
    },
    {
      "inputs": [
        {
          "internalType": "address",
          "name": "recipient",
          "type": "address"
        },
        {
          "internalType": "uint256",
          "name": "amount",
          "type": "uint256"
        },
        {
          "internalType": "string",
          "name": "description",
          "type": "string"
        }
      ],
      "name": "executePayment",
      "outputs": [
        {
          "internalType": "uint256",
          "name": "",
          "type": "uint256"
        }
      ],
      "stateMutability": "nonpayable",
      "type": "function"
    },
    {
      "inputs": [],
      "name": "getBalance",
      "outputs": [
        {
          "internalType": "uint256",
          "name": "",
          "type": "uint256"
        }
      ],
      "stateMutability": "view",
      "type": "function"
    },
    {
      "inputs": [
        {
          "internalType": "uint256",
          "name": "paymentId",
          "type": "uint256"
        }
      ],
      "name": "getPayment",
      "outputs": [
        {
          "components": [
            {
              "internalType": "address",
              "name": "recipient",
              "type": "address"
            },
            {
              "internalType": "uint256",
              "name": "amount",
              "type": "uint256"
            },
            {
              "internalType": "string",
              "name": "description",
              "type": "string"
            },
            {
              "internalType": "uint256",
              "name": "executedAt",
              "type": "uint256"
            },
            {
              "internalType": "bool",
              "name": "completed",
              "type": "bool"
            }
          ],
          "internalType": "struct DAOTreasury.Payment",
          "name": "",
          "type": "tuple"
        }
      ],
      "stateMutability": "view",
      "type": "function"
    },
    {
      "inputs": [
        {
          "internalType": "bytes32",
          "name": "role",
          "type": "bytes32"
        }
      ],
      "name": "getRoleAdmin",
      "outputs": [
        {
          "internalType": "bytes32",
          "name": "",
          "type": "bytes32"
        }
      ],
      "stateMutability": "view",
      "type": "function"
    },
    {
      "inputs": [],
      "name": "getTreasuryStats",
      "outputs": [
        {
          "internalType": "uint256",
          "name": "balance",
          "type": "uint256"
        },
        {
          "internalType": "uint256",
          "name": "spent",
          "type": "uint256"
        },
        {
          "internalType": "uint256",
          "name": "received",
          "type": "uint256"
        },
        {
          "internalType": "uint256",
          "name": "paymentsCount",
          "type": "uint256"
        }
      ],
      "stateMutability": "view",
      "type": "function"
    },
    {
      "inputs": [
        {
          "internalType": "bytes32",
          "name": "role",
          "type": "bytes32"
        },
        {
          "internalType": "address",
          "name": "account",
          "type": "address"
        }
      ],
      "name": "grantRole",
      "outputs": [],
      "stateMutability": "nonpayable",
      "type": "function"
    },
    {
      "inputs": [
        {
          "internalType": "bytes32",
          "name": "role",
          "type": "bytes32"
        },
        {
          "internalType": "address",
          "name": "account",
          "type": "address"
        }
      ],
      "name": "hasRole",
      "outputs": [
        {
          "internalType": "bool",
          "name": "",
          "type": "bool"
        }
      ],
      "stateMutability": "view",
      "type": "function"
    },
    {
      "inputs": [],
      "name": "paymentCount",
      "outputs": [
        {
          "internalType": "uint256",
          "name": "",
          "type": "uint256"
        }
      ],
      "stateMutability": "view",
      "type": "function"
    },
    {
      "inputs": [
        {
          "internalType": "uint256",
          "name": "",
          "type": "uint256"
        }
      ],
      "name": "payments",
      "outputs": [
        {
          "internalType": "address",
          "name": "recipient",
          "type": "address"
        },
        {
          "internalType": "uint256",
          "name": "amount",
          "type": "uint256"
        },
        {
          "internalType": "string",
          "name": "description",
          "type": "string"
        },
        {
          "internalType": "uint256",
          "name": "executedAt",
          "type": "uint256"
        },
        {
          "internalType": "bool",
          "name": "completed",
          "type": "bool"
        }
      ],
      "stateMutability": "view",
      "type": "function"
    },
    {
      "inputs": [
        {
          "internalType": "bytes32",
          "name": "role",
          "type": "bytes32"
        },
        {
          "internalType": "address",
          "name": "callerConfirmation",
          "type": "address"
        }
      ],
      "name": "renounceRole",
      "outputs": [],
      "stateMutability": "nonpayable",
      "type": "function"
    },
    {
      "inputs": [
        {
          "internalType": "bytes32",
          "name": "role",
          "type": "bytes32"
        },
        {
          "internalType": "address",
          "name": "account",
          "type": "address"
        }
      ],
      "name": "revokeRole",
      "outputs": [],
      "stateMutability": "nonpayable",
      "type": "function"
    },
    {
      "inputs": [
        {
          "internalType": "bytes4",
          "name": "interfaceId",
          "type": "bytes4"
        }
      ],
      "name": "supportsInterface",
      "outputs": [
        {
          "internalType": "bool",
          "name": "",
          "type": "bool"
        }
      ],
      "stateMutability": "view",
      "type": "function"
    },
    {
      "inputs": [],
      "name": "totalReceived",
      "outputs": [
        {
          "internalType": "uint256",
          "name": "",
          "type": "uint256"
        }
      ],
      "stateMutability": "view",
      "type": "function"
    },
    {
      "inputs": [],
      "name": "totalSpent",
      "outputs": [
        {
          "internalType": "uint256",
          "name": "",
          "type": "uint256"
        }
      ],
      "stateMutability": "view",
      "type": "function"
    },
    {
      "stateMutability": "payable",
      "type": "receive"
    }
  ],
  "bytecode": "0x608060405234801561001057600080fd5b506001805561002060003361007c565b5061004b7fd8aa0f3194971a2a116679f7c2090f6939c8d4e01a2a8d7e41d55e5351469e633361007c565b506100767f3496e2e73c4d42b75d702e60d9e48102720b8691234415963a5a857b86425d073361007c565b50610128565b6000828152602081815260408083206001600160a01b038516845290915281205460ff1661011e576000838152602081815260408083206001600160a01b03861684529091529020805460ff191660011790556100d63390565b6001600160a01b0316826001600160a01b0316847f2f8788117e7eff1d82e926ec794901d17c78024a50270940304540a733656f0d60405160405180910390a4506001610122565b5060005b92915050565b61100f806101376000396000f3fe60806040526004361061010d5760003560e01c806391d1485411610095578063b185404f11610064578063b185404f14610340578063c8692e3f14610360578063d547741f1461039d578063f0a3a97c146103bd578063fb346eab146103f157600080fd5b806391d14854146102d557806395ccea67146102f5578063a217fddf14610315578063a3c2c4621461032a57600080fd5b8063248a9ca3116100dc578063248a9ca3146102055780632f2ff15d146102355780633280a8361461025757806336568abe1461028457806387d81789146102a457600080fd5b806301ffc9a71461016557806307bd02651461019a5780630937e68a146101dc57806312065fe0146101f257600080fd5b366101605734600560008282546101249190610be8565b909155505060405134815233907f8e47b87b0ef542cdfa1659c551d88bad38aa7f452d2bbb349ab7530dfec8be8f9060200160405180910390a2005b600080fd5b34801561017157600080fd5b50610185610180366004610bfb565b610407565b60405190151581526020015b60405180910390f35b3480156101a657600080fd5b506101ce7fd8aa0f3194971a2a116679f7c2090f6939c8d4e01a2a8d7e41d55e5351469e6381565b604051908152602001610191565b3480156101e857600080fd5b506101ce60035481565b3480156101fe57600080fd5b50476101ce565b34801561021157600080fd5b506101ce610220366004610c2c565b60009081526020819052604090206001015490565b34801561024157600080fd5b50610255610250366004610c61565b61043e565b005b34801561026357600080fd5b50610277610272366004610c2c565b610469565b6040516101919190610cd3565b34801561029057600080fd5b5061025561029f366004610c61565b61058e565b3480156102b057600080fd5b506102c46102bf366004610c2c565b6105c6565b604051610191959493929190610d2d565b3480156102e157600080fd5b506101856102f0366004610c61565b61068d565b34801561030157600080fd5b50610255610310366004610d6d565b6106b6565b34801561032157600080fd5b506101ce600081565b34801561033657600080fd5b506101ce60055481565b34801561034c57600080fd5b506101ce61035b366004610dad565b6107e0565b34801561036c57600080fd5b5061037d6004546005546003544793565b604080519485526020850193909352918301526060820152608001610191565b3480156103a957600080fd5b506102556103b8366004610c61565b610a3c565b3480156103c957600080fd5b506101ce7f3496e2e73c4d42b75d702e60d9e48102720b8691234415963a5a857b86425d0781565b3480156103fd57600080fd5b506101ce60045481565b60006001600160e01b03198216637965db0b60e01b148061043857506301ffc9a760e01b6001600160e01b03198316145b92915050565b60008281526020819052604090206001015461045981610a61565b6104638383610a6e565b50505050565b6104a66040518060a0016040528060006001600160a01b031681526020016000815260200160608152602001600081526020016000151581525090565b600082815260026020818152604092839020835160a08101855281546001600160a01b03168152600182015492810192909252918201805491938401916104ec90610e78565b80601f016020809104026020016040519081016040528092919081815260200182805461051890610e78565b80156105655780601f1061053a57610100808354040283529160200191610565565b820191906000526020600020905b81548152906001019060200180831161054857829003601f168201915b50505091835250506003820154602082015260049091015460ff16151560409091015292915050565b6001600160a01b03811633146105b75760405163334bd91960e11b815260040160405180910390fd5b6105c18282610b00565b505050565b60026020819052600091825260409091208054600182015492820180546001600160a01b039092169392916105fa90610e78565b80601f016020809104026020016040519081016040528092919081815260200182805461062690610e78565b80156106735780601f1061064857610100808354040283529160200191610673565b820191906000526020600020905b81548152906001019060200180831161065657829003601f168201915b50505050600383015460049093015491929160ff16905085565b6000918252602082815260408084206001600160a01b0393909316845291905290205460ff1690565b60006106c181610a61565b6106c9610b6b565b6001600160a01b0383166107165760405162461bcd60e51b815260206004820152600f60248201526e496e76616c6964206164647265737360881b60448201526064015b60405180910390fd5b4782111561075d5760405162461bcd60e51b8152602060048201526014602482015273496e73756666696369656e742062616c616e636560601b604482015260640161070d565b6040516001600160a01b0384169083156108fc029084906000818181858888f19350505050158015610793573d6000803e3d6000fd5b50826001600160a01b03167f23d6711a1d031134a36921253c75aa59e967d38e369ac625992824315e204f20836040516107cf91815260200190565b60405180910390a26105c160018055565b60007fd8aa0f3194971a2a116679f7c2090f6939c8d4e01a2a8d7e41d55e5351469e6361080c81610a61565b610814610b6b565b6001600160a01b03851661085e5760405162461bcd60e51b8152602060048201526011602482015270125b9d985b1a59081c9958da5c1a595b9d607a1b604482015260640161070d565b6000841161089f5760405162461bcd60e51b815260206004820152600e60248201526d125b9d985b1a5908185b5bdd5b9d60921b604482015260640161070d565b834710156108e45760405162461bcd60e51b8152602060048201526012602482015271496e73756666696369656e742066756e647360701b604482015260640161070d565b60038054600091826108f583610eb2565b909155506040805160a0810182526001600160a01b03898116825260208083018a81528385018a8152426060860152600160808601819052600088815260029485905296909620855181546001600160a01b03191695169490941784559051948301949094559251939450909290918201906109719082610f19565b50606082015160038201556080909101516004918201805460ff191691151591909117905580548691906000906109a9908490610be8565b90915550506040516001600160a01b0387169086156108fc029087906000818181858888f193505050501580156109e4573d6000803e3d6000fd5b50856001600160a01b0316817f7f5bfe3018715b26a7067888a5c42912fbb3485170b8154ea9a448661f2f0de287604051610a2191815260200190565b60405180910390a39150610a3460018055565b509392505050565b600082815260208190526040902060010154610a5781610a61565b6104638383610b00565b610a6b8133610b95565b50565b6000610a7a838361068d565b610af8576000838152602081815260408083206001600160a01b03861684529091529020805460ff19166001179055610ab03390565b6001600160a01b0316826001600160a01b0316847f2f8788117e7eff1d82e926ec794901d17c78024a50270940304540a733656f0d60405160405180910390a4506001610438565b506000610438565b6000610b0c838361068d565b15610af8576000838152602081815260408083206001600160a01b0386168085529252808320805460ff1916905551339286917ff6391f5c32d9c69d2a47ea670b442974b53935d1edc7fd64eb21e047a839171b9190a4506001610438565b600260015403610b8e57604051633ee5aeb560e01b815260040160405180910390fd5b6002600155565b610b9f828261068d565b610bce5760405163e2517d3f60e01b81526001600160a01b03821660048201526024810183905260440161070d565b5050565b634e487b7160e01b600052601160045260246000fd5b8082018082111561043857610438610bd2565b600060208284031215610c0d57600080fd5b81356001600160e01b031981168114610c2557600080fd5b9392505050565b600060208284031215610c3e57600080fd5b5035919050565b80356001600160a01b0381168114610c5c57600080fd5b919050565b60008060408385031215610c7457600080fd5b82359150610c8460208401610c45565b90509250929050565b6000815180845260005b81811015610cb357602081850181015186830182015201610c97565b506000602082860101526020601f19601f83011685010191505092915050565b6020815260018060a01b038251166020820152602082015160408201526000604083015160a06060840152610d0b60c0840182610c8d565b9050606084015160808401526080840151151560a08401528091505092915050565b60018060a01b038616815284602082015260a060408201526000610d5460a0830186610c8d565b6060830194909452509015156080909101529392505050565b60008060408385031215610d8057600080fd5b610d8983610c45565b946020939093013593505050565b634e487b7160e01b600052604160045260246000fd5b600080600060608486031215610dc257600080fd5b610dcb84610c45565b925060208401359150604084013567ffffffffffffffff80821115610def57600080fd5b818601915086601f830112610e0357600080fd5b813581811115610e1557610e15610d97565b604051601f8201601f19908116603f01168101908382118183101715610e3d57610e3d610d97565b81604052828152896020848701011115610e5657600080fd5b8260208601602083013760006020848301015280955050505050509250925092565b600181811c90821680610e8c57607f821691505b602082108103610eac57634e487b7160e01b600052602260045260246000fd5b50919050565b600060018201610ec457610ec4610bd2565b5060010190565b601f8211156105c157600081815260208120601f850160051c81016020861015610ef25750805b601f850160051c820191505b81811015610f1157828155600101610efe565b505050505050565b815167ffffffffffffffff811115610f3357610f33610d97565b610f4781610f418454610e78565b84610ecb565b602080601f831160018114610f7c5760008415610f645750858301515b600019600386901b1c1916600185901b178555610f11565b600085815260208120601f198616915b82811015610fab57888601518255948401946001909101908401610f8c565b5085821015610fc95787850151600019600388901b60f8161c191681555b5050505050600190811b0190555056fea26469706673582212200f2757f7e3879bad6db1ecb5e70787be77cab07b7818bc39d1c2a8fa666f76ba64736f6c63430008140033",
  "linkReferences": {},
  "deployedLinkReferences": {}
}