{
  "_format": "hh-sol-artifact-1",
  "contractName": "DAOTreasury",
  "sourceName": "contracts/dao/DAOTreasury.sol",
  "abi": [
    {
      "inputs": [],
      "stateMutability": "nonpayable",
      "type": "constructor"
    },
    {
      "inputs": [],
      "name": "AccessControlBadConfirmation",
      "type": "error"
    },
    {
      "inputs": [
        {
          "internalType": "address",
          "name": "account",
          "type": "address"
        },
        {
          "internalType": "bytes32",
          "name": "neededRole",
          "type": "bytes32"
        }
      ],
      "name": "AccessControlUnauthorizedAccount",
      "type": "error"
    },
    {
      "inputs": [],
      "name": "ReentrancyGuardReentrantCall",
      "type": "error"
    },
    {
      "anonymous": false,
      "inputs": [
        {
          "indexed": true,
          "internalType": "address",
          "name": "to",
          "type": "address"
        },
        {
          "indexed": false,
          "internalType": "uint256",
          "name": "amount",
          "type": "uint256"
        }
      ],
      "name": "EmergencyWithdrawal",
      "type": "event"
    },
    {
      "anonymous": false,
      "inputs": [
        {
          "indexed": true,
          "internalType": "address",
          "name": "from",
          "type": "address"
        },
        {
          "indexed": false,
          "internalType": "uint256",
          "name": "amount",
          "type": "uint256"
        }
      ],
      "name": "FundsReceived",
      "type": "event"
    },
    {
      "anonymous": false,
      "inputs": [
        {
          "indexed": true,
          "internalType": "uint256",
          "name": "paymentId",
          "type": "uint256"
        },
        {
          "indexed": true,
          "internalType": "address",
          "name": "recipient",
          "type": "address"
        },
        {
          "indexed": false,
          "internalType": "uint256",
          "name": "amount",
          "type": "uint256"
        }
      ],
      "name": "PaymentExecuted",
      "type": "event"
    },
    {
      "anonymous": false,
      "inputs": [
        {
          "indexed": true,
          "internalType": "bytes32",
          "name": "role",
          "type": "bytes32"
        },
        {
          "indexed": true,
          "internalType": "bytes32",
          "name": "previousAdminRole",
          "type": "bytes32"
        },
        {
          "indexed": true,
          "internalType": "bytes32",
          "name": "newAdminRole",
          "type": "bytes32"
        }
      ],
      "name": "RoleAdminChanged",
      "type": "event"
    },
    {
      "anonymous": false,
      "inputs": [
        {
          "indexed": true,
          "internalType": "bytes32",
          "name": "role",
          "type": "bytes32"
        },
        {
          "indexed": true,
          "internalType": "address",
          "name": "account",
          "type": "address"
        },
        {
          "indexed": true,
          "internalType": "address",
          "name": "sender",
          "type": "address"
        }
      ],
      "name": "RoleGranted",
      "type": "event"
    },
    {
      "anonymous": false,
      "inputs": [
        {
          "indexed": true,
          "internalType": "bytes32",
          "name": "role",
          "type": "bytes32"
        },
        {
          "indexed": true,
          "internalType": "address",
          "name": "account",
          "type": "address"
        },
        {
          "indexed": true,
          "internalType": "address",
          "name": "sender",
          "type": "address"
        }
      ],
      "name": "RoleRevoked",
      "type": "event"
    },
    {
      "anonymous": false,
      "inputs": [
        {
          "indexed": true,
          "internalType": "address",
          "name": "token",
          "type": "address"
        },
        {
          "indexed": true,
          "internalType": "address",
          "name": "to",
          "type": "address"
        },
        {
          "indexed": false,
          "internalType": "uint256",
          "name": "amount",
          "type": "uint256"
        }
      ],
      "name": "TokenWithdrawal",
      "type": "event"
    },
    {
      "anonymous": false,
      "inputs": [
        {
          "indexed": true,
          "internalType": "address",
          "name": "to",
          "type": "address"
        },
        {
          "indexed": false,
          "internalType": "uint256",
          "name": "amount",
          "type": "uint256"
        }
      ],
      "name": "Withdrawal",
      "type": "event"
    },
    {
      "inputs": [],
      "name": "DEFAULT_ADMIN_ROLE",
      "outputs": [
        {
          "internalType": "bytes32",
          "name": "",
          "type": "bytes32"
        }
      ],
      "stateMutability": "view",
      "type": "function"
    },
    {
      "inputs": [],
      "name": "EXECUTOR_ROLE",
      "outputs": [
        {
          "internalType": "bytes32",
          "name": "",
          "type": "bytes32"
        }
      ],
      "stateMutability": "view",
      "type": "function"
    },
    {
      "inputs": [],
      "name": "TREASURER_ROLE",
      "outputs": [
        {
          "internalType": "bytes32",
          "name": "",
          "type": "bytes32"
        }
      ],
      "stateMutability": "view",
      "type": "function"
    },
    {
      "inputs": [
        {
          "internalType": "address",
          "name": "to",
          "type": "address"
        },
        {
          "internalType": "uint256",
          "name": "amount",
          "type": "uint256"
        }
      ],
      "name": "emergencyWithdraw",
      "outputs": [],
      "stateMutability": "nonpayable",
      "type": "function"
    },
    {
      "inputs": [
        {
          "internalType": "address",
          "name": "recipient",
          "type": "address"
        },
        {
          "internalType": "uint256",
          "name": "amount",
          "type": "uint256"
        },
        {
          "internalType": "string",
          "name": "description",
          "type": "string"
        }
      ],
      "name": "executePayment",
      "outputs": [
        {
          "internalType": "uint256",
          "name": "",
          "type": "uint256"
        }
      ],
      "stateMutability": "nonpayable",
      "type": "function"
    },
    {
      "inputs": [],
      "name": "getBalance",
      "outputs": [
        {
          "internalType": "uint256",
          "name": "",
          "type": "uint256"
        }
      ],
      "stateMutability": "view",
      "type": "function"
    },
    {
      "inputs": [
        {
          "internalType": "uint256",
          "name": "paymentId",
          "type": "uint256"
        }
      ],
      "name": "getPayment",
      "outputs": [
        {
          "components": [
            {
              "internalType": "address",
              "name": "recipient",
              "type": "address"
            },
            {
              "internalType": "uint256",
              "name": "amount",
              "type": "uint256"
            },
            {
              "internalType": "string",
              "name": "description",
              "type": "string"
            },
            {
              "internalType": "uint256",
              "name": "executedAt",
              "type": "uint256"
            },
            {
              "internalType": "bool",
              "name": "completed",
              "type": "bool"
            }
          ],
          "internalType": "struct DAOTreasury.Payment",
          "name": "",
          "type": "tuple"
        }
      ],
      "stateMutability": "view",
      "type": "function"
    },
    {
      "inputs": [
        {
          "internalType": "bytes32",
          "name": "role",
          "type": "bytes32"
        }
      ],
      "name": "getRoleAdmin",
      "outputs": [
        {
          "internalType": "bytes32",
          "name": "",
          "type": "bytes32"
        }
      ],
      "stateMutability": "view",
      "type": "function"
    },
    {
      "inputs": [],
      "name": "getTreasuryStats",
      "outputs": [
        {
          "internalType": "uint256",
          "name": "balance",
          "type": "uint256"
        },
        {
          "internalType": "uint256",
          "name": "spent",
          "type": "uint256"
        },
        {
          "internalType": "uint256",
          "name": "received",
          "type": "uint256"
        },
        {
          "internalType": "uint256",
          "name": "paymentsCount",
          "type": "uint256"
        }
      ],
      "stateMutability": "view",
      "type": "function"
    },
    {
      "inputs": [
        {
          "internalType": "bytes32",
          "name": "role",
          "type": "bytes32"
        },
        {
          "internalType": "address",
          "name": "account",
          "type": "address"
        }
      ],
      "name": "grantRole",
      "outputs": [],
      "stateMutability": "nonpayable",
      "type": "function"
    },
    {
      "inputs": [
        {
          "internalType": "bytes32",
          "name": "role",
          "type": "bytes32"
        },
        {
          "internalType": "address",
          "name": "account",
          "type": "address"
        }
      ],
      "name": "hasRole",
      "outputs": [
        {
          "internalType": "bool",
          "name": "",
          "type": "bool"
        }
      ],
      "stateMutability": "view",
      "type": "function"
    },
    {
      "inputs": [],
      "name": "paymentCount",
      "outputs": [
        {
          "internalType": "uint256",
          "name": "",
          "type": "uint256"
        }
      ],
      "stateMutability": "view",
      "type": "function"
    },
    {
      "inputs": [
        {
          "internalType": "uint256",
          "name": "",
          "type": "uint256"
        }
      ],
      "name": "payments",
      "outputs": [
        {
          "internalType": "address",
          "name": "recipient",
          "type": "address"
        },
        {
          "internalType": "uint256",
          "name": "amount",
          "type": "uint256"
        },
        {
          "internalType": "string",
          "name": "description",
          "type": "string"
        },
        {
          "internalType": "uint256",
          "name": "executedAt",
          "type": "uint256"
        },
        {
          "internalType": "bool",
          "name": "completed",
          "type": "bool"
        }
      ],
      "stateMutability": "view",
      "type": "function"
    },
    {
      "inputs": [
        {
          "internalType": "bytes32",
          "name": "role",
          "type": "bytes32"
        },
        {
          "internalType": "address",
          "name": "callerConfirmation",
          "type": "address"
        }
      ],
      "name": "renounceRole",
      "outputs": [],
      "stateMutability": "nonpayable",
      "type": "function"
    },
    {
      "inputs": [
        {
          "internalType": "bytes32",
          "name": "role",
          "type": "bytes32"
        },
        {
          "internalType": "address",
          "name": "account",
          "type": "address"
        }
      ],
      "name": "revokeRole",
      "outputs": [],
      "stateMutability": "nonpayable",
      "type": "function"
    },
    {
      "inputs": [
        {
          "internalType": "bytes4",
          "name": "interfaceId",
          "type": "bytes4"
        }
      ],
      "name": "supportsInterface",
      "outputs": [
        {
          "internalType": "bool",
          "name": "",
          "type": "bool"
        }
      ],
      "stateMutability": "view",
      "type": "function"
    },
    {
      "inputs": [],
      "name": "totalReceived",
      "outputs": [
        {
          "internalType": "uint256",
          "name": "",
          "type": "uint256"
        }
      ],
      "stateMutability": "view",
      "type": "function"
    },
    {
      "inputs": [],
      "name": "totalSpent",
      "outputs": [
        {
          "internalType": "uint256",
          "name": "",
          "type": "uint256"
        }
      ],
      "stateMutability": "view",
      "type": "function"
    },
    {
      "inputs": [
        {
          "internalType": "address",
          "name": "to",
          "type": "address"
        },
        {
          "internalType": "uint256",
          "name": "amount",
          "type": "uint256"
        }
      ],
      "name": "withdraw",
      "outputs": [],
      "stateMutability": "nonpayable",
      "type": "function"
    },
    {
      "inputs": [
        {
          "internalType": "address",
          "name": "token",
          "type": "address"
        },
        {
          "internalType": "address",
          "name": "to",
          "type": "address"
        },
        {
          "internalType": "uint256",
          "name": "amount",
          "type": "uint256"
        }
      ],
      "name": "withdrawToken",
      "outputs": [],
      "stateMutability": "nonpayable",
      "type": "function"
    },
    {
      "stateMutability": "payable",
      "type": "receive"
    }
  ],
  "bytecode": "0x608060405234801561001057600080fd5b506001805561002060003361007c565b5061004b7fd8aa0f3194971a2a116679f7c2090f6939c8d4e01a2a8d7e41d55e5351469e633361007c565b506100767f3496e2e73c4d42b75d702e60d9e48102720b8691234415963a5a857b86425d073361007c565b50610128565b6000828152602081815260408083206001600160a01b038516845290915281205460ff1661011e576000838152602081815260408083206001600160a01b03861684529091529020805460ff191660011790556100d63390565b6001600160a01b0316826001600160a01b0316847f2f8788117e7eff1d82e926ec794901d17c78024a50270940304540a733656f0d60405160405180910390a4506001610122565b5060005b92915050565b6113e080620001386000396000f3fe6080604052600436106101235760003560e01c806391d14854116100a0578063c8692e3f11610064578063c8692e3f14610396578063d547741f146103d3578063f0a3a97c146103f3578063f3fef3a314610427578063fb346eab1461044757600080fd5b806391d148541461030b57806395ccea671461032b578063a217fddf1461034b578063a3c2c46214610360578063b185404f1461037657600080fd5b8063248a9ca3116100e7578063248a9ca31461023d5780632f2ff15d1461026d5780633280a8361461028d57806336568abe146102ba57806387d81789146102da57600080fd5b806301e336671461017b57806301ffc9a71461019d57806307bd0265146101d25780630937e68a1461021457806312065fe01461022a57600080fd5b3661017657346005600082825461013a9190610f33565b909155505060405134815233907f8e47b87b0ef542cdfa1659c551d88bad38aa7f452d2bbb349ab7530dfec8be8f9060200160405180910390a2005b600080fd5b34801561018757600080fd5b5061019b610196366004610f62565b61045d565b005b3480156101a957600080fd5b506101bd6101b8366004610f9e565b610614565b60405190151581526020015b60405180910390f35b3480156101de57600080fd5b506102067fd8aa0f3194971a2a116679f7c2090f6939c8d4e01a2a8d7e41d55e5351469e6381565b6040519081526020016101c9565b34801561022057600080fd5b5061020660035481565b34801561023657600080fd5b5047610206565b34801561024957600080fd5b50610206610258366004610fcf565b60009081526020819052604090206001015490565b34801561027957600080fd5b5061019b610288366004610fe8565b61064b565b34801561029957600080fd5b506102ad6102a8366004610fcf565b610670565b6040516101c9919061105a565b3480156102c657600080fd5b5061019b6102d5366004610fe8565b610795565b3480156102e657600080fd5b506102fa6102f5366004610fcf565b6107cd565b6040516101c99594939291906110b4565b34801561031757600080fd5b506101bd610326366004610fe8565b610894565b34801561033757600080fd5b5061019b6103463660046110f4565b6108bd565b34801561035757600080fd5b50610206600081565b34801561036c57600080fd5b5061020660055481565b34801561038257600080fd5b50610206610391366004611134565b6109e2565b3480156103a257600080fd5b506103b36004546005546003544793565b6040805194855260208501939093529183015260608201526080016101c9565b3480156103df57600080fd5b5061019b6103ee366004610fe8565b610c1d565b3480156103ff57600080fd5b506102067f3496e2e73c4d42b75d702e60d9e48102720b8691234415963a5a857b86425d0781565b34801561043357600080fd5b5061019b6104423660046110f4565b610c42565b34801561045357600080fd5b5061020660045481565b7f3496e2e73c4d42b75d702e60d9e48102720b8691234415963a5a857b86425d0761048781610dac565b61048f610db9565b6001600160a01b0384166104da5760405162461bcd60e51b815260206004820152600d60248201526c24b73b30b634b2103a37b5b2b760991b60448201526064015b60405180910390fd5b6001600160a01b0383166105245760405162461bcd60e51b8152602060048201526011602482015270125b9d985b1a59081c9958da5c1a595b9d607a1b60448201526064016104d1565b600082116105445760405162461bcd60e51b81526004016104d1906111ff565b60405163a9059cbb60e01b81526001600160a01b0384811660048301526024820184905285169063a9059cbb906044016020604051808303816000875af1158015610593573d6000803e3d6000fd5b505050506040513d601f19601f820116820180604052508101906105b79190611227565b50826001600160a01b0316846001600160a01b03167f42856d0378dde02337bb59ae41747abc77ded8ebdbbc5cbdd1e53693b7554938846040516105fd91815260200190565b60405180910390a361060e60018055565b50505050565b60006001600160e01b03198216637965db0b60e01b148061064557506301ffc9a760e01b6001600160e01b03198316145b92915050565b60008281526020819052604090206001015461066681610dac565b61060e8383610de3565b6106ad6040518060a0016040528060006001600160a01b031681526020016000815260200160608152602001600081526020016000151581525090565b600082815260026020818152604092839020835160a08101855281546001600160a01b03168152600182015492810192909252918201805491938401916106f390611249565b80601f016020809104026020016040519081016040528092919081815260200182805461071f90611249565b801561076c5780601f106107415761010080835404028352916020019161076c565b820191906000526020600020905b81548152906001019060200180831161074f57829003601f168201915b50505091835250506003820154602082015260049091015460ff16151560409091015292915050565b6001600160a01b03811633146107be5760405163334bd91960e11b815260040160405180910390fd5b6107c88282610e75565b505050565b60026020819052600091825260409091208054600182015492820180546001600160a01b0390921693929161080190611249565b80601f016020809104026020016040519081016040528092919081815260200182805461082d90611249565b801561087a5780601f1061084f5761010080835404028352916020019161087a565b820191906000526020600020905b81548152906001019060200180831161085d57829003601f168201915b50505050600383015460049093015491929160ff16905085565b6000918252602082815260408084206001600160a01b0393909316845291905290205460ff1690565b60006108c881610dac565b6108d0610db9565b6001600160a01b0383166109185760405162461bcd60e51b815260206004820152600f60248201526e496e76616c6964206164647265737360881b60448201526064016104d1565b4782111561095f5760405162461bcd60e51b8152602060048201526014602482015273496e73756666696369656e742062616c616e636560601b60448201526064016104d1565b6040516001600160a01b0384169083156108fc029084906000818181858888f19350505050158015610995573d6000803e3d6000fd5b50826001600160a01b03167f23d6711a1d031134a36921253c75aa59e967d38e369ac625992824315e204f20836040516109d191815260200190565b60405180910390a26107c860018055565b60007fd8aa0f3194971a2a116679f7c2090f6939c8d4e01a2a8d7e41d55e5351469e63610a0e81610dac565b610a16610db9565b6001600160a01b038516610a605760405162461bcd60e51b8152602060048201526011602482015270125b9d985b1a59081c9958da5c1a595b9d607a1b60448201526064016104d1565b60008411610a805760405162461bcd60e51b81526004016104d1906111ff565b83471015610ac55760405162461bcd60e51b8152602060048201526012602482015271496e73756666696369656e742066756e647360701b60448201526064016104d1565b6003805460009182610ad683611283565b909155506040805160a0810182526001600160a01b03898116825260208083018a81528385018a8152426060860152600160808601819052600088815260029485905296909620855181546001600160a01b0319169516949094178455905194830194909455925193945090929091820190610b5290826112ea565b50606082015160038201556080909101516004918201805460ff19169115159190911790558054869190600090610b8a908490610f33565b90915550506040516001600160a01b0387169086156108fc029087906000818181858888f19350505050158015610bc5573d6000803e3d6000fd5b50856001600160a01b0316817f7f5bfe3018715b26a7067888a5c42912fbb3485170b8154ea9a448661f2f0de287604051610c0291815260200190565b60405180910390a39150610c1560018055565b509392505050565b600082815260208190526040902060010154610c3881610dac565b61060e8383610e75565b7f3496e2e73c4d42b75d702e60d9e48102720b8691234415963a5a857b86425d07610c6c81610dac565b610c74610db9565b6001600160a01b038316610cbc5760405162461bcd60e51b815260206004820152600f60248201526e496e76616c6964206164647265737360881b60448201526064016104d1565b60008211610cdc5760405162461bcd60e51b81526004016104d1906111ff565b47821115610d235760405162461bcd60e51b8152602060048201526014602482015273496e73756666696369656e742062616c616e636560601b60448201526064016104d1565b8160046000828254610d359190610f33565b90915550506040516001600160a01b0384169083156108fc029084906000818181858888f19350505050158015610d70573d6000803e3d6000fd5b50826001600160a01b03167f7fcf532c15f0a6db0bd6d0e038bea71d30d808c7d98cb3bf7268a95bf5081b65836040516109d191815260200190565b610db68133610ee0565b50565b600260015403610ddc57604051633ee5aeb560e01b815260040160405180910390fd5b6002600155565b6000610def8383610894565b610e6d576000838152602081815260408083206001600160a01b03861684529091529020805460ff19166001179055610e253390565b6001600160a01b0316826001600160a01b0316847f2f8788117e7eff1d82e926ec794901d17c78024a50270940304540a733656f0d60405160405180910390a4506001610645565b506000610645565b6000610e818383610894565b15610e6d576000838152602081815260408083206001600160a01b0386168085529252808320805460ff1916905551339286917ff6391f5c32d9c69d2a47ea670b442974b53935d1edc7fd64eb21e047a839171b9190a4506001610645565b610eea8282610894565b610f195760405163e2517d3f60e01b81526001600160a01b0382166004820152602481018390526044016104d1565b5050565b634e487b7160e01b600052601160045260246000fd5b8082018082111561064557610645610f1d565b80356001600160a01b0381168114610f5d57600080fd5b919050565b600080600060608486031215610f7757600080fd5b610f8084610f46565b9250610f8e60208501610f46565b9150604084013590509250925092565b600060208284031215610fb057600080fd5b81356001600160e01b031981168114610fc857600080fd5b9392505050565b600060208284031215610fe157600080fd5b5035919050565b60008060408385031215610ffb57600080fd5b8235915061100b60208401610f46565b90509250929050565b6000815180845260005b8181101561103a5760208185018101518683018201520161101e565b506000602082860101526020601f19601f83011685010191505092915050565b6020815260018060a01b038251166020820152602082015160408201526000604083015160a0606084015261109260c0840182611014565b9050606084015160808401526080840151151560a08401528091505092915050565b60018060a01b038616815284602082015260a0604082015260006110db60a0830186611014565b6060830194909452509015156080909101529392505050565b6000806040838503121561110757600080fd5b61111083610f46565b946020939093013593505050565b634e487b7160e01b600052604160045260246000fd5b60008060006060848603121561114957600080fd5b61115284610f46565b925060208401359150604084013567ffffffffffffffff8082111561117657600080fd5b818601915086601f83011261118a57600080fd5b81358181111561119c5761119c61111e565b604051601f8201601f19908116603f011681019083821181831017156111c4576111c461111e565b816040528281528960208487010111156111dd57600080fd5b8260208601602083013760006020848301015280955050505050509250925092565b6020808252600e908201526d125b9d985b1a5908185b5bdd5b9d60921b604082015260600190565b60006020828403121561123957600080fd5b81518015158114610fc857600080fd5b600181811c9082168061125d57607f821691505b60208210810361127d57634e487b7160e01b600052602260045260246000fd5b50919050565b60006001820161129557611295610f1d565b5060010190565b601f8211156107c857600081815260208120601f850160051c810160208610156112c35750805b601f850160051c820191505b818110156112e2578281556001016112cf565b505050505050565b815167ffffffffffffffff8111156113045761130461111e565b611318816113128454611249565b8461129c565b602080601f83116001811461134d57600084156113355750858301515b600019600386901b1c1916600185901b1785556112e2565b600085815260208120601f198616915b8281101561137c5788860151825594840194600190910190840161135d565b508582101561139a5787850151600019600388901b60f8161c191681555b5050505050600190811b0190555056fea26469706673582212204937d4982a5dc718aaf627026925fd069d1fbb45287feb1c720c0682a91abc2064736f6c63430008140033",
  "linkReferences": {},
  "deployedLinkReferences": {}
}