{
  "_format": "hh-sol-artifact-1",
  "contractName": "ToolRating",
  "sourceName": "contracts/layer6/tools/ToolRating.sol",
  "abi": [
    {
      "inputs": [],
      "stateMutability": "nonpayable",
      "type": "constructor"
    },
    {
      "inputs": [],
      "name": "AccessControlBadConfirmation",
      "type": "error"
    },
    {
      "inputs": [
        {
          "internalType": "address",
          "name": "account",
          "type": "address"
        },
        {
          "internalType": "bytes32",
          "name": "neededRole",
          "type": "bytes32"
        }
      ],
      "name": "AccessControlUnauthorizedAccount",
      "type": "error"
    },
    {
      "anonymous": false,
      "inputs": [
        {
          "indexed": true,
          "internalType": "uint256",
          "name": "reviewId",
          "type": "uint256"
        },
        {
          "indexed": true,
          "internalType": "address",
          "name": "reporter",
          "type": "address"
        }
      ],
      "name": "ReviewFlagged",
      "type": "event"
    },
    {
      "anonymous": false,
      "inputs": [
        {
          "indexed": true,
          "internalType": "uint256",
          "name": "reviewId",
          "type": "uint256"
        },
        {
          "indexed": false,
          "internalType": "string",
          "name": "reason",
          "type": "string"
        }
      ],
      "name": "ReviewHidden",
      "type": "event"
    },
    {
      "anonymous": false,
      "inputs": [
        {
          "indexed": true,
          "internalType": "uint256",
          "name": "reviewId",
          "type": "uint256"
        },
        {
          "indexed": true,
          "internalType": "uint256",
          "name": "toolId",
          "type": "uint256"
        },
        {
          "indexed": true,
          "internalType": "address",
          "name": "reviewer",
          "type": "address"
        },
        {
          "indexed": false,
          "internalType": "uint256",
          "name": "rating",
          "type": "uint256"
        }
      ],
      "name": "ReviewSubmitted",
      "type": "event"
    },
    {
      "anonymous": false,
      "inputs": [
        {
          "indexed": true,
          "internalType": "uint256",
          "name": "reviewId",
          "type": "uint256"
        },
        {
          "indexed": true,
          "internalType": "address",
          "name": "voter",
          "type": "address"
        },
        {
          "indexed": false,
          "internalType": "bool",
          "name": "helpful",
          "type": "bool"
        }
      ],
      "name": "ReviewVoted",
      "type": "event"
    },
    {
      "anonymous": false,
      "inputs": [
        {
          "indexed": true,
          "internalType": "bytes32",
          "name": "role",
          "type": "bytes32"
        },
        {
          "indexed": true,
          "internalType": "bytes32",
          "name": "previousAdminRole",
          "type": "bytes32"
        },
        {
          "indexed": true,
          "internalType": "bytes32",
          "name": "newAdminRole",
          "type": "bytes32"
        }
      ],
      "name": "RoleAdminChanged",
      "type": "event"
    },
    {
      "anonymous": false,
      "inputs": [
        {
          "indexed": true,
          "internalType": "bytes32",
          "name": "role",
          "type": "bytes32"
        },
        {
          "indexed": true,
          "internalType": "address",
          "name": "account",
          "type": "address"
        },
        {
          "indexed": true,
          "internalType": "address",
          "name": "sender",
          "type": "address"
        }
      ],
      "name": "RoleGranted",
      "type": "event"
    },
    {
      "anonymous": false,
      "inputs": [
        {
          "indexed": true,
          "internalType": "bytes32",
          "name": "role",
          "type": "bytes32"
        },
        {
          "indexed": true,
          "internalType": "address",
          "name": "account",
          "type": "address"
        },
        {
          "indexed": true,
          "internalType": "address",
          "name": "sender",
          "type": "address"
        }
      ],
      "name": "RoleRevoked",
      "type": "event"
    },
    {
      "inputs": [],
      "name": "DEFAULT_ADMIN_ROLE",
      "outputs": [
        {
          "internalType": "bytes32",
          "name": "",
          "type": "bytes32"
        }
      ],
      "stateMutability": "view",
      "type": "function"
    },
    {
      "inputs": [],
      "name": "MODERATOR_ROLE",
      "outputs": [
        {
          "internalType": "bytes32",
          "name": "",
          "type": "bytes32"
        }
      ],
      "stateMutability": "view",
      "type": "function"
    },
    {
      "inputs": [
        {
          "internalType": "uint256",
          "name": "reviewId",
          "type": "uint256"
        }
      ],
      "name": "flagReview",
      "outputs": [],
      "stateMutability": "nonpayable",
      "type": "function"
    },
    {
      "inputs": [
        {
          "internalType": "address",
          "name": "reviewer",
          "type": "address"
        }
      ],
      "name": "getReviewerHistory",
      "outputs": [
        {
          "internalType": "uint256[]",
          "name": "",
          "type": "uint256[]"
        }
      ],
      "stateMutability": "view",
      "type": "function"
    },
    {
      "inputs": [
        {
          "internalType": "bytes32",
          "name": "role",
          "type": "bytes32"
        }
      ],
      "name": "getRoleAdmin",
      "outputs": [
        {
          "internalType": "bytes32",
          "name": "",
          "type": "bytes32"
        }
      ],
      "stateMutability": "view",
      "type": "function"
    },
    {
      "inputs": [
        {
          "internalType": "uint256",
          "name": "toolId",
          "type": "uint256"
        }
      ],
      "name": "getToolReviews",
      "outputs": [
        {
          "internalType": "uint256[]",
          "name": "",
          "type": "uint256[]"
        }
      ],
      "stateMutability": "view",
      "type": "function"
    },
    {
      "inputs": [
        {
          "internalType": "bytes32",
          "name": "role",
          "type": "bytes32"
        },
        {
          "internalType": "address",
          "name": "account",
          "type": "address"
        }
      ],
      "name": "grantRole",
      "outputs": [],
      "stateMutability": "nonpayable",
      "type": "function"
    },
    {
      "inputs": [
        {
          "internalType": "address",
          "name": "",
          "type": "address"
        },
        {
          "internalType": "uint256",
          "name": "",
          "type": "uint256"
        }
      ],
      "name": "hasReviewed",
      "outputs": [
        {
          "internalType": "bool",
          "name": "",
          "type": "bool"
        }
      ],
      "stateMutability": "view",
      "type": "function"
    },
    {
      "inputs": [
        {
          "internalType": "bytes32",
          "name": "role",
          "type": "bytes32"
        },
        {
          "internalType": "address",
          "name": "account",
          "type": "address"
        }
      ],
      "name": "hasRole",
      "outputs": [
        {
          "internalType": "bool",
          "name": "",
          "type": "bool"
        }
      ],
      "stateMutability": "view",
      "type": "function"
    },
    {
      "inputs": [
        {
          "internalType": "address",
          "name": "",
          "type": "address"
        },
        {
          "internalType": "uint256",
          "name": "",
          "type": "uint256"
        }
      ],
      "name": "hasVoted",
      "outputs": [
        {
          "internalType": "bool",
          "name": "",
          "type": "bool"
        }
      ],
      "stateMutability": "view",
      "type": "function"
    },
    {
      "inputs": [
        {
          "internalType": "uint256",
          "name": "reviewId",
          "type": "uint256"
        },
        {
          "internalType": "string",
          "name": "reason",
          "type": "string"
        }
      ],
      "name": "hideReview",
      "outputs": [],
      "stateMutability": "nonpayable",
      "type": "function"
    },
    {
      "inputs": [
        {
          "internalType": "address",
          "name": "user",
          "type": "address"
        },
        {
          "internalType": "uint256",
          "name": "toolId",
          "type": "uint256"
        }
      ],
      "name": "markVerifiedPurchase",
      "outputs": [],
      "stateMutability": "nonpayable",
      "type": "function"
    },
    {
      "inputs": [
        {
          "internalType": "bytes32",
          "name": "role",
          "type": "bytes32"
        },
        {
          "internalType": "address",
          "name": "callerConfirmation",
          "type": "address"
        }
      ],
      "name": "renounceRole",
      "outputs": [],
      "stateMutability": "nonpayable",
      "type": "function"
    },
    {
      "inputs": [
        {
          "internalType": "address",
          "name": "",
          "type": "address"
        },
        {
          "internalType": "uint256",
          "name": "",
          "type": "uint256"
        }
      ],
      "name": "reviewerHistory",
      "outputs": [
        {
          "internalType": "uint256",
          "name": "",
          "type": "uint256"
        }
      ],
      "stateMutability": "view",
      "type": "function"
    },
    {
      "inputs": [
        {
          "internalType": "uint256",
          "name": "",
          "type": "uint256"
        }
      ],
      "name": "reviews",
      "outputs": [
        {
          "internalType": "uint256",
          "name": "reviewId",
          "type": "uint256"
        },
        {
          "internalType": "uint256",
          "name": "toolId",
          "type": "uint256"
        },
        {
          "internalType": "address",
          "name": "reviewer",
          "type": "address"
        },
        {
          "internalType": "uint256",
          "name": "rating",
          "type": "uint256"
        },
        {
          "internalType": "string",
          "name": "title",
          "type": "string"
        },
        {
          "internalType": "string",
          "name": "content",
          "type": "string"
        },
        {
          "internalType": "uint256",
          "name": "timestamp",
          "type": "uint256"
        },
        {
          "internalType": "uint256",
          "name": "helpfulVotes",
          "type": "uint256"
        },
        {
          "internalType": "uint256",
          "name": "notHelpfulVotes",
          "type": "uint256"
        },
        {
          "internalType": "bool",
          "name": "isVerifiedPurchase",
          "type": "bool"
        },
        {
          "internalType": "bool",
          "name": "isFlagged",
          "type": "bool"
        },
        {
          "internalType": "bool",
          "name": "isHidden",
          "type": "bool"
        }
      ],
      "stateMutability": "view",
      "type": "function"
    },
    {
      "inputs": [
        {
          "internalType": "bytes32",
          "name": "role",
          "type": "bytes32"
        },
        {
          "internalType": "address",
          "name": "account",
          "type": "address"
        }
      ],
      "name": "revokeRole",
      "outputs": [],
      "stateMutability": "nonpayable",
      "type": "function"
    },
    {
      "inputs": [
        {
          "internalType": "uint256",
          "name": "toolId",
          "type": "uint256"
        },
        {
          "internalType": "uint256",
          "name": "rating",
          "type": "uint256"
        },
        {
          "internalType": "string",
          "name": "title",
          "type": "string"
        },
        {
          "internalType": "string",
          "name": "content",
          "type": "string"
        }
      ],
      "name": "submitReview",
      "outputs": [
        {
          "internalType": "uint256",
          "name": "",
          "type": "uint256"
        }
      ],
      "stateMutability": "nonpayable",
      "type": "function"
    },
    {
      "inputs": [
        {
          "internalType": "bytes4",
          "name": "i",
          "type": "bytes4"
        }
      ],
      "name": "supportsInterface",
      "outputs": [
        {
          "internalType": "bool",
          "name": "",
          "type": "bool"
        }
      ],
      "stateMutability": "view",
      "type": "function"
    },
    {
      "inputs": [
        {
          "internalType": "uint256",
          "name": "",
          "type": "uint256"
        },
        {
          "internalType": "uint256",
          "name": "",
          "type": "uint256"
        }
      ],
      "name": "toolReviews",
      "outputs": [
        {
          "internalType": "uint256",
          "name": "",
          "type": "uint256"
        }
      ],
      "stateMutability": "view",
      "type": "function"
    },
    {
      "inputs": [
        {
          "internalType": "uint256",
          "name": "",
          "type": "uint256"
        }
      ],
      "name": "toolStats",
      "outputs": [
        {
          "internalType": "uint256",
          "name": "toolId",
          "type": "uint256"
        },
        {
          "internalType": "uint256",
          "name": "totalReviews",
          "type": "uint256"
        },
        {
          "internalType": "uint256",
          "name": "averageRating",
          "type": "uint256"
        },
        {
          "internalType": "uint256",
          "name": "fiveStars",
          "type": "uint256"
        },
        {
          "internalType": "uint256",
          "name": "fourStars",
          "type": "uint256"
        },
        {
          "internalType": "uint256",
          "name": "threeStars",
          "type": "uint256"
        },
        {
          "internalType": "uint256",
          "name": "twoStars",
          "type": "uint256"
        },
        {
          "internalType": "uint256",
          "name": "oneStar",
          "type": "uint256"
        },
        {
          "internalType": "uint256",
          "name": "totalHelpfulVotes",
          "type": "uint256"
        }
      ],
      "stateMutability": "view",
      "type": "function"
    },
    {
      "inputs": [],
      "name": "totalReviews",
      "outputs": [
        {
          "internalType": "uint256",
          "name": "",
          "type": "uint256"
        }
      ],
      "stateMutability": "view",
      "type": "function"
    },
    {
      "inputs": [
        {
          "internalType": "address",
          "name": "",
          "type": "address"
        },
        {
          "internalType": "uint256",
          "name": "",
          "type": "uint256"
        }
      ],
      "name": "verifiedPurchaser",
      "outputs": [
        {
          "internalType": "bool",
          "name": "",
          "type": "bool"
        }
      ],
      "stateMutability": "view",
      "type": "function"
    },
    {
      "inputs": [
        {
          "internalType": "uint256",
          "name": "reviewId",
          "type": "uint256"
        },
        {
          "internalType": "bool",
          "name": "helpful",
          "type": "bool"
        }
      ],
      "name": "voteHelpful",
      "outputs": [],
      "stateMutability": "nonpayable",
      "type": "function"
    }
  ],
  "bytecode": "0x60806040523461002d5761001233610032565b5061001c336100b1565b506040516118829081620001538239f35b600080fd5b6001600160a01b031660008181527fad3228b676f7d3cd4284a5443f17f1962b36e491b30a40b2405849e597ba5fb5602052604081205490919060ff166100ad57818052816020526040822081835260205260408220600160ff198254161790553391600080516020620019d58339815191528180a4600190565b5090565b6001600160a01b031660008181527ff179aafcc4ff8137fca1ef3b9ec4d165f87016ba123e7973fba770bc55e240e360205260408120549091907f71f3d55856e4058ed06ee057d79ada615f65cdf5f9ee88181b914225088f834f9060ff1661014d57808352826020526040832082845260205260408320600160ff19825416179055600080516020620019d5833981519152339380a4600190565b50509056fe608080604052600436101561001357600080fd5b60003560e01c90816301ffc9a714611322575080630c16e432146112e95780631ac3bc051461127f5780631c0238fc146111ca57806323a0ce5314611167578063248a9ca3146111385780632f2ff15d146110f9578063309578ff1461109f57806336568abe146110335780634254582514610fd957806361ade06714610f4457806366c1282d14610e52578063797669c914610e175780637a9d1b1214610db557806391d1485414610d5a578063a217fddf14610d3e578063b6dd071d14610ce4578063ce250c1614610c60578063cea603a61461045f578063d547741f1461041e578063df0a537214610231578063e2367890146102135763e83ddcea1461011c57600080fd5b3461020e57602060031936011261020e5760043560005260026020526040600020805460018201549160ff73ffffffffffffffffffffffffffffffffffffffff60028301541660038301549261017460048201611555565b936101d461018460058401611555565b6101c660068501549760078601549460096008880154970154976040519c8d9c8d5260208d015260408c015260608b01526101808060808c01528a01906115fc565b9088820360a08a01526115fc565b9460c087015260e08601526101008501528181161515610120850152818160081c16151561014085015260101c1615156101608301520390f35b600080fd5b3461020e57600060031936011261020e576020600954604051908152f35b3461020e57604060031936011261020e57600435602435908115159182810361020e573360005260209060078252604060002083600052825260ff604060002054166103c05782600052600282523373ffffffffffffffffffffffffffffffffffffffff600260406000200154161461036257907f3e92b80b10e08c7af873b630b9789e2185d397ebfd2ef852e410f7da08a21bf391336000526007825260406000208460005282526040600020600160ff19825416179055600014610345578260005260028152600760406000200161030b8154611804565b905582600052600281526001604060002001546000526003815260086040600020016103378154611804565b90555b6040519384523393a3005b60028152600860406000200161035b8154611804565b905561033a565b606482604051907f08c379a00000000000000000000000000000000000000000000000000000000082526004820152600c60248201527f4e6f2073656c662d766f746500000000000000000000000000000000000000006044820152fd5b606482604051907f08c379a00000000000000000000000000000000000000000000000000000000082526004820152600d60248201527f416c726561647920766f746564000000000000000000000000000000000000006044820152fd5b3461020e57604060031936011261020e5761045d60043561043d6114df565b908060005260006020526104586001604060002001546116cf565b611781565b005b3461020e57608060031936011261020e5760443567ffffffffffffffff811161020e57610490903690600401611465565b60643567ffffffffffffffff811161020e576104b0903690600401611465565b336000526006602052604060002060043560005260205260ff60406000205416610c02576001602435101580610bf5575b15610b9757815115610b3957600a815110610adb5733600052600660205260406000206004356000526020526040600020600160ff19825416179055610528600154611804565b9081600155336000526008602052604060002060043560005260205260ff604060002054169060405193610180850185811067ffffffffffffffff8211176109eb5760405283855260043560208601523360408601526024356060860152608085015260a08401524260c0840152600060e0840152600061010084015215156101208301526000610140830152600061016083015280600052600260205260406000209082518255602083015160018301556002820173ffffffffffffffffffffffffffffffffffffffff6040850151167fffffffffffffffffffffffff000000000000000000000000000000000000000082541617905560608301516003830155608083015192835167ffffffffffffffff81116109eb5761064e6004850154611502565b601f8111610a94575b506020601f8211600114610a25578192939495600092610a1a575b50506000198260011b9260031b1c19161760048401555b60a081015192835167ffffffffffffffff81116109eb576106ad6005830154611502565b601f81116109a4575b506020601f82116001146109315781906009949596600092610926575b50506000198260011b9260031b1c19161760058201555b60c0830151600682015560e083015160078201556101008301516008820155019061012081015115159082547fffffffffffffffffffffffffffffffffffffffffffffffffffffffffff00000060ff62ff000061016061ff00610140870151151560081b16950151151560101b16941691161717179055600435600052600460205261077a816040600020611813565b336000526005602052610791816040600020611813565b61079c600954611804565b6009556004356000526003602052604060002090600435825560018201916107c48354611804565b809355600281018054936000198101948186116108f7578581029581870414901517156108f75760646024350260243581046064146024351517156108f75785018095116108f75780156108c85760209404905560056024351460001461086f576003016108328154611804565b90555b60405160243581523390827fded01b10054416515ef5c6c751664f126912b45521cef4d20410a09953386c628560043593a4604051908152f35b60243560040361088d576004016108868154611804565b9055610835565b6024356003036108a4576005016108868154611804565b6024356002036108bb576006016108868154611804565b6007016108868154611804565b7f4e487b7100000000000000000000000000000000000000000000000000000000600052601260045260246000fd5b7f4e487b7100000000000000000000000000000000000000000000000000000000600052601160045260246000fd5b0151905086806106d3565b6005830160005260206000209560005b601f198416811061098c5750958291600995969783601f196001961610610973575b505050811b0160058201556106ea565b015160001960f88460031b161c19169055868080610963565b82820151885560019097019660209283019201610941565b600583016000526020600020601f830160051c8101602084106109e4575b601f830160051c820181106109d85750506106b6565b600081556001016109c2565b50806109c2565b7f4e487b7100000000000000000000000000000000000000000000000000000000600052604160045260246000fd5b015190508580610672565b6004850160005260206000209060005b601f1984168110610a7c575060019394959683601f19811610610a63575b505050811b016004840155610689565b015160001960f88460031b161c19169055858080610a53565b9091602060018192858b015181550193019101610a35565b600485016000526020600020601f830160051c810160208410610ad4575b601f830160051c82018110610ac8575050610657565b60008155600101610ab2565b5080610ab2565b60646040517f08c379a000000000000000000000000000000000000000000000000000000000815260206004820152601160248201527f436f6e74656e7420746f6f2073686f72740000000000000000000000000000006044820152fd5b60646040517f08c379a000000000000000000000000000000000000000000000000000000000815260206004820152600e60248201527f5469746c652072657175697265640000000000000000000000000000000000006044820152fd5b60646040517f08c379a000000000000000000000000000000000000000000000000000000000815260206004820152600a60248201527f526174696e6720312d35000000000000000000000000000000000000000000006044820152fd5b50600560243511156104e1565b60646040517f08c379a000000000000000000000000000000000000000000000000000000000815260206004820152601060248201527f416c7265616479207265766965776564000000000000000000000000000000006044820152fd5b3461020e57602060031936011261020e57600435600052600360205261012060406000208054906001810154906002810154600382015460048301546005840154916006850154936008600787015496015496604051988952602089015260408801526060870152608086015260a085015260c084015260e0830152610100820152f35b3461020e57604060031936011261020e5773ffffffffffffffffffffffffffffffffffffffff610d126114bc565b1660005260086020526040600020602435600052602052602060ff604060002054166040519015158152f35b3461020e57600060031936011261020e57602060405160008152f35b3461020e57604060031936011261020e57610d736114df565b600435600052600060205273ffffffffffffffffffffffffffffffffffffffff60406000209116600052602052602060ff604060002054166040519015158152f35b3461020e57604060031936011261020e5773ffffffffffffffffffffffffffffffffffffffff610de36114bc565b610deb61163c565b16600052600860205260406000206024356000526020526040600020600160ff19825416179055600080f35b3461020e57600060031936011261020e5760206040517f71f3d55856e4058ed06ee057d79ada615f65cdf5f9ee88181b914225088f834f8152f35b3461020e57602060031936011261020e5760043580600052600260205260ff60096040600020015460081c16610ee65780600052600260205260096040600020016101007fffffffffffffffffffffffffffffffffffffffffffffffffffffffffffff00ff82541617905533907f9e280448f7d865f4ab2f4a3b7f5dfb2f3c9d2b5878936c157a72065d700901fd600080a3005b60646040517f08c379a000000000000000000000000000000000000000000000000000000000815260206004820152600f60248201527f416c726561647920666c616767656400000000000000000000000000000000006044820152fd5b3461020e5760208060031936011261020e5773ffffffffffffffffffffffffffffffffffffffff610f736114bc565b1660005260058152604060002090604051908181845491828152019360005281600020916000905b828210610fc257610fbe85610fb281890382611442565b60405191829182611407565b0390f35b835486529485019460019384019390910190610f9b565b3461020e57604060031936011261020e5773ffffffffffffffffffffffffffffffffffffffff6110076114bc565b1660005260076020526040600020602435600052602052602060ff604060002054166040519015158152f35b3461020e57604060031936011261020e5761104c6114df565b3373ffffffffffffffffffffffffffffffffffffffff8216036110755761045d90600435611781565b60046040517f6697b232000000000000000000000000000000000000000000000000000000008152fd5b3461020e57604060031936011261020e5773ffffffffffffffffffffffffffffffffffffffff6110cd6114bc565b1660005260066020526040600020602435600052602052602060ff604060002054166040519015158152f35b3461020e57604060031936011261020e5761045d6004356111186114df565b908060005260006020526111336001604060002001546116cf565b6116f5565b3461020e57602060031936011261020e5760043560005260006020526020600160406000200154604051908152f35b3461020e57604060031936011261020e576111806114bc565b73ffffffffffffffffffffffffffffffffffffffff602435911660005260056020526040600020805482101561020e576020916111bc916113c0565b90546040519160031b1c8152f35b3461020e57604060031936011261020e5760043560243567ffffffffffffffff811161020e5761127a6112227fedcb852004041aafc4ba017ff5ff2ed4f3acacfe0d40edfbd8fb81b71578754b923690600401611465565b61122a61163c565b8360005260026020526009604060002001620100007fffffffffffffffffffffffffffffffffffffffffffffffffffffffffff00ffff8254161790556040519182916020835260208301906115fc565b0390a2005b3461020e5760208060031936011261020e5760043560005260048152604060002090604051908181845491828152019360005281600020916000905b8282106112d257610fbe85610fb281890382611442565b8354865294850194600193840193909101906112bb565b3461020e57604060031936011261020e5760243560043560005260046020526040600020805482101561020e576020916111bc916113c0565b3461020e57602060031936011261020e57600435907fffffffff00000000000000000000000000000000000000000000000000000000821680920361020e57817f7965db0b0000000000000000000000000000000000000000000000000000000060209314908115611396575b5015158152f35b7f01ffc9a7000000000000000000000000000000000000000000000000000000009150148361138f565b80548210156113d85760005260206000200190600090565b7f4e487b7100000000000000000000000000000000000000000000000000000000600052603260045260246000fd5b6020908160408183019282815285518094520193019160005b82811061142e575050505090565b835185529381019392810192600101611420565b90601f601f19910116810190811067ffffffffffffffff8211176109eb57604052565b81601f8201121561020e5780359067ffffffffffffffff82116109eb576040519261149a6020601f19601f8601160185611442565b8284526020838301011161020e57816000926020809301838601378301015290565b6004359073ffffffffffffffffffffffffffffffffffffffff8216820361020e57565b6024359073ffffffffffffffffffffffffffffffffffffffff8216820361020e57565b90600182811c9216801561154b575b602083101461151c57565b7f4e487b7100000000000000000000000000000000000000000000000000000000600052602260045260246000fd5b91607f1691611511565b906040519182600082549261156984611502565b9081845260019485811690816000146115d85750600114611595575b505061159392500383611442565b565b9093915060005260209081600020936000915b8183106115c057505061159393508201013880611585565b855488840185015294850194879450918301916115a8565b905061159395506020935060ff1991501682840152151560051b8201013880611585565b919082519283825260005b848110611628575050601f19601f8460006020809697860101520116010190565b602081830181015184830182015201611607565b3360009081527ff179aafcc4ff8137fca1ef3b9ec4d165f87016ba123e7973fba770bc55e240e360205260409020547f71f3d55856e4058ed06ee057d79ada615f65cdf5f9ee88181b914225088f834f9060ff16156116985750565b604490604051907fe2517d3f0000000000000000000000000000000000000000000000000000000082523360048301526024820152fd5b80600052600060205260406000203360005260205260ff60406000205416156116985750565b906000918083528260205273ffffffffffffffffffffffffffffffffffffffff6040842092169182845260205260ff6040842054161560001461177c57808352826020526040832082845260205260408320600160ff198254161790557f2f8788117e7eff1d82e926ec794901d17c78024a50270940304540a733656f0d339380a4600190565b505090565b906000918083528260205273ffffffffffffffffffffffffffffffffffffffff6040842092169182845260205260ff60408420541660001461177c5780835282602052604083208284526020526040832060ff1981541690557ff6391f5c32d9c69d2a47ea670b442974b53935d1edc7fd64eb21e047a839171b339380a4600190565b60001981146108f75760010190565b8054680100000000000000008110156109eb57611835916001820181556113c0565b600019829392549160031b92831b921b191617905556fea2646970667358221220582b65296b86370a8d8c9d403885f91fef73426395360c1250d1fbdd4a3d91b464736f6c634300081400332f8788117e7eff1d82e926ec794901d17c78024a50270940304540a733656f0d",
  "linkReferences": {},
  "deployedLinkReferences": {}
}