{
  "_format": "hh-sol-artifact-1",
  "contractName": "TournamentBrackets",
  "sourceName": "contracts/layer5/TournamentBrackets.sol",
  "abi": [
    {
      "inputs": [
        {
          "internalType": "address",
          "name": "_treasury",
          "type": "address"
        }
      ],
      "stateMutability": "nonpayable",
      "type": "constructor"
    },
    {
      "inputs": [],
      "name": "AccessControlBadConfirmation",
      "type": "error"
    },
    {
      "inputs": [
        {
          "internalType": "address",
          "name": "account",
          "type": "address"
        },
        {
          "internalType": "bytes32",
          "name": "neededRole",
          "type": "bytes32"
        }
      ],
      "name": "AccessControlUnauthorizedAccount",
      "type": "error"
    },
    {
      "inputs": [],
      "name": "ReentrancyGuardReentrantCall",
      "type": "error"
    },
    {
      "anonymous": false,
      "inputs": [
        {
          "indexed": true,
          "internalType": "uint256",
          "name": "tournamentId",
          "type": "uint256"
        },
        {
          "indexed": true,
          "internalType": "uint256",
          "name": "athleteId",
          "type": "uint256"
        }
      ],
      "name": "AthleteRegistered",
      "type": "event"
    },
    {
      "anonymous": false,
      "inputs": [
        {
          "indexed": true,
          "internalType": "uint256",
          "name": "bracketMatchId",
          "type": "uint256"
        },
        {
          "indexed": false,
          "internalType": "uint256",
          "name": "winnerId",
          "type": "uint256"
        }
      ],
      "name": "BracketMatchCompleted",
      "type": "event"
    },
    {
      "anonymous": false,
      "inputs": [
        {
          "indexed": true,
          "internalType": "uint256",
          "name": "tournamentId",
          "type": "uint256"
        },
        {
          "indexed": false,
          "internalType": "uint256",
          "name": "round",
          "type": "uint256"
        },
        {
          "indexed": false,
          "internalType": "uint256",
          "name": "athlete1Id",
          "type": "uint256"
        },
        {
          "indexed": false,
          "internalType": "uint256",
          "name": "athlete2Id",
          "type": "uint256"
        }
      ],
      "name": "BracketMatchCreated",
      "type": "event"
    },
    {
      "anonymous": false,
      "inputs": [
        {
          "indexed": true,
          "internalType": "bytes32",
          "name": "role",
          "type": "bytes32"
        },
        {
          "indexed": true,
          "internalType": "bytes32",
          "name": "previousAdminRole",
          "type": "bytes32"
        },
        {
          "indexed": true,
          "internalType": "bytes32",
          "name": "newAdminRole",
          "type": "bytes32"
        }
      ],
      "name": "RoleAdminChanged",
      "type": "event"
    },
    {
      "anonymous": false,
      "inputs": [
        {
          "indexed": true,
          "internalType": "bytes32",
          "name": "role",
          "type": "bytes32"
        },
        {
          "indexed": true,
          "internalType": "address",
          "name": "account",
          "type": "address"
        },
        {
          "indexed": true,
          "internalType": "address",
          "name": "sender",
          "type": "address"
        }
      ],
      "name": "RoleGranted",
      "type": "event"
    },
    {
      "anonymous": false,
      "inputs": [
        {
          "indexed": true,
          "internalType": "bytes32",
          "name": "role",
          "type": "bytes32"
        },
        {
          "indexed": true,
          "internalType": "address",
          "name": "account",
          "type": "address"
        },
        {
          "indexed": true,
          "internalType": "address",
          "name": "sender",
          "type": "address"
        }
      ],
      "name": "RoleRevoked",
      "type": "event"
    },
    {
      "anonymous": false,
      "inputs": [
        {
          "indexed": true,
          "internalType": "uint256",
          "name": "tournamentId",
          "type": "uint256"
        },
        {
          "indexed": false,
          "internalType": "uint256",
          "name": "winnerId",
          "type": "uint256"
        },
        {
          "indexed": false,
          "internalType": "uint256",
          "name": "prize",
          "type": "uint256"
        }
      ],
      "name": "TournamentCompleted",
      "type": "event"
    },
    {
      "anonymous": false,
      "inputs": [
        {
          "indexed": true,
          "internalType": "uint256",
          "name": "tournamentId",
          "type": "uint256"
        },
        {
          "indexed": false,
          "internalType": "string",
          "name": "name",
          "type": "string"
        },
        {
          "indexed": false,
          "internalType": "enum TournamentBrackets.SportType",
          "name": "sport",
          "type": "uint8"
        },
        {
          "indexed": false,
          "internalType": "uint256",
          "name": "prizePool",
          "type": "uint256"
        }
      ],
      "name": "TournamentCreated",
      "type": "event"
    },
    {
      "anonymous": false,
      "inputs": [
        {
          "indexed": true,
          "internalType": "uint256",
          "name": "tournamentId",
          "type": "uint256"
        },
        {
          "indexed": false,
          "internalType": "uint256",
          "name": "participantCount",
          "type": "uint256"
        }
      ],
      "name": "TournamentStarted",
      "type": "event"
    },
    {
      "inputs": [],
      "name": "DEFAULT_ADMIN_ROLE",
      "outputs": [
        {
          "internalType": "bytes32",
          "name": "",
          "type": "bytes32"
        }
      ],
      "stateMutability": "view",
      "type": "function"
    },
    {
      "inputs": [],
      "name": "ORGANIZER_ROLE",
      "outputs": [
        {
          "internalType": "bytes32",
          "name": "",
          "type": "bytes32"
        }
      ],
      "stateMutability": "view",
      "type": "function"
    },
    {
      "inputs": [
        {
          "internalType": "uint256",
          "name": "",
          "type": "uint256"
        },
        {
          "internalType": "uint256",
          "name": "",
          "type": "uint256"
        }
      ],
      "name": "athleteTournaments",
      "outputs": [
        {
          "internalType": "uint256",
          "name": "",
          "type": "uint256"
        }
      ],
      "stateMutability": "view",
      "type": "function"
    },
    {
      "inputs": [
        {
          "internalType": "uint256",
          "name": "tournamentId",
          "type": "uint256"
        },
        {
          "internalType": "uint256",
          "name": "winnerId",
          "type": "uint256"
        }
      ],
      "name": "completeTournament",
      "outputs": [],
      "stateMutability": "nonpayable",
      "type": "function"
    },
    {
      "inputs": [
        {
          "internalType": "string",
          "name": "name",
          "type": "string"
        },
        {
          "internalType": "enum TournamentBrackets.SportType",
          "name": "sport",
          "type": "uint8"
        },
        {
          "internalType": "enum TournamentBrackets.TournamentFormat",
          "name": "format",
          "type": "uint8"
        },
        {
          "internalType": "uint256",
          "name": "entryFee",
          "type": "uint256"
        },
        {
          "internalType": "uint256",
          "name": "maxParticipants",
          "type": "uint256"
        },
        {
          "internalType": "uint256",
          "name": "startDate",
          "type": "uint256"
        },
        {
          "internalType": "uint256",
          "name": "endDate",
          "type": "uint256"
        }
      ],
      "name": "createTournament",
      "outputs": [
        {
          "internalType": "uint256",
          "name": "",
          "type": "uint256"
        }
      ],
      "stateMutability": "payable",
      "type": "function"
    },
    {
      "inputs": [],
      "name": "firstPlacePct",
      "outputs": [
        {
          "internalType": "uint256",
          "name": "",
          "type": "uint256"
        }
      ],
      "stateMutability": "view",
      "type": "function"
    },
    {
      "inputs": [
        {
          "internalType": "uint256",
          "name": "athleteId",
          "type": "uint256"
        }
      ],
      "name": "getAthleteTournaments",
      "outputs": [
        {
          "internalType": "uint256[]",
          "name": "",
          "type": "uint256[]"
        }
      ],
      "stateMutability": "view",
      "type": "function"
    },
    {
      "inputs": [
        {
          "internalType": "bytes32",
          "name": "role",
          "type": "bytes32"
        }
      ],
      "name": "getRoleAdmin",
      "outputs": [
        {
          "internalType": "bytes32",
          "name": "",
          "type": "bytes32"
        }
      ],
      "stateMutability": "view",
      "type": "function"
    },
    {
      "inputs": [
        {
          "internalType": "uint256",
          "name": "tournamentId",
          "type": "uint256"
        }
      ],
      "name": "getTournamentBracket",
      "outputs": [
        {
          "components": [
            {
              "internalType": "uint256",
              "name": "bracketMatchId",
              "type": "uint256"
            },
            {
              "internalType": "uint256",
              "name": "tournamentId",
              "type": "uint256"
            },
            {
              "internalType": "uint256",
              "name": "round",
              "type": "uint256"
            },
            {
              "internalType": "uint256",
              "name": "athlete1Id",
              "type": "uint256"
            },
            {
              "internalType": "uint256",
              "name": "athlete2Id",
              "type": "uint256"
            },
            {
              "internalType": "uint256",
              "name": "winnerId",
              "type": "uint256"
            },
            {
              "internalType": "uint256",
              "name": "matchId",
              "type": "uint256"
            },
            {
              "internalType": "bool",
              "name": "completed",
              "type": "bool"
            }
          ],
          "internalType": "struct TournamentBrackets.BracketMatch[]",
          "name": "",
          "type": "tuple[]"
        }
      ],
      "stateMutability": "view",
      "type": "function"
    },
    {
      "inputs": [
        {
          "internalType": "uint256",
          "name": "tournamentId",
          "type": "uint256"
        }
      ],
      "name": "getTournamentParticipants",
      "outputs": [
        {
          "internalType": "uint256[]",
          "name": "",
          "type": "uint256[]"
        }
      ],
      "stateMutability": "view",
      "type": "function"
    },
    {
      "inputs": [
        {
          "internalType": "bytes32",
          "name": "role",
          "type": "bytes32"
        },
        {
          "internalType": "address",
          "name": "account",
          "type": "address"
        }
      ],
      "name": "grantRole",
      "outputs": [],
      "stateMutability": "nonpayable",
      "type": "function"
    },
    {
      "inputs": [
        {
          "internalType": "bytes32",
          "name": "role",
          "type": "bytes32"
        },
        {
          "internalType": "address",
          "name": "account",
          "type": "address"
        }
      ],
      "name": "hasRole",
      "outputs": [
        {
          "internalType": "bool",
          "name": "",
          "type": "bool"
        }
      ],
      "stateMutability": "view",
      "type": "function"
    },
    {
      "inputs": [
        {
          "internalType": "uint256",
          "name": "",
          "type": "uint256"
        },
        {
          "internalType": "uint256",
          "name": "",
          "type": "uint256"
        }
      ],
      "name": "isRegistered",
      "outputs": [
        {
          "internalType": "bool",
          "name": "",
          "type": "bool"
        }
      ],
      "stateMutability": "view",
      "type": "function"
    },
    {
      "inputs": [
        {
          "internalType": "address",
          "name": "",
          "type": "address"
        },
        {
          "internalType": "uint256",
          "name": "",
          "type": "uint256"
        }
      ],
      "name": "organizerTournaments",
      "outputs": [
        {
          "internalType": "uint256",
          "name": "",
          "type": "uint256"
        }
      ],
      "stateMutability": "view",
      "type": "function"
    },
    {
      "inputs": [],
      "name": "platformFeePercent",
      "outputs": [
        {
          "internalType": "uint256",
          "name": "",
          "type": "uint256"
        }
      ],
      "stateMutability": "view",
      "type": "function"
    },
    {
      "inputs": [
        {
          "internalType": "uint256",
          "name": "tournamentId",
          "type": "uint256"
        },
        {
          "internalType": "uint256",
          "name": "bracketMatchIndex",
          "type": "uint256"
        },
        {
          "internalType": "uint256",
          "name": "winnerId",
          "type": "uint256"
        }
      ],
      "name": "recordBracketResult",
      "outputs": [],
      "stateMutability": "nonpayable",
      "type": "function"
    },
    {
      "inputs": [
        {
          "internalType": "uint256",
          "name": "tournamentId",
          "type": "uint256"
        },
        {
          "internalType": "uint256",
          "name": "athleteId",
          "type": "uint256"
        }
      ],
      "name": "registerAthlete",
      "outputs": [],
      "stateMutability": "payable",
      "type": "function"
    },
    {
      "inputs": [
        {
          "internalType": "bytes32",
          "name": "role",
          "type": "bytes32"
        },
        {
          "internalType": "address",
          "name": "callerConfirmation",
          "type": "address"
        }
      ],
      "name": "renounceRole",
      "outputs": [],
      "stateMutability": "nonpayable",
      "type": "function"
    },
    {
      "inputs": [
        {
          "internalType": "bytes32",
          "name": "role",
          "type": "bytes32"
        },
        {
          "internalType": "address",
          "name": "account",
          "type": "address"
        }
      ],
      "name": "revokeRole",
      "outputs": [],
      "stateMutability": "nonpayable",
      "type": "function"
    },
    {
      "inputs": [],
      "name": "secondPlacePct",
      "outputs": [
        {
          "internalType": "uint256",
          "name": "",
          "type": "uint256"
        }
      ],
      "stateMutability": "view",
      "type": "function"
    },
    {
      "inputs": [
        {
          "internalType": "uint256",
          "name": "tournamentId",
          "type": "uint256"
        }
      ],
      "name": "startTournament",
      "outputs": [],
      "stateMutability": "nonpayable",
      "type": "function"
    },
    {
      "inputs": [
        {
          "internalType": "bytes4",
          "name": "interfaceId",
          "type": "bytes4"
        }
      ],
      "name": "supportsInterface",
      "outputs": [
        {
          "internalType": "bool",
          "name": "",
          "type": "bool"
        }
      ],
      "stateMutability": "view",
      "type": "function"
    },
    {
      "inputs": [],
      "name": "thirdPlacePct",
      "outputs": [
        {
          "internalType": "uint256",
          "name": "",
          "type": "uint256"
        }
      ],
      "stateMutability": "view",
      "type": "function"
    },
    {
      "inputs": [],
      "name": "totalTournaments",
      "outputs": [
        {
          "internalType": "uint256",
          "name": "",
          "type": "uint256"
        }
      ],
      "stateMutability": "view",
      "type": "function"
    },
    {
      "inputs": [
        {
          "internalType": "uint256",
          "name": "",
          "type": "uint256"
        },
        {
          "internalType": "uint256",
          "name": "",
          "type": "uint256"
        }
      ],
      "name": "tournamentBracket",
      "outputs": [
        {
          "internalType": "uint256",
          "name": "bracketMatchId",
          "type": "uint256"
        },
        {
          "internalType": "uint256",
          "name": "tournamentId",
          "type": "uint256"
        },
        {
          "internalType": "uint256",
          "name": "round",
          "type": "uint256"
        },
        {
          "internalType": "uint256",
          "name": "athlete1Id",
          "type": "uint256"
        },
        {
          "internalType": "uint256",
          "name": "athlete2Id",
          "type": "uint256"
        },
        {
          "internalType": "uint256",
          "name": "winnerId",
          "type": "uint256"
        },
        {
          "internalType": "uint256",
          "name": "matchId",
          "type": "uint256"
        },
        {
          "internalType": "bool",
          "name": "completed",
          "type": "bool"
        }
      ],
      "stateMutability": "view",
      "type": "function"
    },
    {
      "inputs": [
        {
          "internalType": "uint256",
          "name": "",
          "type": "uint256"
        }
      ],
      "name": "tournaments",
      "outputs": [
        {
          "internalType": "uint256",
          "name": "tournamentId",
          "type": "uint256"
        },
        {
          "internalType": "string",
          "name": "name",
          "type": "string"
        },
        {
          "internalType": "enum TournamentBrackets.SportType",
          "name": "sport",
          "type": "uint8"
        },
        {
          "internalType": "enum TournamentBrackets.TournamentFormat",
          "name": "format",
          "type": "uint8"
        },
        {
          "internalType": "uint256",
          "name": "prizePool",
          "type": "uint256"
        },
        {
          "internalType": "uint256",
          "name": "entryFee",
          "type": "uint256"
        },
        {
          "internalType": "uint256",
          "name": "maxParticipants",
          "type": "uint256"
        },
        {
          "internalType": "uint256",
          "name": "startDate",
          "type": "uint256"
        },
        {
          "internalType": "uint256",
          "name": "endDate",
          "type": "uint256"
        },
        {
          "internalType": "enum TournamentBrackets.TournamentStatus",
          "name": "status",
          "type": "uint8"
        },
        {
          "internalType": "address",
          "name": "organizer",
          "type": "address"
        },
        {
          "internalType": "uint256",
          "name": "winnerId",
          "type": "uint256"
        },
        {
          "internalType": "bool",
          "name": "prizeDistributed",
          "type": "bool"
        }
      ],
      "stateMutability": "view",
      "type": "function"
    },
    {
      "inputs": [],
      "name": "treasury",
      "outputs": [
        {
          "internalType": "address",
          "name": "",
          "type": "address"
        }
      ],
      "stateMutability": "view",
      "type": "function"
    }
  ],
  "bytecode": "0x608034620000ae57601f62001f0538819003918201601f19168301916001600160401b03831184841017620000b357808492602094604052833981010312620000ae57516001600160a01b03811690819003620000ae57600180556103e8600b55611388600c55610bb8600d556107d0600e55600a80546001600160a01b0319169190911790556200009133620000c9565b506200009d3362000149565b50604051611cf99081620001ec8239f35b600080fd5b634e487b7160e01b600052604160045260246000fd5b6001600160a01b031660008181527fad3228b676f7d3cd4284a5443f17f1962b36e491b30a40b2405849e597ba5fb5602052604081205490919060ff166200014557818052816020526040822081835260205260408220600160ff19825416179055339160008051602062001ee58339815191528180a4600190565b5090565b6001600160a01b031660008181527f7fb3b48246c61d3fa2fb8337e6c11c6638daafa0fe762bfbe6c0193682cd7efe60205260408120549091907f4d2e7a1e3f5dd6e203f087b15756ccf0e4ccd947fe1b639a38540089a1e47f639060ff16620001e657808352826020526040832082845260205260408320600160ff1982541617905560008051602062001ee5833981519152339380a4600190565b50509056fe608080604052600436101561001357600080fd5b60003560e01c90816301ffc9a71461172557508063248a9ca3146116f65780632f2ff15d146116b757806336568abe1461164b5780633cc7f697146114905780633eaf201f1461128e578063479c34db146112365780635f9f4b9c1461121857806361d027b3146111e4578063651ea94314610ed057806373254f3714610eb257806374837e0514610e945780637503e1b714610cfe5780637909cb5914610cc35780638c639a8514610ca55780638d7bb93614610b765780638df2e9ac14610ae95780638ed096cb1461099957806391d148541461093e57806394716afc146108ff578063a217fddf146108e3578063a5ff2665146108ab578063bd7542921461088d578063c2a8b11b1461085e578063d547741f1461081d578063dc848401146101895763f08412261461014857600080fd5b346101845760206003193601126101845760043560005260086020526101806101746040600020611c5e565b60405191829182611985565b0390f35b600080fd5b60e06003193601126101845760043567ffffffffffffffff8111610184573660238201121561018457806004013567ffffffffffffffff81116105dc57604051916101fc60207fffffffffffffffffffffffffffffffffffffffffffffffffffffffffffffffe0601f85011601846118b3565b818352366024838301011161018457816000926024602093018386013783010152600860243510156101845760046044351015610184574260a43511156107d95760a43560c4351115610795576002608435106107515761025e600254611b88565b80600255604051916020830183811067ffffffffffffffff8211176105dc576040526000835260405192836101c081011067ffffffffffffffff6101c0860111176105dc576101c0840160405282845281602085015260243560408501526102c760443561195f565b604435606085015234608085015260643560a085015260843560c085015260e084015260a43561010084015260c435610120840152600061014084015233610160840152600061018084015260006101a0840152816000526004602052604060002083518155602084015180519067ffffffffffffffff82116105dc5781906103536001850154611843565b601f8111610711575b50602090601f83116001146106455760009261063a575b50507fffffffffffffffffffffffffffffffffffffffffffffffffffffffffffffffff8260011b9260031b1c19161760018201555b6040840151600881101561060b57600282019081547fffffffffffffffffffffffffffffffffffffffffffffffffffffffffffff000060ff61ff0060608a01516103f18161195f565b6103fa8161195f565b60081b1693169116171790556080840151600382015560a0840151600482015560c0840151600582015560e08401519384519467ffffffffffffffff86116105dc576801000000000000000086116105dc5760209060068401548760068601558088106105bc575b5001946006830160005260206000209560005b8281106105a857602087807f70958aa73d8e1edb5d7ba5c1696d5102f0ecff403028009eb38702fec28902826105898a6105518b600b6101a08d61010081015160078501556101208101516008850155600984016101408201516104d88161195f565b6104e18161195f565b81547fffffffffffffffffffffff00000000000000000000000000000000000000000060ff74ffffffffffffffffffffffffffffffffffffffff0061016087015160081b169316911617179055610180810151600a8501550151151591019060ff60ff1983541691151516179055565b3360005260078652610567846040600020611bcc565b610572600954611b88565b6009556040519182916060835260608301906118f4565b610597878301602435611952565b3460408301520390a2604051908152f35b60019060208351930192818a015501610475565b6105d6906006860160005288846000209182019101611bb5565b87610462565b7f4e487b7100000000000000000000000000000000000000000000000000000000600052604160045260246000fd5b7f4e487b7100000000000000000000000000000000000000000000000000000000600052602160045260246000fd5b015190508680610373565b9250600184016000526020600020906000935b7fffffffffffffffffffffffffffffffffffffffffffffffffffffffffffffffe0841685106106f65760019450837fffffffffffffffffffffffffffffffffffffffffffffffffffffffffffffffe08116106106bf575b505050811b0160018201556103a8565b01517fffffffffffffffffffffffffffffffffffffffffffffffffffffffffffffffff60f88460031b161c191690558680806106af565b81810151835560209485019460019093019290910190610658565b61074190600186016000526020600020601f850160051c81019160208610610747575b601f0160051c0190611bb5565b8761035c565b9091508190610734565b606460405162461bcd60e51b815260206004820152601c60248201527f4e656564206174206c656173742032207061727469636970616e7473000000006044820152fd5b606460405162461bcd60e51b815260206004820152601760248201527f456e64206d7573742062652061667465722073746172740000000000000000006044820152fd5b606460405162461bcd60e51b815260206004820152601460248201527f5374617274206d757374206265206675747572650000000000000000000000006044820152fd5b346101845760406003193601126101845761085c60043561083c6117c3565b90806000526000602052610857600160406000200154611a53565b611b05565b005b346101845760206003193601126101845760043560005260046020526101806101746006604060002001611c5e565b34610184576000600319360112610184576020600d54604051908152f35b34610184576108b9366117e6565b906000526006602052604060002090600052602052602060ff604060002054166040519015158152f35b3461018457600060031936011261018457602060405160008152f35b346101845761090d366117e6565b9060005260086020526040600020805482101561018457602091610930916117fc565b90546040519160031b1c8152f35b34610184576040600319360112610184576109576117c3565b600435600052600060205273ffffffffffffffffffffffffffffffffffffffff60406000209116600052602052602060ff604060002054166040519015158152f35b346101845760208060031936011261018457600435600052600590818152604060002091825467ffffffffffffffff81116105dc57604051916109e08483831b01846118b3565b81835260009485528385208484019591865b848410610a7d57604080518881528751818a018190528a928201908a60005b828110610a1e5784840385f35b855180518552808301518584015260408082015190860152606080820151908601526080808201519086015260a0808201519086015260c0808201519086015260e0908101511515908501529481019461010090930192600101610a11565b600887600192604051610a8f81611896565b8654815284870154838201526002870154604082015260038701546060820152600487015460808201528587015460a0820152600687015460c082015260ff600788015416151560e08201528152019301930192916109f2565b3461018457610af7366117e6565b906000526005602052604060002080548210156101845761010091610b1b91611969565b508054906001810154906002810154600382015460048301549060058401549260ff600760068701549601541695604051978852602088015260408701526060860152608085015260a084015260c0830152151560e0820152f35b3461018457606060031936011261018457604435610b926119c0565b6004356000526005602052610bad6024356040600020611969565b50600781019081549060ff8216610c6157600381015484148015610c54575b15610c10577f34a9c322e9f543de284f830285daf50e5ed8c6a0128466a8e059fcf1d62396d592600160ff19602094876005860155161790555492604051908152a2005b606460405162461bcd60e51b815260206004820152600e60248201527f496e76616c69642077696e6e65720000000000000000000000000000000000006044820152fd5b5060048101548414610bcc565b606460405162461bcd60e51b815260206004820152601160248201527f416c726561647920636f6d706c657465640000000000000000000000000000006044820152fd5b34610184576000600319360112610184576020600b54604051908152f35b346101845760006003193601126101845760206040517f4d2e7a1e3f5dd6e203f087b15756ccf0e4ccd947fe1b639a38540089a1e47f638152f35b3461018457602080600319360112610184576004356000526004815260406000208054600191828101926040519085600091865496610d3c88611843565b80865297828116908115610e705750600114610e37575b50509450819003610d6490826118b3565b600282015491600381015460048201546005830154600784015490600885015492600986015494600a87015496600b015460ff16976040519b8c9b8c526101a080918d01528b01610db4916118f4565b98610dc560408c0160ff8316611952565b60081c60ff16610dd48161195f565b60608b015260808a015260a089015260c088015260e087015261010086015260ff8116610e008161195f565b61012086015260081c73ffffffffffffffffffffffffffffffffffffffff1661014085015261016084015215156101808301520390f35b6000908152828120929350915b878310610e5d5750949550859450820101858780610d53565b8054858401850152918301918101610e44565b60ff191684870152509596879650151560051b840190910191508690508780610d53565b34610184576000600319360112610184576020600e54604051908152f35b34610184576000600319360112610184576020600c54604051908152f35b3461018457602060031936011261018457610ee96119c0565b600435600052600460205260406000206009810180549160ff8316610f0d8161195f565b6111a05760060190600282541061115c57600160ff19610f309416179055611c5e565b60005b81517fffffffffffffffffffffffffffffffffffffffffffffffffffffffffffffffff81019081116110cc5781101561112a57610f71600354611b88565b8060035560043560005260056020526040600020610f8f8385611caf565b516001840184116110cc57610fa76001850186611caf565b519060405193610fb685611896565b845260043560208501526001604085015260608401526080830152600060a0830152600060c0830152600060e08301528054680100000000000000008110156105dc5761100891600182018155611969565b6110fb57600760e08361106c945184556020810151600185015560408101516002850155606081015160038501556080810151600485015560a0810151600585015560c081015160068501550151151591019060ff60ff1983541691151516179055565b6110768183611caf565b516110846001830184611caf565b516040519160018352602083015260408201527f0151807486c099d6ccb231111dc1f1a0714107eb79ee31e8b37f77bd32160d50606060043592a26002810180911115610f33575b7f4e487b7100000000000000000000000000000000000000000000000000000000600052601160045260246000fd5b7f4e487b7100000000000000000000000000000000000000000000000000000000600052600060045260246000fd5b50516040519081527fbc7efbd054762c7024dd5838b4eef6be3c9982e8a7397e2b3949e1b52263a61c602060043592a2005b606460405162461bcd60e51b815260206004820152601760248201527f4e6f7420656e6f756768207061727469636970616e74730000000000000000006044820152fd5b606460405162461bcd60e51b815260206004820152601360248201527f4e6f7420696e20726567697374726174696f6e000000000000000000000000006044820152fd5b3461018457600060031936011261018457602073ffffffffffffffffffffffffffffffffffffffff600a5416604051908152f35b34610184576000600319360112610184576020600954604051908152f35b346101845760406003193601126101845760043573ffffffffffffffffffffffffffffffffffffffff8116809103610184576024359060005260076020526040600020805482101561018457602091610930916117fc565b611297366117e6565b906112a0611c23565b80600052602060048152604060002060ff6009820154166112c08161195f565b61144c5760068101805460058301541115611408578360005260068352604060002085600052835260ff604060002054166113c45760048201543410611380579061133085600393866000526006865260406000208260005286526040600020600160ff19825416179055611bcc565b019081543481018091116110cc57600892558360005252611355816040600020611bcc565b7fe45684e294db9d2efb0c16e52f216b5dbd57960aafc1d0a4a8185e47941a1638600080a360018055005b6064836040519062461bcd60e51b82526004820152601660248201527f496e73756666696369656e7420656e74727920666565000000000000000000006044820152fd5b6064836040519062461bcd60e51b82526004820152601260248201527f416c7265616479207265676973746572656400000000000000000000000000006044820152fd5b6064836040519062461bcd60e51b82526004820152600f60248201527f546f75726e616d656e742066756c6c00000000000000000000000000000000006044820152fd5b6064826040519062461bcd60e51b82526004820152601360248201527f526567697374726174696f6e20636c6f736564000000000000000000000000006044820152fd5b346101845761149e366117e6565b6114a66119c0565b6114ae611c23565b81600052600460205260406000206009810190815491600160ff84166114d38161195f565b0361160757600b82019081549360ff85166115c357600394600192600260ff1980941617905586600a860155161790550154600b548082029082820414821517156110cc576127109004808203918083116110cc5760008080808573ffffffffffffffffffffffffffffffffffffffff600a54168282156115ba575bf1156115a5578291600091146115b1575b600080809381933390f1156115a5577f83220dd167e6af3de439add415e5f18142a6ab3ba079aaf3df7429d0a86c33549160409182519182526020820152a260018055005b6040513d6000823e3d90fd5b506108fc611560565b506108fc61154f565b606460405162461bcd60e51b815260206004820152601960248201527f5072697a6520616c7265616479206469737472696275746564000000000000006044820152fd5b606460405162461bcd60e51b815260206004820152600f60248201527f4e6f7420696e2070726f677265737300000000000000000000000000000000006044820152fd5b34610184576040600319360112610184576116646117c3565b3373ffffffffffffffffffffffffffffffffffffffff82160361168d5761085c90600435611b05565b60046040517f6697b232000000000000000000000000000000000000000000000000000000008152fd5b346101845760406003193601126101845761085c6004356116d66117c3565b908060005260006020526116f1600160406000200154611a53565b611a79565b346101845760206003193601126101845760043560005260006020526020600160406000200154604051908152f35b3461018457602060031936011261018457600435907fffffffff00000000000000000000000000000000000000000000000000000000821680920361018457817f7965db0b0000000000000000000000000000000000000000000000000000000060209314908115611799575b5015158152f35b7f01ffc9a70000000000000000000000000000000000000000000000000000000091501483611792565b6024359073ffffffffffffffffffffffffffffffffffffffff8216820361018457565b6003196040910112610184576004359060243590565b80548210156118145760005260206000200190600090565b7f4e487b7100000000000000000000000000000000000000000000000000000000600052603260045260246000fd5b90600182811c9216801561188c575b602083101461185d57565b7f4e487b7100000000000000000000000000000000000000000000000000000000600052602260045260246000fd5b91607f1691611852565b610100810190811067ffffffffffffffff8211176105dc57604052565b90601f7fffffffffffffffffffffffffffffffffffffffffffffffffffffffffffffffe0910116810190811067ffffffffffffffff8211176105dc57604052565b919082519283825260005b84811061193e5750507fffffffffffffffffffffffffffffffffffffffffffffffffffffffffffffffe0601f8460006020809697860101520116010190565b6020818301810151848301820152016118ff565b90600882101561060b5752565b6004111561060b57565b80548210156118145760005260206000209060031b0190600090565b6020908160408183019282815285518094520193019160005b8281106119ac575050505090565b83518552938101939281019260010161199e565b3360009081527f7fb3b48246c61d3fa2fb8337e6c11c6638daafa0fe762bfbe6c0193682cd7efe60205260409020547f4d2e7a1e3f5dd6e203f087b15756ccf0e4ccd947fe1b639a38540089a1e47f639060ff1615611a1c5750565b604490604051907fe2517d3f0000000000000000000000000000000000000000000000000000000082523360048301526024820152fd5b80600052600060205260406000203360005260205260ff6040600020541615611a1c5750565b906000918083528260205273ffffffffffffffffffffffffffffffffffffffff6040842092169182845260205260ff60408420541615600014611b0057808352826020526040832082845260205260408320600160ff198254161790557f2f8788117e7eff1d82e926ec794901d17c78024a50270940304540a733656f0d339380a4600190565b505090565b906000918083528260205273ffffffffffffffffffffffffffffffffffffffff6040842092169182845260205260ff604084205416600014611b005780835282602052604083208284526020526040832060ff1981541690557ff6391f5c32d9c69d2a47ea670b442974b53935d1edc7fd64eb21e047a839171b339380a4600190565b7fffffffffffffffffffffffffffffffffffffffffffffffffffffffffffffffff81146110cc5760010190565b818110611bc0575050565b60008155600101611bb5565b8054680100000000000000008110156105dc57611bee916001820181556117fc565b7fffffffffffffffffffffffffffffffffffffffffffffffffffffffffffffffff829392549160031b92831b921b1916179055565b600260015414611c34576002600155565b60046040517f3ee5aeb5000000000000000000000000000000000000000000000000000000008152fd5b9060405191828154918282526020928383019160005283600020936000905b828210611c9557505050611c93925003836118b3565b565b855484526001958601958895509381019390910190611c7d565b80518210156118145760209160051b01019056fea2646970667358221220dbd3ef96651988094a0a1f040d1654a995502908f1cad4187f24df445723627664736f6c634300081400332f8788117e7eff1d82e926ec794901d17c78024a50270940304540a733656f0d",
  "linkReferences": {},
  "deployedLinkReferences": {}
}