{
  "_format": "hh-sol-artifact-1",
  "contractName": "RateLimiter",
  "sourceName": "contracts/layer7/stability/RateLimiter.sol",
  "abi": [
    {
      "inputs": [],
      "stateMutability": "nonpayable",
      "type": "constructor"
    },
    {
      "inputs": [],
      "name": "AccessControlBadConfirmation",
      "type": "error"
    },
    {
      "inputs": [
        {
          "internalType": "address",
          "name": "account",
          "type": "address"
        },
        {
          "internalType": "bytes32",
          "name": "neededRole",
          "type": "bytes32"
        }
      ],
      "name": "AccessControlUnauthorizedAccount",
      "type": "error"
    },
    {
      "anonymous": false,
      "inputs": [
        {
          "indexed": true,
          "internalType": "uint256",
          "name": "entityId",
          "type": "uint256"
        },
        {
          "indexed": true,
          "internalType": "bytes32",
          "name": "functionHash",
          "type": "bytes32"
        },
        {
          "indexed": false,
          "internalType": "string",
          "name": "period",
          "type": "string"
        }
      ],
      "name": "RateLimitExceeded",
      "type": "event"
    },
    {
      "anonymous": false,
      "inputs": [
        {
          "indexed": true,
          "internalType": "bytes32",
          "name": "functionHash",
          "type": "bytes32"
        },
        {
          "indexed": false,
          "internalType": "uint256",
          "name": "maxPerMinute",
          "type": "uint256"
        },
        {
          "indexed": false,
          "internalType": "uint256",
          "name": "maxPerHour",
          "type": "uint256"
        }
      ],
      "name": "RateLimitUpdated",
      "type": "event"
    },
    {
      "anonymous": false,
      "inputs": [
        {
          "indexed": true,
          "internalType": "bytes32",
          "name": "role",
          "type": "bytes32"
        },
        {
          "indexed": true,
          "internalType": "bytes32",
          "name": "previousAdminRole",
          "type": "bytes32"
        },
        {
          "indexed": true,
          "internalType": "bytes32",
          "name": "newAdminRole",
          "type": "bytes32"
        }
      ],
      "name": "RoleAdminChanged",
      "type": "event"
    },
    {
      "anonymous": false,
      "inputs": [
        {
          "indexed": true,
          "internalType": "bytes32",
          "name": "role",
          "type": "bytes32"
        },
        {
          "indexed": true,
          "internalType": "address",
          "name": "account",
          "type": "address"
        },
        {
          "indexed": true,
          "internalType": "address",
          "name": "sender",
          "type": "address"
        }
      ],
      "name": "RoleGranted",
      "type": "event"
    },
    {
      "anonymous": false,
      "inputs": [
        {
          "indexed": true,
          "internalType": "bytes32",
          "name": "role",
          "type": "bytes32"
        },
        {
          "indexed": true,
          "internalType": "address",
          "name": "account",
          "type": "address"
        },
        {
          "indexed": true,
          "internalType": "address",
          "name": "sender",
          "type": "address"
        }
      ],
      "name": "RoleRevoked",
      "type": "event"
    },
    {
      "inputs": [],
      "name": "DEFAULT_ADMIN_ROLE",
      "outputs": [
        {
          "internalType": "bytes32",
          "name": "",
          "type": "bytes32"
        }
      ],
      "stateMutability": "view",
      "type": "function"
    },
    {
      "inputs": [],
      "name": "LIMITER_ROLE",
      "outputs": [
        {
          "internalType": "bytes32",
          "name": "",
          "type": "bytes32"
        }
      ],
      "stateMutability": "view",
      "type": "function"
    },
    {
      "inputs": [
        {
          "internalType": "uint256",
          "name": "entityId",
          "type": "uint256"
        },
        {
          "internalType": "bytes32",
          "name": "functionHash",
          "type": "bytes32"
        }
      ],
      "name": "checkRateLimit",
      "outputs": [
        {
          "internalType": "bool",
          "name": "allowed",
          "type": "bool"
        },
        {
          "internalType": "string",
          "name": "reason",
          "type": "string"
        }
      ],
      "stateMutability": "nonpayable",
      "type": "function"
    },
    {
      "inputs": [
        {
          "internalType": "uint256",
          "name": "",
          "type": "uint256"
        }
      ],
      "name": "entityUsage",
      "outputs": [
        {
          "internalType": "uint256",
          "name": "lastMinute",
          "type": "uint256"
        },
        {
          "internalType": "uint256",
          "name": "lastHour",
          "type": "uint256"
        },
        {
          "internalType": "uint256",
          "name": "lastDay",
          "type": "uint256"
        },
        {
          "internalType": "uint256",
          "name": "countThisMinute",
          "type": "uint256"
        },
        {
          "internalType": "uint256",
          "name": "countThisHour",
          "type": "uint256"
        },
        {
          "internalType": "uint256",
          "name": "countThisDay",
          "type": "uint256"
        }
      ],
      "stateMutability": "view",
      "type": "function"
    },
    {
      "inputs": [
        {
          "internalType": "bytes32",
          "name": "",
          "type": "bytes32"
        }
      ],
      "name": "functionLimits",
      "outputs": [
        {
          "internalType": "uint256",
          "name": "maxPerMinute",
          "type": "uint256"
        },
        {
          "internalType": "uint256",
          "name": "maxPerHour",
          "type": "uint256"
        },
        {
          "internalType": "uint256",
          "name": "maxPerDay",
          "type": "uint256"
        },
        {
          "internalType": "bool",
          "name": "enabled",
          "type": "bool"
        }
      ],
      "stateMutability": "view",
      "type": "function"
    },
    {
      "inputs": [
        {
          "internalType": "uint256",
          "name": "entityId",
          "type": "uint256"
        }
      ],
      "name": "getEntityUsage",
      "outputs": [
        {
          "internalType": "uint256",
          "name": "perMinute",
          "type": "uint256"
        },
        {
          "internalType": "uint256",
          "name": "perHour",
          "type": "uint256"
        },
        {
          "internalType": "uint256",
          "name": "perDay",
          "type": "uint256"
        }
      ],
      "stateMutability": "view",
      "type": "function"
    },
    {
      "inputs": [
        {
          "internalType": "bytes32",
          "name": "functionHash",
          "type": "bytes32"
        }
      ],
      "name": "getGlobalUsage",
      "outputs": [
        {
          "internalType": "uint256",
          "name": "perMinute",
          "type": "uint256"
        },
        {
          "internalType": "uint256",
          "name": "perHour",
          "type": "uint256"
        },
        {
          "internalType": "uint256",
          "name": "perDay",
          "type": "uint256"
        }
      ],
      "stateMutability": "view",
      "type": "function"
    },
    {
      "inputs": [
        {
          "internalType": "bytes32",
          "name": "role",
          "type": "bytes32"
        }
      ],
      "name": "getRoleAdmin",
      "outputs": [
        {
          "internalType": "bytes32",
          "name": "",
          "type": "bytes32"
        }
      ],
      "stateMutability": "view",
      "type": "function"
    },
    {
      "inputs": [],
      "name": "globalMaxPerSecond",
      "outputs": [
        {
          "internalType": "uint256",
          "name": "",
          "type": "uint256"
        }
      ],
      "stateMutability": "view",
      "type": "function"
    },
    {
      "inputs": [
        {
          "internalType": "bytes32",
          "name": "",
          "type": "bytes32"
        }
      ],
      "name": "globalUsage",
      "outputs": [
        {
          "internalType": "uint256",
          "name": "lastMinute",
          "type": "uint256"
        },
        {
          "internalType": "uint256",
          "name": "lastHour",
          "type": "uint256"
        },
        {
          "internalType": "uint256",
          "name": "lastDay",
          "type": "uint256"
        },
        {
          "internalType": "uint256",
          "name": "countThisMinute",
          "type": "uint256"
        },
        {
          "internalType": "uint256",
          "name": "countThisHour",
          "type": "uint256"
        },
        {
          "internalType": "uint256",
          "name": "countThisDay",
          "type": "uint256"
        }
      ],
      "stateMutability": "view",
      "type": "function"
    },
    {
      "inputs": [
        {
          "internalType": "bytes32",
          "name": "role",
          "type": "bytes32"
        },
        {
          "internalType": "address",
          "name": "account",
          "type": "address"
        }
      ],
      "name": "grantRole",
      "outputs": [],
      "stateMutability": "nonpayable",
      "type": "function"
    },
    {
      "inputs": [
        {
          "internalType": "bytes32",
          "name": "role",
          "type": "bytes32"
        },
        {
          "internalType": "address",
          "name": "account",
          "type": "address"
        }
      ],
      "name": "hasRole",
      "outputs": [
        {
          "internalType": "bool",
          "name": "",
          "type": "bool"
        }
      ],
      "stateMutability": "view",
      "type": "function"
    },
    {
      "inputs": [],
      "name": "rateLimitingEnabled",
      "outputs": [
        {
          "internalType": "bool",
          "name": "",
          "type": "bool"
        }
      ],
      "stateMutability": "view",
      "type": "function"
    },
    {
      "inputs": [
        {
          "internalType": "uint256",
          "name": "entityId",
          "type": "uint256"
        },
        {
          "internalType": "bytes32",
          "name": "functionHash",
          "type": "bytes32"
        }
      ],
      "name": "recordAction",
      "outputs": [],
      "stateMutability": "nonpayable",
      "type": "function"
    },
    {
      "inputs": [
        {
          "internalType": "bytes32",
          "name": "role",
          "type": "bytes32"
        },
        {
          "internalType": "address",
          "name": "callerConfirmation",
          "type": "address"
        }
      ],
      "name": "renounceRole",
      "outputs": [],
      "stateMutability": "nonpayable",
      "type": "function"
    },
    {
      "inputs": [
        {
          "internalType": "bytes32",
          "name": "role",
          "type": "bytes32"
        },
        {
          "internalType": "address",
          "name": "account",
          "type": "address"
        }
      ],
      "name": "revokeRole",
      "outputs": [],
      "stateMutability": "nonpayable",
      "type": "function"
    },
    {
      "inputs": [
        {
          "internalType": "bytes32",
          "name": "functionHash",
          "type": "bytes32"
        },
        {
          "internalType": "uint256",
          "name": "maxPerMinute",
          "type": "uint256"
        },
        {
          "internalType": "uint256",
          "name": "maxPerHour",
          "type": "uint256"
        },
        {
          "internalType": "uint256",
          "name": "maxPerDay",
          "type": "uint256"
        },
        {
          "internalType": "bool",
          "name": "enabled",
          "type": "bool"
        }
      ],
      "name": "setRateLimit",
      "outputs": [],
      "stateMutability": "nonpayable",
      "type": "function"
    },
    {
      "inputs": [
        {
          "internalType": "bytes4",
          "name": "interfaceId",
          "type": "bytes4"
        }
      ],
      "name": "supportsInterface",
      "outputs": [
        {
          "internalType": "bool",
          "name": "",
          "type": "bool"
        }
      ],
      "stateMutability": "view",
      "type": "function"
    },
    {
      "inputs": [
        {
          "internalType": "bool",
          "name": "enabled",
          "type": "bool"
        }
      ],
      "name": "toggleRateLimiting",
      "outputs": [],
      "stateMutability": "nonpayable",
      "type": "function"
    }
  ],
  "bytecode": "0x60806040523461003e57600160ff196004541617600455606460055561002433610043565b5061002e336100c1565b50604051610edb90816101628239f35b600080fd5b6001600160a01b031660008181527fad3228b676f7d3cd4284a5443f17f1962b36e491b30a40b2405849e597ba5fb5602052604081205490919060ff166100bd57818052816020526040822081835260205260408220600160ff19825416179055339160008051602061103d8339815191528180a4600190565b5090565b6001600160a01b031660008181527f5fd6a7d52a124dba1daa3d033799972a5420d7d387145fab1c33aef3e344354560205260408120549091907ff7b34cf87af24ce01c1aff9f518b133989851466d994e0016fc14651fa02826c9060ff1661015c57808352826020526040832082845260205260408320600160ff1982541617905560008051602061103d833981519152339380a4600190565b50509056fe60806040908082526004918236101561001757600080fd5b600091823560e01c90816301ffc9a7146107075750806309b76095146106b9578063248a9ca31461068f5780632f2ff15d1461067257806335a0f8a01461065457806336568abe146105f45780634aabd2dd1461059f5780635d42378a1461053257806369ed7b71146104e45780637444e45714610495578063844096701461047257806391d148541461042d578063a217fddf14610413578063b2caebd61461039f578063b3de421414610365578063bc502607146102d3578063ca742ad414610244578063d547741f146102105763fcf84e76146100f657600080fd5b3461020c5760a060031936011261020c57823590602435604435608435801515809103610208576101256107f4565b83516080810181811067ffffffffffffffff8211176101dc577f0ae80bf6c6ab41f12ede33d03ecb3d158518f3ce6e124cc5cc534476226fcd7f969798509060039186528481526020810184815286820190606435825260608301948552898b526001602052878b2092518355516001830155516002820155019051151560ff7fffffffffffffffffffffffffffffffffffffffffffffffffffffffffffffff00835416911617905582519182526020820152a280f35b60248860418b7f4e487b7100000000000000000000000000000000000000000000000000000000835252fd5b8580fd5b5080fd5b503461020c5760016102409161023b610228366107a6565b93909283875286602052862001546108c1565b610991565b5080f35b5082346102cf57600591610257366107de565b90610260610865565b8552600260205283828620600381016102798154610e49565b90558481016102888154610e49565b9055016102958154610e49565b905584526003602052832090600382016102af8154610e49565b905581016102bd8154610e49565b9055016102ca8154610e49565b905580f35b8280fd5b503461020c576102f36102e5366107de565b906102ee610865565b610aa1565b92825193849215158352602090848285015280518095850152825b85811061034e57505050601f837fffffffffffffffffffffffffffffffffffffffffffffffffffffffffffffffe092606080968601015201168101030190f35b81810183015187820160600152869450820161030e565b503461020c578160031936011261020c57602090517ff7b34cf87af24ce01c1aff9f518b133989851466d994e0016fc14651fa02826c8152f35b509034610410576020600319360112610410578161040c918435815260036020522091825492600181015494600282015460056003840154928401549301549351968796879260a094919796959260c0850198855260208501526040840152606083015260808201520152565b0390f35b80fd5b503461020c578160031936011261020c5751908152602090f35b503461020c5760ff81602093610442366107a6565b90825281865273ffffffffffffffffffffffffffffffffffffffff83832091168252855220541690519015158152f35b5090346104105780600319360112610410575060ff602092541690519015158152f35b5082346102cf5760206003193601126102cf5760809282913581526001602052209081549160018101549160ff6003600284015493015416928151948552602085015283015215156060820152f35b50919034610410576020600319360112610410578261040c91833581526003602052209260056003850154938501549401549051938493846040919493926060820195825260208201520152565b509034610410576020600319360112610410578161040c918435815260026020522091825492600181015494600282015460056003840154928401549301549351968796879260a094919796959260c0850198855260208501526040840152606083015260808201520152565b82843461020c57602060031936011261020c5780358015158091036102cf576105c66107f4565b60ff7fffffffffffffffffffffffffffffffffffffffffffffffffffffffffffffff00835416911617905580f35b503461020c57610603366107a6565b913373ffffffffffffffffffffffffffffffffffffffff84160361062c57509061024091610991565b8490517f6697b232000000000000000000000000000000000000000000000000000000008152fd5b503461020c578160031936011261020c576020906005549051908152f35b503461020c5760016102409161068a610228366107a6565b6108e7565b5082346102cf5760206003193601126102cf57816020936001923581528085522001549051908152f35b50919034610410576020600319360112610410578261040c91833581526002602052209260056003850154938501549401549051938493846040919493926060820195825260208201520152565b839085346102cf5760206003193601126102cf57357fffffffff0000000000000000000000000000000000000000000000000000000081168091036102cf57602092507f7965db0b00000000000000000000000000000000000000000000000000000000811490811561077c575b5015158152f35b7f01ffc9a70000000000000000000000000000000000000000000000000000000091501483610775565b60031960409101126107d9576004359060243573ffffffffffffffffffffffffffffffffffffffff811681036107d95790565b600080fd5b60031960409101126107d9576004359060243590565b3360009081527fad3228b676f7d3cd4284a5443f17f1962b36e491b30a40b2405849e597ba5fb5602052604081205460ff161561082e5750565b604490604051907fe2517d3f0000000000000000000000000000000000000000000000000000000082523360048301526024820152fd5b3360009081527f5fd6a7d52a124dba1daa3d033799972a5420d7d387145fab1c33aef3e344354560205260409020547ff7b34cf87af24ce01c1aff9f518b133989851466d994e0016fc14651fa02826c9060ff161561082e5750565b80600052600060205260406000203360005260205260ff604060002054161561082e5750565b906000918083528260205273ffffffffffffffffffffffffffffffffffffffff6040842092169182845260205260ff6040842054161560001461098c5780835282602052604083208284526020526040832060017fffffffffffffffffffffffffffffffffffffffffffffffffffffffffffffff008254161790557f2f8788117e7eff1d82e926ec794901d17c78024a50270940304540a733656f0d339380a4600190565b505090565b906000918083528260205273ffffffffffffffffffffffffffffffffffffffff6040842092169182845260205260ff60408420541660001461098c578083528260205260408320828452602052604083207fffffffffffffffffffffffffffffffffffffffffffffffffffffffffffffff0081541690557ff6391f5c32d9c69d2a47ea670b442974b53935d1edc7fd64eb21e047a839171b339380a4600190565b604051906020820182811067ffffffffffffffff821117610a5257604052565b7f4e487b7100000000000000000000000000000000000000000000000000000000600052604160045260246000fd5b604051906060820182811067ffffffffffffffff821117610a5257604052565b9160049260ff84541615610e33576000928084526020906001825260409283862060ff60038201541615610e2057818752600284528487208054603c8101809111610df457421015610de6575b600181018054610e108101809111610dac57421015610dd8575b50600281018054620151808101809111610dac57421015610d9d575b50600381015482541115610ce7578881015460018301541115610c3357600560029101549101541115610b695750505050909150600191610b63610a32565b90815290565b7fd122840da8e10e06eb664ec752e186e4662bbd709000aa8ac3beac9bd5e31cba606085518581526003868201527f646179000000000000000000000000000000000000000000000000000000000087820152a3838251928084019184831067ffffffffffffffff841117610c075750528082527f52617465206c696d69743a206d6178207065722064617920657863656564656490820152919250565b806041897f4e487b71000000000000000000000000000000000000000000000000000000006024945252fd5b50507fd122840da8e10e06eb664ec752e186e4662bbd709000aa8ac3beac9bd5e31cba606085987f640000000000000000000000000000000000000000000000000000000000000096989597985190888252888201527f686f7572000000000000000000000000000000000000000000000000000000008a820152a3937f52617465206c696d69743a206d61782070657220686f75722065786365656465610cd9610a81565b936021855284015282015290565b50508396507fd122840da8e10e06eb664ec752e186e4662bbd709000aa8ac3beac9bd5e31cba60607f64656400000000000000000000000000000000000000000000000000000000009597949697518781526006888201527f6d696e75746500000000000000000000000000000000000000000000000000008a820152a3937f52617465206c696d69743a206d617820706572206d696e757465206578636565610d8f610a81565b936023855284015282015290565b88600583015542905538610b24565b60248a60118d7f4e487b7100000000000000000000000000000000000000000000000000000000835252fd5b888a83015542905538610b08565b876003820155428155610aee565b60248960118c7f4e487b7100000000000000000000000000000000000000000000000000000000835252fd5b5050505050909150600191610b63610a32565b50915050600190610e42610a32565b6000815290565b7fffffffffffffffffffffffffffffffffffffffffffffffffffffffffffffffff8114610e765760010190565b7f4e487b7100000000000000000000000000000000000000000000000000000000600052601160045260246000fdfea2646970667358221220a03bdf5944c5e4928976a691fa8a46de544077adb8fd5b36d8af0db77509cce964736f6c634300081400332f8788117e7eff1d82e926ec794901d17c78024a50270940304540a733656f0d",
  "linkReferences": {},
  "deployedLinkReferences": {}
}