{
  "_format": "hh-sol-artifact-1",
  "contractName": "EntityMarketplace",
  "sourceName": "contracts/economy/EntityMarketplace.sol",
  "abi": [
    {
      "inputs": [],
      "stateMutability": "nonpayable",
      "type": "constructor"
    },
    {
      "inputs": [
        {
          "internalType": "address",
          "name": "owner",
          "type": "address"
        }
      ],
      "name": "OwnableInvalidOwner",
      "type": "error"
    },
    {
      "inputs": [
        {
          "internalType": "address",
          "name": "account",
          "type": "address"
        }
      ],
      "name": "OwnableUnauthorizedAccount",
      "type": "error"
    },
    {
      "inputs": [],
      "name": "ReentrancyGuardReentrantCall",
      "type": "error"
    },
    {
      "anonymous": false,
      "inputs": [
        {
          "indexed": true,
          "internalType": "uint256",
          "name": "listingId",
          "type": "uint256"
        },
        {
          "indexed": true,
          "internalType": "address",
          "name": "seller",
          "type": "address"
        },
        {
          "indexed": true,
          "internalType": "uint256",
          "name": "tokenId",
          "type": "uint256"
        },
        {
          "indexed": false,
          "internalType": "uint256",
          "name": "price",
          "type": "uint256"
        }
      ],
      "name": "EntityListed",
      "type": "event"
    },
    {
      "anonymous": false,
      "inputs": [
        {
          "indexed": true,
          "internalType": "uint256",
          "name": "listingId",
          "type": "uint256"
        },
        {
          "indexed": true,
          "internalType": "address",
          "name": "buyer",
          "type": "address"
        },
        {
          "indexed": false,
          "internalType": "uint256",
          "name": "price",
          "type": "uint256"
        }
      ],
      "name": "EntitySold",
      "type": "event"
    },
    {
      "anonymous": false,
      "inputs": [
        {
          "indexed": true,
          "internalType": "uint256",
          "name": "listingId",
          "type": "uint256"
        }
      ],
      "name": "ListingCanceled",
      "type": "event"
    },
    {
      "anonymous": false,
      "inputs": [
        {
          "indexed": true,
          "internalType": "uint256",
          "name": "listingId",
          "type": "uint256"
        },
        {
          "indexed": true,
          "internalType": "address",
          "name": "offerer",
          "type": "address"
        },
        {
          "indexed": false,
          "internalType": "uint256",
          "name": "amount",
          "type": "uint256"
        }
      ],
      "name": "OfferAccepted",
      "type": "event"
    },
    {
      "anonymous": false,
      "inputs": [
        {
          "indexed": true,
          "internalType": "uint256",
          "name": "listingId",
          "type": "uint256"
        },
        {
          "indexed": true,
          "internalType": "address",
          "name": "offerer",
          "type": "address"
        },
        {
          "indexed": false,
          "internalType": "uint256",
          "name": "amount",
          "type": "uint256"
        }
      ],
      "name": "OfferMade",
      "type": "event"
    },
    {
      "anonymous": false,
      "inputs": [
        {
          "indexed": true,
          "internalType": "address",
          "name": "previousOwner",
          "type": "address"
        },
        {
          "indexed": true,
          "internalType": "address",
          "name": "newOwner",
          "type": "address"
        }
      ],
      "name": "OwnershipTransferred",
      "type": "event"
    },
    {
      "inputs": [],
      "name": "FEE_DENOMINATOR",
      "outputs": [
        {
          "internalType": "uint256",
          "name": "",
          "type": "uint256"
        }
      ],
      "stateMutability": "view",
      "type": "function"
    },
    {
      "inputs": [
        {
          "internalType": "uint256",
          "name": "listingId",
          "type": "uint256"
        },
        {
          "internalType": "uint256",
          "name": "offerIndex",
          "type": "uint256"
        }
      ],
      "name": "acceptOffer",
      "outputs": [],
      "stateMutability": "nonpayable",
      "type": "function"
    },
    {
      "inputs": [
        {
          "internalType": "uint256",
          "name": "listingId",
          "type": "uint256"
        }
      ],
      "name": "buyEntity",
      "outputs": [],
      "stateMutability": "payable",
      "type": "function"
    },
    {
      "inputs": [
        {
          "internalType": "uint256",
          "name": "listingId",
          "type": "uint256"
        }
      ],
      "name": "cancelListing",
      "outputs": [],
      "stateMutability": "nonpayable",
      "type": "function"
    },
    {
      "inputs": [
        {
          "internalType": "uint256",
          "name": "listingId",
          "type": "uint256"
        }
      ],
      "name": "finalizeAuction",
      "outputs": [],
      "stateMutability": "nonpayable",
      "type": "function"
    },
    {
      "inputs": [],
      "name": "getMarketplaceStats",
      "outputs": [
        {
          "internalType": "uint256",
          "name": "totalListings",
          "type": "uint256"
        },
        {
          "internalType": "uint256",
          "name": "volume",
          "type": "uint256"
        },
        {
          "internalType": "uint256",
          "name": "sales",
          "type": "uint256"
        },
        {
          "internalType": "uint256",
          "name": "fee",
          "type": "uint256"
        }
      ],
      "stateMutability": "view",
      "type": "function"
    },
    {
      "inputs": [
        {
          "internalType": "address",
          "name": "nftContract",
          "type": "address"
        },
        {
          "internalType": "uint256",
          "name": "tokenId",
          "type": "uint256"
        },
        {
          "internalType": "uint256",
          "name": "price",
          "type": "uint256"
        },
        {
          "internalType": "bool",
          "name": "isAuction",
          "type": "bool"
        },
        {
          "internalType": "uint256",
          "name": "auctionDuration",
          "type": "uint256"
        }
      ],
      "name": "listEntity",
      "outputs": [
        {
          "internalType": "uint256",
          "name": "",
          "type": "uint256"
        }
      ],
      "stateMutability": "nonpayable",
      "type": "function"
    },
    {
      "inputs": [],
      "name": "listingCount",
      "outputs": [
        {
          "internalType": "uint256",
          "name": "",
          "type": "uint256"
        }
      ],
      "stateMutability": "view",
      "type": "function"
    },
    {
      "inputs": [
        {
          "internalType": "uint256",
          "name": "",
          "type": "uint256"
        }
      ],
      "name": "listings",
      "outputs": [
        {
          "internalType": "uint256",
          "name": "tokenId",
          "type": "uint256"
        },
        {
          "internalType": "address",
          "name": "nftContract",
          "type": "address"
        },
        {
          "internalType": "address",
          "name": "seller",
          "type": "address"
        },
        {
          "internalType": "uint256",
          "name": "price",
          "type": "uint256"
        },
        {
          "internalType": "uint256",
          "name": "listedAt",
          "type": "uint256"
        },
        {
          "internalType": "bool",
          "name": "active",
          "type": "bool"
        },
        {
          "internalType": "bool",
          "name": "isAuction",
          "type": "bool"
        },
        {
          "internalType": "uint256",
          "name": "auctionEndTime",
          "type": "uint256"
        },
        {
          "internalType": "address",
          "name": "highestBidder",
          "type": "address"
        },
        {
          "internalType": "uint256",
          "name": "highestBid",
          "type": "uint256"
        }
      ],
      "stateMutability": "view",
      "type": "function"
    },
    {
      "inputs": [
        {
          "internalType": "uint256",
          "name": "listingId",
          "type": "uint256"
        },
        {
          "internalType": "uint256",
          "name": "duration",
          "type": "uint256"
        }
      ],
      "name": "makeOffer",
      "outputs": [],
      "stateMutability": "payable",
      "type": "function"
    },
    {
      "inputs": [
        {
          "internalType": "uint256",
          "name": "",
          "type": "uint256"
        },
        {
          "internalType": "uint256",
          "name": "",
          "type": "uint256"
        }
      ],
      "name": "offers",
      "outputs": [
        {
          "internalType": "address",
          "name": "offerer",
          "type": "address"
        },
        {
          "internalType": "uint256",
          "name": "amount",
          "type": "uint256"
        },
        {
          "internalType": "uint256",
          "name": "expiresAt",
          "type": "uint256"
        },
        {
          "internalType": "bool",
          "name": "active",
          "type": "bool"
        }
      ],
      "stateMutability": "view",
      "type": "function"
    },
    {
      "inputs": [],
      "name": "owner",
      "outputs": [
        {
          "internalType": "address",
          "name": "",
          "type": "address"
        }
      ],
      "stateMutability": "view",
      "type": "function"
    },
    {
      "inputs": [
        {
          "internalType": "uint256",
          "name": "listingId",
          "type": "uint256"
        }
      ],
      "name": "placeBid",
      "outputs": [],
      "stateMutability": "payable",
      "type": "function"
    },
    {
      "inputs": [],
      "name": "platformFee",
      "outputs": [
        {
          "internalType": "uint256",
          "name": "",
          "type": "uint256"
        }
      ],
      "stateMutability": "view",
      "type": "function"
    },
    {
      "inputs": [],
      "name": "renounceOwnership",
      "outputs": [],
      "stateMutability": "nonpayable",
      "type": "function"
    },
    {
      "inputs": [],
      "name": "totalSales",
      "outputs": [
        {
          "internalType": "uint256",
          "name": "",
          "type": "uint256"
        }
      ],
      "stateMutability": "view",
      "type": "function"
    },
    {
      "inputs": [],
      "name": "totalVolume",
      "outputs": [
        {
          "internalType": "uint256",
          "name": "",
          "type": "uint256"
        }
      ],
      "stateMutability": "view",
      "type": "function"
    },
    {
      "inputs": [
        {
          "internalType": "address",
          "name": "newOwner",
          "type": "address"
        }
      ],
      "name": "transferOwnership",
      "outputs": [],
      "stateMutability": "nonpayable",
      "type": "function"
    },
    {
      "inputs": [],
      "name": "withdrawFees",
      "outputs": [],
      "stateMutability": "nonpayable",
      "type": "function"
    }
  ],
  "bytecode": "0x6080806040523461008357331561006d5760008054336001600160a01b03198216811783556040519290916001600160a01b0316907f8be0079c531659141344cd1fd0a4f28419497f9722a3daafe3b4186f6b6457e09080a36001805560fa6005556112d790816100898239f35b631e4fbdf760e01b815260006004820152602490fd5b600080fdfe6080604081815260048036101561001557600080fd5b600092833560e01c90816305b7cdd314610e395750806308e542d414610bed57806325e4d7af14610a2657806326232a2e14610a07578063305a67a814610940578063476343ee146108e35780634d03a9a51461086b5780635f81a57c1461084c5780636605ff661461082d578063715018a6146107ac57806381257bd5146105ec578063812d966a146105b55780638da5cb5b146105825780639979ef4514610416578063a9b07c26146103f9578063d73792a9146103d8578063de74e57b1461032b578063e8083863146101bb5763f2fde38b146100f457600080fd5b346101b75760206003193601126101b75761010d61103d565b906101166110ab565b73ffffffffffffffffffffffffffffffffffffffff8092169283156101885750508254827fffffffffffffffffffffffff00000000000000000000000000000000000000008216178455167f8be0079c531659141344cd1fd0a4f28419497f9722a3daafe3b4186f6b6457e08380a380f35b908460249251917f1e4fbdf7000000000000000000000000000000000000000000000000000000008352820152fd5b8280fd5b5090346101b75760206003193601126101b7578135906101d96111d0565b81845260026020528084209260058401908154906101f960ff8316611165565b61020860ff8360081c1661120b565b600686015442106102e8575060ff191690556007830173ffffffffffffffffffffffffffffffffffffffff9081815416610245575b856001805580f35b8580808060088901988660028b5492610279610270612710610269600554886111b0565b04866111c3565b94600654611158565b6006556102876007546110fc565b6007550154168282156102df575bf1156102d557916020917f2bc8dc875cfbbcce949fafd4b69413651cc7907e02a55422961dedb0fc475cac93541694549051908152a3388080808061023d565b82513d87823e3d90fd5b506108fc610295565b606490602085519162461bcd60e51b8352820152601160248201527f41756374696f6e206e6f7420656e6465640000000000000000000000000000006044820152fd5b50346101b75760206003193601126101b75781610140938235815260026020522080549260ff73ffffffffffffffffffffffffffffffffffffffff918260018501541694836002860154169060038601549086015491600587015493600860068901549760078a0154169801549881519a8b5260208b015289015260608801526080870152818116151560a087015260081c16151560c085015260e0840152610100830152610120820152f35b5050346103f557816003193601126103f557602090516127108152f35b5080fd5b50346101b757826003193601126101b75760209250549051908152f35b5060206003193601126101b75761042b6111d0565b8035835260026020528183209161045660ff600585015461044d828216611165565b60081c1661120b565b600683015442101561053f576008830192835492833411156104fc575060078591019273ffffffffffffffffffffffffffffffffffffffff84541690816104ce575b50505050337fffffffffffffffffffffffff00000000000000000000000000000000000000008254161790553490556001805580f35b8280929181928282156104f3575bf1156104ea57838180610498565b513d84823e3d90fd5b506108fc6104dc565b606490602084519162461bcd60e51b8352820152600b60248201527f42696420746f6f206c6f770000000000000000000000000000000000000000006044820152fd5b906020606492519162461bcd60e51b8352820152600d60248201527f41756374696f6e20656e646564000000000000000000000000000000000000006044820152fd5b5050346103f557816003193601126103f55773ffffffffffffffffffffffffffffffffffffffff60209254169051908152f35b50346101b757826003193601126101b757608092505490600654906007549060055492815194855260208501528301526060820152f35b509190346103f5576105fd36611022565b6106089291926111d0565b82845260026020528184209060028201600573ffffffffffffffffffffffffffffffffffffffff9361063e858454163314611256565b019661066288549361065260ff8616611165565b8789526003602052868920611060565b5092600384019160ff8354161561076957600285015442101561072657509680809986829583956106aa9c60018a019d8e546127106106a3600554836111b0565b04906111c3565b9460ff19809216905581541690556106c58c54600654611158565b6006556106d36007546110fc565b600755541682821561071d575bf1156102d557916020917fea555ab99331ceac5051c58f17cc7b411b30241b0e28cb93a7d3a24c77a7a9a993541694549051908152a36001805580f35b506108fc6106e0565b606490602088519162461bcd60e51b8352820152600d60248201527f4f666665722065787069726564000000000000000000000000000000000000006044820152fd5b606490602088519162461bcd60e51b8352820152600e60248201527f4f6666657220696e6163746976650000000000000000000000000000000000006044820152fd5b833461082a578060031936011261082a576107c56110ab565b8073ffffffffffffffffffffffffffffffffffffffff81547fffffffffffffffffffffffff000000000000000000000000000000000000000081168355167f8be0079c531659141344cd1fd0a4f28419497f9722a3daafe3b4186f6b6457e08280a380f35b80fd5b5050346103f557816003193601126103f5576020906007549051908152f35b5050346103f557816003193601126103f5576020906006549051908152f35b5050346103f55761087b36611022565b92908152600360205281812090815484101561082a575060809261089e91611060565b509073ffffffffffffffffffffffffffffffffffffffff8254169160018101549160ff6003600284015493015416928151948552602085015283015215156060820152f35b5050346103f557816003193601126103f5576108fd6110ab565b8180808073ffffffffffffffffffffffffffffffffffffffff8154164790828215610937575bf11561092d575080f35b51903d90823e3d90fd5b506108fc610923565b50346101b75760206003193601126101b7578035918284526002602052600581852061098773ffffffffffffffffffffffffffffffffffffffff6002830154163314611256565b019182549160ff8316156109c457505060ff191690557f5d7a33421ffa4bc07eb8929c5ace6393d3aa5ec3775e4e2f442527876b7dbe888280a280f35b906020606492519162461bcd60e51b8352820152601060248201527f416c726561647920696e616374697665000000000000000000000000000000006044820152fd5b5050346103f557816003193601126103f5576020906005549051908152f35b5060206003193601126101b757803590610a3e6111d0565b8184526002602052828420906005820191825491610a5e60ff8416611165565b60ff8360081c16610baa576003820193845491823410610b675750879373ffffffffffffffffffffffffffffffffffffffff60028695610ac38796879660ff19610ab7612710610ab0600554866111b0565b04846111c3565b97169055600654611158565b600655610ad16007546110fc565b600755015416828215610b5e575bf115610b4957838154803411610b25575b50505491519182527f2bc8dc875cfbbcce949fafd4b69413651cc7907e02a55422961dedb0fc475cac60203393a36001805580f35b8180610b328193346111c3565b818115610b55575b3390f115610b49578338610af0565b505051903d90823e3d90fd5b506108fc610b3a565b506108fc610adf565b606490602089519162461bcd60e51b8352820152601460248201527f496e73756666696369656e74207061796d656e740000000000000000000000006044820152fd5b606490602087519162461bcd60e51b8352820152601260248201527f43616e6e6f74206275792061756374696f6e00000000000000000000000000006044820152fd5b50913461082a5760a060031936011261082a57610c0861103d565b90602435916044359160643595861515928388036101b7578415610df657815497610c32896110fc565b835515610df057610c4560843542611158565b875194610140860186811067ffffffffffffffff821117610dc457859493929187918b52898252602082019473ffffffffffffffffffffffffffffffffffffffff80951686528c8c80850133815260608601918d83528a608088019442865260a089019860018a5260c0810198895260e081019a8b5261010081019d8e52610120019d8e5281526002602052209b518c558760018d01995116987fffffffffffffffffffffffff0000000000000000000000000000000000000000998a8254161790558760028d01915116898254161790555160038b015551908901556005880191511515610d4190839060ff60ff1983541691151516179055565b51151581549060081b61ff0016907fffffffffffffffffffffffffffffffffffffffffffffffffffffffffffff00ff161790555160068601556007850192511690825416179055519060080155825190815283339160207f9bb2b545833551231474b01c9c04b12f2c5b2b1c8cc0b9b8d0895b30b842546a91a451908152602090f35b6024866041877f4e487b7100000000000000000000000000000000000000000000000000000000835252fd5b82610c45565b606482602089519162461bcd60e51b8352820152600d60248201527f496e76616c6964207072696365000000000000000000000000000000000000006044820152fd5b92919050610e4636611022565b90933415610fe157508385526003602052610e648386209142611158565b83516080810181811067ffffffffffffffff821117610fb5578552338152602081019034825285810192835260608101936001855280549068010000000000000000821015610f895790610ebd91600182018155611060565b959095610f5e575091610f3094939173ffffffffffffffffffffffffffffffffffffffff60039451167fffffffffffffffffffffffff000000000000000000000000000000000000000086541617855551600185015551600284015551151591019060ff60ff1983541691151516179055565b51903482527fbdf1e76c2ba2a5c85b93bf78678a4a3b06d63b18422612dac8d7d5249ed4671460203393a380f35b88806024927f4e487b7100000000000000000000000000000000000000000000000000000000825252fd5b60248a6041897f4e487b7100000000000000000000000000000000000000000000000000000000835252fd5b6024886041877f4e487b7100000000000000000000000000000000000000000000000000000000835252fd5b8060208462461bcd60e51b60649452820152600d60248201527f496e76616c6964206f66666572000000000000000000000000000000000000006044820152fd5b6003196040910112611038576004359060243590565b600080fd5b6004359073ffffffffffffffffffffffffffffffffffffffff8216820361103857565b805482101561107c5760005260206000209060021b0190600090565b7f4e487b7100000000000000000000000000000000000000000000000000000000600052603260045260246000fd5b73ffffffffffffffffffffffffffffffffffffffff6000541633036110cc57565b60246040517f118cdaa7000000000000000000000000000000000000000000000000000000008152336004820152fd5b7fffffffffffffffffffffffffffffffffffffffffffffffffffffffffffffffff81146111295760010190565b7f4e487b7100000000000000000000000000000000000000000000000000000000600052601160045260246000fd5b9190820180921161112957565b1561116c57565b606460405162461bcd60e51b815260206004820152601060248201527f4c697374696e6720696e616374697665000000000000000000000000000000006044820152fd5b8181029291811591840414171561112957565b9190820391821161112957565b6002600154146111e1576002600155565b60046040517f3ee5aeb5000000000000000000000000000000000000000000000000000000008152fd5b1561121257565b606460405162461bcd60e51b815260206004820152600e60248201527f4e6f7420616e2061756374696f6e0000000000000000000000000000000000006044820152fd5b1561125d57565b606460405162461bcd60e51b815260206004820152600a60248201527f4e6f742073656c6c6572000000000000000000000000000000000000000000006044820152fdfea26469706673582212207eb1898104b2952f7cbeddadc9c85f7e8d1fbd5a9e4b4822f75337ceaaa0ca0164736f6c63430008140033",
  "linkReferences": {},
  "deployedLinkReferences": {}
}