{
  "_format": "hh-sol-artifact-1",
  "contractName": "OANEntity",
  "sourceName": "contracts/OANEntity.sol",
  "abi": [
    {
      "inputs": [],
      "stateMutability": "nonpayable",
      "type": "constructor"
    },
    {
      "inputs": [],
      "name": "ERC721EnumerableForbiddenBatchMint",
      "type": "error"
    },
    {
      "inputs": [
        {
          "internalType": "address",
          "name": "sender",
          "type": "address"
        },
        {
          "internalType": "uint256",
          "name": "tokenId",
          "type": "uint256"
        },
        {
          "internalType": "address",
          "name": "owner",
          "type": "address"
        }
      ],
      "name": "ERC721IncorrectOwner",
      "type": "error"
    },
    {
      "inputs": [
        {
          "internalType": "address",
          "name": "operator",
          "type": "address"
        },
        {
          "internalType": "uint256",
          "name": "tokenId",
          "type": "uint256"
        }
      ],
      "name": "ERC721InsufficientApproval",
      "type": "error"
    },
    {
      "inputs": [
        {
          "internalType": "address",
          "name": "approver",
          "type": "address"
        }
      ],
      "name": "ERC721InvalidApprover",
      "type": "error"
    },
    {
      "inputs": [
        {
          "internalType": "address",
          "name": "operator",
          "type": "address"
        }
      ],
      "name": "ERC721InvalidOperator",
      "type": "error"
    },
    {
      "inputs": [
        {
          "internalType": "address",
          "name": "owner",
          "type": "address"
        }
      ],
      "name": "ERC721InvalidOwner",
      "type": "error"
    },
    {
      "inputs": [
        {
          "internalType": "address",
          "name": "receiver",
          "type": "address"
        }
      ],
      "name": "ERC721InvalidReceiver",
      "type": "error"
    },
    {
      "inputs": [
        {
          "internalType": "address",
          "name": "sender",
          "type": "address"
        }
      ],
      "name": "ERC721InvalidSender",
      "type": "error"
    },
    {
      "inputs": [
        {
          "internalType": "uint256",
          "name": "tokenId",
          "type": "uint256"
        }
      ],
      "name": "ERC721NonexistentToken",
      "type": "error"
    },
    {
      "inputs": [
        {
          "internalType": "address",
          "name": "owner",
          "type": "address"
        },
        {
          "internalType": "uint256",
          "name": "index",
          "type": "uint256"
        }
      ],
      "name": "ERC721OutOfBoundsIndex",
      "type": "error"
    },
    {
      "inputs": [
        {
          "internalType": "address",
          "name": "owner",
          "type": "address"
        }
      ],
      "name": "OwnableInvalidOwner",
      "type": "error"
    },
    {
      "inputs": [
        {
          "internalType": "address",
          "name": "account",
          "type": "address"
        }
      ],
      "name": "OwnableUnauthorizedAccount",
      "type": "error"
    },
    {
      "anonymous": false,
      "inputs": [
        {
          "indexed": true,
          "internalType": "address",
          "name": "owner",
          "type": "address"
        },
        {
          "indexed": true,
          "internalType": "address",
          "name": "approved",
          "type": "address"
        },
        {
          "indexed": true,
          "internalType": "uint256",
          "name": "tokenId",
          "type": "uint256"
        }
      ],
      "name": "Approval",
      "type": "event"
    },
    {
      "anonymous": false,
      "inputs": [
        {
          "indexed": true,
          "internalType": "address",
          "name": "owner",
          "type": "address"
        },
        {
          "indexed": true,
          "internalType": "address",
          "name": "operator",
          "type": "address"
        },
        {
          "indexed": false,
          "internalType": "bool",
          "name": "approved",
          "type": "bool"
        }
      ],
      "name": "ApprovalForAll",
      "type": "event"
    },
    {
      "anonymous": false,
      "inputs": [
        {
          "indexed": false,
          "internalType": "uint256",
          "name": "_fromTokenId",
          "type": "uint256"
        },
        {
          "indexed": false,
          "internalType": "uint256",
          "name": "_toTokenId",
          "type": "uint256"
        }
      ],
      "name": "BatchMetadataUpdate",
      "type": "event"
    },
    {
      "anonymous": false,
      "inputs": [
        {
          "indexed": true,
          "internalType": "uint256",
          "name": "tokenId",
          "type": "uint256"
        },
        {
          "indexed": false,
          "internalType": "string",
          "name": "name",
          "type": "string"
        },
        {
          "indexed": false,
          "internalType": "address",
          "name": "owner",
          "type": "address"
        }
      ],
      "name": "EntityMinted",
      "type": "event"
    },
    {
      "anonymous": false,
      "inputs": [
        {
          "indexed": false,
          "internalType": "uint256",
          "name": "_tokenId",
          "type": "uint256"
        }
      ],
      "name": "MetadataUpdate",
      "type": "event"
    },
    {
      "anonymous": false,
      "inputs": [
        {
          "indexed": true,
          "internalType": "address",
          "name": "previousOwner",
          "type": "address"
        },
        {
          "indexed": true,
          "internalType": "address",
          "name": "newOwner",
          "type": "address"
        }
      ],
      "name": "OwnershipTransferred",
      "type": "event"
    },
    {
      "anonymous": false,
      "inputs": [
        {
          "indexed": true,
          "internalType": "address",
          "name": "from",
          "type": "address"
        },
        {
          "indexed": true,
          "internalType": "address",
          "name": "to",
          "type": "address"
        },
        {
          "indexed": true,
          "internalType": "uint256",
          "name": "tokenId",
          "type": "uint256"
        }
      ],
      "name": "Transfer",
      "type": "event"
    },
    {
      "inputs": [
        {
          "internalType": "address",
          "name": "to",
          "type": "address"
        },
        {
          "internalType": "uint256",
          "name": "tokenId",
          "type": "uint256"
        }
      ],
      "name": "approve",
      "outputs": [],
      "stateMutability": "nonpayable",
      "type": "function"
    },
    {
      "inputs": [
        {
          "internalType": "address",
          "name": "owner",
          "type": "address"
        }
      ],
      "name": "balanceOf",
      "outputs": [
        {
          "internalType": "uint256",
          "name": "",
          "type": "uint256"
        }
      ],
      "stateMutability": "view",
      "type": "function"
    },
    {
      "inputs": [
        {
          "internalType": "uint256",
          "name": "",
          "type": "uint256"
        },
        {
          "internalType": "uint256",
          "name": "",
          "type": "uint256"
        }
      ],
      "name": "children",
      "outputs": [
        {
          "internalType": "uint256",
          "name": "",
          "type": "uint256"
        }
      ],
      "stateMutability": "view",
      "type": "function"
    },
    {
      "inputs": [
        {
          "internalType": "uint256",
          "name": "",
          "type": "uint256"
        }
      ],
      "name": "entities",
      "outputs": [
        {
          "internalType": "string",
          "name": "name",
          "type": "string"
        },
        {
          "internalType": "string",
          "name": "entityType",
          "type": "string"
        },
        {
          "internalType": "uint256",
          "name": "energy",
          "type": "uint256"
        },
        {
          "internalType": "int256",
          "name": "reputation",
          "type": "int256"
        },
        {
          "internalType": "uint256",
          "name": "parentTokenId",
          "type": "uint256"
        },
        {
          "internalType": "uint256",
          "name": "generation",
          "type": "uint256"
        },
        {
          "internalType": "uint256",
          "name": "spawnedAt",
          "type": "uint256"
        },
        {
          "internalType": "bytes32",
          "name": "dslHash",
          "type": "bytes32"
        },
        {
          "internalType": "bool",
          "name": "active",
          "type": "bool"
        }
      ],
      "stateMutability": "view",
      "type": "function"
    },
    {
      "inputs": [
        {
          "internalType": "uint256",
          "name": "tokenId",
          "type": "uint256"
        }
      ],
      "name": "getApproved",
      "outputs": [
        {
          "internalType": "address",
          "name": "",
          "type": "address"
        }
      ],
      "stateMutability": "view",
      "type": "function"
    },
    {
      "inputs": [
        {
          "internalType": "uint256",
          "name": "tokenId",
          "type": "uint256"
        }
      ],
      "name": "getEntity",
      "outputs": [
        {
          "components": [
            {
              "internalType": "string",
              "name": "name",
              "type": "string"
            },
            {
              "internalType": "string",
              "name": "entityType",
              "type": "string"
            },
            {
              "internalType": "uint256",
              "name": "energy",
              "type": "uint256"
            },
            {
              "internalType": "int256",
              "name": "reputation",
              "type": "int256"
            },
            {
              "internalType": "uint256",
              "name": "parentTokenId",
              "type": "uint256"
            },
            {
              "internalType": "uint256",
              "name": "generation",
              "type": "uint256"
            },
            {
              "internalType": "uint256",
              "name": "spawnedAt",
              "type": "uint256"
            },
            {
              "internalType": "bytes32",
              "name": "dslHash",
              "type": "bytes32"
            },
            {
              "internalType": "bool",
              "name": "active",
              "type": "bool"
            }
          ],
          "internalType": "struct OANEntity.EntityData",
          "name": "",
          "type": "tuple"
        }
      ],
      "stateMutability": "view",
      "type": "function"
    },
    {
      "inputs": [
        {
          "internalType": "address",
          "name": "owner",
          "type": "address"
        },
        {
          "internalType": "address",
          "name": "operator",
          "type": "address"
        }
      ],
      "name": "isApprovedForAll",
      "outputs": [
        {
          "internalType": "bool",
          "name": "",
          "type": "bool"
        }
      ],
      "stateMutability": "view",
      "type": "function"
    },
    {
      "inputs": [
        {
          "internalType": "address",
          "name": "to",
          "type": "address"
        },
        {
          "internalType": "string",
          "name": "name",
          "type": "string"
        },
        {
          "internalType": "string",
          "name": "entityType",
          "type": "string"
        },
        {
          "internalType": "bytes32",
          "name": "dslHash",
          "type": "bytes32"
        },
        {
          "internalType": "string",
          "name": "metadataURI",
          "type": "string"
        }
      ],
      "name": "mintEntity",
      "outputs": [
        {
          "internalType": "uint256",
          "name": "",
          "type": "uint256"
        }
      ],
      "stateMutability": "nonpayable",
      "type": "function"
    },
    {
      "inputs": [],
      "name": "name",
      "outputs": [
        {
          "internalType": "string",
          "name": "",
          "type": "string"
        }
      ],
      "stateMutability": "view",
      "type": "function"
    },
    {
      "inputs": [],
      "name": "owner",
      "outputs": [
        {
          "internalType": "address",
          "name": "",
          "type": "address"
        }
      ],
      "stateMutability": "view",
      "type": "function"
    },
    {
      "inputs": [
        {
          "internalType": "uint256",
          "name": "tokenId",
          "type": "uint256"
        }
      ],
      "name": "ownerOf",
      "outputs": [
        {
          "internalType": "address",
          "name": "",
          "type": "address"
        }
      ],
      "stateMutability": "view",
      "type": "function"
    },
    {
      "inputs": [],
      "name": "renounceOwnership",
      "outputs": [],
      "stateMutability": "nonpayable",
      "type": "function"
    },
    {
      "inputs": [
        {
          "internalType": "address",
          "name": "from",
          "type": "address"
        },
        {
          "internalType": "address",
          "name": "to",
          "type": "address"
        },
        {
          "internalType": "uint256",
          "name": "tokenId",
          "type": "uint256"
        }
      ],
      "name": "safeTransferFrom",
      "outputs": [],
      "stateMutability": "nonpayable",
      "type": "function"
    },
    {
      "inputs": [
        {
          "internalType": "address",
          "name": "from",
          "type": "address"
        },
        {
          "internalType": "address",
          "name": "to",
          "type": "address"
        },
        {
          "internalType": "uint256",
          "name": "tokenId",
          "type": "uint256"
        },
        {
          "internalType": "bytes",
          "name": "data",
          "type": "bytes"
        }
      ],
      "name": "safeTransferFrom",
      "outputs": [],
      "stateMutability": "nonpayable",
      "type": "function"
    },
    {
      "inputs": [
        {
          "internalType": "address",
          "name": "operator",
          "type": "address"
        },
        {
          "internalType": "bool",
          "name": "approved",
          "type": "bool"
        }
      ],
      "name": "setApprovalForAll",
      "outputs": [],
      "stateMutability": "nonpayable",
      "type": "function"
    },
    {
      "inputs": [
        {
          "internalType": "bytes4",
          "name": "interfaceId",
          "type": "bytes4"
        }
      ],
      "name": "supportsInterface",
      "outputs": [
        {
          "internalType": "bool",
          "name": "",
          "type": "bool"
        }
      ],
      "stateMutability": "view",
      "type": "function"
    },
    {
      "inputs": [],
      "name": "symbol",
      "outputs": [
        {
          "internalType": "string",
          "name": "",
          "type": "string"
        }
      ],
      "stateMutability": "view",
      "type": "function"
    },
    {
      "inputs": [
        {
          "internalType": "uint256",
          "name": "index",
          "type": "uint256"
        }
      ],
      "name": "tokenByIndex",
      "outputs": [
        {
          "internalType": "uint256",
          "name": "",
          "type": "uint256"
        }
      ],
      "stateMutability": "view",
      "type": "function"
    },
    {
      "inputs": [
        {
          "internalType": "address",
          "name": "owner",
          "type": "address"
        },
        {
          "internalType": "uint256",
          "name": "index",
          "type": "uint256"
        }
      ],
      "name": "tokenOfOwnerByIndex",
      "outputs": [
        {
          "internalType": "uint256",
          "name": "",
          "type": "uint256"
        }
      ],
      "stateMutability": "view",
      "type": "function"
    },
    {
      "inputs": [
        {
          "internalType": "uint256",
          "name": "tokenId",
          "type": "uint256"
        }
      ],
      "name": "tokenURI",
      "outputs": [
        {
          "internalType": "string",
          "name": "",
          "type": "string"
        }
      ],
      "stateMutability": "view",
      "type": "function"
    },
    {
      "inputs": [],
      "name": "totalSupply",
      "outputs": [
        {
          "internalType": "uint256",
          "name": "",
          "type": "uint256"
        }
      ],
      "stateMutability": "view",
      "type": "function"
    },
    {
      "inputs": [
        {
          "internalType": "address",
          "name": "from",
          "type": "address"
        },
        {
          "internalType": "address",
          "name": "to",
          "type": "address"
        },
        {
          "internalType": "uint256",
          "name": "tokenId",
          "type": "uint256"
        }
      ],
      "name": "transferFrom",
      "outputs": [],
      "stateMutability": "nonpayable",
      "type": "function"
    },
    {
      "inputs": [
        {
          "internalType": "address",
          "name": "newOwner",
          "type": "address"
        }
      ],
      "name": "transferOwnership",
      "outputs": [],
      "stateMutability": "nonpayable",
      "type": "function"
    }
  ],
  "bytecode": "0x60806040523480156200001157600080fd5b50336040518060400160405280600a81526020017f4f414e20456e74697479000000000000000000000000000000000000000000008152506040518060400160405280600481526020017f4f414e4500000000000000000000000000000000000000000000000000000000815250816000908162000090919062000472565b508060019081620000a2919062000472565b505050600073ffffffffffffffffffffffffffffffffffffffff168173ffffffffffffffffffffffffffffffffffffffff16036200011a5760006040517f1e4fbdf70000000000000000000000000000000000000000000000000000000081526004016200011191906200059e565b60405180910390fd5b6200012b816200013260201b60201c565b50620005bb565b6000600b60009054906101000a900473ffffffffffffffffffffffffffffffffffffffff16905081600b60006101000a81548173ffffffffffffffffffffffffffffffffffffffff021916908373ffffffffffffffffffffffffffffffffffffffff1602179055508173ffffffffffffffffffffffffffffffffffffffff168173ffffffffffffffffffffffffffffffffffffffff167f8be0079c531659141344cd1fd0a4f28419497f9722a3daafe3b4186f6b6457e060405160405180910390a35050565b600081519050919050565b7f4e487b7100000000000000000000000000000000000000000000000000000000600052604160045260246000fd5b7f4e487b7100000000000000000000000000000000000000000000000000000000600052602260045260246000fd5b600060028204905060018216806200027a57607f821691505b60208210810362000290576200028f62000232565b5b50919050565b60008190508160005260206000209050919050565b60006020601f8301049050919050565b600082821b905092915050565b600060088302620002fa7fffffffffffffffffffffffffffffffffffffffffffffffffffffffffffffffff82620002bb565b620003068683620002bb565b95508019841693508086168417925050509392505050565b6000819050919050565b6000819050919050565b6000620003536200034d62000347846200031e565b62000328565b6200031e565b9050919050565b6000819050919050565b6200036f8362000332565b620003876200037e826200035a565b848454620002c8565b825550505050565b600090565b6200039e6200038f565b620003ab81848462000364565b505050565b5b81811015620003d357620003c760008262000394565b600181019050620003b1565b5050565b601f8211156200042257620003ec8162000296565b620003f784620002ab565b8101602085101562000407578190505b6200041f6200041685620002ab565b830182620003b0565b50505b505050565b600082821c905092915050565b6000620004476000198460080262000427565b1980831691505092915050565b600062000462838362000434565b9150826002028217905092915050565b6200047d82620001f8565b67ffffffffffffffff81111562000499576200049862000203565b5b620004a5825462000261565b620004b2828285620003d7565b600060209050601f831160018114620004ea5760008415620004d5578287015190505b620004e1858262000454565b86555062000551565b601f198416620004fa8662000296565b60005b828110156200052457848901518255600182019150602085019450602081019050620004fd565b8683101562000544578489015162000540601f89168262000434565b8355505b6001600288020188555050505b505050505050565b600073ffffffffffffffffffffffffffffffffffffffff82169050919050565b6000620005868262000559565b9050919050565b620005988162000579565b82525050565b6000602082019050620005b560008301846200058d565b92915050565b6136de80620005cb6000396000f3fe608060405234801561001057600080fd5b506004361061014d5760003560e01c80636352211e116100c3578063a22cb4651161007c578063a22cb465146103e0578063b3a27842146103fc578063b88d4fde1461042c578063c87b56dd14610448578063e985e9c514610478578063f2fde38b146104a85761014d565b80636352211e1461030a57806370a082311461033a578063715018a61461036a5780638a460e5b146103745780638da5cb5b146103a457806395d89b41146103c25761014d565b806323b872dd1161011557806323b872dd1461020a5780632f745c5914610226578063327c1ce71461025657806342842e0e146102865780634f6ccce7146102a25780636331883b146102d25761014d565b806301ffc9a71461015257806306fdde0314610182578063081812fc146101a0578063095ea7b3146101d057806318160ddd146101ec575b600080fd5b61016c600480360381019061016791906126e8565b6104c4565b6040516101799190612730565b60405180910390f35b61018a6104d6565b60405161019791906127db565b60405180910390f35b6101ba60048036038101906101b59190612833565b610568565b6040516101c791906128a1565b60405180910390f35b6101ea60048036038101906101e591906128e8565b610584565b005b6101f461059a565b6040516102019190612937565b60405180910390f35b610224600480360381019061021f9190612952565b6105a7565b005b610240600480360381019061023b91906128e8565b6106a9565b60405161024d9190612937565b60405180910390f35b610270600480360381019061026b9190612b10565b610752565b60405161027d9190612937565b60405180910390f35b6102a0600480360381019061029b9190612952565b6108b4565b005b6102bc60048036038101906102b79190612833565b6108d4565b6040516102c99190612937565b60405180910390f35b6102ec60048036038101906102e79190612833565b61094a565b60405161030199989796959493929190612c07565b60405180910390f35b610324600480360381019061031f9190612833565b610ab5565b60405161033191906128a1565b60405180910390f35b610354600480360381019061034f9190612ca2565b610ac7565b6040516103619190612937565b60405180910390f35b610372610b81565b005b61038e60048036038101906103899190612ccf565b610b95565b60405161039b9190612937565b60405180910390f35b6103ac610bc6565b6040516103b991906128a1565b60405180910390f35b6103ca610bf0565b6040516103d791906127db565b60405180910390f35b6103fa60048036038101906103f59190612d3b565b610c82565b005b61041660048036038101906104119190612833565b610c98565b6040516104239190612ecd565b60405180910390f35b61044660048036038101906104419190612f90565b610eb8565b005b610462600480360381019061045d9190612833565b610edd565b60405161046f91906127db565b60405180910390f35b610492600480360381019061048d9190613013565b610eef565b60405161049f9190612730565b60405180910390f35b6104c260048036038101906104bd9190612ca2565b610f83565b005b60006104cf82611009565b9050919050565b6060600080546104e590613082565b80601f016020809104026020016040519081016040528092919081815260200182805461051190613082565b801561055e5780601f106105335761010080835404028352916020019161055e565b820191906000526020600020905b81548152906001019060200180831161054157829003601f168201915b5050505050905090565b60006105738261106a565b5061057d826110f2565b9050919050565b610596828261059161112f565b611137565b5050565b6000600880549050905090565b600073ffffffffffffffffffffffffffffffffffffffff168273ffffffffffffffffffffffffffffffffffffffff16036106195760006040517f64a0ae9200000000000000000000000000000000000000000000000000000000815260040161061091906128a1565b60405180910390fd5b600061062d838361062861112f565b611149565b90508373ffffffffffffffffffffffffffffffffffffffff168173ffffffffffffffffffffffffffffffffffffffff16146106a3578382826040517f64283d7b00000000000000000000000000000000000000000000000000000000815260040161069a939291906130b3565b60405180910390fd5b50505050565b60006106b483610ac7565b82106106f95782826040517fa57d13dc0000000000000000000000000000000000000000000000000000000081526004016106f09291906130ea565b60405180910390fd5b600660008473ffffffffffffffffffffffffffffffffffffffff1673ffffffffffffffffffffffffffffffffffffffff168152602001908152602001600020600083815260200190815260200160002054905092915050565b6000600c600081548092919061076790613142565b91905055506000600c54905061077d878261115f565b610787818461117d565b6040518061012001604052808781526020018681526020016064815260200160008152602001600081526020016001815260200143815260200185815260200160011515815250600d600083815260200190815260200160002060008201518160000190816107f69190613336565b50602082015181600101908161080c9190613336565b5060408201518160020155606082015181600301556080820151816004015560a0820151816005015560c0820151816006015560e082015181600701556101008201518160080160006101000a81548160ff021916908315150217905550905050807f617901933cfdb27797c712206f189671107ebe6eaa6bc009a401f5f10b119fd9878960405161089f929190613408565b60405180910390a28091505095945050505050565b6108cf83838360405180602001604052806000815250610eb8565b505050565b60006108de61059a565b8210610924576000826040517fa57d13dc00000000000000000000000000000000000000000000000000000000815260040161091b9291906130ea565b60405180910390fd5b6008828154811061093857610937613438565b5b90600052602060002001549050919050565b600d60205280600052604060002060009150905080600001805461096d90613082565b80601f016020809104026020016040519081016040528092919081815260200182805461099990613082565b80156109e65780601f106109bb576101008083540402835291602001916109e6565b820191906000526020600020905b8154815290600101906020018083116109c957829003601f168201915b5050505050908060010180546109fb90613082565b80601f0160208091040260200160405190810160405280929190818152602001828054610a2790613082565b8015610a745780601f10610a4957610100808354040283529160200191610a74565b820191906000526020600020905b815481529060010190602001808311610a5757829003601f168201915b5050505050908060020154908060030154908060040154908060050154908060060154908060070154908060080160009054906101000a900460ff16905089565b6000610ac08261106a565b9050919050565b60008073ffffffffffffffffffffffffffffffffffffffff168273ffffffffffffffffffffffffffffffffffffffff1603610b3a5760006040517f89c62b64000000000000000000000000000000000000000000000000000000008152600401610b3191906128a1565b60405180910390fd5b600360008373ffffffffffffffffffffffffffffffffffffffff1673ffffffffffffffffffffffffffffffffffffffff168152602001908152602001600020549050919050565b610b896111d9565b610b936000611260565b565b600e6020528160005260406000208181548110610bb157600080fd5b90600052602060002001600091509150505481565b6000600b60009054906101000a900473ffffffffffffffffffffffffffffffffffffffff16905090565b606060018054610bff90613082565b80601f0160208091040260200160405190810160405280929190818152602001828054610c2b90613082565b8015610c785780601f10610c4d57610100808354040283529160200191610c78565b820191906000526020600020905b815481529060010190602001808311610c5b57829003601f168201915b5050505050905090565b610c94610c8d61112f565b8383611326565b5050565b610ca061262b565b600073ffffffffffffffffffffffffffffffffffffffff16610cc183611495565b73ffffffffffffffffffffffffffffffffffffffff1603610d17576040517f08c379a0000000000000000000000000000000000000000000000000000000008152600401610d0e906134b3565b60405180910390fd5b600d600083815260200190815260200160002060405180610120016040529081600082018054610d4690613082565b80601f0160208091040260200160405190810160405280929190818152602001828054610d7290613082565b8015610dbf5780601f10610d9457610100808354040283529160200191610dbf565b820191906000526020600020905b815481529060010190602001808311610da257829003601f168201915b50505050508152602001600182018054610dd890613082565b80601f0160208091040260200160405190810160405280929190818152602001828054610e0490613082565b8015610e515780601f10610e2657610100808354040283529160200191610e51565b820191906000526020600020905b815481529060010190602001808311610e3457829003601f168201915b505050505081526020016002820154815260200160038201548152602001600482015481526020016005820154815260200160068201548152602001600782015481526020016008820160009054906101000a900460ff1615151515815250509050919050565b610ec38484846105a7565b610ed7610ece61112f565b858585856114d2565b50505050565b6060610ee882611683565b9050919050565b6000600560008473ffffffffffffffffffffffffffffffffffffffff1673ffffffffffffffffffffffffffffffffffffffff16815260200190815260200160002060008373ffffffffffffffffffffffffffffffffffffffff1673ffffffffffffffffffffffffffffffffffffffff16815260200190815260200160002060009054906101000a900460ff16905092915050565b610f8b6111d9565b600073ffffffffffffffffffffffffffffffffffffffff168173ffffffffffffffffffffffffffffffffffffffff1603610ffd5760006040517f1e4fbdf7000000000000000000000000000000000000000000000000000000008152600401610ff491906128a1565b60405180910390fd5b61100681611260565b50565b6000634906490660e01b7bffffffffffffffffffffffffffffffffffffffffffffffffffffffff1916827bffffffffffffffffffffffffffffffffffffffffffffffffffffffff19161480611063575061106282611796565b5b9050919050565b60008061107683611495565b9050600073ffffffffffffffffffffffffffffffffffffffff168173ffffffffffffffffffffffffffffffffffffffff16036110e957826040517f7e2732890000000000000000000000000000000000000000000000000000000081526004016110e09190612937565b60405180910390fd5b80915050919050565b60006004600083815260200190815260200160002060009054906101000a900473ffffffffffffffffffffffffffffffffffffffff169050919050565b600033905090565b6111448383836001611810565b505050565b60006111568484846119d5565b90509392505050565b611179828260405180602001604052806000815250611af2565b5050565b80600a6000848152602001908152602001600020908161119d9190613336565b507ff8e1a15aba9398e019f0b49df1a4fde98ee17ae345cb5f6b5e2c27f5033e8ce7826040516111cd9190612937565b60405180910390a15050565b6111e161112f565b73ffffffffffffffffffffffffffffffffffffffff166111ff610bc6565b73ffffffffffffffffffffffffffffffffffffffff161461125e5761122261112f565b6040517f118cdaa700000000000000000000000000000000000000000000000000000000815260040161125591906128a1565b60405180910390fd5b565b6000600b60009054906101000a900473ffffffffffffffffffffffffffffffffffffffff16905081600b60006101000a81548173ffffffffffffffffffffffffffffffffffffffff021916908373ffffffffffffffffffffffffffffffffffffffff1602179055508173ffffffffffffffffffffffffffffffffffffffff168173ffffffffffffffffffffffffffffffffffffffff167f8be0079c531659141344cd1fd0a4f28419497f9722a3daafe3b4186f6b6457e060405160405180910390a35050565b600073ffffffffffffffffffffffffffffffffffffffff168273ffffffffffffffffffffffffffffffffffffffff160361139757816040517f5b08ba1800000000000000000000000000000000000000000000000000000000815260040161138e91906128a1565b60405180910390fd5b80600560008573ffffffffffffffffffffffffffffffffffffffff1673ffffffffffffffffffffffffffffffffffffffff16815260200190815260200160002060008473ffffffffffffffffffffffffffffffffffffffff1673ffffffffffffffffffffffffffffffffffffffff16815260200190815260200160002060006101000a81548160ff0219169083151502179055508173ffffffffffffffffffffffffffffffffffffffff168373ffffffffffffffffffffffffffffffffffffffff167f17307eab39ab6107e8899845ad3d59bd9653f200f220920489ca2b5937696c31836040516114889190612730565b60405180910390a3505050565b60006002600083815260200190815260200160002060009054906101000a900473ffffffffffffffffffffffffffffffffffffffff169050919050565b60008373ffffffffffffffffffffffffffffffffffffffff163b111561167c578273ffffffffffffffffffffffffffffffffffffffff1663150b7a02868685856040518563ffffffff1660e01b81526004016115319493929190613528565b6020604051808303816000875af192505050801561156d57506040513d601f19601f8201168201806040525081019061156a9190613589565b60015b6115f1573d806000811461159d576040519150601f19603f3d011682016040523d82523d6000602084013e6115a2565b606091505b5060008151036115e957836040517f64a0ae920000000000000000000000000000000000000000000000000000000081526004016115e091906128a1565b60405180910390fd5b805160208201fd5b63150b7a0260e01b7bffffffffffffffffffffffffffffffffffffffffffffffffffffffff1916817bffffffffffffffffffffffffffffffffffffffffffffffffffffffff19161461167a57836040517f64a0ae9200000000000000000000000000000000000000000000000000000000815260040161167191906128a1565b60405180910390fd5b505b5050505050565b606061168e8261106a565b506000600a600084815260200190815260200160002080546116af90613082565b80601f01602080910402602001604051908101604052809291908181526020018280546116db90613082565b80156117285780601f106116fd57610100808354040283529160200191611728565b820191906000526020600020905b81548152906001019060200180831161170b57829003601f168201915b505050505090506000611739611b16565b9050600081510361174e578192505050611791565b60008251111561178357808260405160200161176b9291906135f2565b60405160208183030381529060405292505050611791565b61178c84611b2d565b925050505b919050565b60007f780e9d63000000000000000000000000000000000000000000000000000000007bffffffffffffffffffffffffffffffffffffffffffffffffffffffff1916827bffffffffffffffffffffffffffffffffffffffffffffffffffffffff19161480611809575061180882611b96565b5b9050919050565b80806118495750600073ffffffffffffffffffffffffffffffffffffffff168273ffffffffffffffffffffffffffffffffffffffff1614155b1561197d5760006118598461106a565b9050600073ffffffffffffffffffffffffffffffffffffffff168373ffffffffffffffffffffffffffffffffffffffff16141580156118c457508273ffffffffffffffffffffffffffffffffffffffff168173ffffffffffffffffffffffffffffffffffffffff1614155b80156118d757506118d58184610eef565b155b1561191957826040517fa9fbf51f00000000000000000000000000000000000000000000000000000000815260040161191091906128a1565b60405180910390fd5b811561197b57838573ffffffffffffffffffffffffffffffffffffffff168273ffffffffffffffffffffffffffffffffffffffff167f8c5be1e5ebec7d5bd14f71427d1e84f3dd0314c0f7b2291e5b200ac8c7c3b92560405160405180910390a45b505b836004600085815260200190815260200160002060006101000a81548173ffffffffffffffffffffffffffffffffffffffff021916908373ffffffffffffffffffffffffffffffffffffffff16021790555050505050565b6000806119e3858585611c78565b9050600073ffffffffffffffffffffffffffffffffffffffff168173ffffffffffffffffffffffffffffffffffffffff1603611a2757611a2284611e92565b611a66565b8473ffffffffffffffffffffffffffffffffffffffff168173ffffffffffffffffffffffffffffffffffffffff1614611a6557611a648185611edb565b5b5b600073ffffffffffffffffffffffffffffffffffffffff168573ffffffffffffffffffffffffffffffffffffffff1603611aa857611aa384611fc6565b611ae7565b8473ffffffffffffffffffffffffffffffffffffffff168173ffffffffffffffffffffffffffffffffffffffff1614611ae657611ae58585612097565b5b5b809150509392505050565b611afc8383612122565b611b11611b0761112f565b60008585856114d2565b505050565b606060405180602001604052806000815250905090565b6060611b388261106a565b506000611b43611b16565b90506000815111611b635760405180602001604052806000815250611b8e565b80611b6d8461221b565b604051602001611b7e9291906135f2565b6040516020818303038152906040525b915050919050565b60007f80ac58cd000000000000000000000000000000000000000000000000000000007bffffffffffffffffffffffffffffffffffffffffffffffffffffffff1916827bffffffffffffffffffffffffffffffffffffffffffffffffffffffff19161480611c6157507f5b5e139f000000000000000000000000000000000000000000000000000000007bffffffffffffffffffffffffffffffffffffffffffffffffffffffff1916827bffffffffffffffffffffffffffffffffffffffffffffffffffffffff1916145b80611c715750611c70826122e9565b5b9050919050565b600080611c8484611495565b9050600073ffffffffffffffffffffffffffffffffffffffff168373ffffffffffffffffffffffffffffffffffffffff1614611cc657611cc5818486612353565b5b600073ffffffffffffffffffffffffffffffffffffffff168173ffffffffffffffffffffffffffffffffffffffff1614611d5757611d08600085600080611810565b6001600360008373ffffffffffffffffffffffffffffffffffffffff1673ffffffffffffffffffffffffffffffffffffffff168152602001908152602001600020600082825403925050819055505b600073ffffffffffffffffffffffffffffffffffffffff168573ffffffffffffffffffffffffffffffffffffffff1614611dda576001600360008773ffffffffffffffffffffffffffffffffffffffff1673ffffffffffffffffffffffffffffffffffffffff168152602001908152602001600020600082825401925050819055505b846002600086815260200190815260200160002060006101000a81548173ffffffffffffffffffffffffffffffffffffffff021916908373ffffffffffffffffffffffffffffffffffffffff160217905550838573ffffffffffffffffffffffffffffffffffffffff168273ffffffffffffffffffffffffffffffffffffffff167fddf252ad1be2c89b69c2b068fc378daa952ba7f163c4a11628f55a4df523b3ef60405160405180910390a4809150509392505050565b6008805490506009600083815260200190815260200160002081905550600881908060018154018082558091505060019003906000526020600020016000909190919091505550565b6000611ee683610ac7565b90506000600760008481526020019081526020016000205490506000600660008673ffffffffffffffffffffffffffffffffffffffff1673ffffffffffffffffffffffffffffffffffffffff1681526020019081526020016000209050828214611f925760008160008581526020019081526020016000205490508082600085815260200190815260200160002081905550826007600083815260200190815260200160002081905550505b6007600085815260200190815260200160002060009055806000848152602001908152602001600020600090555050505050565b60006001600880549050611fda9190613616565b905060006009600084815260200190815260200160002054905060006008838154811061200a57612009613438565b5b90600052602060002001549050806008838154811061202c5761202b613438565b5b90600052602060002001819055508160096000838152602001908152602001600020819055506009600085815260200190815260200160002060009055600880548061207b5761207a61364a565b5b6001900381819060005260206000200160009055905550505050565b600060016120a484610ac7565b6120ae9190613616565b905081600660008573ffffffffffffffffffffffffffffffffffffffff1673ffffffffffffffffffffffffffffffffffffffff168152602001908152602001600020600083815260200190815260200160002081905550806007600084815260200190815260200160002081905550505050565b600073ffffffffffffffffffffffffffffffffffffffff168273ffffffffffffffffffffffffffffffffffffffff16036121945760006040517f64a0ae9200000000000000000000000000000000000000000000000000000000815260040161218b91906128a1565b60405180910390fd5b60006121a283836000611149565b9050600073ffffffffffffffffffffffffffffffffffffffff168173ffffffffffffffffffffffffffffffffffffffff16146122165760006040517f73c6ac6e00000000000000000000000000000000000000000000000000000000815260040161220d91906128a1565b60405180910390fd5b505050565b60606000600161222a84612417565b01905060008167ffffffffffffffff811115612249576122486129af565b5b6040519080825280601f01601f19166020018201604052801561227b5781602001600182028036833780820191505090505b509050600082602083010190505b6001156122de578080600190039150507f3031323334353637383961626364656600000000000000000000000000000000600a86061a8153600a85816122d2576122d1613679565b5b04945060008503612289575b819350505050919050565b60007f01ffc9a7000000000000000000000000000000000000000000000000000000007bffffffffffffffffffffffffffffffffffffffffffffffffffffffff1916827bffffffffffffffffffffffffffffffffffffffffffffffffffffffff1916149050919050565b61235e83838361256a565b61241257600073ffffffffffffffffffffffffffffffffffffffff168373ffffffffffffffffffffffffffffffffffffffff16036123d357806040517f7e2732890000000000000000000000000000000000000000000000000000000081526004016123ca9190612937565b60405180910390fd5b81816040517f177e802f0000000000000000000000000000000000000000000000000000000081526004016124099291906130ea565b60405180910390fd5b505050565b600080600090507a184f03e93ff9f4daa797ed6e38ed64bf6a1f0100000000000000008310612475577a184f03e93ff9f4daa797ed6e38ed64bf6a1f010000000000000000838161246b5761246a613679565b5b0492506040810190505b6d04ee2d6d415b85acef810000000083106124b2576d04ee2d6d415b85acef810000000083816124a8576124a7613679565b5b0492506020810190505b662386f26fc1000083106124e157662386f26fc1000083816124d7576124d6613679565b5b0492506010810190505b6305f5e100831061250a576305f5e1008381612500576124ff613679565b5b0492506008810190505b612710831061252f57612710838161252557612524613679565b5b0492506004810190505b60648310612552576064838161254857612547613679565b5b0492506002810190505b600a8310612561576001810190505b80915050919050565b60008073ffffffffffffffffffffffffffffffffffffffff168373ffffffffffffffffffffffffffffffffffffffff161415801561262257508273ffffffffffffffffffffffffffffffffffffffff168473ffffffffffffffffffffffffffffffffffffffff1614806125e357506125e28484610eef565b5b8061262157508273ffffffffffffffffffffffffffffffffffffffff16612609836110f2565b73ffffffffffffffffffffffffffffffffffffffff16145b5b90509392505050565b60405180610120016040528060608152602001606081526020016000815260200160008152602001600081526020016000815260200160008152602001600080191681526020016000151581525090565b6000604051905090565b600080fd5b600080fd5b60007fffffffff0000000000000000000000000000000000000000000000000000000082169050919050565b6126c581612690565b81146126d057600080fd5b50565b6000813590506126e2816126bc565b92915050565b6000602082840312156126fe576126fd612686565b5b600061270c848285016126d3565b91505092915050565b60008115159050919050565b61272a81612715565b82525050565b60006020820190506127456000830184612721565b92915050565b600081519050919050565b600082825260208201905092915050565b60005b8381101561278557808201518184015260208101905061276a565b60008484015250505050565b6000601f19601f8301169050919050565b60006127ad8261274b565b6127b78185612756565b93506127c7818560208601612767565b6127d081612791565b840191505092915050565b600060208201905081810360008301526127f581846127a2565b905092915050565b6000819050919050565b612810816127fd565b811461281b57600080fd5b50565b60008135905061282d81612807565b92915050565b60006020828403121561284957612848612686565b5b60006128578482850161281e565b91505092915050565b600073ffffffffffffffffffffffffffffffffffffffff82169050919050565b600061288b82612860565b9050919050565b61289b81612880565b82525050565b60006020820190506128b66000830184612892565b92915050565b6128c581612880565b81146128d057600080fd5b50565b6000813590506128e2816128bc565b92915050565b600080604083850312156128ff576128fe612686565b5b600061290d858286016128d3565b925050602061291e8582860161281e565b9150509250929050565b612931816127fd565b82525050565b600060208201905061294c6000830184612928565b92915050565b60008060006060848603121561296b5761296a612686565b5b6000612979868287016128d3565b935050602061298a868287016128d3565b925050604061299b8682870161281e565b9150509250925092565b600080fd5b600080fd5b7f4e487b7100000000000000000000000000000000000000000000000000000000600052604160045260246000fd5b6129e782612791565b810181811067ffffffffffffffff82111715612a0657612a056129af565b5b80604052505050565b6000612a1961267c565b9050612a2582826129de565b919050565b600067ffffffffffffffff821115612a4557612a446129af565b5b612a4e82612791565b9050602081019050919050565b82818337600083830152505050565b6000612a7d612a7884612a2a565b612a0f565b905082815260208101848484011115612a9957612a986129aa565b5b612aa4848285612a5b565b509392505050565b600082601f830112612ac157612ac06129a5565b5b8135612ad1848260208601612a6a565b91505092915050565b6000819050919050565b612aed81612ada565b8114612af857600080fd5b50565b600081359050612b0a81612ae4565b92915050565b600080600080600060a08688031215612b2c57612b2b612686565b5b6000612b3a888289016128d3565b955050602086013567ffffffffffffffff811115612b5b57612b5a61268b565b5b612b6788828901612aac565b945050604086013567ffffffffffffffff811115612b8857612b8761268b565b5b612b9488828901612aac565b9350506060612ba588828901612afb565b925050608086013567ffffffffffffffff811115612bc657612bc561268b565b5b612bd288828901612aac565b9150509295509295909350565b6000819050919050565b612bf281612bdf565b82525050565b612c0181612ada565b82525050565b6000610120820190508181036000830152612c22818c6127a2565b90508181036020830152612c36818b6127a2565b9050612c45604083018a612928565b612c526060830189612be9565b612c5f6080830188612928565b612c6c60a0830187612928565b612c7960c0830186612928565b612c8660e0830185612bf8565b612c94610100830184612721565b9a9950505050505050505050565b600060208284031215612cb857612cb7612686565b5b6000612cc6848285016128d3565b91505092915050565b60008060408385031215612ce657612ce5612686565b5b6000612cf48582860161281e565b9250506020612d058582860161281e565b9150509250929050565b612d1881612715565b8114612d2357600080fd5b50565b600081359050612d3581612d0f565b92915050565b60008060408385031215612d5257612d51612686565b5b6000612d60858286016128d3565b9250506020612d7185828601612d26565b9150509250929050565b600082825260208201905092915050565b6000612d978261274b565b612da18185612d7b565b9350612db1818560208601612767565b612dba81612791565b840191505092915050565b612dce816127fd565b82525050565b612ddd81612bdf565b82525050565b612dec81612ada565b82525050565b612dfb81612715565b82525050565b6000610120830160008301518482036000860152612e1f8282612d8c565b91505060208301518482036020860152612e398282612d8c565b9150506040830151612e4e6040860182612dc5565b506060830151612e616060860182612dd4565b506080830151612e746080860182612dc5565b5060a0830151612e8760a0860182612dc5565b5060c0830151612e9a60c0860182612dc5565b5060e0830151612ead60e0860182612de3565b50610100830151612ec2610100860182612df2565b508091505092915050565b60006020820190508181036000830152612ee78184612e01565b905092915050565b600067ffffffffffffffff821115612f0a57612f096129af565b5b612f1382612791565b9050602081019050919050565b6000612f33612f2e84612eef565b612a0f565b905082815260208101848484011115612f4f57612f4e6129aa565b5b612f5a848285612a5b565b509392505050565b600082601f830112612f7757612f766129a5565b5b8135612f87848260208601612f20565b91505092915050565b60008060008060808587031215612faa57612fa9612686565b5b6000612fb8878288016128d3565b9450506020612fc9878288016128d3565b9350506040612fda8782880161281e565b925050606085013567ffffffffffffffff811115612ffb57612ffa61268b565b5b61300787828801612f62565b91505092959194509250565b6000806040838503121561302a57613029612686565b5b6000613038858286016128d3565b9250506020613049858286016128d3565b9150509250929050565b7f4e487b7100000000000000000000000000000000000000000000000000000000600052602260045260246000fd5b6000600282049050600182168061309a57607f821691505b6020821081036130ad576130ac613053565b5b50919050565b60006060820190506130c86000830186612892565b6130d56020830185612928565b6130e26040830184612892565b949350505050565b60006040820190506130ff6000830185612892565b61310c6020830184612928565b9392505050565b7f4e487b7100000000000000000000000000000000000000000000000000000000600052601160045260246000fd5b600061314d826127fd565b91507fffffffffffffffffffffffffffffffffffffffffffffffffffffffffffffffff820361317f5761317e613113565b5b600182019050919050565b60008190508160005260206000209050919050565b60006020601f8301049050919050565b600082821b905092915050565b6000600883026131ec7fffffffffffffffffffffffffffffffffffffffffffffffffffffffffffffffff826131af565b6131f686836131af565b95508019841693508086168417925050509392505050565b6000819050919050565b600061323361322e613229846127fd565b61320e565b6127fd565b9050919050565b6000819050919050565b61324d83613218565b6132616132598261323a565b8484546131bc565b825550505050565b600090565b613276613269565b613281818484613244565b505050565b5b818110156132a55761329a60008261326e565b600181019050613287565b5050565b601f8211156132ea576132bb8161318a565b6132c48461319f565b810160208510156132d3578190505b6132e76132df8561319f565b830182613286565b50505b505050565b600082821c905092915050565b600061330d600019846008026132ef565b1980831691505092915050565b600061332683836132fc565b9150826002028217905092915050565b61333f8261274b565b67ffffffffffffffff811115613358576133576129af565b5b6133628254613082565b61336d8282856132a9565b600060209050601f8311600181146133a0576000841561338e578287015190505b613398858261331a565b865550613400565b601f1984166133ae8661318a565b60005b828110156133d6578489015182556001820191506020850194506020810190506133b1565b868310156133f357848901516133ef601f8916826132fc565b8355505b6001600288020188555050505b505050505050565b6000604082019050818103600083015261342281856127a2565b90506134316020830184612892565b9392505050565b7f4e487b7100000000000000000000000000000000000000000000000000000000600052603260045260246000fd5b7f456e7469747920646f6573206e6f742065786973740000000000000000000000600082015250565b600061349d601583612756565b91506134a882613467565b602082019050919050565b600060208201905081810360008301526134cc81613490565b9050919050565b600081519050919050565b600082825260208201905092915050565b60006134fa826134d3565b61350481856134de565b9350613514818560208601612767565b61351d81612791565b840191505092915050565b600060808201905061353d6000830187612892565b61354a6020830186612892565b6135576040830185612928565b818103606083015261356981846134ef565b905095945050505050565b600081519050613583816126bc565b92915050565b60006020828403121561359f5761359e612686565b5b60006135ad84828501613574565b91505092915050565b600081905092915050565b60006135cc8261274b565b6135d681856135b6565b93506135e6818560208601612767565b80840191505092915050565b60006135fe82856135c1565b915061360a82846135c1565b91508190509392505050565b6000613621826127fd565b915061362c836127fd565b925082820390508181111561364457613643613113565b5b92915050565b7f4e487b7100000000000000000000000000000000000000000000000000000000600052603160045260246000fd5b7f4e487b7100000000000000000000000000000000000000000000000000000000600052601260045260246000fdfea2646970667358221220c6c34f4c986e7736b3b455baa59107354e40926ebd220e10f613db489ead799564736f6c63430008140033",
  "linkReferences": {},
  "deployedLinkReferences": {}
}