{
  "_format": "hh-sol-artifact-1",
  "contractName": "RoyaltyEngine",
  "sourceName": "contracts/layer6/creators/RoyaltyEngine.sol",
  "abi": [
    {
      "inputs": [
        {
          "internalType": "address",
          "name": "_treasury",
          "type": "address"
        }
      ],
      "stateMutability": "nonpayable",
      "type": "constructor"
    },
    {
      "inputs": [],
      "name": "AccessControlBadConfirmation",
      "type": "error"
    },
    {
      "inputs": [
        {
          "internalType": "address",
          "name": "account",
          "type": "address"
        },
        {
          "internalType": "bytes32",
          "name": "neededRole",
          "type": "bytes32"
        }
      ],
      "name": "AccessControlUnauthorizedAccount",
      "type": "error"
    },
    {
      "inputs": [],
      "name": "ReentrancyGuardReentrantCall",
      "type": "error"
    },
    {
      "anonymous": false,
      "inputs": [
        {
          "indexed": true,
          "internalType": "bytes32",
          "name": "role",
          "type": "bytes32"
        },
        {
          "indexed": true,
          "internalType": "bytes32",
          "name": "previousAdminRole",
          "type": "bytes32"
        },
        {
          "indexed": true,
          "internalType": "bytes32",
          "name": "newAdminRole",
          "type": "bytes32"
        }
      ],
      "name": "RoleAdminChanged",
      "type": "event"
    },
    {
      "anonymous": false,
      "inputs": [
        {
          "indexed": true,
          "internalType": "bytes32",
          "name": "role",
          "type": "bytes32"
        },
        {
          "indexed": true,
          "internalType": "address",
          "name": "account",
          "type": "address"
        },
        {
          "indexed": true,
          "internalType": "address",
          "name": "sender",
          "type": "address"
        }
      ],
      "name": "RoleGranted",
      "type": "event"
    },
    {
      "anonymous": false,
      "inputs": [
        {
          "indexed": true,
          "internalType": "bytes32",
          "name": "role",
          "type": "bytes32"
        },
        {
          "indexed": true,
          "internalType": "address",
          "name": "account",
          "type": "address"
        },
        {
          "indexed": true,
          "internalType": "address",
          "name": "sender",
          "type": "address"
        }
      ],
      "name": "RoleRevoked",
      "type": "event"
    },
    {
      "anonymous": false,
      "inputs": [
        {
          "indexed": true,
          "internalType": "address",
          "name": "nftContract",
          "type": "address"
        },
        {
          "indexed": true,
          "internalType": "uint256",
          "name": "tokenId",
          "type": "uint256"
        },
        {
          "indexed": false,
          "internalType": "address",
          "name": "creator",
          "type": "address"
        },
        {
          "indexed": false,
          "internalType": "uint256",
          "name": "totalBps",
          "type": "uint256"
        }
      ],
      "name": "RoyaltyConfigSet",
      "type": "event"
    },
    {
      "anonymous": false,
      "inputs": [
        {
          "indexed": true,
          "internalType": "uint256",
          "name": "paymentId",
          "type": "uint256"
        },
        {
          "indexed": true,
          "internalType": "address",
          "name": "nftContract",
          "type": "address"
        },
        {
          "indexed": true,
          "internalType": "uint256",
          "name": "tokenId",
          "type": "uint256"
        },
        {
          "indexed": false,
          "internalType": "uint256",
          "name": "amount",
          "type": "uint256"
        }
      ],
      "name": "RoyaltyPaid",
      "type": "event"
    },
    {
      "anonymous": false,
      "inputs": [
        {
          "indexed": true,
          "internalType": "address",
          "name": "recipient",
          "type": "address"
        },
        {
          "indexed": false,
          "internalType": "uint256",
          "name": "amount",
          "type": "uint256"
        }
      ],
      "name": "RoyaltyWithdrawn",
      "type": "event"
    },
    {
      "inputs": [],
      "name": "DEFAULT_ADMIN_ROLE",
      "outputs": [
        {
          "internalType": "bytes32",
          "name": "",
          "type": "bytes32"
        }
      ],
      "stateMutability": "view",
      "type": "function"
    },
    {
      "inputs": [],
      "name": "MARKETPLACE_ROLE",
      "outputs": [
        {
          "internalType": "bytes32",
          "name": "",
          "type": "bytes32"
        }
      ],
      "stateMutability": "view",
      "type": "function"
    },
    {
      "inputs": [
        {
          "internalType": "address",
          "name": "nftContract",
          "type": "address"
        },
        {
          "internalType": "uint256",
          "name": "tokenId",
          "type": "uint256"
        }
      ],
      "name": "getNFTPayments",
      "outputs": [
        {
          "internalType": "uint256[]",
          "name": "",
          "type": "uint256[]"
        }
      ],
      "stateMutability": "view",
      "type": "function"
    },
    {
      "inputs": [
        {
          "internalType": "bytes32",
          "name": "role",
          "type": "bytes32"
        }
      ],
      "name": "getRoleAdmin",
      "outputs": [
        {
          "internalType": "bytes32",
          "name": "",
          "type": "bytes32"
        }
      ],
      "stateMutability": "view",
      "type": "function"
    },
    {
      "inputs": [
        {
          "internalType": "address",
          "name": "nftContract",
          "type": "address"
        },
        {
          "internalType": "uint256",
          "name": "tokenId",
          "type": "uint256"
        },
        {
          "internalType": "uint256",
          "name": "salePrice",
          "type": "uint256"
        }
      ],
      "name": "getRoyaltyInfo",
      "outputs": [
        {
          "internalType": "address",
          "name": "receiver",
          "type": "address"
        },
        {
          "internalType": "uint256",
          "name": "royaltyAmount",
          "type": "uint256"
        }
      ],
      "stateMutability": "view",
      "type": "function"
    },
    {
      "inputs": [
        {
          "internalType": "bytes32",
          "name": "role",
          "type": "bytes32"
        },
        {
          "internalType": "address",
          "name": "account",
          "type": "address"
        }
      ],
      "name": "grantRole",
      "outputs": [],
      "stateMutability": "nonpayable",
      "type": "function"
    },
    {
      "inputs": [
        {
          "internalType": "bytes32",
          "name": "role",
          "type": "bytes32"
        },
        {
          "internalType": "address",
          "name": "account",
          "type": "address"
        }
      ],
      "name": "hasRole",
      "outputs": [
        {
          "internalType": "bool",
          "name": "",
          "type": "bool"
        }
      ],
      "stateMutability": "view",
      "type": "function"
    },
    {
      "inputs": [],
      "name": "maxRoyaltyBps",
      "outputs": [
        {
          "internalType": "uint256",
          "name": "",
          "type": "uint256"
        }
      ],
      "stateMutability": "view",
      "type": "function"
    },
    {
      "inputs": [
        {
          "internalType": "address",
          "name": "",
          "type": "address"
        },
        {
          "internalType": "uint256",
          "name": "",
          "type": "uint256"
        },
        {
          "internalType": "uint256",
          "name": "",
          "type": "uint256"
        }
      ],
      "name": "nftPayments",
      "outputs": [
        {
          "internalType": "uint256",
          "name": "",
          "type": "uint256"
        }
      ],
      "stateMutability": "view",
      "type": "function"
    },
    {
      "inputs": [
        {
          "internalType": "uint256",
          "name": "",
          "type": "uint256"
        }
      ],
      "name": "payments",
      "outputs": [
        {
          "internalType": "uint256",
          "name": "paymentId",
          "type": "uint256"
        },
        {
          "internalType": "address",
          "name": "nftContract",
          "type": "address"
        },
        {
          "internalType": "uint256",
          "name": "tokenId",
          "type": "uint256"
        },
        {
          "internalType": "uint256",
          "name": "salePrice",
          "type": "uint256"
        },
        {
          "internalType": "uint256",
          "name": "royaltyAmount",
          "type": "uint256"
        },
        {
          "internalType": "address",
          "name": "payer",
          "type": "address"
        },
        {
          "internalType": "uint256",
          "name": "timestamp",
          "type": "uint256"
        }
      ],
      "stateMutability": "view",
      "type": "function"
    },
    {
      "inputs": [
        {
          "internalType": "address",
          "name": "",
          "type": "address"
        }
      ],
      "name": "pendingRoyalties",
      "outputs": [
        {
          "internalType": "uint256",
          "name": "",
          "type": "uint256"
        }
      ],
      "stateMutability": "view",
      "type": "function"
    },
    {
      "inputs": [],
      "name": "platformFeeBps",
      "outputs": [
        {
          "internalType": "uint256",
          "name": "",
          "type": "uint256"
        }
      ],
      "stateMutability": "view",
      "type": "function"
    },
    {
      "inputs": [
        {
          "internalType": "address",
          "name": "nftContract",
          "type": "address"
        },
        {
          "internalType": "uint256",
          "name": "tokenId",
          "type": "uint256"
        },
        {
          "internalType": "address",
          "name": "payer",
          "type": "address"
        }
      ],
      "name": "processRoyalty",
      "outputs": [
        {
          "internalType": "uint256",
          "name": "",
          "type": "uint256"
        }
      ],
      "stateMutability": "payable",
      "type": "function"
    },
    {
      "inputs": [
        {
          "internalType": "bytes32",
          "name": "role",
          "type": "bytes32"
        },
        {
          "internalType": "address",
          "name": "callerConfirmation",
          "type": "address"
        }
      ],
      "name": "renounceRole",
      "outputs": [],
      "stateMutability": "nonpayable",
      "type": "function"
    },
    {
      "inputs": [
        {
          "internalType": "bytes32",
          "name": "role",
          "type": "bytes32"
        },
        {
          "internalType": "address",
          "name": "account",
          "type": "address"
        }
      ],
      "name": "revokeRole",
      "outputs": [],
      "stateMutability": "nonpayable",
      "type": "function"
    },
    {
      "inputs": [
        {
          "internalType": "address",
          "name": "",
          "type": "address"
        },
        {
          "internalType": "uint256",
          "name": "",
          "type": "uint256"
        }
      ],
      "name": "royaltyConfigs",
      "outputs": [
        {
          "internalType": "address",
          "name": "primaryCreator",
          "type": "address"
        },
        {
          "internalType": "uint256",
          "name": "primaryBps",
          "type": "uint256"
        },
        {
          "internalType": "uint256",
          "name": "totalBps",
          "type": "uint256"
        },
        {
          "internalType": "bool",
          "name": "isActive",
          "type": "bool"
        },
        {
          "internalType": "uint256",
          "name": "totalPaid",
          "type": "uint256"
        },
        {
          "internalType": "uint256",
          "name": "createdAt",
          "type": "uint256"
        }
      ],
      "stateMutability": "view",
      "type": "function"
    },
    {
      "inputs": [
        {
          "internalType": "address",
          "name": "nftContract",
          "type": "address"
        },
        {
          "internalType": "uint256",
          "name": "tokenId",
          "type": "uint256"
        },
        {
          "internalType": "uint256",
          "name": "primaryBps",
          "type": "uint256"
        },
        {
          "internalType": "address[]",
          "name": "collaborators",
          "type": "address[]"
        },
        {
          "internalType": "uint256[]",
          "name": "collaboratorBps",
          "type": "uint256[]"
        }
      ],
      "name": "setRoyalty",
      "outputs": [],
      "stateMutability": "nonpayable",
      "type": "function"
    },
    {
      "inputs": [
        {
          "internalType": "bytes4",
          "name": "i",
          "type": "bytes4"
        }
      ],
      "name": "supportsInterface",
      "outputs": [
        {
          "internalType": "bool",
          "name": "",
          "type": "bool"
        }
      ],
      "stateMutability": "view",
      "type": "function"
    },
    {
      "inputs": [
        {
          "internalType": "address",
          "name": "",
          "type": "address"
        }
      ],
      "name": "totalEarned",
      "outputs": [
        {
          "internalType": "uint256",
          "name": "",
          "type": "uint256"
        }
      ],
      "stateMutability": "view",
      "type": "function"
    },
    {
      "inputs": [],
      "name": "totalRoyaltiesPaid",
      "outputs": [
        {
          "internalType": "uint256",
          "name": "",
          "type": "uint256"
        }
      ],
      "stateMutability": "view",
      "type": "function"
    },
    {
      "inputs": [],
      "name": "treasury",
      "outputs": [
        {
          "internalType": "address",
          "name": "",
          "type": "address"
        }
      ],
      "stateMutability": "view",
      "type": "function"
    },
    {
      "inputs": [],
      "name": "withdrawRoyalties",
      "outputs": [],
      "stateMutability": "nonpayable",
      "type": "function"
    }
  ],
  "bytecode": "0x608034620000a157601f6200192d38819003918201601f19168301916001600160401b03831184841017620000a657808492602094604052833981010312620000a157516001600160a01b03811690819003620000a1576001805560326009556105dc600a55600880546001600160a01b0319169190911790556200008433620000bc565b5062000090336200013c565b5060405161172e9081620001df8239f35b600080fd5b634e487b7160e01b600052604160045260246000fd5b6001600160a01b031660008181527fad3228b676f7d3cd4284a5443f17f1962b36e491b30a40b2405849e597ba5fb5602052604081205490919060ff166200013857818052816020526040822081835260205260408220600160ff1982541617905533916000805160206200190d8339815191528180a4600190565b5090565b6001600160a01b031660008181527fda104853dc3972fb943ce0ee89200279d8af13db255ed28fb43e685524f21b1960205260408120549091907f0ea61da3a8a09ad801432653699f8c1860b1ae9d2ea4a141fadfd63227717bc89060ff16620001d957808352826020526040832082845260205260408320600160ff198254161790556000805160206200190d833981519152339380a4600190565b50509056fe608080604052600436101561001357600080fd5b60003560e01c90816301ffc9a7146112a25750806321c34fcb146111c657806322dcd13e146111a8578063248a9ca3146111795780632f2ff15d1461113a57806336568abe146110ce57806336de974214610fa757806361d027b314610f73578063649aca4a14610f2c5780636da781a914610e985780637fb567e314610e0357806387d8178914610d7c57806391d1485414610d215780639333806514610d035780639a2fa9bb14610cbc5780639a91c2ed146106de578063a217fddf146106c2578063b18f004a146106a4578063c3439f3f14610669578063d547741f14610628578063d936f4fb146101795763dad3ba371461011157600080fd5b346101745773ffffffffffffffffffffffffffffffffffffffff61013436611386565b929091166000526007602052604060002090600052602052604060002080548210156101745760209161016691611433565b90546040519160031b1c8152f35b600080fd5b346101745760a060031936011261017457610192611363565b60643560443567ffffffffffffffff821161017457366023830112156101745781600401356101c08161141b565b926101ce60405194856113da565b8184526024602085019260051b8201019036821161017457602401915b8183106105fb5750505060843567ffffffffffffffff81116101745736602382011215610174578060040135906102218261141b565b9161022f60405193846113da565b8083526024602084019160051b8301019136831161017457602401905b8282106105eb57505050825181510361058d57816000925b82518410156102905761028461028a9160208660051b8601015190611618565b936115eb565b92610264565b93909250600a54841161052f57604051926102aa846113bd565b338452602084015260408301526060820152816080820152600160a0820152600060c08201524260e082015273ffffffffffffffffffffffffffffffffffffffff83166000526003602052604060002060243560005260205260406000209073ffffffffffffffffffffffffffffffffffffffff8151167fffffffffffffffffffffffff000000000000000000000000000000000000000083541617825560208101516001830155604081015180519067ffffffffffffffff82116104d6576801000000000000000082116104d6576020600285019161038f84845481865585611638565b0190600052602060002060005b8381106105055750505050606081015180519067ffffffffffffffff82116104d6576801000000000000000082116104d657602060038501916103e484845481865585611638565b0190600052602060002060005b8381106104c2575050505060e0816080600793015160048501556005840160a0820151151560ff7fffffffffffffffffffffffffffffffffffffffffffffffffffffffffffffff00835416911617905560c0810151600685015501519101557f987a196335e81b5319e0aa312bbcd49fdc626f5dc48a73d9ec5324d0c64d06e3604051806104bd73ffffffffffffffffffffffffffffffffffffffff60243596169433836020909392919373ffffffffffffffffffffffffffffffffffffffff60408201951681520152565b0390a3005b6001906020845194019381840155016103f1565b7f4e487b7100000000000000000000000000000000000000000000000000000000600052604160045260246000fd5b600190602073ffffffffffffffffffffffffffffffffffffffff855116940193818401550161039c565b60646040517f08c379a000000000000000000000000000000000000000000000000000000000815260206004820152601360248201527f45786365656473206d617820726f79616c7479000000000000000000000000006044820152fd5b60646040517f08c379a000000000000000000000000000000000000000000000000000000000815260206004820152600f60248201527f4c656e677468206d69736d6174636800000000000000000000000000000000006044820152fd5b813581526020918201910161024c565b823573ffffffffffffffffffffffffffffffffffffffff81168103610174578152602092830192016101eb565b3461017457604060031936011261017457610667600435610647611340565b9080600052600060205261066260016040600020015461147a565b61154a565b005b346101745760006003193601126101745760206040517f0ea61da3a8a09ad801432653699f8c1860b1ae9d2ea4a141fadfd63227717bc88152f35b34610174576000600319360112610174576020600a54604051908152f35b3461017457600060031936011261017457602060405160008152f35b6060600319360112610174576106f2611363565b6044359073ffffffffffffffffffffffffffffffffffffffff82168203610174573360009081527fda104853dc3972fb943ce0ee89200279d8af13db255ed28fb43e685524f21b1960205260409020547f0ea61da3a8a09ad801432653699f8c1860b1ae9d2ea4a141fadfd63227717bc89060ff1615610c85575061077561166c565b73ffffffffffffffffffffffffffffffffffffffff811660005260036020526040600020602435600052602052604060002060ff60058201541615610c27576127106107c5600483015434611625565b0492348411610bc9576107d96002546115eb565b92836002556040518060e081011067ffffffffffffffff60e0830111176104d65760e0810160405284815273ffffffffffffffffffffffffffffffffffffffff82166020820152602435604082015234606082015285608082015273ffffffffffffffffffffffffffffffffffffffff831660a08201524260c0820152846000526004602052600660c0604060002092805184556001840173ffffffffffffffffffffffffffffffffffffffff602083015116907fffffffffffffffffffffffff00000000000000000000000000000000000000009182825416179055604082015160028601556060820151600386015560808201516004860155600585019073ffffffffffffffffffffffffffffffffffffffff60a08401511690825416179055015191015573ffffffffffffffffffffffffffffffffffffffff81166000526007602052604060002060243560005260205260406000208054680100000000000000008110156104d65761095491600182018155611433565b81549060031b907fffffffffffffffffffffffffffffffffffffffffffffffffffffffffffffffff87831b921b1916179055612710610997600185015434611625565b0473ffffffffffffffffffffffffffffffffffffffff845416600052600560205260406000206109c8828254611618565b905573ffffffffffffffffffffffffffffffffffffffff84541660005260066020526109fa6040600020918254611618565b905560005b6002840154811015610ac25780612710610a2f610a22610abd9460038901611433565b90549060031b1c34611625565b0473ffffffffffffffffffffffffffffffffffffffff610a528360028901611433565b90549060031b1c1660005260056020526040600020610a72828254611618565b905573ffffffffffffffffffffffffffffffffffffffff610a968360028901611433565b90549060031b1c166000526006602052610ab66040600020918254611618565b90556115eb565b6109ff565b50836006869401610ad4858254611618565b9055610ae284600b54611618565b600b55604051908482527f1cae2d19b328dda2f2be4acbceb25e8e989c554ce511bb127602922d65d955f0602073ffffffffffffffffffffffffffffffffffffffff602435951693a481340390348211610b9a57823414908115610b50575b60208460018055604051908152f35b60008093819382938391610b90575b73ffffffffffffffffffffffffffffffffffffffff1690f115610b8457818080610b41565b6040513d6000823e3d90fd5b6108fc9150610b5f565b7f4e487b7100000000000000000000000000000000000000000000000000000000600052601160045260246000fd5b60646040517f08c379a000000000000000000000000000000000000000000000000000000000815260206004820152600f60248201527f496e76616c696420726f79616c747900000000000000000000000000000000006044820152fd5b60646040517f08c379a000000000000000000000000000000000000000000000000000000000815260206004820152601160248201527f4e6f20726f79616c747920636f6e6669670000000000000000000000000000006044820152fd5b604490604051907fe2517d3f0000000000000000000000000000000000000000000000000000000082523360048301526024820152fd5b346101745760206003193601126101745773ffffffffffffffffffffffffffffffffffffffff610cea611363565b1660005260056020526020604060002054604051908152f35b34610174576000600319360112610174576020600b54604051908152f35b3461017457604060031936011261017457610d3a611340565b600435600052600060205273ffffffffffffffffffffffffffffffffffffffff60406000209116600052602052602060ff604060002054166040519015158152f35b3461017457602060031936011261017457600435600052600460205260e0604060002080549073ffffffffffffffffffffffffffffffffffffffff9081600182015416916002820154600383015490600660048501549360058601541694015494604051968752602087015260408601526060850152608084015260a083015260c0820152f35b346101745760406003193601126101745773ffffffffffffffffffffffffffffffffffffffff610e31611363565b1660005260206007815260406000206024356000528152610e5560406000206116a7565b906040519181839283018184528251809152816040850193019160005b828110610e8157505050500390f35b835185528695509381019392810192600101610e72565b346101745760406003193601126101745760c073ffffffffffffffffffffffffffffffffffffffff80610ec9611363565b166000526003602052604060002060243560005260205260406000209081541690600181015490600481015460ff6005830154169060076006840154930154936040519586526020860152604085015215156060840152608083015260a0820152f35b346101745760206003193601126101745773ffffffffffffffffffffffffffffffffffffffff610f5a611363565b1660005260066020526020604060002054604051908152f35b3461017457600060031936011261017457602073ffffffffffffffffffffffffffffffffffffffff60085416604051908152f35b3461017457610fb536611386565b9173ffffffffffffffffffffffffffffffffffffffff80911660005260209160038352604060002090600052825260406000209160405190610ff6826113bd565b83548316825260018085015482840152604051600286018054808352600091825284822092948581019492905b8282106110b7578a61271061108d8c8c8c8c611041818e03826113da565b6040820152611052600384016116a7565b6060820152600760048401549384608084015260ff600582015416151560a0840152600681015460c0840152015460e0820152511693611625565b6040805173ffffffffffffffffffffffffffffffffffffffff949094168452919004602083015290f35b845489168652948501949383019390830190611023565b34610174576040600319360112610174576110e7611340565b3373ffffffffffffffffffffffffffffffffffffffff821603611110576106679060043561154a565b60046040517f6697b232000000000000000000000000000000000000000000000000000000008152fd5b3461017457604060031936011261017457610667600435611159611340565b9080600052600060205261117460016040600020015461147a565b6114a0565b346101745760206003193601126101745760043560005260006020526020600160406000200154604051908152f35b34610174576000600319360112610174576020600954604051908152f35b34610174576000600319360112610174576111df61166c565b336000526005602052604060002054801561124457336000526005602052600060408120556000808080843382f115610b84576040519081527f9c56d4e207b08f0df71c47be77f4558c7954505688b8f5372c828ed167846e4060203392a260018055005b60646040517f08c379a000000000000000000000000000000000000000000000000000000000815260206004820152601360248201527f4e6f7468696e6720746f207769746864726177000000000000000000000000006044820152fd5b3461017457602060031936011261017457600435907fffffffff00000000000000000000000000000000000000000000000000000000821680920361017457817f7965db0b0000000000000000000000000000000000000000000000000000000060209314908115611316575b5015158152f35b7f01ffc9a7000000000000000000000000000000000000000000000000000000009150148361130f565b6024359073ffffffffffffffffffffffffffffffffffffffff8216820361017457565b6004359073ffffffffffffffffffffffffffffffffffffffff8216820361017457565b60031960609101126101745760043573ffffffffffffffffffffffffffffffffffffffff8116810361017457906024359060443590565b610100810190811067ffffffffffffffff8211176104d657604052565b90601f7fffffffffffffffffffffffffffffffffffffffffffffffffffffffffffffffe0910116810190811067ffffffffffffffff8211176104d657604052565b67ffffffffffffffff81116104d65760051b60200190565b805482101561144b5760005260206000200190600090565b7f4e487b7100000000000000000000000000000000000000000000000000000000600052603260045260246000fd5b80600052600060205260406000203360005260205260ff6040600020541615610c855750565b906000918083528260205273ffffffffffffffffffffffffffffffffffffffff6040842092169182845260205260ff604084205416156000146115455780835282602052604083208284526020526040832060017fffffffffffffffffffffffffffffffffffffffffffffffffffffffffffffff008254161790557f2f8788117e7eff1d82e926ec794901d17c78024a50270940304540a733656f0d339380a4600190565b505090565b906000918083528260205273ffffffffffffffffffffffffffffffffffffffff6040842092169182845260205260ff604084205416600014611545578083528260205260408320828452602052604083207fffffffffffffffffffffffffffffffffffffffffffffffffffffffffffffff0081541690557ff6391f5c32d9c69d2a47ea670b442974b53935d1edc7fd64eb21e047a839171b339380a4600190565b7fffffffffffffffffffffffffffffffffffffffffffffffffffffffffffffffff8114610b9a5760010190565b91908201809211610b9a57565b81810292918115918404141715610b9a57565b909182811061164657505050565b60009182526020822092830192015b82811061166157505050565b818155600101611655565b60026001541461167d576002600155565b60046040517f3ee5aeb5000000000000000000000000000000000000000000000000000000008152fd5b9060405191828154918282526020928383019160005283600020936000905b8282106116de575050506116dc925003836113da565b565b8554845260019586019588955093810193909101906116c656fea2646970667358221220ffec09bb0861681dd79dfb0edfac3e1bd1550eb072d4d6cc2bf44fe81b4a31f364736f6c634300081400332f8788117e7eff1d82e926ec794901d17c78024a50270940304540a733656f0d",
  "linkReferences": {},
  "deployedLinkReferences": {}
}