{
  "_format": "hh-sol-artifact-1",
  "contractName": "HistoricalValue",
  "sourceName": "contracts/layer3/temporal/HistoricalValue.sol",
  "abi": [
    {
      "inputs": [],
      "stateMutability": "nonpayable",
      "type": "constructor"
    },
    {
      "inputs": [
        {
          "internalType": "address",
          "name": "owner",
          "type": "address"
        }
      ],
      "name": "OwnableInvalidOwner",
      "type": "error"
    },
    {
      "inputs": [
        {
          "internalType": "address",
          "name": "account",
          "type": "address"
        }
      ],
      "name": "OwnableUnauthorizedAccount",
      "type": "error"
    },
    {
      "anonymous": false,
      "inputs": [
        {
          "indexed": true,
          "internalType": "uint256",
          "name": "entityId",
          "type": "uint256"
        },
        {
          "indexed": false,
          "internalType": "enum HistoricalValue.EventType",
          "name": "eventType",
          "type": "uint8"
        },
        {
          "indexed": false,
          "internalType": "uint256",
          "name": "impactScore",
          "type": "uint256"
        }
      ],
      "name": "EventRecorded",
      "type": "event"
    },
    {
      "anonymous": false,
      "inputs": [
        {
          "indexed": true,
          "internalType": "address",
          "name": "previousOwner",
          "type": "address"
        },
        {
          "indexed": true,
          "internalType": "address",
          "name": "newOwner",
          "type": "address"
        }
      ],
      "name": "OwnershipTransferred",
      "type": "event"
    },
    {
      "anonymous": false,
      "inputs": [
        {
          "indexed": true,
          "internalType": "uint256",
          "name": "entityId",
          "type": "uint256"
        },
        {
          "indexed": false,
          "internalType": "enum HistoricalValue.Trajectory",
          "name": "newTrajectory",
          "type": "uint8"
        }
      ],
      "name": "TrajectoryChanged",
      "type": "event"
    },
    {
      "inputs": [
        {
          "internalType": "uint256",
          "name": "entityId",
          "type": "uint256"
        },
        {
          "internalType": "uint256",
          "name": "baseValue",
          "type": "uint256"
        }
      ],
      "name": "calculateHistoricalValue",
      "outputs": [
        {
          "internalType": "uint256",
          "name": "",
          "type": "uint256"
        }
      ],
      "stateMutability": "view",
      "type": "function"
    },
    {
      "inputs": [
        {
          "internalType": "uint256",
          "name": "entityId",
          "type": "uint256"
        }
      ],
      "name": "calculateTrajectory",
      "outputs": [
        {
          "internalType": "enum HistoricalValue.Trajectory",
          "name": "",
          "type": "uint8"
        }
      ],
      "stateMutability": "nonpayable",
      "type": "function"
    },
    {
      "inputs": [
        {
          "internalType": "uint256",
          "name": "",
          "type": "uint256"
        },
        {
          "internalType": "uint256",
          "name": "",
          "type": "uint256"
        }
      ],
      "name": "entityEvents",
      "outputs": [
        {
          "internalType": "uint256",
          "name": "id",
          "type": "uint256"
        },
        {
          "internalType": "uint256",
          "name": "entityId",
          "type": "uint256"
        },
        {
          "internalType": "enum HistoricalValue.EventType",
          "name": "eventType",
          "type": "uint8"
        },
        {
          "internalType": "string",
          "name": "description",
          "type": "string"
        },
        {
          "internalType": "uint256",
          "name": "timestamp",
          "type": "uint256"
        },
        {
          "internalType": "uint256",
          "name": "impactScore",
          "type": "uint256"
        },
        {
          "internalType": "bytes32",
          "name": "dataHash",
          "type": "bytes32"
        }
      ],
      "stateMutability": "view",
      "type": "function"
    },
    {
      "inputs": [
        {
          "internalType": "uint256",
          "name": "",
          "type": "uint256"
        }
      ],
      "name": "entityHistory",
      "outputs": [
        {
          "internalType": "uint256",
          "name": "totalEvents",
          "type": "uint256"
        },
        {
          "internalType": "uint256",
          "name": "achievementCount",
          "type": "uint256"
        },
        {
          "internalType": "uint256",
          "name": "totalImpact",
          "type": "uint256"
        },
        {
          "internalType": "uint256",
          "name": "firstEventTime",
          "type": "uint256"
        },
        {
          "internalType": "uint256",
          "name": "lastEventTime",
          "type": "uint256"
        },
        {
          "internalType": "enum HistoricalValue.Trajectory",
          "name": "currentTrajectory",
          "type": "uint8"
        }
      ],
      "stateMutability": "view",
      "type": "function"
    },
    {
      "inputs": [],
      "name": "eventCount",
      "outputs": [
        {
          "internalType": "uint256",
          "name": "",
          "type": "uint256"
        }
      ],
      "stateMutability": "view",
      "type": "function"
    },
    {
      "inputs": [
        {
          "internalType": "uint256",
          "name": "entityId",
          "type": "uint256"
        }
      ],
      "name": "getEvents",
      "outputs": [
        {
          "components": [
            {
              "internalType": "uint256",
              "name": "id",
              "type": "uint256"
            },
            {
              "internalType": "uint256",
              "name": "entityId",
              "type": "uint256"
            },
            {
              "internalType": "enum HistoricalValue.EventType",
              "name": "eventType",
              "type": "uint8"
            },
            {
              "internalType": "string",
              "name": "description",
              "type": "string"
            },
            {
              "internalType": "uint256",
              "name": "timestamp",
              "type": "uint256"
            },
            {
              "internalType": "uint256",
              "name": "impactScore",
              "type": "uint256"
            },
            {
              "internalType": "bytes32",
              "name": "dataHash",
              "type": "bytes32"
            }
          ],
          "internalType": "struct HistoricalValue.HistoricalEvent[]",
          "name": "",
          "type": "tuple[]"
        }
      ],
      "stateMutability": "view",
      "type": "function"
    },
    {
      "inputs": [],
      "name": "owner",
      "outputs": [
        {
          "internalType": "address",
          "name": "",
          "type": "address"
        }
      ],
      "stateMutability": "view",
      "type": "function"
    },
    {
      "inputs": [
        {
          "internalType": "uint256",
          "name": "entityId",
          "type": "uint256"
        },
        {
          "internalType": "enum HistoricalValue.EventType",
          "name": "eventType",
          "type": "uint8"
        },
        {
          "internalType": "string",
          "name": "description",
          "type": "string"
        },
        {
          "internalType": "uint256",
          "name": "impactScore",
          "type": "uint256"
        },
        {
          "internalType": "bytes32",
          "name": "dataHash",
          "type": "bytes32"
        }
      ],
      "name": "recordEvent",
      "outputs": [],
      "stateMutability": "nonpayable",
      "type": "function"
    },
    {
      "inputs": [],
      "name": "renounceOwnership",
      "outputs": [],
      "stateMutability": "nonpayable",
      "type": "function"
    },
    {
      "inputs": [
        {
          "internalType": "address",
          "name": "newOwner",
          "type": "address"
        }
      ],
      "name": "transferOwnership",
      "outputs": [],
      "stateMutability": "nonpayable",
      "type": "function"
    }
  ],
  "bytecode": "0x608060405234801561001057600080fd5b50338061003757604051631e4fbdf760e01b81526000600482015260240160405180910390fd5b61004081610046565b50610096565b600080546001600160a01b038381166001600160a01b0319831681178455604051919092169283917f8be0079c531659141344cd1fd0a4f28419497f9722a3daafe3b4186f6b6457e09190a35050565b6110aa806100a56000396000f3fe608060405234801561001057600080fd5b506004361061009e5760003560e01c80639402c479116100665780639402c4791461011b578063bd687def14610141578063c6b94c4314610161578063da9b4223146101bb578063f2fde38b146101ce57600080fd5b8063231589f7146100a3578063577ef701146100b8578063715018a6146100e157806371be2e4a146100e95780638da5cb5b14610100575b600080fd5b6100b66100b1366004610b40565b6101e1565b005b6100cb6100c6366004610c23565b6103b9565b6040516100d89190610c66565b60405180910390f35b6100b66105f5565b6100f260035481565b6040519081526020016100d8565b6000546040516001600160a01b0390911681526020016100d8565b61012e610129366004610c74565b610609565b6040516100d89796959493929190610cec565b61015461014f366004610c23565b6106f0565b6040516100d89190610d37565b6101a961016f366004610c23565b6002602081905260009182526040909120805460018201549282015460038301546004840154600590940154929493919290919060ff1686565b6040516100d896959493929190610dea565b6100f26101c9366004610c74565b61085f565b6100b66101dc366004610e25565b610915565b600380549060006101f183610e6b565b919050555060006040518060e00160405280600354815260200187815260200186600581111561022357610223610c3c565b8152602080820187905242604080840191909152606083018790526080909201859052600089815260018083528382208054808301825590835291839020855160079093020191825591840151818301559183015160028301805494955085949192909160ff19169083600581111561029e5761029e610c3c565b0217905550606082015160038201906102b79082610f0d565b506080820151600482015560a0820151600582015560c090910151600690910155600086815260026020526040812080549091036102f6574260038201555b805481600061030483610e6b565b91905055508381600201600082825461031d9190610fcd565b9091555050426004820155600086600581111561033c5761033c610c3c565b14806103595750600586600581111561035757610357610c3c565b145b156103765760018101805490600061037083610e6b565b91905055505b867f1a4240505483ebd3a43ffc83f57300fb8c26b98b18da4242d5cb8adeca9e3b5b87866040516103a8929190610fe0565b60405180910390a250505050505050565b60008181526002602052604081208054600311156103da5750600192915050565b600080806103eb62278d0042610ffb565b60008781526001602052604090208054919250905b6000811180156104105750600a84105b156104a5578282610422600184610ffb565b815481106104325761043261100e565b90600052602060002090600702016004015411156104935781610456600183610ffb565b815481106104665761046661100e565b906000526020600020906007020160050154856104839190610fcd565b94508361048f81610e6b565b9450505b8061049d81611024565b915050610400565b50826000036104bb575060029695505050505050565b60006104c7848661103b565b90506000866000015487600201546104df919061103b565b90506000600a6104f083600f61105d565b6104fa919061103b565b83111561050957506003610559565b600a61051683600b61105d565b610520919061103b565b83111561052f57506000610559565b600a61053c83600961105d565b610546919061103b565b83101561055557506002610559565b5060015b600588015460ff16600381111561057257610572610c3c565b81600381111561058457610584610c3c565b146105e85760058801805482919060ff191660018360038111156105aa576105aa610c3c565b0217905550897fd1f971eb231fa6149f67e90cca6b67329107156b1f4f798a5ed4148405d3b121826040516105df9190610c66565b60405180910390a25b9998505050505050505050565b6105fd610958565b6106076000610985565b565b6001602052816000526040600020818154811061062557600080fd5b6000918252602090912060079091020180546001820154600283015460038401805493965091945060ff16929161065b90610e84565b80601f016020809104026020016040519081016040528092919081815260200182805461068790610e84565b80156106d45780601f106106a9576101008083540402835291602001916106d4565b820191906000526020600020905b8154815290600101906020018083116106b757829003601f168201915b5050505050908060040154908060050154908060060154905087565b606060016000838152602001908152602001600020805480602002602001604051908101604052809291908181526020016000905b8282101561085457838290600052602060002090600702016040518060e001604052908160008201548152602001600182015481526020016002820160009054906101000a900460ff16600581111561078057610780610c3c565b600581111561079157610791610c3c565b81526020016003820180546107a590610e84565b80601f01602080910402602001604051908101604052809291908181526020018280546107d190610e84565b801561081e5780601f106107f35761010080835404028352916020019161081e565b820191906000526020600020905b81548152906001019060200180831161080157829003601f168201915b50505050508152602001600482015481526020016005820154815260200160068201548152505081526020019060010190610725565b505050509050919050565b60008281526002602052604081206001810154829061087f90603261105d565b905060646000600584015460ff16600381111561089e5761089e610c3c565b036108ab575060966108cf565b6003600584015460ff1660038111156108c6576108c6610c3c565b036108cf575060c85b60006108da876109d5565b9050806064836108ea868a610fcd565b6108f4919061105d565b6108fe919061103b565b6109089190610fcd565b9450505050505b92915050565b61091d610958565b6001600160a01b03811661094c57604051631e4fbdf760e01b8152600060048201526024015b60405180910390fd5b61095581610985565b50565b6000546001600160a01b031633146106075760405163118cdaa760e01b8152336004820152602401610943565b600080546001600160a01b038381166001600160a01b0319831681178455604051919092169283917f8be0079c531659141344cd1fd0a4f28419497f9722a3daafe3b4186f6b6457e09190a35050565b60008181526001602052604081208054600511156109f65750600092915050565b60008060008060005b8554811015610aec576002868281548110610a1c57610a1c61100e565b600091825260209091206002600790920201015460ff166005811115610a4457610a44610c3c565b03610a4e57600193505b6003868281548110610a6257610a6261100e565b600091825260209091206002600790920201015460ff166005811115610a8a57610a8a610c3c565b03610a9457600192505b6005868281548110610aa857610aa861100e565b600091825260209091206002600790920201015460ff166005811115610ad057610ad0610c3c565b03610ada57600191505b80610ae481610e6b565b9150506109ff565b50828015610af75750815b15610b0a57610b0760c885610fcd565b93505b8015610b1f57610b1c61012c85610fcd565b93505b509195945050505050565b634e487b7160e01b600052604160045260246000fd5b600080600080600060a08688031215610b5857600080fd5b85359450602086013560068110610b6e57600080fd5b9350604086013567ffffffffffffffff80821115610b8b57600080fd5b818801915088601f830112610b9f57600080fd5b813581811115610bb157610bb1610b2a565b604051601f8201601f19908116603f01168101908382118183101715610bd957610bd9610b2a565b816040528281528b6020848701011115610bf257600080fd5b8260208601602083013760009281016020019290925250969995985095966060810135965060800135949350505050565b600060208284031215610c3557600080fd5b5035919050565b634e487b7160e01b600052602160045260246000fd5b60048110610c6257610c62610c3c565b9052565b6020810161090f8284610c52565b60008060408385031215610c8757600080fd5b50508035926020909101359150565b60068110610c6257610c62610c3c565b6000815180845260005b81811015610ccc57602081850181015186830182015201610cb0565b506000602082860101526020601f19601f83011685010191505092915050565b878152866020820152610d026040820187610c96565b60e060608201526000610d1860e0830187610ca6565b60808301959095525060a081019290925260c090910152949350505050565b60006020808301818452808551808352604092508286019150828160051b87010184880160005b83811015610ddc57603f19898403018552815160e081518552888201518986015287820151610d8f89870182610c96565b506060808301518282880152610da783880182610ca6565b6080858101519089015260a0808601519089015260c09485015194909701939093525050509386019390860190600101610d5e565b509098975050505050505050565b600060c082019050878252866020830152856040830152846060830152836080830152610e1a60a0830184610c52565b979650505050505050565b600060208284031215610e3757600080fd5b81356001600160a01b0381168114610e4e57600080fd5b9392505050565b634e487b7160e01b600052601160045260246000fd5b600060018201610e7d57610e7d610e55565b5060010190565b600181811c90821680610e9857607f821691505b602082108103610eb857634e487b7160e01b600052602260045260246000fd5b50919050565b601f821115610f0857600081815260208120601f850160051c81016020861015610ee55750805b601f850160051c820191505b81811015610f0457828155600101610ef1565b5050505b505050565b815167ffffffffffffffff811115610f2757610f27610b2a565b610f3b81610f358454610e84565b84610ebe565b602080601f831160018114610f705760008415610f585750858301515b600019600386901b1c1916600185901b178555610f04565b600085815260208120601f198616915b82811015610f9f57888601518255948401946001909101908401610f80565b5085821015610fbd5787850151600019600388901b60f8161c191681555b5050505050600190811b01905550565b8082018082111561090f5761090f610e55565b60408101610fee8285610c96565b8260208301529392505050565b8181038181111561090f5761090f610e55565b634e487b7160e01b600052603260045260246000fd5b60008161103357611033610e55565b506000190190565b60008261105857634e487b7160e01b600052601260045260246000fd5b500490565b808202811582820484141761090f5761090f610e5556fea2646970667358221220506113a81b1273e69b00b9d65eecd503ed284b015090a2a3872b25881abb06ce64736f6c63430008140033",
  "linkReferences": {},
  "deployedLinkReferences": {}
}