{
  "_format": "hh-sol-artifact-1",
  "contractName": "DerivativesMarket",
  "sourceName": "contracts/layer6/trading/DerivativesMarket.sol",
  "abi": [
    {
      "inputs": [
        {
          "internalType": "address",
          "name": "_treasury",
          "type": "address"
        }
      ],
      "stateMutability": "nonpayable",
      "type": "constructor"
    },
    {
      "inputs": [],
      "name": "AccessControlBadConfirmation",
      "type": "error"
    },
    {
      "inputs": [
        {
          "internalType": "address",
          "name": "account",
          "type": "address"
        },
        {
          "internalType": "bytes32",
          "name": "neededRole",
          "type": "bytes32"
        }
      ],
      "name": "AccessControlUnauthorizedAccount",
      "type": "error"
    },
    {
      "inputs": [],
      "name": "ReentrancyGuardReentrantCall",
      "type": "error"
    },
    {
      "anonymous": false,
      "inputs": [
        {
          "indexed": true,
          "internalType": "address",
          "name": "nftContract",
          "type": "address"
        },
        {
          "indexed": false,
          "internalType": "uint256",
          "name": "newPrice",
          "type": "uint256"
        }
      ],
      "name": "FloorPriceUpdated",
      "type": "event"
    },
    {
      "anonymous": false,
      "inputs": [
        {
          "indexed": true,
          "internalType": "uint256",
          "name": "optionId",
          "type": "uint256"
        },
        {
          "indexed": true,
          "internalType": "address",
          "name": "holder",
          "type": "address"
        },
        {
          "indexed": false,
          "internalType": "uint256",
          "name": "payout",
          "type": "uint256"
        }
      ],
      "name": "OptionExercised",
      "type": "event"
    },
    {
      "anonymous": false,
      "inputs": [
        {
          "indexed": true,
          "internalType": "uint256",
          "name": "optionId",
          "type": "uint256"
        }
      ],
      "name": "OptionExpired",
      "type": "event"
    },
    {
      "anonymous": false,
      "inputs": [
        {
          "indexed": true,
          "internalType": "uint256",
          "name": "optionId",
          "type": "uint256"
        },
        {
          "indexed": true,
          "internalType": "address",
          "name": "holder",
          "type": "address"
        },
        {
          "indexed": false,
          "internalType": "uint256",
          "name": "premium",
          "type": "uint256"
        }
      ],
      "name": "OptionPurchased",
      "type": "event"
    },
    {
      "anonymous": false,
      "inputs": [
        {
          "indexed": true,
          "internalType": "uint256",
          "name": "optionId",
          "type": "uint256"
        },
        {
          "indexed": true,
          "internalType": "address",
          "name": "writer",
          "type": "address"
        },
        {
          "indexed": false,
          "internalType": "enum DerivativesMarket.OptionType",
          "name": "optionType",
          "type": "uint8"
        },
        {
          "indexed": false,
          "internalType": "uint256",
          "name": "strikePrice",
          "type": "uint256"
        },
        {
          "indexed": false,
          "internalType": "uint256",
          "name": "expiry",
          "type": "uint256"
        }
      ],
      "name": "OptionWritten",
      "type": "event"
    },
    {
      "anonymous": false,
      "inputs": [
        {
          "indexed": true,
          "internalType": "bytes32",
          "name": "role",
          "type": "bytes32"
        },
        {
          "indexed": true,
          "internalType": "bytes32",
          "name": "previousAdminRole",
          "type": "bytes32"
        },
        {
          "indexed": true,
          "internalType": "bytes32",
          "name": "newAdminRole",
          "type": "bytes32"
        }
      ],
      "name": "RoleAdminChanged",
      "type": "event"
    },
    {
      "anonymous": false,
      "inputs": [
        {
          "indexed": true,
          "internalType": "bytes32",
          "name": "role",
          "type": "bytes32"
        },
        {
          "indexed": true,
          "internalType": "address",
          "name": "account",
          "type": "address"
        },
        {
          "indexed": true,
          "internalType": "address",
          "name": "sender",
          "type": "address"
        }
      ],
      "name": "RoleGranted",
      "type": "event"
    },
    {
      "anonymous": false,
      "inputs": [
        {
          "indexed": true,
          "internalType": "bytes32",
          "name": "role",
          "type": "bytes32"
        },
        {
          "indexed": true,
          "internalType": "address",
          "name": "account",
          "type": "address"
        },
        {
          "indexed": true,
          "internalType": "address",
          "name": "sender",
          "type": "address"
        }
      ],
      "name": "RoleRevoked",
      "type": "event"
    },
    {
      "inputs": [],
      "name": "DEFAULT_ADMIN_ROLE",
      "outputs": [
        {
          "internalType": "bytes32",
          "name": "",
          "type": "bytes32"
        }
      ],
      "stateMutability": "view",
      "type": "function"
    },
    {
      "inputs": [],
      "name": "ORACLE_ROLE",
      "outputs": [
        {
          "internalType": "bytes32",
          "name": "",
          "type": "bytes32"
        }
      ],
      "stateMutability": "view",
      "type": "function"
    },
    {
      "inputs": [
        {
          "internalType": "uint256",
          "name": "optionId",
          "type": "uint256"
        }
      ],
      "name": "buyOption",
      "outputs": [],
      "stateMutability": "payable",
      "type": "function"
    },
    {
      "inputs": [
        {
          "internalType": "uint256",
          "name": "optionId",
          "type": "uint256"
        }
      ],
      "name": "exerciseOption",
      "outputs": [],
      "stateMutability": "nonpayable",
      "type": "function"
    },
    {
      "inputs": [
        {
          "internalType": "uint256",
          "name": "optionId",
          "type": "uint256"
        }
      ],
      "name": "expireOption",
      "outputs": [],
      "stateMutability": "nonpayable",
      "type": "function"
    },
    {
      "inputs": [
        {
          "internalType": "address",
          "name": "holder",
          "type": "address"
        }
      ],
      "name": "getHolderOptions",
      "outputs": [
        {
          "internalType": "uint256[]",
          "name": "",
          "type": "uint256[]"
        }
      ],
      "stateMutability": "view",
      "type": "function"
    },
    {
      "inputs": [
        {
          "internalType": "bytes32",
          "name": "role",
          "type": "bytes32"
        }
      ],
      "name": "getRoleAdmin",
      "outputs": [
        {
          "internalType": "bytes32",
          "name": "",
          "type": "bytes32"
        }
      ],
      "stateMutability": "view",
      "type": "function"
    },
    {
      "inputs": [
        {
          "internalType": "address",
          "name": "writer",
          "type": "address"
        }
      ],
      "name": "getWriterOptions",
      "outputs": [
        {
          "internalType": "uint256[]",
          "name": "",
          "type": "uint256[]"
        }
      ],
      "stateMutability": "view",
      "type": "function"
    },
    {
      "inputs": [
        {
          "internalType": "bytes32",
          "name": "role",
          "type": "bytes32"
        },
        {
          "internalType": "address",
          "name": "account",
          "type": "address"
        }
      ],
      "name": "grantRole",
      "outputs": [],
      "stateMutability": "nonpayable",
      "type": "function"
    },
    {
      "inputs": [
        {
          "internalType": "bytes32",
          "name": "role",
          "type": "bytes32"
        },
        {
          "internalType": "address",
          "name": "account",
          "type": "address"
        }
      ],
      "name": "hasRole",
      "outputs": [
        {
          "internalType": "bool",
          "name": "",
          "type": "bool"
        }
      ],
      "stateMutability": "view",
      "type": "function"
    },
    {
      "inputs": [
        {
          "internalType": "address",
          "name": "",
          "type": "address"
        },
        {
          "internalType": "uint256",
          "name": "",
          "type": "uint256"
        }
      ],
      "name": "holderOptions",
      "outputs": [
        {
          "internalType": "uint256",
          "name": "",
          "type": "uint256"
        }
      ],
      "stateMutability": "view",
      "type": "function"
    },
    {
      "inputs": [
        {
          "internalType": "address",
          "name": "",
          "type": "address"
        }
      ],
      "name": "nftFloorPrices",
      "outputs": [
        {
          "internalType": "uint256",
          "name": "",
          "type": "uint256"
        }
      ],
      "stateMutability": "view",
      "type": "function"
    },
    {
      "inputs": [
        {
          "internalType": "uint256",
          "name": "",
          "type": "uint256"
        }
      ],
      "name": "options",
      "outputs": [
        {
          "internalType": "uint256",
          "name": "optionId",
          "type": "uint256"
        },
        {
          "internalType": "address",
          "name": "writer",
          "type": "address"
        },
        {
          "internalType": "address",
          "name": "holder",
          "type": "address"
        },
        {
          "internalType": "address",
          "name": "nftContract",
          "type": "address"
        },
        {
          "internalType": "enum DerivativesMarket.OptionType",
          "name": "optionType",
          "type": "uint8"
        },
        {
          "internalType": "uint256",
          "name": "strikePrice",
          "type": "uint256"
        },
        {
          "internalType": "uint256",
          "name": "premium",
          "type": "uint256"
        },
        {
          "internalType": "uint256",
          "name": "expiry",
          "type": "uint256"
        },
        {
          "internalType": "enum DerivativesMarket.OptionStatus",
          "name": "status",
          "type": "uint8"
        },
        {
          "internalType": "uint256",
          "name": "createdAt",
          "type": "uint256"
        },
        {
          "internalType": "bool",
          "name": "isAmerican",
          "type": "bool"
        },
        {
          "internalType": "uint256",
          "name": "collateral",
          "type": "uint256"
        }
      ],
      "stateMutability": "view",
      "type": "function"
    },
    {
      "inputs": [],
      "name": "platformFeeBps",
      "outputs": [
        {
          "internalType": "uint256",
          "name": "",
          "type": "uint256"
        }
      ],
      "stateMutability": "view",
      "type": "function"
    },
    {
      "inputs": [
        {
          "internalType": "bytes32",
          "name": "role",
          "type": "bytes32"
        },
        {
          "internalType": "address",
          "name": "callerConfirmation",
          "type": "address"
        }
      ],
      "name": "renounceRole",
      "outputs": [],
      "stateMutability": "nonpayable",
      "type": "function"
    },
    {
      "inputs": [
        {
          "internalType": "bytes32",
          "name": "role",
          "type": "bytes32"
        },
        {
          "internalType": "address",
          "name": "account",
          "type": "address"
        }
      ],
      "name": "revokeRole",
      "outputs": [],
      "stateMutability": "nonpayable",
      "type": "function"
    },
    {
      "inputs": [
        {
          "internalType": "bytes4",
          "name": "i",
          "type": "bytes4"
        }
      ],
      "name": "supportsInterface",
      "outputs": [
        {
          "internalType": "bool",
          "name": "",
          "type": "bool"
        }
      ],
      "stateMutability": "view",
      "type": "function"
    },
    {
      "inputs": [],
      "name": "totalOptions",
      "outputs": [
        {
          "internalType": "uint256",
          "name": "",
          "type": "uint256"
        }
      ],
      "stateMutability": "view",
      "type": "function"
    },
    {
      "inputs": [],
      "name": "totalPremiumsCollected",
      "outputs": [
        {
          "internalType": "uint256",
          "name": "",
          "type": "uint256"
        }
      ],
      "stateMutability": "view",
      "type": "function"
    },
    {
      "inputs": [],
      "name": "treasury",
      "outputs": [
        {
          "internalType": "address",
          "name": "",
          "type": "address"
        }
      ],
      "stateMutability": "view",
      "type": "function"
    },
    {
      "inputs": [
        {
          "internalType": "address",
          "name": "nftContract",
          "type": "address"
        },
        {
          "internalType": "uint256",
          "name": "price",
          "type": "uint256"
        }
      ],
      "name": "updateFloorPrice",
      "outputs": [],
      "stateMutability": "nonpayable",
      "type": "function"
    },
    {
      "inputs": [
        {
          "internalType": "address",
          "name": "nftContract",
          "type": "address"
        },
        {
          "internalType": "enum DerivativesMarket.OptionType",
          "name": "optionType",
          "type": "uint8"
        },
        {
          "internalType": "uint256",
          "name": "strikePrice",
          "type": "uint256"
        },
        {
          "internalType": "uint256",
          "name": "premium",
          "type": "uint256"
        },
        {
          "internalType": "uint256",
          "name": "expiry",
          "type": "uint256"
        },
        {
          "internalType": "bool",
          "name": "isAmerican",
          "type": "bool"
        }
      ],
      "name": "writeOption",
      "outputs": [
        {
          "internalType": "uint256",
          "name": "",
          "type": "uint256"
        }
      ],
      "stateMutability": "payable",
      "type": "function"
    },
    {
      "inputs": [
        {
          "internalType": "address",
          "name": "",
          "type": "address"
        },
        {
          "internalType": "uint256",
          "name": "",
          "type": "uint256"
        }
      ],
      "name": "writerOptions",
      "outputs": [
        {
          "internalType": "uint256",
          "name": "",
          "type": "uint256"
        }
      ],
      "stateMutability": "view",
      "type": "function"
    }
  ],
  "bytecode": "0x6080346200009c57601f62001ab538819003918201601f19168301916001600160401b03831184841017620000a1578084926020946040528339810103126200009c57516001600160a01b038116908190036200009c576001805561012c600855600780546001600160a01b0319169190911790556200007f33620000b7565b506200008b3362000137565b506040516118bb9081620001da8239f35b600080fd5b634e487b7160e01b600052604160045260246000fd5b6001600160a01b031660008181527fad3228b676f7d3cd4284a5443f17f1962b36e491b30a40b2405849e597ba5fb5602052604081205490919060ff166200013357818052816020526040822081835260205260408220600160ff19825416179055339160008051602062001a958339815191528180a4600190565b5090565b6001600160a01b031660008181527fa629f6981c2f6895a67dc766e8e03ff72d04a413d0d8773a3ca56e9e474032c160205260408120549091907f68e79a7bf1e0bc45d0a330c573bc367f9cf464fd326078812f301165fbda4ef19060ff16620001d457808352826020526040832082845260205260408320600160ff1982541617905560008051602062001a95833981519152339380a4600190565b50509056fe608080604052600436101561001357600080fd5b60003560e01c90816301ffc9a7146114495750806302f126e81461132057806307e2cea5146112e557806322dcd13e146112c7578063248a9ca3146112985780632f2ff15d1461125957806336568abe146111ed5780633705334f146110a15780633cec81d01461105a5780633dadde201461103c578063409e220514610f5f57806361d027b314610f2b57806363a00c6314610ea657806391d1485414610e4b5780639a39050b14610df6578063a217fddf14610dda578063b354388914610dbc578063d547741f14610d7b578063da0abecf14610904578063ea6eff85146108a1578063f45009021461080c578063f52f25261461043b5763fba225b91461011c57600080fd5b602080600319360112610436576004356101346117ff565b8060005260038252604060002060ff6007820154166004811015610407576103c3576002810180549173ffffffffffffffffffffffffffffffffffffffff9182841661037f57600682015442101561033b576005820193845434106102f7577fffffffffffffffffffffffff000000000000000000000000000000000000000033911617905533600052600685526101d084604060002061179b565b8254600854908181029181830414901517156102b65761271090049060008080808587600754168282156102ee575bf1156102a157600080939261021e8294600184950154169187546117f2565b908282156102e5575bf1156102a1578054600a549081018091116102b657600a55805480341161027c575b505460405190815233927f2817d4d24c9bf2a000a920b5dc026716e4e03e69619522be61549dacfa752cbd91a360018055005b6000808061028b8194346117f2565b8181156102ad575b3390f1156102a15738610249565b6040513d6000823e3d90fd5b506108fc610293565b7f4e487b7100000000000000000000000000000000000000000000000000000000600052601160045260246000fd5b506108fc610227565b506108fc6101ff565b6064876040519062461bcd60e51b82526004820152601460248201527f496e73756666696369656e74207072656d69756d0000000000000000000000006044820152fd5b6064866040519062461bcd60e51b82526004820152600e60248201527f4f7074696f6e20657870697265640000000000000000000000000000000000006044820152fd5b6064866040519062461bcd60e51b82526004820152601160248201527f416c7265616479207075726368617365640000000000000000000000000000006044820152fd5b6064836040519062461bcd60e51b82526004820152600d60248201527f4e6f7420617661696c61626c65000000000000000000000000000000000000006044820152fd5b7f4e487b7100000000000000000000000000000000000000000000000000000000600052602160045260246000fd5b600080fd5b3461043657602080600319360112610436576004356104586117ff565b806000526003825260406000209173ffffffffffffffffffffffffffffffffffffffff928360028201541633036107c857600781019384549060ff82166004811015610407576104a8901561183a565b60068301548042116107845760ff600985015416156106e4575b506003830154818116600052600485526040600020549081156106a05760ff60009160a01c16600281101561040757801580610693575b15610657575050600484015461050e916117f2565b955b861561061357600a840192835488116105cf577fffffffffffffffffffffffffffffffffffffffffffffffffffffffffffffff001660011790556000808080893382f1156102a15785915492828411610597575b82867f4596c154c182e8f70aa23d7334caf575c608e8bb46b16ba48782961cbca9312e876040519384523393a360018055005b6000936105ae8594859460018695015416926117f2565b908282156105c6575bf1156102a15783838180610564565b506108fc6105b7565b6064866040519062461bcd60e51b82526004820152601960248201527f5061796f7574206578636565647320636f6c6c61746572616c000000000000006044820152fd5b6064856040519062461bcd60e51b82526004820152601760248201527f4f7074696f6e206e6f7420696e20746865206d6f6e65790000000000000000006044820152fd5b9097919060011480610686575b61066f575b50610510565b61067f91975060048501546117f2565b9587610669565b5080600486015411610664565b50600486015483116104f9565b6064866040519062461bcd60e51b82526004820152601260248201527f4e6f20666c6f6f722070726963652073657400000000000000000000000000006044820152fd5b7ffffffffffffffffffffffffffffffffffffffffffffffffffffffffffffff1f081019081116102b657421061071a57866104c2565b6084846040519062461bcd60e51b82526004820152602360248201527f4575726f7065616e3a206578657263697365206f6e6c79206e6561722065787060448201527f69727900000000000000000000000000000000000000000000000000000000006064820152fd5b6064856040519062461bcd60e51b82526004820152600760248201527f45787069726564000000000000000000000000000000000000000000000000006044820152fd5b6064826040519062461bcd60e51b82526004820152600a60248201527f4e6f7420686f6c646572000000000000000000000000000000000000000000006044820152fd5b34610436576020806003193601126104365773ffffffffffffffffffffffffffffffffffffffff61083b61150a565b1660005260068152604060002090604051908181845491828152019360005281600020916000905b82821061088a576108868561087a8189038261175a565b6040519182918261153a565b0390f35b835486529485019460019384019390910190610863565b34610436576040600319360112610436576108ba61150a565b73ffffffffffffffffffffffffffffffffffffffff6024359116600052600560205260406000208054821015610436576020916108f691611575565b90546040519160031b1c8152f35b60c06003193601126104365761091861150a565b6024356002811015610436576064359060843560443560a43580151581036104365742831115610d375781151580610d2e575b15610cea5783610c7857600a82043410610c0e575b61096b60025461172d565b94856002556040519661018088019088821067ffffffffffffffff831117610bdf5773ffffffffffffffffffffffffffffffffffffffff916040528789523360208a0152600060408a01521660608801528460808801528260a088015260c08701528260e08701526000610100870152426101208701521515610140860152346101608601528360005260036020526040600020855181556001810173ffffffffffffffffffffffffffffffffffffffff602088015116907fffffffffffffffffffffffff00000000000000000000000000000000000000009182825416179055600282019073ffffffffffffffffffffffffffffffffffffffff604089015116908254161790556003810173ffffffffffffffffffffffffffffffffffffffff606088015116815490608089015160028110156104075774ff00000000000000000000000000000000000000007fffffffffffffffffffffff0000000000000000000000000000000000000000009160a01b1692161717905560a0860151600482015560c0860151600582015560e086015160068201556007810161010087015190600482101561040757602097600a92610160927fffffffffffffffffffffffffffffffffffffffffffffffffffffffffffffff009160ff8383541691161790556101208201516008860155600985019060ff610140840151151591835416911617905501519101553360005260058552610b8c84604060002061179b565b610b9760095461172d565b600955610ba7604051809461152d565b848301526040820152817f5e788e18c054dc9ab6e0357ffd35a7d715ea516f8f52dede2a9d421e9d62f1b860603393a3604051908152f35b7f4e487b7100000000000000000000000000000000000000000000000000000000600052604160045260246000fd5b608460405162461bcd60e51b815260206004820152603060248201527f496e73756666696369656e742063616c6c20636f6c6c61746572616c20286d6960448201527f6e20313025206f6620737472696b6529000000000000000000000000000000006064820152fd5b8134101561096057608460405162461bcd60e51b815260206004820152602c60248201527f496e73756666696369656e742070757420636f6c6c61746572616c202831303060448201527f25206f6620737472696b652900000000000000000000000000000000000000006064820152fd5b606460405162461bcd60e51b815260206004820152600e60248201527f496e76616c696420706172616d730000000000000000000000000000000000006044820152fd5b5084151561094b565b606460405162461bcd60e51b815260206004820152601c60248201527f457870697279206d75737420626520696e2074686520667574757265000000006044820152fd5b3461043657604060031936011261043657610dba600435610d9a6114e7565b90806000526000602052610db56001604060002001546115bc565b61168c565b005b34610436576000600319360112610436576020600954604051908152f35b3461043657600060031936011261043657602060405160008152f35b3461043657604060031936011261043657610e0f61150a565b73ffffffffffffffffffffffffffffffffffffffff6024359116600052600660205260406000208054821015610436576020916108f691611575565b3461043657604060031936011261043657610e646114e7565b600435600052600060205273ffffffffffffffffffffffffffffffffffffffff60406000209116600052602052602060ff604060002054166040519015158152f35b34610436576020806003193601126104365773ffffffffffffffffffffffffffffffffffffffff610ed561150a565b1660005260058152604060002090604051908181845491828152019360005281600020916000905b828210610f14576108868561087a8189038261175a565b835486529485019460019384019390910190610efd565b3461043657600060031936011261043657602073ffffffffffffffffffffffffffffffffffffffff60075416604051908152f35b346104365760206003193601126104365760043560005260036020526040600020805473ffffffffffffffffffffffffffffffffffffffff918260018201541690836002820154166003820154600483015460058401549061100460068601549360ff60078801541699600888015496600a60ff60098b015416990154996040519b8c5260208c015260408b0152811660608a015260ff60808a019160a01c1661152d565b60a087015260c086015260e0850152600485101561040757610180946101008501526101208401521515610140830152610160820152f35b34610436576000600319360112610436576020600a54604051908152f35b346104365760206003193601126104365773ffffffffffffffffffffffffffffffffffffffff61108861150a565b1660005260046020526020604060002054604051908152f35b34610436576040600319360112610436576110ba61150a565b3360009081527fa629f6981c2f6895a67dc766e8e03ff72d04a413d0d8773a3ca56e9e474032c1602052604090205460243591907f68e79a7bf1e0bc45d0a330c573bc367f9cf464fd326078812f301165fbda4ef19060ff16156111b65750811561117257602073ffffffffffffffffffffffffffffffffffffffff7f20b629145158b824c9c11d46c855d5e5817317909e0ac9598f9b8b467d078003921692836000526004825280604060002055604051908152a2005b606460405162461bcd60e51b815260206004820152601160248201527f5072696365206d757374206265203e20300000000000000000000000000000006044820152fd5b604490604051907fe2517d3f0000000000000000000000000000000000000000000000000000000082523360048301526024820152fd5b34610436576040600319360112610436576112066114e7565b3373ffffffffffffffffffffffffffffffffffffffff82160361122f57610dba9060043561168c565b60046040517f6697b232000000000000000000000000000000000000000000000000000000008152fd5b3461043657604060031936011261043657610dba6004356112786114e7565b908060005260006020526112936001604060002001546115bc565b6115e2565b346104365760206003193601126104365760043560005260006020526020600160406000200154604051908152f35b34610436576000600319360112610436576020600854604051908152f35b346104365760006003193601126104365760206040517f68e79a7bf1e0bc45d0a330c573bc367f9cf464fd326078812f301165fbda4ef18152f35b346104365760206003193601126104365760043561133c6117ff565b806000526003602052604060002060068101544211156114055760078101805460ff8116600481101561040757600093849360027fffffffffffffffffffffffffffffffffffffffffffffffffffffffffffffff00869561139e87961561183a565b16179055600a73ffffffffffffffffffffffffffffffffffffffff600183015416910154908282156113fc575bf1156102a1577f04d03607ff2d12a2aef0938dbebbfbb423182f741164e646928a49a5a728f9c6600080a260018055005b506108fc6113cb565b606460405162461bcd60e51b815260206004820152600f60248201527f4e6f7420657870697265642079657400000000000000000000000000000000006044820152fd5b3461043657602060031936011261043657600435907fffffffff00000000000000000000000000000000000000000000000000000000821680920361043657817f7965db0b00000000000000000000000000000000000000000000000000000000602093149081156114bd575b5015158152f35b7f01ffc9a700000000000000000000000000000000000000000000000000000000915014836114b6565b6024359073ffffffffffffffffffffffffffffffffffffffff8216820361043657565b6004359073ffffffffffffffffffffffffffffffffffffffff8216820361043657565b9060028210156104075752565b6020908160408183019282815285518094520193019160005b828110611561575050505090565b835185529381019392810192600101611553565b805482101561158d5760005260206000200190600090565b7f4e487b7100000000000000000000000000000000000000000000000000000000600052603260045260246000fd5b80600052600060205260406000203360005260205260ff60406000205416156111b65750565b906000918083528260205273ffffffffffffffffffffffffffffffffffffffff6040842092169182845260205260ff604084205416156000146116875780835282602052604083208284526020526040832060017fffffffffffffffffffffffffffffffffffffffffffffffffffffffffffffff008254161790557f2f8788117e7eff1d82e926ec794901d17c78024a50270940304540a733656f0d339380a4600190565b505090565b906000918083528260205273ffffffffffffffffffffffffffffffffffffffff6040842092169182845260205260ff604084205416600014611687578083528260205260408320828452602052604083207fffffffffffffffffffffffffffffffffffffffffffffffffffffffffffffff0081541690557ff6391f5c32d9c69d2a47ea670b442974b53935d1edc7fd64eb21e047a839171b339380a4600190565b7fffffffffffffffffffffffffffffffffffffffffffffffffffffffffffffffff81146102b65760010190565b90601f7fffffffffffffffffffffffffffffffffffffffffffffffffffffffffffffffe0910116810190811067ffffffffffffffff821117610bdf57604052565b805468010000000000000000811015610bdf576117bd91600182018155611575565b7fffffffffffffffffffffffffffffffffffffffffffffffffffffffffffffffff829392549160031b92831b921b1916179055565b919082039182116102b657565b600260015414611810576002600155565b60046040517f3ee5aeb5000000000000000000000000000000000000000000000000000000008152fd5b1561184157565b606460405162461bcd60e51b815260206004820152600a60248201527f4e6f7420616374697665000000000000000000000000000000000000000000006044820152fdfea26469706673582212208ad216be1751b02cd2e805c0677727bfa182c00d175a7e1eb0bc085b0f9b9efd64736f6c634300081400332f8788117e7eff1d82e926ec794901d17c78024a50270940304540a733656f0d",
  "linkReferences": {},
  "deployedLinkReferences": {}
}