{"contracts/layer3/psychology/TrustDynamics.sol":{"TrustDynamics":{"abi":[{"inputs":[],"stateMutability":"nonpayable","type":"constructor"},{"inputs":[{"internalType":"address","name":"owner","type":"address"}],"name":"OwnableInvalidOwner","type":"error"},{"inputs":[{"internalType":"address","name":"account","type":"address"}],"name":"OwnableUnauthorizedAccount","type":"error"},{"anonymous":false,"inputs":[{"indexed":true,"internalType":"uint256","name":"betrayer","type":"uint256"},{"indexed":true,"internalType":"uint256","name":"victim","type":"uint256"},{"indexed":false,"internalType":"uint256","name":"severity","type":"uint256"}],"name":"Betrayal","type":"event"},{"anonymous":false,"inputs":[{"indexed":true,"internalType":"address","name":"previousOwner","type":"address"},{"indexed":true,"internalType":"address","name":"newOwner","type":"address"}],"name":"OwnershipTransferred","type":"event"},{"anonymous":false,"inputs":[{"indexed":true,"internalType":"uint256","name":"entity1","type":"uint256"},{"indexed":true,"internalType":"uint256","name":"entity2","type":"uint256"},{"indexed":false,"internalType":"uint256","name":"newTrustScore","type":"uint256"}],"name":"TrustBuilt","type":"event"},{"anonymous":false,"inputs":[{"indexed":true,"internalType":"uint256","name":"entity1","type":"uint256"},{"indexed":true,"internalType":"uint256","name":"entity2","type":"uint256"}],"name":"TrustRestored","type":"event"},{"inputs":[{"internalType":"uint256","name":"entity1","type":"uint256"},{"internalType":"uint256","name":"entity2","type":"uint256"},{"internalType":"uint256","name":"interactionQuality","type":"uint256"}],"name":"buildTrust","outputs":[],"stateMutability":"nonpayable","type":"function"},{"inputs":[{"internalType":"uint256","name":"entityId","type":"uint256"}],"name":"getTrustNetwork","outputs":[{"internalType":"uint256[]","name":"","type":"uint256[]"}],"stateMutability":"view","type":"function"},{"inputs":[{"internalType":"uint256","name":"entity1","type":"uint256"},{"internalType":"uint256","name":"entity2","type":"uint256"}],"name":"getTrustScore","outputs":[{"internalType":"uint256","name":"","type":"uint256"}],"stateMutability":"view","type":"function"},{"inputs":[],"name":"owner","outputs":[{"internalType":"address","name":"","type":"address"}],"stateMutability":"view","type":"function"},{"inputs":[{"internalType":"uint256","name":"betrayer","type":"uint256"},{"internalType":"uint256","name":"victim","type":"uint256"},{"internalType":"uint256","name":"severity","type":"uint256"}],"name":"recordBetrayal","outputs":[],"stateMutability":"nonpayable","type":"function"},{"inputs":[],"name":"renounceOwnership","outputs":[],"stateMutability":"nonpayable","type":"function"},{"inputs":[{"internalType":"address","name":"newOwner","type":"address"}],"name":"transferOwnership","outputs":[],"stateMutability":"nonpayable","type":"function"},{"inputs":[{"internalType":"uint256","name":"","type":"uint256"}],"name":"trustNetworks","outputs":[{"internalType":"uint256","name":"entityId","type":"uint256"},{"internalType":"uint256","name":"totalTrustedEntities","type":"uint256"},{"internalType":"uint256","name":"totalTrustScore","type":"uint256"},{"internalType":"uint256","name":"averageTrust","type":"uint256"}],"stateMutability":"view","type":"function"},{"inputs":[{"internalType":"uint256","name":"","type":"uint256"},{"internalType":"uint256","name":"","type":"uint256"}],"name":"trustRelationships","outputs":[{"internalType":"uint256","name":"trustScore","type":"uint256"},{"internalType":"uint256","name":"interactions","type":"uint256"},{"internalType":"uint256","name":"positiveInteractions","type":"uint256"},{"internalType":"uint256","name":"betrayals","type":"uint256"},{"internalType":"uint256","name":"lastInteraction","type":"uint256"},{"internalType":"bool","name":"isActive","type":"bool"}],"stateMutability":"view","type":"function"},{"inputs":[{"internalType":"uint256","name":"","type":"uint256"},{"internalType":"uint256","name":"","type":"uint256"}],"name":"trustedEntities","outputs":[{"internalType":"uint256","name":"","type":"uint256"}],"stateMutability":"view","type":"function"}],"evm":{"bytecode":{"linkReferences":{},"object":"608060405234801561001057600080fd5b50338061003757604051631e4fbdf760e01b81526000600482015260240160405180910390fd5b61004081610046565b50610096565b600080546001600160a01b038381166001600160a01b0319831681178455604051919092169283917f8be0079c531659141344cd1fd0a4f28419497f9722a3daafe3b4186f6b6457e09190a35050565b6108b2806100a56000396000f3fe608060405234801561001057600080fd5b506004361061009e5760003560e01c8063739342b911610066578063739342b91461014f5780638ab55300146101705780638da5cb5b14610183578063b5265aa61461019e578063f2fde38b1461021c57600080fd5b8063219680ab146100a35780632660e03a146100ff5780633bd472bc1461011457806343d569d114610134578063715018a614610147575b600080fd5b6100da6100b1366004610714565b600260208190526000918252604090912080546001820154928201546003909201549092919084565b6040805194855260208501939093529183015260608201526080015b60405180910390f35b61011261010d36600461072d565b61022f565b005b610127610122366004610714565b6102d5565b6040516100f69190610759565b61011261014236600461072d565b610337565b6101126104c8565b61016261015d36600461079d565b6104dc565b6040519081526020016100f6565b61016261017e36600461079d565b61050d565b6000546040516001600160a01b0390911681526020016100f6565b6101ed6101ac36600461079d565b600160208181526000938452604080852090915291835291208054918101546002820154600383015460048401546005909401549293919290919060ff1686565b6040805196875260208701959095529385019290925260608401526080830152151560a082015260c0016100f6565b61011261022a3660046107bf565b61052e565b60008281526001602090815260408083208684529091528120600381018054919261025983610805565b90915550508054821015610286578181600001600082825461027b919061081e565b9091555061028b9050565b600081555b82847faec1f137b2c4d2e9125716270ee14a4480ac95b301b5f0dee4fbc26b1abce7cb846040516102be91815260200190565b60405180910390a36102cf83610571565b50505050565b60008181526003602090815260409182902080548351818402810184019094528084526060939283018282801561032b57602002820191906000526020600020905b815481526020019060010190808311610317575b50505050509050919050565b600083815260016020818152604080842086855290915282209081018054919261036083610805565b919050555060328211156103bd5760028101805490600061038083610805565b909155506103919050600a83610831565b8160000160008282546103a49190610853565b90915550508054606410156103b857606481555b6103fe565b6103c8600a83610831565b815411156103f9576103db600a83610831565b8160000160008282546103ee919061081e565b909155506103fe9050565b600081555b42600482015560058101805460ff191660011790558054604051849186917f9e059b299570bc58fbe98e69e9a88752d5891ec9830074ebf278d08830e5f6019161044b9190815260200190565b60405180910390a380546032108015610479575060008481526003602052604090206104779084610641565b155b156104bf5760008481526003602090815260408083208054600181810183559185528385200187905587845260029092528220018054916104b983610805565b91905055505b6102cf84610571565b6104d0610697565b6104da60006106c4565b565b600360205281600052604060002081815481106104f857600080fd5b90600052602060002001600091509150505481565b60008281526001602090815260408083208484529091529020545b92915050565b610536610697565b6001600160a01b03811661056557604051631e4fbdf760e01b8152600060048201526024015b60405180910390fd5b61056e816106c4565b50565b600081815260026020526040812090805b600084815260036020526040902054811015610601576000848152600160209081526040808320600390925282208054919291849081106105c5576105c5610866565b9060005260206000200154815260200190815260200160002060000154826105ed9190610853565b9150806105f981610805565b915050610582565b50600282018190556000838152600360205260409020541561063c576000838152600360205260409020546106369082610831565b60038301555b505050565b6000805b835481101561068d578284828154811061066157610661610866565b90600052602060002001540361067b576001915050610528565b8061068581610805565b915050610645565b5060009392505050565b6000546001600160a01b031633146104da5760405163118cdaa760e01b815233600482015260240161055c565b600080546001600160a01b038381166001600160a01b0319831681178455604051919092169283917f8be0079c531659141344cd1fd0a4f28419497f9722a3daafe3b4186f6b6457e09190a35050565b60006020828403121561072657600080fd5b5035919050565b60008060006060848603121561074257600080fd5b505081359360208301359350604090920135919050565b6020808252825182820181905260009190848201906040850190845b8181101561079157835183529284019291840191600101610775565b50909695505050505050565b600080604083850312156107b057600080fd5b50508035926020909101359150565b6000602082840312156107d157600080fd5b81356001600160a01b03811681146107e857600080fd5b9392505050565b634e487b7160e01b600052601160045260246000fd5b600060018201610817576108176107ef565b5060010190565b81810381811115610528576105286107ef565b60008261084e57634e487b7160e01b600052601260045260246000fd5b500490565b80820180821115610528576105286107ef565b634e487b7160e01b600052603260045260246000fdfea264697066735822122094f7eaf65057dd9ac54091498dfb05a729bc7b87a73498ce581f7c4dc8ec533b64736f6c63430008140033","opcodes":"PUSH1 0x80 PUSH1 0x40 MSTORE CALLVALUE DUP1 ISZERO PUSH2 0x10 JUMPI PUSH1 0x0 DUP1 REVERT JUMPDEST POP CALLER DUP1 PUSH2 0x37 JUMPI PUSH1 0x40 MLOAD PUSH4 0x1E4FBDF7 PUSH1 0xE0 SHL DUP2 MSTORE PUSH1 0x0 PUSH1 0x4 DUP3 ADD MSTORE PUSH1 0x24 ADD PUSH1 0x40 MLOAD DUP1 SWAP2 SUB SWAP1 REVERT JUMPDEST PUSH2 0x40 DUP2 PUSH2 0x46 JUMP JUMPDEST POP PUSH2 0x96 JUMP JUMPDEST PUSH1 0x0 DUP1 SLOAD PUSH1 0x1 PUSH1 0x1 PUSH1 0xA0 SHL SUB DUP4 DUP2 AND PUSH1 0x1 PUSH1 0x1 PUSH1 0xA0 SHL SUB NOT DUP4 AND DUP2 OR DUP5 SSTORE PUSH1 0x40 MLOAD SWAP2 SWAP1 SWAP3 AND SWAP3 DUP4 SWAP2 PUSH32 0x8BE0079C531659141344CD1FD0A4F28419497F9722A3DAAFE3B4186F6B6457E0 SWAP2 SWAP1 LOG3 POP POP JUMP JUMPDEST PUSH2 0x8B2 DUP1 PUSH2 0xA5 PUSH1 0x0 CODECOPY PUSH1 0x0 RETURN INVALID PUSH1 0x80 PUSH1 0x40 MSTORE CALLVALUE DUP1 ISZERO PUSH2 0x10 JUMPI PUSH1 0x0 DUP1 REVERT JUMPDEST POP PUSH1 0x4 CALLDATASIZE LT PUSH2 0x9E JUMPI PUSH1 0x0 CALLDATALOAD PUSH1 0xE0 SHR DUP1 PUSH4 0x739342B9 GT PUSH2 0x66 JUMPI DUP1 PUSH4 0x739342B9 EQ PUSH2 0x14F JUMPI DUP1 PUSH4 0x8AB55300 EQ PUSH2 0x170 JUMPI DUP1 PUSH4 0x8DA5CB5B EQ PUSH2 0x183 JUMPI DUP1 PUSH4 0xB5265AA6 EQ PUSH2 0x19E JUMPI DUP1 PUSH4 0xF2FDE38B EQ PUSH2 0x21C JUMPI PUSH1 0x0 DUP1 REVERT JUMPDEST DUP1 PUSH4 0x219680AB EQ PUSH2 0xA3 JUMPI DUP1 PUSH4 0x2660E03A EQ PUSH2 0xFF JUMPI DUP1 PUSH4 0x3BD472BC EQ PUSH2 0x114 JUMPI DUP1 PUSH4 0x43D569D1 EQ PUSH2 0x134 JUMPI DUP1 PUSH4 0x715018A6 EQ PUSH2 0x147 JUMPI JUMPDEST PUSH1 0x0 DUP1 REVERT JUMPDEST PUSH2 0xDA PUSH2 0xB1 CALLDATASIZE PUSH1 0x4 PUSH2 0x714 JUMP JUMPDEST PUSH1 0x2 PUSH1 0x20 DUP2 SWAP1 MSTORE PUSH1 0x0 SWAP2 DUP3 MSTORE PUSH1 0x40 SWAP1 SWAP2 KECCAK256 DUP1 SLOAD PUSH1 0x1 DUP3 ADD SLOAD SWAP3 DUP3 ADD SLOAD PUSH1 0x3 SWAP1 SWAP3 ADD SLOAD SWAP1 SWAP3 SWAP2 SWAP1 DUP5 JUMP JUMPDEST PUSH1 0x40 DUP1 MLOAD SWAP5 DUP6 MSTORE PUSH1 0x20 DUP6 ADD SWAP4 SWAP1 SWAP4 MSTORE SWAP2 DUP4 ADD MSTORE PUSH1 0x60 DUP3 ADD MSTORE PUSH1 0x80 ADD JUMPDEST PUSH1 0x40 MLOAD DUP1 SWAP2 SUB SWAP1 RETURN JUMPDEST PUSH2 0x112 PUSH2 0x10D CALLDATASIZE PUSH1 0x4 PUSH2 0x72D JUMP JUMPDEST PUSH2 0x22F JUMP JUMPDEST STOP JUMPDEST PUSH2 0x127 PUSH2 0x122 CALLDATASIZE PUSH1 0x4 PUSH2 0x714 JUMP JUMPDEST PUSH2 0x2D5 JUMP JUMPDEST PUSH1 0x40 MLOAD PUSH2 0xF6 SWAP2 SWAP1 PUSH2 0x759 JUMP JUMPDEST PUSH2 0x112 PUSH2 0x142 CALLDATASIZE PUSH1 0x4 PUSH2 0x72D JUMP JUMPDEST PUSH2 0x337 JUMP JUMPDEST PUSH2 0x112 PUSH2 0x4C8 JUMP JUMPDEST PUSH2 0x162 PUSH2 0x15D CALLDATASIZE PUSH1 0x4 PUSH2 0x79D JUMP JUMPDEST PUSH2 0x4DC JUMP JUMPDEST PUSH1 0x40 MLOAD SWAP1 DUP2 MSTORE PUSH1 0x20 ADD PUSH2 0xF6 JUMP JUMPDEST PUSH2 0x162 PUSH2 0x17E CALLDATASIZE PUSH1 0x4 PUSH2 0x79D JUMP JUMPDEST PUSH2 0x50D JUMP JUMPDEST PUSH1 0x0 SLOAD PUSH1 0x40 MLOAD PUSH1 0x1 PUSH1 0x1 PUSH1 0xA0 SHL SUB SWAP1 SWAP2 AND DUP2 MSTORE PUSH1 0x20 ADD PUSH2 0xF6 JUMP JUMPDEST PUSH2 0x1ED PUSH2 0x1AC CALLDATASIZE PUSH1 0x4 PUSH2 0x79D JUMP JUMPDEST PUSH1 0x1 PUSH1 0x20 DUP2 DUP2 MSTORE PUSH1 0x0 SWAP4 DUP5 MSTORE PUSH1 0x40 DUP1 DUP6 KECCAK256 SWAP1 SWAP2 MSTORE SWAP2 DUP4 MSTORE SWAP2 KECCAK256 DUP1 SLOAD SWAP2 DUP2 ADD SLOAD PUSH1 0x2 DUP3 ADD SLOAD PUSH1 0x3 DUP4 ADD SLOAD PUSH1 0x4 DUP5 ADD SLOAD PUSH1 0x5 SWAP1 SWAP5 ADD SLOAD SWAP3 SWAP4 SWAP2 SWAP3 SWAP1 SWAP2 SWAP1 PUSH1 0xFF AND DUP7 JUMP JUMPDEST PUSH1 0x40 DUP1 MLOAD SWAP7 DUP8 MSTORE PUSH1 0x20 DUP8 ADD SWAP6 SWAP1 SWAP6 MSTORE SWAP4 DUP6 ADD SWAP3 SWAP1 SWAP3 MSTORE PUSH1 0x60 DUP5 ADD MSTORE PUSH1 0x80 DUP4 ADD MSTORE ISZERO ISZERO PUSH1 0xA0 DUP3 ADD MSTORE PUSH1 0xC0 ADD PUSH2 0xF6 JUMP JUMPDEST PUSH2 0x112 PUSH2 0x22A CALLDATASIZE PUSH1 0x4 PUSH2 0x7BF JUMP JUMPDEST PUSH2 0x52E JUMP JUMPDEST PUSH1 0x0 DUP3 DUP2 MSTORE PUSH1 0x1 PUSH1 0x20 SWAP1 DUP2 MSTORE PUSH1 0x40 DUP1 DUP4 KECCAK256 DUP7 DUP5 MSTORE SWAP1 SWAP2 MSTORE DUP2 KECCAK256 PUSH1 0x3 DUP2 ADD DUP1 SLOAD SWAP2 SWAP3 PUSH2 0x259 DUP4 PUSH2 0x805 JUMP JUMPDEST SWAP1 SWAP2 SSTORE POP POP DUP1 SLOAD DUP3 LT ISZERO PUSH2 0x286 JUMPI DUP2 DUP2 PUSH1 0x0 ADD PUSH1 0x0 DUP3 DUP3 SLOAD PUSH2 0x27B SWAP2 SWAP1 PUSH2 0x81E JUMP JUMPDEST SWAP1 SWAP2 SSTORE POP PUSH2 0x28B SWAP1 POP JUMP JUMPDEST PUSH1 0x0 DUP2 SSTORE JUMPDEST DUP3 DUP5 PUSH32 0xAEC1F137B2C4D2E9125716270EE14A4480AC95B301B5F0DEE4FBC26B1ABCE7CB DUP5 PUSH1 0x40 MLOAD PUSH2 0x2BE SWAP2 DUP2 MSTORE PUSH1 0x20 ADD SWAP1 JUMP JUMPDEST PUSH1 0x40 MLOAD DUP1 SWAP2 SUB SWAP1 LOG3 PUSH2 0x2CF DUP4 PUSH2 0x571 JUMP JUMPDEST POP POP POP POP JUMP JUMPDEST PUSH1 0x0 DUP2 DUP2 MSTORE PUSH1 0x3 PUSH1 0x20 SWAP1 DUP2 MSTORE PUSH1 0x40 SWAP2 DUP3 SWAP1 KECCAK256 DUP1 SLOAD DUP4 MLOAD DUP2 DUP5 MUL DUP2 ADD DUP5 ADD SWAP1 SWAP5 MSTORE DUP1 DUP5 MSTORE PUSH1 0x60 SWAP4 SWAP3 DUP4 ADD DUP3 DUP3 DUP1 ISZERO PUSH2 0x32B JUMPI PUSH1 0x20 MUL DUP3 ADD SWAP2 SWAP1 PUSH1 0x0 MSTORE PUSH1 0x20 PUSH1 0x0 KECCAK256 SWAP1 JUMPDEST DUP2 SLOAD DUP2 MSTORE PUSH1 0x20 ADD SWAP1 PUSH1 0x1 ADD SWAP1 DUP1 DUP4 GT PUSH2 0x317 JUMPI JUMPDEST POP POP POP POP POP SWAP1 POP SWAP2 SWAP1 POP JUMP JUMPDEST PUSH1 0x0 DUP4 DUP2 MSTORE PUSH1 0x1 PUSH1 0x20 DUP2 DUP2 MSTORE PUSH1 0x40 DUP1 DUP5 KECCAK256 DUP7 DUP6 MSTORE SWAP1 SWAP2 MSTORE DUP3 KECCAK256 SWAP1 DUP2 ADD DUP1 SLOAD SWAP2 SWAP3 PUSH2 0x360 DUP4 PUSH2 0x805 JUMP JUMPDEST SWAP2 SWAP1 POP SSTORE POP PUSH1 0x32 DUP3 GT ISZERO PUSH2 0x3BD JUMPI PUSH1 0x2 DUP2 ADD DUP1 SLOAD SWAP1 PUSH1 0x0 PUSH2 0x380 DUP4 PUSH2 0x805 JUMP JUMPDEST SWAP1 SWAP2 SSTORE POP PUSH2 0x391 SWAP1 POP PUSH1 0xA DUP4 PUSH2 0x831 JUMP JUMPDEST DUP2 PUSH1 0x0 ADD PUSH1 0x0 DUP3 DUP3 SLOAD PUSH2 0x3A4 SWAP2 SWAP1 PUSH2 0x853 JUMP JUMPDEST SWAP1 SWAP2 SSTORE POP POP DUP1 SLOAD PUSH1 0x64 LT ISZERO PUSH2 0x3B8 JUMPI PUSH1 0x64 DUP2 SSTORE JUMPDEST PUSH2 0x3FE JUMP JUMPDEST PUSH2 0x3C8 PUSH1 0xA DUP4 PUSH2 0x831 JUMP JUMPDEST DUP2 SLOAD GT ISZERO PUSH2 0x3F9 JUMPI PUSH2 0x3DB PUSH1 0xA DUP4 PUSH2 0x831 JUMP JUMPDEST DUP2 PUSH1 0x0 ADD PUSH1 0x0 DUP3 DUP3 SLOAD PUSH2 0x3EE SWAP2 SWAP1 PUSH2 0x81E JUMP JUMPDEST SWAP1 SWAP2 SSTORE POP PUSH2 0x3FE SWAP1 POP JUMP JUMPDEST PUSH1 0x0 DUP2 SSTORE JUMPDEST TIMESTAMP PUSH1 0x4 DUP3 ADD SSTORE PUSH1 0x5 DUP2 ADD DUP1 SLOAD PUSH1 0xFF NOT AND PUSH1 0x1 OR SWAP1 SSTORE DUP1 SLOAD PUSH1 0x40 MLOAD DUP5 SWAP2 DUP7 SWAP2 PUSH32 0x9E059B299570BC58FBE98E69E9A88752D5891EC9830074EBF278D08830E5F601 SWAP2 PUSH2 0x44B SWAP2 SWAP1 DUP2 MSTORE PUSH1 0x20 ADD SWAP1 JUMP JUMPDEST PUSH1 0x40 MLOAD DUP1 SWAP2 SUB SWAP1 LOG3 DUP1 SLOAD PUSH1 0x32 LT DUP1 ISZERO PUSH2 0x479 JUMPI POP PUSH1 0x0 DUP5 DUP2 MSTORE PUSH1 0x3 PUSH1 0x20 MSTORE PUSH1 0x40 SWAP1 KECCAK256 PUSH2 0x477 SWAP1 DUP5 PUSH2 0x641 JUMP JUMPDEST ISZERO JUMPDEST ISZERO PUSH2 0x4BF JUMPI PUSH1 0x0 DUP5 DUP2 MSTORE PUSH1 0x3 PUSH1 0x20 SWAP1 DUP2 MSTORE PUSH1 0x40 DUP1 DUP4 KECCAK256 DUP1 SLOAD PUSH1 0x1 DUP2 DUP2 ADD DUP4 SSTORE SWAP2 DUP6 MSTORE DUP4 DUP6 KECCAK256 ADD DUP8 SWAP1 SSTORE DUP8 DUP5 MSTORE PUSH1 0x2 SWAP1 SWAP3 MSTORE DUP3 KECCAK256 ADD DUP1 SLOAD SWAP2 PUSH2 0x4B9 DUP4 PUSH2 0x805 JUMP JUMPDEST SWAP2 SWAP1 POP SSTORE POP JUMPDEST PUSH2 0x2CF DUP5 PUSH2 0x571 JUMP JUMPDEST PUSH2 0x4D0 PUSH2 0x697 JUMP JUMPDEST PUSH2 0x4DA PUSH1 0x0 PUSH2 0x6C4 JUMP JUMPDEST JUMP JUMPDEST PUSH1 0x3 PUSH1 0x20 MSTORE DUP2 PUSH1 0x0 MSTORE PUSH1 0x40 PUSH1 0x0 KECCAK256 DUP2 DUP2 SLOAD DUP2 LT PUSH2 0x4F8 JUMPI PUSH1 0x0 DUP1 REVERT JUMPDEST SWAP1 PUSH1 0x0 MSTORE PUSH1 0x20 PUSH1 0x0 KECCAK256 ADD PUSH1 0x0 SWAP2 POP SWAP2 POP POP SLOAD DUP2 JUMP JUMPDEST PUSH1 0x0 DUP3 DUP2 MSTORE PUSH1 0x1 PUSH1 0x20 SWAP1 DUP2 MSTORE PUSH1 0x40 DUP1 DUP4 KECCAK256 DUP5 DUP5 MSTORE SWAP1 SWAP2 MSTORE SWAP1 KECCAK256 SLOAD JUMPDEST SWAP3 SWAP2 POP POP JUMP JUMPDEST PUSH2 0x536 PUSH2 0x697 JUMP JUMPDEST PUSH1 0x1 PUSH1 0x1 PUSH1 0xA0 SHL SUB DUP2 AND PUSH2 0x565 JUMPI PUSH1 0x40 MLOAD PUSH4 0x1E4FBDF7 PUSH1 0xE0 SHL DUP2 MSTORE PUSH1 0x0 PUSH1 0x4 DUP3 ADD MSTORE PUSH1 0x24 ADD JUMPDEST PUSH1 0x40 MLOAD DUP1 SWAP2 SUB SWAP1 REVERT JUMPDEST PUSH2 0x56E DUP2 PUSH2 0x6C4 JUMP JUMPDEST POP JUMP JUMPDEST PUSH1 0x0 DUP2 DUP2 MSTORE PUSH1 0x2 PUSH1 0x20 MSTORE PUSH1 0x40 DUP2 KECCAK256 SWAP1 DUP1 JUMPDEST PUSH1 0x0 DUP5 DUP2 MSTORE PUSH1 0x3 PUSH1 0x20 MSTORE PUSH1 0x40 SWAP1 KECCAK256 SLOAD DUP2 LT ISZERO PUSH2 0x601 JUMPI PUSH1 0x0 DUP5 DUP2 MSTORE PUSH1 0x1 PUSH1 0x20 SWAP1 DUP2 MSTORE PUSH1 0x40 DUP1 DUP4 KECCAK256 PUSH1 0x3 SWAP1 SWAP3 MSTORE DUP3 KECCAK256 DUP1 SLOAD SWAP2 SWAP3 SWAP2 DUP5 SWAP1 DUP2 LT PUSH2 0x5C5 JUMPI PUSH2 0x5C5 PUSH2 0x866 JUMP JUMPDEST SWAP1 PUSH1 0x0 MSTORE PUSH1 0x20 PUSH1 0x0 KECCAK256 ADD SLOAD DUP2 MSTORE PUSH1 0x20 ADD SWAP1 DUP2 MSTORE PUSH1 0x20 ADD PUSH1 0x0 KECCAK256 PUSH1 0x0 ADD SLOAD DUP3 PUSH2 0x5ED SWAP2 SWAP1 PUSH2 0x853 JUMP JUMPDEST SWAP2 POP DUP1 PUSH2 0x5F9 DUP2 PUSH2 0x805 JUMP JUMPDEST SWAP2 POP POP PUSH2 0x582 JUMP JUMPDEST POP PUSH1 0x2 DUP3 ADD DUP2 SWAP1 SSTORE PUSH1 0x0 DUP4 DUP2 MSTORE PUSH1 0x3 PUSH1 0x20 MSTORE PUSH1 0x40 SWAP1 KECCAK256 SLOAD ISZERO PUSH2 0x63C JUMPI PUSH1 0x0 DUP4 DUP2 MSTORE PUSH1 0x3 PUSH1 0x20 MSTORE PUSH1 0x40 SWAP1 KECCAK256 SLOAD PUSH2 0x636 SWAP1 DUP3 PUSH2 0x831 JUMP JUMPDEST PUSH1 0x3 DUP4 ADD SSTORE JUMPDEST POP POP POP JUMP JUMPDEST PUSH1 0x0 DUP1 JUMPDEST DUP4 SLOAD DUP2 LT ISZERO PUSH2 0x68D JUMPI DUP3 DUP5 DUP3 DUP2 SLOAD DUP2 LT PUSH2 0x661 JUMPI PUSH2 0x661 PUSH2 0x866 JUMP JUMPDEST SWAP1 PUSH1 0x0 MSTORE PUSH1 0x20 PUSH1 0x0 KECCAK256 ADD SLOAD SUB PUSH2 0x67B JUMPI PUSH1 0x1 SWAP2 POP POP PUSH2 0x528 JUMP JUMPDEST DUP1 PUSH2 0x685 DUP2 PUSH2 0x805 JUMP JUMPDEST SWAP2 POP POP PUSH2 0x645 JUMP JUMPDEST POP PUSH1 0x0 SWAP4 SWAP3 POP POP POP JUMP JUMPDEST PUSH1 0x0 SLOAD PUSH1 0x1 PUSH1 0x1 PUSH1 0xA0 SHL SUB AND CALLER EQ PUSH2 0x4DA JUMPI PUSH1 0x40 MLOAD PUSH4 0x118CDAA7 PUSH1 0xE0 SHL DUP2 MSTORE CALLER PUSH1 0x4 DUP3 ADD MSTORE PUSH1 0x24 ADD PUSH2 0x55C JUMP JUMPDEST PUSH1 0x0 DUP1 SLOAD PUSH1 0x1 PUSH1 0x1 PUSH1 0xA0 SHL SUB DUP4 DUP2 AND PUSH1 0x1 PUSH1 0x1 PUSH1 0xA0 SHL SUB NOT DUP4 AND DUP2 OR DUP5 SSTORE PUSH1 0x40 MLOAD SWAP2 SWAP1 SWAP3 AND SWAP3 DUP4 SWAP2 PUSH32 0x8BE0079C531659141344CD1FD0A4F28419497F9722A3DAAFE3B4186F6B6457E0 SWAP2 SWAP1 LOG3 POP POP JUMP JUMPDEST PUSH1 0x0 PUSH1 0x20 DUP3 DUP5 SUB SLT ISZERO PUSH2 0x726 JUMPI PUSH1 0x0 DUP1 REVERT JUMPDEST POP CALLDATALOAD SWAP2 SWAP1 POP JUMP JUMPDEST PUSH1 0x0 DUP1 PUSH1 0x0 PUSH1 0x60 DUP5 DUP7 SUB SLT ISZERO PUSH2 0x742 JUMPI PUSH1 0x0 DUP1 REVERT JUMPDEST POP POP DUP2 CALLDATALOAD SWAP4 PUSH1 0x20 DUP4 ADD CALLDATALOAD SWAP4 POP PUSH1 0x40 SWAP1 SWAP3 ADD CALLDATALOAD SWAP2 SWAP1 POP JUMP JUMPDEST PUSH1 0x20 DUP1 DUP3 MSTORE DUP3 MLOAD DUP3 DUP3 ADD DUP2 SWAP1 MSTORE PUSH1 0x0 SWAP2 SWAP1 DUP5 DUP3 ADD SWAP1 PUSH1 0x40 DUP6 ADD SWAP1 DUP5 JUMPDEST DUP2 DUP2 LT ISZERO PUSH2 0x791 JUMPI DUP4 MLOAD DUP4 MSTORE SWAP3 DUP5 ADD SWAP3 SWAP2 DUP5 ADD SWAP2 PUSH1 0x1 ADD PUSH2 0x775 JUMP JUMPDEST POP SWAP1 SWAP7 SWAP6 POP POP POP POP POP POP JUMP JUMPDEST PUSH1 0x0 DUP1 PUSH1 0x40 DUP4 DUP6 SUB SLT ISZERO PUSH2 0x7B0 JUMPI PUSH1 0x0 DUP1 REVERT JUMPDEST POP POP DUP1 CALLDATALOAD SWAP3 PUSH1 0x20 SWAP1 SWAP2 ADD CALLDATALOAD SWAP2 POP JUMP JUMPDEST PUSH1 0x0 PUSH1 0x20 DUP3 DUP5 SUB SLT ISZERO PUSH2 0x7D1 JUMPI PUSH1 0x0 DUP1 REVERT JUMPDEST DUP2 CALLDATALOAD PUSH1 0x1 PUSH1 0x1 PUSH1 0xA0 SHL SUB DUP2 AND DUP2 EQ PUSH2 0x7E8 JUMPI PUSH1 0x0 DUP1 REVERT JUMPDEST SWAP4 SWAP3 POP POP POP JUMP JUMPDEST PUSH4 0x4E487B71 PUSH1 0xE0 SHL PUSH1 0x0 MSTORE PUSH1 0x11 PUSH1 0x4 MSTORE PUSH1 0x24 PUSH1 0x0 REVERT JUMPDEST PUSH1 0x0 PUSH1 0x1 DUP3 ADD PUSH2 0x817 JUMPI PUSH2 0x817 PUSH2 0x7EF JUMP JUMPDEST POP PUSH1 0x1 ADD SWAP1 JUMP JUMPDEST DUP2 DUP2 SUB DUP2 DUP2 GT ISZERO PUSH2 0x528 JUMPI PUSH2 0x528 PUSH2 0x7EF JUMP JUMPDEST PUSH1 0x0 DUP3 PUSH2 0x84E JUMPI PUSH4 0x4E487B71 PUSH1 0xE0 SHL PUSH1 0x0 MSTORE PUSH1 0x12 PUSH1 0x4 MSTORE PUSH1 0x24 PUSH1 0x0 REVERT JUMPDEST POP DIV SWAP1 JUMP JUMPDEST DUP1 DUP3 ADD DUP1 DUP3 GT ISZERO PUSH2 0x528 JUMPI PUSH2 0x528 PUSH2 0x7EF JUMP JUMPDEST PUSH4 0x4E487B71 PUSH1 0xE0 SHL PUSH1 0x0 MSTORE PUSH1 0x32 PUSH1 0x4 MSTORE PUSH1 0x24 PUSH1 0x0 REVERT INVALID LOG2 PUSH5 0x6970667358 0x22 SLT KECCAK256 SWAP5 0xF7 0xEA 0xF6 POP JUMPI 0xDD SWAP11 0xC5 BLOCKHASH SWAP2 0x49 DUP14 0xFB SDIV 0xA7 0x29 0xBC PUSH28 0x87A73498CE581F7C4DC8EC533B64736F6C6343000814003300000000 "},"methodIdentifiers":{"buildTrust(uint256,uint256,uint256)":"43d569d1","getTrustNetwork(uint256)":"3bd472bc","getTrustScore(uint256,uint256)":"8ab55300","owner()":"8da5cb5b","recordBetrayal(uint256,uint256,uint256)":"2660e03a","renounceOwnership()":"715018a6","transferOwnership(address)":"f2fde38b","trustNetworks(uint256)":"219680ab","trustRelationships(uint256,uint256)":"b5265aa6","trustedEntities(uint256,uint256)":"739342b9"}}}}}