{"contracts/layer3/psychology/EmotionalState.sol":{"EmotionalState":{"abi":[{"inputs":[],"stateMutability":"nonpayable","type":"constructor"},{"inputs":[{"internalType":"address","name":"owner","type":"address"}],"name":"OwnableInvalidOwner","type":"error"},{"inputs":[{"internalType":"address","name":"account","type":"address"}],"name":"OwnableUnauthorizedAccount","type":"error"},{"anonymous":false,"inputs":[{"indexed":true,"internalType":"uint256","name":"entityId","type":"uint256"},{"indexed":false,"internalType":"enum EmotionalState.Emotion","name":"emotion","type":"uint8"},{"indexed":false,"internalType":"uint256","name":"oldValue","type":"uint256"},{"indexed":false,"internalType":"uint256","name":"newValue","type":"uint256"}],"name":"EmotionUpdated","type":"event"},{"anonymous":false,"inputs":[{"indexed":true,"internalType":"uint256","name":"entityId","type":"uint256"},{"indexed":false,"internalType":"enum EmotionalState.ResponseType","name":"response","type":"uint8"}],"name":"EmotionalResponseTriggered","type":"event"},{"anonymous":false,"inputs":[{"indexed":true,"internalType":"address","name":"previousOwner","type":"address"},{"indexed":true,"internalType":"address","name":"newOwner","type":"address"}],"name":"OwnershipTransferred","type":"event"},{"anonymous":false,"inputs":[{"indexed":true,"internalType":"uint256","name":"entityId","type":"uint256"},{"indexed":false,"internalType":"enum EmotionalState.Emotion","name":"emotion","type":"uint8"},{"indexed":false,"internalType":"uint256","name":"value","type":"uint256"}],"name":"ThresholdTriggered","type":"event"},{"inputs":[{"internalType":"uint256","name":"","type":"uint256"},{"internalType":"enum EmotionalState.Emotion","name":"","type":"uint8"}],"name":"emotionThresholds","outputs":[{"internalType":"uint256","name":"","type":"uint256"}],"stateMutability":"view","type":"function"},{"inputs":[{"internalType":"uint256","name":"","type":"uint256"},{"internalType":"uint256","name":"","type":"uint256"}],"name":"emotionalHistory","outputs":[{"internalType":"uint256","name":"triggerId","type":"uint256"},{"internalType":"enum EmotionalState.Emotion","name":"emotion","type":"uint8"},{"internalType":"int256","name":"intensity","type":"int256"},{"internalType":"uint256","name":"timestamp","type":"uint256"},{"internalType":"bytes32","name":"causeHash","type":"bytes32"}],"stateMutability":"view","type":"function"},{"inputs":[{"internalType":"uint256","name":"","type":"uint256"}],"name":"emotionalProfiles","outputs":[{"internalType":"uint256","name":"volatility","type":"uint256"},{"internalType":"uint256","name":"resilience","type":"uint256"},{"internalType":"uint256","name":"empathy","type":"uint256"}],"stateMutability":"view","type":"function"},{"inputs":[{"internalType":"uint256","name":"","type":"uint256"}],"name":"entityEmotions","outputs":[{"internalType":"uint256","name":"entityId","type":"uint256"},{"internalType":"uint256","name":"fear","type":"uint256"},{"internalType":"uint256","name":"greed","type":"uint256"},{"internalType":"uint256","name":"trust","type":"uint256"},{"internalType":"uint256","name":"anger","type":"uint256"},{"internalType":"uint256","name":"joy","type":"uint256"},{"internalType":"uint256","name":"sadness","type":"uint256"},{"internalType":"uint256","name":"confidence","type":"uint256"},{"internalType":"uint256","name":"stress","type":"uint256"},{"internalType":"uint256","name":"lastUpdate","type":"uint256"}],"stateMutability":"view","type":"function"},{"inputs":[{"internalType":"uint256","name":"entityId","type":"uint256"}],"name":"getEmotions","outputs":[{"components":[{"internalType":"uint256","name":"entityId","type":"uint256"},{"internalType":"uint256","name":"fear","type":"uint256"},{"internalType":"uint256","name":"greed","type":"uint256"},{"internalType":"uint256","name":"trust","type":"uint256"},{"internalType":"uint256","name":"anger","type":"uint256"},{"internalType":"uint256","name":"joy","type":"uint256"},{"internalType":"uint256","name":"sadness","type":"uint256"},{"internalType":"uint256","name":"confidence","type":"uint256"},{"internalType":"uint256","name":"stress","type":"uint256"},{"internalType":"uint256","name":"lastUpdate","type":"uint256"}],"internalType":"struct EmotionalState.EntityEmotions","name":"","type":"tuple"}],"stateMutability":"view","type":"function"},{"inputs":[{"internalType":"uint256","name":"entityId","type":"uint256"}],"name":"initializeEmotions","outputs":[],"stateMutability":"nonpayable","type":"function"},{"inputs":[],"name":"owner","outputs":[{"internalType":"address","name":"","type":"address"}],"stateMutability":"view","type":"function"},{"inputs":[],"name":"renounceOwnership","outputs":[],"stateMutability":"nonpayable","type":"function"},{"inputs":[{"internalType":"address","name":"newOwner","type":"address"}],"name":"transferOwnership","outputs":[],"stateMutability":"nonpayable","type":"function"},{"inputs":[{"internalType":"uint256","name":"entityId","type":"uint256"},{"internalType":"enum EmotionalState.Emotion","name":"emotion","type":"uint8"},{"internalType":"int256","name":"delta","type":"int256"}],"name":"updateEmotionValue","outputs":[],"stateMutability":"nonpayable","type":"function"},{"inputs":[{"internalType":"uint256","name":"entityId","type":"uint256"},{"internalType":"int256","name":"delta","type":"int256"}],"name":"updateFear","outputs":[],"stateMutability":"nonpayable","type":"function"},{"inputs":[{"internalType":"uint256","name":"entityId","type":"uint256"},{"internalType":"int256","name":"delta","type":"int256"}],"name":"updateTrust","outputs":[],"stateMutability":"nonpayable","type":"function"}],"evm":{"bytecode":{"linkReferences":{},"object":"608060405234801561001057600080fd5b50338061003757604051631e4fbdf760e01b81526000600482015260240160405180910390fd5b61004081610046565b50610096565b600080546001600160a01b038381166001600160a01b0319831681178455604051919092169283917f8be0079c531659141344cd1fd0a4f28419497f9722a3daafe3b4186f6b6457e09190a35050565b610d55806100a56000396000f3fe608060405234801561001057600080fd5b50600436106100b45760003560e01c8063914e454511610071578063914e4545146102675780639b134a91146102b0578063a9bfd40a146102c3578063d7a7702f146102e7578063eaf6d926146102fa578063f2fde38b1461030d57600080fd5b80630c3160e9146100b957806342844ab81461016a57806369ab3624146101a3578063715018a61461022f5780638192e856146102395780638da5cb5b1461024c575b600080fd5b61011b6100c7366004610b58565b6001602052806000526040600020600091509050806000015490806001015490806002015490806003015490806004015490806005015490806006015490806007015490806008015490806009015490508a565b604080519a8b5260208b0199909952978901969096526060880194909452608087019290925260a086015260c085015260e0840152610100830152610120820152610140015b60405180910390f35b610195610178366004610b85565b600460209081526000928352604080842090915290825290205481565b604051908152602001610161565b6101b66101b1366004610b58565b610320565b6040516101619190600061014082019050825182526020830151602083015260408301516040830152606083015160608301526080830151608083015260a083015160a083015260c083015160c083015260e083015160e083015261010080840151818401525061012080840151818401525092915050565b6102376103f9565b005b610237610247366004610b58565b61040d565b6000546040516001600160a01b039091168152602001610161565b610295610275366004610b58565b600260208190526000918252604090912080546001820154919092015483565b60408051938452602084019290925290820152606001610161565b6102376102be366004610bb1565b610528565b6102d66102d1366004610bb1565b610538565b604051610161959493929190610c07565b6102376102f5366004610c39565b61058a565b610237610308366004610bb1565b610772565b61023761031b366004610c6e565b61077e565b610376604051806101400160405280600081526020016000815260200160008152602001600081526020016000815260200160008152602001600081526020016000815260200160008152602001600081525090565b506000908152600160208181526040928390208351610140810185528154815292810154918301919091526002810154928201929092526003820154606082015260048201546080820152600582015460a0820152600682015460c0820152600782015460e0820152600882015461010082015260099091015461012082015290565b6104016107c1565b61040b60006107ee565b565b6000818152600160205260409020600901541561042957600080fd5b604080516101408101825282815260006020808301828152838501838152603260608087018281526080880187815260a0890184815260c08a0189815260e08b018681526101008c018b8152426101208e019081528f8d526001808d528f8e209e518f559a518e8c015598516002808f019190915595516003808f019190915594516004808f0191909155935160058e0155915160068d01555160078c01555160088b0155945160099099019890985588519182018952828252818601838152828a0193845299875280865288872091518255985193810193909355519190960155938452828120818052909352818320605090819055908352912055565b6105348260028361058a565b5050565b6003602052816000526040600020818154811061055457600080fd5b60009182526020909120600590910201805460018201546002830154600384015460049094015492955060ff9091169350919085565b600083815260016020526040902060098101546105a657600080fd5b60006105b2828561083e565b905060006105c08483610c9e565b905060008112156105cf575060005b60648113156105dc575060645b6105e7838683610969565b426009840155600086815260036020908152604091829020825160a08101909352805483529190810187600781111561062257610622610bd3565b81526020808201889052426040830152600060609092018290528354600181810186559483529181902083516005909302019182558201518184018054939492939192909160ff19169083600781111561067e5761067e610bd3565b02179055506040820151816002015560608201518160030155608082015181600401555050857f1d56a97a914fb6ac5acd5c16a67aaa5d37205364a52b10eb3d66da627be19da48684846040516106d793929190610cd4565b60405180910390a260008681526004602052604081209086600781111561070057610700610bd3565b600781111561071157610711610bd3565b815260200190815260200160002054811061076a57857fbc6e8f30f6a1ea05b48dd2125e3d39db18a6eac21b9e606729f850c53185e57e8683604051610758929190610cf5565b60405180910390a261076a8686610a92565b505050505050565b6105348260008361058a565b6107866107c1565b6001600160a01b0381166107b557604051631e4fbdf760e01b8152600060048201526024015b60405180910390fd5b6107be816107ee565b50565b6000546001600160a01b0316331461040b5760405163118cdaa760e01b81523360048201526024016107ac565b600080546001600160a01b038381166001600160a01b0319831681178455604051919092169283917f8be0079c531659141344cd1fd0a4f28419497f9722a3daafe3b4186f6b6457e09190a35050565b60008082600781111561085357610853610bd3565b0361086357506001820154610963565b600182600781111561087757610877610bd3565b0361088757506002820154610963565b600282600781111561089b5761089b610bd3565b036108ab57506003820154610963565b60038260078111156108bf576108bf610bd3565b036108cf57506004820154610963565b60048260078111156108e3576108e3610bd3565b036108f357506005820154610963565b600582600781111561090757610907610bd3565b0361091757506006820154610963565b600682600781111561092b5761092b610bd3565b0361093b57506007820154610963565b600782600781111561094f5761094f610bd3565b0361095f57506008820154610963565b5060005b92915050565b600082600781111561097d5761097d610bd3565b0361098e5760018301819055505050565b60018260078111156109a2576109a2610bd3565b036109b35760028301819055505050565b60028260078111156109c7576109c7610bd3565b036109d85760038301819055505050565b60038260078111156109ec576109ec610bd3565b036109fd5760048301819055505050565b6004826007811115610a1157610a11610bd3565b03610a225760058301819055505050565b6005826007811115610a3657610a36610bd3565b03610a475760068301819055505050565b6006826007811115610a5b57610a5b610bd3565b03610a6c5760078301819055505050565b6007826007811115610a8057610a80610bd3565b03610a8d57600883018190555b505050565b600080826007811115610aa757610aa7610bd3565b03610ab457506000610b1b565b6003826007811115610ac857610ac8610bd3565b03610ad557506001610b1b565b6002826007811115610ae957610ae9610bd3565b03610af657506002610b1b565b6004826007811115610b0a57610b0a610bd3565b03610b1757506004610b1b565b5060035b827f836e3ee87ab32e8aac0c04aff757e5491748356eb451486106b8e08e55073fc682604051610b4b9190610d0c565b60405180910390a2505050565b600060208284031215610b6a57600080fd5b5035919050565b803560088110610b8057600080fd5b919050565b60008060408385031215610b9857600080fd5b82359150610ba860208401610b71565b90509250929050565b60008060408385031215610bc457600080fd5b50508035926020909101359150565b634e487b7160e01b600052602160045260246000fd5b600881106107be57634e487b7160e01b600052602160045260246000fd5b85815260a08101610c1786610be9565b8560208301528460408301528360608301528260808301529695505050505050565b600080600060608486031215610c4e57600080fd5b83359250610c5e60208501610b71565b9150604084013590509250925092565b600060208284031215610c8057600080fd5b81356001600160a01b0381168114610c9757600080fd5b9392505050565b8082018281126000831280158216821582161715610ccc57634e487b7160e01b600052601160045260246000fd5b505092915050565b60608101610ce185610be9565b938152602081019290925260409091015290565b60408101610d0284610be9565b9281526020015290565b60208101610d1983610be9565b9190529056fea264697066735822122060ba0fbf9275220b7881cee0dfbccca794766d91f4c13a968709e26ac51a573b64736f6c63430008140033","opcodes":"PUSH1 0x80 PUSH1 0x40 MSTORE CALLVALUE DUP1 ISZERO PUSH2 0x10 JUMPI PUSH1 0x0 DUP1 REVERT JUMPDEST POP CALLER DUP1 PUSH2 0x37 JUMPI PUSH1 0x40 MLOAD PUSH4 0x1E4FBDF7 PUSH1 0xE0 SHL DUP2 MSTORE PUSH1 0x0 PUSH1 0x4 DUP3 ADD MSTORE PUSH1 0x24 ADD PUSH1 0x40 MLOAD DUP1 SWAP2 SUB SWAP1 REVERT JUMPDEST PUSH2 0x40 DUP2 PUSH2 0x46 JUMP JUMPDEST POP PUSH2 0x96 JUMP JUMPDEST PUSH1 0x0 DUP1 SLOAD PUSH1 0x1 PUSH1 0x1 PUSH1 0xA0 SHL SUB DUP4 DUP2 AND PUSH1 0x1 PUSH1 0x1 PUSH1 0xA0 SHL SUB NOT DUP4 AND DUP2 OR DUP5 SSTORE PUSH1 0x40 MLOAD SWAP2 SWAP1 SWAP3 AND SWAP3 DUP4 SWAP2 PUSH32 0x8BE0079C531659141344CD1FD0A4F28419497F9722A3DAAFE3B4186F6B6457E0 SWAP2 SWAP1 LOG3 POP POP JUMP JUMPDEST PUSH2 0xD55 DUP1 PUSH2 0xA5 PUSH1 0x0 CODECOPY PUSH1 0x0 RETURN INVALID PUSH1 0x80 PUSH1 0x40 MSTORE CALLVALUE DUP1 ISZERO PUSH2 0x10 JUMPI PUSH1 0x0 DUP1 REVERT JUMPDEST POP PUSH1 0x4 CALLDATASIZE LT PUSH2 0xB4 JUMPI PUSH1 0x0 CALLDATALOAD PUSH1 0xE0 SHR DUP1 PUSH4 0x914E4545 GT PUSH2 0x71 JUMPI DUP1 PUSH4 0x914E4545 EQ PUSH2 0x267 JUMPI DUP1 PUSH4 0x9B134A91 EQ PUSH2 0x2B0 JUMPI DUP1 PUSH4 0xA9BFD40A EQ PUSH2 0x2C3 JUMPI DUP1 PUSH4 0xD7A7702F EQ PUSH2 0x2E7 JUMPI DUP1 PUSH4 0xEAF6D926 EQ PUSH2 0x2FA JUMPI DUP1 PUSH4 0xF2FDE38B EQ PUSH2 0x30D JUMPI PUSH1 0x0 DUP1 REVERT JUMPDEST DUP1 PUSH4 0xC3160E9 EQ PUSH2 0xB9 JUMPI DUP1 PUSH4 0x42844AB8 EQ PUSH2 0x16A JUMPI DUP1 PUSH4 0x69AB3624 EQ PUSH2 0x1A3 JUMPI DUP1 PUSH4 0x715018A6 EQ PUSH2 0x22F JUMPI DUP1 PUSH4 0x8192E856 EQ PUSH2 0x239 JUMPI DUP1 PUSH4 0x8DA5CB5B EQ PUSH2 0x24C JUMPI JUMPDEST PUSH1 0x0 DUP1 REVERT JUMPDEST PUSH2 0x11B PUSH2 0xC7 CALLDATASIZE PUSH1 0x4 PUSH2 0xB58 JUMP JUMPDEST PUSH1 0x1 PUSH1 0x20 MSTORE DUP1 PUSH1 0x0 MSTORE PUSH1 0x40 PUSH1 0x0 KECCAK256 PUSH1 0x0 SWAP2 POP SWAP1 POP DUP1 PUSH1 0x0 ADD SLOAD SWAP1 DUP1 PUSH1 0x1 ADD SLOAD SWAP1 DUP1 PUSH1 0x2 ADD SLOAD SWAP1 DUP1 PUSH1 0x3 ADD SLOAD SWAP1 DUP1 PUSH1 0x4 ADD SLOAD SWAP1 DUP1 PUSH1 0x5 ADD SLOAD SWAP1 DUP1 PUSH1 0x6 ADD SLOAD SWAP1 DUP1 PUSH1 0x7 ADD SLOAD SWAP1 DUP1 PUSH1 0x8 ADD SLOAD SWAP1 DUP1 PUSH1 0x9 ADD SLOAD SWAP1 POP DUP11 JUMP JUMPDEST PUSH1 0x40 DUP1 MLOAD SWAP11 DUP12 MSTORE PUSH1 0x20 DUP12 ADD SWAP10 SWAP1 SWAP10 MSTORE SWAP8 DUP10 ADD SWAP7 SWAP1 SWAP7 MSTORE PUSH1 0x60 DUP9 ADD SWAP5 SWAP1 SWAP5 MSTORE PUSH1 0x80 DUP8 ADD SWAP3 SWAP1 SWAP3 MSTORE PUSH1 0xA0 DUP7 ADD MSTORE PUSH1 0xC0 DUP6 ADD MSTORE PUSH1 0xE0 DUP5 ADD MSTORE PUSH2 0x100 DUP4 ADD MSTORE PUSH2 0x120 DUP3 ADD MSTORE PUSH2 0x140 ADD JUMPDEST PUSH1 0x40 MLOAD DUP1 SWAP2 SUB SWAP1 RETURN JUMPDEST PUSH2 0x195 PUSH2 0x178 CALLDATASIZE PUSH1 0x4 PUSH2 0xB85 JUMP JUMPDEST PUSH1 0x4 PUSH1 0x20 SWAP1 DUP2 MSTORE PUSH1 0x0 SWAP3 DUP4 MSTORE PUSH1 0x40 DUP1 DUP5 KECCAK256 SWAP1 SWAP2 MSTORE SWAP1 DUP3 MSTORE SWAP1 KECCAK256 SLOAD DUP2 JUMP JUMPDEST PUSH1 0x40 MLOAD SWAP1 DUP2 MSTORE PUSH1 0x20 ADD PUSH2 0x161 JUMP JUMPDEST PUSH2 0x1B6 PUSH2 0x1B1 CALLDATASIZE PUSH1 0x4 PUSH2 0xB58 JUMP JUMPDEST PUSH2 0x320 JUMP JUMPDEST PUSH1 0x40 MLOAD PUSH2 0x161 SWAP2 SWAP1 PUSH1 0x0 PUSH2 0x140 DUP3 ADD SWAP1 POP DUP3 MLOAD DUP3 MSTORE PUSH1 0x20 DUP4 ADD MLOAD PUSH1 0x20 DUP4 ADD MSTORE PUSH1 0x40 DUP4 ADD MLOAD PUSH1 0x40 DUP4 ADD MSTORE PUSH1 0x60 DUP4 ADD MLOAD PUSH1 0x60 DUP4 ADD MSTORE PUSH1 0x80 DUP4 ADD MLOAD PUSH1 0x80 DUP4 ADD MSTORE PUSH1 0xA0 DUP4 ADD MLOAD PUSH1 0xA0 DUP4 ADD MSTORE PUSH1 0xC0 DUP4 ADD MLOAD PUSH1 0xC0 DUP4 ADD MSTORE PUSH1 0xE0 DUP4 ADD MLOAD PUSH1 0xE0 DUP4 ADD MSTORE PUSH2 0x100 DUP1 DUP5 ADD MLOAD DUP2 DUP5 ADD MSTORE POP PUSH2 0x120 DUP1 DUP5 ADD MLOAD DUP2 DUP5 ADD MSTORE POP SWAP3 SWAP2 POP POP JUMP JUMPDEST PUSH2 0x237 PUSH2 0x3F9 JUMP JUMPDEST STOP JUMPDEST PUSH2 0x237 PUSH2 0x247 CALLDATASIZE PUSH1 0x4 PUSH2 0xB58 JUMP JUMPDEST PUSH2 0x40D JUMP JUMPDEST PUSH1 0x0 SLOAD PUSH1 0x40 MLOAD PUSH1 0x1 PUSH1 0x1 PUSH1 0xA0 SHL SUB SWAP1 SWAP2 AND DUP2 MSTORE PUSH1 0x20 ADD PUSH2 0x161 JUMP JUMPDEST PUSH2 0x295 PUSH2 0x275 CALLDATASIZE PUSH1 0x4 PUSH2 0xB58 JUMP JUMPDEST PUSH1 0x2 PUSH1 0x20 DUP2 SWAP1 MSTORE PUSH1 0x0 SWAP2 DUP3 MSTORE PUSH1 0x40 SWAP1 SWAP2 KECCAK256 DUP1 SLOAD PUSH1 0x1 DUP3 ADD SLOAD SWAP2 SWAP1 SWAP3 ADD SLOAD DUP4 JUMP JUMPDEST PUSH1 0x40 DUP1 MLOAD SWAP4 DUP5 MSTORE PUSH1 0x20 DUP5 ADD SWAP3 SWAP1 SWAP3 MSTORE SWAP1 DUP3 ADD MSTORE PUSH1 0x60 ADD PUSH2 0x161 JUMP JUMPDEST PUSH2 0x237 PUSH2 0x2BE CALLDATASIZE PUSH1 0x4 PUSH2 0xBB1 JUMP JUMPDEST PUSH2 0x528 JUMP JUMPDEST PUSH2 0x2D6 PUSH2 0x2D1 CALLDATASIZE PUSH1 0x4 PUSH2 0xBB1 JUMP JUMPDEST PUSH2 0x538 JUMP JUMPDEST PUSH1 0x40 MLOAD PUSH2 0x161 SWAP6 SWAP5 SWAP4 SWAP3 SWAP2 SWAP1 PUSH2 0xC07 JUMP JUMPDEST PUSH2 0x237 PUSH2 0x2F5 CALLDATASIZE PUSH1 0x4 PUSH2 0xC39 JUMP JUMPDEST PUSH2 0x58A JUMP JUMPDEST PUSH2 0x237 PUSH2 0x308 CALLDATASIZE PUSH1 0x4 PUSH2 0xBB1 JUMP JUMPDEST PUSH2 0x772 JUMP JUMPDEST PUSH2 0x237 PUSH2 0x31B CALLDATASIZE PUSH1 0x4 PUSH2 0xC6E JUMP JUMPDEST PUSH2 0x77E JUMP JUMPDEST PUSH2 0x376 PUSH1 0x40 MLOAD DUP1 PUSH2 0x140 ADD PUSH1 0x40 MSTORE DUP1 PUSH1 0x0 DUP2 MSTORE PUSH1 0x20 ADD PUSH1 0x0 DUP2 MSTORE PUSH1 0x20 ADD PUSH1 0x0 DUP2 MSTORE PUSH1 0x20 ADD PUSH1 0x0 DUP2 MSTORE PUSH1 0x20 ADD PUSH1 0x0 DUP2 MSTORE PUSH1 0x20 ADD PUSH1 0x0 DUP2 MSTORE PUSH1 0x20 ADD PUSH1 0x0 DUP2 MSTORE PUSH1 0x20 ADD PUSH1 0x0 DUP2 MSTORE PUSH1 0x20 ADD PUSH1 0x0 DUP2 MSTORE PUSH1 0x20 ADD PUSH1 0x0 DUP2 MSTORE POP SWAP1 JUMP JUMPDEST POP PUSH1 0x0 SWAP1 DUP2 MSTORE PUSH1 0x1 PUSH1 0x20 DUP2 DUP2 MSTORE PUSH1 0x40 SWAP3 DUP4 SWAP1 KECCAK256 DUP4 MLOAD PUSH2 0x140 DUP2 ADD DUP6 MSTORE DUP2 SLOAD DUP2 MSTORE SWAP3 DUP2 ADD SLOAD SWAP2 DUP4 ADD SWAP2 SWAP1 SWAP2 MSTORE PUSH1 0x2 DUP2 ADD SLOAD SWAP3 DUP3 ADD SWAP3 SWAP1 SWAP3 MSTORE PUSH1 0x3 DUP3 ADD SLOAD PUSH1 0x60 DUP3 ADD MSTORE PUSH1 0x4 DUP3 ADD SLOAD PUSH1 0x80 DUP3 ADD MSTORE PUSH1 0x5 DUP3 ADD SLOAD PUSH1 0xA0 DUP3 ADD MSTORE PUSH1 0x6 DUP3 ADD SLOAD PUSH1 0xC0 DUP3 ADD MSTORE PUSH1 0x7 DUP3 ADD SLOAD PUSH1 0xE0 DUP3 ADD MSTORE PUSH1 0x8 DUP3 ADD SLOAD PUSH2 0x100 DUP3 ADD MSTORE PUSH1 0x9 SWAP1 SWAP2 ADD SLOAD PUSH2 0x120 DUP3 ADD MSTORE SWAP1 JUMP JUMPDEST PUSH2 0x401 PUSH2 0x7C1 JUMP JUMPDEST PUSH2 0x40B PUSH1 0x0 PUSH2 0x7EE JUMP JUMPDEST JUMP JUMPDEST PUSH1 0x0 DUP2 DUP2 MSTORE PUSH1 0x1 PUSH1 0x20 MSTORE PUSH1 0x40 SWAP1 KECCAK256 PUSH1 0x9 ADD SLOAD ISZERO PUSH2 0x429 JUMPI PUSH1 0x0 DUP1 REVERT JUMPDEST PUSH1 0x40 DUP1 MLOAD PUSH2 0x140 DUP2 ADD DUP3 MSTORE DUP3 DUP2 MSTORE PUSH1 0x0 PUSH1 0x20 DUP1 DUP4 ADD DUP3 DUP2 MSTORE DUP4 DUP6 ADD DUP4 DUP2 MSTORE PUSH1 0x32 PUSH1 0x60 DUP1 DUP8 ADD DUP3 DUP2 MSTORE PUSH1 0x80 DUP9 ADD DUP8 DUP2 MSTORE PUSH1 0xA0 DUP10 ADD DUP5 DUP2 MSTORE PUSH1 0xC0 DUP11 ADD DUP10 DUP2 MSTORE PUSH1 0xE0 DUP12 ADD DUP7 DUP2 MSTORE PUSH2 0x100 DUP13 ADD DUP12 DUP2 MSTORE TIMESTAMP PUSH2 0x120 DUP15 ADD SWAP1 DUP2 MSTORE DUP16 DUP14 MSTORE PUSH1 0x1 DUP1 DUP14 MSTORE DUP16 DUP15 KECCAK256 SWAP15 MLOAD DUP16 SSTORE SWAP11 MLOAD DUP15 DUP13 ADD SSTORE SWAP9 MLOAD PUSH1 0x2 DUP1 DUP16 ADD SWAP2 SWAP1 SWAP2 SSTORE SWAP6 MLOAD PUSH1 0x3 DUP1 DUP16 ADD SWAP2 SWAP1 SWAP2 SSTORE SWAP5 MLOAD PUSH1 0x4 DUP1 DUP16 ADD SWAP2 SWAP1 SWAP2 SSTORE SWAP4 MLOAD PUSH1 0x5 DUP15 ADD SSTORE SWAP2 MLOAD PUSH1 0x6 DUP14 ADD SSTORE MLOAD PUSH1 0x7 DUP13 ADD SSTORE MLOAD PUSH1 0x8 DUP12 ADD SSTORE SWAP5 MLOAD PUSH1 0x9 SWAP1 SWAP10 ADD SWAP9 SWAP1 SWAP9 SSTORE DUP9 MLOAD SWAP2 DUP3 ADD DUP10 MSTORE DUP3 DUP3 MSTORE DUP2 DUP7 ADD DUP4 DUP2 MSTORE DUP3 DUP11 ADD SWAP4 DUP5 MSTORE SWAP10 DUP8 MSTORE DUP1 DUP7 MSTORE DUP9 DUP8 KECCAK256 SWAP2 MLOAD DUP3 SSTORE SWAP9 MLOAD SWAP4 DUP2 ADD SWAP4 SWAP1 SWAP4 SSTORE MLOAD SWAP2 SWAP1 SWAP7 ADD SSTORE SWAP4 DUP5 MSTORE DUP3 DUP2 KECCAK256 DUP2 DUP1 MSTORE SWAP1 SWAP4 MSTORE DUP2 DUP4 KECCAK256 PUSH1 0x50 SWAP1 DUP2 SWAP1 SSTORE SWAP1 DUP4 MSTORE SWAP2 KECCAK256 SSTORE JUMP JUMPDEST PUSH2 0x534 DUP3 PUSH1 0x2 DUP4 PUSH2 0x58A JUMP JUMPDEST POP POP JUMP JUMPDEST PUSH1 0x3 PUSH1 0x20 MSTORE DUP2 PUSH1 0x0 MSTORE PUSH1 0x40 PUSH1 0x0 KECCAK256 DUP2 DUP2 SLOAD DUP2 LT PUSH2 0x554 JUMPI PUSH1 0x0 DUP1 REVERT JUMPDEST PUSH1 0x0 SWAP2 DUP3 MSTORE PUSH1 0x20 SWAP1 SWAP2 KECCAK256 PUSH1 0x5 SWAP1 SWAP2 MUL ADD DUP1 SLOAD PUSH1 0x1 DUP3 ADD SLOAD PUSH1 0x2 DUP4 ADD SLOAD PUSH1 0x3 DUP5 ADD SLOAD PUSH1 0x4 SWAP1 SWAP5 ADD SLOAD SWAP3 SWAP6 POP PUSH1 0xFF SWAP1 SWAP2 AND SWAP4 POP SWAP2 SWAP1 DUP6 JUMP JUMPDEST PUSH1 0x0 DUP4 DUP2 MSTORE PUSH1 0x1 PUSH1 0x20 MSTORE PUSH1 0x40 SWAP1 KECCAK256 PUSH1 0x9 DUP2 ADD SLOAD PUSH2 0x5A6 JUMPI PUSH1 0x0 DUP1 REVERT JUMPDEST PUSH1 0x0 PUSH2 0x5B2 DUP3 DUP6 PUSH2 0x83E JUMP JUMPDEST SWAP1 POP PUSH1 0x0 PUSH2 0x5C0 DUP5 DUP4 PUSH2 0xC9E JUMP JUMPDEST SWAP1 POP PUSH1 0x0 DUP2 SLT ISZERO PUSH2 0x5CF JUMPI POP PUSH1 0x0 JUMPDEST PUSH1 0x64 DUP2 SGT ISZERO PUSH2 0x5DC JUMPI POP PUSH1 0x64 JUMPDEST PUSH2 0x5E7 DUP4 DUP7 DUP4 PUSH2 0x969 JUMP JUMPDEST TIMESTAMP PUSH1 0x9 DUP5 ADD SSTORE PUSH1 0x0 DUP7 DUP2 MSTORE PUSH1 0x3 PUSH1 0x20 SWAP1 DUP2 MSTORE PUSH1 0x40 SWAP2 DUP3 SWAP1 KECCAK256 DUP3 MLOAD PUSH1 0xA0 DUP2 ADD SWAP1 SWAP4 MSTORE DUP1 SLOAD DUP4 MSTORE SWAP2 SWAP1 DUP2 ADD DUP8 PUSH1 0x7 DUP2 GT ISZERO PUSH2 0x622 JUMPI PUSH2 0x622 PUSH2 0xBD3 JUMP JUMPDEST DUP2 MSTORE PUSH1 0x20 DUP1 DUP3 ADD DUP9 SWAP1 MSTORE TIMESTAMP PUSH1 0x40 DUP4 ADD MSTORE PUSH1 0x0 PUSH1 0x60 SWAP1 SWAP3 ADD DUP3 SWAP1 MSTORE DUP4 SLOAD PUSH1 0x1 DUP2 DUP2 ADD DUP7 SSTORE SWAP5 DUP4 MSTORE SWAP2 DUP2 SWAP1 KECCAK256 DUP4 MLOAD PUSH1 0x5 SWAP1 SWAP4 MUL ADD SWAP2 DUP3 SSTORE DUP3 ADD MLOAD DUP2 DUP5 ADD DUP1 SLOAD SWAP4 SWAP5 SWAP3 SWAP4 SWAP2 SWAP3 SWAP1 SWAP2 PUSH1 0xFF NOT AND SWAP1 DUP4 PUSH1 0x7 DUP2 GT ISZERO PUSH2 0x67E JUMPI PUSH2 0x67E PUSH2 0xBD3 JUMP JUMPDEST MUL OR SWAP1 SSTORE POP PUSH1 0x40 DUP3 ADD MLOAD DUP2 PUSH1 0x2 ADD SSTORE PUSH1 0x60 DUP3 ADD MLOAD DUP2 PUSH1 0x3 ADD SSTORE PUSH1 0x80 DUP3 ADD MLOAD DUP2 PUSH1 0x4 ADD SSTORE POP POP DUP6 PUSH32 0x1D56A97A914FB6AC5ACD5C16A67AAA5D37205364A52B10EB3D66DA627BE19DA4 DUP7 DUP5 DUP5 PUSH1 0x40 MLOAD PUSH2 0x6D7 SWAP4 SWAP3 SWAP2 SWAP1 PUSH2 0xCD4 JUMP JUMPDEST PUSH1 0x40 MLOAD DUP1 SWAP2 SUB SWAP1 LOG2 PUSH1 0x0 DUP7 DUP2 MSTORE PUSH1 0x4 PUSH1 0x20 MSTORE PUSH1 0x40 DUP2 KECCAK256 SWAP1 DUP7 PUSH1 0x7 DUP2 GT ISZERO PUSH2 0x700 JUMPI PUSH2 0x700 PUSH2 0xBD3 JUMP JUMPDEST PUSH1 0x7 DUP2 GT ISZERO PUSH2 0x711 JUMPI PUSH2 0x711 PUSH2 0xBD3 JUMP JUMPDEST DUP2 MSTORE PUSH1 0x20 ADD SWAP1 DUP2 MSTORE PUSH1 0x20 ADD PUSH1 0x0 KECCAK256 SLOAD DUP2 LT PUSH2 0x76A JUMPI DUP6 PUSH32 0xBC6E8F30F6A1EA05B48DD2125E3D39DB18A6EAC21B9E606729F850C53185E57E DUP7 DUP4 PUSH1 0x40 MLOAD PUSH2 0x758 SWAP3 SWAP2 SWAP1 PUSH2 0xCF5 JUMP JUMPDEST PUSH1 0x40 MLOAD DUP1 SWAP2 SUB SWAP1 LOG2 PUSH2 0x76A DUP7 DUP7 PUSH2 0xA92 JUMP JUMPDEST POP POP POP POP POP POP JUMP JUMPDEST PUSH2 0x534 DUP3 PUSH1 0x0 DUP4 PUSH2 0x58A JUMP JUMPDEST PUSH2 0x786 PUSH2 0x7C1 JUMP JUMPDEST PUSH1 0x1 PUSH1 0x1 PUSH1 0xA0 SHL SUB DUP2 AND PUSH2 0x7B5 JUMPI PUSH1 0x40 MLOAD PUSH4 0x1E4FBDF7 PUSH1 0xE0 SHL DUP2 MSTORE PUSH1 0x0 PUSH1 0x4 DUP3 ADD MSTORE PUSH1 0x24 ADD JUMPDEST PUSH1 0x40 MLOAD DUP1 SWAP2 SUB SWAP1 REVERT JUMPDEST PUSH2 0x7BE DUP2 PUSH2 0x7EE JUMP JUMPDEST POP JUMP JUMPDEST PUSH1 0x0 SLOAD PUSH1 0x1 PUSH1 0x1 PUSH1 0xA0 SHL SUB AND CALLER EQ PUSH2 0x40B JUMPI PUSH1 0x40 MLOAD PUSH4 0x118CDAA7 PUSH1 0xE0 SHL DUP2 MSTORE CALLER PUSH1 0x4 DUP3 ADD MSTORE PUSH1 0x24 ADD PUSH2 0x7AC JUMP JUMPDEST PUSH1 0x0 DUP1 SLOAD PUSH1 0x1 PUSH1 0x1 PUSH1 0xA0 SHL SUB DUP4 DUP2 AND PUSH1 0x1 PUSH1 0x1 PUSH1 0xA0 SHL SUB NOT DUP4 AND DUP2 OR DUP5 SSTORE PUSH1 0x40 MLOAD SWAP2 SWAP1 SWAP3 AND SWAP3 DUP4 SWAP2 PUSH32 0x8BE0079C531659141344CD1FD0A4F28419497F9722A3DAAFE3B4186F6B6457E0 SWAP2 SWAP1 LOG3 POP POP JUMP JUMPDEST PUSH1 0x0 DUP1 DUP3 PUSH1 0x7 DUP2 GT ISZERO PUSH2 0x853 JUMPI PUSH2 0x853 PUSH2 0xBD3 JUMP JUMPDEST SUB PUSH2 0x863 JUMPI POP PUSH1 0x1 DUP3 ADD SLOAD PUSH2 0x963 JUMP JUMPDEST PUSH1 0x1 DUP3 PUSH1 0x7 DUP2 GT ISZERO PUSH2 0x877 JUMPI PUSH2 0x877 PUSH2 0xBD3 JUMP JUMPDEST SUB PUSH2 0x887 JUMPI POP PUSH1 0x2 DUP3 ADD SLOAD PUSH2 0x963 JUMP JUMPDEST PUSH1 0x2 DUP3 PUSH1 0x7 DUP2 GT ISZERO PUSH2 0x89B JUMPI PUSH2 0x89B PUSH2 0xBD3 JUMP JUMPDEST SUB PUSH2 0x8AB JUMPI POP PUSH1 0x3 DUP3 ADD SLOAD PUSH2 0x963 JUMP JUMPDEST PUSH1 0x3 DUP3 PUSH1 0x7 DUP2 GT ISZERO PUSH2 0x8BF JUMPI PUSH2 0x8BF PUSH2 0xBD3 JUMP JUMPDEST SUB PUSH2 0x8CF JUMPI POP PUSH1 0x4 DUP3 ADD SLOAD PUSH2 0x963 JUMP JUMPDEST PUSH1 0x4 DUP3 PUSH1 0x7 DUP2 GT ISZERO PUSH2 0x8E3 JUMPI PUSH2 0x8E3 PUSH2 0xBD3 JUMP JUMPDEST SUB PUSH2 0x8F3 JUMPI POP PUSH1 0x5 DUP3 ADD SLOAD PUSH2 0x963 JUMP JUMPDEST PUSH1 0x5 DUP3 PUSH1 0x7 DUP2 GT ISZERO PUSH2 0x907 JUMPI PUSH2 0x907 PUSH2 0xBD3 JUMP JUMPDEST SUB PUSH2 0x917 JUMPI POP PUSH1 0x6 DUP3 ADD SLOAD PUSH2 0x963 JUMP JUMPDEST PUSH1 0x6 DUP3 PUSH1 0x7 DUP2 GT ISZERO PUSH2 0x92B JUMPI PUSH2 0x92B PUSH2 0xBD3 JUMP JUMPDEST SUB PUSH2 0x93B JUMPI POP PUSH1 0x7 DUP3 ADD SLOAD PUSH2 0x963 JUMP JUMPDEST PUSH1 0x7 DUP3 PUSH1 0x7 DUP2 GT ISZERO PUSH2 0x94F JUMPI PUSH2 0x94F PUSH2 0xBD3 JUMP JUMPDEST SUB PUSH2 0x95F JUMPI POP PUSH1 0x8 DUP3 ADD SLOAD PUSH2 0x963 JUMP JUMPDEST POP PUSH1 0x0 JUMPDEST SWAP3 SWAP2 POP POP JUMP JUMPDEST PUSH1 0x0 DUP3 PUSH1 0x7 DUP2 GT ISZERO PUSH2 0x97D JUMPI PUSH2 0x97D PUSH2 0xBD3 JUMP JUMPDEST SUB PUSH2 0x98E JUMPI PUSH1 0x1 DUP4 ADD DUP2 SWAP1 SSTORE POP POP POP JUMP JUMPDEST PUSH1 0x1 DUP3 PUSH1 0x7 DUP2 GT ISZERO PUSH2 0x9A2 JUMPI PUSH2 0x9A2 PUSH2 0xBD3 JUMP JUMPDEST SUB PUSH2 0x9B3 JUMPI PUSH1 0x2 DUP4 ADD DUP2 SWAP1 SSTORE POP POP POP JUMP JUMPDEST PUSH1 0x2 DUP3 PUSH1 0x7 DUP2 GT ISZERO PUSH2 0x9C7 JUMPI PUSH2 0x9C7 PUSH2 0xBD3 JUMP JUMPDEST SUB PUSH2 0x9D8 JUMPI PUSH1 0x3 DUP4 ADD DUP2 SWAP1 SSTORE POP POP POP JUMP JUMPDEST PUSH1 0x3 DUP3 PUSH1 0x7 DUP2 GT ISZERO PUSH2 0x9EC JUMPI PUSH2 0x9EC PUSH2 0xBD3 JUMP JUMPDEST SUB PUSH2 0x9FD JUMPI PUSH1 0x4 DUP4 ADD DUP2 SWAP1 SSTORE POP POP POP JUMP JUMPDEST PUSH1 0x4 DUP3 PUSH1 0x7 DUP2 GT ISZERO PUSH2 0xA11 JUMPI PUSH2 0xA11 PUSH2 0xBD3 JUMP JUMPDEST SUB PUSH2 0xA22 JUMPI PUSH1 0x5 DUP4 ADD DUP2 SWAP1 SSTORE POP POP POP JUMP JUMPDEST PUSH1 0x5 DUP3 PUSH1 0x7 DUP2 GT ISZERO PUSH2 0xA36 JUMPI PUSH2 0xA36 PUSH2 0xBD3 JUMP JUMPDEST SUB PUSH2 0xA47 JUMPI PUSH1 0x6 DUP4 ADD DUP2 SWAP1 SSTORE POP POP POP JUMP JUMPDEST PUSH1 0x6 DUP3 PUSH1 0x7 DUP2 GT ISZERO PUSH2 0xA5B JUMPI PUSH2 0xA5B PUSH2 0xBD3 JUMP JUMPDEST SUB PUSH2 0xA6C JUMPI PUSH1 0x7 DUP4 ADD DUP2 SWAP1 SSTORE POP POP POP JUMP JUMPDEST PUSH1 0x7 DUP3 PUSH1 0x7 DUP2 GT ISZERO PUSH2 0xA80 JUMPI PUSH2 0xA80 PUSH2 0xBD3 JUMP JUMPDEST SUB PUSH2 0xA8D JUMPI PUSH1 0x8 DUP4 ADD DUP2 SWAP1 SSTORE JUMPDEST POP POP POP JUMP JUMPDEST PUSH1 0x0 DUP1 DUP3 PUSH1 0x7 DUP2 GT ISZERO PUSH2 0xAA7 JUMPI PUSH2 0xAA7 PUSH2 0xBD3 JUMP JUMPDEST SUB PUSH2 0xAB4 JUMPI POP PUSH1 0x0 PUSH2 0xB1B JUMP JUMPDEST PUSH1 0x3 DUP3 PUSH1 0x7 DUP2 GT ISZERO PUSH2 0xAC8 JUMPI PUSH2 0xAC8 PUSH2 0xBD3 JUMP JUMPDEST SUB PUSH2 0xAD5 JUMPI POP PUSH1 0x1 PUSH2 0xB1B JUMP JUMPDEST PUSH1 0x2 DUP3 PUSH1 0x7 DUP2 GT ISZERO PUSH2 0xAE9 JUMPI PUSH2 0xAE9 PUSH2 0xBD3 JUMP JUMPDEST SUB PUSH2 0xAF6 JUMPI POP PUSH1 0x2 PUSH2 0xB1B JUMP JUMPDEST PUSH1 0x4 DUP3 PUSH1 0x7 DUP2 GT ISZERO PUSH2 0xB0A JUMPI PUSH2 0xB0A PUSH2 0xBD3 JUMP JUMPDEST SUB PUSH2 0xB17 JUMPI POP PUSH1 0x4 PUSH2 0xB1B JUMP JUMPDEST POP PUSH1 0x3 JUMPDEST DUP3 PUSH32 0x836E3EE87AB32E8AAC0C04AFF757E5491748356EB451486106B8E08E55073FC6 DUP3 PUSH1 0x40 MLOAD PUSH2 0xB4B SWAP2 SWAP1 PUSH2 0xD0C JUMP JUMPDEST PUSH1 0x40 MLOAD DUP1 SWAP2 SUB SWAP1 LOG2 POP POP POP JUMP JUMPDEST PUSH1 0x0 PUSH1 0x20 DUP3 DUP5 SUB SLT ISZERO PUSH2 0xB6A JUMPI PUSH1 0x0 DUP1 REVERT JUMPDEST POP CALLDATALOAD SWAP2 SWAP1 POP JUMP JUMPDEST DUP1 CALLDATALOAD PUSH1 0x8 DUP2 LT PUSH2 0xB80 JUMPI PUSH1 0x0 DUP1 REVERT JUMPDEST SWAP2 SWAP1 POP JUMP JUMPDEST PUSH1 0x0 DUP1 PUSH1 0x40 DUP4 DUP6 SUB SLT ISZERO PUSH2 0xB98 JUMPI PUSH1 0x0 DUP1 REVERT JUMPDEST DUP3 CALLDATALOAD SWAP2 POP PUSH2 0xBA8 PUSH1 0x20 DUP5 ADD PUSH2 0xB71 JUMP JUMPDEST SWAP1 POP SWAP3 POP SWAP3 SWAP1 POP JUMP JUMPDEST PUSH1 0x0 DUP1 PUSH1 0x40 DUP4 DUP6 SUB SLT ISZERO PUSH2 0xBC4 JUMPI PUSH1 0x0 DUP1 REVERT JUMPDEST POP POP DUP1 CALLDATALOAD SWAP3 PUSH1 0x20 SWAP1 SWAP2 ADD CALLDATALOAD SWAP2 POP JUMP JUMPDEST PUSH4 0x4E487B71 PUSH1 0xE0 SHL PUSH1 0x0 MSTORE PUSH1 0x21 PUSH1 0x4 MSTORE PUSH1 0x24 PUSH1 0x0 REVERT JUMPDEST PUSH1 0x8 DUP2 LT PUSH2 0x7BE JUMPI PUSH4 0x4E487B71 PUSH1 0xE0 SHL PUSH1 0x0 MSTORE PUSH1 0x21 PUSH1 0x4 MSTORE PUSH1 0x24 PUSH1 0x0 REVERT JUMPDEST DUP6 DUP2 MSTORE PUSH1 0xA0 DUP2 ADD PUSH2 0xC17 DUP7 PUSH2 0xBE9 JUMP JUMPDEST DUP6 PUSH1 0x20 DUP4 ADD MSTORE DUP5 PUSH1 0x40 DUP4 ADD MSTORE DUP4 PUSH1 0x60 DUP4 ADD MSTORE DUP3 PUSH1 0x80 DUP4 ADD MSTORE SWAP7 SWAP6 POP POP POP POP POP POP JUMP JUMPDEST PUSH1 0x0 DUP1 PUSH1 0x0 PUSH1 0x60 DUP5 DUP7 SUB SLT ISZERO PUSH2 0xC4E JUMPI PUSH1 0x0 DUP1 REVERT JUMPDEST DUP4 CALLDATALOAD SWAP3 POP PUSH2 0xC5E PUSH1 0x20 DUP6 ADD PUSH2 0xB71 JUMP JUMPDEST SWAP2 POP PUSH1 0x40 DUP5 ADD CALLDATALOAD SWAP1 POP SWAP3 POP SWAP3 POP SWAP3 JUMP JUMPDEST PUSH1 0x0 PUSH1 0x20 DUP3 DUP5 SUB SLT ISZERO PUSH2 0xC80 JUMPI PUSH1 0x0 DUP1 REVERT JUMPDEST DUP2 CALLDATALOAD PUSH1 0x1 PUSH1 0x1 PUSH1 0xA0 SHL SUB DUP2 AND DUP2 EQ PUSH2 0xC97 JUMPI PUSH1 0x0 DUP1 REVERT JUMPDEST SWAP4 SWAP3 POP POP POP JUMP JUMPDEST DUP1 DUP3 ADD DUP3 DUP2 SLT PUSH1 0x0 DUP4 SLT DUP1 ISZERO DUP3 AND DUP3 ISZERO DUP3 AND OR ISZERO PUSH2 0xCCC JUMPI PUSH4 0x4E487B71 PUSH1 0xE0 SHL PUSH1 0x0 MSTORE PUSH1 0x11 PUSH1 0x4 MSTORE PUSH1 0x24 PUSH1 0x0 REVERT JUMPDEST POP POP SWAP3 SWAP2 POP POP JUMP JUMPDEST PUSH1 0x60 DUP2 ADD PUSH2 0xCE1 DUP6 PUSH2 0xBE9 JUMP JUMPDEST SWAP4 DUP2 MSTORE PUSH1 0x20 DUP2 ADD SWAP3 SWAP1 SWAP3 MSTORE PUSH1 0x40 SWAP1 SWAP2 ADD MSTORE SWAP1 JUMP JUMPDEST PUSH1 0x40 DUP2 ADD PUSH2 0xD02 DUP5 PUSH2 0xBE9 JUMP JUMPDEST SWAP3 DUP2 MSTORE PUSH1 0x20 ADD MSTORE SWAP1 JUMP JUMPDEST PUSH1 0x20 DUP2 ADD PUSH2 0xD19 DUP4 PUSH2 0xBE9 JUMP JUMPDEST SWAP2 SWAP1 MSTORE SWAP1 JUMP INVALID LOG2 PUSH5 0x6970667358 0x22 SLT KECCAK256 PUSH1 0xBA 0xF 0xBF SWAP3 PUSH22 0x220B7881CEE0DFBCCCA794766D91F4C13A968709E26A 0xC5 BYTE JUMPI EXTCODESIZE PUSH5 0x736F6C6343 STOP ADDMOD EQ STOP CALLER "},"methodIdentifiers":{"emotionThresholds(uint256,uint8)":"42844ab8","emotionalHistory(uint256,uint256)":"a9bfd40a","emotionalProfiles(uint256)":"914e4545","entityEmotions(uint256)":"0c3160e9","getEmotions(uint256)":"69ab3624","initializeEmotions(uint256)":"8192e856","owner()":"8da5cb5b","renounceOwnership()":"715018a6","transferOwnership(address)":"f2fde38b","updateEmotionValue(uint256,uint8,int256)":"d7a7702f","updateFear(uint256,int256)":"eaf6d926","updateTrust(uint256,int256)":"9b134a91"}}}}}