{"contracts/layer3/psychology/SocialInfluence.sol":{"SocialInfluence":{"abi":[{"inputs":[],"stateMutability":"nonpayable","type":"constructor"},{"inputs":[{"internalType":"address","name":"owner","type":"address"}],"name":"OwnableInvalidOwner","type":"error"},{"inputs":[{"internalType":"address","name":"account","type":"address"}],"name":"OwnableUnauthorizedAccount","type":"error"},{"anonymous":false,"inputs":[{"indexed":true,"internalType":"uint256","name":"sourceId","type":"uint256"},{"indexed":true,"internalType":"uint256","name":"targetId","type":"uint256"},{"indexed":false,"internalType":"uint256","name":"strength","type":"uint256"}],"name":"InfluenceRecorded","type":"event"},{"anonymous":false,"inputs":[{"indexed":true,"internalType":"uint256","name":"entityId","type":"uint256"},{"indexed":false,"internalType":"string","name":"topic","type":"string"},{"indexed":false,"internalType":"int256","name":"oldStance","type":"int256"},{"indexed":false,"internalType":"int256","name":"newStance","type":"int256"}],"name":"OpinionChanged","type":"event"},{"anonymous":false,"inputs":[{"indexed":true,"internalType":"uint256","name":"sourceId","type":"uint256"},{"indexed":false,"internalType":"string","name":"topic","type":"string"},{"indexed":false,"internalType":"uint256","name":"affectedCount","type":"uint256"}],"name":"OpinionPropagated","type":"event"},{"anonymous":false,"inputs":[{"indexed":true,"internalType":"address","name":"previousOwner","type":"address"},{"indexed":true,"internalType":"address","name":"newOwner","type":"address"}],"name":"OwnershipTransferred","type":"event"},{"inputs":[{"internalType":"uint256","name":"followerId","type":"uint256"},{"internalType":"uint256","name":"targetId","type":"uint256"}],"name":"follow","outputs":[],"stateMutability":"nonpayable","type":"function"},{"inputs":[{"internalType":"uint256","name":"","type":"uint256"},{"internalType":"uint256","name":"","type":"uint256"}],"name":"followers","outputs":[{"internalType":"uint256","name":"","type":"uint256"}],"stateMutability":"view","type":"function"},{"inputs":[{"internalType":"uint256","name":"","type":"uint256"},{"internalType":"uint256","name":"","type":"uint256"}],"name":"following","outputs":[{"internalType":"uint256","name":"","type":"uint256"}],"stateMutability":"view","type":"function"},{"inputs":[{"internalType":"uint256","name":"entityId","type":"uint256"}],"name":"getInfluenceScore","outputs":[{"internalType":"uint256","name":"","type":"uint256"}],"stateMutability":"view","type":"function"},{"inputs":[{"internalType":"uint256","name":"","type":"uint256"},{"internalType":"uint256","name":"","type":"uint256"}],"name":"influences","outputs":[{"internalType":"uint256","name":"sourceId","type":"uint256"},{"internalType":"uint256","name":"targetId","type":"uint256"},{"internalType":"uint256","name":"strength","type":"uint256"},{"internalType":"string","name":"influenceType","type":"string"},{"internalType":"uint256","name":"timestamp","type":"uint256"}],"stateMutability":"view","type":"function"},{"inputs":[{"internalType":"uint256","name":"","type":"uint256"}],"name":"networkEffects","outputs":[{"internalType":"uint256","name":"entityId","type":"uint256"},{"internalType":"uint256","name":"influenceScore","type":"uint256"},{"internalType":"uint256","name":"followerCount","type":"uint256"},{"internalType":"uint256","name":"totalInfluence","type":"uint256"}],"stateMutability":"view","type":"function"},{"inputs":[{"internalType":"uint256","name":"","type":"uint256"},{"internalType":"string","name":"","type":"string"}],"name":"opinions","outputs":[{"internalType":"string","name":"topic","type":"string"},{"internalType":"int256","name":"stance","type":"int256"},{"internalType":"uint256","name":"confidence","type":"uint256"},{"internalType":"uint256","name":"lastUpdate","type":"uint256"}],"stateMutability":"view","type":"function"},{"inputs":[],"name":"owner","outputs":[{"internalType":"address","name":"","type":"address"}],"stateMutability":"view","type":"function"},{"inputs":[{"internalType":"uint256","name":"sourceId","type":"uint256"},{"internalType":"string","name":"topic","type":"string"}],"name":"propagateOpinion","outputs":[],"stateMutability":"nonpayable","type":"function"},{"inputs":[{"internalType":"uint256","name":"sourceId","type":"uint256"},{"internalType":"uint256","name":"targetId","type":"uint256"},{"internalType":"uint256","name":"strength","type":"uint256"},{"internalType":"string","name":"influenceType","type":"string"}],"name":"recordInfluence","outputs":[],"stateMutability":"nonpayable","type":"function"},{"inputs":[],"name":"renounceOwnership","outputs":[],"stateMutability":"nonpayable","type":"function"},{"inputs":[{"internalType":"uint256","name":"entityId","type":"uint256"},{"internalType":"string","name":"topic","type":"string"},{"internalType":"int256","name":"stance","type":"int256"},{"internalType":"uint256","name":"confidence","type":"uint256"}],"name":"setOpinion","outputs":[],"stateMutability":"nonpayable","type":"function"},{"inputs":[{"internalType":"address","name":"newOwner","type":"address"}],"name":"transferOwnership","outputs":[],"stateMutability":"nonpayable","type":"function"}],"evm":{"bytecode":{"linkReferences":{},"object":"608060405234801561001057600080fd5b50338061003757604051631e4fbdf760e01b81526000600482015260240160405180910390fd5b61004081610046565b50610096565b600080546001600160a01b038381166001600160a01b0319831681178455604051919092169283917f8be0079c531659141344cd1fd0a4f28419497f9722a3daafe3b4186f6b6457e09190a35050565b610e36806100a56000396000f3fe608060405234801561001057600080fd5b50600436106100cf5760003560e01c806389d3b30b1161008c5780638f182525116100665780638f182525146101f5578063da10585714610219578063eb464a401461022c578063f2fde38b1461023f57600080fd5b806389d3b30b146101605780638b786975146101835780638da5cb5b146101da57600080fd5b8063053acf85146100d4578063715018a6146100fa57806372bd81d71461010457806379a0fa3f14610117578063821defc21461012a5780638518cfff1461013d575b600080fd5b6100e76100e23660046108a6565b610252565b6040519081526020015b60405180910390f35b610102610283565b005b6100e76101123660046108a6565b610297565b61010261012536600461096b565b6102b3565b6101026101383660046108a6565b610339565b6100e761014b3660046109c2565b60009081526003602052604090206001015490565b61017361016e3660046109db565b610399565b6040516100f19493929190610a72565b6101ba6101913660046109c2565b600360208190526000918252604090912080546001820154600283015492909301549092919084565b6040805194855260208501939093529183015260608201526080016100f1565b6000546040516001600160a01b0390911681526020016100f1565b6102086102033660046108a6565b610465565b6040516100f1959493929190610aa1565b610102610227366004610ad8565b610525565b61010261023a3660046109db565b6105fd565b61010261024d366004610b32565b6107e6565b6005602052816000526040600020818154811061026e57600080fd5b90600052602060002001600091509150505481565b61028b610829565b6102956000610856565b565b6004602052816000526040600020818154811061026e57600080fd5b60405180608001604052808481526020018381526020018281526020014281525060026000868152602001908152602001600020846040516102f59190610b62565b908152604051908190036020019020815181906103129082610c07565b50602082015160018201556040820151600282015560609091015160039091015550505050565b60008181526004602090815260408083208054600181810183559185528385200186905585845260058352818420805491820181558452828420018490558383526003909152812060020180549161039083610cdd565b91905055505050565b600260209081526000928352604090922081518083018401805192815290840192909301919091209152805481906103d090610b7e565b80601f01602080910402602001604051908101604052809291908181526020018280546103fc90610b7e565b80156104495780601f1061041e57610100808354040283529160200191610449565b820191906000526020600020905b81548152906001019060200180831161042c57829003601f168201915b5050505050908060010154908060020154908060030154905084565b6001602081815260009384526040808520909152918352912080549181015460028201546003830180549293919261049c90610b7e565b80601f01602080910402602001604051908101604052809291908181526020018280546104c890610b7e565b80156105155780601f106104ea57610100808354040283529160200191610515565b820191906000526020600020905b8154815290600101906020018083116104f857829003601f168201915b5050505050908060040154905085565b6040805160a08101825285815260208082018681528284018681526060840186815242608086015260008a815260018086528782208b83529095529590952084518155915192820192909255905160028201559151909190600382019061058c9082610c07565b5060809190910151600490910155600084815260036020819052604082200180548492906105bb908490610cf6565b9091555050604051828152839085907f858c0fa9792787fc171f7c20fde2cafa0a1c55c1190b47350662132974da2bf99060200160405180910390a350505050565b6000828152600260205260408082209051610619908490610b62565b908152602001604051809103902090506000805b6000858152600460205260409020548110156107a557600085815260046020526040812080548390811061066357610663610d0f565b60009182526020808320909101548883526001825260408084208285529092529120600281015491925090603210156107905760008281526002602052604080822090516106b2908990610b62565b9081526020016040518091039020905060008160010154905060006064846002015489600101546106e39190610d25565b6106ed9190610d55565b905060028184600101546107019190610d91565b61070b9190610d55565b600184018190556064121561072257606460018401555b606319836001015412156107395760631960018401555b4260038401558661074981610cdd565b975050847fa8c163be76e69aee9bc9c3bb1a41d25432a0d4f61088b0222d621369a2079a0e8a84866001015460405161078493929190610db9565b60405180910390a25050505b5050808061079d90610cdd565b91505061062d565b50837f8ccbc0a59fb3254468c1fd88fe580b78947e8c9e0b1c00b1ea0b050c4884e7d684836040516107d8929190610dde565b60405180910390a250505050565b6107ee610829565b6001600160a01b03811661081d57604051631e4fbdf760e01b8152600060048201526024015b60405180910390fd5b61082681610856565b50565b6000546001600160a01b031633146102955760405163118cdaa760e01b8152336004820152602401610814565b600080546001600160a01b038381166001600160a01b0319831681178455604051919092169283917f8be0079c531659141344cd1fd0a4f28419497f9722a3daafe3b4186f6b6457e09190a35050565b600080604083850312156108b957600080fd5b50508035926020909101359150565b634e487b7160e01b600052604160045260246000fd5b600082601f8301126108ef57600080fd5b813567ffffffffffffffff8082111561090a5761090a6108c8565b604051601f8301601f19908116603f01168101908282118183101715610932576109326108c8565b8160405283815286602085880101111561094b57600080fd5b836020870160208301376000602085830101528094505050505092915050565b6000806000806080858703121561098157600080fd5b84359350602085013567ffffffffffffffff81111561099f57600080fd5b6109ab878288016108de565b949794965050505060408301359260600135919050565b6000602082840312156109d457600080fd5b5035919050565b600080604083850312156109ee57600080fd5b82359150602083013567ffffffffffffffff811115610a0c57600080fd5b610a18858286016108de565b9150509250929050565b60005b83811015610a3d578181015183820152602001610a25565b50506000910152565b60008151808452610a5e816020860160208601610a22565b601f01601f19169290920160200192915050565b608081526000610a856080830187610a46565b6020830195909552506040810192909252606090910152919050565b85815284602082015283604082015260a060608201526000610ac660a0830185610a46565b90508260808301529695505050505050565b60008060008060808587031215610aee57600080fd5b843593506020850135925060408501359150606085013567ffffffffffffffff811115610b1a57600080fd5b610b26878288016108de565b91505092959194509250565b600060208284031215610b4457600080fd5b81356001600160a01b0381168114610b5b57600080fd5b9392505050565b60008251610b74818460208701610a22565b9190910192915050565b600181811c90821680610b9257607f821691505b602082108103610bb257634e487b7160e01b600052602260045260246000fd5b50919050565b601f821115610c0257600081815260208120601f850160051c81016020861015610bdf5750805b601f850160051c820191505b81811015610bfe57828155600101610beb565b5050505b505050565b815167ffffffffffffffff811115610c2157610c216108c8565b610c3581610c2f8454610b7e565b84610bb8565b602080601f831160018114610c6a5760008415610c525750858301515b600019600386901b1c1916600185901b178555610bfe565b600085815260208120601f198616915b82811015610c9957888601518255948401946001909101908401610c7a565b5085821015610cb75787850151600019600388901b60f8161c191681555b5050505050600190811b01905550565b634e487b7160e01b600052601160045260246000fd5b600060018201610cef57610cef610cc7565b5060010190565b80820180821115610d0957610d09610cc7565b92915050565b634e487b7160e01b600052603260045260246000fd5b80820260008212600160ff1b84141615610d4157610d41610cc7565b8181058314821517610d0957610d09610cc7565b600082610d7257634e487b7160e01b600052601260045260246000fd5b600160ff1b821460001984141615610d8c57610d8c610cc7565b500590565b8082018281126000831280158216821582161715610db157610db1610cc7565b505092915050565b606081526000610dcc6060830186610a46565b60208301949094525060400152919050565b604081526000610df16040830185610a46565b9050826020830152939250505056fea26469706673582212204bd6d565d7c5d748fc99996f5d233e9f5dcccd6ac8a5a6bfe3a6c2e6fb65708064736f6c63430008140033","opcodes":"PUSH1 0x80 PUSH1 0x40 MSTORE CALLVALUE DUP1 ISZERO PUSH2 0x10 JUMPI PUSH1 0x0 DUP1 REVERT JUMPDEST POP CALLER DUP1 PUSH2 0x37 JUMPI PUSH1 0x40 MLOAD PUSH4 0x1E4FBDF7 PUSH1 0xE0 SHL DUP2 MSTORE PUSH1 0x0 PUSH1 0x4 DUP3 ADD MSTORE PUSH1 0x24 ADD PUSH1 0x40 MLOAD DUP1 SWAP2 SUB SWAP1 REVERT JUMPDEST PUSH2 0x40 DUP2 PUSH2 0x46 JUMP JUMPDEST POP PUSH2 0x96 JUMP JUMPDEST PUSH1 0x0 DUP1 SLOAD PUSH1 0x1 PUSH1 0x1 PUSH1 0xA0 SHL SUB DUP4 DUP2 AND PUSH1 0x1 PUSH1 0x1 PUSH1 0xA0 SHL SUB NOT DUP4 AND DUP2 OR DUP5 SSTORE PUSH1 0x40 MLOAD SWAP2 SWAP1 SWAP3 AND SWAP3 DUP4 SWAP2 PUSH32 0x8BE0079C531659141344CD1FD0A4F28419497F9722A3DAAFE3B4186F6B6457E0 SWAP2 SWAP1 LOG3 POP POP JUMP JUMPDEST PUSH2 0xE36 DUP1 PUSH2 0xA5 PUSH1 0x0 CODECOPY PUSH1 0x0 RETURN INVALID PUSH1 0x80 PUSH1 0x40 MSTORE CALLVALUE DUP1 ISZERO PUSH2 0x10 JUMPI PUSH1 0x0 DUP1 REVERT JUMPDEST POP PUSH1 0x4 CALLDATASIZE LT PUSH2 0xCF JUMPI PUSH1 0x0 CALLDATALOAD PUSH1 0xE0 SHR DUP1 PUSH4 0x89D3B30B GT PUSH2 0x8C JUMPI DUP1 PUSH4 0x8F182525 GT PUSH2 0x66 JUMPI DUP1 PUSH4 0x8F182525 EQ PUSH2 0x1F5 JUMPI DUP1 PUSH4 0xDA105857 EQ PUSH2 0x219 JUMPI DUP1 PUSH4 0xEB464A40 EQ PUSH2 0x22C JUMPI DUP1 PUSH4 0xF2FDE38B EQ PUSH2 0x23F JUMPI PUSH1 0x0 DUP1 REVERT JUMPDEST DUP1 PUSH4 0x89D3B30B EQ PUSH2 0x160 JUMPI DUP1 PUSH4 0x8B786975 EQ PUSH2 0x183 JUMPI DUP1 PUSH4 0x8DA5CB5B EQ PUSH2 0x1DA JUMPI PUSH1 0x0 DUP1 REVERT JUMPDEST DUP1 PUSH4 0x53ACF85 EQ PUSH2 0xD4 JUMPI DUP1 PUSH4 0x715018A6 EQ PUSH2 0xFA JUMPI DUP1 PUSH4 0x72BD81D7 EQ PUSH2 0x104 JUMPI DUP1 PUSH4 0x79A0FA3F EQ PUSH2 0x117 JUMPI DUP1 PUSH4 0x821DEFC2 EQ PUSH2 0x12A JUMPI DUP1 PUSH4 0x8518CFFF EQ PUSH2 0x13D JUMPI JUMPDEST PUSH1 0x0 DUP1 REVERT JUMPDEST PUSH2 0xE7 PUSH2 0xE2 CALLDATASIZE PUSH1 0x4 PUSH2 0x8A6 JUMP JUMPDEST PUSH2 0x252 JUMP JUMPDEST PUSH1 0x40 MLOAD SWAP1 DUP2 MSTORE PUSH1 0x20 ADD JUMPDEST PUSH1 0x40 MLOAD DUP1 SWAP2 SUB SWAP1 RETURN JUMPDEST PUSH2 0x102 PUSH2 0x283 JUMP JUMPDEST STOP JUMPDEST PUSH2 0xE7 PUSH2 0x112 CALLDATASIZE PUSH1 0x4 PUSH2 0x8A6 JUMP JUMPDEST PUSH2 0x297 JUMP JUMPDEST PUSH2 0x102 PUSH2 0x125 CALLDATASIZE PUSH1 0x4 PUSH2 0x96B JUMP JUMPDEST PUSH2 0x2B3 JUMP JUMPDEST PUSH2 0x102 PUSH2 0x138 CALLDATASIZE PUSH1 0x4 PUSH2 0x8A6 JUMP JUMPDEST PUSH2 0x339 JUMP JUMPDEST PUSH2 0xE7 PUSH2 0x14B CALLDATASIZE PUSH1 0x4 PUSH2 0x9C2 JUMP JUMPDEST PUSH1 0x0 SWAP1 DUP2 MSTORE PUSH1 0x3 PUSH1 0x20 MSTORE PUSH1 0x40 SWAP1 KECCAK256 PUSH1 0x1 ADD SLOAD SWAP1 JUMP JUMPDEST PUSH2 0x173 PUSH2 0x16E CALLDATASIZE PUSH1 0x4 PUSH2 0x9DB JUMP JUMPDEST PUSH2 0x399 JUMP JUMPDEST PUSH1 0x40 MLOAD PUSH2 0xF1 SWAP5 SWAP4 SWAP3 SWAP2 SWAP1 PUSH2 0xA72 JUMP JUMPDEST PUSH2 0x1BA PUSH2 0x191 CALLDATASIZE PUSH1 0x4 PUSH2 0x9C2 JUMP JUMPDEST PUSH1 0x3 PUSH1 0x20 DUP2 SWAP1 MSTORE PUSH1 0x0 SWAP2 DUP3 MSTORE PUSH1 0x40 SWAP1 SWAP2 KECCAK256 DUP1 SLOAD PUSH1 0x1 DUP3 ADD SLOAD PUSH1 0x2 DUP4 ADD SLOAD SWAP3 SWAP1 SWAP4 ADD SLOAD SWAP1 SWAP3 SWAP2 SWAP1 DUP5 JUMP JUMPDEST PUSH1 0x40 DUP1 MLOAD SWAP5 DUP6 MSTORE PUSH1 0x20 DUP6 ADD SWAP4 SWAP1 SWAP4 MSTORE SWAP2 DUP4 ADD MSTORE PUSH1 0x60 DUP3 ADD MSTORE PUSH1 0x80 ADD PUSH2 0xF1 JUMP JUMPDEST PUSH1 0x0 SLOAD PUSH1 0x40 MLOAD PUSH1 0x1 PUSH1 0x1 PUSH1 0xA0 SHL SUB SWAP1 SWAP2 AND DUP2 MSTORE PUSH1 0x20 ADD PUSH2 0xF1 JUMP JUMPDEST PUSH2 0x208 PUSH2 0x203 CALLDATASIZE PUSH1 0x4 PUSH2 0x8A6 JUMP JUMPDEST PUSH2 0x465 JUMP JUMPDEST PUSH1 0x40 MLOAD PUSH2 0xF1 SWAP6 SWAP5 SWAP4 SWAP3 SWAP2 SWAP1 PUSH2 0xAA1 JUMP JUMPDEST PUSH2 0x102 PUSH2 0x227 CALLDATASIZE PUSH1 0x4 PUSH2 0xAD8 JUMP JUMPDEST PUSH2 0x525 JUMP JUMPDEST PUSH2 0x102 PUSH2 0x23A CALLDATASIZE PUSH1 0x4 PUSH2 0x9DB JUMP JUMPDEST PUSH2 0x5FD JUMP JUMPDEST PUSH2 0x102 PUSH2 0x24D CALLDATASIZE PUSH1 0x4 PUSH2 0xB32 JUMP JUMPDEST PUSH2 0x7E6 JUMP JUMPDEST PUSH1 0x5 PUSH1 0x20 MSTORE DUP2 PUSH1 0x0 MSTORE PUSH1 0x40 PUSH1 0x0 KECCAK256 DUP2 DUP2 SLOAD DUP2 LT PUSH2 0x26E JUMPI PUSH1 0x0 DUP1 REVERT JUMPDEST SWAP1 PUSH1 0x0 MSTORE PUSH1 0x20 PUSH1 0x0 KECCAK256 ADD PUSH1 0x0 SWAP2 POP SWAP2 POP POP SLOAD DUP2 JUMP JUMPDEST PUSH2 0x28B PUSH2 0x829 JUMP JUMPDEST PUSH2 0x295 PUSH1 0x0 PUSH2 0x856 JUMP JUMPDEST JUMP JUMPDEST PUSH1 0x4 PUSH1 0x20 MSTORE DUP2 PUSH1 0x0 MSTORE PUSH1 0x40 PUSH1 0x0 KECCAK256 DUP2 DUP2 SLOAD DUP2 LT PUSH2 0x26E JUMPI PUSH1 0x0 DUP1 REVERT JUMPDEST PUSH1 0x40 MLOAD DUP1 PUSH1 0x80 ADD PUSH1 0x40 MSTORE DUP1 DUP5 DUP2 MSTORE PUSH1 0x20 ADD DUP4 DUP2 MSTORE PUSH1 0x20 ADD DUP3 DUP2 MSTORE PUSH1 0x20 ADD TIMESTAMP DUP2 MSTORE POP PUSH1 0x2 PUSH1 0x0 DUP7 DUP2 MSTORE PUSH1 0x20 ADD SWAP1 DUP2 MSTORE PUSH1 0x20 ADD PUSH1 0x0 KECCAK256 DUP5 PUSH1 0x40 MLOAD PUSH2 0x2F5 SWAP2 SWAP1 PUSH2 0xB62 JUMP JUMPDEST SWAP1 DUP2 MSTORE PUSH1 0x40 MLOAD SWAP1 DUP2 SWAP1 SUB PUSH1 0x20 ADD SWAP1 KECCAK256 DUP2 MLOAD DUP2 SWAP1 PUSH2 0x312 SWAP1 DUP3 PUSH2 0xC07 JUMP JUMPDEST POP PUSH1 0x20 DUP3 ADD MLOAD PUSH1 0x1 DUP3 ADD SSTORE PUSH1 0x40 DUP3 ADD MLOAD PUSH1 0x2 DUP3 ADD SSTORE PUSH1 0x60 SWAP1 SWAP2 ADD MLOAD PUSH1 0x3 SWAP1 SWAP2 ADD SSTORE POP POP POP POP JUMP JUMPDEST PUSH1 0x0 DUP2 DUP2 MSTORE PUSH1 0x4 PUSH1 0x20 SWAP1 DUP2 MSTORE PUSH1 0x40 DUP1 DUP4 KECCAK256 DUP1 SLOAD PUSH1 0x1 DUP2 DUP2 ADD DUP4 SSTORE SWAP2 DUP6 MSTORE DUP4 DUP6 KECCAK256 ADD DUP7 SWAP1 SSTORE DUP6 DUP5 MSTORE PUSH1 0x5 DUP4 MSTORE DUP2 DUP5 KECCAK256 DUP1 SLOAD SWAP2 DUP3 ADD DUP2 SSTORE DUP5 MSTORE DUP3 DUP5 KECCAK256 ADD DUP5 SWAP1 SSTORE DUP4 DUP4 MSTORE PUSH1 0x3 SWAP1 SWAP2 MSTORE DUP2 KECCAK256 PUSH1 0x2 ADD DUP1 SLOAD SWAP2 PUSH2 0x390 DUP4 PUSH2 0xCDD JUMP JUMPDEST SWAP2 SWAP1 POP SSTORE POP POP POP JUMP JUMPDEST PUSH1 0x2 PUSH1 0x20 SWAP1 DUP2 MSTORE PUSH1 0x0 SWAP3 DUP4 MSTORE PUSH1 0x40 SWAP1 SWAP3 KECCAK256 DUP2 MLOAD DUP1 DUP4 ADD DUP5 ADD DUP1 MLOAD SWAP3 DUP2 MSTORE SWAP1 DUP5 ADD SWAP3 SWAP1 SWAP4 ADD SWAP2 SWAP1 SWAP2 KECCAK256 SWAP2 MSTORE DUP1 SLOAD DUP2 SWAP1 PUSH2 0x3D0 SWAP1 PUSH2 0xB7E JUMP JUMPDEST DUP1 PUSH1 0x1F ADD PUSH1 0x20 DUP1 SWAP2 DIV MUL PUSH1 0x20 ADD PUSH1 0x40 MLOAD SWAP1 DUP2 ADD PUSH1 0x40 MSTORE DUP1 SWAP3 SWAP2 SWAP1 DUP2 DUP2 MSTORE PUSH1 0x20 ADD DUP3 DUP1 SLOAD PUSH2 0x3FC SWAP1 PUSH2 0xB7E JUMP JUMPDEST DUP1 ISZERO PUSH2 0x449 JUMPI DUP1 PUSH1 0x1F LT PUSH2 0x41E JUMPI PUSH2 0x100 DUP1 DUP4 SLOAD DIV MUL DUP4 MSTORE SWAP2 PUSH1 0x20 ADD SWAP2 PUSH2 0x449 JUMP JUMPDEST DUP3 ADD SWAP2 SWAP1 PUSH1 0x0 MSTORE PUSH1 0x20 PUSH1 0x0 KECCAK256 SWAP1 JUMPDEST DUP2 SLOAD DUP2 MSTORE SWAP1 PUSH1 0x1 ADD SWAP1 PUSH1 0x20 ADD DUP1 DUP4 GT PUSH2 0x42C JUMPI DUP3 SWAP1 SUB PUSH1 0x1F AND DUP3 ADD SWAP2 JUMPDEST POP POP POP POP POP SWAP1 DUP1 PUSH1 0x1 ADD SLOAD SWAP1 DUP1 PUSH1 0x2 ADD SLOAD SWAP1 DUP1 PUSH1 0x3 ADD SLOAD SWAP1 POP DUP5 JUMP JUMPDEST PUSH1 0x1 PUSH1 0x20 DUP2 DUP2 MSTORE PUSH1 0x0 SWAP4 DUP5 MSTORE PUSH1 0x40 DUP1 DUP6 KECCAK256 SWAP1 SWAP2 MSTORE SWAP2 DUP4 MSTORE SWAP2 KECCAK256 DUP1 SLOAD SWAP2 DUP2 ADD SLOAD PUSH1 0x2 DUP3 ADD SLOAD PUSH1 0x3 DUP4 ADD DUP1 SLOAD SWAP3 SWAP4 SWAP2 SWAP3 PUSH2 0x49C SWAP1 PUSH2 0xB7E JUMP JUMPDEST DUP1 PUSH1 0x1F ADD PUSH1 0x20 DUP1 SWAP2 DIV MUL PUSH1 0x20 ADD PUSH1 0x40 MLOAD SWAP1 DUP2 ADD PUSH1 0x40 MSTORE DUP1 SWAP3 SWAP2 SWAP1 DUP2 DUP2 MSTORE PUSH1 0x20 ADD DUP3 DUP1 SLOAD PUSH2 0x4C8 SWAP1 PUSH2 0xB7E JUMP JUMPDEST DUP1 ISZERO PUSH2 0x515 JUMPI DUP1 PUSH1 0x1F LT PUSH2 0x4EA JUMPI PUSH2 0x100 DUP1 DUP4 SLOAD DIV MUL DUP4 MSTORE SWAP2 PUSH1 0x20 ADD SWAP2 PUSH2 0x515 JUMP JUMPDEST DUP3 ADD SWAP2 SWAP1 PUSH1 0x0 MSTORE PUSH1 0x20 PUSH1 0x0 KECCAK256 SWAP1 JUMPDEST DUP2 SLOAD DUP2 MSTORE SWAP1 PUSH1 0x1 ADD SWAP1 PUSH1 0x20 ADD DUP1 DUP4 GT PUSH2 0x4F8 JUMPI DUP3 SWAP1 SUB PUSH1 0x1F AND DUP3 ADD SWAP2 JUMPDEST POP POP POP POP POP SWAP1 DUP1 PUSH1 0x4 ADD SLOAD SWAP1 POP DUP6 JUMP JUMPDEST PUSH1 0x40 DUP1 MLOAD PUSH1 0xA0 DUP2 ADD DUP3 MSTORE DUP6 DUP2 MSTORE PUSH1 0x20 DUP1 DUP3 ADD DUP7 DUP2 MSTORE DUP3 DUP5 ADD DUP7 DUP2 MSTORE PUSH1 0x60 DUP5 ADD DUP7 DUP2 MSTORE TIMESTAMP PUSH1 0x80 DUP7 ADD MSTORE PUSH1 0x0 DUP11 DUP2 MSTORE PUSH1 0x1 DUP1 DUP7 MSTORE DUP8 DUP3 KECCAK256 DUP12 DUP4 MSTORE SWAP1 SWAP6 MSTORE SWAP6 SWAP1 SWAP6 KECCAK256 DUP5 MLOAD DUP2 SSTORE SWAP2 MLOAD SWAP3 DUP3 ADD SWAP3 SWAP1 SWAP3 SSTORE SWAP1 MLOAD PUSH1 0x2 DUP3 ADD SSTORE SWAP2 MLOAD SWAP1 SWAP2 SWAP1 PUSH1 0x3 DUP3 ADD SWAP1 PUSH2 0x58C SWAP1 DUP3 PUSH2 0xC07 JUMP JUMPDEST POP PUSH1 0x80 SWAP2 SWAP1 SWAP2 ADD MLOAD PUSH1 0x4 SWAP1 SWAP2 ADD SSTORE PUSH1 0x0 DUP5 DUP2 MSTORE PUSH1 0x3 PUSH1 0x20 DUP2 SWAP1 MSTORE PUSH1 0x40 DUP3 KECCAK256 ADD DUP1 SLOAD DUP5 SWAP3 SWAP1 PUSH2 0x5BB SWAP1 DUP5 SWAP1 PUSH2 0xCF6 JUMP JUMPDEST SWAP1 SWAP2 SSTORE POP POP PUSH1 0x40 MLOAD DUP3 DUP2 MSTORE DUP4 SWAP1 DUP6 SWAP1 PUSH32 0x858C0FA9792787FC171F7C20FDE2CAFA0A1C55C1190B47350662132974DA2BF9 SWAP1 PUSH1 0x20 ADD PUSH1 0x40 MLOAD DUP1 SWAP2 SUB SWAP1 LOG3 POP POP POP POP JUMP JUMPDEST PUSH1 0x0 DUP3 DUP2 MSTORE PUSH1 0x2 PUSH1 0x20 MSTORE PUSH1 0x40 DUP1 DUP3 KECCAK256 SWAP1 MLOAD PUSH2 0x619 SWAP1 DUP5 SWAP1 PUSH2 0xB62 JUMP JUMPDEST SWAP1 DUP2 MSTORE PUSH1 0x20 ADD PUSH1 0x40 MLOAD DUP1 SWAP2 SUB SWAP1 KECCAK256 SWAP1 POP PUSH1 0x0 DUP1 JUMPDEST PUSH1 0x0 DUP6 DUP2 MSTORE PUSH1 0x4 PUSH1 0x20 MSTORE PUSH1 0x40 SWAP1 KECCAK256 SLOAD DUP2 LT ISZERO PUSH2 0x7A5 JUMPI PUSH1 0x0 DUP6 DUP2 MSTORE PUSH1 0x4 PUSH1 0x20 MSTORE PUSH1 0x40 DUP2 KECCAK256 DUP1 SLOAD DUP4 SWAP1 DUP2 LT PUSH2 0x663 JUMPI PUSH2 0x663 PUSH2 0xD0F JUMP JUMPDEST PUSH1 0x0 SWAP2 DUP3 MSTORE PUSH1 0x20 DUP1 DUP4 KECCAK256 SWAP1 SWAP2 ADD SLOAD DUP9 DUP4 MSTORE PUSH1 0x1 DUP3 MSTORE PUSH1 0x40 DUP1 DUP5 KECCAK256 DUP3 DUP6 MSTORE SWAP1 SWAP3 MSTORE SWAP2 KECCAK256 PUSH1 0x2 DUP2 ADD SLOAD SWAP2 SWAP3 POP SWAP1 PUSH1 0x32 LT ISZERO PUSH2 0x790 JUMPI PUSH1 0x0 DUP3 DUP2 MSTORE PUSH1 0x2 PUSH1 0x20 MSTORE PUSH1 0x40 DUP1 DUP3 KECCAK256 SWAP1 MLOAD PUSH2 0x6B2 SWAP1 DUP10 SWAP1 PUSH2 0xB62 JUMP JUMPDEST SWAP1 DUP2 MSTORE PUSH1 0x20 ADD PUSH1 0x40 MLOAD DUP1 SWAP2 SUB SWAP1 KECCAK256 SWAP1 POP PUSH1 0x0 DUP2 PUSH1 0x1 ADD SLOAD SWAP1 POP PUSH1 0x0 PUSH1 0x64 DUP5 PUSH1 0x2 ADD SLOAD DUP10 PUSH1 0x1 ADD SLOAD PUSH2 0x6E3 SWAP2 SWAP1 PUSH2 0xD25 JUMP JUMPDEST PUSH2 0x6ED SWAP2 SWAP1 PUSH2 0xD55 JUMP JUMPDEST SWAP1 POP PUSH1 0x2 DUP2 DUP5 PUSH1 0x1 ADD SLOAD PUSH2 0x701 SWAP2 SWAP1 PUSH2 0xD91 JUMP JUMPDEST PUSH2 0x70B SWAP2 SWAP1 PUSH2 0xD55 JUMP JUMPDEST PUSH1 0x1 DUP5 ADD DUP2 SWAP1 SSTORE PUSH1 0x64 SLT ISZERO PUSH2 0x722 JUMPI PUSH1 0x64 PUSH1 0x1 DUP5 ADD SSTORE JUMPDEST PUSH1 0x63 NOT DUP4 PUSH1 0x1 ADD SLOAD SLT ISZERO PUSH2 0x739 JUMPI PUSH1 0x63 NOT PUSH1 0x1 DUP5 ADD SSTORE JUMPDEST TIMESTAMP PUSH1 0x3 DUP5 ADD SSTORE DUP7 PUSH2 0x749 DUP2 PUSH2 0xCDD JUMP JUMPDEST SWAP8 POP POP DUP5 PUSH32 0xA8C163BE76E69AEE9BC9C3BB1A41D25432A0D4F61088B0222D621369A2079A0E DUP11 DUP5 DUP7 PUSH1 0x1 ADD SLOAD PUSH1 0x40 MLOAD PUSH2 0x784 SWAP4 SWAP3 SWAP2 SWAP1 PUSH2 0xDB9 JUMP JUMPDEST PUSH1 0x40 MLOAD DUP1 SWAP2 SUB SWAP1 LOG2 POP POP POP JUMPDEST POP POP DUP1 DUP1 PUSH2 0x79D SWAP1 PUSH2 0xCDD JUMP JUMPDEST SWAP2 POP POP PUSH2 0x62D JUMP JUMPDEST POP DUP4 PUSH32 0x8CCBC0A59FB3254468C1FD88FE580B78947E8C9E0B1C00B1EA0B050C4884E7D6 DUP5 DUP4 PUSH1 0x40 MLOAD PUSH2 0x7D8 SWAP3 SWAP2 SWAP1 PUSH2 0xDDE JUMP JUMPDEST PUSH1 0x40 MLOAD DUP1 SWAP2 SUB SWAP1 LOG2 POP POP POP POP JUMP JUMPDEST PUSH2 0x7EE PUSH2 0x829 JUMP JUMPDEST PUSH1 0x1 PUSH1 0x1 PUSH1 0xA0 SHL SUB DUP2 AND PUSH2 0x81D JUMPI PUSH1 0x40 MLOAD PUSH4 0x1E4FBDF7 PUSH1 0xE0 SHL DUP2 MSTORE PUSH1 0x0 PUSH1 0x4 DUP3 ADD MSTORE PUSH1 0x24 ADD JUMPDEST PUSH1 0x40 MLOAD DUP1 SWAP2 SUB SWAP1 REVERT JUMPDEST PUSH2 0x826 DUP2 PUSH2 0x856 JUMP JUMPDEST POP JUMP JUMPDEST PUSH1 0x0 SLOAD PUSH1 0x1 PUSH1 0x1 PUSH1 0xA0 SHL SUB AND CALLER EQ PUSH2 0x295 JUMPI PUSH1 0x40 MLOAD PUSH4 0x118CDAA7 PUSH1 0xE0 SHL DUP2 MSTORE CALLER PUSH1 0x4 DUP3 ADD MSTORE PUSH1 0x24 ADD PUSH2 0x814 JUMP JUMPDEST PUSH1 0x0 DUP1 SLOAD PUSH1 0x1 PUSH1 0x1 PUSH1 0xA0 SHL SUB DUP4 DUP2 AND PUSH1 0x1 PUSH1 0x1 PUSH1 0xA0 SHL SUB NOT DUP4 AND DUP2 OR DUP5 SSTORE PUSH1 0x40 MLOAD SWAP2 SWAP1 SWAP3 AND SWAP3 DUP4 SWAP2 PUSH32 0x8BE0079C531659141344CD1FD0A4F28419497F9722A3DAAFE3B4186F6B6457E0 SWAP2 SWAP1 LOG3 POP POP JUMP JUMPDEST PUSH1 0x0 DUP1 PUSH1 0x40 DUP4 DUP6 SUB SLT ISZERO PUSH2 0x8B9 JUMPI PUSH1 0x0 DUP1 REVERT JUMPDEST POP POP DUP1 CALLDATALOAD SWAP3 PUSH1 0x20 SWAP1 SWAP2 ADD CALLDATALOAD SWAP2 POP JUMP JUMPDEST PUSH4 0x4E487B71 PUSH1 0xE0 SHL PUSH1 0x0 MSTORE PUSH1 0x41 PUSH1 0x4 MSTORE PUSH1 0x24 PUSH1 0x0 REVERT JUMPDEST PUSH1 0x0 DUP3 PUSH1 0x1F DUP4 ADD SLT PUSH2 0x8EF JUMPI PUSH1 0x0 DUP1 REVERT JUMPDEST DUP2 CALLDATALOAD PUSH8 0xFFFFFFFFFFFFFFFF DUP1 DUP3 GT ISZERO PUSH2 0x90A JUMPI PUSH2 0x90A PUSH2 0x8C8 JUMP JUMPDEST PUSH1 0x40 MLOAD PUSH1 0x1F DUP4 ADD PUSH1 0x1F NOT SWAP1 DUP2 AND PUSH1 0x3F ADD AND DUP2 ADD SWAP1 DUP3 DUP3 GT DUP2 DUP4 LT OR ISZERO PUSH2 0x932 JUMPI PUSH2 0x932 PUSH2 0x8C8 JUMP JUMPDEST DUP2 PUSH1 0x40 MSTORE DUP4 DUP2 MSTORE DUP7 PUSH1 0x20 DUP6 DUP9 ADD ADD GT ISZERO PUSH2 0x94B JUMPI PUSH1 0x0 DUP1 REVERT JUMPDEST DUP4 PUSH1 0x20 DUP8 ADD PUSH1 0x20 DUP4 ADD CALLDATACOPY PUSH1 0x0 PUSH1 0x20 DUP6 DUP4 ADD ADD MSTORE DUP1 SWAP5 POP POP POP POP POP SWAP3 SWAP2 POP POP JUMP JUMPDEST PUSH1 0x0 DUP1 PUSH1 0x0 DUP1 PUSH1 0x80 DUP6 DUP8 SUB SLT ISZERO PUSH2 0x981 JUMPI PUSH1 0x0 DUP1 REVERT JUMPDEST DUP5 CALLDATALOAD SWAP4 POP PUSH1 0x20 DUP6 ADD CALLDATALOAD PUSH8 0xFFFFFFFFFFFFFFFF DUP2 GT ISZERO PUSH2 0x99F JUMPI PUSH1 0x0 DUP1 REVERT JUMPDEST PUSH2 0x9AB DUP8 DUP3 DUP9 ADD PUSH2 0x8DE JUMP JUMPDEST SWAP5 SWAP8 SWAP5 SWAP7 POP POP POP POP PUSH1 0x40 DUP4 ADD CALLDATALOAD SWAP3 PUSH1 0x60 ADD CALLDATALOAD SWAP2 SWAP1 POP JUMP JUMPDEST PUSH1 0x0 PUSH1 0x20 DUP3 DUP5 SUB SLT ISZERO PUSH2 0x9D4 JUMPI PUSH1 0x0 DUP1 REVERT JUMPDEST POP CALLDATALOAD SWAP2 SWAP1 POP JUMP JUMPDEST PUSH1 0x0 DUP1 PUSH1 0x40 DUP4 DUP6 SUB SLT ISZERO PUSH2 0x9EE JUMPI PUSH1 0x0 DUP1 REVERT JUMPDEST DUP3 CALLDATALOAD SWAP2 POP PUSH1 0x20 DUP4 ADD CALLDATALOAD PUSH8 0xFFFFFFFFFFFFFFFF DUP2 GT ISZERO PUSH2 0xA0C JUMPI PUSH1 0x0 DUP1 REVERT JUMPDEST PUSH2 0xA18 DUP6 DUP3 DUP7 ADD PUSH2 0x8DE JUMP JUMPDEST SWAP2 POP POP SWAP3 POP SWAP3 SWAP1 POP JUMP JUMPDEST PUSH1 0x0 JUMPDEST DUP4 DUP2 LT ISZERO PUSH2 0xA3D JUMPI DUP2 DUP2 ADD MLOAD DUP4 DUP3 ADD MSTORE PUSH1 0x20 ADD PUSH2 0xA25 JUMP JUMPDEST POP POP PUSH1 0x0 SWAP2 ADD MSTORE JUMP JUMPDEST PUSH1 0x0 DUP2 MLOAD DUP1 DUP5 MSTORE PUSH2 0xA5E DUP2 PUSH1 0x20 DUP7 ADD PUSH1 0x20 DUP7 ADD PUSH2 0xA22 JUMP JUMPDEST PUSH1 0x1F ADD PUSH1 0x1F NOT AND SWAP3 SWAP1 SWAP3 ADD PUSH1 0x20 ADD SWAP3 SWAP2 POP POP JUMP JUMPDEST PUSH1 0x80 DUP2 MSTORE PUSH1 0x0 PUSH2 0xA85 PUSH1 0x80 DUP4 ADD DUP8 PUSH2 0xA46 JUMP JUMPDEST PUSH1 0x20 DUP4 ADD SWAP6 SWAP1 SWAP6 MSTORE POP PUSH1 0x40 DUP2 ADD SWAP3 SWAP1 SWAP3 MSTORE PUSH1 0x60 SWAP1 SWAP2 ADD MSTORE SWAP2 SWAP1 POP JUMP JUMPDEST DUP6 DUP2 MSTORE DUP5 PUSH1 0x20 DUP3 ADD MSTORE DUP4 PUSH1 0x40 DUP3 ADD MSTORE PUSH1 0xA0 PUSH1 0x60 DUP3 ADD MSTORE PUSH1 0x0 PUSH2 0xAC6 PUSH1 0xA0 DUP4 ADD DUP6 PUSH2 0xA46 JUMP JUMPDEST SWAP1 POP DUP3 PUSH1 0x80 DUP4 ADD MSTORE SWAP7 SWAP6 POP POP POP POP POP POP JUMP JUMPDEST PUSH1 0x0 DUP1 PUSH1 0x0 DUP1 PUSH1 0x80 DUP6 DUP8 SUB SLT ISZERO PUSH2 0xAEE JUMPI PUSH1 0x0 DUP1 REVERT JUMPDEST DUP5 CALLDATALOAD SWAP4 POP PUSH1 0x20 DUP6 ADD CALLDATALOAD SWAP3 POP PUSH1 0x40 DUP6 ADD CALLDATALOAD SWAP2 POP PUSH1 0x60 DUP6 ADD CALLDATALOAD PUSH8 0xFFFFFFFFFFFFFFFF DUP2 GT ISZERO PUSH2 0xB1A JUMPI PUSH1 0x0 DUP1 REVERT JUMPDEST PUSH2 0xB26 DUP8 DUP3 DUP9 ADD PUSH2 0x8DE JUMP JUMPDEST SWAP2 POP POP SWAP3 SWAP6 SWAP2 SWAP5 POP SWAP3 POP JUMP JUMPDEST PUSH1 0x0 PUSH1 0x20 DUP3 DUP5 SUB SLT ISZERO PUSH2 0xB44 JUMPI PUSH1 0x0 DUP1 REVERT JUMPDEST DUP2 CALLDATALOAD PUSH1 0x1 PUSH1 0x1 PUSH1 0xA0 SHL SUB DUP2 AND DUP2 EQ PUSH2 0xB5B JUMPI PUSH1 0x0 DUP1 REVERT JUMPDEST SWAP4 SWAP3 POP POP POP JUMP JUMPDEST PUSH1 0x0 DUP3 MLOAD PUSH2 0xB74 DUP2 DUP5 PUSH1 0x20 DUP8 ADD PUSH2 0xA22 JUMP JUMPDEST SWAP2 SWAP1 SWAP2 ADD SWAP3 SWAP2 POP POP JUMP JUMPDEST PUSH1 0x1 DUP2 DUP2 SHR SWAP1 DUP3 AND DUP1 PUSH2 0xB92 JUMPI PUSH1 0x7F DUP3 AND SWAP2 POP JUMPDEST PUSH1 0x20 DUP3 LT DUP2 SUB PUSH2 0xBB2 JUMPI PUSH4 0x4E487B71 PUSH1 0xE0 SHL PUSH1 0x0 MSTORE PUSH1 0x22 PUSH1 0x4 MSTORE PUSH1 0x24 PUSH1 0x0 REVERT JUMPDEST POP SWAP2 SWAP1 POP JUMP JUMPDEST PUSH1 0x1F DUP3 GT ISZERO PUSH2 0xC02 JUMPI PUSH1 0x0 DUP2 DUP2 MSTORE PUSH1 0x20 DUP2 KECCAK256 PUSH1 0x1F DUP6 ADD PUSH1 0x5 SHR DUP2 ADD PUSH1 0x20 DUP7 LT ISZERO PUSH2 0xBDF JUMPI POP DUP1 JUMPDEST PUSH1 0x1F DUP6 ADD PUSH1 0x5 SHR DUP3 ADD SWAP2 POP JUMPDEST DUP2 DUP2 LT ISZERO PUSH2 0xBFE JUMPI DUP3 DUP2 SSTORE PUSH1 0x1 ADD PUSH2 0xBEB JUMP JUMPDEST POP POP POP JUMPDEST POP POP POP JUMP JUMPDEST DUP2 MLOAD PUSH8 0xFFFFFFFFFFFFFFFF DUP2 GT ISZERO PUSH2 0xC21 JUMPI PUSH2 0xC21 PUSH2 0x8C8 JUMP JUMPDEST PUSH2 0xC35 DUP2 PUSH2 0xC2F DUP5 SLOAD PUSH2 0xB7E JUMP JUMPDEST DUP5 PUSH2 0xBB8 JUMP JUMPDEST PUSH1 0x20 DUP1 PUSH1 0x1F DUP4 GT PUSH1 0x1 DUP2 EQ PUSH2 0xC6A JUMPI PUSH1 0x0 DUP5 ISZERO PUSH2 0xC52 JUMPI POP DUP6 DUP4 ADD MLOAD JUMPDEST PUSH1 0x0 NOT PUSH1 0x3 DUP7 SWAP1 SHL SHR NOT AND PUSH1 0x1 DUP6 SWAP1 SHL OR DUP6 SSTORE PUSH2 0xBFE JUMP JUMPDEST PUSH1 0x0 DUP6 DUP2 MSTORE PUSH1 0x20 DUP2 KECCAK256 PUSH1 0x1F NOT DUP7 AND SWAP2 JUMPDEST DUP3 DUP2 LT ISZERO PUSH2 0xC99 JUMPI DUP9 DUP7 ADD MLOAD DUP3 SSTORE SWAP5 DUP5 ADD SWAP5 PUSH1 0x1 SWAP1 SWAP2 ADD SWAP1 DUP5 ADD PUSH2 0xC7A JUMP JUMPDEST POP DUP6 DUP3 LT ISZERO PUSH2 0xCB7 JUMPI DUP8 DUP6 ADD MLOAD PUSH1 0x0 NOT PUSH1 0x3 DUP9 SWAP1 SHL PUSH1 0xF8 AND SHR NOT AND DUP2 SSTORE JUMPDEST POP POP POP POP POP PUSH1 0x1 SWAP1 DUP2 SHL ADD SWAP1 SSTORE POP JUMP JUMPDEST PUSH4 0x4E487B71 PUSH1 0xE0 SHL PUSH1 0x0 MSTORE PUSH1 0x11 PUSH1 0x4 MSTORE PUSH1 0x24 PUSH1 0x0 REVERT JUMPDEST PUSH1 0x0 PUSH1 0x1 DUP3 ADD PUSH2 0xCEF JUMPI PUSH2 0xCEF PUSH2 0xCC7 JUMP JUMPDEST POP PUSH1 0x1 ADD SWAP1 JUMP JUMPDEST DUP1 DUP3 ADD DUP1 DUP3 GT ISZERO PUSH2 0xD09 JUMPI PUSH2 0xD09 PUSH2 0xCC7 JUMP JUMPDEST SWAP3 SWAP2 POP POP JUMP JUMPDEST PUSH4 0x4E487B71 PUSH1 0xE0 SHL PUSH1 0x0 MSTORE PUSH1 0x32 PUSH1 0x4 MSTORE PUSH1 0x24 PUSH1 0x0 REVERT JUMPDEST DUP1 DUP3 MUL PUSH1 0x0 DUP3 SLT PUSH1 0x1 PUSH1 0xFF SHL DUP5 EQ AND ISZERO PUSH2 0xD41 JUMPI PUSH2 0xD41 PUSH2 0xCC7 JUMP JUMPDEST DUP2 DUP2 SDIV DUP4 EQ DUP3 ISZERO OR PUSH2 0xD09 JUMPI PUSH2 0xD09 PUSH2 0xCC7 JUMP JUMPDEST PUSH1 0x0 DUP3 PUSH2 0xD72 JUMPI PUSH4 0x4E487B71 PUSH1 0xE0 SHL PUSH1 0x0 MSTORE PUSH1 0x12 PUSH1 0x4 MSTORE PUSH1 0x24 PUSH1 0x0 REVERT JUMPDEST PUSH1 0x1 PUSH1 0xFF SHL DUP3 EQ PUSH1 0x0 NOT DUP5 EQ AND ISZERO PUSH2 0xD8C JUMPI PUSH2 0xD8C PUSH2 0xCC7 JUMP JUMPDEST POP SDIV SWAP1 JUMP JUMPDEST DUP1 DUP3 ADD DUP3 DUP2 SLT PUSH1 0x0 DUP4 SLT DUP1 ISZERO DUP3 AND DUP3 ISZERO DUP3 AND OR ISZERO PUSH2 0xDB1 JUMPI PUSH2 0xDB1 PUSH2 0xCC7 JUMP JUMPDEST POP POP SWAP3 SWAP2 POP POP JUMP JUMPDEST PUSH1 0x60 DUP2 MSTORE PUSH1 0x0 PUSH2 0xDCC PUSH1 0x60 DUP4 ADD DUP7 PUSH2 0xA46 JUMP JUMPDEST PUSH1 0x20 DUP4 ADD SWAP5 SWAP1 SWAP5 MSTORE POP PUSH1 0x40 ADD MSTORE SWAP2 SWAP1 POP JUMP JUMPDEST PUSH1 0x40 DUP2 MSTORE PUSH1 0x0 PUSH2 0xDF1 PUSH1 0x40 DUP4 ADD DUP6 PUSH2 0xA46 JUMP JUMPDEST SWAP1 POP DUP3 PUSH1 0x20 DUP4 ADD MSTORE SWAP4 SWAP3 POP POP POP JUMP INVALID LOG2 PUSH5 0x6970667358 0x22 SLT KECCAK256 0x4B 0xD6 0xD5 PUSH6 0xD7C5D748FC99 SWAP10 PUSH16 0x5D233E9F5DCCCD6AC8A5A6BFE3A6C2E6 0xFB PUSH6 0x708064736F6C PUSH4 0x43000814 STOP CALLER "},"methodIdentifiers":{"follow(uint256,uint256)":"821defc2","followers(uint256,uint256)":"72bd81d7","following(uint256,uint256)":"053acf85","getInfluenceScore(uint256)":"8518cfff","influences(uint256,uint256)":"8f182525","networkEffects(uint256)":"8b786975","opinions(uint256,string)":"89d3b30b","owner()":"8da5cb5b","propagateOpinion(uint256,string)":"eb464a40","recordInfluence(uint256,uint256,uint256,string)":"da105857","renounceOwnership()":"715018a6","setOpinion(uint256,string,int256,uint256)":"79a0fa3f","transferOwnership(address)":"f2fde38b"}}}}}