{"contracts/layer3/identity/CognitiveFingerprint.sol":{"CognitiveFingerprint":{"abi":[{"inputs":[],"stateMutability":"nonpayable","type":"constructor"},{"inputs":[{"internalType":"address","name":"owner","type":"address"}],"name":"OwnableInvalidOwner","type":"error"},{"inputs":[{"internalType":"address","name":"account","type":"address"}],"name":"OwnableUnauthorizedAccount","type":"error"},{"anonymous":false,"inputs":[{"indexed":true,"internalType":"uint256","name":"identityId","type":"uint256"},{"indexed":false,"internalType":"bytes32","name":"fingerprintHash","type":"bytes32"}],"name":"FingerprintGenerated","type":"event"},{"anonymous":false,"inputs":[{"indexed":true,"internalType":"uint256","name":"identityId","type":"uint256"},{"indexed":false,"internalType":"bytes32","name":"newHash","type":"bytes32"}],"name":"FingerprintUpdated","type":"event"},{"anonymous":false,"inputs":[{"indexed":true,"internalType":"address","name":"previousOwner","type":"address"},{"indexed":true,"internalType":"address","name":"newOwner","type":"address"}],"name":"OwnershipTransferred","type":"event"},{"inputs":[{"internalType":"uint256","name":"id1","type":"uint256"},{"internalType":"uint256","name":"id2","type":"uint256"}],"name":"compareFingerprints","outputs":[{"internalType":"uint256","name":"","type":"uint256"}],"stateMutability":"view","type":"function"},{"inputs":[{"internalType":"uint256","name":"","type":"uint256"}],"name":"fingerprints","outputs":[{"internalType":"uint256","name":"identityId","type":"uint256"},{"internalType":"bytes32","name":"fingerprintHash","type":"bytes32"},{"internalType":"uint256","name":"problemSolvingStyle","type":"uint256"},{"internalType":"uint256","name":"learningSpeed","type":"uint256"},{"internalType":"uint256","name":"adaptationRate","type":"uint256"},{"internalType":"uint256","name":"memoryRetention","type":"uint256"},{"internalType":"uint256","name":"patternRecognition","type":"uint256"},{"internalType":"uint256","name":"creativeThinking","type":"uint256"},{"internalType":"uint256","name":"logicalReasoning","type":"uint256"},{"internalType":"uint256","name":"lastUpdated","type":"uint256"}],"stateMutability":"view","type":"function"},{"inputs":[{"internalType":"uint256","name":"identityId","type":"uint256"},{"internalType":"uint256","name":"problemSolving","type":"uint256"},{"internalType":"uint256","name":"learning","type":"uint256"},{"internalType":"uint256","name":"adaptation","type":"uint256"},{"internalType":"uint256","name":"memoryRetention","type":"uint256"},{"internalType":"uint256","name":"pattern","type":"uint256"},{"internalType":"uint256","name":"creative","type":"uint256"},{"internalType":"uint256","name":"logical","type":"uint256"}],"name":"generateFingerprint","outputs":[{"internalType":"bytes32","name":"","type":"bytes32"}],"stateMutability":"nonpayable","type":"function"},{"inputs":[{"internalType":"uint256","name":"identityId","type":"uint256"}],"name":"getFingerprint","outputs":[{"components":[{"internalType":"uint256","name":"identityId","type":"uint256"},{"internalType":"bytes32","name":"fingerprintHash","type":"bytes32"},{"internalType":"uint256","name":"problemSolvingStyle","type":"uint256"},{"internalType":"uint256","name":"learningSpeed","type":"uint256"},{"internalType":"uint256","name":"adaptationRate","type":"uint256"},{"internalType":"uint256","name":"memoryRetention","type":"uint256"},{"internalType":"uint256","name":"patternRecognition","type":"uint256"},{"internalType":"uint256","name":"creativeThinking","type":"uint256"},{"internalType":"uint256","name":"logicalReasoning","type":"uint256"},{"internalType":"uint256","name":"lastUpdated","type":"uint256"}],"internalType":"struct CognitiveFingerprint.Fingerprint","name":"","type":"tuple"}],"stateMutability":"view","type":"function"},{"inputs":[{"internalType":"bytes32","name":"","type":"bytes32"}],"name":"hashToIdentity","outputs":[{"internalType":"uint256","name":"","type":"uint256"}],"stateMutability":"view","type":"function"},{"inputs":[{"internalType":"uint256","name":"","type":"uint256"}],"name":"identityOwner","outputs":[{"internalType":"address","name":"","type":"address"}],"stateMutability":"view","type":"function"},{"inputs":[],"name":"owner","outputs":[{"internalType":"address","name":"","type":"address"}],"stateMutability":"view","type":"function"},{"inputs":[],"name":"renounceOwnership","outputs":[],"stateMutability":"nonpayable","type":"function"},{"inputs":[{"internalType":"address","name":"newOwner","type":"address"}],"name":"transferOwnership","outputs":[],"stateMutability":"nonpayable","type":"function"}],"evm":{"bytecode":{"linkReferences":{},"object":"608060405234801561001057600080fd5b50338061003757604051631e4fbdf760e01b81526000600482015260240160405180910390fd5b61004081610046565b50610096565b600080546001600160a01b038381166001600160a01b0319831681178455604051919092169283917f8be0079c531659141344cd1fd0a4f28419497f9722a3daafe3b4186f6b6457e09190a35050565b6108c0806100a56000396000f3fe608060405234801561001057600080fd5b50600436106100935760003560e01c8063715018a611610066578063715018a6146102485780638da5cb5b146102525780639b34fab714610263578063b5e388e714610276578063f2fde38b1461028957600080fd5b8063159a6475146100985780631fc73c691461012d5780633d3848701461015b57806344e051571461019c575b600080fd5b6100ab6100a636600461075c565b61029c565b6040516101249190600061014082019050825182526020830151602083015260408301516040830152606083015160608301526080830151608083015260a083015160a083015260c083015160c083015260e083015160e083015261010080840151818401525061012080840151818401525092915050565b60405180910390f35b61014d61013b36600461075c565b60026020526000908152604090205481565b604051908152602001610124565b61018461016936600461075c565b6003602052600090815260409020546001600160a01b031681565b6040516001600160a01b039091168152602001610124565b6101fe6101aa36600461075c565b6001602052806000526040600020600091509050806000015490806001015490806002015490806003015490806004015490806005015490806006015490806007015490806008015490806009015490508a565b604080519a8b5260208b0199909952978901969096526060880194909452608087019290925260a086015260c085015260e084015261010083015261012082015261014001610124565b610250610378565b005b6000546001600160a01b0316610184565b61014d610271366004610775565b61038c565b61014d610284366004610797565b610442565b6102506102973660046107ec565b610678565b6102f5604051806101400160405280600081526020016000801916815260200160008152602001600081526020016000815260200160008152602001600081526020016000815260200160008152602001600081525090565b506000908152600160208181526040928390208351610140810185528154815292810154918301919091526002810154928201929092526003820154606082015260048201546080820152600582015460a0820152600682015460c0820152600782015460e0820152600882015461010082015260099091015461012082015290565b6103806106b6565b61038a60006106e3565b565b6000828152600160205260408082208383529082206002808301549082015484916103b691610733565b6103c0908261082b565b90506103d483600301548360030154610733565b6103de908261082b565b90506103f283600401548360040154610733565b6103fc908261082b565b905061012c8110610413576000935050505061043c565b61012c61042182606461083e565b61042b9190610855565b610436906064610877565b93505050505b92915050565b6000888152600360205260408120546001600160a01b0316156104ac5760405162461bcd60e51b815260206004820152601860248201527f4964656e7469747920616c726561647920636c61696d6564000000000000000060448201526064015b60405180910390fd5b6040516bffffffffffffffffffffffff193360601b166020820152603481018a905260548101899052607481018890526094810187905260b4810186905260d4810185905260f481018490526101148101839052600090610134016040516020818303038152906040528051906020012090506040518061014001604052808b81526020018281526020018a815260200189815260200188815260200187815260200186815260200185815260200184815260200142815250600160008c8152602001908152602001600020600082015181600001556020820151816001015560408201518160020155606082015181600301556080820151816004015560a0820151816005015560c0820151816006015560e082015181600701556101008201518160080155610120820151816009015590505033600360008c815260200190815260200160002060006101000a8154816001600160a01b0302191690836001600160a01b03160217905550896002600083815260200190815260200160002081905550897f1b2a6b7c68353a4089378da89a7351d25e1ee5bffdd77116a2250fb5e91a7b568260405161066391815260200190565b60405180910390a29998505050505050505050565b6106806106b6565b6001600160a01b0381166106aa57604051631e4fbdf760e01b8152600060048201526024016104a3565b6106b3816106e3565b50565b6000546001600160a01b0316331461038a5760405163118cdaa760e01b81523360048201526024016104a3565b600080546001600160a01b038381166001600160a01b0319831681178455604051919092169283917f8be0079c531659141344cd1fd0a4f28419497f9722a3daafe3b4186f6b6457e09190a35050565b600081831161074b576107468383610877565b610755565b6107558284610877565b9392505050565b60006020828403121561076e57600080fd5b5035919050565b6000806040838503121561078857600080fd5b50508035926020909101359150565b600080600080600080600080610100898b0312156107b457600080fd5b505086359860208801359850604088013597606081013597506080810135965060a0810135955060c0810135945060e0013592509050565b6000602082840312156107fe57600080fd5b81356001600160a01b038116811461075557600080fd5b634e487b7160e01b600052601160045260246000fd5b8082018082111561043c5761043c610815565b808202811582820484141761043c5761043c610815565b60008261087257634e487b7160e01b600052601260045260246000fd5b500490565b8181038181111561043c5761043c61081556fea2646970667358221220f81cbc4a22790066b97261636cab59463fba6037bcfe1fe0e8449c5a26a40efe64736f6c63430008140033","opcodes":"PUSH1 0x80 PUSH1 0x40 MSTORE CALLVALUE DUP1 ISZERO PUSH2 0x10 JUMPI PUSH1 0x0 DUP1 REVERT JUMPDEST POP CALLER DUP1 PUSH2 0x37 JUMPI PUSH1 0x40 MLOAD PUSH4 0x1E4FBDF7 PUSH1 0xE0 SHL DUP2 MSTORE PUSH1 0x0 PUSH1 0x4 DUP3 ADD MSTORE PUSH1 0x24 ADD PUSH1 0x40 MLOAD DUP1 SWAP2 SUB SWAP1 REVERT JUMPDEST PUSH2 0x40 DUP2 PUSH2 0x46 JUMP JUMPDEST POP PUSH2 0x96 JUMP JUMPDEST PUSH1 0x0 DUP1 SLOAD PUSH1 0x1 PUSH1 0x1 PUSH1 0xA0 SHL SUB DUP4 DUP2 AND PUSH1 0x1 PUSH1 0x1 PUSH1 0xA0 SHL SUB NOT DUP4 AND DUP2 OR DUP5 SSTORE PUSH1 0x40 MLOAD SWAP2 SWAP1 SWAP3 AND SWAP3 DUP4 SWAP2 PUSH32 0x8BE0079C531659141344CD1FD0A4F28419497F9722A3DAAFE3B4186F6B6457E0 SWAP2 SWAP1 LOG3 POP POP JUMP JUMPDEST PUSH2 0x8C0 DUP1 PUSH2 0xA5 PUSH1 0x0 CODECOPY PUSH1 0x0 RETURN INVALID PUSH1 0x80 PUSH1 0x40 MSTORE CALLVALUE DUP1 ISZERO PUSH2 0x10 JUMPI PUSH1 0x0 DUP1 REVERT JUMPDEST POP PUSH1 0x4 CALLDATASIZE LT PUSH2 0x93 JUMPI PUSH1 0x0 CALLDATALOAD PUSH1 0xE0 SHR DUP1 PUSH4 0x715018A6 GT PUSH2 0x66 JUMPI DUP1 PUSH4 0x715018A6 EQ PUSH2 0x248 JUMPI DUP1 PUSH4 0x8DA5CB5B EQ PUSH2 0x252 JUMPI DUP1 PUSH4 0x9B34FAB7 EQ PUSH2 0x263 JUMPI DUP1 PUSH4 0xB5E388E7 EQ PUSH2 0x276 JUMPI DUP1 PUSH4 0xF2FDE38B EQ PUSH2 0x289 JUMPI PUSH1 0x0 DUP1 REVERT JUMPDEST DUP1 PUSH4 0x159A6475 EQ PUSH2 0x98 JUMPI DUP1 PUSH4 0x1FC73C69 EQ PUSH2 0x12D JUMPI DUP1 PUSH4 0x3D384870 EQ PUSH2 0x15B JUMPI DUP1 PUSH4 0x44E05157 EQ PUSH2 0x19C JUMPI JUMPDEST PUSH1 0x0 DUP1 REVERT JUMPDEST PUSH2 0xAB PUSH2 0xA6 CALLDATASIZE PUSH1 0x4 PUSH2 0x75C JUMP JUMPDEST PUSH2 0x29C JUMP JUMPDEST PUSH1 0x40 MLOAD PUSH2 0x124 SWAP2 SWAP1 PUSH1 0x0 PUSH2 0x140 DUP3 ADD SWAP1 POP DUP3 MLOAD DUP3 MSTORE PUSH1 0x20 DUP4 ADD MLOAD PUSH1 0x20 DUP4 ADD MSTORE PUSH1 0x40 DUP4 ADD MLOAD PUSH1 0x40 DUP4 ADD MSTORE PUSH1 0x60 DUP4 ADD MLOAD PUSH1 0x60 DUP4 ADD MSTORE PUSH1 0x80 DUP4 ADD MLOAD PUSH1 0x80 DUP4 ADD MSTORE PUSH1 0xA0 DUP4 ADD MLOAD PUSH1 0xA0 DUP4 ADD MSTORE PUSH1 0xC0 DUP4 ADD MLOAD PUSH1 0xC0 DUP4 ADD MSTORE PUSH1 0xE0 DUP4 ADD MLOAD PUSH1 0xE0 DUP4 ADD MSTORE PUSH2 0x100 DUP1 DUP5 ADD MLOAD DUP2 DUP5 ADD MSTORE POP PUSH2 0x120 DUP1 DUP5 ADD MLOAD DUP2 DUP5 ADD MSTORE POP SWAP3 SWAP2 POP POP JUMP JUMPDEST PUSH1 0x40 MLOAD DUP1 SWAP2 SUB SWAP1 RETURN JUMPDEST PUSH2 0x14D PUSH2 0x13B CALLDATASIZE PUSH1 0x4 PUSH2 0x75C JUMP JUMPDEST PUSH1 0x2 PUSH1 0x20 MSTORE PUSH1 0x0 SWAP1 DUP2 MSTORE PUSH1 0x40 SWAP1 KECCAK256 SLOAD DUP2 JUMP JUMPDEST PUSH1 0x40 MLOAD SWAP1 DUP2 MSTORE PUSH1 0x20 ADD PUSH2 0x124 JUMP JUMPDEST PUSH2 0x184 PUSH2 0x169 CALLDATASIZE PUSH1 0x4 PUSH2 0x75C JUMP JUMPDEST PUSH1 0x3 PUSH1 0x20 MSTORE PUSH1 0x0 SWAP1 DUP2 MSTORE PUSH1 0x40 SWAP1 KECCAK256 SLOAD PUSH1 0x1 PUSH1 0x1 PUSH1 0xA0 SHL SUB AND DUP2 JUMP JUMPDEST PUSH1 0x40 MLOAD PUSH1 0x1 PUSH1 0x1 PUSH1 0xA0 SHL SUB SWAP1 SWAP2 AND DUP2 MSTORE PUSH1 0x20 ADD PUSH2 0x124 JUMP JUMPDEST PUSH2 0x1FE PUSH2 0x1AA CALLDATASIZE PUSH1 0x4 PUSH2 0x75C JUMP JUMPDEST PUSH1 0x1 PUSH1 0x20 MSTORE DUP1 PUSH1 0x0 MSTORE PUSH1 0x40 PUSH1 0x0 KECCAK256 PUSH1 0x0 SWAP2 POP SWAP1 POP DUP1 PUSH1 0x0 ADD SLOAD SWAP1 DUP1 PUSH1 0x1 ADD SLOAD SWAP1 DUP1 PUSH1 0x2 ADD SLOAD SWAP1 DUP1 PUSH1 0x3 ADD SLOAD SWAP1 DUP1 PUSH1 0x4 ADD SLOAD SWAP1 DUP1 PUSH1 0x5 ADD SLOAD SWAP1 DUP1 PUSH1 0x6 ADD SLOAD SWAP1 DUP1 PUSH1 0x7 ADD SLOAD SWAP1 DUP1 PUSH1 0x8 ADD SLOAD SWAP1 DUP1 PUSH1 0x9 ADD SLOAD SWAP1 POP DUP11 JUMP JUMPDEST PUSH1 0x40 DUP1 MLOAD SWAP11 DUP12 MSTORE PUSH1 0x20 DUP12 ADD SWAP10 SWAP1 SWAP10 MSTORE SWAP8 DUP10 ADD SWAP7 SWAP1 SWAP7 MSTORE PUSH1 0x60 DUP9 ADD SWAP5 SWAP1 SWAP5 MSTORE PUSH1 0x80 DUP8 ADD SWAP3 SWAP1 SWAP3 MSTORE PUSH1 0xA0 DUP7 ADD MSTORE PUSH1 0xC0 DUP6 ADD MSTORE PUSH1 0xE0 DUP5 ADD MSTORE PUSH2 0x100 DUP4 ADD MSTORE PUSH2 0x120 DUP3 ADD MSTORE PUSH2 0x140 ADD PUSH2 0x124 JUMP JUMPDEST PUSH2 0x250 PUSH2 0x378 JUMP JUMPDEST STOP JUMPDEST PUSH1 0x0 SLOAD PUSH1 0x1 PUSH1 0x1 PUSH1 0xA0 SHL SUB AND PUSH2 0x184 JUMP JUMPDEST PUSH2 0x14D PUSH2 0x271 CALLDATASIZE PUSH1 0x4 PUSH2 0x775 JUMP JUMPDEST PUSH2 0x38C JUMP JUMPDEST PUSH2 0x14D PUSH2 0x284 CALLDATASIZE PUSH1 0x4 PUSH2 0x797 JUMP JUMPDEST PUSH2 0x442 JUMP JUMPDEST PUSH2 0x250 PUSH2 0x297 CALLDATASIZE PUSH1 0x4 PUSH2 0x7EC JUMP JUMPDEST PUSH2 0x678 JUMP JUMPDEST PUSH2 0x2F5 PUSH1 0x40 MLOAD DUP1 PUSH2 0x140 ADD PUSH1 0x40 MSTORE DUP1 PUSH1 0x0 DUP2 MSTORE PUSH1 0x20 ADD PUSH1 0x0 DUP1 NOT AND DUP2 MSTORE PUSH1 0x20 ADD PUSH1 0x0 DUP2 MSTORE PUSH1 0x20 ADD PUSH1 0x0 DUP2 MSTORE PUSH1 0x20 ADD PUSH1 0x0 DUP2 MSTORE PUSH1 0x20 ADD PUSH1 0x0 DUP2 MSTORE PUSH1 0x20 ADD PUSH1 0x0 DUP2 MSTORE PUSH1 0x20 ADD PUSH1 0x0 DUP2 MSTORE PUSH1 0x20 ADD PUSH1 0x0 DUP2 MSTORE PUSH1 0x20 ADD PUSH1 0x0 DUP2 MSTORE POP SWAP1 JUMP JUMPDEST POP PUSH1 0x0 SWAP1 DUP2 MSTORE PUSH1 0x1 PUSH1 0x20 DUP2 DUP2 MSTORE PUSH1 0x40 SWAP3 DUP4 SWAP1 KECCAK256 DUP4 MLOAD PUSH2 0x140 DUP2 ADD DUP6 MSTORE DUP2 SLOAD DUP2 MSTORE SWAP3 DUP2 ADD SLOAD SWAP2 DUP4 ADD SWAP2 SWAP1 SWAP2 MSTORE PUSH1 0x2 DUP2 ADD SLOAD SWAP3 DUP3 ADD SWAP3 SWAP1 SWAP3 MSTORE PUSH1 0x3 DUP3 ADD SLOAD PUSH1 0x60 DUP3 ADD MSTORE PUSH1 0x4 DUP3 ADD SLOAD PUSH1 0x80 DUP3 ADD MSTORE PUSH1 0x5 DUP3 ADD SLOAD PUSH1 0xA0 DUP3 ADD MSTORE PUSH1 0x6 DUP3 ADD SLOAD PUSH1 0xC0 DUP3 ADD MSTORE PUSH1 0x7 DUP3 ADD SLOAD PUSH1 0xE0 DUP3 ADD MSTORE PUSH1 0x8 DUP3 ADD SLOAD PUSH2 0x100 DUP3 ADD MSTORE PUSH1 0x9 SWAP1 SWAP2 ADD SLOAD PUSH2 0x120 DUP3 ADD MSTORE SWAP1 JUMP JUMPDEST PUSH2 0x380 PUSH2 0x6B6 JUMP JUMPDEST PUSH2 0x38A PUSH1 0x0 PUSH2 0x6E3 JUMP JUMPDEST JUMP JUMPDEST PUSH1 0x0 DUP3 DUP2 MSTORE PUSH1 0x1 PUSH1 0x20 MSTORE PUSH1 0x40 DUP1 DUP3 KECCAK256 DUP4 DUP4 MSTORE SWAP1 DUP3 KECCAK256 PUSH1 0x2 DUP1 DUP4 ADD SLOAD SWAP1 DUP3 ADD SLOAD DUP5 SWAP2 PUSH2 0x3B6 SWAP2 PUSH2 0x733 JUMP JUMPDEST PUSH2 0x3C0 SWAP1 DUP3 PUSH2 0x82B JUMP JUMPDEST SWAP1 POP PUSH2 0x3D4 DUP4 PUSH1 0x3 ADD SLOAD DUP4 PUSH1 0x3 ADD SLOAD PUSH2 0x733 JUMP JUMPDEST PUSH2 0x3DE SWAP1 DUP3 PUSH2 0x82B JUMP JUMPDEST SWAP1 POP PUSH2 0x3F2 DUP4 PUSH1 0x4 ADD SLOAD DUP4 PUSH1 0x4 ADD SLOAD PUSH2 0x733 JUMP JUMPDEST PUSH2 0x3FC SWAP1 DUP3 PUSH2 0x82B JUMP JUMPDEST SWAP1 POP PUSH2 0x12C DUP2 LT PUSH2 0x413 JUMPI PUSH1 0x0 SWAP4 POP POP POP POP PUSH2 0x43C JUMP JUMPDEST PUSH2 0x12C PUSH2 0x421 DUP3 PUSH1 0x64 PUSH2 0x83E JUMP JUMPDEST PUSH2 0x42B SWAP2 SWAP1 PUSH2 0x855 JUMP JUMPDEST PUSH2 0x436 SWAP1 PUSH1 0x64 PUSH2 0x877 JUMP JUMPDEST SWAP4 POP POP POP POP JUMPDEST SWAP3 SWAP2 POP POP JUMP JUMPDEST PUSH1 0x0 DUP9 DUP2 MSTORE PUSH1 0x3 PUSH1 0x20 MSTORE PUSH1 0x40 DUP2 KECCAK256 SLOAD PUSH1 0x1 PUSH1 0x1 PUSH1 0xA0 SHL SUB AND ISZERO PUSH2 0x4AC JUMPI PUSH1 0x40 MLOAD PUSH3 0x461BCD PUSH1 0xE5 SHL DUP2 MSTORE PUSH1 0x20 PUSH1 0x4 DUP3 ADD MSTORE PUSH1 0x18 PUSH1 0x24 DUP3 ADD MSTORE PUSH32 0x4964656E7469747920616C726561647920636C61696D65640000000000000000 PUSH1 0x44 DUP3 ADD MSTORE PUSH1 0x64 ADD JUMPDEST PUSH1 0x40 MLOAD DUP1 SWAP2 SUB SWAP1 REVERT JUMPDEST PUSH1 0x40 MLOAD PUSH12 0xFFFFFFFFFFFFFFFFFFFFFFFF NOT CALLER PUSH1 0x60 SHL AND PUSH1 0x20 DUP3 ADD MSTORE PUSH1 0x34 DUP2 ADD DUP11 SWAP1 MSTORE PUSH1 0x54 DUP2 ADD DUP10 SWAP1 MSTORE PUSH1 0x74 DUP2 ADD DUP9 SWAP1 MSTORE PUSH1 0x94 DUP2 ADD DUP8 SWAP1 MSTORE PUSH1 0xB4 DUP2 ADD DUP7 SWAP1 MSTORE PUSH1 0xD4 DUP2 ADD DUP6 SWAP1 MSTORE PUSH1 0xF4 DUP2 ADD DUP5 SWAP1 MSTORE PUSH2 0x114 DUP2 ADD DUP4 SWAP1 MSTORE PUSH1 0x0 SWAP1 PUSH2 0x134 ADD PUSH1 0x40 MLOAD PUSH1 0x20 DUP2 DUP4 SUB SUB DUP2 MSTORE SWAP1 PUSH1 0x40 MSTORE DUP1 MLOAD SWAP1 PUSH1 0x20 ADD KECCAK256 SWAP1 POP PUSH1 0x40 MLOAD DUP1 PUSH2 0x140 ADD PUSH1 0x40 MSTORE DUP1 DUP12 DUP2 MSTORE PUSH1 0x20 ADD DUP3 DUP2 MSTORE PUSH1 0x20 ADD DUP11 DUP2 MSTORE PUSH1 0x20 ADD DUP10 DUP2 MSTORE PUSH1 0x20 ADD DUP9 DUP2 MSTORE PUSH1 0x20 ADD DUP8 DUP2 MSTORE PUSH1 0x20 ADD DUP7 DUP2 MSTORE PUSH1 0x20 ADD DUP6 DUP2 MSTORE PUSH1 0x20 ADD DUP5 DUP2 MSTORE PUSH1 0x20 ADD TIMESTAMP DUP2 MSTORE POP PUSH1 0x1 PUSH1 0x0 DUP13 DUP2 MSTORE PUSH1 0x20 ADD SWAP1 DUP2 MSTORE PUSH1 0x20 ADD PUSH1 0x0 KECCAK256 PUSH1 0x0 DUP3 ADD MLOAD DUP2 PUSH1 0x0 ADD SSTORE PUSH1 0x20 DUP3 ADD MLOAD DUP2 PUSH1 0x1 ADD SSTORE PUSH1 0x40 DUP3 ADD MLOAD DUP2 PUSH1 0x2 ADD SSTORE PUSH1 0x60 DUP3 ADD MLOAD DUP2 PUSH1 0x3 ADD SSTORE PUSH1 0x80 DUP3 ADD MLOAD DUP2 PUSH1 0x4 ADD SSTORE PUSH1 0xA0 DUP3 ADD MLOAD DUP2 PUSH1 0x5 ADD SSTORE PUSH1 0xC0 DUP3 ADD MLOAD DUP2 PUSH1 0x6 ADD SSTORE PUSH1 0xE0 DUP3 ADD MLOAD DUP2 PUSH1 0x7 ADD SSTORE PUSH2 0x100 DUP3 ADD MLOAD DUP2 PUSH1 0x8 ADD SSTORE PUSH2 0x120 DUP3 ADD MLOAD DUP2 PUSH1 0x9 ADD SSTORE SWAP1 POP POP CALLER PUSH1 0x3 PUSH1 0x0 DUP13 DUP2 MSTORE PUSH1 0x20 ADD SWAP1 DUP2 MSTORE PUSH1 0x20 ADD PUSH1 0x0 KECCAK256 PUSH1 0x0 PUSH2 0x100 EXP DUP2 SLOAD DUP2 PUSH1 0x1 PUSH1 0x1 PUSH1 0xA0 SHL SUB MUL NOT AND SWAP1 DUP4 PUSH1 0x1 PUSH1 0x1 PUSH1 0xA0 SHL SUB AND MUL OR SWAP1 SSTORE POP DUP10 PUSH1 0x2 PUSH1 0x0 DUP4 DUP2 MSTORE PUSH1 0x20 ADD SWAP1 DUP2 MSTORE PUSH1 0x20 ADD PUSH1 0x0 KECCAK256 DUP2 SWAP1 SSTORE POP DUP10 PUSH32 0x1B2A6B7C68353A4089378DA89A7351D25E1EE5BFFDD77116A2250FB5E91A7B56 DUP3 PUSH1 0x40 MLOAD PUSH2 0x663 SWAP2 DUP2 MSTORE PUSH1 0x20 ADD SWAP1 JUMP JUMPDEST PUSH1 0x40 MLOAD DUP1 SWAP2 SUB SWAP1 LOG2 SWAP10 SWAP9 POP POP POP POP POP POP POP POP POP JUMP JUMPDEST PUSH2 0x680 PUSH2 0x6B6 JUMP JUMPDEST PUSH1 0x1 PUSH1 0x1 PUSH1 0xA0 SHL SUB DUP2 AND PUSH2 0x6AA JUMPI PUSH1 0x40 MLOAD PUSH4 0x1E4FBDF7 PUSH1 0xE0 SHL DUP2 MSTORE PUSH1 0x0 PUSH1 0x4 DUP3 ADD MSTORE PUSH1 0x24 ADD PUSH2 0x4A3 JUMP JUMPDEST PUSH2 0x6B3 DUP2 PUSH2 0x6E3 JUMP JUMPDEST POP JUMP JUMPDEST PUSH1 0x0 SLOAD PUSH1 0x1 PUSH1 0x1 PUSH1 0xA0 SHL SUB AND CALLER EQ PUSH2 0x38A JUMPI PUSH1 0x40 MLOAD PUSH4 0x118CDAA7 PUSH1 0xE0 SHL DUP2 MSTORE CALLER PUSH1 0x4 DUP3 ADD MSTORE PUSH1 0x24 ADD PUSH2 0x4A3 JUMP JUMPDEST PUSH1 0x0 DUP1 SLOAD PUSH1 0x1 PUSH1 0x1 PUSH1 0xA0 SHL SUB DUP4 DUP2 AND PUSH1 0x1 PUSH1 0x1 PUSH1 0xA0 SHL SUB NOT DUP4 AND DUP2 OR DUP5 SSTORE PUSH1 0x40 MLOAD SWAP2 SWAP1 SWAP3 AND SWAP3 DUP4 SWAP2 PUSH32 0x8BE0079C531659141344CD1FD0A4F28419497F9722A3DAAFE3B4186F6B6457E0 SWAP2 SWAP1 LOG3 POP POP JUMP JUMPDEST PUSH1 0x0 DUP2 DUP4 GT PUSH2 0x74B JUMPI PUSH2 0x746 DUP4 DUP4 PUSH2 0x877 JUMP JUMPDEST PUSH2 0x755 JUMP JUMPDEST PUSH2 0x755 DUP3 DUP5 PUSH2 0x877 JUMP JUMPDEST SWAP4 SWAP3 POP POP POP JUMP JUMPDEST PUSH1 0x0 PUSH1 0x20 DUP3 DUP5 SUB SLT ISZERO PUSH2 0x76E JUMPI PUSH1 0x0 DUP1 REVERT JUMPDEST POP CALLDATALOAD SWAP2 SWAP1 POP JUMP JUMPDEST PUSH1 0x0 DUP1 PUSH1 0x40 DUP4 DUP6 SUB SLT ISZERO PUSH2 0x788 JUMPI PUSH1 0x0 DUP1 REVERT JUMPDEST POP POP DUP1 CALLDATALOAD SWAP3 PUSH1 0x20 SWAP1 SWAP2 ADD CALLDATALOAD SWAP2 POP JUMP JUMPDEST PUSH1 0x0 DUP1 PUSH1 0x0 DUP1 PUSH1 0x0 DUP1 PUSH1 0x0 DUP1 PUSH2 0x100 DUP10 DUP12 SUB SLT ISZERO PUSH2 0x7B4 JUMPI PUSH1 0x0 DUP1 REVERT JUMPDEST POP POP DUP7 CALLDATALOAD SWAP9 PUSH1 0x20 DUP9 ADD CALLDATALOAD SWAP9 POP PUSH1 0x40 DUP9 ADD CALLDATALOAD SWAP8 PUSH1 0x60 DUP2 ADD CALLDATALOAD SWAP8 POP PUSH1 0x80 DUP2 ADD CALLDATALOAD SWAP7 POP PUSH1 0xA0 DUP2 ADD CALLDATALOAD SWAP6 POP PUSH1 0xC0 DUP2 ADD CALLDATALOAD SWAP5 POP PUSH1 0xE0 ADD CALLDATALOAD SWAP3 POP SWAP1 POP JUMP JUMPDEST PUSH1 0x0 PUSH1 0x20 DUP3 DUP5 SUB SLT ISZERO PUSH2 0x7FE JUMPI PUSH1 0x0 DUP1 REVERT JUMPDEST DUP2 CALLDATALOAD PUSH1 0x1 PUSH1 0x1 PUSH1 0xA0 SHL SUB DUP2 AND DUP2 EQ PUSH2 0x755 JUMPI PUSH1 0x0 DUP1 REVERT JUMPDEST PUSH4 0x4E487B71 PUSH1 0xE0 SHL PUSH1 0x0 MSTORE PUSH1 0x11 PUSH1 0x4 MSTORE PUSH1 0x24 PUSH1 0x0 REVERT JUMPDEST DUP1 DUP3 ADD DUP1 DUP3 GT ISZERO PUSH2 0x43C JUMPI PUSH2 0x43C PUSH2 0x815 JUMP JUMPDEST DUP1 DUP3 MUL DUP2 ISZERO DUP3 DUP3 DIV DUP5 EQ OR PUSH2 0x43C JUMPI PUSH2 0x43C PUSH2 0x815 JUMP JUMPDEST PUSH1 0x0 DUP3 PUSH2 0x872 JUMPI PUSH4 0x4E487B71 PUSH1 0xE0 SHL PUSH1 0x0 MSTORE PUSH1 0x12 PUSH1 0x4 MSTORE PUSH1 0x24 PUSH1 0x0 REVERT JUMPDEST POP DIV SWAP1 JUMP JUMPDEST DUP2 DUP2 SUB DUP2 DUP2 GT ISZERO PUSH2 0x43C JUMPI PUSH2 0x43C PUSH2 0x815 JUMP INVALID LOG2 PUSH5 0x6970667358 0x22 SLT KECCAK256 0xF8 SHR 0xBC 0x4A 0x22 PUSH26 0x66B97261636CAB59463FBA6037BCFE1FE0E8449C5A26A40EFE PUSH5 0x736F6C6343 STOP ADDMOD EQ STOP CALLER "},"methodIdentifiers":{"compareFingerprints(uint256,uint256)":"9b34fab7","fingerprints(uint256)":"44e05157","generateFingerprint(uint256,uint256,uint256,uint256,uint256,uint256,uint256,uint256)":"b5e388e7","getFingerprint(uint256)":"159a6475","hashToIdentity(bytes32)":"1fc73c69","identityOwner(uint256)":"3d384870","owner()":"8da5cb5b","renounceOwnership()":"715018a6","transferOwnership(address)":"f2fde38b"}}}}}