{"contracts/layer3/identity/CrossWorldIdentity.sol":{"CrossWorldIdentity":{"abi":[{"inputs":[],"stateMutability":"nonpayable","type":"constructor"},{"inputs":[{"internalType":"address","name":"owner","type":"address"}],"name":"OwnableInvalidOwner","type":"error"},{"inputs":[{"internalType":"address","name":"account","type":"address"}],"name":"OwnableUnauthorizedAccount","type":"error"},{"anonymous":false,"inputs":[{"indexed":true,"internalType":"uint256","name":"identityId","type":"uint256"},{"indexed":true,"internalType":"uint256","name":"worldId","type":"uint256"}],"name":"IdentityLinked","type":"event"},{"anonymous":false,"inputs":[{"indexed":true,"internalType":"uint256","name":"identityId","type":"uint256"}],"name":"IdentityVerified","type":"event"},{"anonymous":false,"inputs":[{"indexed":true,"internalType":"address","name":"previousOwner","type":"address"},{"indexed":true,"internalType":"address","name":"newOwner","type":"address"}],"name":"OwnershipTransferred","type":"event"},{"anonymous":false,"inputs":[{"indexed":true,"internalType":"uint256","name":"identityId","type":"uint256"},{"indexed":false,"internalType":"uint256","name":"fromWorld","type":"uint256"},{"indexed":false,"internalType":"uint256","name":"toWorld","type":"uint256"}],"name":"ReputationTransferred","type":"event"},{"inputs":[{"internalType":"uint256","name":"identityId","type":"uint256"},{"internalType":"address","name":"owner","type":"address"}],"name":"createUniversalIdentity","outputs":[],"stateMutability":"nonpayable","type":"function"},{"inputs":[{"internalType":"uint256","name":"identityId","type":"uint256"}],"name":"getUniversalProfile","outputs":[{"components":[{"internalType":"uint256","name":"identityId","type":"uint256"},{"internalType":"address","name":"owner","type":"address"},{"internalType":"uint256[]","name":"linkedWorlds","type":"uint256[]"},{"internalType":"uint256","name":"totalReputation","type":"uint256"},{"internalType":"uint256","name":"totalAchievements","type":"uint256"},{"internalType":"bytes32","name":"identityHash","type":"bytes32"},{"internalType":"bool","name":"isVerified","type":"bool"},{"internalType":"uint256","name":"createdAt","type":"uint256"}],"internalType":"struct CrossWorldIdentity.UniversalIdentity","name":"","type":"tuple"}],"stateMutability":"view","type":"function"},{"inputs":[{"internalType":"uint256","name":"identityId","type":"uint256"},{"internalType":"uint256","name":"worldId","type":"uint256"},{"internalType":"uint256","name":"entityId","type":"uint256"},{"internalType":"uint256","name":"reputation","type":"uint256"}],"name":"linkWorld","outputs":[],"stateMutability":"nonpayable","type":"function"},{"inputs":[],"name":"owner","outputs":[{"internalType":"address","name":"","type":"address"}],"stateMutability":"view","type":"function"},{"inputs":[],"name":"renounceOwnership","outputs":[],"stateMutability":"nonpayable","type":"function"},{"inputs":[{"internalType":"address","name":"newOwner","type":"address"}],"name":"transferOwnership","outputs":[],"stateMutability":"nonpayable","type":"function"},{"inputs":[{"internalType":"uint256","name":"identityId","type":"uint256"},{"internalType":"uint256","name":"fromWorldId","type":"uint256"},{"internalType":"uint256","name":"toWorldId","type":"uint256"},{"internalType":"uint256","name":"amount","type":"uint256"}],"name":"transferReputation","outputs":[],"stateMutability":"nonpayable","type":"function"},{"inputs":[{"internalType":"uint256","name":"","type":"uint256"}],"name":"universalIdentities","outputs":[{"internalType":"uint256","name":"identityId","type":"uint256"},{"internalType":"address","name":"owner","type":"address"},{"internalType":"uint256","name":"totalReputation","type":"uint256"},{"internalType":"uint256","name":"totalAchievements","type":"uint256"},{"internalType":"bytes32","name":"identityHash","type":"bytes32"},{"internalType":"bool","name":"isVerified","type":"bool"},{"internalType":"uint256","name":"createdAt","type":"uint256"}],"stateMutability":"view","type":"function"},{"inputs":[{"internalType":"bytes32","name":"","type":"bytes32"}],"name":"verifiedIdentities","outputs":[{"internalType":"bool","name":"","type":"bool"}],"stateMutability":"view","type":"function"},{"inputs":[{"internalType":"uint256","name":"identityId","type":"uint256"}],"name":"verifyIdentity","outputs":[],"stateMutability":"nonpayable","type":"function"},{"inputs":[{"internalType":"uint256","name":"","type":"uint256"},{"internalType":"uint256","name":"","type":"uint256"}],"name":"worldLinks","outputs":[{"internalType":"uint256","name":"worldId","type":"uint256"},{"internalType":"uint256","name":"entityId","type":"uint256"},{"internalType":"uint256","name":"reputation","type":"uint256"},{"internalType":"uint256","name":"achievements","type":"uint256"},{"internalType":"bool","name":"isActive","type":"bool"},{"internalType":"uint256","name":"linkedAt","type":"uint256"}],"stateMutability":"view","type":"function"}],"evm":{"bytecode":{"linkReferences":{},"object":"608060405234801561001057600080fd5b50338061003757604051631e4fbdf760e01b81526000600482015260240160405180910390fd5b61004081610046565b50610096565b600080546001600160a01b038381166001600160a01b0319831681178455604051919092169283917f8be0079c531659141344cd1fd0a4f28419497f9722a3daafe3b4186f6b6457e09190a35050565b610aa8806100a56000396000f3fe608060405234801561001057600080fd5b50600436106100a95760003560e01c8063babb55c511610071578063babb55c5146101b7578063bb45beaa146101ca578063e193c362146101dd578063ec1aaa1c146101f0578063f2fde38b14610210578063fc87c3471461022357600080fd5b80633cec374c146100ae578063715018a61461014c57806373f54d4a146101565780638da5cb5b14610169578063a88e50f414610184575b600080fd5b6101086100bc3660046108a7565b600160208190526000918252604090912080549181015460038201546004830154600584015460068501546007909501546001600160a01b039094169492939192909160ff9091169087565b604080519788526001600160a01b0390961660208801529486019390935260608501919091526080840152151560a083015260c082015260e0015b60405180910390f35b6101546102a2565b005b6101546101643660046108c0565b6102b6565b6000546040516001600160a01b039091168152602001610143565b6101a76101923660046108a7565b60036020526000908152604090205460ff1681565b6040519015158152602001610143565b6101546101c53660046108a7565b610386565b6101546101d83660046108c0565b610403565b6101546101eb36600461090e565b61050e565b6102036101fe3660046108a7565b61066f565b604051610143919061093a565b61015461021e3660046109ec565b610787565b610273610231366004610a0e565b600260208181526000938452604080852090915291835291208054600182015492820154600383015460048401546005909401549294939192909160ff169086565b6040805196875260208701959095529385019290925260608401521515608083015260a082015260c001610143565b6102aa6107ca565b6102b460006107f7565b565b6000848152600160208190526040909120908101546001600160a01b031633146102df57600080fd5b600085815260026020818152604080842088855290915280832086845292209082015484111561030e57600080fd5b838260020160008282546103229190610a46565b925050819055508381600201600082825461033d9190610a5f565b9091555050604080518781526020810187905288917f3b5ae1510f25b8f60f882304ba5c656b64d82096edfbcd2df36ed455d9eb2746910160405180910390a250505050505050565b60008181526001602052604090206002810154600311156103a657600080fd5b600681018054600160ff19918216811790925560058301546000908152600360205260408082208054909316909317909155905183917f6a89b5921df9fa29bf2a70d124ca8ab8f3eb71fdf721459c9b6ac91171a0871491a25050565b6000848152600160208190526040909120908101546001600160a01b0316331461042c57600080fd5b6040805160c08101825285815260208082018681528284018681526000606085018181526001608087018181524260a089019081528e855260028089528a86208f87528952998520985189559551888301559351878901559051600380880191909155925160048701805460ff191691151591909117905592516005909501949094559385018054918201815583529082200186905590820180548492906104d5908490610a5f565b9091555050604051849086907fdf0a29d9c069f04972c944496a371ccfe5a99c5f0353f8c9ad15110bd64dabb890600090a35050505050565b6000828152600160205260409020541561052757600080fd5b60408051610100810182528381526001600160a01b03831660208201529081016000604051908082528060200260200182016040528015610572578160200160208202803683370190505b508152602001600081526020016000815260200183836040516020016105b492919091825260601b6bffffffffffffffffffffffff1916602082015260340190565b60408051808303601f190181529181528151602092830120835260008383018190524293820193909352858352600180835292819020845181558483015193810180546001600160a01b0319166001600160a01b039095169490941790935583015180516106289260028501920190610847565b50606082015160038201556080820151600482015560a0820151600582015560c082015160068201805460ff191691151591909117905560e0909101516007909101555050565b6106c56040518061010001604052806000815260200160006001600160a01b0316815260200160608152602001600081526020016000815260200160008019168152602001600015158152602001600081525090565b60008281526001602081815260409283902083516101008101855281548152928101546001600160a01b0316838301526002810180548551818502810185018752818152949592949286019383018282801561074057602002820191906000526020600020905b81548152602001906001019080831161072c575b5050509183525050600382015460208201526004820154604082015260058201546060820152600682015460ff161515608082015260079091015460a09091015292915050565b61078f6107ca565b6001600160a01b0381166107be57604051631e4fbdf760e01b8152600060048201526024015b60405180910390fd5b6107c7816107f7565b50565b6000546001600160a01b031633146102b45760405163118cdaa760e01b81523360048201526024016107b5565b600080546001600160a01b038381166001600160a01b0319831681178455604051919092169283917f8be0079c531659141344cd1fd0a4f28419497f9722a3daafe3b4186f6b6457e09190a35050565b828054828255906000526020600020908101928215610882579160200282015b82811115610882578251825591602001919060010190610867565b5061088e929150610892565b5090565b5b8082111561088e5760008155600101610893565b6000602082840312156108b957600080fd5b5035919050565b600080600080608085870312156108d657600080fd5b5050823594602084013594506040840135936060013592509050565b80356001600160a01b038116811461090957600080fd5b919050565b6000806040838503121561092157600080fd5b82359150610931602084016108f2565b90509250929050565b6020808252825182820152828101516001600160a01b031660408084019190915283015161010060608401819052815161012085018190526000939283019184916101408701905b808410156109a25784518252938501936001939093019290850190610982565b5060608801516080880152608088015160a088015260a088015160c088015260c088015194506109d660e088018615159052565b60e0979097015195019490945250929392505050565b6000602082840312156109fe57600080fd5b610a07826108f2565b9392505050565b60008060408385031215610a2157600080fd5b50508035926020909101359150565b634e487b7160e01b600052601160045260246000fd5b81810381811115610a5957610a59610a30565b92915050565b80820180821115610a5957610a59610a3056fea2646970667358221220cc89032340652da35334c8e6257630470bc769ca9884302545625f8232fed7e564736f6c63430008140033","opcodes":"PUSH1 0x80 PUSH1 0x40 MSTORE CALLVALUE DUP1 ISZERO PUSH2 0x10 JUMPI PUSH1 0x0 DUP1 REVERT JUMPDEST POP CALLER DUP1 PUSH2 0x37 JUMPI PUSH1 0x40 MLOAD PUSH4 0x1E4FBDF7 PUSH1 0xE0 SHL DUP2 MSTORE PUSH1 0x0 PUSH1 0x4 DUP3 ADD MSTORE PUSH1 0x24 ADD PUSH1 0x40 MLOAD DUP1 SWAP2 SUB SWAP1 REVERT JUMPDEST PUSH2 0x40 DUP2 PUSH2 0x46 JUMP JUMPDEST POP PUSH2 0x96 JUMP JUMPDEST PUSH1 0x0 DUP1 SLOAD PUSH1 0x1 PUSH1 0x1 PUSH1 0xA0 SHL SUB DUP4 DUP2 AND PUSH1 0x1 PUSH1 0x1 PUSH1 0xA0 SHL SUB NOT DUP4 AND DUP2 OR DUP5 SSTORE PUSH1 0x40 MLOAD SWAP2 SWAP1 SWAP3 AND SWAP3 DUP4 SWAP2 PUSH32 0x8BE0079C531659141344CD1FD0A4F28419497F9722A3DAAFE3B4186F6B6457E0 SWAP2 SWAP1 LOG3 POP POP JUMP JUMPDEST PUSH2 0xAA8 DUP1 PUSH2 0xA5 PUSH1 0x0 CODECOPY PUSH1 0x0 RETURN INVALID PUSH1 0x80 PUSH1 0x40 MSTORE CALLVALUE DUP1 ISZERO PUSH2 0x10 JUMPI PUSH1 0x0 DUP1 REVERT JUMPDEST POP PUSH1 0x4 CALLDATASIZE LT PUSH2 0xA9 JUMPI PUSH1 0x0 CALLDATALOAD PUSH1 0xE0 SHR DUP1 PUSH4 0xBABB55C5 GT PUSH2 0x71 JUMPI DUP1 PUSH4 0xBABB55C5 EQ PUSH2 0x1B7 JUMPI DUP1 PUSH4 0xBB45BEAA EQ PUSH2 0x1CA JUMPI DUP1 PUSH4 0xE193C362 EQ PUSH2 0x1DD JUMPI DUP1 PUSH4 0xEC1AAA1C EQ PUSH2 0x1F0 JUMPI DUP1 PUSH4 0xF2FDE38B EQ PUSH2 0x210 JUMPI DUP1 PUSH4 0xFC87C347 EQ PUSH2 0x223 JUMPI PUSH1 0x0 DUP1 REVERT JUMPDEST DUP1 PUSH4 0x3CEC374C EQ PUSH2 0xAE JUMPI DUP1 PUSH4 0x715018A6 EQ PUSH2 0x14C JUMPI DUP1 PUSH4 0x73F54D4A EQ PUSH2 0x156 JUMPI DUP1 PUSH4 0x8DA5CB5B EQ PUSH2 0x169 JUMPI DUP1 PUSH4 0xA88E50F4 EQ PUSH2 0x184 JUMPI JUMPDEST PUSH1 0x0 DUP1 REVERT JUMPDEST PUSH2 0x108 PUSH2 0xBC CALLDATASIZE PUSH1 0x4 PUSH2 0x8A7 JUMP JUMPDEST PUSH1 0x1 PUSH1 0x20 DUP2 SWAP1 MSTORE PUSH1 0x0 SWAP2 DUP3 MSTORE PUSH1 0x40 SWAP1 SWAP2 KECCAK256 DUP1 SLOAD SWAP2 DUP2 ADD SLOAD PUSH1 0x3 DUP3 ADD SLOAD PUSH1 0x4 DUP4 ADD SLOAD PUSH1 0x5 DUP5 ADD SLOAD PUSH1 0x6 DUP6 ADD SLOAD PUSH1 0x7 SWAP1 SWAP6 ADD SLOAD PUSH1 0x1 PUSH1 0x1 PUSH1 0xA0 SHL SUB SWAP1 SWAP5 AND SWAP5 SWAP3 SWAP4 SWAP2 SWAP3 SWAP1 SWAP2 PUSH1 0xFF SWAP1 SWAP2 AND SWAP1 DUP8 JUMP JUMPDEST PUSH1 0x40 DUP1 MLOAD SWAP8 DUP9 MSTORE PUSH1 0x1 PUSH1 0x1 PUSH1 0xA0 SHL SUB SWAP1 SWAP7 AND PUSH1 0x20 DUP9 ADD MSTORE SWAP5 DUP7 ADD SWAP4 SWAP1 SWAP4 MSTORE PUSH1 0x60 DUP6 ADD SWAP2 SWAP1 SWAP2 MSTORE PUSH1 0x80 DUP5 ADD MSTORE ISZERO ISZERO PUSH1 0xA0 DUP4 ADD MSTORE PUSH1 0xC0 DUP3 ADD MSTORE PUSH1 0xE0 ADD JUMPDEST PUSH1 0x40 MLOAD DUP1 SWAP2 SUB SWAP1 RETURN JUMPDEST PUSH2 0x154 PUSH2 0x2A2 JUMP JUMPDEST STOP JUMPDEST PUSH2 0x154 PUSH2 0x164 CALLDATASIZE PUSH1 0x4 PUSH2 0x8C0 JUMP JUMPDEST PUSH2 0x2B6 JUMP JUMPDEST PUSH1 0x0 SLOAD PUSH1 0x40 MLOAD PUSH1 0x1 PUSH1 0x1 PUSH1 0xA0 SHL SUB SWAP1 SWAP2 AND DUP2 MSTORE PUSH1 0x20 ADD PUSH2 0x143 JUMP JUMPDEST PUSH2 0x1A7 PUSH2 0x192 CALLDATASIZE PUSH1 0x4 PUSH2 0x8A7 JUMP JUMPDEST PUSH1 0x3 PUSH1 0x20 MSTORE PUSH1 0x0 SWAP1 DUP2 MSTORE PUSH1 0x40 SWAP1 KECCAK256 SLOAD PUSH1 0xFF AND DUP2 JUMP JUMPDEST PUSH1 0x40 MLOAD SWAP1 ISZERO ISZERO DUP2 MSTORE PUSH1 0x20 ADD PUSH2 0x143 JUMP JUMPDEST PUSH2 0x154 PUSH2 0x1C5 CALLDATASIZE PUSH1 0x4 PUSH2 0x8A7 JUMP JUMPDEST PUSH2 0x386 JUMP JUMPDEST PUSH2 0x154 PUSH2 0x1D8 CALLDATASIZE PUSH1 0x4 PUSH2 0x8C0 JUMP JUMPDEST PUSH2 0x403 JUMP JUMPDEST PUSH2 0x154 PUSH2 0x1EB CALLDATASIZE PUSH1 0x4 PUSH2 0x90E JUMP JUMPDEST PUSH2 0x50E JUMP JUMPDEST PUSH2 0x203 PUSH2 0x1FE CALLDATASIZE PUSH1 0x4 PUSH2 0x8A7 JUMP JUMPDEST PUSH2 0x66F JUMP JUMPDEST PUSH1 0x40 MLOAD PUSH2 0x143 SWAP2 SWAP1 PUSH2 0x93A JUMP JUMPDEST PUSH2 0x154 PUSH2 0x21E CALLDATASIZE PUSH1 0x4 PUSH2 0x9EC JUMP JUMPDEST PUSH2 0x787 JUMP JUMPDEST PUSH2 0x273 PUSH2 0x231 CALLDATASIZE PUSH1 0x4 PUSH2 0xA0E JUMP JUMPDEST PUSH1 0x2 PUSH1 0x20 DUP2 DUP2 MSTORE PUSH1 0x0 SWAP4 DUP5 MSTORE PUSH1 0x40 DUP1 DUP6 KECCAK256 SWAP1 SWAP2 MSTORE SWAP2 DUP4 MSTORE SWAP2 KECCAK256 DUP1 SLOAD PUSH1 0x1 DUP3 ADD SLOAD SWAP3 DUP3 ADD SLOAD PUSH1 0x3 DUP4 ADD SLOAD PUSH1 0x4 DUP5 ADD SLOAD PUSH1 0x5 SWAP1 SWAP5 ADD SLOAD SWAP3 SWAP5 SWAP4 SWAP2 SWAP3 SWAP1 SWAP2 PUSH1 0xFF AND SWAP1 DUP7 JUMP JUMPDEST PUSH1 0x40 DUP1 MLOAD SWAP7 DUP8 MSTORE PUSH1 0x20 DUP8 ADD SWAP6 SWAP1 SWAP6 MSTORE SWAP4 DUP6 ADD SWAP3 SWAP1 SWAP3 MSTORE PUSH1 0x60 DUP5 ADD MSTORE ISZERO ISZERO PUSH1 0x80 DUP4 ADD MSTORE PUSH1 0xA0 DUP3 ADD MSTORE PUSH1 0xC0 ADD PUSH2 0x143 JUMP JUMPDEST PUSH2 0x2AA PUSH2 0x7CA JUMP JUMPDEST PUSH2 0x2B4 PUSH1 0x0 PUSH2 0x7F7 JUMP JUMPDEST JUMP JUMPDEST PUSH1 0x0 DUP5 DUP2 MSTORE PUSH1 0x1 PUSH1 0x20 DUP2 SWAP1 MSTORE PUSH1 0x40 SWAP1 SWAP2 KECCAK256 SWAP1 DUP2 ADD SLOAD PUSH1 0x1 PUSH1 0x1 PUSH1 0xA0 SHL SUB AND CALLER EQ PUSH2 0x2DF JUMPI PUSH1 0x0 DUP1 REVERT JUMPDEST PUSH1 0x0 DUP6 DUP2 MSTORE PUSH1 0x2 PUSH1 0x20 DUP2 DUP2 MSTORE PUSH1 0x40 DUP1 DUP5 KECCAK256 DUP9 DUP6 MSTORE SWAP1 SWAP2 MSTORE DUP1 DUP4 KECCAK256 DUP7 DUP5 MSTORE SWAP3 KECCAK256 SWAP1 DUP3 ADD SLOAD DUP5 GT ISZERO PUSH2 0x30E JUMPI PUSH1 0x0 DUP1 REVERT JUMPDEST DUP4 DUP3 PUSH1 0x2 ADD PUSH1 0x0 DUP3 DUP3 SLOAD PUSH2 0x322 SWAP2 SWAP1 PUSH2 0xA46 JUMP JUMPDEST SWAP3 POP POP DUP2 SWAP1 SSTORE POP DUP4 DUP2 PUSH1 0x2 ADD PUSH1 0x0 DUP3 DUP3 SLOAD PUSH2 0x33D SWAP2 SWAP1 PUSH2 0xA5F JUMP JUMPDEST SWAP1 SWAP2 SSTORE POP POP PUSH1 0x40 DUP1 MLOAD DUP8 DUP2 MSTORE PUSH1 0x20 DUP2 ADD DUP8 SWAP1 MSTORE DUP9 SWAP2 PUSH32 0x3B5AE1510F25B8F60F882304BA5C656B64D82096EDFBCD2DF36ED455D9EB2746 SWAP2 ADD PUSH1 0x40 MLOAD DUP1 SWAP2 SUB SWAP1 LOG2 POP POP POP POP POP POP POP JUMP JUMPDEST PUSH1 0x0 DUP2 DUP2 MSTORE PUSH1 0x1 PUSH1 0x20 MSTORE PUSH1 0x40 SWAP1 KECCAK256 PUSH1 0x2 DUP2 ADD SLOAD PUSH1 0x3 GT ISZERO PUSH2 0x3A6 JUMPI PUSH1 0x0 DUP1 REVERT JUMPDEST PUSH1 0x6 DUP2 ADD DUP1 SLOAD PUSH1 0x1 PUSH1 0xFF NOT SWAP2 DUP3 AND DUP2 OR SWAP1 SWAP3 SSTORE PUSH1 0x5 DUP4 ADD SLOAD PUSH1 0x0 SWAP1 DUP2 MSTORE PUSH1 0x3 PUSH1 0x20 MSTORE PUSH1 0x40 DUP1 DUP3 KECCAK256 DUP1 SLOAD SWAP1 SWAP4 AND SWAP1 SWAP4 OR SWAP1 SWAP2 SSTORE SWAP1 MLOAD DUP4 SWAP2 PUSH32 0x6A89B5921DF9FA29BF2A70D124CA8AB8F3EB71FDF721459C9B6AC91171A08714 SWAP2 LOG2 POP POP JUMP JUMPDEST PUSH1 0x0 DUP5 DUP2 MSTORE PUSH1 0x1 PUSH1 0x20 DUP2 SWAP1 MSTORE PUSH1 0x40 SWAP1 SWAP2 KECCAK256 SWAP1 DUP2 ADD SLOAD PUSH1 0x1 PUSH1 0x1 PUSH1 0xA0 SHL SUB AND CALLER EQ PUSH2 0x42C JUMPI PUSH1 0x0 DUP1 REVERT JUMPDEST PUSH1 0x40 DUP1 MLOAD PUSH1 0xC0 DUP2 ADD DUP3 MSTORE DUP6 DUP2 MSTORE PUSH1 0x20 DUP1 DUP3 ADD DUP7 DUP2 MSTORE DUP3 DUP5 ADD DUP7 DUP2 MSTORE PUSH1 0x0 PUSH1 0x60 DUP6 ADD DUP2 DUP2 MSTORE PUSH1 0x1 PUSH1 0x80 DUP8 ADD DUP2 DUP2 MSTORE TIMESTAMP PUSH1 0xA0 DUP10 ADD SWAP1 DUP2 MSTORE DUP15 DUP6 MSTORE PUSH1 0x2 DUP1 DUP10 MSTORE DUP11 DUP7 KECCAK256 DUP16 DUP8 MSTORE DUP10 MSTORE SWAP10 DUP6 KECCAK256 SWAP9 MLOAD DUP10 SSTORE SWAP6 MLOAD DUP9 DUP4 ADD SSTORE SWAP4 MLOAD DUP8 DUP10 ADD SSTORE SWAP1 MLOAD PUSH1 0x3 DUP1 DUP9 ADD SWAP2 SWAP1 SWAP2 SSTORE SWAP3 MLOAD PUSH1 0x4 DUP8 ADD DUP1 SLOAD PUSH1 0xFF NOT AND SWAP2 ISZERO ISZERO SWAP2 SWAP1 SWAP2 OR SWAP1 SSTORE SWAP3 MLOAD PUSH1 0x5 SWAP1 SWAP6 ADD SWAP5 SWAP1 SWAP5 SSTORE SWAP4 DUP6 ADD DUP1 SLOAD SWAP2 DUP3 ADD DUP2 SSTORE DUP4 MSTORE SWAP1 DUP3 KECCAK256 ADD DUP7 SWAP1 SSTORE SWAP1 DUP3 ADD DUP1 SLOAD DUP5 SWAP3 SWAP1 PUSH2 0x4D5 SWAP1 DUP5 SWAP1 PUSH2 0xA5F JUMP JUMPDEST SWAP1 SWAP2 SSTORE POP POP PUSH1 0x40 MLOAD DUP5 SWAP1 DUP7 SWAP1 PUSH32 0xDF0A29D9C069F04972C944496A371CCFE5A99C5F0353F8C9AD15110BD64DABB8 SWAP1 PUSH1 0x0 SWAP1 LOG3 POP POP POP POP POP JUMP JUMPDEST PUSH1 0x0 DUP3 DUP2 MSTORE PUSH1 0x1 PUSH1 0x20 MSTORE PUSH1 0x40 SWAP1 KECCAK256 SLOAD ISZERO PUSH2 0x527 JUMPI PUSH1 0x0 DUP1 REVERT JUMPDEST PUSH1 0x40 DUP1 MLOAD PUSH2 0x100 DUP2 ADD DUP3 MSTORE DUP4 DUP2 MSTORE PUSH1 0x1 PUSH1 0x1 PUSH1 0xA0 SHL SUB DUP4 AND PUSH1 0x20 DUP3 ADD MSTORE SWAP1 DUP2 ADD PUSH1 0x0 PUSH1 0x40 MLOAD SWAP1 DUP1 DUP3 MSTORE DUP1 PUSH1 0x20 MUL PUSH1 0x20 ADD DUP3 ADD PUSH1 0x40 MSTORE DUP1 ISZERO PUSH2 0x572 JUMPI DUP2 PUSH1 0x20 ADD PUSH1 0x20 DUP3 MUL DUP1 CALLDATASIZE DUP4 CALLDATACOPY ADD SWAP1 POP JUMPDEST POP DUP2 MSTORE PUSH1 0x20 ADD PUSH1 0x0 DUP2 MSTORE PUSH1 0x20 ADD PUSH1 0x0 DUP2 MSTORE PUSH1 0x20 ADD DUP4 DUP4 PUSH1 0x40 MLOAD PUSH1 0x20 ADD PUSH2 0x5B4 SWAP3 SWAP2 SWAP1 SWAP2 DUP3 MSTORE PUSH1 0x60 SHL PUSH12 0xFFFFFFFFFFFFFFFFFFFFFFFF NOT AND PUSH1 0x20 DUP3 ADD MSTORE PUSH1 0x34 ADD SWAP1 JUMP JUMPDEST PUSH1 0x40 DUP1 MLOAD DUP1 DUP4 SUB PUSH1 0x1F NOT ADD DUP2 MSTORE SWAP2 DUP2 MSTORE DUP2 MLOAD PUSH1 0x20 SWAP3 DUP4 ADD KECCAK256 DUP4 MSTORE PUSH1 0x0 DUP4 DUP4 ADD DUP2 SWAP1 MSTORE TIMESTAMP SWAP4 DUP3 ADD SWAP4 SWAP1 SWAP4 MSTORE DUP6 DUP4 MSTORE PUSH1 0x1 DUP1 DUP4 MSTORE SWAP3 DUP2 SWAP1 KECCAK256 DUP5 MLOAD DUP2 SSTORE DUP5 DUP4 ADD MLOAD SWAP4 DUP2 ADD DUP1 SLOAD PUSH1 0x1 PUSH1 0x1 PUSH1 0xA0 SHL SUB NOT AND PUSH1 0x1 PUSH1 0x1 PUSH1 0xA0 SHL SUB SWAP1 SWAP6 AND SWAP5 SWAP1 SWAP5 OR SWAP1 SWAP4 SSTORE DUP4 ADD MLOAD DUP1 MLOAD PUSH2 0x628 SWAP3 PUSH1 0x2 DUP6 ADD SWAP3 ADD SWAP1 PUSH2 0x847 JUMP JUMPDEST POP PUSH1 0x60 DUP3 ADD MLOAD PUSH1 0x3 DUP3 ADD SSTORE PUSH1 0x80 DUP3 ADD MLOAD PUSH1 0x4 DUP3 ADD SSTORE PUSH1 0xA0 DUP3 ADD MLOAD PUSH1 0x5 DUP3 ADD SSTORE PUSH1 0xC0 DUP3 ADD MLOAD PUSH1 0x6 DUP3 ADD DUP1 SLOAD PUSH1 0xFF NOT AND SWAP2 ISZERO ISZERO SWAP2 SWAP1 SWAP2 OR SWAP1 SSTORE PUSH1 0xE0 SWAP1 SWAP2 ADD MLOAD PUSH1 0x7 SWAP1 SWAP2 ADD SSTORE POP POP JUMP JUMPDEST PUSH2 0x6C5 PUSH1 0x40 MLOAD DUP1 PUSH2 0x100 ADD PUSH1 0x40 MSTORE DUP1 PUSH1 0x0 DUP2 MSTORE PUSH1 0x20 ADD PUSH1 0x0 PUSH1 0x1 PUSH1 0x1 PUSH1 0xA0 SHL SUB AND DUP2 MSTORE PUSH1 0x20 ADD PUSH1 0x60 DUP2 MSTORE PUSH1 0x20 ADD PUSH1 0x0 DUP2 MSTORE PUSH1 0x20 ADD PUSH1 0x0 DUP2 MSTORE PUSH1 0x20 ADD PUSH1 0x0 DUP1 NOT AND DUP2 MSTORE PUSH1 0x20 ADD PUSH1 0x0 ISZERO ISZERO DUP2 MSTORE PUSH1 0x20 ADD PUSH1 0x0 DUP2 MSTORE POP SWAP1 JUMP JUMPDEST PUSH1 0x0 DUP3 DUP2 MSTORE PUSH1 0x1 PUSH1 0x20 DUP2 DUP2 MSTORE PUSH1 0x40 SWAP3 DUP4 SWAP1 KECCAK256 DUP4 MLOAD PUSH2 0x100 DUP2 ADD DUP6 MSTORE DUP2 SLOAD DUP2 MSTORE SWAP3 DUP2 ADD SLOAD PUSH1 0x1 PUSH1 0x1 PUSH1 0xA0 SHL SUB AND DUP4 DUP4 ADD MSTORE PUSH1 0x2 DUP2 ADD DUP1 SLOAD DUP6 MLOAD DUP2 DUP6 MUL DUP2 ADD DUP6 ADD DUP8 MSTORE DUP2 DUP2 MSTORE SWAP5 SWAP6 SWAP3 SWAP5 SWAP3 DUP7 ADD SWAP4 DUP4 ADD DUP3 DUP3 DUP1 ISZERO PUSH2 0x740 JUMPI PUSH1 0x20 MUL DUP3 ADD SWAP2 SWAP1 PUSH1 0x0 MSTORE PUSH1 0x20 PUSH1 0x0 KECCAK256 SWAP1 JUMPDEST DUP2 SLOAD DUP2 MSTORE PUSH1 0x20 ADD SWAP1 PUSH1 0x1 ADD SWAP1 DUP1 DUP4 GT PUSH2 0x72C JUMPI JUMPDEST POP POP POP SWAP2 DUP4 MSTORE POP POP PUSH1 0x3 DUP3 ADD SLOAD PUSH1 0x20 DUP3 ADD MSTORE PUSH1 0x4 DUP3 ADD SLOAD PUSH1 0x40 DUP3 ADD MSTORE PUSH1 0x5 DUP3 ADD SLOAD PUSH1 0x60 DUP3 ADD MSTORE PUSH1 0x6 DUP3 ADD SLOAD PUSH1 0xFF AND ISZERO ISZERO PUSH1 0x80 DUP3 ADD MSTORE PUSH1 0x7 SWAP1 SWAP2 ADD SLOAD PUSH1 0xA0 SWAP1 SWAP2 ADD MSTORE SWAP3 SWAP2 POP POP JUMP JUMPDEST PUSH2 0x78F PUSH2 0x7CA JUMP JUMPDEST PUSH1 0x1 PUSH1 0x1 PUSH1 0xA0 SHL SUB DUP2 AND PUSH2 0x7BE JUMPI PUSH1 0x40 MLOAD PUSH4 0x1E4FBDF7 PUSH1 0xE0 SHL DUP2 MSTORE PUSH1 0x0 PUSH1 0x4 DUP3 ADD MSTORE PUSH1 0x24 ADD JUMPDEST PUSH1 0x40 MLOAD DUP1 SWAP2 SUB SWAP1 REVERT JUMPDEST PUSH2 0x7C7 DUP2 PUSH2 0x7F7 JUMP JUMPDEST POP JUMP JUMPDEST PUSH1 0x0 SLOAD PUSH1 0x1 PUSH1 0x1 PUSH1 0xA0 SHL SUB AND CALLER EQ PUSH2 0x2B4 JUMPI PUSH1 0x40 MLOAD PUSH4 0x118CDAA7 PUSH1 0xE0 SHL DUP2 MSTORE CALLER PUSH1 0x4 DUP3 ADD MSTORE PUSH1 0x24 ADD PUSH2 0x7B5 JUMP JUMPDEST PUSH1 0x0 DUP1 SLOAD PUSH1 0x1 PUSH1 0x1 PUSH1 0xA0 SHL SUB DUP4 DUP2 AND PUSH1 0x1 PUSH1 0x1 PUSH1 0xA0 SHL SUB NOT DUP4 AND DUP2 OR DUP5 SSTORE PUSH1 0x40 MLOAD SWAP2 SWAP1 SWAP3 AND SWAP3 DUP4 SWAP2 PUSH32 0x8BE0079C531659141344CD1FD0A4F28419497F9722A3DAAFE3B4186F6B6457E0 SWAP2 SWAP1 LOG3 POP POP JUMP JUMPDEST DUP3 DUP1 SLOAD DUP3 DUP3 SSTORE SWAP1 PUSH1 0x0 MSTORE PUSH1 0x20 PUSH1 0x0 KECCAK256 SWAP1 DUP2 ADD SWAP3 DUP3 ISZERO PUSH2 0x882 JUMPI SWAP2 PUSH1 0x20 MUL DUP3 ADD JUMPDEST DUP3 DUP2 GT ISZERO PUSH2 0x882 JUMPI DUP3 MLOAD DUP3 SSTORE SWAP2 PUSH1 0x20 ADD SWAP2 SWAP1 PUSH1 0x1 ADD SWAP1 PUSH2 0x867 JUMP JUMPDEST POP PUSH2 0x88E SWAP3 SWAP2 POP PUSH2 0x892 JUMP JUMPDEST POP SWAP1 JUMP JUMPDEST JUMPDEST DUP1 DUP3 GT ISZERO PUSH2 0x88E JUMPI PUSH1 0x0 DUP2 SSTORE PUSH1 0x1 ADD PUSH2 0x893 JUMP JUMPDEST PUSH1 0x0 PUSH1 0x20 DUP3 DUP5 SUB SLT ISZERO PUSH2 0x8B9 JUMPI PUSH1 0x0 DUP1 REVERT JUMPDEST POP CALLDATALOAD SWAP2 SWAP1 POP JUMP JUMPDEST PUSH1 0x0 DUP1 PUSH1 0x0 DUP1 PUSH1 0x80 DUP6 DUP8 SUB SLT ISZERO PUSH2 0x8D6 JUMPI PUSH1 0x0 DUP1 REVERT JUMPDEST POP POP DUP3 CALLDATALOAD SWAP5 PUSH1 0x20 DUP5 ADD CALLDATALOAD SWAP5 POP PUSH1 0x40 DUP5 ADD CALLDATALOAD SWAP4 PUSH1 0x60 ADD CALLDATALOAD SWAP3 POP SWAP1 POP JUMP JUMPDEST DUP1 CALLDATALOAD PUSH1 0x1 PUSH1 0x1 PUSH1 0xA0 SHL SUB DUP2 AND DUP2 EQ PUSH2 0x909 JUMPI PUSH1 0x0 DUP1 REVERT JUMPDEST SWAP2 SWAP1 POP JUMP JUMPDEST PUSH1 0x0 DUP1 PUSH1 0x40 DUP4 DUP6 SUB SLT ISZERO PUSH2 0x921 JUMPI PUSH1 0x0 DUP1 REVERT JUMPDEST DUP3 CALLDATALOAD SWAP2 POP PUSH2 0x931 PUSH1 0x20 DUP5 ADD PUSH2 0x8F2 JUMP JUMPDEST SWAP1 POP SWAP3 POP SWAP3 SWAP1 POP JUMP JUMPDEST PUSH1 0x20 DUP1 DUP3 MSTORE DUP3 MLOAD DUP3 DUP3 ADD MSTORE DUP3 DUP2 ADD MLOAD PUSH1 0x1 PUSH1 0x1 PUSH1 0xA0 SHL SUB AND PUSH1 0x40 DUP1 DUP5 ADD SWAP2 SWAP1 SWAP2 MSTORE DUP4 ADD MLOAD PUSH2 0x100 PUSH1 0x60 DUP5 ADD DUP2 SWAP1 MSTORE DUP2 MLOAD PUSH2 0x120 DUP6 ADD DUP2 SWAP1 MSTORE PUSH1 0x0 SWAP4 SWAP3 DUP4 ADD SWAP2 DUP5 SWAP2 PUSH2 0x140 DUP8 ADD SWAP1 JUMPDEST DUP1 DUP5 LT ISZERO PUSH2 0x9A2 JUMPI DUP5 MLOAD DUP3 MSTORE SWAP4 DUP6 ADD SWAP4 PUSH1 0x1 SWAP4 SWAP1 SWAP4 ADD SWAP3 SWAP1 DUP6 ADD SWAP1 PUSH2 0x982 JUMP JUMPDEST POP PUSH1 0x60 DUP9 ADD MLOAD PUSH1 0x80 DUP9 ADD MSTORE PUSH1 0x80 DUP9 ADD MLOAD PUSH1 0xA0 DUP9 ADD MSTORE PUSH1 0xA0 DUP9 ADD MLOAD PUSH1 0xC0 DUP9 ADD MSTORE PUSH1 0xC0 DUP9 ADD MLOAD SWAP5 POP PUSH2 0x9D6 PUSH1 0xE0 DUP9 ADD DUP7 ISZERO ISZERO SWAP1 MSTORE JUMP JUMPDEST PUSH1 0xE0 SWAP8 SWAP1 SWAP8 ADD MLOAD SWAP6 ADD SWAP5 SWAP1 SWAP5 MSTORE POP SWAP3 SWAP4 SWAP3 POP POP POP JUMP JUMPDEST PUSH1 0x0 PUSH1 0x20 DUP3 DUP5 SUB SLT ISZERO PUSH2 0x9FE JUMPI PUSH1 0x0 DUP1 REVERT JUMPDEST PUSH2 0xA07 DUP3 PUSH2 0x8F2 JUMP JUMPDEST SWAP4 SWAP3 POP POP POP JUMP JUMPDEST PUSH1 0x0 DUP1 PUSH1 0x40 DUP4 DUP6 SUB SLT ISZERO PUSH2 0xA21 JUMPI PUSH1 0x0 DUP1 REVERT JUMPDEST POP POP DUP1 CALLDATALOAD SWAP3 PUSH1 0x20 SWAP1 SWAP2 ADD CALLDATALOAD SWAP2 POP JUMP JUMPDEST PUSH4 0x4E487B71 PUSH1 0xE0 SHL PUSH1 0x0 MSTORE PUSH1 0x11 PUSH1 0x4 MSTORE PUSH1 0x24 PUSH1 0x0 REVERT JUMPDEST DUP2 DUP2 SUB DUP2 DUP2 GT ISZERO PUSH2 0xA59 JUMPI PUSH2 0xA59 PUSH2 0xA30 JUMP JUMPDEST SWAP3 SWAP2 POP POP JUMP JUMPDEST DUP1 DUP3 ADD DUP1 DUP3 GT ISZERO PUSH2 0xA59 JUMPI PUSH2 0xA59 PUSH2 0xA30 JUMP INVALID LOG2 PUSH5 0x6970667358 0x22 SLT KECCAK256 0xCC DUP10 SUB 0x23 BLOCKHASH PUSH6 0x2DA35334C8E6 0x25 PUSH23 0x30470BC769CA9884302545625F8232FED7E564736F6C63 NUMBER STOP ADDMOD EQ STOP CALLER "},"methodIdentifiers":{"createUniversalIdentity(uint256,address)":"e193c362","getUniversalProfile(uint256)":"ec1aaa1c","linkWorld(uint256,uint256,uint256,uint256)":"bb45beaa","owner()":"8da5cb5b","renounceOwnership()":"715018a6","transferOwnership(address)":"f2fde38b","transferReputation(uint256,uint256,uint256,uint256)":"73f54d4a","universalIdentities(uint256)":"3cec374c","verifiedIdentities(bytes32)":"a88e50f4","verifyIdentity(uint256)":"babb55c5","worldLinks(uint256,uint256)":"fc87c347"}}}}}