{"contracts/layer3/identity/BehavioralIdentity.sol":{"BehavioralIdentity":{"abi":[{"inputs":[],"stateMutability":"nonpayable","type":"constructor"},{"inputs":[{"internalType":"address","name":"owner","type":"address"}],"name":"OwnableInvalidOwner","type":"error"},{"inputs":[{"internalType":"address","name":"account","type":"address"}],"name":"OwnableUnauthorizedAccount","type":"error"},{"anonymous":false,"inputs":[{"indexed":true,"internalType":"uint256","name":"identityId","type":"uint256"}],"name":"BehavioralDNAUpdated","type":"event"},{"anonymous":false,"inputs":[{"indexed":true,"internalType":"uint256","name":"identityId","type":"uint256"},{"indexed":false,"internalType":"uint256","name":"riskLevel","type":"uint256"},{"indexed":false,"internalType":"bool","name":"success","type":"bool"}],"name":"DecisionRecorded","type":"event"},{"anonymous":false,"inputs":[{"indexed":true,"internalType":"uint256","name":"identityId","type":"uint256"},{"indexed":true,"internalType":"address","name":"owner","type":"address"}],"name":"IdentityCreated","type":"event"},{"anonymous":false,"inputs":[{"indexed":true,"internalType":"address","name":"previousOwner","type":"address"},{"indexed":true,"internalType":"address","name":"newOwner","type":"address"}],"name":"OwnershipTransferred","type":"event"},{"anonymous":false,"inputs":[{"indexed":true,"internalType":"uint256","name":"identityId","type":"uint256"},{"indexed":false,"internalType":"enum BehavioralIdentity.RiskStyle","name":"riskStyle","type":"uint8"},{"indexed":false,"internalType":"enum BehavioralIdentity.SocialStyle","name":"socialStyle","type":"uint8"}],"name":"StyleClassified","type":"event"},{"inputs":[{"internalType":"address","name":"","type":"address"}],"name":"addressToIdentity","outputs":[{"internalType":"uint256","name":"","type":"uint256"}],"stateMutability":"view","type":"function"},{"inputs":[{"internalType":"uint256","name":"","type":"uint256"}],"name":"behavioralDNA","outputs":[{"internalType":"uint256","name":"riskTolerance","type":"uint256"},{"internalType":"uint256","name":"cooperativeness","type":"uint256"},{"internalType":"uint256","name":"analyticalThinking","type":"uint256"},{"internalType":"uint256","name":"emotionalResponse","type":"uint256"},{"internalType":"uint256","name":"impulsiveness","type":"uint256"},{"internalType":"uint256","name":"strategicPlanning","type":"uint256"},{"internalType":"uint256","name":"adaptability","type":"uint256"},{"internalType":"uint256","name":"consistency","type":"uint256"}],"stateMutability":"view","type":"function"},{"inputs":[],"name":"createIdentity","outputs":[{"internalType":"uint256","name":"","type":"uint256"}],"stateMutability":"nonpayable","type":"function"},{"inputs":[{"internalType":"uint256","name":"","type":"uint256"},{"internalType":"uint256","name":"","type":"uint256"}],"name":"decisionHistory","outputs":[{"internalType":"uint256","name":"decisionId","type":"uint256"},{"internalType":"uint256","name":"riskLevel","type":"uint256"},{"internalType":"bool","name":"wasSuccessful","type":"bool"},{"internalType":"uint256","name":"timestamp","type":"uint256"},{"internalType":"bytes32","name":"contextHash","type":"bytes32"}],"stateMutability":"view","type":"function"},{"inputs":[{"internalType":"uint256","name":"identityId","type":"uint256"}],"name":"getBehavioralDNA","outputs":[{"components":[{"internalType":"uint256","name":"riskTolerance","type":"uint256"},{"internalType":"uint256","name":"cooperativeness","type":"uint256"},{"internalType":"uint256","name":"analyticalThinking","type":"uint256"},{"internalType":"uint256","name":"emotionalResponse","type":"uint256"},{"internalType":"uint256","name":"impulsiveness","type":"uint256"},{"internalType":"uint256","name":"strategicPlanning","type":"uint256"},{"internalType":"uint256","name":"adaptability","type":"uint256"},{"internalType":"uint256","name":"consistency","type":"uint256"}],"internalType":"struct BehavioralIdentity.BehavioralDNA","name":"","type":"tuple"}],"stateMutability":"view","type":"function"},{"inputs":[{"internalType":"uint256","name":"identityId","type":"uint256"}],"name":"getDecisionHistory","outputs":[{"components":[{"internalType":"uint256","name":"decisionId","type":"uint256"},{"internalType":"uint256","name":"riskLevel","type":"uint256"},{"internalType":"bool","name":"wasSuccessful","type":"bool"},{"internalType":"uint256","name":"timestamp","type":"uint256"},{"internalType":"bytes32","name":"contextHash","type":"bytes32"}],"internalType":"struct BehavioralIdentity.Decision[]","name":"","type":"tuple[]"}],"stateMutability":"view","type":"function"},{"inputs":[{"internalType":"uint256","name":"identityId","type":"uint256"}],"name":"getIdentity","outputs":[{"components":[{"internalType":"uint256","name":"identityId","type":"uint256"},{"internalType":"address","name":"owner","type":"address"},{"internalType":"enum BehavioralIdentity.RiskStyle","name":"riskStyle","type":"uint8"},{"internalType":"enum BehavioralIdentity.SocialStyle","name":"socialStyle","type":"uint8"},{"internalType":"enum BehavioralIdentity.DecisionPattern","name":"decisionPattern","type":"uint8"},{"internalType":"uint256","name":"totalDecisions","type":"uint256"},{"internalType":"uint256","name":"successfulDecisions","type":"uint256"},{"internalType":"uint256","name":"riskTaken","type":"uint256"},{"internalType":"uint256","name":"cooperativeActions","type":"uint256"},{"internalType":"uint256","name":"competitiveActions","type":"uint256"},{"internalType":"uint256","name":"createdAt","type":"uint256"},{"internalType":"uint256","name":"lastUpdate","type":"uint256"}],"internalType":"struct BehavioralIdentity.Identity","name":"","type":"tuple"}],"stateMutability":"view","type":"function"},{"inputs":[{"internalType":"address","name":"user","type":"address"}],"name":"getIdentityByAddress","outputs":[{"internalType":"uint256","name":"","type":"uint256"}],"stateMutability":"view","type":"function"},{"inputs":[{"internalType":"uint256","name":"","type":"uint256"}],"name":"identities","outputs":[{"internalType":"uint256","name":"identityId","type":"uint256"},{"internalType":"address","name":"owner","type":"address"},{"internalType":"enum BehavioralIdentity.RiskStyle","name":"riskStyle","type":"uint8"},{"internalType":"enum BehavioralIdentity.SocialStyle","name":"socialStyle","type":"uint8"},{"internalType":"enum BehavioralIdentity.DecisionPattern","name":"decisionPattern","type":"uint8"},{"internalType":"uint256","name":"totalDecisions","type":"uint256"},{"internalType":"uint256","name":"successfulDecisions","type":"uint256"},{"internalType":"uint256","name":"riskTaken","type":"uint256"},{"internalType":"uint256","name":"cooperativeActions","type":"uint256"},{"internalType":"uint256","name":"competitiveActions","type":"uint256"},{"internalType":"uint256","name":"createdAt","type":"uint256"},{"internalType":"uint256","name":"lastUpdate","type":"uint256"}],"stateMutability":"view","type":"function"},{"inputs":[],"name":"owner","outputs":[{"internalType":"address","name":"","type":"address"}],"stateMutability":"view","type":"function"},{"inputs":[{"internalType":"uint256","name":"identityId","type":"uint256"},{"internalType":"uint256","name":"riskLevel","type":"uint256"},{"internalType":"bool","name":"wasSuccessful","type":"bool"},{"internalType":"bool","name":"wasCooperative","type":"bool"}],"name":"recordDecision","outputs":[],"stateMutability":"nonpayable","type":"function"},{"inputs":[],"name":"renounceOwnership","outputs":[],"stateMutability":"nonpayable","type":"function"},{"inputs":[{"internalType":"address","name":"newOwner","type":"address"}],"name":"transferOwnership","outputs":[],"stateMutability":"nonpayable","type":"function"}],"evm":{"bytecode":{"linkReferences":{},"object":"608060405234801561001057600080fd5b50338061003757604051631e4fbdf760e01b81526000600482015260240160405180910390fd5b61004081610046565b50610096565b600080546001600160a01b038381166001600160a01b0319831681178455604051919092169283917f8be0079c531659141344cd1fd0a4f28419497f9722a3daafe3b4186f6b6457e09190a35050565b61142a806100a56000396000f3fe608060405234801561001057600080fd5b50600436106100cf5760003560e01c80638da5cb5b1161008c578063eaaf77e611610066578063eaaf77e6146102ae578063eb4e9b0914610349578063f2f5cd1d14610369578063f2fde38b1461039257600080fd5b80638da5cb5b146101e257806391228cec146101fd578063922753971461021d57600080fd5b80631a113b25146100d457806359d21ad9146100e95780636f0aaa4c14610104578063704396da14610146578063715018a6146101ba57806385e3f058146101c2575b600080fd5b6100e76100e236600461108e565b6103a5565b005b6100f1610567565b6040519081526020015b60405180910390f35b6101176101123660046110d4565b610848565b6040516100fb959493929190948552602085019390935290151560408401526060830152608082015260a00190565b6101596101543660046110f6565b610899565b6040516100fb9190600061010082019050825182526020830151602083015260408301516040830152606083015160608301526080830151608083015260a083015160a083015260c083015160c083015260e083015160e083015292915050565b6100e761094e565b6101d56101d03660046110f6565b610962565b6040516100fb9190611150565b6000546040516001600160a01b0390911681526020016100fb565b61021061020b3660046110f6565b610af0565b6040516100fb9190611202565b61027361022b3660046110f6565b60036020528060005260406000206000915090508060000154908060010154908060020154908060030154908060040154908060050154908060060154908060070154905088565b604080519889526020890197909752958701949094526060860192909252608085015260a084015260c083015260e0820152610100016100fb565b6103316102bc3660046110f6565b600260208190526000918252604090912080546001820154928201546003830154600484015460058501546006860154600787015460089097015495976001600160a01b0381169760ff600160a01b8304811698600160a81b8404821698600160b01b9094049091169692959294929391908c565b6040516100fb9c9b9a99989796959493929190611272565b6100f16103573660046112f4565b60016020526000908152604090205481565b6100f16103773660046112f4565b6001600160a01b031660009081526001602052604090205490565b6100e76103a03660046112f4565b610b93565b600084815260026020526040902060018101546001600160a01b031633146104005760405162461bcd60e51b81526020600482015260096024820152682737ba1037bbb732b960b91b60448201526064015b60405180910390fd5b6002810180549060006104128361133a565b919050555082156104355760038101805490600061042f8361133a565b91905055505b838160040160008282546104499190611353565b90915550508115610470576005810180549060006104668361133a565b9190505550610488565b6006810180549060006104828361133a565b91905055505b42600882018190556000868152600460208181526040808420815160a08101835281548082528185018c81528b1515838601818152606085019a8b52608085018a815260018086018855968b529988902094516005909402909401928355905193820193909355905160028201805460ff1916911515919091179055955160038701559351949092019390935580518781529283019190915286917f3c0c92aff8930103ea052637f7f970215cf1d0f05ff9bf77db614db77f379c32910160405180910390a261055785610bd1565b61056085610e01565b5050505050565b33600090815260016020526040812054156105b65760405162461bcd60e51b815260206004820152600f60248201526e4964656e746974792065786973747360881b60448201526064016103f7565b600580549060006105c68361133a565b90915550506005546040805161018081018252828152336020820152908101600181526020016002815260200160018152600060208083018290526040808401839052606084018390526080840183905260a084018390524260c0850181905260e090940193909352848252600281529082902083518155908301516001820180546001600160a01b039092166001600160a01b031983168117825593850151929390916001600160a81b03191617600160a01b83600381111561068c5761068c61110f565b0217905550606082015160018201805460ff60a81b1916600160a81b8360038111156106ba576106ba61110f565b0217905550608082015160018201805460ff60b01b1916600160b01b8360038111156106e8576106e861110f565b021790555060a0820151816002015560c0820151816003015560e08201518160040155610100820151816005015561012082015181600601556101408201518160070155610160820151816008015590505060405180610100016040528060328152602001603281526020016032815260200160328152602001603281526020016032815260200160328152602001603281525060036000838152602001908152602001600020600082015181600001556020820151816001015560408201518160020155606082015181600301556080820151816004015560a0820151816005015560c0820151816006015560e082015181600701559050508060016000336001600160a01b03166001600160a01b0316815260200190815260200160002081905550336001600160a01b0316817fb9207ad0e4ce0020587811f8e8e575927896915f4acd7ed0fd4679612156417b60405160405180910390a3919050565b6004602052816000526040600020818154811061086457600080fd5b60009182526020909120600590910201805460018201546002830154600384015460049094015492955090935060ff16919085565b6108e160405180610100016040528060008152602001600081526020016000815260200160008152602001600081526020016000815260200160008152602001600081525090565b506000908152600360208181526040928390208351610100810185528154815260018201549281019290925260028101549382019390935290820154606082015260048201546080820152600582015460a0820152600682015460c082015260079091015460e082015290565b610956610ffc565b6109606000611029565b565b6109c66040805161018081018252600080825260208201819052909182019081526020016000815260200160008152602001600081526020016000815260200160008152602001600081526020016000815260200160008152602001600081525090565b6000828152600260209081526040918290208251610180810184528154815260018201546001600160a01b0381169382019390935292909190830190600160a01b900460ff166003811115610a1d57610a1d61110f565b6003811115610a2e57610a2e61110f565b81526020016001820160159054906101000a900460ff166003811115610a5657610a5661110f565b6003811115610a6757610a6761110f565b81526020016001820160169054906101000a900460ff166003811115610a8f57610a8f61110f565b6003811115610aa057610aa061110f565b815260028201546020820152600382015460408201526004820154606082015260058201546080820152600682015460a0820152600782015460c082015260089091015460e09091015292915050565b606060046000838152602001908152602001600020805480602002602001604051908101604052809291908181526020016000905b82821015610b885760008481526020908190206040805160a081018252600586029092018054835260018082015484860152600282015460ff16151592840192909252600381015460608401526004015460808301529083529092019101610b25565b505050509050919050565b610b9b610ffc565b6001600160a01b038116610bc557604051631e4fbdf760e01b8152600060048201526024016103f7565b610bce81611029565b50565b600081815260026020818152604080842060039092529092209082015415610dd1576002820154610c0390606461136c565b6004830154610c1390606461136c565b610c1d9190611383565b80825560641015610c2d57606481555b60028201546005830154610c4290606461136c565b610c4c9190611383565b600182015560028201546003830154610c6690606461136c565b610c709190611383565b60078201556002820154600a1015610dd1576000838152600460205260408120805490919081908190600a10610ca7576000610cb5565b8354610cb590600a906113a5565b9050805b8454811015610d1357848181548110610cd457610cd46113b8565b90600052602060002090600502016001015484610cf19190611353565b935082610cfd8161133a565b9350508080610d0b9061133a565b915050610cb9565b508115610dcc576000610d268385611383565b90506046811115610d945760648660040154600a610d449190611353565b11610d5e576004860154610d5990600a611353565b610d61565b60645b60048701556005860154600a10610d79576000610d8a565b600a8660050154610d8a91906113a5565b6005870155610dca565b606486600201546005610da79190611353565b11610dc1576002860154610dbc906005611353565b610dc4565b60645b60028701555b505b505050505b60405183907f6de4f81e1bbdbde232107551180e40ad675cf47df83c6b8cd6c781b49a0ac54f90600090a2505050565b600081815260026020908152604080832060039092529091208054601e1115610e46576001820180546000919060ff60a01b1916600160a01b835b0217905550610ea5565b8054603c1115610e69576001828101805460ff60a01b1916600160a01b83610e3c565b805460551115610e8f576001820180546002919060ff60a01b1916600160a01b83610e3c565b60018201805460ff60a01b1916600360a01b1790555b604681600101541115610ed4576001820180546000919060ff60a81b1916600160a81b835b0217905550610f10565b601e81600101541015610efa576001828101805460ff60a81b1916600160a81b83610eca565b60018201805460ff60a81b1916600160a91b1790555b604681600401541115610f3f576001820180546000919060ff60b01b1916600160b01b835b0217905550610fa4565b604681600201541115610f65576001828101805460ff60b01b1916600160b01b83610f35565b604681600301541115610f8e576001820180546002919060ff60b01b1916600160b01b83610f35565b60018201805460ff60b01b1916600360b01b1790555b600182015460405184917f95192af0a09ef09e42c6cb627af371565dc4889629afa6e3c198144dcae33d5e91610fef9160ff600160a01b8204811692600160a81b90920416906113ce565b60405180910390a2505050565b6000546001600160a01b031633146109605760405163118cdaa760e01b81523360048201526024016103f7565b600080546001600160a01b038381166001600160a01b0319831681178455604051919092169283917f8be0079c531659141344cd1fd0a4f28419497f9722a3daafe3b4186f6b6457e09190a35050565b8035801515811461108957600080fd5b919050565b600080600080608085870312156110a457600080fd5b84359350602085013592506110bb60408601611079565b91506110c960608601611079565b905092959194509250565b600080604083850312156110e757600080fd5b50508035926020909101359150565b60006020828403121561110857600080fd5b5035919050565b634e487b7160e01b600052602160045260246000fd5b60048110610bce57634e487b7160e01b600052602160045260246000fd5b61114c81611125565b9052565b81518152602080830151610180830191611174908401826001600160a01b03169052565b5060408301516111876040840182611143565b50606083015161119a6060840182611143565b5060808301516111ad6080840182611143565b5060a083015160a083015260c083015160c083015260e083015160e083015261010080840151818401525061012080840151818401525061014080840151818401525061016080840151818401525092915050565b602080825282518282018190526000919060409081850190868401855b8281101561126557815180518552868101518786015285810151151586860152606080820151908601526080908101519085015260a0909301929085019060010161121f565b5091979650505050505050565b8c81526001600160a01b038c16602082015261018081016112928c611125565b8b60408301526112a18b611125565b8a60608301526112b08a611125565b608082019990995260a081019790975260c087019590955260e086019390935261010085019190915261012084015261014083015261016090910152949350505050565b60006020828403121561130657600080fd5b81356001600160a01b038116811461131d57600080fd5b9392505050565b634e487b7160e01b600052601160045260246000fd5b60006001820161134c5761134c611324565b5060010190565b8082018082111561136657611366611324565b92915050565b808202811582820484141761136657611366611324565b6000826113a057634e487b7160e01b600052601260045260246000fd5b500490565b8181038181111561136657611366611324565b634e487b7160e01b600052603260045260246000fd5b604081016113db84611125565b8382526113e783611125565b826020830152939250505056fea264697066735822122088d65b97a2a7834d643ab8c9f54a41725b9efbf27673551a3c0f868b75e116c764736f6c63430008140033","opcodes":"PUSH1 0x80 PUSH1 0x40 MSTORE CALLVALUE DUP1 ISZERO PUSH2 0x10 JUMPI PUSH1 0x0 DUP1 REVERT JUMPDEST POP CALLER DUP1 PUSH2 0x37 JUMPI PUSH1 0x40 MLOAD PUSH4 0x1E4FBDF7 PUSH1 0xE0 SHL DUP2 MSTORE PUSH1 0x0 PUSH1 0x4 DUP3 ADD MSTORE PUSH1 0x24 ADD PUSH1 0x40 MLOAD DUP1 SWAP2 SUB SWAP1 REVERT JUMPDEST PUSH2 0x40 DUP2 PUSH2 0x46 JUMP JUMPDEST POP PUSH2 0x96 JUMP JUMPDEST PUSH1 0x0 DUP1 SLOAD PUSH1 0x1 PUSH1 0x1 PUSH1 0xA0 SHL SUB DUP4 DUP2 AND PUSH1 0x1 PUSH1 0x1 PUSH1 0xA0 SHL SUB NOT DUP4 AND DUP2 OR DUP5 SSTORE PUSH1 0x40 MLOAD SWAP2 SWAP1 SWAP3 AND SWAP3 DUP4 SWAP2 PUSH32 0x8BE0079C531659141344CD1FD0A4F28419497F9722A3DAAFE3B4186F6B6457E0 SWAP2 SWAP1 LOG3 POP POP JUMP JUMPDEST PUSH2 0x142A DUP1 PUSH2 0xA5 PUSH1 0x0 CODECOPY PUSH1 0x0 RETURN INVALID PUSH1 0x80 PUSH1 0x40 MSTORE CALLVALUE DUP1 ISZERO PUSH2 0x10 JUMPI PUSH1 0x0 DUP1 REVERT JUMPDEST POP PUSH1 0x4 CALLDATASIZE LT PUSH2 0xCF JUMPI PUSH1 0x0 CALLDATALOAD PUSH1 0xE0 SHR DUP1 PUSH4 0x8DA5CB5B GT PUSH2 0x8C JUMPI DUP1 PUSH4 0xEAAF77E6 GT PUSH2 0x66 JUMPI DUP1 PUSH4 0xEAAF77E6 EQ PUSH2 0x2AE JUMPI DUP1 PUSH4 0xEB4E9B09 EQ PUSH2 0x349 JUMPI DUP1 PUSH4 0xF2F5CD1D EQ PUSH2 0x369 JUMPI DUP1 PUSH4 0xF2FDE38B EQ PUSH2 0x392 JUMPI PUSH1 0x0 DUP1 REVERT JUMPDEST DUP1 PUSH4 0x8DA5CB5B EQ PUSH2 0x1E2 JUMPI DUP1 PUSH4 0x91228CEC EQ PUSH2 0x1FD JUMPI DUP1 PUSH4 0x92275397 EQ PUSH2 0x21D JUMPI PUSH1 0x0 DUP1 REVERT JUMPDEST DUP1 PUSH4 0x1A113B25 EQ PUSH2 0xD4 JUMPI DUP1 PUSH4 0x59D21AD9 EQ PUSH2 0xE9 JUMPI DUP1 PUSH4 0x6F0AAA4C EQ PUSH2 0x104 JUMPI DUP1 PUSH4 0x704396DA EQ PUSH2 0x146 JUMPI DUP1 PUSH4 0x715018A6 EQ PUSH2 0x1BA JUMPI DUP1 PUSH4 0x85E3F058 EQ PUSH2 0x1C2 JUMPI JUMPDEST PUSH1 0x0 DUP1 REVERT JUMPDEST PUSH2 0xE7 PUSH2 0xE2 CALLDATASIZE PUSH1 0x4 PUSH2 0x108E JUMP JUMPDEST PUSH2 0x3A5 JUMP JUMPDEST STOP JUMPDEST PUSH2 0xF1 PUSH2 0x567 JUMP JUMPDEST PUSH1 0x40 MLOAD SWAP1 DUP2 MSTORE PUSH1 0x20 ADD JUMPDEST PUSH1 0x40 MLOAD DUP1 SWAP2 SUB SWAP1 RETURN JUMPDEST PUSH2 0x117 PUSH2 0x112 CALLDATASIZE PUSH1 0x4 PUSH2 0x10D4 JUMP JUMPDEST PUSH2 0x848 JUMP JUMPDEST PUSH1 0x40 MLOAD PUSH2 0xFB SWAP6 SWAP5 SWAP4 SWAP3 SWAP2 SWAP1 SWAP5 DUP6 MSTORE PUSH1 0x20 DUP6 ADD SWAP4 SWAP1 SWAP4 MSTORE SWAP1 ISZERO ISZERO PUSH1 0x40 DUP5 ADD MSTORE PUSH1 0x60 DUP4 ADD MSTORE PUSH1 0x80 DUP3 ADD MSTORE PUSH1 0xA0 ADD SWAP1 JUMP JUMPDEST PUSH2 0x159 PUSH2 0x154 CALLDATASIZE PUSH1 0x4 PUSH2 0x10F6 JUMP JUMPDEST PUSH2 0x899 JUMP JUMPDEST PUSH1 0x40 MLOAD PUSH2 0xFB SWAP2 SWAP1 PUSH1 0x0 PUSH2 0x100 DUP3 ADD SWAP1 POP DUP3 MLOAD DUP3 MSTORE PUSH1 0x20 DUP4 ADD MLOAD PUSH1 0x20 DUP4 ADD MSTORE PUSH1 0x40 DUP4 ADD MLOAD PUSH1 0x40 DUP4 ADD MSTORE PUSH1 0x60 DUP4 ADD MLOAD PUSH1 0x60 DUP4 ADD MSTORE PUSH1 0x80 DUP4 ADD MLOAD PUSH1 0x80 DUP4 ADD MSTORE PUSH1 0xA0 DUP4 ADD MLOAD PUSH1 0xA0 DUP4 ADD MSTORE PUSH1 0xC0 DUP4 ADD MLOAD PUSH1 0xC0 DUP4 ADD MSTORE PUSH1 0xE0 DUP4 ADD MLOAD PUSH1 0xE0 DUP4 ADD MSTORE SWAP3 SWAP2 POP POP JUMP JUMPDEST PUSH2 0xE7 PUSH2 0x94E JUMP JUMPDEST PUSH2 0x1D5 PUSH2 0x1D0 CALLDATASIZE PUSH1 0x4 PUSH2 0x10F6 JUMP JUMPDEST PUSH2 0x962 JUMP JUMPDEST PUSH1 0x40 MLOAD PUSH2 0xFB SWAP2 SWAP1 PUSH2 0x1150 JUMP JUMPDEST PUSH1 0x0 SLOAD PUSH1 0x40 MLOAD PUSH1 0x1 PUSH1 0x1 PUSH1 0xA0 SHL SUB SWAP1 SWAP2 AND DUP2 MSTORE PUSH1 0x20 ADD PUSH2 0xFB JUMP JUMPDEST PUSH2 0x210 PUSH2 0x20B CALLDATASIZE PUSH1 0x4 PUSH2 0x10F6 JUMP JUMPDEST PUSH2 0xAF0 JUMP JUMPDEST PUSH1 0x40 MLOAD PUSH2 0xFB SWAP2 SWAP1 PUSH2 0x1202 JUMP JUMPDEST PUSH2 0x273 PUSH2 0x22B CALLDATASIZE PUSH1 0x4 PUSH2 0x10F6 JUMP JUMPDEST PUSH1 0x3 PUSH1 0x20 MSTORE DUP1 PUSH1 0x0 MSTORE PUSH1 0x40 PUSH1 0x0 KECCAK256 PUSH1 0x0 SWAP2 POP SWAP1 POP DUP1 PUSH1 0x0 ADD SLOAD SWAP1 DUP1 PUSH1 0x1 ADD SLOAD SWAP1 DUP1 PUSH1 0x2 ADD SLOAD SWAP1 DUP1 PUSH1 0x3 ADD SLOAD SWAP1 DUP1 PUSH1 0x4 ADD SLOAD SWAP1 DUP1 PUSH1 0x5 ADD SLOAD SWAP1 DUP1 PUSH1 0x6 ADD SLOAD SWAP1 DUP1 PUSH1 0x7 ADD SLOAD SWAP1 POP DUP9 JUMP JUMPDEST PUSH1 0x40 DUP1 MLOAD SWAP9 DUP10 MSTORE PUSH1 0x20 DUP10 ADD SWAP8 SWAP1 SWAP8 MSTORE SWAP6 DUP8 ADD SWAP5 SWAP1 SWAP5 MSTORE PUSH1 0x60 DUP7 ADD SWAP3 SWAP1 SWAP3 MSTORE PUSH1 0x80 DUP6 ADD MSTORE PUSH1 0xA0 DUP5 ADD MSTORE PUSH1 0xC0 DUP4 ADD MSTORE PUSH1 0xE0 DUP3 ADD MSTORE PUSH2 0x100 ADD PUSH2 0xFB JUMP JUMPDEST PUSH2 0x331 PUSH2 0x2BC CALLDATASIZE PUSH1 0x4 PUSH2 0x10F6 JUMP JUMPDEST PUSH1 0x2 PUSH1 0x20 DUP2 SWAP1 MSTORE PUSH1 0x0 SWAP2 DUP3 MSTORE PUSH1 0x40 SWAP1 SWAP2 KECCAK256 DUP1 SLOAD PUSH1 0x1 DUP3 ADD SLOAD SWAP3 DUP3 ADD SLOAD PUSH1 0x3 DUP4 ADD SLOAD PUSH1 0x4 DUP5 ADD SLOAD PUSH1 0x5 DUP6 ADD SLOAD PUSH1 0x6 DUP7 ADD SLOAD PUSH1 0x7 DUP8 ADD SLOAD PUSH1 0x8 SWAP1 SWAP8 ADD SLOAD SWAP6 SWAP8 PUSH1 0x1 PUSH1 0x1 PUSH1 0xA0 SHL SUB DUP2 AND SWAP8 PUSH1 0xFF PUSH1 0x1 PUSH1 0xA0 SHL DUP4 DIV DUP2 AND SWAP9 PUSH1 0x1 PUSH1 0xA8 SHL DUP5 DIV DUP3 AND SWAP9 PUSH1 0x1 PUSH1 0xB0 SHL SWAP1 SWAP5 DIV SWAP1 SWAP2 AND SWAP7 SWAP3 SWAP6 SWAP3 SWAP5 SWAP3 SWAP4 SWAP2 SWAP1 DUP13 JUMP JUMPDEST PUSH1 0x40 MLOAD PUSH2 0xFB SWAP13 SWAP12 SWAP11 SWAP10 SWAP9 SWAP8 SWAP7 SWAP6 SWAP5 SWAP4 SWAP3 SWAP2 SWAP1 PUSH2 0x1272 JUMP JUMPDEST PUSH2 0xF1 PUSH2 0x357 CALLDATASIZE PUSH1 0x4 PUSH2 0x12F4 JUMP JUMPDEST PUSH1 0x1 PUSH1 0x20 MSTORE PUSH1 0x0 SWAP1 DUP2 MSTORE PUSH1 0x40 SWAP1 KECCAK256 SLOAD DUP2 JUMP JUMPDEST PUSH2 0xF1 PUSH2 0x377 CALLDATASIZE PUSH1 0x4 PUSH2 0x12F4 JUMP JUMPDEST PUSH1 0x1 PUSH1 0x1 PUSH1 0xA0 SHL SUB AND PUSH1 0x0 SWAP1 DUP2 MSTORE PUSH1 0x1 PUSH1 0x20 MSTORE PUSH1 0x40 SWAP1 KECCAK256 SLOAD SWAP1 JUMP JUMPDEST PUSH2 0xE7 PUSH2 0x3A0 CALLDATASIZE PUSH1 0x4 PUSH2 0x12F4 JUMP JUMPDEST PUSH2 0xB93 JUMP JUMPDEST PUSH1 0x0 DUP5 DUP2 MSTORE PUSH1 0x2 PUSH1 0x20 MSTORE PUSH1 0x40 SWAP1 KECCAK256 PUSH1 0x1 DUP2 ADD SLOAD PUSH1 0x1 PUSH1 0x1 PUSH1 0xA0 SHL SUB AND CALLER EQ PUSH2 0x400 JUMPI PUSH1 0x40 MLOAD PUSH3 0x461BCD PUSH1 0xE5 SHL DUP2 MSTORE PUSH1 0x20 PUSH1 0x4 DUP3 ADD MSTORE PUSH1 0x9 PUSH1 0x24 DUP3 ADD MSTORE PUSH9 0x2737BA1037BBB732B9 PUSH1 0xB9 SHL PUSH1 0x44 DUP3 ADD MSTORE PUSH1 0x64 ADD JUMPDEST PUSH1 0x40 MLOAD DUP1 SWAP2 SUB SWAP1 REVERT JUMPDEST PUSH1 0x2 DUP2 ADD DUP1 SLOAD SWAP1 PUSH1 0x0 PUSH2 0x412 DUP4 PUSH2 0x133A JUMP JUMPDEST SWAP2 SWAP1 POP SSTORE POP DUP3 ISZERO PUSH2 0x435 JUMPI PUSH1 0x3 DUP2 ADD DUP1 SLOAD SWAP1 PUSH1 0x0 PUSH2 0x42F DUP4 PUSH2 0x133A JUMP JUMPDEST SWAP2 SWAP1 POP SSTORE POP JUMPDEST DUP4 DUP2 PUSH1 0x4 ADD PUSH1 0x0 DUP3 DUP3 SLOAD PUSH2 0x449 SWAP2 SWAP1 PUSH2 0x1353 JUMP JUMPDEST SWAP1 SWAP2 SSTORE POP POP DUP2 ISZERO PUSH2 0x470 JUMPI PUSH1 0x5 DUP2 ADD DUP1 SLOAD SWAP1 PUSH1 0x0 PUSH2 0x466 DUP4 PUSH2 0x133A JUMP JUMPDEST SWAP2 SWAP1 POP SSTORE POP PUSH2 0x488 JUMP JUMPDEST PUSH1 0x6 DUP2 ADD DUP1 SLOAD SWAP1 PUSH1 0x0 PUSH2 0x482 DUP4 PUSH2 0x133A JUMP JUMPDEST SWAP2 SWAP1 POP SSTORE POP JUMPDEST TIMESTAMP PUSH1 0x8 DUP3 ADD DUP2 SWAP1 SSTORE PUSH1 0x0 DUP7 DUP2 MSTORE PUSH1 0x4 PUSH1 0x20 DUP2 DUP2 MSTORE PUSH1 0x40 DUP1 DUP5 KECCAK256 DUP2 MLOAD PUSH1 0xA0 DUP2 ADD DUP4 MSTORE DUP2 SLOAD DUP1 DUP3 MSTORE DUP2 DUP6 ADD DUP13 DUP2 MSTORE DUP12 ISZERO ISZERO DUP4 DUP7 ADD DUP2 DUP2 MSTORE PUSH1 0x60 DUP6 ADD SWAP11 DUP12 MSTORE PUSH1 0x80 DUP6 ADD DUP11 DUP2 MSTORE PUSH1 0x1 DUP1 DUP7 ADD DUP9 SSTORE SWAP7 DUP12 MSTORE SWAP10 DUP9 SWAP1 KECCAK256 SWAP5 MLOAD PUSH1 0x5 SWAP1 SWAP5 MUL SWAP1 SWAP5 ADD SWAP3 DUP4 SSTORE SWAP1 MLOAD SWAP4 DUP3 ADD SWAP4 SWAP1 SWAP4 SSTORE SWAP1 MLOAD PUSH1 0x2 DUP3 ADD DUP1 SLOAD PUSH1 0xFF NOT AND SWAP2 ISZERO ISZERO SWAP2 SWAP1 SWAP2 OR SWAP1 SSTORE SWAP6 MLOAD PUSH1 0x3 DUP8 ADD SSTORE SWAP4 MLOAD SWAP5 SWAP1 SWAP3 ADD SWAP4 SWAP1 SWAP4 SSTORE DUP1 MLOAD DUP8 DUP2 MSTORE SWAP3 DUP4 ADD SWAP2 SWAP1 SWAP2 MSTORE DUP7 SWAP2 PUSH32 0x3C0C92AFF8930103EA052637F7F970215CF1D0F05FF9BF77DB614DB77F379C32 SWAP2 ADD PUSH1 0x40 MLOAD DUP1 SWAP2 SUB SWAP1 LOG2 PUSH2 0x557 DUP6 PUSH2 0xBD1 JUMP JUMPDEST PUSH2 0x560 DUP6 PUSH2 0xE01 JUMP JUMPDEST POP POP POP POP POP JUMP JUMPDEST CALLER PUSH1 0x0 SWAP1 DUP2 MSTORE PUSH1 0x1 PUSH1 0x20 MSTORE PUSH1 0x40 DUP2 KECCAK256 SLOAD ISZERO PUSH2 0x5B6 JUMPI PUSH1 0x40 MLOAD PUSH3 0x461BCD PUSH1 0xE5 SHL DUP2 MSTORE PUSH1 0x20 PUSH1 0x4 DUP3 ADD MSTORE PUSH1 0xF PUSH1 0x24 DUP3 ADD MSTORE PUSH15 0x4964656E7469747920657869737473 PUSH1 0x88 SHL PUSH1 0x44 DUP3 ADD MSTORE PUSH1 0x64 ADD PUSH2 0x3F7 JUMP JUMPDEST PUSH1 0x5 DUP1 SLOAD SWAP1 PUSH1 0x0 PUSH2 0x5C6 DUP4 PUSH2 0x133A JUMP JUMPDEST SWAP1 SWAP2 SSTORE POP POP PUSH1 0x5 SLOAD PUSH1 0x40 DUP1 MLOAD PUSH2 0x180 DUP2 ADD DUP3 MSTORE DUP3 DUP2 MSTORE CALLER PUSH1 0x20 DUP3 ADD MSTORE SWAP1 DUP2 ADD PUSH1 0x1 DUP2 MSTORE PUSH1 0x20 ADD PUSH1 0x2 DUP2 MSTORE PUSH1 0x20 ADD PUSH1 0x1 DUP2 MSTORE PUSH1 0x0 PUSH1 0x20 DUP1 DUP4 ADD DUP3 SWAP1 MSTORE PUSH1 0x40 DUP1 DUP5 ADD DUP4 SWAP1 MSTORE PUSH1 0x60 DUP5 ADD DUP4 SWAP1 MSTORE PUSH1 0x80 DUP5 ADD DUP4 SWAP1 MSTORE PUSH1 0xA0 DUP5 ADD DUP4 SWAP1 MSTORE TIMESTAMP PUSH1 0xC0 DUP6 ADD DUP2 SWAP1 MSTORE PUSH1 0xE0 SWAP1 SWAP5 ADD SWAP4 SWAP1 SWAP4 MSTORE DUP5 DUP3 MSTORE PUSH1 0x2 DUP2 MSTORE SWAP1 DUP3 SWAP1 KECCAK256 DUP4 MLOAD DUP2 SSTORE SWAP1 DUP4 ADD MLOAD PUSH1 0x1 DUP3 ADD DUP1 SLOAD PUSH1 0x1 PUSH1 0x1 PUSH1 0xA0 SHL SUB SWAP1 SWAP3 AND PUSH1 0x1 PUSH1 0x1 PUSH1 0xA0 SHL SUB NOT DUP4 AND DUP2 OR DUP3 SSTORE SWAP4 DUP6 ADD MLOAD SWAP3 SWAP4 SWAP1 SWAP2 PUSH1 0x1 PUSH1 0x1 PUSH1 0xA8 SHL SUB NOT AND OR PUSH1 0x1 PUSH1 0xA0 SHL DUP4 PUSH1 0x3 DUP2 GT ISZERO PUSH2 0x68C JUMPI PUSH2 0x68C PUSH2 0x110F JUMP JUMPDEST MUL OR SWAP1 SSTORE POP PUSH1 0x60 DUP3 ADD MLOAD PUSH1 0x1 DUP3 ADD DUP1 SLOAD PUSH1 0xFF PUSH1 0xA8 SHL NOT AND PUSH1 0x1 PUSH1 0xA8 SHL DUP4 PUSH1 0x3 DUP2 GT ISZERO PUSH2 0x6BA JUMPI PUSH2 0x6BA PUSH2 0x110F JUMP JUMPDEST MUL OR SWAP1 SSTORE POP PUSH1 0x80 DUP3 ADD MLOAD PUSH1 0x1 DUP3 ADD DUP1 SLOAD PUSH1 0xFF PUSH1 0xB0 SHL NOT AND PUSH1 0x1 PUSH1 0xB0 SHL DUP4 PUSH1 0x3 DUP2 GT ISZERO PUSH2 0x6E8 JUMPI PUSH2 0x6E8 PUSH2 0x110F JUMP JUMPDEST MUL OR SWAP1 SSTORE POP PUSH1 0xA0 DUP3 ADD MLOAD DUP2 PUSH1 0x2 ADD SSTORE PUSH1 0xC0 DUP3 ADD MLOAD DUP2 PUSH1 0x3 ADD SSTORE PUSH1 0xE0 DUP3 ADD MLOAD DUP2 PUSH1 0x4 ADD SSTORE PUSH2 0x100 DUP3 ADD MLOAD DUP2 PUSH1 0x5 ADD SSTORE PUSH2 0x120 DUP3 ADD MLOAD DUP2 PUSH1 0x6 ADD SSTORE PUSH2 0x140 DUP3 ADD MLOAD DUP2 PUSH1 0x7 ADD SSTORE PUSH2 0x160 DUP3 ADD MLOAD DUP2 PUSH1 0x8 ADD SSTORE SWAP1 POP POP PUSH1 0x40 MLOAD DUP1 PUSH2 0x100 ADD PUSH1 0x40 MSTORE DUP1 PUSH1 0x32 DUP2 MSTORE PUSH1 0x20 ADD PUSH1 0x32 DUP2 MSTORE PUSH1 0x20 ADD PUSH1 0x32 DUP2 MSTORE PUSH1 0x20 ADD PUSH1 0x32 DUP2 MSTORE PUSH1 0x20 ADD PUSH1 0x32 DUP2 MSTORE PUSH1 0x20 ADD PUSH1 0x32 DUP2 MSTORE PUSH1 0x20 ADD PUSH1 0x32 DUP2 MSTORE PUSH1 0x20 ADD PUSH1 0x32 DUP2 MSTORE POP PUSH1 0x3 PUSH1 0x0 DUP4 DUP2 MSTORE PUSH1 0x20 ADD SWAP1 DUP2 MSTORE PUSH1 0x20 ADD PUSH1 0x0 KECCAK256 PUSH1 0x0 DUP3 ADD MLOAD DUP2 PUSH1 0x0 ADD SSTORE PUSH1 0x20 DUP3 ADD MLOAD DUP2 PUSH1 0x1 ADD SSTORE PUSH1 0x40 DUP3 ADD MLOAD DUP2 PUSH1 0x2 ADD SSTORE PUSH1 0x60 DUP3 ADD MLOAD DUP2 PUSH1 0x3 ADD SSTORE PUSH1 0x80 DUP3 ADD MLOAD DUP2 PUSH1 0x4 ADD SSTORE PUSH1 0xA0 DUP3 ADD MLOAD DUP2 PUSH1 0x5 ADD SSTORE PUSH1 0xC0 DUP3 ADD MLOAD DUP2 PUSH1 0x6 ADD SSTORE PUSH1 0xE0 DUP3 ADD MLOAD DUP2 PUSH1 0x7 ADD SSTORE SWAP1 POP POP DUP1 PUSH1 0x1 PUSH1 0x0 CALLER PUSH1 0x1 PUSH1 0x1 PUSH1 0xA0 SHL SUB AND PUSH1 0x1 PUSH1 0x1 PUSH1 0xA0 SHL SUB AND DUP2 MSTORE PUSH1 0x20 ADD SWAP1 DUP2 MSTORE PUSH1 0x20 ADD PUSH1 0x0 KECCAK256 DUP2 SWAP1 SSTORE POP CALLER PUSH1 0x1 PUSH1 0x1 PUSH1 0xA0 SHL SUB AND DUP2 PUSH32 0xB9207AD0E4CE0020587811F8E8E575927896915F4ACD7ED0FD4679612156417B PUSH1 0x40 MLOAD PUSH1 0x40 MLOAD DUP1 SWAP2 SUB SWAP1 LOG3 SWAP2 SWAP1 POP JUMP JUMPDEST PUSH1 0x4 PUSH1 0x20 MSTORE DUP2 PUSH1 0x0 MSTORE PUSH1 0x40 PUSH1 0x0 KECCAK256 DUP2 DUP2 SLOAD DUP2 LT PUSH2 0x864 JUMPI PUSH1 0x0 DUP1 REVERT JUMPDEST PUSH1 0x0 SWAP2 DUP3 MSTORE PUSH1 0x20 SWAP1 SWAP2 KECCAK256 PUSH1 0x5 SWAP1 SWAP2 MUL ADD DUP1 SLOAD PUSH1 0x1 DUP3 ADD SLOAD PUSH1 0x2 DUP4 ADD SLOAD PUSH1 0x3 DUP5 ADD SLOAD PUSH1 0x4 SWAP1 SWAP5 ADD SLOAD SWAP3 SWAP6 POP SWAP1 SWAP4 POP PUSH1 0xFF AND SWAP2 SWAP1 DUP6 JUMP JUMPDEST PUSH2 0x8E1 PUSH1 0x40 MLOAD DUP1 PUSH2 0x100 ADD PUSH1 0x40 MSTORE DUP1 PUSH1 0x0 DUP2 MSTORE PUSH1 0x20 ADD PUSH1 0x0 DUP2 MSTORE PUSH1 0x20 ADD PUSH1 0x0 DUP2 MSTORE PUSH1 0x20 ADD PUSH1 0x0 DUP2 MSTORE PUSH1 0x20 ADD PUSH1 0x0 DUP2 MSTORE PUSH1 0x20 ADD PUSH1 0x0 DUP2 MSTORE PUSH1 0x20 ADD PUSH1 0x0 DUP2 MSTORE PUSH1 0x20 ADD PUSH1 0x0 DUP2 MSTORE POP SWAP1 JUMP JUMPDEST POP PUSH1 0x0 SWAP1 DUP2 MSTORE PUSH1 0x3 PUSH1 0x20 DUP2 DUP2 MSTORE PUSH1 0x40 SWAP3 DUP4 SWAP1 KECCAK256 DUP4 MLOAD PUSH2 0x100 DUP2 ADD DUP6 MSTORE DUP2 SLOAD DUP2 MSTORE PUSH1 0x1 DUP3 ADD SLOAD SWAP3 DUP2 ADD SWAP3 SWAP1 SWAP3 MSTORE PUSH1 0x2 DUP2 ADD SLOAD SWAP4 DUP3 ADD SWAP4 SWAP1 SWAP4 MSTORE SWAP1 DUP3 ADD SLOAD PUSH1 0x60 DUP3 ADD MSTORE PUSH1 0x4 DUP3 ADD SLOAD PUSH1 0x80 DUP3 ADD MSTORE PUSH1 0x5 DUP3 ADD SLOAD PUSH1 0xA0 DUP3 ADD MSTORE PUSH1 0x6 DUP3 ADD SLOAD PUSH1 0xC0 DUP3 ADD MSTORE PUSH1 0x7 SWAP1 SWAP2 ADD SLOAD PUSH1 0xE0 DUP3 ADD MSTORE SWAP1 JUMP JUMPDEST PUSH2 0x956 PUSH2 0xFFC JUMP JUMPDEST PUSH2 0x960 PUSH1 0x0 PUSH2 0x1029 JUMP JUMPDEST JUMP JUMPDEST PUSH2 0x9C6 PUSH1 0x40 DUP1 MLOAD PUSH2 0x180 DUP2 ADD DUP3 MSTORE PUSH1 0x0 DUP1 DUP3 MSTORE PUSH1 0x20 DUP3 ADD DUP2 SWAP1 MSTORE SWAP1 SWAP2 DUP3 ADD SWAP1 DUP2 MSTORE PUSH1 0x20 ADD PUSH1 0x0 DUP2 MSTORE PUSH1 0x20 ADD PUSH1 0x0 DUP2 MSTORE PUSH1 0x20 ADD PUSH1 0x0 DUP2 MSTORE PUSH1 0x20 ADD PUSH1 0x0 DUP2 MSTORE PUSH1 0x20 ADD PUSH1 0x0 DUP2 MSTORE PUSH1 0x20 ADD PUSH1 0x0 DUP2 MSTORE PUSH1 0x20 ADD PUSH1 0x0 DUP2 MSTORE PUSH1 0x20 ADD PUSH1 0x0 DUP2 MSTORE PUSH1 0x20 ADD PUSH1 0x0 DUP2 MSTORE POP SWAP1 JUMP JUMPDEST PUSH1 0x0 DUP3 DUP2 MSTORE PUSH1 0x2 PUSH1 0x20 SWAP1 DUP2 MSTORE PUSH1 0x40 SWAP2 DUP3 SWAP1 KECCAK256 DUP3 MLOAD PUSH2 0x180 DUP2 ADD DUP5 MSTORE DUP2 SLOAD DUP2 MSTORE PUSH1 0x1 DUP3 ADD SLOAD PUSH1 0x1 PUSH1 0x1 PUSH1 0xA0 SHL SUB DUP2 AND SWAP4 DUP3 ADD SWAP4 SWAP1 SWAP4 MSTORE SWAP3 SWAP1 SWAP2 SWAP1 DUP4 ADD SWAP1 PUSH1 0x1 PUSH1 0xA0 SHL SWAP1 DIV PUSH1 0xFF AND PUSH1 0x3 DUP2 GT ISZERO PUSH2 0xA1D JUMPI PUSH2 0xA1D PUSH2 0x110F JUMP JUMPDEST PUSH1 0x3 DUP2 GT ISZERO PUSH2 0xA2E JUMPI PUSH2 0xA2E PUSH2 0x110F JUMP JUMPDEST DUP2 MSTORE PUSH1 0x20 ADD PUSH1 0x1 DUP3 ADD PUSH1 0x15 SWAP1 SLOAD SWAP1 PUSH2 0x100 EXP SWAP1 DIV PUSH1 0xFF AND PUSH1 0x3 DUP2 GT ISZERO PUSH2 0xA56 JUMPI PUSH2 0xA56 PUSH2 0x110F JUMP JUMPDEST PUSH1 0x3 DUP2 GT ISZERO PUSH2 0xA67 JUMPI PUSH2 0xA67 PUSH2 0x110F JUMP JUMPDEST DUP2 MSTORE PUSH1 0x20 ADD PUSH1 0x1 DUP3 ADD PUSH1 0x16 SWAP1 SLOAD SWAP1 PUSH2 0x100 EXP SWAP1 DIV PUSH1 0xFF AND PUSH1 0x3 DUP2 GT ISZERO PUSH2 0xA8F JUMPI PUSH2 0xA8F PUSH2 0x110F JUMP JUMPDEST PUSH1 0x3 DUP2 GT ISZERO PUSH2 0xAA0 JUMPI PUSH2 0xAA0 PUSH2 0x110F JUMP JUMPDEST DUP2 MSTORE PUSH1 0x2 DUP3 ADD SLOAD PUSH1 0x20 DUP3 ADD MSTORE PUSH1 0x3 DUP3 ADD SLOAD PUSH1 0x40 DUP3 ADD MSTORE PUSH1 0x4 DUP3 ADD SLOAD PUSH1 0x60 DUP3 ADD MSTORE PUSH1 0x5 DUP3 ADD SLOAD PUSH1 0x80 DUP3 ADD MSTORE PUSH1 0x6 DUP3 ADD SLOAD PUSH1 0xA0 DUP3 ADD MSTORE PUSH1 0x7 DUP3 ADD SLOAD PUSH1 0xC0 DUP3 ADD MSTORE PUSH1 0x8 SWAP1 SWAP2 ADD SLOAD PUSH1 0xE0 SWAP1 SWAP2 ADD MSTORE SWAP3 SWAP2 POP POP JUMP JUMPDEST PUSH1 0x60 PUSH1 0x4 PUSH1 0x0 DUP4 DUP2 MSTORE PUSH1 0x20 ADD SWAP1 DUP2 MSTORE PUSH1 0x20 ADD PUSH1 0x0 KECCAK256 DUP1 SLOAD DUP1 PUSH1 0x20 MUL PUSH1 0x20 ADD PUSH1 0x40 MLOAD SWAP1 DUP2 ADD PUSH1 0x40 MSTORE DUP1 SWAP3 SWAP2 SWAP1 DUP2 DUP2 MSTORE PUSH1 0x20 ADD PUSH1 0x0 SWAP1 JUMPDEST DUP3 DUP3 LT ISZERO PUSH2 0xB88 JUMPI PUSH1 0x0 DUP5 DUP2 MSTORE PUSH1 0x20 SWAP1 DUP2 SWAP1 KECCAK256 PUSH1 0x40 DUP1 MLOAD PUSH1 0xA0 DUP2 ADD DUP3 MSTORE PUSH1 0x5 DUP7 MUL SWAP1 SWAP3 ADD DUP1 SLOAD DUP4 MSTORE PUSH1 0x1 DUP1 DUP3 ADD SLOAD DUP5 DUP7 ADD MSTORE PUSH1 0x2 DUP3 ADD SLOAD PUSH1 0xFF AND ISZERO ISZERO SWAP3 DUP5 ADD SWAP3 SWAP1 SWAP3 MSTORE PUSH1 0x3 DUP2 ADD SLOAD PUSH1 0x60 DUP5 ADD MSTORE PUSH1 0x4 ADD SLOAD PUSH1 0x80 DUP4 ADD MSTORE SWAP1 DUP4 MSTORE SWAP1 SWAP3 ADD SWAP2 ADD PUSH2 0xB25 JUMP JUMPDEST POP POP POP POP SWAP1 POP SWAP2 SWAP1 POP JUMP JUMPDEST PUSH2 0xB9B PUSH2 0xFFC JUMP JUMPDEST PUSH1 0x1 PUSH1 0x1 PUSH1 0xA0 SHL SUB DUP2 AND PUSH2 0xBC5 JUMPI PUSH1 0x40 MLOAD PUSH4 0x1E4FBDF7 PUSH1 0xE0 SHL DUP2 MSTORE PUSH1 0x0 PUSH1 0x4 DUP3 ADD MSTORE PUSH1 0x24 ADD PUSH2 0x3F7 JUMP JUMPDEST PUSH2 0xBCE DUP2 PUSH2 0x1029 JUMP JUMPDEST POP JUMP JUMPDEST PUSH1 0x0 DUP2 DUP2 MSTORE PUSH1 0x2 PUSH1 0x20 DUP2 DUP2 MSTORE PUSH1 0x40 DUP1 DUP5 KECCAK256 PUSH1 0x3 SWAP1 SWAP3 MSTORE SWAP1 SWAP3 KECCAK256 SWAP1 DUP3 ADD SLOAD ISZERO PUSH2 0xDD1 JUMPI PUSH1 0x2 DUP3 ADD SLOAD PUSH2 0xC03 SWAP1 PUSH1 0x64 PUSH2 0x136C JUMP JUMPDEST PUSH1 0x4 DUP4 ADD SLOAD PUSH2 0xC13 SWAP1 PUSH1 0x64 PUSH2 0x136C JUMP JUMPDEST PUSH2 0xC1D SWAP2 SWAP1 PUSH2 0x1383 JUMP JUMPDEST DUP1 DUP3 SSTORE PUSH1 0x64 LT ISZERO PUSH2 0xC2D JUMPI PUSH1 0x64 DUP2 SSTORE JUMPDEST PUSH1 0x2 DUP3 ADD SLOAD PUSH1 0x5 DUP4 ADD SLOAD PUSH2 0xC42 SWAP1 PUSH1 0x64 PUSH2 0x136C JUMP JUMPDEST PUSH2 0xC4C SWAP2 SWAP1 PUSH2 0x1383 JUMP JUMPDEST PUSH1 0x1 DUP3 ADD SSTORE PUSH1 0x2 DUP3 ADD SLOAD PUSH1 0x3 DUP4 ADD SLOAD PUSH2 0xC66 SWAP1 PUSH1 0x64 PUSH2 0x136C JUMP JUMPDEST PUSH2 0xC70 SWAP2 SWAP1 PUSH2 0x1383 JUMP JUMPDEST PUSH1 0x7 DUP3 ADD SSTORE PUSH1 0x2 DUP3 ADD SLOAD PUSH1 0xA LT ISZERO PUSH2 0xDD1 JUMPI PUSH1 0x0 DUP4 DUP2 MSTORE PUSH1 0x4 PUSH1 0x20 MSTORE PUSH1 0x40 DUP2 KECCAK256 DUP1 SLOAD SWAP1 SWAP2 SWAP1 DUP2 SWAP1 DUP2 SWAP1 PUSH1 0xA LT PUSH2 0xCA7 JUMPI PUSH1 0x0 PUSH2 0xCB5 JUMP JUMPDEST DUP4 SLOAD PUSH2 0xCB5 SWAP1 PUSH1 0xA SWAP1 PUSH2 0x13A5 JUMP JUMPDEST SWAP1 POP DUP1 JUMPDEST DUP5 SLOAD DUP2 LT ISZERO PUSH2 0xD13 JUMPI DUP5 DUP2 DUP2 SLOAD DUP2 LT PUSH2 0xCD4 JUMPI PUSH2 0xCD4 PUSH2 0x13B8 JUMP JUMPDEST SWAP1 PUSH1 0x0 MSTORE PUSH1 0x20 PUSH1 0x0 KECCAK256 SWAP1 PUSH1 0x5 MUL ADD PUSH1 0x1 ADD SLOAD DUP5 PUSH2 0xCF1 SWAP2 SWAP1 PUSH2 0x1353 JUMP JUMPDEST SWAP4 POP DUP3 PUSH2 0xCFD DUP2 PUSH2 0x133A JUMP JUMPDEST SWAP4 POP POP DUP1 DUP1 PUSH2 0xD0B SWAP1 PUSH2 0x133A JUMP JUMPDEST SWAP2 POP POP PUSH2 0xCB9 JUMP JUMPDEST POP DUP2 ISZERO PUSH2 0xDCC JUMPI PUSH1 0x0 PUSH2 0xD26 DUP4 DUP6 PUSH2 0x1383 JUMP JUMPDEST SWAP1 POP PUSH1 0x46 DUP2 GT ISZERO PUSH2 0xD94 JUMPI PUSH1 0x64 DUP7 PUSH1 0x4 ADD SLOAD PUSH1 0xA PUSH2 0xD44 SWAP2 SWAP1 PUSH2 0x1353 JUMP JUMPDEST GT PUSH2 0xD5E JUMPI PUSH1 0x4 DUP7 ADD SLOAD PUSH2 0xD59 SWAP1 PUSH1 0xA PUSH2 0x1353 JUMP JUMPDEST PUSH2 0xD61 JUMP JUMPDEST PUSH1 0x64 JUMPDEST PUSH1 0x4 DUP8 ADD SSTORE PUSH1 0x5 DUP7 ADD SLOAD PUSH1 0xA LT PUSH2 0xD79 JUMPI PUSH1 0x0 PUSH2 0xD8A JUMP JUMPDEST PUSH1 0xA DUP7 PUSH1 0x5 ADD SLOAD PUSH2 0xD8A SWAP2 SWAP1 PUSH2 0x13A5 JUMP JUMPDEST PUSH1 0x5 DUP8 ADD SSTORE PUSH2 0xDCA JUMP JUMPDEST PUSH1 0x64 DUP7 PUSH1 0x2 ADD SLOAD PUSH1 0x5 PUSH2 0xDA7 SWAP2 SWAP1 PUSH2 0x1353 JUMP JUMPDEST GT PUSH2 0xDC1 JUMPI PUSH1 0x2 DUP7 ADD SLOAD PUSH2 0xDBC SWAP1 PUSH1 0x5 PUSH2 0x1353 JUMP JUMPDEST PUSH2 0xDC4 JUMP JUMPDEST PUSH1 0x64 JUMPDEST PUSH1 0x2 DUP8 ADD SSTORE JUMPDEST POP JUMPDEST POP POP POP POP JUMPDEST PUSH1 0x40 MLOAD DUP4 SWAP1 PUSH32 0x6DE4F81E1BBDBDE232107551180E40AD675CF47DF83C6B8CD6C781B49A0AC54F SWAP1 PUSH1 0x0 SWAP1 LOG2 POP POP POP JUMP JUMPDEST PUSH1 0x0 DUP2 DUP2 MSTORE PUSH1 0x2 PUSH1 0x20 SWAP1 DUP2 MSTORE PUSH1 0x40 DUP1 DUP4 KECCAK256 PUSH1 0x3 SWAP1 SWAP3 MSTORE SWAP1 SWAP2 KECCAK256 DUP1 SLOAD PUSH1 0x1E GT ISZERO PUSH2 0xE46 JUMPI PUSH1 0x1 DUP3 ADD DUP1 SLOAD PUSH1 0x0 SWAP2 SWAP1 PUSH1 0xFF PUSH1 0xA0 SHL NOT AND PUSH1 0x1 PUSH1 0xA0 SHL DUP4 JUMPDEST MUL OR SWAP1 SSTORE POP PUSH2 0xEA5 JUMP JUMPDEST DUP1 SLOAD PUSH1 0x3C GT ISZERO PUSH2 0xE69 JUMPI PUSH1 0x1 DUP3 DUP2 ADD DUP1 SLOAD PUSH1 0xFF PUSH1 0xA0 SHL NOT AND PUSH1 0x1 PUSH1 0xA0 SHL DUP4 PUSH2 0xE3C JUMP JUMPDEST DUP1 SLOAD PUSH1 0x55 GT ISZERO PUSH2 0xE8F JUMPI PUSH1 0x1 DUP3 ADD DUP1 SLOAD PUSH1 0x2 SWAP2 SWAP1 PUSH1 0xFF PUSH1 0xA0 SHL NOT AND PUSH1 0x1 PUSH1 0xA0 SHL DUP4 PUSH2 0xE3C JUMP JUMPDEST PUSH1 0x1 DUP3 ADD DUP1 SLOAD PUSH1 0xFF PUSH1 0xA0 SHL NOT AND PUSH1 0x3 PUSH1 0xA0 SHL OR SWAP1 SSTORE JUMPDEST PUSH1 0x46 DUP2 PUSH1 0x1 ADD SLOAD GT ISZERO PUSH2 0xED4 JUMPI PUSH1 0x1 DUP3 ADD DUP1 SLOAD PUSH1 0x0 SWAP2 SWAP1 PUSH1 0xFF PUSH1 0xA8 SHL NOT AND PUSH1 0x1 PUSH1 0xA8 SHL DUP4 JUMPDEST MUL OR SWAP1 SSTORE POP PUSH2 0xF10 JUMP JUMPDEST PUSH1 0x1E DUP2 PUSH1 0x1 ADD SLOAD LT ISZERO PUSH2 0xEFA JUMPI PUSH1 0x1 DUP3 DUP2 ADD DUP1 SLOAD PUSH1 0xFF PUSH1 0xA8 SHL NOT AND PUSH1 0x1 PUSH1 0xA8 SHL DUP4 PUSH2 0xECA JUMP JUMPDEST PUSH1 0x1 DUP3 ADD DUP1 SLOAD PUSH1 0xFF PUSH1 0xA8 SHL NOT AND PUSH1 0x1 PUSH1 0xA9 SHL OR SWAP1 SSTORE JUMPDEST PUSH1 0x46 DUP2 PUSH1 0x4 ADD SLOAD GT ISZERO PUSH2 0xF3F JUMPI PUSH1 0x1 DUP3 ADD DUP1 SLOAD PUSH1 0x0 SWAP2 SWAP1 PUSH1 0xFF PUSH1 0xB0 SHL NOT AND PUSH1 0x1 PUSH1 0xB0 SHL DUP4 JUMPDEST MUL OR SWAP1 SSTORE POP PUSH2 0xFA4 JUMP JUMPDEST PUSH1 0x46 DUP2 PUSH1 0x2 ADD SLOAD GT ISZERO PUSH2 0xF65 JUMPI PUSH1 0x1 DUP3 DUP2 ADD DUP1 SLOAD PUSH1 0xFF PUSH1 0xB0 SHL NOT AND PUSH1 0x1 PUSH1 0xB0 SHL DUP4 PUSH2 0xF35 JUMP JUMPDEST PUSH1 0x46 DUP2 PUSH1 0x3 ADD SLOAD GT ISZERO PUSH2 0xF8E JUMPI PUSH1 0x1 DUP3 ADD DUP1 SLOAD PUSH1 0x2 SWAP2 SWAP1 PUSH1 0xFF PUSH1 0xB0 SHL NOT AND PUSH1 0x1 PUSH1 0xB0 SHL DUP4 PUSH2 0xF35 JUMP JUMPDEST PUSH1 0x1 DUP3 ADD DUP1 SLOAD PUSH1 0xFF PUSH1 0xB0 SHL NOT AND PUSH1 0x3 PUSH1 0xB0 SHL OR SWAP1 SSTORE JUMPDEST PUSH1 0x1 DUP3 ADD SLOAD PUSH1 0x40 MLOAD DUP5 SWAP2 PUSH32 0x95192AF0A09EF09E42C6CB627AF371565DC4889629AFA6E3C198144DCAE33D5E SWAP2 PUSH2 0xFEF SWAP2 PUSH1 0xFF PUSH1 0x1 PUSH1 0xA0 SHL DUP3 DIV DUP2 AND SWAP3 PUSH1 0x1 PUSH1 0xA8 SHL SWAP1 SWAP3 DIV AND SWAP1 PUSH2 0x13CE JUMP JUMPDEST PUSH1 0x40 MLOAD DUP1 SWAP2 SUB SWAP1 LOG2 POP POP POP JUMP JUMPDEST PUSH1 0x0 SLOAD PUSH1 0x1 PUSH1 0x1 PUSH1 0xA0 SHL SUB AND CALLER EQ PUSH2 0x960 JUMPI PUSH1 0x40 MLOAD PUSH4 0x118CDAA7 PUSH1 0xE0 SHL DUP2 MSTORE CALLER PUSH1 0x4 DUP3 ADD MSTORE PUSH1 0x24 ADD PUSH2 0x3F7 JUMP JUMPDEST PUSH1 0x0 DUP1 SLOAD PUSH1 0x1 PUSH1 0x1 PUSH1 0xA0 SHL SUB DUP4 DUP2 AND PUSH1 0x1 PUSH1 0x1 PUSH1 0xA0 SHL SUB NOT DUP4 AND DUP2 OR DUP5 SSTORE PUSH1 0x40 MLOAD SWAP2 SWAP1 SWAP3 AND SWAP3 DUP4 SWAP2 PUSH32 0x8BE0079C531659141344CD1FD0A4F28419497F9722A3DAAFE3B4186F6B6457E0 SWAP2 SWAP1 LOG3 POP POP JUMP JUMPDEST DUP1 CALLDATALOAD DUP1 ISZERO ISZERO DUP2 EQ PUSH2 0x1089 JUMPI PUSH1 0x0 DUP1 REVERT JUMPDEST SWAP2 SWAP1 POP JUMP JUMPDEST PUSH1 0x0 DUP1 PUSH1 0x0 DUP1 PUSH1 0x80 DUP6 DUP8 SUB SLT ISZERO PUSH2 0x10A4 JUMPI PUSH1 0x0 DUP1 REVERT JUMPDEST DUP5 CALLDATALOAD SWAP4 POP PUSH1 0x20 DUP6 ADD CALLDATALOAD SWAP3 POP PUSH2 0x10BB PUSH1 0x40 DUP7 ADD PUSH2 0x1079 JUMP JUMPDEST SWAP2 POP PUSH2 0x10C9 PUSH1 0x60 DUP7 ADD PUSH2 0x1079 JUMP JUMPDEST SWAP1 POP SWAP3 SWAP6 SWAP2 SWAP5 POP SWAP3 POP JUMP JUMPDEST PUSH1 0x0 DUP1 PUSH1 0x40 DUP4 DUP6 SUB SLT ISZERO PUSH2 0x10E7 JUMPI PUSH1 0x0 DUP1 REVERT JUMPDEST POP POP DUP1 CALLDATALOAD SWAP3 PUSH1 0x20 SWAP1 SWAP2 ADD CALLDATALOAD SWAP2 POP JUMP JUMPDEST PUSH1 0x0 PUSH1 0x20 DUP3 DUP5 SUB SLT ISZERO PUSH2 0x1108 JUMPI PUSH1 0x0 DUP1 REVERT JUMPDEST POP CALLDATALOAD SWAP2 SWAP1 POP JUMP JUMPDEST PUSH4 0x4E487B71 PUSH1 0xE0 SHL PUSH1 0x0 MSTORE PUSH1 0x21 PUSH1 0x4 MSTORE PUSH1 0x24 PUSH1 0x0 REVERT JUMPDEST PUSH1 0x4 DUP2 LT PUSH2 0xBCE JUMPI PUSH4 0x4E487B71 PUSH1 0xE0 SHL PUSH1 0x0 MSTORE PUSH1 0x21 PUSH1 0x4 MSTORE PUSH1 0x24 PUSH1 0x0 REVERT JUMPDEST PUSH2 0x114C DUP2 PUSH2 0x1125 JUMP JUMPDEST SWAP1 MSTORE JUMP JUMPDEST DUP2 MLOAD DUP2 MSTORE PUSH1 0x20 DUP1 DUP4 ADD MLOAD PUSH2 0x180 DUP4 ADD SWAP2 PUSH2 0x1174 SWAP1 DUP5 ADD DUP3 PUSH1 0x1 PUSH1 0x1 PUSH1 0xA0 SHL SUB AND SWAP1 MSTORE JUMP JUMPDEST POP PUSH1 0x40 DUP4 ADD MLOAD PUSH2 0x1187 PUSH1 0x40 DUP5 ADD DUP3 PUSH2 0x1143 JUMP JUMPDEST POP PUSH1 0x60 DUP4 ADD MLOAD PUSH2 0x119A PUSH1 0x60 DUP5 ADD DUP3 PUSH2 0x1143 JUMP JUMPDEST POP PUSH1 0x80 DUP4 ADD MLOAD PUSH2 0x11AD PUSH1 0x80 DUP5 ADD DUP3 PUSH2 0x1143 JUMP JUMPDEST POP PUSH1 0xA0 DUP4 ADD MLOAD PUSH1 0xA0 DUP4 ADD MSTORE PUSH1 0xC0 DUP4 ADD MLOAD PUSH1 0xC0 DUP4 ADD MSTORE PUSH1 0xE0 DUP4 ADD MLOAD PUSH1 0xE0 DUP4 ADD MSTORE PUSH2 0x100 DUP1 DUP5 ADD MLOAD DUP2 DUP5 ADD MSTORE POP PUSH2 0x120 DUP1 DUP5 ADD MLOAD DUP2 DUP5 ADD MSTORE POP PUSH2 0x140 DUP1 DUP5 ADD MLOAD DUP2 DUP5 ADD MSTORE POP PUSH2 0x160 DUP1 DUP5 ADD MLOAD DUP2 DUP5 ADD MSTORE POP SWAP3 SWAP2 POP POP JUMP JUMPDEST PUSH1 0x20 DUP1 DUP3 MSTORE DUP3 MLOAD DUP3 DUP3 ADD DUP2 SWAP1 MSTORE PUSH1 0x0 SWAP2 SWAP1 PUSH1 0x40 SWAP1 DUP2 DUP6 ADD SWAP1 DUP7 DUP5 ADD DUP6 JUMPDEST DUP3 DUP2 LT ISZERO PUSH2 0x1265 JUMPI DUP2 MLOAD DUP1 MLOAD DUP6 MSTORE DUP7 DUP2 ADD MLOAD DUP8 DUP7 ADD MSTORE DUP6 DUP2 ADD MLOAD ISZERO ISZERO DUP7 DUP7 ADD MSTORE PUSH1 0x60 DUP1 DUP3 ADD MLOAD SWAP1 DUP7 ADD MSTORE PUSH1 0x80 SWAP1 DUP2 ADD MLOAD SWAP1 DUP6 ADD MSTORE PUSH1 0xA0 SWAP1 SWAP4 ADD SWAP3 SWAP1 DUP6 ADD SWAP1 PUSH1 0x1 ADD PUSH2 0x121F JUMP JUMPDEST POP SWAP2 SWAP8 SWAP7 POP POP POP POP POP POP POP JUMP JUMPDEST DUP13 DUP2 MSTORE PUSH1 0x1 PUSH1 0x1 PUSH1 0xA0 SHL SUB DUP13 AND PUSH1 0x20 DUP3 ADD MSTORE PUSH2 0x180 DUP2 ADD PUSH2 0x1292 DUP13 PUSH2 0x1125 JUMP JUMPDEST DUP12 PUSH1 0x40 DUP4 ADD MSTORE PUSH2 0x12A1 DUP12 PUSH2 0x1125 JUMP JUMPDEST DUP11 PUSH1 0x60 DUP4 ADD MSTORE PUSH2 0x12B0 DUP11 PUSH2 0x1125 JUMP JUMPDEST PUSH1 0x80 DUP3 ADD SWAP10 SWAP1 SWAP10 MSTORE PUSH1 0xA0 DUP2 ADD SWAP8 SWAP1 SWAP8 MSTORE PUSH1 0xC0 DUP8 ADD SWAP6 SWAP1 SWAP6 MSTORE PUSH1 0xE0 DUP7 ADD SWAP4 SWAP1 SWAP4 MSTORE PUSH2 0x100 DUP6 ADD SWAP2 SWAP1 SWAP2 MSTORE PUSH2 0x120 DUP5 ADD MSTORE PUSH2 0x140 DUP4 ADD MSTORE PUSH2 0x160 SWAP1 SWAP2 ADD MSTORE SWAP5 SWAP4 POP POP POP POP JUMP JUMPDEST PUSH1 0x0 PUSH1 0x20 DUP3 DUP5 SUB SLT ISZERO PUSH2 0x1306 JUMPI PUSH1 0x0 DUP1 REVERT JUMPDEST DUP2 CALLDATALOAD PUSH1 0x1 PUSH1 0x1 PUSH1 0xA0 SHL SUB DUP2 AND DUP2 EQ PUSH2 0x131D JUMPI PUSH1 0x0 DUP1 REVERT JUMPDEST SWAP4 SWAP3 POP POP POP JUMP JUMPDEST PUSH4 0x4E487B71 PUSH1 0xE0 SHL PUSH1 0x0 MSTORE PUSH1 0x11 PUSH1 0x4 MSTORE PUSH1 0x24 PUSH1 0x0 REVERT JUMPDEST PUSH1 0x0 PUSH1 0x1 DUP3 ADD PUSH2 0x134C JUMPI PUSH2 0x134C PUSH2 0x1324 JUMP JUMPDEST POP PUSH1 0x1 ADD SWAP1 JUMP JUMPDEST DUP1 DUP3 ADD DUP1 DUP3 GT ISZERO PUSH2 0x1366 JUMPI PUSH2 0x1366 PUSH2 0x1324 JUMP JUMPDEST SWAP3 SWAP2 POP POP JUMP JUMPDEST DUP1 DUP3 MUL DUP2 ISZERO DUP3 DUP3 DIV DUP5 EQ OR PUSH2 0x1366 JUMPI PUSH2 0x1366 PUSH2 0x1324 JUMP JUMPDEST PUSH1 0x0 DUP3 PUSH2 0x13A0 JUMPI PUSH4 0x4E487B71 PUSH1 0xE0 SHL PUSH1 0x0 MSTORE PUSH1 0x12 PUSH1 0x4 MSTORE PUSH1 0x24 PUSH1 0x0 REVERT JUMPDEST POP DIV SWAP1 JUMP JUMPDEST DUP2 DUP2 SUB DUP2 DUP2 GT ISZERO PUSH2 0x1366 JUMPI PUSH2 0x1366 PUSH2 0x1324 JUMP JUMPDEST PUSH4 0x4E487B71 PUSH1 0xE0 SHL PUSH1 0x0 MSTORE PUSH1 0x32 PUSH1 0x4 MSTORE PUSH1 0x24 PUSH1 0x0 REVERT JUMPDEST PUSH1 0x40 DUP2 ADD PUSH2 0x13DB DUP5 PUSH2 0x1125 JUMP JUMPDEST DUP4 DUP3 MSTORE PUSH2 0x13E7 DUP4 PUSH2 0x1125 JUMP JUMPDEST DUP3 PUSH1 0x20 DUP4 ADD MSTORE SWAP4 SWAP3 POP POP POP JUMP INVALID LOG2 PUSH5 0x6970667358 0x22 SLT KECCAK256 DUP9 0xD6 JUMPDEST SWAP8 LOG2 0xA7 DUP4 0x4D PUSH5 0x3AB8C9F54A COINBASE PUSH19 0x5B9EFBF27673551A3C0F868B75E116C764736F PUSH13 0x63430008140033000000000000 "},"methodIdentifiers":{"addressToIdentity(address)":"eb4e9b09","behavioralDNA(uint256)":"92275397","createIdentity()":"59d21ad9","decisionHistory(uint256,uint256)":"6f0aaa4c","getBehavioralDNA(uint256)":"704396da","getDecisionHistory(uint256)":"91228cec","getIdentity(uint256)":"85e3f058","getIdentityByAddress(address)":"f2f5cd1d","identities(uint256)":"eaaf77e6","owner()":"8da5cb5b","recordDecision(uint256,uint256,bool,bool)":"1a113b25","renounceOwnership()":"715018a6","transferOwnership(address)":"f2fde38b"}}}}}