{"contracts/layer3/temporal/HistoricalValue.sol":{"HistoricalValue":{"abi":[{"inputs":[],"stateMutability":"nonpayable","type":"constructor"},{"inputs":[{"internalType":"address","name":"owner","type":"address"}],"name":"OwnableInvalidOwner","type":"error"},{"inputs":[{"internalType":"address","name":"account","type":"address"}],"name":"OwnableUnauthorizedAccount","type":"error"},{"anonymous":false,"inputs":[{"indexed":true,"internalType":"uint256","name":"entityId","type":"uint256"},{"indexed":false,"internalType":"enum HistoricalValue.EventType","name":"eventType","type":"uint8"},{"indexed":false,"internalType":"uint256","name":"impactScore","type":"uint256"}],"name":"EventRecorded","type":"event"},{"anonymous":false,"inputs":[{"indexed":true,"internalType":"address","name":"previousOwner","type":"address"},{"indexed":true,"internalType":"address","name":"newOwner","type":"address"}],"name":"OwnershipTransferred","type":"event"},{"anonymous":false,"inputs":[{"indexed":true,"internalType":"uint256","name":"entityId","type":"uint256"},{"indexed":false,"internalType":"enum HistoricalValue.Trajectory","name":"newTrajectory","type":"uint8"}],"name":"TrajectoryChanged","type":"event"},{"inputs":[{"internalType":"uint256","name":"entityId","type":"uint256"},{"internalType":"uint256","name":"baseValue","type":"uint256"}],"name":"calculateHistoricalValue","outputs":[{"internalType":"uint256","name":"","type":"uint256"}],"stateMutability":"view","type":"function"},{"inputs":[{"internalType":"uint256","name":"entityId","type":"uint256"}],"name":"calculateTrajectory","outputs":[{"internalType":"enum HistoricalValue.Trajectory","name":"","type":"uint8"}],"stateMutability":"nonpayable","type":"function"},{"inputs":[{"internalType":"uint256","name":"","type":"uint256"},{"internalType":"uint256","name":"","type":"uint256"}],"name":"entityEvents","outputs":[{"internalType":"uint256","name":"id","type":"uint256"},{"internalType":"uint256","name":"entityId","type":"uint256"},{"internalType":"enum HistoricalValue.EventType","name":"eventType","type":"uint8"},{"internalType":"string","name":"description","type":"string"},{"internalType":"uint256","name":"timestamp","type":"uint256"},{"internalType":"uint256","name":"impactScore","type":"uint256"},{"internalType":"bytes32","name":"dataHash","type":"bytes32"}],"stateMutability":"view","type":"function"},{"inputs":[{"internalType":"uint256","name":"","type":"uint256"}],"name":"entityHistory","outputs":[{"internalType":"uint256","name":"totalEvents","type":"uint256"},{"internalType":"uint256","name":"achievementCount","type":"uint256"},{"internalType":"uint256","name":"totalImpact","type":"uint256"},{"internalType":"uint256","name":"firstEventTime","type":"uint256"},{"internalType":"uint256","name":"lastEventTime","type":"uint256"},{"internalType":"enum HistoricalValue.Trajectory","name":"currentTrajectory","type":"uint8"}],"stateMutability":"view","type":"function"},{"inputs":[],"name":"eventCount","outputs":[{"internalType":"uint256","name":"","type":"uint256"}],"stateMutability":"view","type":"function"},{"inputs":[{"internalType":"uint256","name":"entityId","type":"uint256"}],"name":"getEvents","outputs":[{"components":[{"internalType":"uint256","name":"id","type":"uint256"},{"internalType":"uint256","name":"entityId","type":"uint256"},{"internalType":"enum HistoricalValue.EventType","name":"eventType","type":"uint8"},{"internalType":"string","name":"description","type":"string"},{"internalType":"uint256","name":"timestamp","type":"uint256"},{"internalType":"uint256","name":"impactScore","type":"uint256"},{"internalType":"bytes32","name":"dataHash","type":"bytes32"}],"internalType":"struct HistoricalValue.HistoricalEvent[]","name":"","type":"tuple[]"}],"stateMutability":"view","type":"function"},{"inputs":[],"name":"owner","outputs":[{"internalType":"address","name":"","type":"address"}],"stateMutability":"view","type":"function"},{"inputs":[{"internalType":"uint256","name":"entityId","type":"uint256"},{"internalType":"enum HistoricalValue.EventType","name":"eventType","type":"uint8"},{"internalType":"string","name":"description","type":"string"},{"internalType":"uint256","name":"impactScore","type":"uint256"},{"internalType":"bytes32","name":"dataHash","type":"bytes32"}],"name":"recordEvent","outputs":[],"stateMutability":"nonpayable","type":"function"},{"inputs":[],"name":"renounceOwnership","outputs":[],"stateMutability":"nonpayable","type":"function"},{"inputs":[{"internalType":"address","name":"newOwner","type":"address"}],"name":"transferOwnership","outputs":[],"stateMutability":"nonpayable","type":"function"}],"evm":{"bytecode":{"linkReferences":{},"object":"608060405234801561001057600080fd5b50338061003757604051631e4fbdf760e01b81526000600482015260240160405180910390fd5b61004081610046565b50610096565b600080546001600160a01b038381166001600160a01b0319831681178455604051919092169283917f8be0079c531659141344cd1fd0a4f28419497f9722a3daafe3b4186f6b6457e09190a35050565b6110aa806100a56000396000f3fe608060405234801561001057600080fd5b506004361061009e5760003560e01c80639402c479116100665780639402c4791461011b578063bd687def14610141578063c6b94c4314610161578063da9b4223146101bb578063f2fde38b146101ce57600080fd5b8063231589f7146100a3578063577ef701146100b8578063715018a6146100e157806371be2e4a146100e95780638da5cb5b14610100575b600080fd5b6100b66100b1366004610b40565b6101e1565b005b6100cb6100c6366004610c23565b6103b9565b6040516100d89190610c66565b60405180910390f35b6100b66105f5565b6100f260035481565b6040519081526020016100d8565b6000546040516001600160a01b0390911681526020016100d8565b61012e610129366004610c74565b610609565b6040516100d89796959493929190610cec565b61015461014f366004610c23565b6106f0565b6040516100d89190610d37565b6101a961016f366004610c23565b6002602081905260009182526040909120805460018201549282015460038301546004840154600590940154929493919290919060ff1686565b6040516100d896959493929190610dea565b6100f26101c9366004610c74565b61085f565b6100b66101dc366004610e25565b610915565b600380549060006101f183610e6b565b919050555060006040518060e00160405280600354815260200187815260200186600581111561022357610223610c3c565b8152602080820187905242604080840191909152606083018790526080909201859052600089815260018083528382208054808301825590835291839020855160079093020191825591840151818301559183015160028301805494955085949192909160ff19169083600581111561029e5761029e610c3c565b0217905550606082015160038201906102b79082610f0d565b506080820151600482015560a0820151600582015560c090910151600690910155600086815260026020526040812080549091036102f6574260038201555b805481600061030483610e6b565b91905055508381600201600082825461031d9190610fcd565b9091555050426004820155600086600581111561033c5761033c610c3c565b14806103595750600586600581111561035757610357610c3c565b145b156103765760018101805490600061037083610e6b565b91905055505b867f1a4240505483ebd3a43ffc83f57300fb8c26b98b18da4242d5cb8adeca9e3b5b87866040516103a8929190610fe0565b60405180910390a250505050505050565b60008181526002602052604081208054600311156103da5750600192915050565b600080806103eb62278d0042610ffb565b60008781526001602052604090208054919250905b6000811180156104105750600a84105b156104a5578282610422600184610ffb565b815481106104325761043261100e565b90600052602060002090600702016004015411156104935781610456600183610ffb565b815481106104665761046661100e565b906000526020600020906007020160050154856104839190610fcd565b94508361048f81610e6b565b9450505b8061049d81611024565b915050610400565b50826000036104bb575060029695505050505050565b60006104c7848661103b565b90506000866000015487600201546104df919061103b565b90506000600a6104f083600f61105d565b6104fa919061103b565b83111561050957506003610559565b600a61051683600b61105d565b610520919061103b565b83111561052f57506000610559565b600a61053c83600961105d565b610546919061103b565b83101561055557506002610559565b5060015b600588015460ff16600381111561057257610572610c3c565b81600381111561058457610584610c3c565b146105e85760058801805482919060ff191660018360038111156105aa576105aa610c3c565b0217905550897fd1f971eb231fa6149f67e90cca6b67329107156b1f4f798a5ed4148405d3b121826040516105df9190610c66565b60405180910390a25b9998505050505050505050565b6105fd610958565b6106076000610985565b565b6001602052816000526040600020818154811061062557600080fd5b6000918252602090912060079091020180546001820154600283015460038401805493965091945060ff16929161065b90610e84565b80601f016020809104026020016040519081016040528092919081815260200182805461068790610e84565b80156106d45780601f106106a9576101008083540402835291602001916106d4565b820191906000526020600020905b8154815290600101906020018083116106b757829003601f168201915b5050505050908060040154908060050154908060060154905087565b606060016000838152602001908152602001600020805480602002602001604051908101604052809291908181526020016000905b8282101561085457838290600052602060002090600702016040518060e001604052908160008201548152602001600182015481526020016002820160009054906101000a900460ff16600581111561078057610780610c3c565b600581111561079157610791610c3c565b81526020016003820180546107a590610e84565b80601f01602080910402602001604051908101604052809291908181526020018280546107d190610e84565b801561081e5780601f106107f35761010080835404028352916020019161081e565b820191906000526020600020905b81548152906001019060200180831161080157829003601f168201915b50505050508152602001600482015481526020016005820154815260200160068201548152505081526020019060010190610725565b505050509050919050565b60008281526002602052604081206001810154829061087f90603261105d565b905060646000600584015460ff16600381111561089e5761089e610c3c565b036108ab575060966108cf565b6003600584015460ff1660038111156108c6576108c6610c3c565b036108cf575060c85b60006108da876109d5565b9050806064836108ea868a610fcd565b6108f4919061105d565b6108fe919061103b565b6109089190610fcd565b9450505050505b92915050565b61091d610958565b6001600160a01b03811661094c57604051631e4fbdf760e01b8152600060048201526024015b60405180910390fd5b61095581610985565b50565b6000546001600160a01b031633146106075760405163118cdaa760e01b8152336004820152602401610943565b600080546001600160a01b038381166001600160a01b0319831681178455604051919092169283917f8be0079c531659141344cd1fd0a4f28419497f9722a3daafe3b4186f6b6457e09190a35050565b60008181526001602052604081208054600511156109f65750600092915050565b60008060008060005b8554811015610aec576002868281548110610a1c57610a1c61100e565b600091825260209091206002600790920201015460ff166005811115610a4457610a44610c3c565b03610a4e57600193505b6003868281548110610a6257610a6261100e565b600091825260209091206002600790920201015460ff166005811115610a8a57610a8a610c3c565b03610a9457600192505b6005868281548110610aa857610aa861100e565b600091825260209091206002600790920201015460ff166005811115610ad057610ad0610c3c565b03610ada57600191505b80610ae481610e6b565b9150506109ff565b50828015610af75750815b15610b0a57610b0760c885610fcd565b93505b8015610b1f57610b1c61012c85610fcd565b93505b509195945050505050565b634e487b7160e01b600052604160045260246000fd5b600080600080600060a08688031215610b5857600080fd5b85359450602086013560068110610b6e57600080fd5b9350604086013567ffffffffffffffff80821115610b8b57600080fd5b818801915088601f830112610b9f57600080fd5b813581811115610bb157610bb1610b2a565b604051601f8201601f19908116603f01168101908382118183101715610bd957610bd9610b2a565b816040528281528b6020848701011115610bf257600080fd5b8260208601602083013760009281016020019290925250969995985095966060810135965060800135949350505050565b600060208284031215610c3557600080fd5b5035919050565b634e487b7160e01b600052602160045260246000fd5b60048110610c6257610c62610c3c565b9052565b6020810161090f8284610c52565b60008060408385031215610c8757600080fd5b50508035926020909101359150565b60068110610c6257610c62610c3c565b6000815180845260005b81811015610ccc57602081850181015186830182015201610cb0565b506000602082860101526020601f19601f83011685010191505092915050565b878152866020820152610d026040820187610c96565b60e060608201526000610d1860e0830187610ca6565b60808301959095525060a081019290925260c090910152949350505050565b60006020808301818452808551808352604092508286019150828160051b87010184880160005b83811015610ddc57603f19898403018552815160e081518552888201518986015287820151610d8f89870182610c96565b506060808301518282880152610da783880182610ca6565b6080858101519089015260a0808601519089015260c09485015194909701939093525050509386019390860190600101610d5e565b509098975050505050505050565b600060c082019050878252866020830152856040830152846060830152836080830152610e1a60a0830184610c52565b979650505050505050565b600060208284031215610e3757600080fd5b81356001600160a01b0381168114610e4e57600080fd5b9392505050565b634e487b7160e01b600052601160045260246000fd5b600060018201610e7d57610e7d610e55565b5060010190565b600181811c90821680610e9857607f821691505b602082108103610eb857634e487b7160e01b600052602260045260246000fd5b50919050565b601f821115610f0857600081815260208120601f850160051c81016020861015610ee55750805b601f850160051c820191505b81811015610f0457828155600101610ef1565b5050505b505050565b815167ffffffffffffffff811115610f2757610f27610b2a565b610f3b81610f358454610e84565b84610ebe565b602080601f831160018114610f705760008415610f585750858301515b600019600386901b1c1916600185901b178555610f04565b600085815260208120601f198616915b82811015610f9f57888601518255948401946001909101908401610f80565b5085821015610fbd5787850151600019600388901b60f8161c191681555b5050505050600190811b01905550565b8082018082111561090f5761090f610e55565b60408101610fee8285610c96565b8260208301529392505050565b8181038181111561090f5761090f610e55565b634e487b7160e01b600052603260045260246000fd5b60008161103357611033610e55565b506000190190565b60008261105857634e487b7160e01b600052601260045260246000fd5b500490565b808202811582820484141761090f5761090f610e5556fea2646970667358221220506113a81b1273e69b00b9d65eecd503ed284b015090a2a3872b25881abb06ce64736f6c63430008140033","opcodes":"PUSH1 0x80 PUSH1 0x40 MSTORE CALLVALUE DUP1 ISZERO PUSH2 0x10 JUMPI PUSH1 0x0 DUP1 REVERT JUMPDEST POP CALLER DUP1 PUSH2 0x37 JUMPI PUSH1 0x40 MLOAD PUSH4 0x1E4FBDF7 PUSH1 0xE0 SHL DUP2 MSTORE PUSH1 0x0 PUSH1 0x4 DUP3 ADD MSTORE PUSH1 0x24 ADD PUSH1 0x40 MLOAD DUP1 SWAP2 SUB SWAP1 REVERT JUMPDEST PUSH2 0x40 DUP2 PUSH2 0x46 JUMP JUMPDEST POP PUSH2 0x96 JUMP JUMPDEST PUSH1 0x0 DUP1 SLOAD PUSH1 0x1 PUSH1 0x1 PUSH1 0xA0 SHL SUB DUP4 DUP2 AND PUSH1 0x1 PUSH1 0x1 PUSH1 0xA0 SHL SUB NOT DUP4 AND DUP2 OR DUP5 SSTORE PUSH1 0x40 MLOAD SWAP2 SWAP1 SWAP3 AND SWAP3 DUP4 SWAP2 PUSH32 0x8BE0079C531659141344CD1FD0A4F28419497F9722A3DAAFE3B4186F6B6457E0 SWAP2 SWAP1 LOG3 POP POP JUMP JUMPDEST PUSH2 0x10AA DUP1 PUSH2 0xA5 PUSH1 0x0 CODECOPY PUSH1 0x0 RETURN INVALID PUSH1 0x80 PUSH1 0x40 MSTORE CALLVALUE DUP1 ISZERO PUSH2 0x10 JUMPI PUSH1 0x0 DUP1 REVERT JUMPDEST POP PUSH1 0x4 CALLDATASIZE LT PUSH2 0x9E JUMPI PUSH1 0x0 CALLDATALOAD PUSH1 0xE0 SHR DUP1 PUSH4 0x9402C479 GT PUSH2 0x66 JUMPI DUP1 PUSH4 0x9402C479 EQ PUSH2 0x11B JUMPI DUP1 PUSH4 0xBD687DEF EQ PUSH2 0x141 JUMPI DUP1 PUSH4 0xC6B94C43 EQ PUSH2 0x161 JUMPI DUP1 PUSH4 0xDA9B4223 EQ PUSH2 0x1BB JUMPI DUP1 PUSH4 0xF2FDE38B EQ PUSH2 0x1CE JUMPI PUSH1 0x0 DUP1 REVERT JUMPDEST DUP1 PUSH4 0x231589F7 EQ PUSH2 0xA3 JUMPI DUP1 PUSH4 0x577EF701 EQ PUSH2 0xB8 JUMPI DUP1 PUSH4 0x715018A6 EQ PUSH2 0xE1 JUMPI DUP1 PUSH4 0x71BE2E4A EQ PUSH2 0xE9 JUMPI DUP1 PUSH4 0x8DA5CB5B EQ PUSH2 0x100 JUMPI JUMPDEST PUSH1 0x0 DUP1 REVERT JUMPDEST PUSH2 0xB6 PUSH2 0xB1 CALLDATASIZE PUSH1 0x4 PUSH2 0xB40 JUMP JUMPDEST PUSH2 0x1E1 JUMP JUMPDEST STOP JUMPDEST PUSH2 0xCB PUSH2 0xC6 CALLDATASIZE PUSH1 0x4 PUSH2 0xC23 JUMP JUMPDEST PUSH2 0x3B9 JUMP JUMPDEST PUSH1 0x40 MLOAD PUSH2 0xD8 SWAP2 SWAP1 PUSH2 0xC66 JUMP JUMPDEST PUSH1 0x40 MLOAD DUP1 SWAP2 SUB SWAP1 RETURN JUMPDEST PUSH2 0xB6 PUSH2 0x5F5 JUMP JUMPDEST PUSH2 0xF2 PUSH1 0x3 SLOAD DUP2 JUMP JUMPDEST PUSH1 0x40 MLOAD SWAP1 DUP2 MSTORE PUSH1 0x20 ADD PUSH2 0xD8 JUMP JUMPDEST PUSH1 0x0 SLOAD PUSH1 0x40 MLOAD PUSH1 0x1 PUSH1 0x1 PUSH1 0xA0 SHL SUB SWAP1 SWAP2 AND DUP2 MSTORE PUSH1 0x20 ADD PUSH2 0xD8 JUMP JUMPDEST PUSH2 0x12E PUSH2 0x129 CALLDATASIZE PUSH1 0x4 PUSH2 0xC74 JUMP JUMPDEST PUSH2 0x609 JUMP JUMPDEST PUSH1 0x40 MLOAD PUSH2 0xD8 SWAP8 SWAP7 SWAP6 SWAP5 SWAP4 SWAP3 SWAP2 SWAP1 PUSH2 0xCEC JUMP JUMPDEST PUSH2 0x154 PUSH2 0x14F CALLDATASIZE PUSH1 0x4 PUSH2 0xC23 JUMP JUMPDEST PUSH2 0x6F0 JUMP JUMPDEST PUSH1 0x40 MLOAD PUSH2 0xD8 SWAP2 SWAP1 PUSH2 0xD37 JUMP JUMPDEST PUSH2 0x1A9 PUSH2 0x16F CALLDATASIZE PUSH1 0x4 PUSH2 0xC23 JUMP JUMPDEST PUSH1 0x2 PUSH1 0x20 DUP2 SWAP1 MSTORE PUSH1 0x0 SWAP2 DUP3 MSTORE PUSH1 0x40 SWAP1 SWAP2 KECCAK256 DUP1 SLOAD PUSH1 0x1 DUP3 ADD SLOAD SWAP3 DUP3 ADD SLOAD PUSH1 0x3 DUP4 ADD SLOAD PUSH1 0x4 DUP5 ADD SLOAD PUSH1 0x5 SWAP1 SWAP5 ADD SLOAD SWAP3 SWAP5 SWAP4 SWAP2 SWAP3 SWAP1 SWAP2 SWAP1 PUSH1 0xFF AND DUP7 JUMP JUMPDEST PUSH1 0x40 MLOAD PUSH2 0xD8 SWAP7 SWAP6 SWAP5 SWAP4 SWAP3 SWAP2 SWAP1 PUSH2 0xDEA JUMP JUMPDEST PUSH2 0xF2 PUSH2 0x1C9 CALLDATASIZE PUSH1 0x4 PUSH2 0xC74 JUMP JUMPDEST PUSH2 0x85F JUMP JUMPDEST PUSH2 0xB6 PUSH2 0x1DC CALLDATASIZE PUSH1 0x4 PUSH2 0xE25 JUMP JUMPDEST PUSH2 0x915 JUMP JUMPDEST PUSH1 0x3 DUP1 SLOAD SWAP1 PUSH1 0x0 PUSH2 0x1F1 DUP4 PUSH2 0xE6B JUMP JUMPDEST SWAP2 SWAP1 POP SSTORE POP PUSH1 0x0 PUSH1 0x40 MLOAD DUP1 PUSH1 0xE0 ADD PUSH1 0x40 MSTORE DUP1 PUSH1 0x3 SLOAD DUP2 MSTORE PUSH1 0x20 ADD DUP8 DUP2 MSTORE PUSH1 0x20 ADD DUP7 PUSH1 0x5 DUP2 GT ISZERO PUSH2 0x223 JUMPI PUSH2 0x223 PUSH2 0xC3C JUMP JUMPDEST DUP2 MSTORE PUSH1 0x20 DUP1 DUP3 ADD DUP8 SWAP1 MSTORE TIMESTAMP PUSH1 0x40 DUP1 DUP5 ADD SWAP2 SWAP1 SWAP2 MSTORE PUSH1 0x60 DUP4 ADD DUP8 SWAP1 MSTORE PUSH1 0x80 SWAP1 SWAP3 ADD DUP6 SWAP1 MSTORE PUSH1 0x0 DUP10 DUP2 MSTORE PUSH1 0x1 DUP1 DUP4 MSTORE DUP4 DUP3 KECCAK256 DUP1 SLOAD DUP1 DUP4 ADD DUP3 SSTORE SWAP1 DUP4 MSTORE SWAP2 DUP4 SWAP1 KECCAK256 DUP6 MLOAD PUSH1 0x7 SWAP1 SWAP4 MUL ADD SWAP2 DUP3 SSTORE SWAP2 DUP5 ADD MLOAD DUP2 DUP4 ADD SSTORE SWAP2 DUP4 ADD MLOAD PUSH1 0x2 DUP4 ADD DUP1 SLOAD SWAP5 SWAP6 POP DUP6 SWAP5 SWAP2 SWAP3 SWAP1 SWAP2 PUSH1 0xFF NOT AND SWAP1 DUP4 PUSH1 0x5 DUP2 GT ISZERO PUSH2 0x29E JUMPI PUSH2 0x29E PUSH2 0xC3C JUMP JUMPDEST MUL OR SWAP1 SSTORE POP PUSH1 0x60 DUP3 ADD MLOAD PUSH1 0x3 DUP3 ADD SWAP1 PUSH2 0x2B7 SWAP1 DUP3 PUSH2 0xF0D JUMP JUMPDEST POP PUSH1 0x80 DUP3 ADD MLOAD PUSH1 0x4 DUP3 ADD SSTORE PUSH1 0xA0 DUP3 ADD MLOAD PUSH1 0x5 DUP3 ADD SSTORE PUSH1 0xC0 SWAP1 SWAP2 ADD MLOAD PUSH1 0x6 SWAP1 SWAP2 ADD SSTORE PUSH1 0x0 DUP7 DUP2 MSTORE PUSH1 0x2 PUSH1 0x20 MSTORE PUSH1 0x40 DUP2 KECCAK256 DUP1 SLOAD SWAP1 SWAP2 SUB PUSH2 0x2F6 JUMPI TIMESTAMP PUSH1 0x3 DUP3 ADD SSTORE JUMPDEST DUP1 SLOAD DUP2 PUSH1 0x0 PUSH2 0x304 DUP4 PUSH2 0xE6B JUMP JUMPDEST SWAP2 SWAP1 POP SSTORE POP DUP4 DUP2 PUSH1 0x2 ADD PUSH1 0x0 DUP3 DUP3 SLOAD PUSH2 0x31D SWAP2 SWAP1 PUSH2 0xFCD JUMP JUMPDEST SWAP1 SWAP2 SSTORE POP POP TIMESTAMP PUSH1 0x4 DUP3 ADD SSTORE PUSH1 0x0 DUP7 PUSH1 0x5 DUP2 GT ISZERO PUSH2 0x33C JUMPI PUSH2 0x33C PUSH2 0xC3C JUMP JUMPDEST EQ DUP1 PUSH2 0x359 JUMPI POP PUSH1 0x5 DUP7 PUSH1 0x5 DUP2 GT ISZERO PUSH2 0x357 JUMPI PUSH2 0x357 PUSH2 0xC3C JUMP JUMPDEST EQ JUMPDEST ISZERO PUSH2 0x376 JUMPI PUSH1 0x1 DUP2 ADD DUP1 SLOAD SWAP1 PUSH1 0x0 PUSH2 0x370 DUP4 PUSH2 0xE6B JUMP JUMPDEST SWAP2 SWAP1 POP SSTORE POP JUMPDEST DUP7 PUSH32 0x1A4240505483EBD3A43FFC83F57300FB8C26B98B18DA4242D5CB8ADECA9E3B5B DUP8 DUP7 PUSH1 0x40 MLOAD PUSH2 0x3A8 SWAP3 SWAP2 SWAP1 PUSH2 0xFE0 JUMP JUMPDEST PUSH1 0x40 MLOAD DUP1 SWAP2 SUB SWAP1 LOG2 POP POP POP POP POP POP POP JUMP JUMPDEST PUSH1 0x0 DUP2 DUP2 MSTORE PUSH1 0x2 PUSH1 0x20 MSTORE PUSH1 0x40 DUP2 KECCAK256 DUP1 SLOAD PUSH1 0x3 GT ISZERO PUSH2 0x3DA JUMPI POP PUSH1 0x1 SWAP3 SWAP2 POP POP JUMP JUMPDEST PUSH1 0x0 DUP1 DUP1 PUSH2 0x3EB PUSH3 0x278D00 TIMESTAMP PUSH2 0xFFB JUMP JUMPDEST PUSH1 0x0 DUP8 DUP2 MSTORE PUSH1 0x1 PUSH1 0x20 MSTORE PUSH1 0x40 SWAP1 KECCAK256 DUP1 SLOAD SWAP2 SWAP3 POP SWAP1 JUMPDEST PUSH1 0x0 DUP2 GT DUP1 ISZERO PUSH2 0x410 JUMPI POP PUSH1 0xA DUP5 LT JUMPDEST ISZERO PUSH2 0x4A5 JUMPI DUP3 DUP3 PUSH2 0x422 PUSH1 0x1 DUP5 PUSH2 0xFFB JUMP JUMPDEST DUP2 SLOAD DUP2 LT PUSH2 0x432 JUMPI PUSH2 0x432 PUSH2 0x100E JUMP JUMPDEST SWAP1 PUSH1 0x0 MSTORE PUSH1 0x20 PUSH1 0x0 KECCAK256 SWAP1 PUSH1 0x7 MUL ADD PUSH1 0x4 ADD SLOAD GT ISZERO PUSH2 0x493 JUMPI DUP2 PUSH2 0x456 PUSH1 0x1 DUP4 PUSH2 0xFFB JUMP JUMPDEST DUP2 SLOAD DUP2 LT PUSH2 0x466 JUMPI PUSH2 0x466 PUSH2 0x100E JUMP JUMPDEST SWAP1 PUSH1 0x0 MSTORE PUSH1 0x20 PUSH1 0x0 KECCAK256 SWAP1 PUSH1 0x7 MUL ADD PUSH1 0x5 ADD SLOAD DUP6 PUSH2 0x483 SWAP2 SWAP1 PUSH2 0xFCD JUMP JUMPDEST SWAP5 POP DUP4 PUSH2 0x48F DUP2 PUSH2 0xE6B JUMP JUMPDEST SWAP5 POP POP JUMPDEST DUP1 PUSH2 0x49D DUP2 PUSH2 0x1024 JUMP JUMPDEST SWAP2 POP POP PUSH2 0x400 JUMP JUMPDEST POP DUP3 PUSH1 0x0 SUB PUSH2 0x4BB JUMPI POP PUSH1 0x2 SWAP7 SWAP6 POP POP POP POP POP POP JUMP JUMPDEST PUSH1 0x0 PUSH2 0x4C7 DUP5 DUP7 PUSH2 0x103B JUMP JUMPDEST SWAP1 POP PUSH1 0x0 DUP7 PUSH1 0x0 ADD SLOAD DUP8 PUSH1 0x2 ADD SLOAD PUSH2 0x4DF SWAP2 SWAP1 PUSH2 0x103B JUMP JUMPDEST SWAP1 POP PUSH1 0x0 PUSH1 0xA PUSH2 0x4F0 DUP4 PUSH1 0xF PUSH2 0x105D JUMP JUMPDEST PUSH2 0x4FA SWAP2 SWAP1 PUSH2 0x103B JUMP JUMPDEST DUP4 GT ISZERO PUSH2 0x509 JUMPI POP PUSH1 0x3 PUSH2 0x559 JUMP JUMPDEST PUSH1 0xA PUSH2 0x516 DUP4 PUSH1 0xB PUSH2 0x105D JUMP JUMPDEST PUSH2 0x520 SWAP2 SWAP1 PUSH2 0x103B JUMP JUMPDEST DUP4 GT ISZERO PUSH2 0x52F JUMPI POP PUSH1 0x0 PUSH2 0x559 JUMP JUMPDEST PUSH1 0xA PUSH2 0x53C DUP4 PUSH1 0x9 PUSH2 0x105D JUMP JUMPDEST PUSH2 0x546 SWAP2 SWAP1 PUSH2 0x103B JUMP JUMPDEST DUP4 LT ISZERO PUSH2 0x555 JUMPI POP PUSH1 0x2 PUSH2 0x559 JUMP JUMPDEST POP PUSH1 0x1 JUMPDEST PUSH1 0x5 DUP9 ADD SLOAD PUSH1 0xFF AND PUSH1 0x3 DUP2 GT ISZERO PUSH2 0x572 JUMPI PUSH2 0x572 PUSH2 0xC3C JUMP JUMPDEST DUP2 PUSH1 0x3 DUP2 GT ISZERO PUSH2 0x584 JUMPI PUSH2 0x584 PUSH2 0xC3C JUMP JUMPDEST EQ PUSH2 0x5E8 JUMPI PUSH1 0x5 DUP9 ADD DUP1 SLOAD DUP3 SWAP2 SWAP1 PUSH1 0xFF NOT AND PUSH1 0x1 DUP4 PUSH1 0x3 DUP2 GT ISZERO PUSH2 0x5AA JUMPI PUSH2 0x5AA PUSH2 0xC3C JUMP JUMPDEST MUL OR SWAP1 SSTORE POP DUP10 PUSH32 0xD1F971EB231FA6149F67E90CCA6B67329107156B1F4F798A5ED4148405D3B121 DUP3 PUSH1 0x40 MLOAD PUSH2 0x5DF SWAP2 SWAP1 PUSH2 0xC66 JUMP JUMPDEST PUSH1 0x40 MLOAD DUP1 SWAP2 SUB SWAP1 LOG2 JUMPDEST SWAP10 SWAP9 POP POP POP POP POP POP POP POP POP JUMP JUMPDEST PUSH2 0x5FD PUSH2 0x958 JUMP JUMPDEST PUSH2 0x607 PUSH1 0x0 PUSH2 0x985 JUMP JUMPDEST JUMP JUMPDEST PUSH1 0x1 PUSH1 0x20 MSTORE DUP2 PUSH1 0x0 MSTORE PUSH1 0x40 PUSH1 0x0 KECCAK256 DUP2 DUP2 SLOAD DUP2 LT PUSH2 0x625 JUMPI PUSH1 0x0 DUP1 REVERT JUMPDEST PUSH1 0x0 SWAP2 DUP3 MSTORE PUSH1 0x20 SWAP1 SWAP2 KECCAK256 PUSH1 0x7 SWAP1 SWAP2 MUL ADD DUP1 SLOAD PUSH1 0x1 DUP3 ADD SLOAD PUSH1 0x2 DUP4 ADD SLOAD PUSH1 0x3 DUP5 ADD DUP1 SLOAD SWAP4 SWAP7 POP SWAP2 SWAP5 POP PUSH1 0xFF AND SWAP3 SWAP2 PUSH2 0x65B SWAP1 PUSH2 0xE84 JUMP JUMPDEST DUP1 PUSH1 0x1F ADD PUSH1 0x20 DUP1 SWAP2 DIV MUL PUSH1 0x20 ADD PUSH1 0x40 MLOAD SWAP1 DUP2 ADD PUSH1 0x40 MSTORE DUP1 SWAP3 SWAP2 SWAP1 DUP2 DUP2 MSTORE PUSH1 0x20 ADD DUP3 DUP1 SLOAD PUSH2 0x687 SWAP1 PUSH2 0xE84 JUMP JUMPDEST DUP1 ISZERO PUSH2 0x6D4 JUMPI DUP1 PUSH1 0x1F LT PUSH2 0x6A9 JUMPI PUSH2 0x100 DUP1 DUP4 SLOAD DIV MUL DUP4 MSTORE SWAP2 PUSH1 0x20 ADD SWAP2 PUSH2 0x6D4 JUMP JUMPDEST DUP3 ADD SWAP2 SWAP1 PUSH1 0x0 MSTORE PUSH1 0x20 PUSH1 0x0 KECCAK256 SWAP1 JUMPDEST DUP2 SLOAD DUP2 MSTORE SWAP1 PUSH1 0x1 ADD SWAP1 PUSH1 0x20 ADD DUP1 DUP4 GT PUSH2 0x6B7 JUMPI DUP3 SWAP1 SUB PUSH1 0x1F AND DUP3 ADD SWAP2 JUMPDEST POP POP POP POP POP SWAP1 DUP1 PUSH1 0x4 ADD SLOAD SWAP1 DUP1 PUSH1 0x5 ADD SLOAD SWAP1 DUP1 PUSH1 0x6 ADD SLOAD SWAP1 POP DUP8 JUMP JUMPDEST PUSH1 0x60 PUSH1 0x1 PUSH1 0x0 DUP4 DUP2 MSTORE PUSH1 0x20 ADD SWAP1 DUP2 MSTORE PUSH1 0x20 ADD PUSH1 0x0 KECCAK256 DUP1 SLOAD DUP1 PUSH1 0x20 MUL PUSH1 0x20 ADD PUSH1 0x40 MLOAD SWAP1 DUP2 ADD PUSH1 0x40 MSTORE DUP1 SWAP3 SWAP2 SWAP1 DUP2 DUP2 MSTORE PUSH1 0x20 ADD PUSH1 0x0 SWAP1 JUMPDEST DUP3 DUP3 LT ISZERO PUSH2 0x854 JUMPI DUP4 DUP3 SWAP1 PUSH1 0x0 MSTORE PUSH1 0x20 PUSH1 0x0 KECCAK256 SWAP1 PUSH1 0x7 MUL ADD PUSH1 0x40 MLOAD DUP1 PUSH1 0xE0 ADD PUSH1 0x40 MSTORE SWAP1 DUP2 PUSH1 0x0 DUP3 ADD SLOAD DUP2 MSTORE PUSH1 0x20 ADD PUSH1 0x1 DUP3 ADD SLOAD DUP2 MSTORE PUSH1 0x20 ADD PUSH1 0x2 DUP3 ADD PUSH1 0x0 SWAP1 SLOAD SWAP1 PUSH2 0x100 EXP SWAP1 DIV PUSH1 0xFF AND PUSH1 0x5 DUP2 GT ISZERO PUSH2 0x780 JUMPI PUSH2 0x780 PUSH2 0xC3C JUMP JUMPDEST PUSH1 0x5 DUP2 GT ISZERO PUSH2 0x791 JUMPI PUSH2 0x791 PUSH2 0xC3C JUMP JUMPDEST DUP2 MSTORE PUSH1 0x20 ADD PUSH1 0x3 DUP3 ADD DUP1 SLOAD PUSH2 0x7A5 SWAP1 PUSH2 0xE84 JUMP JUMPDEST DUP1 PUSH1 0x1F ADD PUSH1 0x20 DUP1 SWAP2 DIV MUL PUSH1 0x20 ADD PUSH1 0x40 MLOAD SWAP1 DUP2 ADD PUSH1 0x40 MSTORE DUP1 SWAP3 SWAP2 SWAP1 DUP2 DUP2 MSTORE PUSH1 0x20 ADD DUP3 DUP1 SLOAD PUSH2 0x7D1 SWAP1 PUSH2 0xE84 JUMP JUMPDEST DUP1 ISZERO PUSH2 0x81E JUMPI DUP1 PUSH1 0x1F LT PUSH2 0x7F3 JUMPI PUSH2 0x100 DUP1 DUP4 SLOAD DIV MUL DUP4 MSTORE SWAP2 PUSH1 0x20 ADD SWAP2 PUSH2 0x81E JUMP JUMPDEST DUP3 ADD SWAP2 SWAP1 PUSH1 0x0 MSTORE PUSH1 0x20 PUSH1 0x0 KECCAK256 SWAP1 JUMPDEST DUP2 SLOAD DUP2 MSTORE SWAP1 PUSH1 0x1 ADD SWAP1 PUSH1 0x20 ADD DUP1 DUP4 GT PUSH2 0x801 JUMPI DUP3 SWAP1 SUB PUSH1 0x1F AND DUP3 ADD SWAP2 JUMPDEST POP POP POP POP POP DUP2 MSTORE PUSH1 0x20 ADD PUSH1 0x4 DUP3 ADD SLOAD DUP2 MSTORE PUSH1 0x20 ADD PUSH1 0x5 DUP3 ADD SLOAD DUP2 MSTORE PUSH1 0x20 ADD PUSH1 0x6 DUP3 ADD SLOAD DUP2 MSTORE POP POP DUP2 MSTORE PUSH1 0x20 ADD SWAP1 PUSH1 0x1 ADD SWAP1 PUSH2 0x725 JUMP JUMPDEST POP POP POP POP SWAP1 POP SWAP2 SWAP1 POP JUMP JUMPDEST PUSH1 0x0 DUP3 DUP2 MSTORE PUSH1 0x2 PUSH1 0x20 MSTORE PUSH1 0x40 DUP2 KECCAK256 PUSH1 0x1 DUP2 ADD SLOAD DUP3 SWAP1 PUSH2 0x87F SWAP1 PUSH1 0x32 PUSH2 0x105D JUMP JUMPDEST SWAP1 POP PUSH1 0x64 PUSH1 0x0 PUSH1 0x5 DUP5 ADD SLOAD PUSH1 0xFF AND PUSH1 0x3 DUP2 GT ISZERO PUSH2 0x89E JUMPI PUSH2 0x89E PUSH2 0xC3C JUMP JUMPDEST SUB PUSH2 0x8AB JUMPI POP PUSH1 0x96 PUSH2 0x8CF JUMP JUMPDEST PUSH1 0x3 PUSH1 0x5 DUP5 ADD SLOAD PUSH1 0xFF AND PUSH1 0x3 DUP2 GT ISZERO PUSH2 0x8C6 JUMPI PUSH2 0x8C6 PUSH2 0xC3C JUMP JUMPDEST SUB PUSH2 0x8CF JUMPI POP PUSH1 0xC8 JUMPDEST PUSH1 0x0 PUSH2 0x8DA DUP8 PUSH2 0x9D5 JUMP JUMPDEST SWAP1 POP DUP1 PUSH1 0x64 DUP4 PUSH2 0x8EA DUP7 DUP11 PUSH2 0xFCD JUMP JUMPDEST PUSH2 0x8F4 SWAP2 SWAP1 PUSH2 0x105D JUMP JUMPDEST PUSH2 0x8FE SWAP2 SWAP1 PUSH2 0x103B JUMP JUMPDEST PUSH2 0x908 SWAP2 SWAP1 PUSH2 0xFCD JUMP JUMPDEST SWAP5 POP POP POP POP POP JUMPDEST SWAP3 SWAP2 POP POP JUMP JUMPDEST PUSH2 0x91D PUSH2 0x958 JUMP JUMPDEST PUSH1 0x1 PUSH1 0x1 PUSH1 0xA0 SHL SUB DUP2 AND PUSH2 0x94C JUMPI PUSH1 0x40 MLOAD PUSH4 0x1E4FBDF7 PUSH1 0xE0 SHL DUP2 MSTORE PUSH1 0x0 PUSH1 0x4 DUP3 ADD MSTORE PUSH1 0x24 ADD JUMPDEST PUSH1 0x40 MLOAD DUP1 SWAP2 SUB SWAP1 REVERT JUMPDEST PUSH2 0x955 DUP2 PUSH2 0x985 JUMP JUMPDEST POP JUMP JUMPDEST PUSH1 0x0 SLOAD PUSH1 0x1 PUSH1 0x1 PUSH1 0xA0 SHL SUB AND CALLER EQ PUSH2 0x607 JUMPI PUSH1 0x40 MLOAD PUSH4 0x118CDAA7 PUSH1 0xE0 SHL DUP2 MSTORE CALLER PUSH1 0x4 DUP3 ADD MSTORE PUSH1 0x24 ADD PUSH2 0x943 JUMP JUMPDEST PUSH1 0x0 DUP1 SLOAD PUSH1 0x1 PUSH1 0x1 PUSH1 0xA0 SHL SUB DUP4 DUP2 AND PUSH1 0x1 PUSH1 0x1 PUSH1 0xA0 SHL SUB NOT DUP4 AND DUP2 OR DUP5 SSTORE PUSH1 0x40 MLOAD SWAP2 SWAP1 SWAP3 AND SWAP3 DUP4 SWAP2 PUSH32 0x8BE0079C531659141344CD1FD0A4F28419497F9722A3DAAFE3B4186F6B6457E0 SWAP2 SWAP1 LOG3 POP POP JUMP JUMPDEST PUSH1 0x0 DUP2 DUP2 MSTORE PUSH1 0x1 PUSH1 0x20 MSTORE PUSH1 0x40 DUP2 KECCAK256 DUP1 SLOAD PUSH1 0x5 GT ISZERO PUSH2 0x9F6 JUMPI POP PUSH1 0x0 SWAP3 SWAP2 POP POP JUMP JUMPDEST PUSH1 0x0 DUP1 PUSH1 0x0 DUP1 PUSH1 0x0 JUMPDEST DUP6 SLOAD DUP2 LT ISZERO PUSH2 0xAEC JUMPI PUSH1 0x2 DUP7 DUP3 DUP2 SLOAD DUP2 LT PUSH2 0xA1C JUMPI PUSH2 0xA1C PUSH2 0x100E JUMP JUMPDEST PUSH1 0x0 SWAP2 DUP3 MSTORE PUSH1 0x20 SWAP1 SWAP2 KECCAK256 PUSH1 0x2 PUSH1 0x7 SWAP1 SWAP3 MUL ADD ADD SLOAD PUSH1 0xFF AND PUSH1 0x5 DUP2 GT ISZERO PUSH2 0xA44 JUMPI PUSH2 0xA44 PUSH2 0xC3C JUMP JUMPDEST SUB PUSH2 0xA4E JUMPI PUSH1 0x1 SWAP4 POP JUMPDEST PUSH1 0x3 DUP7 DUP3 DUP2 SLOAD DUP2 LT PUSH2 0xA62 JUMPI PUSH2 0xA62 PUSH2 0x100E JUMP JUMPDEST PUSH1 0x0 SWAP2 DUP3 MSTORE PUSH1 0x20 SWAP1 SWAP2 KECCAK256 PUSH1 0x2 PUSH1 0x7 SWAP1 SWAP3 MUL ADD ADD SLOAD PUSH1 0xFF AND PUSH1 0x5 DUP2 GT ISZERO PUSH2 0xA8A JUMPI PUSH2 0xA8A PUSH2 0xC3C JUMP JUMPDEST SUB PUSH2 0xA94 JUMPI PUSH1 0x1 SWAP3 POP JUMPDEST PUSH1 0x5 DUP7 DUP3 DUP2 SLOAD DUP2 LT PUSH2 0xAA8 JUMPI PUSH2 0xAA8 PUSH2 0x100E JUMP JUMPDEST PUSH1 0x0 SWAP2 DUP3 MSTORE PUSH1 0x20 SWAP1 SWAP2 KECCAK256 PUSH1 0x2 PUSH1 0x7 SWAP1 SWAP3 MUL ADD ADD SLOAD PUSH1 0xFF AND PUSH1 0x5 DUP2 GT ISZERO PUSH2 0xAD0 JUMPI PUSH2 0xAD0 PUSH2 0xC3C JUMP JUMPDEST SUB PUSH2 0xADA JUMPI PUSH1 0x1 SWAP2 POP JUMPDEST DUP1 PUSH2 0xAE4 DUP2 PUSH2 0xE6B JUMP JUMPDEST SWAP2 POP POP PUSH2 0x9FF JUMP JUMPDEST POP DUP3 DUP1 ISZERO PUSH2 0xAF7 JUMPI POP DUP2 JUMPDEST ISZERO PUSH2 0xB0A JUMPI PUSH2 0xB07 PUSH1 0xC8 DUP6 PUSH2 0xFCD JUMP JUMPDEST SWAP4 POP JUMPDEST DUP1 ISZERO PUSH2 0xB1F JUMPI PUSH2 0xB1C PUSH2 0x12C DUP6 PUSH2 0xFCD JUMP JUMPDEST SWAP4 POP JUMPDEST POP SWAP2 SWAP6 SWAP5 POP POP POP POP POP JUMP JUMPDEST PUSH4 0x4E487B71 PUSH1 0xE0 SHL PUSH1 0x0 MSTORE PUSH1 0x41 PUSH1 0x4 MSTORE PUSH1 0x24 PUSH1 0x0 REVERT JUMPDEST PUSH1 0x0 DUP1 PUSH1 0x0 DUP1 PUSH1 0x0 PUSH1 0xA0 DUP7 DUP9 SUB SLT ISZERO PUSH2 0xB58 JUMPI PUSH1 0x0 DUP1 REVERT JUMPDEST DUP6 CALLDATALOAD SWAP5 POP PUSH1 0x20 DUP7 ADD CALLDATALOAD PUSH1 0x6 DUP2 LT PUSH2 0xB6E JUMPI PUSH1 0x0 DUP1 REVERT JUMPDEST SWAP4 POP PUSH1 0x40 DUP7 ADD CALLDATALOAD PUSH8 0xFFFFFFFFFFFFFFFF DUP1 DUP3 GT ISZERO PUSH2 0xB8B JUMPI PUSH1 0x0 DUP1 REVERT JUMPDEST DUP2 DUP9 ADD SWAP2 POP DUP9 PUSH1 0x1F DUP4 ADD SLT PUSH2 0xB9F JUMPI PUSH1 0x0 DUP1 REVERT JUMPDEST DUP2 CALLDATALOAD DUP2 DUP2 GT ISZERO PUSH2 0xBB1 JUMPI PUSH2 0xBB1 PUSH2 0xB2A JUMP JUMPDEST PUSH1 0x40 MLOAD PUSH1 0x1F DUP3 ADD PUSH1 0x1F NOT SWAP1 DUP2 AND PUSH1 0x3F ADD AND DUP2 ADD SWAP1 DUP4 DUP3 GT DUP2 DUP4 LT OR ISZERO PUSH2 0xBD9 JUMPI PUSH2 0xBD9 PUSH2 0xB2A JUMP JUMPDEST DUP2 PUSH1 0x40 MSTORE DUP3 DUP2 MSTORE DUP12 PUSH1 0x20 DUP5 DUP8 ADD ADD GT ISZERO PUSH2 0xBF2 JUMPI PUSH1 0x0 DUP1 REVERT JUMPDEST DUP3 PUSH1 0x20 DUP7 ADD PUSH1 0x20 DUP4 ADD CALLDATACOPY PUSH1 0x0 SWAP3 DUP2 ADD PUSH1 0x20 ADD SWAP3 SWAP1 SWAP3 MSTORE POP SWAP7 SWAP10 SWAP6 SWAP9 POP SWAP6 SWAP7 PUSH1 0x60 DUP2 ADD CALLDATALOAD SWAP7 POP PUSH1 0x80 ADD CALLDATALOAD SWAP5 SWAP4 POP POP POP POP JUMP JUMPDEST PUSH1 0x0 PUSH1 0x20 DUP3 DUP5 SUB SLT ISZERO PUSH2 0xC35 JUMPI PUSH1 0x0 DUP1 REVERT JUMPDEST POP CALLDATALOAD SWAP2 SWAP1 POP JUMP JUMPDEST PUSH4 0x4E487B71 PUSH1 0xE0 SHL PUSH1 0x0 MSTORE PUSH1 0x21 PUSH1 0x4 MSTORE PUSH1 0x24 PUSH1 0x0 REVERT JUMPDEST PUSH1 0x4 DUP2 LT PUSH2 0xC62 JUMPI PUSH2 0xC62 PUSH2 0xC3C JUMP JUMPDEST SWAP1 MSTORE JUMP JUMPDEST PUSH1 0x20 DUP2 ADD PUSH2 0x90F DUP3 DUP5 PUSH2 0xC52 JUMP JUMPDEST PUSH1 0x0 DUP1 PUSH1 0x40 DUP4 DUP6 SUB SLT ISZERO PUSH2 0xC87 JUMPI PUSH1 0x0 DUP1 REVERT JUMPDEST POP POP DUP1 CALLDATALOAD SWAP3 PUSH1 0x20 SWAP1 SWAP2 ADD CALLDATALOAD SWAP2 POP JUMP JUMPDEST PUSH1 0x6 DUP2 LT PUSH2 0xC62 JUMPI PUSH2 0xC62 PUSH2 0xC3C JUMP JUMPDEST PUSH1 0x0 DUP2 MLOAD DUP1 DUP5 MSTORE PUSH1 0x0 JUMPDEST DUP2 DUP2 LT ISZERO PUSH2 0xCCC JUMPI PUSH1 0x20 DUP2 DUP6 ADD DUP2 ADD MLOAD DUP7 DUP4 ADD DUP3 ADD MSTORE ADD PUSH2 0xCB0 JUMP JUMPDEST POP PUSH1 0x0 PUSH1 0x20 DUP3 DUP7 ADD ADD MSTORE PUSH1 0x20 PUSH1 0x1F NOT PUSH1 0x1F DUP4 ADD AND DUP6 ADD ADD SWAP2 POP POP SWAP3 SWAP2 POP POP JUMP JUMPDEST DUP8 DUP2 MSTORE DUP7 PUSH1 0x20 DUP3 ADD MSTORE PUSH2 0xD02 PUSH1 0x40 DUP3 ADD DUP8 PUSH2 0xC96 JUMP JUMPDEST PUSH1 0xE0 PUSH1 0x60 DUP3 ADD MSTORE PUSH1 0x0 PUSH2 0xD18 PUSH1 0xE0 DUP4 ADD DUP8 PUSH2 0xCA6 JUMP JUMPDEST PUSH1 0x80 DUP4 ADD SWAP6 SWAP1 SWAP6 MSTORE POP PUSH1 0xA0 DUP2 ADD SWAP3 SWAP1 SWAP3 MSTORE PUSH1 0xC0 SWAP1 SWAP2 ADD MSTORE SWAP5 SWAP4 POP POP POP POP JUMP JUMPDEST PUSH1 0x0 PUSH1 0x20 DUP1 DUP4 ADD DUP2 DUP5 MSTORE DUP1 DUP6 MLOAD DUP1 DUP4 MSTORE PUSH1 0x40 SWAP3 POP DUP3 DUP7 ADD SWAP2 POP DUP3 DUP2 PUSH1 0x5 SHL DUP8 ADD ADD DUP5 DUP9 ADD PUSH1 0x0 JUMPDEST DUP4 DUP2 LT ISZERO PUSH2 0xDDC JUMPI PUSH1 0x3F NOT DUP10 DUP5 SUB ADD DUP6 MSTORE DUP2 MLOAD PUSH1 0xE0 DUP2 MLOAD DUP6 MSTORE DUP9 DUP3 ADD MLOAD DUP10 DUP7 ADD MSTORE DUP8 DUP3 ADD MLOAD PUSH2 0xD8F DUP10 DUP8 ADD DUP3 PUSH2 0xC96 JUMP JUMPDEST POP PUSH1 0x60 DUP1 DUP4 ADD MLOAD DUP3 DUP3 DUP9 ADD MSTORE PUSH2 0xDA7 DUP4 DUP9 ADD DUP3 PUSH2 0xCA6 JUMP JUMPDEST PUSH1 0x80 DUP6 DUP2 ADD MLOAD SWAP1 DUP10 ADD MSTORE PUSH1 0xA0 DUP1 DUP7 ADD MLOAD SWAP1 DUP10 ADD MSTORE PUSH1 0xC0 SWAP5 DUP6 ADD MLOAD SWAP5 SWAP1 SWAP8 ADD SWAP4 SWAP1 SWAP4 MSTORE POP POP POP SWAP4 DUP7 ADD SWAP4 SWAP1 DUP7 ADD SWAP1 PUSH1 0x1 ADD PUSH2 0xD5E JUMP JUMPDEST POP SWAP1 SWAP9 SWAP8 POP POP POP POP POP POP POP POP JUMP JUMPDEST PUSH1 0x0 PUSH1 0xC0 DUP3 ADD SWAP1 POP DUP8 DUP3 MSTORE DUP7 PUSH1 0x20 DUP4 ADD MSTORE DUP6 PUSH1 0x40 DUP4 ADD MSTORE DUP5 PUSH1 0x60 DUP4 ADD MSTORE DUP4 PUSH1 0x80 DUP4 ADD MSTORE PUSH2 0xE1A PUSH1 0xA0 DUP4 ADD DUP5 PUSH2 0xC52 JUMP JUMPDEST SWAP8 SWAP7 POP POP POP POP POP POP POP JUMP JUMPDEST PUSH1 0x0 PUSH1 0x20 DUP3 DUP5 SUB SLT ISZERO PUSH2 0xE37 JUMPI PUSH1 0x0 DUP1 REVERT JUMPDEST DUP2 CALLDATALOAD PUSH1 0x1 PUSH1 0x1 PUSH1 0xA0 SHL SUB DUP2 AND DUP2 EQ PUSH2 0xE4E JUMPI PUSH1 0x0 DUP1 REVERT JUMPDEST SWAP4 SWAP3 POP POP POP JUMP JUMPDEST PUSH4 0x4E487B71 PUSH1 0xE0 SHL PUSH1 0x0 MSTORE PUSH1 0x11 PUSH1 0x4 MSTORE PUSH1 0x24 PUSH1 0x0 REVERT JUMPDEST PUSH1 0x0 PUSH1 0x1 DUP3 ADD PUSH2 0xE7D JUMPI PUSH2 0xE7D PUSH2 0xE55 JUMP JUMPDEST POP PUSH1 0x1 ADD SWAP1 JUMP JUMPDEST PUSH1 0x1 DUP2 DUP2 SHR SWAP1 DUP3 AND DUP1 PUSH2 0xE98 JUMPI PUSH1 0x7F DUP3 AND SWAP2 POP JUMPDEST PUSH1 0x20 DUP3 LT DUP2 SUB PUSH2 0xEB8 JUMPI PUSH4 0x4E487B71 PUSH1 0xE0 SHL PUSH1 0x0 MSTORE PUSH1 0x22 PUSH1 0x4 MSTORE PUSH1 0x24 PUSH1 0x0 REVERT JUMPDEST POP SWAP2 SWAP1 POP JUMP JUMPDEST PUSH1 0x1F DUP3 GT ISZERO PUSH2 0xF08 JUMPI PUSH1 0x0 DUP2 DUP2 MSTORE PUSH1 0x20 DUP2 KECCAK256 PUSH1 0x1F DUP6 ADD PUSH1 0x5 SHR DUP2 ADD PUSH1 0x20 DUP7 LT ISZERO PUSH2 0xEE5 JUMPI POP DUP1 JUMPDEST PUSH1 0x1F DUP6 ADD PUSH1 0x5 SHR DUP3 ADD SWAP2 POP JUMPDEST DUP2 DUP2 LT ISZERO PUSH2 0xF04 JUMPI DUP3 DUP2 SSTORE PUSH1 0x1 ADD PUSH2 0xEF1 JUMP JUMPDEST POP POP POP JUMPDEST POP POP POP JUMP JUMPDEST DUP2 MLOAD PUSH8 0xFFFFFFFFFFFFFFFF DUP2 GT ISZERO PUSH2 0xF27 JUMPI PUSH2 0xF27 PUSH2 0xB2A JUMP JUMPDEST PUSH2 0xF3B DUP2 PUSH2 0xF35 DUP5 SLOAD PUSH2 0xE84 JUMP JUMPDEST DUP5 PUSH2 0xEBE JUMP JUMPDEST PUSH1 0x20 DUP1 PUSH1 0x1F DUP4 GT PUSH1 0x1 DUP2 EQ PUSH2 0xF70 JUMPI PUSH1 0x0 DUP5 ISZERO PUSH2 0xF58 JUMPI POP DUP6 DUP4 ADD MLOAD JUMPDEST PUSH1 0x0 NOT PUSH1 0x3 DUP7 SWAP1 SHL SHR NOT AND PUSH1 0x1 DUP6 SWAP1 SHL OR DUP6 SSTORE PUSH2 0xF04 JUMP JUMPDEST PUSH1 0x0 DUP6 DUP2 MSTORE PUSH1 0x20 DUP2 KECCAK256 PUSH1 0x1F NOT DUP7 AND SWAP2 JUMPDEST DUP3 DUP2 LT ISZERO PUSH2 0xF9F JUMPI DUP9 DUP7 ADD MLOAD DUP3 SSTORE SWAP5 DUP5 ADD SWAP5 PUSH1 0x1 SWAP1 SWAP2 ADD SWAP1 DUP5 ADD PUSH2 0xF80 JUMP JUMPDEST POP DUP6 DUP3 LT ISZERO PUSH2 0xFBD JUMPI DUP8 DUP6 ADD MLOAD PUSH1 0x0 NOT PUSH1 0x3 DUP9 SWAP1 SHL PUSH1 0xF8 AND SHR NOT AND DUP2 SSTORE JUMPDEST POP POP POP POP POP PUSH1 0x1 SWAP1 DUP2 SHL ADD SWAP1 SSTORE POP JUMP JUMPDEST DUP1 DUP3 ADD DUP1 DUP3 GT ISZERO PUSH2 0x90F JUMPI PUSH2 0x90F PUSH2 0xE55 JUMP JUMPDEST PUSH1 0x40 DUP2 ADD PUSH2 0xFEE DUP3 DUP6 PUSH2 0xC96 JUMP JUMPDEST DUP3 PUSH1 0x20 DUP4 ADD MSTORE SWAP4 SWAP3 POP POP POP JUMP JUMPDEST DUP2 DUP2 SUB DUP2 DUP2 GT ISZERO PUSH2 0x90F JUMPI PUSH2 0x90F PUSH2 0xE55 JUMP JUMPDEST PUSH4 0x4E487B71 PUSH1 0xE0 SHL PUSH1 0x0 MSTORE PUSH1 0x32 PUSH1 0x4 MSTORE PUSH1 0x24 PUSH1 0x0 REVERT JUMPDEST PUSH1 0x0 DUP2 PUSH2 0x1033 JUMPI PUSH2 0x1033 PUSH2 0xE55 JUMP JUMPDEST POP PUSH1 0x0 NOT ADD SWAP1 JUMP JUMPDEST PUSH1 0x0 DUP3 PUSH2 0x1058 JUMPI PUSH4 0x4E487B71 PUSH1 0xE0 SHL PUSH1 0x0 MSTORE PUSH1 0x12 PUSH1 0x4 MSTORE PUSH1 0x24 PUSH1 0x0 REVERT JUMPDEST POP DIV SWAP1 JUMP JUMPDEST DUP1 DUP3 MUL DUP2 ISZERO DUP3 DUP3 DIV DUP5 EQ OR PUSH2 0x90F JUMPI PUSH2 0x90F PUSH2 0xE55 JUMP INVALID LOG2 PUSH5 0x6970667358 0x22 SLT KECCAK256 POP PUSH2 0x13A8 SHL SLT PUSH20 0xE69B00B9D65EECD503ED284B015090A2A3872B25 DUP9 BYTE 0xBB MOD 0xCE PUSH5 0x736F6C6343 STOP ADDMOD EQ STOP CALLER "},"methodIdentifiers":{"calculateHistoricalValue(uint256,uint256)":"da9b4223","calculateTrajectory(uint256)":"577ef701","entityEvents(uint256,uint256)":"9402c479","entityHistory(uint256)":"c6b94c43","eventCount()":"71be2e4a","getEvents(uint256)":"bd687def","owner()":"8da5cb5b","recordEvent(uint256,uint8,string,uint256,bytes32)":"231589f7","renounceOwnership()":"715018a6","transferOwnership(address)":"f2fde38b"}}}}}