{"contracts/layer3/temporal/TemporalEntities.sol":{"TemporalEntities":{"abi":[{"inputs":[],"stateMutability":"nonpayable","type":"constructor"},{"inputs":[{"internalType":"address","name":"owner","type":"address"}],"name":"OwnableInvalidOwner","type":"error"},{"inputs":[{"internalType":"address","name":"account","type":"address"}],"name":"OwnableUnauthorizedAccount","type":"error"},{"anonymous":false,"inputs":[{"indexed":true,"internalType":"uint256","name":"entityId","type":"uint256"},{"indexed":false,"internalType":"uint256","name":"newAge","type":"uint256"},{"indexed":false,"internalType":"enum TemporalEntities.LifeStage","name":"newStage","type":"uint8"}],"name":"EntityAged","type":"event"},{"anonymous":false,"inputs":[{"indexed":true,"internalType":"uint256","name":"entityId","type":"uint256"},{"indexed":false,"internalType":"uint256","name":"birthTime","type":"uint256"},{"indexed":false,"internalType":"uint256","name":"lifeExpectancy","type":"uint256"}],"name":"EntityCreated","type":"event"},{"anonymous":false,"inputs":[{"indexed":true,"internalType":"uint256","name":"entityId","type":"uint256"},{"indexed":false,"internalType":"uint256","name":"deathTime","type":"uint256"},{"indexed":false,"internalType":"uint256","name":"finalAge","type":"uint256"}],"name":"EntityDied","type":"event"},{"anonymous":false,"inputs":[{"indexed":true,"internalType":"address","name":"previousOwner","type":"address"},{"indexed":true,"internalType":"address","name":"newOwner","type":"address"}],"name":"OwnershipTransferred","type":"event"},{"anonymous":false,"inputs":[{"indexed":true,"internalType":"uint256","name":"entityId","type":"uint256"},{"indexed":false,"internalType":"int256","name":"oldRep","type":"int256"},{"indexed":false,"internalType":"int256","name":"newRep","type":"int256"}],"name":"ReputationDecayed","type":"event"},{"anonymous":false,"inputs":[{"indexed":true,"internalType":"uint256","name":"entityId","type":"uint256"},{"indexed":false,"internalType":"string","name":"skill","type":"string"},{"indexed":false,"internalType":"uint256","name":"oldLevel","type":"uint256"},{"indexed":false,"internalType":"uint256","name":"newLevel","type":"uint256"}],"name":"SkillDecayed","type":"event"},{"inputs":[],"name":"BASIS_POINTS","outputs":[{"internalType":"uint256","name":"","type":"uint256"}],"stateMutability":"view","type":"function"},{"inputs":[],"name":"DEFAULT_HALF_LIFE","outputs":[{"internalType":"uint256","name":"","type":"uint256"}],"stateMutability":"view","type":"function"},{"inputs":[],"name":"DEFAULT_LIFE_EXPECTANCY","outputs":[{"internalType":"uint256","name":"","type":"uint256"}],"stateMutability":"view","type":"function"},{"inputs":[{"internalType":"uint256","name":"entityId","type":"uint256"}],"name":"applyReputationDecay","outputs":[],"stateMutability":"nonpayable","type":"function"},{"inputs":[{"internalType":"uint256","name":"entityId","type":"uint256"},{"internalType":"string","name":"skillName","type":"string"}],"name":"applySkillDecay","outputs":[],"stateMutability":"nonpayable","type":"function"},{"inputs":[{"internalType":"uint256","name":"entityId","type":"uint256"},{"internalType":"uint256","name":"startingAge","type":"uint256"},{"internalType":"uint256","name":"lifeExpectancy","type":"uint256"}],"name":"createTemporalEntity","outputs":[{"internalType":"bool","name":"","type":"bool"}],"stateMutability":"nonpayable","type":"function"},{"inputs":[{"internalType":"uint256","name":"","type":"uint256"}],"name":"entities","outputs":[{"internalType":"uint256","name":"entityId","type":"uint256"},{"internalType":"uint256","name":"birthTime","type":"uint256"},{"internalType":"uint256","name":"lastUpdate","type":"uint256"},{"internalType":"uint256","name":"age","type":"uint256"},{"internalType":"enum TemporalEntities.LifeStage","name":"lifeStage","type":"uint8"},{"internalType":"uint256","name":"lifeExpectancy","type":"uint256"},{"internalType":"bool","name":"isActive","type":"bool"},{"internalType":"uint256","name":"deathTime","type":"uint256"}],"stateMutability":"view","type":"function"},{"inputs":[{"internalType":"uint256","name":"","type":"uint256"}],"name":"entityReputation","outputs":[{"internalType":"int256","name":"baseReputation","type":"int256"},{"internalType":"uint256","name":"lastDecayTime","type":"uint256"},{"internalType":"uint256","name":"halfLifePeriod","type":"uint256"}],"stateMutability":"view","type":"function"},{"inputs":[{"internalType":"uint256","name":"","type":"uint256"},{"internalType":"string","name":"","type":"string"}],"name":"entitySkills","outputs":[{"internalType":"uint256","name":"level","type":"uint256"},{"internalType":"uint256","name":"lastUsed","type":"uint256"},{"internalType":"uint256","name":"decayRate","type":"uint256"},{"internalType":"uint256","name":"maxLevel","type":"uint256"}],"stateMutability":"view","type":"function"},{"inputs":[{"internalType":"uint256","name":"entityId","type":"uint256"}],"name":"getAgeInYears","outputs":[{"internalType":"uint256","name":"","type":"uint256"}],"stateMutability":"view","type":"function"},{"inputs":[{"internalType":"uint256","name":"entityId","type":"uint256"}],"name":"getCurrentReputation","outputs":[{"internalType":"int256","name":"","type":"int256"}],"stateMutability":"view","type":"function"},{"inputs":[{"internalType":"uint256","name":"entityId","type":"uint256"},{"internalType":"string","name":"skillName","type":"string"}],"name":"getSkillLevel","outputs":[{"internalType":"uint256","name":"","type":"uint256"}],"stateMutability":"view","type":"function"},{"inputs":[{"internalType":"uint256","name":"entityId","type":"uint256"}],"name":"isAlive","outputs":[{"internalType":"bool","name":"","type":"bool"}],"stateMutability":"view","type":"function"},{"inputs":[{"internalType":"uint256","name":"entityId","type":"uint256"}],"name":"markDeceased","outputs":[],"stateMutability":"nonpayable","type":"function"},{"inputs":[],"name":"owner","outputs":[{"internalType":"address","name":"","type":"address"}],"stateMutability":"view","type":"function"},{"inputs":[],"name":"renounceOwnership","outputs":[],"stateMutability":"nonpayable","type":"function"},{"inputs":[{"internalType":"uint256","name":"entityId","type":"uint256"},{"internalType":"string","name":"skillName","type":"string"},{"internalType":"uint256","name":"level","type":"uint256"},{"internalType":"uint256","name":"decayRate","type":"uint256"}],"name":"setSkill","outputs":[],"stateMutability":"nonpayable","type":"function"},{"inputs":[{"internalType":"address","name":"newOwner","type":"address"}],"name":"transferOwnership","outputs":[],"stateMutability":"nonpayable","type":"function"},{"inputs":[{"internalType":"uint256","name":"entityId","type":"uint256"}],"name":"updateAge","outputs":[],"stateMutability":"nonpayable","type":"function"},{"inputs":[{"internalType":"uint256","name":"entityId","type":"uint256"},{"internalType":"int256","name":"newReputation","type":"int256"}],"name":"updateReputation","outputs":[],"stateMutability":"nonpayable","type":"function"},{"inputs":[{"internalType":"uint256","name":"entityId","type":"uint256"},{"internalType":"string","name":"skillName","type":"string"}],"name":"useSkill","outputs":[],"stateMutability":"nonpayable","type":"function"}],"evm":{"bytecode":{"linkReferences":{},"object":"608060405234801561001057600080fd5b50338061003757604051631e4fbdf760e01b81526000600482015260240160405180910390fd5b61004081610046565b50610096565b600080546001600160a01b038381166001600160a01b0319831681178455604051919092169283917f8be0079c531659141344cd1fd0a4f28419497f9722a3daafe3b4186f6b6457e09190a35050565b6110ae806100a56000396000f3fe608060405234801561001057600080fd5b50600436106101375760003560e01c8063715018a6116100b8578063b9948d341161007c578063b9948d3414610335578063d1979aaa1461037f578063d84b236114610392578063dc897d6b146103c8578063e1f1c4a7146103db578063f2fde38b146103e457600080fd5b8063715018a6146102cc5780637d625c07146102d45780638da5cb5b146102e75780639d82676e14610302578063aed2246b1461031557600080fd5b80632e0ff449116100ff5780632e0ff449146102075780633b4dd6231461021a578063464c401d1461022557806362e1586d1461024e5780636331883b1461026157600080fd5b806307cee4d21461013c5780631591affd1461016257806315d39c731461017757806316fcdc201461018a57806318a4195c14610195575b600080fd5b61014f61014a366004610cc7565b6103f7565b6040519081526020015b60405180910390f35b610175610170366004610d83565b61041e565b005b610175610185366004610dca565b610565565b61014f639660180081565b6101e76101a3366004610d83565b600260208181526000938452604090932082518084018501805192815290850193909401929092209190925280546001820154928201546003909201549092919084565b604080519485526020850193909352918301526060820152608001610159565b610175610215366004610cc7565b6105df565b61014f6301e1338081565b610175610233366004610e21565b60009182526003602052604090912090815542600190910155565b61014f61025c366004610d83565b6105eb565b6102b861026f366004610cc7565b60016020819052600091825260409091208054918101546002820154600383015460048401546005850154600686015460079096015494959394929360ff928316939192169088565b604051610159989796959493929190610e7b565b61017561061f565b6101756102e2366004610cc7565b610633565b6000546040516001600160a01b039091168152602001610159565b610175610310366004610d83565b61078f565b61014f610323366004610cc7565b60009081526003602052604090205490565b610364610343366004610cc7565b60036020526000908152604090208054600182015460029092015490919083565b60408051938452602084019290925290820152606001610159565b61017561038d366004610cc7565b61080c565b6103b86103a0366004610cc7565b60009081526001602052604090206006015460ff1690565b6040519015158152602001610159565b6103b86103d6366004610ec5565b6108c7565b61014f61271081565b6101756103f2366004610ef1565b610ab5565b600081815260016020526040812060030154610418906301e1338090610f46565b92915050565b600082815260026020526040808220905161043a908490610f7e565b9081526020016040518091039020905060008160030154116104955760405162461bcd60e51b815260206004820152600f60248201526e14dada5b1b081b9bdd08199bdd5b99608a1b60448201526064015b60405180910390fd5b6000620151808260010154426104ab9190610f9a565b6104b59190610f46565b9050600781111561055f5781546002830154600090612710906104d9600786610f9a565b6104e39190610fad565b6104ed9190610f46565b8454909150811115610502576000845561051c565b808460000160008282546105169190610f9a565b90915550505b857f9454f944d7ed7c3c04ee5817fae213bee10ed8861821df04ebd51ada0f495f328684876000015460405161055493929190610fc4565b60405180910390a250505b50505050565b60405180608001604052808381526020014281526020018281526020018381525060026000868152602001908152602001600020846040516105a79190610f7e565b908152604080516020928190038301902083518155918301516001830155820151600282015560609091015160039091015550505050565b6105e881610af0565b50565b6000828152600260205260408082209051610607908490610f7e565b90815260405190819003602001902054905092915050565b610627610bae565b6106316000610bdb565b565b6000818152600160205260409020600681015460ff166106895760405162461bcd60e51b8152602060048201526011602482015270456e74697479206e6f742061637469766560781b604482015260640161048c565b6003810154600182015461069d9042610f9a565b600383018190554260028401556004830154600584015460ff909116916106c391610c2b565b8360040160006101000a81548160ff021916908360048111156106e8576106e8610e43565b02179055508060048111156106ff576106ff610e43565b60048085015460ff169081111561071857610718610e43565b141580610729575081836003015414155b15610777576003830154600484015460405186927fc2c2189b8006b2171b8efa3cb28a3a781a8b3c130d22781c0a54b85965cb7a349261076e9260ff90911690611006565b60405180910390a25b826005015483600301541061055f5761055f84610af0565b60008281526002602052604080822090516107ab908490610f7e565b9081526020016040518091039020905060008160030154116108015760405162461bcd60e51b815260206004820152600f60248201526e14dada5b1b081b9bdd08199bdd5b99608a1b604482015260640161048c565b426001909101555050565b6000818152600360205260408120600181015490919061082c9042610f9a565b905080156108c2578154600283015460009061084a61271085610fad565b6108549190610f46565b9050600061086182610c9c565b9050612710818660000154610876919061101a565b610880919061104a565b80865542600187015560405187917f64855d8e26c5d5c83bb8c7d5a1b7a1d8d87ab2b1b7746674a6b7373ba5e629159161055491878252602082015260400190565b505050565b60008381526001602052604081206006015460ff16156109215760405162461bcd60e51b8152602060048201526015602482015274456e7469747920616c72656164792065786973747360581b604482015260640161048c565b600061092d8442610f9a565b905060405180610100016040528086815260200182815260200142815260200185815260200161095d8686610c2b565b600481111561096e5761096e610e43565b815260200160008511610985576396601800610987565b845b81526001602080830182905260006040938401819052898152828252839020845181559084015181830155918301516002830155606083015160038301556080830151600480840180549293909260ff19169184908111156109eb576109eb610e43565b021790555060a082015160058281019190915560c083015160068301805460ff191691151591909117905560e0909201516007909101556040805160608101825260008082524260208084019182526301e133808486019081528b845260038252858420945185559151600185810191909155915160029094019390935582528290209092015481518481529283015286917fd0105dbed574920770e7621e1c1045436a5609c01f5c9ce9f8fc4a73b323523c910160405180910390a260019150505b9392505050565b610abd610bae565b6001600160a01b038116610ae757604051631e4fbdf760e01b81526000600482015260240161048c565b6105e881610bdb565b6000818152600160205260409020600681015460ff16610b455760405162461bcd60e51b815260206004820152601060248201526f105b1c9958591e48191958d9585cd95960821b604482015260640161048c565b60068101805460ff19908116909155600480830180549092161790554260078201819055600382015460408051928352602083019190915283917fc538d56e601c05ef4c34d7b9eacdcd56b80279702a3cd51df33b897719173ee2910160405180910390a25050565b6000546001600160a01b031633146106315760405163118cdaa760e01b815233600482015260240161048c565b600080546001600160a01b038381166001600160a01b0319831681178455604051919092169283917f8be0079c531659141344cd1fd0a4f28419497f9722a3daafe3b4186f6b6457e09190a35050565b60008082610c3a856064610fad565b610c449190610f46565b9050601e811015610c59576000915050610418565b6032811015610c6c576001915050610418565b604b811015610c7f576002915050610418565b6064811015610c92576003915050610418565b5060049392505050565b6000612710821115610cb057506000919050565b610cbb600283610f46565b61041890612710610f9a565b600060208284031215610cd957600080fd5b5035919050565b634e487b7160e01b600052604160045260246000fd5b600082601f830112610d0757600080fd5b813567ffffffffffffffff80821115610d2257610d22610ce0565b604051601f8301601f19908116603f01168101908282118183101715610d4a57610d4a610ce0565b81604052838152866020858801011115610d6357600080fd5b836020870160208301376000602085830101528094505050505092915050565b60008060408385031215610d9657600080fd5b82359150602083013567ffffffffffffffff811115610db457600080fd5b610dc085828601610cf6565b9150509250929050565b60008060008060808587031215610de057600080fd5b84359350602085013567ffffffffffffffff811115610dfe57600080fd5b610e0a87828801610cf6565b949794965050505060408301359260600135919050565b60008060408385031215610e3457600080fd5b50508035926020909101359150565b634e487b7160e01b600052602160045260246000fd5b60058110610e7757634e487b7160e01b600052602160045260246000fd5b9052565b600061010082019050898252886020830152876040830152866060830152610ea66080830187610e59565b60a082019490945291151560c083015260e09091015295945050505050565b600080600060608486031215610eda57600080fd5b505081359360208301359350604090920135919050565b600060208284031215610f0357600080fd5b81356001600160a01b0381168114610aae57600080fd5b634e487b7160e01b600052601260045260246000fd5b634e487b7160e01b600052601160045260246000fd5b600082610f5557610f55610f1a565b500490565b60005b83811015610f75578181015183820152602001610f5d565b50506000910152565b60008251610f90818460208701610f5a565b9190910192915050565b8181038181111561041857610418610f30565b808202811582820484141761041857610418610f30565b6060815260008451806060840152610fe3816080850160208901610f5a565b60208301949094525060408101919091526080601f909201601f19160101919050565b82815260408101610aae6020830184610e59565b80820260008212600160ff1b8414161561103657611036610f30565b818105831482151761041857610418610f30565b60008261105957611059610f1a565b600160ff1b82146000198414161561107357611073610f30565b50059056fea2646970667358221220ff4df37a5640345988299d8388f0457c5c7f49ba0d80bc065ff82da472d7851164736f6c63430008140033","opcodes":"PUSH1 0x80 PUSH1 0x40 MSTORE CALLVALUE DUP1 ISZERO PUSH2 0x10 JUMPI PUSH1 0x0 DUP1 REVERT JUMPDEST POP CALLER DUP1 PUSH2 0x37 JUMPI PUSH1 0x40 MLOAD PUSH4 0x1E4FBDF7 PUSH1 0xE0 SHL DUP2 MSTORE PUSH1 0x0 PUSH1 0x4 DUP3 ADD MSTORE PUSH1 0x24 ADD PUSH1 0x40 MLOAD DUP1 SWAP2 SUB SWAP1 REVERT JUMPDEST PUSH2 0x40 DUP2 PUSH2 0x46 JUMP JUMPDEST POP PUSH2 0x96 JUMP JUMPDEST PUSH1 0x0 DUP1 SLOAD PUSH1 0x1 PUSH1 0x1 PUSH1 0xA0 SHL SUB DUP4 DUP2 AND PUSH1 0x1 PUSH1 0x1 PUSH1 0xA0 SHL SUB NOT DUP4 AND DUP2 OR DUP5 SSTORE PUSH1 0x40 MLOAD SWAP2 SWAP1 SWAP3 AND SWAP3 DUP4 SWAP2 PUSH32 0x8BE0079C531659141344CD1FD0A4F28419497F9722A3DAAFE3B4186F6B6457E0 SWAP2 SWAP1 LOG3 POP POP JUMP JUMPDEST PUSH2 0x10AE DUP1 PUSH2 0xA5 PUSH1 0x0 CODECOPY PUSH1 0x0 RETURN INVALID PUSH1 0x80 PUSH1 0x40 MSTORE CALLVALUE DUP1 ISZERO PUSH2 0x10 JUMPI PUSH1 0x0 DUP1 REVERT JUMPDEST POP PUSH1 0x4 CALLDATASIZE LT PUSH2 0x137 JUMPI PUSH1 0x0 CALLDATALOAD PUSH1 0xE0 SHR DUP1 PUSH4 0x715018A6 GT PUSH2 0xB8 JUMPI DUP1 PUSH4 0xB9948D34 GT PUSH2 0x7C JUMPI DUP1 PUSH4 0xB9948D34 EQ PUSH2 0x335 JUMPI DUP1 PUSH4 0xD1979AAA EQ PUSH2 0x37F JUMPI DUP1 PUSH4 0xD84B2361 EQ PUSH2 0x392 JUMPI DUP1 PUSH4 0xDC897D6B EQ PUSH2 0x3C8 JUMPI DUP1 PUSH4 0xE1F1C4A7 EQ PUSH2 0x3DB JUMPI DUP1 PUSH4 0xF2FDE38B EQ PUSH2 0x3E4 JUMPI PUSH1 0x0 DUP1 REVERT JUMPDEST DUP1 PUSH4 0x715018A6 EQ PUSH2 0x2CC JUMPI DUP1 PUSH4 0x7D625C07 EQ PUSH2 0x2D4 JUMPI DUP1 PUSH4 0x8DA5CB5B EQ PUSH2 0x2E7 JUMPI DUP1 PUSH4 0x9D82676E EQ PUSH2 0x302 JUMPI DUP1 PUSH4 0xAED2246B EQ PUSH2 0x315 JUMPI PUSH1 0x0 DUP1 REVERT JUMPDEST DUP1 PUSH4 0x2E0FF449 GT PUSH2 0xFF JUMPI DUP1 PUSH4 0x2E0FF449 EQ PUSH2 0x207 JUMPI DUP1 PUSH4 0x3B4DD623 EQ PUSH2 0x21A JUMPI DUP1 PUSH4 0x464C401D EQ PUSH2 0x225 JUMPI DUP1 PUSH4 0x62E1586D EQ PUSH2 0x24E JUMPI DUP1 PUSH4 0x6331883B EQ PUSH2 0x261 JUMPI PUSH1 0x0 DUP1 REVERT JUMPDEST DUP1 PUSH4 0x7CEE4D2 EQ PUSH2 0x13C JUMPI DUP1 PUSH4 0x1591AFFD EQ PUSH2 0x162 JUMPI DUP1 PUSH4 0x15D39C73 EQ PUSH2 0x177 JUMPI DUP1 PUSH4 0x16FCDC20 EQ PUSH2 0x18A JUMPI DUP1 PUSH4 0x18A4195C EQ PUSH2 0x195 JUMPI JUMPDEST PUSH1 0x0 DUP1 REVERT JUMPDEST PUSH2 0x14F PUSH2 0x14A CALLDATASIZE PUSH1 0x4 PUSH2 0xCC7 JUMP JUMPDEST PUSH2 0x3F7 JUMP JUMPDEST PUSH1 0x40 MLOAD SWAP1 DUP2 MSTORE PUSH1 0x20 ADD JUMPDEST PUSH1 0x40 MLOAD DUP1 SWAP2 SUB SWAP1 RETURN JUMPDEST PUSH2 0x175 PUSH2 0x170 CALLDATASIZE PUSH1 0x4 PUSH2 0xD83 JUMP JUMPDEST PUSH2 0x41E JUMP JUMPDEST STOP JUMPDEST PUSH2 0x175 PUSH2 0x185 CALLDATASIZE PUSH1 0x4 PUSH2 0xDCA JUMP JUMPDEST PUSH2 0x565 JUMP JUMPDEST PUSH2 0x14F PUSH4 0x96601800 DUP2 JUMP JUMPDEST PUSH2 0x1E7 PUSH2 0x1A3 CALLDATASIZE PUSH1 0x4 PUSH2 0xD83 JUMP JUMPDEST PUSH1 0x2 PUSH1 0x20 DUP2 DUP2 MSTORE PUSH1 0x0 SWAP4 DUP5 MSTORE PUSH1 0x40 SWAP1 SWAP4 KECCAK256 DUP3 MLOAD DUP1 DUP5 ADD DUP6 ADD DUP1 MLOAD SWAP3 DUP2 MSTORE SWAP1 DUP6 ADD SWAP4 SWAP1 SWAP5 ADD SWAP3 SWAP1 SWAP3 KECCAK256 SWAP2 SWAP1 SWAP3 MSTORE DUP1 SLOAD PUSH1 0x1 DUP3 ADD SLOAD SWAP3 DUP3 ADD SLOAD PUSH1 0x3 SWAP1 SWAP3 ADD SLOAD SWAP1 SWAP3 SWAP2 SWAP1 DUP5 JUMP JUMPDEST PUSH1 0x40 DUP1 MLOAD SWAP5 DUP6 MSTORE PUSH1 0x20 DUP6 ADD SWAP4 SWAP1 SWAP4 MSTORE SWAP2 DUP4 ADD MSTORE PUSH1 0x60 DUP3 ADD MSTORE PUSH1 0x80 ADD PUSH2 0x159 JUMP JUMPDEST PUSH2 0x175 PUSH2 0x215 CALLDATASIZE PUSH1 0x4 PUSH2 0xCC7 JUMP JUMPDEST PUSH2 0x5DF JUMP JUMPDEST PUSH2 0x14F PUSH4 0x1E13380 DUP2 JUMP JUMPDEST PUSH2 0x175 PUSH2 0x233 CALLDATASIZE PUSH1 0x4 PUSH2 0xE21 JUMP JUMPDEST PUSH1 0x0 SWAP2 DUP3 MSTORE PUSH1 0x3 PUSH1 0x20 MSTORE PUSH1 0x40 SWAP1 SWAP2 KECCAK256 SWAP1 DUP2 SSTORE TIMESTAMP PUSH1 0x1 SWAP1 SWAP2 ADD SSTORE JUMP JUMPDEST PUSH2 0x14F PUSH2 0x25C CALLDATASIZE PUSH1 0x4 PUSH2 0xD83 JUMP JUMPDEST PUSH2 0x5EB JUMP JUMPDEST PUSH2 0x2B8 PUSH2 0x26F CALLDATASIZE PUSH1 0x4 PUSH2 0xCC7 JUMP JUMPDEST PUSH1 0x1 PUSH1 0x20 DUP2 SWAP1 MSTORE PUSH1 0x0 SWAP2 DUP3 MSTORE PUSH1 0x40 SWAP1 SWAP2 KECCAK256 DUP1 SLOAD SWAP2 DUP2 ADD SLOAD PUSH1 0x2 DUP3 ADD SLOAD PUSH1 0x3 DUP4 ADD SLOAD PUSH1 0x4 DUP5 ADD SLOAD PUSH1 0x5 DUP6 ADD SLOAD PUSH1 0x6 DUP7 ADD SLOAD PUSH1 0x7 SWAP1 SWAP7 ADD SLOAD SWAP5 SWAP6 SWAP4 SWAP5 SWAP3 SWAP4 PUSH1 0xFF SWAP3 DUP4 AND SWAP4 SWAP2 SWAP3 AND SWAP1 DUP9 JUMP JUMPDEST PUSH1 0x40 MLOAD PUSH2 0x159 SWAP9 SWAP8 SWAP7 SWAP6 SWAP5 SWAP4 SWAP3 SWAP2 SWAP1 PUSH2 0xE7B JUMP JUMPDEST PUSH2 0x175 PUSH2 0x61F JUMP JUMPDEST PUSH2 0x175 PUSH2 0x2E2 CALLDATASIZE PUSH1 0x4 PUSH2 0xCC7 JUMP JUMPDEST PUSH2 0x633 JUMP JUMPDEST PUSH1 0x0 SLOAD PUSH1 0x40 MLOAD PUSH1 0x1 PUSH1 0x1 PUSH1 0xA0 SHL SUB SWAP1 SWAP2 AND DUP2 MSTORE PUSH1 0x20 ADD PUSH2 0x159 JUMP JUMPDEST PUSH2 0x175 PUSH2 0x310 CALLDATASIZE PUSH1 0x4 PUSH2 0xD83 JUMP JUMPDEST PUSH2 0x78F JUMP JUMPDEST PUSH2 0x14F PUSH2 0x323 CALLDATASIZE PUSH1 0x4 PUSH2 0xCC7 JUMP JUMPDEST PUSH1 0x0 SWAP1 DUP2 MSTORE PUSH1 0x3 PUSH1 0x20 MSTORE PUSH1 0x40 SWAP1 KECCAK256 SLOAD SWAP1 JUMP JUMPDEST PUSH2 0x364 PUSH2 0x343 CALLDATASIZE PUSH1 0x4 PUSH2 0xCC7 JUMP JUMPDEST PUSH1 0x3 PUSH1 0x20 MSTORE PUSH1 0x0 SWAP1 DUP2 MSTORE PUSH1 0x40 SWAP1 KECCAK256 DUP1 SLOAD PUSH1 0x1 DUP3 ADD SLOAD PUSH1 0x2 SWAP1 SWAP3 ADD SLOAD SWAP1 SWAP2 SWAP1 DUP4 JUMP JUMPDEST PUSH1 0x40 DUP1 MLOAD SWAP4 DUP5 MSTORE PUSH1 0x20 DUP5 ADD SWAP3 SWAP1 SWAP3 MSTORE SWAP1 DUP3 ADD MSTORE PUSH1 0x60 ADD PUSH2 0x159 JUMP JUMPDEST PUSH2 0x175 PUSH2 0x38D CALLDATASIZE PUSH1 0x4 PUSH2 0xCC7 JUMP JUMPDEST PUSH2 0x80C JUMP JUMPDEST PUSH2 0x3B8 PUSH2 0x3A0 CALLDATASIZE PUSH1 0x4 PUSH2 0xCC7 JUMP JUMPDEST PUSH1 0x0 SWAP1 DUP2 MSTORE PUSH1 0x1 PUSH1 0x20 MSTORE PUSH1 0x40 SWAP1 KECCAK256 PUSH1 0x6 ADD SLOAD PUSH1 0xFF AND SWAP1 JUMP JUMPDEST PUSH1 0x40 MLOAD SWAP1 ISZERO ISZERO DUP2 MSTORE PUSH1 0x20 ADD PUSH2 0x159 JUMP JUMPDEST PUSH2 0x3B8 PUSH2 0x3D6 CALLDATASIZE PUSH1 0x4 PUSH2 0xEC5 JUMP JUMPDEST PUSH2 0x8C7 JUMP JUMPDEST PUSH2 0x14F PUSH2 0x2710 DUP2 JUMP JUMPDEST PUSH2 0x175 PUSH2 0x3F2 CALLDATASIZE PUSH1 0x4 PUSH2 0xEF1 JUMP JUMPDEST PUSH2 0xAB5 JUMP JUMPDEST PUSH1 0x0 DUP2 DUP2 MSTORE PUSH1 0x1 PUSH1 0x20 MSTORE PUSH1 0x40 DUP2 KECCAK256 PUSH1 0x3 ADD SLOAD PUSH2 0x418 SWAP1 PUSH4 0x1E13380 SWAP1 PUSH2 0xF46 JUMP JUMPDEST SWAP3 SWAP2 POP POP JUMP JUMPDEST PUSH1 0x0 DUP3 DUP2 MSTORE PUSH1 0x2 PUSH1 0x20 MSTORE PUSH1 0x40 DUP1 DUP3 KECCAK256 SWAP1 MLOAD PUSH2 0x43A SWAP1 DUP5 SWAP1 PUSH2 0xF7E JUMP JUMPDEST SWAP1 DUP2 MSTORE PUSH1 0x20 ADD PUSH1 0x40 MLOAD DUP1 SWAP2 SUB SWAP1 KECCAK256 SWAP1 POP PUSH1 0x0 DUP2 PUSH1 0x3 ADD SLOAD GT PUSH2 0x495 JUMPI PUSH1 0x40 MLOAD PUSH3 0x461BCD PUSH1 0xE5 SHL DUP2 MSTORE PUSH1 0x20 PUSH1 0x4 DUP3 ADD MSTORE PUSH1 0xF PUSH1 0x24 DUP3 ADD MSTORE PUSH15 0x14DADA5B1B081B9BDD08199BDD5B99 PUSH1 0x8A SHL PUSH1 0x44 DUP3 ADD MSTORE PUSH1 0x64 ADD JUMPDEST PUSH1 0x40 MLOAD DUP1 SWAP2 SUB SWAP1 REVERT JUMPDEST PUSH1 0x0 PUSH3 0x15180 DUP3 PUSH1 0x1 ADD SLOAD TIMESTAMP PUSH2 0x4AB SWAP2 SWAP1 PUSH2 0xF9A JUMP JUMPDEST PUSH2 0x4B5 SWAP2 SWAP1 PUSH2 0xF46 JUMP JUMPDEST SWAP1 POP PUSH1 0x7 DUP2 GT ISZERO PUSH2 0x55F JUMPI DUP2 SLOAD PUSH1 0x2 DUP4 ADD SLOAD PUSH1 0x0 SWAP1 PUSH2 0x2710 SWAP1 PUSH2 0x4D9 PUSH1 0x7 DUP7 PUSH2 0xF9A JUMP JUMPDEST PUSH2 0x4E3 SWAP2 SWAP1 PUSH2 0xFAD JUMP JUMPDEST PUSH2 0x4ED SWAP2 SWAP1 PUSH2 0xF46 JUMP JUMPDEST DUP5 SLOAD SWAP1 SWAP2 POP DUP2 GT ISZERO PUSH2 0x502 JUMPI PUSH1 0x0 DUP5 SSTORE PUSH2 0x51C JUMP JUMPDEST DUP1 DUP5 PUSH1 0x0 ADD PUSH1 0x0 DUP3 DUP3 SLOAD PUSH2 0x516 SWAP2 SWAP1 PUSH2 0xF9A JUMP JUMPDEST SWAP1 SWAP2 SSTORE POP POP JUMPDEST DUP6 PUSH32 0x9454F944D7ED7C3C04EE5817FAE213BEE10ED8861821DF04EBD51ADA0F495F32 DUP7 DUP5 DUP8 PUSH1 0x0 ADD SLOAD PUSH1 0x40 MLOAD PUSH2 0x554 SWAP4 SWAP3 SWAP2 SWAP1 PUSH2 0xFC4 JUMP JUMPDEST PUSH1 0x40 MLOAD DUP1 SWAP2 SUB SWAP1 LOG2 POP POP JUMPDEST POP POP POP POP JUMP JUMPDEST PUSH1 0x40 MLOAD DUP1 PUSH1 0x80 ADD PUSH1 0x40 MSTORE DUP1 DUP4 DUP2 MSTORE PUSH1 0x20 ADD TIMESTAMP DUP2 MSTORE PUSH1 0x20 ADD DUP3 DUP2 MSTORE PUSH1 0x20 ADD DUP4 DUP2 MSTORE POP PUSH1 0x2 PUSH1 0x0 DUP7 DUP2 MSTORE PUSH1 0x20 ADD SWAP1 DUP2 MSTORE PUSH1 0x20 ADD PUSH1 0x0 KECCAK256 DUP5 PUSH1 0x40 MLOAD PUSH2 0x5A7 SWAP2 SWAP1 PUSH2 0xF7E JUMP JUMPDEST SWAP1 DUP2 MSTORE PUSH1 0x40 DUP1 MLOAD PUSH1 0x20 SWAP3 DUP2 SWAP1 SUB DUP4 ADD SWAP1 KECCAK256 DUP4 MLOAD DUP2 SSTORE SWAP2 DUP4 ADD MLOAD PUSH1 0x1 DUP4 ADD SSTORE DUP3 ADD MLOAD PUSH1 0x2 DUP3 ADD SSTORE PUSH1 0x60 SWAP1 SWAP2 ADD MLOAD PUSH1 0x3 SWAP1 SWAP2 ADD SSTORE POP POP POP POP JUMP JUMPDEST PUSH2 0x5E8 DUP2 PUSH2 0xAF0 JUMP JUMPDEST POP JUMP JUMPDEST PUSH1 0x0 DUP3 DUP2 MSTORE PUSH1 0x2 PUSH1 0x20 MSTORE PUSH1 0x40 DUP1 DUP3 KECCAK256 SWAP1 MLOAD PUSH2 0x607 SWAP1 DUP5 SWAP1 PUSH2 0xF7E JUMP JUMPDEST SWAP1 DUP2 MSTORE PUSH1 0x40 MLOAD SWAP1 DUP2 SWAP1 SUB PUSH1 0x20 ADD SWAP1 KECCAK256 SLOAD SWAP1 POP SWAP3 SWAP2 POP POP JUMP JUMPDEST PUSH2 0x627 PUSH2 0xBAE JUMP JUMPDEST PUSH2 0x631 PUSH1 0x0 PUSH2 0xBDB JUMP JUMPDEST JUMP JUMPDEST PUSH1 0x0 DUP2 DUP2 MSTORE PUSH1 0x1 PUSH1 0x20 MSTORE PUSH1 0x40 SWAP1 KECCAK256 PUSH1 0x6 DUP2 ADD SLOAD PUSH1 0xFF AND PUSH2 0x689 JUMPI PUSH1 0x40 MLOAD PUSH3 0x461BCD PUSH1 0xE5 SHL DUP2 MSTORE PUSH1 0x20 PUSH1 0x4 DUP3 ADD MSTORE PUSH1 0x11 PUSH1 0x24 DUP3 ADD MSTORE PUSH17 0x456E74697479206E6F7420616374697665 PUSH1 0x78 SHL PUSH1 0x44 DUP3 ADD MSTORE PUSH1 0x64 ADD PUSH2 0x48C JUMP JUMPDEST PUSH1 0x3 DUP2 ADD SLOAD PUSH1 0x1 DUP3 ADD SLOAD PUSH2 0x69D SWAP1 TIMESTAMP PUSH2 0xF9A JUMP JUMPDEST PUSH1 0x3 DUP4 ADD DUP2 SWAP1 SSTORE TIMESTAMP PUSH1 0x2 DUP5 ADD SSTORE PUSH1 0x4 DUP4 ADD SLOAD PUSH1 0x5 DUP5 ADD SLOAD PUSH1 0xFF SWAP1 SWAP2 AND SWAP2 PUSH2 0x6C3 SWAP2 PUSH2 0xC2B JUMP JUMPDEST DUP4 PUSH1 0x4 ADD PUSH1 0x0 PUSH2 0x100 EXP DUP2 SLOAD DUP2 PUSH1 0xFF MUL NOT AND SWAP1 DUP4 PUSH1 0x4 DUP2 GT ISZERO PUSH2 0x6E8 JUMPI PUSH2 0x6E8 PUSH2 0xE43 JUMP JUMPDEST MUL OR SWAP1 SSTORE POP DUP1 PUSH1 0x4 DUP2 GT ISZERO PUSH2 0x6FF JUMPI PUSH2 0x6FF PUSH2 0xE43 JUMP JUMPDEST PUSH1 0x4 DUP1 DUP6 ADD SLOAD PUSH1 0xFF AND SWAP1 DUP2 GT ISZERO PUSH2 0x718 JUMPI PUSH2 0x718 PUSH2 0xE43 JUMP JUMPDEST EQ ISZERO DUP1 PUSH2 0x729 JUMPI POP DUP2 DUP4 PUSH1 0x3 ADD SLOAD EQ ISZERO JUMPDEST ISZERO PUSH2 0x777 JUMPI PUSH1 0x3 DUP4 ADD SLOAD PUSH1 0x4 DUP5 ADD SLOAD PUSH1 0x40 MLOAD DUP7 SWAP3 PUSH32 0xC2C2189B8006B2171B8EFA3CB28A3A781A8B3C130D22781C0A54B85965CB7A34 SWAP3 PUSH2 0x76E SWAP3 PUSH1 0xFF SWAP1 SWAP2 AND SWAP1 PUSH2 0x1006 JUMP JUMPDEST PUSH1 0x40 MLOAD DUP1 SWAP2 SUB SWAP1 LOG2 JUMPDEST DUP3 PUSH1 0x5 ADD SLOAD DUP4 PUSH1 0x3 ADD SLOAD LT PUSH2 0x55F JUMPI PUSH2 0x55F DUP5 PUSH2 0xAF0 JUMP JUMPDEST PUSH1 0x0 DUP3 DUP2 MSTORE PUSH1 0x2 PUSH1 0x20 MSTORE PUSH1 0x40 DUP1 DUP3 KECCAK256 SWAP1 MLOAD PUSH2 0x7AB SWAP1 DUP5 SWAP1 PUSH2 0xF7E JUMP JUMPDEST SWAP1 DUP2 MSTORE PUSH1 0x20 ADD PUSH1 0x40 MLOAD DUP1 SWAP2 SUB SWAP1 KECCAK256 SWAP1 POP PUSH1 0x0 DUP2 PUSH1 0x3 ADD SLOAD GT PUSH2 0x801 JUMPI PUSH1 0x40 MLOAD PUSH3 0x461BCD PUSH1 0xE5 SHL DUP2 MSTORE PUSH1 0x20 PUSH1 0x4 DUP3 ADD MSTORE PUSH1 0xF PUSH1 0x24 DUP3 ADD MSTORE PUSH15 0x14DADA5B1B081B9BDD08199BDD5B99 PUSH1 0x8A SHL PUSH1 0x44 DUP3 ADD MSTORE PUSH1 0x64 ADD PUSH2 0x48C JUMP JUMPDEST TIMESTAMP PUSH1 0x1 SWAP1 SWAP2 ADD SSTORE POP POP JUMP JUMPDEST PUSH1 0x0 DUP2 DUP2 MSTORE PUSH1 0x3 PUSH1 0x20 MSTORE PUSH1 0x40 DUP2 KECCAK256 PUSH1 0x1 DUP2 ADD SLOAD SWAP1 SWAP2 SWAP1 PUSH2 0x82C SWAP1 TIMESTAMP PUSH2 0xF9A JUMP JUMPDEST SWAP1 POP DUP1 ISZERO PUSH2 0x8C2 JUMPI DUP2 SLOAD PUSH1 0x2 DUP4 ADD SLOAD PUSH1 0x0 SWAP1 PUSH2 0x84A PUSH2 0x2710 DUP6 PUSH2 0xFAD JUMP JUMPDEST PUSH2 0x854 SWAP2 SWAP1 PUSH2 0xF46 JUMP JUMPDEST SWAP1 POP PUSH1 0x0 PUSH2 0x861 DUP3 PUSH2 0xC9C JUMP JUMPDEST SWAP1 POP PUSH2 0x2710 DUP2 DUP7 PUSH1 0x0 ADD SLOAD PUSH2 0x876 SWAP2 SWAP1 PUSH2 0x101A JUMP JUMPDEST PUSH2 0x880 SWAP2 SWAP1 PUSH2 0x104A JUMP JUMPDEST DUP1 DUP7 SSTORE TIMESTAMP PUSH1 0x1 DUP8 ADD SSTORE PUSH1 0x40 MLOAD DUP8 SWAP2 PUSH32 0x64855D8E26C5D5C83BB8C7D5A1B7A1D8D87AB2B1B7746674A6B7373BA5E62915 SWAP2 PUSH2 0x554 SWAP2 DUP8 DUP3 MSTORE PUSH1 0x20 DUP3 ADD MSTORE PUSH1 0x40 ADD SWAP1 JUMP JUMPDEST POP POP POP JUMP JUMPDEST PUSH1 0x0 DUP4 DUP2 MSTORE PUSH1 0x1 PUSH1 0x20 MSTORE PUSH1 0x40 DUP2 KECCAK256 PUSH1 0x6 ADD SLOAD PUSH1 0xFF AND ISZERO PUSH2 0x921 JUMPI PUSH1 0x40 MLOAD PUSH3 0x461BCD PUSH1 0xE5 SHL DUP2 MSTORE PUSH1 0x20 PUSH1 0x4 DUP3 ADD MSTORE PUSH1 0x15 PUSH1 0x24 DUP3 ADD MSTORE PUSH21 0x456E7469747920616C726561647920657869737473 PUSH1 0x58 SHL PUSH1 0x44 DUP3 ADD MSTORE PUSH1 0x64 ADD PUSH2 0x48C JUMP JUMPDEST PUSH1 0x0 PUSH2 0x92D DUP5 TIMESTAMP PUSH2 0xF9A JUMP JUMPDEST SWAP1 POP PUSH1 0x40 MLOAD DUP1 PUSH2 0x100 ADD PUSH1 0x40 MSTORE DUP1 DUP7 DUP2 MSTORE PUSH1 0x20 ADD DUP3 DUP2 MSTORE PUSH1 0x20 ADD TIMESTAMP DUP2 MSTORE PUSH1 0x20 ADD DUP6 DUP2 MSTORE PUSH1 0x20 ADD PUSH2 0x95D DUP7 DUP7 PUSH2 0xC2B JUMP JUMPDEST PUSH1 0x4 DUP2 GT ISZERO PUSH2 0x96E JUMPI PUSH2 0x96E PUSH2 0xE43 JUMP JUMPDEST DUP2 MSTORE PUSH1 0x20 ADD PUSH1 0x0 DUP6 GT PUSH2 0x985 JUMPI PUSH4 0x96601800 PUSH2 0x987 JUMP JUMPDEST DUP5 JUMPDEST DUP2 MSTORE PUSH1 0x1 PUSH1 0x20 DUP1 DUP4 ADD DUP3 SWAP1 MSTORE PUSH1 0x0 PUSH1 0x40 SWAP4 DUP5 ADD DUP2 SWAP1 MSTORE DUP10 DUP2 MSTORE DUP3 DUP3 MSTORE DUP4 SWAP1 KECCAK256 DUP5 MLOAD DUP2 SSTORE SWAP1 DUP5 ADD MLOAD DUP2 DUP4 ADD SSTORE SWAP2 DUP4 ADD MLOAD PUSH1 0x2 DUP4 ADD SSTORE PUSH1 0x60 DUP4 ADD MLOAD PUSH1 0x3 DUP4 ADD SSTORE PUSH1 0x80 DUP4 ADD MLOAD PUSH1 0x4 DUP1 DUP5 ADD DUP1 SLOAD SWAP3 SWAP4 SWAP1 SWAP3 PUSH1 0xFF NOT AND SWAP2 DUP5 SWAP1 DUP2 GT ISZERO PUSH2 0x9EB JUMPI PUSH2 0x9EB PUSH2 0xE43 JUMP JUMPDEST MUL OR SWAP1 SSTORE POP PUSH1 0xA0 DUP3 ADD MLOAD PUSH1 0x5 DUP3 DUP2 ADD SWAP2 SWAP1 SWAP2 SSTORE PUSH1 0xC0 DUP4 ADD MLOAD PUSH1 0x6 DUP4 ADD DUP1 SLOAD PUSH1 0xFF NOT AND SWAP2 ISZERO ISZERO SWAP2 SWAP1 SWAP2 OR SWAP1 SSTORE PUSH1 0xE0 SWAP1 SWAP3 ADD MLOAD PUSH1 0x7 SWAP1 SWAP2 ADD SSTORE PUSH1 0x40 DUP1 MLOAD PUSH1 0x60 DUP2 ADD DUP3 MSTORE PUSH1 0x0 DUP1 DUP3 MSTORE TIMESTAMP PUSH1 0x20 DUP1 DUP5 ADD SWAP2 DUP3 MSTORE PUSH4 0x1E13380 DUP5 DUP7 ADD SWAP1 DUP2 MSTORE DUP12 DUP5 MSTORE PUSH1 0x3 DUP3 MSTORE DUP6 DUP5 KECCAK256 SWAP5 MLOAD DUP6 SSTORE SWAP2 MLOAD PUSH1 0x1 DUP6 DUP2 ADD SWAP2 SWAP1 SWAP2 SSTORE SWAP2 MLOAD PUSH1 0x2 SWAP1 SWAP5 ADD SWAP4 SWAP1 SWAP4 SSTORE DUP3 MSTORE DUP3 SWAP1 KECCAK256 SWAP1 SWAP3 ADD SLOAD DUP2 MLOAD DUP5 DUP2 MSTORE SWAP3 DUP4 ADD MSTORE DUP7 SWAP2 PUSH32 0xD0105DBED574920770E7621E1C1045436A5609C01F5C9CE9F8FC4A73B323523C SWAP2 ADD PUSH1 0x40 MLOAD DUP1 SWAP2 SUB SWAP1 LOG2 PUSH1 0x1 SWAP2 POP POP JUMPDEST SWAP4 SWAP3 POP POP POP JUMP JUMPDEST PUSH2 0xABD PUSH2 0xBAE JUMP JUMPDEST PUSH1 0x1 PUSH1 0x1 PUSH1 0xA0 SHL SUB DUP2 AND PUSH2 0xAE7 JUMPI PUSH1 0x40 MLOAD PUSH4 0x1E4FBDF7 PUSH1 0xE0 SHL DUP2 MSTORE PUSH1 0x0 PUSH1 0x4 DUP3 ADD MSTORE PUSH1 0x24 ADD PUSH2 0x48C JUMP JUMPDEST PUSH2 0x5E8 DUP2 PUSH2 0xBDB JUMP JUMPDEST PUSH1 0x0 DUP2 DUP2 MSTORE PUSH1 0x1 PUSH1 0x20 MSTORE PUSH1 0x40 SWAP1 KECCAK256 PUSH1 0x6 DUP2 ADD SLOAD PUSH1 0xFF AND PUSH2 0xB45 JUMPI PUSH1 0x40 MLOAD PUSH3 0x461BCD PUSH1 0xE5 SHL DUP2 MSTORE PUSH1 0x20 PUSH1 0x4 DUP3 ADD MSTORE PUSH1 0x10 PUSH1 0x24 DUP3 ADD MSTORE PUSH16 0x105B1C9958591E48191958D9585CD959 PUSH1 0x82 SHL PUSH1 0x44 DUP3 ADD MSTORE PUSH1 0x64 ADD PUSH2 0x48C JUMP JUMPDEST PUSH1 0x6 DUP2 ADD DUP1 SLOAD PUSH1 0xFF NOT SWAP1 DUP2 AND SWAP1 SWAP2 SSTORE PUSH1 0x4 DUP1 DUP4 ADD DUP1 SLOAD SWAP1 SWAP3 AND OR SWAP1 SSTORE TIMESTAMP PUSH1 0x7 DUP3 ADD DUP2 SWAP1 SSTORE PUSH1 0x3 DUP3 ADD SLOAD PUSH1 0x40 DUP1 MLOAD SWAP3 DUP4 MSTORE PUSH1 0x20 DUP4 ADD SWAP2 SWAP1 SWAP2 MSTORE DUP4 SWAP2 PUSH32 0xC538D56E601C05EF4C34D7B9EACDCD56B80279702A3CD51DF33B897719173EE2 SWAP2 ADD PUSH1 0x40 MLOAD DUP1 SWAP2 SUB SWAP1 LOG2 POP POP JUMP JUMPDEST PUSH1 0x0 SLOAD PUSH1 0x1 PUSH1 0x1 PUSH1 0xA0 SHL SUB AND CALLER EQ PUSH2 0x631 JUMPI PUSH1 0x40 MLOAD PUSH4 0x118CDAA7 PUSH1 0xE0 SHL DUP2 MSTORE CALLER PUSH1 0x4 DUP3 ADD MSTORE PUSH1 0x24 ADD PUSH2 0x48C JUMP JUMPDEST PUSH1 0x0 DUP1 SLOAD PUSH1 0x1 PUSH1 0x1 PUSH1 0xA0 SHL SUB DUP4 DUP2 AND PUSH1 0x1 PUSH1 0x1 PUSH1 0xA0 SHL SUB NOT DUP4 AND DUP2 OR DUP5 SSTORE PUSH1 0x40 MLOAD SWAP2 SWAP1 SWAP3 AND SWAP3 DUP4 SWAP2 PUSH32 0x8BE0079C531659141344CD1FD0A4F28419497F9722A3DAAFE3B4186F6B6457E0 SWAP2 SWAP1 LOG3 POP POP JUMP JUMPDEST PUSH1 0x0 DUP1 DUP3 PUSH2 0xC3A DUP6 PUSH1 0x64 PUSH2 0xFAD JUMP JUMPDEST PUSH2 0xC44 SWAP2 SWAP1 PUSH2 0xF46 JUMP JUMPDEST SWAP1 POP PUSH1 0x1E DUP2 LT ISZERO PUSH2 0xC59 JUMPI PUSH1 0x0 SWAP2 POP POP PUSH2 0x418 JUMP JUMPDEST PUSH1 0x32 DUP2 LT ISZERO PUSH2 0xC6C JUMPI PUSH1 0x1 SWAP2 POP POP PUSH2 0x418 JUMP JUMPDEST PUSH1 0x4B DUP2 LT ISZERO PUSH2 0xC7F JUMPI PUSH1 0x2 SWAP2 POP POP PUSH2 0x418 JUMP JUMPDEST PUSH1 0x64 DUP2 LT ISZERO PUSH2 0xC92 JUMPI PUSH1 0x3 SWAP2 POP POP PUSH2 0x418 JUMP JUMPDEST POP PUSH1 0x4 SWAP4 SWAP3 POP POP POP JUMP JUMPDEST PUSH1 0x0 PUSH2 0x2710 DUP3 GT ISZERO PUSH2 0xCB0 JUMPI POP PUSH1 0x0 SWAP2 SWAP1 POP JUMP JUMPDEST PUSH2 0xCBB PUSH1 0x2 DUP4 PUSH2 0xF46 JUMP JUMPDEST PUSH2 0x418 SWAP1 PUSH2 0x2710 PUSH2 0xF9A JUMP JUMPDEST PUSH1 0x0 PUSH1 0x20 DUP3 DUP5 SUB SLT ISZERO PUSH2 0xCD9 JUMPI PUSH1 0x0 DUP1 REVERT JUMPDEST POP CALLDATALOAD SWAP2 SWAP1 POP JUMP JUMPDEST PUSH4 0x4E487B71 PUSH1 0xE0 SHL PUSH1 0x0 MSTORE PUSH1 0x41 PUSH1 0x4 MSTORE PUSH1 0x24 PUSH1 0x0 REVERT JUMPDEST PUSH1 0x0 DUP3 PUSH1 0x1F DUP4 ADD SLT PUSH2 0xD07 JUMPI PUSH1 0x0 DUP1 REVERT JUMPDEST DUP2 CALLDATALOAD PUSH8 0xFFFFFFFFFFFFFFFF DUP1 DUP3 GT ISZERO PUSH2 0xD22 JUMPI PUSH2 0xD22 PUSH2 0xCE0 JUMP JUMPDEST PUSH1 0x40 MLOAD PUSH1 0x1F DUP4 ADD PUSH1 0x1F NOT SWAP1 DUP2 AND PUSH1 0x3F ADD AND DUP2 ADD SWAP1 DUP3 DUP3 GT DUP2 DUP4 LT OR ISZERO PUSH2 0xD4A JUMPI PUSH2 0xD4A PUSH2 0xCE0 JUMP JUMPDEST DUP2 PUSH1 0x40 MSTORE DUP4 DUP2 MSTORE DUP7 PUSH1 0x20 DUP6 DUP9 ADD ADD GT ISZERO PUSH2 0xD63 JUMPI PUSH1 0x0 DUP1 REVERT JUMPDEST DUP4 PUSH1 0x20 DUP8 ADD PUSH1 0x20 DUP4 ADD CALLDATACOPY PUSH1 0x0 PUSH1 0x20 DUP6 DUP4 ADD ADD MSTORE DUP1 SWAP5 POP POP POP POP POP SWAP3 SWAP2 POP POP JUMP JUMPDEST PUSH1 0x0 DUP1 PUSH1 0x40 DUP4 DUP6 SUB SLT ISZERO PUSH2 0xD96 JUMPI PUSH1 0x0 DUP1 REVERT JUMPDEST DUP3 CALLDATALOAD SWAP2 POP PUSH1 0x20 DUP4 ADD CALLDATALOAD PUSH8 0xFFFFFFFFFFFFFFFF DUP2 GT ISZERO PUSH2 0xDB4 JUMPI PUSH1 0x0 DUP1 REVERT JUMPDEST PUSH2 0xDC0 DUP6 DUP3 DUP7 ADD PUSH2 0xCF6 JUMP JUMPDEST SWAP2 POP POP SWAP3 POP SWAP3 SWAP1 POP JUMP JUMPDEST PUSH1 0x0 DUP1 PUSH1 0x0 DUP1 PUSH1 0x80 DUP6 DUP8 SUB SLT ISZERO PUSH2 0xDE0 JUMPI PUSH1 0x0 DUP1 REVERT JUMPDEST DUP5 CALLDATALOAD SWAP4 POP PUSH1 0x20 DUP6 ADD CALLDATALOAD PUSH8 0xFFFFFFFFFFFFFFFF DUP2 GT ISZERO PUSH2 0xDFE JUMPI PUSH1 0x0 DUP1 REVERT JUMPDEST PUSH2 0xE0A DUP8 DUP3 DUP9 ADD PUSH2 0xCF6 JUMP JUMPDEST SWAP5 SWAP8 SWAP5 SWAP7 POP POP POP POP PUSH1 0x40 DUP4 ADD CALLDATALOAD SWAP3 PUSH1 0x60 ADD CALLDATALOAD SWAP2 SWAP1 POP JUMP JUMPDEST PUSH1 0x0 DUP1 PUSH1 0x40 DUP4 DUP6 SUB SLT ISZERO PUSH2 0xE34 JUMPI PUSH1 0x0 DUP1 REVERT JUMPDEST POP POP DUP1 CALLDATALOAD SWAP3 PUSH1 0x20 SWAP1 SWAP2 ADD CALLDATALOAD SWAP2 POP JUMP JUMPDEST PUSH4 0x4E487B71 PUSH1 0xE0 SHL PUSH1 0x0 MSTORE PUSH1 0x21 PUSH1 0x4 MSTORE PUSH1 0x24 PUSH1 0x0 REVERT JUMPDEST PUSH1 0x5 DUP2 LT PUSH2 0xE77 JUMPI PUSH4 0x4E487B71 PUSH1 0xE0 SHL PUSH1 0x0 MSTORE PUSH1 0x21 PUSH1 0x4 MSTORE PUSH1 0x24 PUSH1 0x0 REVERT JUMPDEST SWAP1 MSTORE JUMP JUMPDEST PUSH1 0x0 PUSH2 0x100 DUP3 ADD SWAP1 POP DUP10 DUP3 MSTORE DUP9 PUSH1 0x20 DUP4 ADD MSTORE DUP8 PUSH1 0x40 DUP4 ADD MSTORE DUP7 PUSH1 0x60 DUP4 ADD MSTORE PUSH2 0xEA6 PUSH1 0x80 DUP4 ADD DUP8 PUSH2 0xE59 JUMP JUMPDEST PUSH1 0xA0 DUP3 ADD SWAP5 SWAP1 SWAP5 MSTORE SWAP2 ISZERO ISZERO PUSH1 0xC0 DUP4 ADD MSTORE PUSH1 0xE0 SWAP1 SWAP2 ADD MSTORE SWAP6 SWAP5 POP POP POP POP POP JUMP JUMPDEST PUSH1 0x0 DUP1 PUSH1 0x0 PUSH1 0x60 DUP5 DUP7 SUB SLT ISZERO PUSH2 0xEDA JUMPI PUSH1 0x0 DUP1 REVERT JUMPDEST POP POP DUP2 CALLDATALOAD SWAP4 PUSH1 0x20 DUP4 ADD CALLDATALOAD SWAP4 POP PUSH1 0x40 SWAP1 SWAP3 ADD CALLDATALOAD SWAP2 SWAP1 POP JUMP JUMPDEST PUSH1 0x0 PUSH1 0x20 DUP3 DUP5 SUB SLT ISZERO PUSH2 0xF03 JUMPI PUSH1 0x0 DUP1 REVERT JUMPDEST DUP2 CALLDATALOAD PUSH1 0x1 PUSH1 0x1 PUSH1 0xA0 SHL SUB DUP2 AND DUP2 EQ PUSH2 0xAAE JUMPI PUSH1 0x0 DUP1 REVERT JUMPDEST PUSH4 0x4E487B71 PUSH1 0xE0 SHL PUSH1 0x0 MSTORE PUSH1 0x12 PUSH1 0x4 MSTORE PUSH1 0x24 PUSH1 0x0 REVERT JUMPDEST PUSH4 0x4E487B71 PUSH1 0xE0 SHL PUSH1 0x0 MSTORE PUSH1 0x11 PUSH1 0x4 MSTORE PUSH1 0x24 PUSH1 0x0 REVERT JUMPDEST PUSH1 0x0 DUP3 PUSH2 0xF55 JUMPI PUSH2 0xF55 PUSH2 0xF1A JUMP JUMPDEST POP DIV SWAP1 JUMP JUMPDEST PUSH1 0x0 JUMPDEST DUP4 DUP2 LT ISZERO PUSH2 0xF75 JUMPI DUP2 DUP2 ADD MLOAD DUP4 DUP3 ADD MSTORE PUSH1 0x20 ADD PUSH2 0xF5D JUMP JUMPDEST POP POP PUSH1 0x0 SWAP2 ADD MSTORE JUMP JUMPDEST PUSH1 0x0 DUP3 MLOAD PUSH2 0xF90 DUP2 DUP5 PUSH1 0x20 DUP8 ADD PUSH2 0xF5A JUMP JUMPDEST SWAP2 SWAP1 SWAP2 ADD SWAP3 SWAP2 POP POP JUMP JUMPDEST DUP2 DUP2 SUB DUP2 DUP2 GT ISZERO PUSH2 0x418 JUMPI PUSH2 0x418 PUSH2 0xF30 JUMP JUMPDEST DUP1 DUP3 MUL DUP2 ISZERO DUP3 DUP3 DIV DUP5 EQ OR PUSH2 0x418 JUMPI PUSH2 0x418 PUSH2 0xF30 JUMP JUMPDEST PUSH1 0x60 DUP2 MSTORE PUSH1 0x0 DUP5 MLOAD DUP1 PUSH1 0x60 DUP5 ADD MSTORE PUSH2 0xFE3 DUP2 PUSH1 0x80 DUP6 ADD PUSH1 0x20 DUP10 ADD PUSH2 0xF5A JUMP JUMPDEST PUSH1 0x20 DUP4 ADD SWAP5 SWAP1 SWAP5 MSTORE POP PUSH1 0x40 DUP2 ADD SWAP2 SWAP1 SWAP2 MSTORE PUSH1 0x80 PUSH1 0x1F SWAP1 SWAP3 ADD PUSH1 0x1F NOT AND ADD ADD SWAP2 SWAP1 POP JUMP JUMPDEST DUP3 DUP2 MSTORE PUSH1 0x40 DUP2 ADD PUSH2 0xAAE PUSH1 0x20 DUP4 ADD DUP5 PUSH2 0xE59 JUMP JUMPDEST DUP1 DUP3 MUL PUSH1 0x0 DUP3 SLT PUSH1 0x1 PUSH1 0xFF SHL DUP5 EQ AND ISZERO PUSH2 0x1036 JUMPI PUSH2 0x1036 PUSH2 0xF30 JUMP JUMPDEST DUP2 DUP2 SDIV DUP4 EQ DUP3 ISZERO OR PUSH2 0x418 JUMPI PUSH2 0x418 PUSH2 0xF30 JUMP JUMPDEST PUSH1 0x0 DUP3 PUSH2 0x1059 JUMPI PUSH2 0x1059 PUSH2 0xF1A JUMP JUMPDEST PUSH1 0x1 PUSH1 0xFF SHL DUP3 EQ PUSH1 0x0 NOT DUP5 EQ AND ISZERO PUSH2 0x1073 JUMPI PUSH2 0x1073 PUSH2 0xF30 JUMP JUMPDEST POP SDIV SWAP1 JUMP INVALID LOG2 PUSH5 0x6970667358 0x22 SLT KECCAK256 SELFDESTRUCT 0x4D RETURN PUSH27 0x5640345988299D8388F0457C5C7F49BA0D80BC065FF82DA472D785 GT PUSH5 0x736F6C6343 STOP ADDMOD EQ STOP CALLER "},"methodIdentifiers":{"BASIS_POINTS()":"e1f1c4a7","DEFAULT_HALF_LIFE()":"3b4dd623","DEFAULT_LIFE_EXPECTANCY()":"16fcdc20","applyReputationDecay(uint256)":"d1979aaa","applySkillDecay(uint256,string)":"1591affd","createTemporalEntity(uint256,uint256,uint256)":"dc897d6b","entities(uint256)":"6331883b","entityReputation(uint256)":"b9948d34","entitySkills(uint256,string)":"18a4195c","getAgeInYears(uint256)":"07cee4d2","getCurrentReputation(uint256)":"aed2246b","getSkillLevel(uint256,string)":"62e1586d","isAlive(uint256)":"d84b2361","markDeceased(uint256)":"2e0ff449","owner()":"8da5cb5b","renounceOwnership()":"715018a6","setSkill(uint256,string,uint256,uint256)":"15d39c73","transferOwnership(address)":"f2fde38b","updateAge(uint256)":"7d625c07","updateReputation(uint256,int256)":"464c401d","useSkill(uint256,string)":"9d82676e"}}}}}