{"contracts/layer3/risk/InsuranceProtocol.sol":{"InsuranceProtocol":{"abi":[{"inputs":[],"stateMutability":"nonpayable","type":"constructor"},{"inputs":[{"internalType":"address","name":"owner","type":"address"}],"name":"OwnableInvalidOwner","type":"error"},{"inputs":[{"internalType":"address","name":"account","type":"address"}],"name":"OwnableUnauthorizedAccount","type":"error"},{"inputs":[],"name":"ReentrancyGuardReentrantCall","type":"error"},{"anonymous":false,"inputs":[{"indexed":true,"internalType":"uint256","name":"policyId","type":"uint256"},{"indexed":true,"internalType":"address","name":"holder","type":"address"}],"name":"ClaimFiled","type":"event"},{"anonymous":false,"inputs":[{"indexed":true,"internalType":"uint256","name":"policyId","type":"uint256"},{"indexed":false,"internalType":"uint256","name":"amount","type":"uint256"}],"name":"ClaimPaid","type":"event"},{"anonymous":false,"inputs":[{"indexed":true,"internalType":"address","name":"previousOwner","type":"address"},{"indexed":true,"internalType":"address","name":"newOwner","type":"address"}],"name":"OwnershipTransferred","type":"event"},{"anonymous":false,"inputs":[{"indexed":true,"internalType":"uint256","name":"policyId","type":"uint256"},{"indexed":true,"internalType":"address","name":"holder","type":"address"},{"indexed":false,"internalType":"uint256","name":"coverage","type":"uint256"},{"indexed":false,"internalType":"uint256","name":"premium","type":"uint256"}],"name":"PolicyCreated","type":"event"},{"anonymous":false,"inputs":[{"indexed":true,"internalType":"uint256","name":"policyId","type":"uint256"},{"indexed":false,"internalType":"uint256","name":"amount","type":"uint256"}],"name":"PremiumPaid","type":"event"},{"inputs":[{"internalType":"uint256","name":"coverage","type":"uint256"},{"internalType":"uint256","name":"duration","type":"uint256"}],"name":"calculatePremium","outputs":[{"internalType":"uint256","name":"","type":"uint256"}],"stateMutability":"pure","type":"function"},{"inputs":[{"internalType":"enum InsuranceProtocol.InsuranceType","name":"policyType","type":"uint8"},{"internalType":"uint256","name":"insuredId","type":"uint256"},{"internalType":"uint256","name":"coverage","type":"uint256"},{"internalType":"uint256","name":"duration","type":"uint256"}],"name":"createPolicy","outputs":[{"internalType":"uint256","name":"","type":"uint256"}],"stateMutability":"payable","type":"function"},{"inputs":[{"internalType":"uint256","name":"policyId","type":"uint256"}],"name":"fileClaim","outputs":[],"stateMutability":"nonpayable","type":"function"},{"inputs":[{"internalType":"uint256","name":"policyId","type":"uint256"}],"name":"getPolicy","outputs":[{"components":[{"internalType":"uint256","name":"id","type":"uint256"},{"internalType":"enum InsuranceProtocol.InsuranceType","name":"policyType","type":"uint8"},{"internalType":"uint256","name":"insuredId","type":"uint256"},{"internalType":"address","name":"holder","type":"address"},{"internalType":"uint256","name":"coverage","type":"uint256"},{"internalType":"uint256","name":"premium","type":"uint256"},{"internalType":"uint256","name":"duration","type":"uint256"},{"internalType":"uint256","name":"startTime","type":"uint256"},{"internalType":"bool","name":"isActive","type":"bool"},{"internalType":"bool","name":"claimed","type":"bool"}],"internalType":"struct InsuranceProtocol.Policy","name":"","type":"tuple"}],"stateMutability":"view","type":"function"},{"inputs":[],"name":"owner","outputs":[{"internalType":"address","name":"","type":"address"}],"stateMutability":"view","type":"function"},{"inputs":[{"internalType":"uint256","name":"","type":"uint256"}],"name":"policies","outputs":[{"internalType":"uint256","name":"id","type":"uint256"},{"internalType":"enum InsuranceProtocol.InsuranceType","name":"policyType","type":"uint8"},{"internalType":"uint256","name":"insuredId","type":"uint256"},{"internalType":"address","name":"holder","type":"address"},{"internalType":"uint256","name":"coverage","type":"uint256"},{"internalType":"uint256","name":"premium","type":"uint256"},{"internalType":"uint256","name":"duration","type":"uint256"},{"internalType":"uint256","name":"startTime","type":"uint256"},{"internalType":"bool","name":"isActive","type":"bool"},{"internalType":"bool","name":"claimed","type":"bool"}],"stateMutability":"view","type":"function"},{"inputs":[],"name":"policyCount","outputs":[{"internalType":"uint256","name":"","type":"uint256"}],"stateMutability":"view","type":"function"},{"inputs":[{"internalType":"uint256","name":"policyId","type":"uint256"},{"internalType":"bool","name":"approved","type":"bool"}],"name":"processClaim","outputs":[],"stateMutability":"nonpayable","type":"function"},{"inputs":[],"name":"renounceOwnership","outputs":[],"stateMutability":"nonpayable","type":"function"},{"inputs":[],"name":"totalClaims","outputs":[{"internalType":"uint256","name":"","type":"uint256"}],"stateMutability":"view","type":"function"},{"inputs":[],"name":"totalPremiums","outputs":[{"internalType":"uint256","name":"","type":"uint256"}],"stateMutability":"view","type":"function"},{"inputs":[{"internalType":"address","name":"newOwner","type":"address"}],"name":"transferOwnership","outputs":[],"stateMutability":"nonpayable","type":"function"}],"evm":{"bytecode":{"linkReferences":{},"object":"608060405234801561001057600080fd5b50338061003757604051631e4fbdf760e01b81526000600482015260240160405180910390fd5b6100408161004a565b506001805561009a565b600080546001600160a01b038381166001600160a01b0319831681178455604051919092169283917f8be0079c531659141344cd1fd0a4f28419497f9722a3daafe3b4186f6b6457e09190a35050565b610b53806100a96000396000f3fe6080604052600436106100a65760003560e01c80638da5cb5b116100645780638da5cb5b1461016e578063976a398914610196578063d3e89483146101a9578063d61909f91461023f578063de54d4291461025f578063f2fde38b1461027557600080fd5b806212100c146100ab5780632b07fce3146100de57806335446def1461010b57806341c613831461012d5780635bda158414610143578063715018a614610159575b600080fd5b3480156100b757600080fd5b506100cb6100c6366004610898565b610295565b6040519081526020015b60405180910390f35b3480156100ea57600080fd5b506100fe6100f93660046108ba565b6102c5565b6040516100d5919061090b565b34801561011757600080fd5b5061012b61012636600461099c565b6103e4565b005b34801561013957600080fd5b506100cb60055481565b34801561014f57600080fd5b506100cb60045481565b34801561016557600080fd5b5061012b6104dd565b34801561017a57600080fd5b506000546040516001600160a01b0390911681526020016100d5565b6100cb6101a43660046109d1565b6104f1565b3480156101b557600080fd5b506102296101c43660046108ba565b6002602081905260009182526040909120805460018201549282015460038301546004840154600585015460068601546007870154600890970154959760ff9081169795966001600160a01b039095169593949293919280821691610100909104168a565b6040516100d59a99989796959493929190610a10565b34801561024b57600080fd5b5061012b61025a3660046108ba565b610700565b34801561026b57600080fd5b506100cb60035481565b34801561028157600080fd5b5061012b610290366004610a72565b6107ae565b6000600a6301e133806102a88486610ab8565b6102b29190610acf565b6102bc9190610acf565b90505b92915050565b6103296040805161014081019091526000808252602082019081526020016000815260200160006001600160a01b03168152602001600081526020016000815260200160008152602001600081526020016000151581526020016000151581525090565b60008281526002602090815260409182902082516101408101909352805483526001810154909183019060ff166003811115610367576103676108d3565b6003811115610378576103786108d3565b81526002820154602082015260038201546001600160a01b031660408201526004820154606082015260058201546080820152600682015460a0820152600782015460c082015260089091015460ff808216151560e08401526101009182900416151591015292915050565b6103ec6107f1565b6103f461081e565b60008281526002602052604090206008810154610100900460ff16801561041f5750600881015460ff165b61042857600080fd5b81156104c557600381015460048201546040516001600160a01b039092169181156108fc0291906000818181858888f1935050505015801561046e573d6000803e3d6000fd5b508060040154600560008282546104859190610af1565b9091555050600481015460405190815283907fb0727183796e52c5bb00a257c1eb36d8e94dbee5d6d87e259287e3372ae39ace9060200160405180910390a25b600801805460ff191690556104d960018055565b5050565b6104e56107f1565b6104ef6000610848565b565b6000806104fe8484610295565b90508034101561050d57600080fd5b6003805490600061051d83610b04565b91905055506040518061014001604052806003548152602001876003811115610548576105486108d3565b8152602001868152602001336001600160a01b03168152602001858152602001828152602001848152602001428152602001600115158152602001600015158152506002600060035481526020019081526020016000206000820151816000015560208201518160010160006101000a81548160ff021916908360038111156105d3576105d36108d3565b02179055506040820151600282015560608201516003820180546001600160a01b0319166001600160a01b03909216919091179055608082015160048083019190915560a0830151600583015560c0830151600683015560e0830151600783015561010080840151600890930180546101209095015161ffff1990951693151561ff00191693909317931515029290921790558054829190600090610679908490610af1565b909155505060035460408051868152602081018490523392917ff407f724dd5d2b7754fcbc405960f07c8da0a85e7f71948913fb2997e77bfc86910160405180910390a36003546040518281527f7d285524823001f1a9e0eec4efb8c6350708012b991049fd6dd9250f89c8b2589060200160405180910390a25050600354949350505050565b600081815260026020526040902060038101546001600160a01b03163314801561072e5750600881015460ff165b801561074457506008810154610100900460ff16155b61074d57600080fd5b806006015481600701546107619190610af1565b421061076c57600080fd5b60088101805461ff001916610100179055604051339083907f1a6aefc7361200a82a77fb744d9c1af223318a57ca88c881d9d4108afe8f3cec90600090a35050565b6107b66107f1565b6001600160a01b0381166107e557604051631e4fbdf760e01b8152600060048201526024015b60405180910390fd5b6107ee81610848565b50565b6000546001600160a01b031633146104ef5760405163118cdaa760e01b81523360048201526024016107dc565b60026001540361084157604051633ee5aeb560e01b815260040160405180910390fd5b6002600155565b600080546001600160a01b038381166001600160a01b0319831681178455604051919092169283917f8be0079c531659141344cd1fd0a4f28419497f9722a3daafe3b4186f6b6457e09190a35050565b600080604083850312156108ab57600080fd5b50508035926020909101359150565b6000602082840312156108cc57600080fd5b5035919050565b634e487b7160e01b600052602160045260246000fd5b6004811061090757634e487b7160e01b600052602160045260246000fd5b9052565b81518152602080830151610140830191610927908401826108e9565b5060408301516040830152606083015161094c60608401826001600160a01b03169052565b506080830151608083015260a083015160a083015260c083015160c083015260e083015160e0830152610100808401516109898285018215159052565b5050610120928301511515919092015290565b600080604083850312156109af57600080fd5b82359150602083013580151581146109c657600080fd5b809150509250929050565b600080600080608085870312156109e757600080fd5b8435600481106109f657600080fd5b966020860135965060408601359560600135945092505050565b8a81526101408101610a25602083018c6108e9565b60408201999099526001600160a01b03979097166060880152608087019590955260a086019390935260c085019190915260e0840152151561010083015215156101209091015292915050565b600060208284031215610a8457600080fd5b81356001600160a01b0381168114610a9b57600080fd5b9392505050565b634e487b7160e01b600052601160045260246000fd5b80820281158282048414176102bf576102bf610aa2565b600082610aec57634e487b7160e01b600052601260045260246000fd5b500490565b808201808211156102bf576102bf610aa2565b600060018201610b1657610b16610aa2565b506001019056fea26469706673582212205514231d25c1036de70e1aabb056e3058b9693f8104dc517fedaa83f8a68d87764736f6c63430008140033","opcodes":"PUSH1 0x80 PUSH1 0x40 MSTORE CALLVALUE DUP1 ISZERO PUSH2 0x10 JUMPI PUSH1 0x0 DUP1 REVERT JUMPDEST POP CALLER DUP1 PUSH2 0x37 JUMPI PUSH1 0x40 MLOAD PUSH4 0x1E4FBDF7 PUSH1 0xE0 SHL DUP2 MSTORE PUSH1 0x0 PUSH1 0x4 DUP3 ADD MSTORE PUSH1 0x24 ADD PUSH1 0x40 MLOAD DUP1 SWAP2 SUB SWAP1 REVERT JUMPDEST PUSH2 0x40 DUP2 PUSH2 0x4A JUMP JUMPDEST POP PUSH1 0x1 DUP1 SSTORE PUSH2 0x9A JUMP JUMPDEST PUSH1 0x0 DUP1 SLOAD PUSH1 0x1 PUSH1 0x1 PUSH1 0xA0 SHL SUB DUP4 DUP2 AND PUSH1 0x1 PUSH1 0x1 PUSH1 0xA0 SHL SUB NOT DUP4 AND DUP2 OR DUP5 SSTORE PUSH1 0x40 MLOAD SWAP2 SWAP1 SWAP3 AND SWAP3 DUP4 SWAP2 PUSH32 0x8BE0079C531659141344CD1FD0A4F28419497F9722A3DAAFE3B4186F6B6457E0 SWAP2 SWAP1 LOG3 POP POP JUMP JUMPDEST PUSH2 0xB53 DUP1 PUSH2 0xA9 PUSH1 0x0 CODECOPY PUSH1 0x0 RETURN INVALID PUSH1 0x80 PUSH1 0x40 MSTORE PUSH1 0x4 CALLDATASIZE LT PUSH2 0xA6 JUMPI PUSH1 0x0 CALLDATALOAD PUSH1 0xE0 SHR DUP1 PUSH4 0x8DA5CB5B GT PUSH2 0x64 JUMPI DUP1 PUSH4 0x8DA5CB5B EQ PUSH2 0x16E JUMPI DUP1 PUSH4 0x976A3989 EQ PUSH2 0x196 JUMPI DUP1 PUSH4 0xD3E89483 EQ PUSH2 0x1A9 JUMPI DUP1 PUSH4 0xD61909F9 EQ PUSH2 0x23F JUMPI DUP1 PUSH4 0xDE54D429 EQ PUSH2 0x25F JUMPI DUP1 PUSH4 0xF2FDE38B EQ PUSH2 0x275 JUMPI PUSH1 0x0 DUP1 REVERT JUMPDEST DUP1 PUSH3 0x12100C EQ PUSH2 0xAB JUMPI DUP1 PUSH4 0x2B07FCE3 EQ PUSH2 0xDE JUMPI DUP1 PUSH4 0x35446DEF EQ PUSH2 0x10B JUMPI DUP1 PUSH4 0x41C61383 EQ PUSH2 0x12D JUMPI DUP1 PUSH4 0x5BDA1584 EQ PUSH2 0x143 JUMPI DUP1 PUSH4 0x715018A6 EQ PUSH2 0x159 JUMPI JUMPDEST PUSH1 0x0 DUP1 REVERT JUMPDEST CALLVALUE DUP1 ISZERO PUSH2 0xB7 JUMPI PUSH1 0x0 DUP1 REVERT JUMPDEST POP PUSH2 0xCB PUSH2 0xC6 CALLDATASIZE PUSH1 0x4 PUSH2 0x898 JUMP JUMPDEST PUSH2 0x295 JUMP JUMPDEST PUSH1 0x40 MLOAD SWAP1 DUP2 MSTORE PUSH1 0x20 ADD JUMPDEST PUSH1 0x40 MLOAD DUP1 SWAP2 SUB SWAP1 RETURN JUMPDEST CALLVALUE DUP1 ISZERO PUSH2 0xEA JUMPI PUSH1 0x0 DUP1 REVERT JUMPDEST POP PUSH2 0xFE PUSH2 0xF9 CALLDATASIZE PUSH1 0x4 PUSH2 0x8BA JUMP JUMPDEST PUSH2 0x2C5 JUMP JUMPDEST PUSH1 0x40 MLOAD PUSH2 0xD5 SWAP2 SWAP1 PUSH2 0x90B JUMP JUMPDEST CALLVALUE DUP1 ISZERO PUSH2 0x117 JUMPI PUSH1 0x0 DUP1 REVERT JUMPDEST POP PUSH2 0x12B PUSH2 0x126 CALLDATASIZE PUSH1 0x4 PUSH2 0x99C JUMP JUMPDEST PUSH2 0x3E4 JUMP JUMPDEST STOP JUMPDEST CALLVALUE DUP1 ISZERO PUSH2 0x139 JUMPI PUSH1 0x0 DUP1 REVERT JUMPDEST POP PUSH2 0xCB PUSH1 0x5 SLOAD DUP2 JUMP JUMPDEST CALLVALUE DUP1 ISZERO PUSH2 0x14F JUMPI PUSH1 0x0 DUP1 REVERT JUMPDEST POP PUSH2 0xCB PUSH1 0x4 SLOAD DUP2 JUMP JUMPDEST CALLVALUE DUP1 ISZERO PUSH2 0x165 JUMPI PUSH1 0x0 DUP1 REVERT JUMPDEST POP PUSH2 0x12B PUSH2 0x4DD JUMP JUMPDEST CALLVALUE DUP1 ISZERO PUSH2 0x17A JUMPI PUSH1 0x0 DUP1 REVERT JUMPDEST POP PUSH1 0x0 SLOAD PUSH1 0x40 MLOAD PUSH1 0x1 PUSH1 0x1 PUSH1 0xA0 SHL SUB SWAP1 SWAP2 AND DUP2 MSTORE PUSH1 0x20 ADD PUSH2 0xD5 JUMP JUMPDEST PUSH2 0xCB PUSH2 0x1A4 CALLDATASIZE PUSH1 0x4 PUSH2 0x9D1 JUMP JUMPDEST PUSH2 0x4F1 JUMP JUMPDEST CALLVALUE DUP1 ISZERO PUSH2 0x1B5 JUMPI PUSH1 0x0 DUP1 REVERT JUMPDEST POP PUSH2 0x229 PUSH2 0x1C4 CALLDATASIZE PUSH1 0x4 PUSH2 0x8BA JUMP JUMPDEST PUSH1 0x2 PUSH1 0x20 DUP2 SWAP1 MSTORE PUSH1 0x0 SWAP2 DUP3 MSTORE PUSH1 0x40 SWAP1 SWAP2 KECCAK256 DUP1 SLOAD PUSH1 0x1 DUP3 ADD SLOAD SWAP3 DUP3 ADD SLOAD PUSH1 0x3 DUP4 ADD SLOAD PUSH1 0x4 DUP5 ADD SLOAD PUSH1 0x5 DUP6 ADD SLOAD PUSH1 0x6 DUP7 ADD SLOAD PUSH1 0x7 DUP8 ADD SLOAD PUSH1 0x8 SWAP1 SWAP8 ADD SLOAD SWAP6 SWAP8 PUSH1 0xFF SWAP1 DUP2 AND SWAP8 SWAP6 SWAP7 PUSH1 0x1 PUSH1 0x1 PUSH1 0xA0 SHL SUB SWAP1 SWAP6 AND SWAP6 SWAP4 SWAP5 SWAP3 SWAP4 SWAP2 SWAP3 DUP1 DUP3 AND SWAP2 PUSH2 0x100 SWAP1 SWAP2 DIV AND DUP11 JUMP JUMPDEST PUSH1 0x40 MLOAD PUSH2 0xD5 SWAP11 SWAP10 SWAP9 SWAP8 SWAP7 SWAP6 SWAP5 SWAP4 SWAP3 SWAP2 SWAP1 PUSH2 0xA10 JUMP JUMPDEST CALLVALUE DUP1 ISZERO PUSH2 0x24B JUMPI PUSH1 0x0 DUP1 REVERT JUMPDEST POP PUSH2 0x12B PUSH2 0x25A CALLDATASIZE PUSH1 0x4 PUSH2 0x8BA JUMP JUMPDEST PUSH2 0x700 JUMP JUMPDEST CALLVALUE DUP1 ISZERO PUSH2 0x26B JUMPI PUSH1 0x0 DUP1 REVERT JUMPDEST POP PUSH2 0xCB PUSH1 0x3 SLOAD DUP2 JUMP JUMPDEST CALLVALUE DUP1 ISZERO PUSH2 0x281 JUMPI PUSH1 0x0 DUP1 REVERT JUMPDEST POP PUSH2 0x12B PUSH2 0x290 CALLDATASIZE PUSH1 0x4 PUSH2 0xA72 JUMP JUMPDEST PUSH2 0x7AE JUMP JUMPDEST PUSH1 0x0 PUSH1 0xA PUSH4 0x1E13380 PUSH2 0x2A8 DUP5 DUP7 PUSH2 0xAB8 JUMP JUMPDEST PUSH2 0x2B2 SWAP2 SWAP1 PUSH2 0xACF JUMP JUMPDEST PUSH2 0x2BC SWAP2 SWAP1 PUSH2 0xACF JUMP JUMPDEST SWAP1 POP JUMPDEST SWAP3 SWAP2 POP POP JUMP JUMPDEST PUSH2 0x329 PUSH1 0x40 DUP1 MLOAD PUSH2 0x140 DUP2 ADD SWAP1 SWAP2 MSTORE PUSH1 0x0 DUP1 DUP3 MSTORE PUSH1 0x20 DUP3 ADD SWAP1 DUP2 MSTORE PUSH1 0x20 ADD PUSH1 0x0 DUP2 MSTORE PUSH1 0x20 ADD PUSH1 0x0 PUSH1 0x1 PUSH1 0x1 PUSH1 0xA0 SHL SUB AND DUP2 MSTORE PUSH1 0x20 ADD PUSH1 0x0 DUP2 MSTORE PUSH1 0x20 ADD PUSH1 0x0 DUP2 MSTORE PUSH1 0x20 ADD PUSH1 0x0 DUP2 MSTORE PUSH1 0x20 ADD PUSH1 0x0 DUP2 MSTORE PUSH1 0x20 ADD PUSH1 0x0 ISZERO ISZERO DUP2 MSTORE PUSH1 0x20 ADD PUSH1 0x0 ISZERO ISZERO DUP2 MSTORE POP SWAP1 JUMP JUMPDEST PUSH1 0x0 DUP3 DUP2 MSTORE PUSH1 0x2 PUSH1 0x20 SWAP1 DUP2 MSTORE PUSH1 0x40 SWAP2 DUP3 SWAP1 KECCAK256 DUP3 MLOAD PUSH2 0x140 DUP2 ADD SWAP1 SWAP4 MSTORE DUP1 SLOAD DUP4 MSTORE PUSH1 0x1 DUP2 ADD SLOAD SWAP1 SWAP2 DUP4 ADD SWAP1 PUSH1 0xFF AND PUSH1 0x3 DUP2 GT ISZERO PUSH2 0x367 JUMPI PUSH2 0x367 PUSH2 0x8D3 JUMP JUMPDEST PUSH1 0x3 DUP2 GT ISZERO PUSH2 0x378 JUMPI PUSH2 0x378 PUSH2 0x8D3 JUMP JUMPDEST DUP2 MSTORE PUSH1 0x2 DUP3 ADD SLOAD PUSH1 0x20 DUP3 ADD MSTORE PUSH1 0x3 DUP3 ADD SLOAD PUSH1 0x1 PUSH1 0x1 PUSH1 0xA0 SHL SUB AND PUSH1 0x40 DUP3 ADD MSTORE PUSH1 0x4 DUP3 ADD SLOAD PUSH1 0x60 DUP3 ADD MSTORE PUSH1 0x5 DUP3 ADD SLOAD PUSH1 0x80 DUP3 ADD MSTORE PUSH1 0x6 DUP3 ADD SLOAD PUSH1 0xA0 DUP3 ADD MSTORE PUSH1 0x7 DUP3 ADD SLOAD PUSH1 0xC0 DUP3 ADD MSTORE PUSH1 0x8 SWAP1 SWAP2 ADD SLOAD PUSH1 0xFF DUP1 DUP3 AND ISZERO ISZERO PUSH1 0xE0 DUP5 ADD MSTORE PUSH2 0x100 SWAP2 DUP3 SWAP1 DIV AND ISZERO ISZERO SWAP2 ADD MSTORE SWAP3 SWAP2 POP POP JUMP JUMPDEST PUSH2 0x3EC PUSH2 0x7F1 JUMP JUMPDEST PUSH2 0x3F4 PUSH2 0x81E JUMP JUMPDEST PUSH1 0x0 DUP3 DUP2 MSTORE PUSH1 0x2 PUSH1 0x20 MSTORE PUSH1 0x40 SWAP1 KECCAK256 PUSH1 0x8 DUP2 ADD SLOAD PUSH2 0x100 SWAP1 DIV PUSH1 0xFF AND DUP1 ISZERO PUSH2 0x41F JUMPI POP PUSH1 0x8 DUP2 ADD SLOAD PUSH1 0xFF AND JUMPDEST PUSH2 0x428 JUMPI PUSH1 0x0 DUP1 REVERT JUMPDEST DUP2 ISZERO PUSH2 0x4C5 JUMPI PUSH1 0x3 DUP2 ADD SLOAD PUSH1 0x4 DUP3 ADD SLOAD PUSH1 0x40 MLOAD PUSH1 0x1 PUSH1 0x1 PUSH1 0xA0 SHL SUB SWAP1 SWAP3 AND SWAP2 DUP2 ISZERO PUSH2 0x8FC MUL SWAP2 SWAP1 PUSH1 0x0 DUP2 DUP2 DUP2 DUP6 DUP9 DUP9 CALL SWAP4 POP POP POP POP ISZERO DUP1 ISZERO PUSH2 0x46E JUMPI RETURNDATASIZE PUSH1 0x0 DUP1 RETURNDATACOPY RETURNDATASIZE PUSH1 0x0 REVERT JUMPDEST POP DUP1 PUSH1 0x4 ADD SLOAD PUSH1 0x5 PUSH1 0x0 DUP3 DUP3 SLOAD PUSH2 0x485 SWAP2 SWAP1 PUSH2 0xAF1 JUMP JUMPDEST SWAP1 SWAP2 SSTORE POP POP PUSH1 0x4 DUP2 ADD SLOAD PUSH1 0x40 MLOAD SWAP1 DUP2 MSTORE DUP4 SWAP1 PUSH32 0xB0727183796E52C5BB00A257C1EB36D8E94DBEE5D6D87E259287E3372AE39ACE SWAP1 PUSH1 0x20 ADD PUSH1 0x40 MLOAD DUP1 SWAP2 SUB SWAP1 LOG2 JUMPDEST PUSH1 0x8 ADD DUP1 SLOAD PUSH1 0xFF NOT AND SWAP1 SSTORE PUSH2 0x4D9 PUSH1 0x1 DUP1 SSTORE JUMP JUMPDEST POP POP JUMP JUMPDEST PUSH2 0x4E5 PUSH2 0x7F1 JUMP JUMPDEST PUSH2 0x4EF PUSH1 0x0 PUSH2 0x848 JUMP JUMPDEST JUMP JUMPDEST PUSH1 0x0 DUP1 PUSH2 0x4FE DUP5 DUP5 PUSH2 0x295 JUMP JUMPDEST SWAP1 POP DUP1 CALLVALUE LT ISZERO PUSH2 0x50D JUMPI PUSH1 0x0 DUP1 REVERT JUMPDEST PUSH1 0x3 DUP1 SLOAD SWAP1 PUSH1 0x0 PUSH2 0x51D DUP4 PUSH2 0xB04 JUMP JUMPDEST SWAP2 SWAP1 POP SSTORE POP PUSH1 0x40 MLOAD DUP1 PUSH2 0x140 ADD PUSH1 0x40 MSTORE DUP1 PUSH1 0x3 SLOAD DUP2 MSTORE PUSH1 0x20 ADD DUP8 PUSH1 0x3 DUP2 GT ISZERO PUSH2 0x548 JUMPI PUSH2 0x548 PUSH2 0x8D3 JUMP JUMPDEST DUP2 MSTORE PUSH1 0x20 ADD DUP7 DUP2 MSTORE PUSH1 0x20 ADD CALLER PUSH1 0x1 PUSH1 0x1 PUSH1 0xA0 SHL SUB AND DUP2 MSTORE PUSH1 0x20 ADD DUP6 DUP2 MSTORE PUSH1 0x20 ADD DUP3 DUP2 MSTORE PUSH1 0x20 ADD DUP5 DUP2 MSTORE PUSH1 0x20 ADD TIMESTAMP DUP2 MSTORE PUSH1 0x20 ADD PUSH1 0x1 ISZERO ISZERO DUP2 MSTORE PUSH1 0x20 ADD PUSH1 0x0 ISZERO ISZERO DUP2 MSTORE POP PUSH1 0x2 PUSH1 0x0 PUSH1 0x3 SLOAD DUP2 MSTORE PUSH1 0x20 ADD SWAP1 DUP2 MSTORE PUSH1 0x20 ADD PUSH1 0x0 KECCAK256 PUSH1 0x0 DUP3 ADD MLOAD DUP2 PUSH1 0x0 ADD SSTORE PUSH1 0x20 DUP3 ADD MLOAD DUP2 PUSH1 0x1 ADD PUSH1 0x0 PUSH2 0x100 EXP DUP2 SLOAD DUP2 PUSH1 0xFF MUL NOT AND SWAP1 DUP4 PUSH1 0x3 DUP2 GT ISZERO PUSH2 0x5D3 JUMPI PUSH2 0x5D3 PUSH2 0x8D3 JUMP JUMPDEST MUL OR SWAP1 SSTORE POP PUSH1 0x40 DUP3 ADD MLOAD PUSH1 0x2 DUP3 ADD SSTORE PUSH1 0x60 DUP3 ADD MLOAD PUSH1 0x3 DUP3 ADD DUP1 SLOAD PUSH1 0x1 PUSH1 0x1 PUSH1 0xA0 SHL SUB NOT AND PUSH1 0x1 PUSH1 0x1 PUSH1 0xA0 SHL SUB SWAP1 SWAP3 AND SWAP2 SWAP1 SWAP2 OR SWAP1 SSTORE PUSH1 0x80 DUP3 ADD MLOAD PUSH1 0x4 DUP1 DUP4 ADD SWAP2 SWAP1 SWAP2 SSTORE PUSH1 0xA0 DUP4 ADD MLOAD PUSH1 0x5 DUP4 ADD SSTORE PUSH1 0xC0 DUP4 ADD MLOAD PUSH1 0x6 DUP4 ADD SSTORE PUSH1 0xE0 DUP4 ADD MLOAD PUSH1 0x7 DUP4 ADD SSTORE PUSH2 0x100 DUP1 DUP5 ADD MLOAD PUSH1 0x8 SWAP1 SWAP4 ADD DUP1 SLOAD PUSH2 0x120 SWAP1 SWAP6 ADD MLOAD PUSH2 0xFFFF NOT SWAP1 SWAP6 AND SWAP4 ISZERO ISZERO PUSH2 0xFF00 NOT AND SWAP4 SWAP1 SWAP4 OR SWAP4 ISZERO ISZERO MUL SWAP3 SWAP1 SWAP3 OR SWAP1 SSTORE DUP1 SLOAD DUP3 SWAP2 SWAP1 PUSH1 0x0 SWAP1 PUSH2 0x679 SWAP1 DUP5 SWAP1 PUSH2 0xAF1 JUMP JUMPDEST SWAP1 SWAP2 SSTORE POP POP PUSH1 0x3 SLOAD PUSH1 0x40 DUP1 MLOAD DUP7 DUP2 MSTORE PUSH1 0x20 DUP2 ADD DUP5 SWAP1 MSTORE CALLER SWAP3 SWAP2 PUSH32 0xF407F724DD5D2B7754FCBC405960F07C8DA0A85E7F71948913FB2997E77BFC86 SWAP2 ADD PUSH1 0x40 MLOAD DUP1 SWAP2 SUB SWAP1 LOG3 PUSH1 0x3 SLOAD PUSH1 0x40 MLOAD DUP3 DUP2 MSTORE PUSH32 0x7D285524823001F1A9E0EEC4EFB8C6350708012B991049FD6DD9250F89C8B258 SWAP1 PUSH1 0x20 ADD PUSH1 0x40 MLOAD DUP1 SWAP2 SUB SWAP1 LOG2 POP POP PUSH1 0x3 SLOAD SWAP5 SWAP4 POP POP POP POP JUMP JUMPDEST PUSH1 0x0 DUP2 DUP2 MSTORE PUSH1 0x2 PUSH1 0x20 MSTORE PUSH1 0x40 SWAP1 KECCAK256 PUSH1 0x3 DUP2 ADD SLOAD PUSH1 0x1 PUSH1 0x1 PUSH1 0xA0 SHL SUB AND CALLER EQ DUP1 ISZERO PUSH2 0x72E JUMPI POP PUSH1 0x8 DUP2 ADD SLOAD PUSH1 0xFF AND JUMPDEST DUP1 ISZERO PUSH2 0x744 JUMPI POP PUSH1 0x8 DUP2 ADD SLOAD PUSH2 0x100 SWAP1 DIV PUSH1 0xFF AND ISZERO JUMPDEST PUSH2 0x74D JUMPI PUSH1 0x0 DUP1 REVERT JUMPDEST DUP1 PUSH1 0x6 ADD SLOAD DUP2 PUSH1 0x7 ADD SLOAD PUSH2 0x761 SWAP2 SWAP1 PUSH2 0xAF1 JUMP JUMPDEST TIMESTAMP LT PUSH2 0x76C JUMPI PUSH1 0x0 DUP1 REVERT JUMPDEST PUSH1 0x8 DUP2 ADD DUP1 SLOAD PUSH2 0xFF00 NOT AND PUSH2 0x100 OR SWAP1 SSTORE PUSH1 0x40 MLOAD CALLER SWAP1 DUP4 SWAP1 PUSH32 0x1A6AEFC7361200A82A77FB744D9C1AF223318A57CA88C881D9D4108AFE8F3CEC SWAP1 PUSH1 0x0 SWAP1 LOG3 POP POP JUMP JUMPDEST PUSH2 0x7B6 PUSH2 0x7F1 JUMP JUMPDEST PUSH1 0x1 PUSH1 0x1 PUSH1 0xA0 SHL SUB DUP2 AND PUSH2 0x7E5 JUMPI PUSH1 0x40 MLOAD PUSH4 0x1E4FBDF7 PUSH1 0xE0 SHL DUP2 MSTORE PUSH1 0x0 PUSH1 0x4 DUP3 ADD MSTORE PUSH1 0x24 ADD JUMPDEST PUSH1 0x40 MLOAD DUP1 SWAP2 SUB SWAP1 REVERT JUMPDEST PUSH2 0x7EE DUP2 PUSH2 0x848 JUMP JUMPDEST POP JUMP JUMPDEST PUSH1 0x0 SLOAD PUSH1 0x1 PUSH1 0x1 PUSH1 0xA0 SHL SUB AND CALLER EQ PUSH2 0x4EF JUMPI PUSH1 0x40 MLOAD PUSH4 0x118CDAA7 PUSH1 0xE0 SHL DUP2 MSTORE CALLER PUSH1 0x4 DUP3 ADD MSTORE PUSH1 0x24 ADD PUSH2 0x7DC JUMP JUMPDEST PUSH1 0x2 PUSH1 0x1 SLOAD SUB PUSH2 0x841 JUMPI PUSH1 0x40 MLOAD PUSH4 0x3EE5AEB5 PUSH1 0xE0 SHL DUP2 MSTORE PUSH1 0x4 ADD PUSH1 0x40 MLOAD DUP1 SWAP2 SUB SWAP1 REVERT JUMPDEST PUSH1 0x2 PUSH1 0x1 SSTORE JUMP JUMPDEST PUSH1 0x0 DUP1 SLOAD PUSH1 0x1 PUSH1 0x1 PUSH1 0xA0 SHL SUB DUP4 DUP2 AND PUSH1 0x1 PUSH1 0x1 PUSH1 0xA0 SHL SUB NOT DUP4 AND DUP2 OR DUP5 SSTORE PUSH1 0x40 MLOAD SWAP2 SWAP1 SWAP3 AND SWAP3 DUP4 SWAP2 PUSH32 0x8BE0079C531659141344CD1FD0A4F28419497F9722A3DAAFE3B4186F6B6457E0 SWAP2 SWAP1 LOG3 POP POP JUMP JUMPDEST PUSH1 0x0 DUP1 PUSH1 0x40 DUP4 DUP6 SUB SLT ISZERO PUSH2 0x8AB JUMPI PUSH1 0x0 DUP1 REVERT JUMPDEST POP POP DUP1 CALLDATALOAD SWAP3 PUSH1 0x20 SWAP1 SWAP2 ADD CALLDATALOAD SWAP2 POP JUMP JUMPDEST PUSH1 0x0 PUSH1 0x20 DUP3 DUP5 SUB SLT ISZERO PUSH2 0x8CC JUMPI PUSH1 0x0 DUP1 REVERT JUMPDEST POP CALLDATALOAD SWAP2 SWAP1 POP JUMP JUMPDEST PUSH4 0x4E487B71 PUSH1 0xE0 SHL PUSH1 0x0 MSTORE PUSH1 0x21 PUSH1 0x4 MSTORE PUSH1 0x24 PUSH1 0x0 REVERT JUMPDEST PUSH1 0x4 DUP2 LT PUSH2 0x907 JUMPI PUSH4 0x4E487B71 PUSH1 0xE0 SHL PUSH1 0x0 MSTORE PUSH1 0x21 PUSH1 0x4 MSTORE PUSH1 0x24 PUSH1 0x0 REVERT JUMPDEST SWAP1 MSTORE JUMP JUMPDEST DUP2 MLOAD DUP2 MSTORE PUSH1 0x20 DUP1 DUP4 ADD MLOAD PUSH2 0x140 DUP4 ADD SWAP2 PUSH2 0x927 SWAP1 DUP5 ADD DUP3 PUSH2 0x8E9 JUMP JUMPDEST POP PUSH1 0x40 DUP4 ADD MLOAD PUSH1 0x40 DUP4 ADD MSTORE PUSH1 0x60 DUP4 ADD MLOAD PUSH2 0x94C PUSH1 0x60 DUP5 ADD DUP3 PUSH1 0x1 PUSH1 0x1 PUSH1 0xA0 SHL SUB AND SWAP1 MSTORE JUMP JUMPDEST POP PUSH1 0x80 DUP4 ADD MLOAD PUSH1 0x80 DUP4 ADD MSTORE PUSH1 0xA0 DUP4 ADD MLOAD PUSH1 0xA0 DUP4 ADD MSTORE PUSH1 0xC0 DUP4 ADD MLOAD PUSH1 0xC0 DUP4 ADD MSTORE PUSH1 0xE0 DUP4 ADD MLOAD PUSH1 0xE0 DUP4 ADD MSTORE PUSH2 0x100 DUP1 DUP5 ADD MLOAD PUSH2 0x989 DUP3 DUP6 ADD DUP3 ISZERO ISZERO SWAP1 MSTORE JUMP JUMPDEST POP POP PUSH2 0x120 SWAP3 DUP4 ADD MLOAD ISZERO ISZERO SWAP2 SWAP1 SWAP3 ADD MSTORE SWAP1 JUMP JUMPDEST PUSH1 0x0 DUP1 PUSH1 0x40 DUP4 DUP6 SUB SLT ISZERO PUSH2 0x9AF JUMPI PUSH1 0x0 DUP1 REVERT JUMPDEST DUP3 CALLDATALOAD SWAP2 POP PUSH1 0x20 DUP4 ADD CALLDATALOAD DUP1 ISZERO ISZERO DUP2 EQ PUSH2 0x9C6 JUMPI PUSH1 0x0 DUP1 REVERT JUMPDEST DUP1 SWAP2 POP POP SWAP3 POP SWAP3 SWAP1 POP JUMP JUMPDEST PUSH1 0x0 DUP1 PUSH1 0x0 DUP1 PUSH1 0x80 DUP6 DUP8 SUB SLT ISZERO PUSH2 0x9E7 JUMPI PUSH1 0x0 DUP1 REVERT JUMPDEST DUP5 CALLDATALOAD PUSH1 0x4 DUP2 LT PUSH2 0x9F6 JUMPI PUSH1 0x0 DUP1 REVERT JUMPDEST SWAP7 PUSH1 0x20 DUP7 ADD CALLDATALOAD SWAP7 POP PUSH1 0x40 DUP7 ADD CALLDATALOAD SWAP6 PUSH1 0x60 ADD CALLDATALOAD SWAP5 POP SWAP3 POP POP POP JUMP JUMPDEST DUP11 DUP2 MSTORE PUSH2 0x140 DUP2 ADD PUSH2 0xA25 PUSH1 0x20 DUP4 ADD DUP13 PUSH2 0x8E9 JUMP JUMPDEST PUSH1 0x40 DUP3 ADD SWAP10 SWAP1 SWAP10 MSTORE PUSH1 0x1 PUSH1 0x1 PUSH1 0xA0 SHL SUB SWAP8 SWAP1 SWAP8 AND PUSH1 0x60 DUP9 ADD MSTORE PUSH1 0x80 DUP8 ADD SWAP6 SWAP1 SWAP6 MSTORE PUSH1 0xA0 DUP7 ADD SWAP4 SWAP1 SWAP4 MSTORE PUSH1 0xC0 DUP6 ADD SWAP2 SWAP1 SWAP2 MSTORE PUSH1 0xE0 DUP5 ADD MSTORE ISZERO ISZERO PUSH2 0x100 DUP4 ADD MSTORE ISZERO ISZERO PUSH2 0x120 SWAP1 SWAP2 ADD MSTORE SWAP3 SWAP2 POP POP JUMP JUMPDEST PUSH1 0x0 PUSH1 0x20 DUP3 DUP5 SUB SLT ISZERO PUSH2 0xA84 JUMPI PUSH1 0x0 DUP1 REVERT JUMPDEST DUP2 CALLDATALOAD PUSH1 0x1 PUSH1 0x1 PUSH1 0xA0 SHL SUB DUP2 AND DUP2 EQ PUSH2 0xA9B JUMPI PUSH1 0x0 DUP1 REVERT JUMPDEST SWAP4 SWAP3 POP POP POP JUMP JUMPDEST PUSH4 0x4E487B71 PUSH1 0xE0 SHL PUSH1 0x0 MSTORE PUSH1 0x11 PUSH1 0x4 MSTORE PUSH1 0x24 PUSH1 0x0 REVERT JUMPDEST DUP1 DUP3 MUL DUP2 ISZERO DUP3 DUP3 DIV DUP5 EQ OR PUSH2 0x2BF JUMPI PUSH2 0x2BF PUSH2 0xAA2 JUMP JUMPDEST PUSH1 0x0 DUP3 PUSH2 0xAEC JUMPI PUSH4 0x4E487B71 PUSH1 0xE0 SHL PUSH1 0x0 MSTORE PUSH1 0x12 PUSH1 0x4 MSTORE PUSH1 0x24 PUSH1 0x0 REVERT JUMPDEST POP DIV SWAP1 JUMP JUMPDEST DUP1 DUP3 ADD DUP1 DUP3 GT ISZERO PUSH2 0x2BF JUMPI PUSH2 0x2BF PUSH2 0xAA2 JUMP JUMPDEST PUSH1 0x0 PUSH1 0x1 DUP3 ADD PUSH2 0xB16 JUMPI PUSH2 0xB16 PUSH2 0xAA2 JUMP JUMPDEST POP PUSH1 0x1 ADD SWAP1 JUMP INVALID LOG2 PUSH5 0x6970667358 0x22 SLT KECCAK256 SSTORE EQ 0x23 SAR 0x25 0xC1 SUB PUSH14 0xE70E1AABB056E3058B9693F8104D 0xC5 OR INVALID 0xDA 0xA8 EXTCODEHASH DUP11 PUSH9 0xD87764736F6C634300 ADDMOD EQ STOP CALLER "},"methodIdentifiers":{"calculatePremium(uint256,uint256)":"0012100c","createPolicy(uint8,uint256,uint256,uint256)":"976a3989","fileClaim(uint256)":"d61909f9","getPolicy(uint256)":"2b07fce3","owner()":"8da5cb5b","policies(uint256)":"d3e89483","policyCount()":"de54d429","processClaim(uint256,bool)":"35446def","renounceOwnership()":"715018a6","totalClaims()":"41c61383","totalPremiums()":"5bda1584","transferOwnership(address)":"f2fde38b"}}}}}