{"contracts/layer4/talent/AIActorNFT.sol":{"AIActorNFT":{"abi":[{"inputs":[],"stateMutability":"nonpayable","type":"constructor"},{"inputs":[{"internalType":"address","name":"sender","type":"address"},{"internalType":"uint256","name":"tokenId","type":"uint256"},{"internalType":"address","name":"owner","type":"address"}],"name":"ERC721IncorrectOwner","type":"error"},{"inputs":[{"internalType":"address","name":"operator","type":"address"},{"internalType":"uint256","name":"tokenId","type":"uint256"}],"name":"ERC721InsufficientApproval","type":"error"},{"inputs":[{"internalType":"address","name":"approver","type":"address"}],"name":"ERC721InvalidApprover","type":"error"},{"inputs":[{"internalType":"address","name":"operator","type":"address"}],"name":"ERC721InvalidOperator","type":"error"},{"inputs":[{"internalType":"address","name":"owner","type":"address"}],"name":"ERC721InvalidOwner","type":"error"},{"inputs":[{"internalType":"address","name":"receiver","type":"address"}],"name":"ERC721InvalidReceiver","type":"error"},{"inputs":[{"internalType":"address","name":"sender","type":"address"}],"name":"ERC721InvalidSender","type":"error"},{"inputs":[{"internalType":"uint256","name":"tokenId","type":"uint256"}],"name":"ERC721NonexistentToken","type":"error"},{"inputs":[{"internalType":"address","name":"owner","type":"address"}],"name":"OwnableInvalidOwner","type":"error"},{"inputs":[{"internalType":"address","name":"account","type":"address"}],"name":"OwnableUnauthorizedAccount","type":"error"},{"anonymous":false,"inputs":[{"indexed":true,"internalType":"uint256","name":"actorId","type":"uint256"},{"indexed":true,"internalType":"uint256","name":"movieId","type":"uint256"},{"indexed":false,"internalType":"uint256","name":"fee","type":"uint256"}],"name":"ActorHired","type":"event"},{"anonymous":false,"inputs":[{"indexed":true,"internalType":"uint256","name":"actorId","type":"uint256"},{"indexed":true,"internalType":"uint256","name":"entityId","type":"uint256"},{"indexed":false,"internalType":"string","name":"stageName","type":"string"}],"name":"ActorMinted","type":"event"},{"anonymous":false,"inputs":[{"indexed":true,"internalType":"uint256","name":"actorId","type":"uint256"}],"name":"ActorRetired","type":"event"},{"anonymous":false,"inputs":[{"indexed":true,"internalType":"address","name":"owner","type":"address"},{"indexed":true,"internalType":"address","name":"approved","type":"address"},{"indexed":true,"internalType":"uint256","name":"tokenId","type":"uint256"}],"name":"Approval","type":"event"},{"anonymous":false,"inputs":[{"indexed":true,"internalType":"address","name":"owner","type":"address"},{"indexed":true,"internalType":"address","name":"operator","type":"address"},{"indexed":false,"internalType":"bool","name":"approved","type":"bool"}],"name":"ApprovalForAll","type":"event"},{"anonymous":false,"inputs":[{"indexed":true,"internalType":"address","name":"previousOwner","type":"address"},{"indexed":true,"internalType":"address","name":"newOwner","type":"address"}],"name":"OwnershipTransferred","type":"event"},{"anonymous":false,"inputs":[{"indexed":true,"internalType":"uint256","name":"actorId","type":"uint256"},{"indexed":false,"internalType":"uint256","name":"rating","type":"uint256"}],"name":"PerformanceRated","type":"event"},{"anonymous":false,"inputs":[{"indexed":true,"internalType":"address","name":"from","type":"address"},{"indexed":true,"internalType":"address","name":"to","type":"address"},{"indexed":true,"internalType":"uint256","name":"tokenId","type":"uint256"}],"name":"Transfer","type":"event"},{"inputs":[{"internalType":"uint256","name":"","type":"uint256"}],"name":"actingStyles","outputs":[{"internalType":"uint256","name":"emotionalRange","type":"uint256"},{"internalType":"uint256","name":"versatility","type":"uint256"},{"internalType":"uint256","name":"consistency","type":"uint256"},{"internalType":"uint256","name":"charisma","type":"uint256"},{"internalType":"uint256","name":"improvisation","type":"uint256"}],"stateMutability":"view","type":"function"},{"inputs":[{"internalType":"uint256","name":"","type":"uint256"},{"internalType":"uint256","name":"","type":"uint256"}],"name":"actorRoles","outputs":[{"internalType":"uint256","name":"","type":"uint256"}],"stateMutability":"view","type":"function"},{"inputs":[{"internalType":"uint256","name":"","type":"uint256"},{"internalType":"uint256","name":"","type":"uint256"}],"name":"actorSpecializations","outputs":[{"internalType":"bool","name":"","type":"bool"}],"stateMutability":"view","type":"function"},{"inputs":[{"internalType":"uint256","name":"","type":"uint256"}],"name":"actors","outputs":[{"internalType":"uint256","name":"actorId","type":"uint256"},{"internalType":"uint256","name":"entityId","type":"uint256"},{"internalType":"string","name":"stageName","type":"string"},{"internalType":"enum AIActorNFT.ActorType","name":"actorType","type":"uint8"},{"internalType":"uint256","name":"baseRate","type":"uint256"},{"internalType":"uint256","name":"reputationScore","type":"uint256"},{"internalType":"uint256","name":"totalScenes","type":"uint256"},{"internalType":"uint256","name":"totalMovies","type":"uint256"},{"internalType":"uint256","name":"totalEarnings","type":"uint256"},{"internalType":"bool","name":"available","type":"bool"},{"internalType":"uint256","name":"lastPerformance","type":"uint256"}],"stateMutability":"view","type":"function"},{"inputs":[{"internalType":"uint256","name":"actorId","type":"uint256"},{"internalType":"enum AIActorNFT.Specialization","name":"spec","type":"uint8"}],"name":"addSpecialization","outputs":[],"stateMutability":"nonpayable","type":"function"},{"inputs":[{"internalType":"address","name":"to","type":"address"},{"internalType":"uint256","name":"tokenId","type":"uint256"}],"name":"approve","outputs":[],"stateMutability":"nonpayable","type":"function"},{"inputs":[{"internalType":"address","name":"owner","type":"address"}],"name":"balanceOf","outputs":[{"internalType":"uint256","name":"","type":"uint256"}],"stateMutability":"view","type":"function"},{"inputs":[{"internalType":"uint256","name":"actorId","type":"uint256"}],"name":"getActingStyle","outputs":[{"components":[{"internalType":"uint256","name":"emotionalRange","type":"uint256"},{"internalType":"uint256","name":"versatility","type":"uint256"},{"internalType":"uint256","name":"consistency","type":"uint256"},{"internalType":"uint256","name":"charisma","type":"uint256"},{"internalType":"uint256","name":"improvisation","type":"uint256"}],"internalType":"struct AIActorNFT.ActingStyle","name":"","type":"tuple"}],"stateMutability":"view","type":"function"},{"inputs":[{"internalType":"uint256","name":"actorId","type":"uint256"}],"name":"getActor","outputs":[{"components":[{"internalType":"uint256","name":"actorId","type":"uint256"},{"internalType":"uint256","name":"entityId","type":"uint256"},{"internalType":"string","name":"stageName","type":"string"},{"internalType":"enum AIActorNFT.ActorType","name":"actorType","type":"uint8"},{"internalType":"uint256[]","name":"specializations","type":"uint256[]"},{"internalType":"uint256","name":"baseRate","type":"uint256"},{"internalType":"uint256","name":"reputationScore","type":"uint256"},{"internalType":"uint256","name":"totalScenes","type":"uint256"},{"internalType":"uint256","name":"totalMovies","type":"uint256"},{"internalType":"uint256","name":"totalEarnings","type":"uint256"},{"internalType":"bool","name":"available","type":"bool"},{"internalType":"uint256","name":"lastPerformance","type":"uint256"}],"internalType":"struct AIActorNFT.AIActor","name":"","type":"tuple"}],"stateMutability":"view","type":"function"},{"inputs":[{"internalType":"uint256","name":"actorId","type":"uint256"}],"name":"getActorRoles","outputs":[{"internalType":"uint256[]","name":"","type":"uint256[]"}],"stateMutability":"view","type":"function"},{"inputs":[{"internalType":"uint256","name":"tokenId","type":"uint256"}],"name":"getApproved","outputs":[{"internalType":"address","name":"","type":"address"}],"stateMutability":"view","type":"function"},{"inputs":[{"internalType":"uint256","name":"actorId","type":"uint256"},{"internalType":"uint256","name":"movieId","type":"uint256"}],"name":"hireActor","outputs":[],"stateMutability":"payable","type":"function"},{"inputs":[{"internalType":"address","name":"owner","type":"address"},{"internalType":"address","name":"operator","type":"address"}],"name":"isApprovedForAll","outputs":[{"internalType":"bool","name":"","type":"bool"}],"stateMutability":"view","type":"function"},{"inputs":[{"internalType":"uint256","name":"entityId","type":"uint256"},{"internalType":"string","name":"stageName","type":"string"},{"internalType":"enum AIActorNFT.ActorType","name":"actorType","type":"uint8"},{"internalType":"uint256","name":"baseRate","type":"uint256"}],"name":"mintActor","outputs":[{"internalType":"uint256","name":"","type":"uint256"}],"stateMutability":"nonpayable","type":"function"},{"inputs":[],"name":"name","outputs":[{"internalType":"string","name":"","type":"string"}],"stateMutability":"view","type":"function"},{"inputs":[],"name":"owner","outputs":[{"internalType":"address","name":"","type":"address"}],"stateMutability":"view","type":"function"},{"inputs":[{"internalType":"uint256","name":"tokenId","type":"uint256"}],"name":"ownerOf","outputs":[{"internalType":"address","name":"","type":"address"}],"stateMutability":"view","type":"function"},{"inputs":[{"internalType":"uint256","name":"actorId","type":"uint256"},{"internalType":"uint256","name":"rating","type":"uint256"}],"name":"ratePerformance","outputs":[],"stateMutability":"nonpayable","type":"function"},{"inputs":[],"name":"renounceOwnership","outputs":[],"stateMutability":"nonpayable","type":"function"},{"inputs":[{"internalType":"uint256","name":"actorId","type":"uint256"}],"name":"retireActor","outputs":[],"stateMutability":"nonpayable","type":"function"},{"inputs":[{"internalType":"address","name":"from","type":"address"},{"internalType":"address","name":"to","type":"address"},{"internalType":"uint256","name":"tokenId","type":"uint256"}],"name":"safeTransferFrom","outputs":[],"stateMutability":"nonpayable","type":"function"},{"inputs":[{"internalType":"address","name":"from","type":"address"},{"internalType":"address","name":"to","type":"address"},{"internalType":"uint256","name":"tokenId","type":"uint256"},{"internalType":"bytes","name":"data","type":"bytes"}],"name":"safeTransferFrom","outputs":[],"stateMutability":"nonpayable","type":"function"},{"inputs":[{"internalType":"address","name":"operator","type":"address"},{"internalType":"bool","name":"approved","type":"bool"}],"name":"setApprovalForAll","outputs":[],"stateMutability":"nonpayable","type":"function"},{"inputs":[{"internalType":"uint256","name":"actorId","type":"uint256"},{"internalType":"bool","name":"available","type":"bool"}],"name":"setAvailability","outputs":[],"stateMutability":"nonpayable","type":"function"},{"inputs":[{"internalType":"bytes4","name":"interfaceId","type":"bytes4"}],"name":"supportsInterface","outputs":[{"internalType":"bool","name":"","type":"bool"}],"stateMutability":"view","type":"function"},{"inputs":[],"name":"symbol","outputs":[{"internalType":"string","name":"","type":"string"}],"stateMutability":"view","type":"function"},{"inputs":[{"internalType":"uint256","name":"tokenId","type":"uint256"}],"name":"tokenURI","outputs":[{"internalType":"string","name":"","type":"string"}],"stateMutability":"view","type":"function"},{"inputs":[{"internalType":"address","name":"from","type":"address"},{"internalType":"address","name":"to","type":"address"},{"internalType":"uint256","name":"tokenId","type":"uint256"}],"name":"transferFrom","outputs":[],"stateMutability":"nonpayable","type":"function"},{"inputs":[{"internalType":"address","name":"newOwner","type":"address"}],"name":"transferOwnership","outputs":[],"stateMutability":"nonpayable","type":"function"},{"inputs":[{"internalType":"uint256","name":"actorId","type":"uint256"},{"internalType":"uint256","name":"newRate","type":"uint256"}],"name":"updateBaseRate","outputs":[],"stateMutability":"nonpayable","type":"function"}],"evm":{"bytecode":{"linkReferences":{},"object":"60806040523480156200001157600080fd5b50336040518060400160405280600c81526020016b27a0a71020a49020b1ba37b960a11b8152506040518060400160405280600581526020016420a1aa27a960d91b8152508160009081620000679190620001b1565b506001620000768282620001b1565b5050506001600160a01b038116620000a857604051631e4fbdf760e01b81526000600482015260240160405180910390fd5b620000b381620000ba565b506200027d565b600680546001600160a01b038381166001600160a01b0319831681179093556040519116919082907f8be0079c531659141344cd1fd0a4f28419497f9722a3daafe3b4186f6b6457e090600090a35050565b634e487b7160e01b600052604160045260246000fd5b600181811c908216806200013757607f821691505b6020821081036200015857634e487b7160e01b600052602260045260246000fd5b50919050565b601f821115620001ac57600081815260208120601f850160051c81016020861015620001875750805b601f850160051c820191505b81811015620001a85782815560010162000193565b5050505b505050565b81516001600160401b03811115620001cd57620001cd6200010c565b620001e581620001de845462000122565b846200015e565b602080601f8311600181146200021d5760008415620002045750858301515b600019600386901b1c1916600185901b178555620001a8565b600085815260208120601f198616915b828110156200024e578886015182559484019460019091019084016200022d565b50858210156200026d5787850151600019600388901b60f8161c191681555b5050505050600190811b01905550565b612461806200028d6000396000f3fe6080604052600436106101cd5760003560e01c8063715018a6116100f7578063a22cb46511610095578063c87b56dd11610064578063c87b56dd146105ff578063e49349a51461061f578063e985e9c51461064c578063f2fde38b1461066c57600080fd5b8063a22cb46514610572578063a865bf8014610592578063b35958a0146105b2578063b88d4fde146105df57600080fd5b80638da5cb5b116100d15780638da5cb5b146104965780638ed5d072146104b457806393c0e83a1461052657806395d89b411461055d57600080fd5b8063715018a61461044157806376f5433f14610456578063836f68dd1461047657600080fd5b80631b80c8091161016f5780633baa53471161013e5780633baa5347146103ce57806342842e0e146103e15780636352211e1461040157806370a082311461042157600080fd5b80631b80c8091461034057806323b872dd14610360578063320186d21461038057806335cb1725146103ae57600080fd5b8063081812fc116101ab578063081812fc14610264578063095ea7b31461029c5780630d0d12c6146102be578063111bf4cf1461032057600080fd5b806301ffc9a7146101d2578063059bc3791461020757806306fdde0314610242575b600080fd5b3480156101de57600080fd5b506101f26101ed366004611c67565b61068c565b60405190151581526020015b60405180910390f35b34801561021357600080fd5b506101f2610222366004611c84565b600a60209081526000928352604080842090915290825290205460ff1681565b34801561024e57600080fd5b506102576106de565b6040516101fe9190611cf6565b34801561027057600080fd5b5061028461027f366004611d09565b610770565b6040516001600160a01b0390911681526020016101fe565b3480156102a857600080fd5b506102bc6102b7366004611d3e565b610799565b005b3480156102ca57600080fd5b506102de6102d9366004611d09565b6107a8565b6040516101fe9190600060a082019050825182526020830151602083015260408301516040830152606083015160608301526080830151608083015292915050565b34801561032c57600080fd5b506102bc61033b366004611c84565b610829565b34801561034c57600080fd5b506102bc61035b366004611d68565b610877565b34801561036c57600080fd5b506102bc61037b366004611d9c565b61092b565b34801561038c57600080fd5b506103a061039b366004611e64565b6109b6565b6040519081526020016101fe565b3480156103ba57600080fd5b506102bc6103c9366004611c84565b610bed565b6102bc6103dc366004611c84565b610d04565b3480156103ed57600080fd5b506102bc6103fc366004611d9c565b610e83565b34801561040d57600080fd5b5061028461041c366004611d09565b610ea3565b34801561042d57600080fd5b506103a061043c366004611edd565b610eae565b34801561044d57600080fd5b506102bc610ef6565b34801561046257600080fd5b506103a0610471366004611c84565b610f0a565b34801561048257600080fd5b506102bc610491366004611d09565b610f3b565b3480156104a257600080fd5b506006546001600160a01b0316610284565b3480156104c057600080fd5b506104fe6104cf366004611d09565b600960205260009081526040902080546001820154600283015460038401546004909401549293919290919085565b604080519586526020860194909452928401919091526060830152608082015260a0016101fe565b34801561053257600080fd5b50610546610541366004611d09565b610fae565b6040516101fe9b9a99989796959493929190611f30565b34801561056957600080fd5b50610257611094565b34801561057e57600080fd5b506102bc61058d366004611fad565b6110a3565b34801561059e57600080fd5b506102bc6105ad366004611fe0565b6110ae565b3480156105be57600080fd5b506105d26105cd366004611d09565b611101565b6040516101fe919061203e565b3480156105eb57600080fd5b506102bc6105fa36600461210b565b6112ab565b34801561060b57600080fd5b5061025761061a366004611d09565b6112c3565b34801561062b57600080fd5b5061063f61063a366004611d09565b611338565b6040516101fe9190612187565b34801561065857600080fd5b506101f261066736600461219a565b61139a565b34801561067857600080fd5b506102bc610687366004611edd565b6113c8565b60006001600160e01b031982166380ac58cd60e01b14806106bd57506001600160e01b03198216635b5e139f60e01b145b806106d857506301ffc9a760e01b6001600160e01b03198316145b92915050565b6060600080546106ed906121c4565b80601f0160208091040260200160405190810160405280929190818152602001828054610719906121c4565b80156107665780601f1061073b57610100808354040283529160200191610766565b820191906000526020600020905b81548152906001019060200180831161074957829003601f168201915b5050505050905090565b600061077b82611406565b506000828152600460205260409020546001600160a01b03166106d8565b6107a482823361143f565b5050565b6107da6040518060a0016040528060008152602001600081526020016000815260200160008152602001600081525090565b50600090815260096020908152604091829020825160a0810184528154815260018201549281019290925260028101549282019290925260038201546060820152600490910154608082015290565b3361083383610ea3565b6001600160a01b0316146108625760405162461bcd60e51b8152600401610859906121fe565b60405180910390fd5b60009182526008602052604090912060050155565b3361088183610ea3565b6001600160a01b0316146108a75760405162461bcd60e51b8152600401610859906121fe565b600860008381526020019081526020016000206004018160088111156108cf576108cf611ef8565b8154600181810184556000938452602080852090920192909255848352600a905260408220909183600881111561090857610908611ef8565b81526020810191909152604001600020805460ff19169115159190911790555050565b6001600160a01b03821661095557604051633250574960e11b815260006004820152602401610859565b600061096283833361144c565b9050836001600160a01b0316816001600160a01b0316146109b0576040516364283d7b60e01b81526001600160a01b0380861660048301526024820184905282166044820152606401610859565b50505050565b60078054600091826109c783612237565b90915550506007546109d93382611545565b604051806101800160405280828152602001878152602001868152602001856005811115610a0957610a09611ef8565b81526020016000604051908082528060200260200182016040528015610a39578160200160208202803683370190505b508152602001848152602001611388815260200160008152602001600081526020016000815260200160011515815260200160008152506008600083815260200190815260200160002060008201518160000155602082015181600101556040820151816002019081610aac9190612296565b50606082015160038201805460ff19166001836005811115610ad057610ad0611ef8565b021790555060808201518051610af0916004840191602090910190611b7d565b5060a082810151600583015560c0830151600683015560e083015160078301556101008301516008830155610120830151600980840191909155610140840151600a8401805460ff191691151591909117905561016090930151600b9092019190915560408051918201815260328083526020808401828152848401838152606086018481526080870194855260008981529790935295849020945185555160018501559351600284015592516003830155915160049091015551869082907ff91e533914a19210c2ce8a73018c84bc2aa498c6addb8c30324cb902715bf83890610bdc908990611cf6565b60405180910390a395945050505050565b6064811115610c305760405162461bcd60e51b815260206004820152600f60248201526e0a4c2e8d2dcce40e8dede40d0d2ced608b1b6044820152606401610859565b60008281526008602052604090206007810154610c4e816001612356565b610c59846064612369565b828460060154610c699190612369565b610c739190612356565b610c7d9190612380565b600683015560008481526009602052604090206050841115610cc357610ca88160020154600261155f565b60028201556003810154610cbd90600161155f565b60038201555b847f8ea6e5b3a7943e8a6eca98783eac52e7e1743540b7af3a93c2afab441f3422d685604051610cf591815260200190565b60405180910390a25050505050565b6000828152600860205260409020600a81015460ff16610d5c5760405162461bcd60e51b81526020600482015260136024820152724163746f72206e6f7420617661696c61626c6560681b6044820152606401610859565b8060050154341015610da75760405162461bcd60e51b8152602060048201526014602482015273125b9cdd59999a58da595b9d081c185e5b595b9d60621b6044820152606401610859565b600781018054906000610db983612237565b919050555034816009016000828254610dd29190612356565b909155505042600b808301919091556000848152602091825260408120805460018101825590825291902001829055610e0a83610ea3565b6001600160a01b03166108fc349081150290604051600060405180830381858888f19350505050158015610e42573d6000803e3d6000fd5b5081837ff58df15879e6b0580d1a1994b49eb8f222c468d3fae932ad01ff47e9a1fc9ecf34604051610e7691815260200190565b60405180910390a3505050565b610e9e838383604051806020016040528060008152506112ab565b505050565b60006106d882611406565b60006001600160a01b038216610eda576040516322718ad960e21b815260006004820152602401610859565b506001600160a01b031660009081526003602052604090205490565b610efe611587565b610f0860006115b4565b565b600b6020528160005260406000208181548110610f2657600080fd5b90600052602060002001600091509150505481565b33610f4582610ea3565b6001600160a01b031614610f6b5760405162461bcd60e51b8152600401610859906121fe565b600081815260086020526040808220600a01805460ff191690555182917f094e42c1b45262c58289065c7727db4fca905f4b50a1db46446379f91a189a8191a250565b60086020526000908152604090208054600182015460028301805492939192610fd6906121c4565b80601f0160208091040260200160405190810160405280929190818152602001828054611002906121c4565b801561104f5780601f106110245761010080835404028352916020019161104f565b820191906000526020600020905b81548152906001019060200180831161103257829003601f168201915b505050600384015460058501546006860154600787015460088801546009890154600a8a0154600b909a0154989960ff9687169995985093965091949093919216908b565b6060600180546106ed906121c4565b6107a4338383611606565b336110b883610ea3565b6001600160a01b0316146110de5760405162461bcd60e51b8152600401610859906121fe565b600091825260086020526040909120600a01805460ff1916911515919091179055565b611109611bc8565b6008600083815260200190815260200160002060405180610180016040529081600082015481526020016001820154815260200160028201805461114c906121c4565b80601f0160208091040260200160405190810160405280929190818152602001828054611178906121c4565b80156111c55780601f1061119a576101008083540402835291602001916111c5565b820191906000526020600020905b8154815290600101906020018083116111a857829003601f168201915b5050509183525050600382015460209091019060ff1660058111156111ec576111ec611ef8565b60058111156111fd576111fd611ef8565b81526020016004820180548060200260200160405190810160405280929190818152602001828054801561125057602002820191906000526020600020905b81548152602001906001019080831161123c575b505050918352505060058201546020820152600682015460408201526007820154606082015260088201546080820152600982015460a0820152600a82015460ff16151560c0820152600b9091015460e09091015292915050565b6112b684848461092b565b6109b0338585858561169d565b60606112ce82611406565b5060006112e660408051602081019091526000815290565b905060008151116113065760405180602001604052806000815250611331565b80611310846117c8565b6040516020016113219291906123a2565b6040516020818303038152906040525b9392505050565b6000818152600b602090815260409182902080548351818402810184019094528084526060939283018282801561138e57602002820191906000526020600020905b81548152602001906001019080831161137a575b50505050509050919050565b6001600160a01b03918216600090815260056020908152604080832093909416825291909152205460ff1690565b6113d0611587565b6001600160a01b0381166113fa57604051631e4fbdf760e01b815260006004820152602401610859565b611403816115b4565b50565b6000818152600260205260408120546001600160a01b0316806106d857604051637e27328960e01b815260048101849052602401610859565b610e9e838383600161185b565b6000828152600260205260408120546001600160a01b039081169083161561147957611479818486611961565b6001600160a01b038116156114b75761149660008560008061185b565b6001600160a01b038116600090815260036020526040902080546000190190555b6001600160a01b038516156114e6576001600160a01b0385166000908152600360205260409020805460010190555b60008481526002602052604080822080546001600160a01b0319166001600160a01b0389811691821790925591518793918516917fddf252ad1be2c89b69c2b068fc378daa952ba7f163c4a11628f55a4df523b3ef91a4949350505050565b6107a48282604051806020016040528060008152506119c5565b60008061156c8385612356565b90506064811161157c578061157f565b60645b949350505050565b6006546001600160a01b03163314610f085760405163118cdaa760e01b8152336004820152602401610859565b600680546001600160a01b038381166001600160a01b0319831681179093556040519116919082907f8be0079c531659141344cd1fd0a4f28419497f9722a3daafe3b4186f6b6457e090600090a35050565b6001600160a01b03821661163857604051630b61174360e31b81526001600160a01b0383166004820152602401610859565b6001600160a01b03838116600081815260056020908152604080832094871680845294825291829020805460ff191686151590811790915591519182527f17307eab39ab6107e8899845ad3d59bd9653f200f220920489ca2b5937696c319101610e76565b6001600160a01b0383163b156117c157604051630a85bd0160e11b81526001600160a01b0384169063150b7a02906116df9088908890879087906004016123d1565b6020604051808303816000875af192505050801561171a575060408051601f3d908101601f191682019092526117179181019061240e565b60015b611783573d808015611748576040519150601f19603f3d011682016040523d82523d6000602084013e61174d565b606091505b50805160000361177b57604051633250574960e11b81526001600160a01b0385166004820152602401610859565b805160208201fd5b6001600160e01b03198116630a85bd0160e11b146117bf57604051633250574960e11b81526001600160a01b0385166004820152602401610859565b505b5050505050565b606060006117d5836119dd565b600101905060008167ffffffffffffffff8111156117f5576117f5611dd8565b6040519080825280601f01601f19166020018201604052801561181f576020820181803683370190505b5090508181016020015b600019016f181899199a1a9b1b9c1cb0b131b232b360811b600a86061a8153600a850494508461182957509392505050565b808061186f57506001600160a01b03821615155b1561193157600061187f84611406565b90506001600160a01b038316158015906118ab5750826001600160a01b0316816001600160a01b031614155b80156118be57506118bc818461139a565b155b156118e75760405163a9fbf51f60e01b81526001600160a01b0384166004820152602401610859565b811561192f5783856001600160a01b0316826001600160a01b03167f8c5be1e5ebec7d5bd14f71427d1e84f3dd0314c0f7b2291e5b200ac8c7c3b92560405160405180910390a45b505b5050600090815260046020526040902080546001600160a01b0319166001600160a01b0392909216919091179055565b61196c838383611ab5565b610e9e576001600160a01b03831661199a57604051637e27328960e01b815260048101829052602401610859565b60405163177e802f60e01b81526001600160a01b038316600482015260248101829052604401610859565b6119cf8383611b18565b610e9e33600085858561169d565b60008072184f03e93ff9f4daa797ed6e38ed64bf6a1f0160401b8310611a1c5772184f03e93ff9f4daa797ed6e38ed64bf6a1f0160401b830492506040015b6d04ee2d6d415b85acef81000000008310611a48576d04ee2d6d415b85acef8100000000830492506020015b662386f26fc100008310611a6657662386f26fc10000830492506010015b6305f5e1008310611a7e576305f5e100830492506008015b6127108310611a9257612710830492506004015b60648310611aa4576064830492506002015b600a83106106d85760010192915050565b60006001600160a01b0383161580159061157f5750826001600160a01b0316846001600160a01b03161480611aef5750611aef848461139a565b8061157f5750506000908152600460205260409020546001600160a01b03908116911614919050565b6001600160a01b038216611b4257604051633250574960e11b815260006004820152602401610859565b6000611b508383600061144c565b90506001600160a01b03811615610e9e576040516339e3563760e11b815260006004820152602401610859565b828054828255906000526020600020908101928215611bb8579160200282015b82811115611bb8578251825591602001919060010190611b9d565b50611bc4929150611c3c565b5090565b60405180610180016040528060008152602001600081526020016060815260200160006005811115611bfc57611bfc611ef8565b8152602001606081526020016000815260200160008152602001600081526020016000815260200160008152602001600015158152602001600081525090565b5b80821115611bc45760008155600101611c3d565b6001600160e01b03198116811461140357600080fd5b600060208284031215611c7957600080fd5b813561133181611c51565b60008060408385031215611c9757600080fd5b50508035926020909101359150565b60005b83811015611cc1578181015183820152602001611ca9565b50506000910152565b60008151808452611ce2816020860160208601611ca6565b601f01601f19169290920160200192915050565b6020815260006113316020830184611cca565b600060208284031215611d1b57600080fd5b5035919050565b80356001600160a01b0381168114611d3957600080fd5b919050565b60008060408385031215611d5157600080fd5b611d5a83611d22565b946020939093013593505050565b60008060408385031215611d7b57600080fd5b82359150602083013560098110611d9157600080fd5b809150509250929050565b600080600060608486031215611db157600080fd5b611dba84611d22565b9250611dc860208501611d22565b9150604084013590509250925092565b634e487b7160e01b600052604160045260246000fd5b600067ffffffffffffffff80841115611e0957611e09611dd8565b604051601f8501601f19908116603f01168101908282118183101715611e3157611e31611dd8565b81604052809350858152868686011115611e4a57600080fd5b858560208301376000602087830101525050509392505050565b60008060008060808587031215611e7a57600080fd5b84359350602085013567ffffffffffffffff811115611e9857600080fd5b8501601f81018713611ea957600080fd5b611eb887823560208401611dee565b935050604085013560068110611ecd57600080fd5b9396929550929360600135925050565b600060208284031215611eef57600080fd5b61133182611d22565b634e487b7160e01b600052602160045260246000fd5b60068110611f2c57634e487b7160e01b600052602160045260246000fd5b9052565b60006101608d83528c6020840152806040840152611f508184018d611cca565b915050611f60606083018b611f0e565b608082019890985260a081019690965260c086019490945260e0850192909252610100840152151561012083015261014090910152949350505050565b80358015158114611d3957600080fd5b60008060408385031215611fc057600080fd5b611fc983611d22565b9150611fd760208401611f9d565b90509250929050565b60008060408385031215611ff357600080fd5b82359150611fd760208401611f9d565b600081518084526020808501945080840160005b8381101561203357815187529582019590820190600101612017565b509495945050505050565b602081528151602082015260208201516040820152600060408301516101808060608501526120716101a0850183611cca565b915060608501516120856080860182611f0e565b506080850151848303601f190160a08601526120a18382612003565b92505060a085015160c085015260c085015160e085015260e08501516101008181870152808701519150506101208181870152808701519150506101408181870152808701519150506101606120fa8187018315159052565b959095015193019290925250919050565b6000806000806080858703121561212157600080fd5b61212a85611d22565b935061213860208601611d22565b925060408501359150606085013567ffffffffffffffff81111561215b57600080fd5b8501601f8101871361216c57600080fd5b61217b87823560208401611dee565b91505092959194509250565b6020815260006113316020830184612003565b600080604083850312156121ad57600080fd5b6121b683611d22565b9150611fd760208401611d22565b600181811c908216806121d857607f821691505b6020821081036121f857634e487b7160e01b600052602260045260246000fd5b50919050565b6020808252600990820152682737ba1037bbb732b960b91b604082015260600190565b634e487b7160e01b600052601160045260246000fd5b60006001820161224957612249612221565b5060010190565b601f821115610e9e57600081815260208120601f850160051c810160208610156122775750805b601f850160051c820191505b818110156117bf57828155600101612283565b815167ffffffffffffffff8111156122b0576122b0611dd8565b6122c4816122be84546121c4565b84612250565b602080601f8311600181146122f957600084156122e15750858301515b600019600386901b1c1916600185901b1785556117bf565b600085815260208120601f198616915b8281101561232857888601518255948401946001909101908401612309565b50858210156123465787850151600019600388901b60f8161c191681555b5050505050600190811b01905550565b808201808211156106d8576106d8612221565b80820281158282048414176106d8576106d8612221565b60008261239d57634e487b7160e01b600052601260045260246000fd5b500490565b600083516123b4818460208801611ca6565b8351908301906123c8818360208801611ca6565b01949350505050565b6001600160a01b038581168252841660208201526040810183905260806060820181905260009061240490830184611cca565b9695505050505050565b60006020828403121561242057600080fd5b815161133181611c5156fea26469706673582212204ed0f65920a2a2f3e39888fdff34354d0f3e0b92b7961ce4fb1a8fd99a594c2b64736f6c63430008140033","opcodes":"PUSH1 0x80 PUSH1 0x40 MSTORE CALLVALUE DUP1 ISZERO PUSH3 0x11 JUMPI PUSH1 0x0 DUP1 REVERT JUMPDEST POP CALLER PUSH1 0x40 MLOAD DUP1 PUSH1 0x40 ADD PUSH1 0x40 MSTORE DUP1 PUSH1 0xC DUP2 MSTORE PUSH1 0x20 ADD PUSH12 0x27A0A71020A49020B1BA37B9 PUSH1 0xA1 SHL DUP2 MSTORE POP PUSH1 0x40 MLOAD DUP1 PUSH1 0x40 ADD PUSH1 0x40 MSTORE DUP1 PUSH1 0x5 DUP2 MSTORE PUSH1 0x20 ADD PUSH5 0x20A1AA27A9 PUSH1 0xD9 SHL DUP2 MSTORE POP DUP2 PUSH1 0x0 SWAP1 DUP2 PUSH3 0x67 SWAP2 SWAP1 PUSH3 0x1B1 JUMP JUMPDEST POP PUSH1 0x1 PUSH3 0x76 DUP3 DUP3 PUSH3 0x1B1 JUMP JUMPDEST POP POP POP PUSH1 0x1 PUSH1 0x1 PUSH1 0xA0 SHL SUB DUP2 AND PUSH3 0xA8 JUMPI PUSH1 0x40 MLOAD PUSH4 0x1E4FBDF7 PUSH1 0xE0 SHL DUP2 MSTORE PUSH1 0x0 PUSH1 0x4 DUP3 ADD MSTORE PUSH1 0x24 ADD PUSH1 0x40 MLOAD DUP1 SWAP2 SUB SWAP1 REVERT JUMPDEST PUSH3 0xB3 DUP2 PUSH3 0xBA JUMP JUMPDEST POP PUSH3 0x27D JUMP JUMPDEST PUSH1 0x6 DUP1 SLOAD PUSH1 0x1 PUSH1 0x1 PUSH1 0xA0 SHL SUB DUP4 DUP2 AND PUSH1 0x1 PUSH1 0x1 PUSH1 0xA0 SHL SUB NOT DUP4 AND DUP2 OR SWAP1 SWAP4 SSTORE PUSH1 0x40 MLOAD SWAP2 AND SWAP2 SWAP1 DUP3 SWAP1 PUSH32 0x8BE0079C531659141344CD1FD0A4F28419497F9722A3DAAFE3B4186F6B6457E0 SWAP1 PUSH1 0x0 SWAP1 LOG3 POP POP JUMP JUMPDEST PUSH4 0x4E487B71 PUSH1 0xE0 SHL PUSH1 0x0 MSTORE PUSH1 0x41 PUSH1 0x4 MSTORE PUSH1 0x24 PUSH1 0x0 REVERT JUMPDEST PUSH1 0x1 DUP2 DUP2 SHR SWAP1 DUP3 AND DUP1 PUSH3 0x137 JUMPI PUSH1 0x7F DUP3 AND SWAP2 POP JUMPDEST PUSH1 0x20 DUP3 LT DUP2 SUB PUSH3 0x158 JUMPI PUSH4 0x4E487B71 PUSH1 0xE0 SHL PUSH1 0x0 MSTORE PUSH1 0x22 PUSH1 0x4 MSTORE PUSH1 0x24 PUSH1 0x0 REVERT JUMPDEST POP SWAP2 SWAP1 POP JUMP JUMPDEST PUSH1 0x1F DUP3 GT ISZERO PUSH3 0x1AC JUMPI PUSH1 0x0 DUP2 DUP2 MSTORE PUSH1 0x20 DUP2 KECCAK256 PUSH1 0x1F DUP6 ADD PUSH1 0x5 SHR DUP2 ADD PUSH1 0x20 DUP7 LT ISZERO PUSH3 0x187 JUMPI POP DUP1 JUMPDEST PUSH1 0x1F DUP6 ADD PUSH1 0x5 SHR DUP3 ADD SWAP2 POP JUMPDEST DUP2 DUP2 LT ISZERO PUSH3 0x1A8 JUMPI DUP3 DUP2 SSTORE PUSH1 0x1 ADD PUSH3 0x193 JUMP JUMPDEST POP POP POP JUMPDEST POP POP POP JUMP JUMPDEST DUP2 MLOAD PUSH1 0x1 PUSH1 0x1 PUSH1 0x40 SHL SUB DUP2 GT ISZERO PUSH3 0x1CD JUMPI PUSH3 0x1CD PUSH3 0x10C JUMP JUMPDEST PUSH3 0x1E5 DUP2 PUSH3 0x1DE DUP5 SLOAD PUSH3 0x122 JUMP JUMPDEST DUP5 PUSH3 0x15E JUMP JUMPDEST PUSH1 0x20 DUP1 PUSH1 0x1F DUP4 GT PUSH1 0x1 DUP2 EQ PUSH3 0x21D JUMPI PUSH1 0x0 DUP5 ISZERO PUSH3 0x204 JUMPI POP DUP6 DUP4 ADD MLOAD JUMPDEST PUSH1 0x0 NOT PUSH1 0x3 DUP7 SWAP1 SHL SHR NOT AND PUSH1 0x1 DUP6 SWAP1 SHL OR DUP6 SSTORE PUSH3 0x1A8 JUMP JUMPDEST PUSH1 0x0 DUP6 DUP2 MSTORE PUSH1 0x20 DUP2 KECCAK256 PUSH1 0x1F NOT DUP7 AND SWAP2 JUMPDEST DUP3 DUP2 LT ISZERO PUSH3 0x24E JUMPI DUP9 DUP7 ADD MLOAD DUP3 SSTORE SWAP5 DUP5 ADD SWAP5 PUSH1 0x1 SWAP1 SWAP2 ADD SWAP1 DUP5 ADD PUSH3 0x22D JUMP JUMPDEST POP DUP6 DUP3 LT ISZERO PUSH3 0x26D JUMPI DUP8 DUP6 ADD MLOAD PUSH1 0x0 NOT PUSH1 0x3 DUP9 SWAP1 SHL PUSH1 0xF8 AND SHR NOT AND DUP2 SSTORE JUMPDEST POP POP POP POP POP PUSH1 0x1 SWAP1 DUP2 SHL ADD SWAP1 SSTORE POP JUMP JUMPDEST PUSH2 0x2461 DUP1 PUSH3 0x28D PUSH1 0x0 CODECOPY PUSH1 0x0 RETURN INVALID PUSH1 0x80 PUSH1 0x40 MSTORE PUSH1 0x4 CALLDATASIZE LT PUSH2 0x1CD JUMPI PUSH1 0x0 CALLDATALOAD PUSH1 0xE0 SHR DUP1 PUSH4 0x715018A6 GT PUSH2 0xF7 JUMPI DUP1 PUSH4 0xA22CB465 GT PUSH2 0x95 JUMPI DUP1 PUSH4 0xC87B56DD GT PUSH2 0x64 JUMPI DUP1 PUSH4 0xC87B56DD EQ PUSH2 0x5FF JUMPI DUP1 PUSH4 0xE49349A5 EQ PUSH2 0x61F JUMPI DUP1 PUSH4 0xE985E9C5 EQ PUSH2 0x64C JUMPI DUP1 PUSH4 0xF2FDE38B EQ PUSH2 0x66C JUMPI PUSH1 0x0 DUP1 REVERT JUMPDEST DUP1 PUSH4 0xA22CB465 EQ PUSH2 0x572 JUMPI DUP1 PUSH4 0xA865BF80 EQ PUSH2 0x592 JUMPI DUP1 PUSH4 0xB35958A0 EQ PUSH2 0x5B2 JUMPI DUP1 PUSH4 0xB88D4FDE EQ PUSH2 0x5DF JUMPI PUSH1 0x0 DUP1 REVERT JUMPDEST DUP1 PUSH4 0x8DA5CB5B GT PUSH2 0xD1 JUMPI DUP1 PUSH4 0x8DA5CB5B EQ PUSH2 0x496 JUMPI DUP1 PUSH4 0x8ED5D072 EQ PUSH2 0x4B4 JUMPI DUP1 PUSH4 0x93C0E83A EQ PUSH2 0x526 JUMPI DUP1 PUSH4 0x95D89B41 EQ PUSH2 0x55D JUMPI PUSH1 0x0 DUP1 REVERT JUMPDEST DUP1 PUSH4 0x715018A6 EQ PUSH2 0x441 JUMPI DUP1 PUSH4 0x76F5433F EQ PUSH2 0x456 JUMPI DUP1 PUSH4 0x836F68DD EQ PUSH2 0x476 JUMPI PUSH1 0x0 DUP1 REVERT JUMPDEST DUP1 PUSH4 0x1B80C809 GT PUSH2 0x16F JUMPI DUP1 PUSH4 0x3BAA5347 GT PUSH2 0x13E JUMPI DUP1 PUSH4 0x3BAA5347 EQ PUSH2 0x3CE JUMPI DUP1 PUSH4 0x42842E0E EQ PUSH2 0x3E1 JUMPI DUP1 PUSH4 0x6352211E EQ PUSH2 0x401 JUMPI DUP1 PUSH4 0x70A08231 EQ PUSH2 0x421 JUMPI PUSH1 0x0 DUP1 REVERT JUMPDEST DUP1 PUSH4 0x1B80C809 EQ PUSH2 0x340 JUMPI DUP1 PUSH4 0x23B872DD EQ PUSH2 0x360 JUMPI DUP1 PUSH4 0x320186D2 EQ PUSH2 0x380 JUMPI DUP1 PUSH4 0x35CB1725 EQ PUSH2 0x3AE JUMPI PUSH1 0x0 DUP1 REVERT JUMPDEST DUP1 PUSH4 0x81812FC GT PUSH2 0x1AB JUMPI DUP1 PUSH4 0x81812FC EQ PUSH2 0x264 JUMPI DUP1 PUSH4 0x95EA7B3 EQ PUSH2 0x29C JUMPI DUP1 PUSH4 0xD0D12C6 EQ PUSH2 0x2BE JUMPI DUP1 PUSH4 0x111BF4CF EQ PUSH2 0x320 JUMPI PUSH1 0x0 DUP1 REVERT JUMPDEST DUP1 PUSH4 0x1FFC9A7 EQ PUSH2 0x1D2 JUMPI DUP1 PUSH4 0x59BC379 EQ PUSH2 0x207 JUMPI DUP1 PUSH4 0x6FDDE03 EQ PUSH2 0x242 JUMPI JUMPDEST PUSH1 0x0 DUP1 REVERT JUMPDEST CALLVALUE DUP1 ISZERO PUSH2 0x1DE JUMPI PUSH1 0x0 DUP1 REVERT JUMPDEST POP PUSH2 0x1F2 PUSH2 0x1ED CALLDATASIZE PUSH1 0x4 PUSH2 0x1C67 JUMP JUMPDEST PUSH2 0x68C JUMP JUMPDEST PUSH1 0x40 MLOAD SWAP1 ISZERO ISZERO DUP2 MSTORE PUSH1 0x20 ADD JUMPDEST PUSH1 0x40 MLOAD DUP1 SWAP2 SUB SWAP1 RETURN JUMPDEST CALLVALUE DUP1 ISZERO PUSH2 0x213 JUMPI PUSH1 0x0 DUP1 REVERT JUMPDEST POP PUSH2 0x1F2 PUSH2 0x222 CALLDATASIZE PUSH1 0x4 PUSH2 0x1C84 JUMP JUMPDEST PUSH1 0xA PUSH1 0x20 SWAP1 DUP2 MSTORE PUSH1 0x0 SWAP3 DUP4 MSTORE PUSH1 0x40 DUP1 DUP5 KECCAK256 SWAP1 SWAP2 MSTORE SWAP1 DUP3 MSTORE SWAP1 KECCAK256 SLOAD PUSH1 0xFF AND DUP2 JUMP JUMPDEST CALLVALUE DUP1 ISZERO PUSH2 0x24E JUMPI PUSH1 0x0 DUP1 REVERT JUMPDEST POP PUSH2 0x257 PUSH2 0x6DE JUMP JUMPDEST PUSH1 0x40 MLOAD PUSH2 0x1FE SWAP2 SWAP1 PUSH2 0x1CF6 JUMP JUMPDEST CALLVALUE DUP1 ISZERO PUSH2 0x270 JUMPI PUSH1 0x0 DUP1 REVERT JUMPDEST POP PUSH2 0x284 PUSH2 0x27F CALLDATASIZE PUSH1 0x4 PUSH2 0x1D09 JUMP JUMPDEST PUSH2 0x770 JUMP JUMPDEST PUSH1 0x40 MLOAD PUSH1 0x1 PUSH1 0x1 PUSH1 0xA0 SHL SUB SWAP1 SWAP2 AND DUP2 MSTORE PUSH1 0x20 ADD PUSH2 0x1FE JUMP JUMPDEST CALLVALUE DUP1 ISZERO PUSH2 0x2A8 JUMPI PUSH1 0x0 DUP1 REVERT JUMPDEST POP PUSH2 0x2BC PUSH2 0x2B7 CALLDATASIZE PUSH1 0x4 PUSH2 0x1D3E JUMP JUMPDEST PUSH2 0x799 JUMP JUMPDEST STOP JUMPDEST CALLVALUE DUP1 ISZERO PUSH2 0x2CA JUMPI PUSH1 0x0 DUP1 REVERT JUMPDEST POP PUSH2 0x2DE PUSH2 0x2D9 CALLDATASIZE PUSH1 0x4 PUSH2 0x1D09 JUMP JUMPDEST PUSH2 0x7A8 JUMP JUMPDEST PUSH1 0x40 MLOAD PUSH2 0x1FE SWAP2 SWAP1 PUSH1 0x0 PUSH1 0xA0 DUP3 ADD SWAP1 POP DUP3 MLOAD DUP3 MSTORE PUSH1 0x20 DUP4 ADD MLOAD PUSH1 0x20 DUP4 ADD MSTORE PUSH1 0x40 DUP4 ADD MLOAD PUSH1 0x40 DUP4 ADD MSTORE PUSH1 0x60 DUP4 ADD MLOAD PUSH1 0x60 DUP4 ADD MSTORE PUSH1 0x80 DUP4 ADD MLOAD PUSH1 0x80 DUP4 ADD MSTORE SWAP3 SWAP2 POP POP JUMP JUMPDEST CALLVALUE DUP1 ISZERO PUSH2 0x32C JUMPI PUSH1 0x0 DUP1 REVERT JUMPDEST POP PUSH2 0x2BC PUSH2 0x33B CALLDATASIZE PUSH1 0x4 PUSH2 0x1C84 JUMP JUMPDEST PUSH2 0x829 JUMP JUMPDEST CALLVALUE DUP1 ISZERO PUSH2 0x34C JUMPI PUSH1 0x0 DUP1 REVERT JUMPDEST POP PUSH2 0x2BC PUSH2 0x35B CALLDATASIZE PUSH1 0x4 PUSH2 0x1D68 JUMP JUMPDEST PUSH2 0x877 JUMP JUMPDEST CALLVALUE DUP1 ISZERO PUSH2 0x36C JUMPI PUSH1 0x0 DUP1 REVERT JUMPDEST POP PUSH2 0x2BC PUSH2 0x37B CALLDATASIZE PUSH1 0x4 PUSH2 0x1D9C JUMP JUMPDEST PUSH2 0x92B JUMP JUMPDEST CALLVALUE DUP1 ISZERO PUSH2 0x38C JUMPI PUSH1 0x0 DUP1 REVERT JUMPDEST POP PUSH2 0x3A0 PUSH2 0x39B CALLDATASIZE PUSH1 0x4 PUSH2 0x1E64 JUMP JUMPDEST PUSH2 0x9B6 JUMP JUMPDEST PUSH1 0x40 MLOAD SWAP1 DUP2 MSTORE PUSH1 0x20 ADD PUSH2 0x1FE JUMP JUMPDEST CALLVALUE DUP1 ISZERO PUSH2 0x3BA JUMPI PUSH1 0x0 DUP1 REVERT JUMPDEST POP PUSH2 0x2BC PUSH2 0x3C9 CALLDATASIZE PUSH1 0x4 PUSH2 0x1C84 JUMP JUMPDEST PUSH2 0xBED JUMP JUMPDEST PUSH2 0x2BC PUSH2 0x3DC CALLDATASIZE PUSH1 0x4 PUSH2 0x1C84 JUMP JUMPDEST PUSH2 0xD04 JUMP JUMPDEST CALLVALUE DUP1 ISZERO PUSH2 0x3ED JUMPI PUSH1 0x0 DUP1 REVERT JUMPDEST POP PUSH2 0x2BC PUSH2 0x3FC CALLDATASIZE PUSH1 0x4 PUSH2 0x1D9C JUMP JUMPDEST PUSH2 0xE83 JUMP JUMPDEST CALLVALUE DUP1 ISZERO PUSH2 0x40D JUMPI PUSH1 0x0 DUP1 REVERT JUMPDEST POP PUSH2 0x284 PUSH2 0x41C CALLDATASIZE PUSH1 0x4 PUSH2 0x1D09 JUMP JUMPDEST PUSH2 0xEA3 JUMP JUMPDEST CALLVALUE DUP1 ISZERO PUSH2 0x42D JUMPI PUSH1 0x0 DUP1 REVERT JUMPDEST POP PUSH2 0x3A0 PUSH2 0x43C CALLDATASIZE PUSH1 0x4 PUSH2 0x1EDD JUMP JUMPDEST PUSH2 0xEAE JUMP JUMPDEST CALLVALUE DUP1 ISZERO PUSH2 0x44D JUMPI PUSH1 0x0 DUP1 REVERT JUMPDEST POP PUSH2 0x2BC PUSH2 0xEF6 JUMP JUMPDEST CALLVALUE DUP1 ISZERO PUSH2 0x462 JUMPI PUSH1 0x0 DUP1 REVERT JUMPDEST POP PUSH2 0x3A0 PUSH2 0x471 CALLDATASIZE PUSH1 0x4 PUSH2 0x1C84 JUMP JUMPDEST PUSH2 0xF0A JUMP JUMPDEST CALLVALUE DUP1 ISZERO PUSH2 0x482 JUMPI PUSH1 0x0 DUP1 REVERT JUMPDEST POP PUSH2 0x2BC PUSH2 0x491 CALLDATASIZE PUSH1 0x4 PUSH2 0x1D09 JUMP JUMPDEST PUSH2 0xF3B JUMP JUMPDEST CALLVALUE DUP1 ISZERO PUSH2 0x4A2 JUMPI PUSH1 0x0 DUP1 REVERT JUMPDEST POP PUSH1 0x6 SLOAD PUSH1 0x1 PUSH1 0x1 PUSH1 0xA0 SHL SUB AND PUSH2 0x284 JUMP JUMPDEST CALLVALUE DUP1 ISZERO PUSH2 0x4C0 JUMPI PUSH1 0x0 DUP1 REVERT JUMPDEST POP PUSH2 0x4FE PUSH2 0x4CF CALLDATASIZE PUSH1 0x4 PUSH2 0x1D09 JUMP JUMPDEST PUSH1 0x9 PUSH1 0x20 MSTORE PUSH1 0x0 SWAP1 DUP2 MSTORE PUSH1 0x40 SWAP1 KECCAK256 DUP1 SLOAD PUSH1 0x1 DUP3 ADD SLOAD PUSH1 0x2 DUP4 ADD SLOAD PUSH1 0x3 DUP5 ADD SLOAD PUSH1 0x4 SWAP1 SWAP5 ADD SLOAD SWAP3 SWAP4 SWAP2 SWAP3 SWAP1 SWAP2 SWAP1 DUP6 JUMP JUMPDEST PUSH1 0x40 DUP1 MLOAD SWAP6 DUP7 MSTORE PUSH1 0x20 DUP7 ADD SWAP5 SWAP1 SWAP5 MSTORE SWAP3 DUP5 ADD SWAP2 SWAP1 SWAP2 MSTORE PUSH1 0x60 DUP4 ADD MSTORE PUSH1 0x80 DUP3 ADD MSTORE PUSH1 0xA0 ADD PUSH2 0x1FE JUMP JUMPDEST CALLVALUE DUP1 ISZERO PUSH2 0x532 JUMPI PUSH1 0x0 DUP1 REVERT JUMPDEST POP PUSH2 0x546 PUSH2 0x541 CALLDATASIZE PUSH1 0x4 PUSH2 0x1D09 JUMP JUMPDEST PUSH2 0xFAE JUMP JUMPDEST PUSH1 0x40 MLOAD PUSH2 0x1FE SWAP12 SWAP11 SWAP10 SWAP9 SWAP8 SWAP7 SWAP6 SWAP5 SWAP4 SWAP3 SWAP2 SWAP1 PUSH2 0x1F30 JUMP JUMPDEST CALLVALUE DUP1 ISZERO PUSH2 0x569 JUMPI PUSH1 0x0 DUP1 REVERT JUMPDEST POP PUSH2 0x257 PUSH2 0x1094 JUMP JUMPDEST CALLVALUE DUP1 ISZERO PUSH2 0x57E JUMPI PUSH1 0x0 DUP1 REVERT JUMPDEST POP PUSH2 0x2BC PUSH2 0x58D CALLDATASIZE PUSH1 0x4 PUSH2 0x1FAD JUMP JUMPDEST PUSH2 0x10A3 JUMP JUMPDEST CALLVALUE DUP1 ISZERO PUSH2 0x59E JUMPI PUSH1 0x0 DUP1 REVERT JUMPDEST POP PUSH2 0x2BC PUSH2 0x5AD CALLDATASIZE PUSH1 0x4 PUSH2 0x1FE0 JUMP JUMPDEST PUSH2 0x10AE JUMP JUMPDEST CALLVALUE DUP1 ISZERO PUSH2 0x5BE JUMPI PUSH1 0x0 DUP1 REVERT JUMPDEST POP PUSH2 0x5D2 PUSH2 0x5CD CALLDATASIZE PUSH1 0x4 PUSH2 0x1D09 JUMP JUMPDEST PUSH2 0x1101 JUMP JUMPDEST PUSH1 0x40 MLOAD PUSH2 0x1FE SWAP2 SWAP1 PUSH2 0x203E JUMP JUMPDEST CALLVALUE DUP1 ISZERO PUSH2 0x5EB JUMPI PUSH1 0x0 DUP1 REVERT JUMPDEST POP PUSH2 0x2BC PUSH2 0x5FA CALLDATASIZE PUSH1 0x4 PUSH2 0x210B JUMP JUMPDEST PUSH2 0x12AB JUMP JUMPDEST CALLVALUE DUP1 ISZERO PUSH2 0x60B JUMPI PUSH1 0x0 DUP1 REVERT JUMPDEST POP PUSH2 0x257 PUSH2 0x61A CALLDATASIZE PUSH1 0x4 PUSH2 0x1D09 JUMP JUMPDEST PUSH2 0x12C3 JUMP JUMPDEST CALLVALUE DUP1 ISZERO PUSH2 0x62B JUMPI PUSH1 0x0 DUP1 REVERT JUMPDEST POP PUSH2 0x63F PUSH2 0x63A CALLDATASIZE PUSH1 0x4 PUSH2 0x1D09 JUMP JUMPDEST PUSH2 0x1338 JUMP JUMPDEST PUSH1 0x40 MLOAD PUSH2 0x1FE SWAP2 SWAP1 PUSH2 0x2187 JUMP JUMPDEST CALLVALUE DUP1 ISZERO PUSH2 0x658 JUMPI PUSH1 0x0 DUP1 REVERT JUMPDEST POP PUSH2 0x1F2 PUSH2 0x667 CALLDATASIZE PUSH1 0x4 PUSH2 0x219A JUMP JUMPDEST PUSH2 0x139A JUMP JUMPDEST CALLVALUE DUP1 ISZERO PUSH2 0x678 JUMPI PUSH1 0x0 DUP1 REVERT JUMPDEST POP PUSH2 0x2BC PUSH2 0x687 CALLDATASIZE PUSH1 0x4 PUSH2 0x1EDD JUMP JUMPDEST PUSH2 0x13C8 JUMP JUMPDEST PUSH1 0x0 PUSH1 0x1 PUSH1 0x1 PUSH1 0xE0 SHL SUB NOT DUP3 AND PUSH4 0x80AC58CD PUSH1 0xE0 SHL EQ DUP1 PUSH2 0x6BD JUMPI POP PUSH1 0x1 PUSH1 0x1 PUSH1 0xE0 SHL SUB NOT DUP3 AND PUSH4 0x5B5E139F PUSH1 0xE0 SHL EQ JUMPDEST DUP1 PUSH2 0x6D8 JUMPI POP PUSH4 0x1FFC9A7 PUSH1 0xE0 SHL PUSH1 0x1 PUSH1 0x1 PUSH1 0xE0 SHL SUB NOT DUP4 AND EQ JUMPDEST SWAP3 SWAP2 POP POP JUMP JUMPDEST PUSH1 0x60 PUSH1 0x0 DUP1 SLOAD PUSH2 0x6ED SWAP1 PUSH2 0x21C4 JUMP JUMPDEST DUP1 PUSH1 0x1F ADD PUSH1 0x20 DUP1 SWAP2 DIV MUL PUSH1 0x20 ADD PUSH1 0x40 MLOAD SWAP1 DUP2 ADD PUSH1 0x40 MSTORE DUP1 SWAP3 SWAP2 SWAP1 DUP2 DUP2 MSTORE PUSH1 0x20 ADD DUP3 DUP1 SLOAD PUSH2 0x719 SWAP1 PUSH2 0x21C4 JUMP JUMPDEST DUP1 ISZERO PUSH2 0x766 JUMPI DUP1 PUSH1 0x1F LT PUSH2 0x73B JUMPI PUSH2 0x100 DUP1 DUP4 SLOAD DIV MUL DUP4 MSTORE SWAP2 PUSH1 0x20 ADD SWAP2 PUSH2 0x766 JUMP JUMPDEST DUP3 ADD SWAP2 SWAP1 PUSH1 0x0 MSTORE PUSH1 0x20 PUSH1 0x0 KECCAK256 SWAP1 JUMPDEST DUP2 SLOAD DUP2 MSTORE SWAP1 PUSH1 0x1 ADD SWAP1 PUSH1 0x20 ADD DUP1 DUP4 GT PUSH2 0x749 JUMPI DUP3 SWAP1 SUB PUSH1 0x1F AND DUP3 ADD SWAP2 JUMPDEST POP POP POP POP POP SWAP1 POP SWAP1 JUMP JUMPDEST PUSH1 0x0 PUSH2 0x77B DUP3 PUSH2 0x1406 JUMP JUMPDEST POP PUSH1 0x0 DUP3 DUP2 MSTORE PUSH1 0x4 PUSH1 0x20 MSTORE PUSH1 0x40 SWAP1 KECCAK256 SLOAD PUSH1 0x1 PUSH1 0x1 PUSH1 0xA0 SHL SUB AND PUSH2 0x6D8 JUMP JUMPDEST PUSH2 0x7A4 DUP3 DUP3 CALLER PUSH2 0x143F JUMP JUMPDEST POP POP JUMP JUMPDEST PUSH2 0x7DA PUSH1 0x40 MLOAD DUP1 PUSH1 0xA0 ADD PUSH1 0x40 MSTORE DUP1 PUSH1 0x0 DUP2 MSTORE PUSH1 0x20 ADD PUSH1 0x0 DUP2 MSTORE PUSH1 0x20 ADD PUSH1 0x0 DUP2 MSTORE PUSH1 0x20 ADD PUSH1 0x0 DUP2 MSTORE PUSH1 0x20 ADD PUSH1 0x0 DUP2 MSTORE POP SWAP1 JUMP JUMPDEST POP PUSH1 0x0 SWAP1 DUP2 MSTORE PUSH1 0x9 PUSH1 0x20 SWAP1 DUP2 MSTORE PUSH1 0x40 SWAP2 DUP3 SWAP1 KECCAK256 DUP3 MLOAD PUSH1 0xA0 DUP2 ADD DUP5 MSTORE DUP2 SLOAD DUP2 MSTORE PUSH1 0x1 DUP3 ADD SLOAD SWAP3 DUP2 ADD SWAP3 SWAP1 SWAP3 MSTORE PUSH1 0x2 DUP2 ADD SLOAD SWAP3 DUP3 ADD SWAP3 SWAP1 SWAP3 MSTORE PUSH1 0x3 DUP3 ADD SLOAD PUSH1 0x60 DUP3 ADD MSTORE PUSH1 0x4 SWAP1 SWAP2 ADD SLOAD PUSH1 0x80 DUP3 ADD MSTORE SWAP1 JUMP JUMPDEST CALLER PUSH2 0x833 DUP4 PUSH2 0xEA3 JUMP JUMPDEST PUSH1 0x1 PUSH1 0x1 PUSH1 0xA0 SHL SUB AND EQ PUSH2 0x862 JUMPI PUSH1 0x40 MLOAD PUSH3 0x461BCD PUSH1 0xE5 SHL DUP2 MSTORE PUSH1 0x4 ADD PUSH2 0x859 SWAP1 PUSH2 0x21FE JUMP JUMPDEST PUSH1 0x40 MLOAD DUP1 SWAP2 SUB SWAP1 REVERT JUMPDEST PUSH1 0x0 SWAP2 DUP3 MSTORE PUSH1 0x8 PUSH1 0x20 MSTORE PUSH1 0x40 SWAP1 SWAP2 KECCAK256 PUSH1 0x5 ADD SSTORE JUMP JUMPDEST CALLER PUSH2 0x881 DUP4 PUSH2 0xEA3 JUMP JUMPDEST PUSH1 0x1 PUSH1 0x1 PUSH1 0xA0 SHL SUB AND EQ PUSH2 0x8A7 JUMPI PUSH1 0x40 MLOAD PUSH3 0x461BCD PUSH1 0xE5 SHL DUP2 MSTORE PUSH1 0x4 ADD PUSH2 0x859 SWAP1 PUSH2 0x21FE JUMP JUMPDEST PUSH1 0x8 PUSH1 0x0 DUP4 DUP2 MSTORE PUSH1 0x20 ADD SWAP1 DUP2 MSTORE PUSH1 0x20 ADD PUSH1 0x0 KECCAK256 PUSH1 0x4 ADD DUP2 PUSH1 0x8 DUP2 GT ISZERO PUSH2 0x8CF JUMPI PUSH2 0x8CF PUSH2 0x1EF8 JUMP JUMPDEST DUP2 SLOAD PUSH1 0x1 DUP2 DUP2 ADD DUP5 SSTORE PUSH1 0x0 SWAP4 DUP5 MSTORE PUSH1 0x20 DUP1 DUP6 KECCAK256 SWAP1 SWAP3 ADD SWAP3 SWAP1 SWAP3 SSTORE DUP5 DUP4 MSTORE PUSH1 0xA SWAP1 MSTORE PUSH1 0x40 DUP3 KECCAK256 SWAP1 SWAP2 DUP4 PUSH1 0x8 DUP2 GT ISZERO PUSH2 0x908 JUMPI PUSH2 0x908 PUSH2 0x1EF8 JUMP JUMPDEST DUP2 MSTORE PUSH1 0x20 DUP2 ADD SWAP2 SWAP1 SWAP2 MSTORE PUSH1 0x40 ADD PUSH1 0x0 KECCAK256 DUP1 SLOAD PUSH1 0xFF NOT AND SWAP2 ISZERO ISZERO SWAP2 SWAP1 SWAP2 OR SWAP1 SSTORE POP POP JUMP JUMPDEST PUSH1 0x1 PUSH1 0x1 PUSH1 0xA0 SHL SUB DUP3 AND PUSH2 0x955 JUMPI PUSH1 0x40 MLOAD PUSH4 0x32505749 PUSH1 0xE1 SHL DUP2 MSTORE PUSH1 0x0 PUSH1 0x4 DUP3 ADD MSTORE PUSH1 0x24 ADD PUSH2 0x859 JUMP JUMPDEST PUSH1 0x0 PUSH2 0x962 DUP4 DUP4 CALLER PUSH2 0x144C JUMP JUMPDEST SWAP1 POP DUP4 PUSH1 0x1 PUSH1 0x1 PUSH1 0xA0 SHL SUB AND DUP2 PUSH1 0x1 PUSH1 0x1 PUSH1 0xA0 SHL SUB AND EQ PUSH2 0x9B0 JUMPI PUSH1 0x40 MLOAD PUSH4 0x64283D7B PUSH1 0xE0 SHL DUP2 MSTORE PUSH1 0x1 PUSH1 0x1 PUSH1 0xA0 SHL SUB DUP1 DUP7 AND PUSH1 0x4 DUP4 ADD MSTORE PUSH1 0x24 DUP3 ADD DUP5 SWAP1 MSTORE DUP3 AND PUSH1 0x44 DUP3 ADD MSTORE PUSH1 0x64 ADD PUSH2 0x859 JUMP JUMPDEST POP POP POP POP JUMP JUMPDEST PUSH1 0x7 DUP1 SLOAD PUSH1 0x0 SWAP2 DUP3 PUSH2 0x9C7 DUP4 PUSH2 0x2237 JUMP JUMPDEST SWAP1 SWAP2 SSTORE POP POP PUSH1 0x7 SLOAD PUSH2 0x9D9 CALLER DUP3 PUSH2 0x1545 JUMP JUMPDEST PUSH1 0x40 MLOAD DUP1 PUSH2 0x180 ADD PUSH1 0x40 MSTORE DUP1 DUP3 DUP2 MSTORE PUSH1 0x20 ADD DUP8 DUP2 MSTORE PUSH1 0x20 ADD DUP7 DUP2 MSTORE PUSH1 0x20 ADD DUP6 PUSH1 0x5 DUP2 GT ISZERO PUSH2 0xA09 JUMPI PUSH2 0xA09 PUSH2 0x1EF8 JUMP JUMPDEST DUP2 MSTORE PUSH1 0x20 ADD PUSH1 0x0 PUSH1 0x40 MLOAD SWAP1 DUP1 DUP3 MSTORE DUP1 PUSH1 0x20 MUL PUSH1 0x20 ADD DUP3 ADD PUSH1 0x40 MSTORE DUP1 ISZERO PUSH2 0xA39 JUMPI DUP2 PUSH1 0x20 ADD PUSH1 0x20 DUP3 MUL DUP1 CALLDATASIZE DUP4 CALLDATACOPY ADD SWAP1 POP JUMPDEST POP DUP2 MSTORE PUSH1 0x20 ADD DUP5 DUP2 MSTORE PUSH1 0x20 ADD PUSH2 0x1388 DUP2 MSTORE PUSH1 0x20 ADD PUSH1 0x0 DUP2 MSTORE PUSH1 0x20 ADD PUSH1 0x0 DUP2 MSTORE PUSH1 0x20 ADD PUSH1 0x0 DUP2 MSTORE PUSH1 0x20 ADD PUSH1 0x1 ISZERO ISZERO DUP2 MSTORE PUSH1 0x20 ADD PUSH1 0x0 DUP2 MSTORE POP PUSH1 0x8 PUSH1 0x0 DUP4 DUP2 MSTORE PUSH1 0x20 ADD SWAP1 DUP2 MSTORE PUSH1 0x20 ADD PUSH1 0x0 KECCAK256 PUSH1 0x0 DUP3 ADD MLOAD DUP2 PUSH1 0x0 ADD SSTORE PUSH1 0x20 DUP3 ADD MLOAD DUP2 PUSH1 0x1 ADD SSTORE PUSH1 0x40 DUP3 ADD MLOAD DUP2 PUSH1 0x2 ADD SWAP1 DUP2 PUSH2 0xAAC SWAP2 SWAP1 PUSH2 0x2296 JUMP JUMPDEST POP PUSH1 0x60 DUP3 ADD MLOAD PUSH1 0x3 DUP3 ADD DUP1 SLOAD PUSH1 0xFF NOT AND PUSH1 0x1 DUP4 PUSH1 0x5 DUP2 GT ISZERO PUSH2 0xAD0 JUMPI PUSH2 0xAD0 PUSH2 0x1EF8 JUMP JUMPDEST MUL OR SWAP1 SSTORE POP PUSH1 0x80 DUP3 ADD MLOAD DUP1 MLOAD PUSH2 0xAF0 SWAP2 PUSH1 0x4 DUP5 ADD SWAP2 PUSH1 0x20 SWAP1 SWAP2 ADD SWAP1 PUSH2 0x1B7D JUMP JUMPDEST POP PUSH1 0xA0 DUP3 DUP2 ADD MLOAD PUSH1 0x5 DUP4 ADD SSTORE PUSH1 0xC0 DUP4 ADD MLOAD PUSH1 0x6 DUP4 ADD SSTORE PUSH1 0xE0 DUP4 ADD MLOAD PUSH1 0x7 DUP4 ADD SSTORE PUSH2 0x100 DUP4 ADD MLOAD PUSH1 0x8 DUP4 ADD SSTORE PUSH2 0x120 DUP4 ADD MLOAD PUSH1 0x9 DUP1 DUP5 ADD SWAP2 SWAP1 SWAP2 SSTORE PUSH2 0x140 DUP5 ADD MLOAD PUSH1 0xA DUP5 ADD DUP1 SLOAD PUSH1 0xFF NOT AND SWAP2 ISZERO ISZERO SWAP2 SWAP1 SWAP2 OR SWAP1 SSTORE PUSH2 0x160 SWAP1 SWAP4 ADD MLOAD PUSH1 0xB SWAP1 SWAP3 ADD SWAP2 SWAP1 SWAP2 SSTORE PUSH1 0x40 DUP1 MLOAD SWAP2 DUP3 ADD DUP2 MSTORE PUSH1 0x32 DUP1 DUP4 MSTORE PUSH1 0x20 DUP1 DUP5 ADD DUP3 DUP2 MSTORE DUP5 DUP5 ADD DUP4 DUP2 MSTORE PUSH1 0x60 DUP7 ADD DUP5 DUP2 MSTORE PUSH1 0x80 DUP8 ADD SWAP5 DUP6 MSTORE PUSH1 0x0 DUP10 DUP2 MSTORE SWAP8 SWAP1 SWAP4 MSTORE SWAP6 DUP5 SWAP1 KECCAK256 SWAP5 MLOAD DUP6 SSTORE MLOAD PUSH1 0x1 DUP6 ADD SSTORE SWAP4 MLOAD PUSH1 0x2 DUP5 ADD SSTORE SWAP3 MLOAD PUSH1 0x3 DUP4 ADD SSTORE SWAP2 MLOAD PUSH1 0x4 SWAP1 SWAP2 ADD SSTORE MLOAD DUP7 SWAP1 DUP3 SWAP1 PUSH32 0xF91E533914A19210C2CE8A73018C84BC2AA498C6ADDB8C30324CB902715BF838 SWAP1 PUSH2 0xBDC SWAP1 DUP10 SWAP1 PUSH2 0x1CF6 JUMP JUMPDEST PUSH1 0x40 MLOAD DUP1 SWAP2 SUB SWAP1 LOG3 SWAP6 SWAP5 POP POP POP POP POP JUMP JUMPDEST PUSH1 0x64 DUP2 GT ISZERO PUSH2 0xC30 JUMPI PUSH1 0x40 MLOAD PUSH3 0x461BCD PUSH1 0xE5 SHL DUP2 MSTORE PUSH1 0x20 PUSH1 0x4 DUP3 ADD MSTORE PUSH1 0xF PUSH1 0x24 DUP3 ADD MSTORE PUSH15 0xA4C2E8D2DCCE40E8DEDE40D0D2CED PUSH1 0x8B SHL PUSH1 0x44 DUP3 ADD MSTORE PUSH1 0x64 ADD PUSH2 0x859 JUMP JUMPDEST PUSH1 0x0 DUP3 DUP2 MSTORE PUSH1 0x8 PUSH1 0x20 MSTORE PUSH1 0x40 SWAP1 KECCAK256 PUSH1 0x7 DUP2 ADD SLOAD PUSH2 0xC4E DUP2 PUSH1 0x1 PUSH2 0x2356 JUMP JUMPDEST PUSH2 0xC59 DUP5 PUSH1 0x64 PUSH2 0x2369 JUMP JUMPDEST DUP3 DUP5 PUSH1 0x6 ADD SLOAD PUSH2 0xC69 SWAP2 SWAP1 PUSH2 0x2369 JUMP JUMPDEST PUSH2 0xC73 SWAP2 SWAP1 PUSH2 0x2356 JUMP JUMPDEST PUSH2 0xC7D SWAP2 SWAP1 PUSH2 0x2380 JUMP JUMPDEST PUSH1 0x6 DUP4 ADD SSTORE PUSH1 0x0 DUP5 DUP2 MSTORE PUSH1 0x9 PUSH1 0x20 MSTORE PUSH1 0x40 SWAP1 KECCAK256 PUSH1 0x50 DUP5 GT ISZERO PUSH2 0xCC3 JUMPI PUSH2 0xCA8 DUP2 PUSH1 0x2 ADD SLOAD PUSH1 0x2 PUSH2 0x155F JUMP JUMPDEST PUSH1 0x2 DUP3 ADD SSTORE PUSH1 0x3 DUP2 ADD SLOAD PUSH2 0xCBD SWAP1 PUSH1 0x1 PUSH2 0x155F JUMP JUMPDEST PUSH1 0x3 DUP3 ADD SSTORE JUMPDEST DUP5 PUSH32 0x8EA6E5B3A7943E8A6ECA98783EAC52E7E1743540B7AF3A93C2AFAB441F3422D6 DUP6 PUSH1 0x40 MLOAD PUSH2 0xCF5 SWAP2 DUP2 MSTORE PUSH1 0x20 ADD SWAP1 JUMP JUMPDEST PUSH1 0x40 MLOAD DUP1 SWAP2 SUB SWAP1 LOG2 POP POP POP POP POP JUMP JUMPDEST PUSH1 0x0 DUP3 DUP2 MSTORE PUSH1 0x8 PUSH1 0x20 MSTORE PUSH1 0x40 SWAP1 KECCAK256 PUSH1 0xA DUP2 ADD SLOAD PUSH1 0xFF AND PUSH2 0xD5C JUMPI PUSH1 0x40 MLOAD PUSH3 0x461BCD PUSH1 0xE5 SHL DUP2 MSTORE PUSH1 0x20 PUSH1 0x4 DUP3 ADD MSTORE PUSH1 0x13 PUSH1 0x24 DUP3 ADD MSTORE PUSH19 0x4163746F72206E6F7420617661696C61626C65 PUSH1 0x68 SHL PUSH1 0x44 DUP3 ADD MSTORE PUSH1 0x64 ADD PUSH2 0x859 JUMP JUMPDEST DUP1 PUSH1 0x5 ADD SLOAD CALLVALUE LT ISZERO PUSH2 0xDA7 JUMPI PUSH1 0x40 MLOAD PUSH3 0x461BCD PUSH1 0xE5 SHL DUP2 MSTORE PUSH1 0x20 PUSH1 0x4 DUP3 ADD MSTORE PUSH1 0x14 PUSH1 0x24 DUP3 ADD MSTORE PUSH20 0x125B9CDD59999A58DA595B9D081C185E5B595B9D PUSH1 0x62 SHL PUSH1 0x44 DUP3 ADD MSTORE PUSH1 0x64 ADD PUSH2 0x859 JUMP JUMPDEST PUSH1 0x7 DUP2 ADD DUP1 SLOAD SWAP1 PUSH1 0x0 PUSH2 0xDB9 DUP4 PUSH2 0x2237 JUMP JUMPDEST SWAP2 SWAP1 POP SSTORE POP CALLVALUE DUP2 PUSH1 0x9 ADD PUSH1 0x0 DUP3 DUP3 SLOAD PUSH2 0xDD2 SWAP2 SWAP1 PUSH2 0x2356 JUMP JUMPDEST SWAP1 SWAP2 SSTORE POP POP TIMESTAMP PUSH1 0xB DUP1 DUP4 ADD SWAP2 SWAP1 SWAP2 SSTORE PUSH1 0x0 DUP5 DUP2 MSTORE PUSH1 0x20 SWAP2 DUP3 MSTORE PUSH1 0x40 DUP2 KECCAK256 DUP1 SLOAD PUSH1 0x1 DUP2 ADD DUP3 SSTORE SWAP1 DUP3 MSTORE SWAP2 SWAP1 KECCAK256 ADD DUP3 SWAP1 SSTORE PUSH2 0xE0A DUP4 PUSH2 0xEA3 JUMP JUMPDEST PUSH1 0x1 PUSH1 0x1 PUSH1 0xA0 SHL SUB AND PUSH2 0x8FC CALLVALUE SWAP1 DUP2 ISZERO MUL SWAP1 PUSH1 0x40 MLOAD PUSH1 0x0 PUSH1 0x40 MLOAD DUP1 DUP4 SUB DUP2 DUP6 DUP9 DUP9 CALL SWAP4 POP POP POP POP ISZERO DUP1 ISZERO PUSH2 0xE42 JUMPI RETURNDATASIZE PUSH1 0x0 DUP1 RETURNDATACOPY RETURNDATASIZE PUSH1 0x0 REVERT JUMPDEST POP DUP2 DUP4 PUSH32 0xF58DF15879E6B0580D1A1994B49EB8F222C468D3FAE932AD01FF47E9A1FC9ECF CALLVALUE PUSH1 0x40 MLOAD PUSH2 0xE76 SWAP2 DUP2 MSTORE PUSH1 0x20 ADD SWAP1 JUMP JUMPDEST PUSH1 0x40 MLOAD DUP1 SWAP2 SUB SWAP1 LOG3 POP POP POP JUMP JUMPDEST PUSH2 0xE9E DUP4 DUP4 DUP4 PUSH1 0x40 MLOAD DUP1 PUSH1 0x20 ADD PUSH1 0x40 MSTORE DUP1 PUSH1 0x0 DUP2 MSTORE POP PUSH2 0x12AB JUMP JUMPDEST POP POP POP JUMP JUMPDEST PUSH1 0x0 PUSH2 0x6D8 DUP3 PUSH2 0x1406 JUMP JUMPDEST PUSH1 0x0 PUSH1 0x1 PUSH1 0x1 PUSH1 0xA0 SHL SUB DUP3 AND PUSH2 0xEDA JUMPI PUSH1 0x40 MLOAD PUSH4 0x22718AD9 PUSH1 0xE2 SHL DUP2 MSTORE PUSH1 0x0 PUSH1 0x4 DUP3 ADD MSTORE PUSH1 0x24 ADD PUSH2 0x859 JUMP JUMPDEST POP PUSH1 0x1 PUSH1 0x1 PUSH1 0xA0 SHL SUB AND PUSH1 0x0 SWAP1 DUP2 MSTORE PUSH1 0x3 PUSH1 0x20 MSTORE PUSH1 0x40 SWAP1 KECCAK256 SLOAD SWAP1 JUMP JUMPDEST PUSH2 0xEFE PUSH2 0x1587 JUMP JUMPDEST PUSH2 0xF08 PUSH1 0x0 PUSH2 0x15B4 JUMP JUMPDEST JUMP JUMPDEST PUSH1 0xB PUSH1 0x20 MSTORE DUP2 PUSH1 0x0 MSTORE PUSH1 0x40 PUSH1 0x0 KECCAK256 DUP2 DUP2 SLOAD DUP2 LT PUSH2 0xF26 JUMPI PUSH1 0x0 DUP1 REVERT JUMPDEST SWAP1 PUSH1 0x0 MSTORE PUSH1 0x20 PUSH1 0x0 KECCAK256 ADD PUSH1 0x0 SWAP2 POP SWAP2 POP POP SLOAD DUP2 JUMP JUMPDEST CALLER PUSH2 0xF45 DUP3 PUSH2 0xEA3 JUMP JUMPDEST PUSH1 0x1 PUSH1 0x1 PUSH1 0xA0 SHL SUB AND EQ PUSH2 0xF6B JUMPI PUSH1 0x40 MLOAD PUSH3 0x461BCD PUSH1 0xE5 SHL DUP2 MSTORE PUSH1 0x4 ADD PUSH2 0x859 SWAP1 PUSH2 0x21FE JUMP JUMPDEST PUSH1 0x0 DUP2 DUP2 MSTORE PUSH1 0x8 PUSH1 0x20 MSTORE PUSH1 0x40 DUP1 DUP3 KECCAK256 PUSH1 0xA ADD DUP1 SLOAD PUSH1 0xFF NOT AND SWAP1 SSTORE MLOAD DUP3 SWAP2 PUSH32 0x94E42C1B45262C58289065C7727DB4FCA905F4B50A1DB46446379F91A189A81 SWAP2 LOG2 POP JUMP JUMPDEST PUSH1 0x8 PUSH1 0x20 MSTORE PUSH1 0x0 SWAP1 DUP2 MSTORE PUSH1 0x40 SWAP1 KECCAK256 DUP1 SLOAD PUSH1 0x1 DUP3 ADD SLOAD PUSH1 0x2 DUP4 ADD DUP1 SLOAD SWAP3 SWAP4 SWAP2 SWAP3 PUSH2 0xFD6 SWAP1 PUSH2 0x21C4 JUMP JUMPDEST DUP1 PUSH1 0x1F ADD PUSH1 0x20 DUP1 SWAP2 DIV MUL PUSH1 0x20 ADD PUSH1 0x40 MLOAD SWAP1 DUP2 ADD PUSH1 0x40 MSTORE DUP1 SWAP3 SWAP2 SWAP1 DUP2 DUP2 MSTORE PUSH1 0x20 ADD DUP3 DUP1 SLOAD PUSH2 0x1002 SWAP1 PUSH2 0x21C4 JUMP JUMPDEST DUP1 ISZERO PUSH2 0x104F JUMPI DUP1 PUSH1 0x1F LT PUSH2 0x1024 JUMPI PUSH2 0x100 DUP1 DUP4 SLOAD DIV MUL DUP4 MSTORE SWAP2 PUSH1 0x20 ADD SWAP2 PUSH2 0x104F JUMP JUMPDEST DUP3 ADD SWAP2 SWAP1 PUSH1 0x0 MSTORE PUSH1 0x20 PUSH1 0x0 KECCAK256 SWAP1 JUMPDEST DUP2 SLOAD DUP2 MSTORE SWAP1 PUSH1 0x1 ADD SWAP1 PUSH1 0x20 ADD DUP1 DUP4 GT PUSH2 0x1032 JUMPI DUP3 SWAP1 SUB PUSH1 0x1F AND DUP3 ADD SWAP2 JUMPDEST POP POP POP PUSH1 0x3 DUP5 ADD SLOAD PUSH1 0x5 DUP6 ADD SLOAD PUSH1 0x6 DUP7 ADD SLOAD PUSH1 0x7 DUP8 ADD SLOAD PUSH1 0x8 DUP9 ADD SLOAD PUSH1 0x9 DUP10 ADD SLOAD PUSH1 0xA DUP11 ADD SLOAD PUSH1 0xB SWAP1 SWAP11 ADD SLOAD SWAP9 SWAP10 PUSH1 0xFF SWAP7 DUP8 AND SWAP10 SWAP6 SWAP9 POP SWAP4 SWAP7 POP SWAP2 SWAP5 SWAP1 SWAP4 SWAP2 SWAP3 AND SWAP1 DUP12 JUMP JUMPDEST PUSH1 0x60 PUSH1 0x1 DUP1 SLOAD PUSH2 0x6ED SWAP1 PUSH2 0x21C4 JUMP JUMPDEST PUSH2 0x7A4 CALLER DUP4 DUP4 PUSH2 0x1606 JUMP JUMPDEST CALLER PUSH2 0x10B8 DUP4 PUSH2 0xEA3 JUMP JUMPDEST PUSH1 0x1 PUSH1 0x1 PUSH1 0xA0 SHL SUB AND EQ PUSH2 0x10DE JUMPI PUSH1 0x40 MLOAD PUSH3 0x461BCD PUSH1 0xE5 SHL DUP2 MSTORE PUSH1 0x4 ADD PUSH2 0x859 SWAP1 PUSH2 0x21FE JUMP JUMPDEST PUSH1 0x0 SWAP2 DUP3 MSTORE PUSH1 0x8 PUSH1 0x20 MSTORE PUSH1 0x40 SWAP1 SWAP2 KECCAK256 PUSH1 0xA ADD DUP1 SLOAD PUSH1 0xFF NOT AND SWAP2 ISZERO ISZERO SWAP2 SWAP1 SWAP2 OR SWAP1 SSTORE JUMP JUMPDEST PUSH2 0x1109 PUSH2 0x1BC8 JUMP JUMPDEST PUSH1 0x8 PUSH1 0x0 DUP4 DUP2 MSTORE PUSH1 0x20 ADD SWAP1 DUP2 MSTORE PUSH1 0x20 ADD PUSH1 0x0 KECCAK256 PUSH1 0x40 MLOAD DUP1 PUSH2 0x180 ADD PUSH1 0x40 MSTORE SWAP1 DUP2 PUSH1 0x0 DUP3 ADD SLOAD DUP2 MSTORE PUSH1 0x20 ADD PUSH1 0x1 DUP3 ADD SLOAD DUP2 MSTORE PUSH1 0x20 ADD PUSH1 0x2 DUP3 ADD DUP1 SLOAD PUSH2 0x114C SWAP1 PUSH2 0x21C4 JUMP JUMPDEST DUP1 PUSH1 0x1F ADD PUSH1 0x20 DUP1 SWAP2 DIV MUL PUSH1 0x20 ADD PUSH1 0x40 MLOAD SWAP1 DUP2 ADD PUSH1 0x40 MSTORE DUP1 SWAP3 SWAP2 SWAP1 DUP2 DUP2 MSTORE PUSH1 0x20 ADD DUP3 DUP1 SLOAD PUSH2 0x1178 SWAP1 PUSH2 0x21C4 JUMP JUMPDEST DUP1 ISZERO PUSH2 0x11C5 JUMPI DUP1 PUSH1 0x1F LT PUSH2 0x119A JUMPI PUSH2 0x100 DUP1 DUP4 SLOAD DIV MUL DUP4 MSTORE SWAP2 PUSH1 0x20 ADD SWAP2 PUSH2 0x11C5 JUMP JUMPDEST DUP3 ADD SWAP2 SWAP1 PUSH1 0x0 MSTORE PUSH1 0x20 PUSH1 0x0 KECCAK256 SWAP1 JUMPDEST DUP2 SLOAD DUP2 MSTORE SWAP1 PUSH1 0x1 ADD SWAP1 PUSH1 0x20 ADD DUP1 DUP4 GT PUSH2 0x11A8 JUMPI DUP3 SWAP1 SUB PUSH1 0x1F AND DUP3 ADD SWAP2 JUMPDEST POP POP POP SWAP2 DUP4 MSTORE POP POP PUSH1 0x3 DUP3 ADD SLOAD PUSH1 0x20 SWAP1 SWAP2 ADD SWAP1 PUSH1 0xFF AND PUSH1 0x5 DUP2 GT ISZERO PUSH2 0x11EC JUMPI PUSH2 0x11EC PUSH2 0x1EF8 JUMP JUMPDEST PUSH1 0x5 DUP2 GT ISZERO PUSH2 0x11FD JUMPI PUSH2 0x11FD PUSH2 0x1EF8 JUMP JUMPDEST DUP2 MSTORE PUSH1 0x20 ADD PUSH1 0x4 DUP3 ADD DUP1 SLOAD DUP1 PUSH1 0x20 MUL PUSH1 0x20 ADD PUSH1 0x40 MLOAD SWAP1 DUP2 ADD PUSH1 0x40 MSTORE DUP1 SWAP3 SWAP2 SWAP1 DUP2 DUP2 MSTORE PUSH1 0x20 ADD DUP3 DUP1 SLOAD DUP1 ISZERO PUSH2 0x1250 JUMPI PUSH1 0x20 MUL DUP3 ADD SWAP2 SWAP1 PUSH1 0x0 MSTORE PUSH1 0x20 PUSH1 0x0 KECCAK256 SWAP1 JUMPDEST DUP2 SLOAD DUP2 MSTORE PUSH1 0x20 ADD SWAP1 PUSH1 0x1 ADD SWAP1 DUP1 DUP4 GT PUSH2 0x123C JUMPI JUMPDEST POP POP POP SWAP2 DUP4 MSTORE POP POP PUSH1 0x5 DUP3 ADD SLOAD PUSH1 0x20 DUP3 ADD MSTORE PUSH1 0x6 DUP3 ADD SLOAD PUSH1 0x40 DUP3 ADD MSTORE PUSH1 0x7 DUP3 ADD SLOAD PUSH1 0x60 DUP3 ADD MSTORE PUSH1 0x8 DUP3 ADD SLOAD PUSH1 0x80 DUP3 ADD MSTORE PUSH1 0x9 DUP3 ADD SLOAD PUSH1 0xA0 DUP3 ADD MSTORE PUSH1 0xA DUP3 ADD SLOAD PUSH1 0xFF AND ISZERO ISZERO PUSH1 0xC0 DUP3 ADD MSTORE PUSH1 0xB SWAP1 SWAP2 ADD SLOAD PUSH1 0xE0 SWAP1 SWAP2 ADD MSTORE SWAP3 SWAP2 POP POP JUMP JUMPDEST PUSH2 0x12B6 DUP5 DUP5 DUP5 PUSH2 0x92B JUMP JUMPDEST PUSH2 0x9B0 CALLER DUP6 DUP6 DUP6 DUP6 PUSH2 0x169D JUMP JUMPDEST PUSH1 0x60 PUSH2 0x12CE DUP3 PUSH2 0x1406 JUMP JUMPDEST POP PUSH1 0x0 PUSH2 0x12E6 PUSH1 0x40 DUP1 MLOAD PUSH1 0x20 DUP2 ADD SWAP1 SWAP2 MSTORE PUSH1 0x0 DUP2 MSTORE SWAP1 JUMP JUMPDEST SWAP1 POP PUSH1 0x0 DUP2 MLOAD GT PUSH2 0x1306 JUMPI PUSH1 0x40 MLOAD DUP1 PUSH1 0x20 ADD PUSH1 0x40 MSTORE DUP1 PUSH1 0x0 DUP2 MSTORE POP PUSH2 0x1331 JUMP JUMPDEST DUP1 PUSH2 0x1310 DUP5 PUSH2 0x17C8 JUMP JUMPDEST PUSH1 0x40 MLOAD PUSH1 0x20 ADD PUSH2 0x1321 SWAP3 SWAP2 SWAP1 PUSH2 0x23A2 JUMP JUMPDEST PUSH1 0x40 MLOAD PUSH1 0x20 DUP2 DUP4 SUB SUB DUP2 MSTORE SWAP1 PUSH1 0x40 MSTORE JUMPDEST SWAP4 SWAP3 POP POP POP JUMP JUMPDEST PUSH1 0x0 DUP2 DUP2 MSTORE PUSH1 0xB PUSH1 0x20 SWAP1 DUP2 MSTORE PUSH1 0x40 SWAP2 DUP3 SWAP1 KECCAK256 DUP1 SLOAD DUP4 MLOAD DUP2 DUP5 MUL DUP2 ADD DUP5 ADD SWAP1 SWAP5 MSTORE DUP1 DUP5 MSTORE PUSH1 0x60 SWAP4 SWAP3 DUP4 ADD DUP3 DUP3 DUP1 ISZERO PUSH2 0x138E JUMPI PUSH1 0x20 MUL DUP3 ADD SWAP2 SWAP1 PUSH1 0x0 MSTORE PUSH1 0x20 PUSH1 0x0 KECCAK256 SWAP1 JUMPDEST DUP2 SLOAD DUP2 MSTORE PUSH1 0x20 ADD SWAP1 PUSH1 0x1 ADD SWAP1 DUP1 DUP4 GT PUSH2 0x137A JUMPI JUMPDEST POP POP POP POP POP SWAP1 POP SWAP2 SWAP1 POP JUMP JUMPDEST PUSH1 0x1 PUSH1 0x1 PUSH1 0xA0 SHL SUB SWAP2 DUP3 AND PUSH1 0x0 SWAP1 DUP2 MSTORE PUSH1 0x5 PUSH1 0x20 SWAP1 DUP2 MSTORE PUSH1 0x40 DUP1 DUP4 KECCAK256 SWAP4 SWAP1 SWAP5 AND DUP3 MSTORE SWAP2 SWAP1 SWAP2 MSTORE KECCAK256 SLOAD PUSH1 0xFF AND SWAP1 JUMP JUMPDEST PUSH2 0x13D0 PUSH2 0x1587 JUMP JUMPDEST PUSH1 0x1 PUSH1 0x1 PUSH1 0xA0 SHL SUB DUP2 AND PUSH2 0x13FA JUMPI PUSH1 0x40 MLOAD PUSH4 0x1E4FBDF7 PUSH1 0xE0 SHL DUP2 MSTORE PUSH1 0x0 PUSH1 0x4 DUP3 ADD MSTORE PUSH1 0x24 ADD PUSH2 0x859 JUMP JUMPDEST PUSH2 0x1403 DUP2 PUSH2 0x15B4 JUMP JUMPDEST POP JUMP JUMPDEST PUSH1 0x0 DUP2 DUP2 MSTORE PUSH1 0x2 PUSH1 0x20 MSTORE PUSH1 0x40 DUP2 KECCAK256 SLOAD PUSH1 0x1 PUSH1 0x1 PUSH1 0xA0 SHL SUB AND DUP1 PUSH2 0x6D8 JUMPI PUSH1 0x40 MLOAD PUSH4 0x7E273289 PUSH1 0xE0 SHL DUP2 MSTORE PUSH1 0x4 DUP2 ADD DUP5 SWAP1 MSTORE PUSH1 0x24 ADD PUSH2 0x859 JUMP JUMPDEST PUSH2 0xE9E DUP4 DUP4 DUP4 PUSH1 0x1 PUSH2 0x185B JUMP JUMPDEST PUSH1 0x0 DUP3 DUP2 MSTORE PUSH1 0x2 PUSH1 0x20 MSTORE PUSH1 0x40 DUP2 KECCAK256 SLOAD PUSH1 0x1 PUSH1 0x1 PUSH1 0xA0 SHL SUB SWAP1 DUP2 AND SWAP1 DUP4 AND ISZERO PUSH2 0x1479 JUMPI PUSH2 0x1479 DUP2 DUP5 DUP7 PUSH2 0x1961 JUMP JUMPDEST PUSH1 0x1 PUSH1 0x1 PUSH1 0xA0 SHL SUB DUP2 AND ISZERO PUSH2 0x14B7 JUMPI PUSH2 0x1496 PUSH1 0x0 DUP6 PUSH1 0x0 DUP1 PUSH2 0x185B JUMP JUMPDEST PUSH1 0x1 PUSH1 0x1 PUSH1 0xA0 SHL SUB DUP2 AND PUSH1 0x0 SWAP1 DUP2 MSTORE PUSH1 0x3 PUSH1 0x20 MSTORE PUSH1 0x40 SWAP1 KECCAK256 DUP1 SLOAD PUSH1 0x0 NOT ADD SWAP1 SSTORE JUMPDEST PUSH1 0x1 PUSH1 0x1 PUSH1 0xA0 SHL SUB DUP6 AND ISZERO PUSH2 0x14E6 JUMPI PUSH1 0x1 PUSH1 0x1 PUSH1 0xA0 SHL SUB DUP6 AND PUSH1 0x0 SWAP1 DUP2 MSTORE PUSH1 0x3 PUSH1 0x20 MSTORE PUSH1 0x40 SWAP1 KECCAK256 DUP1 SLOAD PUSH1 0x1 ADD SWAP1 SSTORE JUMPDEST PUSH1 0x0 DUP5 DUP2 MSTORE PUSH1 0x2 PUSH1 0x20 MSTORE PUSH1 0x40 DUP1 DUP3 KECCAK256 DUP1 SLOAD PUSH1 0x1 PUSH1 0x1 PUSH1 0xA0 SHL SUB NOT AND PUSH1 0x1 PUSH1 0x1 PUSH1 0xA0 SHL SUB DUP10 DUP2 AND SWAP2 DUP3 OR SWAP1 SWAP3 SSTORE SWAP2 MLOAD DUP8 SWAP4 SWAP2 DUP6 AND SWAP2 PUSH32 0xDDF252AD1BE2C89B69C2B068FC378DAA952BA7F163C4A11628F55A4DF523B3EF SWAP2 LOG4 SWAP5 SWAP4 POP POP POP POP JUMP JUMPDEST PUSH2 0x7A4 DUP3 DUP3 PUSH1 0x40 MLOAD DUP1 PUSH1 0x20 ADD PUSH1 0x40 MSTORE DUP1 PUSH1 0x0 DUP2 MSTORE POP PUSH2 0x19C5 JUMP JUMPDEST PUSH1 0x0 DUP1 PUSH2 0x156C DUP4 DUP6 PUSH2 0x2356 JUMP JUMPDEST SWAP1 POP PUSH1 0x64 DUP2 GT PUSH2 0x157C JUMPI DUP1 PUSH2 0x157F JUMP JUMPDEST PUSH1 0x64 JUMPDEST SWAP5 SWAP4 POP POP POP POP JUMP JUMPDEST PUSH1 0x6 SLOAD PUSH1 0x1 PUSH1 0x1 PUSH1 0xA0 SHL SUB AND CALLER EQ PUSH2 0xF08 JUMPI PUSH1 0x40 MLOAD PUSH4 0x118CDAA7 PUSH1 0xE0 SHL DUP2 MSTORE CALLER PUSH1 0x4 DUP3 ADD MSTORE PUSH1 0x24 ADD PUSH2 0x859 JUMP JUMPDEST PUSH1 0x6 DUP1 SLOAD PUSH1 0x1 PUSH1 0x1 PUSH1 0xA0 SHL SUB DUP4 DUP2 AND PUSH1 0x1 PUSH1 0x1 PUSH1 0xA0 SHL SUB NOT DUP4 AND DUP2 OR SWAP1 SWAP4 SSTORE PUSH1 0x40 MLOAD SWAP2 AND SWAP2 SWAP1 DUP3 SWAP1 PUSH32 0x8BE0079C531659141344CD1FD0A4F28419497F9722A3DAAFE3B4186F6B6457E0 SWAP1 PUSH1 0x0 SWAP1 LOG3 POP POP JUMP JUMPDEST PUSH1 0x1 PUSH1 0x1 PUSH1 0xA0 SHL SUB DUP3 AND PUSH2 0x1638 JUMPI PUSH1 0x40 MLOAD PUSH4 0xB611743 PUSH1 0xE3 SHL DUP2 MSTORE PUSH1 0x1 PUSH1 0x1 PUSH1 0xA0 SHL SUB DUP4 AND PUSH1 0x4 DUP3 ADD MSTORE PUSH1 0x24 ADD PUSH2 0x859 JUMP JUMPDEST PUSH1 0x1 PUSH1 0x1 PUSH1 0xA0 SHL SUB DUP4 DUP2 AND PUSH1 0x0 DUP2 DUP2 MSTORE PUSH1 0x5 PUSH1 0x20 SWAP1 DUP2 MSTORE PUSH1 0x40 DUP1 DUP4 KECCAK256 SWAP5 DUP8 AND DUP1 DUP5 MSTORE SWAP5 DUP3 MSTORE SWAP2 DUP3 SWAP1 KECCAK256 DUP1 SLOAD PUSH1 0xFF NOT AND DUP7 ISZERO ISZERO SWAP1 DUP2 OR SWAP1 SWAP2 SSTORE SWAP2 MLOAD SWAP2 DUP3 MSTORE PUSH32 0x17307EAB39AB6107E8899845AD3D59BD9653F200F220920489CA2B5937696C31 SWAP2 ADD PUSH2 0xE76 JUMP JUMPDEST PUSH1 0x1 PUSH1 0x1 PUSH1 0xA0 SHL SUB DUP4 AND EXTCODESIZE ISZERO PUSH2 0x17C1 JUMPI PUSH1 0x40 MLOAD PUSH4 0xA85BD01 PUSH1 0xE1 SHL DUP2 MSTORE PUSH1 0x1 PUSH1 0x1 PUSH1 0xA0 SHL SUB DUP5 AND SWAP1 PUSH4 0x150B7A02 SWAP1 PUSH2 0x16DF SWAP1 DUP9 SWAP1 DUP9 SWAP1 DUP8 SWAP1 DUP8 SWAP1 PUSH1 0x4 ADD PUSH2 0x23D1 JUMP JUMPDEST PUSH1 0x20 PUSH1 0x40 MLOAD DUP1 DUP4 SUB DUP2 PUSH1 0x0 DUP8 GAS CALL SWAP3 POP POP POP DUP1 ISZERO PUSH2 0x171A JUMPI POP PUSH1 0x40 DUP1 MLOAD PUSH1 0x1F RETURNDATASIZE SWAP1 DUP2 ADD PUSH1 0x1F NOT AND DUP3 ADD SWAP1 SWAP3 MSTORE PUSH2 0x1717 SWAP2 DUP2 ADD SWAP1 PUSH2 0x240E JUMP JUMPDEST PUSH1 0x1 JUMPDEST PUSH2 0x1783 JUMPI RETURNDATASIZE DUP1 DUP1 ISZERO PUSH2 0x1748 JUMPI PUSH1 0x40 MLOAD SWAP2 POP PUSH1 0x1F NOT PUSH1 0x3F RETURNDATASIZE ADD AND DUP3 ADD PUSH1 0x40 MSTORE RETURNDATASIZE DUP3 MSTORE RETURNDATASIZE PUSH1 0x0 PUSH1 0x20 DUP5 ADD RETURNDATACOPY PUSH2 0x174D JUMP JUMPDEST PUSH1 0x60 SWAP2 POP JUMPDEST POP DUP1 MLOAD PUSH1 0x0 SUB PUSH2 0x177B JUMPI PUSH1 0x40 MLOAD PUSH4 0x32505749 PUSH1 0xE1 SHL DUP2 MSTORE PUSH1 0x1 PUSH1 0x1 PUSH1 0xA0 SHL SUB DUP6 AND PUSH1 0x4 DUP3 ADD MSTORE PUSH1 0x24 ADD PUSH2 0x859 JUMP JUMPDEST DUP1 MLOAD PUSH1 0x20 DUP3 ADD REVERT JUMPDEST PUSH1 0x1 PUSH1 0x1 PUSH1 0xE0 SHL SUB NOT DUP2 AND PUSH4 0xA85BD01 PUSH1 0xE1 SHL EQ PUSH2 0x17BF JUMPI PUSH1 0x40 MLOAD PUSH4 0x32505749 PUSH1 0xE1 SHL DUP2 MSTORE PUSH1 0x1 PUSH1 0x1 PUSH1 0xA0 SHL SUB DUP6 AND PUSH1 0x4 DUP3 ADD MSTORE PUSH1 0x24 ADD PUSH2 0x859 JUMP JUMPDEST POP JUMPDEST POP POP POP POP POP JUMP JUMPDEST PUSH1 0x60 PUSH1 0x0 PUSH2 0x17D5 DUP4 PUSH2 0x19DD JUMP JUMPDEST PUSH1 0x1 ADD SWAP1 POP PUSH1 0x0 DUP2 PUSH8 0xFFFFFFFFFFFFFFFF DUP2 GT ISZERO PUSH2 0x17F5 JUMPI PUSH2 0x17F5 PUSH2 0x1DD8 JUMP JUMPDEST PUSH1 0x40 MLOAD SWAP1 DUP1 DUP3 MSTORE DUP1 PUSH1 0x1F ADD PUSH1 0x1F NOT AND PUSH1 0x20 ADD DUP3 ADD PUSH1 0x40 MSTORE DUP1 ISZERO PUSH2 0x181F JUMPI PUSH1 0x20 DUP3 ADD DUP2 DUP1 CALLDATASIZE DUP4 CALLDATACOPY ADD SWAP1 POP JUMPDEST POP SWAP1 POP DUP2 DUP2 ADD PUSH1 0x20 ADD JUMPDEST PUSH1 0x0 NOT ADD PUSH16 0x181899199A1A9B1B9C1CB0B131B232B3 PUSH1 0x81 SHL PUSH1 0xA DUP7 MOD BYTE DUP2 MSTORE8 PUSH1 0xA DUP6 DIV SWAP5 POP DUP5 PUSH2 0x1829 JUMPI POP SWAP4 SWAP3 POP POP POP JUMP JUMPDEST DUP1 DUP1 PUSH2 0x186F JUMPI POP PUSH1 0x1 PUSH1 0x1 PUSH1 0xA0 SHL SUB DUP3 AND ISZERO ISZERO JUMPDEST ISZERO PUSH2 0x1931 JUMPI PUSH1 0x0 PUSH2 0x187F DUP5 PUSH2 0x1406 JUMP JUMPDEST SWAP1 POP PUSH1 0x1 PUSH1 0x1 PUSH1 0xA0 SHL SUB DUP4 AND ISZERO DUP1 ISZERO SWAP1 PUSH2 0x18AB JUMPI POP DUP3 PUSH1 0x1 PUSH1 0x1 PUSH1 0xA0 SHL SUB AND DUP2 PUSH1 0x1 PUSH1 0x1 PUSH1 0xA0 SHL SUB AND EQ ISZERO JUMPDEST DUP1 ISZERO PUSH2 0x18BE JUMPI POP PUSH2 0x18BC DUP2 DUP5 PUSH2 0x139A JUMP JUMPDEST ISZERO JUMPDEST ISZERO PUSH2 0x18E7 JUMPI PUSH1 0x40 MLOAD PUSH4 0xA9FBF51F PUSH1 0xE0 SHL DUP2 MSTORE PUSH1 0x1 PUSH1 0x1 PUSH1 0xA0 SHL SUB DUP5 AND PUSH1 0x4 DUP3 ADD MSTORE PUSH1 0x24 ADD PUSH2 0x859 JUMP JUMPDEST DUP2 ISZERO PUSH2 0x192F JUMPI DUP4 DUP6 PUSH1 0x1 PUSH1 0x1 PUSH1 0xA0 SHL SUB AND DUP3 PUSH1 0x1 PUSH1 0x1 PUSH1 0xA0 SHL SUB AND PUSH32 0x8C5BE1E5EBEC7D5BD14F71427D1E84F3DD0314C0F7B2291E5B200AC8C7C3B925 PUSH1 0x40 MLOAD PUSH1 0x40 MLOAD DUP1 SWAP2 SUB SWAP1 LOG4 JUMPDEST POP JUMPDEST POP POP PUSH1 0x0 SWAP1 DUP2 MSTORE PUSH1 0x4 PUSH1 0x20 MSTORE PUSH1 0x40 SWAP1 KECCAK256 DUP1 SLOAD PUSH1 0x1 PUSH1 0x1 PUSH1 0xA0 SHL SUB NOT AND PUSH1 0x1 PUSH1 0x1 PUSH1 0xA0 SHL SUB SWAP3 SWAP1 SWAP3 AND SWAP2 SWAP1 SWAP2 OR SWAP1 SSTORE JUMP JUMPDEST PUSH2 0x196C DUP4 DUP4 DUP4 PUSH2 0x1AB5 JUMP JUMPDEST PUSH2 0xE9E JUMPI PUSH1 0x1 PUSH1 0x1 PUSH1 0xA0 SHL SUB DUP4 AND PUSH2 0x199A JUMPI PUSH1 0x40 MLOAD PUSH4 0x7E273289 PUSH1 0xE0 SHL DUP2 MSTORE PUSH1 0x4 DUP2 ADD DUP3 SWAP1 MSTORE PUSH1 0x24 ADD PUSH2 0x859 JUMP JUMPDEST PUSH1 0x40 MLOAD PUSH4 0x177E802F PUSH1 0xE0 SHL DUP2 MSTORE PUSH1 0x1 PUSH1 0x1 PUSH1 0xA0 SHL SUB DUP4 AND PUSH1 0x4 DUP3 ADD MSTORE PUSH1 0x24 DUP2 ADD DUP3 SWAP1 MSTORE PUSH1 0x44 ADD PUSH2 0x859 JUMP JUMPDEST PUSH2 0x19CF DUP4 DUP4 PUSH2 0x1B18 JUMP JUMPDEST PUSH2 0xE9E CALLER PUSH1 0x0 DUP6 DUP6 DUP6 PUSH2 0x169D JUMP JUMPDEST PUSH1 0x0 DUP1 PUSH19 0x184F03E93FF9F4DAA797ED6E38ED64BF6A1F01 PUSH1 0x40 SHL DUP4 LT PUSH2 0x1A1C JUMPI PUSH19 0x184F03E93FF9F4DAA797ED6E38ED64BF6A1F01 PUSH1 0x40 SHL DUP4 DIV SWAP3 POP PUSH1 0x40 ADD JUMPDEST PUSH14 0x4EE2D6D415B85ACEF8100000000 DUP4 LT PUSH2 0x1A48 JUMPI PUSH14 0x4EE2D6D415B85ACEF8100000000 DUP4 DIV SWAP3 POP PUSH1 0x20 ADD JUMPDEST PUSH7 0x2386F26FC10000 DUP4 LT PUSH2 0x1A66 JUMPI PUSH7 0x2386F26FC10000 DUP4 DIV SWAP3 POP PUSH1 0x10 ADD JUMPDEST PUSH4 0x5F5E100 DUP4 LT PUSH2 0x1A7E JUMPI PUSH4 0x5F5E100 DUP4 DIV SWAP3 POP PUSH1 0x8 ADD JUMPDEST PUSH2 0x2710 DUP4 LT PUSH2 0x1A92 JUMPI PUSH2 0x2710 DUP4 DIV SWAP3 POP PUSH1 0x4 ADD JUMPDEST PUSH1 0x64 DUP4 LT PUSH2 0x1AA4 JUMPI PUSH1 0x64 DUP4 DIV SWAP3 POP PUSH1 0x2 ADD JUMPDEST PUSH1 0xA DUP4 LT PUSH2 0x6D8 JUMPI PUSH1 0x1 ADD SWAP3 SWAP2 POP POP JUMP JUMPDEST PUSH1 0x0 PUSH1 0x1 PUSH1 0x1 PUSH1 0xA0 SHL SUB DUP4 AND ISZERO DUP1 ISZERO SWAP1 PUSH2 0x157F JUMPI POP DUP3 PUSH1 0x1 PUSH1 0x1 PUSH1 0xA0 SHL SUB AND DUP5 PUSH1 0x1 PUSH1 0x1 PUSH1 0xA0 SHL SUB AND EQ DUP1 PUSH2 0x1AEF JUMPI POP PUSH2 0x1AEF DUP5 DUP5 PUSH2 0x139A JUMP JUMPDEST DUP1 PUSH2 0x157F JUMPI POP POP PUSH1 0x0 SWAP1 DUP2 MSTORE PUSH1 0x4 PUSH1 0x20 MSTORE PUSH1 0x40 SWAP1 KECCAK256 SLOAD PUSH1 0x1 PUSH1 0x1 PUSH1 0xA0 SHL SUB SWAP1 DUP2 AND SWAP2 AND EQ SWAP2 SWAP1 POP JUMP JUMPDEST PUSH1 0x1 PUSH1 0x1 PUSH1 0xA0 SHL SUB DUP3 AND PUSH2 0x1B42 JUMPI PUSH1 0x40 MLOAD PUSH4 0x32505749 PUSH1 0xE1 SHL DUP2 MSTORE PUSH1 0x0 PUSH1 0x4 DUP3 ADD MSTORE PUSH1 0x24 ADD PUSH2 0x859 JUMP JUMPDEST PUSH1 0x0 PUSH2 0x1B50 DUP4 DUP4 PUSH1 0x0 PUSH2 0x144C JUMP JUMPDEST SWAP1 POP PUSH1 0x1 PUSH1 0x1 PUSH1 0xA0 SHL SUB DUP2 AND ISZERO PUSH2 0xE9E JUMPI PUSH1 0x40 MLOAD PUSH4 0x39E35637 PUSH1 0xE1 SHL DUP2 MSTORE PUSH1 0x0 PUSH1 0x4 DUP3 ADD MSTORE PUSH1 0x24 ADD PUSH2 0x859 JUMP JUMPDEST DUP3 DUP1 SLOAD DUP3 DUP3 SSTORE SWAP1 PUSH1 0x0 MSTORE PUSH1 0x20 PUSH1 0x0 KECCAK256 SWAP1 DUP2 ADD SWAP3 DUP3 ISZERO PUSH2 0x1BB8 JUMPI SWAP2 PUSH1 0x20 MUL DUP3 ADD JUMPDEST DUP3 DUP2 GT ISZERO PUSH2 0x1BB8 JUMPI DUP3 MLOAD DUP3 SSTORE SWAP2 PUSH1 0x20 ADD SWAP2 SWAP1 PUSH1 0x1 ADD SWAP1 PUSH2 0x1B9D JUMP JUMPDEST POP PUSH2 0x1BC4 SWAP3 SWAP2 POP PUSH2 0x1C3C JUMP JUMPDEST POP SWAP1 JUMP JUMPDEST PUSH1 0x40 MLOAD DUP1 PUSH2 0x180 ADD PUSH1 0x40 MSTORE DUP1 PUSH1 0x0 DUP2 MSTORE PUSH1 0x20 ADD PUSH1 0x0 DUP2 MSTORE PUSH1 0x20 ADD PUSH1 0x60 DUP2 MSTORE PUSH1 0x20 ADD PUSH1 0x0 PUSH1 0x5 DUP2 GT ISZERO PUSH2 0x1BFC JUMPI PUSH2 0x1BFC PUSH2 0x1EF8 JUMP JUMPDEST DUP2 MSTORE PUSH1 0x20 ADD PUSH1 0x60 DUP2 MSTORE PUSH1 0x20 ADD PUSH1 0x0 DUP2 MSTORE PUSH1 0x20 ADD PUSH1 0x0 DUP2 MSTORE PUSH1 0x20 ADD PUSH1 0x0 DUP2 MSTORE PUSH1 0x20 ADD PUSH1 0x0 DUP2 MSTORE PUSH1 0x20 ADD PUSH1 0x0 DUP2 MSTORE PUSH1 0x20 ADD PUSH1 0x0 ISZERO ISZERO DUP2 MSTORE PUSH1 0x20 ADD PUSH1 0x0 DUP2 MSTORE POP SWAP1 JUMP JUMPDEST JUMPDEST DUP1 DUP3 GT ISZERO PUSH2 0x1BC4 JUMPI PUSH1 0x0 DUP2 SSTORE PUSH1 0x1 ADD PUSH2 0x1C3D JUMP JUMPDEST PUSH1 0x1 PUSH1 0x1 PUSH1 0xE0 SHL SUB NOT DUP2 AND DUP2 EQ PUSH2 0x1403 JUMPI PUSH1 0x0 DUP1 REVERT JUMPDEST PUSH1 0x0 PUSH1 0x20 DUP3 DUP5 SUB SLT ISZERO PUSH2 0x1C79 JUMPI PUSH1 0x0 DUP1 REVERT JUMPDEST DUP2 CALLDATALOAD PUSH2 0x1331 DUP2 PUSH2 0x1C51 JUMP JUMPDEST PUSH1 0x0 DUP1 PUSH1 0x40 DUP4 DUP6 SUB SLT ISZERO PUSH2 0x1C97 JUMPI PUSH1 0x0 DUP1 REVERT JUMPDEST POP POP DUP1 CALLDATALOAD SWAP3 PUSH1 0x20 SWAP1 SWAP2 ADD CALLDATALOAD SWAP2 POP JUMP JUMPDEST PUSH1 0x0 JUMPDEST DUP4 DUP2 LT ISZERO PUSH2 0x1CC1 JUMPI DUP2 DUP2 ADD MLOAD DUP4 DUP3 ADD MSTORE PUSH1 0x20 ADD PUSH2 0x1CA9 JUMP JUMPDEST POP POP PUSH1 0x0 SWAP2 ADD MSTORE JUMP JUMPDEST PUSH1 0x0 DUP2 MLOAD DUP1 DUP5 MSTORE PUSH2 0x1CE2 DUP2 PUSH1 0x20 DUP7 ADD PUSH1 0x20 DUP7 ADD PUSH2 0x1CA6 JUMP JUMPDEST PUSH1 0x1F ADD PUSH1 0x1F NOT AND SWAP3 SWAP1 SWAP3 ADD PUSH1 0x20 ADD SWAP3 SWAP2 POP POP JUMP JUMPDEST PUSH1 0x20 DUP2 MSTORE PUSH1 0x0 PUSH2 0x1331 PUSH1 0x20 DUP4 ADD DUP5 PUSH2 0x1CCA JUMP JUMPDEST PUSH1 0x0 PUSH1 0x20 DUP3 DUP5 SUB SLT ISZERO PUSH2 0x1D1B JUMPI PUSH1 0x0 DUP1 REVERT JUMPDEST POP CALLDATALOAD SWAP2 SWAP1 POP JUMP JUMPDEST DUP1 CALLDATALOAD PUSH1 0x1 PUSH1 0x1 PUSH1 0xA0 SHL SUB DUP2 AND DUP2 EQ PUSH2 0x1D39 JUMPI PUSH1 0x0 DUP1 REVERT JUMPDEST SWAP2 SWAP1 POP JUMP JUMPDEST PUSH1 0x0 DUP1 PUSH1 0x40 DUP4 DUP6 SUB SLT ISZERO PUSH2 0x1D51 JUMPI PUSH1 0x0 DUP1 REVERT JUMPDEST PUSH2 0x1D5A DUP4 PUSH2 0x1D22 JUMP JUMPDEST SWAP5 PUSH1 0x20 SWAP4 SWAP1 SWAP4 ADD CALLDATALOAD SWAP4 POP POP POP JUMP JUMPDEST PUSH1 0x0 DUP1 PUSH1 0x40 DUP4 DUP6 SUB SLT ISZERO PUSH2 0x1D7B JUMPI PUSH1 0x0 DUP1 REVERT JUMPDEST DUP3 CALLDATALOAD SWAP2 POP PUSH1 0x20 DUP4 ADD CALLDATALOAD PUSH1 0x9 DUP2 LT PUSH2 0x1D91 JUMPI PUSH1 0x0 DUP1 REVERT JUMPDEST DUP1 SWAP2 POP POP SWAP3 POP SWAP3 SWAP1 POP JUMP JUMPDEST PUSH1 0x0 DUP1 PUSH1 0x0 PUSH1 0x60 DUP5 DUP7 SUB SLT ISZERO PUSH2 0x1DB1 JUMPI PUSH1 0x0 DUP1 REVERT JUMPDEST PUSH2 0x1DBA DUP5 PUSH2 0x1D22 JUMP JUMPDEST SWAP3 POP PUSH2 0x1DC8 PUSH1 0x20 DUP6 ADD PUSH2 0x1D22 JUMP JUMPDEST SWAP2 POP PUSH1 0x40 DUP5 ADD CALLDATALOAD SWAP1 POP SWAP3 POP SWAP3 POP SWAP3 JUMP JUMPDEST PUSH4 0x4E487B71 PUSH1 0xE0 SHL PUSH1 0x0 MSTORE PUSH1 0x41 PUSH1 0x4 MSTORE PUSH1 0x24 PUSH1 0x0 REVERT JUMPDEST PUSH1 0x0 PUSH8 0xFFFFFFFFFFFFFFFF DUP1 DUP5 GT ISZERO PUSH2 0x1E09 JUMPI PUSH2 0x1E09 PUSH2 0x1DD8 JUMP JUMPDEST PUSH1 0x40 MLOAD PUSH1 0x1F DUP6 ADD PUSH1 0x1F NOT SWAP1 DUP2 AND PUSH1 0x3F ADD AND DUP2 ADD SWAP1 DUP3 DUP3 GT DUP2 DUP4 LT OR ISZERO PUSH2 0x1E31 JUMPI PUSH2 0x1E31 PUSH2 0x1DD8 JUMP JUMPDEST DUP2 PUSH1 0x40 MSTORE DUP1 SWAP4 POP DUP6 DUP2 MSTORE DUP7 DUP7 DUP7 ADD GT ISZERO PUSH2 0x1E4A JUMPI PUSH1 0x0 DUP1 REVERT JUMPDEST DUP6 DUP6 PUSH1 0x20 DUP4 ADD CALLDATACOPY PUSH1 0x0 PUSH1 0x20 DUP8 DUP4 ADD ADD MSTORE POP POP POP SWAP4 SWAP3 POP POP POP JUMP JUMPDEST PUSH1 0x0 DUP1 PUSH1 0x0 DUP1 PUSH1 0x80 DUP6 DUP8 SUB SLT ISZERO PUSH2 0x1E7A JUMPI PUSH1 0x0 DUP1 REVERT JUMPDEST DUP5 CALLDATALOAD SWAP4 POP PUSH1 0x20 DUP6 ADD CALLDATALOAD PUSH8 0xFFFFFFFFFFFFFFFF DUP2 GT ISZERO PUSH2 0x1E98 JUMPI PUSH1 0x0 DUP1 REVERT JUMPDEST DUP6 ADD PUSH1 0x1F DUP2 ADD DUP8 SGT PUSH2 0x1EA9 JUMPI PUSH1 0x0 DUP1 REVERT JUMPDEST PUSH2 0x1EB8 DUP8 DUP3 CALLDATALOAD PUSH1 0x20 DUP5 ADD PUSH2 0x1DEE JUMP JUMPDEST SWAP4 POP POP PUSH1 0x40 DUP6 ADD CALLDATALOAD PUSH1 0x6 DUP2 LT PUSH2 0x1ECD JUMPI PUSH1 0x0 DUP1 REVERT JUMPDEST SWAP4 SWAP7 SWAP3 SWAP6 POP SWAP3 SWAP4 PUSH1 0x60 ADD CALLDATALOAD SWAP3 POP POP JUMP JUMPDEST PUSH1 0x0 PUSH1 0x20 DUP3 DUP5 SUB SLT ISZERO PUSH2 0x1EEF JUMPI PUSH1 0x0 DUP1 REVERT JUMPDEST PUSH2 0x1331 DUP3 PUSH2 0x1D22 JUMP JUMPDEST PUSH4 0x4E487B71 PUSH1 0xE0 SHL PUSH1 0x0 MSTORE PUSH1 0x21 PUSH1 0x4 MSTORE PUSH1 0x24 PUSH1 0x0 REVERT JUMPDEST PUSH1 0x6 DUP2 LT PUSH2 0x1F2C JUMPI PUSH4 0x4E487B71 PUSH1 0xE0 SHL PUSH1 0x0 MSTORE PUSH1 0x21 PUSH1 0x4 MSTORE PUSH1 0x24 PUSH1 0x0 REVERT JUMPDEST SWAP1 MSTORE JUMP JUMPDEST PUSH1 0x0 PUSH2 0x160 DUP14 DUP4 MSTORE DUP13 PUSH1 0x20 DUP5 ADD MSTORE DUP1 PUSH1 0x40 DUP5 ADD MSTORE PUSH2 0x1F50 DUP2 DUP5 ADD DUP14 PUSH2 0x1CCA JUMP JUMPDEST SWAP2 POP POP PUSH2 0x1F60 PUSH1 0x60 DUP4 ADD DUP12 PUSH2 0x1F0E JUMP JUMPDEST PUSH1 0x80 DUP3 ADD SWAP9 SWAP1 SWAP9 MSTORE PUSH1 0xA0 DUP2 ADD SWAP7 SWAP1 SWAP7 MSTORE PUSH1 0xC0 DUP7 ADD SWAP5 SWAP1 SWAP5 MSTORE PUSH1 0xE0 DUP6 ADD SWAP3 SWAP1 SWAP3 MSTORE PUSH2 0x100 DUP5 ADD MSTORE ISZERO ISZERO PUSH2 0x120 DUP4 ADD MSTORE PUSH2 0x140 SWAP1 SWAP2 ADD MSTORE SWAP5 SWAP4 POP POP POP POP JUMP JUMPDEST DUP1 CALLDATALOAD DUP1 ISZERO ISZERO DUP2 EQ PUSH2 0x1D39 JUMPI PUSH1 0x0 DUP1 REVERT JUMPDEST PUSH1 0x0 DUP1 PUSH1 0x40 DUP4 DUP6 SUB SLT ISZERO PUSH2 0x1FC0 JUMPI PUSH1 0x0 DUP1 REVERT JUMPDEST PUSH2 0x1FC9 DUP4 PUSH2 0x1D22 JUMP JUMPDEST SWAP2 POP PUSH2 0x1FD7 PUSH1 0x20 DUP5 ADD PUSH2 0x1F9D JUMP JUMPDEST SWAP1 POP SWAP3 POP SWAP3 SWAP1 POP JUMP JUMPDEST PUSH1 0x0 DUP1 PUSH1 0x40 DUP4 DUP6 SUB SLT ISZERO PUSH2 0x1FF3 JUMPI PUSH1 0x0 DUP1 REVERT JUMPDEST DUP3 CALLDATALOAD SWAP2 POP PUSH2 0x1FD7 PUSH1 0x20 DUP5 ADD PUSH2 0x1F9D JUMP JUMPDEST PUSH1 0x0 DUP2 MLOAD DUP1 DUP5 MSTORE PUSH1 0x20 DUP1 DUP6 ADD SWAP5 POP DUP1 DUP5 ADD PUSH1 0x0 JUMPDEST DUP4 DUP2 LT ISZERO PUSH2 0x2033 JUMPI DUP2 MLOAD DUP8 MSTORE SWAP6 DUP3 ADD SWAP6 SWAP1 DUP3 ADD SWAP1 PUSH1 0x1 ADD PUSH2 0x2017 JUMP JUMPDEST POP SWAP5 SWAP6 SWAP5 POP POP POP POP POP JUMP JUMPDEST PUSH1 0x20 DUP2 MSTORE DUP2 MLOAD PUSH1 0x20 DUP3 ADD MSTORE PUSH1 0x20 DUP3 ADD MLOAD PUSH1 0x40 DUP3 ADD MSTORE PUSH1 0x0 PUSH1 0x40 DUP4 ADD MLOAD PUSH2 0x180 DUP1 PUSH1 0x60 DUP6 ADD MSTORE PUSH2 0x2071 PUSH2 0x1A0 DUP6 ADD DUP4 PUSH2 0x1CCA JUMP JUMPDEST SWAP2 POP PUSH1 0x60 DUP6 ADD MLOAD PUSH2 0x2085 PUSH1 0x80 DUP7 ADD DUP3 PUSH2 0x1F0E JUMP JUMPDEST POP PUSH1 0x80 DUP6 ADD MLOAD DUP5 DUP4 SUB PUSH1 0x1F NOT ADD PUSH1 0xA0 DUP7 ADD MSTORE PUSH2 0x20A1 DUP4 DUP3 PUSH2 0x2003 JUMP JUMPDEST SWAP3 POP POP PUSH1 0xA0 DUP6 ADD MLOAD PUSH1 0xC0 DUP6 ADD MSTORE PUSH1 0xC0 DUP6 ADD MLOAD PUSH1 0xE0 DUP6 ADD MSTORE PUSH1 0xE0 DUP6 ADD MLOAD PUSH2 0x100 DUP2 DUP2 DUP8 ADD MSTORE DUP1 DUP8 ADD MLOAD SWAP2 POP POP PUSH2 0x120 DUP2 DUP2 DUP8 ADD MSTORE DUP1 DUP8 ADD MLOAD SWAP2 POP POP PUSH2 0x140 DUP2 DUP2 DUP8 ADD MSTORE DUP1 DUP8 ADD MLOAD SWAP2 POP POP PUSH2 0x160 PUSH2 0x20FA DUP2 DUP8 ADD DUP4 ISZERO ISZERO SWAP1 MSTORE JUMP JUMPDEST SWAP6 SWAP1 SWAP6 ADD MLOAD SWAP4 ADD SWAP3 SWAP1 SWAP3 MSTORE POP SWAP2 SWAP1 POP JUMP JUMPDEST PUSH1 0x0 DUP1 PUSH1 0x0 DUP1 PUSH1 0x80 DUP6 DUP8 SUB SLT ISZERO PUSH2 0x2121 JUMPI PUSH1 0x0 DUP1 REVERT JUMPDEST PUSH2 0x212A DUP6 PUSH2 0x1D22 JUMP JUMPDEST SWAP4 POP PUSH2 0x2138 PUSH1 0x20 DUP7 ADD PUSH2 0x1D22 JUMP JUMPDEST SWAP3 POP PUSH1 0x40 DUP6 ADD CALLDATALOAD SWAP2 POP PUSH1 0x60 DUP6 ADD CALLDATALOAD PUSH8 0xFFFFFFFFFFFFFFFF DUP2 GT ISZERO PUSH2 0x215B JUMPI PUSH1 0x0 DUP1 REVERT JUMPDEST DUP6 ADD PUSH1 0x1F DUP2 ADD DUP8 SGT PUSH2 0x216C JUMPI PUSH1 0x0 DUP1 REVERT JUMPDEST PUSH2 0x217B DUP8 DUP3 CALLDATALOAD PUSH1 0x20 DUP5 ADD PUSH2 0x1DEE JUMP JUMPDEST SWAP2 POP POP SWAP3 SWAP6 SWAP2 SWAP5 POP SWAP3 POP JUMP JUMPDEST PUSH1 0x20 DUP2 MSTORE PUSH1 0x0 PUSH2 0x1331 PUSH1 0x20 DUP4 ADD DUP5 PUSH2 0x2003 JUMP JUMPDEST PUSH1 0x0 DUP1 PUSH1 0x40 DUP4 DUP6 SUB SLT ISZERO PUSH2 0x21AD JUMPI PUSH1 0x0 DUP1 REVERT JUMPDEST PUSH2 0x21B6 DUP4 PUSH2 0x1D22 JUMP JUMPDEST SWAP2 POP PUSH2 0x1FD7 PUSH1 0x20 DUP5 ADD PUSH2 0x1D22 JUMP JUMPDEST PUSH1 0x1 DUP2 DUP2 SHR SWAP1 DUP3 AND DUP1 PUSH2 0x21D8 JUMPI PUSH1 0x7F DUP3 AND SWAP2 POP JUMPDEST PUSH1 0x20 DUP3 LT DUP2 SUB PUSH2 0x21F8 JUMPI PUSH4 0x4E487B71 PUSH1 0xE0 SHL PUSH1 0x0 MSTORE PUSH1 0x22 PUSH1 0x4 MSTORE PUSH1 0x24 PUSH1 0x0 REVERT JUMPDEST POP SWAP2 SWAP1 POP JUMP JUMPDEST PUSH1 0x20 DUP1 DUP3 MSTORE PUSH1 0x9 SWAP1 DUP3 ADD MSTORE PUSH9 0x2737BA1037BBB732B9 PUSH1 0xB9 SHL PUSH1 0x40 DUP3 ADD MSTORE PUSH1 0x60 ADD SWAP1 JUMP JUMPDEST PUSH4 0x4E487B71 PUSH1 0xE0 SHL PUSH1 0x0 MSTORE PUSH1 0x11 PUSH1 0x4 MSTORE PUSH1 0x24 PUSH1 0x0 REVERT JUMPDEST PUSH1 0x0 PUSH1 0x1 DUP3 ADD PUSH2 0x2249 JUMPI PUSH2 0x2249 PUSH2 0x2221 JUMP JUMPDEST POP PUSH1 0x1 ADD SWAP1 JUMP JUMPDEST PUSH1 0x1F DUP3 GT ISZERO PUSH2 0xE9E JUMPI PUSH1 0x0 DUP2 DUP2 MSTORE PUSH1 0x20 DUP2 KECCAK256 PUSH1 0x1F DUP6 ADD PUSH1 0x5 SHR DUP2 ADD PUSH1 0x20 DUP7 LT ISZERO PUSH2 0x2277 JUMPI POP DUP1 JUMPDEST PUSH1 0x1F DUP6 ADD PUSH1 0x5 SHR DUP3 ADD SWAP2 POP JUMPDEST DUP2 DUP2 LT ISZERO PUSH2 0x17BF JUMPI DUP3 DUP2 SSTORE PUSH1 0x1 ADD PUSH2 0x2283 JUMP JUMPDEST DUP2 MLOAD PUSH8 0xFFFFFFFFFFFFFFFF DUP2 GT ISZERO PUSH2 0x22B0 JUMPI PUSH2 0x22B0 PUSH2 0x1DD8 JUMP JUMPDEST PUSH2 0x22C4 DUP2 PUSH2 0x22BE DUP5 SLOAD PUSH2 0x21C4 JUMP JUMPDEST DUP5 PUSH2 0x2250 JUMP JUMPDEST PUSH1 0x20 DUP1 PUSH1 0x1F DUP4 GT PUSH1 0x1 DUP2 EQ PUSH2 0x22F9 JUMPI PUSH1 0x0 DUP5 ISZERO PUSH2 0x22E1 JUMPI POP DUP6 DUP4 ADD MLOAD JUMPDEST PUSH1 0x0 NOT PUSH1 0x3 DUP7 SWAP1 SHL SHR NOT AND PUSH1 0x1 DUP6 SWAP1 SHL OR DUP6 SSTORE PUSH2 0x17BF JUMP JUMPDEST PUSH1 0x0 DUP6 DUP2 MSTORE PUSH1 0x20 DUP2 KECCAK256 PUSH1 0x1F NOT DUP7 AND SWAP2 JUMPDEST DUP3 DUP2 LT ISZERO PUSH2 0x2328 JUMPI DUP9 DUP7 ADD MLOAD DUP3 SSTORE SWAP5 DUP5 ADD SWAP5 PUSH1 0x1 SWAP1 SWAP2 ADD SWAP1 DUP5 ADD PUSH2 0x2309 JUMP JUMPDEST POP DUP6 DUP3 LT ISZERO PUSH2 0x2346 JUMPI DUP8 DUP6 ADD MLOAD PUSH1 0x0 NOT PUSH1 0x3 DUP9 SWAP1 SHL PUSH1 0xF8 AND SHR NOT AND DUP2 SSTORE JUMPDEST POP POP POP POP POP PUSH1 0x1 SWAP1 DUP2 SHL ADD SWAP1 SSTORE POP JUMP JUMPDEST DUP1 DUP3 ADD DUP1 DUP3 GT ISZERO PUSH2 0x6D8 JUMPI PUSH2 0x6D8 PUSH2 0x2221 JUMP JUMPDEST DUP1 DUP3 MUL DUP2 ISZERO DUP3 DUP3 DIV DUP5 EQ OR PUSH2 0x6D8 JUMPI PUSH2 0x6D8 PUSH2 0x2221 JUMP JUMPDEST PUSH1 0x0 DUP3 PUSH2 0x239D JUMPI PUSH4 0x4E487B71 PUSH1 0xE0 SHL PUSH1 0x0 MSTORE PUSH1 0x12 PUSH1 0x4 MSTORE PUSH1 0x24 PUSH1 0x0 REVERT JUMPDEST POP DIV SWAP1 JUMP JUMPDEST PUSH1 0x0 DUP4 MLOAD PUSH2 0x23B4 DUP2 DUP5 PUSH1 0x20 DUP9 ADD PUSH2 0x1CA6 JUMP JUMPDEST DUP4 MLOAD SWAP1 DUP4 ADD SWAP1 PUSH2 0x23C8 DUP2 DUP4 PUSH1 0x20 DUP9 ADD PUSH2 0x1CA6 JUMP JUMPDEST ADD SWAP5 SWAP4 POP POP POP POP JUMP JUMPDEST PUSH1 0x1 PUSH1 0x1 PUSH1 0xA0 SHL SUB DUP6 DUP2 AND DUP3 MSTORE DUP5 AND PUSH1 0x20 DUP3 ADD MSTORE PUSH1 0x40 DUP2 ADD DUP4 SWAP1 MSTORE PUSH1 0x80 PUSH1 0x60 DUP3 ADD DUP2 SWAP1 MSTORE PUSH1 0x0 SWAP1 PUSH2 0x2404 SWAP1 DUP4 ADD DUP5 PUSH2 0x1CCA JUMP JUMPDEST SWAP7 SWAP6 POP POP POP POP POP POP JUMP JUMPDEST PUSH1 0x0 PUSH1 0x20 DUP3 DUP5 SUB SLT ISZERO PUSH2 0x2420 JUMPI PUSH1 0x0 DUP1 REVERT JUMPDEST DUP2 MLOAD PUSH2 0x1331 DUP2 PUSH2 0x1C51 JUMP INVALID LOG2 PUSH5 0x6970667358 0x22 SLT KECCAK256 0x4E 0xD0 0xF6 MSIZE KECCAK256 LOG2 LOG2 RETURN 0xE3 SWAP9 DUP9 REVERT SELFDESTRUCT CALLVALUE CALLDATALOAD 0x4D 0xF RETURNDATACOPY SIGNEXTEND SWAP3 0xB7 SWAP7 SHR 0xE4 0xFB BYTE DUP16 0xD9 SWAP11 MSIZE 0x4C 0x2B PUSH5 0x736F6C6343 STOP ADDMOD EQ STOP CALLER "},"methodIdentifiers":{"actingStyles(uint256)":"8ed5d072","actorRoles(uint256,uint256)":"76f5433f","actorSpecializations(uint256,uint256)":"059bc379","actors(uint256)":"93c0e83a","addSpecialization(uint256,uint8)":"1b80c809","approve(address,uint256)":"095ea7b3","balanceOf(address)":"70a08231","getActingStyle(uint256)":"0d0d12c6","getActor(uint256)":"b35958a0","getActorRoles(uint256)":"e49349a5","getApproved(uint256)":"081812fc","hireActor(uint256,uint256)":"3baa5347","isApprovedForAll(address,address)":"e985e9c5","mintActor(uint256,string,uint8,uint256)":"320186d2","name()":"06fdde03","owner()":"8da5cb5b","ownerOf(uint256)":"6352211e","ratePerformance(uint256,uint256)":"35cb1725","renounceOwnership()":"715018a6","retireActor(uint256)":"836f68dd","safeTransferFrom(address,address,uint256)":"42842e0e","safeTransferFrom(address,address,uint256,bytes)":"b88d4fde","setApprovalForAll(address,bool)":"a22cb465","setAvailability(uint256,bool)":"a865bf80","supportsInterface(bytes4)":"01ffc9a7","symbol()":"95d89b41","tokenURI(uint256)":"c87b56dd","transferFrom(address,address,uint256)":"23b872dd","transferOwnership(address)":"f2fde38b","updateBaseRate(uint256,uint256)":"111bf4cf"}}}}}