{"contracts/layer4/talent/PerformanceTracking.sol":{"PerformanceTracking":{"abi":[{"anonymous":false,"inputs":[{"indexed":true,"internalType":"uint256","name":"talentId","type":"uint256"},{"indexed":false,"internalType":"string","name":"awardName","type":"string"}],"name":"AwardReceived","type":"event"},{"anonymous":false,"inputs":[{"indexed":true,"internalType":"uint256","name":"performanceId","type":"uint256"},{"indexed":true,"internalType":"uint256","name":"talentId","type":"uint256"},{"indexed":false,"internalType":"uint256","name":"rating","type":"uint256"}],"name":"PerformanceRecorded","type":"event"},{"inputs":[{"internalType":"uint256","name":"talentId","type":"uint256"},{"internalType":"string","name":"awardName","type":"string"}],"name":"awardTalent","outputs":[],"stateMutability":"nonpayable","type":"function"},{"inputs":[{"internalType":"uint256","name":"talentId","type":"uint256"}],"name":"calculateTalentScore","outputs":[{"internalType":"uint256","name":"","type":"uint256"}],"stateMutability":"view","type":"function"},{"inputs":[{"internalType":"uint256","name":"","type":"uint256"}],"name":"careerStats","outputs":[{"internalType":"uint256","name":"talentId","type":"uint256"},{"internalType":"uint256","name":"totalPerformances","type":"uint256"},{"internalType":"uint256","name":"averageRating","type":"uint256"},{"internalType":"uint256","name":"totalBoxOffice","type":"uint256"},{"internalType":"uint256","name":"peakRating","type":"uint256"},{"internalType":"uint256","name":"currentStreak","type":"uint256"},{"internalType":"uint256","name":"awards","type":"uint256"}],"stateMutability":"view","type":"function"},{"inputs":[{"internalType":"uint256","name":"talentId","type":"uint256"}],"name":"getCareerStats","outputs":[{"components":[{"internalType":"uint256","name":"talentId","type":"uint256"},{"internalType":"uint256","name":"totalPerformances","type":"uint256"},{"internalType":"uint256","name":"averageRating","type":"uint256"},{"internalType":"uint256","name":"totalBoxOffice","type":"uint256"},{"internalType":"uint256","name":"peakRating","type":"uint256"},{"internalType":"uint256","name":"currentStreak","type":"uint256"},{"internalType":"uint256","name":"awards","type":"uint256"}],"internalType":"struct PerformanceTracking.CareerStats","name":"","type":"tuple"}],"stateMutability":"view","type":"function"},{"inputs":[{"internalType":"uint256","name":"performanceId","type":"uint256"}],"name":"getPerformance","outputs":[{"components":[{"internalType":"uint256","name":"performanceId","type":"uint256"},{"internalType":"uint256","name":"talentId","type":"uint256"},{"internalType":"uint256","name":"movieId","type":"uint256"},{"internalType":"uint256","name":"role","type":"uint256"},{"internalType":"uint256","name":"rating","type":"uint256"},{"internalType":"uint256","name":"boxOfficeContribution","type":"uint256"},{"internalType":"uint256","name":"criticalScore","type":"uint256"},{"internalType":"uint256","name":"audienceScore","type":"uint256"},{"internalType":"uint256","name":"timestamp","type":"uint256"},{"internalType":"address","name":"ratedBy","type":"address"}],"internalType":"struct PerformanceTracking.Performance","name":"","type":"tuple"}],"stateMutability":"view","type":"function"},{"inputs":[{"internalType":"uint256","name":"talentId","type":"uint256"}],"name":"getTalentPerformances","outputs":[{"internalType":"uint256[]","name":"","type":"uint256[]"}],"stateMutability":"view","type":"function"},{"inputs":[],"name":"performanceCount","outputs":[{"internalType":"uint256","name":"","type":"uint256"}],"stateMutability":"view","type":"function"},{"inputs":[{"internalType":"uint256","name":"","type":"uint256"}],"name":"performances","outputs":[{"internalType":"uint256","name":"performanceId","type":"uint256"},{"internalType":"uint256","name":"talentId","type":"uint256"},{"internalType":"uint256","name":"movieId","type":"uint256"},{"internalType":"uint256","name":"role","type":"uint256"},{"internalType":"uint256","name":"rating","type":"uint256"},{"internalType":"uint256","name":"boxOfficeContribution","type":"uint256"},{"internalType":"uint256","name":"criticalScore","type":"uint256"},{"internalType":"uint256","name":"audienceScore","type":"uint256"},{"internalType":"uint256","name":"timestamp","type":"uint256"},{"internalType":"address","name":"ratedBy","type":"address"}],"stateMutability":"view","type":"function"},{"inputs":[{"internalType":"uint256","name":"talentId","type":"uint256"},{"internalType":"uint256","name":"movieId","type":"uint256"},{"internalType":"uint256","name":"role","type":"uint256"},{"internalType":"uint256","name":"rating","type":"uint256"},{"internalType":"uint256","name":"boxOffice","type":"uint256"},{"internalType":"uint256","name":"criticalScore","type":"uint256"},{"internalType":"uint256","name":"audienceScore","type":"uint256"}],"name":"recordPerformance","outputs":[{"internalType":"uint256","name":"","type":"uint256"}],"stateMutability":"nonpayable","type":"function"},{"inputs":[{"internalType":"uint256","name":"","type":"uint256"},{"internalType":"uint256","name":"","type":"uint256"}],"name":"talentPerformances","outputs":[{"internalType":"uint256","name":"","type":"uint256"}],"stateMutability":"view","type":"function"}],"evm":{"bytecode":{"linkReferences":{},"object":"608060405234801561001057600080fd5b50610b43806100206000396000f3fe608060405234801561001057600080fd5b506004361061009e5760003560e01c8063b93ce42411610066578063b93ce424146101da578063c2354e80146101ef578063d03d2bbd14610202578063dcbc3bb314610215578063f5ff636d146102d057600080fd5b80631f606c31146100a357806347625694146100bf57806360e6faee146100df5780639ce0760e1461015e578063aa13e16c146101c7575b600080fd5b6100ac60035481565b6040519081526020015b60405180910390f35b6100d26100cd36600461080d565b6102f0565b6040516100b69190610826565b6101296100ed36600461080d565b60016020819052600091825260409091208054918101546002820154600383015460048401546005850154600690950154939492939192909187565b604080519788526020880196909652948601939093526060850191909152608084015260a083015260c082015260e0016100b6565b61017161016c36600461080d565b6103da565b6040516100b69190600060e082019050825182526020830151602083015260408301516040830152606083015160608301526080830151608083015260a083015160a083015260c083015160c083015292915050565b6100ac6101d536600461080d565b61047c565b6101ed6101e83660046108be565b610523565b005b6100ac6101fd366004610979565b610584565b6100ac6102103660046109c5565b61077a565b61027d61022336600461080d565b6000602081905290815260409020805460018201546002830154600384015460048501546005860154600687015460078801546008890154600990990154979896979596949593949293919290916001600160a01b03168a565b604080519a8b5260208b0199909952978901969096526060880194909452608087019290925260a086015260c085015260e08401526101008301526001600160a01b0316610120820152610140016100b6565b6102e36102de36600461080d565b6107ab565b6040516100b691906109e7565b61034f60405180610140016040528060008152602001600081526020016000815260200160008152602001600081526020016000815260200160008152602001600081526020016000815260200160006001600160a01b031681525090565b5060009081526020818152604091829020825161014081018452815481526001820154928101929092526002810154928201929092526003820154606082015260048201546080820152600582015460a0820152600682015460c0820152600782015460e082015260088201546101008201526009909101546001600160a01b031661012082015290565b61041a6040518060e00160405280600081526020016000815260200160008152602001600081526020016000815260200160008152602001600081525090565b50600090815260016020818152604092839020835160e0810185528154815292810154918301919091526002810154928201929092526003820154606082015260048201546080820152600582015460a082015260069091015460c082015290565b60008181526001602052604081206002810154829060649061049f906028610a41565b6104a99190610a5e565b9050600060648360030154601e6104c09190610a41565b6104ca9190610a5e565b9050600083600601546107d06104e09190610a41565b9050600084600501546103e86104f69190610a41565b905080826105048587610a80565b61050e9190610a80565b6105189190610a80565b979650505050505050565b6000828152600160205260408120600681018054919261054283610a93565b9190505550827feade2a6b26a0be2b6e048be61a4c37d3aab166ea418e6af0350b7d906073bb9c836040516105779190610aac565b60405180910390a2505050565b600380546000918261059583610a93565b909155505060038054604080516101408101825282815260208082018d81528284018d8152606084018d8152608085018d815260a086018d815260c087018d815260e088018d8152426101008a01908152336101208b0190815260008d8152808b528c81209b518c5598516001808d019190915597516002808d019190915596519d8b019d909d55935160048a0155915160058901555160068801555160078701555160088601559651600990940180546001600160a01b0319166001600160a01b03909516949094179093558d815294815282852080548084018255908652818620018490558c85528190529083209081018054929391929161069883610a93565b9190505550858160030160008282546106b19190610a80565b90915550506001808201549088906106c99083610afa565b83600201546106d89190610a41565b6106e29190610a80565b6106ec9190610a5e565b6002820155600481015487111561070557600481018790555b611b58871061072a5760058101805490600061072083610a93565b9190505550610732565b600060058201555b89827f49486dbd6be152a280234d0b8b9e4800a401e0396357fe4600779c53211823228960405161076591815260200190565b60405180910390a35098975050505050505050565b6002602052816000526040600020818154811061079657600080fd5b90600052602060002001600091509150505481565b60008181526002602090815260409182902080548351818402810184019094528084526060939283018282801561080157602002820191906000526020600020905b8154815260200190600101908083116107ed575b50505050509050919050565b60006020828403121561081f57600080fd5b5035919050565b600061014082019050825182526020830151602083015260408301516040830152606083015160608301526080830151608083015260a083015160a083015260c083015160c083015260e083015160e0830152610100808401518184015250610120808401516108a0828501826001600160a01b03169052565b505092915050565b634e487b7160e01b600052604160045260246000fd5b600080604083850312156108d157600080fd5b82359150602083013567ffffffffffffffff808211156108f057600080fd5b818501915085601f83011261090457600080fd5b813581811115610916576109166108a8565b604051601f8201601f19908116603f0116810190838211818310171561093e5761093e6108a8565b8160405282815288602084870101111561095757600080fd5b8260208601602083013760006020848301015280955050505050509250929050565b600080600080600080600060e0888a03121561099457600080fd5b505085359760208701359750604087013596606081013596506080810135955060a0810135945060c0013592509050565b600080604083850312156109d857600080fd5b50508035926020909101359150565b6020808252825182820181905260009190848201906040850190845b81811015610a1f57835183529284019291840191600101610a03565b50909695505050505050565b634e487b7160e01b600052601160045260246000fd5b8082028115828204841417610a5857610a58610a2b565b92915050565b600082610a7b57634e487b7160e01b600052601260045260246000fd5b500490565b80820180821115610a5857610a58610a2b565b600060018201610aa557610aa5610a2b565b5060010190565b600060208083528351808285015260005b81811015610ad957858101830151858201604001528201610abd565b506000604082860101526040601f19601f8301168501019250505092915050565b81810381811115610a5857610a58610a2b56fea2646970667358221220676d4e65bc7e6d3bd401c6e84aff24fb4b776ecf44801360c1019219be48e62d64736f6c63430008140033","opcodes":"PUSH1 0x80 PUSH1 0x40 MSTORE CALLVALUE DUP1 ISZERO PUSH2 0x10 JUMPI PUSH1 0x0 DUP1 REVERT JUMPDEST POP PUSH2 0xB43 DUP1 PUSH2 0x20 PUSH1 0x0 CODECOPY PUSH1 0x0 RETURN INVALID PUSH1 0x80 PUSH1 0x40 MSTORE CALLVALUE DUP1 ISZERO PUSH2 0x10 JUMPI PUSH1 0x0 DUP1 REVERT JUMPDEST POP PUSH1 0x4 CALLDATASIZE LT PUSH2 0x9E JUMPI PUSH1 0x0 CALLDATALOAD PUSH1 0xE0 SHR DUP1 PUSH4 0xB93CE424 GT PUSH2 0x66 JUMPI DUP1 PUSH4 0xB93CE424 EQ PUSH2 0x1DA JUMPI DUP1 PUSH4 0xC2354E80 EQ PUSH2 0x1EF JUMPI DUP1 PUSH4 0xD03D2BBD EQ PUSH2 0x202 JUMPI DUP1 PUSH4 0xDCBC3BB3 EQ PUSH2 0x215 JUMPI DUP1 PUSH4 0xF5FF636D EQ PUSH2 0x2D0 JUMPI PUSH1 0x0 DUP1 REVERT JUMPDEST DUP1 PUSH4 0x1F606C31 EQ PUSH2 0xA3 JUMPI DUP1 PUSH4 0x47625694 EQ PUSH2 0xBF JUMPI DUP1 PUSH4 0x60E6FAEE EQ PUSH2 0xDF JUMPI DUP1 PUSH4 0x9CE0760E EQ PUSH2 0x15E JUMPI DUP1 PUSH4 0xAA13E16C EQ PUSH2 0x1C7 JUMPI JUMPDEST PUSH1 0x0 DUP1 REVERT JUMPDEST PUSH2 0xAC PUSH1 0x3 SLOAD DUP2 JUMP JUMPDEST PUSH1 0x40 MLOAD SWAP1 DUP2 MSTORE PUSH1 0x20 ADD JUMPDEST PUSH1 0x40 MLOAD DUP1 SWAP2 SUB SWAP1 RETURN JUMPDEST PUSH2 0xD2 PUSH2 0xCD CALLDATASIZE PUSH1 0x4 PUSH2 0x80D JUMP JUMPDEST PUSH2 0x2F0 JUMP JUMPDEST PUSH1 0x40 MLOAD PUSH2 0xB6 SWAP2 SWAP1 PUSH2 0x826 JUMP JUMPDEST PUSH2 0x129 PUSH2 0xED CALLDATASIZE PUSH1 0x4 PUSH2 0x80D JUMP JUMPDEST PUSH1 0x1 PUSH1 0x20 DUP2 SWAP1 MSTORE PUSH1 0x0 SWAP2 DUP3 MSTORE PUSH1 0x40 SWAP1 SWAP2 KECCAK256 DUP1 SLOAD SWAP2 DUP2 ADD SLOAD PUSH1 0x2 DUP3 ADD SLOAD PUSH1 0x3 DUP4 ADD SLOAD PUSH1 0x4 DUP5 ADD SLOAD PUSH1 0x5 DUP6 ADD SLOAD PUSH1 0x6 SWAP1 SWAP6 ADD SLOAD SWAP4 SWAP5 SWAP3 SWAP4 SWAP2 SWAP3 SWAP1 SWAP2 DUP8 JUMP JUMPDEST PUSH1 0x40 DUP1 MLOAD SWAP8 DUP9 MSTORE PUSH1 0x20 DUP9 ADD SWAP7 SWAP1 SWAP7 MSTORE SWAP5 DUP7 ADD SWAP4 SWAP1 SWAP4 MSTORE PUSH1 0x60 DUP6 ADD SWAP2 SWAP1 SWAP2 MSTORE PUSH1 0x80 DUP5 ADD MSTORE PUSH1 0xA0 DUP4 ADD MSTORE PUSH1 0xC0 DUP3 ADD MSTORE PUSH1 0xE0 ADD PUSH2 0xB6 JUMP JUMPDEST PUSH2 0x171 PUSH2 0x16C CALLDATASIZE PUSH1 0x4 PUSH2 0x80D JUMP JUMPDEST PUSH2 0x3DA JUMP JUMPDEST PUSH1 0x40 MLOAD PUSH2 0xB6 SWAP2 SWAP1 PUSH1 0x0 PUSH1 0xE0 DUP3 ADD SWAP1 POP DUP3 MLOAD DUP3 MSTORE PUSH1 0x20 DUP4 ADD MLOAD PUSH1 0x20 DUP4 ADD MSTORE PUSH1 0x40 DUP4 ADD MLOAD PUSH1 0x40 DUP4 ADD MSTORE PUSH1 0x60 DUP4 ADD MLOAD PUSH1 0x60 DUP4 ADD MSTORE PUSH1 0x80 DUP4 ADD MLOAD PUSH1 0x80 DUP4 ADD MSTORE PUSH1 0xA0 DUP4 ADD MLOAD PUSH1 0xA0 DUP4 ADD MSTORE PUSH1 0xC0 DUP4 ADD MLOAD PUSH1 0xC0 DUP4 ADD MSTORE SWAP3 SWAP2 POP POP JUMP JUMPDEST PUSH2 0xAC PUSH2 0x1D5 CALLDATASIZE PUSH1 0x4 PUSH2 0x80D JUMP JUMPDEST PUSH2 0x47C JUMP JUMPDEST PUSH2 0x1ED PUSH2 0x1E8 CALLDATASIZE PUSH1 0x4 PUSH2 0x8BE JUMP JUMPDEST PUSH2 0x523 JUMP JUMPDEST STOP JUMPDEST PUSH2 0xAC PUSH2 0x1FD CALLDATASIZE PUSH1 0x4 PUSH2 0x979 JUMP JUMPDEST PUSH2 0x584 JUMP JUMPDEST PUSH2 0xAC PUSH2 0x210 CALLDATASIZE PUSH1 0x4 PUSH2 0x9C5 JUMP JUMPDEST PUSH2 0x77A JUMP JUMPDEST PUSH2 0x27D PUSH2 0x223 CALLDATASIZE PUSH1 0x4 PUSH2 0x80D JUMP JUMPDEST PUSH1 0x0 PUSH1 0x20 DUP2 SWAP1 MSTORE SWAP1 DUP2 MSTORE PUSH1 0x40 SWAP1 KECCAK256 DUP1 SLOAD PUSH1 0x1 DUP3 ADD SLOAD PUSH1 0x2 DUP4 ADD SLOAD PUSH1 0x3 DUP5 ADD SLOAD PUSH1 0x4 DUP6 ADD SLOAD PUSH1 0x5 DUP7 ADD SLOAD PUSH1 0x6 DUP8 ADD SLOAD PUSH1 0x7 DUP9 ADD SLOAD PUSH1 0x8 DUP10 ADD SLOAD PUSH1 0x9 SWAP1 SWAP10 ADD SLOAD SWAP8 SWAP9 SWAP7 SWAP8 SWAP6 SWAP7 SWAP5 SWAP6 SWAP4 SWAP5 SWAP3 SWAP4 SWAP2 SWAP3 SWAP1 SWAP2 PUSH1 0x1 PUSH1 0x1 PUSH1 0xA0 SHL SUB AND DUP11 JUMP JUMPDEST PUSH1 0x40 DUP1 MLOAD SWAP11 DUP12 MSTORE PUSH1 0x20 DUP12 ADD SWAP10 SWAP1 SWAP10 MSTORE SWAP8 DUP10 ADD SWAP7 SWAP1 SWAP7 MSTORE PUSH1 0x60 DUP9 ADD SWAP5 SWAP1 SWAP5 MSTORE PUSH1 0x80 DUP8 ADD SWAP3 SWAP1 SWAP3 MSTORE PUSH1 0xA0 DUP7 ADD MSTORE PUSH1 0xC0 DUP6 ADD MSTORE PUSH1 0xE0 DUP5 ADD MSTORE PUSH2 0x100 DUP4 ADD MSTORE PUSH1 0x1 PUSH1 0x1 PUSH1 0xA0 SHL SUB AND PUSH2 0x120 DUP3 ADD MSTORE PUSH2 0x140 ADD PUSH2 0xB6 JUMP JUMPDEST PUSH2 0x2E3 PUSH2 0x2DE CALLDATASIZE PUSH1 0x4 PUSH2 0x80D JUMP JUMPDEST PUSH2 0x7AB JUMP JUMPDEST PUSH1 0x40 MLOAD PUSH2 0xB6 SWAP2 SWAP1 PUSH2 0x9E7 JUMP JUMPDEST PUSH2 0x34F PUSH1 0x40 MLOAD DUP1 PUSH2 0x140 ADD PUSH1 0x40 MSTORE DUP1 PUSH1 0x0 DUP2 MSTORE PUSH1 0x20 ADD PUSH1 0x0 DUP2 MSTORE PUSH1 0x20 ADD PUSH1 0x0 DUP2 MSTORE PUSH1 0x20 ADD PUSH1 0x0 DUP2 MSTORE PUSH1 0x20 ADD PUSH1 0x0 DUP2 MSTORE PUSH1 0x20 ADD PUSH1 0x0 DUP2 MSTORE PUSH1 0x20 ADD PUSH1 0x0 DUP2 MSTORE PUSH1 0x20 ADD PUSH1 0x0 DUP2 MSTORE PUSH1 0x20 ADD PUSH1 0x0 DUP2 MSTORE PUSH1 0x20 ADD PUSH1 0x0 PUSH1 0x1 PUSH1 0x1 PUSH1 0xA0 SHL SUB AND DUP2 MSTORE POP SWAP1 JUMP JUMPDEST POP PUSH1 0x0 SWAP1 DUP2 MSTORE PUSH1 0x20 DUP2 DUP2 MSTORE PUSH1 0x40 SWAP2 DUP3 SWAP1 KECCAK256 DUP3 MLOAD PUSH2 0x140 DUP2 ADD DUP5 MSTORE DUP2 SLOAD DUP2 MSTORE PUSH1 0x1 DUP3 ADD SLOAD SWAP3 DUP2 ADD SWAP3 SWAP1 SWAP3 MSTORE PUSH1 0x2 DUP2 ADD SLOAD SWAP3 DUP3 ADD SWAP3 SWAP1 SWAP3 MSTORE PUSH1 0x3 DUP3 ADD SLOAD PUSH1 0x60 DUP3 ADD MSTORE PUSH1 0x4 DUP3 ADD SLOAD PUSH1 0x80 DUP3 ADD MSTORE PUSH1 0x5 DUP3 ADD SLOAD PUSH1 0xA0 DUP3 ADD MSTORE PUSH1 0x6 DUP3 ADD SLOAD PUSH1 0xC0 DUP3 ADD MSTORE PUSH1 0x7 DUP3 ADD SLOAD PUSH1 0xE0 DUP3 ADD MSTORE PUSH1 0x8 DUP3 ADD SLOAD PUSH2 0x100 DUP3 ADD MSTORE PUSH1 0x9 SWAP1 SWAP2 ADD SLOAD PUSH1 0x1 PUSH1 0x1 PUSH1 0xA0 SHL SUB AND PUSH2 0x120 DUP3 ADD MSTORE SWAP1 JUMP JUMPDEST PUSH2 0x41A PUSH1 0x40 MLOAD DUP1 PUSH1 0xE0 ADD PUSH1 0x40 MSTORE DUP1 PUSH1 0x0 DUP2 MSTORE PUSH1 0x20 ADD PUSH1 0x0 DUP2 MSTORE PUSH1 0x20 ADD PUSH1 0x0 DUP2 MSTORE PUSH1 0x20 ADD PUSH1 0x0 DUP2 MSTORE PUSH1 0x20 ADD PUSH1 0x0 DUP2 MSTORE PUSH1 0x20 ADD PUSH1 0x0 DUP2 MSTORE PUSH1 0x20 ADD PUSH1 0x0 DUP2 MSTORE POP SWAP1 JUMP JUMPDEST POP PUSH1 0x0 SWAP1 DUP2 MSTORE PUSH1 0x1 PUSH1 0x20 DUP2 DUP2 MSTORE PUSH1 0x40 SWAP3 DUP4 SWAP1 KECCAK256 DUP4 MLOAD PUSH1 0xE0 DUP2 ADD DUP6 MSTORE DUP2 SLOAD DUP2 MSTORE SWAP3 DUP2 ADD SLOAD SWAP2 DUP4 ADD SWAP2 SWAP1 SWAP2 MSTORE PUSH1 0x2 DUP2 ADD SLOAD SWAP3 DUP3 ADD SWAP3 SWAP1 SWAP3 MSTORE PUSH1 0x3 DUP3 ADD SLOAD PUSH1 0x60 DUP3 ADD MSTORE PUSH1 0x4 DUP3 ADD SLOAD PUSH1 0x80 DUP3 ADD MSTORE PUSH1 0x5 DUP3 ADD SLOAD PUSH1 0xA0 DUP3 ADD MSTORE PUSH1 0x6 SWAP1 SWAP2 ADD SLOAD PUSH1 0xC0 DUP3 ADD MSTORE SWAP1 JUMP JUMPDEST PUSH1 0x0 DUP2 DUP2 MSTORE PUSH1 0x1 PUSH1 0x20 MSTORE PUSH1 0x40 DUP2 KECCAK256 PUSH1 0x2 DUP2 ADD SLOAD DUP3 SWAP1 PUSH1 0x64 SWAP1 PUSH2 0x49F SWAP1 PUSH1 0x28 PUSH2 0xA41 JUMP JUMPDEST PUSH2 0x4A9 SWAP2 SWAP1 PUSH2 0xA5E JUMP JUMPDEST SWAP1 POP PUSH1 0x0 PUSH1 0x64 DUP4 PUSH1 0x3 ADD SLOAD PUSH1 0x1E PUSH2 0x4C0 SWAP2 SWAP1 PUSH2 0xA41 JUMP JUMPDEST PUSH2 0x4CA SWAP2 SWAP1 PUSH2 0xA5E JUMP JUMPDEST SWAP1 POP PUSH1 0x0 DUP4 PUSH1 0x6 ADD SLOAD PUSH2 0x7D0 PUSH2 0x4E0 SWAP2 SWAP1 PUSH2 0xA41 JUMP JUMPDEST SWAP1 POP PUSH1 0x0 DUP5 PUSH1 0x5 ADD SLOAD PUSH2 0x3E8 PUSH2 0x4F6 SWAP2 SWAP1 PUSH2 0xA41 JUMP JUMPDEST SWAP1 POP DUP1 DUP3 PUSH2 0x504 DUP6 DUP8 PUSH2 0xA80 JUMP JUMPDEST PUSH2 0x50E SWAP2 SWAP1 PUSH2 0xA80 JUMP JUMPDEST PUSH2 0x518 SWAP2 SWAP1 PUSH2 0xA80 JUMP JUMPDEST SWAP8 SWAP7 POP POP POP POP POP POP POP JUMP JUMPDEST PUSH1 0x0 DUP3 DUP2 MSTORE PUSH1 0x1 PUSH1 0x20 MSTORE PUSH1 0x40 DUP2 KECCAK256 PUSH1 0x6 DUP2 ADD DUP1 SLOAD SWAP2 SWAP3 PUSH2 0x542 DUP4 PUSH2 0xA93 JUMP JUMPDEST SWAP2 SWAP1 POP SSTORE POP DUP3 PUSH32 0xEADE2A6B26A0BE2B6E048BE61A4C37D3AAB166EA418E6AF0350B7D906073BB9C DUP4 PUSH1 0x40 MLOAD PUSH2 0x577 SWAP2 SWAP1 PUSH2 0xAAC JUMP JUMPDEST PUSH1 0x40 MLOAD DUP1 SWAP2 SUB SWAP1 LOG2 POP POP POP JUMP JUMPDEST PUSH1 0x3 DUP1 SLOAD PUSH1 0x0 SWAP2 DUP3 PUSH2 0x595 DUP4 PUSH2 0xA93 JUMP JUMPDEST SWAP1 SWAP2 SSTORE POP POP PUSH1 0x3 DUP1 SLOAD PUSH1 0x40 DUP1 MLOAD PUSH2 0x140 DUP2 ADD DUP3 MSTORE DUP3 DUP2 MSTORE PUSH1 0x20 DUP1 DUP3 ADD DUP14 DUP2 MSTORE DUP3 DUP5 ADD DUP14 DUP2 MSTORE PUSH1 0x60 DUP5 ADD DUP14 DUP2 MSTORE PUSH1 0x80 DUP6 ADD DUP14 DUP2 MSTORE PUSH1 0xA0 DUP7 ADD DUP14 DUP2 MSTORE PUSH1 0xC0 DUP8 ADD DUP14 DUP2 MSTORE PUSH1 0xE0 DUP9 ADD DUP14 DUP2 MSTORE TIMESTAMP PUSH2 0x100 DUP11 ADD SWAP1 DUP2 MSTORE CALLER PUSH2 0x120 DUP12 ADD SWAP1 DUP2 MSTORE PUSH1 0x0 DUP14 DUP2 MSTORE DUP1 DUP12 MSTORE DUP13 DUP2 KECCAK256 SWAP12 MLOAD DUP13 SSTORE SWAP9 MLOAD PUSH1 0x1 DUP1 DUP14 ADD SWAP2 SWAP1 SWAP2 SSTORE SWAP8 MLOAD PUSH1 0x2 DUP1 DUP14 ADD SWAP2 SWAP1 SWAP2 SSTORE SWAP7 MLOAD SWAP14 DUP12 ADD SWAP14 SWAP1 SWAP14 SSTORE SWAP4 MLOAD PUSH1 0x4 DUP11 ADD SSTORE SWAP2 MLOAD PUSH1 0x5 DUP10 ADD SSTORE MLOAD PUSH1 0x6 DUP9 ADD SSTORE MLOAD PUSH1 0x7 DUP8 ADD SSTORE MLOAD PUSH1 0x8 DUP7 ADD SSTORE SWAP7 MLOAD PUSH1 0x9 SWAP1 SWAP5 ADD DUP1 SLOAD PUSH1 0x1 PUSH1 0x1 PUSH1 0xA0 SHL SUB NOT AND PUSH1 0x1 PUSH1 0x1 PUSH1 0xA0 SHL SUB SWAP1 SWAP6 AND SWAP5 SWAP1 SWAP5 OR SWAP1 SWAP4 SSTORE DUP14 DUP2 MSTORE SWAP5 DUP2 MSTORE DUP3 DUP6 KECCAK256 DUP1 SLOAD DUP1 DUP5 ADD DUP3 SSTORE SWAP1 DUP7 MSTORE DUP2 DUP7 KECCAK256 ADD DUP5 SWAP1 SSTORE DUP13 DUP6 MSTORE DUP2 SWAP1 MSTORE SWAP1 DUP4 KECCAK256 SWAP1 DUP2 ADD DUP1 SLOAD SWAP3 SWAP4 SWAP2 SWAP3 SWAP2 PUSH2 0x698 DUP4 PUSH2 0xA93 JUMP JUMPDEST SWAP2 SWAP1 POP SSTORE POP DUP6 DUP2 PUSH1 0x3 ADD PUSH1 0x0 DUP3 DUP3 SLOAD PUSH2 0x6B1 SWAP2 SWAP1 PUSH2 0xA80 JUMP JUMPDEST SWAP1 SWAP2 SSTORE POP POP PUSH1 0x1 DUP1 DUP3 ADD SLOAD SWAP1 DUP9 SWAP1 PUSH2 0x6C9 SWAP1 DUP4 PUSH2 0xAFA JUMP JUMPDEST DUP4 PUSH1 0x2 ADD SLOAD PUSH2 0x6D8 SWAP2 SWAP1 PUSH2 0xA41 JUMP JUMPDEST PUSH2 0x6E2 SWAP2 SWAP1 PUSH2 0xA80 JUMP JUMPDEST PUSH2 0x6EC SWAP2 SWAP1 PUSH2 0xA5E JUMP JUMPDEST PUSH1 0x2 DUP3 ADD SSTORE PUSH1 0x4 DUP2 ADD SLOAD DUP8 GT ISZERO PUSH2 0x705 JUMPI PUSH1 0x4 DUP2 ADD DUP8 SWAP1 SSTORE JUMPDEST PUSH2 0x1B58 DUP8 LT PUSH2 0x72A JUMPI PUSH1 0x5 DUP2 ADD DUP1 SLOAD SWAP1 PUSH1 0x0 PUSH2 0x720 DUP4 PUSH2 0xA93 JUMP JUMPDEST SWAP2 SWAP1 POP SSTORE POP PUSH2 0x732 JUMP JUMPDEST PUSH1 0x0 PUSH1 0x5 DUP3 ADD SSTORE JUMPDEST DUP10 DUP3 PUSH32 0x49486DBD6BE152A280234D0B8B9E4800A401E0396357FE4600779C5321182322 DUP10 PUSH1 0x40 MLOAD PUSH2 0x765 SWAP2 DUP2 MSTORE PUSH1 0x20 ADD SWAP1 JUMP JUMPDEST PUSH1 0x40 MLOAD DUP1 SWAP2 SUB SWAP1 LOG3 POP SWAP9 SWAP8 POP POP POP POP POP POP POP POP JUMP JUMPDEST PUSH1 0x2 PUSH1 0x20 MSTORE DUP2 PUSH1 0x0 MSTORE PUSH1 0x40 PUSH1 0x0 KECCAK256 DUP2 DUP2 SLOAD DUP2 LT PUSH2 0x796 JUMPI PUSH1 0x0 DUP1 REVERT JUMPDEST SWAP1 PUSH1 0x0 MSTORE PUSH1 0x20 PUSH1 0x0 KECCAK256 ADD PUSH1 0x0 SWAP2 POP SWAP2 POP POP SLOAD DUP2 JUMP JUMPDEST PUSH1 0x0 DUP2 DUP2 MSTORE PUSH1 0x2 PUSH1 0x20 SWAP1 DUP2 MSTORE PUSH1 0x40 SWAP2 DUP3 SWAP1 KECCAK256 DUP1 SLOAD DUP4 MLOAD DUP2 DUP5 MUL DUP2 ADD DUP5 ADD SWAP1 SWAP5 MSTORE DUP1 DUP5 MSTORE PUSH1 0x60 SWAP4 SWAP3 DUP4 ADD DUP3 DUP3 DUP1 ISZERO PUSH2 0x801 JUMPI PUSH1 0x20 MUL DUP3 ADD SWAP2 SWAP1 PUSH1 0x0 MSTORE PUSH1 0x20 PUSH1 0x0 KECCAK256 SWAP1 JUMPDEST DUP2 SLOAD DUP2 MSTORE PUSH1 0x20 ADD SWAP1 PUSH1 0x1 ADD SWAP1 DUP1 DUP4 GT PUSH2 0x7ED JUMPI JUMPDEST POP POP POP POP POP SWAP1 POP SWAP2 SWAP1 POP JUMP JUMPDEST PUSH1 0x0 PUSH1 0x20 DUP3 DUP5 SUB SLT ISZERO PUSH2 0x81F JUMPI PUSH1 0x0 DUP1 REVERT JUMPDEST POP CALLDATALOAD SWAP2 SWAP1 POP JUMP JUMPDEST PUSH1 0x0 PUSH2 0x140 DUP3 ADD SWAP1 POP DUP3 MLOAD DUP3 MSTORE PUSH1 0x20 DUP4 ADD MLOAD PUSH1 0x20 DUP4 ADD MSTORE PUSH1 0x40 DUP4 ADD MLOAD PUSH1 0x40 DUP4 ADD MSTORE PUSH1 0x60 DUP4 ADD MLOAD PUSH1 0x60 DUP4 ADD MSTORE PUSH1 0x80 DUP4 ADD MLOAD PUSH1 0x80 DUP4 ADD MSTORE PUSH1 0xA0 DUP4 ADD MLOAD PUSH1 0xA0 DUP4 ADD MSTORE PUSH1 0xC0 DUP4 ADD MLOAD PUSH1 0xC0 DUP4 ADD MSTORE PUSH1 0xE0 DUP4 ADD MLOAD PUSH1 0xE0 DUP4 ADD MSTORE PUSH2 0x100 DUP1 DUP5 ADD MLOAD DUP2 DUP5 ADD MSTORE POP PUSH2 0x120 DUP1 DUP5 ADD MLOAD PUSH2 0x8A0 DUP3 DUP6 ADD DUP3 PUSH1 0x1 PUSH1 0x1 PUSH1 0xA0 SHL SUB AND SWAP1 MSTORE JUMP JUMPDEST POP POP SWAP3 SWAP2 POP POP JUMP JUMPDEST PUSH4 0x4E487B71 PUSH1 0xE0 SHL PUSH1 0x0 MSTORE PUSH1 0x41 PUSH1 0x4 MSTORE PUSH1 0x24 PUSH1 0x0 REVERT JUMPDEST PUSH1 0x0 DUP1 PUSH1 0x40 DUP4 DUP6 SUB SLT ISZERO PUSH2 0x8D1 JUMPI PUSH1 0x0 DUP1 REVERT JUMPDEST DUP3 CALLDATALOAD SWAP2 POP PUSH1 0x20 DUP4 ADD CALLDATALOAD PUSH8 0xFFFFFFFFFFFFFFFF DUP1 DUP3 GT ISZERO PUSH2 0x8F0 JUMPI PUSH1 0x0 DUP1 REVERT JUMPDEST DUP2 DUP6 ADD SWAP2 POP DUP6 PUSH1 0x1F DUP4 ADD SLT PUSH2 0x904 JUMPI PUSH1 0x0 DUP1 REVERT JUMPDEST DUP2 CALLDATALOAD DUP2 DUP2 GT ISZERO PUSH2 0x916 JUMPI PUSH2 0x916 PUSH2 0x8A8 JUMP JUMPDEST PUSH1 0x40 MLOAD PUSH1 0x1F DUP3 ADD PUSH1 0x1F NOT SWAP1 DUP2 AND PUSH1 0x3F ADD AND DUP2 ADD SWAP1 DUP4 DUP3 GT DUP2 DUP4 LT OR ISZERO PUSH2 0x93E JUMPI PUSH2 0x93E PUSH2 0x8A8 JUMP JUMPDEST DUP2 PUSH1 0x40 MSTORE DUP3 DUP2 MSTORE DUP9 PUSH1 0x20 DUP5 DUP8 ADD ADD GT ISZERO PUSH2 0x957 JUMPI PUSH1 0x0 DUP1 REVERT JUMPDEST DUP3 PUSH1 0x20 DUP7 ADD PUSH1 0x20 DUP4 ADD CALLDATACOPY PUSH1 0x0 PUSH1 0x20 DUP5 DUP4 ADD ADD MSTORE DUP1 SWAP6 POP POP POP POP POP POP SWAP3 POP SWAP3 SWAP1 POP JUMP JUMPDEST PUSH1 0x0 DUP1 PUSH1 0x0 DUP1 PUSH1 0x0 DUP1 PUSH1 0x0 PUSH1 0xE0 DUP9 DUP11 SUB SLT ISZERO PUSH2 0x994 JUMPI PUSH1 0x0 DUP1 REVERT JUMPDEST POP POP DUP6 CALLDATALOAD SWAP8 PUSH1 0x20 DUP8 ADD CALLDATALOAD SWAP8 POP PUSH1 0x40 DUP8 ADD CALLDATALOAD SWAP7 PUSH1 0x60 DUP2 ADD CALLDATALOAD SWAP7 POP PUSH1 0x80 DUP2 ADD CALLDATALOAD SWAP6 POP PUSH1 0xA0 DUP2 ADD CALLDATALOAD SWAP5 POP PUSH1 0xC0 ADD CALLDATALOAD SWAP3 POP SWAP1 POP JUMP JUMPDEST PUSH1 0x0 DUP1 PUSH1 0x40 DUP4 DUP6 SUB SLT ISZERO PUSH2 0x9D8 JUMPI PUSH1 0x0 DUP1 REVERT JUMPDEST POP POP DUP1 CALLDATALOAD SWAP3 PUSH1 0x20 SWAP1 SWAP2 ADD CALLDATALOAD SWAP2 POP JUMP JUMPDEST PUSH1 0x20 DUP1 DUP3 MSTORE DUP3 MLOAD DUP3 DUP3 ADD DUP2 SWAP1 MSTORE PUSH1 0x0 SWAP2 SWAP1 DUP5 DUP3 ADD SWAP1 PUSH1 0x40 DUP6 ADD SWAP1 DUP5 JUMPDEST DUP2 DUP2 LT ISZERO PUSH2 0xA1F JUMPI DUP4 MLOAD DUP4 MSTORE SWAP3 DUP5 ADD SWAP3 SWAP2 DUP5 ADD SWAP2 PUSH1 0x1 ADD PUSH2 0xA03 JUMP JUMPDEST POP SWAP1 SWAP7 SWAP6 POP POP POP POP POP POP JUMP JUMPDEST PUSH4 0x4E487B71 PUSH1 0xE0 SHL PUSH1 0x0 MSTORE PUSH1 0x11 PUSH1 0x4 MSTORE PUSH1 0x24 PUSH1 0x0 REVERT JUMPDEST DUP1 DUP3 MUL DUP2 ISZERO DUP3 DUP3 DIV DUP5 EQ OR PUSH2 0xA58 JUMPI PUSH2 0xA58 PUSH2 0xA2B JUMP JUMPDEST SWAP3 SWAP2 POP POP JUMP JUMPDEST PUSH1 0x0 DUP3 PUSH2 0xA7B JUMPI PUSH4 0x4E487B71 PUSH1 0xE0 SHL PUSH1 0x0 MSTORE PUSH1 0x12 PUSH1 0x4 MSTORE PUSH1 0x24 PUSH1 0x0 REVERT JUMPDEST POP DIV SWAP1 JUMP JUMPDEST DUP1 DUP3 ADD DUP1 DUP3 GT ISZERO PUSH2 0xA58 JUMPI PUSH2 0xA58 PUSH2 0xA2B JUMP JUMPDEST PUSH1 0x0 PUSH1 0x1 DUP3 ADD PUSH2 0xAA5 JUMPI PUSH2 0xAA5 PUSH2 0xA2B JUMP JUMPDEST POP PUSH1 0x1 ADD SWAP1 JUMP JUMPDEST PUSH1 0x0 PUSH1 0x20 DUP1 DUP4 MSTORE DUP4 MLOAD DUP1 DUP3 DUP6 ADD MSTORE PUSH1 0x0 JUMPDEST DUP2 DUP2 LT ISZERO PUSH2 0xAD9 JUMPI DUP6 DUP2 ADD DUP4 ADD MLOAD DUP6 DUP3 ADD PUSH1 0x40 ADD MSTORE DUP3 ADD PUSH2 0xABD JUMP JUMPDEST POP PUSH1 0x0 PUSH1 0x40 DUP3 DUP7 ADD ADD MSTORE PUSH1 0x40 PUSH1 0x1F NOT PUSH1 0x1F DUP4 ADD AND DUP6 ADD ADD SWAP3 POP POP POP SWAP3 SWAP2 POP POP JUMP JUMPDEST DUP2 DUP2 SUB DUP2 DUP2 GT ISZERO PUSH2 0xA58 JUMPI PUSH2 0xA58 PUSH2 0xA2B JUMP INVALID LOG2 PUSH5 0x6970667358 0x22 SLT KECCAK256 PUSH8 0x6D4E65BC7E6D3BD4 ADD 0xC6 0xE8 0x4A SELFDESTRUCT 0x24 0xFB 0x4B PUSH24 0x6ECF44801360C1019219BE48E62D64736F6C634300081400 CALLER "},"methodIdentifiers":{"awardTalent(uint256,string)":"b93ce424","calculateTalentScore(uint256)":"aa13e16c","careerStats(uint256)":"60e6faee","getCareerStats(uint256)":"9ce0760e","getPerformance(uint256)":"47625694","getTalentPerformances(uint256)":"f5ff636d","performanceCount()":"1f606c31","performances(uint256)":"dcbc3bb3","recordPerformance(uint256,uint256,uint256,uint256,uint256,uint256,uint256)":"c2354e80","talentPerformances(uint256,uint256)":"d03d2bbd"}}}}}