{"contracts/layer4/talent/TalentMarketplace.sol":{"TalentMarketplace":{"abi":[{"inputs":[],"stateMutability":"nonpayable","type":"constructor"},{"inputs":[{"internalType":"address","name":"owner","type":"address"}],"name":"OwnableInvalidOwner","type":"error"},{"inputs":[{"internalType":"address","name":"account","type":"address"}],"name":"OwnableUnauthorizedAccount","type":"error"},{"inputs":[],"name":"ReentrancyGuardReentrantCall","type":"error"},{"anonymous":false,"inputs":[{"indexed":true,"internalType":"uint256","name":"bookingId","type":"uint256"}],"name":"BookingCompleted","type":"event"},{"anonymous":false,"inputs":[{"indexed":true,"internalType":"address","name":"previousOwner","type":"address"},{"indexed":true,"internalType":"address","name":"newOwner","type":"address"}],"name":"OwnershipTransferred","type":"event"},{"anonymous":false,"inputs":[{"indexed":true,"internalType":"uint256","name":"bookingId","type":"uint256"},{"indexed":true,"internalType":"uint256","name":"listingId","type":"uint256"},{"indexed":false,"internalType":"uint256","name":"movieId","type":"uint256"},{"indexed":false,"internalType":"uint256","name":"fee","type":"uint256"}],"name":"TalentBooked","type":"event"},{"anonymous":false,"inputs":[{"indexed":true,"internalType":"uint256","name":"listingId","type":"uint256"},{"indexed":false,"internalType":"enum TalentMarketplace.TalentType","name":"talentType","type":"uint8"},{"indexed":false,"internalType":"uint256","name":"talentId","type":"uint256"},{"indexed":false,"internalType":"uint256","name":"rate","type":"uint256"}],"name":"TalentListed","type":"event"},{"inputs":[{"internalType":"uint256","name":"listingId","type":"uint256"},{"internalType":"uint256","name":"movieId","type":"uint256"},{"internalType":"uint256","name":"durationDays","type":"uint256"}],"name":"bookTalent","outputs":[{"internalType":"uint256","name":"","type":"uint256"}],"stateMutability":"payable","type":"function"},{"inputs":[],"name":"bookingCount","outputs":[{"internalType":"uint256","name":"","type":"uint256"}],"stateMutability":"view","type":"function"},{"inputs":[{"internalType":"uint256","name":"","type":"uint256"}],"name":"bookings","outputs":[{"internalType":"uint256","name":"bookingId","type":"uint256"},{"internalType":"uint256","name":"listingId","type":"uint256"},{"internalType":"uint256","name":"movieId","type":"uint256"},{"internalType":"address","name":"producer","type":"address"},{"internalType":"uint256","name":"fee","type":"uint256"},{"internalType":"uint256","name":"startDate","type":"uint256"},{"internalType":"uint256","name":"endDate","type":"uint256"},{"internalType":"enum TalentMarketplace.BookingStatus","name":"status","type":"uint8"}],"stateMutability":"view","type":"function"},{"inputs":[{"internalType":"uint256","name":"bookingId","type":"uint256"}],"name":"completeBooking","outputs":[],"stateMutability":"nonpayable","type":"function"},{"inputs":[{"internalType":"uint256","name":"bookingId","type":"uint256"}],"name":"getBooking","outputs":[{"components":[{"internalType":"uint256","name":"bookingId","type":"uint256"},{"internalType":"uint256","name":"listingId","type":"uint256"},{"internalType":"uint256","name":"movieId","type":"uint256"},{"internalType":"address","name":"producer","type":"address"},{"internalType":"uint256","name":"fee","type":"uint256"},{"internalType":"uint256","name":"startDate","type":"uint256"},{"internalType":"uint256","name":"endDate","type":"uint256"},{"internalType":"enum TalentMarketplace.BookingStatus","name":"status","type":"uint8"}],"internalType":"struct TalentMarketplace.Booking","name":"","type":"tuple"}],"stateMutability":"view","type":"function"},{"inputs":[{"internalType":"uint256","name":"listingId","type":"uint256"}],"name":"getListing","outputs":[{"components":[{"internalType":"uint256","name":"listingId","type":"uint256"},{"internalType":"enum TalentMarketplace.TalentType","name":"talentType","type":"uint8"},{"internalType":"uint256","name":"talentId","type":"uint256"},{"internalType":"address","name":"owner","type":"address"},{"internalType":"uint256","name":"rate","type":"uint256"},{"internalType":"bool","name":"exclusive","type":"bool"},{"internalType":"bool","name":"available","type":"bool"},{"internalType":"uint256","name":"minProjectBudget","type":"uint256"},{"internalType":"uint256","name":"totalBookings","type":"uint256"}],"internalType":"struct TalentMarketplace.TalentListing","name":"","type":"tuple"}],"stateMutability":"view","type":"function"},{"inputs":[{"internalType":"enum TalentMarketplace.TalentType","name":"talentType","type":"uint8"},{"internalType":"uint256","name":"talentId","type":"uint256"},{"internalType":"uint256","name":"rate","type":"uint256"},{"internalType":"bool","name":"exclusive","type":"bool"},{"internalType":"uint256","name":"minProjectBudget","type":"uint256"}],"name":"listTalent","outputs":[{"internalType":"uint256","name":"","type":"uint256"}],"stateMutability":"nonpayable","type":"function"},{"inputs":[],"name":"listingCount","outputs":[{"internalType":"uint256","name":"","type":"uint256"}],"stateMutability":"view","type":"function"},{"inputs":[{"internalType":"uint256","name":"","type":"uint256"}],"name":"listings","outputs":[{"internalType":"uint256","name":"listingId","type":"uint256"},{"internalType":"enum TalentMarketplace.TalentType","name":"talentType","type":"uint8"},{"internalType":"uint256","name":"talentId","type":"uint256"},{"internalType":"address","name":"owner","type":"address"},{"internalType":"uint256","name":"rate","type":"uint256"},{"internalType":"bool","name":"exclusive","type":"bool"},{"internalType":"bool","name":"available","type":"bool"},{"internalType":"uint256","name":"minProjectBudget","type":"uint256"},{"internalType":"uint256","name":"totalBookings","type":"uint256"}],"stateMutability":"view","type":"function"},{"inputs":[],"name":"owner","outputs":[{"internalType":"address","name":"","type":"address"}],"stateMutability":"view","type":"function"},{"inputs":[],"name":"platformFee","outputs":[{"internalType":"uint256","name":"","type":"uint256"}],"stateMutability":"view","type":"function"},{"inputs":[],"name":"renounceOwnership","outputs":[],"stateMutability":"nonpayable","type":"function"},{"inputs":[{"internalType":"address","name":"newOwner","type":"address"}],"name":"transferOwnership","outputs":[],"stateMutability":"nonpayable","type":"function"},{"inputs":[{"internalType":"uint256","name":"listingId","type":"uint256"},{"internalType":"uint256","name":"newRate","type":"uint256"},{"internalType":"bool","name":"available","type":"bool"}],"name":"updateListing","outputs":[],"stateMutability":"nonpayable","type":"function"}],"evm":{"bytecode":{"linkReferences":{},"object":"608060405260fa60065534801561001557600080fd5b50338061003c57604051631e4fbdf760e01b81526000600482015260240160405180910390fd5b6100458161004f565b506001805561009f565b600080546001600160a01b038381166001600160a01b0319831681178455604051919092169283917f8be0079c531659141344cd1fd0a4f28419497f9722a3daafe3b4186f6b6457e09190a35050565b611058806100ae6000396000f3fe6080604052600436106100dd5760003560e01c80636d7591721161007f578063a9b07c2611610059578063a9b07c2614610293578063dda12b4b146102a9578063de74e57b146102c9578063f2fde38b1461035957600080fd5b80636d75917214610240578063715018a6146102565780638da5cb5b1461026b57600080fd5b80631e88aaea116100bb5780631e88aaea146101bc57806326232a2e146101ea578063508dad46146102005780636a5c841a1461021357600080fd5b8063107a274a146100e25780631a2b3431146101185780631dab301e1461013a575b600080fd5b3480156100ee57600080fd5b506101026100fd366004610c95565b610379565b60405161010f9190610cd8565b60405180910390f35b34801561012457600080fd5b50610138610133366004610c95565b610475565b005b34801561014657600080fd5b506101a8610155366004610c95565b6003602081905260009182526040909120805460018201546002830154938301546004840154600585015460068601546007909601549496939593946001600160a01b0390931693919290919060ff1688565b60405161010f989796959493929190610d67565b3480156101c857600080fd5b506101dc6101d7366004610dd0565b61059f565b60405190815260200161010f565b3480156101f657600080fd5b506101dc60065481565b6101dc61020e366004610e24565b61072b565b34801561021f57600080fd5b5061023361022e366004610c95565b610a19565b60405161010f9190610e50565b34801561024c57600080fd5b506101dc60055481565b34801561026257600080fd5b50610138610ac2565b34801561027757600080fd5b506000546040516001600160a01b03909116815260200161010f565b34801561029f57600080fd5b506101dc60045481565b3480156102b557600080fd5b506101386102c4366004610eba565b610ad6565b3480156102d557600080fd5b506103446102e4366004610c95565b600260208190526000918252604090912080546001820154928201546003830154600484015460058501546006860154600790960154949660ff9081169694956001600160a01b0390941694929382821693610100909304909116919089565b60405161010f99989796959493929190610eef565b34801561036557600080fd5b50610138610374366004610f46565b610b52565b6040805161012081018252600080825260208201819052918101829052606081018290526080810182905260a0810182905260c0810182905260e0810182905261010081019190915260008281526002602090815260409182902082516101208101909352805483526001810154909183019060ff16600481111561040057610400610cae565b600481111561041157610411610cae565b81526002820154602082015260038201546001600160a01b0316604082015260048201546060820152600582015460ff8082161515608084015261010090910416151560a0820152600682015460c082015260079091015460e09091015292915050565b6000818152600360208190526040909120908101546001600160a01b031633146104d55760405162461bcd60e51b815260206004820152600c60248201526b2737ba10383937b23ab1b2b960a11b60448201526064015b60405180910390fd5b6001600782015460ff1660038111156104f0576104f0610cae565b1461052a5760405162461bcd60e51b815260206004820152600a6024820152694e6f742061637469766560b01b60448201526064016104cc565b60078101805460ff191660029081179091556001820154600090815260209190915260409020600581015460ff161561056f5760058101805461ff0019166101001790555b60405183907fe70f5cb5ecde9644c195a97cf45a506de023d1d170cd972f04441fafd993f15090600090a2505050565b60048054600091826105b083610f85565b9190505550600060045490506040518061012001604052808281526020018860048111156105e0576105e0610cae565b8152602001878152602001336001600160a01b0316815260200186815260200185151581526020016001151581526020018481526020016000815250600260008381526020019081526020016000206000820151816000015560208201518160010160006101000a81548160ff0219169083600481111561066357610663610cae565b0217905550604082810151600283015560608301516003830180546001600160a01b0319166001600160a01b039092169190911790556080830151600483015560a083015160058301805460c086015161ffff1990911692151561ff00191692909217610100921515830217905560e08401516006840155909201516007909101555181907f93b27249b9fd0dbfd202429d49121a45070ad257ace9f29d6fb320497bd88b1e90610719908a908a908a90610f9e565b60405180910390a29695505050505050565b6000610735610b90565b60008481526002602052604090206005810154610100900460ff1661078c5760405162461bcd60e51b815260206004820152600d60248201526c4e6f7420617661696c61626c6560981b60448201526064016104cc565b600083826004015461079e9190610fbd565b9050803410156107e75760405162461bcd60e51b8152602060048201526014602482015273125b9cdd59999a58da595b9d081c185e5b595b9d60621b60448201526064016104cc565b600580549060006107f783610f85565b9091555050600554604080516101008101825282815260208101899052908101879052336060820152608081018390524260a082015260c0810161083e8762015180610fbd565b6108489042610fda565b81526001602091820181905260008481526003808452604091829020855181559385015184840155908401516002840155606084015183820180546001600160a01b0319166001600160a01b039092169190911790556080840151600484015560a0840151600584015560c0840151600684015560e08401516007840180549193909260ff199092169184908111156108e3576108e3610cae565b02179055505050600583015460ff16156109055760058301805461ff00191690555b60078301805490600061091783610f85565b919050555060006127106006548461092f9190610fbd565b6109399190610fed565b90506000610947828561100f565b60038601546040519192506001600160a01b03169082156108fc029083906000818181858888f19350505050158015610984573d6000803e3d6000fd5b50833411156109c557336108fc61099b863461100f565b6040518115909202916000818181858888f193505050501580156109c3573d6000803e3d6000fd5b505b60408051898152602081018690528a9185917fb4e3ca637013414856d88cd9e244f1e342c3abd5775c979354af0c1b84378f59910160405180910390a350909350505050610a1260018055565b9392505050565b610a21610c37565b60008281526003602081815260409283902083516101008101855281548152600182015492810192909252600281015493820193909352828201546001600160a01b0316606082015260048301546080820152600583015460a0820152600683015460c0820152600783015490929160e084019160ff1690811115610aa857610aa8610cae565b6003811115610ab957610ab9610cae565b90525092915050565b610aca610bba565b610ad46000610be7565b565b600083815260026020526040902060038101546001600160a01b03163314610b2c5760405162461bcd60e51b81526020600482015260096024820152682737ba1037bbb732b960b91b60448201526064016104cc565b6004810192909255600590910180549115156101000261ff001990921691909117905550565b610b5a610bba565b6001600160a01b038116610b8457604051631e4fbdf760e01b8152600060048201526024016104cc565b610b8d81610be7565b50565b600260015403610bb357604051633ee5aeb560e01b815260040160405180910390fd5b6002600155565b6000546001600160a01b03163314610ad45760405163118cdaa760e01b81523360048201526024016104cc565b600080546001600160a01b038381166001600160a01b0319831681178455604051919092169283917f8be0079c531659141344cd1fd0a4f28419497f9722a3daafe3b4186f6b6457e09190a35050565b60405180610100016040528060008152602001600081526020016000815260200160006001600160a01b0316815260200160008152602001600081526020016000815260200160006003811115610c9057610c90610cae565b905290565b600060208284031215610ca757600080fd5b5035919050565b634e487b7160e01b600052602160045260246000fd5b60058110610cd457610cd4610cae565b9052565b81518152602080830151610120830191610cf490840182610cc4565b506040830151604083015260018060a01b0360608401511660608301526080830151608083015260a0830151151560a083015260c0830151610d3a60c084018215159052565b5060e083015160e083015261010080840151818401525092915050565b60048110610cd457610cd4610cae565b88815260208101889052604081018790526001600160a01b03861660608201526080810185905260a0810184905260c081018390526101008101610dae60e0830184610d57565b9998505050505050505050565b80358015158114610dcb57600080fd5b919050565b600080600080600060a08688031215610de857600080fd5b853560058110610df757600080fd5b94506020860135935060408601359250610e1360608701610dbb565b949793965091946080013592915050565b600080600060608486031215610e3957600080fd5b505081359360208301359350604090920135919050565b60006101008201905082518252602083015160208301526040830151604083015260018060a01b0360608401511660608301526080830151608083015260a083015160a083015260c083015160c083015260e0830151610eb360e0840182610d57565b5092915050565b600080600060608486031215610ecf57600080fd5b8335925060208401359150610ee660408501610dbb565b90509250925092565b8981526101208101610f04602083018b610cc4565b60408201989098526001600160a01b03969096166060870152608086019490945291151560a0850152151560c084015260e08301526101009091015292915050565b600060208284031215610f5857600080fd5b81356001600160a01b0381168114610a1257600080fd5b634e487b7160e01b600052601160045260246000fd5b600060018201610f9757610f97610f6f565b5060010190565b60608101610fac8286610cc4565b602082019390935260400152919050565b8082028115828204841417610fd457610fd4610f6f565b92915050565b80820180821115610fd457610fd4610f6f565b60008261100a57634e487b7160e01b600052601260045260246000fd5b500490565b81810381811115610fd457610fd4610f6f56fea264697066735822122061132208adc112c39d6eb6504f46f1dba3be5246d2564ca138d8ea9b6af9abbb64736f6c63430008140033","opcodes":"PUSH1 0x80 PUSH1 0x40 MSTORE PUSH1 0xFA PUSH1 0x6 SSTORE CALLVALUE DUP1 ISZERO PUSH2 0x15 JUMPI PUSH1 0x0 DUP1 REVERT JUMPDEST POP CALLER DUP1 PUSH2 0x3C JUMPI PUSH1 0x40 MLOAD PUSH4 0x1E4FBDF7 PUSH1 0xE0 SHL DUP2 MSTORE PUSH1 0x0 PUSH1 0x4 DUP3 ADD MSTORE PUSH1 0x24 ADD PUSH1 0x40 MLOAD DUP1 SWAP2 SUB SWAP1 REVERT JUMPDEST PUSH2 0x45 DUP2 PUSH2 0x4F JUMP JUMPDEST POP PUSH1 0x1 DUP1 SSTORE PUSH2 0x9F JUMP JUMPDEST PUSH1 0x0 DUP1 SLOAD PUSH1 0x1 PUSH1 0x1 PUSH1 0xA0 SHL SUB DUP4 DUP2 AND PUSH1 0x1 PUSH1 0x1 PUSH1 0xA0 SHL SUB NOT DUP4 AND DUP2 OR DUP5 SSTORE PUSH1 0x40 MLOAD SWAP2 SWAP1 SWAP3 AND SWAP3 DUP4 SWAP2 PUSH32 0x8BE0079C531659141344CD1FD0A4F28419497F9722A3DAAFE3B4186F6B6457E0 SWAP2 SWAP1 LOG3 POP POP JUMP JUMPDEST PUSH2 0x1058 DUP1 PUSH2 0xAE PUSH1 0x0 CODECOPY PUSH1 0x0 RETURN INVALID PUSH1 0x80 PUSH1 0x40 MSTORE PUSH1 0x4 CALLDATASIZE LT PUSH2 0xDD JUMPI PUSH1 0x0 CALLDATALOAD PUSH1 0xE0 SHR DUP1 PUSH4 0x6D759172 GT PUSH2 0x7F JUMPI DUP1 PUSH4 0xA9B07C26 GT PUSH2 0x59 JUMPI DUP1 PUSH4 0xA9B07C26 EQ PUSH2 0x293 JUMPI DUP1 PUSH4 0xDDA12B4B EQ PUSH2 0x2A9 JUMPI DUP1 PUSH4 0xDE74E57B EQ PUSH2 0x2C9 JUMPI DUP1 PUSH4 0xF2FDE38B EQ PUSH2 0x359 JUMPI PUSH1 0x0 DUP1 REVERT JUMPDEST DUP1 PUSH4 0x6D759172 EQ PUSH2 0x240 JUMPI DUP1 PUSH4 0x715018A6 EQ PUSH2 0x256 JUMPI DUP1 PUSH4 0x8DA5CB5B EQ PUSH2 0x26B JUMPI PUSH1 0x0 DUP1 REVERT JUMPDEST DUP1 PUSH4 0x1E88AAEA GT PUSH2 0xBB JUMPI DUP1 PUSH4 0x1E88AAEA EQ PUSH2 0x1BC JUMPI DUP1 PUSH4 0x26232A2E EQ PUSH2 0x1EA JUMPI DUP1 PUSH4 0x508DAD46 EQ PUSH2 0x200 JUMPI DUP1 PUSH4 0x6A5C841A EQ PUSH2 0x213 JUMPI PUSH1 0x0 DUP1 REVERT JUMPDEST DUP1 PUSH4 0x107A274A EQ PUSH2 0xE2 JUMPI DUP1 PUSH4 0x1A2B3431 EQ PUSH2 0x118 JUMPI DUP1 PUSH4 0x1DAB301E EQ PUSH2 0x13A JUMPI JUMPDEST PUSH1 0x0 DUP1 REVERT JUMPDEST CALLVALUE DUP1 ISZERO PUSH2 0xEE JUMPI PUSH1 0x0 DUP1 REVERT JUMPDEST POP PUSH2 0x102 PUSH2 0xFD CALLDATASIZE PUSH1 0x4 PUSH2 0xC95 JUMP JUMPDEST PUSH2 0x379 JUMP JUMPDEST PUSH1 0x40 MLOAD PUSH2 0x10F SWAP2 SWAP1 PUSH2 0xCD8 JUMP JUMPDEST PUSH1 0x40 MLOAD DUP1 SWAP2 SUB SWAP1 RETURN JUMPDEST CALLVALUE DUP1 ISZERO PUSH2 0x124 JUMPI PUSH1 0x0 DUP1 REVERT JUMPDEST POP PUSH2 0x138 PUSH2 0x133 CALLDATASIZE PUSH1 0x4 PUSH2 0xC95 JUMP JUMPDEST PUSH2 0x475 JUMP JUMPDEST STOP JUMPDEST CALLVALUE DUP1 ISZERO PUSH2 0x146 JUMPI PUSH1 0x0 DUP1 REVERT JUMPDEST POP PUSH2 0x1A8 PUSH2 0x155 CALLDATASIZE PUSH1 0x4 PUSH2 0xC95 JUMP JUMPDEST PUSH1 0x3 PUSH1 0x20 DUP2 SWAP1 MSTORE PUSH1 0x0 SWAP2 DUP3 MSTORE PUSH1 0x40 SWAP1 SWAP2 KECCAK256 DUP1 SLOAD PUSH1 0x1 DUP3 ADD SLOAD PUSH1 0x2 DUP4 ADD SLOAD SWAP4 DUP4 ADD SLOAD PUSH1 0x4 DUP5 ADD SLOAD PUSH1 0x5 DUP6 ADD SLOAD PUSH1 0x6 DUP7 ADD SLOAD PUSH1 0x7 SWAP1 SWAP7 ADD SLOAD SWAP5 SWAP7 SWAP4 SWAP6 SWAP4 SWAP5 PUSH1 0x1 PUSH1 0x1 PUSH1 0xA0 SHL SUB SWAP1 SWAP4 AND SWAP4 SWAP2 SWAP3 SWAP1 SWAP2 SWAP1 PUSH1 0xFF AND DUP9 JUMP JUMPDEST PUSH1 0x40 MLOAD PUSH2 0x10F SWAP9 SWAP8 SWAP7 SWAP6 SWAP5 SWAP4 SWAP3 SWAP2 SWAP1 PUSH2 0xD67 JUMP JUMPDEST CALLVALUE DUP1 ISZERO PUSH2 0x1C8 JUMPI PUSH1 0x0 DUP1 REVERT JUMPDEST POP PUSH2 0x1DC PUSH2 0x1D7 CALLDATASIZE PUSH1 0x4 PUSH2 0xDD0 JUMP JUMPDEST PUSH2 0x59F JUMP JUMPDEST PUSH1 0x40 MLOAD SWAP1 DUP2 MSTORE PUSH1 0x20 ADD PUSH2 0x10F JUMP JUMPDEST CALLVALUE DUP1 ISZERO PUSH2 0x1F6 JUMPI PUSH1 0x0 DUP1 REVERT JUMPDEST POP PUSH2 0x1DC PUSH1 0x6 SLOAD DUP2 JUMP JUMPDEST PUSH2 0x1DC PUSH2 0x20E CALLDATASIZE PUSH1 0x4 PUSH2 0xE24 JUMP JUMPDEST PUSH2 0x72B JUMP JUMPDEST CALLVALUE DUP1 ISZERO PUSH2 0x21F JUMPI PUSH1 0x0 DUP1 REVERT JUMPDEST POP PUSH2 0x233 PUSH2 0x22E CALLDATASIZE PUSH1 0x4 PUSH2 0xC95 JUMP JUMPDEST PUSH2 0xA19 JUMP JUMPDEST PUSH1 0x40 MLOAD PUSH2 0x10F SWAP2 SWAP1 PUSH2 0xE50 JUMP JUMPDEST CALLVALUE DUP1 ISZERO PUSH2 0x24C JUMPI PUSH1 0x0 DUP1 REVERT JUMPDEST POP PUSH2 0x1DC PUSH1 0x5 SLOAD DUP2 JUMP JUMPDEST CALLVALUE DUP1 ISZERO PUSH2 0x262 JUMPI PUSH1 0x0 DUP1 REVERT JUMPDEST POP PUSH2 0x138 PUSH2 0xAC2 JUMP JUMPDEST CALLVALUE DUP1 ISZERO PUSH2 0x277 JUMPI PUSH1 0x0 DUP1 REVERT JUMPDEST POP PUSH1 0x0 SLOAD PUSH1 0x40 MLOAD PUSH1 0x1 PUSH1 0x1 PUSH1 0xA0 SHL SUB SWAP1 SWAP2 AND DUP2 MSTORE PUSH1 0x20 ADD PUSH2 0x10F JUMP JUMPDEST CALLVALUE DUP1 ISZERO PUSH2 0x29F JUMPI PUSH1 0x0 DUP1 REVERT JUMPDEST POP PUSH2 0x1DC PUSH1 0x4 SLOAD DUP2 JUMP JUMPDEST CALLVALUE DUP1 ISZERO PUSH2 0x2B5 JUMPI PUSH1 0x0 DUP1 REVERT JUMPDEST POP PUSH2 0x138 PUSH2 0x2C4 CALLDATASIZE PUSH1 0x4 PUSH2 0xEBA JUMP JUMPDEST PUSH2 0xAD6 JUMP JUMPDEST CALLVALUE DUP1 ISZERO PUSH2 0x2D5 JUMPI PUSH1 0x0 DUP1 REVERT JUMPDEST POP PUSH2 0x344 PUSH2 0x2E4 CALLDATASIZE PUSH1 0x4 PUSH2 0xC95 JUMP JUMPDEST PUSH1 0x2 PUSH1 0x20 DUP2 SWAP1 MSTORE PUSH1 0x0 SWAP2 DUP3 MSTORE PUSH1 0x40 SWAP1 SWAP2 KECCAK256 DUP1 SLOAD PUSH1 0x1 DUP3 ADD SLOAD SWAP3 DUP3 ADD SLOAD PUSH1 0x3 DUP4 ADD SLOAD PUSH1 0x4 DUP5 ADD SLOAD PUSH1 0x5 DUP6 ADD SLOAD PUSH1 0x6 DUP7 ADD SLOAD PUSH1 0x7 SWAP1 SWAP7 ADD SLOAD SWAP5 SWAP7 PUSH1 0xFF SWAP1 DUP2 AND SWAP7 SWAP5 SWAP6 PUSH1 0x1 PUSH1 0x1 PUSH1 0xA0 SHL SUB SWAP1 SWAP5 AND SWAP5 SWAP3 SWAP4 DUP3 DUP3 AND SWAP4 PUSH2 0x100 SWAP1 SWAP4 DIV SWAP1 SWAP2 AND SWAP2 SWAP1 DUP10 JUMP JUMPDEST PUSH1 0x40 MLOAD PUSH2 0x10F SWAP10 SWAP9 SWAP8 SWAP7 SWAP6 SWAP5 SWAP4 SWAP3 SWAP2 SWAP1 PUSH2 0xEEF JUMP JUMPDEST CALLVALUE DUP1 ISZERO PUSH2 0x365 JUMPI PUSH1 0x0 DUP1 REVERT JUMPDEST POP PUSH2 0x138 PUSH2 0x374 CALLDATASIZE PUSH1 0x4 PUSH2 0xF46 JUMP JUMPDEST PUSH2 0xB52 JUMP JUMPDEST PUSH1 0x40 DUP1 MLOAD PUSH2 0x120 DUP2 ADD DUP3 MSTORE PUSH1 0x0 DUP1 DUP3 MSTORE PUSH1 0x20 DUP3 ADD DUP2 SWAP1 MSTORE SWAP2 DUP2 ADD DUP3 SWAP1 MSTORE PUSH1 0x60 DUP2 ADD DUP3 SWAP1 MSTORE PUSH1 0x80 DUP2 ADD DUP3 SWAP1 MSTORE PUSH1 0xA0 DUP2 ADD DUP3 SWAP1 MSTORE PUSH1 0xC0 DUP2 ADD DUP3 SWAP1 MSTORE PUSH1 0xE0 DUP2 ADD DUP3 SWAP1 MSTORE PUSH2 0x100 DUP2 ADD SWAP2 SWAP1 SWAP2 MSTORE PUSH1 0x0 DUP3 DUP2 MSTORE PUSH1 0x2 PUSH1 0x20 SWAP1 DUP2 MSTORE PUSH1 0x40 SWAP2 DUP3 SWAP1 KECCAK256 DUP3 MLOAD PUSH2 0x120 DUP2 ADD SWAP1 SWAP4 MSTORE DUP1 SLOAD DUP4 MSTORE PUSH1 0x1 DUP2 ADD SLOAD SWAP1 SWAP2 DUP4 ADD SWAP1 PUSH1 0xFF AND PUSH1 0x4 DUP2 GT ISZERO PUSH2 0x400 JUMPI PUSH2 0x400 PUSH2 0xCAE JUMP JUMPDEST PUSH1 0x4 DUP2 GT ISZERO PUSH2 0x411 JUMPI PUSH2 0x411 PUSH2 0xCAE JUMP JUMPDEST DUP2 MSTORE PUSH1 0x2 DUP3 ADD SLOAD PUSH1 0x20 DUP3 ADD MSTORE PUSH1 0x3 DUP3 ADD SLOAD PUSH1 0x1 PUSH1 0x1 PUSH1 0xA0 SHL SUB AND PUSH1 0x40 DUP3 ADD MSTORE PUSH1 0x4 DUP3 ADD SLOAD PUSH1 0x60 DUP3 ADD MSTORE PUSH1 0x5 DUP3 ADD SLOAD PUSH1 0xFF DUP1 DUP3 AND ISZERO ISZERO PUSH1 0x80 DUP5 ADD MSTORE PUSH2 0x100 SWAP1 SWAP2 DIV AND ISZERO ISZERO PUSH1 0xA0 DUP3 ADD MSTORE PUSH1 0x6 DUP3 ADD SLOAD PUSH1 0xC0 DUP3 ADD MSTORE PUSH1 0x7 SWAP1 SWAP2 ADD SLOAD PUSH1 0xE0 SWAP1 SWAP2 ADD MSTORE SWAP3 SWAP2 POP POP JUMP JUMPDEST PUSH1 0x0 DUP2 DUP2 MSTORE PUSH1 0x3 PUSH1 0x20 DUP2 SWAP1 MSTORE PUSH1 0x40 SWAP1 SWAP2 KECCAK256 SWAP1 DUP2 ADD SLOAD PUSH1 0x1 PUSH1 0x1 PUSH1 0xA0 SHL SUB AND CALLER EQ PUSH2 0x4D5 JUMPI PUSH1 0x40 MLOAD PUSH3 0x461BCD PUSH1 0xE5 SHL DUP2 MSTORE PUSH1 0x20 PUSH1 0x4 DUP3 ADD MSTORE PUSH1 0xC PUSH1 0x24 DUP3 ADD MSTORE PUSH12 0x2737BA10383937B23AB1B2B9 PUSH1 0xA1 SHL PUSH1 0x44 DUP3 ADD MSTORE PUSH1 0x64 ADD JUMPDEST PUSH1 0x40 MLOAD DUP1 SWAP2 SUB SWAP1 REVERT JUMPDEST PUSH1 0x1 PUSH1 0x7 DUP3 ADD SLOAD PUSH1 0xFF AND PUSH1 0x3 DUP2 GT ISZERO PUSH2 0x4F0 JUMPI PUSH2 0x4F0 PUSH2 0xCAE JUMP JUMPDEST EQ PUSH2 0x52A JUMPI PUSH1 0x40 MLOAD PUSH3 0x461BCD PUSH1 0xE5 SHL DUP2 MSTORE PUSH1 0x20 PUSH1 0x4 DUP3 ADD MSTORE PUSH1 0xA PUSH1 0x24 DUP3 ADD MSTORE PUSH10 0x4E6F7420616374697665 PUSH1 0xB0 SHL PUSH1 0x44 DUP3 ADD MSTORE PUSH1 0x64 ADD PUSH2 0x4CC JUMP JUMPDEST PUSH1 0x7 DUP2 ADD DUP1 SLOAD PUSH1 0xFF NOT AND PUSH1 0x2 SWAP1 DUP2 OR SWAP1 SWAP2 SSTORE PUSH1 0x1 DUP3 ADD SLOAD PUSH1 0x0 SWAP1 DUP2 MSTORE PUSH1 0x20 SWAP2 SWAP1 SWAP2 MSTORE PUSH1 0x40 SWAP1 KECCAK256 PUSH1 0x5 DUP2 ADD SLOAD PUSH1 0xFF AND ISZERO PUSH2 0x56F JUMPI PUSH1 0x5 DUP2 ADD DUP1 SLOAD PUSH2 0xFF00 NOT AND PUSH2 0x100 OR SWAP1 SSTORE JUMPDEST PUSH1 0x40 MLOAD DUP4 SWAP1 PUSH32 0xE70F5CB5ECDE9644C195A97CF45A506DE023D1D170CD972F04441FAFD993F150 SWAP1 PUSH1 0x0 SWAP1 LOG2 POP POP POP JUMP JUMPDEST PUSH1 0x4 DUP1 SLOAD PUSH1 0x0 SWAP2 DUP3 PUSH2 0x5B0 DUP4 PUSH2 0xF85 JUMP JUMPDEST SWAP2 SWAP1 POP SSTORE POP PUSH1 0x0 PUSH1 0x4 SLOAD SWAP1 POP PUSH1 0x40 MLOAD DUP1 PUSH2 0x120 ADD PUSH1 0x40 MSTORE DUP1 DUP3 DUP2 MSTORE PUSH1 0x20 ADD DUP9 PUSH1 0x4 DUP2 GT ISZERO PUSH2 0x5E0 JUMPI PUSH2 0x5E0 PUSH2 0xCAE JUMP JUMPDEST DUP2 MSTORE PUSH1 0x20 ADD DUP8 DUP2 MSTORE PUSH1 0x20 ADD CALLER PUSH1 0x1 PUSH1 0x1 PUSH1 0xA0 SHL SUB AND DUP2 MSTORE PUSH1 0x20 ADD DUP7 DUP2 MSTORE PUSH1 0x20 ADD DUP6 ISZERO ISZERO DUP2 MSTORE PUSH1 0x20 ADD PUSH1 0x1 ISZERO ISZERO DUP2 MSTORE PUSH1 0x20 ADD DUP5 DUP2 MSTORE PUSH1 0x20 ADD PUSH1 0x0 DUP2 MSTORE POP PUSH1 0x2 PUSH1 0x0 DUP4 DUP2 MSTORE PUSH1 0x20 ADD SWAP1 DUP2 MSTORE PUSH1 0x20 ADD PUSH1 0x0 KECCAK256 PUSH1 0x0 DUP3 ADD MLOAD DUP2 PUSH1 0x0 ADD SSTORE PUSH1 0x20 DUP3 ADD MLOAD DUP2 PUSH1 0x1 ADD PUSH1 0x0 PUSH2 0x100 EXP DUP2 SLOAD DUP2 PUSH1 0xFF MUL NOT AND SWAP1 DUP4 PUSH1 0x4 DUP2 GT ISZERO PUSH2 0x663 JUMPI PUSH2 0x663 PUSH2 0xCAE JUMP JUMPDEST MUL OR SWAP1 SSTORE POP PUSH1 0x40 DUP3 DUP2 ADD MLOAD PUSH1 0x2 DUP4 ADD SSTORE PUSH1 0x60 DUP4 ADD MLOAD PUSH1 0x3 DUP4 ADD DUP1 SLOAD PUSH1 0x1 PUSH1 0x1 PUSH1 0xA0 SHL SUB NOT AND PUSH1 0x1 PUSH1 0x1 PUSH1 0xA0 SHL SUB SWAP1 SWAP3 AND SWAP2 SWAP1 SWAP2 OR SWAP1 SSTORE PUSH1 0x80 DUP4 ADD MLOAD PUSH1 0x4 DUP4 ADD SSTORE PUSH1 0xA0 DUP4 ADD MLOAD PUSH1 0x5 DUP4 ADD DUP1 SLOAD PUSH1 0xC0 DUP7 ADD MLOAD PUSH2 0xFFFF NOT SWAP1 SWAP2 AND SWAP3 ISZERO ISZERO PUSH2 0xFF00 NOT AND SWAP3 SWAP1 SWAP3 OR PUSH2 0x100 SWAP3 ISZERO ISZERO DUP4 MUL OR SWAP1 SSTORE PUSH1 0xE0 DUP5 ADD MLOAD PUSH1 0x6 DUP5 ADD SSTORE SWAP1 SWAP3 ADD MLOAD PUSH1 0x7 SWAP1 SWAP2 ADD SSTORE MLOAD DUP2 SWAP1 PUSH32 0x93B27249B9FD0DBFD202429D49121A45070AD257ACE9F29D6FB320497BD88B1E SWAP1 PUSH2 0x719 SWAP1 DUP11 SWAP1 DUP11 SWAP1 DUP11 SWAP1 PUSH2 0xF9E JUMP JUMPDEST PUSH1 0x40 MLOAD DUP1 SWAP2 SUB SWAP1 LOG2 SWAP7 SWAP6 POP POP POP POP POP POP JUMP JUMPDEST PUSH1 0x0 PUSH2 0x735 PUSH2 0xB90 JUMP JUMPDEST PUSH1 0x0 DUP5 DUP2 MSTORE PUSH1 0x2 PUSH1 0x20 MSTORE PUSH1 0x40 SWAP1 KECCAK256 PUSH1 0x5 DUP2 ADD SLOAD PUSH2 0x100 SWAP1 DIV PUSH1 0xFF AND PUSH2 0x78C JUMPI PUSH1 0x40 MLOAD PUSH3 0x461BCD PUSH1 0xE5 SHL DUP2 MSTORE PUSH1 0x20 PUSH1 0x4 DUP3 ADD MSTORE PUSH1 0xD PUSH1 0x24 DUP3 ADD MSTORE PUSH13 0x4E6F7420617661696C61626C65 PUSH1 0x98 SHL PUSH1 0x44 DUP3 ADD MSTORE PUSH1 0x64 ADD PUSH2 0x4CC JUMP JUMPDEST PUSH1 0x0 DUP4 DUP3 PUSH1 0x4 ADD SLOAD PUSH2 0x79E SWAP2 SWAP1 PUSH2 0xFBD JUMP JUMPDEST SWAP1 POP DUP1 CALLVALUE LT ISZERO PUSH2 0x7E7 JUMPI PUSH1 0x40 MLOAD PUSH3 0x461BCD PUSH1 0xE5 SHL DUP2 MSTORE PUSH1 0x20 PUSH1 0x4 DUP3 ADD MSTORE PUSH1 0x14 PUSH1 0x24 DUP3 ADD MSTORE PUSH20 0x125B9CDD59999A58DA595B9D081C185E5B595B9D PUSH1 0x62 SHL PUSH1 0x44 DUP3 ADD MSTORE PUSH1 0x64 ADD PUSH2 0x4CC JUMP JUMPDEST PUSH1 0x5 DUP1 SLOAD SWAP1 PUSH1 0x0 PUSH2 0x7F7 DUP4 PUSH2 0xF85 JUMP JUMPDEST SWAP1 SWAP2 SSTORE POP POP PUSH1 0x5 SLOAD PUSH1 0x40 DUP1 MLOAD PUSH2 0x100 DUP2 ADD DUP3 MSTORE DUP3 DUP2 MSTORE PUSH1 0x20 DUP2 ADD DUP10 SWAP1 MSTORE SWAP1 DUP2 ADD DUP8 SWAP1 MSTORE CALLER PUSH1 0x60 DUP3 ADD MSTORE PUSH1 0x80 DUP2 ADD DUP4 SWAP1 MSTORE TIMESTAMP PUSH1 0xA0 DUP3 ADD MSTORE PUSH1 0xC0 DUP2 ADD PUSH2 0x83E DUP8 PUSH3 0x15180 PUSH2 0xFBD JUMP JUMPDEST PUSH2 0x848 SWAP1 TIMESTAMP PUSH2 0xFDA JUMP JUMPDEST DUP2 MSTORE PUSH1 0x1 PUSH1 0x20 SWAP2 DUP3 ADD DUP2 SWAP1 MSTORE PUSH1 0x0 DUP5 DUP2 MSTORE PUSH1 0x3 DUP1 DUP5 MSTORE PUSH1 0x40 SWAP2 DUP3 SWAP1 KECCAK256 DUP6 MLOAD DUP2 SSTORE SWAP4 DUP6 ADD MLOAD DUP5 DUP5 ADD SSTORE SWAP1 DUP5 ADD MLOAD PUSH1 0x2 DUP5 ADD SSTORE PUSH1 0x60 DUP5 ADD MLOAD DUP4 DUP3 ADD DUP1 SLOAD PUSH1 0x1 PUSH1 0x1 PUSH1 0xA0 SHL SUB NOT AND PUSH1 0x1 PUSH1 0x1 PUSH1 0xA0 SHL SUB SWAP1 SWAP3 AND SWAP2 SWAP1 SWAP2 OR SWAP1 SSTORE PUSH1 0x80 DUP5 ADD MLOAD PUSH1 0x4 DUP5 ADD SSTORE PUSH1 0xA0 DUP5 ADD MLOAD PUSH1 0x5 DUP5 ADD SSTORE PUSH1 0xC0 DUP5 ADD MLOAD PUSH1 0x6 DUP5 ADD SSTORE PUSH1 0xE0 DUP5 ADD MLOAD PUSH1 0x7 DUP5 ADD DUP1 SLOAD SWAP2 SWAP4 SWAP1 SWAP3 PUSH1 0xFF NOT SWAP1 SWAP3 AND SWAP2 DUP5 SWAP1 DUP2 GT ISZERO PUSH2 0x8E3 JUMPI PUSH2 0x8E3 PUSH2 0xCAE JUMP JUMPDEST MUL OR SWAP1 SSTORE POP POP POP PUSH1 0x5 DUP4 ADD SLOAD PUSH1 0xFF AND ISZERO PUSH2 0x905 JUMPI PUSH1 0x5 DUP4 ADD DUP1 SLOAD PUSH2 0xFF00 NOT AND SWAP1 SSTORE JUMPDEST PUSH1 0x7 DUP4 ADD DUP1 SLOAD SWAP1 PUSH1 0x0 PUSH2 0x917 DUP4 PUSH2 0xF85 JUMP JUMPDEST SWAP2 SWAP1 POP SSTORE POP PUSH1 0x0 PUSH2 0x2710 PUSH1 0x6 SLOAD DUP5 PUSH2 0x92F SWAP2 SWAP1 PUSH2 0xFBD JUMP JUMPDEST PUSH2 0x939 SWAP2 SWAP1 PUSH2 0xFED JUMP JUMPDEST SWAP1 POP PUSH1 0x0 PUSH2 0x947 DUP3 DUP6 PUSH2 0x100F JUMP JUMPDEST PUSH1 0x3 DUP7 ADD SLOAD PUSH1 0x40 MLOAD SWAP2 SWAP3 POP PUSH1 0x1 PUSH1 0x1 PUSH1 0xA0 SHL SUB AND SWAP1 DUP3 ISZERO PUSH2 0x8FC MUL SWAP1 DUP4 SWAP1 PUSH1 0x0 DUP2 DUP2 DUP2 DUP6 DUP9 DUP9 CALL SWAP4 POP POP POP POP ISZERO DUP1 ISZERO PUSH2 0x984 JUMPI RETURNDATASIZE PUSH1 0x0 DUP1 RETURNDATACOPY RETURNDATASIZE PUSH1 0x0 REVERT JUMPDEST POP DUP4 CALLVALUE GT ISZERO PUSH2 0x9C5 JUMPI CALLER PUSH2 0x8FC PUSH2 0x99B DUP7 CALLVALUE PUSH2 0x100F JUMP JUMPDEST PUSH1 0x40 MLOAD DUP2 ISZERO SWAP1 SWAP3 MUL SWAP2 PUSH1 0x0 DUP2 DUP2 DUP2 DUP6 DUP9 DUP9 CALL SWAP4 POP POP POP POP ISZERO DUP1 ISZERO PUSH2 0x9C3 JUMPI RETURNDATASIZE PUSH1 0x0 DUP1 RETURNDATACOPY RETURNDATASIZE PUSH1 0x0 REVERT JUMPDEST POP JUMPDEST PUSH1 0x40 DUP1 MLOAD DUP10 DUP2 MSTORE PUSH1 0x20 DUP2 ADD DUP7 SWAP1 MSTORE DUP11 SWAP2 DUP6 SWAP2 PUSH32 0xB4E3CA637013414856D88CD9E244F1E342C3ABD5775C979354AF0C1B84378F59 SWAP2 ADD PUSH1 0x40 MLOAD DUP1 SWAP2 SUB SWAP1 LOG3 POP SWAP1 SWAP4 POP POP POP POP PUSH2 0xA12 PUSH1 0x1 DUP1 SSTORE JUMP JUMPDEST SWAP4 SWAP3 POP POP POP JUMP JUMPDEST PUSH2 0xA21 PUSH2 0xC37 JUMP JUMPDEST PUSH1 0x0 DUP3 DUP2 MSTORE PUSH1 0x3 PUSH1 0x20 DUP2 DUP2 MSTORE PUSH1 0x40 SWAP3 DUP4 SWAP1 KECCAK256 DUP4 MLOAD PUSH2 0x100 DUP2 ADD DUP6 MSTORE DUP2 SLOAD DUP2 MSTORE PUSH1 0x1 DUP3 ADD SLOAD SWAP3 DUP2 ADD SWAP3 SWAP1 SWAP3 MSTORE PUSH1 0x2 DUP2 ADD SLOAD SWAP4 DUP3 ADD SWAP4 SWAP1 SWAP4 MSTORE DUP3 DUP3 ADD SLOAD PUSH1 0x1 PUSH1 0x1 PUSH1 0xA0 SHL SUB AND PUSH1 0x60 DUP3 ADD MSTORE PUSH1 0x4 DUP4 ADD SLOAD PUSH1 0x80 DUP3 ADD MSTORE PUSH1 0x5 DUP4 ADD SLOAD PUSH1 0xA0 DUP3 ADD MSTORE PUSH1 0x6 DUP4 ADD SLOAD PUSH1 0xC0 DUP3 ADD MSTORE PUSH1 0x7 DUP4 ADD SLOAD SWAP1 SWAP3 SWAP2 PUSH1 0xE0 DUP5 ADD SWAP2 PUSH1 0xFF AND SWAP1 DUP2 GT ISZERO PUSH2 0xAA8 JUMPI PUSH2 0xAA8 PUSH2 0xCAE JUMP JUMPDEST PUSH1 0x3 DUP2 GT ISZERO PUSH2 0xAB9 JUMPI PUSH2 0xAB9 PUSH2 0xCAE JUMP JUMPDEST SWAP1 MSTORE POP SWAP3 SWAP2 POP POP JUMP JUMPDEST PUSH2 0xACA PUSH2 0xBBA JUMP JUMPDEST PUSH2 0xAD4 PUSH1 0x0 PUSH2 0xBE7 JUMP JUMPDEST JUMP JUMPDEST PUSH1 0x0 DUP4 DUP2 MSTORE PUSH1 0x2 PUSH1 0x20 MSTORE PUSH1 0x40 SWAP1 KECCAK256 PUSH1 0x3 DUP2 ADD SLOAD PUSH1 0x1 PUSH1 0x1 PUSH1 0xA0 SHL SUB AND CALLER EQ PUSH2 0xB2C JUMPI PUSH1 0x40 MLOAD PUSH3 0x461BCD PUSH1 0xE5 SHL DUP2 MSTORE PUSH1 0x20 PUSH1 0x4 DUP3 ADD MSTORE PUSH1 0x9 PUSH1 0x24 DUP3 ADD MSTORE PUSH9 0x2737BA1037BBB732B9 PUSH1 0xB9 SHL PUSH1 0x44 DUP3 ADD MSTORE PUSH1 0x64 ADD PUSH2 0x4CC JUMP JUMPDEST PUSH1 0x4 DUP2 ADD SWAP3 SWAP1 SWAP3 SSTORE PUSH1 0x5 SWAP1 SWAP2 ADD DUP1 SLOAD SWAP2 ISZERO ISZERO PUSH2 0x100 MUL PUSH2 0xFF00 NOT SWAP1 SWAP3 AND SWAP2 SWAP1 SWAP2 OR SWAP1 SSTORE POP JUMP JUMPDEST PUSH2 0xB5A PUSH2 0xBBA JUMP JUMPDEST PUSH1 0x1 PUSH1 0x1 PUSH1 0xA0 SHL SUB DUP2 AND PUSH2 0xB84 JUMPI PUSH1 0x40 MLOAD PUSH4 0x1E4FBDF7 PUSH1 0xE0 SHL DUP2 MSTORE PUSH1 0x0 PUSH1 0x4 DUP3 ADD MSTORE PUSH1 0x24 ADD PUSH2 0x4CC JUMP JUMPDEST PUSH2 0xB8D DUP2 PUSH2 0xBE7 JUMP JUMPDEST POP JUMP JUMPDEST PUSH1 0x2 PUSH1 0x1 SLOAD SUB PUSH2 0xBB3 JUMPI PUSH1 0x40 MLOAD PUSH4 0x3EE5AEB5 PUSH1 0xE0 SHL DUP2 MSTORE PUSH1 0x4 ADD PUSH1 0x40 MLOAD DUP1 SWAP2 SUB SWAP1 REVERT JUMPDEST PUSH1 0x2 PUSH1 0x1 SSTORE JUMP JUMPDEST PUSH1 0x0 SLOAD PUSH1 0x1 PUSH1 0x1 PUSH1 0xA0 SHL SUB AND CALLER EQ PUSH2 0xAD4 JUMPI PUSH1 0x40 MLOAD PUSH4 0x118CDAA7 PUSH1 0xE0 SHL DUP2 MSTORE CALLER PUSH1 0x4 DUP3 ADD MSTORE PUSH1 0x24 ADD PUSH2 0x4CC JUMP JUMPDEST PUSH1 0x0 DUP1 SLOAD PUSH1 0x1 PUSH1 0x1 PUSH1 0xA0 SHL SUB DUP4 DUP2 AND PUSH1 0x1 PUSH1 0x1 PUSH1 0xA0 SHL SUB NOT DUP4 AND DUP2 OR DUP5 SSTORE PUSH1 0x40 MLOAD SWAP2 SWAP1 SWAP3 AND SWAP3 DUP4 SWAP2 PUSH32 0x8BE0079C531659141344CD1FD0A4F28419497F9722A3DAAFE3B4186F6B6457E0 SWAP2 SWAP1 LOG3 POP POP JUMP JUMPDEST PUSH1 0x40 MLOAD DUP1 PUSH2 0x100 ADD PUSH1 0x40 MSTORE DUP1 PUSH1 0x0 DUP2 MSTORE PUSH1 0x20 ADD PUSH1 0x0 DUP2 MSTORE PUSH1 0x20 ADD PUSH1 0x0 DUP2 MSTORE PUSH1 0x20 ADD PUSH1 0x0 PUSH1 0x1 PUSH1 0x1 PUSH1 0xA0 SHL SUB AND DUP2 MSTORE PUSH1 0x20 ADD PUSH1 0x0 DUP2 MSTORE PUSH1 0x20 ADD PUSH1 0x0 DUP2 MSTORE PUSH1 0x20 ADD PUSH1 0x0 DUP2 MSTORE PUSH1 0x20 ADD PUSH1 0x0 PUSH1 0x3 DUP2 GT ISZERO PUSH2 0xC90 JUMPI PUSH2 0xC90 PUSH2 0xCAE JUMP JUMPDEST SWAP1 MSTORE SWAP1 JUMP JUMPDEST PUSH1 0x0 PUSH1 0x20 DUP3 DUP5 SUB SLT ISZERO PUSH2 0xCA7 JUMPI PUSH1 0x0 DUP1 REVERT JUMPDEST POP CALLDATALOAD SWAP2 SWAP1 POP JUMP JUMPDEST PUSH4 0x4E487B71 PUSH1 0xE0 SHL PUSH1 0x0 MSTORE PUSH1 0x21 PUSH1 0x4 MSTORE PUSH1 0x24 PUSH1 0x0 REVERT JUMPDEST PUSH1 0x5 DUP2 LT PUSH2 0xCD4 JUMPI PUSH2 0xCD4 PUSH2 0xCAE JUMP JUMPDEST SWAP1 MSTORE JUMP JUMPDEST DUP2 MLOAD DUP2 MSTORE PUSH1 0x20 DUP1 DUP4 ADD MLOAD PUSH2 0x120 DUP4 ADD SWAP2 PUSH2 0xCF4 SWAP1 DUP5 ADD DUP3 PUSH2 0xCC4 JUMP JUMPDEST POP PUSH1 0x40 DUP4 ADD MLOAD PUSH1 0x40 DUP4 ADD MSTORE PUSH1 0x1 DUP1 PUSH1 0xA0 SHL SUB PUSH1 0x60 DUP5 ADD MLOAD AND PUSH1 0x60 DUP4 ADD MSTORE PUSH1 0x80 DUP4 ADD MLOAD PUSH1 0x80 DUP4 ADD MSTORE PUSH1 0xA0 DUP4 ADD MLOAD ISZERO ISZERO PUSH1 0xA0 DUP4 ADD MSTORE PUSH1 0xC0 DUP4 ADD MLOAD PUSH2 0xD3A PUSH1 0xC0 DUP5 ADD DUP3 ISZERO ISZERO SWAP1 MSTORE JUMP JUMPDEST POP PUSH1 0xE0 DUP4 ADD MLOAD PUSH1 0xE0 DUP4 ADD MSTORE PUSH2 0x100 DUP1 DUP5 ADD MLOAD DUP2 DUP5 ADD MSTORE POP SWAP3 SWAP2 POP POP JUMP JUMPDEST PUSH1 0x4 DUP2 LT PUSH2 0xCD4 JUMPI PUSH2 0xCD4 PUSH2 0xCAE JUMP JUMPDEST DUP9 DUP2 MSTORE PUSH1 0x20 DUP2 ADD DUP9 SWAP1 MSTORE PUSH1 0x40 DUP2 ADD DUP8 SWAP1 MSTORE PUSH1 0x1 PUSH1 0x1 PUSH1 0xA0 SHL SUB DUP7 AND PUSH1 0x60 DUP3 ADD MSTORE PUSH1 0x80 DUP2 ADD DUP6 SWAP1 MSTORE PUSH1 0xA0 DUP2 ADD DUP5 SWAP1 MSTORE PUSH1 0xC0 DUP2 ADD DUP4 SWAP1 MSTORE PUSH2 0x100 DUP2 ADD PUSH2 0xDAE PUSH1 0xE0 DUP4 ADD DUP5 PUSH2 0xD57 JUMP JUMPDEST SWAP10 SWAP9 POP POP POP POP POP POP POP POP POP JUMP JUMPDEST DUP1 CALLDATALOAD DUP1 ISZERO ISZERO DUP2 EQ PUSH2 0xDCB JUMPI PUSH1 0x0 DUP1 REVERT JUMPDEST SWAP2 SWAP1 POP JUMP JUMPDEST PUSH1 0x0 DUP1 PUSH1 0x0 DUP1 PUSH1 0x0 PUSH1 0xA0 DUP7 DUP9 SUB SLT ISZERO PUSH2 0xDE8 JUMPI PUSH1 0x0 DUP1 REVERT JUMPDEST DUP6 CALLDATALOAD PUSH1 0x5 DUP2 LT PUSH2 0xDF7 JUMPI PUSH1 0x0 DUP1 REVERT JUMPDEST SWAP5 POP PUSH1 0x20 DUP7 ADD CALLDATALOAD SWAP4 POP PUSH1 0x40 DUP7 ADD CALLDATALOAD SWAP3 POP PUSH2 0xE13 PUSH1 0x60 DUP8 ADD PUSH2 0xDBB JUMP JUMPDEST SWAP5 SWAP8 SWAP4 SWAP7 POP SWAP2 SWAP5 PUSH1 0x80 ADD CALLDATALOAD SWAP3 SWAP2 POP POP JUMP JUMPDEST PUSH1 0x0 DUP1 PUSH1 0x0 PUSH1 0x60 DUP5 DUP7 SUB SLT ISZERO PUSH2 0xE39 JUMPI PUSH1 0x0 DUP1 REVERT JUMPDEST POP POP DUP2 CALLDATALOAD SWAP4 PUSH1 0x20 DUP4 ADD CALLDATALOAD SWAP4 POP PUSH1 0x40 SWAP1 SWAP3 ADD CALLDATALOAD SWAP2 SWAP1 POP JUMP JUMPDEST PUSH1 0x0 PUSH2 0x100 DUP3 ADD SWAP1 POP DUP3 MLOAD DUP3 MSTORE PUSH1 0x20 DUP4 ADD MLOAD PUSH1 0x20 DUP4 ADD MSTORE PUSH1 0x40 DUP4 ADD MLOAD PUSH1 0x40 DUP4 ADD MSTORE PUSH1 0x1 DUP1 PUSH1 0xA0 SHL SUB PUSH1 0x60 DUP5 ADD MLOAD AND PUSH1 0x60 DUP4 ADD MSTORE PUSH1 0x80 DUP4 ADD MLOAD PUSH1 0x80 DUP4 ADD MSTORE PUSH1 0xA0 DUP4 ADD MLOAD PUSH1 0xA0 DUP4 ADD MSTORE PUSH1 0xC0 DUP4 ADD MLOAD PUSH1 0xC0 DUP4 ADD MSTORE PUSH1 0xE0 DUP4 ADD MLOAD PUSH2 0xEB3 PUSH1 0xE0 DUP5 ADD DUP3 PUSH2 0xD57 JUMP JUMPDEST POP SWAP3 SWAP2 POP POP JUMP JUMPDEST PUSH1 0x0 DUP1 PUSH1 0x0 PUSH1 0x60 DUP5 DUP7 SUB SLT ISZERO PUSH2 0xECF JUMPI PUSH1 0x0 DUP1 REVERT JUMPDEST DUP4 CALLDATALOAD SWAP3 POP PUSH1 0x20 DUP5 ADD CALLDATALOAD SWAP2 POP PUSH2 0xEE6 PUSH1 0x40 DUP6 ADD PUSH2 0xDBB JUMP JUMPDEST SWAP1 POP SWAP3 POP SWAP3 POP SWAP3 JUMP JUMPDEST DUP10 DUP2 MSTORE PUSH2 0x120 DUP2 ADD PUSH2 0xF04 PUSH1 0x20 DUP4 ADD DUP12 PUSH2 0xCC4 JUMP JUMPDEST PUSH1 0x40 DUP3 ADD SWAP9 SWAP1 SWAP9 MSTORE PUSH1 0x1 PUSH1 0x1 PUSH1 0xA0 SHL SUB SWAP7 SWAP1 SWAP7 AND PUSH1 0x60 DUP8 ADD MSTORE PUSH1 0x80 DUP7 ADD SWAP5 SWAP1 SWAP5 MSTORE SWAP2 ISZERO ISZERO PUSH1 0xA0 DUP6 ADD MSTORE ISZERO ISZERO PUSH1 0xC0 DUP5 ADD MSTORE PUSH1 0xE0 DUP4 ADD MSTORE PUSH2 0x100 SWAP1 SWAP2 ADD MSTORE SWAP3 SWAP2 POP POP JUMP JUMPDEST PUSH1 0x0 PUSH1 0x20 DUP3 DUP5 SUB SLT ISZERO PUSH2 0xF58 JUMPI PUSH1 0x0 DUP1 REVERT JUMPDEST DUP2 CALLDATALOAD PUSH1 0x1 PUSH1 0x1 PUSH1 0xA0 SHL SUB DUP2 AND DUP2 EQ PUSH2 0xA12 JUMPI PUSH1 0x0 DUP1 REVERT JUMPDEST PUSH4 0x4E487B71 PUSH1 0xE0 SHL PUSH1 0x0 MSTORE PUSH1 0x11 PUSH1 0x4 MSTORE PUSH1 0x24 PUSH1 0x0 REVERT JUMPDEST PUSH1 0x0 PUSH1 0x1 DUP3 ADD PUSH2 0xF97 JUMPI PUSH2 0xF97 PUSH2 0xF6F JUMP JUMPDEST POP PUSH1 0x1 ADD SWAP1 JUMP JUMPDEST PUSH1 0x60 DUP2 ADD PUSH2 0xFAC DUP3 DUP7 PUSH2 0xCC4 JUMP JUMPDEST PUSH1 0x20 DUP3 ADD SWAP4 SWAP1 SWAP4 MSTORE PUSH1 0x40 ADD MSTORE SWAP2 SWAP1 POP JUMP JUMPDEST DUP1 DUP3 MUL DUP2 ISZERO DUP3 DUP3 DIV DUP5 EQ OR PUSH2 0xFD4 JUMPI PUSH2 0xFD4 PUSH2 0xF6F JUMP JUMPDEST SWAP3 SWAP2 POP POP JUMP JUMPDEST DUP1 DUP3 ADD DUP1 DUP3 GT ISZERO PUSH2 0xFD4 JUMPI PUSH2 0xFD4 PUSH2 0xF6F JUMP JUMPDEST PUSH1 0x0 DUP3 PUSH2 0x100A JUMPI PUSH4 0x4E487B71 PUSH1 0xE0 SHL PUSH1 0x0 MSTORE PUSH1 0x12 PUSH1 0x4 MSTORE PUSH1 0x24 PUSH1 0x0 REVERT JUMPDEST POP DIV SWAP1 JUMP JUMPDEST DUP2 DUP2 SUB DUP2 DUP2 GT ISZERO PUSH2 0xFD4 JUMPI PUSH2 0xFD4 PUSH2 0xF6F JUMP INVALID LOG2 PUSH5 0x6970667358 0x22 SLT KECCAK256 PUSH2 0x1322 ADDMOD 0xAD 0xC1 SLT 0xC3 SWAP14 PUSH15 0xB6504F46F1DBA3BE5246D2564CA138 0xD8 0xEA SWAP12 PUSH11 0xF9ABBB64736F6C63430008 EQ STOP CALLER "},"methodIdentifiers":{"bookTalent(uint256,uint256,uint256)":"508dad46","bookingCount()":"6d759172","bookings(uint256)":"1dab301e","completeBooking(uint256)":"1a2b3431","getBooking(uint256)":"6a5c841a","getListing(uint256)":"107a274a","listTalent(uint8,uint256,uint256,bool,uint256)":"1e88aaea","listingCount()":"a9b07c26","listings(uint256)":"de74e57b","owner()":"8da5cb5b","platformFee()":"26232a2e","renounceOwnership()":"715018a6","transferOwnership(address)":"f2fde38b","updateListing(uint256,uint256,bool)":"dda12b4b"}}}}}