{"contracts/identity/ReputationStaking.sol":{"ReputationStaking":{"abi":[{"inputs":[],"stateMutability":"nonpayable","type":"constructor"},{"inputs":[{"internalType":"address","name":"owner","type":"address"}],"name":"OwnableInvalidOwner","type":"error"},{"inputs":[{"internalType":"address","name":"account","type":"address"}],"name":"OwnableUnauthorizedAccount","type":"error"},{"inputs":[],"name":"ReentrancyGuardReentrantCall","type":"error"},{"anonymous":false,"inputs":[{"indexed":true,"internalType":"address","name":"previousOwner","type":"address"},{"indexed":true,"internalType":"address","name":"newOwner","type":"address"}],"name":"OwnershipTransferred","type":"event"},{"anonymous":false,"inputs":[{"indexed":true,"internalType":"address","name":"staker","type":"address"},{"indexed":false,"internalType":"int256","name":"bonus","type":"int256"}],"name":"ReputationBonusApplied","type":"event"},{"anonymous":false,"inputs":[{"indexed":true,"internalType":"address","name":"staker","type":"address"},{"indexed":false,"internalType":"uint256","name":"amount","type":"uint256"},{"indexed":false,"internalType":"uint256","name":"tier","type":"uint256"}],"name":"Staked","type":"event"},{"anonymous":false,"inputs":[{"indexed":true,"internalType":"uint256","name":"tier","type":"uint256"},{"indexed":false,"internalType":"uint256","name":"minStake","type":"uint256"},{"indexed":false,"internalType":"int256","name":"multiplier","type":"int256"}],"name":"TierConfigured","type":"event"},{"anonymous":false,"inputs":[{"indexed":true,"internalType":"address","name":"staker","type":"address"},{"indexed":false,"internalType":"uint256","name":"amount","type":"uint256"}],"name":"Unstaked","type":"event"},{"inputs":[],"name":"BASIS_POINTS","outputs":[{"internalType":"uint256","name":"","type":"uint256"}],"stateMutability":"view","type":"function"},{"inputs":[{"internalType":"uint256","name":"tier","type":"uint256"},{"internalType":"uint256","name":"minStake","type":"uint256"},{"internalType":"uint256","name":"lockDuration","type":"uint256"},{"internalType":"int256","name":"reputationMultiplier","type":"int256"}],"name":"configureTier","outputs":[],"stateMutability":"nonpayable","type":"function"},{"inputs":[{"internalType":"address","name":"staker","type":"address"}],"name":"getReputationBonus","outputs":[{"internalType":"int256","name":"","type":"int256"}],"stateMutability":"view","type":"function"},{"inputs":[{"internalType":"address","name":"staker","type":"address"}],"name":"getStake","outputs":[{"components":[{"internalType":"uint256","name":"amount","type":"uint256"},{"internalType":"uint256","name":"stakedAt","type":"uint256"},{"internalType":"uint256","name":"lockedUntil","type":"uint256"},{"internalType":"int256","name":"reputationBonus","type":"int256"},{"internalType":"bool","name":"active","type":"bool"}],"internalType":"struct ReputationStaking.Stake","name":"","type":"tuple"}],"stateMutability":"view","type":"function"},{"inputs":[{"internalType":"uint256","name":"amount","type":"uint256"}],"name":"getTierForAmount","outputs":[{"internalType":"uint256","name":"","type":"uint256"}],"stateMutability":"view","type":"function"},{"inputs":[{"internalType":"address","name":"staker","type":"address"}],"name":"isStakeLocked","outputs":[{"internalType":"bool","name":"","type":"bool"}],"stateMutability":"view","type":"function"},{"inputs":[],"name":"owner","outputs":[{"internalType":"address","name":"","type":"address"}],"stateMutability":"view","type":"function"},{"inputs":[],"name":"renounceOwnership","outputs":[],"stateMutability":"nonpayable","type":"function"},{"inputs":[{"internalType":"uint256","name":"tier","type":"uint256"}],"name":"stake","outputs":[],"stateMutability":"payable","type":"function"},{"inputs":[{"internalType":"address","name":"","type":"address"}],"name":"stakes","outputs":[{"internalType":"uint256","name":"amount","type":"uint256"},{"internalType":"uint256","name":"stakedAt","type":"uint256"},{"internalType":"uint256","name":"lockedUntil","type":"uint256"},{"internalType":"int256","name":"reputationBonus","type":"int256"},{"internalType":"bool","name":"active","type":"bool"}],"stateMutability":"view","type":"function"},{"inputs":[{"internalType":"uint256","name":"","type":"uint256"}],"name":"tiers","outputs":[{"internalType":"uint256","name":"minStake","type":"uint256"},{"internalType":"uint256","name":"lockDuration","type":"uint256"},{"internalType":"int256","name":"reputationMultiplier","type":"int256"},{"internalType":"bool","name":"enabled","type":"bool"}],"stateMutability":"view","type":"function"},{"inputs":[],"name":"totalStaked","outputs":[{"internalType":"uint256","name":"","type":"uint256"}],"stateMutability":"view","type":"function"},{"inputs":[],"name":"totalStakers","outputs":[{"internalType":"uint256","name":"","type":"uint256"}],"stateMutability":"view","type":"function"},{"inputs":[{"internalType":"address","name":"newOwner","type":"address"}],"name":"transferOwnership","outputs":[],"stateMutability":"nonpayable","type":"function"},{"inputs":[],"name":"unstake","outputs":[],"stateMutability":"nonpayable","type":"function"}],"evm":{"bytecode":{"linkReferences":{},"object":"608060405234801561001057600080fd5b50338061003757604051631e4fbdf760e01b81526000600482015260240160405180910390fd5b6100408161038d565b5060018080556040805160808082018352670de0b6b3a7640000825262278d0060208084019182526101f484860190815260608086018881526000898152600380865297517fa15bc60c955c405d20d9149c709e2460f1c2d9a497496a7f46004d1772c3054c5594517fa15bc60c955c405d20d9149c709e2460f1c2d9a497496a7f46004d1772c3054d5591517fa15bc60c955c405d20d9149c709e2460f1c2d9a497496a7f46004d1772c3054e5590517fa15bc60c955c405d20d9149c709e2460f1c2d9a497496a7f46004d1772c3054f805491151560ff1992831617905586518086018852674563918244f400008152624f1a008185019081526103e8828a019081528285018b81526002885289875292517fc3a24b0501bd2c13a7e57f2db4369ec4c223447539fc0724a9d55ac4a06ebd4d5590517fc3a24b0501bd2c13a7e57f2db4369ec4c223447539fc0724a9d55ac4a06ebd4e55517fc3a24b0501bd2c13a7e57f2db4369ec4c223447539fc0724a9d55ac4a06ebd4f55517fc3a24b0501bd2c13a7e57f2db4369ec4c223447539fc0724a9d55ac4a06ebd50805491151591831691909117905586518086018852678ac7230489e8000081526276a7008185019081526107d0828a019081528285018b815289885289875292517fcbc4e5fb02c3d1de23a9f1e014b4d2ee5aeaea9505df5e855c9210bf472495af5590517fcbc4e5fb02c3d1de23a9f1e014b4d2ee5aeaea9505df5e855c9210bf472495b055517fcbc4e5fb02c3d1de23a9f1e014b4d2ee5aeaea9505df5e855c9210bf472495b155517fcbc4e5fb02c3d1de23a9f1e014b4d2ee5aeaea9505df5e855c9210bf472495b28054911515918316919091179055865194850187526802b5e3af16b1880000855262ed4e00858401908152611388978601978852918501978852600490935293905290517f83ec6a1f0257b830b5e016457c9cf1435391bf56cc98f369a58a54fe937724655590517f83ec6a1f0257b830b5e016457c9cf1435391bf56cc98f369a58a54fe937724665590517f83ec6a1f0257b830b5e016457c9cf1435391bf56cc98f369a58a54fe937724675590517f83ec6a1f0257b830b5e016457c9cf1435391bf56cc98f369a58a54fe937724688054911515919092161790556103dd565b600080546001600160a01b038381166001600160a01b0319831681178455604051919092169283917f8be0079c531659141344cd1fd0a4f28419497f9722a3daafe3b4186f6b6457e09190a35050565b610c13806103ec6000396000f3fe6080604052600436106100e85760003560e01c80637a7664601161008a5780638da5cb5b116100595780638da5cb5b1461032c578063a694fc3a14610354578063e1f1c4a714610367578063f2fde38b1461037d57600080fd5b80637a7664601461027c578063817b1cd2146102e057806386989038146102f65780638cca4e6e1461030c57600080fd5b80632def6620116100c65780632def662014610200578063335e91a1146102175780636c7a93be14610247578063715018a61461026757600080fd5b8063039af9eb146100ed5780631237739b1461015b57806316934fc414610189575b600080fd5b3480156100f957600080fd5b50610134610108366004610ab7565b600360208190526000918252604090912080546001820154600283015492909301549092919060ff1684565b60408051948552602085019390935291830152151560608201526080015b60405180910390f35b34801561016757600080fd5b5061017b610176366004610ab7565b61039d565b604051908152602001610152565b34801561019557600080fd5b506101d66101a4366004610ad0565b600260208190526000918252604090912080546001820154928201546003830154600490930154919392909160ff1685565b6040805195865260208601949094529284019190915260608301521515608082015260a001610152565b34801561020c57600080fd5b50610215610400565b005b34801561022357600080fd5b50610237610232366004610ad0565b61055e565b6040519015158152602001610152565b34801561025357600080fd5b50610215610262366004610b00565b6105ab565b34801561027357600080fd5b5061021561064a565b34801561028857600080fd5b5061029c610297366004610ad0565b61065c565b6040516101529190600060a0820190508251825260208301516020830152604083015160408301526060830151606083015260808301511515608083015292915050565b3480156102ec57600080fd5b5061017b60045481565b34801561030257600080fd5b5061017b60055481565b34801561031857600080fd5b5061017b610327366004610ad0565b6106ea565b34801561033857600080fd5b506000546040516001600160a01b039091168152602001610152565b610215610362366004610ab7565b610734565b34801561037357600080fd5b5061017b61271081565b34801561038957600080fd5b50610215610398366004610ad0565b6109d5565b600060045b600181106103f7576000818152600360208190526040909120015460ff1680156103da57506000818152600360205260409020548310155b156103e55792915050565b806103ef81610b48565b9150506103a2565b50600092915050565b610408610a10565b336000908152600260205260409020600481015460ff166104625760405162461bcd60e51b815260206004820152600f60248201526e4e6f20616374697665207374616b6560881b60448201526064015b60405180910390fd5b80600201544210156104ab5760405162461bcd60e51b815260206004820152601260248201527114dd185ad9481cdd1a5b1b081b1bd8dad95960721b6044820152606401610459565b80546004808301805460ff191690556000600384018190558154839291906104d4908490610b5f565b9091555050600580549060006104e983610b48565b9091555050604051339082156108fc029083906000818181858888f1935050505015801561051b573d6000803e3d6000fd5b5060405181815233907f0f5bb82176feb1b5e747e28471aa92156a04d9f3ab9f45f28e2d704232b93f759060200160405180910390a2505061055c60018055565b565b6001600160a01b03811660009081526002602052604081206004015460ff1661058957506000919050565b506001600160a01b031660009081526002602081905260409091200154421090565b6105b3610a3a565b60408051608081018252848152602080820185815282840185815260016060850181815260008b81526003808752908890209651875593519186019190915590516002850155519201805460ff191692151592909217909155815185815290810183905285917f236f4d6b84fd2f2c0b1e27e1fd2f0e31e5ff6e9b6907d5308fdbbcf44c75ab97910160405180910390a250505050565b610652610a3a565b61055c6000610a67565b6106906040518060a00160405280600081526020016000815260200160008152602001600081526020016000151581525090565b506001600160a01b0316600090815260026020818152604092839020835160a081018552815481526001820154928101929092529182015492810192909252600381015460608301526004015460ff161515608082015290565b6001600160a01b03811660009081526002602052604081206004015460ff1661071557506000919050565b506001600160a01b031660009081526002602052604090206003015490565b61073c610a10565b6000818152600360208190526040909120015460ff166107915760405162461bcd60e51b815260206004820152601060248201526f151a595c881b9bdd08195b98589b195960821b6044820152606401610459565b6000818152600360205260409020543410156107e45760405162461bcd60e51b8152602060048201526012602482015271496e73756666696369656e74207374616b6560701b6044820152606401610459565b3360009081526002602052604090206004015460ff16156108395760405162461bcd60e51b815260206004820152600f60248201526e416c7265616479207374616b696e6760881b6044820152606401610459565b6000818152600360208181526040928390208351608081018552815481526001820154818401908152600283015482870152919093015460ff1615156060840152835160a08101855234815242928101839052905192939092908301916108a09190610b78565b81526020016127108360400151346108b89190610b8b565b6108c29190610ba2565b815260016020918201819052336000908152600280845260408083208651815594860151938501939093559184015191830191909155606083015160038301556080909201516004918201805460ff1916911515919091179055805434929061092c908490610b78565b90915550506005805490600061094183610bc4565b9091555050604080513481526020810184905233917f1449c6dd7851abc30abf37f57715f492010519147cc2652fbc38202c18a6ee90910160405180910390a2336000818152600260209081526040918290206003015491519182527ff56bad187dfd1163de59b54c788e0b68004eea12dc82e20883ec8f4e0c0e85a2910160405180910390a2506109d260018055565b50565b6109dd610a3a565b6001600160a01b038116610a0757604051631e4fbdf760e01b815260006004820152602401610459565b6109d281610a67565b600260015403610a3357604051633ee5aeb560e01b815260040160405180910390fd5b6002600155565b6000546001600160a01b0316331461055c5760405163118cdaa760e01b8152336004820152602401610459565b600080546001600160a01b038381166001600160a01b0319831681178455604051919092169283917f8be0079c531659141344cd1fd0a4f28419497f9722a3daafe3b4186f6b6457e09190a35050565b600060208284031215610ac957600080fd5b5035919050565b600060208284031215610ae257600080fd5b81356001600160a01b0381168114610af957600080fd5b9392505050565b60008060008060808587031215610b1657600080fd5b5050823594602084013594506040840135936060013592509050565b634e487b7160e01b600052601160045260246000fd5b600081610b5757610b57610b32565b506000190190565b81810381811115610b7257610b72610b32565b92915050565b80820180821115610b7257610b72610b32565b8082028115828204841417610b7257610b72610b32565b600082610bbf57634e487b7160e01b600052601260045260246000fd5b500490565b600060018201610bd657610bd6610b32565b506001019056fea26469706673582212201f3a7e73bc8b5c64b99dc5e976fc6245d79b6d0f71e34300e7dd58c0fd4c86a464736f6c63430008140033","opcodes":"PUSH1 0x80 PUSH1 0x40 MSTORE CALLVALUE DUP1 ISZERO PUSH2 0x10 JUMPI PUSH1 0x0 DUP1 REVERT JUMPDEST POP CALLER DUP1 PUSH2 0x37 JUMPI PUSH1 0x40 MLOAD PUSH4 0x1E4FBDF7 PUSH1 0xE0 SHL DUP2 MSTORE PUSH1 0x0 PUSH1 0x4 DUP3 ADD MSTORE PUSH1 0x24 ADD PUSH1 0x40 MLOAD DUP1 SWAP2 SUB SWAP1 REVERT JUMPDEST PUSH2 0x40 DUP2 PUSH2 0x38D JUMP JUMPDEST POP PUSH1 0x1 DUP1 DUP1 SSTORE PUSH1 0x40 DUP1 MLOAD PUSH1 0x80 DUP1 DUP3 ADD DUP4 MSTORE PUSH8 0xDE0B6B3A7640000 DUP3 MSTORE PUSH3 0x278D00 PUSH1 0x20 DUP1 DUP5 ADD SWAP2 DUP3 MSTORE PUSH2 0x1F4 DUP5 DUP7 ADD SWAP1 DUP2 MSTORE PUSH1 0x60 DUP1 DUP7 ADD DUP9 DUP2 MSTORE PUSH1 0x0 DUP10 DUP2 MSTORE PUSH1 0x3 DUP1 DUP7 MSTORE SWAP8 MLOAD PUSH32 0xA15BC60C955C405D20D9149C709E2460F1C2D9A497496A7F46004D1772C3054C SSTORE SWAP5 MLOAD PUSH32 0xA15BC60C955C405D20D9149C709E2460F1C2D9A497496A7F46004D1772C3054D SSTORE SWAP2 MLOAD PUSH32 0xA15BC60C955C405D20D9149C709E2460F1C2D9A497496A7F46004D1772C3054E SSTORE SWAP1 MLOAD PUSH32 0xA15BC60C955C405D20D9149C709E2460F1C2D9A497496A7F46004D1772C3054F DUP1 SLOAD SWAP2 ISZERO ISZERO PUSH1 0xFF NOT SWAP3 DUP4 AND OR SWAP1 SSTORE DUP7 MLOAD DUP1 DUP7 ADD DUP9 MSTORE PUSH8 0x4563918244F40000 DUP2 MSTORE PUSH3 0x4F1A00 DUP2 DUP6 ADD SWAP1 DUP2 MSTORE PUSH2 0x3E8 DUP3 DUP11 ADD SWAP1 DUP2 MSTORE DUP3 DUP6 ADD DUP12 DUP2 MSTORE PUSH1 0x2 DUP9 MSTORE DUP10 DUP8 MSTORE SWAP3 MLOAD PUSH32 0xC3A24B0501BD2C13A7E57F2DB4369EC4C223447539FC0724A9D55AC4A06EBD4D SSTORE SWAP1 MLOAD PUSH32 0xC3A24B0501BD2C13A7E57F2DB4369EC4C223447539FC0724A9D55AC4A06EBD4E SSTORE MLOAD PUSH32 0xC3A24B0501BD2C13A7E57F2DB4369EC4C223447539FC0724A9D55AC4A06EBD4F SSTORE MLOAD PUSH32 0xC3A24B0501BD2C13A7E57F2DB4369EC4C223447539FC0724A9D55AC4A06EBD50 DUP1 SLOAD SWAP2 ISZERO ISZERO SWAP2 DUP4 AND SWAP2 SWAP1 SWAP2 OR SWAP1 SSTORE DUP7 MLOAD DUP1 DUP7 ADD DUP9 MSTORE PUSH8 0x8AC7230489E80000 DUP2 MSTORE PUSH3 0x76A700 DUP2 DUP6 ADD SWAP1 DUP2 MSTORE PUSH2 0x7D0 DUP3 DUP11 ADD SWAP1 DUP2 MSTORE DUP3 DUP6 ADD DUP12 DUP2 MSTORE DUP10 DUP9 MSTORE DUP10 DUP8 MSTORE SWAP3 MLOAD PUSH32 0xCBC4E5FB02C3D1DE23A9F1E014B4D2EE5AEAEA9505DF5E855C9210BF472495AF SSTORE SWAP1 MLOAD PUSH32 0xCBC4E5FB02C3D1DE23A9F1E014B4D2EE5AEAEA9505DF5E855C9210BF472495B0 SSTORE MLOAD PUSH32 0xCBC4E5FB02C3D1DE23A9F1E014B4D2EE5AEAEA9505DF5E855C9210BF472495B1 SSTORE MLOAD PUSH32 0xCBC4E5FB02C3D1DE23A9F1E014B4D2EE5AEAEA9505DF5E855C9210BF472495B2 DUP1 SLOAD SWAP2 ISZERO ISZERO SWAP2 DUP4 AND SWAP2 SWAP1 SWAP2 OR SWAP1 SSTORE DUP7 MLOAD SWAP5 DUP6 ADD DUP8 MSTORE PUSH9 0x2B5E3AF16B1880000 DUP6 MSTORE PUSH3 0xED4E00 DUP6 DUP5 ADD SWAP1 DUP2 MSTORE PUSH2 0x1388 SWAP8 DUP7 ADD SWAP8 DUP9 MSTORE SWAP2 DUP6 ADD SWAP8 DUP9 MSTORE PUSH1 0x4 SWAP1 SWAP4 MSTORE SWAP4 SWAP1 MSTORE SWAP1 MLOAD PUSH32 0x83EC6A1F0257B830B5E016457C9CF1435391BF56CC98F369A58A54FE93772465 SSTORE SWAP1 MLOAD PUSH32 0x83EC6A1F0257B830B5E016457C9CF1435391BF56CC98F369A58A54FE93772466 SSTORE SWAP1 MLOAD PUSH32 0x83EC6A1F0257B830B5E016457C9CF1435391BF56CC98F369A58A54FE93772467 SSTORE SWAP1 MLOAD PUSH32 0x83EC6A1F0257B830B5E016457C9CF1435391BF56CC98F369A58A54FE93772468 DUP1 SLOAD SWAP2 ISZERO ISZERO SWAP2 SWAP1 SWAP3 AND OR SWAP1 SSTORE PUSH2 0x3DD JUMP JUMPDEST PUSH1 0x0 DUP1 SLOAD PUSH1 0x1 PUSH1 0x1 PUSH1 0xA0 SHL SUB DUP4 DUP2 AND PUSH1 0x1 PUSH1 0x1 PUSH1 0xA0 SHL SUB NOT DUP4 AND DUP2 OR DUP5 SSTORE PUSH1 0x40 MLOAD SWAP2 SWAP1 SWAP3 AND SWAP3 DUP4 SWAP2 PUSH32 0x8BE0079C531659141344CD1FD0A4F28419497F9722A3DAAFE3B4186F6B6457E0 SWAP2 SWAP1 LOG3 POP POP JUMP JUMPDEST PUSH2 0xC13 DUP1 PUSH2 0x3EC PUSH1 0x0 CODECOPY PUSH1 0x0 RETURN INVALID PUSH1 0x80 PUSH1 0x40 MSTORE PUSH1 0x4 CALLDATASIZE LT PUSH2 0xE8 JUMPI PUSH1 0x0 CALLDATALOAD PUSH1 0xE0 SHR DUP1 PUSH4 0x7A766460 GT PUSH2 0x8A JUMPI DUP1 PUSH4 0x8DA5CB5B GT PUSH2 0x59 JUMPI DUP1 PUSH4 0x8DA5CB5B EQ PUSH2 0x32C JUMPI DUP1 PUSH4 0xA694FC3A EQ PUSH2 0x354 JUMPI DUP1 PUSH4 0xE1F1C4A7 EQ PUSH2 0x367 JUMPI DUP1 PUSH4 0xF2FDE38B EQ PUSH2 0x37D JUMPI PUSH1 0x0 DUP1 REVERT JUMPDEST DUP1 PUSH4 0x7A766460 EQ PUSH2 0x27C JUMPI DUP1 PUSH4 0x817B1CD2 EQ PUSH2 0x2E0 JUMPI DUP1 PUSH4 0x86989038 EQ PUSH2 0x2F6 JUMPI DUP1 PUSH4 0x8CCA4E6E EQ PUSH2 0x30C JUMPI PUSH1 0x0 DUP1 REVERT JUMPDEST DUP1 PUSH4 0x2DEF6620 GT PUSH2 0xC6 JUMPI DUP1 PUSH4 0x2DEF6620 EQ PUSH2 0x200 JUMPI DUP1 PUSH4 0x335E91A1 EQ PUSH2 0x217 JUMPI DUP1 PUSH4 0x6C7A93BE EQ PUSH2 0x247 JUMPI DUP1 PUSH4 0x715018A6 EQ PUSH2 0x267 JUMPI PUSH1 0x0 DUP1 REVERT JUMPDEST DUP1 PUSH4 0x39AF9EB EQ PUSH2 0xED JUMPI DUP1 PUSH4 0x1237739B EQ PUSH2 0x15B JUMPI DUP1 PUSH4 0x16934FC4 EQ PUSH2 0x189 JUMPI JUMPDEST PUSH1 0x0 DUP1 REVERT JUMPDEST CALLVALUE DUP1 ISZERO PUSH2 0xF9 JUMPI PUSH1 0x0 DUP1 REVERT JUMPDEST POP PUSH2 0x134 PUSH2 0x108 CALLDATASIZE PUSH1 0x4 PUSH2 0xAB7 JUMP JUMPDEST PUSH1 0x3 PUSH1 0x20 DUP2 SWAP1 MSTORE PUSH1 0x0 SWAP2 DUP3 MSTORE PUSH1 0x40 SWAP1 SWAP2 KECCAK256 DUP1 SLOAD PUSH1 0x1 DUP3 ADD SLOAD PUSH1 0x2 DUP4 ADD SLOAD SWAP3 SWAP1 SWAP4 ADD SLOAD SWAP1 SWAP3 SWAP2 SWAP1 PUSH1 0xFF AND DUP5 JUMP JUMPDEST PUSH1 0x40 DUP1 MLOAD SWAP5 DUP6 MSTORE PUSH1 0x20 DUP6 ADD SWAP4 SWAP1 SWAP4 MSTORE SWAP2 DUP4 ADD MSTORE ISZERO ISZERO PUSH1 0x60 DUP3 ADD MSTORE PUSH1 0x80 ADD JUMPDEST PUSH1 0x40 MLOAD DUP1 SWAP2 SUB SWAP1 RETURN JUMPDEST CALLVALUE DUP1 ISZERO PUSH2 0x167 JUMPI PUSH1 0x0 DUP1 REVERT JUMPDEST POP PUSH2 0x17B PUSH2 0x176 CALLDATASIZE PUSH1 0x4 PUSH2 0xAB7 JUMP JUMPDEST PUSH2 0x39D JUMP JUMPDEST PUSH1 0x40 MLOAD SWAP1 DUP2 MSTORE PUSH1 0x20 ADD PUSH2 0x152 JUMP JUMPDEST CALLVALUE DUP1 ISZERO PUSH2 0x195 JUMPI PUSH1 0x0 DUP1 REVERT JUMPDEST POP PUSH2 0x1D6 PUSH2 0x1A4 CALLDATASIZE PUSH1 0x4 PUSH2 0xAD0 JUMP JUMPDEST PUSH1 0x2 PUSH1 0x20 DUP2 SWAP1 MSTORE PUSH1 0x0 SWAP2 DUP3 MSTORE PUSH1 0x40 SWAP1 SWAP2 KECCAK256 DUP1 SLOAD PUSH1 0x1 DUP3 ADD SLOAD SWAP3 DUP3 ADD SLOAD PUSH1 0x3 DUP4 ADD SLOAD PUSH1 0x4 SWAP1 SWAP4 ADD SLOAD SWAP2 SWAP4 SWAP3 SWAP1 SWAP2 PUSH1 0xFF AND DUP6 JUMP JUMPDEST PUSH1 0x40 DUP1 MLOAD SWAP6 DUP7 MSTORE PUSH1 0x20 DUP7 ADD SWAP5 SWAP1 SWAP5 MSTORE SWAP3 DUP5 ADD SWAP2 SWAP1 SWAP2 MSTORE PUSH1 0x60 DUP4 ADD MSTORE ISZERO ISZERO PUSH1 0x80 DUP3 ADD MSTORE PUSH1 0xA0 ADD PUSH2 0x152 JUMP JUMPDEST CALLVALUE DUP1 ISZERO PUSH2 0x20C JUMPI PUSH1 0x0 DUP1 REVERT JUMPDEST POP PUSH2 0x215 PUSH2 0x400 JUMP JUMPDEST STOP JUMPDEST CALLVALUE DUP1 ISZERO PUSH2 0x223 JUMPI PUSH1 0x0 DUP1 REVERT JUMPDEST POP PUSH2 0x237 PUSH2 0x232 CALLDATASIZE PUSH1 0x4 PUSH2 0xAD0 JUMP JUMPDEST PUSH2 0x55E JUMP JUMPDEST PUSH1 0x40 MLOAD SWAP1 ISZERO ISZERO DUP2 MSTORE PUSH1 0x20 ADD PUSH2 0x152 JUMP JUMPDEST CALLVALUE DUP1 ISZERO PUSH2 0x253 JUMPI PUSH1 0x0 DUP1 REVERT JUMPDEST POP PUSH2 0x215 PUSH2 0x262 CALLDATASIZE PUSH1 0x4 PUSH2 0xB00 JUMP JUMPDEST PUSH2 0x5AB JUMP JUMPDEST CALLVALUE DUP1 ISZERO PUSH2 0x273 JUMPI PUSH1 0x0 DUP1 REVERT JUMPDEST POP PUSH2 0x215 PUSH2 0x64A JUMP JUMPDEST CALLVALUE DUP1 ISZERO PUSH2 0x288 JUMPI PUSH1 0x0 DUP1 REVERT JUMPDEST POP PUSH2 0x29C PUSH2 0x297 CALLDATASIZE PUSH1 0x4 PUSH2 0xAD0 JUMP JUMPDEST PUSH2 0x65C JUMP JUMPDEST PUSH1 0x40 MLOAD PUSH2 0x152 SWAP2 SWAP1 PUSH1 0x0 PUSH1 0xA0 DUP3 ADD SWAP1 POP DUP3 MLOAD DUP3 MSTORE PUSH1 0x20 DUP4 ADD MLOAD PUSH1 0x20 DUP4 ADD MSTORE PUSH1 0x40 DUP4 ADD MLOAD PUSH1 0x40 DUP4 ADD MSTORE PUSH1 0x60 DUP4 ADD MLOAD PUSH1 0x60 DUP4 ADD MSTORE PUSH1 0x80 DUP4 ADD MLOAD ISZERO ISZERO PUSH1 0x80 DUP4 ADD MSTORE SWAP3 SWAP2 POP POP JUMP JUMPDEST CALLVALUE DUP1 ISZERO PUSH2 0x2EC JUMPI PUSH1 0x0 DUP1 REVERT JUMPDEST POP PUSH2 0x17B PUSH1 0x4 SLOAD DUP2 JUMP JUMPDEST CALLVALUE DUP1 ISZERO PUSH2 0x302 JUMPI PUSH1 0x0 DUP1 REVERT JUMPDEST POP PUSH2 0x17B PUSH1 0x5 SLOAD DUP2 JUMP JUMPDEST CALLVALUE DUP1 ISZERO PUSH2 0x318 JUMPI PUSH1 0x0 DUP1 REVERT JUMPDEST POP PUSH2 0x17B PUSH2 0x327 CALLDATASIZE PUSH1 0x4 PUSH2 0xAD0 JUMP JUMPDEST PUSH2 0x6EA JUMP JUMPDEST CALLVALUE DUP1 ISZERO PUSH2 0x338 JUMPI PUSH1 0x0 DUP1 REVERT JUMPDEST POP PUSH1 0x0 SLOAD PUSH1 0x40 MLOAD PUSH1 0x1 PUSH1 0x1 PUSH1 0xA0 SHL SUB SWAP1 SWAP2 AND DUP2 MSTORE PUSH1 0x20 ADD PUSH2 0x152 JUMP JUMPDEST PUSH2 0x215 PUSH2 0x362 CALLDATASIZE PUSH1 0x4 PUSH2 0xAB7 JUMP JUMPDEST PUSH2 0x734 JUMP JUMPDEST CALLVALUE DUP1 ISZERO PUSH2 0x373 JUMPI PUSH1 0x0 DUP1 REVERT JUMPDEST POP PUSH2 0x17B PUSH2 0x2710 DUP2 JUMP JUMPDEST CALLVALUE DUP1 ISZERO PUSH2 0x389 JUMPI PUSH1 0x0 DUP1 REVERT JUMPDEST POP PUSH2 0x215 PUSH2 0x398 CALLDATASIZE PUSH1 0x4 PUSH2 0xAD0 JUMP JUMPDEST PUSH2 0x9D5 JUMP JUMPDEST PUSH1 0x0 PUSH1 0x4 JUMPDEST PUSH1 0x1 DUP2 LT PUSH2 0x3F7 JUMPI PUSH1 0x0 DUP2 DUP2 MSTORE PUSH1 0x3 PUSH1 0x20 DUP2 SWAP1 MSTORE PUSH1 0x40 SWAP1 SWAP2 KECCAK256 ADD SLOAD PUSH1 0xFF AND DUP1 ISZERO PUSH2 0x3DA JUMPI POP PUSH1 0x0 DUP2 DUP2 MSTORE PUSH1 0x3 PUSH1 0x20 MSTORE PUSH1 0x40 SWAP1 KECCAK256 SLOAD DUP4 LT ISZERO JUMPDEST ISZERO PUSH2 0x3E5 JUMPI SWAP3 SWAP2 POP POP JUMP JUMPDEST DUP1 PUSH2 0x3EF DUP2 PUSH2 0xB48 JUMP JUMPDEST SWAP2 POP POP PUSH2 0x3A2 JUMP JUMPDEST POP PUSH1 0x0 SWAP3 SWAP2 POP POP JUMP JUMPDEST PUSH2 0x408 PUSH2 0xA10 JUMP JUMPDEST CALLER PUSH1 0x0 SWAP1 DUP2 MSTORE PUSH1 0x2 PUSH1 0x20 MSTORE PUSH1 0x40 SWAP1 KECCAK256 PUSH1 0x4 DUP2 ADD SLOAD PUSH1 0xFF AND PUSH2 0x462 JUMPI PUSH1 0x40 MLOAD PUSH3 0x461BCD PUSH1 0xE5 SHL DUP2 MSTORE PUSH1 0x20 PUSH1 0x4 DUP3 ADD MSTORE PUSH1 0xF PUSH1 0x24 DUP3 ADD MSTORE PUSH15 0x4E6F20616374697665207374616B65 PUSH1 0x88 SHL PUSH1 0x44 DUP3 ADD MSTORE PUSH1 0x64 ADD JUMPDEST PUSH1 0x40 MLOAD DUP1 SWAP2 SUB SWAP1 REVERT JUMPDEST DUP1 PUSH1 0x2 ADD SLOAD TIMESTAMP LT ISZERO PUSH2 0x4AB JUMPI PUSH1 0x40 MLOAD PUSH3 0x461BCD PUSH1 0xE5 SHL DUP2 MSTORE PUSH1 0x20 PUSH1 0x4 DUP3 ADD MSTORE PUSH1 0x12 PUSH1 0x24 DUP3 ADD MSTORE PUSH18 0x14DD185AD9481CDD1A5B1B081B1BD8DAD959 PUSH1 0x72 SHL PUSH1 0x44 DUP3 ADD MSTORE PUSH1 0x64 ADD PUSH2 0x459 JUMP JUMPDEST DUP1 SLOAD PUSH1 0x4 DUP1 DUP4 ADD DUP1 SLOAD PUSH1 0xFF NOT AND SWAP1 SSTORE PUSH1 0x0 PUSH1 0x3 DUP5 ADD DUP2 SWAP1 SSTORE DUP2 SLOAD DUP4 SWAP3 SWAP2 SWAP1 PUSH2 0x4D4 SWAP1 DUP5 SWAP1 PUSH2 0xB5F JUMP JUMPDEST SWAP1 SWAP2 SSTORE POP POP PUSH1 0x5 DUP1 SLOAD SWAP1 PUSH1 0x0 PUSH2 0x4E9 DUP4 PUSH2 0xB48 JUMP JUMPDEST SWAP1 SWAP2 SSTORE POP POP PUSH1 0x40 MLOAD CALLER SWAP1 DUP3 ISZERO PUSH2 0x8FC MUL SWAP1 DUP4 SWAP1 PUSH1 0x0 DUP2 DUP2 DUP2 DUP6 DUP9 DUP9 CALL SWAP4 POP POP POP POP ISZERO DUP1 ISZERO PUSH2 0x51B JUMPI RETURNDATASIZE PUSH1 0x0 DUP1 RETURNDATACOPY RETURNDATASIZE PUSH1 0x0 REVERT JUMPDEST POP PUSH1 0x40 MLOAD DUP2 DUP2 MSTORE CALLER SWAP1 PUSH32 0xF5BB82176FEB1B5E747E28471AA92156A04D9F3AB9F45F28E2D704232B93F75 SWAP1 PUSH1 0x20 ADD PUSH1 0x40 MLOAD DUP1 SWAP2 SUB SWAP1 LOG2 POP POP PUSH2 0x55C PUSH1 0x1 DUP1 SSTORE JUMP JUMPDEST JUMP JUMPDEST PUSH1 0x1 PUSH1 0x1 PUSH1 0xA0 SHL SUB DUP2 AND PUSH1 0x0 SWAP1 DUP2 MSTORE PUSH1 0x2 PUSH1 0x20 MSTORE PUSH1 0x40 DUP2 KECCAK256 PUSH1 0x4 ADD SLOAD PUSH1 0xFF AND PUSH2 0x589 JUMPI POP PUSH1 0x0 SWAP2 SWAP1 POP JUMP JUMPDEST POP PUSH1 0x1 PUSH1 0x1 PUSH1 0xA0 SHL SUB AND PUSH1 0x0 SWAP1 DUP2 MSTORE PUSH1 0x2 PUSH1 0x20 DUP2 SWAP1 MSTORE PUSH1 0x40 SWAP1 SWAP2 KECCAK256 ADD SLOAD TIMESTAMP LT SWAP1 JUMP JUMPDEST PUSH2 0x5B3 PUSH2 0xA3A JUMP JUMPDEST PUSH1 0x40 DUP1 MLOAD PUSH1 0x80 DUP2 ADD DUP3 MSTORE DUP5 DUP2 MSTORE PUSH1 0x20 DUP1 DUP3 ADD DUP6 DUP2 MSTORE DUP3 DUP5 ADD DUP6 DUP2 MSTORE PUSH1 0x1 PUSH1 0x60 DUP6 ADD DUP2 DUP2 MSTORE PUSH1 0x0 DUP12 DUP2 MSTORE PUSH1 0x3 DUP1 DUP8 MSTORE SWAP1 DUP9 SWAP1 KECCAK256 SWAP7 MLOAD DUP8 SSTORE SWAP4 MLOAD SWAP2 DUP7 ADD SWAP2 SWAP1 SWAP2 SSTORE SWAP1 MLOAD PUSH1 0x2 DUP6 ADD SSTORE MLOAD SWAP3 ADD DUP1 SLOAD PUSH1 0xFF NOT AND SWAP3 ISZERO ISZERO SWAP3 SWAP1 SWAP3 OR SWAP1 SWAP2 SSTORE DUP2 MLOAD DUP6 DUP2 MSTORE SWAP1 DUP2 ADD DUP4 SWAP1 MSTORE DUP6 SWAP2 PUSH32 0x236F4D6B84FD2F2C0B1E27E1FD2F0E31E5FF6E9B6907D5308FDBBCF44C75AB97 SWAP2 ADD PUSH1 0x40 MLOAD DUP1 SWAP2 SUB SWAP1 LOG2 POP POP POP POP JUMP JUMPDEST PUSH2 0x652 PUSH2 0xA3A JUMP JUMPDEST PUSH2 0x55C PUSH1 0x0 PUSH2 0xA67 JUMP JUMPDEST PUSH2 0x690 PUSH1 0x40 MLOAD DUP1 PUSH1 0xA0 ADD PUSH1 0x40 MSTORE DUP1 PUSH1 0x0 DUP2 MSTORE PUSH1 0x20 ADD PUSH1 0x0 DUP2 MSTORE PUSH1 0x20 ADD PUSH1 0x0 DUP2 MSTORE PUSH1 0x20 ADD PUSH1 0x0 DUP2 MSTORE PUSH1 0x20 ADD PUSH1 0x0 ISZERO ISZERO DUP2 MSTORE POP SWAP1 JUMP JUMPDEST POP PUSH1 0x1 PUSH1 0x1 PUSH1 0xA0 SHL SUB AND PUSH1 0x0 SWAP1 DUP2 MSTORE PUSH1 0x2 PUSH1 0x20 DUP2 DUP2 MSTORE PUSH1 0x40 SWAP3 DUP4 SWAP1 KECCAK256 DUP4 MLOAD PUSH1 0xA0 DUP2 ADD DUP6 MSTORE DUP2 SLOAD DUP2 MSTORE PUSH1 0x1 DUP3 ADD SLOAD SWAP3 DUP2 ADD SWAP3 SWAP1 SWAP3 MSTORE SWAP2 DUP3 ADD SLOAD SWAP3 DUP2 ADD SWAP3 SWAP1 SWAP3 MSTORE PUSH1 0x3 DUP2 ADD SLOAD PUSH1 0x60 DUP4 ADD MSTORE PUSH1 0x4 ADD SLOAD PUSH1 0xFF AND ISZERO ISZERO PUSH1 0x80 DUP3 ADD MSTORE SWAP1 JUMP JUMPDEST PUSH1 0x1 PUSH1 0x1 PUSH1 0xA0 SHL SUB DUP2 AND PUSH1 0x0 SWAP1 DUP2 MSTORE PUSH1 0x2 PUSH1 0x20 MSTORE PUSH1 0x40 DUP2 KECCAK256 PUSH1 0x4 ADD SLOAD PUSH1 0xFF AND PUSH2 0x715 JUMPI POP PUSH1 0x0 SWAP2 SWAP1 POP JUMP JUMPDEST POP PUSH1 0x1 PUSH1 0x1 PUSH1 0xA0 SHL SUB AND PUSH1 0x0 SWAP1 DUP2 MSTORE PUSH1 0x2 PUSH1 0x20 MSTORE PUSH1 0x40 SWAP1 KECCAK256 PUSH1 0x3 ADD SLOAD SWAP1 JUMP JUMPDEST PUSH2 0x73C PUSH2 0xA10 JUMP JUMPDEST PUSH1 0x0 DUP2 DUP2 MSTORE PUSH1 0x3 PUSH1 0x20 DUP2 SWAP1 MSTORE PUSH1 0x40 SWAP1 SWAP2 KECCAK256 ADD SLOAD PUSH1 0xFF AND PUSH2 0x791 JUMPI PUSH1 0x40 MLOAD PUSH3 0x461BCD PUSH1 0xE5 SHL DUP2 MSTORE PUSH1 0x20 PUSH1 0x4 DUP3 ADD MSTORE PUSH1 0x10 PUSH1 0x24 DUP3 ADD MSTORE PUSH16 0x151A595C881B9BDD08195B98589B1959 PUSH1 0x82 SHL PUSH1 0x44 DUP3 ADD MSTORE PUSH1 0x64 ADD PUSH2 0x459 JUMP JUMPDEST PUSH1 0x0 DUP2 DUP2 MSTORE PUSH1 0x3 PUSH1 0x20 MSTORE PUSH1 0x40 SWAP1 KECCAK256 SLOAD CALLVALUE LT ISZERO PUSH2 0x7E4 JUMPI PUSH1 0x40 MLOAD PUSH3 0x461BCD PUSH1 0xE5 SHL DUP2 MSTORE PUSH1 0x20 PUSH1 0x4 DUP3 ADD MSTORE PUSH1 0x12 PUSH1 0x24 DUP3 ADD MSTORE PUSH18 0x496E73756666696369656E74207374616B65 PUSH1 0x70 SHL PUSH1 0x44 DUP3 ADD MSTORE PUSH1 0x64 ADD PUSH2 0x459 JUMP JUMPDEST CALLER PUSH1 0x0 SWAP1 DUP2 MSTORE PUSH1 0x2 PUSH1 0x20 MSTORE PUSH1 0x40 SWAP1 KECCAK256 PUSH1 0x4 ADD SLOAD PUSH1 0xFF AND ISZERO PUSH2 0x839 JUMPI PUSH1 0x40 MLOAD PUSH3 0x461BCD PUSH1 0xE5 SHL DUP2 MSTORE PUSH1 0x20 PUSH1 0x4 DUP3 ADD MSTORE PUSH1 0xF PUSH1 0x24 DUP3 ADD MSTORE PUSH15 0x416C7265616479207374616B696E67 PUSH1 0x88 SHL PUSH1 0x44 DUP3 ADD MSTORE PUSH1 0x64 ADD PUSH2 0x459 JUMP JUMPDEST PUSH1 0x0 DUP2 DUP2 MSTORE PUSH1 0x3 PUSH1 0x20 DUP2 DUP2 MSTORE PUSH1 0x40 SWAP3 DUP4 SWAP1 KECCAK256 DUP4 MLOAD PUSH1 0x80 DUP2 ADD DUP6 MSTORE DUP2 SLOAD DUP2 MSTORE PUSH1 0x1 DUP3 ADD SLOAD DUP2 DUP5 ADD SWAP1 DUP2 MSTORE PUSH1 0x2 DUP4 ADD SLOAD DUP3 DUP8 ADD MSTORE SWAP2 SWAP1 SWAP4 ADD SLOAD PUSH1 0xFF AND ISZERO ISZERO PUSH1 0x60 DUP5 ADD MSTORE DUP4 MLOAD PUSH1 0xA0 DUP2 ADD DUP6 MSTORE CALLVALUE DUP2 MSTORE TIMESTAMP SWAP3 DUP2 ADD DUP4 SWAP1 MSTORE SWAP1 MLOAD SWAP3 SWAP4 SWAP1 SWAP3 SWAP1 DUP4 ADD SWAP2 PUSH2 0x8A0 SWAP2 SWAP1 PUSH2 0xB78 JUMP JUMPDEST DUP2 MSTORE PUSH1 0x20 ADD PUSH2 0x2710 DUP4 PUSH1 0x40 ADD MLOAD CALLVALUE PUSH2 0x8B8 SWAP2 SWAP1 PUSH2 0xB8B JUMP JUMPDEST PUSH2 0x8C2 SWAP2 SWAP1 PUSH2 0xBA2 JUMP JUMPDEST DUP2 MSTORE PUSH1 0x1 PUSH1 0x20 SWAP2 DUP3 ADD DUP2 SWAP1 MSTORE CALLER PUSH1 0x0 SWAP1 DUP2 MSTORE PUSH1 0x2 DUP1 DUP5 MSTORE PUSH1 0x40 DUP1 DUP4 KECCAK256 DUP7 MLOAD DUP2 SSTORE SWAP5 DUP7 ADD MLOAD SWAP4 DUP6 ADD SWAP4 SWAP1 SWAP4 SSTORE SWAP2 DUP5 ADD MLOAD SWAP2 DUP4 ADD SWAP2 SWAP1 SWAP2 SSTORE PUSH1 0x60 DUP4 ADD MLOAD PUSH1 0x3 DUP4 ADD SSTORE PUSH1 0x80 SWAP1 SWAP3 ADD MLOAD PUSH1 0x4 SWAP2 DUP3 ADD DUP1 SLOAD PUSH1 0xFF NOT AND SWAP2 ISZERO ISZERO SWAP2 SWAP1 SWAP2 OR SWAP1 SSTORE DUP1 SLOAD CALLVALUE SWAP3 SWAP1 PUSH2 0x92C SWAP1 DUP5 SWAP1 PUSH2 0xB78 JUMP JUMPDEST SWAP1 SWAP2 SSTORE POP POP PUSH1 0x5 DUP1 SLOAD SWAP1 PUSH1 0x0 PUSH2 0x941 DUP4 PUSH2 0xBC4 JUMP JUMPDEST SWAP1 SWAP2 SSTORE POP POP PUSH1 0x40 DUP1 MLOAD CALLVALUE DUP2 MSTORE PUSH1 0x20 DUP2 ADD DUP5 SWAP1 MSTORE CALLER SWAP2 PUSH32 0x1449C6DD7851ABC30ABF37F57715F492010519147CC2652FBC38202C18A6EE90 SWAP2 ADD PUSH1 0x40 MLOAD DUP1 SWAP2 SUB SWAP1 LOG2 CALLER PUSH1 0x0 DUP2 DUP2 MSTORE PUSH1 0x2 PUSH1 0x20 SWAP1 DUP2 MSTORE PUSH1 0x40 SWAP2 DUP3 SWAP1 KECCAK256 PUSH1 0x3 ADD SLOAD SWAP2 MLOAD SWAP2 DUP3 MSTORE PUSH32 0xF56BAD187DFD1163DE59B54C788E0B68004EEA12DC82E20883EC8F4E0C0E85A2 SWAP2 ADD PUSH1 0x40 MLOAD DUP1 SWAP2 SUB SWAP1 LOG2 POP PUSH2 0x9D2 PUSH1 0x1 DUP1 SSTORE JUMP JUMPDEST POP JUMP JUMPDEST PUSH2 0x9DD PUSH2 0xA3A JUMP JUMPDEST PUSH1 0x1 PUSH1 0x1 PUSH1 0xA0 SHL SUB DUP2 AND PUSH2 0xA07 JUMPI PUSH1 0x40 MLOAD PUSH4 0x1E4FBDF7 PUSH1 0xE0 SHL DUP2 MSTORE PUSH1 0x0 PUSH1 0x4 DUP3 ADD MSTORE PUSH1 0x24 ADD PUSH2 0x459 JUMP JUMPDEST PUSH2 0x9D2 DUP2 PUSH2 0xA67 JUMP JUMPDEST PUSH1 0x2 PUSH1 0x1 SLOAD SUB PUSH2 0xA33 JUMPI PUSH1 0x40 MLOAD PUSH4 0x3EE5AEB5 PUSH1 0xE0 SHL DUP2 MSTORE PUSH1 0x4 ADD PUSH1 0x40 MLOAD DUP1 SWAP2 SUB SWAP1 REVERT JUMPDEST PUSH1 0x2 PUSH1 0x1 SSTORE JUMP JUMPDEST PUSH1 0x0 SLOAD PUSH1 0x1 PUSH1 0x1 PUSH1 0xA0 SHL SUB AND CALLER EQ PUSH2 0x55C JUMPI PUSH1 0x40 MLOAD PUSH4 0x118CDAA7 PUSH1 0xE0 SHL DUP2 MSTORE CALLER PUSH1 0x4 DUP3 ADD MSTORE PUSH1 0x24 ADD PUSH2 0x459 JUMP JUMPDEST PUSH1 0x0 DUP1 SLOAD PUSH1 0x1 PUSH1 0x1 PUSH1 0xA0 SHL SUB DUP4 DUP2 AND PUSH1 0x1 PUSH1 0x1 PUSH1 0xA0 SHL SUB NOT DUP4 AND DUP2 OR DUP5 SSTORE PUSH1 0x40 MLOAD SWAP2 SWAP1 SWAP3 AND SWAP3 DUP4 SWAP2 PUSH32 0x8BE0079C531659141344CD1FD0A4F28419497F9722A3DAAFE3B4186F6B6457E0 SWAP2 SWAP1 LOG3 POP POP JUMP JUMPDEST PUSH1 0x0 PUSH1 0x20 DUP3 DUP5 SUB SLT ISZERO PUSH2 0xAC9 JUMPI PUSH1 0x0 DUP1 REVERT JUMPDEST POP CALLDATALOAD SWAP2 SWAP1 POP JUMP JUMPDEST PUSH1 0x0 PUSH1 0x20 DUP3 DUP5 SUB SLT ISZERO PUSH2 0xAE2 JUMPI PUSH1 0x0 DUP1 REVERT JUMPDEST DUP2 CALLDATALOAD PUSH1 0x1 PUSH1 0x1 PUSH1 0xA0 SHL SUB DUP2 AND DUP2 EQ PUSH2 0xAF9 JUMPI PUSH1 0x0 DUP1 REVERT JUMPDEST SWAP4 SWAP3 POP POP POP JUMP JUMPDEST PUSH1 0x0 DUP1 PUSH1 0x0 DUP1 PUSH1 0x80 DUP6 DUP8 SUB SLT ISZERO PUSH2 0xB16 JUMPI PUSH1 0x0 DUP1 REVERT JUMPDEST POP POP DUP3 CALLDATALOAD SWAP5 PUSH1 0x20 DUP5 ADD CALLDATALOAD SWAP5 POP PUSH1 0x40 DUP5 ADD CALLDATALOAD SWAP4 PUSH1 0x60 ADD CALLDATALOAD SWAP3 POP SWAP1 POP JUMP JUMPDEST PUSH4 0x4E487B71 PUSH1 0xE0 SHL PUSH1 0x0 MSTORE PUSH1 0x11 PUSH1 0x4 MSTORE PUSH1 0x24 PUSH1 0x0 REVERT JUMPDEST PUSH1 0x0 DUP2 PUSH2 0xB57 JUMPI PUSH2 0xB57 PUSH2 0xB32 JUMP JUMPDEST POP PUSH1 0x0 NOT ADD SWAP1 JUMP JUMPDEST DUP2 DUP2 SUB DUP2 DUP2 GT ISZERO PUSH2 0xB72 JUMPI PUSH2 0xB72 PUSH2 0xB32 JUMP JUMPDEST SWAP3 SWAP2 POP POP JUMP JUMPDEST DUP1 DUP3 ADD DUP1 DUP3 GT ISZERO PUSH2 0xB72 JUMPI PUSH2 0xB72 PUSH2 0xB32 JUMP JUMPDEST DUP1 DUP3 MUL DUP2 ISZERO DUP3 DUP3 DIV DUP5 EQ OR PUSH2 0xB72 JUMPI PUSH2 0xB72 PUSH2 0xB32 JUMP JUMPDEST PUSH1 0x0 DUP3 PUSH2 0xBBF JUMPI PUSH4 0x4E487B71 PUSH1 0xE0 SHL PUSH1 0x0 MSTORE PUSH1 0x12 PUSH1 0x4 MSTORE PUSH1 0x24 PUSH1 0x0 REVERT JUMPDEST POP DIV SWAP1 JUMP JUMPDEST PUSH1 0x0 PUSH1 0x1 DUP3 ADD PUSH2 0xBD6 JUMPI PUSH2 0xBD6 PUSH2 0xB32 JUMP JUMPDEST POP PUSH1 0x1 ADD SWAP1 JUMP INVALID LOG2 PUSH5 0x6970667358 0x22 SLT KECCAK256 0x1F GASPRICE PUSH31 0x73BC8B5C64B99DC5E976FC6245D79B6D0F71E34300E7DD58C0FD4C86A46473 PUSH16 0x6C634300081400330000000000000000 "},"methodIdentifiers":{"BASIS_POINTS()":"e1f1c4a7","configureTier(uint256,uint256,uint256,int256)":"6c7a93be","getReputationBonus(address)":"8cca4e6e","getStake(address)":"7a766460","getTierForAmount(uint256)":"1237739b","isStakeLocked(address)":"335e91a1","owner()":"8da5cb5b","renounceOwnership()":"715018a6","stake(uint256)":"a694fc3a","stakes(address)":"16934fc4","tiers(uint256)":"039af9eb","totalStaked()":"817b1cd2","totalStakers()":"86989038","transferOwnership(address)":"f2fde38b","unstake()":"2def6620"}}}}}