{"contracts/layer3/intelligence/BehaviorMarketplace.sol":{"BehaviorMarketplace":{"abi":[{"inputs":[],"stateMutability":"nonpayable","type":"constructor"},{"inputs":[{"internalType":"address","name":"sender","type":"address"},{"internalType":"uint256","name":"tokenId","type":"uint256"},{"internalType":"address","name":"owner","type":"address"}],"name":"ERC721IncorrectOwner","type":"error"},{"inputs":[{"internalType":"address","name":"operator","type":"address"},{"internalType":"uint256","name":"tokenId","type":"uint256"}],"name":"ERC721InsufficientApproval","type":"error"},{"inputs":[{"internalType":"address","name":"approver","type":"address"}],"name":"ERC721InvalidApprover","type":"error"},{"inputs":[{"internalType":"address","name":"operator","type":"address"}],"name":"ERC721InvalidOperator","type":"error"},{"inputs":[{"internalType":"address","name":"owner","type":"address"}],"name":"ERC721InvalidOwner","type":"error"},{"inputs":[{"internalType":"address","name":"receiver","type":"address"}],"name":"ERC721InvalidReceiver","type":"error"},{"inputs":[{"internalType":"address","name":"sender","type":"address"}],"name":"ERC721InvalidSender","type":"error"},{"inputs":[{"internalType":"uint256","name":"tokenId","type":"uint256"}],"name":"ERC721NonexistentToken","type":"error"},{"inputs":[{"internalType":"address","name":"owner","type":"address"}],"name":"OwnableInvalidOwner","type":"error"},{"inputs":[{"internalType":"address","name":"account","type":"address"}],"name":"OwnableUnauthorizedAccount","type":"error"},{"inputs":[],"name":"ReentrancyGuardReentrantCall","type":"error"},{"anonymous":false,"inputs":[{"indexed":true,"internalType":"address","name":"owner","type":"address"},{"indexed":true,"internalType":"address","name":"approved","type":"address"},{"indexed":true,"internalType":"uint256","name":"tokenId","type":"uint256"}],"name":"Approval","type":"event"},{"anonymous":false,"inputs":[{"indexed":true,"internalType":"address","name":"owner","type":"address"},{"indexed":true,"internalType":"address","name":"operator","type":"address"},{"indexed":false,"internalType":"bool","name":"approved","type":"bool"}],"name":"ApprovalForAll","type":"event"},{"anonymous":false,"inputs":[{"indexed":true,"internalType":"uint256","name":"behaviorId","type":"uint256"},{"indexed":false,"internalType":"bool","name":"success","type":"bool"}],"name":"BehaviorExecuted","type":"event"},{"anonymous":false,"inputs":[{"indexed":true,"internalType":"uint256","name":"behaviorId","type":"uint256"},{"indexed":false,"internalType":"uint256","name":"price","type":"uint256"}],"name":"BehaviorListed","type":"event"},{"anonymous":false,"inputs":[{"indexed":true,"internalType":"uint256","name":"behaviorId","type":"uint256"},{"indexed":true,"internalType":"address","name":"creator","type":"address"},{"indexed":false,"internalType":"string","name":"name","type":"string"},{"indexed":false,"internalType":"enum BehaviorMarketplace.BehaviorType","name":"behaviorType","type":"uint8"}],"name":"BehaviorMinted","type":"event"},{"anonymous":false,"inputs":[{"indexed":true,"internalType":"uint256","name":"behaviorId","type":"uint256"},{"indexed":true,"internalType":"address","name":"buyer","type":"address"},{"indexed":false,"internalType":"uint256","name":"price","type":"uint256"}],"name":"BehaviorSold","type":"event"},{"anonymous":false,"inputs":[{"indexed":true,"internalType":"uint256","name":"behaviorId","type":"uint256"},{"indexed":false,"internalType":"uint256","name":"newVersion","type":"uint256"}],"name":"BehaviorUpdated","type":"event"},{"anonymous":false,"inputs":[{"indexed":true,"internalType":"address","name":"previousOwner","type":"address"},{"indexed":true,"internalType":"address","name":"newOwner","type":"address"}],"name":"OwnershipTransferred","type":"event"},{"anonymous":false,"inputs":[{"indexed":true,"internalType":"uint256","name":"behaviorId","type":"uint256"},{"indexed":true,"internalType":"address","name":"creator","type":"address"},{"indexed":false,"internalType":"uint256","name":"amount","type":"uint256"}],"name":"RoyaltyPaid","type":"event"},{"anonymous":false,"inputs":[{"indexed":true,"internalType":"address","name":"from","type":"address"},{"indexed":true,"internalType":"address","name":"to","type":"address"},{"indexed":true,"internalType":"uint256","name":"tokenId","type":"uint256"}],"name":"Transfer","type":"event"},{"inputs":[],"name":"FEE_DENOMINATOR","outputs":[{"internalType":"uint256","name":"","type":"uint256"}],"stateMutability":"view","type":"function"},{"inputs":[],"name":"MAX_ROYALTY","outputs":[{"internalType":"uint256","name":"","type":"uint256"}],"stateMutability":"view","type":"function"},{"inputs":[{"internalType":"address","name":"to","type":"address"},{"internalType":"uint256","name":"tokenId","type":"uint256"}],"name":"approve","outputs":[],"stateMutability":"nonpayable","type":"function"},{"inputs":[{"internalType":"address","name":"owner","type":"address"}],"name":"balanceOf","outputs":[{"internalType":"uint256","name":"","type":"uint256"}],"stateMutability":"view","type":"function"},{"inputs":[{"internalType":"uint256","name":"","type":"uint256"},{"internalType":"uint256","name":"","type":"uint256"}],"name":"behaviorLicensees","outputs":[{"internalType":"address","name":"","type":"address"}],"stateMutability":"view","type":"function"},{"inputs":[{"internalType":"uint256","name":"","type":"uint256"}],"name":"behaviorStats","outputs":[{"internalType":"uint256","name":"totalExecutions","type":"uint256"},{"internalType":"uint256","name":"successfulExecutions","type":"uint256"},{"internalType":"uint256","name":"totalRevenue","type":"uint256"},{"internalType":"uint256","name":"averagePerformance","type":"uint256"},{"internalType":"uint256","name":"lastUsed","type":"uint256"}],"stateMutability":"view","type":"function"},{"inputs":[{"internalType":"uint256","name":"","type":"uint256"}],"name":"behaviors","outputs":[{"internalType":"uint256","name":"id","type":"uint256"},{"internalType":"string","name":"name","type":"string"},{"internalType":"enum BehaviorMarketplace.BehaviorType","name":"behaviorType","type":"uint8"},{"internalType":"address","name":"creator","type":"address"},{"internalType":"bytes32","name":"codeHash","type":"bytes32"},{"internalType":"uint256","name":"price","type":"uint256"},{"internalType":"uint256","name":"usageCount","type":"uint256"},{"internalType":"uint256","name":"successRate","type":"uint256"},{"internalType":"uint256","name":"createdAt","type":"uint256"},{"internalType":"uint256","name":"version","type":"uint256"},{"internalType":"bool","name":"isListed","type":"bool"},{"internalType":"uint256","name":"royaltyPercentage","type":"uint256"}],"stateMutability":"view","type":"function"},{"inputs":[{"internalType":"uint256","name":"behaviorId","type":"uint256"}],"name":"buyBehavior","outputs":[],"stateMutability":"payable","type":"function"},{"inputs":[{"internalType":"address","name":"","type":"address"},{"internalType":"uint256","name":"","type":"uint256"}],"name":"creatorBehaviors","outputs":[{"internalType":"uint256","name":"","type":"uint256"}],"stateMutability":"view","type":"function"},{"inputs":[{"internalType":"uint256","name":"tokenId","type":"uint256"}],"name":"getApproved","outputs":[{"internalType":"address","name":"","type":"address"}],"stateMutability":"view","type":"function"},{"inputs":[{"internalType":"uint256","name":"behaviorId","type":"uint256"}],"name":"getBehavior","outputs":[{"components":[{"internalType":"uint256","name":"id","type":"uint256"},{"internalType":"string","name":"name","type":"string"},{"internalType":"enum BehaviorMarketplace.BehaviorType","name":"behaviorType","type":"uint8"},{"internalType":"address","name":"creator","type":"address"},{"internalType":"bytes32","name":"codeHash","type":"bytes32"},{"internalType":"uint256","name":"price","type":"uint256"},{"internalType":"uint256","name":"usageCount","type":"uint256"},{"internalType":"uint256","name":"successRate","type":"uint256"},{"internalType":"uint256","name":"createdAt","type":"uint256"},{"internalType":"uint256","name":"version","type":"uint256"},{"internalType":"bool","name":"isListed","type":"bool"},{"internalType":"uint256","name":"royaltyPercentage","type":"uint256"}],"internalType":"struct BehaviorMarketplace.Behavior","name":"","type":"tuple"}],"stateMutability":"view","type":"function"},{"inputs":[{"internalType":"uint256","name":"behaviorId","type":"uint256"}],"name":"getBehaviorStats","outputs":[{"components":[{"internalType":"uint256","name":"totalExecutions","type":"uint256"},{"internalType":"uint256","name":"successfulExecutions","type":"uint256"},{"internalType":"uint256","name":"totalRevenue","type":"uint256"},{"internalType":"uint256","name":"averagePerformance","type":"uint256"},{"internalType":"uint256","name":"lastUsed","type":"uint256"}],"internalType":"struct BehaviorMarketplace.BehaviorStats","name":"","type":"tuple"}],"stateMutability":"view","type":"function"},{"inputs":[{"internalType":"address","name":"creator","type":"address"}],"name":"getCreatorBehaviors","outputs":[{"internalType":"uint256[]","name":"","type":"uint256[]"}],"stateMutability":"view","type":"function"},{"inputs":[{"internalType":"uint256","name":"behaviorId","type":"uint256"},{"internalType":"address","name":"user","type":"address"}],"name":"hasLicense","outputs":[{"internalType":"bool","name":"","type":"bool"}],"stateMutability":"view","type":"function"},{"inputs":[{"internalType":"address","name":"owner","type":"address"},{"internalType":"address","name":"operator","type":"address"}],"name":"isApprovedForAll","outputs":[{"internalType":"bool","name":"","type":"bool"}],"stateMutability":"view","type":"function"},{"inputs":[{"internalType":"uint256","name":"behaviorId","type":"uint256"}],"name":"licenseBehavior","outputs":[],"stateMutability":"payable","type":"function"},{"inputs":[{"internalType":"uint256","name":"behaviorId","type":"uint256"},{"internalType":"uint256","name":"price","type":"uint256"}],"name":"listBehavior","outputs":[],"stateMutability":"nonpayable","type":"function"},{"inputs":[{"internalType":"uint256","name":"","type":"uint256"}],"name":"listings","outputs":[{"internalType":"uint256","name":"behaviorId","type":"uint256"},{"internalType":"address","name":"seller","type":"address"},{"internalType":"uint256","name":"price","type":"uint256"},{"internalType":"bool","name":"isActive","type":"bool"},{"internalType":"uint256","name":"listedAt","type":"uint256"}],"stateMutability":"view","type":"function"},{"inputs":[{"internalType":"string","name":"name","type":"string"},{"internalType":"enum BehaviorMarketplace.BehaviorType","name":"behaviorType","type":"uint8"},{"internalType":"bytes32","name":"codeHash","type":"bytes32"},{"internalType":"uint256","name":"price","type":"uint256"},{"internalType":"uint256","name":"royaltyPercentage","type":"uint256"}],"name":"mintBehavior","outputs":[{"internalType":"uint256","name":"","type":"uint256"}],"stateMutability":"nonpayable","type":"function"},{"inputs":[],"name":"name","outputs":[{"internalType":"string","name":"","type":"string"}],"stateMutability":"view","type":"function"},{"inputs":[],"name":"owner","outputs":[{"internalType":"address","name":"","type":"address"}],"stateMutability":"view","type":"function"},{"inputs":[{"internalType":"uint256","name":"tokenId","type":"uint256"}],"name":"ownerOf","outputs":[{"internalType":"address","name":"","type":"address"}],"stateMutability":"view","type":"function"},{"inputs":[],"name":"platformFee","outputs":[{"internalType":"uint256","name":"","type":"uint256"}],"stateMutability":"view","type":"function"},{"inputs":[{"internalType":"uint256","name":"behaviorId","type":"uint256"},{"internalType":"bool","name":"success","type":"bool"}],"name":"recordExecution","outputs":[],"stateMutability":"nonpayable","type":"function"},{"inputs":[],"name":"renounceOwnership","outputs":[],"stateMutability":"nonpayable","type":"function"},{"inputs":[{"internalType":"address","name":"from","type":"address"},{"internalType":"address","name":"to","type":"address"},{"internalType":"uint256","name":"tokenId","type":"uint256"}],"name":"safeTransferFrom","outputs":[],"stateMutability":"nonpayable","type":"function"},{"inputs":[{"internalType":"address","name":"from","type":"address"},{"internalType":"address","name":"to","type":"address"},{"internalType":"uint256","name":"tokenId","type":"uint256"},{"internalType":"bytes","name":"data","type":"bytes"}],"name":"safeTransferFrom","outputs":[],"stateMutability":"nonpayable","type":"function"},{"inputs":[{"internalType":"address","name":"operator","type":"address"},{"internalType":"bool","name":"approved","type":"bool"}],"name":"setApprovalForAll","outputs":[],"stateMutability":"nonpayable","type":"function"},{"inputs":[{"internalType":"bytes4","name":"interfaceId","type":"bytes4"}],"name":"supportsInterface","outputs":[{"internalType":"bool","name":"","type":"bool"}],"stateMutability":"view","type":"function"},{"inputs":[],"name":"symbol","outputs":[{"internalType":"string","name":"","type":"string"}],"stateMutability":"view","type":"function"},{"inputs":[{"internalType":"uint256","name":"tokenId","type":"uint256"}],"name":"tokenURI","outputs":[{"internalType":"string","name":"","type":"string"}],"stateMutability":"view","type":"function"},{"inputs":[{"internalType":"address","name":"from","type":"address"},{"internalType":"address","name":"to","type":"address"},{"internalType":"uint256","name":"tokenId","type":"uint256"}],"name":"transferFrom","outputs":[],"stateMutability":"nonpayable","type":"function"},{"inputs":[{"internalType":"address","name":"newOwner","type":"address"}],"name":"transferOwnership","outputs":[],"stateMutability":"nonpayable","type":"function"},{"inputs":[{"internalType":"uint256","name":"behaviorId","type":"uint256"},{"internalType":"bytes32","name":"newCodeHash","type":"bytes32"}],"name":"updateBehavior","outputs":[],"stateMutability":"nonpayable","type":"function"},{"inputs":[],"name":"withdrawFees","outputs":[],"stateMutability":"nonpayable","type":"function"}],"evm":{"bytecode":{"linkReferences":{},"object":"608060405260fa600e553480156200001657600080fd5b50336040518060400160405280600c81526020016b27a0a7102132b430bb34b7b960a11b8152506040518060400160405280600481526020016327a0a72160e11b81525081600090816200006b9190620001ba565b5060016200007a8282620001ba565b5050506001600160a01b038116620000ac57604051631e4fbdf760e01b81526000600482015260240160405180910390fd5b620000b781620000c3565b50600160075562000286565b600680546001600160a01b038381166001600160a01b0319831681179093556040519116919082907f8be0079c531659141344cd1fd0a4f28419497f9722a3daafe3b4186f6b6457e090600090a35050565b634e487b7160e01b600052604160045260246000fd5b600181811c908216806200014057607f821691505b6020821081036200016157634e487b7160e01b600052602260045260246000fd5b50919050565b601f821115620001b557600081815260208120601f850160051c81016020861015620001905750805b601f850160051c820191505b81811015620001b1578281556001016200019c565b5050505b505050565b81516001600160401b03811115620001d657620001d662000115565b620001ee81620001e784546200012b565b8462000167565b602080601f8311600181146200022657600084156200020d5750858301515b600019600386901b1c1916600185901b178555620001b1565b600085815260208120601f198616915b82811015620002575788860151825594840194600190910190840162000236565b5085821015620002765787850151600019600388901b60f8161c191681555b5050505050600190811b01905550565b612a2580620002966000396000f3fe6080604052600436106102035760003560e01c80636e06bbe811610118578063b88d4fde116100a0578063d83e5f4d1161006f578063d83e5f4d1461066f578063de74e57b14610685578063e985e9c51461070e578063f2fde38b1461072e578063f43d20511461074e57600080fd5b8063b88d4fde146105f9578063c87b56dd14610619578063d48c5aa214610639578063d73792a91461065957600080fd5b806389f868b5116100e757806389f868b5146105735780638cda9cd8146105935780638da5cb5b146105a657806395d89b41146105c4578063a22cb465146105d957600080fd5b80636e06bbe8146104fe57806370a082311461051e578063715018a61461053e578063782ee6861461055357600080fd5b806320a8879b1161019b57806342842e0e1161016a57806342842e0e14610476578063476343ee146104965780634b997fa2146104ab57806353142c8a146104cb5780636352211e146104de57600080fd5b806320a8879b1461038857806323b872dd146103fa57806326232a2e1461041a578063385429f41461043e57600080fd5b8063081812fc116101d7578063081812fc146102a1578063095ea7b3146102d957806311266fa4146102f957806311b36c611461032657600080fd5b80621f9d191461020857806301ffc9a71461022a578063048efc281461025f57806306fdde031461027f575b600080fd5b34801561021457600080fd5b506102286102233660046121d5565b61077b565b005b34801561023657600080fd5b5061024a61024536600461220d565b610828565b60405190151581526020015b60405180910390f35b34801561026b57600080fd5b5061022861027a3660046121d5565b61087a565b34801561028b57600080fd5b506102946109cb565b604051610256919061227a565b3480156102ad57600080fd5b506102c16102bc36600461228d565b610a5d565b6040516001600160a01b039091168152602001610256565b3480156102e557600080fd5b506102286102f43660046122c2565b610a86565b34801561030557600080fd5b506103196103143660046122ec565b610a95565b6040516102569190612307565b34801561033257600080fd5b5061034661034136600461228d565b610b01565b6040516102569190600060a082019050825182526020830151602083015260408301516040830152606083015160608301526080830151608083015292915050565b34801561039457600080fd5b506103d26103a336600461228d565b600a60205260009081526040902080546001820154600283015460038401546004909401549293919290919085565b604080519586526020860194909452928401919091526060830152608082015260a001610256565b34801561040657600080fd5b5061022861041536600461234b565b610b82565b34801561042657600080fd5b50610430600e5481565b604051908152602001610256565b34801561044a57600080fd5b5061045e61045936600461228d565b610c0d565b6040516102569c9b9a999897969594939291906123bf565b34801561048257600080fd5b5061022861049136600461234b565b610d04565b3480156104a257600080fd5b50610228610d24565b3480156104b757600080fd5b5061024a6104c636600461243c565b610d68565b6102286104d936600461228d565b610e4b565b3480156104ea57600080fd5b506102c16104f936600461228d565b611160565b34801561050a57600080fd5b50610228610519366004612478565b61116b565b34801561052a57600080fd5b506104306105393660046122ec565b611274565b34801561054a57600080fd5b506102286112bc565b34801561055f57600080fd5b5061043061056e366004612527565b6112d0565b34801561057f57600080fd5b5061043061058e3660046122c2565b61154c565b6102286105a136600461228d565b61157d565b3480156105b257600080fd5b506006546001600160a01b03166102c1565b3480156105d057600080fd5b50610294611684565b3480156105e557600080fd5b506102286105f43660046125a9565b611693565b34801561060557600080fd5b506102286106143660046125d3565b61169e565b34801561062557600080fd5b5061029461063436600461228d565b6116b6565b34801561064557600080fd5b506102c16106543660046121d5565b61172b565b34801561066557600080fd5b5061043061271081565b34801561067b57600080fd5b506104306103e881565b34801561069157600080fd5b506106dc6106a036600461228d565b600b602052600090815260409020805460018201546002830154600384015460049094015492936001600160a01b0390921692909160ff169085565b604080519586526001600160a01b0390941660208601529284019190915215156060830152608082015260a001610256565b34801561071a57600080fd5b5061024a61072936600461264f565b611763565b34801561073a57600080fd5b506102286107493660046122ec565b611791565b34801561075a57600080fd5b5061076e61076936600461228d565b6117cc565b6040516102569190612679565b6000828152600260205260409020546001600160a01b031633146107ba5760405162461bcd60e51b81526004016107b19061273d565b60405180910390fd5b60008281526009602052604081206003810183905560088101805491926107e083612776565b9190505550827f2ed65d7ab22e257ff9d73237b93ed65ef3b6e49863fb2608d285caea0d9956da826008015460405161081b91815260200190565b60405180910390a2505050565b60006001600160e01b031982166380ac58cd60e01b148061085957506001600160e01b03198216635b5e139f60e01b145b8061087457506301ffc9a760e01b6001600160e01b03198316145b92915050565b6000828152600260205260409020546001600160a01b031633146108b05760405162461bcd60e51b81526004016107b19061273d565b600081116108f05760405162461bcd60e51b815260206004820152600d60248201526c496e76616c696420707269636560981b60448201526064016107b1565b60008281526009602081815260408084209283018054600160ff1991821681179092556004948501879055825160a081018452888152338186019081528185018981526060830185815242608085019081528c8b52600b89529987902093518455915194830180546001600160a01b0319166001600160a01b0390961695909517909455925160028201559151600383018054909216901515179055935193909201929092555182815283917f871d2adaad3d942a7351e772c6d8011251faa7a8240b5ed187b7ea475c442c66910160405180910390a25050565b6060600080546109da9061278f565b80601f0160208091040260200160405190810160405280929190818152602001828054610a069061278f565b8015610a535780601f10610a2857610100808354040283529160200191610a53565b820191906000526020600020905b815481529060010190602001808311610a3657829003601f168201915b5050505050905090565b6000610a68826119a1565b506000828152600460205260409020546001600160a01b0316610874565b610a918282336119da565b5050565b6001600160a01b0381166000908152600c6020908152604091829020805483518184028101840190945280845260609392830182828015610af557602002820191906000526020600020905b815481526020019060010190808311610ae1575b50505050509050919050565b610b336040518060a0016040528060008152602001600081526020016000815260200160008152602001600081525090565b506000908152600a6020908152604091829020825160a0810184528154815260018201549281019290925260028101549282019290925260038201546060820152600490910154608082015290565b6001600160a01b038216610bac57604051633250574960e11b8152600060048201526024016107b1565b6000610bb98383336119e7565b9050836001600160a01b0316816001600160a01b031614610c07576040516364283d7b60e01b81526001600160a01b03808616600483015260248201849052821660448201526064016107b1565b50505050565b60096020526000908152604090208054600182018054919291610c2f9061278f565b80601f0160208091040260200160405190810160405280929190818152602001828054610c5b9061278f565b8015610ca85780601f10610c7d57610100808354040283529160200191610ca8565b820191906000526020600020905b815481529060010190602001808311610c8b57829003601f168201915b50505050600283015460038401546004850154600586015460068701546007880154600889015460098a0154600a909a0154989960ff8089169a6101009099046001600160a01b0316995096979596949593949293919216908c565b610d1f8383836040518060200160405280600081525061169e565b505050565b610d2c611ae0565b6006546040516001600160a01b03909116904780156108fc02916000818181858888f19350505050158015610d65573d6000803e3d6000fd5b50565b6000828152600d6020908152604080832080548251818502810185019093528083528493830182828015610dc557602002820191906000526020600020905b81546001600160a01b03168152600190910190602001808311610da7575b5050505050905060005b8151811015610e2757836001600160a01b0316828281518110610df457610df46127c9565b60200260200101516001600160a01b031603610e1557600192505050610874565b80610e1f81612776565b915050610dcf565b505050600091825260026020526040909120546001600160a01b0390811691161490565b610e53611b0d565b6000818152600b60205260409020600381015460ff16610ea25760405162461bcd60e51b815260206004820152600a602482015269139bdd081b1a5cdd195960b21b60448201526064016107b1565b8060020154341015610eed5760405162461bcd60e51b8152602060048201526014602482015273125b9cdd59999a58da595b9d081c185e5b595b9d60621b60448201526064016107b1565b6000828152600960205260408120600e54600284015491929161271091610f13916127df565b610f1d91906127f6565b9050600061271083600a01548560020154610f3891906127df565b610f4291906127f6565b9050600081838660020154610f579190612818565b610f619190612818565b6001860154909150610f7d906001600160a01b03163388611b37565b60018501546040516001600160a01b039091169082156108fc029083906000818181858888f19350505050158015610fb9573d6000803e3d6000fd5b50600082118015610fe457506001850154600285015461010090046001600160a01b03908116911614155b156110755760028401546040516101009091046001600160a01b0316906108fc8415029084906000818181858888f19350505050158015611029573d6000803e3d6000fd5b5060028401546040518381526101009091046001600160a01b03169087907ff670029fc6f5302baba881b4ae845d1453acdf752b4c19ed81fe0fa6a686409b9060200160405180910390a35b8460020154600a6000888152602001908152602001600020600201600082825461109f919061282b565b909155505060038501805460ff199081169091556009850180549091169055600285015434111561110957600285015433906108fc906110df9034612818565b6040518115909202916000818181858888f19350505050158015611107573d6000803e3d6000fd5b505b336001600160a01b0316867f94513d5b8d031d54d40471dc9580e0c9e861e241a68718881b4857231ee659c5876002015460405161114991815260200190565b60405180910390a35050505050610d656001600755565b6000610874826119a1565b6000828152600260205260409020546001600160a01b031633146111a15760405162461bcd60e51b81526004016107b19061273d565b6000828152600a60209081526040808320600990925282208154919290919083906111cb83612776565b919050555082156111ee576001820180549060006111e883612776565b91905055505b81546001830154611201906127106127df565b61120b91906127f6565b600682015560058101805490600061122283612776565b909155505042600483015560068101546003830155604051831515815284907f1bc923c174da3f774089d2b89ea497ff0b97003121d6d7ce76bff08ea87527569060200160405180910390a250505050565b60006001600160a01b0382166112a0576040516322718ad960e21b8152600060048201526024016107b1565b506001600160a01b031660009081526003602052604090205490565b6112c4611ae0565b6112ce6000611be7565b565b60006103e88211156113175760405162461bcd60e51b815260206004820152601060248201526f0a4def2c2d8e8f240e8dede40d0d2ced60831b60448201526064016107b1565b6008805490600061132783612776565b90915550506008546113393382611c39565b60405180610180016040528082815260200188815260200187600381111561136357611363612387565b81523360208083019190915260408083018990526060830188905260006080840181905261138860a08501524260c0850152600160e0850181905261010085018290526101209094018890528581526009835220835181559083015190918201906113ce9082612884565b50604082015160028201805460ff191660018360038111156113f2576113f2612387565b021790555060608281015160028381018054610100600160a81b0319166101006001600160a01b03909416840217905560808086015160038087019190915560a08088015160048089019190915560c0890151600589015560e08901516006890155948801516007880155610120880151600888015561014088015160098801805460ff191691151591909117905561016090970151600a9687015560408051978801815260008089526020808a018281528a8401838152611388998c01998a52958b018381528c84529982528383209a518b555160018b8101919091559451958a01959095559551918801919091559451959092019490945533808352600c855283832080549283018155835293909120018390555182907f5979da42aa610e8c79ce46ec2dd6dc5fd8224b2af6d3104320f26b4a7f5a16c99061153a908b908b90612944565b60405180910390a39695505050505050565b600c602052816000526040600020818154811061156857600080fd5b90600052602060002001600091509150505481565b6000818152600960205260409020600481015461159c90600a906127f6565b3410156115eb5760405162461bcd60e51b815260206004820152601860248201527f496e73756666696369656e74206c6963656e736520666565000000000000000060448201526064016107b1565b60028101546040516001600160a01b0361010090920491909116903480156108fc02916000818181858888f1935050505015801561162d573d6000803e3d6000fd5b506000828152600d6020908152604080832080546001810182559084528284200180546001600160a01b03191633179055848352600a9091528120600201805434929061167b90849061282b565b90915550505050565b6060600180546109da9061278f565b610a91338383611c53565b6116a9848484610b82565b610c073385858585611cf2565b60606116c1826119a1565b5060006116d960408051602081019091526000815290565b905060008151116116f95760405180602001604052806000815250611724565b8061170384611e1d565b604051602001611714929190612966565b6040516020818303038152906040525b9392505050565b600d602052816000526040600020818154811061174757600080fd5b6000918252602090912001546001600160a01b03169150829050565b6001600160a01b03918216600090815260056020908152604080832093909416825291909152205460ff1690565b611799611ae0565b6001600160a01b0381166117c357604051631e4fbdf760e01b8152600060048201526024016107b1565b610d6581611be7565b61183e60408051610180810182526000808252606060208301529091820190815260200160006001600160a01b03168152602001600080191681526020016000815260200160008152602001600081526020016000815260200160008152602001600015158152602001600081525090565b6009600083815260200190815260200160002060405180610180016040529081600082015481526020016001820180546118779061278f565b80601f01602080910402602001604051908101604052809291908181526020018280546118a39061278f565b80156118f05780601f106118c5576101008083540402835291602001916118f0565b820191906000526020600020905b8154815290600101906020018083116118d357829003601f168201915b5050509183525050600282015460209091019060ff16600381111561191757611917612387565b600381111561192857611928612387565b815260028201546001600160a01b0361010091829004166020830152600383015460408301526004830154606083015260058301546080830152600683015460a0830152600783015460c0830152600883015460e0830152600983015460ff16151590820152600a909101546101209091015292915050565b6000818152600260205260408120546001600160a01b03168061087457604051637e27328960e01b8152600481018490526024016107b1565b610d1f8383836001611eb0565b6000828152600260205260408120546001600160a01b0390811690831615611a1457611a14818486611fb6565b6001600160a01b03811615611a5257611a31600085600080611eb0565b6001600160a01b038116600090815260036020526040902080546000190190555b6001600160a01b03851615611a81576001600160a01b0385166000908152600360205260409020805460010190555b60008481526002602052604080822080546001600160a01b0319166001600160a01b0389811691821790925591518793918516917fddf252ad1be2c89b69c2b068fc378daa952ba7f163c4a11628f55a4df523b3ef91a4949350505050565b6006546001600160a01b031633146112ce5760405163118cdaa760e01b81523360048201526024016107b1565b600260075403611b3057604051633ee5aeb560e01b815260040160405180910390fd5b6002600755565b6001600160a01b038216611b6157604051633250574960e11b8152600060048201526024016107b1565b6000611b6f838360006119e7565b90506001600160a01b038116611b9b57604051637e27328960e01b8152600481018390526024016107b1565b836001600160a01b0316816001600160a01b031614610c07576040516364283d7b60e01b81526001600160a01b03808616600483015260248201849052821660448201526064016107b1565b600680546001600160a01b038381166001600160a01b0319831681179093556040519116919082907f8be0079c531659141344cd1fd0a4f28419497f9722a3daafe3b4186f6b6457e090600090a35050565b610a9182826040518060200160405280600081525061201a565b6001600160a01b038216611c8557604051630b61174360e31b81526001600160a01b03831660048201526024016107b1565b6001600160a01b03838116600081815260056020908152604080832094871680845294825291829020805460ff191686151590811790915591519182527f17307eab39ab6107e8899845ad3d59bd9653f200f220920489ca2b5937696c31910160405180910390a3505050565b6001600160a01b0383163b15611e1657604051630a85bd0160e11b81526001600160a01b0384169063150b7a0290611d34908890889087908790600401612995565b6020604051808303816000875af1925050508015611d6f575060408051601f3d908101601f19168201909252611d6c918101906129d2565b60015b611dd8573d808015611d9d576040519150601f19603f3d011682016040523d82523d6000602084013e611da2565b606091505b508051600003611dd057604051633250574960e11b81526001600160a01b03851660048201526024016107b1565b805160208201fd5b6001600160e01b03198116630a85bd0160e11b14611e1457604051633250574960e11b81526001600160a01b03851660048201526024016107b1565b505b5050505050565b60606000611e2a83612032565b600101905060008167ffffffffffffffff811115611e4a57611e4a61249b565b6040519080825280601f01601f191660200182016040528015611e74576020820181803683370190505b5090508181016020015b600019016f181899199a1a9b1b9c1cb0b131b232b360811b600a86061a8153600a8504945084611e7e57509392505050565b8080611ec457506001600160a01b03821615155b15611f86576000611ed4846119a1565b90506001600160a01b03831615801590611f005750826001600160a01b0316816001600160a01b031614155b8015611f135750611f118184611763565b155b15611f3c5760405163a9fbf51f60e01b81526001600160a01b03841660048201526024016107b1565b8115611f845783856001600160a01b0316826001600160a01b03167f8c5be1e5ebec7d5bd14f71427d1e84f3dd0314c0f7b2291e5b200ac8c7c3b92560405160405180910390a45b505b5050600090815260046020526040902080546001600160a01b0319166001600160a01b0392909216919091179055565b611fc183838361210a565b610d1f576001600160a01b038316611fef57604051637e27328960e01b8152600481018290526024016107b1565b60405163177e802f60e01b81526001600160a01b0383166004820152602481018290526044016107b1565b6120248383612170565b610d1f336000858585611cf2565b60008072184f03e93ff9f4daa797ed6e38ed64bf6a1f0160401b83106120715772184f03e93ff9f4daa797ed6e38ed64bf6a1f0160401b830492506040015b6d04ee2d6d415b85acef8100000000831061209d576d04ee2d6d415b85acef8100000000830492506020015b662386f26fc1000083106120bb57662386f26fc10000830492506010015b6305f5e10083106120d3576305f5e100830492506008015b61271083106120e757612710830492506004015b606483106120f9576064830492506002015b600a83106108745760010192915050565b60006001600160a01b038316158015906121685750826001600160a01b0316846001600160a01b0316148061214457506121448484611763565b8061216857506000828152600460205260409020546001600160a01b038481169116145b949350505050565b6001600160a01b03821661219a57604051633250574960e11b8152600060048201526024016107b1565b60006121a8838360006119e7565b90506001600160a01b03811615610d1f576040516339e3563760e11b8152600060048201526024016107b1565b600080604083850312156121e857600080fd5b50508035926020909101359150565b6001600160e01b031981168114610d6557600080fd5b60006020828403121561221f57600080fd5b8135611724816121f7565b60005b8381101561224557818101518382015260200161222d565b50506000910152565b6000815180845261226681602086016020860161222a565b601f01601f19169290920160200192915050565b602081526000611724602083018461224e565b60006020828403121561229f57600080fd5b5035919050565b80356001600160a01b03811681146122bd57600080fd5b919050565b600080604083850312156122d557600080fd5b6122de836122a6565b946020939093013593505050565b6000602082840312156122fe57600080fd5b611724826122a6565b6020808252825182820181905260009190848201906040850190845b8181101561233f57835183529284019291840191600101612323565b50909695505050505050565b60008060006060848603121561236057600080fd5b612369846122a6565b9250612377602085016122a6565b9150604084013590509250925092565b634e487b7160e01b600052602160045260246000fd5b600481106123bb57634e487b7160e01b600052602160045260246000fd5b9052565b60006101808e83528060208401526123d98184018f61224e565b9150506123e9604083018d61239d565b6001600160a01b039a909a166060820152608081019890985260a088019690965260c087019490945260e08601929092526101008501526101208401521515610140830152610160909101529392505050565b6000806040838503121561244f57600080fd5b8235915061245f602084016122a6565b90509250929050565b803580151581146122bd57600080fd5b6000806040838503121561248b57600080fd5b8235915061245f60208401612468565b634e487b7160e01b600052604160045260246000fd5b600067ffffffffffffffff808411156124cc576124cc61249b565b604051601f8501601f19908116603f011681019082821181831017156124f4576124f461249b565b8160405280935085815286868601111561250d57600080fd5b858560208301376000602087830101525050509392505050565b600080600080600060a0868803121561253f57600080fd5b853567ffffffffffffffff81111561255657600080fd5b8601601f8101881361256757600080fd5b612576888235602084016124b1565b95505060208601356004811061258b57600080fd5b94979496505050506040830135926060810135926080909101359150565b600080604083850312156125bc57600080fd5b6125c5836122a6565b915061245f60208401612468565b600080600080608085870312156125e957600080fd5b6125f2856122a6565b9350612600602086016122a6565b925060408501359150606085013567ffffffffffffffff81111561262357600080fd5b8501601f8101871361263457600080fd5b612643878235602084016124b1565b91505092959194509250565b6000806040838503121561266257600080fd5b61266b836122a6565b915061245f602084016122a6565b6020815281516020820152600060208301516101808060408501526126a26101a085018361224e565b915060408501516126b6606086018261239d565b5060608501516001600160a01b038116608086015250608085015160a085015260a085015160c085015260c085015160e085015260e085015161010081818701528087015191505061012081818701528087015191505061014081818701528087015191505061016061272c8187018315159052565b959095015193019290925250919050565b6020808252600990820152682737ba1037bbb732b960b91b604082015260600190565b634e487b7160e01b600052601160045260246000fd5b60006001820161278857612788612760565b5060010190565b600181811c908216806127a357607f821691505b6020821081036127c357634e487b7160e01b600052602260045260246000fd5b50919050565b634e487b7160e01b600052603260045260246000fd5b808202811582820484141761087457610874612760565b60008261281357634e487b7160e01b600052601260045260246000fd5b500490565b8181038181111561087457610874612760565b8082018082111561087457610874612760565b601f821115610d1f57600081815260208120601f850160051c810160208610156128655750805b601f850160051c820191505b81811015611e1457828155600101612871565b815167ffffffffffffffff81111561289e5761289e61249b565b6128b2816128ac845461278f565b8461283e565b602080601f8311600181146128e757600084156128cf5750858301515b600019600386901b1c1916600185901b178555611e14565b600085815260208120601f198616915b82811015612916578886015182559484019460019091019084016128f7565b50858210156129345787850151600019600388901b60f8161c191681555b5050505050600190811b01905550565b604081526000612957604083018561224e565b9050611724602083018461239d565b6000835161297881846020880161222a565b83519083019061298c81836020880161222a565b01949350505050565b6001600160a01b03858116825284166020820152604081018390526080606082018190526000906129c89083018461224e565b9695505050505050565b6000602082840312156129e457600080fd5b8151611724816121f756fea2646970667358221220869d47d280aac1dcb990671d84dbe847037aa4cfe17e22966947290af08c47d864736f6c63430008140033","opcodes":"PUSH1 0x80 PUSH1 0x40 MSTORE PUSH1 0xFA PUSH1 0xE SSTORE CALLVALUE DUP1 ISZERO PUSH3 0x16 JUMPI PUSH1 0x0 DUP1 REVERT JUMPDEST POP CALLER PUSH1 0x40 MLOAD DUP1 PUSH1 0x40 ADD PUSH1 0x40 MSTORE DUP1 PUSH1 0xC DUP2 MSTORE PUSH1 0x20 ADD PUSH12 0x27A0A7102132B430BB34B7B9 PUSH1 0xA1 SHL DUP2 MSTORE POP PUSH1 0x40 MLOAD DUP1 PUSH1 0x40 ADD PUSH1 0x40 MSTORE DUP1 PUSH1 0x4 DUP2 MSTORE PUSH1 0x20 ADD PUSH4 0x27A0A721 PUSH1 0xE1 SHL DUP2 MSTORE POP DUP2 PUSH1 0x0 SWAP1 DUP2 PUSH3 0x6B SWAP2 SWAP1 PUSH3 0x1BA JUMP JUMPDEST POP PUSH1 0x1 PUSH3 0x7A DUP3 DUP3 PUSH3 0x1BA JUMP JUMPDEST POP POP POP PUSH1 0x1 PUSH1 0x1 PUSH1 0xA0 SHL SUB DUP2 AND PUSH3 0xAC JUMPI PUSH1 0x40 MLOAD PUSH4 0x1E4FBDF7 PUSH1 0xE0 SHL DUP2 MSTORE PUSH1 0x0 PUSH1 0x4 DUP3 ADD MSTORE PUSH1 0x24 ADD PUSH1 0x40 MLOAD DUP1 SWAP2 SUB SWAP1 REVERT JUMPDEST PUSH3 0xB7 DUP2 PUSH3 0xC3 JUMP JUMPDEST POP PUSH1 0x1 PUSH1 0x7 SSTORE PUSH3 0x286 JUMP JUMPDEST PUSH1 0x6 DUP1 SLOAD PUSH1 0x1 PUSH1 0x1 PUSH1 0xA0 SHL SUB DUP4 DUP2 AND PUSH1 0x1 PUSH1 0x1 PUSH1 0xA0 SHL SUB NOT DUP4 AND DUP2 OR SWAP1 SWAP4 SSTORE PUSH1 0x40 MLOAD SWAP2 AND SWAP2 SWAP1 DUP3 SWAP1 PUSH32 0x8BE0079C531659141344CD1FD0A4F28419497F9722A3DAAFE3B4186F6B6457E0 SWAP1 PUSH1 0x0 SWAP1 LOG3 POP POP JUMP JUMPDEST PUSH4 0x4E487B71 PUSH1 0xE0 SHL PUSH1 0x0 MSTORE PUSH1 0x41 PUSH1 0x4 MSTORE PUSH1 0x24 PUSH1 0x0 REVERT JUMPDEST PUSH1 0x1 DUP2 DUP2 SHR SWAP1 DUP3 AND DUP1 PUSH3 0x140 JUMPI PUSH1 0x7F DUP3 AND SWAP2 POP JUMPDEST PUSH1 0x20 DUP3 LT DUP2 SUB PUSH3 0x161 JUMPI PUSH4 0x4E487B71 PUSH1 0xE0 SHL PUSH1 0x0 MSTORE PUSH1 0x22 PUSH1 0x4 MSTORE PUSH1 0x24 PUSH1 0x0 REVERT JUMPDEST POP SWAP2 SWAP1 POP JUMP JUMPDEST PUSH1 0x1F DUP3 GT ISZERO PUSH3 0x1B5 JUMPI PUSH1 0x0 DUP2 DUP2 MSTORE PUSH1 0x20 DUP2 KECCAK256 PUSH1 0x1F DUP6 ADD PUSH1 0x5 SHR DUP2 ADD PUSH1 0x20 DUP7 LT ISZERO PUSH3 0x190 JUMPI POP DUP1 JUMPDEST PUSH1 0x1F DUP6 ADD PUSH1 0x5 SHR DUP3 ADD SWAP2 POP JUMPDEST DUP2 DUP2 LT ISZERO PUSH3 0x1B1 JUMPI DUP3 DUP2 SSTORE PUSH1 0x1 ADD PUSH3 0x19C JUMP JUMPDEST POP POP POP JUMPDEST POP POP POP JUMP JUMPDEST DUP2 MLOAD PUSH1 0x1 PUSH1 0x1 PUSH1 0x40 SHL SUB DUP2 GT ISZERO PUSH3 0x1D6 JUMPI PUSH3 0x1D6 PUSH3 0x115 JUMP JUMPDEST PUSH3 0x1EE DUP2 PUSH3 0x1E7 DUP5 SLOAD PUSH3 0x12B JUMP JUMPDEST DUP5 PUSH3 0x167 JUMP JUMPDEST PUSH1 0x20 DUP1 PUSH1 0x1F DUP4 GT PUSH1 0x1 DUP2 EQ PUSH3 0x226 JUMPI PUSH1 0x0 DUP5 ISZERO PUSH3 0x20D JUMPI POP DUP6 DUP4 ADD MLOAD JUMPDEST PUSH1 0x0 NOT PUSH1 0x3 DUP7 SWAP1 SHL SHR NOT AND PUSH1 0x1 DUP6 SWAP1 SHL OR DUP6 SSTORE PUSH3 0x1B1 JUMP JUMPDEST PUSH1 0x0 DUP6 DUP2 MSTORE PUSH1 0x20 DUP2 KECCAK256 PUSH1 0x1F NOT DUP7 AND SWAP2 JUMPDEST DUP3 DUP2 LT ISZERO PUSH3 0x257 JUMPI DUP9 DUP7 ADD MLOAD DUP3 SSTORE SWAP5 DUP5 ADD SWAP5 PUSH1 0x1 SWAP1 SWAP2 ADD SWAP1 DUP5 ADD PUSH3 0x236 JUMP JUMPDEST POP DUP6 DUP3 LT ISZERO PUSH3 0x276 JUMPI DUP8 DUP6 ADD MLOAD PUSH1 0x0 NOT PUSH1 0x3 DUP9 SWAP1 SHL PUSH1 0xF8 AND SHR NOT AND DUP2 SSTORE JUMPDEST POP POP POP POP POP PUSH1 0x1 SWAP1 DUP2 SHL ADD SWAP1 SSTORE POP JUMP JUMPDEST PUSH2 0x2A25 DUP1 PUSH3 0x296 PUSH1 0x0 CODECOPY PUSH1 0x0 RETURN INVALID PUSH1 0x80 PUSH1 0x40 MSTORE PUSH1 0x4 CALLDATASIZE LT PUSH2 0x203 JUMPI PUSH1 0x0 CALLDATALOAD PUSH1 0xE0 SHR DUP1 PUSH4 0x6E06BBE8 GT PUSH2 0x118 JUMPI DUP1 PUSH4 0xB88D4FDE GT PUSH2 0xA0 JUMPI DUP1 PUSH4 0xD83E5F4D GT PUSH2 0x6F JUMPI DUP1 PUSH4 0xD83E5F4D EQ PUSH2 0x66F JUMPI DUP1 PUSH4 0xDE74E57B EQ PUSH2 0x685 JUMPI DUP1 PUSH4 0xE985E9C5 EQ PUSH2 0x70E JUMPI DUP1 PUSH4 0xF2FDE38B EQ PUSH2 0x72E JUMPI DUP1 PUSH4 0xF43D2051 EQ PUSH2 0x74E JUMPI PUSH1 0x0 DUP1 REVERT JUMPDEST DUP1 PUSH4 0xB88D4FDE EQ PUSH2 0x5F9 JUMPI DUP1 PUSH4 0xC87B56DD EQ PUSH2 0x619 JUMPI DUP1 PUSH4 0xD48C5AA2 EQ PUSH2 0x639 JUMPI DUP1 PUSH4 0xD73792A9 EQ PUSH2 0x659 JUMPI PUSH1 0x0 DUP1 REVERT JUMPDEST DUP1 PUSH4 0x89F868B5 GT PUSH2 0xE7 JUMPI DUP1 PUSH4 0x89F868B5 EQ PUSH2 0x573 JUMPI DUP1 PUSH4 0x8CDA9CD8 EQ PUSH2 0x593 JUMPI DUP1 PUSH4 0x8DA5CB5B EQ PUSH2 0x5A6 JUMPI DUP1 PUSH4 0x95D89B41 EQ PUSH2 0x5C4 JUMPI DUP1 PUSH4 0xA22CB465 EQ PUSH2 0x5D9 JUMPI PUSH1 0x0 DUP1 REVERT JUMPDEST DUP1 PUSH4 0x6E06BBE8 EQ PUSH2 0x4FE JUMPI DUP1 PUSH4 0x70A08231 EQ PUSH2 0x51E JUMPI DUP1 PUSH4 0x715018A6 EQ PUSH2 0x53E JUMPI DUP1 PUSH4 0x782EE686 EQ PUSH2 0x553 JUMPI PUSH1 0x0 DUP1 REVERT JUMPDEST DUP1 PUSH4 0x20A8879B GT PUSH2 0x19B JUMPI DUP1 PUSH4 0x42842E0E GT PUSH2 0x16A JUMPI DUP1 PUSH4 0x42842E0E EQ PUSH2 0x476 JUMPI DUP1 PUSH4 0x476343EE EQ PUSH2 0x496 JUMPI DUP1 PUSH4 0x4B997FA2 EQ PUSH2 0x4AB JUMPI DUP1 PUSH4 0x53142C8A EQ PUSH2 0x4CB JUMPI DUP1 PUSH4 0x6352211E EQ PUSH2 0x4DE JUMPI PUSH1 0x0 DUP1 REVERT JUMPDEST DUP1 PUSH4 0x20A8879B EQ PUSH2 0x388 JUMPI DUP1 PUSH4 0x23B872DD EQ PUSH2 0x3FA JUMPI DUP1 PUSH4 0x26232A2E EQ PUSH2 0x41A JUMPI DUP1 PUSH4 0x385429F4 EQ PUSH2 0x43E JUMPI PUSH1 0x0 DUP1 REVERT JUMPDEST DUP1 PUSH4 0x81812FC GT PUSH2 0x1D7 JUMPI DUP1 PUSH4 0x81812FC EQ PUSH2 0x2A1 JUMPI DUP1 PUSH4 0x95EA7B3 EQ PUSH2 0x2D9 JUMPI DUP1 PUSH4 0x11266FA4 EQ PUSH2 0x2F9 JUMPI DUP1 PUSH4 0x11B36C61 EQ PUSH2 0x326 JUMPI PUSH1 0x0 DUP1 REVERT JUMPDEST DUP1 PUSH3 0x1F9D19 EQ PUSH2 0x208 JUMPI DUP1 PUSH4 0x1FFC9A7 EQ PUSH2 0x22A JUMPI DUP1 PUSH4 0x48EFC28 EQ PUSH2 0x25F JUMPI DUP1 PUSH4 0x6FDDE03 EQ PUSH2 0x27F JUMPI JUMPDEST PUSH1 0x0 DUP1 REVERT JUMPDEST CALLVALUE DUP1 ISZERO PUSH2 0x214 JUMPI PUSH1 0x0 DUP1 REVERT JUMPDEST POP PUSH2 0x228 PUSH2 0x223 CALLDATASIZE PUSH1 0x4 PUSH2 0x21D5 JUMP JUMPDEST PUSH2 0x77B JUMP JUMPDEST STOP JUMPDEST CALLVALUE DUP1 ISZERO PUSH2 0x236 JUMPI PUSH1 0x0 DUP1 REVERT JUMPDEST POP PUSH2 0x24A PUSH2 0x245 CALLDATASIZE PUSH1 0x4 PUSH2 0x220D JUMP JUMPDEST PUSH2 0x828 JUMP JUMPDEST PUSH1 0x40 MLOAD SWAP1 ISZERO ISZERO DUP2 MSTORE PUSH1 0x20 ADD JUMPDEST PUSH1 0x40 MLOAD DUP1 SWAP2 SUB SWAP1 RETURN JUMPDEST CALLVALUE DUP1 ISZERO PUSH2 0x26B JUMPI PUSH1 0x0 DUP1 REVERT JUMPDEST POP PUSH2 0x228 PUSH2 0x27A CALLDATASIZE PUSH1 0x4 PUSH2 0x21D5 JUMP JUMPDEST PUSH2 0x87A JUMP JUMPDEST CALLVALUE DUP1 ISZERO PUSH2 0x28B JUMPI PUSH1 0x0 DUP1 REVERT JUMPDEST POP PUSH2 0x294 PUSH2 0x9CB JUMP JUMPDEST PUSH1 0x40 MLOAD PUSH2 0x256 SWAP2 SWAP1 PUSH2 0x227A JUMP JUMPDEST CALLVALUE DUP1 ISZERO PUSH2 0x2AD JUMPI PUSH1 0x0 DUP1 REVERT JUMPDEST POP PUSH2 0x2C1 PUSH2 0x2BC CALLDATASIZE PUSH1 0x4 PUSH2 0x228D JUMP JUMPDEST PUSH2 0xA5D JUMP JUMPDEST PUSH1 0x40 MLOAD PUSH1 0x1 PUSH1 0x1 PUSH1 0xA0 SHL SUB SWAP1 SWAP2 AND DUP2 MSTORE PUSH1 0x20 ADD PUSH2 0x256 JUMP JUMPDEST CALLVALUE DUP1 ISZERO PUSH2 0x2E5 JUMPI PUSH1 0x0 DUP1 REVERT JUMPDEST POP PUSH2 0x228 PUSH2 0x2F4 CALLDATASIZE PUSH1 0x4 PUSH2 0x22C2 JUMP JUMPDEST PUSH2 0xA86 JUMP JUMPDEST CALLVALUE DUP1 ISZERO PUSH2 0x305 JUMPI PUSH1 0x0 DUP1 REVERT JUMPDEST POP PUSH2 0x319 PUSH2 0x314 CALLDATASIZE PUSH1 0x4 PUSH2 0x22EC JUMP JUMPDEST PUSH2 0xA95 JUMP JUMPDEST PUSH1 0x40 MLOAD PUSH2 0x256 SWAP2 SWAP1 PUSH2 0x2307 JUMP JUMPDEST CALLVALUE DUP1 ISZERO PUSH2 0x332 JUMPI PUSH1 0x0 DUP1 REVERT JUMPDEST POP PUSH2 0x346 PUSH2 0x341 CALLDATASIZE PUSH1 0x4 PUSH2 0x228D JUMP JUMPDEST PUSH2 0xB01 JUMP JUMPDEST PUSH1 0x40 MLOAD PUSH2 0x256 SWAP2 SWAP1 PUSH1 0x0 PUSH1 0xA0 DUP3 ADD SWAP1 POP DUP3 MLOAD DUP3 MSTORE PUSH1 0x20 DUP4 ADD MLOAD PUSH1 0x20 DUP4 ADD MSTORE PUSH1 0x40 DUP4 ADD MLOAD PUSH1 0x40 DUP4 ADD MSTORE PUSH1 0x60 DUP4 ADD MLOAD PUSH1 0x60 DUP4 ADD MSTORE PUSH1 0x80 DUP4 ADD MLOAD PUSH1 0x80 DUP4 ADD MSTORE SWAP3 SWAP2 POP POP JUMP JUMPDEST CALLVALUE DUP1 ISZERO PUSH2 0x394 JUMPI PUSH1 0x0 DUP1 REVERT JUMPDEST POP PUSH2 0x3D2 PUSH2 0x3A3 CALLDATASIZE PUSH1 0x4 PUSH2 0x228D JUMP JUMPDEST PUSH1 0xA PUSH1 0x20 MSTORE PUSH1 0x0 SWAP1 DUP2 MSTORE PUSH1 0x40 SWAP1 KECCAK256 DUP1 SLOAD PUSH1 0x1 DUP3 ADD SLOAD PUSH1 0x2 DUP4 ADD SLOAD PUSH1 0x3 DUP5 ADD SLOAD PUSH1 0x4 SWAP1 SWAP5 ADD SLOAD SWAP3 SWAP4 SWAP2 SWAP3 SWAP1 SWAP2 SWAP1 DUP6 JUMP JUMPDEST PUSH1 0x40 DUP1 MLOAD SWAP6 DUP7 MSTORE PUSH1 0x20 DUP7 ADD SWAP5 SWAP1 SWAP5 MSTORE SWAP3 DUP5 ADD SWAP2 SWAP1 SWAP2 MSTORE PUSH1 0x60 DUP4 ADD MSTORE PUSH1 0x80 DUP3 ADD MSTORE PUSH1 0xA0 ADD PUSH2 0x256 JUMP JUMPDEST CALLVALUE DUP1 ISZERO PUSH2 0x406 JUMPI PUSH1 0x0 DUP1 REVERT JUMPDEST POP PUSH2 0x228 PUSH2 0x415 CALLDATASIZE PUSH1 0x4 PUSH2 0x234B JUMP JUMPDEST PUSH2 0xB82 JUMP JUMPDEST CALLVALUE DUP1 ISZERO PUSH2 0x426 JUMPI PUSH1 0x0 DUP1 REVERT JUMPDEST POP PUSH2 0x430 PUSH1 0xE SLOAD DUP2 JUMP JUMPDEST PUSH1 0x40 MLOAD SWAP1 DUP2 MSTORE PUSH1 0x20 ADD PUSH2 0x256 JUMP JUMPDEST CALLVALUE DUP1 ISZERO PUSH2 0x44A JUMPI PUSH1 0x0 DUP1 REVERT JUMPDEST POP PUSH2 0x45E PUSH2 0x459 CALLDATASIZE PUSH1 0x4 PUSH2 0x228D JUMP JUMPDEST PUSH2 0xC0D JUMP JUMPDEST PUSH1 0x40 MLOAD PUSH2 0x256 SWAP13 SWAP12 SWAP11 SWAP10 SWAP9 SWAP8 SWAP7 SWAP6 SWAP5 SWAP4 SWAP3 SWAP2 SWAP1 PUSH2 0x23BF JUMP JUMPDEST CALLVALUE DUP1 ISZERO PUSH2 0x482 JUMPI PUSH1 0x0 DUP1 REVERT JUMPDEST POP PUSH2 0x228 PUSH2 0x491 CALLDATASIZE PUSH1 0x4 PUSH2 0x234B JUMP JUMPDEST PUSH2 0xD04 JUMP JUMPDEST CALLVALUE DUP1 ISZERO PUSH2 0x4A2 JUMPI PUSH1 0x0 DUP1 REVERT JUMPDEST POP PUSH2 0x228 PUSH2 0xD24 JUMP JUMPDEST CALLVALUE DUP1 ISZERO PUSH2 0x4B7 JUMPI PUSH1 0x0 DUP1 REVERT JUMPDEST POP PUSH2 0x24A PUSH2 0x4C6 CALLDATASIZE PUSH1 0x4 PUSH2 0x243C JUMP JUMPDEST PUSH2 0xD68 JUMP JUMPDEST PUSH2 0x228 PUSH2 0x4D9 CALLDATASIZE PUSH1 0x4 PUSH2 0x228D JUMP JUMPDEST PUSH2 0xE4B JUMP JUMPDEST CALLVALUE DUP1 ISZERO PUSH2 0x4EA JUMPI PUSH1 0x0 DUP1 REVERT JUMPDEST POP PUSH2 0x2C1 PUSH2 0x4F9 CALLDATASIZE PUSH1 0x4 PUSH2 0x228D JUMP JUMPDEST PUSH2 0x1160 JUMP JUMPDEST CALLVALUE DUP1 ISZERO PUSH2 0x50A JUMPI PUSH1 0x0 DUP1 REVERT JUMPDEST POP PUSH2 0x228 PUSH2 0x519 CALLDATASIZE PUSH1 0x4 PUSH2 0x2478 JUMP JUMPDEST PUSH2 0x116B JUMP JUMPDEST CALLVALUE DUP1 ISZERO PUSH2 0x52A JUMPI PUSH1 0x0 DUP1 REVERT JUMPDEST POP PUSH2 0x430 PUSH2 0x539 CALLDATASIZE PUSH1 0x4 PUSH2 0x22EC JUMP JUMPDEST PUSH2 0x1274 JUMP JUMPDEST CALLVALUE DUP1 ISZERO PUSH2 0x54A JUMPI PUSH1 0x0 DUP1 REVERT JUMPDEST POP PUSH2 0x228 PUSH2 0x12BC JUMP JUMPDEST CALLVALUE DUP1 ISZERO PUSH2 0x55F JUMPI PUSH1 0x0 DUP1 REVERT JUMPDEST POP PUSH2 0x430 PUSH2 0x56E CALLDATASIZE PUSH1 0x4 PUSH2 0x2527 JUMP JUMPDEST PUSH2 0x12D0 JUMP JUMPDEST CALLVALUE DUP1 ISZERO PUSH2 0x57F JUMPI PUSH1 0x0 DUP1 REVERT JUMPDEST POP PUSH2 0x430 PUSH2 0x58E CALLDATASIZE PUSH1 0x4 PUSH2 0x22C2 JUMP JUMPDEST PUSH2 0x154C JUMP JUMPDEST PUSH2 0x228 PUSH2 0x5A1 CALLDATASIZE PUSH1 0x4 PUSH2 0x228D JUMP JUMPDEST PUSH2 0x157D JUMP JUMPDEST CALLVALUE DUP1 ISZERO PUSH2 0x5B2 JUMPI PUSH1 0x0 DUP1 REVERT JUMPDEST POP PUSH1 0x6 SLOAD PUSH1 0x1 PUSH1 0x1 PUSH1 0xA0 SHL SUB AND PUSH2 0x2C1 JUMP JUMPDEST CALLVALUE DUP1 ISZERO PUSH2 0x5D0 JUMPI PUSH1 0x0 DUP1 REVERT JUMPDEST POP PUSH2 0x294 PUSH2 0x1684 JUMP JUMPDEST CALLVALUE DUP1 ISZERO PUSH2 0x5E5 JUMPI PUSH1 0x0 DUP1 REVERT JUMPDEST POP PUSH2 0x228 PUSH2 0x5F4 CALLDATASIZE PUSH1 0x4 PUSH2 0x25A9 JUMP JUMPDEST PUSH2 0x1693 JUMP JUMPDEST CALLVALUE DUP1 ISZERO PUSH2 0x605 JUMPI PUSH1 0x0 DUP1 REVERT JUMPDEST POP PUSH2 0x228 PUSH2 0x614 CALLDATASIZE PUSH1 0x4 PUSH2 0x25D3 JUMP JUMPDEST PUSH2 0x169E JUMP JUMPDEST CALLVALUE DUP1 ISZERO PUSH2 0x625 JUMPI PUSH1 0x0 DUP1 REVERT JUMPDEST POP PUSH2 0x294 PUSH2 0x634 CALLDATASIZE PUSH1 0x4 PUSH2 0x228D JUMP JUMPDEST PUSH2 0x16B6 JUMP JUMPDEST CALLVALUE DUP1 ISZERO PUSH2 0x645 JUMPI PUSH1 0x0 DUP1 REVERT JUMPDEST POP PUSH2 0x2C1 PUSH2 0x654 CALLDATASIZE PUSH1 0x4 PUSH2 0x21D5 JUMP JUMPDEST PUSH2 0x172B JUMP JUMPDEST CALLVALUE DUP1 ISZERO PUSH2 0x665 JUMPI PUSH1 0x0 DUP1 REVERT JUMPDEST POP PUSH2 0x430 PUSH2 0x2710 DUP2 JUMP JUMPDEST CALLVALUE DUP1 ISZERO PUSH2 0x67B JUMPI PUSH1 0x0 DUP1 REVERT JUMPDEST POP PUSH2 0x430 PUSH2 0x3E8 DUP2 JUMP JUMPDEST CALLVALUE DUP1 ISZERO PUSH2 0x691 JUMPI PUSH1 0x0 DUP1 REVERT JUMPDEST POP PUSH2 0x6DC PUSH2 0x6A0 CALLDATASIZE PUSH1 0x4 PUSH2 0x228D JUMP JUMPDEST PUSH1 0xB PUSH1 0x20 MSTORE PUSH1 0x0 SWAP1 DUP2 MSTORE PUSH1 0x40 SWAP1 KECCAK256 DUP1 SLOAD PUSH1 0x1 DUP3 ADD SLOAD PUSH1 0x2 DUP4 ADD SLOAD PUSH1 0x3 DUP5 ADD SLOAD PUSH1 0x4 SWAP1 SWAP5 ADD SLOAD SWAP3 SWAP4 PUSH1 0x1 PUSH1 0x1 PUSH1 0xA0 SHL SUB SWAP1 SWAP3 AND SWAP3 SWAP1 SWAP2 PUSH1 0xFF AND SWAP1 DUP6 JUMP JUMPDEST PUSH1 0x40 DUP1 MLOAD SWAP6 DUP7 MSTORE PUSH1 0x1 PUSH1 0x1 PUSH1 0xA0 SHL SUB SWAP1 SWAP5 AND PUSH1 0x20 DUP7 ADD MSTORE SWAP3 DUP5 ADD SWAP2 SWAP1 SWAP2 MSTORE ISZERO ISZERO PUSH1 0x60 DUP4 ADD MSTORE PUSH1 0x80 DUP3 ADD MSTORE PUSH1 0xA0 ADD PUSH2 0x256 JUMP JUMPDEST CALLVALUE DUP1 ISZERO PUSH2 0x71A JUMPI PUSH1 0x0 DUP1 REVERT JUMPDEST POP PUSH2 0x24A PUSH2 0x729 CALLDATASIZE PUSH1 0x4 PUSH2 0x264F JUMP JUMPDEST PUSH2 0x1763 JUMP JUMPDEST CALLVALUE DUP1 ISZERO PUSH2 0x73A JUMPI PUSH1 0x0 DUP1 REVERT JUMPDEST POP PUSH2 0x228 PUSH2 0x749 CALLDATASIZE PUSH1 0x4 PUSH2 0x22EC JUMP JUMPDEST PUSH2 0x1791 JUMP JUMPDEST CALLVALUE DUP1 ISZERO PUSH2 0x75A JUMPI PUSH1 0x0 DUP1 REVERT JUMPDEST POP PUSH2 0x76E PUSH2 0x769 CALLDATASIZE PUSH1 0x4 PUSH2 0x228D JUMP JUMPDEST PUSH2 0x17CC JUMP JUMPDEST PUSH1 0x40 MLOAD PUSH2 0x256 SWAP2 SWAP1 PUSH2 0x2679 JUMP JUMPDEST PUSH1 0x0 DUP3 DUP2 MSTORE PUSH1 0x2 PUSH1 0x20 MSTORE PUSH1 0x40 SWAP1 KECCAK256 SLOAD PUSH1 0x1 PUSH1 0x1 PUSH1 0xA0 SHL SUB AND CALLER EQ PUSH2 0x7BA JUMPI PUSH1 0x40 MLOAD PUSH3 0x461BCD PUSH1 0xE5 SHL DUP2 MSTORE PUSH1 0x4 ADD PUSH2 0x7B1 SWAP1 PUSH2 0x273D JUMP JUMPDEST PUSH1 0x40 MLOAD DUP1 SWAP2 SUB SWAP1 REVERT JUMPDEST PUSH1 0x0 DUP3 DUP2 MSTORE PUSH1 0x9 PUSH1 0x20 MSTORE PUSH1 0x40 DUP2 KECCAK256 PUSH1 0x3 DUP2 ADD DUP4 SWAP1 SSTORE PUSH1 0x8 DUP2 ADD DUP1 SLOAD SWAP2 SWAP3 PUSH2 0x7E0 DUP4 PUSH2 0x2776 JUMP JUMPDEST SWAP2 SWAP1 POP SSTORE POP DUP3 PUSH32 0x2ED65D7AB22E257FF9D73237B93ED65EF3B6E49863FB2608D285CAEA0D9956DA DUP3 PUSH1 0x8 ADD SLOAD PUSH1 0x40 MLOAD PUSH2 0x81B SWAP2 DUP2 MSTORE PUSH1 0x20 ADD SWAP1 JUMP JUMPDEST PUSH1 0x40 MLOAD DUP1 SWAP2 SUB SWAP1 LOG2 POP POP POP JUMP JUMPDEST PUSH1 0x0 PUSH1 0x1 PUSH1 0x1 PUSH1 0xE0 SHL SUB NOT DUP3 AND PUSH4 0x80AC58CD PUSH1 0xE0 SHL EQ DUP1 PUSH2 0x859 JUMPI POP PUSH1 0x1 PUSH1 0x1 PUSH1 0xE0 SHL SUB NOT DUP3 AND PUSH4 0x5B5E139F PUSH1 0xE0 SHL EQ JUMPDEST DUP1 PUSH2 0x874 JUMPI POP PUSH4 0x1FFC9A7 PUSH1 0xE0 SHL PUSH1 0x1 PUSH1 0x1 PUSH1 0xE0 SHL SUB NOT DUP4 AND EQ JUMPDEST SWAP3 SWAP2 POP POP JUMP JUMPDEST PUSH1 0x0 DUP3 DUP2 MSTORE PUSH1 0x2 PUSH1 0x20 MSTORE PUSH1 0x40 SWAP1 KECCAK256 SLOAD PUSH1 0x1 PUSH1 0x1 PUSH1 0xA0 SHL SUB AND CALLER EQ PUSH2 0x8B0 JUMPI PUSH1 0x40 MLOAD PUSH3 0x461BCD PUSH1 0xE5 SHL DUP2 MSTORE PUSH1 0x4 ADD PUSH2 0x7B1 SWAP1 PUSH2 0x273D JUMP JUMPDEST PUSH1 0x0 DUP2 GT PUSH2 0x8F0 JUMPI PUSH1 0x40 MLOAD PUSH3 0x461BCD PUSH1 0xE5 SHL DUP2 MSTORE PUSH1 0x20 PUSH1 0x4 DUP3 ADD MSTORE PUSH1 0xD PUSH1 0x24 DUP3 ADD MSTORE PUSH13 0x496E76616C6964207072696365 PUSH1 0x98 SHL PUSH1 0x44 DUP3 ADD MSTORE PUSH1 0x64 ADD PUSH2 0x7B1 JUMP JUMPDEST PUSH1 0x0 DUP3 DUP2 MSTORE PUSH1 0x9 PUSH1 0x20 DUP2 DUP2 MSTORE PUSH1 0x40 DUP1 DUP5 KECCAK256 SWAP3 DUP4 ADD DUP1 SLOAD PUSH1 0x1 PUSH1 0xFF NOT SWAP2 DUP3 AND DUP2 OR SWAP1 SWAP3 SSTORE PUSH1 0x4 SWAP5 DUP6 ADD DUP8 SWAP1 SSTORE DUP3 MLOAD PUSH1 0xA0 DUP2 ADD DUP5 MSTORE DUP9 DUP2 MSTORE CALLER DUP2 DUP7 ADD SWAP1 DUP2 MSTORE DUP2 DUP6 ADD DUP10 DUP2 MSTORE PUSH1 0x60 DUP4 ADD DUP6 DUP2 MSTORE TIMESTAMP PUSH1 0x80 DUP6 ADD SWAP1 DUP2 MSTORE DUP13 DUP12 MSTORE PUSH1 0xB DUP10 MSTORE SWAP10 DUP8 SWAP1 KECCAK256 SWAP4 MLOAD DUP5 SSTORE SWAP2 MLOAD SWAP5 DUP4 ADD DUP1 SLOAD PUSH1 0x1 PUSH1 0x1 PUSH1 0xA0 SHL SUB NOT AND PUSH1 0x1 PUSH1 0x1 PUSH1 0xA0 SHL SUB SWAP1 SWAP7 AND SWAP6 SWAP1 SWAP6 OR SWAP1 SWAP5 SSTORE SWAP3 MLOAD PUSH1 0x2 DUP3 ADD SSTORE SWAP2 MLOAD PUSH1 0x3 DUP4 ADD DUP1 SLOAD SWAP1 SWAP3 AND SWAP1 ISZERO ISZERO OR SWAP1 SSTORE SWAP4 MLOAD SWAP4 SWAP1 SWAP3 ADD SWAP3 SWAP1 SWAP3 SSTORE MLOAD DUP3 DUP2 MSTORE DUP4 SWAP2 PUSH32 0x871D2ADAAD3D942A7351E772C6D8011251FAA7A8240B5ED187B7EA475C442C66 SWAP2 ADD PUSH1 0x40 MLOAD DUP1 SWAP2 SUB SWAP1 LOG2 POP POP JUMP JUMPDEST PUSH1 0x60 PUSH1 0x0 DUP1 SLOAD PUSH2 0x9DA SWAP1 PUSH2 0x278F JUMP JUMPDEST DUP1 PUSH1 0x1F ADD PUSH1 0x20 DUP1 SWAP2 DIV MUL PUSH1 0x20 ADD PUSH1 0x40 MLOAD SWAP1 DUP2 ADD PUSH1 0x40 MSTORE DUP1 SWAP3 SWAP2 SWAP1 DUP2 DUP2 MSTORE PUSH1 0x20 ADD DUP3 DUP1 SLOAD PUSH2 0xA06 SWAP1 PUSH2 0x278F JUMP JUMPDEST DUP1 ISZERO PUSH2 0xA53 JUMPI DUP1 PUSH1 0x1F LT PUSH2 0xA28 JUMPI PUSH2 0x100 DUP1 DUP4 SLOAD DIV MUL DUP4 MSTORE SWAP2 PUSH1 0x20 ADD SWAP2 PUSH2 0xA53 JUMP JUMPDEST DUP3 ADD SWAP2 SWAP1 PUSH1 0x0 MSTORE PUSH1 0x20 PUSH1 0x0 KECCAK256 SWAP1 JUMPDEST DUP2 SLOAD DUP2 MSTORE SWAP1 PUSH1 0x1 ADD SWAP1 PUSH1 0x20 ADD DUP1 DUP4 GT PUSH2 0xA36 JUMPI DUP3 SWAP1 SUB PUSH1 0x1F AND DUP3 ADD SWAP2 JUMPDEST POP POP POP POP POP SWAP1 POP SWAP1 JUMP JUMPDEST PUSH1 0x0 PUSH2 0xA68 DUP3 PUSH2 0x19A1 JUMP JUMPDEST POP PUSH1 0x0 DUP3 DUP2 MSTORE PUSH1 0x4 PUSH1 0x20 MSTORE PUSH1 0x40 SWAP1 KECCAK256 SLOAD PUSH1 0x1 PUSH1 0x1 PUSH1 0xA0 SHL SUB AND PUSH2 0x874 JUMP JUMPDEST PUSH2 0xA91 DUP3 DUP3 CALLER PUSH2 0x19DA JUMP JUMPDEST POP POP JUMP JUMPDEST PUSH1 0x1 PUSH1 0x1 PUSH1 0xA0 SHL SUB DUP2 AND PUSH1 0x0 SWAP1 DUP2 MSTORE PUSH1 0xC PUSH1 0x20 SWAP1 DUP2 MSTORE PUSH1 0x40 SWAP2 DUP3 SWAP1 KECCAK256 DUP1 SLOAD DUP4 MLOAD DUP2 DUP5 MUL DUP2 ADD DUP5 ADD SWAP1 SWAP5 MSTORE DUP1 DUP5 MSTORE PUSH1 0x60 SWAP4 SWAP3 DUP4 ADD DUP3 DUP3 DUP1 ISZERO PUSH2 0xAF5 JUMPI PUSH1 0x20 MUL DUP3 ADD SWAP2 SWAP1 PUSH1 0x0 MSTORE PUSH1 0x20 PUSH1 0x0 KECCAK256 SWAP1 JUMPDEST DUP2 SLOAD DUP2 MSTORE PUSH1 0x20 ADD SWAP1 PUSH1 0x1 ADD SWAP1 DUP1 DUP4 GT PUSH2 0xAE1 JUMPI JUMPDEST POP POP POP POP POP SWAP1 POP SWAP2 SWAP1 POP JUMP JUMPDEST PUSH2 0xB33 PUSH1 0x40 MLOAD DUP1 PUSH1 0xA0 ADD PUSH1 0x40 MSTORE DUP1 PUSH1 0x0 DUP2 MSTORE PUSH1 0x20 ADD PUSH1 0x0 DUP2 MSTORE PUSH1 0x20 ADD PUSH1 0x0 DUP2 MSTORE PUSH1 0x20 ADD PUSH1 0x0 DUP2 MSTORE PUSH1 0x20 ADD PUSH1 0x0 DUP2 MSTORE POP SWAP1 JUMP JUMPDEST POP PUSH1 0x0 SWAP1 DUP2 MSTORE PUSH1 0xA PUSH1 0x20 SWAP1 DUP2 MSTORE PUSH1 0x40 SWAP2 DUP3 SWAP1 KECCAK256 DUP3 MLOAD PUSH1 0xA0 DUP2 ADD DUP5 MSTORE DUP2 SLOAD DUP2 MSTORE PUSH1 0x1 DUP3 ADD SLOAD SWAP3 DUP2 ADD SWAP3 SWAP1 SWAP3 MSTORE PUSH1 0x2 DUP2 ADD SLOAD SWAP3 DUP3 ADD SWAP3 SWAP1 SWAP3 MSTORE PUSH1 0x3 DUP3 ADD SLOAD PUSH1 0x60 DUP3 ADD MSTORE PUSH1 0x4 SWAP1 SWAP2 ADD SLOAD PUSH1 0x80 DUP3 ADD MSTORE SWAP1 JUMP JUMPDEST PUSH1 0x1 PUSH1 0x1 PUSH1 0xA0 SHL SUB DUP3 AND PUSH2 0xBAC JUMPI PUSH1 0x40 MLOAD PUSH4 0x32505749 PUSH1 0xE1 SHL DUP2 MSTORE PUSH1 0x0 PUSH1 0x4 DUP3 ADD MSTORE PUSH1 0x24 ADD PUSH2 0x7B1 JUMP JUMPDEST PUSH1 0x0 PUSH2 0xBB9 DUP4 DUP4 CALLER PUSH2 0x19E7 JUMP JUMPDEST SWAP1 POP DUP4 PUSH1 0x1 PUSH1 0x1 PUSH1 0xA0 SHL SUB AND DUP2 PUSH1 0x1 PUSH1 0x1 PUSH1 0xA0 SHL SUB AND EQ PUSH2 0xC07 JUMPI PUSH1 0x40 MLOAD PUSH4 0x64283D7B PUSH1 0xE0 SHL DUP2 MSTORE PUSH1 0x1 PUSH1 0x1 PUSH1 0xA0 SHL SUB DUP1 DUP7 AND PUSH1 0x4 DUP4 ADD MSTORE PUSH1 0x24 DUP3 ADD DUP5 SWAP1 MSTORE DUP3 AND PUSH1 0x44 DUP3 ADD MSTORE PUSH1 0x64 ADD PUSH2 0x7B1 JUMP JUMPDEST POP POP POP POP JUMP JUMPDEST PUSH1 0x9 PUSH1 0x20 MSTORE PUSH1 0x0 SWAP1 DUP2 MSTORE PUSH1 0x40 SWAP1 KECCAK256 DUP1 SLOAD PUSH1 0x1 DUP3 ADD DUP1 SLOAD SWAP2 SWAP3 SWAP2 PUSH2 0xC2F SWAP1 PUSH2 0x278F JUMP JUMPDEST DUP1 PUSH1 0x1F ADD PUSH1 0x20 DUP1 SWAP2 DIV MUL PUSH1 0x20 ADD PUSH1 0x40 MLOAD SWAP1 DUP2 ADD PUSH1 0x40 MSTORE DUP1 SWAP3 SWAP2 SWAP1 DUP2 DUP2 MSTORE PUSH1 0x20 ADD DUP3 DUP1 SLOAD PUSH2 0xC5B SWAP1 PUSH2 0x278F JUMP JUMPDEST DUP1 ISZERO PUSH2 0xCA8 JUMPI DUP1 PUSH1 0x1F LT PUSH2 0xC7D JUMPI PUSH2 0x100 DUP1 DUP4 SLOAD DIV MUL DUP4 MSTORE SWAP2 PUSH1 0x20 ADD SWAP2 PUSH2 0xCA8 JUMP JUMPDEST DUP3 ADD SWAP2 SWAP1 PUSH1 0x0 MSTORE PUSH1 0x20 PUSH1 0x0 KECCAK256 SWAP1 JUMPDEST DUP2 SLOAD DUP2 MSTORE SWAP1 PUSH1 0x1 ADD SWAP1 PUSH1 0x20 ADD DUP1 DUP4 GT PUSH2 0xC8B JUMPI DUP3 SWAP1 SUB PUSH1 0x1F AND DUP3 ADD SWAP2 JUMPDEST POP POP POP POP PUSH1 0x2 DUP4 ADD SLOAD PUSH1 0x3 DUP5 ADD SLOAD PUSH1 0x4 DUP6 ADD SLOAD PUSH1 0x5 DUP7 ADD SLOAD PUSH1 0x6 DUP8 ADD SLOAD PUSH1 0x7 DUP9 ADD SLOAD PUSH1 0x8 DUP10 ADD SLOAD PUSH1 0x9 DUP11 ADD SLOAD PUSH1 0xA SWAP1 SWAP11 ADD SLOAD SWAP9 SWAP10 PUSH1 0xFF DUP1 DUP10 AND SWAP11 PUSH2 0x100 SWAP1 SWAP10 DIV PUSH1 0x1 PUSH1 0x1 PUSH1 0xA0 SHL SUB AND SWAP10 POP SWAP7 SWAP8 SWAP6 SWAP7 SWAP5 SWAP6 SWAP4 SWAP5 SWAP3 SWAP4 SWAP2 SWAP3 AND SWAP1 DUP13 JUMP JUMPDEST PUSH2 0xD1F DUP4 DUP4 DUP4 PUSH1 0x40 MLOAD DUP1 PUSH1 0x20 ADD PUSH1 0x40 MSTORE DUP1 PUSH1 0x0 DUP2 MSTORE POP PUSH2 0x169E JUMP JUMPDEST POP POP POP JUMP JUMPDEST PUSH2 0xD2C PUSH2 0x1AE0 JUMP JUMPDEST PUSH1 0x6 SLOAD PUSH1 0x40 MLOAD PUSH1 0x1 PUSH1 0x1 PUSH1 0xA0 SHL SUB SWAP1 SWAP2 AND SWAP1 SELFBALANCE DUP1 ISZERO PUSH2 0x8FC MUL SWAP2 PUSH1 0x0 DUP2 DUP2 DUP2 DUP6 DUP9 DUP9 CALL SWAP4 POP POP POP POP ISZERO DUP1 ISZERO PUSH2 0xD65 JUMPI RETURNDATASIZE PUSH1 0x0 DUP1 RETURNDATACOPY RETURNDATASIZE PUSH1 0x0 REVERT JUMPDEST POP JUMP JUMPDEST PUSH1 0x0 DUP3 DUP2 MSTORE PUSH1 0xD PUSH1 0x20 SWAP1 DUP2 MSTORE PUSH1 0x40 DUP1 DUP4 KECCAK256 DUP1 SLOAD DUP3 MLOAD DUP2 DUP6 MUL DUP2 ADD DUP6 ADD SWAP1 SWAP4 MSTORE DUP1 DUP4 MSTORE DUP5 SWAP4 DUP4 ADD DUP3 DUP3 DUP1 ISZERO PUSH2 0xDC5 JUMPI PUSH1 0x20 MUL DUP3 ADD SWAP2 SWAP1 PUSH1 0x0 MSTORE PUSH1 0x20 PUSH1 0x0 KECCAK256 SWAP1 JUMPDEST DUP2 SLOAD PUSH1 0x1 PUSH1 0x1 PUSH1 0xA0 SHL SUB AND DUP2 MSTORE PUSH1 0x1 SWAP1 SWAP2 ADD SWAP1 PUSH1 0x20 ADD DUP1 DUP4 GT PUSH2 0xDA7 JUMPI JUMPDEST POP POP POP POP POP SWAP1 POP PUSH1 0x0 JUMPDEST DUP2 MLOAD DUP2 LT ISZERO PUSH2 0xE27 JUMPI DUP4 PUSH1 0x1 PUSH1 0x1 PUSH1 0xA0 SHL SUB AND DUP3 DUP3 DUP2 MLOAD DUP2 LT PUSH2 0xDF4 JUMPI PUSH2 0xDF4 PUSH2 0x27C9 JUMP JUMPDEST PUSH1 0x20 MUL PUSH1 0x20 ADD ADD MLOAD PUSH1 0x1 PUSH1 0x1 PUSH1 0xA0 SHL SUB AND SUB PUSH2 0xE15 JUMPI PUSH1 0x1 SWAP3 POP POP POP PUSH2 0x874 JUMP JUMPDEST DUP1 PUSH2 0xE1F DUP2 PUSH2 0x2776 JUMP JUMPDEST SWAP2 POP POP PUSH2 0xDCF JUMP JUMPDEST POP POP POP PUSH1 0x0 SWAP2 DUP3 MSTORE PUSH1 0x2 PUSH1 0x20 MSTORE PUSH1 0x40 SWAP1 SWAP2 KECCAK256 SLOAD PUSH1 0x1 PUSH1 0x1 PUSH1 0xA0 SHL SUB SWAP1 DUP2 AND SWAP2 AND EQ SWAP1 JUMP JUMPDEST PUSH2 0xE53 PUSH2 0x1B0D JUMP JUMPDEST PUSH1 0x0 DUP2 DUP2 MSTORE PUSH1 0xB PUSH1 0x20 MSTORE PUSH1 0x40 SWAP1 KECCAK256 PUSH1 0x3 DUP2 ADD SLOAD PUSH1 0xFF AND PUSH2 0xEA2 JUMPI PUSH1 0x40 MLOAD PUSH3 0x461BCD PUSH1 0xE5 SHL DUP2 MSTORE PUSH1 0x20 PUSH1 0x4 DUP3 ADD MSTORE PUSH1 0xA PUSH1 0x24 DUP3 ADD MSTORE PUSH10 0x139BDD081B1A5CDD1959 PUSH1 0xB2 SHL PUSH1 0x44 DUP3 ADD MSTORE PUSH1 0x64 ADD PUSH2 0x7B1 JUMP JUMPDEST DUP1 PUSH1 0x2 ADD SLOAD CALLVALUE LT ISZERO PUSH2 0xEED JUMPI PUSH1 0x40 MLOAD PUSH3 0x461BCD PUSH1 0xE5 SHL DUP2 MSTORE PUSH1 0x20 PUSH1 0x4 DUP3 ADD MSTORE PUSH1 0x14 PUSH1 0x24 DUP3 ADD MSTORE PUSH20 0x125B9CDD59999A58DA595B9D081C185E5B595B9D PUSH1 0x62 SHL PUSH1 0x44 DUP3 ADD MSTORE PUSH1 0x64 ADD PUSH2 0x7B1 JUMP JUMPDEST PUSH1 0x0 DUP3 DUP2 MSTORE PUSH1 0x9 PUSH1 0x20 MSTORE PUSH1 0x40 DUP2 KECCAK256 PUSH1 0xE SLOAD PUSH1 0x2 DUP5 ADD SLOAD SWAP2 SWAP3 SWAP2 PUSH2 0x2710 SWAP2 PUSH2 0xF13 SWAP2 PUSH2 0x27DF JUMP JUMPDEST PUSH2 0xF1D SWAP2 SWAP1 PUSH2 0x27F6 JUMP JUMPDEST SWAP1 POP PUSH1 0x0 PUSH2 0x2710 DUP4 PUSH1 0xA ADD SLOAD DUP6 PUSH1 0x2 ADD SLOAD PUSH2 0xF38 SWAP2 SWAP1 PUSH2 0x27DF JUMP JUMPDEST PUSH2 0xF42 SWAP2 SWAP1 PUSH2 0x27F6 JUMP JUMPDEST SWAP1 POP PUSH1 0x0 DUP2 DUP4 DUP7 PUSH1 0x2 ADD SLOAD PUSH2 0xF57 SWAP2 SWAP1 PUSH2 0x2818 JUMP JUMPDEST PUSH2 0xF61 SWAP2 SWAP1 PUSH2 0x2818 JUMP JUMPDEST PUSH1 0x1 DUP7 ADD SLOAD SWAP1 SWAP2 POP PUSH2 0xF7D SWAP1 PUSH1 0x1 PUSH1 0x1 PUSH1 0xA0 SHL SUB AND CALLER DUP9 PUSH2 0x1B37 JUMP JUMPDEST PUSH1 0x1 DUP6 ADD SLOAD PUSH1 0x40 MLOAD PUSH1 0x1 PUSH1 0x1 PUSH1 0xA0 SHL SUB SWAP1 SWAP2 AND SWAP1 DUP3 ISZERO PUSH2 0x8FC MUL SWAP1 DUP4 SWAP1 PUSH1 0x0 DUP2 DUP2 DUP2 DUP6 DUP9 DUP9 CALL SWAP4 POP POP POP POP ISZERO DUP1 ISZERO PUSH2 0xFB9 JUMPI RETURNDATASIZE PUSH1 0x0 DUP1 RETURNDATACOPY RETURNDATASIZE PUSH1 0x0 REVERT JUMPDEST POP PUSH1 0x0 DUP3 GT DUP1 ISZERO PUSH2 0xFE4 JUMPI POP PUSH1 0x1 DUP6 ADD SLOAD PUSH1 0x2 DUP6 ADD SLOAD PUSH2 0x100 SWAP1 DIV PUSH1 0x1 PUSH1 0x1 PUSH1 0xA0 SHL SUB SWAP1 DUP2 AND SWAP2 AND EQ ISZERO JUMPDEST ISZERO PUSH2 0x1075 JUMPI PUSH1 0x2 DUP5 ADD SLOAD PUSH1 0x40 MLOAD PUSH2 0x100 SWAP1 SWAP2 DIV PUSH1 0x1 PUSH1 0x1 PUSH1 0xA0 SHL SUB AND SWAP1 PUSH2 0x8FC DUP5 ISZERO MUL SWAP1 DUP5 SWAP1 PUSH1 0x0 DUP2 DUP2 DUP2 DUP6 DUP9 DUP9 CALL SWAP4 POP POP POP POP ISZERO DUP1 ISZERO PUSH2 0x1029 JUMPI RETURNDATASIZE PUSH1 0x0 DUP1 RETURNDATACOPY RETURNDATASIZE PUSH1 0x0 REVERT JUMPDEST POP PUSH1 0x2 DUP5 ADD SLOAD PUSH1 0x40 MLOAD DUP4 DUP2 MSTORE PUSH2 0x100 SWAP1 SWAP2 DIV PUSH1 0x1 PUSH1 0x1 PUSH1 0xA0 SHL SUB AND SWAP1 DUP8 SWAP1 PUSH32 0xF670029FC6F5302BABA881B4AE845D1453ACDF752B4C19ED81FE0FA6A686409B SWAP1 PUSH1 0x20 ADD PUSH1 0x40 MLOAD DUP1 SWAP2 SUB SWAP1 LOG3 JUMPDEST DUP5 PUSH1 0x2 ADD SLOAD PUSH1 0xA PUSH1 0x0 DUP9 DUP2 MSTORE PUSH1 0x20 ADD SWAP1 DUP2 MSTORE PUSH1 0x20 ADD PUSH1 0x0 KECCAK256 PUSH1 0x2 ADD PUSH1 0x0 DUP3 DUP3 SLOAD PUSH2 0x109F SWAP2 SWAP1 PUSH2 0x282B JUMP JUMPDEST SWAP1 SWAP2 SSTORE POP POP PUSH1 0x3 DUP6 ADD DUP1 SLOAD PUSH1 0xFF NOT SWAP1 DUP2 AND SWAP1 SWAP2 SSTORE PUSH1 0x9 DUP6 ADD DUP1 SLOAD SWAP1 SWAP2 AND SWAP1 SSTORE PUSH1 0x2 DUP6 ADD SLOAD CALLVALUE GT ISZERO PUSH2 0x1109 JUMPI PUSH1 0x2 DUP6 ADD SLOAD CALLER SWAP1 PUSH2 0x8FC SWAP1 PUSH2 0x10DF SWAP1 CALLVALUE PUSH2 0x2818 JUMP JUMPDEST PUSH1 0x40 MLOAD DUP2 ISZERO SWAP1 SWAP3 MUL SWAP2 PUSH1 0x0 DUP2 DUP2 DUP2 DUP6 DUP9 DUP9 CALL SWAP4 POP POP POP POP ISZERO DUP1 ISZERO PUSH2 0x1107 JUMPI RETURNDATASIZE PUSH1 0x0 DUP1 RETURNDATACOPY RETURNDATASIZE PUSH1 0x0 REVERT JUMPDEST POP JUMPDEST CALLER PUSH1 0x1 PUSH1 0x1 PUSH1 0xA0 SHL SUB AND DUP7 PUSH32 0x94513D5B8D031D54D40471DC9580E0C9E861E241A68718881B4857231EE659C5 DUP8 PUSH1 0x2 ADD SLOAD PUSH1 0x40 MLOAD PUSH2 0x1149 SWAP2 DUP2 MSTORE PUSH1 0x20 ADD SWAP1 JUMP JUMPDEST PUSH1 0x40 MLOAD DUP1 SWAP2 SUB SWAP1 LOG3 POP POP POP POP POP PUSH2 0xD65 PUSH1 0x1 PUSH1 0x7 SSTORE JUMP JUMPDEST PUSH1 0x0 PUSH2 0x874 DUP3 PUSH2 0x19A1 JUMP JUMPDEST PUSH1 0x0 DUP3 DUP2 MSTORE PUSH1 0x2 PUSH1 0x20 MSTORE PUSH1 0x40 SWAP1 KECCAK256 SLOAD PUSH1 0x1 PUSH1 0x1 PUSH1 0xA0 SHL SUB AND CALLER EQ PUSH2 0x11A1 JUMPI PUSH1 0x40 MLOAD PUSH3 0x461BCD PUSH1 0xE5 SHL DUP2 MSTORE PUSH1 0x4 ADD PUSH2 0x7B1 SWAP1 PUSH2 0x273D JUMP JUMPDEST PUSH1 0x0 DUP3 DUP2 MSTORE PUSH1 0xA PUSH1 0x20 SWAP1 DUP2 MSTORE PUSH1 0x40 DUP1 DUP4 KECCAK256 PUSH1 0x9 SWAP1 SWAP3 MSTORE DUP3 KECCAK256 DUP2 SLOAD SWAP2 SWAP3 SWAP1 SWAP2 SWAP1 DUP4 SWAP1 PUSH2 0x11CB DUP4 PUSH2 0x2776 JUMP JUMPDEST SWAP2 SWAP1 POP SSTORE POP DUP3 ISZERO PUSH2 0x11EE JUMPI PUSH1 0x1 DUP3 ADD DUP1 SLOAD SWAP1 PUSH1 0x0 PUSH2 0x11E8 DUP4 PUSH2 0x2776 JUMP JUMPDEST SWAP2 SWAP1 POP SSTORE POP JUMPDEST DUP2 SLOAD PUSH1 0x1 DUP4 ADD SLOAD PUSH2 0x1201 SWAP1 PUSH2 0x2710 PUSH2 0x27DF JUMP JUMPDEST PUSH2 0x120B SWAP2 SWAP1 PUSH2 0x27F6 JUMP JUMPDEST PUSH1 0x6 DUP3 ADD SSTORE PUSH1 0x5 DUP2 ADD DUP1 SLOAD SWAP1 PUSH1 0x0 PUSH2 0x1222 DUP4 PUSH2 0x2776 JUMP JUMPDEST SWAP1 SWAP2 SSTORE POP POP TIMESTAMP PUSH1 0x4 DUP4 ADD SSTORE PUSH1 0x6 DUP2 ADD SLOAD PUSH1 0x3 DUP4 ADD SSTORE PUSH1 0x40 MLOAD DUP4 ISZERO ISZERO DUP2 MSTORE DUP5 SWAP1 PUSH32 0x1BC923C174DA3F774089D2B89EA497FF0B97003121D6D7CE76BFF08EA8752756 SWAP1 PUSH1 0x20 ADD PUSH1 0x40 MLOAD DUP1 SWAP2 SUB SWAP1 LOG2 POP POP POP POP JUMP JUMPDEST PUSH1 0x0 PUSH1 0x1 PUSH1 0x1 PUSH1 0xA0 SHL SUB DUP3 AND PUSH2 0x12A0 JUMPI PUSH1 0x40 MLOAD PUSH4 0x22718AD9 PUSH1 0xE2 SHL DUP2 MSTORE PUSH1 0x0 PUSH1 0x4 DUP3 ADD MSTORE PUSH1 0x24 ADD PUSH2 0x7B1 JUMP JUMPDEST POP PUSH1 0x1 PUSH1 0x1 PUSH1 0xA0 SHL SUB AND PUSH1 0x0 SWAP1 DUP2 MSTORE PUSH1 0x3 PUSH1 0x20 MSTORE PUSH1 0x40 SWAP1 KECCAK256 SLOAD SWAP1 JUMP JUMPDEST PUSH2 0x12C4 PUSH2 0x1AE0 JUMP JUMPDEST PUSH2 0x12CE PUSH1 0x0 PUSH2 0x1BE7 JUMP JUMPDEST JUMP JUMPDEST PUSH1 0x0 PUSH2 0x3E8 DUP3 GT ISZERO PUSH2 0x1317 JUMPI PUSH1 0x40 MLOAD PUSH3 0x461BCD PUSH1 0xE5 SHL DUP2 MSTORE PUSH1 0x20 PUSH1 0x4 DUP3 ADD MSTORE PUSH1 0x10 PUSH1 0x24 DUP3 ADD MSTORE PUSH16 0xA4DEF2C2D8E8F240E8DEDE40D0D2CED PUSH1 0x83 SHL PUSH1 0x44 DUP3 ADD MSTORE PUSH1 0x64 ADD PUSH2 0x7B1 JUMP JUMPDEST PUSH1 0x8 DUP1 SLOAD SWAP1 PUSH1 0x0 PUSH2 0x1327 DUP4 PUSH2 0x2776 JUMP JUMPDEST SWAP1 SWAP2 SSTORE POP POP PUSH1 0x8 SLOAD PUSH2 0x1339 CALLER DUP3 PUSH2 0x1C39 JUMP JUMPDEST PUSH1 0x40 MLOAD DUP1 PUSH2 0x180 ADD PUSH1 0x40 MSTORE DUP1 DUP3 DUP2 MSTORE PUSH1 0x20 ADD DUP9 DUP2 MSTORE PUSH1 0x20 ADD DUP8 PUSH1 0x3 DUP2 GT ISZERO PUSH2 0x1363 JUMPI PUSH2 0x1363 PUSH2 0x2387 JUMP JUMPDEST DUP2 MSTORE CALLER PUSH1 0x20 DUP1 DUP4 ADD SWAP2 SWAP1 SWAP2 MSTORE PUSH1 0x40 DUP1 DUP4 ADD DUP10 SWAP1 MSTORE PUSH1 0x60 DUP4 ADD DUP9 SWAP1 MSTORE PUSH1 0x0 PUSH1 0x80 DUP5 ADD DUP2 SWAP1 MSTORE PUSH2 0x1388 PUSH1 0xA0 DUP6 ADD MSTORE TIMESTAMP PUSH1 0xC0 DUP6 ADD MSTORE PUSH1 0x1 PUSH1 0xE0 DUP6 ADD DUP2 SWAP1 MSTORE PUSH2 0x100 DUP6 ADD DUP3 SWAP1 MSTORE PUSH2 0x120 SWAP1 SWAP5 ADD DUP9 SWAP1 MSTORE DUP6 DUP2 MSTORE PUSH1 0x9 DUP4 MSTORE KECCAK256 DUP4 MLOAD DUP2 SSTORE SWAP1 DUP4 ADD MLOAD SWAP1 SWAP2 DUP3 ADD SWAP1 PUSH2 0x13CE SWAP1 DUP3 PUSH2 0x2884 JUMP JUMPDEST POP PUSH1 0x40 DUP3 ADD MLOAD PUSH1 0x2 DUP3 ADD DUP1 SLOAD PUSH1 0xFF NOT AND PUSH1 0x1 DUP4 PUSH1 0x3 DUP2 GT ISZERO PUSH2 0x13F2 JUMPI PUSH2 0x13F2 PUSH2 0x2387 JUMP JUMPDEST MUL OR SWAP1 SSTORE POP PUSH1 0x60 DUP3 DUP2 ADD MLOAD PUSH1 0x2 DUP4 DUP2 ADD DUP1 SLOAD PUSH2 0x100 PUSH1 0x1 PUSH1 0xA8 SHL SUB NOT AND PUSH2 0x100 PUSH1 0x1 PUSH1 0x1 PUSH1 0xA0 SHL SUB SWAP1 SWAP5 AND DUP5 MUL OR SWAP1 SSTORE PUSH1 0x80 DUP1 DUP7 ADD MLOAD PUSH1 0x3 DUP1 DUP8 ADD SWAP2 SWAP1 SWAP2 SSTORE PUSH1 0xA0 DUP1 DUP9 ADD MLOAD PUSH1 0x4 DUP1 DUP10 ADD SWAP2 SWAP1 SWAP2 SSTORE PUSH1 0xC0 DUP10 ADD MLOAD PUSH1 0x5 DUP10 ADD SSTORE PUSH1 0xE0 DUP10 ADD MLOAD PUSH1 0x6 DUP10 ADD SSTORE SWAP5 DUP9 ADD MLOAD PUSH1 0x7 DUP9 ADD SSTORE PUSH2 0x120 DUP9 ADD MLOAD PUSH1 0x8 DUP9 ADD SSTORE PUSH2 0x140 DUP9 ADD MLOAD PUSH1 0x9 DUP9 ADD DUP1 SLOAD PUSH1 0xFF NOT AND SWAP2 ISZERO ISZERO SWAP2 SWAP1 SWAP2 OR SWAP1 SSTORE PUSH2 0x160 SWAP1 SWAP8 ADD MLOAD PUSH1 0xA SWAP7 DUP8 ADD SSTORE PUSH1 0x40 DUP1 MLOAD SWAP8 DUP9 ADD DUP2 MSTORE PUSH1 0x0 DUP1 DUP10 MSTORE PUSH1 0x20 DUP1 DUP11 ADD DUP3 DUP2 MSTORE DUP11 DUP5 ADD DUP4 DUP2 MSTORE PUSH2 0x1388 SWAP10 DUP13 ADD SWAP10 DUP11 MSTORE SWAP6 DUP12 ADD DUP4 DUP2 MSTORE DUP13 DUP5 MSTORE SWAP10 DUP3 MSTORE DUP4 DUP4 KECCAK256 SWAP11 MLOAD DUP12 SSTORE MLOAD PUSH1 0x1 DUP12 DUP2 ADD SWAP2 SWAP1 SWAP2 SSTORE SWAP5 MLOAD SWAP6 DUP11 ADD SWAP6 SWAP1 SWAP6 SSTORE SWAP6 MLOAD SWAP2 DUP9 ADD SWAP2 SWAP1 SWAP2 SSTORE SWAP5 MLOAD SWAP6 SWAP1 SWAP3 ADD SWAP5 SWAP1 SWAP5 SSTORE CALLER DUP1 DUP4 MSTORE PUSH1 0xC DUP6 MSTORE DUP4 DUP4 KECCAK256 DUP1 SLOAD SWAP3 DUP4 ADD DUP2 SSTORE DUP4 MSTORE SWAP4 SWAP1 SWAP2 KECCAK256 ADD DUP4 SWAP1 SSTORE MLOAD DUP3 SWAP1 PUSH32 0x5979DA42AA610E8C79CE46EC2DD6DC5FD8224B2AF6D3104320F26B4A7F5A16C9 SWAP1 PUSH2 0x153A SWAP1 DUP12 SWAP1 DUP12 SWAP1 PUSH2 0x2944 JUMP JUMPDEST PUSH1 0x40 MLOAD DUP1 SWAP2 SUB SWAP1 LOG3 SWAP7 SWAP6 POP POP POP POP POP POP JUMP JUMPDEST PUSH1 0xC PUSH1 0x20 MSTORE DUP2 PUSH1 0x0 MSTORE PUSH1 0x40 PUSH1 0x0 KECCAK256 DUP2 DUP2 SLOAD DUP2 LT PUSH2 0x1568 JUMPI PUSH1 0x0 DUP1 REVERT JUMPDEST SWAP1 PUSH1 0x0 MSTORE PUSH1 0x20 PUSH1 0x0 KECCAK256 ADD PUSH1 0x0 SWAP2 POP SWAP2 POP POP SLOAD DUP2 JUMP JUMPDEST PUSH1 0x0 DUP2 DUP2 MSTORE PUSH1 0x9 PUSH1 0x20 MSTORE PUSH1 0x40 SWAP1 KECCAK256 PUSH1 0x4 DUP2 ADD SLOAD PUSH2 0x159C SWAP1 PUSH1 0xA SWAP1 PUSH2 0x27F6 JUMP JUMPDEST CALLVALUE LT ISZERO PUSH2 0x15EB JUMPI PUSH1 0x40 MLOAD PUSH3 0x461BCD PUSH1 0xE5 SHL DUP2 MSTORE PUSH1 0x20 PUSH1 0x4 DUP3 ADD MSTORE PUSH1 0x18 PUSH1 0x24 DUP3 ADD MSTORE PUSH32 0x496E73756666696369656E74206C6963656E7365206665650000000000000000 PUSH1 0x44 DUP3 ADD MSTORE PUSH1 0x64 ADD PUSH2 0x7B1 JUMP JUMPDEST PUSH1 0x2 DUP2 ADD SLOAD PUSH1 0x40 MLOAD PUSH1 0x1 PUSH1 0x1 PUSH1 0xA0 SHL SUB PUSH2 0x100 SWAP1 SWAP3 DIV SWAP2 SWAP1 SWAP2 AND SWAP1 CALLVALUE DUP1 ISZERO PUSH2 0x8FC MUL SWAP2 PUSH1 0x0 DUP2 DUP2 DUP2 DUP6 DUP9 DUP9 CALL SWAP4 POP POP POP POP ISZERO DUP1 ISZERO PUSH2 0x162D JUMPI RETURNDATASIZE PUSH1 0x0 DUP1 RETURNDATACOPY RETURNDATASIZE PUSH1 0x0 REVERT JUMPDEST POP PUSH1 0x0 DUP3 DUP2 MSTORE PUSH1 0xD PUSH1 0x20 SWAP1 DUP2 MSTORE PUSH1 0x40 DUP1 DUP4 KECCAK256 DUP1 SLOAD PUSH1 0x1 DUP2 ADD DUP3 SSTORE SWAP1 DUP5 MSTORE DUP3 DUP5 KECCAK256 ADD DUP1 SLOAD PUSH1 0x1 PUSH1 0x1 PUSH1 0xA0 SHL SUB NOT AND CALLER OR SWAP1 SSTORE DUP5 DUP4 MSTORE PUSH1 0xA SWAP1 SWAP2 MSTORE DUP2 KECCAK256 PUSH1 0x2 ADD DUP1 SLOAD CALLVALUE SWAP3 SWAP1 PUSH2 0x167B SWAP1 DUP5 SWAP1 PUSH2 0x282B JUMP JUMPDEST SWAP1 SWAP2 SSTORE POP POP POP POP JUMP JUMPDEST PUSH1 0x60 PUSH1 0x1 DUP1 SLOAD PUSH2 0x9DA SWAP1 PUSH2 0x278F JUMP JUMPDEST PUSH2 0xA91 CALLER DUP4 DUP4 PUSH2 0x1C53 JUMP JUMPDEST PUSH2 0x16A9 DUP5 DUP5 DUP5 PUSH2 0xB82 JUMP JUMPDEST PUSH2 0xC07 CALLER DUP6 DUP6 DUP6 DUP6 PUSH2 0x1CF2 JUMP JUMPDEST PUSH1 0x60 PUSH2 0x16C1 DUP3 PUSH2 0x19A1 JUMP JUMPDEST POP PUSH1 0x0 PUSH2 0x16D9 PUSH1 0x40 DUP1 MLOAD PUSH1 0x20 DUP2 ADD SWAP1 SWAP2 MSTORE PUSH1 0x0 DUP2 MSTORE SWAP1 JUMP JUMPDEST SWAP1 POP PUSH1 0x0 DUP2 MLOAD GT PUSH2 0x16F9 JUMPI PUSH1 0x40 MLOAD DUP1 PUSH1 0x20 ADD PUSH1 0x40 MSTORE DUP1 PUSH1 0x0 DUP2 MSTORE POP PUSH2 0x1724 JUMP JUMPDEST DUP1 PUSH2 0x1703 DUP5 PUSH2 0x1E1D JUMP JUMPDEST PUSH1 0x40 MLOAD PUSH1 0x20 ADD PUSH2 0x1714 SWAP3 SWAP2 SWAP1 PUSH2 0x2966 JUMP JUMPDEST PUSH1 0x40 MLOAD PUSH1 0x20 DUP2 DUP4 SUB SUB DUP2 MSTORE SWAP1 PUSH1 0x40 MSTORE JUMPDEST SWAP4 SWAP3 POP POP POP JUMP JUMPDEST PUSH1 0xD PUSH1 0x20 MSTORE DUP2 PUSH1 0x0 MSTORE PUSH1 0x40 PUSH1 0x0 KECCAK256 DUP2 DUP2 SLOAD DUP2 LT PUSH2 0x1747 JUMPI PUSH1 0x0 DUP1 REVERT JUMPDEST PUSH1 0x0 SWAP2 DUP3 MSTORE PUSH1 0x20 SWAP1 SWAP2 KECCAK256 ADD SLOAD PUSH1 0x1 PUSH1 0x1 PUSH1 0xA0 SHL SUB AND SWAP2 POP DUP3 SWAP1 POP JUMP JUMPDEST PUSH1 0x1 PUSH1 0x1 PUSH1 0xA0 SHL SUB SWAP2 DUP3 AND PUSH1 0x0 SWAP1 DUP2 MSTORE PUSH1 0x5 PUSH1 0x20 SWAP1 DUP2 MSTORE PUSH1 0x40 DUP1 DUP4 KECCAK256 SWAP4 SWAP1 SWAP5 AND DUP3 MSTORE SWAP2 SWAP1 SWAP2 MSTORE KECCAK256 SLOAD PUSH1 0xFF AND SWAP1 JUMP JUMPDEST PUSH2 0x1799 PUSH2 0x1AE0 JUMP JUMPDEST PUSH1 0x1 PUSH1 0x1 PUSH1 0xA0 SHL SUB DUP2 AND PUSH2 0x17C3 JUMPI PUSH1 0x40 MLOAD PUSH4 0x1E4FBDF7 PUSH1 0xE0 SHL DUP2 MSTORE PUSH1 0x0 PUSH1 0x4 DUP3 ADD MSTORE PUSH1 0x24 ADD PUSH2 0x7B1 JUMP JUMPDEST PUSH2 0xD65 DUP2 PUSH2 0x1BE7 JUMP JUMPDEST PUSH2 0x183E PUSH1 0x40 DUP1 MLOAD PUSH2 0x180 DUP2 ADD DUP3 MSTORE PUSH1 0x0 DUP1 DUP3 MSTORE PUSH1 0x60 PUSH1 0x20 DUP4 ADD MSTORE SWAP1 SWAP2 DUP3 ADD SWAP1 DUP2 MSTORE PUSH1 0x20 ADD PUSH1 0x0 PUSH1 0x1 PUSH1 0x1 PUSH1 0xA0 SHL SUB AND DUP2 MSTORE PUSH1 0x20 ADD PUSH1 0x0 DUP1 NOT AND DUP2 MSTORE PUSH1 0x20 ADD PUSH1 0x0 DUP2 MSTORE PUSH1 0x20 ADD PUSH1 0x0 DUP2 MSTORE PUSH1 0x20 ADD PUSH1 0x0 DUP2 MSTORE PUSH1 0x20 ADD PUSH1 0x0 DUP2 MSTORE PUSH1 0x20 ADD PUSH1 0x0 DUP2 MSTORE PUSH1 0x20 ADD PUSH1 0x0 ISZERO ISZERO DUP2 MSTORE PUSH1 0x20 ADD PUSH1 0x0 DUP2 MSTORE POP SWAP1 JUMP JUMPDEST PUSH1 0x9 PUSH1 0x0 DUP4 DUP2 MSTORE PUSH1 0x20 ADD SWAP1 DUP2 MSTORE PUSH1 0x20 ADD PUSH1 0x0 KECCAK256 PUSH1 0x40 MLOAD DUP1 PUSH2 0x180 ADD PUSH1 0x40 MSTORE SWAP1 DUP2 PUSH1 0x0 DUP3 ADD SLOAD DUP2 MSTORE PUSH1 0x20 ADD PUSH1 0x1 DUP3 ADD DUP1 SLOAD PUSH2 0x1877 SWAP1 PUSH2 0x278F JUMP JUMPDEST DUP1 PUSH1 0x1F ADD PUSH1 0x20 DUP1 SWAP2 DIV MUL PUSH1 0x20 ADD PUSH1 0x40 MLOAD SWAP1 DUP2 ADD PUSH1 0x40 MSTORE DUP1 SWAP3 SWAP2 SWAP1 DUP2 DUP2 MSTORE PUSH1 0x20 ADD DUP3 DUP1 SLOAD PUSH2 0x18A3 SWAP1 PUSH2 0x278F JUMP JUMPDEST DUP1 ISZERO PUSH2 0x18F0 JUMPI DUP1 PUSH1 0x1F LT PUSH2 0x18C5 JUMPI PUSH2 0x100 DUP1 DUP4 SLOAD DIV MUL DUP4 MSTORE SWAP2 PUSH1 0x20 ADD SWAP2 PUSH2 0x18F0 JUMP JUMPDEST DUP3 ADD SWAP2 SWAP1 PUSH1 0x0 MSTORE PUSH1 0x20 PUSH1 0x0 KECCAK256 SWAP1 JUMPDEST DUP2 SLOAD DUP2 MSTORE SWAP1 PUSH1 0x1 ADD SWAP1 PUSH1 0x20 ADD DUP1 DUP4 GT PUSH2 0x18D3 JUMPI DUP3 SWAP1 SUB PUSH1 0x1F AND DUP3 ADD SWAP2 JUMPDEST POP POP POP SWAP2 DUP4 MSTORE POP POP PUSH1 0x2 DUP3 ADD SLOAD PUSH1 0x20 SWAP1 SWAP2 ADD SWAP1 PUSH1 0xFF AND PUSH1 0x3 DUP2 GT ISZERO PUSH2 0x1917 JUMPI PUSH2 0x1917 PUSH2 0x2387 JUMP JUMPDEST PUSH1 0x3 DUP2 GT ISZERO PUSH2 0x1928 JUMPI PUSH2 0x1928 PUSH2 0x2387 JUMP JUMPDEST DUP2 MSTORE PUSH1 0x2 DUP3 ADD SLOAD PUSH1 0x1 PUSH1 0x1 PUSH1 0xA0 SHL SUB PUSH2 0x100 SWAP2 DUP3 SWAP1 DIV AND PUSH1 0x20 DUP4 ADD MSTORE PUSH1 0x3 DUP4 ADD SLOAD PUSH1 0x40 DUP4 ADD MSTORE PUSH1 0x4 DUP4 ADD SLOAD PUSH1 0x60 DUP4 ADD MSTORE PUSH1 0x5 DUP4 ADD SLOAD PUSH1 0x80 DUP4 ADD MSTORE PUSH1 0x6 DUP4 ADD SLOAD PUSH1 0xA0 DUP4 ADD MSTORE PUSH1 0x7 DUP4 ADD SLOAD PUSH1 0xC0 DUP4 ADD MSTORE PUSH1 0x8 DUP4 ADD SLOAD PUSH1 0xE0 DUP4 ADD MSTORE PUSH1 0x9 DUP4 ADD SLOAD PUSH1 0xFF AND ISZERO ISZERO SWAP1 DUP3 ADD MSTORE PUSH1 0xA SWAP1 SWAP2 ADD SLOAD PUSH2 0x120 SWAP1 SWAP2 ADD MSTORE SWAP3 SWAP2 POP POP JUMP JUMPDEST PUSH1 0x0 DUP2 DUP2 MSTORE PUSH1 0x2 PUSH1 0x20 MSTORE PUSH1 0x40 DUP2 KECCAK256 SLOAD PUSH1 0x1 PUSH1 0x1 PUSH1 0xA0 SHL SUB AND DUP1 PUSH2 0x874 JUMPI PUSH1 0x40 MLOAD PUSH4 0x7E273289 PUSH1 0xE0 SHL DUP2 MSTORE PUSH1 0x4 DUP2 ADD DUP5 SWAP1 MSTORE PUSH1 0x24 ADD PUSH2 0x7B1 JUMP JUMPDEST PUSH2 0xD1F DUP4 DUP4 DUP4 PUSH1 0x1 PUSH2 0x1EB0 JUMP JUMPDEST PUSH1 0x0 DUP3 DUP2 MSTORE PUSH1 0x2 PUSH1 0x20 MSTORE PUSH1 0x40 DUP2 KECCAK256 SLOAD PUSH1 0x1 PUSH1 0x1 PUSH1 0xA0 SHL SUB SWAP1 DUP2 AND SWAP1 DUP4 AND ISZERO PUSH2 0x1A14 JUMPI PUSH2 0x1A14 DUP2 DUP5 DUP7 PUSH2 0x1FB6 JUMP JUMPDEST PUSH1 0x1 PUSH1 0x1 PUSH1 0xA0 SHL SUB DUP2 AND ISZERO PUSH2 0x1A52 JUMPI PUSH2 0x1A31 PUSH1 0x0 DUP6 PUSH1 0x0 DUP1 PUSH2 0x1EB0 JUMP JUMPDEST PUSH1 0x1 PUSH1 0x1 PUSH1 0xA0 SHL SUB DUP2 AND PUSH1 0x0 SWAP1 DUP2 MSTORE PUSH1 0x3 PUSH1 0x20 MSTORE PUSH1 0x40 SWAP1 KECCAK256 DUP1 SLOAD PUSH1 0x0 NOT ADD SWAP1 SSTORE JUMPDEST PUSH1 0x1 PUSH1 0x1 PUSH1 0xA0 SHL SUB DUP6 AND ISZERO PUSH2 0x1A81 JUMPI PUSH1 0x1 PUSH1 0x1 PUSH1 0xA0 SHL SUB DUP6 AND PUSH1 0x0 SWAP1 DUP2 MSTORE PUSH1 0x3 PUSH1 0x20 MSTORE PUSH1 0x40 SWAP1 KECCAK256 DUP1 SLOAD PUSH1 0x1 ADD SWAP1 SSTORE JUMPDEST PUSH1 0x0 DUP5 DUP2 MSTORE PUSH1 0x2 PUSH1 0x20 MSTORE PUSH1 0x40 DUP1 DUP3 KECCAK256 DUP1 SLOAD PUSH1 0x1 PUSH1 0x1 PUSH1 0xA0 SHL SUB NOT AND PUSH1 0x1 PUSH1 0x1 PUSH1 0xA0 SHL SUB DUP10 DUP2 AND SWAP2 DUP3 OR SWAP1 SWAP3 SSTORE SWAP2 MLOAD DUP8 SWAP4 SWAP2 DUP6 AND SWAP2 PUSH32 0xDDF252AD1BE2C89B69C2B068FC378DAA952BA7F163C4A11628F55A4DF523B3EF SWAP2 LOG4 SWAP5 SWAP4 POP POP POP POP JUMP JUMPDEST PUSH1 0x6 SLOAD PUSH1 0x1 PUSH1 0x1 PUSH1 0xA0 SHL SUB AND CALLER EQ PUSH2 0x12CE JUMPI PUSH1 0x40 MLOAD PUSH4 0x118CDAA7 PUSH1 0xE0 SHL DUP2 MSTORE CALLER PUSH1 0x4 DUP3 ADD MSTORE PUSH1 0x24 ADD PUSH2 0x7B1 JUMP JUMPDEST PUSH1 0x2 PUSH1 0x7 SLOAD SUB PUSH2 0x1B30 JUMPI PUSH1 0x40 MLOAD PUSH4 0x3EE5AEB5 PUSH1 0xE0 SHL DUP2 MSTORE PUSH1 0x4 ADD PUSH1 0x40 MLOAD DUP1 SWAP2 SUB SWAP1 REVERT JUMPDEST PUSH1 0x2 PUSH1 0x7 SSTORE JUMP JUMPDEST PUSH1 0x1 PUSH1 0x1 PUSH1 0xA0 SHL SUB DUP3 AND PUSH2 0x1B61 JUMPI PUSH1 0x40 MLOAD PUSH4 0x32505749 PUSH1 0xE1 SHL DUP2 MSTORE PUSH1 0x0 PUSH1 0x4 DUP3 ADD MSTORE PUSH1 0x24 ADD PUSH2 0x7B1 JUMP JUMPDEST PUSH1 0x0 PUSH2 0x1B6F DUP4 DUP4 PUSH1 0x0 PUSH2 0x19E7 JUMP JUMPDEST SWAP1 POP PUSH1 0x1 PUSH1 0x1 PUSH1 0xA0 SHL SUB DUP2 AND PUSH2 0x1B9B JUMPI PUSH1 0x40 MLOAD PUSH4 0x7E273289 PUSH1 0xE0 SHL DUP2 MSTORE PUSH1 0x4 DUP2 ADD DUP4 SWAP1 MSTORE PUSH1 0x24 ADD PUSH2 0x7B1 JUMP JUMPDEST DUP4 PUSH1 0x1 PUSH1 0x1 PUSH1 0xA0 SHL SUB AND DUP2 PUSH1 0x1 PUSH1 0x1 PUSH1 0xA0 SHL SUB AND EQ PUSH2 0xC07 JUMPI PUSH1 0x40 MLOAD PUSH4 0x64283D7B PUSH1 0xE0 SHL DUP2 MSTORE PUSH1 0x1 PUSH1 0x1 PUSH1 0xA0 SHL SUB DUP1 DUP7 AND PUSH1 0x4 DUP4 ADD MSTORE PUSH1 0x24 DUP3 ADD DUP5 SWAP1 MSTORE DUP3 AND PUSH1 0x44 DUP3 ADD MSTORE PUSH1 0x64 ADD PUSH2 0x7B1 JUMP JUMPDEST PUSH1 0x6 DUP1 SLOAD PUSH1 0x1 PUSH1 0x1 PUSH1 0xA0 SHL SUB DUP4 DUP2 AND PUSH1 0x1 PUSH1 0x1 PUSH1 0xA0 SHL SUB NOT DUP4 AND DUP2 OR SWAP1 SWAP4 SSTORE PUSH1 0x40 MLOAD SWAP2 AND SWAP2 SWAP1 DUP3 SWAP1 PUSH32 0x8BE0079C531659141344CD1FD0A4F28419497F9722A3DAAFE3B4186F6B6457E0 SWAP1 PUSH1 0x0 SWAP1 LOG3 POP POP JUMP JUMPDEST PUSH2 0xA91 DUP3 DUP3 PUSH1 0x40 MLOAD DUP1 PUSH1 0x20 ADD PUSH1 0x40 MSTORE DUP1 PUSH1 0x0 DUP2 MSTORE POP PUSH2 0x201A JUMP JUMPDEST PUSH1 0x1 PUSH1 0x1 PUSH1 0xA0 SHL SUB DUP3 AND PUSH2 0x1C85 JUMPI PUSH1 0x40 MLOAD PUSH4 0xB611743 PUSH1 0xE3 SHL DUP2 MSTORE PUSH1 0x1 PUSH1 0x1 PUSH1 0xA0 SHL SUB DUP4 AND PUSH1 0x4 DUP3 ADD MSTORE PUSH1 0x24 ADD PUSH2 0x7B1 JUMP JUMPDEST PUSH1 0x1 PUSH1 0x1 PUSH1 0xA0 SHL SUB DUP4 DUP2 AND PUSH1 0x0 DUP2 DUP2 MSTORE PUSH1 0x5 PUSH1 0x20 SWAP1 DUP2 MSTORE PUSH1 0x40 DUP1 DUP4 KECCAK256 SWAP5 DUP8 AND DUP1 DUP5 MSTORE SWAP5 DUP3 MSTORE SWAP2 DUP3 SWAP1 KECCAK256 DUP1 SLOAD PUSH1 0xFF NOT AND DUP7 ISZERO ISZERO SWAP1 DUP2 OR SWAP1 SWAP2 SSTORE SWAP2 MLOAD SWAP2 DUP3 MSTORE PUSH32 0x17307EAB39AB6107E8899845AD3D59BD9653F200F220920489CA2B5937696C31 SWAP2 ADD PUSH1 0x40 MLOAD DUP1 SWAP2 SUB SWAP1 LOG3 POP POP POP JUMP JUMPDEST PUSH1 0x1 PUSH1 0x1 PUSH1 0xA0 SHL SUB DUP4 AND EXTCODESIZE ISZERO PUSH2 0x1E16 JUMPI PUSH1 0x40 MLOAD PUSH4 0xA85BD01 PUSH1 0xE1 SHL DUP2 MSTORE PUSH1 0x1 PUSH1 0x1 PUSH1 0xA0 SHL SUB DUP5 AND SWAP1 PUSH4 0x150B7A02 SWAP1 PUSH2 0x1D34 SWAP1 DUP9 SWAP1 DUP9 SWAP1 DUP8 SWAP1 DUP8 SWAP1 PUSH1 0x4 ADD PUSH2 0x2995 JUMP JUMPDEST PUSH1 0x20 PUSH1 0x40 MLOAD DUP1 DUP4 SUB DUP2 PUSH1 0x0 DUP8 GAS CALL SWAP3 POP POP POP DUP1 ISZERO PUSH2 0x1D6F JUMPI POP PUSH1 0x40 DUP1 MLOAD PUSH1 0x1F RETURNDATASIZE SWAP1 DUP2 ADD PUSH1 0x1F NOT AND DUP3 ADD SWAP1 SWAP3 MSTORE PUSH2 0x1D6C SWAP2 DUP2 ADD SWAP1 PUSH2 0x29D2 JUMP JUMPDEST PUSH1 0x1 JUMPDEST PUSH2 0x1DD8 JUMPI RETURNDATASIZE DUP1 DUP1 ISZERO PUSH2 0x1D9D JUMPI PUSH1 0x40 MLOAD SWAP2 POP PUSH1 0x1F NOT PUSH1 0x3F RETURNDATASIZE ADD AND DUP3 ADD PUSH1 0x40 MSTORE RETURNDATASIZE DUP3 MSTORE RETURNDATASIZE PUSH1 0x0 PUSH1 0x20 DUP5 ADD RETURNDATACOPY PUSH2 0x1DA2 JUMP JUMPDEST PUSH1 0x60 SWAP2 POP JUMPDEST POP DUP1 MLOAD PUSH1 0x0 SUB PUSH2 0x1DD0 JUMPI PUSH1 0x40 MLOAD PUSH4 0x32505749 PUSH1 0xE1 SHL DUP2 MSTORE PUSH1 0x1 PUSH1 0x1 PUSH1 0xA0 SHL SUB DUP6 AND PUSH1 0x4 DUP3 ADD MSTORE PUSH1 0x24 ADD PUSH2 0x7B1 JUMP JUMPDEST DUP1 MLOAD PUSH1 0x20 DUP3 ADD REVERT JUMPDEST PUSH1 0x1 PUSH1 0x1 PUSH1 0xE0 SHL SUB NOT DUP2 AND PUSH4 0xA85BD01 PUSH1 0xE1 SHL EQ PUSH2 0x1E14 JUMPI PUSH1 0x40 MLOAD PUSH4 0x32505749 PUSH1 0xE1 SHL DUP2 MSTORE PUSH1 0x1 PUSH1 0x1 PUSH1 0xA0 SHL SUB DUP6 AND PUSH1 0x4 DUP3 ADD MSTORE PUSH1 0x24 ADD PUSH2 0x7B1 JUMP JUMPDEST POP JUMPDEST POP POP POP POP POP JUMP JUMPDEST PUSH1 0x60 PUSH1 0x0 PUSH2 0x1E2A DUP4 PUSH2 0x2032 JUMP JUMPDEST PUSH1 0x1 ADD SWAP1 POP PUSH1 0x0 DUP2 PUSH8 0xFFFFFFFFFFFFFFFF DUP2 GT ISZERO PUSH2 0x1E4A JUMPI PUSH2 0x1E4A PUSH2 0x249B JUMP JUMPDEST PUSH1 0x40 MLOAD SWAP1 DUP1 DUP3 MSTORE DUP1 PUSH1 0x1F ADD PUSH1 0x1F NOT AND PUSH1 0x20 ADD DUP3 ADD PUSH1 0x40 MSTORE DUP1 ISZERO PUSH2 0x1E74 JUMPI PUSH1 0x20 DUP3 ADD DUP2 DUP1 CALLDATASIZE DUP4 CALLDATACOPY ADD SWAP1 POP JUMPDEST POP SWAP1 POP DUP2 DUP2 ADD PUSH1 0x20 ADD JUMPDEST PUSH1 0x0 NOT ADD PUSH16 0x181899199A1A9B1B9C1CB0B131B232B3 PUSH1 0x81 SHL PUSH1 0xA DUP7 MOD BYTE DUP2 MSTORE8 PUSH1 0xA DUP6 DIV SWAP5 POP DUP5 PUSH2 0x1E7E JUMPI POP SWAP4 SWAP3 POP POP POP JUMP JUMPDEST DUP1 DUP1 PUSH2 0x1EC4 JUMPI POP PUSH1 0x1 PUSH1 0x1 PUSH1 0xA0 SHL SUB DUP3 AND ISZERO ISZERO JUMPDEST ISZERO PUSH2 0x1F86 JUMPI PUSH1 0x0 PUSH2 0x1ED4 DUP5 PUSH2 0x19A1 JUMP JUMPDEST SWAP1 POP PUSH1 0x1 PUSH1 0x1 PUSH1 0xA0 SHL SUB DUP4 AND ISZERO DUP1 ISZERO SWAP1 PUSH2 0x1F00 JUMPI POP DUP3 PUSH1 0x1 PUSH1 0x1 PUSH1 0xA0 SHL SUB AND DUP2 PUSH1 0x1 PUSH1 0x1 PUSH1 0xA0 SHL SUB AND EQ ISZERO JUMPDEST DUP1 ISZERO PUSH2 0x1F13 JUMPI POP PUSH2 0x1F11 DUP2 DUP5 PUSH2 0x1763 JUMP JUMPDEST ISZERO JUMPDEST ISZERO PUSH2 0x1F3C JUMPI PUSH1 0x40 MLOAD PUSH4 0xA9FBF51F PUSH1 0xE0 SHL DUP2 MSTORE PUSH1 0x1 PUSH1 0x1 PUSH1 0xA0 SHL SUB DUP5 AND PUSH1 0x4 DUP3 ADD MSTORE PUSH1 0x24 ADD PUSH2 0x7B1 JUMP JUMPDEST DUP2 ISZERO PUSH2 0x1F84 JUMPI DUP4 DUP6 PUSH1 0x1 PUSH1 0x1 PUSH1 0xA0 SHL SUB AND DUP3 PUSH1 0x1 PUSH1 0x1 PUSH1 0xA0 SHL SUB AND PUSH32 0x8C5BE1E5EBEC7D5BD14F71427D1E84F3DD0314C0F7B2291E5B200AC8C7C3B925 PUSH1 0x40 MLOAD PUSH1 0x40 MLOAD DUP1 SWAP2 SUB SWAP1 LOG4 JUMPDEST POP JUMPDEST POP POP PUSH1 0x0 SWAP1 DUP2 MSTORE PUSH1 0x4 PUSH1 0x20 MSTORE PUSH1 0x40 SWAP1 KECCAK256 DUP1 SLOAD PUSH1 0x1 PUSH1 0x1 PUSH1 0xA0 SHL SUB NOT AND PUSH1 0x1 PUSH1 0x1 PUSH1 0xA0 SHL SUB SWAP3 SWAP1 SWAP3 AND SWAP2 SWAP1 SWAP2 OR SWAP1 SSTORE JUMP JUMPDEST PUSH2 0x1FC1 DUP4 DUP4 DUP4 PUSH2 0x210A JUMP JUMPDEST PUSH2 0xD1F JUMPI PUSH1 0x1 PUSH1 0x1 PUSH1 0xA0 SHL SUB DUP4 AND PUSH2 0x1FEF JUMPI PUSH1 0x40 MLOAD PUSH4 0x7E273289 PUSH1 0xE0 SHL DUP2 MSTORE PUSH1 0x4 DUP2 ADD DUP3 SWAP1 MSTORE PUSH1 0x24 ADD PUSH2 0x7B1 JUMP JUMPDEST PUSH1 0x40 MLOAD PUSH4 0x177E802F PUSH1 0xE0 SHL DUP2 MSTORE PUSH1 0x1 PUSH1 0x1 PUSH1 0xA0 SHL SUB DUP4 AND PUSH1 0x4 DUP3 ADD MSTORE PUSH1 0x24 DUP2 ADD DUP3 SWAP1 MSTORE PUSH1 0x44 ADD PUSH2 0x7B1 JUMP JUMPDEST PUSH2 0x2024 DUP4 DUP4 PUSH2 0x2170 JUMP JUMPDEST PUSH2 0xD1F CALLER PUSH1 0x0 DUP6 DUP6 DUP6 PUSH2 0x1CF2 JUMP JUMPDEST PUSH1 0x0 DUP1 PUSH19 0x184F03E93FF9F4DAA797ED6E38ED64BF6A1F01 PUSH1 0x40 SHL DUP4 LT PUSH2 0x2071 JUMPI PUSH19 0x184F03E93FF9F4DAA797ED6E38ED64BF6A1F01 PUSH1 0x40 SHL DUP4 DIV SWAP3 POP PUSH1 0x40 ADD JUMPDEST PUSH14 0x4EE2D6D415B85ACEF8100000000 DUP4 LT PUSH2 0x209D JUMPI PUSH14 0x4EE2D6D415B85ACEF8100000000 DUP4 DIV SWAP3 POP PUSH1 0x20 ADD JUMPDEST PUSH7 0x2386F26FC10000 DUP4 LT PUSH2 0x20BB JUMPI PUSH7 0x2386F26FC10000 DUP4 DIV SWAP3 POP PUSH1 0x10 ADD JUMPDEST PUSH4 0x5F5E100 DUP4 LT PUSH2 0x20D3 JUMPI PUSH4 0x5F5E100 DUP4 DIV SWAP3 POP PUSH1 0x8 ADD JUMPDEST PUSH2 0x2710 DUP4 LT PUSH2 0x20E7 JUMPI PUSH2 0x2710 DUP4 DIV SWAP3 POP PUSH1 0x4 ADD JUMPDEST PUSH1 0x64 DUP4 LT PUSH2 0x20F9 JUMPI PUSH1 0x64 DUP4 DIV SWAP3 POP PUSH1 0x2 ADD JUMPDEST PUSH1 0xA DUP4 LT PUSH2 0x874 JUMPI PUSH1 0x1 ADD SWAP3 SWAP2 POP POP JUMP JUMPDEST PUSH1 0x0 PUSH1 0x1 PUSH1 0x1 PUSH1 0xA0 SHL SUB DUP4 AND ISZERO DUP1 ISZERO SWAP1 PUSH2 0x2168 JUMPI POP DUP3 PUSH1 0x1 PUSH1 0x1 PUSH1 0xA0 SHL SUB AND DUP5 PUSH1 0x1 PUSH1 0x1 PUSH1 0xA0 SHL SUB AND EQ DUP1 PUSH2 0x2144 JUMPI POP PUSH2 0x2144 DUP5 DUP5 PUSH2 0x1763 JUMP JUMPDEST DUP1 PUSH2 0x2168 JUMPI POP PUSH1 0x0 DUP3 DUP2 MSTORE PUSH1 0x4 PUSH1 0x20 MSTORE PUSH1 0x40 SWAP1 KECCAK256 SLOAD PUSH1 0x1 PUSH1 0x1 PUSH1 0xA0 SHL SUB DUP5 DUP2 AND SWAP2 AND EQ JUMPDEST SWAP5 SWAP4 POP POP POP POP JUMP JUMPDEST PUSH1 0x1 PUSH1 0x1 PUSH1 0xA0 SHL SUB DUP3 AND PUSH2 0x219A JUMPI PUSH1 0x40 MLOAD PUSH4 0x32505749 PUSH1 0xE1 SHL DUP2 MSTORE PUSH1 0x0 PUSH1 0x4 DUP3 ADD MSTORE PUSH1 0x24 ADD PUSH2 0x7B1 JUMP JUMPDEST PUSH1 0x0 PUSH2 0x21A8 DUP4 DUP4 PUSH1 0x0 PUSH2 0x19E7 JUMP JUMPDEST SWAP1 POP PUSH1 0x1 PUSH1 0x1 PUSH1 0xA0 SHL SUB DUP2 AND ISZERO PUSH2 0xD1F JUMPI PUSH1 0x40 MLOAD PUSH4 0x39E35637 PUSH1 0xE1 SHL DUP2 MSTORE PUSH1 0x0 PUSH1 0x4 DUP3 ADD MSTORE PUSH1 0x24 ADD PUSH2 0x7B1 JUMP JUMPDEST PUSH1 0x0 DUP1 PUSH1 0x40 DUP4 DUP6 SUB SLT ISZERO PUSH2 0x21E8 JUMPI PUSH1 0x0 DUP1 REVERT JUMPDEST POP POP DUP1 CALLDATALOAD SWAP3 PUSH1 0x20 SWAP1 SWAP2 ADD CALLDATALOAD SWAP2 POP JUMP JUMPDEST PUSH1 0x1 PUSH1 0x1 PUSH1 0xE0 SHL SUB NOT DUP2 AND DUP2 EQ PUSH2 0xD65 JUMPI PUSH1 0x0 DUP1 REVERT JUMPDEST PUSH1 0x0 PUSH1 0x20 DUP3 DUP5 SUB SLT ISZERO PUSH2 0x221F JUMPI PUSH1 0x0 DUP1 REVERT JUMPDEST DUP2 CALLDATALOAD PUSH2 0x1724 DUP2 PUSH2 0x21F7 JUMP JUMPDEST PUSH1 0x0 JUMPDEST DUP4 DUP2 LT ISZERO PUSH2 0x2245 JUMPI DUP2 DUP2 ADD MLOAD DUP4 DUP3 ADD MSTORE PUSH1 0x20 ADD PUSH2 0x222D JUMP JUMPDEST POP POP PUSH1 0x0 SWAP2 ADD MSTORE JUMP JUMPDEST PUSH1 0x0 DUP2 MLOAD DUP1 DUP5 MSTORE PUSH2 0x2266 DUP2 PUSH1 0x20 DUP7 ADD PUSH1 0x20 DUP7 ADD PUSH2 0x222A JUMP JUMPDEST PUSH1 0x1F ADD PUSH1 0x1F NOT AND SWAP3 SWAP1 SWAP3 ADD PUSH1 0x20 ADD SWAP3 SWAP2 POP POP JUMP JUMPDEST PUSH1 0x20 DUP2 MSTORE PUSH1 0x0 PUSH2 0x1724 PUSH1 0x20 DUP4 ADD DUP5 PUSH2 0x224E JUMP JUMPDEST PUSH1 0x0 PUSH1 0x20 DUP3 DUP5 SUB SLT ISZERO PUSH2 0x229F JUMPI PUSH1 0x0 DUP1 REVERT JUMPDEST POP CALLDATALOAD SWAP2 SWAP1 POP JUMP JUMPDEST DUP1 CALLDATALOAD PUSH1 0x1 PUSH1 0x1 PUSH1 0xA0 SHL SUB DUP2 AND DUP2 EQ PUSH2 0x22BD JUMPI PUSH1 0x0 DUP1 REVERT JUMPDEST SWAP2 SWAP1 POP JUMP JUMPDEST PUSH1 0x0 DUP1 PUSH1 0x40 DUP4 DUP6 SUB SLT ISZERO PUSH2 0x22D5 JUMPI PUSH1 0x0 DUP1 REVERT JUMPDEST PUSH2 0x22DE DUP4 PUSH2 0x22A6 JUMP JUMPDEST SWAP5 PUSH1 0x20 SWAP4 SWAP1 SWAP4 ADD CALLDATALOAD SWAP4 POP POP POP JUMP JUMPDEST PUSH1 0x0 PUSH1 0x20 DUP3 DUP5 SUB SLT ISZERO PUSH2 0x22FE JUMPI PUSH1 0x0 DUP1 REVERT JUMPDEST PUSH2 0x1724 DUP3 PUSH2 0x22A6 JUMP JUMPDEST PUSH1 0x20 DUP1 DUP3 MSTORE DUP3 MLOAD DUP3 DUP3 ADD DUP2 SWAP1 MSTORE PUSH1 0x0 SWAP2 SWAP1 DUP5 DUP3 ADD SWAP1 PUSH1 0x40 DUP6 ADD SWAP1 DUP5 JUMPDEST DUP2 DUP2 LT ISZERO PUSH2 0x233F JUMPI DUP4 MLOAD DUP4 MSTORE SWAP3 DUP5 ADD SWAP3 SWAP2 DUP5 ADD SWAP2 PUSH1 0x1 ADD PUSH2 0x2323 JUMP JUMPDEST POP SWAP1 SWAP7 SWAP6 POP POP POP POP POP POP JUMP JUMPDEST PUSH1 0x0 DUP1 PUSH1 0x0 PUSH1 0x60 DUP5 DUP7 SUB SLT ISZERO PUSH2 0x2360 JUMPI PUSH1 0x0 DUP1 REVERT JUMPDEST PUSH2 0x2369 DUP5 PUSH2 0x22A6 JUMP JUMPDEST SWAP3 POP PUSH2 0x2377 PUSH1 0x20 DUP6 ADD PUSH2 0x22A6 JUMP JUMPDEST SWAP2 POP PUSH1 0x40 DUP5 ADD CALLDATALOAD SWAP1 POP SWAP3 POP SWAP3 POP SWAP3 JUMP JUMPDEST PUSH4 0x4E487B71 PUSH1 0xE0 SHL PUSH1 0x0 MSTORE PUSH1 0x21 PUSH1 0x4 MSTORE PUSH1 0x24 PUSH1 0x0 REVERT JUMPDEST PUSH1 0x4 DUP2 LT PUSH2 0x23BB JUMPI PUSH4 0x4E487B71 PUSH1 0xE0 SHL PUSH1 0x0 MSTORE PUSH1 0x21 PUSH1 0x4 MSTORE PUSH1 0x24 PUSH1 0x0 REVERT JUMPDEST SWAP1 MSTORE JUMP JUMPDEST PUSH1 0x0 PUSH2 0x180 DUP15 DUP4 MSTORE DUP1 PUSH1 0x20 DUP5 ADD MSTORE PUSH2 0x23D9 DUP2 DUP5 ADD DUP16 PUSH2 0x224E JUMP JUMPDEST SWAP2 POP POP PUSH2 0x23E9 PUSH1 0x40 DUP4 ADD DUP14 PUSH2 0x239D JUMP JUMPDEST PUSH1 0x1 PUSH1 0x1 PUSH1 0xA0 SHL SUB SWAP11 SWAP1 SWAP11 AND PUSH1 0x60 DUP3 ADD MSTORE PUSH1 0x80 DUP2 ADD SWAP9 SWAP1 SWAP9 MSTORE PUSH1 0xA0 DUP9 ADD SWAP7 SWAP1 SWAP7 MSTORE PUSH1 0xC0 DUP8 ADD SWAP5 SWAP1 SWAP5 MSTORE PUSH1 0xE0 DUP7 ADD SWAP3 SWAP1 SWAP3 MSTORE PUSH2 0x100 DUP6 ADD MSTORE PUSH2 0x120 DUP5 ADD MSTORE ISZERO ISZERO PUSH2 0x140 DUP4 ADD MSTORE PUSH2 0x160 SWAP1 SWAP2 ADD MSTORE SWAP4 SWAP3 POP POP POP JUMP JUMPDEST PUSH1 0x0 DUP1 PUSH1 0x40 DUP4 DUP6 SUB SLT ISZERO PUSH2 0x244F JUMPI PUSH1 0x0 DUP1 REVERT JUMPDEST DUP3 CALLDATALOAD SWAP2 POP PUSH2 0x245F PUSH1 0x20 DUP5 ADD PUSH2 0x22A6 JUMP JUMPDEST SWAP1 POP SWAP3 POP SWAP3 SWAP1 POP JUMP JUMPDEST DUP1 CALLDATALOAD DUP1 ISZERO ISZERO DUP2 EQ PUSH2 0x22BD JUMPI PUSH1 0x0 DUP1 REVERT JUMPDEST PUSH1 0x0 DUP1 PUSH1 0x40 DUP4 DUP6 SUB SLT ISZERO PUSH2 0x248B JUMPI PUSH1 0x0 DUP1 REVERT JUMPDEST DUP3 CALLDATALOAD SWAP2 POP PUSH2 0x245F PUSH1 0x20 DUP5 ADD PUSH2 0x2468 JUMP JUMPDEST PUSH4 0x4E487B71 PUSH1 0xE0 SHL PUSH1 0x0 MSTORE PUSH1 0x41 PUSH1 0x4 MSTORE PUSH1 0x24 PUSH1 0x0 REVERT JUMPDEST PUSH1 0x0 PUSH8 0xFFFFFFFFFFFFFFFF DUP1 DUP5 GT ISZERO PUSH2 0x24CC JUMPI PUSH2 0x24CC PUSH2 0x249B JUMP JUMPDEST PUSH1 0x40 MLOAD PUSH1 0x1F DUP6 ADD PUSH1 0x1F NOT SWAP1 DUP2 AND PUSH1 0x3F ADD AND DUP2 ADD SWAP1 DUP3 DUP3 GT DUP2 DUP4 LT OR ISZERO PUSH2 0x24F4 JUMPI PUSH2 0x24F4 PUSH2 0x249B JUMP JUMPDEST DUP2 PUSH1 0x40 MSTORE DUP1 SWAP4 POP DUP6 DUP2 MSTORE DUP7 DUP7 DUP7 ADD GT ISZERO PUSH2 0x250D JUMPI PUSH1 0x0 DUP1 REVERT JUMPDEST DUP6 DUP6 PUSH1 0x20 DUP4 ADD CALLDATACOPY PUSH1 0x0 PUSH1 0x20 DUP8 DUP4 ADD ADD MSTORE POP POP POP SWAP4 SWAP3 POP POP POP JUMP JUMPDEST PUSH1 0x0 DUP1 PUSH1 0x0 DUP1 PUSH1 0x0 PUSH1 0xA0 DUP7 DUP9 SUB SLT ISZERO PUSH2 0x253F JUMPI PUSH1 0x0 DUP1 REVERT JUMPDEST DUP6 CALLDATALOAD PUSH8 0xFFFFFFFFFFFFFFFF DUP2 GT ISZERO PUSH2 0x2556 JUMPI PUSH1 0x0 DUP1 REVERT JUMPDEST DUP7 ADD PUSH1 0x1F DUP2 ADD DUP9 SGT PUSH2 0x2567 JUMPI PUSH1 0x0 DUP1 REVERT JUMPDEST PUSH2 0x2576 DUP9 DUP3 CALLDATALOAD PUSH1 0x20 DUP5 ADD PUSH2 0x24B1 JUMP JUMPDEST SWAP6 POP POP PUSH1 0x20 DUP7 ADD CALLDATALOAD PUSH1 0x4 DUP2 LT PUSH2 0x258B JUMPI PUSH1 0x0 DUP1 REVERT JUMPDEST SWAP5 SWAP8 SWAP5 SWAP7 POP POP POP POP PUSH1 0x40 DUP4 ADD CALLDATALOAD SWAP3 PUSH1 0x60 DUP2 ADD CALLDATALOAD SWAP3 PUSH1 0x80 SWAP1 SWAP2 ADD CALLDATALOAD SWAP2 POP JUMP JUMPDEST PUSH1 0x0 DUP1 PUSH1 0x40 DUP4 DUP6 SUB SLT ISZERO PUSH2 0x25BC JUMPI PUSH1 0x0 DUP1 REVERT JUMPDEST PUSH2 0x25C5 DUP4 PUSH2 0x22A6 JUMP JUMPDEST SWAP2 POP PUSH2 0x245F PUSH1 0x20 DUP5 ADD PUSH2 0x2468 JUMP JUMPDEST PUSH1 0x0 DUP1 PUSH1 0x0 DUP1 PUSH1 0x80 DUP6 DUP8 SUB SLT ISZERO PUSH2 0x25E9 JUMPI PUSH1 0x0 DUP1 REVERT JUMPDEST PUSH2 0x25F2 DUP6 PUSH2 0x22A6 JUMP JUMPDEST SWAP4 POP PUSH2 0x2600 PUSH1 0x20 DUP7 ADD PUSH2 0x22A6 JUMP JUMPDEST SWAP3 POP PUSH1 0x40 DUP6 ADD CALLDATALOAD SWAP2 POP PUSH1 0x60 DUP6 ADD CALLDATALOAD PUSH8 0xFFFFFFFFFFFFFFFF DUP2 GT ISZERO PUSH2 0x2623 JUMPI PUSH1 0x0 DUP1 REVERT JUMPDEST DUP6 ADD PUSH1 0x1F DUP2 ADD DUP8 SGT PUSH2 0x2634 JUMPI PUSH1 0x0 DUP1 REVERT JUMPDEST PUSH2 0x2643 DUP8 DUP3 CALLDATALOAD PUSH1 0x20 DUP5 ADD PUSH2 0x24B1 JUMP JUMPDEST SWAP2 POP POP SWAP3 SWAP6 SWAP2 SWAP5 POP SWAP3 POP JUMP JUMPDEST PUSH1 0x0 DUP1 PUSH1 0x40 DUP4 DUP6 SUB SLT ISZERO PUSH2 0x2662 JUMPI PUSH1 0x0 DUP1 REVERT JUMPDEST PUSH2 0x266B DUP4 PUSH2 0x22A6 JUMP JUMPDEST SWAP2 POP PUSH2 0x245F PUSH1 0x20 DUP5 ADD PUSH2 0x22A6 JUMP JUMPDEST PUSH1 0x20 DUP2 MSTORE DUP2 MLOAD PUSH1 0x20 DUP3 ADD MSTORE PUSH1 0x0 PUSH1 0x20 DUP4 ADD MLOAD PUSH2 0x180 DUP1 PUSH1 0x40 DUP6 ADD MSTORE PUSH2 0x26A2 PUSH2 0x1A0 DUP6 ADD DUP4 PUSH2 0x224E JUMP JUMPDEST SWAP2 POP PUSH1 0x40 DUP6 ADD MLOAD PUSH2 0x26B6 PUSH1 0x60 DUP7 ADD DUP3 PUSH2 0x239D JUMP JUMPDEST POP PUSH1 0x60 DUP6 ADD MLOAD PUSH1 0x1 PUSH1 0x1 PUSH1 0xA0 SHL SUB DUP2 AND PUSH1 0x80 DUP7 ADD MSTORE POP PUSH1 0x80 DUP6 ADD MLOAD PUSH1 0xA0 DUP6 ADD MSTORE PUSH1 0xA0 DUP6 ADD MLOAD PUSH1 0xC0 DUP6 ADD MSTORE PUSH1 0xC0 DUP6 ADD MLOAD PUSH1 0xE0 DUP6 ADD MSTORE PUSH1 0xE0 DUP6 ADD MLOAD PUSH2 0x100 DUP2 DUP2 DUP8 ADD MSTORE DUP1 DUP8 ADD MLOAD SWAP2 POP POP PUSH2 0x120 DUP2 DUP2 DUP8 ADD MSTORE DUP1 DUP8 ADD MLOAD SWAP2 POP POP PUSH2 0x140 DUP2 DUP2 DUP8 ADD MSTORE DUP1 DUP8 ADD MLOAD SWAP2 POP POP PUSH2 0x160 PUSH2 0x272C DUP2 DUP8 ADD DUP4 ISZERO ISZERO SWAP1 MSTORE JUMP JUMPDEST SWAP6 SWAP1 SWAP6 ADD MLOAD SWAP4 ADD SWAP3 SWAP1 SWAP3 MSTORE POP SWAP2 SWAP1 POP JUMP JUMPDEST PUSH1 0x20 DUP1 DUP3 MSTORE PUSH1 0x9 SWAP1 DUP3 ADD MSTORE PUSH9 0x2737BA1037BBB732B9 PUSH1 0xB9 SHL PUSH1 0x40 DUP3 ADD MSTORE PUSH1 0x60 ADD SWAP1 JUMP JUMPDEST PUSH4 0x4E487B71 PUSH1 0xE0 SHL PUSH1 0x0 MSTORE PUSH1 0x11 PUSH1 0x4 MSTORE PUSH1 0x24 PUSH1 0x0 REVERT JUMPDEST PUSH1 0x0 PUSH1 0x1 DUP3 ADD PUSH2 0x2788 JUMPI PUSH2 0x2788 PUSH2 0x2760 JUMP JUMPDEST POP PUSH1 0x1 ADD SWAP1 JUMP JUMPDEST PUSH1 0x1 DUP2 DUP2 SHR SWAP1 DUP3 AND DUP1 PUSH2 0x27A3 JUMPI PUSH1 0x7F DUP3 AND SWAP2 POP JUMPDEST PUSH1 0x20 DUP3 LT DUP2 SUB PUSH2 0x27C3 JUMPI PUSH4 0x4E487B71 PUSH1 0xE0 SHL PUSH1 0x0 MSTORE PUSH1 0x22 PUSH1 0x4 MSTORE PUSH1 0x24 PUSH1 0x0 REVERT JUMPDEST POP SWAP2 SWAP1 POP JUMP JUMPDEST PUSH4 0x4E487B71 PUSH1 0xE0 SHL PUSH1 0x0 MSTORE PUSH1 0x32 PUSH1 0x4 MSTORE PUSH1 0x24 PUSH1 0x0 REVERT JUMPDEST DUP1 DUP3 MUL DUP2 ISZERO DUP3 DUP3 DIV DUP5 EQ OR PUSH2 0x874 JUMPI PUSH2 0x874 PUSH2 0x2760 JUMP JUMPDEST PUSH1 0x0 DUP3 PUSH2 0x2813 JUMPI PUSH4 0x4E487B71 PUSH1 0xE0 SHL PUSH1 0x0 MSTORE PUSH1 0x12 PUSH1 0x4 MSTORE PUSH1 0x24 PUSH1 0x0 REVERT JUMPDEST POP DIV SWAP1 JUMP JUMPDEST DUP2 DUP2 SUB DUP2 DUP2 GT ISZERO PUSH2 0x874 JUMPI PUSH2 0x874 PUSH2 0x2760 JUMP JUMPDEST DUP1 DUP3 ADD DUP1 DUP3 GT ISZERO PUSH2 0x874 JUMPI PUSH2 0x874 PUSH2 0x2760 JUMP JUMPDEST PUSH1 0x1F DUP3 GT ISZERO PUSH2 0xD1F JUMPI PUSH1 0x0 DUP2 DUP2 MSTORE PUSH1 0x20 DUP2 KECCAK256 PUSH1 0x1F DUP6 ADD PUSH1 0x5 SHR DUP2 ADD PUSH1 0x20 DUP7 LT ISZERO PUSH2 0x2865 JUMPI POP DUP1 JUMPDEST PUSH1 0x1F DUP6 ADD PUSH1 0x5 SHR DUP3 ADD SWAP2 POP JUMPDEST DUP2 DUP2 LT ISZERO PUSH2 0x1E14 JUMPI DUP3 DUP2 SSTORE PUSH1 0x1 ADD PUSH2 0x2871 JUMP JUMPDEST DUP2 MLOAD PUSH8 0xFFFFFFFFFFFFFFFF DUP2 GT ISZERO PUSH2 0x289E JUMPI PUSH2 0x289E PUSH2 0x249B JUMP JUMPDEST PUSH2 0x28B2 DUP2 PUSH2 0x28AC DUP5 SLOAD PUSH2 0x278F JUMP JUMPDEST DUP5 PUSH2 0x283E JUMP JUMPDEST PUSH1 0x20 DUP1 PUSH1 0x1F DUP4 GT PUSH1 0x1 DUP2 EQ PUSH2 0x28E7 JUMPI PUSH1 0x0 DUP5 ISZERO PUSH2 0x28CF JUMPI POP DUP6 DUP4 ADD MLOAD JUMPDEST PUSH1 0x0 NOT PUSH1 0x3 DUP7 SWAP1 SHL SHR NOT AND PUSH1 0x1 DUP6 SWAP1 SHL OR DUP6 SSTORE PUSH2 0x1E14 JUMP JUMPDEST PUSH1 0x0 DUP6 DUP2 MSTORE PUSH1 0x20 DUP2 KECCAK256 PUSH1 0x1F NOT DUP7 AND SWAP2 JUMPDEST DUP3 DUP2 LT ISZERO PUSH2 0x2916 JUMPI DUP9 DUP7 ADD MLOAD DUP3 SSTORE SWAP5 DUP5 ADD SWAP5 PUSH1 0x1 SWAP1 SWAP2 ADD SWAP1 DUP5 ADD PUSH2 0x28F7 JUMP JUMPDEST POP DUP6 DUP3 LT ISZERO PUSH2 0x2934 JUMPI DUP8 DUP6 ADD MLOAD PUSH1 0x0 NOT PUSH1 0x3 DUP9 SWAP1 SHL PUSH1 0xF8 AND SHR NOT AND DUP2 SSTORE JUMPDEST POP POP POP POP POP PUSH1 0x1 SWAP1 DUP2 SHL ADD SWAP1 SSTORE POP JUMP JUMPDEST PUSH1 0x40 DUP2 MSTORE PUSH1 0x0 PUSH2 0x2957 PUSH1 0x40 DUP4 ADD DUP6 PUSH2 0x224E JUMP JUMPDEST SWAP1 POP PUSH2 0x1724 PUSH1 0x20 DUP4 ADD DUP5 PUSH2 0x239D JUMP JUMPDEST PUSH1 0x0 DUP4 MLOAD PUSH2 0x2978 DUP2 DUP5 PUSH1 0x20 DUP9 ADD PUSH2 0x222A JUMP JUMPDEST DUP4 MLOAD SWAP1 DUP4 ADD SWAP1 PUSH2 0x298C DUP2 DUP4 PUSH1 0x20 DUP9 ADD PUSH2 0x222A JUMP JUMPDEST ADD SWAP5 SWAP4 POP POP POP POP JUMP JUMPDEST PUSH1 0x1 PUSH1 0x1 PUSH1 0xA0 SHL SUB DUP6 DUP2 AND DUP3 MSTORE DUP5 AND PUSH1 0x20 DUP3 ADD MSTORE PUSH1 0x40 DUP2 ADD DUP4 SWAP1 MSTORE PUSH1 0x80 PUSH1 0x60 DUP3 ADD DUP2 SWAP1 MSTORE PUSH1 0x0 SWAP1 PUSH2 0x29C8 SWAP1 DUP4 ADD DUP5 PUSH2 0x224E JUMP JUMPDEST SWAP7 SWAP6 POP POP POP POP POP POP JUMP JUMPDEST PUSH1 0x0 PUSH1 0x20 DUP3 DUP5 SUB SLT ISZERO PUSH2 0x29E4 JUMPI PUSH1 0x0 DUP1 REVERT JUMPDEST DUP2 MLOAD PUSH2 0x1724 DUP2 PUSH2 0x21F7 JUMP INVALID LOG2 PUSH5 0x6970667358 0x22 SLT KECCAK256 DUP7 SWAP14 SELFBALANCE 0xD2 DUP1 0xAA 0xC1 0xDC 0xB9 SWAP1 PUSH8 0x1D84DBE847037AA4 0xCF 0xE1 PUSH31 0x22966947290AF08C47D864736F6C6343000814003300000000000000000000 "},"methodIdentifiers":{"FEE_DENOMINATOR()":"d73792a9","MAX_ROYALTY()":"d83e5f4d","approve(address,uint256)":"095ea7b3","balanceOf(address)":"70a08231","behaviorLicensees(uint256,uint256)":"d48c5aa2","behaviorStats(uint256)":"20a8879b","behaviors(uint256)":"385429f4","buyBehavior(uint256)":"53142c8a","creatorBehaviors(address,uint256)":"89f868b5","getApproved(uint256)":"081812fc","getBehavior(uint256)":"f43d2051","getBehaviorStats(uint256)":"11b36c61","getCreatorBehaviors(address)":"11266fa4","hasLicense(uint256,address)":"4b997fa2","isApprovedForAll(address,address)":"e985e9c5","licenseBehavior(uint256)":"8cda9cd8","listBehavior(uint256,uint256)":"048efc28","listings(uint256)":"de74e57b","mintBehavior(string,uint8,bytes32,uint256,uint256)":"782ee686","name()":"06fdde03","owner()":"8da5cb5b","ownerOf(uint256)":"6352211e","platformFee()":"26232a2e","recordExecution(uint256,bool)":"6e06bbe8","renounceOwnership()":"715018a6","safeTransferFrom(address,address,uint256)":"42842e0e","safeTransferFrom(address,address,uint256,bytes)":"b88d4fde","setApprovalForAll(address,bool)":"a22cb465","supportsInterface(bytes4)":"01ffc9a7","symbol()":"95d89b41","tokenURI(uint256)":"c87b56dd","transferFrom(address,address,uint256)":"23b872dd","transferOwnership(address)":"f2fde38b","updateBehavior(uint256,bytes32)":"001f9d19","withdrawFees()":"476343ee"}}}}}