{"contracts/core/EntityRegistry.sol":{"EntityRegistry":{"abi":[{"inputs":[],"stateMutability":"nonpayable","type":"constructor"},{"inputs":[{"internalType":"address","name":"owner","type":"address"}],"name":"OwnableInvalidOwner","type":"error"},{"inputs":[{"internalType":"address","name":"account","type":"address"}],"name":"OwnableUnauthorizedAccount","type":"error"},{"anonymous":false,"inputs":[{"indexed":true,"internalType":"uint256","name":"entityId","type":"uint256"}],"name":"EntityDeactivated","type":"event"},{"anonymous":false,"inputs":[{"indexed":true,"internalType":"uint256","name":"entityId","type":"uint256"},{"indexed":true,"internalType":"address","name":"nftContract","type":"address"},{"indexed":true,"internalType":"uint256","name":"tokenId","type":"uint256"},{"indexed":false,"internalType":"address","name":"owner","type":"address"}],"name":"EntityRegistered","type":"event"},{"anonymous":false,"inputs":[{"indexed":true,"internalType":"uint256","name":"entityId","type":"uint256"},{"indexed":true,"internalType":"address","name":"from","type":"address"},{"indexed":true,"internalType":"address","name":"to","type":"address"}],"name":"EntityTransferred","type":"event"},{"anonymous":false,"inputs":[{"indexed":true,"internalType":"address","name":"previousOwner","type":"address"},{"indexed":true,"internalType":"address","name":"newOwner","type":"address"}],"name":"OwnershipTransferred","type":"event"},{"inputs":[{"internalType":"uint256","name":"entityId","type":"uint256"}],"name":"deactivateEntity","outputs":[],"stateMutability":"nonpayable","type":"function"},{"inputs":[{"internalType":"uint256","name":"entityId","type":"uint256"}],"name":"getEntity","outputs":[{"components":[{"internalType":"address","name":"nftContract","type":"address"},{"internalType":"uint256","name":"tokenId","type":"uint256"},{"internalType":"address","name":"owner","type":"address"},{"internalType":"string","name":"entityType","type":"string"},{"internalType":"bool","name":"active","type":"bool"},{"internalType":"uint256","name":"registeredAt","type":"uint256"},{"internalType":"bytes32","name":"dslHash","type":"bytes32"}],"internalType":"struct EntityRegistry.RegistryEntry","name":"","type":"tuple"}],"stateMutability":"view","type":"function"},{"inputs":[{"internalType":"address","name":"nftContract","type":"address"},{"internalType":"uint256","name":"tokenId","type":"uint256"}],"name":"getEntityByNFT","outputs":[{"internalType":"uint256","name":"","type":"uint256"}],"stateMutability":"view","type":"function"},{"inputs":[{"internalType":"address","name":"owner","type":"address"}],"name":"getOwnerEntities","outputs":[{"internalType":"uint256[]","name":"","type":"uint256[]"}],"stateMutability":"view","type":"function"},{"inputs":[{"internalType":"uint256","name":"entityId","type":"uint256"}],"name":"isEntityActive","outputs":[{"internalType":"bool","name":"","type":"bool"}],"stateMutability":"view","type":"function"},{"inputs":[{"internalType":"address","name":"","type":"address"},{"internalType":"uint256","name":"","type":"uint256"}],"name":"nftToEntityId","outputs":[{"internalType":"uint256","name":"","type":"uint256"}],"stateMutability":"view","type":"function"},{"inputs":[],"name":"owner","outputs":[{"internalType":"address","name":"","type":"address"}],"stateMutability":"view","type":"function"},{"inputs":[{"internalType":"address","name":"","type":"address"},{"internalType":"uint256","name":"","type":"uint256"}],"name":"ownerEntities","outputs":[{"internalType":"uint256","name":"","type":"uint256"}],"stateMutability":"view","type":"function"},{"inputs":[{"internalType":"address","name":"nftContract","type":"address"},{"internalType":"uint256","name":"tokenId","type":"uint256"},{"internalType":"address","name":"owner","type":"address"},{"internalType":"string","name":"entityType","type":"string"},{"internalType":"bytes32","name":"dslHash","type":"bytes32"}],"name":"registerEntity","outputs":[{"internalType":"uint256","name":"","type":"uint256"}],"stateMutability":"nonpayable","type":"function"},{"inputs":[{"internalType":"uint256","name":"","type":"uint256"}],"name":"registry","outputs":[{"internalType":"address","name":"nftContract","type":"address"},{"internalType":"uint256","name":"tokenId","type":"uint256"},{"internalType":"address","name":"owner","type":"address"},{"internalType":"string","name":"entityType","type":"string"},{"internalType":"bool","name":"active","type":"bool"},{"internalType":"uint256","name":"registeredAt","type":"uint256"},{"internalType":"bytes32","name":"dslHash","type":"bytes32"}],"stateMutability":"view","type":"function"},{"inputs":[],"name":"renounceOwnership","outputs":[],"stateMutability":"nonpayable","type":"function"},{"inputs":[],"name":"totalEntities","outputs":[{"internalType":"uint256","name":"","type":"uint256"}],"stateMutability":"view","type":"function"},{"inputs":[{"internalType":"uint256","name":"entityId","type":"uint256"},{"internalType":"address","name":"newOwner","type":"address"}],"name":"transferEntity","outputs":[],"stateMutability":"nonpayable","type":"function"},{"inputs":[{"internalType":"address","name":"newOwner","type":"address"}],"name":"transferOwnership","outputs":[],"stateMutability":"nonpayable","type":"function"}],"evm":{"bytecode":{"linkReferences":{},"object":"6080604052600160045534801561001557600080fd5b50338061003c57604051631e4fbdf760e01b81526000600482015260240160405180910390fd5b6100458161004b565b5061009b565b600080546001600160a01b038381166001600160a01b0319831681178455604051919092169283917f8be0079c531659141344cd1fd0a4f28419497f9722a3daafe3b4186f6b6457e09190a35050565b610ecc806100aa6000396000f3fe608060405234801561001057600080fd5b50600436106100ea5760003560e01c8063a363e1b41161008c578063b3a2784211610066578063b3a2784214610237578063cc2153b614610257578063ef2bdabb1461026a578063f2fde38b1461027d57600080fd5b8063a363e1b4146101c3578063a517069a146101d6578063a82ab5c71461020157600080fd5b80635893253c116100c85780635893253c1461016f5780635cd8b15e14610195578063715018a61461019e5780638da5cb5b146101a857600080fd5b806311a85a7c146100ef578063178c340c146101185780631901a5cd14610139575b600080fd5b6101026100fd366004610a4c565b610290565b60405161010f9190610a6e565b60405180910390f35b61012b610126366004610ab2565b6102fc565b60405190815260200161010f565b61012b610147366004610ab2565b6001600160a01b03919091166000908152600260209081526040808320938352929052205490565b61018261017d366004610adc565b61032d565b60405161010f9796959493929190610b3b565b61012b60055481565b6101a6610406565b005b6000546040516001600160a01b03909116815260200161010f565b6101a66101d1366004610adc565b61041a565b61012b6101e4366004610ab2565b600260209081526000928352604080842090915290825290205481565b61022761020f366004610adc565b60009081526001602052604090206004015460ff1690565b604051901515815260200161010f565b61024a610245366004610adc565b610525565b60405161010f9190610b8d565b61012b610265366004610c16565b610661565b6101a6610278366004610cfa565b610858565b6101a661028b366004610a4c565b610975565b6001600160a01b0381166000908152600360209081526040918290208054835181840281018401909452808452606093928301828280156102f057602002820191906000526020600020905b8154815260200190600101908083116102dc575b50505050509050919050565b6003602052816000526040600020818154811061031857600080fd5b90600052602060002001600091509150505481565b600160208190526000918252604090912080549181015460028201546003830180546001600160a01b03958616959394929093169261036b90610d26565b80601f016020809104026020016040519081016040528092919081815260200182805461039790610d26565b80156103e45780601f106103b9576101008083540402835291602001916103e4565b820191906000526020600020905b8154815290600101906020018083116103c757829003601f168201915b5050505060048301546005840154600690940154929360ff9091169290915087565b61040e6109b3565b61041860006109e0565b565b6000818152600160205260409020600201546001600160a01b031633148061044c57506000546001600160a01b031633145b61048e5760405162461bcd60e51b815260206004820152600e60248201526d139bdd08185d5d1a1bdc9a5e995960921b60448201526064015b60405180910390fd5b60008181526001602052604090206004015460ff166104e25760405162461bcd60e51b815260206004820152601060248201526f416c726561647920696e61637469766560801b6044820152606401610485565b600081815260016020526040808220600401805460ff191690555182917fb860ced9e0d4468eb4085b31d7c8015aaadc60c7a0df74e93d6617087a1043aa91a250565b6040805160e0810182526000808252602082018190529181018290526060808201526080810182905260a0810182905260c0810191909152600082815260016020818152604092839020835160e08101855281546001600160a01b03908116825293820154928101929092526002810154909216928101929092526003810180546060840191906105b590610d26565b80601f01602080910402602001604051908101604052809291908181526020018280546105e190610d26565b801561062e5780601f106106035761010080835404028352916020019161062e565b820191906000526020600020905b81548152906001019060200180831161061157829003601f168201915b5050509183525050600482015460ff16151560208201526005820154604082015260069091015460609091015292915050565b6001600160a01b0385166000908152600260209081526040808320878452909152812054156106d25760405162461bcd60e51b815260206004820152601960248201527f456e7469747920616c72656164792072656769737465726564000000000000006044820152606401610485565b60048054600091826106e383610d60565b909155506040805160e0810182526001600160a01b03808b16825260208083018b81528a8316848601908152606085018b81526001608087018190524260a088015260c087018c905260008981529481905296909320855181549086166001600160a01b031991821617825592519681019690965551600286018054919094169116179091555192935091600382019061077d9082610dd6565b50608082015160048201805460ff191691151591909117905560a082015160058083019190915560c0909201516006909101556001600160a01b0388811660009081526002602090815260408083208b8452825280832086905592891682526003815291812080546001810182559082529181209091018390558154919061080483610d60565b90915550506040516001600160a01b03868116825287919089169083907fd738944614bfeac1027cb1befbedc469ded0ac03ebe88b95b5dde8dcbdcacd169060200160405180910390a49695505050505050565b6000828152600160205260409020600201546001600160a01b031633146108ad5760405162461bcd60e51b81526020600482015260096024820152682737ba1037bbb732b960b91b6044820152606401610485565b6001600160a01b0381166108f55760405162461bcd60e51b815260206004820152600f60248201526e496e76616c6964206164647265737360881b6044820152606401610485565b600082815260016020818152604080842060020180546001600160a01b038781166001600160a01b0319831681179093558287526003855283872080549687018155875293862090940187905590519190921692839186917f29c08117acc64aee0c0c132434d060a886d88853075635c91797cdf8ab3d744b91a4505050565b61097d6109b3565b6001600160a01b0381166109a757604051631e4fbdf760e01b815260006004820152602401610485565b6109b0816109e0565b50565b6000546001600160a01b031633146104185760405163118cdaa760e01b8152336004820152602401610485565b600080546001600160a01b038381166001600160a01b0319831681178455604051919092169283917f8be0079c531659141344cd1fd0a4f28419497f9722a3daafe3b4186f6b6457e09190a35050565b80356001600160a01b0381168114610a4757600080fd5b919050565b600060208284031215610a5e57600080fd5b610a6782610a30565b9392505050565b6020808252825182820181905260009190848201906040850190845b81811015610aa657835183529284019291840191600101610a8a565b50909695505050505050565b60008060408385031215610ac557600080fd5b610ace83610a30565b946020939093013593505050565b600060208284031215610aee57600080fd5b5035919050565b6000815180845260005b81811015610b1b57602081850181015186830182015201610aff565b506000602082860101526020601f19601f83011685010191505092915050565b6001600160a01b038881168252602082018890528616604082015260e060608201819052600090610b6e90830187610af5565b94151560808301525060a081019290925260c090910152949350505050565b60208152600060018060a01b038084511660208401526020840151604084015280604085015116606084015250606083015160e06080840152610bd4610100840182610af5565b90506080840151151560a084015260a084015160c084015260c084015160e08401528091505092915050565b634e487b7160e01b600052604160045260246000fd5b600080600080600060a08688031215610c2e57600080fd5b610c3786610a30565b945060208601359350610c4c60408701610a30565b9250606086013567ffffffffffffffff80821115610c6957600080fd5b818801915088601f830112610c7d57600080fd5b813581811115610c8f57610c8f610c00565b604051601f8201601f19908116603f01168101908382118183101715610cb757610cb7610c00565b816040528281528b6020848701011115610cd057600080fd5b82602086016020830137600092810160200192909252509699959850939660800135949350505050565b60008060408385031215610d0d57600080fd5b82359150610d1d60208401610a30565b90509250929050565b600181811c90821680610d3a57607f821691505b602082108103610d5a57634e487b7160e01b600052602260045260246000fd5b50919050565b600060018201610d8057634e487b7160e01b600052601160045260246000fd5b5060010190565b601f821115610dd157600081815260208120601f850160051c81016020861015610dae5750805b601f850160051c820191505b81811015610dcd57828155600101610dba565b5050505b505050565b815167ffffffffffffffff811115610df057610df0610c00565b610e0481610dfe8454610d26565b84610d87565b602080601f831160018114610e395760008415610e215750858301515b600019600386901b1c1916600185901b178555610dcd565b600085815260208120601f198616915b82811015610e6857888601518255948401946001909101908401610e49565b5085821015610e865787850151600019600388901b60f8161c191681555b5050505050600190811b0190555056fea26469706673582212202669a92d00897d92a82230c8272898340790d1b2faa25435d6e6fb61785f8b2c64736f6c63430008140033","opcodes":"PUSH1 0x80 PUSH1 0x40 MSTORE PUSH1 0x1 PUSH1 0x4 SSTORE CALLVALUE DUP1 ISZERO PUSH2 0x15 JUMPI PUSH1 0x0 DUP1 REVERT JUMPDEST POP CALLER DUP1 PUSH2 0x3C JUMPI PUSH1 0x40 MLOAD PUSH4 0x1E4FBDF7 PUSH1 0xE0 SHL DUP2 MSTORE PUSH1 0x0 PUSH1 0x4 DUP3 ADD MSTORE PUSH1 0x24 ADD PUSH1 0x40 MLOAD DUP1 SWAP2 SUB SWAP1 REVERT JUMPDEST PUSH2 0x45 DUP2 PUSH2 0x4B JUMP JUMPDEST POP PUSH2 0x9B JUMP JUMPDEST PUSH1 0x0 DUP1 SLOAD PUSH1 0x1 PUSH1 0x1 PUSH1 0xA0 SHL SUB DUP4 DUP2 AND PUSH1 0x1 PUSH1 0x1 PUSH1 0xA0 SHL SUB NOT DUP4 AND DUP2 OR DUP5 SSTORE PUSH1 0x40 MLOAD SWAP2 SWAP1 SWAP3 AND SWAP3 DUP4 SWAP2 PUSH32 0x8BE0079C531659141344CD1FD0A4F28419497F9722A3DAAFE3B4186F6B6457E0 SWAP2 SWAP1 LOG3 POP POP JUMP JUMPDEST PUSH2 0xECC DUP1 PUSH2 0xAA PUSH1 0x0 CODECOPY PUSH1 0x0 RETURN INVALID PUSH1 0x80 PUSH1 0x40 MSTORE CALLVALUE DUP1 ISZERO PUSH2 0x10 JUMPI PUSH1 0x0 DUP1 REVERT JUMPDEST POP PUSH1 0x4 CALLDATASIZE LT PUSH2 0xEA JUMPI PUSH1 0x0 CALLDATALOAD PUSH1 0xE0 SHR DUP1 PUSH4 0xA363E1B4 GT PUSH2 0x8C JUMPI DUP1 PUSH4 0xB3A27842 GT PUSH2 0x66 JUMPI DUP1 PUSH4 0xB3A27842 EQ PUSH2 0x237 JUMPI DUP1 PUSH4 0xCC2153B6 EQ PUSH2 0x257 JUMPI DUP1 PUSH4 0xEF2BDABB EQ PUSH2 0x26A JUMPI DUP1 PUSH4 0xF2FDE38B EQ PUSH2 0x27D JUMPI PUSH1 0x0 DUP1 REVERT JUMPDEST DUP1 PUSH4 0xA363E1B4 EQ PUSH2 0x1C3 JUMPI DUP1 PUSH4 0xA517069A EQ PUSH2 0x1D6 JUMPI DUP1 PUSH4 0xA82AB5C7 EQ PUSH2 0x201 JUMPI PUSH1 0x0 DUP1 REVERT JUMPDEST DUP1 PUSH4 0x5893253C GT PUSH2 0xC8 JUMPI DUP1 PUSH4 0x5893253C EQ PUSH2 0x16F JUMPI DUP1 PUSH4 0x5CD8B15E EQ PUSH2 0x195 JUMPI DUP1 PUSH4 0x715018A6 EQ PUSH2 0x19E JUMPI DUP1 PUSH4 0x8DA5CB5B EQ PUSH2 0x1A8 JUMPI PUSH1 0x0 DUP1 REVERT JUMPDEST DUP1 PUSH4 0x11A85A7C EQ PUSH2 0xEF JUMPI DUP1 PUSH4 0x178C340C EQ PUSH2 0x118 JUMPI DUP1 PUSH4 0x1901A5CD EQ PUSH2 0x139 JUMPI JUMPDEST PUSH1 0x0 DUP1 REVERT JUMPDEST PUSH2 0x102 PUSH2 0xFD CALLDATASIZE PUSH1 0x4 PUSH2 0xA4C JUMP JUMPDEST PUSH2 0x290 JUMP JUMPDEST PUSH1 0x40 MLOAD PUSH2 0x10F SWAP2 SWAP1 PUSH2 0xA6E JUMP JUMPDEST PUSH1 0x40 MLOAD DUP1 SWAP2 SUB SWAP1 RETURN JUMPDEST PUSH2 0x12B PUSH2 0x126 CALLDATASIZE PUSH1 0x4 PUSH2 0xAB2 JUMP JUMPDEST PUSH2 0x2FC JUMP JUMPDEST PUSH1 0x40 MLOAD SWAP1 DUP2 MSTORE PUSH1 0x20 ADD PUSH2 0x10F JUMP JUMPDEST PUSH2 0x12B PUSH2 0x147 CALLDATASIZE PUSH1 0x4 PUSH2 0xAB2 JUMP JUMPDEST PUSH1 0x1 PUSH1 0x1 PUSH1 0xA0 SHL SUB SWAP2 SWAP1 SWAP2 AND PUSH1 0x0 SWAP1 DUP2 MSTORE PUSH1 0x2 PUSH1 0x20 SWAP1 DUP2 MSTORE PUSH1 0x40 DUP1 DUP4 KECCAK256 SWAP4 DUP4 MSTORE SWAP3 SWAP1 MSTORE KECCAK256 SLOAD SWAP1 JUMP JUMPDEST PUSH2 0x182 PUSH2 0x17D CALLDATASIZE PUSH1 0x4 PUSH2 0xADC JUMP JUMPDEST PUSH2 0x32D JUMP JUMPDEST PUSH1 0x40 MLOAD PUSH2 0x10F SWAP8 SWAP7 SWAP6 SWAP5 SWAP4 SWAP3 SWAP2 SWAP1 PUSH2 0xB3B JUMP JUMPDEST PUSH2 0x12B PUSH1 0x5 SLOAD DUP2 JUMP JUMPDEST PUSH2 0x1A6 PUSH2 0x406 JUMP JUMPDEST STOP JUMPDEST PUSH1 0x0 SLOAD PUSH1 0x40 MLOAD PUSH1 0x1 PUSH1 0x1 PUSH1 0xA0 SHL SUB SWAP1 SWAP2 AND DUP2 MSTORE PUSH1 0x20 ADD PUSH2 0x10F JUMP JUMPDEST PUSH2 0x1A6 PUSH2 0x1D1 CALLDATASIZE PUSH1 0x4 PUSH2 0xADC JUMP JUMPDEST PUSH2 0x41A JUMP JUMPDEST PUSH2 0x12B PUSH2 0x1E4 CALLDATASIZE PUSH1 0x4 PUSH2 0xAB2 JUMP JUMPDEST PUSH1 0x2 PUSH1 0x20 SWAP1 DUP2 MSTORE PUSH1 0x0 SWAP3 DUP4 MSTORE PUSH1 0x40 DUP1 DUP5 KECCAK256 SWAP1 SWAP2 MSTORE SWAP1 DUP3 MSTORE SWAP1 KECCAK256 SLOAD DUP2 JUMP JUMPDEST PUSH2 0x227 PUSH2 0x20F CALLDATASIZE PUSH1 0x4 PUSH2 0xADC JUMP JUMPDEST PUSH1 0x0 SWAP1 DUP2 MSTORE PUSH1 0x1 PUSH1 0x20 MSTORE PUSH1 0x40 SWAP1 KECCAK256 PUSH1 0x4 ADD SLOAD PUSH1 0xFF AND SWAP1 JUMP JUMPDEST PUSH1 0x40 MLOAD SWAP1 ISZERO ISZERO DUP2 MSTORE PUSH1 0x20 ADD PUSH2 0x10F JUMP JUMPDEST PUSH2 0x24A PUSH2 0x245 CALLDATASIZE PUSH1 0x4 PUSH2 0xADC JUMP JUMPDEST PUSH2 0x525 JUMP JUMPDEST PUSH1 0x40 MLOAD PUSH2 0x10F SWAP2 SWAP1 PUSH2 0xB8D JUMP JUMPDEST PUSH2 0x12B PUSH2 0x265 CALLDATASIZE PUSH1 0x4 PUSH2 0xC16 JUMP JUMPDEST PUSH2 0x661 JUMP JUMPDEST PUSH2 0x1A6 PUSH2 0x278 CALLDATASIZE PUSH1 0x4 PUSH2 0xCFA JUMP JUMPDEST PUSH2 0x858 JUMP JUMPDEST PUSH2 0x1A6 PUSH2 0x28B CALLDATASIZE PUSH1 0x4 PUSH2 0xA4C JUMP JUMPDEST PUSH2 0x975 JUMP JUMPDEST PUSH1 0x1 PUSH1 0x1 PUSH1 0xA0 SHL SUB DUP2 AND PUSH1 0x0 SWAP1 DUP2 MSTORE PUSH1 0x3 PUSH1 0x20 SWAP1 DUP2 MSTORE PUSH1 0x40 SWAP2 DUP3 SWAP1 KECCAK256 DUP1 SLOAD DUP4 MLOAD DUP2 DUP5 MUL DUP2 ADD DUP5 ADD SWAP1 SWAP5 MSTORE DUP1 DUP5 MSTORE PUSH1 0x60 SWAP4 SWAP3 DUP4 ADD DUP3 DUP3 DUP1 ISZERO PUSH2 0x2F0 JUMPI PUSH1 0x20 MUL DUP3 ADD SWAP2 SWAP1 PUSH1 0x0 MSTORE PUSH1 0x20 PUSH1 0x0 KECCAK256 SWAP1 JUMPDEST DUP2 SLOAD DUP2 MSTORE PUSH1 0x20 ADD SWAP1 PUSH1 0x1 ADD SWAP1 DUP1 DUP4 GT PUSH2 0x2DC JUMPI JUMPDEST POP POP POP POP POP SWAP1 POP SWAP2 SWAP1 POP JUMP JUMPDEST PUSH1 0x3 PUSH1 0x20 MSTORE DUP2 PUSH1 0x0 MSTORE PUSH1 0x40 PUSH1 0x0 KECCAK256 DUP2 DUP2 SLOAD DUP2 LT PUSH2 0x318 JUMPI PUSH1 0x0 DUP1 REVERT JUMPDEST SWAP1 PUSH1 0x0 MSTORE PUSH1 0x20 PUSH1 0x0 KECCAK256 ADD PUSH1 0x0 SWAP2 POP SWAP2 POP POP SLOAD DUP2 JUMP JUMPDEST PUSH1 0x1 PUSH1 0x20 DUP2 SWAP1 MSTORE PUSH1 0x0 SWAP2 DUP3 MSTORE PUSH1 0x40 SWAP1 SWAP2 KECCAK256 DUP1 SLOAD SWAP2 DUP2 ADD SLOAD PUSH1 0x2 DUP3 ADD SLOAD PUSH1 0x3 DUP4 ADD DUP1 SLOAD PUSH1 0x1 PUSH1 0x1 PUSH1 0xA0 SHL SUB SWAP6 DUP7 AND SWAP6 SWAP4 SWAP5 SWAP3 SWAP1 SWAP4 AND SWAP3 PUSH2 0x36B SWAP1 PUSH2 0xD26 JUMP JUMPDEST DUP1 PUSH1 0x1F ADD PUSH1 0x20 DUP1 SWAP2 DIV MUL PUSH1 0x20 ADD PUSH1 0x40 MLOAD SWAP1 DUP2 ADD PUSH1 0x40 MSTORE DUP1 SWAP3 SWAP2 SWAP1 DUP2 DUP2 MSTORE PUSH1 0x20 ADD DUP3 DUP1 SLOAD PUSH2 0x397 SWAP1 PUSH2 0xD26 JUMP JUMPDEST DUP1 ISZERO PUSH2 0x3E4 JUMPI DUP1 PUSH1 0x1F LT PUSH2 0x3B9 JUMPI PUSH2 0x100 DUP1 DUP4 SLOAD DIV MUL DUP4 MSTORE SWAP2 PUSH1 0x20 ADD SWAP2 PUSH2 0x3E4 JUMP JUMPDEST DUP3 ADD SWAP2 SWAP1 PUSH1 0x0 MSTORE PUSH1 0x20 PUSH1 0x0 KECCAK256 SWAP1 JUMPDEST DUP2 SLOAD DUP2 MSTORE SWAP1 PUSH1 0x1 ADD SWAP1 PUSH1 0x20 ADD DUP1 DUP4 GT PUSH2 0x3C7 JUMPI DUP3 SWAP1 SUB PUSH1 0x1F AND DUP3 ADD SWAP2 JUMPDEST POP POP POP POP PUSH1 0x4 DUP4 ADD SLOAD PUSH1 0x5 DUP5 ADD SLOAD PUSH1 0x6 SWAP1 SWAP5 ADD SLOAD SWAP3 SWAP4 PUSH1 0xFF SWAP1 SWAP2 AND SWAP3 SWAP1 SWAP2 POP DUP8 JUMP JUMPDEST PUSH2 0x40E PUSH2 0x9B3 JUMP JUMPDEST PUSH2 0x418 PUSH1 0x0 PUSH2 0x9E0 JUMP JUMPDEST JUMP JUMPDEST PUSH1 0x0 DUP2 DUP2 MSTORE PUSH1 0x1 PUSH1 0x20 MSTORE PUSH1 0x40 SWAP1 KECCAK256 PUSH1 0x2 ADD SLOAD PUSH1 0x1 PUSH1 0x1 PUSH1 0xA0 SHL SUB AND CALLER EQ DUP1 PUSH2 0x44C JUMPI POP PUSH1 0x0 SLOAD PUSH1 0x1 PUSH1 0x1 PUSH1 0xA0 SHL SUB AND CALLER EQ JUMPDEST PUSH2 0x48E JUMPI PUSH1 0x40 MLOAD PUSH3 0x461BCD PUSH1 0xE5 SHL DUP2 MSTORE PUSH1 0x20 PUSH1 0x4 DUP3 ADD MSTORE PUSH1 0xE PUSH1 0x24 DUP3 ADD MSTORE PUSH14 0x139BDD08185D5D1A1BDC9A5E9959 PUSH1 0x92 SHL PUSH1 0x44 DUP3 ADD MSTORE PUSH1 0x64 ADD JUMPDEST PUSH1 0x40 MLOAD DUP1 SWAP2 SUB SWAP1 REVERT JUMPDEST PUSH1 0x0 DUP2 DUP2 MSTORE PUSH1 0x1 PUSH1 0x20 MSTORE PUSH1 0x40 SWAP1 KECCAK256 PUSH1 0x4 ADD SLOAD PUSH1 0xFF AND PUSH2 0x4E2 JUMPI PUSH1 0x40 MLOAD PUSH3 0x461BCD PUSH1 0xE5 SHL DUP2 MSTORE PUSH1 0x20 PUSH1 0x4 DUP3 ADD MSTORE PUSH1 0x10 PUSH1 0x24 DUP3 ADD MSTORE PUSH16 0x416C726561647920696E616374697665 PUSH1 0x80 SHL PUSH1 0x44 DUP3 ADD MSTORE PUSH1 0x64 ADD PUSH2 0x485 JUMP JUMPDEST PUSH1 0x0 DUP2 DUP2 MSTORE PUSH1 0x1 PUSH1 0x20 MSTORE PUSH1 0x40 DUP1 DUP3 KECCAK256 PUSH1 0x4 ADD DUP1 SLOAD PUSH1 0xFF NOT AND SWAP1 SSTORE MLOAD DUP3 SWAP2 PUSH32 0xB860CED9E0D4468EB4085B31D7C8015AAADC60C7A0DF74E93D6617087A1043AA SWAP2 LOG2 POP JUMP JUMPDEST PUSH1 0x40 DUP1 MLOAD PUSH1 0xE0 DUP2 ADD DUP3 MSTORE PUSH1 0x0 DUP1 DUP3 MSTORE PUSH1 0x20 DUP3 ADD DUP2 SWAP1 MSTORE SWAP2 DUP2 ADD DUP3 SWAP1 MSTORE PUSH1 0x60 DUP1 DUP3 ADD MSTORE PUSH1 0x80 DUP2 ADD DUP3 SWAP1 MSTORE PUSH1 0xA0 DUP2 ADD DUP3 SWAP1 MSTORE PUSH1 0xC0 DUP2 ADD SWAP2 SWAP1 SWAP2 MSTORE PUSH1 0x0 DUP3 DUP2 MSTORE PUSH1 0x1 PUSH1 0x20 DUP2 DUP2 MSTORE PUSH1 0x40 SWAP3 DUP4 SWAP1 KECCAK256 DUP4 MLOAD PUSH1 0xE0 DUP2 ADD DUP6 MSTORE DUP2 SLOAD PUSH1 0x1 PUSH1 0x1 PUSH1 0xA0 SHL SUB SWAP1 DUP2 AND DUP3 MSTORE SWAP4 DUP3 ADD SLOAD SWAP3 DUP2 ADD SWAP3 SWAP1 SWAP3 MSTORE PUSH1 0x2 DUP2 ADD SLOAD SWAP1 SWAP3 AND SWAP3 DUP2 ADD SWAP3 SWAP1 SWAP3 MSTORE PUSH1 0x3 DUP2 ADD DUP1 SLOAD PUSH1 0x60 DUP5 ADD SWAP2 SWAP1 PUSH2 0x5B5 SWAP1 PUSH2 0xD26 JUMP JUMPDEST DUP1 PUSH1 0x1F ADD PUSH1 0x20 DUP1 SWAP2 DIV MUL PUSH1 0x20 ADD PUSH1 0x40 MLOAD SWAP1 DUP2 ADD PUSH1 0x40 MSTORE DUP1 SWAP3 SWAP2 SWAP1 DUP2 DUP2 MSTORE PUSH1 0x20 ADD DUP3 DUP1 SLOAD PUSH2 0x5E1 SWAP1 PUSH2 0xD26 JUMP JUMPDEST DUP1 ISZERO PUSH2 0x62E JUMPI DUP1 PUSH1 0x1F LT PUSH2 0x603 JUMPI PUSH2 0x100 DUP1 DUP4 SLOAD DIV MUL DUP4 MSTORE SWAP2 PUSH1 0x20 ADD SWAP2 PUSH2 0x62E JUMP JUMPDEST DUP3 ADD SWAP2 SWAP1 PUSH1 0x0 MSTORE PUSH1 0x20 PUSH1 0x0 KECCAK256 SWAP1 JUMPDEST DUP2 SLOAD DUP2 MSTORE SWAP1 PUSH1 0x1 ADD SWAP1 PUSH1 0x20 ADD DUP1 DUP4 GT PUSH2 0x611 JUMPI DUP3 SWAP1 SUB PUSH1 0x1F AND DUP3 ADD SWAP2 JUMPDEST POP POP POP SWAP2 DUP4 MSTORE POP POP PUSH1 0x4 DUP3 ADD SLOAD PUSH1 0xFF AND ISZERO ISZERO PUSH1 0x20 DUP3 ADD MSTORE PUSH1 0x5 DUP3 ADD SLOAD PUSH1 0x40 DUP3 ADD MSTORE PUSH1 0x6 SWAP1 SWAP2 ADD SLOAD PUSH1 0x60 SWAP1 SWAP2 ADD MSTORE SWAP3 SWAP2 POP POP JUMP JUMPDEST PUSH1 0x1 PUSH1 0x1 PUSH1 0xA0 SHL SUB DUP6 AND PUSH1 0x0 SWAP1 DUP2 MSTORE PUSH1 0x2 PUSH1 0x20 SWAP1 DUP2 MSTORE PUSH1 0x40 DUP1 DUP4 KECCAK256 DUP8 DUP5 MSTORE SWAP1 SWAP2 MSTORE DUP2 KECCAK256 SLOAD ISZERO PUSH2 0x6D2 JUMPI PUSH1 0x40 MLOAD PUSH3 0x461BCD PUSH1 0xE5 SHL DUP2 MSTORE PUSH1 0x20 PUSH1 0x4 DUP3 ADD MSTORE PUSH1 0x19 PUSH1 0x24 DUP3 ADD MSTORE PUSH32 0x456E7469747920616C7265616479207265676973746572656400000000000000 PUSH1 0x44 DUP3 ADD MSTORE PUSH1 0x64 ADD PUSH2 0x485 JUMP JUMPDEST PUSH1 0x4 DUP1 SLOAD PUSH1 0x0 SWAP2 DUP3 PUSH2 0x6E3 DUP4 PUSH2 0xD60 JUMP JUMPDEST SWAP1 SWAP2 SSTORE POP PUSH1 0x40 DUP1 MLOAD PUSH1 0xE0 DUP2 ADD DUP3 MSTORE PUSH1 0x1 PUSH1 0x1 PUSH1 0xA0 SHL SUB DUP1 DUP12 AND DUP3 MSTORE PUSH1 0x20 DUP1 DUP4 ADD DUP12 DUP2 MSTORE DUP11 DUP4 AND DUP5 DUP7 ADD SWAP1 DUP2 MSTORE PUSH1 0x60 DUP6 ADD DUP12 DUP2 MSTORE PUSH1 0x1 PUSH1 0x80 DUP8 ADD DUP2 SWAP1 MSTORE TIMESTAMP PUSH1 0xA0 DUP9 ADD MSTORE PUSH1 0xC0 DUP8 ADD DUP13 SWAP1 MSTORE PUSH1 0x0 DUP10 DUP2 MSTORE SWAP5 DUP2 SWAP1 MSTORE SWAP7 SWAP1 SWAP4 KECCAK256 DUP6 MLOAD DUP2 SLOAD SWAP1 DUP7 AND PUSH1 0x1 PUSH1 0x1 PUSH1 0xA0 SHL SUB NOT SWAP2 DUP3 AND OR DUP3 SSTORE SWAP3 MLOAD SWAP7 DUP2 ADD SWAP7 SWAP1 SWAP7 SSTORE MLOAD PUSH1 0x2 DUP7 ADD DUP1 SLOAD SWAP2 SWAP1 SWAP5 AND SWAP2 AND OR SWAP1 SWAP2 SSTORE MLOAD SWAP3 SWAP4 POP SWAP2 PUSH1 0x3 DUP3 ADD SWAP1 PUSH2 0x77D SWAP1 DUP3 PUSH2 0xDD6 JUMP JUMPDEST POP PUSH1 0x80 DUP3 ADD MLOAD PUSH1 0x4 DUP3 ADD DUP1 SLOAD PUSH1 0xFF NOT AND SWAP2 ISZERO ISZERO SWAP2 SWAP1 SWAP2 OR SWAP1 SSTORE PUSH1 0xA0 DUP3 ADD MLOAD PUSH1 0x5 DUP1 DUP4 ADD SWAP2 SWAP1 SWAP2 SSTORE PUSH1 0xC0 SWAP1 SWAP3 ADD MLOAD PUSH1 0x6 SWAP1 SWAP2 ADD SSTORE PUSH1 0x1 PUSH1 0x1 PUSH1 0xA0 SHL SUB DUP9 DUP2 AND PUSH1 0x0 SWAP1 DUP2 MSTORE PUSH1 0x2 PUSH1 0x20 SWAP1 DUP2 MSTORE PUSH1 0x40 DUP1 DUP4 KECCAK256 DUP12 DUP5 MSTORE DUP3 MSTORE DUP1 DUP4 KECCAK256 DUP7 SWAP1 SSTORE SWAP3 DUP10 AND DUP3 MSTORE PUSH1 0x3 DUP2 MSTORE SWAP2 DUP2 KECCAK256 DUP1 SLOAD PUSH1 0x1 DUP2 ADD DUP3 SSTORE SWAP1 DUP3 MSTORE SWAP2 DUP2 KECCAK256 SWAP1 SWAP2 ADD DUP4 SWAP1 SSTORE DUP2 SLOAD SWAP2 SWAP1 PUSH2 0x804 DUP4 PUSH2 0xD60 JUMP JUMPDEST SWAP1 SWAP2 SSTORE POP POP PUSH1 0x40 MLOAD PUSH1 0x1 PUSH1 0x1 PUSH1 0xA0 SHL SUB DUP7 DUP2 AND DUP3 MSTORE DUP8 SWAP2 SWAP1 DUP10 AND SWAP1 DUP4 SWAP1 PUSH32 0xD738944614BFEAC1027CB1BEFBEDC469DED0AC03EBE88B95B5DDE8DCBDCACD16 SWAP1 PUSH1 0x20 ADD PUSH1 0x40 MLOAD DUP1 SWAP2 SUB SWAP1 LOG4 SWAP7 SWAP6 POP POP POP POP POP POP JUMP JUMPDEST PUSH1 0x0 DUP3 DUP2 MSTORE PUSH1 0x1 PUSH1 0x20 MSTORE PUSH1 0x40 SWAP1 KECCAK256 PUSH1 0x2 ADD SLOAD PUSH1 0x1 PUSH1 0x1 PUSH1 0xA0 SHL SUB AND CALLER EQ PUSH2 0x8AD JUMPI PUSH1 0x40 MLOAD PUSH3 0x461BCD PUSH1 0xE5 SHL DUP2 MSTORE PUSH1 0x20 PUSH1 0x4 DUP3 ADD MSTORE PUSH1 0x9 PUSH1 0x24 DUP3 ADD MSTORE PUSH9 0x2737BA1037BBB732B9 PUSH1 0xB9 SHL PUSH1 0x44 DUP3 ADD MSTORE PUSH1 0x64 ADD PUSH2 0x485 JUMP JUMPDEST PUSH1 0x1 PUSH1 0x1 PUSH1 0xA0 SHL SUB DUP2 AND PUSH2 0x8F5 JUMPI PUSH1 0x40 MLOAD PUSH3 0x461BCD PUSH1 0xE5 SHL DUP2 MSTORE PUSH1 0x20 PUSH1 0x4 DUP3 ADD MSTORE PUSH1 0xF PUSH1 0x24 DUP3 ADD MSTORE PUSH15 0x496E76616C69642061646472657373 PUSH1 0x88 SHL PUSH1 0x44 DUP3 ADD MSTORE PUSH1 0x64 ADD PUSH2 0x485 JUMP JUMPDEST PUSH1 0x0 DUP3 DUP2 MSTORE PUSH1 0x1 PUSH1 0x20 DUP2 DUP2 MSTORE PUSH1 0x40 DUP1 DUP5 KECCAK256 PUSH1 0x2 ADD DUP1 SLOAD PUSH1 0x1 PUSH1 0x1 PUSH1 0xA0 SHL SUB DUP8 DUP2 AND PUSH1 0x1 PUSH1 0x1 PUSH1 0xA0 SHL SUB NOT DUP4 AND DUP2 OR SWAP1 SWAP4 SSTORE DUP3 DUP8 MSTORE PUSH1 0x3 DUP6 MSTORE DUP4 DUP8 KECCAK256 DUP1 SLOAD SWAP7 DUP8 ADD DUP2 SSTORE DUP8 MSTORE SWAP4 DUP7 KECCAK256 SWAP1 SWAP5 ADD DUP8 SWAP1 SSTORE SWAP1 MLOAD SWAP2 SWAP1 SWAP3 AND SWAP3 DUP4 SWAP2 DUP7 SWAP2 PUSH32 0x29C08117ACC64AEE0C0C132434D060A886D88853075635C91797CDF8AB3D744B SWAP2 LOG4 POP POP POP JUMP JUMPDEST PUSH2 0x97D PUSH2 0x9B3 JUMP JUMPDEST PUSH1 0x1 PUSH1 0x1 PUSH1 0xA0 SHL SUB DUP2 AND PUSH2 0x9A7 JUMPI PUSH1 0x40 MLOAD PUSH4 0x1E4FBDF7 PUSH1 0xE0 SHL DUP2 MSTORE PUSH1 0x0 PUSH1 0x4 DUP3 ADD MSTORE PUSH1 0x24 ADD PUSH2 0x485 JUMP JUMPDEST PUSH2 0x9B0 DUP2 PUSH2 0x9E0 JUMP JUMPDEST POP JUMP JUMPDEST PUSH1 0x0 SLOAD PUSH1 0x1 PUSH1 0x1 PUSH1 0xA0 SHL SUB AND CALLER EQ PUSH2 0x418 JUMPI PUSH1 0x40 MLOAD PUSH4 0x118CDAA7 PUSH1 0xE0 SHL DUP2 MSTORE CALLER PUSH1 0x4 DUP3 ADD MSTORE PUSH1 0x24 ADD PUSH2 0x485 JUMP JUMPDEST PUSH1 0x0 DUP1 SLOAD PUSH1 0x1 PUSH1 0x1 PUSH1 0xA0 SHL SUB DUP4 DUP2 AND PUSH1 0x1 PUSH1 0x1 PUSH1 0xA0 SHL SUB NOT DUP4 AND DUP2 OR DUP5 SSTORE PUSH1 0x40 MLOAD SWAP2 SWAP1 SWAP3 AND SWAP3 DUP4 SWAP2 PUSH32 0x8BE0079C531659141344CD1FD0A4F28419497F9722A3DAAFE3B4186F6B6457E0 SWAP2 SWAP1 LOG3 POP POP JUMP JUMPDEST DUP1 CALLDATALOAD PUSH1 0x1 PUSH1 0x1 PUSH1 0xA0 SHL SUB DUP2 AND DUP2 EQ PUSH2 0xA47 JUMPI PUSH1 0x0 DUP1 REVERT JUMPDEST SWAP2 SWAP1 POP JUMP JUMPDEST PUSH1 0x0 PUSH1 0x20 DUP3 DUP5 SUB SLT ISZERO PUSH2 0xA5E JUMPI PUSH1 0x0 DUP1 REVERT JUMPDEST PUSH2 0xA67 DUP3 PUSH2 0xA30 JUMP JUMPDEST SWAP4 SWAP3 POP POP POP JUMP JUMPDEST PUSH1 0x20 DUP1 DUP3 MSTORE DUP3 MLOAD DUP3 DUP3 ADD DUP2 SWAP1 MSTORE PUSH1 0x0 SWAP2 SWAP1 DUP5 DUP3 ADD SWAP1 PUSH1 0x40 DUP6 ADD SWAP1 DUP5 JUMPDEST DUP2 DUP2 LT ISZERO PUSH2 0xAA6 JUMPI DUP4 MLOAD DUP4 MSTORE SWAP3 DUP5 ADD SWAP3 SWAP2 DUP5 ADD SWAP2 PUSH1 0x1 ADD PUSH2 0xA8A JUMP JUMPDEST POP SWAP1 SWAP7 SWAP6 POP POP POP POP POP POP JUMP JUMPDEST PUSH1 0x0 DUP1 PUSH1 0x40 DUP4 DUP6 SUB SLT ISZERO PUSH2 0xAC5 JUMPI PUSH1 0x0 DUP1 REVERT JUMPDEST PUSH2 0xACE DUP4 PUSH2 0xA30 JUMP JUMPDEST SWAP5 PUSH1 0x20 SWAP4 SWAP1 SWAP4 ADD CALLDATALOAD SWAP4 POP POP POP JUMP JUMPDEST PUSH1 0x0 PUSH1 0x20 DUP3 DUP5 SUB SLT ISZERO PUSH2 0xAEE JUMPI PUSH1 0x0 DUP1 REVERT JUMPDEST POP CALLDATALOAD SWAP2 SWAP1 POP JUMP JUMPDEST PUSH1 0x0 DUP2 MLOAD DUP1 DUP5 MSTORE PUSH1 0x0 JUMPDEST DUP2 DUP2 LT ISZERO PUSH2 0xB1B JUMPI PUSH1 0x20 DUP2 DUP6 ADD DUP2 ADD MLOAD DUP7 DUP4 ADD DUP3 ADD MSTORE ADD PUSH2 0xAFF JUMP JUMPDEST POP PUSH1 0x0 PUSH1 0x20 DUP3 DUP7 ADD ADD MSTORE PUSH1 0x20 PUSH1 0x1F NOT PUSH1 0x1F DUP4 ADD AND DUP6 ADD ADD SWAP2 POP POP SWAP3 SWAP2 POP POP JUMP JUMPDEST PUSH1 0x1 PUSH1 0x1 PUSH1 0xA0 SHL SUB DUP9 DUP2 AND DUP3 MSTORE PUSH1 0x20 DUP3 ADD DUP9 SWAP1 MSTORE DUP7 AND PUSH1 0x40 DUP3 ADD MSTORE PUSH1 0xE0 PUSH1 0x60 DUP3 ADD DUP2 SWAP1 MSTORE PUSH1 0x0 SWAP1 PUSH2 0xB6E SWAP1 DUP4 ADD DUP8 PUSH2 0xAF5 JUMP JUMPDEST SWAP5 ISZERO ISZERO PUSH1 0x80 DUP4 ADD MSTORE POP PUSH1 0xA0 DUP2 ADD SWAP3 SWAP1 SWAP3 MSTORE PUSH1 0xC0 SWAP1 SWAP2 ADD MSTORE SWAP5 SWAP4 POP POP POP POP JUMP JUMPDEST PUSH1 0x20 DUP2 MSTORE PUSH1 0x0 PUSH1 0x1 DUP1 PUSH1 0xA0 SHL SUB DUP1 DUP5 MLOAD AND PUSH1 0x20 DUP5 ADD MSTORE PUSH1 0x20 DUP5 ADD MLOAD PUSH1 0x40 DUP5 ADD MSTORE DUP1 PUSH1 0x40 DUP6 ADD MLOAD AND PUSH1 0x60 DUP5 ADD MSTORE POP PUSH1 0x60 DUP4 ADD MLOAD PUSH1 0xE0 PUSH1 0x80 DUP5 ADD MSTORE PUSH2 0xBD4 PUSH2 0x100 DUP5 ADD DUP3 PUSH2 0xAF5 JUMP JUMPDEST SWAP1 POP PUSH1 0x80 DUP5 ADD MLOAD ISZERO ISZERO PUSH1 0xA0 DUP5 ADD MSTORE PUSH1 0xA0 DUP5 ADD MLOAD PUSH1 0xC0 DUP5 ADD MSTORE PUSH1 0xC0 DUP5 ADD MLOAD PUSH1 0xE0 DUP5 ADD MSTORE DUP1 SWAP2 POP POP SWAP3 SWAP2 POP POP JUMP JUMPDEST PUSH4 0x4E487B71 PUSH1 0xE0 SHL PUSH1 0x0 MSTORE PUSH1 0x41 PUSH1 0x4 MSTORE PUSH1 0x24 PUSH1 0x0 REVERT JUMPDEST PUSH1 0x0 DUP1 PUSH1 0x0 DUP1 PUSH1 0x0 PUSH1 0xA0 DUP7 DUP9 SUB SLT ISZERO PUSH2 0xC2E JUMPI PUSH1 0x0 DUP1 REVERT JUMPDEST PUSH2 0xC37 DUP7 PUSH2 0xA30 JUMP JUMPDEST SWAP5 POP PUSH1 0x20 DUP7 ADD CALLDATALOAD SWAP4 POP PUSH2 0xC4C PUSH1 0x40 DUP8 ADD PUSH2 0xA30 JUMP JUMPDEST SWAP3 POP PUSH1 0x60 DUP7 ADD CALLDATALOAD PUSH8 0xFFFFFFFFFFFFFFFF DUP1 DUP3 GT ISZERO PUSH2 0xC69 JUMPI PUSH1 0x0 DUP1 REVERT JUMPDEST DUP2 DUP9 ADD SWAP2 POP DUP9 PUSH1 0x1F DUP4 ADD SLT PUSH2 0xC7D JUMPI PUSH1 0x0 DUP1 REVERT JUMPDEST DUP2 CALLDATALOAD DUP2 DUP2 GT ISZERO PUSH2 0xC8F JUMPI PUSH2 0xC8F PUSH2 0xC00 JUMP JUMPDEST PUSH1 0x40 MLOAD PUSH1 0x1F DUP3 ADD PUSH1 0x1F NOT SWAP1 DUP2 AND PUSH1 0x3F ADD AND DUP2 ADD SWAP1 DUP4 DUP3 GT DUP2 DUP4 LT OR ISZERO PUSH2 0xCB7 JUMPI PUSH2 0xCB7 PUSH2 0xC00 JUMP JUMPDEST DUP2 PUSH1 0x40 MSTORE DUP3 DUP2 MSTORE DUP12 PUSH1 0x20 DUP5 DUP8 ADD ADD GT ISZERO PUSH2 0xCD0 JUMPI PUSH1 0x0 DUP1 REVERT JUMPDEST DUP3 PUSH1 0x20 DUP7 ADD PUSH1 0x20 DUP4 ADD CALLDATACOPY PUSH1 0x0 SWAP3 DUP2 ADD PUSH1 0x20 ADD SWAP3 SWAP1 SWAP3 MSTORE POP SWAP7 SWAP10 SWAP6 SWAP9 POP SWAP4 SWAP7 PUSH1 0x80 ADD CALLDATALOAD SWAP5 SWAP4 POP POP POP POP JUMP JUMPDEST PUSH1 0x0 DUP1 PUSH1 0x40 DUP4 DUP6 SUB SLT ISZERO PUSH2 0xD0D JUMPI PUSH1 0x0 DUP1 REVERT JUMPDEST DUP3 CALLDATALOAD SWAP2 POP PUSH2 0xD1D PUSH1 0x20 DUP5 ADD PUSH2 0xA30 JUMP JUMPDEST SWAP1 POP SWAP3 POP SWAP3 SWAP1 POP JUMP JUMPDEST PUSH1 0x1 DUP2 DUP2 SHR SWAP1 DUP3 AND DUP1 PUSH2 0xD3A JUMPI PUSH1 0x7F DUP3 AND SWAP2 POP JUMPDEST PUSH1 0x20 DUP3 LT DUP2 SUB PUSH2 0xD5A JUMPI PUSH4 0x4E487B71 PUSH1 0xE0 SHL PUSH1 0x0 MSTORE PUSH1 0x22 PUSH1 0x4 MSTORE PUSH1 0x24 PUSH1 0x0 REVERT JUMPDEST POP SWAP2 SWAP1 POP JUMP JUMPDEST PUSH1 0x0 PUSH1 0x1 DUP3 ADD PUSH2 0xD80 JUMPI PUSH4 0x4E487B71 PUSH1 0xE0 SHL PUSH1 0x0 MSTORE PUSH1 0x11 PUSH1 0x4 MSTORE PUSH1 0x24 PUSH1 0x0 REVERT JUMPDEST POP PUSH1 0x1 ADD SWAP1 JUMP JUMPDEST PUSH1 0x1F DUP3 GT ISZERO PUSH2 0xDD1 JUMPI PUSH1 0x0 DUP2 DUP2 MSTORE PUSH1 0x20 DUP2 KECCAK256 PUSH1 0x1F DUP6 ADD PUSH1 0x5 SHR DUP2 ADD PUSH1 0x20 DUP7 LT ISZERO PUSH2 0xDAE JUMPI POP DUP1 JUMPDEST PUSH1 0x1F DUP6 ADD PUSH1 0x5 SHR DUP3 ADD SWAP2 POP JUMPDEST DUP2 DUP2 LT ISZERO PUSH2 0xDCD JUMPI DUP3 DUP2 SSTORE PUSH1 0x1 ADD PUSH2 0xDBA JUMP JUMPDEST POP POP POP JUMPDEST POP POP POP JUMP JUMPDEST DUP2 MLOAD PUSH8 0xFFFFFFFFFFFFFFFF DUP2 GT ISZERO PUSH2 0xDF0 JUMPI PUSH2 0xDF0 PUSH2 0xC00 JUMP JUMPDEST PUSH2 0xE04 DUP2 PUSH2 0xDFE DUP5 SLOAD PUSH2 0xD26 JUMP JUMPDEST DUP5 PUSH2 0xD87 JUMP JUMPDEST PUSH1 0x20 DUP1 PUSH1 0x1F DUP4 GT PUSH1 0x1 DUP2 EQ PUSH2 0xE39 JUMPI PUSH1 0x0 DUP5 ISZERO PUSH2 0xE21 JUMPI POP DUP6 DUP4 ADD MLOAD JUMPDEST PUSH1 0x0 NOT PUSH1 0x3 DUP7 SWAP1 SHL SHR NOT AND PUSH1 0x1 DUP6 SWAP1 SHL OR DUP6 SSTORE PUSH2 0xDCD JUMP JUMPDEST PUSH1 0x0 DUP6 DUP2 MSTORE PUSH1 0x20 DUP2 KECCAK256 PUSH1 0x1F NOT DUP7 AND SWAP2 JUMPDEST DUP3 DUP2 LT ISZERO PUSH2 0xE68 JUMPI DUP9 DUP7 ADD MLOAD DUP3 SSTORE SWAP5 DUP5 ADD SWAP5 PUSH1 0x1 SWAP1 SWAP2 ADD SWAP1 DUP5 ADD PUSH2 0xE49 JUMP JUMPDEST POP DUP6 DUP3 LT ISZERO PUSH2 0xE86 JUMPI DUP8 DUP6 ADD MLOAD PUSH1 0x0 NOT PUSH1 0x3 DUP9 SWAP1 SHL PUSH1 0xF8 AND SHR NOT AND DUP2 SSTORE JUMPDEST POP POP POP POP POP PUSH1 0x1 SWAP1 DUP2 SHL ADD SWAP1 SSTORE POP JUMP INVALID LOG2 PUSH5 0x6970667358 0x22 SLT KECCAK256 0x26 PUSH10 0xA92D00897D92A82230C8 0x27 0x28 SWAP9 CALLVALUE SMOD SWAP1 0xD1 0xB2 STATICCALL LOG2 SLOAD CALLDATALOAD 0xD6 0xE6 0xFB PUSH2 0x785F DUP12 0x2C PUSH5 0x736F6C6343 STOP ADDMOD EQ STOP CALLER "},"methodIdentifiers":{"deactivateEntity(uint256)":"a363e1b4","getEntity(uint256)":"b3a27842","getEntityByNFT(address,uint256)":"1901a5cd","getOwnerEntities(address)":"11a85a7c","isEntityActive(uint256)":"a82ab5c7","nftToEntityId(address,uint256)":"a517069a","owner()":"8da5cb5b","ownerEntities(address,uint256)":"178c340c","registerEntity(address,uint256,address,string,bytes32)":"cc2153b6","registry(uint256)":"5893253c","renounceOwnership()":"715018a6","totalEntities()":"5cd8b15e","transferEntity(uint256,address)":"ef2bdabb","transferOwnership(address)":"f2fde38b"}}}}}