{"contracts/core/EntitySpawning.sol":{"EntitySpawning":{"abi":[{"inputs":[],"stateMutability":"nonpayable","type":"constructor"},{"inputs":[{"internalType":"address","name":"owner","type":"address"}],"name":"OwnableInvalidOwner","type":"error"},{"inputs":[{"internalType":"address","name":"account","type":"address"}],"name":"OwnableUnauthorizedAccount","type":"error"},{"anonymous":false,"inputs":[{"indexed":true,"internalType":"uint256","name":"parentId","type":"uint256"},{"indexed":true,"internalType":"uint256","name":"childId","type":"uint256"},{"indexed":false,"internalType":"uint256","name":"generation","type":"uint256"},{"indexed":true,"internalType":"address","name":"spawner","type":"address"}],"name":"EntitySpawned","type":"event"},{"anonymous":false,"inputs":[{"indexed":true,"internalType":"address","name":"previousOwner","type":"address"},{"indexed":true,"internalType":"address","name":"newOwner","type":"address"}],"name":"OwnershipTransferred","type":"event"},{"anonymous":false,"inputs":[{"indexed":false,"internalType":"uint256","name":"tier","type":"uint256"},{"indexed":false,"internalType":"uint256","name":"energyCost","type":"uint256"},{"indexed":false,"internalType":"int256","name":"minReputation","type":"int256"}],"name":"SpawnTierConfigured","type":"event"},{"inputs":[],"name":"BASE_COOLDOWN","outputs":[{"internalType":"uint256","name":"","type":"uint256"}],"stateMutability":"view","type":"function"},{"inputs":[],"name":"BASE_ENERGY_COST","outputs":[{"internalType":"uint256","name":"","type":"uint256"}],"stateMutability":"view","type":"function"},{"inputs":[{"internalType":"uint256","name":"parentId","type":"uint256"},{"internalType":"uint256","name":"generation","type":"uint256"},{"internalType":"int256","name":"reputation","type":"int256"},{"internalType":"uint256","name":"energy","type":"uint256"}],"name":"canSpawn","outputs":[{"internalType":"bool","name":"","type":"bool"},{"internalType":"string","name":"","type":"string"}],"stateMutability":"view","type":"function"},{"inputs":[{"internalType":"uint256","name":"tier","type":"uint256"},{"internalType":"uint256","name":"energyCost","type":"uint256"},{"internalType":"uint256","name":"cooldownBlocks","type":"uint256"},{"internalType":"int256","name":"minReputation","type":"int256"},{"internalType":"bool","name":"requiresParent","type":"bool"}],"name":"configureSpawnTier","outputs":[],"stateMutability":"nonpayable","type":"function"},{"inputs":[{"internalType":"uint256","name":"generation","type":"uint256"}],"name":"getSpawnCost","outputs":[{"internalType":"uint256","name":"","type":"uint256"}],"stateMutability":"view","type":"function"},{"inputs":[{"internalType":"uint256","name":"parentId","type":"uint256"}],"name":"getSpawnHistory","outputs":[{"components":[{"internalType":"uint256","name":"parentId","type":"uint256"},{"internalType":"uint256","name":"childId","type":"uint256"},{"internalType":"address","name":"spawner","type":"address"},{"internalType":"uint256","name":"spawnedAt","type":"uint256"},{"internalType":"uint256","name":"generation","type":"uint256"}],"internalType":"struct EntitySpawning.SpawnRecord[]","name":"","type":"tuple[]"}],"stateMutability":"view","type":"function"},{"inputs":[{"internalType":"uint256","name":"generation","type":"uint256"}],"name":"getSpawnRequirements","outputs":[{"components":[{"internalType":"uint256","name":"energyCost","type":"uint256"},{"internalType":"uint256","name":"cooldownBlocks","type":"uint256"},{"internalType":"int256","name":"minReputationRequired","type":"int256"},{"internalType":"bool","name":"requiresParent","type":"bool"},{"internalType":"bool","name":"enabled","type":"bool"}],"internalType":"struct EntitySpawning.SpawnConfig","name":"","type":"tuple"}],"stateMutability":"view","type":"function"},{"inputs":[{"internalType":"uint256","name":"","type":"uint256"}],"name":"lastSpawnBlock","outputs":[{"internalType":"uint256","name":"","type":"uint256"}],"stateMutability":"view","type":"function"},{"inputs":[],"name":"owner","outputs":[{"internalType":"address","name":"","type":"address"}],"stateMutability":"view","type":"function"},{"inputs":[{"internalType":"uint256","name":"parentId","type":"uint256"},{"internalType":"uint256","name":"childId","type":"uint256"},{"internalType":"address","name":"spawner","type":"address"},{"internalType":"uint256","name":"generation","type":"uint256"}],"name":"recordSpawn","outputs":[],"stateMutability":"nonpayable","type":"function"},{"inputs":[],"name":"renounceOwnership","outputs":[],"stateMutability":"nonpayable","type":"function"},{"inputs":[{"internalType":"uint256","name":"","type":"uint256"},{"internalType":"uint256","name":"","type":"uint256"}],"name":"spawnHistory","outputs":[{"internalType":"uint256","name":"parentId","type":"uint256"},{"internalType":"uint256","name":"childId","type":"uint256"},{"internalType":"address","name":"spawner","type":"address"},{"internalType":"uint256","name":"spawnedAt","type":"uint256"},{"internalType":"uint256","name":"generation","type":"uint256"}],"stateMutability":"view","type":"function"},{"inputs":[{"internalType":"uint256","name":"","type":"uint256"}],"name":"spawnTiers","outputs":[{"internalType":"uint256","name":"energyCost","type":"uint256"},{"internalType":"uint256","name":"cooldownBlocks","type":"uint256"},{"internalType":"int256","name":"minReputationRequired","type":"int256"},{"internalType":"bool","name":"requiresParent","type":"bool"},{"internalType":"bool","name":"enabled","type":"bool"}],"stateMutability":"view","type":"function"},{"inputs":[],"name":"totalSpawns","outputs":[{"internalType":"uint256","name":"","type":"uint256"}],"stateMutability":"view","type":"function"},{"inputs":[{"internalType":"address","name":"newOwner","type":"address"}],"name":"transferOwnership","outputs":[],"stateMutability":"nonpayable","type":"function"}],"evm":{"bytecode":{"linkReferences":{},"object":"608060405234801561001057600080fd5b50338061003757604051631e4fbdf760e01b81526000600482015260240160405180910390fd5b610040816102d9565b506040805160a0808201835260148252606460208084019182526000848601818152606080870183815260016080808a0182815282875282885299517fcc69885fda6bcc1a4ace058b4a62bf5e179ea78fd58a1ccd71c22cc9b688792f5596517fcc69885fda6bcc1a4ace058b4a62bf5e179ea78fd58a1ccd71c22cc9b68879305592517fcc69885fda6bcc1a4ace058b4a62bf5e179ea78fd58a1ccd71c22cc9b688793155517fcc69885fda6bcc1a4ace058b4a62bf5e179ea78fd58a1ccd71c22cc9b688793280549851151561010090810261ff0019931515841661ffff199b8c16171790915589518089018b52601e81526096818801908152600a828d01908152828601878152838b0188815260028a52888b5293517fd9d16d34ffb15ba3a3d852f0d403e2ce1d691fb54de27ac87cd2f993f3ec330f5591517fd9d16d34ffb15ba3a3d852f0d403e2ce1d691fb54de27ac87cd2f993f3ec331055517fd9d16d34ffb15ba3a3d852f0d403e2ce1d691fb54de27ac87cd2f993f3ec331155517fd9d16d34ffb15ba3a3d852f0d403e2ce1d691fb54de27ac87cd2f993f3ec331280549251151584029115158516928c169290921717905589519788018a526028885260c888870190815260199a89019a8b5292880184815296880184815260039095529290945294517f7dfe757ecd65cbd7922a9c0161e935dd7fdbcc0e999689c7d31633896b1fc60b5593517f7dfe757ecd65cbd7922a9c0161e935dd7fdbcc0e999689c7d31633896b1fc60c5594517f7dfe757ecd65cbd7922a9c0161e935dd7fdbcc0e999689c7d31633896b1fc60d5590517f7dfe757ecd65cbd7922a9c0161e935dd7fdbcc0e999689c7d31633896b1fc60e8054955115159093029015159091169390921692909217179055610329565b600080546001600160a01b038381166001600160a01b0319831681178455604051919092169283917f8be0079c531659141344cd1fd0a4f28419497f9722a3daafe3b4186f6b6457e09190a35050565b610baa806103386000396000f3fe608060405234801561001057600080fd5b50600436106100f55760003560e01c806383c5868c116100975780639f612e86116100665780639f612e8614610292578063b0f67bf5146102a5578063f2fde38b146102fe578063f7185cfb1461031157600080fd5b806383c5868c1461022457806389187ace146102445780638da5cb5b14610264578063999270fa1461027f57600080fd5b8063685077fa116100d3578063685077fa146101835780636f9add9f146101a3578063715018a6146101ac5780637b245a1e146101b657600080fd5b806303f3fc5a146100fa5780634b555a3c146101245780634c17cdee1461016d575b600080fd5b61010d610108366004610923565b610319565b60405161011b929190610955565b60405180910390f35b6101376101323660046109ad565b610503565b6040805195865260208601949094526001600160a01b03909216928401929092526060830191909152608082015260a00161011b565b610175601481565b60405190815260200161011b565b6101966101913660046109cf565b61055a565b60405161011b91906109e8565b61017560045481565b6101b4610601565b005b6101f86101c43660046109cf565b6001602081905260009182526040909120805491810154600282015460039092015490919060ff8082169161010090041685565b60408051958652602086019490945292840191909152151560608301521515608082015260a00161011b565b6101756102323660046109cf565b60009081526001602052604090205490565b6101756102523660046109cf565b60036020526000908152604090205481565b6000546040516001600160a01b03909116815260200161011b565b6101b461028d366004610a5f565b610615565b6101b46102a0366004610acd565b6106d7565b6102b86102b33660046109cf565b6107d4565b60405161011b9190600060a08201905082518252602083015160208301526040830151604083015260608301511515606083015260808301511515608083015292915050565b6101b461030c366004610b0a565b610863565b610175606481565b6000838152600160208181526040808420815160a0810183528154815293810154928401929092526002820154908301526003015460ff8082161515606084810191909152610100909204161515608083018190529091906103ad57505060408051808201909152601681527514dc185ddb881d1a595c881b9bdd08195b98589b195960521b6020820152600091506104fa565b806060015180156103bc575086155b156103f257505060408051808201909152600f81526e14185c995b9d081c995c5d5a5c9959608a1b6020820152600091506104fa565b806040015185121561043d57505060408051808201909152601781527f496e73756666696369656e742072657075746174696f6e0000000000000000006020820152600091506104fa565b805184101561047b575050604080518082019091526013815272496e73756666696369656e7420656e6572677960681b6020820152600091506104fa565b6020808201516000898152600390925260409091205461049b9190610b42565b4310156104d357505060408051808201909152600f81526e436f6f6c646f776e2061637469766560881b6020820152600091506104fa565b505060408051808201909152600981526821b0b71039b830bbb760b91b6020820152600191505b94509492505050565b6002602052816000526040600020818154811061051f57600080fd5b6000918252602090912060059091020180546001820154600283015460038401546004909401549295509093506001600160a01b0316919085565b606060026000838152602001908152602001600020805480602002602001604051908101604052809291908181526020016000905b828210156105f65760008481526020908190206040805160a08101825260058602909201805483526001808201548486015260028201546001600160a01b03169284019290925260038101546060840152600401546080830152908352909201910161058f565b505050509050919050565b6106096108a6565b61061360006108d3565b565b61061d6108a6565b6040805160a0810182528581526020808201868152828401868152851515606080860191825260016080870181815260008e815282885289902097518855945190870155915160028601555160039094018054925115156101000261ff00199515159590951661ffff199093169290921793909317905582518881529081018790529182018490527fc259c06d85fe3820d7cee0ab683bab3dd352c5111d770f2db60db66cbd75ccba910160405180910390a15050505050565b6000848152600260208181526040808420815160a0810183528981528084018981526001600160a01b038981168386019081524260608501908152608085018b8152865460018082018955978c52898c20965160059091029096019586559351958501959095555196830180546001600160a01b03191697909116969096179095559051600380830191909155935160049182015588855292909152822043905580549161078483610b5b565b9190505550816001600160a01b031683857f46ed25f71c8144a3fd2767bdafd33dfc92d487d85d18c35cb643a7a0f7fa497f846040516107c691815260200190565b60405180910390a450505050565b61080a6040518060a001604052806000815260200160008152602001600081526020016000151581526020016000151581525090565b50600090815260016020818152604092839020835160a08101855281548152928101549183019190915260028101549282019290925260039091015460ff80821615156060840152610100909104161515608082015290565b61086b6108a6565b6001600160a01b03811661089a57604051631e4fbdf760e01b8152600060048201526024015b60405180910390fd5b6108a3816108d3565b50565b6000546001600160a01b031633146106135760405163118cdaa760e01b8152336004820152602401610891565b600080546001600160a01b038381166001600160a01b0319831681178455604051919092169283917f8be0079c531659141344cd1fd0a4f28419497f9722a3daafe3b4186f6b6457e09190a35050565b6000806000806080858703121561093957600080fd5b5050823594602084013594506040840135936060013592509050565b821515815260006020604081840152835180604085015260005b8181101561098b5785810183015185820160600152820161096f565b506000606082860101526060601f19601f830116850101925050509392505050565b600080604083850312156109c057600080fd5b50508035926020909101359150565b6000602082840312156109e157600080fd5b5035919050565b602080825282518282018190526000919060409081850190868401855b82811015610a52578151805185528681015187860152858101516001600160a01b031686860152606080820151908601526080908101519085015260a09093019290850190600101610a05565b5091979650505050505050565b600080600080600060a08688031215610a7757600080fd5b8535945060208601359350604086013592506060860135915060808601358015158114610aa357600080fd5b809150509295509295909350565b80356001600160a01b0381168114610ac857600080fd5b919050565b60008060008060808587031215610ae357600080fd5b8435935060208501359250610afa60408601610ab1565b9396929550929360600135925050565b600060208284031215610b1c57600080fd5b610b2582610ab1565b9392505050565b634e487b7160e01b600052601160045260246000fd5b80820180821115610b5557610b55610b2c565b92915050565b600060018201610b6d57610b6d610b2c565b506001019056fea264697066735822122072814403a3fef65c76e2dfa8c62ad1e0944abb08683908592a68c018ebfc756264736f6c63430008140033","opcodes":"PUSH1 0x80 PUSH1 0x40 MSTORE CALLVALUE DUP1 ISZERO PUSH2 0x10 JUMPI PUSH1 0x0 DUP1 REVERT JUMPDEST POP CALLER DUP1 PUSH2 0x37 JUMPI PUSH1 0x40 MLOAD PUSH4 0x1E4FBDF7 PUSH1 0xE0 SHL DUP2 MSTORE PUSH1 0x0 PUSH1 0x4 DUP3 ADD MSTORE PUSH1 0x24 ADD PUSH1 0x40 MLOAD DUP1 SWAP2 SUB SWAP1 REVERT JUMPDEST PUSH2 0x40 DUP2 PUSH2 0x2D9 JUMP JUMPDEST POP PUSH1 0x40 DUP1 MLOAD PUSH1 0xA0 DUP1 DUP3 ADD DUP4 MSTORE PUSH1 0x14 DUP3 MSTORE PUSH1 0x64 PUSH1 0x20 DUP1 DUP5 ADD SWAP2 DUP3 MSTORE PUSH1 0x0 DUP5 DUP7 ADD DUP2 DUP2 MSTORE PUSH1 0x60 DUP1 DUP8 ADD DUP4 DUP2 MSTORE PUSH1 0x1 PUSH1 0x80 DUP1 DUP11 ADD DUP3 DUP2 MSTORE DUP3 DUP8 MSTORE DUP3 DUP9 MSTORE SWAP10 MLOAD PUSH32 0xCC69885FDA6BCC1A4ACE058B4A62BF5E179EA78FD58A1CCD71C22CC9B688792F SSTORE SWAP7 MLOAD PUSH32 0xCC69885FDA6BCC1A4ACE058B4A62BF5E179EA78FD58A1CCD71C22CC9B6887930 SSTORE SWAP3 MLOAD PUSH32 0xCC69885FDA6BCC1A4ACE058B4A62BF5E179EA78FD58A1CCD71C22CC9B6887931 SSTORE MLOAD PUSH32 0xCC69885FDA6BCC1A4ACE058B4A62BF5E179EA78FD58A1CCD71C22CC9B6887932 DUP1 SLOAD SWAP9 MLOAD ISZERO ISZERO PUSH2 0x100 SWAP1 DUP2 MUL PUSH2 0xFF00 NOT SWAP4 ISZERO ISZERO DUP5 AND PUSH2 0xFFFF NOT SWAP12 DUP13 AND OR OR SWAP1 SWAP2 SSTORE DUP10 MLOAD DUP1 DUP10 ADD DUP12 MSTORE PUSH1 0x1E DUP2 MSTORE PUSH1 0x96 DUP2 DUP9 ADD SWAP1 DUP2 MSTORE PUSH1 0xA DUP3 DUP14 ADD SWAP1 DUP2 MSTORE DUP3 DUP7 ADD DUP8 DUP2 MSTORE DUP4 DUP12 ADD DUP9 DUP2 MSTORE PUSH1 0x2 DUP11 MSTORE DUP9 DUP12 MSTORE SWAP4 MLOAD PUSH32 0xD9D16D34FFB15BA3A3D852F0D403E2CE1D691FB54DE27AC87CD2F993F3EC330F SSTORE SWAP2 MLOAD PUSH32 0xD9D16D34FFB15BA3A3D852F0D403E2CE1D691FB54DE27AC87CD2F993F3EC3310 SSTORE MLOAD PUSH32 0xD9D16D34FFB15BA3A3D852F0D403E2CE1D691FB54DE27AC87CD2F993F3EC3311 SSTORE MLOAD PUSH32 0xD9D16D34FFB15BA3A3D852F0D403E2CE1D691FB54DE27AC87CD2F993F3EC3312 DUP1 SLOAD SWAP3 MLOAD ISZERO ISZERO DUP5 MUL SWAP2 ISZERO ISZERO DUP6 AND SWAP3 DUP13 AND SWAP3 SWAP1 SWAP3 OR OR SWAP1 SSTORE DUP10 MLOAD SWAP8 DUP9 ADD DUP11 MSTORE PUSH1 0x28 DUP9 MSTORE PUSH1 0xC8 DUP9 DUP8 ADD SWAP1 DUP2 MSTORE PUSH1 0x19 SWAP11 DUP10 ADD SWAP11 DUP12 MSTORE SWAP3 DUP9 ADD DUP5 DUP2 MSTORE SWAP7 DUP9 ADD DUP5 DUP2 MSTORE PUSH1 0x3 SWAP1 SWAP6 MSTORE SWAP3 SWAP1 SWAP5 MSTORE SWAP5 MLOAD PUSH32 0x7DFE757ECD65CBD7922A9C0161E935DD7FDBCC0E999689C7D31633896B1FC60B SSTORE SWAP4 MLOAD PUSH32 0x7DFE757ECD65CBD7922A9C0161E935DD7FDBCC0E999689C7D31633896B1FC60C SSTORE SWAP5 MLOAD PUSH32 0x7DFE757ECD65CBD7922A9C0161E935DD7FDBCC0E999689C7D31633896B1FC60D SSTORE SWAP1 MLOAD PUSH32 0x7DFE757ECD65CBD7922A9C0161E935DD7FDBCC0E999689C7D31633896B1FC60E DUP1 SLOAD SWAP6 MLOAD ISZERO ISZERO SWAP1 SWAP4 MUL SWAP1 ISZERO ISZERO SWAP1 SWAP2 AND SWAP4 SWAP1 SWAP3 AND SWAP3 SWAP1 SWAP3 OR OR SWAP1 SSTORE PUSH2 0x329 JUMP JUMPDEST PUSH1 0x0 DUP1 SLOAD PUSH1 0x1 PUSH1 0x1 PUSH1 0xA0 SHL SUB DUP4 DUP2 AND PUSH1 0x1 PUSH1 0x1 PUSH1 0xA0 SHL SUB NOT DUP4 AND DUP2 OR DUP5 SSTORE PUSH1 0x40 MLOAD SWAP2 SWAP1 SWAP3 AND SWAP3 DUP4 SWAP2 PUSH32 0x8BE0079C531659141344CD1FD0A4F28419497F9722A3DAAFE3B4186F6B6457E0 SWAP2 SWAP1 LOG3 POP POP JUMP JUMPDEST PUSH2 0xBAA DUP1 PUSH2 0x338 PUSH1 0x0 CODECOPY PUSH1 0x0 RETURN INVALID PUSH1 0x80 PUSH1 0x40 MSTORE CALLVALUE DUP1 ISZERO PUSH2 0x10 JUMPI PUSH1 0x0 DUP1 REVERT JUMPDEST POP PUSH1 0x4 CALLDATASIZE LT PUSH2 0xF5 JUMPI PUSH1 0x0 CALLDATALOAD PUSH1 0xE0 SHR DUP1 PUSH4 0x83C5868C GT PUSH2 0x97 JUMPI DUP1 PUSH4 0x9F612E86 GT PUSH2 0x66 JUMPI DUP1 PUSH4 0x9F612E86 EQ PUSH2 0x292 JUMPI DUP1 PUSH4 0xB0F67BF5 EQ PUSH2 0x2A5 JUMPI DUP1 PUSH4 0xF2FDE38B EQ PUSH2 0x2FE JUMPI DUP1 PUSH4 0xF7185CFB EQ PUSH2 0x311 JUMPI PUSH1 0x0 DUP1 REVERT JUMPDEST DUP1 PUSH4 0x83C5868C EQ PUSH2 0x224 JUMPI DUP1 PUSH4 0x89187ACE EQ PUSH2 0x244 JUMPI DUP1 PUSH4 0x8DA5CB5B EQ PUSH2 0x264 JUMPI DUP1 PUSH4 0x999270FA EQ PUSH2 0x27F JUMPI PUSH1 0x0 DUP1 REVERT JUMPDEST DUP1 PUSH4 0x685077FA GT PUSH2 0xD3 JUMPI DUP1 PUSH4 0x685077FA EQ PUSH2 0x183 JUMPI DUP1 PUSH4 0x6F9ADD9F EQ PUSH2 0x1A3 JUMPI DUP1 PUSH4 0x715018A6 EQ PUSH2 0x1AC JUMPI DUP1 PUSH4 0x7B245A1E EQ PUSH2 0x1B6 JUMPI PUSH1 0x0 DUP1 REVERT JUMPDEST DUP1 PUSH4 0x3F3FC5A EQ PUSH2 0xFA JUMPI DUP1 PUSH4 0x4B555A3C EQ PUSH2 0x124 JUMPI DUP1 PUSH4 0x4C17CDEE EQ PUSH2 0x16D JUMPI JUMPDEST PUSH1 0x0 DUP1 REVERT JUMPDEST PUSH2 0x10D PUSH2 0x108 CALLDATASIZE PUSH1 0x4 PUSH2 0x923 JUMP JUMPDEST PUSH2 0x319 JUMP JUMPDEST PUSH1 0x40 MLOAD PUSH2 0x11B SWAP3 SWAP2 SWAP1 PUSH2 0x955 JUMP JUMPDEST PUSH1 0x40 MLOAD DUP1 SWAP2 SUB SWAP1 RETURN JUMPDEST PUSH2 0x137 PUSH2 0x132 CALLDATASIZE PUSH1 0x4 PUSH2 0x9AD JUMP JUMPDEST PUSH2 0x503 JUMP JUMPDEST PUSH1 0x40 DUP1 MLOAD SWAP6 DUP7 MSTORE PUSH1 0x20 DUP7 ADD SWAP5 SWAP1 SWAP5 MSTORE PUSH1 0x1 PUSH1 0x1 PUSH1 0xA0 SHL SUB SWAP1 SWAP3 AND SWAP3 DUP5 ADD SWAP3 SWAP1 SWAP3 MSTORE PUSH1 0x60 DUP4 ADD SWAP2 SWAP1 SWAP2 MSTORE PUSH1 0x80 DUP3 ADD MSTORE PUSH1 0xA0 ADD PUSH2 0x11B JUMP JUMPDEST PUSH2 0x175 PUSH1 0x14 DUP2 JUMP JUMPDEST PUSH1 0x40 MLOAD SWAP1 DUP2 MSTORE PUSH1 0x20 ADD PUSH2 0x11B JUMP JUMPDEST PUSH2 0x196 PUSH2 0x191 CALLDATASIZE PUSH1 0x4 PUSH2 0x9CF JUMP JUMPDEST PUSH2 0x55A JUMP JUMPDEST PUSH1 0x40 MLOAD PUSH2 0x11B SWAP2 SWAP1 PUSH2 0x9E8 JUMP JUMPDEST PUSH2 0x175 PUSH1 0x4 SLOAD DUP2 JUMP JUMPDEST PUSH2 0x1B4 PUSH2 0x601 JUMP JUMPDEST STOP JUMPDEST PUSH2 0x1F8 PUSH2 0x1C4 CALLDATASIZE PUSH1 0x4 PUSH2 0x9CF JUMP JUMPDEST PUSH1 0x1 PUSH1 0x20 DUP2 SWAP1 MSTORE PUSH1 0x0 SWAP2 DUP3 MSTORE PUSH1 0x40 SWAP1 SWAP2 KECCAK256 DUP1 SLOAD SWAP2 DUP2 ADD SLOAD PUSH1 0x2 DUP3 ADD SLOAD PUSH1 0x3 SWAP1 SWAP3 ADD SLOAD SWAP1 SWAP2 SWAP1 PUSH1 0xFF DUP1 DUP3 AND SWAP2 PUSH2 0x100 SWAP1 DIV AND DUP6 JUMP JUMPDEST PUSH1 0x40 DUP1 MLOAD SWAP6 DUP7 MSTORE PUSH1 0x20 DUP7 ADD SWAP5 SWAP1 SWAP5 MSTORE SWAP3 DUP5 ADD SWAP2 SWAP1 SWAP2 MSTORE ISZERO ISZERO PUSH1 0x60 DUP4 ADD MSTORE ISZERO ISZERO PUSH1 0x80 DUP3 ADD MSTORE PUSH1 0xA0 ADD PUSH2 0x11B JUMP JUMPDEST PUSH2 0x175 PUSH2 0x232 CALLDATASIZE PUSH1 0x4 PUSH2 0x9CF JUMP JUMPDEST PUSH1 0x0 SWAP1 DUP2 MSTORE PUSH1 0x1 PUSH1 0x20 MSTORE PUSH1 0x40 SWAP1 KECCAK256 SLOAD SWAP1 JUMP JUMPDEST PUSH2 0x175 PUSH2 0x252 CALLDATASIZE PUSH1 0x4 PUSH2 0x9CF JUMP JUMPDEST PUSH1 0x3 PUSH1 0x20 MSTORE PUSH1 0x0 SWAP1 DUP2 MSTORE PUSH1 0x40 SWAP1 KECCAK256 SLOAD DUP2 JUMP JUMPDEST PUSH1 0x0 SLOAD PUSH1 0x40 MLOAD PUSH1 0x1 PUSH1 0x1 PUSH1 0xA0 SHL SUB SWAP1 SWAP2 AND DUP2 MSTORE PUSH1 0x20 ADD PUSH2 0x11B JUMP JUMPDEST PUSH2 0x1B4 PUSH2 0x28D CALLDATASIZE PUSH1 0x4 PUSH2 0xA5F JUMP JUMPDEST PUSH2 0x615 JUMP JUMPDEST PUSH2 0x1B4 PUSH2 0x2A0 CALLDATASIZE PUSH1 0x4 PUSH2 0xACD JUMP JUMPDEST PUSH2 0x6D7 JUMP JUMPDEST PUSH2 0x2B8 PUSH2 0x2B3 CALLDATASIZE PUSH1 0x4 PUSH2 0x9CF JUMP JUMPDEST PUSH2 0x7D4 JUMP JUMPDEST PUSH1 0x40 MLOAD PUSH2 0x11B SWAP2 SWAP1 PUSH1 0x0 PUSH1 0xA0 DUP3 ADD SWAP1 POP DUP3 MLOAD DUP3 MSTORE PUSH1 0x20 DUP4 ADD MLOAD PUSH1 0x20 DUP4 ADD MSTORE PUSH1 0x40 DUP4 ADD MLOAD PUSH1 0x40 DUP4 ADD MSTORE PUSH1 0x60 DUP4 ADD MLOAD ISZERO ISZERO PUSH1 0x60 DUP4 ADD MSTORE PUSH1 0x80 DUP4 ADD MLOAD ISZERO ISZERO PUSH1 0x80 DUP4 ADD MSTORE SWAP3 SWAP2 POP POP JUMP JUMPDEST PUSH2 0x1B4 PUSH2 0x30C CALLDATASIZE PUSH1 0x4 PUSH2 0xB0A JUMP JUMPDEST PUSH2 0x863 JUMP JUMPDEST PUSH2 0x175 PUSH1 0x64 DUP2 JUMP JUMPDEST PUSH1 0x0 DUP4 DUP2 MSTORE PUSH1 0x1 PUSH1 0x20 DUP2 DUP2 MSTORE PUSH1 0x40 DUP1 DUP5 KECCAK256 DUP2 MLOAD PUSH1 0xA0 DUP2 ADD DUP4 MSTORE DUP2 SLOAD DUP2 MSTORE SWAP4 DUP2 ADD SLOAD SWAP3 DUP5 ADD SWAP3 SWAP1 SWAP3 MSTORE PUSH1 0x2 DUP3 ADD SLOAD SWAP1 DUP4 ADD MSTORE PUSH1 0x3 ADD SLOAD PUSH1 0xFF DUP1 DUP3 AND ISZERO ISZERO PUSH1 0x60 DUP5 DUP2 ADD SWAP2 SWAP1 SWAP2 MSTORE PUSH2 0x100 SWAP1 SWAP3 DIV AND ISZERO ISZERO PUSH1 0x80 DUP4 ADD DUP2 SWAP1 MSTORE SWAP1 SWAP2 SWAP1 PUSH2 0x3AD JUMPI POP POP PUSH1 0x40 DUP1 MLOAD DUP1 DUP3 ADD SWAP1 SWAP2 MSTORE PUSH1 0x16 DUP2 MSTORE PUSH22 0x14DC185DDB881D1A595C881B9BDD08195B98589B1959 PUSH1 0x52 SHL PUSH1 0x20 DUP3 ADD MSTORE PUSH1 0x0 SWAP2 POP PUSH2 0x4FA JUMP JUMPDEST DUP1 PUSH1 0x60 ADD MLOAD DUP1 ISZERO PUSH2 0x3BC JUMPI POP DUP7 ISZERO JUMPDEST ISZERO PUSH2 0x3F2 JUMPI POP POP PUSH1 0x40 DUP1 MLOAD DUP1 DUP3 ADD SWAP1 SWAP2 MSTORE PUSH1 0xF DUP2 MSTORE PUSH15 0x14185C995B9D081C995C5D5A5C9959 PUSH1 0x8A SHL PUSH1 0x20 DUP3 ADD MSTORE PUSH1 0x0 SWAP2 POP PUSH2 0x4FA JUMP JUMPDEST DUP1 PUSH1 0x40 ADD MLOAD DUP6 SLT ISZERO PUSH2 0x43D JUMPI POP POP PUSH1 0x40 DUP1 MLOAD DUP1 DUP3 ADD SWAP1 SWAP2 MSTORE PUSH1 0x17 DUP2 MSTORE PUSH32 0x496E73756666696369656E742072657075746174696F6E000000000000000000 PUSH1 0x20 DUP3 ADD MSTORE PUSH1 0x0 SWAP2 POP PUSH2 0x4FA JUMP JUMPDEST DUP1 MLOAD DUP5 LT ISZERO PUSH2 0x47B JUMPI POP POP PUSH1 0x40 DUP1 MLOAD DUP1 DUP3 ADD SWAP1 SWAP2 MSTORE PUSH1 0x13 DUP2 MSTORE PUSH19 0x496E73756666696369656E7420656E65726779 PUSH1 0x68 SHL PUSH1 0x20 DUP3 ADD MSTORE PUSH1 0x0 SWAP2 POP PUSH2 0x4FA JUMP JUMPDEST PUSH1 0x20 DUP1 DUP3 ADD MLOAD PUSH1 0x0 DUP10 DUP2 MSTORE PUSH1 0x3 SWAP1 SWAP3 MSTORE PUSH1 0x40 SWAP1 SWAP2 KECCAK256 SLOAD PUSH2 0x49B SWAP2 SWAP1 PUSH2 0xB42 JUMP JUMPDEST NUMBER LT ISZERO PUSH2 0x4D3 JUMPI POP POP PUSH1 0x40 DUP1 MLOAD DUP1 DUP3 ADD SWAP1 SWAP2 MSTORE PUSH1 0xF DUP2 MSTORE PUSH15 0x436F6F6C646F776E20616374697665 PUSH1 0x88 SHL PUSH1 0x20 DUP3 ADD MSTORE PUSH1 0x0 SWAP2 POP PUSH2 0x4FA JUMP JUMPDEST POP POP PUSH1 0x40 DUP1 MLOAD DUP1 DUP3 ADD SWAP1 SWAP2 MSTORE PUSH1 0x9 DUP2 MSTORE PUSH9 0x21B0B71039B830BBB7 PUSH1 0xB9 SHL PUSH1 0x20 DUP3 ADD MSTORE PUSH1 0x1 SWAP2 POP JUMPDEST SWAP5 POP SWAP5 SWAP3 POP POP POP JUMP JUMPDEST PUSH1 0x2 PUSH1 0x20 MSTORE DUP2 PUSH1 0x0 MSTORE PUSH1 0x40 PUSH1 0x0 KECCAK256 DUP2 DUP2 SLOAD DUP2 LT PUSH2 0x51F JUMPI PUSH1 0x0 DUP1 REVERT JUMPDEST PUSH1 0x0 SWAP2 DUP3 MSTORE PUSH1 0x20 SWAP1 SWAP2 KECCAK256 PUSH1 0x5 SWAP1 SWAP2 MUL ADD DUP1 SLOAD PUSH1 0x1 DUP3 ADD SLOAD PUSH1 0x2 DUP4 ADD SLOAD PUSH1 0x3 DUP5 ADD SLOAD PUSH1 0x4 SWAP1 SWAP5 ADD SLOAD SWAP3 SWAP6 POP SWAP1 SWAP4 POP PUSH1 0x1 PUSH1 0x1 PUSH1 0xA0 SHL SUB AND SWAP2 SWAP1 DUP6 JUMP JUMPDEST PUSH1 0x60 PUSH1 0x2 PUSH1 0x0 DUP4 DUP2 MSTORE PUSH1 0x20 ADD SWAP1 DUP2 MSTORE PUSH1 0x20 ADD PUSH1 0x0 KECCAK256 DUP1 SLOAD DUP1 PUSH1 0x20 MUL PUSH1 0x20 ADD PUSH1 0x40 MLOAD SWAP1 DUP2 ADD PUSH1 0x40 MSTORE DUP1 SWAP3 SWAP2 SWAP1 DUP2 DUP2 MSTORE PUSH1 0x20 ADD PUSH1 0x0 SWAP1 JUMPDEST DUP3 DUP3 LT ISZERO PUSH2 0x5F6 JUMPI PUSH1 0x0 DUP5 DUP2 MSTORE PUSH1 0x20 SWAP1 DUP2 SWAP1 KECCAK256 PUSH1 0x40 DUP1 MLOAD PUSH1 0xA0 DUP2 ADD DUP3 MSTORE PUSH1 0x5 DUP7 MUL SWAP1 SWAP3 ADD DUP1 SLOAD DUP4 MSTORE PUSH1 0x1 DUP1 DUP3 ADD SLOAD DUP5 DUP7 ADD MSTORE PUSH1 0x2 DUP3 ADD SLOAD PUSH1 0x1 PUSH1 0x1 PUSH1 0xA0 SHL SUB AND SWAP3 DUP5 ADD SWAP3 SWAP1 SWAP3 MSTORE PUSH1 0x3 DUP2 ADD SLOAD PUSH1 0x60 DUP5 ADD MSTORE PUSH1 0x4 ADD SLOAD PUSH1 0x80 DUP4 ADD MSTORE SWAP1 DUP4 MSTORE SWAP1 SWAP3 ADD SWAP2 ADD PUSH2 0x58F JUMP JUMPDEST POP POP POP POP SWAP1 POP SWAP2 SWAP1 POP JUMP JUMPDEST PUSH2 0x609 PUSH2 0x8A6 JUMP JUMPDEST PUSH2 0x613 PUSH1 0x0 PUSH2 0x8D3 JUMP JUMPDEST JUMP JUMPDEST PUSH2 0x61D PUSH2 0x8A6 JUMP JUMPDEST PUSH1 0x40 DUP1 MLOAD PUSH1 0xA0 DUP2 ADD DUP3 MSTORE DUP6 DUP2 MSTORE PUSH1 0x20 DUP1 DUP3 ADD DUP7 DUP2 MSTORE DUP3 DUP5 ADD DUP7 DUP2 MSTORE DUP6 ISZERO ISZERO PUSH1 0x60 DUP1 DUP7 ADD SWAP2 DUP3 MSTORE PUSH1 0x1 PUSH1 0x80 DUP8 ADD DUP2 DUP2 MSTORE PUSH1 0x0 DUP15 DUP2 MSTORE DUP3 DUP9 MSTORE DUP10 SWAP1 KECCAK256 SWAP8 MLOAD DUP9 SSTORE SWAP5 MLOAD SWAP1 DUP8 ADD SSTORE SWAP2 MLOAD PUSH1 0x2 DUP7 ADD SSTORE MLOAD PUSH1 0x3 SWAP1 SWAP5 ADD DUP1 SLOAD SWAP3 MLOAD ISZERO ISZERO PUSH2 0x100 MUL PUSH2 0xFF00 NOT SWAP6 ISZERO ISZERO SWAP6 SWAP1 SWAP6 AND PUSH2 0xFFFF NOT SWAP1 SWAP4 AND SWAP3 SWAP1 SWAP3 OR SWAP4 SWAP1 SWAP4 OR SWAP1 SSTORE DUP3 MLOAD DUP9 DUP2 MSTORE SWAP1 DUP2 ADD DUP8 SWAP1 MSTORE SWAP2 DUP3 ADD DUP5 SWAP1 MSTORE PUSH32 0xC259C06D85FE3820D7CEE0AB683BAB3DD352C5111D770F2DB60DB66CBD75CCBA SWAP2 ADD PUSH1 0x40 MLOAD DUP1 SWAP2 SUB SWAP1 LOG1 POP POP POP POP POP JUMP JUMPDEST PUSH1 0x0 DUP5 DUP2 MSTORE PUSH1 0x2 PUSH1 0x20 DUP2 DUP2 MSTORE PUSH1 0x40 DUP1 DUP5 KECCAK256 DUP2 MLOAD PUSH1 0xA0 DUP2 ADD DUP4 MSTORE DUP10 DUP2 MSTORE DUP1 DUP5 ADD DUP10 DUP2 MSTORE PUSH1 0x1 PUSH1 0x1 PUSH1 0xA0 SHL SUB DUP10 DUP2 AND DUP4 DUP7 ADD SWAP1 DUP2 MSTORE TIMESTAMP PUSH1 0x60 DUP6 ADD SWAP1 DUP2 MSTORE PUSH1 0x80 DUP6 ADD DUP12 DUP2 MSTORE DUP7 SLOAD PUSH1 0x1 DUP1 DUP3 ADD DUP10 SSTORE SWAP8 DUP13 MSTORE DUP10 DUP13 KECCAK256 SWAP7 MLOAD PUSH1 0x5 SWAP1 SWAP2 MUL SWAP1 SWAP7 ADD SWAP6 DUP7 SSTORE SWAP4 MLOAD SWAP6 DUP6 ADD SWAP6 SWAP1 SWAP6 SSTORE MLOAD SWAP7 DUP4 ADD DUP1 SLOAD PUSH1 0x1 PUSH1 0x1 PUSH1 0xA0 SHL SUB NOT AND SWAP8 SWAP1 SWAP2 AND SWAP7 SWAP1 SWAP7 OR SWAP1 SWAP6 SSTORE SWAP1 MLOAD PUSH1 0x3 DUP1 DUP4 ADD SWAP2 SWAP1 SWAP2 SSTORE SWAP4 MLOAD PUSH1 0x4 SWAP2 DUP3 ADD SSTORE DUP9 DUP6 MSTORE SWAP3 SWAP1 SWAP2 MSTORE DUP3 KECCAK256 NUMBER SWAP1 SSTORE DUP1 SLOAD SWAP2 PUSH2 0x784 DUP4 PUSH2 0xB5B JUMP JUMPDEST SWAP2 SWAP1 POP SSTORE POP DUP2 PUSH1 0x1 PUSH1 0x1 PUSH1 0xA0 SHL SUB AND DUP4 DUP6 PUSH32 0x46ED25F71C8144A3FD2767BDAFD33DFC92D487D85D18C35CB643A7A0F7FA497F DUP5 PUSH1 0x40 MLOAD PUSH2 0x7C6 SWAP2 DUP2 MSTORE PUSH1 0x20 ADD SWAP1 JUMP JUMPDEST PUSH1 0x40 MLOAD DUP1 SWAP2 SUB SWAP1 LOG4 POP POP POP POP JUMP JUMPDEST PUSH2 0x80A PUSH1 0x40 MLOAD DUP1 PUSH1 0xA0 ADD PUSH1 0x40 MSTORE DUP1 PUSH1 0x0 DUP2 MSTORE PUSH1 0x20 ADD PUSH1 0x0 DUP2 MSTORE PUSH1 0x20 ADD PUSH1 0x0 DUP2 MSTORE PUSH1 0x20 ADD PUSH1 0x0 ISZERO ISZERO DUP2 MSTORE PUSH1 0x20 ADD PUSH1 0x0 ISZERO ISZERO DUP2 MSTORE POP SWAP1 JUMP JUMPDEST POP PUSH1 0x0 SWAP1 DUP2 MSTORE PUSH1 0x1 PUSH1 0x20 DUP2 DUP2 MSTORE PUSH1 0x40 SWAP3 DUP4 SWAP1 KECCAK256 DUP4 MLOAD PUSH1 0xA0 DUP2 ADD DUP6 MSTORE DUP2 SLOAD DUP2 MSTORE SWAP3 DUP2 ADD SLOAD SWAP2 DUP4 ADD SWAP2 SWAP1 SWAP2 MSTORE PUSH1 0x2 DUP2 ADD SLOAD SWAP3 DUP3 ADD SWAP3 SWAP1 SWAP3 MSTORE PUSH1 0x3 SWAP1 SWAP2 ADD SLOAD PUSH1 0xFF DUP1 DUP3 AND ISZERO ISZERO PUSH1 0x60 DUP5 ADD MSTORE PUSH2 0x100 SWAP1 SWAP2 DIV AND ISZERO ISZERO PUSH1 0x80 DUP3 ADD MSTORE SWAP1 JUMP JUMPDEST PUSH2 0x86B PUSH2 0x8A6 JUMP JUMPDEST PUSH1 0x1 PUSH1 0x1 PUSH1 0xA0 SHL SUB DUP2 AND PUSH2 0x89A JUMPI PUSH1 0x40 MLOAD PUSH4 0x1E4FBDF7 PUSH1 0xE0 SHL DUP2 MSTORE PUSH1 0x0 PUSH1 0x4 DUP3 ADD MSTORE PUSH1 0x24 ADD JUMPDEST PUSH1 0x40 MLOAD DUP1 SWAP2 SUB SWAP1 REVERT JUMPDEST PUSH2 0x8A3 DUP2 PUSH2 0x8D3 JUMP JUMPDEST POP JUMP JUMPDEST PUSH1 0x0 SLOAD PUSH1 0x1 PUSH1 0x1 PUSH1 0xA0 SHL SUB AND CALLER EQ PUSH2 0x613 JUMPI PUSH1 0x40 MLOAD PUSH4 0x118CDAA7 PUSH1 0xE0 SHL DUP2 MSTORE CALLER PUSH1 0x4 DUP3 ADD MSTORE PUSH1 0x24 ADD PUSH2 0x891 JUMP JUMPDEST PUSH1 0x0 DUP1 SLOAD PUSH1 0x1 PUSH1 0x1 PUSH1 0xA0 SHL SUB DUP4 DUP2 AND PUSH1 0x1 PUSH1 0x1 PUSH1 0xA0 SHL SUB NOT DUP4 AND DUP2 OR DUP5 SSTORE PUSH1 0x40 MLOAD SWAP2 SWAP1 SWAP3 AND SWAP3 DUP4 SWAP2 PUSH32 0x8BE0079C531659141344CD1FD0A4F28419497F9722A3DAAFE3B4186F6B6457E0 SWAP2 SWAP1 LOG3 POP POP JUMP JUMPDEST PUSH1 0x0 DUP1 PUSH1 0x0 DUP1 PUSH1 0x80 DUP6 DUP8 SUB SLT ISZERO PUSH2 0x939 JUMPI PUSH1 0x0 DUP1 REVERT JUMPDEST POP POP DUP3 CALLDATALOAD SWAP5 PUSH1 0x20 DUP5 ADD CALLDATALOAD SWAP5 POP PUSH1 0x40 DUP5 ADD CALLDATALOAD SWAP4 PUSH1 0x60 ADD CALLDATALOAD SWAP3 POP SWAP1 POP JUMP JUMPDEST DUP3 ISZERO ISZERO DUP2 MSTORE PUSH1 0x0 PUSH1 0x20 PUSH1 0x40 DUP2 DUP5 ADD MSTORE DUP4 MLOAD DUP1 PUSH1 0x40 DUP6 ADD MSTORE PUSH1 0x0 JUMPDEST DUP2 DUP2 LT ISZERO PUSH2 0x98B JUMPI DUP6 DUP2 ADD DUP4 ADD MLOAD DUP6 DUP3 ADD PUSH1 0x60 ADD MSTORE DUP3 ADD PUSH2 0x96F JUMP JUMPDEST POP PUSH1 0x0 PUSH1 0x60 DUP3 DUP7 ADD ADD MSTORE PUSH1 0x60 PUSH1 0x1F NOT PUSH1 0x1F DUP4 ADD AND DUP6 ADD ADD SWAP3 POP POP POP SWAP4 SWAP3 POP POP POP JUMP JUMPDEST PUSH1 0x0 DUP1 PUSH1 0x40 DUP4 DUP6 SUB SLT ISZERO PUSH2 0x9C0 JUMPI PUSH1 0x0 DUP1 REVERT JUMPDEST POP POP DUP1 CALLDATALOAD SWAP3 PUSH1 0x20 SWAP1 SWAP2 ADD CALLDATALOAD SWAP2 POP JUMP JUMPDEST PUSH1 0x0 PUSH1 0x20 DUP3 DUP5 SUB SLT ISZERO PUSH2 0x9E1 JUMPI PUSH1 0x0 DUP1 REVERT JUMPDEST POP CALLDATALOAD SWAP2 SWAP1 POP JUMP JUMPDEST PUSH1 0x20 DUP1 DUP3 MSTORE DUP3 MLOAD DUP3 DUP3 ADD DUP2 SWAP1 MSTORE PUSH1 0x0 SWAP2 SWAP1 PUSH1 0x40 SWAP1 DUP2 DUP6 ADD SWAP1 DUP7 DUP5 ADD DUP6 JUMPDEST DUP3 DUP2 LT ISZERO PUSH2 0xA52 JUMPI DUP2 MLOAD DUP1 MLOAD DUP6 MSTORE DUP7 DUP2 ADD MLOAD DUP8 DUP7 ADD MSTORE DUP6 DUP2 ADD MLOAD PUSH1 0x1 PUSH1 0x1 PUSH1 0xA0 SHL SUB AND DUP7 DUP7 ADD MSTORE PUSH1 0x60 DUP1 DUP3 ADD MLOAD SWAP1 DUP7 ADD MSTORE PUSH1 0x80 SWAP1 DUP2 ADD MLOAD SWAP1 DUP6 ADD MSTORE PUSH1 0xA0 SWAP1 SWAP4 ADD SWAP3 SWAP1 DUP6 ADD SWAP1 PUSH1 0x1 ADD PUSH2 0xA05 JUMP JUMPDEST POP SWAP2 SWAP8 SWAP7 POP POP POP POP POP POP POP JUMP JUMPDEST PUSH1 0x0 DUP1 PUSH1 0x0 DUP1 PUSH1 0x0 PUSH1 0xA0 DUP7 DUP9 SUB SLT ISZERO PUSH2 0xA77 JUMPI PUSH1 0x0 DUP1 REVERT JUMPDEST DUP6 CALLDATALOAD SWAP5 POP PUSH1 0x20 DUP7 ADD CALLDATALOAD SWAP4 POP PUSH1 0x40 DUP7 ADD CALLDATALOAD SWAP3 POP PUSH1 0x60 DUP7 ADD CALLDATALOAD SWAP2 POP PUSH1 0x80 DUP7 ADD CALLDATALOAD DUP1 ISZERO ISZERO DUP2 EQ PUSH2 0xAA3 JUMPI PUSH1 0x0 DUP1 REVERT JUMPDEST DUP1 SWAP2 POP POP SWAP3 SWAP6 POP SWAP3 SWAP6 SWAP1 SWAP4 POP JUMP JUMPDEST DUP1 CALLDATALOAD PUSH1 0x1 PUSH1 0x1 PUSH1 0xA0 SHL SUB DUP2 AND DUP2 EQ PUSH2 0xAC8 JUMPI PUSH1 0x0 DUP1 REVERT JUMPDEST SWAP2 SWAP1 POP JUMP JUMPDEST PUSH1 0x0 DUP1 PUSH1 0x0 DUP1 PUSH1 0x80 DUP6 DUP8 SUB SLT ISZERO PUSH2 0xAE3 JUMPI PUSH1 0x0 DUP1 REVERT JUMPDEST DUP5 CALLDATALOAD SWAP4 POP PUSH1 0x20 DUP6 ADD CALLDATALOAD SWAP3 POP PUSH2 0xAFA PUSH1 0x40 DUP7 ADD PUSH2 0xAB1 JUMP JUMPDEST SWAP4 SWAP7 SWAP3 SWAP6 POP SWAP3 SWAP4 PUSH1 0x60 ADD CALLDATALOAD SWAP3 POP POP JUMP JUMPDEST PUSH1 0x0 PUSH1 0x20 DUP3 DUP5 SUB SLT ISZERO PUSH2 0xB1C JUMPI PUSH1 0x0 DUP1 REVERT JUMPDEST PUSH2 0xB25 DUP3 PUSH2 0xAB1 JUMP JUMPDEST SWAP4 SWAP3 POP POP POP JUMP JUMPDEST PUSH4 0x4E487B71 PUSH1 0xE0 SHL PUSH1 0x0 MSTORE PUSH1 0x11 PUSH1 0x4 MSTORE PUSH1 0x24 PUSH1 0x0 REVERT JUMPDEST DUP1 DUP3 ADD DUP1 DUP3 GT ISZERO PUSH2 0xB55 JUMPI PUSH2 0xB55 PUSH2 0xB2C JUMP JUMPDEST SWAP3 SWAP2 POP POP JUMP JUMPDEST PUSH1 0x0 PUSH1 0x1 DUP3 ADD PUSH2 0xB6D JUMPI PUSH2 0xB6D PUSH2 0xB2C JUMP JUMPDEST POP PUSH1 0x1 ADD SWAP1 JUMP INVALID LOG2 PUSH5 0x6970667358 0x22 SLT KECCAK256 PUSH19 0x814403A3FEF65C76E2DFA8C62AD1E0944ABB08 PUSH9 0x3908592A68C018EBFC PUSH22 0x6264736F6C6343000814003300000000000000000000 "},"methodIdentifiers":{"BASE_COOLDOWN()":"f7185cfb","BASE_ENERGY_COST()":"4c17cdee","canSpawn(uint256,uint256,int256,uint256)":"03f3fc5a","configureSpawnTier(uint256,uint256,uint256,int256,bool)":"999270fa","getSpawnCost(uint256)":"83c5868c","getSpawnHistory(uint256)":"685077fa","getSpawnRequirements(uint256)":"b0f67bf5","lastSpawnBlock(uint256)":"89187ace","owner()":"8da5cb5b","recordSpawn(uint256,uint256,address,uint256)":"9f612e86","renounceOwnership()":"715018a6","spawnHistory(uint256,uint256)":"4b555a3c","spawnTiers(uint256)":"7b245a1e","totalSpawns()":"6f9add9f","transferOwnership(address)":"f2fde38b"}}}}}