{"contracts/oracles/ReputationOracle.sol":{"ReputationOracle":{"abi":[{"inputs":[],"stateMutability":"nonpayable","type":"constructor"},{"inputs":[],"name":"AccessControlBadConfirmation","type":"error"},{"inputs":[{"internalType":"address","name":"account","type":"address"},{"internalType":"bytes32","name":"neededRole","type":"bytes32"}],"name":"AccessControlUnauthorizedAccount","type":"error"},{"anonymous":false,"inputs":[{"indexed":true,"internalType":"uint256","name":"entityId","type":"uint256"},{"indexed":false,"internalType":"bool","name":"success","type":"bool"}],"name":"ActionRecorded","type":"event"},{"anonymous":false,"inputs":[{"indexed":true,"internalType":"uint256","name":"entityId","type":"uint256"},{"indexed":false,"internalType":"int256","name":"oldScore","type":"int256"},{"indexed":false,"internalType":"int256","name":"newScore","type":"int256"}],"name":"ReputationUpdated","type":"event"},{"anonymous":false,"inputs":[{"indexed":true,"internalType":"bytes32","name":"role","type":"bytes32"},{"indexed":true,"internalType":"bytes32","name":"previousAdminRole","type":"bytes32"},{"indexed":true,"internalType":"bytes32","name":"newAdminRole","type":"bytes32"}],"name":"RoleAdminChanged","type":"event"},{"anonymous":false,"inputs":[{"indexed":true,"internalType":"bytes32","name":"role","type":"bytes32"},{"indexed":true,"internalType":"address","name":"account","type":"address"},{"indexed":true,"internalType":"address","name":"sender","type":"address"}],"name":"RoleGranted","type":"event"},{"anonymous":false,"inputs":[{"indexed":true,"internalType":"bytes32","name":"role","type":"bytes32"},{"indexed":true,"internalType":"address","name":"account","type":"address"},{"indexed":true,"internalType":"address","name":"sender","type":"address"}],"name":"RoleRevoked","type":"event"},{"inputs":[],"name":"DEFAULT_ADMIN_ROLE","outputs":[{"internalType":"bytes32","name":"","type":"bytes32"}],"stateMutability":"view","type":"function"},{"inputs":[],"name":"MAX_REPUTATION","outputs":[{"internalType":"int256","name":"","type":"int256"}],"stateMutability":"view","type":"function"},{"inputs":[],"name":"MIN_REPUTATION","outputs":[{"internalType":"int256","name":"","type":"int256"}],"stateMutability":"view","type":"function"},{"inputs":[],"name":"ORACLE_ROLE","outputs":[{"internalType":"bytes32","name":"","type":"bytes32"}],"stateMutability":"view","type":"function"},{"inputs":[],"name":"UPDATER_ROLE","outputs":[{"internalType":"bytes32","name":"","type":"bytes32"}],"stateMutability":"view","type":"function"},{"inputs":[{"internalType":"uint256","name":"entityId","type":"uint256"}],"name":"getReputation","outputs":[{"components":[{"internalType":"int256","name":"score","type":"int256"},{"internalType":"uint256","name":"totalActions","type":"uint256"},{"internalType":"uint256","name":"successfulActions","type":"uint256"},{"internalType":"uint256","name":"lastUpdate","type":"uint256"},{"internalType":"bool","name":"initialized","type":"bool"}],"internalType":"struct ReputationOracle.ReputationData","name":"","type":"tuple"}],"stateMutability":"view","type":"function"},{"inputs":[{"internalType":"bytes32","name":"role","type":"bytes32"}],"name":"getRoleAdmin","outputs":[{"internalType":"bytes32","name":"","type":"bytes32"}],"stateMutability":"view","type":"function"},{"inputs":[{"internalType":"uint256","name":"entityId","type":"uint256"}],"name":"getScore","outputs":[{"internalType":"int256","name":"","type":"int256"}],"stateMutability":"view","type":"function"},{"inputs":[{"internalType":"uint256","name":"entityId","type":"uint256"}],"name":"getSuccessRate","outputs":[{"internalType":"uint256","name":"","type":"uint256"}],"stateMutability":"view","type":"function"},{"inputs":[{"internalType":"bytes32","name":"role","type":"bytes32"},{"internalType":"address","name":"account","type":"address"}],"name":"grantRole","outputs":[],"stateMutability":"nonpayable","type":"function"},{"inputs":[{"internalType":"bytes32","name":"role","type":"bytes32"},{"internalType":"address","name":"account","type":"address"}],"name":"hasRole","outputs":[{"internalType":"bool","name":"","type":"bool"}],"stateMutability":"view","type":"function"},{"inputs":[{"internalType":"uint256","name":"entityId","type":"uint256"}],"name":"initializeReputation","outputs":[],"stateMutability":"nonpayable","type":"function"},{"inputs":[{"internalType":"uint256","name":"entityId","type":"uint256"},{"internalType":"bool","name":"success","type":"bool"}],"name":"recordAction","outputs":[],"stateMutability":"nonpayable","type":"function"},{"inputs":[{"internalType":"bytes32","name":"role","type":"bytes32"},{"internalType":"address","name":"callerConfirmation","type":"address"}],"name":"renounceRole","outputs":[],"stateMutability":"nonpayable","type":"function"},{"inputs":[{"internalType":"uint256","name":"","type":"uint256"}],"name":"reputation","outputs":[{"internalType":"int256","name":"score","type":"int256"},{"internalType":"uint256","name":"totalActions","type":"uint256"},{"internalType":"uint256","name":"successfulActions","type":"uint256"},{"internalType":"uint256","name":"lastUpdate","type":"uint256"},{"internalType":"bool","name":"initialized","type":"bool"}],"stateMutability":"view","type":"function"},{"inputs":[{"internalType":"bytes32","name":"role","type":"bytes32"},{"internalType":"address","name":"account","type":"address"}],"name":"revokeRole","outputs":[],"stateMutability":"nonpayable","type":"function"},{"inputs":[{"internalType":"bytes4","name":"interfaceId","type":"bytes4"}],"name":"supportsInterface","outputs":[{"internalType":"bool","name":"","type":"bool"}],"stateMutability":"view","type":"function"},{"inputs":[{"internalType":"uint256","name":"entityId","type":"uint256"},{"internalType":"int256","name":"delta","type":"int256"}],"name":"updateReputation","outputs":[],"stateMutability":"nonpayable","type":"function"}],"evm":{"bytecode":{"linkReferences":{},"object":"608060405234801561001057600080fd5b5061001c600033610078565b506100477f68e79a7bf1e0bc45d0a330c573bc367f9cf464fd326078812f301165fbda4ef133610078565b506100727f73e573f9566d61418a34d5de3ff49360f9c51fec37f7486551670290f6285dab33610078565b50610124565b6000828152602081815260408083206001600160a01b038516845290915281205460ff1661011a576000838152602081815260408083206001600160a01b03861684529091529020805460ff191660011790556100d23390565b6001600160a01b0316826001600160a01b0316847f2f8788117e7eff1d82e926ec794901d17c78024a50270940304540a733656f0d60405160405180910390a450600161011e565b5060005b92915050565b610afe806101336000396000f3fe608060405234801561001057600080fd5b50600436106101165760003560e01c806347e63380116100a25780638a650841116100715780638a6508411461030c57806391d148541461031f578063a217fddf14610332578063d213c0f21461033a578063d547741f1461034357600080fd5b806347e633801461021c57806356c708d514610243578063697c6045146102ac57806389370d8b146102b557600080fd5b8063248a9ca3116100e9578063248a9ca3146101ad5780632a31da8d146101d05780632f2ff15d146101e357806336568abe146101f6578063464c401d1461020957600080fd5b806301ffc9a71461011b57806307e2cea5146101435780630d889131146101785780630e1af57b1461018d575b600080fd5b61012e610129366004610966565b610356565b60405190151581526020015b60405180910390f35b61016a7f68e79a7bf1e0bc45d0a330c573bc367f9cf464fd326078812f301165fbda4ef181565b60405190815260200161013a565b61018b610186366004610997565b61038d565b005b61016a61019b366004610997565b60009081526001602052604090205490565b61016a6101bb366004610997565b60009081526020819052604090206001015490565b61018b6101de3660046109b0565b61047c565b61018b6101f13660046109e5565b610585565b61018b6102043660046109e5565b6105b0565b61018b610217366004610a16565b6105e8565b61016a7f73e573f9566d61418a34d5de3ff49360f9c51fec37f7486551670290f6285dab81565b610282610251366004610997565b6001602081905260009182526040909120805491810154600282015460038301546004909301549192909160ff1685565b6040805195865260208601949094529284019190915260608301521515608082015260a00161013a565b61016a60631981565b6102c86102c3366004610997565b6106fa565b60405161013a9190600060a0820190508251825260208301516020830152604083015160408301526060830151606083015260808301511515608083015292915050565b61016a61031a366004610997565b610781565b61012e61032d3660046109e5565b6107d1565b61016a600081565b61016a6103e881565b61018b6103513660046109e5565b6107fa565b60006001600160e01b03198216637965db0b60e01b148061038757506301ffc9a760e01b6001600160e01b03198316145b92915050565b7f68e79a7bf1e0bc45d0a330c573bc367f9cf464fd326078812f301165fbda4ef16103b78161081f565b60008281526001602052604090206004015460ff16156104145760405162461bcd60e51b8152602060048201526013602482015272105b1c9958591e481a5b9a5d1a585b1a5e9959606a1b60448201526064015b60405180910390fd5b506040805160a08101825260008082526020808301828152838501838152426060860190815260016080870181815298865293849052959093209351845551908301555160028201559051600382015590516004909101805460ff1916911515919091179055565b7f73e573f9566d61418a34d5de3ff49360f9c51fec37f7486551670290f6285dab6104a68161081f565b60008381526001602052604090206004015460ff166104f95760405162461bcd60e51b815260206004820152600f60248201526e139bdd081a5b9a5d1a585b1a5e9959608a1b604482015260640161040b565b600083815260016020819052604082200180549161051683610a4e565b9190505550811561054457600083815260016020526040812060020180549161053e83610a4e565b91905055505b827f1888f3727b68c2130549511d70dc045a2b5f2e577b5299467dee1f4fa00419a683604051610578911515815260200190565b60405180910390a2505050565b6000828152602081905260409020600101546105a08161081f565b6105aa838361082c565b50505050565b6001600160a01b03811633146105d95760405163334bd91960e11b815260040160405180910390fd5b6105e382826108be565b505050565b7f73e573f9566d61418a34d5de3ff49360f9c51fec37f7486551670290f6285dab6106128161081f565b60008381526001602052604090206004015460ff166106655760405162461bcd60e51b815260206004820152600f60248201526e139bdd081a5b9a5d1a585b1a5e9959608a1b604482015260640161040b565b6000838152600160205260408120549061067f8483610a67565b905060631981121561069057506063195b6103e881131561069f57506103e85b60008581526001602090815260409182902083815542600390910155815184815290810183905286917f2d8978c01ec088adf9eaead7bd9c7271aa3098806d0fd7a5c7bae833b2a52b2c910160405180910390a25050505050565b61072e6040518060a00160405280600081526020016000815260200160008152602001600081526020016000151581525090565b50600090815260016020818152604092839020835160a0810185528154815292810154918301919091526002810154928201929092526003820154606082015260049091015460ff161515608082015290565b60008181526001602081905260408220015481036107a157506000919050565b6000828152600160208190526040909120908101546002909101546107c7906064610a8f565b6103879190610aa6565b6000918252602082815260408084206001600160a01b0393909316845291905290205460ff1690565b6000828152602081905260409020600101546108158161081f565b6105aa83836108be565b6108298133610929565b50565b600061083883836107d1565b6108b6576000838152602081815260408083206001600160a01b03861684529091529020805460ff1916600117905561086e3390565b6001600160a01b0316826001600160a01b0316847f2f8788117e7eff1d82e926ec794901d17c78024a50270940304540a733656f0d60405160405180910390a4506001610387565b506000610387565b60006108ca83836107d1565b156108b6576000838152602081815260408083206001600160a01b0386168085529252808320805460ff1916905551339286917ff6391f5c32d9c69d2a47ea670b442974b53935d1edc7fd64eb21e047a839171b9190a4506001610387565b61093382826107d1565b6109625760405163e2517d3f60e01b81526001600160a01b03821660048201526024810183905260440161040b565b5050565b60006020828403121561097857600080fd5b81356001600160e01b03198116811461099057600080fd5b9392505050565b6000602082840312156109a957600080fd5b5035919050565b600080604083850312156109c357600080fd5b82359150602083013580151581146109da57600080fd5b809150509250929050565b600080604083850312156109f857600080fd5b8235915060208301356001600160a01b03811681146109da57600080fd5b60008060408385031215610a2957600080fd5b50508035926020909101359150565b634e487b7160e01b600052601160045260246000fd5b600060018201610a6057610a60610a38565b5060010190565b8082018281126000831280158216821582161715610a8757610a87610a38565b505092915050565b808202811582820484141761038757610387610a38565b600082610ac357634e487b7160e01b600052601260045260246000fd5b50049056fea2646970667358221220fba33827e9c7648bf159ee62f398709cacc6ea296ab086d013f842083a8ec0b964736f6c63430008140033","opcodes":"PUSH1 0x80 PUSH1 0x40 MSTORE CALLVALUE DUP1 ISZERO PUSH2 0x10 JUMPI PUSH1 0x0 DUP1 REVERT JUMPDEST POP PUSH2 0x1C PUSH1 0x0 CALLER PUSH2 0x78 JUMP JUMPDEST POP PUSH2 0x47 PUSH32 0x68E79A7BF1E0BC45D0A330C573BC367F9CF464FD326078812F301165FBDA4EF1 CALLER PUSH2 0x78 JUMP JUMPDEST POP PUSH2 0x72 PUSH32 0x73E573F9566D61418A34D5DE3FF49360F9C51FEC37F7486551670290F6285DAB CALLER PUSH2 0x78 JUMP JUMPDEST POP PUSH2 0x124 JUMP JUMPDEST PUSH1 0x0 DUP3 DUP2 MSTORE PUSH1 0x20 DUP2 DUP2 MSTORE PUSH1 0x40 DUP1 DUP4 KECCAK256 PUSH1 0x1 PUSH1 0x1 PUSH1 0xA0 SHL SUB DUP6 AND DUP5 MSTORE SWAP1 SWAP2 MSTORE DUP2 KECCAK256 SLOAD PUSH1 0xFF AND PUSH2 0x11A JUMPI PUSH1 0x0 DUP4 DUP2 MSTORE PUSH1 0x20 DUP2 DUP2 MSTORE PUSH1 0x40 DUP1 DUP4 KECCAK256 PUSH1 0x1 PUSH1 0x1 PUSH1 0xA0 SHL SUB DUP7 AND DUP5 MSTORE SWAP1 SWAP2 MSTORE SWAP1 KECCAK256 DUP1 SLOAD PUSH1 0xFF NOT AND PUSH1 0x1 OR SWAP1 SSTORE PUSH2 0xD2 CALLER SWAP1 JUMP JUMPDEST PUSH1 0x1 PUSH1 0x1 PUSH1 0xA0 SHL SUB AND DUP3 PUSH1 0x1 PUSH1 0x1 PUSH1 0xA0 SHL SUB AND DUP5 PUSH32 0x2F8788117E7EFF1D82E926EC794901D17C78024A50270940304540A733656F0D PUSH1 0x40 MLOAD PUSH1 0x40 MLOAD DUP1 SWAP2 SUB SWAP1 LOG4 POP PUSH1 0x1 PUSH2 0x11E JUMP JUMPDEST POP PUSH1 0x0 JUMPDEST SWAP3 SWAP2 POP POP JUMP JUMPDEST PUSH2 0xAFE DUP1 PUSH2 0x133 PUSH1 0x0 CODECOPY PUSH1 0x0 RETURN INVALID PUSH1 0x80 PUSH1 0x40 MSTORE CALLVALUE DUP1 ISZERO PUSH2 0x10 JUMPI PUSH1 0x0 DUP1 REVERT JUMPDEST POP PUSH1 0x4 CALLDATASIZE LT PUSH2 0x116 JUMPI PUSH1 0x0 CALLDATALOAD PUSH1 0xE0 SHR DUP1 PUSH4 0x47E63380 GT PUSH2 0xA2 JUMPI DUP1 PUSH4 0x8A650841 GT PUSH2 0x71 JUMPI DUP1 PUSH4 0x8A650841 EQ PUSH2 0x30C JUMPI DUP1 PUSH4 0x91D14854 EQ PUSH2 0x31F JUMPI DUP1 PUSH4 0xA217FDDF EQ PUSH2 0x332 JUMPI DUP1 PUSH4 0xD213C0F2 EQ PUSH2 0x33A JUMPI DUP1 PUSH4 0xD547741F EQ PUSH2 0x343 JUMPI PUSH1 0x0 DUP1 REVERT JUMPDEST DUP1 PUSH4 0x47E63380 EQ PUSH2 0x21C JUMPI DUP1 PUSH4 0x56C708D5 EQ PUSH2 0x243 JUMPI DUP1 PUSH4 0x697C6045 EQ PUSH2 0x2AC JUMPI DUP1 PUSH4 0x89370D8B EQ PUSH2 0x2B5 JUMPI PUSH1 0x0 DUP1 REVERT JUMPDEST DUP1 PUSH4 0x248A9CA3 GT PUSH2 0xE9 JUMPI DUP1 PUSH4 0x248A9CA3 EQ PUSH2 0x1AD JUMPI DUP1 PUSH4 0x2A31DA8D EQ PUSH2 0x1D0 JUMPI DUP1 PUSH4 0x2F2FF15D EQ PUSH2 0x1E3 JUMPI DUP1 PUSH4 0x36568ABE EQ PUSH2 0x1F6 JUMPI DUP1 PUSH4 0x464C401D EQ PUSH2 0x209 JUMPI PUSH1 0x0 DUP1 REVERT JUMPDEST DUP1 PUSH4 0x1FFC9A7 EQ PUSH2 0x11B JUMPI DUP1 PUSH4 0x7E2CEA5 EQ PUSH2 0x143 JUMPI DUP1 PUSH4 0xD889131 EQ PUSH2 0x178 JUMPI DUP1 PUSH4 0xE1AF57B EQ PUSH2 0x18D JUMPI JUMPDEST PUSH1 0x0 DUP1 REVERT JUMPDEST PUSH2 0x12E PUSH2 0x129 CALLDATASIZE PUSH1 0x4 PUSH2 0x966 JUMP JUMPDEST PUSH2 0x356 JUMP JUMPDEST PUSH1 0x40 MLOAD SWAP1 ISZERO ISZERO DUP2 MSTORE PUSH1 0x20 ADD JUMPDEST PUSH1 0x40 MLOAD DUP1 SWAP2 SUB SWAP1 RETURN JUMPDEST PUSH2 0x16A PUSH32 0x68E79A7BF1E0BC45D0A330C573BC367F9CF464FD326078812F301165FBDA4EF1 DUP2 JUMP JUMPDEST PUSH1 0x40 MLOAD SWAP1 DUP2 MSTORE PUSH1 0x20 ADD PUSH2 0x13A JUMP JUMPDEST PUSH2 0x18B PUSH2 0x186 CALLDATASIZE PUSH1 0x4 PUSH2 0x997 JUMP JUMPDEST PUSH2 0x38D JUMP JUMPDEST STOP JUMPDEST PUSH2 0x16A PUSH2 0x19B CALLDATASIZE PUSH1 0x4 PUSH2 0x997 JUMP JUMPDEST PUSH1 0x0 SWAP1 DUP2 MSTORE PUSH1 0x1 PUSH1 0x20 MSTORE PUSH1 0x40 SWAP1 KECCAK256 SLOAD SWAP1 JUMP JUMPDEST PUSH2 0x16A PUSH2 0x1BB CALLDATASIZE PUSH1 0x4 PUSH2 0x997 JUMP JUMPDEST PUSH1 0x0 SWAP1 DUP2 MSTORE PUSH1 0x20 DUP2 SWAP1 MSTORE PUSH1 0x40 SWAP1 KECCAK256 PUSH1 0x1 ADD SLOAD SWAP1 JUMP JUMPDEST PUSH2 0x18B PUSH2 0x1DE CALLDATASIZE PUSH1 0x4 PUSH2 0x9B0 JUMP JUMPDEST PUSH2 0x47C JUMP JUMPDEST PUSH2 0x18B PUSH2 0x1F1 CALLDATASIZE PUSH1 0x4 PUSH2 0x9E5 JUMP JUMPDEST PUSH2 0x585 JUMP JUMPDEST PUSH2 0x18B PUSH2 0x204 CALLDATASIZE PUSH1 0x4 PUSH2 0x9E5 JUMP JUMPDEST PUSH2 0x5B0 JUMP JUMPDEST PUSH2 0x18B PUSH2 0x217 CALLDATASIZE PUSH1 0x4 PUSH2 0xA16 JUMP JUMPDEST PUSH2 0x5E8 JUMP JUMPDEST PUSH2 0x16A PUSH32 0x73E573F9566D61418A34D5DE3FF49360F9C51FEC37F7486551670290F6285DAB DUP2 JUMP JUMPDEST PUSH2 0x282 PUSH2 0x251 CALLDATASIZE PUSH1 0x4 PUSH2 0x997 JUMP JUMPDEST PUSH1 0x1 PUSH1 0x20 DUP2 SWAP1 MSTORE PUSH1 0x0 SWAP2 DUP3 MSTORE PUSH1 0x40 SWAP1 SWAP2 KECCAK256 DUP1 SLOAD SWAP2 DUP2 ADD SLOAD PUSH1 0x2 DUP3 ADD SLOAD PUSH1 0x3 DUP4 ADD SLOAD PUSH1 0x4 SWAP1 SWAP4 ADD SLOAD SWAP2 SWAP3 SWAP1 SWAP2 PUSH1 0xFF AND DUP6 JUMP JUMPDEST PUSH1 0x40 DUP1 MLOAD SWAP6 DUP7 MSTORE PUSH1 0x20 DUP7 ADD SWAP5 SWAP1 SWAP5 MSTORE SWAP3 DUP5 ADD SWAP2 SWAP1 SWAP2 MSTORE PUSH1 0x60 DUP4 ADD MSTORE ISZERO ISZERO PUSH1 0x80 DUP3 ADD MSTORE PUSH1 0xA0 ADD PUSH2 0x13A JUMP JUMPDEST PUSH2 0x16A PUSH1 0x63 NOT DUP2 JUMP JUMPDEST PUSH2 0x2C8 PUSH2 0x2C3 CALLDATASIZE PUSH1 0x4 PUSH2 0x997 JUMP JUMPDEST PUSH2 0x6FA JUMP JUMPDEST PUSH1 0x40 MLOAD PUSH2 0x13A SWAP2 SWAP1 PUSH1 0x0 PUSH1 0xA0 DUP3 ADD SWAP1 POP DUP3 MLOAD DUP3 MSTORE PUSH1 0x20 DUP4 ADD MLOAD PUSH1 0x20 DUP4 ADD MSTORE PUSH1 0x40 DUP4 ADD MLOAD PUSH1 0x40 DUP4 ADD MSTORE PUSH1 0x60 DUP4 ADD MLOAD PUSH1 0x60 DUP4 ADD MSTORE PUSH1 0x80 DUP4 ADD MLOAD ISZERO ISZERO PUSH1 0x80 DUP4 ADD MSTORE SWAP3 SWAP2 POP POP JUMP JUMPDEST PUSH2 0x16A PUSH2 0x31A CALLDATASIZE PUSH1 0x4 PUSH2 0x997 JUMP JUMPDEST PUSH2 0x781 JUMP JUMPDEST PUSH2 0x12E PUSH2 0x32D CALLDATASIZE PUSH1 0x4 PUSH2 0x9E5 JUMP JUMPDEST PUSH2 0x7D1 JUMP JUMPDEST PUSH2 0x16A PUSH1 0x0 DUP2 JUMP JUMPDEST PUSH2 0x16A PUSH2 0x3E8 DUP2 JUMP JUMPDEST PUSH2 0x18B PUSH2 0x351 CALLDATASIZE PUSH1 0x4 PUSH2 0x9E5 JUMP JUMPDEST PUSH2 0x7FA JUMP JUMPDEST PUSH1 0x0 PUSH1 0x1 PUSH1 0x1 PUSH1 0xE0 SHL SUB NOT DUP3 AND PUSH4 0x7965DB0B PUSH1 0xE0 SHL EQ DUP1 PUSH2 0x387 JUMPI POP PUSH4 0x1FFC9A7 PUSH1 0xE0 SHL PUSH1 0x1 PUSH1 0x1 PUSH1 0xE0 SHL SUB NOT DUP4 AND EQ JUMPDEST SWAP3 SWAP2 POP POP JUMP JUMPDEST PUSH32 0x68E79A7BF1E0BC45D0A330C573BC367F9CF464FD326078812F301165FBDA4EF1 PUSH2 0x3B7 DUP2 PUSH2 0x81F JUMP JUMPDEST PUSH1 0x0 DUP3 DUP2 MSTORE PUSH1 0x1 PUSH1 0x20 MSTORE PUSH1 0x40 SWAP1 KECCAK256 PUSH1 0x4 ADD SLOAD PUSH1 0xFF AND ISZERO PUSH2 0x414 JUMPI PUSH1 0x40 MLOAD PUSH3 0x461BCD PUSH1 0xE5 SHL DUP2 MSTORE PUSH1 0x20 PUSH1 0x4 DUP3 ADD MSTORE PUSH1 0x13 PUSH1 0x24 DUP3 ADD MSTORE PUSH19 0x105B1C9958591E481A5B9A5D1A585B1A5E9959 PUSH1 0x6A SHL PUSH1 0x44 DUP3 ADD MSTORE PUSH1 0x64 ADD JUMPDEST PUSH1 0x40 MLOAD DUP1 SWAP2 SUB SWAP1 REVERT JUMPDEST POP PUSH1 0x40 DUP1 MLOAD PUSH1 0xA0 DUP2 ADD DUP3 MSTORE PUSH1 0x0 DUP1 DUP3 MSTORE PUSH1 0x20 DUP1 DUP4 ADD DUP3 DUP2 MSTORE DUP4 DUP6 ADD DUP4 DUP2 MSTORE TIMESTAMP PUSH1 0x60 DUP7 ADD SWAP1 DUP2 MSTORE PUSH1 0x1 PUSH1 0x80 DUP8 ADD DUP2 DUP2 MSTORE SWAP9 DUP7 MSTORE SWAP4 DUP5 SWAP1 MSTORE SWAP6 SWAP1 SWAP4 KECCAK256 SWAP4 MLOAD DUP5 SSTORE MLOAD SWAP1 DUP4 ADD SSTORE MLOAD PUSH1 0x2 DUP3 ADD SSTORE SWAP1 MLOAD PUSH1 0x3 DUP3 ADD SSTORE SWAP1 MLOAD PUSH1 0x4 SWAP1 SWAP2 ADD DUP1 SLOAD PUSH1 0xFF NOT AND SWAP2 ISZERO ISZERO SWAP2 SWAP1 SWAP2 OR SWAP1 SSTORE JUMP JUMPDEST PUSH32 0x73E573F9566D61418A34D5DE3FF49360F9C51FEC37F7486551670290F6285DAB PUSH2 0x4A6 DUP2 PUSH2 0x81F JUMP JUMPDEST PUSH1 0x0 DUP4 DUP2 MSTORE PUSH1 0x1 PUSH1 0x20 MSTORE PUSH1 0x40 SWAP1 KECCAK256 PUSH1 0x4 ADD SLOAD PUSH1 0xFF AND PUSH2 0x4F9 JUMPI PUSH1 0x40 MLOAD PUSH3 0x461BCD PUSH1 0xE5 SHL DUP2 MSTORE PUSH1 0x20 PUSH1 0x4 DUP3 ADD MSTORE PUSH1 0xF PUSH1 0x24 DUP3 ADD MSTORE PUSH15 0x139BDD081A5B9A5D1A585B1A5E9959 PUSH1 0x8A SHL PUSH1 0x44 DUP3 ADD MSTORE PUSH1 0x64 ADD PUSH2 0x40B JUMP JUMPDEST PUSH1 0x0 DUP4 DUP2 MSTORE PUSH1 0x1 PUSH1 0x20 DUP2 SWAP1 MSTORE PUSH1 0x40 DUP3 KECCAK256 ADD DUP1 SLOAD SWAP2 PUSH2 0x516 DUP4 PUSH2 0xA4E JUMP JUMPDEST SWAP2 SWAP1 POP SSTORE POP DUP2 ISZERO PUSH2 0x544 JUMPI PUSH1 0x0 DUP4 DUP2 MSTORE PUSH1 0x1 PUSH1 0x20 MSTORE PUSH1 0x40 DUP2 KECCAK256 PUSH1 0x2 ADD DUP1 SLOAD SWAP2 PUSH2 0x53E DUP4 PUSH2 0xA4E JUMP JUMPDEST SWAP2 SWAP1 POP SSTORE POP JUMPDEST DUP3 PUSH32 0x1888F3727B68C2130549511D70DC045A2B5F2E577B5299467DEE1F4FA00419A6 DUP4 PUSH1 0x40 MLOAD PUSH2 0x578 SWAP2 ISZERO ISZERO DUP2 MSTORE PUSH1 0x20 ADD SWAP1 JUMP JUMPDEST PUSH1 0x40 MLOAD DUP1 SWAP2 SUB SWAP1 LOG2 POP POP POP JUMP JUMPDEST PUSH1 0x0 DUP3 DUP2 MSTORE PUSH1 0x20 DUP2 SWAP1 MSTORE PUSH1 0x40 SWAP1 KECCAK256 PUSH1 0x1 ADD SLOAD PUSH2 0x5A0 DUP2 PUSH2 0x81F JUMP JUMPDEST PUSH2 0x5AA DUP4 DUP4 PUSH2 0x82C JUMP JUMPDEST POP POP POP POP JUMP JUMPDEST PUSH1 0x1 PUSH1 0x1 PUSH1 0xA0 SHL SUB DUP2 AND CALLER EQ PUSH2 0x5D9 JUMPI PUSH1 0x40 MLOAD PUSH4 0x334BD919 PUSH1 0xE1 SHL DUP2 MSTORE PUSH1 0x4 ADD PUSH1 0x40 MLOAD DUP1 SWAP2 SUB SWAP1 REVERT JUMPDEST PUSH2 0x5E3 DUP3 DUP3 PUSH2 0x8BE JUMP JUMPDEST POP POP POP JUMP JUMPDEST PUSH32 0x73E573F9566D61418A34D5DE3FF49360F9C51FEC37F7486551670290F6285DAB PUSH2 0x612 DUP2 PUSH2 0x81F JUMP JUMPDEST PUSH1 0x0 DUP4 DUP2 MSTORE PUSH1 0x1 PUSH1 0x20 MSTORE PUSH1 0x40 SWAP1 KECCAK256 PUSH1 0x4 ADD SLOAD PUSH1 0xFF AND PUSH2 0x665 JUMPI PUSH1 0x40 MLOAD PUSH3 0x461BCD PUSH1 0xE5 SHL DUP2 MSTORE PUSH1 0x20 PUSH1 0x4 DUP3 ADD MSTORE PUSH1 0xF PUSH1 0x24 DUP3 ADD MSTORE PUSH15 0x139BDD081A5B9A5D1A585B1A5E9959 PUSH1 0x8A SHL PUSH1 0x44 DUP3 ADD MSTORE PUSH1 0x64 ADD PUSH2 0x40B JUMP JUMPDEST PUSH1 0x0 DUP4 DUP2 MSTORE PUSH1 0x1 PUSH1 0x20 MSTORE PUSH1 0x40 DUP2 KECCAK256 SLOAD SWAP1 PUSH2 0x67F DUP5 DUP4 PUSH2 0xA67 JUMP JUMPDEST SWAP1 POP PUSH1 0x63 NOT DUP2 SLT ISZERO PUSH2 0x690 JUMPI POP PUSH1 0x63 NOT JUMPDEST PUSH2 0x3E8 DUP2 SGT ISZERO PUSH2 0x69F JUMPI POP PUSH2 0x3E8 JUMPDEST PUSH1 0x0 DUP6 DUP2 MSTORE PUSH1 0x1 PUSH1 0x20 SWAP1 DUP2 MSTORE PUSH1 0x40 SWAP2 DUP3 SWAP1 KECCAK256 DUP4 DUP2 SSTORE TIMESTAMP PUSH1 0x3 SWAP1 SWAP2 ADD SSTORE DUP2 MLOAD DUP5 DUP2 MSTORE SWAP1 DUP2 ADD DUP4 SWAP1 MSTORE DUP7 SWAP2 PUSH32 0x2D8978C01EC088ADF9EAEAD7BD9C7271AA3098806D0FD7A5C7BAE833B2A52B2C SWAP2 ADD PUSH1 0x40 MLOAD DUP1 SWAP2 SUB SWAP1 LOG2 POP POP POP POP POP JUMP JUMPDEST PUSH2 0x72E PUSH1 0x40 MLOAD DUP1 PUSH1 0xA0 ADD PUSH1 0x40 MSTORE DUP1 PUSH1 0x0 DUP2 MSTORE PUSH1 0x20 ADD PUSH1 0x0 DUP2 MSTORE PUSH1 0x20 ADD PUSH1 0x0 DUP2 MSTORE PUSH1 0x20 ADD PUSH1 0x0 DUP2 MSTORE PUSH1 0x20 ADD PUSH1 0x0 ISZERO ISZERO DUP2 MSTORE POP SWAP1 JUMP JUMPDEST POP PUSH1 0x0 SWAP1 DUP2 MSTORE PUSH1 0x1 PUSH1 0x20 DUP2 DUP2 MSTORE PUSH1 0x40 SWAP3 DUP4 SWAP1 KECCAK256 DUP4 MLOAD PUSH1 0xA0 DUP2 ADD DUP6 MSTORE DUP2 SLOAD DUP2 MSTORE SWAP3 DUP2 ADD SLOAD SWAP2 DUP4 ADD SWAP2 SWAP1 SWAP2 MSTORE PUSH1 0x2 DUP2 ADD SLOAD SWAP3 DUP3 ADD SWAP3 SWAP1 SWAP3 MSTORE PUSH1 0x3 DUP3 ADD SLOAD PUSH1 0x60 DUP3 ADD MSTORE PUSH1 0x4 SWAP1 SWAP2 ADD SLOAD PUSH1 0xFF AND ISZERO ISZERO PUSH1 0x80 DUP3 ADD MSTORE SWAP1 JUMP JUMPDEST PUSH1 0x0 DUP2 DUP2 MSTORE PUSH1 0x1 PUSH1 0x20 DUP2 SWAP1 MSTORE PUSH1 0x40 DUP3 KECCAK256 ADD SLOAD DUP2 SUB PUSH2 0x7A1 JUMPI POP PUSH1 0x0 SWAP2 SWAP1 POP JUMP JUMPDEST PUSH1 0x0 DUP3 DUP2 MSTORE PUSH1 0x1 PUSH1 0x20 DUP2 SWAP1 MSTORE PUSH1 0x40 SWAP1 SWAP2 KECCAK256 SWAP1 DUP2 ADD SLOAD PUSH1 0x2 SWAP1 SWAP2 ADD SLOAD PUSH2 0x7C7 SWAP1 PUSH1 0x64 PUSH2 0xA8F JUMP JUMPDEST PUSH2 0x387 SWAP2 SWAP1 PUSH2 0xAA6 JUMP JUMPDEST PUSH1 0x0 SWAP2 DUP3 MSTORE PUSH1 0x20 DUP3 DUP2 MSTORE PUSH1 0x40 DUP1 DUP5 KECCAK256 PUSH1 0x1 PUSH1 0x1 PUSH1 0xA0 SHL SUB SWAP4 SWAP1 SWAP4 AND DUP5 MSTORE SWAP2 SWAP1 MSTORE SWAP1 KECCAK256 SLOAD PUSH1 0xFF AND SWAP1 JUMP JUMPDEST PUSH1 0x0 DUP3 DUP2 MSTORE PUSH1 0x20 DUP2 SWAP1 MSTORE PUSH1 0x40 SWAP1 KECCAK256 PUSH1 0x1 ADD SLOAD PUSH2 0x815 DUP2 PUSH2 0x81F JUMP JUMPDEST PUSH2 0x5AA DUP4 DUP4 PUSH2 0x8BE JUMP JUMPDEST PUSH2 0x829 DUP2 CALLER PUSH2 0x929 JUMP JUMPDEST POP JUMP JUMPDEST PUSH1 0x0 PUSH2 0x838 DUP4 DUP4 PUSH2 0x7D1 JUMP JUMPDEST PUSH2 0x8B6 JUMPI PUSH1 0x0 DUP4 DUP2 MSTORE PUSH1 0x20 DUP2 DUP2 MSTORE PUSH1 0x40 DUP1 DUP4 KECCAK256 PUSH1 0x1 PUSH1 0x1 PUSH1 0xA0 SHL SUB DUP7 AND DUP5 MSTORE SWAP1 SWAP2 MSTORE SWAP1 KECCAK256 DUP1 SLOAD PUSH1 0xFF NOT AND PUSH1 0x1 OR SWAP1 SSTORE PUSH2 0x86E CALLER SWAP1 JUMP JUMPDEST PUSH1 0x1 PUSH1 0x1 PUSH1 0xA0 SHL SUB AND DUP3 PUSH1 0x1 PUSH1 0x1 PUSH1 0xA0 SHL SUB AND DUP5 PUSH32 0x2F8788117E7EFF1D82E926EC794901D17C78024A50270940304540A733656F0D PUSH1 0x40 MLOAD PUSH1 0x40 MLOAD DUP1 SWAP2 SUB SWAP1 LOG4 POP PUSH1 0x1 PUSH2 0x387 JUMP JUMPDEST POP PUSH1 0x0 PUSH2 0x387 JUMP JUMPDEST PUSH1 0x0 PUSH2 0x8CA DUP4 DUP4 PUSH2 0x7D1 JUMP JUMPDEST ISZERO PUSH2 0x8B6 JUMPI PUSH1 0x0 DUP4 DUP2 MSTORE PUSH1 0x20 DUP2 DUP2 MSTORE PUSH1 0x40 DUP1 DUP4 KECCAK256 PUSH1 0x1 PUSH1 0x1 PUSH1 0xA0 SHL SUB DUP7 AND DUP1 DUP6 MSTORE SWAP3 MSTORE DUP1 DUP4 KECCAK256 DUP1 SLOAD PUSH1 0xFF NOT AND SWAP1 SSTORE MLOAD CALLER SWAP3 DUP7 SWAP2 PUSH32 0xF6391F5C32D9C69D2A47EA670B442974B53935D1EDC7FD64EB21E047A839171B SWAP2 SWAP1 LOG4 POP PUSH1 0x1 PUSH2 0x387 JUMP JUMPDEST PUSH2 0x933 DUP3 DUP3 PUSH2 0x7D1 JUMP JUMPDEST PUSH2 0x962 JUMPI PUSH1 0x40 MLOAD PUSH4 0xE2517D3F PUSH1 0xE0 SHL DUP2 MSTORE PUSH1 0x1 PUSH1 0x1 PUSH1 0xA0 SHL SUB DUP3 AND PUSH1 0x4 DUP3 ADD MSTORE PUSH1 0x24 DUP2 ADD DUP4 SWAP1 MSTORE PUSH1 0x44 ADD PUSH2 0x40B JUMP JUMPDEST POP POP JUMP JUMPDEST PUSH1 0x0 PUSH1 0x20 DUP3 DUP5 SUB SLT ISZERO PUSH2 0x978 JUMPI PUSH1 0x0 DUP1 REVERT JUMPDEST DUP2 CALLDATALOAD PUSH1 0x1 PUSH1 0x1 PUSH1 0xE0 SHL SUB NOT DUP2 AND DUP2 EQ PUSH2 0x990 JUMPI PUSH1 0x0 DUP1 REVERT JUMPDEST SWAP4 SWAP3 POP POP POP JUMP JUMPDEST PUSH1 0x0 PUSH1 0x20 DUP3 DUP5 SUB SLT ISZERO PUSH2 0x9A9 JUMPI PUSH1 0x0 DUP1 REVERT JUMPDEST POP CALLDATALOAD SWAP2 SWAP1 POP JUMP JUMPDEST PUSH1 0x0 DUP1 PUSH1 0x40 DUP4 DUP6 SUB SLT ISZERO PUSH2 0x9C3 JUMPI PUSH1 0x0 DUP1 REVERT JUMPDEST DUP3 CALLDATALOAD SWAP2 POP PUSH1 0x20 DUP4 ADD CALLDATALOAD DUP1 ISZERO ISZERO DUP2 EQ PUSH2 0x9DA JUMPI PUSH1 0x0 DUP1 REVERT JUMPDEST DUP1 SWAP2 POP POP SWAP3 POP SWAP3 SWAP1 POP JUMP JUMPDEST PUSH1 0x0 DUP1 PUSH1 0x40 DUP4 DUP6 SUB SLT ISZERO PUSH2 0x9F8 JUMPI PUSH1 0x0 DUP1 REVERT JUMPDEST DUP3 CALLDATALOAD SWAP2 POP PUSH1 0x20 DUP4 ADD CALLDATALOAD PUSH1 0x1 PUSH1 0x1 PUSH1 0xA0 SHL SUB DUP2 AND DUP2 EQ PUSH2 0x9DA JUMPI PUSH1 0x0 DUP1 REVERT JUMPDEST PUSH1 0x0 DUP1 PUSH1 0x40 DUP4 DUP6 SUB SLT ISZERO PUSH2 0xA29 JUMPI PUSH1 0x0 DUP1 REVERT JUMPDEST POP POP DUP1 CALLDATALOAD SWAP3 PUSH1 0x20 SWAP1 SWAP2 ADD CALLDATALOAD SWAP2 POP JUMP JUMPDEST PUSH4 0x4E487B71 PUSH1 0xE0 SHL PUSH1 0x0 MSTORE PUSH1 0x11 PUSH1 0x4 MSTORE PUSH1 0x24 PUSH1 0x0 REVERT JUMPDEST PUSH1 0x0 PUSH1 0x1 DUP3 ADD PUSH2 0xA60 JUMPI PUSH2 0xA60 PUSH2 0xA38 JUMP JUMPDEST POP PUSH1 0x1 ADD SWAP1 JUMP JUMPDEST DUP1 DUP3 ADD DUP3 DUP2 SLT PUSH1 0x0 DUP4 SLT DUP1 ISZERO DUP3 AND DUP3 ISZERO DUP3 AND OR ISZERO PUSH2 0xA87 JUMPI PUSH2 0xA87 PUSH2 0xA38 JUMP JUMPDEST POP POP SWAP3 SWAP2 POP POP JUMP JUMPDEST DUP1 DUP3 MUL DUP2 ISZERO DUP3 DUP3 DIV DUP5 EQ OR PUSH2 0x387 JUMPI PUSH2 0x387 PUSH2 0xA38 JUMP JUMPDEST PUSH1 0x0 DUP3 PUSH2 0xAC3 JUMPI PUSH4 0x4E487B71 PUSH1 0xE0 SHL PUSH1 0x0 MSTORE PUSH1 0x12 PUSH1 0x4 MSTORE PUSH1 0x24 PUSH1 0x0 REVERT JUMPDEST POP DIV SWAP1 JUMP INVALID LOG2 PUSH5 0x6970667358 0x22 SLT KECCAK256 0xFB LOG3 CODESIZE 0x27 0xE9 0xC7 PUSH5 0x8BF159EE62 RETURN SWAP9 PUSH17 0x9CACC6EA296AB086D013F842083A8EC0B9 PUSH5 0x736F6C6343 STOP ADDMOD EQ STOP CALLER "},"methodIdentifiers":{"DEFAULT_ADMIN_ROLE()":"a217fddf","MAX_REPUTATION()":"d213c0f2","MIN_REPUTATION()":"697c6045","ORACLE_ROLE()":"07e2cea5","UPDATER_ROLE()":"47e63380","getReputation(uint256)":"89370d8b","getRoleAdmin(bytes32)":"248a9ca3","getScore(uint256)":"0e1af57b","getSuccessRate(uint256)":"8a650841","grantRole(bytes32,address)":"2f2ff15d","hasRole(bytes32,address)":"91d14854","initializeReputation(uint256)":"0d889131","recordAction(uint256,bool)":"2a31da8d","renounceRole(bytes32,address)":"36568abe","reputation(uint256)":"56c708d5","revokeRole(bytes32,address)":"d547741f","supportsInterface(bytes4)":"01ffc9a7","updateReputation(uint256,int256)":"464c401d"}}}}}