{"contracts/liquidity/OANLiquidityPool.sol":{"OANLiquidityPool":{"abi":[{"inputs":[],"stateMutability":"nonpayable","type":"constructor"},{"inputs":[{"internalType":"address","name":"owner","type":"address"}],"name":"OwnableInvalidOwner","type":"error"},{"inputs":[{"internalType":"address","name":"account","type":"address"}],"name":"OwnableUnauthorizedAccount","type":"error"},{"inputs":[],"name":"ReentrancyGuardReentrantCall","type":"error"},{"anonymous":false,"inputs":[{"indexed":true,"internalType":"address","name":"provider","type":"address"},{"indexed":false,"internalType":"uint256","name":"ethAmount","type":"uint256"},{"indexed":false,"internalType":"uint256","name":"tokenAmount","type":"uint256"},{"indexed":false,"internalType":"uint256","name":"shares","type":"uint256"}],"name":"LiquidityAdded","type":"event"},{"anonymous":false,"inputs":[{"indexed":true,"internalType":"address","name":"provider","type":"address"},{"indexed":false,"internalType":"uint256","name":"ethAmount","type":"uint256"},{"indexed":false,"internalType":"uint256","name":"tokenAmount","type":"uint256"}],"name":"LiquidityRemoved","type":"event"},{"anonymous":false,"inputs":[{"indexed":true,"internalType":"address","name":"previousOwner","type":"address"},{"indexed":true,"internalType":"address","name":"newOwner","type":"address"}],"name":"OwnershipTransferred","type":"event"},{"anonymous":false,"inputs":[{"indexed":true,"internalType":"address","name":"user","type":"address"},{"indexed":false,"internalType":"uint256","name":"amountIn","type":"uint256"},{"indexed":false,"internalType":"uint256","name":"amountOut","type":"uint256"},{"indexed":false,"internalType":"bool","name":"ethToToken","type":"bool"}],"name":"Swap","type":"event"},{"inputs":[],"name":"FEE_DENOMINATOR","outputs":[{"internalType":"uint256","name":"","type":"uint256"}],"stateMutability":"view","type":"function"},{"inputs":[{"internalType":"uint256","name":"tokenAmount","type":"uint256"}],"name":"addLiquidity","outputs":[],"stateMutability":"payable","type":"function"},{"inputs":[{"internalType":"uint256","name":"tokenAmount","type":"uint256"}],"name":"getEthForTokens","outputs":[{"internalType":"uint256","name":"","type":"uint256"}],"stateMutability":"view","type":"function"},{"inputs":[],"name":"getPoolStats","outputs":[{"internalType":"uint256","name":"eth","type":"uint256"},{"internalType":"uint256","name":"tokens","type":"uint256"},{"internalType":"uint256","name":"shares","type":"uint256"},{"internalType":"uint256","name":"providers","type":"uint256"}],"stateMutability":"view","type":"function"},{"inputs":[{"internalType":"uint256","name":"ethAmount","type":"uint256"}],"name":"getTokensForEth","outputs":[{"internalType":"uint256","name":"","type":"uint256"}],"stateMutability":"view","type":"function"},{"inputs":[],"name":"owner","outputs":[{"internalType":"address","name":"","type":"address"}],"stateMutability":"view","type":"function"},{"inputs":[{"internalType":"address","name":"","type":"address"}],"name":"providers","outputs":[{"internalType":"uint256","name":"ethAmount","type":"uint256"},{"internalType":"uint256","name":"tokenAmount","type":"uint256"},{"internalType":"uint256","name":"shares","type":"uint256"},{"internalType":"uint256","name":"depositedAt","type":"uint256"}],"stateMutability":"view","type":"function"},{"inputs":[{"internalType":"uint256","name":"shares","type":"uint256"}],"name":"removeLiquidity","outputs":[],"stateMutability":"nonpayable","type":"function"},{"inputs":[],"name":"renounceOwnership","outputs":[],"stateMutability":"nonpayable","type":"function"},{"inputs":[],"name":"swapEthForTokens","outputs":[],"stateMutability":"payable","type":"function"},{"inputs":[],"name":"swapFee","outputs":[{"internalType":"uint256","name":"","type":"uint256"}],"stateMutability":"view","type":"function"},{"inputs":[],"name":"totalEth","outputs":[{"internalType":"uint256","name":"","type":"uint256"}],"stateMutability":"view","type":"function"},{"inputs":[],"name":"totalProviders","outputs":[{"internalType":"uint256","name":"","type":"uint256"}],"stateMutability":"view","type":"function"},{"inputs":[],"name":"totalShares","outputs":[{"internalType":"uint256","name":"","type":"uint256"}],"stateMutability":"view","type":"function"},{"inputs":[],"name":"totalTokens","outputs":[{"internalType":"uint256","name":"","type":"uint256"}],"stateMutability":"view","type":"function"},{"inputs":[{"internalType":"address","name":"newOwner","type":"address"}],"name":"transferOwnership","outputs":[],"stateMutability":"nonpayable","type":"function"},{"stateMutability":"payable","type":"receive"}],"evm":{"bytecode":{"linkReferences":{},"object":"6080604052601e60075534801561001557600080fd5b50338061003c57604051631e4fbdf760e01b81526000600482015260240160405180910390fd5b6100458161004f565b506001805561009f565b600080546001600160a01b038381166001600160a01b0319831681178455604051919092169283917f8be0079c531659141344cd1fd0a4f28419497f9722a3daafe3b4186f6b6457e09190a35050565b610acb806100ae6000396000f3fe6080604052600436106100f75760003560e01c80638da5cb5b1161008a578063bbb8518811610059578063bbb8518814610282578063d73792a9146102a0578063dfe100d4146102b6578063f2fde38b146102d657600080fd5b80638da5cb5b1461021c57806396616b1f146102445780639c8f9f231461025a578063b14e055e1461027a57600080fd5b806354cf2aeb116100c657806354cf2aeb146101bb5780636cd64ccb146101d1578063715018a6146101f15780637e1c0c091461020657600080fd5b80630787bc27146101035780633a98ef391461016c5780633c3c9c231461019057806351c6590a146101a657600080fd5b366100fe57005b600080fd5b34801561010f57600080fd5b5061014761011e3660046109be565b600260208190526000918252604090912080546001820154928201546003909201549092919084565b6040805194855260208501939093529183015260608201526080015b60405180910390f35b34801561017857600080fd5b5061018260055481565b604051908152602001610163565b34801561019c57600080fd5b5061018260035481565b6101b96101b43660046109ee565b6102f6565b005b3480156101c757600080fd5b5061018260075481565b3480156101dd57600080fd5b506101826101ec3660046109ee565b61052d565b3480156101fd57600080fd5b506101b9610578565b34801561021257600080fd5b5061018260045481565b34801561022857600080fd5b506000546040516001600160a01b039091168152602001610163565b34801561025057600080fd5b5061018260065481565b34801561026657600080fd5b506101b96102753660046109ee565b61058c565b6101b96107a0565b34801561028e57600080fd5b50600354600454600554600654610147565b3480156102ac57600080fd5b5061018261271081565b3480156102c257600080fd5b506101826102d13660046109ee565b6108a1565b3480156102e257600080fd5b506101b96102f13660046109be565b6108dc565b6102fe610917565b600034116103435760405162461bcd60e51b815260206004820152600d60248201526c09aeae6e840e6cadcc8408aa89609b1b60448201526064015b60405180910390fd5b600081116103865760405162461bcd60e51b815260206004820152601060248201526f4d7573742073656e6420746f6b656e7360801b604482015260640161033a565b60006005546000036103995750346103eb565b6000600354600554346103ac9190610a1d565b6103b69190610a34565b90506000600454600554856103cb9190610a1d565b6103d59190610a34565b90508082106103e457806103e6565b815b925050505b336000908152600260205260408120805434929061040a908490610a56565b90915550503360009081526002602052604081206001018054849290610431908490610a56565b90915550503360009081526002602081905260408220018054839290610458908490610a56565b90915550503360009081526002602081905260409091204260038201550154819003610494576006805490600061048e83610a69565b91905055505b34600360008282546104a69190610a56565b9250508190555081600460008282546104bf9190610a56565b9250508190555080600560008282546104d89190610a56565b9091555050604080513481526020810184905290810182905233907f64b83944e79c3ce8d4c297411de637c3e102d064677aac0c163976ebdcd6f50e9060600160405180910390a25061052a60018055565b50565b6000600354600014806105405750600454155b1561054d57506000919050565b8160045461055b9190610a56565b6003546105689084610a1d565b6105729190610a34565b92915050565b610580610941565b61058a600061096e565b565b610594610917565b600081116105d55760405162461bcd60e51b815260206004820152600e60248201526d496e76616c69642073686172657360901b604482015260640161033a565b336000908152600260208190526040909120015481111561062e5760405162461bcd60e51b8152602060048201526013602482015272496e73756666696369656e742073686172657360681b604482015260640161033a565b6000600554600354836106419190610a1d565b61064b9190610a34565b90506000600554600454846106609190610a1d565b61066a9190610a34565b33600090815260026020819052604082200180549293508592909190610691908490610a82565b909155505033600090815260026020526040812080548492906106b5908490610a82565b909155505033600090815260026020526040812060010180548392906106dc908490610a82565b9250508190555082600560008282546106f59190610a82565b92505081905550816003600082825461070e9190610a82565b9250508190555080600460008282546107279190610a82565b9091555050604051339083156108fc029084906000818181858888f19350505050158015610759573d6000803e3d6000fd5b50604080518381526020810183905233917f96cd817c6329656790ef8fba7675405193677d39619571282f5e21f3a98cd059910160405180910390a2505061052a60018055565b6107a8610917565b600034116107e85760405162461bcd60e51b815260206004820152600d60248201526c09aeae6e840e6cadcc8408aa89609b1b604482015260640161033a565b6000612710600754346107fb9190610a1d565b6108059190610a34565b905060006108138234610a82565b90506000610820826108a1565b905034600360008282546108349190610a56565b92505081905550806004600082825461084d9190610a82565b90915550506040805134815260208101839052600181830152905133917fcc65e4d9060ece2ecf63011ac580550b04c8daeba63fac4dfe8669353cd88859919081900360600190a250505061058a60018055565b6000600354600014806108b45750600454155b156108c157506000919050565b816003546108cf9190610a56565b6004546105689084610a1d565b6108e4610941565b6001600160a01b03811661090e57604051631e4fbdf760e01b81526000600482015260240161033a565b61052a8161096e565b60026001540361093a57604051633ee5aeb560e01b815260040160405180910390fd5b6002600155565b6000546001600160a01b0316331461058a5760405163118cdaa760e01b815233600482015260240161033a565b600080546001600160a01b038381166001600160a01b0319831681178455604051919092169283917f8be0079c531659141344cd1fd0a4f28419497f9722a3daafe3b4186f6b6457e09190a35050565b6000602082840312156109d057600080fd5b81356001600160a01b03811681146109e757600080fd5b9392505050565b600060208284031215610a0057600080fd5b5035919050565b634e487b7160e01b600052601160045260246000fd5b808202811582820484141761057257610572610a07565b600082610a5157634e487b7160e01b600052601260045260246000fd5b500490565b8082018082111561057257610572610a07565b600060018201610a7b57610a7b610a07565b5060010190565b8181038181111561057257610572610a0756fea2646970667358221220e6439c91ffae3625f3f509be8f31eb2ee290e21b2ff61f86f9e6613c815db0fb64736f6c63430008140033","opcodes":"PUSH1 0x80 PUSH1 0x40 MSTORE PUSH1 0x1E PUSH1 0x7 SSTORE CALLVALUE DUP1 ISZERO PUSH2 0x15 JUMPI PUSH1 0x0 DUP1 REVERT JUMPDEST POP CALLER DUP1 PUSH2 0x3C JUMPI PUSH1 0x40 MLOAD PUSH4 0x1E4FBDF7 PUSH1 0xE0 SHL DUP2 MSTORE PUSH1 0x0 PUSH1 0x4 DUP3 ADD MSTORE PUSH1 0x24 ADD PUSH1 0x40 MLOAD DUP1 SWAP2 SUB SWAP1 REVERT JUMPDEST PUSH2 0x45 DUP2 PUSH2 0x4F JUMP JUMPDEST POP PUSH1 0x1 DUP1 SSTORE PUSH2 0x9F JUMP JUMPDEST PUSH1 0x0 DUP1 SLOAD PUSH1 0x1 PUSH1 0x1 PUSH1 0xA0 SHL SUB DUP4 DUP2 AND PUSH1 0x1 PUSH1 0x1 PUSH1 0xA0 SHL SUB NOT DUP4 AND DUP2 OR DUP5 SSTORE PUSH1 0x40 MLOAD SWAP2 SWAP1 SWAP3 AND SWAP3 DUP4 SWAP2 PUSH32 0x8BE0079C531659141344CD1FD0A4F28419497F9722A3DAAFE3B4186F6B6457E0 SWAP2 SWAP1 LOG3 POP POP JUMP JUMPDEST PUSH2 0xACB DUP1 PUSH2 0xAE PUSH1 0x0 CODECOPY PUSH1 0x0 RETURN INVALID PUSH1 0x80 PUSH1 0x40 MSTORE PUSH1 0x4 CALLDATASIZE LT PUSH2 0xF7 JUMPI PUSH1 0x0 CALLDATALOAD PUSH1 0xE0 SHR DUP1 PUSH4 0x8DA5CB5B GT PUSH2 0x8A JUMPI DUP1 PUSH4 0xBBB85188 GT PUSH2 0x59 JUMPI DUP1 PUSH4 0xBBB85188 EQ PUSH2 0x282 JUMPI DUP1 PUSH4 0xD73792A9 EQ PUSH2 0x2A0 JUMPI DUP1 PUSH4 0xDFE100D4 EQ PUSH2 0x2B6 JUMPI DUP1 PUSH4 0xF2FDE38B EQ PUSH2 0x2D6 JUMPI PUSH1 0x0 DUP1 REVERT JUMPDEST DUP1 PUSH4 0x8DA5CB5B EQ PUSH2 0x21C JUMPI DUP1 PUSH4 0x96616B1F EQ PUSH2 0x244 JUMPI DUP1 PUSH4 0x9C8F9F23 EQ PUSH2 0x25A JUMPI DUP1 PUSH4 0xB14E055E EQ PUSH2 0x27A JUMPI PUSH1 0x0 DUP1 REVERT JUMPDEST DUP1 PUSH4 0x54CF2AEB GT PUSH2 0xC6 JUMPI DUP1 PUSH4 0x54CF2AEB EQ PUSH2 0x1BB JUMPI DUP1 PUSH4 0x6CD64CCB EQ PUSH2 0x1D1 JUMPI DUP1 PUSH4 0x715018A6 EQ PUSH2 0x1F1 JUMPI DUP1 PUSH4 0x7E1C0C09 EQ PUSH2 0x206 JUMPI PUSH1 0x0 DUP1 REVERT JUMPDEST DUP1 PUSH4 0x787BC27 EQ PUSH2 0x103 JUMPI DUP1 PUSH4 0x3A98EF39 EQ PUSH2 0x16C JUMPI DUP1 PUSH4 0x3C3C9C23 EQ PUSH2 0x190 JUMPI DUP1 PUSH4 0x51C6590A EQ PUSH2 0x1A6 JUMPI PUSH1 0x0 DUP1 REVERT JUMPDEST CALLDATASIZE PUSH2 0xFE JUMPI STOP JUMPDEST PUSH1 0x0 DUP1 REVERT JUMPDEST CALLVALUE DUP1 ISZERO PUSH2 0x10F JUMPI PUSH1 0x0 DUP1 REVERT JUMPDEST POP PUSH2 0x147 PUSH2 0x11E CALLDATASIZE PUSH1 0x4 PUSH2 0x9BE JUMP JUMPDEST PUSH1 0x2 PUSH1 0x20 DUP2 SWAP1 MSTORE PUSH1 0x0 SWAP2 DUP3 MSTORE PUSH1 0x40 SWAP1 SWAP2 KECCAK256 DUP1 SLOAD PUSH1 0x1 DUP3 ADD SLOAD SWAP3 DUP3 ADD SLOAD PUSH1 0x3 SWAP1 SWAP3 ADD SLOAD SWAP1 SWAP3 SWAP2 SWAP1 DUP5 JUMP JUMPDEST PUSH1 0x40 DUP1 MLOAD SWAP5 DUP6 MSTORE PUSH1 0x20 DUP6 ADD SWAP4 SWAP1 SWAP4 MSTORE SWAP2 DUP4 ADD MSTORE PUSH1 0x60 DUP3 ADD MSTORE PUSH1 0x80 ADD JUMPDEST PUSH1 0x40 MLOAD DUP1 SWAP2 SUB SWAP1 RETURN JUMPDEST CALLVALUE DUP1 ISZERO PUSH2 0x178 JUMPI PUSH1 0x0 DUP1 REVERT JUMPDEST POP PUSH2 0x182 PUSH1 0x5 SLOAD DUP2 JUMP JUMPDEST PUSH1 0x40 MLOAD SWAP1 DUP2 MSTORE PUSH1 0x20 ADD PUSH2 0x163 JUMP JUMPDEST CALLVALUE DUP1 ISZERO PUSH2 0x19C JUMPI PUSH1 0x0 DUP1 REVERT JUMPDEST POP PUSH2 0x182 PUSH1 0x3 SLOAD DUP2 JUMP JUMPDEST PUSH2 0x1B9 PUSH2 0x1B4 CALLDATASIZE PUSH1 0x4 PUSH2 0x9EE JUMP JUMPDEST PUSH2 0x2F6 JUMP JUMPDEST STOP JUMPDEST CALLVALUE DUP1 ISZERO PUSH2 0x1C7 JUMPI PUSH1 0x0 DUP1 REVERT JUMPDEST POP PUSH2 0x182 PUSH1 0x7 SLOAD DUP2 JUMP JUMPDEST CALLVALUE DUP1 ISZERO PUSH2 0x1DD JUMPI PUSH1 0x0 DUP1 REVERT JUMPDEST POP PUSH2 0x182 PUSH2 0x1EC CALLDATASIZE PUSH1 0x4 PUSH2 0x9EE JUMP JUMPDEST PUSH2 0x52D JUMP JUMPDEST CALLVALUE DUP1 ISZERO PUSH2 0x1FD JUMPI PUSH1 0x0 DUP1 REVERT JUMPDEST POP PUSH2 0x1B9 PUSH2 0x578 JUMP JUMPDEST CALLVALUE DUP1 ISZERO PUSH2 0x212 JUMPI PUSH1 0x0 DUP1 REVERT JUMPDEST POP PUSH2 0x182 PUSH1 0x4 SLOAD DUP2 JUMP JUMPDEST CALLVALUE DUP1 ISZERO PUSH2 0x228 JUMPI PUSH1 0x0 DUP1 REVERT JUMPDEST POP PUSH1 0x0 SLOAD PUSH1 0x40 MLOAD PUSH1 0x1 PUSH1 0x1 PUSH1 0xA0 SHL SUB SWAP1 SWAP2 AND DUP2 MSTORE PUSH1 0x20 ADD PUSH2 0x163 JUMP JUMPDEST CALLVALUE DUP1 ISZERO PUSH2 0x250 JUMPI PUSH1 0x0 DUP1 REVERT JUMPDEST POP PUSH2 0x182 PUSH1 0x6 SLOAD DUP2 JUMP JUMPDEST CALLVALUE DUP1 ISZERO PUSH2 0x266 JUMPI PUSH1 0x0 DUP1 REVERT JUMPDEST POP PUSH2 0x1B9 PUSH2 0x275 CALLDATASIZE PUSH1 0x4 PUSH2 0x9EE JUMP JUMPDEST PUSH2 0x58C JUMP JUMPDEST PUSH2 0x1B9 PUSH2 0x7A0 JUMP JUMPDEST CALLVALUE DUP1 ISZERO PUSH2 0x28E JUMPI PUSH1 0x0 DUP1 REVERT JUMPDEST POP PUSH1 0x3 SLOAD PUSH1 0x4 SLOAD PUSH1 0x5 SLOAD PUSH1 0x6 SLOAD PUSH2 0x147 JUMP JUMPDEST CALLVALUE DUP1 ISZERO PUSH2 0x2AC JUMPI PUSH1 0x0 DUP1 REVERT JUMPDEST POP PUSH2 0x182 PUSH2 0x2710 DUP2 JUMP JUMPDEST CALLVALUE DUP1 ISZERO PUSH2 0x2C2 JUMPI PUSH1 0x0 DUP1 REVERT JUMPDEST POP PUSH2 0x182 PUSH2 0x2D1 CALLDATASIZE PUSH1 0x4 PUSH2 0x9EE JUMP JUMPDEST PUSH2 0x8A1 JUMP JUMPDEST CALLVALUE DUP1 ISZERO PUSH2 0x2E2 JUMPI PUSH1 0x0 DUP1 REVERT JUMPDEST POP PUSH2 0x1B9 PUSH2 0x2F1 CALLDATASIZE PUSH1 0x4 PUSH2 0x9BE JUMP JUMPDEST PUSH2 0x8DC JUMP JUMPDEST PUSH2 0x2FE PUSH2 0x917 JUMP JUMPDEST PUSH1 0x0 CALLVALUE GT PUSH2 0x343 JUMPI PUSH1 0x40 MLOAD PUSH3 0x461BCD PUSH1 0xE5 SHL DUP2 MSTORE PUSH1 0x20 PUSH1 0x4 DUP3 ADD MSTORE PUSH1 0xD PUSH1 0x24 DUP3 ADD MSTORE PUSH13 0x9AEAE6E840E6CADCC8408AA89 PUSH1 0x9B SHL PUSH1 0x44 DUP3 ADD MSTORE PUSH1 0x64 ADD JUMPDEST PUSH1 0x40 MLOAD DUP1 SWAP2 SUB SWAP1 REVERT JUMPDEST PUSH1 0x0 DUP2 GT PUSH2 0x386 JUMPI PUSH1 0x40 MLOAD PUSH3 0x461BCD PUSH1 0xE5 SHL DUP2 MSTORE PUSH1 0x20 PUSH1 0x4 DUP3 ADD MSTORE PUSH1 0x10 PUSH1 0x24 DUP3 ADD MSTORE PUSH16 0x4D7573742073656E6420746F6B656E73 PUSH1 0x80 SHL PUSH1 0x44 DUP3 ADD MSTORE PUSH1 0x64 ADD PUSH2 0x33A JUMP JUMPDEST PUSH1 0x0 PUSH1 0x5 SLOAD PUSH1 0x0 SUB PUSH2 0x399 JUMPI POP CALLVALUE PUSH2 0x3EB JUMP JUMPDEST PUSH1 0x0 PUSH1 0x3 SLOAD PUSH1 0x5 SLOAD CALLVALUE PUSH2 0x3AC SWAP2 SWAP1 PUSH2 0xA1D JUMP JUMPDEST PUSH2 0x3B6 SWAP2 SWAP1 PUSH2 0xA34 JUMP JUMPDEST SWAP1 POP PUSH1 0x0 PUSH1 0x4 SLOAD PUSH1 0x5 SLOAD DUP6 PUSH2 0x3CB SWAP2 SWAP1 PUSH2 0xA1D JUMP JUMPDEST PUSH2 0x3D5 SWAP2 SWAP1 PUSH2 0xA34 JUMP JUMPDEST SWAP1 POP DUP1 DUP3 LT PUSH2 0x3E4 JUMPI DUP1 PUSH2 0x3E6 JUMP JUMPDEST DUP2 JUMPDEST SWAP3 POP POP POP JUMPDEST CALLER PUSH1 0x0 SWAP1 DUP2 MSTORE PUSH1 0x2 PUSH1 0x20 MSTORE PUSH1 0x40 DUP2 KECCAK256 DUP1 SLOAD CALLVALUE SWAP3 SWAP1 PUSH2 0x40A SWAP1 DUP5 SWAP1 PUSH2 0xA56 JUMP JUMPDEST SWAP1 SWAP2 SSTORE POP POP CALLER PUSH1 0x0 SWAP1 DUP2 MSTORE PUSH1 0x2 PUSH1 0x20 MSTORE PUSH1 0x40 DUP2 KECCAK256 PUSH1 0x1 ADD DUP1 SLOAD DUP5 SWAP3 SWAP1 PUSH2 0x431 SWAP1 DUP5 SWAP1 PUSH2 0xA56 JUMP JUMPDEST SWAP1 SWAP2 SSTORE POP POP CALLER PUSH1 0x0 SWAP1 DUP2 MSTORE PUSH1 0x2 PUSH1 0x20 DUP2 SWAP1 MSTORE PUSH1 0x40 DUP3 KECCAK256 ADD DUP1 SLOAD DUP4 SWAP3 SWAP1 PUSH2 0x458 SWAP1 DUP5 SWAP1 PUSH2 0xA56 JUMP JUMPDEST SWAP1 SWAP2 SSTORE POP POP CALLER PUSH1 0x0 SWAP1 DUP2 MSTORE PUSH1 0x2 PUSH1 0x20 DUP2 SWAP1 MSTORE PUSH1 0x40 SWAP1 SWAP2 KECCAK256 TIMESTAMP PUSH1 0x3 DUP3 ADD SSTORE ADD SLOAD DUP2 SWAP1 SUB PUSH2 0x494 JUMPI PUSH1 0x6 DUP1 SLOAD SWAP1 PUSH1 0x0 PUSH2 0x48E DUP4 PUSH2 0xA69 JUMP JUMPDEST SWAP2 SWAP1 POP SSTORE POP JUMPDEST CALLVALUE PUSH1 0x3 PUSH1 0x0 DUP3 DUP3 SLOAD PUSH2 0x4A6 SWAP2 SWAP1 PUSH2 0xA56 JUMP JUMPDEST SWAP3 POP POP DUP2 SWAP1 SSTORE POP DUP2 PUSH1 0x4 PUSH1 0x0 DUP3 DUP3 SLOAD PUSH2 0x4BF SWAP2 SWAP1 PUSH2 0xA56 JUMP JUMPDEST SWAP3 POP POP DUP2 SWAP1 SSTORE POP DUP1 PUSH1 0x5 PUSH1 0x0 DUP3 DUP3 SLOAD PUSH2 0x4D8 SWAP2 SWAP1 PUSH2 0xA56 JUMP JUMPDEST SWAP1 SWAP2 SSTORE POP POP PUSH1 0x40 DUP1 MLOAD CALLVALUE DUP2 MSTORE PUSH1 0x20 DUP2 ADD DUP5 SWAP1 MSTORE SWAP1 DUP2 ADD DUP3 SWAP1 MSTORE CALLER SWAP1 PUSH32 0x64B83944E79C3CE8D4C297411DE637C3E102D064677AAC0C163976EBDCD6F50E SWAP1 PUSH1 0x60 ADD PUSH1 0x40 MLOAD DUP1 SWAP2 SUB SWAP1 LOG2 POP PUSH2 0x52A PUSH1 0x1 DUP1 SSTORE JUMP JUMPDEST POP JUMP JUMPDEST PUSH1 0x0 PUSH1 0x3 SLOAD PUSH1 0x0 EQ DUP1 PUSH2 0x540 JUMPI POP PUSH1 0x4 SLOAD ISZERO JUMPDEST ISZERO PUSH2 0x54D JUMPI POP PUSH1 0x0 SWAP2 SWAP1 POP JUMP JUMPDEST DUP2 PUSH1 0x4 SLOAD PUSH2 0x55B SWAP2 SWAP1 PUSH2 0xA56 JUMP JUMPDEST PUSH1 0x3 SLOAD PUSH2 0x568 SWAP1 DUP5 PUSH2 0xA1D JUMP JUMPDEST PUSH2 0x572 SWAP2 SWAP1 PUSH2 0xA34 JUMP JUMPDEST SWAP3 SWAP2 POP POP JUMP JUMPDEST PUSH2 0x580 PUSH2 0x941 JUMP JUMPDEST PUSH2 0x58A PUSH1 0x0 PUSH2 0x96E JUMP JUMPDEST JUMP JUMPDEST PUSH2 0x594 PUSH2 0x917 JUMP JUMPDEST PUSH1 0x0 DUP2 GT PUSH2 0x5D5 JUMPI PUSH1 0x40 MLOAD PUSH3 0x461BCD PUSH1 0xE5 SHL DUP2 MSTORE PUSH1 0x20 PUSH1 0x4 DUP3 ADD MSTORE PUSH1 0xE PUSH1 0x24 DUP3 ADD MSTORE PUSH14 0x496E76616C696420736861726573 PUSH1 0x90 SHL PUSH1 0x44 DUP3 ADD MSTORE PUSH1 0x64 ADD PUSH2 0x33A JUMP JUMPDEST CALLER PUSH1 0x0 SWAP1 DUP2 MSTORE PUSH1 0x2 PUSH1 0x20 DUP2 SWAP1 MSTORE PUSH1 0x40 SWAP1 SWAP2 KECCAK256 ADD SLOAD DUP2 GT ISZERO PUSH2 0x62E JUMPI PUSH1 0x40 MLOAD PUSH3 0x461BCD PUSH1 0xE5 SHL DUP2 MSTORE PUSH1 0x20 PUSH1 0x4 DUP3 ADD MSTORE PUSH1 0x13 PUSH1 0x24 DUP3 ADD MSTORE PUSH19 0x496E73756666696369656E7420736861726573 PUSH1 0x68 SHL PUSH1 0x44 DUP3 ADD MSTORE PUSH1 0x64 ADD PUSH2 0x33A JUMP JUMPDEST PUSH1 0x0 PUSH1 0x5 SLOAD PUSH1 0x3 SLOAD DUP4 PUSH2 0x641 SWAP2 SWAP1 PUSH2 0xA1D JUMP JUMPDEST PUSH2 0x64B SWAP2 SWAP1 PUSH2 0xA34 JUMP JUMPDEST SWAP1 POP PUSH1 0x0 PUSH1 0x5 SLOAD PUSH1 0x4 SLOAD DUP5 PUSH2 0x660 SWAP2 SWAP1 PUSH2 0xA1D JUMP JUMPDEST PUSH2 0x66A SWAP2 SWAP1 PUSH2 0xA34 JUMP JUMPDEST CALLER PUSH1 0x0 SWAP1 DUP2 MSTORE PUSH1 0x2 PUSH1 0x20 DUP2 SWAP1 MSTORE PUSH1 0x40 DUP3 KECCAK256 ADD DUP1 SLOAD SWAP3 SWAP4 POP DUP6 SWAP3 SWAP1 SWAP2 SWAP1 PUSH2 0x691 SWAP1 DUP5 SWAP1 PUSH2 0xA82 JUMP JUMPDEST SWAP1 SWAP2 SSTORE POP POP CALLER PUSH1 0x0 SWAP1 DUP2 MSTORE PUSH1 0x2 PUSH1 0x20 MSTORE PUSH1 0x40 DUP2 KECCAK256 DUP1 SLOAD DUP5 SWAP3 SWAP1 PUSH2 0x6B5 SWAP1 DUP5 SWAP1 PUSH2 0xA82 JUMP JUMPDEST SWAP1 SWAP2 SSTORE POP POP CALLER PUSH1 0x0 SWAP1 DUP2 MSTORE PUSH1 0x2 PUSH1 0x20 MSTORE PUSH1 0x40 DUP2 KECCAK256 PUSH1 0x1 ADD DUP1 SLOAD DUP4 SWAP3 SWAP1 PUSH2 0x6DC SWAP1 DUP5 SWAP1 PUSH2 0xA82 JUMP JUMPDEST SWAP3 POP POP DUP2 SWAP1 SSTORE POP DUP3 PUSH1 0x5 PUSH1 0x0 DUP3 DUP3 SLOAD PUSH2 0x6F5 SWAP2 SWAP1 PUSH2 0xA82 JUMP JUMPDEST SWAP3 POP POP DUP2 SWAP1 SSTORE POP DUP2 PUSH1 0x3 PUSH1 0x0 DUP3 DUP3 SLOAD PUSH2 0x70E SWAP2 SWAP1 PUSH2 0xA82 JUMP JUMPDEST SWAP3 POP POP DUP2 SWAP1 SSTORE POP DUP1 PUSH1 0x4 PUSH1 0x0 DUP3 DUP3 SLOAD PUSH2 0x727 SWAP2 SWAP1 PUSH2 0xA82 JUMP JUMPDEST SWAP1 SWAP2 SSTORE POP POP PUSH1 0x40 MLOAD CALLER SWAP1 DUP4 ISZERO PUSH2 0x8FC MUL SWAP1 DUP5 SWAP1 PUSH1 0x0 DUP2 DUP2 DUP2 DUP6 DUP9 DUP9 CALL SWAP4 POP POP POP POP ISZERO DUP1 ISZERO PUSH2 0x759 JUMPI RETURNDATASIZE PUSH1 0x0 DUP1 RETURNDATACOPY RETURNDATASIZE PUSH1 0x0 REVERT JUMPDEST POP PUSH1 0x40 DUP1 MLOAD DUP4 DUP2 MSTORE PUSH1 0x20 DUP2 ADD DUP4 SWAP1 MSTORE CALLER SWAP2 PUSH32 0x96CD817C6329656790EF8FBA7675405193677D39619571282F5E21F3A98CD059 SWAP2 ADD PUSH1 0x40 MLOAD DUP1 SWAP2 SUB SWAP1 LOG2 POP POP PUSH2 0x52A PUSH1 0x1 DUP1 SSTORE JUMP JUMPDEST PUSH2 0x7A8 PUSH2 0x917 JUMP JUMPDEST PUSH1 0x0 CALLVALUE GT PUSH2 0x7E8 JUMPI PUSH1 0x40 MLOAD PUSH3 0x461BCD PUSH1 0xE5 SHL DUP2 MSTORE PUSH1 0x20 PUSH1 0x4 DUP3 ADD MSTORE PUSH1 0xD PUSH1 0x24 DUP3 ADD MSTORE PUSH13 0x9AEAE6E840E6CADCC8408AA89 PUSH1 0x9B SHL PUSH1 0x44 DUP3 ADD MSTORE PUSH1 0x64 ADD PUSH2 0x33A JUMP JUMPDEST PUSH1 0x0 PUSH2 0x2710 PUSH1 0x7 SLOAD CALLVALUE PUSH2 0x7FB SWAP2 SWAP1 PUSH2 0xA1D JUMP JUMPDEST PUSH2 0x805 SWAP2 SWAP1 PUSH2 0xA34 JUMP JUMPDEST SWAP1 POP PUSH1 0x0 PUSH2 0x813 DUP3 CALLVALUE PUSH2 0xA82 JUMP JUMPDEST SWAP1 POP PUSH1 0x0 PUSH2 0x820 DUP3 PUSH2 0x8A1 JUMP JUMPDEST SWAP1 POP CALLVALUE PUSH1 0x3 PUSH1 0x0 DUP3 DUP3 SLOAD PUSH2 0x834 SWAP2 SWAP1 PUSH2 0xA56 JUMP JUMPDEST SWAP3 POP POP DUP2 SWAP1 SSTORE POP DUP1 PUSH1 0x4 PUSH1 0x0 DUP3 DUP3 SLOAD PUSH2 0x84D SWAP2 SWAP1 PUSH2 0xA82 JUMP JUMPDEST SWAP1 SWAP2 SSTORE POP POP PUSH1 0x40 DUP1 MLOAD CALLVALUE DUP2 MSTORE PUSH1 0x20 DUP2 ADD DUP4 SWAP1 MSTORE PUSH1 0x1 DUP2 DUP4 ADD MSTORE SWAP1 MLOAD CALLER SWAP2 PUSH32 0xCC65E4D9060ECE2ECF63011AC580550B04C8DAEBA63FAC4DFE8669353CD88859 SWAP2 SWAP1 DUP2 SWAP1 SUB PUSH1 0x60 ADD SWAP1 LOG2 POP POP POP PUSH2 0x58A PUSH1 0x1 DUP1 SSTORE JUMP JUMPDEST PUSH1 0x0 PUSH1 0x3 SLOAD PUSH1 0x0 EQ DUP1 PUSH2 0x8B4 JUMPI POP PUSH1 0x4 SLOAD ISZERO JUMPDEST ISZERO PUSH2 0x8C1 JUMPI POP PUSH1 0x0 SWAP2 SWAP1 POP JUMP JUMPDEST DUP2 PUSH1 0x3 SLOAD PUSH2 0x8CF SWAP2 SWAP1 PUSH2 0xA56 JUMP JUMPDEST PUSH1 0x4 SLOAD PUSH2 0x568 SWAP1 DUP5 PUSH2 0xA1D JUMP JUMPDEST PUSH2 0x8E4 PUSH2 0x941 JUMP JUMPDEST PUSH1 0x1 PUSH1 0x1 PUSH1 0xA0 SHL SUB DUP2 AND PUSH2 0x90E JUMPI PUSH1 0x40 MLOAD PUSH4 0x1E4FBDF7 PUSH1 0xE0 SHL DUP2 MSTORE PUSH1 0x0 PUSH1 0x4 DUP3 ADD MSTORE PUSH1 0x24 ADD PUSH2 0x33A JUMP JUMPDEST PUSH2 0x52A DUP2 PUSH2 0x96E JUMP JUMPDEST PUSH1 0x2 PUSH1 0x1 SLOAD SUB PUSH2 0x93A JUMPI PUSH1 0x40 MLOAD PUSH4 0x3EE5AEB5 PUSH1 0xE0 SHL DUP2 MSTORE PUSH1 0x4 ADD PUSH1 0x40 MLOAD DUP1 SWAP2 SUB SWAP1 REVERT JUMPDEST PUSH1 0x2 PUSH1 0x1 SSTORE JUMP JUMPDEST PUSH1 0x0 SLOAD PUSH1 0x1 PUSH1 0x1 PUSH1 0xA0 SHL SUB AND CALLER EQ PUSH2 0x58A JUMPI PUSH1 0x40 MLOAD PUSH4 0x118CDAA7 PUSH1 0xE0 SHL DUP2 MSTORE CALLER PUSH1 0x4 DUP3 ADD MSTORE PUSH1 0x24 ADD PUSH2 0x33A JUMP JUMPDEST PUSH1 0x0 DUP1 SLOAD PUSH1 0x1 PUSH1 0x1 PUSH1 0xA0 SHL SUB DUP4 DUP2 AND PUSH1 0x1 PUSH1 0x1 PUSH1 0xA0 SHL SUB NOT DUP4 AND DUP2 OR DUP5 SSTORE PUSH1 0x40 MLOAD SWAP2 SWAP1 SWAP3 AND SWAP3 DUP4 SWAP2 PUSH32 0x8BE0079C531659141344CD1FD0A4F28419497F9722A3DAAFE3B4186F6B6457E0 SWAP2 SWAP1 LOG3 POP POP JUMP JUMPDEST PUSH1 0x0 PUSH1 0x20 DUP3 DUP5 SUB SLT ISZERO PUSH2 0x9D0 JUMPI PUSH1 0x0 DUP1 REVERT JUMPDEST DUP2 CALLDATALOAD PUSH1 0x1 PUSH1 0x1 PUSH1 0xA0 SHL SUB DUP2 AND DUP2 EQ PUSH2 0x9E7 JUMPI PUSH1 0x0 DUP1 REVERT JUMPDEST SWAP4 SWAP3 POP POP POP JUMP JUMPDEST PUSH1 0x0 PUSH1 0x20 DUP3 DUP5 SUB SLT ISZERO PUSH2 0xA00 JUMPI PUSH1 0x0 DUP1 REVERT JUMPDEST POP CALLDATALOAD SWAP2 SWAP1 POP JUMP JUMPDEST PUSH4 0x4E487B71 PUSH1 0xE0 SHL PUSH1 0x0 MSTORE PUSH1 0x11 PUSH1 0x4 MSTORE PUSH1 0x24 PUSH1 0x0 REVERT JUMPDEST DUP1 DUP3 MUL DUP2 ISZERO DUP3 DUP3 DIV DUP5 EQ OR PUSH2 0x572 JUMPI PUSH2 0x572 PUSH2 0xA07 JUMP JUMPDEST PUSH1 0x0 DUP3 PUSH2 0xA51 JUMPI PUSH4 0x4E487B71 PUSH1 0xE0 SHL PUSH1 0x0 MSTORE PUSH1 0x12 PUSH1 0x4 MSTORE PUSH1 0x24 PUSH1 0x0 REVERT JUMPDEST POP DIV SWAP1 JUMP JUMPDEST DUP1 DUP3 ADD DUP1 DUP3 GT ISZERO PUSH2 0x572 JUMPI PUSH2 0x572 PUSH2 0xA07 JUMP JUMPDEST PUSH1 0x0 PUSH1 0x1 DUP3 ADD PUSH2 0xA7B JUMPI PUSH2 0xA7B PUSH2 0xA07 JUMP JUMPDEST POP PUSH1 0x1 ADD SWAP1 JUMP JUMPDEST DUP2 DUP2 SUB DUP2 DUP2 GT ISZERO PUSH2 0x572 JUMPI PUSH2 0x572 PUSH2 0xA07 JUMP INVALID LOG2 PUSH5 0x6970667358 0x22 SLT KECCAK256 0xE6 NUMBER SWAP13 SWAP2 SELFDESTRUCT 0xAE CALLDATASIZE 0x25 RETURN CREATE2 MULMOD 0xBE DUP16 BALANCE 0xEB 0x2E 0xE2 SWAP1 0xE2 SHL 0x2F 0xF6 0x1F DUP7 0xF9 0xE6 PUSH2 0x3C81 0x5D 0xB0 0xFB PUSH5 0x736F6C6343 STOP ADDMOD EQ STOP CALLER "},"methodIdentifiers":{"FEE_DENOMINATOR()":"d73792a9","addLiquidity(uint256)":"51c6590a","getEthForTokens(uint256)":"6cd64ccb","getPoolStats()":"bbb85188","getTokensForEth(uint256)":"dfe100d4","owner()":"8da5cb5b","providers(address)":"0787bc27","removeLiquidity(uint256)":"9c8f9f23","renounceOwnership()":"715018a6","swapEthForTokens()":"b14e055e","swapFee()":"54cf2aeb","totalEth()":"3c3c9c23","totalProviders()":"96616b1f","totalShares()":"3a98ef39","totalTokens()":"7e1c0c09","transferOwnership(address)":"f2fde38b"}}}}}