{"contracts/economy/TokenEconomics.sol":{"TokenEconomics":{"abi":[{"inputs":[],"stateMutability":"nonpayable","type":"constructor"},{"inputs":[{"internalType":"address","name":"owner","type":"address"}],"name":"OwnableInvalidOwner","type":"error"},{"inputs":[{"internalType":"address","name":"account","type":"address"}],"name":"OwnableUnauthorizedAccount","type":"error"},{"anonymous":false,"inputs":[{"indexed":false,"internalType":"uint256","name":"oldRate","type":"uint256"},{"indexed":false,"internalType":"uint256","name":"newRate","type":"uint256"}],"name":"EmissionRateUpdated","type":"event"},{"anonymous":false,"inputs":[{"indexed":false,"internalType":"uint256","name":"trading","type":"uint256"},{"indexed":false,"internalType":"uint256","name":"marketplace","type":"uint256"},{"indexed":false,"internalType":"uint256","name":"spawning","type":"uint256"}],"name":"FeesUpdated","type":"event"},{"anonymous":false,"inputs":[{"indexed":true,"internalType":"uint256","name":"incentiveId","type":"uint256"},{"indexed":false,"internalType":"string","name":"name","type":"string"},{"indexed":false,"internalType":"uint256","name":"rewardRate","type":"uint256"}],"name":"IncentiveCreated","type":"event"},{"anonymous":false,"inputs":[{"indexed":false,"internalType":"uint256","name":"circulating","type":"uint256"},{"indexed":false,"internalType":"uint256","name":"burned","type":"uint256"},{"indexed":false,"internalType":"uint256","name":"staked","type":"uint256"}],"name":"MetricsUpdated","type":"event"},{"anonymous":false,"inputs":[{"indexed":true,"internalType":"address","name":"previousOwner","type":"address"},{"indexed":true,"internalType":"address","name":"newOwner","type":"address"}],"name":"OwnershipTransferred","type":"event"},{"anonymous":false,"inputs":[{"indexed":true,"internalType":"uint256","name":"incentiveId","type":"uint256"},{"indexed":true,"internalType":"address","name":"recipient","type":"address"},{"indexed":false,"internalType":"uint256","name":"amount","type":"uint256"}],"name":"RewardDistributed","type":"event"},{"inputs":[],"name":"FEE_DENOMINATOR","outputs":[{"internalType":"uint256","name":"","type":"uint256"}],"stateMutability":"view","type":"function"},{"inputs":[],"name":"INITIAL_SUPPLY","outputs":[{"internalType":"uint256","name":"","type":"uint256"}],"stateMutability":"view","type":"function"},{"inputs":[],"name":"MAX_SUPPLY","outputs":[{"internalType":"uint256","name":"","type":"uint256"}],"stateMutability":"view","type":"function"},{"inputs":[],"name":"calculateEmission","outputs":[{"internalType":"uint256","name":"","type":"uint256"}],"stateMutability":"view","type":"function"},{"inputs":[{"internalType":"uint256","name":"incentiveId","type":"uint256"},{"internalType":"address","name":"recipient","type":"address"}],"name":"distributeReward","outputs":[{"internalType":"uint256","name":"","type":"uint256"}],"stateMutability":"nonpayable","type":"function"},{"inputs":[],"name":"emissionRate","outputs":[{"internalType":"uint256","name":"","type":"uint256"}],"stateMutability":"view","type":"function"},{"inputs":[{"internalType":"uint256","name":"incentiveId","type":"uint256"}],"name":"getIncentive","outputs":[{"components":[{"internalType":"string","name":"name","type":"string"},{"internalType":"uint256","name":"rewardRate","type":"uint256"},{"internalType":"uint256","name":"maxRewards","type":"uint256"},{"internalType":"uint256","name":"distributed","type":"uint256"},{"internalType":"bool","name":"active","type":"bool"}],"internalType":"struct TokenEconomics.Incentive","name":"","type":"tuple"}],"stateMutability":"view","type":"function"},{"inputs":[],"name":"getMetrics","outputs":[{"components":[{"internalType":"uint256","name":"circulatingSupply","type":"uint256"},{"internalType":"uint256","name":"burnedAmount","type":"uint256"},{"internalType":"uint256","name":"stakedAmount","type":"uint256"},{"internalType":"uint256","name":"treasuryAmount","type":"uint256"},{"internalType":"uint256","name":"lastUpdate","type":"uint256"}],"internalType":"struct TokenEconomics.EconomicMetrics","name":"","type":"tuple"}],"stateMutability":"view","type":"function"},{"inputs":[],"name":"getTotalValueLocked","outputs":[{"internalType":"uint256","name":"","type":"uint256"}],"stateMutability":"view","type":"function"},{"inputs":[],"name":"incentiveCount","outputs":[{"internalType":"uint256","name":"","type":"uint256"}],"stateMutability":"view","type":"function"},{"inputs":[{"internalType":"uint256","name":"","type":"uint256"}],"name":"incentives","outputs":[{"internalType":"string","name":"name","type":"string"},{"internalType":"uint256","name":"rewardRate","type":"uint256"},{"internalType":"uint256","name":"maxRewards","type":"uint256"},{"internalType":"uint256","name":"distributed","type":"uint256"},{"internalType":"bool","name":"active","type":"bool"}],"stateMutability":"view","type":"function"},{"inputs":[],"name":"lastEmission","outputs":[{"internalType":"uint256","name":"","type":"uint256"}],"stateMutability":"view","type":"function"},{"inputs":[],"name":"marketplaceFee","outputs":[{"internalType":"uint256","name":"","type":"uint256"}],"stateMutability":"view","type":"function"},{"inputs":[],"name":"metrics","outputs":[{"internalType":"uint256","name":"circulatingSupply","type":"uint256"},{"internalType":"uint256","name":"burnedAmount","type":"uint256"},{"internalType":"uint256","name":"stakedAmount","type":"uint256"},{"internalType":"uint256","name":"treasuryAmount","type":"uint256"},{"internalType":"uint256","name":"lastUpdate","type":"uint256"}],"stateMutability":"view","type":"function"},{"inputs":[],"name":"owner","outputs":[{"internalType":"address","name":"","type":"address"}],"stateMutability":"view","type":"function"},{"inputs":[],"name":"renounceOwnership","outputs":[],"stateMutability":"nonpayable","type":"function"},{"inputs":[],"name":"spawningFee","outputs":[{"internalType":"uint256","name":"","type":"uint256"}],"stateMutability":"view","type":"function"},{"inputs":[],"name":"tradingFee","outputs":[{"internalType":"uint256","name":"","type":"uint256"}],"stateMutability":"view","type":"function"},{"inputs":[{"internalType":"address","name":"newOwner","type":"address"}],"name":"transferOwnership","outputs":[],"stateMutability":"nonpayable","type":"function"},{"inputs":[{"internalType":"uint256","name":"newRate","type":"uint256"}],"name":"updateEmissionRate","outputs":[],"stateMutability":"nonpayable","type":"function"},{"inputs":[{"internalType":"uint256","name":"_tradingFee","type":"uint256"},{"internalType":"uint256","name":"_marketplaceFee","type":"uint256"},{"internalType":"uint256","name":"_spawningFee","type":"uint256"}],"name":"updateFees","outputs":[],"stateMutability":"nonpayable","type":"function"},{"inputs":[{"internalType":"uint256","name":"circulating","type":"uint256"},{"internalType":"uint256","name":"burned","type":"uint256"},{"internalType":"uint256","name":"staked","type":"uint256"},{"internalType":"uint256","name":"treasury","type":"uint256"}],"name":"updateMetrics","outputs":[],"stateMutability":"nonpayable","type":"function"}],"evm":{"bytecode":{"linkReferences":{},"object":"6080604052600560085560fa600a5560fa600b556064600c553480156200002557600080fd5b5033806200004d57604051631e4fbdf760e01b81526000600482015260240160405180910390fd5b6200005881620001d3565b506040805160a0810182526b033b2e3c9fd0803ce800000080825260006020808401829052838501829052606084018290524260809094018490526001929092556002819055600381905560045560058290556009919091558151808301909252600f82526e22b73a34ba3c9021b932b0ba34b7b760891b90820152620000f49068056bc75e2d6310000069d3c21bcecceda100000062000223565b5060408051808201909152600d81526c2a37b7b61021b932b0ba34b7b760991b602082015262000139906802b5e3af16b18800006969e10de76676d080000062000223565b5060408051808201909152600f81526e2434b3b4102932b83aba30ba34b7b760891b60208201526200018190680ad78ebc5ac62000006a01a784379d99db4200000062000223565b506040805180820190915260128152712634b8bab4b234ba3c90283937bb34b232b960711b6020820152620001cc90681b1ae4d6e2ef5000006a0422ca8b0a00a42500000062000223565b50620004f7565b600080546001600160a01b038381166001600160a01b0319831681178455604051919092169283917f8be0079c531659141344cd1fd0a4f28419497f9722a3daafe3b4186f6b6457e09190a35050565b6007805460009182919082620002398362000307565b909155506040805160a081018252878152602080820188905281830187905260006060830181905260016080840152848152600690915291909120815192935090918190620002899082620003d4565b50602082015160018201556040808301516002830155606083015160038301556080909201516004909101805460ff19169115159190911790555181907fd887c94422ccbeca3a70fddb8c34c7957bd854ed416fbbe60effdfb454a3d56590620002f79088908890620004a0565b60405180910390a2949350505050565b6000600182016200032857634e487b7160e01b600052601160045260246000fd5b5060010190565b634e487b7160e01b600052604160045260246000fd5b600181811c908216806200035a57607f821691505b6020821081036200037b57634e487b7160e01b600052602260045260246000fd5b50919050565b601f821115620003cf57600081815260208120601f850160051c81016020861015620003aa5750805b601f850160051c820191505b81811015620003cb57828155600101620003b6565b5050505b505050565b81516001600160401b03811115620003f057620003f06200032f565b620004088162000401845462000345565b8462000381565b602080601f831160018114620004405760008415620004275750858301515b600019600386901b1c1916600185901b178555620003cb565b600085815260208120601f198616915b82811015620004715788860151825594840194600190910190840162000450565b5085821015620004905787850151600019600388901b60f8161c191681555b5050505050600190811b01905550565b604081526000835180604084015260005b81811015620004d05760208187018101516060868401015201620004b1565b506000606082850101526060601f19601f8301168401019150508260208301529392505050565b610ca280620005076000396000f3fe608060405234801561001057600080fd5b50600436106101425760003560e01c80638da5cb5b116100b8578063b26025aa1161007c578063b26025aa146102a8578063ccfd6280146102b0578063d73792a9146102d0578063e121c102146102d9578063e7f8b5ef146102fd578063f2fde38b1461031057600080fd5b80638da5cb5b146102315780638dfdc0ca1461024c57806396afc45014610255578063a04748f61461025e578063aa8754e4146102a057600080fd5b80633e18a03f1161010a5780633e18a03f146101b157806343bcc29b146101ba57806356f43352146101cd5780636a166964146101d6578063715018a6146101df5780637606f781146101e757600080fd5b8063069def88146101475780630ba84cd21461016357806322429085146101785780632ff2e9dc1461018b57806332cb6b0c1461019e575b600080fd5b61015060075481565b6040519081526020015b60405180910390f35b6101766101713660046109e5565b610323565b005b6101766101863660046109fe565b6103b6565b6101506b033b2e3c9fd0803ce800000081565b6101506b204fce5e3e2502611000000081565b610150600c5481565b6101506101c8366004610a46565b610479565b610150600a5481565b610150600b5481565b6101766105ab565b6101ef6105bf565b60405161015a9190600060a082019050825182526020830151602083015260408301516040830152606083015160608301526080830151608083015292915050565b6000546040516001600160a01b03909116815260200161015a565b61015060095481565b61015060085481565b600154600254600354600454600554610278949392919085565b604080519586526020860194909452928401919091526060830152608082015260a00161015a565b610150610626565b6101506106e0565b6102c36102be3660046109e5565b6106f7565b60405161015a9190610ab8565b61015061271081565b6102ec6102e73660046109e5565b610809565b60405161015a959493929190610b0a565b61017661030b366004610b43565b6108c3565b61017661031e366004610b75565b61092a565b61032b610968565b600a8111156103715760405162461bcd60e51b815260206004820152600d60248201526c0a4c2e8ca40e8dede40d0d2ced609b1b60448201526064015b60405180910390fd5b600880549082905560408051828152602081018490527f144d30c57e277deb14c5d686b95cf61cfea257d9d551cef4288b2f7db418f87a910160405180910390a15050565b6103be610968565b6103e88311156103e05760405162461bcd60e51b815260040161036890610b97565b6103e88211156104025760405162461bcd60e51b815260040161036890610b97565b6101f48111156104245760405162461bcd60e51b815260040161036890610b97565b600a839055600b829055600c81905560408051848152602081018490529081018290527fcf8a1e1d5f09cf3c97dbb653cd9a4d7aace9292fbc1bb8211febf2d400febbdd9060600160405180910390a1505050565b6000610483610968565b6000838152600660205260409020600481015460ff166104da5760405162461bcd60e51b8152602060048201526012602482015271496e63656e7469766520696e61637469766560701b6044820152606401610368565b8060020154816001015482600301546104f39190610bd3565b11156105375760405162461bcd60e51b815260206004820152601360248201527213585e081c995dd85c991cc81c995858da1959606a1b6044820152606401610368565b806001015481600301600082825461054f9190610bd3565b92505081905550826001600160a01b0316847fab7542bafced3da2d8c881cb2dd1de859fac7c20d3650d2902ad389a64e08883836001015460405161059691815260200190565b60405180910390a36001015490505b92915050565b6105b3610968565b6105bd6000610995565b565b6105f16040518060a0016040528060008152602001600081526020016000815260200160008152602001600081525090565b506040805160a08101825260015481526002546020820152600354918101919091526004546060820152600554608082015290565b60006b204fce5e3e25026110000000600160000154106106465750600090565b6000600954426106569190610be6565b905060006106686301e1338083610bf9565b90508060000361067b5760009250505090565b60006064826008546001600001546106939190610c1b565b61069d9190610c1b565b6106a79190610bf9565b6001549091506000906106c6906b204fce5e3e25026110000000610be6565b90508082116106d557816106d7565b805b94505050505090565b6004546003546000916106f291610bd3565b905090565b61072b6040518060a00160405280606081526020016000815260200160008152602001600081526020016000151581525090565b60008281526006602052604090819020815160a0810190925280548290829061075390610c32565b80601f016020809104026020016040519081016040528092919081815260200182805461077f90610c32565b80156107cc5780601f106107a1576101008083540402835291602001916107cc565b820191906000526020600020905b8154815290600101906020018083116107af57829003601f168201915b505050918352505060018201546020820152600282015460408201526003820154606082015260049091015460ff16151560809091015292915050565b60066020526000908152604090208054819061082490610c32565b80601f016020809104026020016040519081016040528092919081815260200182805461085090610c32565b801561089d5780601f106108725761010080835404028352916020019161089d565b820191906000526020600020905b81548152906001019060200180831161088057829003601f168201915b505050506001830154600284015460038501546004909501549394919390925060ff1685565b6108cb610968565b60018490556002839055600382905560048190554260055560408051858152602081018590529081018390527f30b47c3a685e507da227a870550a387d376e03da27ad5b6a1d8c7517eb2d9b2f9060600160405180910390a150505050565b610932610968565b6001600160a01b03811661095c57604051631e4fbdf760e01b815260006004820152602401610368565b61096581610995565b50565b6000546001600160a01b031633146105bd5760405163118cdaa760e01b8152336004820152602401610368565b600080546001600160a01b038381166001600160a01b0319831681178455604051919092169283917f8be0079c531659141344cd1fd0a4f28419497f9722a3daafe3b4186f6b6457e09190a35050565b6000602082840312156109f757600080fd5b5035919050565b600080600060608486031215610a1357600080fd5b505081359360208301359350604090920135919050565b80356001600160a01b0381168114610a4157600080fd5b919050565b60008060408385031215610a5957600080fd5b82359150610a6960208401610a2a565b90509250929050565b6000815180845260005b81811015610a9857602081850181015186830182015201610a7c565b506000602082860101526020601f19601f83011685010191505092915050565b602081526000825160a06020840152610ad460c0840182610a72565b90506020840151604084015260408401516060840152606084015160808401526080840151151560a08401528091505092915050565b60a081526000610b1d60a0830188610a72565b905085602083015284604083015283606083015282151560808301529695505050505050565b60008060008060808587031215610b5957600080fd5b5050823594602084013594506040840135936060013592509050565b600060208284031215610b8757600080fd5b610b9082610a2a565b9392505050565b6020808252600c908201526b08ccaca40e8dede40d0d2ced60a31b604082015260600190565b634e487b7160e01b600052601160045260246000fd5b808201808211156105a5576105a5610bbd565b818103818111156105a5576105a5610bbd565b600082610c1657634e487b7160e01b600052601260045260246000fd5b500490565b80820281158282048414176105a5576105a5610bbd565b600181811c90821680610c4657607f821691505b602082108103610c6657634e487b7160e01b600052602260045260246000fd5b5091905056fea264697066735822122037deb18c8b94cb8b9ddd30dfb9d2dca058948e2355252ed910a3e8be02e06a7e64736f6c63430008140033","opcodes":"PUSH1 0x80 PUSH1 0x40 MSTORE PUSH1 0x5 PUSH1 0x8 SSTORE PUSH1 0xFA PUSH1 0xA SSTORE PUSH1 0xFA PUSH1 0xB SSTORE PUSH1 0x64 PUSH1 0xC SSTORE CALLVALUE DUP1 ISZERO PUSH3 0x25 JUMPI PUSH1 0x0 DUP1 REVERT JUMPDEST POP CALLER DUP1 PUSH3 0x4D JUMPI PUSH1 0x40 MLOAD PUSH4 0x1E4FBDF7 PUSH1 0xE0 SHL DUP2 MSTORE PUSH1 0x0 PUSH1 0x4 DUP3 ADD MSTORE PUSH1 0x24 ADD PUSH1 0x40 MLOAD DUP1 SWAP2 SUB SWAP1 REVERT JUMPDEST PUSH3 0x58 DUP2 PUSH3 0x1D3 JUMP JUMPDEST POP PUSH1 0x40 DUP1 MLOAD PUSH1 0xA0 DUP2 ADD DUP3 MSTORE PUSH12 0x33B2E3C9FD0803CE8000000 DUP1 DUP3 MSTORE PUSH1 0x0 PUSH1 0x20 DUP1 DUP5 ADD DUP3 SWAP1 MSTORE DUP4 DUP6 ADD DUP3 SWAP1 MSTORE PUSH1 0x60 DUP5 ADD DUP3 SWAP1 MSTORE TIMESTAMP PUSH1 0x80 SWAP1 SWAP5 ADD DUP5 SWAP1 MSTORE PUSH1 0x1 SWAP3 SWAP1 SWAP3 SSTORE PUSH1 0x2 DUP2 SWAP1 SSTORE PUSH1 0x3 DUP2 SWAP1 SSTORE PUSH1 0x4 SSTORE PUSH1 0x5 DUP3 SWAP1 SSTORE PUSH1 0x9 SWAP2 SWAP1 SWAP2 SSTORE DUP2 MLOAD DUP1 DUP4 ADD SWAP1 SWAP3 MSTORE PUSH1 0xF DUP3 MSTORE PUSH15 0x22B73A34BA3C9021B932B0BA34B7B7 PUSH1 0x89 SHL SWAP1 DUP3 ADD MSTORE PUSH3 0xF4 SWAP1 PUSH9 0x56BC75E2D63100000 PUSH10 0xD3C21BCECCEDA1000000 PUSH3 0x223 JUMP JUMPDEST POP PUSH1 0x40 DUP1 MLOAD DUP1 DUP3 ADD SWAP1 SWAP2 MSTORE PUSH1 0xD DUP2 MSTORE PUSH13 0x2A37B7B61021B932B0BA34B7B7 PUSH1 0x99 SHL PUSH1 0x20 DUP3 ADD MSTORE PUSH3 0x139 SWAP1 PUSH9 0x2B5E3AF16B1880000 PUSH10 0x69E10DE76676D0800000 PUSH3 0x223 JUMP JUMPDEST POP PUSH1 0x40 DUP1 MLOAD DUP1 DUP3 ADD SWAP1 SWAP2 MSTORE PUSH1 0xF DUP2 MSTORE PUSH15 0x2434B3B4102932B83ABA30BA34B7B7 PUSH1 0x89 SHL PUSH1 0x20 DUP3 ADD MSTORE PUSH3 0x181 SWAP1 PUSH9 0xAD78EBC5AC6200000 PUSH11 0x1A784379D99DB42000000 PUSH3 0x223 JUMP JUMPDEST POP PUSH1 0x40 DUP1 MLOAD DUP1 DUP3 ADD SWAP1 SWAP2 MSTORE PUSH1 0x12 DUP2 MSTORE PUSH18 0x2634B8BAB4B234BA3C90283937BB34B232B9 PUSH1 0x71 SHL PUSH1 0x20 DUP3 ADD MSTORE PUSH3 0x1CC SWAP1 PUSH9 0x1B1AE4D6E2EF500000 PUSH11 0x422CA8B0A00A425000000 PUSH3 0x223 JUMP JUMPDEST POP PUSH3 0x4F7 JUMP JUMPDEST PUSH1 0x0 DUP1 SLOAD PUSH1 0x1 PUSH1 0x1 PUSH1 0xA0 SHL SUB DUP4 DUP2 AND PUSH1 0x1 PUSH1 0x1 PUSH1 0xA0 SHL SUB NOT DUP4 AND DUP2 OR DUP5 SSTORE PUSH1 0x40 MLOAD SWAP2 SWAP1 SWAP3 AND SWAP3 DUP4 SWAP2 PUSH32 0x8BE0079C531659141344CD1FD0A4F28419497F9722A3DAAFE3B4186F6B6457E0 SWAP2 SWAP1 LOG3 POP POP JUMP JUMPDEST PUSH1 0x7 DUP1 SLOAD PUSH1 0x0 SWAP2 DUP3 SWAP2 SWAP1 DUP3 PUSH3 0x239 DUP4 PUSH3 0x307 JUMP JUMPDEST SWAP1 SWAP2 SSTORE POP PUSH1 0x40 DUP1 MLOAD PUSH1 0xA0 DUP2 ADD DUP3 MSTORE DUP8 DUP2 MSTORE PUSH1 0x20 DUP1 DUP3 ADD DUP9 SWAP1 MSTORE DUP2 DUP4 ADD DUP8 SWAP1 MSTORE PUSH1 0x0 PUSH1 0x60 DUP4 ADD DUP2 SWAP1 MSTORE PUSH1 0x1 PUSH1 0x80 DUP5 ADD MSTORE DUP5 DUP2 MSTORE PUSH1 0x6 SWAP1 SWAP2 MSTORE SWAP2 SWAP1 SWAP2 KECCAK256 DUP2 MLOAD SWAP3 SWAP4 POP SWAP1 SWAP2 DUP2 SWAP1 PUSH3 0x289 SWAP1 DUP3 PUSH3 0x3D4 JUMP JUMPDEST POP PUSH1 0x20 DUP3 ADD MLOAD PUSH1 0x1 DUP3 ADD SSTORE PUSH1 0x40 DUP1 DUP4 ADD MLOAD PUSH1 0x2 DUP4 ADD SSTORE PUSH1 0x60 DUP4 ADD MLOAD PUSH1 0x3 DUP4 ADD SSTORE PUSH1 0x80 SWAP1 SWAP3 ADD MLOAD PUSH1 0x4 SWAP1 SWAP2 ADD DUP1 SLOAD PUSH1 0xFF NOT AND SWAP2 ISZERO ISZERO SWAP2 SWAP1 SWAP2 OR SWAP1 SSTORE MLOAD DUP2 SWAP1 PUSH32 0xD887C94422CCBECA3A70FDDB8C34C7957BD854ED416FBBE60EFFDFB454A3D565 SWAP1 PUSH3 0x2F7 SWAP1 DUP9 SWAP1 DUP9 SWAP1 PUSH3 0x4A0 JUMP JUMPDEST PUSH1 0x40 MLOAD DUP1 SWAP2 SUB SWAP1 LOG2 SWAP5 SWAP4 POP POP POP POP JUMP JUMPDEST PUSH1 0x0 PUSH1 0x1 DUP3 ADD PUSH3 0x328 JUMPI PUSH4 0x4E487B71 PUSH1 0xE0 SHL PUSH1 0x0 MSTORE PUSH1 0x11 PUSH1 0x4 MSTORE PUSH1 0x24 PUSH1 0x0 REVERT JUMPDEST POP PUSH1 0x1 ADD SWAP1 JUMP JUMPDEST PUSH4 0x4E487B71 PUSH1 0xE0 SHL PUSH1 0x0 MSTORE PUSH1 0x41 PUSH1 0x4 MSTORE PUSH1 0x24 PUSH1 0x0 REVERT JUMPDEST PUSH1 0x1 DUP2 DUP2 SHR SWAP1 DUP3 AND DUP1 PUSH3 0x35A JUMPI PUSH1 0x7F DUP3 AND SWAP2 POP JUMPDEST PUSH1 0x20 DUP3 LT DUP2 SUB PUSH3 0x37B JUMPI PUSH4 0x4E487B71 PUSH1 0xE0 SHL PUSH1 0x0 MSTORE PUSH1 0x22 PUSH1 0x4 MSTORE PUSH1 0x24 PUSH1 0x0 REVERT JUMPDEST POP SWAP2 SWAP1 POP JUMP JUMPDEST PUSH1 0x1F DUP3 GT ISZERO PUSH3 0x3CF JUMPI PUSH1 0x0 DUP2 DUP2 MSTORE PUSH1 0x20 DUP2 KECCAK256 PUSH1 0x1F DUP6 ADD PUSH1 0x5 SHR DUP2 ADD PUSH1 0x20 DUP7 LT ISZERO PUSH3 0x3AA JUMPI POP DUP1 JUMPDEST PUSH1 0x1F DUP6 ADD PUSH1 0x5 SHR DUP3 ADD SWAP2 POP JUMPDEST DUP2 DUP2 LT ISZERO PUSH3 0x3CB JUMPI DUP3 DUP2 SSTORE PUSH1 0x1 ADD PUSH3 0x3B6 JUMP JUMPDEST POP POP POP JUMPDEST POP POP POP JUMP JUMPDEST DUP2 MLOAD PUSH1 0x1 PUSH1 0x1 PUSH1 0x40 SHL SUB DUP2 GT ISZERO PUSH3 0x3F0 JUMPI PUSH3 0x3F0 PUSH3 0x32F JUMP JUMPDEST PUSH3 0x408 DUP2 PUSH3 0x401 DUP5 SLOAD PUSH3 0x345 JUMP JUMPDEST DUP5 PUSH3 0x381 JUMP JUMPDEST PUSH1 0x20 DUP1 PUSH1 0x1F DUP4 GT PUSH1 0x1 DUP2 EQ PUSH3 0x440 JUMPI PUSH1 0x0 DUP5 ISZERO PUSH3 0x427 JUMPI POP DUP6 DUP4 ADD MLOAD JUMPDEST PUSH1 0x0 NOT PUSH1 0x3 DUP7 SWAP1 SHL SHR NOT AND PUSH1 0x1 DUP6 SWAP1 SHL OR DUP6 SSTORE PUSH3 0x3CB JUMP JUMPDEST PUSH1 0x0 DUP6 DUP2 MSTORE PUSH1 0x20 DUP2 KECCAK256 PUSH1 0x1F NOT DUP7 AND SWAP2 JUMPDEST DUP3 DUP2 LT ISZERO PUSH3 0x471 JUMPI DUP9 DUP7 ADD MLOAD DUP3 SSTORE SWAP5 DUP5 ADD SWAP5 PUSH1 0x1 SWAP1 SWAP2 ADD SWAP1 DUP5 ADD PUSH3 0x450 JUMP JUMPDEST POP DUP6 DUP3 LT ISZERO PUSH3 0x490 JUMPI DUP8 DUP6 ADD MLOAD PUSH1 0x0 NOT PUSH1 0x3 DUP9 SWAP1 SHL PUSH1 0xF8 AND SHR NOT AND DUP2 SSTORE JUMPDEST POP POP POP POP POP PUSH1 0x1 SWAP1 DUP2 SHL ADD SWAP1 SSTORE POP JUMP JUMPDEST PUSH1 0x40 DUP2 MSTORE PUSH1 0x0 DUP4 MLOAD DUP1 PUSH1 0x40 DUP5 ADD MSTORE PUSH1 0x0 JUMPDEST DUP2 DUP2 LT ISZERO PUSH3 0x4D0 JUMPI PUSH1 0x20 DUP2 DUP8 ADD DUP2 ADD MLOAD PUSH1 0x60 DUP7 DUP5 ADD ADD MSTORE ADD PUSH3 0x4B1 JUMP JUMPDEST POP PUSH1 0x0 PUSH1 0x60 DUP3 DUP6 ADD ADD MSTORE PUSH1 0x60 PUSH1 0x1F NOT PUSH1 0x1F DUP4 ADD AND DUP5 ADD ADD SWAP2 POP POP DUP3 PUSH1 0x20 DUP4 ADD MSTORE SWAP4 SWAP3 POP POP POP JUMP JUMPDEST PUSH2 0xCA2 DUP1 PUSH3 0x507 PUSH1 0x0 CODECOPY PUSH1 0x0 RETURN INVALID PUSH1 0x80 PUSH1 0x40 MSTORE CALLVALUE DUP1 ISZERO PUSH2 0x10 JUMPI PUSH1 0x0 DUP1 REVERT JUMPDEST POP PUSH1 0x4 CALLDATASIZE LT PUSH2 0x142 JUMPI PUSH1 0x0 CALLDATALOAD PUSH1 0xE0 SHR DUP1 PUSH4 0x8DA5CB5B GT PUSH2 0xB8 JUMPI DUP1 PUSH4 0xB26025AA GT PUSH2 0x7C JUMPI DUP1 PUSH4 0xB26025AA EQ PUSH2 0x2A8 JUMPI DUP1 PUSH4 0xCCFD6280 EQ PUSH2 0x2B0 JUMPI DUP1 PUSH4 0xD73792A9 EQ PUSH2 0x2D0 JUMPI DUP1 PUSH4 0xE121C102 EQ PUSH2 0x2D9 JUMPI DUP1 PUSH4 0xE7F8B5EF EQ PUSH2 0x2FD JUMPI DUP1 PUSH4 0xF2FDE38B EQ PUSH2 0x310 JUMPI PUSH1 0x0 DUP1 REVERT JUMPDEST DUP1 PUSH4 0x8DA5CB5B EQ PUSH2 0x231 JUMPI DUP1 PUSH4 0x8DFDC0CA EQ PUSH2 0x24C JUMPI DUP1 PUSH4 0x96AFC450 EQ PUSH2 0x255 JUMPI DUP1 PUSH4 0xA04748F6 EQ PUSH2 0x25E JUMPI DUP1 PUSH4 0xAA8754E4 EQ PUSH2 0x2A0 JUMPI PUSH1 0x0 DUP1 REVERT JUMPDEST DUP1 PUSH4 0x3E18A03F GT PUSH2 0x10A JUMPI DUP1 PUSH4 0x3E18A03F EQ PUSH2 0x1B1 JUMPI DUP1 PUSH4 0x43BCC29B EQ PUSH2 0x1BA JUMPI DUP1 PUSH4 0x56F43352 EQ PUSH2 0x1CD JUMPI DUP1 PUSH4 0x6A166964 EQ PUSH2 0x1D6 JUMPI DUP1 PUSH4 0x715018A6 EQ PUSH2 0x1DF JUMPI DUP1 PUSH4 0x7606F781 EQ PUSH2 0x1E7 JUMPI PUSH1 0x0 DUP1 REVERT JUMPDEST DUP1 PUSH4 0x69DEF88 EQ PUSH2 0x147 JUMPI DUP1 PUSH4 0xBA84CD2 EQ PUSH2 0x163 JUMPI DUP1 PUSH4 0x22429085 EQ PUSH2 0x178 JUMPI DUP1 PUSH4 0x2FF2E9DC EQ PUSH2 0x18B JUMPI DUP1 PUSH4 0x32CB6B0C EQ PUSH2 0x19E JUMPI JUMPDEST PUSH1 0x0 DUP1 REVERT JUMPDEST PUSH2 0x150 PUSH1 0x7 SLOAD DUP2 JUMP JUMPDEST PUSH1 0x40 MLOAD SWAP1 DUP2 MSTORE PUSH1 0x20 ADD JUMPDEST PUSH1 0x40 MLOAD DUP1 SWAP2 SUB SWAP1 RETURN JUMPDEST PUSH2 0x176 PUSH2 0x171 CALLDATASIZE PUSH1 0x4 PUSH2 0x9E5 JUMP JUMPDEST PUSH2 0x323 JUMP JUMPDEST STOP JUMPDEST PUSH2 0x176 PUSH2 0x186 CALLDATASIZE PUSH1 0x4 PUSH2 0x9FE JUMP JUMPDEST PUSH2 0x3B6 JUMP JUMPDEST PUSH2 0x150 PUSH12 0x33B2E3C9FD0803CE8000000 DUP2 JUMP JUMPDEST PUSH2 0x150 PUSH12 0x204FCE5E3E25026110000000 DUP2 JUMP JUMPDEST PUSH2 0x150 PUSH1 0xC SLOAD DUP2 JUMP JUMPDEST PUSH2 0x150 PUSH2 0x1C8 CALLDATASIZE PUSH1 0x4 PUSH2 0xA46 JUMP JUMPDEST PUSH2 0x479 JUMP JUMPDEST PUSH2 0x150 PUSH1 0xA SLOAD DUP2 JUMP JUMPDEST PUSH2 0x150 PUSH1 0xB SLOAD DUP2 JUMP JUMPDEST PUSH2 0x176 PUSH2 0x5AB JUMP JUMPDEST PUSH2 0x1EF PUSH2 0x5BF JUMP JUMPDEST PUSH1 0x40 MLOAD PUSH2 0x15A SWAP2 SWAP1 PUSH1 0x0 PUSH1 0xA0 DUP3 ADD SWAP1 POP DUP3 MLOAD DUP3 MSTORE PUSH1 0x20 DUP4 ADD MLOAD PUSH1 0x20 DUP4 ADD MSTORE PUSH1 0x40 DUP4 ADD MLOAD PUSH1 0x40 DUP4 ADD MSTORE PUSH1 0x60 DUP4 ADD MLOAD PUSH1 0x60 DUP4 ADD MSTORE PUSH1 0x80 DUP4 ADD MLOAD PUSH1 0x80 DUP4 ADD MSTORE SWAP3 SWAP2 POP POP JUMP JUMPDEST PUSH1 0x0 SLOAD PUSH1 0x40 MLOAD PUSH1 0x1 PUSH1 0x1 PUSH1 0xA0 SHL SUB SWAP1 SWAP2 AND DUP2 MSTORE PUSH1 0x20 ADD PUSH2 0x15A JUMP JUMPDEST PUSH2 0x150 PUSH1 0x9 SLOAD DUP2 JUMP JUMPDEST PUSH2 0x150 PUSH1 0x8 SLOAD DUP2 JUMP JUMPDEST PUSH1 0x1 SLOAD PUSH1 0x2 SLOAD PUSH1 0x3 SLOAD PUSH1 0x4 SLOAD PUSH1 0x5 SLOAD PUSH2 0x278 SWAP5 SWAP4 SWAP3 SWAP2 SWAP1 DUP6 JUMP JUMPDEST PUSH1 0x40 DUP1 MLOAD SWAP6 DUP7 MSTORE PUSH1 0x20 DUP7 ADD SWAP5 SWAP1 SWAP5 MSTORE SWAP3 DUP5 ADD SWAP2 SWAP1 SWAP2 MSTORE PUSH1 0x60 DUP4 ADD MSTORE PUSH1 0x80 DUP3 ADD MSTORE PUSH1 0xA0 ADD PUSH2 0x15A JUMP JUMPDEST PUSH2 0x150 PUSH2 0x626 JUMP JUMPDEST PUSH2 0x150 PUSH2 0x6E0 JUMP JUMPDEST PUSH2 0x2C3 PUSH2 0x2BE CALLDATASIZE PUSH1 0x4 PUSH2 0x9E5 JUMP JUMPDEST PUSH2 0x6F7 JUMP JUMPDEST PUSH1 0x40 MLOAD PUSH2 0x15A SWAP2 SWAP1 PUSH2 0xAB8 JUMP JUMPDEST PUSH2 0x150 PUSH2 0x2710 DUP2 JUMP JUMPDEST PUSH2 0x2EC PUSH2 0x2E7 CALLDATASIZE PUSH1 0x4 PUSH2 0x9E5 JUMP JUMPDEST PUSH2 0x809 JUMP JUMPDEST PUSH1 0x40 MLOAD PUSH2 0x15A SWAP6 SWAP5 SWAP4 SWAP3 SWAP2 SWAP1 PUSH2 0xB0A JUMP JUMPDEST PUSH2 0x176 PUSH2 0x30B CALLDATASIZE PUSH1 0x4 PUSH2 0xB43 JUMP JUMPDEST PUSH2 0x8C3 JUMP JUMPDEST PUSH2 0x176 PUSH2 0x31E CALLDATASIZE PUSH1 0x4 PUSH2 0xB75 JUMP JUMPDEST PUSH2 0x92A JUMP JUMPDEST PUSH2 0x32B PUSH2 0x968 JUMP JUMPDEST PUSH1 0xA DUP2 GT ISZERO PUSH2 0x371 JUMPI PUSH1 0x40 MLOAD PUSH3 0x461BCD PUSH1 0xE5 SHL DUP2 MSTORE PUSH1 0x20 PUSH1 0x4 DUP3 ADD MSTORE PUSH1 0xD PUSH1 0x24 DUP3 ADD MSTORE PUSH13 0xA4C2E8CA40E8DEDE40D0D2CED PUSH1 0x9B SHL PUSH1 0x44 DUP3 ADD MSTORE PUSH1 0x64 ADD JUMPDEST PUSH1 0x40 MLOAD DUP1 SWAP2 SUB SWAP1 REVERT JUMPDEST PUSH1 0x8 DUP1 SLOAD SWAP1 DUP3 SWAP1 SSTORE PUSH1 0x40 DUP1 MLOAD DUP3 DUP2 MSTORE PUSH1 0x20 DUP2 ADD DUP5 SWAP1 MSTORE PUSH32 0x144D30C57E277DEB14C5D686B95CF61CFEA257D9D551CEF4288B2F7DB418F87A SWAP2 ADD PUSH1 0x40 MLOAD DUP1 SWAP2 SUB SWAP1 LOG1 POP POP JUMP JUMPDEST PUSH2 0x3BE PUSH2 0x968 JUMP JUMPDEST PUSH2 0x3E8 DUP4 GT ISZERO PUSH2 0x3E0 JUMPI PUSH1 0x40 MLOAD PUSH3 0x461BCD PUSH1 0xE5 SHL DUP2 MSTORE PUSH1 0x4 ADD PUSH2 0x368 SWAP1 PUSH2 0xB97 JUMP JUMPDEST PUSH2 0x3E8 DUP3 GT ISZERO PUSH2 0x402 JUMPI PUSH1 0x40 MLOAD PUSH3 0x461BCD PUSH1 0xE5 SHL DUP2 MSTORE PUSH1 0x4 ADD PUSH2 0x368 SWAP1 PUSH2 0xB97 JUMP JUMPDEST PUSH2 0x1F4 DUP2 GT ISZERO PUSH2 0x424 JUMPI PUSH1 0x40 MLOAD PUSH3 0x461BCD PUSH1 0xE5 SHL DUP2 MSTORE PUSH1 0x4 ADD PUSH2 0x368 SWAP1 PUSH2 0xB97 JUMP JUMPDEST PUSH1 0xA DUP4 SWAP1 SSTORE PUSH1 0xB DUP3 SWAP1 SSTORE PUSH1 0xC DUP2 SWAP1 SSTORE PUSH1 0x40 DUP1 MLOAD DUP5 DUP2 MSTORE PUSH1 0x20 DUP2 ADD DUP5 SWAP1 MSTORE SWAP1 DUP2 ADD DUP3 SWAP1 MSTORE PUSH32 0xCF8A1E1D5F09CF3C97DBB653CD9A4D7AACE9292FBC1BB8211FEBF2D400FEBBDD SWAP1 PUSH1 0x60 ADD PUSH1 0x40 MLOAD DUP1 SWAP2 SUB SWAP1 LOG1 POP POP POP JUMP JUMPDEST PUSH1 0x0 PUSH2 0x483 PUSH2 0x968 JUMP JUMPDEST PUSH1 0x0 DUP4 DUP2 MSTORE PUSH1 0x6 PUSH1 0x20 MSTORE PUSH1 0x40 SWAP1 KECCAK256 PUSH1 0x4 DUP2 ADD SLOAD PUSH1 0xFF AND PUSH2 0x4DA JUMPI PUSH1 0x40 MLOAD PUSH3 0x461BCD PUSH1 0xE5 SHL DUP2 MSTORE PUSH1 0x20 PUSH1 0x4 DUP3 ADD MSTORE PUSH1 0x12 PUSH1 0x24 DUP3 ADD MSTORE PUSH18 0x496E63656E7469766520696E616374697665 PUSH1 0x70 SHL PUSH1 0x44 DUP3 ADD MSTORE PUSH1 0x64 ADD PUSH2 0x368 JUMP JUMPDEST DUP1 PUSH1 0x2 ADD SLOAD DUP2 PUSH1 0x1 ADD SLOAD DUP3 PUSH1 0x3 ADD SLOAD PUSH2 0x4F3 SWAP2 SWAP1 PUSH2 0xBD3 JUMP JUMPDEST GT ISZERO PUSH2 0x537 JUMPI PUSH1 0x40 MLOAD PUSH3 0x461BCD PUSH1 0xE5 SHL DUP2 MSTORE PUSH1 0x20 PUSH1 0x4 DUP3 ADD MSTORE PUSH1 0x13 PUSH1 0x24 DUP3 ADD MSTORE PUSH19 0x13585E081C995DD85C991CC81C995858DA1959 PUSH1 0x6A SHL PUSH1 0x44 DUP3 ADD MSTORE PUSH1 0x64 ADD PUSH2 0x368 JUMP JUMPDEST DUP1 PUSH1 0x1 ADD SLOAD DUP2 PUSH1 0x3 ADD PUSH1 0x0 DUP3 DUP3 SLOAD PUSH2 0x54F SWAP2 SWAP1 PUSH2 0xBD3 JUMP JUMPDEST SWAP3 POP POP DUP2 SWAP1 SSTORE POP DUP3 PUSH1 0x1 PUSH1 0x1 PUSH1 0xA0 SHL SUB AND DUP5 PUSH32 0xAB7542BAFCED3DA2D8C881CB2DD1DE859FAC7C20D3650D2902AD389A64E08883 DUP4 PUSH1 0x1 ADD SLOAD PUSH1 0x40 MLOAD PUSH2 0x596 SWAP2 DUP2 MSTORE PUSH1 0x20 ADD SWAP1 JUMP JUMPDEST PUSH1 0x40 MLOAD DUP1 SWAP2 SUB SWAP1 LOG3 PUSH1 0x1 ADD SLOAD SWAP1 POP JUMPDEST SWAP3 SWAP2 POP POP JUMP JUMPDEST PUSH2 0x5B3 PUSH2 0x968 JUMP JUMPDEST PUSH2 0x5BD PUSH1 0x0 PUSH2 0x995 JUMP JUMPDEST JUMP JUMPDEST PUSH2 0x5F1 PUSH1 0x40 MLOAD DUP1 PUSH1 0xA0 ADD PUSH1 0x40 MSTORE DUP1 PUSH1 0x0 DUP2 MSTORE PUSH1 0x20 ADD PUSH1 0x0 DUP2 MSTORE PUSH1 0x20 ADD PUSH1 0x0 DUP2 MSTORE PUSH1 0x20 ADD PUSH1 0x0 DUP2 MSTORE PUSH1 0x20 ADD PUSH1 0x0 DUP2 MSTORE POP SWAP1 JUMP JUMPDEST POP PUSH1 0x40 DUP1 MLOAD PUSH1 0xA0 DUP2 ADD DUP3 MSTORE PUSH1 0x1 SLOAD DUP2 MSTORE PUSH1 0x2 SLOAD PUSH1 0x20 DUP3 ADD MSTORE PUSH1 0x3 SLOAD SWAP2 DUP2 ADD SWAP2 SWAP1 SWAP2 MSTORE PUSH1 0x4 SLOAD PUSH1 0x60 DUP3 ADD MSTORE PUSH1 0x5 SLOAD PUSH1 0x80 DUP3 ADD MSTORE SWAP1 JUMP JUMPDEST PUSH1 0x0 PUSH12 0x204FCE5E3E25026110000000 PUSH1 0x1 PUSH1 0x0 ADD SLOAD LT PUSH2 0x646 JUMPI POP PUSH1 0x0 SWAP1 JUMP JUMPDEST PUSH1 0x0 PUSH1 0x9 SLOAD TIMESTAMP PUSH2 0x656 SWAP2 SWAP1 PUSH2 0xBE6 JUMP JUMPDEST SWAP1 POP PUSH1 0x0 PUSH2 0x668 PUSH4 0x1E13380 DUP4 PUSH2 0xBF9 JUMP JUMPDEST SWAP1 POP DUP1 PUSH1 0x0 SUB PUSH2 0x67B JUMPI PUSH1 0x0 SWAP3 POP POP POP SWAP1 JUMP JUMPDEST PUSH1 0x0 PUSH1 0x64 DUP3 PUSH1 0x8 SLOAD PUSH1 0x1 PUSH1 0x0 ADD SLOAD PUSH2 0x693 SWAP2 SWAP1 PUSH2 0xC1B JUMP JUMPDEST PUSH2 0x69D SWAP2 SWAP1 PUSH2 0xC1B JUMP JUMPDEST PUSH2 0x6A7 SWAP2 SWAP1 PUSH2 0xBF9 JUMP JUMPDEST PUSH1 0x1 SLOAD SWAP1 SWAP2 POP PUSH1 0x0 SWAP1 PUSH2 0x6C6 SWAP1 PUSH12 0x204FCE5E3E25026110000000 PUSH2 0xBE6 JUMP JUMPDEST SWAP1 POP DUP1 DUP3 GT PUSH2 0x6D5 JUMPI DUP2 PUSH2 0x6D7 JUMP JUMPDEST DUP1 JUMPDEST SWAP5 POP POP POP POP POP SWAP1 JUMP JUMPDEST PUSH1 0x4 SLOAD PUSH1 0x3 SLOAD PUSH1 0x0 SWAP2 PUSH2 0x6F2 SWAP2 PUSH2 0xBD3 JUMP JUMPDEST SWAP1 POP SWAP1 JUMP JUMPDEST PUSH2 0x72B PUSH1 0x40 MLOAD DUP1 PUSH1 0xA0 ADD PUSH1 0x40 MSTORE DUP1 PUSH1 0x60 DUP2 MSTORE PUSH1 0x20 ADD PUSH1 0x0 DUP2 MSTORE PUSH1 0x20 ADD PUSH1 0x0 DUP2 MSTORE PUSH1 0x20 ADD PUSH1 0x0 DUP2 MSTORE PUSH1 0x20 ADD PUSH1 0x0 ISZERO ISZERO DUP2 MSTORE POP SWAP1 JUMP JUMPDEST PUSH1 0x0 DUP3 DUP2 MSTORE PUSH1 0x6 PUSH1 0x20 MSTORE PUSH1 0x40 SWAP1 DUP2 SWAP1 KECCAK256 DUP2 MLOAD PUSH1 0xA0 DUP2 ADD SWAP1 SWAP3 MSTORE DUP1 SLOAD DUP3 SWAP1 DUP3 SWAP1 PUSH2 0x753 SWAP1 PUSH2 0xC32 JUMP JUMPDEST DUP1 PUSH1 0x1F ADD PUSH1 0x20 DUP1 SWAP2 DIV MUL PUSH1 0x20 ADD PUSH1 0x40 MLOAD SWAP1 DUP2 ADD PUSH1 0x40 MSTORE DUP1 SWAP3 SWAP2 SWAP1 DUP2 DUP2 MSTORE PUSH1 0x20 ADD DUP3 DUP1 SLOAD PUSH2 0x77F SWAP1 PUSH2 0xC32 JUMP JUMPDEST DUP1 ISZERO PUSH2 0x7CC JUMPI DUP1 PUSH1 0x1F LT PUSH2 0x7A1 JUMPI PUSH2 0x100 DUP1 DUP4 SLOAD DIV MUL DUP4 MSTORE SWAP2 PUSH1 0x20 ADD SWAP2 PUSH2 0x7CC JUMP JUMPDEST DUP3 ADD SWAP2 SWAP1 PUSH1 0x0 MSTORE PUSH1 0x20 PUSH1 0x0 KECCAK256 SWAP1 JUMPDEST DUP2 SLOAD DUP2 MSTORE SWAP1 PUSH1 0x1 ADD SWAP1 PUSH1 0x20 ADD DUP1 DUP4 GT PUSH2 0x7AF JUMPI DUP3 SWAP1 SUB PUSH1 0x1F AND DUP3 ADD SWAP2 JUMPDEST POP POP POP SWAP2 DUP4 MSTORE POP POP PUSH1 0x1 DUP3 ADD SLOAD PUSH1 0x20 DUP3 ADD MSTORE PUSH1 0x2 DUP3 ADD SLOAD PUSH1 0x40 DUP3 ADD MSTORE PUSH1 0x3 DUP3 ADD SLOAD PUSH1 0x60 DUP3 ADD MSTORE PUSH1 0x4 SWAP1 SWAP2 ADD SLOAD PUSH1 0xFF AND ISZERO ISZERO PUSH1 0x80 SWAP1 SWAP2 ADD MSTORE SWAP3 SWAP2 POP POP JUMP JUMPDEST PUSH1 0x6 PUSH1 0x20 MSTORE PUSH1 0x0 SWAP1 DUP2 MSTORE PUSH1 0x40 SWAP1 KECCAK256 DUP1 SLOAD DUP2 SWAP1 PUSH2 0x824 SWAP1 PUSH2 0xC32 JUMP JUMPDEST DUP1 PUSH1 0x1F ADD PUSH1 0x20 DUP1 SWAP2 DIV MUL PUSH1 0x20 ADD PUSH1 0x40 MLOAD SWAP1 DUP2 ADD PUSH1 0x40 MSTORE DUP1 SWAP3 SWAP2 SWAP1 DUP2 DUP2 MSTORE PUSH1 0x20 ADD DUP3 DUP1 SLOAD PUSH2 0x850 SWAP1 PUSH2 0xC32 JUMP JUMPDEST DUP1 ISZERO PUSH2 0x89D JUMPI DUP1 PUSH1 0x1F LT PUSH2 0x872 JUMPI PUSH2 0x100 DUP1 DUP4 SLOAD DIV MUL DUP4 MSTORE SWAP2 PUSH1 0x20 ADD SWAP2 PUSH2 0x89D JUMP JUMPDEST DUP3 ADD SWAP2 SWAP1 PUSH1 0x0 MSTORE PUSH1 0x20 PUSH1 0x0 KECCAK256 SWAP1 JUMPDEST DUP2 SLOAD DUP2 MSTORE SWAP1 PUSH1 0x1 ADD SWAP1 PUSH1 0x20 ADD DUP1 DUP4 GT PUSH2 0x880 JUMPI DUP3 SWAP1 SUB PUSH1 0x1F AND DUP3 ADD SWAP2 JUMPDEST POP POP POP POP PUSH1 0x1 DUP4 ADD SLOAD PUSH1 0x2 DUP5 ADD SLOAD PUSH1 0x3 DUP6 ADD SLOAD PUSH1 0x4 SWAP1 SWAP6 ADD SLOAD SWAP4 SWAP5 SWAP2 SWAP4 SWAP1 SWAP3 POP PUSH1 0xFF AND DUP6 JUMP JUMPDEST PUSH2 0x8CB PUSH2 0x968 JUMP JUMPDEST PUSH1 0x1 DUP5 SWAP1 SSTORE PUSH1 0x2 DUP4 SWAP1 SSTORE PUSH1 0x3 DUP3 SWAP1 SSTORE PUSH1 0x4 DUP2 SWAP1 SSTORE TIMESTAMP PUSH1 0x5 SSTORE PUSH1 0x40 DUP1 MLOAD DUP6 DUP2 MSTORE PUSH1 0x20 DUP2 ADD DUP6 SWAP1 MSTORE SWAP1 DUP2 ADD DUP4 SWAP1 MSTORE PUSH32 0x30B47C3A685E507DA227A870550A387D376E03DA27AD5B6A1D8C7517EB2D9B2F SWAP1 PUSH1 0x60 ADD PUSH1 0x40 MLOAD DUP1 SWAP2 SUB SWAP1 LOG1 POP POP POP POP JUMP JUMPDEST PUSH2 0x932 PUSH2 0x968 JUMP JUMPDEST PUSH1 0x1 PUSH1 0x1 PUSH1 0xA0 SHL SUB DUP2 AND PUSH2 0x95C JUMPI PUSH1 0x40 MLOAD PUSH4 0x1E4FBDF7 PUSH1 0xE0 SHL DUP2 MSTORE PUSH1 0x0 PUSH1 0x4 DUP3 ADD MSTORE PUSH1 0x24 ADD PUSH2 0x368 JUMP JUMPDEST PUSH2 0x965 DUP2 PUSH2 0x995 JUMP JUMPDEST POP JUMP JUMPDEST PUSH1 0x0 SLOAD PUSH1 0x1 PUSH1 0x1 PUSH1 0xA0 SHL SUB AND CALLER EQ PUSH2 0x5BD JUMPI PUSH1 0x40 MLOAD PUSH4 0x118CDAA7 PUSH1 0xE0 SHL DUP2 MSTORE CALLER PUSH1 0x4 DUP3 ADD MSTORE PUSH1 0x24 ADD PUSH2 0x368 JUMP JUMPDEST PUSH1 0x0 DUP1 SLOAD PUSH1 0x1 PUSH1 0x1 PUSH1 0xA0 SHL SUB DUP4 DUP2 AND PUSH1 0x1 PUSH1 0x1 PUSH1 0xA0 SHL SUB NOT DUP4 AND DUP2 OR DUP5 SSTORE PUSH1 0x40 MLOAD SWAP2 SWAP1 SWAP3 AND SWAP3 DUP4 SWAP2 PUSH32 0x8BE0079C531659141344CD1FD0A4F28419497F9722A3DAAFE3B4186F6B6457E0 SWAP2 SWAP1 LOG3 POP POP JUMP JUMPDEST PUSH1 0x0 PUSH1 0x20 DUP3 DUP5 SUB SLT ISZERO PUSH2 0x9F7 JUMPI PUSH1 0x0 DUP1 REVERT JUMPDEST POP CALLDATALOAD SWAP2 SWAP1 POP JUMP JUMPDEST PUSH1 0x0 DUP1 PUSH1 0x0 PUSH1 0x60 DUP5 DUP7 SUB SLT ISZERO PUSH2 0xA13 JUMPI PUSH1 0x0 DUP1 REVERT JUMPDEST POP POP DUP2 CALLDATALOAD SWAP4 PUSH1 0x20 DUP4 ADD CALLDATALOAD SWAP4 POP PUSH1 0x40 SWAP1 SWAP3 ADD CALLDATALOAD SWAP2 SWAP1 POP JUMP JUMPDEST DUP1 CALLDATALOAD PUSH1 0x1 PUSH1 0x1 PUSH1 0xA0 SHL SUB DUP2 AND DUP2 EQ PUSH2 0xA41 JUMPI PUSH1 0x0 DUP1 REVERT JUMPDEST SWAP2 SWAP1 POP JUMP JUMPDEST PUSH1 0x0 DUP1 PUSH1 0x40 DUP4 DUP6 SUB SLT ISZERO PUSH2 0xA59 JUMPI PUSH1 0x0 DUP1 REVERT JUMPDEST DUP3 CALLDATALOAD SWAP2 POP PUSH2 0xA69 PUSH1 0x20 DUP5 ADD PUSH2 0xA2A JUMP JUMPDEST SWAP1 POP SWAP3 POP SWAP3 SWAP1 POP JUMP JUMPDEST PUSH1 0x0 DUP2 MLOAD DUP1 DUP5 MSTORE PUSH1 0x0 JUMPDEST DUP2 DUP2 LT ISZERO PUSH2 0xA98 JUMPI PUSH1 0x20 DUP2 DUP6 ADD DUP2 ADD MLOAD DUP7 DUP4 ADD DUP3 ADD MSTORE ADD PUSH2 0xA7C JUMP JUMPDEST POP PUSH1 0x0 PUSH1 0x20 DUP3 DUP7 ADD ADD MSTORE PUSH1 0x20 PUSH1 0x1F NOT PUSH1 0x1F DUP4 ADD AND DUP6 ADD ADD SWAP2 POP POP SWAP3 SWAP2 POP POP JUMP JUMPDEST PUSH1 0x20 DUP2 MSTORE PUSH1 0x0 DUP3 MLOAD PUSH1 0xA0 PUSH1 0x20 DUP5 ADD MSTORE PUSH2 0xAD4 PUSH1 0xC0 DUP5 ADD DUP3 PUSH2 0xA72 JUMP JUMPDEST SWAP1 POP PUSH1 0x20 DUP5 ADD MLOAD PUSH1 0x40 DUP5 ADD MSTORE PUSH1 0x40 DUP5 ADD MLOAD PUSH1 0x60 DUP5 ADD MSTORE PUSH1 0x60 DUP5 ADD MLOAD PUSH1 0x80 DUP5 ADD MSTORE PUSH1 0x80 DUP5 ADD MLOAD ISZERO ISZERO PUSH1 0xA0 DUP5 ADD MSTORE DUP1 SWAP2 POP POP SWAP3 SWAP2 POP POP JUMP JUMPDEST PUSH1 0xA0 DUP2 MSTORE PUSH1 0x0 PUSH2 0xB1D PUSH1 0xA0 DUP4 ADD DUP9 PUSH2 0xA72 JUMP JUMPDEST SWAP1 POP DUP6 PUSH1 0x20 DUP4 ADD MSTORE DUP5 PUSH1 0x40 DUP4 ADD MSTORE DUP4 PUSH1 0x60 DUP4 ADD MSTORE DUP3 ISZERO ISZERO PUSH1 0x80 DUP4 ADD MSTORE SWAP7 SWAP6 POP POP POP POP POP POP JUMP JUMPDEST PUSH1 0x0 DUP1 PUSH1 0x0 DUP1 PUSH1 0x80 DUP6 DUP8 SUB SLT ISZERO PUSH2 0xB59 JUMPI PUSH1 0x0 DUP1 REVERT JUMPDEST POP POP DUP3 CALLDATALOAD SWAP5 PUSH1 0x20 DUP5 ADD CALLDATALOAD SWAP5 POP PUSH1 0x40 DUP5 ADD CALLDATALOAD SWAP4 PUSH1 0x60 ADD CALLDATALOAD SWAP3 POP SWAP1 POP JUMP JUMPDEST PUSH1 0x0 PUSH1 0x20 DUP3 DUP5 SUB SLT ISZERO PUSH2 0xB87 JUMPI PUSH1 0x0 DUP1 REVERT JUMPDEST PUSH2 0xB90 DUP3 PUSH2 0xA2A JUMP JUMPDEST SWAP4 SWAP3 POP POP POP JUMP JUMPDEST PUSH1 0x20 DUP1 DUP3 MSTORE PUSH1 0xC SWAP1 DUP3 ADD MSTORE PUSH12 0x8CCACA40E8DEDE40D0D2CED PUSH1 0xA3 SHL PUSH1 0x40 DUP3 ADD MSTORE PUSH1 0x60 ADD SWAP1 JUMP JUMPDEST PUSH4 0x4E487B71 PUSH1 0xE0 SHL PUSH1 0x0 MSTORE PUSH1 0x11 PUSH1 0x4 MSTORE PUSH1 0x24 PUSH1 0x0 REVERT JUMPDEST DUP1 DUP3 ADD DUP1 DUP3 GT ISZERO PUSH2 0x5A5 JUMPI PUSH2 0x5A5 PUSH2 0xBBD JUMP JUMPDEST DUP2 DUP2 SUB DUP2 DUP2 GT ISZERO PUSH2 0x5A5 JUMPI PUSH2 0x5A5 PUSH2 0xBBD JUMP JUMPDEST PUSH1 0x0 DUP3 PUSH2 0xC16 JUMPI PUSH4 0x4E487B71 PUSH1 0xE0 SHL PUSH1 0x0 MSTORE PUSH1 0x12 PUSH1 0x4 MSTORE PUSH1 0x24 PUSH1 0x0 REVERT JUMPDEST POP DIV SWAP1 JUMP JUMPDEST DUP1 DUP3 MUL DUP2 ISZERO DUP3 DUP3 DIV DUP5 EQ OR PUSH2 0x5A5 JUMPI PUSH2 0x5A5 PUSH2 0xBBD JUMP JUMPDEST PUSH1 0x1 DUP2 DUP2 SHR SWAP1 DUP3 AND DUP1 PUSH2 0xC46 JUMPI PUSH1 0x7F DUP3 AND SWAP2 POP JUMPDEST PUSH1 0x20 DUP3 LT DUP2 SUB PUSH2 0xC66 JUMPI PUSH4 0x4E487B71 PUSH1 0xE0 SHL PUSH1 0x0 MSTORE PUSH1 0x22 PUSH1 0x4 MSTORE PUSH1 0x24 PUSH1 0x0 REVERT JUMPDEST POP SWAP2 SWAP1 POP JUMP INVALID LOG2 PUSH5 0x6970667358 0x22 SLT KECCAK256 CALLDATACOPY 0xDE 0xB1 DUP13 DUP12 SWAP5 0xCB DUP12 SWAP14 0xDD ADDRESS 0xDF 0xB9 0xD2 0xDC LOG0 PC SWAP5 DUP15 0x23 SSTORE 0x25 0x2E 0xD9 LT LOG3 0xE8 0xBE MUL 0xE0 PUSH11 0x7E64736F6C634300081400 CALLER "},"methodIdentifiers":{"FEE_DENOMINATOR()":"d73792a9","INITIAL_SUPPLY()":"2ff2e9dc","MAX_SUPPLY()":"32cb6b0c","calculateEmission()":"aa8754e4","distributeReward(uint256,address)":"43bcc29b","emissionRate()":"96afc450","getIncentive(uint256)":"ccfd6280","getMetrics()":"7606f781","getTotalValueLocked()":"b26025aa","incentiveCount()":"069def88","incentives(uint256)":"e121c102","lastEmission()":"8dfdc0ca","marketplaceFee()":"6a166964","metrics()":"a04748f6","owner()":"8da5cb5b","renounceOwnership()":"715018a6","spawningFee()":"3e18a03f","tradingFee()":"56f43352","transferOwnership(address)":"f2fde38b","updateEmissionRate(uint256)":"0ba84cd2","updateFees(uint256,uint256,uint256)":"22429085","updateMetrics(uint256,uint256,uint256,uint256)":"e7f8b5ef"}}}}}