{"contracts/layer3/risk/RiskProfiles.sol":{"RiskProfiles":{"abi":[{"inputs":[],"stateMutability":"nonpayable","type":"constructor"},{"inputs":[{"internalType":"address","name":"owner","type":"address"}],"name":"OwnableInvalidOwner","type":"error"},{"inputs":[{"internalType":"address","name":"account","type":"address"}],"name":"OwnableUnauthorizedAccount","type":"error"},{"anonymous":false,"inputs":[{"indexed":true,"internalType":"address","name":"previousOwner","type":"address"},{"indexed":true,"internalType":"address","name":"newOwner","type":"address"}],"name":"OwnershipTransferred","type":"event"},{"anonymous":false,"inputs":[{"indexed":true,"internalType":"uint256","name":"entityId","type":"uint256"},{"indexed":false,"internalType":"enum RiskProfiles.RiskRating","name":"rating","type":"uint8"}],"name":"RiskProfileCreated","type":"event"},{"anonymous":false,"inputs":[{"indexed":true,"internalType":"uint256","name":"entityId","type":"uint256"},{"indexed":false,"internalType":"enum RiskProfiles.RiskRating","name":"oldRating","type":"uint8"},{"indexed":false,"internalType":"enum RiskProfiles.RiskRating","name":"newRating","type":"uint8"}],"name":"RiskRatingUpdated","type":"event"},{"anonymous":false,"inputs":[{"indexed":true,"internalType":"uint256","name":"entityId","type":"uint256"},{"indexed":false,"internalType":"uint256","name":"volatility","type":"uint256"}],"name":"VolatilityCalculated","type":"event"},{"inputs":[{"internalType":"uint256","name":"entityId","type":"uint256"},{"internalType":"uint256","name":"volatility","type":"uint256"},{"internalType":"uint256","name":"stabilityScore","type":"uint256"},{"internalType":"enum RiskProfiles.RiskTolerance","name":"tolerance","type":"uint8"}],"name":"createRiskProfile","outputs":[{"internalType":"bool","name":"","type":"bool"}],"stateMutability":"nonpayable","type":"function"},{"inputs":[{"internalType":"uint256","name":"worldId","type":"uint256"},{"internalType":"uint256","name":"dangerLevel","type":"uint256"},{"internalType":"uint256","name":"rewardPotential","type":"uint256"},{"internalType":"uint256","name":"economicStability","type":"uint256"}],"name":"createWorldRiskProfile","outputs":[],"stateMutability":"nonpayable","type":"function"},{"inputs":[{"internalType":"uint256","name":"","type":"uint256"}],"name":"entityRiskProfiles","outputs":[{"internalType":"uint256","name":"entityId","type":"uint256"},{"internalType":"enum RiskProfiles.RiskRating","name":"riskRating","type":"uint8"},{"internalType":"uint256","name":"volatility","type":"uint256"},{"internalType":"uint256","name":"stabilityScore","type":"uint256"},{"internalType":"uint256","name":"failureProbability","type":"uint256"},{"internalType":"uint256","name":"historicalVariance","type":"uint256"},{"internalType":"enum RiskProfiles.RiskTolerance","name":"riskTolerance","type":"uint8"},{"internalType":"uint256","name":"lastAssessment","type":"uint256"}],"stateMutability":"view","type":"function"},{"inputs":[{"internalType":"uint256","name":"entityId","type":"uint256"}],"name":"getRiskProfile","outputs":[{"components":[{"internalType":"uint256","name":"entityId","type":"uint256"},{"internalType":"enum RiskProfiles.RiskRating","name":"riskRating","type":"uint8"},{"internalType":"uint256","name":"volatility","type":"uint256"},{"internalType":"uint256","name":"stabilityScore","type":"uint256"},{"internalType":"uint256","name":"failureProbability","type":"uint256"},{"internalType":"uint256","name":"historicalVariance","type":"uint256"},{"internalType":"enum RiskProfiles.RiskTolerance","name":"riskTolerance","type":"uint8"},{"internalType":"uint256","name":"lastAssessment","type":"uint256"}],"internalType":"struct RiskProfiles.EntityRiskProfile","name":"","type":"tuple"}],"stateMutability":"view","type":"function"},{"inputs":[{"internalType":"uint256","name":"entityId","type":"uint256"}],"name":"getRiskScore","outputs":[{"internalType":"uint256","name":"","type":"uint256"}],"stateMutability":"view","type":"function"},{"inputs":[],"name":"owner","outputs":[{"internalType":"address","name":"","type":"address"}],"stateMutability":"view","type":"function"},{"inputs":[{"internalType":"uint256","name":"","type":"uint256"}],"name":"performanceData","outputs":[{"internalType":"uint256","name":"totalAttempts","type":"uint256"},{"internalType":"uint256","name":"successfulAttempts","type":"uint256"},{"internalType":"uint256","name":"failedAttempts","type":"uint256"},{"internalType":"int256","name":"averageReturn","type":"int256"},{"internalType":"uint256","name":"maxDrawdown","type":"uint256"}],"stateMutability":"view","type":"function"},{"inputs":[{"internalType":"uint256","name":"entityId","type":"uint256"},{"internalType":"bool","name":"success","type":"bool"},{"internalType":"int256","name":"returnValue","type":"int256"}],"name":"recordPerformance","outputs":[],"stateMutability":"nonpayable","type":"function"},{"inputs":[],"name":"renounceOwnership","outputs":[],"stateMutability":"nonpayable","type":"function"},{"inputs":[{"internalType":"uint256","name":"","type":"uint256"},{"internalType":"uint256","name":"","type":"uint256"}],"name":"riskHistory","outputs":[{"internalType":"uint256","name":"","type":"uint256"}],"stateMutability":"view","type":"function"},{"inputs":[{"internalType":"address","name":"newOwner","type":"address"}],"name":"transferOwnership","outputs":[],"stateMutability":"nonpayable","type":"function"},{"inputs":[{"internalType":"uint256","name":"entityId","type":"uint256"},{"internalType":"uint256","name":"newVolatility","type":"uint256"}],"name":"updateRiskProfile","outputs":[],"stateMutability":"nonpayable","type":"function"},{"inputs":[{"internalType":"uint256","name":"","type":"uint256"}],"name":"worldRiskProfiles","outputs":[{"internalType":"uint256","name":"worldId","type":"uint256"},{"internalType":"uint256","name":"dangerLevel","type":"uint256"},{"internalType":"uint256","name":"rewardPotential","type":"uint256"},{"internalType":"uint256","name":"economicStability","type":"uint256"},{"internalType":"enum RiskProfiles.RiskRating","name":"overallRisk","type":"uint8"}],"stateMutability":"view","type":"function"}],"evm":{"bytecode":{"linkReferences":{},"object":"608060405234801561001057600080fd5b50338061003757604051631e4fbdf760e01b81526000600482015260240160405180910390fd5b61004081610046565b50610096565b600080546001600160a01b038381166001600160a01b0319831681178455604051919092169283917f8be0079c531659141344cd1fd0a4f28419497f9722a3daafe3b4186f6b6457e09190a35050565b610f22806100a56000396000f3fe608060405234801561001057600080fd5b50600436106100cf5760003560e01c80639ec39e2f1161008c578063afda587411610066578063afda58741461028f578063c6b97b5a146102b0578063ea2d7aa2146102c3578063f2fde38b146102d657600080fd5b80639ec39e2f14610249578063a245066914610269578063a698b1e71461027c57600080fd5b80633694444a146100d457806354cadc801461014a57806357de33c2146101af578063715018a6146102015780638da5cb5b1461020b5780639644262014610226575b600080fd5b61012d6100e2366004610b78565b60016020819052600091825260409091208054918101546002820154600383015460048401546005850154600686015460079096015460ff9586169694959394929391929091169088565b604051610141989796959493929190610bcb565b60405180910390f35b610187610158366004610b78565b600260208190526000918252604090912080546001820154928201546003830154600490930154919392909185565b604080519586526020860194909452928401919091526060830152608082015260a001610141565b6101f06101bd366004610b78565b60036020819052600091825260409091208054600182015460028301549383015460049093015491939092909160ff1685565b604051610141959493929190610c18565b6102096102e9565b005b6000546040516001600160a01b039091168152602001610141565b610239610234366004610c42565b6102fd565b6040519015158152602001610141565b61025c610257366004610b78565b6104aa565b6040516101419190610c87565b610209610277366004610ced565b61056e565b61020961028a366004610d0f565b6106c8565b6102a261029d366004610ced565b610781565b604051908152602001610141565b6102a26102be366004610b78565b6107b2565b6102096102d1366004610d41565b6107e6565b6102096102e4366004610d7e565b610896565b6102f16108d4565b6102fb6000610901565b565b600084815260016020526040812060070154156103525760405162461bcd60e51b815260206004820152600e60248201526d50726f66696c652065786973747360901b60448201526064015b60405180910390fd5b600061035e8585610951565b905060405180610100016040528087815260200182600581111561038457610384610b91565b815260200186815260200185815260200161039f87876109d6565b8152602001600081526020018460028111156103bd576103bd610b91565b815242602091820152600088815260018083526040909120835181559183015182820180549192909160ff1916908360058111156103fd576103fd610b91565b021790555060408201518160020155606082015181600301556080820151816004015560a0820151816005015560c08201518160060160006101000a81548160ff0219169083600281111561045457610454610b91565b021790555060e08201518160070155905050857f52820dc9e3bf8df3aad2a7eaac189bc71f3ef0c6d6a8dfd5c52dfe41402cd060826040516104969190610da7565b60405180910390a250600195945050505050565b6104b2610b21565b6000828152600160208181526040928390208351610100810190945280548452918201549083019060ff1660058111156104ee576104ee610b91565b60058111156104ff576104ff610b91565b81526002828101546020830152600383015460408301526004830154606083015260058301546080830152600683015460a09092019160ff169081111561054857610548610b91565b600281111561055957610559610b91565b81526020016007820154815250509050919050565b6000828152600160205260409020600781015461058a57600080fd5b600181015460028201839055600382015460ff909116906105ac908490610951565b60018084018054909160ff19909116908360058111156105ce576105ce610b91565b02179055506105e18383600301546109d6565b60048084019190915542600784015560008581526020918252604081208054600181810183559183529290912090910184905582015460ff16600581111561062b5761062b610b91565b81600581111561063d5761063d610b91565b1461068857600182015460405185917f9ee42ee805f2d2e4ad044600cab204b5582a4b1e5e933163a357ed8c059a412c9161067f91859160ff90911690610db5565b60405180910390a25b837fe94a78154c4fa925bae6fbe9038c4d8ce7c935459ae5c270aa3a33ec031fc85c846040516106ba91815260200190565b60405180910390a250505050565b60006106d48483610a2b565b90506040518060a0016040528086815260200185815260200184815260200183815260200182600581111561070b5761070b610b91565b815250600360008781526020019081526020016000206000820151816000015560208201518160010155604082015181600201556060820151816003015560808201518160040160006101000a81548160ff0219169083600581111561077357610773610b91565b021790555050505050505050565b6004602052816000526040600020818154811061079d57600080fd5b90600052602060002001600091509150505481565b600081815260016020526040812060038101546107d0906064610de6565b81600201546107df9190610df9565b9392505050565b600083815260026020526040812080549091829061080383610e0c565b9190505550821561082a5760018101805490600061082083610e0c565b9190505550610842565b60028101805490600061083c83610e0c565b91905055505b805482610850600183610de6565b836003015461085f9190610e25565b6108699190610e55565b6108739190610e93565b6003820155600061088385610a88565b905061088f858261056e565b5050505050565b61089e6108d4565b6001600160a01b0381166108c857604051631e4fbdf760e01b815260006004820152602401610349565b6108d181610901565b50565b6000546001600160a01b031633146102fb5760405163118cdaa760e01b8152336004820152602401610349565b600080546001600160a01b038381166001600160a01b0319831681178455604051919092169283917f8be0079c531659141344cd1fd0a4f28419497f9722a3daafe3b4186f6b6457e09190a35050565b60008061095f836064610de6565b6109699085610df9565b9050602881101561097e5760009150506109d0565b60468110156109915760019150506109d0565b60648110156109a45760029150506109d0565b60828110156109b75760039150506109d0565b60a08110156109ca5760049150506109d0565b60059150505b92915050565b6000806109e4846032610ec1565b905060006109f3846064610de6565b6109fe906019610ec1565b90506000610a0c8284610df9565b90506127108111610a1d5780610a21565b6127105b9695505050505050565b600080610a39836064610de6565b610a439085610df9565b90506032811015610a585760019150506109d0565b6064811015610a6b5760029150506109d0565b6096811015610a7e5760039150506109d0565b5060049392505050565b6000818152600260205260408120805460051115610aa95750603292915050565b8054600182015460009190610abf906064610ec1565b610ac99190610ed8565b90506050811115610ade575060149392505050565b603c811115610af1575060289392505050565b6028811115610b045750603c9392505050565b6014811115610b17575060509392505050565b50605f9392505050565b6040805161010081019091526000808252602082019081526020016000815260200160008152602001600081526020016000815260200160006002811115610b6b57610b6b610b91565b8152602001600081525090565b600060208284031215610b8a57600080fd5b5035919050565b634e487b7160e01b600052602160045260246000fd5b60068110610bb757610bb7610b91565b9052565b60038110610bb757610bb7610b91565b8881526101008101610be0602083018a610ba7565b8760408301528660608301528560808301528460a0830152610c0560c0830185610bbb565b8260e08301529998505050505050505050565b600060a082019050868252856020830152846040830152836060830152610a216080830184610ba7565b60008060008060808587031215610c5857600080fd5b843593506020850135925060408501359150606085013560038110610c7c57600080fd5b939692955090935050565b81518152602080830151610100830191610ca390840182610ba7565b5060408301516040830152606083015160608301526080830151608083015260a083015160a083015260c0830151610cde60c0840182610bbb565b5060e092830151919092015290565b60008060408385031215610d0057600080fd5b50508035926020909101359150565b60008060008060808587031215610d2557600080fd5b5050823594602084013594506040840135936060013592509050565b600080600060608486031215610d5657600080fd5b8335925060208401358015158114610d6d57600080fd5b929592945050506040919091013590565b600060208284031215610d9057600080fd5b81356001600160a01b03811681146107df57600080fd5b602081016109d08284610ba7565b60408101610dc38285610ba7565b6107df6020830184610ba7565b634e487b7160e01b600052601160045260246000fd5b818103818111156109d0576109d0610dd0565b808201808211156109d0576109d0610dd0565b600060018201610e1e57610e1e610dd0565b5060010190565b80820260008212600160ff1b84141615610e4157610e41610dd0565b81810583148215176109d0576109d0610dd0565b8082018281126000831280158216821582161715610e7557610e75610dd0565b505092915050565b634e487b7160e01b600052601260045260246000fd5b600082610ea257610ea2610e7d565b600160ff1b821460001984141615610ebc57610ebc610dd0565b500590565b80820281158282048414176109d0576109d0610dd0565b600082610ee757610ee7610e7d565b50049056fea26469706673582212202914d0546f1d634958ce4278fbdbec0d30af582522300712864454860d9f1f9c64736f6c63430008140033","opcodes":"PUSH1 0x80 PUSH1 0x40 MSTORE CALLVALUE DUP1 ISZERO PUSH2 0x10 JUMPI PUSH1 0x0 DUP1 REVERT JUMPDEST POP CALLER DUP1 PUSH2 0x37 JUMPI PUSH1 0x40 MLOAD PUSH4 0x1E4FBDF7 PUSH1 0xE0 SHL DUP2 MSTORE PUSH1 0x0 PUSH1 0x4 DUP3 ADD MSTORE PUSH1 0x24 ADD PUSH1 0x40 MLOAD DUP1 SWAP2 SUB SWAP1 REVERT JUMPDEST PUSH2 0x40 DUP2 PUSH2 0x46 JUMP JUMPDEST POP PUSH2 0x96 JUMP JUMPDEST PUSH1 0x0 DUP1 SLOAD PUSH1 0x1 PUSH1 0x1 PUSH1 0xA0 SHL SUB DUP4 DUP2 AND PUSH1 0x1 PUSH1 0x1 PUSH1 0xA0 SHL SUB NOT DUP4 AND DUP2 OR DUP5 SSTORE PUSH1 0x40 MLOAD SWAP2 SWAP1 SWAP3 AND SWAP3 DUP4 SWAP2 PUSH32 0x8BE0079C531659141344CD1FD0A4F28419497F9722A3DAAFE3B4186F6B6457E0 SWAP2 SWAP1 LOG3 POP POP JUMP JUMPDEST PUSH2 0xF22 DUP1 PUSH2 0xA5 PUSH1 0x0 CODECOPY PUSH1 0x0 RETURN INVALID PUSH1 0x80 PUSH1 0x40 MSTORE CALLVALUE DUP1 ISZERO PUSH2 0x10 JUMPI PUSH1 0x0 DUP1 REVERT JUMPDEST POP PUSH1 0x4 CALLDATASIZE LT PUSH2 0xCF JUMPI PUSH1 0x0 CALLDATALOAD PUSH1 0xE0 SHR DUP1 PUSH4 0x9EC39E2F GT PUSH2 0x8C JUMPI DUP1 PUSH4 0xAFDA5874 GT PUSH2 0x66 JUMPI DUP1 PUSH4 0xAFDA5874 EQ PUSH2 0x28F JUMPI DUP1 PUSH4 0xC6B97B5A EQ PUSH2 0x2B0 JUMPI DUP1 PUSH4 0xEA2D7AA2 EQ PUSH2 0x2C3 JUMPI DUP1 PUSH4 0xF2FDE38B EQ PUSH2 0x2D6 JUMPI PUSH1 0x0 DUP1 REVERT JUMPDEST DUP1 PUSH4 0x9EC39E2F EQ PUSH2 0x249 JUMPI DUP1 PUSH4 0xA2450669 EQ PUSH2 0x269 JUMPI DUP1 PUSH4 0xA698B1E7 EQ PUSH2 0x27C JUMPI PUSH1 0x0 DUP1 REVERT JUMPDEST DUP1 PUSH4 0x3694444A EQ PUSH2 0xD4 JUMPI DUP1 PUSH4 0x54CADC80 EQ PUSH2 0x14A JUMPI DUP1 PUSH4 0x57DE33C2 EQ PUSH2 0x1AF JUMPI DUP1 PUSH4 0x715018A6 EQ PUSH2 0x201 JUMPI DUP1 PUSH4 0x8DA5CB5B EQ PUSH2 0x20B JUMPI DUP1 PUSH4 0x96442620 EQ PUSH2 0x226 JUMPI JUMPDEST PUSH1 0x0 DUP1 REVERT JUMPDEST PUSH2 0x12D PUSH2 0xE2 CALLDATASIZE PUSH1 0x4 PUSH2 0xB78 JUMP JUMPDEST PUSH1 0x1 PUSH1 0x20 DUP2 SWAP1 MSTORE PUSH1 0x0 SWAP2 DUP3 MSTORE PUSH1 0x40 SWAP1 SWAP2 KECCAK256 DUP1 SLOAD SWAP2 DUP2 ADD SLOAD PUSH1 0x2 DUP3 ADD SLOAD PUSH1 0x3 DUP4 ADD SLOAD PUSH1 0x4 DUP5 ADD SLOAD PUSH1 0x5 DUP6 ADD SLOAD PUSH1 0x6 DUP7 ADD SLOAD PUSH1 0x7 SWAP1 SWAP7 ADD SLOAD PUSH1 0xFF SWAP6 DUP7 AND SWAP7 SWAP5 SWAP6 SWAP4 SWAP5 SWAP3 SWAP4 SWAP2 SWAP3 SWAP1 SWAP2 AND SWAP1 DUP9 JUMP JUMPDEST PUSH1 0x40 MLOAD PUSH2 0x141 SWAP9 SWAP8 SWAP7 SWAP6 SWAP5 SWAP4 SWAP3 SWAP2 SWAP1 PUSH2 0xBCB JUMP JUMPDEST PUSH1 0x40 MLOAD DUP1 SWAP2 SUB SWAP1 RETURN JUMPDEST PUSH2 0x187 PUSH2 0x158 CALLDATASIZE PUSH1 0x4 PUSH2 0xB78 JUMP JUMPDEST PUSH1 0x2 PUSH1 0x20 DUP2 SWAP1 MSTORE PUSH1 0x0 SWAP2 DUP3 MSTORE PUSH1 0x40 SWAP1 SWAP2 KECCAK256 DUP1 SLOAD PUSH1 0x1 DUP3 ADD SLOAD SWAP3 DUP3 ADD SLOAD PUSH1 0x3 DUP4 ADD SLOAD PUSH1 0x4 SWAP1 SWAP4 ADD SLOAD SWAP2 SWAP4 SWAP3 SWAP1 SWAP2 DUP6 JUMP JUMPDEST PUSH1 0x40 DUP1 MLOAD SWAP6 DUP7 MSTORE PUSH1 0x20 DUP7 ADD SWAP5 SWAP1 SWAP5 MSTORE SWAP3 DUP5 ADD SWAP2 SWAP1 SWAP2 MSTORE PUSH1 0x60 DUP4 ADD MSTORE PUSH1 0x80 DUP3 ADD MSTORE PUSH1 0xA0 ADD PUSH2 0x141 JUMP JUMPDEST PUSH2 0x1F0 PUSH2 0x1BD CALLDATASIZE PUSH1 0x4 PUSH2 0xB78 JUMP JUMPDEST PUSH1 0x3 PUSH1 0x20 DUP2 SWAP1 MSTORE PUSH1 0x0 SWAP2 DUP3 MSTORE PUSH1 0x40 SWAP1 SWAP2 KECCAK256 DUP1 SLOAD PUSH1 0x1 DUP3 ADD SLOAD PUSH1 0x2 DUP4 ADD SLOAD SWAP4 DUP4 ADD SLOAD PUSH1 0x4 SWAP1 SWAP4 ADD SLOAD SWAP2 SWAP4 SWAP1 SWAP3 SWAP1 SWAP2 PUSH1 0xFF AND DUP6 JUMP JUMPDEST PUSH1 0x40 MLOAD PUSH2 0x141 SWAP6 SWAP5 SWAP4 SWAP3 SWAP2 SWAP1 PUSH2 0xC18 JUMP JUMPDEST PUSH2 0x209 PUSH2 0x2E9 JUMP JUMPDEST STOP JUMPDEST PUSH1 0x0 SLOAD PUSH1 0x40 MLOAD PUSH1 0x1 PUSH1 0x1 PUSH1 0xA0 SHL SUB SWAP1 SWAP2 AND DUP2 MSTORE PUSH1 0x20 ADD PUSH2 0x141 JUMP JUMPDEST PUSH2 0x239 PUSH2 0x234 CALLDATASIZE PUSH1 0x4 PUSH2 0xC42 JUMP JUMPDEST PUSH2 0x2FD JUMP JUMPDEST PUSH1 0x40 MLOAD SWAP1 ISZERO ISZERO DUP2 MSTORE PUSH1 0x20 ADD PUSH2 0x141 JUMP JUMPDEST PUSH2 0x25C PUSH2 0x257 CALLDATASIZE PUSH1 0x4 PUSH2 0xB78 JUMP JUMPDEST PUSH2 0x4AA JUMP JUMPDEST PUSH1 0x40 MLOAD PUSH2 0x141 SWAP2 SWAP1 PUSH2 0xC87 JUMP JUMPDEST PUSH2 0x209 PUSH2 0x277 CALLDATASIZE PUSH1 0x4 PUSH2 0xCED JUMP JUMPDEST PUSH2 0x56E JUMP JUMPDEST PUSH2 0x209 PUSH2 0x28A CALLDATASIZE PUSH1 0x4 PUSH2 0xD0F JUMP JUMPDEST PUSH2 0x6C8 JUMP JUMPDEST PUSH2 0x2A2 PUSH2 0x29D CALLDATASIZE PUSH1 0x4 PUSH2 0xCED JUMP JUMPDEST PUSH2 0x781 JUMP JUMPDEST PUSH1 0x40 MLOAD SWAP1 DUP2 MSTORE PUSH1 0x20 ADD PUSH2 0x141 JUMP JUMPDEST PUSH2 0x2A2 PUSH2 0x2BE CALLDATASIZE PUSH1 0x4 PUSH2 0xB78 JUMP JUMPDEST PUSH2 0x7B2 JUMP JUMPDEST PUSH2 0x209 PUSH2 0x2D1 CALLDATASIZE PUSH1 0x4 PUSH2 0xD41 JUMP JUMPDEST PUSH2 0x7E6 JUMP JUMPDEST PUSH2 0x209 PUSH2 0x2E4 CALLDATASIZE PUSH1 0x4 PUSH2 0xD7E JUMP JUMPDEST PUSH2 0x896 JUMP JUMPDEST PUSH2 0x2F1 PUSH2 0x8D4 JUMP JUMPDEST PUSH2 0x2FB PUSH1 0x0 PUSH2 0x901 JUMP JUMPDEST JUMP JUMPDEST PUSH1 0x0 DUP5 DUP2 MSTORE PUSH1 0x1 PUSH1 0x20 MSTORE PUSH1 0x40 DUP2 KECCAK256 PUSH1 0x7 ADD SLOAD ISZERO PUSH2 0x352 JUMPI PUSH1 0x40 MLOAD PUSH3 0x461BCD PUSH1 0xE5 SHL DUP2 MSTORE PUSH1 0x20 PUSH1 0x4 DUP3 ADD MSTORE PUSH1 0xE PUSH1 0x24 DUP3 ADD MSTORE PUSH14 0x50726F66696C6520657869737473 PUSH1 0x90 SHL PUSH1 0x44 DUP3 ADD MSTORE PUSH1 0x64 ADD JUMPDEST PUSH1 0x40 MLOAD DUP1 SWAP2 SUB SWAP1 REVERT JUMPDEST PUSH1 0x0 PUSH2 0x35E DUP6 DUP6 PUSH2 0x951 JUMP JUMPDEST SWAP1 POP PUSH1 0x40 MLOAD DUP1 PUSH2 0x100 ADD PUSH1 0x40 MSTORE DUP1 DUP8 DUP2 MSTORE PUSH1 0x20 ADD DUP3 PUSH1 0x5 DUP2 GT ISZERO PUSH2 0x384 JUMPI PUSH2 0x384 PUSH2 0xB91 JUMP JUMPDEST DUP2 MSTORE PUSH1 0x20 ADD DUP7 DUP2 MSTORE PUSH1 0x20 ADD DUP6 DUP2 MSTORE PUSH1 0x20 ADD PUSH2 0x39F DUP8 DUP8 PUSH2 0x9D6 JUMP JUMPDEST DUP2 MSTORE PUSH1 0x20 ADD PUSH1 0x0 DUP2 MSTORE PUSH1 0x20 ADD DUP5 PUSH1 0x2 DUP2 GT ISZERO PUSH2 0x3BD JUMPI PUSH2 0x3BD PUSH2 0xB91 JUMP JUMPDEST DUP2 MSTORE TIMESTAMP PUSH1 0x20 SWAP2 DUP3 ADD MSTORE PUSH1 0x0 DUP9 DUP2 MSTORE PUSH1 0x1 DUP1 DUP4 MSTORE PUSH1 0x40 SWAP1 SWAP2 KECCAK256 DUP4 MLOAD DUP2 SSTORE SWAP2 DUP4 ADD MLOAD DUP3 DUP3 ADD DUP1 SLOAD SWAP2 SWAP3 SWAP1 SWAP2 PUSH1 0xFF NOT AND SWAP1 DUP4 PUSH1 0x5 DUP2 GT ISZERO PUSH2 0x3FD JUMPI PUSH2 0x3FD PUSH2 0xB91 JUMP JUMPDEST MUL OR SWAP1 SSTORE POP PUSH1 0x40 DUP3 ADD MLOAD DUP2 PUSH1 0x2 ADD SSTORE PUSH1 0x60 DUP3 ADD MLOAD DUP2 PUSH1 0x3 ADD SSTORE PUSH1 0x80 DUP3 ADD MLOAD DUP2 PUSH1 0x4 ADD SSTORE PUSH1 0xA0 DUP3 ADD MLOAD DUP2 PUSH1 0x5 ADD SSTORE PUSH1 0xC0 DUP3 ADD MLOAD DUP2 PUSH1 0x6 ADD PUSH1 0x0 PUSH2 0x100 EXP DUP2 SLOAD DUP2 PUSH1 0xFF MUL NOT AND SWAP1 DUP4 PUSH1 0x2 DUP2 GT ISZERO PUSH2 0x454 JUMPI PUSH2 0x454 PUSH2 0xB91 JUMP JUMPDEST MUL OR SWAP1 SSTORE POP PUSH1 0xE0 DUP3 ADD MLOAD DUP2 PUSH1 0x7 ADD SSTORE SWAP1 POP POP DUP6 PUSH32 0x52820DC9E3BF8DF3AAD2A7EAAC189BC71F3EF0C6D6A8DFD5C52DFE41402CD060 DUP3 PUSH1 0x40 MLOAD PUSH2 0x496 SWAP2 SWAP1 PUSH2 0xDA7 JUMP JUMPDEST PUSH1 0x40 MLOAD DUP1 SWAP2 SUB SWAP1 LOG2 POP PUSH1 0x1 SWAP6 SWAP5 POP POP POP POP POP JUMP JUMPDEST PUSH2 0x4B2 PUSH2 0xB21 JUMP JUMPDEST PUSH1 0x0 DUP3 DUP2 MSTORE PUSH1 0x1 PUSH1 0x20 DUP2 DUP2 MSTORE PUSH1 0x40 SWAP3 DUP4 SWAP1 KECCAK256 DUP4 MLOAD PUSH2 0x100 DUP2 ADD SWAP1 SWAP5 MSTORE DUP1 SLOAD DUP5 MSTORE SWAP2 DUP3 ADD SLOAD SWAP1 DUP4 ADD SWAP1 PUSH1 0xFF AND PUSH1 0x5 DUP2 GT ISZERO PUSH2 0x4EE JUMPI PUSH2 0x4EE PUSH2 0xB91 JUMP JUMPDEST PUSH1 0x5 DUP2 GT ISZERO PUSH2 0x4FF JUMPI PUSH2 0x4FF PUSH2 0xB91 JUMP JUMPDEST DUP2 MSTORE PUSH1 0x2 DUP3 DUP2 ADD SLOAD PUSH1 0x20 DUP4 ADD MSTORE PUSH1 0x3 DUP4 ADD SLOAD PUSH1 0x40 DUP4 ADD MSTORE PUSH1 0x4 DUP4 ADD SLOAD PUSH1 0x60 DUP4 ADD MSTORE PUSH1 0x5 DUP4 ADD SLOAD PUSH1 0x80 DUP4 ADD MSTORE PUSH1 0x6 DUP4 ADD SLOAD PUSH1 0xA0 SWAP1 SWAP3 ADD SWAP2 PUSH1 0xFF AND SWAP1 DUP2 GT ISZERO PUSH2 0x548 JUMPI PUSH2 0x548 PUSH2 0xB91 JUMP JUMPDEST PUSH1 0x2 DUP2 GT ISZERO PUSH2 0x559 JUMPI PUSH2 0x559 PUSH2 0xB91 JUMP JUMPDEST DUP2 MSTORE PUSH1 0x20 ADD PUSH1 0x7 DUP3 ADD SLOAD DUP2 MSTORE POP POP SWAP1 POP SWAP2 SWAP1 POP JUMP JUMPDEST PUSH1 0x0 DUP3 DUP2 MSTORE PUSH1 0x1 PUSH1 0x20 MSTORE PUSH1 0x40 SWAP1 KECCAK256 PUSH1 0x7 DUP2 ADD SLOAD PUSH2 0x58A JUMPI PUSH1 0x0 DUP1 REVERT JUMPDEST PUSH1 0x1 DUP2 ADD SLOAD PUSH1 0x2 DUP3 ADD DUP4 SWAP1 SSTORE PUSH1 0x3 DUP3 ADD SLOAD PUSH1 0xFF SWAP1 SWAP2 AND SWAP1 PUSH2 0x5AC SWAP1 DUP5 SWAP1 PUSH2 0x951 JUMP JUMPDEST PUSH1 0x1 DUP1 DUP5 ADD DUP1 SLOAD SWAP1 SWAP2 PUSH1 0xFF NOT SWAP1 SWAP2 AND SWAP1 DUP4 PUSH1 0x5 DUP2 GT ISZERO PUSH2 0x5CE JUMPI PUSH2 0x5CE PUSH2 0xB91 JUMP JUMPDEST MUL OR SWAP1 SSTORE POP PUSH2 0x5E1 DUP4 DUP4 PUSH1 0x3 ADD SLOAD PUSH2 0x9D6 JUMP JUMPDEST PUSH1 0x4 DUP1 DUP5 ADD SWAP2 SWAP1 SWAP2 SSTORE TIMESTAMP PUSH1 0x7 DUP5 ADD SSTORE PUSH1 0x0 DUP6 DUP2 MSTORE PUSH1 0x20 SWAP2 DUP3 MSTORE PUSH1 0x40 DUP2 KECCAK256 DUP1 SLOAD PUSH1 0x1 DUP2 DUP2 ADD DUP4 SSTORE SWAP2 DUP4 MSTORE SWAP3 SWAP1 SWAP2 KECCAK256 SWAP1 SWAP2 ADD DUP5 SWAP1 SSTORE DUP3 ADD SLOAD PUSH1 0xFF AND PUSH1 0x5 DUP2 GT ISZERO PUSH2 0x62B JUMPI PUSH2 0x62B PUSH2 0xB91 JUMP JUMPDEST DUP2 PUSH1 0x5 DUP2 GT ISZERO PUSH2 0x63D JUMPI PUSH2 0x63D PUSH2 0xB91 JUMP JUMPDEST EQ PUSH2 0x688 JUMPI PUSH1 0x1 DUP3 ADD SLOAD PUSH1 0x40 MLOAD DUP6 SWAP2 PUSH32 0x9EE42EE805F2D2E4AD044600CAB204B5582A4B1E5E933163A357ED8C059A412C SWAP2 PUSH2 0x67F SWAP2 DUP6 SWAP2 PUSH1 0xFF SWAP1 SWAP2 AND SWAP1 PUSH2 0xDB5 JUMP JUMPDEST PUSH1 0x40 MLOAD DUP1 SWAP2 SUB SWAP1 LOG2 JUMPDEST DUP4 PUSH32 0xE94A78154C4FA925BAE6FBE9038C4D8CE7C935459AE5C270AA3A33EC031FC85C DUP5 PUSH1 0x40 MLOAD PUSH2 0x6BA SWAP2 DUP2 MSTORE PUSH1 0x20 ADD SWAP1 JUMP JUMPDEST PUSH1 0x40 MLOAD DUP1 SWAP2 SUB SWAP1 LOG2 POP POP POP POP JUMP JUMPDEST PUSH1 0x0 PUSH2 0x6D4 DUP5 DUP4 PUSH2 0xA2B JUMP JUMPDEST SWAP1 POP PUSH1 0x40 MLOAD DUP1 PUSH1 0xA0 ADD PUSH1 0x40 MSTORE DUP1 DUP7 DUP2 MSTORE PUSH1 0x20 ADD DUP6 DUP2 MSTORE PUSH1 0x20 ADD DUP5 DUP2 MSTORE PUSH1 0x20 ADD DUP4 DUP2 MSTORE PUSH1 0x20 ADD DUP3 PUSH1 0x5 DUP2 GT ISZERO PUSH2 0x70B JUMPI PUSH2 0x70B PUSH2 0xB91 JUMP JUMPDEST DUP2 MSTORE POP PUSH1 0x3 PUSH1 0x0 DUP8 DUP2 MSTORE PUSH1 0x20 ADD SWAP1 DUP2 MSTORE PUSH1 0x20 ADD PUSH1 0x0 KECCAK256 PUSH1 0x0 DUP3 ADD MLOAD DUP2 PUSH1 0x0 ADD SSTORE PUSH1 0x20 DUP3 ADD MLOAD DUP2 PUSH1 0x1 ADD SSTORE PUSH1 0x40 DUP3 ADD MLOAD DUP2 PUSH1 0x2 ADD SSTORE PUSH1 0x60 DUP3 ADD MLOAD DUP2 PUSH1 0x3 ADD SSTORE PUSH1 0x80 DUP3 ADD MLOAD DUP2 PUSH1 0x4 ADD PUSH1 0x0 PUSH2 0x100 EXP DUP2 SLOAD DUP2 PUSH1 0xFF MUL NOT AND SWAP1 DUP4 PUSH1 0x5 DUP2 GT ISZERO PUSH2 0x773 JUMPI PUSH2 0x773 PUSH2 0xB91 JUMP JUMPDEST MUL OR SWAP1 SSTORE POP POP POP POP POP POP POP POP JUMP JUMPDEST PUSH1 0x4 PUSH1 0x20 MSTORE DUP2 PUSH1 0x0 MSTORE PUSH1 0x40 PUSH1 0x0 KECCAK256 DUP2 DUP2 SLOAD DUP2 LT PUSH2 0x79D JUMPI PUSH1 0x0 DUP1 REVERT JUMPDEST SWAP1 PUSH1 0x0 MSTORE PUSH1 0x20 PUSH1 0x0 KECCAK256 ADD PUSH1 0x0 SWAP2 POP SWAP2 POP POP SLOAD DUP2 JUMP JUMPDEST PUSH1 0x0 DUP2 DUP2 MSTORE PUSH1 0x1 PUSH1 0x20 MSTORE PUSH1 0x40 DUP2 KECCAK256 PUSH1 0x3 DUP2 ADD SLOAD PUSH2 0x7D0 SWAP1 PUSH1 0x64 PUSH2 0xDE6 JUMP JUMPDEST DUP2 PUSH1 0x2 ADD SLOAD PUSH2 0x7DF SWAP2 SWAP1 PUSH2 0xDF9 JUMP JUMPDEST SWAP4 SWAP3 POP POP POP JUMP JUMPDEST PUSH1 0x0 DUP4 DUP2 MSTORE PUSH1 0x2 PUSH1 0x20 MSTORE PUSH1 0x40 DUP2 KECCAK256 DUP1 SLOAD SWAP1 SWAP2 DUP3 SWAP1 PUSH2 0x803 DUP4 PUSH2 0xE0C JUMP JUMPDEST SWAP2 SWAP1 POP SSTORE POP DUP3 ISZERO PUSH2 0x82A JUMPI PUSH1 0x1 DUP2 ADD DUP1 SLOAD SWAP1 PUSH1 0x0 PUSH2 0x820 DUP4 PUSH2 0xE0C JUMP JUMPDEST SWAP2 SWAP1 POP SSTORE POP PUSH2 0x842 JUMP JUMPDEST PUSH1 0x2 DUP2 ADD DUP1 SLOAD SWAP1 PUSH1 0x0 PUSH2 0x83C DUP4 PUSH2 0xE0C JUMP JUMPDEST SWAP2 SWAP1 POP SSTORE POP JUMPDEST DUP1 SLOAD DUP3 PUSH2 0x850 PUSH1 0x1 DUP4 PUSH2 0xDE6 JUMP JUMPDEST DUP4 PUSH1 0x3 ADD SLOAD PUSH2 0x85F SWAP2 SWAP1 PUSH2 0xE25 JUMP JUMPDEST PUSH2 0x869 SWAP2 SWAP1 PUSH2 0xE55 JUMP JUMPDEST PUSH2 0x873 SWAP2 SWAP1 PUSH2 0xE93 JUMP JUMPDEST PUSH1 0x3 DUP3 ADD SSTORE PUSH1 0x0 PUSH2 0x883 DUP6 PUSH2 0xA88 JUMP JUMPDEST SWAP1 POP PUSH2 0x88F DUP6 DUP3 PUSH2 0x56E JUMP JUMPDEST POP POP POP POP POP JUMP JUMPDEST PUSH2 0x89E PUSH2 0x8D4 JUMP JUMPDEST PUSH1 0x1 PUSH1 0x1 PUSH1 0xA0 SHL SUB DUP2 AND PUSH2 0x8C8 JUMPI PUSH1 0x40 MLOAD PUSH4 0x1E4FBDF7 PUSH1 0xE0 SHL DUP2 MSTORE PUSH1 0x0 PUSH1 0x4 DUP3 ADD MSTORE PUSH1 0x24 ADD PUSH2 0x349 JUMP JUMPDEST PUSH2 0x8D1 DUP2 PUSH2 0x901 JUMP JUMPDEST POP JUMP JUMPDEST PUSH1 0x0 SLOAD PUSH1 0x1 PUSH1 0x1 PUSH1 0xA0 SHL SUB AND CALLER EQ PUSH2 0x2FB JUMPI PUSH1 0x40 MLOAD PUSH4 0x118CDAA7 PUSH1 0xE0 SHL DUP2 MSTORE CALLER PUSH1 0x4 DUP3 ADD MSTORE PUSH1 0x24 ADD PUSH2 0x349 JUMP JUMPDEST PUSH1 0x0 DUP1 SLOAD PUSH1 0x1 PUSH1 0x1 PUSH1 0xA0 SHL SUB DUP4 DUP2 AND PUSH1 0x1 PUSH1 0x1 PUSH1 0xA0 SHL SUB NOT DUP4 AND DUP2 OR DUP5 SSTORE PUSH1 0x40 MLOAD SWAP2 SWAP1 SWAP3 AND SWAP3 DUP4 SWAP2 PUSH32 0x8BE0079C531659141344CD1FD0A4F28419497F9722A3DAAFE3B4186F6B6457E0 SWAP2 SWAP1 LOG3 POP POP JUMP JUMPDEST PUSH1 0x0 DUP1 PUSH2 0x95F DUP4 PUSH1 0x64 PUSH2 0xDE6 JUMP JUMPDEST PUSH2 0x969 SWAP1 DUP6 PUSH2 0xDF9 JUMP JUMPDEST SWAP1 POP PUSH1 0x28 DUP2 LT ISZERO PUSH2 0x97E JUMPI PUSH1 0x0 SWAP2 POP POP PUSH2 0x9D0 JUMP JUMPDEST PUSH1 0x46 DUP2 LT ISZERO PUSH2 0x991 JUMPI PUSH1 0x1 SWAP2 POP POP PUSH2 0x9D0 JUMP JUMPDEST PUSH1 0x64 DUP2 LT ISZERO PUSH2 0x9A4 JUMPI PUSH1 0x2 SWAP2 POP POP PUSH2 0x9D0 JUMP JUMPDEST PUSH1 0x82 DUP2 LT ISZERO PUSH2 0x9B7 JUMPI PUSH1 0x3 SWAP2 POP POP PUSH2 0x9D0 JUMP JUMPDEST PUSH1 0xA0 DUP2 LT ISZERO PUSH2 0x9CA JUMPI PUSH1 0x4 SWAP2 POP POP PUSH2 0x9D0 JUMP JUMPDEST PUSH1 0x5 SWAP2 POP POP JUMPDEST SWAP3 SWAP2 POP POP JUMP JUMPDEST PUSH1 0x0 DUP1 PUSH2 0x9E4 DUP5 PUSH1 0x32 PUSH2 0xEC1 JUMP JUMPDEST SWAP1 POP PUSH1 0x0 PUSH2 0x9F3 DUP5 PUSH1 0x64 PUSH2 0xDE6 JUMP JUMPDEST PUSH2 0x9FE SWAP1 PUSH1 0x19 PUSH2 0xEC1 JUMP JUMPDEST SWAP1 POP PUSH1 0x0 PUSH2 0xA0C DUP3 DUP5 PUSH2 0xDF9 JUMP JUMPDEST SWAP1 POP PUSH2 0x2710 DUP2 GT PUSH2 0xA1D JUMPI DUP1 PUSH2 0xA21 JUMP JUMPDEST PUSH2 0x2710 JUMPDEST SWAP7 SWAP6 POP POP POP POP POP POP JUMP JUMPDEST PUSH1 0x0 DUP1 PUSH2 0xA39 DUP4 PUSH1 0x64 PUSH2 0xDE6 JUMP JUMPDEST PUSH2 0xA43 SWAP1 DUP6 PUSH2 0xDF9 JUMP JUMPDEST SWAP1 POP PUSH1 0x32 DUP2 LT ISZERO PUSH2 0xA58 JUMPI PUSH1 0x1 SWAP2 POP POP PUSH2 0x9D0 JUMP JUMPDEST PUSH1 0x64 DUP2 LT ISZERO PUSH2 0xA6B JUMPI PUSH1 0x2 SWAP2 POP POP PUSH2 0x9D0 JUMP JUMPDEST PUSH1 0x96 DUP2 LT ISZERO PUSH2 0xA7E JUMPI PUSH1 0x3 SWAP2 POP POP PUSH2 0x9D0 JUMP JUMPDEST POP PUSH1 0x4 SWAP4 SWAP3 POP POP POP JUMP JUMPDEST PUSH1 0x0 DUP2 DUP2 MSTORE PUSH1 0x2 PUSH1 0x20 MSTORE PUSH1 0x40 DUP2 KECCAK256 DUP1 SLOAD PUSH1 0x5 GT ISZERO PUSH2 0xAA9 JUMPI POP PUSH1 0x32 SWAP3 SWAP2 POP POP JUMP JUMPDEST DUP1 SLOAD PUSH1 0x1 DUP3 ADD SLOAD PUSH1 0x0 SWAP2 SWAP1 PUSH2 0xABF SWAP1 PUSH1 0x64 PUSH2 0xEC1 JUMP JUMPDEST PUSH2 0xAC9 SWAP2 SWAP1 PUSH2 0xED8 JUMP JUMPDEST SWAP1 POP PUSH1 0x50 DUP2 GT ISZERO PUSH2 0xADE JUMPI POP PUSH1 0x14 SWAP4 SWAP3 POP POP POP JUMP JUMPDEST PUSH1 0x3C DUP2 GT ISZERO PUSH2 0xAF1 JUMPI POP PUSH1 0x28 SWAP4 SWAP3 POP POP POP JUMP JUMPDEST PUSH1 0x28 DUP2 GT ISZERO PUSH2 0xB04 JUMPI POP PUSH1 0x3C SWAP4 SWAP3 POP POP POP JUMP JUMPDEST PUSH1 0x14 DUP2 GT ISZERO PUSH2 0xB17 JUMPI POP PUSH1 0x50 SWAP4 SWAP3 POP POP POP JUMP JUMPDEST POP PUSH1 0x5F SWAP4 SWAP3 POP POP POP JUMP JUMPDEST PUSH1 0x40 DUP1 MLOAD PUSH2 0x100 DUP2 ADD SWAP1 SWAP2 MSTORE PUSH1 0x0 DUP1 DUP3 MSTORE PUSH1 0x20 DUP3 ADD SWAP1 DUP2 MSTORE PUSH1 0x20 ADD PUSH1 0x0 DUP2 MSTORE PUSH1 0x20 ADD PUSH1 0x0 DUP2 MSTORE PUSH1 0x20 ADD PUSH1 0x0 DUP2 MSTORE PUSH1 0x20 ADD PUSH1 0x0 DUP2 MSTORE PUSH1 0x20 ADD PUSH1 0x0 PUSH1 0x2 DUP2 GT ISZERO PUSH2 0xB6B JUMPI PUSH2 0xB6B PUSH2 0xB91 JUMP JUMPDEST DUP2 MSTORE PUSH1 0x20 ADD PUSH1 0x0 DUP2 MSTORE POP SWAP1 JUMP JUMPDEST PUSH1 0x0 PUSH1 0x20 DUP3 DUP5 SUB SLT ISZERO PUSH2 0xB8A JUMPI PUSH1 0x0 DUP1 REVERT JUMPDEST POP CALLDATALOAD SWAP2 SWAP1 POP JUMP JUMPDEST PUSH4 0x4E487B71 PUSH1 0xE0 SHL PUSH1 0x0 MSTORE PUSH1 0x21 PUSH1 0x4 MSTORE PUSH1 0x24 PUSH1 0x0 REVERT JUMPDEST PUSH1 0x6 DUP2 LT PUSH2 0xBB7 JUMPI PUSH2 0xBB7 PUSH2 0xB91 JUMP JUMPDEST SWAP1 MSTORE JUMP JUMPDEST PUSH1 0x3 DUP2 LT PUSH2 0xBB7 JUMPI PUSH2 0xBB7 PUSH2 0xB91 JUMP JUMPDEST DUP9 DUP2 MSTORE PUSH2 0x100 DUP2 ADD PUSH2 0xBE0 PUSH1 0x20 DUP4 ADD DUP11 PUSH2 0xBA7 JUMP JUMPDEST DUP8 PUSH1 0x40 DUP4 ADD MSTORE DUP7 PUSH1 0x60 DUP4 ADD MSTORE DUP6 PUSH1 0x80 DUP4 ADD MSTORE DUP5 PUSH1 0xA0 DUP4 ADD MSTORE PUSH2 0xC05 PUSH1 0xC0 DUP4 ADD DUP6 PUSH2 0xBBB JUMP JUMPDEST DUP3 PUSH1 0xE0 DUP4 ADD MSTORE SWAP10 SWAP9 POP POP POP POP POP POP POP POP POP JUMP JUMPDEST PUSH1 0x0 PUSH1 0xA0 DUP3 ADD SWAP1 POP DUP7 DUP3 MSTORE DUP6 PUSH1 0x20 DUP4 ADD MSTORE DUP5 PUSH1 0x40 DUP4 ADD MSTORE DUP4 PUSH1 0x60 DUP4 ADD MSTORE PUSH2 0xA21 PUSH1 0x80 DUP4 ADD DUP5 PUSH2 0xBA7 JUMP JUMPDEST PUSH1 0x0 DUP1 PUSH1 0x0 DUP1 PUSH1 0x80 DUP6 DUP8 SUB SLT ISZERO PUSH2 0xC58 JUMPI PUSH1 0x0 DUP1 REVERT JUMPDEST DUP5 CALLDATALOAD SWAP4 POP PUSH1 0x20 DUP6 ADD CALLDATALOAD SWAP3 POP PUSH1 0x40 DUP6 ADD CALLDATALOAD SWAP2 POP PUSH1 0x60 DUP6 ADD CALLDATALOAD PUSH1 0x3 DUP2 LT PUSH2 0xC7C JUMPI PUSH1 0x0 DUP1 REVERT JUMPDEST SWAP4 SWAP7 SWAP3 SWAP6 POP SWAP1 SWAP4 POP POP JUMP JUMPDEST DUP2 MLOAD DUP2 MSTORE PUSH1 0x20 DUP1 DUP4 ADD MLOAD PUSH2 0x100 DUP4 ADD SWAP2 PUSH2 0xCA3 SWAP1 DUP5 ADD DUP3 PUSH2 0xBA7 JUMP JUMPDEST POP PUSH1 0x40 DUP4 ADD MLOAD PUSH1 0x40 DUP4 ADD MSTORE PUSH1 0x60 DUP4 ADD MLOAD PUSH1 0x60 DUP4 ADD MSTORE PUSH1 0x80 DUP4 ADD MLOAD PUSH1 0x80 DUP4 ADD MSTORE PUSH1 0xA0 DUP4 ADD MLOAD PUSH1 0xA0 DUP4 ADD MSTORE PUSH1 0xC0 DUP4 ADD MLOAD PUSH2 0xCDE PUSH1 0xC0 DUP5 ADD DUP3 PUSH2 0xBBB JUMP JUMPDEST POP PUSH1 0xE0 SWAP3 DUP4 ADD MLOAD SWAP2 SWAP1 SWAP3 ADD MSTORE SWAP1 JUMP JUMPDEST PUSH1 0x0 DUP1 PUSH1 0x40 DUP4 DUP6 SUB SLT ISZERO PUSH2 0xD00 JUMPI PUSH1 0x0 DUP1 REVERT JUMPDEST POP POP DUP1 CALLDATALOAD SWAP3 PUSH1 0x20 SWAP1 SWAP2 ADD CALLDATALOAD SWAP2 POP JUMP JUMPDEST PUSH1 0x0 DUP1 PUSH1 0x0 DUP1 PUSH1 0x80 DUP6 DUP8 SUB SLT ISZERO PUSH2 0xD25 JUMPI PUSH1 0x0 DUP1 REVERT JUMPDEST POP POP DUP3 CALLDATALOAD SWAP5 PUSH1 0x20 DUP5 ADD CALLDATALOAD SWAP5 POP PUSH1 0x40 DUP5 ADD CALLDATALOAD SWAP4 PUSH1 0x60 ADD CALLDATALOAD SWAP3 POP SWAP1 POP JUMP JUMPDEST PUSH1 0x0 DUP1 PUSH1 0x0 PUSH1 0x60 DUP5 DUP7 SUB SLT ISZERO PUSH2 0xD56 JUMPI PUSH1 0x0 DUP1 REVERT JUMPDEST DUP4 CALLDATALOAD SWAP3 POP PUSH1 0x20 DUP5 ADD CALLDATALOAD DUP1 ISZERO ISZERO DUP2 EQ PUSH2 0xD6D JUMPI PUSH1 0x0 DUP1 REVERT JUMPDEST SWAP3 SWAP6 SWAP3 SWAP5 POP POP POP PUSH1 0x40 SWAP2 SWAP1 SWAP2 ADD CALLDATALOAD SWAP1 JUMP JUMPDEST PUSH1 0x0 PUSH1 0x20 DUP3 DUP5 SUB SLT ISZERO PUSH2 0xD90 JUMPI PUSH1 0x0 DUP1 REVERT JUMPDEST DUP2 CALLDATALOAD PUSH1 0x1 PUSH1 0x1 PUSH1 0xA0 SHL SUB DUP2 AND DUP2 EQ PUSH2 0x7DF JUMPI PUSH1 0x0 DUP1 REVERT JUMPDEST PUSH1 0x20 DUP2 ADD PUSH2 0x9D0 DUP3 DUP5 PUSH2 0xBA7 JUMP JUMPDEST PUSH1 0x40 DUP2 ADD PUSH2 0xDC3 DUP3 DUP6 PUSH2 0xBA7 JUMP JUMPDEST PUSH2 0x7DF PUSH1 0x20 DUP4 ADD DUP5 PUSH2 0xBA7 JUMP JUMPDEST PUSH4 0x4E487B71 PUSH1 0xE0 SHL PUSH1 0x0 MSTORE PUSH1 0x11 PUSH1 0x4 MSTORE PUSH1 0x24 PUSH1 0x0 REVERT JUMPDEST DUP2 DUP2 SUB DUP2 DUP2 GT ISZERO PUSH2 0x9D0 JUMPI PUSH2 0x9D0 PUSH2 0xDD0 JUMP JUMPDEST DUP1 DUP3 ADD DUP1 DUP3 GT ISZERO PUSH2 0x9D0 JUMPI PUSH2 0x9D0 PUSH2 0xDD0 JUMP JUMPDEST PUSH1 0x0 PUSH1 0x1 DUP3 ADD PUSH2 0xE1E JUMPI PUSH2 0xE1E PUSH2 0xDD0 JUMP JUMPDEST POP PUSH1 0x1 ADD SWAP1 JUMP JUMPDEST DUP1 DUP3 MUL PUSH1 0x0 DUP3 SLT PUSH1 0x1 PUSH1 0xFF SHL DUP5 EQ AND ISZERO PUSH2 0xE41 JUMPI PUSH2 0xE41 PUSH2 0xDD0 JUMP JUMPDEST DUP2 DUP2 SDIV DUP4 EQ DUP3 ISZERO OR PUSH2 0x9D0 JUMPI PUSH2 0x9D0 PUSH2 0xDD0 JUMP JUMPDEST DUP1 DUP3 ADD DUP3 DUP2 SLT PUSH1 0x0 DUP4 SLT DUP1 ISZERO DUP3 AND DUP3 ISZERO DUP3 AND OR ISZERO PUSH2 0xE75 JUMPI PUSH2 0xE75 PUSH2 0xDD0 JUMP JUMPDEST POP POP SWAP3 SWAP2 POP POP JUMP JUMPDEST PUSH4 0x4E487B71 PUSH1 0xE0 SHL PUSH1 0x0 MSTORE PUSH1 0x12 PUSH1 0x4 MSTORE PUSH1 0x24 PUSH1 0x0 REVERT JUMPDEST PUSH1 0x0 DUP3 PUSH2 0xEA2 JUMPI PUSH2 0xEA2 PUSH2 0xE7D JUMP JUMPDEST PUSH1 0x1 PUSH1 0xFF SHL DUP3 EQ PUSH1 0x0 NOT DUP5 EQ AND ISZERO PUSH2 0xEBC JUMPI PUSH2 0xEBC PUSH2 0xDD0 JUMP JUMPDEST POP SDIV SWAP1 JUMP JUMPDEST DUP1 DUP3 MUL DUP2 ISZERO DUP3 DUP3 DIV DUP5 EQ OR PUSH2 0x9D0 JUMPI PUSH2 0x9D0 PUSH2 0xDD0 JUMP JUMPDEST PUSH1 0x0 DUP3 PUSH2 0xEE7 JUMPI PUSH2 0xEE7 PUSH2 0xE7D JUMP JUMPDEST POP DIV SWAP1 JUMP INVALID LOG2 PUSH5 0x6970667358 0x22 SLT KECCAK256 0x29 EQ 0xD0 SLOAD PUSH16 0x1D634958CE4278FBDBEC0D30AF582522 ADDRESS SMOD SLT DUP7 PREVRANDAO SLOAD DUP7 0xD SWAP16 0x1F SWAP13 PUSH5 0x736F6C6343 STOP ADDMOD EQ STOP CALLER "},"methodIdentifiers":{"createRiskProfile(uint256,uint256,uint256,uint8)":"96442620","createWorldRiskProfile(uint256,uint256,uint256,uint256)":"a698b1e7","entityRiskProfiles(uint256)":"3694444a","getRiskProfile(uint256)":"9ec39e2f","getRiskScore(uint256)":"c6b97b5a","owner()":"8da5cb5b","performanceData(uint256)":"54cadc80","recordPerformance(uint256,bool,int256)":"ea2d7aa2","renounceOwnership()":"715018a6","riskHistory(uint256,uint256)":"afda5874","transferOwnership(address)":"f2fde38b","updateRiskProfile(uint256,uint256)":"a2450669","worldRiskProfiles(uint256)":"57de33c2"}}}}}