{
  "_format": "hh-sol-artifact-1",
  "contractName": "BondingCurves",
  "sourceName": "contracts/layer6/pricing/BondingCurves.sol",
  "abi": [
    {
      "inputs": [
        {
          "internalType": "address",
          "name": "_treasury",
          "type": "address"
        }
      ],
      "stateMutability": "nonpayable",
      "type": "constructor"
    },
    {
      "inputs": [],
      "name": "AccessControlBadConfirmation",
      "type": "error"
    },
    {
      "inputs": [
        {
          "internalType": "address",
          "name": "account",
          "type": "address"
        },
        {
          "internalType": "bytes32",
          "name": "neededRole",
          "type": "bytes32"
        }
      ],
      "name": "AccessControlUnauthorizedAccount",
      "type": "error"
    },
    {
      "inputs": [],
      "name": "ReentrancyGuardReentrantCall",
      "type": "error"
    },
    {
      "anonymous": false,
      "inputs": [
        {
          "indexed": true,
          "internalType": "uint256",
          "name": "curveId",
          "type": "uint256"
        },
        {
          "indexed": false,
          "internalType": "string",
          "name": "name",
          "type": "string"
        },
        {
          "indexed": false,
          "internalType": "enum BondingCurves.CurveType",
          "name": "curveType",
          "type": "uint8"
        },
        {
          "indexed": false,
          "internalType": "uint256",
          "name": "maxSupply",
          "type": "uint256"
        }
      ],
      "name": "CurveCreated",
      "type": "event"
    },
    {
      "anonymous": false,
      "inputs": [
        {
          "indexed": true,
          "internalType": "bytes32",
          "name": "role",
          "type": "bytes32"
        },
        {
          "indexed": true,
          "internalType": "bytes32",
          "name": "previousAdminRole",
          "type": "bytes32"
        },
        {
          "indexed": true,
          "internalType": "bytes32",
          "name": "newAdminRole",
          "type": "bytes32"
        }
      ],
      "name": "RoleAdminChanged",
      "type": "event"
    },
    {
      "anonymous": false,
      "inputs": [
        {
          "indexed": true,
          "internalType": "bytes32",
          "name": "role",
          "type": "bytes32"
        },
        {
          "indexed": true,
          "internalType": "address",
          "name": "account",
          "type": "address"
        },
        {
          "indexed": true,
          "internalType": "address",
          "name": "sender",
          "type": "address"
        }
      ],
      "name": "RoleGranted",
      "type": "event"
    },
    {
      "anonymous": false,
      "inputs": [
        {
          "indexed": true,
          "internalType": "bytes32",
          "name": "role",
          "type": "bytes32"
        },
        {
          "indexed": true,
          "internalType": "address",
          "name": "account",
          "type": "address"
        },
        {
          "indexed": true,
          "internalType": "address",
          "name": "sender",
          "type": "address"
        }
      ],
      "name": "RoleRevoked",
      "type": "event"
    },
    {
      "anonymous": false,
      "inputs": [
        {
          "indexed": true,
          "internalType": "uint256",
          "name": "curveId",
          "type": "uint256"
        },
        {
          "indexed": true,
          "internalType": "address",
          "name": "buyer",
          "type": "address"
        },
        {
          "indexed": false,
          "internalType": "uint256",
          "name": "amount",
          "type": "uint256"
        },
        {
          "indexed": false,
          "internalType": "uint256",
          "name": "cost",
          "type": "uint256"
        }
      ],
      "name": "TokensBought",
      "type": "event"
    },
    {
      "anonymous": false,
      "inputs": [
        {
          "indexed": true,
          "internalType": "uint256",
          "name": "curveId",
          "type": "uint256"
        },
        {
          "indexed": true,
          "internalType": "address",
          "name": "seller",
          "type": "address"
        },
        {
          "indexed": false,
          "internalType": "uint256",
          "name": "amount",
          "type": "uint256"
        },
        {
          "indexed": false,
          "internalType": "uint256",
          "name": "proceeds",
          "type": "uint256"
        }
      ],
      "name": "TokensSold",
      "type": "event"
    },
    {
      "inputs": [],
      "name": "CURVE_MANAGER",
      "outputs": [
        {
          "internalType": "bytes32",
          "name": "",
          "type": "bytes32"
        }
      ],
      "stateMutability": "view",
      "type": "function"
    },
    {
      "inputs": [],
      "name": "DEFAULT_ADMIN_ROLE",
      "outputs": [
        {
          "internalType": "bytes32",
          "name": "",
          "type": "bytes32"
        }
      ],
      "stateMutability": "view",
      "type": "function"
    },
    {
      "inputs": [
        {
          "internalType": "uint256",
          "name": "curveId",
          "type": "uint256"
        },
        {
          "internalType": "uint256",
          "name": "amount",
          "type": "uint256"
        }
      ],
      "name": "buy",
      "outputs": [],
      "stateMutability": "payable",
      "type": "function"
    },
    {
      "inputs": [
        {
          "internalType": "uint256",
          "name": "curveId",
          "type": "uint256"
        },
        {
          "internalType": "uint256",
          "name": "amount",
          "type": "uint256"
        }
      ],
      "name": "calculateBuyCost",
      "outputs": [
        {
          "internalType": "uint256",
          "name": "",
          "type": "uint256"
        }
      ],
      "stateMutability": "view",
      "type": "function"
    },
    {
      "inputs": [
        {
          "internalType": "uint256",
          "name": "curveId",
          "type": "uint256"
        },
        {
          "internalType": "uint256",
          "name": "amount",
          "type": "uint256"
        }
      ],
      "name": "calculateSellProceeds",
      "outputs": [
        {
          "internalType": "uint256",
          "name": "",
          "type": "uint256"
        }
      ],
      "stateMutability": "view",
      "type": "function"
    },
    {
      "inputs": [
        {
          "internalType": "string",
          "name": "name",
          "type": "string"
        },
        {
          "internalType": "enum BondingCurves.CurveType",
          "name": "curveType",
          "type": "uint8"
        },
        {
          "internalType": "uint256",
          "name": "basePrice",
          "type": "uint256"
        },
        {
          "internalType": "uint256",
          "name": "slope",
          "type": "uint256"
        },
        {
          "internalType": "uint256",
          "name": "maxSupply",
          "type": "uint256"
        }
      ],
      "name": "createCurve",
      "outputs": [
        {
          "internalType": "uint256",
          "name": "",
          "type": "uint256"
        }
      ],
      "stateMutability": "nonpayable",
      "type": "function"
    },
    {
      "inputs": [
        {
          "internalType": "address",
          "name": "",
          "type": "address"
        },
        {
          "internalType": "uint256",
          "name": "",
          "type": "uint256"
        }
      ],
      "name": "creatorCurves",
      "outputs": [
        {
          "internalType": "uint256",
          "name": "",
          "type": "uint256"
        }
      ],
      "stateMutability": "view",
      "type": "function"
    },
    {
      "inputs": [
        {
          "internalType": "uint256",
          "name": "",
          "type": "uint256"
        }
      ],
      "name": "curves",
      "outputs": [
        {
          "internalType": "uint256",
          "name": "curveId",
          "type": "uint256"
        },
        {
          "internalType": "string",
          "name": "name",
          "type": "string"
        },
        {
          "internalType": "enum BondingCurves.CurveType",
          "name": "curveType",
          "type": "uint8"
        },
        {
          "internalType": "address",
          "name": "creator",
          "type": "address"
        },
        {
          "internalType": "uint256",
          "name": "basePrice",
          "type": "uint256"
        },
        {
          "internalType": "uint256",
          "name": "slope",
          "type": "uint256"
        },
        {
          "internalType": "uint256",
          "name": "currentSupply",
          "type": "uint256"
        },
        {
          "internalType": "uint256",
          "name": "maxSupply",
          "type": "uint256"
        },
        {
          "internalType": "uint256",
          "name": "reserve",
          "type": "uint256"
        },
        {
          "internalType": "uint256",
          "name": "totalBought",
          "type": "uint256"
        },
        {
          "internalType": "uint256",
          "name": "totalSold",
          "type": "uint256"
        },
        {
          "internalType": "bool",
          "name": "isActive",
          "type": "bool"
        },
        {
          "internalType": "uint256",
          "name": "createdAt",
          "type": "uint256"
        }
      ],
      "stateMutability": "view",
      "type": "function"
    },
    {
      "inputs": [
        {
          "internalType": "address",
          "name": "creator",
          "type": "address"
        }
      ],
      "name": "getCreatorCurves",
      "outputs": [
        {
          "internalType": "uint256[]",
          "name": "",
          "type": "uint256[]"
        }
      ],
      "stateMutability": "view",
      "type": "function"
    },
    {
      "inputs": [
        {
          "internalType": "uint256",
          "name": "curveId",
          "type": "uint256"
        }
      ],
      "name": "getCurrentPrice",
      "outputs": [
        {
          "internalType": "uint256",
          "name": "",
          "type": "uint256"
        }
      ],
      "stateMutability": "view",
      "type": "function"
    },
    {
      "inputs": [
        {
          "internalType": "uint256",
          "name": "curveId",
          "type": "uint256"
        },
        {
          "internalType": "address",
          "name": "user",
          "type": "address"
        }
      ],
      "name": "getHoldings",
      "outputs": [
        {
          "internalType": "uint256",
          "name": "",
          "type": "uint256"
        }
      ],
      "stateMutability": "view",
      "type": "function"
    },
    {
      "inputs": [
        {
          "internalType": "bytes32",
          "name": "role",
          "type": "bytes32"
        }
      ],
      "name": "getRoleAdmin",
      "outputs": [
        {
          "internalType": "bytes32",
          "name": "",
          "type": "bytes32"
        }
      ],
      "stateMutability": "view",
      "type": "function"
    },
    {
      "inputs": [
        {
          "internalType": "bytes32",
          "name": "role",
          "type": "bytes32"
        },
        {
          "internalType": "address",
          "name": "account",
          "type": "address"
        }
      ],
      "name": "grantRole",
      "outputs": [],
      "stateMutability": "nonpayable",
      "type": "function"
    },
    {
      "inputs": [
        {
          "internalType": "bytes32",
          "name": "role",
          "type": "bytes32"
        },
        {
          "internalType": "address",
          "name": "account",
          "type": "address"
        }
      ],
      "name": "hasRole",
      "outputs": [
        {
          "internalType": "bool",
          "name": "",
          "type": "bool"
        }
      ],
      "stateMutability": "view",
      "type": "function"
    },
    {
      "inputs": [
        {
          "internalType": "uint256",
          "name": "",
          "type": "uint256"
        },
        {
          "internalType": "address",
          "name": "",
          "type": "address"
        }
      ],
      "name": "holdings",
      "outputs": [
        {
          "internalType": "uint256",
          "name": "",
          "type": "uint256"
        }
      ],
      "stateMutability": "view",
      "type": "function"
    },
    {
      "inputs": [],
      "name": "platformFeeBps",
      "outputs": [
        {
          "internalType": "uint256",
          "name": "",
          "type": "uint256"
        }
      ],
      "stateMutability": "view",
      "type": "function"
    },
    {
      "inputs": [
        {
          "internalType": "bytes32",
          "name": "role",
          "type": "bytes32"
        },
        {
          "internalType": "address",
          "name": "callerConfirmation",
          "type": "address"
        }
      ],
      "name": "renounceRole",
      "outputs": [],
      "stateMutability": "nonpayable",
      "type": "function"
    },
    {
      "inputs": [
        {
          "internalType": "bytes32",
          "name": "role",
          "type": "bytes32"
        },
        {
          "internalType": "address",
          "name": "account",
          "type": "address"
        }
      ],
      "name": "revokeRole",
      "outputs": [],
      "stateMutability": "nonpayable",
      "type": "function"
    },
    {
      "inputs": [
        {
          "internalType": "uint256",
          "name": "curveId",
          "type": "uint256"
        },
        {
          "internalType": "uint256",
          "name": "amount",
          "type": "uint256"
        }
      ],
      "name": "sell",
      "outputs": [],
      "stateMutability": "nonpayable",
      "type": "function"
    },
    {
      "inputs": [
        {
          "internalType": "uint256",
          "name": "bps",
          "type": "uint256"
        }
      ],
      "name": "setPlatformFee",
      "outputs": [],
      "stateMutability": "nonpayable",
      "type": "function"
    },
    {
      "inputs": [
        {
          "internalType": "bytes4",
          "name": "i",
          "type": "bytes4"
        }
      ],
      "name": "supportsInterface",
      "outputs": [
        {
          "internalType": "bool",
          "name": "",
          "type": "bool"
        }
      ],
      "stateMutability": "view",
      "type": "function"
    },
    {
      "inputs": [],
      "name": "treasury",
      "outputs": [
        {
          "internalType": "address",
          "name": "",
          "type": "address"
        }
      ],
      "stateMutability": "view",
      "type": "function"
    }
  ],
  "bytecode": "0x6080346200009b57601f62001d8d38819003918201601f19168301916001600160401b03831184841017620000a0578084926020946040528339810103126200009b57516001600160a01b038116908190036200009b57600180556064600755600680546001600160a01b0319169190911790556200007e33620000b6565b506200008a3362000136565b50604051611b949081620001d98239f35b600080fd5b634e487b7160e01b600052604160045260246000fd5b6001600160a01b031660008181527fad3228b676f7d3cd4284a5443f17f1962b36e491b30a40b2405849e597ba5fb5602052604081205490919060ff166200013257818052816020526040822081835260205260408220600160ff19825416179055339160008051602062001d6d8339815191528180a4600190565b5090565b6001600160a01b031660008181527f9980054943ec7beba9e71f8b2bbf444dcda04c2c3f5bc966beac098e7a83af9660205260408120549091907fd9d8ea6f982ffb4bb5255564f49b0f2b8bcf0cb903906b958fbaeded79c977119060ff16620001d357808352826020526040832082845260205260408320600160ff1982541617905560008051602062001d6d833981519152339380a4600190565b50509056fe608080604052600436101561001357600080fd5b60003560e01c90816301ffc9a7146110ac575080631187c28414610feb57806312e8e2c314610f5a57806313a7b52414610ef75780631bf7d74914610e0757806322dcd13e14610de9578063248a9ca314610dba578063271a7be414610da15780632f2ff15d14610d6257806336568abe14610cf657806355e6edbc14610cbb57806361d027b314610c875780638ab11dca146101115780638dad77471461072857806391d14854146106cd578063a217fddf146106b1578063c55d0f5614610693578063d1fb977714610672578063d547741f14610631578063d6febde814610399578063d79875eb1461016c5763fa62b61f1461011157600080fd5b346101675760406003193601126101675761012a61116d565b600435600052600460205273ffffffffffffffffffffffffffffffffffffffff604060002091166000526020526020604060002054604051908152f35b600080fd5b346101675761017a366113b8565b9061018361168f565b806000526020600381526040600020600482526040600020336000528252836040600020541061033b576101b88415156115f9565b6101c28484611afd565b906007810180548381106102dd57906101ef8484936005600996016101e88b8254611682565b9055611682565b9055016101fd8582546115ec565b9055826000526004825260406000203360005282526040600020610222858254611682565b90556127106102336007548361166f565b0460008080808473ffffffffffffffffffffffffffffffffffffffff600654168282156102d4575bf1156102bf5760008080806102708587611682565b8181156102cb575b3390f1156102bf5761028991611682565b906040519384528301527fb3b5018d26b7b3764106321edeb54ab6d90aee3598f78eae1da7a2ce084e9aa960403393a360018055005b6040513d6000823e3d90fd5b506108fc610278565b506108fc61025b565b606485604051907f08c379a00000000000000000000000000000000000000000000000000000000082526004820152601460248201527f496e73756666696369656e7420726573657276650000000000000000000000006044820152fd5b606482604051907f08c379a00000000000000000000000000000000000000000000000000000000082526004820152601560248201527f496e73756666696369656e7420686f6c64696e677300000000000000000000006044820152fd5b6103a2366113b8565b906103ab61168f565b8060005260206003815260406000209060ff600a83015416156105d35760058201918254926103da86856115ec565b600683015410610575576103ef8615156115f9565b6103f98686611904565b93843410610517578661040b916115ec565b90556008600782019161041f8584546115ec565b83550161042d8682546115ec565b90558360005260048252604060002033600052825260406000206104528682546115ec565b90556127106104636007548561166f565b0460008080808473ffffffffffffffffffffffffffffffffffffffff6006541682821561050e575bf1156102bf5761049c908254611682565b90558134116104db575b6040519384528301527f28b5cc865e0c80dcc60884c13514fe4a294f9a622431fd1059b6078af9dbce0760403393a360018055005b60008080806104ea8634611682565b818115610505575b3390f16104a6576040513d6000823e3d90fd5b506108fc6104f2565b506108fc61048b565b606484604051907f08c379a00000000000000000000000000000000000000000000000000000000082526004820152601460248201527f496e73756666696369656e74207061796d656e740000000000000000000000006044820152fd5b606483604051907f08c379a00000000000000000000000000000000000000000000000000000000082526004820152601260248201527f45786365656473206d617820737570706c7900000000000000000000000000006044820152fd5b606490604051907f08c379a00000000000000000000000000000000000000000000000000000000082526004820152600e60248201527f437572766520696e6163746976650000000000000000000000000000000000006044820152fd5b346101675760406003193601126101675761067060043561065061116d565b9080600052600060205261066b6001604060002001546113ce565b6114d5565b005b3461016757602061068b610685366113b8565b90611afd565b604051908152f35b3461016757602060031936011261016757602061068b6004356116ca565b3461016757600060031936011261016757602060405160008152f35b34610167576040600319360112610167576106e661116d565b600435600052600060205273ffffffffffffffffffffffffffffffffffffffff60406000209116600052602052602060ff604060002054166040519015158152f35b346101675760a06003193601126101675760043567ffffffffffffffff8111610167573660238201121561016757806004013567ffffffffffffffff8111610a9657604051916107a060207fffffffffffffffffffffffffffffffffffffffffffffffffffffffffffffffe0601f8501160184611247565b8183523660248383010111610167578160009260246020930183860137830101526004602435101561016757604435151580610c7c575b15610c1e576107e7600254611576565b806002556040516107f78161122a565b81815282602082015261080f602435604083016115d2565b336060820152604435608082015260643560a0820152600060c082015260843560e082015260006101008201526000610120820152600061014082015260016101608201524261018082015281600052600360205260406000209080518255602081015180519067ffffffffffffffff8211610a9657819061089460018601546111d7565b601f8111610bcb575b50602090601f8311600114610aff57600092610af4575b50507fffffffffffffffffffffffffffffffffffffffffffffffffffffffffffffffff8260011b9260031b1c19161760018301555b604081015160028301916004821015610ac5578261018092600b94547fffffffffffffffffffffff00000000000000000000000000000000000000000060ff74ffffffffffffffffffffffffffffffffffffffff00606087015160081b1693169116171790556080810151600385015560a0810151600485015560c0810151600585015560e08101516006850155610100810151600785015561012081015160088501556101408101516009850155600a8401610160820151151560ff7fffffffffffffffffffffffffffffffffffffffffffffffffffffffffffffff008354169116179055015191015533600052600560205260406000209182549268010000000000000000841015610a9657610a758392610a2f867fa691121478b253c593e730e09b1998af65d9370d40fdcb2d32aef0fc112c4397946001602099018155611190565b81549060031b907fffffffffffffffffffffffffffffffffffffffffffffffffffffffffffffffff87831b921b191617905560405191829160608352606083019061134d565b610a838783016024356113ab565b60843560408301520390a2604051908152f35b7f4e487b7100000000000000000000000000000000000000000000000000000000600052604160045260246000fd5b7f4e487b7100000000000000000000000000000000000000000000000000000000600052602160045260246000fd5b0151905086806108b4565b9250600185016000526020600020906000935b7fffffffffffffffffffffffffffffffffffffffffffffffffffffffffffffffe084168510610bb05760019450837fffffffffffffffffffffffffffffffffffffffffffffffffffffffffffffffe0811610610b79575b505050811b0160018301556108e9565b01517fffffffffffffffffffffffffffffffffffffffffffffffffffffffffffffffff60f88460031b161c19169055868080610b69565b81810151835560209485019460019093019290910190610b12565b909150600185016000526020600020601f840160051c810160208510610c17575b90849392915b601f830160051c82018110610c0857505061089d565b60008155859450600101610bf2565b5080610bec565b60646040517f08c379a000000000000000000000000000000000000000000000000000000000815260206004820152600e60248201527f496e76616c696420706172616d730000000000000000000000000000000000006044820152fd5b5060843515156107d7565b3461016757600060031936011261016757602073ffffffffffffffffffffffffffffffffffffffff60065416604051908152f35b346101675760006003193601126101675760206040517fd9d8ea6f982ffb4bb5255564f49b0f2b8bcf0cb903906b958fbaeded79c977118152f35b3461016757604060031936011261016757610d0f61116d565b3373ffffffffffffffffffffffffffffffffffffffff821603610d3857610670906004356114d5565b60046040517f6697b232000000000000000000000000000000000000000000000000000000008152fd5b3461016757604060031936011261016757610670600435610d8161116d565b90806000526000602052610d9c6001604060002001546113ce565b61142b565b3461016757602061068b610db4366113b8565b90611904565b346101675760206003193601126101675760043560005260006020526020600160406000200154604051908152f35b34610167576000600319360112610167576020600754604051908152f35b346101675760206003193601126101675760043560005260036020526040600020805460018201610e3790611288565b91600281015490600381015490600481015460058201546006830154600784015490600885015492600986015494600a87015460ff1696600b0154976040519b8c9b8c528b6101a06020819201528c01610e909161134d565b99610ea160408d0160ff83166113ab565b60081c73ffffffffffffffffffffffffffffffffffffffff1660608c015260808b015260a08a015260c089015260e088015261010087015261012086015261014085015215156101608401526101808301520390f35b3461016757604060031936011261016757610f1061114a565b73ffffffffffffffffffffffffffffffffffffffff602435911660005260056020526040600020805482101561016757602091610f4c91611190565b90546040519160031b1c8152f35b34610167576020600319360112610167573360009081527fad3228b676f7d3cd4284a5443f17f1962b36e491b30a40b2405849e597ba5fb560205260409020546004359060ff1615610fb4576101f4811161016757600755005b60446040517fe2517d3f00000000000000000000000000000000000000000000000000000000815233600482015260006024820152fd5b34610167576020806003193601126101675773ffffffffffffffffffffffffffffffffffffffff61101a61114a565b1660005260058152604060002060405190818382549182815201908192600052846000209060005b8682821061109857868661105882880383611247565b604051928392818401908285525180915260408401929160005b82811061108157505050500390f35b835185528695509381019392810192600101611072565b835485529093019260019283019201611042565b3461016757602060031936011261016757600435907fffffffff00000000000000000000000000000000000000000000000000000000821680920361016757817f7965db0b0000000000000000000000000000000000000000000000000000000060209314908115611120575b5015158152f35b7f01ffc9a70000000000000000000000000000000000000000000000000000000091501483611119565b6004359073ffffffffffffffffffffffffffffffffffffffff8216820361016757565b6024359073ffffffffffffffffffffffffffffffffffffffff8216820361016757565b80548210156111a85760005260206000200190600090565b7f4e487b7100000000000000000000000000000000000000000000000000000000600052603260045260246000fd5b90600182811c92168015611220575b60208310146111f157565b7f4e487b7100000000000000000000000000000000000000000000000000000000600052602260045260246000fd5b91607f16916111e6565b6101a0810190811067ffffffffffffffff821117610a9657604052565b90601f7fffffffffffffffffffffffffffffffffffffffffffffffffffffffffffffffe0910116810190811067ffffffffffffffff821117610a9657604052565b906040519182600082549261129c846111d7565b90818452600194858116908160001461130b57506001146112c8575b50506112c692500383611247565b565b9093915060005260209081600020936000915b8183106112f35750506112c6935082010138806112b8565b855488840185015294850194879450918301916112db565b90506112c69550602093507fffffffffffffffffffffffffffffffffffffffffffffffffffffffffffffff0091501682840152151560051b82010138806112b8565b919082519283825260005b8481106113975750507fffffffffffffffffffffffffffffffffffffffffffffffffffffffffffffffe0601f8460006020809697860101520116010190565b602081830181015184830182015201611358565b906004821015610ac55752565b6003196040910112610167576004359060243590565b80600052600060205260406000203360005260205260ff60406000205416156113f45750565b604490604051907fe2517d3f0000000000000000000000000000000000000000000000000000000082523360048301526024820152fd5b906000918083528260205273ffffffffffffffffffffffffffffffffffffffff6040842092169182845260205260ff604084205416156000146114d05780835282602052604083208284526020526040832060017fffffffffffffffffffffffffffffffffffffffffffffffffffffffffffffff008254161790557f2f8788117e7eff1d82e926ec794901d17c78024a50270940304540a733656f0d339380a4600190565b505090565b906000918083528260205273ffffffffffffffffffffffffffffffffffffffff6040842092169182845260205260ff6040842054166000146114d0578083528260205260408320828452602052604083207fffffffffffffffffffffffffffffffffffffffffffffffffffffffffffffff0081541690557ff6391f5c32d9c69d2a47ea670b442974b53935d1edc7fd64eb21e047a839171b339380a4600190565b7fffffffffffffffffffffffffffffffffffffffffffffffffffffffffffffffff81146115a35760010190565b7f4e487b7100000000000000000000000000000000000000000000000000000000600052601160045260246000fd5b6004821015610ac55752565b90600182018092116115a357565b919082018092116115a357565b1561160057565b60646040517f08c379a000000000000000000000000000000000000000000000000000000000815260206004820152601260248201527f416d6f756e74206d757374206265203e203000000000000000000000000000006044820152fd5b90811560018380041417156115a357565b818102929181159184041417156115a357565b919082039182116115a357565b6002600154146116a0576002600155565b60046040517f3ee5aeb5000000000000000000000000000000000000000000000000000000008152fd5b60009081526003602052604081206040516116e48161122a565b815481526001926116f6848401611288565b602083015260028301549073ffffffffffffffffffffffffffffffffffffffff604084019261172860ff8216856115d2565b60081c1660608401526003840154916080840192835260048501549360a08101948552610180600b60058801549760c08401988952600681015460e085015260078101546101008501526008810154610120850152600981015461014085015260ff600a8201541615156101608501520154910152805160048110156118d757156118a55751600481101561187857851461181857509161180861180e9261181394519051925192611801670de0b6b3a7640000916117fb6117f5846117ee898561166f565b04866115ec565b966115de565b9061166f565b04906115ec565b906115ec565b61165e565b901c90565b939190519051925184935b83851061183257505050505090565b909192939461186961186f9161180868056bc75e2d63100000611862611858878a61166f565b6117fb8c8a6115ec565b04876115ec565b95611576565b93929190611823565b6024827f4e487b710000000000000000000000000000000000000000000000000000000081526021600452fd5b50509161180861180e9261181394519051925192611801670de0b6b3a7640000916117fb6117f5846117ee898561166f565b6024837f4e487b710000000000000000000000000000000000000000000000000000000081526021600452fd5b906000918252600360205260408220604051906119208261122a565b8054825261193060018201611288565b6020830152600281015473ffffffffffffffffffffffffffffffffffffffff604084019161196160ff8216846115d2565b60081c1660608401526003820154906080840191825260048301549360a08101948552610180600b60058601549560c08401968752600681015460e085015260078101546101008501526008810154610120850152600981015461014085015260ff600a820154161515610160850152015491015280516004811015611ad05715611abf57516004811015611a9257600114611a0a57611a079450519151905191611b21565b90565b51915190519091906032841015611a89578391905b85935b838510611a4a57505050505060328111611a3a575090565b611a469060329261166f565b0490565b9091929395611a7a611a809161180868056bc75e2d63100000611862611a70878a61166f565b6117fb8d8a6115ec565b96611576565b93929190611a22565b60329190611a1f565b6024867f4e487b710000000000000000000000000000000000000000000000000000000081526021600452fd5b50611a079450519151905191611b21565b6024877f4e487b710000000000000000000000000000000000000000000000000000000081526021600452fd5b90611b0791611904565b605f810290808204605f14901517156115a3576064900490565b91611808611b589493611b5393611801670de0b6b3a7640000916117fb88611b4d856118628a8661166f565b976115ec565b61166f565b60011c9056fea26469706673582212209b7cdde9b4a86b66581234934e2a19895d33ce06c4724e93ed8b37b31467d29264736f6c634300081400332f8788117e7eff1d82e926ec794901d17c78024a50270940304540a733656f0d",
  "linkReferences": {},
  "deployedLinkReferences": {}
}