{
  "_format": "hh-sol-artifact-1",
  "contractName": "CommissionSystem",
  "sourceName": "contracts/layer6/creators/CommissionSystem.sol",
  "abi": [
    {
      "inputs": [
        {
          "internalType": "address",
          "name": "_treasury",
          "type": "address"
        }
      ],
      "stateMutability": "nonpayable",
      "type": "constructor"
    },
    {
      "inputs": [],
      "name": "AccessControlBadConfirmation",
      "type": "error"
    },
    {
      "inputs": [
        {
          "internalType": "address",
          "name": "account",
          "type": "address"
        },
        {
          "internalType": "bytes32",
          "name": "neededRole",
          "type": "bytes32"
        }
      ],
      "name": "AccessControlUnauthorizedAccount",
      "type": "error"
    },
    {
      "inputs": [],
      "name": "ReentrancyGuardReentrantCall",
      "type": "error"
    },
    {
      "anonymous": false,
      "inputs": [
        {
          "indexed": true,
          "internalType": "uint256",
          "name": "commissionId",
          "type": "uint256"
        },
        {
          "indexed": true,
          "internalType": "address",
          "name": "creator",
          "type": "address"
        }
      ],
      "name": "CommissionAccepted",
      "type": "event"
    },
    {
      "anonymous": false,
      "inputs": [
        {
          "indexed": true,
          "internalType": "uint256",
          "name": "commissionId",
          "type": "uint256"
        },
        {
          "indexed": true,
          "internalType": "address",
          "name": "creator",
          "type": "address"
        },
        {
          "indexed": false,
          "internalType": "uint256",
          "name": "payment",
          "type": "uint256"
        }
      ],
      "name": "CommissionCompleted",
      "type": "event"
    },
    {
      "anonymous": false,
      "inputs": [
        {
          "indexed": true,
          "internalType": "uint256",
          "name": "commissionId",
          "type": "uint256"
        },
        {
          "indexed": true,
          "internalType": "address",
          "name": "client",
          "type": "address"
        },
        {
          "indexed": false,
          "internalType": "uint256",
          "name": "budget",
          "type": "uint256"
        }
      ],
      "name": "CommissionCreated",
      "type": "event"
    },
    {
      "anonymous": false,
      "inputs": [
        {
          "indexed": true,
          "internalType": "uint256",
          "name": "commissionId",
          "type": "uint256"
        },
        {
          "indexed": true,
          "internalType": "address",
          "name": "raiser",
          "type": "address"
        }
      ],
      "name": "DisputeRaised",
      "type": "event"
    },
    {
      "anonymous": false,
      "inputs": [
        {
          "indexed": true,
          "internalType": "uint256",
          "name": "commissionId",
          "type": "uint256"
        },
        {
          "indexed": false,
          "internalType": "bool",
          "name": "favorClient",
          "type": "bool"
        }
      ],
      "name": "DisputeResolved",
      "type": "event"
    },
    {
      "anonymous": false,
      "inputs": [
        {
          "indexed": true,
          "internalType": "uint256",
          "name": "commissionId",
          "type": "uint256"
        },
        {
          "indexed": false,
          "internalType": "uint256",
          "name": "milestoneIndex",
          "type": "uint256"
        }
      ],
      "name": "MilestoneCompleted",
      "type": "event"
    },
    {
      "anonymous": false,
      "inputs": [
        {
          "indexed": true,
          "internalType": "bytes32",
          "name": "role",
          "type": "bytes32"
        },
        {
          "indexed": true,
          "internalType": "bytes32",
          "name": "previousAdminRole",
          "type": "bytes32"
        },
        {
          "indexed": true,
          "internalType": "bytes32",
          "name": "newAdminRole",
          "type": "bytes32"
        }
      ],
      "name": "RoleAdminChanged",
      "type": "event"
    },
    {
      "anonymous": false,
      "inputs": [
        {
          "indexed": true,
          "internalType": "bytes32",
          "name": "role",
          "type": "bytes32"
        },
        {
          "indexed": true,
          "internalType": "address",
          "name": "account",
          "type": "address"
        },
        {
          "indexed": true,
          "internalType": "address",
          "name": "sender",
          "type": "address"
        }
      ],
      "name": "RoleGranted",
      "type": "event"
    },
    {
      "anonymous": false,
      "inputs": [
        {
          "indexed": true,
          "internalType": "bytes32",
          "name": "role",
          "type": "bytes32"
        },
        {
          "indexed": true,
          "internalType": "address",
          "name": "account",
          "type": "address"
        },
        {
          "indexed": true,
          "internalType": "address",
          "name": "sender",
          "type": "address"
        }
      ],
      "name": "RoleRevoked",
      "type": "event"
    },
    {
      "inputs": [],
      "name": "ARBITER_ROLE",
      "outputs": [
        {
          "internalType": "bytes32",
          "name": "",
          "type": "bytes32"
        }
      ],
      "stateMutability": "view",
      "type": "function"
    },
    {
      "inputs": [],
      "name": "DEFAULT_ADMIN_ROLE",
      "outputs": [
        {
          "internalType": "bytes32",
          "name": "",
          "type": "bytes32"
        }
      ],
      "stateMutability": "view",
      "type": "function"
    },
    {
      "inputs": [
        {
          "internalType": "uint256",
          "name": "commissionId",
          "type": "uint256"
        },
        {
          "internalType": "address",
          "name": "creator",
          "type": "address"
        }
      ],
      "name": "acceptCreator",
      "outputs": [],
      "stateMutability": "nonpayable",
      "type": "function"
    },
    {
      "inputs": [
        {
          "internalType": "uint256",
          "name": "commissionId",
          "type": "uint256"
        }
      ],
      "name": "applyForCommission",
      "outputs": [],
      "stateMutability": "nonpayable",
      "type": "function"
    },
    {
      "inputs": [
        {
          "internalType": "uint256",
          "name": "commissionId",
          "type": "uint256"
        },
        {
          "internalType": "uint256",
          "name": "milestoneIndex",
          "type": "uint256"
        }
      ],
      "name": "approveMilestone",
      "outputs": [],
      "stateMutability": "nonpayable",
      "type": "function"
    },
    {
      "inputs": [
        {
          "internalType": "address",
          "name": "",
          "type": "address"
        },
        {
          "internalType": "uint256",
          "name": "",
          "type": "uint256"
        }
      ],
      "name": "clientCommissions",
      "outputs": [
        {
          "internalType": "uint256",
          "name": "",
          "type": "uint256"
        }
      ],
      "stateMutability": "view",
      "type": "function"
    },
    {
      "inputs": [
        {
          "internalType": "uint256",
          "name": "",
          "type": "uint256"
        },
        {
          "internalType": "uint256",
          "name": "",
          "type": "uint256"
        }
      ],
      "name": "commissionApplicants",
      "outputs": [
        {
          "internalType": "address",
          "name": "",
          "type": "address"
        }
      ],
      "stateMutability": "view",
      "type": "function"
    },
    {
      "inputs": [
        {
          "internalType": "uint256",
          "name": "",
          "type": "uint256"
        }
      ],
      "name": "commissions",
      "outputs": [
        {
          "internalType": "uint256",
          "name": "commissionId",
          "type": "uint256"
        },
        {
          "internalType": "address",
          "name": "client",
          "type": "address"
        },
        {
          "internalType": "address",
          "name": "creator",
          "type": "address"
        },
        {
          "internalType": "string",
          "name": "title",
          "type": "string"
        },
        {
          "internalType": "string",
          "name": "description",
          "type": "string"
        },
        {
          "internalType": "enum CommissionSystem.CommissionType",
          "name": "commType",
          "type": "uint8"
        },
        {
          "internalType": "uint256",
          "name": "budget",
          "type": "uint256"
        },
        {
          "internalType": "uint256",
          "name": "deadline",
          "type": "uint256"
        },
        {
          "internalType": "enum CommissionSystem.CommissionStatus",
          "name": "status",
          "type": "uint8"
        },
        {
          "internalType": "uint256",
          "name": "createdAt",
          "type": "uint256"
        },
        {
          "internalType": "uint256",
          "name": "acceptedAt",
          "type": "uint256"
        },
        {
          "internalType": "uint256",
          "name": "completedAt",
          "type": "uint256"
        },
        {
          "internalType": "string",
          "name": "deliverableURI",
          "type": "string"
        },
        {
          "internalType": "uint256",
          "name": "milestoneCount",
          "type": "uint256"
        },
        {
          "internalType": "uint256",
          "name": "milestonesCompleted",
          "type": "uint256"
        },
        {
          "internalType": "bool",
          "name": "hasDispute",
          "type": "bool"
        }
      ],
      "stateMutability": "view",
      "type": "function"
    },
    {
      "inputs": [
        {
          "internalType": "string",
          "name": "title",
          "type": "string"
        },
        {
          "internalType": "string",
          "name": "description",
          "type": "string"
        },
        {
          "internalType": "enum CommissionSystem.CommissionType",
          "name": "commType",
          "type": "uint8"
        },
        {
          "internalType": "uint256",
          "name": "deadline",
          "type": "uint256"
        },
        {
          "components": [
            {
              "internalType": "uint256",
              "name": "milestoneId",
              "type": "uint256"
            },
            {
              "internalType": "string",
              "name": "description",
              "type": "string"
            },
            {
              "internalType": "uint256",
              "name": "payment",
              "type": "uint256"
            },
            {
              "internalType": "bool",
              "name": "completed",
              "type": "bool"
            },
            {
              "internalType": "uint256",
              "name": "dueDate",
              "type": "uint256"
            },
            {
              "internalType": "string",
              "name": "deliverableURI",
              "type": "string"
            }
          ],
          "internalType": "struct CommissionSystem.Milestone[]",
          "name": "_milestones",
          "type": "tuple[]"
        }
      ],
      "name": "createCommission",
      "outputs": [
        {
          "internalType": "uint256",
          "name": "",
          "type": "uint256"
        }
      ],
      "stateMutability": "payable",
      "type": "function"
    },
    {
      "inputs": [
        {
          "internalType": "address",
          "name": "",
          "type": "address"
        },
        {
          "internalType": "uint256",
          "name": "",
          "type": "uint256"
        }
      ],
      "name": "creatorCommissions",
      "outputs": [
        {
          "internalType": "uint256",
          "name": "",
          "type": "uint256"
        }
      ],
      "stateMutability": "view",
      "type": "function"
    },
    {
      "inputs": [
        {
          "internalType": "uint256",
          "name": "commissionId",
          "type": "uint256"
        }
      ],
      "name": "getApplicants",
      "outputs": [
        {
          "internalType": "address[]",
          "name": "",
          "type": "address[]"
        }
      ],
      "stateMutability": "view",
      "type": "function"
    },
    {
      "inputs": [
        {
          "internalType": "uint256",
          "name": "commissionId",
          "type": "uint256"
        }
      ],
      "name": "getMilestones",
      "outputs": [
        {
          "components": [
            {
              "internalType": "uint256",
              "name": "milestoneId",
              "type": "uint256"
            },
            {
              "internalType": "string",
              "name": "description",
              "type": "string"
            },
            {
              "internalType": "uint256",
              "name": "payment",
              "type": "uint256"
            },
            {
              "internalType": "bool",
              "name": "completed",
              "type": "bool"
            },
            {
              "internalType": "uint256",
              "name": "dueDate",
              "type": "uint256"
            },
            {
              "internalType": "string",
              "name": "deliverableURI",
              "type": "string"
            }
          ],
          "internalType": "struct CommissionSystem.Milestone[]",
          "name": "",
          "type": "tuple[]"
        }
      ],
      "stateMutability": "view",
      "type": "function"
    },
    {
      "inputs": [
        {
          "internalType": "bytes32",
          "name": "role",
          "type": "bytes32"
        }
      ],
      "name": "getRoleAdmin",
      "outputs": [
        {
          "internalType": "bytes32",
          "name": "",
          "type": "bytes32"
        }
      ],
      "stateMutability": "view",
      "type": "function"
    },
    {
      "inputs": [
        {
          "internalType": "bytes32",
          "name": "role",
          "type": "bytes32"
        },
        {
          "internalType": "address",
          "name": "account",
          "type": "address"
        }
      ],
      "name": "grantRole",
      "outputs": [],
      "stateMutability": "nonpayable",
      "type": "function"
    },
    {
      "inputs": [
        {
          "internalType": "bytes32",
          "name": "role",
          "type": "bytes32"
        },
        {
          "internalType": "address",
          "name": "account",
          "type": "address"
        }
      ],
      "name": "hasRole",
      "outputs": [
        {
          "internalType": "bool",
          "name": "",
          "type": "bool"
        }
      ],
      "stateMutability": "view",
      "type": "function"
    },
    {
      "inputs": [
        {
          "internalType": "uint256",
          "name": "",
          "type": "uint256"
        },
        {
          "internalType": "uint256",
          "name": "",
          "type": "uint256"
        }
      ],
      "name": "milestones",
      "outputs": [
        {
          "internalType": "uint256",
          "name": "milestoneId",
          "type": "uint256"
        },
        {
          "internalType": "string",
          "name": "description",
          "type": "string"
        },
        {
          "internalType": "uint256",
          "name": "payment",
          "type": "uint256"
        },
        {
          "internalType": "bool",
          "name": "completed",
          "type": "bool"
        },
        {
          "internalType": "uint256",
          "name": "dueDate",
          "type": "uint256"
        },
        {
          "internalType": "string",
          "name": "deliverableURI",
          "type": "string"
        }
      ],
      "stateMutability": "view",
      "type": "function"
    },
    {
      "inputs": [],
      "name": "platformFeeBps",
      "outputs": [
        {
          "internalType": "uint256",
          "name": "",
          "type": "uint256"
        }
      ],
      "stateMutability": "view",
      "type": "function"
    },
    {
      "inputs": [
        {
          "internalType": "uint256",
          "name": "commissionId",
          "type": "uint256"
        }
      ],
      "name": "raiseDispute",
      "outputs": [],
      "stateMutability": "nonpayable",
      "type": "function"
    },
    {
      "inputs": [
        {
          "internalType": "bytes32",
          "name": "role",
          "type": "bytes32"
        },
        {
          "internalType": "address",
          "name": "callerConfirmation",
          "type": "address"
        }
      ],
      "name": "renounceRole",
      "outputs": [],
      "stateMutability": "nonpayable",
      "type": "function"
    },
    {
      "inputs": [
        {
          "internalType": "uint256",
          "name": "commissionId",
          "type": "uint256"
        },
        {
          "internalType": "bool",
          "name": "favorClient",
          "type": "bool"
        },
        {
          "internalType": "uint256",
          "name": "clientRefundBps",
          "type": "uint256"
        }
      ],
      "name": "resolveDispute",
      "outputs": [],
      "stateMutability": "nonpayable",
      "type": "function"
    },
    {
      "inputs": [
        {
          "internalType": "bytes32",
          "name": "role",
          "type": "bytes32"
        },
        {
          "internalType": "address",
          "name": "account",
          "type": "address"
        }
      ],
      "name": "revokeRole",
      "outputs": [],
      "stateMutability": "nonpayable",
      "type": "function"
    },
    {
      "inputs": [
        {
          "internalType": "uint256",
          "name": "commissionId",
          "type": "uint256"
        }
      ],
      "name": "startWork",
      "outputs": [],
      "stateMutability": "nonpayable",
      "type": "function"
    },
    {
      "inputs": [
        {
          "internalType": "uint256",
          "name": "commissionId",
          "type": "uint256"
        },
        {
          "internalType": "uint256",
          "name": "milestoneIndex",
          "type": "uint256"
        },
        {
          "internalType": "string",
          "name": "deliverableURI",
          "type": "string"
        }
      ],
      "name": "submitMilestone",
      "outputs": [],
      "stateMutability": "nonpayable",
      "type": "function"
    },
    {
      "inputs": [
        {
          "internalType": "bytes4",
          "name": "i",
          "type": "bytes4"
        }
      ],
      "name": "supportsInterface",
      "outputs": [
        {
          "internalType": "bool",
          "name": "",
          "type": "bool"
        }
      ],
      "stateMutability": "view",
      "type": "function"
    },
    {
      "inputs": [],
      "name": "totalCommissions",
      "outputs": [
        {
          "internalType": "uint256",
          "name": "",
          "type": "uint256"
        }
      ],
      "stateMutability": "view",
      "type": "function"
    },
    {
      "inputs": [],
      "name": "totalVolume",
      "outputs": [
        {
          "internalType": "uint256",
          "name": "",
          "type": "uint256"
        }
      ],
      "stateMutability": "view",
      "type": "function"
    },
    {
      "inputs": [],
      "name": "treasury",
      "outputs": [
        {
          "internalType": "address",
          "name": "",
          "type": "address"
        }
      ],
      "stateMutability": "view",
      "type": "function"
    }
  ],
  "bytecode": "0x6080346200009c57601f6200259638819003918201601f19168301916001600160401b03831184841017620000a1578084926020946040528339810103126200009c57516001600160a01b038116908190036200009c57600180556101f4600955600880546001600160a01b0319169190911790556200007f33620000b7565b506200008b3362000137565b5060405161239c9081620001da8239f35b600080fd5b634e487b7160e01b600052604160045260246000fd5b6001600160a01b031660008181527fad3228b676f7d3cd4284a5443f17f1962b36e491b30a40b2405849e597ba5fb5602052604081205490919060ff166200013357818052816020526040822081835260205260408220600160ff198254161790553391600080516020620025768339815191528180a4600190565b5090565b6001600160a01b031660008181527f89777fffb7045c97177d1161cd08d871365cb73d0b18f242761255a7718434cf60205260408120549091907fbb08418a67729a078f87bbc8d02a770929bb68f5bfdf134ae2ead6ed38e2f4ae9060ff16620001d457808352826020526040832082845260205260408320600160ff1982541617905560008051602062002576833981519152339380a4600190565b50509056fe60a080604052600436101561001357600080fd5b60003560e01c90816301ffc9a714611e13575080630390e07a14611be257806303a250f914611b685780631c376c6314611ac657806320913da51461188e57806322b3a7c81461171857806322dcd13e146116fa578063248a9ca3146116cb5780632f2ff15d1461168c57806333bd9ec414610d5757806336568abe14610ceb57806342c549c014610b625780634d104adf14610b275780635f81a57c14610b0957806361d027b314610ad55780636cf5d86e14610a035780638792e303146109e55780638a6e8a7e146109905780638b22a5241461087357806391d1485414610818578063a217fddf146107fc578063a5c1674e14610670578063d547741f1461062f578063da3a9b321461053d578063df885b17146104e6578063e6e946c2146101b05763f29bf7481461014857600080fd5b346101ab5760406003193601126101ab576101616120d6565b73ffffffffffffffffffffffffffffffffffffffff60243591166000526006602052604060002080548210156101ab5760209161019d91612111565b90546040519160031b1c8152f35b600080fd5b346101ab5760606003193601126101ab57600435602435801515908181036101ab573360009081527f89777fffb7045c97177d1161cd08d871365cb73d0b18f242761255a7718434cf6020908152604090912054909190604435907fbb08418a67729a078f87bbc8d02a770929bb68f5bfdf134ae2ead6ed38e2f4ae9060ff16156104af575061023e61232b565b8460005260038352604060002090600882019081549160ff831660078110156104805760050361042257612710928383116103c45760ff1916600417905560068301544790808210156103bc5750935b1561035b57906102a16102a9928561230b565b04809361231e565b91600080808073ffffffffffffffffffffffffffffffffffffffff9485600188015416828215610352575bf11561033d578215918215610318575b505050507f5a87909bff68caaaaf0b3fd9c74eeccc928832f879315e5c6fb7a73612f26c0c915b604051908152a260018055005b6000938493849360028594015416908390610349575bf11561033d57838080806102e4565b6040513d6000823e3d90fd5b506108fc61032e565b506108fc6102d4565b5050600080809373ffffffffffffffffffffffffffffffffffffffff600283950154168282156103b3575bf11561033d577f5a87909bff68caaaaf0b3fd9c74eeccc928832f879315e5c6fb7a73612f26c0c9161030b565b506108fc610386565b90509361028e565b606487604051907f08c379a00000000000000000000000000000000000000000000000000000000082526004820152600b60248201527f496e76616c6964206270730000000000000000000000000000000000000000006044820152fd5b606486604051907f08c379a00000000000000000000000000000000000000000000000000000000082526004820152600c60248201527f4e6f7420646973707574656400000000000000000000000000000000000000006044820152fd5b7f4e487b7100000000000000000000000000000000000000000000000000000000600052602160045260246000fd5b604490604051907fe2517d3f0000000000000000000000000000000000000000000000000000000082523360048301526024820152fd5b346101ab576104f436611f47565b90600052600760205260406000209081548110156101ab5761052d73ffffffffffffffffffffffffffffffffffffffff91602093612111565b9190546040519260031b1c168152f35b346101ab5760406003193601126101ab576004356105596120b3565b90806000526003602052604060002073ffffffffffffffffffffffffffffffffffffffff80600183015416331480610617575b610595906122a6565b60028201931692837fffffffffffffffffffffffff000000000000000000000000000000000000000082541617905560088101600160ff19825416179055600a429101558160005260066020526105f081604060002061226d565b7ffc2d0bbc54bcd1dc2e65f58682d186ee28ae0f9f535fe25d0baee98abe8de0e6600080a3005b5060ff6008830154166007811015610480571561058c565b346101ab5760406003193601126101ab5761066e60043561064e6120b3565b90806000526000602052610669600160406000200154612129565b6121db565b005b346101ab5760206003193601126101ab57600435806000526003602052604060002073ffffffffffffffffffffffffffffffffffffffff8060018301541633149081156107ec575b501561078e576008810190815460ff811660078110156104805760028114908115610783575b501561072557600f600592019060ff19916001838254161790551617905533907f84a477df8a28a4276ca6dee4458a06c3015f30c477d9c949ede4e13ff8a552b4600080a3005b60646040517f08c379a000000000000000000000000000000000000000000000000000000000815260206004820152600e60248201527f496e76616c6964207374617475730000000000000000000000000000000000006044820152fd5b6003915014856106de565b60646040517f08c379a000000000000000000000000000000000000000000000000000000000815260206004820152600960248201527f4e6f7420706172747900000000000000000000000000000000000000000000006044820152fd5b90506002820154163314836106b8565b346101ab5760006003193601126101ab57602060405160008152f35b346101ab5760406003193601126101ab576108316120b3565b600435600052600060205273ffffffffffffffffffffffffffffffffffffffff60406000209116600052602052602060ff604060002054166040519015158152f35b346101ab5760206003193601126101ab5760043580600052600360205260ff600860406000200154166007811015610480576109325760005260076020526040600020805468010000000000000000811015610903576108d891600182018155612111565b81549060031b9073ffffffffffffffffffffffffffffffffffffffff33831b921b1916179055600080f35b7f4e487b7100000000000000000000000000000000000000000000000000000000600052604160045260246000fd5b60646040517f08c379a000000000000000000000000000000000000000000000000000000000815260206004820152600860248201527f4e6f74206f70656e0000000000000000000000000000000000000000000000006044820152fd5b346101ab5760406003193601126101ab576109a96120d6565b73ffffffffffffffffffffffffffffffffffffffff60243591166000526005602052604060002080548210156101ab5760209161019d91612111565b346101ab5760006003193601126101ab576020600a54604051908152f35b346101ab576020806003193601126101ab5760043560005260078152604060002060405190818382549182815201908192600052846000209060005b86828210610aab578686610a5582880383611ecd565b604051928392818401908285525180915260408401929160005b828110610a7e57505050500390f35b835173ffffffffffffffffffffffffffffffffffffffff1685528695509381019392810192600101610a6f565b835473ffffffffffffffffffffffffffffffffffffffff1685529093019260019283019201610a3f565b346101ab5760006003193601126101ab57602073ffffffffffffffffffffffffffffffffffffffff60085416604051908152f35b346101ab5760006003193601126101ab576020600b54604051908152f35b346101ab5760006003193601126101ab5760206040517fbb08418a67729a078f87bbc8d02a770929bb68f5bfdf134ae2ead6ed38e2f4ae8152f35b346101ab576020806003193601126101ab5760043560005260048152604060002090815491610b90836120f9565b92610b9e6040519485611ecd565b8084528284018092600052836000206000915b838310610c7e5750505050604051918083019381845251809452604083019360408160051b85010192916000955b828710610bec5785850386f35b909192938280610c6e837fffffffffffffffffffffffffffffffffffffffffffffffffffffffffffffffc08a60019603018652885180518252610c3b8482015160c08087860152840190612073565b91604082015160408201526060808301511515908201526080808301519082015260a08092015191818403910152612073565b9601920196019592919092610bdf565b600686600192604099989951610c9381611eb1565b85548152610ca2858701611fcc565b838201526002860154604082015260ff6003870154161515606082015260048601546080820152610cd560058701611fcc565b60a0820152815201920192019190959495610bb1565b346101ab5760406003193601126101ab57610d046120b3565b3373ffffffffffffffffffffffffffffffffffffffff821603610d2d5761066e906004356121db565b60046040517f6697b232000000000000000000000000000000000000000000000000000000008152fd5b60a06003193601126101ab5760043567ffffffffffffffff81116101ab57610d83903690600401611ef0565b60243567ffffffffffffffff81116101ab57610da3903690600401611ef0565b90600560443510156101ab5767ffffffffffffffff608435116101ab573660236084350112156101ab57610ddc608435600401356120f9565b90610dea6040519283611ecd565b608435600401358252602082013660246084356004013560051b6084350101116101ab57602460843501905b60246084356004013560051b6084350101821061159257505034151580611587575b15611529578151801515908161151d575b50156114bf57610e5a60025461225e565b908160025581600052600360205260406000209082825560018201337fffffffffffffffffffffffff000000000000000000000000000000000000000082541617905580519067ffffffffffffffff8211610903578190610ebe6003850154611f79565b601f811161146c575b50602090601f83116001146113fa576000926113ef575b50506000198260011b9260031b1c19161760038201555b835167ffffffffffffffff811161090357610f136004830154611f79565b601f81116113a8575b506020601f821160011461133657819293949560009261132b575b50506000198260011b9260031b1c19161760048201559190915b6005810160ff1981541660ff6044351617905534600682015560643560078201556008810160ff198154169055426009820155600d82519101556000905b80518210156112d05782600052600460205260406000209281518310156112a15760208360051b830101519380546801000000000000000081101561090357610fdd91600182018155611f5d565b9390936112725784518455602085015194855167ffffffffffffffff81116109035761100c6001870154611f79565b601f811161122b575b506020601f82116001146111b657819060a094959697986000926111ab575b50506000198260011b9260031b1c19161760018701555b60408101516002870155600386016060820151151560ff60ff1983541691161790556080810151600487015501519384519467ffffffffffffffff8611610903576110996005830154611f79565b601f8111611164575b50602090601f87116001146110ef5795806005926110dd9697986000926110e4575b50506000198260011b9260031b1c19161791015561225e565b9091610f8f565b0151905088806110c4565b906005830160005260206000209160005b601f198916811061114c5750966005926001926110dd97989983601f19811610611133575b505050811b0191015561225e565b015160001960f88460031b161c19169055888080611125565b91926020600181928685015181550194019201611100565b600583016000526020600020601f880160051c8101602089106111a4575b601f830160051c820181106111985750506110a2565b60008155600101611182565b5080611182565b015190508880611034565b6001870160005260206000209760005b601f1984168110611213575097829160a0959697989983601f1960019616106111fa575b505050811b01600187015561104b565b015160001960f88460031b161c191690558880806111ea565b828201518a55600190990198602092830192016111c6565b600187016000526020600020601f830160051c81016020841061126b575b601f830160051c8201811061125f575050611015565b60008155600101611249565b5080611249565b7f4e487b7100000000000000000000000000000000000000000000000000000000600052600060045260246000fd5b7f4e487b7100000000000000000000000000000000000000000000000000000000600052603260045260246000fd5b60208333600052600582526112e981604060002061226d565b6112f4600a5461225e565b600a55604051348152817fc2ab2c3e34b2abfba288fefedb95b84b61aa55172be6f809e72a60fb55d12d01843393a3604051908152f35b015190508580610f37565b6004830160005260206000209060005b601f1984168110611390575060019394959683601f19811610611377575b505050811b016004820155919091610f51565b015160001960f88460031b161c19169055858080611364565b9091602060018192858b015181550193019101611346565b600483016000526020600020601f830160051c8101602084106113e8575b601f830160051c820181106113dc575050610f1c565b600081556001016113c6565b50806113c6565b015190508680610ede565b9250600384016000526020600020906000935b601f1984168510611451576001945083601f19811610611438575b505050811b016003820155610ef5565b015160001960f88460031b161c19169055868080611428565b8181015183556020948501946001909301929091019061140d565b909150600384016000526020600020601f840160051c8101602085106114b8575b90849392915b601f830160051c820181106114a9575050610ec7565b60008155859450600101611493565b508061148d565b60646040517f08c379a000000000000000000000000000000000000000000000000000000000815260206004820152600f60248201527f312d3130206d696c6573746f6e657300000000000000000000000000000000006044820152fd5b600a9150111584610e49565b60646040517f08c379a000000000000000000000000000000000000000000000000000000000815260206004820152600e60248201527f496e76616c696420706172616d730000000000000000000000000000000000006044820152fd5b504260643511610e38565b813567ffffffffffffffff81116101ab5760c07fffffffffffffffffffffffffffffffffffffffffffffffffffffffffffffffdc8260843501360301126101ab57604051916115e083611eb1565b60843582016024810135845267ffffffffffffffff604490910135116101ab57611617366084358401604481013501602401611ef0565b602084015260848035830160648101356040860152013580151581036101ab576060840152608435820160a4810135608085015267ffffffffffffffff60c490910135116101ab57602092839261167c9036906084350160c481013501602401611ef0565b60a0820152815201910190610e16565b346101ab5760406003193601126101ab5761066e6004356116ab6120b3565b908060005260006020526116c6600160406000200154612129565b61214f565b346101ab5760206003193601126101ab5760043560005260006020526020600160406000200154604051908152f35b346101ab5760006003193601126101ab576020600954604051908152f35b346101ab5760206003193601126101ab5760043560005260036020526040600020805473ffffffffffffffffffffffffffffffffffffffff9182600182015416926002820154166003820161176c90611fcc565b61177860048401611fcc565b91600584015460ff1691600685015493600786015494600887015460ff1695600988015491600a89015493600b8a015495600c8b016117b690611fcc565b97600d8c01549d600e8d01549c600f015460ff169d604051806080525260805160200152608051604001526102008060805160600152608051016117f991612073565b608051808203906080015261180d91612073565b9660058110156104805760a0608051015260c0608051015260e0608051015260078610156104805761186a956101006080510152610120608051015261014060805101526101606080510152608051610180818403910152612073565b926101a060805101526101c0608051015215156101e0608051015260805180910390f35b346101ab5761189c36611f47565b906118a561232b565b80600052600360205260406000209173ffffffffffffffffffffffffffffffffffffffff90816001850154163303611a68576118ee908360005260046020526040600020611f5d565b5060ff60038201541615611a0a5760020154906127106119106009548461230b565b04916000808080868660085416828215611a01575bf11561033d576000808080600289019661194387895416918761231e565b908282156119f8575bf11561033d57600b549081018091116119c957600b55600e840154600d85015414611978575b60018055005b60066020917f6f64cca79281ddf5d6052a87efe416686e69397f0251a87ed5f3b4d2b3470ee89360088701600460ff1982541617905542600b8801555416940154604051908152a380808080611972565b7f4e487b7100000000000000000000000000000000000000000000000000000000600052601160045260246000fd5b506108fc61194c565b506108fc611925565b60646040517f08c379a000000000000000000000000000000000000000000000000000000000815260206004820152600d60248201527f4e6f74207375626d6974746564000000000000000000000000000000000000006044820152fd5b60646040517f08c379a000000000000000000000000000000000000000000000000000000000815260206004820152600a60248201527f4e6f7420636c69656e74000000000000000000000000000000000000000000006044820152fd5b346101ab57611ad436611f47565b90600052600460205260406000209081548110156101ab57611af591611f5d565b508054611b64611b0760018401611fcc565b9260028101549060ff60038201541690611b28600560048301549201611fcc565b91611b45604051978897885260c0602089015260c0880190612073565b93604087015215156060860152608085015283820360a0850152612073565b0390f35b346101ab5760206003193601126101ab576004356000526003602052604060002073ffffffffffffffffffffffffffffffffffffffff600282015416331480611bc6575b90611bb86008926122a6565b01805460ff19166002179055005b5060ff6008820154169060078210156104805790600114611bac565b346101ab5760606003193601126101ab5760243560043567ffffffffffffffff6044358181116101ab57611c1a903690600401611ef0565b92826000526020916003835260406000209073ffffffffffffffffffffffffffffffffffffffff600283015416331480611df9575b611c58906122a6565b84600052600484526005611c70846040600020611f5d565b500190865190811161090357611c868254611f79565b601f8111611db3575b5084601f8211600114611d28579080600e9493927f1b7218c0ac23ea9cbe4df603d2b340fbf469a115b73ea3d11460727f445d6be19899600092611d1d575b50506000198260011b9260031b1c19161790555b85600052600484526003611cfa846040600020611f5d565b5001600160ff1982541617905501611d12815461225e565b9055604051908152a2005b015190508980611cce565b601f1982169783600052866000209860005b818110611d9c5750986001928492600e9796957f1b7218c0ac23ea9cbe4df603d2b340fbf469a115b73ea3d11460727f445d6be19b9c10611d83575b505050811b019055611ce2565b015160001960f88460031b161c19169055898080611d76565b838301518b556001909a0199928801928801611d3a565b8260005285600020601f830160051c810191878410611def575b601f0160051c01905b818110611de35750611c8f565b60008155600101611dd6565b9091508190611dcd565b5060ff600883015416600781101561048057600214611c4f565b346101ab5760206003193601126101ab57600435907fffffffff0000000000000000000000000000000000000000000000000000000082168092036101ab57817f7965db0b0000000000000000000000000000000000000000000000000000000060209314908115611e87575b5015158152f35b7f01ffc9a70000000000000000000000000000000000000000000000000000000091501483611e80565b60c0810190811067ffffffffffffffff82111761090357604052565b90601f601f19910116810190811067ffffffffffffffff82111761090357604052565b81601f820112156101ab5780359067ffffffffffffffff82116109035760405192611f256020601f19601f8601160185611ecd565b828452602083830101116101ab57816000926020809301838601378301015290565b60031960409101126101ab576004359060243590565b80548210156112a1576000526006602060002091020190600090565b90600182811c92168015611fc2575b6020831014611f9357565b7f4e487b7100000000000000000000000000000000000000000000000000000000600052602260045260246000fd5b91607f1691611f88565b9060405191826000825492611fe084611f79565b90818452600194858116908160001461204f575060011461200c575b505061200a92500383611ecd565b565b9093915060005260209081600020936000915b81831061203757505061200a93508201013880611ffc565b8554888401850152948501948794509183019161201f565b905061200a95506020935060ff1991501682840152151560051b8201013880611ffc565b919082519283825260005b84811061209f575050601f19601f8460006020809697860101520116010190565b60208183018101518483018201520161207e565b6024359073ffffffffffffffffffffffffffffffffffffffff821682036101ab57565b6004359073ffffffffffffffffffffffffffffffffffffffff821682036101ab57565b67ffffffffffffffff81116109035760051b60200190565b80548210156112a15760005260206000200190600090565b80600052600060205260406000203360005260205260ff60406000205416156104af5750565b906000918083528260205273ffffffffffffffffffffffffffffffffffffffff6040842092169182845260205260ff604084205416156000146121d657808352826020526040832082845260205260408320600160ff198254161790557f2f8788117e7eff1d82e926ec794901d17c78024a50270940304540a733656f0d339380a4600190565b505090565b906000918083528260205273ffffffffffffffffffffffffffffffffffffffff6040842092169182845260205260ff6040842054166000146121d65780835282602052604083208284526020526040832060ff1981541690557ff6391f5c32d9c69d2a47ea670b442974b53935d1edc7fd64eb21e047a839171b339380a4600190565b60001981146119c95760010190565b8054680100000000000000008110156109035761228f91600182018155612111565b600019829392549160031b92831b921b1916179055565b156122ad57565b60646040517f08c379a000000000000000000000000000000000000000000000000000000000815260206004820152600760248201527f496e76616c6964000000000000000000000000000000000000000000000000006044820152fd5b818102929181159184041417156119c957565b919082039182116119c957565b60026001541461233c576002600155565b60046040517f3ee5aeb5000000000000000000000000000000000000000000000000000000008152fdfea2646970667358221220872524befa6009cc9a5bc03cd5ea8fdafa0025048cf68df723399d5fefa753b164736f6c634300081400332f8788117e7eff1d82e926ec794901d17c78024a50270940304540a733656f0d",
  "linkReferences": {},
  "deployedLinkReferences": {}
}