{
  "_format": "hh-sol-artifact-1",
  "contractName": "CreatorProfiles",
  "sourceName": "contracts/layer6/creators/CreatorProfiles.sol",
  "abi": [
    {
      "inputs": [],
      "stateMutability": "nonpayable",
      "type": "constructor"
    },
    {
      "inputs": [],
      "name": "AccessControlBadConfirmation",
      "type": "error"
    },
    {
      "inputs": [
        {
          "internalType": "address",
          "name": "account",
          "type": "address"
        },
        {
          "internalType": "bytes32",
          "name": "neededRole",
          "type": "bytes32"
        }
      ],
      "name": "AccessControlUnauthorizedAccount",
      "type": "error"
    },
    {
      "inputs": [],
      "name": "ReentrancyGuardReentrantCall",
      "type": "error"
    },
    {
      "anonymous": false,
      "inputs": [
        {
          "indexed": true,
          "internalType": "uint256",
          "name": "profileId",
          "type": "uint256"
        },
        {
          "indexed": true,
          "internalType": "address",
          "name": "follower",
          "type": "address"
        }
      ],
      "name": "Followed",
      "type": "event"
    },
    {
      "anonymous": false,
      "inputs": [
        {
          "indexed": true,
          "internalType": "uint256",
          "name": "profileId",
          "type": "uint256"
        },
        {
          "indexed": true,
          "internalType": "uint256",
          "name": "itemId",
          "type": "uint256"
        }
      ],
      "name": "PortfolioItemAdded",
      "type": "event"
    },
    {
      "anonymous": false,
      "inputs": [
        {
          "indexed": true,
          "internalType": "uint256",
          "name": "profileId",
          "type": "uint256"
        },
        {
          "indexed": true,
          "internalType": "address",
          "name": "creator",
          "type": "address"
        },
        {
          "indexed": false,
          "internalType": "string",
          "name": "username",
          "type": "string"
        }
      ],
      "name": "ProfileCreated",
      "type": "event"
    },
    {
      "anonymous": false,
      "inputs": [
        {
          "indexed": true,
          "internalType": "uint256",
          "name": "profileId",
          "type": "uint256"
        }
      ],
      "name": "ProfileVerified",
      "type": "event"
    },
    {
      "anonymous": false,
      "inputs": [
        {
          "indexed": true,
          "internalType": "bytes32",
          "name": "role",
          "type": "bytes32"
        },
        {
          "indexed": true,
          "internalType": "bytes32",
          "name": "previousAdminRole",
          "type": "bytes32"
        },
        {
          "indexed": true,
          "internalType": "bytes32",
          "name": "newAdminRole",
          "type": "bytes32"
        }
      ],
      "name": "RoleAdminChanged",
      "type": "event"
    },
    {
      "anonymous": false,
      "inputs": [
        {
          "indexed": true,
          "internalType": "bytes32",
          "name": "role",
          "type": "bytes32"
        },
        {
          "indexed": true,
          "internalType": "address",
          "name": "account",
          "type": "address"
        },
        {
          "indexed": true,
          "internalType": "address",
          "name": "sender",
          "type": "address"
        }
      ],
      "name": "RoleGranted",
      "type": "event"
    },
    {
      "anonymous": false,
      "inputs": [
        {
          "indexed": true,
          "internalType": "bytes32",
          "name": "role",
          "type": "bytes32"
        },
        {
          "indexed": true,
          "internalType": "address",
          "name": "account",
          "type": "address"
        },
        {
          "indexed": true,
          "internalType": "address",
          "name": "sender",
          "type": "address"
        }
      ],
      "name": "RoleRevoked",
      "type": "event"
    },
    {
      "anonymous": false,
      "inputs": [
        {
          "indexed": true,
          "internalType": "uint256",
          "name": "profileId",
          "type": "uint256"
        },
        {
          "indexed": false,
          "internalType": "enum CreatorProfiles.CreatorTier",
          "name": "oldTier",
          "type": "uint8"
        },
        {
          "indexed": false,
          "internalType": "enum CreatorProfiles.CreatorTier",
          "name": "newTier",
          "type": "uint8"
        }
      ],
      "name": "TierUpgraded",
      "type": "event"
    },
    {
      "inputs": [],
      "name": "DEFAULT_ADMIN_ROLE",
      "outputs": [
        {
          "internalType": "bytes32",
          "name": "",
          "type": "bytes32"
        }
      ],
      "stateMutability": "view",
      "type": "function"
    },
    {
      "inputs": [],
      "name": "VERIFIER_ROLE",
      "outputs": [
        {
          "internalType": "bytes32",
          "name": "",
          "type": "bytes32"
        }
      ],
      "stateMutability": "view",
      "type": "function"
    },
    {
      "inputs": [
        {
          "internalType": "address",
          "name": "nftContract",
          "type": "address"
        },
        {
          "internalType": "uint256",
          "name": "tokenId",
          "type": "uint256"
        },
        {
          "internalType": "string",
          "name": "title",
          "type": "string"
        },
        {
          "internalType": "string",
          "name": "description",
          "type": "string"
        },
        {
          "internalType": "bool",
          "name": "featured",
          "type": "bool"
        }
      ],
      "name": "addPortfolioItem",
      "outputs": [],
      "stateMutability": "nonpayable",
      "type": "function"
    },
    {
      "inputs": [
        {
          "internalType": "address",
          "name": "",
          "type": "address"
        }
      ],
      "name": "addressToProfile",
      "outputs": [
        {
          "internalType": "uint256",
          "name": "",
          "type": "uint256"
        }
      ],
      "stateMutability": "view",
      "type": "function"
    },
    {
      "inputs": [
        {
          "internalType": "string",
          "name": "username",
          "type": "string"
        },
        {
          "internalType": "string",
          "name": "bio",
          "type": "string"
        },
        {
          "internalType": "string",
          "name": "avatarURI",
          "type": "string"
        },
        {
          "internalType": "string[]",
          "name": "specialties",
          "type": "string[]"
        },
        {
          "internalType": "string",
          "name": "portfolioURI",
          "type": "string"
        }
      ],
      "name": "createProfile",
      "outputs": [
        {
          "internalType": "uint256",
          "name": "",
          "type": "uint256"
        }
      ],
      "stateMutability": "nonpayable",
      "type": "function"
    },
    {
      "inputs": [
        {
          "internalType": "uint256",
          "name": "profileId",
          "type": "uint256"
        }
      ],
      "name": "follow",
      "outputs": [],
      "stateMutability": "nonpayable",
      "type": "function"
    },
    {
      "inputs": [
        {
          "internalType": "uint256",
          "name": "",
          "type": "uint256"
        },
        {
          "internalType": "uint256",
          "name": "",
          "type": "uint256"
        }
      ],
      "name": "followers",
      "outputs": [
        {
          "internalType": "address",
          "name": "",
          "type": "address"
        }
      ],
      "stateMutability": "view",
      "type": "function"
    },
    {
      "inputs": [
        {
          "internalType": "uint256",
          "name": "profileId",
          "type": "uint256"
        }
      ],
      "name": "getFollowers",
      "outputs": [
        {
          "internalType": "address[]",
          "name": "",
          "type": "address[]"
        }
      ],
      "stateMutability": "view",
      "type": "function"
    },
    {
      "inputs": [
        {
          "internalType": "uint256",
          "name": "profileId",
          "type": "uint256"
        }
      ],
      "name": "getPortfolio",
      "outputs": [
        {
          "components": [
            {
              "internalType": "uint256",
              "name": "itemId",
              "type": "uint256"
            },
            {
              "internalType": "address",
              "name": "nftContract",
              "type": "address"
            },
            {
              "internalType": "uint256",
              "name": "tokenId",
              "type": "uint256"
            },
            {
              "internalType": "string",
              "name": "title",
              "type": "string"
            },
            {
              "internalType": "string",
              "name": "description",
              "type": "string"
            },
            {
              "internalType": "uint256",
              "name": "addedAt",
              "type": "uint256"
            },
            {
              "internalType": "bool",
              "name": "featured",
              "type": "bool"
            }
          ],
          "internalType": "struct CreatorProfiles.PortfolioItem[]",
          "name": "",
          "type": "tuple[]"
        }
      ],
      "stateMutability": "view",
      "type": "function"
    },
    {
      "inputs": [
        {
          "internalType": "bytes32",
          "name": "role",
          "type": "bytes32"
        }
      ],
      "name": "getRoleAdmin",
      "outputs": [
        {
          "internalType": "bytes32",
          "name": "",
          "type": "bytes32"
        }
      ],
      "stateMutability": "view",
      "type": "function"
    },
    {
      "inputs": [
        {
          "internalType": "uint256",
          "name": "profileId",
          "type": "uint256"
        }
      ],
      "name": "getSpecialties",
      "outputs": [
        {
          "internalType": "string[]",
          "name": "",
          "type": "string[]"
        }
      ],
      "stateMutability": "view",
      "type": "function"
    },
    {
      "inputs": [
        {
          "internalType": "bytes32",
          "name": "role",
          "type": "bytes32"
        },
        {
          "internalType": "address",
          "name": "account",
          "type": "address"
        }
      ],
      "name": "grantRole",
      "outputs": [],
      "stateMutability": "nonpayable",
      "type": "function"
    },
    {
      "inputs": [
        {
          "internalType": "bytes32",
          "name": "role",
          "type": "bytes32"
        },
        {
          "internalType": "address",
          "name": "account",
          "type": "address"
        }
      ],
      "name": "hasRole",
      "outputs": [
        {
          "internalType": "bool",
          "name": "",
          "type": "bool"
        }
      ],
      "stateMutability": "view",
      "type": "function"
    },
    {
      "inputs": [
        {
          "internalType": "address",
          "name": "",
          "type": "address"
        },
        {
          "internalType": "uint256",
          "name": "",
          "type": "uint256"
        }
      ],
      "name": "isFollowing",
      "outputs": [
        {
          "internalType": "bool",
          "name": "",
          "type": "bool"
        }
      ],
      "stateMutability": "view",
      "type": "function"
    },
    {
      "inputs": [
        {
          "internalType": "uint256",
          "name": "",
          "type": "uint256"
        },
        {
          "internalType": "uint256",
          "name": "",
          "type": "uint256"
        }
      ],
      "name": "portfolioItems",
      "outputs": [
        {
          "internalType": "uint256",
          "name": "itemId",
          "type": "uint256"
        },
        {
          "internalType": "address",
          "name": "nftContract",
          "type": "address"
        },
        {
          "internalType": "uint256",
          "name": "tokenId",
          "type": "uint256"
        },
        {
          "internalType": "string",
          "name": "title",
          "type": "string"
        },
        {
          "internalType": "string",
          "name": "description",
          "type": "string"
        },
        {
          "internalType": "uint256",
          "name": "addedAt",
          "type": "uint256"
        },
        {
          "internalType": "bool",
          "name": "featured",
          "type": "bool"
        }
      ],
      "stateMutability": "view",
      "type": "function"
    },
    {
      "inputs": [
        {
          "internalType": "uint256",
          "name": "",
          "type": "uint256"
        },
        {
          "internalType": "uint256",
          "name": "",
          "type": "uint256"
        }
      ],
      "name": "profileSpecialties",
      "outputs": [
        {
          "internalType": "string",
          "name": "",
          "type": "string"
        }
      ],
      "stateMutability": "view",
      "type": "function"
    },
    {
      "inputs": [
        {
          "internalType": "uint256",
          "name": "",
          "type": "uint256"
        }
      ],
      "name": "profiles",
      "outputs": [
        {
          "internalType": "uint256",
          "name": "profileId",
          "type": "uint256"
        },
        {
          "internalType": "address",
          "name": "creator",
          "type": "address"
        },
        {
          "internalType": "string",
          "name": "username",
          "type": "string"
        },
        {
          "internalType": "string",
          "name": "bio",
          "type": "string"
        },
        {
          "internalType": "string",
          "name": "avatarURI",
          "type": "string"
        },
        {
          "internalType": "enum CreatorProfiles.CreatorTier",
          "name": "tier",
          "type": "uint8"
        },
        {
          "internalType": "uint256",
          "name": "totalSales",
          "type": "uint256"
        },
        {
          "internalType": "uint256",
          "name": "totalRevenue",
          "type": "uint256"
        },
        {
          "internalType": "uint256",
          "name": "totalCreations",
          "type": "uint256"
        },
        {
          "internalType": "uint256",
          "name": "followersCount",
          "type": "uint256"
        },
        {
          "internalType": "uint256",
          "name": "reputation",
          "type": "uint256"
        },
        {
          "internalType": "bool",
          "name": "isVerified",
          "type": "bool"
        },
        {
          "internalType": "uint256",
          "name": "createdAt",
          "type": "uint256"
        },
        {
          "internalType": "uint256",
          "name": "lastActiveAt",
          "type": "uint256"
        },
        {
          "internalType": "string",
          "name": "portfolioURI",
          "type": "string"
        }
      ],
      "stateMutability": "view",
      "type": "function"
    },
    {
      "inputs": [
        {
          "internalType": "uint256",
          "name": "profileId",
          "type": "uint256"
        },
        {
          "internalType": "uint256",
          "name": "saleAmount",
          "type": "uint256"
        }
      ],
      "name": "recordSale",
      "outputs": [],
      "stateMutability": "nonpayable",
      "type": "function"
    },
    {
      "inputs": [
        {
          "internalType": "bytes32",
          "name": "role",
          "type": "bytes32"
        },
        {
          "internalType": "address",
          "name": "callerConfirmation",
          "type": "address"
        }
      ],
      "name": "renounceRole",
      "outputs": [],
      "stateMutability": "nonpayable",
      "type": "function"
    },
    {
      "inputs": [
        {
          "internalType": "bytes32",
          "name": "role",
          "type": "bytes32"
        },
        {
          "internalType": "address",
          "name": "account",
          "type": "address"
        }
      ],
      "name": "revokeRole",
      "outputs": [],
      "stateMutability": "nonpayable",
      "type": "function"
    },
    {
      "inputs": [
        {
          "internalType": "bytes4",
          "name": "i",
          "type": "bytes4"
        }
      ],
      "name": "supportsInterface",
      "outputs": [
        {
          "internalType": "bool",
          "name": "",
          "type": "bool"
        }
      ],
      "stateMutability": "view",
      "type": "function"
    },
    {
      "inputs": [],
      "name": "totalProfiles",
      "outputs": [
        {
          "internalType": "uint256",
          "name": "",
          "type": "uint256"
        }
      ],
      "stateMutability": "view",
      "type": "function"
    },
    {
      "inputs": [
        {
          "internalType": "string",
          "name": "",
          "type": "string"
        }
      ],
      "name": "usernameToProfile",
      "outputs": [
        {
          "internalType": "uint256",
          "name": "",
          "type": "uint256"
        }
      ],
      "stateMutability": "view",
      "type": "function"
    },
    {
      "inputs": [],
      "name": "verifiedProfiles",
      "outputs": [
        {
          "internalType": "uint256",
          "name": "",
          "type": "uint256"
        }
      ],
      "stateMutability": "view",
      "type": "function"
    },
    {
      "inputs": [
        {
          "internalType": "uint256",
          "name": "profileId",
          "type": "uint256"
        }
      ],
      "name": "verifyProfile",
      "outputs": [],
      "stateMutability": "nonpayable",
      "type": "function"
    }
  ],
  "bytecode": "0x60806040523462000036576001805562000019336200003b565b506200002533620000bb565b5060405161237b90816200015e8239f35b600080fd5b6001600160a01b031660008181527fad3228b676f7d3cd4284a5443f17f1962b36e491b30a40b2405849e597ba5fb5602052604081205490919060ff16620000b757818052816020526040822081835260205260408220600160ff198254161790553391600080516020620024d98339815191528180a4600190565b5090565b6001600160a01b031660008181527f1da0b5176dfe03406af5a6eed66ca01dda9b45ac4da671c3fa379cb93717ef8160205260408120549091907f0ce23c3e399818cfee81a7ab0880f714e53d7672b08df0fa62f2843416e1ea099060ff166200015857808352826020526040832082845260205260408320600160ff19825416179055600080516020620024d9833981519152339380a4600190565b50509056fe608080604052600436101561001357600080fd5b60003560e01c90816301ffc9a714611de4575080630e7b29bf14611d9d5780630eb5cd1a14611d4057806313b7dfd9146112ac578063235866851461110d578063248a9ca3146110de5780632f2ff15d1461109f57806336568abe14611033578063384b139314610e6a57806349fe18cf14610a13578063550c95331461092f57806372bd81d7146108d8578063794c0594146107125780638e70d3b91461064057806391d14854146105e5578063a217fddf146105c9578063b1eb0a1e14610547578063c36fe3d614610401578063cbdcbef4146103e3578063d19e8b3f14610321578063d2adbe7914610303578063d547741f146102c2578063e501e92e14610268578063e7705db61461022d5763ee2f45001461013257600080fd5b3461022857602080600319360112610228576004356000526008815260406000209081549161016083611f81565b9261016e6040519485611ee4565b8084528284018092600052836000206000915b8383106102065750505050604051918083019381845251809452604083019360408160051b85010192916000955b8287106101bc5785850386f35b9091929382806101f6837fffffffffffffffffffffffffffffffffffffffffffffffffffffffffffffffc08a600196030186528851611ff6565b96019201960195929190926101af565b6001868192610217859a999a61206e565b815201920192019190959495610181565b600080fd5b346102285760006003193601126102285760206040517f0ce23c3e399818cfee81a7ab0880f714e53d7672b08df0fa62f2843416e1ea098152f35b346102285760406003193601126102285773ffffffffffffffffffffffffffffffffffffffff610296611e82565b1660005260096020526040600020602435600052602052602060ff604060002054166040519015158152f35b34610228576040600319360112610228576103016004356102e1611ea5565b908060005260006020526102fc6001604060002001546121d1565b612283565b005b34610228576000600319360112610228576020600b54604051908152f35b346102285761032f36611f99565b90600052600760205260406000209081548110156102285761035091612122565b50805473ffffffffffffffffffffffffffffffffffffffff6001830154169160028101546103d26103836003840161206e565b6103c46103926004860161206e565b9160ff60066005880154970154169460405198899889526020890152604088015260e0606088015260e0870190611ff6565b908582036080870152611ff6565b9160a0840152151560c08301520390f35b34610228576000600319360112610228576020600c54604051908152f35b3461022857602060031936011261022857600435600052600460205260406000208054600182015473ffffffffffffffffffffffffffffffffffffffff16916002810161044d9061206e565b9061045a6003820161206e565b906104676004820161206e565b91600582015460ff1692600683015460078401546008850154600986015491600a87015493600b88015460ff1695600c89015497600d8a015499600e016104ad9061206e565b9b6040519e8f9e8f908152602001528d6101e090816040820152016104d191611ff6565b8d810360608f01526104e291611ff6565b8c810360808e01526104f391611ff6565b9860a08c0161050191612115565b60c08b015260e08a015261010089015261012088015261014087015215156101608601526101808501526101a08401528281036101c084015261054391611ff6565b0390f35b346102285761055536611f99565b90600052600860205260406000209081548110156102285761057691611faf565b61059a576105866105439161206e565b604051918291602083526020830190611ff6565b7f4e487b7100000000000000000000000000000000000000000000000000000000600052600060045260246000fd5b3461022857600060031936011261022857602060405160008152f35b34610228576040600319360112610228576105fe611ea5565b600435600052600060205273ffffffffffffffffffffffffffffffffffffffff60406000209116600052602052602060ff604060002054166040519015158152f35b346102285760208060031936011261022857600435600052600a8152604060002060405190818382549182815201908192600052846000209060005b868282106106e857868661069282880383611ee4565b604051928392818401908285525180915260408401929160005b8281106106bb57505050500390f35b835173ffffffffffffffffffffffffffffffffffffffff16855286955093810193928101926001016106ac565b835473ffffffffffffffffffffffffffffffffffffffff168552909301926001928301920161067c565b3461022857602080600319360112610228576004356000526007908181526040600020805461074081611f81565b9361074e6040519586611ee4565b8185528385018093600052846000206000915b84831061084c57604080518881528951818a01819052600092600582901b83018101918a918c9085015b8287106107985785850386f35b909192938280827fffffffffffffffffffffffffffffffffffffffffffffffffffffffffffffffc089600195030185528751908151815273ffffffffffffffffffffffffffffffffffffffff83830151168382015260408201516040820152610826610813606060e0818601519185015260e0840190611ff6565b6080808501519084830390850152611ff6565b9160a0808201519083015260c0809101511515910152960192019601959291909261078b565b838760019260409a999a5161086081611ec8565b8554815273ffffffffffffffffffffffffffffffffffffffff858701541683820152600286015460408201526108986003870161206e565b60608201526108a96004870161206e565b6080820152600586015460a082015260ff600687015416151560c0820152815201920192019190969596610761565b34610228576108e636611f99565b90600052600a60205260406000209081548110156102285761091f73ffffffffffffffffffffffffffffffffffffffff91602093611faf565b9190546040519260031b1c168152f35b346102285760206003193601126102285760043561094b61213e565b80600052600460205260ff600b60406000200154166109b557806000526004602052600b604060002001600160ff1982541617905561098b600c54612306565b600c557f504a392c5bcad2bc12bb206cade109cdde6f8deb14d75a14cb832f103c02a111600080a2005b60646040517f08c379a000000000000000000000000000000000000000000000000000000000815260206004820152601060248201527f416c7265616479207665726966696564000000000000000000000000000000006044820152fd5b346102285760a060031936011261022857610a2c611e82565b67ffffffffffffffff9060443582811161022857610a4e903690600401611f07565b9060643583811161022857610a67903690600401611f07565b91608435801515809103610228573360005260209260058452604060002054948515610e0c576003610a998154612306565b97888255876000526007875260406000209060405196610ab888611ec8565b8a885288880173ffffffffffffffffffffffffffffffffffffffff80971681526040890190602435825260608a0192835260808a0196875260a08a019742895260c08b01998a52855468010000000000000000811015610d3557610b23906001978882018155612122565b9b909b61059a57518b55858b019151167fffffffffffffffffffffffff0000000000000000000000000000000000000000825416179055516002890155518051828111610d35578489019080610b79835461201b565b93601f948d868211610ddd575b50508c90858311600114610d6f57600092610d64575b505060001982871b92881b1c19161790555b6004880194518051928311610d3557610bc7865461201b565b8a838211610cfc575b505089918311600114610c8457928260069693610c2699969360049c9b9996600093610c77575b50508060001992931b931b1c19161790555b51600584015551151591019060ff60ff1983541691151516179055565b826000528181526008604060002001610c3f8154612306565b9055826000525242600d604060002001557f3e8e193ab31394871e5f7b27b73be524c5faf9b5fcbfcc041228af1f376963bf600080a3005b0151915080600019610bf7565b91929390601f19841692866000528a6000209360005b818110610ce7575092859260069895928460049e9d9b98610c269d9a9710610ccc575b5050505050811b019055610c09565b6000199260f8920151931b161c191690558c80808084610cbd565b82840151865594870194928c01928c01610c9a565b610d25918860005284826000209181880160051c8301938810610d2c575b0160051c0190612315565b8c8a610bd0565b92508192610d1a565b7f4e487b7100000000000000000000000000000000000000000000000000000000600052604160045260246000fd5b015190508e80610b9c565b879350908d918560005282600020926000601f198616915b828210610dbc5750508411610da4575b505050811b019055610bae565b015160001960f8848b1b161c191690558e8080610d97565b91929395968291958786015181550195019301908f918a9695949392610d87565b610e05918660005287826000209181870160051c8301938710610d2c570160051c0190612315565b8f8d610b86565b606485604051907f08c379a00000000000000000000000000000000000000000000000000000000082526004820152600a60248201527f4e6f2070726f66696c65000000000000000000000000000000000000000000006044820152fd5b346102285760208060031936011261022857600435903360005260098152604060002082600052815260ff60406000205416610fd557816000526004815273ffffffffffffffffffffffffffffffffffffffff9033826001604060002001541614610f7757336000526009815260406000208360005281526040600020600160ff19825416179055600a815260406000209182549268010000000000000000841015610d355783610f22916001600496018155611faf565b819291549060031b9133831b921b191617905582600052526009604060002001610f4c8154612306565b905533907f46ae33920c2e2c9e76c2c4b708137281eab6593b7322a69e8011b669753de6c7600080a3005b606490604051907f08c379a00000000000000000000000000000000000000000000000000000000082526004820152601260248201527f43616e6e6f7420666f6c6c6f772073656c6600000000000000000000000000006044820152fd5b606490604051907f08c379a00000000000000000000000000000000000000000000000000000000082526004820152601160248201527f416c726561647920666f6c6c6f77696e670000000000000000000000000000006044820152fd5b346102285760406003193601126102285761104c611ea5565b3373ffffffffffffffffffffffffffffffffffffffff8216036110755761030190600435612283565b60046040517f6697b232000000000000000000000000000000000000000000000000000000008152fd5b34610228576040600319360112610228576103016004356110be611ea5565b908060005260006020526110d96001604060002001546121d1565b6121f7565b346102285760206003193601126102285760043560005260006020526020600160406000200154604051908152f35b346102285761111b36611f99565b61112361213e565b81600052600460205260406000206006810161113f8154612306565b90556007810191825490810180911161127d57600a925501805490600a820180921161127d57558060005260046020526040600020600581019060ff8254169060078291015468056bc75e2d631000008110156000146112335750600491505b6005811015611204576005821015611204578082036111ba57005b611201826111eb6040947f57ceb88011b120a0441a16383dc232e775510168ab27978582d21c610a6e42479661232c565b6111f784518094612115565b6020830190612115565ba2005b7f4e487b7100000000000000000000000000000000000000000000000000000000600052602160045260246000fd5b678ac7230489e80000811061124d5750600391505b61119f565b670de0b6b3a7640000811061126657506002915061119f565b67016345785d8a000011611248576001915061119f565b7f4e487b7100000000000000000000000000000000000000000000000000000000600052601160045260246000fd5b346102285760a06003193601126102285760043567ffffffffffffffff8111610228576112dd903690600401611f07565b60243567ffffffffffffffff8111610228576112fd903690600401611f07565b9060443567ffffffffffffffff81116102285761131e903690600401611f07565b906064359267ffffffffffffffff841161022857366023850112156102285783600401359061134c82611f81565b9461135a6040519687611ee4565b82865260208601906024829460051b820101903682116102285760248101925b828410611d10575050505060843567ffffffffffffffff8111610228576113a5903690600401611f07565b336000526005602052604060002054611cb25760405160208186516113cd8183858b01611f5e565b8101600681520301902054611c54576003845110611bf6576113f0600254612306565b948560025560405192836101e081011067ffffffffffffffff6101e086011117610d35576101e0840160405286845233602085015285604085015260608401526080830152600060a0830152600060c0830152600060e0830152600061010083015260006101208301526064610140830152600061016083015242610180830152426101a08301526101c0820152836000526004602052604060002090805182556001820173ffffffffffffffffffffffffffffffffffffffff6020830151167fffffffffffffffffffffffff0000000000000000000000000000000000000000825416179055604081015180519067ffffffffffffffff8211610d355781906114fd600286015461201b565b601f8111611bc1575b50602090601f8311600114611b4f57600092611b44575b50506000198260011b9260031b1c19161760028301555b606081015180519067ffffffffffffffff8211610d3557819061155a600386015461201b565b601f8111611b0f575b50602090601f8311600114611a9d57600092611a92575b50506000198260011b9260031b1c19161760038301555b608081015180519067ffffffffffffffff8211610d355781906115b7600486015461201b565b601f8111611a5d575b50602090601f83116001146119eb576000926119e0575b50506000198260011b9260031b1c19161760048301555b60a08101519060058210156112045761160d6101c0926005850161232c565b60c0810151600684015560e0810151600784015561010081015160088401556101208101516009840155610140810151600a8401556116636101608201511515600b85019060ff60ff1983541691151516179055565b610180810151600c8401556101a0810151600d840155015180519067ffffffffffffffff8211610d355761169a600e84015461201b565b601f81116119ab575b50602090601f831160011461193b57600e929160009183611930575b50506000198260011b9260031b1c1916179101555b8260005260086020526040600020935190680100000000000000008211610d355784548286558083106118bb575b50936000526020600020936000905b82821061179b576020858533600052600583528160406000205581604051848184516117408183858901611f5e565b8101600681520301902055611756600b54612306565b600b55817f64849d9017ccd37161417597e9733299a671f98dcb0907422672a2e159eb121760405185815280611790339588830190611ff6565b0390a3604051908152f35b805180519067ffffffffffffffff8211610d35576117b9885461201b565b601f811161187e575b50602090601f831160011461180e579282600194936020938695600092611803575b505060001982861b9260031b1c19161789555b01960191019094611711565b015190508b806117e4565b908860005260206000209160005b601f19851681106118665750836020936001969387969383601f198996161061184d575b505050811b0189556117f7565b015160001960f88460031b161c191690558b8080611840565b9192602060018192868501518155019401920161181c565b6118ab90896000526020600020601f850160051c810191602086106118b1575b601f0160051c0190612315565b886117c2565b909150819061189e565b856000526020600020908382015b81830181106118d9575050611702565b806118e66001925461201b565b806118f3575b50016118c9565b601f811183146119095750600081555b896118ec565b600090828252611927601f60208420920160051c8201858301612315565b81835555611903565b0151905088806116bf565b90600e840160005260206000209160005b601f1985168110611993575091839160019383601f19600e97161061197a575b505050811b019101556116d4565b015160001960f88460031b161c1916905588808061196c565b9192602060018192868501518155019401920161194c565b6119da90600e85016000526020600020601f850160051c810191602086106118b157601f0160051c0190612315565b876116a3565b0151905088806115d7565b9250600485016000526020600020906000935b601f1984168510611a42576001945083601f19811610611a29575b505050811b0160048301556115ee565b015160001960f88460031b161c19169055888080611a19565b818101518355602094850194600190930192909101906119fe565b611a8c90600487016000526020600020601f850160051c810191602086106118b157601f0160051c0190612315565b896115c0565b01519050888061157a565b9250600385016000526020600020906000935b601f1984168510611af4576001945083601f19811610611adb575b505050811b016003830155611591565b015160001960f88460031b161c19169055888080611acb565b81810151835560209485019460019093019290910190611ab0565b611b3e90600387016000526020600020601f850160051c810191602086106118b157601f0160051c0190612315565b89611563565b01519050888061151d565b9250600285016000526020600020906000935b601f1984168510611ba6576001945083601f19811610611b8d575b505050811b016002830155611534565b015160001960f88460031b161c19169055888080611b7d565b81810151835560209485019460019093019290910190611b62565b611bf090600287016000526020600020601f850160051c810191602086106118b157601f0160051c0190612315565b89611506565b60646040517f08c379a000000000000000000000000000000000000000000000000000000000815260206004820152601260248201527f557365726e616d6520746f6f2073686f727400000000000000000000000000006044820152fd5b60646040517f08c379a000000000000000000000000000000000000000000000000000000000815260206004820152600e60248201527f557365726e616d652074616b656e0000000000000000000000000000000000006044820152fd5b60646040517f08c379a000000000000000000000000000000000000000000000000000000000815260206004820152601360248201527f416c7265616479206861732070726f66696c65000000000000000000000000006044820152fd5b833567ffffffffffffffff811161022857602091611d35839260243691870101611f07565b81520193019261137a565b346102285760206003193601126102285760043567ffffffffffffffff811161022857611d8a6020611d7781933690600401611f07565b8160405193828580945193849201611f5e565b8101600681520301902054604051908152f35b346102285760206003193601126102285773ffffffffffffffffffffffffffffffffffffffff611dcb611e82565b1660005260056020526020604060002054604051908152f35b3461022857602060031936011261022857600435907fffffffff00000000000000000000000000000000000000000000000000000000821680920361022857817f7965db0b0000000000000000000000000000000000000000000000000000000060209314908115611e58575b5015158152f35b7f01ffc9a70000000000000000000000000000000000000000000000000000000091501483611e51565b6004359073ffffffffffffffffffffffffffffffffffffffff8216820361022857565b6024359073ffffffffffffffffffffffffffffffffffffffff8216820361022857565b60e0810190811067ffffffffffffffff821117610d3557604052565b90601f601f19910116810190811067ffffffffffffffff821117610d3557604052565b81601f820112156102285780359067ffffffffffffffff8211610d355760405192611f3c6020601f19601f8601160185611ee4565b8284526020838301011161022857816000926020809301838601378301015290565b60005b838110611f715750506000910152565b8181015183820152602001611f61565b67ffffffffffffffff8111610d355760051b60200190565b6003196040910112610228576004359060243590565b8054821015611fc75760005260206000200190600090565b7f4e487b7100000000000000000000000000000000000000000000000000000000600052603260045260246000fd5b90601f19601f60209361201481518092818752878088019101611f5e565b0116010190565b90600182811c92168015612064575b602083101461203557565b7f4e487b7100000000000000000000000000000000000000000000000000000000600052602260045260246000fd5b91607f169161202a565b90604051918260008254926120828461201b565b9081845260019485811690816000146120f157506001146120ae575b50506120ac92500383611ee4565b565b9093915060005260209081600020936000915b8183106120d95750506120ac9350820101388061209e565b855488840185015294850194879450918301916120c1565b90506120ac95506020935060ff1991501682840152151560051b820101388061209e565b9060058210156112045752565b8054821015611fc7576000526007602060002091020190600090565b3360009081527f1da0b5176dfe03406af5a6eed66ca01dda9b45ac4da671c3fa379cb93717ef8160205260409020547f0ce23c3e399818cfee81a7ab0880f714e53d7672b08df0fa62f2843416e1ea099060ff161561219a5750565b604490604051907fe2517d3f0000000000000000000000000000000000000000000000000000000082523360048301526024820152fd5b80600052600060205260406000203360005260205260ff604060002054161561219a5750565b906000918083528260205273ffffffffffffffffffffffffffffffffffffffff6040842092169182845260205260ff6040842054161560001461227e57808352826020526040832082845260205260408320600160ff198254161790557f2f8788117e7eff1d82e926ec794901d17c78024a50270940304540a733656f0d339380a4600190565b505090565b906000918083528260205273ffffffffffffffffffffffffffffffffffffffff6040842092169182845260205260ff60408420541660001461227e5780835282602052604083208284526020526040832060ff1981541690557ff6391f5c32d9c69d2a47ea670b442974b53935d1edc7fd64eb21e047a839171b339380a4600190565b600019811461127d5760010190565b818110612320575050565b60008155600101612315565b9060058110156112045760ff60ff19835416911617905556fea26469706673582212208853ed3f17f32e8c5cbeb4dd316d91470ada47ec69f5a59798b3142322dc242464736f6c634300081400332f8788117e7eff1d82e926ec794901d17c78024a50270940304540a733656f0d",
  "linkReferences": {},
  "deployedLinkReferences": {}
}