{
  "_format": "hh-sol-artifact-1",
  "contractName": "ToolLicensing",
  "sourceName": "contracts/layer6/tools/ToolLicensing.sol",
  "abi": [
    {
      "inputs": [
        {
          "internalType": "address",
          "name": "_treasury",
          "type": "address"
        }
      ],
      "stateMutability": "nonpayable",
      "type": "constructor"
    },
    {
      "inputs": [],
      "name": "AccessControlBadConfirmation",
      "type": "error"
    },
    {
      "inputs": [
        {
          "internalType": "address",
          "name": "account",
          "type": "address"
        },
        {
          "internalType": "bytes32",
          "name": "neededRole",
          "type": "bytes32"
        }
      ],
      "name": "AccessControlUnauthorizedAccount",
      "type": "error"
    },
    {
      "inputs": [],
      "name": "ReentrancyGuardReentrantCall",
      "type": "error"
    },
    {
      "anonymous": false,
      "inputs": [
        {
          "indexed": true,
          "internalType": "uint256",
          "name": "licenseId",
          "type": "uint256"
        },
        {
          "indexed": true,
          "internalType": "uint256",
          "name": "templateId",
          "type": "uint256"
        },
        {
          "indexed": true,
          "internalType": "address",
          "name": "licensee",
          "type": "address"
        }
      ],
      "name": "LicenseGranted",
      "type": "event"
    },
    {
      "anonymous": false,
      "inputs": [
        {
          "indexed": true,
          "internalType": "uint256",
          "name": "licenseId",
          "type": "uint256"
        },
        {
          "indexed": false,
          "internalType": "string",
          "name": "reason",
          "type": "string"
        }
      ],
      "name": "LicenseRevoked",
      "type": "event"
    },
    {
      "anonymous": false,
      "inputs": [
        {
          "indexed": true,
          "internalType": "bytes32",
          "name": "role",
          "type": "bytes32"
        },
        {
          "indexed": true,
          "internalType": "bytes32",
          "name": "previousAdminRole",
          "type": "bytes32"
        },
        {
          "indexed": true,
          "internalType": "bytes32",
          "name": "newAdminRole",
          "type": "bytes32"
        }
      ],
      "name": "RoleAdminChanged",
      "type": "event"
    },
    {
      "anonymous": false,
      "inputs": [
        {
          "indexed": true,
          "internalType": "bytes32",
          "name": "role",
          "type": "bytes32"
        },
        {
          "indexed": true,
          "internalType": "address",
          "name": "account",
          "type": "address"
        },
        {
          "indexed": true,
          "internalType": "address",
          "name": "sender",
          "type": "address"
        }
      ],
      "name": "RoleGranted",
      "type": "event"
    },
    {
      "anonymous": false,
      "inputs": [
        {
          "indexed": true,
          "internalType": "bytes32",
          "name": "role",
          "type": "bytes32"
        },
        {
          "indexed": true,
          "internalType": "address",
          "name": "account",
          "type": "address"
        },
        {
          "indexed": true,
          "internalType": "address",
          "name": "sender",
          "type": "address"
        }
      ],
      "name": "RoleRevoked",
      "type": "event"
    },
    {
      "anonymous": false,
      "inputs": [
        {
          "indexed": true,
          "internalType": "uint256",
          "name": "templateId",
          "type": "uint256"
        },
        {
          "indexed": true,
          "internalType": "uint256",
          "name": "toolId",
          "type": "uint256"
        },
        {
          "indexed": false,
          "internalType": "enum ToolLicensing.LicenseModel",
          "name": "model",
          "type": "uint8"
        },
        {
          "indexed": false,
          "internalType": "uint256",
          "name": "price",
          "type": "uint256"
        }
      ],
      "name": "TemplateCreated",
      "type": "event"
    },
    {
      "anonymous": false,
      "inputs": [
        {
          "indexed": true,
          "internalType": "uint256",
          "name": "licenseId",
          "type": "uint256"
        },
        {
          "indexed": false,
          "internalType": "uint256",
          "name": "totalUsage",
          "type": "uint256"
        }
      ],
      "name": "UsageRecorded",
      "type": "event"
    },
    {
      "inputs": [],
      "name": "DEFAULT_ADMIN_ROLE",
      "outputs": [
        {
          "internalType": "bytes32",
          "name": "",
          "type": "bytes32"
        }
      ],
      "stateMutability": "view",
      "type": "function"
    },
    {
      "inputs": [],
      "name": "LICENSOR_ROLE",
      "outputs": [
        {
          "internalType": "bytes32",
          "name": "",
          "type": "bytes32"
        }
      ],
      "stateMutability": "view",
      "type": "function"
    },
    {
      "inputs": [
        {
          "internalType": "uint256",
          "name": "templateId",
          "type": "uint256"
        }
      ],
      "name": "acquireLicense",
      "outputs": [
        {
          "internalType": "uint256",
          "name": "",
          "type": "uint256"
        }
      ],
      "stateMutability": "payable",
      "type": "function"
    },
    {
      "inputs": [
        {
          "internalType": "address",
          "name": "",
          "type": "address"
        },
        {
          "internalType": "uint256",
          "name": "",
          "type": "uint256"
        }
      ],
      "name": "activeLicense",
      "outputs": [
        {
          "internalType": "uint256",
          "name": "",
          "type": "uint256"
        }
      ],
      "stateMutability": "view",
      "type": "function"
    },
    {
      "inputs": [
        {
          "internalType": "uint256",
          "name": "toolId",
          "type": "uint256"
        },
        {
          "internalType": "enum ToolLicensing.LicenseModel",
          "name": "model",
          "type": "uint8"
        },
        {
          "internalType": "enum ToolLicensing.UsageScope",
          "name": "scope",
          "type": "uint8"
        },
        {
          "internalType": "uint256",
          "name": "price",
          "type": "uint256"
        },
        {
          "internalType": "uint256",
          "name": "maxUsers",
          "type": "uint256"
        },
        {
          "internalType": "uint256",
          "name": "maxUsagePerDay",
          "type": "uint256"
        },
        {
          "internalType": "bool",
          "name": "allowSublicensing",
          "type": "bool"
        },
        {
          "internalType": "bool",
          "name": "allowModification",
          "type": "bool"
        },
        {
          "internalType": "string",
          "name": "termsURI",
          "type": "string"
        },
        {
          "internalType": "uint256",
          "name": "royaltyBps",
          "type": "uint256"
        }
      ],
      "name": "createTemplate",
      "outputs": [
        {
          "internalType": "uint256",
          "name": "",
          "type": "uint256"
        }
      ],
      "stateMutability": "nonpayable",
      "type": "function"
    },
    {
      "inputs": [
        {
          "internalType": "address",
          "name": "licensee",
          "type": "address"
        }
      ],
      "name": "getLicenseeHistory",
      "outputs": [
        {
          "internalType": "uint256[]",
          "name": "",
          "type": "uint256[]"
        }
      ],
      "stateMutability": "view",
      "type": "function"
    },
    {
      "inputs": [
        {
          "internalType": "bytes32",
          "name": "role",
          "type": "bytes32"
        }
      ],
      "name": "getRoleAdmin",
      "outputs": [
        {
          "internalType": "bytes32",
          "name": "",
          "type": "bytes32"
        }
      ],
      "stateMutability": "view",
      "type": "function"
    },
    {
      "inputs": [
        {
          "internalType": "bytes32",
          "name": "role",
          "type": "bytes32"
        },
        {
          "internalType": "address",
          "name": "account",
          "type": "address"
        }
      ],
      "name": "grantRole",
      "outputs": [],
      "stateMutability": "nonpayable",
      "type": "function"
    },
    {
      "inputs": [
        {
          "internalType": "bytes32",
          "name": "role",
          "type": "bytes32"
        },
        {
          "internalType": "address",
          "name": "account",
          "type": "address"
        }
      ],
      "name": "hasRole",
      "outputs": [
        {
          "internalType": "bool",
          "name": "",
          "type": "bool"
        }
      ],
      "stateMutability": "view",
      "type": "function"
    },
    {
      "inputs": [
        {
          "internalType": "address",
          "name": "user",
          "type": "address"
        },
        {
          "internalType": "uint256",
          "name": "toolId",
          "type": "uint256"
        }
      ],
      "name": "isLicenseValid",
      "outputs": [
        {
          "internalType": "bool",
          "name": "",
          "type": "bool"
        }
      ],
      "stateMutability": "view",
      "type": "function"
    },
    {
      "inputs": [
        {
          "internalType": "address",
          "name": "",
          "type": "address"
        },
        {
          "internalType": "uint256",
          "name": "",
          "type": "uint256"
        }
      ],
      "name": "licenseeLicenses",
      "outputs": [
        {
          "internalType": "uint256",
          "name": "",
          "type": "uint256"
        }
      ],
      "stateMutability": "view",
      "type": "function"
    },
    {
      "inputs": [
        {
          "internalType": "uint256",
          "name": "",
          "type": "uint256"
        }
      ],
      "name": "licenses",
      "outputs": [
        {
          "internalType": "uint256",
          "name": "licenseId",
          "type": "uint256"
        },
        {
          "internalType": "uint256",
          "name": "templateId",
          "type": "uint256"
        },
        {
          "internalType": "uint256",
          "name": "toolId",
          "type": "uint256"
        },
        {
          "internalType": "address",
          "name": "licensee",
          "type": "address"
        },
        {
          "internalType": "enum ToolLicensing.UsageScope",
          "name": "scope",
          "type": "uint8"
        },
        {
          "internalType": "uint256",
          "name": "grantedAt",
          "type": "uint256"
        },
        {
          "internalType": "uint256",
          "name": "expiresAt",
          "type": "uint256"
        },
        {
          "internalType": "uint256",
          "name": "usageCount",
          "type": "uint256"
        },
        {
          "internalType": "uint256",
          "name": "maxUsage",
          "type": "uint256"
        },
        {
          "internalType": "bool",
          "name": "isActive",
          "type": "bool"
        },
        {
          "internalType": "bool",
          "name": "isSublicense",
          "type": "bool"
        },
        {
          "internalType": "address",
          "name": "sublicensedFrom",
          "type": "address"
        }
      ],
      "stateMutability": "view",
      "type": "function"
    },
    {
      "inputs": [
        {
          "internalType": "address",
          "name": "",
          "type": "address"
        },
        {
          "internalType": "uint256",
          "name": "",
          "type": "uint256"
        }
      ],
      "name": "licensorTemplates",
      "outputs": [
        {
          "internalType": "uint256",
          "name": "",
          "type": "uint256"
        }
      ],
      "stateMutability": "view",
      "type": "function"
    },
    {
      "inputs": [],
      "name": "platformFeeBps",
      "outputs": [
        {
          "internalType": "uint256",
          "name": "",
          "type": "uint256"
        }
      ],
      "stateMutability": "view",
      "type": "function"
    },
    {
      "inputs": [
        {
          "internalType": "uint256",
          "name": "licenseId",
          "type": "uint256"
        }
      ],
      "name": "recordUsage",
      "outputs": [],
      "stateMutability": "nonpayable",
      "type": "function"
    },
    {
      "inputs": [
        {
          "internalType": "bytes32",
          "name": "role",
          "type": "bytes32"
        },
        {
          "internalType": "address",
          "name": "callerConfirmation",
          "type": "address"
        }
      ],
      "name": "renounceRole",
      "outputs": [],
      "stateMutability": "nonpayable",
      "type": "function"
    },
    {
      "inputs": [
        {
          "internalType": "uint256",
          "name": "licenseId",
          "type": "uint256"
        },
        {
          "internalType": "string",
          "name": "reason",
          "type": "string"
        }
      ],
      "name": "revokeLicense",
      "outputs": [],
      "stateMutability": "nonpayable",
      "type": "function"
    },
    {
      "inputs": [
        {
          "internalType": "bytes32",
          "name": "role",
          "type": "bytes32"
        },
        {
          "internalType": "address",
          "name": "account",
          "type": "address"
        }
      ],
      "name": "revokeRole",
      "outputs": [],
      "stateMutability": "nonpayable",
      "type": "function"
    },
    {
      "inputs": [
        {
          "internalType": "bytes4",
          "name": "i",
          "type": "bytes4"
        }
      ],
      "name": "supportsInterface",
      "outputs": [
        {
          "internalType": "bool",
          "name": "",
          "type": "bool"
        }
      ],
      "stateMutability": "view",
      "type": "function"
    },
    {
      "inputs": [
        {
          "internalType": "uint256",
          "name": "",
          "type": "uint256"
        }
      ],
      "name": "templates",
      "outputs": [
        {
          "internalType": "uint256",
          "name": "templateId",
          "type": "uint256"
        },
        {
          "internalType": "uint256",
          "name": "toolId",
          "type": "uint256"
        },
        {
          "internalType": "address",
          "name": "licensor",
          "type": "address"
        },
        {
          "internalType": "enum ToolLicensing.LicenseModel",
          "name": "model",
          "type": "uint8"
        },
        {
          "internalType": "enum ToolLicensing.UsageScope",
          "name": "scope",
          "type": "uint8"
        },
        {
          "internalType": "uint256",
          "name": "price",
          "type": "uint256"
        },
        {
          "internalType": "uint256",
          "name": "maxUsers",
          "type": "uint256"
        },
        {
          "internalType": "uint256",
          "name": "maxUsagePerDay",
          "type": "uint256"
        },
        {
          "internalType": "bool",
          "name": "allowSublicensing",
          "type": "bool"
        },
        {
          "internalType": "bool",
          "name": "allowModification",
          "type": "bool"
        },
        {
          "internalType": "string",
          "name": "termsURI",
          "type": "string"
        },
        {
          "internalType": "uint256",
          "name": "royaltyBps",
          "type": "uint256"
        },
        {
          "internalType": "bool",
          "name": "isActive",
          "type": "bool"
        },
        {
          "internalType": "uint256",
          "name": "totalLicensed",
          "type": "uint256"
        }
      ],
      "stateMutability": "view",
      "type": "function"
    },
    {
      "inputs": [
        {
          "internalType": "uint256",
          "name": "",
          "type": "uint256"
        },
        {
          "internalType": "uint256",
          "name": "",
          "type": "uint256"
        }
      ],
      "name": "toolLicenses",
      "outputs": [
        {
          "internalType": "uint256",
          "name": "",
          "type": "uint256"
        }
      ],
      "stateMutability": "view",
      "type": "function"
    },
    {
      "inputs": [],
      "name": "totalLicenses",
      "outputs": [
        {
          "internalType": "uint256",
          "name": "",
          "type": "uint256"
        }
      ],
      "stateMutability": "view",
      "type": "function"
    },
    {
      "inputs": [],
      "name": "totalRevenue",
      "outputs": [
        {
          "internalType": "uint256",
          "name": "",
          "type": "uint256"
        }
      ],
      "stateMutability": "view",
      "type": "function"
    },
    {
      "inputs": [],
      "name": "treasury",
      "outputs": [
        {
          "internalType": "address",
          "name": "",
          "type": "address"
        }
      ],
      "stateMutability": "view",
      "type": "function"
    }
  ],
  "bytecode": "0x6080346200009c57601f62001e0338819003918201601f19168301916001600160401b03831184841017620000a1578084926020946040528339810103126200009c57516001600160a01b038116908190036200009c576001805561012c600b55600a80546001600160a01b0319169190911790556200007f33620000b7565b506200008b3362000137565b50604051611c099081620001da8239f35b600080fd5b634e487b7160e01b600052604160045260246000fd5b6001600160a01b031660008181527fad3228b676f7d3cd4284a5443f17f1962b36e491b30a40b2405849e597ba5fb5602052604081205490919060ff166200013357818052816020526040822081835260205260408220600160ff19825416179055339160008051602062001de38339815191528180a4600190565b5090565b6001600160a01b031660008181527f711657b7969f2eb6672a04e3940c5480c3f41e1700ad6e3cd68d833e50ec13ec60205260408120549091907f796c2663e84ce018b4ce2b48196e6c9498a80924ff3c2ce80607cc4ce84bf56a9060ff16620001d457808352826020526040832082845260205260408320600160ff1982541617905560008051602062001de3833981519152339380a4600190565b50509056fe608080604052600436101561001357600080fd5b60003560e01c90816301ffc9a71461163657508063025434871461111e5780630780aaf2146110e55780630be6e2c614610fec5780630e80a28714610fce578063197c461914610f9d57806322dcd13e14610f7f578063248a9ca314610f505780632f2ff15d14610f11578063320e279514610d1b5780633379084514610c4a57806334da52c214610bf557806336568abe14610b895780635649468114610b3457806356f69fba14610a7357806361d027b314610a3f5780638422c5e1146109dc57806391d1485414610981578063a217fddf14610965578063b9225afb14610364578063bc525652146101c6578063bf2d9e0b146101a8578063d547741f146101675763f718fef01461012757600080fd5b346101625760006003193601126101625760206040517f796c2663e84ce018b4ce2b48196e6c9498a80924ff3c2ce80607cc4ce84bf56a8152f35b600080fd5b34610162576040600319360112610162576101a6600435610186611811565b908060005260006020526101a16001604060002001546118ff565b6119b1565b005b34610162576000600319360112610162576020600d54604051908152f35b34610162576020806003193601126101625760043560005260048152604060002080549060019081810154908460028201549360038301546004840154600585015491600686015493600787019060405196879260009281549161022983611841565b80875292828116908115610346575060011461030b575b505050500361024f90866116f1565b600886015497600987015460ff1696600a0154976040519b8c9b8c528b015273ffffffffffffffffffffffffffffffffffffffff811660408b015260608a018160a01c60ff169061029f91611894565b60808a019060a81c60ff16906102b491611834565b60a089015260c088015260e087015260ff8116151561010087015260081c60ff1615156101208601526101c08061014087015285016102f2916118a1565b9261016085015215156101808401526101a08301520390f35b6000908152838120939450925b82841061032e575050508201018b8d8080610240565b80549584018501959095528994928401928101610318565b60ff191687860152505050151560051b83010190508b8d8080610240565b60206003193601126101625760043560026001541461093b57600260015580600052600460205260406000209060ff600983015416156108dd576003820154341061087f5760048201548015908115610871575b501561081357600060ff600284015460a01c16600681101561077f57600181036107ca57505062278d00915b6103ef600354611a34565b928360035560018201549060028301549080156000146107ba57506000905b60ff8160a01c1691600683101561077f5760ff926003036107ae5761045f836001935b6040519661043e886116d4565b8a8852896020890152604088015233606088015260a81c1660808601611a61565b4260a085015260c0840152600060e084015216610100820152600161012082015260006101408201526000610160820152836000526005602052604060002081518155602082015160018201556040820151600282015573ffffffffffffffffffffffffffffffffffffffff60608301511690600381015490608084015191600483101561077f57610160937fffffffffffffffffffffff00000000000000000000000000000000000000000074ff000000000000000000000000000000000000000060089560a01b1692161717600382015560a0840151600482015560c0840151600582015560e084015160068201556101008401516007820155019161057b6101208201511515849060ff60ff1983541691151516179055565b61014081015183547fffffffffffffffffffffffffffffffffffffffffffffffffffffffffffff00ff1690151560081b61ff001617835501517fffffffffffffffffffff0000000000000000000000000000000000000000ffff75ffffffffffffffffffffffffffffffffffffffff000083549260101b16911617905533600052600760205261060f836040600020611a6d565b6001810154600052600860205261062a836040600020611a6d565b3360005260096020526040600020600182015460005260205282604060002055600a81016106588154611a34565b9055600b548034029034820414341517156107475761271090049060008080808573ffffffffffffffffffffffffffffffffffffffff600a5416828215610776575bf11561073257600273ffffffffffffffffffffffffffffffffffffffff9101541681340390348211610747576000928392839283928390341461073e575bf115610732576020916106ec600c54611a34565b600c556106fb34600d54611ac4565b600d55604051913390827fc3488548591b23e36ab69f351a6ccd625e3cb6926a57eb53648c54563b8d7520600080a4600180558152f35b6040513d6000823e3d90fd5b506108fc6106d8565b7f4e487b7100000000000000000000000000000000000000000000000000000000600052601160045260246000fd5b506108fc61069a565b7f4e487b7100000000000000000000000000000000000000000000000000000000600052602160045260246000fd5b61045f83600093610431565b6107c49042611ac4565b9061040e565b600281036107df5750506301e13380916103e4565b9092907ffffffffffffffffffffffffffffffffffffffffffffffffffffffffffffffffd016103e4576201518092506103e4565b60646040517f08c379a000000000000000000000000000000000000000000000000000000000815260206004820152601560248201527f4c6963656e7365206c696d6974207265616368656400000000000000000000006044820152fd5b9050600a83015410836103b8565b60646040517f08c379a000000000000000000000000000000000000000000000000000000000815260206004820152601460248201527f496e73756666696369656e74207061796d656e740000000000000000000000006044820152fd5b60646040517f08c379a000000000000000000000000000000000000000000000000000000000815260206004820152601360248201527f54656d706c617465206e6f7420616374697665000000000000000000000000006044820152fd5b60046040517f3ee5aeb5000000000000000000000000000000000000000000000000000000008152fd5b3461016257600060031936011261016257602060405160008152f35b346101625760406003193601126101625761099a611811565b600435600052600060205273ffffffffffffffffffffffffffffffffffffffff60406000209116600052602052602060ff604060002054166040519015158152f35b34610162576040600319360112610162576109f56117ee565b73ffffffffffffffffffffffffffffffffffffffff602435911660005260066020526040600020805482101561016257602091610a31916117a7565b90546040519160031b1c8152f35b3461016257600060031936011261016257602073ffffffffffffffffffffffffffffffffffffffff600a5416604051908152f35b34610162576020806003193601126101625773ffffffffffffffffffffffffffffffffffffffff610aa26117ee565b1660005260078152604060002060405190818382549182815201908192600052846000209060005b86828210610b20578686610ae0828803836116f1565b604051928392818401908285525180915260408401929160005b828110610b0957505050500390f35b835185528695509381019392810192600101610afa565b835485529093019260019283019201610aca565b3461016257604060031936011261016257610b4d6117ee565b73ffffffffffffffffffffffffffffffffffffffff602435911660005260076020526040600020805482101561016257602091610a31916117a7565b3461016257604060031936011261016257610ba2611811565b3373ffffffffffffffffffffffffffffffffffffffff821603610bcb576101a6906004356119b1565b60046040517f6697b232000000000000000000000000000000000000000000000000000000008152fd5b346101625760406003193601126101625773ffffffffffffffffffffffffffffffffffffffff610c236117ee565b16600052600960205260406000206024356000526020526020604060002054604051908152f35b34610162576020600319360112610162576004356000526005602052610180604060002080549060018101546002820154916003810154926004820154600583015490600684015492600860078601549501549560405198895260208901526040880152610cdf73ffffffffffffffffffffffffffffffffffffffff9687811660608a015260ff60808a019160a01c16611834565b60a087015260c086015260e085015261010084015260ff8116151561012084015260ff8160081c16151561014084015260101c16610160820152f35b3461016257602080600319360112610162576004357f796c2663e84ce018b4ce2b48196e6c9498a80924ff3c2ce80607cc4ce84bf56a8060005260008352604060002033600052835260ff6040600020541615610eda57508060005260058252604060002091600883019283549360ff851615610e7c5760058201548015908115610e71575b5015610e13577f707119bc88c0e9279c997ac2f2c85a8c86d42e04c1a6791fb347fb46ce480527939460076006840193610ddb8554611a34565b80955501548015159081610e08575b50610dfb575b5050604051908152a2005b60ff191690558480610df0565b905083101587610dea565b606483604051907f08c379a00000000000000000000000000000000000000000000000000000000082526004820152600760248201527f45787069726564000000000000000000000000000000000000000000000000006044820152fd5b905042111586610da1565b606483604051907f08c379a00000000000000000000000000000000000000000000000000000000082526004820152600860248201527f496e6163746976650000000000000000000000000000000000000000000000006044820152fd5b604490604051907fe2517d3f0000000000000000000000000000000000000000000000000000000082523360048301526024820152fd5b34610162576040600319360112610162576101a6600435610f30611811565b90806000526000602052610f4b6001604060002001546118ff565b611925565b346101625760206003193601126101625760043560005260006020526020600160406000200154604051908152f35b34610162576000600319360112610162576020600b54604051908152f35b34610162576040600319360112610162576020610fc4610fbb6117ee565b60243590611ad1565b6040519015158152f35b34610162576000600319360112610162576020600c54604051908152f35b346101625760406003193601126101625760043560243567ffffffffffffffff811161016257611020903690600401611732565b3360009081527fad3228b676f7d3cd4284a5443f17f1962b36e491b30a40b2405849e597ba5fb5602052604090205460ff16156110ae576110a97f6ee3b31d44997c648df5e90862e4a006388f62a5305fc479c0d13958d1926a0691836000526005602052600860406000200160ff1981541690556040519182916020835260208301906118a1565b0390a2005b60446040517fe2517d3f00000000000000000000000000000000000000000000000000000000815233600482015260006024820152fd5b346101625760406003193601126101625760243560043560005260086020526040600020805482101561016257602091610a31916117a7565b3461016257610140600319360112610162576006602435101561016257600460443510156101625760c43580151581036101625760e4358015158103610162576101043567ffffffffffffffff81116101625761117f903690600401611732565b606435151580611627575b156115c95761119a600254611a34565b9182600255604051936101c0850185811067ffffffffffffffff82111761159a57604052838552600435602086015233604086015260243560608601526111e660443560808701611a61565b60643560a086015260843560c086015260a43560e08601521515610100850152151561012084015261014083015261012435610160830152600161018083015260006101a08301528060005260046020526040600020825181556020830151600182015573ffffffffffffffffffffffffffffffffffffffff6040840151166002820154606085015191600683101561077f576080860151600481101561077f5774ff000000000000000000000000000000000000000075ff0000000000000000000000000000000000000000007fffffffffffffffffffff000000000000000000000000000000000000000000009260a81b169460a01b169216171717600282015560a0830151600382015560c0830151600482015560e083015160058201556113656006820161132c6101008601511515829060ff60ff1983541691151516179055565b61012085015181547fffffffffffffffffffffffffffffffffffffffffffffffffffffffffffff00ff1690151560081b61ff0016179055565b61014083015192835167ffffffffffffffff811161159a5761138a6007840154611841565b94601f8611611553575b602095508590601f8311600114611485579180600a94926101a09460009261147a575b50507fffffffffffffffffffffffffffffffffffffffffffffffffffffffffffffffff8260011b9260031b1c19161760078501555b61016081015160088501556114186101808201511515600986019060ff60ff1983541691151516179055565b01519101553360005260068252611433816040600020611a6d565b60405161144281602435611894565b60643583820152817fa325c28fbc67c3b9e336dfc3f086461477545c84f049f4f59ff1d12cf8a79a0e604060043593a3604051908152f35b0151905088806113b7565b9060078501600052866000209160005b7fffffffffffffffffffffffffffffffffffffffffffffffffffffffffffffffe08516811061153c575092600a94926001926101a095837fffffffffffffffffffffffffffffffffffffffffffffffffffffffffffffffe0811610611505575b505050811b0160078501556113ec565b01517fffffffffffffffffffffffffffffffffffffffffffffffffffffffffffffffff60f88460031b161c191690558880806114f5565b919288600181928685015181550194019201611495565b600784016000526020600020601f830160051c810160208410611593575b601f880160051c82018110611587575050611394565b60008155600101611571565b5080611571565b7f4e487b7100000000000000000000000000000000000000000000000000000000600052604160045260246000fd5b60646040517f08c379a000000000000000000000000000000000000000000000000000000000815260206004820152600e60248201527f496e76616c696420706172616d730000000000000000000000000000000000006044820152fd5b50610bb861012435111561118a565b3461016257602060031936011261016257600435907fffffffff00000000000000000000000000000000000000000000000000000000821680920361016257817f7965db0b00000000000000000000000000000000000000000000000000000000602093149081156116aa575b5015158152f35b7f01ffc9a700000000000000000000000000000000000000000000000000000000915014836116a3565b610180810190811067ffffffffffffffff82111761159a57604052565b90601f7fffffffffffffffffffffffffffffffffffffffffffffffffffffffffffffffe0910116810190811067ffffffffffffffff82111761159a57604052565b81601f820112156101625780359067ffffffffffffffff821161159a576040519261178560207fffffffffffffffffffffffffffffffffffffffffffffffffffffffffffffffe0601f86011601856116f1565b8284526020838301011161016257816000926020809301838601378301015290565b80548210156117bf5760005260206000200190600090565b7f4e487b7100000000000000000000000000000000000000000000000000000000600052603260045260246000fd5b6004359073ffffffffffffffffffffffffffffffffffffffff8216820361016257565b6024359073ffffffffffffffffffffffffffffffffffffffff8216820361016257565b90600482101561077f5752565b90600182811c9216801561188a575b602083101461185b57565b7f4e487b7100000000000000000000000000000000000000000000000000000000600052602260045260246000fd5b91607f1691611850565b90600682101561077f5752565b919082519283825260005b8481106118eb5750507fffffffffffffffffffffffffffffffffffffffffffffffffffffffffffffffe0601f8460006020809697860101520116010190565b6020818301810151848301820152016118ac565b80600052600060205260406000203360005260205260ff6040600020541615610eda5750565b906000918083528260205273ffffffffffffffffffffffffffffffffffffffff6040842092169182845260205260ff604084205416156000146119ac57808352826020526040832082845260205260408320600160ff198254161790557f2f8788117e7eff1d82e926ec794901d17c78024a50270940304540a733656f0d339380a4600190565b505090565b906000918083528260205273ffffffffffffffffffffffffffffffffffffffff6040842092169182845260205260ff6040842054166000146119ac5780835282602052604083208284526020526040832060ff1981541690557ff6391f5c32d9c69d2a47ea670b442974b53935d1edc7fd64eb21e047a839171b339380a4600190565b7fffffffffffffffffffffffffffffffffffffffffffffffffffffffffffffffff81146107475760010190565b600482101561077f5752565b80546801000000000000000081101561159a57611a8f916001820181556117a7565b7fffffffffffffffffffffffffffffffffffffffffffffffffffffffffffffffff829392549160031b92831b921b1916179055565b9190820180921161074757565b73ffffffffffffffffffffffffffffffffffffffff918260009216825260096020526040822090825260205260408120548015611bcd57906040918152600560205220604051611b20816116d4565b815481526001820154602082015260028201546040820152611b5760ff6003840154858116606085015260a01c1660808301611a61565b600482015460a082015261016060086005840154938460c0850152600681015460e0850152600781015461010085015201549360ff85161515948561012085015260ff8160081c16151561014085015260101c1691015281611bb7575090565b801591508115611bc5575090565b905042111590565b5090509056fea26469706673582212203f7db9139b4c56bd969a8b439cdc3b9ec6c3fda2e7278685d3b48a443fd042ad64736f6c634300081400332f8788117e7eff1d82e926ec794901d17c78024a50270940304540a733656f0d",
  "linkReferences": {},
  "deployedLinkReferences": {}
}