{
  "_format": "hh-sol-artifact-1",
  "contractName": "SandboxEnvironment",
  "sourceName": "contracts/layer7/execution/SandboxEnvironment.sol",
  "abi": [
    {
      "inputs": [],
      "stateMutability": "nonpayable",
      "type": "constructor"
    },
    {
      "inputs": [],
      "name": "AccessControlBadConfirmation",
      "type": "error"
    },
    {
      "inputs": [
        {
          "internalType": "address",
          "name": "account",
          "type": "address"
        },
        {
          "internalType": "bytes32",
          "name": "neededRole",
          "type": "bytes32"
        }
      ],
      "name": "AccessControlUnauthorizedAccount",
      "type": "error"
    },
    {
      "anonymous": false,
      "inputs": [
        {
          "indexed": true,
          "internalType": "bytes32",
          "name": "role",
          "type": "bytes32"
        },
        {
          "indexed": true,
          "internalType": "bytes32",
          "name": "previousAdminRole",
          "type": "bytes32"
        },
        {
          "indexed": true,
          "internalType": "bytes32",
          "name": "newAdminRole",
          "type": "bytes32"
        }
      ],
      "name": "RoleAdminChanged",
      "type": "event"
    },
    {
      "anonymous": false,
      "inputs": [
        {
          "indexed": true,
          "internalType": "bytes32",
          "name": "role",
          "type": "bytes32"
        },
        {
          "indexed": true,
          "internalType": "address",
          "name": "account",
          "type": "address"
        },
        {
          "indexed": true,
          "internalType": "address",
          "name": "sender",
          "type": "address"
        }
      ],
      "name": "RoleGranted",
      "type": "event"
    },
    {
      "anonymous": false,
      "inputs": [
        {
          "indexed": true,
          "internalType": "bytes32",
          "name": "role",
          "type": "bytes32"
        },
        {
          "indexed": true,
          "internalType": "address",
          "name": "account",
          "type": "address"
        },
        {
          "indexed": true,
          "internalType": "address",
          "name": "sender",
          "type": "address"
        }
      ],
      "name": "RoleRevoked",
      "type": "event"
    },
    {
      "anonymous": false,
      "inputs": [
        {
          "indexed": true,
          "internalType": "uint256",
          "name": "sandboxId",
          "type": "uint256"
        },
        {
          "indexed": true,
          "internalType": "uint256",
          "name": "entityId",
          "type": "uint256"
        }
      ],
      "name": "SandboxCreated",
      "type": "event"
    },
    {
      "anonymous": false,
      "inputs": [
        {
          "indexed": true,
          "internalType": "uint256",
          "name": "sandboxId",
          "type": "uint256"
        },
        {
          "indexed": false,
          "internalType": "bool",
          "name": "success",
          "type": "bool"
        }
      ],
      "name": "SandboxExecuted",
      "type": "event"
    },
    {
      "anonymous": false,
      "inputs": [
        {
          "indexed": true,
          "internalType": "uint256",
          "name": "sandboxId",
          "type": "uint256"
        },
        {
          "indexed": false,
          "internalType": "string",
          "name": "reason",
          "type": "string"
        }
      ],
      "name": "SandboxFailed",
      "type": "event"
    },
    {
      "inputs": [],
      "name": "DEFAULT_ADMIN_ROLE",
      "outputs": [
        {
          "internalType": "bytes32",
          "name": "",
          "type": "bytes32"
        }
      ],
      "stateMutability": "view",
      "type": "function"
    },
    {
      "inputs": [],
      "name": "SANDBOX_MANAGER_ROLE",
      "outputs": [
        {
          "internalType": "bytes32",
          "name": "",
          "type": "bytes32"
        }
      ],
      "stateMutability": "view",
      "type": "function"
    },
    {
      "inputs": [
        {
          "internalType": "uint256",
          "name": "entityId",
          "type": "uint256"
        },
        {
          "internalType": "uint256",
          "name": "gasLimit",
          "type": "uint256"
        },
        {
          "internalType": "uint256",
          "name": "storageQuota",
          "type": "uint256"
        },
        {
          "internalType": "uint256",
          "name": "timeLimit",
          "type": "uint256"
        }
      ],
      "name": "createSandbox",
      "outputs": [
        {
          "internalType": "uint256",
          "name": "",
          "type": "uint256"
        }
      ],
      "stateMutability": "nonpayable",
      "type": "function"
    },
    {
      "inputs": [],
      "name": "defaultGasLimit",
      "outputs": [
        {
          "internalType": "uint256",
          "name": "",
          "type": "uint256"
        }
      ],
      "stateMutability": "view",
      "type": "function"
    },
    {
      "inputs": [],
      "name": "defaultStorageQuota",
      "outputs": [
        {
          "internalType": "uint256",
          "name": "",
          "type": "uint256"
        }
      ],
      "stateMutability": "view",
      "type": "function"
    },
    {
      "inputs": [],
      "name": "defaultTimeLimit",
      "outputs": [
        {
          "internalType": "uint256",
          "name": "",
          "type": "uint256"
        }
      ],
      "stateMutability": "view",
      "type": "function"
    },
    {
      "inputs": [
        {
          "internalType": "uint256",
          "name": "",
          "type": "uint256"
        },
        {
          "internalType": "uint256",
          "name": "",
          "type": "uint256"
        }
      ],
      "name": "entitySandboxes",
      "outputs": [
        {
          "internalType": "uint256",
          "name": "",
          "type": "uint256"
        }
      ],
      "stateMutability": "view",
      "type": "function"
    },
    {
      "inputs": [
        {
          "internalType": "uint256",
          "name": "sandboxId",
          "type": "uint256"
        }
      ],
      "name": "executeSandbox",
      "outputs": [
        {
          "internalType": "bool",
          "name": "",
          "type": "bool"
        }
      ],
      "stateMutability": "nonpayable",
      "type": "function"
    },
    {
      "inputs": [
        {
          "internalType": "bytes32",
          "name": "role",
          "type": "bytes32"
        }
      ],
      "name": "getRoleAdmin",
      "outputs": [
        {
          "internalType": "bytes32",
          "name": "",
          "type": "bytes32"
        }
      ],
      "stateMutability": "view",
      "type": "function"
    },
    {
      "inputs": [
        {
          "internalType": "uint256",
          "name": "sandboxId",
          "type": "uint256"
        }
      ],
      "name": "getSandboxStatus",
      "outputs": [
        {
          "internalType": "enum SandboxEnvironment.SandboxStatus",
          "name": "status",
          "type": "uint8"
        },
        {
          "internalType": "bool",
          "name": "succeeded",
          "type": "bool"
        },
        {
          "internalType": "string",
          "name": "errorMessage",
          "type": "string"
        }
      ],
      "stateMutability": "view",
      "type": "function"
    },
    {
      "inputs": [
        {
          "internalType": "bytes32",
          "name": "role",
          "type": "bytes32"
        },
        {
          "internalType": "address",
          "name": "account",
          "type": "address"
        }
      ],
      "name": "grantRole",
      "outputs": [],
      "stateMutability": "nonpayable",
      "type": "function"
    },
    {
      "inputs": [
        {
          "internalType": "bytes32",
          "name": "role",
          "type": "bytes32"
        },
        {
          "internalType": "address",
          "name": "account",
          "type": "address"
        }
      ],
      "name": "hasRole",
      "outputs": [
        {
          "internalType": "bool",
          "name": "",
          "type": "bool"
        }
      ],
      "stateMutability": "view",
      "type": "function"
    },
    {
      "inputs": [
        {
          "internalType": "bytes32",
          "name": "role",
          "type": "bytes32"
        },
        {
          "internalType": "address",
          "name": "callerConfirmation",
          "type": "address"
        }
      ],
      "name": "renounceRole",
      "outputs": [],
      "stateMutability": "nonpayable",
      "type": "function"
    },
    {
      "inputs": [
        {
          "internalType": "bytes32",
          "name": "role",
          "type": "bytes32"
        },
        {
          "internalType": "address",
          "name": "account",
          "type": "address"
        }
      ],
      "name": "revokeRole",
      "outputs": [],
      "stateMutability": "nonpayable",
      "type": "function"
    },
    {
      "inputs": [],
      "name": "sandboxCount",
      "outputs": [
        {
          "internalType": "uint256",
          "name": "",
          "type": "uint256"
        }
      ],
      "stateMutability": "view",
      "type": "function"
    },
    {
      "inputs": [
        {
          "internalType": "uint256",
          "name": "",
          "type": "uint256"
        }
      ],
      "name": "sandboxes",
      "outputs": [
        {
          "internalType": "uint256",
          "name": "sandboxId",
          "type": "uint256"
        },
        {
          "internalType": "uint256",
          "name": "entityId",
          "type": "uint256"
        },
        {
          "internalType": "address",
          "name": "executor",
          "type": "address"
        },
        {
          "internalType": "uint256",
          "name": "gasLimit",
          "type": "uint256"
        },
        {
          "internalType": "uint256",
          "name": "storageQuota",
          "type": "uint256"
        },
        {
          "internalType": "uint256",
          "name": "timeLimit",
          "type": "uint256"
        },
        {
          "internalType": "enum SandboxEnvironment.SandboxStatus",
          "name": "status",
          "type": "uint8"
        },
        {
          "internalType": "uint256",
          "name": "createdAt",
          "type": "uint256"
        },
        {
          "internalType": "uint256",
          "name": "executedAt",
          "type": "uint256"
        },
        {
          "internalType": "bool",
          "name": "succeeded",
          "type": "bool"
        },
        {
          "internalType": "string",
          "name": "errorMessage",
          "type": "string"
        }
      ],
      "stateMutability": "view",
      "type": "function"
    },
    {
      "inputs": [
        {
          "internalType": "uint256",
          "name": "gasLimit",
          "type": "uint256"
        },
        {
          "internalType": "uint256",
          "name": "storageQuota",
          "type": "uint256"
        },
        {
          "internalType": "uint256",
          "name": "timeLimit",
          "type": "uint256"
        }
      ],
      "name": "setDefaultLimits",
      "outputs": [],
      "stateMutability": "nonpayable",
      "type": "function"
    },
    {
      "inputs": [
        {
          "internalType": "bytes4",
          "name": "interfaceId",
          "type": "bytes4"
        }
      ],
      "name": "supportsInterface",
      "outputs": [
        {
          "internalType": "bool",
          "name": "",
          "type": "bool"
        }
      ],
      "stateMutability": "view",
      "type": "function"
    },
    {
      "inputs": [
        {
          "internalType": "uint256",
          "name": "sandboxId",
          "type": "uint256"
        },
        {
          "internalType": "string",
          "name": "reason",
          "type": "string"
        }
      ],
      "name": "terminateSandbox",
      "outputs": [],
      "stateMutability": "nonpayable",
      "type": "function"
    }
  ],
  "bytecode": "0x60806040523461003e57620f4240600455612710600555603c60065561002433610043565b5061002e336100c1565b5060405161125390816101628239f35b600080fd5b6001600160a01b031660008181527fad3228b676f7d3cd4284a5443f17f1962b36e491b30a40b2405849e597ba5fb5602052604081205490919060ff166100bd57818052816020526040822081835260205260408220600160ff1982541617905533916000805160206113b58339815191528180a4600190565b5090565b6001600160a01b031660008181527f7c990fac5af7c6fee66df09c8176b3a5306f363e43c05da28ad2840d459f3ca960205260408120549091907f6d2bb9b27f0dfa02fcbee64708f8702b5eb19ee41dd68a36e35e62a4720c53699060ff1661015c57808352826020526040832082845260205260408320600160ff198254161790556000805160206113b5833981519152339380a4600190565b50509056fe608080604052600436101561001357600080fd5b60003560e01c90816301ffc9a714610d9757508063140467ba14610d04578063152908a814610c30578063210d856d14610ac657806323b6504814610a7f578063248a9ca314610a505780632f2ff15d14610a1f57806336568abe146109c15780633a9f9fc2146109a35780633db494cb146109855780636877932f146109185780636a4ef947146106195780637daf3712146105fb5780638f4246f3146105c057806391d148541461057257806395368d2e14610554578063973bb60514610144578063a217fddf146101285763d547741f146100f057600080fd5b346101235761012161010136611022565b9080600052600060205261011c6001604060002001546110e8565b61119a565b005b600080fd5b3461012357600060031936011261012357602060405160008152f35b3461012357608060031936011261012357604435602435606435610166611055565b6003549160001983146105255760018301600355801561051b57925b801561051157905b801561050757905b60405193610160850185811067ffffffffffffffff8211176103d25760405260018401855260043560208601523360408601526060850152608084015260a0830152600060c08301524260e08301526000610100830152600061012083015260405180602081011067ffffffffffffffff6020830111176103d2576020810160405260008152610140830152600181016000526001602052604060002082518155602083015160018201556002810173ffffffffffffffffffffffffffffffffffffffff6040850151167fffffffffffffffffffffffff0000000000000000000000000000000000000000825416179055606083015160038201556080830151600482015560a083015160058201556006810160c08401519160058310156104d85761014092600a9260ff199160ff83835416911617905560e086015160078301556101008601516008830155600982019060ff61012088015115159183541691161790550192015191825167ffffffffffffffff81116103d2576103178254610e35565b601f8111610490575b506020601f821160011461040c5781929394600092610401575b50506000198260011b9260031b1c19161790555b6004356000526002602052604060002090815491680100000000000000008310156103d25782610385916001602095018155610fdb565b81549060031b9060001960018501831b921b19161790556001604051916004358282017fd9337d03a9945249c8a82f908f69afe7256db0fc1141c40af3e97ff5c0479799600080a3018152f35b7f4e487b7100000000000000000000000000000000000000000000000000000000600052604160045260246000fd5b01519050848061033a565b7fffffffffffffffffffffffffffffffffffffffffffffffffffffffffffffffe08216908360005260206000209160005b8181106104785750958360019596971061045f575b505050811b01905561034e565b015160001960f88460031b161c19169055848080610452565b9192602060018192868b01518155019401920161043d565b826000526020600020601f830160051c810191602084106104ce575b601f0160051c01905b8181106104c25750610320565b600081556001016104b5565b90915081906104ac565b7f4e487b7100000000000000000000000000000000000000000000000000000000600052602160045260246000fd5b5060065490610192565b506005549061018a565b5060045492610182565b7f4e487b7100000000000000000000000000000000000000000000000000000000600052601160045260246000fd5b34610123576000600319360112610123576020600454604051908152f35b346101235761058036611022565b90600052600060205273ffffffffffffffffffffffffffffffffffffffff60406000209116600052602052602060ff604060002054166040519015158152f35b346101235760006003193601126101235760206040517f6d2bb9b27f0dfa02fcbee64708f8702b5eb19ee41dd68a36e35e62a4720c53698152f35b34610123576000600319360112610123576020600554604051908152f35b346101235760406003193601126101235760043560249081359167ffffffffffffffff9081841161012357366023850112156101235783600401359082821161085657604051926020927fffffffffffffffffffffffffffffffffffffffffffffffffffffffffffffffe0966106968589601f8501160187610e88565b8186523684838301011161012357816000928587930183890137860101526106bc611055565b846000526001808452604060002060068101805460ff811660058110156108ea578481159182156108e0575b5050156108835790600360ff19600a9493161790550192855192831161085657506107138354610e35565b601f811161080d575b508396601f8311600114610790575081807fc4971fad6ec073870f8fcacf2d0c7d128e12d75bc26bdf3c81d93c0208f4d0cd9798600092610783575b5060001991921b9260031b1c19161790555b61077e604051928284938452830190610f7d565b0390a2005b8701519150600019610758565b829192169683600052846000209060005b8981106107f85750827fc4971fad6ec073870f8fcacf2d0c7d128e12d75bc26bdf3c81d93c0208f4d0cd9899106107df575b5050811b01905561076a565b86015160001960f88460031b161c1916905587806107d3565b878201518355918401919086019086016107a1565b8360005284600020601f840160051c81019186851061084c575b601f0160051c019082905b82811061084057505061071c565b60008155018290610832565b9091508190610827565b7f4e487b710000000000000000000000000000000000000000000000000000000060005260416004526000fd5b606487601088604051927f08c379a000000000000000000000000000000000000000000000000000000000845260048401528201527f43616e6e6f74207465726d696e617465000000000000000000000000000000006044820152fd5b149050848c6106e8565b867f4e487b710000000000000000000000000000000000000000000000000000000060005260216004526000fd5b34610123576020600319360112610123576004356000526001602052610969604060002061098160ff6006830154169161095c600a60ff6009840154169201610ec9565b9060405194858095610f70565b15156020840152606060408401526060830190610f7d565b0390f35b34610123576000600319360112610123576020600654604051908152f35b34610123576000600319360112610123576020600354604051908152f35b34610123576109cf36611022565b3373ffffffffffffffffffffffffffffffffffffffff8216036109f5576101219161119a565b60046040517f6697b232000000000000000000000000000000000000000000000000000000008152fd5b3461012357610121610a3036611022565b90806000526000602052610a4b6001604060002001546110e8565b61110e565b346101235760206003193601126101235760043560005260006020526020600160406000200154604051908152f35b346101235760406003193601126101235760243560043560005260026020526040600020805482101561012357602091610ab891610fdb565b90546040519160031b1c8152f35b346101235760208060031936011261012357600435610ae3611055565b80600052600182526040600020600681019081549160ff831660058110156104d857610bd257600782015460058301548101809111610525574211610b7457600191600991426008830155600260ff1980961617905501918254161790557fd98cdf9b0c3b9ab873279158772aabb6359e56fe4b785a3851f232cda1e88faf8260405160018152a260405160018152f35b606485604051907f08c379a00000000000000000000000000000000000000000000000000000000082526004820152600960248201527f54696d6564206f757400000000000000000000000000000000000000000000006044820152fd5b606485604051907f08c379a00000000000000000000000000000000000000000000000000000000082526004820152600e60248201527f496e76616c6964207374617475730000000000000000000000000000000000006044820152fd5b346101235760206003193601126101235760043560005260016020526040600020805461098160018301549273ffffffffffffffffffffffffffffffffffffffff6002820154169060038101546004820154610cdf600584015460ff60068601541690600786015493600887015495610cb3600a60ff60098b0154169901610ec9565b986040519c8d9c8d5260208d015260408c015260608b015260808a015260a089015260c0880190610f70565b60e0860152610100850152151561012084015261016080610140850152830190610f7d565b34610123576060600319360112610123573360009081527fad3228b676f7d3cd4284a5443f17f1962b36e491b30a40b2405849e597ba5fb5602052604090205460ff1615610d6057600480359055602435600555604435600655005b60446040517fe2517d3f00000000000000000000000000000000000000000000000000000000815233600482015260006024820152fd5b3461012357602060031936011261012357600435907fffffffff00000000000000000000000000000000000000000000000000000000821680920361012357817f7965db0b0000000000000000000000000000000000000000000000000000000060209314908115610e0b575b5015158152f35b7f01ffc9a70000000000000000000000000000000000000000000000000000000091501483610e04565b90600182811c92168015610e7e575b6020831014610e4f57565b7f4e487b7100000000000000000000000000000000000000000000000000000000600052602260045260246000fd5b91607f1691610e44565b90601f7fffffffffffffffffffffffffffffffffffffffffffffffffffffffffffffffe0910116810190811067ffffffffffffffff8211176103d257604052565b9060405191826000825492610edd84610e35565b908184526001948581169081600014610f4c5750600114610f09575b5050610f0792500383610e88565b565b9093915060005260209081600020936000915b818310610f34575050610f0793508201013880610ef9565b85548884018501529485019487945091830191610f1c565b9050610f0795506020935060ff1991501682840152151560051b8201013880610ef9565b9060058210156104d85752565b919082519283825260005b848110610fc75750507fffffffffffffffffffffffffffffffffffffffffffffffffffffffffffffffe0601f8460006020809697860101520116010190565b602081830181015184830182015201610f88565b8054821015610ff35760005260206000200190600090565b7f4e487b7100000000000000000000000000000000000000000000000000000000600052603260045260246000fd5b6003196040910112610123576004359060243573ffffffffffffffffffffffffffffffffffffffff811681036101235790565b3360009081527f7c990fac5af7c6fee66df09c8176b3a5306f363e43c05da28ad2840d459f3ca960205260409020547f6d2bb9b27f0dfa02fcbee64708f8702b5eb19ee41dd68a36e35e62a4720c53699060ff16156110b15750565b604490604051907fe2517d3f0000000000000000000000000000000000000000000000000000000082523360048301526024820152fd5b80600052600060205260406000203360005260205260ff60406000205416156110b15750565b906000918083528260205273ffffffffffffffffffffffffffffffffffffffff6040842092169182845260205260ff6040842054161560001461119557808352826020526040832082845260205260408320600160ff198254161790557f2f8788117e7eff1d82e926ec794901d17c78024a50270940304540a733656f0d339380a4600190565b505090565b906000918083528260205273ffffffffffffffffffffffffffffffffffffffff6040842092169182845260205260ff6040842054166000146111955780835282602052604083208284526020526040832060ff1981541690557ff6391f5c32d9c69d2a47ea670b442974b53935d1edc7fd64eb21e047a839171b339380a460019056fea2646970667358221220815977ef6f94af754c95f355afd6a290253cf170a1fc6f4298df8e33b0dc807964736f6c634300081400332f8788117e7eff1d82e926ec794901d17c78024a50270940304540a733656f0d",
  "linkReferences": {},
  "deployedLinkReferences": {}
}