{
  "_format": "hh-sol-artifact-1",
  "contractName": "MediaRegistry",
  "sourceName": "contracts/layer4/media/MediaRegistry.sol",
  "abi": [
    {
      "anonymous": false,
      "inputs": [
        {
          "indexed": true,
          "internalType": "uint256",
          "name": "assetId",
          "type": "uint256"
        },
        {
          "indexed": false,
          "internalType": "enum MediaRegistry.AssetType",
          "name": "assetType",
          "type": "uint8"
        },
        {
          "indexed": true,
          "internalType": "address",
          "name": "creator",
          "type": "address"
        }
      ],
      "name": "AssetRegistered",
      "type": "event"
    },
    {
      "inputs": [
        {
          "internalType": "uint256",
          "name": "",
          "type": "uint256"
        }
      ],
      "name": "assets",
      "outputs": [
        {
          "internalType": "uint256",
          "name": "assetId",
          "type": "uint256"
        },
        {
          "internalType": "enum MediaRegistry.AssetType",
          "name": "assetType",
          "type": "uint8"
        },
        {
          "internalType": "address",
          "name": "contractAddress",
          "type": "address"
        },
        {
          "internalType": "uint256",
          "name": "tokenId",
          "type": "uint256"
        },
        {
          "internalType": "string",
          "name": "metadata",
          "type": "string"
        },
        {
          "internalType": "uint256",
          "name": "createdAt",
          "type": "uint256"
        },
        {
          "internalType": "address",
          "name": "creator",
          "type": "address"
        },
        {
          "internalType": "uint256",
          "name": "viewCount",
          "type": "uint256"
        },
        {
          "internalType": "uint256",
          "name": "revenue",
          "type": "uint256"
        }
      ],
      "stateMutability": "view",
      "type": "function"
    },
    {
      "inputs": [
        {
          "internalType": "address",
          "name": "",
          "type": "address"
        },
        {
          "internalType": "uint256",
          "name": "",
          "type": "uint256"
        }
      ],
      "name": "assetsByCreator",
      "outputs": [
        {
          "internalType": "uint256",
          "name": "",
          "type": "uint256"
        }
      ],
      "stateMutability": "view",
      "type": "function"
    },
    {
      "inputs": [
        {
          "internalType": "enum MediaRegistry.AssetType",
          "name": "",
          "type": "uint8"
        },
        {
          "internalType": "uint256",
          "name": "",
          "type": "uint256"
        }
      ],
      "name": "assetsByType",
      "outputs": [
        {
          "internalType": "uint256",
          "name": "",
          "type": "uint256"
        }
      ],
      "stateMutability": "view",
      "type": "function"
    },
    {
      "inputs": [
        {
          "internalType": "uint256",
          "name": "assetId",
          "type": "uint256"
        }
      ],
      "name": "getAsset",
      "outputs": [
        {
          "components": [
            {
              "internalType": "uint256",
              "name": "assetId",
              "type": "uint256"
            },
            {
              "internalType": "enum MediaRegistry.AssetType",
              "name": "assetType",
              "type": "uint8"
            },
            {
              "internalType": "address",
              "name": "contractAddress",
              "type": "address"
            },
            {
              "internalType": "uint256",
              "name": "tokenId",
              "type": "uint256"
            },
            {
              "internalType": "string",
              "name": "metadata",
              "type": "string"
            },
            {
              "internalType": "uint256",
              "name": "createdAt",
              "type": "uint256"
            },
            {
              "internalType": "address",
              "name": "creator",
              "type": "address"
            },
            {
              "internalType": "uint256",
              "name": "viewCount",
              "type": "uint256"
            },
            {
              "internalType": "uint256",
              "name": "revenue",
              "type": "uint256"
            }
          ],
          "internalType": "struct MediaRegistry.MediaAsset",
          "name": "",
          "type": "tuple"
        }
      ],
      "stateMutability": "view",
      "type": "function"
    },
    {
      "inputs": [
        {
          "internalType": "address",
          "name": "creator",
          "type": "address"
        }
      ],
      "name": "getAssetsByCreator",
      "outputs": [
        {
          "internalType": "uint256[]",
          "name": "",
          "type": "uint256[]"
        }
      ],
      "stateMutability": "view",
      "type": "function"
    },
    {
      "inputs": [
        {
          "internalType": "enum MediaRegistry.AssetType",
          "name": "assetType",
          "type": "uint8"
        }
      ],
      "name": "getAssetsByType",
      "outputs": [
        {
          "internalType": "uint256[]",
          "name": "",
          "type": "uint256[]"
        }
      ],
      "stateMutability": "view",
      "type": "function"
    },
    {
      "inputs": [
        {
          "internalType": "uint256",
          "name": "assetId",
          "type": "uint256"
        },
        {
          "internalType": "uint256",
          "name": "amount",
          "type": "uint256"
        }
      ],
      "name": "recordRevenue",
      "outputs": [],
      "stateMutability": "nonpayable",
      "type": "function"
    },
    {
      "inputs": [
        {
          "internalType": "uint256",
          "name": "assetId",
          "type": "uint256"
        }
      ],
      "name": "recordView",
      "outputs": [],
      "stateMutability": "nonpayable",
      "type": "function"
    },
    {
      "inputs": [
        {
          "internalType": "enum MediaRegistry.AssetType",
          "name": "assetType",
          "type": "uint8"
        },
        {
          "internalType": "address",
          "name": "contractAddress",
          "type": "address"
        },
        {
          "internalType": "uint256",
          "name": "tokenId",
          "type": "uint256"
        },
        {
          "internalType": "string",
          "name": "metadata",
          "type": "string"
        }
      ],
      "name": "registerAsset",
      "outputs": [
        {
          "internalType": "uint256",
          "name": "",
          "type": "uint256"
        }
      ],
      "stateMutability": "nonpayable",
      "type": "function"
    },
    {
      "inputs": [],
      "name": "totalAssets",
      "outputs": [
        {
          "internalType": "uint256",
          "name": "",
          "type": "uint256"
        }
      ],
      "stateMutability": "view",
      "type": "function"
    }
  ],
  "bytecode": "0x6080806040523461001657610cf2908161001c8239f35b600080fdfe608080604052600436101561001357600080fd5b60003560e01c90816301e1d11414610972575080631b833f061461090d5780631cac090b146108cf5780631f7ba1341461089d578063cf35bdd0146107de578063d1b2cc2e1461076e578063e64707e21461070b578063eac8f5b8146105a1578063ed5eb9581461050c5763ffddd9cd1461008d57600080fd5b3461050757608060031936011261050757600560043510156105075760243573ffffffffffffffffffffffffffffffffffffffff811681036105075760643567ffffffffffffffff8111610507573660238201121561050757806004013567ffffffffffffffff81116104a9576040519161013060207fffffffffffffffffffffffffffffffffffffffffffffffffffffffffffffffe0601f8501160184610a5d565b81835236602483830101116105075781600092602460209301838601378301015261015c600354610c2c565b908160035573ffffffffffffffffffffffffffffffffffffffff6040519361018385610a40565b83855261019560043560208701610c59565b166040840152604435606084015260808301524260a08301523360c0830152600060e0830152600061010083015280600052600060205260406000208251815560018101602084015160058110156104d85781547fffffffffffffffffffffff00000000000000000000000000000000000000000060ff74ffffffffffffffffffffffffffffffffffffffff00604089015160081b16931691161717905560608301516002820155608083015192835167ffffffffffffffff81116104a95761026160038401546109ed565b94601f8611610462575b602095508590601f83116001146103945791806007949261010094600092610389575b50507fffffffffffffffffffffffffffffffffffffffffffffffffffffffffffffffff8260011b9260031b1c19161760038501555b60a081015160048501556005840173ffffffffffffffffffffffffffffffffffffffff60c0830151167fffffffffffffffffffffffff000000000000000000000000000000000000000082541617905560e0810151600685015501519101556103368161033160043561098d565b610c65565b336000526002825261034c816040600020610c65565b60405161035b81600435610b63565b817f65ac8573b985efeff64062ca833e3c30a4ea4f0a21c84a48048c306f2a317322843393a3604051908152f35b01519050388061028e565b9060038501600052866000209160005b7fffffffffffffffffffffffffffffffffffffffffffffffffffffffffffffffe08516811061044b5750926007949260019261010095837fffffffffffffffffffffffffffffffffffffffffffffffffffffffffffffffe0811610610414575b505050811b0160038501556102c3565b01517fffffffffffffffffffffffffffffffffffffffffffffffffffffffffffffffff60f88460031b161c19169055388080610404565b9192886001819286850151815501940192016103a4565b600384016000526020600020601f830160051c8101602084106104a2575b601f880160051c8201811061049657505061026b565b60008155600101610480565b5080610480565b7f4e487b7100000000000000000000000000000000000000000000000000000000600052604160045260246000fd5b7f4e487b7100000000000000000000000000000000000000000000000000000000600052602160045260246000fd5b600080fd5b34610507576020806003193601126105075773ffffffffffffffffffffffffffffffffffffffff61053b610c09565b1660005260028152604060002090604051908181845491828152019360005281600020916000905b82821061058a576105868561057a81890382610a5d565b60405191829182610bce565b0390f35b835486529485019460019384019390910190610563565b3461050757602080600319360112610507576040516105bf81610a40565b60008152600082820152600060408201526000606082015260606080820152600060a0820152600060c0820152600060e0820152600061010080920152600435600052600082526040600020906040519161061983610a40565b805483526001810154918484019061063460ff851683610c59565b84604081019473ffffffffffffffffffffffffffffffffffffffff809160081c16865260028501546060830190815261066f60038701610a9e565b90608084019182528260048801549860a08601998a526106c860078360058c0154169a60c089019b8c5260e060068201549901988952015498888d01998a526040518e819f9e829f8352519101525160408d0190610b63565b511660608a015251608089015251946106ef610120968760a08b01526101408a0190610b70565b965160c0890152511660e0870152519085015251908301520390f35b3461050757604060031936011261050757610724610c09565b73ffffffffffffffffffffffffffffffffffffffff602435911660005260026020526040600020805482101561050757602091610760916109a6565b90546040519160031b1c8152f35b3461050757602080600319360112610507576004356005811015610507576107959061098d565b90604051908181845491828152019360005281600020916000905b8282106107c7576105868561057a81890382610a5d565b8354865294850194600193840193909101906107b0565b346105075760206003193601126105075760043560005260006020526040600020805460018201549160028101549061081960038201610a9e565b9060048101549261088373ffffffffffffffffffffffffffffffffffffffff9384600585015416926007600686015495015495604051998a998a5261086460208b0160ff8316610b63565b60081c1660408901526060880152610120806080890152870190610b70565b9360a086015260c085015260e08401526101008301520390f35b3461050757602060031936011261050757600435600052600060205260066040600020016108cb8154610c2c565b9055005b34610507576040600319360112610507576004356005811015610507576108f86024359161098d565b805482101561050757602091610760916109a6565b34610507576040600319360112610507576004356000526000602052600760406000200180549060243582018092116109435755005b7f4e487b7100000000000000000000000000000000000000000000000000000000600052601160045260246000fd5b34610507576000600319360112610507576020906003548152f35b60058110156104d8576000526001602052604060002090565b80548210156109be5760005260206000200190600090565b7f4e487b7100000000000000000000000000000000000000000000000000000000600052603260045260246000fd5b90600182811c92168015610a36575b6020831014610a0757565b7f4e487b7100000000000000000000000000000000000000000000000000000000600052602260045260246000fd5b91607f16916109fc565b610120810190811067ffffffffffffffff8211176104a957604052565b90601f7fffffffffffffffffffffffffffffffffffffffffffffffffffffffffffffffe0910116810190811067ffffffffffffffff8211176104a957604052565b9060405191826000825492610ab2846109ed565b908184526001948581169081600014610b215750600114610ade575b5050610adc92500383610a5d565b565b9093915060005260209081600020936000915b818310610b09575050610adc93508201013880610ace565b85548884018501529485019487945091830191610af1565b9050610adc9550602093507fffffffffffffffffffffffffffffffffffffffffffffffffffffffffffffff0091501682840152151560051b8201013880610ace565b9060058210156104d85752565b919082519283825260005b848110610bba5750507fffffffffffffffffffffffffffffffffffffffffffffffffffffffffffffffe0601f8460006020809697860101520116010190565b602081830181015184830182015201610b7b565b6020908160408183019282815285518094520193019160005b828110610bf5575050505090565b835185529381019392810192600101610be7565b6004359073ffffffffffffffffffffffffffffffffffffffff8216820361050757565b7fffffffffffffffffffffffffffffffffffffffffffffffffffffffffffffffff81146109435760010190565b60058210156104d85752565b8054680100000000000000008110156104a957610c87916001820181556109a6565b7fffffffffffffffffffffffffffffffffffffffffffffffffffffffffffffffff829392549160031b92831b921b191617905556fea264697066735822122027c7d73c4d0dff452586c8b9be3327f74d30eb119f926b87f3051b468aad90c364736f6c63430008140033",
  "linkReferences": {},
  "deployedLinkReferences": {}
}