{
  "_format": "hh-sol-artifact-1",
  "contractName": "ProposalSystem",
  "sourceName": "contracts/dao/ProposalSystem.sol",
  "abi": [
    {
      "inputs": [],
      "stateMutability": "nonpayable",
      "type": "constructor"
    },
    {
      "inputs": [
        {
          "internalType": "address",
          "name": "owner",
          "type": "address"
        }
      ],
      "name": "OwnableInvalidOwner",
      "type": "error"
    },
    {
      "inputs": [
        {
          "internalType": "address",
          "name": "account",
          "type": "address"
        }
      ],
      "name": "OwnableUnauthorizedAccount",
      "type": "error"
    },
    {
      "anonymous": false,
      "inputs": [
        {
          "indexed": true,
          "internalType": "address",
          "name": "previousOwner",
          "type": "address"
        },
        {
          "indexed": true,
          "internalType": "address",
          "name": "newOwner",
          "type": "address"
        }
      ],
      "name": "OwnershipTransferred",
      "type": "event"
    },
    {
      "anonymous": false,
      "inputs": [
        {
          "indexed": true,
          "internalType": "uint256",
          "name": "proposalId",
          "type": "uint256"
        }
      ],
      "name": "ProposalCanceled",
      "type": "event"
    },
    {
      "anonymous": false,
      "inputs": [
        {
          "indexed": true,
          "internalType": "uint256",
          "name": "proposalId",
          "type": "uint256"
        },
        {
          "indexed": true,
          "internalType": "address",
          "name": "proposer",
          "type": "address"
        },
        {
          "indexed": false,
          "internalType": "string",
          "name": "title",
          "type": "string"
        },
        {
          "indexed": false,
          "internalType": "enum ProposalSystem.ProposalType",
          "name": "proposalType",
          "type": "uint8"
        }
      ],
      "name": "ProposalCreated",
      "type": "event"
    },
    {
      "anonymous": false,
      "inputs": [
        {
          "indexed": true,
          "internalType": "uint256",
          "name": "proposalId",
          "type": "uint256"
        }
      ],
      "name": "ProposalExecuted",
      "type": "event"
    },
    {
      "anonymous": false,
      "inputs": [
        {
          "indexed": true,
          "internalType": "uint256",
          "name": "proposalId",
          "type": "uint256"
        },
        {
          "indexed": false,
          "internalType": "uint256",
          "name": "eta",
          "type": "uint256"
        }
      ],
      "name": "ProposalQueued",
      "type": "event"
    },
    {
      "inputs": [
        {
          "internalType": "uint256",
          "name": "proposalId",
          "type": "uint256"
        }
      ],
      "name": "cancelProposal",
      "outputs": [],
      "stateMutability": "nonpayable",
      "type": "function"
    },
    {
      "inputs": [
        {
          "internalType": "string",
          "name": "title",
          "type": "string"
        },
        {
          "internalType": "string",
          "name": "description",
          "type": "string"
        },
        {
          "internalType": "enum ProposalSystem.ProposalType",
          "name": "proposalType",
          "type": "uint8"
        },
        {
          "internalType": "address[]",
          "name": "targets",
          "type": "address[]"
        },
        {
          "internalType": "uint256[]",
          "name": "values",
          "type": "uint256[]"
        },
        {
          "internalType": "bytes[]",
          "name": "calldatas",
          "type": "bytes[]"
        }
      ],
      "name": "createProposal",
      "outputs": [
        {
          "internalType": "uint256",
          "name": "",
          "type": "uint256"
        }
      ],
      "stateMutability": "nonpayable",
      "type": "function"
    },
    {
      "inputs": [
        {
          "internalType": "uint256",
          "name": "proposalId",
          "type": "uint256"
        }
      ],
      "name": "executeProposal",
      "outputs": [],
      "stateMutability": "nonpayable",
      "type": "function"
    },
    {
      "inputs": [
        {
          "internalType": "uint256",
          "name": "proposalId",
          "type": "uint256"
        }
      ],
      "name": "getProposal",
      "outputs": [
        {
          "components": [
            {
              "internalType": "uint256",
              "name": "id",
              "type": "uint256"
            },
            {
              "internalType": "address",
              "name": "proposer",
              "type": "address"
            },
            {
              "internalType": "string",
              "name": "title",
              "type": "string"
            },
            {
              "internalType": "string",
              "name": "description",
              "type": "string"
            },
            {
              "internalType": "enum ProposalSystem.ProposalType",
              "name": "proposalType",
              "type": "uint8"
            },
            {
              "internalType": "enum ProposalSystem.ProposalState",
              "name": "state",
              "type": "uint8"
            },
            {
              "internalType": "uint256",
              "name": "forVotes",
              "type": "uint256"
            },
            {
              "internalType": "uint256",
              "name": "againstVotes",
              "type": "uint256"
            },
            {
              "internalType": "uint256",
              "name": "abstainVotes",
              "type": "uint256"
            },
            {
              "internalType": "uint256",
              "name": "startBlock",
              "type": "uint256"
            },
            {
              "internalType": "uint256",
              "name": "endBlock",
              "type": "uint256"
            },
            {
              "internalType": "uint256",
              "name": "eta",
              "type": "uint256"
            },
            {
              "internalType": "bytes[]",
              "name": "calldatas",
              "type": "bytes[]"
            },
            {
              "internalType": "address[]",
              "name": "targets",
              "type": "address[]"
            },
            {
              "internalType": "uint256[]",
              "name": "values",
              "type": "uint256[]"
            },
            {
              "internalType": "uint256",
              "name": "createdAt",
              "type": "uint256"
            }
          ],
          "internalType": "struct ProposalSystem.Proposal",
          "name": "",
          "type": "tuple"
        }
      ],
      "stateMutability": "view",
      "type": "function"
    },
    {
      "inputs": [
        {
          "internalType": "uint256",
          "name": "proposalId",
          "type": "uint256"
        }
      ],
      "name": "getProposalState",
      "outputs": [
        {
          "internalType": "enum ProposalSystem.ProposalState",
          "name": "",
          "type": "uint8"
        }
      ],
      "stateMutability": "view",
      "type": "function"
    },
    {
      "inputs": [],
      "name": "owner",
      "outputs": [
        {
          "internalType": "address",
          "name": "",
          "type": "address"
        }
      ],
      "stateMutability": "view",
      "type": "function"
    },
    {
      "inputs": [],
      "name": "proposalCount",
      "outputs": [
        {
          "internalType": "uint256",
          "name": "",
          "type": "uint256"
        }
      ],
      "stateMutability": "view",
      "type": "function"
    },
    {
      "inputs": [],
      "name": "proposalThreshold",
      "outputs": [
        {
          "internalType": "uint256",
          "name": "",
          "type": "uint256"
        }
      ],
      "stateMutability": "view",
      "type": "function"
    },
    {
      "inputs": [
        {
          "internalType": "uint256",
          "name": "",
          "type": "uint256"
        }
      ],
      "name": "proposals",
      "outputs": [
        {
          "internalType": "uint256",
          "name": "id",
          "type": "uint256"
        },
        {
          "internalType": "address",
          "name": "proposer",
          "type": "address"
        },
        {
          "internalType": "string",
          "name": "title",
          "type": "string"
        },
        {
          "internalType": "string",
          "name": "description",
          "type": "string"
        },
        {
          "internalType": "enum ProposalSystem.ProposalType",
          "name": "proposalType",
          "type": "uint8"
        },
        {
          "internalType": "enum ProposalSystem.ProposalState",
          "name": "state",
          "type": "uint8"
        },
        {
          "internalType": "uint256",
          "name": "forVotes",
          "type": "uint256"
        },
        {
          "internalType": "uint256",
          "name": "againstVotes",
          "type": "uint256"
        },
        {
          "internalType": "uint256",
          "name": "abstainVotes",
          "type": "uint256"
        },
        {
          "internalType": "uint256",
          "name": "startBlock",
          "type": "uint256"
        },
        {
          "internalType": "uint256",
          "name": "endBlock",
          "type": "uint256"
        },
        {
          "internalType": "uint256",
          "name": "eta",
          "type": "uint256"
        },
        {
          "internalType": "uint256",
          "name": "createdAt",
          "type": "uint256"
        }
      ],
      "stateMutability": "view",
      "type": "function"
    },
    {
      "inputs": [
        {
          "internalType": "uint256",
          "name": "proposalId",
          "type": "uint256"
        },
        {
          "internalType": "uint256",
          "name": "eta",
          "type": "uint256"
        }
      ],
      "name": "queueProposal",
      "outputs": [],
      "stateMutability": "nonpayable",
      "type": "function"
    },
    {
      "inputs": [],
      "name": "quorum",
      "outputs": [
        {
          "internalType": "uint256",
          "name": "",
          "type": "uint256"
        }
      ],
      "stateMutability": "view",
      "type": "function"
    },
    {
      "inputs": [],
      "name": "renounceOwnership",
      "outputs": [],
      "stateMutability": "nonpayable",
      "type": "function"
    },
    {
      "inputs": [
        {
          "internalType": "address",
          "name": "newOwner",
          "type": "address"
        }
      ],
      "name": "transferOwnership",
      "outputs": [],
      "stateMutability": "nonpayable",
      "type": "function"
    },
    {
      "inputs": [
        {
          "internalType": "uint256",
          "name": "newVotingDelay",
          "type": "uint256"
        },
        {
          "internalType": "uint256",
          "name": "newVotingPeriod",
          "type": "uint256"
        },
        {
          "internalType": "uint256",
          "name": "newProposalThreshold",
          "type": "uint256"
        },
        {
          "internalType": "uint256",
          "name": "newQuorum",
          "type": "uint256"
        }
      ],
      "name": "updateVotingParameters",
      "outputs": [],
      "stateMutability": "nonpayable",
      "type": "function"
    },
    {
      "inputs": [],
      "name": "votingDelay",
      "outputs": [
        {
          "internalType": "uint256",
          "name": "",
          "type": "uint256"
        }
      ],
      "stateMutability": "view",
      "type": "function"
    },
    {
      "inputs": [],
      "name": "votingPeriod",
      "outputs": [
        {
          "internalType": "uint256",
          "name": "",
          "type": "uint256"
        }
      ],
      "stateMutability": "view",
      "type": "function"
    }
  ],
  "bytecode": "0x6080604052620151806003556203f48060045569152d02c7e14af68000006005556a034f086f3b33b68400000060065534801561003b57600080fd5b50338061006257604051631e4fbdf760e01b81526000600482015260240160405180910390fd5b61006b81610071565b506100c1565b600080546001600160a01b038381166001600160a01b0319831681178455604051919092169283917f8be0079c531659141344cd1fd0a4f28419497f9722a3daafe3b4186f6b6457e09190a35050565b611ad3806100d06000396000f3fe608060405234801561001057600080fd5b50600436106101005760003560e01c80639080936f11610097578063da35c66411610066578063da35c6641461020a578063e0a8f6f514610213578063ec3da64c14610226578063f2fde38b1461023957600080fd5b80639080936f146101ae578063b58131b0146101ce578063bac7c890146101d7578063c7f758a8146101ea57600080fd5b806333675554116100d3578063336755541461016f5780633932abb114610182578063715018a61461018b5780638da5cb5b1461019357600080fd5b8063013cf08b1461010557806302a251a31461013a5780630d61b519146101515780631703a01814610166575b600080fd5b6101186101133660046111b1565b61024c565b6040516101319d9c9b9a9998979695949392919061124a565b60405180910390f35b61014360045481565b604051908152602001610131565b61016461015f3660046111b1565b6103d0565b005b61014360065481565b61014361017d366004611555565b6104c5565b61014360035481565b61016461082e565b6000546040516001600160a01b039091168152602001610131565b6101c16101bc3660046111b1565b610842565b6040516101319190611636565b61014360055481565b6101646101e536600461164a565b610936565b6101fd6101f83660046111b1565b610952565b6040516101319190611745565b61014360025481565b6101646102213660046111b1565b610d04565b610164610234366004611891565b610e3b565b6101646102473660046118b3565b610f01565b60016020819052600091825260409091208054918101546002820180546001600160a01b03909216929161027f906118ce565b80601f01602080910402602001604051908101604052809291908181526020018280546102ab906118ce565b80156102f85780601f106102cd576101008083540402835291602001916102f8565b820191906000526020600020905b8154815290600101906020018083116102db57829003601f168201915b50505050509080600301805461030d906118ce565b80601f0160208091040260200160405190810160405280929190818152602001828054610339906118ce565b80156103865780601f1061035b57610100808354040283529160200191610386565b820191906000526020600020905b81548152906001019060200180831161036957829003601f168201915b505050600484015460058501546006860154600787015460088801546009890154600a8a0154600e909a0154989960ff8088169a610100909804169850949650929491939092918d565b6103d8610f3f565b600081815260016020526040902060056004820154610100900460ff16600781111561040657610406611210565b146104455760405162461bcd60e51b815260206004820152600a602482015269139bdd081c5d595d595960b21b60448201526064015b60405180910390fd5b80600a01544210156104855760405162461bcd60e51b81526020600482015260096024820152684e6f7420726561647960b81b604482015260640161043c565b60048101805461ff00191661070017905560405182907f712ae1383f79ac853f8d882153778e0260ef8f03b504e2866e0593e04d2b291f90600090a25050565b6000825184511461050a5760405162461bcd60e51b815260206004820152600f60248201526e098cadccee8d040dad2e6dac2e8c6d608b1b604482015260640161043c565b815184511461054d5760405162461bcd60e51b815260206004820152600f60248201526e098cadccee8d040dad2e6dac2e8c6d608b1b604482015260640161043c565b600084511161058f5760405162461bcd60e51b815260206004820152600e60248201526d115b5c1d1e481c1c9bdc1bdcd85b60921b604482015260640161043c565b60028054600091826105a08361191e565b9190505590506000600c6003546105b79190611937565b6105c19043611959565b90506000600c6004546105d49190611937565b6105de9083611959565b9050604051806102000160405280848152602001336001600160a01b031681526020018b81526020018a815260200189600481111561061f5761061f611210565b8152602001600081526020016000815260200160008152602001600081526020018381526020018281526020016000815260200186815260200188815260200187815260200142815250600160008581526020019081526020016000206000820151816000015560208201518160010160006101000a8154816001600160a01b0302191690836001600160a01b0316021790555060408201518160020190816106c891906119bb565b50606082015160038201906106dd90826119bb565b5060808201518160040160006101000a81548160ff0219169083600481111561070857610708611210565b021790555060a082015160048201805461ff00191661010083600781111561073257610732611210565b021790555060c0820151600582015560e08201516006820155610100820151600782015561012082015160088201556101408201516009820155610160820151600a820155610180820151805161079391600b840191602090910190610fbc565b506101a082015180516107b091600c840191602090910190611012565b506101c082015180516107cd91600d840191602090910190611073565b506101e082015181600e0155905050336001600160a01b0316837fe0269f7953e70365e80e614e4efe7d4bede59b7f5ad80982ea4064c97ee6f4ef8c8b604051610818929190611a7b565b60405180910390a3509098975050505050505050565b610836610f3f565b6108406000610f6c565b565b600081815260016020526040812060026004820154610100900460ff16600781111561087057610870611210565b0361087e5750600292915050565b60076004820154610100900460ff16600781111561089e5761089e611210565b036108ac5750600792915050565b80600801544310156108c15750600092915050565b806009015443116108d55750600192915050565b806006015481600501541180156108f25750600654816005015410155b1561092d5760056004820154610100900460ff16600781111561091757610917611210565b14610923576004610926565b60055b9392505050565b50600392915050565b61093e610f3f565b600393909355600491909155600555600655565b61095a6110ae565b60008281526001602081815260409283902083516102008101855281548152928101546001600160a01b03169183019190915260028101805492939192918401916109a4906118ce565b80601f01602080910402602001604051908101604052809291908181526020018280546109d0906118ce565b8015610a1d5780601f106109f257610100808354040283529160200191610a1d565b820191906000526020600020905b815481529060010190602001808311610a0057829003601f168201915b50505050508152602001600382018054610a36906118ce565b80601f0160208091040260200160405190810160405280929190818152602001828054610a62906118ce565b8015610aaf5780601f10610a8457610100808354040283529160200191610aaf565b820191906000526020600020905b815481529060010190602001808311610a9257829003601f168201915b505050918352505060048281015460209092019160ff1690811115610ad657610ad6611210565b6004811115610ae757610ae7611210565b81526020016004820160019054906101000a900460ff166007811115610b0f57610b0f611210565b6007811115610b2057610b20611210565b81526020016005820154815260200160068201548152602001600782015481526020016008820154815260200160098201548152602001600a8201548152602001600b8201805480602002602001604051908101604052809291908181526020016000905b82821015610c31578382906000526020600020018054610ba4906118ce565b80601f0160208091040260200160405190810160405280929190818152602001828054610bd0906118ce565b8015610c1d5780601f10610bf257610100808354040283529160200191610c1d565b820191906000526020600020905b815481529060010190602001808311610c0057829003601f168201915b505050505081526020019060010190610b85565b505050508152602001600c8201805480602002602001604051908101604052809291908181526020018280548015610c9257602002820191906000526020600020905b81546001600160a01b03168152600190910190602001808311610c74575b50505050508152602001600d8201805480602002602001604051908101604052809291908181526020018280548015610cea57602002820191906000526020600020905b815481526020019060010190808311610cd6575b50505050508152602001600e820154815250509050919050565b6000818152600160208190526040909120908101546001600160a01b0316331480610d3957506000546001600160a01b031633145b610d765760405162461bcd60e51b815260206004820152600e60248201526d139bdd08185d5d1a1bdc9a5e995960921b604482015260640161043c565b60006004820154610100900460ff166007811115610d9657610d96611210565b1480610dbf575060016004820154610100900460ff166007811115610dbd57610dbd611210565b145b610dfb5760405162461bcd60e51b815260206004820152600d60248201526c10d85b9b9bdd0818d85b98d95b609a1b604482015260640161043c565b60048101805461ff00191661020017905560405182907f789cf55be980739dad1d0699b93b58e806b51c9d96619bfa8fe0a28abaa7b30c90600090a25050565b610e43610f3f565b6000828152600160205260409020600480820154610100900460ff166007811115610e7057610e70611210565b14610ead5760405162461bcd60e51b815260206004820152600d60248201526c139bdd081cdd58d8d959591959609a1b604482015260640161043c565b60048101805461050061ff0019909116179055600a810182905560405182815283907f9a2e42fd6722813d69113e7d0079d3d940171428df7373df9c7f7617cfda28929060200160405180910390a2505050565b610f09610f3f565b6001600160a01b038116610f3357604051631e4fbdf760e01b81526000600482015260240161043c565b610f3c81610f6c565b50565b6000546001600160a01b031633146108405760405163118cdaa760e01b815233600482015260240161043c565b600080546001600160a01b038381166001600160a01b0319831681178455604051919092169283917f8be0079c531659141344cd1fd0a4f28419497f9722a3daafe3b4186f6b6457e09190a35050565b828054828255906000526020600020908101928215611002579160200282015b828111156110025782518290610ff290826119bb565b5091602001919060010190610fdc565b5061100e929150611145565b5090565b828054828255906000526020600020908101928215611067579160200282015b8281111561106757825182546001600160a01b0319166001600160a01b03909116178255602090920191600190910190611032565b5061100e929150611162565b828054828255906000526020600020908101928215611067579160200282015b82811115611067578251825591602001919060010190611093565b6040518061020001604052806000815260200160006001600160a01b031681526020016060815260200160608152602001600060048111156110f2576110f2611210565b815260200160008152602001600081526020016000815260200160008152602001600081526020016000815260200160008152602001606081526020016060815260200160608152602001600081525090565b8082111561100e5760006111598282611177565b50600101611145565b5b8082111561100e5760008155600101611163565b508054611183906118ce565b6000825580601f10611193575050565b601f016020900490600052602060002090810190610f3c9190611162565b6000602082840312156111c357600080fd5b5035919050565b6000815180845260005b818110156111f0576020818501810151868301820152016111d4565b506000602082860101526020601f19601f83011685010191505092915050565b634e487b7160e01b600052602160045260246000fd5b6005811061123657611236611210565b9052565b6008811061123657611236611210565b8d81526001600160a01b038d1660208201526101a0604082018190526000906112758382018f6111ca565b90508281036060840152611289818e6111ca565b915050611299608083018c611226565b6112a660a083018b61123a565b60c082019890985260e0810196909652610100860194909452610120850192909252610140840152610160830152610180909101529695505050505050565b634e487b7160e01b600052604160045260246000fd5b604051601f8201601f1916810167ffffffffffffffff81118282101715611324576113246112e5565b604052919050565b600067ffffffffffffffff831115611346576113466112e5565b611359601f8401601f19166020016112fb565b905082815283838301111561136d57600080fd5b828260208301376000602084830101529392505050565b600082601f83011261139557600080fd5b6109268383356020850161132c565b8035600581106113b357600080fd5b919050565b600067ffffffffffffffff8211156113d2576113d26112e5565b5060051b60200190565b80356001600160a01b03811681146113b357600080fd5b600082601f83011261140457600080fd5b81356020611419611414836113b8565b6112fb565b82815260059290921b8401810191818101908684111561143857600080fd5b8286015b8481101561145a5761144d816113dc565b835291830191830161143c565b509695505050505050565b600082601f83011261147657600080fd5b81356020611486611414836113b8565b82815260059290921b840181019181810190868411156114a557600080fd5b8286015b8481101561145a57803583529183019183016114a9565b600082601f8301126114d157600080fd5b813560206114e1611414836113b8565b82815260059290921b8401810191818101908684111561150057600080fd5b8286015b8481101561145a57803567ffffffffffffffff8111156115245760008081fd5b8701603f810189136115365760008081fd5b61154789868301356040840161132c565b845250918301918301611504565b60008060008060008060c0878903121561156e57600080fd5b863567ffffffffffffffff8082111561158657600080fd5b6115928a838b01611384565b975060208901359150808211156115a857600080fd5b6115b48a838b01611384565b96506115c260408a016113a4565b955060608901359150808211156115d857600080fd5b6115e48a838b016113f3565b945060808901359150808211156115fa57600080fd5b6116068a838b01611465565b935060a089013591508082111561161c57600080fd5b5061162989828a016114c0565b9150509295509295509295565b60208101611644828461123a565b92915050565b6000806000806080858703121561166057600080fd5b5050823594602084013594506040840135936060013592509050565b600081518084526020808501808196508360051b8101915082860160005b858110156116c45782840389526116b28483516111ca565b9885019893509084019060010161169a565b5091979650505050505050565b600081518084526020808501945080840160005b8381101561170a5781516001600160a01b0316875295820195908201906001016116e5565b509495945050505050565b600081518084526020808501945080840160005b8381101561170a57815187529582019590820190600101611729565b60208152815160208201526000602083015161176c60408401826001600160a01b03169052565b5060408301516102008060608501526117896102208501836111ca565b91506060850151601f19808685030160808701526117a784836111ca565b9350608087015191506117bd60a0870183611226565b60a087015191506117d160c087018361123a565b60c087015160e087810191909152870151610100808801919091528701516101208088019190915287015161014080880191909152870151610160808801919091528701516101808088019190915287015186850382016101a08089019190915290925061183f858461167c565b9450808801519250506101c081878603018188015261185e85846116d1565b9450808801519250506101e081878603018188015261187d8584611715565b970151959092019490945250929392505050565b600080604083850312156118a457600080fd5b50508035926020909101359150565b6000602082840312156118c557600080fd5b610926826113dc565b600181811c908216806118e257607f821691505b60208210810361190257634e487b7160e01b600052602260045260246000fd5b50919050565b634e487b7160e01b600052601160045260246000fd5b60006001820161193057611930611908565b5060010190565b60008261195457634e487b7160e01b600052601260045260246000fd5b500490565b8082018082111561164457611644611908565b601f8211156119b657600081815260208120601f850160051c810160208610156119935750805b601f850160051c820191505b818110156119b25782815560010161199f565b5050505b505050565b815167ffffffffffffffff8111156119d5576119d56112e5565b6119e9816119e384546118ce565b8461196c565b602080601f831160018114611a1e5760008415611a065750858301515b600019600386901b1c1916600185901b1785556119b2565b600085815260208120601f198616915b82811015611a4d57888601518255948401946001909101908401611a2e565b5085821015611a6b5787850151600019600388901b60f8161c191681555b5050505050600190811b01905550565b604081526000611a8e60408301856111ca565b9050610926602083018461122656fea264697066735822122090eca07089c890b5d46647c00cb3a0f190b5c0109a5341a6c1b32555d81d351264736f6c63430008140033",
  "linkReferences": {},
  "deployedLinkReferences": {}
}