{
  "_format": "hh-sol-artifact-1",
  "contractName": "ProposalSystem",
  "sourceName": "contracts/dao/ProposalSystem.sol",
  "abi": [
    {
      "inputs": [],
      "stateMutability": "nonpayable",
      "type": "constructor"
    },
    {
      "inputs": [
        {
          "internalType": "address",
          "name": "owner",
          "type": "address"
        }
      ],
      "name": "OwnableInvalidOwner",
      "type": "error"
    },
    {
      "inputs": [
        {
          "internalType": "address",
          "name": "account",
          "type": "address"
        }
      ],
      "name": "OwnableUnauthorizedAccount",
      "type": "error"
    },
    {
      "anonymous": false,
      "inputs": [
        {
          "indexed": true,
          "internalType": "address",
          "name": "previousOwner",
          "type": "address"
        },
        {
          "indexed": true,
          "internalType": "address",
          "name": "newOwner",
          "type": "address"
        }
      ],
      "name": "OwnershipTransferred",
      "type": "event"
    },
    {
      "anonymous": false,
      "inputs": [
        {
          "indexed": true,
          "internalType": "uint256",
          "name": "proposalId",
          "type": "uint256"
        }
      ],
      "name": "ProposalCanceled",
      "type": "event"
    },
    {
      "anonymous": false,
      "inputs": [
        {
          "indexed": true,
          "internalType": "uint256",
          "name": "proposalId",
          "type": "uint256"
        },
        {
          "indexed": true,
          "internalType": "address",
          "name": "proposer",
          "type": "address"
        },
        {
          "indexed": false,
          "internalType": "string",
          "name": "title",
          "type": "string"
        },
        {
          "indexed": false,
          "internalType": "enum ProposalSystem.ProposalType",
          "name": "proposalType",
          "type": "uint8"
        }
      ],
      "name": "ProposalCreated",
      "type": "event"
    },
    {
      "anonymous": false,
      "inputs": [
        {
          "indexed": true,
          "internalType": "uint256",
          "name": "proposalId",
          "type": "uint256"
        }
      ],
      "name": "ProposalExecuted",
      "type": "event"
    },
    {
      "anonymous": false,
      "inputs": [
        {
          "indexed": true,
          "internalType": "uint256",
          "name": "proposalId",
          "type": "uint256"
        },
        {
          "indexed": false,
          "internalType": "uint256",
          "name": "eta",
          "type": "uint256"
        }
      ],
      "name": "ProposalQueued",
      "type": "event"
    },
    {
      "inputs": [
        {
          "internalType": "uint256",
          "name": "proposalId",
          "type": "uint256"
        }
      ],
      "name": "cancelProposal",
      "outputs": [],
      "stateMutability": "nonpayable",
      "type": "function"
    },
    {
      "inputs": [
        {
          "internalType": "string",
          "name": "title",
          "type": "string"
        },
        {
          "internalType": "string",
          "name": "description",
          "type": "string"
        },
        {
          "internalType": "enum ProposalSystem.ProposalType",
          "name": "proposalType",
          "type": "uint8"
        },
        {
          "internalType": "address[]",
          "name": "targets",
          "type": "address[]"
        },
        {
          "internalType": "uint256[]",
          "name": "values",
          "type": "uint256[]"
        },
        {
          "internalType": "bytes[]",
          "name": "calldatas",
          "type": "bytes[]"
        }
      ],
      "name": "createProposal",
      "outputs": [
        {
          "internalType": "uint256",
          "name": "",
          "type": "uint256"
        }
      ],
      "stateMutability": "nonpayable",
      "type": "function"
    },
    {
      "inputs": [
        {
          "internalType": "uint256",
          "name": "proposalId",
          "type": "uint256"
        }
      ],
      "name": "executeProposal",
      "outputs": [],
      "stateMutability": "nonpayable",
      "type": "function"
    },
    {
      "inputs": [
        {
          "internalType": "uint256",
          "name": "proposalId",
          "type": "uint256"
        }
      ],
      "name": "getProposal",
      "outputs": [
        {
          "components": [
            {
              "internalType": "uint256",
              "name": "id",
              "type": "uint256"
            },
            {
              "internalType": "address",
              "name": "proposer",
              "type": "address"
            },
            {
              "internalType": "string",
              "name": "title",
              "type": "string"
            },
            {
              "internalType": "string",
              "name": "description",
              "type": "string"
            },
            {
              "internalType": "enum ProposalSystem.ProposalType",
              "name": "proposalType",
              "type": "uint8"
            },
            {
              "internalType": "enum ProposalSystem.ProposalState",
              "name": "state",
              "type": "uint8"
            },
            {
              "internalType": "uint256",
              "name": "forVotes",
              "type": "uint256"
            },
            {
              "internalType": "uint256",
              "name": "againstVotes",
              "type": "uint256"
            },
            {
              "internalType": "uint256",
              "name": "abstainVotes",
              "type": "uint256"
            },
            {
              "internalType": "uint256",
              "name": "startBlock",
              "type": "uint256"
            },
            {
              "internalType": "uint256",
              "name": "endBlock",
              "type": "uint256"
            },
            {
              "internalType": "uint256",
              "name": "eta",
              "type": "uint256"
            },
            {
              "internalType": "bytes[]",
              "name": "calldatas",
              "type": "bytes[]"
            },
            {
              "internalType": "address[]",
              "name": "targets",
              "type": "address[]"
            },
            {
              "internalType": "uint256[]",
              "name": "values",
              "type": "uint256[]"
            },
            {
              "internalType": "uint256",
              "name": "createdAt",
              "type": "uint256"
            }
          ],
          "internalType": "struct ProposalSystem.Proposal",
          "name": "",
          "type": "tuple"
        }
      ],
      "stateMutability": "view",
      "type": "function"
    },
    {
      "inputs": [
        {
          "internalType": "uint256",
          "name": "proposalId",
          "type": "uint256"
        }
      ],
      "name": "getProposalState",
      "outputs": [
        {
          "internalType": "enum ProposalSystem.ProposalState",
          "name": "",
          "type": "uint8"
        }
      ],
      "stateMutability": "view",
      "type": "function"
    },
    {
      "inputs": [],
      "name": "owner",
      "outputs": [
        {
          "internalType": "address",
          "name": "",
          "type": "address"
        }
      ],
      "stateMutability": "view",
      "type": "function"
    },
    {
      "inputs": [],
      "name": "proposalCount",
      "outputs": [
        {
          "internalType": "uint256",
          "name": "",
          "type": "uint256"
        }
      ],
      "stateMutability": "view",
      "type": "function"
    },
    {
      "inputs": [],
      "name": "proposalThreshold",
      "outputs": [
        {
          "internalType": "uint256",
          "name": "",
          "type": "uint256"
        }
      ],
      "stateMutability": "view",
      "type": "function"
    },
    {
      "inputs": [
        {
          "internalType": "uint256",
          "name": "",
          "type": "uint256"
        }
      ],
      "name": "proposals",
      "outputs": [
        {
          "internalType": "uint256",
          "name": "id",
          "type": "uint256"
        },
        {
          "internalType": "address",
          "name": "proposer",
          "type": "address"
        },
        {
          "internalType": "string",
          "name": "title",
          "type": "string"
        },
        {
          "internalType": "string",
          "name": "description",
          "type": "string"
        },
        {
          "internalType": "enum ProposalSystem.ProposalType",
          "name": "proposalType",
          "type": "uint8"
        },
        {
          "internalType": "enum ProposalSystem.ProposalState",
          "name": "state",
          "type": "uint8"
        },
        {
          "internalType": "uint256",
          "name": "forVotes",
          "type": "uint256"
        },
        {
          "internalType": "uint256",
          "name": "againstVotes",
          "type": "uint256"
        },
        {
          "internalType": "uint256",
          "name": "abstainVotes",
          "type": "uint256"
        },
        {
          "internalType": "uint256",
          "name": "startBlock",
          "type": "uint256"
        },
        {
          "internalType": "uint256",
          "name": "endBlock",
          "type": "uint256"
        },
        {
          "internalType": "uint256",
          "name": "eta",
          "type": "uint256"
        },
        {
          "internalType": "uint256",
          "name": "createdAt",
          "type": "uint256"
        }
      ],
      "stateMutability": "view",
      "type": "function"
    },
    {
      "inputs": [
        {
          "internalType": "uint256",
          "name": "proposalId",
          "type": "uint256"
        },
        {
          "internalType": "uint256",
          "name": "eta",
          "type": "uint256"
        }
      ],
      "name": "queueProposal",
      "outputs": [],
      "stateMutability": "nonpayable",
      "type": "function"
    },
    {
      "inputs": [],
      "name": "quorum",
      "outputs": [
        {
          "internalType": "uint256",
          "name": "",
          "type": "uint256"
        }
      ],
      "stateMutability": "view",
      "type": "function"
    },
    {
      "inputs": [],
      "name": "renounceOwnership",
      "outputs": [],
      "stateMutability": "nonpayable",
      "type": "function"
    },
    {
      "inputs": [
        {
          "internalType": "address",
          "name": "newOwner",
          "type": "address"
        }
      ],
      "name": "transferOwnership",
      "outputs": [],
      "stateMutability": "nonpayable",
      "type": "function"
    },
    {
      "inputs": [
        {
          "internalType": "uint256",
          "name": "newVotingDelay",
          "type": "uint256"
        },
        {
          "internalType": "uint256",
          "name": "newVotingPeriod",
          "type": "uint256"
        },
        {
          "internalType": "uint256",
          "name": "newProposalThreshold",
          "type": "uint256"
        },
        {
          "internalType": "uint256",
          "name": "newQuorum",
          "type": "uint256"
        }
      ],
      "name": "updateVotingParameters",
      "outputs": [],
      "stateMutability": "nonpayable",
      "type": "function"
    },
    {
      "inputs": [],
      "name": "votingDelay",
      "outputs": [
        {
          "internalType": "uint256",
          "name": "",
          "type": "uint256"
        }
      ],
      "stateMutability": "view",
      "type": "function"
    },
    {
      "inputs": [],
      "name": "votingPeriod",
      "outputs": [
        {
          "internalType": "uint256",
          "name": "",
          "type": "uint256"
        }
      ],
      "stateMutability": "view",
      "type": "function"
    }
  ],
  "bytecode": "0x608080604052346100a557331561008f5760008054336001600160a01b03198216811783556040519290916001600160a01b0316907f8be0079c531659141344cd1fd0a4f28419497f9722a3daafe3b4186f6b6457e09080a3620151806003556203f48060045569152d02c7e14af68000006005556a034f086f3b33b684000000600655611b6990816100ab8239f35b631e4fbdf760e01b815260006004820152602490fd5b600080fdfe6080604052600436101561001257600080fd5b60003560e01c8063013cf08b146115d857806302a251a3146115ba5780630d61b5191461145c5780631703a0181461143e5780633367555414610ad45780633932abb114610ab6578063715018a614610a385780638da5cb5b14610a045780639080936f146109d7578063b58131b0146109b9578063bac7c89014610986578063c7f758a814610480578063da35c66414610462578063e0a8f6f5146102cb578063ec3da64c146101965763f2fde38b146100cc57600080fd5b346101915760206003193601126101915760043573ffffffffffffffffffffffffffffffffffffffff80821680920361019157610107611911565b811561016057600054827fffffffffffffffffffffffff0000000000000000000000000000000000000000821617600055167f8be0079c531659141344cd1fd0a4f28419497f9722a3daafe3b4186f6b6457e0600080a3005b60246040517f1e4fbdf700000000000000000000000000000000000000000000000000000000815260006004820152fd5b600080fd5b34610191576040600319360112610191576004356024356101b5611911565b8160005260016020526040600020600481019182549260ff8460081c16600881101561029c5760040361023e57600a60209383926105007fffffffffffffffffffffffffffffffffffffffffffffffffffffffffffff00ff7f9a2e42fd6722813d69113e7d0079d3d940171428df7373df9c7f7617cfda289298161790550155604051908152a2005b60646040517f08c379a000000000000000000000000000000000000000000000000000000000815260206004820152600d60248201527f4e6f7420737563636565646564000000000000000000000000000000000000006044820152fd5b7f4e487b7100000000000000000000000000000000000000000000000000000000600052602160045260246000fd5b3461019157602060031936011261019157600435806000526001602052604060002073ffffffffffffffffffffffffffffffffffffffff806001830154163314908115610454575b50156103f657600401805460ff8160081c16600881101561029c5780159081156103eb575b501561038d577fffffffffffffffffffffffffffffffffffffffffffffffffffffffffffff00ff166102001790557f789cf55be980739dad1d0699b93b58e806b51c9d96619bfa8fe0a28abaa7b30c600080a2005b60646040517f08c379a000000000000000000000000000000000000000000000000000000000815260206004820152600d60248201527f43616e6e6f742063616e63656c000000000000000000000000000000000000006044820152fd5b600191501484610338565b60646040517f08c379a000000000000000000000000000000000000000000000000000000000815260206004820152600e60248201527f4e6f7420617574686f72697a65640000000000000000000000000000000000006044820152fd5b905060005416331483610313565b34610191576000600319360112610191576020600254604051908152f35b346101915760206003193601126101915760006101e06040516104a281611735565b828152826020820152606060408201526060808201528260808201528260a08201528260c08201528260e082015282610100820152826101208201528261014082015282610160820152606061018082015260606101a082015260606101c082015201526004356000526001602052604060002060405161052281611735565b8154815273ffffffffffffffffffffffffffffffffffffffff600183015416602082015261055260028301611775565b604082015261056360038301611775565b6060820152600482015461057d60ff8216608084016119d4565b600860ff82821c16101561029c5760ff9060081c1660a0820152600582015460c0820152600682015460e0820152600782015461010082015260088201546101208201526009820154610140820152600a820154610160820152600b8201546105e5816118f9565b906105f36040519283611752565b8082526020820190600b85016000526020600020916000905b8282106108c357505050506101808201526040518081600c85016020815493848152019060005260206000209260005b81811061089457505061065192500382611752565b6101a08201526040519182600d8201936020855491828152019460005260206000209060005b81811061087e5750505061069081600e94950382611752565b6101c084015201546101e0820152604051602081528151602082015273ffffffffffffffffffffffffffffffffffffffff60208301511660408201526107006106ea6040840151610200606085015261022084019061183a565b6060840151601f1984830301608085015261183a565b610712608084015160a084019061187a565b61072460a084015160c0840190611887565b60c083015160e083015260e083015161010083015261010083015161012083015261012083015161014083015261014083015161016083015261016083015161018083015261018083015190601f19838203016101a0840152815180825260208201916020808360051b8301019401926000915b838310610851578787876101a083015190601f19838203016101c08401526020808351928381520192019060005b818110610825575050506101c083015190601f19838203016101e08401526020808351928381520192019060005b81811061080f575050506101e0829301516102008301520390f35b82518452602093840193909201916001016107f4565b825173ffffffffffffffffffffffffffffffffffffffff168452602093840193909201916001016107c6565b909192939460208061086f83601f198660019603018752895161183a565b97019301930191939290610798565b8254875260209096019560019283019201610677565b845473ffffffffffffffffffffffffffffffffffffffff1683526001948501948694506020909301920161063c565b604051600085546108d3816116e2565b8084529060018116908115610945575060011461090d575b50600192826108ff85946020940382611752565b81520194019101909261060c565b6000878152602081209092505b81831061092f575050810160200160016108eb565b600181602092548386880101520192019161091a565b7fffffffffffffffffffffffffffffffffffffffffffffffffffffffffffffff001660208581019190915291151560051b84019091019150600190506108eb565b346101915760806003193601126101915761099f611911565b600480356003556024359055604435600555606435600655005b34610191576000600319360112610191576020600554604051908152f35b346101915760206003193601126101915760206109f5600435611a5f565b610a026040518092611887565bf35b3461019157600060031936011261019157602073ffffffffffffffffffffffffffffffffffffffff60005416604051908152f35b3461019157600060031936011261019157610a51611911565b600073ffffffffffffffffffffffffffffffffffffffff81547fffffffffffffffffffffffff000000000000000000000000000000000000000081168355167f8be0079c531659141344cd1fd0a4f28419497f9722a3daafe3b4186f6b6457e08280a3005b34610191576000600319360112610191576020600354604051908152f35b346101915760c06003193601126101915760043567ffffffffffffffff811161019157610b059036906004016118db565b60243567ffffffffffffffff811161019157610b259036906004016118db565b9060056044351015610191576064359067ffffffffffffffff82116101915736602383011215610191578160040135610b5d816118f9565b92610b6b6040519485611752565b8184526024602085019260051b8201019036821161019157602401915b8183106114115750505067ffffffffffffffff608435116101915736602360843501121561019157610bbf608435600401356118f9565b610bcc6040519182611752565b608435600401358152602081013660246084356004013560051b60843501011161019157602460843501905b60246084356004013560051b6084350101821061140157505067ffffffffffffffff60a435116101915736602360a43501121561019157610c3e60a435600401356118f9565b92610c4c6040519485611752565b60a4356004013584526020840136602460a4356004013560051b60a43501011161019157602460a43501905b602460a4356004013560051b60a435010182106113b9575050610c9e8151835114611962565b610cab8151855114611962565b80511561135b5760025493600019851461132c5760018501600255610cd5600c60035404436119c7565b610ce4600c60045404826119c7565b9060405197610cf289611735565b8789523360208a01528660408a01526060890152610d1560443560808a016119d4565b600060a0890152600060c0890152600060e0890152600061010089015261012088015261014087015260006101608701526101808601526101a08501526101c0840152426101e084015281600052600160205260406000208351815573ffffffffffffffffffffffffffffffffffffffff60208501511660018201907fffffffffffffffffffffffff0000000000000000000000000000000000000000825416179055604084015180519067ffffffffffffffff821161107e578190610deb82610de260028701546116e2565b600287016119f7565b602090601f83116001146112ba576000926112af575b50506000198260011b9260031b1c19161760028201555b606084015180519067ffffffffffffffff821161107e578190610e4b82610e4260038701546116e2565b600387016119f7565b602090601f831160011461123d57600092611232575b50506000198260011b9260031b1c19161760038201555b6080840151600581101561029c57600482015460a0860151600881101561029c5760ff61ff007fffffffffffffffffffffffffffffffffffffffffffffffffffffffffffff00009260081b16931691161717600482015560c0840151600582015560e08401516006820155610100840151600782015561012084015160088201556101408401516009820155610160840151600a82015561018084015180519068010000000000000000821161107e57600b83015482600b8501558083106111ba575b5060200190600b83016000526020600020916000905b8282106110d757505050506101a084015180519067ffffffffffffffff821161107e5768010000000000000000821161107e576020600c840191610f9a84845481865585611a3c565b0190600052602060002060005b8381106110ad5750505050600d8101936101c081015180519067ffffffffffffffff821161107e5768010000000000000000821161107e57602090610ff1838954818b558a611a3c565b019560005260206000209560005b82811061106a576020878787600e6101e0890151910155817fe0269f7953e70365e80e614e4efe7d4bede59b7f5ad80982ea4064c97ee6f4ef61104d6040519360408552604085019061183a565b9261105c86820160443561187a565b8033940390a3604051908152f35b60019060208351930192818a015501610fff565b7f4e487b7100000000000000000000000000000000000000000000000000000000600052604160045260246000fd5b600190602073ffffffffffffffffffffffffffffffffffffffff8551169401938184015501610fa7565b805180519067ffffffffffffffff821161107e576110ff826110f988546116e2565b886119f7565b602090601f831160011461114a57928260019493602093869560009261113f575b505060001982861b9260031b1c19161787555b01940191019092610f51565b015190508d80611120565b908660005260206000209160005b601f19851681106111a25750836020936001969387969383601f1989961610611189575b505050811b018755611133565b015160001960f88460031b161c191690558d808061117c565b91926020600181928685015181550194019201611158565b600b84016000526020600020908382015b81830181106111db575050610f3b565b806111e8600192546116e2565b806111f5575b50016111cb565b601f8111831461120b5750600081555b8a6111ee565b600090828252611229601f60208420920160051c82018583016119e0565b81835555611205565b015190508680610e61565b9250600384016000526020600020906000935b601f1984168510611294576001945083601f1981161061127b575b505050811b016003820155610e78565b015160001960f88460031b161c1916905586808061126b565b81810151835560209485019460019093019290910190611250565b015190508680610e01565b9250600284016000526020600020906000935b601f1984168510611311576001945083601f198116106112f8575b505050811b016002820155610e18565b015160001960f88460031b161c191690558680806112e8565b818101518355602094850194600190930192909101906112cd565b7f4e487b7100000000000000000000000000000000000000000000000000000000600052601160045260246000fd5b60646040517f08c379a000000000000000000000000000000000000000000000000000000000815260206004820152600e60248201527f456d7074792070726f706f73616c0000000000000000000000000000000000006044820152fd5b813567ffffffffffffffff8111610191573660438260a435010112156101915760209182916113f690369060a43501602481013590604401611894565b815201910190610c78565b8135815260209182019101610bf8565b823573ffffffffffffffffffffffffffffffffffffffff8116810361019157815260209283019201610b88565b34610191576000600319360112610191576020600654604051908152f35b3461019157602060031936011261019157600435611478611911565b8060005260016020526040600020600481019081549060ff8260081c16600881101561029c5760050361155c57600a015442106114fe577fffffffffffffffffffffffffffffffffffffffffffffffffffffffffffff00ff166107001790557f712ae1383f79ac853f8d882153778e0260ef8f03b504e2866e0593e04d2b291f600080a2005b60646040517f08c379a000000000000000000000000000000000000000000000000000000000815260206004820152600960248201527f4e6f7420726561647900000000000000000000000000000000000000000000006044820152fd5b60646040517f08c379a000000000000000000000000000000000000000000000000000000000815260206004820152600a60248201527f4e6f7420717565756564000000000000000000000000000000000000000000006044820152fd5b34610191576000600319360112610191576020600454604051908152f35b3461019157602060031936011261019157600435600052600160205260406000208054600182015473ffffffffffffffffffffffffffffffffffffffff16916002810161162490611775565b61163060038301611775565b9160048101549260058201546006830154600784015490600885015492600986015494600a87015496600e0154976040519b8c9b8c5260208c01526101a08060408d01528b0161167f9161183a565b8a810360608c01526116909161183a565b976116a160808b0160ff831661187a565b60a08a019060081c60ff16906116b691611887565b60c089015260e08801526101008701526101208601526101408501526101608401526101808301520390f35b90600182811c9216801561172b575b60208310146116fc57565b7f4e487b7100000000000000000000000000000000000000000000000000000000600052602260045260246000fd5b91607f16916116f1565b610200810190811067ffffffffffffffff82111761107e57604052565b90601f601f19910116810190811067ffffffffffffffff82111761107e57604052565b9060405191826000825492611789846116e2565b9081845260019485811690816000146117f857506001146117b5575b50506117b392500383611752565b565b9093915060005260209081600020936000915b8183106117e05750506117b3935082010138806117a5565b855488840185015294850194879450918301916117c8565b90506117b39550602093507fffffffffffffffffffffffffffffffffffffffffffffffffffffffffffffff0091501682840152151560051b82010138806117a5565b919082519283825260005b848110611866575050601f19601f8460006020809697860101520116010190565b602081830181015184830182015201611845565b90600582101561029c5752565b90600882101561029c5752565b92919267ffffffffffffffff821161107e57604051916118be6020601f19601f8401160184611752565b829481845281830111610191578281602093846000960137010152565b9080601f83011215610191578160206118f693359101611894565b90565b67ffffffffffffffff811161107e5760051b60200190565b73ffffffffffffffffffffffffffffffffffffffff60005416330361193257565b60246040517f118cdaa7000000000000000000000000000000000000000000000000000000008152336004820152fd5b1561196957565b60646040517f08c379a000000000000000000000000000000000000000000000000000000000815260206004820152600f60248201527f4c656e677468206d69736d6174636800000000000000000000000000000000006044820152fd5b9190820180921161132c57565b600582101561029c5752565b8181106119eb575050565b600081556001016119e0565b9190601f8111611a0657505050565b6117b3926000526020600020906020601f840160051c83019310611a32575b601f0160051c01906119e0565b9091508190611a25565b91818110611a4957505050565b6117b392600052602060002091820191016119e0565b600090815260016020526040812060ff600482015460081c16906008821015611b065760028214611afe5760078214611af65760088101544310611af1576009810154431115611ae9576006600582015491015481119081611adc575b50611ac8575050600390565b600514159050611ad757600590565b600490565b9050600654111538611abc565b505050600190565b505090565b505050600790565b505050600290565b6024837f4e487b710000000000000000000000000000000000000000000000000000000081526021600452fdfea2646970667358221220b34534bff6b24d38f74cc0878a1febf769677129e278b31faf086b65121b68d764736f6c63430008140033",
  "linkReferences": {},
  "deployedLinkReferences": {}
}