{
  "_format": "hh-sol-artifact-1",
  "contractName": "FanRewards",
  "sourceName": "contracts/layer5/FanRewards.sol",
  "abi": [
    {
      "inputs": [
        {
          "internalType": "address",
          "name": "_treasury",
          "type": "address"
        }
      ],
      "stateMutability": "nonpayable",
      "type": "constructor"
    },
    {
      "inputs": [],
      "name": "AccessControlBadConfirmation",
      "type": "error"
    },
    {
      "inputs": [
        {
          "internalType": "address",
          "name": "account",
          "type": "address"
        },
        {
          "internalType": "bytes32",
          "name": "neededRole",
          "type": "bytes32"
        }
      ],
      "name": "AccessControlUnauthorizedAccount",
      "type": "error"
    },
    {
      "inputs": [],
      "name": "ReentrancyGuardReentrantCall",
      "type": "error"
    },
    {
      "anonymous": false,
      "inputs": [
        {
          "indexed": true,
          "internalType": "address",
          "name": "fan",
          "type": "address"
        },
        {
          "indexed": false,
          "internalType": "uint256",
          "name": "badgeId",
          "type": "uint256"
        },
        {
          "indexed": false,
          "internalType": "string",
          "name": "name",
          "type": "string"
        }
      ],
      "name": "BadgeEarned",
      "type": "event"
    },
    {
      "anonymous": false,
      "inputs": [
        {
          "indexed": true,
          "internalType": "address",
          "name": "fan",
          "type": "address"
        }
      ],
      "name": "FanRegistered",
      "type": "event"
    },
    {
      "anonymous": false,
      "inputs": [
        {
          "indexed": true,
          "internalType": "address",
          "name": "fan",
          "type": "address"
        },
        {
          "indexed": false,
          "internalType": "uint256",
          "name": "amount",
          "type": "uint256"
        },
        {
          "indexed": false,
          "internalType": "string",
          "name": "activity",
          "type": "string"
        }
      ],
      "name": "PointsEarned",
      "type": "event"
    },
    {
      "anonymous": false,
      "inputs": [
        {
          "indexed": true,
          "internalType": "address",
          "name": "fan",
          "type": "address"
        },
        {
          "indexed": false,
          "internalType": "uint256",
          "name": "amount",
          "type": "uint256"
        },
        {
          "indexed": false,
          "internalType": "uint256",
          "name": "rewardId",
          "type": "uint256"
        }
      ],
      "name": "PointsSpent",
      "type": "event"
    },
    {
      "anonymous": false,
      "inputs": [
        {
          "indexed": true,
          "internalType": "uint256",
          "name": "rewardId",
          "type": "uint256"
        },
        {
          "indexed": false,
          "internalType": "string",
          "name": "name",
          "type": "string"
        },
        {
          "indexed": false,
          "internalType": "uint256",
          "name": "pointCost",
          "type": "uint256"
        }
      ],
      "name": "RewardCreated",
      "type": "event"
    },
    {
      "anonymous": false,
      "inputs": [
        {
          "indexed": true,
          "internalType": "uint256",
          "name": "rewardId",
          "type": "uint256"
        },
        {
          "indexed": true,
          "internalType": "address",
          "name": "fan",
          "type": "address"
        }
      ],
      "name": "RewardRedeemed",
      "type": "event"
    },
    {
      "anonymous": false,
      "inputs": [
        {
          "indexed": true,
          "internalType": "bytes32",
          "name": "role",
          "type": "bytes32"
        },
        {
          "indexed": true,
          "internalType": "bytes32",
          "name": "previousAdminRole",
          "type": "bytes32"
        },
        {
          "indexed": true,
          "internalType": "bytes32",
          "name": "newAdminRole",
          "type": "bytes32"
        }
      ],
      "name": "RoleAdminChanged",
      "type": "event"
    },
    {
      "anonymous": false,
      "inputs": [
        {
          "indexed": true,
          "internalType": "bytes32",
          "name": "role",
          "type": "bytes32"
        },
        {
          "indexed": true,
          "internalType": "address",
          "name": "account",
          "type": "address"
        },
        {
          "indexed": true,
          "internalType": "address",
          "name": "sender",
          "type": "address"
        }
      ],
      "name": "RoleGranted",
      "type": "event"
    },
    {
      "anonymous": false,
      "inputs": [
        {
          "indexed": true,
          "internalType": "bytes32",
          "name": "role",
          "type": "bytes32"
        },
        {
          "indexed": true,
          "internalType": "address",
          "name": "account",
          "type": "address"
        },
        {
          "indexed": true,
          "internalType": "address",
          "name": "sender",
          "type": "address"
        }
      ],
      "name": "RoleRevoked",
      "type": "event"
    },
    {
      "anonymous": false,
      "inputs": [
        {
          "indexed": true,
          "internalType": "address",
          "name": "fan",
          "type": "address"
        },
        {
          "indexed": false,
          "internalType": "uint256",
          "name": "streak",
          "type": "uint256"
        }
      ],
      "name": "StreakUpdated",
      "type": "event"
    },
    {
      "anonymous": false,
      "inputs": [
        {
          "indexed": true,
          "internalType": "address",
          "name": "fan",
          "type": "address"
        },
        {
          "indexed": false,
          "internalType": "uint256",
          "name": "oldTier",
          "type": "uint256"
        },
        {
          "indexed": false,
          "internalType": "uint256",
          "name": "newTier",
          "type": "uint256"
        }
      ],
      "name": "TierUpgraded",
      "type": "event"
    },
    {
      "inputs": [],
      "name": "DEFAULT_ADMIN_ROLE",
      "outputs": [
        {
          "internalType": "bytes32",
          "name": "",
          "type": "bytes32"
        }
      ],
      "stateMutability": "view",
      "type": "function"
    },
    {
      "inputs": [],
      "name": "REWARDS_MANAGER",
      "outputs": [
        {
          "internalType": "bytes32",
          "name": "",
          "type": "bytes32"
        }
      ],
      "stateMutability": "view",
      "type": "function"
    },
    {
      "inputs": [
        {
          "internalType": "uint256",
          "name": "",
          "type": "uint256"
        }
      ],
      "name": "athleteFanCount",
      "outputs": [
        {
          "internalType": "uint256",
          "name": "",
          "type": "uint256"
        }
      ],
      "stateMutability": "view",
      "type": "function"
    },
    {
      "inputs": [],
      "name": "betPlacedPoints",
      "outputs": [
        {
          "internalType": "uint256",
          "name": "",
          "type": "uint256"
        }
      ],
      "stateMutability": "view",
      "type": "function"
    },
    {
      "inputs": [],
      "name": "cardPurchasePoints",
      "outputs": [
        {
          "internalType": "uint256",
          "name": "",
          "type": "uint256"
        }
      ],
      "stateMutability": "view",
      "type": "function"
    },
    {
      "inputs": [
        {
          "internalType": "string",
          "name": "name",
          "type": "string"
        },
        {
          "internalType": "string",
          "name": "description",
          "type": "string"
        },
        {
          "internalType": "enum FanRewards.RewardType",
          "name": "rewardType",
          "type": "uint8"
        },
        {
          "internalType": "uint256",
          "name": "pointCost",
          "type": "uint256"
        },
        {
          "internalType": "uint256",
          "name": "maxRedemptions",
          "type": "uint256"
        },
        {
          "internalType": "uint256",
          "name": "duration",
          "type": "uint256"
        }
      ],
      "name": "createReward",
      "outputs": [
        {
          "internalType": "uint256",
          "name": "",
          "type": "uint256"
        }
      ],
      "stateMutability": "nonpayable",
      "type": "function"
    },
    {
      "inputs": [],
      "name": "dailyLoginPoints",
      "outputs": [
        {
          "internalType": "uint256",
          "name": "",
          "type": "uint256"
        }
      ],
      "stateMutability": "view",
      "type": "function"
    },
    {
      "inputs": [],
      "name": "eventAttendancePoints",
      "outputs": [
        {
          "internalType": "uint256",
          "name": "",
          "type": "uint256"
        }
      ],
      "stateMutability": "view",
      "type": "function"
    },
    {
      "inputs": [
        {
          "internalType": "address",
          "name": "",
          "type": "address"
        }
      ],
      "name": "fanProfiles",
      "outputs": [
        {
          "internalType": "address",
          "name": "fan",
          "type": "address"
        },
        {
          "internalType": "uint256",
          "name": "totalPoints",
          "type": "uint256"
        },
        {
          "internalType": "uint256",
          "name": "spentPoints",
          "type": "uint256"
        },
        {
          "internalType": "uint256",
          "name": "eventsAttended",
          "type": "uint256"
        },
        {
          "internalType": "uint256",
          "name": "betsPlaced",
          "type": "uint256"
        },
        {
          "internalType": "uint256",
          "name": "cardsOwned",
          "type": "uint256"
        },
        {
          "internalType": "uint256",
          "name": "consecutiveDays",
          "type": "uint256"
        },
        {
          "internalType": "uint256",
          "name": "lastActivity",
          "type": "uint256"
        },
        {
          "internalType": "uint256",
          "name": "loyaltyTier",
          "type": "uint256"
        },
        {
          "internalType": "bool",
          "name": "isRegistered",
          "type": "bool"
        }
      ],
      "stateMutability": "view",
      "type": "function"
    },
    {
      "inputs": [
        {
          "internalType": "address",
          "name": "fan",
          "type": "address"
        }
      ],
      "name": "getAvailablePoints",
      "outputs": [
        {
          "internalType": "uint256",
          "name": "",
          "type": "uint256"
        }
      ],
      "stateMutability": "view",
      "type": "function"
    },
    {
      "inputs": [
        {
          "internalType": "address",
          "name": "fan",
          "type": "address"
        }
      ],
      "name": "getRedemptions",
      "outputs": [
        {
          "components": [
            {
              "internalType": "uint256",
              "name": "rewardId",
              "type": "uint256"
            },
            {
              "internalType": "uint256",
              "name": "timestamp",
              "type": "uint256"
            },
            {
              "internalType": "uint256",
              "name": "pointsSpent",
              "type": "uint256"
            }
          ],
          "internalType": "struct FanRewards.Redemption[]",
          "name": "",
          "type": "tuple[]"
        }
      ],
      "stateMutability": "view",
      "type": "function"
    },
    {
      "inputs": [
        {
          "internalType": "bytes32",
          "name": "role",
          "type": "bytes32"
        }
      ],
      "name": "getRoleAdmin",
      "outputs": [
        {
          "internalType": "bytes32",
          "name": "",
          "type": "bytes32"
        }
      ],
      "stateMutability": "view",
      "type": "function"
    },
    {
      "inputs": [
        {
          "internalType": "address",
          "name": "fan",
          "type": "address"
        }
      ],
      "name": "getTierName",
      "outputs": [
        {
          "internalType": "string",
          "name": "",
          "type": "string"
        }
      ],
      "stateMutability": "view",
      "type": "function"
    },
    {
      "inputs": [
        {
          "internalType": "bytes32",
          "name": "role",
          "type": "bytes32"
        },
        {
          "internalType": "address",
          "name": "account",
          "type": "address"
        }
      ],
      "name": "grantRole",
      "outputs": [],
      "stateMutability": "nonpayable",
      "type": "function"
    },
    {
      "inputs": [
        {
          "internalType": "address",
          "name": "",
          "type": "address"
        },
        {
          "internalType": "uint256",
          "name": "",
          "type": "uint256"
        }
      ],
      "name": "hasBadge",
      "outputs": [
        {
          "internalType": "bool",
          "name": "",
          "type": "bool"
        }
      ],
      "stateMutability": "view",
      "type": "function"
    },
    {
      "inputs": [
        {
          "internalType": "bytes32",
          "name": "role",
          "type": "bytes32"
        },
        {
          "internalType": "address",
          "name": "account",
          "type": "address"
        }
      ],
      "name": "hasRole",
      "outputs": [
        {
          "internalType": "bool",
          "name": "",
          "type": "bool"
        }
      ],
      "stateMutability": "view",
      "type": "function"
    },
    {
      "inputs": [
        {
          "internalType": "address",
          "name": "fan",
          "type": "address"
        },
        {
          "internalType": "uint256",
          "name": "betAmount",
          "type": "uint256"
        }
      ],
      "name": "recordBetPlaced",
      "outputs": [],
      "stateMutability": "nonpayable",
      "type": "function"
    },
    {
      "inputs": [
        {
          "internalType": "address",
          "name": "fan",
          "type": "address"
        },
        {
          "internalType": "uint256",
          "name": "cardRarity",
          "type": "uint256"
        }
      ],
      "name": "recordCardPurchase",
      "outputs": [],
      "stateMutability": "nonpayable",
      "type": "function"
    },
    {
      "inputs": [
        {
          "internalType": "address",
          "name": "fan",
          "type": "address"
        }
      ],
      "name": "recordDailyLogin",
      "outputs": [],
      "stateMutability": "nonpayable",
      "type": "function"
    },
    {
      "inputs": [
        {
          "internalType": "address",
          "name": "fan",
          "type": "address"
        },
        {
          "internalType": "uint256",
          "name": "eventId",
          "type": "uint256"
        }
      ],
      "name": "recordEventAttendance",
      "outputs": [],
      "stateMutability": "nonpayable",
      "type": "function"
    },
    {
      "inputs": [
        {
          "internalType": "uint256",
          "name": "rewardId",
          "type": "uint256"
        }
      ],
      "name": "redeemReward",
      "outputs": [],
      "stateMutability": "nonpayable",
      "type": "function"
    },
    {
      "inputs": [
        {
          "internalType": "address",
          "name": "",
          "type": "address"
        },
        {
          "internalType": "uint256",
          "name": "",
          "type": "uint256"
        }
      ],
      "name": "redemptions",
      "outputs": [
        {
          "internalType": "uint256",
          "name": "rewardId",
          "type": "uint256"
        },
        {
          "internalType": "uint256",
          "name": "timestamp",
          "type": "uint256"
        },
        {
          "internalType": "uint256",
          "name": "pointsSpent",
          "type": "uint256"
        }
      ],
      "stateMutability": "view",
      "type": "function"
    },
    {
      "inputs": [],
      "name": "referralPoints",
      "outputs": [
        {
          "internalType": "uint256",
          "name": "",
          "type": "uint256"
        }
      ],
      "stateMutability": "view",
      "type": "function"
    },
    {
      "inputs": [],
      "name": "registerFan",
      "outputs": [],
      "stateMutability": "nonpayable",
      "type": "function"
    },
    {
      "inputs": [
        {
          "internalType": "uint256",
          "name": "",
          "type": "uint256"
        }
      ],
      "name": "registeredFans",
      "outputs": [
        {
          "internalType": "address",
          "name": "",
          "type": "address"
        }
      ],
      "stateMutability": "view",
      "type": "function"
    },
    {
      "inputs": [
        {
          "internalType": "bytes32",
          "name": "role",
          "type": "bytes32"
        },
        {
          "internalType": "address",
          "name": "callerConfirmation",
          "type": "address"
        }
      ],
      "name": "renounceRole",
      "outputs": [],
      "stateMutability": "nonpayable",
      "type": "function"
    },
    {
      "inputs": [
        {
          "internalType": "bytes32",
          "name": "role",
          "type": "bytes32"
        },
        {
          "internalType": "address",
          "name": "account",
          "type": "address"
        }
      ],
      "name": "revokeRole",
      "outputs": [],
      "stateMutability": "nonpayable",
      "type": "function"
    },
    {
      "inputs": [
        {
          "internalType": "uint256",
          "name": "",
          "type": "uint256"
        }
      ],
      "name": "rewards",
      "outputs": [
        {
          "internalType": "uint256",
          "name": "rewardId",
          "type": "uint256"
        },
        {
          "internalType": "string",
          "name": "name",
          "type": "string"
        },
        {
          "internalType": "string",
          "name": "description",
          "type": "string"
        },
        {
          "internalType": "enum FanRewards.RewardType",
          "name": "rewardType",
          "type": "uint8"
        },
        {
          "internalType": "uint256",
          "name": "pointCost",
          "type": "uint256"
        },
        {
          "internalType": "uint256",
          "name": "maxRedemptions",
          "type": "uint256"
        },
        {
          "internalType": "uint256",
          "name": "totalRedeemed",
          "type": "uint256"
        },
        {
          "internalType": "bool",
          "name": "isActive",
          "type": "bool"
        },
        {
          "internalType": "uint256",
          "name": "expiresAt",
          "type": "uint256"
        }
      ],
      "stateMutability": "view",
      "type": "function"
    },
    {
      "inputs": [
        {
          "internalType": "bytes4",
          "name": "interfaceId",
          "type": "bytes4"
        }
      ],
      "name": "supportsInterface",
      "outputs": [
        {
          "internalType": "bool",
          "name": "",
          "type": "bool"
        }
      ],
      "stateMutability": "view",
      "type": "function"
    },
    {
      "inputs": [
        {
          "internalType": "uint256",
          "name": "",
          "type": "uint256"
        }
      ],
      "name": "tierNames",
      "outputs": [
        {
          "internalType": "string",
          "name": "",
          "type": "string"
        }
      ],
      "stateMutability": "view",
      "type": "function"
    },
    {
      "inputs": [
        {
          "internalType": "uint256",
          "name": "",
          "type": "uint256"
        }
      ],
      "name": "tierThresholds",
      "outputs": [
        {
          "internalType": "uint256",
          "name": "",
          "type": "uint256"
        }
      ],
      "stateMutability": "view",
      "type": "function"
    },
    {
      "inputs": [],
      "name": "totalFans",
      "outputs": [
        {
          "internalType": "uint256",
          "name": "",
          "type": "uint256"
        }
      ],
      "stateMutability": "view",
      "type": "function"
    },
    {
      "inputs": [],
      "name": "totalPointsIssued",
      "outputs": [
        {
          "internalType": "uint256",
          "name": "",
          "type": "uint256"
        }
      ],
      "stateMutability": "view",
      "type": "function"
    },
    {
      "inputs": [],
      "name": "treasury",
      "outputs": [
        {
          "internalType": "address",
          "name": "",
          "type": "address"
        }
      ],
      "stateMutability": "view",
      "type": "function"
    }
  ],
  "bytecode": "0x60803462000346576001600160401b0390601f601f1962002c9c3881900383810183168501868111868210176200034b578592829160405283396020948591810103126200034657516001600160a01b03811693908490036200034657600193918480556200006d62000361565b956000968781526103e8848201526113886040820152614e206060820152620186a0608082015286885b600581106200032d57505050620000ad62000361565b94620000b862000381565b600681526542726f6e7a6560d01b858201528652620000d662000381565b600681526529b4b63b32b960d11b8582015284870152620000f662000381565b956004968781526311dbdb1960e21b8682015260408201526200011862000381565b6008815267506c6174696e756d60c01b8682015260608201526200013b62000381565b6007815266111a585b5bdb9960ca1b8682015260808201529460079389965b60059081891015620002da57805191825190878211620002c7578854808e1c91908e168015620002bc575b8b831014620002a957918e828f9593948a8e961162000255575b50508390898311600114620001e55790859683620001d9575b5050600019600383901b1c191690841b1789555b019601970196946200015a565b015190503880620001b8565b908783168c8352858320925b81811062000231575090869784889594931062000217575b505050811b018955620001cc565b015160001960f88460031b161c1916905538808062000209565b9497939686929691938786015181550195019301928f95929693918d9592620001f1565b8c8394959693528a83852092818701831c84019487106200029f575b918f979695949391899301901c01915b8281106200029057506200019f565b8381558e965087910162000281565b9350829362000271565b634e487b7160e01b8f5260228d5260248ffd5b91607f169162000185565b634e487b7160e01b8e5260418c5260248efd5b6064601655600a6017556032601855600560195560c8601a55601580546001600160a01b031916851790556200031033620003a1565b506200031c3362000421565b506040516127b89081620004c48239f35b825162ffffff1660028201559185019188910162000097565b600080fd5b634e487b7160e01b600052604160045260246000fd5b6040519060a082016001600160401b038111838210176200034b57604052565b60408051919082016001600160401b038111838210176200034b57604052565b6001600160a01b031660008181527fad3228b676f7d3cd4284a5443f17f1962b36e491b30a40b2405849e597ba5fb5602052604081205490919060ff166200041d57818052816020526040822081835260205260408220600160ff19825416179055339160008051602062002c7c8339815191528180a4600190565b5090565b6001600160a01b031660008181527fe7f4418d23fda4ab9602c77f70a89f9a3047a7c5a1c4ec0e32b0d0af790eaf1560205260408120549091907fb2bc1177b694848fe3edec025004a76a94956f287e71c968889166c11567aa269060ff16620004be57808352826020526040832082845260205260408320600160ff1982541617905560008051602062002c7c833981519152339380a4600190565b50509056fe608080604052600436101561001357600080fd5b60003560e01c90816301ffc9a714611ab6575080630b7575ca14611a6857806320b4b2bd14611a4a578063248a9ca314611a1b5780632f2ff15d146119dc578063357906d81461177e57806336568abe146117125780634c6a70ce146116b857806351a71b17146113785780635d1b2f6c1461135a57806361d027b314611326578063621b31211461109357806364bdb45614610f935780636770b77314610f755780636ac7225c14610ec257806376deee9014610ea45780638a3756c014610e78578063903f80e614610a1557806391d14854146109ba57806394167dc7146107ef57806396f826b91461077a5780639ab1c8b9146106f3578063a0e7bad214610526578063a100d69d146104fa578063a217fddf146104de578063ca1fb21b1461041a578063cdd97257146103fc578063d547741f146103bb578063e1a2756314610380578063e3e6742714610362578063ed1a0989146102ec578063f301af42146101fc578063f36596da146101b85763fd1c88111461019557600080fd5b346101b35760006003193601126101b3576020601454604051908152f35b600080fd5b346101b35760206003193601126101b35760043560058110156101b3576101e46101f891600701611dc5565b604051918291602083526020830190611cf8565b0390f35b346101b35760206003193601126101b357600435600052600e602052604060002080549061022c60018201611dc5565b61023860028301611dc5565b9060ff60038401541692600481015492600582015461028c60068401549261027e600860ff600788015416960154966040519a8b526101208060208d01528b0190611cf8565b9089820360408b0152611cf8565b9460058710156102bd5787966060880152608087015260a086015260c0850152151560e08401526101008301520390f35b7f4e487b7100000000000000000000000000000000000000000000000000000000600052602160045260246000fd5b346101b35760406003193601126101b357610305611bae565b73ffffffffffffffffffffffffffffffffffffffff6024359116600052600f602052604060002080548210156101b35760609161034191611d56565b50805490600260018201549101549060405192835260208301526040820152f35b346101b35760006003193601126101b3576020601854604051908152f35b346101b35760006003193601126101b35760206040517fb2bc1177b694848fe3edec025004a76a94956f287e71c968889166c11567aa268152f35b346101b35760406003193601126101b3576103fa6004356103da611b8b565b908060005260006020526103f5600160406000200154611eff565b611fb1565b005b346101b35760006003193601126101b3576020601954604051908152f35b346101b35760206003193601126101b35760206104d673ffffffffffffffffffffffffffffffffffffffff8061044e611bae565b16600052600d83526040600020906040519061046982611bd1565b8254168152600182015490818582015261012060ff60096002860154958660408601526003810154606086015260048101546080860152600581015460a0860152600681015460c0860152600781015460e086015260088101546101008601520154161515910152612063565b604051908152f35b346101b35760006003193601126101b357602060405160008152f35b346101b35760206003193601126101b35760043560058110156101b35760209060020154604051908152f35b346101b35760406003193601126101b35761053f611bae565b610547611e6c565b610550816126f3565b73ffffffffffffffffffffffffffffffffffffffff811690816000526020600d815260046040600020016105848154612034565b90556105dd6105a1601754662386f26fc100006024350490612043565b604051906105ae82611c26565b600a82527f6265745f706c616365640000000000000000000000000000000000000000000084830152846122bd565b82600052600d81526032600460406000200154146105f757005b6040519061060482611c26565b601182527f50726564696374696f6e204d617374657200000000000000000000000000000081830152836000526010815260406000206003600052815260ff604060002054161561065157005b6106ee6040926106d87fee48ad85a8081671a3e9ea552bb829b3619542eb24eccc4f98e740e44441ef53958760005260108552856000206003600052855285600020600160ff198254161790558551906106aa82611c26565b600c82527f62616467655f6561726e6564000000000000000000000000000000000000000086830152612070565b8351938493600385528401526040830190611cf8565b0390a2005b346101b35760206003193601126101b35773ffffffffffffffffffffffffffffffffffffffff610721611bae565b16600052600d602052600860406000200154600581101561074b576101e46101f891600701611dc5565b7f4e487b7100000000000000000000000000000000000000000000000000000000600052603260045260246000fd5b346101b35760206003193601126101b3576103fa610796611bae565b61079e611e6c565b6107a7816126f3565b6107b08161240d565b601954604051916107c083611c26565b600b83527f6461696c795f6c6f67696e00000000000000000000000000000000000000000060208401526122bd565b346101b35760406003193601126101b357610808611bae565b610810611e6c565b610819816126f3565b73ffffffffffffffffffffffffffffffffffffffff811690816000526020600d8152600560406000200161084d8154612034565b90556024356001018060011161098b5761086c6108a891601854612050565b6040519061087982611c26565b600d82527f636172645f70757263686173650000000000000000000000000000000000000084830152846122bd565b82600052600d81526032600560406000200154146108c257005b604051906108cf82611c26565b600e82527f4361726420436f6c6c6563746f7200000000000000000000000000000000000081830152836000526010815260406000206004600052815260ff604060002054161561091c57005b6106ee6040926109757fee48ad85a8081671a3e9ea552bb829b3619542eb24eccc4f98e740e44441ef53958760005260108552856000206004600052855285600020600160ff198254161790558551906106aa82611c26565b8351938493600485528401526040830190611cf8565b7f4e487b7100000000000000000000000000000000000000000000000000000000600052601160045260246000fd5b346101b35760406003193601126101b3576109d3611b8b565b600435600052600060205273ffffffffffffffffffffffffffffffffffffffff60406000209116600052602052602060ff604060002054166040519015158152f35b346101b35760c06003193601126101b35760043567ffffffffffffffff81116101b357610a46903690600401611c83565b60243567ffffffffffffffff81116101b357610a66903690600401611c83565b90600560443510156101b357610a7a611e6c565b610a85600c54612034565b9081600c55610a9660a43542612043565b9060405191610120830183811067ffffffffffffffff821117610d5e57604052838352602083019482865260408401526044356060840152606435608084015260843560a0840152600060c0840152600160e084015261010083015282600052600e602052604060002093825185555180519067ffffffffffffffff8211610d5e578190610b276001880154611d72565b601f8111610e25575b50602090601f8311600114610d9857600092610d8d575b50506000198260011b9260031b1c19161760018501555b604082015180519067ffffffffffffffff8211610d5e578190610b846002880154611d72565b601f8111610d0b575b50602090601f8311600114610c8057600092610c75575b50506000198260011b9260031b1c19161760028501555b600384019160608101519160058310156102bd576020956008610100610c6394877fa81c5b4badeaadf962929c80547a1ac481865ab281aff22bd0718d92815acdce9760ff60ff198c9b541691161790556080810151600485015560a0810151600585015560c08101516006850155610c4a60e08201511515600786019060ff60ff1983541691151516179055565b0151910155604051918291604083526040830190611cf8565b606435878301520390a2604051908152f35b015190508680610ba4565b917fffffffffffffffffffffffffffffffffffffffffffffffffffffffffffffffe016916002880160005260206000209260005b818110610cf35750908460019594939210610cda575b505050811b016002850155610bbb565b015160001960f88460031b161c19169055868080610cca565b92936020600181928786015181550195019301610cb4565b909150600287016000526020600020601f840160051c810160208510610d57575b90849392915b601f830160051c82018110610d48575050610b8d565b60008155859450600101610d32565b5080610d2c565b7f4e487b7100000000000000000000000000000000000000000000000000000000600052604160045260246000fd5b015190508680610b47565b91506001870160005260206000209160007fffffffffffffffffffffffffffffffffffffffffffffffffffffffffffffffe08516905b818110610e0d5750908460019594939210610df4575b505050811b016001850155610b5e565b015160001960f88460031b161c19169055868080610de4565b92936020600181928786015181550195019301610dce565b909150600187016000526020600020601f840160051c810160208510610e71575b90849392915b601f830160051c82018110610e62575050610b30565b60008155859450600101610e4c565b5080610e46565b346101b35760206003193601126101b35760043560005260116020526020604060002054604051908152f35b346101b35760006003193601126101b3576020601754604051908152f35b346101b35760206003193601126101b35761014073ffffffffffffffffffffffffffffffffffffffff80610ef4611bae565b16600052600d6020526040600020908154169060018101549060028101546003820154600483015460058401549060068501549260078601549460ff600960088901549801541697604051998a5260208a015260408901526060880152608087015260a086015260c085015260e08401526101008301521515610120820152f35b346101b35760006003193601126101b3576020601a54604051908152f35b346101b3576020806003193601126101b35773ffffffffffffffffffffffffffffffffffffffff610fc2611bae565b16600052600f8152604060002090815467ffffffffffffffff8111610d5e5760405190610ff4838260051b0183611c42565b8082528282018094600052836000206000915b83831061105d5760408051878152865181890181905289928201908960005b8281106110335784840385f35b85518051855280830151858401526040908101519085015294810194606090930192600101611026565b60038660019260405161106f81611bee565b85548152848601548382015260028601546040820152815201920192019190611007565b346101b35760406003193601126101b3576110ac611bae565b6110b4611e6c565b6110bd816126f3565b73ffffffffffffffffffffffffffffffffffffffff811690816000526020600d8152606460036040600020016110f38154612034565b81556111376016546040519061110882611c26565b601082527f6576656e745f617474656e64616e63650000000000000000000000000000000086830152866122bd565b6111408461240d565b600a81541461121b575b541461115257005b6040519061115f82611c26565b600e82527f5374616469756d204c6567656e6400000000000000000000000000000000000081830152836000526010815260406000206002600052815260ff60406000205416156111ac57005b6106ee6040926112057fee48ad85a8081671a3e9ea552bb829b3619542eb24eccc4f98e740e44441ef53958760005260108552856000206002600052855285600020600160ff198254161790558551906106aa82611c26565b8351938493600285528401526040830190611cf8565b8460405161122881611c26565b600d81527f4576656e7420526567756c61720000000000000000000000000000000000000085820152816000526010855260406000206001600052855260ff604060002054161561127b575b505061114a565b61131c7fee48ad85a8081671a3e9ea552bb829b3619542eb24eccc4f98e740e44441ef539183600052601087526040600020600160005287526040600020600160ff198254161790556113026040516112d381611c26565b600c81527f62616467655f6561726e656400000000000000000000000000000000000000008982015289612070565b604051918291600183526040898401526040830190611cf8565b0390a28486611274565b346101b35760006003193601126101b357602073ffffffffffffffffffffffffffffffffffffffff60155416604051908152f35b346101b35760006003193601126101b3576020601354604051908152f35b346101b3576020806003193601126101b357600435600191600283541461168e57600283556113a6336126f3565b81600052600e8152604060002060ff6007820154161561163057600881015442116115d257600681018054600583015411156115745733600052600d8352604060002091600286840154930190600461140183548096612063565b9101938454809210611516579061141791612043565b90556114238154612034565b905533600052600f8252604060002090805460405161144181611bee565b8581528481019342855260408201928352805468010000000000000000811015610d5e57611473918982018155611d56565b9290926114e757869460029251845551888401555191015554916040519283528201527f6fca1064a1f92ebd484f3969e0d2325a477b610ba499c9c978eecdbe0c33d6ef60403392a233907fcf82e72ef33ae47596b71a21e67ae6afd84285f4bea8089162ca367dcf2f352f600080a38055005b7f4e487b7100000000000000000000000000000000000000000000000000000000600052600060045260246000fd5b606486604051907f08c379a00000000000000000000000000000000000000000000000000000000082526004820152601360248201527f496e73756666696369656e7420706f696e7473000000000000000000000000006044820152fd5b606483604051907f08c379a00000000000000000000000000000000000000000000000000000000082526004820152600f60248201527f52657761726420736f6c64206f757400000000000000000000000000000000006044820152fd5b606482604051907f08c379a00000000000000000000000000000000000000000000000000000000082526004820152600e60248201527f52657761726420657870697265640000000000000000000000000000000000006044820152fd5b606482604051907f08c379a00000000000000000000000000000000000000000000000000000000082526004820152601160248201527f526577617264206e6f74206163746976650000000000000000000000000000006044820152fd5b60046040517f3ee5aeb5000000000000000000000000000000000000000000000000000000008152fd5b346101b35760406003193601126101b35773ffffffffffffffffffffffffffffffffffffffff6116e6611bae565b1660005260106020526040600020602435600052602052602060ff604060002054166040519015158152f35b346101b35760406003193601126101b35761172b611b8b565b3373ffffffffffffffffffffffffffffffffffffffff821603611754576103fa90600435611fb1565b60046040517f6697b232000000000000000000000000000000000000000000000000000000008152fd5b346101b35760006003193601126101b35733600052600d60205260ff6009604060002001541661197e576040516117b481611bd1565b33815261189f6020820160648152600960408401600081526060850160008152608086016000815260a087016000815260c08801906001825260e08901924284526101008a0194600086526101208b01966001885233600052600d60205260406000209973ffffffffffffffffffffffffffffffffffffffff809d51167fffffffffffffffffffffffff00000000000000000000000000000000000000008c5416178b555160018b01555160028a015551600389015551600488015551600587015551600686015551600785015551600884015551151591019060ff60ff1983541691151516179055565b60125468010000000000000000811015610d5e578060016118c39201601255611b54565b819291549060031b9133831b921b19161790556118e1601354612034565b6013556014546064810180911161098b57601455604051337f58641f1b465d5c61a209eaa162ca4199114d253de9ba5fbdd36882455eb86a13600080a26064815260406020820152600d60408201527f77656c636f6d655f626f6e75730000000000000000000000000000000000000060608201527fb51b16cb4103a8ce441e52afe5cfabab49df83ba6b570adcde7724f975bdf7d060803392a2005b60646040517f08c379a000000000000000000000000000000000000000000000000000000000815260206004820152601260248201527f416c7265616479207265676973746572656400000000000000000000000000006044820152fd5b346101b35760406003193601126101b3576103fa6004356119fb611b8b565b90806000526000602052611a16600160406000200154611eff565b611f25565b346101b35760206003193601126101b35760043560005260006020526020600160406000200154604051908152f35b346101b35760006003193601126101b3576020601654604051908152f35b346101b35760206003193601126101b3576004356012548110156101b35773ffffffffffffffffffffffffffffffffffffffff611aa6602092611b54565b9190546040519260031b1c168152f35b346101b35760206003193601126101b357600435907fffffffff0000000000000000000000000000000000000000000000000000000082168092036101b357817f7965db0b0000000000000000000000000000000000000000000000000000000060209314908115611b2a575b5015158152f35b7f01ffc9a70000000000000000000000000000000000000000000000000000000091501483611b23565b60125481101561074b5760126000527fbb8a6a4669ba250d26cd7a459eca9d215f8307e33aebe50379bc5a3617ec34440190600090565b6024359073ffffffffffffffffffffffffffffffffffffffff821682036101b357565b6004359073ffffffffffffffffffffffffffffffffffffffff821682036101b357565b610140810190811067ffffffffffffffff821117610d5e57604052565b6060810190811067ffffffffffffffff821117610d5e57604052565b60a0810190811067ffffffffffffffff821117610d5e57604052565b6040810190811067ffffffffffffffff821117610d5e57604052565b90601f7fffffffffffffffffffffffffffffffffffffffffffffffffffffffffffffffe0910116810190811067ffffffffffffffff821117610d5e57604052565b81601f820112156101b35780359067ffffffffffffffff8211610d5e5760405192611cd660207fffffffffffffffffffffffffffffffffffffffffffffffffffffffffffffffe0601f8601160185611c42565b828452602083830101116101b357816000926020809301838601378301015290565b919082519283825260005b848110611d425750507fffffffffffffffffffffffffffffffffffffffffffffffffffffffffffffffe0601f8460006020809697860101520116010190565b602081830181015184830182015201611d03565b805482101561074b576000526003602060002091020190600090565b90600182811c92168015611dbb575b6020831014611d8c57565b7f4e487b7100000000000000000000000000000000000000000000000000000000600052602260045260246000fd5b91607f1691611d81565b9060405191826000825492611dd984611d72565b908184526001948581169081600014611e485750600114611e05575b5050611e0392500383611c42565b565b9093915060005260209081600020936000915b818310611e30575050611e0393508201013880611df5565b85548884018501529485019487945091830191611e18565b9050611e0395506020935060ff1991501682840152151560051b8201013880611df5565b3360009081527fe7f4418d23fda4ab9602c77f70a89f9a3047a7c5a1c4ec0e32b0d0af790eaf1560205260409020547fb2bc1177b694848fe3edec025004a76a94956f287e71c968889166c11567aa269060ff1615611ec85750565b604490604051907fe2517d3f0000000000000000000000000000000000000000000000000000000082523360048301526024820152fd5b80600052600060205260406000203360005260205260ff6040600020541615611ec85750565b906000918083528260205273ffffffffffffffffffffffffffffffffffffffff6040842092169182845260205260ff60408420541615600014611fac57808352826020526040832082845260205260408320600160ff198254161790557f2f8788117e7eff1d82e926ec794901d17c78024a50270940304540a733656f0d339380a4600190565b505090565b906000918083528260205273ffffffffffffffffffffffffffffffffffffffff6040842092169182845260205260ff604084205416600014611fac5780835282602052604083208284526020526040832060ff1981541690557ff6391f5c32d9c69d2a47ea670b442974b53935d1edc7fd64eb21e047a839171b339380a4600190565b600019811461098b5760010190565b9190820180921161098b57565b8181029291811591840414171561098b57565b9190820391821161098b57565b73ffffffffffffffffffffffffffffffffffffffff90929192166000818152602090600d825260408082209160088301549082516120ad81611c0a565b60648152606e86820152607d848201526096606082015260c860808201526005928381101561229057831b01516101f490808202918204036122635760646001910494016120fc858254612043565b905561210a84601454612043565b601455858152600d855282812091600883018054906004926001849601955b838111612178575b505050505050507fb51b16cb4103a8ce441e52afe5cfabab49df83ba6b570adcde7724f975bdf7d0939495818061217393519586958652850152830190611cf8565b0390a2565b86548282101561223757816002015411156121c857801561219c5760001901612129565b6024866011877f4e487b7100000000000000000000000000000000000000000000000000000000835252fd5b8a9b9c96508795507fb51b16cb4103a8ce441e52afe5cfabab49df83ba6b570adcde7724f975bdf7d09a94507f0523447c6f08539198ff81fbfbe061546a834b64263c20d00b88a1bdc41f250693915080612173989355825191825289820152a2918197969538808080612131565b6024876032887f4e487b7100000000000000000000000000000000000000000000000000000000835252fd5b6024827f4e487b710000000000000000000000000000000000000000000000000000000081526011600452fd5b6024837f4e487b710000000000000000000000000000000000000000000000000000000081526032600452fd5b73ffffffffffffffffffffffffffffffffffffffff9093929316906000828152602091600d83526040908183209260088401549183516122fc81611c0a565b60648152606e87820152607d858201526096606082015260c86080820152600593848110156123e057841b015160019160649161233891612050565b049401612346858254612043565b905561235484601454612043565b601455858152600d855282812091600883018054906004926001849601955b8381116123bc57505050505050507fb51b16cb4103a8ce441e52afe5cfabab49df83ba6b570adcde7724f975bdf7d0939495818061217393519586958652850152830190611cf8565b86548282101561223757816002015411156121c857801561219c5760001901612373565b6024847f4e487b710000000000000000000000000000000000000000000000000000000081526032600452fd5b9073ffffffffffffffffffffffffffffffffffffffff8216600092818452602090600d825260409060068287206007810160016201518061244f835442612063565b04116126e8578282016124628154612034565b90555b429055019060078254146126a5575b50601e8154146124ad575b7f46f6fe577ecfefe55b0f14f0b42ddb4c22db1fb9bade43aa02c5ef4e5439512e93949550549051908152a2565b81516124b881611c26565b600c81527f6d6f6e74685f73747265616b000000000000000000000000000000000000000084820152848752600d84528287209660088801549084516124fd81611c0a565b60648152606e87820152607d868201526096606082015260c860808201526005928381101561229057831b0151610bb8908082029182040361226357606460019104990161254c8a8254612043565b905561255a89601454612043565b601455868152600d865284812091600883018054906004926001849601955b8381116125f3575b50505050505050937fb51b16cb4103a8ce441e52afe5cfabab49df83ba6b570adcde7724f975bdf7d07f46f6fe577ecfefe55b0f14f0b42ddb4c22db1fb9bade43aa02c5ef4e5439512e958297986125e786519283928352878984015287830190611cf8565b0390a28594935061247f565b865482821015612237578160020154111561261757801561219c5760001901612579565b7fb51b16cb4103a8ce441e52afe5cfabab49df83ba6b570adcde7724f975bdf7d096508b9c9d94508b97955089915092837f46f6fe577ecfefe55b0f14f0b42ddb4c22db1fb9bade43aa02c5ef4e5439512e9c947f0523447c6f08539198ff81fbfbe061546a834b64263c20d00b88a1bdc41f2506945582519182528b820152a29897968193388080612581565b82516126e2916126b482611c26565b600b82527f7765656b5f73747265616b00000000000000000000000000000000000000000086830152612070565b38612474565b600183830155612465565b73ffffffffffffffffffffffffffffffffffffffff16600052600d60205260ff600960406000200154161561272457565b60646040517f08c379a000000000000000000000000000000000000000000000000000000000815260206004820152601260248201527f46616e206e6f74207265676973746572656400000000000000000000000000006044820152fdfea2646970667358221220cfc6d1b14049c9e3dc4f6fae90a3f69ea1931ff19ed86497c07ad610525503fb64736f6c634300081400332f8788117e7eff1d82e926ec794901d17c78024a50270940304540a733656f0d",
  "linkReferences": {},
  "deployedLinkReferences": {}
}