{
  "_format": "hh-sol-artifact-1",
  "contractName": "SpectatorMode",
  "sourceName": "contracts/layer5/SpectatorMode.sol",
  "abi": [
    {
      "inputs": [],
      "stateMutability": "nonpayable",
      "type": "constructor"
    },
    {
      "inputs": [],
      "name": "AccessControlBadConfirmation",
      "type": "error"
    },
    {
      "inputs": [
        {
          "internalType": "address",
          "name": "account",
          "type": "address"
        },
        {
          "internalType": "bytes32",
          "name": "neededRole",
          "type": "bytes32"
        }
      ],
      "name": "AccessControlUnauthorizedAccount",
      "type": "error"
    },
    {
      "anonymous": false,
      "inputs": [
        {
          "indexed": true,
          "internalType": "uint256",
          "name": "matchId",
          "type": "uint256"
        },
        {
          "indexed": true,
          "internalType": "address",
          "name": "viewer",
          "type": "address"
        },
        {
          "indexed": false,
          "internalType": "enum SpectatorMode.ViewAngle",
          "name": "newAngle",
          "type": "uint8"
        }
      ],
      "name": "AngleSwitched",
      "type": "event"
    },
    {
      "anonymous": false,
      "inputs": [
        {
          "indexed": true,
          "internalType": "uint256",
          "name": "matchId",
          "type": "uint256"
        },
        {
          "indexed": false,
          "internalType": "uint256",
          "name": "feedId",
          "type": "uint256"
        },
        {
          "indexed": false,
          "internalType": "enum SpectatorMode.ViewAngle",
          "name": "angle",
          "type": "uint8"
        }
      ],
      "name": "FeedAdded",
      "type": "event"
    },
    {
      "anonymous": false,
      "inputs": [
        {
          "indexed": true,
          "internalType": "uint256",
          "name": "matchId",
          "type": "uint256"
        },
        {
          "indexed": true,
          "internalType": "address",
          "name": "viewer",
          "type": "address"
        },
        {
          "indexed": false,
          "internalType": "uint256",
          "name": "rating",
          "type": "uint256"
        }
      ],
      "name": "MatchRated",
      "type": "event"
    },
    {
      "anonymous": false,
      "inputs": [
        {
          "indexed": true,
          "internalType": "bytes32",
          "name": "role",
          "type": "bytes32"
        },
        {
          "indexed": true,
          "internalType": "bytes32",
          "name": "previousAdminRole",
          "type": "bytes32"
        },
        {
          "indexed": true,
          "internalType": "bytes32",
          "name": "newAdminRole",
          "type": "bytes32"
        }
      ],
      "name": "RoleAdminChanged",
      "type": "event"
    },
    {
      "anonymous": false,
      "inputs": [
        {
          "indexed": true,
          "internalType": "bytes32",
          "name": "role",
          "type": "bytes32"
        },
        {
          "indexed": true,
          "internalType": "address",
          "name": "account",
          "type": "address"
        },
        {
          "indexed": true,
          "internalType": "address",
          "name": "sender",
          "type": "address"
        }
      ],
      "name": "RoleGranted",
      "type": "event"
    },
    {
      "anonymous": false,
      "inputs": [
        {
          "indexed": true,
          "internalType": "bytes32",
          "name": "role",
          "type": "bytes32"
        },
        {
          "indexed": true,
          "internalType": "address",
          "name": "account",
          "type": "address"
        },
        {
          "indexed": true,
          "internalType": "address",
          "name": "sender",
          "type": "address"
        }
      ],
      "name": "RoleRevoked",
      "type": "event"
    },
    {
      "anonymous": false,
      "inputs": [
        {
          "indexed": true,
          "internalType": "uint256",
          "name": "matchId",
          "type": "uint256"
        },
        {
          "indexed": true,
          "internalType": "address",
          "name": "viewer",
          "type": "address"
        },
        {
          "indexed": false,
          "internalType": "enum SpectatorMode.ViewAngle",
          "name": "angle",
          "type": "uint8"
        }
      ],
      "name": "SpectatorJoined",
      "type": "event"
    },
    {
      "inputs": [],
      "name": "BROADCAST_ROLE",
      "outputs": [
        {
          "internalType": "bytes32",
          "name": "",
          "type": "bytes32"
        }
      ],
      "stateMutability": "view",
      "type": "function"
    },
    {
      "inputs": [],
      "name": "DEFAULT_ADMIN_ROLE",
      "outputs": [
        {
          "internalType": "bytes32",
          "name": "",
          "type": "bytes32"
        }
      ],
      "stateMutability": "view",
      "type": "function"
    },
    {
      "inputs": [
        {
          "internalType": "uint256",
          "name": "matchId",
          "type": "uint256"
        },
        {
          "internalType": "enum SpectatorMode.ViewAngle",
          "name": "angle",
          "type": "uint8"
        },
        {
          "internalType": "string",
          "name": "feedURI",
          "type": "string"
        }
      ],
      "name": "addCameraFeed",
      "outputs": [],
      "stateMutability": "nonpayable",
      "type": "function"
    },
    {
      "inputs": [
        {
          "internalType": "uint256",
          "name": "matchId",
          "type": "uint256"
        }
      ],
      "name": "getMatchFeeds",
      "outputs": [
        {
          "components": [
            {
              "internalType": "uint256",
              "name": "feedId",
              "type": "uint256"
            },
            {
              "internalType": "uint256",
              "name": "matchId",
              "type": "uint256"
            },
            {
              "internalType": "enum SpectatorMode.ViewAngle",
              "name": "angle",
              "type": "uint8"
            },
            {
              "internalType": "string",
              "name": "feedURI",
              "type": "string"
            },
            {
              "internalType": "bool",
              "name": "isActive",
              "type": "bool"
            },
            {
              "internalType": "uint256",
              "name": "viewerCount",
              "type": "uint256"
            }
          ],
          "internalType": "struct SpectatorMode.CameraFeed[]",
          "name": "",
          "type": "tuple[]"
        }
      ],
      "stateMutability": "view",
      "type": "function"
    },
    {
      "inputs": [
        {
          "internalType": "uint256",
          "name": "matchId",
          "type": "uint256"
        }
      ],
      "name": "getMatchSpectators",
      "outputs": [
        {
          "internalType": "address[]",
          "name": "",
          "type": "address[]"
        }
      ],
      "stateMutability": "view",
      "type": "function"
    },
    {
      "inputs": [
        {
          "internalType": "bytes32",
          "name": "role",
          "type": "bytes32"
        }
      ],
      "name": "getRoleAdmin",
      "outputs": [
        {
          "internalType": "bytes32",
          "name": "",
          "type": "bytes32"
        }
      ],
      "stateMutability": "view",
      "type": "function"
    },
    {
      "inputs": [
        {
          "internalType": "bytes32",
          "name": "role",
          "type": "bytes32"
        },
        {
          "internalType": "address",
          "name": "account",
          "type": "address"
        }
      ],
      "name": "grantRole",
      "outputs": [],
      "stateMutability": "nonpayable",
      "type": "function"
    },
    {
      "inputs": [
        {
          "internalType": "bytes32",
          "name": "role",
          "type": "bytes32"
        },
        {
          "internalType": "address",
          "name": "account",
          "type": "address"
        }
      ],
      "name": "hasRole",
      "outputs": [
        {
          "internalType": "bool",
          "name": "",
          "type": "bool"
        }
      ],
      "stateMutability": "view",
      "type": "function"
    },
    {
      "inputs": [
        {
          "internalType": "uint256",
          "name": "matchId",
          "type": "uint256"
        },
        {
          "internalType": "uint256",
          "name": "seatId",
          "type": "uint256"
        },
        {
          "internalType": "enum SpectatorMode.ViewAngle",
          "name": "preferredAngle",
          "type": "uint8"
        },
        {
          "internalType": "bool",
          "name": "isVR",
          "type": "bool"
        }
      ],
      "name": "joinAsSpectator",
      "outputs": [],
      "stateMutability": "nonpayable",
      "type": "function"
    },
    {
      "inputs": [
        {
          "internalType": "uint256",
          "name": "",
          "type": "uint256"
        }
      ],
      "name": "matchAverageRating",
      "outputs": [
        {
          "internalType": "uint256",
          "name": "",
          "type": "uint256"
        }
      ],
      "stateMutability": "view",
      "type": "function"
    },
    {
      "inputs": [
        {
          "internalType": "uint256",
          "name": "",
          "type": "uint256"
        },
        {
          "internalType": "uint256",
          "name": "",
          "type": "uint256"
        }
      ],
      "name": "matchFeeds",
      "outputs": [
        {
          "internalType": "uint256",
          "name": "feedId",
          "type": "uint256"
        },
        {
          "internalType": "uint256",
          "name": "matchId",
          "type": "uint256"
        },
        {
          "internalType": "enum SpectatorMode.ViewAngle",
          "name": "angle",
          "type": "uint8"
        },
        {
          "internalType": "string",
          "name": "feedURI",
          "type": "string"
        },
        {
          "internalType": "bool",
          "name": "isActive",
          "type": "bool"
        },
        {
          "internalType": "uint256",
          "name": "viewerCount",
          "type": "uint256"
        }
      ],
      "stateMutability": "view",
      "type": "function"
    },
    {
      "inputs": [
        {
          "internalType": "uint256",
          "name": "",
          "type": "uint256"
        },
        {
          "internalType": "uint256",
          "name": "",
          "type": "uint256"
        }
      ],
      "name": "matchSpectators",
      "outputs": [
        {
          "internalType": "address",
          "name": "",
          "type": "address"
        }
      ],
      "stateMutability": "view",
      "type": "function"
    },
    {
      "inputs": [
        {
          "internalType": "uint256",
          "name": "",
          "type": "uint256"
        }
      ],
      "name": "matchTotalRatings",
      "outputs": [
        {
          "internalType": "uint256",
          "name": "",
          "type": "uint256"
        }
      ],
      "stateMutability": "view",
      "type": "function"
    },
    {
      "inputs": [
        {
          "internalType": "uint256",
          "name": "matchId",
          "type": "uint256"
        },
        {
          "internalType": "uint256",
          "name": "rating",
          "type": "uint256"
        }
      ],
      "name": "rateMatch",
      "outputs": [],
      "stateMutability": "nonpayable",
      "type": "function"
    },
    {
      "inputs": [
        {
          "internalType": "bytes32",
          "name": "role",
          "type": "bytes32"
        },
        {
          "internalType": "address",
          "name": "callerConfirmation",
          "type": "address"
        }
      ],
      "name": "renounceRole",
      "outputs": [],
      "stateMutability": "nonpayable",
      "type": "function"
    },
    {
      "inputs": [
        {
          "internalType": "bytes32",
          "name": "role",
          "type": "bytes32"
        },
        {
          "internalType": "address",
          "name": "account",
          "type": "address"
        }
      ],
      "name": "revokeRole",
      "outputs": [],
      "stateMutability": "nonpayable",
      "type": "function"
    },
    {
      "inputs": [
        {
          "internalType": "uint256",
          "name": "",
          "type": "uint256"
        },
        {
          "internalType": "address",
          "name": "",
          "type": "address"
        }
      ],
      "name": "sessions",
      "outputs": [
        {
          "internalType": "address",
          "name": "viewer",
          "type": "address"
        },
        {
          "internalType": "uint256",
          "name": "matchId",
          "type": "uint256"
        },
        {
          "internalType": "uint256",
          "name": "seatId",
          "type": "uint256"
        },
        {
          "internalType": "enum SpectatorMode.ViewAngle",
          "name": "currentAngle",
          "type": "uint8"
        },
        {
          "internalType": "bool",
          "name": "isVR",
          "type": "bool"
        },
        {
          "internalType": "bool",
          "name": "hasAudioFeed",
          "type": "bool"
        },
        {
          "internalType": "uint256",
          "name": "joinedAt",
          "type": "uint256"
        },
        {
          "internalType": "uint256",
          "name": "rating",
          "type": "uint256"
        },
        {
          "internalType": "bool",
          "name": "hasRated",
          "type": "bool"
        }
      ],
      "stateMutability": "view",
      "type": "function"
    },
    {
      "inputs": [
        {
          "internalType": "bytes4",
          "name": "interfaceId",
          "type": "bytes4"
        }
      ],
      "name": "supportsInterface",
      "outputs": [
        {
          "internalType": "bool",
          "name": "",
          "type": "bool"
        }
      ],
      "stateMutability": "view",
      "type": "function"
    },
    {
      "inputs": [
        {
          "internalType": "uint256",
          "name": "matchId",
          "type": "uint256"
        },
        {
          "internalType": "enum SpectatorMode.ViewAngle",
          "name": "newAngle",
          "type": "uint8"
        }
      ],
      "name": "switchAngle",
      "outputs": [],
      "stateMutability": "nonpayable",
      "type": "function"
    }
  ],
  "bytecode": "0x60806040523461002d5761001233610032565b5061001c336100b1565b506040516117fb9081620001538239f35b600080fd5b6001600160a01b031660008181527fad3228b676f7d3cd4284a5443f17f1962b36e491b30a40b2405849e597ba5fb5602052604081205490919060ff166100ad57818052816020526040822081835260205260408220600160ff1982541617905533916000805160206200194e8339815191528180a4600190565b5090565b6001600160a01b031660008181527ff88ec009905406fd914cf72534a68b550e9458fabcc40b0339d2dedecfac578260205260408120549091907f24cc974a99b70edb628de99d0d5aad589b9e197e17cd0e389e7739c2700ee4239060ff1661014d57808352826020526040832082845260205260408320600160ff198254161790556000805160206200194e833981519152339380a4600190565b50509056fe608080604052600436101561001357600080fd5b60003560e01c90816301ffc9a71461130b57508063248a9ca3146112dc5780632f2ff15d1461129d5780633107114214610ffc57806336568abe14610f9057806338e8a80714610ecc57806342d40c7e14610ea05780634404798b14610e4957806358dd345b14610d775780635b4d766d14610c6b57806378777fef14610bd25780638c9cade114610a4057806391d14854146109e5578063a217fddf146109c9578063a24530b91461099d578063a5016c94146105fe578063c746cec814610171578063d547741f146101305763f317a1b4146100f057600080fd5b3461012b57600060031936011261012b5760206040517f24cc974a99b70edb628de99d0d5aad589b9e197e17cd0e389e7739c2700ee4238152f35b600080fd5b3461012b57604060031936011261012b5761016f60043561014f6113a9565b9080600052600060205261016a600160406000200154611607565b6116f0565b005b3461012b57606060031936011261012b57602460068135101561012b576044359067ffffffffffffffff9081831161012b573660238401121561012b5782600401358281116105d057604051936101f060207fffffffffffffffffffffffffffffffffffffffffffffffffffffffffffffffe0601f85011601866114c1565b8185523683838301011161012b5781600092846020930183880137850101523360009081527ff88ec009905406fd914cf72534a68b550e9458fabcc40b0339d2dedecfac578260205260409020547f24cc974a99b70edb628de99d0d5aad589b9e197e17cd0e389e7739c2700ee4239060ff161561059a57506004356000526002602052604060002080549260405194610289866114a5565b8486526020860192600435845260408701906102a6863583611773565b6060880192835260016080890152600060a08901526801000000000000000087101561056c57866102dc91600182018155611436565b94909461053e578751855551600185015551600681101561051057610304906002850161177f565b5180519182116104e25761031b6003840154611452565b601f811161049b575b50602090601f83116001146103e857958260059360a0936103b398996000926103dd575b50507fffffffffffffffffffffffffffffffffffffffffffffffffffffffffffffffff8260011b9260031b1c19161760038501555b61039d60808201511515600486019060ff60ff1983541691151516179055565b01519101556040519283526020830190356113e2565b7f8c5ea7010a33853fac9b3c3658c83b61cac6b9335690fff17e4bb8256663179b604060043592a2005b015190508980610348565b907fffffffffffffffffffffffffffffffffffffffffffffffffffffffffffffffe08316916003850160005260206000209260005b81811061048357509360a0936103b3989993600193836005981061044c575b505050811b01600385015561037d565b01517fffffffffffffffffffffffffffffffffffffffffffffffffffffffffffffffff60f88460031b161c1916905589808061043c565b9293602060018192878601518155019501930161041d565b600384016000526020600020601f840160051c8101602085106104db575b601f830160051c820181106104cf575050610324565b600081556001016104b9565b50806104b9565b837f4e487b710000000000000000000000000000000000000000000000000000000060005260416004526000fd5b847f4e487b710000000000000000000000000000000000000000000000000000000060005260216004526000fd5b857f4e487b710000000000000000000000000000000000000000000000000000000060005260006004526000fd5b857f4e487b710000000000000000000000000000000000000000000000000000000060005260416004526000fd5b60449250604051917fe2517d3f000000000000000000000000000000000000000000000000000000008352336004840152820152fd5b507f4e487b710000000000000000000000000000000000000000000000000000000060005260416004526000fd5b3461012b57608060031936011261012b57604435600681101561012b5760643580151580910361012b57600435600052600160205260406000203360005260205273ffffffffffffffffffffffffffffffffffffffff6040600020541661093f5760405190610120820182811067ffffffffffffffff821117610910576040523382526004356020830152602435604083015261069e8360608401611773565b6080820152600160a08201524260c0820152600060e08201526000610100820152600435600052600160205260406000203360005260205260406000209073ffffffffffffffffffffffffffffffffffffffff8151167fffffffffffffffffffffffff00000000000000000000000000000000000000008354161782556020810151600183015560408101519160029283820155600381019060608301519160068310156108d8576107536107ce938261177f565b6080840151151581547fffffffffffffffffffffffffffffffffffffffffffffffffffffffffff0000ff61ff0062ff000060a0890151151560101b169360081b1691161717905560c08301516004820155600661010060e085015194600595868501550151151591019060ff60ff1983541691151516179055565b6004356000526003602052604060002080546801000000000000000081101561091057610800916001820181556113ef565b81549060031b9073ffffffffffffffffffffffffffffffffffffffff33831b921b191617905560005b6004356000528260205260406000208054821015610907578361084e8360ff93611436565b5001541660068510156108d85760068110156108d85784146108785761087390611798565b610829565b61089091926004356000526020526040600020611436565b500161089c8154611798565b90555b6108ac60405180926113e2565b33907f9c2d20134ac13907909945fb6a7b20dd45c84eca5ff9153eef7d4a31d472d8ab602060043592a3005b7f4e487b7100000000000000000000000000000000000000000000000000000000600052602160045260246000fd5b5050505061089f565b7f4e487b7100000000000000000000000000000000000000000000000000000000600052604160045260246000fd5b60646040517f08c379a000000000000000000000000000000000000000000000000000000000815260206004820152601060248201527f416c7265616479207761746368696e67000000000000000000000000000000006044820152fd5b3461012b57602060031936011261012b5760043560005260046020526020604060002054604051908152f35b3461012b57600060031936011261012b57602060405160008152f35b3461012b57604060031936011261012b576109fe6113a9565b600435600052600060205273ffffffffffffffffffffffffffffffffffffffff60406000209116600052602052602060ff604060002054166040519015158152f35b3461012b5760208060031936011261012b576004356000526002908181526040600020805467ffffffffffffffff8111610910579160405192600594610a8a8383881b01866114c1565b81855260009384528284208386019491855b848410610b65575050505050604051928184019082855251809152604081818601961b85010192916000955b828710610ad55785850386f35b909192938280827fffffffffffffffffffffffffffffffffffffffffffffffffffffffffffffffc08960019503018552875190815181528282015183820152610b26604083015160408301906113e2565b610b3f6060808401519060c080918501528301906115a9565b9160808082015115159083015260a0809101519101529601920196019592919092610ac8565b60068660019260409a989a51610b7a816114a5565b86548152848701548382015260ff610b9a81888a01541660408401611773565b610ba660038901611502565b6060830152600488015416151560808201528c87015460a0820152815201930193019291969496610a9c565b3461012b57610be0366113cc565b906000526002602052604060002090815481101561012b57610c0191611436565b50805460018201549160ff600282015416610c5a610c2160038401611502565b610c49600560ff600487015416950154936040519788978852602088015260408701906113e2565b60c0606086015260c08501906115a9565b911515608084015260a08301520390f35b3461012b57604060031936011261012b57602435600435600682101561012b5780600052602060018152604060002033600052815273ffffffffffffffffffffffffffffffffffffffff6040600020541615610d19577fec252254ecd7174ebfd43f83058f6c600ee423d04bd1d9093b5a72ca28568b5e9082600052600181526040600020336000528152610d0784600360406000200161177f565b610d1460405180956113e2565b3393a3005b606490604051907f08c379a00000000000000000000000000000000000000000000000000000000082526004820152600c60248201527f4e6f74207761746368696e6700000000000000000000000000000000000000006044820152fd5b3461012b5760208060031936011261012b5760043560005260038152604060002060405190818382549182815201908192600052846000209060005b86828210610e1f578686610dc9828803836114c1565b604051928392818401908285525180915260408401929160005b828110610df257505050500390f35b835173ffffffffffffffffffffffffffffffffffffffff1685528695509381019392810192600101610de3565b835473ffffffffffffffffffffffffffffffffffffffff1685529093019260019283019201610db3565b3461012b57610e57366113cc565b906000526003602052604060002090815481101561012b57610e9073ffffffffffffffffffffffffffffffffffffffff916020936113ef565b90549060031b1c16604051908152f35b3461012b57602060031936011261012b5760043560005260056020526020604060002054604051908152f35b3461012b57604060031936011261012b57610120610ee86113a9565b6004356000526001602052604060002073ffffffffffffffffffffffffffffffffffffffff80921660005260205260406000209081541690600181015490600281015460ff60038301546004840154928260066005870154960154169560405197885260208801526040870152610f64606087018383166113e2565b818160081c161515608087015260101c16151560a085015260c084015260e08301521515610100820152f35b3461012b57604060031936011261012b57610fa96113a9565b3373ffffffffffffffffffffffffffffffffffffffff821603610fd25761016f906004356116f0565b60046040517f6697b232000000000000000000000000000000000000000000000000000000008152fd5b3461012b5761100a366113cc565b90600182101580611292575b1561123457806000526020600181526040600020336000528152604060002073ffffffffffffffffffffffffffffffffffffffff815416156111d657600681019081549060ff82166111785760019186600560ff1993015516179055816000526005815260406000205490600481526040600020549180830292808404821490151715611149576064850285810460641486151715611149578301809311611149576001810180911161114957801561111a577f8a78493d2f912bd6ed841939dd9bf8d705c836f502ddff1ec890847730af6a669284600052600483520460406000205560058152604060002061110d8154611798565b90556040519384523393a3005b7f4e487b7100000000000000000000000000000000000000000000000000000000600052601260045260246000fd5b7f4e487b7100000000000000000000000000000000000000000000000000000000600052601160045260246000fd5b606484604051907f08c379a00000000000000000000000000000000000000000000000000000000082526004820152600d60248201527f416c7265616479207261746564000000000000000000000000000000000000006044820152fd5b606482604051907f08c379a00000000000000000000000000000000000000000000000000000000082526004820152600d60248201527f446964206e6f74207761746368000000000000000000000000000000000000006044820152fd5b60646040517f08c379a000000000000000000000000000000000000000000000000000000000815260206004820152600a60248201527f526174696e6720312d35000000000000000000000000000000000000000000006044820152fd5b506005821115611016565b3461012b57604060031936011261012b5761016f6004356112bc6113a9565b908060005260006020526112d7600160406000200154611607565b611664565b3461012b57602060031936011261012b5760043560005260006020526020600160406000200154604051908152f35b3461012b57602060031936011261012b57600435907fffffffff00000000000000000000000000000000000000000000000000000000821680920361012b57817f7965db0b000000000000000000000000000000000000000000000000000000006020931490811561137f575b5015158152f35b7f01ffc9a70000000000000000000000000000000000000000000000000000000091501483611378565b6024359073ffffffffffffffffffffffffffffffffffffffff8216820361012b57565b600319604091011261012b576004359060243590565b9060068210156108d85752565b80548210156114075760005260206000200190600090565b7f4e487b7100000000000000000000000000000000000000000000000000000000600052603260045260246000fd5b8054821015611407576000526006602060002091020190600090565b90600182811c9216801561149b575b602083101461146c57565b7f4e487b7100000000000000000000000000000000000000000000000000000000600052602260045260246000fd5b91607f1691611461565b60c0810190811067ffffffffffffffff82111761091057604052565b90601f7fffffffffffffffffffffffffffffffffffffffffffffffffffffffffffffffe0910116810190811067ffffffffffffffff82111761091057604052565b906040519182600082549261151684611452565b9081845260019485811690816000146115855750600114611542575b5050611540925003836114c1565b565b9093915060005260209081600020936000915b81831061156d57505061154093508201013880611532565b85548884018501529485019487945091830191611555565b905061154095506020935060ff1991501682840152151560051b8201013880611532565b919082519283825260005b8481106115f35750507fffffffffffffffffffffffffffffffffffffffffffffffffffffffffffffffe0601f8460006020809697860101520116010190565b6020818301810151848301820152016115b4565b80600052600060205260406000203360005260205260ff604060002054161561162d5750565b604490604051907fe2517d3f0000000000000000000000000000000000000000000000000000000082523360048301526024820152fd5b906000918083528260205273ffffffffffffffffffffffffffffffffffffffff6040842092169182845260205260ff604084205416156000146116eb57808352826020526040832082845260205260408320600160ff198254161790557f2f8788117e7eff1d82e926ec794901d17c78024a50270940304540a733656f0d339380a4600190565b505090565b906000918083528260205273ffffffffffffffffffffffffffffffffffffffff6040842092169182845260205260ff6040842054166000146116eb5780835282602052604083208284526020526040832060ff1981541690557ff6391f5c32d9c69d2a47ea670b442974b53935d1edc7fd64eb21e047a839171b339380a4600190565b60068210156108d85752565b9060068110156108d85760ff60ff198354169116179055565b7fffffffffffffffffffffffffffffffffffffffffffffffffffffffffffffffff8114611149576001019056fea26469706673582212209bbe62687a273906993d712172e23e7a93ac1a2b6b82feebd3765705c576171964736f6c634300081400332f8788117e7eff1d82e926ec794901d17c78024a50270940304540a733656f0d",
  "linkReferences": {},
  "deployedLinkReferences": {}
}