{
  "_format": "hh-sol-artifact-1",
  "contractName": "AIActorNFT",
  "sourceName": "contracts/layer4/talent/AIActorNFT.sol",
  "abi": [
    {
      "inputs": [],
      "stateMutability": "nonpayable",
      "type": "constructor"
    },
    {
      "inputs": [
        {
          "internalType": "address",
          "name": "sender",
          "type": "address"
        },
        {
          "internalType": "uint256",
          "name": "tokenId",
          "type": "uint256"
        },
        {
          "internalType": "address",
          "name": "owner",
          "type": "address"
        }
      ],
      "name": "ERC721IncorrectOwner",
      "type": "error"
    },
    {
      "inputs": [
        {
          "internalType": "address",
          "name": "operator",
          "type": "address"
        },
        {
          "internalType": "uint256",
          "name": "tokenId",
          "type": "uint256"
        }
      ],
      "name": "ERC721InsufficientApproval",
      "type": "error"
    },
    {
      "inputs": [
        {
          "internalType": "address",
          "name": "approver",
          "type": "address"
        }
      ],
      "name": "ERC721InvalidApprover",
      "type": "error"
    },
    {
      "inputs": [
        {
          "internalType": "address",
          "name": "operator",
          "type": "address"
        }
      ],
      "name": "ERC721InvalidOperator",
      "type": "error"
    },
    {
      "inputs": [
        {
          "internalType": "address",
          "name": "owner",
          "type": "address"
        }
      ],
      "name": "ERC721InvalidOwner",
      "type": "error"
    },
    {
      "inputs": [
        {
          "internalType": "address",
          "name": "receiver",
          "type": "address"
        }
      ],
      "name": "ERC721InvalidReceiver",
      "type": "error"
    },
    {
      "inputs": [
        {
          "internalType": "address",
          "name": "sender",
          "type": "address"
        }
      ],
      "name": "ERC721InvalidSender",
      "type": "error"
    },
    {
      "inputs": [
        {
          "internalType": "uint256",
          "name": "tokenId",
          "type": "uint256"
        }
      ],
      "name": "ERC721NonexistentToken",
      "type": "error"
    },
    {
      "inputs": [
        {
          "internalType": "address",
          "name": "owner",
          "type": "address"
        }
      ],
      "name": "OwnableInvalidOwner",
      "type": "error"
    },
    {
      "inputs": [
        {
          "internalType": "address",
          "name": "account",
          "type": "address"
        }
      ],
      "name": "OwnableUnauthorizedAccount",
      "type": "error"
    },
    {
      "anonymous": false,
      "inputs": [
        {
          "indexed": true,
          "internalType": "uint256",
          "name": "actorId",
          "type": "uint256"
        },
        {
          "indexed": true,
          "internalType": "uint256",
          "name": "movieId",
          "type": "uint256"
        },
        {
          "indexed": false,
          "internalType": "uint256",
          "name": "fee",
          "type": "uint256"
        }
      ],
      "name": "ActorHired",
      "type": "event"
    },
    {
      "anonymous": false,
      "inputs": [
        {
          "indexed": true,
          "internalType": "uint256",
          "name": "actorId",
          "type": "uint256"
        },
        {
          "indexed": true,
          "internalType": "uint256",
          "name": "entityId",
          "type": "uint256"
        },
        {
          "indexed": false,
          "internalType": "string",
          "name": "stageName",
          "type": "string"
        }
      ],
      "name": "ActorMinted",
      "type": "event"
    },
    {
      "anonymous": false,
      "inputs": [
        {
          "indexed": true,
          "internalType": "uint256",
          "name": "actorId",
          "type": "uint256"
        }
      ],
      "name": "ActorRetired",
      "type": "event"
    },
    {
      "anonymous": false,
      "inputs": [
        {
          "indexed": true,
          "internalType": "address",
          "name": "owner",
          "type": "address"
        },
        {
          "indexed": true,
          "internalType": "address",
          "name": "approved",
          "type": "address"
        },
        {
          "indexed": true,
          "internalType": "uint256",
          "name": "tokenId",
          "type": "uint256"
        }
      ],
      "name": "Approval",
      "type": "event"
    },
    {
      "anonymous": false,
      "inputs": [
        {
          "indexed": true,
          "internalType": "address",
          "name": "owner",
          "type": "address"
        },
        {
          "indexed": true,
          "internalType": "address",
          "name": "operator",
          "type": "address"
        },
        {
          "indexed": false,
          "internalType": "bool",
          "name": "approved",
          "type": "bool"
        }
      ],
      "name": "ApprovalForAll",
      "type": "event"
    },
    {
      "anonymous": false,
      "inputs": [
        {
          "indexed": true,
          "internalType": "address",
          "name": "previousOwner",
          "type": "address"
        },
        {
          "indexed": true,
          "internalType": "address",
          "name": "newOwner",
          "type": "address"
        }
      ],
      "name": "OwnershipTransferred",
      "type": "event"
    },
    {
      "anonymous": false,
      "inputs": [
        {
          "indexed": true,
          "internalType": "uint256",
          "name": "actorId",
          "type": "uint256"
        },
        {
          "indexed": false,
          "internalType": "uint256",
          "name": "rating",
          "type": "uint256"
        }
      ],
      "name": "PerformanceRated",
      "type": "event"
    },
    {
      "anonymous": false,
      "inputs": [
        {
          "indexed": true,
          "internalType": "address",
          "name": "from",
          "type": "address"
        },
        {
          "indexed": true,
          "internalType": "address",
          "name": "to",
          "type": "address"
        },
        {
          "indexed": true,
          "internalType": "uint256",
          "name": "tokenId",
          "type": "uint256"
        }
      ],
      "name": "Transfer",
      "type": "event"
    },
    {
      "inputs": [
        {
          "internalType": "uint256",
          "name": "",
          "type": "uint256"
        }
      ],
      "name": "actingStyles",
      "outputs": [
        {
          "internalType": "uint256",
          "name": "emotionalRange",
          "type": "uint256"
        },
        {
          "internalType": "uint256",
          "name": "versatility",
          "type": "uint256"
        },
        {
          "internalType": "uint256",
          "name": "consistency",
          "type": "uint256"
        },
        {
          "internalType": "uint256",
          "name": "charisma",
          "type": "uint256"
        },
        {
          "internalType": "uint256",
          "name": "improvisation",
          "type": "uint256"
        }
      ],
      "stateMutability": "view",
      "type": "function"
    },
    {
      "inputs": [
        {
          "internalType": "uint256",
          "name": "",
          "type": "uint256"
        },
        {
          "internalType": "uint256",
          "name": "",
          "type": "uint256"
        }
      ],
      "name": "actorRoles",
      "outputs": [
        {
          "internalType": "uint256",
          "name": "",
          "type": "uint256"
        }
      ],
      "stateMutability": "view",
      "type": "function"
    },
    {
      "inputs": [
        {
          "internalType": "uint256",
          "name": "",
          "type": "uint256"
        },
        {
          "internalType": "uint256",
          "name": "",
          "type": "uint256"
        }
      ],
      "name": "actorSpecializations",
      "outputs": [
        {
          "internalType": "bool",
          "name": "",
          "type": "bool"
        }
      ],
      "stateMutability": "view",
      "type": "function"
    },
    {
      "inputs": [
        {
          "internalType": "uint256",
          "name": "",
          "type": "uint256"
        }
      ],
      "name": "actors",
      "outputs": [
        {
          "internalType": "uint256",
          "name": "actorId",
          "type": "uint256"
        },
        {
          "internalType": "uint256",
          "name": "entityId",
          "type": "uint256"
        },
        {
          "internalType": "string",
          "name": "stageName",
          "type": "string"
        },
        {
          "internalType": "enum AIActorNFT.ActorType",
          "name": "actorType",
          "type": "uint8"
        },
        {
          "internalType": "uint256",
          "name": "baseRate",
          "type": "uint256"
        },
        {
          "internalType": "uint256",
          "name": "reputationScore",
          "type": "uint256"
        },
        {
          "internalType": "uint256",
          "name": "totalScenes",
          "type": "uint256"
        },
        {
          "internalType": "uint256",
          "name": "totalMovies",
          "type": "uint256"
        },
        {
          "internalType": "uint256",
          "name": "totalEarnings",
          "type": "uint256"
        },
        {
          "internalType": "bool",
          "name": "available",
          "type": "bool"
        },
        {
          "internalType": "uint256",
          "name": "lastPerformance",
          "type": "uint256"
        }
      ],
      "stateMutability": "view",
      "type": "function"
    },
    {
      "inputs": [
        {
          "internalType": "uint256",
          "name": "actorId",
          "type": "uint256"
        },
        {
          "internalType": "enum AIActorNFT.Specialization",
          "name": "spec",
          "type": "uint8"
        }
      ],
      "name": "addSpecialization",
      "outputs": [],
      "stateMutability": "nonpayable",
      "type": "function"
    },
    {
      "inputs": [
        {
          "internalType": "address",
          "name": "to",
          "type": "address"
        },
        {
          "internalType": "uint256",
          "name": "tokenId",
          "type": "uint256"
        }
      ],
      "name": "approve",
      "outputs": [],
      "stateMutability": "nonpayable",
      "type": "function"
    },
    {
      "inputs": [
        {
          "internalType": "address",
          "name": "owner",
          "type": "address"
        }
      ],
      "name": "balanceOf",
      "outputs": [
        {
          "internalType": "uint256",
          "name": "",
          "type": "uint256"
        }
      ],
      "stateMutability": "view",
      "type": "function"
    },
    {
      "inputs": [
        {
          "internalType": "uint256",
          "name": "actorId",
          "type": "uint256"
        }
      ],
      "name": "getActingStyle",
      "outputs": [
        {
          "components": [
            {
              "internalType": "uint256",
              "name": "emotionalRange",
              "type": "uint256"
            },
            {
              "internalType": "uint256",
              "name": "versatility",
              "type": "uint256"
            },
            {
              "internalType": "uint256",
              "name": "consistency",
              "type": "uint256"
            },
            {
              "internalType": "uint256",
              "name": "charisma",
              "type": "uint256"
            },
            {
              "internalType": "uint256",
              "name": "improvisation",
              "type": "uint256"
            }
          ],
          "internalType": "struct AIActorNFT.ActingStyle",
          "name": "",
          "type": "tuple"
        }
      ],
      "stateMutability": "view",
      "type": "function"
    },
    {
      "inputs": [
        {
          "internalType": "uint256",
          "name": "actorId",
          "type": "uint256"
        }
      ],
      "name": "getActor",
      "outputs": [
        {
          "components": [
            {
              "internalType": "uint256",
              "name": "actorId",
              "type": "uint256"
            },
            {
              "internalType": "uint256",
              "name": "entityId",
              "type": "uint256"
            },
            {
              "internalType": "string",
              "name": "stageName",
              "type": "string"
            },
            {
              "internalType": "enum AIActorNFT.ActorType",
              "name": "actorType",
              "type": "uint8"
            },
            {
              "internalType": "uint256[]",
              "name": "specializations",
              "type": "uint256[]"
            },
            {
              "internalType": "uint256",
              "name": "baseRate",
              "type": "uint256"
            },
            {
              "internalType": "uint256",
              "name": "reputationScore",
              "type": "uint256"
            },
            {
              "internalType": "uint256",
              "name": "totalScenes",
              "type": "uint256"
            },
            {
              "internalType": "uint256",
              "name": "totalMovies",
              "type": "uint256"
            },
            {
              "internalType": "uint256",
              "name": "totalEarnings",
              "type": "uint256"
            },
            {
              "internalType": "bool",
              "name": "available",
              "type": "bool"
            },
            {
              "internalType": "uint256",
              "name": "lastPerformance",
              "type": "uint256"
            }
          ],
          "internalType": "struct AIActorNFT.AIActor",
          "name": "",
          "type": "tuple"
        }
      ],
      "stateMutability": "view",
      "type": "function"
    },
    {
      "inputs": [
        {
          "internalType": "uint256",
          "name": "actorId",
          "type": "uint256"
        }
      ],
      "name": "getActorRoles",
      "outputs": [
        {
          "internalType": "uint256[]",
          "name": "",
          "type": "uint256[]"
        }
      ],
      "stateMutability": "view",
      "type": "function"
    },
    {
      "inputs": [
        {
          "internalType": "uint256",
          "name": "tokenId",
          "type": "uint256"
        }
      ],
      "name": "getApproved",
      "outputs": [
        {
          "internalType": "address",
          "name": "",
          "type": "address"
        }
      ],
      "stateMutability": "view",
      "type": "function"
    },
    {
      "inputs": [
        {
          "internalType": "uint256",
          "name": "actorId",
          "type": "uint256"
        },
        {
          "internalType": "uint256",
          "name": "movieId",
          "type": "uint256"
        }
      ],
      "name": "hireActor",
      "outputs": [],
      "stateMutability": "payable",
      "type": "function"
    },
    {
      "inputs": [
        {
          "internalType": "address",
          "name": "owner",
          "type": "address"
        },
        {
          "internalType": "address",
          "name": "operator",
          "type": "address"
        }
      ],
      "name": "isApprovedForAll",
      "outputs": [
        {
          "internalType": "bool",
          "name": "",
          "type": "bool"
        }
      ],
      "stateMutability": "view",
      "type": "function"
    },
    {
      "inputs": [
        {
          "internalType": "uint256",
          "name": "entityId",
          "type": "uint256"
        },
        {
          "internalType": "string",
          "name": "stageName",
          "type": "string"
        },
        {
          "internalType": "enum AIActorNFT.ActorType",
          "name": "actorType",
          "type": "uint8"
        },
        {
          "internalType": "uint256",
          "name": "baseRate",
          "type": "uint256"
        }
      ],
      "name": "mintActor",
      "outputs": [
        {
          "internalType": "uint256",
          "name": "",
          "type": "uint256"
        }
      ],
      "stateMutability": "nonpayable",
      "type": "function"
    },
    {
      "inputs": [],
      "name": "name",
      "outputs": [
        {
          "internalType": "string",
          "name": "",
          "type": "string"
        }
      ],
      "stateMutability": "view",
      "type": "function"
    },
    {
      "inputs": [],
      "name": "owner",
      "outputs": [
        {
          "internalType": "address",
          "name": "",
          "type": "address"
        }
      ],
      "stateMutability": "view",
      "type": "function"
    },
    {
      "inputs": [
        {
          "internalType": "uint256",
          "name": "tokenId",
          "type": "uint256"
        }
      ],
      "name": "ownerOf",
      "outputs": [
        {
          "internalType": "address",
          "name": "",
          "type": "address"
        }
      ],
      "stateMutability": "view",
      "type": "function"
    },
    {
      "inputs": [
        {
          "internalType": "uint256",
          "name": "actorId",
          "type": "uint256"
        },
        {
          "internalType": "uint256",
          "name": "rating",
          "type": "uint256"
        }
      ],
      "name": "ratePerformance",
      "outputs": [],
      "stateMutability": "nonpayable",
      "type": "function"
    },
    {
      "inputs": [],
      "name": "renounceOwnership",
      "outputs": [],
      "stateMutability": "nonpayable",
      "type": "function"
    },
    {
      "inputs": [
        {
          "internalType": "uint256",
          "name": "actorId",
          "type": "uint256"
        }
      ],
      "name": "retireActor",
      "outputs": [],
      "stateMutability": "nonpayable",
      "type": "function"
    },
    {
      "inputs": [
        {
          "internalType": "address",
          "name": "from",
          "type": "address"
        },
        {
          "internalType": "address",
          "name": "to",
          "type": "address"
        },
        {
          "internalType": "uint256",
          "name": "tokenId",
          "type": "uint256"
        }
      ],
      "name": "safeTransferFrom",
      "outputs": [],
      "stateMutability": "nonpayable",
      "type": "function"
    },
    {
      "inputs": [
        {
          "internalType": "address",
          "name": "from",
          "type": "address"
        },
        {
          "internalType": "address",
          "name": "to",
          "type": "address"
        },
        {
          "internalType": "uint256",
          "name": "tokenId",
          "type": "uint256"
        },
        {
          "internalType": "bytes",
          "name": "data",
          "type": "bytes"
        }
      ],
      "name": "safeTransferFrom",
      "outputs": [],
      "stateMutability": "nonpayable",
      "type": "function"
    },
    {
      "inputs": [
        {
          "internalType": "address",
          "name": "operator",
          "type": "address"
        },
        {
          "internalType": "bool",
          "name": "approved",
          "type": "bool"
        }
      ],
      "name": "setApprovalForAll",
      "outputs": [],
      "stateMutability": "nonpayable",
      "type": "function"
    },
    {
      "inputs": [
        {
          "internalType": "uint256",
          "name": "actorId",
          "type": "uint256"
        },
        {
          "internalType": "bool",
          "name": "available",
          "type": "bool"
        }
      ],
      "name": "setAvailability",
      "outputs": [],
      "stateMutability": "nonpayable",
      "type": "function"
    },
    {
      "inputs": [
        {
          "internalType": "bytes4",
          "name": "interfaceId",
          "type": "bytes4"
        }
      ],
      "name": "supportsInterface",
      "outputs": [
        {
          "internalType": "bool",
          "name": "",
          "type": "bool"
        }
      ],
      "stateMutability": "view",
      "type": "function"
    },
    {
      "inputs": [],
      "name": "symbol",
      "outputs": [
        {
          "internalType": "string",
          "name": "",
          "type": "string"
        }
      ],
      "stateMutability": "view",
      "type": "function"
    },
    {
      "inputs": [
        {
          "internalType": "uint256",
          "name": "tokenId",
          "type": "uint256"
        }
      ],
      "name": "tokenURI",
      "outputs": [
        {
          "internalType": "string",
          "name": "",
          "type": "string"
        }
      ],
      "stateMutability": "view",
      "type": "function"
    },
    {
      "inputs": [
        {
          "internalType": "address",
          "name": "from",
          "type": "address"
        },
        {
          "internalType": "address",
          "name": "to",
          "type": "address"
        },
        {
          "internalType": "uint256",
          "name": "tokenId",
          "type": "uint256"
        }
      ],
      "name": "transferFrom",
      "outputs": [],
      "stateMutability": "nonpayable",
      "type": "function"
    },
    {
      "inputs": [
        {
          "internalType": "address",
          "name": "newOwner",
          "type": "address"
        }
      ],
      "name": "transferOwnership",
      "outputs": [],
      "stateMutability": "nonpayable",
      "type": "function"
    },
    {
      "inputs": [
        {
          "internalType": "uint256",
          "name": "actorId",
          "type": "uint256"
        },
        {
          "internalType": "uint256",
          "name": "newRate",
          "type": "uint256"
        }
      ],
      "name": "updateBaseRate",
      "outputs": [],
      "stateMutability": "nonpayable",
      "type": "function"
    }
  ],
  "bytecode": "0x60806040523480156200001157600080fd5b50336040518060400160405280600c81526020016b27a0a71020a49020b1ba37b960a11b8152506040518060400160405280600581526020016420a1aa27a960d91b8152508160009081620000679190620001b1565b506001620000768282620001b1565b5050506001600160a01b038116620000a857604051631e4fbdf760e01b81526000600482015260240160405180910390fd5b620000b381620000ba565b506200027d565b600680546001600160a01b038381166001600160a01b0319831681179093556040519116919082907f8be0079c531659141344cd1fd0a4f28419497f9722a3daafe3b4186f6b6457e090600090a35050565b634e487b7160e01b600052604160045260246000fd5b600181811c908216806200013757607f821691505b6020821081036200015857634e487b7160e01b600052602260045260246000fd5b50919050565b601f821115620001ac57600081815260208120601f850160051c81016020861015620001875750805b601f850160051c820191505b81811015620001a85782815560010162000193565b5050505b505050565b81516001600160401b03811115620001cd57620001cd6200010c565b620001e581620001de845462000122565b846200015e565b602080601f8311600181146200021d5760008415620002045750858301515b600019600386901b1c1916600185901b178555620001a8565b600085815260208120601f198616915b828110156200024e578886015182559484019460019091019084016200022d565b50858210156200026d5787850151600019600388901b60f8161c191681555b5050505050600190811b01905550565b612461806200028d6000396000f3fe6080604052600436106101cd5760003560e01c8063715018a6116100f7578063a22cb46511610095578063c87b56dd11610064578063c87b56dd146105ff578063e49349a51461061f578063e985e9c51461064c578063f2fde38b1461066c57600080fd5b8063a22cb46514610572578063a865bf8014610592578063b35958a0146105b2578063b88d4fde146105df57600080fd5b80638da5cb5b116100d15780638da5cb5b146104965780638ed5d072146104b457806393c0e83a1461052657806395d89b411461055d57600080fd5b8063715018a61461044157806376f5433f14610456578063836f68dd1461047657600080fd5b80631b80c8091161016f5780633baa53471161013e5780633baa5347146103ce57806342842e0e146103e15780636352211e1461040157806370a082311461042157600080fd5b80631b80c8091461034057806323b872dd14610360578063320186d21461038057806335cb1725146103ae57600080fd5b8063081812fc116101ab578063081812fc14610264578063095ea7b31461029c5780630d0d12c6146102be578063111bf4cf1461032057600080fd5b806301ffc9a7146101d2578063059bc3791461020757806306fdde0314610242575b600080fd5b3480156101de57600080fd5b506101f26101ed366004611c67565b61068c565b60405190151581526020015b60405180910390f35b34801561021357600080fd5b506101f2610222366004611c84565b600a60209081526000928352604080842090915290825290205460ff1681565b34801561024e57600080fd5b506102576106de565b6040516101fe9190611cf6565b34801561027057600080fd5b5061028461027f366004611d09565b610770565b6040516001600160a01b0390911681526020016101fe565b3480156102a857600080fd5b506102bc6102b7366004611d3e565b610799565b005b3480156102ca57600080fd5b506102de6102d9366004611d09565b6107a8565b6040516101fe9190600060a082019050825182526020830151602083015260408301516040830152606083015160608301526080830151608083015292915050565b34801561032c57600080fd5b506102bc61033b366004611c84565b610829565b34801561034c57600080fd5b506102bc61035b366004611d68565b610877565b34801561036c57600080fd5b506102bc61037b366004611d9c565b61092b565b34801561038c57600080fd5b506103a061039b366004611e64565b6109b6565b6040519081526020016101fe565b3480156103ba57600080fd5b506102bc6103c9366004611c84565b610bed565b6102bc6103dc366004611c84565b610d04565b3480156103ed57600080fd5b506102bc6103fc366004611d9c565b610e83565b34801561040d57600080fd5b5061028461041c366004611d09565b610ea3565b34801561042d57600080fd5b506103a061043c366004611edd565b610eae565b34801561044d57600080fd5b506102bc610ef6565b34801561046257600080fd5b506103a0610471366004611c84565b610f0a565b34801561048257600080fd5b506102bc610491366004611d09565b610f3b565b3480156104a257600080fd5b506006546001600160a01b0316610284565b3480156104c057600080fd5b506104fe6104cf366004611d09565b600960205260009081526040902080546001820154600283015460038401546004909401549293919290919085565b604080519586526020860194909452928401919091526060830152608082015260a0016101fe565b34801561053257600080fd5b50610546610541366004611d09565b610fae565b6040516101fe9b9a99989796959493929190611f30565b34801561056957600080fd5b50610257611094565b34801561057e57600080fd5b506102bc61058d366004611fad565b6110a3565b34801561059e57600080fd5b506102bc6105ad366004611fe0565b6110ae565b3480156105be57600080fd5b506105d26105cd366004611d09565b611101565b6040516101fe919061203e565b3480156105eb57600080fd5b506102bc6105fa36600461210b565b6112ab565b34801561060b57600080fd5b5061025761061a366004611d09565b6112c3565b34801561062b57600080fd5b5061063f61063a366004611d09565b611338565b6040516101fe9190612187565b34801561065857600080fd5b506101f261066736600461219a565b61139a565b34801561067857600080fd5b506102bc610687366004611edd565b6113c8565b60006001600160e01b031982166380ac58cd60e01b14806106bd57506001600160e01b03198216635b5e139f60e01b145b806106d857506301ffc9a760e01b6001600160e01b03198316145b92915050565b6060600080546106ed906121c4565b80601f0160208091040260200160405190810160405280929190818152602001828054610719906121c4565b80156107665780601f1061073b57610100808354040283529160200191610766565b820191906000526020600020905b81548152906001019060200180831161074957829003601f168201915b5050505050905090565b600061077b82611406565b506000828152600460205260409020546001600160a01b03166106d8565b6107a482823361143f565b5050565b6107da6040518060a0016040528060008152602001600081526020016000815260200160008152602001600081525090565b50600090815260096020908152604091829020825160a0810184528154815260018201549281019290925260028101549282019290925260038201546060820152600490910154608082015290565b3361083383610ea3565b6001600160a01b0316146108625760405162461bcd60e51b8152600401610859906121fe565b60405180910390fd5b60009182526008602052604090912060050155565b3361088183610ea3565b6001600160a01b0316146108a75760405162461bcd60e51b8152600401610859906121fe565b600860008381526020019081526020016000206004018160088111156108cf576108cf611ef8565b8154600181810184556000938452602080852090920192909255848352600a905260408220909183600881111561090857610908611ef8565b81526020810191909152604001600020805460ff19169115159190911790555050565b6001600160a01b03821661095557604051633250574960e11b815260006004820152602401610859565b600061096283833361144c565b9050836001600160a01b0316816001600160a01b0316146109b0576040516364283d7b60e01b81526001600160a01b0380861660048301526024820184905282166044820152606401610859565b50505050565b60078054600091826109c783612237565b90915550506007546109d93382611545565b604051806101800160405280828152602001878152602001868152602001856005811115610a0957610a09611ef8565b81526020016000604051908082528060200260200182016040528015610a39578160200160208202803683370190505b508152602001848152602001611388815260200160008152602001600081526020016000815260200160011515815260200160008152506008600083815260200190815260200160002060008201518160000155602082015181600101556040820151816002019081610aac9190612296565b50606082015160038201805460ff19166001836005811115610ad057610ad0611ef8565b021790555060808201518051610af0916004840191602090910190611b7d565b5060a082810151600583015560c0830151600683015560e083015160078301556101008301516008830155610120830151600980840191909155610140840151600a8401805460ff191691151591909117905561016090930151600b9092019190915560408051918201815260328083526020808401828152848401838152606086018481526080870194855260008981529790935295849020945185555160018501559351600284015592516003830155915160049091015551869082907ff91e533914a19210c2ce8a73018c84bc2aa498c6addb8c30324cb902715bf83890610bdc908990611cf6565b60405180910390a395945050505050565b6064811115610c305760405162461bcd60e51b815260206004820152600f60248201526e0a4c2e8d2dcce40e8dede40d0d2ced608b1b6044820152606401610859565b60008281526008602052604090206007810154610c4e816001612356565b610c59846064612369565b828460060154610c699190612369565b610c739190612356565b610c7d9190612380565b600683015560008481526009602052604090206050841115610cc357610ca88160020154600261155f565b60028201556003810154610cbd90600161155f565b60038201555b847f8ea6e5b3a7943e8a6eca98783eac52e7e1743540b7af3a93c2afab441f3422d685604051610cf591815260200190565b60405180910390a25050505050565b6000828152600860205260409020600a81015460ff16610d5c5760405162461bcd60e51b81526020600482015260136024820152724163746f72206e6f7420617661696c61626c6560681b6044820152606401610859565b8060050154341015610da75760405162461bcd60e51b8152602060048201526014602482015273125b9cdd59999a58da595b9d081c185e5b595b9d60621b6044820152606401610859565b600781018054906000610db983612237565b919050555034816009016000828254610dd29190612356565b909155505042600b808301919091556000848152602091825260408120805460018101825590825291902001829055610e0a83610ea3565b6001600160a01b03166108fc349081150290604051600060405180830381858888f19350505050158015610e42573d6000803e3d6000fd5b5081837ff58df15879e6b0580d1a1994b49eb8f222c468d3fae932ad01ff47e9a1fc9ecf34604051610e7691815260200190565b60405180910390a3505050565b610e9e838383604051806020016040528060008152506112ab565b505050565b60006106d882611406565b60006001600160a01b038216610eda576040516322718ad960e21b815260006004820152602401610859565b506001600160a01b031660009081526003602052604090205490565b610efe611587565b610f0860006115b4565b565b600b6020528160005260406000208181548110610f2657600080fd5b90600052602060002001600091509150505481565b33610f4582610ea3565b6001600160a01b031614610f6b5760405162461bcd60e51b8152600401610859906121fe565b600081815260086020526040808220600a01805460ff191690555182917f094e42c1b45262c58289065c7727db4fca905f4b50a1db46446379f91a189a8191a250565b60086020526000908152604090208054600182015460028301805492939192610fd6906121c4565b80601f0160208091040260200160405190810160405280929190818152602001828054611002906121c4565b801561104f5780601f106110245761010080835404028352916020019161104f565b820191906000526020600020905b81548152906001019060200180831161103257829003601f168201915b505050600384015460058501546006860154600787015460088801546009890154600a8a0154600b909a0154989960ff9687169995985093965091949093919216908b565b6060600180546106ed906121c4565b6107a4338383611606565b336110b883610ea3565b6001600160a01b0316146110de5760405162461bcd60e51b8152600401610859906121fe565b600091825260086020526040909120600a01805460ff1916911515919091179055565b611109611bc8565b6008600083815260200190815260200160002060405180610180016040529081600082015481526020016001820154815260200160028201805461114c906121c4565b80601f0160208091040260200160405190810160405280929190818152602001828054611178906121c4565b80156111c55780601f1061119a576101008083540402835291602001916111c5565b820191906000526020600020905b8154815290600101906020018083116111a857829003601f168201915b5050509183525050600382015460209091019060ff1660058111156111ec576111ec611ef8565b60058111156111fd576111fd611ef8565b81526020016004820180548060200260200160405190810160405280929190818152602001828054801561125057602002820191906000526020600020905b81548152602001906001019080831161123c575b505050918352505060058201546020820152600682015460408201526007820154606082015260088201546080820152600982015460a0820152600a82015460ff16151560c0820152600b9091015460e09091015292915050565b6112b684848461092b565b6109b0338585858561169d565b60606112ce82611406565b5060006112e660408051602081019091526000815290565b905060008151116113065760405180602001604052806000815250611331565b80611310846117c8565b6040516020016113219291906123a2565b6040516020818303038152906040525b9392505050565b6000818152600b602090815260409182902080548351818402810184019094528084526060939283018282801561138e57602002820191906000526020600020905b81548152602001906001019080831161137a575b50505050509050919050565b6001600160a01b03918216600090815260056020908152604080832093909416825291909152205460ff1690565b6113d0611587565b6001600160a01b0381166113fa57604051631e4fbdf760e01b815260006004820152602401610859565b611403816115b4565b50565b6000818152600260205260408120546001600160a01b0316806106d857604051637e27328960e01b815260048101849052602401610859565b610e9e838383600161185b565b6000828152600260205260408120546001600160a01b039081169083161561147957611479818486611961565b6001600160a01b038116156114b75761149660008560008061185b565b6001600160a01b038116600090815260036020526040902080546000190190555b6001600160a01b038516156114e6576001600160a01b0385166000908152600360205260409020805460010190555b60008481526002602052604080822080546001600160a01b0319166001600160a01b0389811691821790925591518793918516917fddf252ad1be2c89b69c2b068fc378daa952ba7f163c4a11628f55a4df523b3ef91a4949350505050565b6107a48282604051806020016040528060008152506119c5565b60008061156c8385612356565b90506064811161157c578061157f565b60645b949350505050565b6006546001600160a01b03163314610f085760405163118cdaa760e01b8152336004820152602401610859565b600680546001600160a01b038381166001600160a01b0319831681179093556040519116919082907f8be0079c531659141344cd1fd0a4f28419497f9722a3daafe3b4186f6b6457e090600090a35050565b6001600160a01b03821661163857604051630b61174360e31b81526001600160a01b0383166004820152602401610859565b6001600160a01b03838116600081815260056020908152604080832094871680845294825291829020805460ff191686151590811790915591519182527f17307eab39ab6107e8899845ad3d59bd9653f200f220920489ca2b5937696c319101610e76565b6001600160a01b0383163b156117c157604051630a85bd0160e11b81526001600160a01b0384169063150b7a02906116df9088908890879087906004016123d1565b6020604051808303816000875af192505050801561171a575060408051601f3d908101601f191682019092526117179181019061240e565b60015b611783573d808015611748576040519150601f19603f3d011682016040523d82523d6000602084013e61174d565b606091505b50805160000361177b57604051633250574960e11b81526001600160a01b0385166004820152602401610859565b805160208201fd5b6001600160e01b03198116630a85bd0160e11b146117bf57604051633250574960e11b81526001600160a01b0385166004820152602401610859565b505b5050505050565b606060006117d5836119dd565b600101905060008167ffffffffffffffff8111156117f5576117f5611dd8565b6040519080825280601f01601f19166020018201604052801561181f576020820181803683370190505b5090508181016020015b600019016f181899199a1a9b1b9c1cb0b131b232b360811b600a86061a8153600a850494508461182957509392505050565b808061186f57506001600160a01b03821615155b1561193157600061187f84611406565b90506001600160a01b038316158015906118ab5750826001600160a01b0316816001600160a01b031614155b80156118be57506118bc818461139a565b155b156118e75760405163a9fbf51f60e01b81526001600160a01b0384166004820152602401610859565b811561192f5783856001600160a01b0316826001600160a01b03167f8c5be1e5ebec7d5bd14f71427d1e84f3dd0314c0f7b2291e5b200ac8c7c3b92560405160405180910390a45b505b5050600090815260046020526040902080546001600160a01b0319166001600160a01b0392909216919091179055565b61196c838383611ab5565b610e9e576001600160a01b03831661199a57604051637e27328960e01b815260048101829052602401610859565b60405163177e802f60e01b81526001600160a01b038316600482015260248101829052604401610859565b6119cf8383611b18565b610e9e33600085858561169d565b60008072184f03e93ff9f4daa797ed6e38ed64bf6a1f0160401b8310611a1c5772184f03e93ff9f4daa797ed6e38ed64bf6a1f0160401b830492506040015b6d04ee2d6d415b85acef81000000008310611a48576d04ee2d6d415b85acef8100000000830492506020015b662386f26fc100008310611a6657662386f26fc10000830492506010015b6305f5e1008310611a7e576305f5e100830492506008015b6127108310611a9257612710830492506004015b60648310611aa4576064830492506002015b600a83106106d85760010192915050565b60006001600160a01b0383161580159061157f5750826001600160a01b0316846001600160a01b03161480611aef5750611aef848461139a565b8061157f5750506000908152600460205260409020546001600160a01b03908116911614919050565b6001600160a01b038216611b4257604051633250574960e11b815260006004820152602401610859565b6000611b508383600061144c565b90506001600160a01b03811615610e9e576040516339e3563760e11b815260006004820152602401610859565b828054828255906000526020600020908101928215611bb8579160200282015b82811115611bb8578251825591602001919060010190611b9d565b50611bc4929150611c3c565b5090565b60405180610180016040528060008152602001600081526020016060815260200160006005811115611bfc57611bfc611ef8565b8152602001606081526020016000815260200160008152602001600081526020016000815260200160008152602001600015158152602001600081525090565b5b80821115611bc45760008155600101611c3d565b6001600160e01b03198116811461140357600080fd5b600060208284031215611c7957600080fd5b813561133181611c51565b60008060408385031215611c9757600080fd5b50508035926020909101359150565b60005b83811015611cc1578181015183820152602001611ca9565b50506000910152565b60008151808452611ce2816020860160208601611ca6565b601f01601f19169290920160200192915050565b6020815260006113316020830184611cca565b600060208284031215611d1b57600080fd5b5035919050565b80356001600160a01b0381168114611d3957600080fd5b919050565b60008060408385031215611d5157600080fd5b611d5a83611d22565b946020939093013593505050565b60008060408385031215611d7b57600080fd5b82359150602083013560098110611d9157600080fd5b809150509250929050565b600080600060608486031215611db157600080fd5b611dba84611d22565b9250611dc860208501611d22565b9150604084013590509250925092565b634e487b7160e01b600052604160045260246000fd5b600067ffffffffffffffff80841115611e0957611e09611dd8565b604051601f8501601f19908116603f01168101908282118183101715611e3157611e31611dd8565b81604052809350858152868686011115611e4a57600080fd5b858560208301376000602087830101525050509392505050565b60008060008060808587031215611e7a57600080fd5b84359350602085013567ffffffffffffffff811115611e9857600080fd5b8501601f81018713611ea957600080fd5b611eb887823560208401611dee565b935050604085013560068110611ecd57600080fd5b9396929550929360600135925050565b600060208284031215611eef57600080fd5b61133182611d22565b634e487b7160e01b600052602160045260246000fd5b60068110611f2c57634e487b7160e01b600052602160045260246000fd5b9052565b60006101608d83528c6020840152806040840152611f508184018d611cca565b915050611f60606083018b611f0e565b608082019890985260a081019690965260c086019490945260e0850192909252610100840152151561012083015261014090910152949350505050565b80358015158114611d3957600080fd5b60008060408385031215611fc057600080fd5b611fc983611d22565b9150611fd760208401611f9d565b90509250929050565b60008060408385031215611ff357600080fd5b82359150611fd760208401611f9d565b600081518084526020808501945080840160005b8381101561203357815187529582019590820190600101612017565b509495945050505050565b602081528151602082015260208201516040820152600060408301516101808060608501526120716101a0850183611cca565b915060608501516120856080860182611f0e565b506080850151848303601f190160a08601526120a18382612003565b92505060a085015160c085015260c085015160e085015260e08501516101008181870152808701519150506101208181870152808701519150506101408181870152808701519150506101606120fa8187018315159052565b959095015193019290925250919050565b6000806000806080858703121561212157600080fd5b61212a85611d22565b935061213860208601611d22565b925060408501359150606085013567ffffffffffffffff81111561215b57600080fd5b8501601f8101871361216c57600080fd5b61217b87823560208401611dee565b91505092959194509250565b6020815260006113316020830184612003565b600080604083850312156121ad57600080fd5b6121b683611d22565b9150611fd760208401611d22565b600181811c908216806121d857607f821691505b6020821081036121f857634e487b7160e01b600052602260045260246000fd5b50919050565b6020808252600990820152682737ba1037bbb732b960b91b604082015260600190565b634e487b7160e01b600052601160045260246000fd5b60006001820161224957612249612221565b5060010190565b601f821115610e9e57600081815260208120601f850160051c810160208610156122775750805b601f850160051c820191505b818110156117bf57828155600101612283565b815167ffffffffffffffff8111156122b0576122b0611dd8565b6122c4816122be84546121c4565b84612250565b602080601f8311600181146122f957600084156122e15750858301515b600019600386901b1c1916600185901b1785556117bf565b600085815260208120601f198616915b8281101561232857888601518255948401946001909101908401612309565b50858210156123465787850151600019600388901b60f8161c191681555b5050505050600190811b01905550565b808201808211156106d8576106d8612221565b80820281158282048414176106d8576106d8612221565b60008261239d57634e487b7160e01b600052601260045260246000fd5b500490565b600083516123b4818460208801611ca6565b8351908301906123c8818360208801611ca6565b01949350505050565b6001600160a01b038581168252841660208201526040810183905260806060820181905260009061240490830184611cca565b9695505050505050565b60006020828403121561242057600080fd5b815161133181611c5156fea26469706673582212204ed0f65920a2a2f3e39888fdff34354d0f3e0b92b7961ce4fb1a8fd99a594c2b64736f6c63430008140033",
  "linkReferences": {},
  "deployedLinkReferences": {}
}