{
  "_format": "hh-sol-artifact-1",
  "contractName": "SoulboundCredentials",
  "sourceName": "contracts/credentials/SoulboundCredentials.sol",
  "abi": [
    {
      "inputs": [],
      "stateMutability": "nonpayable",
      "type": "constructor"
    },
    {
      "inputs": [],
      "name": "AccessControlBadConfirmation",
      "type": "error"
    },
    {
      "inputs": [
        {
          "internalType": "address",
          "name": "account",
          "type": "address"
        },
        {
          "internalType": "bytes32",
          "name": "neededRole",
          "type": "bytes32"
        }
      ],
      "name": "AccessControlUnauthorizedAccount",
      "type": "error"
    },
    {
      "anonymous": false,
      "inputs": [
        {
          "indexed": true,
          "internalType": "uint256",
          "name": "credentialId",
          "type": "uint256"
        },
        {
          "indexed": true,
          "internalType": "address",
          "name": "holder",
          "type": "address"
        },
        {
          "indexed": true,
          "internalType": "address",
          "name": "issuer",
          "type": "address"
        },
        {
          "indexed": false,
          "internalType": "string",
          "name": "credentialType",
          "type": "string"
        }
      ],
      "name": "CredentialIssued",
      "type": "event"
    },
    {
      "anonymous": false,
      "inputs": [
        {
          "indexed": true,
          "internalType": "uint256",
          "name": "credentialId",
          "type": "uint256"
        },
        {
          "indexed": true,
          "internalType": "address",
          "name": "issuer",
          "type": "address"
        }
      ],
      "name": "CredentialRevoked",
      "type": "event"
    },
    {
      "anonymous": false,
      "inputs": [
        {
          "indexed": true,
          "internalType": "bytes32",
          "name": "role",
          "type": "bytes32"
        },
        {
          "indexed": true,
          "internalType": "bytes32",
          "name": "previousAdminRole",
          "type": "bytes32"
        },
        {
          "indexed": true,
          "internalType": "bytes32",
          "name": "newAdminRole",
          "type": "bytes32"
        }
      ],
      "name": "RoleAdminChanged",
      "type": "event"
    },
    {
      "anonymous": false,
      "inputs": [
        {
          "indexed": true,
          "internalType": "bytes32",
          "name": "role",
          "type": "bytes32"
        },
        {
          "indexed": true,
          "internalType": "address",
          "name": "account",
          "type": "address"
        },
        {
          "indexed": true,
          "internalType": "address",
          "name": "sender",
          "type": "address"
        }
      ],
      "name": "RoleGranted",
      "type": "event"
    },
    {
      "anonymous": false,
      "inputs": [
        {
          "indexed": true,
          "internalType": "bytes32",
          "name": "role",
          "type": "bytes32"
        },
        {
          "indexed": true,
          "internalType": "address",
          "name": "account",
          "type": "address"
        },
        {
          "indexed": true,
          "internalType": "address",
          "name": "sender",
          "type": "address"
        }
      ],
      "name": "RoleRevoked",
      "type": "event"
    },
    {
      "anonymous": false,
      "inputs": [
        {
          "indexed": true,
          "internalType": "uint256",
          "name": "credentialId",
          "type": "uint256"
        },
        {
          "indexed": false,
          "internalType": "address",
          "name": "from",
          "type": "address"
        },
        {
          "indexed": false,
          "internalType": "address",
          "name": "to",
          "type": "address"
        }
      ],
      "name": "TransferAttempted",
      "type": "event"
    },
    {
      "inputs": [],
      "name": "DEFAULT_ADMIN_ROLE",
      "outputs": [
        {
          "internalType": "bytes32",
          "name": "",
          "type": "bytes32"
        }
      ],
      "stateMutability": "view",
      "type": "function"
    },
    {
      "inputs": [],
      "name": "ISSUER_ROLE",
      "outputs": [
        {
          "internalType": "bytes32",
          "name": "",
          "type": "bytes32"
        }
      ],
      "stateMutability": "view",
      "type": "function"
    },
    {
      "inputs": [
        {
          "internalType": "uint256",
          "name": "",
          "type": "uint256"
        }
      ],
      "name": "credentials",
      "outputs": [
        {
          "internalType": "uint256",
          "name": "id",
          "type": "uint256"
        },
        {
          "internalType": "address",
          "name": "holder",
          "type": "address"
        },
        {
          "internalType": "address",
          "name": "issuer",
          "type": "address"
        },
        {
          "internalType": "string",
          "name": "credentialType",
          "type": "string"
        },
        {
          "internalType": "string",
          "name": "credentialData",
          "type": "string"
        },
        {
          "internalType": "uint256",
          "name": "issuedAt",
          "type": "uint256"
        },
        {
          "internalType": "uint256",
          "name": "expiresAt",
          "type": "uint256"
        },
        {
          "internalType": "bool",
          "name": "revoked",
          "type": "bool"
        },
        {
          "internalType": "bool",
          "name": "soulbound",
          "type": "bool"
        }
      ],
      "stateMutability": "view",
      "type": "function"
    },
    {
      "inputs": [
        {
          "internalType": "address",
          "name": "",
          "type": "address"
        },
        {
          "internalType": "string",
          "name": "",
          "type": "string"
        },
        {
          "internalType": "uint256",
          "name": "",
          "type": "uint256"
        }
      ],
      "name": "credentialsByType",
      "outputs": [
        {
          "internalType": "uint256",
          "name": "",
          "type": "uint256"
        }
      ],
      "stateMutability": "view",
      "type": "function"
    },
    {
      "inputs": [
        {
          "internalType": "uint256",
          "name": "credentialId",
          "type": "uint256"
        }
      ],
      "name": "getCredential",
      "outputs": [
        {
          "components": [
            {
              "internalType": "uint256",
              "name": "id",
              "type": "uint256"
            },
            {
              "internalType": "address",
              "name": "holder",
              "type": "address"
            },
            {
              "internalType": "address",
              "name": "issuer",
              "type": "address"
            },
            {
              "internalType": "string",
              "name": "credentialType",
              "type": "string"
            },
            {
              "internalType": "string",
              "name": "credentialData",
              "type": "string"
            },
            {
              "internalType": "uint256",
              "name": "issuedAt",
              "type": "uint256"
            },
            {
              "internalType": "uint256",
              "name": "expiresAt",
              "type": "uint256"
            },
            {
              "internalType": "bool",
              "name": "revoked",
              "type": "bool"
            },
            {
              "internalType": "bool",
              "name": "soulbound",
              "type": "bool"
            }
          ],
          "internalType": "struct SoulboundCredentials.Credential",
          "name": "",
          "type": "tuple"
        }
      ],
      "stateMutability": "view",
      "type": "function"
    },
    {
      "inputs": [
        {
          "internalType": "address",
          "name": "holder",
          "type": "address"
        },
        {
          "internalType": "string",
          "name": "credentialType",
          "type": "string"
        }
      ],
      "name": "getCredentialsByType",
      "outputs": [
        {
          "internalType": "uint256[]",
          "name": "",
          "type": "uint256[]"
        }
      ],
      "stateMutability": "view",
      "type": "function"
    },
    {
      "inputs": [
        {
          "internalType": "address",
          "name": "holder",
          "type": "address"
        }
      ],
      "name": "getHolderCredentials",
      "outputs": [
        {
          "internalType": "uint256[]",
          "name": "",
          "type": "uint256[]"
        }
      ],
      "stateMutability": "view",
      "type": "function"
    },
    {
      "inputs": [
        {
          "internalType": "bytes32",
          "name": "role",
          "type": "bytes32"
        }
      ],
      "name": "getRoleAdmin",
      "outputs": [
        {
          "internalType": "bytes32",
          "name": "",
          "type": "bytes32"
        }
      ],
      "stateMutability": "view",
      "type": "function"
    },
    {
      "inputs": [
        {
          "internalType": "bytes32",
          "name": "role",
          "type": "bytes32"
        },
        {
          "internalType": "address",
          "name": "account",
          "type": "address"
        }
      ],
      "name": "grantRole",
      "outputs": [],
      "stateMutability": "nonpayable",
      "type": "function"
    },
    {
      "inputs": [
        {
          "internalType": "address",
          "name": "holder",
          "type": "address"
        },
        {
          "internalType": "string",
          "name": "credentialType",
          "type": "string"
        }
      ],
      "name": "hasCredential",
      "outputs": [
        {
          "internalType": "bool",
          "name": "",
          "type": "bool"
        }
      ],
      "stateMutability": "view",
      "type": "function"
    },
    {
      "inputs": [
        {
          "internalType": "bytes32",
          "name": "role",
          "type": "bytes32"
        },
        {
          "internalType": "address",
          "name": "account",
          "type": "address"
        }
      ],
      "name": "hasRole",
      "outputs": [
        {
          "internalType": "bool",
          "name": "",
          "type": "bool"
        }
      ],
      "stateMutability": "view",
      "type": "function"
    },
    {
      "inputs": [
        {
          "internalType": "address",
          "name": "",
          "type": "address"
        },
        {
          "internalType": "uint256",
          "name": "",
          "type": "uint256"
        }
      ],
      "name": "holderCredentials",
      "outputs": [
        {
          "internalType": "uint256",
          "name": "",
          "type": "uint256"
        }
      ],
      "stateMutability": "view",
      "type": "function"
    },
    {
      "inputs": [
        {
          "internalType": "uint256",
          "name": "credentialId",
          "type": "uint256"
        }
      ],
      "name": "isValid",
      "outputs": [
        {
          "internalType": "bool",
          "name": "",
          "type": "bool"
        }
      ],
      "stateMutability": "view",
      "type": "function"
    },
    {
      "inputs": [
        {
          "internalType": "address",
          "name": "holder",
          "type": "address"
        },
        {
          "internalType": "string",
          "name": "credentialType",
          "type": "string"
        },
        {
          "internalType": "string",
          "name": "credentialData",
          "type": "string"
        },
        {
          "internalType": "uint256",
          "name": "validityDuration",
          "type": "uint256"
        },
        {
          "internalType": "bool",
          "name": "soulbound",
          "type": "bool"
        }
      ],
      "name": "issueCredential",
      "outputs": [
        {
          "internalType": "uint256",
          "name": "",
          "type": "uint256"
        }
      ],
      "stateMutability": "nonpayable",
      "type": "function"
    },
    {
      "inputs": [
        {
          "internalType": "bytes32",
          "name": "role",
          "type": "bytes32"
        },
        {
          "internalType": "address",
          "name": "callerConfirmation",
          "type": "address"
        }
      ],
      "name": "renounceRole",
      "outputs": [],
      "stateMutability": "nonpayable",
      "type": "function"
    },
    {
      "inputs": [
        {
          "internalType": "uint256",
          "name": "credentialId",
          "type": "uint256"
        }
      ],
      "name": "revokeCredential",
      "outputs": [],
      "stateMutability": "nonpayable",
      "type": "function"
    },
    {
      "inputs": [
        {
          "internalType": "bytes32",
          "name": "role",
          "type": "bytes32"
        },
        {
          "internalType": "address",
          "name": "account",
          "type": "address"
        }
      ],
      "name": "revokeRole",
      "outputs": [],
      "stateMutability": "nonpayable",
      "type": "function"
    },
    {
      "inputs": [
        {
          "internalType": "bytes4",
          "name": "interfaceId",
          "type": "bytes4"
        }
      ],
      "name": "supportsInterface",
      "outputs": [
        {
          "internalType": "bool",
          "name": "",
          "type": "bool"
        }
      ],
      "stateMutability": "view",
      "type": "function"
    },
    {
      "inputs": [],
      "name": "totalCredentials",
      "outputs": [
        {
          "internalType": "uint256",
          "name": "",
          "type": "uint256"
        }
      ],
      "stateMutability": "view",
      "type": "function"
    },
    {
      "inputs": [
        {
          "internalType": "uint256",
          "name": "credentialId",
          "type": "uint256"
        },
        {
          "internalType": "address",
          "name": "newHolder",
          "type": "address"
        }
      ],
      "name": "transferCredential",
      "outputs": [],
      "stateMutability": "nonpayable",
      "type": "function"
    }
  ],
  "bytecode": "0x608060405234620000375760016004556200001a336200003c565b506200002633620000bc565b50604051611a0790816200015f8239f35b600080fd5b6001600160a01b031660008181527fad3228b676f7d3cd4284a5443f17f1962b36e491b30a40b2405849e597ba5fb5602052604081205490919060ff16620000b857818052816020526040822081835260205260408220600160ff19825416179055339160008051602062001b668339815191528180a4600190565b5090565b6001600160a01b031660008181527ff9c002f57bb53b4d861ae1ef1369a8087d06c8210e4846f897918d0e534663ce60205260408120549091907f114e74f6ea3bd819998f78687bfcb11b140da08e9b7d222fa9c1f1ba1f2aa1229060ff166200015957808352826020526040832082845260205260408320600160ff1982541617905560008051602062001b66833981519152339380a4600190565b50509056fe608080604052600436101561001357600080fd5b60003560e01c90816301ffc9a7146112d5575080631273cc3014610c795780631513d62b14610c5b5780631b87278d14610ad15780631e48169d14610a6e578063248a9ca314610a3f5780632f2ff15d14610a0057806336568abe1461099457806382aefa24146109595780638d184432146108d45780638dd18d2d1461075a57806391d14854146106ff578063a217fddf146106e3578063d51d793a14610636578063d547741f146105f7578063d9854442146105de578063e0574e3f1461050f578063e1c273f11461046b578063f0599326146101285763f577a500146100fb57600080fd5b3461012357602060031936011261012357602061011960043561183b565b6040519015158152f35b600080fd5b3461012357604060031936011261012357600435610144611396565b90806000526001916020928084526040600020918183019081549073ffffffffffffffffffffffffffffffffffffffff90338284160361040d57600786015460ff8160081c1690816103af5760ff166103515761029c57907fffffffffffffffffffffffff0000000000000000000000000000000000000000939291169283911617905580600052600285526101de846040600020611802565b6000526003845260036040600020920191604051926000928154916102028361156a565b92828116908115610263575060011461022d575b50505081839161022b96935203019020611802565b005b600090815287812093945091925b838310610252575050508201908061022b84610216565b80548684015291870191810161023b565b7fffffffffffffffffffffffffffffffffffffffffffffffffffffffffffffff0016875250505080151502830191508061022b84610216565b867f173150ce07cc19c9bda2388e65c4191dc5fe15a8d0dcae48c2cd78980b77c13260408a936084958251913383521685820152a2604051907f08c379a000000000000000000000000000000000000000000000000000000000825260048201526024808201527f43616e6e6f74207472616e7366657220736f756c626f756e642063726564656e60448201527f7469616c000000000000000000000000000000000000000000000000000000006064820152fd5b606489604051907f08c379a00000000000000000000000000000000000000000000000000000000082526004820152601260248201527f43726564656e7469616c207265766f6b656400000000000000000000000000006044820152fd5b60648a604051907f08c379a00000000000000000000000000000000000000000000000000000000082526004820152601760248201527f43726564656e7469616c20697320736f756c626f756e640000000000000000006044820152fd5b606488604051907f08c379a00000000000000000000000000000000000000000000000000000000082526004820152600a60248201527f4e6f7420686f6c646572000000000000000000000000000000000000000000006044820152fd5b3461012357606060031936011261012357610484611373565b60243567ffffffffffffffff81116101235760206104a96104e29236906004016113f9565b73ffffffffffffffffffffffffffffffffffffffff604435941660005260038252604060002082604051948386809551938492016114d2565b82019081520301902080548210156101235760209161050091611450565b90549060031b1c604051908152f35b346101235760206003193601126101235760043560005260016020526040600020805473ffffffffffffffffffffffffffffffffffffffff9160ff8360018301541693600283015416610564600384016115bd565b926105b9610574600483016115bd565b6105ab60058401549660076006860154950154956040519a8b9a8b5260208b015260408a01526101208060608b01528901906114f5565b9087820360808901526114f5565b9360a086015260c0850152818116151560e085015260081c1615156101008301520390f35b346101235760206101196105f13661151a565b90611908565b346101235760406003193601126101235761022b600435610616611396565b90806000526000602052610631600160406000200154611682565b611752565b346101235773ffffffffffffffffffffffffffffffffffffffff6106593661151a565b91166000526106816020809260038252604060002082604051948386809551938492016114d2565b82019081520301902090604051908181845491828152019360005281600020916000905b8282106106cc576106c8856106bc818903826113d6565b60405191829182611497565b0390f35b8354865294850194600193840193909101906106a5565b3461012357600060031936011261012357602060405160008152f35b3461012357604060031936011261012357610718611396565b600435600052600060205273ffffffffffffffffffffffffffffffffffffffff60406000209116600052602052602060ff604060002054166040519015158152f35b346101235760208060031936011261012357604051610778816113b9565b600081526000828201526000604082015260608082015260606080820152600060a0820152600060c0820152600060e0820152600061010080920152600435600052600182526040600020604051916107d0836113b9565b8154835273ffffffffffffffffffffffffffffffffffffffff908160018401541690858501918252848360028601541694604082019586526108b5610817600383016115bd565b6060840190815261082a600484016115bd565b966080850197885260058401549860a08601998a5281600760068701549660c0890197885201549860ff8960e08a0199828d1615158b52019a60081c1615158a526040518e819f9e829f835251910152511660408c0152511660608a015251956108a2610120978860808c01526101408b01906114f5565b9051601f198a83030160a08b01526114f5565b955160c08801525160e087015251151590850152511515908301520390f35b34610123576020806003193601126101235773ffffffffffffffffffffffffffffffffffffffff610903611373565b1660005260028152604060002090604051908181845491828152019360005281600020916000905b828210610942576106c8856106bc818903826113d6565b83548652948501946001938401939091019061092b565b346101235760006003193601126101235760206040517f114e74f6ea3bd819998f78687bfcb11b140da08e9b7d222fa9c1f1ba1f2aa1228152f35b34610123576040600319360112610123576109ad611396565b3373ffffffffffffffffffffffffffffffffffffffff8216036109d65761022b90600435611752565b60046040517f6697b232000000000000000000000000000000000000000000000000000000008152fd5b346101235760406003193601126101235761022b600435610a1f611396565b90806000526000602052610a3a600160406000200154611682565b6116a8565b346101235760206003193601126101235760043560005260006020526020600160406000200154604051908152f35b3461012357604060031936011261012357610a87611373565b73ffffffffffffffffffffffffffffffffffffffff602435911660005260026020526040600020805482101561012357602091610ac391611450565b90546040519160031b1c8152f35b346101235760208060031936011261012357600435908160005260018152604060002073ffffffffffffffffffffffffffffffffffffffff60028201541633148015610c39575b15610bdb576007019081549060ff8216610b7d57507fffffffffffffffffffffffffffffffffffffffffffffffffffffffffffffff0016600117905533907f936526f4a3155895d9f01699716f2e0c548d726a24a1437e5ce92b3dacaad35b600080a3005b606490604051907f08c379a00000000000000000000000000000000000000000000000000000000082526004820152600f60248201527f416c7265616479207265766f6b656400000000000000000000000000000000006044820152fd5b606482604051907f08c379a00000000000000000000000000000000000000000000000000000000082526004820152600e60248201527f4e6f7420617574686f72697a65640000000000000000000000000000000000006044820152fd5b506000805260008252604060002033600052825260ff60406000205416610b18565b34610123576000600319360112610123576020600554604051908152f35b346101235760a060031936011261012357610c92611373565b60243567ffffffffffffffff811161012357610cb29036906004016113f9565b60443567ffffffffffffffff811161012357610cd29036906004016113f9565b91608435918215158303610123573360009081527ff9c002f57bb53b4d861ae1ef1369a8087d06c8210e4846f897918d0e534663ce60205260409020547f114e74f6ea3bd819998f78687bfcb11b140da08e9b7d222fa9c1f1ba1f2aa1229060ff161561129e575073ffffffffffffffffffffffffffffffffffffffff8216156112405760045492610d63846117f3565b60045560643580611206575060005b60405195610d7f876113b9565b85875273ffffffffffffffffffffffffffffffffffffffff8516602088015233604088015283606088015260808701524260a087015260c0860152600060e08601521515610100850152826000526001602052604060002093805185556001850173ffffffffffffffffffffffffffffffffffffffff602083015116907fffffffffffffffffffffffff00000000000000000000000000000000000000009182825416179055600286019073ffffffffffffffffffffffffffffffffffffffff60408401511690825416179055606081015180519067ffffffffffffffff8211611107578190610e72600389015461156a565b601f81116111b3575b50602090601f831160011461114157600092611136575b50506000198260011b9260031b1c19161760038601555b608081015194855167ffffffffffffffff811161110757610ecd600483015461156a565b96601f88116110c0575b602097508790601f831160011461104f57600793929160009183611044575b50506000198260011b9260031b1c19161760048201555b60a0830151600582015560c08301516006820155019060e08101511515907fffffffffffffffffffffffffffffffffffffffffffffffffffffffffffff000060ff61ff006101008654940151151560081b16931691161717905573ffffffffffffffffffffffffffffffffffffffff821660005260028452610f93836040600020611802565b73ffffffffffffffffffffffffffffffffffffffff821660005260038452610fdd8360406000208660405180928651610fcf8184868b016114d2565b820190815203019020611802565b610fe86005546117f3565b600555827fd1de861db6c309080253d2536a1767c11ee81a3fb2ab87b4e83aa298c2bcbc8d6040518681528061103973ffffffffffffffffffffffffffffffffffffffff33971695898301906114f5565b0390a4604051908152f35b015190508980610ef6565b9060048401600052886000209160005b601f19851681106110a9575091839160019383601f19600798971610611090575b505050811b016004820155610f0d565b015160001960f88460031b161c19169055898080611080565b91928a60018192868501518155019401920161105f565b600483016000526020600020601f830160051c810160208410611100575b601f8a0160051c820181106110f4575050610ed7565b600081556001016110de565b50806110de565b7f4e487b7100000000000000000000000000000000000000000000000000000000600052604160045260246000fd5b015190508780610e92565b9250600388016000526020600020906000935b601f1984168510611198576001945083601f1981161061117f575b505050811b016003860155610ea9565b015160001960f88460031b161c1916905587808061116f565b81810151835560209485019460019093019290910190611154565b909150600388016000526020600020601f840160051c8101602085106111ff575b90849392915b601f830160051c820181106111f0575050610e7b565b600081558594506001016111da565b50806111d4565b420180421115610d72575b7f4e487b7100000000000000000000000000000000000000000000000000000000600052601160045260246000fd5b60646040517f08c379a000000000000000000000000000000000000000000000000000000000815260206004820152600e60248201527f496e76616c696420686f6c6465720000000000000000000000000000000000006044820152fd5b604490604051907fe2517d3f0000000000000000000000000000000000000000000000000000000082523360048301526024820152fd5b3461012357602060031936011261012357600435907fffffffff00000000000000000000000000000000000000000000000000000000821680920361012357817f7965db0b0000000000000000000000000000000000000000000000000000000060209314908115611349575b5015158152f35b7f01ffc9a70000000000000000000000000000000000000000000000000000000091501483611342565b6004359073ffffffffffffffffffffffffffffffffffffffff8216820361012357565b6024359073ffffffffffffffffffffffffffffffffffffffff8216820361012357565b610120810190811067ffffffffffffffff82111761110757604052565b90601f601f19910116810190811067ffffffffffffffff82111761110757604052565b81601f820112156101235780359067ffffffffffffffff8211611107576040519261142e6020601f19601f86011601856113d6565b8284526020838301011161012357816000926020809301838601378301015290565b80548210156114685760005260206000200190600090565b7f4e487b7100000000000000000000000000000000000000000000000000000000600052603260045260246000fd5b6020908160408183019282815285518094520193019160005b8281106114be575050505090565b8351855293810193928101926001016114b0565b60005b8381106114e55750506000910152565b81810151838201526020016114d5565b90601f19601f602093611513815180928187528780880191016114d2565b0116010190565b9060406003198301126101235760043573ffffffffffffffffffffffffffffffffffffffff8116810361012357916024359067ffffffffffffffff821161012357611567916004016113f9565b90565b90600182811c921680156115b3575b602083101461158457565b7f4e487b7100000000000000000000000000000000000000000000000000000000600052602260045260246000fd5b91607f1691611579565b90604051918260008254926115d18461156a565b90818452600194858116908160001461164057506001146115fd575b50506115fb925003836113d6565b565b9093915060005260209081600020936000915b8183106116285750506115fb935082010138806115ed565b85548884018501529485019487945091830191611610565b90506115fb9550602093507fffffffffffffffffffffffffffffffffffffffffffffffffffffffffffffff0091501682840152151560051b82010138806115ed565b80600052600060205260406000203360005260205260ff604060002054161561129e5750565b906000918083528260205273ffffffffffffffffffffffffffffffffffffffff6040842092169182845260205260ff6040842054161560001461174d5780835282602052604083208284526020526040832060017fffffffffffffffffffffffffffffffffffffffffffffffffffffffffffffff008254161790557f2f8788117e7eff1d82e926ec794901d17c78024a50270940304540a733656f0d339380a4600190565b505090565b906000918083528260205273ffffffffffffffffffffffffffffffffffffffff6040842092169182845260205260ff60408420541660001461174d578083528260205260408320828452602052604083207fffffffffffffffffffffffffffffffffffffffffffffffffffffffffffffff0081541690557ff6391f5c32d9c69d2a47ea670b442974b53935d1edc7fd64eb21e047a839171b339380a4600190565b60001981146112115760010190565b8054680100000000000000008110156111075761182491600182018155611450565b600019829392549160031b92831b921b1916179055565b60005260016020526040600020604051611854816113b9565b8154815273ffffffffffffffffffffffffffffffffffffffff8060018401541660208301526002830154166040820152611890600383016115bd565b60608201526118a1600483016115bd565b6080820152600582015460a082015260076006830154928360c084015201549061010060ff8084161515938460e085015260081c1615159101526119025780151590816118f8575b506118f357600190565b600090565b90504211386118e9565b50600090565b9073ffffffffffffffffffffffffffffffffffffffff60009216825261194660208092600382526040852082604051948386809551938492016114d2565b82019081520301902090604051808383829554938481520190865283862092865b858282106119bb5750505061197e925003836113d6565b825b82518110156119b55761199a828260051b8501015161183b565b6119ac576119a7906117f3565b611980565b50505050600190565b50505090565b855484526001958601958895509301920161196756fea26469706673582212202367ccd62d6ce7a0d761e17f3bd3ee7a5fb23eb133bd665c941d6c8c2454480164736f6c634300081400332f8788117e7eff1d82e926ec794901d17c78024a50270940304540a733656f0d",
  "linkReferences": {},
  "deployedLinkReferences": {}
}