{
  "_format": "hh-sol-artifact-1",
  "contractName": "ProofOfExecution",
  "sourceName": "contracts/layer7/auditing/ProofOfExecution.sol",
  "abi": [
    {
      "anonymous": false,
      "inputs": [
        {
          "indexed": true,
          "internalType": "uint256",
          "name": "proofId",
          "type": "uint256"
        },
        {
          "indexed": false,
          "internalType": "bool",
          "name": "upheld",
          "type": "bool"
        }
      ],
      "name": "ChallengeResolved",
      "type": "event"
    },
    {
      "anonymous": false,
      "inputs": [
        {
          "indexed": true,
          "internalType": "uint256",
          "name": "proofId",
          "type": "uint256"
        },
        {
          "indexed": true,
          "internalType": "address",
          "name": "challenger",
          "type": "address"
        }
      ],
      "name": "ProofChallenged",
      "type": "event"
    },
    {
      "anonymous": false,
      "inputs": [
        {
          "indexed": true,
          "internalType": "uint256",
          "name": "proofId",
          "type": "uint256"
        },
        {
          "indexed": true,
          "internalType": "uint256",
          "name": "entityId",
          "type": "uint256"
        },
        {
          "indexed": false,
          "internalType": "bytes32",
          "name": "actionRoot",
          "type": "bytes32"
        }
      ],
      "name": "ProofSubmitted",
      "type": "event"
    },
    {
      "anonymous": false,
      "inputs": [
        {
          "indexed": true,
          "internalType": "uint256",
          "name": "proofId",
          "type": "uint256"
        }
      ],
      "name": "ProofVerified",
      "type": "event"
    },
    {
      "inputs": [
        {
          "internalType": "uint256",
          "name": "proofId",
          "type": "uint256"
        },
        {
          "internalType": "string",
          "name": "reason",
          "type": "string"
        }
      ],
      "name": "challengeProof",
      "outputs": [],
      "stateMutability": "payable",
      "type": "function"
    },
    {
      "inputs": [],
      "name": "challengeStake",
      "outputs": [
        {
          "internalType": "uint256",
          "name": "",
          "type": "uint256"
        }
      ],
      "stateMutability": "view",
      "type": "function"
    },
    {
      "inputs": [
        {
          "internalType": "uint256",
          "name": "",
          "type": "uint256"
        },
        {
          "internalType": "uint256",
          "name": "",
          "type": "uint256"
        }
      ],
      "name": "challenges",
      "outputs": [
        {
          "internalType": "uint256",
          "name": "proofId",
          "type": "uint256"
        },
        {
          "internalType": "address",
          "name": "challenger",
          "type": "address"
        },
        {
          "internalType": "uint256",
          "name": "stake",
          "type": "uint256"
        },
        {
          "internalType": "string",
          "name": "reason",
          "type": "string"
        },
        {
          "internalType": "uint256",
          "name": "challengedAt",
          "type": "uint256"
        },
        {
          "internalType": "bool",
          "name": "resolved",
          "type": "bool"
        },
        {
          "internalType": "bool",
          "name": "upheld",
          "type": "bool"
        }
      ],
      "stateMutability": "view",
      "type": "function"
    },
    {
      "inputs": [
        {
          "internalType": "uint256",
          "name": "",
          "type": "uint256"
        },
        {
          "internalType": "uint256",
          "name": "",
          "type": "uint256"
        }
      ],
      "name": "executionHistory",
      "outputs": [
        {
          "internalType": "bytes32",
          "name": "",
          "type": "bytes32"
        }
      ],
      "stateMutability": "view",
      "type": "function"
    },
    {
      "inputs": [
        {
          "internalType": "uint256",
          "name": "entityId",
          "type": "uint256"
        }
      ],
      "name": "getExecutionHistory",
      "outputs": [
        {
          "internalType": "bytes32[]",
          "name": "",
          "type": "bytes32[]"
        }
      ],
      "stateMutability": "view",
      "type": "function"
    },
    {
      "inputs": [],
      "name": "proofCount",
      "outputs": [
        {
          "internalType": "uint256",
          "name": "",
          "type": "uint256"
        }
      ],
      "stateMutability": "view",
      "type": "function"
    },
    {
      "inputs": [
        {
          "internalType": "uint256",
          "name": "",
          "type": "uint256"
        }
      ],
      "name": "proofs",
      "outputs": [
        {
          "internalType": "uint256",
          "name": "proofId",
          "type": "uint256"
        },
        {
          "internalType": "uint256",
          "name": "entityId",
          "type": "uint256"
        },
        {
          "internalType": "bytes32",
          "name": "actionRoot",
          "type": "bytes32"
        },
        {
          "internalType": "uint256",
          "name": "blockNumber",
          "type": "uint256"
        },
        {
          "internalType": "uint256",
          "name": "timestamp",
          "type": "uint256"
        },
        {
          "internalType": "address",
          "name": "prover",
          "type": "address"
        },
        {
          "internalType": "bytes32",
          "name": "stateRoot",
          "type": "bytes32"
        },
        {
          "internalType": "bytes32",
          "name": "resultRoot",
          "type": "bytes32"
        },
        {
          "internalType": "bool",
          "name": "verified",
          "type": "bool"
        }
      ],
      "stateMutability": "view",
      "type": "function"
    },
    {
      "inputs": [
        {
          "internalType": "uint256",
          "name": "proofId",
          "type": "uint256"
        },
        {
          "internalType": "uint256",
          "name": "challengeIndex",
          "type": "uint256"
        },
        {
          "internalType": "bool",
          "name": "uphold",
          "type": "bool"
        }
      ],
      "name": "resolveChallenge",
      "outputs": [],
      "stateMutability": "nonpayable",
      "type": "function"
    },
    {
      "inputs": [
        {
          "internalType": "uint256",
          "name": "entityId",
          "type": "uint256"
        },
        {
          "internalType": "bytes32",
          "name": "actionRoot",
          "type": "bytes32"
        },
        {
          "internalType": "bytes32",
          "name": "stateRoot",
          "type": "bytes32"
        },
        {
          "internalType": "bytes32",
          "name": "resultRoot",
          "type": "bytes32"
        }
      ],
      "name": "submitProof",
      "outputs": [
        {
          "internalType": "uint256",
          "name": "",
          "type": "uint256"
        }
      ],
      "stateMutability": "nonpayable",
      "type": "function"
    },
    {
      "inputs": [
        {
          "internalType": "bytes32",
          "name": "leaf",
          "type": "bytes32"
        },
        {
          "internalType": "bytes32[]",
          "name": "proof",
          "type": "bytes32[]"
        },
        {
          "internalType": "bytes32",
          "name": "root",
          "type": "bytes32"
        }
      ],
      "name": "verifyMerkleProof",
      "outputs": [
        {
          "internalType": "bool",
          "name": "",
          "type": "bool"
        }
      ],
      "stateMutability": "pure",
      "type": "function"
    },
    {
      "inputs": [
        {
          "internalType": "uint256",
          "name": "proofId",
          "type": "uint256"
        }
      ],
      "name": "verifyProof",
      "outputs": [],
      "stateMutability": "nonpayable",
      "type": "function"
    }
  ],
  "bytecode": "0x6080806040523461002257670de0b6b3a764000060045561122990816100288239f35b600080fdfe6040608081526004908136101561001557600080fd5b60009060e0908235821c8062d5c65914610ff857806310eabdce14610e0457806335f0dced14610cf8578063571dc45214610cd95780638b6958ff14610aee5780638e0841651461060e5780639a6f95e71461056f5780639ddaf5aa146104d0578063addecc06146104ad578063c746e94c146102645763dd9e8de91461009b57600080fd5b34610260576100a936611039565b908452600190602090828252838620805482101561025c57906100cb916110f5565b509182549673ffffffffffffffffffffffffffffffffffffffff8285015416946002850154916003860182519485918b9181549161010883611111565b928386528a83821691826000146102175750506001146101da575b5050506005929161013f919c9a999c98979695949803856110b4565b850154940154948051998a9889528489015287015284606087015280518095870152865b8581106101c2575050509160ff601f927fffffffffffffffffffffffffffffffffffffffffffffffffffffffffffffffe094610100978885890101526080870152818116151560a087015260081c16151560c085015201168101030190f35b81810183015189820161010001528896508201610163565b8d52888d208993508d9291905b8284106101ff575050508201018161013f6005610123565b8054848b018601528995508a949093019281016101e7565b7fffffffffffffffffffffffffffffffffffffffffffffffffffffffffffffff001687820152931515600590811b87019094019450859361013f935091506101239050565b8680fd5b8280fd5b50909291346104aa5760806003193601126104aa5761028460035461114b565b928360035582519161012083019167ffffffffffffffff9284811084821117610497578552858452602096878086019483359687875289868a808401996024359a8b815260608601438152608087019142835260a088019333855260c08901956044359c8d88528a0197806064359d8e8b526101008d019b828d528252522098518955516001890155516002880155516003870155518986015560058501905173ffffffffffffffffffffffffffffffffffffffff1681547fffffffffffffffffffffffff00000000000000000000000000000000000000001617905551600684015551600783015551151590600801906103a9919060ff7fffffffffffffffffffffffffffffffffffffffffffffffffffffffffffffff0083541691151516179055565b8751918a8301938a8552878a850152606084015260808301526080825260a08201908282109082111761048457875251902091848152600288528581209081549268010000000000000000841015610471575050927f9b5cdf2a1d86062250bc359360ca976cc957376d56fd42bbea88d776805c9a519261043283899660018c96018155611054565b7fffffffffffffffffffffffffffffffffffffffffffffffffffffffffffffffff829392549160031b92831b921b19161790558551908152a351908152f35b906041602492634e487b7160e01b835252fd5b602485604186634e487b7160e01b835252fd5b602483604184634e487b7160e01b835252fd5b80fd5b8382346104cc57816003193601126104cc576020906003549051908152f35b5080fd5b509192903461056b57602060031936011261056b578261012094833581528060205220908154936001830154936002840154906003850154908501549073ffffffffffffffffffffffffffffffffffffffff6005870154169260068701549460ff600860078a0154990154169881519a8b5260208b01528901526060880152608087015260a086015260c08501528301521515610100820152f35b8380fd5b508383346104aa57602091826003193601126104cc5792919235815260028352818120908251808584549182815201908194845286842090845b8181106105fa57505050816105bf9103826110b4565b83519485948186019282875251809352850193925b8281106105e357505050500390f35b8351855286955093810193928101926001016105d4565b8254845292880192600192830192016105a9565b5091928260031936011261056b57803592602467ffffffffffffffff8135818111610aea5736602382011215610aea5780850135828111610ad857845193896020937fffffffffffffffffffffffffffffffffffffffffffffffffffffffffffffffe0936106838686601f84011601896110b4565b80885236848284010111610260578084879301838a01378701015286543410610a7d57888a5289835286868b206106c160ff6008830154161561118e565b0154620151808101809111610a6b57421015610a1057888a52600192838152868b20968051998a018a8110878211176109fe5791818d9b999795938c9b99979593528c8a52818a01903382528a019034825260608b0197885260808b0198428a5260a08c019d8e5260c08c019c8d52805490680100000000000000008210156109ea57906107539188820181556110f5565b9b909b6109d857518b5573ffffffffffffffffffffffffffffffffffffffff868c019151167fffffffffffffffffffffffff00000000000000000000000000000000000000008254161790555160028a01556003890195519182519586116109c757508c906107c28754611111565b601f811161097a575b508093601f87116001146108ea5750509284806108969c9b9a97946108629a979460059a97936108bf575b50507fffffffffffffffffffffffffffffffffffffffffffffffffffffffffffffffff91921b9260031b1c19161790555b51908201550192511515839060ff7fffffffffffffffffffffffffffffffffffffffffffffffffffffffffffffff0083541691151516179055565b5181547fffffffffffffffffffffffffffffffffffffffffffffffffffffffffffff00ff1690151560081b61ff0016179055565b33907f937cdf1b13e85fc3381ffdc96990114e9276d218b3699ca5a0a1cb88aae8322e8380a380f35b015191507fffffffffffffffffffffffffffffffffffffffffffffffffffffffffffffffff386107f6565b878352818320959695949392908616915b828210610963575050926108629895928592600599966108969e9d9c99961061092c575b505050811b019055610827565b01517fffffffffffffffffffffffffffffffffffffffffffffffffffffffffffffffff60f88460031b161c1916905538808061091f565b8088869782949787015181550196019401906108fb565b90828882945220601f870160051c8101918388106109bd575b8f939291601f88920160051c01915b8281106109b05750506107cb565b9384558f938791016109a2565b9091508190610993565b8d60418a634e487b7160e01b835252fd5b50838f808c634e487b7160e01b825252fd5b5050838f60418c634e487b7160e01b835252fd5b838d60418c634e487b7160e01b835252fd5b866015606492858951937f08c379a00000000000000000000000000000000000000000000000000000000085528401528201527f4368616c6c656e676520706572696f64206f76657200000000000000000000006044820152fd5b5089601188634e487b7160e01b835252fd5b866012606492858951937f08c379a00000000000000000000000000000000000000000000000000000000085528401528201527f496e73756666696369656e74207374616b6500000000000000000000000000006044820152fd5b8389604188634e487b7160e01b835252fd5b8780fd5b838583346102605760206003193601126102605781359182845283602052818420600891828201938454928260ff91610b298387161561118e565b0154620151808101809111610cc6574210610c69578688526001948560205282892089928a928254935b848110610c0f575b5050505050610bb25750507fffffffffffffffffffffffffffffffffffffffffffffffffffffffffffffff00161790557f4eb5ee08f6bd1352ed7b0dac0ee5e5b7cb984b0477d694d9db613b705f47f2ab8280a280f35b90602060649251917f08c379a0000000000000000000000000000000000000000000000000000000008352820152601b60248201527f50726f6f662068617320757068656c64206368616c6c656e67657300000000006044820152fd5b610c1981856110f5565b508380600580930154169182610c4f575b5050610c3e57610c399061114b565b610b53565b505050505050838880808080610b5b565b909150610c5c83876110f5565b500154831c16838f610c2a565b60648360208451917f08c379a0000000000000000000000000000000000000000000000000000000008352820152601960248201527f4368616c6c656e676520706572696f64206e6f74206f766572000000000000006044820152fd5b602489601186634e487b7160e01b835252fd5b8382863461026057826003193601126102605760209250549051908152f35b508383346104aa5760606003193601126104aa576024359267ffffffffffffffff9081851161026057366023860112156102605784840135918211610df15760059382851b95825196602094610d508683018a6110b4565b88526024858901918301019136831161025c576024869101915b838310610de15750505050355b8551841015610dd65783851b8601830151610db69190808211610dbc5783519085820192835284820152838152610dad81611082565b5190209361114b565b92610d77565b9083519085820192835284820152838152610dad81611082565b905190604435148152f35b8235815291810191869101610d6a565b602483604186634e487b7160e01b835252fd5b83828634610260576060600319360112610260578035916044359182151592838103610ff4578486526001602052610e406024358488206110f5565b509060058201805460ff8116610f97577fffffffffffffffffffffffffffffffffffffffffffffffffffffffffffff00001682151560081b61ff0016176001179055869015610f265750600273ffffffffffffffffffffffffffffffffffffffff600183015416910154918260011b9280840460021490151715610f135750858080938193828215610f0a575bf115610f01577f1c13286911ea61ab9e07cf462b69b2c12954593a03380a618afdf62d227021ae916020915b51908152a280f35b513d84823e3d90fd5b506108fc610ecd565b866011602492634e487b7160e01b835252fd5b80809350809287825281602052600273ffffffffffffffffffffffffffffffffffffffff600588852001541691015490828215610f8e575bf115610f01577f1c13286911ea61ab9e07cf462b69b2c12954593a03380a618afdf62d227021ae91602091610ef9565b506108fc610f5e565b60648560208851917f08c379a0000000000000000000000000000000000000000000000000000000008352820152601060248201527f416c7265616479207265736f6c766564000000000000000000000000000000006044820152fd5b8580fd5b8382346104cc5761100836611039565b9290815260026020528181209081548410156104aa575060209261102b91611054565b91905490519160031b1c8152f35b600319604091011261104f576004359060243590565b600080fd5b805482101561106c5760005260206000200190600090565b634e487b7160e01b600052603260045260246000fd5b6060810190811067ffffffffffffffff82111761109e57604052565b634e487b7160e01b600052604160045260246000fd5b90601f7fffffffffffffffffffffffffffffffffffffffffffffffffffffffffffffffe0910116810190811067ffffffffffffffff82111761109e57604052565b805482101561106c576000526006602060002091020190600090565b90600182811c92168015611141575b602083101461112b57565b634e487b7160e01b600052602260045260246000fd5b91607f1691611120565b7fffffffffffffffffffffffffffffffffffffffffffffffffffffffffffffffff81146111785760010190565b634e487b7160e01b600052601160045260246000fd5b1561119557565b60646040517f08c379a000000000000000000000000000000000000000000000000000000000815260206004820152601060248201527f416c7265616479207665726966696564000000000000000000000000000000006044820152fdfea264697066735822122085dbc5946da38a8345a377d195a1b6aa6630608d8aa2186e98702d8b8c78a41c64736f6c63430008140033",
  "linkReferences": {},
  "deployedLinkReferences": {}
}