{
  "_format": "hh-sol-artifact-1",
  "contractName": "StadiumNFT",
  "sourceName": "contracts/layer5/StadiumNFT.sol",
  "abi": [
    {
      "inputs": [
        {
          "internalType": "address",
          "name": "_treasury",
          "type": "address"
        }
      ],
      "stateMutability": "nonpayable",
      "type": "constructor"
    },
    {
      "inputs": [],
      "name": "AccessControlBadConfirmation",
      "type": "error"
    },
    {
      "inputs": [
        {
          "internalType": "address",
          "name": "account",
          "type": "address"
        },
        {
          "internalType": "bytes32",
          "name": "neededRole",
          "type": "bytes32"
        }
      ],
      "name": "AccessControlUnauthorizedAccount",
      "type": "error"
    },
    {
      "inputs": [
        {
          "internalType": "address",
          "name": "sender",
          "type": "address"
        },
        {
          "internalType": "uint256",
          "name": "tokenId",
          "type": "uint256"
        },
        {
          "internalType": "address",
          "name": "owner",
          "type": "address"
        }
      ],
      "name": "ERC721IncorrectOwner",
      "type": "error"
    },
    {
      "inputs": [
        {
          "internalType": "address",
          "name": "operator",
          "type": "address"
        },
        {
          "internalType": "uint256",
          "name": "tokenId",
          "type": "uint256"
        }
      ],
      "name": "ERC721InsufficientApproval",
      "type": "error"
    },
    {
      "inputs": [
        {
          "internalType": "address",
          "name": "approver",
          "type": "address"
        }
      ],
      "name": "ERC721InvalidApprover",
      "type": "error"
    },
    {
      "inputs": [
        {
          "internalType": "address",
          "name": "operator",
          "type": "address"
        }
      ],
      "name": "ERC721InvalidOperator",
      "type": "error"
    },
    {
      "inputs": [
        {
          "internalType": "address",
          "name": "owner",
          "type": "address"
        }
      ],
      "name": "ERC721InvalidOwner",
      "type": "error"
    },
    {
      "inputs": [
        {
          "internalType": "address",
          "name": "receiver",
          "type": "address"
        }
      ],
      "name": "ERC721InvalidReceiver",
      "type": "error"
    },
    {
      "inputs": [
        {
          "internalType": "address",
          "name": "sender",
          "type": "address"
        }
      ],
      "name": "ERC721InvalidSender",
      "type": "error"
    },
    {
      "inputs": [
        {
          "internalType": "uint256",
          "name": "tokenId",
          "type": "uint256"
        }
      ],
      "name": "ERC721NonexistentToken",
      "type": "error"
    },
    {
      "inputs": [],
      "name": "ReentrancyGuardReentrantCall",
      "type": "error"
    },
    {
      "anonymous": false,
      "inputs": [
        {
          "indexed": true,
          "internalType": "address",
          "name": "owner",
          "type": "address"
        },
        {
          "indexed": true,
          "internalType": "address",
          "name": "approved",
          "type": "address"
        },
        {
          "indexed": true,
          "internalType": "uint256",
          "name": "tokenId",
          "type": "uint256"
        }
      ],
      "name": "Approval",
      "type": "event"
    },
    {
      "anonymous": false,
      "inputs": [
        {
          "indexed": true,
          "internalType": "address",
          "name": "owner",
          "type": "address"
        },
        {
          "indexed": true,
          "internalType": "address",
          "name": "operator",
          "type": "address"
        },
        {
          "indexed": false,
          "internalType": "bool",
          "name": "approved",
          "type": "bool"
        }
      ],
      "name": "ApprovalForAll",
      "type": "event"
    },
    {
      "anonymous": false,
      "inputs": [
        {
          "indexed": false,
          "internalType": "uint256",
          "name": "_fromTokenId",
          "type": "uint256"
        },
        {
          "indexed": false,
          "internalType": "uint256",
          "name": "_toTokenId",
          "type": "uint256"
        }
      ],
      "name": "BatchMetadataUpdate",
      "type": "event"
    },
    {
      "anonymous": false,
      "inputs": [
        {
          "indexed": true,
          "internalType": "uint256",
          "name": "stadiumId",
          "type": "uint256"
        },
        {
          "indexed": true,
          "internalType": "uint256",
          "name": "eventId",
          "type": "uint256"
        },
        {
          "indexed": false,
          "internalType": "string",
          "name": "eventName",
          "type": "string"
        },
        {
          "indexed": false,
          "internalType": "uint256",
          "name": "revenue",
          "type": "uint256"
        }
      ],
      "name": "EventHosted",
      "type": "event"
    },
    {
      "anonymous": false,
      "inputs": [
        {
          "indexed": true,
          "internalType": "uint256",
          "name": "stadiumId",
          "type": "uint256"
        },
        {
          "indexed": true,
          "internalType": "address",
          "name": "host",
          "type": "address"
        }
      ],
      "name": "HostAuthorized",
      "type": "event"
    },
    {
      "anonymous": false,
      "inputs": [
        {
          "indexed": false,
          "internalType": "uint256",
          "name": "_tokenId",
          "type": "uint256"
        }
      ],
      "name": "MetadataUpdate",
      "type": "event"
    },
    {
      "anonymous": false,
      "inputs": [
        {
          "indexed": true,
          "internalType": "uint256",
          "name": "stadiumId",
          "type": "uint256"
        },
        {
          "indexed": true,
          "internalType": "address",
          "name": "owner",
          "type": "address"
        },
        {
          "indexed": false,
          "internalType": "uint256",
          "name": "amount",
          "type": "uint256"
        }
      ],
      "name": "RevenueWithdrawn",
      "type": "event"
    },
    {
      "anonymous": false,
      "inputs": [
        {
          "indexed": true,
          "internalType": "bytes32",
          "name": "role",
          "type": "bytes32"
        },
        {
          "indexed": true,
          "internalType": "bytes32",
          "name": "previousAdminRole",
          "type": "bytes32"
        },
        {
          "indexed": true,
          "internalType": "bytes32",
          "name": "newAdminRole",
          "type": "bytes32"
        }
      ],
      "name": "RoleAdminChanged",
      "type": "event"
    },
    {
      "anonymous": false,
      "inputs": [
        {
          "indexed": true,
          "internalType": "bytes32",
          "name": "role",
          "type": "bytes32"
        },
        {
          "indexed": true,
          "internalType": "address",
          "name": "account",
          "type": "address"
        },
        {
          "indexed": true,
          "internalType": "address",
          "name": "sender",
          "type": "address"
        }
      ],
      "name": "RoleGranted",
      "type": "event"
    },
    {
      "anonymous": false,
      "inputs": [
        {
          "indexed": true,
          "internalType": "bytes32",
          "name": "role",
          "type": "bytes32"
        },
        {
          "indexed": true,
          "internalType": "address",
          "name": "account",
          "type": "address"
        },
        {
          "indexed": true,
          "internalType": "address",
          "name": "sender",
          "type": "address"
        }
      ],
      "name": "RoleRevoked",
      "type": "event"
    },
    {
      "anonymous": false,
      "inputs": [
        {
          "indexed": true,
          "internalType": "uint256",
          "name": "stadiumId",
          "type": "uint256"
        },
        {
          "indexed": true,
          "internalType": "address",
          "name": "owner",
          "type": "address"
        },
        {
          "indexed": false,
          "internalType": "string",
          "name": "name",
          "type": "string"
        },
        {
          "indexed": false,
          "internalType": "enum StadiumNFT.StadiumTier",
          "name": "tier",
          "type": "uint8"
        }
      ],
      "name": "StadiumMinted",
      "type": "event"
    },
    {
      "anonymous": false,
      "inputs": [
        {
          "indexed": true,
          "internalType": "uint256",
          "name": "stadiumId",
          "type": "uint256"
        },
        {
          "indexed": false,
          "internalType": "enum StadiumNFT.StadiumTier",
          "name": "oldTier",
          "type": "uint8"
        },
        {
          "indexed": false,
          "internalType": "enum StadiumNFT.StadiumTier",
          "name": "newTier",
          "type": "uint8"
        }
      ],
      "name": "StadiumUpgraded",
      "type": "event"
    },
    {
      "anonymous": false,
      "inputs": [
        {
          "indexed": true,
          "internalType": "address",
          "name": "from",
          "type": "address"
        },
        {
          "indexed": true,
          "internalType": "address",
          "name": "to",
          "type": "address"
        },
        {
          "indexed": true,
          "internalType": "uint256",
          "name": "tokenId",
          "type": "uint256"
        }
      ],
      "name": "Transfer",
      "type": "event"
    },
    {
      "inputs": [],
      "name": "DEFAULT_ADMIN_ROLE",
      "outputs": [
        {
          "internalType": "bytes32",
          "name": "",
          "type": "bytes32"
        }
      ],
      "stateMutability": "view",
      "type": "function"
    },
    {
      "inputs": [],
      "name": "MINTER_ROLE",
      "outputs": [
        {
          "internalType": "bytes32",
          "name": "",
          "type": "bytes32"
        }
      ],
      "stateMutability": "view",
      "type": "function"
    },
    {
      "inputs": [],
      "name": "OPERATOR_ROLE",
      "outputs": [
        {
          "internalType": "bytes32",
          "name": "",
          "type": "bytes32"
        }
      ],
      "stateMutability": "view",
      "type": "function"
    },
    {
      "inputs": [
        {
          "internalType": "address",
          "name": "to",
          "type": "address"
        },
        {
          "internalType": "uint256",
          "name": "tokenId",
          "type": "uint256"
        }
      ],
      "name": "approve",
      "outputs": [],
      "stateMutability": "nonpayable",
      "type": "function"
    },
    {
      "inputs": [
        {
          "internalType": "uint256",
          "name": "stadiumId",
          "type": "uint256"
        },
        {
          "internalType": "address",
          "name": "host",
          "type": "address"
        }
      ],
      "name": "authorizeHost",
      "outputs": [],
      "stateMutability": "nonpayable",
      "type": "function"
    },
    {
      "inputs": [
        {
          "internalType": "uint256",
          "name": "",
          "type": "uint256"
        },
        {
          "internalType": "address",
          "name": "",
          "type": "address"
        }
      ],
      "name": "authorizedHosts",
      "outputs": [
        {
          "internalType": "bool",
          "name": "",
          "type": "bool"
        }
      ],
      "stateMutability": "view",
      "type": "function"
    },
    {
      "inputs": [
        {
          "internalType": "address",
          "name": "owner",
          "type": "address"
        }
      ],
      "name": "balanceOf",
      "outputs": [
        {
          "internalType": "uint256",
          "name": "",
          "type": "uint256"
        }
      ],
      "stateMutability": "view",
      "type": "function"
    },
    {
      "inputs": [
        {
          "internalType": "uint256",
          "name": "tokenId",
          "type": "uint256"
        }
      ],
      "name": "getApproved",
      "outputs": [
        {
          "internalType": "address",
          "name": "",
          "type": "address"
        }
      ],
      "stateMutability": "view",
      "type": "function"
    },
    {
      "inputs": [
        {
          "internalType": "uint256",
          "name": "stadiumId",
          "type": "uint256"
        }
      ],
      "name": "getEventHistory",
      "outputs": [
        {
          "components": [
            {
              "internalType": "uint256",
              "name": "eventId",
              "type": "uint256"
            },
            {
              "internalType": "uint256",
              "name": "stadiumId",
              "type": "uint256"
            },
            {
              "internalType": "string",
              "name": "eventName",
              "type": "string"
            },
            {
              "internalType": "uint256",
              "name": "timestamp",
              "type": "uint256"
            },
            {
              "internalType": "uint256",
              "name": "revenue",
              "type": "uint256"
            },
            {
              "internalType": "uint256",
              "name": "attendees",
              "type": "uint256"
            }
          ],
          "internalType": "struct StadiumNFT.EventRecord[]",
          "name": "",
          "type": "tuple[]"
        }
      ],
      "stateMutability": "view",
      "type": "function"
    },
    {
      "inputs": [
        {
          "internalType": "bytes32",
          "name": "role",
          "type": "bytes32"
        }
      ],
      "name": "getRoleAdmin",
      "outputs": [
        {
          "internalType": "bytes32",
          "name": "",
          "type": "bytes32"
        }
      ],
      "stateMutability": "view",
      "type": "function"
    },
    {
      "inputs": [
        {
          "internalType": "uint256",
          "name": "stadiumId",
          "type": "uint256"
        }
      ],
      "name": "getSupportedSports",
      "outputs": [
        {
          "internalType": "enum StadiumNFT.SportType[]",
          "name": "",
          "type": "uint8[]"
        }
      ],
      "stateMutability": "view",
      "type": "function"
    },
    {
      "inputs": [
        {
          "internalType": "bytes32",
          "name": "role",
          "type": "bytes32"
        },
        {
          "internalType": "address",
          "name": "account",
          "type": "address"
        }
      ],
      "name": "grantRole",
      "outputs": [],
      "stateMutability": "nonpayable",
      "type": "function"
    },
    {
      "inputs": [
        {
          "internalType": "bytes32",
          "name": "role",
          "type": "bytes32"
        },
        {
          "internalType": "address",
          "name": "account",
          "type": "address"
        }
      ],
      "name": "hasRole",
      "outputs": [
        {
          "internalType": "bool",
          "name": "",
          "type": "bool"
        }
      ],
      "stateMutability": "view",
      "type": "function"
    },
    {
      "inputs": [
        {
          "internalType": "address",
          "name": "owner",
          "type": "address"
        },
        {
          "internalType": "address",
          "name": "operator",
          "type": "address"
        }
      ],
      "name": "isApprovedForAll",
      "outputs": [
        {
          "internalType": "bool",
          "name": "",
          "type": "bool"
        }
      ],
      "stateMutability": "view",
      "type": "function"
    },
    {
      "inputs": [],
      "name": "maxCapacity",
      "outputs": [
        {
          "internalType": "uint256",
          "name": "",
          "type": "uint256"
        }
      ],
      "stateMutability": "view",
      "type": "function"
    },
    {
      "inputs": [],
      "name": "mintPrice",
      "outputs": [
        {
          "internalType": "uint256",
          "name": "",
          "type": "uint256"
        }
      ],
      "stateMutability": "view",
      "type": "function"
    },
    {
      "inputs": [
        {
          "internalType": "string",
          "name": "name",
          "type": "string"
        },
        {
          "internalType": "string",
          "name": "location",
          "type": "string"
        },
        {
          "internalType": "uint256",
          "name": "capacity",
          "type": "uint256"
        },
        {
          "internalType": "enum StadiumNFT.SportType[]",
          "name": "supportedSports",
          "type": "uint8[]"
        },
        {
          "internalType": "enum StadiumNFT.StadiumTier",
          "name": "tier",
          "type": "uint8"
        },
        {
          "internalType": "uint256",
          "name": "hostingFeePercent",
          "type": "uint256"
        },
        {
          "internalType": "string",
          "name": "tokenURI_",
          "type": "string"
        }
      ],
      "name": "mintStadium",
      "outputs": [
        {
          "internalType": "uint256",
          "name": "",
          "type": "uint256"
        }
      ],
      "stateMutability": "payable",
      "type": "function"
    },
    {
      "inputs": [],
      "name": "name",
      "outputs": [
        {
          "internalType": "string",
          "name": "",
          "type": "string"
        }
      ],
      "stateMutability": "view",
      "type": "function"
    },
    {
      "inputs": [
        {
          "internalType": "uint256",
          "name": "tokenId",
          "type": "uint256"
        }
      ],
      "name": "ownerOf",
      "outputs": [
        {
          "internalType": "address",
          "name": "",
          "type": "address"
        }
      ],
      "stateMutability": "view",
      "type": "function"
    },
    {
      "inputs": [],
      "name": "protocolFeePercent",
      "outputs": [
        {
          "internalType": "uint256",
          "name": "",
          "type": "uint256"
        }
      ],
      "stateMutability": "view",
      "type": "function"
    },
    {
      "inputs": [
        {
          "internalType": "uint256",
          "name": "stadiumId",
          "type": "uint256"
        },
        {
          "internalType": "string",
          "name": "eventName",
          "type": "string"
        },
        {
          "internalType": "uint256",
          "name": "attendees",
          "type": "uint256"
        }
      ],
      "name": "recordEvent",
      "outputs": [
        {
          "internalType": "uint256",
          "name": "",
          "type": "uint256"
        }
      ],
      "stateMutability": "payable",
      "type": "function"
    },
    {
      "inputs": [
        {
          "internalType": "bytes32",
          "name": "role",
          "type": "bytes32"
        },
        {
          "internalType": "address",
          "name": "callerConfirmation",
          "type": "address"
        }
      ],
      "name": "renounceRole",
      "outputs": [],
      "stateMutability": "nonpayable",
      "type": "function"
    },
    {
      "inputs": [
        {
          "internalType": "bytes32",
          "name": "role",
          "type": "bytes32"
        },
        {
          "internalType": "address",
          "name": "account",
          "type": "address"
        }
      ],
      "name": "revokeRole",
      "outputs": [],
      "stateMutability": "nonpayable",
      "type": "function"
    },
    {
      "inputs": [
        {
          "internalType": "address",
          "name": "from",
          "type": "address"
        },
        {
          "internalType": "address",
          "name": "to",
          "type": "address"
        },
        {
          "internalType": "uint256",
          "name": "tokenId",
          "type": "uint256"
        }
      ],
      "name": "safeTransferFrom",
      "outputs": [],
      "stateMutability": "nonpayable",
      "type": "function"
    },
    {
      "inputs": [
        {
          "internalType": "address",
          "name": "from",
          "type": "address"
        },
        {
          "internalType": "address",
          "name": "to",
          "type": "address"
        },
        {
          "internalType": "uint256",
          "name": "tokenId",
          "type": "uint256"
        },
        {
          "internalType": "bytes",
          "name": "data",
          "type": "bytes"
        }
      ],
      "name": "safeTransferFrom",
      "outputs": [],
      "stateMutability": "nonpayable",
      "type": "function"
    },
    {
      "inputs": [
        {
          "internalType": "address",
          "name": "operator",
          "type": "address"
        },
        {
          "internalType": "bool",
          "name": "approved",
          "type": "bool"
        }
      ],
      "name": "setApprovalForAll",
      "outputs": [],
      "stateMutability": "nonpayable",
      "type": "function"
    },
    {
      "inputs": [
        {
          "internalType": "uint256",
          "name": "p",
          "type": "uint256"
        }
      ],
      "name": "setMintPrice",
      "outputs": [],
      "stateMutability": "nonpayable",
      "type": "function"
    },
    {
      "inputs": [
        {
          "internalType": "uint256",
          "name": "f",
          "type": "uint256"
        }
      ],
      "name": "setProtocolFee",
      "outputs": [],
      "stateMutability": "nonpayable",
      "type": "function"
    },
    {
      "inputs": [
        {
          "internalType": "address",
          "name": "t",
          "type": "address"
        }
      ],
      "name": "setTreasury",
      "outputs": [],
      "stateMutability": "nonpayable",
      "type": "function"
    },
    {
      "inputs": [
        {
          "internalType": "uint256",
          "name": "",
          "type": "uint256"
        },
        {
          "internalType": "uint256",
          "name": "",
          "type": "uint256"
        }
      ],
      "name": "stadiumEvents",
      "outputs": [
        {
          "internalType": "uint256",
          "name": "eventId",
          "type": "uint256"
        },
        {
          "internalType": "uint256",
          "name": "stadiumId",
          "type": "uint256"
        },
        {
          "internalType": "string",
          "name": "eventName",
          "type": "string"
        },
        {
          "internalType": "uint256",
          "name": "timestamp",
          "type": "uint256"
        },
        {
          "internalType": "uint256",
          "name": "revenue",
          "type": "uint256"
        },
        {
          "internalType": "uint256",
          "name": "attendees",
          "type": "uint256"
        }
      ],
      "stateMutability": "view",
      "type": "function"
    },
    {
      "inputs": [
        {
          "internalType": "uint256",
          "name": "",
          "type": "uint256"
        }
      ],
      "name": "stadiums",
      "outputs": [
        {
          "internalType": "uint256",
          "name": "stadiumId",
          "type": "uint256"
        },
        {
          "internalType": "string",
          "name": "name",
          "type": "string"
        },
        {
          "internalType": "string",
          "name": "location",
          "type": "string"
        },
        {
          "internalType": "uint256",
          "name": "capacity",
          "type": "uint256"
        },
        {
          "internalType": "enum StadiumNFT.StadiumTier",
          "name": "tier",
          "type": "uint8"
        },
        {
          "internalType": "uint256",
          "name": "totalEvents",
          "type": "uint256"
        },
        {
          "internalType": "uint256",
          "name": "totalRevenue",
          "type": "uint256"
        },
        {
          "internalType": "uint256",
          "name": "hostingFeePercent",
          "type": "uint256"
        },
        {
          "internalType": "address",
          "name": "owner",
          "type": "address"
        },
        {
          "internalType": "bool",
          "name": "isActive",
          "type": "bool"
        },
        {
          "internalType": "uint256",
          "name": "createdAt",
          "type": "uint256"
        }
      ],
      "stateMutability": "view",
      "type": "function"
    },
    {
      "inputs": [
        {
          "internalType": "bytes4",
          "name": "interfaceId",
          "type": "bytes4"
        }
      ],
      "name": "supportsInterface",
      "outputs": [
        {
          "internalType": "bool",
          "name": "",
          "type": "bool"
        }
      ],
      "stateMutability": "view",
      "type": "function"
    },
    {
      "inputs": [],
      "name": "symbol",
      "outputs": [
        {
          "internalType": "string",
          "name": "",
          "type": "string"
        }
      ],
      "stateMutability": "view",
      "type": "function"
    },
    {
      "inputs": [
        {
          "internalType": "uint256",
          "name": "tokenId",
          "type": "uint256"
        }
      ],
      "name": "tokenURI",
      "outputs": [
        {
          "internalType": "string",
          "name": "",
          "type": "string"
        }
      ],
      "stateMutability": "view",
      "type": "function"
    },
    {
      "inputs": [],
      "name": "totalStadiums",
      "outputs": [
        {
          "internalType": "uint256",
          "name": "",
          "type": "uint256"
        }
      ],
      "stateMutability": "view",
      "type": "function"
    },
    {
      "inputs": [
        {
          "internalType": "address",
          "name": "from",
          "type": "address"
        },
        {
          "internalType": "address",
          "name": "to",
          "type": "address"
        },
        {
          "internalType": "uint256",
          "name": "tokenId",
          "type": "uint256"
        }
      ],
      "name": "transferFrom",
      "outputs": [],
      "stateMutability": "nonpayable",
      "type": "function"
    },
    {
      "inputs": [],
      "name": "treasury",
      "outputs": [
        {
          "internalType": "address",
          "name": "",
          "type": "address"
        }
      ],
      "stateMutability": "view",
      "type": "function"
    },
    {
      "inputs": [
        {
          "internalType": "uint256",
          "name": "stadiumId",
          "type": "uint256"
        }
      ],
      "name": "upgradeStadium",
      "outputs": [],
      "stateMutability": "payable",
      "type": "function"
    },
    {
      "inputs": [
        {
          "internalType": "uint256",
          "name": "stadiumId",
          "type": "uint256"
        }
      ],
      "name": "withdrawRevenue",
      "outputs": [],
      "stateMutability": "nonpayable",
      "type": "function"
    }
  ],
  "bytecode": "0x6080346200039b57601f601f196001600160401b0362003c8838819003848101841686018381118782101762000385578692829160405283396020958691810103126200039b57516001600160a01b03811693908490036200039b5762000065620003a0565b92600b84526a4f414e205374616469756d60a81b8685015262000087620003a0565b90600682526513d05394d51160d21b8783015284519084821162000385576000918254966001978881811c911680156200037a575b8b821014620003665790818784931162000313575b508a90878311600114620002b0578592620002a4575b5050600019600383901b1c191690871b1782555b8251948511620002905785548681811c9116801562000285575b89821014620002715784811162000229575b5087938511600114620001c45750839495965092620001b8575b5050600019600383901b1c191690821b1781555b60085567016345785d8a0000600d55620186a0600e5560fa601155601080546001600160a01b0319169190911790556200018f33620003c0565b506200019b3362000441565b50620001a733620004e4565b506040516136e59081620005838239f35b01519050388062000141565b8493929193169685845280842093905b888210620002115750508385969710620001f7575b505050811b01815562000155565b015160001960f88460031b161c19169055388080620001e9565b808785968294968601518155019501930190620001d4565b8683528883208580880160051c8201928b891062000267575b0160051c019087905b8281106200025b57505062000127565b8481550187906200024b565b9250819262000242565b634e487b7160e01b83526022600452602483fd5b90607f169062000115565b634e487b7160e01b82526041600452602482fd5b015190503880620000e7565b90848a9416918680528c8720928d88905b828210620002fb5750508411620002e1575b505050811b018255620000fb565b015160001960f88460031b161c19169055388080620002d3565b8385015186558d979095019493840193018e620002c1565b9091508480528a85208780850160051c8201928d86106200035c575b918b91869594930160051c01915b8281106200034d575050620000d1565b8781558594508b91016200033d565b925081926200032f565b634e487b7160e01b85526022600452602485fd5b90607f1690620000bc565b634e487b7160e01b600052604160045260246000fd5b600080fd5b60408051919082016001600160401b038111838210176200038557604052565b6001600160a01b031660008181527f6d5257204ebe7d88fd91ae87941cb2dd9d8062b64ae5a2bd2d28ec40b9fbf6df602052604081205490919060ff166200043d5781805260076020526040822081835260205260408220600160ff19825416179055339160008051602062003c688339815191528180a4600190565b5090565b6001600160a01b031660008181527fa4bfd7afe708e2e87e7f0e2ad9b4d545417e0f795f57b5c5ab5d799c565a04f460205260408120549091907f9f2df0fed2c77648de5860a4cc508cd0818c85b8b8a1ab4ceeef8d981c8956a69060ff16620004df5780835260076020526040832082845260205260408320600160ff1982541617905560008051602062003c68833981519152339380a4600190565b505090565b6001600160a01b031660008181527fe9a9c6cbfdf42264e5c800e9306c2b4fcd52c141cc05eb331485c6f538e26aa160205260408120549091907f97667070c54ef182b0f5858b034beac1b6f3089aa2d3188bb1e8929f4fa9b9299060ff16620004df5780835260076020526040832082845260205260408320600160ff1982541617905560008051602062003c68833981519152339380a460019056fe608080604052600436101561001357600080fd5b60003560e01c90816301ffc9a714612b255750806306fdde0314612a82578063081812fc14612a36578063095ea7b3146128f65780630ceff204146127e657806318267e07146127c857806318b186021461234f57806323b872dd14612338578063248a9ca3146123095780632f2ff15d146122ca57806336568abe1461225e57806342842e0e146122305780634a1f556014611a7f57806359b6a0c914611a615780635a496027146119c957806361d027b3146119955780636352211e146119595780636817c76c1461193b57806370a08231146118bd578063787dce3d146118355780637a88e3e21461174b578063873fb07b1461158357806391d148541461152857806395d89b4114611449578063a217fddf1461142d578063a22cb46514611363578063b0d2ba3e146112d1578063b88d4fde14611265578063c87b56dd14611208578063d2e24a1114611098578063d53913931461105d578063d547741f1461101c578063d6e6eb9f14610ffe578063de2b248614610fa3578063dfc78dec146102f6578063e985e9c514610292578063f0f442601461022d578063f4a0a5281461020c5763f5b541a6146101cc57600080fd5b346102075760006003193601126102075760206040517f97667070c54ef182b0f5858b034beac1b6f3089aa2d3188bb1e8929f4fa9b9298152f35b600080fd5b3461020757602060031936011261020757610225612f65565b600435600d55005b346102075760206003193601126102075773ffffffffffffffffffffffffffffffffffffffff61025b612c9a565b610263612f65565b167fffffffffffffffffffffffff00000000000000000000000000000000000000006010541617601055600080f35b34610207576040600319360112610207576102ab612c9a565b6102b3612cbd565b9073ffffffffffffffffffffffffffffffffffffffff809116600052600560205260406000209116600052602052602060ff604060002054166040519015158152f35b60e06003193601126102075760043567ffffffffffffffff811161020757610322903690600401612d8e565b60243567ffffffffffffffff811161020757610342903690600401612d8e565b9060643567ffffffffffffffff8111610207573660238201121561020757806004013561036e81612f4d565b9161037c6040519384612d18565b8183526024602084019260051b8201019036821161020757602401915b818310610f8a57505050600560843510156102075760c43567ffffffffffffffff8111610207576103ce903690600401612d8e565b926103d761360f565b6103e5600d54341015613558565b604435151580610f7c575b15610f1e57610bb860a43511610ec057815115610e62576104126009546135bd565b9182600955604051918261018081011067ffffffffffffffff6101808501111761093d57610180830160405283835284602084015260408301526044356060830152608082015260843560a0820152600060c0820152600060e082015260a4356101008201523361012082015260016101408201524261016082015281600052600a60205260406000209080518255602081015180519067ffffffffffffffff821161093d5781906104c76001860154612dfb565b601f8111610e2d575b50602090601f8311600114610dbb57600092610db0575b50506000198260011b9260031b1c19161760018301555b604081015180519067ffffffffffffffff821161093d5781906105246002860154612dfb565b601f8111610d7b575b50602090601f8311600114610d0957600092610cfe575b50506000198260011b9260031b1c19161760028301555b60608101516003830155608081015180519067ffffffffffffffff821161093d5768010000000000000000821161093d576020906004850154836004870155808410610ca7575b5001906004840160005260206000209060005b8160051c8110610c5a5750601f198116808203610c03575b5050505060a08101516005811015610bd457600a916105f261016092600586016135f6565b60c0810151600685015560e0810151600785015561010081015160088501556009840173ffffffffffffffffffffffffffffffffffffffff610120830151168154907fffffffffffffffffffffff00000000000000000000000000000000000000000074ff0000000000000000000000000000000000000000610140860151151560a01b16921617179055015191015561068d600f546135bd565b600f5560405161069c81612cfc565b600081523315610ba35781600052600260205273ffffffffffffffffffffffffffffffffffffffff60406000205416828115159182610b4f575b3360005260036020526040600020600181540190558160005260026020526040600020337fffffffffffffffffffffffff000000000000000000000000000000000000000082541617905533907fddf252ad1be2c89b69c2b068fc378daa952ba7f163c4a11628f55a4df523b3ef600080a4610b1e57333b61096c575b508060005260066020526040600020835167ffffffffffffffff811161093d5761077d8254612dfb565b601f8111610900575b50602094601f821160011461089a5794819293949560009261088f575b50506000198260011b9260031b1c19161790555b7ff8e1a15aba9398e019f0b49df1a4fde98ee17ae345cb5f6b5e2c27f5033e8ce76020604051838152a1600080808073ffffffffffffffffffffffffffffffffffffffff6010541661271061080e601154346135e3565b0490828215610886575bf11561087a57602091817fd47cb8050f4c2a303ae0bc718150e84a86916fc101c9cb40051007ff251e841061085860405193604085526040850190612c5a565b92610867868201608435612ef5565b8033940390a36001600855604051908152f35b6040513d6000823e3d90fd5b506108fc610818565b0151905085806107a3565b601f198216958360005260206000209160005b8881106108e8575083600195969798106108cf575b505050811b0190556107b7565b015160001960f88460031b161c191690558580806108c2565b919260206001819286850151815501940192016108ad565b61092d90836000526020600020601f840160051c81019160208510610933575b601f0160051c01906135cc565b85610786565b9091508190610920565b7f4e487b7100000000000000000000000000000000000000000000000000000000600052604160045260246000fd5b60206109c091604051809381927f150b7a0200000000000000000000000000000000000000000000000000000000835233600484015260006024840152866044840152608060648401526084830190612c5a565b03816000335af160009181610ac1575b50610a42573d15610a3b573d6109e581612d3b565b906109f36040519283612d18565b81523d6000602083013e5b80519081610a365760246040517f64a0ae92000000000000000000000000000000000000000000000000000000008152336004820152fd5b602001fd5b60606109fe565b7fffffffff000000000000000000000000000000000000000000000000000000007f150b7a0200000000000000000000000000000000000000000000000000000000911603610a915783610753565b60246040517f64a0ae92000000000000000000000000000000000000000000000000000000008152336004820152fd5b9091506020813d602011610b16575b81610add60209383612d18565b8101031261020757517fffffffff00000000000000000000000000000000000000000000000000000000811681036102075790856109d0565b3d9150610ad0565b60246040517f73c6ac6e00000000000000000000000000000000000000000000000000000000815260006004820152fd5b610b8882600052600460205260406000207fffffffffffffffffffffffff00000000000000000000000000000000000000008154169055565b806000526003602052604060002060001981540190556106d6565b60246040517f64a0ae9200000000000000000000000000000000000000000000000000000000815260006004820152fd5b7f4e487b7100000000000000000000000000000000000000000000000000000000600052602160045260246000fd5b9260009360005b8184038110610c245750505060051c0155858080806105cd565b90919485516008811015610bd457610c50602091846001949060ff809160031b9316831b921b19161790565b9601929101610c0a565b6000805b60208110610c735750838201556001016105b5565b949081516008811015610bd457610c9e602091886001949060ff809160031b9316831b921b19161790565b92019501610c5e565b610cd79060048701600052601f846000209181871680610cdd575b500160051c810190601f860160051c016135cc565b886105a2565b6000199081848a0160051c86010191825491890360031b1c1690558c610cc2565b015190508780610544565b9250600285016000526020600020906000935b601f1984168510610d60576001945083601f19811610610d47575b505050811b01600283015561055b565b015160001960f88460031b161c19169055878080610d37565b81810151835560209485019460019093019290910190610d1c565b610daa90600287016000526020600020601f850160051c8101916020861061093357601f0160051c01906135cc565b8861052d565b0151905087806104e7565b9250600185016000526020600020906000935b601f1984168510610e12576001945083601f19811610610df9575b505050811b0160018301556104fe565b015160001960f88460031b161c19169055878080610de9565b81810151835560209485019460019093019290910190610dce565b610e5c90600187016000526020600020601f850160051c8101916020861061093357601f0160051c01906135cc565b886104d0565b60646040517f08c379a000000000000000000000000000000000000000000000000000000000815260206004820152601760248201527f4e656564206174206c65617374206f6e652073706f72740000000000000000006044820152fd5b60646040517f08c379a000000000000000000000000000000000000000000000000000000000815260206004820152600c60248201527f46656520746f6f206869676800000000000000000000000000000000000000006044820152fd5b60646040517f08c379a000000000000000000000000000000000000000000000000000000000815260206004820152601060248201527f496e76616c6964206361706163697479000000000000000000000000000000006044820152fd5b50600e5460443511156103f0565b8235600881101561020757815260209283019201610399565b3461020757604060031936011261020757610fbc612cbd565b600435600052600c60205273ffffffffffffffffffffffffffffffffffffffff60406000209116600052602052602060ff604060002054166040519015158152f35b34610207576000600319360112610207576020601154604051908152f35b346102075760406003193601126102075761105b60043561103b612cbd565b90806000526007602052611056600160406000200154612fd6565b61308a565b005b346102075760006003193601126102075760206040517f9f2df0fed2c77648de5860a4cc508cd0818c85b8b8a1ab4ceeef8d981c8956a68152f35b346102075760208060031936011261020757600435600052600b81526040600020908154916110c683612f4d565b926110d46040519485612d18565b8084528284018092600052836000206000915b8383106111a75750505050604051918083019381845251809452604083019360408160051b85010192916000955b8287106111225785850386f35b909192938280827fffffffffffffffffffffffffffffffffffffffffffffffffffffffffffffffc08960019503018552875190815181528282015183820152611179604083015160c0806040850152830190612c5a565b91606080820151908301526080808201519083015260a0809101519101529601920196019592919092611115565b6006866001926040999899516111bc81612ce0565b8554815284860154838201526111d460028701612e4e565b60408201526003860154606082015260048601546080820152600586015460a08201528152019201920191909594956110e7565b346102075760206003193601126102075760043561122581613322565b50600052600660205261126161123e6040600020612e4e565b600060405161124c81612cfc565b52604051918291602083526020830190612c5a565b0390f35b346102075760806003193601126102075761127e612c9a565b611286612cbd565b906044356064359267ffffffffffffffff84116102075736602385011215610207576112bf61105b943690602481600401359101612d57565b926112cb83838361310f565b33613383565b3461020757604060031936011261020757602435600435600052600b60205260406000209081548110156102075761130891612f02565b50805460018201549161131d60028201612e4e565b60038201549161134f60056004830154920154926040519687968752602087015260c0604087015260c0860190612c5a565b926060850152608084015260a08301520390f35b346102075760406003193601126102075761137c612c9a565b602435908115158092036102075773ffffffffffffffffffffffffffffffffffffffff169081156113fc57336000526005602052604060002082600052602052604060002060ff1981541660ff83161790556040519081527f17307eab39ab6107e8899845ad3d59bd9653f200f220920489ca2b5937696c3160203392a3005b602482604051907f5b08ba180000000000000000000000000000000000000000000000000000000082526004820152fd5b3461020757600060031936011261020757602060405160008152f35b34610207576000600319360112610207576040516000600180549061146d82612dfb565b8085529181811690811561150157506001146114a8575b6112618461149481860382612d18565b604051918291602083526020830190612c5a565b600081815292507fb10e2d527612073b26eecdfd717e6a320cf44b4afac2b0732d9fcbe2b7fa0cf65b8284106114e957505050810160200161149482611484565b805460208587018101919091529093019281016114d1565b60ff191660208087019190915292151560051b850190920192506114949150839050611484565b3461020757604060031936011261020757611541612cbd565b600435600052600760205273ffffffffffffffffffffffffffffffffffffffff60406000209116600052602052602060ff604060002054166040519015158152f35b60206003193601126102075760043561159b81613322565b6115be73ffffffffffffffffffffffffffffffffffffffff91823391161461364a565b81600052600a602052604060002090600582019060ff825416926005841015610bd45760048410156116ed57600d5460028501908186116116be5761160e91611606916135e3565b341015613558565b6001840160ff81116116be5760ff16906005821015610bd457611633600392856135f6565b01908154916096830292808404609614901517156116be5760008093928193926064839404905560105416819034156116b4575b3491f11561087a577fc445e3a8a2e7346aadb129d4219f1067cccf347d69fbde3cfb2a0c9423edaaab916116b160ff60409354166116a784518094612ef5565b6020830190612ef5565ba2005b6108fc9150611667565b7f4e487b7100000000000000000000000000000000000000000000000000000000600052601160045260246000fd5b60646040517f08c379a000000000000000000000000000000000000000000000000000000000815260206004820152600860248201527f4d617820746965720000000000000000000000000000000000000000000000006044820152fd5b3461020757602060031936011261020757600435600052600a6020526040600020805461177a60018301612e4e565b9161178760028201612e4e565b60ff6003830154928160058201541660068201546007830154906117f36008850154936117e3600a6009880154970154986117d56040519d8e9d8e528d610160908160208201520190612c5a565b8c810360408e015290612c5a565b9860608b015260808a0190612ef5565b60a088015260c087015260e086015273ffffffffffffffffffffffffffffffffffffffff811661010086015260a01c1615156101208401526101408301520390f35b3461020757602060031936011261020757600435611851612f65565b6103e8811161185f57601155005b60646040517f08c379a000000000000000000000000000000000000000000000000000000000815260206004820152600760248201527f4d617820313025000000000000000000000000000000000000000000000000006044820152fd5b346102075760206003193601126102075773ffffffffffffffffffffffffffffffffffffffff6118eb612c9a565b16801561190a5760005260036020526020604060002054604051908152f35b60246040517f89c62b6400000000000000000000000000000000000000000000000000000000815260006004820152fd5b34610207576000600319360112610207576020600d54604051908152f35b34610207576020600319360112610207576020611977600435613322565b73ffffffffffffffffffffffffffffffffffffffff60405191168152f35b3461020757600060031936011261020757602073ffffffffffffffffffffffffffffffffffffffff60105416604051908152f35b34610207576040600319360112610207576004356119e5612cbd565b906119ef81613322565b611a1273ffffffffffffffffffffffffffffffffffffffff91823391161461364a565b81600052600c6020526040600020921691826000526020526040600020600160ff198254161790557f522c39aed82ef066a0e86272eb6e064de2335c60fe1a136a89f254ca5b83b632600080a3005b34610207576000600319360112610207576020600e54604051908152f35b346102075760208060031936011261020757600435600052600a8152600460406000200160405180818480855493848152018095600052816000206000905b85601f830110611fc05794611bdc95549184828210611fa6575b828210611f89575b828210611f6c575b828210611f4f575b828210611f33575b828210611f16575b828210611ef9575b828210611edc575b828210611ebf575b828210611ea2575b828210611e85575b828210611e68575b828210611e4b575b828210611e2e575b828210611e11575b828210611df4575b828210611dd7575b828210611dba575b828210611d9d575b828210611d80575b828210611d63575b828210611d46575b828210611d29575b828210611d0c575b828210611cef575b828210611cd2575b828210611cb5575b828210611c98575b828210611c7b575b828210611c5e575b828210611c41575b5010611c2b575b5090509392930383612d18565b604051928392818401908285525180915260408401929160005b828110611c0557505050500390f35b9193839550908082611c1b600194839751612dee565b0195019101918594939192611bf6565b81611c389160f81c612dee565b01859087611bcf565b84611c556001939660ff8760f01c16612dee565b01930184611bc8565b84611c726001939660ff8760e81c16612dee565b01930184611bc0565b84611c8f6001939660ff8760e01c16612dee565b01930184611bb8565b84611cac6001939660ff8760d81c16612dee565b01930184611bb0565b84611cc96001939660ff8760d01c16612dee565b01930184611ba8565b84611ce66001939660ff8760c81c16612dee565b01930184611ba0565b84611d036001939660ff8760c01c16612dee565b01930184611b98565b84611d206001939660ff8760b81c16612dee565b01930184611b90565b84611d3d6001939660ff8760b01c16612dee565b01930184611b88565b84611d5a6001939660ff8760a81c16612dee565b01930184611b80565b84611d776001939660ff8760a01c16612dee565b01930184611b78565b84611d946001939660ff8760981c16612dee565b01930184611b70565b84611db16001939660ff8760901c16612dee565b01930184611b68565b84611dce6001939660ff8760881c16612dee565b01930184611b60565b84611deb6001939660ff8760801c16612dee565b01930184611b58565b84611e086001939660ff8760781c16612dee565b01930184611b50565b84611e256001939660ff8760701c16612dee565b01930184611b48565b84611e426001939660ff8760681c16612dee565b01930184611b40565b84611e5f6001939660ff8760601c16612dee565b01930184611b38565b84611e7c6001939660ff8760581c16612dee565b01930184611b30565b84611e996001939660ff8760501c16612dee565b01930184611b28565b84611eb66001939660ff8760481c16612dee565b01930184611b20565b84611ed36001939660ff8760401c16612dee565b01930184611b18565b84611ef06001939660ff8760381c16612dee565b01930184611b10565b84611f0d6001939660ff8760301c16612dee565b01930184611b08565b84611f2a6001939660ff8760281c16612dee565b01930184611b00565b84611f466001939660ff87851c16612dee565b01930184611af8565b84611f636001939660ff8760181c16612dee565b01930184611af0565b84611f806001939660ff8760101c16612dee565b01930184611ae8565b84611f9d6001939660ff8760081c16612dee565b01930184611ae0565b84611fb76001939660ff8716612dee565b01930184611ad8565b9350916001610400829693612221875461221360ff611fe185828516612dee565b611ff2888601828560081c16612dee565b61200460408601828560101c16612dee565b6121a48561215c606061201e818401868960181c16612dee565b6121148c612035608091888b848901921c16612dee565b6120cc60a09361204c8588018a8d60281c16612dee565b888b61018060c0996120658b8201858560301c16612dee565b61207760e08201858560381c16612dee565b61208a6101008201858560401c16612dee565b61209d6101208201858560481c16612dee565b6120b06101408201858560501c16612dee565b6120c36101608201858560581c16612dee565b01921c16612dee565b6120df6101a08c01888b60681c16612dee565b6120f26101c08c01888b60701c16612dee565b6121056101e08c01888b60781c16612dee565b86896102008d01921c16612dee565b6121276102208a01868960881c16612dee565b61213a6102408a01868960901c16612dee565b61214d6102608a01868960981c16612dee565b84876102808b01921c16612dee565b61216f6102a08801848760a81c16612dee565b6121826102c08801848760b01c16612dee565b6121956102e08801848760b81c16612dee565b82856103008901921c16612dee565b6121b76103208601828560c81c16612dee565b6121ca6103408601828560d01c16612dee565b6121dd6103608601828560d81c16612dee565b6121f06103808601828560e01c16612dee565b6122036103a08601828560e81c16612dee565b6103c08501908360f01c16612dee565b6103e083019060f81c612dee565b01940192018593919492611abe565b346102075761105b61224136612dac565b906040519261224f84612cfc565b600084526112cb83838361310f565b3461020757604060031936011261020757612277612cbd565b3373ffffffffffffffffffffffffffffffffffffffff8216036122a05761105b9060043561308a565b60046040517f6697b232000000000000000000000000000000000000000000000000000000008152fd5b346102075760406003193601126102075761105b6004356122e9612cbd565b90806000526007602052612304600160406000200154612fd6565b612ffc565b346102075760206003193601126102075760043560005260076020526020600160406000200154604051908152f35b346102075761105b61234936612dac565b9161310f565b60606003193601126102075760243567ffffffffffffffff81116102075761237b903690600401612d8e565b60443561238661360f565b600435600052600a602052604060002060ff600982015460a01c161561276a5773ffffffffffffffffffffffffffffffffffffffff6123c6600435613322565b1633148015612744575b156126e657600381015482116126885760076127106123f36008840154346135e3565b04916006810161240381546135bd565b90550180549182018092116116be5755600435600052600b6020526040600020908154916040519161243483612ce0565b838352600435602084015284604084015242606084015234608084015260a08301526801000000000000000083101561093d578261247791600182018155612f02565b919091612659578051825560208101516001830155604081015180519067ffffffffffffffff821161093d576124b06002850154612dfb565b601f8111612624575b50602090601f83116001146125af5791806005949260a0946000926125a4575b50506000198260011b9260031b1c19161760028501555b60608101516003850155608081015160048501550151910155600080808073ffffffffffffffffffffffffffffffffffffffff60105416612710612536601154346135e3565b049082821561259b575bf11561087a57806020927fb25c09687ca07dfd41d09393b71d007764a1dbad8e16b21fc4473bd6dc5d0eeb61258060405192604084526040840190612c5a565b91348682015280600435930390a36001600855604051908152f35b506108fc612540565b0151905088806124d9565b906002850160005260206000209160005b601f198516811061260c5750926005949260019260a09583601f198116106125f3575b505050811b0160028501556124f0565b015160001960f88460031b161c191690558880806125e3565b919260206001819286850151815501940192016125c0565b61265390600286016000526020600020601f850160051c8101916020861061093357601f0160051c01906135cc565b866124b9565b7f4e487b7100000000000000000000000000000000000000000000000000000000600052600060045260246000fd5b60646040517f08c379a000000000000000000000000000000000000000000000000000000000815260206004820152600d60248201527f4f766572206361706163697479000000000000000000000000000000000000006044820152fd5b60646040517f08c379a000000000000000000000000000000000000000000000000000000000815260206004820152600e60248201527f4e6f7420617574686f72697a65640000000000000000000000000000000000006044820152fd5b50600435600052600c60205260406000203360005260205260ff604060002054166123d0565b60646040517f08c379a000000000000000000000000000000000000000000000000000000000815260206004820152600a60248201527f4e6f7420616374697665000000000000000000000000000000000000000000006044820152fd5b34610207576000600319360112610207576020600f54604051908152f35b346102075760206003193601126102075760043561280261360f565b61282b61280e82613322565b73ffffffffffffffffffffffffffffffffffffffff16331461364a565b80600052600a6020526007604060002001549081156128985780600052600a602052600060076040822001556000808080853382f11561087a576040519182527f841fbab03327efe47fb7d133055c9aa87df38ff76b5919d1c190e0067c5e34b360203393a36001600855005b60646040517f08c379a000000000000000000000000000000000000000000000000000000000815260206004820152600a60248201527f4e6f20726576656e7565000000000000000000000000000000000000000000006044820152fd5b346102075760406003193601126102075761290f612c9a565b60243561291b81613322565b33151580612a16575b806129db575b6129ab57819073ffffffffffffffffffffffffffffffffffffffff809416938491167f8c5be1e5ebec7d5bd14f71427d1e84f3dd0314c0f7b2291e5b200ac8c7c3b925600080a460005260046020526040600020907fffffffffffffffffffffffff0000000000000000000000000000000000000000825416179055600080f35b60246040517fa9fbf51f000000000000000000000000000000000000000000000000000000008152336004820152fd5b5073ffffffffffffffffffffffffffffffffffffffff8116600052600560205260406000203360005260205260ff604060002054161561292a565b503373ffffffffffffffffffffffffffffffffffffffff82161415612924565b3461020757602060031936011261020757600435612a5381613322565b506000526004602052602073ffffffffffffffffffffffffffffffffffffffff60406000205416604051908152f35b346102075760006003193601126102075760405160008054612aa381612dfb565b808452906001908181169081156115015750600114612acc576112618461149481860382612d18565b600080805292507f290decd9548b62a8d60345a988386fc84ba6bc95484008f6362f93160ef3e5635b828410612b0d57505050810160200161149482611484565b80546020858701810191909152909301928101612af5565b3461020757602060031936011261020757600435907fffffffff00000000000000000000000000000000000000000000000000000000821680920361020757817f7965db0b0000000000000000000000000000000000000000000000000000000060209314908115612b99575b5015158152f35b7f4906490600000000000000000000000000000000000000000000000000000000811491508115612bcc575b5083612b92565b7f80ac58cd00000000000000000000000000000000000000000000000000000000811491508115612c30575b8115612c06575b5083612bc5565b7f01ffc9a70000000000000000000000000000000000000000000000000000000091501483612bff565b7f5b5e139f0000000000000000000000000000000000000000000000000000000081149150612bf8565b919082519283825260005b848110612c86575050601f19601f8460006020809697860101520116010190565b602081830181015184830182015201612c65565b6004359073ffffffffffffffffffffffffffffffffffffffff8216820361020757565b6024359073ffffffffffffffffffffffffffffffffffffffff8216820361020757565b60c0810190811067ffffffffffffffff82111761093d57604052565b6020810190811067ffffffffffffffff82111761093d57604052565b90601f601f19910116810190811067ffffffffffffffff82111761093d57604052565b67ffffffffffffffff811161093d57601f01601f191660200190565b929192612d6382612d3b565b91612d716040519384612d18565b829481845281830111610207578281602093846000960137010152565b9080601f8301121561020757816020612da993359101612d57565b90565b60031960609101126102075773ffffffffffffffffffffffffffffffffffffffff90600435828116810361020757916024359081168103610207579060443590565b906008821015610bd45752565b90600182811c92168015612e44575b6020831014612e1557565b7f4e487b7100000000000000000000000000000000000000000000000000000000600052602260045260246000fd5b91607f1691612e0a565b9060405191826000825492612e6284612dfb565b908184526001948581169081600014612ed15750600114612e8e575b5050612e8c92500383612d18565b565b9093915060005260209081600020936000915b818310612eb9575050612e8c93508201013880612e7e565b85548884018501529485019487945091830191612ea1565b9050612e8c95506020935060ff1991501682840152151560051b8201013880612e7e565b906005821015610bd45752565b8054821015612f1e576000526006602060002091020190600090565b7f4e487b7100000000000000000000000000000000000000000000000000000000600052603260045260246000fd5b67ffffffffffffffff811161093d5760051b60200190565b3360009081527f6d5257204ebe7d88fd91ae87941cb2dd9d8062b64ae5a2bd2d28ec40b9fbf6df602052604081205460ff1615612f9f5750565b604490604051907fe2517d3f0000000000000000000000000000000000000000000000000000000082523360048301526024820152fd5b80600052600760205260406000203360005260205260ff6040600020541615612f9f5750565b90600091808352600760205273ffffffffffffffffffffffffffffffffffffffff6040842092169182845260205260ff604084205416156000146130855780835260076020526040832082845260205260408320600160ff198254161790557f2f8788117e7eff1d82e926ec794901d17c78024a50270940304540a733656f0d339380a4600190565b505090565b90600091808352600760205273ffffffffffffffffffffffffffffffffffffffff6040842092169182845260205260ff604084205416600014613085578083526007602052604083208284526020526040832060ff1981541690557ff6391f5c32d9c69d2a47ea670b442974b53935d1edc7fd64eb21e047a839171b339380a4600190565b909173ffffffffffffffffffffffffffffffffffffffff809316928315610ba35760009282845282602095600287526040968488882054169687913315158061325a575b509060027fddf252ad1be2c89b69c2b068fc378daa952ba7f163c4a11628f55a4df523b3ef928461320a575b858352600381528b83206001815401905586835252898120847fffffffffffffffffffffffff000000000000000000000000000000000000000082541617905580a416928383036131d05750505050565b6064945051927f64283d7b000000000000000000000000000000000000000000000000000000008452600484015260248301526044820152fd5b61324387600052600460205260406000207fffffffffffffffffffffffff00000000000000000000000000000000000000008154169055565b848352600381528b8320600019815401905561317f565b919394509150806132e1575b1561327657859291879138613153565b8786886132ac5760249151907f7e2732890000000000000000000000000000000000000000000000000000000082526004820152fd5b60449151907f177e802f0000000000000000000000000000000000000000000000000000000082523360048301526024820152fd5b503387148015613306575b806132665750858252600481523385898420541614613266565b5086825260058152878220338352815260ff88832054166132ec565b80600052600260205273ffffffffffffffffffffffffffffffffffffffff60406000205416908115613352575090565b602490604051907f7e2732890000000000000000000000000000000000000000000000000000000082526004820152fd5b90939192833b613395575b5050505050565b73ffffffffffffffffffffffffffffffffffffffff95929394958095169460405196817f150b7a020000000000000000000000000000000000000000000000000000000094858a52166004890152166024870152604486015260806064860152846134066020946084830190612c5a565b039483816000978189895af18691816134fc575b50613493575050503d60001461348a573d61343481612d3b565b906134426040519283612d18565b81528093823d92013e5b8251928361348557602483604051907f64a0ae920000000000000000000000000000000000000000000000000000000082526004820152fd5b019050fd5b6060925061344c565b9092507fffffffff0000000000000000000000000000000000000000000000000000000091945016036134cb5750388080808061338e565b602490604051907f64a0ae920000000000000000000000000000000000000000000000000000000082526004820152fd5b9091508481813d8311613551575b6135148183612d18565b8101031261354d57517fffffffff000000000000000000000000000000000000000000000000000000008116810361354d57903861341a565b8680fd5b503d61350a565b1561355f57565b60646040517f08c379a000000000000000000000000000000000000000000000000000000000815260206004820152601460248201527f496e73756666696369656e74207061796d656e740000000000000000000000006044820152fd5b60001981146116be5760010190565b8181106135d7575050565b600081556001016135cc565b818102929181159184041417156116be57565b906005811015610bd45760ff60ff198354169116179055565b600260085414613620576002600855565b60046040517f3ee5aeb5000000000000000000000000000000000000000000000000000000008152fd5b1561365157565b60646040517f08c379a000000000000000000000000000000000000000000000000000000000815260206004820152600960248201527f4e6f74206f776e657200000000000000000000000000000000000000000000006044820152fdfea26469706673582212206c08c4421d0df71778ae293cc902288b9cd0be90d1411573743210648213d9d564736f6c634300081400332f8788117e7eff1d82e926ec794901d17c78024a50270940304540a733656f0d",
  "linkReferences": {},
  "deployedLinkReferences": {}
}