{
  "_format": "hh-sol-artifact-1",
  "contractName": "ExecutionGuardian",
  "sourceName": "contracts/layer7/execution/ExecutionGuardian.sol",
  "abi": [
    {
      "inputs": [],
      "stateMutability": "nonpayable",
      "type": "constructor"
    },
    {
      "inputs": [],
      "name": "AccessControlBadConfirmation",
      "type": "error"
    },
    {
      "inputs": [
        {
          "internalType": "address",
          "name": "account",
          "type": "address"
        },
        {
          "internalType": "bytes32",
          "name": "neededRole",
          "type": "bytes32"
        }
      ],
      "name": "AccessControlUnauthorizedAccount",
      "type": "error"
    },
    {
      "anonymous": false,
      "inputs": [
        {
          "indexed": true,
          "internalType": "uint256",
          "name": "entityId",
          "type": "uint256"
        },
        {
          "indexed": true,
          "internalType": "bytes32",
          "name": "actionHash",
          "type": "bytes32"
        },
        {
          "indexed": false,
          "internalType": "string",
          "name": "reason",
          "type": "string"
        }
      ],
      "name": "ActionBlocked",
      "type": "event"
    },
    {
      "anonymous": false,
      "inputs": [
        {
          "indexed": true,
          "internalType": "uint256",
          "name": "entityId",
          "type": "uint256"
        },
        {
          "indexed": true,
          "internalType": "bytes32",
          "name": "actionHash",
          "type": "bytes32"
        },
        {
          "indexed": false,
          "internalType": "bool",
          "name": "approved",
          "type": "bool"
        }
      ],
      "name": "ActionValidated",
      "type": "event"
    },
    {
      "anonymous": false,
      "inputs": [
        {
          "indexed": true,
          "internalType": "uint256",
          "name": "entityId",
          "type": "uint256"
        },
        {
          "indexed": false,
          "internalType": "string",
          "name": "reason",
          "type": "string"
        }
      ],
      "name": "EntityFrozen",
      "type": "event"
    },
    {
      "anonymous": false,
      "inputs": [
        {
          "indexed": true,
          "internalType": "bytes32",
          "name": "role",
          "type": "bytes32"
        },
        {
          "indexed": true,
          "internalType": "bytes32",
          "name": "previousAdminRole",
          "type": "bytes32"
        },
        {
          "indexed": true,
          "internalType": "bytes32",
          "name": "newAdminRole",
          "type": "bytes32"
        }
      ],
      "name": "RoleAdminChanged",
      "type": "event"
    },
    {
      "anonymous": false,
      "inputs": [
        {
          "indexed": true,
          "internalType": "bytes32",
          "name": "role",
          "type": "bytes32"
        },
        {
          "indexed": true,
          "internalType": "address",
          "name": "account",
          "type": "address"
        },
        {
          "indexed": true,
          "internalType": "address",
          "name": "sender",
          "type": "address"
        }
      ],
      "name": "RoleGranted",
      "type": "event"
    },
    {
      "anonymous": false,
      "inputs": [
        {
          "indexed": true,
          "internalType": "bytes32",
          "name": "role",
          "type": "bytes32"
        },
        {
          "indexed": true,
          "internalType": "address",
          "name": "account",
          "type": "address"
        },
        {
          "indexed": true,
          "internalType": "address",
          "name": "sender",
          "type": "address"
        }
      ],
      "name": "RoleRevoked",
      "type": "event"
    },
    {
      "anonymous": false,
      "inputs": [
        {
          "indexed": false,
          "internalType": "bool",
          "name": "paused",
          "type": "bool"
        }
      ],
      "name": "SystemPaused",
      "type": "event"
    },
    {
      "inputs": [],
      "name": "DEFAULT_ADMIN_ROLE",
      "outputs": [
        {
          "internalType": "bytes32",
          "name": "",
          "type": "bytes32"
        }
      ],
      "stateMutability": "view",
      "type": "function"
    },
    {
      "inputs": [],
      "name": "EXECUTOR_ROLE",
      "outputs": [
        {
          "internalType": "bytes32",
          "name": "",
          "type": "bytes32"
        }
      ],
      "stateMutability": "view",
      "type": "function"
    },
    {
      "inputs": [],
      "name": "GUARDIAN_ROLE",
      "outputs": [
        {
          "internalType": "bytes32",
          "name": "",
          "type": "bytes32"
        }
      ],
      "stateMutability": "view",
      "type": "function"
    },
    {
      "inputs": [
        {
          "internalType": "bytes32",
          "name": "",
          "type": "bytes32"
        }
      ],
      "name": "actionPolicies",
      "outputs": [
        {
          "internalType": "bool",
          "name": "isAllowed",
          "type": "bool"
        },
        {
          "internalType": "bool",
          "name": "requiresMultiSig",
          "type": "bool"
        },
        {
          "internalType": "uint256",
          "name": "cooldown",
          "type": "uint256"
        },
        {
          "internalType": "uint256",
          "name": "maxPerDay",
          "type": "uint256"
        },
        {
          "internalType": "uint256",
          "name": "minReputation",
          "type": "uint256"
        },
        {
          "internalType": "uint256",
          "name": "requiredSignatures",
          "type": "uint256"
        }
      ],
      "stateMutability": "view",
      "type": "function"
    },
    {
      "inputs": [
        {
          "internalType": "uint256",
          "name": "",
          "type": "uint256"
        }
      ],
      "name": "entityLimits",
      "outputs": [
        {
          "internalType": "uint256",
          "name": "dailyActionCount",
          "type": "uint256"
        },
        {
          "internalType": "uint256",
          "name": "lastActionTime",
          "type": "uint256"
        },
        {
          "internalType": "uint256",
          "name": "dailyResetTime",
          "type": "uint256"
        },
        {
          "internalType": "bool",
          "name": "isFrozen",
          "type": "bool"
        }
      ],
      "stateMutability": "view",
      "type": "function"
    },
    {
      "inputs": [
        {
          "internalType": "uint256",
          "name": "entityId",
          "type": "uint256"
        },
        {
          "internalType": "string",
          "name": "reason",
          "type": "string"
        }
      ],
      "name": "freezeEntity",
      "outputs": [],
      "stateMutability": "nonpayable",
      "type": "function"
    },
    {
      "inputs": [
        {
          "internalType": "bytes32",
          "name": "role",
          "type": "bytes32"
        }
      ],
      "name": "getRoleAdmin",
      "outputs": [
        {
          "internalType": "bytes32",
          "name": "",
          "type": "bytes32"
        }
      ],
      "stateMutability": "view",
      "type": "function"
    },
    {
      "inputs": [
        {
          "internalType": "bytes32",
          "name": "role",
          "type": "bytes32"
        },
        {
          "internalType": "address",
          "name": "account",
          "type": "address"
        }
      ],
      "name": "grantRole",
      "outputs": [],
      "stateMutability": "nonpayable",
      "type": "function"
    },
    {
      "inputs": [
        {
          "internalType": "bytes32",
          "name": "role",
          "type": "bytes32"
        },
        {
          "internalType": "address",
          "name": "account",
          "type": "address"
        }
      ],
      "name": "hasRole",
      "outputs": [
        {
          "internalType": "bool",
          "name": "",
          "type": "bool"
        }
      ],
      "stateMutability": "view",
      "type": "function"
    },
    {
      "inputs": [
        {
          "internalType": "uint256",
          "name": "entityId",
          "type": "uint256"
        },
        {
          "internalType": "bytes32",
          "name": "actionHash",
          "type": "bytes32"
        },
        {
          "internalType": "int256",
          "name": "reputationScore",
          "type": "int256"
        }
      ],
      "name": "isActionAllowed",
      "outputs": [
        {
          "internalType": "bool",
          "name": "allowed",
          "type": "bool"
        },
        {
          "internalType": "string",
          "name": "reason",
          "type": "string"
        }
      ],
      "stateMutability": "view",
      "type": "function"
    },
    {
      "inputs": [
        {
          "internalType": "uint256",
          "name": "",
          "type": "uint256"
        },
        {
          "internalType": "bytes32",
          "name": "",
          "type": "bytes32"
        }
      ],
      "name": "lastActionTime",
      "outputs": [
        {
          "internalType": "uint256",
          "name": "",
          "type": "uint256"
        }
      ],
      "stateMutability": "view",
      "type": "function"
    },
    {
      "inputs": [
        {
          "internalType": "bool",
          "name": "paused",
          "type": "bool"
        }
      ],
      "name": "pauseSystem",
      "outputs": [],
      "stateMutability": "nonpayable",
      "type": "function"
    },
    {
      "inputs": [
        {
          "internalType": "bytes32",
          "name": "role",
          "type": "bytes32"
        },
        {
          "internalType": "address",
          "name": "callerConfirmation",
          "type": "address"
        }
      ],
      "name": "renounceRole",
      "outputs": [],
      "stateMutability": "nonpayable",
      "type": "function"
    },
    {
      "inputs": [
        {
          "internalType": "bytes32",
          "name": "role",
          "type": "bytes32"
        },
        {
          "internalType": "address",
          "name": "account",
          "type": "address"
        }
      ],
      "name": "revokeRole",
      "outputs": [],
      "stateMutability": "nonpayable",
      "type": "function"
    },
    {
      "inputs": [
        {
          "internalType": "bytes32",
          "name": "actionHash",
          "type": "bytes32"
        },
        {
          "internalType": "bool",
          "name": "isAllowed",
          "type": "bool"
        },
        {
          "internalType": "bool",
          "name": "requiresMultiSig",
          "type": "bool"
        },
        {
          "internalType": "uint256",
          "name": "cooldown",
          "type": "uint256"
        },
        {
          "internalType": "uint256",
          "name": "maxPerDay",
          "type": "uint256"
        },
        {
          "internalType": "uint256",
          "name": "minReputation",
          "type": "uint256"
        },
        {
          "internalType": "uint256",
          "name": "requiredSignatures",
          "type": "uint256"
        }
      ],
      "name": "setActionPolicy",
      "outputs": [],
      "stateMutability": "nonpayable",
      "type": "function"
    },
    {
      "inputs": [
        {
          "internalType": "bytes4",
          "name": "interfaceId",
          "type": "bytes4"
        }
      ],
      "name": "supportsInterface",
      "outputs": [
        {
          "internalType": "bool",
          "name": "",
          "type": "bool"
        }
      ],
      "stateMutability": "view",
      "type": "function"
    },
    {
      "inputs": [],
      "name": "systemPaused",
      "outputs": [
        {
          "internalType": "bool",
          "name": "",
          "type": "bool"
        }
      ],
      "stateMutability": "view",
      "type": "function"
    },
    {
      "inputs": [
        {
          "internalType": "uint256",
          "name": "entityId",
          "type": "uint256"
        }
      ],
      "name": "unfreezeEntity",
      "outputs": [],
      "stateMutability": "nonpayable",
      "type": "function"
    },
    {
      "inputs": [
        {
          "internalType": "uint256",
          "name": "entityId",
          "type": "uint256"
        },
        {
          "internalType": "bytes32",
          "name": "actionHash",
          "type": "bytes32"
        },
        {
          "internalType": "int256",
          "name": "reputationScore",
          "type": "int256"
        }
      ],
      "name": "validateAction",
      "outputs": [
        {
          "internalType": "bool",
          "name": "",
          "type": "bool"
        }
      ],
      "stateMutability": "nonpayable",
      "type": "function"
    }
  ],
  "bytecode": "0x60806040523461002c5761001233610031565b5061001c336100af565b5060405161121490816101508239f35b600080fd5b6001600160a01b031660008181527fad3228b676f7d3cd4284a5443f17f1962b36e491b30a40b2405849e597ba5fb5602052604081205490919060ff166100ab57818052816020526040822081835260205260408220600160ff1982541617905533916000805160206113648339815191528180a4600190565b5090565b6001600160a01b031660008181527f8a40f0b47fdc2a0ce293b772acfc7508c8315a4d462786c1adc3a56f92ca2d0560205260408120549091907f55435dd261a4b9b3364963f7738a7a662ad9c84396d64be3365284bb7f0a50419060ff1661014a57808352826020526040832082845260205260408320600160ff19825416179055600080516020611364833981519152339380a4600190565b50509056fe608060408181526004908136101561001657600080fd5b600092833560e01c90816301ffc9a714610bb35750806307bd026514610b78578063248a9ca314610b4e57806324ea54f414610b135780632f2ff15d14610af557806336568abe14610a935780633a8631e014610a445780636e4d723a146109e257806382b076331461086b57806391d14854146108255780639d2f83f014610802578063a0957705146103eb578063a217fddf146103d0578063a21d82011461039f578063c7c54285146102d6578063cb0d924714610298578063cd81960014610182578063d547741f146101495763fbd9ded7146100f557600080fd5b3461014557602060031936011261014557600391610111610d51565b35835260026020528220017fffffffffffffffffffffffffffffffffffffffffffffffffffffffffffffff00815416905580f35b8280fd5b83823461017e57600161017a9161017561016236610c52565b9390928387528660205286200154610de4565b610eb4565b5080f35b5080fd5b5090346101455760e0600319360112610145576024359182151580930361029457604435801515809103610290576101b8610d51565b81519360c0850185811067ffffffffffffffff821117610264578352845260208401908152818401606435815260608501906084358252608086019260a435845260a087019460c4358652863589526001602052882096511515907fffffffffffffffffffffffffffffffffffffffffffffffffffffffffffff000060ff61ff008a549351151560081b1693169116171786555160018601555160028501555160038401555191015580f35b6024876041877f4e487b7100000000000000000000000000000000000000000000000000000000835252fd5b8480fd5b8380fd5b5082346102d357506102cf6102b56102af36610cd9565b91610f91565b839291925193849315158452806020850152830190610cf3565b0390f35b80fd5b503461014557602060031936011261014557813591821515809303610294578380528360205281842033855260205260ff82852054161561036a5791602091837fffffffffffffffffffffffffffffffffffffffffffffffffffffffffffffff007f59617e84cd4a4d47c34c76f190da73d3a6a0236e0770dcba41851db53f336f5795541660ff841617905551908152a180f35b8360449251917fe2517d3f00000000000000000000000000000000000000000000000000000000835233908301526024820152fd5b5090346101455781600319360112610145576020928291358152600384528181206024358252845220549051908152f35b83823461017e578160031936011261017e5751908152602090f35b5034610145576103fa36610cd9565b947fd8aa0f3194971a2a116679f7c2090f6939c8d4e01a2a8d7e41d55e5351469e6392919295868252602096828852858320338452885260ff8684205416156107cc575060ff86541661077057828252600287528482209060ff600383015416610714578483526001968789528684209160ff835416156106b85760038301541361065c5784845260038952868420868552895261049b8785205442610f55565b8883015411610600576002830180544210156105bc575b5060028354920154821015610560577fffffffffffffffffffffffffffffffffffffffffffffffffffffffffffffffff8214610534575086018155854291015581815260038652838120838252865283429120557f1590053e0d3fc1eaa6d7825854b94c220c455954b38bb65df113a9838d90b701858451868152a351908152f35b8360116024927f4e487b7100000000000000000000000000000000000000000000000000000000835252fd5b606490898851917f08c379a0000000000000000000000000000000000000000000000000000000008352820152601460248201527f4461696c79206c696d69742065786365656465640000000000000000000000006044820152fd5b848455620151804201908142116105d45755386104b2565b6024866011857f4e487b7100000000000000000000000000000000000000000000000000000000835252fd5b606490898851917f08c379a0000000000000000000000000000000000000000000000000000000008352820152601060248201527f436f6f6c646f776e206e6f74206d6574000000000000000000000000000000006044820152fd5b606490898851917f08c379a0000000000000000000000000000000000000000000000000000000008352820152601760248201527f496e73756666696369656e742072657075746174696f6e0000000000000000006044820152fd5b6064828b8a51917f08c379a0000000000000000000000000000000000000000000000000000000008352820152601260248201527f416374696f6e206e6f7420616c6c6f77656400000000000000000000000000006044820152fd5b606487898851917f08c379a0000000000000000000000000000000000000000000000000000000008352820152600d60248201527f456e746974792066726f7a656e000000000000000000000000000000000000006044820152fd5b606486888751917f08c379a0000000000000000000000000000000000000000000000000000000008352820152600d60248201527f53797374656d20706175736564000000000000000000000000000000000000006044820152fd5b866044918751917fe2517d3f00000000000000000000000000000000000000000000000000000000835233908301526024820152fd5b5082346102d357806003193601126102d3575060ff602092541690519015158152f35b83823461017e5760ff8160209361083b36610c52565b90825281865273ffffffffffffffffffffffffffffffffffffffff83832091168252855220541690519015158152f35b5090346101455781600319360112610145578035916024359167ffffffffffffffff918284116109de57366023850112156109de5783820135928084116109b2578151927fffffffffffffffffffffffffffffffffffffffffffffffffffffffffffffffe0603f81601f880116011684019184831090831117610986575081528282528536602485870101116102d3576020846109809560247f7c327ed688c6d00c05cdf9b64b82e4c6fc826d538f8b2aba9ba6068d454011cc98018387013784010152610937610d51565b848652600260205260038187200160017fffffffffffffffffffffffffffffffffffffffffffffffffffffffffffffff0082541617905551918291602083526020830190610cf3565b0390a280f35b8760416024927f4e487b7100000000000000000000000000000000000000000000000000000000835252fd5b6024876041857f4e487b7100000000000000000000000000000000000000000000000000000000835252fd5b8580fd5b5034610145576020600319360112610145578060c09383358152600160205220805492600182015460028301549160038401549301549360ff8151968181161515885260081c16151560208701528501526060840152608083015260a0820152f35b5090346101455760206003193601126101455760809282913581526002602052209081549160018101549160ff6003600284015493015416928151948552602085015283015215156060820152f35b5082903461017e57610aa436610c52565b913373ffffffffffffffffffffffffffffffffffffffff841603610acd57509061017a91610eb4565b8490517f6697b232000000000000000000000000000000000000000000000000000000008152fd5b83823461017e57600161017a91610b0e61016236610c52565b610e0a565b83823461017e578160031936011261017e57602090517f55435dd261a4b9b3364963f7738a7a662ad9c84396d64be3365284bb7f0a50418152f35b50903461014557602060031936011261014557816020936001923581528085522001549051908152f35b83823461017e578160031936011261017e57602090517fd8aa0f3194971a2a116679f7c2090f6939c8d4e01a2a8d7e41d55e5351469e638152f35b8490843461014557602060031936011261014557357fffffffff00000000000000000000000000000000000000000000000000000000811680910361014557602092507f7965db0b000000000000000000000000000000000000000000000000000000008114908115610c28575b5015158152f35b7f01ffc9a70000000000000000000000000000000000000000000000000000000091501483610c21565b6003196040910112610c85576004359060243573ffffffffffffffffffffffffffffffffffffffff81168103610c855790565b600080fd5b604051906040820182811067ffffffffffffffff821117610caa57604052565b7f4e487b7100000000000000000000000000000000000000000000000000000000600052604160045260246000fd5b6003196060910112610c8557600435906024359060443590565b919082519283825260005b848110610d3d5750507fffffffffffffffffffffffffffffffffffffffffffffffffffffffffffffffe0601f8460006020809697860101520116010190565b602081830181015184830182015201610cfe565b3360009081527f8a40f0b47fdc2a0ce293b772acfc7508c8315a4d462786c1adc3a56f92ca2d0560205260409020547f55435dd261a4b9b3364963f7738a7a662ad9c84396d64be3365284bb7f0a50419060ff1615610dad5750565b604490604051907fe2517d3f0000000000000000000000000000000000000000000000000000000082523360048301526024820152fd5b80600052600060205260406000203360005260205260ff6040600020541615610dad5750565b906000918083528260205273ffffffffffffffffffffffffffffffffffffffff6040842092169182845260205260ff60408420541615600014610eaf5780835282602052604083208284526020526040832060017fffffffffffffffffffffffffffffffffffffffffffffffffffffffffffffff008254161790557f2f8788117e7eff1d82e926ec794901d17c78024a50270940304540a733656f0d339380a4600190565b505090565b906000918083528260205273ffffffffffffffffffffffffffffffffffffffff6040842092169182845260205260ff604084205416600014610eaf578083528260205260408320828452602052604083207fffffffffffffffffffffffffffffffffffffffffffffffffffffffffffffff0081541690557ff6391f5c32d9c69d2a47ea670b442974b53935d1edc7fd64eb21e047a839171b339380a4600190565b91908203918211610f6257565b7f4e487b7100000000000000000000000000000000000000000000000000000000600052601160045260246000fd5b90929160ff600454166111a2576000908282526020926002845260409560ff600388862001541661116757808452600185528684209260ff8454161561112b576003840154136110f057818452600385528684209084528452610ff78684205442610f55565b6001830154116110b657825260028352848220906002820154421091826110a4575b505061106e5760019380519283019083821067ffffffffffffffff8311176110415752815290565b6024837f4e487b710000000000000000000000000000000000000000000000000000000081526041600452fd5b92507f4461696c79206c696d6974206578636565646564000000000000000000000000611099610c8a565b916014835282015290565b60029192505491015411153880611019565b5050909250917f436f6f6c646f776e206e6f74206d6574000000000000000000000000000000006110e5610c8a565b916010835282015290565b505050909250917f496e73756666696369656e742072657075746174696f6e000000000000000000611120610c8a565b916017835282015290565b50505050909250917f416374696f6e206e6f7420616c6c6f776564000000000000000000000000000061115c610c8a565b916012835282015290565b505050909250917f456e746974792066726f7a656e00000000000000000000000000000000000000611197610c8a565b91600d835282015290565b505090506000906111b1610c8a565b600d81527f53797374656d207061757365640000000000000000000000000000000000000060208201529056fea2646970667358221220eadfceb0e81c222e808111d9c38d400be8ed7746171dd568a3edaff5dc6ebbb964736f6c634300081400332f8788117e7eff1d82e926ec794901d17c78024a50270940304540a733656f0d",
  "linkReferences": {},
  "deployedLinkReferences": {}
}