{
  "_format": "hh-sol-artifact-1",
  "contractName": "MultiSportHub",
  "sourceName": "contracts/layer5/MultiSportHub.sol",
  "abi": [
    {
      "inputs": [],
      "stateMutability": "nonpayable",
      "type": "constructor"
    },
    {
      "inputs": [],
      "name": "AccessControlBadConfirmation",
      "type": "error"
    },
    {
      "inputs": [
        {
          "internalType": "address",
          "name": "account",
          "type": "address"
        },
        {
          "internalType": "bytes32",
          "name": "neededRole",
          "type": "bytes32"
        }
      ],
      "name": "AccessControlUnauthorizedAccount",
      "type": "error"
    },
    {
      "anonymous": false,
      "inputs": [
        {
          "indexed": true,
          "internalType": "uint256",
          "name": "athleteId",
          "type": "uint256"
        },
        {
          "indexed": false,
          "internalType": "string",
          "name": "milestone",
          "type": "string"
        }
      ],
      "name": "CrossSportMilestone",
      "type": "event"
    },
    {
      "anonymous": false,
      "inputs": [
        {
          "indexed": true,
          "internalType": "uint256",
          "name": "athleteId",
          "type": "uint256"
        },
        {
          "indexed": false,
          "internalType": "uint256",
          "name": "newRank",
          "type": "uint256"
        },
        {
          "indexed": false,
          "internalType": "uint256",
          "name": "totalPoints",
          "type": "uint256"
        }
      ],
      "name": "GlobalRankUpdated",
      "type": "event"
    },
    {
      "anonymous": false,
      "inputs": [
        {
          "indexed": true,
          "internalType": "bytes32",
          "name": "role",
          "type": "bytes32"
        },
        {
          "indexed": true,
          "internalType": "bytes32",
          "name": "previousAdminRole",
          "type": "bytes32"
        },
        {
          "indexed": true,
          "internalType": "bytes32",
          "name": "newAdminRole",
          "type": "bytes32"
        }
      ],
      "name": "RoleAdminChanged",
      "type": "event"
    },
    {
      "anonymous": false,
      "inputs": [
        {
          "indexed": true,
          "internalType": "bytes32",
          "name": "role",
          "type": "bytes32"
        },
        {
          "indexed": true,
          "internalType": "address",
          "name": "account",
          "type": "address"
        },
        {
          "indexed": true,
          "internalType": "address",
          "name": "sender",
          "type": "address"
        }
      ],
      "name": "RoleGranted",
      "type": "event"
    },
    {
      "anonymous": false,
      "inputs": [
        {
          "indexed": true,
          "internalType": "bytes32",
          "name": "role",
          "type": "bytes32"
        },
        {
          "indexed": true,
          "internalType": "address",
          "name": "account",
          "type": "address"
        },
        {
          "indexed": true,
          "internalType": "address",
          "name": "sender",
          "type": "address"
        }
      ],
      "name": "RoleRevoked",
      "type": "event"
    },
    {
      "anonymous": false,
      "inputs": [
        {
          "indexed": false,
          "internalType": "enum MultiSportHub.SportType",
          "name": "sport",
          "type": "uint8"
        },
        {
          "indexed": false,
          "internalType": "string",
          "name": "name",
          "type": "string"
        }
      ],
      "name": "SportActivated",
      "type": "event"
    },
    {
      "inputs": [],
      "name": "DEFAULT_ADMIN_ROLE",
      "outputs": [
        {
          "internalType": "bytes32",
          "name": "",
          "type": "bytes32"
        }
      ],
      "stateMutability": "view",
      "type": "function"
    },
    {
      "inputs": [],
      "name": "HUB_MANAGER",
      "outputs": [
        {
          "internalType": "bytes32",
          "name": "",
          "type": "bytes32"
        }
      ],
      "stateMutability": "view",
      "type": "function"
    },
    {
      "inputs": [
        {
          "internalType": "uint256",
          "name": "",
          "type": "uint256"
        },
        {
          "internalType": "uint8",
          "name": "",
          "type": "uint8"
        }
      ],
      "name": "athleteSportPoints",
      "outputs": [
        {
          "internalType": "uint256",
          "name": "",
          "type": "uint256"
        }
      ],
      "stateMutability": "view",
      "type": "function"
    },
    {
      "inputs": [
        {
          "internalType": "uint256",
          "name": "athleteId",
          "type": "uint256"
        }
      ],
      "name": "getAthleteSportPoints",
      "outputs": [
        {
          "internalType": "uint256[8]",
          "name": "",
          "type": "uint256[8]"
        }
      ],
      "stateMutability": "view",
      "type": "function"
    },
    {
      "inputs": [
        {
          "internalType": "bytes32",
          "name": "role",
          "type": "bytes32"
        }
      ],
      "name": "getRoleAdmin",
      "outputs": [
        {
          "internalType": "bytes32",
          "name": "",
          "type": "bytes32"
        }
      ],
      "stateMutability": "view",
      "type": "function"
    },
    {
      "inputs": [
        {
          "internalType": "uint8",
          "name": "sport",
          "type": "uint8"
        }
      ],
      "name": "getSportConfig",
      "outputs": [
        {
          "components": [
            {
              "internalType": "enum MultiSportHub.SportType",
              "name": "sport",
              "type": "uint8"
            },
            {
              "internalType": "string",
              "name": "name",
              "type": "string"
            },
            {
              "internalType": "bool",
              "name": "isActive",
              "type": "bool"
            },
            {
              "internalType": "uint256",
              "name": "totalAthletes",
              "type": "uint256"
            },
            {
              "internalType": "uint256",
              "name": "totalMatches",
              "type": "uint256"
            },
            {
              "internalType": "uint256",
              "name": "totalTournaments",
              "type": "uint256"
            },
            {
              "internalType": "address",
              "name": "matchSimulatorContract",
              "type": "address"
            },
            {
              "internalType": "address",
              "name": "tournamentContract",
              "type": "address"
            },
            {
              "internalType": "uint256",
              "name": "prizePoolTotal",
              "type": "uint256"
            }
          ],
          "internalType": "struct MultiSportHub.SportConfig",
          "name": "",
          "type": "tuple"
        }
      ],
      "stateMutability": "view",
      "type": "function"
    },
    {
      "inputs": [
        {
          "internalType": "uint256",
          "name": "",
          "type": "uint256"
        }
      ],
      "name": "globalLeaderboard",
      "outputs": [
        {
          "internalType": "uint256",
          "name": "athleteId",
          "type": "uint256"
        },
        {
          "internalType": "uint256",
          "name": "totalPoints",
          "type": "uint256"
        },
        {
          "internalType": "uint256",
          "name": "totalWins",
          "type": "uint256"
        },
        {
          "internalType": "uint256",
          "name": "totalMatches",
          "type": "uint256"
        },
        {
          "internalType": "uint256",
          "name": "rank",
          "type": "uint256"
        }
      ],
      "stateMutability": "view",
      "type": "function"
    },
    {
      "inputs": [
        {
          "internalType": "bytes32",
          "name": "role",
          "type": "bytes32"
        },
        {
          "internalType": "address",
          "name": "account",
          "type": "address"
        }
      ],
      "name": "grantRole",
      "outputs": [],
      "stateMutability": "nonpayable",
      "type": "function"
    },
    {
      "inputs": [
        {
          "internalType": "bytes32",
          "name": "role",
          "type": "bytes32"
        },
        {
          "internalType": "address",
          "name": "account",
          "type": "address"
        }
      ],
      "name": "hasRole",
      "outputs": [
        {
          "internalType": "bool",
          "name": "",
          "type": "bool"
        }
      ],
      "stateMutability": "view",
      "type": "function"
    },
    {
      "inputs": [
        {
          "internalType": "uint256",
          "name": "",
          "type": "uint256"
        }
      ],
      "name": "rankedAthletes",
      "outputs": [
        {
          "internalType": "uint256",
          "name": "",
          "type": "uint256"
        }
      ],
      "stateMutability": "view",
      "type": "function"
    },
    {
      "inputs": [
        {
          "internalType": "uint256",
          "name": "athleteId",
          "type": "uint256"
        },
        {
          "internalType": "uint8",
          "name": "sport",
          "type": "uint8"
        },
        {
          "internalType": "uint256",
          "name": "points",
          "type": "uint256"
        },
        {
          "internalType": "bool",
          "name": "isMatch",
          "type": "bool"
        },
        {
          "internalType": "bool",
          "name": "isTournament",
          "type": "bool"
        }
      ],
      "name": "recordSportActivity",
      "outputs": [],
      "stateMutability": "nonpayable",
      "type": "function"
    },
    {
      "inputs": [
        {
          "internalType": "bytes32",
          "name": "role",
          "type": "bytes32"
        },
        {
          "internalType": "address",
          "name": "callerConfirmation",
          "type": "address"
        }
      ],
      "name": "renounceRole",
      "outputs": [],
      "stateMutability": "nonpayable",
      "type": "function"
    },
    {
      "inputs": [
        {
          "internalType": "bytes32",
          "name": "role",
          "type": "bytes32"
        },
        {
          "internalType": "address",
          "name": "account",
          "type": "address"
        }
      ],
      "name": "revokeRole",
      "outputs": [],
      "stateMutability": "nonpayable",
      "type": "function"
    },
    {
      "inputs": [
        {
          "internalType": "uint8",
          "name": "sport",
          "type": "uint8"
        },
        {
          "internalType": "address",
          "name": "matchSimulator",
          "type": "address"
        },
        {
          "internalType": "address",
          "name": "tournament",
          "type": "address"
        }
      ],
      "name": "setSportContracts",
      "outputs": [],
      "stateMutability": "nonpayable",
      "type": "function"
    },
    {
      "inputs": [
        {
          "internalType": "uint8",
          "name": "",
          "type": "uint8"
        }
      ],
      "name": "sportConfigs",
      "outputs": [
        {
          "internalType": "enum MultiSportHub.SportType",
          "name": "sport",
          "type": "uint8"
        },
        {
          "internalType": "string",
          "name": "name",
          "type": "string"
        },
        {
          "internalType": "bool",
          "name": "isActive",
          "type": "bool"
        },
        {
          "internalType": "uint256",
          "name": "totalAthletes",
          "type": "uint256"
        },
        {
          "internalType": "uint256",
          "name": "totalMatches",
          "type": "uint256"
        },
        {
          "internalType": "uint256",
          "name": "totalTournaments",
          "type": "uint256"
        },
        {
          "internalType": "address",
          "name": "matchSimulatorContract",
          "type": "address"
        },
        {
          "internalType": "address",
          "name": "tournamentContract",
          "type": "address"
        },
        {
          "internalType": "uint256",
          "name": "prizePoolTotal",
          "type": "uint256"
        }
      ],
      "stateMutability": "view",
      "type": "function"
    },
    {
      "inputs": [
        {
          "internalType": "bytes4",
          "name": "interfaceId",
          "type": "bytes4"
        }
      ],
      "name": "supportsInterface",
      "outputs": [
        {
          "internalType": "bool",
          "name": "",
          "type": "bool"
        }
      ],
      "stateMutability": "view",
      "type": "function"
    },
    {
      "inputs": [
        {
          "internalType": "uint8",
          "name": "",
          "type": "uint8"
        },
        {
          "internalType": "uint256",
          "name": "",
          "type": "uint256"
        }
      ],
      "name": "topAthletesBySport",
      "outputs": [
        {
          "internalType": "uint256",
          "name": "",
          "type": "uint256"
        }
      ],
      "stateMutability": "view",
      "type": "function"
    },
    {
      "inputs": [],
      "name": "totalCrossoverAthletes",
      "outputs": [
        {
          "internalType": "uint256",
          "name": "",
          "type": "uint256"
        }
      ],
      "stateMutability": "view",
      "type": "function"
    }
  ],
  "bytecode": "0x608060405234620004c957620000153362000516565b50620000213362000596565b5060405161010081016001600160401b038111828210176200048d576040526200004a620004ce565b6006815265426f78696e6760d01b6020820152815262000069620004ce565b60038152624d4d4160e81b6020820152602082015262000088620004ce565b6006815265526163696e6760d01b60208201526040820152620000aa620004ce565b600681526529b7b1b1b2b960d11b60208201526060820152620000cc620004ce565b600a81526910985cdad95d18985b1b60b21b60208201526080820152620000f2620004ce565b60078152664573706f72747360c81b602082015260a082015262000115620004ce565b600681526554656e6e697360d01b602082015260c082015262000137620004ce565b600981526857726573746c696e6760b81b602082015260e082015260005b600860ff82161015620004b9576200017160ff821683620004ee565b516040516001600160401b036101208201908111908211176200048d57610120810160405260ff8316815260208101918252600160408201526000606082015260006080820152600060a0820152600060c0820152600060e0820152600061010082015260ff8316600052600160205260406000209181516008811015620004a35760ff801985541691161783555180519060018060401b0382116200048d576001840154600181811c9116801562000482575b60208210146200046c57601f811162000420575b50602090601f8311600114620003a5579180600894926101009460009262000399575b50508160011b916000199060031b1c19161760018501555b600284016040820151151560ff80198354169116179055606081015160038501556080810151600485015560a081015160058501556006840160018060a01b03908160c0840151169060018060a01b03199182825416179055600786019160e084015116908254161790550151910155620002f360ff821683620004ee565b516040519060ff831682526040602083015280519081604084015260005b8281106200038257505090606081836000837fec6e310d41efc50e4c09c2293048a28c2b568ee884612afe517a30174ac6c09d9684010152601f80199101168101030190a160ff8091169081146200036c5760010162000155565b634e487b7160e01b600052601160045260246000fd5b806020809284010151606082870101520162000311565b0151905038806200025c565b906001850160005260206000209160005b601f198516811062000407575092600894926001926101009583601f19811610620003ed575b505050811b01600185015562000274565b015160001960f88460031b161c19169055388080620003dc565b81830151845560019093019260209283019201620003b6565b600185016000526020600020601f840160051c81016020851062000464575b601f830160051c820181106200045757505062000239565b600081556001016200043f565b50806200043f565b634e487b7160e01b600052602260045260246000fd5b90607f169062000225565b634e487b7160e01b600052604160045260246000fd5b634e487b7160e01b600052602160045260246000fd5b60405161107d9081620006398239f35b600080fd5b60408051919082016001600160401b038111838210176200048d57604052565b906008811015620005005760051b0190565b634e487b7160e01b600052603260045260246000fd5b6001600160a01b031660008181527fad3228b676f7d3cd4284a5443f17f1962b36e491b30a40b2405849e597ba5fb5602052604081205490919060ff166200059257818052816020526040822081835260205260408220600160ff198254161790553391600080516020620016b68339815191528180a4600190565b5090565b6001600160a01b031660008181527f1c3029bde9e9618171a867c838bb051f78d6f9856436292ff4097466e88a051960205260408120549091907f3c30a9a68e194b43e8cfff13b8599e852a765f220d828e321ba1620c3e5c21af9060ff166200063357808352826020526040832082845260205260408320600160ff19825416179055600080516020620016b6833981519152339380a4600190565b50509056fe608060408181526004908136101561001657600080fd5b600092833560e01c90816301ffc9a714610ac457508063173cfb9f14610926578063248a9ca3146108fc57806329b726cf146108ae5780632f2ff15d14610886578063330ab49a1461083157806336568abe146107c45780633d980ccc146107a55780635bf8865c146106bd578063611dd59f146103c25780637ecf65ae1461038757806391d1485414610335578063a217fddf1461031a578063c121bd74146102e0578063c41ac54314610216578063d547741f146101d9578063df1ccdf5146101905763f3e7102f146100ea57600080fd5b3461018c576020908160031936011261018857805193833561010b86610c91565b610100809636903782519361011f85610c91565b86368637825b60ff8116600881101561015e579061015991848652888452868620908652835285852054611fe08260051b16880152611036565b610125565b85518990888588835b60088210610173578585f35b82806001928651815201940191019092610167565b8380fd5b8280fd5b8382346101d557806003193601126101d5576101aa610b63565b60ff602435911683526003602052818320805482101561018857835260209283902001549051908152f35b5080fd5b503461018c578060031936011261018c57610212913561020d60016101fc610c22565b938387528660205286200154610e25565b610f2c565b5080f35b50903461018c57602060031936011261018c57816102a59360ff610238610b63565b1681526001602052209160ff8354169261025460018201610cae565b9160ff6002830154169360038301549083015460058401549173ffffffffffffffffffffffffffffffffffffffff936102b6600886600689015416966007890154169701549782519b8c809c610b88565b6101208060208d01528b0190610bc4565b971515908901526060880152608087015260a086015260c085015260e08401526101008301520390f35b50903461018c578160031936011261018c5760209282916102ff610b78565b9080358352855260ff83832091168252845220549051908152f35b8382346101d557816003193601126101d55751908152602090f35b50903461018c578160031936011261018c578160209360ff92610356610c22565b9035825281865273ffffffffffffffffffffffffffffffffffffffff83832091168252855220541690519015158152f35b8382346101d557816003193601126101d557602090517f3c30a9a68e194b43e8cfff13b8599e852a765f220d828e321ba1620c3e5c21af8152f35b508290346101d55760a06003193601126101d5578235906103e1610b78565b936044356064359182151583036106b9576084359687151588036106b5577f3c30a9a68e194b43e8cfff13b8599e852a765f220d828e321ba1620c3e5c21af97888852602094888652868920338a52865260ff998a888b2054161561067f575087895283865289878a20931692838a528652868920610461868254610fcd565b9055610662575b610644575b50848652600283528386209085825561048c6001809301938454610fcd565b80935586978288905b6105f7575b5050505060088660037f31db643e8f3dbd2fa41afcad46c10ff7b7cccd34a1fa2108e8f40ce5d0e8e4e99697981461059d575b60058114610543575b146104e9575b825191868352820152a280f35b847ff4f5e067198b38a2ff0b96c5ee394158537acdf312e70c8eb445c6e355b84cd060608551858152600c868201527f4f6d6e69204174686c657465000000000000000000000000000000000000000087820152a26104dc565b867ff4f5e067198b38a2ff0b96c5ee394158537acdf312e70c8eb445c6e355b84cd0606087518781526013888201527f52656e61697373616e6365204174686c6574650000000000000000000000000089820152a26104d6565b867ff4f5e067198b38a2ff0b96c5ee394158537acdf312e70c8eb445c6e355b84cd060608751878152600d888201527f547269706c65205468726561740000000000000000000000000000000000000089820152a26104cd565b818116600881101561063e57888a52838752878a20908a52865286892054610629575b61062390611036565b83610495565b9861063661062391611009565b99905061061a565b5061049a565b86526001835260058487200161065a8154611009565b90558761046d565b8188526001855282868920016106788154611009565b9055610468565b846044918951917fe2517d3f00000000000000000000000000000000000000000000000000000000835233908301526024820152fd5b8680fd5b8580fd5b50903461018c57606060031936011261018c576106d8610b63565b906106e1610c22565b926044359273ffffffffffffffffffffffffffffffffffffffff928385168095036106b5578680528660205282872033885260205260ff83882054161561076f57509060ff60079392168652600160205285209060068201907fffffffffffffffffffffffff0000000000000000000000000000000000000000951685825416179055019182541617905580f35b604490878451917fe2517d3f00000000000000000000000000000000000000000000000000000000835233908301526024820152fd5b8382346101d557816003193601126101d5576020906005549051908152f35b508290346101d557806003193601126101d5576107df610c22565b903373ffffffffffffffffffffffffffffffffffffffff8316036108095750610212919235610f2c565b8390517f6697b232000000000000000000000000000000000000000000000000000000008152fd5b50903461018c57602060031936011261018c5760a09282913581526002602052209081549160018101549160028201549060056003840154930154938151958652602086015284015260608301526080820152f35b503461018c578060031936011261018c5761021291356108a960016101fc610c22565b610e82565b50903461018c57602060031936011261018c573560065481101561018c576006602093527ff652222313e28459528d920b65115c16c04f3efc82aaedc97be59f3f377c0d3f01549051908152f35b50903461018c57602060031936011261018c57816020936001923581528085522001549051908152f35b50903461018c576020918260031936011261018857610943610b63565b60ff82519161095183610c45565b86835260608684015286848401528660608401528660808401528660a08401528660c08401528660e084015286610100809401521685526001845281852082519561099b87610c45565b60ff825416906008821015610a98575086528591906109bc60018201610cae565b90868401918252600281015460ff16958585019615158752600382015490606086019182528201549260808601938452600583015460a0870190815273ffffffffffffffffffffffffffffffffffffffff948593846006870154169360c08a0194855288866007890154169760e08c01988952600801549a01998a528a519d8d8f9e8f90815201905190610a4f91610b88565b518c6101209b8c9101526101408d01610a6791610bc4565b9a51151560608d01525160808c01525160a08b01525160c08a0152511660e088015251169085015251908301520390f35b806021877f4e487b71000000000000000000000000000000000000000000000000000000006024945252fd5b8490843461018c57602060031936011261018c57357fffffffff00000000000000000000000000000000000000000000000000000000811680910361018c57602092507f7965db0b000000000000000000000000000000000000000000000000000000008114908115610b39575b5015158152f35b7f01ffc9a70000000000000000000000000000000000000000000000000000000091501483610b32565b6004359060ff82168203610b7357565b600080fd5b6024359060ff82168203610b7357565b906008821015610b955752565b7f4e487b7100000000000000000000000000000000000000000000000000000000600052602160045260246000fd5b919082519283825260005b848110610c0e5750507fffffffffffffffffffffffffffffffffffffffffffffffffffffffffffffffe0601f8460006020809697860101520116010190565b602081830181015184830182015201610bcf565b6024359073ffffffffffffffffffffffffffffffffffffffff82168203610b7357565b610120810190811067ffffffffffffffff821117610c6257604052565b7f4e487b7100000000000000000000000000000000000000000000000000000000600052604160045260246000fd5b610100810190811067ffffffffffffffff821117610c6257604052565b906040519060008354600181811c90808316968715610e1b575b6020938484108914610dee57879884899899529081600014610d915750600114610d31575b5050505003601f017fffffffffffffffffffffffffffffffffffffffffffffffffffffffffffffffe016820167ffffffffffffffff811183821017610c6257604052565b600090815283812093959450925b828410610d7b57505050907fffffffffffffffffffffffffffffffffffffffffffffffffffffffffffffffe092601f9282010191819338610ced565b8054888501870152879450928501928101610d3f565b7fffffffffffffffffffffffffffffffffffffffffffffffffffffffffffffff001685880152505050151560051b830101905081601f7fffffffffffffffffffffffffffffffffffffffffffffffffffffffffffffffe038610ced565b6024867f4e487b710000000000000000000000000000000000000000000000000000000081526022600452fd5b91607f1691610cc8565b80600052600060205260406000203360005260205260ff6040600020541615610e4b5750565b604490604051907fe2517d3f0000000000000000000000000000000000000000000000000000000082523360048301526024820152fd5b906000918083528260205273ffffffffffffffffffffffffffffffffffffffff6040842092169182845260205260ff60408420541615600014610f275780835282602052604083208284526020526040832060017fffffffffffffffffffffffffffffffffffffffffffffffffffffffffffffff008254161790557f2f8788117e7eff1d82e926ec794901d17c78024a50270940304540a733656f0d339380a4600190565b505090565b906000918083528260205273ffffffffffffffffffffffffffffffffffffffff6040842092169182845260205260ff604084205416600014610f27578083528260205260408320828452602052604083207fffffffffffffffffffffffffffffffffffffffffffffffffffffffffffffff0081541690557ff6391f5c32d9c69d2a47ea670b442974b53935d1edc7fd64eb21e047a839171b339380a4600190565b91908201809211610fda57565b7f4e487b7100000000000000000000000000000000000000000000000000000000600052601160045260246000fd5b7fffffffffffffffffffffffffffffffffffffffffffffffffffffffffffffffff8114610fda5760010190565b60ff1660ff8114610fda576001019056fea2646970667358221220c3d051968daf7e1fd153bb784d5c23245228e352244a748b343a95d2a510bd3264736f6c634300081400332f8788117e7eff1d82e926ec794901d17c78024a50270940304540a733656f0d",
  "linkReferences": {},
  "deployedLinkReferences": {}
}