{
  "_format": "hh-sol-artifact-1",
  "contractName": "TalentMarketplace",
  "sourceName": "contracts/layer4/talent/TalentMarketplace.sol",
  "abi": [
    {
      "inputs": [],
      "stateMutability": "nonpayable",
      "type": "constructor"
    },
    {
      "inputs": [
        {
          "internalType": "address",
          "name": "owner",
          "type": "address"
        }
      ],
      "name": "OwnableInvalidOwner",
      "type": "error"
    },
    {
      "inputs": [
        {
          "internalType": "address",
          "name": "account",
          "type": "address"
        }
      ],
      "name": "OwnableUnauthorizedAccount",
      "type": "error"
    },
    {
      "inputs": [],
      "name": "ReentrancyGuardReentrantCall",
      "type": "error"
    },
    {
      "anonymous": false,
      "inputs": [
        {
          "indexed": true,
          "internalType": "uint256",
          "name": "bookingId",
          "type": "uint256"
        }
      ],
      "name": "BookingCompleted",
      "type": "event"
    },
    {
      "anonymous": false,
      "inputs": [
        {
          "indexed": true,
          "internalType": "address",
          "name": "previousOwner",
          "type": "address"
        },
        {
          "indexed": true,
          "internalType": "address",
          "name": "newOwner",
          "type": "address"
        }
      ],
      "name": "OwnershipTransferred",
      "type": "event"
    },
    {
      "anonymous": false,
      "inputs": [
        {
          "indexed": true,
          "internalType": "uint256",
          "name": "bookingId",
          "type": "uint256"
        },
        {
          "indexed": true,
          "internalType": "uint256",
          "name": "listingId",
          "type": "uint256"
        },
        {
          "indexed": false,
          "internalType": "uint256",
          "name": "movieId",
          "type": "uint256"
        },
        {
          "indexed": false,
          "internalType": "uint256",
          "name": "fee",
          "type": "uint256"
        }
      ],
      "name": "TalentBooked",
      "type": "event"
    },
    {
      "anonymous": false,
      "inputs": [
        {
          "indexed": true,
          "internalType": "uint256",
          "name": "listingId",
          "type": "uint256"
        },
        {
          "indexed": false,
          "internalType": "enum TalentMarketplace.TalentType",
          "name": "talentType",
          "type": "uint8"
        },
        {
          "indexed": false,
          "internalType": "uint256",
          "name": "talentId",
          "type": "uint256"
        },
        {
          "indexed": false,
          "internalType": "uint256",
          "name": "rate",
          "type": "uint256"
        }
      ],
      "name": "TalentListed",
      "type": "event"
    },
    {
      "inputs": [
        {
          "internalType": "uint256",
          "name": "listingId",
          "type": "uint256"
        },
        {
          "internalType": "uint256",
          "name": "movieId",
          "type": "uint256"
        },
        {
          "internalType": "uint256",
          "name": "durationDays",
          "type": "uint256"
        }
      ],
      "name": "bookTalent",
      "outputs": [
        {
          "internalType": "uint256",
          "name": "",
          "type": "uint256"
        }
      ],
      "stateMutability": "payable",
      "type": "function"
    },
    {
      "inputs": [],
      "name": "bookingCount",
      "outputs": [
        {
          "internalType": "uint256",
          "name": "",
          "type": "uint256"
        }
      ],
      "stateMutability": "view",
      "type": "function"
    },
    {
      "inputs": [
        {
          "internalType": "uint256",
          "name": "",
          "type": "uint256"
        }
      ],
      "name": "bookings",
      "outputs": [
        {
          "internalType": "uint256",
          "name": "bookingId",
          "type": "uint256"
        },
        {
          "internalType": "uint256",
          "name": "listingId",
          "type": "uint256"
        },
        {
          "internalType": "uint256",
          "name": "movieId",
          "type": "uint256"
        },
        {
          "internalType": "address",
          "name": "producer",
          "type": "address"
        },
        {
          "internalType": "uint256",
          "name": "fee",
          "type": "uint256"
        },
        {
          "internalType": "uint256",
          "name": "startDate",
          "type": "uint256"
        },
        {
          "internalType": "uint256",
          "name": "endDate",
          "type": "uint256"
        },
        {
          "internalType": "enum TalentMarketplace.BookingStatus",
          "name": "status",
          "type": "uint8"
        }
      ],
      "stateMutability": "view",
      "type": "function"
    },
    {
      "inputs": [
        {
          "internalType": "uint256",
          "name": "bookingId",
          "type": "uint256"
        }
      ],
      "name": "completeBooking",
      "outputs": [],
      "stateMutability": "nonpayable",
      "type": "function"
    },
    {
      "inputs": [
        {
          "internalType": "uint256",
          "name": "bookingId",
          "type": "uint256"
        }
      ],
      "name": "getBooking",
      "outputs": [
        {
          "components": [
            {
              "internalType": "uint256",
              "name": "bookingId",
              "type": "uint256"
            },
            {
              "internalType": "uint256",
              "name": "listingId",
              "type": "uint256"
            },
            {
              "internalType": "uint256",
              "name": "movieId",
              "type": "uint256"
            },
            {
              "internalType": "address",
              "name": "producer",
              "type": "address"
            },
            {
              "internalType": "uint256",
              "name": "fee",
              "type": "uint256"
            },
            {
              "internalType": "uint256",
              "name": "startDate",
              "type": "uint256"
            },
            {
              "internalType": "uint256",
              "name": "endDate",
              "type": "uint256"
            },
            {
              "internalType": "enum TalentMarketplace.BookingStatus",
              "name": "status",
              "type": "uint8"
            }
          ],
          "internalType": "struct TalentMarketplace.Booking",
          "name": "",
          "type": "tuple"
        }
      ],
      "stateMutability": "view",
      "type": "function"
    },
    {
      "inputs": [
        {
          "internalType": "uint256",
          "name": "listingId",
          "type": "uint256"
        }
      ],
      "name": "getListing",
      "outputs": [
        {
          "components": [
            {
              "internalType": "uint256",
              "name": "listingId",
              "type": "uint256"
            },
            {
              "internalType": "enum TalentMarketplace.TalentType",
              "name": "talentType",
              "type": "uint8"
            },
            {
              "internalType": "uint256",
              "name": "talentId",
              "type": "uint256"
            },
            {
              "internalType": "address",
              "name": "owner",
              "type": "address"
            },
            {
              "internalType": "uint256",
              "name": "rate",
              "type": "uint256"
            },
            {
              "internalType": "bool",
              "name": "exclusive",
              "type": "bool"
            },
            {
              "internalType": "bool",
              "name": "available",
              "type": "bool"
            },
            {
              "internalType": "uint256",
              "name": "minProjectBudget",
              "type": "uint256"
            },
            {
              "internalType": "uint256",
              "name": "totalBookings",
              "type": "uint256"
            }
          ],
          "internalType": "struct TalentMarketplace.TalentListing",
          "name": "",
          "type": "tuple"
        }
      ],
      "stateMutability": "view",
      "type": "function"
    },
    {
      "inputs": [
        {
          "internalType": "enum TalentMarketplace.TalentType",
          "name": "talentType",
          "type": "uint8"
        },
        {
          "internalType": "uint256",
          "name": "talentId",
          "type": "uint256"
        },
        {
          "internalType": "uint256",
          "name": "rate",
          "type": "uint256"
        },
        {
          "internalType": "bool",
          "name": "exclusive",
          "type": "bool"
        },
        {
          "internalType": "uint256",
          "name": "minProjectBudget",
          "type": "uint256"
        }
      ],
      "name": "listTalent",
      "outputs": [
        {
          "internalType": "uint256",
          "name": "",
          "type": "uint256"
        }
      ],
      "stateMutability": "nonpayable",
      "type": "function"
    },
    {
      "inputs": [],
      "name": "listingCount",
      "outputs": [
        {
          "internalType": "uint256",
          "name": "",
          "type": "uint256"
        }
      ],
      "stateMutability": "view",
      "type": "function"
    },
    {
      "inputs": [
        {
          "internalType": "uint256",
          "name": "",
          "type": "uint256"
        }
      ],
      "name": "listings",
      "outputs": [
        {
          "internalType": "uint256",
          "name": "listingId",
          "type": "uint256"
        },
        {
          "internalType": "enum TalentMarketplace.TalentType",
          "name": "talentType",
          "type": "uint8"
        },
        {
          "internalType": "uint256",
          "name": "talentId",
          "type": "uint256"
        },
        {
          "internalType": "address",
          "name": "owner",
          "type": "address"
        },
        {
          "internalType": "uint256",
          "name": "rate",
          "type": "uint256"
        },
        {
          "internalType": "bool",
          "name": "exclusive",
          "type": "bool"
        },
        {
          "internalType": "bool",
          "name": "available",
          "type": "bool"
        },
        {
          "internalType": "uint256",
          "name": "minProjectBudget",
          "type": "uint256"
        },
        {
          "internalType": "uint256",
          "name": "totalBookings",
          "type": "uint256"
        }
      ],
      "stateMutability": "view",
      "type": "function"
    },
    {
      "inputs": [],
      "name": "owner",
      "outputs": [
        {
          "internalType": "address",
          "name": "",
          "type": "address"
        }
      ],
      "stateMutability": "view",
      "type": "function"
    },
    {
      "inputs": [],
      "name": "platformFee",
      "outputs": [
        {
          "internalType": "uint256",
          "name": "",
          "type": "uint256"
        }
      ],
      "stateMutability": "view",
      "type": "function"
    },
    {
      "inputs": [],
      "name": "renounceOwnership",
      "outputs": [],
      "stateMutability": "nonpayable",
      "type": "function"
    },
    {
      "inputs": [
        {
          "internalType": "address",
          "name": "newOwner",
          "type": "address"
        }
      ],
      "name": "transferOwnership",
      "outputs": [],
      "stateMutability": "nonpayable",
      "type": "function"
    },
    {
      "inputs": [
        {
          "internalType": "uint256",
          "name": "listingId",
          "type": "uint256"
        },
        {
          "internalType": "uint256",
          "name": "newRate",
          "type": "uint256"
        },
        {
          "internalType": "bool",
          "name": "available",
          "type": "bool"
        }
      ],
      "name": "updateListing",
      "outputs": [],
      "stateMutability": "nonpayable",
      "type": "function"
    }
  ],
  "bytecode": "0x608060405260fa60065534801561001557600080fd5b50338061003c57604051631e4fbdf760e01b81526000600482015260240160405180910390fd5b6100458161004f565b506001805561009f565b600080546001600160a01b038381166001600160a01b0319831681178455604051919092169283917f8be0079c531659141344cd1fd0a4f28419497f9722a3daafe3b4186f6b6457e09190a35050565b611058806100ae6000396000f3fe6080604052600436106100dd5760003560e01c80636d7591721161007f578063a9b07c2611610059578063a9b07c2614610293578063dda12b4b146102a9578063de74e57b146102c9578063f2fde38b1461035957600080fd5b80636d75917214610240578063715018a6146102565780638da5cb5b1461026b57600080fd5b80631e88aaea116100bb5780631e88aaea146101bc57806326232a2e146101ea578063508dad46146102005780636a5c841a1461021357600080fd5b8063107a274a146100e25780631a2b3431146101185780631dab301e1461013a575b600080fd5b3480156100ee57600080fd5b506101026100fd366004610c95565b610379565b60405161010f9190610cd8565b60405180910390f35b34801561012457600080fd5b50610138610133366004610c95565b610475565b005b34801561014657600080fd5b506101a8610155366004610c95565b6003602081905260009182526040909120805460018201546002830154938301546004840154600585015460068601546007909601549496939593946001600160a01b0390931693919290919060ff1688565b60405161010f989796959493929190610d67565b3480156101c857600080fd5b506101dc6101d7366004610dd0565b61059f565b60405190815260200161010f565b3480156101f657600080fd5b506101dc60065481565b6101dc61020e366004610e24565b61072b565b34801561021f57600080fd5b5061023361022e366004610c95565b610a19565b60405161010f9190610e50565b34801561024c57600080fd5b506101dc60055481565b34801561026257600080fd5b50610138610ac2565b34801561027757600080fd5b506000546040516001600160a01b03909116815260200161010f565b34801561029f57600080fd5b506101dc60045481565b3480156102b557600080fd5b506101386102c4366004610eba565b610ad6565b3480156102d557600080fd5b506103446102e4366004610c95565b600260208190526000918252604090912080546001820154928201546003830154600484015460058501546006860154600790960154949660ff9081169694956001600160a01b0390941694929382821693610100909304909116919089565b60405161010f99989796959493929190610eef565b34801561036557600080fd5b50610138610374366004610f46565b610b52565b6040805161012081018252600080825260208201819052918101829052606081018290526080810182905260a0810182905260c0810182905260e0810182905261010081019190915260008281526002602090815260409182902082516101208101909352805483526001810154909183019060ff16600481111561040057610400610cae565b600481111561041157610411610cae565b81526002820154602082015260038201546001600160a01b0316604082015260048201546060820152600582015460ff8082161515608084015261010090910416151560a0820152600682015460c082015260079091015460e09091015292915050565b6000818152600360208190526040909120908101546001600160a01b031633146104d55760405162461bcd60e51b815260206004820152600c60248201526b2737ba10383937b23ab1b2b960a11b60448201526064015b60405180910390fd5b6001600782015460ff1660038111156104f0576104f0610cae565b1461052a5760405162461bcd60e51b815260206004820152600a6024820152694e6f742061637469766560b01b60448201526064016104cc565b60078101805460ff191660029081179091556001820154600090815260209190915260409020600581015460ff161561056f5760058101805461ff0019166101001790555b60405183907fe70f5cb5ecde9644c195a97cf45a506de023d1d170cd972f04441fafd993f15090600090a2505050565b60048054600091826105b083610f85565b9190505550600060045490506040518061012001604052808281526020018860048111156105e0576105e0610cae565b8152602001878152602001336001600160a01b0316815260200186815260200185151581526020016001151581526020018481526020016000815250600260008381526020019081526020016000206000820151816000015560208201518160010160006101000a81548160ff0219169083600481111561066357610663610cae565b0217905550604082810151600283015560608301516003830180546001600160a01b0319166001600160a01b039092169190911790556080830151600483015560a083015160058301805460c086015161ffff1990911692151561ff00191692909217610100921515830217905560e08401516006840155909201516007909101555181907f93b27249b9fd0dbfd202429d49121a45070ad257ace9f29d6fb320497bd88b1e90610719908a908a908a90610f9e565b60405180910390a29695505050505050565b6000610735610b90565b60008481526002602052604090206005810154610100900460ff1661078c5760405162461bcd60e51b815260206004820152600d60248201526c4e6f7420617661696c61626c6560981b60448201526064016104cc565b600083826004015461079e9190610fbd565b9050803410156107e75760405162461bcd60e51b8152602060048201526014602482015273125b9cdd59999a58da595b9d081c185e5b595b9d60621b60448201526064016104cc565b600580549060006107f783610f85565b9091555050600554604080516101008101825282815260208101899052908101879052336060820152608081018390524260a082015260c0810161083e8762015180610fbd565b6108489042610fda565b81526001602091820181905260008481526003808452604091829020855181559385015184840155908401516002840155606084015183820180546001600160a01b0319166001600160a01b039092169190911790556080840151600484015560a0840151600584015560c0840151600684015560e08401516007840180549193909260ff199092169184908111156108e3576108e3610cae565b02179055505050600583015460ff16156109055760058301805461ff00191690555b60078301805490600061091783610f85565b919050555060006127106006548461092f9190610fbd565b6109399190610fed565b90506000610947828561100f565b60038601546040519192506001600160a01b03169082156108fc029083906000818181858888f19350505050158015610984573d6000803e3d6000fd5b50833411156109c557336108fc61099b863461100f565b6040518115909202916000818181858888f193505050501580156109c3573d6000803e3d6000fd5b505b60408051898152602081018690528a9185917fb4e3ca637013414856d88cd9e244f1e342c3abd5775c979354af0c1b84378f59910160405180910390a350909350505050610a1260018055565b9392505050565b610a21610c37565b60008281526003602081815260409283902083516101008101855281548152600182015492810192909252600281015493820193909352828201546001600160a01b0316606082015260048301546080820152600583015460a0820152600683015460c0820152600783015490929160e084019160ff1690811115610aa857610aa8610cae565b6003811115610ab957610ab9610cae565b90525092915050565b610aca610bba565b610ad46000610be7565b565b600083815260026020526040902060038101546001600160a01b03163314610b2c5760405162461bcd60e51b81526020600482015260096024820152682737ba1037bbb732b960b91b60448201526064016104cc565b6004810192909255600590910180549115156101000261ff001990921691909117905550565b610b5a610bba565b6001600160a01b038116610b8457604051631e4fbdf760e01b8152600060048201526024016104cc565b610b8d81610be7565b50565b600260015403610bb357604051633ee5aeb560e01b815260040160405180910390fd5b6002600155565b6000546001600160a01b03163314610ad45760405163118cdaa760e01b81523360048201526024016104cc565b600080546001600160a01b038381166001600160a01b0319831681178455604051919092169283917f8be0079c531659141344cd1fd0a4f28419497f9722a3daafe3b4186f6b6457e09190a35050565b60405180610100016040528060008152602001600081526020016000815260200160006001600160a01b0316815260200160008152602001600081526020016000815260200160006003811115610c9057610c90610cae565b905290565b600060208284031215610ca757600080fd5b5035919050565b634e487b7160e01b600052602160045260246000fd5b60058110610cd457610cd4610cae565b9052565b81518152602080830151610120830191610cf490840182610cc4565b506040830151604083015260018060a01b0360608401511660608301526080830151608083015260a0830151151560a083015260c0830151610d3a60c084018215159052565b5060e083015160e083015261010080840151818401525092915050565b60048110610cd457610cd4610cae565b88815260208101889052604081018790526001600160a01b03861660608201526080810185905260a0810184905260c081018390526101008101610dae60e0830184610d57565b9998505050505050505050565b80358015158114610dcb57600080fd5b919050565b600080600080600060a08688031215610de857600080fd5b853560058110610df757600080fd5b94506020860135935060408601359250610e1360608701610dbb565b949793965091946080013592915050565b600080600060608486031215610e3957600080fd5b505081359360208301359350604090920135919050565b60006101008201905082518252602083015160208301526040830151604083015260018060a01b0360608401511660608301526080830151608083015260a083015160a083015260c083015160c083015260e0830151610eb360e0840182610d57565b5092915050565b600080600060608486031215610ecf57600080fd5b8335925060208401359150610ee660408501610dbb565b90509250925092565b8981526101208101610f04602083018b610cc4565b60408201989098526001600160a01b03969096166060870152608086019490945291151560a0850152151560c084015260e08301526101009091015292915050565b600060208284031215610f5857600080fd5b81356001600160a01b0381168114610a1257600080fd5b634e487b7160e01b600052601160045260246000fd5b600060018201610f9757610f97610f6f565b5060010190565b60608101610fac8286610cc4565b602082019390935260400152919050565b8082028115828204841417610fd457610fd4610f6f565b92915050565b80820180821115610fd457610fd4610f6f565b60008261100a57634e487b7160e01b600052601260045260246000fd5b500490565b81810381811115610fd457610fd4610f6f56fea264697066735822122061132208adc112c39d6eb6504f46f1dba3be5246d2564ca138d8ea9b6af9abbb64736f6c63430008140033",
  "linkReferences": {},
  "deployedLinkReferences": {}
}