{
  "_format": "hh-sol-artifact-1",
  "contractName": "RevenueDistribution",
  "sourceName": "contracts/layer4/rights/RevenueDistribution.sol",
  "abi": [
    {
      "inputs": [],
      "stateMutability": "nonpayable",
      "type": "constructor"
    },
    {
      "inputs": [
        {
          "internalType": "address",
          "name": "owner",
          "type": "address"
        }
      ],
      "name": "OwnableInvalidOwner",
      "type": "error"
    },
    {
      "inputs": [
        {
          "internalType": "address",
          "name": "account",
          "type": "address"
        }
      ],
      "name": "OwnableUnauthorizedAccount",
      "type": "error"
    },
    {
      "inputs": [],
      "name": "ReentrancyGuardReentrantCall",
      "type": "error"
    },
    {
      "anonymous": false,
      "inputs": [
        {
          "indexed": true,
          "internalType": "address",
          "name": "previousOwner",
          "type": "address"
        },
        {
          "indexed": true,
          "internalType": "address",
          "name": "newOwner",
          "type": "address"
        }
      ],
      "name": "OwnershipTransferred",
      "type": "event"
    },
    {
      "anonymous": false,
      "inputs": [
        {
          "indexed": true,
          "internalType": "uint256",
          "name": "streamId",
          "type": "uint256"
        },
        {
          "indexed": false,
          "internalType": "uint256",
          "name": "paymentId",
          "type": "uint256"
        },
        {
          "indexed": false,
          "internalType": "uint256",
          "name": "amount",
          "type": "uint256"
        }
      ],
      "name": "RevenueDistributed",
      "type": "event"
    },
    {
      "anonymous": false,
      "inputs": [
        {
          "indexed": true,
          "internalType": "uint256",
          "name": "streamId",
          "type": "uint256"
        },
        {
          "indexed": false,
          "internalType": "uint256",
          "name": "amount",
          "type": "uint256"
        },
        {
          "indexed": true,
          "internalType": "address",
          "name": "payer",
          "type": "address"
        }
      ],
      "name": "RevenueReceived",
      "type": "event"
    },
    {
      "anonymous": false,
      "inputs": [
        {
          "indexed": true,
          "internalType": "uint256",
          "name": "streamId",
          "type": "uint256"
        },
        {
          "indexed": true,
          "internalType": "uint256",
          "name": "assetId",
          "type": "uint256"
        }
      ],
      "name": "StreamCreated",
      "type": "event"
    },
    {
      "anonymous": false,
      "inputs": [
        {
          "indexed": true,
          "internalType": "address",
          "name": "recipient",
          "type": "address"
        },
        {
          "indexed": false,
          "internalType": "uint256",
          "name": "amount",
          "type": "uint256"
        }
      ],
      "name": "WithdrawalMade",
      "type": "event"
    },
    {
      "inputs": [
        {
          "internalType": "uint256",
          "name": "mediaAssetId",
          "type": "uint256"
        },
        {
          "internalType": "address[]",
          "name": "recipients",
          "type": "address[]"
        },
        {
          "internalType": "uint256[]",
          "name": "shares",
          "type": "uint256[]"
        }
      ],
      "name": "createRevenueStream",
      "outputs": [
        {
          "internalType": "uint256",
          "name": "",
          "type": "uint256"
        }
      ],
      "stateMutability": "nonpayable",
      "type": "function"
    },
    {
      "inputs": [
        {
          "internalType": "uint256",
          "name": "streamId",
          "type": "uint256"
        }
      ],
      "name": "getPayments",
      "outputs": [
        {
          "components": [
            {
              "internalType": "uint256",
              "name": "paymentId",
              "type": "uint256"
            },
            {
              "internalType": "uint256",
              "name": "streamId",
              "type": "uint256"
            },
            {
              "internalType": "address",
              "name": "payer",
              "type": "address"
            },
            {
              "internalType": "uint256",
              "name": "amount",
              "type": "uint256"
            },
            {
              "internalType": "uint256",
              "name": "timestamp",
              "type": "uint256"
            },
            {
              "internalType": "bool",
              "name": "distributed",
              "type": "bool"
            }
          ],
          "internalType": "struct RevenueDistribution.Payment[]",
          "name": "",
          "type": "tuple[]"
        }
      ],
      "stateMutability": "view",
      "type": "function"
    },
    {
      "inputs": [
        {
          "internalType": "uint256",
          "name": "streamId",
          "type": "uint256"
        }
      ],
      "name": "getStream",
      "outputs": [
        {
          "internalType": "uint256",
          "name": "mediaAssetId",
          "type": "uint256"
        },
        {
          "internalType": "address[]",
          "name": "recipients",
          "type": "address[]"
        },
        {
          "internalType": "uint256[]",
          "name": "shares",
          "type": "uint256[]"
        },
        {
          "internalType": "uint256",
          "name": "totalCollected",
          "type": "uint256"
        },
        {
          "internalType": "uint256",
          "name": "totalDistributed",
          "type": "uint256"
        }
      ],
      "stateMutability": "view",
      "type": "function"
    },
    {
      "inputs": [],
      "name": "owner",
      "outputs": [
        {
          "internalType": "address",
          "name": "",
          "type": "address"
        }
      ],
      "stateMutability": "view",
      "type": "function"
    },
    {
      "inputs": [
        {
          "internalType": "address",
          "name": "",
          "type": "address"
        }
      ],
      "name": "pendingWithdrawals",
      "outputs": [
        {
          "internalType": "uint256",
          "name": "",
          "type": "uint256"
        }
      ],
      "stateMutability": "view",
      "type": "function"
    },
    {
      "inputs": [],
      "name": "platformFee",
      "outputs": [
        {
          "internalType": "uint256",
          "name": "",
          "type": "uint256"
        }
      ],
      "stateMutability": "view",
      "type": "function"
    },
    {
      "inputs": [
        {
          "internalType": "uint256",
          "name": "streamId",
          "type": "uint256"
        }
      ],
      "name": "receivePayment",
      "outputs": [],
      "stateMutability": "payable",
      "type": "function"
    },
    {
      "inputs": [],
      "name": "renounceOwnership",
      "outputs": [],
      "stateMutability": "nonpayable",
      "type": "function"
    },
    {
      "inputs": [],
      "name": "streamCount",
      "outputs": [
        {
          "internalType": "uint256",
          "name": "",
          "type": "uint256"
        }
      ],
      "stateMutability": "view",
      "type": "function"
    },
    {
      "inputs": [
        {
          "internalType": "uint256",
          "name": "",
          "type": "uint256"
        },
        {
          "internalType": "uint256",
          "name": "",
          "type": "uint256"
        }
      ],
      "name": "streamPayments",
      "outputs": [
        {
          "internalType": "uint256",
          "name": "paymentId",
          "type": "uint256"
        },
        {
          "internalType": "uint256",
          "name": "streamId",
          "type": "uint256"
        },
        {
          "internalType": "address",
          "name": "payer",
          "type": "address"
        },
        {
          "internalType": "uint256",
          "name": "amount",
          "type": "uint256"
        },
        {
          "internalType": "uint256",
          "name": "timestamp",
          "type": "uint256"
        },
        {
          "internalType": "bool",
          "name": "distributed",
          "type": "bool"
        }
      ],
      "stateMutability": "view",
      "type": "function"
    },
    {
      "inputs": [
        {
          "internalType": "uint256",
          "name": "",
          "type": "uint256"
        }
      ],
      "name": "streams",
      "outputs": [
        {
          "internalType": "uint256",
          "name": "streamId",
          "type": "uint256"
        },
        {
          "internalType": "uint256",
          "name": "mediaAssetId",
          "type": "uint256"
        },
        {
          "internalType": "uint256",
          "name": "totalCollected",
          "type": "uint256"
        },
        {
          "internalType": "uint256",
          "name": "totalDistributed",
          "type": "uint256"
        },
        {
          "internalType": "bool",
          "name": "active",
          "type": "bool"
        }
      ],
      "stateMutability": "view",
      "type": "function"
    },
    {
      "inputs": [
        {
          "internalType": "address",
          "name": "newOwner",
          "type": "address"
        }
      ],
      "name": "transferOwnership",
      "outputs": [],
      "stateMutability": "nonpayable",
      "type": "function"
    },
    {
      "inputs": [
        {
          "internalType": "uint256",
          "name": "streamId",
          "type": "uint256"
        },
        {
          "internalType": "address[]",
          "name": "recipients",
          "type": "address[]"
        },
        {
          "internalType": "uint256[]",
          "name": "shares",
          "type": "uint256[]"
        }
      ],
      "name": "updateStream",
      "outputs": [],
      "stateMutability": "nonpayable",
      "type": "function"
    },
    {
      "inputs": [],
      "name": "withdraw",
      "outputs": [],
      "stateMutability": "nonpayable",
      "type": "function"
    }
  ],
  "bytecode": "0x60808060405234610084576001600055331561006e5760018054336001600160a01b03198216811790925560405191906001600160a01b03167f8be0079c531659141344cd1fd0a4f28419497f9722a3daafe3b4186f6b6457e0600080a360fa600655611465908161008a8239f35b631e4fbdf760e01b815260006004820152602490fd5b600080fdfe6080604052600436101561001257600080fd5b60003560e01c80630fa7b92b14610e4e57806326232a2e14610e305780633ccfd60b14610d475780633e3e8b8a14610b745780635e96276514610adf57806364d60d9114610a82578063715018a614610a02578063894e9a0d1461088a57806389d0e1191461086c5780638da5cb5b14610838578063e2eab4831461030f578063f2fde38b1461024b578063f3f43703146102045763fe365199146100b657600080fd5b346101ff576020806003193601126101ff5760043560005260039081815260406000209182546100e581611130565b916100f360405193846110ef565b81835260009485528385208484019591865b84841061019157604080518881528751818a018190528a928201908a60005b8281106101315784840385f35b855180518552808301518584015260408082015173ffffffffffffffffffffffffffffffffffffffff1690860152606080820151908601526080808201519086015260a0908101511515908501529481019460c090930192600101610124565b6006876001926040516101a3816110d3565b86548152848701548382015273ffffffffffffffffffffffffffffffffffffffff60028801541660408201528587015460608201526004870154608082015260ff600588015416151560a0820152815201930193019291610105565b600080fd5b346101ff5760206003193601126101ff5773ffffffffffffffffffffffffffffffffffffffff610232611148565b1660005260046020526020604060002054604051908152f35b346101ff5760206003193601126101ff57610264611148565b61026c611291565b73ffffffffffffffffffffffffffffffffffffffff8091169081156102de57600154827fffffffffffffffffffffffff0000000000000000000000000000000000000000821617600155167f8be0079c531659141344cd1fd0a4f28419497f9722a3daafe3b4186f6b6457e0600080a3005b60246040517f1e4fbdf700000000000000000000000000000000000000000000000000000000815260006004820152fd5b60206003193601126101ff576103236113dc565b6004356000526002602052604060002060ff600682015416156107da57341561077c57600401610354348254611323565b905560043560005260036020526040600020805490604051610375816110d3565b82815260208101926004358452604082019233845260608301348152608084019142835260a0850193600085526801000000000000000081101561074d576103c291600182018155611275565b95909561071e5761045d9660059551875551600187015573ffffffffffffffffffffffffffffffffffffffff600287019151167fffffffffffffffffffffffff000000000000000000000000000000000000000082541617905551600385015551600484015551151591019060ff7fffffffffffffffffffffffffffffffffffffffffffffffffffffffffffffff0083541691151516179055565b60405134815233907fda60f2c35ba841a8dc24a2ab7a21d82d688090d569bb1fc1a686a36bb54eeec5602060043592a36004356000526003602052604060002054807fffffffffffffffffffffffffffffffffffffffffffffffffffffffffffffffff8101116106915760043560005260026020526040600020600360205261050c7fffffffffffffffffffffffffffffffffffffffffffffffffffffffffffffffff83016040600020611275565b509060ff6005830154166106c057600382015461271061052e60065483611395565b049373ffffffffffffffffffffffffffffffffffffffff6001541660005260046020526040600020610561868254611323565b905581858103116106915760005b60028401548110156105f057806127106105a16105926105eb9460038901611417565b90549060031b1c898703611395565b0473ffffffffffffffffffffffffffffffffffffffff6105c48360028901611417565b90549060031b1c1660005260046020526105e46040600020918254611323565b90556112e2565b61056f565b509284926005918260017fffffffffffffffffffffffffffffffffffffffffffffffffffffffffffffff00828401541617910155016106328383038254611323565b90557fffffffffffffffffffffffffffffffffffffffffffffffffffffffffffffffff604051930183520360208201527f6215b003e186dbc79e3bd07b486dc69758f50dab026e5d485d4a945d56015447604060043592a26001600055005b7f4e487b7100000000000000000000000000000000000000000000000000000000600052601160045260246000fd5b60646040517f08c379a000000000000000000000000000000000000000000000000000000000815260206004820152601360248201527f416c7265616479206469737472696275746564000000000000000000000000006044820152fd5b7f4e487b7100000000000000000000000000000000000000000000000000000000600052600060045260246000fd5b7f4e487b7100000000000000000000000000000000000000000000000000000000600052604160045260246000fd5b60646040517f08c379a000000000000000000000000000000000000000000000000000000000815260206004820152600a60248201527f4e6f207061796d656e74000000000000000000000000000000000000000000006044820152fd5b60646040517f08c379a000000000000000000000000000000000000000000000000000000000815260206004820152601160248201527f53747265616d206e6f74206163746976650000000000000000000000000000006044820152fd5b346101ff5760006003193601126101ff57602073ffffffffffffffffffffffffffffffffffffffff60015416604051908152f35b346101ff5760006003193601126101ff576020600554604051908152f35b346101ff576020806003193601126101ff57600435600052600281526040600020600191828201549160028101906003810192600560048301549201549260405195868097848454918281520190819460005285600020908b60005b8281106109d65750505050906108fd9103886110ef565b6040519081848854918281520190819860005285600020908b60005b8281106109c35750505050826109309103836110ef565b6040519760a0890191895260a0858a01525180915260c08801929060005b8a82821061099b5750505050868203604088015251808252908201949160005b828110610988578780888888606084015260808301520390f35b835187529581019592810192880161096e565b835173ffffffffffffffffffffffffffffffffffffffff16865294860194928601920161094e565b8354855293880193928101928101610919565b835473ffffffffffffffffffffffffffffffffffffffff1685528c9550938801939281019281016108e6565b346101ff5760006003193601126101ff57610a1b611291565b600073ffffffffffffffffffffffffffffffffffffffff6001547fffffffffffffffffffffffff00000000000000000000000000000000000000008116600155167f8be0079c531659141344cd1fd0a4f28419497f9722a3daafe3b4186f6b6457e08280a3005b346101ff5760206003193601126101ff57600435600052600260205260a06040600020805490600181015490600481015460ff60066005840154930154169260405194855260208501526040840152606083015215156080820152f35b346101ff5760406003193601126101ff576024356004356000526003602052604060002080548210156101ff5760c091610b1891611275565b5080549060018101549073ffffffffffffffffffffffffffffffffffffffff60028201541660038201549060ff6005600485015494015416936040519586526020860152604085015260608401526080830152151560a0820152f35b346101ff57610b823661116b565b916000526020916002835260406000209060028201928354908115610d18578460005273ffffffffffffffffffffffffffffffffffffffff93848760002054163303610cba57600094855b8551871015610bfa57610bee610bf491610be7898961130f565b5190611323565b966112e2565b95610bcd565b9087610c0c6127108b98959414611330565b84519167ffffffffffffffff9687841161074d57680100000000000000009687851161074d57610c41858b93818755866113a8565b0191600052876000209060005b848110610ca657505050505060030191815193841161074d57831161074d578390610c7e848454818655856113a8565b0190600052826000209260005b838110610c9457005b82518582015591810191600101610c8b565b835182168382015592890192600101610c4e565b606487604051907f08c379a00000000000000000000000000000000000000000000000000000000082526004820152600e60248201527f4e6f7420617574686f72697a65640000000000000000000000000000000000006044820152fd5b7f4e487b7100000000000000000000000000000000000000000000000000000000600052603260045260246000fd5b346101ff5760006003193601126101ff57610d606113dc565b3360005260046020526040600020548015610dd257336000526004602052600060408120556000808080843382f115610dc6576040519081527fbc158bb64f05d6383aea69bbb0b20c1bbf4b7a18f63359c5649b7c39e29d388460203392a26001600055005b6040513d6000823e3d90fd5b60646040517f08c379a000000000000000000000000000000000000000000000000000000000815260206004820152601660248201527f4e6f2070656e64696e67207769746864726177616c73000000000000000000006044820152fd5b346101ff5760006003193601126101ff576020600654604051908152f35b346101ff57610e5c3661116b565b91815183510361107557600090815b8451831015610e9157610e85610e8b91610be7858861130f565b926112e2565b91610e6b565b9083610ea1612710879414611330565b610eac6005546112e2565b908160055560405160e0810181811067ffffffffffffffff82111761074d5760405282815260208101918483526040820190815260608201958652608082016000815260a083019160008352600160c0850152856000526002602052604060002094845186555160018601555180519067ffffffffffffffff821161074d5768010000000000000000821161074d5760206002870191610f51848454818655856113a8565b0190600052602060002060005b83811061104b575050505060038401965180519067ffffffffffffffff821161074d5768010000000000000000821161074d57602090610fa3838b54818d558c6113a8565b019760005260206000209760005b82811061103757602089896110098a600660c08c8c8c5160048601555160058501550151151591019060ff7fffffffffffffffffffffffffffffffffffffffffffffffffffffffffffffff0083541691151516179055565b60405191817fafe5ec4df6192b65e7cc40a3a7bec3ef4a74e58ed476c67c931f3bd22753ddd6600080a38152f35b60019060208351930192818c015501610fb1565b600190602073ffffffffffffffffffffffffffffffffffffffff8551169401938184015501610f5e565b60646040517f08c379a000000000000000000000000000000000000000000000000000000000815260206004820152600f60248201527f4c656e677468206d69736d6174636800000000000000000000000000000000006044820152fd5b60c0810190811067ffffffffffffffff82111761074d57604052565b90601f7fffffffffffffffffffffffffffffffffffffffffffffffffffffffffffffffe0910116810190811067ffffffffffffffff82111761074d57604052565b67ffffffffffffffff811161074d5760051b60200190565b6004359073ffffffffffffffffffffffffffffffffffffffff821682036101ff57565b60606003198201126101ff576004359167ffffffffffffffff6024358181116101ff57836023820112156101ff578060040135906111a882611130565b906111b660405192836110ef565b82825260209260248484019160051b830101918783116101ff57602401905b82821061124957505050936044359283116101ff57806023840112156101ff57826004013561120381611130565b9361121160405195866110ef565b81855260248486019260051b8201019283116101ff57602401905b82821061123a575050505090565b8135815290830190830161122c565b813573ffffffffffffffffffffffffffffffffffffffff811681036101ff5781529084019084016111d5565b8054821015610d18576000526006602060002091020190600090565b73ffffffffffffffffffffffffffffffffffffffff6001541633036112b257565b60246040517f118cdaa7000000000000000000000000000000000000000000000000000000008152336004820152fd5b7fffffffffffffffffffffffffffffffffffffffffffffffffffffffffffffffff81146106915760010190565b8051821015610d185760209160051b010190565b9190820180921161069157565b1561133757565b60646040517f08c379a000000000000000000000000000000000000000000000000000000000815260206004820152601760248201527f536861726573206d7573742073756d20746f20313030250000000000000000006044820152fd5b8181029291811591840414171561069157565b90918281106113b657505050565b60009182526020822092830192015b8281106113d157505050565b8181556001016113c5565b6002600054146113ed576002600055565b60046040517f3ee5aeb5000000000000000000000000000000000000000000000000000000008152fd5b8054821015610d18576000526020600020019060009056fea26469706673582212204c39e8d70a14a73a0b7d5865184818dc527913ef9f0a8bfa4d937293af9fbafc64736f6c63430008140033",
  "linkReferences": {},
  "deployedLinkReferences": {}
}