{
  "_format": "hh-sol-artifact-1",
  "contractName": "RevenueDistribution",
  "sourceName": "contracts/layer4/rights/RevenueDistribution.sol",
  "abi": [
    {
      "inputs": [],
      "stateMutability": "nonpayable",
      "type": "constructor"
    },
    {
      "inputs": [
        {
          "internalType": "address",
          "name": "owner",
          "type": "address"
        }
      ],
      "name": "OwnableInvalidOwner",
      "type": "error"
    },
    {
      "inputs": [
        {
          "internalType": "address",
          "name": "account",
          "type": "address"
        }
      ],
      "name": "OwnableUnauthorizedAccount",
      "type": "error"
    },
    {
      "inputs": [],
      "name": "ReentrancyGuardReentrantCall",
      "type": "error"
    },
    {
      "anonymous": false,
      "inputs": [
        {
          "indexed": true,
          "internalType": "address",
          "name": "previousOwner",
          "type": "address"
        },
        {
          "indexed": true,
          "internalType": "address",
          "name": "newOwner",
          "type": "address"
        }
      ],
      "name": "OwnershipTransferred",
      "type": "event"
    },
    {
      "anonymous": false,
      "inputs": [
        {
          "indexed": true,
          "internalType": "uint256",
          "name": "streamId",
          "type": "uint256"
        },
        {
          "indexed": false,
          "internalType": "uint256",
          "name": "paymentId",
          "type": "uint256"
        },
        {
          "indexed": false,
          "internalType": "uint256",
          "name": "amount",
          "type": "uint256"
        }
      ],
      "name": "RevenueDistributed",
      "type": "event"
    },
    {
      "anonymous": false,
      "inputs": [
        {
          "indexed": true,
          "internalType": "uint256",
          "name": "streamId",
          "type": "uint256"
        },
        {
          "indexed": false,
          "internalType": "uint256",
          "name": "amount",
          "type": "uint256"
        },
        {
          "indexed": true,
          "internalType": "address",
          "name": "payer",
          "type": "address"
        }
      ],
      "name": "RevenueReceived",
      "type": "event"
    },
    {
      "anonymous": false,
      "inputs": [
        {
          "indexed": true,
          "internalType": "uint256",
          "name": "streamId",
          "type": "uint256"
        },
        {
          "indexed": true,
          "internalType": "uint256",
          "name": "assetId",
          "type": "uint256"
        }
      ],
      "name": "StreamCreated",
      "type": "event"
    },
    {
      "anonymous": false,
      "inputs": [
        {
          "indexed": true,
          "internalType": "address",
          "name": "recipient",
          "type": "address"
        },
        {
          "indexed": false,
          "internalType": "uint256",
          "name": "amount",
          "type": "uint256"
        }
      ],
      "name": "WithdrawalMade",
      "type": "event"
    },
    {
      "inputs": [
        {
          "internalType": "uint256",
          "name": "mediaAssetId",
          "type": "uint256"
        },
        {
          "internalType": "address[]",
          "name": "recipients",
          "type": "address[]"
        },
        {
          "internalType": "uint256[]",
          "name": "shares",
          "type": "uint256[]"
        }
      ],
      "name": "createRevenueStream",
      "outputs": [
        {
          "internalType": "uint256",
          "name": "",
          "type": "uint256"
        }
      ],
      "stateMutability": "nonpayable",
      "type": "function"
    },
    {
      "inputs": [
        {
          "internalType": "uint256",
          "name": "streamId",
          "type": "uint256"
        }
      ],
      "name": "getPayments",
      "outputs": [
        {
          "components": [
            {
              "internalType": "uint256",
              "name": "paymentId",
              "type": "uint256"
            },
            {
              "internalType": "uint256",
              "name": "streamId",
              "type": "uint256"
            },
            {
              "internalType": "address",
              "name": "payer",
              "type": "address"
            },
            {
              "internalType": "uint256",
              "name": "amount",
              "type": "uint256"
            },
            {
              "internalType": "uint256",
              "name": "timestamp",
              "type": "uint256"
            },
            {
              "internalType": "bool",
              "name": "distributed",
              "type": "bool"
            }
          ],
          "internalType": "struct RevenueDistribution.Payment[]",
          "name": "",
          "type": "tuple[]"
        }
      ],
      "stateMutability": "view",
      "type": "function"
    },
    {
      "inputs": [
        {
          "internalType": "uint256",
          "name": "streamId",
          "type": "uint256"
        }
      ],
      "name": "getStream",
      "outputs": [
        {
          "internalType": "uint256",
          "name": "mediaAssetId",
          "type": "uint256"
        },
        {
          "internalType": "address[]",
          "name": "recipients",
          "type": "address[]"
        },
        {
          "internalType": "uint256[]",
          "name": "shares",
          "type": "uint256[]"
        },
        {
          "internalType": "uint256",
          "name": "totalCollected",
          "type": "uint256"
        },
        {
          "internalType": "uint256",
          "name": "totalDistributed",
          "type": "uint256"
        }
      ],
      "stateMutability": "view",
      "type": "function"
    },
    {
      "inputs": [],
      "name": "owner",
      "outputs": [
        {
          "internalType": "address",
          "name": "",
          "type": "address"
        }
      ],
      "stateMutability": "view",
      "type": "function"
    },
    {
      "inputs": [
        {
          "internalType": "address",
          "name": "",
          "type": "address"
        }
      ],
      "name": "pendingWithdrawals",
      "outputs": [
        {
          "internalType": "uint256",
          "name": "",
          "type": "uint256"
        }
      ],
      "stateMutability": "view",
      "type": "function"
    },
    {
      "inputs": [],
      "name": "platformFee",
      "outputs": [
        {
          "internalType": "uint256",
          "name": "",
          "type": "uint256"
        }
      ],
      "stateMutability": "view",
      "type": "function"
    },
    {
      "inputs": [
        {
          "internalType": "uint256",
          "name": "streamId",
          "type": "uint256"
        }
      ],
      "name": "receivePayment",
      "outputs": [],
      "stateMutability": "payable",
      "type": "function"
    },
    {
      "inputs": [],
      "name": "renounceOwnership",
      "outputs": [],
      "stateMutability": "nonpayable",
      "type": "function"
    },
    {
      "inputs": [],
      "name": "streamCount",
      "outputs": [
        {
          "internalType": "uint256",
          "name": "",
          "type": "uint256"
        }
      ],
      "stateMutability": "view",
      "type": "function"
    },
    {
      "inputs": [
        {
          "internalType": "uint256",
          "name": "",
          "type": "uint256"
        },
        {
          "internalType": "uint256",
          "name": "",
          "type": "uint256"
        }
      ],
      "name": "streamPayments",
      "outputs": [
        {
          "internalType": "uint256",
          "name": "paymentId",
          "type": "uint256"
        },
        {
          "internalType": "uint256",
          "name": "streamId",
          "type": "uint256"
        },
        {
          "internalType": "address",
          "name": "payer",
          "type": "address"
        },
        {
          "internalType": "uint256",
          "name": "amount",
          "type": "uint256"
        },
        {
          "internalType": "uint256",
          "name": "timestamp",
          "type": "uint256"
        },
        {
          "internalType": "bool",
          "name": "distributed",
          "type": "bool"
        }
      ],
      "stateMutability": "view",
      "type": "function"
    },
    {
      "inputs": [
        {
          "internalType": "uint256",
          "name": "",
          "type": "uint256"
        }
      ],
      "name": "streams",
      "outputs": [
        {
          "internalType": "uint256",
          "name": "streamId",
          "type": "uint256"
        },
        {
          "internalType": "uint256",
          "name": "mediaAssetId",
          "type": "uint256"
        },
        {
          "internalType": "uint256",
          "name": "totalCollected",
          "type": "uint256"
        },
        {
          "internalType": "uint256",
          "name": "totalDistributed",
          "type": "uint256"
        },
        {
          "internalType": "bool",
          "name": "active",
          "type": "bool"
        }
      ],
      "stateMutability": "view",
      "type": "function"
    },
    {
      "inputs": [
        {
          "internalType": "address",
          "name": "newOwner",
          "type": "address"
        }
      ],
      "name": "transferOwnership",
      "outputs": [],
      "stateMutability": "nonpayable",
      "type": "function"
    },
    {
      "inputs": [
        {
          "internalType": "uint256",
          "name": "streamId",
          "type": "uint256"
        },
        {
          "internalType": "address[]",
          "name": "recipients",
          "type": "address[]"
        },
        {
          "internalType": "uint256[]",
          "name": "shares",
          "type": "uint256[]"
        }
      ],
      "name": "updateStream",
      "outputs": [],
      "stateMutability": "nonpayable",
      "type": "function"
    },
    {
      "inputs": [],
      "name": "withdraw",
      "outputs": [],
      "stateMutability": "nonpayable",
      "type": "function"
    }
  ],
  "bytecode": "0x608060405260fa60065534801561001557600080fd5b506001600055338061004157604051631e4fbdf760e01b81526000600482015260240160405180910390fd5b61004a81610050565b506100a2565b600180546001600160a01b038381166001600160a01b0319831681179093556040519116919082907f8be0079c531659141344cd1fd0a4f28419497f9722a3daafe3b4186f6b6457e090600090a35050565b611304806100b16000396000f3fe6080604052600436106100dd5760003560e01c8063894e9a0d1161007f578063e2eab48311610059578063e2eab483146102ba578063f2fde38b146102cd578063f3f43703146102ed578063fe3651991461031a57600080fd5b8063894e9a0d1461024b57806389d0e1191461027c5780638da5cb5b1461029257600080fd5b80633e3e8b8a116100bb5780633e3e8b8a146101425780635e9627651461016257806364d60d91146101bf578063715018a61461023657600080fd5b80630fa7b92b146100e257806326232a2e146101155780633ccfd60b1461012b575b600080fd5b3480156100ee57600080fd5b506101026100fd366004610fe0565b610347565b6040519081526020015b60405180910390f35b34801561012157600080fd5b5061010260065481565b34801561013757600080fd5b50610140610526565b005b34801561014e57600080fd5b5061014061015d366004610fe0565b610602565b34801561016e57600080fd5b5061018261017d3660046110ab565b61073f565b6040805196875260208701959095526001600160a01b039093169385019390935260608401526080830191909152151560a082015260c00161010c565b3480156101cb57600080fd5b5061020c6101da3660046110cd565b600260205260009081526040902080546001820154600483015460058401546006909401549293919290919060ff1685565b6040805195865260208601949094529284019190915260608301521515608082015260a00161010c565b34801561024257600080fd5b5061014061079f565b34801561025757600080fd5b5061026b6102663660046110cd565b6107b1565b60405161010c9594939291906110e6565b34801561028857600080fd5b5061010260055481565b34801561029e57600080fd5b506001546040516001600160a01b03909116815260200161010c565b6101406102c83660046110cd565b6108a9565b3480156102d957600080fd5b506101406102e836600461117f565b610a73565b3480156102f957600080fd5b5061010261030836600461117f565b60046020526000908152604090205481565b34801561032657600080fd5b5061033a6103353660046110cd565b610aae565b60405161010c91906111a1565b600081518351146103915760405162461bcd60e51b815260206004820152600f60248201526e098cadccee8d040dad2e6dac2e8c6d608b1b60448201526064015b60405180910390fd5b6000805b83518110156103d7578381815181106103b0576103b0611224565b6020026020010151826103c39190611250565b9150806103cf81611269565b915050610395565b5080612710146104235760405162461bcd60e51b8152602060048201526017602482015276536861726573206d7573742073756d20746f203130302560481b6044820152606401610388565b6005805490600061043383611269565b90915550506005546040805160e08101825282815260208082018981528284018981526060840189905260006080850181905260a08501819052600160c0860181905287825260028086529690912085518155925190830155518051939491936104a593928501929190910190610e39565b50606082015180516104c1916003840191602090910190610e9e565b506080820151600482015560a0820151600582015560c0909101516006909101805460ff1916911515919091179055604051869082907fafe5ec4df6192b65e7cc40a3a7bec3ef4a74e58ed476c67c931f3bd22753ddd690600090a395945050505050565b61052e610b64565b33600090815260046020526040902054806105845760405162461bcd60e51b81526020600482015260166024820152754e6f2070656e64696e67207769746864726177616c7360501b6044820152606401610388565b336000818152600460205260408082208290555183156108fc0291849190818181858888f193505050501580156105bf573d6000803e3d6000fd5b5060405181815233907fbc158bb64f05d6383aea69bbb0b20c1bbf4b7a18f63359c5649b7c39e29d38849060200160405180910390a2506106006001600055565b565b6000838152600260208190526040822090810180549192339261062757610627611224565b6000918252602090912001546001600160a01b03161461067a5760405162461bcd60e51b815260206004820152600e60248201526d139bdd08185d5d1a1bdc9a5e995960921b6044820152606401610388565b6000805b83518110156106c05783818151811061069957610699611224565b6020026020010151826106ac9190611250565b9150806106b881611269565b91505061067e565b50806127101461070c5760405162461bcd60e51b8152602060048201526017602482015276536861726573206d7573742073756d20746f203130302560481b6044820152606401610388565b83516107219060028401906020870190610e39565b5082516107379060038401906020860190610e9e565b505050505050565b6003602052816000526040600020818154811061075b57600080fd5b60009182526020909120600690910201805460018201546002830154600384015460048501546005909501549396509194506001600160a01b031692909160ff1686565b6107a7610b8e565b6106006000610bbb565b6000606080600080600060026000888152602001908152602001600020905080600101548160020182600301836004015484600501548380548060200260200160405190810160405280929190818152602001828054801561083c57602002820191906000526020600020905b81546001600160a01b0316815260019091019060200180831161081e575b505050505093508280548060200260200160405190810160405280929190818152602001828054801561088e57602002820191906000526020600020905b81548152602001906001019080831161087a575b50505050509250955095509550955095505091939590929450565b6108b1610b64565b6000818152600260205260409020600681015460ff166109075760405162461bcd60e51b815260206004820152601160248201527053747265616d206e6f742061637469766560781b6044820152606401610388565b600034116109445760405162461bcd60e51b815260206004820152600a602482015269139bc81c185e5b595b9d60b21b6044820152606401610388565b348160040160008282546109589190611250565b90915550506000828152600360208181526040808420815160c0810183528154808252818501898152338386018181523460608601818152426080880190815260a088018d815260018089018b55998e529c8b902097516006909702909701958655935196850196909655516002840180546001600160a01b0319166001600160a01b039092169190911790559051968201969096559051600482015594516005909501805460ff19169515159590951790945551928352909184917fda60f2c35ba841a8dc24a2ab7a21d82d688090d569bb1fc1a686a36bb54eeec5910160405180910390a3600082815260036020526040902054610a65908390610a6090600190611282565b610c0d565b50610a706001600055565b50565b610a7b610b8e565b6001600160a01b038116610aa557604051631e4fbdf760e01b815260006004820152602401610388565b610a7081610bbb565b606060036000838152602001908152602001600020805480602002602001604051908101604052809291908181526020016000905b82821015610b595760008481526020908190206040805160c08101825260068602909201805483526001808201548486015260028201546001600160a01b03169284019290925260038101546060840152600481015460808401526005015460ff16151560a08301529083529092019101610ae3565b505050509050919050565b600260005403610b8757604051633ee5aeb560e01b815260040160405180910390fd5b6002600055565b6001546001600160a01b031633146106005760405163118cdaa760e01b8152336004820152602401610388565b600180546001600160a01b038381166001600160a01b0319831681179093556040519116919082907f8be0079c531659141344cd1fd0a4f28419497f9722a3daafe3b4186f6b6457e090600090a35050565b600082815260026020908152604080832060039092528220805491929184908110610c3a57610c3a611224565b60009182526020909120600690910201600581015490915060ff1615610c985760405162461bcd60e51b8152602060048201526013602482015272105b1c9958591e48191a5cdd1c9a589d5d1959606a1b6044820152606401610388565b600381015460065460009061271090610cb19084611295565b610cbb91906112ac565b90508060046000610cd46001546001600160a01b031690565b6001600160a01b03166001600160a01b031681526020019081526020016000206000828254610d039190611250565b9091555060009050610d158284611282565b905060005b6002860154811015610dca576000612710876003018381548110610d4057610d40611224565b906000526020600020015484610d569190611295565b610d6091906112ac565b90508060046000896002018581548110610d7c57610d7c611224565b60009182526020808320909101546001600160a01b0316835282019290925260400181208054909190610db0908490611250565b90915550829150610dc2905081611269565b915050610d1a565b506005808501805460ff1916600117905585018054829190600090610df0908490611250565b9091555050604080518781526020810183905288917f6215b003e186dbc79e3bd07b486dc69758f50dab026e5d485d4a945d56015447910160405180910390a250505050505050565b828054828255906000526020600020908101928215610e8e579160200282015b82811115610e8e57825182546001600160a01b0319166001600160a01b03909116178255602090920191600190910190610e59565b50610e9a929150610ed9565b5090565b828054828255906000526020600020908101928215610e8e579160200282015b82811115610e8e578251825591602001919060010190610ebe565b5b80821115610e9a5760008155600101610eda565b634e487b7160e01b600052604160045260246000fd5b604051601f8201601f1916810167ffffffffffffffff81118282101715610f2d57610f2d610eee565b604052919050565b600067ffffffffffffffff821115610f4f57610f4f610eee565b5060051b60200190565b80356001600160a01b0381168114610f7057600080fd5b919050565b600082601f830112610f8657600080fd5b81356020610f9b610f9683610f35565b610f04565b82815260059290921b84018101918181019086841115610fba57600080fd5b8286015b84811015610fd55780358352918301918301610fbe565b509695505050505050565b600080600060608486031215610ff557600080fd5b8335925060208085013567ffffffffffffffff8082111561101557600080fd5b818701915087601f83011261102957600080fd5b8135611037610f9682610f35565b81815260059190911b8301840190848101908a83111561105657600080fd5b938501935b8285101561107b5761106c85610f59565b8252938501939085019061105b565b96505050604087013592508083111561109357600080fd5b50506110a186828701610f75565b9150509250925092565b600080604083850312156110be57600080fd5b50508035926020909101359150565b6000602082840312156110df57600080fd5b5035919050565b600060a08201878352602060a08185015281885180845260c086019150828a01935060005b818110156111305784516001600160a01b03168352938301939183019160010161110b565b50508481036040860152875180825290820192508188019060005b818110156111675782518552938301939183019160010161114b565b50505050606083019490945250608001529392505050565b60006020828403121561119157600080fd5b61119a82610f59565b9392505050565b602080825282518282018190526000919060409081850190868401855b82811015611217578151805185528681015187860152858101516001600160a01b031686860152606080820151908601526080808201519086015260a09081015115159085015260c090930192908501906001016111be565b5091979650505050505050565b634e487b7160e01b600052603260045260246000fd5b634e487b7160e01b600052601160045260246000fd5b808201808211156112635761126361123a565b92915050565b60006001820161127b5761127b61123a565b5060010190565b818103818111156112635761126361123a565b80820281158282048414176112635761126361123a565b6000826112c957634e487b7160e01b600052601260045260246000fd5b50049056fea264697066735822122042209ba5dbae837946e87060cee10f509871108f2df34d41391ab7151ce761fe64736f6c63430008140033",
  "linkReferences": {},
  "deployedLinkReferences": {}
}