{
  "_format": "hh-sol-artifact-1",
  "contractName": "InfluencerMarket",
  "sourceName": "contracts/layer6/reputation/InfluencerMarket.sol",
  "abi": [
    {
      "inputs": [
        {
          "internalType": "address",
          "name": "_treasury",
          "type": "address"
        }
      ],
      "stateMutability": "nonpayable",
      "type": "constructor"
    },
    {
      "inputs": [],
      "name": "AccessControlBadConfirmation",
      "type": "error"
    },
    {
      "inputs": [
        {
          "internalType": "address",
          "name": "account",
          "type": "address"
        },
        {
          "internalType": "bytes32",
          "name": "neededRole",
          "type": "bytes32"
        }
      ],
      "name": "AccessControlUnauthorizedAccount",
      "type": "error"
    },
    {
      "inputs": [],
      "name": "ReentrancyGuardReentrantCall",
      "type": "error"
    },
    {
      "anonymous": false,
      "inputs": [
        {
          "indexed": true,
          "internalType": "uint256",
          "name": "campaignId",
          "type": "uint256"
        },
        {
          "indexed": true,
          "internalType": "address",
          "name": "influencer",
          "type": "address"
        }
      ],
      "name": "CampaignAccepted",
      "type": "event"
    },
    {
      "anonymous": false,
      "inputs": [
        {
          "indexed": true,
          "internalType": "uint256",
          "name": "campaignId",
          "type": "uint256"
        },
        {
          "indexed": false,
          "internalType": "uint256",
          "name": "payment",
          "type": "uint256"
        }
      ],
      "name": "CampaignCompleted",
      "type": "event"
    },
    {
      "anonymous": false,
      "inputs": [
        {
          "indexed": true,
          "internalType": "uint256",
          "name": "campaignId",
          "type": "uint256"
        },
        {
          "indexed": true,
          "internalType": "address",
          "name": "brand",
          "type": "address"
        },
        {
          "indexed": false,
          "internalType": "uint256",
          "name": "budget",
          "type": "uint256"
        }
      ],
      "name": "CampaignCreated",
      "type": "event"
    },
    {
      "anonymous": false,
      "inputs": [
        {
          "indexed": true,
          "internalType": "address",
          "name": "influencer",
          "type": "address"
        },
        {
          "indexed": false,
          "internalType": "uint256",
          "name": "followers",
          "type": "uint256"
        }
      ],
      "name": "InfluencerRegistered",
      "type": "event"
    },
    {
      "anonymous": false,
      "inputs": [
        {
          "indexed": true,
          "internalType": "bytes32",
          "name": "role",
          "type": "bytes32"
        },
        {
          "indexed": true,
          "internalType": "bytes32",
          "name": "previousAdminRole",
          "type": "bytes32"
        },
        {
          "indexed": true,
          "internalType": "bytes32",
          "name": "newAdminRole",
          "type": "bytes32"
        }
      ],
      "name": "RoleAdminChanged",
      "type": "event"
    },
    {
      "anonymous": false,
      "inputs": [
        {
          "indexed": true,
          "internalType": "bytes32",
          "name": "role",
          "type": "bytes32"
        },
        {
          "indexed": true,
          "internalType": "address",
          "name": "account",
          "type": "address"
        },
        {
          "indexed": true,
          "internalType": "address",
          "name": "sender",
          "type": "address"
        }
      ],
      "name": "RoleGranted",
      "type": "event"
    },
    {
      "anonymous": false,
      "inputs": [
        {
          "indexed": true,
          "internalType": "bytes32",
          "name": "role",
          "type": "bytes32"
        },
        {
          "indexed": true,
          "internalType": "address",
          "name": "account",
          "type": "address"
        },
        {
          "indexed": true,
          "internalType": "address",
          "name": "sender",
          "type": "address"
        }
      ],
      "name": "RoleRevoked",
      "type": "event"
    },
    {
      "inputs": [],
      "name": "DEFAULT_ADMIN_ROLE",
      "outputs": [
        {
          "internalType": "bytes32",
          "name": "",
          "type": "bytes32"
        }
      ],
      "stateMutability": "view",
      "type": "function"
    },
    {
      "inputs": [],
      "name": "VERIFIER_ROLE",
      "outputs": [
        {
          "internalType": "bytes32",
          "name": "",
          "type": "bytes32"
        }
      ],
      "stateMutability": "view",
      "type": "function"
    },
    {
      "inputs": [
        {
          "internalType": "uint256",
          "name": "campaignId",
          "type": "uint256"
        }
      ],
      "name": "applyForCampaign",
      "outputs": [],
      "stateMutability": "nonpayable",
      "type": "function"
    },
    {
      "inputs": [
        {
          "internalType": "uint256",
          "name": "campaignId",
          "type": "uint256"
        }
      ],
      "name": "approveCampaign",
      "outputs": [],
      "stateMutability": "nonpayable",
      "type": "function"
    },
    {
      "inputs": [
        {
          "internalType": "uint256",
          "name": "campaignId",
          "type": "uint256"
        },
        {
          "internalType": "address",
          "name": "influencer",
          "type": "address"
        }
      ],
      "name": "assignInfluencer",
      "outputs": [],
      "stateMutability": "nonpayable",
      "type": "function"
    },
    {
      "inputs": [
        {
          "internalType": "address",
          "name": "",
          "type": "address"
        },
        {
          "internalType": "uint256",
          "name": "",
          "type": "uint256"
        }
      ],
      "name": "brandCampaigns",
      "outputs": [
        {
          "internalType": "uint256",
          "name": "",
          "type": "uint256"
        }
      ],
      "stateMutability": "view",
      "type": "function"
    },
    {
      "inputs": [
        {
          "internalType": "uint256",
          "name": "",
          "type": "uint256"
        },
        {
          "internalType": "uint256",
          "name": "",
          "type": "uint256"
        }
      ],
      "name": "campaignApplicants",
      "outputs": [
        {
          "internalType": "address",
          "name": "",
          "type": "address"
        }
      ],
      "stateMutability": "view",
      "type": "function"
    },
    {
      "inputs": [
        {
          "internalType": "uint256",
          "name": "",
          "type": "uint256"
        }
      ],
      "name": "campaigns",
      "outputs": [
        {
          "internalType": "uint256",
          "name": "campaignId",
          "type": "uint256"
        },
        {
          "internalType": "address",
          "name": "brand",
          "type": "address"
        },
        {
          "internalType": "address",
          "name": "influencer",
          "type": "address"
        },
        {
          "internalType": "enum InfluencerMarket.CampaignType",
          "name": "campType",
          "type": "uint8"
        },
        {
          "internalType": "string",
          "name": "description",
          "type": "string"
        },
        {
          "internalType": "uint256",
          "name": "budget",
          "type": "uint256"
        },
        {
          "internalType": "uint256",
          "name": "deadline",
          "type": "uint256"
        },
        {
          "internalType": "enum InfluencerMarket.CampaignStatus",
          "name": "status",
          "type": "uint8"
        },
        {
          "internalType": "string",
          "name": "requirements",
          "type": "string"
        },
        {
          "internalType": "uint256",
          "name": "createdAt",
          "type": "uint256"
        },
        {
          "internalType": "string",
          "name": "deliverableURI",
          "type": "string"
        },
        {
          "internalType": "uint256",
          "name": "targetReach",
          "type": "uint256"
        }
      ],
      "stateMutability": "view",
      "type": "function"
    },
    {
      "inputs": [
        {
          "internalType": "enum InfluencerMarket.CampaignType",
          "name": "campType",
          "type": "uint8"
        },
        {
          "internalType": "string",
          "name": "description",
          "type": "string"
        },
        {
          "internalType": "address",
          "name": "preferredInfluencer",
          "type": "address"
        },
        {
          "internalType": "uint256",
          "name": "deadline",
          "type": "uint256"
        },
        {
          "internalType": "string",
          "name": "requirements",
          "type": "string"
        },
        {
          "internalType": "uint256",
          "name": "targetReach",
          "type": "uint256"
        }
      ],
      "name": "createCampaign",
      "outputs": [
        {
          "internalType": "uint256",
          "name": "",
          "type": "uint256"
        }
      ],
      "stateMutability": "payable",
      "type": "function"
    },
    {
      "inputs": [
        {
          "internalType": "uint256",
          "name": "campaignId",
          "type": "uint256"
        }
      ],
      "name": "getApplicants",
      "outputs": [
        {
          "internalType": "address[]",
          "name": "",
          "type": "address[]"
        }
      ],
      "stateMutability": "view",
      "type": "function"
    },
    {
      "inputs": [
        {
          "internalType": "address",
          "name": "influencer",
          "type": "address"
        }
      ],
      "name": "getNiches",
      "outputs": [
        {
          "internalType": "string[]",
          "name": "",
          "type": "string[]"
        }
      ],
      "stateMutability": "view",
      "type": "function"
    },
    {
      "inputs": [
        {
          "internalType": "bytes32",
          "name": "role",
          "type": "bytes32"
        }
      ],
      "name": "getRoleAdmin",
      "outputs": [
        {
          "internalType": "bytes32",
          "name": "",
          "type": "bytes32"
        }
      ],
      "stateMutability": "view",
      "type": "function"
    },
    {
      "inputs": [
        {
          "internalType": "bytes32",
          "name": "role",
          "type": "bytes32"
        },
        {
          "internalType": "address",
          "name": "account",
          "type": "address"
        }
      ],
      "name": "grantRole",
      "outputs": [],
      "stateMutability": "nonpayable",
      "type": "function"
    },
    {
      "inputs": [
        {
          "internalType": "bytes32",
          "name": "role",
          "type": "bytes32"
        },
        {
          "internalType": "address",
          "name": "account",
          "type": "address"
        }
      ],
      "name": "hasRole",
      "outputs": [
        {
          "internalType": "bool",
          "name": "",
          "type": "bool"
        }
      ],
      "stateMutability": "view",
      "type": "function"
    },
    {
      "inputs": [
        {
          "internalType": "address",
          "name": "",
          "type": "address"
        },
        {
          "internalType": "uint256",
          "name": "",
          "type": "uint256"
        }
      ],
      "name": "influencerCampaigns",
      "outputs": [
        {
          "internalType": "uint256",
          "name": "",
          "type": "uint256"
        }
      ],
      "stateMutability": "view",
      "type": "function"
    },
    {
      "inputs": [
        {
          "internalType": "address",
          "name": "",
          "type": "address"
        },
        {
          "internalType": "uint256",
          "name": "",
          "type": "uint256"
        }
      ],
      "name": "influencerNiches",
      "outputs": [
        {
          "internalType": "string",
          "name": "",
          "type": "string"
        }
      ],
      "stateMutability": "view",
      "type": "function"
    },
    {
      "inputs": [
        {
          "internalType": "address",
          "name": "",
          "type": "address"
        }
      ],
      "name": "influencers",
      "outputs": [
        {
          "internalType": "address",
          "name": "influencer",
          "type": "address"
        },
        {
          "internalType": "uint256",
          "name": "followerCount",
          "type": "uint256"
        },
        {
          "internalType": "uint256",
          "name": "engagementRate",
          "type": "uint256"
        },
        {
          "internalType": "uint256",
          "name": "campaignsCompleted",
          "type": "uint256"
        },
        {
          "internalType": "uint256",
          "name": "totalEarned",
          "type": "uint256"
        },
        {
          "internalType": "uint256",
          "name": "reputationScore",
          "type": "uint256"
        },
        {
          "internalType": "bool",
          "name": "isVerified",
          "type": "bool"
        },
        {
          "internalType": "uint256",
          "name": "minCampaignBudget",
          "type": "uint256"
        }
      ],
      "stateMutability": "view",
      "type": "function"
    },
    {
      "inputs": [],
      "name": "platformFeeBps",
      "outputs": [
        {
          "internalType": "uint256",
          "name": "",
          "type": "uint256"
        }
      ],
      "stateMutability": "view",
      "type": "function"
    },
    {
      "inputs": [
        {
          "internalType": "uint256",
          "name": "followerCount",
          "type": "uint256"
        },
        {
          "internalType": "uint256",
          "name": "engagementRate",
          "type": "uint256"
        },
        {
          "internalType": "string[]",
          "name": "niches",
          "type": "string[]"
        },
        {
          "internalType": "uint256",
          "name": "minBudget",
          "type": "uint256"
        }
      ],
      "name": "registerInfluencer",
      "outputs": [],
      "stateMutability": "nonpayable",
      "type": "function"
    },
    {
      "inputs": [
        {
          "internalType": "bytes32",
          "name": "role",
          "type": "bytes32"
        },
        {
          "internalType": "address",
          "name": "callerConfirmation",
          "type": "address"
        }
      ],
      "name": "renounceRole",
      "outputs": [],
      "stateMutability": "nonpayable",
      "type": "function"
    },
    {
      "inputs": [
        {
          "internalType": "bytes32",
          "name": "role",
          "type": "bytes32"
        },
        {
          "internalType": "address",
          "name": "account",
          "type": "address"
        }
      ],
      "name": "revokeRole",
      "outputs": [],
      "stateMutability": "nonpayable",
      "type": "function"
    },
    {
      "inputs": [
        {
          "internalType": "uint256",
          "name": "campaignId",
          "type": "uint256"
        },
        {
          "internalType": "string",
          "name": "deliverableURI",
          "type": "string"
        }
      ],
      "name": "submitDeliverable",
      "outputs": [],
      "stateMutability": "nonpayable",
      "type": "function"
    },
    {
      "inputs": [
        {
          "internalType": "bytes4",
          "name": "i",
          "type": "bytes4"
        }
      ],
      "name": "supportsInterface",
      "outputs": [
        {
          "internalType": "bool",
          "name": "",
          "type": "bool"
        }
      ],
      "stateMutability": "view",
      "type": "function"
    },
    {
      "inputs": [],
      "name": "treasury",
      "outputs": [
        {
          "internalType": "address",
          "name": "",
          "type": "address"
        }
      ],
      "stateMutability": "view",
      "type": "function"
    },
    {
      "inputs": [
        {
          "internalType": "address",
          "name": "influencer",
          "type": "address"
        }
      ],
      "name": "verifyInfluencer",
      "outputs": [],
      "stateMutability": "nonpayable",
      "type": "function"
    }
  ],
  "bytecode": "0x6080346200009c57601f620020e738819003918201601f19168301916001600160401b03831184841017620000a1578084926020946040528339810103126200009c57516001600160a01b038116908190036200009c57600180556101f4600a55600980546001600160a01b0319169190911790556200007f33620000b7565b506200008b3362000137565b50604051611eed9081620001da8239f35b600080fd5b634e487b7160e01b600052604160045260246000fd5b6001600160a01b031660008181527fad3228b676f7d3cd4284a5443f17f1962b36e491b30a40b2405849e597ba5fb5602052604081205490919060ff166200013357818052816020526040822081835260205260408220600160ff198254161790553391600080516020620020c78339815191528180a4600190565b5090565b6001600160a01b031660008181527f1da0b5176dfe03406af5a6eed66ca01dda9b45ac4da671c3fa379cb93717ef8160205260408120549091907f0ce23c3e399818cfee81a7ab0880f714e53d7672b08df0fa62f2843416e1ea099060ff16620001d457808352826020526040832082845260205260408320600160ff19825416179055600080516020620020c7833981519152339380a4600190565b50509056fe608080604052600436101561001357600080fd5b60003560e01c90816301ffc9a7146119c75750806305644dcc146118e7578063141961bc146117ce57806322dcd13e146117b0578063248a9ca31461178157806329473a53146116e55780632f2ff15d146116a657806336568abe1461163a5780635e29172f146114bd57806361d027b31461148957806364b8a254146113df5780636cf5d86e1461130d57806391d14854146112b2578063a217fddf14611296578063adac0d0d14611241578063ba11e07b14611152578063bdffa66a14611064578063d547741f14611023578063dccb700514610949578063e34b3d2b14610838578063e5d5ffbf146107d9578063e7705db61461079e578063ee17eb8014610374578063ee4e1b531461019a5763fd1721d41461013257600080fd5b346101955760406003193601126101955761014b611a65565b73ffffffffffffffffffffffffffffffffffffffff60243591166000526007602052604060002080548210156101955760209161018791611c5f565b90546040519160031b1c8152f35b600080fd5b346101955760206003193601126101955760043560026001541461034a576002600155806000526005602052604060002073ffffffffffffffffffffffffffffffffffffffff80600183015416331480610330575b6101f890611e52565b60068201600260ff1982541617905560048201908154600a54908181029181830414901517156102e3576127109004926000808080878660095416828215610327575bf1156103125760020192818454168354828103928184116102e35760009384938493849384911461031e575bf11561031257808354166000526003602052600360406000200161028b8154611e0a565b90558154925416600052600360205260046040600020019081549283018093116102e3577f562099c771af1034e0fa4d272eeb12a622c0e7b284ff68212cc5ddd2c1b77d34926020925554604051908152a260018055005b7f4e487b7100000000000000000000000000000000000000000000000000000000600052601160045260246000fd5b6040513d6000823e3d90fd5b506108fc610267565b506108fc61023b565b506101f86103416009840154611aab565b151590506101ef565b60046040517f3ee5aeb5000000000000000000000000000000000000000000000000000000008152fd5b346101955760806003193601126101955760043560443567ffffffffffffffff81116101955736602382011215610195578060040135906103b482611ca6565b916103c26040519384611afe565b8083526020830180926024600593841b820101903682116101955760248101925b82841061076e57505050503360005260038060205260016040600020015461071057604051610100810181811067ffffffffffffffff82111761066d576040523381526007602082018781526040830160243581526060840160008152608085016000815260a08601916064835260c08701936000855260e08801956064358752336000528960205273ffffffffffffffffffffffffffffffffffffffff60406000209951167fffffffffffffffffffffffff00000000000000000000000000000000000000008a541617895551600189015551600288015551878701555160048601555186850155600684019051151560ff60ff198354169116179055519101556004602052604060002093519268010000000000000000841161066d57845484865580851061069c575b506000948552602085209492905b84841061055357866040519081527f9e2fe2c22597190906f16bd5305794612f04f9070f0b6a6ffe60c70b1664836b60203392a2005b805180519067ffffffffffffffff821161066d576105718854611aab565b90601f91828111610635575b5060209183116001146105c65792826001949360209386956000926105bb575b505060001982861b92891b1c19161789555b0196019301929461051d565b015190508c8061059d565b908860005260206000209160005b601f198516811061061d5750836020936001969387969383601f1989961610610605575b505050811b0189556105af565b015160001960f8848c1b161c191690558c80806105f8565b919260206001819286850151815501940192016105d4565b61065e908a600052602060002084808701891c82019260208810610664575b01881c0190611df3565b8a61057d565b92508192610654565b7f4e487b7100000000000000000000000000000000000000000000000000000000600052604160045260246000fd5b8560005284602060002091820191015b8181106106b9575061050f565b806106c660019254611aab565b806106d3575b50016106ac565b601f9081811184146106ec575050600081555b896106cc565b610707600092848452602084209201891c8201858301611df3565b818355556106e6565b60646040517f08c379a000000000000000000000000000000000000000000000000000000000815260206004820152601260248201527f416c7265616479207265676973746572656400000000000000000000000000006044820152fd5b833567ffffffffffffffff811161019557602091610793839260243691870101611c08565b8152019301926103e3565b346101955760006003193601126101955760206040517f0ce23c3e399818cfee81a7ab0880f714e53d7672b08df0fa62f2843416e1ea098152f35b3461019557604060031936011261019557602435600435600052600860205260406000209081548110156101955761082873ffffffffffffffffffffffffffffffffffffffff91602093611c5f565b9190546040519260031b1c168152f35b34610195576020806003193601126101955773ffffffffffffffffffffffffffffffffffffffff610867611a65565b166000526004815260406000209081549161088183611ca6565b9261088f6040519485611afe565b8084528284018092600052836000206000915b8383106109275750505050604051918083019381845251809452604083019360408160051b85010192916000955b8287106108dd5785850386f35b909192938280610917837fffffffffffffffffffffffffffffffffffffffffffffffffffffffffffffffc08a600196030186528851611bc8565b96019201960195929190926108d0565b6001868192610938859a999a611b21565b8152019201920191909594956108a2565b60c06003193601126101955760043560068110156101955760243567ffffffffffffffff811161019557610981903690600401611c08565b60443573ffffffffffffffffffffffffffffffffffffffff811681036101955760843567ffffffffffffffff8111610195576109c1903690600401611c08565b34151580611018575b15610fba576109da600254611e0a565b60028190559273ffffffffffffffffffffffffffffffffffffffff831615610fb2576001905b60405195610180870187811067ffffffffffffffff82111761066d5760405285875233602088015273ffffffffffffffffffffffffffffffffffffffff85166040880152606087015260808601523460a086015260643560c08601526005811015610ed15760e08501526101008401524261012084015260405180602081011067ffffffffffffffff60208301111761066d57602081016040526000815261014084015260a4356101608401528160005260056020526040600020835181556001810173ffffffffffffffffffffffffffffffffffffffff6020860151167fffffffffffffffffffffffff000000000000000000000000000000000000000082541617905573ffffffffffffffffffffffffffffffffffffffff604085015116600282019081549060608701516006811015610ed15774ff00000000000000000000000000000000000000007fffffffffffffffffffffff0000000000000000000000000000000000000000009160a01b16921617179055608084015180519067ffffffffffffffff821161066d578190610b9e6003850154611aab565b601f8111610f7d575b50602090601f8311600114610f0b57600092610f00575b50506000198260011b9260031b1c19161760038201555b60a0840151600482015560c084015160058201556006810160e08501516005811015610ed15760ff60ff198354169116179055610100840151805167ffffffffffffffff811161066d57806007840192610c2f8454611aab565b601f8111610e9f575b50602090601f8311600114610e3b57600092610e30575b50506000198260011b9260031b1c19161790555b610120840151600882015561014084015193845167ffffffffffffffff811161066d57602095610c966009850154611aab565b601f8111610df2575b508690601f8311600114610d7e579180600a949261016094600092610d73575b50506000198260011b9260031b1c19161760098501555b01519101553360005260068352610cf1826040600020611e19565b73ffffffffffffffffffffffffffffffffffffffff8116610d42575b50604051348152817f63e3678c8493a16f8ba43ae9e547231762ca04526dac2c388bd2c26d89401851843393a3604051908152f35b73ffffffffffffffffffffffffffffffffffffffff1660005260078252610d6d816040600020611e19565b82610d0d565b015190508980610cbf565b9060098501600052876000209160005b601f1985168110610ddb575092600a94926001926101609583601f19811610610dc2575b505050811b016009850155610cd6565b015160001960f88460031b161c19169055898080610db2565b919289600181928685015181550194019201610d8e565b610e20906009860160005288600020601f850160051c8101918a8610610e26575b601f0160051c0190611df3565b87610c9f565b9091508190610e13565b015190508780610c4f565b60008581526020812093601f1916905b818110610e875750908460019594939210610e6e575b505050811b019055610c63565b015160001960f88460031b161c19169055878080610e61565b92936020600181928786015181550195019301610e4b565b610ecb90856000526020600020601f850160051c81019160208610610e2657601f0160051c0190611df3565b88610c38565b7f4e487b7100000000000000000000000000000000000000000000000000000000600052602160045260246000fd5b015190508680610bbe565b9250600384016000526020600020906000935b601f1984168510610f62576001945083601f19811610610f49575b505050811b016003820155610bd5565b015160001960f88460031b161c19169055868080610f39565b81810151835560209485019460019093019290910190610f1e565b610fac90600386016000526020600020601f850160051c81019160208610610e2657601f0160051c0190611df3565b87610ba7565b600090610a00565b60646040517f08c379a000000000000000000000000000000000000000000000000000000000815260206004820152600e60248201527f496e76616c696420706172616d730000000000000000000000000000000000006044820152fd5b5042606435116109ca565b3461019557604060031936011261019557611062600435611042611a88565b9080600052600060205261105d600160406000200154611cbe565b611d70565b005b346101955760206003193601126101955760043580600052600560205260ff600660406000200154166005811015610ed1576110f4576000526008602052604060002080546801000000000000000081101561066d576110c991600182018155611c5f565b81549060031b9073ffffffffffffffffffffffffffffffffffffffff33831b921b1916179055600080f35b60646040517f08c379a000000000000000000000000000000000000000000000000000000000815260206004820152600860248201527f4e6f74206f70656e0000000000000000000000000000000000000000000000006044820152fd5b346101955760406003193601126101955760043561116e611a88565b90806000526005602052604060002073ffffffffffffffffffffffffffffffffffffffff9081600182015416331480611227575b916111ae600693611e52565b60028201941693847fffffffffffffffffffffffff000000000000000000000000000000000000000082541617905501600160ff19825416179055816000526007602052611200816040600020611e19565b7f7145cba14b5acc8eccaa45e172fd347a0a11b8952bfff9af0dd5d9aac9ae0665600080a3005b5060ff600682015416916005831015610ed15791156111a2565b346101955760406003193601126101955761125a611a65565b73ffffffffffffffffffffffffffffffffffffffff60243591166000526006602052604060002080548210156101955760209161018791611c5f565b3461019557600060031936011261019557602060405160008152f35b34610195576040600319360112610195576112cb611a88565b600435600052600060205273ffffffffffffffffffffffffffffffffffffffff60406000209116600052602052602060ff604060002054166040519015158152f35b34610195576020806003193601126101955760043560005260088152604060002060405190818382549182815201908192600052846000209060005b868282106113b557868661135f82880383611afe565b604051928392818401908285525180915260408401929160005b82811061138857505050500390f35b835173ffffffffffffffffffffffffffffffffffffffff1685528695509381019392810192600101611379565b835473ffffffffffffffffffffffffffffffffffffffff1685529093019260019283019201611349565b34610195576040600319360112610195576113f8611a65565b73ffffffffffffffffffffffffffffffffffffffff6024359116600052600460205260406000209081548110156101955761143291611c5f565b61145a5761144261145691611b21565b604051918291602083526020830190611bc8565b0390f35b7f4e487b7100000000000000000000000000000000000000000000000000000000600052600060045260246000fd5b3461019557600060031936011261019557602073ffffffffffffffffffffffffffffffffffffffff60095416604051908152f35b346101955760406003193601126101955767ffffffffffffffff602435818111610195576114ef903690600401611c08565b9060043560005260209060058252604060002073ffffffffffffffffffffffffffffffffffffffff60028201541633148061161e575b90611531600992611e52565b0191835191821161066d576115468354611aab565b601f81116115ee575b5080601f831160011461158b5750819293600092611580575b50506000198260011b9260031b1c1916179055600080f35b015190508380611568565b90601f198316948460005282600020926000905b8782106115d65750508360019596106115bd575b505050811b019055005b015160001960f88460031b161c191690558380806115b3565b8060018596829496860151815501950193019061159f565b611618908460005282600020601f850160051c810191848610610e2657601f0160051c0190611df3565b8461154f565b5060ff600682015416906005821015610ed15790600114611525565b3461019557604060031936011261019557611653611a88565b3373ffffffffffffffffffffffffffffffffffffffff82160361167c5761106290600435611d70565b60046040517f6697b232000000000000000000000000000000000000000000000000000000008152fd5b34610195576040600319360112610195576110626004356116c5611a88565b908060005260006020526116e0600160406000200154611cbe565b611ce4565b346101955760206003193601126101955761010073ffffffffffffffffffffffffffffffffffffffff80611717611a65565b1660005260036020526040600020908154169060018101549060028101546003820154600483015490600584015492600760ff60068701541695015495604051978852602088015260408701526060860152608085015260a0840152151560c083015260e0820152f35b346101955760206003193601126101955760043560005260006020526020600160406000200154604051908152f35b34610195576000600319360112610195576020600a54604051908152f35b34610195576020600319360112610195576004356000526005602052604060002080549073ffffffffffffffffffffffffffffffffffffffff8060018301541690600283015460ff8160a01c169361182860038201611b21565b60048201549560058301549060ff6006850154169261184960078601611b21565b96600886015496600a61185e60098901611b21565b970154996040519c8d5260208d01521660408b01526006821015610ed1576118969160608b01526101808060808c01528a0190611bc8565b9660a089015260c08801526005811015610ed15786956118dc946118c79260e0890152878203610100890152611bc8565b91610120860152848203610140860152611bc8565b906101608301520390f35b3461019557602060031936011261019557611900611a65565b3360009081527f1da0b5176dfe03406af5a6eed66ca01dda9b45ac4da671c3fa379cb93717ef8160205260409020547f0ce23c3e399818cfee81a7ab0880f714e53d7672b08df0fa62f2843416e1ea099060ff16156119905773ffffffffffffffffffffffffffffffffffffffff821660005260036020526006604060002001600160ff19825416179055600080f35b604490604051907fe2517d3f0000000000000000000000000000000000000000000000000000000082523360048301526024820152fd5b3461019557602060031936011261019557600435907fffffffff00000000000000000000000000000000000000000000000000000000821680920361019557817f7965db0b0000000000000000000000000000000000000000000000000000000060209314908115611a3b575b5015158152f35b7f01ffc9a70000000000000000000000000000000000000000000000000000000091501483611a34565b6004359073ffffffffffffffffffffffffffffffffffffffff8216820361019557565b6024359073ffffffffffffffffffffffffffffffffffffffff8216820361019557565b90600182811c92168015611af4575b6020831014611ac557565b7f4e487b7100000000000000000000000000000000000000000000000000000000600052602260045260246000fd5b91607f1691611aba565b90601f601f19910116810190811067ffffffffffffffff82111761066d57604052565b9060405191826000825492611b3584611aab565b908184526001948581169081600014611ba45750600114611b61575b5050611b5f92500383611afe565b565b9093915060005260209081600020936000915b818310611b8c575050611b5f93508201013880611b51565b85548884018501529485019487945091830191611b74565b9050611b5f95506020935060ff1991501682840152151560051b8201013880611b51565b919082519283825260005b848110611bf4575050601f19601f8460006020809697860101520116010190565b602081830181015184830182015201611bd3565b81601f820112156101955780359067ffffffffffffffff821161066d5760405192611c3d6020601f19601f8601160185611afe565b8284526020838301011161019557816000926020809301838601378301015290565b8054821015611c775760005260206000200190600090565b7f4e487b7100000000000000000000000000000000000000000000000000000000600052603260045260246000fd5b67ffffffffffffffff811161066d5760051b60200190565b80600052600060205260406000203360005260205260ff60406000205416156119905750565b906000918083528260205273ffffffffffffffffffffffffffffffffffffffff6040842092169182845260205260ff60408420541615600014611d6b57808352826020526040832082845260205260408320600160ff198254161790557f2f8788117e7eff1d82e926ec794901d17c78024a50270940304540a733656f0d339380a4600190565b505090565b906000918083528260205273ffffffffffffffffffffffffffffffffffffffff6040842092169182845260205260ff604084205416600014611d6b5780835282602052604083208284526020526040832060ff1981541690557ff6391f5c32d9c69d2a47ea670b442974b53935d1edc7fd64eb21e047a839171b339380a4600190565b818110611dfe575050565b60008155600101611df3565b60001981146102e35760010190565b80546801000000000000000081101561066d57611e3b91600182018155611c5f565b600019829392549160031b92831b921b1916179055565b15611e5957565b60646040517f08c379a000000000000000000000000000000000000000000000000000000000815260206004820152600760248201527f496e76616c6964000000000000000000000000000000000000000000000000006044820152fdfea2646970667358221220ded6d78a35dcafa60866db1d7019f2e6b000de2ec979eb5de1e8a6e5723ed1ec64736f6c634300081400332f8788117e7eff1d82e926ec794901d17c78024a50270940304540a733656f0d",
  "linkReferences": {},
  "deployedLinkReferences": {}
}