{
  "_format": "hh-sol-artifact-1",
  "contractName": "VotingMechanism",
  "sourceName": "contracts/dao/VotingMechanism.sol",
  "abi": [
    {
      "inputs": [],
      "stateMutability": "nonpayable",
      "type": "constructor"
    },
    {
      "inputs": [
        {
          "internalType": "address",
          "name": "owner",
          "type": "address"
        }
      ],
      "name": "OwnableInvalidOwner",
      "type": "error"
    },
    {
      "inputs": [
        {
          "internalType": "address",
          "name": "account",
          "type": "address"
        }
      ],
      "name": "OwnableUnauthorizedAccount",
      "type": "error"
    },
    {
      "anonymous": false,
      "inputs": [
        {
          "indexed": true,
          "internalType": "address",
          "name": "previousOwner",
          "type": "address"
        },
        {
          "indexed": true,
          "internalType": "address",
          "name": "newOwner",
          "type": "address"
        }
      ],
      "name": "OwnershipTransferred",
      "type": "event"
    },
    {
      "anonymous": false,
      "inputs": [
        {
          "indexed": true,
          "internalType": "address",
          "name": "voter",
          "type": "address"
        },
        {
          "indexed": true,
          "internalType": "uint256",
          "name": "proposalId",
          "type": "uint256"
        },
        {
          "indexed": false,
          "internalType": "enum VotingMechanism.VoteType",
          "name": "support",
          "type": "uint8"
        },
        {
          "indexed": false,
          "internalType": "uint256",
          "name": "weight",
          "type": "uint256"
        },
        {
          "indexed": false,
          "internalType": "string",
          "name": "reason",
          "type": "string"
        }
      ],
      "name": "VoteCast",
      "type": "event"
    },
    {
      "anonymous": false,
      "inputs": [
        {
          "indexed": true,
          "internalType": "address",
          "name": "voter",
          "type": "address"
        },
        {
          "indexed": false,
          "internalType": "uint256",
          "name": "power",
          "type": "uint256"
        }
      ],
      "name": "VotingPowerCalculated",
      "type": "event"
    },
    {
      "inputs": [
        {
          "internalType": "uint256",
          "name": "",
          "type": "uint256"
        }
      ],
      "name": "abstainVotes",
      "outputs": [
        {
          "internalType": "uint256",
          "name": "",
          "type": "uint256"
        }
      ],
      "stateMutability": "view",
      "type": "function"
    },
    {
      "inputs": [
        {
          "internalType": "uint256",
          "name": "",
          "type": "uint256"
        }
      ],
      "name": "againstVotes",
      "outputs": [
        {
          "internalType": "uint256",
          "name": "",
          "type": "uint256"
        }
      ],
      "stateMutability": "view",
      "type": "function"
    },
    {
      "inputs": [
        {
          "internalType": "address",
          "name": "voter",
          "type": "address"
        },
        {
          "internalType": "uint256",
          "name": "tokenBalance",
          "type": "uint256"
        },
        {
          "internalType": "uint256",
          "name": "stakedAmount",
          "type": "uint256"
        },
        {
          "internalType": "int256",
          "name": "reputationScore",
          "type": "int256"
        }
      ],
      "name": "calculateVotingPower",
      "outputs": [
        {
          "internalType": "uint256",
          "name": "",
          "type": "uint256"
        }
      ],
      "stateMutability": "pure",
      "type": "function"
    },
    {
      "inputs": [
        {
          "internalType": "uint256",
          "name": "proposalId",
          "type": "uint256"
        },
        {
          "internalType": "enum VotingMechanism.VoteType",
          "name": "support",
          "type": "uint8"
        },
        {
          "internalType": "uint256",
          "name": "votingPower",
          "type": "uint256"
        },
        {
          "internalType": "string",
          "name": "reason",
          "type": "string"
        }
      ],
      "name": "castVote",
      "outputs": [],
      "stateMutability": "nonpayable",
      "type": "function"
    },
    {
      "inputs": [
        {
          "internalType": "uint256",
          "name": "",
          "type": "uint256"
        }
      ],
      "name": "forVotes",
      "outputs": [
        {
          "internalType": "uint256",
          "name": "",
          "type": "uint256"
        }
      ],
      "stateMutability": "view",
      "type": "function"
    },
    {
      "inputs": [
        {
          "internalType": "uint256",
          "name": "proposalId",
          "type": "uint256"
        },
        {
          "internalType": "uint256",
          "name": "totalSupply",
          "type": "uint256"
        }
      ],
      "name": "getParticipationRate",
      "outputs": [
        {
          "internalType": "uint256",
          "name": "",
          "type": "uint256"
        }
      ],
      "stateMutability": "view",
      "type": "function"
    },
    {
      "inputs": [
        {
          "internalType": "uint256",
          "name": "proposalId",
          "type": "uint256"
        },
        {
          "internalType": "address",
          "name": "voter",
          "type": "address"
        }
      ],
      "name": "getVote",
      "outputs": [
        {
          "components": [
            {
              "internalType": "address",
              "name": "voter",
              "type": "address"
            },
            {
              "internalType": "enum VotingMechanism.VoteType",
              "name": "support",
              "type": "uint8"
            },
            {
              "internalType": "uint256",
              "name": "weight",
              "type": "uint256"
            },
            {
              "internalType": "uint256",
              "name": "timestamp",
              "type": "uint256"
            },
            {
              "internalType": "string",
              "name": "reason",
              "type": "string"
            }
          ],
          "internalType": "struct VotingMechanism.Vote",
          "name": "",
          "type": "tuple"
        }
      ],
      "stateMutability": "view",
      "type": "function"
    },
    {
      "inputs": [
        {
          "internalType": "uint256",
          "name": "proposalId",
          "type": "uint256"
        }
      ],
      "name": "getVoteCounts",
      "outputs": [
        {
          "internalType": "uint256",
          "name": "forCount",
          "type": "uint256"
        },
        {
          "internalType": "uint256",
          "name": "againstCount",
          "type": "uint256"
        },
        {
          "internalType": "uint256",
          "name": "abstainCount",
          "type": "uint256"
        }
      ],
      "stateMutability": "view",
      "type": "function"
    },
    {
      "inputs": [
        {
          "internalType": "uint256",
          "name": "proposalId",
          "type": "uint256"
        }
      ],
      "name": "getVoterCount",
      "outputs": [
        {
          "internalType": "uint256",
          "name": "",
          "type": "uint256"
        }
      ],
      "stateMutability": "view",
      "type": "function"
    },
    {
      "inputs": [
        {
          "internalType": "uint256",
          "name": "proposalId",
          "type": "uint256"
        }
      ],
      "name": "getVoters",
      "outputs": [
        {
          "internalType": "address[]",
          "name": "",
          "type": "address[]"
        }
      ],
      "stateMutability": "view",
      "type": "function"
    },
    {
      "inputs": [
        {
          "internalType": "uint256",
          "name": "proposalId",
          "type": "uint256"
        }
      ],
      "name": "getWinningOption",
      "outputs": [
        {
          "internalType": "enum VotingMechanism.VoteType",
          "name": "",
          "type": "uint8"
        }
      ],
      "stateMutability": "view",
      "type": "function"
    },
    {
      "inputs": [
        {
          "internalType": "uint256",
          "name": "",
          "type": "uint256"
        },
        {
          "internalType": "address",
          "name": "",
          "type": "address"
        }
      ],
      "name": "hasVoted",
      "outputs": [
        {
          "internalType": "bool",
          "name": "",
          "type": "bool"
        }
      ],
      "stateMutability": "view",
      "type": "function"
    },
    {
      "inputs": [
        {
          "internalType": "uint256",
          "name": "proposalId",
          "type": "uint256"
        },
        {
          "internalType": "address",
          "name": "voter",
          "type": "address"
        }
      ],
      "name": "hasVotedOnProposal",
      "outputs": [
        {
          "internalType": "bool",
          "name": "",
          "type": "bool"
        }
      ],
      "stateMutability": "view",
      "type": "function"
    },
    {
      "inputs": [],
      "name": "owner",
      "outputs": [
        {
          "internalType": "address",
          "name": "",
          "type": "address"
        }
      ],
      "stateMutability": "view",
      "type": "function"
    },
    {
      "inputs": [],
      "name": "renounceOwnership",
      "outputs": [],
      "stateMutability": "nonpayable",
      "type": "function"
    },
    {
      "inputs": [
        {
          "internalType": "uint256",
          "name": "",
          "type": "uint256"
        }
      ],
      "name": "totalVoters",
      "outputs": [
        {
          "internalType": "uint256",
          "name": "",
          "type": "uint256"
        }
      ],
      "stateMutability": "view",
      "type": "function"
    },
    {
      "inputs": [
        {
          "internalType": "address",
          "name": "newOwner",
          "type": "address"
        }
      ],
      "name": "transferOwnership",
      "outputs": [],
      "stateMutability": "nonpayable",
      "type": "function"
    },
    {
      "inputs": [
        {
          "internalType": "uint256",
          "name": "",
          "type": "uint256"
        },
        {
          "internalType": "uint256",
          "name": "",
          "type": "uint256"
        }
      ],
      "name": "voters",
      "outputs": [
        {
          "internalType": "address",
          "name": "",
          "type": "address"
        }
      ],
      "stateMutability": "view",
      "type": "function"
    },
    {
      "inputs": [
        {
          "internalType": "uint256",
          "name": "",
          "type": "uint256"
        },
        {
          "internalType": "address",
          "name": "",
          "type": "address"
        }
      ],
      "name": "votes",
      "outputs": [
        {
          "internalType": "address",
          "name": "voter",
          "type": "address"
        },
        {
          "internalType": "enum VotingMechanism.VoteType",
          "name": "support",
          "type": "uint8"
        },
        {
          "internalType": "uint256",
          "name": "weight",
          "type": "uint256"
        },
        {
          "internalType": "uint256",
          "name": "timestamp",
          "type": "uint256"
        },
        {
          "internalType": "string",
          "name": "reason",
          "type": "string"
        }
      ],
      "stateMutability": "view",
      "type": "function"
    }
  ],
  "bytecode": "0x6080806040523461007a5733156100645760008054336001600160a01b03198216811783556040519290916001600160a01b0316907f8be0079c531659141344cd1fd0a4f28419497f9722a3daafe3b4186f6b6457e09080a361116790816100808239f35b631e4fbdf760e01b815260006004820152602490fd5b600080fdfe608080604052600436101561001357600080fd5b60003560e01c9081634385963214610d2857508063490587cf14610cd5578063498d91bf1461023c5780635ebad71414610ca9578063600303d814610c4e578063715018a614610bd057806386b646f214610afe5780638897c26514610add5780638a241f4c14610a905780638da5cb5b14610a5c5780638ff49df214610a30578063a628687014610a03578063aa732a3014610417578063bc3f931f1461030f578063d23254b414610268578063e92e5c341461023c578063e96e22b914610210578063f2fde38b1461014c5763fba00cbd146100f057600080fd5b34610147576100fe36610dc4565b90600052600660205260406000209081548110156101475761013773ffffffffffffffffffffffffffffffffffffffff91602093610fba565b9190546040519260031b1c168152f35b600080fd5b3461014757602060031936011261014757610165610da1565b61016d611001565b73ffffffffffffffffffffffffffffffffffffffff8091169081156101df57600054827fffffffffffffffffffffffff0000000000000000000000000000000000000000821617600055167f8be0079c531659141344cd1fd0a4f28419497f9722a3daafe3b4186f6b6457e0600080a3005b60246040517f1e4fbdf700000000000000000000000000000000000000000000000000000000815260006004820152fd5b346101475760206003193601126101475760043560005260026020526020604060002054604051908152f35b346101475760206003193601126101475760043560005260056020526020604060002054604051908152f35b3461014757604060031936011261014757610281610d7e565b6004356000526001602052604060002073ffffffffffffffffffffffffffffffffffffffff80921660005260205260406000209061030b8254926001810154906102d2600360028301549201610ef5565b916102f06040519687968116875260ff602088019160a01c16610dda565b6040850152606084015260a0608084015260a0830190610e44565b0390f35b3461014757604060031936011261014757610328610d7e565b60405161033481610de7565b600081526060608060209260008482015260006040820152600083820152015260043560005260018152604060002073ffffffffffffffffffffffffffffffffffffffff809316600052815261030b6040600020916040519261039684610de7565b805485811685526103b060ff8487019260a01c1682611052565b6103fa600183015491604087019283526103d8600360028601549560608a0196875201610ef5565b9460808801958652604051988998828a52511690880152516040870190610dda565b5160608501525160808401525160a08084015260c0830190610e44565b3461014757608060031936011261014757600360243510156101475760643567ffffffffffffffff80821161014757366023830112156101475781600401358181116107ee576040519261049360207fffffffffffffffffffffffffffffffffffffffffffffffffffffffffffffffe0601f8501160185610e03565b818452366024838301011161014757816000926024602093018387013784010152600435600052600760205260406000203360005260205260ff604060002054166109a5576044351561094757604051906104ed82610de7565b3382526020820161050060243582611052565b60408301604435815260608401904282526080850192868452600435600052600160205260406000203360005260205273ffffffffffffffffffffffffffffffffffffffff60406000209651168654915160038110156109185774ff00000000000000000000000000000000000000007fffffffffffffffffffffff0000000000000000000000000000000000000000009160a01b169216171785555160018501555160028401555180519182116107ee576105bf6003840154610ea2565b601f81116108d1575b50602090601f831160011461082857600392916000918361081d575b50507fffffffffffffffffffffffffffffffffffffffffffffffffffffffffffffffff8260011b92841b1c1916179101555b6004356000526007602052604060002033600052602052604060002060017fffffffffffffffffffffffffffffffffffffffffffffffffffffffffffffff00825416179055600435600052600660205260406000208054680100000000000000008110156107ee5761068d91600182018155610fba565b81549060031b9073ffffffffffffffffffffffffffffffffffffffff33831b921b19161790556004356000526005602052604060002080547fffffffffffffffffffffffffffffffffffffffffffffffffffffffffffffffff81146107bf576001019055600160243514600014610777576004356000526002602052604060002061071b604435825461105e565b90555b6040519061072e82602435610dda565b6044356020830152606060408301527fb8e138887d0aa13bab447e82de9d5c1777041ecd21ca36ba824ff1e6c07ddda4600435928061077233946060830190610e44565b0390a3005b6024356107a2576004356000526003602052604060002061079b604435825461105e565b905561071e565b6004356000526004602052604060002061079b604435825461105e565b7f4e487b7100000000000000000000000000000000000000000000000000000000600052601160045260246000fd5b7f4e487b7100000000000000000000000000000000000000000000000000000000600052604160045260246000fd5b0151905085806105e4565b907fffffffffffffffffffffffffffffffffffffffffffffffffffffffffffffffe08316916003850160005260206000209260005b8181106108b957509160019391856003969410610883575b505050811b01910155610616565b01517fffffffffffffffffffffffffffffffffffffffffffffffffffffffffffffffff60f884871b161c19169055858080610875565b9293602060018192878601518155019501930161085d565b600384016000526020600020601f840160051c810160208510610911575b601f830160051c820181106109055750506105c8565b600081556001016108ef565b50806108ef565b7f4e487b7100000000000000000000000000000000000000000000000000000000600052602160045260246000fd5b60646040517f08c379a000000000000000000000000000000000000000000000000000000000815260206004820152600f60248201527f4e6f20766f74696e6720706f77657200000000000000000000000000000000006044820152fd5b60646040517f08c379a000000000000000000000000000000000000000000000000000000000815260206004820152600d60248201527f416c726561647920766f746564000000000000000000000000000000000000006044820152fd5b34610147576020600319360112610147576020610a2160043561106b565b610a2e6040518092610dda565bf35b346101475760206003193601126101475760043560005260046020526020604060002054604051908152f35b3461014757600060031936011261014757602073ffffffffffffffffffffffffffffffffffffffff60005416604051908152f35b346101475760206003193601126101475760043560005260026020526060604060002054600360205260406000205460046020526040600020549060405192835260208301526040820152f35b34610147576020610af6610af036610dc4565b906110a5565b604051908152f35b34610147576020806003193601126101475760043560005260068152604060002060405190818382549182815201908192600052846000209060005b86828210610ba6578686610b5082880383610e03565b604051928392818401908285525180915260408401929160005b828110610b7957505050500390f35b835173ffffffffffffffffffffffffffffffffffffffff1685528695509381019392810192600101610b6a565b835473ffffffffffffffffffffffffffffffffffffffff1685529093019260019283019201610b3a565b3461014757600060031936011261014757610be9611001565b600073ffffffffffffffffffffffffffffffffffffffff81547fffffffffffffffffffffffff000000000000000000000000000000000000000081168355167f8be0079c531659141344cd1fd0a4f28419497f9722a3daafe3b4186f6b6457e08280a3005b3461014757604060031936011261014757610c67610d7e565b600435600052600760205273ffffffffffffffffffffffffffffffffffffffff60406000209116600052602052602060ff604060002054166040519015158152f35b346101475760206003193601126101475760043560005260036020526020604060002054604051908152f35b3461014757608060031936011261014757610cee610da1565b506064356000811315610d1b57610af6600a602092045b610d1660443560011c60243561105e565b61105e565b506020610af66000610d05565b3461014757604060031936011261014757602090610d44610d7e565b6004356000526007835273ffffffffffffffffffffffffffffffffffffffff60406000209116600052825260ff6040600020541615158152f35b6024359073ffffffffffffffffffffffffffffffffffffffff8216820361014757565b6004359073ffffffffffffffffffffffffffffffffffffffff8216820361014757565b6003196040910112610147576004359060243590565b9060038210156109185752565b60a0810190811067ffffffffffffffff8211176107ee57604052565b90601f7fffffffffffffffffffffffffffffffffffffffffffffffffffffffffffffffe0910116810190811067ffffffffffffffff8211176107ee57604052565b919082519283825260005b848110610e8e5750507fffffffffffffffffffffffffffffffffffffffffffffffffffffffffffffffe0601f8460006020809697860101520116010190565b602081830181015184830182015201610e4f565b90600182811c92168015610eeb575b6020831014610ebc57565b7f4e487b7100000000000000000000000000000000000000000000000000000000600052602260045260246000fd5b91607f1691610eb1565b9060405191826000825492610f0984610ea2565b908184526001948581169081600014610f785750600114610f35575b5050610f3392500383610e03565b565b9093915060005260209081600020936000915b818310610f60575050610f3393508201013880610f25565b85548884018501529485019487945091830191610f48565b9050610f339550602093507fffffffffffffffffffffffffffffffffffffffffffffffffffffffffffffff0091501682840152151560051b8201013880610f25565b8054821015610fd25760005260206000200190600090565b7f4e487b7100000000000000000000000000000000000000000000000000000000600052603260045260246000fd5b73ffffffffffffffffffffffffffffffffffffffff60005416330361102257565b60246040517f118cdaa7000000000000000000000000000000000000000000000000000000008152336004820152fd5b60038210156109185752565b919082018092116107bf57565b60005260026020526040600020546003602052604060002054808211600014611095575050600190565b11156110a057600090565b600290565b6110de60009180835260026020526110cb6040842054600360205260408520549061105e565b908352600460205260408320549061105e565b90821561112b57612710918281029281840414901517156110fe57500490565b807f4e487b7100000000000000000000000000000000000000000000000000000000602492526011600452fd5b9150509056fea2646970667358221220ddcf7304ce6bf9ba48dab826cf3fc5bd19859ce3404fd889def6c0de4a4395fa64736f6c63430008140033",
  "linkReferences": {},
  "deployedLinkReferences": {}
}