{
  "_format": "hh-sol-artifact-1",
  "contractName": "VotingMechanism",
  "sourceName": "contracts/dao/VotingMechanism.sol",
  "abi": [
    {
      "inputs": [],
      "stateMutability": "nonpayable",
      "type": "constructor"
    },
    {
      "inputs": [
        {
          "internalType": "address",
          "name": "owner",
          "type": "address"
        }
      ],
      "name": "OwnableInvalidOwner",
      "type": "error"
    },
    {
      "inputs": [
        {
          "internalType": "address",
          "name": "account",
          "type": "address"
        }
      ],
      "name": "OwnableUnauthorizedAccount",
      "type": "error"
    },
    {
      "anonymous": false,
      "inputs": [
        {
          "indexed": true,
          "internalType": "address",
          "name": "previousOwner",
          "type": "address"
        },
        {
          "indexed": true,
          "internalType": "address",
          "name": "newOwner",
          "type": "address"
        }
      ],
      "name": "OwnershipTransferred",
      "type": "event"
    },
    {
      "anonymous": false,
      "inputs": [
        {
          "indexed": true,
          "internalType": "address",
          "name": "voter",
          "type": "address"
        },
        {
          "indexed": true,
          "internalType": "uint256",
          "name": "proposalId",
          "type": "uint256"
        },
        {
          "indexed": false,
          "internalType": "enum VotingMechanism.VoteType",
          "name": "support",
          "type": "uint8"
        },
        {
          "indexed": false,
          "internalType": "uint256",
          "name": "weight",
          "type": "uint256"
        },
        {
          "indexed": false,
          "internalType": "string",
          "name": "reason",
          "type": "string"
        }
      ],
      "name": "VoteCast",
      "type": "event"
    },
    {
      "anonymous": false,
      "inputs": [
        {
          "indexed": true,
          "internalType": "address",
          "name": "voter",
          "type": "address"
        },
        {
          "indexed": false,
          "internalType": "uint256",
          "name": "power",
          "type": "uint256"
        }
      ],
      "name": "VotingPowerCalculated",
      "type": "event"
    },
    {
      "inputs": [
        {
          "internalType": "uint256",
          "name": "",
          "type": "uint256"
        }
      ],
      "name": "abstainVotes",
      "outputs": [
        {
          "internalType": "uint256",
          "name": "",
          "type": "uint256"
        }
      ],
      "stateMutability": "view",
      "type": "function"
    },
    {
      "inputs": [
        {
          "internalType": "uint256",
          "name": "",
          "type": "uint256"
        }
      ],
      "name": "againstVotes",
      "outputs": [
        {
          "internalType": "uint256",
          "name": "",
          "type": "uint256"
        }
      ],
      "stateMutability": "view",
      "type": "function"
    },
    {
      "inputs": [
        {
          "internalType": "address",
          "name": "voter",
          "type": "address"
        },
        {
          "internalType": "uint256",
          "name": "tokenBalance",
          "type": "uint256"
        },
        {
          "internalType": "uint256",
          "name": "stakedAmount",
          "type": "uint256"
        },
        {
          "internalType": "int256",
          "name": "reputationScore",
          "type": "int256"
        }
      ],
      "name": "calculateVotingPower",
      "outputs": [
        {
          "internalType": "uint256",
          "name": "",
          "type": "uint256"
        }
      ],
      "stateMutability": "pure",
      "type": "function"
    },
    {
      "inputs": [
        {
          "internalType": "uint256",
          "name": "proposalId",
          "type": "uint256"
        },
        {
          "internalType": "enum VotingMechanism.VoteType",
          "name": "support",
          "type": "uint8"
        },
        {
          "internalType": "uint256",
          "name": "votingPower",
          "type": "uint256"
        },
        {
          "internalType": "string",
          "name": "reason",
          "type": "string"
        }
      ],
      "name": "castVote",
      "outputs": [],
      "stateMutability": "nonpayable",
      "type": "function"
    },
    {
      "inputs": [
        {
          "internalType": "uint256",
          "name": "",
          "type": "uint256"
        }
      ],
      "name": "forVotes",
      "outputs": [
        {
          "internalType": "uint256",
          "name": "",
          "type": "uint256"
        }
      ],
      "stateMutability": "view",
      "type": "function"
    },
    {
      "inputs": [
        {
          "internalType": "uint256",
          "name": "proposalId",
          "type": "uint256"
        },
        {
          "internalType": "uint256",
          "name": "totalSupply",
          "type": "uint256"
        }
      ],
      "name": "getParticipationRate",
      "outputs": [
        {
          "internalType": "uint256",
          "name": "",
          "type": "uint256"
        }
      ],
      "stateMutability": "view",
      "type": "function"
    },
    {
      "inputs": [
        {
          "internalType": "uint256",
          "name": "proposalId",
          "type": "uint256"
        },
        {
          "internalType": "address",
          "name": "voter",
          "type": "address"
        }
      ],
      "name": "getVote",
      "outputs": [
        {
          "components": [
            {
              "internalType": "address",
              "name": "voter",
              "type": "address"
            },
            {
              "internalType": "enum VotingMechanism.VoteType",
              "name": "support",
              "type": "uint8"
            },
            {
              "internalType": "uint256",
              "name": "weight",
              "type": "uint256"
            },
            {
              "internalType": "uint256",
              "name": "timestamp",
              "type": "uint256"
            },
            {
              "internalType": "string",
              "name": "reason",
              "type": "string"
            }
          ],
          "internalType": "struct VotingMechanism.Vote",
          "name": "",
          "type": "tuple"
        }
      ],
      "stateMutability": "view",
      "type": "function"
    },
    {
      "inputs": [
        {
          "internalType": "uint256",
          "name": "proposalId",
          "type": "uint256"
        }
      ],
      "name": "getVoteCounts",
      "outputs": [
        {
          "internalType": "uint256",
          "name": "forCount",
          "type": "uint256"
        },
        {
          "internalType": "uint256",
          "name": "againstCount",
          "type": "uint256"
        },
        {
          "internalType": "uint256",
          "name": "abstainCount",
          "type": "uint256"
        }
      ],
      "stateMutability": "view",
      "type": "function"
    },
    {
      "inputs": [
        {
          "internalType": "uint256",
          "name": "proposalId",
          "type": "uint256"
        }
      ],
      "name": "getVoterCount",
      "outputs": [
        {
          "internalType": "uint256",
          "name": "",
          "type": "uint256"
        }
      ],
      "stateMutability": "view",
      "type": "function"
    },
    {
      "inputs": [
        {
          "internalType": "uint256",
          "name": "proposalId",
          "type": "uint256"
        }
      ],
      "name": "getVoters",
      "outputs": [
        {
          "internalType": "address[]",
          "name": "",
          "type": "address[]"
        }
      ],
      "stateMutability": "view",
      "type": "function"
    },
    {
      "inputs": [
        {
          "internalType": "uint256",
          "name": "proposalId",
          "type": "uint256"
        }
      ],
      "name": "getWinningOption",
      "outputs": [
        {
          "internalType": "enum VotingMechanism.VoteType",
          "name": "",
          "type": "uint8"
        }
      ],
      "stateMutability": "view",
      "type": "function"
    },
    {
      "inputs": [
        {
          "internalType": "uint256",
          "name": "",
          "type": "uint256"
        },
        {
          "internalType": "address",
          "name": "",
          "type": "address"
        }
      ],
      "name": "hasVoted",
      "outputs": [
        {
          "internalType": "bool",
          "name": "",
          "type": "bool"
        }
      ],
      "stateMutability": "view",
      "type": "function"
    },
    {
      "inputs": [
        {
          "internalType": "uint256",
          "name": "proposalId",
          "type": "uint256"
        },
        {
          "internalType": "address",
          "name": "voter",
          "type": "address"
        }
      ],
      "name": "hasVotedOnProposal",
      "outputs": [
        {
          "internalType": "bool",
          "name": "",
          "type": "bool"
        }
      ],
      "stateMutability": "view",
      "type": "function"
    },
    {
      "inputs": [],
      "name": "owner",
      "outputs": [
        {
          "internalType": "address",
          "name": "",
          "type": "address"
        }
      ],
      "stateMutability": "view",
      "type": "function"
    },
    {
      "inputs": [],
      "name": "renounceOwnership",
      "outputs": [],
      "stateMutability": "nonpayable",
      "type": "function"
    },
    {
      "inputs": [
        {
          "internalType": "uint256",
          "name": "",
          "type": "uint256"
        }
      ],
      "name": "totalVoters",
      "outputs": [
        {
          "internalType": "uint256",
          "name": "",
          "type": "uint256"
        }
      ],
      "stateMutability": "view",
      "type": "function"
    },
    {
      "inputs": [
        {
          "internalType": "address",
          "name": "newOwner",
          "type": "address"
        }
      ],
      "name": "transferOwnership",
      "outputs": [],
      "stateMutability": "nonpayable",
      "type": "function"
    },
    {
      "inputs": [
        {
          "internalType": "uint256",
          "name": "",
          "type": "uint256"
        },
        {
          "internalType": "uint256",
          "name": "",
          "type": "uint256"
        }
      ],
      "name": "voters",
      "outputs": [
        {
          "internalType": "address",
          "name": "",
          "type": "address"
        }
      ],
      "stateMutability": "view",
      "type": "function"
    },
    {
      "inputs": [
        {
          "internalType": "uint256",
          "name": "",
          "type": "uint256"
        },
        {
          "internalType": "address",
          "name": "",
          "type": "address"
        }
      ],
      "name": "votes",
      "outputs": [
        {
          "internalType": "address",
          "name": "voter",
          "type": "address"
        },
        {
          "internalType": "enum VotingMechanism.VoteType",
          "name": "support",
          "type": "uint8"
        },
        {
          "internalType": "uint256",
          "name": "weight",
          "type": "uint256"
        },
        {
          "internalType": "uint256",
          "name": "timestamp",
          "type": "uint256"
        },
        {
          "internalType": "string",
          "name": "reason",
          "type": "string"
        }
      ],
      "stateMutability": "view",
      "type": "function"
    }
  ],
  "bytecode": "0x608060405234801561001057600080fd5b50338061003757604051631e4fbdf760e01b81526000600482015260240160405180910390fd5b61004081610046565b50610096565b600080546001600160a01b038381166001600160a01b0319831681178455604051919092169283917f8be0079c531659141344cd1fd0a4f28419497f9722a3daafe3b4186f6b6457e09190a35050565b611083806100a56000396000f3fe608060405234801561001057600080fd5b50600436106101215760003560e01c80638da5cb5b116100ad578063d23254b411610071578063d23254b414610304578063e92e5c3414610328578063e96e22b914610348578063f2fde38b14610368578063fba00cbd1461037b57600080fd5b80638da5cb5b1461026c5780638ff49df214610291578063a6286870146102b1578063aa732a30146102d1578063bc3f931f146102e457600080fd5b8063600303d8116100f4578063600303d8146101ca578063715018a6146101dd57806386b646f2146101e75780638897c265146102075780638a241f4c1461021a57600080fd5b80634385963214610126578063490587cf14610169578063498d91bf1461018a5780635ebad714146101aa575b600080fd5b610154610134366004610b34565b600760209081526000928352604080842090915290825290205460ff1681565b60405190151581526020015b60405180910390f35b61017c610177366004610b60565b61038e565b604051908152602001610160565b61017c610198366004610b99565b60056020526000908152604090205481565b61017c6101b8366004610b99565b60036020526000908152604090205481565b6101546101d8366004610b34565b6103dd565b6101e561040a565b005b6101fa6101f5366004610b99565b61041e565b6040516101609190610bb2565b61017c610215366004610bff565b61048a565b610251610228366004610b99565b600081815260026020908152604080832054600383528184205460049093529220549193909250565b60408051938452602084019290925290820152606001610160565b6000546001600160a01b03165b6040516001600160a01b039091168152602001610160565b61017c61029f366004610b99565b60046020526000908152604090205481565b6102c46102bf366004610b99565b6104f5565b6040516101609190610c59565b6101e56102df366004610c7d565b61053d565b6102f76102f2366004610b34565b61080a565b6040516101609190610d9e565b610317610312366004610b34565b610957565b604051610160959493929190610df2565b61017c610336366004610b99565b60009081526005602052604090205490565b61017c610356366004610b99565b60026020526000908152604090205481565b6101e5610376366004610e38565b610a25565b610279610389366004610bff565b610a63565b6000838161039d600286610e70565b905060008085136103af5760006103ba565b6103ba600a86610e70565b9050806103c78385610e92565b6103d19190610e92565b98975050505050505050565b60008281526007602090815260408083206001600160a01b038516845290915290205460ff165b92915050565b610412610a9b565b61041c6000610ac8565b565b60008181526006602090815260409182902080548351818402810184019094528084526060939283018282801561047e57602002820191906000526020600020905b81546001600160a01b03168152600190910190602001808311610460575b50505050509050919050565b600082815260046020908152604080832054600383528184205460029093529083205483926104b891610e92565b6104c29190610e92565b9050826000036104d6576000915050610404565b826104e382612710610ea5565b6104ed9190610e70565b949350505050565b600081815260026020908152604080832054600390925282205480821115610521575060019392505050565b81811115610533575060009392505050565b5060029392505050565b600084815260076020908152604080832033845290915290205460ff161561059c5760405162461bcd60e51b815260206004820152600d60248201526c105b1c9958591e481d9bdd1959609a1b60448201526064015b60405180910390fd5b600082116105de5760405162461bcd60e51b815260206004820152600f60248201526e2737903b37ba34b733903837bbb2b960891b6044820152606401610593565b6040518060a00160405280336001600160a01b0316815260200184600281111561060a5761060a610c21565b81526020808201859052426040808401919091526060909201849052600087815260018252828120338252825291909120825181546001600160a01b03919091166001600160a01b031982168117835592840151919283916001600160a81b03191617600160a01b83600281111561068457610684610c21565b02179055506040820151600182015560608201516002820155608082015160038201906106b19082610f45565b505050600084815260076020908152604080832033808552908352818420805460ff19166001908117909155888552600684528285208054918201815585528385200180546001600160a01b03191690911790558683526005909152812080549161071b83611005565b909155506001905083600281111561073557610735610c21565b036107635760008481526002602052604081208054849290610758908490610e92565b909155506107be9050565b600083600281111561077757610777610c21565b0361079a5760008481526003602052604081208054849290610758908490610e92565b600084815260046020526040812080548492906107b8908490610e92565b90915550505b83336001600160a01b03167fb8e138887d0aa13bab447e82de9d5c1777041ecd21ca36ba824ff1e6c07ddda48585856040516107fc9392919061101e565b60405180910390a350505050565b61083d6040805160a081019091526000808252602082019081526020016000815260200160008152602001606081525090565b60008381526001602090815260408083206001600160a01b03868116855290835292819020815160a081019092528054938416825290929091830190600160a01b900460ff16600281111561089457610894610c21565b60028111156108a5576108a5610c21565b815260200160018201548152602001600282015481526020016003820180546108cd90610ebc565b80601f01602080910402602001604051908101604052809291908181526020018280546108f990610ebc565b80156109465780601f1061091b57610100808354040283529160200191610946565b820191906000526020600020905b81548152906001019060200180831161092957829003601f168201915b505050505081525050905092915050565b6001602081815260009384526040808520909152918352912080549181015460028201546003830180546001600160a01b03861695600160a01b900460ff169491906109a290610ebc565b80601f01602080910402602001604051908101604052809291908181526020018280546109ce90610ebc565b8015610a1b5780601f106109f057610100808354040283529160200191610a1b565b820191906000526020600020905b8154815290600101906020018083116109fe57829003601f168201915b5050505050905085565b610a2d610a9b565b6001600160a01b038116610a5757604051631e4fbdf760e01b815260006004820152602401610593565b610a6081610ac8565b50565b60066020528160005260406000208181548110610a7f57600080fd5b6000918252602090912001546001600160a01b03169150829050565b6000546001600160a01b0316331461041c5760405163118cdaa760e01b8152336004820152602401610593565b600080546001600160a01b038381166001600160a01b0319831681178455604051919092169283917f8be0079c531659141344cd1fd0a4f28419497f9722a3daafe3b4186f6b6457e09190a35050565b80356001600160a01b0381168114610b2f57600080fd5b919050565b60008060408385031215610b4757600080fd5b82359150610b5760208401610b18565b90509250929050565b60008060008060808587031215610b7657600080fd5b610b7f85610b18565b966020860135965060408601359560600135945092505050565b600060208284031215610bab57600080fd5b5035919050565b6020808252825182820181905260009190848201906040850190845b81811015610bf35783516001600160a01b031683529284019291840191600101610bce565b50909695505050505050565b60008060408385031215610c1257600080fd5b50508035926020909101359150565b634e487b7160e01b600052602160045260246000fd5b60038110610c5557634e487b7160e01b600052602160045260246000fd5b9052565b602081016104048284610c37565b634e487b7160e01b600052604160045260246000fd5b60008060008060808587031215610c9357600080fd5b84359350602085013560038110610ca957600080fd5b925060408501359150606085013567ffffffffffffffff80821115610ccd57600080fd5b818701915087601f830112610ce157600080fd5b813581811115610cf357610cf3610c67565b604051601f8201601f19908116603f01168101908382118183101715610d1b57610d1b610c67565b816040528281528a6020848701011115610d3457600080fd5b82602086016020830137600060208483010152809550505050505092959194509250565b6000815180845260005b81811015610d7e57602081850181015186830182015201610d62565b506000602082860101526020601f19601f83011685010191505092915050565b602080825282516001600160a01b031682820152820151600090610dc56040840182610c37565b506040830151606083015260608301516080830152608083015160a0808401526104ed60c0840182610d58565b6001600160a01b0386168152610e0b6020820186610c37565b83604082015282606082015260a060808201526000610e2d60a0830184610d58565b979650505050505050565b600060208284031215610e4a57600080fd5b610e5382610b18565b9392505050565b634e487b7160e01b600052601160045260246000fd5b600082610e8d57634e487b7160e01b600052601260045260246000fd5b500490565b8082018082111561040457610404610e5a565b808202811582820484141761040457610404610e5a565b600181811c90821680610ed057607f821691505b602082108103610ef057634e487b7160e01b600052602260045260246000fd5b50919050565b601f821115610f4057600081815260208120601f850160051c81016020861015610f1d5750805b601f850160051c820191505b81811015610f3c57828155600101610f29565b5050505b505050565b815167ffffffffffffffff811115610f5f57610f5f610c67565b610f7381610f6d8454610ebc565b84610ef6565b602080601f831160018114610fa85760008415610f905750858301515b600019600386901b1c1916600185901b178555610f3c565b600085815260208120601f198616915b82811015610fd757888601518255948401946001909101908401610fb8565b5085821015610ff55787850151600019600388901b60f8161c191681555b5050505050600190811b01905550565b60006001820161101757611017610e5a565b5060010190565b6110288185610c37565b8260208201526060604082015260006110446060830184610d58565b9594505050505056fea2646970667358221220c82f354165bc50f970f71a1a7be710bff13069b3cb994ffe05df98dc04a7834664736f6c63430008140033",
  "linkReferences": {},
  "deployedLinkReferences": {}
}